{
  "address": "0x2C2B9C9a4a25e24B174f26114e8926a9f2128FE4",
  "abi": [
    {
      "inputs": [],
      "name": "MerkleLib__insert_treeIsFull",
      "type": "error"
    },
    {
      "inputs": [],
      "name": "MerkleTreeManager__setArborist_alreadyArborist",
      "type": "error"
    },
    {
      "inputs": [],
      "name": "MerkleTreeManager__setArborist_zeroAddress",
      "type": "error"
    },
    {
      "inputs": [],
      "name": "ProposedOwnable__onlyOwner_notOwner",
      "type": "error"
    },
    {
      "inputs": [],
      "name": "ProposedOwnable__onlyProposed_notProposedOwner",
      "type": "error"
    },
    {
      "inputs": [],
      "name": "ProposedOwnable__ownershipDelayElapsed_delayNotElapsed",
      "type": "error"
    },
    {
      "inputs": [],
      "name": "ProposedOwnable__proposeNewOwner_invalidProposal",
      "type": "error"
    },
    {
      "inputs": [],
      "name": "ProposedOwnable__proposeNewOwner_noOwnershipChange",
      "type": "error"
    },
    {
      "inputs": [],
      "name": "ProposedOwnable__renounceOwnership_invalidProposal",
      "type": "error"
    },
    {
      "inputs": [],
      "name": "ProposedOwnable__renounceOwnership_noProposal",
      "type": "error"
    },
    {
      "anonymous": false,
      "inputs": [
        {
          "indexed": false,
          "internalType": "address",
          "name": "previous",
          "type": "address"
        },
        {
          "indexed": false,
          "internalType": "address",
          "name": "updated",
          "type": "address"
        }
      ],
      "name": "ArboristUpdated",
      "type": "event"
    },
    {
      "anonymous": false,
      "inputs": [
        {
          "indexed": false,
          "internalType": "uint8",
          "name": "version",
          "type": "uint8"
        }
      ],
      "name": "Initialized",
      "type": "event"
    },
    {
      "anonymous": false,
      "inputs": [
        {
          "indexed": false,
          "internalType": "bytes32",
          "name": "root",
          "type": "bytes32"
        },
        {
          "indexed": false,
          "internalType": "uint256",
          "name": "count",
          "type": "uint256"
        },
        {
          "indexed": false,
          "internalType": "bytes32",
          "name": "leaf",
          "type": "bytes32"
        }
      ],
      "name": "LeafInserted",
      "type": "event"
    },
    {
      "anonymous": false,
      "inputs": [
        {
          "indexed": false,
          "internalType": "bytes32",
          "name": "root",
          "type": "bytes32"
        },
        {
          "indexed": false,
          "internalType": "uint256",
          "name": "count",
          "type": "uint256"
        },
        {
          "indexed": false,
          "internalType": "bytes32[]",
          "name": "leaves",
          "type": "bytes32[]"
        }
      ],
      "name": "LeavesInserted",
      "type": "event"
    },
    {
      "anonymous": false,
      "inputs": [
        {
          "indexed": true,
          "internalType": "address",
          "name": "proposedOwner",
          "type": "address"
        }
      ],
      "name": "OwnershipProposed",
      "type": "event"
    },
    {
      "anonymous": false,
      "inputs": [
        {
          "indexed": true,
          "internalType": "address",
          "name": "previousOwner",
          "type": "address"
        },
        {
          "indexed": true,
          "internalType": "address",
          "name": "newOwner",
          "type": "address"
        }
      ],
      "name": "OwnershipTransferred",
      "type": "event"
    },
    {
      "inputs": [],
      "name": "acceptProposedOwner",
      "outputs": [],
      "stateMutability": "nonpayable",
      "type": "function"
    },
    {
      "inputs": [],
      "name": "arborist",
      "outputs": [
        {
          "internalType": "address",
          "name": "",
          "type": "address"
        }
      ],
      "stateMutability": "view",
      "type": "function"
    },
    {
      "inputs": [],
      "name": "branch",
      "outputs": [
        {
          "internalType": "bytes32[32]",
          "name": "",
          "type": "bytes32[32]"
        }
      ],
      "stateMutability": "view",
      "type": "function"
    },
    {
      "inputs": [],
      "name": "count",
      "outputs": [
        {
          "internalType": "uint256",
          "name": "",
          "type": "uint256"
        }
      ],
      "stateMutability": "view",
      "type": "function"
    },
    {
      "inputs": [],
      "name": "delay",
      "outputs": [
        {
          "internalType": "uint256",
          "name": "",
          "type": "uint256"
        }
      ],
      "stateMutability": "view",
      "type": "function"
    },
    {
      "inputs": [
        {
          "internalType": "address",
          "name": "_arborist",
          "type": "address"
        }
      ],
      "name": "initialize",
      "outputs": [],
      "stateMutability": "nonpayable",
      "type": "function"
    },
    {
      "inputs": [
        {
          "internalType": "bytes32",
          "name": "leaf",
          "type": "bytes32"
        }
      ],
      "name": "insert",
      "outputs": [
        {
          "internalType": "bytes32",
          "name": "_root",
          "type": "bytes32"
        },
        {
          "internalType": "uint256",
          "name": "_count",
          "type": "uint256"
        }
      ],
      "stateMutability": "nonpayable",
      "type": "function"
    },
    {
      "inputs": [
        {
          "internalType": "bytes32[]",
          "name": "leaves",
          "type": "bytes32[]"
        }
      ],
      "name": "insert",
      "outputs": [
        {
          "internalType": "bytes32",
          "name": "_root",
          "type": "bytes32"
        },
        {
          "internalType": "uint256",
          "name": "_count",
          "type": "uint256"
        }
      ],
      "stateMutability": "nonpayable",
      "type": "function"
    },
    {
      "inputs": [],
      "name": "owner",
      "outputs": [
        {
          "internalType": "address",
          "name": "",
          "type": "address"
        }
      ],
      "stateMutability": "view",
      "type": "function"
    },
    {
      "inputs": [
        {
          "internalType": "address",
          "name": "newlyProposed",
          "type": "address"
        }
      ],
      "name": "proposeNewOwner",
      "outputs": [],
      "stateMutability": "nonpayable",
      "type": "function"
    },
    {
      "inputs": [],
      "name": "proposed",
      "outputs": [
        {
          "internalType": "address",
          "name": "",
          "type": "address"
        }
      ],
      "stateMutability": "view",
      "type": "function"
    },
    {
      "inputs": [],
      "name": "proposedTimestamp",
      "outputs": [
        {
          "internalType": "uint256",
          "name": "",
          "type": "uint256"
        }
      ],
      "stateMutability": "view",
      "type": "function"
    },
    {
      "inputs": [],
      "name": "renounceOwnership",
      "outputs": [],
      "stateMutability": "nonpayable",
      "type": "function"
    },
    {
      "inputs": [],
      "name": "renounced",
      "outputs": [
        {
          "internalType": "bool",
          "name": "",
          "type": "bool"
        }
      ],
      "stateMutability": "view",
      "type": "function"
    },
    {
      "inputs": [],
      "name": "root",
      "outputs": [
        {
          "internalType": "bytes32",
          "name": "",
          "type": "bytes32"
        }
      ],
      "stateMutability": "view",
      "type": "function"
    },
    {
      "inputs": [],
      "name": "rootAndCount",
      "outputs": [
        {
          "internalType": "bytes32",
          "name": "",
          "type": "bytes32"
        },
        {
          "internalType": "uint256",
          "name": "",
          "type": "uint256"
        }
      ],
      "stateMutability": "view",
      "type": "function"
    },
    {
      "inputs": [
        {
          "internalType": "address",
          "name": "newArborist",
          "type": "address"
        }
      ],
      "name": "setArborist",
      "outputs": [],
      "stateMutability": "nonpayable",
      "type": "function"
    },
    {
      "inputs": [],
      "name": "tree",
      "outputs": [
        {
          "internalType": "uint256",
          "name": "count",
          "type": "uint256"
        }
      ],
      "stateMutability": "view",
      "type": "function"
    }
  ],
  "transactionHash": "0x9ef90dbd633841f089ef58365f71f45c5a35c1a8e8a5dc006557b90ddbabe241",
  "args": [],
  "numDeployments": 1,
  "solcInputHash": "df2766406dabba88d8cd798b306445f7",
  "bytecode": "0x608060405234801561001057600080fd5b506122f2806100206000396000f3fe608060405234801561001057600080fd5b50600436106101165760003560e01c80638da5cb5b116100a2578063c9b0a6de11610071578063c9b0a6de14610220578063d1851c9214610228578063d232c22014610239578063ebf0c71714610262578063fd54b2281461026a57600080fd5b80638da5cb5b146101db578063b1f8100d146101f2578063c4d66de814610205578063c5b350df1461021857600080fd5b806334a55ee6116100e957806334a55ee61461019a5780633cf52ffb146101ad5780634b72d0d4146101b55780636a42b8f8146101ca578063715018a6146101d357600080fd5b806306661abd1461011b5780631b373a98146101325780632d287e431461014757806331d0913c1461016f575b600080fd5b6052545b6040519081526020015b60405180910390f35b610145610140366004611f81565b610274565b005b61015a610155366004611fb1565b610362565b60408051928352602083019190915201610129565b605354610182906001600160a01b031681565b6040516001600160a01b039091168152602001610129565b61015a6101a8366004611fe0565b610473565b60025461011f565b6101bd6105ba565b604051610129919061209e565b62093a8061011f565b6101456105f6565b6000546201000090046001600160a01b0316610182565b610145610200366004611f81565b610629565b610145610213366004611f81565b6106d6565b6101456107f1565b61015a610861565b6001546001600160a01b0316610182565b6102526000546201000090046001600160a01b03161590565b6040519015158152602001610129565b61011f61087a565b60525461011f9081565b6000546201000090046001600160a01b031633146102a5576040516311a8a1bb60e31b815260040160405180910390fd5b6001600160a01b0381166102cc57604051630c11a52d60e11b815260040160405180910390fd5b6053546001600160a01b0390811690821681036102fc5760405163606e957b60e11b815260040160405180910390fd5b604080516001600160a01b038084168252841660208201527ff2fa31e21376edb31995720340ba00a41a12a7c8744a9bde552660121f4b7771910160405180910390a150605380546001600160a01b0319166001600160a01b0392909216919091179055565b60535460009081906001600160a01b031633146103b25760405162461bcd60e51b815260206004820152600960248201526808585c989bdc9a5cdd60ba1b60448201526064015b60405180910390fd5b60408051610440810180835261040092869291603291839190820190839060209082845b8154815260200190600101908083116103d65750505091835250506020918201549101529061088b565b80516032906104129082906020611eef565b506020918201519101555060525461042a6032610997565b60408051828152602081018490529081018590529092507fd50e83984b64a106ac2ee6314d689ec4d2a656d5ece6d94c585796944b52240c9060600160405180910390a1915091565b60535460009081906001600160a01b031633146104be5760405162461bcd60e51b815260206004820152600960248201526808585c989bdc9a5cdd60ba1b60448201526064016103a9565b6040805161044081018083526000926032918391820190839060209082845b8154815260200190600101908083116104dd575050509183525050602091820154910152845190915060005b818110156105475761053d868281518110610526576105266120d4565b60200260200101518461088b90919063ffffffff16565b9250600101610509565b508151829060329061055c9082906020611eef565b506020918201519082015582015192506105766032610997565b93507f3ef8438c07c6b4b67e70eace906a07e9b294c2f0066803f58e705567e1aa4f1b8484876040516105ab939291906120ea565b60405180910390a15050915091565b6105c2611f2d565b604080516104008101918290529060329060209082845b8154815260200190600101908083116105d9575050505050905090565b6000546201000090046001600160a01b03163314610627576040516311a8a1bb60e31b815260040160405180910390fd5b565b6000546201000090046001600160a01b0316331461065a576040516311a8a1bb60e31b815260040160405180910390fd5b6001546001600160a01b038281169116148015610678575060025415155b15610696576040516311bc066560e11b815260040160405180910390fd5b6000546001600160a01b038083166201000090920416036106ca57604051634a2fb73f60e11b815260040160405180910390fd5b6106d381611d4d565b50565b600054610100900460ff16158080156106f65750600054600160ff909116105b806107105750303b158015610710575060005460ff166001145b6107735760405162461bcd60e51b815260206004820152602e60248201527f496e697469616c697a61626c653a20636f6e747261637420697320616c72656160448201526d191e481a5b9a5d1a585b1a5e995960921b60648201526084016103a9565b6000805460ff191660011790558015610796576000805461ff0019166101001790555b61079f82611d9b565b6107a7611dcb565b80156107ed576000805461ff0019169055604051600181527f7f26b83ff96e1f2b6a682f133852f6798a09c465da95921460cefb38474024989060200160405180910390a15b5050565b6001546001600160a01b0316331461081c576040516311a7f27160e11b815260040160405180910390fd5b62093a806002544261082e9190612155565b1161084c576040516324e0285f60e21b815260040160405180910390fd5b600154610627906001600160a01b0316611dfa565b60008061086e6032610997565b60525490939092509050565b60006108866032610997565b905090565b610893611f4c565b60008360200180516108a490612168565b90819052905060016108b860206002612265565b6108c29190612155565b8111156108e257604051638eab04bb60e01b815260040160405180910390fd5b60005b6020811015610977578160011660010361091e5784518490826020811061090e5761090e6120d4565b6020020152508391506109919050565b84518160208110610931576109316120d4565b602002015184604051602001610951929190918252602082015260400190565b60408051601f1981840301815291905280516020909101209350600191821c91016108e5565b50604051638eab04bb60e01b815260040160405180910390fd5b92915050565b60208101546000908082036109ce57507f27ae5ba08d7291c96c8cbddcc148bf48a6d68c7974b94356f53754ef6171d75792915050565b60008360018316156109f05780546000526000602052604060002093506112a3565b6002831615610a355760018101546000527fad3228b676f7d3cd4284a5443f17f1962b36e491b30a40b2405849e597ba5fb560205260406000209350600191506112a3565b6004831615610a7a5760028101546000527fb4c11951957c6f8f642c4af61cd6b24640fec6dc7fc607ee8206a99e92410d3060205260406000209350600291506112a3565b6008831615610abf5760038101546000527f21ddb9a356815c3fac1026b6dec5df3124afbadb485c9ba5a3e3398a04b7ba8560205260406000209350600391506112a3565b6010831615610b045760048101546000527fe58769b32a1beaf1ea27375a44095a0d1fb664ce2dd358e7fcbfb78c26a1934460205260406000209350600491506112a3565b6020831615610b495760058101546000527f0eb01ebfc9ed27500cd4dfc979272d1f0913cc9f66540d7e8005811109e1cf2d60205260406000209350600591506112a3565b6040831615610b8e5760068101546000527f887c22bd8750d34016ac3c66b5ff102dacdd73f6b014e710b51e8022af9a196860205260406000209350600691506112a3565b6080831615610bd35760078101546000527fffd70157e48063fc33c97a050f7f640233bf646cc98d9524c6b92bcf3ab56f8360205260406000209350600791506112a3565b610100831615610c195760088101546000527f9867cc5f7f196b93bae1e27e6320742445d290f2263827498b54fec539f756af60205260406000209350600891506112a3565b610200831615610c5f5760098101546000527fcefad4e508c098b9a7e1d8feb19955fb02ba9675585078710969d3440f5054e060205260406000209350600991506112a3565b610400831615610ca557600a8101546000527ff9dc3e7fe016e050eff260334f18a5d4fe391d82092319f5964f2e2eb7c1c3a560205260406000209350600a91506112a3565b610800831615610ceb57600b8101546000527ff8b13a49e282f609c317a833fb8d976d11517c571d1221a265d25af778ecf89260205260406000209350600b91506112a3565b611000831615610d3157600c8101546000527f3490c6ceeb450aecdc82e28293031d10c7d73bf85e57bf041a97360aa2c5d99c60205260406000209350600c91506112a3565b612000831615610d7757600d8101546000527fc1df82d9c4b87413eae2ef048f94b4d3554cea73d92b0f7af96e0271c691e2bb60205260406000209350600d91506112a3565b614000831615610dbd57600e8101546000527f5c67add7c6caf302256adedf7ab114da0acfe870d449a3a489f781d659e8becc60205260406000209350600e91506112a3565b618000831615610e0357600f8101546000527fda7bce9f4e8618b6bd2f4132ce798cdc7a60e7e1460a7299e3c6342a579626d260205260406000209350600f91506112a3565b62010000831615610e4a5760108101546000527f2733e50f526ec2fa19a22b31e8ed50f23cd1fdf94c9154ed3a7609a2f1ff981f60205260406000209350601091506112a3565b62020000831615610e915760118101546000527fe1d3b5c807b281e4683cc6d6315cf95b9ade8641defcb32372f1c126e398ef7a60205260406000209350601191506112a3565b62040000831615610ed85760128101546000527f5a2dce0a8a7f68bb74560f8f71837c2c2ebbcbf7fffb42ae1896f13f7c7479a060205260406000209350601291506112a3565b62080000831615610f1f5760138101546000527fb46a28b6f55540f89444f63de0378e3d121be09e06cc9ded1c20e65876d36aa060205260406000209350601391506112a3565b62100000831615610f665760148101546000527fc65e9645644786b620e2dd2ad648ddfcbf4a7e5b1a3a4ecfe7f64667a3f0b7e260205260406000209350601491506112a3565b62200000831615610fad5760158101546000527ff4418588ed35a2458cffeb39b93d26f18d2ab13bdce6aee58e7b99359ec2dfd960205260406000209350601591506112a3565b62400000831615610ff45760168101546000527f5a9c16dc00d6ef18b7933a6f8dc65ccb55667138776f7dea101070dc8796e37760205260406000209350601691506112a3565b6280000083161561103b5760178101546000527f4df84f40ae0c8229d0d6069e5c8f39a7c299677a09d367fc7b05e3bc380ee65260205260406000209350601791506112a3565b63010000008316156110835760188101546000527fcdc72595f74c7b1043d0e1ffbab734648c838dfb0527d971b602bc216c9619ef60205260406000209350601891506112a3565b63020000008316156110cb5760198101546000527f0abf5ac974a1ed57f4050aa510dd9c74f508277b39d7973bb2dfccc5eeb0618d60205260406000209350601991506112a3565b630400000083161561111357601a8101546000527fb8cd74046ff337f0a7bf2c8e03e10f642c1886798d71806ab1e888d9e5ee87d060205260406000209350601a91506112a3565b630800000083161561115b57601b8101546000527f838c5655cb21c6cb83313b5a631175dff4963772cce9108188b34ac87c81c41e60205260406000209350601b91506112a3565b63100000008316156111a357601c8101546000527f662ee4dd2dd7b2bc707961b1e646c4047669dcb6584f0d8d770daf5d7e7deb2e60205260406000209350601c91506112a3565b63200000008316156111eb57601d8101546000527f388ab20e2573d171a88108e79d820e98f26c0b84aa8b2f4aa4968dbb818ea32260205260406000209350601d91506112a3565b634000000083161561123357601e8101546000527f93237c50ba75ee485f4c22adf2f741400bdf8d6a9cc7df7ecae576221665d73560205260406000209350601e91506112a3565b638000000083161561127b57601f8101546000527f8448818bb4ae4562849e949e17ac16e0be16688e156b5cf15e098c627c0056a960205260406000209350601f91506112a3565b7f27ae5ba08d7291c96c8cbddcc148bf48a6d68c7974b94356f53754ef6171d7579350602091505b601e8211611d45576001821015611301576002831680156112cf576001820154600052846020526112f8565b846000527fad3228b676f7d3cd4284a5443f17f1962b36e491b30a40b2405849e597ba5fb56020525b50604060002093505b6002821015611357576004831680156113255760028201546000528460205261134e565b846000527fb4c11951957c6f8f642c4af61cd6b24640fec6dc7fc607ee8206a99e92410d306020525b50604060002093505b60038210156113ad5760088316801561137b576003820154600052846020526113a4565b846000527f21ddb9a356815c3fac1026b6dec5df3124afbadb485c9ba5a3e3398a04b7ba856020525b50604060002093505b6004821015611403576010831680156113d1576004820154600052846020526113fa565b846000527fe58769b32a1beaf1ea27375a44095a0d1fb664ce2dd358e7fcbfb78c26a193446020525b50604060002093505b60058210156114595760208316801561142757600582015460005284602052611450565b846000527f0eb01ebfc9ed27500cd4dfc979272d1f0913cc9f66540d7e8005811109e1cf2d6020525b50604060002093505b60068210156114af5760408316801561147d576006820154600052846020526114a6565b846000527f887c22bd8750d34016ac3c66b5ff102dacdd73f6b014e710b51e8022af9a19686020525b50604060002093505b6007821015611505576080831680156114d3576007820154600052846020526114fc565b846000527fffd70157e48063fc33c97a050f7f640233bf646cc98d9524c6b92bcf3ab56f836020525b50604060002093505b600882101561155c576101008316801561152a57600882015460005284602052611553565b846000527f9867cc5f7f196b93bae1e27e6320742445d290f2263827498b54fec539f756af6020525b50604060002093505b60098210156115b35761020083168015611581576009820154600052846020526115aa565b846000527fcefad4e508c098b9a7e1d8feb19955fb02ba9675585078710969d3440f5054e06020525b50604060002093505b600a82101561160a57610400831680156115d857600a82015460005284602052611601565b846000527ff9dc3e7fe016e050eff260334f18a5d4fe391d82092319f5964f2e2eb7c1c3a56020525b50604060002093505b600b821015611661576108008316801561162f57600b82015460005284602052611658565b846000527ff8b13a49e282f609c317a833fb8d976d11517c571d1221a265d25af778ecf8926020525b50604060002093505b600c8210156116b8576110008316801561168657600c820154600052846020526116af565b846000527f3490c6ceeb450aecdc82e28293031d10c7d73bf85e57bf041a97360aa2c5d99c6020525b50604060002093505b600d82101561170f57612000831680156116dd57600d82015460005284602052611706565b846000527fc1df82d9c4b87413eae2ef048f94b4d3554cea73d92b0f7af96e0271c691e2bb6020525b50604060002093505b600e821015611766576140008316801561173457600e8201546000528460205261175d565b846000527f5c67add7c6caf302256adedf7ab114da0acfe870d449a3a489f781d659e8becc6020525b50604060002093505b600f8210156117bd576180008316801561178b57600f820154600052846020526117b4565b846000527fda7bce9f4e8618b6bd2f4132ce798cdc7a60e7e1460a7299e3c6342a579626d26020525b50604060002093505b60108210156118155762010000831680156117e35760108201546000528460205261180c565b846000527f2733e50f526ec2fa19a22b31e8ed50f23cd1fdf94c9154ed3a7609a2f1ff981f6020525b50604060002093505b601182101561186d57620200008316801561183b57601182015460005284602052611864565b846000527fe1d3b5c807b281e4683cc6d6315cf95b9ade8641defcb32372f1c126e398ef7a6020525b50604060002093505b60128210156118c5576204000083168015611893576012820154600052846020526118bc565b846000527f5a2dce0a8a7f68bb74560f8f71837c2c2ebbcbf7fffb42ae1896f13f7c7479a06020525b50604060002093505b601382101561191d5762080000831680156118eb57601382015460005284602052611914565b846000527fb46a28b6f55540f89444f63de0378e3d121be09e06cc9ded1c20e65876d36aa06020525b50604060002093505b60148210156119755762100000831680156119435760148201546000528460205261196c565b846000527fc65e9645644786b620e2dd2ad648ddfcbf4a7e5b1a3a4ecfe7f64667a3f0b7e26020525b50604060002093505b60158210156119cd57622000008316801561199b576015820154600052846020526119c4565b846000527ff4418588ed35a2458cffeb39b93d26f18d2ab13bdce6aee58e7b99359ec2dfd96020525b50604060002093505b6016821015611a255762400000831680156119f357601682015460005284602052611a1c565b846000527f5a9c16dc00d6ef18b7933a6f8dc65ccb55667138776f7dea101070dc8796e3776020525b50604060002093505b6017821015611a7d576280000083168015611a4b57601782015460005284602052611a74565b846000527f4df84f40ae0c8229d0d6069e5c8f39a7c299677a09d367fc7b05e3bc380ee6526020525b50604060002093505b6018821015611ad657630100000083168015611aa457601882015460005284602052611acd565b846000527fcdc72595f74c7b1043d0e1ffbab734648c838dfb0527d971b602bc216c9619ef6020525b50604060002093505b6019821015611b2f57630200000083168015611afd57601982015460005284602052611b26565b846000527f0abf5ac974a1ed57f4050aa510dd9c74f508277b39d7973bb2dfccc5eeb0618d6020525b50604060002093505b601a821015611b8857630400000083168015611b5657601a82015460005284602052611b7f565b846000527fb8cd74046ff337f0a7bf2c8e03e10f642c1886798d71806ab1e888d9e5ee87d06020525b50604060002093505b601b821015611be157630800000083168015611baf57601b82015460005284602052611bd8565b846000527f838c5655cb21c6cb83313b5a631175dff4963772cce9108188b34ac87c81c41e6020525b50604060002093505b601c821015611c3a57631000000083168015611c0857601c82015460005284602052611c31565b846000527f662ee4dd2dd7b2bc707961b1e646c4047669dcb6584f0d8d770daf5d7e7deb2e6020525b50604060002093505b601d821015611c9357632000000083168015611c6157601d82015460005284602052611c8a565b846000527f388ab20e2573d171a88108e79d820e98f26c0b84aa8b2f4aa4968dbb818ea3226020525b50604060002093505b601e821015611cec57634000000083168015611cba57601e82015460005284602052611ce3565b846000527f93237c50ba75ee485f4c22adf2f741400bdf8d6a9cc7df7ecae576221665d7356020525b50604060002093505b601f821015611d4557638000000083168015611d1357601f82015460005284602052611d3c565b846000527f8448818bb4ae4562849e949e17ac16e0be16688e156b5cf15e098c627c0056a96020525b50604060002093505b505050919050565b42600255600180546001600160a01b0319166001600160a01b0383169081179091556040517f6ab4d119f23076e8ad491bc65ce85f017fb0591dce08755ba8591059cc51737a90600090a250565b600054610100900460ff16611dc25760405162461bcd60e51b81526004016103a990612271565b6106d381611e76565b600054610100900460ff16611df25760405162461bcd60e51b81526004016103a990612271565b610627611ebf565b600080546040516001600160a01b03808516936201000090930416917f8be0079c531659141344cd1fd0a4f28419497f9722a3daafe3b4186f6b6457e091a3600080546001600160a01b03909216620100000262010000600160b01b0319909216919091178155600255600180546001600160a01b0319169055565b600054610100900460ff16611e9d5760405162461bcd60e51b81526004016103a990612271565b605380546001600160a01b0319166001600160a01b0392909216919091179055565b600054610100900460ff16611ee65760405162461bcd60e51b81526004016103a990612271565b61062733611dfa565b8260208101928215611f1d579160200282015b82811115611f1d578251825591602001919060010190611f02565b50611f29929150611f6c565b5090565b6040518061040001604052806020906020820280368337509192915050565b6040518060400160405280611f5f611f2d565b8152602001600081525090565b5b80821115611f295760008155600101611f6d565b600060208284031215611f9357600080fd5b81356001600160a01b0381168114611faa57600080fd5b9392505050565b600060208284031215611fc357600080fd5b5035919050565b634e487b7160e01b600052604160045260246000fd5b60006020808385031215611ff357600080fd5b823567ffffffffffffffff8082111561200b57600080fd5b818501915085601f83011261201f57600080fd5b81358181111561203157612031611fca565b8060051b604051601f19603f8301168101818110858211171561205657612056611fca565b60405291825284820192508381018501918883111561207457600080fd5b938501935b8285101561209257843584529385019392850192612079565b98975050505050505050565b6104008101818360005b60208082106120b757506120cb565b8251845292830192909101906001016120a8565b50505092915050565b634e487b7160e01b600052603260045260246000fd5b6000606082018583526020858185015260606040850152818551808452608086019150828701935060005b8181101561213157845183529383019391830191600101612115565b509098975050505050505050565b634e487b7160e01b600052601160045260246000fd5b818103818111156109915761099161213f565b60006001820161217a5761217a61213f565b5060010190565b600181815b808511156121bc5781600019048211156121a2576121a261213f565b808516156121af57918102915b93841c9390800290612186565b509250929050565b6000826121d357506001610991565b816121e057506000610991565b81600181146121f657600281146122005761221c565b6001915050610991565b60ff8411156122115761221161213f565b50506001821b610991565b5060208310610133831016604e8410600b841016171561223f575081810a610991565b6122498383612181565b806000190482111561225d5761225d61213f565b029392505050565b6000611faa83836121c4565b6020808252602b908201527f496e697469616c697a61626c653a20636f6e7472616374206973206e6f74206960408201526a6e697469616c697a696e6760a81b60608201526080019056fea2646970667358221220692efb4fde2ef60f8a670bcf66710807eef1fc4f3543297bb32ad63f5a4f336564736f6c63430008110033",
  "devdoc": {
    "details": "On the hub domain there are two MerkleTreeManager contracts, one for the hub and one for the MainnetSpokeConnector.",
    "kind": "dev",
    "methods": {
      "insert(bytes32)": {
        "params": {
          "leaf": "The leaf to be inserted into the tree."
        },
        "returns": {
          "_count": "Current node count (i.e. number of indices) AFTER the insertion of the new leaf, provided for convenience.",
          "_root": "Current root for convenience."
        }
      },
      "insert(bytes32[])": {
        "params": {
          "leaves": "The leaves to be inserted into the tree."
        },
        "returns": {
          "_count": "Current node count (i.e. number of indices) AFTER the insertion of the new leaf, provided for convenience.",
          "_root": "Current root for convenience."
        }
      },
      "renounceOwnership()": {
        "details": "Renounce ownership should be impossible as long as there is a possibility the arborist may change."
      },
      "setArborist(address)": {
        "params": {
          "newArborist": "The new address to set as the current arborist."
        }
      }
    },
    "stateVariables": {
      "arborist": {
        "details": "This could be the root manager contract or a spoke connector contract, for example."
      }
    },
    "title": "MerkleTreeManager",
    "version": 1
  },
  "userdoc": {
    "kind": "user",
    "methods": {
      "acceptProposedOwner()": {
        "notice": "Transfers ownership of the contract to a new account (`newOwner`). Can only be called by the current owner."
      },
      "arborist()": {
        "notice": "The arborist contract that has permission to write to this tree."
      },
      "branch()": {
        "notice": "Returns the current branch."
      },
      "count()": {
        "notice": "Returns the number of inserted leaves in the tree (current index)."
      },
      "delay()": {
        "notice": "Returns the delay period before a new owner can be accepted."
      },
      "insert(bytes32)": {
        "notice": "Inserts the given leaf into the tree."
      },
      "insert(bytes32[])": {
        "notice": "Inserts the given leaves into the tree."
      },
      "owner()": {
        "notice": "Returns the address of the current owner."
      },
      "proposeNewOwner(address)": {
        "notice": "Sets the timestamp for an owner to be proposed, and sets the newly proposed owner as step 1 in a 2-step process"
      },
      "proposed()": {
        "notice": "Returns the address of the proposed owner."
      },
      "proposedTimestamp()": {
        "notice": "Returns the address of the proposed owner."
      },
      "renounceOwnership()": {
        "notice": "Remove ability to renounce ownership"
      },
      "renounced()": {
        "notice": "Indicates if the ownership has been renounced() by checking if current owner is address(0)"
      },
      "root()": {
        "notice": "Calculates and returns the current root."
      },
      "rootAndCount()": {
        "notice": "Convenience getter: returns the root and count."
      },
      "setArborist(address)": {
        "notice": "Method for the current arborist to assign write permissions to a new arborist."
      },
      "tree()": {
        "notice": "Core data structure with which this contract is tasked with keeping custody. Writable only by the designated arborist."
      }
    },
    "notice": "Contains a Merkle tree instance and exposes read/write functions for the tree.",
    "version": 1
  },
  "storageLayout": {
    "storage": [
      {
        "astId": 8070,
        "contract": "contracts/messaging/MerkleTreeManager.sol:MerkleTreeManager",
        "label": "_initialized",
        "offset": 0,
        "slot": "0",
        "type": "t_uint8"
      },
      {
        "astId": 8073,
        "contract": "contracts/messaging/MerkleTreeManager.sol:MerkleTreeManager",
        "label": "_initializing",
        "offset": 1,
        "slot": "0",
        "type": "t_bool"
      },
      {
        "astId": 49421,
        "contract": "contracts/messaging/MerkleTreeManager.sol:MerkleTreeManager",
        "label": "_owner",
        "offset": 2,
        "slot": "0",
        "type": "t_address"
      },
      {
        "astId": 49423,
        "contract": "contracts/messaging/MerkleTreeManager.sol:MerkleTreeManager",
        "label": "_proposed",
        "offset": 0,
        "slot": "1",
        "type": "t_address"
      },
      {
        "astId": 49425,
        "contract": "contracts/messaging/MerkleTreeManager.sol:MerkleTreeManager",
        "label": "_proposedOwnershipTimestamp",
        "offset": 0,
        "slot": "2",
        "type": "t_uint256"
      },
      {
        "astId": 49674,
        "contract": "contracts/messaging/MerkleTreeManager.sol:MerkleTreeManager",
        "label": "__GAP",
        "offset": 0,
        "slot": "3",
        "type": "t_array(t_uint256)47_storage"
      },
      {
        "astId": 37766,
        "contract": "contracts/messaging/MerkleTreeManager.sol:MerkleTreeManager",
        "label": "tree",
        "offset": 0,
        "slot": "50",
        "type": "t_struct(Tree)48590_storage"
      },
      {
        "astId": 37769,
        "contract": "contracts/messaging/MerkleTreeManager.sol:MerkleTreeManager",
        "label": "arborist",
        "offset": 0,
        "slot": "83",
        "type": "t_address"
      },
      {
        "astId": 38026,
        "contract": "contracts/messaging/MerkleTreeManager.sol:MerkleTreeManager",
        "label": "__GAP",
        "offset": 0,
        "slot": "84",
        "type": "t_array(t_uint256)48_storage"
      }
    ],
    "types": {
      "t_address": {
        "encoding": "inplace",
        "label": "address",
        "numberOfBytes": "20"
      },
      "t_array(t_bytes32)32_storage": {
        "base": "t_bytes32",
        "encoding": "inplace",
        "label": "bytes32[32]",
        "numberOfBytes": "1024"
      },
      "t_array(t_uint256)47_storage": {
        "base": "t_uint256",
        "encoding": "inplace",
        "label": "uint256[47]",
        "numberOfBytes": "1504"
      },
      "t_array(t_uint256)48_storage": {
        "base": "t_uint256",
        "encoding": "inplace",
        "label": "uint256[48]",
        "numberOfBytes": "1536"
      },
      "t_bool": {
        "encoding": "inplace",
        "label": "bool",
        "numberOfBytes": "1"
      },
      "t_bytes32": {
        "encoding": "inplace",
        "label": "bytes32",
        "numberOfBytes": "32"
      },
      "t_struct(Tree)48590_storage": {
        "encoding": "inplace",
        "label": "struct MerkleLib.Tree",
        "members": [
          {
            "astId": 48587,
            "contract": "contracts/messaging/MerkleTreeManager.sol:MerkleTreeManager",
            "label": "branch",
            "offset": 0,
            "slot": "0",
            "type": "t_array(t_bytes32)32_storage"
          },
          {
            "astId": 48589,
            "contract": "contracts/messaging/MerkleTreeManager.sol:MerkleTreeManager",
            "label": "count",
            "offset": 0,
            "slot": "32",
            "type": "t_uint256"
          }
        ],
        "numberOfBytes": "1056"
      },
      "t_uint256": {
        "encoding": "inplace",
        "label": "uint256",
        "numberOfBytes": "32"
      },
      "t_uint8": {
        "encoding": "inplace",
        "label": "uint8",
        "numberOfBytes": "1"
      }
    }
  }
}