{
  "address": "0x082452013Ad4Ac4AAD2E5a430C2Ac70DE1660767",
  "abi": [
    {
      "inputs": [],
      "name": "AssetLogic__getConfig_notRegistered",
      "type": "error"
    },
    {
      "inputs": [],
      "name": "BaseConnextFacet__getAdoptedAsset_assetNotFound",
      "type": "error"
    },
    {
      "inputs": [],
      "name": "BaseConnextFacet__getApprovedCanonicalId_notAllowlisted",
      "type": "error"
    },
    {
      "inputs": [],
      "name": "BaseConnextFacet__nonReentrant_reentrantCall",
      "type": "error"
    },
    {
      "inputs": [],
      "name": "BaseConnextFacet__nonXCallReentrant_reentrantCall",
      "type": "error"
    },
    {
      "inputs": [],
      "name": "BaseConnextFacet__onlyOwnerOrAdmin_notOwnerOrAdmin",
      "type": "error"
    },
    {
      "inputs": [],
      "name": "BaseConnextFacet__onlyOwnerOrRouter_notOwnerOrRouter",
      "type": "error"
    },
    {
      "inputs": [],
      "name": "BaseConnextFacet__onlyOwnerOrWatcher_notOwnerOrWatcher",
      "type": "error"
    },
    {
      "inputs": [],
      "name": "BaseConnextFacet__onlyOwner_notOwner",
      "type": "error"
    },
    {
      "inputs": [],
      "name": "BaseConnextFacet__onlyProposed_notProposedOwner",
      "type": "error"
    },
    {
      "inputs": [],
      "name": "BaseConnextFacet__whenNotPaused_paused",
      "type": "error"
    },
    {
      "inputs": [],
      "name": "TokenFacet__addAssetId_alreadyAdded",
      "type": "error"
    },
    {
      "inputs": [],
      "name": "TokenFacet__addAssetId_badBurn",
      "type": "error"
    },
    {
      "inputs": [],
      "name": "TokenFacet__addAssetId_badMint",
      "type": "error"
    },
    {
      "inputs": [],
      "name": "TokenFacet__enrollAdoptedAndLocalAssets_emptyCanonical",
      "type": "error"
    },
    {
      "inputs": [],
      "name": "TokenFacet__removeAssetId_invalidParams",
      "type": "error"
    },
    {
      "inputs": [],
      "name": "TokenFacet__removeAssetId_notAdded",
      "type": "error"
    },
    {
      "inputs": [],
      "name": "TokenFacet__removeAssetId_remainsCustodied",
      "type": "error"
    },
    {
      "inputs": [],
      "name": "TokenFacet__setLiquidityCap_notCanonicalDomain",
      "type": "error"
    },
    {
      "inputs": [],
      "name": "TokenFacet__setupAssetWithDeployedRepresentation_invalidRepresentation",
      "type": "error"
    },
    {
      "inputs": [],
      "name": "TokenFacet__setupAssetWithDeployedRepresentation_onCanonicalDomain",
      "type": "error"
    },
    {
      "inputs": [],
      "name": "TokenFacet__setupAsset_invalidCanonicalConfiguration",
      "type": "error"
    },
    {
      "inputs": [],
      "name": "TokenFacet__setupAsset_representationListed",
      "type": "error"
    },
    {
      "inputs": [],
      "name": "TokenFacet__updateDetails_localNotFound",
      "type": "error"
    },
    {
      "inputs": [],
      "name": "TokenFacet__updateDetails_notApproved",
      "type": "error"
    },
    {
      "inputs": [],
      "name": "TokenFacet__updateDetails_onlyRemote",
      "type": "error"
    },
    {
      "anonymous": false,
      "inputs": [
        {
          "indexed": true,
          "internalType": "bytes32",
          "name": "key",
          "type": "bytes32"
        },
        {
          "indexed": true,
          "internalType": "bytes32",
          "name": "canonicalId",
          "type": "bytes32"
        },
        {
          "indexed": true,
          "internalType": "uint32",
          "name": "domain",
          "type": "uint32"
        },
        {
          "indexed": false,
          "internalType": "address",
          "name": "adoptedAsset",
          "type": "address"
        },
        {
          "indexed": false,
          "internalType": "address",
          "name": "localAsset",
          "type": "address"
        },
        {
          "indexed": false,
          "internalType": "address",
          "name": "caller",
          "type": "address"
        }
      ],
      "name": "AssetAdded",
      "type": "event"
    },
    {
      "anonymous": false,
      "inputs": [
        {
          "indexed": true,
          "internalType": "bytes32",
          "name": "key",
          "type": "bytes32"
        },
        {
          "indexed": false,
          "internalType": "address",
          "name": "caller",
          "type": "address"
        }
      ],
      "name": "AssetRemoved",
      "type": "event"
    },
    {
      "anonymous": false,
      "inputs": [
        {
          "indexed": true,
          "internalType": "bytes32",
          "name": "key",
          "type": "bytes32"
        },
        {
          "indexed": true,
          "internalType": "bytes32",
          "name": "canonicalId",
          "type": "bytes32"
        },
        {
          "indexed": true,
          "internalType": "uint32",
          "name": "domain",
          "type": "uint32"
        },
        {
          "indexed": false,
          "internalType": "uint256",
          "name": "cap",
          "type": "uint256"
        },
        {
          "indexed": false,
          "internalType": "address",
          "name": "caller",
          "type": "address"
        }
      ],
      "name": "LiquidityCapUpdated",
      "type": "event"
    },
    {
      "anonymous": false,
      "inputs": [
        {
          "indexed": true,
          "internalType": "bytes32",
          "name": "key",
          "type": "bytes32"
        },
        {
          "indexed": true,
          "internalType": "bytes32",
          "name": "canonicalId",
          "type": "bytes32"
        },
        {
          "indexed": true,
          "internalType": "uint32",
          "name": "domain",
          "type": "uint32"
        },
        {
          "indexed": false,
          "internalType": "address",
          "name": "swapPool",
          "type": "address"
        },
        {
          "indexed": false,
          "internalType": "address",
          "name": "caller",
          "type": "address"
        }
      ],
      "name": "StableSwapAdded",
      "type": "event"
    },
    {
      "anonymous": false,
      "inputs": [
        {
          "indexed": true,
          "internalType": "uint32",
          "name": "domain",
          "type": "uint32"
        },
        {
          "indexed": true,
          "internalType": "bytes32",
          "name": "id",
          "type": "bytes32"
        },
        {
          "indexed": true,
          "internalType": "address",
          "name": "representation",
          "type": "address"
        }
      ],
      "name": "TokenDeployed",
      "type": "event"
    },
    {
      "inputs": [
        {
          "components": [
            {
              "internalType": "uint32",
              "name": "domain",
              "type": "uint32"
            },
            {
              "internalType": "bytes32",
              "name": "id",
              "type": "bytes32"
            }
          ],
          "internalType": "struct TokenId",
          "name": "_canonical",
          "type": "tuple"
        },
        {
          "internalType": "address",
          "name": "_stableSwapPool",
          "type": "address"
        }
      ],
      "name": "addStableSwapPool",
      "outputs": [],
      "stateMutability": "nonpayable",
      "type": "function"
    },
    {
      "inputs": [
        {
          "internalType": "address",
          "name": "_adopted",
          "type": "address"
        }
      ],
      "name": "adoptedToCanonical",
      "outputs": [
        {
          "components": [
            {
              "internalType": "uint32",
              "name": "domain",
              "type": "uint32"
            },
            {
              "internalType": "bytes32",
              "name": "id",
              "type": "bytes32"
            }
          ],
          "internalType": "struct TokenId",
          "name": "",
          "type": "tuple"
        }
      ],
      "stateMutability": "view",
      "type": "function"
    },
    {
      "inputs": [
        {
          "components": [
            {
              "internalType": "uint32",
              "name": "domain",
              "type": "uint32"
            },
            {
              "internalType": "bytes32",
              "name": "id",
              "type": "bytes32"
            }
          ],
          "internalType": "struct TokenId",
          "name": "_canonical",
          "type": "tuple"
        }
      ],
      "name": "adoptedToLocalExternalPools",
      "outputs": [
        {
          "internalType": "contract IStableSwap",
          "name": "",
          "type": "address"
        }
      ],
      "stateMutability": "view",
      "type": "function"
    },
    {
      "inputs": [
        {
          "internalType": "bytes32",
          "name": "_key",
          "type": "bytes32"
        }
      ],
      "name": "adoptedToLocalExternalPools",
      "outputs": [
        {
          "internalType": "contract IStableSwap",
          "name": "",
          "type": "address"
        }
      ],
      "stateMutability": "view",
      "type": "function"
    },
    {
      "inputs": [
        {
          "internalType": "bytes32",
          "name": "_key",
          "type": "bytes32"
        }
      ],
      "name": "approvedAssets",
      "outputs": [
        {
          "internalType": "bool",
          "name": "",
          "type": "bool"
        }
      ],
      "stateMutability": "view",
      "type": "function"
    },
    {
      "inputs": [
        {
          "components": [
            {
              "internalType": "uint32",
              "name": "domain",
              "type": "uint32"
            },
            {
              "internalType": "bytes32",
              "name": "id",
              "type": "bytes32"
            }
          ],
          "internalType": "struct TokenId",
          "name": "_canonical",
          "type": "tuple"
        }
      ],
      "name": "approvedAssets",
      "outputs": [
        {
          "internalType": "bool",
          "name": "",
          "type": "bool"
        }
      ],
      "stateMutability": "view",
      "type": "function"
    },
    {
      "inputs": [
        {
          "internalType": "bytes32",
          "name": "_key",
          "type": "bytes32"
        }
      ],
      "name": "canonicalToAdopted",
      "outputs": [
        {
          "internalType": "address",
          "name": "",
          "type": "address"
        }
      ],
      "stateMutability": "view",
      "type": "function"
    },
    {
      "inputs": [
        {
          "components": [
            {
              "internalType": "uint32",
              "name": "domain",
              "type": "uint32"
            },
            {
              "internalType": "bytes32",
              "name": "id",
              "type": "bytes32"
            }
          ],
          "internalType": "struct TokenId",
          "name": "_canonical",
          "type": "tuple"
        }
      ],
      "name": "canonicalToAdopted",
      "outputs": [
        {
          "internalType": "address",
          "name": "",
          "type": "address"
        }
      ],
      "stateMutability": "view",
      "type": "function"
    },
    {
      "inputs": [
        {
          "internalType": "bytes32",
          "name": "_key",
          "type": "bytes32"
        }
      ],
      "name": "canonicalToRepresentation",
      "outputs": [
        {
          "internalType": "address",
          "name": "",
          "type": "address"
        }
      ],
      "stateMutability": "view",
      "type": "function"
    },
    {
      "inputs": [
        {
          "components": [
            {
              "internalType": "uint32",
              "name": "domain",
              "type": "uint32"
            },
            {
              "internalType": "bytes32",
              "name": "id",
              "type": "bytes32"
            }
          ],
          "internalType": "struct TokenId",
          "name": "_canonical",
          "type": "tuple"
        }
      ],
      "name": "canonicalToRepresentation",
      "outputs": [
        {
          "internalType": "address",
          "name": "",
          "type": "address"
        }
      ],
      "stateMutability": "view",
      "type": "function"
    },
    {
      "inputs": [
        {
          "internalType": "bytes32",
          "name": "_id",
          "type": "bytes32"
        },
        {
          "internalType": "uint32",
          "name": "_domain",
          "type": "uint32"
        }
      ],
      "name": "getLocalAndAdoptedToken",
      "outputs": [
        {
          "internalType": "address",
          "name": "",
          "type": "address"
        },
        {
          "internalType": "address",
          "name": "",
          "type": "address"
        }
      ],
      "stateMutability": "view",
      "type": "function"
    },
    {
      "inputs": [
        {
          "internalType": "address",
          "name": "_candidate",
          "type": "address"
        }
      ],
      "name": "getTokenId",
      "outputs": [
        {
          "components": [
            {
              "internalType": "uint32",
              "name": "domain",
              "type": "uint32"
            },
            {
              "internalType": "bytes32",
              "name": "id",
              "type": "bytes32"
            }
          ],
          "internalType": "struct TokenId",
          "name": "",
          "type": "tuple"
        }
      ],
      "stateMutability": "view",
      "type": "function"
    },
    {
      "inputs": [
        {
          "components": [
            {
              "internalType": "uint32",
              "name": "domain",
              "type": "uint32"
            },
            {
              "internalType": "bytes32",
              "name": "id",
              "type": "bytes32"
            }
          ],
          "internalType": "struct TokenId",
          "name": "_canonical",
          "type": "tuple"
        },
        {
          "internalType": "address",
          "name": "_adoptedAssetId",
          "type": "address"
        },
        {
          "internalType": "address",
          "name": "_representation",
          "type": "address"
        }
      ],
      "name": "removeAssetId",
      "outputs": [],
      "stateMutability": "nonpayable",
      "type": "function"
    },
    {
      "inputs": [
        {
          "internalType": "bytes32",
          "name": "_key",
          "type": "bytes32"
        },
        {
          "internalType": "address",
          "name": "_adoptedAssetId",
          "type": "address"
        },
        {
          "internalType": "address",
          "name": "_representation",
          "type": "address"
        }
      ],
      "name": "removeAssetId",
      "outputs": [],
      "stateMutability": "nonpayable",
      "type": "function"
    },
    {
      "inputs": [
        {
          "internalType": "address",
          "name": "_representation",
          "type": "address"
        }
      ],
      "name": "representationToCanonical",
      "outputs": [
        {
          "components": [
            {
              "internalType": "uint32",
              "name": "domain",
              "type": "uint32"
            },
            {
              "internalType": "bytes32",
              "name": "id",
              "type": "bytes32"
            }
          ],
          "internalType": "struct TokenId",
          "name": "",
          "type": "tuple"
        }
      ],
      "stateMutability": "view",
      "type": "function"
    },
    {
      "inputs": [
        {
          "components": [
            {
              "internalType": "uint32",
              "name": "domain",
              "type": "uint32"
            },
            {
              "internalType": "bytes32",
              "name": "id",
              "type": "bytes32"
            }
          ],
          "internalType": "struct TokenId",
          "name": "_canonical",
          "type": "tuple"
        },
        {
          "internalType": "uint8",
          "name": "_canonicalDecimals",
          "type": "uint8"
        },
        {
          "internalType": "string",
          "name": "_representationName",
          "type": "string"
        },
        {
          "internalType": "string",
          "name": "_representationSymbol",
          "type": "string"
        },
        {
          "internalType": "address",
          "name": "_adoptedAssetId",
          "type": "address"
        },
        {
          "internalType": "address",
          "name": "_stableSwapPool",
          "type": "address"
        },
        {
          "internalType": "uint256",
          "name": "_cap",
          "type": "uint256"
        }
      ],
      "name": "setupAsset",
      "outputs": [
        {
          "internalType": "address",
          "name": "_local",
          "type": "address"
        }
      ],
      "stateMutability": "nonpayable",
      "type": "function"
    },
    {
      "inputs": [
        {
          "components": [
            {
              "internalType": "uint32",
              "name": "domain",
              "type": "uint32"
            },
            {
              "internalType": "bytes32",
              "name": "id",
              "type": "bytes32"
            }
          ],
          "internalType": "struct TokenId",
          "name": "_canonical",
          "type": "tuple"
        },
        {
          "internalType": "address",
          "name": "_representation",
          "type": "address"
        },
        {
          "internalType": "address",
          "name": "_adoptedAssetId",
          "type": "address"
        },
        {
          "internalType": "address",
          "name": "_stableSwapPool",
          "type": "address"
        }
      ],
      "name": "setupAssetWithDeployedRepresentation",
      "outputs": [
        {
          "internalType": "address",
          "name": "",
          "type": "address"
        }
      ],
      "stateMutability": "nonpayable",
      "type": "function"
    },
    {
      "inputs": [
        {
          "components": [
            {
              "internalType": "uint32",
              "name": "domain",
              "type": "uint32"
            },
            {
              "internalType": "bytes32",
              "name": "id",
              "type": "bytes32"
            }
          ],
          "internalType": "struct TokenId",
          "name": "_canonical",
          "type": "tuple"
        },
        {
          "internalType": "string",
          "name": "_name",
          "type": "string"
        },
        {
          "internalType": "string",
          "name": "_symbol",
          "type": "string"
        }
      ],
      "name": "updateDetails",
      "outputs": [],
      "stateMutability": "nonpayable",
      "type": "function"
    },
    {
      "inputs": [
        {
          "components": [
            {
              "internalType": "uint32",
              "name": "domain",
              "type": "uint32"
            },
            {
              "internalType": "bytes32",
              "name": "id",
              "type": "bytes32"
            }
          ],
          "internalType": "struct TokenId",
          "name": "_canonical",
          "type": "tuple"
        },
        {
          "internalType": "uint256",
          "name": "_updated",
          "type": "uint256"
        }
      ],
      "name": "updateLiquidityCap",
      "outputs": [],
      "stateMutability": "nonpayable",
      "type": "function"
    }
  ],
  "transactionHash": "0xa7f26162958133bd66b64b1129a830fc5544aad3efe0550ba96a388c9b77cbb6",
  "args": [],
  "numDeployments": 1,
  "solcInputHash": "08ca6ef6e120fb4cb0f5603df6e78508",
  "bytecode": "0x608060405234801561001057600080fd5b50613a2c806100206000396000f3fe60806040523480156200001157600080fd5b5060043610620001395760003560e01c80639b59851911620000bb578063bd8671a7116200007a578063bd8671a714620003be578063c405842914620003d5578063e1cb395814620003ec578063e9d7bcec1462000403578063f1537686146200041a57600080fd5b80639b5985191462000333578063a1b193011462000362578063ad4c77711462000379578063ae8bc0de1462000390578063b64a5e0714620003a757600080fd5b80632c1999d011620001085780632c1999d0146200024957806357bd0a3214620002605780635a2164e514620002a15780636006209114620002b857806380dc2248146200031c57600080fd5b806303e418c2146200013e57806307a38d7b14620001c85780631506e46314620002005780631ecf6f9f1462000219575b600080fd5b620001a26200014f36600462001a68565b6040805180820190915260008082526020820152506040805180820182526001600160a01b03909216600081815260066020818152938220805463ffffffff168652929091528252600101549082015290565b60408051825163ffffffff16815260209283015192810192909252015b60405180910390f35b620001df620001d936600462001a9b565b62000431565b604080516001600160a01b03938416815292909116602083015201620001bf565b620002176200021136600462001ae3565b62000457565b005b620002306200022a36600462001b13565b620004f3565b6040516001600160a01b039091168152602001620001bf565b620002306200025a36600462001b13565b62000506565b620002906200027136600462001b13565b600090815260076020526040902060020154600160a01b900460ff1690565b6040519015158152602001620001bf565b62000217620002b236600462001b2d565b62000513565b620001a2620002c936600462001a68565b6040805180820190915260008082526020820152506040805180820182526001600160a01b03909216600081815260056020818152938220805463ffffffff168652929091528252600101549082015290565b620002306200032d36600462001b78565b620005bb565b620002306200034436600462001b13565b6000908152600760205260409020600201546001600160a01b031690565b620002176200037336600462001b97565b620005d8565b620002306200038a36600462001b78565b62000685565b62000290620003a136600462001b78565b620006a8565b62000230620003b836600462001c8d565b620006c5565b62000230620003cf36600462001b78565b62000896565b62000217620003e636600462001d50565b620008b9565b62000230620003fd36600462001dce565b62000a55565b620002176200041436600462001e2c565b62000bc5565b620001a26200042b36600462001a68565b62000c56565b6000806200044c62000444858562000c75565b858562000cb8565b915091509250929050565b336200046262000ce9565b6001600160a01b031614158015620004a1575060033360009081526014602052604090205460ff1660038111156200049e576200049e62001e5a565b14155b15620004c057604051637b32c26b60e01b815260040160405180910390fd5b6000620004df60208401803590620004d9908662001e70565b62000c75565b9050620004ee83838362000d07565b505050565b6000620005008262000da2565b92915050565b6000620005008262000dc1565b336200051e62000ce9565b6001600160a01b0316141580156200055d575060033360009081526014602052604090205460ff1660038111156200055a576200055a62001e5a565b14155b156200057c57604051637b32c26b60e01b815260040160405180910390fd5b60006200059560208501803590620004d9908762001e70565b9050620005b5818484620005af3689900389018962001e8e565b62000dfd565b50505050565b6000620005006200034460208401803590620004d9908662001e70565b33620005e362000ce9565b6001600160a01b03161415801562000622575060033360009081526014602052604090205460ff1660038111156200061f576200061f62001e5a565b14155b156200064157604051637b32c26b60e01b815260040160405180910390fd5b6001600160a01b0382166000908152600560209081526040918290208251808401909352805463ffffffff1683526001015490820152620005b58484848462000dfd565b600062000500620006a260208401803590620004d9908662001e70565b62000da2565b6000620005006200027160208401803590620004d9908662001e70565b600033620006d262000ce9565b6001600160a01b03161415801562000711575060033360009081526014602052604090205460ff1660038111156200070e576200070e62001e5a565b14155b156200073057604051637b32c26b60e01b815260040160405180910390fd5b60006200074960208a01803590620004d9908c62001e70565b60045490915060009063ffffffff166200076760208c018c62001e70565b63ffffffff161490508015620007f75760208a013592506001600160a01b03861615801590620007a95750826001600160a01b0316866001600160a01b031614155b80620007bd57506001600160a01b03851615155b15620007dc5760405163022d833560e01b815260040160405180910390fd5b620007f160018a60008660008f8a896200107b565b62000889565b6000828152600760205260409020546001600160a01b0316151580620008345750600082815260076020526040902054600160a01b900460ff1615155b15620008535760405163ae154e0360e01b815260040160405180910390fd5b6200087360208b018035906200086a908d62001e70565b8b8b8b6200165e565b92506200088960008a8886898f6000896200107b565b5050979650505050505050565b600062000500620008b360208401803590620004d9908662001e70565b62000dc1565b33620008c462000ce9565b6001600160a01b03161415801562000903575060033360009081526014602052604090205460ff16600381111562000900576200090062001e5a565b14155b156200092257604051637b32c26b60e01b815260040160405180910390fd5b60006200093b60208501803590620004d9908762001e70565b905060006200094a82620016e6565b546001600160a01b03169050806200097557604051639db40a2560e01b815260040160405180910390fd5b62000984602086018662001e70565b60045463ffffffff918216911603620009b057604051630e5a87cb60e21b815260040160405180910390fd5b600082815260076020526040902060020154600160a01b900460ff16620009ea57604051634d665d9960e01b815260040160405180910390fd5b604051635bd8487760e11b81526001600160a01b0382169063b7b090ee9062000a1a908790879060040162001f33565b600060405180830381600087803b15801562000a3557600080fd5b505af115801562000a4a573d6000803e3d6000fd5b505050505050505050565b60003362000a6262000ce9565b6001600160a01b03161415801562000aa1575060033360009081526014602052604090205460ff16600381111562000a9e5762000a9e62001e5a565b14155b1562000ac057604051637b32c26b60e01b815260040160405180910390fd5b6001600160a01b03841662000ae857604051631363580360e21b815260040160405180910390fd5b60045463ffffffff1662000b00602087018762001e70565b63ffffffff160362000b255760405163333de67d60e21b815260040160405180910390fd5b600062000b3e60208701803590620004d9908962001e70565b905062000bb86000866001600160a01b031663313ce5676040518163ffffffff1660e01b8152600401602060405180830381865afa15801562000b85573d6000803e3d6000fd5b505050506040513d601f19601f8201168201806040525081019062000bab919062001f65565b8688878b6000886200107b565b849150505b949350505050565b3362000bd062000ce9565b6001600160a01b03161415801562000c0f575060033360009081526014602052604090205460ff16600381111562000c0c5762000c0c62001e5a565b14155b1562000c2e57604051637b32c26b60e01b815260040160405180910390fd5b600062000c4760208401803590620004d9908662001e70565b9050620004ee8383836200172f565b604080518082019091526000808252602082015262000500826200186d565b6000828260405160200162000c9a92919091825263ffffffff16602082015260400190565b60405160208183030381529060405280519060200120905092915050565b600080600062000ccc86868660006200188e565b9050600062000cdb8762000dc1565b919791965090945050505050565b600062000cf5620018cc565b600401546001600160a01b0316919050565b600081815260076020908152604090912060020180546001600160a01b0319166001600160a01b03851617905562000d429084018462001e70565b63ffffffff168360200135827f16285b1cf634d546d51fefe55f6e63e5edf970d2a3d2bd50b55a8cfad25e8b56853360405162000d959291906001600160a01b0392831681529116602082015260400190565b60405180910390a4505050565b60008062000db083620016e6565b546001600160a01b03169392505050565b60008062000dcf83620016e6565b600101546001600160a01b03169050806200050057604051630558a50760e31b815260040160405180910390fd5b60008481526007602052604090206002810154600160a01b900460ff1662000e3857604051631c999e7d60e11b815260040160405180910390fd5b60018101546001600160a01b03858116911614158062000e65575080546001600160a01b03848116911614155b1562000e84576040516318707fc960e31b815260040160405180910390fd5b815160045463ffffffff908116911614801562000f4157600062000ea9846020015190565b6040516370a0823160e01b81523060048201529091506000906001600160a01b038316906370a0823190602401602060405180830381865afa15801562000ef4573d6000803e3d6000fd5b505050506040513d601f19601f8201168201806040525081019062000f1a919062001f85565b111562000f3a5760405163454732f160e11b815260040160405180910390fd5b5062000fc8565b6000846001600160a01b03166318160ddd6040518163ffffffff1660e01b8152600401602060405180830381865afa15801562000f82573d6000803e3d6000fd5b505050506040513d601f19601f8201168201806040525081019062000fa8919062001f85565b111562000fc85760405163454732f160e11b815260040160405180910390fd5b6000868152600760209081526040808320600180820180546001600160a81b0319908116909155600283018054909116905560039091018490556001600160a01b03888116855260068452828520805463ffffffff199081168255908301869055908a16855260058452828520805490911681550192909255905133815287917f9d181adb70e733f5235f839c1eed929407ea8526e41d01f49b9fef703e78dddf910160405180910390a2505050505050565b6200108a602084018462001e70565b63ffffffff1615806200109f57506020830135155b15620010be576040516375ba0d7960e11b815260040160405180910390fd5b6001600160a01b03861615600081620010d85787620010da565b865b90506000620010ed602087018762001e70565b60045460008681526007602052604090206002015463ffffffff92831692909116919091149150600160a01b900460ff16156200113d5760405163bfa2bf9b60e01b815260040160405180910390fd5b80620013a2576040516370a0823160e01b815230600482015288906000906001600160a01b038316906370a0823190602401602060405180830381865afa1580156200118d573d6000803e3d6000fd5b505050506040513d601f19601f82011682018060405250810190620011b3919062001f85565b6040516340c10f1960e01b8152306004820152600160248201529091506001600160a01b038316906340c10f1990604401600060405180830381600087803b158015620011ff57600080fd5b505af115801562001214573d6000803e3d6000fd5b5050505080600162001227919062001fb5565b6040516370a0823160e01b81523060048201526001600160a01b038416906370a0823190602401602060405180830381865afa1580156200126c573d6000803e3d6000fd5b505050506040513d601f19601f8201168201806040525081019062001292919062001f85565b14620012b15760405163016dd8ed60e71b815260040160405180910390fd5b604051632770a7eb60e21b8152306004820152600160248201526001600160a01b03831690639dc29fac90604401600060405180830381600087803b158015620012fa57600080fd5b505af11580156200130f573d6000803e3d6000fd5b50506040516370a0823160e01b81523060048201528392506001600160a01b03851691506370a0823190602401602060405180830381865afa1580156200135a573d6000803e3d6000fd5b505050506040513d601f19601f8201168201806040525081019062001380919062001f85565b146200139f5760405163ad6f16e360e01b815260040160405180910390fd5b50505b6040518061010001604052808c620013bb5789620013be565b60005b6001600160a01b031681526020018b60ff168152602001836001600160a01b03168152602001846200145557836001600160a01b031663313ce5676040518163ffffffff1660e01b8152600401602060405180830381865afa15801562001429573d6000803e3d6000fd5b505050506040513d601f19601f820116820180604052508101906200144f919062001f65565b62001457565b8b5b60ff90811682526000602080840182905260016040808601829052606080870185905260809687018590528b8552600784529381902087518154898601518816600160a01b9081026001600160a81b03199283166001600160a01b0394851617178455938a01519483018054978b0151909816840296811694821694909417959095179095559486015160028501805460a089015115159097029690921693169290921793909317905560c0830151600382015560e090920151600490920191909155620015289087018762001e70565b6001600160a01b0383166000908152600560209081526040909120805463ffffffff191663ffffffff939093169290921782558701356001909101558a620015c85762001579602087018762001e70565b6001600160a01b0389166000908152600660209081526040909120805463ffffffff191663ffffffff93909316929092178255870135600190910155620015c286888662000d07565b620015dc565b8415620015dc57620015dc8686866200172f565b620015eb602087018762001e70565b63ffffffff168660200135857f0c58c78506e2d526f5ccdba28119c9ca3b5ce48e1462e0e19bc39232db11c632858c3360405162001649939291906001600160a01b0393841681529183166020830152909116604082015260600190565b60405180910390a45050505050505050505050565b6000838383604051620016719062001a3d565b6200167f9392919062001fcb565b604051809103906000f0801580156200169c573d6000803e3d6000fd5b509050806001600160a01b0316868663ffffffff167f84d5e3618bf276f3d29a931646fdd996b398a3efa3cf6bceefc1fe7f0304059f60405160405180910390a495945050505050565b6000818152600760205260408120600180820154839291600160a01b90910460ff161015620017285760405163618cca3f60e11b815260040160405180910390fd5b9392505050565b6200173e602084018462001e70565b60045463ffffffff9081169116146200176a5760405163a56029bd60e01b815260040160405180910390fd5b600081815260076020526040902060030182905581156200180e57600060208401356040516370a0823160e01b81523060048201529091506001600160a01b038216906370a0823190602401602060405180830381865afa158015620017d4573d6000803e3d6000fd5b505050506040513d601f19601f82011682018060405250810190620017fa919062001f85565b600083815260076020526040902060040155505b6200181d602084018462001e70565b63ffffffff168360200135827f8976b61819dcee01042166c2c5612babc4f820a30843a7f8b23c0ddc343f6ef4853360405162000d959291909182526001600160a01b0316602082015260400190565b604080518082019091526000808252602082015262000500826000620018fc565b600481015460009063ffffffff90811690841603620018af57508262000bbd565b620018ba85620016e6565b546001600160a01b0316905062000bbd565b6000806200050060017fc8fcad8db84d3cc18b4c41d551ea0ee66dd599cde068d998e57d5e09332c131c62002007565b604080518082019091526000808252602082015260408051808201909152600080825260208201526001600160a01b0384166200193b57905062000500565b506001600160a01b03831660009081526005830160209081526040918290208251808401909352805463ffffffff1680845260019091015491830191909152156200198857905062000500565b620019948484620019fc565b15620019bc57600483015463ffffffff1681526001600160a01b038416602082015262001728565b506001600160a01b03831660009081526006830160209081526040918290208251808401909352805463ffffffff16835260010154908201529392505050565b6001600160a01b038216600090815260068201602052604081205463ffffffff161562001a2c5750600062000500565b50506001600160a01b03163b151590565b6119d9806200201e83390190565b80356001600160a01b038116811462001a6357600080fd5b919050565b60006020828403121562001a7b57600080fd5b620017288262001a4b565b803563ffffffff8116811462001a6357600080fd5b6000806040838503121562001aaf57600080fd5b8235915062001ac16020840162001a86565b90509250929050565b60006040828403121562001add57600080fd5b50919050565b6000806060838503121562001af757600080fd5b62001b03848462001aca565b915062001ac16040840162001a4b565b60006020828403121562001b2657600080fd5b5035919050565b60008060006080848603121562001b4357600080fd5b62001b4f858562001aca565b925062001b5f6040850162001a4b565b915062001b6f6060850162001a4b565b90509250925092565b60006040828403121562001b8b57600080fd5b62001728838362001aca565b60008060006060848603121562001bad57600080fd5b8335925062001bbf6020850162001a4b565b915062001b6f6040850162001a4b565b60ff8116811462001bdf57600080fd5b50565b634e487b7160e01b600052604160045260246000fd5b600082601f83011262001c0a57600080fd5b813567ffffffffffffffff8082111562001c285762001c2862001be2565b604051601f8301601f19908116603f0116810190828211818310171562001c535762001c5362001be2565b8160405283815286602085880101111562001c6d57600080fd5b836020870160208301376000602085830101528094505050505092915050565b6000806000806000806000610100888a03121562001caa57600080fd5b62001cb6898962001aca565b9650604088013562001cc88162001bcf565b9550606088013567ffffffffffffffff8082111562001ce657600080fd5b62001cf48b838c0162001bf8565b965060808a013591508082111562001d0b57600080fd5b5062001d1a8a828b0162001bf8565b94505062001d2b60a0890162001a4b565b925062001d3b60c0890162001a4b565b915060e0880135905092959891949750929550565b60008060006080848603121562001d6657600080fd5b62001d72858562001aca565b9250604084013567ffffffffffffffff8082111562001d9057600080fd5b62001d9e8783880162001bf8565b9350606086013591508082111562001db557600080fd5b5062001dc48682870162001bf8565b9150509250925092565b60008060008060a0858703121562001de557600080fd5b62001df1868662001aca565b935062001e016040860162001a4b565b925062001e116060860162001a4b565b915062001e216080860162001a4b565b905092959194509250565b6000806060838503121562001e4057600080fd5b62001e4c848462001aca565b946040939093013593505050565b634e487b7160e01b600052602160045260246000fd5b60006020828403121562001e8357600080fd5b620017288262001a86565b60006040828403121562001ea157600080fd5b6040516040810181811067ffffffffffffffff8211171562001ec75762001ec762001be2565b60405262001ed58362001a86565b8152602083013560208201528091505092915050565b6000815180845260005b8181101562001f135760208185018101518683018201520162001ef5565b506000602082860101526020601f19601f83011685010191505092915050565b60408152600062001f48604083018562001eeb565b828103602084015262001f5c818562001eeb565b95945050505050565b60006020828403121562001f7857600080fd5b8151620017288162001bcf565b60006020828403121562001f9857600080fd5b5051919050565b634e487b7160e01b600052601160045260246000fd5b8082018082111562000500576200050062001f9f565b60ff8416815260606020820152600062001fe9606083018562001eeb565b828103604084015262001ffd818562001eeb565b9695505050505050565b8181038181111562000500576200050062001f9f56fe60e06040523480156200001157600080fd5b50604051620019d9380380620019d9833981016040819052620000349162000245565b828282604051806040016040528060018152602001603160f81b8152506200006b620000656200012c60201b60201c565b62000130565b600462000079848262000358565b50600562000088838262000358565b506006805460ff191660ff9590951694909417909355508051602091820120825192820192909220600983905560c0818152466080818152604080517f8b73c3c69bb8fe3d512ecc4cf759cc79239f7b179b0ffacaa9a75d522b39400f818801528082019790975260608701949094528501523060a08086018290528351808703820181529590920190925283519390920192909220600855525062000424915050565b3390565b600080546001600160a01b038381166001600160a01b0319831681178455604051919092169283917f8be0079c531659141344cd1fd0a4f28419497f9722a3daafe3b4186f6b6457e09190a35050565b634e487b7160e01b600052604160045260246000fd5b600082601f830112620001a857600080fd5b81516001600160401b0380821115620001c557620001c562000180565b604051601f8301601f19908116603f01168101908282118183101715620001f057620001f062000180565b816040528381526020925086838588010111156200020d57600080fd5b600091505b8382101562000231578582018301518183018401529082019062000212565b600093810190920192909252949350505050565b6000806000606084860312156200025b57600080fd5b835160ff811681146200026d57600080fd5b60208501519093506001600160401b03808211156200028b57600080fd5b620002998783880162000196565b93506040860151915080821115620002b057600080fd5b50620002bf8682870162000196565b9150509250925092565b600181811c90821680620002de57607f821691505b602082108103620002ff57634e487b7160e01b600052602260045260246000fd5b50919050565b601f8211156200035357600081815260208120601f850160051c810160208610156200032e5750805b601f850160051c820191505b818110156200034f578281556001016200033a565b5050505b505050565b81516001600160401b0381111562000374576200037462000180565b6200038c81620003858454620002c9565b8462000305565b602080601f831160018114620003c45760008415620003ab5750858301515b600019600386901b1c1916600185901b1785556200034f565b600085815260208120601f198616915b82811015620003f557888601518255948401946001909101908401620003d4565b5085821015620004145787850151600019600388901b60f8161c191681555b5050505050600190811b01905550565b60805160a05160c05161157e6200045b600039600081816105400152610ba601526000610b2501526000610b4f015261157e6000f3fe608060405234801561001057600080fd5b506004361061012c5760003560e01c80637ecebe00116100ad578063a9059cbb11610071578063a9059cbb14610269578063b7b090ee1461027c578063d505accf1461028f578063dd62ed3e146102a2578063f2fde38b146102b557600080fd5b80637ecebe001461020d5780638da5cb5b1461022057806395d89b411461023b5780639dc29fac14610243578063a457c2d71461025657600080fd5b80633644e515116100f45780633644e515146101ac57806339509351146101b457806340c10f19146101c757806370a08231146101dc578063715018a61461020557600080fd5b806306fdde0314610131578063095ea7b31461014f57806318160ddd1461017257806323b872dd14610184578063313ce56714610197575b600080fd5b6101396102c8565b604051610146919061115b565b60405180910390f35b61016261015d3660046111c5565b61035a565b6040519015158152602001610146565b6003545b604051908152602001610146565b6101626101923660046111ef565b610371565b60065460405160ff9091168152602001610146565b610176610393565b6101626101c23660046111c5565b6103a2565b6101da6101d53660046111c5565b6103de565b005b6101766101ea36600461122b565b6001600160a01b031660009081526001602052604090205490565b6101da6103f4565b61017661021b36600461122b565b610408565b6000546040516001600160a01b039091168152602001610146565b610139610426565b6101da6102513660046111c5565b610435565b6101626102643660046111c5565b610447565b6101626102773660046111c5565b6104c6565b6101da61028a366004611296565b6104d3565b6101da61029d366004611302565b6105c6565b6101766102b0366004611375565b61072a565b6101da6102c336600461122b565b610755565b6060600480546102d7906113a8565b80601f0160208091040260200160405190810160405280929190818152602001828054610303906113a8565b80156103505780601f1061032557610100808354040283529160200191610350565b820191906000526020600020905b81548152906001019060200180831161033357829003601f168201915b5050505050905090565b60006103673384846107ce565b5060015b92915050565b600061037e8433846108f3565b61038984848461096d565b5060019392505050565b600061039d610b18565b905090565b3360008181526002602090815260408083206001600160a01b038716845290915281205490916103679185906103d99086906113dc565b6107ce565b6103e6610bca565b6103f08282610c24565b5050565b6103fc610bca565b6104066000610ce5565b565b6001600160a01b03811660009081526007602052604081205461036b565b6060600580546102d7906113a8565b61043d610bca565b6103f08282610d35565b600080610454338561072a565b9050828110156104b95760405162461bcd60e51b815260206004820152602560248201527f45524332303a2064656372656173656420616c6c6f77616e63652062656c6f77604482015264207a65726f60d81b60648201526084015b60405180910390fd5b61038933858584036107ce565b600061036733848461096d565b6104db610bca565b60046104e8848683611461565b5060056104f6828483611461565b5060008484604051610509929190611522565b604051908190039020600981905590506105647f8b73c3c69bb8fe3d512ecc4cf759cc79239f7b179b0ffacaa9a75d522b39400f827f0000000000000000000000000000000000000000000000000000000000000000610e66565b6008556040516105779084908490611522565b6040518091039020858560405161058f929190611522565b604051908190038120907f1ec4c73af923253fb2c28a509dd78d342709289a09929d78c64c0b8e047efbcd90600090a35050505050565b834211156106165760405162461bcd60e51b815260206004820152601d60248201527f45524332305065726d69743a206578706972656420646561646c696e6500000060448201526064016104b0565b60007f6e71edae12b1b97f4d1f60370fef10105fa2faae0126114a169c64845d6126c98888886106458c610eaf565b6040805160208101969096526001600160a01b0394851690860152929091166060840152608083015260a082015260c0810186905260e00160405160208183030381529060405280519060200120905060006106a082610ed7565b905060006106b082878787610f25565b9050896001600160a01b0316816001600160a01b0316146107135760405162461bcd60e51b815260206004820152601e60248201527f45524332305065726d69743a20696e76616c6964207369676e6174757265000060448201526064016104b0565b61071e8a8a8a6107ce565b50505050505050505050565b6001600160a01b03918216600090815260026020908152604080832093909416825291909152205490565b61075d610bca565b6001600160a01b0381166107c25760405162461bcd60e51b815260206004820152602660248201527f4f776e61626c653a206e6577206f776e657220697320746865207a65726f206160448201526564647265737360d01b60648201526084016104b0565b6107cb81610ce5565b50565b6001600160a01b0383166108305760405162461bcd60e51b8152602060048201526024808201527f45524332303a20617070726f76652066726f6d20746865207a65726f206164646044820152637265737360e01b60648201526084016104b0565b6001600160a01b0382166108915760405162461bcd60e51b815260206004820152602260248201527f45524332303a20617070726f766520746f20746865207a65726f206164647265604482015261737360f01b60648201526084016104b0565b6001600160a01b0383811660008181526002602090815260408083209487168084529482529182902085905590518481527f8c5be1e5ebec7d5bd14f71427d1e84f3dd0314c0f7b2291e5b200ac8c7c3b92591015b60405180910390a3505050565b60006108ff848461072a565b90506000198114610967578181101561095a5760405162461bcd60e51b815260206004820152601d60248201527f45524332303a20696e73756666696369656e7420616c6c6f77616e636500000060448201526064016104b0565b61096784848484036107ce565b50505050565b6001600160a01b0383166109d15760405162461bcd60e51b815260206004820152602560248201527f45524332303a207472616e736665722066726f6d20746865207a65726f206164604482015264647265737360d81b60648201526084016104b0565b6001600160a01b038216610a335760405162461bcd60e51b815260206004820152602360248201527f45524332303a207472616e7366657220746f20746865207a65726f206164647260448201526265737360e81b60648201526084016104b0565b6001600160a01b03831660009081526001602052604090205481811015610aab5760405162461bcd60e51b815260206004820152602660248201527f45524332303a207472616e7366657220616d6f756e7420657863656564732062604482015265616c616e636560d01b60648201526084016104b0565b6001600160a01b0380851660008181526001602052604080822086860390559286168082529083902080548601905591517fddf252ad1be2c89b69c2b068fc378daa952ba7f163c4a11628f55a4df523b3ef90610b0b9086815260200190565b60405180910390a3610967565b6000306001600160a01b037f000000000000000000000000000000000000000000000000000000000000000016148015610b7157507f000000000000000000000000000000000000000000000000000000000000000046145b15610b7d575060085490565b61039d7f8b73c3c69bb8fe3d512ecc4cf759cc79239f7b179b0ffacaa9a75d522b39400f6009547f0000000000000000000000000000000000000000000000000000000000000000610e66565b6000546001600160a01b031633146104065760405162461bcd60e51b815260206004820181905260248201527f4f776e61626c653a2063616c6c6572206973206e6f7420746865206f776e657260448201526064016104b0565b6001600160a01b038216610c7a5760405162461bcd60e51b815260206004820152601f60248201527f45524332303a206d696e7420746f20746865207a65726f20616464726573730060448201526064016104b0565b8060036000828254610c8c91906113dc565b90915550506001600160a01b0382166000818152600160209081526040808320805486019055518481527fddf252ad1be2c89b69c2b068fc378daa952ba7f163c4a11628f55a4df523b3ef910160405180910390a35050565b600080546001600160a01b038381166001600160a01b0319831681178455604051919092169283917f8be0079c531659141344cd1fd0a4f28419497f9722a3daafe3b4186f6b6457e09190a35050565b6001600160a01b038216610d955760405162461bcd60e51b815260206004820152602160248201527f45524332303a206275726e2066726f6d20746865207a65726f206164647265736044820152607360f81b60648201526084016104b0565b6001600160a01b03821660009081526001602052604090205481811015610e095760405162461bcd60e51b815260206004820152602260248201527f45524332303a206275726e20616d6f756e7420657863656564732062616c616e604482015261636560f01b60648201526084016104b0565b6001600160a01b03831660008181526001602090815260408083208686039055600380548790039055518581529192917fddf252ad1be2c89b69c2b068fc378daa952ba7f163c4a11628f55a4df523b3ef91016108e6565b505050565b6040805160208101859052908101839052606081018290524660808201523060a082015260009060c0016040516020818303038152906040528051906020012090509392505050565b6001600160a01b03811660009081526007602052604090208054600181018255905b50919050565b600061036b610ee4610b18565b8360405161190160f01b6020820152602281018390526042810182905260009060620160405160208183030381529060405280519060200120905092915050565b6000806000610f3687878787610f4d565b91509150610f4381611011565b5095945050505050565b6000807f7fffffffffffffffffffffffffffffff5d576e7357a4501ddfe92f46681b20a0831115610f845750600090506003611008565b6040805160008082526020820180845289905260ff881692820192909252606081018690526080810185905260019060a0016020604051602081039080840390855afa158015610fd8573d6000803e3d6000fd5b5050604051601f1901519150506001600160a01b03811661100157600060019250925050611008565b9150600090505b94509492505050565b600081600481111561102557611025611532565b0361102d5750565b600181600481111561104157611041611532565b0361108e5760405162461bcd60e51b815260206004820152601860248201527f45434453413a20696e76616c6964207369676e6174757265000000000000000060448201526064016104b0565b60028160048111156110a2576110a2611532565b036110ef5760405162461bcd60e51b815260206004820152601f60248201527f45434453413a20696e76616c6964207369676e6174757265206c656e6774680060448201526064016104b0565b600381600481111561110357611103611532565b036107cb5760405162461bcd60e51b815260206004820152602260248201527f45434453413a20696e76616c6964207369676e6174757265202773272076616c604482015261756560f01b60648201526084016104b0565b600060208083528351808285015260005b818110156111885785810183015185820160400152820161116c565b506000604082860101526040601f19601f8301168501019250505092915050565b80356001600160a01b03811681146111c057600080fd5b919050565b600080604083850312156111d857600080fd5b6111e1836111a9565b946020939093013593505050565b60008060006060848603121561120457600080fd5b61120d846111a9565b925061121b602085016111a9565b9150604084013590509250925092565b60006020828403121561123d57600080fd5b611246826111a9565b9392505050565b60008083601f84011261125f57600080fd5b50813567ffffffffffffffff81111561127757600080fd5b60208301915083602082850101111561128f57600080fd5b9250929050565b600080600080604085870312156112ac57600080fd5b843567ffffffffffffffff808211156112c457600080fd5b6112d08883890161124d565b909650945060208701359150808211156112e957600080fd5b506112f68782880161124d565b95989497509550505050565b600080600080600080600060e0888a03121561131d57600080fd5b611326886111a9565b9650611334602089016111a9565b95506040880135945060608801359350608088013560ff8116811461135857600080fd5b9699959850939692959460a0840135945060c09093013592915050565b6000806040838503121561138857600080fd5b611391836111a9565b915061139f602084016111a9565b90509250929050565b600181811c908216806113bc57607f821691505b602082108103610ed157634e487b7160e01b600052602260045260246000fd5b8082018082111561036b57634e487b7160e01b600052601160045260246000fd5b634e487b7160e01b600052604160045260246000fd5b601f821115610e6157600081815260208120601f850160051c8101602086101561143a5750805b601f850160051c820191505b8181101561145957828155600101611446565b505050505050565b67ffffffffffffffff831115611479576114796113fd565b61148d8361148783546113a8565b83611413565b6000601f8411600181146114c157600085156114a95750838201355b600019600387901b1c1916600186901b17835561151b565b600083815260209020601f19861690835b828110156114f257868501358255602094850194600190920191016114d2565b508682101561150f5760001960f88860031b161c19848701351681555b505060018560011b0183555b5050505050565b8183823760009101908152919050565b634e487b7160e01b600052602160045260246000fdfea26469706673582212208113c928e03165e19b5c7ac5b67b85c32ab586cd042677306fbd142d27afccf664736f6c63430008110033a2646970667358221220148c854c0262d5b8cf2e7ba8c43831b644fed1553866384c1869eff64dd2ce9c64736f6c63430008110033",
  "devdoc": {
    "events": {
      "AssetAdded(bytes32,bytes32,uint32,address,address,address)": {
        "params": {
          "adoptedAsset": "- The address of the adopted (user-expected) asset",
          "caller": "- The account that called the function",
          "canonicalId": "- The canonical identifier of the token the local <> adopted AMM is for",
          "domain": "- The domain of the canonical token for the local <> adopted amm",
          "key": "- The key in the mapping (hash of canonical id and domain)",
          "localAsset": "- The address of the local asset"
        }
      },
      "AssetRemoved(bytes32,address)": {
        "params": {
          "caller": "- The account that called the function",
          "key": "- The hash of the canonical identifier and domain of the token removed"
        }
      },
      "LiquidityCapUpdated(bytes32,bytes32,uint32,uint256,address)": {
        "params": {
          "caller": "- The account that called the function",
          "canonicalId": "- The canonical identifier of the token the local <> adopted AMM is for",
          "cap": "- The newly enforced liquidity cap (if it is 0, no cap is enforced)",
          "domain": "- The domain of the canonical token for the local <> adopted amm",
          "key": "- The key in the mapping (hash of canonical id and domain)"
        }
      },
      "StableSwapAdded(bytes32,bytes32,uint32,address,address)": {
        "params": {
          "caller": "- The account that called the function",
          "canonicalId": "- The canonical identifier of the token the local <> adopted AMM is for",
          "domain": "- The domain of the canonical token for the local <> adopted amm",
          "key": "- The key in the mapping (hash of canonical id and domain)",
          "swapPool": "- The address of the AMM"
        }
      },
      "TokenDeployed(uint32,bytes32,address)": {
        "params": {
          "domain": "the domain of the chain where the canonical asset is deployed",
          "id": "the bytes32 address of the canonical token contract",
          "representation": "the address of the newly locally deployed representation contract"
        }
      }
    },
    "kind": "dev",
    "methods": {
      "addStableSwapPool((uint32,bytes32),address)": {
        "details": "Must pass in the _canonical information so it can be emitted in event"
      },
      "removeAssetId((uint32,bytes32),address,address)": {
        "params": {
          "_adoptedAssetId": "- Corresponding adopted asset to remove",
          "_canonical": "- The canonical id and domain to remove",
          "_representation": "- Corresponding representation asset to remove"
        }
      },
      "removeAssetId(bytes32,address,address)": {
        "params": {
          "_adoptedAssetId": "- Corresponding adopted asset to remove",
          "_key": "- The hash of the canonical id and domain to remove (mapping key)",
          "_representation": "- Corresponding representation asset to remove"
        }
      },
      "setupAsset((uint32,bytes32),uint8,string,string,address,address,uint256)": {
        "details": "When allowlisting the canonical asset, all representational assets would be allowlisted as well. In the event you have a different adopted asset (i.e. PoS USDC on polygon), you should *not* allowlist the adopted asset. The stable swap pool address used should allow you to swap between the local <> adopted asset. If a representation has been deployed at any point, `setupAssetWithDeployedRepresentation` should be used instead. The following can only be added on *REMOTE* domains: - `_adoptedAssetId` - `_stableSwapPool` Whereas the `_cap` can only be added on the canonical domain",
        "params": {
          "_adoptedAssetId": "- The used asset id for this domain (e.g. PoS USDC for polygon)",
          "_canonical": "- The canonical asset to add by id and domain. All representations will be allowlisted as well",
          "_canonicalDecimals": "- The decimals of the canonical asset (will be used for deployed representation)",
          "_representationName": "- The name to be used for the deployed asset",
          "_representationSymbol": "- The symbol used for the deployed asset",
          "_stableSwapPool": "- The address of the local stableswap pool, if it exists."
        }
      },
      "setupAssetWithDeployedRepresentation((uint32,bytes32),address,address,address)": {
        "details": "This function does very minimal checks to ensure the correct `_representation` token is used. The only enforced checks are: - Bridge can mint, and balance of bridge will increase - Bridge can burn, and balance of bridge will decrease However, there are many things that must be checked manually to avoid enrolling a bad representation: - decimals must always be equal to canonical decimals - regular `mint`, `burn`, `ERC20` functionality could be implemented improperly - the required interface functions (see `IBridgeToken`) may not be implemented - upgradeability could interfere with required functionality Using this method allows admins to override existing local tokens, and should be used carefully.",
        "params": {
          "_adoptedAssetId": "- The used asset id for this domain (e.g. PoS USDC for polygon)",
          "_canonical": "- The canonical asset to add by id and domain. All representations will be whitelisted as well",
          "_representation": "- The address of the representative asset",
          "_stableSwapPool": "- The address of the local stableswap pool, if it exists."
        }
      },
      "updateDetails((uint32,bytes32),string,string)": {
        "params": {
          "_canonical": "- The canonical id and domain to remove",
          "_name": "- The new name",
          "_symbol": "- The new symbol"
        }
      },
      "updateLiquidityCap((uint32,bytes32),uint256)": {
        "details": "Must pass in the _canonical information so it can be emitted in event"
      }
    },
    "version": 1
  },
  "userdoc": {
    "events": {
      "AssetAdded(bytes32,bytes32,uint32,address,address,address)": {
        "notice": "Emitted when a new asset is added"
      },
      "AssetRemoved(bytes32,address)": {
        "notice": "Emitted when an asset is removed from allowlists"
      },
      "LiquidityCapUpdated(bytes32,bytes32,uint32,uint256,address)": {
        "notice": "Emitted when a liquidity cap is updated"
      },
      "StableSwapAdded(bytes32,bytes32,uint32,address,address)": {
        "notice": "Emitted when a new stable-swap AMM is added for the local <> adopted token"
      },
      "TokenDeployed(uint32,bytes32,address)": {
        "notice": "emitted when a representation token contract is deployed"
      }
    },
    "kind": "user",
    "methods": {
      "addStableSwapPool((uint32,bytes32),address)": {
        "notice": "Adds a stable swap pool for the local <> adopted asset."
      },
      "removeAssetId((uint32,bytes32),address,address)": {
        "notice": "Used to remove assets from the allowlist"
      },
      "removeAssetId(bytes32,address,address)": {
        "notice": "Used to remove assets from the allowlist"
      },
      "setupAsset((uint32,bytes32),uint8,string,string,address,address,uint256)": {
        "notice": "Used to add supported assets. This is an admin only function"
      },
      "setupAssetWithDeployedRepresentation((uint32,bytes32),address,address,address)": {
        "notice": "Used to add supported assets, without deploying a unique representation asset, and instead using what admins have provided. This is an admin only function"
      },
      "updateDetails((uint32,bytes32),string,string)": {
        "notice": "Used to update the name and symbol of a local token"
      },
      "updateLiquidityCap((uint32,bytes32),uint256)": {
        "notice": "Adds a stable swap pool for the local <> adopted asset."
      }
    },
    "version": 1
  },
  "storageLayout": {
    "storage": [
      {
        "astId": 13720,
        "contract": "contracts/core/connext/facets/TokenFacet.sol:TokenFacet",
        "label": "s",
        "offset": 0,
        "slot": "0",
        "type": "t_struct(AppStorage)29487_storage"
      }
    ],
    "types": {
      "t_address": {
        "encoding": "inplace",
        "label": "address",
        "numberOfBytes": "20"
      },
      "t_array(t_address)dyn_storage": {
        "base": "t_address",
        "encoding": "dynamic_array",
        "label": "address[]",
        "numberOfBytes": "32"
      },
      "t_array(t_contract(IERC20)10806)dyn_storage": {
        "base": "t_contract(IERC20)10806",
        "encoding": "dynamic_array",
        "label": "contract IERC20[]",
        "numberOfBytes": "32"
      },
      "t_array(t_uint256)dyn_storage": {
        "base": "t_uint256",
        "encoding": "dynamic_array",
        "label": "uint256[]",
        "numberOfBytes": "32"
      },
      "t_bool": {
        "encoding": "inplace",
        "label": "bool",
        "numberOfBytes": "1"
      },
      "t_bytes32": {
        "encoding": "inplace",
        "label": "bytes32",
        "numberOfBytes": "32"
      },
      "t_contract(IConnectorManager)47349": {
        "encoding": "inplace",
        "label": "contract IConnectorManager",
        "numberOfBytes": "20"
      },
      "t_contract(IERC20)10806": {
        "encoding": "inplace",
        "label": "contract IERC20",
        "numberOfBytes": "20"
      },
      "t_contract(LPToken)23142": {
        "encoding": "inplace",
        "label": "contract LPToken",
        "numberOfBytes": "20"
      },
      "t_enum(DestinationTransferStatus)29275": {
        "encoding": "inplace",
        "label": "enum DestinationTransferStatus",
        "numberOfBytes": "1"
      },
      "t_enum(Role)29270": {
        "encoding": "inplace",
        "label": "enum Role",
        "numberOfBytes": "1"
      },
      "t_mapping(t_address,t_bool)": {
        "encoding": "mapping",
        "key": "t_address",
        "label": "mapping(address => bool)",
        "numberOfBytes": "32",
        "value": "t_bool"
      },
      "t_mapping(t_address,t_enum(Role)29270)": {
        "encoding": "mapping",
        "key": "t_address",
        "label": "mapping(address => enum Role)",
        "numberOfBytes": "32",
        "value": "t_enum(Role)29270"
      },
      "t_mapping(t_address,t_mapping(t_address,t_uint256))": {
        "encoding": "mapping",
        "key": "t_address",
        "label": "mapping(address => mapping(address => uint256))",
        "numberOfBytes": "32",
        "value": "t_mapping(t_address,t_uint256)"
      },
      "t_mapping(t_address,t_struct(RouterConfig)29329_storage)": {
        "encoding": "mapping",
        "key": "t_address",
        "label": "mapping(address => struct RouterConfig)",
        "numberOfBytes": "32",
        "value": "t_struct(RouterConfig)29329_storage"
      },
      "t_mapping(t_address,t_struct(TokenId)37687_storage)": {
        "encoding": "mapping",
        "key": "t_address",
        "label": "mapping(address => struct TokenId)",
        "numberOfBytes": "32",
        "value": "t_struct(TokenId)37687_storage"
      },
      "t_mapping(t_address,t_uint256)": {
        "encoding": "mapping",
        "key": "t_address",
        "label": "mapping(address => uint256)",
        "numberOfBytes": "32",
        "value": "t_uint256"
      },
      "t_mapping(t_address,t_uint8)": {
        "encoding": "mapping",
        "key": "t_address",
        "label": "mapping(address => uint8)",
        "numberOfBytes": "32",
        "value": "t_uint8"
      },
      "t_mapping(t_bytes32,t_array(t_address)dyn_storage)": {
        "encoding": "mapping",
        "key": "t_bytes32",
        "label": "mapping(bytes32 => address[])",
        "numberOfBytes": "32",
        "value": "t_array(t_address)dyn_storage"
      },
      "t_mapping(t_bytes32,t_bool)": {
        "encoding": "mapping",
        "key": "t_bytes32",
        "label": "mapping(bytes32 => bool)",
        "numberOfBytes": "32",
        "value": "t_bool"
      },
      "t_mapping(t_bytes32,t_enum(DestinationTransferStatus)29275)": {
        "encoding": "mapping",
        "key": "t_bytes32",
        "label": "mapping(bytes32 => enum DestinationTransferStatus)",
        "numberOfBytes": "32",
        "value": "t_enum(DestinationTransferStatus)29275"
      },
      "t_mapping(t_bytes32,t_mapping(t_address,t_uint8))": {
        "encoding": "mapping",
        "key": "t_bytes32",
        "label": "mapping(bytes32 => mapping(address => uint8))",
        "numberOfBytes": "32",
        "value": "t_mapping(t_address,t_uint8)"
      },
      "t_mapping(t_bytes32,t_struct(Swap)30745_storage)": {
        "encoding": "mapping",
        "key": "t_bytes32",
        "label": "mapping(bytes32 => struct SwapUtils.Swap)",
        "numberOfBytes": "32",
        "value": "t_struct(Swap)30745_storage"
      },
      "t_mapping(t_bytes32,t_struct(TokenConfig)29346_storage)": {
        "encoding": "mapping",
        "key": "t_bytes32",
        "label": "mapping(bytes32 => struct TokenConfig)",
        "numberOfBytes": "32",
        "value": "t_struct(TokenConfig)29346_storage"
      },
      "t_mapping(t_bytes32,t_uint256)": {
        "encoding": "mapping",
        "key": "t_bytes32",
        "label": "mapping(bytes32 => uint256)",
        "numberOfBytes": "32",
        "value": "t_uint256"
      },
      "t_mapping(t_uint32,t_bytes32)": {
        "encoding": "mapping",
        "key": "t_uint32",
        "label": "mapping(uint32 => bytes32)",
        "numberOfBytes": "32",
        "value": "t_bytes32"
      },
      "t_struct(AppStorage)29487_storage": {
        "encoding": "inplace",
        "label": "struct AppStorage",
        "members": [
          {
            "astId": 29348,
            "contract": "contracts/core/connext/facets/TokenFacet.sol:TokenFacet",
            "label": "initialized",
            "offset": 0,
            "slot": "0",
            "type": "t_bool"
          },
          {
            "astId": 29350,
            "contract": "contracts/core/connext/facets/TokenFacet.sol:TokenFacet",
            "label": "LIQUIDITY_FEE_NUMERATOR",
            "offset": 0,
            "slot": "1",
            "type": "t_uint256"
          },
          {
            "astId": 29353,
            "contract": "contracts/core/connext/facets/TokenFacet.sol:TokenFacet",
            "label": "relayerFeeVault",
            "offset": 0,
            "slot": "2",
            "type": "t_address"
          },
          {
            "astId": 29356,
            "contract": "contracts/core/connext/facets/TokenFacet.sol:TokenFacet",
            "label": "nonce",
            "offset": 0,
            "slot": "3",
            "type": "t_uint256"
          },
          {
            "astId": 29359,
            "contract": "contracts/core/connext/facets/TokenFacet.sol:TokenFacet",
            "label": "domain",
            "offset": 0,
            "slot": "4",
            "type": "t_uint32"
          },
          {
            "astId": 29365,
            "contract": "contracts/core/connext/facets/TokenFacet.sol:TokenFacet",
            "label": "adoptedToCanonical",
            "offset": 0,
            "slot": "5",
            "type": "t_mapping(t_address,t_struct(TokenId)37687_storage)"
          },
          {
            "astId": 29371,
            "contract": "contracts/core/connext/facets/TokenFacet.sol:TokenFacet",
            "label": "representationToCanonical",
            "offset": 0,
            "slot": "6",
            "type": "t_mapping(t_address,t_struct(TokenId)37687_storage)"
          },
          {
            "astId": 29377,
            "contract": "contracts/core/connext/facets/TokenFacet.sol:TokenFacet",
            "label": "tokenConfigs",
            "offset": 0,
            "slot": "7",
            "type": "t_mapping(t_bytes32,t_struct(TokenConfig)29346_storage)"
          },
          {
            "astId": 29383,
            "contract": "contracts/core/connext/facets/TokenFacet.sol:TokenFacet",
            "label": "transferStatus",
            "offset": 0,
            "slot": "8",
            "type": "t_mapping(t_bytes32,t_enum(DestinationTransferStatus)29275)"
          },
          {
            "astId": 29389,
            "contract": "contracts/core/connext/facets/TokenFacet.sol:TokenFacet",
            "label": "routedTransfers",
            "offset": 0,
            "slot": "9",
            "type": "t_mapping(t_bytes32,t_array(t_address)dyn_storage)"
          },
          {
            "astId": 29396,
            "contract": "contracts/core/connext/facets/TokenFacet.sol:TokenFacet",
            "label": "routerBalances",
            "offset": 0,
            "slot": "10",
            "type": "t_mapping(t_address,t_mapping(t_address,t_uint256))"
          },
          {
            "astId": 29401,
            "contract": "contracts/core/connext/facets/TokenFacet.sol:TokenFacet",
            "label": "approvedRelayers",
            "offset": 0,
            "slot": "11",
            "type": "t_mapping(t_address,t_bool)"
          },
          {
            "astId": 29404,
            "contract": "contracts/core/connext/facets/TokenFacet.sol:TokenFacet",
            "label": "maxRoutersPerTransfer",
            "offset": 0,
            "slot": "12",
            "type": "t_uint256"
          },
          {
            "astId": 29409,
            "contract": "contracts/core/connext/facets/TokenFacet.sol:TokenFacet",
            "label": "slippage",
            "offset": 0,
            "slot": "13",
            "type": "t_mapping(t_bytes32,t_uint256)"
          },
          {
            "astId": 29414,
            "contract": "contracts/core/connext/facets/TokenFacet.sol:TokenFacet",
            "label": "receiveLocalOverride",
            "offset": 0,
            "slot": "14",
            "type": "t_mapping(t_bytes32,t_bool)"
          },
          {
            "astId": 29419,
            "contract": "contracts/core/connext/facets/TokenFacet.sol:TokenFacet",
            "label": "remotes",
            "offset": 0,
            "slot": "15",
            "type": "t_mapping(t_uint32,t_bytes32)"
          },
          {
            "astId": 29421,
            "contract": "contracts/core/connext/facets/TokenFacet.sol:TokenFacet",
            "label": "_proposed",
            "offset": 0,
            "slot": "16",
            "type": "t_address"
          },
          {
            "astId": 29423,
            "contract": "contracts/core/connext/facets/TokenFacet.sol:TokenFacet",
            "label": "_proposedOwnershipTimestamp",
            "offset": 0,
            "slot": "17",
            "type": "t_uint256"
          },
          {
            "astId": 29425,
            "contract": "contracts/core/connext/facets/TokenFacet.sol:TokenFacet",
            "label": "_routerAllowlistRemoved",
            "offset": 0,
            "slot": "18",
            "type": "t_bool"
          },
          {
            "astId": 29427,
            "contract": "contracts/core/connext/facets/TokenFacet.sol:TokenFacet",
            "label": "_routerAllowlistTimestamp",
            "offset": 0,
            "slot": "19",
            "type": "t_uint256"
          },
          {
            "astId": 29433,
            "contract": "contracts/core/connext/facets/TokenFacet.sol:TokenFacet",
            "label": "roles",
            "offset": 0,
            "slot": "20",
            "type": "t_mapping(t_address,t_enum(Role)29270)"
          },
          {
            "astId": 29438,
            "contract": "contracts/core/connext/facets/TokenFacet.sol:TokenFacet",
            "label": "routerConfigs",
            "offset": 0,
            "slot": "21",
            "type": "t_mapping(t_address,t_struct(RouterConfig)29329_storage)"
          },
          {
            "astId": 29440,
            "contract": "contracts/core/connext/facets/TokenFacet.sol:TokenFacet",
            "label": "_status",
            "offset": 0,
            "slot": "22",
            "type": "t_uint256"
          },
          {
            "astId": 29442,
            "contract": "contracts/core/connext/facets/TokenFacet.sol:TokenFacet",
            "label": "_xcallStatus",
            "offset": 0,
            "slot": "23",
            "type": "t_uint256"
          },
          {
            "astId": 29448,
            "contract": "contracts/core/connext/facets/TokenFacet.sol:TokenFacet",
            "label": "swapStorages",
            "offset": 0,
            "slot": "24",
            "type": "t_mapping(t_bytes32,t_struct(Swap)30745_storage)"
          },
          {
            "astId": 29455,
            "contract": "contracts/core/connext/facets/TokenFacet.sol:TokenFacet",
            "label": "tokenIndexes",
            "offset": 0,
            "slot": "25",
            "type": "t_mapping(t_bytes32,t_mapping(t_address,t_uint8))"
          },
          {
            "astId": 29458,
            "contract": "contracts/core/connext/facets/TokenFacet.sol:TokenFacet",
            "label": "lpTokenTargetAddress",
            "offset": 0,
            "slot": "26",
            "type": "t_address"
          },
          {
            "astId": 29461,
            "contract": "contracts/core/connext/facets/TokenFacet.sol:TokenFacet",
            "label": "_paused",
            "offset": 20,
            "slot": "26",
            "type": "t_bool"
          },
          {
            "astId": 29464,
            "contract": "contracts/core/connext/facets/TokenFacet.sol:TokenFacet",
            "label": "aavePool",
            "offset": 0,
            "slot": "27",
            "type": "t_address"
          },
          {
            "astId": 29467,
            "contract": "contracts/core/connext/facets/TokenFacet.sol:TokenFacet",
            "label": "aavePortalFeeNumerator",
            "offset": 0,
            "slot": "28",
            "type": "t_uint256"
          },
          {
            "astId": 29472,
            "contract": "contracts/core/connext/facets/TokenFacet.sol:TokenFacet",
            "label": "portalDebt",
            "offset": 0,
            "slot": "29",
            "type": "t_mapping(t_bytes32,t_uint256)"
          },
          {
            "astId": 29477,
            "contract": "contracts/core/connext/facets/TokenFacet.sol:TokenFacet",
            "label": "portalFeeDebt",
            "offset": 0,
            "slot": "30",
            "type": "t_mapping(t_bytes32,t_uint256)"
          },
          {
            "astId": 29482,
            "contract": "contracts/core/connext/facets/TokenFacet.sol:TokenFacet",
            "label": "approvedSequencers",
            "offset": 0,
            "slot": "31",
            "type": "t_mapping(t_address,t_bool)"
          },
          {
            "astId": 29486,
            "contract": "contracts/core/connext/facets/TokenFacet.sol:TokenFacet",
            "label": "xAppConnectionManager",
            "offset": 0,
            "slot": "32",
            "type": "t_contract(IConnectorManager)47349"
          }
        ],
        "numberOfBytes": "1056"
      },
      "t_struct(RouterConfig)29329_storage": {
        "encoding": "inplace",
        "label": "struct RouterConfig",
        "members": [
          {
            "astId": 29318,
            "contract": "contracts/core/connext/facets/TokenFacet.sol:TokenFacet",
            "label": "approved",
            "offset": 0,
            "slot": "0",
            "type": "t_bool"
          },
          {
            "astId": 29320,
            "contract": "contracts/core/connext/facets/TokenFacet.sol:TokenFacet",
            "label": "portalApproved",
            "offset": 1,
            "slot": "0",
            "type": "t_bool"
          },
          {
            "astId": 29322,
            "contract": "contracts/core/connext/facets/TokenFacet.sol:TokenFacet",
            "label": "owner",
            "offset": 2,
            "slot": "0",
            "type": "t_address"
          },
          {
            "astId": 29324,
            "contract": "contracts/core/connext/facets/TokenFacet.sol:TokenFacet",
            "label": "recipient",
            "offset": 0,
            "slot": "1",
            "type": "t_address"
          },
          {
            "astId": 29326,
            "contract": "contracts/core/connext/facets/TokenFacet.sol:TokenFacet",
            "label": "proposed",
            "offset": 0,
            "slot": "2",
            "type": "t_address"
          },
          {
            "astId": 29328,
            "contract": "contracts/core/connext/facets/TokenFacet.sol:TokenFacet",
            "label": "proposedTimestamp",
            "offset": 0,
            "slot": "3",
            "type": "t_uint256"
          }
        ],
        "numberOfBytes": "128"
      },
      "t_struct(Swap)30745_storage": {
        "encoding": "inplace",
        "label": "struct SwapUtils.Swap",
        "members": [
          {
            "astId": 30712,
            "contract": "contracts/core/connext/facets/TokenFacet.sol:TokenFacet",
            "label": "key",
            "offset": 0,
            "slot": "0",
            "type": "t_bytes32"
          },
          {
            "astId": 30714,
            "contract": "contracts/core/connext/facets/TokenFacet.sol:TokenFacet",
            "label": "initialA",
            "offset": 0,
            "slot": "1",
            "type": "t_uint256"
          },
          {
            "astId": 30716,
            "contract": "contracts/core/connext/facets/TokenFacet.sol:TokenFacet",
            "label": "futureA",
            "offset": 0,
            "slot": "2",
            "type": "t_uint256"
          },
          {
            "astId": 30718,
            "contract": "contracts/core/connext/facets/TokenFacet.sol:TokenFacet",
            "label": "initialATime",
            "offset": 0,
            "slot": "3",
            "type": "t_uint256"
          },
          {
            "astId": 30720,
            "contract": "contracts/core/connext/facets/TokenFacet.sol:TokenFacet",
            "label": "futureATime",
            "offset": 0,
            "slot": "4",
            "type": "t_uint256"
          },
          {
            "astId": 30722,
            "contract": "contracts/core/connext/facets/TokenFacet.sol:TokenFacet",
            "label": "swapFee",
            "offset": 0,
            "slot": "5",
            "type": "t_uint256"
          },
          {
            "astId": 30724,
            "contract": "contracts/core/connext/facets/TokenFacet.sol:TokenFacet",
            "label": "adminFee",
            "offset": 0,
            "slot": "6",
            "type": "t_uint256"
          },
          {
            "astId": 30727,
            "contract": "contracts/core/connext/facets/TokenFacet.sol:TokenFacet",
            "label": "lpToken",
            "offset": 0,
            "slot": "7",
            "type": "t_contract(LPToken)23142"
          },
          {
            "astId": 30731,
            "contract": "contracts/core/connext/facets/TokenFacet.sol:TokenFacet",
            "label": "pooledTokens",
            "offset": 0,
            "slot": "8",
            "type": "t_array(t_contract(IERC20)10806)dyn_storage"
          },
          {
            "astId": 30734,
            "contract": "contracts/core/connext/facets/TokenFacet.sol:TokenFacet",
            "label": "tokenPrecisionMultipliers",
            "offset": 0,
            "slot": "9",
            "type": "t_array(t_uint256)dyn_storage"
          },
          {
            "astId": 30737,
            "contract": "contracts/core/connext/facets/TokenFacet.sol:TokenFacet",
            "label": "balances",
            "offset": 0,
            "slot": "10",
            "type": "t_array(t_uint256)dyn_storage"
          },
          {
            "astId": 30740,
            "contract": "contracts/core/connext/facets/TokenFacet.sol:TokenFacet",
            "label": "adminFees",
            "offset": 0,
            "slot": "11",
            "type": "t_array(t_uint256)dyn_storage"
          },
          {
            "astId": 30742,
            "contract": "contracts/core/connext/facets/TokenFacet.sol:TokenFacet",
            "label": "disabled",
            "offset": 0,
            "slot": "12",
            "type": "t_bool"
          },
          {
            "astId": 30744,
            "contract": "contracts/core/connext/facets/TokenFacet.sol:TokenFacet",
            "label": "removeTime",
            "offset": 0,
            "slot": "13",
            "type": "t_uint256"
          }
        ],
        "numberOfBytes": "448"
      },
      "t_struct(TokenConfig)29346_storage": {
        "encoding": "inplace",
        "label": "struct TokenConfig",
        "members": [
          {
            "astId": 29331,
            "contract": "contracts/core/connext/facets/TokenFacet.sol:TokenFacet",
            "label": "representation",
            "offset": 0,
            "slot": "0",
            "type": "t_address"
          },
          {
            "astId": 29333,
            "contract": "contracts/core/connext/facets/TokenFacet.sol:TokenFacet",
            "label": "representationDecimals",
            "offset": 20,
            "slot": "0",
            "type": "t_uint8"
          },
          {
            "astId": 29335,
            "contract": "contracts/core/connext/facets/TokenFacet.sol:TokenFacet",
            "label": "adopted",
            "offset": 0,
            "slot": "1",
            "type": "t_address"
          },
          {
            "astId": 29337,
            "contract": "contracts/core/connext/facets/TokenFacet.sol:TokenFacet",
            "label": "adoptedDecimals",
            "offset": 20,
            "slot": "1",
            "type": "t_uint8"
          },
          {
            "astId": 29339,
            "contract": "contracts/core/connext/facets/TokenFacet.sol:TokenFacet",
            "label": "adoptedToLocalExternalPools",
            "offset": 0,
            "slot": "2",
            "type": "t_address"
          },
          {
            "astId": 29341,
            "contract": "contracts/core/connext/facets/TokenFacet.sol:TokenFacet",
            "label": "approval",
            "offset": 20,
            "slot": "2",
            "type": "t_bool"
          },
          {
            "astId": 29343,
            "contract": "contracts/core/connext/facets/TokenFacet.sol:TokenFacet",
            "label": "cap",
            "offset": 0,
            "slot": "3",
            "type": "t_uint256"
          },
          {
            "astId": 29345,
            "contract": "contracts/core/connext/facets/TokenFacet.sol:TokenFacet",
            "label": "custodied",
            "offset": 0,
            "slot": "4",
            "type": "t_uint256"
          }
        ],
        "numberOfBytes": "160"
      },
      "t_struct(TokenId)37687_storage": {
        "encoding": "inplace",
        "label": "struct TokenId",
        "members": [
          {
            "astId": 37684,
            "contract": "contracts/core/connext/facets/TokenFacet.sol:TokenFacet",
            "label": "domain",
            "offset": 0,
            "slot": "0",
            "type": "t_uint32"
          },
          {
            "astId": 37686,
            "contract": "contracts/core/connext/facets/TokenFacet.sol:TokenFacet",
            "label": "id",
            "offset": 0,
            "slot": "1",
            "type": "t_bytes32"
          }
        ],
        "numberOfBytes": "64"
      },
      "t_uint256": {
        "encoding": "inplace",
        "label": "uint256",
        "numberOfBytes": "32"
      },
      "t_uint32": {
        "encoding": "inplace",
        "label": "uint32",
        "numberOfBytes": "4"
      },
      "t_uint8": {
        "encoding": "inplace",
        "label": "uint8",
        "numberOfBytes": "1"
      }
    }
  }
}