{
  "address": "0xcE5E0D6870594F4923322D1771CF9606C2f1dB7e",
  "abi": [
    {
      "inputs": [
        {
          "internalType": "uint256",
          "name": "_chainId",
          "type": "uint256"
        }
      ],
      "stateMutability": "nonpayable",
      "type": "constructor"
    },
    {
      "anonymous": false,
      "inputs": [
        {
          "indexed": true,
          "internalType": "address",
          "name": "addedAssetId",
          "type": "address"
        },
        {
          "indexed": true,
          "internalType": "address",
          "name": "caller",
          "type": "address"
        }
      ],
      "name": "AssetAdded",
      "type": "event"
    },
    {
      "anonymous": false,
      "inputs": [
        {
          "indexed": true,
          "internalType": "address",
          "name": "removedAssetId",
          "type": "address"
        },
        {
          "indexed": true,
          "internalType": "address",
          "name": "caller",
          "type": "address"
        }
      ],
      "name": "AssetRemoved",
      "type": "event"
    },
    {
      "anonymous": false,
      "inputs": [
        {
          "indexed": true,
          "internalType": "address",
          "name": "router",
          "type": "address"
        },
        {
          "indexed": true,
          "internalType": "address",
          "name": "assetId",
          "type": "address"
        },
        {
          "indexed": false,
          "internalType": "uint256",
          "name": "amount",
          "type": "uint256"
        },
        {
          "indexed": false,
          "internalType": "address",
          "name": "caller",
          "type": "address"
        }
      ],
      "name": "LiquidityAdded",
      "type": "event"
    },
    {
      "anonymous": false,
      "inputs": [
        {
          "indexed": true,
          "internalType": "address",
          "name": "router",
          "type": "address"
        },
        {
          "indexed": true,
          "internalType": "address",
          "name": "assetId",
          "type": "address"
        },
        {
          "indexed": false,
          "internalType": "uint256",
          "name": "amount",
          "type": "uint256"
        },
        {
          "indexed": false,
          "internalType": "address",
          "name": "recipient",
          "type": "address"
        }
      ],
      "name": "LiquidityRemoved",
      "type": "event"
    },
    {
      "anonymous": false,
      "inputs": [
        {
          "indexed": true,
          "internalType": "address",
          "name": "proposedOwner",
          "type": "address"
        }
      ],
      "name": "OwnershipProposed",
      "type": "event"
    },
    {
      "anonymous": false,
      "inputs": [
        {
          "indexed": true,
          "internalType": "address",
          "name": "previousOwner",
          "type": "address"
        },
        {
          "indexed": true,
          "internalType": "address",
          "name": "newOwner",
          "type": "address"
        }
      ],
      "name": "OwnershipTransferred",
      "type": "event"
    },
    {
      "anonymous": false,
      "inputs": [
        {
          "indexed": true,
          "internalType": "address",
          "name": "addedRouter",
          "type": "address"
        },
        {
          "indexed": true,
          "internalType": "address",
          "name": "caller",
          "type": "address"
        }
      ],
      "name": "RouterAdded",
      "type": "event"
    },
    {
      "anonymous": false,
      "inputs": [
        {
          "indexed": true,
          "internalType": "address",
          "name": "removedRouter",
          "type": "address"
        },
        {
          "indexed": true,
          "internalType": "address",
          "name": "caller",
          "type": "address"
        }
      ],
      "name": "RouterRemoved",
      "type": "event"
    },
    {
      "anonymous": false,
      "inputs": [
        {
          "indexed": true,
          "internalType": "address",
          "name": "user",
          "type": "address"
        },
        {
          "indexed": true,
          "internalType": "address",
          "name": "router",
          "type": "address"
        },
        {
          "indexed": true,
          "internalType": "bytes32",
          "name": "transactionId",
          "type": "bytes32"
        },
        {
          "components": [
            {
              "internalType": "address",
              "name": "user",
              "type": "address"
            },
            {
              "internalType": "address",
              "name": "router",
              "type": "address"
            },
            {
              "internalType": "address",
              "name": "sendingAssetId",
              "type": "address"
            },
            {
              "internalType": "address",
              "name": "receivingAssetId",
              "type": "address"
            },
            {
              "internalType": "address",
              "name": "sendingChainFallback",
              "type": "address"
            },
            {
              "internalType": "address",
              "name": "receivingAddress",
              "type": "address"
            },
            {
              "internalType": "address",
              "name": "callTo",
              "type": "address"
            },
            {
              "internalType": "bytes32",
              "name": "callDataHash",
              "type": "bytes32"
            },
            {
              "internalType": "bytes32",
              "name": "transactionId",
              "type": "bytes32"
            },
            {
              "internalType": "uint256",
              "name": "sendingChainId",
              "type": "uint256"
            },
            {
              "internalType": "uint256",
              "name": "receivingChainId",
              "type": "uint256"
            },
            {
              "internalType": "uint256",
              "name": "amount",
              "type": "uint256"
            },
            {
              "internalType": "uint256",
              "name": "expiry",
              "type": "uint256"
            },
            {
              "internalType": "uint256",
              "name": "preparedBlockNumber",
              "type": "uint256"
            }
          ],
          "indexed": false,
          "internalType": "struct ITransactionManager.TransactionData",
          "name": "txData",
          "type": "tuple"
        },
        {
          "indexed": false,
          "internalType": "uint256",
          "name": "relayerFee",
          "type": "uint256"
        },
        {
          "indexed": false,
          "internalType": "address",
          "name": "caller",
          "type": "address"
        }
      ],
      "name": "TransactionCancelled",
      "type": "event"
    },
    {
      "anonymous": false,
      "inputs": [
        {
          "indexed": true,
          "internalType": "address",
          "name": "user",
          "type": "address"
        },
        {
          "indexed": true,
          "internalType": "address",
          "name": "router",
          "type": "address"
        },
        {
          "indexed": true,
          "internalType": "bytes32",
          "name": "transactionId",
          "type": "bytes32"
        },
        {
          "components": [
            {
              "internalType": "address",
              "name": "user",
              "type": "address"
            },
            {
              "internalType": "address",
              "name": "router",
              "type": "address"
            },
            {
              "internalType": "address",
              "name": "sendingAssetId",
              "type": "address"
            },
            {
              "internalType": "address",
              "name": "receivingAssetId",
              "type": "address"
            },
            {
              "internalType": "address",
              "name": "sendingChainFallback",
              "type": "address"
            },
            {
              "internalType": "address",
              "name": "receivingAddress",
              "type": "address"
            },
            {
              "internalType": "address",
              "name": "callTo",
              "type": "address"
            },
            {
              "internalType": "bytes32",
              "name": "callDataHash",
              "type": "bytes32"
            },
            {
              "internalType": "bytes32",
              "name": "transactionId",
              "type": "bytes32"
            },
            {
              "internalType": "uint256",
              "name": "sendingChainId",
              "type": "uint256"
            },
            {
              "internalType": "uint256",
              "name": "receivingChainId",
              "type": "uint256"
            },
            {
              "internalType": "uint256",
              "name": "amount",
              "type": "uint256"
            },
            {
              "internalType": "uint256",
              "name": "expiry",
              "type": "uint256"
            },
            {
              "internalType": "uint256",
              "name": "preparedBlockNumber",
              "type": "uint256"
            }
          ],
          "indexed": false,
          "internalType": "struct ITransactionManager.TransactionData",
          "name": "txData",
          "type": "tuple"
        },
        {
          "indexed": false,
          "internalType": "uint256",
          "name": "relayerFee",
          "type": "uint256"
        },
        {
          "indexed": false,
          "internalType": "bytes",
          "name": "signature",
          "type": "bytes"
        },
        {
          "indexed": false,
          "internalType": "bytes",
          "name": "callData",
          "type": "bytes"
        },
        {
          "indexed": false,
          "internalType": "address",
          "name": "caller",
          "type": "address"
        }
      ],
      "name": "TransactionFulfilled",
      "type": "event"
    },
    {
      "anonymous": false,
      "inputs": [
        {
          "indexed": true,
          "internalType": "address",
          "name": "user",
          "type": "address"
        },
        {
          "indexed": true,
          "internalType": "address",
          "name": "router",
          "type": "address"
        },
        {
          "indexed": true,
          "internalType": "bytes32",
          "name": "transactionId",
          "type": "bytes32"
        },
        {
          "components": [
            {
              "internalType": "address",
              "name": "user",
              "type": "address"
            },
            {
              "internalType": "address",
              "name": "router",
              "type": "address"
            },
            {
              "internalType": "address",
              "name": "sendingAssetId",
              "type": "address"
            },
            {
              "internalType": "address",
              "name": "receivingAssetId",
              "type": "address"
            },
            {
              "internalType": "address",
              "name": "sendingChainFallback",
              "type": "address"
            },
            {
              "internalType": "address",
              "name": "receivingAddress",
              "type": "address"
            },
            {
              "internalType": "address",
              "name": "callTo",
              "type": "address"
            },
            {
              "internalType": "bytes32",
              "name": "callDataHash",
              "type": "bytes32"
            },
            {
              "internalType": "bytes32",
              "name": "transactionId",
              "type": "bytes32"
            },
            {
              "internalType": "uint256",
              "name": "sendingChainId",
              "type": "uint256"
            },
            {
              "internalType": "uint256",
              "name": "receivingChainId",
              "type": "uint256"
            },
            {
              "internalType": "uint256",
              "name": "amount",
              "type": "uint256"
            },
            {
              "internalType": "uint256",
              "name": "expiry",
              "type": "uint256"
            },
            {
              "internalType": "uint256",
              "name": "preparedBlockNumber",
              "type": "uint256"
            }
          ],
          "indexed": false,
          "internalType": "struct ITransactionManager.TransactionData",
          "name": "txData",
          "type": "tuple"
        },
        {
          "indexed": false,
          "internalType": "address",
          "name": "caller",
          "type": "address"
        },
        {
          "indexed": false,
          "internalType": "bytes",
          "name": "encryptedCallData",
          "type": "bytes"
        },
        {
          "indexed": false,
          "internalType": "bytes",
          "name": "encodedBid",
          "type": "bytes"
        },
        {
          "indexed": false,
          "internalType": "bytes",
          "name": "bidSignature",
          "type": "bytes"
        }
      ],
      "name": "TransactionPrepared",
      "type": "event"
    },
    {
      "inputs": [],
      "name": "MAX_TIMEOUT",
      "outputs": [
        {
          "internalType": "uint256",
          "name": "",
          "type": "uint256"
        }
      ],
      "stateMutability": "view",
      "type": "function"
    },
    {
      "inputs": [],
      "name": "MIN_TIMEOUT",
      "outputs": [
        {
          "internalType": "uint256",
          "name": "",
          "type": "uint256"
        }
      ],
      "stateMutability": "view",
      "type": "function"
    },
    {
      "inputs": [],
      "name": "acceptProposedOwner",
      "outputs": [],
      "stateMutability": "nonpayable",
      "type": "function"
    },
    {
      "inputs": [
        {
          "internalType": "address",
          "name": "assetId",
          "type": "address"
        }
      ],
      "name": "addAssetId",
      "outputs": [],
      "stateMutability": "nonpayable",
      "type": "function"
    },
    {
      "inputs": [
        {
          "internalType": "uint256",
          "name": "amount",
          "type": "uint256"
        },
        {
          "internalType": "address",
          "name": "assetId",
          "type": "address"
        },
        {
          "internalType": "address",
          "name": "router",
          "type": "address"
        }
      ],
      "name": "addLiquidity",
      "outputs": [],
      "stateMutability": "payable",
      "type": "function"
    },
    {
      "inputs": [
        {
          "internalType": "address",
          "name": "router",
          "type": "address"
        }
      ],
      "name": "addRouter",
      "outputs": [],
      "stateMutability": "nonpayable",
      "type": "function"
    },
    {
      "inputs": [
        {
          "internalType": "address",
          "name": "",
          "type": "address"
        }
      ],
      "name": "approvedAssets",
      "outputs": [
        {
          "internalType": "bool",
          "name": "",
          "type": "bool"
        }
      ],
      "stateMutability": "view",
      "type": "function"
    },
    {
      "inputs": [
        {
          "internalType": "address",
          "name": "",
          "type": "address"
        }
      ],
      "name": "approvedRouters",
      "outputs": [
        {
          "internalType": "bool",
          "name": "",
          "type": "bool"
        }
      ],
      "stateMutability": "view",
      "type": "function"
    },
    {
      "inputs": [
        {
          "components": [
            {
              "internalType": "address",
              "name": "user",
              "type": "address"
            },
            {
              "internalType": "address",
              "name": "router",
              "type": "address"
            },
            {
              "internalType": "address",
              "name": "sendingAssetId",
              "type": "address"
            },
            {
              "internalType": "address",
              "name": "receivingAssetId",
              "type": "address"
            },
            {
              "internalType": "address",
              "name": "sendingChainFallback",
              "type": "address"
            },
            {
              "internalType": "address",
              "name": "receivingAddress",
              "type": "address"
            },
            {
              "internalType": "address",
              "name": "callTo",
              "type": "address"
            },
            {
              "internalType": "bytes32",
              "name": "callDataHash",
              "type": "bytes32"
            },
            {
              "internalType": "bytes32",
              "name": "transactionId",
              "type": "bytes32"
            },
            {
              "internalType": "uint256",
              "name": "sendingChainId",
              "type": "uint256"
            },
            {
              "internalType": "uint256",
              "name": "receivingChainId",
              "type": "uint256"
            },
            {
              "internalType": "uint256",
              "name": "amount",
              "type": "uint256"
            },
            {
              "internalType": "uint256",
              "name": "expiry",
              "type": "uint256"
            },
            {
              "internalType": "uint256",
              "name": "preparedBlockNumber",
              "type": "uint256"
            }
          ],
          "internalType": "struct ITransactionManager.TransactionData",
          "name": "txData",
          "type": "tuple"
        },
        {
          "internalType": "uint256",
          "name": "relayerFee",
          "type": "uint256"
        },
        {
          "internalType": "bytes",
          "name": "signature",
          "type": "bytes"
        }
      ],
      "name": "cancel",
      "outputs": [
        {
          "components": [
            {
              "internalType": "address",
              "name": "user",
              "type": "address"
            },
            {
              "internalType": "address",
              "name": "router",
              "type": "address"
            },
            {
              "internalType": "address",
              "name": "sendingAssetId",
              "type": "address"
            },
            {
              "internalType": "address",
              "name": "receivingAssetId",
              "type": "address"
            },
            {
              "internalType": "address",
              "name": "sendingChainFallback",
              "type": "address"
            },
            {
              "internalType": "address",
              "name": "receivingAddress",
              "type": "address"
            },
            {
              "internalType": "address",
              "name": "callTo",
              "type": "address"
            },
            {
              "internalType": "bytes32",
              "name": "callDataHash",
              "type": "bytes32"
            },
            {
              "internalType": "bytes32",
              "name": "transactionId",
              "type": "bytes32"
            },
            {
              "internalType": "uint256",
              "name": "sendingChainId",
              "type": "uint256"
            },
            {
              "internalType": "uint256",
              "name": "receivingChainId",
              "type": "uint256"
            },
            {
              "internalType": "uint256",
              "name": "amount",
              "type": "uint256"
            },
            {
              "internalType": "uint256",
              "name": "expiry",
              "type": "uint256"
            },
            {
              "internalType": "uint256",
              "name": "preparedBlockNumber",
              "type": "uint256"
            }
          ],
          "internalType": "struct ITransactionManager.TransactionData",
          "name": "",
          "type": "tuple"
        }
      ],
      "stateMutability": "nonpayable",
      "type": "function"
    },
    {
      "inputs": [],
      "name": "chainId",
      "outputs": [
        {
          "internalType": "uint256",
          "name": "",
          "type": "uint256"
        }
      ],
      "stateMutability": "view",
      "type": "function"
    },
    {
      "inputs": [],
      "name": "delay",
      "outputs": [
        {
          "internalType": "uint256",
          "name": "",
          "type": "uint256"
        }
      ],
      "stateMutability": "view",
      "type": "function"
    },
    {
      "inputs": [
        {
          "components": [
            {
              "internalType": "address",
              "name": "user",
              "type": "address"
            },
            {
              "internalType": "address",
              "name": "router",
              "type": "address"
            },
            {
              "internalType": "address",
              "name": "sendingAssetId",
              "type": "address"
            },
            {
              "internalType": "address",
              "name": "receivingAssetId",
              "type": "address"
            },
            {
              "internalType": "address",
              "name": "sendingChainFallback",
              "type": "address"
            },
            {
              "internalType": "address",
              "name": "receivingAddress",
              "type": "address"
            },
            {
              "internalType": "address",
              "name": "callTo",
              "type": "address"
            },
            {
              "internalType": "bytes32",
              "name": "callDataHash",
              "type": "bytes32"
            },
            {
              "internalType": "bytes32",
              "name": "transactionId",
              "type": "bytes32"
            },
            {
              "internalType": "uint256",
              "name": "sendingChainId",
              "type": "uint256"
            },
            {
              "internalType": "uint256",
              "name": "receivingChainId",
              "type": "uint256"
            },
            {
              "internalType": "uint256",
              "name": "amount",
              "type": "uint256"
            },
            {
              "internalType": "uint256",
              "name": "expiry",
              "type": "uint256"
            },
            {
              "internalType": "uint256",
              "name": "preparedBlockNumber",
              "type": "uint256"
            }
          ],
          "internalType": "struct ITransactionManager.TransactionData",
          "name": "txData",
          "type": "tuple"
        },
        {
          "internalType": "uint256",
          "name": "relayerFee",
          "type": "uint256"
        },
        {
          "internalType": "bytes",
          "name": "signature",
          "type": "bytes"
        },
        {
          "internalType": "bytes",
          "name": "callData",
          "type": "bytes"
        }
      ],
      "name": "fulfill",
      "outputs": [
        {
          "components": [
            {
              "internalType": "address",
              "name": "user",
              "type": "address"
            },
            {
              "internalType": "address",
              "name": "router",
              "type": "address"
            },
            {
              "internalType": "address",
              "name": "sendingAssetId",
              "type": "address"
            },
            {
              "internalType": "address",
              "name": "receivingAssetId",
              "type": "address"
            },
            {
              "internalType": "address",
              "name": "sendingChainFallback",
              "type": "address"
            },
            {
              "internalType": "address",
              "name": "receivingAddress",
              "type": "address"
            },
            {
              "internalType": "address",
              "name": "callTo",
              "type": "address"
            },
            {
              "internalType": "bytes32",
              "name": "callDataHash",
              "type": "bytes32"
            },
            {
              "internalType": "bytes32",
              "name": "transactionId",
              "type": "bytes32"
            },
            {
              "internalType": "uint256",
              "name": "sendingChainId",
              "type": "uint256"
            },
            {
              "internalType": "uint256",
              "name": "receivingChainId",
              "type": "uint256"
            },
            {
              "internalType": "uint256",
              "name": "amount",
              "type": "uint256"
            },
            {
              "internalType": "uint256",
              "name": "expiry",
              "type": "uint256"
            },
            {
              "internalType": "uint256",
              "name": "preparedBlockNumber",
              "type": "uint256"
            }
          ],
          "internalType": "struct ITransactionManager.TransactionData",
          "name": "",
          "type": "tuple"
        }
      ],
      "stateMutability": "nonpayable",
      "type": "function"
    },
    {
      "inputs": [],
      "name": "interpreter",
      "outputs": [
        {
          "internalType": "contract IFulfillInterpreter",
          "name": "",
          "type": "address"
        }
      ],
      "stateMutability": "view",
      "type": "function"
    },
    {
      "inputs": [],
      "name": "owner",
      "outputs": [
        {
          "internalType": "address",
          "name": "",
          "type": "address"
        }
      ],
      "stateMutability": "view",
      "type": "function"
    },
    {
      "inputs": [
        {
          "components": [
            {
              "internalType": "address",
              "name": "user",
              "type": "address"
            },
            {
              "internalType": "address",
              "name": "router",
              "type": "address"
            },
            {
              "internalType": "address",
              "name": "sendingAssetId",
              "type": "address"
            },
            {
              "internalType": "address",
              "name": "receivingAssetId",
              "type": "address"
            },
            {
              "internalType": "address",
              "name": "sendingChainFallback",
              "type": "address"
            },
            {
              "internalType": "address",
              "name": "receivingAddress",
              "type": "address"
            },
            {
              "internalType": "address",
              "name": "callTo",
              "type": "address"
            },
            {
              "internalType": "uint256",
              "name": "sendingChainId",
              "type": "uint256"
            },
            {
              "internalType": "uint256",
              "name": "receivingChainId",
              "type": "uint256"
            },
            {
              "internalType": "bytes32",
              "name": "callDataHash",
              "type": "bytes32"
            },
            {
              "internalType": "bytes32",
              "name": "transactionId",
              "type": "bytes32"
            }
          ],
          "internalType": "struct ITransactionManager.InvariantTransactionData",
          "name": "invariantData",
          "type": "tuple"
        },
        {
          "internalType": "uint256",
          "name": "amount",
          "type": "uint256"
        },
        {
          "internalType": "uint256",
          "name": "expiry",
          "type": "uint256"
        },
        {
          "internalType": "bytes",
          "name": "encryptedCallData",
          "type": "bytes"
        },
        {
          "internalType": "bytes",
          "name": "encodedBid",
          "type": "bytes"
        },
        {
          "internalType": "bytes",
          "name": "bidSignature",
          "type": "bytes"
        }
      ],
      "name": "prepare",
      "outputs": [
        {
          "components": [
            {
              "internalType": "address",
              "name": "user",
              "type": "address"
            },
            {
              "internalType": "address",
              "name": "router",
              "type": "address"
            },
            {
              "internalType": "address",
              "name": "sendingAssetId",
              "type": "address"
            },
            {
              "internalType": "address",
              "name": "receivingAssetId",
              "type": "address"
            },
            {
              "internalType": "address",
              "name": "sendingChainFallback",
              "type": "address"
            },
            {
              "internalType": "address",
              "name": "receivingAddress",
              "type": "address"
            },
            {
              "internalType": "address",
              "name": "callTo",
              "type": "address"
            },
            {
              "internalType": "bytes32",
              "name": "callDataHash",
              "type": "bytes32"
            },
            {
              "internalType": "bytes32",
              "name": "transactionId",
              "type": "bytes32"
            },
            {
              "internalType": "uint256",
              "name": "sendingChainId",
              "type": "uint256"
            },
            {
              "internalType": "uint256",
              "name": "receivingChainId",
              "type": "uint256"
            },
            {
              "internalType": "uint256",
              "name": "amount",
              "type": "uint256"
            },
            {
              "internalType": "uint256",
              "name": "expiry",
              "type": "uint256"
            },
            {
              "internalType": "uint256",
              "name": "preparedBlockNumber",
              "type": "uint256"
            }
          ],
          "internalType": "struct ITransactionManager.TransactionData",
          "name": "",
          "type": "tuple"
        }
      ],
      "stateMutability": "payable",
      "type": "function"
    },
    {
      "inputs": [
        {
          "internalType": "address",
          "name": "newlyProposed",
          "type": "address"
        }
      ],
      "name": "proposeNewOwner",
      "outputs": [],
      "stateMutability": "nonpayable",
      "type": "function"
    },
    {
      "inputs": [],
      "name": "proposed",
      "outputs": [
        {
          "internalType": "address",
          "name": "",
          "type": "address"
        }
      ],
      "stateMutability": "view",
      "type": "function"
    },
    {
      "inputs": [],
      "name": "proposedTimestamp",
      "outputs": [
        {
          "internalType": "uint256",
          "name": "",
          "type": "uint256"
        }
      ],
      "stateMutability": "view",
      "type": "function"
    },
    {
      "inputs": [
        {
          "internalType": "address",
          "name": "assetId",
          "type": "address"
        }
      ],
      "name": "removeAssetId",
      "outputs": [],
      "stateMutability": "nonpayable",
      "type": "function"
    },
    {
      "inputs": [
        {
          "internalType": "uint256",
          "name": "amount",
          "type": "uint256"
        },
        {
          "internalType": "address",
          "name": "assetId",
          "type": "address"
        },
        {
          "internalType": "address payable",
          "name": "recipient",
          "type": "address"
        }
      ],
      "name": "removeLiquidity",
      "outputs": [],
      "stateMutability": "nonpayable",
      "type": "function"
    },
    {
      "inputs": [
        {
          "internalType": "address",
          "name": "router",
          "type": "address"
        }
      ],
      "name": "removeRouter",
      "outputs": [],
      "stateMutability": "nonpayable",
      "type": "function"
    },
    {
      "inputs": [],
      "name": "renounced",
      "outputs": [
        {
          "internalType": "bool",
          "name": "",
          "type": "bool"
        }
      ],
      "stateMutability": "view",
      "type": "function"
    },
    {
      "inputs": [
        {
          "internalType": "address",
          "name": "",
          "type": "address"
        },
        {
          "internalType": "address",
          "name": "",
          "type": "address"
        }
      ],
      "name": "routerBalances",
      "outputs": [
        {
          "internalType": "uint256",
          "name": "",
          "type": "uint256"
        }
      ],
      "stateMutability": "view",
      "type": "function"
    },
    {
      "inputs": [
        {
          "internalType": "bytes32",
          "name": "",
          "type": "bytes32"
        }
      ],
      "name": "variantTransactionData",
      "outputs": [
        {
          "internalType": "bytes32",
          "name": "",
          "type": "bytes32"
        }
      ],
      "stateMutability": "view",
      "type": "function"
    }
  ],
  "transactionHash": "0x3f7e03ddc0e131f2f3ecb4c00d349a5674372b6e5e3fba3a536e6badefb3f550",
  "args": [
    "97"
  ],
  "solcInputHash": "8c0a6f913d9be5eaa57609c392918b46",
  "bytecode": "0x60c06040523480156200001157600080fd5b5060405162004296380380620042968339810160408190526200003491620000fe565b600160005562000044336200009e565b608081905260405130906200005990620000f0565b6001600160a01b039091168152602001604051809103906000f08015801562000086573d6000803e3d6000fd5b5060601b6001600160601b03191660a0525062000117565b600180546001600160a01b038381166001600160a01b0319831681179093556040519116919082907f8be0079c531659141344cd1fd0a4f28419497f9722a3daafe3b4186f6b6457e090600090a35050565b610b10806200378683390190565b60006020828403121562000110578081fd5b5051919050565b60805160a05160601c61361562000171600039600081816101da01528181610a2c0152610a530152600081816103980152818161085b0152818161129f01528181611a3c01528181611a690152611bc201526136156000f3fe60806040526004361061014b5760003560e01c80638da5cb5b116100b6578063c5b350df1161006f578063c5b350df1461041a578063d1851c921461042f578063d232c2201461044d578063de38eb3a14610462578063f31abcc414610479578063fd32af2f1461049957600080fd5b80638da5cb5b1461033857806397eb0088146103565780639a8a059214610386578063b1d2618d146103ba578063b1f8100d146103da578063b4238e84146103fa57600080fd5b8063445b1e4b11610108578063445b1e4b1461026b5780634910630a146102ab578063543ad1df146102be5780635e679856146102d55780636a42b8f8146103025780636ae0b1541461031857600080fd5b806324ca984e146101505780632893a6121461017257806334e9393c146101a85780633a35cf17146101c85780633cf52ffb1461021457806341258b5c14610233575b600080fd5b34801561015c57600080fd5b5061017061016b366004612bc0565b6104ac565b005b34801561017e57600080fd5b5061019261018d366004612d70565b6105cf565b60405161019f91906134a3565b60405180910390f35b3480156101b457600080fd5b506101706101c3366004612bc0565b610bc0565b3480156101d457600080fd5b506101fc7f000000000000000000000000000000000000000000000000000000000000000081565b6040516001600160a01b03909116815260200161019f565b34801561022057600080fd5b506003545b60405190815260200161019f565b34801561023f57600080fd5b5061022561024e366004612bdc565b600460209081526000928352604080842090915290825290205481565b34801561027757600080fd5b5061029b610286366004612bc0565b60056020526000908152604090205460ff1681565b604051901515815260200161019f565b6101706102b9366004612edc565b610c9a565b3480156102ca57600080fd5b506102256201518081565b3480156102e157600080fd5b506102256102f0366004612c34565b60076020526000908152604090205481565b34801561030e57600080fd5b5062093a80610225565b34801561032457600080fd5b50610170610333366004612bc0565b610eef565b34801561034457600080fd5b506001546001600160a01b03166101fc565b34801561036257600080fd5b5061029b610371366004612bc0565b60066020526000908152604090205460ff1681565b34801561039257600080fd5b506102257f000000000000000000000000000000000000000000000000000000000000000081565b3480156103c657600080fd5b506101706103d5366004612bc0565b61100a565b3480156103e657600080fd5b506101706103f5366004612bc0565b6110e5565b34801561040657600080fd5b50610192610415366004612d14565b61112a565b34801561042657600080fd5b50610170611624565b34801561043b57600080fd5b506002546001600160a01b03166101fc565b34801561045957600080fd5b5061029b6116be565b34801561046e57600080fd5b5061022562278d0081565b34801561048557600080fd5b50610170610494366004612edc565b6116e2565b6101926104a7366004612c4c565b611831565b336104bf6001546001600160a01b031690565b6001600160a01b0316146104ee5760405162461bcd60e51b81526004016104e5906131ff565b60405180910390fd5b6001600160a01b03811661052e5760405162461bcd60e51b81526020600482015260076024820152662341523a30303160c81b60448201526064016104e5565b6001600160a01b03811660009081526005602052604090205460ff16156105815760405162461bcd60e51b815260206004820152600760248201526611a0a91d18199960c91b60448201526064016104e5565b6001600160a01b038116600081815260056020526040808220805460ff19166001179055513392917fbc68405e644da2aaf25623ce2199da82c6dfd2e1de102b400eba6a091704d4f491a350565b6105d7612add565b6002600054141561062a5760405162461bcd60e51b815260206004820152601f60248201527f5265656e7472616e637947756172643a207265656e7472616e742063616c6c0060448201526064016104e5565b6002600090815561063a886121ae565b90506106568861016001358961018001358a6101a001356122ec565b6000828152600760205260409020541461069b5760405162461bcd60e51b815260206004820152600660248201526523463a30313960d01b60448201526064016104e5565b4288610180013510156106d95760405162461bcd60e51b8152602060048201526006602482015265023463a3032360d41b60448201526064016104e5565b6000886101a00135116107175760405162461bcd60e51b815260206004820152600660248201526523463a30323160d01b60448201526064016104e5565b6107246020890189612bc0565b6001600160a01b031661075e8961010001358960405180604001604052806007815260200166199d5b199a5b1b60ca1b8152508a8a61233a565b6001600160a01b03161461079d5760405162461bcd60e51b815260206004820152600660248201526511a31d18191960d11b60448201526064016104e5565b8761016001358711156107db5760405162461bcd60e51b815260206004820152600660248201526523463a30323360d01b60448201526064016104e5565b8760e0013584846040516107f0929190613171565b60405180910390201461082e5760405162461bcd60e51b815260206004820152600660248201526508d18e8c0c8d60d21b60448201526064016104e5565b61084488610160013589610180013560006122ec565b6000828152600760205260409020556101208801357f00000000000000000000000000000000000000000000000000000000000000001415610962576108906040890160208a01612bc0565b6001600160a01b0316336001600160a01b0316146108d95760405162461bcd60e51b815260206004820152600660248201526511a31d18189b60d11b60448201526064016104e5565b610160880135600460006108f360408c0160208d01612bc0565b6001600160a01b03166001600160a01b0316815260200190815260200160002060008a60400160208101906109289190612bc0565b6001600160a01b03166001600160a01b0316815260200190815260200160002060008282546109579190613559565b90915550610b289050565b610160880135879003871561098b5761098b61098460808b0160608c01612bc0565b338a612418565b600061099d60e08b0160c08c01612bc0565b6001600160a01b031614156109e05780156109db576109db6109c560808b0160608c01612bc0565b6109d560c08c0160a08d01612bc0565b83612418565b610b26565b6000610a026109f560808c0160608d01612bc0565b6001600160a01b03161590565b905080158015610a125750600082115b15610a5157610a51610a2a60808c0160608d01612bc0565b7f000000000000000000000000000000000000000000000000000000000000000084612441565b7f00000000000000000000000000000000000000000000000000000000000000006001600160a01b031663cf9a360482610a8c576000610a8e565b835b8c61010001358d60c0016020810190610aa79190612bc0565b8e6060016020810190610aba9190612bc0565b8f60a0016020810190610acd9190612bc0565b888d8d6040518963ffffffff1660e01b8152600401610af2979695949392919061319d565b6000604051808303818588803b158015610b0b57600080fd5b505af1158015610b1f573d6000803e3d6000fd5b5050505050505b505b610100880135610b3e60408a0160208b01612bc0565b6001600160a01b0316610b5460208b018b612bc0565b6001600160a01b03167f61399d5a2a6b2505b4a43caf76fc59136a7d0c50b01c303f0aa1530289efe4f78b8b8b8b8b8b33604051610b989796959493929190613445565b60405180910390a4610baf36899003890189612dfc565b600160005598975050505050505050565b33610bd36001546001600160a01b031690565b6001600160a01b031614610bf95760405162461bcd60e51b81526004016104e5906131ff565b6001600160a01b03811660009081526006602052604090205460ff1615610c4c5760405162461bcd60e51b815260206004820152600760248201526611a0a09d18199960c91b60448201526064016104e5565b6001600160a01b038116600081815260066020526040808220805460ff19166001179055513392917f0bb5715f0f217c2fe9a0c877ea87d474380c641102f3440ee2a4c8b9d979091891a350565b6001600160a01b038116610cda5760405162461bcd60e51b815260206004820152600760248201526623414c3a30303160c81b60448201526064016104e5565b60008311610d145760405162461bcd60e51b815260206004820152600760248201526611a0a61d18181960c91b60448201526064016104e5565b6000610d1e6116be565b90508080610d4457506001600160a01b03821660009081526005602052604090205460ff165b610d7a5760405162461bcd60e51b815260206004820152600760248201526623414c3a30303360c81b60448201526064016104e5565b8080610d9e57506001600160a01b03831660009081526006602052604090205460ff165b610dd45760405162461bcd60e51b815260206004820152600760248201526608d0530e8c0c0d60ca1b60448201526064016104e5565b6001600160a01b03808316600090815260046020908152604080832093871683529290529081208054869290610e0b908490613559565b90915550506001600160a01b038316610e5c57833414610e575760405162461bcd60e51b815260206004820152600760248201526623414c3a30303560c81b60448201526064016104e5565b610ea0565b3415610e945760405162461bcd60e51b815260206004820152600760248201526611a0a61d18181b60c91b60448201526064016104e5565b610ea08333308761244c565b604080518581523360208201526001600160a01b0380861692908516917f4bd28ccd068c4853d24d35f727ef2a3fea11ce55e8d93461e45f785818e1e13991015b60405180910390a350505050565b33610f026001546001600160a01b031690565b6001600160a01b031614610f285760405162461bcd60e51b81526004016104e5906131ff565b6001600160a01b038116610f685760405162461bcd60e51b81526020600482015260076024820152662352523a30303160c81b60448201526064016104e5565b6001600160a01b03811660009081526005602052604090205460ff161515600114610fbf5760405162461bcd60e51b81526020600482015260076024820152662352523a30333360c81b60448201526064016104e5565b6001600160a01b038116600081815260056020526040808220805460ff19169055513392917fbee3e974bb6a6f44f20096ede047c191eef60322e65e4ee4bd3392230a8716d591a350565b3361101d6001546001600160a01b031690565b6001600160a01b0316146110435760405162461bcd60e51b81526004016104e5906131ff565b6001600160a01b03811660009081526006602052604090205460ff16151560011461109a5760405162461bcd60e51b81526020600482015260076024820152662352413a30333360c81b60448201526064016104e5565b6001600160a01b038116600081815260066020526040808220805460ff19169055513392917f0fa1e4606af435f32f05b3804033d2933e691fab32ee74d2db6fa82d2741f1ea91a350565b336110f86001546001600160a01b031690565b6001600160a01b03161461111e5760405162461bcd60e51b81526004016104e5906131ff565b6111278161245e565b50565b611132612add565b600260005414156111855760405162461bcd60e51b815260206004820152601f60248201527f5265656e7472616e637947756172643a207265656e7472616e742063616c6c0060448201526064016104e5565b60026000908155611195866121ae565b90506111b1866101600135876101800135886101a001356122ec565b600082815260076020526040902054146111f65760405162461bcd60e51b815260206004820152600660248201526523433a30313960d01b60448201526064016104e5565b6000866101a00135116112345760405162461bcd60e51b815260206004820152600660248201526523433a30323160d01b60448201526064016104e5565b8561016001358511156112725760405162461bcd60e51b815260206004820152600660248201526523433a30323360d01b60448201526064016104e5565b61128886610160013587610180013560006122ec565b6000828152600760205260409020556101208601357f0000000000000000000000000000000000000000000000000000000000000000141561146257428661018001351061135c576112e06040870160208801612bc0565b6001600160a01b0316336001600160a01b0316146113295760405162461bcd60e51b815260206004820152600660248201526523433a30323560d01b60448201526064016104e5565b61135761133c6060880160408901612bc0565b61134c60a0890160808a01612bc0565b886101600135612418565b611596565b84156114295761136f6020870187612bc0565b6001600160a01b0316336001600160a01b031614806113da57506113966020870187612bc0565b6001600160a01b03166113cf876101000135876040518060400160405280600681526020016518d85b98d95b60d21b815250888861233a565b6001600160a01b0316145b61140f5760405162461bcd60e51b815260206004820152600660248201526511a19d18191960d11b60448201526064016104e5565b6114296114226060880160408901612bc0565b3387612418565b61016086013585810390861461145c5761145c61144c6060890160408a01612bc0565b6109d560a08a0160808b01612bc0565b50611596565b428661018001351061151b5761147b6020870187612bc0565b6001600160a01b0316336001600160a01b031614806114e657506114a26020870187612bc0565b6001600160a01b03166114db876101000135876040518060400160405280600681526020016518d85b98d95b60d21b815250888861233a565b6001600160a01b0316145b61151b5760405162461bcd60e51b815260206004820152600660248201526511a19d18191960d11b60448201526064016104e5565b6101608601356004600061153560408a0160208b01612bc0565b6001600160a01b03168152602081019190915260400160009081209061156160808a0160608b01612bc0565b6001600160a01b03166001600160a01b0316815260200190815260200160002060008282546115909190613559565b90915550505b6101008601356115ac6040880160208901612bc0565b6001600160a01b03166115c26020890189612bc0565b6001600160a01b03167f5f57de32eb53b76955a73b53e195e3bd70ef42f0d1d9c64d82abefdc47cc37dc8989336040516115fe93929190613415565b60405180910390a461161536879003870187612dfc565b60016000559695505050505050565b336116376001546001600160a01b031690565b6001600160a01b03161461165d5760405162461bcd60e51b81526004016104e5906131ff565b62093a806003544261166f9190613571565b116116a75760405162461bcd60e51b815260206004820152600860248201526702341504f3a3033360c41b60448201526064016104e5565b6002546116bc906001600160a01b03166124ac565b565b6000806116d36001546001600160a01b031690565b6001600160a01b031614905090565b6001600160a01b0381166117225760405162461bcd60e51b815260206004820152600760248201526623524c3a30303760c81b60448201526064016104e5565b6000831161175c5760405162461bcd60e51b815260206004820152600760248201526611a9261d18181960c91b60448201526064016104e5565b3360009081526004602090815260408083206001600160a01b0386168452909152902054838110156117ba5760405162461bcd60e51b8152602060048201526007602482015266046a498746060760cb1b60448201526064016104e5565b3360009081526004602090815260408083206001600160a01b0387168452909152902084820390556117ed838386612418565b604080518581526001600160a01b03848116602083015285169133917f7da12116be8cb7af4b2d9e9b4a2ca2c3a3243ddd6fd3a94411902367b8eed5689101610ee1565b611839612add565b600061184860208c018c612bc0565b6001600160a01b031614156118885760405162461bcd60e51b815260206004820152600660248201526523503a30303960d01b60448201526064016104e5565b600061189a60408c0160208d01612bc0565b6001600160a01b031614156118da5760405162461bcd60e51b815260206004820152600660248201526523503a30303160d01b60448201526064016104e5565b60006118e46116be565b9050808061191f57506005600061190160408e0160208f01612bc0565b6001600160a01b0316815260208101919091526040016000205460ff165b6119545760405162461bcd60e51b815260206004820152600660248201526523503a30303360d01b60448201526064016104e5565b600061196660a08d0160808e01612bc0565b6001600160a01b031614156119a65760405162461bcd60e51b8152602060048201526006602482015265023503a3031360d41b60448201526064016104e5565b60006119b860c08d0160a08e01612bc0565b6001600160a01b031614156119f85760405162461bcd60e51b815260206004820152600660248201526511a81d18191b60d11b60448201526064016104e5565b8a61010001358b60e001351415611a3a5760405162461bcd60e51b815260206004820152600660248201526523503a30313160d01b60448201526064016104e5565b7f00000000000000000000000000000000000000000000000000000000000000008b60e001351480611a9057507f00000000000000000000000000000000000000000000000000000000000000008b6101000135145b611ac55760405162461bcd60e51b815260206004820152600660248201526511a81d18189960d11b60448201526064016104e5565b62015180611ad3428b613571565b1015611b0a5760405162461bcd60e51b815260206004820152600660248201526523503a30313360d01b60448201526064016104e5565b62278d00611b18428b613571565b1115611b4f5760405162461bcd60e51b815260206004820152600660248201526508d40e8c0c4d60d21b60448201526064016104e5565b60008b604051602001611b629190613220565b60408051601f1981840301815291815281516020928301206000818152600790935291205490915015611bc05760405162461bcd60e51b815260206004820152600660248201526523503a30313560d01b60448201526064016104e5565b7f00000000000000000000000000000000000000000000000000000000000000008c60e001351415611d5d5760008b11611c255760405162461bcd60e51b815260206004820152600660248201526511a81d18181960d11b60448201526064016104e5565b8180611c615750600660008d6040016020810190611c439190612bc0565b6001600160a01b0316815260208101919091526040016000205460ff165b611c965760405162461bcd60e51b815260206004820152600660248201526508d40e8c0c0d60d21b60448201526064016104e5565b611ca18b8b436122ec565b6000828152600760205260409081902091909155611cc9906109f59060608f01908f01612bc0565b15611d0b578a3414611d065760405162461bcd60e51b815260206004820152600660248201526523503a30303560d01b60448201526064016104e5565b612005565b3415611d425760405162461bcd60e51b815260206004820152600660248201526511a81d18181b60d11b60448201526064016104e5565b611d06611d5560608e0160408f01612bc0565b33308e61244c565b6000611d6f60e08e0160c08f01612bc0565b6001600160a01b03161480611d985750611d98611d9260e08e0160c08f01612bc0565b3b151590565b611dcd5760405162461bcd60e51b815260206004820152600660248201526523503a30333160d01b60448201526064016104e5565b8180611e095750600660008d6060016020810190611deb9190612bc0565b6001600160a01b0316815260208101919091526040016000205460ff165b611e3e5760405162461bcd60e51b815260206004820152600660248201526508d40e8c0c0d60d21b60448201526064016104e5565b611e4e60408d0160208e01612bc0565b6001600160a01b0316336001600160a01b031614611e975760405162461bcd60e51b815260206004820152600660248201526511a81d18189b60d11b60448201526064016104e5565b3415611ece5760405162461bcd60e51b815260206004820152600660248201526523503a30313760d01b60448201526064016104e5565b6000600460008e6020016020810190611ee79190612bc0565b6001600160a01b03166001600160a01b0316815260200190815260200160002060008e6060016020810190611f1c9190612bc0565b6001600160a01b03166001600160a01b031681526020019081526020016000205490508b811015611f785760405162461bcd60e51b8152602060048201526006602482015265046a0746062760d31b60448201526064016104e5565b611f838c8c436122ec565b60076000848152602001908152602001600020819055508b8103600460008f6020016020810190611fb49190612bc0565b6001600160a01b03166001600160a01b0316815260200190815260200160002060008f6060016020810190611fe99190612bc0565b6001600160a01b03168152602081019190915260400160002055505b6000604051806101c001604052808e60000160208101906120269190612bc0565b6001600160a01b031681526020018e60200160208101906120479190612bc0565b6001600160a01b031681526020018e60400160208101906120689190612bc0565b6001600160a01b031681526020018e60600160208101906120899190612bc0565b6001600160a01b031681526020018e60800160208101906120aa9190612bc0565b6001600160a01b031681526020018e60a00160208101906120cb9190612bc0565b6001600160a01b031681526020018e60c00160208101906120ec9190612bc0565b6001600160a01b031681526020018e610120013581526020018e610140013581526020018e60e0013581526020018e610100013581526020018d81526020018c815260200143815250905080610100015181602001516001600160a01b031682600001516001600160a01b03167f9a03967017bba72d6de8f56201584e10828c701f72d0da5705a5b42e73d875ab84338f8f8f8f8f8f6040516121969897969594939291906134b2565b60405180910390a49c9b505050505050505050505050565b6040805161016081019091526000908190806121cd6020860186612bc0565b6001600160a01b031681526020018460200160208101906121ee9190612bc0565b6001600160a01b0316815260200161220c6060860160408701612bc0565b6001600160a01b0316815260200161222a6080860160608701612bc0565b6001600160a01b0316815260200161224860a0860160808701612bc0565b6001600160a01b0316815260200161226660c0860160a08701612bc0565b6001600160a01b0316815260200161228460e0860160c08701612bc0565b6001600160a01b03168152602001846101200135815260200184610140013581526020018460e0013581526020018461010001358152509050806040516020016122ce9190613300565b60405160208183030381529060405280519060200120915050919050565b604080516060808201835285825260208083018681529284018581528451808301899052935184860152518383015283518084039092018252608090920190925281519101205b9392505050565b600080604051806060016040528088815260200187815260200186815250905061240d6123d18260405160200161237191906133e6565b60408051601f1981840301815282825280516020918201207f19457468657265756d205369676e6564204d6573736167653a0a33320000000084830152603c8085019190915282518085039091018152605c909301909152815191012090565b85858080601f0160208091040260200160405190810160405280939291908181526020018383808284376000920191909152506124fe92505050565b979650505050505050565b6001600160a01b0383161561243757612432838383612441565b505050565b61243282826125a8565b612432838383612635565b61245884848484612698565b50505050565b42600355600280546001600160a01b0319166001600160a01b0383169081179091556040517f6ab4d119f23076e8ad491bc65ce85f017fb0591dce08755ba8591059cc51737a90600090a250565b600180546001600160a01b038381166001600160a01b0319831681179093556040519116919082907f8be0079c531659141344cd1fd0a4f28419497f9722a3daafe3b4186f6b6457e090600090a35050565b60008151604114156125325760208201516040830151606084015160001a612528868285856126d0565b93505050506125a2565b81516040141561255a5760208201516040830151612551858383612879565b925050506125a2565b60405162461bcd60e51b815260206004820152601f60248201527f45434453413a20696e76616c6964207369676e6174757265206c656e6774680060448201526064016104e5565b92915050565b6000826001600160a01b03168260405160006040518083038185875af1925050503d80600081146125f5576040519150601f19603f3d011682016040523d82523d6000602084013e6125fa565b606091505b50509050806124325760405162461bcd60e51b8152602060048201526007602482015266046a88a746064760cb1b60448201526064016104e5565b6040516001600160a01b03831660248201526044810182905261243290849063a9059cbb60e01b906064015b60408051601f198184030181529190526020810180516001600160e01b03166001600160e01b0319909316929092179091526128a3565b6040516001600160a01b03808516602483015283166044820152606481018290526124589085906323b872dd60e01b90608401612661565b60007f7fffffffffffffffffffffffffffffff5d576e7357a4501ddfe92f46681b20a082111561274d5760405162461bcd60e51b815260206004820152602260248201527f45434453413a20696e76616c6964207369676e6174757265202773272076616c604482015261756560f01b60648201526084016104e5565b8360ff16601b148061276257508360ff16601c145b6127b95760405162461bcd60e51b815260206004820152602260248201527f45434453413a20696e76616c6964207369676e6174757265202776272076616c604482015261756560f01b60648201526084016104e5565b6040805160008082526020820180845288905260ff871692820192909252606081018590526080810184905260019060a0016020604051602081039080840390855afa15801561280d573d6000803e3d6000fd5b5050604051601f1901519150506001600160a01b0381166128705760405162461bcd60e51b815260206004820152601860248201527f45434453413a20696e76616c6964207369676e6174757265000000000000000060448201526064016104e5565b95945050505050565b60006001600160ff1b03821660ff83901c601b01612899868287856126d0565b9695505050505050565b60006128f8826040518060400160405280602081526020017f5361666545524332303a206c6f772d6c6576656c2063616c6c206661696c6564815250856001600160a01b03166129759092919063ffffffff16565b80519091501561243257808060200190518101906129169190612c14565b6124325760405162461bcd60e51b815260206004820152602a60248201527f5361666545524332303a204552433230206f7065726174696f6e20646964206e6044820152691bdd081cdd58d8d9595960b21b60648201526084016104e5565b6060612984848460008561298c565b949350505050565b6060824710156129ed5760405162461bcd60e51b815260206004820152602660248201527f416464726573733a20696e73756666696369656e742062616c616e636520666f6044820152651c8818d85b1b60d21b60648201526084016104e5565b843b612a3b5760405162461bcd60e51b815260206004820152601d60248201527f416464726573733a2063616c6c20746f206e6f6e2d636f6e747261637400000060448201526064016104e5565b600080866001600160a01b03168587604051612a579190613181565b60006040518083038185875af1925050503d8060008114612a94576040519150601f19603f3d011682016040523d82523d6000602084013e612a99565b606091505b509150915061240d82828660608315612ab3575081612333565b825115612ac35782518084602001fd5b8160405162461bcd60e51b81526004016104e591906131ec565b604080516101c081018252600080825260208201819052918101829052606081018290526080810182905260a0810182905260c0810182905260e08101829052610100810182905261012081018290526101408101829052610160810182905261018081018290526101a081019190915290565b8035612b5c816135ca565b919050565b60008083601f840112612b72578182fd5b50813567ffffffffffffffff811115612b89578182fd5b602083019150836020828501011115612ba157600080fd5b9250929050565b60006101c08284031215612bba578081fd5b50919050565b600060208284031215612bd1578081fd5b8135612333816135ca565b60008060408385031215612bee578081fd5b8235612bf9816135ca565b91506020830135612c09816135ca565b809150509250929050565b600060208284031215612c25578081fd5b81518015158114612333578182fd5b600060208284031215612c45578081fd5b5035919050565b6000806000806000806000806000898b03610200811215612c6b578586fd5b61016080821215612c7a578687fd5b8b9a508a013598505061018089013596506101a089013567ffffffffffffffff80821115612ca6578687fd5b612cb28d838e01612b61565b90985096506101c08c0135915080821115612ccb578586fd5b612cd78d838e01612b61565b90965094506101e08c0135915080821115612cf0578384fd5b50612cfd8c828d01612b61565b915080935050809150509295985092959850929598565b6000806000806102008587031215612d2a578384fd5b612d348686612ba8565b93506101c085013592506101e085013567ffffffffffffffff811115612d58578283fd5b612d6487828801612b61565b95989497509550505050565b6000806000806000806102208789031215612d89578182fd5b612d938888612ba8565b95506101c087013594506101e087013567ffffffffffffffff80821115612db8578384fd5b612dc48a838b01612b61565b9096509450610200890135915080821115612ddd578384fd5b50612dea89828a01612b61565b979a9699509497509295939492505050565b60006101c08284031215612e0e578081fd5b612e16613521565b612e1f83612b51565b8152612e2d60208401612b51565b6020820152612e3e60408401612b51565b6040820152612e4f60608401612b51565b6060820152612e6060808401612b51565b6080820152612e7160a08401612b51565b60a0820152612e8260c08401612b51565b60c082015260e08381013590820152610100808401359082015261012080840135908201526101408084013590820152610160808401359082015261018080840135908201526101a0928301359281019290925250919050565b600080600060608486031215612ef0578283fd5b833592506020840135612f02816135ca565b91506040840135612f12816135ca565b809150509250925092565b81835281816020850137506000828201602090810191909152601f909101601f19169091010190565b60008151808452612f5e816020860160208601613588565b601f01601f19169290920160200192915050565b612f8c82612f7f83612b51565b6001600160a01b03169052565b612f9860208201612b51565b6001600160a01b03166020830152612fb260408201612b51565b6001600160a01b03166040830152612fcc60608201612b51565b6001600160a01b03166060830152612fe660808201612b51565b6001600160a01b0316608083015261300060a08201612b51565b6001600160a01b031660a083015261301a60c08201612b51565b6001600160a01b031660c083015260e08181013590830152610100808201359083015261012080820135908301526101408082013590830152610160808201359083015261018080820135908301526101a090810135910152565b80516001600160a01b03168252602081015161309c60208401826001600160a01b03169052565b5060408101516130b760408401826001600160a01b03169052565b5060608101516130d260608401826001600160a01b03169052565b5060808101516130ed60808401826001600160a01b03169052565b5060a081015161310860a08401826001600160a01b03169052565b5060c081015161312360c08401826001600160a01b03169052565b5060e08181015190830152610100808201519083015261012080820151908301526101408082015190830152610160808201519083015261018080820151908301526101a090810151910152565b8183823760009101908152919050565b60008251613193818460208701613588565b9190910192915050565b8781526001600160a01b0387811660208301528681166040830152851660608201526080810184905260c060a082018190526000906131df9083018486612f1d565b9998505050505050505050565b6020815260006123336020830184612f46565b602080825260079082015266234f4f3a30323960c81b604082015260600190565b610160810161323282612f7f85612b51565b61323e60208401612b51565b6001600160a01b0316602083015261325860408401612b51565b6001600160a01b0316604083015261327260608401612b51565b6001600160a01b0316606083015261328c60808401612b51565b6001600160a01b031660808301526132a660a08401612b51565b6001600160a01b031660a08301526132c060c08401612b51565b6001600160a01b031660c083015260e083810135908301526101008084013590830152610120808401359083015261014092830135929091019190915290565b81516001600160a01b031681526101608101602083015161332c60208401826001600160a01b03169052565b50604083015161334760408401826001600160a01b03169052565b50606083015161336260608401826001600160a01b03169052565b50608083015161337d60808401826001600160a01b03169052565b5060a083015161339860a08401826001600160a01b03169052565b5060c08301516133b360c08401826001600160a01b03169052565b5060e083810151908301526101008084015190830152610120808401519083015261014092830151929091019190915290565b602081528151602082015260208201516040820152600060408301516060808401526129846080840182612f46565b61020081016134248286612f72565b6101c08201939093526001600160a01b03919091166101e090910152919050565b6000610240613454838b612f72565b886101c0840152806101e084015261346f818401888a612f1d565b9050828103610200840152613485818688612f1d565b91505060018060a01b03831661022083015298975050505050505050565b6101c081016125a28284613075565b60006102406134c1838c613075565b6001600160a01b038a166101c08401526101e083018190526134e6818401898b612f1d565b90508281036102008401526134fc818789612f1d565b9050828103610220840152613512818587612f1d565b9b9a5050505050505050505050565b6040516101c0810167ffffffffffffffff8111828210171561355357634e487b7160e01b600052604160045260246000fd5b60405290565b6000821982111561356c5761356c6135b4565b500190565b600082821015613583576135836135b4565b500390565b60005b838110156135a357818101518382015260200161358b565b838111156124585750506000910152565b634e487b7160e01b600052601160045260246000fd5b6001600160a01b038116811461112757600080fdfea26469706673582212205f2ca92b63dcfca33b6d46a9a834e79044d8bd828b40aaccf8f7be8ff7c8be6b64736f6c63430008040033608060405234801561001057600080fd5b50604051610b10380380610b1083398101604081905261002f91610059565b6001600081905580546001600160a01b0319166001600160a01b0392909216919091179055610087565b60006020828403121561006a578081fd5b81516001600160a01b0381168114610080578182fd5b9392505050565b610a7a806100966000396000f3fe6080604052600436106100295760003560e01c806396f32fb81461002e578063cf9a36041461005a575b600080fd5b34801561003a57600080fd5b50600154604080516001600160a01b039092168252519081900360200190f35b61006d610068366004610824565b61006f565b005b600260005414156100c75760405162461bcd60e51b815260206004820152601f60248201527f5265656e7472616e637947756172643a207265656e7472616e742063616c6c0060448201526064015b60405180910390fd5b60026000556001546001600160a01b031633146101115760405162461bcd60e51b8152602060048201526008602482015267234f544d3a30323760c01b60448201526064016100be565b6001600160a01b038516158061012c5761012c868886610215565b600080886001600160a01b031683610145576000610147565b865b8686604051610157929190610921565b60006040518083038185875af1925050503d8060008114610194576040519150601f19603f3d011682016040523d82523d6000602084013e610199565b606091505b5091509150816101be576101ae888888610265565b826101be576101be888a88610289565b897fbf49bd2de448d90a19e0510ab1030fead50ebfc64a4f112ca42535ae79fbab798a8a8a8a8a8a888a6040516101fc98979695949392919061094d565b60405180910390a2505060016000555050505050505050565b6001600160a01b0383166102555760405162461bcd60e51b815260206004820152600760248201526608d2504e8c0ccd60ca1b60448201526064016100be565b6102608383836102d4565b505050565b6001600160a01b0383161561027f576102608383836103ce565b61026082826103d9565b6001600160a01b0383166102c95760405162461bcd60e51b815260206004820152600760248201526608d1104e8c0ccd60ca1b60448201526064016100be565b610260838383610466565b604051636eb1769f60e11b81523060048201526001600160a01b038381166024830152600091839186169063dd62ed3e9060440160206040518083038186803b15801561032057600080fd5b505afa158015610334573d6000803e3d6000fd5b505050506040513d601f19601f8201168201806040525081019061035891906108dd565b61036291906109dc565b6040516001600160a01b0385166024820152604481018290529091506103c890859063095ea7b360e01b906064015b60408051601f198184030181529190526020810180516001600160e01b03166001600160e01b031990931692909217909152610588565b50505050565b61026083838361065a565b6000826001600160a01b03168260405160006040518083038185875af1925050503d8060008114610426576040519150601f19603f3d011682016040523d82523d6000602084013e61042b565b606091505b50509050806102605760405162461bcd60e51b8152602060048201526007602482015266046a88a746064760cb1b60448201526064016100be565b604051636eb1769f60e11b81523060048201526001600160a01b0383811660248301526000919085169063dd62ed3e9060440160206040518083038186803b1580156104b157600080fd5b505afa1580156104c5573d6000803e3d6000fd5b505050506040513d601f19601f820116820180604052508101906104e991906108dd565b90508181101561054d5760405162461bcd60e51b815260206004820152602960248201527f5361666545524332303a2064656372656173656420616c6c6f77616e63652062604482015268656c6f77207a65726f60b81b60648201526084016100be565b6040516001600160a01b0384166024820152828203604482018190529061058190869063095ea7b360e01b90606401610391565b5050505050565b60006105dd826040518060400160405280602081526020017f5361666545524332303a206c6f772d6c6576656c2063616c6c206661696c6564815250856001600160a01b031661068a9092919063ffffffff16565b80519091501561026057808060200190518101906105fb9190610804565b6102605760405162461bcd60e51b815260206004820152602a60248201527f5361666545524332303a204552433230206f7065726174696f6e20646964206e6044820152691bdd081cdd58d8d9595960b21b60648201526084016100be565b6040516001600160a01b03831660248201526044810182905261026090849063a9059cbb60e01b90606401610391565b606061069984846000856106a3565b90505b9392505050565b6060824710156107045760405162461bcd60e51b815260206004820152602660248201527f416464726573733a20696e73756666696369656e742062616c616e636520666f6044820152651c8818d85b1b60d21b60648201526084016100be565b843b6107525760405162461bcd60e51b815260206004820152601d60248201527f416464726573733a2063616c6c20746f206e6f6e2d636f6e747261637400000060448201526064016100be565b600080866001600160a01b0316858760405161076e9190610931565b60006040518083038185875af1925050503d80600081146107ab576040519150601f19603f3d011682016040523d82523d6000602084013e6107b0565b606091505b50915091506107c08282866107cb565b979650505050505050565b606083156107da57508161069c565b8251156107ea5782518084602001fd5b8160405162461bcd60e51b81526004016100be91906109c9565b600060208284031215610815578081fd5b8151801515811461069c578182fd5b600080600080600080600060c0888a03121561083e578283fd5b87359650602088013561085081610a2c565b9550604088013561086081610a2c565b9450606088013561087081610a2c565b93506080880135925060a088013567ffffffffffffffff80821115610893578384fd5b818a0191508a601f8301126108a6578384fd5b8135818111156108b4578485fd5b8b60208285010111156108c5578485fd5b60208301945080935050505092959891949750929550565b6000602082840312156108ee578081fd5b5051919050565b6000815180845261090d816020860160208601610a00565b601f01601f19169290920160200192915050565b8183823760009101908152919050565b60008251610943818460208701610a00565b9190910192915050565b6001600160a01b0389811682528881166020830152871660408201526060810186905260e0608082018190528101849052600061010085878285013781818785010152601f19601f8701168301818482030160a08501526109b0828201876108f5565b9250505082151560c08301529998505050505050505050565b60208152600061069c60208301846108f5565b600082198211156109fb57634e487b7160e01b81526011600452602481fd5b500190565b60005b83811015610a1b578181015183820152602001610a03565b838111156103c85750506000910152565b6001600160a01b0381168114610a4157600080fd5b5056fea264697066735822122027921817878a35564e651c7467ee2a7b7ecbce09178342e07b952e8fe48c6b2564736f6c63430008040033",
  "devdoc": {
    "author": "Connext <support@connext.network>",
    "kind": "dev",
    "methods": {
      "addAssetId(address)": {
        "params": {
          "assetId": "AssetId to add"
        }
      },
      "addLiquidity(uint256,address,address)": {
        "params": {
          "amount": "The amount of liquidity to add for the router",
          "assetId": "The address (or `address(0)` if native asset) of the                asset you're adding liquidity for",
          "router": "The router you are adding liquidity on behalf of"
        }
      },
      "addRouter(address)": {
        "params": {
          "router": "Router address to add"
        }
      },
      "cancel((address,address,address,address,address,address,address,bytes32,bytes32,uint256,uint256,uint256,uint256,uint256),uint256,bytes)": {
        "params": {
          "relayerFee": "The fee that should go to the relayer when they are                   calling the function for the user",
          "signature": "The user's signature that allows a transaction to be                  cancelled on the receiving chain.",
          "txData": "All of the data (invariant and variant) for a crosschain               transaction. The variant data provided is checked against               what was stored when the `prepare` function was called."
        }
      },
      "fulfill((address,address,address,address,address,address,address,bytes32,bytes32,uint256,uint256,uint256,uint256,uint256),uint256,bytes,bytes)": {
        "params": {
          "callData": "The calldata to be sent to and executed by the                  `FulfillHelper`",
          "relayerFee": "The fee that should go to the relayer when they are                   calling the function on the receiving chain for the user",
          "signature": "The users signature on the invariant data + fee that                  can be used by the router to unlock the transaction on                   the sending chain",
          "txData": "All of the data (invariant and variant) for a crosschain               transaction. The variant data provided is checked against               what was stored when the `prepare` function was called."
        }
      },
      "prepare((address,address,address,address,address,address,address,uint256,uint256,bytes32,bytes32),uint256,uint256,bytes,bytes,bytes)": {
        "params": {
          "amount": "The amount of the transaction on this chain",
          "bidSignature": "The signature of the bidder on the encoded bid for                     this transaction. Only used within the function for                     event emission. The validity of the bid and                     bidSignature are enforced offchain",
          "encodedBid": "The encoded bid that was accepted by the user for this                   crosschain transfer. It is supplied as a param to the                   function but is only used in event emission",
          "encryptedCallData": "The calldata to be executed when the tx is                          fulfilled. Used in the function to allow the user                          to reconstruct the tx from events. Hash is stored                          onchain to prevent shenanigans.",
          "expiry": "The block.timestamp when the transaction will no longer be               fulfillable and is freely cancellable on this chain",
          "invariantData": "The data for a crosschain transaction that will                      not change between sending and receiving chains.                      The hash of this data is used as the key to store                       the inforamtion that does change between chains                       (amount, expiry,preparedBlock) for verification"
        }
      },
      "removeAssetId(address)": {
        "params": {
          "assetId": "AssetId to remove"
        }
      },
      "removeLiquidity(uint256,address,address)": {
        "params": {
          "amount": "The amount of liquidity to remove for the router",
          "assetId": "The address (or `address(0)` if native asset) of the                asset you're removing liquidity for",
          "recipient": "The address that will receive the liquidity being removed"
        }
      },
      "removeRouter(address)": {
        "params": {
          "router": "Router address to remove"
        }
      }
    },
    "stateVariables": {
      "MAX_TIMEOUT": {
        "details": "Maximum timeout"
      },
      "MIN_TIMEOUT": {
        "details": "Minimum timeout (will be the lowest on the receiving chain)"
      },
      "approvedAssets": {
        "details": "Mapping of allowed assetIds on same chain of contract"
      },
      "approvedRouters": {
        "details": "Mapping of allowed router addresses"
      },
      "chainId": {
        "details": "The chain id of the contract, is passed in to avoid any evm issues"
      },
      "routerBalances": {
        "details": "Mapping of router to balance specific to asset"
      },
      "variantTransactionData": {
        "details": "Mapping of hash of `InvariantTransactionData` to the hash"
      }
    },
    "title": "TransactionManager",
    "version": 1
  },
  "userdoc": {
    "kind": "user",
    "methods": {
      "acceptProposedOwner()": {
        "notice": "Transfers ownership of the contract to a new account (`newOwner`). Can only be called by the current owner."
      },
      "addAssetId(address)": {
        "notice": "Used to add assets on same chain as contract that can         be transferred."
      },
      "addLiquidity(uint256,address,address)": {
        "notice": "This is used by any router to increase their available         liquidity for a given asset."
      },
      "addRouter(address)": {
        "notice": "Used to add routers that can transact crosschain"
      },
      "cancel((address,address,address,address,address,address,address,bytes32,bytes32,uint256,uint256,uint256,uint256,uint256),uint256,bytes)": {
        "notice": "Any crosschain transaction can be cancelled after it has been         created to prevent indefinite lock up of funds. After the         transaction has expired, anyone can cancel it. Before the         expiry, only the recipient of the funds on the given chain is         able to cancel. On the sending chain, this means only the router         is able to cancel before the expiry, while only the user can         prematurely cancel on the receiving chain."
      },
      "delay()": {
        "notice": "Returns the delay period before a new owner can be accepted."
      },
      "fulfill((address,address,address,address,address,address,address,bytes32,bytes32,uint256,uint256,uint256,uint256,uint256),uint256,bytes,bytes)": {
        "notice": "This function completes a crosschain transaction. When called on         the receiving chain, the user reveals their signature on the         invariant parts of the transaction data and is sent the          appropriate amount. The router then uses this signature to         unlock the corresponding funds on the receiving chain, which are         then added back to their available liquidity. The user includes a         relayer fee since it is not assumed they will have gas on the         receiving chain. This function *must* be called before the         transaction expiry has elapsed."
      },
      "owner()": {
        "notice": "Returns the address of the current owner."
      },
      "prepare((address,address,address,address,address,address,address,uint256,uint256,bytes32,bytes32),uint256,uint256,bytes,bytes,bytes)": {
        "notice": "This function creates a crosschain transaction. When called on         the sending chain, the user is expected to lock up funds. When         called on the receiving chain, the router deducts the transfer         amount from the available liquidity. The majority of the         information about a given transfer does not change between chains,         with three notable exceptions: `amount`, `expiry`, and          `preparedBlock`. The `amount` and `expiry` are decremented         between sending and receiving chains to provide an incentive for          the router to complete the transaction and time for the router to         fulfill the transaction on the sending chain after the unlocking         signature is revealed, respectively."
      },
      "proposeNewOwner(address)": {
        "notice": "Sets the timestamp for an owner to be proposed, and sets the newly proposed owner as step 1 in a 2-step process"
      },
      "proposed()": {
        "notice": "Returns the address of the proposed owner."
      },
      "proposedTimestamp()": {
        "notice": "Returns the address of the proposed owner."
      },
      "removeAssetId(address)": {
        "notice": "Used to remove assets on same chain as contract that can         be transferred."
      },
      "removeLiquidity(uint256,address,address)": {
        "notice": "This is used by any router to decrease their available         liquidity for a given asset."
      },
      "removeRouter(address)": {
        "notice": "Used to remove routers that can transact crosschain"
      },
      "renounced()": {
        "notice": "Indicates if the ownership has been renounced() by         checking if current owner is address(0)"
      }
    },
    "notice": "This contract holds the logic to facilitate crosschain transactions.         Transactions go through three phases:         1. Route Auction: User broadcasts to our network signalling their          desired route. Routers respond with sealed bids containing          commitments to fulfilling the transaction within a certain time and          price range.         2. Prepare: Once the auction is completed, the transaction can be          prepared. The user submits a transaction to `TransactionManager`          contract on sender-side chain containing router's signed bid. This          transaction locks up the users funds on the sending chiain. Upon          detecting an event containing their signed bid from the chain,          router submits the same transaction to `TransactionManager` on the          receiver-side chain, and locks up a corresponding amount of          liquidity. The amount locked on the receiving chain is `sending          amount - auction fee` so the router is incentivized to complete the          transaction.         3. Fulfill: Upon detecting the `TransactionPrepared` event on the          receiver-side chain, the user signs a message and sends it to a          relayer, who will earn a fee for submission. The relayer (which may          be the router) then submits the message to the `TransactionManager`          to complete their transaction on receiver-side chain and claim the          funds locked by the router. A relayer is used here to allow users          to submit transactions with arbitrary calldata on the receiving          chain without needing gas to do so. The router then submits the          same signed message and completes transaction on sender-side,          unlocking the original `amount`.         If a transaction is not fulfilled within a fixed timeout, it          reverts and can be reclaimed by the party that called `prepare` on          each chain (initiator). Additionally, transactions can be cancelled          unilaterally by the person owed funds on that chain (router for          sending chain, user for receiving chain) prior to expiry.",
    "version": 1
  },
  "storageLayout": {
    "storage": [
      {
        "astId": 114,
        "contract": "contracts/TransactionManager.sol:TransactionManager",
        "label": "_status",
        "offset": 0,
        "slot": "0",
        "type": "t_uint256"
      },
      {
        "astId": 1521,
        "contract": "contracts/TransactionManager.sol:TransactionManager",
        "label": "_owner",
        "offset": 0,
        "slot": "1",
        "type": "t_address"
      },
      {
        "astId": 1523,
        "contract": "contracts/TransactionManager.sol:TransactionManager",
        "label": "_proposed",
        "offset": 0,
        "slot": "2",
        "type": "t_address"
      },
      {
        "astId": 1525,
        "contract": "contracts/TransactionManager.sol:TransactionManager",
        "label": "_proposedTimestamp",
        "offset": 0,
        "slot": "3",
        "type": "t_uint256"
      },
      {
        "astId": 1696,
        "contract": "contracts/TransactionManager.sol:TransactionManager",
        "label": "routerBalances",
        "offset": 0,
        "slot": "4",
        "type": "t_mapping(t_address,t_mapping(t_address,t_uint256))"
      },
      {
        "astId": 1701,
        "contract": "contracts/TransactionManager.sol:TransactionManager",
        "label": "approvedRouters",
        "offset": 0,
        "slot": "5",
        "type": "t_mapping(t_address,t_bool)"
      },
      {
        "astId": 1706,
        "contract": "contracts/TransactionManager.sol:TransactionManager",
        "label": "approvedAssets",
        "offset": 0,
        "slot": "6",
        "type": "t_mapping(t_address,t_bool)"
      },
      {
        "astId": 1711,
        "contract": "contracts/TransactionManager.sol:TransactionManager",
        "label": "variantTransactionData",
        "offset": 0,
        "slot": "7",
        "type": "t_mapping(t_bytes32,t_bytes32)"
      }
    ],
    "types": {
      "t_address": {
        "encoding": "inplace",
        "label": "address",
        "numberOfBytes": "20"
      },
      "t_bool": {
        "encoding": "inplace",
        "label": "bool",
        "numberOfBytes": "1"
      },
      "t_bytes32": {
        "encoding": "inplace",
        "label": "bytes32",
        "numberOfBytes": "32"
      },
      "t_mapping(t_address,t_bool)": {
        "encoding": "mapping",
        "key": "t_address",
        "label": "mapping(address => bool)",
        "numberOfBytes": "32",
        "value": "t_bool"
      },
      "t_mapping(t_address,t_mapping(t_address,t_uint256))": {
        "encoding": "mapping",
        "key": "t_address",
        "label": "mapping(address => mapping(address => uint256))",
        "numberOfBytes": "32",
        "value": "t_mapping(t_address,t_uint256)"
      },
      "t_mapping(t_address,t_uint256)": {
        "encoding": "mapping",
        "key": "t_address",
        "label": "mapping(address => uint256)",
        "numberOfBytes": "32",
        "value": "t_uint256"
      },
      "t_mapping(t_bytes32,t_bytes32)": {
        "encoding": "mapping",
        "key": "t_bytes32",
        "label": "mapping(bytes32 => bytes32)",
        "numberOfBytes": "32",
        "value": "t_bytes32"
      },
      "t_uint256": {
        "encoding": "inplace",
        "label": "uint256",
        "numberOfBytes": "32"
      }
    }
  }
}