{
  "address": "0xb8e6C0a67f970b2870E6b504c214b8B33b10680C",
  "abi": [
    {
      "inputs": [],
      "name": "AssetLogic__getTokenIndexFromStableSwapPool_notExist",
      "type": "error"
    },
    {
      "inputs": [],
      "name": "AssetLogic__handleIncomingAsset_ethWithErcTransfer",
      "type": "error"
    },
    {
      "inputs": [],
      "name": "AssetLogic__handleIncomingAsset_notAmount",
      "type": "error"
    },
    {
      "inputs": [],
      "name": "AssetLogic__transferAssetFromContract_notNative",
      "type": "error"
    },
    {
      "inputs": [],
      "name": "AssetLogic__transferAssetToContract_feeOnTransferNotSupported",
      "type": "error"
    },
    {
      "inputs": [],
      "name": "BaseConnextFacet__nonReentrant_reentrantCall",
      "type": "error"
    },
    {
      "inputs": [],
      "name": "BaseConnextFacet__onlyOwner_notOwner",
      "type": "error"
    },
    {
      "inputs": [],
      "name": "BaseConnextFacet__onlyProposed_notProposedOwner",
      "type": "error"
    },
    {
      "inputs": [],
      "name": "BaseConnextFacet__onlyRemoteRouter_notRemoteRouter",
      "type": "error"
    },
    {
      "inputs": [],
      "name": "BaseConnextFacet__onlyReplica_notReplica",
      "type": "error"
    },
    {
      "inputs": [],
      "name": "BaseConnextFacet__whenNotPaused_paused",
      "type": "error"
    },
    {
      "inputs": [],
      "name": "BridgeFacet__bumpTransfer_valueIsZero",
      "type": "error"
    },
    {
      "inputs": [],
      "name": "BridgeFacet__executePortalTransfer_insufficientAmountWithdrawn",
      "type": "error"
    },
    {
      "inputs": [],
      "name": "BridgeFacet__execute_alreadyExecuted",
      "type": "error"
    },
    {
      "inputs": [],
      "name": "BridgeFacet__execute_alreadyReconciled",
      "type": "error"
    },
    {
      "inputs": [],
      "name": "BridgeFacet__execute_invalidRouterSignature",
      "type": "error"
    },
    {
      "inputs": [],
      "name": "BridgeFacet__execute_maxRoutersExceeded",
      "type": "error"
    },
    {
      "inputs": [],
      "name": "BridgeFacet__execute_notApprovedForPortals",
      "type": "error"
    },
    {
      "inputs": [],
      "name": "BridgeFacet__execute_notReconciled",
      "type": "error"
    },
    {
      "inputs": [],
      "name": "BridgeFacet__execute_notSupportedRouter",
      "type": "error"
    },
    {
      "inputs": [],
      "name": "BridgeFacet__execute_unapprovedSender",
      "type": "error"
    },
    {
      "inputs": [],
      "name": "BridgeFacet__execute_wrongDomain",
      "type": "error"
    },
    {
      "inputs": [],
      "name": "BridgeFacet__forceReceiveLocal_invalidSender",
      "type": "error"
    },
    {
      "inputs": [],
      "name": "BridgeFacet__handleExecuteTransaction_invalidSponsoredAmount",
      "type": "error"
    },
    {
      "inputs": [],
      "name": "BridgeFacet__setExecutor_invalidExecutor",
      "type": "error"
    },
    {
      "inputs": [],
      "name": "BridgeFacet__setPromiseRouter_invalidPromiseRouter",
      "type": "error"
    },
    {
      "inputs": [],
      "name": "BridgeFacet__setSponsorVault_invalidSponsorVault",
      "type": "error"
    },
    {
      "inputs": [],
      "name": "BridgeFacet__xcall_callbackNotAContract",
      "type": "error"
    },
    {
      "inputs": [],
      "name": "BridgeFacet__xcall_emptyTo",
      "type": "error"
    },
    {
      "inputs": [],
      "name": "BridgeFacet__xcall_nonZeroCallbackFeeForCallback",
      "type": "error"
    },
    {
      "inputs": [],
      "name": "BridgeFacet__xcall_notSupportedAsset",
      "type": "error"
    },
    {
      "inputs": [],
      "name": "BridgeFacet__xcall_wrongDomain",
      "type": "error"
    },
    {
      "anonymous": false,
      "inputs": [
        {
          "indexed": true,
          "internalType": "bytes32",
          "name": "transferId",
          "type": "bytes32"
        },
        {
          "indexed": true,
          "internalType": "address",
          "name": "router",
          "type": "address"
        },
        {
          "indexed": false,
          "internalType": "address",
          "name": "asset",
          "type": "address"
        },
        {
          "indexed": false,
          "internalType": "uint256",
          "name": "amount",
          "type": "uint256"
        }
      ],
      "name": "AavePortalMintUnbacked",
      "type": "event"
    },
    {
      "anonymous": false,
      "inputs": [
        {
          "indexed": true,
          "internalType": "bytes32",
          "name": "transferId",
          "type": "bytes32"
        },
        {
          "indexed": true,
          "internalType": "address",
          "name": "to",
          "type": "address"
        },
        {
          "components": [
            {
              "components": [
                {
                  "internalType": "address",
                  "name": "to",
                  "type": "address"
                },
                {
                  "internalType": "bytes",
                  "name": "callData",
                  "type": "bytes"
                },
                {
                  "internalType": "uint32",
                  "name": "originDomain",
                  "type": "uint32"
                },
                {
                  "internalType": "uint32",
                  "name": "destinationDomain",
                  "type": "uint32"
                },
                {
                  "internalType": "address",
                  "name": "agent",
                  "type": "address"
                },
                {
                  "internalType": "address",
                  "name": "recovery",
                  "type": "address"
                },
                {
                  "internalType": "bool",
                  "name": "forceSlow",
                  "type": "bool"
                },
                {
                  "internalType": "bool",
                  "name": "receiveLocal",
                  "type": "bool"
                },
                {
                  "internalType": "address",
                  "name": "callback",
                  "type": "address"
                },
                {
                  "internalType": "uint256",
                  "name": "callbackFee",
                  "type": "uint256"
                },
                {
                  "internalType": "uint256",
                  "name": "relayerFee",
                  "type": "uint256"
                },
                {
                  "internalType": "uint256",
                  "name": "slippageTol",
                  "type": "uint256"
                }
              ],
              "internalType": "struct CallParams",
              "name": "params",
              "type": "tuple"
            },
            {
              "internalType": "address",
              "name": "local",
              "type": "address"
            },
            {
              "internalType": "address[]",
              "name": "routers",
              "type": "address[]"
            },
            {
              "internalType": "bytes[]",
              "name": "routerSignatures",
              "type": "bytes[]"
            },
            {
              "internalType": "uint256",
              "name": "amount",
              "type": "uint256"
            },
            {
              "internalType": "uint256",
              "name": "nonce",
              "type": "uint256"
            },
            {
              "internalType": "address",
              "name": "originSender",
              "type": "address"
            }
          ],
          "indexed": false,
          "internalType": "struct ExecuteArgs",
          "name": "args",
          "type": "tuple"
        },
        {
          "indexed": false,
          "internalType": "address",
          "name": "transactingAsset",
          "type": "address"
        },
        {
          "indexed": false,
          "internalType": "uint256",
          "name": "transactingAmount",
          "type": "uint256"
        },
        {
          "indexed": false,
          "internalType": "address",
          "name": "caller",
          "type": "address"
        }
      ],
      "name": "Executed",
      "type": "event"
    },
    {
      "anonymous": false,
      "inputs": [
        {
          "indexed": false,
          "internalType": "address",
          "name": "oldExecutor",
          "type": "address"
        },
        {
          "indexed": false,
          "internalType": "address",
          "name": "newExecutor",
          "type": "address"
        },
        {
          "indexed": false,
          "internalType": "address",
          "name": "caller",
          "type": "address"
        }
      ],
      "name": "ExecutorUpdated",
      "type": "event"
    },
    {
      "anonymous": false,
      "inputs": [
        {
          "indexed": true,
          "internalType": "bytes32",
          "name": "transferId",
          "type": "bytes32"
        },
        {
          "indexed": true,
          "internalType": "bytes32",
          "name": "canonicalId",
          "type": "bytes32"
        },
        {
          "indexed": false,
          "internalType": "uint32",
          "name": "canonicalDomain",
          "type": "uint32"
        },
        {
          "indexed": false,
          "internalType": "uint256",
          "name": "amount",
          "type": "uint256"
        }
      ],
      "name": "ForcedReceiveLocal",
      "type": "event"
    },
    {
      "anonymous": false,
      "inputs": [
        {
          "indexed": false,
          "internalType": "address",
          "name": "oldRouter",
          "type": "address"
        },
        {
          "indexed": false,
          "internalType": "address",
          "name": "newRouter",
          "type": "address"
        },
        {
          "indexed": false,
          "internalType": "address",
          "name": "caller",
          "type": "address"
        }
      ],
      "name": "PromiseRouterUpdated",
      "type": "event"
    },
    {
      "anonymous": false,
      "inputs": [
        {
          "indexed": false,
          "internalType": "address",
          "name": "oldSponsorVault",
          "type": "address"
        },
        {
          "indexed": false,
          "internalType": "address",
          "name": "newSponsorVault",
          "type": "address"
        },
        {
          "indexed": false,
          "internalType": "address",
          "name": "caller",
          "type": "address"
        }
      ],
      "name": "SponsorVaultUpdated",
      "type": "event"
    },
    {
      "anonymous": false,
      "inputs": [
        {
          "indexed": true,
          "internalType": "bytes32",
          "name": "transferId",
          "type": "bytes32"
        },
        {
          "indexed": false,
          "internalType": "uint256",
          "name": "relayerFee",
          "type": "uint256"
        },
        {
          "indexed": false,
          "internalType": "address",
          "name": "caller",
          "type": "address"
        }
      ],
      "name": "TransferRelayerFeesUpdated",
      "type": "event"
    },
    {
      "anonymous": false,
      "inputs": [
        {
          "indexed": true,
          "internalType": "bytes32",
          "name": "transferId",
          "type": "bytes32"
        },
        {
          "components": [
            {
              "components": [
                {
                  "internalType": "address",
                  "name": "to",
                  "type": "address"
                },
                {
                  "internalType": "bytes",
                  "name": "callData",
                  "type": "bytes"
                },
                {
                  "internalType": "uint32",
                  "name": "originDomain",
                  "type": "uint32"
                },
                {
                  "internalType": "uint32",
                  "name": "destinationDomain",
                  "type": "uint32"
                },
                {
                  "internalType": "address",
                  "name": "agent",
                  "type": "address"
                },
                {
                  "internalType": "address",
                  "name": "recovery",
                  "type": "address"
                },
                {
                  "internalType": "bool",
                  "name": "forceSlow",
                  "type": "bool"
                },
                {
                  "internalType": "bool",
                  "name": "receiveLocal",
                  "type": "bool"
                },
                {
                  "internalType": "address",
                  "name": "callback",
                  "type": "address"
                },
                {
                  "internalType": "uint256",
                  "name": "callbackFee",
                  "type": "uint256"
                },
                {
                  "internalType": "uint256",
                  "name": "relayerFee",
                  "type": "uint256"
                },
                {
                  "internalType": "uint256",
                  "name": "slippageTol",
                  "type": "uint256"
                }
              ],
              "internalType": "struct CallParams",
              "name": "params",
              "type": "tuple"
            },
            {
              "internalType": "address",
              "name": "transactingAssetId",
              "type": "address"
            },
            {
              "internalType": "uint256",
              "name": "amount",
              "type": "uint256"
            }
          ],
          "indexed": false,
          "internalType": "struct XCallArgs",
          "name": "xcallArgs",
          "type": "tuple"
        },
        {
          "components": [
            {
              "internalType": "address",
              "name": "transactingAssetId",
              "type": "address"
            },
            {
              "internalType": "uint256",
              "name": "amount",
              "type": "uint256"
            },
            {
              "internalType": "uint256",
              "name": "bridgedAmt",
              "type": "uint256"
            },
            {
              "internalType": "address",
              "name": "bridged",
              "type": "address"
            }
          ],
          "indexed": false,
          "internalType": "struct BridgeFacet.XCalledEventArgs",
          "name": "args",
          "type": "tuple"
        },
        {
          "indexed": false,
          "internalType": "uint256",
          "name": "nonce",
          "type": "uint256"
        },
        {
          "indexed": false,
          "internalType": "bytes",
          "name": "message",
          "type": "bytes"
        },
        {
          "indexed": false,
          "internalType": "address",
          "name": "caller",
          "type": "address"
        }
      ],
      "name": "XCalled",
      "type": "event"
    },
    {
      "inputs": [],
      "name": "AAVE_REFERRAL_CODE",
      "outputs": [
        {
          "internalType": "uint16",
          "name": "",
          "type": "uint16"
        }
      ],
      "stateMutability": "view",
      "type": "function"
    },
    {
      "inputs": [
        {
          "internalType": "bytes32",
          "name": "_transferId",
          "type": "bytes32"
        }
      ],
      "name": "bumpTransfer",
      "outputs": [],
      "stateMutability": "payable",
      "type": "function"
    },
    {
      "inputs": [],
      "name": "domain",
      "outputs": [
        {
          "internalType": "uint32",
          "name": "",
          "type": "uint32"
        }
      ],
      "stateMutability": "view",
      "type": "function"
    },
    {
      "inputs": [
        {
          "components": [
            {
              "components": [
                {
                  "internalType": "address",
                  "name": "to",
                  "type": "address"
                },
                {
                  "internalType": "bytes",
                  "name": "callData",
                  "type": "bytes"
                },
                {
                  "internalType": "uint32",
                  "name": "originDomain",
                  "type": "uint32"
                },
                {
                  "internalType": "uint32",
                  "name": "destinationDomain",
                  "type": "uint32"
                },
                {
                  "internalType": "address",
                  "name": "agent",
                  "type": "address"
                },
                {
                  "internalType": "address",
                  "name": "recovery",
                  "type": "address"
                },
                {
                  "internalType": "bool",
                  "name": "forceSlow",
                  "type": "bool"
                },
                {
                  "internalType": "bool",
                  "name": "receiveLocal",
                  "type": "bool"
                },
                {
                  "internalType": "address",
                  "name": "callback",
                  "type": "address"
                },
                {
                  "internalType": "uint256",
                  "name": "callbackFee",
                  "type": "uint256"
                },
                {
                  "internalType": "uint256",
                  "name": "relayerFee",
                  "type": "uint256"
                },
                {
                  "internalType": "uint256",
                  "name": "slippageTol",
                  "type": "uint256"
                }
              ],
              "internalType": "struct CallParams",
              "name": "params",
              "type": "tuple"
            },
            {
              "internalType": "address",
              "name": "local",
              "type": "address"
            },
            {
              "internalType": "address[]",
              "name": "routers",
              "type": "address[]"
            },
            {
              "internalType": "bytes[]",
              "name": "routerSignatures",
              "type": "bytes[]"
            },
            {
              "internalType": "uint256",
              "name": "amount",
              "type": "uint256"
            },
            {
              "internalType": "uint256",
              "name": "nonce",
              "type": "uint256"
            },
            {
              "internalType": "address",
              "name": "originSender",
              "type": "address"
            }
          ],
          "internalType": "struct ExecuteArgs",
          "name": "_args",
          "type": "tuple"
        }
      ],
      "name": "execute",
      "outputs": [
        {
          "internalType": "bytes32",
          "name": "",
          "type": "bytes32"
        }
      ],
      "stateMutability": "nonpayable",
      "type": "function"
    },
    {
      "inputs": [],
      "name": "executor",
      "outputs": [
        {
          "internalType": "contract IExecutor",
          "name": "",
          "type": "address"
        }
      ],
      "stateMutability": "view",
      "type": "function"
    },
    {
      "inputs": [
        {
          "components": [
            {
              "internalType": "address",
              "name": "to",
              "type": "address"
            },
            {
              "internalType": "bytes",
              "name": "callData",
              "type": "bytes"
            },
            {
              "internalType": "uint32",
              "name": "originDomain",
              "type": "uint32"
            },
            {
              "internalType": "uint32",
              "name": "destinationDomain",
              "type": "uint32"
            },
            {
              "internalType": "address",
              "name": "agent",
              "type": "address"
            },
            {
              "internalType": "address",
              "name": "recovery",
              "type": "address"
            },
            {
              "internalType": "bool",
              "name": "forceSlow",
              "type": "bool"
            },
            {
              "internalType": "bool",
              "name": "receiveLocal",
              "type": "bool"
            },
            {
              "internalType": "address",
              "name": "callback",
              "type": "address"
            },
            {
              "internalType": "uint256",
              "name": "callbackFee",
              "type": "uint256"
            },
            {
              "internalType": "uint256",
              "name": "relayerFee",
              "type": "uint256"
            },
            {
              "internalType": "uint256",
              "name": "slippageTol",
              "type": "uint256"
            }
          ],
          "internalType": "struct CallParams",
          "name": "_params",
          "type": "tuple"
        },
        {
          "internalType": "uint256",
          "name": "_amount",
          "type": "uint256"
        },
        {
          "internalType": "uint256",
          "name": "_nonce",
          "type": "uint256"
        },
        {
          "internalType": "bytes32",
          "name": "_canonicalId",
          "type": "bytes32"
        },
        {
          "internalType": "uint32",
          "name": "_canonicalDomain",
          "type": "uint32"
        },
        {
          "internalType": "address",
          "name": "_originSender",
          "type": "address"
        }
      ],
      "name": "forceReceiveLocal",
      "outputs": [],
      "stateMutability": "nonpayable",
      "type": "function"
    },
    {
      "inputs": [],
      "name": "nonce",
      "outputs": [
        {
          "internalType": "uint256",
          "name": "",
          "type": "uint256"
        }
      ],
      "stateMutability": "view",
      "type": "function"
    },
    {
      "inputs": [],
      "name": "promiseRouter",
      "outputs": [
        {
          "internalType": "contract PromiseRouter",
          "name": "",
          "type": "address"
        }
      ],
      "stateMutability": "view",
      "type": "function"
    },
    {
      "inputs": [
        {
          "internalType": "bytes32",
          "name": "_transferId",
          "type": "bytes32"
        }
      ],
      "name": "reconciledTransfers",
      "outputs": [
        {
          "internalType": "bool",
          "name": "",
          "type": "bool"
        }
      ],
      "stateMutability": "view",
      "type": "function"
    },
    {
      "inputs": [
        {
          "internalType": "bytes32",
          "name": "_transferId",
          "type": "bytes32"
        }
      ],
      "name": "relayerFees",
      "outputs": [
        {
          "internalType": "uint256",
          "name": "",
          "type": "uint256"
        }
      ],
      "stateMutability": "view",
      "type": "function"
    },
    {
      "inputs": [
        {
          "internalType": "bytes32",
          "name": "_transferId",
          "type": "bytes32"
        }
      ],
      "name": "routedTransfers",
      "outputs": [
        {
          "internalType": "address[]",
          "name": "",
          "type": "address[]"
        }
      ],
      "stateMutability": "view",
      "type": "function"
    },
    {
      "inputs": [
        {
          "internalType": "address",
          "name": "_executor",
          "type": "address"
        }
      ],
      "name": "setExecutor",
      "outputs": [],
      "stateMutability": "nonpayable",
      "type": "function"
    },
    {
      "inputs": [
        {
          "internalType": "address payable",
          "name": "_promiseRouter",
          "type": "address"
        }
      ],
      "name": "setPromiseRouter",
      "outputs": [],
      "stateMutability": "nonpayable",
      "type": "function"
    },
    {
      "inputs": [
        {
          "internalType": "address",
          "name": "_sponsorVault",
          "type": "address"
        }
      ],
      "name": "setSponsorVault",
      "outputs": [],
      "stateMutability": "nonpayable",
      "type": "function"
    },
    {
      "inputs": [],
      "name": "sponsorVault",
      "outputs": [
        {
          "internalType": "contract ISponsorVault",
          "name": "",
          "type": "address"
        }
      ],
      "stateMutability": "view",
      "type": "function"
    },
    {
      "inputs": [
        {
          "components": [
            {
              "components": [
                {
                  "internalType": "address",
                  "name": "to",
                  "type": "address"
                },
                {
                  "internalType": "bytes",
                  "name": "callData",
                  "type": "bytes"
                },
                {
                  "internalType": "uint32",
                  "name": "originDomain",
                  "type": "uint32"
                },
                {
                  "internalType": "uint32",
                  "name": "destinationDomain",
                  "type": "uint32"
                },
                {
                  "internalType": "address",
                  "name": "agent",
                  "type": "address"
                },
                {
                  "internalType": "address",
                  "name": "recovery",
                  "type": "address"
                },
                {
                  "internalType": "bool",
                  "name": "forceSlow",
                  "type": "bool"
                },
                {
                  "internalType": "bool",
                  "name": "receiveLocal",
                  "type": "bool"
                },
                {
                  "internalType": "address",
                  "name": "callback",
                  "type": "address"
                },
                {
                  "internalType": "uint256",
                  "name": "callbackFee",
                  "type": "uint256"
                },
                {
                  "internalType": "uint256",
                  "name": "relayerFee",
                  "type": "uint256"
                },
                {
                  "internalType": "uint256",
                  "name": "slippageTol",
                  "type": "uint256"
                }
              ],
              "internalType": "struct CallParams",
              "name": "params",
              "type": "tuple"
            },
            {
              "internalType": "address",
              "name": "transactingAssetId",
              "type": "address"
            },
            {
              "internalType": "uint256",
              "name": "amount",
              "type": "uint256"
            }
          ],
          "internalType": "struct XCallArgs",
          "name": "_args",
          "type": "tuple"
        }
      ],
      "name": "xcall",
      "outputs": [
        {
          "internalType": "bytes32",
          "name": "",
          "type": "bytes32"
        }
      ],
      "stateMutability": "payable",
      "type": "function"
    }
  ],
  "args": [],
  "numDeployments": 1,
  "solcInputHash": "28a1680f8c9b96a6e25163563e7c895e",
  "bytecode": "0x608060405234801561001057600080fd5b5061565680620000216000396000f3fe6080604052600436106100f35760003560e01c8063a142d6491161008a578063c26c9c0a11610059578063c26c9c0a1461029a578063c2fb26a6146102da578063c34c08e51461030c578063c3ecd7281461032a57600080fd5b8063a142d64914610227578063affed0e014610247578063bb2804001461025c578063c230f9471461027a57600080fd5b80632424401f116100c65780632424401f146101945780636c0636a1146101a757806372dbadfc146101c85780639b098908146101fa57600080fd5b806305a363de146100f85780631a8bc0e1146101255780631aebfe18146101525780631c3c0ea814610174575b600080fd5b34801561010457600080fd5b5061010d600081565b60405161ffff90911681526020015b60405180910390f35b34801561013157600080fd5b506101456101403660046148bc565b61034a565b60405161011c91906148d5565b34801561015e57600080fd5b5061017261016d366004614942565b6103b6565b005b34801561018057600080fd5b5061017261018f366004614942565b610491565b6101726101a23660046148bc565b610564565b6101ba6101b536600461495f565b61061c565b60405190815260200161011c565b3480156101d457600080fd5b506004546001600160a01b03165b6040516001600160a01b03909116815260200161011c565b34801561020657600080fd5b506101ba6102153660046148bc565b60009081526011602052604090205490565b34801561023357600080fd5b50610172610242366004614942565b610c8e565b34801561025357600080fd5b506006546101ba565b34801561026857600080fd5b506014546001600160a01b03166101e2565b34801561028657600080fd5b506101726102953660046149b7565b610d61565b3480156102a657600080fd5b506102ca6102b53660046148bc565b6000908152600d602052604090205460ff1690565b604051901515815260200161011c565b3480156102e657600080fd5b50600754600160a01b900463ffffffff1660405163ffffffff909116815260200161011c565b34801561031857600080fd5b506007546001600160a01b03166101e2565b34801561033657600080fd5b506101ba610345366004614a3d565b610e1b565b6000818152600e60209081526040918290208054835181840281018401909452808452606093928301828280156103aa57602002820191906000526020600020905b81546001600160a01b0316815260019091019060200180831161038c575b50505050509050919050565b336103bf610fc1565b6001600160a01b0316146103e6576040516314e74a2560e21b815260040160405180910390fd5b6014546001600160a01b0390811690821681148061040c57506001600160a01b0382163b155b1561042a5760405163334f10a360e11b815260040160405180910390fd5b601480546001600160a01b0319166001600160a01b03848116918217909255604080519284168352602083019190915233908201527fbebea8e5917df53539d222b751ec993b536f5289f79cfec311e527481fee8501906060015b60405180910390a15050565b3361049a610fc1565b6001600160a01b0316146104c1576040516314e74a2560e21b815260040160405180910390fd5b6007546001600160a01b039081169082168114806104e757506001600160a01b0382163b155b15610505576040516302c1835b60e21b815260040160405180910390fd5b600780546001600160a01b0319166001600160a01b03848116918217909255604080519284168352602083019190915233908201527ffb6e3b9089f982ec94f9efcf6f8358010c0aab7a69d739165d542659552c22c590606001610485565b60265460ff161561058857604051633ee5b89360e01b815260040160405180910390fd5b346000036105a9576040516348e7dc3f60e01b815260040160405180910390fd5b600081815260116020526040812080543492906105c7908490614a8e565b9091555050600081815260116020908152604091829020548251908152339181019190915282917feab1c093c8ba2224a2907cd9efb6ed51c233306ff5a66853b84e02a0bf95feab910160405180910390a250565b6023546000906001190161064357604051637ce54e2d60e11b815260040160405180910390fd5b600260235560265460ff161561066c57604051633ee5b89360e01b815260040160405180910390fd5b600754600160a01b900463ffffffff166106868380614aa6565b610697906060810190604001614ac7565b63ffffffff16146106bb5760405163522b4c9760e01b815260040160405180910390fd5b60006106c78380614aa6565b6106d5906020810190614942565b6001600160a01b0316036106fb5760405162845fdd60e41b815260040160405180910390fd5b60006107078380614aa6565b61071a9061012081019061010001614942565b6001600160a01b031614801561073d57506107358280614aa6565b610120013515155b1561075b5760405163145e29ef60e11b815260040160405180910390fd5b60006107678380614aa6565b61077a9061012081019061010001614942565b6001600160a01b0316141580156107bd57506107bb6107998380614aa6565b6107ac9061012081019061010001614942565b6001600160a01b03163b151590565b155b156107db57604051630c4e8aa360e01b815260040160405180910390fd5b60408051608081018252600080825260208201819052918101829052606081810183905290829060006108276108118880614aa6565b610822906080810190606001614ac7565b610fef565b905060008061083c60408a0160208b01614942565b6001600160a01b03161461085f5761085a6040890160208a01614942565b61086c565b6005546001600160a01b03165b6001600160a01b0381166000908152600b60209081526040918290208251808401909352805463ffffffff16835260010154908201819052919250906109c75760085460405163c86415cb60e01b81526001600160a01b0384811660048301529091169063c86415cb90602401602060405180830381865afa1580156108f6573d6000803e3d6000fd5b505050506040513d601f19601f8201168201806040525081019061091a9190614af2565b15610938576040516379e5923d60e01b815260040160405180910390fd5b6008546040516378a9bb4360e11b81526001600160a01b038481166004830152600092839291169063f1537686906024016040805180830381865afa158015610985573d6000803e3d6000fd5b505050506040513d601f19601f820116820180604052508101906109a99190614b0f565b6040805180820190915263ffffffff90921682526020820152925050505b6000610a0e6109dc60408c0160208d01614942565b60408c01356109eb8d80614aa6565b61012001356109fa8e80614aa6565b6101400135610a099190614a8e565b611046565b915050600080610a348486858f8060000190610a2a9190614aa6565b61016001356110d7565b91509150610a438c85846111c0565b60068054919b506000610a5583614b3d565b909155509750610a658c80614aa6565b60008b815260116020526040902061014091909101359055610a878c80614aa6565b610120013515610b03576004546001600160a01b0316635540f1c0610aac8e80614aa6565b61012001358c6040518363ffffffff1660e01b8152600401610ad091815260200190565b6000604051808303818588803b158015610ae957600080fd5b505af1158015610afd573d6000803e3d6000fd5b50505050505b610b198c85602001518660000151848e876111ed565b60165460408051639fa92f9d60e01b81529051929b506001600160a01b0390911691639fa92f9d916004808201926020929091908290030181865afa158015610b66573d6000803e3d6000fd5b505050506040513d601f19601f82011682018060405250810190610b8a9190614b56565b6001600160a01b031663fa31de01610ba28e80614aa6565b610bb3906080810190606001614ac7565b888c6040518463ffffffff1660e01b8152600401610bd393929190614bcb565b600060405180830381600087803b158015610bed57600080fd5b505af1158015610c01573d6000803e3d6000fd5b505050506040518060800160405280866001600160a01b03168152602001848152602001838152602001826001600160a01b03168152509650505050505050837f9ff13ab44d4ea07af1c3b3ffb93494b9e0e32bb1564d8ba56e62e7ee9b7489d38783858733604051610c78959493929190614d99565b60405180910390a2505060016023555092915050565b33610c97610fc1565b6001600160a01b031614610cbe576040516314e74a2560e21b815260040160405180910390fd5b6004546001600160a01b03908116908216811480610ce457506001600160a01b0382163b155b15610d025760405163690e294960e01b815260040160405180910390fd5b600480546001600160a01b0319166001600160a01b03848116918217909255604080519284168352602083019190915233908201527f2873de4c5a17b06af1782c9bd388400d168f477b41d12d8b4a7008db725989fc90606001610485565b610d7160a0870160808801614942565b6001600160a01b0316336001600160a01b031614610da257604051638daeb00360e01b815260040160405180910390fd5b6000610db28787878787876114cc565b6000818152602a6020908152604091829020805460ff19166001179055815163ffffffff87168152908101899052919250859183917fae8bf2a1af2ca9c953070d3325208f12a8ee450e310417da86dccf2289969da4910160405180910390a350505050505050565b60235460009060011901610e4257604051637ce54e2d60e11b815260040160405180910390fd5b600260235560265460ff1615610e6b57604051633ee5b89360e01b815260040160405180910390fd5b60085460009081906001600160a01b031663f1537686610e916040870160208801614942565b6040516001600160e01b031960e084901b1681526001600160a01b0390911660048201526024016040805180830381865afa158015610ed4573d6000803e3d6000fd5b505050506040513d601f19601f82011682018060405250810190610ef89190614b0f565b91509150600080610f0a86858561150b565b600082815260126020526040812080546001600160a01b03191633179055919350915080610f3b848685158b611847565b915091506000610f4e8984848888611d29565b9050610f5a8980614aa6565b610f68906020810190614942565b6001600160a01b0316857f3a30a597077c4dc49f7fb8529b9070a9d959f048fae5a4295165d090cb11c5b98b858533604051610fa79493929190614f35565b60405180910390a350506001602355509095945050505050565b7fc8fcad8db84d3cc18b4c41d551ea0ee66dd599cde068d998e57d5e09332c1320546001600160a01b031690565b63ffffffff8116600090815260156020526040902054806110415760405162461bcd60e51b81526020600482015260076024820152662172656d6f746560c81b60448201526064015b60405180910390fd5b919050565b60008080846001600160a01b0387166110a0576110638587614a8e565b34146110825760405163024789fb60e21b815260040160405180910390fd5b61108b8661236a565b60058201546001600160a01b031696506110cd565b8434146110c05760405163eb9c265360e01b815260040160405180910390fd5b6110ca87876123cf565b90505b9596945050505050565b60008080806008810154885160208a0151604051631626cf1960e21b815263ffffffff909216600483015260248201529192506000916001600160a01b039091169063589b3c6490604401602060405180830381865afa15801561113f573d6000803e3d6000fd5b505050506040513d601f19601f820116820180604052508101906111639190614b56565b9050856000036111795785935091506111b79050565b866001600160a01b0316816001600160a01b03160361119f5785879350935050506111b7565b6111b08860200151888389896124e9565b9350935050505b94509492505050565b60006111e36111cf8580614aa6565b6006546020860151865186929190336114cc565b90505b9392505050565b60085460405163c86415cb60e01b81526001600160a01b03808616600483015260609286926000929091169063c86415cb90602401602060405180830381865afa15801561123f573d6000803e3d6000fd5b505050506040513d601f19601f820116820180604052508101906112639190614af2565b156113a7576113a0826001600160a01b03166306fdde036040518163ffffffff1660e01b81526004016000604051808303816000875af11580156112ab573d6000803e3d6000fd5b505050506040513d6000823e601f3d908101601f191682016040526112d391908101906150a4565b836001600160a01b03166395d89b416040518163ffffffff1660e01b8152600401600060405180830381865afa158015611311573d6000803e3d6000fd5b505050506040513d6000823e601f3d908101601f1916820160405261133991908101906150a4565b846001600160a01b031663313ce5676040518163ffffffff1660e01b8152600401602060405180830381865afa158015611377573d6000803e3d6000fd5b505050506040513d601f19601f8201168201806040525081019061139b91906150ed565b61261a565b9050611473565b831561140e57604051632770a7eb60e21b8152306004820152602481018590526001600160a01b03831690639dc29fac90604401600060405180830381600087803b1580156113f557600080fd5b505af1158015611409573d6000803e3d6000fd5b505050505b816001600160a01b0316634815fcb16040518163ffffffff1660e01b8152600401602060405180830381865afa15801561144c573d6000803e3d6000fd5b505050506040513d601f19601f820116820180604052508101906114709190615110565b90505b60006114a761149f6114858c80614aa6565b611493906020810190614942565b6001600160a01b031690565b868489612656565b90506114bc6114b6898b6126a8565b826126dc565b93505050505b9695505050505050565b600084878386868a6040516020016114e996959493929190615129565b6040516020818303038152906040528051906020012090509695505050505050565b33600090815260106020526040812054819060ff1615801561155957506115328580614aa6565b6115439060a0810190608001614942565b6001600160a01b0316336001600160a01b031614155b1561157757604051637c32a2b360e01b815260040160405180910390fd5b600754600160a01b900463ffffffff166115918680614aa6565b6115a2906080810190606001614ac7565b63ffffffff16146115c65760405163b6bb322560e01b815260040160405180910390fd5b60006115d56040870187615176565b60135490925082111590506115fd576040516313c06ef360e01b815260040160405180910390fd5b600061160a8787876127b2565b6000818152600d602052604090205490915060ff166116298880614aa6565b61163a9060e081019060c0016151c0565b8015611644575080155b1561166257604051636320d2cf60e11b815260040160405180910390fd5b6040805160208082018590528183018690528251808303840181526060909201909252805191012083156117e55781156116af5760405163373c9f6f60e01b815260040160405180910390fd5b60005b848110156117df576116c26127e2565b15801561171f5750601d60006116db60408d018d615176565b848181106116eb576116eb6151dd565b90506020020160208101906117009190614942565b6001600160a01b0316815260208101919091526040016000205460ff16155b1561173d57604051630e1eb7f760e31b815260040160405180910390fd5b6117758261174e60608d018d615176565b8481811061175e5761175e6151dd565b905060200281019061177091906151f3565b612809565b6001600160a01b031661178b60408c018c615176565b8381811061179b5761179b6151dd565b90506020020160208101906117b09190614942565b6001600160a01b0316146117d757604051633a1dd23360e21b815260040160405180910390fd5b6001016116b2565b50611803565b8161180357604051636320d2cf60e11b815260040160405180910390fd5b6000838152601260205260409020546001600160a01b0316156118395760405163c2f8eb9360e01b815260040160405180910390fd5b509097909650945050505050565b60008082608001356000036118715760006118686040850160208601614942565b915091506111b7565b60808301358415611c9d57600061188b6040860186615176565b6001546002549193506118a492506080880135916128a1565b91506118b36040860186615176565b60008a8152600e602052604090206118cc929091614844565b5080600103611b0a576118df8580614aa6565b6118f19061010081019060e0016151c0565b158015611989575081600f600061190b6040890189615176565b600081811061191c5761191c6151dd565b90506020020160208101906119319190614942565b6001600160a01b03166001600160a01b0316815260200190815260200160002060008760200160208101906119669190614942565b6001600160a01b03166001600160a01b0316815260200190815260200160002054105b80156119a4575060265461010090046001600160a01b031615155b15611a6357601e60006119ba6040880188615176565b60008181106119cb576119cb6151dd565b90506020020160208101906119e09190614942565b6001600160a01b0316815260208101919091526040016000205460ff16611a1a576040516310c4e50960e01b815260040160405180910390fd5b611a58888884611a2d60408a018a615176565b6000818110611a3e57611a3e6151dd565b9050602002016020810190611a539190614942565b6128b8565b9350935050506111b7565b81600f6000611a756040890189615176565b6000818110611a8657611a866151dd565b9050602002016020810190611a9b9190614942565b6001600160a01b03166001600160a01b031681526020019081526020016000206000876020016020810190611ad09190614942565b6001600160a01b03166001600160a01b031681526020019081526020016000206000828254611aff919061523a565b90915550611c9b9050565b6000611b168284615267565b905060005b611b2660018461523a565b811015611bd55781600f6000611b3f60408b018b615176565b85818110611b4f57611b4f6151dd565b9050602002016020810190611b649190614942565b6001600160a01b03166001600160a01b031681526020019081526020016000206000896020016020810190611b999190614942565b6001600160a01b03166001600160a01b031681526020019081526020016000206000828254611bc8919061523a565b9091555050600101611b1b565b506000611be2838561527b565b611bec9083614a8e565b905080600f6000611c0060408b018b615176565b611c0b60018961523a565b818110611c1a57611c1a6151dd565b9050602002016020810190611c2f9190614942565b6001600160a01b03166001600160a01b031681526020019081526020016000206000896020016020810190611c649190614942565b6001600160a01b03166001600160a01b031681526020019081526020016000206000828254611c93919061523a565b909155505050505b505b611ca78480614aa6565b611cb99061010081019060e0016151c0565b80611cd257506000878152602a602052604090205460ff165b15611cf25780611ce86040860160208701614942565b92509250506111b7565b611d1b86611d066040870160208801614942565b83611d118880614aa6565b6101600135612a83565b925092505094509492505050565b6014546000906001600160a01b0316156120545781611f52576040516370a0823160e01b81523060048201526000906001600160a01b038616906370a0823190602401602060405180830381865afa158015611d89573d6000803e3d6000fd5b505050506040513d601f19601f82011682018060405250810190611dad9190615110565b60145490915060009081906001600160a01b031663643dd2d360e11b8860808c0135611dd98d80614aa6565b611de7906020810190614942565b6040516001600160a01b0393841660248201526044810192909252909116606482015260840160408051601f198184030181529181526020820180516001600160e01b03166001600160e01b0319909416939093179092529051611e4b919061528f565b6000604051808303816000865af19150503d8060008114611e88576040519150601f19603f3d011682016040523d82523d6000602084013e611e8d565b606091505b50915091508115611f4e57600081806020019051810190611eae9190615110565b9050611eba8185614a8e565b6040516370a0823160e01b81523060048201526001600160a01b038a16906370a0823190602401602060405180830381865afa158015611efe573d6000803e3d6000fd5b505050506040513d601f19601f82011682018060405250810190611f229190615110565b14611f40576040516304184fc360e31b815260040160405180910390fd5b611f4a818a614a8e565b9850505b5050505b6014546001600160a01b03166304df19dd60e01b611f708880614aa6565b611f81906060810190604001614ac7565b611f8b8980614aa6565b611f99906020810190614942565b611fa38a80614aa6565b60405163ffffffff90931660248401526001600160a01b0390911660448301526101400135606482015260840160408051601f198184030181529181526020820180516001600160e01b03166001600160e01b031990941693909317909252905161200e919061528f565b6000604051808303816000865af19150503d806000811461204b576040519150601f19603f3d011682016040523d82523d6000602084013e612050565b606091505b5050505b7fc5d2460186f7233c927e7db2dcc703c0e500b653ca82273b7bfad8045d85a47061207f8780614aa6565b61208d9060208101906151f3565b60405161209b9291906152a1565b6040518091039020036120cf576120ca846120b68880614aa6565b6120c4906020810190614942565b87612ad8565b61235e565b6007546120e79085906001600160a01b031687612ad8565b6007546040805160e0810182528581526020810188905260009283926001600160a01b0390911691636d6801e79181016121218c80614aa6565b61212f906020810190614942565b6001600160a01b031681526020016121478c80614aa6565b6121589060c081019060a001614942565b6001600160a01b03168152602001896001600160a01b0316815260200187612199576040518060400160405280601d815260200162ffffff198152506121cf565b6121cf6121a68d80614aa6565b6121b7906060810190604001614ac7565b8d60c00160208101906121ca9190614942565b612ba6565b81526020016121de8c80614aa6565b6121ec9060208101906151f3565b8080601f01602080910402602001604051908101604052809392919081815260200183838082843760009201919091525050509152506040516001600160e01b031960e084901b16815261224391906004016152b1565b6000604051808303816000875af1158015612262573d6000803e3d6000fd5b505050506040513d6000823e601f3d908101601f1916820160405261228a919081019061532d565b9092509050600061229b8980614aa6565b6122ae9061012081019061010001614942565b6001600160a01b03161461235b576004546001600160a01b03166365d82b8b6122d78a80614aa6565b6122e8906060810190604001614ac7565b876122f38c80614aa6565b6123069061012081019061010001614942565b86866040518663ffffffff1660e01b8152600401612328959493929190615392565b600060405180830381600087803b15801561234257600080fd5b505af1158015612356573d6000803e3d6000fd5b505050505b50505b50835b95945050505050565b60055460408051630d0e30db60e41b815290516000926001600160a01b03169163d0e30db0918591600480820192879290919082900301818588803b1580156123b257600080fd5b505af11580156123c6573d6000803e3d6000fd5b50505050505050565b6040516370a0823160e01b815230600482015260009081906001600160a01b038516906370a0823190602401602060405180830381865afa158015612418573d6000803e3d6000fd5b505050506040513d601f19601f8201168201806040525081019061243c9190615110565b905061244a84333086612bd5565b6040516370a0823160e01b8152306004820152839082906001600160a01b038716906370a0823190602401602060405180830381865afa158015612492573d6000803e3d6000fd5b505050506040513d601f19601f820116820180604052508101906124b69190615110565b6124c0919061523a565b146124de57604051631a39afd960e11b815260040160405180910390fd5b829150505b92915050565b6000808060008160020154858761250091906153cd565b61250a9190615267565b60008a81526024602052604090206007015490915015612560576125546125318a8a612c40565b61253b8b8a612c40565b60008c8152602486016020526040902091908985612cc8565b87935093505050612610565b60008981526009830160205260409020546001600160a01b0316612585898289613005565b60405163d3d9298d60e01b8152600481018890526001600160a01b038a8116602483015289811660448301526064820184905282169063d3d9298d906084016020604051808303816000875af11580156125e3573d6000803e3d6000fd5b505050506040513d601f19601f820116820180604052508101906126079190615110565b88945094505050505b9550959350505050565b6000835184845185856040516020016126379594939291906153ec565b6040516020818303038152906040528051906020012090509392505050565b60006123616003612692600060038989898960405160200161267c959493929190615462565b60408051601f19818403018152919052906130b7565b6301000000600160d81b031660d89190911b1790565b60006111e660016040516001600160e01b031960e087901b166020820152602481018590526126929060009060440161267c565b60608260016126f162ffffff198316826130d2565b506126fb846131ab565b6127315760405162461bcd60e51b815260206004820152600760248201526610b0b1ba34b7b760c91b6044820152606401611038565b6040805160028082526060820183526000926020830190803683370190505090508581600081518110612766576127666151dd565b602002602001019062ffffff1916908162ffffff1916815250508481600181518110612794576127946151dd565b62ffffff19909216602092830291909101909101526114c2816131b6565b60006111e36127c18580614aa6565b608086013560a087013585876127dd60e08b0160c08c01614942565b6114cc565b6000806127ed610fc1565b6001600160a01b03161480612804575060195460ff165b905090565b60006111e3612865856040517f19457468657265756d205369676e6564204d6573736167653a0a3332000000006020820152603c8101829052600090605c01604051602081830303815290604052805190602001209050919050565b84848080601f01602080910402602001604051908101604052809392919081815260200183838082843760009201919091525061320b92505050565b6000816128ae84866153cd565b6111e39190615267565b6000838152600c60205260408082205460265491516369a933a560e01b81526001600160a01b039182166004820181905260248201879052306044830152606482018590528493909261010090910416906369a933a590608401600060405180830381600087803b15801561292c57600080fd5b505af1158015612940573d6000803e3d6000fd5b5050602654604051631a4ca37b60e21b81526001600160a01b038581166004830152602482018a90523060448301526000945061010090920490911691506369328dec906064016020604051808303816000875af11580156129a6573d6000803e3d6000fd5b505050506040513d601f19601f820116820180604052508101906129ca9190615110565b9050858110156129ed5760405163407559a360e11b815260040160405180910390fd5b6000888152602860205260409020869055600254602754612a0f9088906153cd565b612a199190615267565b6000898152602960209081526040918290209290925580516001600160a01b038581168252928101899052918716918a917f2d3ba0fa5be2ef8cb1ec8920a07a6cbccc2397b18ca3e70f48ea695500b8f218910160405180910390a3509396939550929350505050565b6000848152600c6020526040812054819081906001600160a01b039081169087168103612ab75785879350935050506111b7565b85600003612acb5785935091506111b79050565b6111b088888389896124e9565b80600003612ae557505050565b60006001600160a01b038416612b0e57604051632b28b36d60e01b815260040160405180910390fd5b60058101546001600160a01b0390811690851603612b95576005810154604051632e1a7d4d60e01b8152600481018490526001600160a01b0390911690632e1a7d4d90602401600060405180830381600087803b158015612b6e57600080fd5b505af1158015612b82573d6000803e3d6000fd5b50505050612b90838361322f565b612ba0565b612ba084848461334d565b50505050565b606060018383604051602001612bbe9392919061549d565b604051602081830303815290604052905092915050565b6040516001600160a01b0380851660248301528316604482015260648101829052612ba09085906323b872dd60e01b906084015b60408051601f198184030181529190526020810180516001600160e01b03166001600160e01b03199093169290921790915261337d565b60008281526025602090815260408083206001600160a01b0385168085529083528184205486855260249093529083206007018054849360ff1692919083908110612c8d57612c8d6151dd565b6000918252602090912001546001600160a01b031614612cc05760405163054e442960e41b815260040160405180910390fd5b949350505050565b600080866007018660ff1681548110612ce357612ce36151dd565b6000918252602090912001546040516370a0823160e01b81523360048201526001600160a01b03909116915081906370a0823190602401602060405180830381865afa158015612d37573d6000803e3d6000fd5b505050506040513d601f19601f82011682018060405250810190612d5b9190615110565b841115612d9e5760405162461bcd60e51b815260206004820152601160248201527036b7b932903a3430b7103cb7ba9037bbb760791b6044820152606401611038565b600080600089600901805480602002602001604051908101604052809291908181526020018280548015612df157602002820191906000526020600020905b815481526020019060010190808311612ddd575b50505050509050612e058a8a8a8a8561344f565b909350915085831015612e475760405162461bcd60e51b815260206004820152600a6024820152696479203c206d696e447960b01b6044820152606401611038565b6000612e958b6008018a60ff1681548110612e6457612e646151dd565b9060005260206000200154612e8f6402540be400612e8f8f600501548861360590919063ffffffff16565b90613611565b9050612ec688838c60ff1681518110612eb057612eb06151dd565b602002602001015161361d90919063ffffffff16565b8b6009018b60ff1681548110612ede57612ede6151dd565b9060005260206000200181905550612f2581612f1f86858d60ff1681518110612f0957612f096151dd565b602002602001015161362990919063ffffffff16565b90613629565b8b6009018a60ff1681548110612f3d57612f3d6151dd565b6000918252602090912001558015612fa957612f84818c600a018b60ff1681548110612f6b57612f6b6151dd565b906000526020600020015461361d90919063ffffffff16565b8b600a018a60ff1681548110612f9c57612f9c6151dd565b6000918252602090912001555b604080518981526020810186905260ff8c8116828401528b166060820152905133917fc6c1e0630dbe9130cc068028486c0d118ddcea348550819defd5cb8c257f8a38919081900360800190a250919998505050505050505050565b604051636eb1769f60e11b81523060048201526001600160a01b038381166024830152600091839186169063dd62ed3e90604401602060405180830381865afa158015613056573d6000803e3d6000fd5b505050506040513d601f19601f8201168201806040525081019061307a9190615110565b6130849190614a8e565b6040516001600160a01b038516602482015260448101829052909150612ba090859063095ea7b360e01b90606401612c09565b81516000906020840161236164ffffffffff85168284613635565b60006130de838361367c565b6131a45760006130fd6130f18560d81c90565b64ffffffffff1661369f565b91505060006131128464ffffffffff1661369f565b6040517f5479706520617373657274696f6e206661696c65642e20476f7420307800000060208201526001600160b01b031960b086811b8216603d8401526c05c408af0e0cac6e8cac84060f609b1b604784015283901b16605482015290925060009150605e0160405160208183030381529060405290508060405162461bcd60e51b815260040161103891906154ea565b5090919050565b60006124e38261374d565b60405160609060006131cb846020840161375a565b905060006131e28260181c6001600160601b031690565b6001600160601b0316905060006131f8836137ed565b9184525082016020016040525092915050565b600080600061321a8585613803565b9150915061322781613871565b509392505050565b8047101561327f5760405162461bcd60e51b815260206004820152601d60248201527f416464726573733a20696e73756666696369656e742062616c616e63650000006044820152606401611038565b6000826001600160a01b03168260405160006040518083038185875af1925050503d80600081146132cc576040519150601f19603f3d011682016040523d82523d6000602084013e6132d1565b606091505b50509050806133485760405162461bcd60e51b815260206004820152603a60248201527f416464726573733a20756e61626c6520746f2073656e642076616c75652c207260448201527f6563697069656e74206d617920686176652072657665727465640000000000006064820152608401611038565b505050565b6040516001600160a01b03831660248201526044810182905261334890849063a9059cbb60e01b90606401612c09565b60006133d2826040518060400160405280602081526020017f5361666545524332303a206c6f772d6c6576656c2063616c6c206661696c6564815250856001600160a01b0316613a2a9092919063ffffffff16565b80519091501561334857808060200190518101906133f09190614af2565b6133485760405162461bcd60e51b815260206004820152602a60248201527f5361666545524332303a204552433230206f7065726174696f6e20646964206e6044820152691bdd081cdd58d8d9595960b21b6064820152608401611038565b6000806000876008018054806020026020016040519081016040528092919081815260200182805480156134a257602002820191906000526020600020905b81548152602001906001019080831161348e575b5050505050905060006134b58583613a39565b905080518860ff161080156134cd575080518760ff16105b61350e5760405162461bcd60e51b8152602060048201526012602482015271696e646578206f7574206f662072616e676560701b6044820152606401611038565b6000613565828a60ff1681518110613528576135286151dd565b602002602001015161355f858c60ff1681518110613548576135486151dd565b60200260200101518a61360590919063ffffffff16565b9061361d565b9050600061357e6135758c613b4b565b8b8b8587613b56565b905061359e6001612f1f83868d60ff1681518110612f0957612f096151dd565b95506135c06402540be400612e8f8d600401548961360590919063ffffffff16565b94506135f5848a60ff16815181106135da576135da6151dd565b6020026020010151612e8f878961362990919063ffffffff16565b9550505050509550959350505050565b60006111e682846153cd565b60006111e68284615267565b60006111e68284614a8e565b60006111e6828461523a565b6000806136428385614a8e565b9050604051811115613652575060005b806000036136675762ffffff199150506111e6565b5050606092831b9190911790911b1760181b90565b60008164ffffffffff166136908460d81c90565b64ffffffffff16149392505050565b600080601f5b600f8160ff1611156136f45760006136be8260086154fd565b60ff1685901c90506136cf81613d8b565b61ffff16841793508160ff166010146136ea57601084901b93505b50600019016136a5565b50600f5b60ff8160ff1610156137475760006137118260086154fd565b60ff1685901c905061372281613d8b565b61ffff16831792508160ff1660001461373d57601083901b92505b50600019016136f8565b50915091565b60006124e3826003613dbd565b60006040518281111561376d5760206060fd5b506000805b84518110156137da57600085828151811061378f5761378f6151dd565b602002602001015190506137a581848701613e1c565b506137b98160181c6001600160601b031690565b6001600160601b0316830192505080806137d290614b3d565b915050613772565b50606083901b811760181b949350505050565b60006137f882613f73565b6124e39060206153cd565b60008082516041036138395760208301516040840151606085015160001a61382d87828585613fa8565b9450945050505061386a565b82516040036138625760208301516040840151613857868383614092565b93509350505061386a565b506000905060025b9250929050565b60008160048111156138855761388561544c565b0361388d5750565b60018160048111156138a1576138a161544c565b036138ee5760405162461bcd60e51b815260206004820152601860248201527f45434453413a20696e76616c6964207369676e617475726500000000000000006044820152606401611038565b60028160048111156139025761390261544c565b0361394f5760405162461bcd60e51b815260206004820152601f60248201527f45434453413a20696e76616c6964207369676e6174757265206c656e677468006044820152606401611038565b60038160048111156139635761396361544c565b036139bb5760405162461bcd60e51b815260206004820152602260248201527f45434453413a20696e76616c6964207369676e6174757265202773272076616c604482015261756560f01b6064820152608401611038565b60048160048111156139cf576139cf61544c565b03613a275760405162461bcd60e51b815260206004820152602260248201527f45434453413a20696e76616c6964207369676e6174757265202776272076616c604482015261756560f01b6064820152608401611038565b50565b60606111e384846000856140cb565b81518151606091908114613a865760405162461bcd60e51b81526020600482015260146024820152736d69736d61746368206d756c7469706c6965727360601b6044820152606401611038565b60008167ffffffffffffffff811115613aa157613aa161501a565b604051908082528060200260200182016040528015613aca578160200160208202803683370190505b50905060005b82811015613b4257613b1d858281518110613aed57613aed6151dd565b6020026020010151878381518110613b0757613b076151dd565b602002602001015161360590919063ffffffff16565b828281518110613b2f57613b2f6151dd565b6020908102919091010152600101613ad0565b50949350505050565b60006124e3826141fc565b805160009060ff80861690871603613bb05760405162461bcd60e51b815260206004820152601760248201527f636f6d7061726520746f6b656e20746f20697473656c660000000000000000006044820152606401611038565b808660ff16108015613bc45750808560ff16105b613c025760405162461bcd60e51b815260206004820152600f60248201526e1d1bdad95b881b9bdd08199bdd5b99608a1b6044820152606401611038565b6000613c0e848961427d565b905080600080613c1e858c613605565b90506000805b86811015613c9e578b60ff168103613c3e57899150613c71565b8a60ff168114613c6957888181518110613c5a57613c5a6151dd565b60200260200101519150613c71565b600101613c24565b613c7b848361361d565b9350613c94613c8a8389613605565b612e8f8789613605565b9450600101613c24565b50613cc1613cac8388613605565b612e8f6064613cbb888a613605565b90613605565b93506000613cde613cd784612e8f896064613605565b859061361d565b9050600086815b610100811015613d42579091508190613d18613d0a8a612f1f8761355f876002613605565b612e8f8a61355f8680613605565b9150613d2482846143e3565b15613d3a57509850612361975050505050505050565b600101613ce5565b5060405162461bcd60e51b815260206004820152601e60248201527f417070726f78696d6174696f6e20646964206e6f7420636f6e766572676500006044820152606401611038565b6000613d9d60048360ff16901c6143fa565b60ff1661ffff919091161760081b613db4826143fa565b60ff1617919050565b6000816003811115613dd157613dd161544c565b60ff16613ddd84614547565b60ff161480156111e65750816003811115613dfa57613dfa61544c565b613e038461455b565b6003811115613e1457613e1461544c565b149392505050565b600062ffffff1980841603613e845760405162461bcd60e51b815260206004820152602860248201527f54797065644d656d566965772f636f7079546f202d204e756c6c20706f696e7460448201526732b9103232b932b360c11b6064820152608401611038565b613e8d83614576565b613eed5760405162461bcd60e51b815260206004820152602b60248201527f54797065644d656d566965772f636f7079546f202d20496e76616c696420706f60448201526a34b73a32b9103232b932b360a91b6064820152608401611038565b6000613f028460181c6001600160601b031690565b6001600160601b031690506000613f228560781c6001600160601b031690565b6001600160601b031690506000604051905084811115613f425760206060fd5b8285848460045afa506114c2613f588760d81c90565b64ffffffffff60601b606091821b168717901b841760181b90565b60006020613f8a8360181c6001600160601b031690565b613f9e906001600160601b03166020614a8e565b6124e39190615267565b6000807f7fffffffffffffffffffffffffffffff5d576e7357a4501ddfe92f46681b20a0831115613fdf57506000905060036111b7565b8460ff16601b14158015613ff757508460ff16601c14155b1561400857506000905060046111b7565b6040805160008082526020820180845289905260ff881692820192909252606081018690526080810185905260019060a0016020604051602081039080840390855afa15801561405c573d6000803e3d6000fd5b5050604051601f1901519150506001600160a01b038116614085576000600192509250506111b7565b9660009650945050505050565b6000806001600160ff1b038316816140af60ff86901c601b614a8e565b90506140bd87828885613fa8565b935093505050935093915050565b60608247101561412c5760405162461bcd60e51b815260206004820152602660248201527f416464726573733a20696e73756666696369656e742062616c616e636520666f6044820152651c8818d85b1b60d21b6064820152608401611038565b6001600160a01b0385163b6141835760405162461bcd60e51b815260206004820152601d60248201527f416464726573733a2063616c6c20746f206e6f6e2d636f6e74726163740000006044820152606401611038565b600080866001600160a01b0316858760405161419f919061528f565b60006040518083038185875af1925050503d80600081146141dc576040519150601f19603f3d011682016040523d82523d6000602084013e6141e1565b606091505b50915091506141f18282866145b3565b979650505050505050565b6003810154600182015460009190428211156111e657600284015484548083111561424f576114c26142486142318685613629565b612e8f61423e4287613629565b613cbb8887613629565b829061361d565b6114c261427661425f8685613629565b612e8f61426c4287613629565b613cbb8689613629565b8290613629565b815160009081805b828110156142c3576142b98682815181106142a2576142a26151dd565b60200260200101518361361d90919063ffffffff16565b9150600101614285565b50806000036142d7576000925050506124e3565b600081816142e58786613605565b905060005b6101008110156143a4578260005b8781101561432d57614323614319898d8481518110613b0757613b076151dd565b612e8f8488613605565b91506001016142f8565b50929350839261437b61435b61434883613cbb8b600161361d565b61355f6064612e8f89613cbb8a84613629565b612e8f86613cbb61436c868d613605565b61355f6064612e8f8b8f613605565b935061438784866143e3565b1561439b57839750505050505050506124e3565b506001016142ea565b5060405162461bcd60e51b81526020600482015260136024820152724420646f6573206e6f7420636f6e766572676560681b6044820152606401611038565b600060016143f184846145ec565b11159392505050565b600060f08083179060ff821690036144155750603092915050565b8060ff1660f1036144295750603192915050565b8060ff1660f20361443d5750603292915050565b8060ff1660f3036144515750603392915050565b8060ff1660f4036144655750603492915050565b8060ff1660f5036144795750603592915050565b8060ff1660f60361448d5750603692915050565b8060ff1660f7036144a15750603792915050565b8060ff1660f8036144b55750603892915050565b8060ff1660f9036144c95750603992915050565b8060ff1660fa036144dd5750606192915050565b8060ff1660fb036144f15750606292915050565b8060ff1660fc036145055750606392915050565b8060ff1660fd036145195750606492915050565b8060ff1660fe0361452d5750606592915050565b8060ff1660ff036145415750606692915050565b50919050565b60006124e362ffffff198316826001614611565b600060d882901c60ff1660038111156124e3576124e361544c565b60006145828260d81c90565b64ffffffffff1664ffffffffff0361459c57506000919050565b60006145a783614641565b60405110199392505050565b606083156145c25750816111e6565b8251156145d25782518084602001fd5b8160405162461bcd60e51b815260040161103891906154ea565b60008183111561460757614600828461523a565b90506124e3565b6111e6838361523a565b600061461e826020615526565b6146299060086154fd565b60ff1661463785858561467a565b901c949350505050565b60006146568260181c6001600160601b031690565b6146698360781c6001600160601b031690565b016001600160601b03169050919050565b60008160ff1660000361468f575060006111e6565b6146a28460181c6001600160601b031690565b6001600160601b03166146b860ff841685614a8e565b111561471c576147036146d48560781c6001600160601b031690565b6001600160601b03166146f08660181c6001600160601b031690565b6001600160601b0316858560ff166147d6565b60405162461bcd60e51b815260040161103891906154ea565b60208260ff1611156147965760405162461bcd60e51b815260206004820152603a60248201527f54797065644d656d566965772f696e646578202d20417474656d70746564207460448201527f6f20696e646578206d6f7265207468616e2033322062797465730000000000006064820152608401611038565b6008820260006147af8660781c6001600160601b031690565b6001600160601b031690506000600160ff1b60001984011d91909501511695945050505050565b606060006147e38661369f565b91505060006147f18661369f565b91505060006147ff8661369f565b915050600061480d8661369f565b915050838383836040516020016148279493929190615549565b604051602081830303815290604052945050505050949350505050565b828054828255906000526020600020908101928215614897579160200282015b828111156148975781546001600160a01b0319166001600160a01b03843516178255602090920191600190910190614864565b506148a39291506148a7565b5090565b5b808211156148a357600081556001016148a8565b6000602082840312156148ce57600080fd5b5035919050565b6020808252825182820181905260009190848201906040850190845b818110156149165783516001600160a01b0316835292840192918401916001016148f1565b50909695505050505050565b6001600160a01b0381168114613a2757600080fd5b803561104181614922565b60006020828403121561495457600080fd5b81356111e681614922565b60006020828403121561497157600080fd5b813567ffffffffffffffff81111561498857600080fd5b8201606081850312156111e657600080fd5b63ffffffff81168114613a2757600080fd5b80356110418161499a565b60008060008060008060c087890312156149d057600080fd5b863567ffffffffffffffff8111156149e757600080fd5b8701610180818a0312156149fa57600080fd5b95506020870135945060408701359350606087013592506080870135614a1f8161499a565b915060a0870135614a2f81614922565b809150509295509295509295565b600060208284031215614a4f57600080fd5b813567ffffffffffffffff811115614a6657600080fd5b820160e081850312156111e657600080fd5b634e487b7160e01b600052601160045260246000fd5b60008219821115614aa157614aa1614a78565b500190565b6000823561017e19833603018112614abd57600080fd5b9190910192915050565b600060208284031215614ad957600080fd5b81356111e68161499a565b8015158114613a2757600080fd5b600060208284031215614b0457600080fd5b81516111e681614ae4565b60008060408385031215614b2257600080fd5b8251614b2d8161499a565b6020939093015192949293505050565b600060018201614b4f57614b4f614a78565b5060010190565b600060208284031215614b6857600080fd5b81516111e681614922565b60005b83811015614b8e578181015183820152602001614b76565b83811115612ba05750506000910152565b60008151808452614bb7816020860160208601614b73565b601f01601f19169290920160200192915050565b63ffffffff841681528260208201526060604082015260006123616060830184614b9f565b6000823561017e19833603018112614c0757600080fd5b90910192915050565b6000808335601e19843603018112614c2757600080fd5b830160208101925035905067ffffffffffffffff811115614c4757600080fd5b80360382131561386a57600080fd5b81835281816020850137506000828201602090810191909152601f909101601f19169091010190565b803561104181614ae4565b6000610180614ca984614c9c85614937565b6001600160a01b03169052565b614cb66020840184614c10565b826020870152614cc98387018284614c56565b92505050614cd9604084016149ac565b63ffffffff166040850152614cf0606084016149ac565b63ffffffff166060850152614d0760808401614937565b6001600160a01b03166080850152614d2160a08401614937565b6001600160a01b031660a0850152614d3b60c08401614c7f565b151560c0850152614d4e60e08401614c7f565b151560e0850152610100614d63848201614937565b6001600160a01b031690850152610120838101359085015261014080840135908501526101609283013592909301919091525090565b6000610100808352614dab8889614bf0565b606082850152614dbf610160850182614c8a565b9150506020880135614dd081614922565b60018060a01b0380821661012086015260408a013561014086015280895116602086015260208901516040860152604089015160608601528060608a015116608086015250508560a084015282810360c0840152614e2e8186614b9f565b9150506114c260e08301846001600160a01b03169052565b6000808335601e19843603018112614e5d57600080fd5b830160208101925035905067ffffffffffffffff811115614e7d57600080fd5b8060051b360382131561386a57600080fd5b8183526000602080850194508260005b85811015614ecd578135614eb281614922565b6001600160a01b031687529582019590820190600101614e9f565b509495945050505050565b81835260006020808501808196508560051b810191508460005b87811015614f28578284038952614f098288614c10565b614f14868284614c56565b9a87019a9550505090840190600101614ef2565b5091979650505050505050565b608081526000614f458687614bf0565b60e06080840152614f5a610160840182614c8a565b90506020870135614f6a81614922565b6001600160a01b031660a0840152614f856040880188614e46565b607f19808685030160c0870152614f9d848385614e8f565b9350614fac60608b018b614e46565b93509150808685030160e087015250614fc6838383614ed8565b92505050608087013561010084015260a0870135610120840152614fec60c08801614937565b6001600160a01b03908116610140850152868116602085015260408401869052841660608401529050612361565b634e487b7160e01b600052604160045260246000fd5b600067ffffffffffffffff8084111561504b5761504b61501a565b604051601f8501601f19908116603f011681019082821181831017156150735761507361501a565b8160405280935085815286868601111561508c57600080fd5b61509a866020830187614b73565b5050509392505050565b6000602082840312156150b657600080fd5b815167ffffffffffffffff8111156150cd57600080fd5b8201601f810184136150de57600080fd5b612cc084825160208401615030565b6000602082840312156150ff57600080fd5b815160ff811681146111e657600080fd5b60006020828403121561512257600080fd5b5051919050565b86815260c06020820152600061514260c0830188614c8a565b6001600160a01b0396909616604083015250606081019390935263ffffffff91909116608083015260a09091015292915050565b6000808335601e1984360301811261518d57600080fd5b83018035915067ffffffffffffffff8211156151a857600080fd5b6020019150600581901b360382131561386a57600080fd5b6000602082840312156151d257600080fd5b81356111e681614ae4565b634e487b7160e01b600052603260045260246000fd5b6000808335601e1984360301811261520a57600080fd5b83018035915067ffffffffffffffff82111561522557600080fd5b60200191503681900382131561386a57600080fd5b60008282101561524c5761524c614a78565b500390565b634e487b7160e01b600052601260045260246000fd5b60008261527657615276615251565b500490565b60008261528a5761528a615251565b500690565b60008251614abd818460208701614b73565b8183823760009101908152919050565b6020815281516020820152602082015160408201526000604083015160018060a01b0380821660608501528060608601511660808501528060808601511660a0850152505060a083015160e060c0840152615310610100840182614b9f565b905060c0840151601f198483030160e08501526123618282614b9f565b6000806040838503121561534057600080fd5b825161534b81614ae4565b602084015190925067ffffffffffffffff81111561536857600080fd5b8301601f8101851361537957600080fd5b61538885825160208401615030565b9150509250929050565b63ffffffff8616815284602082015260018060a01b0384166040820152821515606082015260a0608082015260006141f160a0830184614b9f565b60008160001904831182151516156153e7576153e7614a78565b500290565b85815260008551615404816020850160208a01614b73565b80830190508560208201528451615422816040840160208901614b73565b60f89490941b6001600160f81b031916604091909401908101939093525050604101949350505050565b634e487b7160e01b600052602160045260246000fd5b6000600487106154745761547461544c565b5060f89590951b8552600185019390935260218401919091526041830152606182015260810190565b6000600285106154af576154af61544c565b5060f89390931b835260e09190911b6001600160e01b031916600183015260601b6bffffffffffffffffffffffff1916600582015260190190565b6020815260006111e66020830184614b9f565b600060ff821660ff84168160ff048111821515161561551e5761551e614a78565b029392505050565b600060ff821660ff84168082101561554057615540614a78565b90039392505050565b7f54797065644d656d566965772f696e646578202d204f76657272616e20746865815274040ecd2caee5c40a6d8d2c6ca40d2e640c2e84060f605b1b60208201526001600160d01b031960d086811b821660358401526e040eed2e8d040d8cadccee8d04060f608b1b603b840181905286821b8316604a8501527f2e20417474656d7074656420746f20696e646578206174206f666673657420306050850152600f60fb1b607085015285821b83166071850152607784015283901b166086820152601760f91b608c8201526000608d82016114c256fea2646970667358221220294ebe90de60427f31ccbe57fe4e06077506a7c843e1e0553bcd92e6cbc1aaea64736f6c634300080f0033",
  "devdoc": {
    "events": {
      "AavePortalMintUnbacked(bytes32,address,address,uint256)": {
        "params": {
          "amount": "- The amount of asset that was provided by Aave Portal",
          "asset": "- The asset that was provided by Aave Portal",
          "router": "- The authorized router that used Aave Portal liquidity",
          "transferId": "- The unique identifier of the crosschain transaction"
        }
      },
      "Executed(bytes32,address,((address,bytes,uint32,uint32,address,address,bool,bool,address,uint256,uint256,uint256),address,address[],bytes[],uint256,uint256,address),address,uint256,address)": {
        "details": "`execute` may be called when providing fast liquidity *or* when processing a reconciled transfer",
        "params": {
          "args": "- The ExecuteArgs provided to the function",
          "caller": "- The account that called the function",
          "to": "- The CallParams.to provided, created as indexed parameter",
          "transactingAmount": "- The amount of transferring asset the to address receives or the external call is executed with",
          "transactingAsset": "- The asset the to gets or the external call is executed with. Should be the adopted asset on that chain.",
          "transferId": "- The unique identifier of the crosschain transfer"
        }
      },
      "ExecutorUpdated(address,address,address)": {
        "params": {
          "caller": "- The account that called the function",
          "newExecutor": "- The executor new value",
          "oldExecutor": "- The executor old value"
        }
      },
      "ForcedReceiveLocal(bytes32,bytes32,uint32,uint256)": {
        "params": {
          "amount": "- The amount for the transfer",
          "canonicalDomain": "- The canonical domain for the local asset",
          "canonicalId": "- The canonical identifier for the local asset",
          "transferId": "- The unique identifier of the crosschain transaction"
        }
      },
      "PromiseRouterUpdated(address,address,address)": {
        "params": {
          "caller": "- The account that called the function",
          "newRouter": "- The promiseRouter new value",
          "oldRouter": "- The promiseRouter old value"
        }
      },
      "SponsorVaultUpdated(address,address,address)": {
        "params": {
          "caller": "- The account that called the function",
          "newSponsorVault": "- The sponsorVault new value",
          "oldSponsorVault": "- The sponsorVault old value"
        }
      },
      "TransferRelayerFeesUpdated(bytes32,uint256,address)": {
        "params": {
          "caller": "- The account that called the function",
          "relayerFee": "- The updated amount of relayer fee in native asset",
          "transferId": "- The unique identifier of the crosschain transaction"
        }
      }
    },
    "kind": "dev",
    "methods": {
      "bumpTransfer(bytes32)": {
        "params": {
          "_transferId": "- The unique identifier of the crosschain transaction"
        }
      },
      "execute(((address,bytes,uint32,uint32,address,address,bool,bool,address,uint256,uint256,uint256),address,address[],bytes[],uint256,uint256,address))": {
        "details": "Can be called before or after `handle` [reconcile] is called (regarding the same transfer), depending on whether the fast liquidity route (i.e. funds provided by routers) is being used for this transfer. As a result, executed calldata (including properties like `originSender`) may or may not be verified depending on whether the reconcile has been completed (i.e. the optimistic confirmation period has elapsed).",
        "params": {
          "_args": "- ExecuteArgs arguments."
        },
        "returns": {
          "_0": "bytes32 - The transfer ID of the crosschain transfer. Should match the xcall's transfer ID in order for reconciliation to occur."
        }
      },
      "forceReceiveLocal((address,bytes,uint32,uint32,address,address,bool,bool,address,uint256,uint256,uint256),uint256,uint256,bytes32,uint32,address)": {
        "details": "Should be called in situations where transfers are facing unfavorable slippage conditions for extended periods",
        "params": {
          "_amount": "- The amount of transferring asset the tx called xcall with",
          "_canonicalDomain": "- The domain of the canonical asset associated with the transfer",
          "_canonicalId": "- The identifier of the canonical asset associated with the transfer",
          "_nonce": "- The nonce for the transfer",
          "_originSender": "- The msg.sender of the origin call",
          "_params": "- The call params for the transaction"
        }
      },
      "xcall(((address,bytes,uint32,uint32,address,address,bool,bool,address,uint256,uint256,uint256),address,uint256))": {
        "details": "For ERC20 transfers, this contract must have approval to transfer the input (transacting) assets. The adopted assets will be swapped for their local nomad asset counterparts (i.e. bridgeable tokens) via the configured AMM if necessary. In the event that the adopted assets *are* local nomad assets, no swap is needed. The local tokens will then be sent via the bridge router. If the local assets are representational for an asset on another chain, we will burn the tokens here. If the local assets are canonical (meaning that the adopted<>local asset pairing is native to this chain), we will custody the tokens here. For native transfers, the native asset will be wrapped by depositing them to the configured Wrapper contract. Next, the wrapper tokens (e.g. WETH) are swapped for their local nomad asset counterparts via the configured AMM. Those local tokens will then be sent via the bridge router. Since the local assets would always be canonical in this case, custody of the local assets will be kept here.",
        "params": {
          "_args": "- The XCallArgs arguments."
        },
        "returns": {
          "_0": "bytes32 - The transfer ID of the newly created crosschain transfer."
        }
      }
    },
    "version": 1
  },
  "userdoc": {
    "events": {
      "AavePortalMintUnbacked(bytes32,address,address,uint256)": {
        "notice": "Emitted when a router used Aave Portal liquidity for fast transfer"
      },
      "Executed(bytes32,address,((address,bytes,uint32,uint32,address,address,bool,bool,address,uint256,uint256,uint256),address,address[],bytes[],uint256,uint256,address),address,uint256,address)": {
        "notice": "Emitted when `execute` is called on the destination chain"
      },
      "ExecutorUpdated(address,address,address)": {
        "notice": "Emitted when the executor variable is updated"
      },
      "ForcedReceiveLocal(bytes32,bytes32,uint32,uint256)": {
        "notice": "Emitted when a transfer will accept the local asset instead of the previously specified adopted asset."
      },
      "PromiseRouterUpdated(address,address,address)": {
        "notice": "Emitted when the promiseRouter variable is updated"
      },
      "SponsorVaultUpdated(address,address,address)": {
        "notice": "Emitted when the sponsorVault variable is updated"
      },
      "TransferRelayerFeesUpdated(bytes32,uint256,address)": {
        "notice": "Emitted when `bumpTransfer` is called by an user on the origin domain"
      },
      "XCalled(bytes32,((address,bytes,uint32,uint32,address,address,bool,bool,address,uint256,uint256,uint256),address,uint256),(address,uint256,uint256,address),uint256,bytes,address)": {
        "notice": "Emitted when `xcall` is called on the origin domain"
      }
    },
    "kind": "user",
    "methods": {
      "bumpTransfer(bytes32)": {
        "notice": "Anyone can call this function on the origin domain to increase the relayer fee for a transfer."
      },
      "execute(((address,bytes,uint32,uint32,address,address,bool,bool,address,uint256,uint256,uint256),address,address[],bytes[],uint256,uint256,address))": {
        "notice": "Called on a destination domain to disburse correct assets to end recipient and execute any included calldata."
      },
      "forceReceiveLocal((address,bytes,uint32,uint32,address,address,bool,bool,address,uint256,uint256,uint256),uint256,uint256,bytes32,uint32,address)": {
        "notice": "A user-specified agent can call this to accept the local asset instead of the previously specified adopted asset."
      },
      "xcall(((address,bytes,uint32,uint32,address,address,bool,bool,address,uint256,uint256,uint256),address,uint256))": {
        "notice": "Initiates a cross-chain transfer of funds, calldata, and/or various named properties using the nomad network."
      }
    },
    "version": 1
  },
  "storageLayout": {
    "storage": [
      {
        "astId": 5318,
        "contract": "contracts/core/connext/facets/BridgeFacet.sol:BridgeFacet",
        "label": "s",
        "offset": 0,
        "slot": "0",
        "type": "t_struct(AppStorage)20695_storage"
      }
    ],
    "types": {
      "t_address": {
        "encoding": "inplace",
        "label": "address",
        "numberOfBytes": "20"
      },
      "t_array(t_address)dyn_storage": {
        "base": "t_address",
        "encoding": "dynamic_array",
        "label": "address[]",
        "numberOfBytes": "32"
      },
      "t_array(t_contract(IERC20)3290)dyn_storage": {
        "base": "t_contract(IERC20)3290",
        "encoding": "dynamic_array",
        "label": "contract IERC20[]",
        "numberOfBytes": "32"
      },
      "t_array(t_uint256)dyn_storage": {
        "base": "t_uint256",
        "encoding": "dynamic_array",
        "label": "uint256[]",
        "numberOfBytes": "32"
      },
      "t_bool": {
        "encoding": "inplace",
        "label": "bool",
        "numberOfBytes": "1"
      },
      "t_bytes32": {
        "encoding": "inplace",
        "label": "bytes32",
        "numberOfBytes": "32"
      },
      "t_contract(IERC20)3290": {
        "encoding": "inplace",
        "label": "contract IERC20",
        "numberOfBytes": "20"
      },
      "t_contract(IExecutor)17941": {
        "encoding": "inplace",
        "label": "contract IExecutor",
        "numberOfBytes": "20"
      },
      "t_contract(ISponsorVault)18003": {
        "encoding": "inplace",
        "label": "contract ISponsorVault",
        "numberOfBytes": "20"
      },
      "t_contract(IStableSwap)18313": {
        "encoding": "inplace",
        "label": "contract IStableSwap",
        "numberOfBytes": "20"
      },
      "t_contract(ITokenRegistry)18402": {
        "encoding": "inplace",
        "label": "contract ITokenRegistry",
        "numberOfBytes": "20"
      },
      "t_contract(IWrapped)18413": {
        "encoding": "inplace",
        "label": "contract IWrapped",
        "numberOfBytes": "20"
      },
      "t_contract(LPToken)13942": {
        "encoding": "inplace",
        "label": "contract LPToken",
        "numberOfBytes": "20"
      },
      "t_contract(PromiseRouter)26221": {
        "encoding": "inplace",
        "label": "contract PromiseRouter",
        "numberOfBytes": "20"
      },
      "t_contract(RelayerFeeRouter)26783": {
        "encoding": "inplace",
        "label": "contract RelayerFeeRouter",
        "numberOfBytes": "20"
      },
      "t_contract(XAppConnectionManager)29391": {
        "encoding": "inplace",
        "label": "contract XAppConnectionManager",
        "numberOfBytes": "20"
      },
      "t_mapping(t_address,t_address)": {
        "encoding": "mapping",
        "key": "t_address",
        "label": "mapping(address => address)",
        "numberOfBytes": "32",
        "value": "t_address"
      },
      "t_mapping(t_address,t_bool)": {
        "encoding": "mapping",
        "key": "t_address",
        "label": "mapping(address => bool)",
        "numberOfBytes": "32",
        "value": "t_bool"
      },
      "t_mapping(t_address,t_mapping(t_address,t_uint256))": {
        "encoding": "mapping",
        "key": "t_address",
        "label": "mapping(address => mapping(address => uint256))",
        "numberOfBytes": "32",
        "value": "t_mapping(t_address,t_uint256)"
      },
      "t_mapping(t_address,t_struct(TokenId)19702_storage)": {
        "encoding": "mapping",
        "key": "t_address",
        "label": "mapping(address => struct ConnextMessage.TokenId)",
        "numberOfBytes": "32",
        "value": "t_struct(TokenId)19702_storage"
      },
      "t_mapping(t_address,t_uint256)": {
        "encoding": "mapping",
        "key": "t_address",
        "label": "mapping(address => uint256)",
        "numberOfBytes": "32",
        "value": "t_uint256"
      },
      "t_mapping(t_address,t_uint8)": {
        "encoding": "mapping",
        "key": "t_address",
        "label": "mapping(address => uint8)",
        "numberOfBytes": "32",
        "value": "t_uint8"
      },
      "t_mapping(t_bytes32,t_address)": {
        "encoding": "mapping",
        "key": "t_bytes32",
        "label": "mapping(bytes32 => address)",
        "numberOfBytes": "32",
        "value": "t_address"
      },
      "t_mapping(t_bytes32,t_array(t_address)dyn_storage)": {
        "encoding": "mapping",
        "key": "t_bytes32",
        "label": "mapping(bytes32 => address[])",
        "numberOfBytes": "32",
        "value": "t_array(t_address)dyn_storage"
      },
      "t_mapping(t_bytes32,t_bool)": {
        "encoding": "mapping",
        "key": "t_bytes32",
        "label": "mapping(bytes32 => bool)",
        "numberOfBytes": "32",
        "value": "t_bool"
      },
      "t_mapping(t_bytes32,t_contract(IStableSwap)18313)": {
        "encoding": "mapping",
        "key": "t_bytes32",
        "label": "mapping(bytes32 => contract IStableSwap)",
        "numberOfBytes": "32",
        "value": "t_contract(IStableSwap)18313"
      },
      "t_mapping(t_bytes32,t_mapping(t_address,t_uint8))": {
        "encoding": "mapping",
        "key": "t_bytes32",
        "label": "mapping(bytes32 => mapping(address => uint8))",
        "numberOfBytes": "32",
        "value": "t_mapping(t_address,t_uint8)"
      },
      "t_mapping(t_bytes32,t_struct(Swap)22121_storage)": {
        "encoding": "mapping",
        "key": "t_bytes32",
        "label": "mapping(bytes32 => struct SwapUtils.Swap)",
        "numberOfBytes": "32",
        "value": "t_struct(Swap)22121_storage"
      },
      "t_mapping(t_bytes32,t_uint256)": {
        "encoding": "mapping",
        "key": "t_bytes32",
        "label": "mapping(bytes32 => uint256)",
        "numberOfBytes": "32",
        "value": "t_uint256"
      },
      "t_mapping(t_uint32,t_bytes32)": {
        "encoding": "mapping",
        "key": "t_uint32",
        "label": "mapping(uint32 => bytes32)",
        "numberOfBytes": "32",
        "value": "t_bytes32"
      },
      "t_struct(AppStorage)20695_storage": {
        "encoding": "inplace",
        "label": "struct AppStorage",
        "members": [
          {
            "astId": 20560,
            "contract": "contracts/core/connext/facets/BridgeFacet.sol:BridgeFacet",
            "label": "initialized",
            "offset": 0,
            "slot": "0",
            "type": "t_bool"
          },
          {
            "astId": 20562,
            "contract": "contracts/core/connext/facets/BridgeFacet.sol:BridgeFacet",
            "label": "LIQUIDITY_FEE_NUMERATOR",
            "offset": 0,
            "slot": "1",
            "type": "t_uint256"
          },
          {
            "astId": 20564,
            "contract": "contracts/core/connext/facets/BridgeFacet.sol:BridgeFacet",
            "label": "LIQUIDITY_FEE_DENOMINATOR",
            "offset": 0,
            "slot": "2",
            "type": "t_uint256"
          },
          {
            "astId": 20567,
            "contract": "contracts/core/connext/facets/BridgeFacet.sol:BridgeFacet",
            "label": "relayerFeeRouter",
            "offset": 0,
            "slot": "3",
            "type": "t_contract(RelayerFeeRouter)26783"
          },
          {
            "astId": 20570,
            "contract": "contracts/core/connext/facets/BridgeFacet.sol:BridgeFacet",
            "label": "promiseRouter",
            "offset": 0,
            "slot": "4",
            "type": "t_contract(PromiseRouter)26221"
          },
          {
            "astId": 20573,
            "contract": "contracts/core/connext/facets/BridgeFacet.sol:BridgeFacet",
            "label": "wrapper",
            "offset": 0,
            "slot": "5",
            "type": "t_contract(IWrapped)18413"
          },
          {
            "astId": 20575,
            "contract": "contracts/core/connext/facets/BridgeFacet.sol:BridgeFacet",
            "label": "nonce",
            "offset": 0,
            "slot": "6",
            "type": "t_uint256"
          },
          {
            "astId": 20578,
            "contract": "contracts/core/connext/facets/BridgeFacet.sol:BridgeFacet",
            "label": "executor",
            "offset": 0,
            "slot": "7",
            "type": "t_contract(IExecutor)17941"
          },
          {
            "astId": 20580,
            "contract": "contracts/core/connext/facets/BridgeFacet.sol:BridgeFacet",
            "label": "domain",
            "offset": 20,
            "slot": "7",
            "type": "t_uint32"
          },
          {
            "astId": 20583,
            "contract": "contracts/core/connext/facets/BridgeFacet.sol:BridgeFacet",
            "label": "tokenRegistry",
            "offset": 0,
            "slot": "8",
            "type": "t_contract(ITokenRegistry)18402"
          },
          {
            "astId": 20588,
            "contract": "contracts/core/connext/facets/BridgeFacet.sol:BridgeFacet",
            "label": "adoptedToLocalPools",
            "offset": 0,
            "slot": "9",
            "type": "t_mapping(t_bytes32,t_contract(IStableSwap)18313)"
          },
          {
            "astId": 20592,
            "contract": "contracts/core/connext/facets/BridgeFacet.sol:BridgeFacet",
            "label": "approvedAssets",
            "offset": 0,
            "slot": "10",
            "type": "t_mapping(t_bytes32,t_bool)"
          },
          {
            "astId": 20597,
            "contract": "contracts/core/connext/facets/BridgeFacet.sol:BridgeFacet",
            "label": "adoptedToCanonical",
            "offset": 0,
            "slot": "11",
            "type": "t_mapping(t_address,t_struct(TokenId)19702_storage)"
          },
          {
            "astId": 20601,
            "contract": "contracts/core/connext/facets/BridgeFacet.sol:BridgeFacet",
            "label": "canonicalToAdopted",
            "offset": 0,
            "slot": "12",
            "type": "t_mapping(t_bytes32,t_address)"
          },
          {
            "astId": 20605,
            "contract": "contracts/core/connext/facets/BridgeFacet.sol:BridgeFacet",
            "label": "reconciledTransfers",
            "offset": 0,
            "slot": "13",
            "type": "t_mapping(t_bytes32,t_bool)"
          },
          {
            "astId": 20610,
            "contract": "contracts/core/connext/facets/BridgeFacet.sol:BridgeFacet",
            "label": "routedTransfers",
            "offset": 0,
            "slot": "14",
            "type": "t_mapping(t_bytes32,t_array(t_address)dyn_storage)"
          },
          {
            "astId": 20616,
            "contract": "contracts/core/connext/facets/BridgeFacet.sol:BridgeFacet",
            "label": "routerBalances",
            "offset": 0,
            "slot": "15",
            "type": "t_mapping(t_address,t_mapping(t_address,t_uint256))"
          },
          {
            "astId": 20620,
            "contract": "contracts/core/connext/facets/BridgeFacet.sol:BridgeFacet",
            "label": "approvedRelayers",
            "offset": 0,
            "slot": "16",
            "type": "t_mapping(t_address,t_bool)"
          },
          {
            "astId": 20624,
            "contract": "contracts/core/connext/facets/BridgeFacet.sol:BridgeFacet",
            "label": "relayerFees",
            "offset": 0,
            "slot": "17",
            "type": "t_mapping(t_bytes32,t_uint256)"
          },
          {
            "astId": 20628,
            "contract": "contracts/core/connext/facets/BridgeFacet.sol:BridgeFacet",
            "label": "transferRelayer",
            "offset": 0,
            "slot": "18",
            "type": "t_mapping(t_bytes32,t_address)"
          },
          {
            "astId": 20630,
            "contract": "contracts/core/connext/facets/BridgeFacet.sol:BridgeFacet",
            "label": "maxRoutersPerTransfer",
            "offset": 0,
            "slot": "19",
            "type": "t_uint256"
          },
          {
            "astId": 20633,
            "contract": "contracts/core/connext/facets/BridgeFacet.sol:BridgeFacet",
            "label": "sponsorVault",
            "offset": 0,
            "slot": "20",
            "type": "t_contract(ISponsorVault)18003"
          },
          {
            "astId": 20637,
            "contract": "contracts/core/connext/facets/BridgeFacet.sol:BridgeFacet",
            "label": "remotes",
            "offset": 0,
            "slot": "21",
            "type": "t_mapping(t_uint32,t_bytes32)"
          },
          {
            "astId": 20640,
            "contract": "contracts/core/connext/facets/BridgeFacet.sol:BridgeFacet",
            "label": "xAppConnectionManager",
            "offset": 0,
            "slot": "22",
            "type": "t_contract(XAppConnectionManager)29391"
          },
          {
            "astId": 20642,
            "contract": "contracts/core/connext/facets/BridgeFacet.sol:BridgeFacet",
            "label": "_proposed",
            "offset": 0,
            "slot": "23",
            "type": "t_address"
          },
          {
            "astId": 20644,
            "contract": "contracts/core/connext/facets/BridgeFacet.sol:BridgeFacet",
            "label": "_proposedOwnershipTimestamp",
            "offset": 0,
            "slot": "24",
            "type": "t_uint256"
          },
          {
            "astId": 20646,
            "contract": "contracts/core/connext/facets/BridgeFacet.sol:BridgeFacet",
            "label": "_routerOwnershipRenounced",
            "offset": 0,
            "slot": "25",
            "type": "t_bool"
          },
          {
            "astId": 20648,
            "contract": "contracts/core/connext/facets/BridgeFacet.sol:BridgeFacet",
            "label": "_routerOwnershipTimestamp",
            "offset": 0,
            "slot": "26",
            "type": "t_uint256"
          },
          {
            "astId": 20650,
            "contract": "contracts/core/connext/facets/BridgeFacet.sol:BridgeFacet",
            "label": "_assetOwnershipRenounced",
            "offset": 0,
            "slot": "27",
            "type": "t_bool"
          },
          {
            "astId": 20652,
            "contract": "contracts/core/connext/facets/BridgeFacet.sol:BridgeFacet",
            "label": "_assetOwnershipTimestamp",
            "offset": 0,
            "slot": "28",
            "type": "t_uint256"
          },
          {
            "astId": 20655,
            "contract": "contracts/core/connext/facets/BridgeFacet.sol:BridgeFacet",
            "label": "routerPermissionInfo",
            "offset": 0,
            "slot": "29",
            "type": "t_struct(RouterPermissionsManagerInfo)20558_storage"
          },
          {
            "astId": 20657,
            "contract": "contracts/core/connext/facets/BridgeFacet.sol:BridgeFacet",
            "label": "_status",
            "offset": 0,
            "slot": "35",
            "type": "t_uint256"
          },
          {
            "astId": 20663,
            "contract": "contracts/core/connext/facets/BridgeFacet.sol:BridgeFacet",
            "label": "swapStorages",
            "offset": 0,
            "slot": "36",
            "type": "t_mapping(t_bytes32,t_struct(Swap)22121_storage)"
          },
          {
            "astId": 20670,
            "contract": "contracts/core/connext/facets/BridgeFacet.sol:BridgeFacet",
            "label": "tokenIndexes",
            "offset": 0,
            "slot": "37",
            "type": "t_mapping(t_bytes32,t_mapping(t_address,t_uint8))"
          },
          {
            "astId": 20673,
            "contract": "contracts/core/connext/facets/BridgeFacet.sol:BridgeFacet",
            "label": "_paused",
            "offset": 0,
            "slot": "38",
            "type": "t_bool"
          },
          {
            "astId": 20676,
            "contract": "contracts/core/connext/facets/BridgeFacet.sol:BridgeFacet",
            "label": "aavePool",
            "offset": 1,
            "slot": "38",
            "type": "t_address"
          },
          {
            "astId": 20679,
            "contract": "contracts/core/connext/facets/BridgeFacet.sol:BridgeFacet",
            "label": "aavePortalFeeNumerator",
            "offset": 0,
            "slot": "39",
            "type": "t_uint256"
          },
          {
            "astId": 20684,
            "contract": "contracts/core/connext/facets/BridgeFacet.sol:BridgeFacet",
            "label": "portalDebt",
            "offset": 0,
            "slot": "40",
            "type": "t_mapping(t_bytes32,t_uint256)"
          },
          {
            "astId": 20689,
            "contract": "contracts/core/connext/facets/BridgeFacet.sol:BridgeFacet",
            "label": "portalFeeDebt",
            "offset": 0,
            "slot": "41",
            "type": "t_mapping(t_bytes32,t_uint256)"
          },
          {
            "astId": 20694,
            "contract": "contracts/core/connext/facets/BridgeFacet.sol:BridgeFacet",
            "label": "receiveLocalOverrides",
            "offset": 0,
            "slot": "42",
            "type": "t_mapping(t_bytes32,t_bool)"
          }
        ],
        "numberOfBytes": "1376"
      },
      "t_struct(RouterPermissionsManagerInfo)20558_storage": {
        "encoding": "inplace",
        "label": "struct RouterPermissionsManagerInfo",
        "members": [
          {
            "astId": 20537,
            "contract": "contracts/core/connext/facets/BridgeFacet.sol:BridgeFacet",
            "label": "approvedRouters",
            "offset": 0,
            "slot": "0",
            "type": "t_mapping(t_address,t_bool)"
          },
          {
            "astId": 20541,
            "contract": "contracts/core/connext/facets/BridgeFacet.sol:BridgeFacet",
            "label": "approvedForPortalRouters",
            "offset": 0,
            "slot": "1",
            "type": "t_mapping(t_address,t_bool)"
          },
          {
            "astId": 20545,
            "contract": "contracts/core/connext/facets/BridgeFacet.sol:BridgeFacet",
            "label": "routerRecipients",
            "offset": 0,
            "slot": "2",
            "type": "t_mapping(t_address,t_address)"
          },
          {
            "astId": 20549,
            "contract": "contracts/core/connext/facets/BridgeFacet.sol:BridgeFacet",
            "label": "routerOwners",
            "offset": 0,
            "slot": "3",
            "type": "t_mapping(t_address,t_address)"
          },
          {
            "astId": 20553,
            "contract": "contracts/core/connext/facets/BridgeFacet.sol:BridgeFacet",
            "label": "proposedRouterOwners",
            "offset": 0,
            "slot": "4",
            "type": "t_mapping(t_address,t_address)"
          },
          {
            "astId": 20557,
            "contract": "contracts/core/connext/facets/BridgeFacet.sol:BridgeFacet",
            "label": "proposedRouterTimestamp",
            "offset": 0,
            "slot": "5",
            "type": "t_mapping(t_address,t_uint256)"
          }
        ],
        "numberOfBytes": "192"
      },
      "t_struct(Swap)22121_storage": {
        "encoding": "inplace",
        "label": "struct SwapUtils.Swap",
        "members": [
          {
            "astId": 22094,
            "contract": "contracts/core/connext/facets/BridgeFacet.sol:BridgeFacet",
            "label": "initialA",
            "offset": 0,
            "slot": "0",
            "type": "t_uint256"
          },
          {
            "astId": 22096,
            "contract": "contracts/core/connext/facets/BridgeFacet.sol:BridgeFacet",
            "label": "futureA",
            "offset": 0,
            "slot": "1",
            "type": "t_uint256"
          },
          {
            "astId": 22098,
            "contract": "contracts/core/connext/facets/BridgeFacet.sol:BridgeFacet",
            "label": "initialATime",
            "offset": 0,
            "slot": "2",
            "type": "t_uint256"
          },
          {
            "astId": 22100,
            "contract": "contracts/core/connext/facets/BridgeFacet.sol:BridgeFacet",
            "label": "futureATime",
            "offset": 0,
            "slot": "3",
            "type": "t_uint256"
          },
          {
            "astId": 22102,
            "contract": "contracts/core/connext/facets/BridgeFacet.sol:BridgeFacet",
            "label": "swapFee",
            "offset": 0,
            "slot": "4",
            "type": "t_uint256"
          },
          {
            "astId": 22104,
            "contract": "contracts/core/connext/facets/BridgeFacet.sol:BridgeFacet",
            "label": "adminFee",
            "offset": 0,
            "slot": "5",
            "type": "t_uint256"
          },
          {
            "astId": 22107,
            "contract": "contracts/core/connext/facets/BridgeFacet.sol:BridgeFacet",
            "label": "lpToken",
            "offset": 0,
            "slot": "6",
            "type": "t_contract(LPToken)13942"
          },
          {
            "astId": 22111,
            "contract": "contracts/core/connext/facets/BridgeFacet.sol:BridgeFacet",
            "label": "pooledTokens",
            "offset": 0,
            "slot": "7",
            "type": "t_array(t_contract(IERC20)3290)dyn_storage"
          },
          {
            "astId": 22114,
            "contract": "contracts/core/connext/facets/BridgeFacet.sol:BridgeFacet",
            "label": "tokenPrecisionMultipliers",
            "offset": 0,
            "slot": "8",
            "type": "t_array(t_uint256)dyn_storage"
          },
          {
            "astId": 22117,
            "contract": "contracts/core/connext/facets/BridgeFacet.sol:BridgeFacet",
            "label": "balances",
            "offset": 0,
            "slot": "9",
            "type": "t_array(t_uint256)dyn_storage"
          },
          {
            "astId": 22120,
            "contract": "contracts/core/connext/facets/BridgeFacet.sol:BridgeFacet",
            "label": "adminFees",
            "offset": 0,
            "slot": "10",
            "type": "t_array(t_uint256)dyn_storage"
          }
        ],
        "numberOfBytes": "352"
      },
      "t_struct(TokenId)19702_storage": {
        "encoding": "inplace",
        "label": "struct ConnextMessage.TokenId",
        "members": [
          {
            "astId": 19699,
            "contract": "contracts/core/connext/facets/BridgeFacet.sol:BridgeFacet",
            "label": "domain",
            "offset": 0,
            "slot": "0",
            "type": "t_uint32"
          },
          {
            "astId": 19701,
            "contract": "contracts/core/connext/facets/BridgeFacet.sol:BridgeFacet",
            "label": "id",
            "offset": 0,
            "slot": "1",
            "type": "t_bytes32"
          }
        ],
        "numberOfBytes": "64"
      },
      "t_uint256": {
        "encoding": "inplace",
        "label": "uint256",
        "numberOfBytes": "32"
      },
      "t_uint32": {
        "encoding": "inplace",
        "label": "uint32",
        "numberOfBytes": "4"
      },
      "t_uint8": {
        "encoding": "inplace",
        "label": "uint8",
        "numberOfBytes": "1"
      }
    }
  }
}