{
  "address": "0xe68d85348f227d2ebEE814C38918F8A2D7d9B603",
  "abi": [
    {
      "inputs": [
        {
          "internalType": "bytes4[]",
          "name": "interfaceIds",
          "type": "bytes4[]"
        },
        {
          "internalType": "bytes4[]",
          "name": "interfaceIdsToRemove",
          "type": "bytes4[]"
        }
      ],
      "name": "setERC165",
      "outputs": [],
      "stateMutability": "nonpayable",
      "type": "function"
    }
  ],
  "transactionHash": "0x070ff74657fdb3d66d4369c98348f811ca0b5d2e6b3c6c2cc0cbd32af9549ec5",
  "args": [],
  "numDeployments": 1,
  "solcInputHash": "3fe12e823553336a8d0f950a5a792ac9",
  "bytecode": "0x608060405234801561001057600080fd5b5061041e806100206000396000f3fe608060405234801561001057600080fd5b506004361061002b5760003560e01c80632a84809114610030575b600080fd5b61004361003e3660046102a4565b610045565b005b7f01ffc9a70000000000000000000000000000000000000000000000000000000060009081527fc8fcad8db84d3cc18b4c41d551ea0ee66dd599cde068d998e57d5e09332c131f6020527f699d9daa71b280d05a152715774afa0a81a312594b2d731d6b0b2552b7d6f69f80547fffffffffffffffffffffffffffffffffffffffffffffffffffffffffffffff001660011790557fc8fcad8db84d3cc18b4c41d551ea0ee66dd599cde068d998e57d5e09332c131c905b848110156101a457600182600301600088888581811061011e5761011e610310565b9050602002016020810190610133919061033f565b7fffffffff00000000000000000000000000000000000000000000000000000000168152602081019190915260400160002080547fffffffffffffffffffffffffffffffffffffffffffffffffffffffffffffff00169115159190911790558061019c81610388565b9150506100fc565b5060005b828110156102505760008260030160008686858181106101ca576101ca610310565b90506020020160208101906101df919061033f565b7fffffffff00000000000000000000000000000000000000000000000000000000168152602081019190915260400160002080547fffffffffffffffffffffffffffffffffffffffffffffffffffffffffffffff00169115159190911790558061024881610388565b9150506101a8565b505050505050565b60008083601f84011261026a57600080fd5b50813567ffffffffffffffff81111561028257600080fd5b6020830191508360208260051b850101111561029d57600080fd5b9250929050565b600080600080604085870312156102ba57600080fd5b843567ffffffffffffffff808211156102d257600080fd5b6102de88838901610258565b909650945060208701359150808211156102f757600080fd5b5061030487828801610258565b95989497509550505050565b7f4e487b7100000000000000000000000000000000000000000000000000000000600052603260045260246000fd5b60006020828403121561035157600080fd5b81357fffffffff000000000000000000000000000000000000000000000000000000008116811461038157600080fd5b9392505050565b60007fffffffffffffffffffffffffffffffffffffffffffffffffffffffffffffffff8214156103e1577f4e487b7100000000000000000000000000000000000000000000000000000000600052601160045260246000fd5b506001019056fea264697066735822122089ec289e8a22b626b334a083bad15a54a94f6bb0677c64dd693ce4bbd20ff34664736f6c634300080a0033",
  "devdoc": {
    "kind": "dev",
    "methods": {
      "setERC165(bytes4[],bytes4[])": {
        "params": {
          "interfaceIds": "list of interface id to set as supported",
          "interfaceIdsToRemove": "list of interface id to unset as supported. Technically, you can remove support of ERC165 by having the IERC165 id itself being part of that array."
        }
      }
    },
    "version": 1
  },
  "userdoc": {
    "kind": "user",
    "methods": {
      "setERC165(bytes4[],bytes4[])": {
        "notice": "set or unset ERC165 using DiamondStorage.supportedInterfaces"
      }
    },
    "version": 1
  },
  "storageLayout": {
    "storage": [],
    "types": null
  }
}