{
  "address": "0xfAAb63D764bDa61Ed6171526D5cE8cF52cDbE1d4",
  "abi": [
    {
      "inputs": [],
      "name": "AssetLogic__getConfig_notRegistered",
      "type": "error"
    },
    {
      "inputs": [],
      "name": "AssetLogic__getTokenIndexFromStableSwapPool_notExist",
      "type": "error"
    },
    {
      "inputs": [],
      "name": "AssetLogic__handleIncomingAsset_feeOnTransferNotSupported",
      "type": "error"
    },
    {
      "inputs": [],
      "name": "AssetLogic__handleIncomingAsset_nativeAssetNotSupported",
      "type": "error"
    },
    {
      "inputs": [],
      "name": "AssetLogic__handleOutgoingAsset_notNative",
      "type": "error"
    },
    {
      "inputs": [],
      "name": "BaseConnextFacet__getAdoptedAsset_assetNotFound",
      "type": "error"
    },
    {
      "inputs": [],
      "name": "BaseConnextFacet__getApprovedCanonicalId_notAllowlisted",
      "type": "error"
    },
    {
      "inputs": [],
      "name": "BaseConnextFacet__nonReentrant_reentrantCall",
      "type": "error"
    },
    {
      "inputs": [],
      "name": "BaseConnextFacet__nonXCallReentrant_reentrantCall",
      "type": "error"
    },
    {
      "inputs": [],
      "name": "BaseConnextFacet__onlyOwnerOrAdmin_notOwnerOrAdmin",
      "type": "error"
    },
    {
      "inputs": [],
      "name": "BaseConnextFacet__onlyOwnerOrRouter_notOwnerOrRouter",
      "type": "error"
    },
    {
      "inputs": [],
      "name": "BaseConnextFacet__onlyOwnerOrWatcher_notOwnerOrWatcher",
      "type": "error"
    },
    {
      "inputs": [],
      "name": "BaseConnextFacet__onlyOwner_notOwner",
      "type": "error"
    },
    {
      "inputs": [],
      "name": "BaseConnextFacet__onlyProposed_notProposedOwner",
      "type": "error"
    },
    {
      "inputs": [],
      "name": "BaseConnextFacet__whenNotPaused_paused",
      "type": "error"
    },
    {
      "inputs": [],
      "name": "BridgeFacet__addRemote_invalidDomain",
      "type": "error"
    },
    {
      "inputs": [],
      "name": "BridgeFacet__addRemote_invalidRouter",
      "type": "error"
    },
    {
      "inputs": [],
      "name": "BridgeFacet__addSequencer_alreadyApproved",
      "type": "error"
    },
    {
      "inputs": [],
      "name": "BridgeFacet__addSequencer_invalidSequencer",
      "type": "error"
    },
    {
      "inputs": [],
      "name": "BridgeFacet__bumpTransfer_noRelayerVault",
      "type": "error"
    },
    {
      "inputs": [],
      "name": "BridgeFacet__bumpTransfer_valueIsZero",
      "type": "error"
    },
    {
      "inputs": [],
      "name": "BridgeFacet__excecute_insufficientGas",
      "type": "error"
    },
    {
      "inputs": [],
      "name": "BridgeFacet__executePortalTransfer_insufficientAmountWithdrawn",
      "type": "error"
    },
    {
      "inputs": [],
      "name": "BridgeFacet__execute_badFastLiquidityStatus",
      "type": "error"
    },
    {
      "inputs": [],
      "name": "BridgeFacet__execute_externalCallFailed",
      "type": "error"
    },
    {
      "inputs": [],
      "name": "BridgeFacet__execute_invalidRouterSignature",
      "type": "error"
    },
    {
      "inputs": [],
      "name": "BridgeFacet__execute_invalidSequencerSignature",
      "type": "error"
    },
    {
      "inputs": [],
      "name": "BridgeFacet__execute_maxRoutersExceeded",
      "type": "error"
    },
    {
      "inputs": [],
      "name": "BridgeFacet__execute_notApprovedForPortals",
      "type": "error"
    },
    {
      "inputs": [],
      "name": "BridgeFacet__execute_notReconciled",
      "type": "error"
    },
    {
      "inputs": [],
      "name": "BridgeFacet__execute_notSupportedRouter",
      "type": "error"
    },
    {
      "inputs": [],
      "name": "BridgeFacet__execute_notSupportedSequencer",
      "type": "error"
    },
    {
      "inputs": [],
      "name": "BridgeFacet__execute_unapprovedSender",
      "type": "error"
    },
    {
      "inputs": [],
      "name": "BridgeFacet__execute_wrongDomain",
      "type": "error"
    },
    {
      "inputs": [],
      "name": "BridgeFacet__forceReceiveLocal_notDestination",
      "type": "error"
    },
    {
      "inputs": [],
      "name": "BridgeFacet__forceUpdateSlippage_invalidSlippage",
      "type": "error"
    },
    {
      "inputs": [],
      "name": "BridgeFacet__forceUpdateSlippage_notDestination",
      "type": "error"
    },
    {
      "inputs": [],
      "name": "BridgeFacet__mustHaveRemote_destinationNotSupported",
      "type": "error"
    },
    {
      "inputs": [],
      "name": "BridgeFacet__onlyDelegate_notDelegate",
      "type": "error"
    },
    {
      "inputs": [],
      "name": "BridgeFacet__removeSequencer_notApproved",
      "type": "error"
    },
    {
      "inputs": [],
      "name": "BridgeFacet__setXAppConnectionManager_domainsDontMatch",
      "type": "error"
    },
    {
      "inputs": [],
      "name": "BridgeFacet__xcall_capReached",
      "type": "error"
    },
    {
      "inputs": [],
      "name": "BridgeFacet__xcall_emptyTo",
      "type": "error"
    },
    {
      "inputs": [],
      "name": "BridgeFacet__xcall_invalidSlippage",
      "type": "error"
    },
    {
      "inputs": [],
      "name": "BridgeFacet__xcall_nativeAssetNotSupported",
      "type": "error"
    },
    {
      "inputs": [],
      "name": "BridgeFacet_xcall__emptyLocalAsset",
      "type": "error"
    },
    {
      "anonymous": false,
      "inputs": [
        {
          "indexed": true,
          "internalType": "bytes32",
          "name": "transferId",
          "type": "bytes32"
        },
        {
          "indexed": true,
          "internalType": "address",
          "name": "router",
          "type": "address"
        },
        {
          "indexed": false,
          "internalType": "address",
          "name": "asset",
          "type": "address"
        },
        {
          "indexed": false,
          "internalType": "uint256",
          "name": "amount",
          "type": "uint256"
        }
      ],
      "name": "AavePortalMintUnbacked",
      "type": "event"
    },
    {
      "anonymous": false,
      "inputs": [
        {
          "indexed": true,
          "internalType": "bytes32",
          "name": "transferId",
          "type": "bytes32"
        },
        {
          "indexed": true,
          "internalType": "address",
          "name": "to",
          "type": "address"
        },
        {
          "indexed": true,
          "internalType": "address",
          "name": "asset",
          "type": "address"
        },
        {
          "components": [
            {
              "components": [
                {
                  "internalType": "uint32",
                  "name": "originDomain",
                  "type": "uint32"
                },
                {
                  "internalType": "uint32",
                  "name": "destinationDomain",
                  "type": "uint32"
                },
                {
                  "internalType": "uint32",
                  "name": "canonicalDomain",
                  "type": "uint32"
                },
                {
                  "internalType": "address",
                  "name": "to",
                  "type": "address"
                },
                {
                  "internalType": "address",
                  "name": "delegate",
                  "type": "address"
                },
                {
                  "internalType": "bool",
                  "name": "receiveLocal",
                  "type": "bool"
                },
                {
                  "internalType": "bytes",
                  "name": "callData",
                  "type": "bytes"
                },
                {
                  "internalType": "uint256",
                  "name": "slippage",
                  "type": "uint256"
                },
                {
                  "internalType": "address",
                  "name": "originSender",
                  "type": "address"
                },
                {
                  "internalType": "uint256",
                  "name": "bridgedAmt",
                  "type": "uint256"
                },
                {
                  "internalType": "uint256",
                  "name": "normalizedIn",
                  "type": "uint256"
                },
                {
                  "internalType": "uint256",
                  "name": "nonce",
                  "type": "uint256"
                },
                {
                  "internalType": "bytes32",
                  "name": "canonicalId",
                  "type": "bytes32"
                }
              ],
              "internalType": "struct TransferInfo",
              "name": "params",
              "type": "tuple"
            },
            {
              "internalType": "address[]",
              "name": "routers",
              "type": "address[]"
            },
            {
              "internalType": "bytes[]",
              "name": "routerSignatures",
              "type": "bytes[]"
            },
            {
              "internalType": "address",
              "name": "sequencer",
              "type": "address"
            },
            {
              "internalType": "bytes",
              "name": "sequencerSignature",
              "type": "bytes"
            }
          ],
          "indexed": false,
          "internalType": "struct ExecuteArgs",
          "name": "args",
          "type": "tuple"
        },
        {
          "indexed": false,
          "internalType": "address",
          "name": "local",
          "type": "address"
        },
        {
          "indexed": false,
          "internalType": "uint256",
          "name": "amount",
          "type": "uint256"
        },
        {
          "indexed": false,
          "internalType": "address",
          "name": "caller",
          "type": "address"
        }
      ],
      "name": "Executed",
      "type": "event"
    },
    {
      "anonymous": false,
      "inputs": [
        {
          "indexed": true,
          "internalType": "bytes32",
          "name": "transferId",
          "type": "bytes32"
        },
        {
          "indexed": false,
          "internalType": "bool",
          "name": "success",
          "type": "bool"
        },
        {
          "indexed": false,
          "internalType": "bytes",
          "name": "returnData",
          "type": "bytes"
        }
      ],
      "name": "ExternalCalldataExecuted",
      "type": "event"
    },
    {
      "anonymous": false,
      "inputs": [
        {
          "indexed": true,
          "internalType": "bytes32",
          "name": "transferId",
          "type": "bytes32"
        }
      ],
      "name": "ForceReceiveLocal",
      "type": "event"
    },
    {
      "anonymous": false,
      "inputs": [
        {
          "indexed": false,
          "internalType": "uint32",
          "name": "domain",
          "type": "uint32"
        },
        {
          "indexed": false,
          "internalType": "address",
          "name": "remote",
          "type": "address"
        },
        {
          "indexed": false,
          "internalType": "address",
          "name": "caller",
          "type": "address"
        }
      ],
      "name": "RemoteAdded",
      "type": "event"
    },
    {
      "anonymous": false,
      "inputs": [
        {
          "indexed": false,
          "internalType": "address",
          "name": "sequencer",
          "type": "address"
        },
        {
          "indexed": false,
          "internalType": "address",
          "name": "caller",
          "type": "address"
        }
      ],
      "name": "SequencerAdded",
      "type": "event"
    },
    {
      "anonymous": false,
      "inputs": [
        {
          "indexed": false,
          "internalType": "address",
          "name": "sequencer",
          "type": "address"
        },
        {
          "indexed": false,
          "internalType": "address",
          "name": "caller",
          "type": "address"
        }
      ],
      "name": "SequencerRemoved",
      "type": "event"
    },
    {
      "anonymous": false,
      "inputs": [
        {
          "indexed": true,
          "internalType": "bytes32",
          "name": "transferId",
          "type": "bytes32"
        },
        {
          "indexed": false,
          "internalType": "uint256",
          "name": "slippage",
          "type": "uint256"
        }
      ],
      "name": "SlippageUpdated",
      "type": "event"
    },
    {
      "anonymous": false,
      "inputs": [
        {
          "indexed": true,
          "internalType": "bytes32",
          "name": "transferId",
          "type": "bytes32"
        },
        {
          "indexed": false,
          "internalType": "uint256",
          "name": "increase",
          "type": "uint256"
        },
        {
          "indexed": false,
          "internalType": "address",
          "name": "caller",
          "type": "address"
        }
      ],
      "name": "TransferRelayerFeesIncreased",
      "type": "event"
    },
    {
      "anonymous": false,
      "inputs": [
        {
          "indexed": false,
          "internalType": "address",
          "name": "updated",
          "type": "address"
        },
        {
          "indexed": false,
          "internalType": "address",
          "name": "caller",
          "type": "address"
        }
      ],
      "name": "XAppConnectionManagerSet",
      "type": "event"
    },
    {
      "anonymous": false,
      "inputs": [
        {
          "indexed": true,
          "internalType": "bytes32",
          "name": "transferId",
          "type": "bytes32"
        },
        {
          "indexed": true,
          "internalType": "uint256",
          "name": "nonce",
          "type": "uint256"
        },
        {
          "indexed": true,
          "internalType": "bytes32",
          "name": "messageHash",
          "type": "bytes32"
        },
        {
          "components": [
            {
              "internalType": "uint32",
              "name": "originDomain",
              "type": "uint32"
            },
            {
              "internalType": "uint32",
              "name": "destinationDomain",
              "type": "uint32"
            },
            {
              "internalType": "uint32",
              "name": "canonicalDomain",
              "type": "uint32"
            },
            {
              "internalType": "address",
              "name": "to",
              "type": "address"
            },
            {
              "internalType": "address",
              "name": "delegate",
              "type": "address"
            },
            {
              "internalType": "bool",
              "name": "receiveLocal",
              "type": "bool"
            },
            {
              "internalType": "bytes",
              "name": "callData",
              "type": "bytes"
            },
            {
              "internalType": "uint256",
              "name": "slippage",
              "type": "uint256"
            },
            {
              "internalType": "address",
              "name": "originSender",
              "type": "address"
            },
            {
              "internalType": "uint256",
              "name": "bridgedAmt",
              "type": "uint256"
            },
            {
              "internalType": "uint256",
              "name": "normalizedIn",
              "type": "uint256"
            },
            {
              "internalType": "uint256",
              "name": "nonce",
              "type": "uint256"
            },
            {
              "internalType": "bytes32",
              "name": "canonicalId",
              "type": "bytes32"
            }
          ],
          "indexed": false,
          "internalType": "struct TransferInfo",
          "name": "params",
          "type": "tuple"
        },
        {
          "indexed": false,
          "internalType": "address",
          "name": "asset",
          "type": "address"
        },
        {
          "indexed": false,
          "internalType": "uint256",
          "name": "amount",
          "type": "uint256"
        },
        {
          "indexed": false,
          "internalType": "address",
          "name": "local",
          "type": "address"
        }
      ],
      "name": "XCalled",
      "type": "event"
    },
    {
      "inputs": [
        {
          "internalType": "address",
          "name": "_sequencer",
          "type": "address"
        }
      ],
      "name": "addSequencer",
      "outputs": [],
      "stateMutability": "nonpayable",
      "type": "function"
    },
    {
      "inputs": [
        {
          "internalType": "address",
          "name": "_sequencer",
          "type": "address"
        }
      ],
      "name": "approvedSequencers",
      "outputs": [
        {
          "internalType": "bool",
          "name": "",
          "type": "bool"
        }
      ],
      "stateMutability": "view",
      "type": "function"
    },
    {
      "inputs": [
        {
          "internalType": "bytes32",
          "name": "_transferId",
          "type": "bytes32"
        }
      ],
      "name": "bumpTransfer",
      "outputs": [],
      "stateMutability": "payable",
      "type": "function"
    },
    {
      "inputs": [],
      "name": "domain",
      "outputs": [
        {
          "internalType": "uint32",
          "name": "",
          "type": "uint32"
        }
      ],
      "stateMutability": "view",
      "type": "function"
    },
    {
      "inputs": [
        {
          "internalType": "uint32",
          "name": "_domain",
          "type": "uint32"
        },
        {
          "internalType": "bytes32",
          "name": "_router",
          "type": "bytes32"
        }
      ],
      "name": "enrollRemoteRouter",
      "outputs": [],
      "stateMutability": "nonpayable",
      "type": "function"
    },
    {
      "inputs": [
        {
          "components": [
            {
              "components": [
                {
                  "internalType": "uint32",
                  "name": "originDomain",
                  "type": "uint32"
                },
                {
                  "internalType": "uint32",
                  "name": "destinationDomain",
                  "type": "uint32"
                },
                {
                  "internalType": "uint32",
                  "name": "canonicalDomain",
                  "type": "uint32"
                },
                {
                  "internalType": "address",
                  "name": "to",
                  "type": "address"
                },
                {
                  "internalType": "address",
                  "name": "delegate",
                  "type": "address"
                },
                {
                  "internalType": "bool",
                  "name": "receiveLocal",
                  "type": "bool"
                },
                {
                  "internalType": "bytes",
                  "name": "callData",
                  "type": "bytes"
                },
                {
                  "internalType": "uint256",
                  "name": "slippage",
                  "type": "uint256"
                },
                {
                  "internalType": "address",
                  "name": "originSender",
                  "type": "address"
                },
                {
                  "internalType": "uint256",
                  "name": "bridgedAmt",
                  "type": "uint256"
                },
                {
                  "internalType": "uint256",
                  "name": "normalizedIn",
                  "type": "uint256"
                },
                {
                  "internalType": "uint256",
                  "name": "nonce",
                  "type": "uint256"
                },
                {
                  "internalType": "bytes32",
                  "name": "canonicalId",
                  "type": "bytes32"
                }
              ],
              "internalType": "struct TransferInfo",
              "name": "params",
              "type": "tuple"
            },
            {
              "internalType": "address[]",
              "name": "routers",
              "type": "address[]"
            },
            {
              "internalType": "bytes[]",
              "name": "routerSignatures",
              "type": "bytes[]"
            },
            {
              "internalType": "address",
              "name": "sequencer",
              "type": "address"
            },
            {
              "internalType": "bytes",
              "name": "sequencerSignature",
              "type": "bytes"
            }
          ],
          "internalType": "struct ExecuteArgs",
          "name": "_args",
          "type": "tuple"
        }
      ],
      "name": "execute",
      "outputs": [
        {
          "internalType": "bytes32",
          "name": "",
          "type": "bytes32"
        }
      ],
      "stateMutability": "nonpayable",
      "type": "function"
    },
    {
      "inputs": [
        {
          "components": [
            {
              "internalType": "uint32",
              "name": "originDomain",
              "type": "uint32"
            },
            {
              "internalType": "uint32",
              "name": "destinationDomain",
              "type": "uint32"
            },
            {
              "internalType": "uint32",
              "name": "canonicalDomain",
              "type": "uint32"
            },
            {
              "internalType": "address",
              "name": "to",
              "type": "address"
            },
            {
              "internalType": "address",
              "name": "delegate",
              "type": "address"
            },
            {
              "internalType": "bool",
              "name": "receiveLocal",
              "type": "bool"
            },
            {
              "internalType": "bytes",
              "name": "callData",
              "type": "bytes"
            },
            {
              "internalType": "uint256",
              "name": "slippage",
              "type": "uint256"
            },
            {
              "internalType": "address",
              "name": "originSender",
              "type": "address"
            },
            {
              "internalType": "uint256",
              "name": "bridgedAmt",
              "type": "uint256"
            },
            {
              "internalType": "uint256",
              "name": "normalizedIn",
              "type": "uint256"
            },
            {
              "internalType": "uint256",
              "name": "nonce",
              "type": "uint256"
            },
            {
              "internalType": "bytes32",
              "name": "canonicalId",
              "type": "bytes32"
            }
          ],
          "internalType": "struct TransferInfo",
          "name": "_params",
          "type": "tuple"
        }
      ],
      "name": "forceReceiveLocal",
      "outputs": [],
      "stateMutability": "nonpayable",
      "type": "function"
    },
    {
      "inputs": [
        {
          "components": [
            {
              "internalType": "uint32",
              "name": "originDomain",
              "type": "uint32"
            },
            {
              "internalType": "uint32",
              "name": "destinationDomain",
              "type": "uint32"
            },
            {
              "internalType": "uint32",
              "name": "canonicalDomain",
              "type": "uint32"
            },
            {
              "internalType": "address",
              "name": "to",
              "type": "address"
            },
            {
              "internalType": "address",
              "name": "delegate",
              "type": "address"
            },
            {
              "internalType": "bool",
              "name": "receiveLocal",
              "type": "bool"
            },
            {
              "internalType": "bytes",
              "name": "callData",
              "type": "bytes"
            },
            {
              "internalType": "uint256",
              "name": "slippage",
              "type": "uint256"
            },
            {
              "internalType": "address",
              "name": "originSender",
              "type": "address"
            },
            {
              "internalType": "uint256",
              "name": "bridgedAmt",
              "type": "uint256"
            },
            {
              "internalType": "uint256",
              "name": "normalizedIn",
              "type": "uint256"
            },
            {
              "internalType": "uint256",
              "name": "nonce",
              "type": "uint256"
            },
            {
              "internalType": "bytes32",
              "name": "canonicalId",
              "type": "bytes32"
            }
          ],
          "internalType": "struct TransferInfo",
          "name": "_params",
          "type": "tuple"
        },
        {
          "internalType": "uint256",
          "name": "_slippage",
          "type": "uint256"
        }
      ],
      "name": "forceUpdateSlippage",
      "outputs": [],
      "stateMutability": "nonpayable",
      "type": "function"
    },
    {
      "inputs": [],
      "name": "nonce",
      "outputs": [
        {
          "internalType": "uint256",
          "name": "",
          "type": "uint256"
        }
      ],
      "stateMutability": "view",
      "type": "function"
    },
    {
      "inputs": [
        {
          "internalType": "uint32",
          "name": "_domain",
          "type": "uint32"
        }
      ],
      "name": "remote",
      "outputs": [
        {
          "internalType": "address",
          "name": "",
          "type": "address"
        }
      ],
      "stateMutability": "view",
      "type": "function"
    },
    {
      "inputs": [
        {
          "internalType": "address",
          "name": "_sequencer",
          "type": "address"
        }
      ],
      "name": "removeSequencer",
      "outputs": [],
      "stateMutability": "nonpayable",
      "type": "function"
    },
    {
      "inputs": [
        {
          "internalType": "bytes32",
          "name": "_transferId",
          "type": "bytes32"
        }
      ],
      "name": "routedTransfers",
      "outputs": [
        {
          "internalType": "address[]",
          "name": "",
          "type": "address[]"
        }
      ],
      "stateMutability": "view",
      "type": "function"
    },
    {
      "inputs": [
        {
          "internalType": "address",
          "name": "_xAppConnectionManager",
          "type": "address"
        }
      ],
      "name": "setXAppConnectionManager",
      "outputs": [],
      "stateMutability": "nonpayable",
      "type": "function"
    },
    {
      "inputs": [
        {
          "internalType": "bytes32",
          "name": "_transferId",
          "type": "bytes32"
        }
      ],
      "name": "transferStatus",
      "outputs": [
        {
          "internalType": "enum DestinationTransferStatus",
          "name": "",
          "type": "uint8"
        }
      ],
      "stateMutability": "view",
      "type": "function"
    },
    {
      "inputs": [],
      "name": "xAppConnectionManager",
      "outputs": [
        {
          "internalType": "address",
          "name": "",
          "type": "address"
        }
      ],
      "stateMutability": "view",
      "type": "function"
    },
    {
      "inputs": [
        {
          "internalType": "uint32",
          "name": "_destination",
          "type": "uint32"
        },
        {
          "internalType": "address",
          "name": "_to",
          "type": "address"
        },
        {
          "internalType": "address",
          "name": "_asset",
          "type": "address"
        },
        {
          "internalType": "address",
          "name": "_delegate",
          "type": "address"
        },
        {
          "internalType": "uint256",
          "name": "_amount",
          "type": "uint256"
        },
        {
          "internalType": "uint256",
          "name": "_slippage",
          "type": "uint256"
        },
        {
          "internalType": "bytes",
          "name": "_callData",
          "type": "bytes"
        }
      ],
      "name": "xcall",
      "outputs": [
        {
          "internalType": "bytes32",
          "name": "",
          "type": "bytes32"
        }
      ],
      "stateMutability": "payable",
      "type": "function"
    },
    {
      "inputs": [
        {
          "internalType": "uint32",
          "name": "_destination",
          "type": "uint32"
        },
        {
          "internalType": "address",
          "name": "_to",
          "type": "address"
        },
        {
          "internalType": "address",
          "name": "_asset",
          "type": "address"
        },
        {
          "internalType": "address",
          "name": "_delegate",
          "type": "address"
        },
        {
          "internalType": "uint256",
          "name": "_amount",
          "type": "uint256"
        },
        {
          "internalType": "uint256",
          "name": "_slippage",
          "type": "uint256"
        },
        {
          "internalType": "bytes",
          "name": "_callData",
          "type": "bytes"
        }
      ],
      "name": "xcallIntoLocal",
      "outputs": [
        {
          "internalType": "bytes32",
          "name": "",
          "type": "bytes32"
        }
      ],
      "stateMutability": "payable",
      "type": "function"
    }
  ],
  "transactionHash": "0x33d7fad2127d536b9909aa0ff0a911fde7f141c5c63ccac1fc23873a7a952f72",
  "args": [],
  "numDeployments": 1,
  "solcInputHash": "08ca6ef6e120fb4cb0f5603df6e78508",
  "bytecode": "0x608060405234801561001057600080fd5b50614bc9806100206000396000f3fe6080604052600436106100fe5760003560e01c80636989ca7c11610095578063affed0e011610064578063affed0e0146102bd578063b49c53a7146102d2578063bfd79030146102f2578063c2fb26a61461032f578063cb8058ba1461035457600080fd5b80636989ca7c146102575780638a336231146102775780638aac16ba1461029757806391f5de79146102aa57600080fd5b80633339df96116100d15780633339df96146101cb57806341bdc8b5146101e9578063541267111461020957806363e3e7d21461022957600080fd5b8063121cca3114610103578063159e041f146101405780631a8bc0e1146101895780632424401f146101b6575b600080fd5b34801561010f57600080fd5b5061012361011e366004613d9e565b610374565b6040516001600160a01b0390911681526020015b60405180910390f35b34801561014c57600080fd5b5061017961015b366004613ddb565b6001600160a01b03166000908152601f602052604090205460ff1690565b6040519015158152602001610137565b34801561019557600080fd5b506101a96101a4366004613df8565b610391565b6040516101379190613e11565b6101c96101c4366004613df8565b6103fd565b005b3480156101d757600080fd5b506020546001600160a01b0316610123565b3480156101f557600080fd5b506101c9610204366004613ddb565b610483565b34801561021557600080fd5b506101c9610224366004613e77565b6105e0565b34801561023557600080fd5b50610249610244366004613ebb565b6106e2565b604051908152602001610137565b34801561026357600080fd5b506101c9610272366004613ddb565b6108a1565b34801561028357600080fd5b506101c9610292366004613ddb565b610999565b6102496102a5366004613ef5565b610ab5565b6102496102b8366004613ef5565b610ba9565b3480156102c957600080fd5b50600354610249565b3480156102de57600080fd5b506101c96102ed366004613fc4565b610c8a565b3480156102fe57600080fd5b5061032261030d366004613df8565b60009081526008602052604090205460ff1690565b6040516101379190614024565b34801561033b57600080fd5b5060045460405163ffffffff9091168152602001610137565b34801561036057600080fd5b506101c961036f366004614037565b610da8565b63ffffffff81166000908152600f60205260408120545b92915050565b6000818152600960209081526040918290208054835181840281018401909452808452606093928301828280156103f157602002820191906000526020600020905b81546001600160a01b031681526001909101906020018083116103d3575b50505050509050919050565b6016546001190161042157604051637ce54e2d60e11b815260040160405180910390fd5b6002601655601a54600160a01b900460ff161561045157604051633ee5b89360e01b815260040160405180910390fd5b34600003610472576040516348e7dc3f60e01b815260040160405180910390fd5b61047b81610e75565b506001601655565b3361048c610ee7565b6001600160a01b0316141580156104c7575060033360009081526014602052604090205460ff1660038111156104c4576104c4613ff0565b14155b156104e557604051637b32c26b60e01b815260040160405180910390fd5b600480546040805163234d8e3d60e21b81529051849363ffffffff909316926001600160a01b03851692638d3638f492818301926020928290030181865afa158015610535573d6000803e3d6000fd5b505050506040513d601f19601f82011682018060405250810190610559919061406b565b63ffffffff161461057c57604051621ff66160e61b815260040160405180910390fd5b604080516001600160a01b03841681523360208201527fd6e53d12bb441b2201be4949c7f431b383623888df2abfeef43aaaf272802d50910160405180910390a1602080546001600160a01b0319166001600160a01b039290921691909117905550565b81336105f260a0830160808401613ddb565b6001600160a01b0316146106195760405163e3613aff60e01b815260040160405180910390fd5b61271082111561063c57604051633345cd4360e11b815260040160405180910390fd5b60045463ffffffff166106556040850160208601613d9e565b63ffffffff161461067957604051632a8e462760e01b815260040160405180910390fd5b600061068c6106878561416c565b610f03565b6000818152600d6020526040908190208590555190915081907fb243c3cea6cd1bbfd64d5d0765f13734ca7b87fdf14e017391fe12a8891434ca906106d49086815260200190565b60405180910390a250505050565b6016546000906001190161070957604051637ce54e2d60e11b815260040160405180910390fd5b6002601655601a54600160a01b900460ff161561073957604051633ee5b89360e01b815260040160405180910390fd5b60008061074584610f33565b90925090506000600182600381111561076057610760613ff0565b1461076c57600261076f565b60035b60008481526008602052604090208054919250829160ff1916600183600381111561079c5761079c613ff0565b0217905550600080806107f7866107db6107b68b80614261565b61018001356107c58c80614261565b6107d6906060810190604001613d9e565b6112f4565b60038760038111156107ef576107ef613ff0565b14158b611336565b9194509250905060006108218985858a60038a600381111561081b5761081b613ff0565b146118c3565b90506001600160a01b0383166108378a80614261565b610848906080810190606001613ddb565b6001600160a01b0316887f0b07a8b0b083f8976b3c832b720632f49cb8ba1e7a99e1b145f51a47d3391cb78c86863360405161088794939291906143de565b60405180910390a450506001601655509295945050505050565b336108aa610ee7565b6001600160a01b0316141580156108e5575060033360009081526014602052604090205460ff1660038111156108e2576108e2613ff0565b14155b1561090357604051637b32c26b60e01b815260040160405180910390fd5b6001600160a01b0381166000908152601f602052604090205460ff1661093c57604051637840a40d60e01b815260040160405180910390fd5b6001600160a01b0381166000818152601f6020908152604091829020805460ff19169055815192835233908301527f4860b0a180d4b5969c2757493a999f05d0b22318320f154a02170aa239e24b1391015b60405180910390a150565b336109a2610ee7565b6001600160a01b0316141580156109dd575060033360009081526014602052604090205460ff1660038111156109da576109da613ff0565b14155b156109fb57604051637b32c26b60e01b815260040160405180910390fd5b6001600160a01b038116610a22576040516332f9c08d60e11b815260040160405180910390fd5b6001600160a01b0381166000908152601f602052604090205460ff1615610a5c5760405163e2a4506360e01b815260040160405180910390fd5b6001600160a01b0381166000818152601f6020908152604091829020805460ff19166001179055815192835233908301527f3860a100215fe93b6b95ed1ae0870e538f85a73b30d073f63fefc60e08b0c124910161098e565b60175460009060011901610adc576040516363b468cb60e11b815260040160405180910390fd5b6002601755604080516101a08101825260045463ffffffff90811682528b1660208083019190915260008284018190526001600160a01b03808d1660608501528a16608084015260a083018190528351601f87018390048302810183019094528584529260c08301918790879081908401838280828437600092018290525093855250505060208201889052336040830152606082018190526080820181905260a0820181905260c0909101529050610b9681898861190c565b60016017559a9950505050505050505050565b60175460009060011901610bd0576040516363b468cb60e11b815260040160405180910390fd5b6002601755604080516101a08101825260045463ffffffff90811682528b1660208083019190915260008284018190526001600160a01b03808d1660608501528a166080840152600160a08401528351601f87018390048302810183019094528584529260c08301918790879081908401838280828437600092018290525093855250505060208201889052336040830152606082018190526080820181905260a0820181905260c0909101529050610b9681898861190c565b33610c93610ee7565b6001600160a01b031614158015610cce575060033360009081526014602052604090205460ff166003811115610ccb57610ccb613ff0565b14155b15610cec57604051637b32c26b60e01b815260040160405180910390fd5b80610d0a57604051633bca644d60e11b815260040160405180910390fd5b63ffffffff82161580610d27575060045463ffffffff8381169116145b15610d4557604051632892757b60e21b815260040160405180910390fd5b63ffffffff82166000818152600f602090815260409182902084905581519283526001600160a01b038416908301523382820152517fb07f562723347d6ea7f9f37b3b31f96b65104c3339d1c89e1b6fa88e2410b85c9181900360600190a15050565b8033610dba60a0830160808401613ddb565b6001600160a01b031614610de15760405163e3613aff60e01b815260040160405180910390fd5b60045463ffffffff16610dfa6040840160208501613d9e565b63ffffffff1614610e1e57604051630ada556f60e31b815260040160405180910390fd5b6000610e2c6106878461416c565b6000818152600e6020526040808220805460ff191660011790555191925082917f2510041334ede909998b9aefcca4300fc36c670dd00e1f7f0afffaca56adcb399190a2505050565b6002546001600160a01b031680610e9f57604051630bd7619560e41b815260040160405180910390fd5b610ea98134611bfa565b6040805134815233602082015283917ffd832caf789e0dadd0e7ed643b3ea6051fa26c48516e242ca4cb3db9eda6c8ec910160405180910390a25050565b6000610ef1611d1d565b600401546001600160a01b0316919050565b600081604051602001610f169190614758565b604051602081830303815290604052805190602001209050919050565b336000908152600b6020526040812054819060ff16158015610f815750610f5a8380614261565b610f6b9060a0810190608001613ddb565b6001600160a01b0316336001600160a01b031614155b15610f9f57604051637c32a2b360e01b815260040160405180910390fd5b60045463ffffffff16610fb28480614261565b610fc3906040810190602001613d9e565b63ffffffff1614610fe75760405163b6bb322560e01b815260040160405180910390fd5b6000610ff6602085018561476b565b9150600090506110126110098680614261565b6106879061416c565b60008181526008602052604090205490915060ff1682156112b757600c54831115611050576040516313c06ef360e01b815260040160405180910390fd5b600081600381111561106457611064613ff0565b1461108257604051630caaeb0b60e11b815260040160405180910390fd5b601f60006110966080890160608a01613ddb565b6001600160a01b0316815260208101919091526040016000205460ff166110d057604051631fa09b5360e31b815260040160405180910390fd5b61111d826110e1602089018961476b565b6040516020016110f3939291906147b4565b60408051601f19818403018152919052805160209091012061111860808901896147ce565b611d4b565b6001600160a01b03166111366080880160608901613ddb565b6001600160a01b03161461115d57604051638579eca560e01b815260040160405180910390fd5b6040805160208082018590528183018690528251808303840181526060909201909252805191012060005b848110156112b057611198611d9d565b1580156111f55750601560006111b160208b018b61476b565b848181106111c1576111c1614814565b90506020020160208101906111d69190613ddb565b6001600160a01b0316815260208101919091526040016000205460ff16155b1561121357604051630e1eb7f760e31b815260040160405180910390fd5b6112468261122460408b018b61476b565b8481811061123457611234614814565b905060200281019061111891906147ce565b6001600160a01b031661125c60208a018a61476b565b8381811061126c5761126c614814565b90506020020160208101906112819190613ddb565b6001600160a01b0316146112a857604051633a1dd23360e21b815260040160405180910390fd5b600101611188565b50506112e9565b60018160038111156112cb576112cb613ff0565b146112e957604051636320d2cf60e11b815260040160405180910390fd5b909590945092505050565b6000828260405160200161131892919091825263ffffffff16602082015260400190565b60405160208183030381529060405280519060200120905092915050565b60008080611347602085018561476b565b6000898152600960205260409020611360929091613d09565b50600061136d8580614261565b61137e906060810190604001613d9e565b63ffffffff16156113bf576113bc876113978780614261565b61018001356113a68880614261565b6113b7906060810190604001613d9e565b611dc4565b90505b6113c98580614261565b61012001356000036113e3576000935091508190506118b9565b60006113ef8680614261565b6114009060c081019060a00161482a565b8061141957506000898152600e602052604090205460ff165b905060006114278780614261565b6101200135905087156117c7576000611443602089018961476b565b915061146790506114548980614261565b6101200135600060010154612710611dd3565b91508060010361165857821580156114de575081600a600061148c60208c018c61476b565b600081811061149d5761149d614814565b90506020020160208101906114b29190613ddb565b6001600160a01b0390811682526020808301939093526040918201600090812091891681529252902054105b80156114f45750601b546001600160a01b031615155b156115c3576015600061150a60208b018b61476b565b600081811061151b5761151b614814565b90506020020160208101906115309190613ddb565b6001600160a01b03168152602081019190915260400160002054610100900460ff1661156f576040516310c4e50960e01b815260040160405180910390fd5b6000806115b08d8d8661158560208f018f61476b565b600081811061159657611596614814565b90506020020160208101906115ab9190613ddb565b611dea565b90995097509495506118b9945050505050565b81600a60006115d560208c018c61476b565b60008181106115e6576115e6614814565b90506020020160208101906115fb9190613ddb565b6001600160a01b03166001600160a01b031681526020019081526020016000206000866001600160a01b03166001600160a01b03168152602001908152602001600020600082825461164d919061485d565b909155506117c59050565b60006116648284614886565b905060005b61167460018461485d565b8110156117115781600a600061168d60208e018e61476b565b8581811061169d5761169d614814565b90506020020160208101906116b29190613ddb565b6001600160a01b03166001600160a01b031681526020019081526020016000206000886001600160a01b03166001600160a01b031681526020019081526020016000206000828254611704919061485d565b9091555050600101611669565b50600061171e838561489a565b61172890836148ae565b905080600a600061173c60208e018e61476b565b61174760018961485d565b81811061175657611756614814565b905060200201602081019061176b9190613ddb565b6001600160a01b03166001600160a01b031681526020019081526020016000206000886001600160a01b03166001600160a01b0316815260200190815260200160002060008282546117bd919061485d565b909155505050505b505b6117d18780614261565b6117e2906060810190604001613d9e565b60045463ffffffff9081169116148015611808575060006118028a611fa9565b60030154115b15611834576000898152600760205260408120600401805483929061182e90849061485d565b90915550505b811561185f5760008a8152600e60205260409020805460ff1916905594509092508291506118b99050565b60008a8152600d6020526040812080549082905590806118ab8c87868685036118955761188c8e80614261565b60e00135611897565b865b6118a18f80614261565b6101400135611fea565b909950975094955050505050505b9450945094915050565b60006118ea846118d38880614261565b6118e4906080810190606001613ddb565b8761206f565b611900838686856118fb8b80614261565b6120ae565b50835b95945050505050565b601a54600090600160a01b900460ff161561193a57604051633ee5b89360e01b815260040160405180910390fd5b60006001600160a01b03841615801561195257508215155b156119705760405163ae715ad360e01b815260040160405180910390fd5b61197d8560200151612222565b60608601519091506001600160a01b03166119aa5760405162845fdd60e41b815260040160405180910390fd5b6127108560e0015111156119d15760405163388d723160e11b815260040160405180910390fd5b6040805180820190915260008082526020820181905290819060006001600160a01b03881615611b55576000611a068961225b565b90935090506000611a1682611fa9565b84518c5163ffffffff9081169116149350905082611a3e5780546001600160a01b0316611a44565b60208401515b95506001600160a01b038616611a6d5760405163965a46c160e01b815260040160405180910390fd5b6003810154838015611a7f5750600081115b15611acc5760008a8360040154611a9691906148ae565b905081811115611ab9576040516348ba8bf160e01b815260040160405180910390fd5b6000848152600760205260409020600401555b50835163ffffffff1660408c015260208401516101808c01528815611b5257611af58a8a6122d1565b611b06828b888c8f60e00151612422565b6101208c0152611b4b6001600160a01b038b811690881614611b36576001820154600160a01b900460ff16611b43565b8154600160a01b900460ff165b60128b6124a5565b6101408c01525b50505b60038054906000611b65836148c1565b909155506101608a0152611b7889610f03565b92503415611b8957611b8983610e75565b6000611ba3848b602001518886898f610120015188612510565b9050808a6101600151857f20e46be18a5337a5e2c807dcecc16382a2c9d4f4a4620ef7492c620fb89e9e228d8d8d8b604051611be294939291906148da565b60405180910390a450919450505050505b9392505050565b80471015611c4f5760405162461bcd60e51b815260206004820152601d60248201527f416464726573733a20696e73756666696369656e742062616c616e636500000060448201526064015b60405180910390fd5b6000826001600160a01b03168260405160006040518083038185875af1925050503d8060008114611c9c576040519150601f19603f3d011682016040523d82523d6000602084013e611ca1565b606091505b5050905080611d185760405162461bcd60e51b815260206004820152603a60248201527f416464726573733a20756e61626c6520746f2073656e642076616c75652c207260448201527f6563697069656e74206d617920686176652072657665727465640000000000006064820152608401611c46565b505050565b60008061038b60017fc8fcad8db84d3cc18b4c41d551ea0ee66dd599cde068d998e57d5e09332c131c61485d565b6000611d95611d598561269e565b84848080601f0160208091040260200160405190810160405280939291908181526020018383808284376000920191909152506126d992505050565b949350505050565b600080611da8610ee7565b6001600160a01b03161480611dbf575060125460ff165b905090565b6000611d9584848460006126fd565b600081611de08486614916565b611d959190614886565b6000806000611df886612738565b601b546040516369a933a560e01b81526001600160a01b03808416600483015260248201899052306044830152600060648301529293509116906369a933a590608401600060405180830381600087803b158015611e5557600080fd5b505af1158015611e69573d6000803e3d6000fd5b5050601b54604051631a4ca37b60e21b81526001600160a01b038581166004830152602482018a90523060448301526000945090911691506369328dec906064016020604051808303816000875af1158015611ec9573d6000803e3d6000fd5b505050506040513d601f19601f82011682018060405250810190611eed919061492d565b905085811015611f105760405163407559a360e11b815260040160405180910390fd5b6000888152601d60205260409020869055601c5461271090611f33908890614916565b611f3d9190614886565b6000898152601e60209081526040918290209290925580516001600160a01b038581168252928101899052918716918a917f2d3ba0fa5be2ef8cb1ec8920a07a6cbccc2397b18ca3e70f48ea695500b8f218910160405180910390a35084925090505b94509492505050565b6000818152600760205260408120600180820154839291600160a01b90910460ff161015611bf35760405163618cca3f60e11b815260040160405180910390fd5b6000806000611ff888611fa9565b60018101549091506001600160a01b0390811690881681036120205786935091506120659050565b866000036120345786935091506120659050565b61205e8989838a61205960128860010160149054906101000a900460ff168c8e612771565b6127bd565b9350935050505b9550959350505050565b8060000361207c57505050565b6001600160a01b0383166120a357604051633a48ca7b60e11b815260040160405180910390fd5b611d188383836128fc565b7fc5d2460186f7233c927e7db2dcc703c0e500b653ca82273b7bfad8045d85a4706120dc60c08301836147ce565b6040516120ea929190614946565b6040518091039020031561221b576000806121b161210e6080850160608601613ddb565b6127105a61211c919061485d565b600061010063fd614f4160e01b8c8c8c8c61213857600061214a565b61214a6101208d016101008e01613ddb565b61215760208e018e613d9e565b61216460c08f018f6147ce565b60405160240161217a9796959493929190614956565b60408051601f198184030181529190526020810180516001600160e01b03166001600160e01b03199093169290921790915261295f565b91509150831580156121c1575081155b156121de576040516264cdd360e41b815260040160405180910390fd5b867fb1a4ab59facaedd6d3a71da3902e0a1fa5b99750c0e20cd878334378a41cb33583836040516122109291906149a9565b60405180910390a250505b5050505050565b63ffffffff81166000908152600f60205260409020548061225657604051630c3bcd4960e41b815260040160405180910390fd5b919050565b604080518082019091526000808252602082015260008061227b846129e9565b90506000612291826020015183600001516112f4565b905061229c81611fa9565b60020154600160a01b900460ff166122c75760405163a13f958f60e01b815260040160405180910390fd5b9094909350915050565b806000036122dd575050565b6001600160a01b03821661230457604051632a38b13360e01b815260040160405180910390fd5b6040516370a0823160e01b815230600482015282906000906001600160a01b038316906370a0823190602401602060405180830381865afa15801561234d573d6000803e3d6000fd5b505050506040513d601f19601f82011682018060405250810190612371919061492d565b90506123886001600160a01b038316333086612a08565b6040516370a0823160e01b8152306004820152839082906001600160a01b038516906370a0823190602401602060405180830381865afa1580156123d0573d6000803e3d6000fd5b505050506040513d601f19601f820116820180604052508101906123f4919061492d565b6123fe919061485d565b1461241c57604051630e40773560e21b815260040160405180910390fd5b50505050565b60008260000361243457506000611903565b846001600160a01b0316846001600160a01b031603612454575081611903565b600061245f87611fa9565b90506000612498888888886120598760010160149054906101000a900460ff168860000160149054906101000a900460ff168c8c612771565b5098975050505050505050565b60008260ff168460ff16036124bb575080611bf3565b60008360ff168560ff1610156124f1576124d585856149c4565b6124e090600a614ac1565b6124ea9084614916565b9050611d95565b6124fb84866149c4565b61250690600a614ac1565b6119039084614886565b6000821561257e578161257e57604051632770a7eb60e21b8152306004820152602481018490526001600160a01b03851690639dc29fac90604401600060405180830381600087803b15801561256557600080fd5b505af1158015612579573d6000803e3d6000fd5b505050505b6000856000015186602001516003868c6040516020016125a2959493929190614ad0565b60408051601f1981840301815282825260208054639fa92f9d60e01b855292519194506000936001600160a01b0390931692639fa92f9d92600480830193928290030181865afa1580156125fa573d6000803e3d6000fd5b505050506040513d601f19601f8201168201806040525081019061261e9190614b0f565b6001600160a01b031663fa31de018a8a856040518463ffffffff1660e01b815260040161264d93929190614b2c565b6020604051808303816000875af115801561266c573d6000803e3d6000fd5b505050506040513d601f19601f82011682018060405250810190612690919061492d565b9a9950505050505050505050565b6040517f19457468657265756d205369676e6564204d6573736167653a0a3332000000006020820152603c8101829052600090605c01610f16565b60008060006126e88585612a40565b915091506126f581612a85565b509392505050565b600481015460009063ffffffff9081169084160361271c575082611d95565b61272585611fa9565b546001600160a01b031695945050505050565b60008061274483611fa9565b600101546001600160a01b031690508061038b57604051630558a50760e31b815260040160405180910390fd5b60008260000361278357506000611d95565b6000612710612792848261485d565b61279c9086614916565b6127a69190614886565b90506127b38686836124a5565b9695505050505050565b6000858152601860205260408120819081906127d881612bd2565b1561280a576127fe6127ea8a8a612bef565b6127f48b8a612bef565b8391908989612c6f565b87935093505050612065565b60006128158a611fa9565b600201546001600160a01b0390811691508990612836908216836000612f78565b61284a6001600160a01b038216838a61308d565b6001600160a01b03821663d460f0a2898c8c8b612869610e10426148ae565b6040516001600160e01b031960e088901b16815260048101959095526001600160a01b0393841660248601529290911660448401526064830152608482015260a4016020604051808303816000875af11580156128ca573d6000803e3d6000fd5b505050506040513d601f19601f820116820180604052508101906128ee919061492d565b899550955050505050612065565b6040516001600160a01b038316602482015260448101829052611d1890849063a9059cbb60e01b906064015b60408051601f198184030181529190526020810180516001600160e01b03166001600160e01b03199093169290921790915261313f565b6000606060008060008661ffff166001600160401b0381111561298457612984614088565b6040519080825280601f01601f1916602001820160405280156129ae576020820181803683370190505b5090506000808751602089018b8e8ef191503d9250868311156129cf578692505b828152826000602083013e90999098509650505050505050565b604080518082019091526000808252602082015261038b826000613211565b6040516001600160a01b038085166024830152831660448201526064810182905261241c9085906323b872dd60e01b90608401612928565b6000808251604103612a765760208301516040840151606085015160001a612a6a87828585613309565b94509450505050612a7e565b506000905060025b9250929050565b6000816004811115612a9957612a99613ff0565b03612aa15750565b6001816004811115612ab557612ab5613ff0565b03612b025760405162461bcd60e51b815260206004820152601860248201527f45434453413a20696e76616c6964207369676e617475726500000000000000006044820152606401611c46565b6002816004811115612b1657612b16613ff0565b03612b635760405162461bcd60e51b815260206004820152601f60248201527f45434453413a20696e76616c6964207369676e6174757265206c656e677468006044820152606401611c46565b6003816004811115612b7757612b77613ff0565b03612bcf5760405162461bcd60e51b815260206004820152602260248201527f45434453413a20696e76616c6964207369676e6174757265202773272076616c604482015261756560f01b6064820152608401611c46565b50565b600c81015460009060ff1615801561038b57505060080154151590565b60008281526019602090815260408083206001600160a01b0385168085529083528184205486855260189093529083206008018054849360ff1692919083908110612c3c57612c3c614814565b6000918252602090912001546001600160a01b031614611d955760405163054e442960e41b815260040160405180910390fd5b600c85015460009060ff1615612cb75760405162461bcd60e51b815260206004820152600d60248201526c191a5cd8589b1959081c1bdbdb609a1b6044820152606401611c46565b85600a018560ff1681548110612ccf57612ccf614814565b9060005260206000200154831115612d225760405162461bcd60e51b81526020600482015260166024820152756d6f7265207468616e20706f6f6c2062616c616e636560501b6044820152606401611c46565b600080600088600a01805480602002602001604051908101604052809291908181526020018280548015612d7557602002820191906000526020600020905b815481526020019060010190808311612d61575b50505050509050612d8989898989856133ca565b909350915084831015612dcb5760405162461bcd60e51b815260206004820152600a6024820152696479203c206d696e447960b01b6044820152606401611c46565b6000896009018860ff1681548110612de557612de5614814565b90600052602060002001546402540be4008b6006015485612e069190614916565b612e109190614886565b612e1a9190614886565b905086828a60ff1681518110612e3257612e32614814565b6020026020010151612e4491906148ae565b8a600a018a60ff1681548110612e5c57612e5c614814565b90600052602060002001819055508084838a60ff1681518110612e8157612e81614814565b6020026020010151612e93919061485d565b612e9d919061485d565b8a600a018960ff1681548110612eb557612eb5614814565b6000918252602090912001558015612f1a57808a600b018960ff1681548110612ee057612ee0614814565b9060005260206000200154612ef591906148ae565b8a600b018960ff1681548110612f0d57612f0d614814565b6000918252602090912001555b8954604080518981526020810187905260ff8c8116828401528b16606082015290513392917f28d4cf2d5709da3b474b5f05cfd7083faffd601f9500d1f8439b8a13ec7df320919081900360800190a3509198975050505050505050565b801580612ff25750604051636eb1769f60e11b81523060048201526001600160a01b03838116602483015284169063dd62ed3e90604401602060405180830381865afa158015612fcc573d6000803e3d6000fd5b505050506040513d601f19601f82011682018060405250810190612ff0919061492d565b155b61305d5760405162461bcd60e51b815260206004820152603660248201527f5361666545524332303a20617070726f76652066726f6d206e6f6e2d7a65726f60448201527520746f206e6f6e2d7a65726f20616c6c6f77616e636560501b6064820152608401611c46565b6040516001600160a01b038316602482015260448101829052611d1890849063095ea7b360e01b90606401612928565b604051636eb1769f60e11b81523060048201526001600160a01b038381166024830152600091839186169063dd62ed3e90604401602060405180830381865afa1580156130de573d6000803e3d6000fd5b505050506040513d601f19601f82011682018060405250810190613102919061492d565b61310c91906148ae565b6040516001600160a01b03851660248201526044810182905290915061241c90859063095ea7b360e01b90606401612928565b6000613194826040518060400160405280602081526020017f5361666545524332303a206c6f772d6c6576656c2063616c6c206661696c6564815250856001600160a01b03166135909092919063ffffffff16565b805190915015611d1857808060200190518101906131b29190614b51565b611d185760405162461bcd60e51b815260206004820152602a60248201527f5361666545524332303a204552433230206f7065726174696f6e20646964206e6044820152691bdd081cdd58d8d9595960b21b6064820152608401611c46565b604080518082019091526000808252602082015260408051808201909152600080825260208201526001600160a01b03841661324e57905061038b565b506001600160a01b03831660009081526005830160209081526040918290208251808401909352805463ffffffff16808452600190910154918301919091521561329957905061038b565b6132a3848461359f565b156132c957600483015463ffffffff1681526001600160a01b0384166020820152611bf3565b506001600160a01b03831660009081526006830160209081526040918290208251808401909352805463ffffffff16835260010154908201529392505050565b6000807f7fffffffffffffffffffffffffffffff5d576e7357a4501ddfe92f46681b20a08311156133405750600090506003611fa0565b6040805160008082526020820180845289905260ff881692820192909252606081018690526080810185905260019060a0016020604051602081039080840390855afa158015613394573d6000803e3d6000fd5b5050604051601f1901519150506001600160a01b0381166133bd57600060019250925050611fa0565b9660009650945050505050565b60008060008760090180548060200260200160405190810160405280929190818152602001828054801561341d57602002820191906000526020600020905b815481526020019060010190808311613409575b50505050509050600061343085836135de565b905080518860ff16108015613448575080518760ff16105b6134895760405162461bcd60e51b8152602060048201526012602482015271696e646578206f7574206f662072616e676560701b6044820152606401611c46565b6000818960ff16815181106134a0576134a0614814565b6020026020010151838a60ff16815181106134bd576134bd614814565b6020026020010151886134d09190614916565b6134da91906148ae565b905060006134f36134ea8c6136e8565b8b8b85876136f3565b9050600181848b60ff168151811061350d5761350d614814565b602002602001015161351f919061485d565b613529919061485d565b95506402540be4008b60050154876135419190614916565b61354b9190614886565b9450838960ff168151811061356257613562614814565b60200260200101518587613576919061485d565b6135809190614886565b9550505050509550959350505050565b6060611d95848460008561395a565b6001600160a01b038216600090815260068201602052604081205463ffffffff16156135cd5750600061038b565b50506001600160a01b03163b151590565b8151815160609190811461362b5760405162461bcd60e51b81526020600482015260146024820152736d69736d61746368206d756c7469706c6965727360601b6044820152606401611c46565b6000816001600160401b0381111561364557613645614088565b60405190808252806020026020018201604052801561366e578160200160208202803683370190505b50905060005b828110156136df5784818151811061368e5761368e614814565b60200260200101518682815181106136a8576136a8614814565b60200260200101516136ba9190614916565b8282815181106136cc576136cc614814565b6020908102919091010152600101613674565b50949350505050565b600061038b82613a35565b805160009060ff8086169087160361374d5760405162461bcd60e51b815260206004820152601760248201527f636f6d7061726520746f6b656e20746f20697473656c660000000000000000006044820152606401611c46565b808660ff161080156137615750808560ff16105b61379f5760405162461bcd60e51b815260206004820152600f60248201526e1d1bdad95b881b9bdd08199bdd5b99608a1b6044820152606401611c46565b60006137ab8489613a7e565b9050806000806137bb8b86614916565b90506000805b86811015613842578b60ff1681036137db5789915061380e565b8a60ff168114613806578881815181106137f7576137f7614814565b6020026020010151915061380e565b6001016137c1565b61381882856148ae565b93506138248783614916565b61382e8787614916565b6138389190614886565b94506001016137c1565b5061384d8683614916565b60646138598787614916565b6138639190614916565b61386d9190614886565b935060008261387d606488614916565b6138879190614886565b61389190856148ae565b9050600086815b6101008110156139115781925088848360026138b49190614916565b6138be91906148ae565b6138c8919061485d565b886138d38480614916565b6138dd91906148ae565b6138e79190614886565b91506138f38284613c2b565b1561390957509850611903975050505050505050565b600101613898565b5060405162461bcd60e51b815260206004820152601e60248201527f417070726f78696d6174696f6e20646964206e6f7420636f6e766572676500006044820152606401611c46565b6060824710156139bb5760405162461bcd60e51b815260206004820152602660248201527f416464726573733a20696e73756666696369656e742062616c616e636520666f6044820152651c8818d85b1b60d21b6064820152608401611c46565b600080866001600160a01b031685876040516139d79190614b6e565b60006040518083038185875af1925050503d8060008114613a14576040519150601f19603f3d011682016040523d82523d6000602084013e613a19565b606091505b5091509150613a2a87838387613c41565b979650505050505050565b600481015460028201546001830154909190808314801590613a5657508142105b15613a77576000846003015490508083038142038502428503840201049350505b5050919050565b815160009081805b82811015613abd57858181518110613aa057613aa0614814565b602002602001015182613ab391906148ae565b9150600101613a86565b5080600003613ad15760009250505061038b565b60008181613adf8588614916565b905060005b610100811015613bec578260005b87811015613b3d57878b8281518110613b0d57613b0d614814565b6020026020010151613b1f9190614916565b613b298684614916565b613b339190614886565b9150600101613af2565b5083945080876001613b4f91906148ae565b613b599190614916565b606485613b66828761485d565b613b709190614916565b613b7a9190614886565b613b8491906148ae565b84613b8f8984614916565b6064613b9b8a88614916565b613ba59190614886565b613baf91906148ae565b613bb99190614916565b613bc39190614886565b9350613bcf8486613c2b565b15613be3578397505050505050505061038b565b50600101613ae4565b5060405162461bcd60e51b81526020600482015260136024820152724420646f6573206e6f7420636f6e766572676560681b6044820152606401611c46565b60006002613c398484613cba565b109392505050565b60608315613cb0578251600003613ca9576001600160a01b0385163b613ca95760405162461bcd60e51b815260206004820152601d60248201527f416464726573733a2063616c6c20746f206e6f6e2d636f6e74726163740000006044820152606401611c46565b5081611d95565b611d958383613cdf565b600081831115613cd557613cce828461485d565b905061038b565b611bf3838361485d565b815115613cef5781518083602001fd5b8060405162461bcd60e51b8152600401611c469190614b80565b828054828255906000526020600020908101928215613d5c579160200282015b82811115613d5c5781546001600160a01b0319166001600160a01b03843516178255602090920191600190910190613d29565b50613d68929150613d6c565b5090565b5b80821115613d685760008155600101613d6d565b63ffffffff81168114612bcf57600080fd5b803561225681613d81565b600060208284031215613db057600080fd5b8135611bf381613d81565b6001600160a01b0381168114612bcf57600080fd5b803561225681613dbb565b600060208284031215613ded57600080fd5b8135611bf381613dbb565b600060208284031215613e0a57600080fd5b5035919050565b6020808252825182820181905260009190848201906040850190845b81811015613e525783516001600160a01b031683529284019291840191600101613e2d565b50909695505050505050565b60006101a08284031215613e7157600080fd5b50919050565b60008060408385031215613e8a57600080fd5b82356001600160401b03811115613ea057600080fd5b613eac85828601613e5e565b95602094909401359450505050565b600060208284031215613ecd57600080fd5b81356001600160401b03811115613ee357600080fd5b820160a08185031215611bf357600080fd5b60008060008060008060008060e0898b031215613f1157600080fd5b8835613f1c81613d81565b97506020890135613f2c81613dbb565b96506040890135613f3c81613dbb565b95506060890135613f4c81613dbb565b94506080890135935060a0890135925060c08901356001600160401b0380821115613f7657600080fd5b818b0191508b601f830112613f8a57600080fd5b813581811115613f9957600080fd5b8c6020828501011115613fab57600080fd5b6020830194508093505050509295985092959890939650565b60008060408385031215613fd757600080fd5b8235613fe281613d81565b946020939093013593505050565b634e487b7160e01b600052602160045260246000fd5b60048110612bcf57634e487b7160e01b600052602160045260246000fd5b6020810161403183614006565b91905290565b60006020828403121561404957600080fd5b81356001600160401b0381111561405f57600080fd5b611d9584828501613e5e565b60006020828403121561407d57600080fd5b8151611bf381613d81565b634e487b7160e01b600052604160045260246000fd5b6040516101a081016001600160401b03811182821017156140c1576140c1614088565b60405290565b8015158114612bcf57600080fd5b8035612256816140c7565b600082601f8301126140f157600080fd5b81356001600160401b038082111561410b5761410b614088565b604051601f8301601f19908116603f0116810190828211818310171561413357614133614088565b8160405283815286602085880101111561414c57600080fd5b836020870160208301376000602085830101528094505050505092915050565b60006101a0823603121561417f57600080fd5b61418761409e565b61419083613d93565b815261419e60208401613d93565b60208201526141af60408401613d93565b60408201526141c060608401613dd0565b60608201526141d160808401613dd0565b60808201526141e260a084016140d5565b60a082015260c08301356001600160401b0381111561420057600080fd5b61420c368286016140e0565b60c08301525060e083013560e082015261010061422a818501613dd0565b9082015261012083810135908201526101408084013590820152610160808401359082015261018092830135928101929092525090565b6000823561019e1983360301811261427857600080fd5b9190910192915050565b6000808335601e1984360301811261429957600080fd5b83016020810192503590506001600160401b038111156142b857600080fd5b803603821315612a7e57600080fd5b81835281816020850137506000828201602090810191909152601f909101601f19169091010190565b6000808335601e1984360301811261430757600080fd5b83016020810192503590506001600160401b0381111561432657600080fd5b8060051b3603821315612a7e57600080fd5b8183526000602080850194508260005b8581101561437657813561435b81613dbb565b6001600160a01b031687529582019590820190600101614348565b509495945050505050565b81835260006020808501808196508560051b810191508460005b878110156143d15782840389526143b28288614282565b6143bd8682846142c7565b9a87019a955050509084019060010161439b565b5091979650505050505050565b608081526000610120863561019e198836030181126143fc57600080fd5b60a06080850152870161441e82850161441483613d93565b63ffffffff169052565b61442a60208201613d93565b61014061443e8187018363ffffffff169052565b61444a60408401613d93565b91506101606144608188018463ffffffff169052565b61446c60608501613dd0565b9250610180614485818901856001600160a01b03169052565b61449160808601613dd0565b93506101a06144aa818a01866001600160a01b03169052565b6144b660a087016140d5565b8015156101c08b015294506144ce60c0870187614282565b9550816101e08b01526144e66102c08b0187836142c7565b9550505060e0850135610200890152610100614503818701613dd0565b6001600160a01b03166102208a0152858701356102408a0152838601356102608a0152828601356102808a0152818601356102a08a015261454760208e018e6142f0565b97509550607f199350838986030160a08a0152614565858888614338565b965061457460408e018e6142f0565b96509450838988030160c08a015261458d878787614381565b965061459b60608e01613dd0565b6001600160a01b03811660e08b015295506145b960808e018e614282565b965094508389880301818a0152505050506145d58383836142c7565b93505050506145ef60208301866001600160a01b03169052565b83604083015261190360608301846001600160a01b03169052565b60005b8381101561462557818101518382015260200161460d565b50506000910152565b6000815180845261464681602086016020860161460a565b601f01601f19169290920160200192915050565b805163ffffffff16825260006101a06020830151614680602086018263ffffffff169052565b506040830151614698604086018263ffffffff169052565b5060608301516146b360608601826001600160a01b03169052565b5060808301516146ce60808601826001600160a01b03169052565b5060a08301516146e260a086018215159052565b5060c08301518160c08601526146fa8286018261462e565b91505060e083015160e085015261010080840151614722828701826001600160a01b03169052565b50506101208381015190850152610140808401519085015261016080840151908501526101809283015192909301919091525090565b602081526000611bf3602083018461465a565b6000808335601e1984360301811261478257600080fd5b8301803591506001600160401b0382111561479c57600080fd5b6020019150600581901b3603821315612a7e57600080fd5b838152604060208201526000611903604083018486614338565b6000808335601e198436030181126147e557600080fd5b8301803591506001600160401b038211156147ff57600080fd5b602001915036819003821315612a7e57600080fd5b634e487b7160e01b600052603260045260246000fd5b60006020828403121561483c57600080fd5b8135611bf3816140c7565b634e487b7160e01b600052601160045260246000fd5b8181038181111561038b5761038b614847565b634e487b7160e01b600052601260045260246000fd5b60008261489557614895614870565b500490565b6000826148a9576148a9614870565b500690565b8082018082111561038b5761038b614847565b6000600182016148d3576148d3614847565b5060010190565b6080815260006148ed608083018761465a565b6001600160a01b0395861660208401526040830194909452509216606090920191909152919050565b808202811582820484141761038b5761038b614847565b60006020828403121561493f57600080fd5b5051919050565b8183823760009101908152919050565b878152602081018790526001600160a01b0386811660408301528516606082015263ffffffff8416608082015260c060a0820181905260009061499c90830184866142c7565b9998505050505050505050565b8215158152604060208201526000611d95604083018461462e565b60ff828116828216039081111561038b5761038b614847565b600181815b80851115614a185781600019048211156149fe576149fe614847565b80851615614a0b57918102915b93841c93908002906149e2565b509250929050565b600082614a2f5750600161038b565b81614a3c5750600061038b565b8160018114614a525760028114614a5c57614a78565b600191505061038b565b60ff841115614a6d57614a6d614847565b50506001821b61038b565b5060208310610133831016604e8410600b8410161715614a9b575081810a61038b565b614aa583836149dd565b8060001904821115614ab957614ab9614847565b029392505050565b6000611bf360ff841683614a20565b63ffffffff60e01b8660e01b168152846004820152614aee84614006565b60f89390931b60248401526025830191909152604582015260650192915050565b600060208284031215614b2157600080fd5b8151611bf381613dbb565b63ffffffff84168152826020820152606060408201526000611903606083018461462e565b600060208284031215614b6357600080fd5b8151611bf3816140c7565b6000825161427881846020870161460a565b602081526000611bf3602083018461462e56fea26469706673582212201ebee6a879cdb822d5e4a37922e317142beec0b9fa12eb3a96a913467642af5264736f6c63430008110033",
  "devdoc": {
    "events": {
      "AavePortalMintUnbacked(bytes32,address,address,uint256)": {
        "params": {
          "amount": "- The amount of asset that was provided by Aave Portal",
          "asset": "- The asset that was provided by Aave Portal",
          "router": "- The authorized router that used Aave Portal liquidity",
          "transferId": "- The unique identifier of the crosschain transaction"
        }
      },
      "Executed(bytes32,address,address,((uint32,uint32,uint32,address,address,bool,bytes,uint256,address,uint256,uint256,uint256,bytes32),address[],bytes[],address,bytes),address,uint256,address)": {
        "details": "`execute` may be called when providing fast liquidity or when processing a reconciled (slow) transfer.",
        "params": {
          "amount": "- The amount of transferring asset the recipient address receives or the external call is executed with.",
          "args": "- The `ExecuteArgs` provided to the function.",
          "asset": "- The asset the recipient is given or the external call is executed with. Should be the adopted asset on that chain.",
          "caller": "- The account that called the function.",
          "local": "- The local asset that was either supplied by the router for a fast-liquidity transfer or minted by the bridge in a reconciled (slow) transfer. Could be the same as the adopted `asset` param.",
          "to": "- The recipient `TransferInfo.to` provided, created as indexed parameter.",
          "transferId": "- The unique identifier of the crosschain transfer."
        }
      },
      "ExternalCalldataExecuted(bytes32,bool,bytes)": {
        "params": {
          "returnData": "- Return bytes from the IXReceiver",
          "success": "- Whether calldata succeeded",
          "transferId": "- The unique identifier of the crosschain transfer."
        }
      },
      "ForceReceiveLocal(bytes32)": {
        "params": {
          "transferId": "- The unique identifier of the crosschain transaction"
        }
      },
      "RemoteAdded(uint32,address,address)": {
        "params": {
          "caller": "- The account that called the function",
          "domain": "- The domain the remote instance is on",
          "remote": "- The address of the remote instance"
        }
      },
      "SequencerAdded(address,address)": {
        "params": {
          "caller": "- The account that called the function",
          "sequencer": "- The sequencer address to be added or removed"
        }
      },
      "SequencerRemoved(address,address)": {
        "params": {
          "caller": "- The account that called the function",
          "sequencer": "- The sequencer address to be added or removed"
        }
      },
      "SlippageUpdated(bytes32,uint256)": {
        "params": {
          "slippage": "- The updated slippage boundary",
          "transferId": "- The unique identifier of the crosschain transaction"
        }
      },
      "TransferRelayerFeesIncreased(bytes32,uint256,address)": {
        "params": {
          "caller": "- The account that called the function",
          "increase": "- The additional amount fees increased by",
          "transferId": "- The unique identifier of the crosschain transaction"
        }
      },
      "XAppConnectionManagerSet(address,address)": {
        "params": {
          "caller": "- The account that called the function",
          "updated": "- The updated address"
        }
      },
      "XCalled(bytes32,uint256,bytes32,(uint32,uint32,uint32,address,address,bool,bytes,uint256,address,uint256,uint256,uint256,bytes32),address,uint256,address)": {
        "params": {
          "amount": "- The amount sent in with xcall",
          "asset": "- The asset sent in with xcall",
          "local": "- The local asset that is controlled by the bridge and can be burned/minted",
          "messageHash": "- The hash of the message bytes (containing all transfer info) that were bridged.",
          "nonce": "- The bridge nonce of the transfer on the origin domain.",
          "params": "- The `TransferInfo` provided to the function.",
          "transferId": "- The unique identifier of the crosschain transfer."
        }
      }
    },
    "kind": "dev",
    "methods": {
      "addSequencer(address)": {
        "params": {
          "_sequencer": "- The sequencer address to add."
        }
      },
      "bumpTransfer(bytes32)": {
        "params": {
          "_transferId": "- The unique identifier of the crosschain transaction"
        }
      },
      "enrollRemoteRouter(uint32,bytes32)": {
        "params": {
          "_domain": "The domain of the remote xApp Router",
          "_router": "The address of the remote xApp Router"
        }
      },
      "execute(((uint32,uint32,uint32,address,address,bool,bytes,uint256,address,uint256,uint256,uint256,bytes32),address[],bytes[],address,bytes))": {
        "details": "Can be called before or after `handle` [reconcile] is called (regarding the same transfer), depending on whether the fast liquidity route (i.e. funds provided by routers) is being used for this transfer. As a result, executed calldata (including properties like `originSender`) may or may not be verified depending on whether the reconcile has been completed (i.e. the optimistic confirmation period has elapsed).",
        "params": {
          "_args": "- ExecuteArgs arguments."
        },
        "returns": {
          "_0": "bytes32 - The transfer ID of the crosschain transfer. Should match the xcall's transfer ID in order for reconciliation to occur."
        }
      },
      "forceReceiveLocal((uint32,uint32,uint32,address,address,bool,bytes,uint256,address,uint256,uint256,uint256,bytes32))": {
        "details": "Calldata will still be executed with the local asset. `IXReceiver` contracts should be able to handle local assets in event of failures.",
        "params": {
          "_params": "TransferInfo associated with the transfer"
        }
      },
      "forceUpdateSlippage((uint32,uint32,uint32,address,address,bool,bytes,uint256,address,uint256,uint256,uint256,bytes32),uint256)": {
        "params": {
          "_params": "TransferInfo associated with the transfer",
          "_slippage": "The updated slippage"
        }
      },
      "removeSequencer(address)": {
        "params": {
          "_sequencer": "- The sequencer address to remove."
        }
      },
      "setXAppConnectionManager(address)": {
        "params": {
          "_xAppConnectionManager": "The address of the xAppConnectionManager contract"
        }
      }
    },
    "version": 1
  },
  "userdoc": {
    "events": {
      "AavePortalMintUnbacked(bytes32,address,address,uint256)": {
        "notice": "Emitted when a router used Aave Portal liquidity for fast transfer"
      },
      "Executed(bytes32,address,address,((uint32,uint32,uint32,address,address,bool,bytes,uint256,address,uint256,uint256,uint256,bytes32),address[],bytes[],address,bytes),address,uint256,address)": {
        "notice": "Emitted when `execute` is called on the destination domain of a transfer."
      },
      "ExternalCalldataExecuted(bytes32,bool,bytes)": {
        "notice": "Emitted when a transfer has its external data executed"
      },
      "ForceReceiveLocal(bytes32)": {
        "notice": "Emitted when `forceReceiveLocal` is called by a user-delegated EOA on the destination domain"
      },
      "RemoteAdded(uint32,address,address)": {
        "notice": "Emitted when a new remote instance is added"
      },
      "SequencerAdded(address,address)": {
        "notice": "Emitted when a sequencer is added or removed from allowlists"
      },
      "SequencerRemoved(address,address)": {
        "notice": "Emitted when a sequencer is added or removed from allowlists"
      },
      "SlippageUpdated(bytes32,uint256)": {
        "notice": "Emitted when `forceUpdateSlippage` is called by user-delegated EOA on the destination domain"
      },
      "TransferRelayerFeesIncreased(bytes32,uint256,address)": {
        "notice": "Emitted when `_bumpTransfer` is called by an user on the origin domain both in `xcall` and `bumpTransfer`"
      },
      "XAppConnectionManagerSet(address,address)": {
        "notice": "Emitted `xAppConnectionManager` is updated"
      },
      "XCalled(bytes32,uint256,bytes32,(uint32,uint32,uint32,address,address,bool,bytes,uint256,address,uint256,uint256,uint256,bytes32),address,uint256,address)": {
        "notice": "Emitted when `xcall` is called on the origin domain of a transfer."
      }
    },
    "kind": "user",
    "methods": {
      "addSequencer(address)": {
        "notice": "Used to add an approved sequencer to the allowlist."
      },
      "bumpTransfer(bytes32)": {
        "notice": "Anyone can call this function on the origin domain to increase the relayer fee for a transfer."
      },
      "enrollRemoteRouter(uint32,bytes32)": {
        "notice": "Register the address of a Router contract for the same xApp on a remote chain"
      },
      "execute(((uint32,uint32,uint32,address,address,bool,bytes,uint256,address,uint256,uint256,uint256,bytes32),address[],bytes[],address,bytes))": {
        "notice": "Called on a destination domain to disburse correct assets to end recipient and execute any included calldata."
      },
      "forceReceiveLocal((uint32,uint32,uint32,address,address,bool,bytes,uint256,address,uint256,uint256,uint256,bytes32))": {
        "notice": "Allows a user-specified account to withdraw the local asset directly"
      },
      "forceUpdateSlippage((uint32,uint32,uint32,address,address,bool,bytes,uint256,address,uint256,uint256,uint256,bytes32),uint256)": {
        "notice": "Allows a user-specified account to update the slippage they are willing to take on destination transfers."
      },
      "removeSequencer(address)": {
        "notice": "Used to remove an approved sequencer from the allowlist."
      },
      "setXAppConnectionManager(address)": {
        "notice": "Modify the contract the xApp uses to validate Replica contracts"
      }
    },
    "version": 1
  },
  "storageLayout": {
    "storage": [
      {
        "astId": 13720,
        "contract": "contracts/core/connext/facets/BridgeFacet.sol:BridgeFacet",
        "label": "s",
        "offset": 0,
        "slot": "0",
        "type": "t_struct(AppStorage)29487_storage"
      }
    ],
    "types": {
      "t_address": {
        "encoding": "inplace",
        "label": "address",
        "numberOfBytes": "20"
      },
      "t_array(t_address)dyn_storage": {
        "base": "t_address",
        "encoding": "dynamic_array",
        "label": "address[]",
        "numberOfBytes": "32"
      },
      "t_array(t_contract(IERC20)10806)dyn_storage": {
        "base": "t_contract(IERC20)10806",
        "encoding": "dynamic_array",
        "label": "contract IERC20[]",
        "numberOfBytes": "32"
      },
      "t_array(t_uint256)dyn_storage": {
        "base": "t_uint256",
        "encoding": "dynamic_array",
        "label": "uint256[]",
        "numberOfBytes": "32"
      },
      "t_bool": {
        "encoding": "inplace",
        "label": "bool",
        "numberOfBytes": "1"
      },
      "t_bytes32": {
        "encoding": "inplace",
        "label": "bytes32",
        "numberOfBytes": "32"
      },
      "t_contract(IConnectorManager)47349": {
        "encoding": "inplace",
        "label": "contract IConnectorManager",
        "numberOfBytes": "20"
      },
      "t_contract(IERC20)10806": {
        "encoding": "inplace",
        "label": "contract IERC20",
        "numberOfBytes": "20"
      },
      "t_contract(LPToken)23142": {
        "encoding": "inplace",
        "label": "contract LPToken",
        "numberOfBytes": "20"
      },
      "t_enum(DestinationTransferStatus)29275": {
        "encoding": "inplace",
        "label": "enum DestinationTransferStatus",
        "numberOfBytes": "1"
      },
      "t_enum(Role)29270": {
        "encoding": "inplace",
        "label": "enum Role",
        "numberOfBytes": "1"
      },
      "t_mapping(t_address,t_bool)": {
        "encoding": "mapping",
        "key": "t_address",
        "label": "mapping(address => bool)",
        "numberOfBytes": "32",
        "value": "t_bool"
      },
      "t_mapping(t_address,t_enum(Role)29270)": {
        "encoding": "mapping",
        "key": "t_address",
        "label": "mapping(address => enum Role)",
        "numberOfBytes": "32",
        "value": "t_enum(Role)29270"
      },
      "t_mapping(t_address,t_mapping(t_address,t_uint256))": {
        "encoding": "mapping",
        "key": "t_address",
        "label": "mapping(address => mapping(address => uint256))",
        "numberOfBytes": "32",
        "value": "t_mapping(t_address,t_uint256)"
      },
      "t_mapping(t_address,t_struct(RouterConfig)29329_storage)": {
        "encoding": "mapping",
        "key": "t_address",
        "label": "mapping(address => struct RouterConfig)",
        "numberOfBytes": "32",
        "value": "t_struct(RouterConfig)29329_storage"
      },
      "t_mapping(t_address,t_struct(TokenId)37687_storage)": {
        "encoding": "mapping",
        "key": "t_address",
        "label": "mapping(address => struct TokenId)",
        "numberOfBytes": "32",
        "value": "t_struct(TokenId)37687_storage"
      },
      "t_mapping(t_address,t_uint256)": {
        "encoding": "mapping",
        "key": "t_address",
        "label": "mapping(address => uint256)",
        "numberOfBytes": "32",
        "value": "t_uint256"
      },
      "t_mapping(t_address,t_uint8)": {
        "encoding": "mapping",
        "key": "t_address",
        "label": "mapping(address => uint8)",
        "numberOfBytes": "32",
        "value": "t_uint8"
      },
      "t_mapping(t_bytes32,t_array(t_address)dyn_storage)": {
        "encoding": "mapping",
        "key": "t_bytes32",
        "label": "mapping(bytes32 => address[])",
        "numberOfBytes": "32",
        "value": "t_array(t_address)dyn_storage"
      },
      "t_mapping(t_bytes32,t_bool)": {
        "encoding": "mapping",
        "key": "t_bytes32",
        "label": "mapping(bytes32 => bool)",
        "numberOfBytes": "32",
        "value": "t_bool"
      },
      "t_mapping(t_bytes32,t_enum(DestinationTransferStatus)29275)": {
        "encoding": "mapping",
        "key": "t_bytes32",
        "label": "mapping(bytes32 => enum DestinationTransferStatus)",
        "numberOfBytes": "32",
        "value": "t_enum(DestinationTransferStatus)29275"
      },
      "t_mapping(t_bytes32,t_mapping(t_address,t_uint8))": {
        "encoding": "mapping",
        "key": "t_bytes32",
        "label": "mapping(bytes32 => mapping(address => uint8))",
        "numberOfBytes": "32",
        "value": "t_mapping(t_address,t_uint8)"
      },
      "t_mapping(t_bytes32,t_struct(Swap)30745_storage)": {
        "encoding": "mapping",
        "key": "t_bytes32",
        "label": "mapping(bytes32 => struct SwapUtils.Swap)",
        "numberOfBytes": "32",
        "value": "t_struct(Swap)30745_storage"
      },
      "t_mapping(t_bytes32,t_struct(TokenConfig)29346_storage)": {
        "encoding": "mapping",
        "key": "t_bytes32",
        "label": "mapping(bytes32 => struct TokenConfig)",
        "numberOfBytes": "32",
        "value": "t_struct(TokenConfig)29346_storage"
      },
      "t_mapping(t_bytes32,t_uint256)": {
        "encoding": "mapping",
        "key": "t_bytes32",
        "label": "mapping(bytes32 => uint256)",
        "numberOfBytes": "32",
        "value": "t_uint256"
      },
      "t_mapping(t_uint32,t_bytes32)": {
        "encoding": "mapping",
        "key": "t_uint32",
        "label": "mapping(uint32 => bytes32)",
        "numberOfBytes": "32",
        "value": "t_bytes32"
      },
      "t_struct(AppStorage)29487_storage": {
        "encoding": "inplace",
        "label": "struct AppStorage",
        "members": [
          {
            "astId": 29348,
            "contract": "contracts/core/connext/facets/BridgeFacet.sol:BridgeFacet",
            "label": "initialized",
            "offset": 0,
            "slot": "0",
            "type": "t_bool"
          },
          {
            "astId": 29350,
            "contract": "contracts/core/connext/facets/BridgeFacet.sol:BridgeFacet",
            "label": "LIQUIDITY_FEE_NUMERATOR",
            "offset": 0,
            "slot": "1",
            "type": "t_uint256"
          },
          {
            "astId": 29353,
            "contract": "contracts/core/connext/facets/BridgeFacet.sol:BridgeFacet",
            "label": "relayerFeeVault",
            "offset": 0,
            "slot": "2",
            "type": "t_address"
          },
          {
            "astId": 29356,
            "contract": "contracts/core/connext/facets/BridgeFacet.sol:BridgeFacet",
            "label": "nonce",
            "offset": 0,
            "slot": "3",
            "type": "t_uint256"
          },
          {
            "astId": 29359,
            "contract": "contracts/core/connext/facets/BridgeFacet.sol:BridgeFacet",
            "label": "domain",
            "offset": 0,
            "slot": "4",
            "type": "t_uint32"
          },
          {
            "astId": 29365,
            "contract": "contracts/core/connext/facets/BridgeFacet.sol:BridgeFacet",
            "label": "adoptedToCanonical",
            "offset": 0,
            "slot": "5",
            "type": "t_mapping(t_address,t_struct(TokenId)37687_storage)"
          },
          {
            "astId": 29371,
            "contract": "contracts/core/connext/facets/BridgeFacet.sol:BridgeFacet",
            "label": "representationToCanonical",
            "offset": 0,
            "slot": "6",
            "type": "t_mapping(t_address,t_struct(TokenId)37687_storage)"
          },
          {
            "astId": 29377,
            "contract": "contracts/core/connext/facets/BridgeFacet.sol:BridgeFacet",
            "label": "tokenConfigs",
            "offset": 0,
            "slot": "7",
            "type": "t_mapping(t_bytes32,t_struct(TokenConfig)29346_storage)"
          },
          {
            "astId": 29383,
            "contract": "contracts/core/connext/facets/BridgeFacet.sol:BridgeFacet",
            "label": "transferStatus",
            "offset": 0,
            "slot": "8",
            "type": "t_mapping(t_bytes32,t_enum(DestinationTransferStatus)29275)"
          },
          {
            "astId": 29389,
            "contract": "contracts/core/connext/facets/BridgeFacet.sol:BridgeFacet",
            "label": "routedTransfers",
            "offset": 0,
            "slot": "9",
            "type": "t_mapping(t_bytes32,t_array(t_address)dyn_storage)"
          },
          {
            "astId": 29396,
            "contract": "contracts/core/connext/facets/BridgeFacet.sol:BridgeFacet",
            "label": "routerBalances",
            "offset": 0,
            "slot": "10",
            "type": "t_mapping(t_address,t_mapping(t_address,t_uint256))"
          },
          {
            "astId": 29401,
            "contract": "contracts/core/connext/facets/BridgeFacet.sol:BridgeFacet",
            "label": "approvedRelayers",
            "offset": 0,
            "slot": "11",
            "type": "t_mapping(t_address,t_bool)"
          },
          {
            "astId": 29404,
            "contract": "contracts/core/connext/facets/BridgeFacet.sol:BridgeFacet",
            "label": "maxRoutersPerTransfer",
            "offset": 0,
            "slot": "12",
            "type": "t_uint256"
          },
          {
            "astId": 29409,
            "contract": "contracts/core/connext/facets/BridgeFacet.sol:BridgeFacet",
            "label": "slippage",
            "offset": 0,
            "slot": "13",
            "type": "t_mapping(t_bytes32,t_uint256)"
          },
          {
            "astId": 29414,
            "contract": "contracts/core/connext/facets/BridgeFacet.sol:BridgeFacet",
            "label": "receiveLocalOverride",
            "offset": 0,
            "slot": "14",
            "type": "t_mapping(t_bytes32,t_bool)"
          },
          {
            "astId": 29419,
            "contract": "contracts/core/connext/facets/BridgeFacet.sol:BridgeFacet",
            "label": "remotes",
            "offset": 0,
            "slot": "15",
            "type": "t_mapping(t_uint32,t_bytes32)"
          },
          {
            "astId": 29421,
            "contract": "contracts/core/connext/facets/BridgeFacet.sol:BridgeFacet",
            "label": "_proposed",
            "offset": 0,
            "slot": "16",
            "type": "t_address"
          },
          {
            "astId": 29423,
            "contract": "contracts/core/connext/facets/BridgeFacet.sol:BridgeFacet",
            "label": "_proposedOwnershipTimestamp",
            "offset": 0,
            "slot": "17",
            "type": "t_uint256"
          },
          {
            "astId": 29425,
            "contract": "contracts/core/connext/facets/BridgeFacet.sol:BridgeFacet",
            "label": "_routerAllowlistRemoved",
            "offset": 0,
            "slot": "18",
            "type": "t_bool"
          },
          {
            "astId": 29427,
            "contract": "contracts/core/connext/facets/BridgeFacet.sol:BridgeFacet",
            "label": "_routerAllowlistTimestamp",
            "offset": 0,
            "slot": "19",
            "type": "t_uint256"
          },
          {
            "astId": 29433,
            "contract": "contracts/core/connext/facets/BridgeFacet.sol:BridgeFacet",
            "label": "roles",
            "offset": 0,
            "slot": "20",
            "type": "t_mapping(t_address,t_enum(Role)29270)"
          },
          {
            "astId": 29438,
            "contract": "contracts/core/connext/facets/BridgeFacet.sol:BridgeFacet",
            "label": "routerConfigs",
            "offset": 0,
            "slot": "21",
            "type": "t_mapping(t_address,t_struct(RouterConfig)29329_storage)"
          },
          {
            "astId": 29440,
            "contract": "contracts/core/connext/facets/BridgeFacet.sol:BridgeFacet",
            "label": "_status",
            "offset": 0,
            "slot": "22",
            "type": "t_uint256"
          },
          {
            "astId": 29442,
            "contract": "contracts/core/connext/facets/BridgeFacet.sol:BridgeFacet",
            "label": "_xcallStatus",
            "offset": 0,
            "slot": "23",
            "type": "t_uint256"
          },
          {
            "astId": 29448,
            "contract": "contracts/core/connext/facets/BridgeFacet.sol:BridgeFacet",
            "label": "swapStorages",
            "offset": 0,
            "slot": "24",
            "type": "t_mapping(t_bytes32,t_struct(Swap)30745_storage)"
          },
          {
            "astId": 29455,
            "contract": "contracts/core/connext/facets/BridgeFacet.sol:BridgeFacet",
            "label": "tokenIndexes",
            "offset": 0,
            "slot": "25",
            "type": "t_mapping(t_bytes32,t_mapping(t_address,t_uint8))"
          },
          {
            "astId": 29458,
            "contract": "contracts/core/connext/facets/BridgeFacet.sol:BridgeFacet",
            "label": "lpTokenTargetAddress",
            "offset": 0,
            "slot": "26",
            "type": "t_address"
          },
          {
            "astId": 29461,
            "contract": "contracts/core/connext/facets/BridgeFacet.sol:BridgeFacet",
            "label": "_paused",
            "offset": 20,
            "slot": "26",
            "type": "t_bool"
          },
          {
            "astId": 29464,
            "contract": "contracts/core/connext/facets/BridgeFacet.sol:BridgeFacet",
            "label": "aavePool",
            "offset": 0,
            "slot": "27",
            "type": "t_address"
          },
          {
            "astId": 29467,
            "contract": "contracts/core/connext/facets/BridgeFacet.sol:BridgeFacet",
            "label": "aavePortalFeeNumerator",
            "offset": 0,
            "slot": "28",
            "type": "t_uint256"
          },
          {
            "astId": 29472,
            "contract": "contracts/core/connext/facets/BridgeFacet.sol:BridgeFacet",
            "label": "portalDebt",
            "offset": 0,
            "slot": "29",
            "type": "t_mapping(t_bytes32,t_uint256)"
          },
          {
            "astId": 29477,
            "contract": "contracts/core/connext/facets/BridgeFacet.sol:BridgeFacet",
            "label": "portalFeeDebt",
            "offset": 0,
            "slot": "30",
            "type": "t_mapping(t_bytes32,t_uint256)"
          },
          {
            "astId": 29482,
            "contract": "contracts/core/connext/facets/BridgeFacet.sol:BridgeFacet",
            "label": "approvedSequencers",
            "offset": 0,
            "slot": "31",
            "type": "t_mapping(t_address,t_bool)"
          },
          {
            "astId": 29486,
            "contract": "contracts/core/connext/facets/BridgeFacet.sol:BridgeFacet",
            "label": "xAppConnectionManager",
            "offset": 0,
            "slot": "32",
            "type": "t_contract(IConnectorManager)47349"
          }
        ],
        "numberOfBytes": "1056"
      },
      "t_struct(RouterConfig)29329_storage": {
        "encoding": "inplace",
        "label": "struct RouterConfig",
        "members": [
          {
            "astId": 29318,
            "contract": "contracts/core/connext/facets/BridgeFacet.sol:BridgeFacet",
            "label": "approved",
            "offset": 0,
            "slot": "0",
            "type": "t_bool"
          },
          {
            "astId": 29320,
            "contract": "contracts/core/connext/facets/BridgeFacet.sol:BridgeFacet",
            "label": "portalApproved",
            "offset": 1,
            "slot": "0",
            "type": "t_bool"
          },
          {
            "astId": 29322,
            "contract": "contracts/core/connext/facets/BridgeFacet.sol:BridgeFacet",
            "label": "owner",
            "offset": 2,
            "slot": "0",
            "type": "t_address"
          },
          {
            "astId": 29324,
            "contract": "contracts/core/connext/facets/BridgeFacet.sol:BridgeFacet",
            "label": "recipient",
            "offset": 0,
            "slot": "1",
            "type": "t_address"
          },
          {
            "astId": 29326,
            "contract": "contracts/core/connext/facets/BridgeFacet.sol:BridgeFacet",
            "label": "proposed",
            "offset": 0,
            "slot": "2",
            "type": "t_address"
          },
          {
            "astId": 29328,
            "contract": "contracts/core/connext/facets/BridgeFacet.sol:BridgeFacet",
            "label": "proposedTimestamp",
            "offset": 0,
            "slot": "3",
            "type": "t_uint256"
          }
        ],
        "numberOfBytes": "128"
      },
      "t_struct(Swap)30745_storage": {
        "encoding": "inplace",
        "label": "struct SwapUtils.Swap",
        "members": [
          {
            "astId": 30712,
            "contract": "contracts/core/connext/facets/BridgeFacet.sol:BridgeFacet",
            "label": "key",
            "offset": 0,
            "slot": "0",
            "type": "t_bytes32"
          },
          {
            "astId": 30714,
            "contract": "contracts/core/connext/facets/BridgeFacet.sol:BridgeFacet",
            "label": "initialA",
            "offset": 0,
            "slot": "1",
            "type": "t_uint256"
          },
          {
            "astId": 30716,
            "contract": "contracts/core/connext/facets/BridgeFacet.sol:BridgeFacet",
            "label": "futureA",
            "offset": 0,
            "slot": "2",
            "type": "t_uint256"
          },
          {
            "astId": 30718,
            "contract": "contracts/core/connext/facets/BridgeFacet.sol:BridgeFacet",
            "label": "initialATime",
            "offset": 0,
            "slot": "3",
            "type": "t_uint256"
          },
          {
            "astId": 30720,
            "contract": "contracts/core/connext/facets/BridgeFacet.sol:BridgeFacet",
            "label": "futureATime",
            "offset": 0,
            "slot": "4",
            "type": "t_uint256"
          },
          {
            "astId": 30722,
            "contract": "contracts/core/connext/facets/BridgeFacet.sol:BridgeFacet",
            "label": "swapFee",
            "offset": 0,
            "slot": "5",
            "type": "t_uint256"
          },
          {
            "astId": 30724,
            "contract": "contracts/core/connext/facets/BridgeFacet.sol:BridgeFacet",
            "label": "adminFee",
            "offset": 0,
            "slot": "6",
            "type": "t_uint256"
          },
          {
            "astId": 30727,
            "contract": "contracts/core/connext/facets/BridgeFacet.sol:BridgeFacet",
            "label": "lpToken",
            "offset": 0,
            "slot": "7",
            "type": "t_contract(LPToken)23142"
          },
          {
            "astId": 30731,
            "contract": "contracts/core/connext/facets/BridgeFacet.sol:BridgeFacet",
            "label": "pooledTokens",
            "offset": 0,
            "slot": "8",
            "type": "t_array(t_contract(IERC20)10806)dyn_storage"
          },
          {
            "astId": 30734,
            "contract": "contracts/core/connext/facets/BridgeFacet.sol:BridgeFacet",
            "label": "tokenPrecisionMultipliers",
            "offset": 0,
            "slot": "9",
            "type": "t_array(t_uint256)dyn_storage"
          },
          {
            "astId": 30737,
            "contract": "contracts/core/connext/facets/BridgeFacet.sol:BridgeFacet",
            "label": "balances",
            "offset": 0,
            "slot": "10",
            "type": "t_array(t_uint256)dyn_storage"
          },
          {
            "astId": 30740,
            "contract": "contracts/core/connext/facets/BridgeFacet.sol:BridgeFacet",
            "label": "adminFees",
            "offset": 0,
            "slot": "11",
            "type": "t_array(t_uint256)dyn_storage"
          },
          {
            "astId": 30742,
            "contract": "contracts/core/connext/facets/BridgeFacet.sol:BridgeFacet",
            "label": "disabled",
            "offset": 0,
            "slot": "12",
            "type": "t_bool"
          },
          {
            "astId": 30744,
            "contract": "contracts/core/connext/facets/BridgeFacet.sol:BridgeFacet",
            "label": "removeTime",
            "offset": 0,
            "slot": "13",
            "type": "t_uint256"
          }
        ],
        "numberOfBytes": "448"
      },
      "t_struct(TokenConfig)29346_storage": {
        "encoding": "inplace",
        "label": "struct TokenConfig",
        "members": [
          {
            "astId": 29331,
            "contract": "contracts/core/connext/facets/BridgeFacet.sol:BridgeFacet",
            "label": "representation",
            "offset": 0,
            "slot": "0",
            "type": "t_address"
          },
          {
            "astId": 29333,
            "contract": "contracts/core/connext/facets/BridgeFacet.sol:BridgeFacet",
            "label": "representationDecimals",
            "offset": 20,
            "slot": "0",
            "type": "t_uint8"
          },
          {
            "astId": 29335,
            "contract": "contracts/core/connext/facets/BridgeFacet.sol:BridgeFacet",
            "label": "adopted",
            "offset": 0,
            "slot": "1",
            "type": "t_address"
          },
          {
            "astId": 29337,
            "contract": "contracts/core/connext/facets/BridgeFacet.sol:BridgeFacet",
            "label": "adoptedDecimals",
            "offset": 20,
            "slot": "1",
            "type": "t_uint8"
          },
          {
            "astId": 29339,
            "contract": "contracts/core/connext/facets/BridgeFacet.sol:BridgeFacet",
            "label": "adoptedToLocalExternalPools",
            "offset": 0,
            "slot": "2",
            "type": "t_address"
          },
          {
            "astId": 29341,
            "contract": "contracts/core/connext/facets/BridgeFacet.sol:BridgeFacet",
            "label": "approval",
            "offset": 20,
            "slot": "2",
            "type": "t_bool"
          },
          {
            "astId": 29343,
            "contract": "contracts/core/connext/facets/BridgeFacet.sol:BridgeFacet",
            "label": "cap",
            "offset": 0,
            "slot": "3",
            "type": "t_uint256"
          },
          {
            "astId": 29345,
            "contract": "contracts/core/connext/facets/BridgeFacet.sol:BridgeFacet",
            "label": "custodied",
            "offset": 0,
            "slot": "4",
            "type": "t_uint256"
          }
        ],
        "numberOfBytes": "160"
      },
      "t_struct(TokenId)37687_storage": {
        "encoding": "inplace",
        "label": "struct TokenId",
        "members": [
          {
            "astId": 37684,
            "contract": "contracts/core/connext/facets/BridgeFacet.sol:BridgeFacet",
            "label": "domain",
            "offset": 0,
            "slot": "0",
            "type": "t_uint32"
          },
          {
            "astId": 37686,
            "contract": "contracts/core/connext/facets/BridgeFacet.sol:BridgeFacet",
            "label": "id",
            "offset": 0,
            "slot": "1",
            "type": "t_bytes32"
          }
        ],
        "numberOfBytes": "64"
      },
      "t_uint256": {
        "encoding": "inplace",
        "label": "uint256",
        "numberOfBytes": "32"
      },
      "t_uint32": {
        "encoding": "inplace",
        "label": "uint32",
        "numberOfBytes": "4"
      },
      "t_uint8": {
        "encoding": "inplace",
        "label": "uint8",
        "numberOfBytes": "1"
      }
    }
  }
}