{
  "address": "0x9FBDa871d559710256a2502A2517b794B482Db40",
  "abi": [
    {
      "inputs": [
        {
          "internalType": "uint32",
          "name": "_domain",
          "type": "uint32"
        },
        {
          "internalType": "uint32",
          "name": "_mirrorDomain",
          "type": "uint32"
        },
        {
          "internalType": "address",
          "name": "_amb",
          "type": "address"
        },
        {
          "internalType": "address",
          "name": "_rootManager",
          "type": "address"
        },
        {
          "internalType": "address",
          "name": "_mirrorConnector",
          "type": "address"
        },
        {
          "internalType": "uint256",
          "name": "_processGas",
          "type": "uint256"
        },
        {
          "internalType": "uint256",
          "name": "_reserveGas",
          "type": "uint256"
        },
        {
          "internalType": "uint256",
          "name": "_delayBlocks",
          "type": "uint256"
        },
        {
          "internalType": "address",
          "name": "_merkle",
          "type": "address"
        },
        {
          "internalType": "address",
          "name": "_watcherManager",
          "type": "address"
        },
        {
          "internalType": "uint256",
          "name": "_gasCap",
          "type": "uint256"
        }
      ],
      "stateMutability": "nonpayable",
      "type": "constructor"
    },
    {
      "inputs": [],
      "name": "Connector__processMessage_notUsed",
      "type": "error"
    },
    {
      "inputs": [],
      "name": "ProposedOwnable__onlyOwner_notOwner",
      "type": "error"
    },
    {
      "inputs": [],
      "name": "ProposedOwnable__onlyProposed_notProposedOwner",
      "type": "error"
    },
    {
      "inputs": [],
      "name": "ProposedOwnable__ownershipDelayElapsed_delayNotElapsed",
      "type": "error"
    },
    {
      "inputs": [],
      "name": "ProposedOwnable__proposeNewOwner_invalidProposal",
      "type": "error"
    },
    {
      "inputs": [],
      "name": "ProposedOwnable__proposeNewOwner_noOwnershipChange",
      "type": "error"
    },
    {
      "inputs": [],
      "name": "ProposedOwnable__renounceOwnership_invalidProposal",
      "type": "error"
    },
    {
      "inputs": [],
      "name": "ProposedOwnable__renounceOwnership_noProposal",
      "type": "error"
    },
    {
      "inputs": [],
      "name": "RateLimited__rateLimited_messageSendRateExceeded",
      "type": "error"
    },
    {
      "inputs": [],
      "name": "TypedMemView__index_indexMoreThan32Bytes",
      "type": "error"
    },
    {
      "inputs": [
        {
          "internalType": "uint256",
          "name": "loc",
          "type": "uint256"
        },
        {
          "internalType": "uint256",
          "name": "len",
          "type": "uint256"
        },
        {
          "internalType": "uint256",
          "name": "index",
          "type": "uint256"
        },
        {
          "internalType": "uint256",
          "name": "slice",
          "type": "uint256"
        }
      ],
      "name": "TypedMemView__index_overrun",
      "type": "error"
    },
    {
      "inputs": [],
      "name": "TypedMemView__unsafeCopyTo_identityOOG",
      "type": "error"
    },
    {
      "inputs": [],
      "name": "TypedMemView__unsafeCopyTo_invalidPointer",
      "type": "error"
    },
    {
      "inputs": [],
      "name": "TypedMemView__unsafeCopyTo_nullPointer",
      "type": "error"
    },
    {
      "anonymous": false,
      "inputs": [
        {
          "indexed": false,
          "internalType": "bytes32",
          "name": "root",
          "type": "bytes32"
        }
      ],
      "name": "AggregateRootReceived",
      "type": "event"
    },
    {
      "anonymous": false,
      "inputs": [
        {
          "indexed": false,
          "internalType": "bytes32",
          "name": "root",
          "type": "bytes32"
        }
      ],
      "name": "AggregateRootRemoved",
      "type": "event"
    },
    {
      "anonymous": false,
      "inputs": [
        {
          "indexed": true,
          "internalType": "bytes32",
          "name": "root",
          "type": "bytes32"
        }
      ],
      "name": "AggregateRootVerified",
      "type": "event"
    },
    {
      "anonymous": false,
      "inputs": [
        {
          "indexed": true,
          "internalType": "uint256",
          "name": "updated",
          "type": "uint256"
        },
        {
          "indexed": false,
          "internalType": "address",
          "name": "caller",
          "type": "address"
        }
      ],
      "name": "DelayBlocksUpdated",
      "type": "event"
    },
    {
      "anonymous": false,
      "inputs": [
        {
          "indexed": false,
          "internalType": "bytes32",
          "name": "leaf",
          "type": "bytes32"
        },
        {
          "indexed": false,
          "internalType": "uint256",
          "name": "index",
          "type": "uint256"
        },
        {
          "indexed": false,
          "internalType": "bytes32",
          "name": "root",
          "type": "bytes32"
        },
        {
          "indexed": false,
          "internalType": "bytes",
          "name": "message",
          "type": "bytes"
        }
      ],
      "name": "Dispatch",
      "type": "event"
    },
    {
      "anonymous": false,
      "inputs": [
        {
          "indexed": true,
          "internalType": "address",
          "name": "to",
          "type": "address"
        },
        {
          "indexed": false,
          "internalType": "uint256",
          "name": "amount",
          "type": "uint256"
        }
      ],
      "name": "FundsWithdrawn",
      "type": "event"
    },
    {
      "anonymous": false,
      "inputs": [
        {
          "indexed": false,
          "internalType": "uint256",
          "name": "_previous",
          "type": "uint256"
        },
        {
          "indexed": false,
          "internalType": "uint256",
          "name": "_updated",
          "type": "uint256"
        }
      ],
      "name": "GasCapUpdated",
      "type": "event"
    },
    {
      "anonymous": false,
      "inputs": [
        {
          "indexed": false,
          "internalType": "bytes",
          "name": "data",
          "type": "bytes"
        },
        {
          "indexed": false,
          "internalType": "address",
          "name": "caller",
          "type": "address"
        }
      ],
      "name": "MessageProcessed",
      "type": "event"
    },
    {
      "anonymous": false,
      "inputs": [
        {
          "indexed": true,
          "internalType": "bytes32",
          "name": "leaf",
          "type": "bytes32"
        },
        {
          "indexed": true,
          "internalType": "bytes32",
          "name": "aggregateRoot",
          "type": "bytes32"
        },
        {
          "indexed": false,
          "internalType": "uint256",
          "name": "aggregateIndex",
          "type": "uint256"
        }
      ],
      "name": "MessageProven",
      "type": "event"
    },
    {
      "anonymous": false,
      "inputs": [
        {
          "indexed": false,
          "internalType": "bytes",
          "name": "data",
          "type": "bytes"
        },
        {
          "indexed": false,
          "internalType": "bytes",
          "name": "encodedData",
          "type": "bytes"
        },
        {
          "indexed": false,
          "internalType": "address",
          "name": "caller",
          "type": "address"
        }
      ],
      "name": "MessageSent",
      "type": "event"
    },
    {
      "anonymous": false,
      "inputs": [
        {
          "indexed": false,
          "internalType": "address",
          "name": "previous",
          "type": "address"
        },
        {
          "indexed": false,
          "internalType": "address",
          "name": "current",
          "type": "address"
        }
      ],
      "name": "MirrorConnectorUpdated",
      "type": "event"
    },
    {
      "anonymous": false,
      "inputs": [
        {
          "indexed": true,
          "internalType": "uint32",
          "name": "domain",
          "type": "uint32"
        },
        {
          "indexed": true,
          "internalType": "uint32",
          "name": "mirrorDomain",
          "type": "uint32"
        },
        {
          "indexed": false,
          "internalType": "address",
          "name": "amb",
          "type": "address"
        },
        {
          "indexed": false,
          "internalType": "address",
          "name": "rootManager",
          "type": "address"
        },
        {
          "indexed": false,
          "internalType": "address",
          "name": "mirrorConnector",
          "type": "address"
        }
      ],
      "name": "NewConnector",
      "type": "event"
    },
    {
      "anonymous": false,
      "inputs": [
        {
          "indexed": true,
          "internalType": "address",
          "name": "proposedOwner",
          "type": "address"
        }
      ],
      "name": "OwnershipProposed",
      "type": "event"
    },
    {
      "anonymous": false,
      "inputs": [
        {
          "indexed": true,
          "internalType": "address",
          "name": "previousOwner",
          "type": "address"
        },
        {
          "indexed": true,
          "internalType": "address",
          "name": "newOwner",
          "type": "address"
        }
      ],
      "name": "OwnershipTransferred",
      "type": "event"
    },
    {
      "anonymous": false,
      "inputs": [
        {
          "indexed": false,
          "internalType": "address",
          "name": "account",
          "type": "address"
        }
      ],
      "name": "Paused",
      "type": "event"
    },
    {
      "anonymous": false,
      "inputs": [
        {
          "indexed": false,
          "internalType": "bytes32",
          "name": "leaf",
          "type": "bytes32"
        },
        {
          "indexed": false,
          "internalType": "bool",
          "name": "success",
          "type": "bool"
        },
        {
          "indexed": false,
          "internalType": "bytes",
          "name": "returnData",
          "type": "bytes"
        }
      ],
      "name": "Process",
      "type": "event"
    },
    {
      "anonymous": false,
      "inputs": [
        {
          "indexed": false,
          "internalType": "address",
          "name": "updater",
          "type": "address"
        },
        {
          "indexed": false,
          "internalType": "uint256",
          "name": "newRateLimit",
          "type": "uint256"
        }
      ],
      "name": "SendRateLimitUpdated",
      "type": "event"
    },
    {
      "anonymous": false,
      "inputs": [
        {
          "indexed": false,
          "internalType": "address",
          "name": "sender",
          "type": "address"
        }
      ],
      "name": "SenderAdded",
      "type": "event"
    },
    {
      "anonymous": false,
      "inputs": [
        {
          "indexed": false,
          "internalType": "address",
          "name": "sender",
          "type": "address"
        }
      ],
      "name": "SenderRemoved",
      "type": "event"
    },
    {
      "anonymous": false,
      "inputs": [
        {
          "indexed": false,
          "internalType": "address",
          "name": "account",
          "type": "address"
        }
      ],
      "name": "Unpaused",
      "type": "event"
    },
    {
      "anonymous": false,
      "inputs": [
        {
          "indexed": false,
          "internalType": "address",
          "name": "watcherManager",
          "type": "address"
        }
      ],
      "name": "WatcherManagerChanged",
      "type": "event"
    },
    {
      "inputs": [],
      "name": "AMB",
      "outputs": [
        {
          "internalType": "address",
          "name": "",
          "type": "address"
        }
      ],
      "stateMutability": "view",
      "type": "function"
    },
    {
      "inputs": [],
      "name": "DOMAIN",
      "outputs": [
        {
          "internalType": "uint32",
          "name": "",
          "type": "uint32"
        }
      ],
      "stateMutability": "view",
      "type": "function"
    },
    {
      "inputs": [],
      "name": "MERKLE",
      "outputs": [
        {
          "internalType": "contract MerkleTreeManager",
          "name": "",
          "type": "address"
        }
      ],
      "stateMutability": "view",
      "type": "function"
    },
    {
      "inputs": [],
      "name": "MIRROR_DOMAIN",
      "outputs": [
        {
          "internalType": "uint32",
          "name": "",
          "type": "uint32"
        }
      ],
      "stateMutability": "view",
      "type": "function"
    },
    {
      "inputs": [],
      "name": "PROCESS_GAS",
      "outputs": [
        {
          "internalType": "uint256",
          "name": "",
          "type": "uint256"
        }
      ],
      "stateMutability": "view",
      "type": "function"
    },
    {
      "inputs": [],
      "name": "RESERVE_GAS",
      "outputs": [
        {
          "internalType": "uint256",
          "name": "",
          "type": "uint256"
        }
      ],
      "stateMutability": "view",
      "type": "function"
    },
    {
      "inputs": [],
      "name": "ROOT_MANAGER",
      "outputs": [
        {
          "internalType": "address",
          "name": "",
          "type": "address"
        }
      ],
      "stateMutability": "view",
      "type": "function"
    },
    {
      "inputs": [],
      "name": "acceptProposedOwner",
      "outputs": [],
      "stateMutability": "nonpayable",
      "type": "function"
    },
    {
      "inputs": [
        {
          "internalType": "address",
          "name": "_sender",
          "type": "address"
        }
      ],
      "name": "addSender",
      "outputs": [],
      "stateMutability": "nonpayable",
      "type": "function"
    },
    {
      "inputs": [
        {
          "internalType": "address",
          "name": "",
          "type": "address"
        }
      ],
      "name": "allowlistedSenders",
      "outputs": [
        {
          "internalType": "bool",
          "name": "",
          "type": "bool"
        }
      ],
      "stateMutability": "view",
      "type": "function"
    },
    {
      "inputs": [],
      "name": "delay",
      "outputs": [
        {
          "internalType": "uint256",
          "name": "",
          "type": "uint256"
        }
      ],
      "stateMutability": "view",
      "type": "function"
    },
    {
      "inputs": [],
      "name": "delayBlocks",
      "outputs": [
        {
          "internalType": "uint256",
          "name": "",
          "type": "uint256"
        }
      ],
      "stateMutability": "view",
      "type": "function"
    },
    {
      "inputs": [
        {
          "internalType": "uint32",
          "name": "_destinationDomain",
          "type": "uint32"
        },
        {
          "internalType": "bytes32",
          "name": "_recipientAddress",
          "type": "bytes32"
        },
        {
          "internalType": "bytes",
          "name": "_messageBody",
          "type": "bytes"
        }
      ],
      "name": "dispatch",
      "outputs": [
        {
          "internalType": "bytes32",
          "name": "",
          "type": "bytes32"
        }
      ],
      "stateMutability": "nonpayable",
      "type": "function"
    },
    {
      "inputs": [],
      "name": "home",
      "outputs": [
        {
          "internalType": "contract IOutbox",
          "name": "",
          "type": "address"
        }
      ],
      "stateMutability": "view",
      "type": "function"
    },
    {
      "inputs": [
        {
          "internalType": "address",
          "name": "_potentialReplica",
          "type": "address"
        }
      ],
      "name": "isReplica",
      "outputs": [
        {
          "internalType": "bool",
          "name": "",
          "type": "bool"
        }
      ],
      "stateMutability": "view",
      "type": "function"
    },
    {
      "inputs": [],
      "name": "lastSentBlock",
      "outputs": [
        {
          "internalType": "uint256",
          "name": "",
          "type": "uint256"
        }
      ],
      "stateMutability": "view",
      "type": "function"
    },
    {
      "inputs": [],
      "name": "localDomain",
      "outputs": [
        {
          "internalType": "uint32",
          "name": "",
          "type": "uint32"
        }
      ],
      "stateMutability": "view",
      "type": "function"
    },
    {
      "inputs": [
        {
          "internalType": "bytes32",
          "name": "",
          "type": "bytes32"
        }
      ],
      "name": "messages",
      "outputs": [
        {
          "internalType": "enum SpokeConnector.MessageStatus",
          "name": "",
          "type": "uint8"
        }
      ],
      "stateMutability": "view",
      "type": "function"
    },
    {
      "inputs": [],
      "name": "mirrorConnector",
      "outputs": [
        {
          "internalType": "address",
          "name": "",
          "type": "address"
        }
      ],
      "stateMutability": "view",
      "type": "function"
    },
    {
      "inputs": [
        {
          "internalType": "uint32",
          "name": "",
          "type": "uint32"
        }
      ],
      "name": "nonces",
      "outputs": [
        {
          "internalType": "uint32",
          "name": "",
          "type": "uint32"
        }
      ],
      "stateMutability": "view",
      "type": "function"
    },
    {
      "inputs": [],
      "name": "outboundRoot",
      "outputs": [
        {
          "internalType": "bytes32",
          "name": "",
          "type": "bytes32"
        }
      ],
      "stateMutability": "view",
      "type": "function"
    },
    {
      "inputs": [],
      "name": "owner",
      "outputs": [
        {
          "internalType": "address",
          "name": "",
          "type": "address"
        }
      ],
      "stateMutability": "view",
      "type": "function"
    },
    {
      "inputs": [],
      "name": "pause",
      "outputs": [],
      "stateMutability": "nonpayable",
      "type": "function"
    },
    {
      "inputs": [],
      "name": "paused",
      "outputs": [
        {
          "internalType": "bool",
          "name": "",
          "type": "bool"
        }
      ],
      "stateMutability": "view",
      "type": "function"
    },
    {
      "inputs": [
        {
          "internalType": "bytes32",
          "name": "",
          "type": "bytes32"
        }
      ],
      "name": "pendingAggregateRoots",
      "outputs": [
        {
          "internalType": "uint256",
          "name": "",
          "type": "uint256"
        }
      ],
      "stateMutability": "view",
      "type": "function"
    },
    {
      "inputs": [
        {
          "internalType": "bytes",
          "name": "_data",
          "type": "bytes"
        }
      ],
      "name": "processMessage",
      "outputs": [],
      "stateMutability": "nonpayable",
      "type": "function"
    },
    {
      "inputs": [
        {
          "internalType": "address",
          "name": "newlyProposed",
          "type": "address"
        }
      ],
      "name": "proposeNewOwner",
      "outputs": [],
      "stateMutability": "nonpayable",
      "type": "function"
    },
    {
      "inputs": [],
      "name": "proposed",
      "outputs": [
        {
          "internalType": "address",
          "name": "",
          "type": "address"
        }
      ],
      "stateMutability": "view",
      "type": "function"
    },
    {
      "inputs": [],
      "name": "proposedTimestamp",
      "outputs": [
        {
          "internalType": "uint256",
          "name": "",
          "type": "uint256"
        }
      ],
      "stateMutability": "view",
      "type": "function"
    },
    {
      "inputs": [
        {
          "components": [
            {
              "internalType": "bytes",
              "name": "message",
              "type": "bytes"
            },
            {
              "internalType": "bytes32[32]",
              "name": "path",
              "type": "bytes32[32]"
            },
            {
              "internalType": "uint256",
              "name": "index",
              "type": "uint256"
            }
          ],
          "internalType": "struct SpokeConnector.Proof[]",
          "name": "_proofs",
          "type": "tuple[]"
        },
        {
          "internalType": "bytes32",
          "name": "_aggregateRoot",
          "type": "bytes32"
        },
        {
          "internalType": "bytes32[32]",
          "name": "_aggregatePath",
          "type": "bytes32[32]"
        },
        {
          "internalType": "uint256",
          "name": "_aggregateIndex",
          "type": "uint256"
        }
      ],
      "name": "proveAndProcess",
      "outputs": [],
      "stateMutability": "nonpayable",
      "type": "function"
    },
    {
      "inputs": [
        {
          "internalType": "bytes32",
          "name": "",
          "type": "bytes32"
        }
      ],
      "name": "provenAggregateRoots",
      "outputs": [
        {
          "internalType": "bool",
          "name": "",
          "type": "bool"
        }
      ],
      "stateMutability": "view",
      "type": "function"
    },
    {
      "inputs": [
        {
          "internalType": "bytes32",
          "name": "",
          "type": "bytes32"
        }
      ],
      "name": "provenMessageRoots",
      "outputs": [
        {
          "internalType": "bool",
          "name": "",
          "type": "bool"
        }
      ],
      "stateMutability": "view",
      "type": "function"
    },
    {
      "inputs": [],
      "name": "rateLimitBlocks",
      "outputs": [
        {
          "internalType": "uint256",
          "name": "",
          "type": "uint256"
        }
      ],
      "stateMutability": "view",
      "type": "function"
    },
    {
      "inputs": [
        {
          "internalType": "bytes32",
          "name": "_fraudulentRoot",
          "type": "bytes32"
        }
      ],
      "name": "removePendingAggregateRoot",
      "outputs": [],
      "stateMutability": "nonpayable",
      "type": "function"
    },
    {
      "inputs": [
        {
          "internalType": "address",
          "name": "_sender",
          "type": "address"
        }
      ],
      "name": "removeSender",
      "outputs": [],
      "stateMutability": "nonpayable",
      "type": "function"
    },
    {
      "inputs": [],
      "name": "renounceOwnership",
      "outputs": [],
      "stateMutability": "nonpayable",
      "type": "function"
    },
    {
      "inputs": [],
      "name": "renounced",
      "outputs": [
        {
          "internalType": "bool",
          "name": "",
          "type": "bool"
        }
      ],
      "stateMutability": "view",
      "type": "function"
    },
    {
      "inputs": [
        {
          "internalType": "bytes",
          "name": "_encodedData",
          "type": "bytes"
        }
      ],
      "name": "send",
      "outputs": [],
      "stateMutability": "payable",
      "type": "function"
    },
    {
      "inputs": [
        {
          "internalType": "bytes32",
          "name": "",
          "type": "bytes32"
        }
      ],
      "name": "sentMessageRoots",
      "outputs": [
        {
          "internalType": "bool",
          "name": "",
          "type": "bool"
        }
      ],
      "stateMutability": "view",
      "type": "function"
    },
    {
      "inputs": [
        {
          "internalType": "uint256",
          "name": "_delayBlocks",
          "type": "uint256"
        }
      ],
      "name": "setDelayBlocks",
      "outputs": [],
      "stateMutability": "nonpayable",
      "type": "function"
    },
    {
      "inputs": [
        {
          "internalType": "uint256",
          "name": "_gasCap",
          "type": "uint256"
        }
      ],
      "name": "setGasCap",
      "outputs": [],
      "stateMutability": "nonpayable",
      "type": "function"
    },
    {
      "inputs": [
        {
          "internalType": "address",
          "name": "_mirrorConnector",
          "type": "address"
        }
      ],
      "name": "setMirrorConnector",
      "outputs": [],
      "stateMutability": "nonpayable",
      "type": "function"
    },
    {
      "inputs": [
        {
          "internalType": "uint256",
          "name": "_rateLimit",
          "type": "uint256"
        }
      ],
      "name": "setRateLimitBlocks",
      "outputs": [],
      "stateMutability": "nonpayable",
      "type": "function"
    },
    {
      "inputs": [
        {
          "internalType": "address",
          "name": "_watcherManager",
          "type": "address"
        }
      ],
      "name": "setWatcherManager",
      "outputs": [],
      "stateMutability": "nonpayable",
      "type": "function"
    },
    {
      "inputs": [],
      "name": "unpause",
      "outputs": [],
      "stateMutability": "nonpayable",
      "type": "function"
    },
    {
      "inputs": [
        {
          "internalType": "address",
          "name": "_expected",
          "type": "address"
        }
      ],
      "name": "verifySender",
      "outputs": [
        {
          "internalType": "bool",
          "name": "",
          "type": "bool"
        }
      ],
      "stateMutability": "nonpayable",
      "type": "function"
    },
    {
      "inputs": [],
      "name": "watcherManager",
      "outputs": [
        {
          "internalType": "contract WatcherManager",
          "name": "",
          "type": "address"
        }
      ],
      "stateMutability": "view",
      "type": "function"
    },
    {
      "inputs": [
        {
          "internalType": "address",
          "name": "_to",
          "type": "address"
        }
      ],
      "name": "withdrawFunds",
      "outputs": [],
      "stateMutability": "nonpayable",
      "type": "function"
    },
    {
      "stateMutability": "payable",
      "type": "receive"
    }
  ],
  "transactionHash": "0xb2de61c5aa4180821d444707f999cebfa655dd236331d7c9a24bfb424e6f677f",
  "args": [
    "1338",
    "1337",
    "0x4200000000000000000000000000000000000007",
    "0x9FBDa871d559710256a2502A2517b794B482Db40",
    "0x0000000000000000000000000000000000000000",
    "850000",
    "15000",
    0,
    "0x8f0483125FCb9aaAEFA9209D8E9d7b9C8B9Fb90F",
    "0x8CdaF0CD259887258Bc13a92C0a6dA92698644C0",
    "850000"
  ],
  "numDeployments": 1,
  "solcInputHash": "08ca6ef6e120fb4cb0f5603df6e78508",
  "bytecode": "0x6101606040523480156200001257600080fd5b5060405162003b5138038062003b51833981016040819052620000359162000403565b80808c8c8c8c8c8c8c8c8c8c808a8a8a8a8a6200005233620002c2565b8463ffffffff166000036200009d5760405162461bcd60e51b815260206004820152600c60248201526b32b6b83a3c903237b6b0b4b760a11b60448201526064015b60405180910390fd5b6001600160a01b038216620000e95760405162461bcd60e51b815260206004820152601160248201527032b6b83a3c903937b7ba26b0b730b3b2b960791b604482015260640162000094565b63ffffffff8086166080526001600160a01b0380851660a05283811660c05290851660e0528116156200012157620001218162000327565b604080516001600160a01b0385811682528481166020830152831681830152905163ffffffff86811692908816917f4f9c27c2fe3f84576ea469d367d044da53c45e951617e8389f2b5ed8db9d25f09181900360600190a350506003805460ff60a01b191690555050600480546001600160a01b0319166001600160a01b039390931692909217909155506001600755620cf84f8511620001f45760405162461bcd60e51b815260206004820152600c60248201526b2170726f636573732067617360a01b604482015260640162000094565b613a978411620002365760405162461bcd60e51b815260206004820152600c60248201526b21726573657276652067617360a01b604482015260640162000094565b6101208590526101408490526001600160a01b038216620002895760405162461bcd60e51b815260206004820152600c60248201526b217a65726f206d65726b6c6560a01b604482015260640162000094565b506001600160a01b03166101005260085550620002af9550869450506200039092505050565b50505050505050505050505050620004c2565b600080546040516001600160a01b03808516939216917f8be0079c531659141344cd1fd0a4f28419497f9722a3daafe3b4186f6b6457e091a3600080546001600160a01b039092166001600160a01b0319928316178155600255600180549091169055565b600354604080516001600160a01b03928316815291831660208301527fc77bec288fc88f168427f2f7da682eadb26cac89d8d591af6e443da98dff2bbc910160405180910390a1600380546001600160a01b0319166001600160a01b0392909216919091179055565b60105460408051918252602082018390527f877a02cb809da0364d23adca3cd50c451b53f279d3df632e1fc11eb66335bce5910160405180910390a1601055565b805163ffffffff81168114620003e657600080fd5b919050565b80516001600160a01b0381168114620003e657600080fd5b60008060008060008060008060008060006101608c8e0312156200042657600080fd5b620004318c620003d1565b9a506200044160208d01620003d1565b99506200045160408d01620003eb565b98506200046160608d01620003eb565b97506200047160808d01620003eb565b965060a08c0151955060c08c0151945060e08c01519350620004976101008d01620003eb565b9250620004a86101208d01620003eb565b91506101408c015190509295989b509295989b9093969950565b60805160a05160c05160e0516101005161012051610140516135e062000571600039600081816103250152611d5301526000818161090e01528181611d740152611e0101526000818161073501528181610a7d01528181610fbd01526116be015260006102b5015260006105430152600081816108c401528181610c250152818161187701526121df01526000818161048a01528181610671015281816116600152611c5301526135e06000f3fe6080604052600436106102975760003560e01c80638456cb591161015a578063b95a2001116100c1578063d69f9d611161007a578063d69f9d61146108b2578063d7d317b3146108e6578063d88beda2146108fc578063db1b765914610930578063e0fed01014610950578063fa31de011461097057600080fd5b8063b95a2001146107ed578063c5b350df14610820578063cc39428314610835578063d1851c9214610855578063d232c22014610873578063d2a3cc711461089257600080fd5b8063a01892a511610113578063a01892a514610723578063a792c29b14610757578063ad9c0c2e14610777578063b1f8100d1461078d578063b2f87643146107ad578063b697f531146107cd57600080fd5b80638456cb591461064d5780638d3638f4146106625780638da5cb5b1461069557806398c9f2b9146106b35780639d3117c7146106e35780639fa92f9d1461071057600080fd5b8063572386ca116101fe57806365eaf11b116101b757806365eaf11b146105ad57806368742da6146105c25780636a42b8f8146105e25780636b04a933146105f8578063715018a6146106185780637850b0201461062d57600080fd5b8063572386ca146104ac578063579c1618146104dc5780635bd11efc146104f25780635c975abb146105125780635f61e3ec146105315780636159ada11461057d57600080fd5b80633cf52ffb116102505780633cf52ffb146103e55780633f4ba83a146103fa5780634ff746f61461040f578063508a109b1461042f5780635190bc531461044f57806352a9674b1461047857600080fd5b806314168416146102a35780631eeaabea146102f157806325e3beda146103135780632bb1ae7c146103555780632bbd59ca14610368578063301f07c3146103a557600080fd5b3661029e57005b600080fd5b3480156102af57600080fd5b506102d77f000000000000000000000000000000000000000000000000000000000000000081565b60405163ffffffff90911681526020015b60405180910390f35b3480156102fd57600080fd5b5061031161030c366004612f7b565b610990565b005b34801561031f57600080fd5b506103477f000000000000000000000000000000000000000000000000000000000000000081565b6040519081526020016102e8565b610311610363366004613037565b610a3a565b34801561037457600080fd5b50610398610383366004612f7b565b600f6020526000908152604090205460ff1681565b6040516102e89190613082565b3480156103b157600080fd5b506103d56103c0366004612f7b565b600a6020526000908152604090205460ff1681565b60405190151581526020016102e8565b3480156103f157600080fd5b50600254610347565b34801561040657600080fd5b50610311610bdd565b34801561041b57600080fd5b5061031161042a366004613037565b610c1a565b34801561043b57600080fd5b5061031161044a3660046130aa565b610cc0565b34801561045b57600080fd5b506103d561046a36600461315b565b6001600160a01b0316301490565b34801561048457600080fd5b506102d77f000000000000000000000000000000000000000000000000000000000000000081565b3480156104b857600080fd5b506103d56104c7366004612f7b565b600c6020526000908152604090205460ff1681565b3480156104e857600080fd5b5061034760055481565b3480156104fe57600080fd5b5061031161050d36600461315b565b610f82565b34801561051e57600080fd5b50600354600160a01b900460ff166103d5565b34801561053d57600080fd5b506105657f000000000000000000000000000000000000000000000000000000000000000081565b6040516001600160a01b0390911681526020016102e8565b34801561058957600080fd5b506103d561059836600461315b565b600d6020526000908152604090205460ff1681565b3480156105b957600080fd5b50610347610fb9565b3480156105ce57600080fd5b506103116105dd36600461315b565b611042565b3480156105ee57600080fd5b5062093a80610347565b34801561060457600080fd5b50610311610613366004612f7b565b6110bf565b34801561062457600080fd5b5061031161118a565b34801561063957600080fd5b50610311610648366004612f7b565b6111b5565b34801561065957600080fd5b506103116111e9565b34801561066e57600080fd5b507f00000000000000000000000000000000000000000000000000000000000000006102d7565b3480156106a157600080fd5b506000546001600160a01b0316610565565b3480156106bf57600080fd5b506103d56106ce366004612f7b565b600b6020526000908152604090205460ff1681565b3480156106ef57600080fd5b506103476106fe366004612f7b565b60096020526000908152604090205481565b34801561071c57600080fd5b5030610565565b34801561072f57600080fd5b506105657f000000000000000000000000000000000000000000000000000000000000000081565b34801561076357600080fd5b50600454610565906001600160a01b031681565b34801561078357600080fd5b5061034760085481565b34801561079957600080fd5b506103116107a836600461315b565b61129d565b3480156107b957600080fd5b506103116107c836600461315b565b61133b565b3480156107d957600080fd5b506103116107e836600461315b565b6113b7565b3480156107f957600080fd5b506102d7610808366004613191565b600e6020526000908152604090205463ffffffff1681565b34801561082c57600080fd5b50610311611436565b34801561084157600080fd5b50600354610565906001600160a01b031681565b34801561086157600080fd5b506001546001600160a01b0316610565565b34801561087f57600080fd5b506000546001600160a01b0316156103d5565b34801561089e57600080fd5b506103116108ad36600461315b565b6114a6565b3480156108be57600080fd5b506105657f000000000000000000000000000000000000000000000000000000000000000081565b3480156108f257600080fd5b5061034760065481565b34801561090857600080fd5b506103477f000000000000000000000000000000000000000000000000000000000000000081565b34801561093c57600080fd5b506103d561094b36600461315b565b61157d565b34801561095c57600080fd5b5061031161096b366004612f7b565b61158e565b34801561097c57600080fd5b5061034761098b3660046131ac565b6115c2565b6000546001600160a01b031633146109bb576040516311a8a1bb60e31b815260040160405180910390fd5b6008548103610a005760405162461bcd60e51b815260206004820152600c60248201526b2164656c6179426c6f636b7360a01b60448201526064015b60405180910390fd5b60405133815281907f8bd16320f3b60336ed5fd2a770eb7453e7e71cfef4462addffd7ae9dfe201c8e9060200160405180910390a2600855565b610a4261178d565b43600554600654610a539190613219565b1115610a72576040516346cf2af160e11b815260040160405180910390fd5b4360068190555060007f00000000000000000000000000000000000000000000000000000000000000006001600160a01b031663ebf0c7176040518163ffffffff1660e01b8152600401602060405180830381865afa158015610ad9573d6000803e3d6000fd5b505050506040513d601f19601f82011682018060405250810190610afd919061322c565b6000818152600c602052604090205490915060ff1615610b535760405162461bcd60e51b81526020600482015260116024820152701c9bdbdd08185b1c9958591e481cd95b9d607a1b60448201526064016109f7565b600081604051602001610b6891815260200190565b6040516020818303038152906040529050610b8381846117da565b6000828152600c602052604090819020805460ff19166001179055517fdcaa37a042a0087de79018c629bbd29cee82ca80bd9be394e1696bf9e935507790610bd090839086903390613295565b60405180910390a1505050565b6000546001600160a01b03163314610c08576040516311a8a1bb60e31b815260040160405180910390fd5b610c106118ff565b610c1861194f565b565b336001600160a01b037f00000000000000000000000000000000000000000000000000000000000000001614610c7b5760405162461bcd60e51b81526004016109f79060208082526004908201526310a0a6a160e11b604082015260600190565b610c84816119a4565b7fb3abc57bfeebd2cac918901db582f71972a8e628bccf19f5ae3e3482b98a5ced8133604051610cb59291906132d3565b60405180910390a150565b610cc861178d565b610cd0611a44565b83610d075760405162461bcd60e51b81526020600482015260076024820152662170726f6f667360c81b60448201526064016109f7565b600085856000818110610d1c57610d1c6132fd565b9050602002810190610d2e9190613313565b610d389080613334565b604051610d46929190613382565b604051809103902090506000610dad8288886000818110610d6957610d696132fd565b9050602002810190610d7b9190613313565b60200189896000818110610d9157610d916132fd565b9050602002810190610da39190613313565b6104200135611a9d565b9050610dbb81868686611b42565b6000828152600f60205260409020805460ff1916600190811790915586905b818163ffffffff161015610ee15788888263ffffffff16818110610e0057610e006132fd565b9050602002810190610e129190613313565b610e1c9080613334565b604051610e2a929190613382565b604051809103902093506000610e7f858b8b8563ffffffff16818110610e5257610e526132fd565b9050602002810190610e649190613313565b6020018c8c8663ffffffff16818110610d9157610d916132fd565b9050838114610ebe5760405162461bcd60e51b815260206004820152600b60248201526a085cda185c9959149bdbdd60aa1b60448201526064016109f7565b506000848152600f60205260409020805460ff1916600190811790915501610dda565b5060005b818163ffffffff161015610f6d57610f6489898363ffffffff16818110610f0e57610f0e6132fd565b9050602002810190610f209190613313565b610f2a9080613334565b8080601f016020809104026020016040519081016040528093929190818152602001838380828437600092019190915250611c3d92505050565b50600101610ee5565b50505050610f7b6001600755565b5050505050565b6000546001600160a01b03163314610fad576040516311a8a1bb60e31b815260040160405180910390fd5b610fb681611f1a565b50565b60007f00000000000000000000000000000000000000000000000000000000000000006001600160a01b031663ebf0c7176040518163ffffffff1660e01b8152600401602060405180830381865afa158015611019573d6000803e3d6000fd5b505050506040513d601f19601f8201168201806040525081019061103d919061322c565b905090565b6000546001600160a01b0316331461106d576040516311a8a1bb60e31b815260040160405180910390fd5b476110788282611f83565b816001600160a01b03167feaff4b37086828766ad3268786972c0cd24259d4c87a80f9d3963a3c3d999b0d826040516110b391815260200190565b60405180910390a25050565b6000546001600160a01b031633146110ea576040516311a8a1bb60e31b815260040160405180910390fd5b6110f26118ff565b60008181526009602052604081205490036111475760405162461bcd60e51b8152602060048201526015602482015274616767726567617465526f6f74202165786973747360581b60448201526064016109f7565b60008181526009602052604080822091909155517ff51534ecf10a58db36ce4f5180f59deddf3b3eb7c5e7454e602c2f80a40cc73990610cb59083815260200190565b6000546001600160a01b03163314610c18576040516311a8a1bb60e31b815260040160405180910390fd5b6000546001600160a01b031633146111e0576040516311a8a1bb60e31b815260040160405180910390fd5b610fb6816120a1565b600480546040516384785ecd60e01b815233928101929092526001600160a01b0316906384785ecd90602401602060405180830381865afa158015611232573d6000803e3d6000fd5b505050506040513d601f19601f820116820180604052508101906112569190613392565b61128d5760405162461bcd60e51b815260206004820152600860248201526710bbb0ba31b432b960c11b60448201526064016109f7565b61129561178d565b610c186120e2565b6000546001600160a01b031633146112c8576040516311a8a1bb60e31b815260040160405180910390fd5b6001546001600160a01b0382811691161480156112e6575060025415155b15611304576040516311bc066560e11b815260040160405180910390fd5b6000546001600160a01b0380831691160361133257604051634a2fb73f60e11b815260040160405180910390fd5b610fb681612125565b6000546001600160a01b03163314611366576040516311a8a1bb60e31b815260040160405180910390fd5b6001600160a01b0381166000818152600d6020908152604091829020805460ff1916905590519182527f384859c5ef5fafac31e8bc92ce7fb48b1f2c74c4dd5e212eb84ec202fa5d9fad9101610cb5565b6000546001600160a01b031633146113e2576040516311a8a1bb60e31b815260040160405180910390fd5b6001600160a01b0381166000818152600d6020908152604091829020805460ff1916600117905590519182527fd65eca5d561d3a4568c87b9b13ced4ab52a69edadfdfdb22d76bc595f36d7d879101610cb5565b6001546001600160a01b03163314611461576040516311a7f27160e11b815260040160405180910390fd5b62093a806002544261147391906133b4565b11611491576040516324e0285f60e21b815260040160405180910390fd5b600154610c18906001600160a01b0316612173565b6000546001600160a01b031633146114d1576040516311a8a1bb60e31b815260040160405180910390fd5b6004546001600160a01b039081169082160361152f5760405162461bcd60e51b815260206004820152601760248201527f616c72656164792077617463686572206d616e6167657200000000000000000060448201526064016109f7565b600480546001600160a01b0319166001600160a01b0383169081179091556040519081527fc16d059e43d7f8e29ccb4e001a2f249d3c59e274925d6a6bc3912943441d9f6c90602001610cb5565b6000611588826121d8565b92915050565b6000546001600160a01b031633146115b9576040516311a8a1bb60e31b815260040160405180910390fd5b610fb681612204565b336000908152600d602052604081205460ff166116105760405162461bcd60e51b815260206004820152600c60248201526b08585b1b1bdddb1a5cdd195960a21b60448201526064016109f7565b63ffffffff8085166000908152600e6020526040812080549192919091169082611639836133c7565b91906101000a81548163ffffffff021916908363ffffffff160217905550905060006116987f000000000000000000000000000000000000000000000000000000000000000061168f336001600160a01b031690565b84898989612282565b80516020820120604051632d287e4360e01b8152600481018290529192509060009081907f00000000000000000000000000000000000000000000000000000000000000006001600160a01b031690632d287e439060240160408051808303816000875af115801561170e573d6000803e3d6000fd5b505050506040513d601f19601f8201168201806040525081019061173291906133ea565b90925090507f40f08ee347fc927ae45902edc87debb024aab1a311943731968607f603f2152f836117646001846133b4565b8487604051611776949392919061340e565b60405180910390a1509093505050505b9392505050565b600354600160a01b900460ff1615610c185760405162461bcd60e51b815260206004820152601060248201526f14185d5cd8589b194e881c185d5cd95960821b60448201526064016109f7565b815160201461181a5760405162461bcd60e51b815260206004820152600c60248201526b042c8c2e8c240d8cadccee8d60a31b60448201526064016109f7565b6000634ff746f660e01b836040516024016118359190613433565b60408051601f198184030181529190526020810180516001600160e01b03166001600160e01b0319909316929092179091526003549091506001600160a01b037f0000000000000000000000000000000000000000000000000000000000000000811691633dbb202b9116836118aa866122ba565b6040518463ffffffff1660e01b81526004016118c893929190613446565b600060405180830381600087803b1580156118e257600080fd5b505af11580156118f6573d6000803e3d6000fd5b50505050505050565b600354600160a01b900460ff16610c185760405162461bcd60e51b815260206004820152601460248201527314185d5cd8589b194e881b9bdd081c185d5cd95960621b60448201526064016109f7565b6119576118ff565b6003805460ff60a01b191690557f5db9ee0a495bf2e6ff9c91a7834c1ba4fdd244a5e8aa4e537bd38aeae4b073aa335b6040516001600160a01b03909116815260200160405180910390a1565b6003546119b9906001600160a01b03166121d8565b6119f85760405162461bcd60e51b815260206004820152601060248201526f10b6b4b93937b921b7b73732b1ba37b960811b60448201526064016109f7565b8051602014611a335760405162461bcd60e51b8152602060048201526007602482015266042d8cadccee8d60cb1b60448201526064016109f7565b610fb6611a3f82613480565b612318565b600260075403611a965760405162461bcd60e51b815260206004820152601f60248201527f5265656e7472616e637947756172643a207265656e7472616e742063616c6c0060448201526064016109f7565b6002600755565b6000806000858152600f602052604090205460ff166002811115611ac357611ac361306c565b14611b065760405162461bcd60e51b8152602060048201526013602482015272214d6573736167655374617475732e4e6f6e6560681b60448201526064016109f7565b611b3a8484602080602002604051908101604052809291908260208002808284376000920191909152508691506124419050565b949350505050565b6000848152600b602052604090205460ff16611c3757611b618361278f565b6000611b978584602080602002604051908101604052809291908260208002808284376000920191909152508691506124419050565b9050838114611bde5760405162461bcd60e51b81526020600482015260136024820152721a5b9d985b1a59081a5b989bdd5b99149bdbdd606a1b60448201526064016109f7565b6000858152600b602052604090819020805460ff1916600117905551849086907f7ec1ea51fe3db53e55ed9d922854bc2156f467ff2f87d74e2086dae2c84a88a890611c2d9086815260200190565b60405180910390a3505b50505050565b600080611c4a83826128ef565b905063ffffffff7f000000000000000000000000000000000000000000000000000000000000000016611c8262ffffff198316612913565b63ffffffff1614611cc45760405162461bcd60e51b815260206004820152600c60248201526b10b232b9ba34b730ba34b7b760a11b60448201526064016109f7565b6000611cd562ffffff198316612928565b905060016000828152600f602052604090205460ff166002811115611cfc57611cfc61306c565b14611d335760405162461bcd60e51b815260206004820152600760248201526610b83937bb32b760c91b60448201526064016109f7565b6000818152600f60205260409020805460ff191660021790556001611d987f00000000000000000000000000000000000000000000000000000000000000007f0000000000000000000000000000000000000000000000000000000000000000613219565b611da291906133b4565b5a11611dd95760405162461bcd60e51b81526004016109f7906020808252600490820152632167617360e01b604082015260600190565b6000611dea62ffffff198416612971565b6040805161010080825261012082019092529192507f000000000000000000000000000000000000000000000000000000000000000091600090826020820181803683370190505090506000611e4562ffffff198816612982565b611e5462ffffff198916612996565b611e6362ffffff198a166129ab565b611e80611e7562ffffff198c166129c0565b62ffffff19166129ee565b604051602401611e9394939291906134a7565b60408051601f198184030181529190526020810180516001600160e01b031663ab2dc3f560e01b1790529050611ecd858560008685612a37565b60405191995092507fd42de95a9b26f1be134c8ecce389dc4fcfa18753d01661b7b361233569e8fe4890611f069088908b9086906134d6565b60405180910390a150505050505050919050565b600354604080516001600160a01b03928316815291831660208301527fc77bec288fc88f168427f2f7da682eadb26cac89d8d591af6e443da98dff2bbc910160405180910390a1600380546001600160a01b0319166001600160a01b0392909216919091179055565b80471015611fd35760405162461bcd60e51b815260206004820152601d60248201527f416464726573733a20696e73756666696369656e742062616c616e636500000060448201526064016109f7565b6000826001600160a01b03168260405160006040518083038185875af1925050503d8060008114612020576040519150601f19603f3d011682016040523d82523d6000602084013e612025565b606091505b505090508061209c5760405162461bcd60e51b815260206004820152603a60248201527f416464726573733a20756e61626c6520746f2073656e642076616c75652c207260448201527f6563697069656e74206d6179206861766520726576657274656400000000000060648201526084016109f7565b505050565b60105460408051918252602082018390527f877a02cb809da0364d23adca3cd50c451b53f279d3df632e1fc11eb66335bce5910160405180910390a1601055565b6120ea61178d565b6003805460ff60a01b1916600160a01b1790557f62e78cea01bee320cd4e420270b5ea74000d11b0c9f74754ebdbfc544b05a2586119873390565b42600255600180546001600160a01b0319166001600160a01b0383169081179091556040517f6ab4d119f23076e8ad491bc65ce85f017fb0591dce08755ba8591059cc51737a90600090a250565b600080546040516001600160a01b03808516939216917f8be0079c531659141344cd1fd0a4f28419497f9722a3daafe3b4186f6b6457e091a3600080546001600160a01b039092166001600160a01b0319928316178155600255600180549091169055565b60006115887f000000000000000000000000000000000000000000000000000000000000000083612ac2565b60055481036122475760405162461bcd60e51b815260206004820152600f60248201526e085b995dc81c985d19481b1a5b5a5d608a1b60448201526064016109f7565b600581905560408051338152602081018390527f8e7fa5e406cb856aab05575e45ea011c6748376cc1b5229e3d67b92986406a159101610cb5565b606086868686868660405160200161229f969594939291906134f7565b60405160208183030381529060405290509695505050505050565b600081516020146122fc5760405162461bcd60e51b815260206004820152600c60248201526b042c8c2e8c240d8cadccee8d60a31b60448201526064016109f7565b61158882806020019051810190612313919061322c565b612b83565b806123565760405162461bcd60e51b815260206004820152600e60248201526d6e657720726f6f7420656d70747960901b60448201526064016109f7565b600081815260096020526040902054156123a95760405162461bcd60e51b8152602060048201526014602482015273726f6f7420616c72656164792070656e64696e6760601b60448201526064016109f7565b6000818152600a602052604090205460ff16156123fe5760405162461bcd60e51b81526020600482015260136024820152723937b7ba1030b63932b0b23c90383937bb32b760691b60448201526064016109f7565b60008181526009602052604090819020439055517f84ef18531155afdb0e64ff905d67044ae3aac63a6fba4661cfd9c4c14f289bc890610cb59083815260200190565b6020600582811b8216948552835194820394909452604060008181206002851615871b808503919091528386015190528181206004851615871b808503919091528286015190528181206008851615871b80850391909152606086015190528181206010851615871b8085039190915260808087015190915282822084861615881b8086039190915260a0870151905282822083861615881b8086039190915260c0870151905282822090851615871b8085039190915260e0860151905281812061010080861615881b80860392909252860151905281812061020080861615881b80860392909252610120870151909152828220610400861615881b808603919091526101408701519052828220610800861615881b808603919091526101608701519052828220611000861615881b808603919091526101808701519052828220612000861615881b808603919091526101a08701519052828220614000861615881b808603919091526101c08701519052828220618000861615881b808603919091526101e0870151905282822062010000861615881b8086039190915290860151905281812062020000851615871b80850391909152610220860151905281812062040000851615871b80850391909152610240860151905281812062080000851615871b80850391909152610260860151905281812062100000851615871b80850391909152610280860151905281812062200000851615871b808503919091526102a0860151905281812062400000851615871b808503919091526102c0860151905281812062800000851615871b808503919091526102e086015190528181206301000000851615871b8085039190915261030086015190528181206302000000851615871b8085039190915261032086015190528181206304000000851615871b8085039190915261034086015190528181206308000000851615871b8085039190915261036086015190528181206310000000851615871b8085039190915261038086015190528181206320000000851615871b808503919091526103a086015190528181206340000000851615871b808503919091526103c0860151905281812063800000009094161590951b91829003929092526103e090920151909152902090565b806127d25760405162461bcd60e51b8152602060048201526013602482015272616767726567617465526f6f7420656d70747960681b60448201526064016109f7565b6000818152600a602052604090205460ff16156127ec5750565b600081815260096020526040812054908190036128425760405162461bcd60e51b81526020600482015260146024820152731859d9dc9959d85d19549bdbdd0808595e1a5cdd60621b60448201526064016109f7565b60085461284f82436133b4565b101561289d5760405162461bcd60e51b815260206004820152601760248201527f616767726567617465526f6f742021766572696669656400000000000000000060448201526064016109f7565b6000828152600a6020526040808220805460ff191660011790555183917f36b314aba9f663b4d3ef3288ae489341cc5e6a2725a05fa2b72df7a27e03f42a91a250600090815260096020526040812055565b81516000906020840161290a64ffffffffff85168284612b99565b95945050505050565b600061158862ffffff19831660286004612bd6565b60008061293e8360781c6001600160601b031690565b6001600160601b03169050600061295e8460181c6001600160601b031690565b6001600160601b03169091209392505050565b600061158861297f83612c06565b90565b600061158862ffffff198316826004612bd6565b600061158862ffffff19831660246004612bd6565b600061158862ffffff19831660046020612c17565b6000611588604c6129de81601886901c6001600160601b03166133b4565b62ffffff19851691906000612d22565b6060600080612a068460181c6001600160601b031690565b6001600160601b031690506040519150819250612a268483602001612d9c565b508181016020016040529052919050565b6000606060008060008661ffff1667ffffffffffffffff811115612a5d57612a5d612f94565b6040519080825280601f01601f191660200182016040528015612a87576020820181803683370190505b5090506000808751602089018b8e8ef191503d925086831115612aa8578692505b828152826000602083013e90999098509650505050505050565b6000336001600160a01b03841614612b065760405162461bcd60e51b81526020600482015260076024820152662162726964676560c81b60448201526064016109f7565b816001600160a01b0316836001600160a01b0316636e296e456040518163ffffffff1660e01b8152600401602060405180830381865afa158015612b4e573d6000803e3d6000fd5b505050506040513d601f19601f82011682018060405250810190612b729190613551565b6001600160a01b0316149392505050565b6000601054821115612b955760105491505b5090565b600080612ba68385613219565b9050604051811115612bb6575060005b80600003612bcb5762ffffff19915050611786565b61290a858585612e8f565b6000612be382602061356e565b612bee906008613587565b60ff16612bfc858585612c17565b901c949350505050565b600061158862ffffff198316602c60205b60008160ff16600003612c2c57506000611786565b612c3f8460181c6001600160601b031690565b6001600160601b0316612c5560ff841685613219565b1115612cbd57612c6e8460781c6001600160601b031690565b612c818560181c6001600160601b031690565b6040516378218d2960e01b81526001600160601b039283166004820152911660248201526044810184905260ff831660648201526084016109f7565b60208260ff161115612ce25760405163045df3f960e01b815260040160405180910390fd5b600882026000612cfb8660781c6001600160601b031690565b6001600160601b031690506000600160ff1b60001984011d91909501511695945050505050565b600080612d388660781c6001600160601b031690565b6001600160601b03169050612d4c86612f06565b84612d578784613219565b612d619190613219565b1115612d745762ffffff19915050611b3a565b612d7e8582613219565b9050612d928364ffffffffff168286612b99565b9695505050505050565b600062ffffff1980841603612dc45760405163148d513360e21b815260040160405180910390fd5b612dcd83612f3f565b15612deb57604051632ee0949160e11b815260040160405180910390fd5b6000612e008460181c6001600160601b031690565b6001600160601b031690506000612e208560781c6001600160601b031690565b6001600160601b03169050600080604051915085821115612e415760206060fd5b8386858560045afa905080612e6957604051632af1bd9b60e21b815260040160405180910390fd5b612e84612e768860d81c90565b64ffffffffff168786612e8f565b979650505050505050565b60006060601883856001600160601b03821682148015612eb7575086816001600160601b0316145b612ef05760405162461bcd60e51b815260206004820152600a602482015269085d1c9d5b98d85d195960b21b60448201526064016109f7565b96831b90961790911b90941790931b9392505050565b6000612f1b8260181c6001600160601b031690565b612f2e8360781c6001600160601b031690565b016001600160601b03169050919050565b6000612f4b8260d81c90565b64ffffffffff1664ffffffffff03612f6557506001919050565b6000612f7083612f06565b604051109392505050565b600060208284031215612f8d57600080fd5b5035919050565b634e487b7160e01b600052604160045260246000fd5b600082601f830112612fbb57600080fd5b813567ffffffffffffffff80821115612fd657612fd6612f94565b604051601f8301601f19908116603f01168101908282118183101715612ffe57612ffe612f94565b8160405283815286602085880101111561301757600080fd5b836020870160208301376000602085830101528094505050505092915050565b60006020828403121561304957600080fd5b813567ffffffffffffffff81111561306057600080fd5b611b3a84828501612faa565b634e487b7160e01b600052602160045260246000fd5b60208101600383106130a457634e487b7160e01b600052602160045260246000fd5b91905290565b600080600080600061046086880312156130c357600080fd5b853567ffffffffffffffff808211156130db57600080fd5b818801915088601f8301126130ef57600080fd5b8135818111156130fe57600080fd5b8960208260051b850101111561311357600080fd5b60209283019750955050860135925061044086018781111561313457600080fd5b94979396509194604001933592915050565b6001600160a01b0381168114610fb657600080fd5b60006020828403121561316d57600080fd5b813561178681613146565b803563ffffffff8116811461318c57600080fd5b919050565b6000602082840312156131a357600080fd5b61178682613178565b6000806000606084860312156131c157600080fd5b6131ca84613178565b925060208401359150604084013567ffffffffffffffff8111156131ed57600080fd5b6131f986828701612faa565b9150509250925092565b634e487b7160e01b600052601160045260246000fd5b8082018082111561158857611588613203565b60006020828403121561323e57600080fd5b5051919050565b60005b83811015613260578181015183820152602001613248565b50506000910152565b60008151808452613281816020860160208601613245565b601f01601f19169290920160200192915050565b6060815260006132a86060830186613269565b82810360208401526132ba8186613269565b91505060018060a01b0383166040830152949350505050565b6040815260006132e66040830185613269565b905060018060a01b03831660208301529392505050565b634e487b7160e01b600052603260045260246000fd5b6000823561043e1983360301811261332a57600080fd5b9190910192915050565b6000808335601e1984360301811261334b57600080fd5b83018035915067ffffffffffffffff82111561336657600080fd5b60200191503681900382131561337b57600080fd5b9250929050565b8183823760009101908152919050565b6000602082840312156133a457600080fd5b8151801515811461178657600080fd5b8181038181111561158857611588613203565b600063ffffffff8083168181036133e0576133e0613203565b6001019392505050565b600080604083850312156133fd57600080fd5b505080516020909101519092909150565b848152836020820152826040820152608060608201526000612d926080830184613269565b6020815260006117866020830184613269565b6001600160a01b038416815260606020820181905260009061346a90830185613269565b905063ffffffff83166040830152949350505050565b805160208083015191908110156134a1576000198160200360031b1b821691505b50919050565b600063ffffffff808716835280861660208401525083604083015260806060830152612d926080830184613269565b838152821515602082015260606040820152600061290a6060830184613269565b600063ffffffff60e01b808960e01b168352876004840152808760e01b166024840152808660e01b1660288401525083602c830152825161353f81604c850160208701613245565b91909101604c01979650505050505050565b60006020828403121561356357600080fd5b815161178681613146565b60ff828116828216039081111561158857611588613203565b60ff81811683821602908116908181146135a3576135a3613203565b509291505056fea2646970667358221220cde01cac56ba5eff881482764415334488725fef10adfd44875622810606296c64736f6c63430008110033",
  "devdoc": {
    "kind": "dev",
    "methods": {
      "addSender(address)": {
        "details": "Only allowlisted routers (senders) can call `dispatch`."
      },
      "dispatch(uint32,bytes32,bytes)": {
        "details": "The root of this tree will eventually be dispatched to mainnet via `send`. On mainnet (the \"hub\"), it will be combined into a single aggregate root by RootManager (along with outbound roots from other chains). This aggregate root will be redistributed to all destination chains. NOTE: okay to leave dispatch operational when paused as pause is designed for crosschain interactions"
      },
      "home()": {
        "details": "The local inbox contract is a SpokeConnector with AMBs, and a Home contract with nomad",
        "returns": {
          "_0": "The local inbox contract"
        }
      },
      "isReplica(address)": {
        "returns": {
          "_0": "True if _potentialReplica is an enrolled Replica"
        }
      },
      "paused()": {
        "details": "Returns true if the contract is paused, and false otherwise."
      },
      "processMessage(bytes)": {
        "details": "This is called by AMBs to process messages originating from mirror connector"
      },
      "proveAndProcess((bytes,bytes32[32],uint256)[],bytes32,bytes32[32],uint256)": {
        "details": "Currently, ALL messages in a given batch must path to the same shared inboundRoot, meaning they must all share an origin. See open TODO below for a potential solution to enable multi-origin batches.Intended to be called by the relayer at specific intervals during runtime.Will record a calculated root as having been proven if we've already proven that it was included in the aggregateRoot.",
        "params": {
          "_aggregateIndex": "Index of the inbound root in the aggregator's merkle tree in the hub.",
          "_aggregatePath": "Merkle path of inclusion for the inbound root.",
          "_aggregateRoot": "The target aggregate root we want to prove inclusion for. This root must have already been delivered to this spoke connector contract and surpassed the validation period.",
          "_proofs": "Batch of Proofs containing messages for proving/processing."
        }
      },
      "removePendingAggregateRoot(bytes32)": {
        "details": "This method is required for handling fraud cases in the current construction.",
        "params": {
          "_fraudulentRoot": "Target fraudulent root that should be erased from the `pendingAggregateRoots` mapping."
        }
      },
      "removeSender(address)": {
        "details": "Only allowlisted routers (senders) can call `dispatch`."
      },
      "setRateLimitBlocks(uint256)": {
        "details": "Rate limit is used to mitigate DoS vectors. (See `RateLimited` for more info.)",
        "params": {
          "_rateLimit": "The number of blocks require between sending messages. If set to 0, rate limiting for this spoke connector will be disabled."
        }
      },
      "withdrawFunds(address)": {
        "details": "Withdraws the entire balance of the contract.",
        "params": {
          "_to": "The recipient of the funds withdrawn"
        }
      }
    },
    "version": 1
  },
  "userdoc": {
    "events": {
      "FundsWithdrawn(address,uint256)": {
        "notice": "Emitted when funds are withdrawn by the admin"
      },
      "GasCapUpdated(uint256,uint256)": {
        "notice": "Emitted when admin updates the gas cap"
      },
      "MessageProcessed(bytes,address)": {
        "notice": "Emitted whenever a message is successfully received over an AMB"
      },
      "MessageSent(bytes,bytes,address)": {
        "notice": "Emitted whenever a message is successfully sent over an AMB"
      },
      "WatcherManagerChanged(address)": {
        "notice": "Emitted when the manager address changes"
      }
    },
    "kind": "user",
    "methods": {
      "AMB()": {
        "notice": "Address of the AMB on this domain."
      },
      "DOMAIN()": {
        "notice": "The domain of this Messaging (i.e. Connector) contract."
      },
      "MERKLE()": {
        "notice": "MerkleTreeManager contract instance. Will hold the active tree of message hashes, whose root will be sent crosschain to the hub for aggregation and redistribution."
      },
      "MIRROR_DOMAIN()": {
        "notice": "The domain of the corresponding messaging (i.e. Connector) contract."
      },
      "PROCESS_GAS()": {
        "notice": "Minimum gas for processing a received message (reserved for handle)"
      },
      "RESERVE_GAS()": {
        "notice": "Reserved gas (to ensure tx completes in case message processing runs out)"
      },
      "ROOT_MANAGER()": {
        "notice": "RootManager contract address."
      },
      "acceptProposedOwner()": {
        "notice": "Transfers ownership of the contract to a new account (`newOwner`). Can only be called by the current owner."
      },
      "addSender(address)": {
        "notice": "Adds a sender to the allowlist."
      },
      "delay()": {
        "notice": "Returns the delay period before a new owner can be accepted."
      },
      "delayBlocks()": {
        "notice": "Number of blocks to delay the processing of a message to allow for watchers to verify the validity and pause if necessary."
      },
      "dispatch(uint32,bytes32,bytes)": {
        "notice": "This function adds transfers to the outbound transfer merkle tree."
      },
      "home()": {
        "notice": "Get the local inbox contract from the xAppConnectionManager"
      },
      "isReplica(address)": {
        "notice": "Determine whether _potentialReplica is an enrolled Replica from the xAppConnectionManager"
      },
      "lastSentBlock()": {
        "notice": "Tracks the last block that we sent a message."
      },
      "localDomain()": {
        "notice": "This provides the implementation for what is defined in the ConnectorManager to avoid storing the domain redundantly"
      },
      "messages(bytes32)": {
        "notice": "Mapping of message leaves to MessageStatus, keyed on leaf."
      },
      "mirrorConnector()": {
        "notice": "Connector on L2 for L1 connectors, and vice versa."
      },
      "nonces(uint32)": {
        "notice": "domain => next available nonce for the domain."
      },
      "outboundRoot()": {
        "notice": "This returns the root of all messages with the origin domain as this domain (i.e. all outbound messages)"
      },
      "owner()": {
        "notice": "Returns the address of the current owner."
      },
      "pause()": {
        "notice": "Watchers can pause contracts if fraud is detected"
      },
      "pendingAggregateRoots(bytes32)": {
        "notice": "This will hold the commit block for incoming aggregateRoots from the hub chain. Once they are verified, (i.e. have surpassed the verification period in `delayBlocks`) they can be used for proving inclusion of crosschain messages."
      },
      "processMessage(bytes)": {
        "notice": "Processes a message received by an AMB"
      },
      "proposeNewOwner(address)": {
        "notice": "Sets the timestamp for an owner to be proposed, and sets the newly proposed owner as step 1 in a 2-step process"
      },
      "proposed()": {
        "notice": "Returns the address of the proposed owner."
      },
      "proposedTimestamp()": {
        "notice": "Returns the address of the proposed owner."
      },
      "proveAndProcess((bytes,bytes32[32],uint256)[],bytes32,bytes32[32],uint256)": {
        "notice": "Must be able to call the `handle` function on the BridgeRouter contract. This is called on the destination domain to handle incoming messages. Proving: Calculates the expected inbound root from an origin chain given a leaf (message hash), the index of the leaf, and the merkle proof of inclusion (path). Next, we check to ensure that this calculated inbound root is included in the current aggregateRoot, given its index in the aggregator tree and the proof of inclusion. Processing: After all messages have been proven, we dispatch each message to Connext (BridgeRouter) for execution."
      },
      "provenAggregateRoots(bytes32)": {
        "notice": "This tracks the roots of the aggregate tree containing outbound roots from all other supported domains. The current version is the one that is known to be past the delayBlocks time period."
      },
      "provenMessageRoots(bytes32)": {
        "notice": "This tracks whether the root has been proven to exist within the given aggregate root."
      },
      "rateLimitBlocks()": {
        "notice": "The number of blocks required between message sending events."
      },
      "removePendingAggregateRoot(bytes32)": {
        "notice": "Manually remove a pending aggregateRoot by owner if the contract is paused."
      },
      "removeSender(address)": {
        "notice": "Removes a sender from the allowlist."
      },
      "renounceOwnership()": {
        "notice": "Should not be able to renounce ownership"
      },
      "renounced()": {
        "notice": "Indicates if the ownership has been renounced() by checking if current owner is address(0)"
      },
      "send(bytes)": {
        "notice": "This returns the root of all messages with the origin domain as this domain (i.e. all outbound messages)"
      },
      "sentMessageRoots(bytes32)": {
        "notice": "This mapping records all message roots that have already been sent in order to prevent redundant message roots from being sent to hub."
      },
      "setDelayBlocks(uint256)": {
        "notice": "Set the `delayBlocks`, the period in blocks over which an incoming message is verified."
      },
      "setMirrorConnector(address)": {
        "notice": "Sets the address of the l2Connector for this domain"
      },
      "setRateLimitBlocks(uint256)": {
        "notice": "Set the rate limit (number of blocks) at which we can send messages from this contract to the hub chain using the `send` method."
      },
      "setWatcherManager(address)": {
        "notice": "Owner can enroll a watcher (abilities are defined by inheriting contracts)"
      },
      "unpause()": {
        "notice": "Owner can unpause contracts if fraud is detected by watchers"
      },
      "verifySender(address)": {
        "notice": "Checks the cross domain sender for a given address"
      },
      "watcherManager()": {
        "notice": "The `WatcherManager` contract governs the watcher allowlist."
      },
      "withdrawFunds(address)": {
        "notice": "This function should be callable by owner, and send funds trapped on a connector to the provided recipient."
      }
    },
    "version": 1
  },
  "storageLayout": {
    "storage": [
      {
        "astId": 49241,
        "contract": "contracts/messaging/connectors/optimism/OptimismSpokeConnector.sol:OptimismSpokeConnector",
        "label": "_owner",
        "offset": 0,
        "slot": "0",
        "type": "t_address"
      },
      {
        "astId": 49243,
        "contract": "contracts/messaging/connectors/optimism/OptimismSpokeConnector.sol:OptimismSpokeConnector",
        "label": "_proposed",
        "offset": 0,
        "slot": "1",
        "type": "t_address"
      },
      {
        "astId": 49245,
        "contract": "contracts/messaging/connectors/optimism/OptimismSpokeConnector.sol:OptimismSpokeConnector",
        "label": "_proposedOwnershipTimestamp",
        "offset": 0,
        "slot": "2",
        "type": "t_uint256"
      },
      {
        "astId": 38697,
        "contract": "contracts/messaging/connectors/optimism/OptimismSpokeConnector.sol:OptimismSpokeConnector",
        "label": "mirrorConnector",
        "offset": 0,
        "slot": "3",
        "type": "t_address"
      },
      {
        "astId": 10584,
        "contract": "contracts/messaging/connectors/optimism/OptimismSpokeConnector.sol:OptimismSpokeConnector",
        "label": "_paused",
        "offset": 20,
        "slot": "3",
        "type": "t_bool"
      },
      {
        "astId": 38470,
        "contract": "contracts/messaging/connectors/optimism/OptimismSpokeConnector.sol:OptimismSpokeConnector",
        "label": "watcherManager",
        "offset": 0,
        "slot": "4",
        "type": "t_contract(WatcherManager)38651"
      },
      {
        "astId": 49169,
        "contract": "contracts/messaging/connectors/optimism/OptimismSpokeConnector.sol:OptimismSpokeConnector",
        "label": "rateLimitBlocks",
        "offset": 0,
        "slot": "5",
        "type": "t_uint256"
      },
      {
        "astId": 49172,
        "contract": "contracts/messaging/connectors/optimism/OptimismSpokeConnector.sol:OptimismSpokeConnector",
        "label": "lastSentBlock",
        "offset": 0,
        "slot": "6",
        "type": "t_uint256"
      },
      {
        "astId": 10685,
        "contract": "contracts/messaging/connectors/optimism/OptimismSpokeConnector.sol:OptimismSpokeConnector",
        "label": "_status",
        "offset": 0,
        "slot": "7",
        "type": "t_uint256"
      },
      {
        "astId": 39192,
        "contract": "contracts/messaging/connectors/optimism/OptimismSpokeConnector.sol:OptimismSpokeConnector",
        "label": "delayBlocks",
        "offset": 0,
        "slot": "8",
        "type": "t_uint256"
      },
      {
        "astId": 39207,
        "contract": "contracts/messaging/connectors/optimism/OptimismSpokeConnector.sol:OptimismSpokeConnector",
        "label": "pendingAggregateRoots",
        "offset": 0,
        "slot": "9",
        "type": "t_mapping(t_bytes32,t_uint256)"
      },
      {
        "astId": 39212,
        "contract": "contracts/messaging/connectors/optimism/OptimismSpokeConnector.sol:OptimismSpokeConnector",
        "label": "provenAggregateRoots",
        "offset": 0,
        "slot": "10",
        "type": "t_mapping(t_bytes32,t_bool)"
      },
      {
        "astId": 39217,
        "contract": "contracts/messaging/connectors/optimism/OptimismSpokeConnector.sol:OptimismSpokeConnector",
        "label": "provenMessageRoots",
        "offset": 0,
        "slot": "11",
        "type": "t_mapping(t_bytes32,t_bool)"
      },
      {
        "astId": 39222,
        "contract": "contracts/messaging/connectors/optimism/OptimismSpokeConnector.sol:OptimismSpokeConnector",
        "label": "sentMessageRoots",
        "offset": 0,
        "slot": "12",
        "type": "t_mapping(t_bytes32,t_bool)"
      },
      {
        "astId": 39227,
        "contract": "contracts/messaging/connectors/optimism/OptimismSpokeConnector.sol:OptimismSpokeConnector",
        "label": "allowlistedSenders",
        "offset": 0,
        "slot": "13",
        "type": "t_mapping(t_address,t_bool)"
      },
      {
        "astId": 39232,
        "contract": "contracts/messaging/connectors/optimism/OptimismSpokeConnector.sol:OptimismSpokeConnector",
        "label": "nonces",
        "offset": 0,
        "slot": "14",
        "type": "t_mapping(t_uint32,t_uint32)"
      },
      {
        "astId": 39238,
        "contract": "contracts/messaging/connectors/optimism/OptimismSpokeConnector.sol:OptimismSpokeConnector",
        "label": "messages",
        "offset": 0,
        "slot": "15",
        "type": "t_mapping(t_bytes32,t_enum(MessageStatus)39180)"
      },
      {
        "astId": 38947,
        "contract": "contracts/messaging/connectors/optimism/OptimismSpokeConnector.sol:OptimismSpokeConnector",
        "label": "gasCap",
        "offset": 0,
        "slot": "16",
        "type": "t_uint256"
      }
    ],
    "types": {
      "t_address": {
        "encoding": "inplace",
        "label": "address",
        "numberOfBytes": "20"
      },
      "t_bool": {
        "encoding": "inplace",
        "label": "bool",
        "numberOfBytes": "1"
      },
      "t_bytes32": {
        "encoding": "inplace",
        "label": "bytes32",
        "numberOfBytes": "32"
      },
      "t_contract(WatcherManager)38651": {
        "encoding": "inplace",
        "label": "contract WatcherManager",
        "numberOfBytes": "20"
      },
      "t_enum(MessageStatus)39180": {
        "encoding": "inplace",
        "label": "enum SpokeConnector.MessageStatus",
        "numberOfBytes": "1"
      },
      "t_mapping(t_address,t_bool)": {
        "encoding": "mapping",
        "key": "t_address",
        "label": "mapping(address => bool)",
        "numberOfBytes": "32",
        "value": "t_bool"
      },
      "t_mapping(t_bytes32,t_bool)": {
        "encoding": "mapping",
        "key": "t_bytes32",
        "label": "mapping(bytes32 => bool)",
        "numberOfBytes": "32",
        "value": "t_bool"
      },
      "t_mapping(t_bytes32,t_enum(MessageStatus)39180)": {
        "encoding": "mapping",
        "key": "t_bytes32",
        "label": "mapping(bytes32 => enum SpokeConnector.MessageStatus)",
        "numberOfBytes": "32",
        "value": "t_enum(MessageStatus)39180"
      },
      "t_mapping(t_bytes32,t_uint256)": {
        "encoding": "mapping",
        "key": "t_bytes32",
        "label": "mapping(bytes32 => uint256)",
        "numberOfBytes": "32",
        "value": "t_uint256"
      },
      "t_mapping(t_uint32,t_uint32)": {
        "encoding": "mapping",
        "key": "t_uint32",
        "label": "mapping(uint32 => uint32)",
        "numberOfBytes": "32",
        "value": "t_uint32"
      },
      "t_uint256": {
        "encoding": "inplace",
        "label": "uint256",
        "numberOfBytes": "32"
      },
      "t_uint32": {
        "encoding": "inplace",
        "label": "uint32",
        "numberOfBytes": "4"
      }
    }
  }
}