{
  "address": "0xF12b5dd4EAD5F743C6BaA640B0216200e89B60Da",
  "abi": [
    {
      "inputs": [],
      "stateMutability": "nonpayable",
      "type": "constructor"
    },
    {
      "inputs": [],
      "name": "ProposedOwnable__onlyOwner_notOwner",
      "type": "error"
    },
    {
      "inputs": [],
      "name": "ProposedOwnable__onlyProposed_notProposedOwner",
      "type": "error"
    },
    {
      "inputs": [],
      "name": "ProposedOwnable__ownershipDelayElapsed_delayNotElapsed",
      "type": "error"
    },
    {
      "inputs": [],
      "name": "ProposedOwnable__proposeNewOwner_invalidProposal",
      "type": "error"
    },
    {
      "inputs": [],
      "name": "ProposedOwnable__proposeNewOwner_noOwnershipChange",
      "type": "error"
    },
    {
      "inputs": [],
      "name": "ProposedOwnable__renounceOwnership_invalidProposal",
      "type": "error"
    },
    {
      "inputs": [],
      "name": "ProposedOwnable__renounceOwnership_noProposal",
      "type": "error"
    },
    {
      "anonymous": false,
      "inputs": [
        {
          "indexed": true,
          "internalType": "address",
          "name": "beacon",
          "type": "address"
        },
        {
          "indexed": false,
          "internalType": "address",
          "name": "implementation",
          "type": "address"
        }
      ],
      "name": "BeaconUpgraded",
      "type": "event"
    },
    {
      "anonymous": false,
      "inputs": [
        {
          "indexed": true,
          "internalType": "address",
          "name": "proposedOwner",
          "type": "address"
        }
      ],
      "name": "OwnershipProposed",
      "type": "event"
    },
    {
      "anonymous": false,
      "inputs": [
        {
          "indexed": true,
          "internalType": "address",
          "name": "previousOwner",
          "type": "address"
        },
        {
          "indexed": true,
          "internalType": "address",
          "name": "newOwner",
          "type": "address"
        }
      ],
      "name": "OwnershipTransferred",
      "type": "event"
    },
    {
      "inputs": [],
      "name": "acceptProposedOwner",
      "outputs": [],
      "stateMutability": "nonpayable",
      "type": "function"
    },
    {
      "inputs": [],
      "name": "delay",
      "outputs": [
        {
          "internalType": "uint256",
          "name": "",
          "type": "uint256"
        }
      ],
      "stateMutability": "view",
      "type": "function"
    },
    {
      "inputs": [],
      "name": "owner",
      "outputs": [
        {
          "internalType": "address",
          "name": "",
          "type": "address"
        }
      ],
      "stateMutability": "view",
      "type": "function"
    },
    {
      "inputs": [
        {
          "internalType": "address",
          "name": "newlyProposed",
          "type": "address"
        }
      ],
      "name": "proposeNewOwner",
      "outputs": [],
      "stateMutability": "nonpayable",
      "type": "function"
    },
    {
      "inputs": [],
      "name": "proposed",
      "outputs": [
        {
          "internalType": "address",
          "name": "",
          "type": "address"
        }
      ],
      "stateMutability": "view",
      "type": "function"
    },
    {
      "inputs": [],
      "name": "proposedTimestamp",
      "outputs": [
        {
          "internalType": "uint256",
          "name": "",
          "type": "uint256"
        }
      ],
      "stateMutability": "view",
      "type": "function"
    },
    {
      "inputs": [],
      "name": "renounceOwnership",
      "outputs": [],
      "stateMutability": "nonpayable",
      "type": "function"
    },
    {
      "inputs": [],
      "name": "renounced",
      "outputs": [
        {
          "internalType": "bool",
          "name": "",
          "type": "bool"
        }
      ],
      "stateMutability": "view",
      "type": "function"
    },
    {
      "inputs": [
        {
          "internalType": "address",
          "name": "_beacon",
          "type": "address"
        },
        {
          "internalType": "address",
          "name": "_implementation",
          "type": "address"
        }
      ],
      "name": "upgrade",
      "outputs": [],
      "stateMutability": "nonpayable",
      "type": "function"
    }
  ],
  "transactionHash": "0x3f80ee43d7e1b9f68ba0bbc56937005e89bed298834f24bcf5ac2e5bcdeb5486",
  "args": [],
  "numDeployments": 1,
  "solcInputHash": "08ca6ef6e120fb4cb0f5603df6e78508",
  "bytecode": "0x608060405234801561001057600080fd5b5061001a3361001f565b610084565b600080546040516001600160a01b03808516939216917f8be0079c531659141344cd1fd0a4f28419497f9722a3daafe3b4186f6b6457e091a3600080546001600160a01b039092166001600160a01b0319928316178155600255600180549091169055565b6105fc806100936000396000f3fe608060405234801561001057600080fd5b50600436106100935760003560e01c806399a88ec41161006657806399a88ec4146100e7578063b1f8100d146100fa578063c5b350df1461010d578063d1851c9214610115578063d232c2201461012657600080fd5b80633cf52ffb146100985780636a42b8f8146100af578063715018a6146100b85780638da5cb5b146100c2575b600080fd5b6002545b6040519081526020015b60405180910390f35b62093a8061009c565b6100c0610142565b005b6000546001600160a01b03165b6040516001600160a01b0390911681526020016100a6565b6100c06100f536600461051b565b6101f6565b6100c061010836600461054e565b61033f565b6100c06103e0565b6001546001600160a01b03166100cf565b6000546040516001600160a01b039091161581526020016100a6565b6000546001600160a01b0316331461016d576040516311a8a1bb60e31b815260040160405180910390fd5b62093a806002544261017f9190610570565b1161019d576040516324e0285f60e21b815260040160405180910390fd5b6002546000036101c057604051630e4b303f60e21b815260040160405180910390fd5b6001546001600160a01b0316156101ea576040516323295ef960e01b815260040160405180910390fd5b6101f4600061044c565b565b6000546001600160a01b03163314610221576040516311a8a1bb60e31b815260040160405180910390fd5b6001600160a01b0382163b61026f5760405162461bcd60e51b815260206004820152601060248201526f18995858dbdb880858dbdb9d1c9858dd60821b604482015260640160405180910390fd5b604080516001600160a01b038381166020830152600092908516910160408051601f19818403018152908290526102a591610597565b6000604051808303816000865af19150503d80600081146102e2576040519150601f19603f3d011682016040523d82523d6000602084013e6102e7565b606091505b50509050806102fa573d6000803e3d6000fd5b6040516001600160a01b0383811682528416907fc945ae30494f6ee00b9e4bf1fec5653ced7244b559666f44f9a88ea732e957b09060200160405180910390a2505050565b6000546001600160a01b0316331461036a576040516311a8a1bb60e31b815260040160405180910390fd5b6001546001600160a01b038281169116148015610388575060025415155b156103a6576040516311bc066560e11b815260040160405180910390fd5b6000546001600160a01b038083169116036103d457604051634a2fb73f60e11b815260040160405180910390fd5b6103dd816104b1565b50565b6001546001600160a01b0316331461040b576040516311a7f27160e11b815260040160405180910390fd5b62093a806002544261041d9190610570565b1161043b576040516324e0285f60e21b815260040160405180910390fd5b6001546101f4906001600160a01b03165b600080546040516001600160a01b03808516939216917f8be0079c531659141344cd1fd0a4f28419497f9722a3daafe3b4186f6b6457e091a3600080546001600160a01b039092166001600160a01b0319928316178155600255600180549091169055565b42600255600180546001600160a01b0319166001600160a01b0383169081179091556040517f6ab4d119f23076e8ad491bc65ce85f017fb0591dce08755ba8591059cc51737a90600090a250565b80356001600160a01b038116811461051657600080fd5b919050565b6000806040838503121561052e57600080fd5b610537836104ff565b9150610545602084016104ff565b90509250929050565b60006020828403121561056057600080fd5b610569826104ff565b9392505050565b8181038181111561059157634e487b7160e01b600052601160045260246000fd5b92915050565b6000825160005b818110156105b8576020818601810151858301520161059e565b50600092019182525091905056fea264697066735822122039269d083e3db75bcbcc7fb26455b52eb4dea57d3d00075d9f7660186c344aaf64736f6c63430008110033",
  "devdoc": {
    "details": "This implementation is a minimal version inspired by 0age's implementation: https://github.com/dharma-eng/dharma-smart-wallet/blob/master/contracts/upgradeability/DharmaUpgradeBeaconController.solDo *NOT* remove ownership unless all UpgradeBeacons registered with this controller are willing to lose upgradeability.",
    "kind": "dev",
    "methods": {
      "upgrade(address,address)": {
        "params": {
          "_beacon": "Address of the UpgradeBeacon which will be updated",
          "_implementation": "Address of the Implementation contract to upgrade the Beacon to"
        }
      }
    },
    "title": "UpgradeBeaconController",
    "version": 1
  },
  "userdoc": {
    "kind": "user",
    "methods": {
      "acceptProposedOwner()": {
        "notice": "Transfers ownership of the contract to a new account (`newOwner`). Can only be called by the current owner."
      },
      "delay()": {
        "notice": "Returns the delay period before a new owner can be accepted."
      },
      "owner()": {
        "notice": "Returns the address of the current owner."
      },
      "proposeNewOwner(address)": {
        "notice": "Sets the timestamp for an owner to be proposed, and sets the newly proposed owner as step 1 in a 2-step process"
      },
      "proposed()": {
        "notice": "Returns the address of the proposed owner."
      },
      "proposedTimestamp()": {
        "notice": "Returns the address of the proposed owner."
      },
      "renounceOwnership()": {
        "notice": "Renounces ownership of the contract after a delay"
      },
      "renounced()": {
        "notice": "Indicates if the ownership has been renounced() by checking if current owner is address(0)"
      },
      "upgrade(address,address)": {
        "notice": "Modify the implementation stored in the UpgradeBeacon, which will upgrade the implementation used by all Proxy contracts using that UpgradeBeacon"
      }
    },
    "notice": "Set as the controller of UpgradeBeacon contract(s), capable of changing their stored implementation address.",
    "version": 1
  },
  "storageLayout": {
    "storage": [
      {
        "astId": 49241,
        "contract": "contracts/shared/upgrade/UpgradeBeaconController.sol:UpgradeBeaconController",
        "label": "_owner",
        "offset": 0,
        "slot": "0",
        "type": "t_address"
      },
      {
        "astId": 49243,
        "contract": "contracts/shared/upgrade/UpgradeBeaconController.sol:UpgradeBeaconController",
        "label": "_proposed",
        "offset": 0,
        "slot": "1",
        "type": "t_address"
      },
      {
        "astId": 49245,
        "contract": "contracts/shared/upgrade/UpgradeBeaconController.sol:UpgradeBeaconController",
        "label": "_proposedOwnershipTimestamp",
        "offset": 0,
        "slot": "2",
        "type": "t_uint256"
      }
    ],
    "types": {
      "t_address": {
        "encoding": "inplace",
        "label": "address",
        "numberOfBytes": "20"
      },
      "t_uint256": {
        "encoding": "inplace",
        "label": "uint256",
        "numberOfBytes": "32"
      }
    }
  }
}