{
  "_format": "hh-sol-artifact-1",
  "contractName": "TransactionManager",
  "sourceName": "contracts/TransactionManager.sol",
  "abi": [
    {
      "inputs": [
        {
          "internalType": "uint24",
          "name": "_chainId",
          "type": "uint24"
        }
      ],
      "stateMutability": "nonpayable",
      "type": "constructor"
    },
    {
      "anonymous": false,
      "inputs": [
        {
          "indexed": false,
          "internalType": "address",
          "name": "router",
          "type": "address"
        },
        {
          "indexed": false,
          "internalType": "address",
          "name": "assetId",
          "type": "address"
        },
        {
          "indexed": false,
          "internalType": "uint256",
          "name": "amount",
          "type": "uint256"
        }
      ],
      "name": "LiquidityAdded",
      "type": "event"
    },
    {
      "anonymous": false,
      "inputs": [
        {
          "indexed": false,
          "internalType": "address",
          "name": "router",
          "type": "address"
        },
        {
          "indexed": false,
          "internalType": "address",
          "name": "assetId",
          "type": "address"
        },
        {
          "indexed": false,
          "internalType": "uint256",
          "name": "amount",
          "type": "uint256"
        },
        {
          "indexed": false,
          "internalType": "address",
          "name": "recipient",
          "type": "address"
        }
      ],
      "name": "LiquidityRemoved",
      "type": "event"
    },
    {
      "anonymous": false,
      "inputs": [
        {
          "components": [
            {
              "internalType": "address",
              "name": "user",
              "type": "address"
            },
            {
              "internalType": "address",
              "name": "router",
              "type": "address"
            },
            {
              "internalType": "uint256",
              "name": "amount",
              "type": "uint256"
            },
            {
              "internalType": "address",
              "name": "sendingAssetId",
              "type": "address"
            },
            {
              "internalType": "address",
              "name": "receivingAssetId",
              "type": "address"
            },
            {
              "internalType": "uint24",
              "name": "sendingChainId",
              "type": "uint24"
            },
            {
              "internalType": "uint24",
              "name": "receivingChainId",
              "type": "uint24"
            },
            {
              "internalType": "address",
              "name": "callTo",
              "type": "address"
            },
            {
              "internalType": "bytes",
              "name": "callData",
              "type": "bytes"
            },
            {
              "internalType": "bytes32",
              "name": "transactionId",
              "type": "bytes32"
            },
            {
              "internalType": "uint256",
              "name": "expiry",
              "type": "uint256"
            }
          ],
          "indexed": false,
          "internalType": "struct ITransactionManager.TransactionData",
          "name": "txData",
          "type": "tuple"
        },
        {
          "indexed": false,
          "internalType": "address",
          "name": "caller",
          "type": "address"
        }
      ],
      "name": "TransactionCancelled",
      "type": "event"
    },
    {
      "anonymous": false,
      "inputs": [
        {
          "components": [
            {
              "internalType": "address",
              "name": "user",
              "type": "address"
            },
            {
              "internalType": "address",
              "name": "router",
              "type": "address"
            },
            {
              "internalType": "uint256",
              "name": "amount",
              "type": "uint256"
            },
            {
              "internalType": "address",
              "name": "sendingAssetId",
              "type": "address"
            },
            {
              "internalType": "address",
              "name": "receivingAssetId",
              "type": "address"
            },
            {
              "internalType": "uint24",
              "name": "sendingChainId",
              "type": "uint24"
            },
            {
              "internalType": "uint24",
              "name": "receivingChainId",
              "type": "uint24"
            },
            {
              "internalType": "address",
              "name": "callTo",
              "type": "address"
            },
            {
              "internalType": "bytes",
              "name": "callData",
              "type": "bytes"
            },
            {
              "internalType": "bytes32",
              "name": "transactionId",
              "type": "bytes32"
            },
            {
              "internalType": "uint256",
              "name": "expiry",
              "type": "uint256"
            }
          ],
          "indexed": false,
          "internalType": "struct ITransactionManager.TransactionData",
          "name": "txData",
          "type": "tuple"
        },
        {
          "indexed": false,
          "internalType": "bytes",
          "name": "signature",
          "type": "bytes"
        },
        {
          "indexed": false,
          "internalType": "address",
          "name": "caller",
          "type": "address"
        }
      ],
      "name": "TransactionFulfilled",
      "type": "event"
    },
    {
      "anonymous": false,
      "inputs": [
        {
          "components": [
            {
              "internalType": "address",
              "name": "user",
              "type": "address"
            },
            {
              "internalType": "address",
              "name": "router",
              "type": "address"
            },
            {
              "internalType": "uint256",
              "name": "amount",
              "type": "uint256"
            },
            {
              "internalType": "address",
              "name": "sendingAssetId",
              "type": "address"
            },
            {
              "internalType": "address",
              "name": "receivingAssetId",
              "type": "address"
            },
            {
              "internalType": "uint24",
              "name": "sendingChainId",
              "type": "uint24"
            },
            {
              "internalType": "uint24",
              "name": "receivingChainId",
              "type": "uint24"
            },
            {
              "internalType": "address",
              "name": "callTo",
              "type": "address"
            },
            {
              "internalType": "bytes",
              "name": "callData",
              "type": "bytes"
            },
            {
              "internalType": "bytes32",
              "name": "transactionId",
              "type": "bytes32"
            },
            {
              "internalType": "uint256",
              "name": "expiry",
              "type": "uint256"
            }
          ],
          "indexed": false,
          "internalType": "struct ITransactionManager.TransactionData",
          "name": "txData",
          "type": "tuple"
        },
        {
          "indexed": false,
          "internalType": "address",
          "name": "caller",
          "type": "address"
        }
      ],
      "name": "TransactionPrepared",
      "type": "event"
    },
    {
      "inputs": [],
      "name": "MIN_TIMEOUT",
      "outputs": [
        {
          "internalType": "uint256",
          "name": "",
          "type": "uint256"
        }
      ],
      "stateMutability": "view",
      "type": "function"
    },
    {
      "inputs": [
        {
          "internalType": "uint256",
          "name": "amount",
          "type": "uint256"
        },
        {
          "internalType": "address",
          "name": "assetId",
          "type": "address"
        }
      ],
      "name": "addLiquidity",
      "outputs": [],
      "stateMutability": "payable",
      "type": "function"
    },
    {
      "inputs": [
        {
          "components": [
            {
              "internalType": "address",
              "name": "user",
              "type": "address"
            },
            {
              "internalType": "address",
              "name": "router",
              "type": "address"
            },
            {
              "internalType": "uint256",
              "name": "amount",
              "type": "uint256"
            },
            {
              "internalType": "address",
              "name": "sendingAssetId",
              "type": "address"
            },
            {
              "internalType": "address",
              "name": "receivingAssetId",
              "type": "address"
            },
            {
              "internalType": "uint24",
              "name": "sendingChainId",
              "type": "uint24"
            },
            {
              "internalType": "uint24",
              "name": "receivingChainId",
              "type": "uint24"
            },
            {
              "internalType": "address",
              "name": "callTo",
              "type": "address"
            },
            {
              "internalType": "bytes",
              "name": "callData",
              "type": "bytes"
            },
            {
              "internalType": "bytes32",
              "name": "transactionId",
              "type": "bytes32"
            },
            {
              "internalType": "uint256",
              "name": "expiry",
              "type": "uint256"
            }
          ],
          "internalType": "struct ITransactionManager.TransactionData",
          "name": "txData",
          "type": "tuple"
        }
      ],
      "name": "cancel",
      "outputs": [],
      "stateMutability": "nonpayable",
      "type": "function"
    },
    {
      "inputs": [],
      "name": "chainId",
      "outputs": [
        {
          "internalType": "uint24",
          "name": "",
          "type": "uint24"
        }
      ],
      "stateMutability": "view",
      "type": "function"
    },
    {
      "inputs": [
        {
          "components": [
            {
              "internalType": "address",
              "name": "user",
              "type": "address"
            },
            {
              "internalType": "address",
              "name": "router",
              "type": "address"
            },
            {
              "internalType": "uint256",
              "name": "amount",
              "type": "uint256"
            },
            {
              "internalType": "address",
              "name": "sendingAssetId",
              "type": "address"
            },
            {
              "internalType": "address",
              "name": "receivingAssetId",
              "type": "address"
            },
            {
              "internalType": "uint24",
              "name": "sendingChainId",
              "type": "uint24"
            },
            {
              "internalType": "uint24",
              "name": "receivingChainId",
              "type": "uint24"
            },
            {
              "internalType": "address",
              "name": "callTo",
              "type": "address"
            },
            {
              "internalType": "bytes",
              "name": "callData",
              "type": "bytes"
            },
            {
              "internalType": "bytes32",
              "name": "transactionId",
              "type": "bytes32"
            },
            {
              "internalType": "uint256",
              "name": "expiry",
              "type": "uint256"
            }
          ],
          "internalType": "struct ITransactionManager.TransactionData",
          "name": "txData",
          "type": "tuple"
        },
        {
          "internalType": "bytes",
          "name": "signature",
          "type": "bytes"
        }
      ],
      "name": "fulfill",
      "outputs": [],
      "stateMutability": "nonpayable",
      "type": "function"
    },
    {
      "inputs": [
        {
          "components": [
            {
              "internalType": "address",
              "name": "user",
              "type": "address"
            },
            {
              "internalType": "address",
              "name": "router",
              "type": "address"
            },
            {
              "internalType": "uint256",
              "name": "amount",
              "type": "uint256"
            },
            {
              "internalType": "address",
              "name": "sendingAssetId",
              "type": "address"
            },
            {
              "internalType": "address",
              "name": "receivingAssetId",
              "type": "address"
            },
            {
              "internalType": "uint24",
              "name": "sendingChainId",
              "type": "uint24"
            },
            {
              "internalType": "uint24",
              "name": "receivingChainId",
              "type": "uint24"
            },
            {
              "internalType": "address",
              "name": "callTo",
              "type": "address"
            },
            {
              "internalType": "bytes",
              "name": "callData",
              "type": "bytes"
            },
            {
              "internalType": "bytes32",
              "name": "transactionId",
              "type": "bytes32"
            },
            {
              "internalType": "uint256",
              "name": "expiry",
              "type": "uint256"
            }
          ],
          "internalType": "struct ITransactionManager.TransactionData",
          "name": "txData",
          "type": "tuple"
        }
      ],
      "name": "prepare",
      "outputs": [
        {
          "internalType": "bytes32",
          "name": "",
          "type": "bytes32"
        }
      ],
      "stateMutability": "payable",
      "type": "function"
    },
    {
      "inputs": [
        {
          "internalType": "uint256",
          "name": "amount",
          "type": "uint256"
        },
        {
          "internalType": "address",
          "name": "assetId",
          "type": "address"
        },
        {
          "internalType": "address payable",
          "name": "recipient",
          "type": "address"
        }
      ],
      "name": "removeLiquidity",
      "outputs": [],
      "stateMutability": "nonpayable",
      "type": "function"
    },
    {
      "inputs": [
        {
          "internalType": "address",
          "name": "",
          "type": "address"
        },
        {
          "internalType": "address",
          "name": "",
          "type": "address"
        }
      ],
      "name": "routerBalances",
      "outputs": [
        {
          "internalType": "uint256",
          "name": "",
          "type": "uint256"
        }
      ],
      "stateMutability": "view",
      "type": "function"
    }
  ],
  "bytecode": "0x60a06040523480156200001157600080fd5b5060405162003d2d38038062003d2d833981810160405281019062000037919062000072565b60016000819055508062ffffff1660808162ffffff1660e81b8152505050620000c7565b6000815190506200006c81620000ad565b92915050565b6000602082840312156200008557600080fd5b600062000095848285016200005b565b91505092915050565b600062ffffff82169050919050565b620000b8816200009e565b8114620000c457600080fd5b50565b60805160e81c613c1d620001106000396000818161030e015281816105f90152818161073201528181610777015281816107f601528181610967015261105f0152613c1d6000f3fe60806040526004361061007b5760003560e01c8063c06adaee1161004e578063c06adaee1461013c578063c95f9d0e1461016c578063e908818914610188578063f31abcc4146101b15761007b565b806341258b5c14610080578063543ad1df146100bd5780637c32fba9146100e85780639a8a059214610111575b600080fd5b34801561008c57600080fd5b506100a760048036038101906100a29190612294565b6101da565b6040516100b49190613229565b60405180910390f35b3480156100c957600080fd5b506100d26101ff565b6040516100df9190613229565b60405180910390f35b3480156100f457600080fd5b5061010f600480360381019061010a91906122f9565b610204565b005b34801561011d57600080fd5b506101266105f7565b604051610133919061320e565b60405180910390f35b610156600480360381019061015191906122f9565b61061b565b6040516101639190612d35565b60405180910390f35b610186600480360381019061018191906123d3565b610c7c565b005b34801561019457600080fd5b506101af60048036038101906101aa919061233a565b610e88565b005b3480156101bd57600080fd5b506101d860048036038101906101d3919061240f565b611323565b005b6001602052816000526040600020602052806000526040600020600091509150505481565b600081565b6002600054141561024a576040517f08c379a000000000000000000000000000000000000000000000000000000000815260040161024190613135565b60405180910390fd5b6002600081905550600061025d82611557565b9050600061027582600261171990919063ffffffff16565b905082604001358160000151146102c1576040517f08c379a00000000000000000000000000000000000000000000000000000000081526004016102b890613015565b60405180910390fd5b82610140013581602001511461030c576040517f08c379a000000000000000000000000000000000000000000000000000000000815260040161030390612f75565b60405180910390fd5b7f000000000000000000000000000000000000000000000000000000000000000062ffffff168360a001602081019061034591906123aa565b62ffffff1614156104545742836101400135106103dd5782602001602081019061036f919061226b565b73ffffffffffffffffffffffffffffffffffffffff163373ffffffffffffffffffffffffffffffffffffffff16146103dc576040517f08c379a00000000000000000000000000000000000000000000000000000000081526004016103d3906130b5565b60405180910390fd5b5b6104108360600160208101906103f3919061226b565b846000016020810190610406919061226b565b85604001356117b3565b61044f576040517f08c379a000000000000000000000000000000000000000000000000000000000815260040161044690612e75565b60405180910390fd5b61059d565b42836101400135106104e157826000016020810190610473919061226b565b73ffffffffffffffffffffffffffffffffffffffff163373ffffffffffffffffffffffffffffffffffffffff16146104e0576040517f08c379a00000000000000000000000000000000000000000000000000000000081526004016104d790612fd5565b60405180910390fd5b5b8260400135600160008560200160208101906104fd919061226b565b73ffffffffffffffffffffffffffffffffffffffff1673ffffffffffffffffffffffffffffffffffffffff168152602001908152602001600020600085608001602081019061054c919061226b565b73ffffffffffffffffffffffffffffffffffffffff1673ffffffffffffffffffffffffffffffffffffffff16815260200190815260200160002060008282546105959190613397565b925050819055505b6105b18260026117e690919063ffffffff16565b7f199deba8a6a6013af443143040bbb1ec3f4313f2db743530e1dc4b0cd40f1b5183336040516105e2929190613197565b60405180910390a15050600160008190555050565b7f000000000000000000000000000000000000000000000000000000000000000081565b600060026000541415610663576040517f08c379a000000000000000000000000000000000000000000000000000000000815260040161065a90613135565b60405180910390fd5b600260008190555060004283610140013561067e91906133ed565b10156106bf576040517f08c379a00000000000000000000000000000000000000000000000000000000081526004016106b690612df5565b60405180910390fd5b8160c00160208101906106d291906123aa565b62ffffff168260a00160208101906106ea91906123aa565b62ffffff161415610730576040517f08c379a000000000000000000000000000000000000000000000000000000000815260040161072790612ed5565b60405180910390fd5b7f000000000000000000000000000000000000000000000000000000000000000062ffffff168260a001602081019061076991906123aa565b62ffffff1614806107b557507f000000000000000000000000000000000000000000000000000000000000000062ffffff168260c00160208101906107ae91906123aa565b62ffffff16145b6107f4576040517f08c379a00000000000000000000000000000000000000000000000000000000081526004016107eb90612e55565b60405180910390fd5b7f000000000000000000000000000000000000000000000000000000000000000062ffffff168260a001602081019061082d91906123aa565b62ffffff16141561094d5761085382606001602081019061084e919061226b565b6119f0565b156108a3578160400135341461089e576040517f08c379a000000000000000000000000000000000000000000000000000000000815260040161089590612f35565b60405180910390fd5b610948565b600034146108e6576040517f08c379a00000000000000000000000000000000000000000000000000000000081526004016108dd90612ff5565b60405180910390fd5b6109088260600160208101906108fc919061226b565b33308560400135611a28565b610947576040517f08c379a000000000000000000000000000000000000000000000000000000000815260040161093e90612db5565b60405180910390fd5b5b610bee565b8160c001602081019061096091906123aa565b62ffffff167f000000000000000000000000000000000000000000000000000000000000000062ffffff16146109cb576040517f08c379a00000000000000000000000000000000000000000000000000000000081526004016109c290612ef5565b60405180910390fd5b8160200160208101906109de919061226b565b73ffffffffffffffffffffffffffffffffffffffff163373ffffffffffffffffffffffffffffffffffffffff1614610a4b576040517f08c379a0000000000000000000000000000000000000000000000000000000008152600401610a4290612dd5565b60405180910390fd5b816040013560016000846020016020810190610a67919061226b565b73ffffffffffffffffffffffffffffffffffffffff1673ffffffffffffffffffffffffffffffffffffffff1681526020019081526020016000206000846080016020810190610ab6919061226b565b73ffffffffffffffffffffffffffffffffffffffff1673ffffffffffffffffffffffffffffffffffffffff168152602001908152602001600020541015610b32576040517f08c379a0000000000000000000000000000000000000000000000000000000008152600401610b29906130d5565b60405180910390fd5b816040013560016000846020016020810190610b4e919061226b565b73ffffffffffffffffffffffffffffffffffffffff1673ffffffffffffffffffffffffffffffffffffffff1681526020019081526020016000206000846080016020810190610b9d919061226b565b73ffffffffffffffffffffffffffffffffffffffff1673ffffffffffffffffffffffffffffffffffffffff1681526020019081526020016000206000828254610be691906133ed565b925050819055505b6000610bf983611557565b9050610c326040518060600160405280856040013581526020018561014001358152602001838152506002611acf90919063ffffffff16565b7f6b8d6a2cec3e696832b71a0098f172d93c793ef03c1e1b93689a626b941d13fc8333604051610c63929190613197565b60405180910390a1809150506001600081905550919050565b60026000541415610cc2576040517f08c379a0000000000000000000000000000000000000000000000000000000008152600401610cb990613135565b60405180910390fd5b6002600081905550610cd3816119f0565b15610d1f57813414610d1a576040517f08c379a0000000000000000000000000000000000000000000000000000000008152600401610d1190613115565b60405180910390fd5b610dae565b60003414610d62576040517f08c379a0000000000000000000000000000000000000000000000000000000008152600401610d5990613055565b60405180910390fd5b610d6e81333085611a28565b610dad576040517f08c379a0000000000000000000000000000000000000000000000000000000008152600401610da490612e35565b60405180910390fd5b5b81600160003373ffffffffffffffffffffffffffffffffffffffff1673ffffffffffffffffffffffffffffffffffffffff16815260200190815260200160002060008373ffffffffffffffffffffffffffffffffffffffff1673ffffffffffffffffffffffffffffffffffffffff1681526020019081526020016000206000828254610e3a9190613397565b925050819055507f9d278c56ba6dc86a12eefe6b43112bd6e06648eb4ec0b950ee2d783d40e2acb4338284604051610e7493929190612c90565b60405180910390a160016000819055505050565b60026000541415610ece576040517f08c379a0000000000000000000000000000000000000000000000000000000008152600401610ec590613135565b60405180910390fd5b60026000819055506000610ee184611557565b90506000610ef982600261171990919063ffffffff16565b90508460400135816000015114610f45576040517f08c379a0000000000000000000000000000000000000000000000000000000008152600401610f3c90613015565b60405180910390fd5b846101400135816020015114610f90576040517f08c379a0000000000000000000000000000000000000000000000000000000008152600401610f8790612f75565b60405180910390fd5b846000016020810190610fa3919061226b565b73ffffffffffffffffffffffffffffffffffffffff166110078386868080601f016020809104026020016040519081016040528093929190818152602001838380828437600081840152601f19601f82011690508083019250505050505050611c02565b73ffffffffffffffffffffffffffffffffffffffff161461105d576040517f08c379a0000000000000000000000000000000000000000000000000000000008152600401611054906130f5565b60405180910390fd5b7f000000000000000000000000000000000000000000000000000000000000000062ffffff168560a001602081019061109691906123aa565b62ffffff161415611161578460400135600160008760200160208101906110bd919061226b565b73ffffffffffffffffffffffffffffffffffffffff1673ffffffffffffffffffffffffffffffffffffffff168152602001908152602001600020600087606001602081019061110c919061226b565b73ffffffffffffffffffffffffffffffffffffffff1673ffffffffffffffffffffffffffffffffffffffff16815260200190815260200160002060008282546111559190613397565b925050819055506112c3565b600067ffffffffffffffff8111156111a2577f4e487b7100000000000000000000000000000000000000000000000000000000600052604160045260246000fd5b6040519080825280601f01601f1916602001820160405280156111d45781602001600182028036833780820191505090505b5080519060200120858061010001906111ed9190613244565b6040516111fb929190612c4b565b604051809103902014156112805761123c85606001602081019061121f919061226b565b8660e0016020810190611232919061226b565b87604001356117b3565b61127b576040517f08c379a000000000000000000000000000000000000000000000000000000000815260040161127290613155565b60405180910390fd5b6112c2565b60006112c1576040517f08c379a00000000000000000000000000000000000000000000000000000000081526004016112b890613095565b60405180910390fd5b5b5b6112d78260026117e690919063ffffffff16565b7f280df9efeebc705987d91447e4d3d8129dc6df8ff02e029459f598e7217981e98585853360405161130c94939291906131c7565b60405180910390a150506001600081905550505050565b60026000541415611369576040517f08c379a000000000000000000000000000000000000000000000000000000000815260040161136090613135565b60405180910390fd5b600260008190555082600160003373ffffffffffffffffffffffffffffffffffffffff1673ffffffffffffffffffffffffffffffffffffffff16815260200190815260200160002060008473ffffffffffffffffffffffffffffffffffffffff1673ffffffffffffffffffffffffffffffffffffffff168152602001908152602001600020541015611430576040517f08c379a000000000000000000000000000000000000000000000000000000000815260040161142790613035565b60405180910390fd5b82600160003373ffffffffffffffffffffffffffffffffffffffff1673ffffffffffffffffffffffffffffffffffffffff16815260200190815260200160002060008473ffffffffffffffffffffffffffffffffffffffff1673ffffffffffffffffffffffffffffffffffffffff16815260200190815260200160002060008282546114bc91906133ed565b925050819055506114ce8282856117b3565b61150d576040517f08c379a000000000000000000000000000000000000000000000000000000000815260040161150490612f55565b60405180910390fd5b7f7da12116be8cb7af4b2d9e9b4a2ca2c3a3243ddd6fd3a94411902367b8eed568338385846040516115429493929190612cc7565b60405180910390a16001600081905550505050565b600080604051806101200160405280846000016020810190611579919061226b565b73ffffffffffffffffffffffffffffffffffffffff1681526020018460200160208101906115a7919061226b565b73ffffffffffffffffffffffffffffffffffffffff1681526020018460600160208101906115d5919061226b565b73ffffffffffffffffffffffffffffffffffffffff168152602001846080016020810190611603919061226b565b73ffffffffffffffffffffffffffffffffffffffff1681526020018460a001602081019061163191906123aa565b62ffffff1681526020018460c001602081019061164e91906123aa565b62ffffff1681526020018460e001602081019061166b919061226b565b73ffffffffffffffffffffffffffffffffffffffff168152602001848061010001906116979190613244565b8080601f016020809104026020016040519081016040528093929190818152602001838380828437600081840152601f19601f8201169050808301925050505050505081526020018461012001358152509050806040516020016116fb9190613175565b60405160208183030381529060405280519060200120915050919050565b611721612163565b61172b8383611ccc565b61176a576040517f08c379a000000000000000000000000000000000000000000000000000000000815260040161176190612e95565b60405180910390fd5b8260000160008381526020019081526020016000206000016040518060600160405290816000820154815260200160018201548152602001600282015481525050905092915050565b60006117be846119f0565b6117d2576117cd848484611d64565b6117dd565b6117dc8383611d7a565b5b90509392505050565b6117ef81611e00565b1561182f576040517f08c379a000000000000000000000000000000000000000000000000000000000815260040161182690612f15565b60405180910390fd5b6118398282611ccc565b611878576040517f08c379a000000000000000000000000000000000000000000000000000000000815260040161186f90612e95565b60405180910390fd5b6000826000016000838152602001908152602001600020600301549050600083600101600185600101805490506118af91906133ed565b815481106118e6577f4e487b7100000000000000000000000000000000000000000000000000000000600052603260045260246000fd5b9060005260206000200154905081846000016000838152602001908152602001600020600301819055508084600101838154811061194d577f4e487b7100000000000000000000000000000000000000000000000000000000600052603260045260246000fd5b9060005260206000200181905550836000016000848152602001908152602001600020600080820160008082016000905560018201600090556002820160009055505060038201600090555050836001018054806119d4577f4e487b7100000000000000000000000000000000000000000000000000000000600052603160045260246000fd5b6001900381819060005260206000200160009055905550505050565b60008073ffffffffffffffffffffffffffffffffffffffff168273ffffffffffffffffffffffffffffffffffffffff16149050919050565b6000611ac585858585604051602401611a4393929190612c90565b6040516020818303038152906040527f23b872dd000000000000000000000000000000000000000000000000000000007bffffffffffffffffffffffffffffffffffffffffffffffffffffffff19166020820180517bffffffffffffffffffffffffffffffffffffffffffffffffffffffff8381831617835250505050611e16565b9050949350505050565b600081604001519050611ae181611e00565b15611b21576040517f08c379a0000000000000000000000000000000000000000000000000000000008152600401611b1890612f15565b60405180910390fd5b611b2b8382611ccc565b15611b6b576040517f08c379a0000000000000000000000000000000000000000000000000000000008152600401611b6290613075565b60405180910390fd5b6040518060400160405280838152602001846001018054905081525083600001600083815260200190815260200160002060008201518160000160008201518160000155602082015181600101556040820151816002015550506020820151816003015590505082600101819080600181540180825580915050600190039060005260206000200160009091909190915055505050565b600080600080604185511415611c2f576020850151925060408501519150606085015160001a9050611cb5565b604085511415611c79576040850151602086015193507f7fffffffffffffffffffffffffffffffffffffffffffffffffffffffffffffff81169250601b8160ff1c01915050611cb4565b6040517f08c379a0000000000000000000000000000000000000000000000000000000008152600401611cab90612e15565b60405180910390fd5b5b611cc186828585611f03565b935050505092915050565b6000611cd782611e00565b158015611cec57506000836001018054905014155b8015611d5c5750611d5b836001018460000160008581526020019081526020016000206003015481548110611d4a577f4e487b7100000000000000000000000000000000000000000000000000000000600052603260045260246000fd5b90600052602060002001548361208e565b5b905092915050565b6000611d7184848461209b565b90509392505050565b60008060008473ffffffffffffffffffffffffffffffffffffffff1684604051611da390612c7b565b60006040518083038185875af1925050503d8060008114611de0576040519150601f19603f3d011682016040523d82523d6000602084013e611de5565b606091505b5091509150611df4828261213f565b60019250505092915050565b6000611e0f826000801b61208e565b9050919050565b6000611e2183612150565b611e60576040517f08c379a0000000000000000000000000000000000000000000000000000000008152600401611e5790612fb5565b60405180910390fd5b6000808473ffffffffffffffffffffffffffffffffffffffff1684604051611e889190612c64565b6000604051808303816000865af19150503d8060008114611ec5576040519150601f19603f3d011682016040523d82523d6000602084013e611eca565b606091505b5091509150611ed9828261213f565b600081511480611ef9575080806020019051810190611ef891906122d0565b5b9250505092915050565b60007f7fffffffffffffffffffffffffffffff5d576e7357a4501ddfe92f46681b20a08260001c1115611f6b576040517f08c379a0000000000000000000000000000000000000000000000000000000008152600401611f6290612eb5565b60405180910390fd5b601b8460ff161480611f805750601c8460ff16145b611fbf576040517f08c379a0000000000000000000000000000000000000000000000000000000008152600401611fb690612f95565b60405180910390fd5b600060018686868660405160008152602001604052604051611fe49493929190612d50565b6020604051602081039080840390855afa158015612006573d6000803e3d6000fd5b505050602060405103519050600073ffffffffffffffffffffffffffffffffffffffff168173ffffffffffffffffffffffffffffffffffffffff161415612082576040517f08c379a000000000000000000000000000000000000000000000000000000000815260040161207990612d95565b60405180910390fd5b80915050949350505050565b6000818314905092915050565b60006121368484846040516024016120b4929190612d0c565b6040516020818303038152906040527fa9059cbb000000000000000000000000000000000000000000000000000000007bffffffffffffffffffffffffffffffffffffffffffffffffffffffff19166020820180517bffffffffffffffffffffffffffffffffffffffffffffffffffffffff8381831617835250505050611e16565b90509392505050565b8161214c57805160208201fd5b5050565b600080823b905060008111915050919050565b60405180606001604052806000815260200160008152602001600080191681525090565b60008135905061219681613b5d565b92915050565b6000813590506121ab81613b74565b92915050565b6000815190506121c081613b8b565b92915050565b6000813590506121d581613ba2565b92915050565b60008083601f8401126121ed57600080fd5b8235905067ffffffffffffffff81111561220657600080fd5b60208301915083600182028301111561221e57600080fd5b9250929050565b6000610160828403121561223857600080fd5b81905092915050565b60008135905061225081613bb9565b92915050565b60008135905061226581613bd0565b92915050565b60006020828403121561227d57600080fd5b600061228b84828501612187565b91505092915050565b600080604083850312156122a757600080fd5b60006122b585828601612187565b92505060206122c685828601612187565b9150509250929050565b6000602082840312156122e257600080fd5b60006122f0848285016121b1565b91505092915050565b60006020828403121561230b57600080fd5b600082013567ffffffffffffffff81111561232557600080fd5b61233184828501612225565b91505092915050565b60008060006040848603121561234f57600080fd5b600084013567ffffffffffffffff81111561236957600080fd5b61237586828701612225565b935050602084013567ffffffffffffffff81111561239257600080fd5b61239e868287016121db565b92509250509250925092565b6000602082840312156123bc57600080fd5b60006123ca84828501612241565b91505092915050565b600080604083850312156123e657600080fd5b60006123f485828601612256565b925050602061240585828601612187565b9150509250929050565b60008060006060848603121561242457600080fd5b600061243286828701612256565b935050602061244386828701612187565b92505060406124548682870161219c565b9150509250925092565b612467816134a1565b82525050565b61247681613421565b82525050565b61248581613421565b82525050565b61249481613451565b82525050565b6124a381613451565b82525050565b60006124b583856132a6565b93506124c28385846134d7565b6124cb83613548565b840190509392505050565b60006124e283856132b7565b93506124ef8385846134d7565b6124f883613548565b840190509392505050565b600061250f83856132c8565b935061251c8385846134d7565b82840190509392505050565b60006125338261329b565b61253d81856132a6565b935061254d8185602086016134e6565b61255681613548565b840191505092915050565b600061256c8261329b565b61257681856132c8565b93506125868185602086016134e6565b80840191505092915050565b600061259f6018836132d3565b91506125aa82613559565b602082019050919050565b60006125c2601e836132d3565b91506125cd82613582565b602082019050919050565b60006125e56018836132d3565b91506125f0826135ab565b602082019050919050565b60006126086018836132d3565b9150612613826135d4565b602082019050919050565b600061262b601f836132d3565b9150612636826135fd565b602082019050919050565b600061264e6023836132d3565b915061265982613626565b604082019050919050565b60006126716019836132d3565b915061267c82613675565b602082019050919050565b60006126946017836132d3565b915061269f8261369e565b602082019050919050565b60006126b76024836132d3565b91506126c2826136c7565b604082019050919050565b60006126da6022836132d3565b91506126e582613716565b604082019050919050565b60006126fd6016836132d3565b915061270882613765565b602082019050919050565b60006127206020836132d3565b915061272b8261378e565b602082019050919050565b60006127436020836132d3565b915061274e826137b7565b602082019050919050565b60006127666017836132d3565b9150612771826137e0565b602082019050919050565b60006127896020836132d3565b915061279482613809565b602082019050919050565b60006127ac6016836132d3565b91506127b782613832565b602082019050919050565b60006127cf6022836132d3565b91506127da8261385b565b604082019050919050565b60006127f26011836132d3565b91506127fd826138aa565b602082019050919050565b60006128156018836132d3565b9150612820826138d3565b602082019050919050565b6000612838601e836132d3565b9150612843826138fc565b602082019050919050565b600061285b6016836132d3565b915061286682613925565b602082019050919050565b600061287e6023836132d3565b91506128898261394e565b604082019050919050565b60006128a16023836132d3565b91506128ac8261399d565b604082019050919050565b60006128c46028836132d3565b91506128cf826139ec565b604082019050919050565b60006128e7601e836132d3565b91506128f282613a3b565b602082019050919050565b600061290a6000836132c8565b915061291582613a64565b600082019050919050565b600061292d601a836132d3565b915061293882613a67565b602082019050919050565b6000612950601f836132d3565b915061295b82613a90565b602082019050919050565b6000612973601a836132d3565b915061297e82613ab9565b602082019050919050565b6000612996601c836132d3565b91506129a182613ae2565b602082019050919050565b60006129b9601f836132d3565b91506129c482613b0b565b602082019050919050565b60006129dc6018836132d3565b91506129e782613b34565b602082019050919050565b600061012083016000830151612a0b600086018261246d565b506020830151612a1e602086018261246d565b506040830151612a31604086018261246d565b506060830151612a44606086018261246d565b506080830151612a576080860182612c00565b5060a0830151612a6a60a0860182612c00565b5060c0830151612a7d60c086018261246d565b5060e083015184820360e0860152612a958282612528565b915050610100830151612aac61010086018261248b565b508091505092915050565b60006101608301612acb60008401846132e4565b612ad8600086018261246d565b50612ae660208401846132e4565b612af3602086018261246d565b50612b016040840184613380565b612b0e6040860182612c1e565b50612b1c60608401846132e4565b612b29606086018261246d565b50612b3760808401846132e4565b612b44608086018261246d565b50612b5260a0840184613369565b612b5f60a0860182612c00565b50612b6d60c0840184613369565b612b7a60c0860182612c00565b50612b8860e08401846132e4565b612b9560e086018261246d565b50612ba4610100840184613312565b858303610100870152612bb88382846124a9565b92505050612bca6101208401846132fb565b612bd861012086018261248b565b50612be7610140840184613380565b612bf5610140860182612c1e565b508091505092915050565b612c098161347b565b82525050565b612c188161347b565b82525050565b612c278161348a565b82525050565b612c368161348a565b82525050565b612c4581613494565b82525050565b6000612c58828486612503565b91508190509392505050565b6000612c708284612561565b915081905092915050565b6000612c86826128fd565b9150819050919050565b6000606082019050612ca5600083018661247c565b612cb2602083018561247c565b612cbf6040830184612c2d565b949350505050565b6000608082019050612cdc600083018761247c565b612ce9602083018661247c565b612cf66040830185612c2d565b612d03606083018461245e565b95945050505050565b6000604082019050612d21600083018561247c565b612d2e6020830184612c2d565b9392505050565b6000602082019050612d4a600083018461249a565b92915050565b6000608082019050612d65600083018761249a565b612d726020830186612c3c565b612d7f604083018561249a565b612d8c606083018461249a565b95945050505050565b60006020820190508181036000830152612dae81612592565b9050919050565b60006020820190508181036000830152612dce816125b5565b9050919050565b60006020820190508181036000830152612dee816125d8565b9050919050565b60006020820190508181036000830152612e0e816125fb565b9050919050565b60006020820190508181036000830152612e2e8161261e565b9050919050565b60006020820190508181036000830152612e4e81612641565b9050919050565b60006020820190508181036000830152612e6e81612664565b9050919050565b60006020820190508181036000830152612e8e81612687565b9050919050565b60006020820190508181036000830152612eae816126aa565b9050919050565b60006020820190508181036000830152612ece816126cd565b9050919050565b60006020820190508181036000830152612eee816126f0565b9050919050565b60006020820190508181036000830152612f0e81612713565b9050919050565b60006020820190508181036000830152612f2e81612736565b9050919050565b60006020820190508181036000830152612f4e81612759565b9050919050565b60006020820190508181036000830152612f6e8161277c565b9050919050565b60006020820190508181036000830152612f8e8161279f565b9050919050565b60006020820190508181036000830152612fae816127c2565b9050919050565b60006020820190508181036000830152612fce816127e5565b9050919050565b60006020820190508181036000830152612fee81612808565b9050919050565b6000602082019050818103600083015261300e8161282b565b9050919050565b6000602082019050818103600083015261302e8161284e565b9050919050565b6000602082019050818103600083015261304e81612871565b9050919050565b6000602082019050818103600083015261306e81612894565b9050919050565b6000602082019050818103600083015261308e816128b7565b9050919050565b600060208201905081810360008301526130ae816128da565b9050919050565b600060208201905081810360008301526130ce81612920565b9050919050565b600060208201905081810360008301526130ee81612943565b9050919050565b6000602082019050818103600083015261310e81612966565b9050919050565b6000602082019050818103600083015261312e81612989565b9050919050565b6000602082019050818103600083015261314e816129ac565b9050919050565b6000602082019050818103600083015261316e816129cf565b9050919050565b6000602082019050818103600083015261318f81846129f2565b905092915050565b600060408201905081810360008301526131b18185612ab7565b90506131c0602083018461247c565b9392505050565b600060608201905081810360008301526131e18187612ab7565b905081810360208301526131f68185876124d6565b9050613205604083018461247c565b95945050505050565b60006020820190506132236000830184612c0f565b92915050565b600060208201905061323e6000830184612c2d565b92915050565b6000808335600160200384360303811261325d57600080fd5b80840192508235915067ffffffffffffffff82111561327b57600080fd5b60208301925060018202360383131561329357600080fd5b509250929050565b600081519050919050565b600082825260208201905092915050565b600082825260208201905092915050565b600081905092915050565b600082825260208201905092915050565b60006132f36020840184612187565b905092915050565b600061330a60208401846121c6565b905092915050565b6000808335600160200384360303811261332b57600080fd5b83810192508235915060208301925067ffffffffffffffff82111561334f57600080fd5b60018202360384131561336157600080fd5b509250929050565b60006133786020840184612241565b905092915050565b600061338f6020840184612256565b905092915050565b60006133a28261348a565b91506133ad8361348a565b9250827fffffffffffffffffffffffffffffffffffffffffffffffffffffffffffffffff038211156133e2576133e1613519565b5b828201905092915050565b60006133f88261348a565b91506134038361348a565b92508282101561341657613415613519565b5b828203905092915050565b600061342c8261345b565b9050919050565b600061343e8261345b565b9050919050565b60008115159050919050565b6000819050919050565b600073ffffffffffffffffffffffffffffffffffffffff82169050919050565b600062ffffff82169050919050565b6000819050919050565b600060ff82169050919050565b60006134ac826134b3565b9050919050565b60006134be826134c5565b9050919050565b60006134d08261345b565b9050919050565b82818337600083830152505050565b60005b838110156135045780820151818401526020810190506134e9565b83811115613513576000848401525b50505050565b7f4e487b7100000000000000000000000000000000000000000000000000000000600052601160045260246000fd5b6000601f19601f8301169050919050565b7f45434453413a20696e76616c6964207369676e61747572650000000000000000600082015250565b7f707265706172653a2045524332305f5452414e534645525f4641494c45440000600082015250565b7f707265706172653a20524f555445525f4d49534d415443480000000000000000600082015250565b7f707265706172653a2054494d454f55545f544f4f5f4c4f570000000000000000600082015250565b7f45434453413a20696e76616c6964207369676e6174757265206c656e67746800600082015250565b7f6164644c69717569646974793a2045524332305f5452414e534645525f46414960008201527f4c45440000000000000000000000000000000000000000000000000000000000602082015250565b7f707265706172653a20494e56414c49445f434841494e49445300000000000000600082015250565b7f63616e63656c3a205452414e534645525f4641494c4544000000000000000000600082015250565b7f4c69624974657261626c654d617070696e673a204449474553545f4e4f545f4660008201527f4f554e4400000000000000000000000000000000000000000000000000000000602082015250565b7f45434453413a20696e76616c6964207369676e6174757265202773272076616c60008201527f7565000000000000000000000000000000000000000000000000000000000000602082015250565b7f707265706172653a2053414d455f434841494e49445300000000000000000000600082015250565b7f707265706172653a20494e56414c49445f524543454956494e475f434841494e600082015250565b7f4c69624974657261626c654d617070696e673a20454d5054595f444947455354600082015250565b7f707265706172653a2056414c55455f4d49534d41544348000000000000000000600082015250565b7f72656d6f76654c69717569646974793a205452414e534645525f4641494c4544600082015250565b7f63616e63656c3a20494e56414c49445f45585049525900000000000000000000600082015250565b7f45434453413a20696e76616c6964207369676e6174757265202776272076616c60008201527f7565000000000000000000000000000000000000000000000000000000000000602082015250565b7f4c696245524332303a204e4f5f434f4445000000000000000000000000000000600082015250565b7f63616e63656c3a20555345525f4d5553545f43414e43454c0000000000000000600082015250565b7f707265706172653a204554485f574954485f4552435f5452414e534645520000600082015250565b7f63616e63656c3a20494e56414c49445f414d4f554e5400000000000000000000600082015250565b7f72656d6f76654c69717569646974793a20494e53554646494349454e545f465560008201527f4e44530000000000000000000000000000000000000000000000000000000000602082015250565b7f6164644c69717569646974793a204554485f574954485f4552435f5452414e5360008201527f4645520000000000000000000000000000000000000000000000000000000000602082015250565b7f4c69624974657261626c654d617070696e673a204449474553545f414c52454160008201527f44595f4144444544000000000000000000000000000000000000000000000000602082015250565b7f66756c66696c6c3a20616464206d756c746963616c6c207061747465726e0000600082015250565b50565b7f63616e63656c3a20524f555445525f4d5553545f43414e43454c000000000000600082015250565b7f707265706172653a20494e53554646494349454e545f4c495155494449545900600082015250565b7f66756c66696c6c3a20494e56414c49445f5349474e4154555245000000000000600082015250565b7f6164644c69717569646974793a2056414c55455f4d49534d4154434800000000600082015250565b7f5265656e7472616e637947756172643a207265656e7472616e742063616c6c00600082015250565b7f66756c66696c6c3a205452414e534645525f4641494c45440000000000000000600082015250565b613b6681613421565b8114613b7157600080fd5b50565b613b7d81613433565b8114613b8857600080fd5b50565b613b9481613445565b8114613b9f57600080fd5b50565b613bab81613451565b8114613bb657600080fd5b50565b613bc28161347b565b8114613bcd57600080fd5b50565b613bd98161348a565b8114613be457600080fd5b5056fea26469706673582212203b4335ca71ff1c0b4c1e2be0f0d368826d387540e2a0fd07a4449ede10db037664736f6c63430008040033",
  "linkReferences": {},
  "deployedLinkReferences": {}
}