{
  "address": "0x17455fCfc43b22BE07EE5Ff4b177b7Ab6bA4b8d5",
  "abi": [
    {
      "inputs": [],
      "name": "ProposedOwnable__acceptProposedOwner_delayNotElapsed",
      "type": "error"
    },
    {
      "inputs": [],
      "name": "ProposedOwnable__onlyOwner_notOwner",
      "type": "error"
    },
    {
      "inputs": [],
      "name": "ProposedOwnable__onlyProposed_notProposedOwner",
      "type": "error"
    },
    {
      "inputs": [],
      "name": "ProposedOwnable__proposeNewOwner_invalidProposal",
      "type": "error"
    },
    {
      "inputs": [],
      "name": "ProposedOwnable__proposeNewOwner_noOwnershipChange",
      "type": "error"
    },
    {
      "inputs": [],
      "name": "ProposedOwnable__renounceOwnership_delayNotElapsed",
      "type": "error"
    },
    {
      "inputs": [],
      "name": "ProposedOwnable__renounceOwnership_invalidProposal",
      "type": "error"
    },
    {
      "inputs": [],
      "name": "ProposedOwnable__renounceOwnership_noProposal",
      "type": "error"
    },
    {
      "anonymous": false,
      "inputs": [
        {
          "indexed": false,
          "internalType": "uint8",
          "name": "version",
          "type": "uint8"
        }
      ],
      "name": "Initialized",
      "type": "event"
    },
    {
      "anonymous": false,
      "inputs": [
        {
          "indexed": true,
          "internalType": "address",
          "name": "proposedOwner",
          "type": "address"
        }
      ],
      "name": "OwnershipProposed",
      "type": "event"
    },
    {
      "anonymous": false,
      "inputs": [
        {
          "indexed": true,
          "internalType": "address",
          "name": "previousOwner",
          "type": "address"
        },
        {
          "indexed": true,
          "internalType": "address",
          "name": "newOwner",
          "type": "address"
        }
      ],
      "name": "OwnershipTransferred",
      "type": "event"
    },
    {
      "anonymous": false,
      "inputs": [
        {
          "indexed": true,
          "internalType": "uint64",
          "name": "originAndNonce",
          "type": "uint64"
        },
        {
          "indexed": true,
          "internalType": "address",
          "name": "token",
          "type": "address"
        },
        {
          "indexed": true,
          "internalType": "address",
          "name": "recipient",
          "type": "address"
        },
        {
          "indexed": false,
          "internalType": "address",
          "name": "liquidityProvider",
          "type": "address"
        },
        {
          "indexed": false,
          "internalType": "uint256",
          "name": "amount",
          "type": "uint256"
        }
      ],
      "name": "Receive",
      "type": "event"
    },
    {
      "anonymous": false,
      "inputs": [
        {
          "indexed": true,
          "internalType": "address",
          "name": "token",
          "type": "address"
        },
        {
          "indexed": true,
          "internalType": "address",
          "name": "from",
          "type": "address"
        },
        {
          "indexed": true,
          "internalType": "uint32",
          "name": "toDomain",
          "type": "uint32"
        },
        {
          "indexed": false,
          "internalType": "bytes32",
          "name": "toId",
          "type": "bytes32"
        },
        {
          "indexed": false,
          "internalType": "uint256",
          "name": "amount",
          "type": "uint256"
        },
        {
          "indexed": false,
          "internalType": "bool",
          "name": "toHook",
          "type": "bool"
        }
      ],
      "name": "Send",
      "type": "event"
    },
    {
      "inputs": [],
      "name": "DUST_AMOUNT",
      "outputs": [
        {
          "internalType": "uint256",
          "name": "",
          "type": "uint256"
        }
      ],
      "stateMutability": "view",
      "type": "function"
    },
    {
      "inputs": [],
      "name": "acceptProposedOwner",
      "outputs": [],
      "stateMutability": "nonpayable",
      "type": "function"
    },
    {
      "inputs": [],
      "name": "delay",
      "outputs": [
        {
          "internalType": "uint256",
          "name": "",
          "type": "uint256"
        }
      ],
      "stateMutability": "view",
      "type": "function"
    },
    {
      "inputs": [
        {
          "internalType": "uint32",
          "name": "_domain",
          "type": "uint32"
        },
        {
          "internalType": "bytes32",
          "name": "_id",
          "type": "bytes32"
        },
        {
          "internalType": "address",
          "name": "_custom",
          "type": "address"
        }
      ],
      "name": "enrollCustom",
      "outputs": [],
      "stateMutability": "nonpayable",
      "type": "function"
    },
    {
      "inputs": [
        {
          "internalType": "uint32",
          "name": "_domain",
          "type": "uint32"
        },
        {
          "internalType": "bytes32",
          "name": "_router",
          "type": "bytes32"
        }
      ],
      "name": "enrollRemoteRouter",
      "outputs": [],
      "stateMutability": "nonpayable",
      "type": "function"
    },
    {
      "inputs": [
        {
          "internalType": "uint32",
          "name": "_origin",
          "type": "uint32"
        },
        {
          "internalType": "uint32",
          "name": "_nonce",
          "type": "uint32"
        },
        {
          "internalType": "bytes32",
          "name": "_sender",
          "type": "bytes32"
        },
        {
          "internalType": "bytes",
          "name": "_message",
          "type": "bytes"
        }
      ],
      "name": "handle",
      "outputs": [],
      "stateMutability": "nonpayable",
      "type": "function"
    },
    {
      "inputs": [
        {
          "internalType": "address",
          "name": "_tokenRegistry",
          "type": "address"
        },
        {
          "internalType": "address",
          "name": "_xAppConnectionManager",
          "type": "address"
        }
      ],
      "name": "initialize",
      "outputs": [],
      "stateMutability": "nonpayable",
      "type": "function"
    },
    {
      "inputs": [
        {
          "internalType": "bytes32",
          "name": "",
          "type": "bytes32"
        }
      ],
      "name": "liquidityProvider",
      "outputs": [
        {
          "internalType": "address",
          "name": "",
          "type": "address"
        }
      ],
      "stateMutability": "view",
      "type": "function"
    },
    {
      "inputs": [
        {
          "internalType": "address",
          "name": "_oldRepr",
          "type": "address"
        }
      ],
      "name": "migrate",
      "outputs": [],
      "stateMutability": "nonpayable",
      "type": "function"
    },
    {
      "inputs": [],
      "name": "owner",
      "outputs": [
        {
          "internalType": "address",
          "name": "",
          "type": "address"
        }
      ],
      "stateMutability": "view",
      "type": "function"
    },
    {
      "inputs": [
        {
          "internalType": "address",
          "name": "newlyProposed",
          "type": "address"
        }
      ],
      "name": "proposeNewOwner",
      "outputs": [],
      "stateMutability": "nonpayable",
      "type": "function"
    },
    {
      "inputs": [],
      "name": "proposed",
      "outputs": [
        {
          "internalType": "address",
          "name": "",
          "type": "address"
        }
      ],
      "stateMutability": "view",
      "type": "function"
    },
    {
      "inputs": [],
      "name": "proposedTimestamp",
      "outputs": [
        {
          "internalType": "uint256",
          "name": "",
          "type": "uint256"
        }
      ],
      "stateMutability": "view",
      "type": "function"
    },
    {
      "inputs": [
        {
          "internalType": "uint32",
          "name": "",
          "type": "uint32"
        }
      ],
      "name": "remotes",
      "outputs": [
        {
          "internalType": "bytes32",
          "name": "",
          "type": "bytes32"
        }
      ],
      "stateMutability": "view",
      "type": "function"
    },
    {
      "inputs": [],
      "name": "renounceOwnership",
      "outputs": [],
      "stateMutability": "nonpayable",
      "type": "function"
    },
    {
      "inputs": [],
      "name": "renounced",
      "outputs": [
        {
          "internalType": "bool",
          "name": "",
          "type": "bool"
        }
      ],
      "stateMutability": "view",
      "type": "function"
    },
    {
      "inputs": [
        {
          "internalType": "address",
          "name": "_token",
          "type": "address"
        },
        {
          "internalType": "uint256",
          "name": "_amount",
          "type": "uint256"
        },
        {
          "internalType": "uint32",
          "name": "_destination",
          "type": "uint32"
        },
        {
          "internalType": "bytes32",
          "name": "_recipient",
          "type": "bytes32"
        },
        {
          "internalType": "bool",
          "name": "",
          "type": "bool"
        }
      ],
      "name": "send",
      "outputs": [],
      "stateMutability": "nonpayable",
      "type": "function"
    },
    {
      "inputs": [
        {
          "internalType": "address",
          "name": "_token",
          "type": "address"
        },
        {
          "internalType": "uint256",
          "name": "_amount",
          "type": "uint256"
        },
        {
          "internalType": "uint32",
          "name": "_destination",
          "type": "uint32"
        },
        {
          "internalType": "bytes32",
          "name": "_remoteHook",
          "type": "bytes32"
        },
        {
          "internalType": "bytes",
          "name": "_extraData",
          "type": "bytes"
        }
      ],
      "name": "sendToHook",
      "outputs": [
        {
          "internalType": "bytes32",
          "name": "",
          "type": "bytes32"
        }
      ],
      "stateMutability": "nonpayable",
      "type": "function"
    },
    {
      "inputs": [
        {
          "internalType": "address",
          "name": "_xAppConnectionManager",
          "type": "address"
        }
      ],
      "name": "setXAppConnectionManager",
      "outputs": [],
      "stateMutability": "nonpayable",
      "type": "function"
    },
    {
      "inputs": [],
      "name": "tokenRegistry",
      "outputs": [
        {
          "internalType": "contract ITokenRegistry",
          "name": "",
          "type": "address"
        }
      ],
      "stateMutability": "view",
      "type": "function"
    },
    {
      "inputs": [],
      "name": "xAppConnectionManager",
      "outputs": [
        {
          "internalType": "contract IConnectorManager",
          "name": "",
          "type": "address"
        }
      ],
      "stateMutability": "view",
      "type": "function"
    },
    {
      "stateMutability": "payable",
      "type": "receive"
    }
  ],
  "transactionHash": "0x0f3c5c9aa0cf3930fe172c613810d8beb02627a72c1a74acf9ca8a22bc752dcf",
  "args": [],
  "numDeployments": 2,
  "solcInputHash": "cd3909b11f0b53138f35dc7cc1c054f8",
  "bytecode": "0x608060405234801561001057600080fd5b5061335a806100206000396000f3fe60806040526004361061012e5760003560e01c806397f641ab116100ab578063b49c53a71161006f578063b49c53a714610345578063bc7dbab314610365578063c5b350df14610385578063ce5494bb1461039a578063d1851c92146103ba578063d232c220146103d857600080fd5b806397f641ab146102aa5780639d23c4c7146102c5578063a9bd1226146102e5578063ab2dc3f514610305578063b1f8100d1461032557600080fd5b8063546d573d116100f2578063546d573d146101f85780636a42b8f81461022e578063715018a61461024457806383bbb806146102595780638da5cb5b1461028657600080fd5b806328b1aea01461013a5780633339df961461015c5780633cf52ffb1461019957806341bdc8b5146101b8578063485cc955146101d857600080fd5b3661013557005b600080fd5b34801561014657600080fd5b5061015a610155366004612a65565b61040e565b005b34801561016857600080fd5b5060345461017c906001600160a01b031681565b6040516001600160a01b0390911681526020015b60405180910390f35b3480156101a557600080fd5b506002545b604051908152602001610190565b3480156101c457600080fd5b5061015a6101d3366004612aa7565b610576565b3480156101e457600080fd5b5061015a6101f3366004612ac4565b6105c9565b34801561020457600080fd5b5061017c610213366004612afd565b6099602052600090815260409020546001600160a01b031681565b34801561023a57600080fd5b5062093a806101aa565b34801561025057600080fd5b5061015a6106ba565b34801561026557600080fd5b506101aa610274366004612b16565b60666020526000908152604090205481565b34801561029257600080fd5b506000546201000090046001600160a01b031661017c565b3480156102b657600080fd5b506101aa66d529ae9e86000081565b3480156102d157600080fd5b5060985461017c906001600160a01b031681565b3480156102f157600080fd5b5061015a610300366004612b41565b6106ed565b34801561031157600080fd5b5061015a610320366004612c0f565b6107be565b34801561033157600080fd5b5061015a610340366004612aa7565b610911565b34801561035157600080fd5b5061015a610360366004612cbe565b6109c5565b34801561037157600080fd5b506101aa610380366004612cea565b610a0f565b34801561039157600080fd5b5061015a610aee565b3480156103a657600080fd5b5061015a6103b5366004612aa7565b610b5e565b3480156103c657600080fd5b506001546001600160a01b031661017c565b3480156103e457600080fd5b506103fe6000546201000090046001600160a01b03161590565b6040519015158152602001610190565b6000546201000090046001600160a01b0316331461043f576040516311a8a1bb60e31b815260040160405180910390fd5b6040516340c10f1960e01b8152306004820152600160248201526001600160a01b038216906340c10f1990604401600060405180830381600087803b15801561048757600080fd5b505af115801561049b573d6000803e3d6000fd5b5050604051632770a7eb60e21b8152306004820152600160248201526001600160a01b0384169250639dc29fac9150604401600060405180830381600087803b1580156104e757600080fd5b505af11580156104fb573d6000803e3d6000fd5b50506098546040516301458d7560e51b815263ffffffff87166004820152602481018690526001600160a01b03858116604483015290911692506328b1aea09150606401600060405180830381600087803b15801561055957600080fd5b505af115801561056d573d6000803e3d6000fd5b50505050505050565b6000546201000090046001600160a01b031633146105a7576040516311a8a1bb60e31b815260040160405180910390fd5b603480546001600160a01b0319166001600160a01b0392909216919091179055565b600054610100900460ff16158080156105e95750600054600160ff909116105b806106035750303b158015610603575060005460ff166001145b6106285760405162461bcd60e51b815260040161061f90612d94565b60405180910390fd5b6000805460ff19166001179055801561064b576000805461ff0019166101001790555b609880546001600160a01b0319166001600160a01b03851617905561066f82610d54565b80156106b5576000805461ff0019169055604051600181527f7f26b83ff96e1f2b6a682f133852f6798a09c465da95921460cefb38474024989060200160405180910390a15b505050565b6000546201000090046001600160a01b031633146106eb576040516311a8a1bb60e31b815260040160405180910390fd5b565b816107235760405162461bcd60e51b815260206004820152600660248201526502172656369760d41b604482015260640161061f565b600080600061073188610e3a565b925092509250610742888883611108565b600061074f86898561116f565b905061075c8785836111ad565b5060408051878152602081018a9052600081830152905163ffffffff89169133916001600160a01b038d16917fa3d219cf126a12be40d7ad1ceef46231c987988dd4e686457b610e1b6b80a4bf919081900360600190a4505050505050505050565b6107c7336112b6565b6107fe5760405162461bcd60e51b8152602060048201526008602482015267217265706c69636160c01b604482015260640161061f565b838261080a828261132b565b6108475760405162461bcd60e51b815260206004820152600e60248201526d10b932b6b7ba32903937baba32b960911b604482015260640161061f565b60006108616108568583611352565b62ffffff191661136d565b9050600061087462ffffff198316611386565b9050600061088762ffffff1984166113bf565b905061089862ffffff198216611417565b156108ae576108a989898484611424565b610906565b6108bd62ffffff198216611455565b156108ce576108a989898484611462565b60405162461bcd60e51b815260206004820152600d60248201526c10bb30b634b21030b1ba34b7b760991b604482015260640161061f565b505050505050505050565b6000546201000090046001600160a01b03163314610942576040516311a8a1bb60e31b815260040160405180910390fd5b6001546001600160a01b03828116911614801561096757506001600160a01b03811615155b15610985576040516311bc066560e11b815260040160405180910390fd5b6000546001600160a01b038083166201000090920416036109b957604051634a2fb73f60e11b815260040160405180910390fd5b6109c28161159c565b50565b6000546201000090046001600160a01b031633146109f6576040516311a8a1bb60e31b815260040160405180910390fd5b63ffffffff909116600090815260666020526040902055565b600080600080610a1e8a610e3a565b925092509250610a2f8a8a83611108565b6000610a74888b85338b8b8080601f0160208091040260200160405190810160405280939291908181526020018383808284376000920191909152506115ea92505050565b90506000610a838a86846111ad565b604080518b8152602081018e905260019181019190915290915063ffffffff8b169033906001600160a01b038f16907fa3d219cf126a12be40d7ad1ceef46231c987988dd4e686457b610e1b6b80a4bf9060600160405180910390a49b9a5050505050505050505050565b6001546001600160a01b03163314610b19576040516311a7f27160e11b815260040160405180910390fd5b62093a8060025442610b2b9190612df8565b11610b495760405163d39c12bb60e01b815260040160405180910390fd5b6001546106eb906001600160a01b031661160c565b609854604051630e71e25160e01b81526001600160a01b0383811660048301526000921690630e71e25190602401602060405180830381865afa158015610ba9573d6000803e3d6000fd5b505050506040513d601f19601f82011682018060405250810190610bcd9190612e0f565b9050816001600160a01b0316816001600160a01b031603610c1d5760405162461bcd60e51b815260206004820152600a60248201526908591a5999995c995b9d60b21b604482015260640161061f565b6040516370a0823160e01b815233600482015282906000906001600160a01b038316906370a0823190602401602060405180830381865afa158015610c66573d6000803e3d6000fd5b505050506040513d601f19601f82011682018060405250810190610c8a9190612e2c565b604051632770a7eb60e21b8152336004820152602481018290529091506001600160a01b03831690639dc29fac90604401600060405180830381600087803b158015610cd557600080fd5b505af1158015610ce9573d6000803e3d6000fd5b50506040516340c10f1960e01b8152336004820152602481018490526001600160a01b03861692506340c10f1991506044015b600060405180830381600087803b158015610d3657600080fd5b505af1158015610d4a573d6000803e3d6000fd5b5050505050505050565b600054610100900460ff1615808015610d745750600054600160ff909116105b80610d8e5750303b158015610d8e575060005460ff166001145b610daa5760405162461bcd60e51b815260040161061f90612d94565b6000805460ff191660011790558015610dcd576000805461ff0019166101001790555b603480546001600160a01b0319166001600160a01b038416179055610df061167c565b8015610e36576000805461ff0019169055604051600181527f7f26b83ff96e1f2b6a682f133852f6798a09c465da95921460cefb38474024989060200160405180910390a15b5050565b6098546040516378a9bb4360e11b81526001600160a01b038381166004830152600092839283928392839291169063f1537686906024016040805180830381865afa158015610e8d573d6000803e3d6000fd5b505050506040513d601f19601f82011682018060405250810190610eb19190612e45565b91509150610ebf82826116ab565b94506001600160a01b038616610ede5750600092508291506111019050565b60985460405163c86415cb60e01b81526001600160a01b0380891660048301528892169063c86415cb90602401602060405180830381865afa158015610f28573d6000803e3d6000fd5b505050506040513d601f19601f82011682018060405250810190610f4c9190612e73565b1561109457611089816001600160a01b03166306fdde036040518163ffffffff1660e01b81526004016000604051808303816000875af1158015610f94573d6000803e3d6000fd5b505050506040513d6000823e601f3d908101601f19168201604052610fbc9190810190612ebc565b826001600160a01b03166395d89b416040518163ffffffff1660e01b8152600401600060405180830381865afa158015610ffa573d6000803e3d6000fd5b505050506040513d6000823e601f3d908101601f191682016040526110229190810190612ebc565b836001600160a01b031663313ce5676040518163ffffffff1660e01b8152600401602060405180830381865afa158015611060573d6000803e3d6000fd5b505050506040513d601f19601f820116820180604052508101906110849190612f2a565b6116d8565b9450600193506110fd565b806001600160a01b0316634815fcb16040518163ffffffff1660e01b8152600401602060405180830381865afa1580156110d2573d6000803e3d6000fd5b505050506040513d601f19601f820116820180604052508101906110f69190612e2c565b9450600093505b5050505b9193909250565b8160000361111557505050565b828115611136576111316001600160a01b038516333086611714565b611169565b604051632770a7eb60e21b8152336004820152602481018490526001600160a01b03821690639dc29fac90604401610d1c565b50505050565b60006111a360038086868660405160200161118d9493929190612f88565b60408051601f1981840301815291905290611352565b90505b9392505050565b6000806111b98561177f565b9050603460009054906101000a90046001600160a01b03166001600160a01b0316639fa92f9d6040518163ffffffff1660e01b8152600401602060405180830381865afa15801561120e573d6000803e3d6000fd5b505050506040513d601f19601f820116820180604052508101906112329190612e0f565b6001600160a01b031663fa31de01868361124c88886117d1565b6040518463ffffffff1660e01b815260040161126a93929190612fdb565b6020604051808303816000875af1158015611289573d6000803e3d6000fd5b505050506040513d601f19601f820116820180604052508101906112ad9190612e2c565b95945050505050565b603454604051635190bc5360e01b81526001600160a01b0383811660048301526000921690635190bc5390602401602060405180830381865afa158015611301573d6000803e3d6000fd5b505050506040513d601f19601f820116820180604052508101906113259190612e73565b92915050565b63ffffffff8216600090815260666020526040812054821480156111a65750501515919050565b8151600090602084016112ad64ffffffffff851682846118a0565b600061132561137b836118e5565b62ffffff1916611917565b600081600261139d815b62ffffff19841690611972565b506113b76000602460015b62ffffff198816929190611a4b565b949350505050565b60008160026113cd81611390565b5060006113e86024601887901c6001600160601b0316612df8565b905060006113f586611abb565b60ff16905061140d62ffffff19871660248484611a4b565b9695505050505050565b6000611325826003611ad0565b600061143562ffffff198316611b2f565b90506114448585858585611b4f565b5061144e81611e52565b5050505050565b6000611325826005611ad0565b600061147362ffffff198316611ea8565b905060006114848686868686611b4f565b905060006302424a7f60e11b876114a062ffffff198716611eb6565b6114af62ffffff198916611ed8565b6114be62ffffff198a16611efa565b866114ce62ffffff198b16611f1c565b6114eb6114e062ffffff198d16611f31565b62ffffff1916611f63565b6040516024016115019796959493929190613000565b604051602081830303815290604052906001600160e01b0319166020820180516001600160e01b0383818316178352505050509050826001600160a01b03168160405161154e9190613056565b6000604051808303816000865af19150503d806000811461158b576040519150601f19603f3d011682016040523d82523d6000602084013e611590565b606091505b50505050505050505050565b42600255600180546001600160a01b0319166001600160a01b0383169081179091556040517f6ab4d119f23076e8ad491bc65ce85f017fb0591dce08755ba8591059cc51737a90600090a250565b600061140d600580888888888860405160200161118d96959493929190613072565b600080546001600160a01b038381166201000081810262010000600160b01b031985161785556002859055600180546001600160a01b031916905560405193049190911692909183917f8be0079c531659141344cd1fd0a4f28419497f9722a3daafe3b4186f6b6457e091a35050565b600054610100900460ff166116a35760405162461bcd60e51b815260040161061f906130bb565b6106eb611fac565b60006111a660016040516001600160e01b031960e087901b1660208201526024810185905260440161118d565b6000835184845185856040516020016116f5959493929190613106565b6040516020818303038152906040528051906020012090509392505050565b6040516001600160a01b03808516602483015283166044820152606481018290526111699085906323b872dd60e01b906084015b60408051601f198184030181529190526020810180516001600160e01b03166001600160e01b031990931692909217909152611fdc565b63ffffffff8116600090815260666020526040902054806117cc5760405162461bcd60e51b81526020600482015260076024820152662172656d6f746560c81b604482015260640161061f565b919050565b60608260016117df81611390565b506117e9846120ae565b61181f5760405162461bcd60e51b815260206004820152600760248201526610b0b1ba34b7b760c91b604482015260640161061f565b604080516002808252606082018352600092602083019080368337019050509050858160008151811061185457611854613166565b602002602001019062ffffff1916908162ffffff191681525050848160018151811061188257611882613166565b62ffffff199092166020928302919091019091015261140d816120c8565b6000806118ad838561317c565b90506040518111156118bd575060005b806000036118d25762ffffff199150506111a6565b606085811b8517901b831760181b6112ad565b60006118f08261211d565b1561190d576301000000600160d81b038216600160d91b17611325565b62ffffff19611325565b600061192282612155565b61196e5760405162461bcd60e51b815260206004820152601960248201527f56616c696469747920617373657274696f6e206661696c656400000000000000604482015260640161061f565b5090565b600061197e8383612192565b611a4457600061199d6119918560d81c90565b64ffffffffff166121b5565b91505060006119b28464ffffffffff166121b5565b6040517f5479706520617373657274696f6e206661696c65642e20476f7420307800000060208201526001600160b01b031960b086811b8216603d8401526c05c408af0e0cac6e8cac84060f609b1b604784015283901b16605482015290925060009150605e0160405160208183030381529060405290508060405162461bcd60e51b815260040161061f9190613194565b5090919050565b600080611a618660781c6001600160601b031690565b6001600160601b03169050611a7586612263565b84611a80878461317c565b611a8a919061317c565b1115611a9d5762ffffff199150506113b7565b611aa7858261317c565b905061140d8364ffffffffff1682866118a0565b600061132562ffffff1983166024600161229c565b6000816006811115611ae457611ae4612f4d565b60ff16611af0846122cc565b60ff161480156111a65750816006811115611b0d57611b0d612f4d565b611b16846122e0565b6006811115611b2757611b27612f4d565b149392505050565b6000816003611b3d81611390565b506113b762ffffff198516600d6122fb565b6098546000906001600160a01b031663b869d89a611b7262ffffff198716611ed8565b611b8162ffffff198816611efa565b6040516001600160e01b031960e085901b16815263ffffffff92909216600483015260248201526044016020604051808303816000875af1158015611bca573d6000803e3d6000fd5b505050506040513d601f19601f82011682018060405250810190611bee9190612e0f565b90506000611c0162ffffff198516611f1c565b905080600003611c7e576001600160a01b0380841690831667ffffffff0000000060208a901b1663ffffffff89161760408051600081526020810186905267ffffffffffffffff92909216917f9f9a97db84f39202ca3b409b63f7ccf7d3fd810e176573c7483088b6f181bbbb910160405180910390a4506112ad565b60985460405163c86415cb60e01b81526001600160a01b0384811660048301529091169063c86415cb90602401602060405180830381865afa158015611cc8573d6000803e3d6000fd5b505050506040513d601f19601f82011682018060405250810190611cec9190612e73565b15611d0a57611d056001600160a01b0383168483612309565b611ddb565b6040516340c10f1960e01b81526001600160a01b038481166004830152602482018390528316906340c10f1990604401600060405180830381600087803b158015611d5457600080fd5b505af1158015611d68573d6000803e3d6000fd5b50505050816001600160a01b031663cc2ab7c7611d8a8662ffffff1916612339565b6040518263ffffffff1660e01b8152600401611da891815260200190565b600060405180830381600087803b158015611dc257600080fd5b505af1158015611dd6573d6000803e3d6000fd5b505050505b6001600160a01b0380841690831667ffffffff0000000060208a901b1663ffffffff89161760408051600081526020810186905267ffffffffffffffff92909216917f9f9a97db84f39202ca3b409b63f7ccf7d3fd810e176573c7483088b6f181bbbb910160405180910390a45095945050505050565b66d529ae9e860000816001600160a01b031631108015611e79575066d529ae9e8600004710155b156109c2576040516001600160a01b0382169060009066d529ae9e8600009082818181858883f1505050505050565b6000816005611b3d81611390565b6000816005611ec481611390565b506113b762ffffff1985166061602061234a565b6000816001611ee681611390565b506113b762ffffff1985166000600461229c565b6000816001611f0881611390565b506113b762ffffff1985166004602061234a565b600061132562ffffff1983166021602061229c565b6000816005611f3f81611390565b506113b76081611f5c81601888901c6001600160601b0316612df8565b60066113a8565b6060600080611f7b8460181c6001600160601b031690565b6001600160601b031690506040519150819250611f9b84836020016124a6565b508181016020016040529052919050565b600054610100900460ff16611fd35760405162461bcd60e51b815260040161061f906130bb565b6106eb3361160c565b6000612031826040518060400160405280602081526020017f5361666545524332303a206c6f772d6c6576656c2063616c6c206661696c6564815250856001600160a01b03166125fd9092919063ffffffff16565b8051909150156106b5578080602001905181019061204f9190612e73565b6106b55760405162461bcd60e51b815260206004820152602a60248201527f5361666545524332303a204552433230206f7065726174696f6e20646964206e6044820152691bdd081cdd58d8d9595960b21b606482015260840161061f565b60006120b982611417565b80611325575061132582611455565b60405160609060006120dd846020840161260c565b905060006120f48260181c6001600160601b031690565b6001600160601b03169050600061210a8361269c565b9184525082016020016040525092915050565b6000601882901c6001600160601b03166121396061602461317c565b8114806111a6575061214d6081602461317c565b111592915050565b60006121618260d81c90565b64ffffffffff1664ffffffffff0361217b57506000919050565b600061218683612263565b60405110199392505050565b60008164ffffffffff166121a68460d81c90565b64ffffffffff16149392505050565b600080601f5b600f8160ff16111561220a5760006121d48260086131a7565b60ff1685901c90506121e5816126b2565b61ffff16841793508160ff1660101461220057601084901b93505b50600019016121bb565b50600f5b60ff8160ff16101561225d5760006122278260086131a7565b60ff1685901c9050612238816126b2565b61ffff16831792508160ff1660001461225357601083901b92505b506000190161220e565b50915091565b60006122788260181c6001600160601b031690565b61228b8360781c6001600160601b031690565b016001600160601b03169050919050565b60006122a98260206131d0565b6122b49060086131a7565b60ff166122c285858561234a565b901c949350505050565b600061132562ffffff19831682600161229c565b600060d882901c60ff16600681111561132557611325612f4d565b60006111a68383601461229c565b6040516001600160a01b0383166024820152604481018290526106b590849063a9059cbb60e01b90606401611748565b600061132562ffffff198316604160205b60008160ff1660000361235f575060006111a6565b6123728460181c6001600160601b031690565b6001600160601b031661238860ff84168561317c565b11156123ec576123d36123a48560781c6001600160601b031690565b6001600160601b03166123c08660181c6001600160601b031690565b6001600160601b0316858560ff166126e4565b60405162461bcd60e51b815260040161061f9190613194565b60208260ff1611156124665760405162461bcd60e51b815260206004820152603a60248201527f54797065644d656d566965772f696e646578202d20417474656d70746564207460448201527f6f20696e646578206d6f7265207468616e203332206279746573000000000000606482015260840161061f565b60088202600061247f8660781c6001600160601b031690565b6001600160601b031690506000600160ff1b60001984011d91909501511695945050505050565b600062ffffff198084160361250e5760405162461bcd60e51b815260206004820152602860248201527f54797065644d656d566965772f636f7079546f202d204e756c6c20706f696e7460448201526732b9103232b932b360c11b606482015260840161061f565b61251783612155565b6125775760405162461bcd60e51b815260206004820152602b60248201527f54797065644d656d566965772f636f7079546f202d20496e76616c696420706f60448201526a34b73a32b9103232b932b360a91b606482015260840161061f565b600061258c8460181c6001600160601b031690565b6001600160601b0316905060006125ac8560781c6001600160601b031690565b6001600160601b0316905060006040519050848111156125cc5760206060fd5b8285848460045afa5061140d6125e28760d81c90565b64ffffffffff60601b606091821b168717901b841760181b90565b60606111a38484600085612752565b60006040518281111561261f5760206060fd5b506000805b845181101561268c57600085828151811061264157612641613166565b60200260200101519050612657818487016124a6565b5061266b8160181c6001600160601b031690565b6001600160601b031683019250508080612684906131f3565b915050612624565b50606083901b811760181b6113b7565b60006126a782612883565b61132590602061320c565b60006126c460048360ff16901c6128b8565b60ff1661ffff919091161760081b6126db826128b8565b60ff1617919050565b606060006126f1866121b5565b91505060006126ff866121b5565b915050600061270d866121b5565b915050600061271b866121b5565b91505083838383604051602001612735949392919061322b565b604051602081830303815290604052945050505050949350505050565b6060824710156127b35760405162461bcd60e51b815260206004820152602660248201527f416464726573733a20696e73756666696369656e742062616c616e636520666f6044820152651c8818d85b1b60d21b606482015260840161061f565b6001600160a01b0385163b61280a5760405162461bcd60e51b815260206004820152601d60248201527f416464726573733a2063616c6c20746f206e6f6e2d636f6e7472616374000000604482015260640161061f565b600080866001600160a01b031685876040516128269190613056565b60006040518083038185875af1925050503d8060008114612863576040519150601f19603f3d011682016040523d82523d6000602084013e612868565b606091505b5091509150612878828286612a05565b979650505050505050565b6000602061289a8360181c6001600160601b031690565b6128ae906001600160601b0316601f61317c565b6113259190613302565b600060f08083179060ff821690036128d35750603092915050565b8060ff1660f1036128e75750603192915050565b8060ff1660f2036128fb5750603292915050565b8060ff1660f30361290f5750603392915050565b8060ff1660f4036129235750603492915050565b8060ff1660f5036129375750603592915050565b8060ff1660f60361294b5750603692915050565b8060ff1660f70361295f5750603792915050565b8060ff1660f8036129735750603892915050565b8060ff1660f9036129875750603992915050565b8060ff1660fa0361299b5750606192915050565b8060ff1660fb036129af5750606292915050565b8060ff1660fc036129c35750606392915050565b8060ff1660fd036129d75750606492915050565b8060ff1660fe036129eb5750606592915050565b8060ff1660ff036129ff5750606692915050565b50919050565b60608315612a145750816111a6565b825115612a245782518084602001fd5b8160405162461bcd60e51b815260040161061f9190613194565b63ffffffff811681146109c257600080fd5b6001600160a01b03811681146109c257600080fd5b600080600060608486031215612a7a57600080fd5b8335612a8581612a3e565b9250602084013591506040840135612a9c81612a50565b809150509250925092565b600060208284031215612ab957600080fd5b81356111a681612a50565b60008060408385031215612ad757600080fd5b8235612ae281612a50565b91506020830135612af281612a50565b809150509250929050565b600060208284031215612b0f57600080fd5b5035919050565b600060208284031215612b2857600080fd5b81356111a681612a3e565b80151581146109c257600080fd5b600080600080600060a08688031215612b5957600080fd5b8535612b6481612a50565b9450602086013593506040860135612b7b81612a3e565b9250606086013591506080860135612b9281612b33565b809150509295509295909350565b634e487b7160e01b600052604160045260246000fd5b604051601f8201601f1916810167ffffffffffffffff81118282101715612bdf57612bdf612ba0565b604052919050565b600067ffffffffffffffff821115612c0157612c01612ba0565b50601f01601f191660200190565b60008060008060808587031215612c2557600080fd5b8435612c3081612a3e565b93506020850135612c4081612a3e565b925060408501359150606085013567ffffffffffffffff811115612c6357600080fd5b8501601f81018713612c7457600080fd5b8035612c87612c8282612be7565b612bb6565b818152886020838501011115612c9c57600080fd5b8160208401602083013760006020838301015280935050505092959194509250565b60008060408385031215612cd157600080fd5b8235612cdc81612a3e565b946020939093013593505050565b60008060008060008060a08789031215612d0357600080fd5b8635612d0e81612a50565b9550602087013594506040870135612d2581612a3e565b935060608701359250608087013567ffffffffffffffff80821115612d4957600080fd5b818901915089601f830112612d5d57600080fd5b813581811115612d6c57600080fd5b8a6020828501011115612d7e57600080fd5b6020830194508093505050509295509295509295565b6020808252602e908201527f496e697469616c697a61626c653a20636f6e747261637420697320616c72656160408201526d191e481a5b9a5d1a585b1a5e995960921b606082015260800190565b634e487b7160e01b600052601160045260246000fd5b600082821015612e0a57612e0a612de2565b500390565b600060208284031215612e2157600080fd5b81516111a681612a50565b600060208284031215612e3e57600080fd5b5051919050565b60008060408385031215612e5857600080fd5b8251612e6381612a3e565b6020939093015192949293505050565b600060208284031215612e8557600080fd5b81516111a681612b33565b60005b83811015612eab578181015183820152602001612e93565b838111156111695750506000910152565b600060208284031215612ece57600080fd5b815167ffffffffffffffff811115612ee557600080fd5b8201601f81018413612ef657600080fd5b8051612f04612c8282612be7565b818152856020838501011115612f1957600080fd5b6112ad826020830160208601612e90565b600060208284031215612f3c57600080fd5b815160ff811681146111a657600080fd5b634e487b7160e01b600052602160045260246000fd5b60078110612f8157634e487b7160e01b600052602160045260246000fd5b60f81b9052565b612f928186612f63565b600181019390935260218301919091526041820152606101919050565b60008151808452612fc7816020860160208601612e90565b601f01601f19169290920160200192915050565b63ffffffff841681528260208201526060604082015260006112ad6060830184612faf565b600063ffffffff808a16835288602084015280881660408401525085606083015260018060a01b03851660808301528360a083015260e060c083015261304960e0830184612faf565b9998505050505050505050565b60008251613068818460208701612e90565b9190910192915050565b61307c8188612f63565b856001820152846021820152836041820152826061820152600082516130a9816081850160208701612e90565b91909101608101979650505050505050565b6020808252602b908201527f496e697469616c697a61626c653a20636f6e7472616374206973206e6f74206960408201526a6e697469616c697a696e6760a81b606082015260800190565b8581526000855161311e816020850160208a01612e90565b8083019050856020820152845161313c816040840160208901612e90565b60f89490941b6001600160f81b031916604091909401908101939093525050604101949350505050565b634e487b7160e01b600052603260045260246000fd5b6000821982111561318f5761318f612de2565b500190565b6020815260006111a66020830184612faf565b600060ff821660ff84168160ff04811182151516156131c8576131c8612de2565b029392505050565b600060ff821660ff8416808210156131ea576131ea612de2565b90039392505050565b60006001820161320557613205612de2565b5060010190565b600081600019048311821515161561322657613226612de2565b500290565b7f54797065644d656d566965772f696e646578202d204f76657272616e20746865815274040ecd2caee5c40a6d8d2c6ca40d2e640c2e84060f605b1b60208201526001600160d01b031960d086811b821660358401526e040eed2e8d040d8cadccee8d04060f608b1b603b840181905286821b8316604a8501527f2e20417474656d7074656420746f20696e646578206174206f666673657420306050850152600f60fb1b607085015285821b83166071850152607784015283901b166086820152601760f91b608c8201526000608d820161140d565b60008261331f57634e487b7160e01b600052601260045260246000fd5b50049056fea264697066735822122064a88575615225e2f63b38b91bac32bedc093b91fae045d97bf4bf688da2ae2c64736f6c634300080f0033",
  "devdoc": {
    "events": {
      "Receive(uint64,address,address,address,uint256)": {
        "params": {
          "amount": "The amount of tokens being received",
          "liquidityProvider": "The account providing liquidity",
          "originAndNonce": "Domain where the transfer originated and the        unique identifier for the message from origin to destination,        combined in a single field ((origin << 32) & nonce)",
          "recipient": "The address receiving the tokens; the original        recipient of the transfer",
          "token": "The address of the local token contract being received"
        }
      },
      "Send(address,address,uint32,bytes32,uint256,bool)": {
        "params": {
          "amount": "the amount of tokens sent",
          "from": "the address sending tokens",
          "toDomain": "the domain of the chain the tokens are being sent to",
          "toHook": "True if sent to a hook, on the remote chain, false        otherwise",
          "toId": "the bytes32 address of the recipient of the tokens",
          "token": "the address of the token contract"
        }
      }
    },
    "kind": "dev",
    "methods": {
      "enrollCustom(uint32,bytes32,address)": {
        "params": {
          "_custom": "the address of the custom implementation to use.",
          "_domain": "the domain of the canonical Token to enroll",
          "_id": "the bytes32 ID of the canonical of the Token to enroll"
        }
      },
      "enrollRemoteRouter(uint32,bytes32)": {
        "params": {
          "_domain": "The domain of the remote xApp Router",
          "_router": "The address of the remote xApp Router"
        }
      },
      "handle(uint32,uint32,bytes32,bytes)": {
        "params": {
          "_message": "The message",
          "_nonce": "The unique identifier for the message from origin to        destination",
          "_origin": "The origin domain",
          "_sender": "The sender address"
        }
      },
      "migrate(address)": {
        "details": "This is explicitly opt-in to allow dapps to decide when and how to      upgrade to the new representation.",
        "params": {
          "_oldRepr": "The address of the old token to migrate"
        }
      },
      "renounceOwnership()": {
        "details": "should be impossible to renounce ownership;      we override OpenZeppelin OwnableUpgradeable's      implementation of renounceOwnership to make it a no-op"
      },
      "send(address,uint256,uint32,bytes32,bool)": {
        "params": {
          "_amount": "The token amount",
          "_destination": "The destination domain",
          "_recipient": "The recipient address",
          "_token": "The token address"
        }
      },
      "sendToHook(address,uint256,uint32,bytes32,bytes)": {
        "params": {
          "_amount": "The token amount",
          "_destination": "The destination domain",
          "_extraData": "Extra data that will be passed to the hook for        execution",
          "_remoteHook": "The hook contract on the remote chain",
          "_token": "The token address"
        }
      },
      "setXAppConnectionManager(address)": {
        "params": {
          "_xAppConnectionManager": "The address of the xAppConnectionManager contract"
        }
      }
    },
    "title": "BridgeRouter",
    "version": 1
  },
  "userdoc": {
    "events": {
      "Receive(uint64,address,address,address,uint256)": {
        "notice": "emitted when tokens are dispensed to an account on this domain         emitted both when fast liquidity is provided, and when the         transfer ultimately settles"
      },
      "Send(address,address,uint32,bytes32,uint256,bool)": {
        "notice": "emitted when tokens are sent from this domain to another domain"
      }
    },
    "kind": "user",
    "methods": {
      "acceptProposedOwner()": {
        "notice": "Transfers ownership of the contract to a new account (`newOwner`). Can only be called by the current owner."
      },
      "delay()": {
        "notice": "Returns the delay period before a new owner can be accepted."
      },
      "enrollCustom(uint32,bytes32,address)": {
        "notice": "Enroll a custom token. This allows projects to work with         governance to specify a custom representation."
      },
      "enrollRemoteRouter(uint32,bytes32)": {
        "notice": "Register the address of a Router contract for the same xApp on a remote chain"
      },
      "handle(uint32,uint32,bytes32,bytes)": {
        "notice": "Handles an incoming message"
      },
      "migrate(address)": {
        "notice": "Migrate all tokens in a previous representation to the latest         custom representation. This works by looking up local mappings         and then burning old tokens and minting new tokens."
      },
      "owner()": {
        "notice": "Returns the address of the current owner."
      },
      "proposeNewOwner(address)": {
        "notice": "Sets the timestamp for an owner to be proposed, and sets the newly proposed owner as step 1 in a 2-step process"
      },
      "proposed()": {
        "notice": "Returns the address of the proposed owner."
      },
      "proposedTimestamp()": {
        "notice": "Returns the address of the proposed owner."
      },
      "renounced()": {
        "notice": "Indicates if the ownership has been renounced() by checking if current owner is address(0)"
      },
      "send(address,uint256,uint32,bytes32,bool)": {
        "notice": "Send tokens to a recipient on a remote chain"
      },
      "sendToHook(address,uint256,uint32,bytes32,bytes)": {
        "notice": "Send tokens to a hook on the remote chain"
      },
      "setXAppConnectionManager(address)": {
        "notice": "Modify the contract the xApp uses to validate Replica contracts"
      }
    },
    "version": 1
  },
  "storageLayout": {
    "storage": [
      {
        "astId": 138,
        "contract": "contracts/test/BridgeRouter.sol:BridgeRouter",
        "label": "_initialized",
        "offset": 0,
        "slot": "0",
        "type": "t_uint8"
      },
      {
        "astId": 141,
        "contract": "contracts/test/BridgeRouter.sol:BridgeRouter",
        "label": "_initializing",
        "offset": 1,
        "slot": "0",
        "type": "t_bool"
      },
      {
        "astId": 36166,
        "contract": "contracts/test/BridgeRouter.sol:BridgeRouter",
        "label": "_owner",
        "offset": 2,
        "slot": "0",
        "type": "t_address"
      },
      {
        "astId": 36168,
        "contract": "contracts/test/BridgeRouter.sol:BridgeRouter",
        "label": "_proposed",
        "offset": 0,
        "slot": "1",
        "type": "t_address"
      },
      {
        "astId": 36170,
        "contract": "contracts/test/BridgeRouter.sol:BridgeRouter",
        "label": "_proposedOwnershipTimestamp",
        "offset": 0,
        "slot": "2",
        "type": "t_uint256"
      },
      {
        "astId": 36424,
        "contract": "contracts/test/BridgeRouter.sol:BridgeRouter",
        "label": "__GAP",
        "offset": 0,
        "slot": "3",
        "type": "t_array(t_uint256)49_storage"
      },
      {
        "astId": 5800,
        "contract": "contracts/test/BridgeRouter.sol:BridgeRouter",
        "label": "xAppConnectionManager",
        "offset": 0,
        "slot": "52",
        "type": "t_contract(IConnectorManager)34619"
      },
      {
        "astId": 5804,
        "contract": "contracts/test/BridgeRouter.sol:BridgeRouter",
        "label": "__GAP",
        "offset": 0,
        "slot": "53",
        "type": "t_array(t_uint256)49_storage"
      },
      {
        "astId": 5680,
        "contract": "contracts/test/BridgeRouter.sol:BridgeRouter",
        "label": "remotes",
        "offset": 0,
        "slot": "102",
        "type": "t_mapping(t_uint32,t_bytes32)"
      },
      {
        "astId": 5684,
        "contract": "contracts/test/BridgeRouter.sol:BridgeRouter",
        "label": "__GAP",
        "offset": 0,
        "slot": "103",
        "type": "t_array(t_uint256)49_storage"
      },
      {
        "astId": 39165,
        "contract": "contracts/test/BridgeRouter.sol:BridgeRouter",
        "label": "tokenRegistry",
        "offset": 0,
        "slot": "152",
        "type": "t_contract(ITokenRegistry)17907"
      },
      {
        "astId": 39169,
        "contract": "contracts/test/BridgeRouter.sol:BridgeRouter",
        "label": "liquidityProvider",
        "offset": 0,
        "slot": "153",
        "type": "t_mapping(t_bytes32,t_address)"
      },
      {
        "astId": 39173,
        "contract": "contracts/test/BridgeRouter.sol:BridgeRouter",
        "label": "__GAP",
        "offset": 0,
        "slot": "154",
        "type": "t_array(t_uint256)49_storage"
      }
    ],
    "types": {
      "t_address": {
        "encoding": "inplace",
        "label": "address",
        "numberOfBytes": "20"
      },
      "t_array(t_uint256)49_storage": {
        "base": "t_uint256",
        "encoding": "inplace",
        "label": "uint256[49]",
        "numberOfBytes": "1568"
      },
      "t_bool": {
        "encoding": "inplace",
        "label": "bool",
        "numberOfBytes": "1"
      },
      "t_bytes32": {
        "encoding": "inplace",
        "label": "bytes32",
        "numberOfBytes": "32"
      },
      "t_contract(IConnectorManager)34619": {
        "encoding": "inplace",
        "label": "contract IConnectorManager",
        "numberOfBytes": "20"
      },
      "t_contract(ITokenRegistry)17907": {
        "encoding": "inplace",
        "label": "contract ITokenRegistry",
        "numberOfBytes": "20"
      },
      "t_mapping(t_bytes32,t_address)": {
        "encoding": "mapping",
        "key": "t_bytes32",
        "label": "mapping(bytes32 => address)",
        "numberOfBytes": "32",
        "value": "t_address"
      },
      "t_mapping(t_uint32,t_bytes32)": {
        "encoding": "mapping",
        "key": "t_uint32",
        "label": "mapping(uint32 => bytes32)",
        "numberOfBytes": "32",
        "value": "t_bytes32"
      },
      "t_uint256": {
        "encoding": "inplace",
        "label": "uint256",
        "numberOfBytes": "32"
      },
      "t_uint32": {
        "encoding": "inplace",
        "label": "uint32",
        "numberOfBytes": "4"
      },
      "t_uint8": {
        "encoding": "inplace",
        "label": "uint8",
        "numberOfBytes": "1"
      }
    }
  }
}