{
  "address": "0xE4A38c6A231A7e299fee98Bf57B264E53d7160eD",
  "abi": [
    {
      "inputs": [],
      "name": "AssetLogic__getTokenIndexFromStableSwapPool_notExist",
      "type": "error"
    },
    {
      "inputs": [],
      "name": "AssetLogic__handleIncomingAsset_feeOnTransferNotSupported",
      "type": "error"
    },
    {
      "inputs": [],
      "name": "AssetLogic__handleIncomingAsset_nativeAssetNotSupported",
      "type": "error"
    },
    {
      "inputs": [],
      "name": "AssetLogic__handleOutgoingAsset_notNative",
      "type": "error"
    },
    {
      "inputs": [],
      "name": "BaseConnextFacet__getAdoptedAsset_notWhitelisted",
      "type": "error"
    },
    {
      "inputs": [],
      "name": "BaseConnextFacet__getApprovedCanonicalId_notWhitelisted",
      "type": "error"
    },
    {
      "inputs": [],
      "name": "BaseConnextFacet__nonReentrant_reentrantCall",
      "type": "error"
    },
    {
      "inputs": [],
      "name": "BaseConnextFacet__onlyBridgeRouter_notBridgeRouter",
      "type": "error"
    },
    {
      "inputs": [],
      "name": "BaseConnextFacet__onlyOwnerOrAdmin_notOwnerOrAdmin",
      "type": "error"
    },
    {
      "inputs": [],
      "name": "BaseConnextFacet__onlyOwnerOrRouter_notOwnerOrRouter",
      "type": "error"
    },
    {
      "inputs": [],
      "name": "BaseConnextFacet__onlyOwnerOrWatcher_notOwnerOrWatcher",
      "type": "error"
    },
    {
      "inputs": [],
      "name": "BaseConnextFacet__onlyOwner_notOwner",
      "type": "error"
    },
    {
      "inputs": [],
      "name": "BaseConnextFacet__onlyProposed_notProposedOwner",
      "type": "error"
    },
    {
      "inputs": [],
      "name": "BaseConnextFacet__whenNotPaused_paused",
      "type": "error"
    },
    {
      "inputs": [],
      "name": "BridgeFacet__addRemote_invalidDomain",
      "type": "error"
    },
    {
      "inputs": [],
      "name": "BridgeFacet__addSequencer_alreadyApproved",
      "type": "error"
    },
    {
      "inputs": [],
      "name": "BridgeFacet__bumpTransfer_noRelayerVault",
      "type": "error"
    },
    {
      "inputs": [],
      "name": "BridgeFacet__bumpTransfer_valueIsZero",
      "type": "error"
    },
    {
      "inputs": [],
      "name": "BridgeFacet__executePortalTransfer_insufficientAmountWithdrawn",
      "type": "error"
    },
    {
      "inputs": [],
      "name": "BridgeFacet__execute_badFastLiquidityStatus",
      "type": "error"
    },
    {
      "inputs": [],
      "name": "BridgeFacet__execute_invalidRouterSignature",
      "type": "error"
    },
    {
      "inputs": [],
      "name": "BridgeFacet__execute_invalidSequencerSignature",
      "type": "error"
    },
    {
      "inputs": [],
      "name": "BridgeFacet__execute_maxRoutersExceeded",
      "type": "error"
    },
    {
      "inputs": [],
      "name": "BridgeFacet__execute_notApprovedForPortals",
      "type": "error"
    },
    {
      "inputs": [],
      "name": "BridgeFacet__execute_notReconciled",
      "type": "error"
    },
    {
      "inputs": [],
      "name": "BridgeFacet__execute_notSupportedRouter",
      "type": "error"
    },
    {
      "inputs": [],
      "name": "BridgeFacet__execute_notSupportedSequencer",
      "type": "error"
    },
    {
      "inputs": [],
      "name": "BridgeFacet__execute_unapprovedSender",
      "type": "error"
    },
    {
      "inputs": [],
      "name": "BridgeFacet__execute_wrongDomain",
      "type": "error"
    },
    {
      "inputs": [],
      "name": "BridgeFacet__forceUpdateSlippage_invalidSlippage",
      "type": "error"
    },
    {
      "inputs": [],
      "name": "BridgeFacet__forceUpdateSlippage_notDestination",
      "type": "error"
    },
    {
      "inputs": [],
      "name": "BridgeFacet__mustHaveRemote_destinationNotSupported",
      "type": "error"
    },
    {
      "inputs": [],
      "name": "BridgeFacet__onlyDelegate_notDelegate",
      "type": "error"
    },
    {
      "inputs": [],
      "name": "BridgeFacet__removeSequencer_notApproved",
      "type": "error"
    },
    {
      "inputs": [],
      "name": "BridgeFacet__xcall_canonicalAssetNotReceived",
      "type": "error"
    },
    {
      "inputs": [],
      "name": "BridgeFacet__xcall_capReached",
      "type": "error"
    },
    {
      "inputs": [],
      "name": "BridgeFacet__xcall_emptyTo",
      "type": "error"
    },
    {
      "inputs": [],
      "name": "BridgeFacet__xcall_invalidSlippage",
      "type": "error"
    },
    {
      "inputs": [],
      "name": "BridgeFacet__xcall_nativeAssetNotSupported",
      "type": "error"
    },
    {
      "inputs": [],
      "name": "BridgeFacet__xcall_notSupportedAsset",
      "type": "error"
    },
    {
      "anonymous": false,
      "inputs": [
        {
          "indexed": true,
          "internalType": "bytes32",
          "name": "transferId",
          "type": "bytes32"
        },
        {
          "indexed": true,
          "internalType": "address",
          "name": "router",
          "type": "address"
        },
        {
          "indexed": false,
          "internalType": "address",
          "name": "asset",
          "type": "address"
        },
        {
          "indexed": false,
          "internalType": "uint256",
          "name": "amount",
          "type": "uint256"
        }
      ],
      "name": "AavePortalMintUnbacked",
      "type": "event"
    },
    {
      "anonymous": false,
      "inputs": [
        {
          "indexed": true,
          "internalType": "bytes32",
          "name": "transferId",
          "type": "bytes32"
        },
        {
          "indexed": true,
          "internalType": "address",
          "name": "to",
          "type": "address"
        },
        {
          "indexed": true,
          "internalType": "address",
          "name": "asset",
          "type": "address"
        },
        {
          "components": [
            {
              "components": [
                {
                  "internalType": "uint32",
                  "name": "originDomain",
                  "type": "uint32"
                },
                {
                  "internalType": "uint32",
                  "name": "destinationDomain",
                  "type": "uint32"
                },
                {
                  "internalType": "uint32",
                  "name": "canonicalDomain",
                  "type": "uint32"
                },
                {
                  "internalType": "address",
                  "name": "to",
                  "type": "address"
                },
                {
                  "internalType": "address",
                  "name": "delegate",
                  "type": "address"
                },
                {
                  "internalType": "bool",
                  "name": "receiveLocal",
                  "type": "bool"
                },
                {
                  "internalType": "bytes",
                  "name": "callData",
                  "type": "bytes"
                },
                {
                  "internalType": "uint256",
                  "name": "slippage",
                  "type": "uint256"
                },
                {
                  "internalType": "address",
                  "name": "originSender",
                  "type": "address"
                },
                {
                  "internalType": "uint256",
                  "name": "bridgedAmt",
                  "type": "uint256"
                },
                {
                  "internalType": "uint256",
                  "name": "normalizedIn",
                  "type": "uint256"
                },
                {
                  "internalType": "uint256",
                  "name": "nonce",
                  "type": "uint256"
                },
                {
                  "internalType": "bytes32",
                  "name": "canonicalId",
                  "type": "bytes32"
                }
              ],
              "internalType": "struct TransferInfo",
              "name": "params",
              "type": "tuple"
            },
            {
              "internalType": "address[]",
              "name": "routers",
              "type": "address[]"
            },
            {
              "internalType": "bytes[]",
              "name": "routerSignatures",
              "type": "bytes[]"
            },
            {
              "internalType": "address",
              "name": "sequencer",
              "type": "address"
            },
            {
              "internalType": "bytes",
              "name": "sequencerSignature",
              "type": "bytes"
            }
          ],
          "indexed": false,
          "internalType": "struct ExecuteArgs",
          "name": "args",
          "type": "tuple"
        },
        {
          "indexed": false,
          "internalType": "address",
          "name": "local",
          "type": "address"
        },
        {
          "indexed": false,
          "internalType": "uint256",
          "name": "amount",
          "type": "uint256"
        },
        {
          "indexed": false,
          "internalType": "address",
          "name": "caller",
          "type": "address"
        }
      ],
      "name": "Executed",
      "type": "event"
    },
    {
      "anonymous": false,
      "inputs": [
        {
          "indexed": true,
          "internalType": "bytes32",
          "name": "transferId",
          "type": "bytes32"
        },
        {
          "indexed": false,
          "internalType": "bool",
          "name": "success",
          "type": "bool"
        },
        {
          "indexed": false,
          "internalType": "bytes",
          "name": "returnData",
          "type": "bytes"
        }
      ],
      "name": "ExternalCalldataExecuted",
      "type": "event"
    },
    {
      "anonymous": false,
      "inputs": [
        {
          "indexed": false,
          "internalType": "uint32",
          "name": "domain",
          "type": "uint32"
        },
        {
          "indexed": false,
          "internalType": "address",
          "name": "remote",
          "type": "address"
        },
        {
          "indexed": false,
          "internalType": "address",
          "name": "caller",
          "type": "address"
        }
      ],
      "name": "RemoteAdded",
      "type": "event"
    },
    {
      "anonymous": false,
      "inputs": [
        {
          "indexed": false,
          "internalType": "address",
          "name": "sequencer",
          "type": "address"
        },
        {
          "indexed": false,
          "internalType": "address",
          "name": "caller",
          "type": "address"
        }
      ],
      "name": "SequencerAdded",
      "type": "event"
    },
    {
      "anonymous": false,
      "inputs": [
        {
          "indexed": false,
          "internalType": "address",
          "name": "sequencer",
          "type": "address"
        },
        {
          "indexed": false,
          "internalType": "address",
          "name": "caller",
          "type": "address"
        }
      ],
      "name": "SequencerRemoved",
      "type": "event"
    },
    {
      "anonymous": false,
      "inputs": [
        {
          "indexed": true,
          "internalType": "bytes32",
          "name": "transferId",
          "type": "bytes32"
        },
        {
          "indexed": false,
          "internalType": "uint256",
          "name": "slippage",
          "type": "uint256"
        }
      ],
      "name": "SlippageUpdated",
      "type": "event"
    },
    {
      "anonymous": false,
      "inputs": [
        {
          "indexed": true,
          "internalType": "bytes32",
          "name": "transferId",
          "type": "bytes32"
        },
        {
          "indexed": false,
          "internalType": "uint256",
          "name": "increase",
          "type": "uint256"
        },
        {
          "indexed": false,
          "internalType": "address",
          "name": "caller",
          "type": "address"
        }
      ],
      "name": "TransferRelayerFeesIncreased",
      "type": "event"
    },
    {
      "anonymous": false,
      "inputs": [
        {
          "indexed": true,
          "internalType": "bytes32",
          "name": "transferId",
          "type": "bytes32"
        },
        {
          "indexed": true,
          "internalType": "uint256",
          "name": "nonce",
          "type": "uint256"
        },
        {
          "indexed": true,
          "internalType": "bytes32",
          "name": "messageHash",
          "type": "bytes32"
        },
        {
          "components": [
            {
              "internalType": "uint32",
              "name": "originDomain",
              "type": "uint32"
            },
            {
              "internalType": "uint32",
              "name": "destinationDomain",
              "type": "uint32"
            },
            {
              "internalType": "uint32",
              "name": "canonicalDomain",
              "type": "uint32"
            },
            {
              "internalType": "address",
              "name": "to",
              "type": "address"
            },
            {
              "internalType": "address",
              "name": "delegate",
              "type": "address"
            },
            {
              "internalType": "bool",
              "name": "receiveLocal",
              "type": "bool"
            },
            {
              "internalType": "bytes",
              "name": "callData",
              "type": "bytes"
            },
            {
              "internalType": "uint256",
              "name": "slippage",
              "type": "uint256"
            },
            {
              "internalType": "address",
              "name": "originSender",
              "type": "address"
            },
            {
              "internalType": "uint256",
              "name": "bridgedAmt",
              "type": "uint256"
            },
            {
              "internalType": "uint256",
              "name": "normalizedIn",
              "type": "uint256"
            },
            {
              "internalType": "uint256",
              "name": "nonce",
              "type": "uint256"
            },
            {
              "internalType": "bytes32",
              "name": "canonicalId",
              "type": "bytes32"
            }
          ],
          "indexed": false,
          "internalType": "struct TransferInfo",
          "name": "params",
          "type": "tuple"
        },
        {
          "indexed": false,
          "internalType": "address",
          "name": "asset",
          "type": "address"
        },
        {
          "indexed": false,
          "internalType": "uint256",
          "name": "amount",
          "type": "uint256"
        },
        {
          "indexed": false,
          "internalType": "address",
          "name": "local",
          "type": "address"
        }
      ],
      "name": "XCalled",
      "type": "event"
    },
    {
      "inputs": [],
      "name": "AAVE_REFERRAL_CODE",
      "outputs": [
        {
          "internalType": "uint16",
          "name": "",
          "type": "uint16"
        }
      ],
      "stateMutability": "view",
      "type": "function"
    },
    {
      "inputs": [
        {
          "internalType": "address",
          "name": "_sequencer",
          "type": "address"
        }
      ],
      "name": "addSequencer",
      "outputs": [],
      "stateMutability": "nonpayable",
      "type": "function"
    },
    {
      "inputs": [
        {
          "internalType": "address",
          "name": "_sequencer",
          "type": "address"
        }
      ],
      "name": "approvedSequencers",
      "outputs": [
        {
          "internalType": "bool",
          "name": "",
          "type": "bool"
        }
      ],
      "stateMutability": "view",
      "type": "function"
    },
    {
      "inputs": [
        {
          "internalType": "bytes32",
          "name": "_transferId",
          "type": "bytes32"
        }
      ],
      "name": "bumpTransfer",
      "outputs": [],
      "stateMutability": "payable",
      "type": "function"
    },
    {
      "inputs": [],
      "name": "domain",
      "outputs": [
        {
          "internalType": "uint32",
          "name": "",
          "type": "uint32"
        }
      ],
      "stateMutability": "view",
      "type": "function"
    },
    {
      "inputs": [
        {
          "internalType": "uint32",
          "name": "_domain",
          "type": "uint32"
        },
        {
          "internalType": "bytes32",
          "name": "_router",
          "type": "bytes32"
        }
      ],
      "name": "enrollRemoteRouter",
      "outputs": [],
      "stateMutability": "nonpayable",
      "type": "function"
    },
    {
      "inputs": [
        {
          "components": [
            {
              "components": [
                {
                  "internalType": "uint32",
                  "name": "originDomain",
                  "type": "uint32"
                },
                {
                  "internalType": "uint32",
                  "name": "destinationDomain",
                  "type": "uint32"
                },
                {
                  "internalType": "uint32",
                  "name": "canonicalDomain",
                  "type": "uint32"
                },
                {
                  "internalType": "address",
                  "name": "to",
                  "type": "address"
                },
                {
                  "internalType": "address",
                  "name": "delegate",
                  "type": "address"
                },
                {
                  "internalType": "bool",
                  "name": "receiveLocal",
                  "type": "bool"
                },
                {
                  "internalType": "bytes",
                  "name": "callData",
                  "type": "bytes"
                },
                {
                  "internalType": "uint256",
                  "name": "slippage",
                  "type": "uint256"
                },
                {
                  "internalType": "address",
                  "name": "originSender",
                  "type": "address"
                },
                {
                  "internalType": "uint256",
                  "name": "bridgedAmt",
                  "type": "uint256"
                },
                {
                  "internalType": "uint256",
                  "name": "normalizedIn",
                  "type": "uint256"
                },
                {
                  "internalType": "uint256",
                  "name": "nonce",
                  "type": "uint256"
                },
                {
                  "internalType": "bytes32",
                  "name": "canonicalId",
                  "type": "bytes32"
                }
              ],
              "internalType": "struct TransferInfo",
              "name": "params",
              "type": "tuple"
            },
            {
              "internalType": "address[]",
              "name": "routers",
              "type": "address[]"
            },
            {
              "internalType": "bytes[]",
              "name": "routerSignatures",
              "type": "bytes[]"
            },
            {
              "internalType": "address",
              "name": "sequencer",
              "type": "address"
            },
            {
              "internalType": "bytes",
              "name": "sequencerSignature",
              "type": "bytes"
            }
          ],
          "internalType": "struct ExecuteArgs",
          "name": "_args",
          "type": "tuple"
        }
      ],
      "name": "execute",
      "outputs": [
        {
          "internalType": "bytes32",
          "name": "",
          "type": "bytes32"
        }
      ],
      "stateMutability": "nonpayable",
      "type": "function"
    },
    {
      "inputs": [
        {
          "components": [
            {
              "internalType": "uint32",
              "name": "originDomain",
              "type": "uint32"
            },
            {
              "internalType": "uint32",
              "name": "destinationDomain",
              "type": "uint32"
            },
            {
              "internalType": "uint32",
              "name": "canonicalDomain",
              "type": "uint32"
            },
            {
              "internalType": "address",
              "name": "to",
              "type": "address"
            },
            {
              "internalType": "address",
              "name": "delegate",
              "type": "address"
            },
            {
              "internalType": "bool",
              "name": "receiveLocal",
              "type": "bool"
            },
            {
              "internalType": "bytes",
              "name": "callData",
              "type": "bytes"
            },
            {
              "internalType": "uint256",
              "name": "slippage",
              "type": "uint256"
            },
            {
              "internalType": "address",
              "name": "originSender",
              "type": "address"
            },
            {
              "internalType": "uint256",
              "name": "bridgedAmt",
              "type": "uint256"
            },
            {
              "internalType": "uint256",
              "name": "normalizedIn",
              "type": "uint256"
            },
            {
              "internalType": "uint256",
              "name": "nonce",
              "type": "uint256"
            },
            {
              "internalType": "bytes32",
              "name": "canonicalId",
              "type": "bytes32"
            }
          ],
          "internalType": "struct TransferInfo",
          "name": "_params",
          "type": "tuple"
        },
        {
          "internalType": "uint256",
          "name": "_slippage",
          "type": "uint256"
        }
      ],
      "name": "forceUpdateSlippage",
      "outputs": [],
      "stateMutability": "nonpayable",
      "type": "function"
    },
    {
      "inputs": [],
      "name": "nonce",
      "outputs": [
        {
          "internalType": "uint256",
          "name": "",
          "type": "uint256"
        }
      ],
      "stateMutability": "view",
      "type": "function"
    },
    {
      "inputs": [
        {
          "internalType": "uint32",
          "name": "_domain",
          "type": "uint32"
        }
      ],
      "name": "remote",
      "outputs": [
        {
          "internalType": "address",
          "name": "",
          "type": "address"
        }
      ],
      "stateMutability": "view",
      "type": "function"
    },
    {
      "inputs": [
        {
          "internalType": "address",
          "name": "_sequencer",
          "type": "address"
        }
      ],
      "name": "removeSequencer",
      "outputs": [],
      "stateMutability": "nonpayable",
      "type": "function"
    },
    {
      "inputs": [
        {
          "internalType": "bytes32",
          "name": "_transferId",
          "type": "bytes32"
        }
      ],
      "name": "routedTransfers",
      "outputs": [
        {
          "internalType": "address[]",
          "name": "",
          "type": "address[]"
        }
      ],
      "stateMutability": "view",
      "type": "function"
    },
    {
      "inputs": [
        {
          "internalType": "address",
          "name": "_xAppConnectionManager",
          "type": "address"
        }
      ],
      "name": "setXAppConnectionManager",
      "outputs": [],
      "stateMutability": "nonpayable",
      "type": "function"
    },
    {
      "inputs": [
        {
          "internalType": "bytes32",
          "name": "_transferId",
          "type": "bytes32"
        }
      ],
      "name": "transferStatus",
      "outputs": [
        {
          "internalType": "enum DestinationTransferStatus",
          "name": "",
          "type": "uint8"
        }
      ],
      "stateMutability": "view",
      "type": "function"
    },
    {
      "inputs": [],
      "name": "xAppConnectionManager",
      "outputs": [
        {
          "internalType": "address",
          "name": "",
          "type": "address"
        }
      ],
      "stateMutability": "view",
      "type": "function"
    },
    {
      "inputs": [
        {
          "internalType": "uint32",
          "name": "_destination",
          "type": "uint32"
        },
        {
          "internalType": "address",
          "name": "_to",
          "type": "address"
        },
        {
          "internalType": "address",
          "name": "_asset",
          "type": "address"
        },
        {
          "internalType": "address",
          "name": "_delegate",
          "type": "address"
        },
        {
          "internalType": "uint256",
          "name": "_amount",
          "type": "uint256"
        },
        {
          "internalType": "uint256",
          "name": "_slippage",
          "type": "uint256"
        },
        {
          "internalType": "bytes",
          "name": "_callData",
          "type": "bytes"
        }
      ],
      "name": "xcall",
      "outputs": [
        {
          "internalType": "bytes32",
          "name": "",
          "type": "bytes32"
        }
      ],
      "stateMutability": "payable",
      "type": "function"
    },
    {
      "inputs": [
        {
          "internalType": "uint32",
          "name": "_destination",
          "type": "uint32"
        },
        {
          "internalType": "address",
          "name": "_to",
          "type": "address"
        },
        {
          "internalType": "address",
          "name": "_asset",
          "type": "address"
        },
        {
          "internalType": "address",
          "name": "_delegate",
          "type": "address"
        },
        {
          "internalType": "uint256",
          "name": "_amount",
          "type": "uint256"
        },
        {
          "internalType": "uint256",
          "name": "_slippage",
          "type": "uint256"
        },
        {
          "internalType": "bytes",
          "name": "_callData",
          "type": "bytes"
        }
      ],
      "name": "xcallIntoLocal",
      "outputs": [
        {
          "internalType": "bytes32",
          "name": "",
          "type": "bytes32"
        }
      ],
      "stateMutability": "payable",
      "type": "function"
    }
  ],
  "transactionHash": "0x9fedeffeb77f4494bc9f2eb28920142f9050fef37deee8b737bb3abd03342376",
  "args": [],
  "numDeployments": 1,
  "solcInputHash": "2cb19c6ff260c62b0df6791111e721e0",
  "bytecode": "0x608060405234801561001057600080fd5b5061566280620000216000396000f3fe6080604052600436106100fe5760003560e01c806363e3e7d21161009557806391f5de791161006457806391f5de79146102d2578063affed0e0146102e5578063b49c53a7146102fa578063bfd790301461031a578063c2fb26a61461035757600080fd5b806363e3e7d2146102515780636989ca7c1461027f5780638a3362311461029f5780638aac16ba146102bf57600080fd5b80632424401f116100d15780632424401f146101de5780633339df96146101f357806341bdc8b514610211578063541267111461023157600080fd5b806305a363de14610103578063121cca3114610130578063159e041f146101685780631a8bc0e1146101b1575b600080fd5b34801561010f57600080fd5b50610118600081565b60405161ffff90911681526020015b60405180910390f35b34801561013c57600080fd5b5061015061014b3660046146fe565b61037c565b6040516001600160a01b039091168152602001610127565b34801561017457600080fd5b506101a1610183366004614739565b6001600160a01b031660009081526027602052604090205460ff1690565b6040519015158152602001610127565b3480156101bd57600080fd5b506101d16101cc366004614756565b610399565b604051610127919061476f565b6101f16101ec366004614756565b610405565b005b3480156101ff57600080fd5b506028546001600160a01b0316610150565b34801561021d57600080fd5b506101f161022c366004614739565b610484565b34801561023d57600080fd5b506101f161024c3660046147bc565b610508565b34801561025d57600080fd5b5061027161026c366004614806565b61060a565b604051908152602001610127565b34801561028b57600080fd5b506101f161029a366004614739565b6107c2565b3480156102ab57600080fd5b506101f16102ba366004614739565b6108ba565b6102716102cd366004614840565b6109af565b6102716102e0366004614840565b610a76565b3480156102f157600080fd5b50600354610271565b34801561030657600080fd5b506101f161031536600461490d565b610b2f565b34801561032657600080fd5b5061034a610335366004614756565b6000908152600c602052604090205460ff1690565b604051610127919061495d565b34801561036357600080fd5b5060045460405163ffffffff9091168152602001610127565b63ffffffff81166000908152601260205260408120545b92915050565b6000818152600d60209081526040918290208054835181840281018401909452808452606093928301828280156103f957602002820191906000526020600020905b81546001600160a01b031681526001909101906020018083116103db575b50505050509050919050565b6020546001190161042957604051637ce54e2d60e11b815260040160405180910390fd5b600260205560235460ff161561045257604051633ee5b89360e01b815260040160405180910390fd5b34600003610473576040516348e7dc3f60e01b815260040160405180910390fd5b61047c81610c20565b506001602055565b3361048d610c92565b6001600160a01b0316141580156104c8575060033360009081526019602052604090205460ff1660038111156104c5576104c5614929565b14155b156104e657604051637b32c26b60e01b815260040160405180910390fd5b602880546001600160a01b0319166001600160a01b0392909216919091179055565b813361051a60a0830160808401614739565b6001600160a01b0316146105415760405163e3613aff60e01b815260040160405180910390fd5b61271082111561056457604051633345cd4360e11b815260040160405180910390fd5b60045463ffffffff1661057d60408501602086016146fe565b63ffffffff16146105a157604051632a8e462760e01b815260040160405180910390fd5b60006105b46105af85614a75565b610cc0565b600081815260116020526040908190208590555190915081907fb243c3cea6cd1bbfd64d5d0765f13734ca7b87fdf14e017391fe12a8891434ca906105fc9086815260200190565b60405180910390a250505050565b6020546000906001190161063157604051637ce54e2d60e11b815260040160405180910390fd5b600260205560235460ff161561065a57604051633ee5b89360e01b815260040160405180910390fd5b60008061066684610cf0565b90925090506000600182600381111561068157610681614929565b1461068d576002610690565b60035b6000848152600c602052604090208054919250829160ff191660018360038111156106bd576106bd614929565b021790555060008080610718866106fc6106d78b80614b6a565b61018001356106e68c80614b6a565b6106f79060608101906040016146fe565b6110b1565b600387600381111561071057610710614929565b14158b6110f3565b9194509250905060006107428985858a60038a600381111561073c5761073c614929565b146115c8565b90506001600160a01b0383166107588a80614b6a565b610769906080810190606001614739565b6001600160a01b0316887f0b07a8b0b083f8976b3c832b720632f49cb8ba1e7a99e1b145f51a47d3391cb78c8686336040516107a89493929190614ce7565b60405180910390a450506001602055509295945050505050565b336107cb610c92565b6001600160a01b031614158015610806575060033360009081526019602052604090205460ff16600381111561080357610803614929565b14155b1561082457604051637b32c26b60e01b815260040160405180910390fd5b6001600160a01b03811660009081526027602052604090205460ff1661085d57604051637840a40d60e01b815260040160405180910390fd5b6001600160a01b038116600081815260276020908152604091829020805460ff19169055815192835233908301527f4860b0a180d4b5969c2757493a999f05d0b22318320f154a02170aa239e24b1391015b60405180910390a150565b336108c3610c92565b6001600160a01b0316141580156108fe575060033360009081526019602052604090205460ff1660038111156108fb576108fb614929565b14155b1561091c57604051637b32c26b60e01b815260040160405180910390fd5b6001600160a01b03811660009081526027602052604090205460ff16156109565760405163e2a4506360e01b815260040160405180910390fd5b6001600160a01b038116600081815260276020908152604091829020805460ff19166001179055815192835233908301527f3860a100215fe93b6b95ed1ae0870e538f85a73b30d073f63fefc60e08b0c12491016108af565b604080516101a08101825260045463ffffffff90811682528a1660208083019190915260008284018190526001600160a01b03808c1660608501528916608084015260a083018190528351601f86018390048302810183019094528484529283929160c0830191908790879081908401838280828437600092018290525093855250505060208201889052336040830152606082018190526080820181905260a0820181905260c0909101529050610a68818988611611565b9a9950505050505050505050565b604080516101a08101825260045463ffffffff90811682528a1660208083019190915260008284018190526001600160a01b03808c16606085015289166080840152600160a08401528351601f86018390048302810183019094528484529283929160c0830191908790879081908401838280828437600092018290525093855250505060208201889052336040830152606082018190526080820181905260a0820181905260c0909101529050610a68818988611611565b33610b38610c92565b6001600160a01b031614158015610b73575060033360009081526019602052604090205460ff166003811115610b7057610b70614929565b14155b15610b9157604051637b32c26b60e01b815260040160405180910390fd5b60045463ffffffff90811690831603610bbd57604051632892757b60e21b815260040160405180910390fd5b63ffffffff821660008181526012602090815260409182902084905581519283526001600160a01b038416908301523382820152517fb07f562723347d6ea7f9f37b3b31f96b65104c3339d1c89e1b6fa88e2410b85c9181900360600190a15050565b6002546001600160a01b031680610c4a57604051630bd7619560e41b815260040160405180910390fd5b610c54813461197c565b6040805134815233602082015283917ffd832caf789e0dadd0e7ed643b3ea6051fa26c48516e242ca4cb3db9eda6c8ec910160405180910390a25050565b7fc8fcad8db84d3cc18b4c41d551ea0ee66dd599cde068d998e57d5e09332c1320546001600160a01b031690565b600081604051602001610cd39190615069565b604051602081830303815290604052805190602001209050919050565b336000908152600f6020526040812054819060ff16158015610d3e5750610d178380614b6a565b610d289060a0810190608001614739565b6001600160a01b0316336001600160a01b031614155b15610d5c57604051637c32a2b360e01b815260040160405180910390fd5b60045463ffffffff16610d6f8480614b6a565b610d809060408101906020016146fe565b63ffffffff1614610da45760405163b6bb322560e01b815260040160405180910390fd5b6000610db3602085018561507c565b915060009050610dcf610dc68680614b6a565b6105af90614a75565b6000818152600c602052604090205490915060ff16821561107457601054831115610e0d576040516313c06ef360e01b815260040160405180910390fd5b6000816003811115610e2157610e21614929565b14610e3f57604051630caaeb0b60e11b815260040160405180910390fd5b60276000610e536080890160608a01614739565b6001600160a01b0316815260208101919091526040016000205460ff16610e8d57604051631fa09b5360e31b815260040160405180910390fd5b610eda82610e9e602089018961507c565b604051602001610eb0939291906150c5565b60408051601f198184030181529190528051602090910120610ed560808901896150df565b611a9f565b6001600160a01b0316610ef36080880160608901614739565b6001600160a01b031614610f1a57604051638579eca560e01b815260040160405180910390fd5b6040805160208082018590528183018690528251808303840181526060909201909252805191012060005b8481101561106d57610f55611af1565b158015610fb25750601a6000610f6e60208b018b61507c565b84818110610f7e57610f7e615125565b9050602002016020810190610f939190614739565b6001600160a01b0316815260208101919091526040016000205460ff16155b15610fd057604051630e1eb7f760e31b815260040160405180910390fd5b61100382610fe160408b018b61507c565b84818110610ff157610ff1615125565b9050602002810190610ed591906150df565b6001600160a01b031661101960208a018a61507c565b8381811061102957611029615125565b905060200201602081019061103e9190614739565b6001600160a01b03161461106557604051633a1dd23360e21b815260040160405180910390fd5b600101610f45565b50506110a6565b600181600381111561108857611088614929565b146110a657604051636320d2cf60e11b815260040160405180910390fd5b909590945092505050565b600082826040516020016110d592919091825263ffffffff16602082015260400190565b60405160208183030381529060405280519060200120905092915050565b60008080611104602085018561507c565b6000898152600d6020526040902061111d929091614672565b5060006111538761112e8780614b6a565b610180013561113d8880614b6a565b61114e9060608101906040016146fe565b611b18565b905061115f8580614b6a565b6101200135600003611179576000935091508190506115be565b60006111858680614b6a565b61012001359050861561153e5760006111a1602088018861507c565b91506111c590506111b28880614b6a565b6101200135600060010154612710611b27565b9150806001036113cf576111d98780614b6a565b6111ea9060c081019060a00161513b565b158015611256575081600e600061120460208b018b61507c565b600081811061121557611215615125565b905060200201602081019061122a9190614739565b6001600160a01b0390811682526020808301939093526040918201600090812091881681529252902054105b8015611271575060235461010090046001600160a01b031615155b1561133a57601b600061128760208a018a61507c565b600081811061129857611298615125565b90506020020160208101906112ad9190614739565b6001600160a01b0316815260208101919091526040016000205460ff166112e7576040516310c4e50960e01b815260040160405180910390fd5b6000806113288c8c866112fd60208e018e61507c565b600081811061130e5761130e615125565b90506020020160208101906113239190614739565b611b3e565b90985096509394506115be9350505050565b81600e600061134c60208b018b61507c565b600081811061135d5761135d615125565b90506020020160208101906113729190614739565b6001600160a01b03166001600160a01b031681526020019081526020016000206000856001600160a01b03166001600160a01b0316815260200190815260200160002060008282546113c4919061516e565b9091555061153c9050565b60006113db828461519b565b905060005b6113eb60018461516e565b8110156114885781600e600061140460208d018d61507c565b8581811061141457611414615125565b90506020020160208101906114299190614739565b6001600160a01b03166001600160a01b031681526020019081526020016000206000876001600160a01b03166001600160a01b03168152602001908152602001600020600082825461147b919061516e565b90915550506001016113e0565b50600061149583856151af565b61149f90836151c3565b905080600e60006114b360208d018d61507c565b6114be60018961516e565b8181106114cd576114cd615125565b90506020020160208101906114e29190614739565b6001600160a01b03166001600160a01b031681526020019081526020016000206000876001600160a01b03166001600160a01b031681526020019081526020016000206000828254611534919061516e565b909155505050505b505b6115488680614b6a565b6115599060c081019060a00161513b565b1561156a57935091508190506115be565b60008981526011602052604081205490806115b18b868686850361159b576115928d80614b6a565b60e0013561159d565b865b6115a78e80614b6a565b6101400135611d0a565b9098509650939450505050505b9450945094915050565b60006115ef846115d88880614b6a565b6115e9906080810190606001614739565b87611ddd565b611605838686856116008b80614b6a565b611e1c565b50835b95945050505050565b60235460009060ff161561163857604051633ee5b89360e01b815260040160405180910390fd5b60006001600160a01b03841615801561165057508215155b1561166e5760405163ae715ad360e01b815260040160405180910390fd5b61167b8560200151612013565b60608601519091506001600160a01b03166116a85760405162845fdd60e41b815260040160405180910390fd5b6127108560e0015111156116cf5760405163388d723160e11b815260040160405180910390fd5b604080518082019091526000808252602082018190529081906000806001600160a01b03891615611824576117038961204c565b6020820151825192955090925061171c91839190611b18565b83518b5191965063ffffffff918216911614801561174b5750886001600160a01b0316856001600160a01b0316145b9150811561180b576040516370a0823160e01b815230600482015260009089906001600160a01b038816906370a0823190602401602060405180830381865afa15801561179c573d6000803e3d6000fd5b505050506040513d601f19601f820116820180604052508101906117c091906151db565b6117ca91906151c3565b60008381526007602052604090205490915080158015906117ea57508082115b15611808576040516348ba8bf160e01b815260040160405180910390fd5b50505b825163ffffffff1660408b015260208301516101808b01525b871561184c5761183489896120d0565b611845818a878b8e60e00151612210565b6101208b01525b6001600160a01b038916156118cd576118c8896001600160a01b031663313ce5676040518163ffffffff1660e01b8152600401602060405180830381865afa15801561189c573d6000803e3d6000fd5b505050506040513d601f19601f820116820180604052508101906118c091906151f4565b60128a612324565b6118d0565b60005b6101408b0152600380549060006118e683615217565b909155506101608b01526118f98a610cc0565b935050341561190b5761190b83610c20565b6000611925848b602001518886898f61012001518861238f565b9050808a6101600151857f20e46be18a5337a5e2c807dcecc16382a2c9d4f4a4620ef7492c620fb89e9e228d8d8d8b6040516119649493929190615230565b60405180910390a450919450505050505b9392505050565b804710156119d15760405162461bcd60e51b815260206004820152601d60248201527f416464726573733a20696e73756666696369656e742062616c616e636500000060448201526064015b60405180910390fd5b6000826001600160a01b03168260405160006040518083038185875af1925050503d8060008114611a1e576040519150601f19603f3d011682016040523d82523d6000602084013e611a23565b606091505b5050905080611a9a5760405162461bcd60e51b815260206004820152603a60248201527f416464726573733a20756e61626c6520746f2073656e642076616c75652c207260448201527f6563697069656e74206d6179206861766520726576657274656400000000000060648201526084016119c8565b505050565b6000611ae9611aad85612528565b84848080601f01602080910402602001604051908101604052809392919081815260200183838082843760009201919091525061256392505050565b949350505050565b600080611afc610c92565b6001600160a01b03161480611b13575060155460ff165b905090565b6000611ae98484846000612587565b600081611b34848661526c565b611ae9919061519b565b6000806000611b4c866125c5565b6023546040516369a933a560e01b81526001600160a01b0380841660048301526024820189905230604483015260006064830152929350610100909104909116906369a933a590608401600060405180830381600087803b158015611bb057600080fd5b505af1158015611bc4573d6000803e3d6000fd5b5050602354604051631a4ca37b60e21b81526001600160a01b038581166004830152602482018a90523060448301526000945061010090920490911691506369328dec906064016020604051808303816000875af1158015611c2a573d6000803e3d6000fd5b505050506040513d601f19601f82011682018060405250810190611c4e91906151db565b905085811015611c715760405163407559a360e11b815260040160405180910390fd5b600088815260256020526040902086905560245461271090611c9490889061526c565b611c9e919061519b565b6000898152602660209081526040918290209290925580516001600160a01b038581168252928101899052918716918a917f2d3ba0fa5be2ef8cb1ec8920a07a6cbccc2397b18ca3e70f48ea695500b8f218910160405180910390a35084925090505b94509492505050565b6000858152600a6020526040812054819081906001600160a01b039081169088168103611d3e578688935093505050611dd3565b86600003611d52578693509150611dd39050565b611dcc8989838a611dc76012876001600160a01b031663313ce5676040518163ffffffff1660e01b8152600401602060405180830381865afa158015611d9c573d6000803e3d6000fd5b505050506040513d601f19601f82011682018060405250810190611dc091906151f4565b8c8e6125fb565b612647565b9350935050505b9550959350505050565b80600003611dea57505050565b6001600160a01b038316611e1157604051633a48ca7b60e11b815260040160405180910390fd5b611a9a838383612774565b7fc5d2460186f7233c927e7db2dcc703c0e500b653ca82273b7bfad8045d85a470611e4a60c08301836150df565b604051611e5892919061528b565b6040518091039020031561200c57600060608315611f2257611f18611e836080850160608601614739565b6127105a611e91919061516e565b600061010063fd614f4160e01b8c8c8c611eb16101208d018d8701614739565b611ebe60208e018e6146fe565b611ecb60c08f018f6150df565b604051602401611ee1979695949392919061529b565b60408051601f198184030181529190526020810180516001600160e01b03166001600160e01b0319909316929092179091526127d7565b9092509050611fcf565b611f326080840160608501614739565b6001600160a01b031663fd614f418888886000611f5260208a018a6146fe565b611f5f60c08b018b6150df565b6040518863ffffffff1660e01b8152600401611f81979695949392919061529b565b6000604051808303816000875af1158015611fa0573d6000803e3d6000fd5b505050506040513d6000823e601f3d908101601f19168201604052611fc891908101906152ee565b9050600191505b867fb1a4ab59facaedd6d3a71da3902e0a1fa5b99750c0e20cd878334378a41cb335838360405161200192919061535b565b60405180910390a250505b5050505050565b63ffffffff81166000908152601260205260409020548061204757604051630c3bcd4960e41b815260040160405180910390fd5b919050565b604080518082019091526000808252602082015260008061206c84612861565b90506000612082826020015183600001516110b1565b905061208c612880565b1580156120a8575060008181526006602052604090205460ff16155b156120c65760405163d7ad34f160e01b815260040160405180910390fd5b9094909350915050565b806000036120dc575050565b6001600160a01b03821661210357604051632a38b13360e01b815260040160405180910390fd5b6040516370a0823160e01b81523060048201526000906001600160a01b038416906370a0823190602401602060405180830381865afa15801561214a573d6000803e3d6000fd5b505050506040513d601f19601f8201168201806040525081019061216e91906151db565b905061217c833330856128a5565b6040516370a0823160e01b8152306004820152829082906001600160a01b038616906370a0823190602401602060405180830381865afa1580156121c4573d6000803e3d6000fd5b505050506040513d601f19601f820116820180604052508101906121e891906151db565b6121f2919061516e565b14611a9a57604051630e40773560e21b815260040160405180910390fd5b600082600003612221575081611608565b846001600160a01b0316846001600160a01b031603612241575081611608565b600061231887878787611dc78b6001600160a01b031663313ce5676040518163ffffffff1660e01b8152600401602060405180830381865afa15801561228b573d6000803e3d6000fd5b505050506040513d601f19601f820116820180604052508101906122af91906151f4565b8b6001600160a01b031663313ce5676040518163ffffffff1660e01b8152600401602060405180830381865afa1580156122ed573d6000803e3d6000fd5b505050506040513d601f19601f8201168201806040525081019061231191906151f4565b8b8b6125fb565b50979650505050505050565b60008260ff168460ff160361233a575080611975565b60008360ff168560ff161015612370576123548585615376565b61235f90600a61547d565b612369908461526c565b9050611ae9565b61237a8486615376565b61238590600a61547d565b611608908461519b565b83516020850151600091859183916123a6916128e3565b90508415612414578361241457604051632770a7eb60e21b8152306004820152602481018690526001600160a01b03831690639dc29fac90604401600060405180830381600087803b1580156123fb57600080fd5b505af115801561240f573d6000803e3d6000fd5b505050505b6000612420868c612922565b905060008060280160009054906101000a90046001600160a01b03166001600160a01b0316639fa92f9d6040518163ffffffff1660e01b8152600401602060405180830381865afa158015612479573d6000803e3d6000fd5b505050506040513d601f19601f8201168201806040525081019061249d919061548c565b6001600160a01b031663fa31de018c8c6124b7878761293e565b6040518463ffffffff1660e01b81526004016124d5939291906154a9565b6020604051808303816000875af11580156124f4573d6000803e3d6000fd5b505050506040513d601f19601f8201168201806040525081019061251891906151db565b9c9b505050505050505050505050565b6040517f19457468657265756d205369676e6564204d6573736167653a0a3332000000006020820152603c8101829052600090605c01610cd3565b60008060006125728585612a14565b9150915061257f81612a59565b509392505050565b600481015460009063ffffffff908116908416036125a6575082611ae9565b506000938452600b01602052505060409020546001600160a01b031690565b6000818152600a60205260408120546001600160a01b03168061039357604051634cdfde3760e11b815260040160405180910390fd5b60008260000361260d57506000611ae9565b600061271061261c848261516e565b612626908661526c565b612630919061519b565b905061263d868683612324565b9695505050505050565b600085815260216020526040812060088101548291829115612690576126846126708a8a612c12565b61267a8b8a612c12565b8391908989612c92565b87935093505050611dd3565b60008981526005830160205260408120546001600160a01b0316906126b8908a908390612f55565b6126c389828961306a565b6001600160a01b03811663d460f0a2888b8b8a6126e242610e106151c3565b6040516001600160e01b031960e088901b16815260048101959095526001600160a01b0393841660248601529290911660448401526064830152608482015260a4016020604051808303816000875af1158015612743573d6000803e3d6000fd5b505050506040513d601f19601f8201168201806040525081019061276791906151db565b8894509450505050611dd3565b6040516001600160a01b038316602482015260448101829052611a9a90849063a9059cbb60e01b906064015b60408051601f198184030181529190526020810180516001600160e01b03166001600160e01b03199093169290921790915261311c565b6000606060008060008661ffff166001600160401b038111156127fc576127fc614970565b6040519080825280601f01601f191660200182016040528015612826576020820181803683370190505b5090506000808751602089018b8e8ef191503d925086831115612847578692505b828152826000602083013e90999098509650505050505050565b60408051808201909152600080825260208201526103938260006131ee565b60008061288b610c92565b6001600160a01b03161480611b1357505060175460ff1690565b6040516001600160a01b03808516602483015283166044820152606481018290526128dd9085906323b872dd60e01b906084016127a0565b50505050565b600061197560016040516001600160e01b031960e087901b166020820152602481018590526044015b60408051601f19818403018152919052906132e6565b6000611975600380858560405160200161290c939291906154ce565b606082600161295362ffffff19831682613301565b5061295d846133da565b6129935760405162461bcd60e51b815260206004820152600760248201526610b0b1ba34b7b760c91b60448201526064016119c8565b60408051600280825260608201835260009260208301908036833701905050905085816000815181106129c8576129c8615125565b602002602001019062ffffff1916908162ffffff19168152505084816001815181106129f6576129f6615125565b62ffffff199092166020928302919091019091015261263d816133e5565b6000808251604103612a4a5760208301516040840151606085015160001a612a3e8782858561343a565b94509450505050612a52565b506000905060025b9250929050565b6000816004811115612a6d57612a6d614929565b03612a755750565b6001816004811115612a8957612a89614929565b03612ad65760405162461bcd60e51b815260206004820152601860248201527f45434453413a20696e76616c6964207369676e6174757265000000000000000060448201526064016119c8565b6002816004811115612aea57612aea614929565b03612b375760405162461bcd60e51b815260206004820152601f60248201527f45434453413a20696e76616c6964207369676e6174757265206c656e6774680060448201526064016119c8565b6003816004811115612b4b57612b4b614929565b03612ba35760405162461bcd60e51b815260206004820152602260248201527f45434453413a20696e76616c6964207369676e6174757265202773272076616c604482015261756560f01b60648201526084016119c8565b6004816004811115612bb757612bb7614929565b03612c0f5760405162461bcd60e51b815260206004820152602260248201527f45434453413a20696e76616c6964207369676e6174757265202776272076616c604482015261756560f01b60648201526084016119c8565b50565b60008281526022602090815260408083206001600160a01b0385168085529083528184205486855260219093529083206008018054849360ff1692919083908110612c5f57612c5f615125565b6000918252602090912001546001600160a01b031614611ae95760405163054e442960e41b815260040160405180910390fd5b600085600a018560ff1681548110612cac57612cac615125565b9060005260206000200154831115612cff5760405162461bcd60e51b81526020600482015260166024820152756d6f7265207468616e20706f6f6c2062616c616e636560501b60448201526064016119c8565b600080600088600a01805480602002602001604051908101604052809291908181526020018280548015612d5257602002820191906000526020600020905b815481526020019060010190808311612d3e575b50505050509050612d668989898985613524565b909350915084831015612da85760405162461bcd60e51b815260206004820152600a6024820152696479203c206d696e447960b01b60448201526064016119c8565b6000896009018860ff1681548110612dc257612dc2615125565b90600052602060002001546402540be4008b6006015485612de3919061526c565b612ded919061519b565b612df7919061519b565b905086828a60ff1681518110612e0f57612e0f615125565b6020026020010151612e2191906151c3565b8a600a018a60ff1681548110612e3957612e39615125565b90600052602060002001819055508084838a60ff1681518110612e5e57612e5e615125565b6020026020010151612e70919061516e565b612e7a919061516e565b8a600a018960ff1681548110612e9257612e92615125565b6000918252602090912001558015612ef757808a600b018960ff1681548110612ebd57612ebd615125565b9060005260206000200154612ed291906151c3565b8a600b018960ff1681548110612eea57612eea615125565b6000918252602090912001555b8954604080518981526020810187905260ff8c8116828401528b16606082015290513392917f28d4cf2d5709da3b474b5f05cfd7083faffd601f9500d1f8439b8a13ec7df320919081900360800190a3509198975050505050505050565b801580612fcf5750604051636eb1769f60e11b81523060048201526001600160a01b03838116602483015284169063dd62ed3e90604401602060405180830381865afa158015612fa9573d6000803e3d6000fd5b505050506040513d601f19601f82011682018060405250810190612fcd91906151db565b155b61303a5760405162461bcd60e51b815260206004820152603660248201527f5361666545524332303a20617070726f76652066726f6d206e6f6e2d7a65726f60448201527520746f206e6f6e2d7a65726f20616c6c6f77616e636560501b60648201526084016119c8565b6040516001600160a01b038316602482015260448101829052611a9a90849063095ea7b360e01b906064016127a0565b604051636eb1769f60e11b81523060048201526001600160a01b038381166024830152600091839186169063dd62ed3e90604401602060405180830381865afa1580156130bb573d6000803e3d6000fd5b505050506040513d601f19601f820116820180604052508101906130df91906151db565b6130e991906151c3565b6040516001600160a01b0385166024820152604481018290529091506128dd90859063095ea7b360e01b906064016127a0565b6000613171826040518060400160405280602081526020017f5361666545524332303a206c6f772d6c6576656c2063616c6c206661696c6564815250856001600160a01b03166136ea9092919063ffffffff16565b805190915015611a9a578080602001905181019061318f91906154f2565b611a9a5760405162461bcd60e51b815260206004820152602a60248201527f5361666545524332303a204552433230206f7065726174696f6e20646964206e6044820152691bdd081cdd58d8d9595960b21b60648201526084016119c8565b604080518082019091526000808252602082015260408051808201909152600080825260208201526001600160a01b03841661322b579050610393565b506001600160a01b03831660009081526008830160209081526040918290208251808401909352805463ffffffff168084526001909101549183019190915215613276579050610393565b61328084846136f9565b156132a657600483015463ffffffff1681526001600160a01b0384166020820152611975565b506001600160a01b03831660009081526009830160209081526040918290208251808401909352805463ffffffff16835260010154908201529392505050565b81516000906020840161160864ffffffffff8516828461372f565b600061330d8383613776565b6133d357600061332c6133208560d81c90565b64ffffffffff16613799565b91505060006133418464ffffffffff16613799565b6040517f5479706520617373657274696f6e206661696c65642e20476f7420307800000060208201526001600160b01b031960b086811b8216603d8401526c05c408af0e0cac6e8cac84060f609b1b604784015283901b16605482015290925060009150605e0160405160208183030381529060405290508060405162461bcd60e51b81526004016119c8919061550f565b5090919050565b600061039382613847565b60405160609060006133fa8460208401613854565b905060006134118260181c6001600160601b031690565b6001600160601b031690506000613427836138e4565b9184525082016020016040525092915050565b6000807f7fffffffffffffffffffffffffffffff5d576e7357a4501ddfe92f46681b20a08311156134715750600090506003611d01565b8460ff16601b1415801561348957508460ff16601c14155b1561349a5750600090506004611d01565b6040805160008082526020820180845289905260ff881692820192909252606081018690526080810185905260019060a0016020604051602081039080840390855afa1580156134ee573d6000803e3d6000fd5b5050604051601f1901519150506001600160a01b03811661351757600060019250925050611d01565b9660009650945050505050565b60008060008760090180548060200260200160405190810160405280929190818152602001828054801561357757602002820191906000526020600020905b815481526020019060010190808311613563575b50505050509050600061358a85836138fa565b905080518860ff161080156135a2575080518760ff16105b6135e35760405162461bcd60e51b8152602060048201526012602482015271696e646578206f7574206f662072616e676560701b60448201526064016119c8565b6000818960ff16815181106135fa576135fa615125565b6020026020010151838a60ff168151811061361757613617615125565b60200260200101518861362a919061526c565b61363491906151c3565b9050600061364d6136448c613a04565b8b8b8587613a0f565b9050600181848b60ff168151811061366757613667615125565b6020026020010151613679919061516e565b613683919061516e565b95506402540be4008b600501548761369b919061526c565b6136a5919061519b565b9450838960ff16815181106136bc576136bc615125565b602002602001015185876136d0919061516e565b6136da919061519b565b9550505050509550959350505050565b6060611ae98484600085613c76565b6001600160a01b038216600090815260098201602052604081205463ffffffff161561372757506000610393565b50503b151590565b60008061373c83856151c3565b905060405181111561374c575060005b806000036137615762ffffff19915050611975565b5050606092831b9190911790911b1760181b90565b60008164ffffffffff1661378a8460d81c90565b64ffffffffff16149392505050565b600080601f5b600f8160ff1611156137ee5760006137b8826008615522565b60ff1685901c90506137c981613da7565b61ffff16841793508160ff166010146137e457601084901b93505b506000190161379f565b50600f5b60ff8160ff16101561384157600061380b826008615522565b60ff1685901c905061381c81613da7565b61ffff16831792508160ff1660001461383757601083901b92505b50600019016137f2565b50915091565b6000610393826003613dd9565b6000604051828111156138675760206060fd5b506000805b84518110156138d457600085828151811061388957613889615125565b6020026020010151905061389f81848701613e38565b506138b38160181c6001600160601b031690565b6001600160601b0316830192505080806138cc90615217565b91505061386c565b50606083901b811760181b611ae9565b60006138ef82613f8f565b61039390602061526c565b815181516060919081146139475760405162461bcd60e51b81526020600482015260146024820152736d69736d61746368206d756c7469706c6965727360601b60448201526064016119c8565b6000816001600160401b0381111561396157613961614970565b60405190808252806020026020018201604052801561398a578160200160208202803683370190505b50905060005b828110156139fb578481815181106139aa576139aa615125565b60200260200101518682815181106139c4576139c4615125565b60200260200101516139d6919061526c565b8282815181106139e8576139e8615125565b6020908102919091010152600101613990565b50949350505050565b600061039382613fc4565b805160009060ff80861690871603613a695760405162461bcd60e51b815260206004820152601760248201527f636f6d7061726520746f6b656e20746f20697473656c6600000000000000000060448201526064016119c8565b808660ff16108015613a7d5750808560ff16105b613abb5760405162461bcd60e51b815260206004820152600f60248201526e1d1bdad95b881b9bdd08199bdd5b99608a1b60448201526064016119c8565b6000613ac78489614064565b905080600080613ad78b8661526c565b90506000805b86811015613b5e578b60ff168103613af757899150613b2a565b8a60ff168114613b2257888181518110613b1357613b13615125565b60200260200101519150613b2a565b600101613add565b613b3482856151c3565b9350613b40878361526c565b613b4a878761526c565b613b54919061519b565b9450600101613add565b50613b69868361526c565b6064613b75878761526c565b613b7f919061526c565b613b89919061519b565b9350600082613b9960648861526c565b613ba3919061519b565b613bad90856151c3565b9050600086815b610100811015613c2d578192508884836002613bd0919061526c565b613bda91906151c3565b613be4919061516e565b88613bef848061526c565b613bf991906151c3565b613c03919061519b565b9150613c0f8284614211565b15613c2557509850611608975050505050505050565b600101613bb4565b5060405162461bcd60e51b815260206004820152601e60248201527f417070726f78696d6174696f6e20646964206e6f7420636f6e7665726765000060448201526064016119c8565b606082471015613cd75760405162461bcd60e51b815260206004820152602660248201527f416464726573733a20696e73756666696369656e742062616c616e636520666f6044820152651c8818d85b1b60d21b60648201526084016119c8565b6001600160a01b0385163b613d2e5760405162461bcd60e51b815260206004820152601d60248201527f416464726573733a2063616c6c20746f206e6f6e2d636f6e747261637400000060448201526064016119c8565b600080866001600160a01b03168587604051613d4a9190615543565b60006040518083038185875af1925050503d8060008114613d87576040519150601f19603f3d011682016040523d82523d6000602084013e613d8c565b606091505b5091509150613d9c828286614228565b979650505050505050565b6000613db960048360ff16901c614261565b60ff1661ffff919091161760081b613dd082614261565b60ff1617919050565b6000816003811115613ded57613ded614929565b60ff16613df9846143ae565b60ff161480156119755750816003811115613e1657613e16614929565b613e1f846143c2565b6003811115613e3057613e30614929565b149392505050565b600062ffffff1980841603613ea05760405162461bcd60e51b815260206004820152602860248201527f54797065644d656d566965772f636f7079546f202d204e756c6c20706f696e7460448201526732b9103232b932b360c11b60648201526084016119c8565b613ea9836143dd565b613f095760405162461bcd60e51b815260206004820152602b60248201527f54797065644d656d566965772f636f7079546f202d20496e76616c696420706f60448201526a34b73a32b9103232b932b360a91b60648201526084016119c8565b6000613f1e8460181c6001600160601b031690565b6001600160601b031690506000613f3e8560781c6001600160601b031690565b6001600160601b031690506000604051905084811115613f5e5760206060fd5b8285848460045afa5061263d613f748760d81c90565b64ffffffffff60601b606091821b168717901b841760181b90565b60006020613fa68360181c6001600160601b031690565b613fba906001600160601b0316601f6151c3565b610393919061519b565b60048101546002820154600091904282111561197557600384015460018501548083111561402857613ff6828561516e565b614000834261516e565b61400a838661516e565b614014919061526c565b61401e919061519b565b61263d90826151c3565b614032828561516e565b61403c834261516e565b614046858461516e565b614050919061526c565b61405a919061519b565b61263d908261516e565b815160009081805b828110156140a35785818151811061408657614086615125565b60200260200101518261409991906151c3565b915060010161406c565b50806000036140b757600092505050610393565b600081816140c5858861526c565b905060005b6101008110156141d2578260005b8781101561412357878b82815181106140f3576140f3615125565b6020026020010151614105919061526c565b61410f868461526c565b614119919061519b565b91506001016140d8565b508394508087600161413591906151c3565b61413f919061526c565b60648561414c828761516e565b614156919061526c565b614160919061519b565b61416a91906151c3565b84614175898461526c565b60646141818a8861526c565b61418b919061519b565b61419591906151c3565b61419f919061526c565b6141a9919061519b565b93506141b58486614211565b156141c95783975050505050505050610393565b506001016140ca565b5060405162461bcd60e51b81526020600482015260136024820152724420646f6573206e6f7420636f6e766572676560681b60448201526064016119c8565b6000600161421f848461441a565b11159392505050565b60608315614237575081611975565b8251156142475782518084602001fd5b8160405162461bcd60e51b81526004016119c8919061550f565b600060f08083179060ff8216900361427c5750603092915050565b8060ff1660f1036142905750603192915050565b8060ff1660f2036142a45750603292915050565b8060ff1660f3036142b85750603392915050565b8060ff1660f4036142cc5750603492915050565b8060ff1660f5036142e05750603592915050565b8060ff1660f6036142f45750603692915050565b8060ff1660f7036143085750603792915050565b8060ff1660f80361431c5750603892915050565b8060ff1660f9036143305750603992915050565b8060ff1660fa036143445750606192915050565b8060ff1660fb036143585750606292915050565b8060ff1660fc0361436c5750606392915050565b8060ff1660fd036143805750606492915050565b8060ff1660fe036143945750606592915050565b8060ff1660ff036143a85750606692915050565b50919050565b600061039362ffffff19831682600161443f565b600060d882901c60ff16600381111561039357610393614929565b60006143e98260d81c90565b64ffffffffff1664ffffffffff0361440357506000919050565b600061440e8361446f565b60405110199392505050565b6000818311156144355761442e828461516e565b9050610393565b611975838361516e565b600061444c826020615376565b614457906008615522565b60ff166144658585856144a8565b901c949350505050565b60006144848260181c6001600160601b031690565b6144978360781c6001600160601b031690565b016001600160601b03169050919050565b60008160ff166000036144bd57506000611975565b6144d08460181c6001600160601b031690565b6001600160601b03166144e660ff8416856151c3565b111561454a576145316145028560781c6001600160601b031690565b6001600160601b031661451e8660181c6001600160601b031690565b6001600160601b0316858560ff16614604565b60405162461bcd60e51b81526004016119c8919061550f565b60208260ff1611156145c45760405162461bcd60e51b815260206004820152603a60248201527f54797065644d656d566965772f696e646578202d20417474656d70746564207460448201527f6f20696e646578206d6f7265207468616e20333220627974657300000000000060648201526084016119c8565b6008820260006145dd8660781c6001600160601b031690565b6001600160601b031690506000600160ff1b60001984011d91909501511695945050505050565b6060600061461186613799565b915050600061461f86613799565b915050600061462d86613799565b915050600061463b86613799565b915050838383836040516020016146559493929190615555565b604051602081830303815290604052945050505050949350505050565b8280548282559060005260206000209081019282156146c5579160200282015b828111156146c55781546001600160a01b0319166001600160a01b03843516178255602090920191600190910190614692565b506146d19291506146d5565b5090565b5b808211156146d157600081556001016146d6565b803563ffffffff8116811461204757600080fd5b60006020828403121561471057600080fd5b611975826146ea565b6001600160a01b0381168114612c0f57600080fd5b803561204781614719565b60006020828403121561474b57600080fd5b813561197581614719565b60006020828403121561476857600080fd5b5035919050565b6020808252825182820181905260009190848201906040850190845b818110156147b05783516001600160a01b03168352928401929184019160010161478b565b50909695505050505050565b600080604083850312156147cf57600080fd5b82356001600160401b038111156147e557600080fd5b83016101a081860312156147f857600080fd5b946020939093013593505050565b60006020828403121561481857600080fd5b81356001600160401b0381111561482e57600080fd5b820160a0818503121561197557600080fd5b60008060008060008060008060e0898b03121561485c57600080fd5b614865896146ea565b9750602089013561487581614719565b9650604089013561488581614719565b9550606089013561489581614719565b94506080890135935060a0890135925060c08901356001600160401b03808211156148bf57600080fd5b818b0191508b601f8301126148d357600080fd5b8135818111156148e257600080fd5b8c60208285010111156148f457600080fd5b6020830194508093505050509295985092959890939650565b6000806040838503121561492057600080fd5b6147f8836146ea565b634e487b7160e01b600052602160045260246000fd5b60048110612c0f57634e487b7160e01b600052602160045260246000fd5b6020810161496a8361493f565b91905290565b634e487b7160e01b600052604160045260246000fd5b6040516101a081016001600160401b03811182821017156149a9576149a9614970565b60405290565b604051601f8201601f191681016001600160401b03811182821017156149d7576149d7614970565b604052919050565b8015158114612c0f57600080fd5b8035612047816149df565b60006001600160401b03821115614a1157614a11614970565b50601f01601f191660200190565b600082601f830112614a3057600080fd5b8135614a43614a3e826149f8565b6149af565b818152846020838601011115614a5857600080fd5b816020850160208301376000918101602001919091529392505050565b60006101a08236031215614a8857600080fd5b614a90614986565b614a99836146ea565b8152614aa7602084016146ea565b6020820152614ab8604084016146ea565b6040820152614ac96060840161472e565b6060820152614ada6080840161472e565b6080820152614aeb60a084016149ed565b60a082015260c08301356001600160401b03811115614b0957600080fd5b614b1536828601614a1f565b60c08301525060e083013560e0820152610100614b3381850161472e565b9082015261012083810135908201526101408084013590820152610160808401359082015261018092830135928101929092525090565b6000823561019e19833603018112614b8157600080fd5b9190910192915050565b6000808335601e19843603018112614ba257600080fd5b83016020810192503590506001600160401b03811115614bc157600080fd5b803603821315612a5257600080fd5b81835281816020850137506000828201602090810191909152601f909101601f19169091010190565b6000808335601e19843603018112614c1057600080fd5b83016020810192503590506001600160401b03811115614c2f57600080fd5b8060051b3603821315612a5257600080fd5b8183526000602080850194508260005b85811015614c7f578135614c6481614719565b6001600160a01b031687529582019590820190600101614c51565b509495945050505050565b81835260006020808501808196508560051b810191508460005b87811015614cda578284038952614cbb8288614b8b565b614cc6868284614bd0565b9a87019a9550505090840190600101614ca4565b5091979650505050505050565b608081526000610120863561019e19883603018112614d0557600080fd5b60a060808501528701614d27828501614d1d836146ea565b63ffffffff169052565b614d33602082016146ea565b610140614d478187018363ffffffff169052565b614d53604084016146ea565b9150610160614d698188018463ffffffff169052565b614d756060850161472e565b9250610180614d8e818901856001600160a01b03169052565b614d9a6080860161472e565b93506101a0614db3818a01866001600160a01b03169052565b614dbf60a087016149ed565b8015156101c08b01529450614dd760c0870187614b8b565b9550816101e08b0152614def6102c08b018783614bd0565b9550505060e0850135610200890152610100614e0c81870161472e565b6001600160a01b03166102208a0152858701356102408a0152838601356102608a0152828601356102808a0152818601356102a08a0152614e5060208e018e614bf9565b97509550607f199350838986030160a08a0152614e6e858888614c41565b9650614e7d60408e018e614bf9565b96509450838988030160c08a0152614e96878787614c8a565b9650614ea460608e0161472e565b6001600160a01b03811660e08b01529550614ec260808e018e614b8b565b965094508389880301818a015250505050614ede838383614bd0565b9350505050614ef860208301866001600160a01b03169052565b83604083015261160860608301846001600160a01b03169052565b60005b83811015614f2e578181015183820152602001614f16565b838111156128dd5750506000910152565b60008151808452614f57816020860160208601614f13565b601f01601f19169290920160200192915050565b805163ffffffff16825260006101a06020830151614f91602086018263ffffffff169052565b506040830151614fa9604086018263ffffffff169052565b506060830151614fc460608601826001600160a01b03169052565b506080830151614fdf60808601826001600160a01b03169052565b5060a0830151614ff360a086018215159052565b5060c08301518160c086015261500b82860182614f3f565b91505060e083015160e085015261010080840151615033828701826001600160a01b03169052565b50506101208381015190850152610140808401519085015261016080840151908501526101809283015192909301919091525090565b6020815260006119756020830184614f6b565b6000808335601e1984360301811261509357600080fd5b8301803591506001600160401b038211156150ad57600080fd5b6020019150600581901b3603821315612a5257600080fd5b838152604060208201526000611608604083018486614c41565b6000808335601e198436030181126150f657600080fd5b8301803591506001600160401b0382111561511057600080fd5b602001915036819003821315612a5257600080fd5b634e487b7160e01b600052603260045260246000fd5b60006020828403121561514d57600080fd5b8135611975816149df565b634e487b7160e01b600052601160045260246000fd5b60008282101561518057615180615158565b500390565b634e487b7160e01b600052601260045260246000fd5b6000826151aa576151aa615185565b500490565b6000826151be576151be615185565b500690565b600082198211156151d6576151d6615158565b500190565b6000602082840312156151ed57600080fd5b5051919050565b60006020828403121561520657600080fd5b815160ff8116811461197557600080fd5b60006001820161522957615229615158565b5060010190565b6080815260006152436080830187614f6b565b6001600160a01b0395861660208401526040830194909452509216606090920191909152919050565b600081600019048311821515161561528657615286615158565b500290565b8183823760009101908152919050565b878152602081018790526001600160a01b0386811660408301528516606082015263ffffffff8416608082015260c060a082018190526000906152e19083018486614bd0565b9998505050505050505050565b60006020828403121561530057600080fd5b81516001600160401b0381111561531657600080fd5b8201601f8101841361532757600080fd5b8051615335614a3e826149f8565b81815285602083850101111561534a57600080fd5b611608826020830160208601614f13565b8215158152604060208201526000611ae96040830184614f3f565b600060ff821660ff84168082101561539057615390615158565b90039392505050565b600181815b808511156153d45781600019048211156153ba576153ba615158565b808516156153c757918102915b93841c939080029061539e565b509250929050565b6000826153eb57506001610393565b816153f857506000610393565b816001811461540e576002811461541857615434565b6001915050610393565b60ff84111561542957615429615158565b50506001821b610393565b5060208310610133831016604e8410600b8410161715615457575081810a610393565b6154618383615399565b806000190482111561547557615475615158565b029392505050565b600061197560ff8416836153dc565b60006020828403121561549e57600080fd5b815161197581614719565b63ffffffff841681528260208201526060604082015260006116086060830184614f3f565b6154d78461493f565b60f89390931b83526001830191909152602182015260410190565b60006020828403121561550457600080fd5b8151611975816149df565b6020815260006119756020830184614f3f565b600060ff821660ff84168160ff048111821515161561547557615475615158565b60008251614b81818460208701614f13565b7f54797065644d656d566965772f696e646578202d204f76657272616e20746865815274040ecd2caee5c40a6d8d2c6ca40d2e640c2e84060f605b1b60208201526001600160d01b031960d086811b821660358401526e040eed2e8d040d8cadccee8d04060f608b1b603b840181905286821b8316604a8501527f2e20417474656d7074656420746f20696e646578206174206f666673657420306050850152600f60fb1b607085015285821b83166071850152607784015283901b166086820152601760f91b608c8201526000608d820161263d56fea26469706673582212200be543bde0434e65d4f09824a254a4c98dd98ea3ac66365bd2d75bc24c75423464736f6c634300080f0033",
  "devdoc": {
    "events": {
      "AavePortalMintUnbacked(bytes32,address,address,uint256)": {
        "params": {
          "amount": "- The amount of asset that was provided by Aave Portal",
          "asset": "- The asset that was provided by Aave Portal",
          "router": "- The authorized router that used Aave Portal liquidity",
          "transferId": "- The unique identifier of the crosschain transaction"
        }
      },
      "Executed(bytes32,address,address,((uint32,uint32,uint32,address,address,bool,bytes,uint256,address,uint256,uint256,uint256,bytes32),address[],bytes[],address,bytes),address,uint256,address)": {
        "details": "`execute` may be called when providing fast liquidity or when processing a reconciled (slow) transfer.",
        "params": {
          "amount": "- The amount of transferring asset the recipient address receives or the external call is executed with.",
          "args": "- The `ExecuteArgs` provided to the function.",
          "asset": "- The asset the recipient is given or the external call is executed with. Should be the adopted asset on that chain.",
          "caller": "- The account that called the function.",
          "local": "- The local asset that was either supplied by the router for a fast-liquidity transfer or minted by the bridge in a reconciled (slow) transfer. Could be the same as the adopted `asset` param.",
          "to": "- The recipient `TransferInfo.to` provided, created as indexed parameter.",
          "transferId": "- The unique identifier of the crosschain transfer."
        }
      },
      "ExternalCalldataExecuted(bytes32,bool,bytes)": {
        "params": {
          "returnData": "- Return bytes from the IXReceiver",
          "success": "- Whether calldata succeeded",
          "transferId": "- The unique identifier of the crosschain transfer."
        }
      },
      "RemoteAdded(uint32,address,address)": {
        "params": {
          "caller": "- The account that called the function",
          "domain": "- The domain the remote instance is on",
          "remote": "- The address of the remote instance"
        }
      },
      "SequencerAdded(address,address)": {
        "params": {
          "caller": "- The account that called the function",
          "sequencer": "- The sequencer address to be added or removed"
        }
      },
      "SequencerRemoved(address,address)": {
        "params": {
          "caller": "- The account that called the function",
          "sequencer": "- The sequencer address to be added or removed"
        }
      },
      "SlippageUpdated(bytes32,uint256)": {
        "params": {
          "slippage": "- The updated slippage boundary",
          "transferId": "- The unique identifier of the crosschain transaction"
        }
      },
      "TransferRelayerFeesIncreased(bytes32,uint256,address)": {
        "params": {
          "caller": "- The account that called the function",
          "increase": "- The additional amount fees increased by",
          "transferId": "- The unique identifier of the crosschain transaction"
        }
      },
      "XCalled(bytes32,uint256,bytes32,(uint32,uint32,uint32,address,address,bool,bytes,uint256,address,uint256,uint256,uint256,bytes32),address,uint256,address)": {
        "params": {
          "amount": "- The amount sent in with xcall",
          "asset": "- The asset sent in with xcall",
          "local": "- The local asset that is controlled by the bridge and can be burned/minted",
          "messageHash": "- The hash of the message bytes (containing all transfer info) that were bridged.",
          "nonce": "- The bridge nonce of the transfer on the origin domain.",
          "params": "- The `TransferInfo` provided to the function.",
          "transferId": "- The unique identifier of the crosschain transfer."
        }
      }
    },
    "kind": "dev",
    "methods": {
      "addSequencer(address)": {
        "params": {
          "_sequencer": "- The sequencer address to add."
        }
      },
      "bumpTransfer(bytes32)": {
        "params": {
          "_transferId": "- The unique identifier of the crosschain transaction"
        }
      },
      "enrollRemoteRouter(uint32,bytes32)": {
        "params": {
          "_domain": "The domain of the remote xApp Router",
          "_router": "The address of the remote xApp Router"
        }
      },
      "execute(((uint32,uint32,uint32,address,address,bool,bytes,uint256,address,uint256,uint256,uint256,bytes32),address[],bytes[],address,bytes))": {
        "details": "Can be called before or after `handle` [reconcile] is called (regarding the same transfer), depending on whether the fast liquidity route (i.e. funds provided by routers) is being used for this transfer. As a result, executed calldata (including properties like `originSender`) may or may not be verified depending on whether the reconcile has been completed (i.e. the optimistic confirmation period has elapsed).",
        "params": {
          "_args": "- ExecuteArgs arguments."
        },
        "returns": {
          "_0": "bytes32 - The transfer ID of the crosschain transfer. Should match the xcall's transfer ID in order for reconciliation to occur."
        }
      },
      "forceUpdateSlippage((uint32,uint32,uint32,address,address,bool,bytes,uint256,address,uint256,uint256,uint256,bytes32),uint256)": {
        "params": {
          "_params": "TransferInfo associated with the transfer",
          "_slippage": "The updated slippage"
        }
      },
      "removeSequencer(address)": {
        "params": {
          "_sequencer": "- The sequencer address to remove."
        }
      },
      "setXAppConnectionManager(address)": {
        "params": {
          "_xAppConnectionManager": "The address of the xAppConnectionManager contract"
        }
      }
    },
    "version": 1
  },
  "userdoc": {
    "events": {
      "AavePortalMintUnbacked(bytes32,address,address,uint256)": {
        "notice": "Emitted when a router used Aave Portal liquidity for fast transfer"
      },
      "Executed(bytes32,address,address,((uint32,uint32,uint32,address,address,bool,bytes,uint256,address,uint256,uint256,uint256,bytes32),address[],bytes[],address,bytes),address,uint256,address)": {
        "notice": "Emitted when `execute` is called on the destination domain of a transfer."
      },
      "ExternalCalldataExecuted(bytes32,bool,bytes)": {
        "notice": "Emitted when a transfer has its external data executed"
      },
      "RemoteAdded(uint32,address,address)": {
        "notice": "Emitted when a new remote instance is added"
      },
      "SequencerAdded(address,address)": {
        "notice": "Emitted when a sequencer is added or removed from whitelists"
      },
      "SequencerRemoved(address,address)": {
        "notice": "Emitted when a sequencer is added or removed from whitelists"
      },
      "SlippageUpdated(bytes32,uint256)": {
        "notice": "Emitted when `forceUpdateSlippage` is called by an user on the destination domain"
      },
      "TransferRelayerFeesIncreased(bytes32,uint256,address)": {
        "notice": "Emitted when `_bumpTransfer` is called by an user on the origin domain both in `xcall` and `bumpTransfer`"
      },
      "XCalled(bytes32,uint256,bytes32,(uint32,uint32,uint32,address,address,bool,bytes,uint256,address,uint256,uint256,uint256,bytes32),address,uint256,address)": {
        "notice": "Emitted when `xcall` is called on the origin domain of a transfer."
      }
    },
    "kind": "user",
    "methods": {
      "addSequencer(address)": {
        "notice": "Used to add an approved sequencer to the whitelist."
      },
      "bumpTransfer(bytes32)": {
        "notice": "Anyone can call this function on the origin domain to increase the relayer fee for a transfer."
      },
      "enrollRemoteRouter(uint32,bytes32)": {
        "notice": "Register the address of a Router contract for the same xApp on a remote chain"
      },
      "execute(((uint32,uint32,uint32,address,address,bool,bytes,uint256,address,uint256,uint256,uint256,bytes32),address[],bytes[],address,bytes))": {
        "notice": "Called on a destination domain to disburse correct assets to end recipient and execute any included calldata."
      },
      "forceUpdateSlippage((uint32,uint32,uint32,address,address,bool,bytes,uint256,address,uint256,uint256,uint256,bytes32),uint256)": {
        "notice": "Allows a user-specified account to update the slippage they are willing to take on destination transfers."
      },
      "removeSequencer(address)": {
        "notice": "Used to remove an approved sequencer from the whitelist."
      },
      "setXAppConnectionManager(address)": {
        "notice": "Modify the contract the xApp uses to validate Replica contracts"
      }
    },
    "version": 1
  },
  "storageLayout": {
    "storage": [
      {
        "astId": 13868,
        "contract": "contracts/core/connext/facets/BridgeFacet.sol:BridgeFacet",
        "label": "s",
        "offset": 0,
        "slot": "0",
        "type": "t_struct(AppStorage)28097_storage"
      }
    ],
    "types": {
      "t_address": {
        "encoding": "inplace",
        "label": "address",
        "numberOfBytes": "20"
      },
      "t_array(t_address)dyn_storage": {
        "base": "t_address",
        "encoding": "dynamic_array",
        "label": "address[]",
        "numberOfBytes": "32"
      },
      "t_array(t_contract(IERC20)11540)dyn_storage": {
        "base": "t_contract(IERC20)11540",
        "encoding": "dynamic_array",
        "label": "contract IERC20[]",
        "numberOfBytes": "32"
      },
      "t_array(t_uint256)dyn_storage": {
        "base": "t_uint256",
        "encoding": "dynamic_array",
        "label": "uint256[]",
        "numberOfBytes": "32"
      },
      "t_bool": {
        "encoding": "inplace",
        "label": "bool",
        "numberOfBytes": "1"
      },
      "t_bytes32": {
        "encoding": "inplace",
        "label": "bytes32",
        "numberOfBytes": "32"
      },
      "t_contract(IConnectorManager)45249": {
        "encoding": "inplace",
        "label": "contract IConnectorManager",
        "numberOfBytes": "20"
      },
      "t_contract(IERC20)11540": {
        "encoding": "inplace",
        "label": "contract IERC20",
        "numberOfBytes": "20"
      },
      "t_contract(IStableSwap)25766": {
        "encoding": "inplace",
        "label": "contract IStableSwap",
        "numberOfBytes": "20"
      },
      "t_contract(LPToken)22553": {
        "encoding": "inplace",
        "label": "contract LPToken",
        "numberOfBytes": "20"
      },
      "t_enum(DestinationTransferStatus)27873": {
        "encoding": "inplace",
        "label": "enum DestinationTransferStatus",
        "numberOfBytes": "1"
      },
      "t_enum(Role)27868": {
        "encoding": "inplace",
        "label": "enum Role",
        "numberOfBytes": "1"
      },
      "t_mapping(t_address,t_address)": {
        "encoding": "mapping",
        "key": "t_address",
        "label": "mapping(address => address)",
        "numberOfBytes": "32",
        "value": "t_address"
      },
      "t_mapping(t_address,t_bool)": {
        "encoding": "mapping",
        "key": "t_address",
        "label": "mapping(address => bool)",
        "numberOfBytes": "32",
        "value": "t_bool"
      },
      "t_mapping(t_address,t_enum(Role)27868)": {
        "encoding": "mapping",
        "key": "t_address",
        "label": "mapping(address => enum Role)",
        "numberOfBytes": "32",
        "value": "t_enum(Role)27868"
      },
      "t_mapping(t_address,t_mapping(t_address,t_uint256))": {
        "encoding": "mapping",
        "key": "t_address",
        "label": "mapping(address => mapping(address => uint256))",
        "numberOfBytes": "32",
        "value": "t_mapping(t_address,t_uint256)"
      },
      "t_mapping(t_address,t_struct(TokenId)27878_storage)": {
        "encoding": "mapping",
        "key": "t_address",
        "label": "mapping(address => struct TokenId)",
        "numberOfBytes": "32",
        "value": "t_struct(TokenId)27878_storage"
      },
      "t_mapping(t_address,t_uint256)": {
        "encoding": "mapping",
        "key": "t_address",
        "label": "mapping(address => uint256)",
        "numberOfBytes": "32",
        "value": "t_uint256"
      },
      "t_mapping(t_address,t_uint8)": {
        "encoding": "mapping",
        "key": "t_address",
        "label": "mapping(address => uint8)",
        "numberOfBytes": "32",
        "value": "t_uint8"
      },
      "t_mapping(t_bytes32,t_address)": {
        "encoding": "mapping",
        "key": "t_bytes32",
        "label": "mapping(bytes32 => address)",
        "numberOfBytes": "32",
        "value": "t_address"
      },
      "t_mapping(t_bytes32,t_array(t_address)dyn_storage)": {
        "encoding": "mapping",
        "key": "t_bytes32",
        "label": "mapping(bytes32 => address[])",
        "numberOfBytes": "32",
        "value": "t_array(t_address)dyn_storage"
      },
      "t_mapping(t_bytes32,t_bool)": {
        "encoding": "mapping",
        "key": "t_bytes32",
        "label": "mapping(bytes32 => bool)",
        "numberOfBytes": "32",
        "value": "t_bool"
      },
      "t_mapping(t_bytes32,t_contract(IStableSwap)25766)": {
        "encoding": "mapping",
        "key": "t_bytes32",
        "label": "mapping(bytes32 => contract IStableSwap)",
        "numberOfBytes": "32",
        "value": "t_contract(IStableSwap)25766"
      },
      "t_mapping(t_bytes32,t_enum(DestinationTransferStatus)27873)": {
        "encoding": "mapping",
        "key": "t_bytes32",
        "label": "mapping(bytes32 => enum DestinationTransferStatus)",
        "numberOfBytes": "32",
        "value": "t_enum(DestinationTransferStatus)27873"
      },
      "t_mapping(t_bytes32,t_mapping(t_address,t_uint8))": {
        "encoding": "mapping",
        "key": "t_bytes32",
        "label": "mapping(bytes32 => mapping(address => uint8))",
        "numberOfBytes": "32",
        "value": "t_mapping(t_address,t_uint8)"
      },
      "t_mapping(t_bytes32,t_struct(Swap)29292_storage)": {
        "encoding": "mapping",
        "key": "t_bytes32",
        "label": "mapping(bytes32 => struct SwapUtils.Swap)",
        "numberOfBytes": "32",
        "value": "t_struct(Swap)29292_storage"
      },
      "t_mapping(t_bytes32,t_uint256)": {
        "encoding": "mapping",
        "key": "t_bytes32",
        "label": "mapping(bytes32 => uint256)",
        "numberOfBytes": "32",
        "value": "t_uint256"
      },
      "t_mapping(t_uint32,t_bytes32)": {
        "encoding": "mapping",
        "key": "t_uint32",
        "label": "mapping(uint32 => bytes32)",
        "numberOfBytes": "32",
        "value": "t_bytes32"
      },
      "t_struct(AppStorage)28097_storage": {
        "encoding": "inplace",
        "label": "struct AppStorage",
        "members": [
          {
            "astId": 27946,
            "contract": "contracts/core/connext/facets/BridgeFacet.sol:BridgeFacet",
            "label": "initialized",
            "offset": 0,
            "slot": "0",
            "type": "t_bool"
          },
          {
            "astId": 27948,
            "contract": "contracts/core/connext/facets/BridgeFacet.sol:BridgeFacet",
            "label": "LIQUIDITY_FEE_NUMERATOR",
            "offset": 0,
            "slot": "1",
            "type": "t_uint256"
          },
          {
            "astId": 27951,
            "contract": "contracts/core/connext/facets/BridgeFacet.sol:BridgeFacet",
            "label": "relayerFeeVault",
            "offset": 0,
            "slot": "2",
            "type": "t_address"
          },
          {
            "astId": 27954,
            "contract": "contracts/core/connext/facets/BridgeFacet.sol:BridgeFacet",
            "label": "nonce",
            "offset": 0,
            "slot": "3",
            "type": "t_uint256"
          },
          {
            "astId": 27957,
            "contract": "contracts/core/connext/facets/BridgeFacet.sol:BridgeFacet",
            "label": "domain",
            "offset": 0,
            "slot": "4",
            "type": "t_uint32"
          },
          {
            "astId": 27963,
            "contract": "contracts/core/connext/facets/BridgeFacet.sol:BridgeFacet",
            "label": "adoptedToLocalPools",
            "offset": 0,
            "slot": "5",
            "type": "t_mapping(t_bytes32,t_contract(IStableSwap)25766)"
          },
          {
            "astId": 27968,
            "contract": "contracts/core/connext/facets/BridgeFacet.sol:BridgeFacet",
            "label": "approvedAssets",
            "offset": 0,
            "slot": "6",
            "type": "t_mapping(t_bytes32,t_bool)"
          },
          {
            "astId": 27973,
            "contract": "contracts/core/connext/facets/BridgeFacet.sol:BridgeFacet",
            "label": "caps",
            "offset": 0,
            "slot": "7",
            "type": "t_mapping(t_bytes32,t_uint256)"
          },
          {
            "astId": 27979,
            "contract": "contracts/core/connext/facets/BridgeFacet.sol:BridgeFacet",
            "label": "adoptedToCanonical",
            "offset": 0,
            "slot": "8",
            "type": "t_mapping(t_address,t_struct(TokenId)27878_storage)"
          },
          {
            "astId": 27985,
            "contract": "contracts/core/connext/facets/BridgeFacet.sol:BridgeFacet",
            "label": "representationToCanonical",
            "offset": 0,
            "slot": "9",
            "type": "t_mapping(t_address,t_struct(TokenId)27878_storage)"
          },
          {
            "astId": 27990,
            "contract": "contracts/core/connext/facets/BridgeFacet.sol:BridgeFacet",
            "label": "canonicalToAdopted",
            "offset": 0,
            "slot": "10",
            "type": "t_mapping(t_bytes32,t_address)"
          },
          {
            "astId": 27995,
            "contract": "contracts/core/connext/facets/BridgeFacet.sol:BridgeFacet",
            "label": "canonicalToRepresentation",
            "offset": 0,
            "slot": "11",
            "type": "t_mapping(t_bytes32,t_address)"
          },
          {
            "astId": 28001,
            "contract": "contracts/core/connext/facets/BridgeFacet.sol:BridgeFacet",
            "label": "transferStatus",
            "offset": 0,
            "slot": "12",
            "type": "t_mapping(t_bytes32,t_enum(DestinationTransferStatus)27873)"
          },
          {
            "astId": 28007,
            "contract": "contracts/core/connext/facets/BridgeFacet.sol:BridgeFacet",
            "label": "routedTransfers",
            "offset": 0,
            "slot": "13",
            "type": "t_mapping(t_bytes32,t_array(t_address)dyn_storage)"
          },
          {
            "astId": 28014,
            "contract": "contracts/core/connext/facets/BridgeFacet.sol:BridgeFacet",
            "label": "routerBalances",
            "offset": 0,
            "slot": "14",
            "type": "t_mapping(t_address,t_mapping(t_address,t_uint256))"
          },
          {
            "astId": 28019,
            "contract": "contracts/core/connext/facets/BridgeFacet.sol:BridgeFacet",
            "label": "approvedRelayers",
            "offset": 0,
            "slot": "15",
            "type": "t_mapping(t_address,t_bool)"
          },
          {
            "astId": 28022,
            "contract": "contracts/core/connext/facets/BridgeFacet.sol:BridgeFacet",
            "label": "maxRoutersPerTransfer",
            "offset": 0,
            "slot": "16",
            "type": "t_uint256"
          },
          {
            "astId": 28027,
            "contract": "contracts/core/connext/facets/BridgeFacet.sol:BridgeFacet",
            "label": "slippage",
            "offset": 0,
            "slot": "17",
            "type": "t_mapping(t_bytes32,t_uint256)"
          },
          {
            "astId": 28032,
            "contract": "contracts/core/connext/facets/BridgeFacet.sol:BridgeFacet",
            "label": "remotes",
            "offset": 0,
            "slot": "18",
            "type": "t_mapping(t_uint32,t_bytes32)"
          },
          {
            "astId": 28034,
            "contract": "contracts/core/connext/facets/BridgeFacet.sol:BridgeFacet",
            "label": "_proposed",
            "offset": 0,
            "slot": "19",
            "type": "t_address"
          },
          {
            "astId": 28036,
            "contract": "contracts/core/connext/facets/BridgeFacet.sol:BridgeFacet",
            "label": "_proposedOwnershipTimestamp",
            "offset": 0,
            "slot": "20",
            "type": "t_uint256"
          },
          {
            "astId": 28038,
            "contract": "contracts/core/connext/facets/BridgeFacet.sol:BridgeFacet",
            "label": "_routerWhitelistRemoved",
            "offset": 0,
            "slot": "21",
            "type": "t_bool"
          },
          {
            "astId": 28040,
            "contract": "contracts/core/connext/facets/BridgeFacet.sol:BridgeFacet",
            "label": "_routerWhitelistTimestamp",
            "offset": 0,
            "slot": "22",
            "type": "t_uint256"
          },
          {
            "astId": 28042,
            "contract": "contracts/core/connext/facets/BridgeFacet.sol:BridgeFacet",
            "label": "_assetWhitelistRemoved",
            "offset": 0,
            "slot": "23",
            "type": "t_bool"
          },
          {
            "astId": 28044,
            "contract": "contracts/core/connext/facets/BridgeFacet.sol:BridgeFacet",
            "label": "_assetWhitelistTimestamp",
            "offset": 0,
            "slot": "24",
            "type": "t_uint256"
          },
          {
            "astId": 28050,
            "contract": "contracts/core/connext/facets/BridgeFacet.sol:BridgeFacet",
            "label": "roles",
            "offset": 0,
            "slot": "25",
            "type": "t_mapping(t_address,t_enum(Role)27868)"
          },
          {
            "astId": 28053,
            "contract": "contracts/core/connext/facets/BridgeFacet.sol:BridgeFacet",
            "label": "routerPermissionInfo",
            "offset": 0,
            "slot": "26",
            "type": "t_struct(RouterPermissionsManagerInfo)27944_storage"
          },
          {
            "astId": 28055,
            "contract": "contracts/core/connext/facets/BridgeFacet.sol:BridgeFacet",
            "label": "_status",
            "offset": 0,
            "slot": "32",
            "type": "t_uint256"
          },
          {
            "astId": 28061,
            "contract": "contracts/core/connext/facets/BridgeFacet.sol:BridgeFacet",
            "label": "swapStorages",
            "offset": 0,
            "slot": "33",
            "type": "t_mapping(t_bytes32,t_struct(Swap)29292_storage)"
          },
          {
            "astId": 28068,
            "contract": "contracts/core/connext/facets/BridgeFacet.sol:BridgeFacet",
            "label": "tokenIndexes",
            "offset": 0,
            "slot": "34",
            "type": "t_mapping(t_bytes32,t_mapping(t_address,t_uint8))"
          },
          {
            "astId": 28071,
            "contract": "contracts/core/connext/facets/BridgeFacet.sol:BridgeFacet",
            "label": "_paused",
            "offset": 0,
            "slot": "35",
            "type": "t_bool"
          },
          {
            "astId": 28074,
            "contract": "contracts/core/connext/facets/BridgeFacet.sol:BridgeFacet",
            "label": "aavePool",
            "offset": 1,
            "slot": "35",
            "type": "t_address"
          },
          {
            "astId": 28077,
            "contract": "contracts/core/connext/facets/BridgeFacet.sol:BridgeFacet",
            "label": "aavePortalFeeNumerator",
            "offset": 0,
            "slot": "36",
            "type": "t_uint256"
          },
          {
            "astId": 28082,
            "contract": "contracts/core/connext/facets/BridgeFacet.sol:BridgeFacet",
            "label": "portalDebt",
            "offset": 0,
            "slot": "37",
            "type": "t_mapping(t_bytes32,t_uint256)"
          },
          {
            "astId": 28087,
            "contract": "contracts/core/connext/facets/BridgeFacet.sol:BridgeFacet",
            "label": "portalFeeDebt",
            "offset": 0,
            "slot": "38",
            "type": "t_mapping(t_bytes32,t_uint256)"
          },
          {
            "astId": 28092,
            "contract": "contracts/core/connext/facets/BridgeFacet.sol:BridgeFacet",
            "label": "approvedSequencers",
            "offset": 0,
            "slot": "39",
            "type": "t_mapping(t_address,t_bool)"
          },
          {
            "astId": 28096,
            "contract": "contracts/core/connext/facets/BridgeFacet.sol:BridgeFacet",
            "label": "xAppConnectionManager",
            "offset": 0,
            "slot": "40",
            "type": "t_contract(IConnectorManager)45249"
          }
        ],
        "numberOfBytes": "1312"
      },
      "t_struct(RouterPermissionsManagerInfo)27944_storage": {
        "encoding": "inplace",
        "label": "struct RouterPermissionsManagerInfo",
        "members": [
          {
            "astId": 27923,
            "contract": "contracts/core/connext/facets/BridgeFacet.sol:BridgeFacet",
            "label": "approvedRouters",
            "offset": 0,
            "slot": "0",
            "type": "t_mapping(t_address,t_bool)"
          },
          {
            "astId": 27927,
            "contract": "contracts/core/connext/facets/BridgeFacet.sol:BridgeFacet",
            "label": "approvedForPortalRouters",
            "offset": 0,
            "slot": "1",
            "type": "t_mapping(t_address,t_bool)"
          },
          {
            "astId": 27931,
            "contract": "contracts/core/connext/facets/BridgeFacet.sol:BridgeFacet",
            "label": "routerRecipients",
            "offset": 0,
            "slot": "2",
            "type": "t_mapping(t_address,t_address)"
          },
          {
            "astId": 27935,
            "contract": "contracts/core/connext/facets/BridgeFacet.sol:BridgeFacet",
            "label": "routerOwners",
            "offset": 0,
            "slot": "3",
            "type": "t_mapping(t_address,t_address)"
          },
          {
            "astId": 27939,
            "contract": "contracts/core/connext/facets/BridgeFacet.sol:BridgeFacet",
            "label": "proposedRouterOwners",
            "offset": 0,
            "slot": "4",
            "type": "t_mapping(t_address,t_address)"
          },
          {
            "astId": 27943,
            "contract": "contracts/core/connext/facets/BridgeFacet.sol:BridgeFacet",
            "label": "proposedRouterTimestamp",
            "offset": 0,
            "slot": "5",
            "type": "t_mapping(t_address,t_uint256)"
          }
        ],
        "numberOfBytes": "192"
      },
      "t_struct(Swap)29292_storage": {
        "encoding": "inplace",
        "label": "struct SwapUtils.Swap",
        "members": [
          {
            "astId": 29263,
            "contract": "contracts/core/connext/facets/BridgeFacet.sol:BridgeFacet",
            "label": "key",
            "offset": 0,
            "slot": "0",
            "type": "t_bytes32"
          },
          {
            "astId": 29265,
            "contract": "contracts/core/connext/facets/BridgeFacet.sol:BridgeFacet",
            "label": "initialA",
            "offset": 0,
            "slot": "1",
            "type": "t_uint256"
          },
          {
            "astId": 29267,
            "contract": "contracts/core/connext/facets/BridgeFacet.sol:BridgeFacet",
            "label": "futureA",
            "offset": 0,
            "slot": "2",
            "type": "t_uint256"
          },
          {
            "astId": 29269,
            "contract": "contracts/core/connext/facets/BridgeFacet.sol:BridgeFacet",
            "label": "initialATime",
            "offset": 0,
            "slot": "3",
            "type": "t_uint256"
          },
          {
            "astId": 29271,
            "contract": "contracts/core/connext/facets/BridgeFacet.sol:BridgeFacet",
            "label": "futureATime",
            "offset": 0,
            "slot": "4",
            "type": "t_uint256"
          },
          {
            "astId": 29273,
            "contract": "contracts/core/connext/facets/BridgeFacet.sol:BridgeFacet",
            "label": "swapFee",
            "offset": 0,
            "slot": "5",
            "type": "t_uint256"
          },
          {
            "astId": 29275,
            "contract": "contracts/core/connext/facets/BridgeFacet.sol:BridgeFacet",
            "label": "adminFee",
            "offset": 0,
            "slot": "6",
            "type": "t_uint256"
          },
          {
            "astId": 29278,
            "contract": "contracts/core/connext/facets/BridgeFacet.sol:BridgeFacet",
            "label": "lpToken",
            "offset": 0,
            "slot": "7",
            "type": "t_contract(LPToken)22553"
          },
          {
            "astId": 29282,
            "contract": "contracts/core/connext/facets/BridgeFacet.sol:BridgeFacet",
            "label": "pooledTokens",
            "offset": 0,
            "slot": "8",
            "type": "t_array(t_contract(IERC20)11540)dyn_storage"
          },
          {
            "astId": 29285,
            "contract": "contracts/core/connext/facets/BridgeFacet.sol:BridgeFacet",
            "label": "tokenPrecisionMultipliers",
            "offset": 0,
            "slot": "9",
            "type": "t_array(t_uint256)dyn_storage"
          },
          {
            "astId": 29288,
            "contract": "contracts/core/connext/facets/BridgeFacet.sol:BridgeFacet",
            "label": "balances",
            "offset": 0,
            "slot": "10",
            "type": "t_array(t_uint256)dyn_storage"
          },
          {
            "astId": 29291,
            "contract": "contracts/core/connext/facets/BridgeFacet.sol:BridgeFacet",
            "label": "adminFees",
            "offset": 0,
            "slot": "11",
            "type": "t_array(t_uint256)dyn_storage"
          }
        ],
        "numberOfBytes": "384"
      },
      "t_struct(TokenId)27878_storage": {
        "encoding": "inplace",
        "label": "struct TokenId",
        "members": [
          {
            "astId": 27875,
            "contract": "contracts/core/connext/facets/BridgeFacet.sol:BridgeFacet",
            "label": "domain",
            "offset": 0,
            "slot": "0",
            "type": "t_uint32"
          },
          {
            "astId": 27877,
            "contract": "contracts/core/connext/facets/BridgeFacet.sol:BridgeFacet",
            "label": "id",
            "offset": 0,
            "slot": "1",
            "type": "t_bytes32"
          }
        ],
        "numberOfBytes": "64"
      },
      "t_uint256": {
        "encoding": "inplace",
        "label": "uint256",
        "numberOfBytes": "32"
      },
      "t_uint32": {
        "encoding": "inplace",
        "label": "uint32",
        "numberOfBytes": "4"
      },
      "t_uint8": {
        "encoding": "inplace",
        "label": "uint8",
        "numberOfBytes": "1"
      }
    }
  }
}