{
  "address": "0x5f8D495de00173C4a1CB8ad3AD1fB479F01c7772",
  "abi": [
    {
      "inputs": [],
      "name": "AssetLogic__getTokenIndexFromStableSwapPool_notExist",
      "type": "error"
    },
    {
      "inputs": [],
      "name": "AssetLogic__handleOutgoingAsset_notNative",
      "type": "error"
    },
    {
      "inputs": [],
      "name": "AssetLogic__transferAssetToContract_feeOnTransferNotSupported",
      "type": "error"
    },
    {
      "inputs": [],
      "name": "BaseConnextFacet__nonReentrant_reentrantCall",
      "type": "error"
    },
    {
      "inputs": [],
      "name": "BaseConnextFacet__onlyBridgeRouter_notBridgeRouter",
      "type": "error"
    },
    {
      "inputs": [],
      "name": "BaseConnextFacet__onlyOwner_notOwner",
      "type": "error"
    },
    {
      "inputs": [],
      "name": "BaseConnextFacet__onlyProposed_notProposedOwner",
      "type": "error"
    },
    {
      "inputs": [],
      "name": "BaseConnextFacet__whenNotPaused_paused",
      "type": "error"
    },
    {
      "inputs": [],
      "name": "BridgeFacet__addConnextion_invalidDomain",
      "type": "error"
    },
    {
      "inputs": [],
      "name": "BridgeFacet__addSequencer_alreadyApproved",
      "type": "error"
    },
    {
      "inputs": [],
      "name": "BridgeFacet__bumpTransfer_valueIsZero",
      "type": "error"
    },
    {
      "inputs": [],
      "name": "BridgeFacet__executePortalTransfer_insufficientAmountWithdrawn",
      "type": "error"
    },
    {
      "inputs": [],
      "name": "BridgeFacet__execute_alreadyExecuted",
      "type": "error"
    },
    {
      "inputs": [],
      "name": "BridgeFacet__execute_alreadyReconciled",
      "type": "error"
    },
    {
      "inputs": [],
      "name": "BridgeFacet__execute_invalidRouterSignature",
      "type": "error"
    },
    {
      "inputs": [],
      "name": "BridgeFacet__execute_invalidSequencerSignature",
      "type": "error"
    },
    {
      "inputs": [],
      "name": "BridgeFacet__execute_maxRoutersExceeded",
      "type": "error"
    },
    {
      "inputs": [],
      "name": "BridgeFacet__execute_notApprovedForPortals",
      "type": "error"
    },
    {
      "inputs": [],
      "name": "BridgeFacet__execute_notReconciled",
      "type": "error"
    },
    {
      "inputs": [],
      "name": "BridgeFacet__execute_notSupportedRouter",
      "type": "error"
    },
    {
      "inputs": [],
      "name": "BridgeFacet__execute_notSupportedSequencer",
      "type": "error"
    },
    {
      "inputs": [],
      "name": "BridgeFacet__execute_unapprovedSender",
      "type": "error"
    },
    {
      "inputs": [],
      "name": "BridgeFacet__execute_wrongDomain",
      "type": "error"
    },
    {
      "inputs": [],
      "name": "BridgeFacet__forceReceiveLocal_invalidSender",
      "type": "error"
    },
    {
      "inputs": [],
      "name": "BridgeFacet__handleExecuteTransaction_invalidSponsoredAmount",
      "type": "error"
    },
    {
      "inputs": [],
      "name": "BridgeFacet__removeSequencer_notApproved",
      "type": "error"
    },
    {
      "inputs": [],
      "name": "BridgeFacet__setExecutor_invalidExecutor",
      "type": "error"
    },
    {
      "inputs": [],
      "name": "BridgeFacet__setPromiseRouter_invalidPromiseRouter",
      "type": "error"
    },
    {
      "inputs": [],
      "name": "BridgeFacet__setSponsorVault_invalidSponsorVault",
      "type": "error"
    },
    {
      "inputs": [],
      "name": "BridgeFacet__xcall_callbackNotAContract",
      "type": "error"
    },
    {
      "inputs": [],
      "name": "BridgeFacet__xcall_destinationNotSupported",
      "type": "error"
    },
    {
      "inputs": [],
      "name": "BridgeFacet__xcall_emptyToOrRecovery",
      "type": "error"
    },
    {
      "inputs": [],
      "name": "BridgeFacet__xcall_ethValueMismatchedFees",
      "type": "error"
    },
    {
      "inputs": [],
      "name": "BridgeFacet__xcall_invalidSlippageTol",
      "type": "error"
    },
    {
      "inputs": [],
      "name": "BridgeFacet__xcall_missingAgent",
      "type": "error"
    },
    {
      "inputs": [],
      "name": "BridgeFacet__xcall_nativeAssetNotSupported",
      "type": "error"
    },
    {
      "inputs": [],
      "name": "BridgeFacet__xcall_nonZeroCallbackFeeForCallback",
      "type": "error"
    },
    {
      "inputs": [],
      "name": "BridgeFacet__xcall_notSupportedAsset",
      "type": "error"
    },
    {
      "inputs": [],
      "name": "BridgeFacet__xcall_wrongDomain",
      "type": "error"
    },
    {
      "anonymous": false,
      "inputs": [
        {
          "indexed": true,
          "internalType": "bytes32",
          "name": "transferId",
          "type": "bytes32"
        },
        {
          "indexed": true,
          "internalType": "address",
          "name": "router",
          "type": "address"
        },
        {
          "indexed": false,
          "internalType": "address",
          "name": "asset",
          "type": "address"
        },
        {
          "indexed": false,
          "internalType": "uint256",
          "name": "amount",
          "type": "uint256"
        }
      ],
      "name": "AavePortalMintUnbacked",
      "type": "event"
    },
    {
      "anonymous": false,
      "inputs": [
        {
          "indexed": false,
          "internalType": "uint32",
          "name": "domain",
          "type": "uint32"
        },
        {
          "indexed": false,
          "internalType": "address",
          "name": "connext",
          "type": "address"
        },
        {
          "indexed": false,
          "internalType": "address",
          "name": "caller",
          "type": "address"
        }
      ],
      "name": "ConnextionAdded",
      "type": "event"
    },
    {
      "anonymous": false,
      "inputs": [
        {
          "indexed": true,
          "internalType": "bytes32",
          "name": "transferId",
          "type": "bytes32"
        },
        {
          "indexed": true,
          "internalType": "address",
          "name": "to",
          "type": "address"
        },
        {
          "components": [
            {
              "components": [
                {
                  "internalType": "address",
                  "name": "to",
                  "type": "address"
                },
                {
                  "internalType": "bytes",
                  "name": "callData",
                  "type": "bytes"
                },
                {
                  "internalType": "uint32",
                  "name": "originDomain",
                  "type": "uint32"
                },
                {
                  "internalType": "uint32",
                  "name": "destinationDomain",
                  "type": "uint32"
                },
                {
                  "internalType": "address",
                  "name": "agent",
                  "type": "address"
                },
                {
                  "internalType": "address",
                  "name": "recovery",
                  "type": "address"
                },
                {
                  "internalType": "bool",
                  "name": "forceSlow",
                  "type": "bool"
                },
                {
                  "internalType": "bool",
                  "name": "receiveLocal",
                  "type": "bool"
                },
                {
                  "internalType": "address",
                  "name": "callback",
                  "type": "address"
                },
                {
                  "internalType": "uint256",
                  "name": "callbackFee",
                  "type": "uint256"
                },
                {
                  "internalType": "uint256",
                  "name": "relayerFee",
                  "type": "uint256"
                },
                {
                  "internalType": "uint256",
                  "name": "destinationMinOut",
                  "type": "uint256"
                }
              ],
              "internalType": "struct CallParams",
              "name": "params",
              "type": "tuple"
            },
            {
              "internalType": "address",
              "name": "local",
              "type": "address"
            },
            {
              "internalType": "address[]",
              "name": "routers",
              "type": "address[]"
            },
            {
              "internalType": "bytes[]",
              "name": "routerSignatures",
              "type": "bytes[]"
            },
            {
              "internalType": "address",
              "name": "sequencer",
              "type": "address"
            },
            {
              "internalType": "bytes",
              "name": "sequencerSignature",
              "type": "bytes"
            },
            {
              "internalType": "uint256",
              "name": "amount",
              "type": "uint256"
            },
            {
              "internalType": "uint256",
              "name": "nonce",
              "type": "uint256"
            },
            {
              "internalType": "address",
              "name": "originSender",
              "type": "address"
            }
          ],
          "indexed": false,
          "internalType": "struct ExecuteArgs",
          "name": "args",
          "type": "tuple"
        },
        {
          "indexed": false,
          "internalType": "address",
          "name": "transactingAsset",
          "type": "address"
        },
        {
          "indexed": false,
          "internalType": "uint256",
          "name": "transactingAmount",
          "type": "uint256"
        },
        {
          "indexed": false,
          "internalType": "address",
          "name": "caller",
          "type": "address"
        }
      ],
      "name": "Executed",
      "type": "event"
    },
    {
      "anonymous": false,
      "inputs": [
        {
          "indexed": false,
          "internalType": "address",
          "name": "oldExecutor",
          "type": "address"
        },
        {
          "indexed": false,
          "internalType": "address",
          "name": "newExecutor",
          "type": "address"
        },
        {
          "indexed": false,
          "internalType": "address",
          "name": "caller",
          "type": "address"
        }
      ],
      "name": "ExecutorUpdated",
      "type": "event"
    },
    {
      "anonymous": false,
      "inputs": [
        {
          "indexed": true,
          "internalType": "bytes32",
          "name": "transferId",
          "type": "bytes32"
        },
        {
          "indexed": true,
          "internalType": "bytes32",
          "name": "canonicalId",
          "type": "bytes32"
        },
        {
          "indexed": false,
          "internalType": "uint32",
          "name": "canonicalDomain",
          "type": "uint32"
        },
        {
          "indexed": false,
          "internalType": "uint256",
          "name": "amount",
          "type": "uint256"
        }
      ],
      "name": "ForcedReceiveLocal",
      "type": "event"
    },
    {
      "anonymous": false,
      "inputs": [
        {
          "indexed": false,
          "internalType": "address",
          "name": "oldRouter",
          "type": "address"
        },
        {
          "indexed": false,
          "internalType": "address",
          "name": "newRouter",
          "type": "address"
        },
        {
          "indexed": false,
          "internalType": "address",
          "name": "caller",
          "type": "address"
        }
      ],
      "name": "PromiseRouterUpdated",
      "type": "event"
    },
    {
      "anonymous": false,
      "inputs": [
        {
          "indexed": false,
          "internalType": "address",
          "name": "sequencer",
          "type": "address"
        },
        {
          "indexed": false,
          "internalType": "address",
          "name": "caller",
          "type": "address"
        }
      ],
      "name": "SequencerAdded",
      "type": "event"
    },
    {
      "anonymous": false,
      "inputs": [
        {
          "indexed": false,
          "internalType": "address",
          "name": "sequencer",
          "type": "address"
        },
        {
          "indexed": false,
          "internalType": "address",
          "name": "caller",
          "type": "address"
        }
      ],
      "name": "SequencerRemoved",
      "type": "event"
    },
    {
      "anonymous": false,
      "inputs": [
        {
          "indexed": false,
          "internalType": "address",
          "name": "oldSponsorVault",
          "type": "address"
        },
        {
          "indexed": false,
          "internalType": "address",
          "name": "newSponsorVault",
          "type": "address"
        },
        {
          "indexed": false,
          "internalType": "address",
          "name": "caller",
          "type": "address"
        }
      ],
      "name": "SponsorVaultUpdated",
      "type": "event"
    },
    {
      "anonymous": false,
      "inputs": [
        {
          "indexed": true,
          "internalType": "bytes32",
          "name": "transferId",
          "type": "bytes32"
        },
        {
          "indexed": false,
          "internalType": "uint256",
          "name": "relayerFee",
          "type": "uint256"
        },
        {
          "indexed": false,
          "internalType": "address",
          "name": "caller",
          "type": "address"
        }
      ],
      "name": "TransferRelayerFeesUpdated",
      "type": "event"
    },
    {
      "anonymous": false,
      "inputs": [
        {
          "indexed": true,
          "internalType": "bytes32",
          "name": "transferId",
          "type": "bytes32"
        },
        {
          "indexed": true,
          "internalType": "uint256",
          "name": "nonce",
          "type": "uint256"
        },
        {
          "indexed": true,
          "internalType": "bytes32",
          "name": "messageHash",
          "type": "bytes32"
        },
        {
          "components": [
            {
              "components": [
                {
                  "internalType": "address",
                  "name": "to",
                  "type": "address"
                },
                {
                  "internalType": "bytes",
                  "name": "callData",
                  "type": "bytes"
                },
                {
                  "internalType": "uint32",
                  "name": "originDomain",
                  "type": "uint32"
                },
                {
                  "internalType": "uint32",
                  "name": "destinationDomain",
                  "type": "uint32"
                },
                {
                  "internalType": "address",
                  "name": "agent",
                  "type": "address"
                },
                {
                  "internalType": "address",
                  "name": "recovery",
                  "type": "address"
                },
                {
                  "internalType": "bool",
                  "name": "forceSlow",
                  "type": "bool"
                },
                {
                  "internalType": "bool",
                  "name": "receiveLocal",
                  "type": "bool"
                },
                {
                  "internalType": "address",
                  "name": "callback",
                  "type": "address"
                },
                {
                  "internalType": "uint256",
                  "name": "callbackFee",
                  "type": "uint256"
                },
                {
                  "internalType": "uint256",
                  "name": "relayerFee",
                  "type": "uint256"
                },
                {
                  "internalType": "uint256",
                  "name": "destinationMinOut",
                  "type": "uint256"
                }
              ],
              "internalType": "struct CallParams",
              "name": "params",
              "type": "tuple"
            },
            {
              "internalType": "address",
              "name": "transactingAsset",
              "type": "address"
            },
            {
              "internalType": "uint256",
              "name": "transactingAmount",
              "type": "uint256"
            },
            {
              "internalType": "uint256",
              "name": "originMinOut",
              "type": "uint256"
            }
          ],
          "indexed": false,
          "internalType": "struct XCallArgs",
          "name": "xcallArgs",
          "type": "tuple"
        },
        {
          "indexed": false,
          "internalType": "address",
          "name": "bridgedAsset",
          "type": "address"
        },
        {
          "indexed": false,
          "internalType": "uint256",
          "name": "bridgedAmount",
          "type": "uint256"
        },
        {
          "indexed": false,
          "internalType": "address",
          "name": "caller",
          "type": "address"
        }
      ],
      "name": "XCalled",
      "type": "event"
    },
    {
      "inputs": [],
      "name": "AAVE_REFERRAL_CODE",
      "outputs": [
        {
          "internalType": "uint16",
          "name": "",
          "type": "uint16"
        }
      ],
      "stateMutability": "view",
      "type": "function"
    },
    {
      "inputs": [
        {
          "internalType": "uint32",
          "name": "_domain",
          "type": "uint32"
        },
        {
          "internalType": "address",
          "name": "_connext",
          "type": "address"
        }
      ],
      "name": "addConnextion",
      "outputs": [],
      "stateMutability": "nonpayable",
      "type": "function"
    },
    {
      "inputs": [
        {
          "internalType": "address",
          "name": "_sequencer",
          "type": "address"
        }
      ],
      "name": "addSequencer",
      "outputs": [],
      "stateMutability": "nonpayable",
      "type": "function"
    },
    {
      "inputs": [
        {
          "internalType": "address",
          "name": "_sequencer",
          "type": "address"
        }
      ],
      "name": "approvedSequencers",
      "outputs": [
        {
          "internalType": "bool",
          "name": "",
          "type": "bool"
        }
      ],
      "stateMutability": "view",
      "type": "function"
    },
    {
      "inputs": [
        {
          "internalType": "bytes32",
          "name": "_transferId",
          "type": "bytes32"
        }
      ],
      "name": "bumpTransfer",
      "outputs": [],
      "stateMutability": "payable",
      "type": "function"
    },
    {
      "inputs": [
        {
          "internalType": "uint32",
          "name": "_domain",
          "type": "uint32"
        }
      ],
      "name": "connextion",
      "outputs": [
        {
          "internalType": "address",
          "name": "",
          "type": "address"
        }
      ],
      "stateMutability": "view",
      "type": "function"
    },
    {
      "inputs": [],
      "name": "domain",
      "outputs": [
        {
          "internalType": "uint32",
          "name": "",
          "type": "uint32"
        }
      ],
      "stateMutability": "view",
      "type": "function"
    },
    {
      "inputs": [
        {
          "components": [
            {
              "components": [
                {
                  "internalType": "address",
                  "name": "to",
                  "type": "address"
                },
                {
                  "internalType": "bytes",
                  "name": "callData",
                  "type": "bytes"
                },
                {
                  "internalType": "uint32",
                  "name": "originDomain",
                  "type": "uint32"
                },
                {
                  "internalType": "uint32",
                  "name": "destinationDomain",
                  "type": "uint32"
                },
                {
                  "internalType": "address",
                  "name": "agent",
                  "type": "address"
                },
                {
                  "internalType": "address",
                  "name": "recovery",
                  "type": "address"
                },
                {
                  "internalType": "bool",
                  "name": "forceSlow",
                  "type": "bool"
                },
                {
                  "internalType": "bool",
                  "name": "receiveLocal",
                  "type": "bool"
                },
                {
                  "internalType": "address",
                  "name": "callback",
                  "type": "address"
                },
                {
                  "internalType": "uint256",
                  "name": "callbackFee",
                  "type": "uint256"
                },
                {
                  "internalType": "uint256",
                  "name": "relayerFee",
                  "type": "uint256"
                },
                {
                  "internalType": "uint256",
                  "name": "destinationMinOut",
                  "type": "uint256"
                }
              ],
              "internalType": "struct CallParams",
              "name": "params",
              "type": "tuple"
            },
            {
              "internalType": "address",
              "name": "local",
              "type": "address"
            },
            {
              "internalType": "address[]",
              "name": "routers",
              "type": "address[]"
            },
            {
              "internalType": "bytes[]",
              "name": "routerSignatures",
              "type": "bytes[]"
            },
            {
              "internalType": "address",
              "name": "sequencer",
              "type": "address"
            },
            {
              "internalType": "bytes",
              "name": "sequencerSignature",
              "type": "bytes"
            },
            {
              "internalType": "uint256",
              "name": "amount",
              "type": "uint256"
            },
            {
              "internalType": "uint256",
              "name": "nonce",
              "type": "uint256"
            },
            {
              "internalType": "address",
              "name": "originSender",
              "type": "address"
            }
          ],
          "internalType": "struct ExecuteArgs",
          "name": "_args",
          "type": "tuple"
        }
      ],
      "name": "execute",
      "outputs": [
        {
          "internalType": "bytes32",
          "name": "",
          "type": "bytes32"
        }
      ],
      "stateMutability": "nonpayable",
      "type": "function"
    },
    {
      "inputs": [],
      "name": "executor",
      "outputs": [
        {
          "internalType": "contract IExecutor",
          "name": "",
          "type": "address"
        }
      ],
      "stateMutability": "view",
      "type": "function"
    },
    {
      "inputs": [
        {
          "components": [
            {
              "internalType": "address",
              "name": "to",
              "type": "address"
            },
            {
              "internalType": "bytes",
              "name": "callData",
              "type": "bytes"
            },
            {
              "internalType": "uint32",
              "name": "originDomain",
              "type": "uint32"
            },
            {
              "internalType": "uint32",
              "name": "destinationDomain",
              "type": "uint32"
            },
            {
              "internalType": "address",
              "name": "agent",
              "type": "address"
            },
            {
              "internalType": "address",
              "name": "recovery",
              "type": "address"
            },
            {
              "internalType": "bool",
              "name": "forceSlow",
              "type": "bool"
            },
            {
              "internalType": "bool",
              "name": "receiveLocal",
              "type": "bool"
            },
            {
              "internalType": "address",
              "name": "callback",
              "type": "address"
            },
            {
              "internalType": "uint256",
              "name": "callbackFee",
              "type": "uint256"
            },
            {
              "internalType": "uint256",
              "name": "relayerFee",
              "type": "uint256"
            },
            {
              "internalType": "uint256",
              "name": "destinationMinOut",
              "type": "uint256"
            }
          ],
          "internalType": "struct CallParams",
          "name": "_params",
          "type": "tuple"
        },
        {
          "internalType": "uint256",
          "name": "_amount",
          "type": "uint256"
        },
        {
          "internalType": "uint256",
          "name": "_nonce",
          "type": "uint256"
        },
        {
          "internalType": "bytes32",
          "name": "_canonicalId",
          "type": "bytes32"
        },
        {
          "internalType": "uint32",
          "name": "_canonicalDomain",
          "type": "uint32"
        },
        {
          "internalType": "address",
          "name": "_originSender",
          "type": "address"
        }
      ],
      "name": "forceReceiveLocal",
      "outputs": [],
      "stateMutability": "nonpayable",
      "type": "function"
    },
    {
      "inputs": [],
      "name": "nonce",
      "outputs": [
        {
          "internalType": "uint256",
          "name": "",
          "type": "uint256"
        }
      ],
      "stateMutability": "view",
      "type": "function"
    },
    {
      "inputs": [],
      "name": "promiseRouter",
      "outputs": [
        {
          "internalType": "contract PromiseRouter",
          "name": "",
          "type": "address"
        }
      ],
      "stateMutability": "view",
      "type": "function"
    },
    {
      "inputs": [
        {
          "internalType": "bytes32",
          "name": "_transferId",
          "type": "bytes32"
        }
      ],
      "name": "reconciledTransfers",
      "outputs": [
        {
          "internalType": "bool",
          "name": "",
          "type": "bool"
        }
      ],
      "stateMutability": "view",
      "type": "function"
    },
    {
      "inputs": [
        {
          "internalType": "bytes32",
          "name": "_transferId",
          "type": "bytes32"
        }
      ],
      "name": "relayerFees",
      "outputs": [
        {
          "internalType": "uint256",
          "name": "",
          "type": "uint256"
        }
      ],
      "stateMutability": "view",
      "type": "function"
    },
    {
      "inputs": [
        {
          "internalType": "address",
          "name": "_sequencer",
          "type": "address"
        }
      ],
      "name": "removeSequencer",
      "outputs": [],
      "stateMutability": "nonpayable",
      "type": "function"
    },
    {
      "inputs": [
        {
          "internalType": "bytes32",
          "name": "_transferId",
          "type": "bytes32"
        }
      ],
      "name": "routedTransfers",
      "outputs": [
        {
          "internalType": "address[]",
          "name": "",
          "type": "address[]"
        }
      ],
      "stateMutability": "view",
      "type": "function"
    },
    {
      "inputs": [
        {
          "internalType": "address",
          "name": "_executor",
          "type": "address"
        }
      ],
      "name": "setExecutor",
      "outputs": [],
      "stateMutability": "nonpayable",
      "type": "function"
    },
    {
      "inputs": [
        {
          "internalType": "address payable",
          "name": "_promiseRouter",
          "type": "address"
        }
      ],
      "name": "setPromiseRouter",
      "outputs": [],
      "stateMutability": "nonpayable",
      "type": "function"
    },
    {
      "inputs": [
        {
          "internalType": "address",
          "name": "_sponsorVault",
          "type": "address"
        }
      ],
      "name": "setSponsorVault",
      "outputs": [],
      "stateMutability": "nonpayable",
      "type": "function"
    },
    {
      "inputs": [],
      "name": "sponsorVault",
      "outputs": [
        {
          "internalType": "contract ISponsorVault",
          "name": "",
          "type": "address"
        }
      ],
      "stateMutability": "view",
      "type": "function"
    },
    {
      "inputs": [
        {
          "components": [
            {
              "components": [
                {
                  "internalType": "address",
                  "name": "to",
                  "type": "address"
                },
                {
                  "internalType": "bytes",
                  "name": "callData",
                  "type": "bytes"
                },
                {
                  "internalType": "uint32",
                  "name": "originDomain",
                  "type": "uint32"
                },
                {
                  "internalType": "uint32",
                  "name": "destinationDomain",
                  "type": "uint32"
                },
                {
                  "internalType": "address",
                  "name": "agent",
                  "type": "address"
                },
                {
                  "internalType": "address",
                  "name": "recovery",
                  "type": "address"
                },
                {
                  "internalType": "bool",
                  "name": "forceSlow",
                  "type": "bool"
                },
                {
                  "internalType": "bool",
                  "name": "receiveLocal",
                  "type": "bool"
                },
                {
                  "internalType": "address",
                  "name": "callback",
                  "type": "address"
                },
                {
                  "internalType": "uint256",
                  "name": "callbackFee",
                  "type": "uint256"
                },
                {
                  "internalType": "uint256",
                  "name": "relayerFee",
                  "type": "uint256"
                },
                {
                  "internalType": "uint256",
                  "name": "destinationMinOut",
                  "type": "uint256"
                }
              ],
              "internalType": "struct CallParams",
              "name": "params",
              "type": "tuple"
            },
            {
              "internalType": "address",
              "name": "transactingAsset",
              "type": "address"
            },
            {
              "internalType": "uint256",
              "name": "transactingAmount",
              "type": "uint256"
            },
            {
              "internalType": "uint256",
              "name": "originMinOut",
              "type": "uint256"
            }
          ],
          "internalType": "struct XCallArgs",
          "name": "_args",
          "type": "tuple"
        }
      ],
      "name": "xcall",
      "outputs": [
        {
          "internalType": "bytes32",
          "name": "",
          "type": "bytes32"
        }
      ],
      "stateMutability": "payable",
      "type": "function"
    }
  ],
  "transactionHash": "0xd0f5c18f19a0032c0a848a2689ea4479c4ebf8e633a06c6e3e7b76d2a4807244",
  "args": [],
  "numDeployments": 2,
  "solcInputHash": "2575038f21e3e219679bfa054f96a156",
  "bytecode": "0x608060405234801561001057600080fd5b50614ecb806100206000396000f3fe60806040526004361061012a5760003560e01c80639b098908116100ab578063bb2804001161006f578063bb2804001461035c578063c230f9471461037a578063c26c9c0a1461039a578063c2fb26a6146103ca578063c34c08e5146103fc578063e32207451461041a57600080fd5b80639b098908146102ba578063a142d649146102e7578063affed0e014610307578063b28d4f8e1461031c578063b4b483ff1461033c57600080fd5b80632424401f116100f25780632424401f1461021457806335c94dfc146102275780636989ca7c1461024857806372dbadfc146102685780638a3362311461029a57600080fd5b806305a363de1461012f578063159e041f1461015c5780631a8bc0e1146101a55780631aebfe18146101d25780631c3c0ea8146101f4575b600080fd5b34801561013b57600080fd5b50610144600081565b60405161ffff90911681526020015b60405180910390f35b34801561016857600080fd5b50610195610177366004614069565b6001600160a01b031660009081526029602052604090205460ff1690565b6040519015158152602001610153565b3480156101b157600080fd5b506101c56101c0366004614086565b61043a565b604051610153919061409f565b3480156101de57600080fd5b506101f26101ed366004614069565b6104a6565b005b34801561020057600080fd5b506101f261020f366004614069565b610581565b6101f2610222366004614086565b610654565b61023a6102353660046140ec565b61073a565b604051908152602001610153565b34801561025457600080fd5b506101f2610263366004614069565b610f82565b34801561027457600080fd5b506003546001600160a01b03165b6040516001600160a01b039091168152602001610153565b3480156102a657600080fd5b506101f26102b5366004614069565b611048565b3480156102c657600080fd5b5061023a6102d5366004614086565b6000908152600f602052604090205490565b3480156102f357600080fd5b506101f2610302366004614069565b61110b565b34801561031357600080fd5b5060045461023a565b34801561032857600080fd5b5061023a610337366004614126565b6111de565b34801561034857600080fd5b506101f261035736600461417e565b61138d565b34801561036857600080fd5b506012546001600160a01b0316610282565b34801561038657600080fd5b506101f26103953660046141b7565b61144f565b3480156103a657600080fd5b506101956103b5366004614086565b6000908152600b602052604090205460ff1690565b3480156103d657600080fd5b50600554600160a01b900463ffffffff1660405163ffffffff9091168152602001610153565b34801561040857600080fd5b506005546001600160a01b0316610282565b34801561042657600080fd5b5061028261043536600461423c565b61153f565b6000818152600c602090815260409182902080548351818402810184019094528084526060939283018282801561049a57602002820191906000526020600020905b81546001600160a01b0316815260019091019060200180831161047c575b50505050509050919050565b336104af61155c565b6001600160a01b0316146104d6576040516314e74a2560e21b815260040160405180910390fd5b6012546001600160a01b039081169082168114806104fc57506001600160a01b0382163b155b1561051a5760405163334f10a360e11b815260040160405180910390fd5b601280546001600160a01b0319166001600160a01b03848116918217909255604080519284168352602083019190915233908201527fbebea8e5917df53539d222b751ec993b536f5289f79cfec311e527481fee8501906060015b60405180910390a15050565b3361058a61155c565b6001600160a01b0316146105b1576040516314e74a2560e21b815260040160405180910390fd5b6005546001600160a01b039081169082168114806105d757506001600160a01b0382163b155b156105f5576040516302c1835b60e21b815260040160405180910390fd5b600580546001600160a01b0319166001600160a01b03848116918217909255604080519284168352602083019190915233908201527ffb6e3b9089f982ec94f9efcf6f8358010c0aab7a69d739165d542659552c22c590606001610575565b6022546001190161067857604051637ce54e2d60e11b815260040160405180910390fd5b600260225560255460ff16156106a157604051633ee5b89360e01b815260040160405180910390fd5b346000036106c2576040516348e7dc3f60e01b815260040160405180910390fd5b6000818152600f6020526040812080543492906106e090849061426f565b90915550506000818152600f6020908152604091829020548251908152339181019190915282917feab1c093c8ba2224a2907cd9efb6ed51c233306ff5a66853b84e02a0bf95feab910160405180910390a2506001602255565b6022546000906001190161076157604051637ce54e2d60e11b815260040160405180910390fd5b600260225560255460ff161561078a57604051633ee5b89360e01b815260040160405180910390fd5b60008061079d6040850160208601614069565b6001600160a01b03161480156107b65750604083013515155b156107d45760405163ae715ad360e01b815260040160405180910390fd5b600554600160a01b900463ffffffff166107ee8480614287565b6107ff90606081019060400161423c565b63ffffffff16146108235760405163522b4c9760e01b815260040160405180910390fd5b601560006108318580614287565b61084290608081019060600161423c565b63ffffffff168152602081019190915260400160002054905080610879576040516326458d3160e21b815260040160405180910390fd5b60006108858480614287565b610893906020810190614069565b6001600160a01b031614806108cb575060006108af8480614287565b6108c09060c081019060a001614069565b6001600160a01b0316145b156108e957604051630794c79360e31b815260040160405180910390fd5b60006108f58480614287565b6109069060a0810190608001614069565b6001600160a01b031614801561093557506109218380614287565b6109339061010081019060e0016142c1565b155b1561095357604051637aeda90b60e11b815260040160405180910390fd5b600061095f8480614287565b6109729061012081019061010001614069565b6001600160a01b0316146109d1576109af61098d8480614287565b6109a09061012081019061010001614069565b6001600160a01b03163b151590565b6109cc57604051630c4e8aa360e01b815260040160405180910390fd5b6109fe565b6109db8380614287565b6101200135156109fe5760405163145e29ef60e11b815260040160405180910390fd5b610a088380614287565b6101200135610a178480614287565b6101400135610a26919061426f565b3414610a45576040516364c0042160e01b815260040160405180910390fd5b6000806000806000610a736040518060400160405280600063ffffffff168152602001600080191681525090565b6000610a8560408b0160208c01614069565b6001600160a01b031614610c375760096000610aa760408c0160208d01614069565b6001600160a01b0316815260208082019290925260409081016000208151808301909252805463ffffffff168252600101549181018290529150610c37576006546001600160a01b031663c86415cb610b0660408c0160208d01614069565b6040516001600160e01b031960e084901b1681526001600160a01b039091166004820152602401602060405180830381865afa158015610b4a573d6000803e3d6000fd5b505050506040513d601f19601f82011682018060405250810190610b6e91906142de565b15610b8c576040516379e5923d60e01b815260040160405180910390fd5b60065460009081906001600160a01b031663f1537686610bb260408e0160208f01614069565b6040516001600160e01b031960e084901b1681526001600160a01b0390911660048201526024016040805180830381865afa158015610bf5573d6000803e3d6000fd5b505050506040513d601f19601f82011682018060405250810190610c1991906142fb565b6040805180820190915263ffffffff90921682526020820152925050505b604089013515610cbd57610c5e610c5460408b0160208c01614069565b8a6040013561158a565b610c8181610c7260408c0160208d01614069565b8b604001358c606001356116a8565b601354909550909350610ca09085906001600160a01b031660006117cf565b601354610cb89085906001600160a01b03168561191c565b610d67565b6000610ccf60408b0160208c01614069565b6001600160a01b031614610d615760065481516020830151604051631626cf1960e21b815263ffffffff909216600483015260248201526001600160a01b039091169063589b3c6490604401602060405180830381865afa158015610d38573d6000803e3d6000fd5b505050506040513d601f19601f82011682018060405250810190610d5c9190614329565b610d64565b60005b93505b610d728982856119d4565b600480549197506000610d8483614346565b909155509450610d9690508880614287565b61014001356000600f0160008781526020019081526020016000206000828254610dc0919061426f565b90915550610dd090508880614287565b610120013515610e4c576003546001600160a01b0316635540f1c0610df58a80614287565b6101200135876040518363ffffffff1660e01b8152600401610e1991815260200190565b6000604051808303818588803b158015610e3257600080fd5b505af1158015610e46573d6000803e3d6000fd5b50505050505b6013546001600160a01b031663bc7dbab38484610e698c80614287565b610e7a90608081019060600161423c565b8a60405180606001604052808f8060000190610e969190614287565b610e9f9061444b565b815260208082018d9052336040928301529051610ebd92910161468b565b6040516020818303038152906040526040518663ffffffff1660e01b8152600401610eec9594939291906146d2565b6020604051808303816000875af1158015610f0b573d6000803e3d6000fd5b505050506040513d601f19601f82011682018060405250810190610f2f919061470b565b90508084867f46ac8c5154f94776aa9d8cf6b2619d3addf5551a849a6f658920cac2f404624d8b878733604051610f6994939291906148c1565b60405180910390a4505060016022555090949350505050565b33610f8b61155c565b6001600160a01b031614610fb2576040516314e74a2560e21b815260040160405180910390fd5b6001600160a01b03811660009081526029602052604090205460ff16610feb57604051637840a40d60e01b815260040160405180910390fd5b6001600160a01b038116600081815260296020908152604091829020805460ff19169055815192835233908301527f4860b0a180d4b5969c2757493a999f05d0b22318320f154a02170aa239e24b1391015b60405180910390a150565b3361105161155c565b6001600160a01b031614611078576040516314e74a2560e21b815260040160405180910390fd5b6001600160a01b03811660009081526029602052604090205460ff16156110b25760405163e2a4506360e01b815260040160405180910390fd5b6001600160a01b038116600081815260296020908152604091829020805460ff19166001179055815192835233908301527f3860a100215fe93b6b95ed1ae0870e538f85a73b30d073f63fefc60e08b0c124910161103d565b3361111461155c565b6001600160a01b03161461113b576040516314e74a2560e21b815260040160405180910390fd5b6003546001600160a01b0390811690821681148061116157506001600160a01b0382163b155b1561117f5760405163690e294960e01b815260040160405180910390fd5b600380546001600160a01b0319166001600160a01b03848116918217909255604080519284168352602083019190915233908201527f2873de4c5a17b06af1782c9bd388400d168f477b41d12d8b4a7008db725989fc90606001610575565b6022546000906001190161120557604051637ce54e2d60e11b815260040160405180910390fd5b600260225560255460ff161561122e57604051633ee5b89360e01b815260040160405180910390fd5b60065460009081906001600160a01b031663f15376866112546040870160208801614069565b6040516001600160e01b031960e084901b1681526001600160a01b0390911660048201526024016040805180830381865afa158015611297573d6000803e3d6000fd5b505050506040513d601f19601f820116820180604052508101906112bb91906142fb565b915091506000806112cd868585611a0a565b600082815260106020526040812080546001600160a01b03191633179055919350915080611307846112ff8789611e1c565b85158b611e5e565b91509150600061131a898484888861232e565b90506113268980614287565b611334906020810190614069565b6001600160a01b0316857f0bc849878012337ba1337c8f503d5e598af726dd9a60b4b871d21c219aa23fed8b8585336040516113739493929190614a26565b60405180910390a350506001602255509095945050505050565b3361139661155c565b6001600160a01b0316146113bd576040516314e74a2560e21b815260040160405180910390fd5b60055463ffffffff600160a01b9091048116908316036113f0576040516331e2a2af60e01b815260040160405180910390fd5b63ffffffff82166000818152601560209081526040918290206001600160a01b0385169081905582519384529083015233908201527f4fd6380016423a9eca88dd96ccb0db94e6a30fb634dca7982cb9a1565227b44190606001610575565b6022546001190161147357604051637ce54e2d60e11b815260040160405180910390fd5b600260225561148860a0870160808801614069565b6001600160a01b0316336001600160a01b0316146114b957604051638daeb00360e01b815260040160405180910390fd5b60006114d16114c78861444b565b8787878787612994565b600081815260146020908152604091829020805460ff19166001179055815163ffffffff87168152908101899052919250859183917fae8bf2a1af2ca9c953070d3325208f12a8ee450e310417da86dccf2289969da4910160405180910390a3505060016022555050505050565b63ffffffff81166000908152601560205260408120545b92915050565b7fc8fcad8db84d3cc18b4c41d551ea0ee66dd599cde068d998e57d5e09332c1320546001600160a01b031690565b80600003611596575050565b6040516370a0823160e01b81523060048201526000906001600160a01b038416906370a0823190602401602060405180830381865afa1580156115dd573d6000803e3d6000fd5b505050506040513d601f19601f82011682018060405250810190611601919061470b565b905061160f833330856129d3565b6040516370a0823160e01b8152306004820152829082906001600160a01b038616906370a0823190602401602060405180830381865afa158015611657573d6000803e3d6000fd5b505050506040513d601f19601f8201168201806040525081019061167b919061470b565b6116859190614b6e565b146116a357604051631a39afd960e11b815260040160405180910390fd5b505050565b60008080806006810154885160208a0151604051631626cf1960e21b815263ffffffff909216600483015260248201529192506000916001600160a01b039091169063589b3c6490604401602060405180830381865afa158015611710573d6000803e3d6000fd5b505050506040513d601f19601f820116820180604052508101906117349190614329565b90508560000361174a5785935091506117c69050565b866001600160a01b0316816001600160a01b0316036117705785879350935050506117c6565b60208089015189516040516000936117999392910191825263ffffffff16602082015260400190565b6040516020818303038152906040528051906020012090506117be8189848a8a612a0b565b945094505050505b94509492505050565b8015806118495750604051636eb1769f60e11b81523060048201526001600160a01b03838116602483015284169063dd62ed3e90604401602060405180830381865afa158015611823573d6000803e3d6000fd5b505050506040513d601f19601f82011682018060405250810190611847919061470b565b155b6118b95760405162461bcd60e51b815260206004820152603660248201527f5361666545524332303a20617070726f76652066726f6d206e6f6e2d7a65726f60448201527520746f206e6f6e2d7a65726f20616c6c6f77616e636560501b60648201526084015b60405180910390fd5b6040516001600160a01b0383166024820152604481018290526116a390849063095ea7b360e01b906064015b60408051601f198184030181529190526020810180516001600160e01b03166001600160e01b031990931692909217909152612b4a565b604051636eb1769f60e11b81523060048201526001600160a01b038381166024830152600091839186169063dd62ed3e90604401602060405180830381865afa15801561196d573d6000803e3d6000fd5b505050506040513d601f19601f82011682018060405250810190611991919061470b565b61199b919061426f565b6040516001600160a01b0385166024820152604481018290529091506119ce90859063095ea7b360e01b906064016118e5565b50505050565b6000611a006119e38580614287565b6119ec9061444b565b600454602086015186518692919033612994565b90505b9392505050565b336000908152600e6020526040812054819060ff16158015611a585750611a318580614287565b611a429060a0810190608001614069565b6001600160a01b0316336001600160a01b031614155b15611a7657604051637c32a2b360e01b815260040160405180910390fd5b600554600160a01b900463ffffffff16611a908680614287565b611aa190608081019060600161423c565b63ffffffff1614611ac55760405163b6bb322560e01b815260040160405180910390fd5b6000611ad46040870187614b85565b6011549092508211159050611afc576040516313c06ef360e01b815260040160405180910390fd5b6000611b09878787612c1c565b6000818152600b602052604090205490915060ff16611b288880614287565b611b399060e081019060c0016142c1565b8015611b43575080155b15611b6157604051636320d2cf60e11b815260040160405180910390fd5b604080516020808201859052818301869052825180830384018152606090920190925280519101208315611dba578115611bae5760405163373c9f6f60e01b815260040160405180910390fd5b60296000611bc260a08c0160808d01614069565b6001600160a01b0316815260208101919091526040016000205460ff16611bfc57604051631fa09b5360e31b815260040160405180910390fd5b611c4983611c0d60408c018c614b85565b604051602001611c1f93929190614bce565b60408051601f198184030181529190528051602090910120611c4460a08c018c614be8565b612c57565b6001600160a01b0316611c6260a08b0160808c01614069565b6001600160a01b031614611c8957604051638579eca560e01b815260040160405180910390fd5b60005b84811015611db457611c9c612cef565b158015611cf95750601c6000611cb560408d018d614b85565b84818110611cc557611cc5614c2e565b9050602002016020810190611cda9190614069565b6001600160a01b0316815260208101919091526040016000205460ff16155b15611d1757604051630e1eb7f760e31b815260040160405180910390fd5b611d4a82611d2860608d018d614b85565b84818110611d3857611d38614c2e565b9050602002810190611c449190614be8565b6001600160a01b0316611d6060408c018c614b85565b83818110611d7057611d70614c2e565b9050602002016020810190611d859190614069565b6001600160a01b031614611dac57604051633a1dd23360e21b815260040160405180910390fd5b600101611c8c565b50611dd8565b81611dd857604051636320d2cf60e11b815260040160405180910390fd5b6000838152601060205260409020546001600160a01b031615611e0e5760405163c2f8eb9360e01b815260040160405180910390fd5b509097909650945050505050565b60008282604051602001611e4092919091825263ffffffff16602082015260400190565b60405160208183030381529060405280519060200120905092915050565b600080611e6e6040840184614b85565b6000888152600c60205260409020611e87929091613fcc565b508260c00135600003611eaf576000611ea66040850160208601614069565b915091506117c6565b6000611ebb8480614287565b611ecd9061010081019060e0016142c1565b80611ee6575060008781526014602052604090205460ff165b905060c084013585156122d4576000611f026040870187614b85565b90509050611f1c8660c00135600060010154612710612d16565b9150806001036121415782158015611fbf575081600d6000611f4160408a018a614b85565b6000818110611f5257611f52614c2e565b9050602002016020810190611f679190614069565b6001600160a01b03166001600160a01b031681526020019081526020016000206000886020016020810190611f9c9190614069565b6001600160a01b03166001600160a01b0316815260200190815260200160002054105b8015611fda575060255461010090046001600160a01b031615155b1561209a57601d6000611ff06040890189614b85565b600081811061200157612001614c2e565b90506020020160208101906120169190614069565b6001600160a01b0316815260208101919091526040016000205460ff16612050576040516310c4e50960e01b815260040160405180910390fd5b61208e89898461206360408b018b614b85565b600081811061207457612074614c2e565b90506020020160208101906120899190614069565b612d2d565b945094505050506117c6565b81600d60006120ac60408a018a614b85565b60008181106120bd576120bd614c2e565b90506020020160208101906120d29190614069565b6001600160a01b03166001600160a01b0316815260200190815260200160002060008860200160208101906121079190614069565b6001600160a01b03166001600160a01b0316815260200190815260200160002060008282546121369190614b6e565b909155506122d29050565b600061214d8284614c5a565b905060005b61215d600184614b6e565b81101561220c5781600d600061217660408c018c614b85565b8581811061218657612186614c2e565b905060200201602081019061219b9190614069565b6001600160a01b03166001600160a01b0316815260200190815260200160002060008a60200160208101906121d09190614069565b6001600160a01b03166001600160a01b0316815260200190815260200160002060008282546121ff9190614b6e565b9091555050600101612152565b5060006122198385614c6e565b612223908361426f565b905080600d600061223760408c018c614b85565b612242600189614b6e565b81811061225157612251614c2e565b90506020020160208101906122669190614069565b6001600160a01b03166001600160a01b0316815260200190815260200160002060008a602001602081019061229b9190614069565b6001600160a01b03166001600160a01b0316815260200190815260200160002060008282546122ca9190614b6e565b909155505050505b505b81156122f657806122eb6040870160208801614069565b9350935050506117c6565b61231f8761230a6040880160208901614069565b836123158980614287565b6101600135612ef9565b93509350505094509492505050565b6012546000906001600160a01b03161561267e578161257c576040516370a0823160e01b81523060048201526000906001600160a01b038616906370a0823190602401602060405180830381865afa15801561238e573d6000803e3d6000fd5b505050506040513d601f19601f820116820180604052508101906123b2919061470b565b600154909150612710906000906123d99060c08b0135906123d39085614b6e565b84612d16565b60125490915060009081906001600160a01b031663643dd2d360e11b8a856124018f80614287565b61240f906020810190614069565b6040516001600160a01b0393841660248201526044810192909252909116606482015260840160408051601f198184030181529181526020820180516001600160e01b03166001600160e01b03199094169390931790925290516124739190614c82565b6000604051808303816000865af19150503d80600081146124b0576040519150601f19603f3d011682016040523d82523d6000602084013e6124b5565b606091505b50915091508115612576576000818060200190518101906124d6919061470b565b90506124e2818761426f565b6040516370a0823160e01b81523060048201526001600160a01b038c16906370a0823190602401602060405180830381865afa158015612526573d6000803e3d6000fd5b505050506040513d601f19601f8201168201806040525081019061254a919061470b565b14612568576040516304184fc360e31b815260040160405180910390fd5b612572818c61426f565b9a50505b50505050505b6012546001600160a01b03166304df19dd60e01b61259a8880614287565b6125ab90606081019060400161423c565b6125b58980614287565b6125c3906020810190614069565b6125cd8a80614287565b60405163ffffffff90931660248401526001600160a01b0390911660448301526101400135606482015260840160408051601f198184030181529181526020820180516001600160e01b03166001600160e01b03199094169390931790925290516126389190614c82565b6000604051808303816000865af19150503d8060008114612675576040519150601f19603f3d011682016040523d82523d6000602084013e61267a565b606091505b5050505b7fc5d2460186f7233c927e7db2dcc703c0e500b653ca82273b7bfad8045d85a4706126a98780614287565b6126b7906020810190614be8565b6040516126c5929190614c94565b6040518091039020036126f9576126f4846126e08880614287565b6126ee906020810190614069565b87612f4e565b612988565b6005546127119085906001600160a01b031687612f4e565b60055460408051610100810182528581526020810188905260009283926001600160a01b0390911691637742a00691810161274c8c80614287565b61275a906020810190614069565b6001600160a01b031681526020016127728c80614287565b6127839060c081019060a001614069565b6001600160a01b03168152602001896001600160a01b03168152602001876127ac5760006127be565b6127be6101208d016101008e01614069565b6001600160a01b03168152602001876127d85760006127f3565b6127e28c80614287565b6127f390606081019060400161423c565b63ffffffff1681526020016128088c80614287565b612816906020810190614be8565b8080601f01602080910402602001604051908101604052809392919081815260200183838082843760009201919091525050509152506040516001600160e01b031960e084901b16815261286d9190600401614ca4565b6000604051808303816000875af115801561288c573d6000803e3d6000fd5b505050506040513d6000823e601f3d908101601f191682016040526128b49190810190614d39565b909250905060006128c58980614287565b6128d89061012081019061010001614069565b6001600160a01b031614612985576003546001600160a01b03166365d82b8b6129018a80614287565b61291290606081019060400161423c565b8761291d8c80614287565b6129309061012081019061010001614069565b86866040518663ffffffff1660e01b8152600401612952959493929190614dc5565b600060405180830381600087803b15801561296c57600080fd5b505af1158015612980573d6000803e3d6000fd5b505050505b50505b50835b95945050505050565b600084878386868a6040516020016129b196959493929190614e00565b6040516020818303038152906040528051906020012090509695505050505050565b6040516001600160a01b03808516602483015283166044820152606481018290526119ce9085906323b872dd60e01b906084016118e5565b6000858152602360205260408120600801548190819015612a6157612a56612a338989612f8d565b612a3d8a89612f8d565b60008b8152602385016020526040902091908888613015565b869250925050612b40565b60008881526007820160205260408120546001600160a01b031690612a8990899083906117cf565b612a9488828861191c565b6001600160a01b03811663d460f0a2878a8a89612ab342610e1061426f565b6040516001600160e01b031960e088901b16815260048101959095526001600160a01b0393841660248601529290911660448401526064830152608482015260a4016020604051808303816000875af1158015612b14573d6000803e3d6000fd5b505050506040513d601f19601f82011682018060405250810190612b38919061470b565b879350935050505b9550959350505050565b6000612b9f826040518060400160405280602081526020017f5361666545524332303a206c6f772d6c6576656c2063616c6c206661696c6564815250856001600160a01b03166133429092919063ffffffff16565b8051909150156116a35780806020019051810190612bbd91906142de565b6116a35760405162461bcd60e51b815260206004820152602a60248201527f5361666545524332303a204552433230206f7065726174696f6e20646964206e6044820152691bdd081cdd58d8d9595960b21b60648201526084016118b0565b6000611a00612c2b8580614287565b612c349061444b565b60c086013560e08701358587612c526101208b016101008c01614069565b612994565b6000611a00612cb3856040517f19457468657265756d205369676e6564204d6573736167653a0a3332000000006020820152603c8101829052600090605c01604051602081830303815290604052805190602001209050919050565b84848080601f01602080910402602001604051908101604052809392919081815260200183838082843760009201919091525061335192505050565b600080612cfa61155c565b6001600160a01b03161480612d11575060185460ff165b905090565b600081612d238486614e4d565b611a009190614c5a565b6000838152600a60205260408082205460255491516369a933a560e01b81526001600160a01b039182166004820181905260248201879052306044830152606482018590528493909261010090910416906369a933a590608401600060405180830381600087803b158015612da157600080fd5b505af1158015612db5573d6000803e3d6000fd5b5050602554604051631a4ca37b60e21b81526001600160a01b038581166004830152602482018a90523060448301526000945061010090920490911691506369328dec906064016020604051808303816000875af1158015612e1b573d6000803e3d6000fd5b505050506040513d601f19601f82011682018060405250810190612e3f919061470b565b905085811015612e625760405163407559a360e11b815260040160405180910390fd5b600088815260276020526040902086905560265461271090612e85908890614e4d565b612e8f9190614c5a565b6000898152602860209081526040918290209290925580516001600160a01b038581168252928101899052918716918a917f2d3ba0fa5be2ef8cb1ec8920a07a6cbccc2397b18ca3e70f48ea695500b8f218910160405180910390a3509396939550929350505050565b6000848152600a6020526040812054819081906001600160a01b039081169087168103612f2d5785879350935050506117c6565b85600003612f415785935091506117c69050565b61231f8888838989612a0b565b80600003612f5b57505050565b6001600160a01b038316612f8257604051633a48ca7b60e11b815260040160405180910390fd5b6116a3838383613375565b60008281526024602090815260408083206001600160a01b0385168085529083528184205486855260239093529083206008018054849360ff1692919083908110612fda57612fda614c2e565b6000918252602090912001546001600160a01b03161461300d5760405163054e442960e41b815260040160405180910390fd5b949350505050565b600080866008018660ff168154811061303057613030614c2e565b6000918252602090912001546040516370a0823160e01b81523360048201526001600160a01b03909116915081906370a0823190602401602060405180830381865afa158015613084573d6000803e3d6000fd5b505050506040513d601f19601f820116820180604052508101906130a8919061470b565b8411156130eb5760405162461bcd60e51b815260206004820152601160248201527036b7b932903a3430b7103cb7ba9037bbb760791b60448201526064016118b0565b600080600089600a0180548060200260200160405190810160405280929190818152602001828054801561313e57602002820191906000526020600020905b81548152602001906001019080831161312a575b505050505090506131528a8a8a8a856133a5565b9093509150858310156131945760405162461bcd60e51b815260206004820152600a6024820152696479203c206d696e447960b01b60448201526064016118b0565b60008a6009018960ff16815481106131ae576131ae614c2e565b90600052602060002001546402540be4008c60060154856131cf9190614e4d565b6131d99190614c5a565b6131e39190614c5a565b905087828b60ff16815181106131fb576131fb614c2e565b602002602001015161320d919061426f565b8b600a018b60ff168154811061322557613225614c2e565b90600052602060002001819055508084838b60ff168151811061324a5761324a614c2e565b602002602001015161325c9190614b6e565b6132669190614b6e565b8b600a018a60ff168154811061327e5761327e614c2e565b60009182526020909120015580156132e357808b600b018a60ff16815481106132a9576132a9614c2e565b90600052602060002001546132be919061426f565b8b600b018a60ff16815481106132d6576132d6614c2e565b6000918252602090912001555b8a54604080518a81526020810187905260ff8d8116828401528c16606082015290513392917f28d4cf2d5709da3b474b5f05cfd7083faffd601f9500d1f8439b8a13ec7df320919081900360800190a350919998505050505050505050565b6060611a00848460008561356b565b6000806000613360858561369c565b9150915061336d816136e1565b509392505050565b6040516001600160a01b0383166024820152604481018290526116a390849063a9059cbb60e01b906064016118e5565b6000806000876009018054806020026020016040519081016040528092919081815260200182805480156133f857602002820191906000526020600020905b8154815260200190600101908083116133e4575b50505050509050600061340b858361389a565b905080518860ff16108015613423575080518760ff16105b6134645760405162461bcd60e51b8152602060048201526012602482015271696e646578206f7574206f662072616e676560701b60448201526064016118b0565b6000818960ff168151811061347b5761347b614c2e565b6020026020010151838a60ff168151811061349857613498614c2e565b6020026020010151886134ab9190614e4d565b6134b5919061426f565b905060006134ce6134c58c6139a4565b8b8b85876139af565b9050600181848b60ff16815181106134e8576134e8614c2e565b60200260200101516134fa9190614b6e565b6135049190614b6e565b95506402540be4008b600501548761351c9190614e4d565b6135269190614c5a565b9450838960ff168151811061353d5761353d614c2e565b602002602001015185876135519190614b6e565b61355b9190614c5a565b9550505050509550959350505050565b6060824710156135cc5760405162461bcd60e51b815260206004820152602660248201527f416464726573733a20696e73756666696369656e742062616c616e636520666f6044820152651c8818d85b1b60d21b60648201526084016118b0565b6001600160a01b0385163b6136235760405162461bcd60e51b815260206004820152601d60248201527f416464726573733a2063616c6c20746f206e6f6e2d636f6e747261637400000060448201526064016118b0565b600080866001600160a01b0316858760405161363f9190614c82565b60006040518083038185875af1925050503d806000811461367c576040519150601f19603f3d011682016040523d82523d6000602084013e613681565b606091505b5091509150613691828286613c16565b979650505050505050565b60008082516041036136d25760208301516040840151606085015160001a6136c687828585613c4f565b945094505050506136da565b506000905060025b9250929050565b60008160048111156136f5576136f5614e6c565b036136fd5750565b600181600481111561371157613711614e6c565b0361375e5760405162461bcd60e51b815260206004820152601860248201527f45434453413a20696e76616c6964207369676e6174757265000000000000000060448201526064016118b0565b600281600481111561377257613772614e6c565b036137bf5760405162461bcd60e51b815260206004820152601f60248201527f45434453413a20696e76616c6964207369676e6174757265206c656e6774680060448201526064016118b0565b60038160048111156137d3576137d3614e6c565b0361382b5760405162461bcd60e51b815260206004820152602260248201527f45434453413a20696e76616c6964207369676e6174757265202773272076616c604482015261756560f01b60648201526084016118b0565b600481600481111561383f5761383f614e6c565b036138975760405162461bcd60e51b815260206004820152602260248201527f45434453413a20696e76616c6964207369676e6174757265202776272076616c604482015261756560f01b60648201526084016118b0565b50565b815181516060919081146138e75760405162461bcd60e51b81526020600482015260146024820152736d69736d61746368206d756c7469706c6965727360601b60448201526064016118b0565b6000816001600160401b038111156139015761390161435f565b60405190808252806020026020018201604052801561392a578160200160208202803683370190505b50905060005b8281101561399b5784818151811061394a5761394a614c2e565b602002602001015186828151811061396457613964614c2e565b60200260200101516139769190614e4d565b82828151811061398857613988614c2e565b6020908102919091010152600101613930565b50949350505050565b600061155682613d39565b805160009060ff80861690871603613a095760405162461bcd60e51b815260206004820152601760248201527f636f6d7061726520746f6b656e20746f20697473656c6600000000000000000060448201526064016118b0565b808660ff16108015613a1d5750808560ff16105b613a5b5760405162461bcd60e51b815260206004820152600f60248201526e1d1bdad95b881b9bdd08199bdd5b99608a1b60448201526064016118b0565b6000613a678489613de3565b905080600080613a778b86614e4d565b90506000805b86811015613afe578b60ff168103613a9757899150613aca565b8a60ff168114613ac257888181518110613ab357613ab3614c2e565b60200260200101519150613aca565b600101613a7d565b613ad4828561426f565b9350613ae08783614e4d565b613aea8787614e4d565b613af49190614c5a565b9450600101613a7d565b50613b098683614e4d565b6064613b158787614e4d565b613b1f9190614e4d565b613b299190614c5a565b9350600082613b39606488614e4d565b613b439190614c5a565b613b4d908561426f565b9050600086815b610100811015613bcd578192508884836002613b709190614e4d565b613b7a919061426f565b613b849190614b6e565b88613b8f8480614e4d565b613b99919061426f565b613ba39190614c5a565b9150613baf8284613f90565b15613bc55750985061298b975050505050505050565b600101613b54565b5060405162461bcd60e51b815260206004820152601e60248201527f417070726f78696d6174696f6e20646964206e6f7420636f6e7665726765000060448201526064016118b0565b60608315613c25575081611a03565b825115613c355782518084602001fd5b8160405162461bcd60e51b81526004016118b09190614e82565b6000807f7fffffffffffffffffffffffffffffff5d576e7357a4501ddfe92f46681b20a0831115613c8657506000905060036117c6565b8460ff16601b14158015613c9e57508460ff16601c14155b15613caf57506000905060046117c6565b6040805160008082526020820180845289905260ff881692820192909252606081018690526080810185905260019060a0016020604051602081039080840390855afa158015613d03573d6000803e3d6000fd5b5050604051601f1901519150506001600160a01b038116613d2c576000600192509250506117c6565b9660009650945050505050565b600481015460028201546000919042821115611a03576003840154600185015480831115613da757613d6b8285614b6e565b613d758342614b6e565b613d7f8386614b6e565b613d899190614e4d565b613d939190614c5a565b613d9d908261426f565b9695505050505050565b613db18285614b6e565b613dbb8342614b6e565b613dc58584614b6e565b613dcf9190614e4d565b613dd99190614c5a565b613d9d9082614b6e565b815160009081805b82811015613e2257858181518110613e0557613e05614c2e565b602002602001015182613e18919061426f565b9150600101613deb565b5080600003613e3657600092505050611556565b60008181613e448588614e4d565b905060005b610100811015613f51578260005b87811015613ea257878b8281518110613e7257613e72614c2e565b6020026020010151613e849190614e4d565b613e8e8684614e4d565b613e989190614c5a565b9150600101613e57565b5083945080876001613eb4919061426f565b613ebe9190614e4d565b606485613ecb8287614b6e565b613ed59190614e4d565b613edf9190614c5a565b613ee9919061426f565b84613ef48984614e4d565b6064613f008a88614e4d565b613f0a9190614c5a565b613f14919061426f565b613f1e9190614e4d565b613f289190614c5a565b9350613f348486613f90565b15613f485783975050505050505050611556565b50600101613e49565b5060405162461bcd60e51b81526020600482015260136024820152724420646f6573206e6f7420636f6e766572676560681b60448201526064016118b0565b60006001613f9e8484613fa7565b11159392505050565b600081831115613fc257613fbb8284614b6e565b9050611556565b611a038383614b6e565b82805482825590600052602060002090810192821561401f579160200282015b8281111561401f5781546001600160a01b0319166001600160a01b03843516178255602090920191600190910190613fec565b5061402b92915061402f565b5090565b5b8082111561402b5760008155600101614030565b6001600160a01b038116811461389757600080fd5b803561406481614044565b919050565b60006020828403121561407b57600080fd5b8135611a0381614044565b60006020828403121561409857600080fd5b5035919050565b6020808252825182820181905260009190848201906040850190845b818110156140e05783516001600160a01b0316835292840192918401916001016140bb565b50909695505050505050565b6000602082840312156140fe57600080fd5b81356001600160401b0381111561411457600080fd5b820160808185031215611a0357600080fd5b60006020828403121561413857600080fd5b81356001600160401b0381111561414e57600080fd5b82016101208185031215611a0357600080fd5b63ffffffff8116811461389757600080fd5b803561406481614161565b6000806040838503121561419157600080fd5b823561419c81614161565b915060208301356141ac81614044565b809150509250929050565b60008060008060008060c087890312156141d057600080fd5b86356001600160401b038111156141e657600080fd5b8701610180818a0312156141f957600080fd5b9550602087013594506040870135935060608701359250608087013561421e81614161565b915060a087013561422e81614044565b809150509295509295509295565b60006020828403121561424e57600080fd5b8135611a0381614161565b634e487b7160e01b600052601160045260246000fd5b6000821982111561428257614282614259565b500190565b6000823561017e1983360301811261429e57600080fd5b9190910192915050565b801515811461389757600080fd5b8035614064816142a8565b6000602082840312156142d357600080fd5b8135611a03816142a8565b6000602082840312156142f057600080fd5b8151611a03816142a8565b6000806040838503121561430e57600080fd5b825161431981614161565b6020939093015192949293505050565b60006020828403121561433b57600080fd5b8151611a0381614044565b60006001820161435857614358614259565b5060010190565b634e487b7160e01b600052604160045260246000fd5b60405161018081016001600160401b03811182821017156143985761439861435f565b60405290565b604051601f8201601f191681016001600160401b03811182821017156143c6576143c661435f565b604052919050565b60006001600160401b038211156143e7576143e761435f565b50601f01601f191660200190565b600082601f83011261440657600080fd5b8135614419614414826143ce565b61439e565b81815284602083860101111561442e57600080fd5b816020850160208301376000918101602001919091529392505050565b6000610180823603121561445e57600080fd5b614466614375565b61446f83614059565b815260208301356001600160401b0381111561448a57600080fd5b614496368286016143f5565b6020830152506144a860408401614173565b60408201526144b960608401614173565b60608201526144ca60808401614059565b60808201526144db60a08401614059565b60a08201526144ec60c084016142b6565b60c08201526144fd60e084016142b6565b60e0820152610100614510818501614059565b908201526101208381013590820152610140808401359082015261016092830135928101929092525090565b60005b8381101561455757818101518382015260200161453f565b838111156119ce5750506000910152565b6000815180845261458081602086016020860161453c565b601f01601f19169290920160200192915050565b80516001600160a01b03168252600061018060208301518160208601526145bd82860182614568565b91505060408301516145d7604086018263ffffffff169052565b5060608301516145ef606086018263ffffffff169052565b50608083015161460a60808601826001600160a01b03169052565b5060a083015161462560a08601826001600160a01b03169052565b5060c083015161463960c086018215159052565b5060e083015161464d60e086018215159052565b50610100838101516001600160a01b031690850152610120808401519085015261014080840151908501526101609283015192909301919091525090565b6020815260008251606060208401526146a76080840182614594565b6020850151604085810191909152909401516001600160a01b03166060909301929092525090919050565b60018060a01b038616815284602082015263ffffffff8416604082015282606082015260a06080820152600061369160a0830184614568565b60006020828403121561471d57600080fd5b5051919050565b6000823561017e1983360301811261473b57600080fd5b90910192915050565b6000808335601e1984360301811261475b57600080fd5b83016020810192503590506001600160401b0381111561477a57600080fd5b8036038213156136da57600080fd5b81835281816020850137506000828201602090810191909152601f909101601f19169091010190565b60006101806147d1846147c485614059565b6001600160a01b03169052565b6147de6020840184614744565b8260208701526147f18387018284614789565b9250505061480160408401614173565b63ffffffff16604085015261481860608401614173565b63ffffffff16606085015261482f60808401614059565b6001600160a01b0316608085015261484960a08401614059565b6001600160a01b031660a085015261486360c084016142b6565b151560c085015261487660e084016142b6565b151560e085015261010061488b848201614059565b6001600160a01b031690850152610120838101359085015261014080840135908501526101609283013592909301919091525090565b6080815260006148d18687614724565b6080808401526148e56101008401826147b2565b905060208701356148f581614044565b6001600160a01b0390811660a085015260408881013560c086015260609889013560e0860152968116602085015295830194909452509216929091019190915290565b6000808335601e1984360301811261494f57600080fd5b83016020810192503590506001600160401b0381111561496e57600080fd5b8060051b36038213156136da57600080fd5b8183526000602080850194508260005b858110156149be5781356149a381614044565b6001600160a01b031687529582019590820190600101614990565b509495945050505050565b81835260006020808501808196508560051b810191508460005b87811015614a195782840389526149fa8288614744565b614a05868284614789565b9a87019a95505050908401906001016149e3565b5091979650505050505050565b608081526000614a368687614724565b610120806080850152614a4d6101a08501836147b2565b9150614a5b60208901614059565b6001600160a01b031660a0850152614a766040890189614938565b607f19808786030160c0880152614a8e858385614980565b9450614a9d60608c018c614938565b93509150808786030160e0880152614ab68584846149c9565b9450614ac460808c01614059565b92506101009150614adf828801846001600160a01b03169052565b614aec60a08c018c614744565b9350818887030185890152614b02868583614789565b9550505060c08a013561014087015260e08a0135610160870152614b27818b01614059565b92505050614b416101808501826001600160a01b03169052565b506001600160a01b0386166020840152905083604083015261298b60608301846001600160a01b03169052565b600082821015614b8057614b80614259565b500390565b6000808335601e19843603018112614b9c57600080fd5b8301803591506001600160401b03821115614bb657600080fd5b6020019150600581901b36038213156136da57600080fd5b83815260406020820152600061298b604083018486614980565b6000808335601e19843603018112614bff57600080fd5b8301803591506001600160401b03821115614c1957600080fd5b6020019150368190038213156136da57600080fd5b634e487b7160e01b600052603260045260246000fd5b634e487b7160e01b600052601260045260246000fd5b600082614c6957614c69614c44565b500490565b600082614c7d57614c7d614c44565b500690565b6000825161429e81846020870161453c565b8183823760009101908152919050565b6020815281516020820152602082015160408201526000604083015160018060a01b03808216606085015280606086015116608085015250506080830151614cf760a08401826001600160a01b03169052565b5060a08301516001600160a01b03811660c08401525060c083015163ffffffff811660e08401525060e08301516101008381015261300d610120840182614568565b60008060408385031215614d4c57600080fd5b8251614d57816142a8565b60208401519092506001600160401b03811115614d7357600080fd5b8301601f81018513614d8457600080fd5b8051614d92614414826143ce565b818152866020838501011115614da757600080fd5b614db882602083016020860161453c565b8093505050509250929050565b63ffffffff8616815284602082015260018060a01b0384166040820152821515606082015260a06080820152600061369160a0830184614568565b86815260c060208201526000614e1960c0830188614594565b6001600160a01b0396909616604083015250606081019390935263ffffffff91909116608083015260a09091015292915050565b6000816000190483118215151615614e6757614e67614259565b500290565b634e487b7160e01b600052602160045260246000fd5b602081526000611a03602083018461456856fea26469706673582212207de8e8e5fa17a70b0523189428dddb632568d6ff55096eabeed4d87fbfce079664736f6c634300080f0033",
  "devdoc": {
    "events": {
      "AavePortalMintUnbacked(bytes32,address,address,uint256)": {
        "params": {
          "amount": "- The amount of asset that was provided by Aave Portal",
          "asset": "- The asset that was provided by Aave Portal",
          "router": "- The authorized router that used Aave Portal liquidity",
          "transferId": "- The unique identifier of the crosschain transaction"
        }
      },
      "ConnextionAdded(uint32,address,address)": {
        "params": {
          "caller": "- The account that called the function",
          "connext": "- The address of the connext instance",
          "domain": "- The domain the connext instance is on"
        }
      },
      "Executed(bytes32,address,((address,bytes,uint32,uint32,address,address,bool,bool,address,uint256,uint256,uint256),address,address[],bytes[],address,bytes,uint256,uint256,address),address,uint256,address)": {
        "details": "`execute` may be called when providing fast liquidity *or* when processing a reconciled transfer",
        "params": {
          "args": "- The `ExecuteArgs` provided to the function.",
          "caller": "- The account that called the function.",
          "to": "- The recipient `CallParams.to` provided, created as indexed parameter.",
          "transactingAmount": "- The amount of transferring asset the to address receives or the external call is executed with.",
          "transactingAsset": "- The asset the to gets or the external call is executed with. Should be the adopted asset on that chain.",
          "transferId": "- The unique identifier of the crosschain transfer."
        }
      },
      "ExecutorUpdated(address,address,address)": {
        "params": {
          "caller": "- The account that called the function",
          "newExecutor": "- The executor new value",
          "oldExecutor": "- The executor old value"
        }
      },
      "ForcedReceiveLocal(bytes32,bytes32,uint32,uint256)": {
        "params": {
          "amount": "- The amount for the transfer",
          "canonicalDomain": "- The canonical domain for the local asset",
          "canonicalId": "- The canonical identifier for the local asset",
          "transferId": "- The unique identifier of the crosschain transaction"
        }
      },
      "PromiseRouterUpdated(address,address,address)": {
        "params": {
          "caller": "- The account that called the function",
          "newRouter": "- The promiseRouter new value",
          "oldRouter": "- The promiseRouter old value"
        }
      },
      "SequencerAdded(address,address)": {
        "params": {
          "caller": "- The account that called the function",
          "sequencer": "- The sequencer address to be added or removed"
        }
      },
      "SequencerRemoved(address,address)": {
        "params": {
          "caller": "- The account that called the function",
          "sequencer": "- The sequencer address to be added or removed"
        }
      },
      "SponsorVaultUpdated(address,address,address)": {
        "params": {
          "caller": "- The account that called the function",
          "newSponsorVault": "- The sponsorVault new value",
          "oldSponsorVault": "- The sponsorVault old value"
        }
      },
      "TransferRelayerFeesUpdated(bytes32,uint256,address)": {
        "params": {
          "caller": "- The account that called the function",
          "relayerFee": "- The updated amount of relayer fee in native asset",
          "transferId": "- The unique identifier of the crosschain transaction"
        }
      },
      "XCalled(bytes32,uint256,bytes32,((address,bytes,uint32,uint32,address,address,bool,bool,address,uint256,uint256,uint256),address,uint256,uint256),address,uint256,address)": {
        "params": {
          "bridgedAmount": "- The amount of the bridgedAsset being sent, after AMM swap from adopted asset if it was necessary.",
          "bridgedAsset": "- The local (mad) asset being bridged. Could be the same as the transactingAsset (adopted asset), or may be different (indicating the transactingAsset was swapped for this bridgedAsset).",
          "caller": "- The account that called the function.",
          "nonce": "- The bridge nonce of the transfer on the origin domain.",
          "transferId": "- The unique identifier of the crosschain transfer.",
          "xcallArgs": "- The `XCallArgs` provided to the function."
        }
      }
    },
    "kind": "dev",
    "methods": {
      "addSequencer(address)": {
        "params": {
          "_sequencer": "- The sequencer address to add."
        }
      },
      "bumpTransfer(bytes32)": {
        "params": {
          "_transferId": "- The unique identifier of the crosschain transaction"
        }
      },
      "execute(((address,bytes,uint32,uint32,address,address,bool,bool,address,uint256,uint256,uint256),address,address[],bytes[],address,bytes,uint256,uint256,address))": {
        "details": "Can be called before or after `handle` [reconcile] is called (regarding the same transfer), depending on whether the fast liquidity route (i.e. funds provided by routers) is being used for this transfer. As a result, executed calldata (including properties like `originSender`) may or may not be verified depending on whether the reconcile has been completed (i.e. the optimistic confirmation period has elapsed).",
        "params": {
          "_args": "- ExecuteArgs arguments."
        },
        "returns": {
          "_0": "bytes32 - The transfer ID of the crosschain transfer. Should match the xcall's transfer ID in order for reconciliation to occur."
        }
      },
      "forceReceiveLocal((address,bytes,uint32,uint32,address,address,bool,bool,address,uint256,uint256,uint256),uint256,uint256,bytes32,uint32,address)": {
        "details": "Should be called in situations where transfers are facing unfavorable slippage conditions for extended periods",
        "params": {
          "_amount": "- The amount of transferring asset the tx called xcall with",
          "_canonicalDomain": "- The domain of the canonical asset associated with the transfer",
          "_canonicalId": "- The identifier of the canonical asset associated with the transfer",
          "_nonce": "- The nonce for the transfer",
          "_originSender": "- The msg.sender of the origin call",
          "_params": "- The call params for the transaction"
        }
      },
      "removeSequencer(address)": {
        "params": {
          "_sequencer": "- The sequencer address to remove."
        }
      },
      "xcall(((address,bytes,uint32,uint32,address,address,bool,bool,address,uint256,uint256,uint256),address,uint256,uint256))": {
        "details": "For ERC20 transfers, this contract must have approval to transfer the input (transacting) assets. The adopted assets will be swapped for their local nomad asset counterparts (i.e. bridgeable tokens) via the configured AMM if necessary. In the event that the adopted assets *are* local nomad assets, no swap is needed. The local tokens will then be sent via the bridge router. If the local assets are representational for an asset on another chain, we will burn the tokens here. If the local assets are canonical (meaning that the adopted<>local asset pairing is native to this chain), we will custody the tokens here.",
        "params": {
          "_args": "- The XCallArgs arguments."
        },
        "returns": {
          "_0": "bytes32 - The transfer ID of the newly created crosschain transfer."
        }
      }
    },
    "version": 1
  },
  "userdoc": {
    "events": {
      "AavePortalMintUnbacked(bytes32,address,address,uint256)": {
        "notice": "Emitted when a router used Aave Portal liquidity for fast transfer"
      },
      "ConnextionAdded(uint32,address,address)": {
        "notice": "Emitted when a new connext instance is added"
      },
      "Executed(bytes32,address,((address,bytes,uint32,uint32,address,address,bool,bool,address,uint256,uint256,uint256),address,address[],bytes[],address,bytes,uint256,uint256,address),address,uint256,address)": {
        "notice": "Emitted when `execute` is called on the destination chain"
      },
      "ExecutorUpdated(address,address,address)": {
        "notice": "Emitted when the executor variable is updated"
      },
      "ForcedReceiveLocal(bytes32,bytes32,uint32,uint256)": {
        "notice": "Emitted when a transfer will accept the local asset instead of the previously specified adopted asset."
      },
      "PromiseRouterUpdated(address,address,address)": {
        "notice": "Emitted when the promiseRouter variable is updated"
      },
      "SequencerAdded(address,address)": {
        "notice": "Emitted when a sequencer is added or removed from whitelists"
      },
      "SequencerRemoved(address,address)": {
        "notice": "Emitted when a sequencer is added or removed from whitelists"
      },
      "SponsorVaultUpdated(address,address,address)": {
        "notice": "Emitted when the sponsorVault variable is updated"
      },
      "TransferRelayerFeesUpdated(bytes32,uint256,address)": {
        "notice": "Emitted when `bumpTransfer` is called by an user on the origin domain"
      },
      "XCalled(bytes32,uint256,bytes32,((address,bytes,uint32,uint32,address,address,bool,bool,address,uint256,uint256,uint256),address,uint256,uint256),address,uint256,address)": {
        "notice": "Emitted when `xcall` is called on the origin domain"
      }
    },
    "kind": "user",
    "methods": {
      "addSequencer(address)": {
        "notice": "Used to add an approved sequencer to the whitelist."
      },
      "bumpTransfer(bytes32)": {
        "notice": "Anyone can call this function on the origin domain to increase the relayer fee for a transfer."
      },
      "execute(((address,bytes,uint32,uint32,address,address,bool,bool,address,uint256,uint256,uint256),address,address[],bytes[],address,bytes,uint256,uint256,address))": {
        "notice": "Called on a destination domain to disburse correct assets to end recipient and execute any included calldata."
      },
      "forceReceiveLocal((address,bytes,uint32,uint32,address,address,bool,bool,address,uint256,uint256,uint256),uint256,uint256,bytes32,uint32,address)": {
        "notice": "A user-specified agent can call this to accept the local asset instead of the previously specified adopted asset."
      },
      "removeSequencer(address)": {
        "notice": "Used to remove an approved sequencer from the whitelist."
      },
      "xcall(((address,bytes,uint32,uint32,address,address,bool,bool,address,uint256,uint256,uint256),address,uint256,uint256))": {
        "notice": "Initiates a cross-chain transfer of funds, calldata, and/or various named properties using the nomad network."
      }
    },
    "version": 1
  },
  "storageLayout": {
    "storage": [
      {
        "astId": 6382,
        "contract": "contracts/core/connext/facets/BridgeFacet.sol:BridgeFacet",
        "label": "s",
        "offset": 0,
        "slot": "0",
        "type": "t_struct(AppStorage)19374_storage"
      }
    ],
    "types": {
      "t_address": {
        "encoding": "inplace",
        "label": "address",
        "numberOfBytes": "20"
      },
      "t_array(t_address)dyn_storage": {
        "base": "t_address",
        "encoding": "dynamic_array",
        "label": "address[]",
        "numberOfBytes": "32"
      },
      "t_array(t_contract(IERC20)3580)dyn_storage": {
        "base": "t_contract(IERC20)3580",
        "encoding": "dynamic_array",
        "label": "contract IERC20[]",
        "numberOfBytes": "32"
      },
      "t_array(t_uint256)dyn_storage": {
        "base": "t_uint256",
        "encoding": "dynamic_array",
        "label": "uint256[]",
        "numberOfBytes": "32"
      },
      "t_bool": {
        "encoding": "inplace",
        "label": "bool",
        "numberOfBytes": "1"
      },
      "t_bytes32": {
        "encoding": "inplace",
        "label": "bytes32",
        "numberOfBytes": "32"
      },
      "t_contract(IBridgeRouter)16267": {
        "encoding": "inplace",
        "label": "contract IBridgeRouter",
        "numberOfBytes": "20"
      },
      "t_contract(IERC20)3580": {
        "encoding": "inplace",
        "label": "contract IERC20",
        "numberOfBytes": "20"
      },
      "t_contract(IExecutor)17434": {
        "encoding": "inplace",
        "label": "contract IExecutor",
        "numberOfBytes": "20"
      },
      "t_contract(ISponsorVault)17504": {
        "encoding": "inplace",
        "label": "contract ISponsorVault",
        "numberOfBytes": "20"
      },
      "t_contract(IStableSwap)17818": {
        "encoding": "inplace",
        "label": "contract IStableSwap",
        "numberOfBytes": "20"
      },
      "t_contract(ITokenRegistry)17907": {
        "encoding": "inplace",
        "label": "contract ITokenRegistry",
        "numberOfBytes": "20"
      },
      "t_contract(LPToken)14145": {
        "encoding": "inplace",
        "label": "contract LPToken",
        "numberOfBytes": "20"
      },
      "t_contract(PromiseRouter)28337": {
        "encoding": "inplace",
        "label": "contract PromiseRouter",
        "numberOfBytes": "20"
      },
      "t_contract(RelayerFeeRouter)28897": {
        "encoding": "inplace",
        "label": "contract RelayerFeeRouter",
        "numberOfBytes": "20"
      },
      "t_mapping(t_address,t_address)": {
        "encoding": "mapping",
        "key": "t_address",
        "label": "mapping(address => address)",
        "numberOfBytes": "32",
        "value": "t_address"
      },
      "t_mapping(t_address,t_bool)": {
        "encoding": "mapping",
        "key": "t_address",
        "label": "mapping(address => bool)",
        "numberOfBytes": "32",
        "value": "t_bool"
      },
      "t_mapping(t_address,t_mapping(t_address,t_uint256))": {
        "encoding": "mapping",
        "key": "t_address",
        "label": "mapping(address => mapping(address => uint256))",
        "numberOfBytes": "32",
        "value": "t_mapping(t_address,t_uint256)"
      },
      "t_mapping(t_address,t_struct(TokenId)19129_storage)": {
        "encoding": "mapping",
        "key": "t_address",
        "label": "mapping(address => struct TokenId)",
        "numberOfBytes": "32",
        "value": "t_struct(TokenId)19129_storage"
      },
      "t_mapping(t_address,t_uint256)": {
        "encoding": "mapping",
        "key": "t_address",
        "label": "mapping(address => uint256)",
        "numberOfBytes": "32",
        "value": "t_uint256"
      },
      "t_mapping(t_address,t_uint8)": {
        "encoding": "mapping",
        "key": "t_address",
        "label": "mapping(address => uint8)",
        "numberOfBytes": "32",
        "value": "t_uint8"
      },
      "t_mapping(t_bytes32,t_address)": {
        "encoding": "mapping",
        "key": "t_bytes32",
        "label": "mapping(bytes32 => address)",
        "numberOfBytes": "32",
        "value": "t_address"
      },
      "t_mapping(t_bytes32,t_array(t_address)dyn_storage)": {
        "encoding": "mapping",
        "key": "t_bytes32",
        "label": "mapping(bytes32 => address[])",
        "numberOfBytes": "32",
        "value": "t_array(t_address)dyn_storage"
      },
      "t_mapping(t_bytes32,t_bool)": {
        "encoding": "mapping",
        "key": "t_bytes32",
        "label": "mapping(bytes32 => bool)",
        "numberOfBytes": "32",
        "value": "t_bool"
      },
      "t_mapping(t_bytes32,t_contract(IStableSwap)17818)": {
        "encoding": "mapping",
        "key": "t_bytes32",
        "label": "mapping(bytes32 => contract IStableSwap)",
        "numberOfBytes": "32",
        "value": "t_contract(IStableSwap)17818"
      },
      "t_mapping(t_bytes32,t_mapping(t_address,t_uint8))": {
        "encoding": "mapping",
        "key": "t_bytes32",
        "label": "mapping(bytes32 => mapping(address => uint8))",
        "numberOfBytes": "32",
        "value": "t_mapping(t_address,t_uint8)"
      },
      "t_mapping(t_bytes32,t_struct(Swap)20709_storage)": {
        "encoding": "mapping",
        "key": "t_bytes32",
        "label": "mapping(bytes32 => struct SwapUtils.Swap)",
        "numberOfBytes": "32",
        "value": "t_struct(Swap)20709_storage"
      },
      "t_mapping(t_bytes32,t_uint256)": {
        "encoding": "mapping",
        "key": "t_bytes32",
        "label": "mapping(bytes32 => uint256)",
        "numberOfBytes": "32",
        "value": "t_uint256"
      },
      "t_mapping(t_uint32,t_bytes32)": {
        "encoding": "mapping",
        "key": "t_uint32",
        "label": "mapping(uint32 => bytes32)",
        "numberOfBytes": "32",
        "value": "t_bytes32"
      },
      "t_struct(AppStorage)19374_storage": {
        "encoding": "inplace",
        "label": "struct AppStorage",
        "members": [
          {
            "astId": 19221,
            "contract": "contracts/core/connext/facets/BridgeFacet.sol:BridgeFacet",
            "label": "initialized",
            "offset": 0,
            "slot": "0",
            "type": "t_bool"
          },
          {
            "astId": 19223,
            "contract": "contracts/core/connext/facets/BridgeFacet.sol:BridgeFacet",
            "label": "LIQUIDITY_FEE_NUMERATOR",
            "offset": 0,
            "slot": "1",
            "type": "t_uint256"
          },
          {
            "astId": 19226,
            "contract": "contracts/core/connext/facets/BridgeFacet.sol:BridgeFacet",
            "label": "relayerFeeRouter",
            "offset": 0,
            "slot": "2",
            "type": "t_contract(RelayerFeeRouter)28897"
          },
          {
            "astId": 19229,
            "contract": "contracts/core/connext/facets/BridgeFacet.sol:BridgeFacet",
            "label": "promiseRouter",
            "offset": 0,
            "slot": "3",
            "type": "t_contract(PromiseRouter)28337"
          },
          {
            "astId": 19232,
            "contract": "contracts/core/connext/facets/BridgeFacet.sol:BridgeFacet",
            "label": "nonce",
            "offset": 0,
            "slot": "4",
            "type": "t_uint256"
          },
          {
            "astId": 19236,
            "contract": "contracts/core/connext/facets/BridgeFacet.sol:BridgeFacet",
            "label": "executor",
            "offset": 0,
            "slot": "5",
            "type": "t_contract(IExecutor)17434"
          },
          {
            "astId": 19239,
            "contract": "contracts/core/connext/facets/BridgeFacet.sol:BridgeFacet",
            "label": "domain",
            "offset": 20,
            "slot": "5",
            "type": "t_uint32"
          },
          {
            "astId": 19243,
            "contract": "contracts/core/connext/facets/BridgeFacet.sol:BridgeFacet",
            "label": "tokenRegistry",
            "offset": 0,
            "slot": "6",
            "type": "t_contract(ITokenRegistry)17907"
          },
          {
            "astId": 19249,
            "contract": "contracts/core/connext/facets/BridgeFacet.sol:BridgeFacet",
            "label": "adoptedToLocalPools",
            "offset": 0,
            "slot": "7",
            "type": "t_mapping(t_bytes32,t_contract(IStableSwap)17818)"
          },
          {
            "astId": 19254,
            "contract": "contracts/core/connext/facets/BridgeFacet.sol:BridgeFacet",
            "label": "approvedAssets",
            "offset": 0,
            "slot": "8",
            "type": "t_mapping(t_bytes32,t_bool)"
          },
          {
            "astId": 19260,
            "contract": "contracts/core/connext/facets/BridgeFacet.sol:BridgeFacet",
            "label": "adoptedToCanonical",
            "offset": 0,
            "slot": "9",
            "type": "t_mapping(t_address,t_struct(TokenId)19129_storage)"
          },
          {
            "astId": 19265,
            "contract": "contracts/core/connext/facets/BridgeFacet.sol:BridgeFacet",
            "label": "canonicalToAdopted",
            "offset": 0,
            "slot": "10",
            "type": "t_mapping(t_bytes32,t_address)"
          },
          {
            "astId": 19270,
            "contract": "contracts/core/connext/facets/BridgeFacet.sol:BridgeFacet",
            "label": "reconciledTransfers",
            "offset": 0,
            "slot": "11",
            "type": "t_mapping(t_bytes32,t_bool)"
          },
          {
            "astId": 19276,
            "contract": "contracts/core/connext/facets/BridgeFacet.sol:BridgeFacet",
            "label": "routedTransfers",
            "offset": 0,
            "slot": "12",
            "type": "t_mapping(t_bytes32,t_array(t_address)dyn_storage)"
          },
          {
            "astId": 19283,
            "contract": "contracts/core/connext/facets/BridgeFacet.sol:BridgeFacet",
            "label": "routerBalances",
            "offset": 0,
            "slot": "13",
            "type": "t_mapping(t_address,t_mapping(t_address,t_uint256))"
          },
          {
            "astId": 19288,
            "contract": "contracts/core/connext/facets/BridgeFacet.sol:BridgeFacet",
            "label": "approvedRelayers",
            "offset": 0,
            "slot": "14",
            "type": "t_mapping(t_address,t_bool)"
          },
          {
            "astId": 19293,
            "contract": "contracts/core/connext/facets/BridgeFacet.sol:BridgeFacet",
            "label": "relayerFees",
            "offset": 0,
            "slot": "15",
            "type": "t_mapping(t_bytes32,t_uint256)"
          },
          {
            "astId": 19298,
            "contract": "contracts/core/connext/facets/BridgeFacet.sol:BridgeFacet",
            "label": "transferRelayer",
            "offset": 0,
            "slot": "16",
            "type": "t_mapping(t_bytes32,t_address)"
          },
          {
            "astId": 19301,
            "contract": "contracts/core/connext/facets/BridgeFacet.sol:BridgeFacet",
            "label": "maxRoutersPerTransfer",
            "offset": 0,
            "slot": "17",
            "type": "t_uint256"
          },
          {
            "astId": 19305,
            "contract": "contracts/core/connext/facets/BridgeFacet.sol:BridgeFacet",
            "label": "sponsorVault",
            "offset": 0,
            "slot": "18",
            "type": "t_contract(ISponsorVault)17504"
          },
          {
            "astId": 19309,
            "contract": "contracts/core/connext/facets/BridgeFacet.sol:BridgeFacet",
            "label": "bridgeRouter",
            "offset": 0,
            "slot": "19",
            "type": "t_contract(IBridgeRouter)16267"
          },
          {
            "astId": 19314,
            "contract": "contracts/core/connext/facets/BridgeFacet.sol:BridgeFacet",
            "label": "receiveLocalOverrides",
            "offset": 0,
            "slot": "20",
            "type": "t_mapping(t_bytes32,t_bool)"
          },
          {
            "astId": 19319,
            "contract": "contracts/core/connext/facets/BridgeFacet.sol:BridgeFacet",
            "label": "connextions",
            "offset": 0,
            "slot": "21",
            "type": "t_mapping(t_uint32,t_bytes32)"
          },
          {
            "astId": 19321,
            "contract": "contracts/core/connext/facets/BridgeFacet.sol:BridgeFacet",
            "label": "_proposed",
            "offset": 0,
            "slot": "22",
            "type": "t_address"
          },
          {
            "astId": 19323,
            "contract": "contracts/core/connext/facets/BridgeFacet.sol:BridgeFacet",
            "label": "_proposedOwnershipTimestamp",
            "offset": 0,
            "slot": "23",
            "type": "t_uint256"
          },
          {
            "astId": 19325,
            "contract": "contracts/core/connext/facets/BridgeFacet.sol:BridgeFacet",
            "label": "_routerWhitelistRemoved",
            "offset": 0,
            "slot": "24",
            "type": "t_bool"
          },
          {
            "astId": 19327,
            "contract": "contracts/core/connext/facets/BridgeFacet.sol:BridgeFacet",
            "label": "_routerWhitelistTimestamp",
            "offset": 0,
            "slot": "25",
            "type": "t_uint256"
          },
          {
            "astId": 19329,
            "contract": "contracts/core/connext/facets/BridgeFacet.sol:BridgeFacet",
            "label": "_assetWhitelistRemoved",
            "offset": 0,
            "slot": "26",
            "type": "t_bool"
          },
          {
            "astId": 19331,
            "contract": "contracts/core/connext/facets/BridgeFacet.sol:BridgeFacet",
            "label": "_assetWhitelistTimestamp",
            "offset": 0,
            "slot": "27",
            "type": "t_uint256"
          },
          {
            "astId": 19334,
            "contract": "contracts/core/connext/facets/BridgeFacet.sol:BridgeFacet",
            "label": "routerPermissionInfo",
            "offset": 0,
            "slot": "28",
            "type": "t_struct(RouterPermissionsManagerInfo)19219_storage"
          },
          {
            "astId": 19336,
            "contract": "contracts/core/connext/facets/BridgeFacet.sol:BridgeFacet",
            "label": "_status",
            "offset": 0,
            "slot": "34",
            "type": "t_uint256"
          },
          {
            "astId": 19342,
            "contract": "contracts/core/connext/facets/BridgeFacet.sol:BridgeFacet",
            "label": "swapStorages",
            "offset": 0,
            "slot": "35",
            "type": "t_mapping(t_bytes32,t_struct(Swap)20709_storage)"
          },
          {
            "astId": 19349,
            "contract": "contracts/core/connext/facets/BridgeFacet.sol:BridgeFacet",
            "label": "tokenIndexes",
            "offset": 0,
            "slot": "36",
            "type": "t_mapping(t_bytes32,t_mapping(t_address,t_uint8))"
          },
          {
            "astId": 19352,
            "contract": "contracts/core/connext/facets/BridgeFacet.sol:BridgeFacet",
            "label": "_paused",
            "offset": 0,
            "slot": "37",
            "type": "t_bool"
          },
          {
            "astId": 19355,
            "contract": "contracts/core/connext/facets/BridgeFacet.sol:BridgeFacet",
            "label": "aavePool",
            "offset": 1,
            "slot": "37",
            "type": "t_address"
          },
          {
            "astId": 19358,
            "contract": "contracts/core/connext/facets/BridgeFacet.sol:BridgeFacet",
            "label": "aavePortalFeeNumerator",
            "offset": 0,
            "slot": "38",
            "type": "t_uint256"
          },
          {
            "astId": 19363,
            "contract": "contracts/core/connext/facets/BridgeFacet.sol:BridgeFacet",
            "label": "portalDebt",
            "offset": 0,
            "slot": "39",
            "type": "t_mapping(t_bytes32,t_uint256)"
          },
          {
            "astId": 19368,
            "contract": "contracts/core/connext/facets/BridgeFacet.sol:BridgeFacet",
            "label": "portalFeeDebt",
            "offset": 0,
            "slot": "40",
            "type": "t_mapping(t_bytes32,t_uint256)"
          },
          {
            "astId": 19373,
            "contract": "contracts/core/connext/facets/BridgeFacet.sol:BridgeFacet",
            "label": "approvedSequencers",
            "offset": 0,
            "slot": "41",
            "type": "t_mapping(t_address,t_bool)"
          }
        ],
        "numberOfBytes": "1344"
      },
      "t_struct(RouterPermissionsManagerInfo)19219_storage": {
        "encoding": "inplace",
        "label": "struct RouterPermissionsManagerInfo",
        "members": [
          {
            "astId": 19198,
            "contract": "contracts/core/connext/facets/BridgeFacet.sol:BridgeFacet",
            "label": "approvedRouters",
            "offset": 0,
            "slot": "0",
            "type": "t_mapping(t_address,t_bool)"
          },
          {
            "astId": 19202,
            "contract": "contracts/core/connext/facets/BridgeFacet.sol:BridgeFacet",
            "label": "approvedForPortalRouters",
            "offset": 0,
            "slot": "1",
            "type": "t_mapping(t_address,t_bool)"
          },
          {
            "astId": 19206,
            "contract": "contracts/core/connext/facets/BridgeFacet.sol:BridgeFacet",
            "label": "routerRecipients",
            "offset": 0,
            "slot": "2",
            "type": "t_mapping(t_address,t_address)"
          },
          {
            "astId": 19210,
            "contract": "contracts/core/connext/facets/BridgeFacet.sol:BridgeFacet",
            "label": "routerOwners",
            "offset": 0,
            "slot": "3",
            "type": "t_mapping(t_address,t_address)"
          },
          {
            "astId": 19214,
            "contract": "contracts/core/connext/facets/BridgeFacet.sol:BridgeFacet",
            "label": "proposedRouterOwners",
            "offset": 0,
            "slot": "4",
            "type": "t_mapping(t_address,t_address)"
          },
          {
            "astId": 19218,
            "contract": "contracts/core/connext/facets/BridgeFacet.sol:BridgeFacet",
            "label": "proposedRouterTimestamp",
            "offset": 0,
            "slot": "5",
            "type": "t_mapping(t_address,t_uint256)"
          }
        ],
        "numberOfBytes": "192"
      },
      "t_struct(Swap)20709_storage": {
        "encoding": "inplace",
        "label": "struct SwapUtils.Swap",
        "members": [
          {
            "astId": 20680,
            "contract": "contracts/core/connext/facets/BridgeFacet.sol:BridgeFacet",
            "label": "key",
            "offset": 0,
            "slot": "0",
            "type": "t_bytes32"
          },
          {
            "astId": 20682,
            "contract": "contracts/core/connext/facets/BridgeFacet.sol:BridgeFacet",
            "label": "initialA",
            "offset": 0,
            "slot": "1",
            "type": "t_uint256"
          },
          {
            "astId": 20684,
            "contract": "contracts/core/connext/facets/BridgeFacet.sol:BridgeFacet",
            "label": "futureA",
            "offset": 0,
            "slot": "2",
            "type": "t_uint256"
          },
          {
            "astId": 20686,
            "contract": "contracts/core/connext/facets/BridgeFacet.sol:BridgeFacet",
            "label": "initialATime",
            "offset": 0,
            "slot": "3",
            "type": "t_uint256"
          },
          {
            "astId": 20688,
            "contract": "contracts/core/connext/facets/BridgeFacet.sol:BridgeFacet",
            "label": "futureATime",
            "offset": 0,
            "slot": "4",
            "type": "t_uint256"
          },
          {
            "astId": 20690,
            "contract": "contracts/core/connext/facets/BridgeFacet.sol:BridgeFacet",
            "label": "swapFee",
            "offset": 0,
            "slot": "5",
            "type": "t_uint256"
          },
          {
            "astId": 20692,
            "contract": "contracts/core/connext/facets/BridgeFacet.sol:BridgeFacet",
            "label": "adminFee",
            "offset": 0,
            "slot": "6",
            "type": "t_uint256"
          },
          {
            "astId": 20695,
            "contract": "contracts/core/connext/facets/BridgeFacet.sol:BridgeFacet",
            "label": "lpToken",
            "offset": 0,
            "slot": "7",
            "type": "t_contract(LPToken)14145"
          },
          {
            "astId": 20699,
            "contract": "contracts/core/connext/facets/BridgeFacet.sol:BridgeFacet",
            "label": "pooledTokens",
            "offset": 0,
            "slot": "8",
            "type": "t_array(t_contract(IERC20)3580)dyn_storage"
          },
          {
            "astId": 20702,
            "contract": "contracts/core/connext/facets/BridgeFacet.sol:BridgeFacet",
            "label": "tokenPrecisionMultipliers",
            "offset": 0,
            "slot": "9",
            "type": "t_array(t_uint256)dyn_storage"
          },
          {
            "astId": 20705,
            "contract": "contracts/core/connext/facets/BridgeFacet.sol:BridgeFacet",
            "label": "balances",
            "offset": 0,
            "slot": "10",
            "type": "t_array(t_uint256)dyn_storage"
          },
          {
            "astId": 20708,
            "contract": "contracts/core/connext/facets/BridgeFacet.sol:BridgeFacet",
            "label": "adminFees",
            "offset": 0,
            "slot": "11",
            "type": "t_array(t_uint256)dyn_storage"
          }
        ],
        "numberOfBytes": "384"
      },
      "t_struct(TokenId)19129_storage": {
        "encoding": "inplace",
        "label": "struct TokenId",
        "members": [
          {
            "astId": 19126,
            "contract": "contracts/core/connext/facets/BridgeFacet.sol:BridgeFacet",
            "label": "domain",
            "offset": 0,
            "slot": "0",
            "type": "t_uint32"
          },
          {
            "astId": 19128,
            "contract": "contracts/core/connext/facets/BridgeFacet.sol:BridgeFacet",
            "label": "id",
            "offset": 0,
            "slot": "1",
            "type": "t_bytes32"
          }
        ],
        "numberOfBytes": "64"
      },
      "t_uint256": {
        "encoding": "inplace",
        "label": "uint256",
        "numberOfBytes": "32"
      },
      "t_uint32": {
        "encoding": "inplace",
        "label": "uint32",
        "numberOfBytes": "4"
      },
      "t_uint8": {
        "encoding": "inplace",
        "label": "uint8",
        "numberOfBytes": "1"
      }
    }
  }
}