{
  "address": "0xbB4783DBF732D6b2a9799C4e5c486eb8aE51F4fd",
  "abi": [
    {
      "inputs": [],
      "name": "MerkleLib__insert_treeIsFull",
      "type": "error"
    },
    {
      "inputs": [],
      "name": "MerkleTreeManager__setArborist_alreadyArborist",
      "type": "error"
    },
    {
      "inputs": [],
      "name": "MerkleTreeManager__setArborist_zeroAddress",
      "type": "error"
    },
    {
      "inputs": [],
      "name": "ProposedOwnable__onlyOwner_notOwner",
      "type": "error"
    },
    {
      "inputs": [],
      "name": "ProposedOwnable__onlyProposed_notProposedOwner",
      "type": "error"
    },
    {
      "inputs": [],
      "name": "ProposedOwnable__ownershipDelayElapsed_delayNotElapsed",
      "type": "error"
    },
    {
      "inputs": [],
      "name": "ProposedOwnable__proposeNewOwner_invalidProposal",
      "type": "error"
    },
    {
      "inputs": [],
      "name": "ProposedOwnable__proposeNewOwner_noOwnershipChange",
      "type": "error"
    },
    {
      "inputs": [],
      "name": "ProposedOwnable__renounceOwnership_invalidProposal",
      "type": "error"
    },
    {
      "inputs": [],
      "name": "ProposedOwnable__renounceOwnership_noProposal",
      "type": "error"
    },
    {
      "anonymous": false,
      "inputs": [
        {
          "indexed": false,
          "internalType": "address",
          "name": "previous",
          "type": "address"
        },
        {
          "indexed": false,
          "internalType": "address",
          "name": "updated",
          "type": "address"
        }
      ],
      "name": "ArboristUpdated",
      "type": "event"
    },
    {
      "anonymous": false,
      "inputs": [
        {
          "indexed": false,
          "internalType": "uint8",
          "name": "version",
          "type": "uint8"
        }
      ],
      "name": "Initialized",
      "type": "event"
    },
    {
      "anonymous": false,
      "inputs": [
        {
          "indexed": false,
          "internalType": "bytes32",
          "name": "root",
          "type": "bytes32"
        },
        {
          "indexed": false,
          "internalType": "uint256",
          "name": "count",
          "type": "uint256"
        },
        {
          "indexed": false,
          "internalType": "bytes32",
          "name": "leaf",
          "type": "bytes32"
        }
      ],
      "name": "LeafInserted",
      "type": "event"
    },
    {
      "anonymous": false,
      "inputs": [
        {
          "indexed": true,
          "internalType": "address",
          "name": "proposedOwner",
          "type": "address"
        }
      ],
      "name": "OwnershipProposed",
      "type": "event"
    },
    {
      "anonymous": false,
      "inputs": [
        {
          "indexed": true,
          "internalType": "address",
          "name": "previousOwner",
          "type": "address"
        },
        {
          "indexed": true,
          "internalType": "address",
          "name": "newOwner",
          "type": "address"
        }
      ],
      "name": "OwnershipTransferred",
      "type": "event"
    },
    {
      "inputs": [],
      "name": "acceptProposedOwner",
      "outputs": [],
      "stateMutability": "nonpayable",
      "type": "function"
    },
    {
      "inputs": [],
      "name": "arborist",
      "outputs": [
        {
          "internalType": "address",
          "name": "",
          "type": "address"
        }
      ],
      "stateMutability": "view",
      "type": "function"
    },
    {
      "inputs": [],
      "name": "branch",
      "outputs": [
        {
          "internalType": "bytes32[32]",
          "name": "",
          "type": "bytes32[32]"
        }
      ],
      "stateMutability": "view",
      "type": "function"
    },
    {
      "inputs": [],
      "name": "count",
      "outputs": [
        {
          "internalType": "uint256",
          "name": "",
          "type": "uint256"
        }
      ],
      "stateMutability": "view",
      "type": "function"
    },
    {
      "inputs": [],
      "name": "delay",
      "outputs": [
        {
          "internalType": "uint256",
          "name": "",
          "type": "uint256"
        }
      ],
      "stateMutability": "view",
      "type": "function"
    },
    {
      "inputs": [
        {
          "internalType": "address",
          "name": "_arborist",
          "type": "address"
        }
      ],
      "name": "initialize",
      "outputs": [],
      "stateMutability": "nonpayable",
      "type": "function"
    },
    {
      "inputs": [
        {
          "internalType": "bytes32",
          "name": "leaf",
          "type": "bytes32"
        }
      ],
      "name": "insert",
      "outputs": [
        {
          "internalType": "bytes32",
          "name": "_root",
          "type": "bytes32"
        },
        {
          "internalType": "uint256",
          "name": "_count",
          "type": "uint256"
        }
      ],
      "stateMutability": "nonpayable",
      "type": "function"
    },
    {
      "inputs": [
        {
          "internalType": "bytes32[]",
          "name": "leaves",
          "type": "bytes32[]"
        }
      ],
      "name": "insert",
      "outputs": [
        {
          "internalType": "bytes32",
          "name": "_root",
          "type": "bytes32"
        },
        {
          "internalType": "uint256",
          "name": "_count",
          "type": "uint256"
        }
      ],
      "stateMutability": "nonpayable",
      "type": "function"
    },
    {
      "inputs": [],
      "name": "owner",
      "outputs": [
        {
          "internalType": "address",
          "name": "",
          "type": "address"
        }
      ],
      "stateMutability": "view",
      "type": "function"
    },
    {
      "inputs": [
        {
          "internalType": "address",
          "name": "newlyProposed",
          "type": "address"
        }
      ],
      "name": "proposeNewOwner",
      "outputs": [],
      "stateMutability": "nonpayable",
      "type": "function"
    },
    {
      "inputs": [],
      "name": "proposed",
      "outputs": [
        {
          "internalType": "address",
          "name": "",
          "type": "address"
        }
      ],
      "stateMutability": "view",
      "type": "function"
    },
    {
      "inputs": [],
      "name": "proposedTimestamp",
      "outputs": [
        {
          "internalType": "uint256",
          "name": "",
          "type": "uint256"
        }
      ],
      "stateMutability": "view",
      "type": "function"
    },
    {
      "inputs": [],
      "name": "renounceOwnership",
      "outputs": [],
      "stateMutability": "nonpayable",
      "type": "function"
    },
    {
      "inputs": [],
      "name": "renounced",
      "outputs": [
        {
          "internalType": "bool",
          "name": "",
          "type": "bool"
        }
      ],
      "stateMutability": "view",
      "type": "function"
    },
    {
      "inputs": [],
      "name": "root",
      "outputs": [
        {
          "internalType": "bytes32",
          "name": "",
          "type": "bytes32"
        }
      ],
      "stateMutability": "view",
      "type": "function"
    },
    {
      "inputs": [],
      "name": "rootAndCount",
      "outputs": [
        {
          "internalType": "bytes32",
          "name": "",
          "type": "bytes32"
        },
        {
          "internalType": "uint256",
          "name": "",
          "type": "uint256"
        }
      ],
      "stateMutability": "view",
      "type": "function"
    },
    {
      "inputs": [
        {
          "internalType": "address",
          "name": "newArborist",
          "type": "address"
        }
      ],
      "name": "setArborist",
      "outputs": [],
      "stateMutability": "nonpayable",
      "type": "function"
    },
    {
      "inputs": [],
      "name": "tree",
      "outputs": [
        {
          "internalType": "uint256",
          "name": "count",
          "type": "uint256"
        }
      ],
      "stateMutability": "view",
      "type": "function"
    }
  ],
  "transactionHash": "0x8ba6684a4d15645ed61bb8101903b39c84a266001a524fd83b8a48124a73c329",
  "args": [],
  "numDeployments": 1,
  "solcInputHash": "a8e118e34521653f31bab98cccdb5967",
  "bytecode": "0x608060405234801561001057600080fd5b50612262806100206000396000f3fe608060405234801561001057600080fd5b50600436106101165760003560e01c80638da5cb5b116100a2578063c9b0a6de11610071578063c9b0a6de14610220578063d1851c9214610228578063d232c22014610239578063ebf0c71714610262578063fd54b2281461026a57600080fd5b80638da5cb5b146101db578063b1f8100d146101f2578063c4d66de814610205578063c5b350df1461021857600080fd5b806334a55ee6116100e957806334a55ee61461019a5780633cf52ffb146101ad5780634b72d0d4146101b55780636a42b8f8146101ca578063715018a6146101d357600080fd5b806306661abd1461011b5780631b373a98146101325780632d287e431461014757806331d0913c1461016f575b600080fd5b6052545b6040519081526020015b60405180910390f35b610145610140366004611f46565b610274565b005b61015a610155366004611f76565b610362565b60408051928352602083019190915201610129565b605354610182906001600160a01b031681565b6040516001600160a01b039091168152602001610129565b61015a6101a8366004611fa5565b610473565b60025461011f565b6101bd61057f565b6040516101299190612063565b62093a8061011f565b6101456105bb565b6000546201000090046001600160a01b0316610182565b610145610200366004611f46565b6105ee565b610145610213366004611f46565b61069b565b6101456107b6565b61015a610826565b6001546001600160a01b0316610182565b6102526000546201000090046001600160a01b03161590565b6040519015158152602001610129565b61011f61083f565b60525461011f9081565b6000546201000090046001600160a01b031633146102a5576040516311a8a1bb60e31b815260040160405180910390fd5b6001600160a01b0381166102cc57604051630c11a52d60e11b815260040160405180910390fd5b6053546001600160a01b0390811690821681036102fc5760405163606e957b60e11b815260040160405180910390fd5b604080516001600160a01b038084168252841660208201527ff2fa31e21376edb31995720340ba00a41a12a7c8744a9bde552660121f4b7771910160405180910390a150605380546001600160a01b0319166001600160a01b0392909216919091179055565b60535460009081906001600160a01b031633146103b25760405162461bcd60e51b815260206004820152600960248201526808585c989bdc9a5cdd60ba1b60448201526064015b60405180910390fd5b60408051610440810180835261040092869291603291839190820190839060209082845b8154815260200190600101908083116103d657505050918352505060209182015491015290610850565b80516032906104129082906020611eb4565b506020918201519101555060525461042a603261095c565b60408051828152602081018490529081018590529092507fd50e83984b64a106ac2ee6314d689ec4d2a656d5ece6d94c585796944b52240c9060600160405180910390a1915091565b60535460009081906001600160a01b031633146104be5760405162461bcd60e51b815260206004820152600960248201526808585c989bdc9a5cdd60ba1b60448201526064016103a9565b6040805161044081018083526000926032918391820190839060209082845b8154815260200190600101908083116104dd575050509183525050602091820154910152845190915060005b818110156105475761053d86828151811061052657610526612099565b60200260200101518461085090919063ffffffff16565b9250600101610509565b508151829060329061055c9082906020611eb4565b50602091820151908201558201519250610576603261095c565b93505050915091565b610587611ef2565b604080516104008101918290529060329060209082845b81548152602001906001019080831161059e575050505050905090565b6000546201000090046001600160a01b031633146105ec576040516311a8a1bb60e31b815260040160405180910390fd5b565b6000546201000090046001600160a01b0316331461061f576040516311a8a1bb60e31b815260040160405180910390fd5b6001546001600160a01b03828116911614801561063d575060025415155b1561065b576040516311bc066560e11b815260040160405180910390fd5b6000546001600160a01b0380831662010000909204160361068f57604051634a2fb73f60e11b815260040160405180910390fd5b61069881611d12565b50565b600054610100900460ff16158080156106bb5750600054600160ff909116105b806106d55750303b1580156106d5575060005460ff166001145b6107385760405162461bcd60e51b815260206004820152602e60248201527f496e697469616c697a61626c653a20636f6e747261637420697320616c72656160448201526d191e481a5b9a5d1a585b1a5e995960921b60648201526084016103a9565b6000805460ff19166001179055801561075b576000805461ff0019166101001790555b61076482611d60565b61076c611d90565b80156107b2576000805461ff0019169055604051600181527f7f26b83ff96e1f2b6a682f133852f6798a09c465da95921460cefb38474024989060200160405180910390a15b5050565b6001546001600160a01b031633146107e1576040516311a7f27160e11b815260040160405180910390fd5b62093a80600254426107f391906120c5565b11610811576040516324e0285f60e21b815260040160405180910390fd5b6001546105ec906001600160a01b0316611dbf565b600080610833603261095c565b60525490939092509050565b600061084b603261095c565b905090565b610858611f11565b6000836020018051610869906120d8565b908190529050600161087d602060026121d5565b61088791906120c5565b8111156108a757604051638eab04bb60e01b815260040160405180910390fd5b60005b602081101561093c57816001166001036108e3578451849082602081106108d3576108d3612099565b6020020152508391506109569050565b845181602081106108f6576108f6612099565b602002015184604051602001610916929190918252602082015260400190565b60408051601f1981840301815291905280516020909101209350600191821c91016108aa565b50604051638eab04bb60e01b815260040160405180910390fd5b92915050565b602081015460009080820361099357507f27ae5ba08d7291c96c8cbddcc148bf48a6d68c7974b94356f53754ef6171d75792915050565b60008360018316156109b5578054600052600060205260406000209350611268565b60028316156109fa5760018101546000527fad3228b676f7d3cd4284a5443f17f1962b36e491b30a40b2405849e597ba5fb56020526040600020935060019150611268565b6004831615610a3f5760028101546000527fb4c11951957c6f8f642c4af61cd6b24640fec6dc7fc607ee8206a99e92410d306020526040600020935060029150611268565b6008831615610a845760038101546000527f21ddb9a356815c3fac1026b6dec5df3124afbadb485c9ba5a3e3398a04b7ba856020526040600020935060039150611268565b6010831615610ac95760048101546000527fe58769b32a1beaf1ea27375a44095a0d1fb664ce2dd358e7fcbfb78c26a193446020526040600020935060049150611268565b6020831615610b0e5760058101546000527f0eb01ebfc9ed27500cd4dfc979272d1f0913cc9f66540d7e8005811109e1cf2d6020526040600020935060059150611268565b6040831615610b535760068101546000527f887c22bd8750d34016ac3c66b5ff102dacdd73f6b014e710b51e8022af9a19686020526040600020935060069150611268565b6080831615610b985760078101546000527fffd70157e48063fc33c97a050f7f640233bf646cc98d9524c6b92bcf3ab56f836020526040600020935060079150611268565b610100831615610bde5760088101546000527f9867cc5f7f196b93bae1e27e6320742445d290f2263827498b54fec539f756af6020526040600020935060089150611268565b610200831615610c245760098101546000527fcefad4e508c098b9a7e1d8feb19955fb02ba9675585078710969d3440f5054e06020526040600020935060099150611268565b610400831615610c6a57600a8101546000527ff9dc3e7fe016e050eff260334f18a5d4fe391d82092319f5964f2e2eb7c1c3a560205260406000209350600a9150611268565b610800831615610cb057600b8101546000527ff8b13a49e282f609c317a833fb8d976d11517c571d1221a265d25af778ecf89260205260406000209350600b9150611268565b611000831615610cf657600c8101546000527f3490c6ceeb450aecdc82e28293031d10c7d73bf85e57bf041a97360aa2c5d99c60205260406000209350600c9150611268565b612000831615610d3c57600d8101546000527fc1df82d9c4b87413eae2ef048f94b4d3554cea73d92b0f7af96e0271c691e2bb60205260406000209350600d9150611268565b614000831615610d8257600e8101546000527f5c67add7c6caf302256adedf7ab114da0acfe870d449a3a489f781d659e8becc60205260406000209350600e9150611268565b618000831615610dc857600f8101546000527fda7bce9f4e8618b6bd2f4132ce798cdc7a60e7e1460a7299e3c6342a579626d260205260406000209350600f9150611268565b62010000831615610e0f5760108101546000527f2733e50f526ec2fa19a22b31e8ed50f23cd1fdf94c9154ed3a7609a2f1ff981f6020526040600020935060109150611268565b62020000831615610e565760118101546000527fe1d3b5c807b281e4683cc6d6315cf95b9ade8641defcb32372f1c126e398ef7a6020526040600020935060119150611268565b62040000831615610e9d5760128101546000527f5a2dce0a8a7f68bb74560f8f71837c2c2ebbcbf7fffb42ae1896f13f7c7479a06020526040600020935060129150611268565b62080000831615610ee45760138101546000527fb46a28b6f55540f89444f63de0378e3d121be09e06cc9ded1c20e65876d36aa06020526040600020935060139150611268565b62100000831615610f2b5760148101546000527fc65e9645644786b620e2dd2ad648ddfcbf4a7e5b1a3a4ecfe7f64667a3f0b7e26020526040600020935060149150611268565b62200000831615610f725760158101546000527ff4418588ed35a2458cffeb39b93d26f18d2ab13bdce6aee58e7b99359ec2dfd96020526040600020935060159150611268565b62400000831615610fb95760168101546000527f5a9c16dc00d6ef18b7933a6f8dc65ccb55667138776f7dea101070dc8796e3776020526040600020935060169150611268565b628000008316156110005760178101546000527f4df84f40ae0c8229d0d6069e5c8f39a7c299677a09d367fc7b05e3bc380ee6526020526040600020935060179150611268565b63010000008316156110485760188101546000527fcdc72595f74c7b1043d0e1ffbab734648c838dfb0527d971b602bc216c9619ef6020526040600020935060189150611268565b63020000008316156110905760198101546000527f0abf5ac974a1ed57f4050aa510dd9c74f508277b39d7973bb2dfccc5eeb0618d6020526040600020935060199150611268565b63040000008316156110d857601a8101546000527fb8cd74046ff337f0a7bf2c8e03e10f642c1886798d71806ab1e888d9e5ee87d060205260406000209350601a9150611268565b630800000083161561112057601b8101546000527f838c5655cb21c6cb83313b5a631175dff4963772cce9108188b34ac87c81c41e60205260406000209350601b9150611268565b631000000083161561116857601c8101546000527f662ee4dd2dd7b2bc707961b1e646c4047669dcb6584f0d8d770daf5d7e7deb2e60205260406000209350601c9150611268565b63200000008316156111b057601d8101546000527f388ab20e2573d171a88108e79d820e98f26c0b84aa8b2f4aa4968dbb818ea32260205260406000209350601d9150611268565b63400000008316156111f857601e8101546000527f93237c50ba75ee485f4c22adf2f741400bdf8d6a9cc7df7ecae576221665d73560205260406000209350601e9150611268565b638000000083161561124057601f8101546000527f8448818bb4ae4562849e949e17ac16e0be16688e156b5cf15e098c627c0056a960205260406000209350601f9150611268565b7f27ae5ba08d7291c96c8cbddcc148bf48a6d68c7974b94356f53754ef6171d7579350602091505b601e8211611d0a5760018210156112c657600283168015611294576001820154600052846020526112bd565b846000527fad3228b676f7d3cd4284a5443f17f1962b36e491b30a40b2405849e597ba5fb56020525b50604060002093505b600282101561131c576004831680156112ea57600282015460005284602052611313565b846000527fb4c11951957c6f8f642c4af61cd6b24640fec6dc7fc607ee8206a99e92410d306020525b50604060002093505b60038210156113725760088316801561134057600382015460005284602052611369565b846000527f21ddb9a356815c3fac1026b6dec5df3124afbadb485c9ba5a3e3398a04b7ba856020525b50604060002093505b60048210156113c857601083168015611396576004820154600052846020526113bf565b846000527fe58769b32a1beaf1ea27375a44095a0d1fb664ce2dd358e7fcbfb78c26a193446020525b50604060002093505b600582101561141e576020831680156113ec57600582015460005284602052611415565b846000527f0eb01ebfc9ed27500cd4dfc979272d1f0913cc9f66540d7e8005811109e1cf2d6020525b50604060002093505b6006821015611474576040831680156114425760068201546000528460205261146b565b846000527f887c22bd8750d34016ac3c66b5ff102dacdd73f6b014e710b51e8022af9a19686020525b50604060002093505b60078210156114ca57608083168015611498576007820154600052846020526114c1565b846000527fffd70157e48063fc33c97a050f7f640233bf646cc98d9524c6b92bcf3ab56f836020525b50604060002093505b600882101561152157610100831680156114ef57600882015460005284602052611518565b846000527f9867cc5f7f196b93bae1e27e6320742445d290f2263827498b54fec539f756af6020525b50604060002093505b600982101561157857610200831680156115465760098201546000528460205261156f565b846000527fcefad4e508c098b9a7e1d8feb19955fb02ba9675585078710969d3440f5054e06020525b50604060002093505b600a8210156115cf576104008316801561159d57600a820154600052846020526115c6565b846000527ff9dc3e7fe016e050eff260334f18a5d4fe391d82092319f5964f2e2eb7c1c3a56020525b50604060002093505b600b82101561162657610800831680156115f457600b8201546000528460205261161d565b846000527ff8b13a49e282f609c317a833fb8d976d11517c571d1221a265d25af778ecf8926020525b50604060002093505b600c82101561167d576110008316801561164b57600c82015460005284602052611674565b846000527f3490c6ceeb450aecdc82e28293031d10c7d73bf85e57bf041a97360aa2c5d99c6020525b50604060002093505b600d8210156116d457612000831680156116a257600d820154600052846020526116cb565b846000527fc1df82d9c4b87413eae2ef048f94b4d3554cea73d92b0f7af96e0271c691e2bb6020525b50604060002093505b600e82101561172b57614000831680156116f957600e82015460005284602052611722565b846000527f5c67add7c6caf302256adedf7ab114da0acfe870d449a3a489f781d659e8becc6020525b50604060002093505b600f821015611782576180008316801561175057600f82015460005284602052611779565b846000527fda7bce9f4e8618b6bd2f4132ce798cdc7a60e7e1460a7299e3c6342a579626d26020525b50604060002093505b60108210156117da5762010000831680156117a8576010820154600052846020526117d1565b846000527f2733e50f526ec2fa19a22b31e8ed50f23cd1fdf94c9154ed3a7609a2f1ff981f6020525b50604060002093505b601182101561183257620200008316801561180057601182015460005284602052611829565b846000527fe1d3b5c807b281e4683cc6d6315cf95b9ade8641defcb32372f1c126e398ef7a6020525b50604060002093505b601282101561188a57620400008316801561185857601282015460005284602052611881565b846000527f5a2dce0a8a7f68bb74560f8f71837c2c2ebbcbf7fffb42ae1896f13f7c7479a06020525b50604060002093505b60138210156118e25762080000831680156118b0576013820154600052846020526118d9565b846000527fb46a28b6f55540f89444f63de0378e3d121be09e06cc9ded1c20e65876d36aa06020525b50604060002093505b601482101561193a57621000008316801561190857601482015460005284602052611931565b846000527fc65e9645644786b620e2dd2ad648ddfcbf4a7e5b1a3a4ecfe7f64667a3f0b7e26020525b50604060002093505b601582101561199257622000008316801561196057601582015460005284602052611989565b846000527ff4418588ed35a2458cffeb39b93d26f18d2ab13bdce6aee58e7b99359ec2dfd96020525b50604060002093505b60168210156119ea5762400000831680156119b8576016820154600052846020526119e1565b846000527f5a9c16dc00d6ef18b7933a6f8dc65ccb55667138776f7dea101070dc8796e3776020525b50604060002093505b6017821015611a42576280000083168015611a1057601782015460005284602052611a39565b846000527f4df84f40ae0c8229d0d6069e5c8f39a7c299677a09d367fc7b05e3bc380ee6526020525b50604060002093505b6018821015611a9b57630100000083168015611a6957601882015460005284602052611a92565b846000527fcdc72595f74c7b1043d0e1ffbab734648c838dfb0527d971b602bc216c9619ef6020525b50604060002093505b6019821015611af457630200000083168015611ac257601982015460005284602052611aeb565b846000527f0abf5ac974a1ed57f4050aa510dd9c74f508277b39d7973bb2dfccc5eeb0618d6020525b50604060002093505b601a821015611b4d57630400000083168015611b1b57601a82015460005284602052611b44565b846000527fb8cd74046ff337f0a7bf2c8e03e10f642c1886798d71806ab1e888d9e5ee87d06020525b50604060002093505b601b821015611ba657630800000083168015611b7457601b82015460005284602052611b9d565b846000527f838c5655cb21c6cb83313b5a631175dff4963772cce9108188b34ac87c81c41e6020525b50604060002093505b601c821015611bff57631000000083168015611bcd57601c82015460005284602052611bf6565b846000527f662ee4dd2dd7b2bc707961b1e646c4047669dcb6584f0d8d770daf5d7e7deb2e6020525b50604060002093505b601d821015611c5857632000000083168015611c2657601d82015460005284602052611c4f565b846000527f388ab20e2573d171a88108e79d820e98f26c0b84aa8b2f4aa4968dbb818ea3226020525b50604060002093505b601e821015611cb157634000000083168015611c7f57601e82015460005284602052611ca8565b846000527f93237c50ba75ee485f4c22adf2f741400bdf8d6a9cc7df7ecae576221665d7356020525b50604060002093505b601f821015611d0a57638000000083168015611cd857601f82015460005284602052611d01565b846000527f8448818bb4ae4562849e949e17ac16e0be16688e156b5cf15e098c627c0056a96020525b50604060002093505b505050919050565b42600255600180546001600160a01b0319166001600160a01b0383169081179091556040517f6ab4d119f23076e8ad491bc65ce85f017fb0591dce08755ba8591059cc51737a90600090a250565b600054610100900460ff16611d875760405162461bcd60e51b81526004016103a9906121e1565b61069881611e3b565b600054610100900460ff16611db75760405162461bcd60e51b81526004016103a9906121e1565b6105ec611e84565b600080546040516001600160a01b03808516936201000090930416917f8be0079c531659141344cd1fd0a4f28419497f9722a3daafe3b4186f6b6457e091a3600080546001600160a01b03909216620100000262010000600160b01b0319909216919091178155600255600180546001600160a01b0319169055565b600054610100900460ff16611e625760405162461bcd60e51b81526004016103a9906121e1565b605380546001600160a01b0319166001600160a01b0392909216919091179055565b600054610100900460ff16611eab5760405162461bcd60e51b81526004016103a9906121e1565b6105ec33611dbf565b8260208101928215611ee2579160200282015b82811115611ee2578251825591602001919060010190611ec7565b50611eee929150611f31565b5090565b6040518061040001604052806020906020820280368337509192915050565b6040518060400160405280611f24611ef2565b8152602001600081525090565b5b80821115611eee5760008155600101611f32565b600060208284031215611f5857600080fd5b81356001600160a01b0381168114611f6f57600080fd5b9392505050565b600060208284031215611f8857600080fd5b5035919050565b634e487b7160e01b600052604160045260246000fd5b60006020808385031215611fb857600080fd5b823567ffffffffffffffff80821115611fd057600080fd5b818501915085601f830112611fe457600080fd5b813581811115611ff657611ff6611f8f565b8060051b604051601f19603f8301168101818110858211171561201b5761201b611f8f565b60405291825284820192508381018501918883111561203957600080fd5b938501935b828510156120575784358452938501939285019261203e565b98975050505050505050565b6104008101818360005b602080821061207c5750612090565b82518452928301929091019060010161206d565b50505092915050565b634e487b7160e01b600052603260045260246000fd5b634e487b7160e01b600052601160045260246000fd5b81810381811115610956576109566120af565b6000600182016120ea576120ea6120af565b5060010190565b600181815b8085111561212c578160001904821115612112576121126120af565b8085161561211f57918102915b93841c93908002906120f6565b509250929050565b60008261214357506001610956565b8161215057506000610956565b816001811461216657600281146121705761218c565b6001915050610956565b60ff841115612181576121816120af565b50506001821b610956565b5060208310610133831016604e8410600b84101617156121af575081810a610956565b6121b983836120f1565b80600019048211156121cd576121cd6120af565b029392505050565b6000611f6f8383612134565b6020808252602b908201527f496e697469616c697a61626c653a20636f6e7472616374206973206e6f74206960408201526a6e697469616c697a696e6760a81b60608201526080019056fea264697066735822122075d8b3cd5dd8e732007d3c2a008b3dd473961d90ae2b5f141fe1731341f6d1e064736f6c63430008110033",
  "devdoc": {
    "details": "On the hub domain there are two MerkleTreeManager contracts, one for the hub and one for the MainnetSpokeConnector.",
    "kind": "dev",
    "methods": {
      "insert(bytes32)": {
        "params": {
          "leaf": "The leaf to be inserted into the tree."
        },
        "returns": {
          "_count": "Current node count (i.e. number of indices) AFTER the insertion of the new leaf, provided for convenience.",
          "_root": "Current root for convenience."
        }
      },
      "insert(bytes32[])": {
        "params": {
          "leaves": "The leaves to be inserted into the tree."
        },
        "returns": {
          "_count": "Current node count (i.e. number of indices) AFTER the insertion of the new leaf, provided for convenience.",
          "_root": "Current root for convenience."
        }
      },
      "renounceOwnership()": {
        "details": "Renounce ownership should be impossible as long as there is a possibility the arborist may change."
      },
      "setArborist(address)": {
        "params": {
          "newArborist": "The new address to set as the current arborist."
        }
      }
    },
    "stateVariables": {
      "arborist": {
        "details": "This could be the root manager contract or a spoke connector contract, for example."
      }
    },
    "title": "MerkleTreeManager",
    "version": 1
  },
  "userdoc": {
    "kind": "user",
    "methods": {
      "acceptProposedOwner()": {
        "notice": "Transfers ownership of the contract to a new account (`newOwner`). Can only be called by the current owner."
      },
      "arborist()": {
        "notice": "The arborist contract that has permission to write to this tree."
      },
      "branch()": {
        "notice": "Returns the current branch."
      },
      "count()": {
        "notice": "Returns the number of inserted leaves in the tree (current index)."
      },
      "delay()": {
        "notice": "Returns the delay period before a new owner can be accepted."
      },
      "insert(bytes32)": {
        "notice": "Inserts the given leaf into the tree."
      },
      "insert(bytes32[])": {
        "notice": "Inserts the given leaves into the tree."
      },
      "owner()": {
        "notice": "Returns the address of the current owner."
      },
      "proposeNewOwner(address)": {
        "notice": "Sets the timestamp for an owner to be proposed, and sets the newly proposed owner as step 1 in a 2-step process"
      },
      "proposed()": {
        "notice": "Returns the address of the proposed owner."
      },
      "proposedTimestamp()": {
        "notice": "Returns the address of the proposed owner."
      },
      "renounceOwnership()": {
        "notice": "Remove ability to renounce ownership"
      },
      "renounced()": {
        "notice": "Indicates if the ownership has been renounced() by checking if current owner is address(0)"
      },
      "root()": {
        "notice": "Calculates and returns the current root."
      },
      "rootAndCount()": {
        "notice": "Convenience getter: returns the root and count."
      },
      "setArborist(address)": {
        "notice": "Method for the current arborist to assign write permissions to a new arborist."
      },
      "tree()": {
        "notice": "Core data structure with which this contract is tasked with keeping custody. Writable only by the designated arborist."
      }
    },
    "notice": "Contains a Merkle tree instance and exposes read/write functions for the tree.",
    "version": 1
  },
  "storageLayout": {
    "storage": [
      {
        "astId": 8070,
        "contract": "contracts/messaging/MerkleTreeManager.sol:MerkleTreeManager",
        "label": "_initialized",
        "offset": 0,
        "slot": "0",
        "type": "t_uint8"
      },
      {
        "astId": 8073,
        "contract": "contracts/messaging/MerkleTreeManager.sol:MerkleTreeManager",
        "label": "_initializing",
        "offset": 1,
        "slot": "0",
        "type": "t_bool"
      },
      {
        "astId": 49393,
        "contract": "contracts/messaging/MerkleTreeManager.sol:MerkleTreeManager",
        "label": "_owner",
        "offset": 2,
        "slot": "0",
        "type": "t_address"
      },
      {
        "astId": 49395,
        "contract": "contracts/messaging/MerkleTreeManager.sol:MerkleTreeManager",
        "label": "_proposed",
        "offset": 0,
        "slot": "1",
        "type": "t_address"
      },
      {
        "astId": 49397,
        "contract": "contracts/messaging/MerkleTreeManager.sol:MerkleTreeManager",
        "label": "_proposedOwnershipTimestamp",
        "offset": 0,
        "slot": "2",
        "type": "t_uint256"
      },
      {
        "astId": 49646,
        "contract": "contracts/messaging/MerkleTreeManager.sol:MerkleTreeManager",
        "label": "__GAP",
        "offset": 0,
        "slot": "3",
        "type": "t_array(t_uint256)47_storage"
      },
      {
        "astId": 37750,
        "contract": "contracts/messaging/MerkleTreeManager.sol:MerkleTreeManager",
        "label": "tree",
        "offset": 0,
        "slot": "50",
        "type": "t_struct(Tree)48562_storage"
      },
      {
        "astId": 37753,
        "contract": "contracts/messaging/MerkleTreeManager.sol:MerkleTreeManager",
        "label": "arborist",
        "offset": 0,
        "slot": "83",
        "type": "t_address"
      },
      {
        "astId": 38004,
        "contract": "contracts/messaging/MerkleTreeManager.sol:MerkleTreeManager",
        "label": "__GAP",
        "offset": 0,
        "slot": "84",
        "type": "t_array(t_uint256)48_storage"
      }
    ],
    "types": {
      "t_address": {
        "encoding": "inplace",
        "label": "address",
        "numberOfBytes": "20"
      },
      "t_array(t_bytes32)32_storage": {
        "base": "t_bytes32",
        "encoding": "inplace",
        "label": "bytes32[32]",
        "numberOfBytes": "1024"
      },
      "t_array(t_uint256)47_storage": {
        "base": "t_uint256",
        "encoding": "inplace",
        "label": "uint256[47]",
        "numberOfBytes": "1504"
      },
      "t_array(t_uint256)48_storage": {
        "base": "t_uint256",
        "encoding": "inplace",
        "label": "uint256[48]",
        "numberOfBytes": "1536"
      },
      "t_bool": {
        "encoding": "inplace",
        "label": "bool",
        "numberOfBytes": "1"
      },
      "t_bytes32": {
        "encoding": "inplace",
        "label": "bytes32",
        "numberOfBytes": "32"
      },
      "t_struct(Tree)48562_storage": {
        "encoding": "inplace",
        "label": "struct MerkleLib.Tree",
        "members": [
          {
            "astId": 48559,
            "contract": "contracts/messaging/MerkleTreeManager.sol:MerkleTreeManager",
            "label": "branch",
            "offset": 0,
            "slot": "0",
            "type": "t_array(t_bytes32)32_storage"
          },
          {
            "astId": 48561,
            "contract": "contracts/messaging/MerkleTreeManager.sol:MerkleTreeManager",
            "label": "count",
            "offset": 0,
            "slot": "32",
            "type": "t_uint256"
          }
        ],
        "numberOfBytes": "1056"
      },
      "t_uint256": {
        "encoding": "inplace",
        "label": "uint256",
        "numberOfBytes": "32"
      },
      "t_uint8": {
        "encoding": "inplace",
        "label": "uint8",
        "numberOfBytes": "1"
      }
    }
  }
}