{
  "address": "0xbd972d100dC3bB2292F1d561b8cE6d28a139bD44",
  "abi": [
    {
      "inputs": [],
      "name": "MerkleTreeManager__setArborist_alreadyArborist",
      "type": "error"
    },
    {
      "inputs": [],
      "name": "MerkleTreeManager__setArborist_zeroAddress",
      "type": "error"
    },
    {
      "inputs": [],
      "name": "ProposedOwnable__acceptProposedOwner_delayNotElapsed",
      "type": "error"
    },
    {
      "inputs": [],
      "name": "ProposedOwnable__onlyOwner_notOwner",
      "type": "error"
    },
    {
      "inputs": [],
      "name": "ProposedOwnable__onlyProposed_notProposedOwner",
      "type": "error"
    },
    {
      "inputs": [],
      "name": "ProposedOwnable__proposeNewOwner_invalidProposal",
      "type": "error"
    },
    {
      "inputs": [],
      "name": "ProposedOwnable__proposeNewOwner_noOwnershipChange",
      "type": "error"
    },
    {
      "inputs": [],
      "name": "ProposedOwnable__renounceOwnership_delayNotElapsed",
      "type": "error"
    },
    {
      "inputs": [],
      "name": "ProposedOwnable__renounceOwnership_invalidProposal",
      "type": "error"
    },
    {
      "inputs": [],
      "name": "ProposedOwnable__renounceOwnership_noProposal",
      "type": "error"
    },
    {
      "anonymous": false,
      "inputs": [
        {
          "indexed": false,
          "internalType": "uint8",
          "name": "version",
          "type": "uint8"
        }
      ],
      "name": "Initialized",
      "type": "event"
    },
    {
      "anonymous": false,
      "inputs": [
        {
          "indexed": true,
          "internalType": "address",
          "name": "proposedOwner",
          "type": "address"
        }
      ],
      "name": "OwnershipProposed",
      "type": "event"
    },
    {
      "anonymous": false,
      "inputs": [
        {
          "indexed": true,
          "internalType": "address",
          "name": "previousOwner",
          "type": "address"
        },
        {
          "indexed": true,
          "internalType": "address",
          "name": "newOwner",
          "type": "address"
        }
      ],
      "name": "OwnershipTransferred",
      "type": "event"
    },
    {
      "inputs": [],
      "name": "acceptProposedOwner",
      "outputs": [],
      "stateMutability": "nonpayable",
      "type": "function"
    },
    {
      "inputs": [
        {
          "internalType": "address",
          "name": "",
          "type": "address"
        }
      ],
      "name": "arborists",
      "outputs": [
        {
          "internalType": "bool",
          "name": "",
          "type": "bool"
        }
      ],
      "stateMutability": "view",
      "type": "function"
    },
    {
      "inputs": [],
      "name": "branch",
      "outputs": [
        {
          "internalType": "bytes32[32]",
          "name": "",
          "type": "bytes32[32]"
        }
      ],
      "stateMutability": "view",
      "type": "function"
    },
    {
      "inputs": [],
      "name": "count",
      "outputs": [
        {
          "internalType": "uint256",
          "name": "",
          "type": "uint256"
        }
      ],
      "stateMutability": "view",
      "type": "function"
    },
    {
      "inputs": [],
      "name": "delay",
      "outputs": [
        {
          "internalType": "uint256",
          "name": "",
          "type": "uint256"
        }
      ],
      "stateMutability": "view",
      "type": "function"
    },
    {
      "inputs": [
        {
          "internalType": "address",
          "name": "_arborist",
          "type": "address"
        }
      ],
      "name": "initialize",
      "outputs": [],
      "stateMutability": "nonpayable",
      "type": "function"
    },
    {
      "inputs": [
        {
          "internalType": "bytes32",
          "name": "leaf",
          "type": "bytes32"
        }
      ],
      "name": "insert",
      "outputs": [
        {
          "internalType": "bytes32",
          "name": "_root",
          "type": "bytes32"
        },
        {
          "internalType": "uint256",
          "name": "_count",
          "type": "uint256"
        }
      ],
      "stateMutability": "nonpayable",
      "type": "function"
    },
    {
      "inputs": [
        {
          "internalType": "bytes32[]",
          "name": "leaves",
          "type": "bytes32[]"
        }
      ],
      "name": "insert",
      "outputs": [
        {
          "internalType": "bytes32",
          "name": "_root",
          "type": "bytes32"
        },
        {
          "internalType": "uint256",
          "name": "_count",
          "type": "uint256"
        }
      ],
      "stateMutability": "nonpayable",
      "type": "function"
    },
    {
      "inputs": [],
      "name": "owner",
      "outputs": [
        {
          "internalType": "address",
          "name": "",
          "type": "address"
        }
      ],
      "stateMutability": "view",
      "type": "function"
    },
    {
      "inputs": [
        {
          "internalType": "address",
          "name": "newlyProposed",
          "type": "address"
        }
      ],
      "name": "proposeNewOwner",
      "outputs": [],
      "stateMutability": "nonpayable",
      "type": "function"
    },
    {
      "inputs": [],
      "name": "proposed",
      "outputs": [
        {
          "internalType": "address",
          "name": "",
          "type": "address"
        }
      ],
      "stateMutability": "view",
      "type": "function"
    },
    {
      "inputs": [],
      "name": "proposedTimestamp",
      "outputs": [
        {
          "internalType": "uint256",
          "name": "",
          "type": "uint256"
        }
      ],
      "stateMutability": "view",
      "type": "function"
    },
    {
      "inputs": [],
      "name": "renounceOwnership",
      "outputs": [],
      "stateMutability": "nonpayable",
      "type": "function"
    },
    {
      "inputs": [],
      "name": "renounced",
      "outputs": [
        {
          "internalType": "bool",
          "name": "",
          "type": "bool"
        }
      ],
      "stateMutability": "view",
      "type": "function"
    },
    {
      "inputs": [],
      "name": "root",
      "outputs": [
        {
          "internalType": "bytes32",
          "name": "",
          "type": "bytes32"
        }
      ],
      "stateMutability": "view",
      "type": "function"
    },
    {
      "inputs": [
        {
          "internalType": "address",
          "name": "newArborist",
          "type": "address"
        }
      ],
      "name": "setArborist",
      "outputs": [],
      "stateMutability": "nonpayable",
      "type": "function"
    },
    {
      "inputs": [],
      "name": "tree",
      "outputs": [
        {
          "internalType": "uint256",
          "name": "count",
          "type": "uint256"
        }
      ],
      "stateMutability": "view",
      "type": "function"
    }
  ],
  "transactionHash": "0x6e56df2ebf1b449afbfad2f09fa316767a7a666cc36b2e502839dc3c6116126b",
  "args": [],
  "numDeployments": 1,
  "solcInputHash": "516d58acbcdf79a9430906b78a850c09",
  "bytecode": "0x608060405234801561001057600080fd5b506114bd806100206000396000f3fe608060405234801561001057600080fd5b506004361061010b5760003560e01c8063754b3b3b116100a2578063c5b350df11610071578063c5b350df14610229578063d1851c9214610231578063d232c22014610242578063ebf0c7171461025b578063fd54b2281461026357600080fd5b8063754b3b3b146101a55780638da5cb5b146101d8578063b1f8100d14610203578063c4d66de81461021657600080fd5b80633cf52ffb116100de5780633cf52ffb146101775780634b72d0d41461017f5780636a42b8f814610194578063715018a61461019d57600080fd5b806306661abd146101105780631b373a98146101275780632d287e431461013c57806334a55ee614610164575b600080fd5b6054545b6040519081526020015b60405180910390f35b61013a61013536600461114d565b61026d565b005b61014f61014a36600461117d565b610323565b6040805192835260208301919091520161011e565b61014f6101723660046111ac565b6103fe565b600254610114565b6101876104dc565b60405161011e919061126a565b62093a80610114565b61013a610518565b6101c86101b336600461114d565b60556020526000908152604090205460ff1681565b604051901515815260200161011e565b6000546201000090046001600160a01b03165b6040516001600160a01b03909116815260200161011e565b61013a61021136600461114d565b6105dd565b61013a61022436600461114d565b610691565b61013a6107ac565b6001546001600160a01b03166101eb565b6101c86000546201000090046001600160a01b03161590565b610114610807565b6054546101149081565b6000546201000090046001600160a01b0316331461029e576040516311a8a1bb60e31b815260040160405180910390fd5b6001600160a01b0381166102c557604051630c11a52d60e11b815260040160405180910390fd5b6001600160a01b03811660009081526055602052604090205460ff16156102ff5760405163606e957b60e11b815260040160405180910390fd5b6001600160a01b03166000908152605560205260409020805460ff19166001179055565b33600090815260556020526040812054819060ff166103755760405162461bcd60e51b815260206004820152600960248201526808585c989bdc9a5cdd60ba1b60448201526064015b60405180910390fd5b6040805161044081018083526000926034918391820190839060209082845b81548152602001906001019080831161039457505050918352505060209182015491015290506103c4818561085f565b90506103cf8161099b565b6020808301518351929550935082916034916103ec9183916110bb565b50602091820151910155509092909150565b33600090815260556020526040812054819060ff1661044b5760405162461bcd60e51b815260206004820152600960248201526808585c989bdc9a5cdd60ba1b604482015260640161036c565b6040805161044081018083526000926034918391820190839060209082845b81548152602001906001019080831161046a575050509183525050602091820154910152905060005b84518110156104d2576104c88582815181106104b1576104b16112a0565b60200260200101518361085f90919063ffffffff16565b9150600101610493565b506103cf8161099b565b6104e46110f9565b604080516104008101918290529060349060209082845b8154815260200190600101908083116104fb575050505050905090565b6000546201000090046001600160a01b03163314610549576040516311a8a1bb60e31b815260040160405180910390fd5b60025460000361056c57604051630e4b303f60e21b815260040160405180910390fd5b62093a806002544261057e91906112cc565b1161059c576040516386d4b3f160e01b815260040160405180910390fd5b6001546001600160a01b0316156105c6576040516323295ef960e01b815260040160405180910390fd5b6001546105db906001600160a01b03166109ae565b565b6000546201000090046001600160a01b0316331461060e576040516311a8a1bb60e31b815260040160405180910390fd5b6001546001600160a01b03828116911614801561063357506001600160a01b03811615155b15610651576040516311bc066560e11b815260040160405180910390fd5b6000546001600160a01b0380831662010000909204160361068557604051634a2fb73f60e11b815260040160405180910390fd5b61068e81610a1e565b50565b600054610100900460ff16158080156106b15750600054600160ff909116105b806106cb5750303b1580156106cb575060005460ff166001145b61072e5760405162461bcd60e51b815260206004820152602e60248201527f496e697469616c697a61626c653a20636f6e747261637420697320616c72656160448201526d191e481a5b9a5d1a585b1a5e995960921b606482015260840161036c565b6000805460ff191660011790558015610751576000805461ff0019166101001790555b61075a82610a6c565b610762610a9c565b80156107a8576000805461ff0019169055604051600181527f7f26b83ff96e1f2b6a682f133852f6798a09c465da95921460cefb38474024989060200160405180910390a15b5050565b6001546001600160a01b031633146107d7576040516311a7f27160e11b815260040160405180910390fd5b62093a80600254426107e991906112cc565b116105c65760405163d39c12bb60e01b815260040160405180910390fd5b604080516104408101808352600092839291603491839190820190839060209082845b81548152602001906001019080831161082a57505050918352505060209182015491015290506108598161099b565b91505090565b610867611118565b6001610875602060026113c7565b61087f91906112cc565b8360200151106108c45760405162461bcd60e51b815260206004820152601060248201526f1b595c9adb19481d1c995948199d5b1b60821b604482015260640161036c565b6001836020018181516108d791906113d3565b905250602083015160005b6020811015610987578160011660010361091b5784518490826020811061090b5761090b6112a0565b6020020152508391506109959050565b8451816020811061092e5761092e6112a0565b60200201518460405160200161094e929190918252602082015260400190565b60405160208183030381529060405280519060200120935060028261097391906113eb565b91508061097f8161140d565b9150506108e2565b50610990611426565b839150505b92915050565b6000610995826109a9610acb565b610f8c565b600080546001600160a01b038381166201000081810262010000600160b01b031985161785556002859055600180546001600160a01b031916905560405193049190911692909183917f8be0079c531659141344cd1fd0a4f28419497f9722a3daafe3b4186f6b6457e091a35050565b42600255600180546001600160a01b0319166001600160a01b0383169081179091556040517f6ab4d119f23076e8ad491bc65ce85f017fb0591dce08755ba8591059cc51737a90600090a250565b600054610100900460ff16610a935760405162461bcd60e51b815260040161036c9061143c565b61068e81611064565b600054610100900460ff16610ac35760405162461bcd60e51b815260040161036c9061143c565b6105db61108b565b610ad36110f9565b600081527fad3228b676f7d3cd4284a5443f17f1962b36e491b30a40b2405849e597ba5fb560208201527fb4c11951957c6f8f642c4af61cd6b24640fec6dc7fc607ee8206a99e92410d3060408201527f21ddb9a356815c3fac1026b6dec5df3124afbadb485c9ba5a3e3398a04b7ba8560608201527fe58769b32a1beaf1ea27375a44095a0d1fb664ce2dd358e7fcbfb78c26a1934460808201527f0eb01ebfc9ed27500cd4dfc979272d1f0913cc9f66540d7e8005811109e1cf2d60a08201527f887c22bd8750d34016ac3c66b5ff102dacdd73f6b014e710b51e8022af9a196860c08201527fffd70157e48063fc33c97a050f7f640233bf646cc98d9524c6b92bcf3ab56f8360e08201527f9867cc5f7f196b93bae1e27e6320742445d290f2263827498b54fec539f756af6101008201527fcefad4e508c098b9a7e1d8feb19955fb02ba9675585078710969d3440f5054e06101208201527ff9dc3e7fe016e050eff260334f18a5d4fe391d82092319f5964f2e2eb7c1c3a56101408201527ff8b13a49e282f609c317a833fb8d976d11517c571d1221a265d25af778ecf8926101608201527f3490c6ceeb450aecdc82e28293031d10c7d73bf85e57bf041a97360aa2c5d99c6101808201527fc1df82d9c4b87413eae2ef048f94b4d3554cea73d92b0f7af96e0271c691e2bb6101a08201527f5c67add7c6caf302256adedf7ab114da0acfe870d449a3a489f781d659e8becc6101c08201527fda7bce9f4e8618b6bd2f4132ce798cdc7a60e7e1460a7299e3c6342a579626d26101e08201527f2733e50f526ec2fa19a22b31e8ed50f23cd1fdf94c9154ed3a7609a2f1ff981f6102008201527fe1d3b5c807b281e4683cc6d6315cf95b9ade8641defcb32372f1c126e398ef7a6102208201527f5a2dce0a8a7f68bb74560f8f71837c2c2ebbcbf7fffb42ae1896f13f7c7479a06102408201527fb46a28b6f55540f89444f63de0378e3d121be09e06cc9ded1c20e65876d36aa06102608201527fc65e9645644786b620e2dd2ad648ddfcbf4a7e5b1a3a4ecfe7f64667a3f0b7e26102808201527ff4418588ed35a2458cffeb39b93d26f18d2ab13bdce6aee58e7b99359ec2dfd96102a08201527f5a9c16dc00d6ef18b7933a6f8dc65ccb55667138776f7dea101070dc8796e3776102c08201527f4df84f40ae0c8229d0d6069e5c8f39a7c299677a09d367fc7b05e3bc380ee6526102e08201527fcdc72595f74c7b1043d0e1ffbab734648c838dfb0527d971b602bc216c9619ef6103008201527f0abf5ac974a1ed57f4050aa510dd9c74f508277b39d7973bb2dfccc5eeb0618d6103208201527fb8cd74046ff337f0a7bf2c8e03e10f642c1886798d71806ab1e888d9e5ee87d06103408201527f838c5655cb21c6cb83313b5a631175dff4963772cce9108188b34ac87c81c41e6103608201527f662ee4dd2dd7b2bc707961b1e646c4047669dcb6584f0d8d770daf5d7e7deb2e6103808201527f388ab20e2573d171a88108e79d820e98f26c0b84aa8b2f4aa4968dbb818ea3226103a08201527f93237c50ba75ee485f4c22adf2f741400bdf8d6a9cc7df7ecae576221665d7356103c08201527f8448818bb4ae4562849e949e17ac16e0be16688e156b5cf15e098c627c0056a96103e082015290565b6020820151600090815b602081101561105c578451600183831c16906000908360208110610fbc57610fbc6112a0565b6020020151905081600103610ffc576040805160208101839052908101869052606001604051602081830303815290604052805190602001209450611047565b8486846020811061100f5761100f6112a0565b602002015160405160200161102e929190918252602082015260400190565b6040516020818303038152906040528051906020012094505b505080806110549061140d565b915050610f96565b505092915050565b600054610100900460ff166102ff5760405162461bcd60e51b815260040161036c9061143c565b600054610100900460ff166110b25760405162461bcd60e51b815260040161036c9061143c565b6105db336109ae565b82602081019282156110e9579160200282015b828111156110e95782518255916020019190600101906110ce565b506110f5929150611138565b5090565b6040518061040001604052806020906020820280368337509192915050565b604051806040016040528061112b6110f9565b8152602001600081525090565b5b808211156110f55760008155600101611139565b60006020828403121561115f57600080fd5b81356001600160a01b038116811461117657600080fd5b9392505050565b60006020828403121561118f57600080fd5b5035919050565b634e487b7160e01b600052604160045260246000fd5b600060208083850312156111bf57600080fd5b823567ffffffffffffffff808211156111d757600080fd5b818501915085601f8301126111eb57600080fd5b8135818111156111fd576111fd611196565b8060051b604051601f19603f8301168101818110858211171561122257611222611196565b60405291825284820192508381018501918883111561124057600080fd5b938501935b8285101561125e57843584529385019392850192611245565b98975050505050505050565b6104008101818360005b60208082106112835750611297565b825184529283019290910190600101611274565b50505092915050565b634e487b7160e01b600052603260045260246000fd5b634e487b7160e01b600052601160045260246000fd5b6000828210156112de576112de6112b6565b500390565b600181815b8085111561131e578160001904821115611304576113046112b6565b8085161561131157918102915b93841c93908002906112e8565b509250929050565b60008261133557506001610995565b8161134257506000610995565b816001811461135857600281146113625761137e565b6001915050610995565b60ff841115611373576113736112b6565b50506001821b610995565b5060208310610133831016604e8410600b84101617156113a1575081810a610995565b6113ab83836112e3565b80600019048211156113bf576113bf6112b6565b029392505050565b60006111768383611326565b600082198211156113e6576113e66112b6565b500190565b60008261140857634e487b7160e01b600052601260045260246000fd5b500490565b60006001820161141f5761141f6112b6565b5060010190565b634e487b7160e01b600052600160045260246000fd5b6020808252602b908201527f496e697469616c697a61626c653a20636f6e7472616374206973206e6f74206960408201526a6e697469616c697a696e6760a81b60608201526080019056fea26469706673582212209e985581f8a19355472620152f48262060e62e41612f1f6ee7028405a69431b464736f6c634300080f0033",
  "devdoc": {
    "kind": "dev",
    "methods": {
      "insert(bytes32)": {
        "params": {
          "leaf": "The leaf to be inserted into the tree."
        },
        "returns": {
          "_count": "Current node count (i.e. number of indices) AFTER the insertion of the new leaf, provided for convenience.",
          "_root": "Current root for convenience."
        }
      },
      "insert(bytes32[])": {
        "params": {
          "leaves": "The leaves to be inserted into the tree."
        },
        "returns": {
          "_count": "Current node count (i.e. number of indices) AFTER the insertion of the new leaf, provided for convenience.",
          "_root": "Current root for convenience."
        }
      },
      "setArborist(address)": {
        "params": {
          "newArborist": "The new address to set as the current arborist."
        }
      }
    },
    "stateVariables": {
      "arborists": {
        "details": "This could be the root manager contract or a spoke connector contract, for example."
      }
    },
    "title": "MerkleTreeManager",
    "version": 1
  },
  "userdoc": {
    "kind": "user",
    "methods": {
      "acceptProposedOwner()": {
        "notice": "Transfers ownership of the contract to a new account (`newOwner`). Can only be called by the current owner."
      },
      "arborists(address)": {
        "notice": "The arborist contract that has permission to write to this tree."
      },
      "branch()": {
        "notice": "Returns the current branch."
      },
      "count()": {
        "notice": "Returns the number of inserted leaves in the tree (current index)."
      },
      "delay()": {
        "notice": "Returns the delay period before a new owner can be accepted."
      },
      "insert(bytes32)": {
        "notice": "Inserts the given leaf into the tree."
      },
      "insert(bytes32[])": {
        "notice": "Inserts the given leaves into the tree."
      },
      "owner()": {
        "notice": "Returns the address of the current owner."
      },
      "proposeNewOwner(address)": {
        "notice": "Sets the timestamp for an owner to be proposed, and sets the newly proposed owner as step 1 in a 2-step process"
      },
      "proposed()": {
        "notice": "Returns the address of the proposed owner."
      },
      "proposedTimestamp()": {
        "notice": "Returns the address of the proposed owner."
      },
      "renounceOwnership()": {
        "notice": "Renounces ownership of the contract after a delay"
      },
      "renounced()": {
        "notice": "Indicates if the ownership has been renounced() by checking if current owner is address(0)"
      },
      "root()": {
        "notice": "Calculates and returns the current root."
      },
      "setArborist(address)": {
        "notice": "Method for the current arborist to assign write permissions to a new arborist."
      },
      "tree()": {
        "notice": "Core data structure with which this contract is tasked with keeping custody. Writable only by the designated arborist."
      }
    },
    "notice": "Contains a Merkle tree instance and exposes read/write functions for the tree.",
    "version": 1
  },
  "storageLayout": {
    "storage": [
      {
        "astId": 138,
        "contract": "contracts/messaging/Merkle.sol:MerkleTreeManager",
        "label": "_initialized",
        "offset": 0,
        "slot": "0",
        "type": "t_uint8"
      },
      {
        "astId": 141,
        "contract": "contracts/messaging/Merkle.sol:MerkleTreeManager",
        "label": "_initializing",
        "offset": 1,
        "slot": "0",
        "type": "t_bool"
      },
      {
        "astId": 39094,
        "contract": "contracts/messaging/Merkle.sol:MerkleTreeManager",
        "label": "_owner",
        "offset": 2,
        "slot": "0",
        "type": "t_address"
      },
      {
        "astId": 39096,
        "contract": "contracts/messaging/Merkle.sol:MerkleTreeManager",
        "label": "_proposed",
        "offset": 0,
        "slot": "1",
        "type": "t_address"
      },
      {
        "astId": 39098,
        "contract": "contracts/messaging/Merkle.sol:MerkleTreeManager",
        "label": "_proposedOwnershipTimestamp",
        "offset": 0,
        "slot": "2",
        "type": "t_uint256"
      },
      {
        "astId": 39352,
        "contract": "contracts/messaging/Merkle.sol:MerkleTreeManager",
        "label": "__GAP",
        "offset": 0,
        "slot": "3",
        "type": "t_array(t_uint256)49_storage"
      },
      {
        "astId": 28516,
        "contract": "contracts/messaging/Merkle.sol:MerkleTreeManager",
        "label": "tree",
        "offset": 0,
        "slot": "52",
        "type": "t_struct(Tree)37922_storage"
      },
      {
        "astId": 28521,
        "contract": "contracts/messaging/Merkle.sol:MerkleTreeManager",
        "label": "arborists",
        "offset": 0,
        "slot": "85",
        "type": "t_mapping(t_address,t_bool)"
      },
      {
        "astId": 28525,
        "contract": "contracts/messaging/Merkle.sol:MerkleTreeManager",
        "label": "__GAP",
        "offset": 0,
        "slot": "86",
        "type": "t_array(t_uint256)49_storage"
      }
    ],
    "types": {
      "t_address": {
        "encoding": "inplace",
        "label": "address",
        "numberOfBytes": "20"
      },
      "t_array(t_bytes32)32_storage": {
        "base": "t_bytes32",
        "encoding": "inplace",
        "label": "bytes32[32]",
        "numberOfBytes": "1024"
      },
      "t_array(t_uint256)49_storage": {
        "base": "t_uint256",
        "encoding": "inplace",
        "label": "uint256[49]",
        "numberOfBytes": "1568"
      },
      "t_bool": {
        "encoding": "inplace",
        "label": "bool",
        "numberOfBytes": "1"
      },
      "t_bytes32": {
        "encoding": "inplace",
        "label": "bytes32",
        "numberOfBytes": "32"
      },
      "t_mapping(t_address,t_bool)": {
        "encoding": "mapping",
        "key": "t_address",
        "label": "mapping(address => bool)",
        "numberOfBytes": "32",
        "value": "t_bool"
      },
      "t_struct(Tree)37922_storage": {
        "encoding": "inplace",
        "label": "struct MerkleLib.Tree",
        "members": [
          {
            "astId": 37919,
            "contract": "contracts/messaging/Merkle.sol:MerkleTreeManager",
            "label": "branch",
            "offset": 0,
            "slot": "0",
            "type": "t_array(t_bytes32)32_storage"
          },
          {
            "astId": 37921,
            "contract": "contracts/messaging/Merkle.sol:MerkleTreeManager",
            "label": "count",
            "offset": 0,
            "slot": "32",
            "type": "t_uint256"
          }
        ],
        "numberOfBytes": "1056"
      },
      "t_uint256": {
        "encoding": "inplace",
        "label": "uint256",
        "numberOfBytes": "32"
      },
      "t_uint8": {
        "encoding": "inplace",
        "label": "uint8",
        "numberOfBytes": "1"
      }
    }
  }
}