{
  "address": "0x18F49442bFB1E5280a36a3c6e54A58AB64C9ac55",
  "abi": [
    {
      "inputs": [],
      "name": "MerkleLib__insert_treeIsFull",
      "type": "error"
    },
    {
      "inputs": [],
      "name": "MerkleTreeManager__setArborist_alreadyArborist",
      "type": "error"
    },
    {
      "inputs": [],
      "name": "MerkleTreeManager__setArborist_zeroAddress",
      "type": "error"
    },
    {
      "inputs": [],
      "name": "ProposedOwnable__acceptProposedOwner_delayNotElapsed",
      "type": "error"
    },
    {
      "inputs": [],
      "name": "ProposedOwnable__onlyOwner_notOwner",
      "type": "error"
    },
    {
      "inputs": [],
      "name": "ProposedOwnable__onlyProposed_notProposedOwner",
      "type": "error"
    },
    {
      "inputs": [],
      "name": "ProposedOwnable__proposeNewOwner_invalidProposal",
      "type": "error"
    },
    {
      "inputs": [],
      "name": "ProposedOwnable__proposeNewOwner_noOwnershipChange",
      "type": "error"
    },
    {
      "inputs": [],
      "name": "ProposedOwnable__renounceOwnership_delayNotElapsed",
      "type": "error"
    },
    {
      "inputs": [],
      "name": "ProposedOwnable__renounceOwnership_invalidProposal",
      "type": "error"
    },
    {
      "inputs": [],
      "name": "ProposedOwnable__renounceOwnership_noProposal",
      "type": "error"
    },
    {
      "anonymous": false,
      "inputs": [
        {
          "indexed": false,
          "internalType": "uint8",
          "name": "version",
          "type": "uint8"
        }
      ],
      "name": "Initialized",
      "type": "event"
    },
    {
      "anonymous": false,
      "inputs": [
        {
          "indexed": true,
          "internalType": "address",
          "name": "proposedOwner",
          "type": "address"
        }
      ],
      "name": "OwnershipProposed",
      "type": "event"
    },
    {
      "anonymous": false,
      "inputs": [
        {
          "indexed": true,
          "internalType": "address",
          "name": "previousOwner",
          "type": "address"
        },
        {
          "indexed": true,
          "internalType": "address",
          "name": "newOwner",
          "type": "address"
        }
      ],
      "name": "OwnershipTransferred",
      "type": "event"
    },
    {
      "inputs": [],
      "name": "acceptProposedOwner",
      "outputs": [],
      "stateMutability": "nonpayable",
      "type": "function"
    },
    {
      "inputs": [
        {
          "internalType": "address",
          "name": "",
          "type": "address"
        }
      ],
      "name": "arborists",
      "outputs": [
        {
          "internalType": "bool",
          "name": "",
          "type": "bool"
        }
      ],
      "stateMutability": "view",
      "type": "function"
    },
    {
      "inputs": [],
      "name": "branch",
      "outputs": [
        {
          "internalType": "bytes32[32]",
          "name": "",
          "type": "bytes32[32]"
        }
      ],
      "stateMutability": "view",
      "type": "function"
    },
    {
      "inputs": [],
      "name": "count",
      "outputs": [
        {
          "internalType": "uint256",
          "name": "",
          "type": "uint256"
        }
      ],
      "stateMutability": "view",
      "type": "function"
    },
    {
      "inputs": [],
      "name": "delay",
      "outputs": [
        {
          "internalType": "uint256",
          "name": "",
          "type": "uint256"
        }
      ],
      "stateMutability": "view",
      "type": "function"
    },
    {
      "inputs": [
        {
          "internalType": "address",
          "name": "_arborist",
          "type": "address"
        }
      ],
      "name": "initialize",
      "outputs": [],
      "stateMutability": "nonpayable",
      "type": "function"
    },
    {
      "inputs": [
        {
          "internalType": "bytes32",
          "name": "leaf",
          "type": "bytes32"
        }
      ],
      "name": "insert",
      "outputs": [
        {
          "internalType": "bytes32",
          "name": "_root",
          "type": "bytes32"
        },
        {
          "internalType": "uint256",
          "name": "_count",
          "type": "uint256"
        }
      ],
      "stateMutability": "nonpayable",
      "type": "function"
    },
    {
      "inputs": [
        {
          "internalType": "bytes32[]",
          "name": "leaves",
          "type": "bytes32[]"
        }
      ],
      "name": "insert",
      "outputs": [
        {
          "internalType": "bytes32",
          "name": "_root",
          "type": "bytes32"
        },
        {
          "internalType": "uint256",
          "name": "_count",
          "type": "uint256"
        }
      ],
      "stateMutability": "nonpayable",
      "type": "function"
    },
    {
      "inputs": [],
      "name": "owner",
      "outputs": [
        {
          "internalType": "address",
          "name": "",
          "type": "address"
        }
      ],
      "stateMutability": "view",
      "type": "function"
    },
    {
      "inputs": [
        {
          "internalType": "address",
          "name": "newlyProposed",
          "type": "address"
        }
      ],
      "name": "proposeNewOwner",
      "outputs": [],
      "stateMutability": "nonpayable",
      "type": "function"
    },
    {
      "inputs": [],
      "name": "proposed",
      "outputs": [
        {
          "internalType": "address",
          "name": "",
          "type": "address"
        }
      ],
      "stateMutability": "view",
      "type": "function"
    },
    {
      "inputs": [],
      "name": "proposedTimestamp",
      "outputs": [
        {
          "internalType": "uint256",
          "name": "",
          "type": "uint256"
        }
      ],
      "stateMutability": "view",
      "type": "function"
    },
    {
      "inputs": [],
      "name": "renounceOwnership",
      "outputs": [],
      "stateMutability": "nonpayable",
      "type": "function"
    },
    {
      "inputs": [],
      "name": "renounced",
      "outputs": [
        {
          "internalType": "bool",
          "name": "",
          "type": "bool"
        }
      ],
      "stateMutability": "view",
      "type": "function"
    },
    {
      "inputs": [],
      "name": "root",
      "outputs": [
        {
          "internalType": "bytes32",
          "name": "",
          "type": "bytes32"
        }
      ],
      "stateMutability": "view",
      "type": "function"
    },
    {
      "inputs": [
        {
          "internalType": "address",
          "name": "newArborist",
          "type": "address"
        }
      ],
      "name": "setArborist",
      "outputs": [],
      "stateMutability": "nonpayable",
      "type": "function"
    },
    {
      "inputs": [],
      "name": "tree",
      "outputs": [
        {
          "internalType": "uint256",
          "name": "count",
          "type": "uint256"
        }
      ],
      "stateMutability": "view",
      "type": "function"
    }
  ],
  "transactionHash": "0x18c3f9130898e1246de81ca5049d57e7ed898c469c2c03235665f3a9cd078d51",
  "args": [],
  "numDeployments": 1,
  "solcInputHash": "2cb19c6ff260c62b0df6791111e721e0",
  "bytecode": "0x608060405234801561001057600080fd5b506112e3806100206000396000f3fe608060405234801561001057600080fd5b506004361061010b5760003560e01c8063754b3b3b116100a2578063c5b350df11610071578063c5b350df14610229578063d1851c9214610231578063d232c22014610242578063ebf0c7171461025b578063fd54b2281461026357600080fd5b8063754b3b3b146101a55780638da5cb5b146101d8578063b1f8100d14610203578063c4d66de81461021657600080fd5b80633cf52ffb116100de5780633cf52ffb146101775780634b72d0d41461017f5780636a42b8f814610194578063715018a61461019d57600080fd5b806306661abd146101105780631b373a98146101275780632d287e431461013c57806334a55ee614610164575b600080fd5b6054545b6040519081526020015b60405180910390f35b61013a610135366004610fa2565b61026d565b005b61014f61014a366004610fd2565b610323565b6040805192835260208301919091520161011e565b61014f610172366004611001565b610396565b600254610114565b61018761043d565b60405161011e91906110bf565b62093a80610114565b61013a610479565b6101c86101b3366004610fa2565b60556020526000908152604090205460ff1681565b604051901515815260200161011e565b6000546201000090046001600160a01b03165b6040516001600160a01b03909116815260200161011e565b61013a610211366004610fa2565b61053e565b61013a610224366004610fa2565b6105f2565b61013a61070d565b6001546001600160a01b03166101eb565b6101c86000546201000090046001600160a01b03161590565b610114610768565b6054546101149081565b6000546201000090046001600160a01b0316331461029e576040516311a8a1bb60e31b815260040160405180910390fd5b6001600160a01b0381166102c557604051630c11a52d60e11b815260040160405180910390fd5b6001600160a01b03811660009081526055602052604090205460ff16156102ff5760405163606e957b60e11b815260040160405180910390fd5b6001600160a01b03166000908152605560205260409020805460ff19166001179055565b33600090815260556020526040812054819060ff166103755760405162461bcd60e51b815260206004820152600960248201526808585c989bdc9a5cdd60ba1b60448201526064015b60405180910390fd5b610380603484610779565b505060545461038f6034610878565b9150915091565b33600090815260556020526040812054819060ff166103e35760405162461bcd60e51b815260206004820152600960248201526808585c989bdc9a5cdd60ba1b604482015260640161036c565b60005b83518110156104255761041c848281518110610404576104046110f5565b6020026020010151603461077990919063ffffffff16565b506001016103e6565b506104306034610878565b6054549094909350915050565b610445610f83565b604080516104008101918290529060349060209082845b81548152602001906001019080831161045c575050505050905090565b6000546201000090046001600160a01b031633146104aa576040516311a8a1bb60e31b815260040160405180910390fd5b6002546000036104cd57604051630e4b303f60e21b815260040160405180910390fd5b62093a80600254426104df9190611121565b116104fd576040516386d4b3f160e01b815260040160405180910390fd5b6001546001600160a01b031615610527576040516323295ef960e01b815260040160405180910390fd5b60015461053c906001600160a01b031661088b565b565b6000546201000090046001600160a01b0316331461056f576040516311a8a1bb60e31b815260040160405180910390fd5b6001546001600160a01b03828116911614801561059457506001600160a01b03811615155b156105b2576040516311bc066560e11b815260040160405180910390fd5b6000546001600160a01b038083166201000090920416036105e657604051634a2fb73f60e11b815260040160405180910390fd5b6105ef816108fb565b50565b600054610100900460ff16158080156106125750600054600160ff909116105b8061062c5750303b15801561062c575060005460ff166001145b61068f5760405162461bcd60e51b815260206004820152602e60248201527f496e697469616c697a61626c653a20636f6e747261637420697320616c72656160448201526d191e481a5b9a5d1a585b1a5e995960921b606482015260840161036c565b6000805460ff1916600117905580156106b2576000805461ff0019166101001790555b6106bb82610949565b6106c3610979565b8015610709576000805461ff0019169055604051600181527f7f26b83ff96e1f2b6a682f133852f6798a09c465da95921460cefb38474024989060200160405180910390a15b5050565b6001546001600160a01b03163314610738576040516311a7f27160e11b815260040160405180910390fd5b62093a806002544261074a9190611121565b116105275760405163d39c12bb60e01b815260040160405180910390fd5b60006107746034610878565b905090565b6000808360200154600161078d9190611138565b9050600161079d60206002611234565b6107a79190611121565b81106107c657604051638eab04bb60e01b815260040160405180910390fd5b6020840181905560005b6020811015610858578160011660010361080157838582602081106107f7576107f76110f5565b0155509050610872565b848160208110610813576108136110f5565b0154604080516020810192909252810185905260600160405160208183030381529060405280519060200120935060028261084e9190611240565b91506001016107d0565b50604051638eab04bb60e01b815260040160405180910390fd5b92915050565b6000610872826108866109a8565b610e69565b600080546001600160a01b038381166201000081810262010000600160b01b031985161785556002859055600180546001600160a01b031916905560405193049190911692909183917f8be0079c531659141344cd1fd0a4f28419497f9722a3daafe3b4186f6b6457e091a35050565b42600255600180546001600160a01b0319166001600160a01b0383169081179091556040517f6ab4d119f23076e8ad491bc65ce85f017fb0591dce08755ba8591059cc51737a90600090a250565b600054610100900460ff166109705760405162461bcd60e51b815260040161036c90611262565b6105ef81610f2c565b600054610100900460ff166109a05760405162461bcd60e51b815260040161036c90611262565b61053c610f53565b6109b0610f83565b600081527fad3228b676f7d3cd4284a5443f17f1962b36e491b30a40b2405849e597ba5fb560208201527fb4c11951957c6f8f642c4af61cd6b24640fec6dc7fc607ee8206a99e92410d3060408201527f21ddb9a356815c3fac1026b6dec5df3124afbadb485c9ba5a3e3398a04b7ba8560608201527fe58769b32a1beaf1ea27375a44095a0d1fb664ce2dd358e7fcbfb78c26a1934460808201527f0eb01ebfc9ed27500cd4dfc979272d1f0913cc9f66540d7e8005811109e1cf2d60a08201527f887c22bd8750d34016ac3c66b5ff102dacdd73f6b014e710b51e8022af9a196860c08201527fffd70157e48063fc33c97a050f7f640233bf646cc98d9524c6b92bcf3ab56f8360e08201527f9867cc5f7f196b93bae1e27e6320742445d290f2263827498b54fec539f756af6101008201527fcefad4e508c098b9a7e1d8feb19955fb02ba9675585078710969d3440f5054e06101208201527ff9dc3e7fe016e050eff260334f18a5d4fe391d82092319f5964f2e2eb7c1c3a56101408201527ff8b13a49e282f609c317a833fb8d976d11517c571d1221a265d25af778ecf8926101608201527f3490c6ceeb450aecdc82e28293031d10c7d73bf85e57bf041a97360aa2c5d99c6101808201527fc1df82d9c4b87413eae2ef048f94b4d3554cea73d92b0f7af96e0271c691e2bb6101a08201527f5c67add7c6caf302256adedf7ab114da0acfe870d449a3a489f781d659e8becc6101c08201527fda7bce9f4e8618b6bd2f4132ce798cdc7a60e7e1460a7299e3c6342a579626d26101e08201527f2733e50f526ec2fa19a22b31e8ed50f23cd1fdf94c9154ed3a7609a2f1ff981f6102008201527fe1d3b5c807b281e4683cc6d6315cf95b9ade8641defcb32372f1c126e398ef7a6102208201527f5a2dce0a8a7f68bb74560f8f71837c2c2ebbcbf7fffb42ae1896f13f7c7479a06102408201527fb46a28b6f55540f89444f63de0378e3d121be09e06cc9ded1c20e65876d36aa06102608201527fc65e9645644786b620e2dd2ad648ddfcbf4a7e5b1a3a4ecfe7f64667a3f0b7e26102808201527ff4418588ed35a2458cffeb39b93d26f18d2ab13bdce6aee58e7b99359ec2dfd96102a08201527f5a9c16dc00d6ef18b7933a6f8dc65ccb55667138776f7dea101070dc8796e3776102c08201527f4df84f40ae0c8229d0d6069e5c8f39a7c299677a09d367fc7b05e3bc380ee6526102e08201527fcdc72595f74c7b1043d0e1ffbab734648c838dfb0527d971b602bc216c9619ef6103008201527f0abf5ac974a1ed57f4050aa510dd9c74f508277b39d7973bb2dfccc5eeb0618d6103208201527fb8cd74046ff337f0a7bf2c8e03e10f642c1886798d71806ab1e888d9e5ee87d06103408201527f838c5655cb21c6cb83313b5a631175dff4963772cce9108188b34ac87c81c41e6103608201527f662ee4dd2dd7b2bc707961b1e646c4047669dcb6584f0d8d770daf5d7e7deb2e6103808201527f388ab20e2573d171a88108e79d820e98f26c0b84aa8b2f4aa4968dbb818ea3226103a08201527f93237c50ba75ee485f4c22adf2f741400bdf8d6a9cc7df7ecae576221665d7356103c08201527f8448818bb4ae4562849e949e17ac16e0be16688e156b5cf15e098c627c0056a96103e082015290565b6020820154600090815b6020811015610f2457600182821c811690819003610ed057858260208110610e9d57610e9d6110f5565b01546040805160208101929092528101859052606001604051602081830303815290604052805190602001209350610f1b565b83858360208110610ee357610ee36110f5565b6020020151604051602001610f02929190918252602082015260400190565b6040516020818303038152906040528051906020012093505b50600101610e73565b505092915050565b600054610100900460ff166102ff5760405162461bcd60e51b815260040161036c90611262565b600054610100900460ff16610f7a5760405162461bcd60e51b815260040161036c90611262565b61053c3361088b565b6040518061040001604052806020906020820280368337509192915050565b600060208284031215610fb457600080fd5b81356001600160a01b0381168114610fcb57600080fd5b9392505050565b600060208284031215610fe457600080fd5b5035919050565b634e487b7160e01b600052604160045260246000fd5b6000602080838503121561101457600080fd5b823567ffffffffffffffff8082111561102c57600080fd5b818501915085601f83011261104057600080fd5b81358181111561105257611052610feb565b8060051b604051601f19603f8301168101818110858211171561107757611077610feb565b60405291825284820192508381018501918883111561109557600080fd5b938501935b828510156110b35784358452938501939285019261109a565b98975050505050505050565b6104008101818360005b60208082106110d857506110ec565b8251845292830192909101906001016110c9565b50505092915050565b634e487b7160e01b600052603260045260246000fd5b634e487b7160e01b600052601160045260246000fd5b6000828210156111335761113361110b565b500390565b6000821982111561114b5761114b61110b565b500190565b600181815b8085111561118b5781600019048211156111715761117161110b565b8085161561117e57918102915b93841c9390800290611155565b509250929050565b6000826111a257506001610872565b816111af57506000610872565b81600181146111c557600281146111cf576111eb565b6001915050610872565b60ff8411156111e0576111e061110b565b50506001821b610872565b5060208310610133831016604e8410600b841016171561120e575081810a610872565b6112188383611150565b806000190482111561122c5761122c61110b565b029392505050565b6000610fcb8383611193565b60008261125d57634e487b7160e01b600052601260045260246000fd5b500490565b6020808252602b908201527f496e697469616c697a61626c653a20636f6e7472616374206973206e6f74206960408201526a6e697469616c697a696e6760a81b60608201526080019056fea2646970667358221220d2ed0a62e39feb5ca56056118c204415a39269f940d9c4b02d417d23f82e82bc64736f6c634300080f0033",
  "devdoc": {
    "kind": "dev",
    "methods": {
      "insert(bytes32)": {
        "params": {
          "leaf": "The leaf to be inserted into the tree."
        },
        "returns": {
          "_count": "Current node count (i.e. number of indices) AFTER the insertion of the new leaf, provided for convenience.",
          "_root": "Current root for convenience."
        }
      },
      "insert(bytes32[])": {
        "params": {
          "leaves": "The leaves to be inserted into the tree."
        },
        "returns": {
          "_count": "Current node count (i.e. number of indices) AFTER the insertion of the new leaf, provided for convenience.",
          "_root": "Current root for convenience."
        }
      },
      "setArborist(address)": {
        "params": {
          "newArborist": "The new address to set as the current arborist."
        }
      }
    },
    "stateVariables": {
      "arborists": {
        "details": "This could be the root manager contract or a spoke connector contract, for example."
      }
    },
    "title": "MerkleTreeManager",
    "version": 1
  },
  "userdoc": {
    "kind": "user",
    "methods": {
      "acceptProposedOwner()": {
        "notice": "Transfers ownership of the contract to a new account (`newOwner`). Can only be called by the current owner."
      },
      "arborists(address)": {
        "notice": "The arborist contract that has permission to write to this tree."
      },
      "branch()": {
        "notice": "Returns the current branch."
      },
      "count()": {
        "notice": "Returns the number of inserted leaves in the tree (current index)."
      },
      "delay()": {
        "notice": "Returns the delay period before a new owner can be accepted."
      },
      "insert(bytes32)": {
        "notice": "Inserts the given leaf into the tree."
      },
      "insert(bytes32[])": {
        "notice": "Inserts the given leaves into the tree."
      },
      "owner()": {
        "notice": "Returns the address of the current owner."
      },
      "proposeNewOwner(address)": {
        "notice": "Sets the timestamp for an owner to be proposed, and sets the newly proposed owner as step 1 in a 2-step process"
      },
      "proposed()": {
        "notice": "Returns the address of the proposed owner."
      },
      "proposedTimestamp()": {
        "notice": "Returns the address of the proposed owner."
      },
      "renounceOwnership()": {
        "notice": "Renounces ownership of the contract after a delay"
      },
      "renounced()": {
        "notice": "Indicates if the ownership has been renounced() by checking if current owner is address(0)"
      },
      "root()": {
        "notice": "Calculates and returns the current root."
      },
      "setArborist(address)": {
        "notice": "Method for the current arborist to assign write permissions to a new arborist."
      },
      "tree()": {
        "notice": "Core data structure with which this contract is tasked with keeping custody. Writable only by the designated arborist."
      }
    },
    "notice": "Contains a Merkle tree instance and exposes read/write functions for the tree.",
    "version": 1
  },
  "storageLayout": {
    "storage": [
      {
        "astId": 7990,
        "contract": "contracts/messaging/Merkle.sol:MerkleTreeManager",
        "label": "_initialized",
        "offset": 0,
        "slot": "0",
        "type": "t_uint8"
      },
      {
        "astId": 7993,
        "contract": "contracts/messaging/Merkle.sol:MerkleTreeManager",
        "label": "_initializing",
        "offset": 1,
        "slot": "0",
        "type": "t_bool"
      },
      {
        "astId": 47175,
        "contract": "contracts/messaging/Merkle.sol:MerkleTreeManager",
        "label": "_owner",
        "offset": 2,
        "slot": "0",
        "type": "t_address"
      },
      {
        "astId": 47177,
        "contract": "contracts/messaging/Merkle.sol:MerkleTreeManager",
        "label": "_proposed",
        "offset": 0,
        "slot": "1",
        "type": "t_address"
      },
      {
        "astId": 47179,
        "contract": "contracts/messaging/Merkle.sol:MerkleTreeManager",
        "label": "_proposedOwnershipTimestamp",
        "offset": 0,
        "slot": "2",
        "type": "t_uint256"
      },
      {
        "astId": 47433,
        "contract": "contracts/messaging/Merkle.sol:MerkleTreeManager",
        "label": "__GAP",
        "offset": 0,
        "slot": "3",
        "type": "t_array(t_uint256)49_storage"
      },
      {
        "astId": 36331,
        "contract": "contracts/messaging/Merkle.sol:MerkleTreeManager",
        "label": "tree",
        "offset": 0,
        "slot": "52",
        "type": "t_struct(Tree)46110_storage"
      },
      {
        "astId": 36336,
        "contract": "contracts/messaging/Merkle.sol:MerkleTreeManager",
        "label": "arborists",
        "offset": 0,
        "slot": "85",
        "type": "t_mapping(t_address,t_bool)"
      },
      {
        "astId": 36340,
        "contract": "contracts/messaging/Merkle.sol:MerkleTreeManager",
        "label": "__GAP",
        "offset": 0,
        "slot": "86",
        "type": "t_array(t_uint256)49_storage"
      }
    ],
    "types": {
      "t_address": {
        "encoding": "inplace",
        "label": "address",
        "numberOfBytes": "20"
      },
      "t_array(t_bytes32)32_storage": {
        "base": "t_bytes32",
        "encoding": "inplace",
        "label": "bytes32[32]",
        "numberOfBytes": "1024"
      },
      "t_array(t_uint256)49_storage": {
        "base": "t_uint256",
        "encoding": "inplace",
        "label": "uint256[49]",
        "numberOfBytes": "1568"
      },
      "t_bool": {
        "encoding": "inplace",
        "label": "bool",
        "numberOfBytes": "1"
      },
      "t_bytes32": {
        "encoding": "inplace",
        "label": "bytes32",
        "numberOfBytes": "32"
      },
      "t_mapping(t_address,t_bool)": {
        "encoding": "mapping",
        "key": "t_address",
        "label": "mapping(address => bool)",
        "numberOfBytes": "32",
        "value": "t_bool"
      },
      "t_struct(Tree)46110_storage": {
        "encoding": "inplace",
        "label": "struct MerkleLib.Tree",
        "members": [
          {
            "astId": 46107,
            "contract": "contracts/messaging/Merkle.sol:MerkleTreeManager",
            "label": "branch",
            "offset": 0,
            "slot": "0",
            "type": "t_array(t_bytes32)32_storage"
          },
          {
            "astId": 46109,
            "contract": "contracts/messaging/Merkle.sol:MerkleTreeManager",
            "label": "count",
            "offset": 0,
            "slot": "32",
            "type": "t_uint256"
          }
        ],
        "numberOfBytes": "1056"
      },
      "t_uint256": {
        "encoding": "inplace",
        "label": "uint256",
        "numberOfBytes": "32"
      },
      "t_uint8": {
        "encoding": "inplace",
        "label": "uint8",
        "numberOfBytes": "1"
      }
    }
  }
}