{
  "address": "0xBa2bc477aa0fc88526034E59C5df343965feb633",
  "abi": [
    {
      "inputs": [
        {
          "internalType": "uint32",
          "name": "_domain",
          "type": "uint32"
        },
        {
          "internalType": "uint32",
          "name": "_mirrorDomain",
          "type": "uint32"
        },
        {
          "internalType": "address",
          "name": "_amb",
          "type": "address"
        },
        {
          "internalType": "address",
          "name": "_rootManager",
          "type": "address"
        },
        {
          "internalType": "address",
          "name": "_mirrorConnector",
          "type": "address"
        },
        {
          "internalType": "uint256",
          "name": "_mirrorGas",
          "type": "uint256"
        },
        {
          "internalType": "uint256",
          "name": "_processGas",
          "type": "uint256"
        },
        {
          "internalType": "uint256",
          "name": "_reserveGas",
          "type": "uint256"
        },
        {
          "internalType": "uint256",
          "name": "_delayBlocks",
          "type": "uint256"
        },
        {
          "internalType": "address",
          "name": "_merkle",
          "type": "address"
        },
        {
          "internalType": "address",
          "name": "_watcherManager",
          "type": "address"
        }
      ],
      "stateMutability": "nonpayable",
      "type": "constructor"
    },
    {
      "inputs": [],
      "name": "ProposedOwnable__acceptProposedOwner_delayNotElapsed",
      "type": "error"
    },
    {
      "inputs": [],
      "name": "ProposedOwnable__onlyOwner_notOwner",
      "type": "error"
    },
    {
      "inputs": [],
      "name": "ProposedOwnable__onlyProposed_notProposedOwner",
      "type": "error"
    },
    {
      "inputs": [],
      "name": "ProposedOwnable__proposeNewOwner_invalidProposal",
      "type": "error"
    },
    {
      "inputs": [],
      "name": "ProposedOwnable__proposeNewOwner_noOwnershipChange",
      "type": "error"
    },
    {
      "inputs": [],
      "name": "ProposedOwnable__renounceOwnership_delayNotElapsed",
      "type": "error"
    },
    {
      "inputs": [],
      "name": "ProposedOwnable__renounceOwnership_invalidProposal",
      "type": "error"
    },
    {
      "inputs": [],
      "name": "ProposedOwnable__renounceOwnership_noProposal",
      "type": "error"
    },
    {
      "anonymous": false,
      "inputs": [
        {
          "indexed": false,
          "internalType": "bytes32",
          "name": "root",
          "type": "bytes32"
        }
      ],
      "name": "AggregateRootReceived",
      "type": "event"
    },
    {
      "anonymous": false,
      "inputs": [
        {
          "indexed": false,
          "internalType": "bytes32",
          "name": "root",
          "type": "bytes32"
        }
      ],
      "name": "AggregateRootRemoved",
      "type": "event"
    },
    {
      "anonymous": false,
      "inputs": [
        {
          "indexed": false,
          "internalType": "bytes32",
          "name": "leaf",
          "type": "bytes32"
        },
        {
          "indexed": false,
          "internalType": "uint256",
          "name": "index",
          "type": "uint256"
        },
        {
          "indexed": false,
          "internalType": "bytes32",
          "name": "root",
          "type": "bytes32"
        },
        {
          "indexed": false,
          "internalType": "bytes",
          "name": "message",
          "type": "bytes"
        }
      ],
      "name": "Dispatch",
      "type": "event"
    },
    {
      "anonymous": false,
      "inputs": [
        {
          "indexed": false,
          "internalType": "bytes",
          "name": "data",
          "type": "bytes"
        },
        {
          "indexed": false,
          "internalType": "address",
          "name": "caller",
          "type": "address"
        }
      ],
      "name": "MessageProcessed",
      "type": "event"
    },
    {
      "anonymous": false,
      "inputs": [
        {
          "indexed": false,
          "internalType": "bytes",
          "name": "message",
          "type": "bytes"
        }
      ],
      "name": "MessageSent",
      "type": "event"
    },
    {
      "anonymous": false,
      "inputs": [
        {
          "indexed": false,
          "internalType": "bytes",
          "name": "data",
          "type": "bytes"
        },
        {
          "indexed": false,
          "internalType": "address",
          "name": "caller",
          "type": "address"
        }
      ],
      "name": "MessageSent",
      "type": "event"
    },
    {
      "anonymous": false,
      "inputs": [
        {
          "indexed": false,
          "internalType": "address",
          "name": "previous",
          "type": "address"
        },
        {
          "indexed": false,
          "internalType": "address",
          "name": "current",
          "type": "address"
        }
      ],
      "name": "MirrorConnectorUpdated",
      "type": "event"
    },
    {
      "anonymous": false,
      "inputs": [
        {
          "indexed": false,
          "internalType": "uint256",
          "name": "previous",
          "type": "uint256"
        },
        {
          "indexed": false,
          "internalType": "uint256",
          "name": "current",
          "type": "uint256"
        }
      ],
      "name": "MirrorGasUpdated",
      "type": "event"
    },
    {
      "anonymous": false,
      "inputs": [
        {
          "indexed": true,
          "internalType": "uint32",
          "name": "domain",
          "type": "uint32"
        },
        {
          "indexed": true,
          "internalType": "uint32",
          "name": "mirrorDomain",
          "type": "uint32"
        },
        {
          "indexed": false,
          "internalType": "address",
          "name": "amb",
          "type": "address"
        },
        {
          "indexed": false,
          "internalType": "address",
          "name": "rootManager",
          "type": "address"
        },
        {
          "indexed": false,
          "internalType": "address",
          "name": "mirrorConnector",
          "type": "address"
        }
      ],
      "name": "NewConnector",
      "type": "event"
    },
    {
      "anonymous": false,
      "inputs": [
        {
          "indexed": true,
          "internalType": "address",
          "name": "proposedOwner",
          "type": "address"
        }
      ],
      "name": "OwnershipProposed",
      "type": "event"
    },
    {
      "anonymous": false,
      "inputs": [
        {
          "indexed": true,
          "internalType": "address",
          "name": "previousOwner",
          "type": "address"
        },
        {
          "indexed": true,
          "internalType": "address",
          "name": "newOwner",
          "type": "address"
        }
      ],
      "name": "OwnershipTransferred",
      "type": "event"
    },
    {
      "anonymous": false,
      "inputs": [
        {
          "indexed": false,
          "internalType": "address",
          "name": "account",
          "type": "address"
        }
      ],
      "name": "Paused",
      "type": "event"
    },
    {
      "anonymous": false,
      "inputs": [
        {
          "indexed": false,
          "internalType": "bytes32",
          "name": "leaf",
          "type": "bytes32"
        },
        {
          "indexed": false,
          "internalType": "bool",
          "name": "success",
          "type": "bool"
        },
        {
          "indexed": false,
          "internalType": "bytes",
          "name": "returnData",
          "type": "bytes"
        }
      ],
      "name": "Process",
      "type": "event"
    },
    {
      "anonymous": false,
      "inputs": [
        {
          "indexed": false,
          "internalType": "address",
          "name": "sender",
          "type": "address"
        }
      ],
      "name": "SenderAdded",
      "type": "event"
    },
    {
      "anonymous": false,
      "inputs": [
        {
          "indexed": false,
          "internalType": "address",
          "name": "sender",
          "type": "address"
        }
      ],
      "name": "SenderRemoved",
      "type": "event"
    },
    {
      "anonymous": false,
      "inputs": [
        {
          "indexed": false,
          "internalType": "address",
          "name": "account",
          "type": "address"
        }
      ],
      "name": "Unpaused",
      "type": "event"
    },
    {
      "anonymous": false,
      "inputs": [
        {
          "indexed": false,
          "internalType": "address",
          "name": "watcherManager",
          "type": "address"
        }
      ],
      "name": "WatcherManagerChanged",
      "type": "event"
    },
    {
      "inputs": [],
      "name": "AMB",
      "outputs": [
        {
          "internalType": "address",
          "name": "",
          "type": "address"
        }
      ],
      "stateMutability": "view",
      "type": "function"
    },
    {
      "inputs": [],
      "name": "DOMAIN",
      "outputs": [
        {
          "internalType": "uint32",
          "name": "",
          "type": "uint32"
        }
      ],
      "stateMutability": "view",
      "type": "function"
    },
    {
      "inputs": [],
      "name": "MERKLE",
      "outputs": [
        {
          "internalType": "contract MerkleTreeManager",
          "name": "",
          "type": "address"
        }
      ],
      "stateMutability": "view",
      "type": "function"
    },
    {
      "inputs": [],
      "name": "MIRROR_DOMAIN",
      "outputs": [
        {
          "internalType": "uint32",
          "name": "",
          "type": "uint32"
        }
      ],
      "stateMutability": "view",
      "type": "function"
    },
    {
      "inputs": [],
      "name": "PROCESS_GAS",
      "outputs": [
        {
          "internalType": "uint256",
          "name": "",
          "type": "uint256"
        }
      ],
      "stateMutability": "view",
      "type": "function"
    },
    {
      "inputs": [],
      "name": "RESERVE_GAS",
      "outputs": [
        {
          "internalType": "uint256",
          "name": "",
          "type": "uint256"
        }
      ],
      "stateMutability": "view",
      "type": "function"
    },
    {
      "inputs": [],
      "name": "ROOT_MANAGER",
      "outputs": [
        {
          "internalType": "address",
          "name": "",
          "type": "address"
        }
      ],
      "stateMutability": "view",
      "type": "function"
    },
    {
      "inputs": [],
      "name": "acceptProposedOwner",
      "outputs": [],
      "stateMutability": "nonpayable",
      "type": "function"
    },
    {
      "inputs": [
        {
          "internalType": "address",
          "name": "_sender",
          "type": "address"
        }
      ],
      "name": "addSender",
      "outputs": [],
      "stateMutability": "nonpayable",
      "type": "function"
    },
    {
      "inputs": [],
      "name": "delay",
      "outputs": [
        {
          "internalType": "uint256",
          "name": "",
          "type": "uint256"
        }
      ],
      "stateMutability": "view",
      "type": "function"
    },
    {
      "inputs": [],
      "name": "delayBlocks",
      "outputs": [
        {
          "internalType": "uint256",
          "name": "",
          "type": "uint256"
        }
      ],
      "stateMutability": "view",
      "type": "function"
    },
    {
      "inputs": [
        {
          "internalType": "uint32",
          "name": "_destinationDomain",
          "type": "uint32"
        },
        {
          "internalType": "bytes32",
          "name": "_recipientAddress",
          "type": "bytes32"
        },
        {
          "internalType": "bytes",
          "name": "_messageBody",
          "type": "bytes"
        }
      ],
      "name": "dispatch",
      "outputs": [
        {
          "internalType": "bytes32",
          "name": "",
          "type": "bytes32"
        }
      ],
      "stateMutability": "nonpayable",
      "type": "function"
    },
    {
      "inputs": [],
      "name": "fxChild",
      "outputs": [
        {
          "internalType": "address",
          "name": "",
          "type": "address"
        }
      ],
      "stateMutability": "view",
      "type": "function"
    },
    {
      "inputs": [],
      "name": "fxRootTunnel",
      "outputs": [
        {
          "internalType": "address",
          "name": "",
          "type": "address"
        }
      ],
      "stateMutability": "view",
      "type": "function"
    },
    {
      "inputs": [],
      "name": "home",
      "outputs": [
        {
          "internalType": "contract IOutbox",
          "name": "",
          "type": "address"
        }
      ],
      "stateMutability": "view",
      "type": "function"
    },
    {
      "inputs": [
        {
          "internalType": "address",
          "name": "_potentialReplica",
          "type": "address"
        }
      ],
      "name": "isReplica",
      "outputs": [
        {
          "internalType": "bool",
          "name": "",
          "type": "bool"
        }
      ],
      "stateMutability": "view",
      "type": "function"
    },
    {
      "inputs": [],
      "name": "localDomain",
      "outputs": [
        {
          "internalType": "uint32",
          "name": "",
          "type": "uint32"
        }
      ],
      "stateMutability": "view",
      "type": "function"
    },
    {
      "inputs": [
        {
          "internalType": "bytes32",
          "name": "",
          "type": "bytes32"
        }
      ],
      "name": "messages",
      "outputs": [
        {
          "internalType": "enum SpokeConnector.MessageStatus",
          "name": "",
          "type": "uint8"
        }
      ],
      "stateMutability": "view",
      "type": "function"
    },
    {
      "inputs": [],
      "name": "mirrorConnector",
      "outputs": [
        {
          "internalType": "address",
          "name": "",
          "type": "address"
        }
      ],
      "stateMutability": "view",
      "type": "function"
    },
    {
      "inputs": [],
      "name": "mirrorGas",
      "outputs": [
        {
          "internalType": "uint256",
          "name": "",
          "type": "uint256"
        }
      ],
      "stateMutability": "view",
      "type": "function"
    },
    {
      "inputs": [
        {
          "internalType": "uint32",
          "name": "",
          "type": "uint32"
        }
      ],
      "name": "nonces",
      "outputs": [
        {
          "internalType": "uint32",
          "name": "",
          "type": "uint32"
        }
      ],
      "stateMutability": "view",
      "type": "function"
    },
    {
      "inputs": [],
      "name": "outboundRoot",
      "outputs": [
        {
          "internalType": "bytes32",
          "name": "",
          "type": "bytes32"
        }
      ],
      "stateMutability": "view",
      "type": "function"
    },
    {
      "inputs": [],
      "name": "owner",
      "outputs": [
        {
          "internalType": "address",
          "name": "",
          "type": "address"
        }
      ],
      "stateMutability": "view",
      "type": "function"
    },
    {
      "inputs": [],
      "name": "pause",
      "outputs": [],
      "stateMutability": "nonpayable",
      "type": "function"
    },
    {
      "inputs": [],
      "name": "paused",
      "outputs": [
        {
          "internalType": "bool",
          "name": "",
          "type": "bool"
        }
      ],
      "stateMutability": "view",
      "type": "function"
    },
    {
      "inputs": [
        {
          "internalType": "bytes32",
          "name": "",
          "type": "bytes32"
        }
      ],
      "name": "pendingAggregateRoots",
      "outputs": [
        {
          "internalType": "uint256",
          "name": "",
          "type": "uint256"
        }
      ],
      "stateMutability": "view",
      "type": "function"
    },
    {
      "inputs": [
        {
          "internalType": "bytes",
          "name": "_data",
          "type": "bytes"
        }
      ],
      "name": "processMessage",
      "outputs": [],
      "stateMutability": "nonpayable",
      "type": "function"
    },
    {
      "inputs": [
        {
          "internalType": "uint256",
          "name": "stateId",
          "type": "uint256"
        },
        {
          "internalType": "address",
          "name": "rootMessageSender",
          "type": "address"
        },
        {
          "internalType": "bytes",
          "name": "data",
          "type": "bytes"
        }
      ],
      "name": "processMessageFromRoot",
      "outputs": [],
      "stateMutability": "nonpayable",
      "type": "function"
    },
    {
      "inputs": [
        {
          "internalType": "address",
          "name": "newlyProposed",
          "type": "address"
        }
      ],
      "name": "proposeNewOwner",
      "outputs": [],
      "stateMutability": "nonpayable",
      "type": "function"
    },
    {
      "inputs": [],
      "name": "proposed",
      "outputs": [
        {
          "internalType": "address",
          "name": "",
          "type": "address"
        }
      ],
      "stateMutability": "view",
      "type": "function"
    },
    {
      "inputs": [],
      "name": "proposedTimestamp",
      "outputs": [
        {
          "internalType": "uint256",
          "name": "",
          "type": "uint256"
        }
      ],
      "stateMutability": "view",
      "type": "function"
    },
    {
      "inputs": [
        {
          "components": [
            {
              "internalType": "bytes",
              "name": "message",
              "type": "bytes"
            },
            {
              "internalType": "bytes32[32]",
              "name": "path",
              "type": "bytes32[32]"
            },
            {
              "internalType": "uint256",
              "name": "index",
              "type": "uint256"
            }
          ],
          "internalType": "struct SpokeConnector.Proof[]",
          "name": "_proofs",
          "type": "tuple[]"
        },
        {
          "internalType": "bytes32",
          "name": "_aggregateRoot",
          "type": "bytes32"
        },
        {
          "internalType": "bytes32[32]",
          "name": "_aggregatePath",
          "type": "bytes32[32]"
        },
        {
          "internalType": "uint256",
          "name": "_aggregateIndex",
          "type": "uint256"
        }
      ],
      "name": "proveAndProcess",
      "outputs": [],
      "stateMutability": "nonpayable",
      "type": "function"
    },
    {
      "inputs": [
        {
          "internalType": "bytes32",
          "name": "",
          "type": "bytes32"
        }
      ],
      "name": "provenAggregateRoots",
      "outputs": [
        {
          "internalType": "bool",
          "name": "",
          "type": "bool"
        }
      ],
      "stateMutability": "view",
      "type": "function"
    },
    {
      "inputs": [
        {
          "internalType": "bytes32",
          "name": "",
          "type": "bytes32"
        }
      ],
      "name": "provenMessageRoots",
      "outputs": [
        {
          "internalType": "bool",
          "name": "",
          "type": "bool"
        }
      ],
      "stateMutability": "view",
      "type": "function"
    },
    {
      "inputs": [
        {
          "internalType": "bytes32",
          "name": "_fraudulentRoot",
          "type": "bytes32"
        }
      ],
      "name": "removePendingAggregateRoot",
      "outputs": [],
      "stateMutability": "nonpayable",
      "type": "function"
    },
    {
      "inputs": [
        {
          "internalType": "address",
          "name": "_sender",
          "type": "address"
        }
      ],
      "name": "removeSender",
      "outputs": [],
      "stateMutability": "nonpayable",
      "type": "function"
    },
    {
      "inputs": [],
      "name": "renounceOwnership",
      "outputs": [],
      "stateMutability": "nonpayable",
      "type": "function"
    },
    {
      "inputs": [],
      "name": "renounced",
      "outputs": [
        {
          "internalType": "bool",
          "name": "",
          "type": "bool"
        }
      ],
      "stateMutability": "view",
      "type": "function"
    },
    {
      "inputs": [],
      "name": "send",
      "outputs": [],
      "stateMutability": "nonpayable",
      "type": "function"
    },
    {
      "inputs": [
        {
          "internalType": "uint256",
          "name": "_delayBlocks",
          "type": "uint256"
        }
      ],
      "name": "setDelayBlocks",
      "outputs": [],
      "stateMutability": "nonpayable",
      "type": "function"
    },
    {
      "inputs": [
        {
          "internalType": "address",
          "name": "_fxRootTunnel",
          "type": "address"
        }
      ],
      "name": "setFxRootTunnel",
      "outputs": [],
      "stateMutability": "nonpayable",
      "type": "function"
    },
    {
      "inputs": [
        {
          "internalType": "address",
          "name": "_mirrorConnector",
          "type": "address"
        }
      ],
      "name": "setMirrorConnector",
      "outputs": [],
      "stateMutability": "nonpayable",
      "type": "function"
    },
    {
      "inputs": [
        {
          "internalType": "uint256",
          "name": "_mirrorGas",
          "type": "uint256"
        }
      ],
      "name": "setMirrorGas",
      "outputs": [],
      "stateMutability": "nonpayable",
      "type": "function"
    },
    {
      "inputs": [
        {
          "internalType": "address",
          "name": "_watcherManager",
          "type": "address"
        }
      ],
      "name": "setWatcherManager",
      "outputs": [],
      "stateMutability": "nonpayable",
      "type": "function"
    },
    {
      "inputs": [],
      "name": "unpause",
      "outputs": [],
      "stateMutability": "nonpayable",
      "type": "function"
    },
    {
      "inputs": [
        {
          "internalType": "address",
          "name": "_expected",
          "type": "address"
        }
      ],
      "name": "verifySender",
      "outputs": [
        {
          "internalType": "bool",
          "name": "",
          "type": "bool"
        }
      ],
      "stateMutability": "nonpayable",
      "type": "function"
    },
    {
      "inputs": [
        {
          "internalType": "address",
          "name": "",
          "type": "address"
        }
      ],
      "name": "whitelistedSenders",
      "outputs": [
        {
          "internalType": "bool",
          "name": "",
          "type": "bool"
        }
      ],
      "stateMutability": "view",
      "type": "function"
    }
  ],
  "transactionHash": "0x63bc8d4bc2ba18541be6aa41577d720f230d3caa86f973a9eddcc42a6d18f8c1",
  "args": [
    "9991",
    "1735353714",
    "0xCf73231F28B7331BBe3124B907840A94851f9f11",
    "0xD864761B8480F57E78060485f442A9A51f1DA0d1",
    "0x0000000000000000000000000000000000000000",
    "850000",
    "850000",
    "15000",
    10,
    "0xF0d077704412f6E3C27CA67907839EFF70894933",
    "0x0F4E2866D874B94fc7424d7469deB13C8aE7738F"
  ],
  "numDeployments": 1,
  "solcInputHash": "2cb19c6ff260c62b0df6791111e721e0",
  "bytecode": "0x6101606040523480156200001257600080fd5b5060405162003623380380620036238339810160408190526200003591620004ec565b888b8b828b8b8b8b8b8b8b8b808b8b8b8b8b8b6200005333620002fd565b8563ffffffff166000036200009e5760405162461bcd60e51b815260206004820152600c60248201526b32b6b83a3c903237b6b0b4b760a11b60448201526064015b60405180910390fd5b6001600160a01b038316620000ea5760405162461bcd60e51b815260206004820152601160248201527032b6b83a3c903937b7ba26b0b730b3b2b960791b604482015260640162000095565b63ffffffff8087166080526001600160a01b0380861660a05284811660c05290861660e052821615620001225762000122826200035c565b80156200013457620001348162000380565b604080516001600160a01b0386811682528581166020830152841681830152905163ffffffff87811692908916917f4f9c27c2fe3f84576ea469d367d044da53c45e951617e8389f2b5ed8db9d25f09181900360600190a35050600580546001600160a01b03909616610100026001600160a81b031990961695909517909455505060016006555050620cf850851015620002015760405162461bcd60e51b815260206004820152600c60248201526b2170726f636573732067617360a01b604482015260640162000095565b613a98841015620002445760405162461bcd60e51b815260206004820152600c60248201526b21726573657276652067617360a01b604482015260640162000095565b6101208590526101408490526001600160a01b038216620002975760405162461bcd60e51b815260206004820152600c60248201526b217a65726f206d65726b6c6560a01b604482015260640162000095565b816001600160a01b0316610100816001600160a01b03168152505082600781905550505050505050505050505080600e60006101000a8154816001600160a01b0302191690836001600160a01b03160217905550505050505050505050505050620005ab565b600080546001600160a01b038381166001600160a01b0319808416821785556002859055600180549091169055604051919092169283917f8be0079c531659141344cd1fd0a4f28419497f9722a3daafe3b4186f6b6457e09190a35050565b6200037281620003c160201b620014d31760201c565b6200037d816200042a565b50565b60045460408051918252602082018390527f34b09b90f4cfa8747776f5cffd7d53ce7863a9b1f1fc8121903d22543a256511910160405180910390a1600455565b600354604080516001600160a01b03928316815291831660208301527fc77bec288fc88f168427f2f7da682eadb26cac89d8d591af6e443da98dff2bbc910160405180910390a1600380546001600160a01b0319166001600160a01b0392909216919091179055565b600f546001600160a01b031615620004985760405162461bcd60e51b815260206004820152602a60248201527f4678426173654368696c6454756e6e656c3a20524f4f545f54554e4e454c5f4160448201526913149150511657d4d15560b21b606482015260840162000095565b600f80546001600160a01b0319166001600160a01b0392909216919091179055565b805163ffffffff81168114620004cf57600080fd5b919050565b80516001600160a01b0381168114620004cf57600080fd5b60008060008060008060008060008060006101608c8e0312156200050f57600080fd5b6200051a8c620004ba565b9a506200052a60208d01620004ba565b99506200053a60408d01620004d4565b98506200054a60608d01620004d4565b97506200055a60808d01620004d4565b965060a08c0151955060c08c0151945060e08c015193506101008c01519250620005886101208d01620004d4565b9150620005996101408d01620004d4565b90509295989b509295989b9093969950565b60805160a05160c05160e051610100516101205161014051612fd76200064c600039600081816102f501526118ea0152600081816106b10152818161190b015261199201526000818161059901528181610b300152818161108e01526114040152600061029f0152600061047201526000818161068a01526107b601526000818161042d01528181610503015281816113b501526117ec0152612fd76000f3fe608060405234801561001057600080fd5b50600436106102955760003560e01c80638883709411610167578063b697f531116100ce578063d232c22011610087578063d232c22014610660578063d2a3cc7114610672578063d69f9d6114610685578063d88beda2146106ac578063db1b7659146106d3578063fa31de01146106e657600080fd5b8063b697f531146105f2578063b95a200114610605578063c5b350df1461062b578063cc39428314610633578063cf796c7514610646578063d1851c921461064f57600080fd5b80639fa92f9d116101205780639fa92f9d1461058e578063a01892a514610594578063ad9c0c2e146105bb578063b1f8100d146105c4578063b2f87643146105d7578063b46300ec146105ea57600080fd5b806388837094146104ee5780638d3638f4146105015780638da5cb5b1461052757806398c9f2b9146105385780639a7c4b711461055b5780639d3117c71461056e57600080fd5b80635190bc531161020b5780636a42b8f8116101c45780636a42b8f81461049c5780636b04a933146104a55780636eb67a51146104b8578063715018a6146104cb5780637f1e9cb0146104d35780638456cb59146104e657600080fd5b80635190bc531461040c57806352a9674b146104285780635bd11efc1461044f5780635c975abb146104625780635f61e3ec1461046d57806365eaf11b1461049457600080fd5b8063301f07c31161025d578063301f07c3146103885780633cf52ffb146103ab5780633f4ba83a146103b3578063450d11f0146103bb5780634ff746f6146103e6578063508a109b146103f957600080fd5b8063141684161461029a5780631eeaabea146102db57806325e3beda146102f0578063272efc69146103255780632bbd59ca14610358575b600080fd5b6102c17f000000000000000000000000000000000000000000000000000000000000000081565b60405163ffffffff90911681526020015b60405180910390f35b6102ee6102e9366004612886565b6106f9565b005b6103177f000000000000000000000000000000000000000000000000000000000000000081565b6040519081526020016102d2565b6103486103333660046128bb565b600b6020526000908152604090205460ff1681565b60405190151581526020016102d2565b61037b610366366004612886565b600d6020526000908152604090205460ff1681565b6040516102d291906128ec565b610348610396366004612886565b60096020526000908152604090205460ff1681565b600254610317565b6102ee61076e565b600e546103ce906001600160a01b031681565b6040516001600160a01b0390911681526020016102d2565b6102ee6103f43660046129b7565b6107ab565b6102ee6104073660046129ec565b610848565b61034861041a3660046128bb565b6001600160a01b0316301490565b6102c17f000000000000000000000000000000000000000000000000000000000000000081565b6102ee61045d3660046128bb565b610af5565b60055460ff16610348565b6103ce7f000000000000000000000000000000000000000000000000000000000000000081565b610317610b2c565b62093a80610317565b6102ee6104b3366004612886565b610bb5565b6102ee6104c6366004612886565b610c80565b6102ee610cb4565b600f546103ce906001600160a01b031681565b6102ee610d71565b6102ee6104fc3660046128bb565b610e28565b7f00000000000000000000000000000000000000000000000000000000000000006102c1565b6000546001600160a01b03166103ce565b610348610546366004612886565b600a6020526000908152604090205460ff1681565b6102ee610569366004612a88565b610eb6565b61031761057c366004612886565b60086020526000908152604090205481565b306103ce565b6103ce7f000000000000000000000000000000000000000000000000000000000000000081565b61031760075481565b6102ee6105d23660046128bb565b610f61565b6102ee6105e53660046128bb565b611006565b6102ee611082565b6102ee6106003660046128bb565b61116b565b6102c1610613366004612b23565b600c6020526000908152604090205463ffffffff1681565b6102ee6111ea565b6003546103ce906001600160a01b031681565b61031760045481565b6001546001600160a01b03166103ce565b6000546001600160a01b031615610348565b6102ee6106803660046128bb565b611245565b6103ce7f000000000000000000000000000000000000000000000000000000000000000081565b6103177f000000000000000000000000000000000000000000000000000000000000000081565b6103486106e13660046128bb565b61130c565b6103176106f4366004612b3e565b611316565b6000546001600160a01b03163314610724576040516311a8a1bb60e31b815260040160405180910390fd5b60075481036107695760405162461bcd60e51b815260206004820152600c60248201526b2164656c6179426c6f636b7360a01b60448201526064015b60405180910390fd5b600755565b6000546001600160a01b03163314610799576040516311a8a1bb60e31b815260040160405180910390fd5b6107a161153c565b6107a9611585565b565b336001600160a01b037f0000000000000000000000000000000000000000000000000000000000000000161461080c5760405162461bcd60e51b81526004016107609060208082526004908201526310a0a6a160e11b604082015260600190565b7fb3abc57bfeebd2cac918901db582f71972a8e628bccf19f5ae3e3482b98a5ced813360405161083d929190612bed565b60405180910390a150565b6108506115d7565b836108875760405162461bcd60e51b81526020600482015260076024820152662170726f6f667360c81b6044820152606401610760565b60008585600081811061089c5761089c612c17565b90506020028101906108ae9190612c2d565b6108b89080612c4e565b6040516108c6929190612c9c565b60405180910390209050600061092d82888860008181106108e9576108e9612c17565b90506020028101906108fb9190612c2d565b6020018989600081811061091157610911612c17565b90506020028101906109239190612c2d565b610420013561161d565b905061093b818686866116c2565b6000828152600d60205260409020805460ff191660019081179091555b63ffffffff8116871115610a5f5787878263ffffffff1681811061097e5761097e612c17565b90506020028101906109909190612c2d565b61099a9080612c4e565b6040516109a8929190612c9c565b6040518091039020925060006109fd848a8a8563ffffffff168181106109d0576109d0612c17565b90506020028101906109e29190612c2d565b6020018b8b8663ffffffff1681811061091157610911612c17565b9050828114610a3c5760405162461bcd60e51b815260206004820152600b60248201526a085cda185c9959149bdbdd60aa1b6044820152606401610760565b506000838152600d60205260409020805460ff1916600190811790915501610958565b5060005b63ffffffff8116871115610aeb57610ae288888363ffffffff16818110610a8c57610a8c612c17565b9050602002810190610a9e9190612c2d565b610aa89080612c4e565b8080601f01602080910402602001604051908101604052809392919081815260200183838082843760009201919091525061177e92505050565b50600101610a63565b5050505050505050565b6000546001600160a01b03163314610b20576040516311a8a1bb60e31b815260040160405180910390fd5b610b2981611ac5565b50565b60007f00000000000000000000000000000000000000000000000000000000000000006001600160a01b031663ebf0c7176040518163ffffffff1660e01b8152600401602060405180830381865afa158015610b8c573d6000803e3d6000fd5b505050506040513d601f19601f82011682018060405250810190610bb09190612cac565b905090565b6000546001600160a01b03163314610be0576040516311a8a1bb60e31b815260040160405180910390fd5b610be861153c565b6000818152600860205260408120549003610c3d5760405162461bcd60e51b8152602060048201526015602482015274616767726567617465526f6f74202165786973747360581b6044820152606401610760565b60008181526008602052604080822091909155517ff51534ecf10a58db36ce4f5180f59deddf3b3eb7c5e7454e602c2f80a40cc7399061083d9083815260200190565b6000546001600160a01b03163314610cab576040516311a8a1bb60e31b815260040160405180910390fd5b610b2981611ad7565b6000546001600160a01b03163314610cdf576040516311a8a1bb60e31b815260040160405180910390fd5b600254600003610d0257604051630e4b303f60e21b815260040160405180910390fd5b62093a8060025442610d149190612cdb565b11610d32576040516386d4b3f160e01b815260040160405180910390fd5b6001546001600160a01b031615610d5c576040516323295ef960e01b815260040160405180910390fd5b6001546107a9906001600160a01b0316611b18565b6005546040516384785ecd60e01b81523360048201526101009091046001600160a01b0316906384785ecd90602401602060405180830381865afa158015610dbd573d6000803e3d6000fd5b505050506040513d601f19601f82011682018060405250810190610de19190612cf2565b610e185760405162461bcd60e51b815260206004820152600860248201526710bbb0ba31b432b960c11b6044820152606401610760565b610e206115d7565b6107a9611b77565b600f546001600160a01b031615610e945760405162461bcd60e51b815260206004820152602a60248201527f4678426173654368696c6454756e6e656c3a20524f4f545f54554e4e454c5f4160448201526913149150511657d4d15560b21b6064820152608401610760565b600f80546001600160a01b0319166001600160a01b0392909216919091179055565b600e546001600160a01b03163314610f1a5760405162461bcd60e51b815260206004820152602160248201527f4678426173654368696c6454756e6e656c3a20494e56414c49445f53454e44456044820152602960f91b6064820152608401610760565b610f5b848484848080601f016020809104026020016040519081016040528093929190818152602001838380828437600092019190915250611bb492505050565b50505050565b6000546001600160a01b03163314610f8c576040516311a8a1bb60e31b815260040160405180910390fd5b6001546001600160a01b038281169116148015610fb157506001600160a01b03811615155b15610fcf576040516311bc066560e11b815260040160405180910390fd5b6000546001600160a01b03808316911603610ffd57604051634a2fb73f60e11b815260040160405180910390fd5b610b2981611cf9565b6000546001600160a01b03163314611031576040516311a8a1bb60e31b815260040160405180910390fd5b6001600160a01b0381166000818152600b6020908152604091829020805460ff1916905590519182527f384859c5ef5fafac31e8bc92ce7fb48b1f2c74c4dd5e212eb84ec202fa5d9fad910161083d565b61108a6115d7565b60007f00000000000000000000000000000000000000000000000000000000000000006001600160a01b031663ebf0c7176040518163ffffffff1660e01b8152600401602060405180830381865afa1580156110ea573d6000803e3d6000fd5b505050506040513d601f19601f8201168201806040525081019061110e9190612cac565b60405160200161112091815260200190565b604051602081830303815290604052905061113a81611d47565b7fa69577a1e55dd0712044e7078b408c39fadff8b3e1b334b202ff17e70eda9fdc813360405161083d929190612bed565b6000546001600160a01b03163314611196576040516311a8a1bb60e31b815260040160405180910390fd5b6001600160a01b0381166000818152600b6020908152604091829020805460ff1916600117905590519182527fd65eca5d561d3a4568c87b9b13ced4ab52a69edadfdfdb22d76bc595f36d7d87910161083d565b6001546001600160a01b03163314611215576040516311a7f27160e11b815260040160405180910390fd5b62093a80600254426112279190612cdb565b11610d5c5760405163d39c12bb60e01b815260040160405180910390fd5b6000546001600160a01b03163314611270576040516311a8a1bb60e31b815260040160405180910390fd5b6005546001600160a01b036101009091048116908216036112d35760405162461bcd60e51b815260206004820152601760248201527f616c72656164792077617463686572206d616e616765720000000000000000006044820152606401610760565b6040516001600160a01b03821681527fc16d059e43d7f8e29ccb4e001a2f249d3c59e274925d6a6bc3912943441d9f6c9060200161083d565b6000805b92915050565b336000908152600b602052604081205460ff166113645760405162461bcd60e51b815260206004820152600c60248201526b085dda1a5d195b1a5cdd195960a21b6044820152606401610760565b63ffffffff8085166000908152600c602052604090205416611387816001612d14565b63ffffffff8681166000908152600c60205260408120805463ffffffff1916939092169290921790556113de7f00000000000000000000000000000000000000000000000000000000000000003384898989611d50565b80516020820120604051632d287e4360e01b8152600481018290529192509060009081907f00000000000000000000000000000000000000000000000000000000000000006001600160a01b031690632d287e439060240160408051808303816000875af1158015611454573d6000803e3d6000fd5b505050506040513d601f19601f820116820180604052508101906114789190612d3c565b90925090507f40f08ee347fc927ae45902edc87debb024aab1a311943731968607f603f2152f836114aa600184612cdb565b84876040516114bc9493929190612d60565b60405180910390a1509093505050505b9392505050565b600354604080516001600160a01b03928316815291831660208301527fc77bec288fc88f168427f2f7da682eadb26cac89d8d591af6e443da98dff2bbc910160405180910390a1600380546001600160a01b0319166001600160a01b0392909216919091179055565b60055460ff166107a95760405162461bcd60e51b815260206004820152601460248201527314185d5cd8589b194e881b9bdd081c185d5cd95960621b6044820152606401610760565b61158d61153c565b6005805460ff191690557f5db9ee0a495bf2e6ff9c91a7834c1ba4fdd244a5e8aa4e537bd38aeae4b073aa335b6040516001600160a01b03909116815260200160405180910390a1565b60055460ff16156107a95760405162461bcd60e51b815260206004820152601060248201526f14185d5cd8589b194e881c185d5cd95960821b6044820152606401610760565b6000806000858152600d602052604090205460ff166002811115611643576116436128d6565b146116865760405162461bcd60e51b8152602060048201526013602482015272214d6573736167655374617475732e4e6f6e6560681b6044820152606401610760565b6116ba848460208060200260405190810160405280929190826020800280828437600092019190915250869150611d889050565b949350505050565b6000848152600a602052604090205460ff16610f5b576116e183611e2e565b6000611717858460208060200260405190810160405280929190826020800280828437600092019190915250869150611d889050565b905083811461175e5760405162461bcd60e51b81526020600482015260136024820152721a5b9d985b1a59081a5b989bdd5b99149bdbdd606a1b6044820152606401610760565b506000848152600a60205260409020805460ff1916600117905550505050565b60006002600654036117d25760405162461bcd60e51b815260206004820152601f60248201527f5265656e7472616e637947756172643a207265656e7472616e742063616c6c006044820152606401610760565b600260065560006117e38382611f20565b905063ffffffff7f00000000000000000000000000000000000000000000000000000000000000001661181b62ffffff198316611f44565b63ffffffff161461185d5760405162461bcd60e51b815260206004820152600c60248201526b10b232b9ba34b730ba34b7b760a11b6044820152606401610760565b600061186e62ffffff198316611f59565b905060016000828152600d602052604090205460ff166002811115611895576118956128d6565b146118cc5760405162461bcd60e51b815260206004820152600760248201526610b83937bb32b760c91b6044820152606401610760565b6000818152600d60205260409020805460ff1916600217905561192f7f00000000000000000000000000000000000000000000000000000000000000007f0000000000000000000000000000000000000000000000000000000000000000612d85565b5a10156119675760405162461bcd60e51b8152600401610760906020808252600490820152632167617360e01b604082015260600190565b600061197862ffffff198416611fa2565b6040805161010080825261012082019092529192506000917f00000000000000000000000000000000000000000000000000000000000000009083908360208201818036833701905050905060006119d562ffffff198916611fb3565b6119e462ffffff198a16611fc7565b6119f362ffffff198b16611fdc565b611a10611a0562ffffff198d16611ff1565b62ffffff191661201f565b604051602401611a239493929190612d9d565b60408051601f198184030181529190526020810180516001600160e01b031663ab2dc3f560e01b17815281519192506000918291828a88f198503d945083851115611a6c578394505b848252846000602084013e7fd42de95a9b26f1be134c8ecce389dc4fcfa18753d01661b7b361233569e8fe48878a84604051611aaa93929190612dcc565b60405180910390a15050600160065550949695505050505050565b611ace816114d3565b610b2981610e28565b60045460408051918252602082018390527f34b09b90f4cfa8747776f5cffd7d53ce7863a9b1f1fc8121903d22543a256511910160405180910390a1600455565b600080546001600160a01b038381166001600160a01b0319808416821785556002859055600180549091169055604051919092169283917f8be0079c531659141344cd1fd0a4f28419497f9722a3daafe3b4186f6b6457e09190a35050565b611b7f6115d7565b6005805460ff191660011790557f62e78cea01bee320cd4e420270b5ea74000d11b0c9f74754ebdbfc544b05a2586115ba3390565b600f5482906001600160a01b03808316911614611c275760405162461bcd60e51b815260206004820152602b60248201527f4678426173654368696c6454756e6e656c3a20494e56414c49445f53454e444560448201526a1497d19493d357d493d3d560aa1b6064820152608401610760565b6003546001600160a01b03848116911614611c6e5760405162461bcd60e51b815260206004820152600760248201526610b9b2b73232b960c91b6044820152606401610760565b8151602014611ca95760405162461bcd60e51b8152602060048201526007602482015266042d8cadccee8d60cb1b6044820152606401610760565b611cba611cb583612ded565b612068565b7fb3abc57bfeebd2cac918901db582f71972a8e628bccf19f5ae3e3482b98a5ced8233604051611ceb929190612bed565b60405180910390a150505050565b42600255600180546001600160a01b0319166001600160a01b0383169081179091556040517f6ab4d119f23076e8ad491bc65ce85f017fb0591dce08755ba8591059cc51737a90600090a250565b610b2981612191565b6060868686868686604051602001611d6d96959493929190612e11565b60405160208183030381529060405290509695505050505050565b8260005b6020811015611e2657600183821c166000858360208110611daf57611daf612c17565b6020020151905081600103611def576040805160208101839052908101859052606001604051602081830303815290604052805190602001209350611e1c565b60408051602081018690529081018290526060016040516020818303038152906040528051906020012093505b5050600101611d8c565b509392505050565b60008181526009602052604090205460ff1615611e485750565b60008181526008602052604081205490819003611e9e5760405162461bcd60e51b81526020600482015260146024820152731859d9dc9959d85d19549bdbdd0808595e1a5cdd60621b6044820152606401610760565b600754611eab8243612cdb565b1015611ef95760405162461bcd60e51b815260206004820152601760248201527f616767726567617465526f6f74202176657269666965640000000000000000006044820152606401610760565b506000908152600960209081526040808320805460ff191660011790556008909152812055565b815160009060208401611f3b64ffffffffff851682846121c0565b95945050505050565b600061131062ffffff19831660286004612207565b600080611f6f8360781c6001600160601b031690565b6001600160601b031690506000611f8f8460181c6001600160601b031690565b6001600160601b03169091209392505050565b6000611310611fb083612237565b90565b600061131062ffffff198316826004612207565b600061131062ffffff19831660246004612207565b600061131062ffffff19831660046020612248565b6000611310604c61200f81601886901c6001600160601b0316612cdb565b62ffffff198516919060006123a4565b60606000806120378460181c6001600160601b031690565b6001600160601b031690506040519150819250612057848360200161241e565b508181016020016040529052919050565b806120a65760405162461bcd60e51b815260206004820152600e60248201526d6e657720726f6f7420656d70747960901b6044820152606401610760565b600081815260086020526040902054156120f95760405162461bcd60e51b8152602060048201526014602482015273726f6f7420616c72656164792070656e64696e6760601b6044820152606401610760565b60008181526009602052604090205460ff161561214e5760405162461bcd60e51b81526020600482015260136024820152723937b7ba1030b63932b0b23c90383937bb32b760691b6044820152606401610760565b60008181526008602052604090819020439055517f84ef18531155afdb0e64ff905d67044ae3aac63a6fba4661cfd9c4c14f289bc89061083d9083815260200190565b7f8c5261668696ce22758910d05bab8f186d6eb247ceac2af2e82c7dc17669b0368160405161083d9190612e6b565b6000806121cd8385612d85565b90506040518111156121dd575060005b806000036121f25762ffffff199150506114cc565b5050606092831b9190911790911b1760181b90565b6000612214826020612e7e565b61221f906008612ea1565b60ff1661222d858585612248565b901c949350505050565b600061131062ffffff198316602c60205b60008160ff1660000361225d575060006114cc565b6122708460181c6001600160601b031690565b6001600160601b031661228660ff841685612d85565b11156122ea576122d16122a28560781c6001600160601b031690565b6001600160601b03166122be8660181c6001600160601b031690565b6001600160601b0316858560ff16612575565b60405162461bcd60e51b81526004016107609190612e6b565b60208260ff1611156123645760405162461bcd60e51b815260206004820152603a60248201527f54797065644d656d566965772f696e646578202d20417474656d70746564207460448201527f6f20696e646578206d6f7265207468616e2033322062797465730000000000006064820152608401610760565b60088202600061237d8660781c6001600160601b031690565b6001600160601b031690506000600160ff1b60001984011d91909501511695945050505050565b6000806123ba8660781c6001600160601b031690565b6001600160601b031690506123ce866125e3565b846123d98784612d85565b6123e39190612d85565b11156123f65762ffffff199150506116ba565b6124008582612d85565b90506124148364ffffffffff1682866121c0565b9695505050505050565b600062ffffff19808416036124865760405162461bcd60e51b815260206004820152602860248201527f54797065644d656d566965772f636f7079546f202d204e756c6c20706f696e7460448201526732b9103232b932b360c11b6064820152608401610760565b61248f8361261c565b6124ef5760405162461bcd60e51b815260206004820152602b60248201527f54797065644d656d566965772f636f7079546f202d20496e76616c696420706f60448201526a34b73a32b9103232b932b360a91b6064820152608401610760565b60006125048460181c6001600160601b031690565b6001600160601b0316905060006125248560781c6001600160601b031690565b6001600160601b0316905060006040519050848111156125445760206060fd5b8285848460045afa5061241461255a8760d81c90565b64ffffffffff60601b606091821b168717901b841760181b90565b6060600061258286612659565b915050600061259086612659565b915050600061259e86612659565b91505060006125ac86612659565b915050838383836040516020016125c69493929190612eca565b604051602081830303815290604052945050505050949350505050565b60006125f88260181c6001600160601b031690565b61260b8360781c6001600160601b031690565b016001600160601b03169050919050565b60006126288260d81c90565b64ffffffffff1664ffffffffff0361264257506000919050565b600061264d836125e3565b60405110199392505050565b600080601f5b600f8160ff1611156126ae576000612678826008612ea1565b60ff1685901c905061268981612707565b61ffff16841793508160ff166010146126a457601084901b93505b506000190161265f565b50600f5b60ff8160ff1610156127015760006126cb826008612ea1565b60ff1685901c90506126dc81612707565b61ffff16831792508160ff166000146126f757601083901b92505b50600019016126b2565b50915091565b600061271960048360ff16901c612739565b60ff1661ffff919091161760081b61273082612739565b60ff1617919050565b600060f08083179060ff821690036127545750603092915050565b8060ff1660f1036127685750603192915050565b8060ff1660f20361277c5750603292915050565b8060ff1660f3036127905750603392915050565b8060ff1660f4036127a45750603492915050565b8060ff1660f5036127b85750603592915050565b8060ff1660f6036127cc5750603692915050565b8060ff1660f7036127e05750603792915050565b8060ff1660f8036127f45750603892915050565b8060ff1660f9036128085750603992915050565b8060ff1660fa0361281c5750606192915050565b8060ff1660fb036128305750606292915050565b8060ff1660fc036128445750606392915050565b8060ff1660fd036128585750606492915050565b8060ff1660fe0361286c5750606592915050565b8060ff1660ff036128805750606692915050565b50919050565b60006020828403121561289857600080fd5b5035919050565b80356001600160a01b03811681146128b657600080fd5b919050565b6000602082840312156128cd57600080fd5b6114cc8261289f565b634e487b7160e01b600052602160045260246000fd5b602081016003831061290e57634e487b7160e01b600052602160045260246000fd5b91905290565b634e487b7160e01b600052604160045260246000fd5b600082601f83011261293b57600080fd5b813567ffffffffffffffff8082111561295657612956612914565b604051601f8301601f19908116603f0116810190828211818310171561297e5761297e612914565b8160405283815286602085880101111561299757600080fd5b836020870160208301376000602085830101528094505050505092915050565b6000602082840312156129c957600080fd5b813567ffffffffffffffff8111156129e057600080fd5b6116ba8482850161292a565b60008060008060006104608688031215612a0557600080fd5b853567ffffffffffffffff80821115612a1d57600080fd5b818801915088601f830112612a3157600080fd5b813581811115612a4057600080fd5b8960208260051b8501011115612a5557600080fd5b602092830197509550508601359250610440860187811115612a7657600080fd5b94979396509194604001933592915050565b60008060008060608587031215612a9e57600080fd5b84359350612aae6020860161289f565b9250604085013567ffffffffffffffff80821115612acb57600080fd5b818701915087601f830112612adf57600080fd5b813581811115612aee57600080fd5b886020828501011115612b0057600080fd5b95989497505060200194505050565b803563ffffffff811681146128b657600080fd5b600060208284031215612b3557600080fd5b6114cc82612b0f565b600080600060608486031215612b5357600080fd5b612b5c84612b0f565b925060208401359150604084013567ffffffffffffffff811115612b7f57600080fd5b612b8b8682870161292a565b9150509250925092565b60005b83811015612bb0578181015183820152602001612b98565b83811115610f5b5750506000910152565b60008151808452612bd9816020860160208601612b95565b601f01601f19169290920160200192915050565b604081526000612c006040830185612bc1565b905060018060a01b03831660208301529392505050565b634e487b7160e01b600052603260045260246000fd5b6000823561043e19833603018112612c4457600080fd5b9190910192915050565b6000808335601e19843603018112612c6557600080fd5b83018035915067ffffffffffffffff821115612c8057600080fd5b602001915036819003821315612c9557600080fd5b9250929050565b8183823760009101908152919050565b600060208284031215612cbe57600080fd5b5051919050565b634e487b7160e01b600052601160045260246000fd5b600082821015612ced57612ced612cc5565b500390565b600060208284031215612d0457600080fd5b815180151581146114cc57600080fd5b600063ffffffff808316818516808303821115612d3357612d33612cc5565b01949350505050565b60008060408385031215612d4f57600080fd5b505080516020909101519092909150565b8481528360208201528260408201526080606082015260006124146080830184612bc1565b60008219821115612d9857612d98612cc5565b500190565b600063ffffffff8087168352808616602084015250836040830152608060608301526124146080830184612bc1565b8381528215156020820152606060408201526000611f3b6060830184612bc1565b805160208083015191908110156128805760001960209190910360031b1b16919050565b600063ffffffff60e01b808960e01b168352876004840152808760e01b166024840152808660e01b1660288401525083602c8301528251612e5981604c850160208701612b95565b91909101604c01979650505050505050565b6020815260006114cc6020830184612bc1565b600060ff821660ff841680821015612e9857612e98612cc5565b90039392505050565b600060ff821660ff84168160ff0481118215151615612ec257612ec2612cc5565b029392505050565b7f54797065644d656d566965772f696e646578202d204f76657272616e20746865815274040ecd2caee5c40a6d8d2c6ca40d2e640c2e84060f605b1b60208201526001600160d01b031960d086811b821660358401526e040eed2e8d040d8cadccee8d04060f608b1b603b840181905286821b8316604a8501527f2e20417474656d7074656420746f20696e646578206174206f666673657420306050850152600f60fb1b607085015285821b83166071850152607784015283901b166086820152601760f91b608c8201526000608d820161241456fea264697066735822122085ed0e5b1ce7add8a8272d653fea69d3f68ff1e69b909d0532a60fcd3e81246764736f6c634300080f0033",
  "devdoc": {
    "kind": "dev",
    "methods": {
      "addSender(address)": {
        "details": "Only whitelisted routers (senders) can call `dispatch`."
      },
      "dispatch(uint32,bytes32,bytes)": {
        "details": "The root of this tree will eventually be dispatched to mainnet via `send`. On mainnet (the \"hub\"), it will be combined into a single aggregate root by RootManager (along with outbound roots from other chains). This aggregate root will be redistributed to all destination chains. NOTE: okay to leave dispatch operational when paused as pause is designed for crosschain interactions"
      },
      "home()": {
        "details": "The local inbox contract is a SpokeConnector with AMBs, and a Home contract with nomad",
        "returns": {
          "_0": "The local inbox contract"
        }
      },
      "isReplica(address)": {
        "returns": {
          "_0": "True if _potentialReplica is an enrolled Replica"
        }
      },
      "paused()": {
        "details": "Returns true if the contract is paused, and false otherwise."
      },
      "processMessage(bytes)": {
        "details": "This is called by AMBs to process messages originating from mirror connector"
      },
      "proveAndProcess((bytes,bytes32[32],uint256)[],bytes32,bytes32[32],uint256)": {
        "details": "Currently, ALL messages in a given batch must path to the same shared inboundRoot, meaning they must all share an origin. See open TODO below for a potential solution to enable multi-origin batches.Intended to be called by the relayer at specific intervals during runtime.Will record a calculated root as having been proven if we've already proven that it was included in the aggregateRoot.",
        "params": {
          "_aggregateIndex": "Index of the inbound root in the aggregator's merkle tree in the hub.",
          "_aggregatePath": "Merkle path of inclusion for the inbound root.",
          "_aggregateRoot": "The target aggregate root we want to prove inclusion for. This root must have already been delivered to this spoke connector contract and surpassed the validation period.",
          "_proofs": "Batch of Proofs containing messages for proving/processing."
        }
      },
      "removePendingAggregateRoot(bytes32)": {
        "details": "This method is required for handling fraud cases in the current construction.",
        "params": {
          "_fraudulentRoot": "Target fraudulent root that should be erased from the `pendingAggregateRoots` mapping."
        }
      },
      "removeSender(address)": {
        "details": "Only whitelisted routers (senders) can call `dispatch`."
      },
      "setWatcherManager(address)": {
        "details": "Owner can enroll a watcher (abilities are defined by inheriting contracts)"
      }
    },
    "version": 1
  },
  "userdoc": {
    "events": {
      "MessageProcessed(bytes,address)": {
        "notice": "Emitted whenever a message is successfully received over an AMB"
      },
      "MessageSent(bytes,address)": {
        "notice": "Emitted whenever a message is successfully sent over an AMB"
      }
    },
    "kind": "user",
    "methods": {
      "AMB()": {
        "notice": "Address of the AMB on this domain."
      },
      "DOMAIN()": {
        "notice": "The domain of this Messaging (i.e. Connector) contract."
      },
      "MERKLE()": {
        "notice": "MerkleTreeManager contract instance. Will hold the active tree of message hashes, whose root will be sent crosschain to the hub for aggregation and redistribution."
      },
      "MIRROR_DOMAIN()": {
        "notice": "The domain of the corresponding messaging (i.e. Connector) contract."
      },
      "PROCESS_GAS()": {
        "notice": "Minimum gas for processing a received message (reserved for handle)"
      },
      "RESERVE_GAS()": {
        "notice": "Reserved gas (to ensure tx completes in case message processing runs out)"
      },
      "ROOT_MANAGER()": {
        "notice": "RootManager contract address."
      },
      "acceptProposedOwner()": {
        "notice": "Transfers ownership of the contract to a new account (`newOwner`). Can only be called by the current owner."
      },
      "addSender(address)": {
        "notice": "Adds a sender to the whitelist."
      },
      "delay()": {
        "notice": "Returns the delay period before a new owner can be accepted."
      },
      "delayBlocks()": {
        "notice": "Number of blocks to delay the processing of a message to allow for watchers to verify the validity and pause if necessary."
      },
      "dispatch(uint32,bytes32,bytes)": {
        "notice": "This function adds transfers to the outbound transfer merkle tree."
      },
      "home()": {
        "notice": "Get the local inbox contract from the xAppConnectionManager"
      },
      "isReplica(address)": {
        "notice": "Determine whether _potentialReplica is an enrolled Replica from the xAppConnectionManager"
      },
      "localDomain()": {
        "notice": "This provides the implementation for what is defined in the ConnectorManager to avoid storing the domain redundantly"
      },
      "messages(bytes32)": {
        "notice": "Mapping of message leaves to MessageStatus, keyed on leaf."
      },
      "mirrorConnector()": {
        "notice": "Connector on L2 for L1 connectors, and vice versa."
      },
      "mirrorGas()": {
        "notice": "Gas costs forwarded to the `processMessage` call on the mirror domain"
      },
      "nonces(uint32)": {
        "notice": "domain => next available nonce for the domain."
      },
      "outboundRoot()": {
        "notice": "This returns the root of all messages with the origin domain as this domain (i.e. all outbound messages)"
      },
      "owner()": {
        "notice": "Returns the address of the current owner."
      },
      "pendingAggregateRoots(bytes32)": {
        "notice": "This will hold the commit block for incoming aggregateRoots from the hub chain. Once they are verified, (i.e. have surpassed the verification period in `delayBlocks`) they can be used for proving inclusion of crosschain messages."
      },
      "processMessage(bytes)": {
        "notice": "Processes a message received by an AMB"
      },
      "proposeNewOwner(address)": {
        "notice": "Sets the timestamp for an owner to be proposed, and sets the newly proposed owner as step 1 in a 2-step process"
      },
      "proposed()": {
        "notice": "Returns the address of the proposed owner."
      },
      "proposedTimestamp()": {
        "notice": "Returns the address of the proposed owner."
      },
      "proveAndProcess((bytes,bytes32[32],uint256)[],bytes32,bytes32[32],uint256)": {
        "notice": "Must be able to call the `handle` function on the BridgeRouter contract. This is called on the destination domain to handle incoming messages. Proving: Calculates the expected inbound root from an origin chain given a leaf (message hash), the index of the leaf, and the merkle proof of inclusion (path). Next, we check to ensure that this calculated inbound root is included in the current aggregateRoot, given its index in the aggregator tree and the proof of inclusion. Processing: After all messages have been proven, we dispatch each message to Connext (BridgeRouter) for execution."
      },
      "provenAggregateRoots(bytes32)": {
        "notice": "This tracks the roots of the aggregate tree containing outbound roots from all other supported domains. The current version is the one that is known to be past the delayBlocks time period."
      },
      "provenMessageRoots(bytes32)": {
        "notice": "This tracks whether the root has been proven to exist within the given aggregate root."
      },
      "removePendingAggregateRoot(bytes32)": {
        "notice": "Manually remove a pending aggregateRoot by owner if the contract is paused."
      },
      "removeSender(address)": {
        "notice": "Removes a sender from the whitelist."
      },
      "renounceOwnership()": {
        "notice": "Renounces ownership of the contract after a delay"
      },
      "renounced()": {
        "notice": "Indicates if the ownership has been renounced() by checking if current owner is address(0)"
      },
      "send()": {
        "notice": "This returns the root of all messages with the origin domain as this domain (i.e. all outbound messages)"
      },
      "setDelayBlocks(uint256)": {
        "notice": "Set the `delayBlocks`, the period in blocks over which an incoming message is verified.Set the delayBlocks, in case this needs to be configured later"
      },
      "setMirrorConnector(address)": {
        "notice": "Sets the address of the l2Connector for this domain"
      },
      "setMirrorGas(uint256)": {
        "notice": "Sets the address of the l2Connector for this domain"
      },
      "verifySender(address)": {
        "notice": "Checks the cross domain sender for a given address"
      }
    },
    "version": 1
  },
  "storageLayout": {
    "storage": [
      {
        "astId": 47175,
        "contract": "contracts/messaging/connectors/polygon/PolygonSpokeConnector.sol:PolygonSpokeConnector",
        "label": "_owner",
        "offset": 0,
        "slot": "0",
        "type": "t_address"
      },
      {
        "astId": 47177,
        "contract": "contracts/messaging/connectors/polygon/PolygonSpokeConnector.sol:PolygonSpokeConnector",
        "label": "_proposed",
        "offset": 0,
        "slot": "1",
        "type": "t_address"
      },
      {
        "astId": 47179,
        "contract": "contracts/messaging/connectors/polygon/PolygonSpokeConnector.sol:PolygonSpokeConnector",
        "label": "_proposedOwnershipTimestamp",
        "offset": 0,
        "slot": "2",
        "type": "t_uint256"
      },
      {
        "astId": 37128,
        "contract": "contracts/messaging/connectors/polygon/PolygonSpokeConnector.sol:PolygonSpokeConnector",
        "label": "mirrorConnector",
        "offset": 0,
        "slot": "3",
        "type": "t_address"
      },
      {
        "astId": 37131,
        "contract": "contracts/messaging/connectors/polygon/PolygonSpokeConnector.sol:PolygonSpokeConnector",
        "label": "mirrorGas",
        "offset": 0,
        "slot": "4",
        "type": "t_uint256"
      },
      {
        "astId": 10746,
        "contract": "contracts/messaging/connectors/polygon/PolygonSpokeConnector.sol:PolygonSpokeConnector",
        "label": "_paused",
        "offset": 0,
        "slot": "5",
        "type": "t_bool"
      },
      {
        "astId": 36911,
        "contract": "contracts/messaging/connectors/polygon/PolygonSpokeConnector.sol:PolygonSpokeConnector",
        "label": "watcherManager",
        "offset": 1,
        "slot": "5",
        "type": "t_contract(WatcherManager)37078"
      },
      {
        "astId": 10847,
        "contract": "contracts/messaging/connectors/polygon/PolygonSpokeConnector.sol:PolygonSpokeConnector",
        "label": "_status",
        "offset": 0,
        "slot": "6",
        "type": "t_uint256"
      },
      {
        "astId": 37693,
        "contract": "contracts/messaging/connectors/polygon/PolygonSpokeConnector.sol:PolygonSpokeConnector",
        "label": "delayBlocks",
        "offset": 0,
        "slot": "7",
        "type": "t_uint256"
      },
      {
        "astId": 37708,
        "contract": "contracts/messaging/connectors/polygon/PolygonSpokeConnector.sol:PolygonSpokeConnector",
        "label": "pendingAggregateRoots",
        "offset": 0,
        "slot": "8",
        "type": "t_mapping(t_bytes32,t_uint256)"
      },
      {
        "astId": 37713,
        "contract": "contracts/messaging/connectors/polygon/PolygonSpokeConnector.sol:PolygonSpokeConnector",
        "label": "provenAggregateRoots",
        "offset": 0,
        "slot": "9",
        "type": "t_mapping(t_bytes32,t_bool)"
      },
      {
        "astId": 37718,
        "contract": "contracts/messaging/connectors/polygon/PolygonSpokeConnector.sol:PolygonSpokeConnector",
        "label": "provenMessageRoots",
        "offset": 0,
        "slot": "10",
        "type": "t_mapping(t_bytes32,t_bool)"
      },
      {
        "astId": 37723,
        "contract": "contracts/messaging/connectors/polygon/PolygonSpokeConnector.sol:PolygonSpokeConnector",
        "label": "whitelistedSenders",
        "offset": 0,
        "slot": "11",
        "type": "t_mapping(t_address,t_bool)"
      },
      {
        "astId": 37728,
        "contract": "contracts/messaging/connectors/polygon/PolygonSpokeConnector.sol:PolygonSpokeConnector",
        "label": "nonces",
        "offset": 0,
        "slot": "12",
        "type": "t_mapping(t_uint32,t_uint32)"
      },
      {
        "astId": 37734,
        "contract": "contracts/messaging/connectors/polygon/PolygonSpokeConnector.sol:PolygonSpokeConnector",
        "label": "messages",
        "offset": 0,
        "slot": "13",
        "type": "t_mapping(t_bytes32,t_enum(MessageStatus)37681)"
      },
      {
        "astId": 44404,
        "contract": "contracts/messaging/connectors/polygon/PolygonSpokeConnector.sol:PolygonSpokeConnector",
        "label": "fxChild",
        "offset": 0,
        "slot": "14",
        "type": "t_address"
      },
      {
        "astId": 44406,
        "contract": "contracts/messaging/connectors/polygon/PolygonSpokeConnector.sol:PolygonSpokeConnector",
        "label": "fxRootTunnel",
        "offset": 0,
        "slot": "15",
        "type": "t_address"
      }
    ],
    "types": {
      "t_address": {
        "encoding": "inplace",
        "label": "address",
        "numberOfBytes": "20"
      },
      "t_bool": {
        "encoding": "inplace",
        "label": "bool",
        "numberOfBytes": "1"
      },
      "t_bytes32": {
        "encoding": "inplace",
        "label": "bytes32",
        "numberOfBytes": "32"
      },
      "t_contract(WatcherManager)37078": {
        "encoding": "inplace",
        "label": "contract WatcherManager",
        "numberOfBytes": "20"
      },
      "t_enum(MessageStatus)37681": {
        "encoding": "inplace",
        "label": "enum SpokeConnector.MessageStatus",
        "numberOfBytes": "1"
      },
      "t_mapping(t_address,t_bool)": {
        "encoding": "mapping",
        "key": "t_address",
        "label": "mapping(address => bool)",
        "numberOfBytes": "32",
        "value": "t_bool"
      },
      "t_mapping(t_bytes32,t_bool)": {
        "encoding": "mapping",
        "key": "t_bytes32",
        "label": "mapping(bytes32 => bool)",
        "numberOfBytes": "32",
        "value": "t_bool"
      },
      "t_mapping(t_bytes32,t_enum(MessageStatus)37681)": {
        "encoding": "mapping",
        "key": "t_bytes32",
        "label": "mapping(bytes32 => enum SpokeConnector.MessageStatus)",
        "numberOfBytes": "32",
        "value": "t_enum(MessageStatus)37681"
      },
      "t_mapping(t_bytes32,t_uint256)": {
        "encoding": "mapping",
        "key": "t_bytes32",
        "label": "mapping(bytes32 => uint256)",
        "numberOfBytes": "32",
        "value": "t_uint256"
      },
      "t_mapping(t_uint32,t_uint32)": {
        "encoding": "mapping",
        "key": "t_uint32",
        "label": "mapping(uint32 => uint32)",
        "numberOfBytes": "32",
        "value": "t_uint32"
      },
      "t_uint256": {
        "encoding": "inplace",
        "label": "uint256",
        "numberOfBytes": "32"
      },
      "t_uint32": {
        "encoding": "inplace",
        "label": "uint32",
        "numberOfBytes": "4"
      }
    }
  }
}