{
  "address": "0xcc8F41DDcf1dC9F125226E3eFce05119C1cb29Ec",
  "abi": [
    {
      "inputs": [
        {
          "internalType": "uint32",
          "name": "_domain",
          "type": "uint32"
        },
        {
          "internalType": "uint32",
          "name": "_mirrorDomain",
          "type": "uint32"
        },
        {
          "internalType": "address",
          "name": "_amb",
          "type": "address"
        },
        {
          "internalType": "address",
          "name": "_rootManager",
          "type": "address"
        },
        {
          "internalType": "address",
          "name": "_mirrorConnector",
          "type": "address"
        },
        {
          "internalType": "uint256",
          "name": "_mirrorProcessGas",
          "type": "uint256"
        },
        {
          "internalType": "uint256",
          "name": "_processGas",
          "type": "uint256"
        },
        {
          "internalType": "uint256",
          "name": "_reserveGas",
          "type": "uint256"
        }
      ],
      "stateMutability": "nonpayable",
      "type": "constructor"
    },
    {
      "inputs": [],
      "name": "ProposedOwnable__acceptProposedOwner_delayNotElapsed",
      "type": "error"
    },
    {
      "inputs": [],
      "name": "ProposedOwnable__onlyOwner_notOwner",
      "type": "error"
    },
    {
      "inputs": [],
      "name": "ProposedOwnable__onlyProposed_notProposedOwner",
      "type": "error"
    },
    {
      "inputs": [],
      "name": "ProposedOwnable__proposeNewOwner_invalidProposal",
      "type": "error"
    },
    {
      "inputs": [],
      "name": "ProposedOwnable__proposeNewOwner_noOwnershipChange",
      "type": "error"
    },
    {
      "inputs": [],
      "name": "ProposedOwnable__renounceOwnership_delayNotElapsed",
      "type": "error"
    },
    {
      "inputs": [],
      "name": "ProposedOwnable__renounceOwnership_invalidProposal",
      "type": "error"
    },
    {
      "inputs": [],
      "name": "ProposedOwnable__renounceOwnership_noProposal",
      "type": "error"
    },
    {
      "anonymous": false,
      "inputs": [
        {
          "indexed": false,
          "internalType": "bytes32",
          "name": "current",
          "type": "bytes32"
        },
        {
          "indexed": false,
          "internalType": "bytes32",
          "name": "previous",
          "type": "bytes32"
        }
      ],
      "name": "AggregateRootUpdated",
      "type": "event"
    },
    {
      "anonymous": false,
      "inputs": [
        {
          "indexed": false,
          "internalType": "bytes32",
          "name": "leaf",
          "type": "bytes32"
        },
        {
          "indexed": false,
          "internalType": "uint256",
          "name": "index",
          "type": "uint256"
        },
        {
          "indexed": false,
          "internalType": "bytes32",
          "name": "root",
          "type": "bytes32"
        },
        {
          "indexed": false,
          "internalType": "bytes",
          "name": "message",
          "type": "bytes"
        }
      ],
      "name": "Dispatch",
      "type": "event"
    },
    {
      "anonymous": false,
      "inputs": [
        {
          "indexed": false,
          "internalType": "bytes",
          "name": "data",
          "type": "bytes"
        },
        {
          "indexed": false,
          "internalType": "address",
          "name": "caller",
          "type": "address"
        }
      ],
      "name": "MessageProcessed",
      "type": "event"
    },
    {
      "anonymous": false,
      "inputs": [
        {
          "indexed": false,
          "internalType": "bytes",
          "name": "message",
          "type": "bytes"
        }
      ],
      "name": "MessageSent",
      "type": "event"
    },
    {
      "anonymous": false,
      "inputs": [
        {
          "indexed": false,
          "internalType": "bytes",
          "name": "data",
          "type": "bytes"
        },
        {
          "indexed": false,
          "internalType": "address",
          "name": "caller",
          "type": "address"
        }
      ],
      "name": "MessageSent",
      "type": "event"
    },
    {
      "anonymous": false,
      "inputs": [
        {
          "indexed": false,
          "internalType": "address",
          "name": "previous",
          "type": "address"
        },
        {
          "indexed": false,
          "internalType": "address",
          "name": "current",
          "type": "address"
        }
      ],
      "name": "MirrorConnectorUpdated",
      "type": "event"
    },
    {
      "anonymous": false,
      "inputs": [
        {
          "indexed": true,
          "internalType": "address",
          "name": "proposedOwner",
          "type": "address"
        }
      ],
      "name": "OwnershipProposed",
      "type": "event"
    },
    {
      "anonymous": false,
      "inputs": [
        {
          "indexed": true,
          "internalType": "address",
          "name": "previousOwner",
          "type": "address"
        },
        {
          "indexed": true,
          "internalType": "address",
          "name": "newOwner",
          "type": "address"
        }
      ],
      "name": "OwnershipTransferred",
      "type": "event"
    },
    {
      "anonymous": false,
      "inputs": [
        {
          "indexed": false,
          "internalType": "bytes32",
          "name": "leaf",
          "type": "bytes32"
        },
        {
          "indexed": false,
          "internalType": "bool",
          "name": "success",
          "type": "bool"
        },
        {
          "indexed": false,
          "internalType": "bytes",
          "name": "returnData",
          "type": "bytes"
        }
      ],
      "name": "Process",
      "type": "event"
    },
    {
      "anonymous": false,
      "inputs": [
        {
          "indexed": false,
          "internalType": "address",
          "name": "sender",
          "type": "address"
        }
      ],
      "name": "SenderAdded",
      "type": "event"
    },
    {
      "anonymous": false,
      "inputs": [
        {
          "indexed": false,
          "internalType": "address",
          "name": "sender",
          "type": "address"
        }
      ],
      "name": "SenderRemoved",
      "type": "event"
    },
    {
      "inputs": [],
      "name": "AMB",
      "outputs": [
        {
          "internalType": "address",
          "name": "",
          "type": "address"
        }
      ],
      "stateMutability": "view",
      "type": "function"
    },
    {
      "inputs": [],
      "name": "DOMAIN",
      "outputs": [
        {
          "internalType": "uint32",
          "name": "",
          "type": "uint32"
        }
      ],
      "stateMutability": "view",
      "type": "function"
    },
    {
      "inputs": [],
      "name": "PROCESS_GAS",
      "outputs": [
        {
          "internalType": "uint256",
          "name": "",
          "type": "uint256"
        }
      ],
      "stateMutability": "view",
      "type": "function"
    },
    {
      "inputs": [],
      "name": "RESERVE_GAS",
      "outputs": [
        {
          "internalType": "uint256",
          "name": "",
          "type": "uint256"
        }
      ],
      "stateMutability": "view",
      "type": "function"
    },
    {
      "inputs": [],
      "name": "ROOT_MANAGER",
      "outputs": [
        {
          "internalType": "address",
          "name": "",
          "type": "address"
        }
      ],
      "stateMutability": "view",
      "type": "function"
    },
    {
      "inputs": [],
      "name": "acceptProposedOwner",
      "outputs": [],
      "stateMutability": "nonpayable",
      "type": "function"
    },
    {
      "inputs": [
        {
          "internalType": "address",
          "name": "_sender",
          "type": "address"
        }
      ],
      "name": "addSender",
      "outputs": [],
      "stateMutability": "nonpayable",
      "type": "function"
    },
    {
      "inputs": [],
      "name": "aggregateRoot",
      "outputs": [
        {
          "internalType": "bytes32",
          "name": "",
          "type": "bytes32"
        }
      ],
      "stateMutability": "view",
      "type": "function"
    },
    {
      "inputs": [],
      "name": "count",
      "outputs": [
        {
          "internalType": "uint256",
          "name": "",
          "type": "uint256"
        }
      ],
      "stateMutability": "view",
      "type": "function"
    },
    {
      "inputs": [],
      "name": "delay",
      "outputs": [
        {
          "internalType": "uint256",
          "name": "",
          "type": "uint256"
        }
      ],
      "stateMutability": "view",
      "type": "function"
    },
    {
      "inputs": [
        {
          "internalType": "uint32",
          "name": "_destinationDomain",
          "type": "uint32"
        },
        {
          "internalType": "bytes32",
          "name": "_recipientAddress",
          "type": "bytes32"
        },
        {
          "internalType": "bytes",
          "name": "_messageBody",
          "type": "bytes"
        }
      ],
      "name": "dispatch",
      "outputs": [],
      "stateMutability": "nonpayable",
      "type": "function"
    },
    {
      "inputs": [],
      "name": "domain",
      "outputs": [
        {
          "internalType": "uint32",
          "name": "",
          "type": "uint32"
        }
      ],
      "stateMutability": "view",
      "type": "function"
    },
    {
      "inputs": [],
      "name": "fxChild",
      "outputs": [
        {
          "internalType": "address",
          "name": "",
          "type": "address"
        }
      ],
      "stateMutability": "view",
      "type": "function"
    },
    {
      "inputs": [],
      "name": "fxRootTunnel",
      "outputs": [
        {
          "internalType": "address",
          "name": "",
          "type": "address"
        }
      ],
      "stateMutability": "view",
      "type": "function"
    },
    {
      "inputs": [],
      "name": "home",
      "outputs": [
        {
          "internalType": "contract Connector",
          "name": "",
          "type": "address"
        }
      ],
      "stateMutability": "view",
      "type": "function"
    },
    {
      "inputs": [
        {
          "internalType": "address",
          "name": "_potentialReplica",
          "type": "address"
        }
      ],
      "name": "isReplica",
      "outputs": [
        {
          "internalType": "bool",
          "name": "",
          "type": "bool"
        }
      ],
      "stateMutability": "view",
      "type": "function"
    },
    {
      "inputs": [],
      "name": "localDomain",
      "outputs": [
        {
          "internalType": "uint32",
          "name": "",
          "type": "uint32"
        }
      ],
      "stateMutability": "view",
      "type": "function"
    },
    {
      "inputs": [
        {
          "internalType": "bytes32",
          "name": "",
          "type": "bytes32"
        }
      ],
      "name": "messages",
      "outputs": [
        {
          "internalType": "enum Connector.MessageStatus",
          "name": "",
          "type": "uint8"
        }
      ],
      "stateMutability": "view",
      "type": "function"
    },
    {
      "inputs": [],
      "name": "mirrorConnector",
      "outputs": [
        {
          "internalType": "address",
          "name": "",
          "type": "address"
        }
      ],
      "stateMutability": "view",
      "type": "function"
    },
    {
      "inputs": [],
      "name": "mirrorDomain",
      "outputs": [
        {
          "internalType": "uint32",
          "name": "",
          "type": "uint32"
        }
      ],
      "stateMutability": "view",
      "type": "function"
    },
    {
      "inputs": [],
      "name": "mirrorProcessGas",
      "outputs": [
        {
          "internalType": "uint256",
          "name": "",
          "type": "uint256"
        }
      ],
      "stateMutability": "view",
      "type": "function"
    },
    {
      "inputs": [
        {
          "internalType": "uint32",
          "name": "",
          "type": "uint32"
        }
      ],
      "name": "nonces",
      "outputs": [
        {
          "internalType": "uint32",
          "name": "",
          "type": "uint32"
        }
      ],
      "stateMutability": "view",
      "type": "function"
    },
    {
      "inputs": [],
      "name": "outboundRoot",
      "outputs": [
        {
          "internalType": "bytes32",
          "name": "",
          "type": "bytes32"
        }
      ],
      "stateMutability": "view",
      "type": "function"
    },
    {
      "inputs": [],
      "name": "owner",
      "outputs": [
        {
          "internalType": "address",
          "name": "",
          "type": "address"
        }
      ],
      "stateMutability": "view",
      "type": "function"
    },
    {
      "inputs": [
        {
          "internalType": "bytes",
          "name": "_data",
          "type": "bytes"
        }
      ],
      "name": "processMessage",
      "outputs": [],
      "stateMutability": "nonpayable",
      "type": "function"
    },
    {
      "inputs": [
        {
          "internalType": "uint256",
          "name": "stateId",
          "type": "uint256"
        },
        {
          "internalType": "address",
          "name": "rootMessageSender",
          "type": "address"
        },
        {
          "internalType": "bytes",
          "name": "data",
          "type": "bytes"
        }
      ],
      "name": "processMessageFromRoot",
      "outputs": [],
      "stateMutability": "nonpayable",
      "type": "function"
    },
    {
      "inputs": [
        {
          "internalType": "address",
          "name": "newlyProposed",
          "type": "address"
        }
      ],
      "name": "proposeNewOwner",
      "outputs": [],
      "stateMutability": "nonpayable",
      "type": "function"
    },
    {
      "inputs": [],
      "name": "proposed",
      "outputs": [
        {
          "internalType": "address",
          "name": "",
          "type": "address"
        }
      ],
      "stateMutability": "view",
      "type": "function"
    },
    {
      "inputs": [],
      "name": "proposedTimestamp",
      "outputs": [
        {
          "internalType": "uint256",
          "name": "",
          "type": "uint256"
        }
      ],
      "stateMutability": "view",
      "type": "function"
    },
    {
      "inputs": [
        {
          "internalType": "bytes",
          "name": "_message",
          "type": "bytes"
        },
        {
          "internalType": "bytes32[32]",
          "name": "_proof",
          "type": "bytes32[32]"
        },
        {
          "internalType": "uint256",
          "name": "_index",
          "type": "uint256"
        }
      ],
      "name": "proveAndProcess",
      "outputs": [],
      "stateMutability": "nonpayable",
      "type": "function"
    },
    {
      "inputs": [
        {
          "internalType": "bytes32",
          "name": "",
          "type": "bytes32"
        }
      ],
      "name": "provenRoots",
      "outputs": [
        {
          "internalType": "bool",
          "name": "",
          "type": "bool"
        }
      ],
      "stateMutability": "view",
      "type": "function"
    },
    {
      "inputs": [
        {
          "internalType": "address",
          "name": "_sender",
          "type": "address"
        }
      ],
      "name": "removeSender",
      "outputs": [],
      "stateMutability": "nonpayable",
      "type": "function"
    },
    {
      "inputs": [],
      "name": "renounceOwnership",
      "outputs": [],
      "stateMutability": "nonpayable",
      "type": "function"
    },
    {
      "inputs": [],
      "name": "renounced",
      "outputs": [
        {
          "internalType": "bool",
          "name": "",
          "type": "bool"
        }
      ],
      "stateMutability": "view",
      "type": "function"
    },
    {
      "inputs": [],
      "name": "root",
      "outputs": [
        {
          "internalType": "bytes32",
          "name": "",
          "type": "bytes32"
        }
      ],
      "stateMutability": "view",
      "type": "function"
    },
    {
      "inputs": [],
      "name": "send",
      "outputs": [],
      "stateMutability": "nonpayable",
      "type": "function"
    },
    {
      "inputs": [
        {
          "internalType": "bytes",
          "name": "_data",
          "type": "bytes"
        }
      ],
      "name": "sendMessage",
      "outputs": [],
      "stateMutability": "nonpayable",
      "type": "function"
    },
    {
      "inputs": [
        {
          "internalType": "address",
          "name": "_fxRootTunnel",
          "type": "address"
        }
      ],
      "name": "setFxRootTunnel",
      "outputs": [],
      "stateMutability": "nonpayable",
      "type": "function"
    },
    {
      "inputs": [
        {
          "internalType": "address",
          "name": "_mirrorConnector",
          "type": "address"
        }
      ],
      "name": "setMirrorConnector",
      "outputs": [],
      "stateMutability": "nonpayable",
      "type": "function"
    },
    {
      "inputs": [],
      "name": "tree",
      "outputs": [
        {
          "internalType": "uint256",
          "name": "count",
          "type": "uint256"
        }
      ],
      "stateMutability": "view",
      "type": "function"
    },
    {
      "inputs": [
        {
          "internalType": "address",
          "name": "_expected",
          "type": "address"
        }
      ],
      "name": "verifySender",
      "outputs": [
        {
          "internalType": "bool",
          "name": "",
          "type": "bool"
        }
      ],
      "stateMutability": "nonpayable",
      "type": "function"
    },
    {
      "inputs": [
        {
          "internalType": "address",
          "name": "",
          "type": "address"
        }
      ],
      "name": "whitelistedSenders",
      "outputs": [
        {
          "internalType": "bool",
          "name": "",
          "type": "bool"
        }
      ],
      "stateMutability": "view",
      "type": "function"
    }
  ],
  "transactionHash": "0x90e1e10ea375e811e3a327f1a6158154a1fb37022add14fa7803ed2440e0de29",
  "args": [
    "9991",
    "1735353714",
    "0xCf73231F28B7331BBe3124B907840A94851f9f11",
    "0x65815676Ef7419C6F79024C2322ca224f1C84d8f",
    "0x0000000000000000000000000000000000000000",
    "850000",
    "850000",
    "15000"
  ],
  "numDeployments": 1,
  "solcInputHash": "139f6a212a299a89eb3a6a1d185e8514",
  "bytecode": "0x6101606040523480156200001257600080fd5b5060405162002e1938038062002e198339810160408190526200003591620002b7565b858888888888888888878063ffffffff16600003620000855760405162461bcd60e51b815260206004820152600760248201526610b237b6b0b4b760c91b60448201526064015b60405180910390fd5b63ffffffff9081166080528816620000ca5760405162461bcd60e51b815260206004820152600760248201526610b237b6b0b4b760c91b60448201526064016200007c565b6001600160a01b038516620001115760405162461bcd60e51b815260206004820152600c60248201526b10b937b7ba26b0b730b3b2b960a11b60448201526064016200007c565b6200011c3362000226565b63ffffffff88811660a0526001600160a01b0387811660c05286811660e05290881661010052602480546001600160a01b0319169186169190911790556025839055620cf850821015620001a25760405162461bcd60e51b815260206004820152600c60248201526b2170726f636573732067617360a01b60448201526064016200007c565b613a98811015620001e55760405162461bcd60e51b815260206004820152600c60248201526b21726573657276652067617360a01b60448201526064016200007c565b61012091909152610140525050602c80546001600160a01b0319166001600160a01b03969096169590951790945550620003449a5050505050505050505050565b600080546001600160a01b038381166001600160a01b0319808416821785556002859055600180549091169055604051919092169283917f8be0079c531659141344cd1fd0a4f28419497f9722a3daafe3b4186f6b6457e09190a35050565b805163ffffffff811681146200029a57600080fd5b919050565b80516001600160a01b03811681146200029a57600080fd5b600080600080600080600080610100898b031215620002d557600080fd5b620002e08962000285565b9750620002f060208a0162000285565b96506200030060408a016200029f565b95506200031060608a016200029f565b94506200032060808a016200029f565b935060a0890151925060c0890151915060e089015190509295985092959890939650565b60805160a05160c05160e051610100516101205161014051612a42620003d76000396000818161027f0152610eca0152600081816105bc01528181610eeb0152610f7201526000610312015260006103ec0152600081816105950152818161118501526112830152600081816103b201528181610c840152610dcc01526000818161047601526105300152612a426000f3fe608060405234801561001057600080fd5b506004361061025e5760003560e01c80638da5cb5b11610146578063cc394283116100c3578063db1b765911610087578063db1b7659146105de578063ebf0c717146105f1578063ee250e06146105f9578063f38a267b14610602578063fa31de0114610625578063fd54b2281461063857600080fd5b8063cc3942831461055a578063d1851c921461056d578063d232c2201461057e578063d69f9d6114610590578063d88beda2146105b757600080fd5b8063b46300ec1161010a578063b46300ec146104ea578063b697f531146104f2578063b95a200114610505578063c2fb26a61461052b578063c5b350df1461055257600080fd5b80638da5cb5b1461049a5780639a7c4b71146104ab5780639fa92f9d146104be578063b1f8100d146104c4578063b2f87643146104d757600080fd5b806352a9674b116101df5780636a42b8f8116101a35780636a42b8f81461042a578063715018a6146104335780637f1e9cb01461043b57806382646a581461044e57806388837094146104615780638d3638f41461047457600080fd5b806352a9674b146103ad5780635bd11efc146103d45780635f61e3ec146103e75780636188af0e1461040e57806365eaf11b1461042157600080fd5b80633490334a116102265780633490334a1461030d5780633cf52ffb14610349578063450d11f0146103515780634ff746f61461037c5780635190bc531461039157600080fd5b806306661abd1461026357806325e3beda1461027a578063272efc69146102a157806329460bd0146102d45780632bbd59ca146102dd575b600080fd5b6023545b6040519081526020015b60405180910390f35b6102677f000000000000000000000000000000000000000000000000000000000000000081565b6102c46102af3660046122ee565b60296020526000908152604090205460ff1681565b6040519015158152602001610271565b61026760255481565b6103006102eb366004612309565b602b6020526000908152604090205460ff1681565b6040516102719190612338565b6103347f000000000000000000000000000000000000000000000000000000000000000081565b60405163ffffffff9091168152602001610271565b600254610267565b602c54610364906001600160a01b031681565b6040516001600160a01b039091168152602001610271565b61038f61038a366004612403565b610642565b005b6102c461039f3660046122ee565b6001600160a01b0316301490565b6103347f000000000000000000000000000000000000000000000000000000000000000081565b61038f6103e23660046122ee565b61067e565b6103647f000000000000000000000000000000000000000000000000000000000000000081565b61038f61041c366004612438565b610712565b61026760275481565b62093a80610267565b61038f61076d565b602d54610364906001600160a01b031681565b61038f61045c366004612403565b61082c565b61038f61046f3660046122ee565b610866565b7f0000000000000000000000000000000000000000000000000000000000000000610334565b6000546001600160a01b0316610364565b61038f6104b9366004612498565b6108f4565b30610364565b61038f6104d23660046122ee565b610999565b61038f6104e53660046122ee565b610a41565b61038f610abd565b61038f6105003660046122ee565b610ae9565b610334610513366004612533565b602a6020526000908152604090205463ffffffff1681565b6103347f000000000000000000000000000000000000000000000000000000000000000081565b61038f610b68565b602454610364906001600160a01b031681565b6001546001600160a01b0316610364565b6000546001600160a01b0316156102c4565b6103647f000000000000000000000000000000000000000000000000000000000000000081565b6102677f000000000000000000000000000000000000000000000000000000000000000081565b6102c46105ec3660046122ee565b610bc3565b610267610bd4565b61026760265481565b6102c4610610366004612309565b60286020526000908152604090205460ff1681565b61038f61063336600461254e565b610be5565b6023546102679081565b7fb3abc57bfeebd2cac918901db582f71972a8e628bccf19f5ae3e3482b98a5ced81336040516106739291906125fd565b60405180910390a150565b6000546001600160a01b031633146106a9576040516311a8a1bb60e31b815260040160405180910390fd5b602454604080516001600160a01b03928316815291831660208301527fc77bec288fc88f168427f2f7da682eadb26cac89d8d591af6e443da98dff2bbc910160405180910390a1602480546001600160a01b0319166001600160a01b0392909216919091179055565b61072483805190602001208383610d28565b61075e5760405162461bcd60e51b81526020600482015260066024820152652170726f766560d01b60448201526064015b60405180910390fd5b61076783610db6565b50505050565b6000546001600160a01b03163314610798576040516311a8a1bb60e31b815260040160405180910390fd5b6002546000036107bb57604051630e4b303f60e21b815260040160405180910390fd5b62093a80600254426107cd919061263d565b116107eb576040516386d4b3f160e01b815260040160405180910390fd5b6001546001600160a01b031615610815576040516323295ef960e01b815260040160405180910390fd5b60015461082a906001600160a01b031661109f565b565b610835816110fe565b7fa69577a1e55dd0712044e7078b408c39fadff8b3e1b334b202ff17e70eda9fdc81336040516106739291906125fd565b602d546001600160a01b0316156108d25760405162461bcd60e51b815260206004820152602a60248201527f4678426173654368696c6454756e6e656c3a20524f4f545f54554e4e454c5f4160448201526913149150511657d4d15560b21b6064820152608401610755565b602d80546001600160a01b0319166001600160a01b0392909216919091179055565b602c546001600160a01b031633146109585760405162461bcd60e51b815260206004820152602160248201527f4678426173654368696c6454756e6e656c3a20494e56414c49445f53454e44456044820152602960f91b6064820152608401610755565b610767848484848080601f01602080910402602001604051908101604052809392919081815260200183838082843760009201919091525061110792505050565b6000546001600160a01b031633146109c4576040516311a8a1bb60e31b815260040160405180910390fd5b6001546001600160a01b0382811691161480156109e957506001600160a01b03811615155b15610a07576040516311bc066560e11b815260040160405180910390fd5b6000546001600160a01b03808316911603610a3557604051634a2fb73f60e11b815260040160405180910390fd5b610a3e81611228565b50565b6000546001600160a01b03163314610a6c576040516311a8a1bb60e31b815260040160405180910390fd5b6001600160a01b038116600081815260296020908152604091829020805460ff1916905590519182527f384859c5ef5fafac31e8bc92ce7fb48b1f2c74c4dd5e212eb84ec202fa5d9fad9101610673565b61082a602754604051602001610ad591815260200190565b6040516020818303038152906040526110fe565b6000546001600160a01b03163314610b14576040516311a8a1bb60e31b815260040160405180910390fd5b6001600160a01b038116600081815260296020908152604091829020805460ff1916600117905590519182527fd65eca5d561d3a4568c87b9b13ced4ab52a69edadfdfdb22d76bc595f36d7d879101610673565b6001546001600160a01b03163314610b93576040516311a7f27160e11b815260040160405180910390fd5b62093a8060025442610ba5919061263d565b116108155760405163d39c12bb60e01b815260040160405180910390fd5b6000610bce82611276565b92915050565b6000610be060036112e2565b905090565b3360009081526029602052604090205460ff16610c335760405162461bcd60e51b815260206004820152600c60248201526b085dda1a5d195b1a5cdd195960a21b6044820152606401610755565b63ffffffff8084166000908152602a602052604090205416610c56816001612654565b63ffffffff8581166000908152602a60205260408120805463ffffffff191693909216929092179055610cad7f000000000000000000000000000000000000000000000000000000000000000033848888886112f5565b80516020820120909150610cc260038261132d565b610cca610bd4565b6027557f40f08ee347fc927ae45902edc87debb024aab1a311943731968607f603f2152f816001610cfa60235490565b610d04919061263d565b60275485604051610d18949392919061267c565b60405180910390a1505050505050565b6000806000858152602b602052604090205460ff166002811115610d4e57610d4e612322565b14610d915760405162461bcd60e51b8152602060048201526013602482015272214d6573736167655374617475732e4e6f6e6560681b6044820152606401610755565b506000838152602b60205260409020805460ff191660019081179091555b9392505050565b600080610dc3838261144a565b905063ffffffff7f000000000000000000000000000000000000000000000000000000000000000016610dfb62ffffff19831661146e565b63ffffffff1614610e3d5760405162461bcd60e51b815260206004820152600c60248201526b10b232b9ba34b730ba34b7b760a11b6044820152606401610755565b6000610e4e62ffffff198316611483565b905060016000828152602b602052604090205460ff166002811115610e7557610e75612322565b14610eac5760405162461bcd60e51b815260206004820152600760248201526610b83937bb32b760c91b6044820152606401610755565b6000818152602b60205260409020805460ff19166002179055610f0f7f00000000000000000000000000000000000000000000000000000000000000007f00000000000000000000000000000000000000000000000000000000000000006126a1565b5a1015610f475760405162461bcd60e51b8152600401610755906020808252600490820152632167617360e01b604082015260600190565b6000610f5862ffffff1984166114cc565b6040805161010080825261012082019092529192506000917f0000000000000000000000000000000000000000000000000000000000000000908390836020820181803683370190505090506000610fb562ffffff1989166114dd565b610fc462ffffff198a166114f1565b610fd362ffffff198b16611506565b610ff0610fe562ffffff198d1661151b565b62ffffff1916611549565b60405160240161100394939291906126b9565b60408051601f198184030181529190526020810180516001600160e01b031663ab2dc3f560e01b17815281519192506000918291828a88f198503d94508385111561104c578394505b848252846000602084013e7fd42de95a9b26f1be134c8ecce389dc4fcfa18753d01661b7b361233569e8fe48878a8460405161108a939291906126e8565b60405180910390a15050505050505050919050565b600080546001600160a01b038381166001600160a01b0319808416821785556002859055600180549091169055604051919092169283917f8be0079c531659141344cd1fd0a4f28419497f9722a3daafe3b4186f6b6457e09190a35050565b610a3e81611592565b602d5482906001600160a01b0380831691161461117a5760405162461bcd60e51b815260206004820152602b60248201527f4678426173654368696c6454756e6e656c3a20494e56414c49445f53454e444560448201526a1497d19493d357d493d3d560aa1b6064820152608401610755565b336001600160a01b037f000000000000000000000000000000000000000000000000000000000000000016146111dc5760405162461bcd60e51b81526020600482015260076024820152662162726964676560c81b6044820152606401610755565b81516020146112175760405162461bcd60e51b8152602060048201526007602482015266042d8cadccee8d60cb1b6044820152606401610755565b61076761122383612709565b6115c1565b42600255600180546001600160a01b0319166001600160a01b0383169081179091556040517f6ab4d119f23076e8ad491bc65ce85f017fb0591dce08755ba8591059cc51737a90600090a250565b6000336001600160a01b037f000000000000000000000000000000000000000000000000000000000000000016146112da5760405162461bcd60e51b81526020600482015260076024820152662162726964676560c81b6044820152606401610755565b506001919050565b6000610bce826112f061164e565b611b0f565b60608686868686866040516020016113129695949392919061272d565b60405160208183030381529060405290509695505050505050565b600161133b6020600261286b565b611345919061263d565b82602001541061138a5760405162461bcd60e51b815260206004820152601060248201526f1b595c9adb19481d1c995948199d5b1b60821b6044820152606401610755565b600182602001600082825461139f91906126a1565b9091555050602082015460005b602081101561143c57816001166001036113db57828482602081106113d3576113d3612877565b015550505050565b8381602081106113ed576113ed612877565b01546040805160208101929092528101849052606001604051602081830303815290604052805190602001209250600282611428919061288d565b915080611434816128af565b9150506113ac565b506114456128c8565b505050565b81516000906020840161146564ffffffffff85168284611be1565b95945050505050565b6000610bce62ffffff19831660286004611c28565b6000806114998360781c6001600160601b031690565b6001600160601b0316905060006114b98460181c6001600160601b031690565b6001600160601b03169091209392505050565b6000610bce6114da83611c58565b90565b6000610bce62ffffff198316826004611c28565b6000610bce62ffffff19831660246004611c28565b6000610bce62ffffff19831660046020611c69565b6000610bce604c61153981601886901c6001600160601b031661263d565b62ffffff19851691906000611dc5565b60606000806115618460181c6001600160601b031690565b6001600160601b0316905060405191508192506115818483602001611e41565b508181016020016040529052919050565b7f8c5261668696ce22758910d05bab8f186d6eb247ceac2af2e82c7dc17669b0368160405161067391906128de565b6024546115d6906001600160a01b0316611276565b61160c5760405162461bcd60e51b815260206004820152600760248201526610b9b2b73232b960c91b6044820152606401610755565b6026546040805183815260208101929092527fd93b9a9123395d96a15a0cff10295f286f99a0962c9adb978bad3ab6aaea7213910160405180910390a1602655565b6116566122b3565b600081527fad3228b676f7d3cd4284a5443f17f1962b36e491b30a40b2405849e597ba5fb560208201527fb4c11951957c6f8f642c4af61cd6b24640fec6dc7fc607ee8206a99e92410d3060408201527f21ddb9a356815c3fac1026b6dec5df3124afbadb485c9ba5a3e3398a04b7ba8560608201527fe58769b32a1beaf1ea27375a44095a0d1fb664ce2dd358e7fcbfb78c26a1934460808201527f0eb01ebfc9ed27500cd4dfc979272d1f0913cc9f66540d7e8005811109e1cf2d60a08201527f887c22bd8750d34016ac3c66b5ff102dacdd73f6b014e710b51e8022af9a196860c08201527fffd70157e48063fc33c97a050f7f640233bf646cc98d9524c6b92bcf3ab56f8360e08201527f9867cc5f7f196b93bae1e27e6320742445d290f2263827498b54fec539f756af6101008201527fcefad4e508c098b9a7e1d8feb19955fb02ba9675585078710969d3440f5054e06101208201527ff9dc3e7fe016e050eff260334f18a5d4fe391d82092319f5964f2e2eb7c1c3a56101408201527ff8b13a49e282f609c317a833fb8d976d11517c571d1221a265d25af778ecf8926101608201527f3490c6ceeb450aecdc82e28293031d10c7d73bf85e57bf041a97360aa2c5d99c6101808201527fc1df82d9c4b87413eae2ef048f94b4d3554cea73d92b0f7af96e0271c691e2bb6101a08201527f5c67add7c6caf302256adedf7ab114da0acfe870d449a3a489f781d659e8becc6101c08201527fda7bce9f4e8618b6bd2f4132ce798cdc7a60e7e1460a7299e3c6342a579626d26101e08201527f2733e50f526ec2fa19a22b31e8ed50f23cd1fdf94c9154ed3a7609a2f1ff981f6102008201527fe1d3b5c807b281e4683cc6d6315cf95b9ade8641defcb32372f1c126e398ef7a6102208201527f5a2dce0a8a7f68bb74560f8f71837c2c2ebbcbf7fffb42ae1896f13f7c7479a06102408201527fb46a28b6f55540f89444f63de0378e3d121be09e06cc9ded1c20e65876d36aa06102608201527fc65e9645644786b620e2dd2ad648ddfcbf4a7e5b1a3a4ecfe7f64667a3f0b7e26102808201527ff4418588ed35a2458cffeb39b93d26f18d2ab13bdce6aee58e7b99359ec2dfd96102a08201527f5a9c16dc00d6ef18b7933a6f8dc65ccb55667138776f7dea101070dc8796e3776102c08201527f4df84f40ae0c8229d0d6069e5c8f39a7c299677a09d367fc7b05e3bc380ee6526102e08201527fcdc72595f74c7b1043d0e1ffbab734648c838dfb0527d971b602bc216c9619ef6103008201527f0abf5ac974a1ed57f4050aa510dd9c74f508277b39d7973bb2dfccc5eeb0618d6103208201527fb8cd74046ff337f0a7bf2c8e03e10f642c1886798d71806ab1e888d9e5ee87d06103408201527f838c5655cb21c6cb83313b5a631175dff4963772cce9108188b34ac87c81c41e6103608201527f662ee4dd2dd7b2bc707961b1e646c4047669dcb6584f0d8d770daf5d7e7deb2e6103808201527f388ab20e2573d171a88108e79d820e98f26c0b84aa8b2f4aa4968dbb818ea3226103a08201527f93237c50ba75ee485f4c22adf2f741400bdf8d6a9cc7df7ecae576221665d7356103c08201527f8448818bb4ae4562849e949e17ac16e0be16688e156b5cf15e098c627c0056a96103e082015290565b6020820154600090815b6020811015611bd957600182821c166000868360208110611b3c57611b3c612877565b0154905081600103611b79576040805160208101839052908101869052606001604051602081830303815290604052805190602001209450611bc4565b84868460208110611b8c57611b8c612877565b6020020151604051602001611bab929190918252602082015260400190565b6040516020818303038152906040528051906020012094505b50508080611bd1906128af565b915050611b19565b505092915050565b600080611bee83856126a1565b9050604051811115611bfe575060005b80600003611c135762ffffff19915050610daf565b5050606092831b9190911790911b1760181b90565b6000611c358260206128f1565b611c40906008612914565b60ff16611c4e858585611c69565b901c949350505050565b6000610bce62ffffff198316602c60205b60008160ff16600003611c7e57506000610daf565b611c918460181c6001600160601b031690565b6001600160601b0316611ca760ff8416856126a1565b1115611d0b57611cf2611cc38560781c6001600160601b031690565b6001600160601b0316611cdf8660181c6001600160601b031690565b6001600160601b0316858560ff16611fa2565b60405162461bcd60e51b815260040161075591906128de565b60208260ff161115611d855760405162461bcd60e51b815260206004820152603a60248201527f54797065644d656d566965772f696e646578202d20417474656d70746564207460448201527f6f20696e646578206d6f7265207468616e2033322062797465730000000000006064820152608401610755565b600882026000611d9e8660781c6001600160601b031690565b6001600160601b031690506000600160ff1b60001984011d91909501511695945050505050565b600080611ddb8660781c6001600160601b031690565b6001600160601b03169050611def86612010565b84611dfa87846126a1565b611e0491906126a1565b1115611e175762ffffff19915050611e39565b611e2185826126a1565b9050611e358364ffffffffff168286611be1565b9150505b949350505050565b600062ffffff1980841603611ea95760405162461bcd60e51b815260206004820152602860248201527f54797065644d656d566965772f636f7079546f202d204e756c6c20706f696e7460448201526732b9103232b932b360c11b6064820152608401610755565b611eb283612049565b611f125760405162461bcd60e51b815260206004820152602b60248201527f54797065644d656d566965772f636f7079546f202d20496e76616c696420706f60448201526a34b73a32b9103232b932b360a91b6064820152608401610755565b6000611f278460181c6001600160601b031690565b6001600160601b031690506000611f478560781c6001600160601b031690565b6001600160601b031690506000604051905084811115611f675760206060fd5b8285848460045afa50611f98611f7d8760d81c90565b64ffffffffff60601b606091821b168717901b841760181b90565b9695505050505050565b60606000611faf86612086565b9150506000611fbd86612086565b9150506000611fcb86612086565b9150506000611fd986612086565b91505083838383604051602001611ff39493929190612935565b604051602081830303815290604052945050505050949350505050565b60006120258260181c6001600160601b031690565b6120388360781c6001600160601b031690565b016001600160601b03169050919050565b60006120558260d81c90565b64ffffffffff1664ffffffffff0361206f57506000919050565b600061207a83612010565b60405110199392505050565b600080601f5b600f8160ff1611156120db5760006120a5826008612914565b60ff1685901c90506120b681612134565b61ffff16841793508160ff166010146120d157601084901b93505b506000190161208c565b50600f5b60ff8160ff16101561212e5760006120f8826008612914565b60ff1685901c905061210981612134565b61ffff16831792508160ff1660001461212457601083901b92505b50600019016120df565b50915091565b600061214660048360ff16901c612166565b60ff1661ffff919091161760081b61215d82612166565b60ff1617919050565b600060f08083179060ff821690036121815750603092915050565b8060ff1660f1036121955750603192915050565b8060ff1660f2036121a95750603292915050565b8060ff1660f3036121bd5750603392915050565b8060ff1660f4036121d15750603492915050565b8060ff1660f5036121e55750603592915050565b8060ff1660f6036121f95750603692915050565b8060ff1660f70361220d5750603792915050565b8060ff1660f8036122215750603892915050565b8060ff1660f9036122355750603992915050565b8060ff1660fa036122495750606192915050565b8060ff1660fb0361225d5750606292915050565b8060ff1660fc036122715750606392915050565b8060ff1660fd036122855750606492915050565b8060ff1660fe036122995750606592915050565b8060ff1660ff036122ad5750606692915050565b50919050565b6040518061040001604052806020906020820280368337509192915050565b80356001600160a01b03811681146122e957600080fd5b919050565b60006020828403121561230057600080fd5b610daf826122d2565b60006020828403121561231b57600080fd5b5035919050565b634e487b7160e01b600052602160045260246000fd5b602081016003831061235a57634e487b7160e01b600052602160045260246000fd5b91905290565b634e487b7160e01b600052604160045260246000fd5b600082601f83011261238757600080fd5b813567ffffffffffffffff808211156123a2576123a2612360565b604051601f8301601f19908116603f011681019082821181831017156123ca576123ca612360565b816040528381528660208588010111156123e357600080fd5b836020870160208301376000602085830101528094505050505092915050565b60006020828403121561241557600080fd5b813567ffffffffffffffff81111561242c57600080fd5b611e3984828501612376565b6000806000610440848603121561244e57600080fd5b833567ffffffffffffffff81111561246557600080fd5b61247186828701612376565b93505061042084018581111561248657600080fd5b60208501925080359150509250925092565b600080600080606085870312156124ae57600080fd5b843593506124be602086016122d2565b9250604085013567ffffffffffffffff808211156124db57600080fd5b818701915087601f8301126124ef57600080fd5b8135818111156124fe57600080fd5b88602082850101111561251057600080fd5b95989497505060200194505050565b803563ffffffff811681146122e957600080fd5b60006020828403121561254557600080fd5b610daf8261251f565b60008060006060848603121561256357600080fd5b61256c8461251f565b925060208401359150604084013567ffffffffffffffff81111561258f57600080fd5b61259b86828701612376565b9150509250925092565b60005b838110156125c05781810151838201526020016125a8565b838111156107675750506000910152565b600081518084526125e98160208601602086016125a5565b601f01601f19169290920160200192915050565b60408152600061261060408301856125d1565b905060018060a01b03831660208301529392505050565b634e487b7160e01b600052601160045260246000fd5b60008282101561264f5761264f612627565b500390565b600063ffffffff80831681851680830382111561267357612673612627565b01949350505050565b848152836020820152826040820152608060608201526000611f9860808301846125d1565b600082198211156126b4576126b4612627565b500190565b600063ffffffff808716835280861660208401525083604083015260806060830152611f9860808301846125d1565b838152821515602082015260606040820152600061146560608301846125d1565b805160208083015191908110156122ad5760001960209190910360031b1b16919050565b600063ffffffff60e01b808960e01b168352876004840152808760e01b166024840152808660e01b1660288401525083602c830152825161277581604c8501602087016125a5565b91909101604c01979650505050505050565b600181815b808511156127c25781600019048211156127a8576127a8612627565b808516156127b557918102915b93841c939080029061278c565b509250929050565b6000826127d957506001610bce565b816127e657506000610bce565b81600181146127fc576002811461280657612822565b6001915050610bce565b60ff84111561281757612817612627565b50506001821b610bce565b5060208310610133831016604e8410600b8410161715612845575081810a610bce565b61284f8383612787565b806000190482111561286357612863612627565b029392505050565b6000610daf83836127ca565b634e487b7160e01b600052603260045260246000fd5b6000826128aa57634e487b7160e01b600052601260045260246000fd5b500490565b6000600182016128c1576128c1612627565b5060010190565b634e487b7160e01b600052600160045260246000fd5b602081526000610daf60208301846125d1565b600060ff821660ff84168082101561290b5761290b612627565b90039392505050565b600060ff821660ff84168160ff048111821515161561286357612863612627565b7f54797065644d656d566965772f696e646578202d204f76657272616e20746865815274040ecd2caee5c40a6d8d2c6ca40d2e640c2e84060f605b1b60208201526001600160d01b031960d086811b821660358401526e040eed2e8d040d8cadccee8d04060f608b1b603b840181905286821b8316604a8501527f2e20417474656d7074656420746f20696e646578206174206f666673657420306050850152600f60fb1b607085015285821b83166071850152607784015283901b166086820152601760f91b608c8201526000608d8201611f9856fea2646970667358221220e262955b3faaff92051b182e844eb176f2d975aac70ff7cffbd4202e1d758f4964736f6c634300080f0033",
  "devdoc": {
    "kind": "dev",
    "methods": {
      "addSender(address)": {
        "details": "Only whitelisted routers can call `dispatch`"
      },
      "dispatch(uint32,bytes32,bytes)": {
        "details": "The root of this tree will eventually be dispatched to mainnet via `send`. On mainnet (the \"hub\"), it will be combined into a single aggregate root by RootManager (along with outbound roots from other chains). This aggregate root will be redistributed to all destination chains."
      },
      "proveAndProcess(bytes,bytes32[32],uint256)": {
        "details": "Intended to be called by the relayer at specific intervals during runtime."
      },
      "removeSender(address)": {
        "details": "Only whitelisted routers can call `dispatch`"
      },
      "send()": {
        "details": "At runtime, this method should be called at specific time intervals."
      }
    },
    "version": 1
  },
  "userdoc": {
    "kind": "user",
    "methods": {
      "AMB()": {
        "notice": "Address of the AMB on this domain."
      },
      "DOMAIN()": {
        "notice": "The domain of this Messaging (i.e. Connector) contract."
      },
      "ROOT_MANAGER()": {
        "notice": "RootManager contract address."
      },
      "acceptProposedOwner()": {
        "notice": "Transfers ownership of the contract to a new account (`newOwner`). Can only be called by the current owner."
      },
      "addSender(address)": {
        "notice": "Adds a sender to the whitelist"
      },
      "aggregateRoot()": {
        "notice": "This tracks the root of the tree containing outbound roots from all other supported domains"
      },
      "count()": {
        "notice": "Returns the number of inserted leaves in the tree (current index)"
      },
      "delay()": {
        "notice": "Returns the delay period before a new owner can be accepted."
      },
      "dispatch(uint32,bytes32,bytes)": {
        "notice": "This function adds transfers to the outbound transfer merkle tree."
      },
      "mirrorConnector()": {
        "notice": "Connector on L2 for L1 connectors, and vice versa."
      },
      "mirrorDomain()": {
        "notice": "Domain of mirror connector."
      },
      "mirrorProcessGas()": {
        "notice": "Gas costs forwarded to the `processMessage` call on the mirror domain"
      },
      "outboundRoot()": {
        "notice": "This tracks the root of all transfers with the origin domain as this domain (i.e. all outbound transfers)"
      },
      "owner()": {
        "notice": "Returns the address of the current owner."
      },
      "proposeNewOwner(address)": {
        "notice": "Sets the timestamp for an owner to be proposed, and sets the newly proposed owner as step 1 in a 2-step process"
      },
      "proposed()": {
        "notice": "Returns the address of the proposed owner."
      },
      "proposedTimestamp()": {
        "notice": "Returns the address of the proposed owner."
      },
      "proveAndProcess(bytes,bytes32[32],uint256)": {
        "notice": "Must be able to call the `handle` function on the BridgeRouter contract. This is called on the destination domain to handle incoming messages."
      },
      "provenRoots(bytes32)": {
        "notice": "This tracks whether the root has been proven to exist within the given aggregate root"
      },
      "removeSender(address)": {
        "notice": "Removes a sender from the whitelist"
      },
      "renounceOwnership()": {
        "notice": "Renounces ownership of the contract after a delay"
      },
      "renounced()": {
        "notice": "Indicates if the ownership has been renounced() by checking if current owner is address(0)"
      },
      "root()": {
        "notice": "Calculates and returns tree's current root"
      },
      "send()": {
        "notice": "This is called by relayers to trigger passing of current root to mainnet root manager."
      },
      "setMirrorConnector(address)": {
        "notice": "Sets the address of the l2Connector for this domain"
      }
    },
    "version": 1
  },
  "storageLayout": {
    "storage": [
      {
        "astId": 33678,
        "contract": "contracts/core/messaging/connectors/PolygonConnector.sol:PolygonL2Connector",
        "label": "_owner",
        "offset": 0,
        "slot": "0",
        "type": "t_address"
      },
      {
        "astId": 33680,
        "contract": "contracts/core/messaging/connectors/PolygonConnector.sol:PolygonL2Connector",
        "label": "_proposed",
        "offset": 0,
        "slot": "1",
        "type": "t_address"
      },
      {
        "astId": 33682,
        "contract": "contracts/core/messaging/connectors/PolygonConnector.sol:PolygonL2Connector",
        "label": "_proposedOwnershipTimestamp",
        "offset": 0,
        "slot": "2",
        "type": "t_uint256"
      },
      {
        "astId": 34675,
        "contract": "contracts/core/messaging/connectors/PolygonConnector.sol:PolygonL2Connector",
        "label": "tree",
        "offset": 0,
        "slot": "3",
        "type": "t_struct(Tree)38176_storage"
      },
      {
        "astId": 27994,
        "contract": "contracts/core/messaging/connectors/PolygonConnector.sol:PolygonL2Connector",
        "label": "mirrorConnector",
        "offset": 0,
        "slot": "36",
        "type": "t_address"
      },
      {
        "astId": 28000,
        "contract": "contracts/core/messaging/connectors/PolygonConnector.sol:PolygonL2Connector",
        "label": "mirrorProcessGas",
        "offset": 0,
        "slot": "37",
        "type": "t_uint256"
      },
      {
        "astId": 28003,
        "contract": "contracts/core/messaging/connectors/PolygonConnector.sol:PolygonL2Connector",
        "label": "aggregateRoot",
        "offset": 0,
        "slot": "38",
        "type": "t_bytes32"
      },
      {
        "astId": 28006,
        "contract": "contracts/core/messaging/connectors/PolygonConnector.sol:PolygonL2Connector",
        "label": "outboundRoot",
        "offset": 0,
        "slot": "39",
        "type": "t_bytes32"
      },
      {
        "astId": 28011,
        "contract": "contracts/core/messaging/connectors/PolygonConnector.sol:PolygonL2Connector",
        "label": "provenRoots",
        "offset": 0,
        "slot": "40",
        "type": "t_mapping(t_bytes32,t_bool)"
      },
      {
        "astId": 28016,
        "contract": "contracts/core/messaging/connectors/PolygonConnector.sol:PolygonL2Connector",
        "label": "whitelistedSenders",
        "offset": 0,
        "slot": "41",
        "type": "t_mapping(t_address,t_bool)"
      },
      {
        "astId": 28024,
        "contract": "contracts/core/messaging/connectors/PolygonConnector.sol:PolygonL2Connector",
        "label": "nonces",
        "offset": 0,
        "slot": "42",
        "type": "t_mapping(t_uint32,t_uint32)"
      },
      {
        "astId": 28029,
        "contract": "contracts/core/messaging/connectors/PolygonConnector.sol:PolygonL2Connector",
        "label": "messages",
        "offset": 0,
        "slot": "43",
        "type": "t_mapping(t_bytes32,t_enum(MessageStatus)27982)"
      },
      {
        "astId": 31697,
        "contract": "contracts/core/messaging/connectors/PolygonConnector.sol:PolygonL2Connector",
        "label": "fxChild",
        "offset": 0,
        "slot": "44",
        "type": "t_address"
      },
      {
        "astId": 31699,
        "contract": "contracts/core/messaging/connectors/PolygonConnector.sol:PolygonL2Connector",
        "label": "fxRootTunnel",
        "offset": 0,
        "slot": "45",
        "type": "t_address"
      }
    ],
    "types": {
      "t_address": {
        "encoding": "inplace",
        "label": "address",
        "numberOfBytes": "20"
      },
      "t_array(t_bytes32)32_storage": {
        "base": "t_bytes32",
        "encoding": "inplace",
        "label": "bytes32[32]",
        "numberOfBytes": "1024"
      },
      "t_bool": {
        "encoding": "inplace",
        "label": "bool",
        "numberOfBytes": "1"
      },
      "t_bytes32": {
        "encoding": "inplace",
        "label": "bytes32",
        "numberOfBytes": "32"
      },
      "t_enum(MessageStatus)27982": {
        "encoding": "inplace",
        "label": "enum Connector.MessageStatus",
        "numberOfBytes": "1"
      },
      "t_mapping(t_address,t_bool)": {
        "encoding": "mapping",
        "key": "t_address",
        "label": "mapping(address => bool)",
        "numberOfBytes": "32",
        "value": "t_bool"
      },
      "t_mapping(t_bytes32,t_bool)": {
        "encoding": "mapping",
        "key": "t_bytes32",
        "label": "mapping(bytes32 => bool)",
        "numberOfBytes": "32",
        "value": "t_bool"
      },
      "t_mapping(t_bytes32,t_enum(MessageStatus)27982)": {
        "encoding": "mapping",
        "key": "t_bytes32",
        "label": "mapping(bytes32 => enum Connector.MessageStatus)",
        "numberOfBytes": "32",
        "value": "t_enum(MessageStatus)27982"
      },
      "t_mapping(t_uint32,t_uint32)": {
        "encoding": "mapping",
        "key": "t_uint32",
        "label": "mapping(uint32 => uint32)",
        "numberOfBytes": "32",
        "value": "t_uint32"
      },
      "t_struct(Tree)38176_storage": {
        "encoding": "inplace",
        "label": "struct MerkleLib.Tree",
        "members": [
          {
            "astId": 38173,
            "contract": "contracts/core/messaging/connectors/PolygonConnector.sol:PolygonL2Connector",
            "label": "branch",
            "offset": 0,
            "slot": "0",
            "type": "t_array(t_bytes32)32_storage"
          },
          {
            "astId": 38175,
            "contract": "contracts/core/messaging/connectors/PolygonConnector.sol:PolygonL2Connector",
            "label": "count",
            "offset": 0,
            "slot": "32",
            "type": "t_uint256"
          }
        ],
        "numberOfBytes": "1056"
      },
      "t_uint256": {
        "encoding": "inplace",
        "label": "uint256",
        "numberOfBytes": "32"
      },
      "t_uint32": {
        "encoding": "inplace",
        "label": "uint32",
        "numberOfBytes": "4"
      }
    }
  }
}