{
  "address": "0x4787EEf56A0a391C9d2FeABb6CF90082543AE187",
  "abi": [
    {
      "inputs": [
        {
          "internalType": "uint32",
          "name": "_domain",
          "type": "uint32"
        },
        {
          "internalType": "uint32",
          "name": "_mirrorDomain",
          "type": "uint32"
        },
        {
          "internalType": "address",
          "name": "_amb",
          "type": "address"
        },
        {
          "internalType": "address",
          "name": "_rootManager",
          "type": "address"
        },
        {
          "internalType": "address",
          "name": "_mirrorConnector",
          "type": "address"
        },
        {
          "internalType": "uint256",
          "name": "_mirrorGas",
          "type": "uint256"
        },
        {
          "internalType": "uint256",
          "name": "_processGas",
          "type": "uint256"
        },
        {
          "internalType": "uint256",
          "name": "_reserveGas",
          "type": "uint256"
        }
      ],
      "stateMutability": "nonpayable",
      "type": "constructor"
    },
    {
      "inputs": [],
      "name": "ProposedOwnable__acceptProposedOwner_delayNotElapsed",
      "type": "error"
    },
    {
      "inputs": [],
      "name": "ProposedOwnable__onlyOwner_notOwner",
      "type": "error"
    },
    {
      "inputs": [],
      "name": "ProposedOwnable__onlyProposed_notProposedOwner",
      "type": "error"
    },
    {
      "inputs": [],
      "name": "ProposedOwnable__proposeNewOwner_invalidProposal",
      "type": "error"
    },
    {
      "inputs": [],
      "name": "ProposedOwnable__proposeNewOwner_noOwnershipChange",
      "type": "error"
    },
    {
      "inputs": [],
      "name": "ProposedOwnable__renounceOwnership_delayNotElapsed",
      "type": "error"
    },
    {
      "inputs": [],
      "name": "ProposedOwnable__renounceOwnership_invalidProposal",
      "type": "error"
    },
    {
      "inputs": [],
      "name": "ProposedOwnable__renounceOwnership_noProposal",
      "type": "error"
    },
    {
      "anonymous": false,
      "inputs": [
        {
          "indexed": false,
          "internalType": "bytes32",
          "name": "current",
          "type": "bytes32"
        },
        {
          "indexed": false,
          "internalType": "bytes32",
          "name": "previous",
          "type": "bytes32"
        }
      ],
      "name": "AggregateRootUpdated",
      "type": "event"
    },
    {
      "anonymous": false,
      "inputs": [
        {
          "indexed": false,
          "internalType": "bytes32",
          "name": "leaf",
          "type": "bytes32"
        },
        {
          "indexed": false,
          "internalType": "uint256",
          "name": "index",
          "type": "uint256"
        },
        {
          "indexed": false,
          "internalType": "bytes32",
          "name": "root",
          "type": "bytes32"
        },
        {
          "indexed": false,
          "internalType": "bytes",
          "name": "message",
          "type": "bytes"
        }
      ],
      "name": "Dispatch",
      "type": "event"
    },
    {
      "anonymous": false,
      "inputs": [
        {
          "indexed": false,
          "internalType": "bytes",
          "name": "data",
          "type": "bytes"
        },
        {
          "indexed": false,
          "internalType": "address",
          "name": "caller",
          "type": "address"
        }
      ],
      "name": "MessageProcessed",
      "type": "event"
    },
    {
      "anonymous": false,
      "inputs": [
        {
          "indexed": false,
          "internalType": "bytes",
          "name": "message",
          "type": "bytes"
        }
      ],
      "name": "MessageSent",
      "type": "event"
    },
    {
      "anonymous": false,
      "inputs": [
        {
          "indexed": false,
          "internalType": "bytes",
          "name": "data",
          "type": "bytes"
        },
        {
          "indexed": false,
          "internalType": "address",
          "name": "caller",
          "type": "address"
        }
      ],
      "name": "MessageSent",
      "type": "event"
    },
    {
      "anonymous": false,
      "inputs": [
        {
          "indexed": false,
          "internalType": "address",
          "name": "previous",
          "type": "address"
        },
        {
          "indexed": false,
          "internalType": "address",
          "name": "current",
          "type": "address"
        }
      ],
      "name": "MirrorConnectorUpdated",
      "type": "event"
    },
    {
      "anonymous": false,
      "inputs": [
        {
          "indexed": false,
          "internalType": "uint256",
          "name": "previous",
          "type": "uint256"
        },
        {
          "indexed": false,
          "internalType": "uint256",
          "name": "current",
          "type": "uint256"
        }
      ],
      "name": "MirrorGasUpdated",
      "type": "event"
    },
    {
      "anonymous": false,
      "inputs": [
        {
          "indexed": true,
          "internalType": "uint32",
          "name": "domain",
          "type": "uint32"
        },
        {
          "indexed": true,
          "internalType": "uint32",
          "name": "mirrorDomain",
          "type": "uint32"
        },
        {
          "indexed": false,
          "internalType": "address",
          "name": "amb",
          "type": "address"
        },
        {
          "indexed": false,
          "internalType": "address",
          "name": "rootManager",
          "type": "address"
        },
        {
          "indexed": false,
          "internalType": "address",
          "name": "mirrorConnector",
          "type": "address"
        }
      ],
      "name": "NewConnector",
      "type": "event"
    },
    {
      "anonymous": false,
      "inputs": [
        {
          "indexed": true,
          "internalType": "address",
          "name": "proposedOwner",
          "type": "address"
        }
      ],
      "name": "OwnershipProposed",
      "type": "event"
    },
    {
      "anonymous": false,
      "inputs": [
        {
          "indexed": true,
          "internalType": "address",
          "name": "previousOwner",
          "type": "address"
        },
        {
          "indexed": true,
          "internalType": "address",
          "name": "newOwner",
          "type": "address"
        }
      ],
      "name": "OwnershipTransferred",
      "type": "event"
    },
    {
      "anonymous": false,
      "inputs": [
        {
          "indexed": false,
          "internalType": "bytes32",
          "name": "leaf",
          "type": "bytes32"
        },
        {
          "indexed": false,
          "internalType": "bool",
          "name": "success",
          "type": "bool"
        },
        {
          "indexed": false,
          "internalType": "bytes",
          "name": "returnData",
          "type": "bytes"
        }
      ],
      "name": "Process",
      "type": "event"
    },
    {
      "anonymous": false,
      "inputs": [
        {
          "indexed": false,
          "internalType": "address",
          "name": "sender",
          "type": "address"
        }
      ],
      "name": "SenderAdded",
      "type": "event"
    },
    {
      "anonymous": false,
      "inputs": [
        {
          "indexed": false,
          "internalType": "address",
          "name": "sender",
          "type": "address"
        }
      ],
      "name": "SenderRemoved",
      "type": "event"
    },
    {
      "inputs": [],
      "name": "AMB",
      "outputs": [
        {
          "internalType": "address",
          "name": "",
          "type": "address"
        }
      ],
      "stateMutability": "view",
      "type": "function"
    },
    {
      "inputs": [],
      "name": "DOMAIN",
      "outputs": [
        {
          "internalType": "uint32",
          "name": "",
          "type": "uint32"
        }
      ],
      "stateMutability": "view",
      "type": "function"
    },
    {
      "inputs": [],
      "name": "MIRROR_DOMAIN",
      "outputs": [
        {
          "internalType": "uint32",
          "name": "",
          "type": "uint32"
        }
      ],
      "stateMutability": "view",
      "type": "function"
    },
    {
      "inputs": [],
      "name": "PROCESS_GAS",
      "outputs": [
        {
          "internalType": "uint256",
          "name": "",
          "type": "uint256"
        }
      ],
      "stateMutability": "view",
      "type": "function"
    },
    {
      "inputs": [],
      "name": "RESERVE_GAS",
      "outputs": [
        {
          "internalType": "uint256",
          "name": "",
          "type": "uint256"
        }
      ],
      "stateMutability": "view",
      "type": "function"
    },
    {
      "inputs": [],
      "name": "ROOT_MANAGER",
      "outputs": [
        {
          "internalType": "address",
          "name": "",
          "type": "address"
        }
      ],
      "stateMutability": "view",
      "type": "function"
    },
    {
      "inputs": [],
      "name": "acceptProposedOwner",
      "outputs": [],
      "stateMutability": "nonpayable",
      "type": "function"
    },
    {
      "inputs": [
        {
          "internalType": "address",
          "name": "_sender",
          "type": "address"
        }
      ],
      "name": "addSender",
      "outputs": [],
      "stateMutability": "nonpayable",
      "type": "function"
    },
    {
      "inputs": [],
      "name": "aggregateRoot",
      "outputs": [
        {
          "internalType": "bytes32",
          "name": "",
          "type": "bytes32"
        }
      ],
      "stateMutability": "view",
      "type": "function"
    },
    {
      "inputs": [],
      "name": "count",
      "outputs": [
        {
          "internalType": "uint256",
          "name": "",
          "type": "uint256"
        }
      ],
      "stateMutability": "view",
      "type": "function"
    },
    {
      "inputs": [],
      "name": "delay",
      "outputs": [
        {
          "internalType": "uint256",
          "name": "",
          "type": "uint256"
        }
      ],
      "stateMutability": "view",
      "type": "function"
    },
    {
      "inputs": [
        {
          "internalType": "uint32",
          "name": "_destinationDomain",
          "type": "uint32"
        },
        {
          "internalType": "bytes32",
          "name": "_recipientAddress",
          "type": "bytes32"
        },
        {
          "internalType": "bytes",
          "name": "_messageBody",
          "type": "bytes"
        }
      ],
      "name": "dispatch",
      "outputs": [
        {
          "internalType": "bytes32",
          "name": "",
          "type": "bytes32"
        }
      ],
      "stateMutability": "nonpayable",
      "type": "function"
    },
    {
      "inputs": [],
      "name": "fxChild",
      "outputs": [
        {
          "internalType": "address",
          "name": "",
          "type": "address"
        }
      ],
      "stateMutability": "view",
      "type": "function"
    },
    {
      "inputs": [],
      "name": "fxRootTunnel",
      "outputs": [
        {
          "internalType": "address",
          "name": "",
          "type": "address"
        }
      ],
      "stateMutability": "view",
      "type": "function"
    },
    {
      "inputs": [],
      "name": "home",
      "outputs": [
        {
          "internalType": "contract IOutbox",
          "name": "",
          "type": "address"
        }
      ],
      "stateMutability": "view",
      "type": "function"
    },
    {
      "inputs": [
        {
          "internalType": "address",
          "name": "_potentialReplica",
          "type": "address"
        }
      ],
      "name": "isReplica",
      "outputs": [
        {
          "internalType": "bool",
          "name": "",
          "type": "bool"
        }
      ],
      "stateMutability": "view",
      "type": "function"
    },
    {
      "inputs": [],
      "name": "localDomain",
      "outputs": [
        {
          "internalType": "uint32",
          "name": "",
          "type": "uint32"
        }
      ],
      "stateMutability": "view",
      "type": "function"
    },
    {
      "inputs": [
        {
          "internalType": "bytes32",
          "name": "",
          "type": "bytes32"
        }
      ],
      "name": "messages",
      "outputs": [
        {
          "internalType": "enum SpokeConnector.MessageStatus",
          "name": "",
          "type": "uint8"
        }
      ],
      "stateMutability": "view",
      "type": "function"
    },
    {
      "inputs": [],
      "name": "mirrorConnector",
      "outputs": [
        {
          "internalType": "address",
          "name": "",
          "type": "address"
        }
      ],
      "stateMutability": "view",
      "type": "function"
    },
    {
      "inputs": [],
      "name": "mirrorGas",
      "outputs": [
        {
          "internalType": "uint256",
          "name": "",
          "type": "uint256"
        }
      ],
      "stateMutability": "view",
      "type": "function"
    },
    {
      "inputs": [
        {
          "internalType": "uint32",
          "name": "",
          "type": "uint32"
        }
      ],
      "name": "nonces",
      "outputs": [
        {
          "internalType": "uint32",
          "name": "",
          "type": "uint32"
        }
      ],
      "stateMutability": "view",
      "type": "function"
    },
    {
      "inputs": [],
      "name": "outboundRoot",
      "outputs": [
        {
          "internalType": "bytes32",
          "name": "",
          "type": "bytes32"
        }
      ],
      "stateMutability": "view",
      "type": "function"
    },
    {
      "inputs": [],
      "name": "owner",
      "outputs": [
        {
          "internalType": "address",
          "name": "",
          "type": "address"
        }
      ],
      "stateMutability": "view",
      "type": "function"
    },
    {
      "inputs": [
        {
          "internalType": "bytes",
          "name": "_data",
          "type": "bytes"
        }
      ],
      "name": "processMessage",
      "outputs": [],
      "stateMutability": "nonpayable",
      "type": "function"
    },
    {
      "inputs": [
        {
          "internalType": "uint256",
          "name": "stateId",
          "type": "uint256"
        },
        {
          "internalType": "address",
          "name": "rootMessageSender",
          "type": "address"
        },
        {
          "internalType": "bytes",
          "name": "data",
          "type": "bytes"
        }
      ],
      "name": "processMessageFromRoot",
      "outputs": [],
      "stateMutability": "nonpayable",
      "type": "function"
    },
    {
      "inputs": [
        {
          "internalType": "address",
          "name": "newlyProposed",
          "type": "address"
        }
      ],
      "name": "proposeNewOwner",
      "outputs": [],
      "stateMutability": "nonpayable",
      "type": "function"
    },
    {
      "inputs": [],
      "name": "proposed",
      "outputs": [
        {
          "internalType": "address",
          "name": "",
          "type": "address"
        }
      ],
      "stateMutability": "view",
      "type": "function"
    },
    {
      "inputs": [],
      "name": "proposedTimestamp",
      "outputs": [
        {
          "internalType": "uint256",
          "name": "",
          "type": "uint256"
        }
      ],
      "stateMutability": "view",
      "type": "function"
    },
    {
      "inputs": [
        {
          "internalType": "bytes",
          "name": "_message",
          "type": "bytes"
        },
        {
          "internalType": "bytes32[32]",
          "name": "_proof",
          "type": "bytes32[32]"
        },
        {
          "internalType": "uint256",
          "name": "_index",
          "type": "uint256"
        }
      ],
      "name": "proveAndProcess",
      "outputs": [],
      "stateMutability": "nonpayable",
      "type": "function"
    },
    {
      "inputs": [
        {
          "internalType": "bytes32",
          "name": "",
          "type": "bytes32"
        }
      ],
      "name": "provenRoots",
      "outputs": [
        {
          "internalType": "bool",
          "name": "",
          "type": "bool"
        }
      ],
      "stateMutability": "view",
      "type": "function"
    },
    {
      "inputs": [
        {
          "internalType": "address",
          "name": "_sender",
          "type": "address"
        }
      ],
      "name": "removeSender",
      "outputs": [],
      "stateMutability": "nonpayable",
      "type": "function"
    },
    {
      "inputs": [],
      "name": "renounceOwnership",
      "outputs": [],
      "stateMutability": "nonpayable",
      "type": "function"
    },
    {
      "inputs": [],
      "name": "renounced",
      "outputs": [
        {
          "internalType": "bool",
          "name": "",
          "type": "bool"
        }
      ],
      "stateMutability": "view",
      "type": "function"
    },
    {
      "inputs": [],
      "name": "send",
      "outputs": [],
      "stateMutability": "nonpayable",
      "type": "function"
    },
    {
      "inputs": [
        {
          "internalType": "address",
          "name": "_fxRootTunnel",
          "type": "address"
        }
      ],
      "name": "setFxRootTunnel",
      "outputs": [],
      "stateMutability": "nonpayable",
      "type": "function"
    },
    {
      "inputs": [
        {
          "internalType": "address",
          "name": "_mirrorConnector",
          "type": "address"
        }
      ],
      "name": "setMirrorConnector",
      "outputs": [],
      "stateMutability": "nonpayable",
      "type": "function"
    },
    {
      "inputs": [
        {
          "internalType": "uint256",
          "name": "_mirrorGas",
          "type": "uint256"
        }
      ],
      "name": "setMirrorGas",
      "outputs": [],
      "stateMutability": "nonpayable",
      "type": "function"
    },
    {
      "inputs": [],
      "name": "tree",
      "outputs": [
        {
          "internalType": "uint256",
          "name": "count",
          "type": "uint256"
        }
      ],
      "stateMutability": "view",
      "type": "function"
    },
    {
      "inputs": [
        {
          "internalType": "address",
          "name": "_expected",
          "type": "address"
        }
      ],
      "name": "verifySender",
      "outputs": [
        {
          "internalType": "bool",
          "name": "",
          "type": "bool"
        }
      ],
      "stateMutability": "nonpayable",
      "type": "function"
    },
    {
      "inputs": [
        {
          "internalType": "address",
          "name": "",
          "type": "address"
        }
      ],
      "name": "whitelistedSenders",
      "outputs": [
        {
          "internalType": "bool",
          "name": "",
          "type": "bool"
        }
      ],
      "stateMutability": "view",
      "type": "function"
    }
  ],
  "transactionHash": "0xe16decd270732882f7a036893ba1ed445f64528971f25d9f28ee573fc609efa9",
  "args": [
    "9991",
    "1735353714",
    "0xCf73231F28B7331BBe3124B907840A94851f9f11",
    "0xa882Da4138D370C7655C1713A95B55411ab092C8",
    "0x0000000000000000000000000000000000000000",
    "850000",
    "850000",
    "15000"
  ],
  "numDeployments": 1,
  "solcInputHash": "2575038f21e3e219679bfa054f96a156",
  "bytecode": "0x6101406040523480156200001257600080fd5b5060405162002f7b38038062002f7b833981016040819052620000359162000397565b8588888288888888888787878787876200004f336200025c565b8563ffffffff166000036200009a5760405162461bcd60e51b815260206004820152600c60248201526b32b6b83a3c903237b6b0b4b760a11b60448201526064015b60405180910390fd5b6001600160a01b038316620000e65760405162461bcd60e51b815260206004820152601160248201527032b6b83a3c903937b7ba26b0b730b3b2b960791b604482015260640162000091565b63ffffffff8087166080526001600160a01b0380861660a05284811660c05290861660e0528216156200011e576200011e82620002bb565b80156200013057620001308162000324565b604080516001600160a01b0386811682528581166020830152841681830152905163ffffffff87811692908916917f4f9c27c2fe3f84576ea469d367d044da53c45e951617e8389f2b5ed8db9d25f09181900360600190a350506001602655505050620cf8508310159050620001d85760405162461bcd60e51b815260206004820152600c60248201526b2170726f636573732067617360a01b604482015260640162000091565b613a988110156200021b5760405162461bcd60e51b815260206004820152600c60248201526b21726573657276652067617360a01b604482015260640162000091565b61010091909152610120525050602c80546001600160a01b0319166001600160a01b03969096169590951790945550620004249a5050505050505050505050565b600080546001600160a01b038381166001600160a01b0319808416821785556002859055600180549091169055604051919092169283917f8be0079c531659141344cd1fd0a4f28419497f9722a3daafe3b4186f6b6457e09190a35050565b600354604080516001600160a01b03928316815291831660208301527fc77bec288fc88f168427f2f7da682eadb26cac89d8d591af6e443da98dff2bbc910160405180910390a1600380546001600160a01b0319166001600160a01b0392909216919091179055565b60045460408051918252602082018390527f34b09b90f4cfa8747776f5cffd7d53ce7863a9b1f1fc8121903d22543a256511910160405180910390a1600455565b805163ffffffff811681146200037a57600080fd5b919050565b80516001600160a01b03811681146200037a57600080fd5b600080600080600080600080610100898b031215620003b557600080fd5b620003c08962000365565b9750620003d060208a0162000365565b9650620003e060408a016200037f565b9550620003f060608a016200037f565b94506200040060808a016200037f565b935060a0890151925060c0890151915060e089015190509295985092959890939650565b60805160a05160c05160e0516101005161012051612acf620004ac600039600081816102a50152610f7e01526000818161057e01528181610f9f015261102601526000610269015260006103cd01526000818161055701528181610607015261136e0152600081816103930152818161045601528181610c7a0152610e800152612acf6000f3fe608060405234801561001057600080fd5b50600436106102485760003560e01c80638da5cb5b1161013b578063cf796c75116100b8578063db1b76591161007c578063db1b7659146105a0578063ee250e06146105b3578063f38a267b146105bc578063fa31de01146105df578063fd54b228146105f257600080fd5b8063cf796c7514610526578063d1851c921461052f578063d232c22014610540578063d69f9d6114610552578063d88beda21461057957600080fd5b8063b46300ec116100ff578063b46300ec146104ca578063b697f531146104d2578063b95a2001146104e5578063c5b350df1461050b578063cc3942831461051357600080fd5b80638da5cb5b1461047a5780639a7c4b711461048b5780639fa92f9d1461049e578063b1f8100d146104a4578063b2f87643146104b757600080fd5b80635bd11efc116101c95780636eb67a511161018d5780636eb67a5114610413578063715018a6146104265780637f1e9cb01461042e57806388837094146104415780638d3638f41461045457600080fd5b80635bd11efc146103b55780635f61e3ec146103c85780636188af0e146103ef57806365eaf11b146104025780636a42b8f81461040a57600080fd5b80633cf52ffb116102105780633cf52ffb1461032a578063450d11f0146103325780634ff746f61461035d5780635190bc531461037257806352a9674b1461038e57600080fd5b806306661abd1461024d578063141684161461026457806325e3beda146102a0578063272efc69146102c75780632bbd59ca146102fa575b600080fd5b6025545b6040519081526020015b60405180910390f35b61028b7f000000000000000000000000000000000000000000000000000000000000000081565b60405163ffffffff909116815260200161025b565b6102517f000000000000000000000000000000000000000000000000000000000000000081565b6102ea6102d536600461237b565b60296020526000908152604090205460ff1681565b604051901515815260200161025b565b61031d610308366004612396565b602b6020526000908152604090205460ff1681565b60405161025b91906123c5565b600254610251565b602c54610345906001600160a01b031681565b6040516001600160a01b03909116815260200161025b565b61037061036b366004612490565b6105fc565b005b6102ea61038036600461237b565b6001600160a01b0316301490565b61028b7f000000000000000000000000000000000000000000000000000000000000000081565b6103706103c336600461237b565b6106a2565b6103457f000000000000000000000000000000000000000000000000000000000000000081565b6103706103fd3660046124c5565b6106d9565b61025161072f565b62093a80610251565b610370610421366004612396565b610740565b610370610774565b602d54610345906001600160a01b031681565b61037061044f36600461237b565b610833565b7f000000000000000000000000000000000000000000000000000000000000000061028b565b6000546001600160a01b0316610345565b610370610499366004612525565b6108c1565b30610345565b6103706104b236600461237b565b610966565b6103706104c536600461237b565b610a0b565b610370610a87565b6103706104e036600461237b565b610af0565b61028b6104f33660046125c0565b602a6020526000908152604090205463ffffffff1681565b610370610b6f565b600354610345906001600160a01b031681565b61025160045481565b6001546001600160a01b0316610345565b6000546001600160a01b0316156102ea565b6103457f000000000000000000000000000000000000000000000000000000000000000081565b6102517f000000000000000000000000000000000000000000000000000000000000000081565b6102ea6105ae36600461237b565b610bca565b61025160275481565b6102ea6105ca366004612396565b60286020526000908152604090205460ff1681565b6102516105ed3660046125db565b610bdb565b6025546102519081565b336001600160a01b037f000000000000000000000000000000000000000000000000000000000000000016146106665760405162461bcd60e51b815260040161065d9060208082526004908201526310a0a6a160e11b604082015260600190565b60405180910390fd5b7fb3abc57bfeebd2cac918901db582f71972a8e628bccf19f5ae3e3482b98a5ced813360405161069792919061268a565b60405180910390a150565b6000546001600160a01b031633146106cd576040516311a8a1bb60e31b815260040160405180910390fd5b6106d681610d1e565b50565b6106eb83805190602001208383610d87565b6107205760405162461bcd60e51b81526020600482015260066024820152652170726f766560d01b604482015260640161065d565b61072983610e12565b50505050565b600061073b6005611159565b905090565b6000546001600160a01b0316331461076b576040516311a8a1bb60e31b815260040160405180910390fd5b6106d68161116c565b6000546001600160a01b0316331461079f576040516311a8a1bb60e31b815260040160405180910390fd5b6002546000036107c257604051630e4b303f60e21b815260040160405180910390fd5b62093a80600254426107d491906126ca565b116107f2576040516386d4b3f160e01b815260040160405180910390fd5b6001546001600160a01b03161561081c576040516323295ef960e01b815260040160405180910390fd5b600154610831906001600160a01b03166111ad565b565b602d546001600160a01b03161561089f5760405162461bcd60e51b815260206004820152602a60248201527f4678426173654368696c6454756e6e656c3a20524f4f545f54554e4e454c5f4160448201526913149150511657d4d15560b21b606482015260840161065d565b602d80546001600160a01b0319166001600160a01b0392909216919091179055565b602c546001600160a01b031633146109255760405162461bcd60e51b815260206004820152602160248201527f4678426173654368696c6454756e6e656c3a20494e56414c49445f53454e44456044820152602960f91b606482015260840161065d565b610729848484848080601f01602080910402602001604051908101604052809392919081815260200183838082843760009201919091525061120c92505050565b6000546001600160a01b03163314610991576040516311a8a1bb60e31b815260040160405180910390fd5b6001546001600160a01b0382811691161480156109b657506001600160a01b03811615155b156109d4576040516311bc066560e11b815260040160405180910390fd5b6000546001600160a01b03808316911603610a0257604051634a2fb73f60e11b815260040160405180910390fd5b6106d68161130a565b6000546001600160a01b03163314610a36576040516311a8a1bb60e31b815260040160405180910390fd5b6001600160a01b038116600081815260296020908152604091829020805460ff1916905590519182527f384859c5ef5fafac31e8bc92ce7fb48b1f2c74c4dd5e212eb84ec202fa5d9fad9101610697565b6000610a936005611159565b604051602001610aa591815260200190565b6040516020818303038152906040529050610abf81611358565b7fa69577a1e55dd0712044e7078b408c39fadff8b3e1b334b202ff17e70eda9fdc813360405161069792919061268a565b6000546001600160a01b03163314610b1b576040516311a8a1bb60e31b815260040160405180910390fd5b6001600160a01b038116600081815260296020908152604091829020805460ff1916600117905590519182527fd65eca5d561d3a4568c87b9b13ced4ab52a69edadfdfdb22d76bc595f36d7d879101610697565b6001546001600160a01b03163314610b9a576040516311a7f27160e11b815260040160405180910390fd5b62093a8060025442610bac91906126ca565b1161081c5760405163d39c12bb60e01b815260040160405180910390fd5b6000610bd582611361565b92915050565b3360009081526029602052604081205460ff16610c295760405162461bcd60e51b815260206004820152600c60248201526b085dda1a5d195b1a5cdd195960a21b604482015260640161065d565b63ffffffff8085166000908152602a602052604090205416610c4c8160016126e1565b63ffffffff8681166000908152602a60205260408120805463ffffffff191693909216929092179055610ca37f000000000000000000000000000000000000000000000000000000000000000033848989896113cd565b80516020820120909150610cb8600582611405565b7f40f08ee347fc927ae45902edc87debb024aab1a311943731968607f603f2152f816001610ce560255490565b610cef91906126ca565b610cf96005611159565b85604051610d0a9493929190612709565b60405180910390a1925050505b9392505050565b600354604080516001600160a01b03928316815291831660208301527fc77bec288fc88f168427f2f7da682eadb26cac89d8d591af6e443da98dff2bbc910160405180910390a1600380546001600160a01b0319166001600160a01b0392909216919091179055565b6000806000858152602b602052604090205460ff166002811115610dad57610dad6123af565b14610df05760405162461bcd60e51b8152602060048201526013602482015272214d6573736167655374617475732e4e6f6e6560681b604482015260640161065d565b5050506000908152602b60205260409020805460ff1916600190811790915590565b6000600260265403610e665760405162461bcd60e51b815260206004820152601f60248201527f5265656e7472616e637947756172643a207265656e7472616e742063616c6c00604482015260640161065d565b60026026556000610e778382611522565b905063ffffffff7f000000000000000000000000000000000000000000000000000000000000000016610eaf62ffffff198316611546565b63ffffffff1614610ef15760405162461bcd60e51b815260206004820152600c60248201526b10b232b9ba34b730ba34b7b760a11b604482015260640161065d565b6000610f0262ffffff19831661155b565b905060016000828152602b602052604090205460ff166002811115610f2957610f296123af565b14610f605760405162461bcd60e51b815260206004820152600760248201526610b83937bb32b760c91b604482015260640161065d565b6000818152602b60205260409020805460ff19166002179055610fc37f00000000000000000000000000000000000000000000000000000000000000007f000000000000000000000000000000000000000000000000000000000000000061272e565b5a1015610ffb5760405162461bcd60e51b815260040161065d906020808252600490820152632167617360e01b604082015260600190565b600061100c62ffffff1984166115a4565b6040805161010080825261012082019092529192506000917f000000000000000000000000000000000000000000000000000000000000000090839083602082018180368337019050509050600061106962ffffff1989166115b5565b61107862ffffff198a166115c9565b61108762ffffff198b166115de565b6110a461109962ffffff198d166115f3565b62ffffff1916611621565b6040516024016110b79493929190612746565b60408051601f198184030181529190526020810180516001600160e01b031663ab2dc3f560e01b17815281519192506000918291828a88f198503d945083851115611100578394505b848252846000602084013e7fd42de95a9b26f1be134c8ecce389dc4fcfa18753d01661b7b361233569e8fe48878a8460405161113e93929190612775565b60405180910390a15050600160265550949695505050505050565b6000610bd58261116761166a565b611b2b565b60045460408051918252602082018390527f34b09b90f4cfa8747776f5cffd7d53ce7863a9b1f1fc8121903d22543a256511910160405180910390a1600455565b600080546001600160a01b038381166001600160a01b0319808416821785556002859055600180549091169055604051919092169283917f8be0079c531659141344cd1fd0a4f28419497f9722a3daafe3b4186f6b6457e09190a35050565b602d5482906001600160a01b0380831691161461127f5760405162461bcd60e51b815260206004820152602b60248201527f4678426173654368696c6454756e6e656c3a20494e56414c49445f53454e444560448201526a1497d19493d357d493d3d560aa1b606482015260840161065d565b81516020146112ba5760405162461bcd60e51b8152602060048201526007602482015266042d8cadccee8d60cb1b604482015260640161065d565b6112cb6112c683612796565b611bfd565b7fb3abc57bfeebd2cac918901db582f71972a8e628bccf19f5ae3e3482b98a5ced82336040516112fc92919061268a565b60405180910390a150505050565b42600255600180546001600160a01b0319166001600160a01b0383169081179091556040517f6ab4d119f23076e8ad491bc65ce85f017fb0591dce08755ba8591059cc51737a90600090a250565b6106d681611c3f565b6000336001600160a01b037f000000000000000000000000000000000000000000000000000000000000000016146113c55760405162461bcd60e51b81526020600482015260076024820152662162726964676560c81b604482015260640161065d565b506001919050565b60608686868686866040516020016113ea969594939291906127ba565b60405160208183030381529060405290509695505050505050565b6001611413602060026128f8565b61141d91906126ca565b8260200154106114625760405162461bcd60e51b815260206004820152601060248201526f1b595c9adb19481d1c995948199d5b1b60821b604482015260640161065d565b6001826020016000828254611477919061272e565b9091555050602082015460005b602081101561151457816001166001036114b357828482602081106114ab576114ab612904565b015550505050565b8381602081106114c5576114c5612904565b01546040805160208101929092528101849052606001604051602081830303815290604052805190602001209250600282611500919061291a565b91508061150c8161293c565b915050611484565b5061151d612955565b505050565b81516000906020840161153d64ffffffffff85168284611c6e565b95945050505050565b6000610bd562ffffff19831660286004611cb5565b6000806115718360781c6001600160601b031690565b6001600160601b0316905060006115918460181c6001600160601b031690565b6001600160601b03169091209392505050565b6000610bd56115b283611ce5565b90565b6000610bd562ffffff198316826004611cb5565b6000610bd562ffffff19831660246004611cb5565b6000610bd562ffffff19831660046020611cf6565b6000610bd5604c61161181601886901c6001600160601b03166126ca565b62ffffff19851691906000611e52565b60606000806116398460181c6001600160601b031690565b6001600160601b0316905060405191508192506116598483602001611ece565b508181016020016040529052919050565b611672612340565b600081527fad3228b676f7d3cd4284a5443f17f1962b36e491b30a40b2405849e597ba5fb560208201527fb4c11951957c6f8f642c4af61cd6b24640fec6dc7fc607ee8206a99e92410d3060408201527f21ddb9a356815c3fac1026b6dec5df3124afbadb485c9ba5a3e3398a04b7ba8560608201527fe58769b32a1beaf1ea27375a44095a0d1fb664ce2dd358e7fcbfb78c26a1934460808201527f0eb01ebfc9ed27500cd4dfc979272d1f0913cc9f66540d7e8005811109e1cf2d60a08201527f887c22bd8750d34016ac3c66b5ff102dacdd73f6b014e710b51e8022af9a196860c08201527fffd70157e48063fc33c97a050f7f640233bf646cc98d9524c6b92bcf3ab56f8360e08201527f9867cc5f7f196b93bae1e27e6320742445d290f2263827498b54fec539f756af6101008201527fcefad4e508c098b9a7e1d8feb19955fb02ba9675585078710969d3440f5054e06101208201527ff9dc3e7fe016e050eff260334f18a5d4fe391d82092319f5964f2e2eb7c1c3a56101408201527ff8b13a49e282f609c317a833fb8d976d11517c571d1221a265d25af778ecf8926101608201527f3490c6ceeb450aecdc82e28293031d10c7d73bf85e57bf041a97360aa2c5d99c6101808201527fc1df82d9c4b87413eae2ef048f94b4d3554cea73d92b0f7af96e0271c691e2bb6101a08201527f5c67add7c6caf302256adedf7ab114da0acfe870d449a3a489f781d659e8becc6101c08201527fda7bce9f4e8618b6bd2f4132ce798cdc7a60e7e1460a7299e3c6342a579626d26101e08201527f2733e50f526ec2fa19a22b31e8ed50f23cd1fdf94c9154ed3a7609a2f1ff981f6102008201527fe1d3b5c807b281e4683cc6d6315cf95b9ade8641defcb32372f1c126e398ef7a6102208201527f5a2dce0a8a7f68bb74560f8f71837c2c2ebbcbf7fffb42ae1896f13f7c7479a06102408201527fb46a28b6f55540f89444f63de0378e3d121be09e06cc9ded1c20e65876d36aa06102608201527fc65e9645644786b620e2dd2ad648ddfcbf4a7e5b1a3a4ecfe7f64667a3f0b7e26102808201527ff4418588ed35a2458cffeb39b93d26f18d2ab13bdce6aee58e7b99359ec2dfd96102a08201527f5a9c16dc00d6ef18b7933a6f8dc65ccb55667138776f7dea101070dc8796e3776102c08201527f4df84f40ae0c8229d0d6069e5c8f39a7c299677a09d367fc7b05e3bc380ee6526102e08201527fcdc72595f74c7b1043d0e1ffbab734648c838dfb0527d971b602bc216c9619ef6103008201527f0abf5ac974a1ed57f4050aa510dd9c74f508277b39d7973bb2dfccc5eeb0618d6103208201527fb8cd74046ff337f0a7bf2c8e03e10f642c1886798d71806ab1e888d9e5ee87d06103408201527f838c5655cb21c6cb83313b5a631175dff4963772cce9108188b34ac87c81c41e6103608201527f662ee4dd2dd7b2bc707961b1e646c4047669dcb6584f0d8d770daf5d7e7deb2e6103808201527f388ab20e2573d171a88108e79d820e98f26c0b84aa8b2f4aa4968dbb818ea3226103a08201527f93237c50ba75ee485f4c22adf2f741400bdf8d6a9cc7df7ecae576221665d7356103c08201527f8448818bb4ae4562849e949e17ac16e0be16688e156b5cf15e098c627c0056a96103e082015290565b6020820154600090815b6020811015611bf557600182821c166000868360208110611b5857611b58612904565b0154905081600103611b95576040805160208101839052908101869052606001604051602081830303815290604052805190602001209450611be0565b84868460208110611ba857611ba8612904565b6020020151604051602001611bc7929190918252602082015260400190565b6040516020818303038152906040528051906020012094505b50508080611bed9061293c565b915050611b35565b505092915050565b6027546040805183815260208101929092527fd93b9a9123395d96a15a0cff10295f286f99a0962c9adb978bad3ab6aaea7213910160405180910390a1602755565b7f8c5261668696ce22758910d05bab8f186d6eb247ceac2af2e82c7dc17669b03681604051610697919061296b565b600080611c7b838561272e565b9050604051811115611c8b575060005b80600003611ca05762ffffff19915050610d17565b5050606092831b9190911790911b1760181b90565b6000611cc282602061297e565b611ccd9060086129a1565b60ff16611cdb858585611cf6565b901c949350505050565b6000610bd562ffffff198316602c60205b60008160ff16600003611d0b57506000610d17565b611d1e8460181c6001600160601b031690565b6001600160601b0316611d3460ff84168561272e565b1115611d9857611d7f611d508560781c6001600160601b031690565b6001600160601b0316611d6c8660181c6001600160601b031690565b6001600160601b0316858560ff1661202f565b60405162461bcd60e51b815260040161065d919061296b565b60208260ff161115611e125760405162461bcd60e51b815260206004820152603a60248201527f54797065644d656d566965772f696e646578202d20417474656d70746564207460448201527f6f20696e646578206d6f7265207468616e203332206279746573000000000000606482015260840161065d565b600882026000611e2b8660781c6001600160601b031690565b6001600160601b031690506000600160ff1b60001984011d91909501511695945050505050565b600080611e688660781c6001600160601b031690565b6001600160601b03169050611e7c8661209d565b84611e87878461272e565b611e91919061272e565b1115611ea45762ffffff19915050611ec6565b611eae858261272e565b9050611ec28364ffffffffff168286611c6e565b9150505b949350505050565b600062ffffff1980841603611f365760405162461bcd60e51b815260206004820152602860248201527f54797065644d656d566965772f636f7079546f202d204e756c6c20706f696e7460448201526732b9103232b932b360c11b606482015260840161065d565b611f3f836120d6565b611f9f5760405162461bcd60e51b815260206004820152602b60248201527f54797065644d656d566965772f636f7079546f202d20496e76616c696420706f60448201526a34b73a32b9103232b932b360a91b606482015260840161065d565b6000611fb48460181c6001600160601b031690565b6001600160601b031690506000611fd48560781c6001600160601b031690565b6001600160601b031690506000604051905084811115611ff45760206060fd5b8285848460045afa5061202561200a8760d81c90565b64ffffffffff60601b606091821b168717901b841760181b90565b9695505050505050565b6060600061203c86612113565b915050600061204a86612113565b915050600061205886612113565b915050600061206686612113565b9150508383838360405160200161208094939291906129c2565b604051602081830303815290604052945050505050949350505050565b60006120b28260181c6001600160601b031690565b6120c58360781c6001600160601b031690565b016001600160601b03169050919050565b60006120e28260d81c90565b64ffffffffff1664ffffffffff036120fc57506000919050565b60006121078361209d565b60405110199392505050565b600080601f5b600f8160ff1611156121685760006121328260086129a1565b60ff1685901c9050612143816121c1565b61ffff16841793508160ff1660101461215e57601084901b93505b5060001901612119565b50600f5b60ff8160ff1610156121bb5760006121858260086129a1565b60ff1685901c9050612196816121c1565b61ffff16831792508160ff166000146121b157601083901b92505b506000190161216c565b50915091565b60006121d360048360ff16901c6121f3565b60ff1661ffff919091161760081b6121ea826121f3565b60ff1617919050565b600060f08083179060ff8216900361220e5750603092915050565b8060ff1660f1036122225750603192915050565b8060ff1660f2036122365750603292915050565b8060ff1660f30361224a5750603392915050565b8060ff1660f40361225e5750603492915050565b8060ff1660f5036122725750603592915050565b8060ff1660f6036122865750603692915050565b8060ff1660f70361229a5750603792915050565b8060ff1660f8036122ae5750603892915050565b8060ff1660f9036122c25750603992915050565b8060ff1660fa036122d65750606192915050565b8060ff1660fb036122ea5750606292915050565b8060ff1660fc036122fe5750606392915050565b8060ff1660fd036123125750606492915050565b8060ff1660fe036123265750606592915050565b8060ff1660ff0361233a5750606692915050565b50919050565b6040518061040001604052806020906020820280368337509192915050565b80356001600160a01b038116811461237657600080fd5b919050565b60006020828403121561238d57600080fd5b610d178261235f565b6000602082840312156123a857600080fd5b5035919050565b634e487b7160e01b600052602160045260246000fd5b60208101600383106123e757634e487b7160e01b600052602160045260246000fd5b91905290565b634e487b7160e01b600052604160045260246000fd5b600082601f83011261241457600080fd5b813567ffffffffffffffff8082111561242f5761242f6123ed565b604051601f8301601f19908116603f01168101908282118183101715612457576124576123ed565b8160405283815286602085880101111561247057600080fd5b836020870160208301376000602085830101528094505050505092915050565b6000602082840312156124a257600080fd5b813567ffffffffffffffff8111156124b957600080fd5b611ec684828501612403565b600080600061044084860312156124db57600080fd5b833567ffffffffffffffff8111156124f257600080fd5b6124fe86828701612403565b93505061042084018581111561251357600080fd5b60208501925080359150509250925092565b6000806000806060858703121561253b57600080fd5b8435935061254b6020860161235f565b9250604085013567ffffffffffffffff8082111561256857600080fd5b818701915087601f83011261257c57600080fd5b81358181111561258b57600080fd5b88602082850101111561259d57600080fd5b95989497505060200194505050565b803563ffffffff8116811461237657600080fd5b6000602082840312156125d257600080fd5b610d17826125ac565b6000806000606084860312156125f057600080fd5b6125f9846125ac565b925060208401359150604084013567ffffffffffffffff81111561261c57600080fd5b61262886828701612403565b9150509250925092565b60005b8381101561264d578181015183820152602001612635565b838111156107295750506000910152565b60008151808452612676816020860160208601612632565b601f01601f19169290920160200192915050565b60408152600061269d604083018561265e565b905060018060a01b03831660208301529392505050565b634e487b7160e01b600052601160045260246000fd5b6000828210156126dc576126dc6126b4565b500390565b600063ffffffff808316818516808303821115612700576127006126b4565b01949350505050565b848152836020820152826040820152608060608201526000612025608083018461265e565b60008219821115612741576127416126b4565b500190565b600063ffffffff808716835280861660208401525083604083015260806060830152612025608083018461265e565b838152821515602082015260606040820152600061153d606083018461265e565b8051602080830151919081101561233a5760001960209190910360031b1b16919050565b600063ffffffff60e01b808960e01b168352876004840152808760e01b166024840152808660e01b1660288401525083602c830152825161280281604c850160208701612632565b91909101604c01979650505050505050565b600181815b8085111561284f578160001904821115612835576128356126b4565b8085161561284257918102915b93841c9390800290612819565b509250929050565b60008261286657506001610bd5565b8161287357506000610bd5565b81600181146128895760028114612893576128af565b6001915050610bd5565b60ff8411156128a4576128a46126b4565b50506001821b610bd5565b5060208310610133831016604e8410600b84101617156128d2575081810a610bd5565b6128dc8383612814565b80600019048211156128f0576128f06126b4565b029392505050565b6000610d178383612857565b634e487b7160e01b600052603260045260246000fd5b60008261293757634e487b7160e01b600052601260045260246000fd5b500490565b60006001820161294e5761294e6126b4565b5060010190565b634e487b7160e01b600052600160045260246000fd5b602081526000610d17602083018461265e565b600060ff821660ff841680821015612998576129986126b4565b90039392505050565b600060ff821660ff84168160ff04811182151516156128f0576128f06126b4565b7f54797065644d656d566965772f696e646578202d204f76657272616e20746865815274040ecd2caee5c40a6d8d2c6ca40d2e640c2e84060f605b1b60208201526001600160d01b031960d086811b821660358401526e040eed2e8d040d8cadccee8d04060f608b1b603b840181905286821b8316604a8501527f2e20417474656d7074656420746f20696e646578206174206f666673657420306050850152600f60fb1b607085015285821b83166071850152607784015283901b166086820152601760f91b608c8201526000608d820161202556fea264697066735822122032c7b0dc036860e174bd7d7b6b42c237259459b5bfac2d92309a6138042e70d064736f6c634300080f0033",
  "devdoc": {
    "kind": "dev",
    "methods": {
      "addSender(address)": {
        "details": "Only whitelisted routers can call `dispatch`"
      },
      "dispatch(uint32,bytes32,bytes)": {
        "details": "The root of this tree will eventually be dispatched to mainnet via `send`. On mainnet (the \"hub\"), it will be combined into a single aggregate root by RootManager (along with outbound roots from other chains). This aggregate root will be redistributed to all destination chains."
      },
      "home()": {
        "details": "The local inbox contract is a SpokeConnector with AMBs, and a Home contract with nomad",
        "returns": {
          "_0": "The local inbox contract"
        }
      },
      "isReplica(address)": {
        "returns": {
          "_0": "True if _potentialReplica is an enrolled Replica"
        }
      },
      "processMessage(bytes)": {
        "details": "This is called by AMBs to process messages originating from mirror connector"
      },
      "proveAndProcess(bytes,bytes32[32],uint256)": {
        "details": "Intended to be called by the relayer at specific intervals during runtime."
      },
      "removeSender(address)": {
        "details": "Only whitelisted routers can call `dispatch`"
      }
    },
    "version": 1
  },
  "userdoc": {
    "events": {
      "MessageProcessed(bytes,address)": {
        "notice": "Emitted whenever a message is successfully received over an AMB"
      },
      "MessageSent(bytes,address)": {
        "notice": "Emitted whenever a message is successfully sent over an AMB"
      }
    },
    "kind": "user",
    "methods": {
      "AMB()": {
        "notice": "Address of the AMB on this domain."
      },
      "DOMAIN()": {
        "notice": "The domain of this Messaging (i.e. Connector) contract."
      },
      "MIRROR_DOMAIN()": {
        "notice": "The domain of the corresponding messaging (i.e. Connector) contract."
      },
      "PROCESS_GAS()": {
        "notice": "Minimum gas for processing a received message (reserved for handle)"
      },
      "RESERVE_GAS()": {
        "notice": "Reserved gas (to ensure tx completes in case message processing runs out)"
      },
      "ROOT_MANAGER()": {
        "notice": "RootManager contract address."
      },
      "acceptProposedOwner()": {
        "notice": "Transfers ownership of the contract to a new account (`newOwner`). Can only be called by the current owner."
      },
      "addSender(address)": {
        "notice": "Adds a sender to the whitelist"
      },
      "aggregateRoot()": {
        "notice": "This tracks the root of the tree containing outbound roots from all other supported domains"
      },
      "count()": {
        "notice": "Returns the number of inserted leaves in the tree (current index)"
      },
      "delay()": {
        "notice": "Returns the delay period before a new owner can be accepted."
      },
      "dispatch(uint32,bytes32,bytes)": {
        "notice": "This function adds transfers to the outbound transfer merkle tree."
      },
      "home()": {
        "notice": "Get the local inbox contract from the xAppConnectionManager"
      },
      "isReplica(address)": {
        "notice": "Determine whether _potentialReplica is an enrolled Replica from the xAppConnectionManager"
      },
      "localDomain()": {
        "notice": "This provides the implementation for what is defined in the ConnectorManager to avoid storing the domain redundantly"
      },
      "messages(bytes32)": {
        "notice": "Mapping of message leaves to MessageStatus, keyed on leaf"
      },
      "mirrorConnector()": {
        "notice": "Connector on L2 for L1 connectors, and vice versa."
      },
      "mirrorGas()": {
        "notice": "Gas costs forwarded to the `processMessage` call on the mirror domain"
      },
      "nonces(uint32)": {
        "notice": "domain => next available nonce for the domain"
      },
      "outboundRoot()": {
        "notice": "This returns the root of all messages with the origin domain as this domain (i.e. all outbound messages)"
      },
      "owner()": {
        "notice": "Returns the address of the current owner."
      },
      "processMessage(bytes)": {
        "notice": "Processes a message received by an AMB"
      },
      "proposeNewOwner(address)": {
        "notice": "Sets the timestamp for an owner to be proposed, and sets the newly proposed owner as step 1 in a 2-step process"
      },
      "proposed()": {
        "notice": "Returns the address of the proposed owner."
      },
      "proposedTimestamp()": {
        "notice": "Returns the address of the proposed owner."
      },
      "proveAndProcess(bytes,bytes32[32],uint256)": {
        "notice": "Must be able to call the `handle` function on the BridgeRouter contract. This is called on the destination domain to handle incoming messages."
      },
      "provenRoots(bytes32)": {
        "notice": "This tracks whether the root has been proven to exist within the given aggregate root"
      },
      "removeSender(address)": {
        "notice": "Removes a sender from the whitelist"
      },
      "renounceOwnership()": {
        "notice": "Renounces ownership of the contract after a delay"
      },
      "renounced()": {
        "notice": "Indicates if the ownership has been renounced() by checking if current owner is address(0)"
      },
      "send()": {
        "notice": "This returns the root of all messages with the origin domain as this domain (i.e. all outbound messages)"
      },
      "setMirrorConnector(address)": {
        "notice": "Sets the address of the l2Connector for this domain"
      },
      "setMirrorGas(uint256)": {
        "notice": "Sets the address of the l2Connector for this domain"
      },
      "verifySender(address)": {
        "notice": "Checks the cross domain sender for a given address"
      }
    },
    "version": 1
  },
  "storageLayout": {
    "storage": [
      {
        "astId": 36166,
        "contract": "contracts/messaging/connectors/polygon/PolygonSpokeConnector.sol:PolygonSpokeConnector",
        "label": "_owner",
        "offset": 0,
        "slot": "0",
        "type": "t_address"
      },
      {
        "astId": 36168,
        "contract": "contracts/messaging/connectors/polygon/PolygonSpokeConnector.sol:PolygonSpokeConnector",
        "label": "_proposed",
        "offset": 0,
        "slot": "1",
        "type": "t_address"
      },
      {
        "astId": 36170,
        "contract": "contracts/messaging/connectors/polygon/PolygonSpokeConnector.sol:PolygonSpokeConnector",
        "label": "_proposedOwnershipTimestamp",
        "offset": 0,
        "slot": "2",
        "type": "t_uint256"
      },
      {
        "astId": 29620,
        "contract": "contracts/messaging/connectors/polygon/PolygonSpokeConnector.sol:PolygonSpokeConnector",
        "label": "mirrorConnector",
        "offset": 0,
        "slot": "3",
        "type": "t_address"
      },
      {
        "astId": 29623,
        "contract": "contracts/messaging/connectors/polygon/PolygonSpokeConnector.sol:PolygonSpokeConnector",
        "label": "mirrorGas",
        "offset": 0,
        "slot": "4",
        "type": "t_uint256"
      },
      {
        "astId": 29136,
        "contract": "contracts/messaging/connectors/polygon/PolygonSpokeConnector.sol:PolygonSpokeConnector",
        "label": "tree",
        "offset": 0,
        "slot": "5",
        "type": "t_struct(Tree)34952_storage"
      },
      {
        "astId": 2887,
        "contract": "contracts/messaging/connectors/polygon/PolygonSpokeConnector.sol:PolygonSpokeConnector",
        "label": "_status",
        "offset": 0,
        "slot": "38",
        "type": "t_uint256"
      },
      {
        "astId": 30178,
        "contract": "contracts/messaging/connectors/polygon/PolygonSpokeConnector.sol:PolygonSpokeConnector",
        "label": "aggregateRoot",
        "offset": 0,
        "slot": "39",
        "type": "t_bytes32"
      },
      {
        "astId": 30183,
        "contract": "contracts/messaging/connectors/polygon/PolygonSpokeConnector.sol:PolygonSpokeConnector",
        "label": "provenRoots",
        "offset": 0,
        "slot": "40",
        "type": "t_mapping(t_bytes32,t_bool)"
      },
      {
        "astId": 30188,
        "contract": "contracts/messaging/connectors/polygon/PolygonSpokeConnector.sol:PolygonSpokeConnector",
        "label": "whitelistedSenders",
        "offset": 0,
        "slot": "41",
        "type": "t_mapping(t_address,t_bool)"
      },
      {
        "astId": 30193,
        "contract": "contracts/messaging/connectors/polygon/PolygonSpokeConnector.sol:PolygonSpokeConnector",
        "label": "nonces",
        "offset": 0,
        "slot": "42",
        "type": "t_mapping(t_uint32,t_uint32)"
      },
      {
        "astId": 30199,
        "contract": "contracts/messaging/connectors/polygon/PolygonSpokeConnector.sol:PolygonSpokeConnector",
        "label": "messages",
        "offset": 0,
        "slot": "43",
        "type": "t_mapping(t_bytes32,t_enum(MessageStatus)30169)"
      },
      {
        "astId": 34098,
        "contract": "contracts/messaging/connectors/polygon/PolygonSpokeConnector.sol:PolygonSpokeConnector",
        "label": "fxChild",
        "offset": 0,
        "slot": "44",
        "type": "t_address"
      },
      {
        "astId": 34100,
        "contract": "contracts/messaging/connectors/polygon/PolygonSpokeConnector.sol:PolygonSpokeConnector",
        "label": "fxRootTunnel",
        "offset": 0,
        "slot": "45",
        "type": "t_address"
      }
    ],
    "types": {
      "t_address": {
        "encoding": "inplace",
        "label": "address",
        "numberOfBytes": "20"
      },
      "t_array(t_bytes32)32_storage": {
        "base": "t_bytes32",
        "encoding": "inplace",
        "label": "bytes32[32]",
        "numberOfBytes": "1024"
      },
      "t_bool": {
        "encoding": "inplace",
        "label": "bool",
        "numberOfBytes": "1"
      },
      "t_bytes32": {
        "encoding": "inplace",
        "label": "bytes32",
        "numberOfBytes": "32"
      },
      "t_enum(MessageStatus)30169": {
        "encoding": "inplace",
        "label": "enum SpokeConnector.MessageStatus",
        "numberOfBytes": "1"
      },
      "t_mapping(t_address,t_bool)": {
        "encoding": "mapping",
        "key": "t_address",
        "label": "mapping(address => bool)",
        "numberOfBytes": "32",
        "value": "t_bool"
      },
      "t_mapping(t_bytes32,t_bool)": {
        "encoding": "mapping",
        "key": "t_bytes32",
        "label": "mapping(bytes32 => bool)",
        "numberOfBytes": "32",
        "value": "t_bool"
      },
      "t_mapping(t_bytes32,t_enum(MessageStatus)30169)": {
        "encoding": "mapping",
        "key": "t_bytes32",
        "label": "mapping(bytes32 => enum SpokeConnector.MessageStatus)",
        "numberOfBytes": "32",
        "value": "t_enum(MessageStatus)30169"
      },
      "t_mapping(t_uint32,t_uint32)": {
        "encoding": "mapping",
        "key": "t_uint32",
        "label": "mapping(uint32 => uint32)",
        "numberOfBytes": "32",
        "value": "t_uint32"
      },
      "t_struct(Tree)34952_storage": {
        "encoding": "inplace",
        "label": "struct MerkleLib.Tree",
        "members": [
          {
            "astId": 34949,
            "contract": "contracts/messaging/connectors/polygon/PolygonSpokeConnector.sol:PolygonSpokeConnector",
            "label": "branch",
            "offset": 0,
            "slot": "0",
            "type": "t_array(t_bytes32)32_storage"
          },
          {
            "astId": 34951,
            "contract": "contracts/messaging/connectors/polygon/PolygonSpokeConnector.sol:PolygonSpokeConnector",
            "label": "count",
            "offset": 0,
            "slot": "32",
            "type": "t_uint256"
          }
        ],
        "numberOfBytes": "1056"
      },
      "t_uint256": {
        "encoding": "inplace",
        "label": "uint256",
        "numberOfBytes": "32"
      },
      "t_uint32": {
        "encoding": "inplace",
        "label": "uint32",
        "numberOfBytes": "4"
      }
    }
  }
}