{
  "address": "0x65F4D21dA324447F3BF2424A90Be45337bc3314b",
  "abi": [
    {
      "inputs": [
        {
          "internalType": "uint32",
          "name": "_domain",
          "type": "uint32"
        },
        {
          "internalType": "uint32",
          "name": "_mirrorDomain",
          "type": "uint32"
        },
        {
          "internalType": "address",
          "name": "_amb",
          "type": "address"
        },
        {
          "internalType": "address",
          "name": "_rootManager",
          "type": "address"
        },
        {
          "internalType": "address",
          "name": "_mirrorConnector",
          "type": "address"
        },
        {
          "internalType": "uint256",
          "name": "_processGas",
          "type": "uint256"
        },
        {
          "internalType": "uint256",
          "name": "_reserveGas",
          "type": "uint256"
        },
        {
          "internalType": "uint256",
          "name": "_delayBlocks",
          "type": "uint256"
        },
        {
          "internalType": "address",
          "name": "_merkle",
          "type": "address"
        },
        {
          "internalType": "address",
          "name": "_watcherManager",
          "type": "address"
        }
      ],
      "stateMutability": "nonpayable",
      "type": "constructor"
    },
    {
      "inputs": [],
      "name": "Connector__processMessage_notUsed",
      "type": "error"
    },
    {
      "inputs": [],
      "name": "ProposedOwnable__onlyOwner_notOwner",
      "type": "error"
    },
    {
      "inputs": [],
      "name": "ProposedOwnable__onlyProposed_notProposedOwner",
      "type": "error"
    },
    {
      "inputs": [],
      "name": "ProposedOwnable__ownershipDelayElapsed_delayNotElapsed",
      "type": "error"
    },
    {
      "inputs": [],
      "name": "ProposedOwnable__proposeNewOwner_invalidProposal",
      "type": "error"
    },
    {
      "inputs": [],
      "name": "ProposedOwnable__proposeNewOwner_noOwnershipChange",
      "type": "error"
    },
    {
      "inputs": [],
      "name": "ProposedOwnable__renounceOwnership_invalidProposal",
      "type": "error"
    },
    {
      "inputs": [],
      "name": "ProposedOwnable__renounceOwnership_noProposal",
      "type": "error"
    },
    {
      "inputs": [],
      "name": "RateLimited__rateLimited_messageSendRateExceeded",
      "type": "error"
    },
    {
      "inputs": [],
      "name": "TypedMemView__index_indexMoreThan32Bytes",
      "type": "error"
    },
    {
      "inputs": [
        {
          "internalType": "uint256",
          "name": "loc",
          "type": "uint256"
        },
        {
          "internalType": "uint256",
          "name": "len",
          "type": "uint256"
        },
        {
          "internalType": "uint256",
          "name": "index",
          "type": "uint256"
        },
        {
          "internalType": "uint256",
          "name": "slice",
          "type": "uint256"
        }
      ],
      "name": "TypedMemView__index_overrun",
      "type": "error"
    },
    {
      "inputs": [],
      "name": "TypedMemView__unsafeCopyTo_identityOOG",
      "type": "error"
    },
    {
      "inputs": [],
      "name": "TypedMemView__unsafeCopyTo_invalidPointer",
      "type": "error"
    },
    {
      "inputs": [],
      "name": "TypedMemView__unsafeCopyTo_nullPointer",
      "type": "error"
    },
    {
      "anonymous": false,
      "inputs": [
        {
          "indexed": false,
          "internalType": "bytes32",
          "name": "root",
          "type": "bytes32"
        }
      ],
      "name": "AggregateRootReceived",
      "type": "event"
    },
    {
      "anonymous": false,
      "inputs": [
        {
          "indexed": false,
          "internalType": "bytes32",
          "name": "root",
          "type": "bytes32"
        }
      ],
      "name": "AggregateRootRemoved",
      "type": "event"
    },
    {
      "anonymous": false,
      "inputs": [
        {
          "indexed": true,
          "internalType": "bytes32",
          "name": "root",
          "type": "bytes32"
        }
      ],
      "name": "AggregateRootVerified",
      "type": "event"
    },
    {
      "anonymous": false,
      "inputs": [
        {
          "indexed": true,
          "internalType": "uint256",
          "name": "updated",
          "type": "uint256"
        },
        {
          "indexed": false,
          "internalType": "address",
          "name": "caller",
          "type": "address"
        }
      ],
      "name": "DelayBlocksUpdated",
      "type": "event"
    },
    {
      "anonymous": false,
      "inputs": [
        {
          "indexed": false,
          "internalType": "bytes32",
          "name": "leaf",
          "type": "bytes32"
        },
        {
          "indexed": false,
          "internalType": "uint256",
          "name": "index",
          "type": "uint256"
        },
        {
          "indexed": false,
          "internalType": "bytes32",
          "name": "root",
          "type": "bytes32"
        },
        {
          "indexed": false,
          "internalType": "bytes",
          "name": "message",
          "type": "bytes"
        }
      ],
      "name": "Dispatch",
      "type": "event"
    },
    {
      "anonymous": false,
      "inputs": [
        {
          "indexed": true,
          "internalType": "address",
          "name": "to",
          "type": "address"
        },
        {
          "indexed": false,
          "internalType": "uint256",
          "name": "amount",
          "type": "uint256"
        }
      ],
      "name": "FundsWithdrawn",
      "type": "event"
    },
    {
      "anonymous": false,
      "inputs": [
        {
          "indexed": false,
          "internalType": "bytes",
          "name": "data",
          "type": "bytes"
        },
        {
          "indexed": false,
          "internalType": "address",
          "name": "caller",
          "type": "address"
        }
      ],
      "name": "MessageProcessed",
      "type": "event"
    },
    {
      "anonymous": false,
      "inputs": [
        {
          "indexed": true,
          "internalType": "bytes32",
          "name": "leaf",
          "type": "bytes32"
        },
        {
          "indexed": true,
          "internalType": "bytes32",
          "name": "aggregateRoot",
          "type": "bytes32"
        },
        {
          "indexed": false,
          "internalType": "uint256",
          "name": "aggregateIndex",
          "type": "uint256"
        }
      ],
      "name": "MessageProven",
      "type": "event"
    },
    {
      "anonymous": false,
      "inputs": [
        {
          "indexed": false,
          "internalType": "bytes",
          "name": "message",
          "type": "bytes"
        }
      ],
      "name": "MessageSent",
      "type": "event"
    },
    {
      "anonymous": false,
      "inputs": [
        {
          "indexed": false,
          "internalType": "bytes",
          "name": "data",
          "type": "bytes"
        },
        {
          "indexed": false,
          "internalType": "bytes",
          "name": "encodedData",
          "type": "bytes"
        },
        {
          "indexed": false,
          "internalType": "address",
          "name": "caller",
          "type": "address"
        }
      ],
      "name": "MessageSent",
      "type": "event"
    },
    {
      "anonymous": false,
      "inputs": [
        {
          "indexed": false,
          "internalType": "address",
          "name": "previous",
          "type": "address"
        },
        {
          "indexed": false,
          "internalType": "address",
          "name": "current",
          "type": "address"
        }
      ],
      "name": "MirrorConnectorUpdated",
      "type": "event"
    },
    {
      "anonymous": false,
      "inputs": [
        {
          "indexed": true,
          "internalType": "uint32",
          "name": "domain",
          "type": "uint32"
        },
        {
          "indexed": true,
          "internalType": "uint32",
          "name": "mirrorDomain",
          "type": "uint32"
        },
        {
          "indexed": false,
          "internalType": "address",
          "name": "amb",
          "type": "address"
        },
        {
          "indexed": false,
          "internalType": "address",
          "name": "rootManager",
          "type": "address"
        },
        {
          "indexed": false,
          "internalType": "address",
          "name": "mirrorConnector",
          "type": "address"
        }
      ],
      "name": "NewConnector",
      "type": "event"
    },
    {
      "anonymous": false,
      "inputs": [
        {
          "indexed": true,
          "internalType": "address",
          "name": "proposedOwner",
          "type": "address"
        }
      ],
      "name": "OwnershipProposed",
      "type": "event"
    },
    {
      "anonymous": false,
      "inputs": [
        {
          "indexed": true,
          "internalType": "address",
          "name": "previousOwner",
          "type": "address"
        },
        {
          "indexed": true,
          "internalType": "address",
          "name": "newOwner",
          "type": "address"
        }
      ],
      "name": "OwnershipTransferred",
      "type": "event"
    },
    {
      "anonymous": false,
      "inputs": [
        {
          "indexed": false,
          "internalType": "address",
          "name": "account",
          "type": "address"
        }
      ],
      "name": "Paused",
      "type": "event"
    },
    {
      "anonymous": false,
      "inputs": [
        {
          "indexed": false,
          "internalType": "bytes32",
          "name": "leaf",
          "type": "bytes32"
        },
        {
          "indexed": false,
          "internalType": "bool",
          "name": "success",
          "type": "bool"
        },
        {
          "indexed": false,
          "internalType": "bytes",
          "name": "returnData",
          "type": "bytes"
        }
      ],
      "name": "Process",
      "type": "event"
    },
    {
      "anonymous": false,
      "inputs": [
        {
          "indexed": false,
          "internalType": "address",
          "name": "updater",
          "type": "address"
        },
        {
          "indexed": false,
          "internalType": "uint256",
          "name": "newRateLimit",
          "type": "uint256"
        }
      ],
      "name": "SendRateLimitUpdated",
      "type": "event"
    },
    {
      "anonymous": false,
      "inputs": [
        {
          "indexed": false,
          "internalType": "address",
          "name": "sender",
          "type": "address"
        }
      ],
      "name": "SenderAdded",
      "type": "event"
    },
    {
      "anonymous": false,
      "inputs": [
        {
          "indexed": false,
          "internalType": "address",
          "name": "sender",
          "type": "address"
        }
      ],
      "name": "SenderRemoved",
      "type": "event"
    },
    {
      "anonymous": false,
      "inputs": [
        {
          "indexed": true,
          "internalType": "uint256",
          "name": "snapshotId",
          "type": "uint256"
        },
        {
          "indexed": true,
          "internalType": "bytes32",
          "name": "root",
          "type": "bytes32"
        },
        {
          "indexed": true,
          "internalType": "uint256",
          "name": "count",
          "type": "uint256"
        }
      ],
      "name": "SnapshotRootSaved",
      "type": "event"
    },
    {
      "anonymous": false,
      "inputs": [
        {
          "indexed": false,
          "internalType": "address",
          "name": "account",
          "type": "address"
        }
      ],
      "name": "Unpaused",
      "type": "event"
    },
    {
      "anonymous": false,
      "inputs": [
        {
          "indexed": false,
          "internalType": "address",
          "name": "watcherManager",
          "type": "address"
        }
      ],
      "name": "WatcherManagerChanged",
      "type": "event"
    },
    {
      "inputs": [],
      "name": "AMB",
      "outputs": [
        {
          "internalType": "address",
          "name": "",
          "type": "address"
        }
      ],
      "stateMutability": "view",
      "type": "function"
    },
    {
      "inputs": [],
      "name": "DOMAIN",
      "outputs": [
        {
          "internalType": "uint32",
          "name": "",
          "type": "uint32"
        }
      ],
      "stateMutability": "view",
      "type": "function"
    },
    {
      "inputs": [],
      "name": "MERKLE",
      "outputs": [
        {
          "internalType": "contract MerkleTreeManager",
          "name": "",
          "type": "address"
        }
      ],
      "stateMutability": "view",
      "type": "function"
    },
    {
      "inputs": [],
      "name": "MIRROR_DOMAIN",
      "outputs": [
        {
          "internalType": "uint32",
          "name": "",
          "type": "uint32"
        }
      ],
      "stateMutability": "view",
      "type": "function"
    },
    {
      "inputs": [],
      "name": "PROCESS_GAS",
      "outputs": [
        {
          "internalType": "uint256",
          "name": "",
          "type": "uint256"
        }
      ],
      "stateMutability": "view",
      "type": "function"
    },
    {
      "inputs": [],
      "name": "RESERVE_GAS",
      "outputs": [
        {
          "internalType": "uint256",
          "name": "",
          "type": "uint256"
        }
      ],
      "stateMutability": "view",
      "type": "function"
    },
    {
      "inputs": [],
      "name": "ROOT_MANAGER",
      "outputs": [
        {
          "internalType": "address",
          "name": "",
          "type": "address"
        }
      ],
      "stateMutability": "view",
      "type": "function"
    },
    {
      "inputs": [],
      "name": "acceptProposedOwner",
      "outputs": [],
      "stateMutability": "nonpayable",
      "type": "function"
    },
    {
      "inputs": [
        {
          "internalType": "address",
          "name": "_sender",
          "type": "address"
        }
      ],
      "name": "addSender",
      "outputs": [],
      "stateMutability": "nonpayable",
      "type": "function"
    },
    {
      "inputs": [
        {
          "internalType": "address",
          "name": "",
          "type": "address"
        }
      ],
      "name": "allowlistedSenders",
      "outputs": [
        {
          "internalType": "bool",
          "name": "",
          "type": "bool"
        }
      ],
      "stateMutability": "view",
      "type": "function"
    },
    {
      "inputs": [],
      "name": "delay",
      "outputs": [
        {
          "internalType": "uint256",
          "name": "",
          "type": "uint256"
        }
      ],
      "stateMutability": "view",
      "type": "function"
    },
    {
      "inputs": [],
      "name": "delayBlocks",
      "outputs": [
        {
          "internalType": "uint256",
          "name": "",
          "type": "uint256"
        }
      ],
      "stateMutability": "view",
      "type": "function"
    },
    {
      "inputs": [
        {
          "internalType": "uint32",
          "name": "_destinationDomain",
          "type": "uint32"
        },
        {
          "internalType": "bytes32",
          "name": "_recipientAddress",
          "type": "bytes32"
        },
        {
          "internalType": "bytes",
          "name": "_messageBody",
          "type": "bytes"
        }
      ],
      "name": "dispatch",
      "outputs": [
        {
          "internalType": "bytes32",
          "name": "",
          "type": "bytes32"
        },
        {
          "internalType": "bytes",
          "name": "",
          "type": "bytes"
        }
      ],
      "stateMutability": "nonpayable",
      "type": "function"
    },
    {
      "inputs": [],
      "name": "fxChild",
      "outputs": [
        {
          "internalType": "address",
          "name": "",
          "type": "address"
        }
      ],
      "stateMutability": "view",
      "type": "function"
    },
    {
      "inputs": [],
      "name": "fxRootTunnel",
      "outputs": [
        {
          "internalType": "address",
          "name": "",
          "type": "address"
        }
      ],
      "stateMutability": "view",
      "type": "function"
    },
    {
      "inputs": [],
      "name": "getLastCompletedSnapshotId",
      "outputs": [
        {
          "internalType": "uint256",
          "name": "_lastCompletedSnapshotId",
          "type": "uint256"
        }
      ],
      "stateMutability": "view",
      "type": "function"
    },
    {
      "inputs": [],
      "name": "getSnapshotDuration",
      "outputs": [
        {
          "internalType": "uint256",
          "name": "_snapshotDuration",
          "type": "uint256"
        }
      ],
      "stateMutability": "pure",
      "type": "function"
    },
    {
      "inputs": [],
      "name": "home",
      "outputs": [
        {
          "internalType": "contract IOutbox",
          "name": "",
          "type": "address"
        }
      ],
      "stateMutability": "view",
      "type": "function"
    },
    {
      "inputs": [
        {
          "internalType": "address",
          "name": "_potentialReplica",
          "type": "address"
        }
      ],
      "name": "isReplica",
      "outputs": [
        {
          "internalType": "bool",
          "name": "",
          "type": "bool"
        }
      ],
      "stateMutability": "view",
      "type": "function"
    },
    {
      "inputs": [],
      "name": "lastSentBlock",
      "outputs": [
        {
          "internalType": "uint256",
          "name": "",
          "type": "uint256"
        }
      ],
      "stateMutability": "view",
      "type": "function"
    },
    {
      "inputs": [],
      "name": "localDomain",
      "outputs": [
        {
          "internalType": "uint32",
          "name": "",
          "type": "uint32"
        }
      ],
      "stateMutability": "view",
      "type": "function"
    },
    {
      "inputs": [
        {
          "internalType": "bytes32",
          "name": "",
          "type": "bytes32"
        }
      ],
      "name": "messages",
      "outputs": [
        {
          "internalType": "enum SpokeConnector.MessageStatus",
          "name": "",
          "type": "uint8"
        }
      ],
      "stateMutability": "view",
      "type": "function"
    },
    {
      "inputs": [],
      "name": "mirrorConnector",
      "outputs": [
        {
          "internalType": "address",
          "name": "",
          "type": "address"
        }
      ],
      "stateMutability": "view",
      "type": "function"
    },
    {
      "inputs": [
        {
          "internalType": "uint32",
          "name": "",
          "type": "uint32"
        }
      ],
      "name": "nonces",
      "outputs": [
        {
          "internalType": "uint32",
          "name": "",
          "type": "uint32"
        }
      ],
      "stateMutability": "view",
      "type": "function"
    },
    {
      "inputs": [],
      "name": "outboundRoot",
      "outputs": [
        {
          "internalType": "bytes32",
          "name": "",
          "type": "bytes32"
        }
      ],
      "stateMutability": "view",
      "type": "function"
    },
    {
      "inputs": [],
      "name": "owner",
      "outputs": [
        {
          "internalType": "address",
          "name": "",
          "type": "address"
        }
      ],
      "stateMutability": "view",
      "type": "function"
    },
    {
      "inputs": [],
      "name": "pause",
      "outputs": [],
      "stateMutability": "nonpayable",
      "type": "function"
    },
    {
      "inputs": [],
      "name": "paused",
      "outputs": [
        {
          "internalType": "bool",
          "name": "",
          "type": "bool"
        }
      ],
      "stateMutability": "view",
      "type": "function"
    },
    {
      "inputs": [
        {
          "internalType": "bytes32",
          "name": "",
          "type": "bytes32"
        }
      ],
      "name": "pendingAggregateRoots",
      "outputs": [
        {
          "internalType": "uint256",
          "name": "",
          "type": "uint256"
        }
      ],
      "stateMutability": "view",
      "type": "function"
    },
    {
      "inputs": [
        {
          "internalType": "bytes",
          "name": "_data",
          "type": "bytes"
        }
      ],
      "name": "processMessage",
      "outputs": [],
      "stateMutability": "nonpayable",
      "type": "function"
    },
    {
      "inputs": [
        {
          "internalType": "uint256",
          "name": "stateId",
          "type": "uint256"
        },
        {
          "internalType": "address",
          "name": "rootMessageSender",
          "type": "address"
        },
        {
          "internalType": "bytes",
          "name": "data",
          "type": "bytes"
        }
      ],
      "name": "processMessageFromRoot",
      "outputs": [],
      "stateMutability": "nonpayable",
      "type": "function"
    },
    {
      "inputs": [
        {
          "internalType": "address",
          "name": "newlyProposed",
          "type": "address"
        }
      ],
      "name": "proposeNewOwner",
      "outputs": [],
      "stateMutability": "nonpayable",
      "type": "function"
    },
    {
      "inputs": [],
      "name": "proposed",
      "outputs": [
        {
          "internalType": "address",
          "name": "",
          "type": "address"
        }
      ],
      "stateMutability": "view",
      "type": "function"
    },
    {
      "inputs": [],
      "name": "proposedTimestamp",
      "outputs": [
        {
          "internalType": "uint256",
          "name": "",
          "type": "uint256"
        }
      ],
      "stateMutability": "view",
      "type": "function"
    },
    {
      "inputs": [
        {
          "components": [
            {
              "internalType": "bytes",
              "name": "message",
              "type": "bytes"
            },
            {
              "internalType": "bytes32[32]",
              "name": "path",
              "type": "bytes32[32]"
            },
            {
              "internalType": "uint256",
              "name": "index",
              "type": "uint256"
            }
          ],
          "internalType": "struct SpokeConnector.Proof[]",
          "name": "_proofs",
          "type": "tuple[]"
        },
        {
          "internalType": "bytes32",
          "name": "_aggregateRoot",
          "type": "bytes32"
        },
        {
          "internalType": "bytes32[32]",
          "name": "_aggregatePath",
          "type": "bytes32[32]"
        },
        {
          "internalType": "uint256",
          "name": "_aggregateIndex",
          "type": "uint256"
        }
      ],
      "name": "proveAndProcess",
      "outputs": [],
      "stateMutability": "nonpayable",
      "type": "function"
    },
    {
      "inputs": [
        {
          "internalType": "bytes32",
          "name": "",
          "type": "bytes32"
        }
      ],
      "name": "provenAggregateRoots",
      "outputs": [
        {
          "internalType": "bool",
          "name": "",
          "type": "bool"
        }
      ],
      "stateMutability": "view",
      "type": "function"
    },
    {
      "inputs": [
        {
          "internalType": "bytes32",
          "name": "",
          "type": "bytes32"
        }
      ],
      "name": "provenMessageRoots",
      "outputs": [
        {
          "internalType": "bool",
          "name": "",
          "type": "bool"
        }
      ],
      "stateMutability": "view",
      "type": "function"
    },
    {
      "inputs": [],
      "name": "rateLimitBlocks",
      "outputs": [
        {
          "internalType": "uint256",
          "name": "",
          "type": "uint256"
        }
      ],
      "stateMutability": "view",
      "type": "function"
    },
    {
      "inputs": [
        {
          "internalType": "bytes32",
          "name": "_fraudulentRoot",
          "type": "bytes32"
        }
      ],
      "name": "removePendingAggregateRoot",
      "outputs": [],
      "stateMutability": "nonpayable",
      "type": "function"
    },
    {
      "inputs": [
        {
          "internalType": "address",
          "name": "_sender",
          "type": "address"
        }
      ],
      "name": "removeSender",
      "outputs": [],
      "stateMutability": "nonpayable",
      "type": "function"
    },
    {
      "inputs": [],
      "name": "renounceOwnership",
      "outputs": [],
      "stateMutability": "nonpayable",
      "type": "function"
    },
    {
      "inputs": [],
      "name": "renounced",
      "outputs": [
        {
          "internalType": "bool",
          "name": "",
          "type": "bool"
        }
      ],
      "stateMutability": "view",
      "type": "function"
    },
    {
      "inputs": [
        {
          "internalType": "bytes",
          "name": "_encodedData",
          "type": "bytes"
        }
      ],
      "name": "send",
      "outputs": [],
      "stateMutability": "payable",
      "type": "function"
    },
    {
      "inputs": [
        {
          "internalType": "bytes32",
          "name": "",
          "type": "bytes32"
        }
      ],
      "name": "sentMessageRoots",
      "outputs": [
        {
          "internalType": "bool",
          "name": "",
          "type": "bool"
        }
      ],
      "stateMutability": "view",
      "type": "function"
    },
    {
      "inputs": [
        {
          "internalType": "uint256",
          "name": "_delayBlocks",
          "type": "uint256"
        }
      ],
      "name": "setDelayBlocks",
      "outputs": [],
      "stateMutability": "nonpayable",
      "type": "function"
    },
    {
      "inputs": [
        {
          "internalType": "address",
          "name": "_mirrorConnector",
          "type": "address"
        }
      ],
      "name": "setMirrorConnector",
      "outputs": [],
      "stateMutability": "nonpayable",
      "type": "function"
    },
    {
      "inputs": [
        {
          "internalType": "uint256",
          "name": "_rateLimit",
          "type": "uint256"
        }
      ],
      "name": "setRateLimitBlocks",
      "outputs": [],
      "stateMutability": "nonpayable",
      "type": "function"
    },
    {
      "inputs": [
        {
          "internalType": "address",
          "name": "_watcherManager",
          "type": "address"
        }
      ],
      "name": "setWatcherManager",
      "outputs": [],
      "stateMutability": "nonpayable",
      "type": "function"
    },
    {
      "inputs": [
        {
          "internalType": "uint256",
          "name": "",
          "type": "uint256"
        }
      ],
      "name": "snapshotRoots",
      "outputs": [
        {
          "internalType": "bytes32",
          "name": "",
          "type": "bytes32"
        }
      ],
      "stateMutability": "view",
      "type": "function"
    },
    {
      "inputs": [],
      "name": "unpause",
      "outputs": [],
      "stateMutability": "nonpayable",
      "type": "function"
    },
    {
      "inputs": [
        {
          "internalType": "address",
          "name": "_expected",
          "type": "address"
        }
      ],
      "name": "verifySender",
      "outputs": [
        {
          "internalType": "bool",
          "name": "",
          "type": "bool"
        }
      ],
      "stateMutability": "nonpayable",
      "type": "function"
    },
    {
      "inputs": [],
      "name": "watcherManager",
      "outputs": [
        {
          "internalType": "contract WatcherManager",
          "name": "",
          "type": "address"
        }
      ],
      "stateMutability": "view",
      "type": "function"
    },
    {
      "inputs": [
        {
          "internalType": "address",
          "name": "_to",
          "type": "address"
        }
      ],
      "name": "withdrawFunds",
      "outputs": [],
      "stateMutability": "nonpayable",
      "type": "function"
    },
    {
      "stateMutability": "payable",
      "type": "receive"
    }
  ],
  "transactionHash": "0x523c9cae0a41633b11c9c6bfb8ca4488e07e58e13dfe527c7b3eae865965b266",
  "args": [
    "9991",
    "1735353714",
    "0xCf73231F28B7331BBe3124B907840A94851f9f11",
    "0x6F178D09c7F1fC7ADC97AAF0bFe5446635989AE4",
    "0x0000000000000000000000000000000000000000",
    "850000",
    "15000",
    120,
    "0x4d146573dD5F94d3eCd4955742182Af8A4175867",
    "0x429747fc6A64Da7eD2Bf0c85d447768fa761b144"
  ],
  "numDeployments": 1,
  "solcInputHash": "b9c6ff421730959a683bd8b272d2830d",
  "bytecode": "0x6101606040523480156200001257600080fd5b5060405162003df238038062003df2833981016040819052620000359162000483565b878a8a828a8a8a8a8a8a8a808a8a8a8a8a6200005133620002cf565b8463ffffffff166000036200009c5760405162461bcd60e51b815260206004820152600c60248201526b32b6b83a3c903237b6b0b4b760a11b60448201526064015b60405180910390fd5b6001600160a01b038216620000e85760405162461bcd60e51b815260206004820152601160248201527032b6b83a3c903937b7ba26b0b730b3b2b960791b604482015260640162000093565b63ffffffff8086166080526001600160a01b0380851660a05283811660c05290851660e0528116156200012057620001208162000334565b604080516001600160a01b0385811682528481166020830152831681830152905163ffffffff86811692908816917f4f9c27c2fe3f84576ea469d367d044da53c45e951617e8389f2b5ed8db9d25f09181900360600190a350506003805460ff60a01b191690555050600480546001600160a01b0319166001600160a01b039390931692909217909155506001600755620cf84f8511620001f35760405162461bcd60e51b815260206004820152600c60248201526b2170726f636573732067617360a01b604482015260640162000093565b613a978411620002355760405162461bcd60e51b815260206004820152600c60248201526b21726573657276652067617360a01b604482015260640162000093565b6101208590526101408490526001600160a01b038216620002885760405162461bcd60e51b815260206004820152600c60248201526b217a65726f206d65726b6c6560a01b604482015260640162000093565b506001600160a01b0390811661010052600891909155601180546001600160a01b031916999091169890981790975550620005379f50505050505050505050505050505050565b600080546040516001600160a01b03808516939216917f8be0079c531659141344cd1fd0a4f28419497f9722a3daafe3b4186f6b6457e091a3600080546001600160a01b039092166001600160a01b0319928316178155600255600180549091169055565b6200034a816200035860201b62001a991760201c565b6200035581620003c1565b50565b600354604080516001600160a01b03928316815291831660208301527fc77bec288fc88f168427f2f7da682eadb26cac89d8d591af6e443da98dff2bbc910160405180910390a1600380546001600160a01b0319166001600160a01b0392909216919091179055565b6012546001600160a01b0316156200042f5760405162461bcd60e51b815260206004820152602a60248201527f4678426173654368696c6454756e6e656c3a20524f4f545f54554e4e454c5f4160448201526913149150511657d4d15560b21b606482015260840162000093565b601280546001600160a01b0319166001600160a01b0392909216919091179055565b805163ffffffff811681146200046657600080fd5b919050565b80516001600160a01b03811681146200046657600080fd5b6000806000806000806000806000806101408b8d031215620004a457600080fd5b620004af8b62000451565b9950620004bf60208c0162000451565b9850620004cf60408c016200046b565b9750620004df60608c016200046b565b9650620004ef60808c016200046b565b955060a08b0151945060c08b0151935060e08b01519250620005156101008c016200046b565b9150620005266101208c016200046b565b90509295989b9194979a5092959850565b60805160a05160c05160e05161010051610120516101405161380c620005e6600039600081816103ac0152611f68015260008181610a2e01528181611f89015261201601526000818161082901528181610bab015281816110eb015281816117cf0152818161186b01526119c80152600061033c0152600061062f0152600081816109e40152610d53015260008181610576015281816107450152818161196a0152611e68015261380c6000f3fe60806040526004361061031e5760003560e01c80638456cb59116101ab578063b95a2001116100f7578063d3c805b711610095578063d88beda21161006f578063d88beda214610a1c578063db1b765914610a50578063e0fed01014610a70578063fa31de0114610a9057600080fd5b8063d3c805b7146109bd578063d69f9d61146109d2578063d7d317b314610a0657600080fd5b8063d1745e4f116100d1578063d1745e4f14610949578063d1851c9214610960578063d232c2201461097e578063d2a3cc711461099d57600080fd5b8063b95a2001146108e1578063c5b350df14610914578063cc3942831461092957600080fd5b80639fa92f9d11610164578063ad9c0c2e1161013e578063ad9c0c2e1461086b578063b1f8100d14610881578063b2f87643146108a1578063b697f531146108c157600080fd5b80639fa92f9d14610804578063a01892a514610817578063a792c29b1461084b57600080fd5b80638456cb59146107215780638d3638f4146107365780638da5cb5b1461076957806398c9f2b9146107875780639a7c4b71146107b75780639d3117c7146107d757600080fd5b806352a9674b1161026a5780636159ada1116102235780636a42b8f8116101fd5780636a42b8f8146106b65780636b04a933146106cc578063715018a6146106ec5780637f1e9cb01461070157600080fd5b80636159ada11461065157806365eaf11b1461068157806368742da61461069657600080fd5b806352a9674b14610564578063572386ca14610598578063579c1618146105c85780635bd11efc146105de5780635c975abb146105fe5780635f61e3ec1461061d57600080fd5b80633cf52ffb116102d75780634ff746f6116102b15780634ff746f6146104ce578063508a109b146104ee5780635190bc531461050e57806351cc57cc1461053757600080fd5b80633cf52ffb1461046c5780633f4ba83a14610481578063450d11f01461049657600080fd5b8063141684161461032a5780631eeaabea1461037857806325e3beda1461039a5780632bb1ae7c146103dc5780632bbd59ca146103ef578063301f07c31461042c57600080fd5b3661032557005b600080fd5b34801561033657600080fd5b5061035e7f000000000000000000000000000000000000000000000000000000000000000081565b60405163ffffffff90911681526020015b60405180910390f35b34801561038457600080fd5b50610398610393366004613154565b610abe565b005b3480156103a657600080fd5b506103ce7f000000000000000000000000000000000000000000000000000000000000000081565b60405190815260200161036f565b6103986103ea366004613210565b610b68565b3480156103fb57600080fd5b5061041f61040a366004613154565b600f6020526000908152604090205460ff1681565b60405161036f919061325b565b34801561043857600080fd5b5061045c610447366004613154565b600a6020526000908152604090205460ff1681565b604051901515815260200161036f565b34801561047857600080fd5b506002546103ce565b34801561048d57600080fd5b50610398610d0b565b3480156104a257600080fd5b506011546104b6906001600160a01b031681565b6040516001600160a01b03909116815260200161036f565b3480156104da57600080fd5b506103986104e9366004613210565b610d48565b3480156104fa57600080fd5b50610398610509366004613283565b610dee565b34801561051a57600080fd5b5061045c61052936600461333b565b6001600160a01b0316301490565b34801561054357600080fd5b506103ce610552366004613154565b60106020526000908152604090205481565b34801561057057600080fd5b5061035e7f000000000000000000000000000000000000000000000000000000000000000081565b3480156105a457600080fd5b5061045c6105b3366004613154565b600c6020526000908152604090205460ff1681565b3480156105d457600080fd5b506103ce60055481565b3480156105ea57600080fd5b506103986105f936600461333b565b6110b0565b34801561060a57600080fd5b50600354600160a01b900460ff1661045c565b34801561062957600080fd5b506104b67f000000000000000000000000000000000000000000000000000000000000000081565b34801561065d57600080fd5b5061045c61066c36600461333b565b600d6020526000908152604090205460ff1681565b34801561068d57600080fd5b506103ce6110e7565b3480156106a257600080fd5b506103986106b136600461333b565b611170565b3480156106c257600080fd5b5062093a806103ce565b3480156106d857600080fd5b506103986106e7366004613154565b6111ed565b3480156106f857600080fd5b506103986112b8565b34801561070d57600080fd5b506012546104b6906001600160a01b031681565b34801561072d57600080fd5b506103986112e3565b34801561074257600080fd5b507f000000000000000000000000000000000000000000000000000000000000000061035e565b34801561077557600080fd5b506000546001600160a01b03166104b6565b34801561079357600080fd5b5061045c6107a2366004613154565b600b6020526000908152604090205460ff1681565b3480156107c357600080fd5b506103986107d2366004613356565b611397565b3480156107e357600080fd5b506103ce6107f2366004613154565b60096020526000908152604090205481565b34801561081057600080fd5b50306104b6565b34801561082357600080fd5b506104b67f000000000000000000000000000000000000000000000000000000000000000081565b34801561085757600080fd5b506004546104b6906001600160a01b031681565b34801561087757600080fd5b506103ce60085481565b34801561088d57600080fd5b5061039861089c36600461333b565b611442565b3480156108ad57600080fd5b506103986108bc36600461333b565b6114e0565b3480156108cd57600080fd5b506103986108dc36600461333b565b61155c565b3480156108ed57600080fd5b5061035e6108fc3660046133f1565b600e6020526000908152604090205463ffffffff1681565b34801561092057600080fd5b506103986115db565b34801561093557600080fd5b506003546104b6906001600160a01b031681565b34801561095557600080fd5b5061070842046103ce565b34801561096c57600080fd5b506001546001600160a01b03166104b6565b34801561098a57600080fd5b506000546001600160a01b03161561045c565b3480156109a957600080fd5b506103986109b836600461333b565b61164b565b3480156109c957600080fd5b506107086103ce565b3480156109de57600080fd5b506104b67f000000000000000000000000000000000000000000000000000000000000000081565b348015610a1257600080fd5b506103ce60065481565b348015610a2857600080fd5b506103ce7f000000000000000000000000000000000000000000000000000000000000000081565b348015610a5c57600080fd5b5061045c610a6b36600461333b565b611722565b348015610a7c57600080fd5b50610398610a8b366004613154565b61172c565b348015610a9c57600080fd5b50610ab0610aab36600461340c565b611760565b60405161036f9291906134b3565b6000546001600160a01b03163314610ae9576040516311a8a1bb60e31b815260040160405180910390fd5b6008548103610b2e5760405162461bcd60e51b815260206004820152600c60248201526b2164656c6179426c6f636b7360a01b60448201526064015b60405180910390fd5b60405133815281907f8bd16320f3b60336ed5fd2a770eb7453e7e71cfef4462addffd7ae9dfe201c8e9060200160405180910390a2600855565b610b70611b02565b43600554600654610b8191906134e2565b1115610ba0576040516346cf2af160e11b815260040160405180910390fd5b4360068190555060007f00000000000000000000000000000000000000000000000000000000000000006001600160a01b031663ebf0c7176040518163ffffffff1660e01b8152600401602060405180830381865afa158015610c07573d6000803e3d6000fd5b505050506040513d601f19601f82011682018060405250810190610c2b91906134f5565b6000818152600c602052604090205490915060ff1615610c815760405162461bcd60e51b81526020600482015260116024820152701c9bdbdd08185b1c9958591e481cd95b9d607a1b6044820152606401610b25565b600081604051602001610c9691815260200190565b6040516020818303038152906040529050610cb18184611b4f565b6000828152600c602052604090819020805460ff19166001179055517fdcaa37a042a0087de79018c629bbd29cee82ca80bd9be394e1696bf9e935507790610cfe9083908690339061350e565b60405180910390a1505050565b6000546001600160a01b03163314610d36576040516311a8a1bb60e31b815260040160405180910390fd5b610d3e611b9a565b610d46611bea565b565b336001600160a01b037f00000000000000000000000000000000000000000000000000000000000000001614610da95760405162461bcd60e51b8152600401610b259060208082526004908201526310a0a6a160e11b604082015260600190565b610db281611c3f565b7fb3abc57bfeebd2cac918901db582f71972a8e628bccf19f5ae3e3482b98a5ced8133604051610de392919061354c565b60405180910390a150565b610df6611b02565b610dfe611c58565b83610e355760405162461bcd60e51b81526020600482015260076024820152662170726f6f667360c81b6044820152606401610b25565b600085856000818110610e4a57610e4a613576565b9050602002810190610e5c919061358c565b610e6690806135ad565b604051610e749291906135fb565b604051809103902090506000610edb8288886000818110610e9757610e97613576565b9050602002810190610ea9919061358c565b60200189896000818110610ebf57610ebf613576565b9050602002810190610ed1919061358c565b6104200135611cb1565b9050610ee981868686611d58565b6000828152600f60205260409020805460ff1916600190811790915586905b818163ffffffff16101561100f5788888263ffffffff16818110610f2e57610f2e613576565b9050602002810190610f40919061358c565b610f4a90806135ad565b604051610f589291906135fb565b604051809103902093506000610fad858b8b8563ffffffff16818110610f8057610f80613576565b9050602002810190610f92919061358c565b6020018c8c8663ffffffff16818110610ebf57610ebf613576565b9050838114610fec5760405162461bcd60e51b815260206004820152600b60248201526a085cda185c9959149bdbdd60aa1b6044820152606401610b25565b506000848152600f60205260409020805460ff1916600190811790915501610f08565b5060005b818163ffffffff16101561109b5761109289898363ffffffff1681811061103c5761103c613576565b905060200281019061104e919061358c565b61105890806135ad565b8080601f016020809104026020016040519081016040528093929190818152602001838380828437600092019190915250611e5292505050565b50600101611013565b505050506110a96001600755565b5050505050565b6000546001600160a01b031633146110db576040516311a8a1bb60e31b815260040160405180910390fd5b6110e48161212f565b50565b60007f00000000000000000000000000000000000000000000000000000000000000006001600160a01b031663ebf0c7176040518163ffffffff1660e01b8152600401602060405180830381865afa158015611147573d6000803e3d6000fd5b505050506040513d601f19601f8201168201806040525081019061116b91906134f5565b905090565b6000546001600160a01b0316331461119b576040516311a8a1bb60e31b815260040160405180910390fd5b476111a68282612141565b816001600160a01b03167feaff4b37086828766ad3268786972c0cd24259d4c87a80f9d3963a3c3d999b0d826040516111e191815260200190565b60405180910390a25050565b6000546001600160a01b03163314611218576040516311a8a1bb60e31b815260040160405180910390fd5b611220611b9a565b60008181526009602052604081205490036112755760405162461bcd60e51b8152602060048201526015602482015274616767726567617465526f6f74202165786973747360581b6044820152606401610b25565b60008181526009602052604080822091909155517ff51534ecf10a58db36ce4f5180f59deddf3b3eb7c5e7454e602c2f80a40cc73990610de39083815260200190565b6000546001600160a01b03163314610d46576040516311a8a1bb60e31b815260040160405180910390fd5b600480546040516384785ecd60e01b815233928101929092526001600160a01b0316906384785ecd90602401602060405180830381865afa15801561132c573d6000803e3d6000fd5b505050506040513d601f19601f82011682018060405250810190611350919061360b565b6113875760405162461bcd60e51b815260206004820152600860248201526710bbb0ba31b432b960c11b6044820152606401610b25565b61138f611b02565b610d4661225f565b6011546001600160a01b031633146113fb5760405162461bcd60e51b815260206004820152602160248201527f4678426173654368696c6454756e6e656c3a20494e56414c49445f53454e44456044820152602960f91b6064820152608401610b25565b61143c848484848080601f0160208091040260200160405190810160405280939291908181526020018383808284376000920191909152506122a292505050565b50505050565b6000546001600160a01b0316331461146d576040516311a8a1bb60e31b815260040160405180910390fd5b6001546001600160a01b03828116911614801561148b575060025415155b156114a9576040516311bc066560e11b815260040160405180910390fd5b6000546001600160a01b038083169116036114d757604051634a2fb73f60e11b815260040160405180910390fd5b6110e4816123a0565b6000546001600160a01b0316331461150b576040516311a8a1bb60e31b815260040160405180910390fd5b6001600160a01b0381166000818152600d6020908152604091829020805460ff1916905590519182527f384859c5ef5fafac31e8bc92ce7fb48b1f2c74c4dd5e212eb84ec202fa5d9fad9101610de3565b6000546001600160a01b03163314611587576040516311a8a1bb60e31b815260040160405180910390fd5b6001600160a01b0381166000818152600d6020908152604091829020805460ff1916600117905590519182527fd65eca5d561d3a4568c87b9b13ced4ab52a69edadfdfdb22d76bc595f36d7d879101610de3565b6001546001600160a01b03163314611606576040516311a7f27160e11b815260040160405180910390fd5b62093a8060025442611618919061362d565b11611636576040516324e0285f60e21b815260040160405180910390fd5b600154610d46906001600160a01b03166123ee565b6000546001600160a01b03163314611676576040516311a8a1bb60e31b815260040160405180910390fd5b6004546001600160a01b03908116908216036116d45760405162461bcd60e51b815260206004820152601760248201527f616c72656164792077617463686572206d616e616765720000000000000000006044820152606401610b25565b600480546001600160a01b0319166001600160a01b0383169081179091556040519081527fc16d059e43d7f8e29ccb4e001a2f249d3c59e274925d6a6bc3912943441d9f6c90602001610de3565b6000805b92915050565b6000546001600160a01b03163314611757576040516311a8a1bb60e31b815260040160405180910390fd5b6110e481612453565b336000908152600d602052604081205460609060ff166117b15760405162461bcd60e51b815260206004820152600c60248201526b08585b1b1bdddb1a5cdd195960a21b6044820152606401610b25565b6107084204600081815260106020526040812054900361191a5760007f00000000000000000000000000000000000000000000000000000000000000006001600160a01b031663ebf0c7176040518163ffffffff1660e01b8152600401602060405180830381865afa15801561182b573d6000803e3d6000fd5b505050506040513d601f19601f8201168201806040525081019061184f91906134f5565b90508060106000848152602001908152602001600020819055507f00000000000000000000000000000000000000000000000000000000000000006001600160a01b03166306661abd6040518163ffffffff1660e01b8152600401602060405180830381865afa1580156118c7573d6000803e3d6000fd5b505050506040513d601f19601f820116820180604052508101906118eb91906134f5565b604051829084907f7ab06ac7a4d1b913d3302154561c33502bc3786196bf36757232034393d6143890600090a4505b63ffffffff8087166000908152600e602052604081208054919291909116908261194383613640565b91906101000a81548163ffffffff021916908363ffffffff160217905550905060006119a27f0000000000000000000000000000000000000000000000000000000000000000611999336001600160a01b031690565b848b8b8b6124d1565b80516020820120604051632d287e4360e01b8152600481018290529192509060009081907f00000000000000000000000000000000000000000000000000000000000000006001600160a01b031690632d287e439060240160408051808303816000875af1158015611a18573d6000803e3d6000fd5b505050506040513d601f19601f82011682018060405250810190611a3c9190613663565b90925090507f40f08ee347fc927ae45902edc87debb024aab1a311943731968607f603f2152f83611a6e60018461362d565b8487604051611a809493929190613687565b60405180910390a1509099919850909650505050505050565b600354604080516001600160a01b03928316815291831660208301527fc77bec288fc88f168427f2f7da682eadb26cac89d8d591af6e443da98dff2bbc910160405180910390a1600380546001600160a01b0319166001600160a01b0392909216919091179055565b600354600160a01b900460ff1615610d465760405162461bcd60e51b815260206004820152601060248201526f14185d5cd8589b194e881c185d5cd95960821b6044820152606401610b25565b805115611b8d5760405162461bcd60e51b815260206004820152600c60248201526b042c8c2e8c240d8cadccee8d60a31b6044820152606401610b25565b611b9682612509565b5050565b600354600160a01b900460ff16610d465760405162461bcd60e51b815260206004820152601460248201527314185d5cd8589b194e881b9bdd081c185d5cd95960621b6044820152606401610b25565b611bf2611b9a565b6003805460ff60a01b191690557f5db9ee0a495bf2e6ff9c91a7834c1ba4fdd244a5e8aa4e537bd38aeae4b073aa335b6040516001600160a01b03909116815260200160405180910390a1565b6040516316c2fdb560e21b815260040160405180910390fd5b600260075403611caa5760405162461bcd60e51b815260206004820152601f60248201527f5265656e7472616e637947756172643a207265656e7472616e742063616c6c006044820152606401610b25565b6002600755565b6000806000858152600f602052604090205460ff166002811115611cd757611cd7613245565b14611d1a5760405162461bcd60e51b8152602060048201526013602482015272214d6573736167655374617475732e4e6f6e6560681b6044820152606401610b25565b611d4e8484602080602002604051908101604052809291908260208002808284376000920191909152508691506125389050565b90505b9392505050565b6000848152600b602052604090205460ff1661143c57611d7783612886565b6000611dad8584602080602002604051908101604052809291908260208002808284376000920191909152508691506125389050565b9050838114611df45760405162461bcd60e51b81526020600482015260136024820152721a5b9d985b1a59081a5b989bdd5b99149bdbdd606a1b6044820152606401610b25565b6000858152600b602052604090819020805460ff1916600117905551849086907f7ec1ea51fe3db53e55ed9d922854bc2156f467ff2f87d74e2086dae2c84a88a890611e439086815260200190565b60405180910390a35050505050565b600080611e5f83826129e6565b905063ffffffff7f000000000000000000000000000000000000000000000000000000000000000016611e9762ffffff198316612a0a565b63ffffffff1614611ed95760405162461bcd60e51b815260206004820152600c60248201526b10b232b9ba34b730ba34b7b760a11b6044820152606401610b25565b6000611eea62ffffff198316612a1f565b905060016000828152600f602052604090205460ff166002811115611f1157611f11613245565b14611f485760405162461bcd60e51b815260206004820152600760248201526610b83937bb32b760c91b6044820152606401610b25565b6000818152600f60205260409020805460ff191660021790556001611fad7f00000000000000000000000000000000000000000000000000000000000000007f00000000000000000000000000000000000000000000000000000000000000006134e2565b611fb7919061362d565b5a11611fee5760405162461bcd60e51b8152600401610b25906020808252600490820152632167617360e01b604082015260600190565b6000611fff62ffffff198416612a68565b6040805161010080825261012082019092529192507f00000000000000000000000000000000000000000000000000000000000000009160009082602082018180368337019050509050600061205a62ffffff198816612a79565b61206962ffffff198916612a8d565b61207862ffffff198a16612aa2565b61209561208a62ffffff198c16612ab7565b62ffffff1916612ae5565b6040516024016120a894939291906136b6565b60408051601f198184030181529190526020810180516001600160e01b031663ab2dc3f560e01b17905290506120e2858560008685612b2e565b60405191995092507fd42de95a9b26f1be134c8ecce389dc4fcfa18753d01661b7b361233569e8fe489061211b9088908b9086906136e5565b60405180910390a150505050505050919050565b61213881611a99565b6110e481612bb9565b804710156121915760405162461bcd60e51b815260206004820152601d60248201527f416464726573733a20696e73756666696369656e742062616c616e63650000006044820152606401610b25565b6000826001600160a01b03168260405160006040518083038185875af1925050503d80600081146121de576040519150601f19603f3d011682016040523d82523d6000602084013e6121e3565b606091505b505090508061225a5760405162461bcd60e51b815260206004820152603a60248201527f416464726573733a20756e61626c6520746f2073656e642076616c75652c207260448201527f6563697069656e74206d617920686176652072657665727465640000000000006064820152608401610b25565b505050565b612267611b02565b6003805460ff60a01b1916600160a01b1790557f62e78cea01bee320cd4e420270b5ea74000d11b0c9f74754ebdbfc544b05a258611c223390565b60125482906001600160a01b038083169116146123155760405162461bcd60e51b815260206004820152602b60248201527f4678426173654368696c6454756e6e656c3a20494e56414c49445f53454e444560448201526a1497d19493d357d493d3d560aa1b6064820152608401610b25565b81516020146123505760405162461bcd60e51b8152602060048201526007602482015266042d8cadccee8d60cb1b6044820152606401610b25565b61236161235c83613706565b612c47565b7fb3abc57bfeebd2cac918901db582f71972a8e628bccf19f5ae3e3482b98a5ced823360405161239292919061354c565b60405180910390a150505050565b42600255600180546001600160a01b0319166001600160a01b0383169081179091556040517f6ab4d119f23076e8ad491bc65ce85f017fb0591dce08755ba8591059cc51737a90600090a250565b600080546040516001600160a01b03808516939216917f8be0079c531659141344cd1fd0a4f28419497f9722a3daafe3b4186f6b6457e091a3600080546001600160a01b039092166001600160a01b0319928316178155600255600180549091169055565b60055481036124965760405162461bcd60e51b815260206004820152600f60248201526e085b995dc81c985d19481b1a5b5a5d608a1b6044820152606401610b25565b600581905560408051338152602081018390527f8e7fa5e406cb856aab05575e45ea011c6748376cc1b5229e3d67b92986406a159101610de3565b60608686868686866040516020016124ee9695949392919061372d565b60405160208183030381529060405290509695505050505050565b7f8c5261668696ce22758910d05bab8f186d6eb247ceac2af2e82c7dc17669b03681604051610de39190613787565b6020600582811b8216948552835194820394909452604060008181206002851615871b808503919091528386015190528181206004851615871b808503919091528286015190528181206008851615871b80850391909152606086015190528181206010851615871b8085039190915260808087015190915282822084861615881b8086039190915260a0870151905282822083861615881b8086039190915260c0870151905282822090851615871b8085039190915260e0860151905281812061010080861615881b80860392909252860151905281812061020080861615881b80860392909252610120870151909152828220610400861615881b808603919091526101408701519052828220610800861615881b808603919091526101608701519052828220611000861615881b808603919091526101808701519052828220612000861615881b808603919091526101a08701519052828220614000861615881b808603919091526101c08701519052828220618000861615881b808603919091526101e0870151905282822062010000861615881b8086039190915290860151905281812062020000851615871b80850391909152610220860151905281812062040000851615871b80850391909152610240860151905281812062080000851615871b80850391909152610260860151905281812062100000851615871b80850391909152610280860151905281812062200000851615871b808503919091526102a0860151905281812062400000851615871b808503919091526102c0860151905281812062800000851615871b808503919091526102e086015190528181206301000000851615871b8085039190915261030086015190528181206302000000851615871b8085039190915261032086015190528181206304000000851615871b8085039190915261034086015190528181206308000000851615871b8085039190915261036086015190528181206310000000851615871b8085039190915261038086015190528181206320000000851615871b808503919091526103a086015190528181206340000000851615871b808503919091526103c0860151905281812063800000009094161590951b91829003929092526103e090920151909152902090565b806128c95760405162461bcd60e51b8152602060048201526013602482015272616767726567617465526f6f7420656d70747960681b6044820152606401610b25565b6000818152600a602052604090205460ff16156128e35750565b600081815260096020526040812054908190036129395760405162461bcd60e51b81526020600482015260146024820152731859d9dc9959d85d19549bdbdd0808595e1a5cdd60621b6044820152606401610b25565b600854612946824361362d565b10156129945760405162461bcd60e51b815260206004820152601760248201527f616767726567617465526f6f74202176657269666965640000000000000000006044820152606401610b25565b6000828152600a6020526040808220805460ff191660011790555183917f36b314aba9f663b4d3ef3288ae489341cc5e6a2725a05fa2b72df7a27e03f42a91a250600090815260096020526040812055565b815160009060208401612a0164ffffffffff85168284612d70565b95945050505050565b600061172662ffffff19831660286004612dad565b600080612a358360781c6001600160601b031690565b6001600160601b031690506000612a558460181c6001600160601b031690565b6001600160601b03169091209392505050565b6000611726612a7683612ddd565b90565b600061172662ffffff198316826004612dad565b600061172662ffffff19831660246004612dad565b600061172662ffffff19831660046020612dee565b6000611726604c612ad581601886901c6001600160601b031661362d565b62ffffff19851691906000612ef9565b6060600080612afd8460181c6001600160601b031690565b6001600160601b031690506040519150819250612b1d8483602001612f75565b508181016020016040529052919050565b6000606060008060008661ffff1667ffffffffffffffff811115612b5457612b5461316d565b6040519080825280601f01601f191660200182016040528015612b7e576020820181803683370190505b5090506000808751602089018b8e8ef191503d925086831115612b9f578692505b828152826000602083013e90999098509650505050505050565b6012546001600160a01b031615612c255760405162461bcd60e51b815260206004820152602a60248201527f4678426173654368696c6454756e6e656c3a20524f4f545f54554e4e454c5f4160448201526913149150511657d4d15560b21b6064820152608401610b25565b601280546001600160a01b0319166001600160a01b0392909216919091179055565b80612c855760405162461bcd60e51b815260206004820152600e60248201526d6e657720726f6f7420656d70747960901b6044820152606401610b25565b60008181526009602052604090205415612cd85760405162461bcd60e51b8152602060048201526014602482015273726f6f7420616c72656164792070656e64696e6760601b6044820152606401610b25565b6000818152600a602052604090205460ff1615612d2d5760405162461bcd60e51b81526020600482015260136024820152723937b7ba1030b63932b0b23c90383937bb32b760691b6044820152606401610b25565b60008181526009602052604090819020439055517f84ef18531155afdb0e64ff905d67044ae3aac63a6fba4661cfd9c4c14f289bc890610de39083815260200190565b600080612d7d83856134e2565b9050604051811115612d8d575060005b80600003612da25762ffffff19915050611d51565b612a01858585613068565b6000612dba82602061379a565b612dc59060086137b3565b60ff16612dd3858585612dee565b901c949350505050565b600061172662ffffff198316602c60205b60008160ff16600003612e0357506000611d51565b612e168460181c6001600160601b031690565b6001600160601b0316612e2c60ff8416856134e2565b1115612e9457612e458460781c6001600160601b031690565b612e588560181c6001600160601b031690565b6040516378218d2960e01b81526001600160601b039283166004820152911660248201526044810184905260ff83166064820152608401610b25565b60208260ff161115612eb95760405163045df3f960e01b815260040160405180910390fd5b600882026000612ed28660781c6001600160601b031690565b6001600160601b031690506000600160ff1b60001984011d91909501511695945050505050565b600080612f0f8660781c6001600160601b031690565b6001600160601b03169050612f23866130df565b84612f2e87846134e2565b612f3891906134e2565b1115612f4b5762ffffff19915050612f6d565b612f5585826134e2565b9050612f698364ffffffffff168286612d70565b9150505b949350505050565b600062ffffff1980841603612f9d5760405163148d513360e21b815260040160405180910390fd5b612fa683613118565b15612fc457604051632ee0949160e11b815260040160405180910390fd5b6000612fd98460181c6001600160601b031690565b6001600160601b031690506000612ff98560781c6001600160601b031690565b6001600160601b0316905060008060405191508582111561301a5760206060fd5b8386858560045afa90508061304257604051632af1bd9b60e21b815260040160405180910390fd5b61305d61304f8860d81c90565b64ffffffffff168786613068565b979650505050505050565b60006060601883856001600160601b03821682148015613090575086816001600160601b0316145b6130c95760405162461bcd60e51b815260206004820152600a602482015269085d1c9d5b98d85d195960b21b6044820152606401610b25565b96831b90961790911b90941790931b9392505050565b60006130f48260181c6001600160601b031690565b6131078360781c6001600160601b031690565b016001600160601b03169050919050565b60006131248260d81c90565b64ffffffffff1664ffffffffff0361313e57506001919050565b6000613149836130df565b604051109392505050565b60006020828403121561316657600080fd5b5035919050565b634e487b7160e01b600052604160045260246000fd5b600082601f83011261319457600080fd5b813567ffffffffffffffff808211156131af576131af61316d565b604051601f8301601f19908116603f011681019082821181831017156131d7576131d761316d565b816040528381528660208588010111156131f057600080fd5b836020870160208301376000602085830101528094505050505092915050565b60006020828403121561322257600080fd5b813567ffffffffffffffff81111561323957600080fd5b612f6d84828501613183565b634e487b7160e01b600052602160045260246000fd5b602081016003831061327d57634e487b7160e01b600052602160045260246000fd5b91905290565b6000806000806000610460868803121561329c57600080fd5b853567ffffffffffffffff808211156132b457600080fd5b818801915088601f8301126132c857600080fd5b8135818111156132d757600080fd5b8960208260051b85010111156132ec57600080fd5b60209283019750955050860135925061044086018781111561330d57600080fd5b94979396509194604001933592915050565b80356001600160a01b038116811461333657600080fd5b919050565b60006020828403121561334d57600080fd5b611d518261331f565b6000806000806060858703121561336c57600080fd5b8435935061337c6020860161331f565b9250604085013567ffffffffffffffff8082111561339957600080fd5b818701915087601f8301126133ad57600080fd5b8135818111156133bc57600080fd5b8860208285010111156133ce57600080fd5b95989497505060200194505050565b803563ffffffff8116811461333657600080fd5b60006020828403121561340357600080fd5b611d51826133dd565b60008060006060848603121561342157600080fd5b61342a846133dd565b925060208401359150604084013567ffffffffffffffff81111561344d57600080fd5b61345986828701613183565b9150509250925092565b60005b8381101561347e578181015183820152602001613466565b50506000910152565b6000815180845261349f816020860160208601613463565b601f01601f19169290920160200192915050565b828152604060208201526000611d4e6040830184613487565b634e487b7160e01b600052601160045260246000fd5b80820180821115611726576117266134cc565b60006020828403121561350757600080fd5b5051919050565b6060815260006135216060830186613487565b82810360208401526135338186613487565b91505060018060a01b0383166040830152949350505050565b60408152600061355f6040830185613487565b905060018060a01b03831660208301529392505050565b634e487b7160e01b600052603260045260246000fd5b6000823561043e198336030181126135a357600080fd5b9190910192915050565b6000808335601e198436030181126135c457600080fd5b83018035915067ffffffffffffffff8211156135df57600080fd5b6020019150368190038213156135f457600080fd5b9250929050565b8183823760009101908152919050565b60006020828403121561361d57600080fd5b81518015158114611d5157600080fd5b81810381811115611726576117266134cc565b600063ffffffff808316818103613659576136596134cc565b6001019392505050565b6000806040838503121561367657600080fd5b505080516020909101519092909150565b8481528360208201528260408201526080606082015260006136ac6080830184613487565b9695505050505050565b600063ffffffff8087168352808616602084015250836040830152608060608301526136ac6080830184613487565b8381528215156020820152606060408201526000612a016060830184613487565b80516020808301519190811015613727576000198160200360031b1b821691505b50919050565b600063ffffffff60e01b808960e01b168352876004840152808760e01b166024840152808660e01b1660288401525083602c830152825161377581604c850160208701613463565b91909101604c01979650505050505050565b602081526000611d516020830184613487565b60ff8281168282160390811115611726576117266134cc565b60ff81811683821602908116908181146137cf576137cf6134cc565b509291505056fea264697066735822122082a79b0db0720cf6cd57eafaa4608473bfaff7ada1ce98f94a497b3aa3421be764736f6c63430008110033",
  "devdoc": {
    "kind": "dev",
    "methods": {
      "addSender(address)": {
        "details": "Only allowlisted routers (senders) can call `dispatch`."
      },
      "dispatch(uint32,bytes32,bytes)": {
        "details": "The root of this tree will eventually be dispatched to mainnet via `send`. On mainnet (the \"hub\"), it will be combined into a single aggregate root by RootManager (along with outbound roots from other chains). This aggregate root will be redistributed to all destination chains.This function is also in charge of saving the snapshot root when needed. If the message being added to the tree is the first of the current period this means the last snapshot finished and its root must be saved. The saving happens before adding the new message to the tree. NOTE: okay to leave dispatch operational when paused as pause is designed for crosschain interactions"
      },
      "getLastCompletedSnapshotId()": {
        "details": "The value is calculated through an internal function to reuse code and save gas",
        "returns": {
          "_lastCompletedSnapshotId": "The last completed snapshot id"
        }
      },
      "getSnapshotDuration()": {
        "returns": {
          "_snapshotDuration": "The duration of the snapshot"
        }
      },
      "home()": {
        "details": "The local inbox contract is a SpokeConnector with AMBs, and a Home contract with nomad",
        "returns": {
          "_0": "The local inbox contract"
        }
      },
      "isReplica(address)": {
        "returns": {
          "_0": "True if _potentialReplica is an enrolled Replica"
        }
      },
      "paused()": {
        "details": "Returns true if the contract is paused, and false otherwise."
      },
      "processMessage(bytes)": {
        "details": "This is called by AMBs to process messages originating from mirror connector"
      },
      "proveAndProcess((bytes,bytes32[32],uint256)[],bytes32,bytes32[32],uint256)": {
        "details": "Currently, ALL messages in a given batch must path to the same shared inboundRoot, meaning they must all share an origin. See open TODO below for a potential solution to enable multi-origin batches.Intended to be called by the relayer at specific intervals during runtime.Will record a calculated root as having been proven if we've already proven that it was included in the aggregateRoot.",
        "params": {
          "_aggregateIndex": "Index of the inbound root in the aggregator's merkle tree in the hub.",
          "_aggregatePath": "Merkle path of inclusion for the inbound root.",
          "_aggregateRoot": "The target aggregate root we want to prove inclusion for. This root must have already been delivered to this spoke connector contract and surpassed the validation period.",
          "_proofs": "Batch of Proofs containing messages for proving/processing."
        }
      },
      "removePendingAggregateRoot(bytes32)": {
        "details": "This method is required for handling fraud cases in the current construction.",
        "params": {
          "_fraudulentRoot": "Target fraudulent root that should be erased from the `pendingAggregateRoots` mapping."
        }
      },
      "removeSender(address)": {
        "details": "Only allowlisted routers (senders) can call `dispatch`."
      },
      "renounceOwnership()": {
        "details": "Renounce ownership should be impossible as long as it is impossible in the WatcherClient, and as long as only the owner can remove pending roots in case of fraud."
      },
      "setRateLimitBlocks(uint256)": {
        "details": "Rate limit is used to mitigate DoS vectors. (See `RateLimited` for more info.)",
        "params": {
          "_rateLimit": "The number of blocks require between sending messages. If set to 0, rate limiting for this spoke connector will be disabled."
        }
      },
      "withdrawFunds(address)": {
        "details": "Withdraws the entire balance of the contract.",
        "params": {
          "_to": "The recipient of the funds withdrawn"
        }
      }
    },
    "version": 1
  },
  "userdoc": {
    "events": {
      "FundsWithdrawn(address,uint256)": {
        "notice": "Emitted when funds are withdrawn by the admin"
      },
      "MessageProcessed(bytes,address)": {
        "notice": "Emitted whenever a message is successfully received over an AMB"
      },
      "MessageSent(bytes,bytes,address)": {
        "notice": "Emitted whenever a message is successfully sent over an AMB"
      },
      "WatcherManagerChanged(address)": {
        "notice": "Emitted when the manager address changes"
      }
    },
    "kind": "user",
    "methods": {
      "AMB()": {
        "notice": "Address of the AMB on this domain."
      },
      "DOMAIN()": {
        "notice": "The domain of this Messaging (i.e. Connector) contract."
      },
      "MERKLE()": {
        "notice": "MerkleTreeManager contract instance. Will hold the active tree of message hashes, whose root will be sent crosschain to the hub for aggregation and redistribution."
      },
      "MIRROR_DOMAIN()": {
        "notice": "The domain of the corresponding messaging (i.e. Connector) contract."
      },
      "PROCESS_GAS()": {
        "notice": "Minimum gas for processing a received message (reserved for handle)"
      },
      "RESERVE_GAS()": {
        "notice": "Reserved gas (to ensure tx completes in case message processing runs out)"
      },
      "ROOT_MANAGER()": {
        "notice": "RootManager contract address."
      },
      "acceptProposedOwner()": {
        "notice": "Transfers ownership of the contract to a new account (`newOwner`). Can only be called by the current owner."
      },
      "addSender(address)": {
        "notice": "Adds a sender to the allowlist."
      },
      "delay()": {
        "notice": "Returns the delay period before a new owner can be accepted."
      },
      "delayBlocks()": {
        "notice": "Number of blocks to delay the processing of a message to allow for watchers to verify the validity and pause if necessary."
      },
      "dispatch(uint32,bytes32,bytes)": {
        "notice": "This function adds transfers to the outbound transfer merkle tree."
      },
      "getLastCompletedSnapshotId()": {
        "notice": "This function gets the last completed snapshot id"
      },
      "getSnapshotDuration()": {
        "notice": "Get the duration of the snapshot"
      },
      "home()": {
        "notice": "Get the local inbox contract from the xAppConnectionManager"
      },
      "isReplica(address)": {
        "notice": "Determine whether _potentialReplica is an enrolled Replica from the xAppConnectionManager"
      },
      "lastSentBlock()": {
        "notice": "Tracks the last block that we sent a message."
      },
      "localDomain()": {
        "notice": "This provides the implementation for what is defined in the ConnectorManager to avoid storing the domain redundantly"
      },
      "messages(bytes32)": {
        "notice": "Mapping of message leaves to MessageStatus, keyed on leaf."
      },
      "mirrorConnector()": {
        "notice": "Connector on L2 for L1 connectors, and vice versa."
      },
      "nonces(uint32)": {
        "notice": "domain => next available nonce for the domain."
      },
      "outboundRoot()": {
        "notice": "This returns the root of all messages with the origin domain as this domain (i.e. all outbound messages)"
      },
      "owner()": {
        "notice": "Returns the address of the current owner."
      },
      "pause()": {
        "notice": "Watchers can pause contracts if fraud is detected"
      },
      "pendingAggregateRoots(bytes32)": {
        "notice": "This will hold the commit block for incoming aggregateRoots from the hub chain. Once they are verified, (i.e. have surpassed the verification period in `delayBlocks`) they can be used for proving inclusion of crosschain messages."
      },
      "processMessage(bytes)": {
        "notice": "Processes a message received by an AMB"
      },
      "proposeNewOwner(address)": {
        "notice": "Sets the timestamp for an owner to be proposed, and sets the newly proposed owner as step 1 in a 2-step process"
      },
      "proposed()": {
        "notice": "Returns the address of the proposed owner."
      },
      "proposedTimestamp()": {
        "notice": "Returns the address of the proposed owner."
      },
      "proveAndProcess((bytes,bytes32[32],uint256)[],bytes32,bytes32[32],uint256)": {
        "notice": "Must be able to call the `handle` function on the BridgeRouter contract. This is called on the destination domain to handle incoming messages. Proving: Calculates the expected inbound root from an origin chain given a leaf (message hash), the index of the leaf, and the merkle proof of inclusion (path). Next, we check to ensure that this calculated inbound root is included in the current aggregateRoot, given its index in the aggregator tree and the proof of inclusion. Processing: After all messages have been proven, we dispatch each message to Connext (BridgeRouter) for execution."
      },
      "provenAggregateRoots(bytes32)": {
        "notice": "This tracks the roots of the aggregate tree containing outbound roots from all other supported domains. The current version is the one that is known to be past the delayBlocks time period."
      },
      "provenMessageRoots(bytes32)": {
        "notice": "This tracks whether the root has been proven to exist within the given aggregate root."
      },
      "rateLimitBlocks()": {
        "notice": "The number of blocks required between message sending events."
      },
      "removePendingAggregateRoot(bytes32)": {
        "notice": "Manually remove a pending aggregateRoot by owner if the contract is paused."
      },
      "removeSender(address)": {
        "notice": "Removes a sender from the allowlist."
      },
      "renounceOwnership()": {
        "notice": "Remove ability to renounce ownership"
      },
      "renounced()": {
        "notice": "Indicates if the ownership has been renounced() by checking if current owner is address(0)"
      },
      "send(bytes)": {
        "notice": "This returns the root of all messages with the origin domain as this domain (i.e. all outbound messages)"
      },
      "sentMessageRoots(bytes32)": {
        "notice": "This mapping records all message roots that have already been sent in order to prevent redundant message roots from being sent to hub."
      },
      "setDelayBlocks(uint256)": {
        "notice": "Set the `delayBlocks`, the period in blocks over which an incoming message is verified."
      },
      "setMirrorConnector(address)": {
        "notice": "Sets the address of the l2Connector for this domain"
      },
      "setRateLimitBlocks(uint256)": {
        "notice": "Set the rate limit (number of blocks) at which we can send messages from this contract to the hub chain using the `send` method."
      },
      "setWatcherManager(address)": {
        "notice": "Owner can enroll a watcher (abilities are defined by inheriting contracts)"
      },
      "snapshotRoots(uint256)": {
        "notice": "Mapping of the snapshot roots for a specific index. Used for data availability for off-chain scripts"
      },
      "unpause()": {
        "notice": "Owner can unpause contracts if fraud is detected by watchers"
      },
      "verifySender(address)": {
        "notice": "Checks the cross domain sender for a given address"
      },
      "watcherManager()": {
        "notice": "The `WatcherManager` contract governs the watcher allowlist."
      },
      "withdrawFunds(address)": {
        "notice": "This function should be callable by owner, and send funds trapped on a connector to the provided recipient."
      }
    },
    "version": 1
  },
  "storageLayout": {
    "storage": [
      {
        "astId": 44407,
        "contract": "contracts/messaging/connectors/polygon/PolygonSpokeConnector.sol:PolygonSpokeConnector",
        "label": "_owner",
        "offset": 0,
        "slot": "0",
        "type": "t_address"
      },
      {
        "astId": 44409,
        "contract": "contracts/messaging/connectors/polygon/PolygonSpokeConnector.sol:PolygonSpokeConnector",
        "label": "_proposed",
        "offset": 0,
        "slot": "1",
        "type": "t_address"
      },
      {
        "astId": 44411,
        "contract": "contracts/messaging/connectors/polygon/PolygonSpokeConnector.sol:PolygonSpokeConnector",
        "label": "_proposedOwnershipTimestamp",
        "offset": 0,
        "slot": "2",
        "type": "t_uint256"
      },
      {
        "astId": 33246,
        "contract": "contracts/messaging/connectors/polygon/PolygonSpokeConnector.sol:PolygonSpokeConnector",
        "label": "mirrorConnector",
        "offset": 0,
        "slot": "3",
        "type": "t_address"
      },
      {
        "astId": 2738,
        "contract": "contracts/messaging/connectors/polygon/PolygonSpokeConnector.sol:PolygonSpokeConnector",
        "label": "_paused",
        "offset": 20,
        "slot": "3",
        "type": "t_bool"
      },
      {
        "astId": 33019,
        "contract": "contracts/messaging/connectors/polygon/PolygonSpokeConnector.sol:PolygonSpokeConnector",
        "label": "watcherManager",
        "offset": 0,
        "slot": "4",
        "type": "t_contract(WatcherManager)33200"
      },
      {
        "astId": 44312,
        "contract": "contracts/messaging/connectors/polygon/PolygonSpokeConnector.sol:PolygonSpokeConnector",
        "label": "rateLimitBlocks",
        "offset": 0,
        "slot": "5",
        "type": "t_uint256"
      },
      {
        "astId": 44315,
        "contract": "contracts/messaging/connectors/polygon/PolygonSpokeConnector.sol:PolygonSpokeConnector",
        "label": "lastSentBlock",
        "offset": 0,
        "slot": "6",
        "type": "t_uint256"
      },
      {
        "astId": 2839,
        "contract": "contracts/messaging/connectors/polygon/PolygonSpokeConnector.sol:PolygonSpokeConnector",
        "label": "_status",
        "offset": 0,
        "slot": "7",
        "type": "t_uint256"
      },
      {
        "astId": 33751,
        "contract": "contracts/messaging/connectors/polygon/PolygonSpokeConnector.sol:PolygonSpokeConnector",
        "label": "delayBlocks",
        "offset": 0,
        "slot": "8",
        "type": "t_uint256"
      },
      {
        "astId": 33766,
        "contract": "contracts/messaging/connectors/polygon/PolygonSpokeConnector.sol:PolygonSpokeConnector",
        "label": "pendingAggregateRoots",
        "offset": 0,
        "slot": "9",
        "type": "t_mapping(t_bytes32,t_uint256)"
      },
      {
        "astId": 33771,
        "contract": "contracts/messaging/connectors/polygon/PolygonSpokeConnector.sol:PolygonSpokeConnector",
        "label": "provenAggregateRoots",
        "offset": 0,
        "slot": "10",
        "type": "t_mapping(t_bytes32,t_bool)"
      },
      {
        "astId": 33776,
        "contract": "contracts/messaging/connectors/polygon/PolygonSpokeConnector.sol:PolygonSpokeConnector",
        "label": "provenMessageRoots",
        "offset": 0,
        "slot": "11",
        "type": "t_mapping(t_bytes32,t_bool)"
      },
      {
        "astId": 33781,
        "contract": "contracts/messaging/connectors/polygon/PolygonSpokeConnector.sol:PolygonSpokeConnector",
        "label": "sentMessageRoots",
        "offset": 0,
        "slot": "12",
        "type": "t_mapping(t_bytes32,t_bool)"
      },
      {
        "astId": 33786,
        "contract": "contracts/messaging/connectors/polygon/PolygonSpokeConnector.sol:PolygonSpokeConnector",
        "label": "allowlistedSenders",
        "offset": 0,
        "slot": "13",
        "type": "t_mapping(t_address,t_bool)"
      },
      {
        "astId": 33791,
        "contract": "contracts/messaging/connectors/polygon/PolygonSpokeConnector.sol:PolygonSpokeConnector",
        "label": "nonces",
        "offset": 0,
        "slot": "14",
        "type": "t_mapping(t_uint32,t_uint32)"
      },
      {
        "astId": 33797,
        "contract": "contracts/messaging/connectors/polygon/PolygonSpokeConnector.sol:PolygonSpokeConnector",
        "label": "messages",
        "offset": 0,
        "slot": "15",
        "type": "t_mapping(t_bytes32,t_enum(MessageStatus)33739)"
      },
      {
        "astId": 33802,
        "contract": "contracts/messaging/connectors/polygon/PolygonSpokeConnector.sol:PolygonSpokeConnector",
        "label": "snapshotRoots",
        "offset": 0,
        "slot": "16",
        "type": "t_mapping(t_uint256,t_bytes32)"
      },
      {
        "astId": 39714,
        "contract": "contracts/messaging/connectors/polygon/PolygonSpokeConnector.sol:PolygonSpokeConnector",
        "label": "fxChild",
        "offset": 0,
        "slot": "17",
        "type": "t_address"
      },
      {
        "astId": 39716,
        "contract": "contracts/messaging/connectors/polygon/PolygonSpokeConnector.sol:PolygonSpokeConnector",
        "label": "fxRootTunnel",
        "offset": 0,
        "slot": "18",
        "type": "t_address"
      }
    ],
    "types": {
      "t_address": {
        "encoding": "inplace",
        "label": "address",
        "numberOfBytes": "20"
      },
      "t_bool": {
        "encoding": "inplace",
        "label": "bool",
        "numberOfBytes": "1"
      },
      "t_bytes32": {
        "encoding": "inplace",
        "label": "bytes32",
        "numberOfBytes": "32"
      },
      "t_contract(WatcherManager)33200": {
        "encoding": "inplace",
        "label": "contract WatcherManager",
        "numberOfBytes": "20"
      },
      "t_enum(MessageStatus)33739": {
        "encoding": "inplace",
        "label": "enum SpokeConnector.MessageStatus",
        "numberOfBytes": "1"
      },
      "t_mapping(t_address,t_bool)": {
        "encoding": "mapping",
        "key": "t_address",
        "label": "mapping(address => bool)",
        "numberOfBytes": "32",
        "value": "t_bool"
      },
      "t_mapping(t_bytes32,t_bool)": {
        "encoding": "mapping",
        "key": "t_bytes32",
        "label": "mapping(bytes32 => bool)",
        "numberOfBytes": "32",
        "value": "t_bool"
      },
      "t_mapping(t_bytes32,t_enum(MessageStatus)33739)": {
        "encoding": "mapping",
        "key": "t_bytes32",
        "label": "mapping(bytes32 => enum SpokeConnector.MessageStatus)",
        "numberOfBytes": "32",
        "value": "t_enum(MessageStatus)33739"
      },
      "t_mapping(t_bytes32,t_uint256)": {
        "encoding": "mapping",
        "key": "t_bytes32",
        "label": "mapping(bytes32 => uint256)",
        "numberOfBytes": "32",
        "value": "t_uint256"
      },
      "t_mapping(t_uint256,t_bytes32)": {
        "encoding": "mapping",
        "key": "t_uint256",
        "label": "mapping(uint256 => bytes32)",
        "numberOfBytes": "32",
        "value": "t_bytes32"
      },
      "t_mapping(t_uint32,t_uint32)": {
        "encoding": "mapping",
        "key": "t_uint32",
        "label": "mapping(uint32 => uint32)",
        "numberOfBytes": "32",
        "value": "t_uint32"
      },
      "t_uint256": {
        "encoding": "inplace",
        "label": "uint256",
        "numberOfBytes": "32"
      },
      "t_uint32": {
        "encoding": "inplace",
        "label": "uint32",
        "numberOfBytes": "4"
      }
    }
  }
}