{
  "address": "0x4C400E6c7E9D7564647D09c4E5fc2a9408100Fd6",
  "abi": [
    {
      "inputs": [],
      "name": "BaseConnextFacet__getAdoptedAsset_notWhitelisted",
      "type": "error"
    },
    {
      "inputs": [],
      "name": "BaseConnextFacet__getApprovedCanonicalId_notWhitelisted",
      "type": "error"
    },
    {
      "inputs": [],
      "name": "BaseConnextFacet__nonReentrant_reentrantCall",
      "type": "error"
    },
    {
      "inputs": [],
      "name": "BaseConnextFacet__onlyBridgeRouter_notBridgeRouter",
      "type": "error"
    },
    {
      "inputs": [],
      "name": "BaseConnextFacet__onlyOwnerOrAdmin_notOwnerOrAdmin",
      "type": "error"
    },
    {
      "inputs": [],
      "name": "BaseConnextFacet__onlyOwnerOrRouter_notOwnerOrRouter",
      "type": "error"
    },
    {
      "inputs": [],
      "name": "BaseConnextFacet__onlyOwnerOrWatcher_notOwnerOrWatcher",
      "type": "error"
    },
    {
      "inputs": [],
      "name": "BaseConnextFacet__onlyOwner_notOwner",
      "type": "error"
    },
    {
      "inputs": [],
      "name": "BaseConnextFacet__onlyProposed_notProposedOwner",
      "type": "error"
    },
    {
      "inputs": [],
      "name": "BaseConnextFacet__whenNotPaused_paused",
      "type": "error"
    },
    {
      "inputs": [],
      "name": "TokenFacet__addAssetId_alreadyAdded",
      "type": "error"
    },
    {
      "inputs": [],
      "name": "TokenFacet__addAssetId_nativeAsset",
      "type": "error"
    },
    {
      "inputs": [],
      "name": "TokenFacet__removeAssetId_notAdded",
      "type": "error"
    },
    {
      "inputs": [],
      "name": "TokenFacet__updateDetails_localNotFound",
      "type": "error"
    },
    {
      "anonymous": false,
      "inputs": [
        {
          "indexed": true,
          "internalType": "bytes32",
          "name": "key",
          "type": "bytes32"
        },
        {
          "indexed": true,
          "internalType": "bytes32",
          "name": "canonicalId",
          "type": "bytes32"
        },
        {
          "indexed": true,
          "internalType": "uint32",
          "name": "domain",
          "type": "uint32"
        },
        {
          "indexed": false,
          "internalType": "address",
          "name": "adoptedAsset",
          "type": "address"
        },
        {
          "indexed": false,
          "internalType": "address",
          "name": "localAsset",
          "type": "address"
        },
        {
          "indexed": false,
          "internalType": "address",
          "name": "caller",
          "type": "address"
        }
      ],
      "name": "AssetAdded",
      "type": "event"
    },
    {
      "anonymous": false,
      "inputs": [
        {
          "indexed": true,
          "internalType": "bytes32",
          "name": "key",
          "type": "bytes32"
        },
        {
          "indexed": false,
          "internalType": "address",
          "name": "caller",
          "type": "address"
        }
      ],
      "name": "AssetRemoved",
      "type": "event"
    },
    {
      "anonymous": false,
      "inputs": [
        {
          "indexed": true,
          "internalType": "bytes32",
          "name": "key",
          "type": "bytes32"
        },
        {
          "indexed": true,
          "internalType": "bytes32",
          "name": "canonicalId",
          "type": "bytes32"
        },
        {
          "indexed": true,
          "internalType": "uint32",
          "name": "domain",
          "type": "uint32"
        },
        {
          "indexed": false,
          "internalType": "uint256",
          "name": "cap",
          "type": "uint256"
        },
        {
          "indexed": false,
          "internalType": "address",
          "name": "caller",
          "type": "address"
        }
      ],
      "name": "LiquidityCapUpdated",
      "type": "event"
    },
    {
      "anonymous": false,
      "inputs": [
        {
          "indexed": true,
          "internalType": "bytes32",
          "name": "key",
          "type": "bytes32"
        },
        {
          "indexed": true,
          "internalType": "bytes32",
          "name": "canonicalId",
          "type": "bytes32"
        },
        {
          "indexed": true,
          "internalType": "uint32",
          "name": "domain",
          "type": "uint32"
        },
        {
          "indexed": false,
          "internalType": "address",
          "name": "swapPool",
          "type": "address"
        },
        {
          "indexed": false,
          "internalType": "address",
          "name": "caller",
          "type": "address"
        }
      ],
      "name": "StableSwapAdded",
      "type": "event"
    },
    {
      "anonymous": false,
      "inputs": [
        {
          "indexed": true,
          "internalType": "uint32",
          "name": "domain",
          "type": "uint32"
        },
        {
          "indexed": true,
          "internalType": "bytes32",
          "name": "id",
          "type": "bytes32"
        },
        {
          "indexed": true,
          "internalType": "address",
          "name": "representation",
          "type": "address"
        }
      ],
      "name": "TokenDeployed",
      "type": "event"
    },
    {
      "inputs": [
        {
          "components": [
            {
              "internalType": "uint32",
              "name": "domain",
              "type": "uint32"
            },
            {
              "internalType": "bytes32",
              "name": "id",
              "type": "bytes32"
            }
          ],
          "internalType": "struct TokenId",
          "name": "_canonical",
          "type": "tuple"
        },
        {
          "internalType": "address",
          "name": "_stableSwapPool",
          "type": "address"
        }
      ],
      "name": "addStableSwapPool",
      "outputs": [],
      "stateMutability": "nonpayable",
      "type": "function"
    },
    {
      "inputs": [
        {
          "internalType": "address",
          "name": "_adopted",
          "type": "address"
        }
      ],
      "name": "adoptedToCanonical",
      "outputs": [
        {
          "components": [
            {
              "internalType": "uint32",
              "name": "domain",
              "type": "uint32"
            },
            {
              "internalType": "bytes32",
              "name": "id",
              "type": "bytes32"
            }
          ],
          "internalType": "struct TokenId",
          "name": "",
          "type": "tuple"
        }
      ],
      "stateMutability": "view",
      "type": "function"
    },
    {
      "inputs": [
        {
          "internalType": "bytes32",
          "name": "_key",
          "type": "bytes32"
        }
      ],
      "name": "adoptedToLocalPools",
      "outputs": [
        {
          "internalType": "contract IStableSwap",
          "name": "",
          "type": "address"
        }
      ],
      "stateMutability": "view",
      "type": "function"
    },
    {
      "inputs": [
        {
          "components": [
            {
              "internalType": "uint32",
              "name": "domain",
              "type": "uint32"
            },
            {
              "internalType": "bytes32",
              "name": "id",
              "type": "bytes32"
            }
          ],
          "internalType": "struct TokenId",
          "name": "_canonical",
          "type": "tuple"
        }
      ],
      "name": "adoptedToLocalPools",
      "outputs": [
        {
          "internalType": "contract IStableSwap",
          "name": "",
          "type": "address"
        }
      ],
      "stateMutability": "view",
      "type": "function"
    },
    {
      "inputs": [
        {
          "internalType": "bytes32",
          "name": "_key",
          "type": "bytes32"
        }
      ],
      "name": "approvedAssets",
      "outputs": [
        {
          "internalType": "bool",
          "name": "",
          "type": "bool"
        }
      ],
      "stateMutability": "view",
      "type": "function"
    },
    {
      "inputs": [
        {
          "components": [
            {
              "internalType": "uint32",
              "name": "domain",
              "type": "uint32"
            },
            {
              "internalType": "bytes32",
              "name": "id",
              "type": "bytes32"
            }
          ],
          "internalType": "struct TokenId",
          "name": "_canonical",
          "type": "tuple"
        }
      ],
      "name": "approvedAssets",
      "outputs": [
        {
          "internalType": "bool",
          "name": "",
          "type": "bool"
        }
      ],
      "stateMutability": "view",
      "type": "function"
    },
    {
      "inputs": [
        {
          "internalType": "bytes32",
          "name": "_key",
          "type": "bytes32"
        }
      ],
      "name": "canonicalToAdopted",
      "outputs": [
        {
          "internalType": "address",
          "name": "",
          "type": "address"
        }
      ],
      "stateMutability": "view",
      "type": "function"
    },
    {
      "inputs": [
        {
          "components": [
            {
              "internalType": "uint32",
              "name": "domain",
              "type": "uint32"
            },
            {
              "internalType": "bytes32",
              "name": "id",
              "type": "bytes32"
            }
          ],
          "internalType": "struct TokenId",
          "name": "_canonical",
          "type": "tuple"
        }
      ],
      "name": "canonicalToAdopted",
      "outputs": [
        {
          "internalType": "address",
          "name": "",
          "type": "address"
        }
      ],
      "stateMutability": "view",
      "type": "function"
    },
    {
      "inputs": [
        {
          "internalType": "bytes32",
          "name": "_key",
          "type": "bytes32"
        }
      ],
      "name": "canonicalToRepresentation",
      "outputs": [
        {
          "internalType": "address",
          "name": "",
          "type": "address"
        }
      ],
      "stateMutability": "view",
      "type": "function"
    },
    {
      "inputs": [
        {
          "components": [
            {
              "internalType": "uint32",
              "name": "domain",
              "type": "uint32"
            },
            {
              "internalType": "bytes32",
              "name": "id",
              "type": "bytes32"
            }
          ],
          "internalType": "struct TokenId",
          "name": "_canonical",
          "type": "tuple"
        }
      ],
      "name": "canonicalToRepresentation",
      "outputs": [
        {
          "internalType": "address",
          "name": "",
          "type": "address"
        }
      ],
      "stateMutability": "view",
      "type": "function"
    },
    {
      "inputs": [
        {
          "internalType": "bytes32",
          "name": "_id",
          "type": "bytes32"
        },
        {
          "internalType": "uint32",
          "name": "_domain",
          "type": "uint32"
        }
      ],
      "name": "getLocalAndAdoptedToken",
      "outputs": [
        {
          "internalType": "address",
          "name": "",
          "type": "address"
        },
        {
          "internalType": "address",
          "name": "",
          "type": "address"
        }
      ],
      "stateMutability": "view",
      "type": "function"
    },
    {
      "inputs": [
        {
          "internalType": "address",
          "name": "_candidate",
          "type": "address"
        }
      ],
      "name": "getTokenId",
      "outputs": [
        {
          "components": [
            {
              "internalType": "uint32",
              "name": "domain",
              "type": "uint32"
            },
            {
              "internalType": "bytes32",
              "name": "id",
              "type": "bytes32"
            }
          ],
          "internalType": "struct TokenId",
          "name": "",
          "type": "tuple"
        }
      ],
      "stateMutability": "view",
      "type": "function"
    },
    {
      "inputs": [
        {
          "components": [
            {
              "internalType": "uint32",
              "name": "domain",
              "type": "uint32"
            },
            {
              "internalType": "bytes32",
              "name": "id",
              "type": "bytes32"
            }
          ],
          "internalType": "struct TokenId",
          "name": "_canonical",
          "type": "tuple"
        },
        {
          "internalType": "address",
          "name": "_adoptedAssetId",
          "type": "address"
        },
        {
          "internalType": "address",
          "name": "_representation",
          "type": "address"
        }
      ],
      "name": "removeAssetId",
      "outputs": [],
      "stateMutability": "nonpayable",
      "type": "function"
    },
    {
      "inputs": [
        {
          "internalType": "bytes32",
          "name": "_key",
          "type": "bytes32"
        },
        {
          "internalType": "address",
          "name": "_adoptedAssetId",
          "type": "address"
        },
        {
          "internalType": "address",
          "name": "_representation",
          "type": "address"
        }
      ],
      "name": "removeAssetId",
      "outputs": [],
      "stateMutability": "nonpayable",
      "type": "function"
    },
    {
      "inputs": [
        {
          "internalType": "address",
          "name": "_representation",
          "type": "address"
        }
      ],
      "name": "representationToCanonical",
      "outputs": [
        {
          "components": [
            {
              "internalType": "uint32",
              "name": "domain",
              "type": "uint32"
            },
            {
              "internalType": "bytes32",
              "name": "id",
              "type": "bytes32"
            }
          ],
          "internalType": "struct TokenId",
          "name": "",
          "type": "tuple"
        }
      ],
      "stateMutability": "view",
      "type": "function"
    },
    {
      "inputs": [
        {
          "components": [
            {
              "internalType": "uint32",
              "name": "domain",
              "type": "uint32"
            },
            {
              "internalType": "bytes32",
              "name": "id",
              "type": "bytes32"
            }
          ],
          "internalType": "struct TokenId",
          "name": "_canonical",
          "type": "tuple"
        },
        {
          "internalType": "uint8",
          "name": "_canonicalDecimals",
          "type": "uint8"
        },
        {
          "internalType": "string",
          "name": "_representationName",
          "type": "string"
        },
        {
          "internalType": "string",
          "name": "_representationSymbol",
          "type": "string"
        },
        {
          "internalType": "address",
          "name": "_adoptedAssetId",
          "type": "address"
        },
        {
          "internalType": "address",
          "name": "_stableSwapPool",
          "type": "address"
        },
        {
          "internalType": "uint256",
          "name": "_cap",
          "type": "uint256"
        }
      ],
      "name": "setupAsset",
      "outputs": [
        {
          "internalType": "address",
          "name": "_local",
          "type": "address"
        }
      ],
      "stateMutability": "nonpayable",
      "type": "function"
    },
    {
      "inputs": [
        {
          "components": [
            {
              "internalType": "uint32",
              "name": "domain",
              "type": "uint32"
            },
            {
              "internalType": "bytes32",
              "name": "id",
              "type": "bytes32"
            }
          ],
          "internalType": "struct TokenId",
          "name": "_canonical",
          "type": "tuple"
        },
        {
          "internalType": "address",
          "name": "_representation",
          "type": "address"
        },
        {
          "internalType": "address",
          "name": "_adoptedAssetId",
          "type": "address"
        },
        {
          "internalType": "address",
          "name": "_stableSwapPool",
          "type": "address"
        },
        {
          "internalType": "uint256",
          "name": "_cap",
          "type": "uint256"
        }
      ],
      "name": "setupAssetWithDeployedRepresentation",
      "outputs": [
        {
          "internalType": "address",
          "name": "",
          "type": "address"
        }
      ],
      "stateMutability": "nonpayable",
      "type": "function"
    },
    {
      "inputs": [
        {
          "components": [
            {
              "internalType": "uint32",
              "name": "domain",
              "type": "uint32"
            },
            {
              "internalType": "bytes32",
              "name": "id",
              "type": "bytes32"
            }
          ],
          "internalType": "struct TokenId",
          "name": "_canonical",
          "type": "tuple"
        },
        {
          "internalType": "string",
          "name": "_name",
          "type": "string"
        },
        {
          "internalType": "string",
          "name": "_symbol",
          "type": "string"
        }
      ],
      "name": "updateDetails",
      "outputs": [],
      "stateMutability": "nonpayable",
      "type": "function"
    },
    {
      "inputs": [
        {
          "components": [
            {
              "internalType": "uint32",
              "name": "domain",
              "type": "uint32"
            },
            {
              "internalType": "bytes32",
              "name": "id",
              "type": "bytes32"
            }
          ],
          "internalType": "struct TokenId",
          "name": "_canonical",
          "type": "tuple"
        },
        {
          "internalType": "uint256",
          "name": "_updated",
          "type": "uint256"
        }
      ],
      "name": "updateLiquidityCap",
      "outputs": [],
      "stateMutability": "nonpayable",
      "type": "function"
    }
  ],
  "transactionHash": "0x329a50f2efa10fecee7ddc31b7dee3a9e7fa2962679fe5224536446a34ed3b07",
  "args": [],
  "numDeployments": 1,
  "solcInputHash": "2cb19c6ff260c62b0df6791111e721e0",
  "bytecode": "0x608060405234801561001057600080fd5b50613262806100206000396000f3fe60806040523480156200001157600080fd5b5060043610620001395760003560e01c8063a1b1930111620000bb578063bd8671a7116200007a578063bd8671a714620003b1578063c405842914620003c8578063e9a25ab414620003df578063e9d7bcec14620003f6578063f1537686146200040d57600080fd5b8063a1b193011462000329578063ad4c77711462000340578063ae8bc0de1462000357578063b64a5e07146200036e578063bd7e1e2e146200038557600080fd5b80631ecf6f9f11620001085780631ecf6f9f14620002495780632c1999d0146200026057806357bd0a3214620002775780635a2164e514620002ae5780636006209114620002c557600080fd5b806303e418c2146200013e57806307a38d7b14620001c85780631319f4f214620002005780631506e4631462000230575b600080fd5b620001a26200014f3660046200115d565b6040805180820190915260008082526020820152506040805180820182526001600160a01b03909216600081815260096020818152938220805463ffffffff168652929091528252600101549082015290565b60408051825163ffffffff16815260209283015192810192909252015b60405180910390f35b620001df620001d936600462001190565b62000424565b604080516001600160a01b03938416815292909116602083015201620001bf565b6200021762000211366004620011d8565b6200044a565b6040516001600160a01b039091168152602001620001bf565b62000247620002413660046200123e565b620004e6565b005b620002176200025a3660046200126e565b62000582565b62000217620002713660046200126e565b620005a1565b6200029d620002883660046200126e565b60009081526006602052604090205460ff1690565b6040519015158152602001620001bf565b62000247620002bf36600462001288565b620005ae565b620001a2620002d63660046200115d565b6040805180820190915260008082526020820152506040805180820182526001600160a01b03909216600081815260086020818152938220805463ffffffff168652929091528252600101549082015290565b620002476200033a366004620012d3565b62000645565b62000217620003513660046200130b565b620006bb565b6200029d620003683660046200130b565b620006f3565b620002176200037f366004620013d5565b62000710565b62000217620003963660046200126e565b6000908152600560205260409020546001600160a01b031690565b62000217620003c23660046200130b565b62000800565b62000247620003d93660046200149d565b62000823565b62000217620003f03660046200130b565b6200094a565b62000247620004073660046200151b565b62000967565b620001a26200041e3660046200115d565b620009f8565b6000806200043f62000437858562000a17565b858562000a5a565b915091509250929050565b6000336200045762000a8b565b6001600160a01b03161415801562000496575060033360009081526019602052604090205460ff16600381111562000493576200049362001549565b14155b15620004b557604051637b32c26b60e01b815260040160405180910390fd5b6000620004c58587868a62000ab9565b90508215620004db57620004db87848362000cc8565b509395945050505050565b33620004f162000a8b565b6001600160a01b03161415801562000530575060033360009081526019602052604090205460ff1660038111156200052d576200052d62001549565b14155b156200054f57604051637b32c26b60e01b815260040160405180910390fd5b60006200056e602084018035906200056890866200155f565b62000a17565b90506200057d83838362000d47565b505050565b6000818152600b60205260408120546001600160a01b03165b92915050565b60006200059b8262000dd2565b33620005b962000a8b565b6001600160a01b031614158015620005f8575060033360009081526019602052604090205460ff166003811115620005f557620005f562001549565b14155b156200061757604051637b32c26b60e01b815260040160405180910390fd5b600062000630602085018035906200056890876200155f565b90506200063f81848462000e09565b50505050565b336200065062000a8b565b6001600160a01b0316141580156200068f575060033360009081526019602052604090205460ff1660038111156200068c576200068c62001549565b14155b15620006ae57604051637b32c26b60e01b815260040160405180910390fd5b6200057d83838362000e09565b60006200059b620006d8602084018035906200056890866200155f565b6000908152600b60205260409020546001600160a01b031690565b60006200059b62000288602084018035906200056890866200155f565b6000336200071d62000a8b565b6001600160a01b0316141580156200075c575060033360009081526019602052604090205460ff16600381111562000759576200075962001549565b14155b156200077b57604051637b32c26b60e01b815260040160405180910390fd5b60045463ffffffff166200079360208a018a6200155f565b63ffffffff1614620007c757620007bf60208901803590620007b6908b6200155f565b89898962000f0b565b9050620007ce565b5060208701355b6000620007de8583868c62000ab9565b90508215620007f457620007f489848362000cc8565b50979650505050505050565b60006200059b6200081d602084018035906200056890866200155f565b62000dd2565b336200082e62000a8b565b6001600160a01b0316141580156200086d575060033360009081526019602052604090205460ff1660038111156200086a576200086a62001549565b14155b156200088c57604051637b32c26b60e01b815260040160405180910390fd5b6000620008a5602085018035906200056890876200155f565b6000818152600b60205260409020549091506001600160a01b031680620008df57604051639db40a2560e01b815260040160405180910390fd5b604051635bd8487760e11b81526001600160a01b0382169063b7b090ee906200090f9087908790600401620015cd565b600060405180830381600087803b1580156200092a57600080fd5b505af11580156200093f573d6000803e3d6000fd5b505050505050505050565b60006200059b62000396602084018035906200056890866200155f565b336200097262000a8b565b6001600160a01b031614158015620009b1575060033360009081526019602052604090205460ff166003811115620009ae57620009ae62001549565b14155b15620009d057604051637b32c26b60e01b815260040160405180910390fd5b6000620009e9602084018035906200056890866200155f565b90506200057d83838362000cc8565b60408051808201909152600080825260208201526200059b8262000f93565b6000828260405160200162000a3c92919091825263ffffffff16602082015260400190565b60405160208183030381529060405280519060200120905092915050565b600080600062000a6e868686600062000fb4565b9050600062000a7d8762000dd2565b919791965090945050505050565b7fc8fcad8db84d3cc18b4c41d551ea0ee66dd599cde068d998e57d5e09332c1320546001600160a01b031690565b600062000ad2602083018035906200056890856200155f565b905060006001600160a01b0386161562000aed578562000aef565b845b60008381526006602052604090205490915060ff161562000b235760405163bfa2bf9b60e01b815260040160405180910390fd5b6000828152600660209081526040909120805460ff1916600117905562000b4d908401846200155f565b6001600160a01b0382166000818152600860209081526040808320805463ffffffff191663ffffffff969096169590951785558782018035600190960195909555868352600a909152902080546001600160a01b031916909117905562000bb590846200155f565b60045463ffffffff90811691161462000c4a5762000bd760208401846200155f565b6001600160a01b038681166000818152600960209081526040808320805463ffffffff191663ffffffff9790971696909617865588820135600190960195909555868252600b90529290922080546001600160a01b03191690921790915584161562000c4a5762000c4a83858462000d47565b62000c5960208401846200155f565b63ffffffff168360200135837f0c58c78506e2d526f5ccdba28119c9ca3b5ce48e1462e0e19bc39232db11c63284893360405162000cb7939291906001600160a01b0393841681529183166020830152909116604082015260600190565b60405180910390a450949350505050565b600081815260076020908152604090912083905562000cea908401846200155f565b63ffffffff168360200135827f8976b61819dcee01042166c2c5612babc4f820a30843a7f8b23c0ddc343f6ef4853360405162000d3a9291909182526001600160a01b0316602082015260400190565b60405180910390a4505050565b600081815260056020908152604090912080546001600160a01b0319166001600160a01b03851617905562000d7f908401846200155f565b63ffffffff168360200135827f16285b1cf634d546d51fefe55f6e63e5edf970d2a3d2bd50b55a8cfad25e8b56853360405162000d3a9291906001600160a01b0392831681529116602082015260400190565b6000818152600a60205260408120546001600160a01b0316806200059b57604051634cdfde3760e11b815260040160405180910390fd5b60008381526006602052604090205460ff1662000e3957604051631c999e7d60e11b815260040160405180910390fd5b6000838152600660209081526040808320805460ff19169055600782528083208390556005825280832080546001600160a01b03199081169091556001600160a01b03868116855260088452828520805463ffffffff19908116825560019182018790559187168652600985528386208054909216825501849055868452600a8352818420805482169055600b8352928190208054909316909255905133815284917f9d181adb70e733f5235f839c1eed929407ea8526e41d01f49b9fef703e78dddf910160405180910390a2505050565b600083838360405162000f1e9062001132565b62000f2c93929190620015ff565b604051809103906000f08015801562000f49573d6000803e3d6000fd5b509050806001600160a01b0316868663ffffffff167f84d5e3618bf276f3d29a931646fdd996b398a3efa3cf6bceefc1fe7f0304059f60405160405180910390a495945050505050565b60408051808201909152600080825260208201526200059b82600062000ff9565b600481015460009063ffffffff9081169084160362000fd557508262000ff1565b506000848152600b820160205260409020546001600160a01b03165b949350505050565b604080518082019091526000808252602082015260408051808201909152600080825260208201526001600160a01b038416620010385790506200059b565b506001600160a01b03831660009081526008830160209081526040918290208251808401909352805463ffffffff168084526001909101549183019190915215620010855790506200059b565b620010918484620010fa565b15620010b957600483015463ffffffff1681526001600160a01b0384166020820152620010f3565b506001600160a01b03831660009081526009830160209081526040918290208251808401909352805463ffffffff16835260010154908201525b9392505050565b6001600160a01b038216600090815260098201602052604081205463ffffffff16156200112a575060006200059b565b50503b151590565b611bf1806200163c83390190565b80356001600160a01b03811681146200115857600080fd5b919050565b6000602082840312156200117057600080fd5b620010f38262001140565b803563ffffffff811681146200115857600080fd5b60008060408385031215620011a457600080fd5b82359150620011b6602084016200117b565b90509250929050565b600060408284031215620011d257600080fd5b50919050565b600080600080600060c08688031215620011f157600080fd5b620011fd8787620011bf565b94506200120d6040870162001140565b93506200121d6060870162001140565b92506200122d6080870162001140565b9497939650919460a0013592915050565b600080606083850312156200125257600080fd5b6200125e8484620011bf565b9150620011b66040840162001140565b6000602082840312156200128157600080fd5b5035919050565b6000806000608084860312156200129e57600080fd5b620012aa8585620011bf565b9250620012ba6040850162001140565b9150620012ca6060850162001140565b90509250925092565b600080600060608486031215620012e957600080fd5b83359250620012fb6020850162001140565b9150620012ca6040850162001140565b6000604082840312156200131e57600080fd5b620010f38383620011bf565b634e487b7160e01b600052604160045260246000fd5b600082601f8301126200135257600080fd5b813567ffffffffffffffff808211156200137057620013706200132a565b604051601f8301601f19908116603f011681019082821181831017156200139b576200139b6200132a565b81604052838152866020858801011115620013b557600080fd5b836020870160208301376000602085830101528094505050505092915050565b6000806000806000806000610100888a031215620013f257600080fd5b620013fe8989620011bf565b9650604088013560ff811681146200141557600080fd5b9550606088013567ffffffffffffffff808211156200143357600080fd5b620014418b838c0162001340565b965060808a01359150808211156200145857600080fd5b50620014678a828b0162001340565b9450506200147860a0890162001140565b92506200148860c0890162001140565b915060e0880135905092959891949750929550565b600080600060808486031215620014b357600080fd5b620014bf8585620011bf565b9250604084013567ffffffffffffffff80821115620014dd57600080fd5b620014eb8783880162001340565b935060608601359150808211156200150257600080fd5b50620015118682870162001340565b9150509250925092565b600080606083850312156200152f57600080fd5b6200153b8484620011bf565b946040939093013593505050565b634e487b7160e01b600052602160045260246000fd5b6000602082840312156200157257600080fd5b620010f3826200117b565b6000815180845260005b81811015620015a55760208185018101518683018201520162001587565b81811115620015b8576000602083870101525b50601f01601f19169290920160200192915050565b604081526000620015e260408301856200157d565b8281036020840152620015f681856200157d565b95945050505050565b60ff841681526060602082015260006200161d60608301856200157d565b82810360408401526200163181856200157d565b969550505050505056fe6101406040523480156200001257600080fd5b5060405162001bf138038062001bf1833981016040819052620000359162000263565b828282604051806040016040528060018152602001603160f81b81525082816200006e620000686200014260201b60201c565b62000146565b815160209283012081519183019190912060e08290526101008190524660a0818152604080517f8b73c3c69bb8fe3d512ecc4cf759cc79239f7b179b0ffacaa9a75d522b39400f818801819052818301969096526060810194909452608080850193909352308483018190528151808603909301835260c0948501909152815191909501209052919091526101205260066200010b848262000376565b506008805460ff191660ff8616179055600762000129838262000376565b5080516020909101206005555062000442945050505050565b3390565b600080546001600160a01b038381166001600160a01b0319831681178455604051919092169283917f8be0079c531659141344cd1fd0a4f28419497f9722a3daafe3b4186f6b6457e09190a35050565b634e487b7160e01b600052604160045260246000fd5b600082601f830112620001be57600080fd5b81516001600160401b0380821115620001db57620001db62000196565b604051601f8301601f19908116603f0116810190828211818310171562000206576200020662000196565b816040528381526020925086838588010111156200022357600080fd5b600091505b8382101562000247578582018301518183018401529082019062000228565b83821115620002595760008385830101525b9695505050505050565b6000806000606084860312156200027957600080fd5b835160ff811681146200028b57600080fd5b60208501519093506001600160401b0380821115620002a957600080fd5b620002b787838801620001ac565b93506040860151915080821115620002ce57600080fd5b50620002dd86828701620001ac565b9150509250925092565b600181811c90821680620002fc57607f821691505b6020821081036200031d57634e487b7160e01b600052602260045260246000fd5b50919050565b601f8211156200037157600081815260208120601f850160051c810160208610156200034c5750805b601f850160051c820191505b818110156200036d5782815560010162000358565b5050505b505050565b81516001600160401b0381111562000392576200039262000196565b620003aa81620003a38454620002e7565b8462000323565b602080601f831160018114620003e25760008415620003c95750858301515b600019600386901b1c1916600185901b1785556200036d565b600085815260208120601f198616915b828110156200041357888601518255948401946001909101908401620003f2565b5085821015620004325787850151600019600388901b60f8161c191681555b5050505050600190811b01905550565b60805160a05160c05160e051610100516101205161175f620004926000396000610eb801526000610f0701526000610ee201526000610e3b01526000610e6501526000610e8f015261175f6000f3fe608060405234801561001057600080fd5b506004361061012c5760003560e01c80637ecebe00116100ad578063a9059cbb11610071578063a9059cbb14610253578063b7b090ee14610266578063d505accf14610279578063dd62ed3e1461028c578063f2fde38b146102c557600080fd5b80637ecebe00146101f75780638da5cb5b1461020a57806395d89b41146102255780639dc29fac1461022d578063a457c2d71461024057600080fd5b80633644e515116100f45780633644e515146101ac57806339509351146101b457806340c10f19146101c757806370a08231146101dc578063715018a6146101ef57600080fd5b806306fdde0314610131578063095ea7b31461014f57806318160ddd1461017257806323b872dd14610184578063313ce56714610197575b600080fd5b6101396102d8565b60405161014691906111f8565b60405180910390f35b61016261015d366004611269565b61036d565b6040519015158152602001610146565b6003545b604051908152602001610146565b610162610192366004611293565b610383565b60085460405160ff9091168152602001610146565b6101766103ec565b6101626101c2366004611269565b61047f565b6101da6101d5366004611269565b6104b5565b005b6101766101ea3660046112cf565b6104cb565b6101da6104eb565b6101766102053660046112cf565b6104ff565b6000546040516001600160a01b039091168152602001610146565b61013961051d565b6101da61023b366004611269565b61052f565b61016261024e366004611269565b610541565b610162610261366004611269565b610590565b6101da610274366004611333565b61059d565b6101da61028736600461139f565b61061f565b61017661029a366004611412565b6001600160a01b03918216600090815260026020908152604080832093909416825291909152205490565b6101da6102d33660046112cf565b610788565b6060600660000180546102ea90611445565b80601f016020809104026020016040519081016040528092919081815260200182805461031690611445565b80156103635780601f1061033857610100808354040283529160200191610363565b820191906000526020600020905b81548152906001019060200180831161034657829003601f168201915b5050505050905090565b600061037a338484610801565b50600192915050565b6000610390848484610926565b6103e284336103dd856040518060600160405280602881526020016116dd602891396001600160a01b038a1660009081526002602090815260408083203384529091529020549190610aac565b610801565b5060019392505050565b60007f8b73c3c69bb8fe3d512ecc4cf759cc79239f7b179b0ffacaa9a75d522b39400f60066000016040516020016104249190611479565b60408051601f198184030181528282528051602091820120600554918401949094529082019290925260608101919091524660808201523060a082015260c00160405160208183030381529060405280519060200120905090565b3360008181526002602090815260408083206001600160a01b0387168452909152812054909161037a9185906103dd9086610ad8565b6104bd610aeb565b6104c78282610b45565b5050565b6001600160a01b0381166000908152600160205260408120545b92915050565b6104f3610aeb565b6104fd6000610c2b565b565b6001600160a01b0381166000908152600460205260408120546104e5565b6060600660010180546102ea90611445565b610537610aeb565b6104c78282610c7b565b600061037a33846103dd85604051806060016040528060258152602001611705602591393360009081526002602090815260408083206001600160a01b038d1684529091529020549190610aac565b600061037a338484610926565b6105a5610aeb565b60066105b2848683611568565b5060076105c0828483611568565b5081816040516105d1929190611629565b604051809103902084846040516105e9929190611629565b604051908190038120907f1ec4c73af923253fb2c28a509dd78d342709289a09929d78c64c0b8e047efbcd90600090a350505050565b834211156106745760405162461bcd60e51b815260206004820152601d60248201527f45524332305065726d69743a206578706972656420646561646c696e6500000060448201526064015b60405180910390fd5b60007f6e71edae12b1b97f4d1f60370fef10105fa2faae0126114a169c64845d6126c98888886106a38c610d7f565b6040805160208101969096526001600160a01b0394851690860152929091166060840152608083015260a082015260c0810186905260e00160405160208183030381529060405280519060200120905060006106fe82610da7565b9050600061070e82878787610df5565b9050896001600160a01b0316816001600160a01b0316146107715760405162461bcd60e51b815260206004820152601e60248201527f45524332305065726d69743a20696e76616c6964207369676e61747572650000604482015260640161066b565b61077c8a8a8a610801565b50505050505050505050565b610790610aeb565b6001600160a01b0381166107f55760405162461bcd60e51b815260206004820152602660248201527f4f776e61626c653a206e6577206f776e657220697320746865207a65726f206160448201526564647265737360d01b606482015260840161066b565b6107fe81610c2b565b50565b6001600160a01b0383166108635760405162461bcd60e51b8152602060048201526024808201527f45524332303a20617070726f76652066726f6d20746865207a65726f206164646044820152637265737360e01b606482015260840161066b565b6001600160a01b0382166108c45760405162461bcd60e51b815260206004820152602260248201527f45524332303a20617070726f766520746f20746865207a65726f206164647265604482015261737360f01b606482015260840161066b565b6001600160a01b0383811660008181526002602090815260408083209487168084529482529182902085905590518481527f8c5be1e5ebec7d5bd14f71427d1e84f3dd0314c0f7b2291e5b200ac8c7c3b92591015b60405180910390a3505050565b6001600160a01b03831661098a5760405162461bcd60e51b815260206004820152602560248201527f45524332303a207472616e736665722066726f6d20746865207a65726f206164604482015264647265737360d81b606482015260840161066b565b6001600160a01b0382166109ec5760405162461bcd60e51b815260206004820152602360248201527f45524332303a207472616e7366657220746f20746865207a65726f206164647260448201526265737360e81b606482015260840161066b565b610a29816040518060600160405280602681526020016116b7602691396001600160a01b0386166000908152600160205260409020549190610aac565b6001600160a01b038085166000908152600160205260408082209390935590841681522054610a589082610ad8565b6001600160a01b0380841660008181526001602052604090819020939093559151908516907fddf252ad1be2c89b69c2b068fc378daa952ba7f163c4a11628f55a4df523b3ef906109199085815260200190565b60008184841115610ad05760405162461bcd60e51b815260040161066b91906111f8565b505050900390565b6000610ae4828461164f565b9392505050565b6000546001600160a01b031633146104fd5760405162461bcd60e51b815260206004820181905260248201527f4f776e61626c653a2063616c6c6572206973206e6f7420746865206f776e6572604482015260640161066b565b6001600160a01b038216610b9b5760405162461bcd60e51b815260206004820152601f60248201527f45524332303a206d696e7420746f20746865207a65726f206164647265737300604482015260640161066b565b600354610ba89082610ad8565b6003556001600160a01b038216600090815260016020526040902054610bce9082610ad8565b6001600160a01b0383166000818152600160205260408082209390935591519091907fddf252ad1be2c89b69c2b068fc378daa952ba7f163c4a11628f55a4df523b3ef90610c1f9085815260200190565b60405180910390a35050565b600080546001600160a01b038381166001600160a01b0319831681178455604051919092169283917f8be0079c531659141344cd1fd0a4f28419497f9722a3daafe3b4186f6b6457e09190a35050565b6001600160a01b038216610cdb5760405162461bcd60e51b815260206004820152602160248201527f45524332303a206275726e2066726f6d20746865207a65726f206164647265736044820152607360f81b606482015260840161066b565b610d1881604051806060016040528060228152602001611695602291396001600160a01b0385166000908152600160205260409020549190610aac565b6001600160a01b038316600090815260016020526040902055600354610d3e9082610e22565b6003556040518181526000906001600160a01b038416907fddf252ad1be2c89b69c2b068fc378daa952ba7f163c4a11628f55a4df523b3ef90602001610c1f565b6001600160a01b03811660009081526004602052604090208054600181018255905b50919050565b60006104e5610db4610e2e565b8360405161190160f01b6020820152602281018390526042810182905260009060620160405160208183030381529060405280519060200120905092915050565b6000806000610e0687878787610f55565b91509150610e1381611042565b5095945050505050565b505050565b6000610ae48284611667565b6000306001600160a01b037f000000000000000000000000000000000000000000000000000000000000000016148015610e8757507f000000000000000000000000000000000000000000000000000000000000000046145b15610eb157507f000000000000000000000000000000000000000000000000000000000000000090565b50604080517f00000000000000000000000000000000000000000000000000000000000000006020808301919091527f0000000000000000000000000000000000000000000000000000000000000000828401527f000000000000000000000000000000000000000000000000000000000000000060608301524660808301523060a0808401919091528351808403909101815260c0909201909252805191012090565b6000807f7fffffffffffffffffffffffffffffff5d576e7357a4501ddfe92f46681b20a0831115610f8c5750600090506003611039565b8460ff16601b14158015610fa457508460ff16601c14155b15610fb55750600090506004611039565b6040805160008082526020820180845289905260ff881692820192909252606081018690526080810185905260019060a0016020604051602081039080840390855afa158015611009573d6000803e3d6000fd5b5050604051601f1901519150506001600160a01b03811661103257600060019250925050611039565b9150600090505b94509492505050565b60008160048111156110565761105661167e565b0361105e5750565b60018160048111156110725761107261167e565b036110bf5760405162461bcd60e51b815260206004820152601860248201527f45434453413a20696e76616c6964207369676e61747572650000000000000000604482015260640161066b565b60028160048111156110d3576110d361167e565b036111205760405162461bcd60e51b815260206004820152601f60248201527f45434453413a20696e76616c6964207369676e6174757265206c656e67746800604482015260640161066b565b60038160048111156111345761113461167e565b0361118c5760405162461bcd60e51b815260206004820152602260248201527f45434453413a20696e76616c6964207369676e6174757265202773272076616c604482015261756560f01b606482015260840161066b565b60048160048111156111a0576111a061167e565b036107fe5760405162461bcd60e51b815260206004820152602260248201527f45434453413a20696e76616c6964207369676e6174757265202776272076616c604482015261756560f01b606482015260840161066b565b600060208083528351808285015260005b8181101561122557858101830151858201604001528201611209565b81811115611237576000604083870101525b50601f01601f1916929092016040019392505050565b80356001600160a01b038116811461126457600080fd5b919050565b6000806040838503121561127c57600080fd5b6112858361124d565b946020939093013593505050565b6000806000606084860312156112a857600080fd5b6112b18461124d565b92506112bf6020850161124d565b9150604084013590509250925092565b6000602082840312156112e157600080fd5b610ae48261124d565b60008083601f8401126112fc57600080fd5b50813567ffffffffffffffff81111561131457600080fd5b60208301915083602082850101111561132c57600080fd5b9250929050565b6000806000806040858703121561134957600080fd5b843567ffffffffffffffff8082111561136157600080fd5b61136d888389016112ea565b9096509450602087013591508082111561138657600080fd5b50611393878288016112ea565b95989497509550505050565b600080600080600080600060e0888a0312156113ba57600080fd5b6113c38861124d565b96506113d16020890161124d565b95506040880135945060608801359350608088013560ff811681146113f557600080fd5b9699959850939692959460a0840135945060c09093013592915050565b6000806040838503121561142557600080fd5b61142e8361124d565b915061143c6020840161124d565b90509250929050565b600181811c9082168061145957607f821691505b602082108103610da157634e487b7160e01b600052602260045260246000fd5b600060208083526000845461148d81611445565b808487015260406001808416600081146114ae57600181146114c8576114f6565b60ff1985168984015283151560051b8901830195506114f6565b896000528660002060005b858110156114ee5781548b82018601529083019088016114d3565b8a0184019650505b509398975050505050505050565b634e487b7160e01b600052604160045260246000fd5b601f821115610e1d57600081815260208120601f850160051c810160208610156115415750805b601f850160051c820191505b818110156115605782815560010161154d565b505050505050565b67ffffffffffffffff83111561158057611580611504565b6115948361158e8354611445565b8361151a565b6000601f8411600181146115c857600085156115b05750838201355b600019600387901b1c1916600186901b178355611622565b600083815260209020601f19861690835b828110156115f957868501358255602094850194600190920191016115d9565b50868210156116165760001960f88860031b161c19848701351681555b505060018560011b0183555b5050505050565b8183823760009101908152919050565b634e487b7160e01b600052601160045260246000fd5b6000821982111561166257611662611639565b500190565b60008282101561167957611679611639565b500390565b634e487b7160e01b600052602160045260246000fdfe45524332303a206275726e20616d6f756e7420657863656564732062616c616e636545524332303a207472616e7366657220616d6f756e7420657863656564732062616c616e636545524332303a207472616e7366657220616d6f756e74206578636565647320616c6c6f77616e636545524332303a2064656372656173656420616c6c6f77616e63652062656c6f77207a65726fa26469706673582212209b2a9d6e09f89a9fd0bc07f6353b421c4b8d7653ab166ee79a8326d3fb3b77dd64736f6c634300080f0033a264697066735822122004b4f96f4eb1f99e12ef26e1f413c09d45b6f3e22b462fbf73d5aab0c31fae3b64736f6c634300080f0033",
  "devdoc": {
    "events": {
      "AssetAdded(bytes32,bytes32,uint32,address,address,address)": {
        "params": {
          "adoptedAsset": "- The address of the adopted (user-expected) asset",
          "caller": "- The account that called the function",
          "canonicalId": "- The canonical identifier of the token the local <> adopted AMM is for",
          "domain": "- The domain of the canonical token for the local <> adopted amm",
          "key": "- The key in the mapping (hash of canonical id and domain)",
          "localAsset": "- The address of the local asset"
        }
      },
      "AssetRemoved(bytes32,address)": {
        "params": {
          "caller": "- The account that called the function",
          "key": "- The hash of the canonical identifier and domain of the token removed"
        }
      },
      "LiquidityCapUpdated(bytes32,bytes32,uint32,uint256,address)": {
        "params": {
          "caller": "- The account that called the function",
          "canonicalId": "- The canonical identifier of the token the local <> adopted AMM is for",
          "cap": "- The newly enforced liquidity cap (if it is 0, no cap is enforced)",
          "domain": "- The domain of the canonical token for the local <> adopted amm",
          "key": "- The key in the mapping (hash of canonical id and domain)"
        }
      },
      "StableSwapAdded(bytes32,bytes32,uint32,address,address)": {
        "params": {
          "caller": "- The account that called the function",
          "canonicalId": "- The canonical identifier of the token the local <> adopted AMM is for",
          "domain": "- The domain of the canonical token for the local <> adopted amm",
          "key": "- The key in the mapping (hash of canonical id and domain)",
          "swapPool": "- The address of the AMM"
        }
      },
      "TokenDeployed(uint32,bytes32,address)": {
        "params": {
          "domain": "the domain of the chain where the canonical asset is deployed",
          "id": "the bytes32 address of the canonical token contract",
          "representation": "the address of the newly locally deployed representation contract"
        }
      }
    },
    "kind": "dev",
    "methods": {
      "addStableSwapPool((uint32,bytes32),address)": {
        "details": "Must pass in the _canonical information so it can be emitted in event"
      },
      "removeAssetId((uint32,bytes32),address,address)": {
        "params": {
          "_adoptedAssetId": "- Corresponding adopted asset to remove",
          "_canonical": "- The canonical id and domain to remove"
        }
      },
      "removeAssetId(bytes32,address,address)": {
        "params": {
          "_adoptedAssetId": "- Corresponding adopted asset to remove",
          "_key": "- The hash of the canonical id and domain to remove (mapping key)"
        }
      },
      "setupAsset((uint32,bytes32),uint8,string,string,address,address,uint256)": {
        "details": "When whitelisting the canonical asset, all representational assets would be whitelisted as well. In the event you have a different adopted asset (i.e. PoS USDC on polygon), you should *not* whitelist the adopted asset. The stable swap pool address used should allow you to swap between the local <> adopted asset.",
        "params": {
          "_adoptedAssetId": "- The used asset id for this domain (e.g. PoS USDC for polygon)",
          "_canonical": "- The canonical asset to add by id and domain. All representations will be whitelisted as well",
          "_stableSwapPool": "- The address of the local stableswap pool, if it exists."
        }
      },
      "updateDetails((uint32,bytes32),string,string)": {
        "params": {
          "_canonical": "- The canonical id and domain to remove",
          "_name": "- The new name",
          "_symbol": "- The new symbol"
        }
      },
      "updateLiquidityCap((uint32,bytes32),uint256)": {
        "details": "Must pass in the _canonical information so it can be emitted in event"
      }
    },
    "version": 1
  },
  "userdoc": {
    "events": {
      "AssetAdded(bytes32,bytes32,uint32,address,address,address)": {
        "notice": "Emitted when a new asset is added"
      },
      "AssetRemoved(bytes32,address)": {
        "notice": "Emitted when an asset is removed from whitelists"
      },
      "LiquidityCapUpdated(bytes32,bytes32,uint32,uint256,address)": {
        "notice": "Emitted when a liquidity cap is updated"
      },
      "StableSwapAdded(bytes32,bytes32,uint32,address,address)": {
        "notice": "Emitted when a new stable-swap AMM is added for the local <> adopted token"
      },
      "TokenDeployed(uint32,bytes32,address)": {
        "notice": "emitted when a representation token contract is deployed"
      }
    },
    "kind": "user",
    "methods": {
      "addStableSwapPool((uint32,bytes32),address)": {
        "notice": "Adds a stable swap pool for the local <> adopted asset."
      },
      "removeAssetId((uint32,bytes32),address,address)": {
        "notice": "Used to remove assets from the whitelist"
      },
      "removeAssetId(bytes32,address,address)": {
        "notice": "Used to remove assets from the whitelist"
      },
      "setupAsset((uint32,bytes32),uint8,string,string,address,address,uint256)": {
        "notice": "Used to add supported assets. This is an admin only function"
      },
      "updateDetails((uint32,bytes32),string,string)": {
        "notice": "Used to update the name and symbol of a local token"
      },
      "updateLiquidityCap((uint32,bytes32),uint256)": {
        "notice": "Adds a stable swap pool for the local <> adopted asset."
      }
    },
    "version": 1
  },
  "storageLayout": {
    "storage": [
      {
        "astId": 13868,
        "contract": "contracts/core/connext/facets/TokenFacet.sol:TokenFacet",
        "label": "s",
        "offset": 0,
        "slot": "0",
        "type": "t_struct(AppStorage)28097_storage"
      }
    ],
    "types": {
      "t_address": {
        "encoding": "inplace",
        "label": "address",
        "numberOfBytes": "20"
      },
      "t_array(t_address)dyn_storage": {
        "base": "t_address",
        "encoding": "dynamic_array",
        "label": "address[]",
        "numberOfBytes": "32"
      },
      "t_array(t_contract(IERC20)11540)dyn_storage": {
        "base": "t_contract(IERC20)11540",
        "encoding": "dynamic_array",
        "label": "contract IERC20[]",
        "numberOfBytes": "32"
      },
      "t_array(t_uint256)dyn_storage": {
        "base": "t_uint256",
        "encoding": "dynamic_array",
        "label": "uint256[]",
        "numberOfBytes": "32"
      },
      "t_bool": {
        "encoding": "inplace",
        "label": "bool",
        "numberOfBytes": "1"
      },
      "t_bytes32": {
        "encoding": "inplace",
        "label": "bytes32",
        "numberOfBytes": "32"
      },
      "t_contract(IConnectorManager)45249": {
        "encoding": "inplace",
        "label": "contract IConnectorManager",
        "numberOfBytes": "20"
      },
      "t_contract(IERC20)11540": {
        "encoding": "inplace",
        "label": "contract IERC20",
        "numberOfBytes": "20"
      },
      "t_contract(IStableSwap)25766": {
        "encoding": "inplace",
        "label": "contract IStableSwap",
        "numberOfBytes": "20"
      },
      "t_contract(LPToken)22553": {
        "encoding": "inplace",
        "label": "contract LPToken",
        "numberOfBytes": "20"
      },
      "t_enum(DestinationTransferStatus)27873": {
        "encoding": "inplace",
        "label": "enum DestinationTransferStatus",
        "numberOfBytes": "1"
      },
      "t_enum(Role)27868": {
        "encoding": "inplace",
        "label": "enum Role",
        "numberOfBytes": "1"
      },
      "t_mapping(t_address,t_address)": {
        "encoding": "mapping",
        "key": "t_address",
        "label": "mapping(address => address)",
        "numberOfBytes": "32",
        "value": "t_address"
      },
      "t_mapping(t_address,t_bool)": {
        "encoding": "mapping",
        "key": "t_address",
        "label": "mapping(address => bool)",
        "numberOfBytes": "32",
        "value": "t_bool"
      },
      "t_mapping(t_address,t_enum(Role)27868)": {
        "encoding": "mapping",
        "key": "t_address",
        "label": "mapping(address => enum Role)",
        "numberOfBytes": "32",
        "value": "t_enum(Role)27868"
      },
      "t_mapping(t_address,t_mapping(t_address,t_uint256))": {
        "encoding": "mapping",
        "key": "t_address",
        "label": "mapping(address => mapping(address => uint256))",
        "numberOfBytes": "32",
        "value": "t_mapping(t_address,t_uint256)"
      },
      "t_mapping(t_address,t_struct(TokenId)27878_storage)": {
        "encoding": "mapping",
        "key": "t_address",
        "label": "mapping(address => struct TokenId)",
        "numberOfBytes": "32",
        "value": "t_struct(TokenId)27878_storage"
      },
      "t_mapping(t_address,t_uint256)": {
        "encoding": "mapping",
        "key": "t_address",
        "label": "mapping(address => uint256)",
        "numberOfBytes": "32",
        "value": "t_uint256"
      },
      "t_mapping(t_address,t_uint8)": {
        "encoding": "mapping",
        "key": "t_address",
        "label": "mapping(address => uint8)",
        "numberOfBytes": "32",
        "value": "t_uint8"
      },
      "t_mapping(t_bytes32,t_address)": {
        "encoding": "mapping",
        "key": "t_bytes32",
        "label": "mapping(bytes32 => address)",
        "numberOfBytes": "32",
        "value": "t_address"
      },
      "t_mapping(t_bytes32,t_array(t_address)dyn_storage)": {
        "encoding": "mapping",
        "key": "t_bytes32",
        "label": "mapping(bytes32 => address[])",
        "numberOfBytes": "32",
        "value": "t_array(t_address)dyn_storage"
      },
      "t_mapping(t_bytes32,t_bool)": {
        "encoding": "mapping",
        "key": "t_bytes32",
        "label": "mapping(bytes32 => bool)",
        "numberOfBytes": "32",
        "value": "t_bool"
      },
      "t_mapping(t_bytes32,t_contract(IStableSwap)25766)": {
        "encoding": "mapping",
        "key": "t_bytes32",
        "label": "mapping(bytes32 => contract IStableSwap)",
        "numberOfBytes": "32",
        "value": "t_contract(IStableSwap)25766"
      },
      "t_mapping(t_bytes32,t_enum(DestinationTransferStatus)27873)": {
        "encoding": "mapping",
        "key": "t_bytes32",
        "label": "mapping(bytes32 => enum DestinationTransferStatus)",
        "numberOfBytes": "32",
        "value": "t_enum(DestinationTransferStatus)27873"
      },
      "t_mapping(t_bytes32,t_mapping(t_address,t_uint8))": {
        "encoding": "mapping",
        "key": "t_bytes32",
        "label": "mapping(bytes32 => mapping(address => uint8))",
        "numberOfBytes": "32",
        "value": "t_mapping(t_address,t_uint8)"
      },
      "t_mapping(t_bytes32,t_struct(Swap)29292_storage)": {
        "encoding": "mapping",
        "key": "t_bytes32",
        "label": "mapping(bytes32 => struct SwapUtils.Swap)",
        "numberOfBytes": "32",
        "value": "t_struct(Swap)29292_storage"
      },
      "t_mapping(t_bytes32,t_uint256)": {
        "encoding": "mapping",
        "key": "t_bytes32",
        "label": "mapping(bytes32 => uint256)",
        "numberOfBytes": "32",
        "value": "t_uint256"
      },
      "t_mapping(t_uint32,t_bytes32)": {
        "encoding": "mapping",
        "key": "t_uint32",
        "label": "mapping(uint32 => bytes32)",
        "numberOfBytes": "32",
        "value": "t_bytes32"
      },
      "t_struct(AppStorage)28097_storage": {
        "encoding": "inplace",
        "label": "struct AppStorage",
        "members": [
          {
            "astId": 27946,
            "contract": "contracts/core/connext/facets/TokenFacet.sol:TokenFacet",
            "label": "initialized",
            "offset": 0,
            "slot": "0",
            "type": "t_bool"
          },
          {
            "astId": 27948,
            "contract": "contracts/core/connext/facets/TokenFacet.sol:TokenFacet",
            "label": "LIQUIDITY_FEE_NUMERATOR",
            "offset": 0,
            "slot": "1",
            "type": "t_uint256"
          },
          {
            "astId": 27951,
            "contract": "contracts/core/connext/facets/TokenFacet.sol:TokenFacet",
            "label": "relayerFeeVault",
            "offset": 0,
            "slot": "2",
            "type": "t_address"
          },
          {
            "astId": 27954,
            "contract": "contracts/core/connext/facets/TokenFacet.sol:TokenFacet",
            "label": "nonce",
            "offset": 0,
            "slot": "3",
            "type": "t_uint256"
          },
          {
            "astId": 27957,
            "contract": "contracts/core/connext/facets/TokenFacet.sol:TokenFacet",
            "label": "domain",
            "offset": 0,
            "slot": "4",
            "type": "t_uint32"
          },
          {
            "astId": 27963,
            "contract": "contracts/core/connext/facets/TokenFacet.sol:TokenFacet",
            "label": "adoptedToLocalPools",
            "offset": 0,
            "slot": "5",
            "type": "t_mapping(t_bytes32,t_contract(IStableSwap)25766)"
          },
          {
            "astId": 27968,
            "contract": "contracts/core/connext/facets/TokenFacet.sol:TokenFacet",
            "label": "approvedAssets",
            "offset": 0,
            "slot": "6",
            "type": "t_mapping(t_bytes32,t_bool)"
          },
          {
            "astId": 27973,
            "contract": "contracts/core/connext/facets/TokenFacet.sol:TokenFacet",
            "label": "caps",
            "offset": 0,
            "slot": "7",
            "type": "t_mapping(t_bytes32,t_uint256)"
          },
          {
            "astId": 27979,
            "contract": "contracts/core/connext/facets/TokenFacet.sol:TokenFacet",
            "label": "adoptedToCanonical",
            "offset": 0,
            "slot": "8",
            "type": "t_mapping(t_address,t_struct(TokenId)27878_storage)"
          },
          {
            "astId": 27985,
            "contract": "contracts/core/connext/facets/TokenFacet.sol:TokenFacet",
            "label": "representationToCanonical",
            "offset": 0,
            "slot": "9",
            "type": "t_mapping(t_address,t_struct(TokenId)27878_storage)"
          },
          {
            "astId": 27990,
            "contract": "contracts/core/connext/facets/TokenFacet.sol:TokenFacet",
            "label": "canonicalToAdopted",
            "offset": 0,
            "slot": "10",
            "type": "t_mapping(t_bytes32,t_address)"
          },
          {
            "astId": 27995,
            "contract": "contracts/core/connext/facets/TokenFacet.sol:TokenFacet",
            "label": "canonicalToRepresentation",
            "offset": 0,
            "slot": "11",
            "type": "t_mapping(t_bytes32,t_address)"
          },
          {
            "astId": 28001,
            "contract": "contracts/core/connext/facets/TokenFacet.sol:TokenFacet",
            "label": "transferStatus",
            "offset": 0,
            "slot": "12",
            "type": "t_mapping(t_bytes32,t_enum(DestinationTransferStatus)27873)"
          },
          {
            "astId": 28007,
            "contract": "contracts/core/connext/facets/TokenFacet.sol:TokenFacet",
            "label": "routedTransfers",
            "offset": 0,
            "slot": "13",
            "type": "t_mapping(t_bytes32,t_array(t_address)dyn_storage)"
          },
          {
            "astId": 28014,
            "contract": "contracts/core/connext/facets/TokenFacet.sol:TokenFacet",
            "label": "routerBalances",
            "offset": 0,
            "slot": "14",
            "type": "t_mapping(t_address,t_mapping(t_address,t_uint256))"
          },
          {
            "astId": 28019,
            "contract": "contracts/core/connext/facets/TokenFacet.sol:TokenFacet",
            "label": "approvedRelayers",
            "offset": 0,
            "slot": "15",
            "type": "t_mapping(t_address,t_bool)"
          },
          {
            "astId": 28022,
            "contract": "contracts/core/connext/facets/TokenFacet.sol:TokenFacet",
            "label": "maxRoutersPerTransfer",
            "offset": 0,
            "slot": "16",
            "type": "t_uint256"
          },
          {
            "astId": 28027,
            "contract": "contracts/core/connext/facets/TokenFacet.sol:TokenFacet",
            "label": "slippage",
            "offset": 0,
            "slot": "17",
            "type": "t_mapping(t_bytes32,t_uint256)"
          },
          {
            "astId": 28032,
            "contract": "contracts/core/connext/facets/TokenFacet.sol:TokenFacet",
            "label": "remotes",
            "offset": 0,
            "slot": "18",
            "type": "t_mapping(t_uint32,t_bytes32)"
          },
          {
            "astId": 28034,
            "contract": "contracts/core/connext/facets/TokenFacet.sol:TokenFacet",
            "label": "_proposed",
            "offset": 0,
            "slot": "19",
            "type": "t_address"
          },
          {
            "astId": 28036,
            "contract": "contracts/core/connext/facets/TokenFacet.sol:TokenFacet",
            "label": "_proposedOwnershipTimestamp",
            "offset": 0,
            "slot": "20",
            "type": "t_uint256"
          },
          {
            "astId": 28038,
            "contract": "contracts/core/connext/facets/TokenFacet.sol:TokenFacet",
            "label": "_routerWhitelistRemoved",
            "offset": 0,
            "slot": "21",
            "type": "t_bool"
          },
          {
            "astId": 28040,
            "contract": "contracts/core/connext/facets/TokenFacet.sol:TokenFacet",
            "label": "_routerWhitelistTimestamp",
            "offset": 0,
            "slot": "22",
            "type": "t_uint256"
          },
          {
            "astId": 28042,
            "contract": "contracts/core/connext/facets/TokenFacet.sol:TokenFacet",
            "label": "_assetWhitelistRemoved",
            "offset": 0,
            "slot": "23",
            "type": "t_bool"
          },
          {
            "astId": 28044,
            "contract": "contracts/core/connext/facets/TokenFacet.sol:TokenFacet",
            "label": "_assetWhitelistTimestamp",
            "offset": 0,
            "slot": "24",
            "type": "t_uint256"
          },
          {
            "astId": 28050,
            "contract": "contracts/core/connext/facets/TokenFacet.sol:TokenFacet",
            "label": "roles",
            "offset": 0,
            "slot": "25",
            "type": "t_mapping(t_address,t_enum(Role)27868)"
          },
          {
            "astId": 28053,
            "contract": "contracts/core/connext/facets/TokenFacet.sol:TokenFacet",
            "label": "routerPermissionInfo",
            "offset": 0,
            "slot": "26",
            "type": "t_struct(RouterPermissionsManagerInfo)27944_storage"
          },
          {
            "astId": 28055,
            "contract": "contracts/core/connext/facets/TokenFacet.sol:TokenFacet",
            "label": "_status",
            "offset": 0,
            "slot": "32",
            "type": "t_uint256"
          },
          {
            "astId": 28061,
            "contract": "contracts/core/connext/facets/TokenFacet.sol:TokenFacet",
            "label": "swapStorages",
            "offset": 0,
            "slot": "33",
            "type": "t_mapping(t_bytes32,t_struct(Swap)29292_storage)"
          },
          {
            "astId": 28068,
            "contract": "contracts/core/connext/facets/TokenFacet.sol:TokenFacet",
            "label": "tokenIndexes",
            "offset": 0,
            "slot": "34",
            "type": "t_mapping(t_bytes32,t_mapping(t_address,t_uint8))"
          },
          {
            "astId": 28071,
            "contract": "contracts/core/connext/facets/TokenFacet.sol:TokenFacet",
            "label": "_paused",
            "offset": 0,
            "slot": "35",
            "type": "t_bool"
          },
          {
            "astId": 28074,
            "contract": "contracts/core/connext/facets/TokenFacet.sol:TokenFacet",
            "label": "aavePool",
            "offset": 1,
            "slot": "35",
            "type": "t_address"
          },
          {
            "astId": 28077,
            "contract": "contracts/core/connext/facets/TokenFacet.sol:TokenFacet",
            "label": "aavePortalFeeNumerator",
            "offset": 0,
            "slot": "36",
            "type": "t_uint256"
          },
          {
            "astId": 28082,
            "contract": "contracts/core/connext/facets/TokenFacet.sol:TokenFacet",
            "label": "portalDebt",
            "offset": 0,
            "slot": "37",
            "type": "t_mapping(t_bytes32,t_uint256)"
          },
          {
            "astId": 28087,
            "contract": "contracts/core/connext/facets/TokenFacet.sol:TokenFacet",
            "label": "portalFeeDebt",
            "offset": 0,
            "slot": "38",
            "type": "t_mapping(t_bytes32,t_uint256)"
          },
          {
            "astId": 28092,
            "contract": "contracts/core/connext/facets/TokenFacet.sol:TokenFacet",
            "label": "approvedSequencers",
            "offset": 0,
            "slot": "39",
            "type": "t_mapping(t_address,t_bool)"
          },
          {
            "astId": 28096,
            "contract": "contracts/core/connext/facets/TokenFacet.sol:TokenFacet",
            "label": "xAppConnectionManager",
            "offset": 0,
            "slot": "40",
            "type": "t_contract(IConnectorManager)45249"
          }
        ],
        "numberOfBytes": "1312"
      },
      "t_struct(RouterPermissionsManagerInfo)27944_storage": {
        "encoding": "inplace",
        "label": "struct RouterPermissionsManagerInfo",
        "members": [
          {
            "astId": 27923,
            "contract": "contracts/core/connext/facets/TokenFacet.sol:TokenFacet",
            "label": "approvedRouters",
            "offset": 0,
            "slot": "0",
            "type": "t_mapping(t_address,t_bool)"
          },
          {
            "astId": 27927,
            "contract": "contracts/core/connext/facets/TokenFacet.sol:TokenFacet",
            "label": "approvedForPortalRouters",
            "offset": 0,
            "slot": "1",
            "type": "t_mapping(t_address,t_bool)"
          },
          {
            "astId": 27931,
            "contract": "contracts/core/connext/facets/TokenFacet.sol:TokenFacet",
            "label": "routerRecipients",
            "offset": 0,
            "slot": "2",
            "type": "t_mapping(t_address,t_address)"
          },
          {
            "astId": 27935,
            "contract": "contracts/core/connext/facets/TokenFacet.sol:TokenFacet",
            "label": "routerOwners",
            "offset": 0,
            "slot": "3",
            "type": "t_mapping(t_address,t_address)"
          },
          {
            "astId": 27939,
            "contract": "contracts/core/connext/facets/TokenFacet.sol:TokenFacet",
            "label": "proposedRouterOwners",
            "offset": 0,
            "slot": "4",
            "type": "t_mapping(t_address,t_address)"
          },
          {
            "astId": 27943,
            "contract": "contracts/core/connext/facets/TokenFacet.sol:TokenFacet",
            "label": "proposedRouterTimestamp",
            "offset": 0,
            "slot": "5",
            "type": "t_mapping(t_address,t_uint256)"
          }
        ],
        "numberOfBytes": "192"
      },
      "t_struct(Swap)29292_storage": {
        "encoding": "inplace",
        "label": "struct SwapUtils.Swap",
        "members": [
          {
            "astId": 29263,
            "contract": "contracts/core/connext/facets/TokenFacet.sol:TokenFacet",
            "label": "key",
            "offset": 0,
            "slot": "0",
            "type": "t_bytes32"
          },
          {
            "astId": 29265,
            "contract": "contracts/core/connext/facets/TokenFacet.sol:TokenFacet",
            "label": "initialA",
            "offset": 0,
            "slot": "1",
            "type": "t_uint256"
          },
          {
            "astId": 29267,
            "contract": "contracts/core/connext/facets/TokenFacet.sol:TokenFacet",
            "label": "futureA",
            "offset": 0,
            "slot": "2",
            "type": "t_uint256"
          },
          {
            "astId": 29269,
            "contract": "contracts/core/connext/facets/TokenFacet.sol:TokenFacet",
            "label": "initialATime",
            "offset": 0,
            "slot": "3",
            "type": "t_uint256"
          },
          {
            "astId": 29271,
            "contract": "contracts/core/connext/facets/TokenFacet.sol:TokenFacet",
            "label": "futureATime",
            "offset": 0,
            "slot": "4",
            "type": "t_uint256"
          },
          {
            "astId": 29273,
            "contract": "contracts/core/connext/facets/TokenFacet.sol:TokenFacet",
            "label": "swapFee",
            "offset": 0,
            "slot": "5",
            "type": "t_uint256"
          },
          {
            "astId": 29275,
            "contract": "contracts/core/connext/facets/TokenFacet.sol:TokenFacet",
            "label": "adminFee",
            "offset": 0,
            "slot": "6",
            "type": "t_uint256"
          },
          {
            "astId": 29278,
            "contract": "contracts/core/connext/facets/TokenFacet.sol:TokenFacet",
            "label": "lpToken",
            "offset": 0,
            "slot": "7",
            "type": "t_contract(LPToken)22553"
          },
          {
            "astId": 29282,
            "contract": "contracts/core/connext/facets/TokenFacet.sol:TokenFacet",
            "label": "pooledTokens",
            "offset": 0,
            "slot": "8",
            "type": "t_array(t_contract(IERC20)11540)dyn_storage"
          },
          {
            "astId": 29285,
            "contract": "contracts/core/connext/facets/TokenFacet.sol:TokenFacet",
            "label": "tokenPrecisionMultipliers",
            "offset": 0,
            "slot": "9",
            "type": "t_array(t_uint256)dyn_storage"
          },
          {
            "astId": 29288,
            "contract": "contracts/core/connext/facets/TokenFacet.sol:TokenFacet",
            "label": "balances",
            "offset": 0,
            "slot": "10",
            "type": "t_array(t_uint256)dyn_storage"
          },
          {
            "astId": 29291,
            "contract": "contracts/core/connext/facets/TokenFacet.sol:TokenFacet",
            "label": "adminFees",
            "offset": 0,
            "slot": "11",
            "type": "t_array(t_uint256)dyn_storage"
          }
        ],
        "numberOfBytes": "384"
      },
      "t_struct(TokenId)27878_storage": {
        "encoding": "inplace",
        "label": "struct TokenId",
        "members": [
          {
            "astId": 27875,
            "contract": "contracts/core/connext/facets/TokenFacet.sol:TokenFacet",
            "label": "domain",
            "offset": 0,
            "slot": "0",
            "type": "t_uint32"
          },
          {
            "astId": 27877,
            "contract": "contracts/core/connext/facets/TokenFacet.sol:TokenFacet",
            "label": "id",
            "offset": 0,
            "slot": "1",
            "type": "t_bytes32"
          }
        ],
        "numberOfBytes": "64"
      },
      "t_uint256": {
        "encoding": "inplace",
        "label": "uint256",
        "numberOfBytes": "32"
      },
      "t_uint32": {
        "encoding": "inplace",
        "label": "uint32",
        "numberOfBytes": "4"
      },
      "t_uint8": {
        "encoding": "inplace",
        "label": "uint8",
        "numberOfBytes": "1"
      }
    }
  }
}