{
  "address": "0xcF627F20CdCECd11AF54143B81B4C7ae1e8D6ea1",
  "abi": [
    {
      "inputs": [
        {
          "components": [
            {
              "internalType": "uint32",
              "name": "domain",
              "type": "uint32"
            },
            {
              "internalType": "uint32",
              "name": "mirrorDomain",
              "type": "uint32"
            },
            {
              "internalType": "address",
              "name": "amb",
              "type": "address"
            },
            {
              "internalType": "address",
              "name": "rootManager",
              "type": "address"
            },
            {
              "internalType": "address",
              "name": "mirrorConnector",
              "type": "address"
            },
            {
              "internalType": "uint256",
              "name": "processGas",
              "type": "uint256"
            },
            {
              "internalType": "uint256",
              "name": "reserveGas",
              "type": "uint256"
            },
            {
              "internalType": "uint256",
              "name": "delayBlocks",
              "type": "uint256"
            },
            {
              "internalType": "address",
              "name": "merkle",
              "type": "address"
            },
            {
              "internalType": "address",
              "name": "watcherManager",
              "type": "address"
            },
            {
              "internalType": "uint256",
              "name": "minDisputeBlocks",
              "type": "uint256"
            },
            {
              "internalType": "uint256",
              "name": "disputeBlocks",
              "type": "uint256"
            }
          ],
          "internalType": "struct SpokeConnector.ConstructorParams",
          "name": "_baseSpokeParams",
          "type": "tuple"
        },
        {
          "internalType": "uint32",
          "name": "_mirrorNetworkId",
          "type": "uint32"
        }
      ],
      "stateMutability": "nonpayable",
      "type": "constructor"
    },
    {
      "inputs": [],
      "name": "Connector__processMessage_notUsed",
      "type": "error"
    },
    {
      "inputs": [],
      "name": "ProposedOwnable__onlyOwner_notOwner",
      "type": "error"
    },
    {
      "inputs": [],
      "name": "ProposedOwnable__onlyProposed_notProposedOwner",
      "type": "error"
    },
    {
      "inputs": [],
      "name": "ProposedOwnable__ownershipDelayElapsed_delayNotElapsed",
      "type": "error"
    },
    {
      "inputs": [],
      "name": "ProposedOwnable__proposeNewOwner_invalidProposal",
      "type": "error"
    },
    {
      "inputs": [],
      "name": "ProposedOwnable__proposeNewOwner_noOwnershipChange",
      "type": "error"
    },
    {
      "inputs": [],
      "name": "ProposedOwnable__renounceOwnership_invalidProposal",
      "type": "error"
    },
    {
      "inputs": [],
      "name": "ProposedOwnable__renounceOwnership_noProposal",
      "type": "error"
    },
    {
      "inputs": [],
      "name": "RateLimited__rateLimited_messageSendRateExceeded",
      "type": "error"
    },
    {
      "inputs": [],
      "name": "SpokeConnector_activateOptimisticMode__OptimisticModeOn",
      "type": "error"
    },
    {
      "inputs": [],
      "name": "SpokeConnector_constructor__DisputeBlocksLowerThanMin",
      "type": "error"
    },
    {
      "inputs": [],
      "name": "SpokeConnector_finalize__InvalidInputHash",
      "type": "error"
    },
    {
      "inputs": [],
      "name": "SpokeConnector_finalize__ProposeInProgress",
      "type": "error"
    },
    {
      "inputs": [],
      "name": "SpokeConnector_finalize__ProposedHashIsFinalizedHash",
      "type": "error"
    },
    {
      "inputs": [],
      "name": "SpokeConnector_onlyOptimisticMode__SlowModeOn",
      "type": "error"
    },
    {
      "inputs": [],
      "name": "SpokeConnector_onlyProposer__NotAllowlistedProposer",
      "type": "error"
    },
    {
      "inputs": [],
      "name": "SpokeConnector_proposeAggregateRoot__ProposeInProgress",
      "type": "error"
    },
    {
      "inputs": [],
      "name": "SpokeConnector_receiveAggregateRoot__OptimisticModeOn",
      "type": "error"
    },
    {
      "inputs": [],
      "name": "SpokeConnector_setDisputeBlocks__DisputeBlocksLowerThanMin",
      "type": "error"
    },
    {
      "inputs": [],
      "name": "SpokeConnector_setDisputeBlocks__SameDisputeBlocksAsBefore",
      "type": "error"
    },
    {
      "inputs": [],
      "name": "SpokeConnector_setMinDisputeBlocks__SameMinDisputeBlocksAsBefore",
      "type": "error"
    },
    {
      "inputs": [],
      "name": "TypedMemView__index_indexMoreThan32Bytes",
      "type": "error"
    },
    {
      "inputs": [
        {
          "internalType": "uint256",
          "name": "loc",
          "type": "uint256"
        },
        {
          "internalType": "uint256",
          "name": "len",
          "type": "uint256"
        },
        {
          "internalType": "uint256",
          "name": "index",
          "type": "uint256"
        },
        {
          "internalType": "uint256",
          "name": "slice",
          "type": "uint256"
        }
      ],
      "name": "TypedMemView__index_overrun",
      "type": "error"
    },
    {
      "inputs": [],
      "name": "TypedMemView__unsafeCopyTo_identityOOG",
      "type": "error"
    },
    {
      "inputs": [],
      "name": "TypedMemView__unsafeCopyTo_invalidPointer",
      "type": "error"
    },
    {
      "inputs": [],
      "name": "TypedMemView__unsafeCopyTo_nullPointer",
      "type": "error"
    },
    {
      "anonymous": false,
      "inputs": [
        {
          "indexed": true,
          "internalType": "bytes32",
          "name": "aggregateRoot",
          "type": "bytes32"
        },
        {
          "indexed": true,
          "internalType": "uint256",
          "name": "rootTimestamp",
          "type": "uint256"
        },
        {
          "indexed": true,
          "internalType": "uint256",
          "name": "endOfDispute",
          "type": "uint256"
        },
        {
          "indexed": false,
          "internalType": "uint32",
          "name": "domain",
          "type": "uint32"
        }
      ],
      "name": "AggregateRootProposed",
      "type": "event"
    },
    {
      "anonymous": false,
      "inputs": [
        {
          "indexed": true,
          "internalType": "bytes32",
          "name": "root",
          "type": "bytes32"
        }
      ],
      "name": "AggregateRootReceived",
      "type": "event"
    },
    {
      "anonymous": false,
      "inputs": [
        {
          "indexed": true,
          "internalType": "bytes32",
          "name": "root",
          "type": "bytes32"
        }
      ],
      "name": "AggregateRootRemoved",
      "type": "event"
    },
    {
      "anonymous": false,
      "inputs": [
        {
          "indexed": true,
          "internalType": "bytes32",
          "name": "root",
          "type": "bytes32"
        }
      ],
      "name": "AggregateRootVerified",
      "type": "event"
    },
    {
      "anonymous": false,
      "inputs": [
        {
          "indexed": true,
          "internalType": "uint256",
          "name": "updated",
          "type": "uint256"
        },
        {
          "indexed": false,
          "internalType": "address",
          "name": "caller",
          "type": "address"
        }
      ],
      "name": "DelayBlocksUpdated",
      "type": "event"
    },
    {
      "anonymous": false,
      "inputs": [
        {
          "indexed": true,
          "internalType": "bytes32",
          "name": "leaf",
          "type": "bytes32"
        },
        {
          "indexed": true,
          "internalType": "uint256",
          "name": "index",
          "type": "uint256"
        },
        {
          "indexed": true,
          "internalType": "bytes32",
          "name": "root",
          "type": "bytes32"
        },
        {
          "indexed": false,
          "internalType": "bytes",
          "name": "message",
          "type": "bytes"
        }
      ],
      "name": "Dispatch",
      "type": "event"
    },
    {
      "anonymous": false,
      "inputs": [
        {
          "indexed": false,
          "internalType": "uint256",
          "name": "previous",
          "type": "uint256"
        },
        {
          "indexed": false,
          "internalType": "uint256",
          "name": "updated",
          "type": "uint256"
        }
      ],
      "name": "DisputeBlocksUpdated",
      "type": "event"
    },
    {
      "anonymous": false,
      "inputs": [
        {
          "indexed": true,
          "internalType": "address",
          "name": "to",
          "type": "address"
        },
        {
          "indexed": false,
          "internalType": "uint256",
          "name": "amount",
          "type": "uint256"
        }
      ],
      "name": "FundsWithdrawn",
      "type": "event"
    },
    {
      "anonymous": false,
      "inputs": [
        {
          "indexed": false,
          "internalType": "bytes",
          "name": "data",
          "type": "bytes"
        },
        {
          "indexed": false,
          "internalType": "address",
          "name": "caller",
          "type": "address"
        }
      ],
      "name": "MessageProcessed",
      "type": "event"
    },
    {
      "anonymous": false,
      "inputs": [
        {
          "indexed": true,
          "internalType": "bytes32",
          "name": "leaf",
          "type": "bytes32"
        },
        {
          "indexed": true,
          "internalType": "bytes32",
          "name": "aggregateRoot",
          "type": "bytes32"
        },
        {
          "indexed": false,
          "internalType": "uint256",
          "name": "aggregateIndex",
          "type": "uint256"
        }
      ],
      "name": "MessageProven",
      "type": "event"
    },
    {
      "anonymous": false,
      "inputs": [
        {
          "indexed": false,
          "internalType": "bytes",
          "name": "data",
          "type": "bytes"
        },
        {
          "indexed": false,
          "internalType": "bytes",
          "name": "encodedData",
          "type": "bytes"
        },
        {
          "indexed": false,
          "internalType": "address",
          "name": "caller",
          "type": "address"
        }
      ],
      "name": "MessageSent",
      "type": "event"
    },
    {
      "anonymous": false,
      "inputs": [
        {
          "indexed": false,
          "internalType": "uint256",
          "name": "previous",
          "type": "uint256"
        },
        {
          "indexed": false,
          "internalType": "uint256",
          "name": "updated",
          "type": "uint256"
        }
      ],
      "name": "MinDisputeBlocksUpdated",
      "type": "event"
    },
    {
      "anonymous": false,
      "inputs": [
        {
          "indexed": false,
          "internalType": "address",
          "name": "previous",
          "type": "address"
        },
        {
          "indexed": false,
          "internalType": "address",
          "name": "current",
          "type": "address"
        }
      ],
      "name": "MirrorConnectorUpdated",
      "type": "event"
    },
    {
      "anonymous": false,
      "inputs": [
        {
          "indexed": true,
          "internalType": "uint32",
          "name": "domain",
          "type": "uint32"
        },
        {
          "indexed": true,
          "internalType": "uint32",
          "name": "mirrorDomain",
          "type": "uint32"
        },
        {
          "indexed": false,
          "internalType": "address",
          "name": "amb",
          "type": "address"
        },
        {
          "indexed": false,
          "internalType": "address",
          "name": "rootManager",
          "type": "address"
        },
        {
          "indexed": false,
          "internalType": "address",
          "name": "mirrorConnector",
          "type": "address"
        }
      ],
      "name": "NewConnector",
      "type": "event"
    },
    {
      "anonymous": false,
      "inputs": [],
      "name": "OptimisticModeActivated",
      "type": "event"
    },
    {
      "anonymous": false,
      "inputs": [
        {
          "indexed": true,
          "internalType": "address",
          "name": "proposedOwner",
          "type": "address"
        }
      ],
      "name": "OwnershipProposed",
      "type": "event"
    },
    {
      "anonymous": false,
      "inputs": [
        {
          "indexed": true,
          "internalType": "address",
          "name": "previousOwner",
          "type": "address"
        },
        {
          "indexed": true,
          "internalType": "address",
          "name": "newOwner",
          "type": "address"
        }
      ],
      "name": "OwnershipTransferred",
      "type": "event"
    },
    {
      "anonymous": false,
      "inputs": [
        {
          "indexed": false,
          "internalType": "address",
          "name": "account",
          "type": "address"
        }
      ],
      "name": "Paused",
      "type": "event"
    },
    {
      "anonymous": false,
      "inputs": [
        {
          "indexed": true,
          "internalType": "bytes32",
          "name": "aggregateRoot",
          "type": "bytes32"
        }
      ],
      "name": "PendingAggregateRootDeleted",
      "type": "event"
    },
    {
      "anonymous": false,
      "inputs": [
        {
          "indexed": true,
          "internalType": "bytes32",
          "name": "leaf",
          "type": "bytes32"
        },
        {
          "indexed": false,
          "internalType": "bool",
          "name": "success",
          "type": "bool"
        },
        {
          "indexed": false,
          "internalType": "bytes",
          "name": "returnData",
          "type": "bytes"
        }
      ],
      "name": "Process",
      "type": "event"
    },
    {
      "anonymous": false,
      "inputs": [
        {
          "indexed": false,
          "internalType": "bytes32",
          "name": "aggregateRoot",
          "type": "bytes32"
        }
      ],
      "name": "ProposedRootFinalized",
      "type": "event"
    },
    {
      "anonymous": false,
      "inputs": [
        {
          "indexed": true,
          "internalType": "address",
          "name": "proposer",
          "type": "address"
        }
      ],
      "name": "ProposerAdded",
      "type": "event"
    },
    {
      "anonymous": false,
      "inputs": [
        {
          "indexed": true,
          "internalType": "address",
          "name": "proposer",
          "type": "address"
        }
      ],
      "name": "ProposerRemoved",
      "type": "event"
    },
    {
      "anonymous": false,
      "inputs": [
        {
          "indexed": false,
          "internalType": "address",
          "name": "updater",
          "type": "address"
        },
        {
          "indexed": false,
          "internalType": "uint256",
          "name": "newRateLimit",
          "type": "uint256"
        }
      ],
      "name": "SendRateLimitUpdated",
      "type": "event"
    },
    {
      "anonymous": false,
      "inputs": [
        {
          "indexed": true,
          "internalType": "address",
          "name": "sender",
          "type": "address"
        }
      ],
      "name": "SenderAdded",
      "type": "event"
    },
    {
      "anonymous": false,
      "inputs": [
        {
          "indexed": true,
          "internalType": "address",
          "name": "sender",
          "type": "address"
        }
      ],
      "name": "SenderRemoved",
      "type": "event"
    },
    {
      "anonymous": false,
      "inputs": [
        {
          "indexed": true,
          "internalType": "address",
          "name": "watcher",
          "type": "address"
        }
      ],
      "name": "SlowModeActivated",
      "type": "event"
    },
    {
      "anonymous": false,
      "inputs": [
        {
          "indexed": true,
          "internalType": "uint256",
          "name": "snapshotId",
          "type": "uint256"
        },
        {
          "indexed": true,
          "internalType": "bytes32",
          "name": "root",
          "type": "bytes32"
        },
        {
          "indexed": true,
          "internalType": "uint256",
          "name": "count",
          "type": "uint256"
        }
      ],
      "name": "SnapshotRootSaved",
      "type": "event"
    },
    {
      "anonymous": false,
      "inputs": [
        {
          "indexed": false,
          "internalType": "address",
          "name": "account",
          "type": "address"
        }
      ],
      "name": "Unpaused",
      "type": "event"
    },
    {
      "anonymous": false,
      "inputs": [
        {
          "indexed": false,
          "internalType": "address",
          "name": "watcherManager",
          "type": "address"
        }
      ],
      "name": "WatcherManagerChanged",
      "type": "event"
    },
    {
      "inputs": [],
      "name": "AMB",
      "outputs": [
        {
          "internalType": "address",
          "name": "",
          "type": "address"
        }
      ],
      "stateMutability": "view",
      "type": "function"
    },
    {
      "inputs": [],
      "name": "DOMAIN",
      "outputs": [
        {
          "internalType": "uint32",
          "name": "",
          "type": "uint32"
        }
      ],
      "stateMutability": "view",
      "type": "function"
    },
    {
      "inputs": [],
      "name": "FINALIZED_HASH",
      "outputs": [
        {
          "internalType": "bytes32",
          "name": "",
          "type": "bytes32"
        }
      ],
      "stateMutability": "view",
      "type": "function"
    },
    {
      "inputs": [],
      "name": "MERKLE",
      "outputs": [
        {
          "internalType": "contract MerkleTreeManager",
          "name": "",
          "type": "address"
        }
      ],
      "stateMutability": "view",
      "type": "function"
    },
    {
      "inputs": [],
      "name": "MIRROR_DOMAIN",
      "outputs": [
        {
          "internalType": "uint32",
          "name": "",
          "type": "uint32"
        }
      ],
      "stateMutability": "view",
      "type": "function"
    },
    {
      "inputs": [],
      "name": "PROCESS_GAS",
      "outputs": [
        {
          "internalType": "uint256",
          "name": "",
          "type": "uint256"
        }
      ],
      "stateMutability": "view",
      "type": "function"
    },
    {
      "inputs": [],
      "name": "RESERVE_GAS",
      "outputs": [
        {
          "internalType": "uint256",
          "name": "",
          "type": "uint256"
        }
      ],
      "stateMutability": "view",
      "type": "function"
    },
    {
      "inputs": [],
      "name": "ROOT_MANAGER",
      "outputs": [
        {
          "internalType": "address",
          "name": "",
          "type": "address"
        }
      ],
      "stateMutability": "view",
      "type": "function"
    },
    {
      "inputs": [],
      "name": "acceptProposedOwner",
      "outputs": [],
      "stateMutability": "nonpayable",
      "type": "function"
    },
    {
      "inputs": [],
      "name": "activateOptimisticMode",
      "outputs": [],
      "stateMutability": "nonpayable",
      "type": "function"
    },
    {
      "inputs": [],
      "name": "activateSlowMode",
      "outputs": [],
      "stateMutability": "nonpayable",
      "type": "function"
    },
    {
      "inputs": [
        {
          "internalType": "address",
          "name": "_proposer",
          "type": "address"
        }
      ],
      "name": "addProposer",
      "outputs": [],
      "stateMutability": "nonpayable",
      "type": "function"
    },
    {
      "inputs": [
        {
          "internalType": "address",
          "name": "_sender",
          "type": "address"
        }
      ],
      "name": "addSender",
      "outputs": [],
      "stateMutability": "nonpayable",
      "type": "function"
    },
    {
      "inputs": [
        {
          "internalType": "address",
          "name": "",
          "type": "address"
        }
      ],
      "name": "allowlistedProposers",
      "outputs": [
        {
          "internalType": "bool",
          "name": "",
          "type": "bool"
        }
      ],
      "stateMutability": "view",
      "type": "function"
    },
    {
      "inputs": [
        {
          "internalType": "address",
          "name": "",
          "type": "address"
        }
      ],
      "name": "allowlistedSenders",
      "outputs": [
        {
          "internalType": "bool",
          "name": "",
          "type": "bool"
        }
      ],
      "stateMutability": "view",
      "type": "function"
    },
    {
      "inputs": [],
      "name": "delay",
      "outputs": [
        {
          "internalType": "uint256",
          "name": "",
          "type": "uint256"
        }
      ],
      "stateMutability": "view",
      "type": "function"
    },
    {
      "inputs": [],
      "name": "delayBlocks",
      "outputs": [
        {
          "internalType": "uint256",
          "name": "",
          "type": "uint256"
        }
      ],
      "stateMutability": "view",
      "type": "function"
    },
    {
      "inputs": [
        {
          "internalType": "uint32",
          "name": "_destinationDomain",
          "type": "uint32"
        },
        {
          "internalType": "bytes32",
          "name": "_recipientAddress",
          "type": "bytes32"
        },
        {
          "internalType": "bytes",
          "name": "_messageBody",
          "type": "bytes"
        }
      ],
      "name": "dispatch",
      "outputs": [
        {
          "internalType": "bytes32",
          "name": "",
          "type": "bytes32"
        },
        {
          "internalType": "bytes",
          "name": "",
          "type": "bytes"
        }
      ],
      "stateMutability": "nonpayable",
      "type": "function"
    },
    {
      "inputs": [],
      "name": "disputeBlocks",
      "outputs": [
        {
          "internalType": "uint256",
          "name": "",
          "type": "uint256"
        }
      ],
      "stateMutability": "view",
      "type": "function"
    },
    {
      "inputs": [
        {
          "internalType": "bytes32",
          "name": "_proposedAggregateRoot",
          "type": "bytes32"
        },
        {
          "internalType": "uint256",
          "name": "_rootTimestamp",
          "type": "uint256"
        },
        {
          "internalType": "uint256",
          "name": "_endOfDispute",
          "type": "uint256"
        }
      ],
      "name": "finalize",
      "outputs": [],
      "stateMutability": "nonpayable",
      "type": "function"
    },
    {
      "inputs": [],
      "name": "getLastCompletedSnapshotId",
      "outputs": [
        {
          "internalType": "uint256",
          "name": "_lastCompletedSnapshotId",
          "type": "uint256"
        }
      ],
      "stateMutability": "view",
      "type": "function"
    },
    {
      "inputs": [],
      "name": "getSnapshotDuration",
      "outputs": [
        {
          "internalType": "uint256",
          "name": "_snapshotDuration",
          "type": "uint256"
        }
      ],
      "stateMutability": "pure",
      "type": "function"
    },
    {
      "inputs": [],
      "name": "home",
      "outputs": [
        {
          "internalType": "contract IOutbox",
          "name": "",
          "type": "address"
        }
      ],
      "stateMutability": "view",
      "type": "function"
    },
    {
      "inputs": [
        {
          "internalType": "address",
          "name": "_potentialReplica",
          "type": "address"
        }
      ],
      "name": "isReplica",
      "outputs": [
        {
          "internalType": "bool",
          "name": "",
          "type": "bool"
        }
      ],
      "stateMutability": "view",
      "type": "function"
    },
    {
      "inputs": [],
      "name": "lastSentBlock",
      "outputs": [
        {
          "internalType": "uint256",
          "name": "",
          "type": "uint256"
        }
      ],
      "stateMutability": "view",
      "type": "function"
    },
    {
      "inputs": [],
      "name": "localDomain",
      "outputs": [
        {
          "internalType": "uint32",
          "name": "",
          "type": "uint32"
        }
      ],
      "stateMutability": "view",
      "type": "function"
    },
    {
      "inputs": [],
      "name": "minDisputeBlocks",
      "outputs": [
        {
          "internalType": "uint256",
          "name": "",
          "type": "uint256"
        }
      ],
      "stateMutability": "view",
      "type": "function"
    },
    {
      "inputs": [],
      "name": "mirrorConnector",
      "outputs": [
        {
          "internalType": "address",
          "name": "",
          "type": "address"
        }
      ],
      "stateMutability": "view",
      "type": "function"
    },
    {
      "inputs": [
        {
          "internalType": "address",
          "name": "originAddress",
          "type": "address"
        },
        {
          "internalType": "uint32",
          "name": "originNetwork",
          "type": "uint32"
        },
        {
          "internalType": "bytes",
          "name": "data",
          "type": "bytes"
        }
      ],
      "name": "onMessageReceived",
      "outputs": [],
      "stateMutability": "payable",
      "type": "function"
    },
    {
      "inputs": [],
      "name": "optimisticMode",
      "outputs": [
        {
          "internalType": "bool",
          "name": "",
          "type": "bool"
        }
      ],
      "stateMutability": "view",
      "type": "function"
    },
    {
      "inputs": [],
      "name": "outboundRoot",
      "outputs": [
        {
          "internalType": "bytes32",
          "name": "",
          "type": "bytes32"
        }
      ],
      "stateMutability": "view",
      "type": "function"
    },
    {
      "inputs": [],
      "name": "owner",
      "outputs": [
        {
          "internalType": "address",
          "name": "",
          "type": "address"
        }
      ],
      "stateMutability": "view",
      "type": "function"
    },
    {
      "inputs": [],
      "name": "pause",
      "outputs": [],
      "stateMutability": "nonpayable",
      "type": "function"
    },
    {
      "inputs": [],
      "name": "paused",
      "outputs": [
        {
          "internalType": "bool",
          "name": "",
          "type": "bool"
        }
      ],
      "stateMutability": "view",
      "type": "function"
    },
    {
      "inputs": [
        {
          "internalType": "bytes32",
          "name": "",
          "type": "bytes32"
        }
      ],
      "name": "pendingAggregateRoots",
      "outputs": [
        {
          "internalType": "uint256",
          "name": "",
          "type": "uint256"
        }
      ],
      "stateMutability": "view",
      "type": "function"
    },
    {
      "inputs": [
        {
          "internalType": "bytes",
          "name": "_data",
          "type": "bytes"
        }
      ],
      "name": "processMessage",
      "outputs": [],
      "stateMutability": "nonpayable",
      "type": "function"
    },
    {
      "inputs": [
        {
          "internalType": "bytes32",
          "name": "_aggregateRoot",
          "type": "bytes32"
        },
        {
          "internalType": "uint256",
          "name": "_rootTimestamp",
          "type": "uint256"
        }
      ],
      "name": "proposeAggregateRoot",
      "outputs": [],
      "stateMutability": "nonpayable",
      "type": "function"
    },
    {
      "inputs": [
        {
          "internalType": "address",
          "name": "newlyProposed",
          "type": "address"
        }
      ],
      "name": "proposeNewOwner",
      "outputs": [],
      "stateMutability": "nonpayable",
      "type": "function"
    },
    {
      "inputs": [],
      "name": "proposed",
      "outputs": [
        {
          "internalType": "address",
          "name": "",
          "type": "address"
        }
      ],
      "stateMutability": "view",
      "type": "function"
    },
    {
      "inputs": [],
      "name": "proposedAggregateRootHash",
      "outputs": [
        {
          "internalType": "bytes32",
          "name": "",
          "type": "bytes32"
        }
      ],
      "stateMutability": "view",
      "type": "function"
    },
    {
      "inputs": [],
      "name": "proposedTimestamp",
      "outputs": [
        {
          "internalType": "uint256",
          "name": "",
          "type": "uint256"
        }
      ],
      "stateMutability": "view",
      "type": "function"
    },
    {
      "inputs": [
        {
          "components": [
            {
              "internalType": "bytes",
              "name": "message",
              "type": "bytes"
            },
            {
              "internalType": "bytes32[32]",
              "name": "path",
              "type": "bytes32[32]"
            },
            {
              "internalType": "uint256",
              "name": "index",
              "type": "uint256"
            }
          ],
          "internalType": "struct SpokeConnector.Proof[]",
          "name": "_proofs",
          "type": "tuple[]"
        },
        {
          "internalType": "bytes32",
          "name": "_aggregateRoot",
          "type": "bytes32"
        },
        {
          "internalType": "bytes32[32]",
          "name": "_aggregatePath",
          "type": "bytes32[32]"
        },
        {
          "internalType": "uint256",
          "name": "_aggregateIndex",
          "type": "uint256"
        }
      ],
      "name": "proveAndProcess",
      "outputs": [],
      "stateMutability": "nonpayable",
      "type": "function"
    },
    {
      "inputs": [
        {
          "internalType": "bytes32",
          "name": "",
          "type": "bytes32"
        }
      ],
      "name": "provenAggregateRoots",
      "outputs": [
        {
          "internalType": "bool",
          "name": "",
          "type": "bool"
        }
      ],
      "stateMutability": "view",
      "type": "function"
    },
    {
      "inputs": [
        {
          "internalType": "bytes32",
          "name": "",
          "type": "bytes32"
        }
      ],
      "name": "provenMessageRoots",
      "outputs": [
        {
          "internalType": "bool",
          "name": "",
          "type": "bool"
        }
      ],
      "stateMutability": "view",
      "type": "function"
    },
    {
      "inputs": [],
      "name": "rateLimitBlocks",
      "outputs": [
        {
          "internalType": "uint256",
          "name": "",
          "type": "uint256"
        }
      ],
      "stateMutability": "view",
      "type": "function"
    },
    {
      "inputs": [
        {
          "internalType": "bytes32",
          "name": "_fraudulentRoot",
          "type": "bytes32"
        }
      ],
      "name": "removePendingAggregateRoot",
      "outputs": [],
      "stateMutability": "nonpayable",
      "type": "function"
    },
    {
      "inputs": [
        {
          "internalType": "address",
          "name": "_proposer",
          "type": "address"
        }
      ],
      "name": "removeProposer",
      "outputs": [],
      "stateMutability": "nonpayable",
      "type": "function"
    },
    {
      "inputs": [
        {
          "internalType": "address",
          "name": "_sender",
          "type": "address"
        }
      ],
      "name": "removeSender",
      "outputs": [],
      "stateMutability": "nonpayable",
      "type": "function"
    },
    {
      "inputs": [],
      "name": "renounceOwnership",
      "outputs": [],
      "stateMutability": "nonpayable",
      "type": "function"
    },
    {
      "inputs": [],
      "name": "renounced",
      "outputs": [
        {
          "internalType": "bool",
          "name": "",
          "type": "bool"
        }
      ],
      "stateMutability": "view",
      "type": "function"
    },
    {
      "inputs": [
        {
          "internalType": "bytes",
          "name": "_encodedData",
          "type": "bytes"
        }
      ],
      "name": "send",
      "outputs": [],
      "stateMutability": "payable",
      "type": "function"
    },
    {
      "inputs": [
        {
          "internalType": "bytes32",
          "name": "",
          "type": "bytes32"
        }
      ],
      "name": "sentMessageRoots",
      "outputs": [
        {
          "internalType": "bool",
          "name": "",
          "type": "bool"
        }
      ],
      "stateMutability": "view",
      "type": "function"
    },
    {
      "inputs": [
        {
          "internalType": "uint256",
          "name": "_delayBlocks",
          "type": "uint256"
        }
      ],
      "name": "setDelayBlocks",
      "outputs": [],
      "stateMutability": "nonpayable",
      "type": "function"
    },
    {
      "inputs": [
        {
          "internalType": "uint256",
          "name": "_disputeBlocks",
          "type": "uint256"
        }
      ],
      "name": "setDisputeBlocks",
      "outputs": [],
      "stateMutability": "nonpayable",
      "type": "function"
    },
    {
      "inputs": [
        {
          "internalType": "uint256",
          "name": "_minDisputeBlocks",
          "type": "uint256"
        }
      ],
      "name": "setMinDisputeBlocks",
      "outputs": [],
      "stateMutability": "nonpayable",
      "type": "function"
    },
    {
      "inputs": [
        {
          "internalType": "address",
          "name": "_mirrorConnector",
          "type": "address"
        }
      ],
      "name": "setMirrorConnector",
      "outputs": [],
      "stateMutability": "nonpayable",
      "type": "function"
    },
    {
      "inputs": [
        {
          "internalType": "uint256",
          "name": "_rateLimit",
          "type": "uint256"
        }
      ],
      "name": "setRateLimitBlocks",
      "outputs": [],
      "stateMutability": "nonpayable",
      "type": "function"
    },
    {
      "inputs": [
        {
          "internalType": "address",
          "name": "_watcherManager",
          "type": "address"
        }
      ],
      "name": "setWatcherManager",
      "outputs": [],
      "stateMutability": "nonpayable",
      "type": "function"
    },
    {
      "inputs": [
        {
          "internalType": "uint256",
          "name": "",
          "type": "uint256"
        }
      ],
      "name": "snapshotRoots",
      "outputs": [
        {
          "internalType": "bytes32",
          "name": "",
          "type": "bytes32"
        }
      ],
      "stateMutability": "view",
      "type": "function"
    },
    {
      "inputs": [],
      "name": "unpause",
      "outputs": [],
      "stateMutability": "nonpayable",
      "type": "function"
    },
    {
      "inputs": [
        {
          "internalType": "address",
          "name": "_expected",
          "type": "address"
        }
      ],
      "name": "verifySender",
      "outputs": [
        {
          "internalType": "bool",
          "name": "",
          "type": "bool"
        }
      ],
      "stateMutability": "nonpayable",
      "type": "function"
    },
    {
      "inputs": [],
      "name": "watcherManager",
      "outputs": [
        {
          "internalType": "contract WatcherManager",
          "name": "",
          "type": "address"
        }
      ],
      "stateMutability": "view",
      "type": "function"
    },
    {
      "inputs": [
        {
          "internalType": "address",
          "name": "_to",
          "type": "address"
        }
      ],
      "name": "withdrawFunds",
      "outputs": [],
      "stateMutability": "nonpayable",
      "type": "function"
    },
    {
      "stateMutability": "payable",
      "type": "receive"
    }
  ],
  "transactionHash": "0x5498055277cbaa2037b2ce63dbebb0193807d37926a9afb81df397fc8021a4c1",
  "args": [
    {
      "domain": "2020368761",
      "mirrorDomain": "6648936",
      "amb": "0x2a3DD3EB832aF982ec71669E178424b10Dca2EDe",
      "rootManager": "0x523AB7424AD126809b1d7A134eb6E0ee414C9B3A",
      "mirrorConnector": "0x0000000000000000000000000000000000000000",
      "processGas": "850000",
      "reserveGas": "15000",
      "delayBlocks": 450,
      "merkle": "0x4d145AAb8411B3680B251cE3B0e51129e0A5651c",
      "watcherManager": "0xEE9deC2712cCE65174B561151701Bf54b99C24C8",
      "minDisputeBlocks": 225,
      "disputeBlocks": 450
    },
    "0"
  ],
  "numDeployments": 1,
  "solcInputHash": "538258e795c565caa3acdc2019dbc3c9",
  "bytecode": "0x6101806040526001600f553480156200001757600080fd5b50604051620048b7380380620048b78339810160408190526200003a9162000453565b8082806101200151816000015182602001518360400151846060015185608001516200006c336200031b60201b60201c565b8463ffffffff16600003620000b75760405162461bcd60e51b815260206004820152600c60248201526b32b6b83a3c903237b6b0b4b760a11b60448201526064015b60405180910390fd5b6001600160a01b038216620001035760405162461bcd60e51b815260206004820152601160248201527032b6b83a3c903937b7ba26b0b730b3b2b960791b6044820152606401620000ae565b63ffffffff8086166080526001600160a01b0380851660a05283811660c05290851660e0528116156200013b576200013b8162000380565b604080516001600160a01b0385811682528481166020830152831681830152905163ffffffff86811692908816917f4f9c27c2fe3f84576ea469d367d044da53c45e951617e8389f2b5ed8db9d25f09181900360600190a350506003805460ff60a01b191690555050600480546001600160a01b0319166001600160a01b03939093169290921790915550600160075561016081015161014082015180821015620001f9576040516350ccf05160e01b815260040160405180910390fd5b620cf84f8360a0015111620002405760405162461bcd60e51b815260206004820152600c60248201526b2170726f636573732067617360a01b6044820152606401620000ae565b613a978360c0015111620002865760405162461bcd60e51b815260206004820152600c60248201526b21726573657276652067617360a01b6044820152606401620000ae565b60a08301516101205260c0830151610140526101008301516001600160a01b0316620002e45760405162461bcd60e51b815260206004820152600c60248201526b217a65726f206d65726b6c6560a01b6044820152606401620000ae565b610100808401516001600160a01b0316905260e09092015160085560119190915560105563ffffffff166101605250620005589050565b600080546040516001600160a01b03808516939216917f8be0079c531659141344cd1fd0a4f28419497f9722a3daafe3b4186f6b6457e091a3600080546001600160a01b039092166001600160a01b0319928316178155600255600180549091169055565b600354604080516001600160a01b03928316815291831660208301527fc77bec288fc88f168427f2f7da682eadb26cac89d8d591af6e443da98dff2bbc910160405180910390a1600380546001600160a01b0319166001600160a01b0392909216919091179055565b60405161018081016001600160401b03811182821017156200041b57634e487b7160e01b600052604160045260246000fd5b60405290565b805163ffffffff811681146200043657600080fd5b919050565b80516001600160a01b03811681146200043657600080fd5b6000808284036101a08112156200046957600080fd5b610180808212156200047a57600080fd5b62000484620003e9565b9150620004918562000421565b8252620004a16020860162000421565b6020830152620004b4604086016200043b565b6040830152620004c7606086016200043b565b6060830152620004da608086016200043b565b608083015260a085015160a083015260c085015160c083015260e085015160e08301526101006200050d8187016200043b565b90830152610120620005218682016200043b565b908301526101408581015190830152610160808601519083015290925082906200054d81860162000421565b925050509250929050565b60805160a05160c05160e051610100516101205161014051610160516142666200065160003960008181610e14015261376d0152600081816104c1015261295a015260008181610b840152818161297b0152612a0d015260008181610932015281816110440152818161133501528181611499015281816115e5015281816120c10152818161215d0152818161222a015281816122f70152818161264401526128f20152600061041c01526000610726015260008181610b3a0152818161118901528181612dab015261301a0152600081816106580152818161084e01528181610dba015281816122a8015261285701526142666000f3fe6080604052600436106103bc5760003560e01c80638456cb59116101f2578063cbfa20211161010d578063d3c805b7116100a0578063db1b76591161006f578063db1b765914610ba6578063e0fed01014610bc6578063f4b6e41014610be6578063fa31de0114610bfc57600080fd5b8063d3c805b714610b13578063d69f9d6114610b28578063d7d317b314610b5c578063d88beda214610b7257600080fd5b8063d1851c92116100dc578063d1851c9214610aa1578063d232c22014610abf578063d2a3cc7114610ade578063d3c54fe514610afe57600080fd5b8063cbfa202114610a3f578063cc39428314610a54578063ceb3454e14610a74578063d1745e4f14610a8a57600080fd5b8063a792c29b11610185578063b1f8100d11610154578063b1f8100d146109ca578063b2f87643146109ea578063b697f53114610a0a578063c5b350df14610a2a57600080fd5b8063a792c29b14610954578063a941f3f314610974578063ad9c0c2e14610994578063b03cd418146109aa57600080fd5b806398c9f2b9116101c157806398c9f2b9146108b05780639d3117c7146108e05780639fa92f9d1461090d578063a01892a51461092057600080fd5b80638456cb591461082a5780638d3638f41461083f5780638da5cb5b146108725780638e02f7591461089057600080fd5b80635190bc53116102e25780635f61e3ec1161027557806368742da61161024457806368742da6146107bf5780636a42b8f8146107df5780636b04a933146107f5578063715018a61461081557600080fd5b80635f61e3ec1461071457806360caf7a0146107605780636159ada11461077a57806365eaf11b146107aa57600080fd5b8063579c1618116102b1578063579c1618146106aa5780635bd11efc146106c05780635c975abb146106e05780635d308761146106ff57600080fd5b80635190bc53146105f057806351cc57cc1461061957806352a9674b14610646578063572386ca1461067a57600080fd5b8063263ef3541161035a5780633f4ba83a116103295780633f4ba83a1461056b5780634a2db1da146105805780634ff746f6146105b0578063508a109b146105d057600080fd5b8063263ef354146104e35780632bb1ae7c14610503578063301f07c3146105165780633cf52ffb1461055657600080fd5b80631806b5f2116103965780631806b5f2146104585780631eeaabea1461046b57806320f62eda1461048b57806325e3beda146104af57600080fd5b806309d632d3146103c8578063111c1837146103ea578063141684161461040a57600080fd5b366103c357005b600080fd5b3480156103d457600080fd5b506103e86103e3366004613bd4565b610c2a565b005b3480156103f657600080fd5b506103e8610405366004613bef565b610c9e565b34801561041657600080fd5b5061043e7f000000000000000000000000000000000000000000000000000000000000000081565b60405163ffffffff90911681526020015b60405180910390f35b6103e8610466366004613cc6565b610e12565b34801561047757600080fd5b506103e8610486366004613d26565b610ece565b34801561049757600080fd5b506104a160105481565b60405190815260200161044f565b3480156104bb57600080fd5b506104a17f000000000000000000000000000000000000000000000000000000000000000081565b3480156104ef57600080fd5b506103e86104fe366004613d26565b610f73565b6103e8610511366004613d3f565b611001565b34801561052257600080fd5b50610546610531366004613d26565b600a6020526000908152604090205460ff1681565b604051901515815260200161044f565b34801561056257600080fd5b506002546104a1565b34801561057757600080fd5b506103e8611141565b34801561058c57600080fd5b5061054661059b366004613bd4565b60136020526000908152604090205460ff1681565b3480156105bc57600080fd5b506103e86105cb366004613d3f565b61117e565b3480156105dc57600080fd5b506103e86105eb366004613d74565b611224565b3480156105fc57600080fd5b5061054661060b366004613bd4565b6001600160a01b0316301490565b34801561062557600080fd5b506104a1610634366004613d26565b600e6020526000908152604090205481565b34801561065257600080fd5b5061043e7f000000000000000000000000000000000000000000000000000000000000000081565b34801561068657600080fd5b50610546610695366004613d26565b600c6020526000908152604090205460ff1681565b3480156106b657600080fd5b506104a160055481565b3480156106cc57600080fd5b506103e86106db366004613bd4565b6115aa565b3480156106ec57600080fd5b50600354600160a01b900460ff16610546565b34801561070b57600080fd5b506104a1600181565b34801561072057600080fd5b506107487f000000000000000000000000000000000000000000000000000000000000000081565b6040516001600160a01b03909116815260200161044f565b34801561076c57600080fd5b506012546105469060ff1681565b34801561078657600080fd5b50610546610795366004613bd4565b600d6020526000908152604090205460ff1681565b3480156107b657600080fd5b506104a16115e1565b3480156107cb57600080fd5b506103e86107da366004613bd4565b61166a565b3480156107eb57600080fd5b5062093a806104a1565b34801561080157600080fd5b506103e8610810366004613d26565b6116e7565b34801561082157600080fd5b506103e86117aa565b34801561083657600080fd5b506103e861180a565b34801561084b57600080fd5b507f000000000000000000000000000000000000000000000000000000000000000061043e565b34801561087e57600080fd5b506000546001600160a01b0316610748565b34801561089c57600080fd5b506103e86108ab366004613e10565b6118be565b3480156108bc57600080fd5b506105466108cb366004613d26565b600b6020526000908152604090205460ff1681565b3480156108ec57600080fd5b506104a16108fb366004613d26565b60096020526000908152604090205481565b34801561091957600080fd5b5030610748565b34801561092c57600080fd5b506107487f000000000000000000000000000000000000000000000000000000000000000081565b34801561096057600080fd5b50600454610748906001600160a01b031681565b34801561098057600080fd5b506103e861098f366004613d26565b6119e5565b3480156109a057600080fd5b506104a160085481565b3480156109b657600080fd5b506103e86109c5366004613bd4565b611a96565b3480156109d657600080fd5b506103e86109e5366004613bd4565b611b0d565b3480156109f657600080fd5b506103e8610a05366004613bd4565b611bab565b348015610a1657600080fd5b506103e8610a25366004613bd4565b611c72565b348015610a3657600080fd5b506103e8611d3c565b348015610a4b57600080fd5b506103e8611dac565b348015610a6057600080fd5b50600354610748906001600160a01b031681565b348015610a8057600080fd5b506104a1600f5481565b348015610a9657600080fd5b5061070842046104a1565b348015610aad57600080fd5b506001546001600160a01b0316610748565b348015610acb57600080fd5b506000546001600160a01b031615610546565b348015610aea57600080fd5b506103e8610af9366004613bd4565b611eaf565b348015610b0a57600080fd5b506103e8611f86565b348015610b1f57600080fd5b506107086104a1565b348015610b3457600080fd5b506107487f000000000000000000000000000000000000000000000000000000000000000081565b348015610b6857600080fd5b506104a160065481565b348015610b7e57600080fd5b506104a17f000000000000000000000000000000000000000000000000000000000000000081565b348015610bb257600080fd5b50610546610bc1366004613bd4565b61200d565b348015610bd257600080fd5b506103e8610be1366004613d26565b61201e565b348015610bf257600080fd5b506104a160115481565b348015610c0857600080fd5b50610c1c610c17366004613e3c565b612052565b60405161044f929190613ecf565b6000546001600160a01b03163314610c55576040516311a8a1bb60e31b815260040160405180910390fd5b6001600160a01b038116600081815260136020526040808220805460ff19169055517fbab6b194452fd4fa50e0ca09bf0f89976da30a2b92fdf91372ad1a176d81e3289190a250565b610ca66123c5565b3360009081526013602052604090205460ff16610cd65760405163dce46cfd60e01b815260040160405180910390fd5b60125460ff16610cf957604051637022548360e11b815260040160405180910390fd5b600f54600114610d1c57604051632bf9cc6b60e11b815260040160405180910390fd5b60008281526009602052604090205415610d69576000828152600960205260408082208290555183917f25baf79d6178f15bc11aefa9950ab45ad2e15f1fb6d8aa3b4f7889a6b2e2f70491a25b600060105443610d799190613efe565b60408051602081018690529081018490526060810182905290915060800160408051601f19818403018152908290528051602091820120600f5563ffffffff7f00000000000000000000000000000000000000000000000000000000000000001682528291849186917f7008dd9e43d32c464bcffa3c51a95b0d1038885b09f490062dee0fee59054e9c910160405180910390a4505050565b7f000000000000000000000000000000000000000000000000000000000000000063ffffffff168263ffffffff1614610e845760405162461bcd60e51b815260206004820152600f60248201526e216d6972726f72206e6574776f726b60881b60448201526064015b60405180910390fd5b8051602014610ebf5760405162461bcd60e51b8152602060048201526007602482015266042d8cadccee8d60cb1b6044820152606401610e7b565b610ec98382612412565b505050565b6000546001600160a01b03163314610ef9576040516311a8a1bb60e31b815260040160405180910390fd5b6008548103610f395760405162461bcd60e51b815260206004820152600c60248201526b2164656c6179426c6f636b7360a01b6044820152606401610e7b565b60405133815281907f8bd16320f3b60336ed5fd2a770eb7453e7e71cfef4462addffd7ae9dfe201c8e9060200160405180910390a2600855565b6000546001600160a01b03163314610f9e576040516311a8a1bb60e31b815260040160405180910390fd5b6011548103610fc05760405163545924bf60e11b815260040160405180910390fd5b60115460408051918252602082018390527fdfad87ee418f8b636836b030634c8040055c9a5f641899df5a5d1d3c554fee47910160405180910390a1601155565b6110096123c5565b4360055460065461101a9190613efe565b1115611039576040516346cf2af160e11b815260040160405180910390fd5b4360068190555060007f00000000000000000000000000000000000000000000000000000000000000006001600160a01b031663ebf0c7176040518163ffffffff1660e01b8152600401602060405180830381865afa1580156110a0573d6000803e3d6000fd5b505050506040513d601f19601f820116820180604052508101906110c49190613f11565b6000818152600c602052604090205490915060ff161561111a5760405162461bcd60e51b81526020600482015260116024820152701c9bdbdd08185b1c9958591e481cd95b9d607a1b6044820152606401610e7b565b6000818152600c60205260409020805460ff1916600117905561113d81836124a4565b5050565b6000546001600160a01b0316331461116c576040516311a8a1bb60e31b815260040160405180910390fd5b611174612514565b61117c612564565b565b336001600160a01b037f000000000000000000000000000000000000000000000000000000000000000016146111df5760405162461bcd60e51b8152600401610e7b9060208082526004908201526310a0a6a160e11b604082015260600190565b6111e8816125b9565b7fb3abc57bfeebd2cac918901db582f71972a8e628bccf19f5ae3e3482b98a5ced8133604051611219929190613f2a565b60405180910390a150565b61122c6123c5565b6112346125d2565b8361126b5760405162461bcd60e51b81526020600482015260076024820152662170726f6f667360c81b6044820152606401610e7b565b60008585600081811061128057611280613f54565b90506020028101906112929190613f6a565b61129c9080613f8b565b6040516112aa929190613fd9565b60405180910390209050600061131182888860008181106112cd576112cd613f54565b90506020028101906112df9190613f6a565b602001898960008181106112f5576112f5613f54565b90506020028101906113079190613f6a565b610420013561262b565b905061131f81868686612746565b6040516398fae8e960e01b8152600481018390527f00000000000000000000000000000000000000000000000000000000000000006001600160a01b0316906398fae8e990602401600060405180830381600087803b15801561138157600080fd5b505af1158015611395573d6000803e3d6000fd5b5088925060019150505b818163ffffffff1610156115095788888263ffffffff168181106113c5576113c5613f54565b90506020028101906113d79190613f6a565b6113e19080613f8b565b6040516113ef929190613fd9565b604051809103902093506000611444858b8b8563ffffffff1681811061141757611417613f54565b90506020028101906114299190613f6a565b6020018c8c8663ffffffff168181106112f5576112f5613f54565b90508381146114835760405162461bcd60e51b815260206004820152600b60248201526a085cda185c9959149bdbdd60aa1b6044820152606401610e7b565b6040516398fae8e960e01b8152600481018690527f00000000000000000000000000000000000000000000000000000000000000006001600160a01b0316906398fae8e990602401600060405180830381600087803b1580156114e557600080fd5b505af11580156114f9573d6000803e3d6000fd5b505050508160010191505061139f565b5060005b818163ffffffff1610156115955761158c89898363ffffffff1681811061153657611536613f54565b90506020028101906115489190613f6a565b6115529080613f8b565b8080601f01602080910402602001604051908101604052809392919081815260200183838082843760009201919091525061284192505050565b5060010161150d565b505050506115a36001600755565b5050505050565b6000546001600160a01b031633146115d5576040516311a8a1bb60e31b815260040160405180910390fd5b6115de81612b26565b50565b60007f00000000000000000000000000000000000000000000000000000000000000006001600160a01b031663ebf0c7176040518163ffffffff1660e01b8152600401602060405180830381865afa158015611641573d6000803e3d6000fd5b505050506040513d601f19601f820116820180604052508101906116659190613f11565b905090565b6000546001600160a01b03163314611695576040516311a8a1bb60e31b815260040160405180910390fd5b476116a08282612b8f565b816001600160a01b03167feaff4b37086828766ad3268786972c0cd24259d4c87a80f9d3963a3c3d999b0d826040516116db91815260200190565b60405180910390a25050565b6000546001600160a01b03163314611712576040516311a8a1bb60e31b815260040160405180910390fd5b61171a612514565b600081815260096020526040812054900361176f5760405162461bcd60e51b8152602060048201526015602482015274616767726567617465526f6f74202165786973747360581b6044820152606401610e7b565b6000818152600960205260408082208290555182917ff51534ecf10a58db36ce4f5180f59deddf3b3eb7c5e7454e602c2f80a40cc73991a250565b6000546001600160a01b031633146117d5576040516311a8a1bb60e31b815260040160405180910390fd5b60405162461bcd60e51b815260206004820152600a6024820152691c1c9bda1a589a5d195960b21b6044820152606401610e7b565b600480546040516384785ecd60e01b815233928101929092526001600160a01b0316906384785ecd90602401602060405180830381865afa158015611853573d6000803e3d6000fd5b505050506040513d601f19601f820116820180604052508101906118779190613fe9565b6118ae5760405162461bcd60e51b815260206004820152600860248201526710bbb0ba31b432b960c11b6044820152606401610e7b565b6118b66123c5565b61117c612ca8565b6118c66123c5565b60125460ff166118e957604051637022548360e11b815260040160405180910390fd5b4381111561190a57604051636839359160e01b815260040160405180910390fd5b600f54600019810161192f576040516317d1c37960e31b815260040160405180910390fd5b604080516020810186905290810184905260608101839052600090608001604051602081830303815290604052805190602001209050818114611985576040516333dfe00560e21b815260040160405180910390fd5b6000858152600a602052604090819020805460ff19166001908117909155600f55517f2dc49dedbe4da61c874d43fd3b63b0ed21ba78b75c83feca2f810ae13ada0af4906119d69087815260200190565b60405180910390a15050505050565b6000546001600160a01b03163314611a10576040516311a8a1bb60e31b815260040160405180910390fd5b601154811015611a335760405163575ce9f760e01b815260040160405180910390fd5b6010548103611a5557604051630d3d523f60e11b815260040160405180910390fd5b60105460408051918252602082018390527fff74184d965d306545ebeb3283c4d7a39f453a9c0ea539db6437b33ceb9c5125910160405180910390a1601055565b6000546001600160a01b03163314611ac1576040516311a8a1bb60e31b815260040160405180910390fd5b6001600160a01b038116600081815260136020526040808220805460ff19166001179055517f2bf05609716bc4b090ad0e99b47b91881c7517771259c625df05db7e9d8c81819190a250565b6000546001600160a01b03163314611b38576040516311a8a1bb60e31b815260040160405180910390fd5b6001546001600160a01b038281169116148015611b56575060025415155b15611b74576040516311bc066560e11b815260040160405180910390fd5b6000546001600160a01b03808316911603611ba257604051634a2fb73f60e11b815260040160405180910390fd5b6115de81612ceb565b6000546001600160a01b03163314611bd6576040516311a8a1bb60e31b815260040160405180910390fd5b6001600160a01b0381166000908152600d602052604090205460ff16611c295760405162461bcd60e51b815260206004820152600860248201526708585b1b1bddd95960c21b6044820152606401610e7b565b6001600160a01b0381166000818152600d6020526040808220805460ff19169055517f384859c5ef5fafac31e8bc92ce7fb48b1f2c74c4dd5e212eb84ec202fa5d9fad9190a250565b6000546001600160a01b03163314611c9d576040516311a8a1bb60e31b815260040160405180910390fd5b6001600160a01b0381166000908152600d602052604090205460ff1615611cf05760405162461bcd60e51b8152602060048201526007602482015266185b1b1bddd95960ca1b6044820152606401610e7b565b6001600160a01b0381166000818152600d6020526040808220805460ff19166001179055517fd65eca5d561d3a4568c87b9b13ced4ab52a69edadfdfdb22d76bc595f36d7d879190a250565b6001546001600160a01b03163314611d67576040516311a7f27160e11b815260040160405180910390fd5b62093a8060025442611d79919061400b565b11611d97576040516324e0285f60e21b815260040160405180910390fd5b60015461117c906001600160a01b0316612d39565b600480546040516384785ecd60e01b815233928101929092526001600160a01b0316906384785ecd90602401602060405180830381865afa158015611df5573d6000803e3d6000fd5b505050506040513d601f19601f82011682018060405250810190611e199190613fe9565b611e505760405162461bcd60e51b815260206004820152600860248201526710bbb0ba31b432b960c11b6044820152606401610e7b565b60125460ff16611e7357604051637022548360e11b815260040160405180910390fd5b6012805460ff191690556001600f5560405133907f714b2723706f07835c1a61e679dc639438acf1e1d0bbae60d17e5a246a754d6e90600090a2565b6000546001600160a01b03163314611eda576040516311a8a1bb60e31b815260040160405180910390fd5b6004546001600160a01b0390811690821603611f385760405162461bcd60e51b815260206004820152601760248201527f616c72656164792077617463686572206d616e616765720000000000000000006044820152606401610e7b565b600480546001600160a01b0319166001600160a01b0383169081179091556040519081527fc16d059e43d7f8e29ccb4e001a2f249d3c59e274925d6a6bc3912943441d9f6c90602001611219565b6000546001600160a01b03163314611fb1576040516311a8a1bb60e31b815260040160405180910390fd5b60125460ff1615611fd557604051630e8a34ed60e41b815260040160405180910390fd5b6012805460ff191660011790556040517f46b91c03184b9c3d3422333019c7e56a3e8940f285463e754a526110287bd52190600090a1565b600061201882612d9e565b92915050565b6000546001600160a01b03163314612049576040516311a8a1bb60e31b815260040160405180910390fd5b6115de81612e16565b336000908152600d602052604081205460609060ff166120a35760405162461bcd60e51b815260206004820152600c60248201526b08585b1b1bdddb1a5cdd195960a21b6044820152606401610e7b565b61070842046000818152600e6020526040812054900361220c5760007f00000000000000000000000000000000000000000000000000000000000000006001600160a01b031663ebf0c7176040518163ffffffff1660e01b8152600401602060405180830381865afa15801561211d573d6000803e3d6000fd5b505050506040513d601f19601f820116820180604052508101906121419190613f11565b905080600e6000848152602001908152602001600020819055507f00000000000000000000000000000000000000000000000000000000000000006001600160a01b03166306661abd6040518163ffffffff1660e01b8152600401602060405180830381865afa1580156121b9573d6000803e3d6000fd5b505050506040513d601f19601f820116820180604052508101906121dd9190613f11565b604051829084907f7ab06ac7a4d1b913d3302154561c33502bc3786196bf36757232034393d6143890600090a4505b604051630c132ab560e01b815263ffffffff871660048201526000907f00000000000000000000000000000000000000000000000000000000000000006001600160a01b031690630c132ab5906024016020604051808303816000875af115801561227b573d6000803e3d6000fd5b505050506040513d601f19601f8201168201806040525081019061229f919061401e565b905060006122d17f000000000000000000000000000000000000000000000000000000000000000033848b8b8b612e94565b80516020820120604051632d287e4360e01b8152600481018290529192509060009081907f00000000000000000000000000000000000000000000000000000000000000006001600160a01b031690632d287e439060240160408051808303816000875af1158015612347573d6000803e3d6000fd5b505050506040513d601f19601f8201168201806040525081019061236b919061403b565b90925090508161237c60018361400b565b847f40f08ee347fc927ae45902edc87debb024aab1a311943731968607f603f2152f876040516123ac919061405f565b60405180910390a4509099919850909650505050505050565b600354600160a01b900460ff161561117c5760405162461bcd60e51b815260206004820152601060248201526f14185d5cd8589b194e881c185d5cd95960821b6044820152606401610e7b565b61241b82612d9e565b6124565760405162461bcd60e51b815260206004820152600c60248201526b10b61921b7b73732b1ba37b960a11b6044820152606401610e7b565b61246761246282614072565b612ecc565b7fb3abc57bfeebd2cac918901db582f71972a8e628bccf19f5ae3e3482b98a5ced8133604051612498929190613f2a565b60405180910390a15050565b6000826040516020016124b991815260200190565b60405160208183030381529060405290506124d48183613011565b7fdcaa37a042a0087de79018c629bbd29cee82ca80bd9be394e1696bf9e935507781833360405161250793929190614099565b60405180910390a1505050565b600354600160a01b900460ff1661117c5760405162461bcd60e51b815260206004820152601460248201527314185d5cd8589b194e881b9bdd081c185d5cd95960621b6044820152606401610e7b565b61256c612514565b6003805460ff60a01b191690557f5db9ee0a495bf2e6ff9c91a7834c1ba4fdd244a5e8aa4e537bd38aeae4b073aa335b6040516001600160a01b03909116815260200160405180910390a1565b6040516316c2fdb560e21b815260040160405180910390fd5b6002600754036126245760405162461bcd60e51b815260206004820152601f60248201527f5265656e7472616e637947756172643a207265656e7472616e742063616c6c006044820152606401610e7b565b6002600755565b600080604051630546f34b60e21b8152600481018690527f00000000000000000000000000000000000000000000000000000000000000006001600160a01b03169063151bcd2c90602401602060405180830381865afa158015612693573d6000803e3d6000fd5b505050506040513d601f19601f820116820180604052508101906126b791906140ed565b60028111156126c8576126c86140d7565b146127085760405162461bcd60e51b815260206004820152601060248201526f214c6561665374617475732e4e6f6e6560801b6044820152606401610e7b565b61273c84846020806020026040519081016040528092919082602080028082843760009201919091525086915061304a9050565b90505b9392505050565b6000848152600b602052604090205460ff1661283b5761276583613398565b600061279b85846020806020026040519081016040528092919082602080028082843760009201919091525086915061304a9050565b90508381146127e25760405162461bcd60e51b81526020600482015260136024820152721a5b9d985b1a59081a5b989bdd5b99149bdbdd606a1b6044820152606401610e7b565b6000858152600b602052604090819020805460ff1916600117905551849086907f7ec1ea51fe3db53e55ed9d922854bc2156f467ff2f87d74e2086dae2c84a88a8906128319086815260200190565b60405180910390a3505b50505050565b60008061284e83826134f8565b905063ffffffff7f00000000000000000000000000000000000000000000000000000000000000001661288662ffffff19831661351c565b63ffffffff16146128c85760405162461bcd60e51b815260206004820152600c60248201526b10b232b9ba34b730ba34b7b760a11b6044820152606401610e7b565b60006128d962ffffff198316613531565b604051630b61f10360e41b8152600481018290529091507f00000000000000000000000000000000000000000000000000000000000000006001600160a01b03169063b61f103090602401600060405180830381600087803b15801561293e57600080fd5b505af1158015612952573d6000803e3d6000fd5b5050505060017f00000000000000000000000000000000000000000000000000000000000000007f00000000000000000000000000000000000000000000000000000000000000006129a49190613efe565b6129ae919061400b565b5a116129e55760405162461bcd60e51b8152600401610e7b906020808252600490820152632167617360e01b604082015260600190565b60006129f662ffffff19841661357a565b6040805161010080825261012082019092529192507f000000000000000000000000000000000000000000000000000000000000000091600090826020820181803683370190505090506000612a5162ffffff19881661358b565b612a6062ffffff19891661359f565b612a6f62ffffff198a166135b4565b612a8c612a8162ffffff198c166135c9565b62ffffff19166135f7565b604051602401612a9f949392919061410e565b60408051601f198184030181529190526020810180516001600160e01b031663ab2dc3f560e01b1790529050612ad9858560008685613640565b604051919950925086907fd42de95a9b26f1be134c8ecce389dc4fcfa18753d01661b7b361233569e8fe4890612b12908b908690614147565b60405180910390a250505050505050919050565b600354604080516001600160a01b03928316815291831660208301527fc77bec288fc88f168427f2f7da682eadb26cac89d8d591af6e443da98dff2bbc910160405180910390a1600380546001600160a01b0319166001600160a01b0392909216919091179055565b80471015612bdf5760405162461bcd60e51b815260206004820152601d60248201527f416464726573733a20696e73756666696369656e742062616c616e63650000006044820152606401610e7b565b6000826001600160a01b03168260405160006040518083038185875af1925050503d8060008114612c2c576040519150601f19603f3d011682016040523d82523d6000602084013e612c31565b606091505b5050905080610ec95760405162461bcd60e51b815260206004820152603a60248201527f416464726573733a20756e61626c6520746f2073656e642076616c75652c207260448201527f6563697069656e74206d617920686176652072657665727465640000000000006064820152608401610e7b565b612cb06123c5565b6003805460ff60a01b1916600160a01b1790557f62e78cea01bee320cd4e420270b5ea74000d11b0c9f74754ebdbfc544b05a25861259c3390565b42600255600180546001600160a01b0319166001600160a01b0383169081179091556040517f6ab4d119f23076e8ad491bc65ce85f017fb0591dce08755ba8591059cc51737a90600090a250565b600080546040516001600160a01b03808516939216917f8be0079c531659141344cd1fd0a4f28419497f9722a3daafe3b4186f6b6457e091a3600080546001600160a01b039092166001600160a01b0319928316178155600255600180549091169055565b6000336001600160a01b037f00000000000000000000000000000000000000000000000000000000000000001614612e015760405162461bcd60e51b8152600401610e7b9060208082526004908201526310b0b6b160e11b604082015260600190565b506003546001600160a01b0391821691161490565b6005548103612e595760405162461bcd60e51b815260206004820152600f60248201526e085b995dc81c985d19481b1a5b5a5d608a1b6044820152606401610e7b565b600581905560408051338152602081018390527f8e7fa5e406cb856aab05575e45ea011c6748376cc1b5229e3d67b92986406a159101611219565b6060868686868686604051602001612eb196959493929190614162565b60405160208183030381529060405290509695505050505050565b60125460ff1615612ef05760405163f8bc6d7d60e01b815260040160405180910390fd5b80612f2e5760405162461bcd60e51b815260206004820152600e60248201526d6e657720726f6f7420656d70747960901b6044820152606401610e7b565b60008181526009602052604090205415612f815760405162461bcd60e51b8152602060048201526014602482015273726f6f7420616c72656164792070656e64696e6760601b6044820152606401610e7b565b6000818152600a602052604090205460ff1615612fd65760405162461bcd60e51b81526020600482015260136024820152723937b7ba1030b63932b0b23c90383937bb32b760691b6044820152606401610e7b565b6000818152600960205260408082204390555182917f84ef18531155afdb0e64ff905d67044ae3aac63a6fba4661cfd9c4c14f289bc891a250565b60035461113d907f0000000000000000000000000000000000000000000000000000000000000000906001600160a01b031684846136cb565b6020600582811b8216948552835194820394909452604060008181206002851615871b808503919091528386015190528181206004851615871b808503919091528286015190528181206008851615871b80850391909152606086015190528181206010851615871b8085039190915260808087015190915282822084861615881b8086039190915260a0870151905282822083861615881b8086039190915260c0870151905282822090851615871b8085039190915260e0860151905281812061010080861615881b80860392909252860151905281812061020080861615881b80860392909252610120870151909152828220610400861615881b808603919091526101408701519052828220610800861615881b808603919091526101608701519052828220611000861615881b808603919091526101808701519052828220612000861615881b808603919091526101a08701519052828220614000861615881b808603919091526101c08701519052828220618000861615881b808603919091526101e0870151905282822062010000861615881b8086039190915290860151905281812062020000851615871b80850391909152610220860151905281812062040000851615871b80850391909152610240860151905281812062080000851615871b80850391909152610260860151905281812062100000851615871b80850391909152610280860151905281812062200000851615871b808503919091526102a0860151905281812062400000851615871b808503919091526102c0860151905281812062800000851615871b808503919091526102e086015190528181206301000000851615871b8085039190915261030086015190528181206302000000851615871b8085039190915261032086015190528181206304000000851615871b8085039190915261034086015190528181206308000000851615871b8085039190915261036086015190528181206310000000851615871b8085039190915261038086015190528181206320000000851615871b808503919091526103a086015190528181206340000000851615871b808503919091526103c0860151905281812063800000009094161590951b91829003929092526103e090920151909152902090565b806133db5760405162461bcd60e51b8152602060048201526013602482015272616767726567617465526f6f7420656d70747960681b6044820152606401610e7b565b6000818152600a602052604090205460ff16156133f55750565b6000818152600960205260408120549081900361344b5760405162461bcd60e51b81526020600482015260146024820152731859d9dc9959d85d19549bdbdd0808595e1a5cdd60621b6044820152606401610e7b565b600854613458824361400b565b10156134a65760405162461bcd60e51b815260206004820152601760248201527f616767726567617465526f6f74202176657269666965640000000000000000006044820152606401610e7b565b6000828152600a6020526040808220805460ff191660011790555183917f36b314aba9f663b4d3ef3288ae489341cc5e6a2725a05fa2b72df7a27e03f42a91a250600090815260096020526040812055565b81516000906020840161351364ffffffffff851682846137d4565b95945050505050565b600061201862ffffff19831660286004613811565b6000806135478360781c6001600160601b031690565b6001600160601b0316905060006135678460181c6001600160601b031690565b6001600160601b03169091209392505050565b600061201861358883613841565b90565b600061201862ffffff198316826004613811565b600061201862ffffff19831660246004613811565b600061201862ffffff19831660046020613852565b6000612018604c6135e781601886901c6001600160601b031661400b565b62ffffff1985169190600061395d565b606060008061360f8460181c6001600160601b031690565b6001600160601b03169050604051915081925061362f84836020016139d9565b508181016020016040529052919050565b6000606060008060008661ffff1667ffffffffffffffff81111561366657613666613c23565b6040519080825280601f01601f191660200182016040528015613690576020820181803683370190505b5090506000808751602089018b8e8ef191503d9250868311156136b1578692505b828152826000602083013e90999098509650505050505050565b815160201461370b5760405162461bcd60e51b815260206004820152600c60248201526b042c8c2e8c240d8cadccee8d60a31b6044820152606401610e7b565b8051156137495760405162461bcd60e51b815260206004820152600c60248201526b042c8c2e8c240d8cadccee8d60a31b6044820152606401610e7b565b604051630481fe6f60e31b81526001600160a01b0385169063240ff3789061379c907f000000000000000000000000000000000000000000000000000000000000000090879060019088906004016141bc565b600060405180830381600087803b1580156137b657600080fd5b505af11580156137ca573d6000803e3d6000fd5b5050505050505050565b6000806137e18385613efe565b90506040518111156137f1575060005b806000036138065762ffffff1991505061273f565b613513858585613acc565b600061381e8260206141f4565b61382990600861420d565b60ff16613837858585613852565b901c949350505050565b600061201862ffffff198316602c60205b60008160ff166000036138675750600061273f565b61387a8460181c6001600160601b031690565b6001600160601b031661389060ff841685613efe565b11156138f8576138a98460781c6001600160601b031690565b6138bc8560181c6001600160601b031690565b6040516378218d2960e01b81526001600160601b039283166004820152911660248201526044810184905260ff83166064820152608401610e7b565b60208260ff16111561391d5760405163045df3f960e01b815260040160405180910390fd5b6008820260006139368660781c6001600160601b031690565b6001600160601b031690506000600160ff1b60001984011d91909501511695945050505050565b6000806139738660781c6001600160601b031690565b6001600160601b0316905061398786613b43565b846139928784613efe565b61399c9190613efe565b11156139af5762ffffff199150506139d1565b6139b98582613efe565b90506139cd8364ffffffffff1682866137d4565b9150505b949350505050565b600062ffffff1980841603613a015760405163148d513360e21b815260040160405180910390fd5b613a0a83613b7c565b15613a2857604051632ee0949160e11b815260040160405180910390fd5b6000613a3d8460181c6001600160601b031690565b6001600160601b031690506000613a5d8560781c6001600160601b031690565b6001600160601b03169050600080604051915085821115613a7e5760206060fd5b8386858560045afa905080613aa657604051632af1bd9b60e21b815260040160405180910390fd5b613ac1613ab38860d81c90565b64ffffffffff168786613acc565b979650505050505050565b60006060601883856001600160601b03821682148015613af4575086816001600160601b0316145b613b2d5760405162461bcd60e51b815260206004820152600a602482015269085d1c9d5b98d85d195960b21b6044820152606401610e7b565b96831b90961790911b90941790931b9392505050565b6000613b588260181c6001600160601b031690565b613b6b8360781c6001600160601b031690565b016001600160601b03169050919050565b6000613b888260d81c90565b64ffffffffff1664ffffffffff03613ba257506001919050565b6000613bad83613b43565b604051109392505050565b80356001600160a01b0381168114613bcf57600080fd5b919050565b600060208284031215613be657600080fd5b61273f82613bb8565b60008060408385031215613c0257600080fd5b50508035926020909101359150565b63ffffffff811681146115de57600080fd5b634e487b7160e01b600052604160045260246000fd5b600082601f830112613c4a57600080fd5b813567ffffffffffffffff80821115613c6557613c65613c23565b604051601f8301601f19908116603f01168101908282118183101715613c8d57613c8d613c23565b81604052838152866020858801011115613ca657600080fd5b836020870160208301376000602085830101528094505050505092915050565b600080600060608486031215613cdb57600080fd5b613ce484613bb8565b92506020840135613cf481613c11565b9150604084013567ffffffffffffffff811115613d1057600080fd5b613d1c86828701613c39565b9150509250925092565b600060208284031215613d3857600080fd5b5035919050565b600060208284031215613d5157600080fd5b813567ffffffffffffffff811115613d6857600080fd5b6139d184828501613c39565b60008060008060006104608688031215613d8d57600080fd5b853567ffffffffffffffff80821115613da557600080fd5b818801915088601f830112613db957600080fd5b813581811115613dc857600080fd5b8960208260051b8501011115613ddd57600080fd5b602092830197509550508601359250610440860187811115613dfe57600080fd5b94979396509194604001933592915050565b600080600060608486031215613e2557600080fd5b505081359360208301359350604090920135919050565b600080600060608486031215613e5157600080fd5b8335613e5c81613c11565b925060208401359150604084013567ffffffffffffffff811115613d1057600080fd5b60005b83811015613e9a578181015183820152602001613e82565b50506000910152565b60008151808452613ebb816020860160208601613e7f565b601f01601f19169290920160200192915050565b82815260406020820152600061273c6040830184613ea3565b634e487b7160e01b600052601160045260246000fd5b8082018082111561201857612018613ee8565b600060208284031215613f2357600080fd5b5051919050565b604081526000613f3d6040830185613ea3565b905060018060a01b03831660208301529392505050565b634e487b7160e01b600052603260045260246000fd5b6000823561043e19833603018112613f8157600080fd5b9190910192915050565b6000808335601e19843603018112613fa257600080fd5b83018035915067ffffffffffffffff821115613fbd57600080fd5b602001915036819003821315613fd257600080fd5b9250929050565b8183823760009101908152919050565b600060208284031215613ffb57600080fd5b8151801515811461273f57600080fd5b8181038181111561201857612018613ee8565b60006020828403121561403057600080fd5b815161273f81613c11565b6000806040838503121561404e57600080fd5b505080516020909101519092909150565b60208152600061273f6020830184613ea3565b80516020808301519190811015614093576000198160200360031b1b821691505b50919050565b6060815260006140ac6060830186613ea3565b82810360208401526140be8186613ea3565b91505060018060a01b0383166040830152949350505050565b634e487b7160e01b600052602160045260246000fd5b6000602082840312156140ff57600080fd5b81516003811061273f57600080fd5b600063ffffffff80871683528086166020840152508360408301526080606083015261413d6080830184613ea3565b9695505050505050565b821515815260406020820152600061273c6040830184613ea3565b600063ffffffff60e01b808960e01b168352876004840152808760e01b166024840152808660e01b1660288401525083602c83015282516141aa81604c850160208701613e7f565b91909101604c01979650505050505050565b63ffffffff851681526001600160a01b0384166020820152821515604082015260806060820181905260009061413d90830184613ea3565b60ff828116828216039081111561201857612018613ee8565b60ff818116838216029081169081811461422957614229613ee8565b509291505056fea2646970667358221220f9ade28fbd4ac3132333f54d5de45db825647140ffc1cb9472fa5de739cd349964736f6c63430008110033",
  "devdoc": {
    "kind": "dev",
    "methods": {
      "activateSlowMode()": {
        "details": "Sets the proposed aggregate root hash to FINALIZED_HASH, invalidating it."
      },
      "addProposer(address)": {
        "details": "Only allowlisted proposers can call `proposeAggregateRoot`."
      },
      "addSender(address)": {
        "details": "Only allowlisted routers (senders) can call `dispatch`.",
        "params": {
          "_sender": "Sender to whitelist"
        }
      },
      "dispatch(uint32,bytes32,bytes)": {
        "details": "The root of this tree will eventually be dispatched to mainnet via `send`. On mainnet (the \"hub\"), it will be combined into a single aggregate root by RootManager (along with outbound roots from other chains). This aggregate root will be redistributed to all destination chains.This function is also in charge of saving the snapshot root when needed. If the message being added to the tree is the first of the current period this means the last snapshot finished and its root must be saved. The saving happens before adding the new message to the tree. NOTE: okay to leave dispatch operational when paused as pause is designed for crosschain interactions",
        "params": {
          "_destinationDomain": "Domain message is intended for",
          "_messageBody": "Message contents",
          "_recipientAddress": "Address for message recipient"
        }
      },
      "finalize(bytes32,uint256,uint256)": {
        "details": "Finalized roots won't be monitored by off-chain agents as they are deemed valid.",
        "params": {
          "_endOfDispute": "The block in which the dispute period for proposedAggregateRootHash concludes",
          "_proposedAggregateRoot": "The aggregate root currently proposed"
        }
      },
      "getLastCompletedSnapshotId()": {
        "details": "The value is calculated through an internal function to reuse code and save gas",
        "returns": {
          "_lastCompletedSnapshotId": "The last completed snapshot id"
        }
      },
      "getSnapshotDuration()": {
        "returns": {
          "_snapshotDuration": "The duration of the snapshot"
        }
      },
      "home()": {
        "details": "The local inbox contract is a SpokeConnector with AMBs, and a Home contract with nomad",
        "returns": {
          "_0": "The local inbox contract"
        }
      },
      "isReplica(address)": {
        "returns": {
          "_0": "True if _potentialReplica is an enrolled Replica"
        }
      },
      "paused()": {
        "details": "Returns true if the contract is paused, and false otherwise."
      },
      "processMessage(bytes)": {
        "details": "This is called by AMBs to process messages originating from mirror connector"
      },
      "proposeAggregateRoot(bytes32,uint256)": {
        "details": "_rootTimestamp is required for off-chain agents to be able to know which root they should fetch from the root manager contract                     in order to compare it with the one being proposed. The off-chain agents should also ensure the proposed root is                     not an old one.",
        "params": {
          "_aggregateRoot": "The aggregate root to propose.",
          "_rootTimestamp": "Block.timestamp at which the root was finalized in the root manager contract."
        }
      },
      "proveAndProcess((bytes,bytes32[32],uint256)[],bytes32,bytes32[32],uint256)": {
        "details": "Currently, ALL messages in a given batch must path to the same shared inboundRoot, meaning they must all share an origin. See open TODO below for a potential solution to enable multi-origin batches.Intended to be called by the relayer at specific intervals during runtime.Will record a calculated root as having been proven if we've already proven that it was included in the aggregateRoot.",
        "params": {
          "_aggregateIndex": "Index of the inbound root in the aggregator's merkle tree in the hub.",
          "_aggregatePath": "Merkle path of inclusion for the inbound root.",
          "_aggregateRoot": "The target aggregate root we want to prove inclusion for. This root must have already been delivered to this spoke connector contract and surpassed the validation period.",
          "_proofs": "Batch of Proofs containing messages for proving/processing."
        }
      },
      "removePendingAggregateRoot(bytes32)": {
        "details": "This method is required for handling fraud cases in the current construction. Specifically, this will protect against a fraudulent aggregate root getting transported, not fraudulent roots that constitute a given aggregate root (i.e. can protect against fraudulent hub -> spoke transport, not spoke -> hub transport).",
        "params": {
          "_fraudulentRoot": "Target fraudulent root that should be erased from the `pendingAggregateRoots` mapping."
        }
      },
      "removeProposer(address)": {
        "details": "Only allowlisted proposers can call `proposeAggregateRoot`."
      },
      "removeSender(address)": {
        "details": "Only allowlisted routers (senders) can call `dispatch`.",
        "params": {
          "_sender": "Sender to remove from whitelist"
        }
      },
      "renounceOwnership()": {
        "details": "Renounce ownership should be impossible as long as it is impossible in the WatcherClient, and as long as only the owner can remove pending roots in case of fraud."
      },
      "send(bytes)": {
        "params": {
          "_encodedData": "Data needed to send crosschain message by associated amb"
        }
      },
      "setDelayBlocks(uint256)": {
        "params": {
          "_delayBlocks": "Updated delay block value"
        }
      },
      "setRateLimitBlocks(uint256)": {
        "details": "Rate limit is used to mitigate DoS vectors. (See `RateLimited` for more info.)",
        "params": {
          "_rateLimit": "The number of blocks require between sending messages. If set to 0, rate limiting for this spoke connector will be disabled."
        }
      },
      "withdrawFunds(address)": {
        "details": "Withdraws the entire balance of the contract.",
        "params": {
          "_to": "The recipient of the funds withdrawn"
        }
      }
    },
    "version": 1
  },
  "userdoc": {
    "events": {
      "AggregateRootProposed(bytes32,uint256,uint256,uint32)": {
        "notice": "Emitted when a new aggregate root is proposed"
      },
      "AggregateRootReceived(bytes32)": {
        "notice": "Emitted when a new aggregate root is delivered from the hub"
      },
      "AggregateRootRemoved(bytes32)": {
        "notice": "Emitted when a proposed aggregate root is removed by admin"
      },
      "AggregateRootVerified(bytes32)": {
        "notice": "Emitted when an aggregate root has made it through the fraud period without being disputed"
      },
      "DelayBlocksUpdated(uint256,address)": {
        "notice": "Emitted when the admin updates the delay blocks"
      },
      "Dispatch(bytes32,uint256,bytes32,bytes)": {
        "notice": "Emitted when a message is sent (leaf added to outbound root)"
      },
      "DisputeBlocksUpdated(uint256,uint256)": {
        "notice": "Emitted when the number of dispute blocks is updated"
      },
      "FundsWithdrawn(address,uint256)": {
        "notice": "Emitted when funds are withdrawn by the admin"
      },
      "MessageProcessed(bytes,address)": {
        "notice": "Emitted whenever a message is successfully received over an AMB"
      },
      "MessageProven(bytes32,bytes32,uint256)": {
        "notice": "Emitted when a message (outbound root from different spoke) is proven against the aggregate root"
      },
      "MessageSent(bytes,bytes,address)": {
        "notice": "Emitted whenever a message is successfully sent over an AMB"
      },
      "MinDisputeBlocksUpdated(uint256,uint256)": {
        "notice": "Emitted whem the number of minimum dispute blocks is updated"
      },
      "OptimisticModeActivated()": {
        "notice": "Emitted when optimistic mode is activated"
      },
      "PendingAggregateRootDeleted(bytes32)": {
        "notice": "Emitted when a pending aggregate root is deleted from the pendingAggregateRoots mapping"
      },
      "Process(bytes32,bool,bytes)": {
        "notice": "Emitted when a message is handled (this is the destination domain)"
      },
      "ProposedRootFinalized(bytes32)": {
        "notice": "Emitted when the current proposed root is finalized"
      },
      "ProposerAdded(address)": {
        "notice": "Emitted when a new proposer is added"
      },
      "ProposerRemoved(address)": {
        "notice": "Emitted when a proposer is removed"
      },
      "SenderAdded(address)": {
        "notice": "Emitted when a new sender is whitelisted for messaging"
      },
      "SenderRemoved(address)": {
        "notice": "Emitted when a new sender is de-whitelisted for messaging"
      },
      "SlowModeActivated(address)": {
        "notice": "Emitted when slow mode is activated"
      },
      "WatcherManagerChanged(address)": {
        "notice": "Emitted when the manager address changes"
      }
    },
    "kind": "user",
    "methods": {
      "AMB()": {
        "notice": "Address of the AMB on this domain."
      },
      "DOMAIN()": {
        "notice": "The domain of this Messaging (i.e. Connector) contract."
      },
      "FINALIZED_HASH()": {
        "notice": "Hash used to keep the proposal slot warm once a given proposal has been finalized."
      },
      "MERKLE()": {
        "notice": "MerkleTreeManager contract instance. Will hold the active tree of message hashes, whose root will be sent crosschain to the hub for aggregation and redistribution."
      },
      "MIRROR_DOMAIN()": {
        "notice": "The domain of the corresponding messaging (i.e. Connector) contract."
      },
      "PROCESS_GAS()": {
        "notice": "Minimum gas for processing a received message (reserved for handle)"
      },
      "RESERVE_GAS()": {
        "notice": "Reserved gas (to ensure tx completes in case message processing runs out)"
      },
      "ROOT_MANAGER()": {
        "notice": "RootManager contract address."
      },
      "acceptProposedOwner()": {
        "notice": "Transfers ownership of the contract to a new account (`newOwner`). Can only be called by the current owner."
      },
      "activateOptimisticMode()": {
        "notice": "Owner can set the system to optimistic mode."
      },
      "activateSlowMode()": {
        "notice": "Watcher can set the system in slow mode."
      },
      "addProposer(address)": {
        "notice": "Adds a proposer to the allowlist."
      },
      "addSender(address)": {
        "notice": "Adds a sender to the allowlist."
      },
      "allowlistedProposers(address)": {
        "notice": "This is used for the `onlyProposers` modifier, which gates who can propose new roots using `proposeAggregateRoot`."
      },
      "allowlistedSenders(address)": {
        "notice": "Records all whitelisted senders"
      },
      "delay()": {
        "notice": "Returns the delay period before a new owner can be accepted."
      },
      "delayBlocks()": {
        "notice": "Number of blocks to delay the processing of a message to allow for watchers to verify the validity and pause if necessary."
      },
      "dispatch(uint32,bytes32,bytes)": {
        "notice": "This function adds transfers to the outbound transfer merkle tree."
      },
      "finalize(bytes32,uint256,uint256)": {
        "notice": "Finalizes the proposed aggregate root. This confirms the root validity. Therefore, it can be proved and processed."
      },
      "getLastCompletedSnapshotId()": {
        "notice": "This function gets the last completed snapshot id"
      },
      "getSnapshotDuration()": {
        "notice": "Get the duration of the snapshot"
      },
      "home()": {
        "notice": "Get the local inbox contract from the xAppConnectionManager"
      },
      "isReplica(address)": {
        "notice": "Determine whether _potentialReplica is an enrolled Replica from the xAppConnectionManager"
      },
      "lastSentBlock()": {
        "notice": "Tracks the last block that we sent a message."
      },
      "localDomain()": {
        "notice": "This provides the implementation for what is defined in the ConnectorManager to avoid storing the domain redundantly"
      },
      "minDisputeBlocks()": {
        "notice": "The minimum number of blocks disputeBlocks can be set to."
      },
      "mirrorConnector()": {
        "notice": "Connector on L2 for L1 connectors, and vice versa."
      },
      "onMessageReceived(address,uint32,bytes)": {
        "notice": "This function is called by the PolygonZkEVMBridge to handle incoming messages. while handling claimMessage"
      },
      "optimisticMode()": {
        "notice": "True if the system is working in optimistic mode. Otherwise is working in slow mode"
      },
      "outboundRoot()": {
        "notice": "This returns the root of all messages with the origin domain as this domain (i.e. all outbound messages)"
      },
      "owner()": {
        "notice": "Returns the address of the current owner."
      },
      "pause()": {
        "notice": "Watchers can pause contracts if fraud is detected"
      },
      "pendingAggregateRoots(bytes32)": {
        "notice": "This will hold the commit block for incoming aggregateRoots from the hub chain. Once they are verified, (i.e. have surpassed the verification period in `delayBlocks`) they can be used for proving inclusion of crosschain messages."
      },
      "processMessage(bytes)": {
        "notice": "Processes a message received by an AMB"
      },
      "proposeAggregateRoot(bytes32,uint256)": {
        "notice": "Propose a new aggregate root"
      },
      "proposeNewOwner(address)": {
        "notice": "Sets the timestamp for an owner to be proposed, and sets the newly proposed owner as step 1 in a 2-step process"
      },
      "proposed()": {
        "notice": "Returns the address of the proposed owner."
      },
      "proposedAggregateRootHash()": {
        "notice": "The resulting hash of keccaking the proposed aggregate root, the timestamp at which it was finalized in the root manager      and the block at which the time to dispute it ends."
      },
      "proposedTimestamp()": {
        "notice": "Returns the address of the proposed owner."
      },
      "proveAndProcess((bytes,bytes32[32],uint256)[],bytes32,bytes32[32],uint256)": {
        "notice": "Must be able to call the `handle` function on the BridgeRouter contract. This is called on the destination domain to handle incoming messages. Proving: Calculates the expected inbound root from an origin chain given a leaf (message hash), the index of the leaf, and the merkle proof of inclusion (path). Next, we check to ensure that this calculated inbound root is included in the current aggregateRoot, given its index in the aggregator tree and the proof of inclusion. Processing: After all messages have been proven, we dispatch each message to Connext (BridgeRouter) for execution."
      },
      "provenAggregateRoots(bytes32)": {
        "notice": "This tracks the roots of the aggregate tree containing outbound roots from all other supported domains. The current version is the one that is known to be past the delayBlocks time period."
      },
      "provenMessageRoots(bytes32)": {
        "notice": "This tracks whether the root has been proven to exist within the given aggregate root."
      },
      "rateLimitBlocks()": {
        "notice": "The number of blocks required between message sending events."
      },
      "removePendingAggregateRoot(bytes32)": {
        "notice": "Manually remove a pending aggregateRoot by owner if the contract is paused."
      },
      "removeProposer(address)": {
        "notice": "Removes a proposer from the allowlist."
      },
      "removeSender(address)": {
        "notice": "Removes a sender from the allowlist."
      },
      "renounceOwnership()": {
        "notice": "Remove ability to renounce ownership"
      },
      "renounced()": {
        "notice": "Indicates if the ownership has been renounced() by checking if current owner is address(0)"
      },
      "send(bytes)": {
        "notice": "This dispatches outbound root to hub via AMB"
      },
      "sentMessageRoots(bytes32)": {
        "notice": "This mapping records all message roots that have already been sent in order to prevent redundant message roots from being sent to hub."
      },
      "setDelayBlocks(uint256)": {
        "notice": "Set the `delayBlocks`, the period in blocks over which an incoming message is verified."
      },
      "setDisputeBlocks(uint256)": {
        "notice": "Set the `disputeBlocks`, the duration, in blocks, of the dispute process for a given proposed root"
      },
      "setMinDisputeBlocks(uint256)": {
        "notice": "Set the `minDisputeBlocks` variable to the provided parameter."
      },
      "setMirrorConnector(address)": {
        "notice": "Sets the address of the l2Connector for this domain"
      },
      "setRateLimitBlocks(uint256)": {
        "notice": "Set the rate limit (number of blocks) at which we can send messages from this contract to the hub chain using the `send` method."
      },
      "setWatcherManager(address)": {
        "notice": "Owner can enroll a watcher (abilities are defined by inheriting contracts)"
      },
      "snapshotRoots(uint256)": {
        "notice": "Mapping of the snapshot roots for a specific index. Used for data availability for off-chain scripts"
      },
      "unpause()": {
        "notice": "Owner can unpause contracts if fraud is detected by watchers"
      },
      "verifySender(address)": {
        "notice": "Checks the cross domain sender for a given address"
      },
      "watcherManager()": {
        "notice": "The `WatcherManager` contract governs the watcher allowlist."
      },
      "withdrawFunds(address)": {
        "notice": "This function should be callable by owner, and send funds trapped on a connector to the provided recipient."
      }
    },
    "version": 1
  },
  "storageLayout": {
    "storage": [
      {
        "astId": 4674,
        "contract": "contracts/messaging/connectors/polygonzk/PolygonZkSpokeConnector.sol:PolygonZkSpokeConnector",
        "label": "_owner",
        "offset": 0,
        "slot": "0",
        "type": "t_address"
      },
      {
        "astId": 4676,
        "contract": "contracts/messaging/connectors/polygonzk/PolygonZkSpokeConnector.sol:PolygonZkSpokeConnector",
        "label": "_proposed",
        "offset": 0,
        "slot": "1",
        "type": "t_address"
      },
      {
        "astId": 4678,
        "contract": "contracts/messaging/connectors/polygonzk/PolygonZkSpokeConnector.sol:PolygonZkSpokeConnector",
        "label": "_proposedOwnershipTimestamp",
        "offset": 0,
        "slot": "2",
        "type": "t_uint256"
      },
      {
        "astId": 1629,
        "contract": "contracts/messaging/connectors/polygonzk/PolygonZkSpokeConnector.sol:PolygonZkSpokeConnector",
        "label": "mirrorConnector",
        "offset": 0,
        "slot": "3",
        "type": "t_address"
      },
      {
        "astId": 470,
        "contract": "contracts/messaging/connectors/polygonzk/PolygonZkSpokeConnector.sol:PolygonZkSpokeConnector",
        "label": "_paused",
        "offset": 20,
        "slot": "3",
        "type": "t_bool"
      },
      {
        "astId": 1383,
        "contract": "contracts/messaging/connectors/polygonzk/PolygonZkSpokeConnector.sol:PolygonZkSpokeConnector",
        "label": "watcherManager",
        "offset": 0,
        "slot": "4",
        "type": "t_contract(WatcherManager)1574"
      },
      {
        "astId": 4579,
        "contract": "contracts/messaging/connectors/polygonzk/PolygonZkSpokeConnector.sol:PolygonZkSpokeConnector",
        "label": "rateLimitBlocks",
        "offset": 0,
        "slot": "5",
        "type": "t_uint256"
      },
      {
        "astId": 4582,
        "contract": "contracts/messaging/connectors/polygonzk/PolygonZkSpokeConnector.sol:PolygonZkSpokeConnector",
        "label": "lastSentBlock",
        "offset": 0,
        "slot": "6",
        "type": "t_uint256"
      },
      {
        "astId": 571,
        "contract": "contracts/messaging/connectors/polygonzk/PolygonZkSpokeConnector.sol:PolygonZkSpokeConnector",
        "label": "_status",
        "offset": 0,
        "slot": "7",
        "type": "t_uint256"
      },
      {
        "astId": 2267,
        "contract": "contracts/messaging/connectors/polygonzk/PolygonZkSpokeConnector.sol:PolygonZkSpokeConnector",
        "label": "delayBlocks",
        "offset": 0,
        "slot": "8",
        "type": "t_uint256"
      },
      {
        "astId": 2282,
        "contract": "contracts/messaging/connectors/polygonzk/PolygonZkSpokeConnector.sol:PolygonZkSpokeConnector",
        "label": "pendingAggregateRoots",
        "offset": 0,
        "slot": "9",
        "type": "t_mapping(t_bytes32,t_uint256)"
      },
      {
        "astId": 2287,
        "contract": "contracts/messaging/connectors/polygonzk/PolygonZkSpokeConnector.sol:PolygonZkSpokeConnector",
        "label": "provenAggregateRoots",
        "offset": 0,
        "slot": "10",
        "type": "t_mapping(t_bytes32,t_bool)"
      },
      {
        "astId": 2292,
        "contract": "contracts/messaging/connectors/polygonzk/PolygonZkSpokeConnector.sol:PolygonZkSpokeConnector",
        "label": "provenMessageRoots",
        "offset": 0,
        "slot": "11",
        "type": "t_mapping(t_bytes32,t_bool)"
      },
      {
        "astId": 2297,
        "contract": "contracts/messaging/connectors/polygonzk/PolygonZkSpokeConnector.sol:PolygonZkSpokeConnector",
        "label": "sentMessageRoots",
        "offset": 0,
        "slot": "12",
        "type": "t_mapping(t_bytes32,t_bool)"
      },
      {
        "astId": 2302,
        "contract": "contracts/messaging/connectors/polygonzk/PolygonZkSpokeConnector.sol:PolygonZkSpokeConnector",
        "label": "allowlistedSenders",
        "offset": 0,
        "slot": "13",
        "type": "t_mapping(t_address,t_bool)"
      },
      {
        "astId": 2307,
        "contract": "contracts/messaging/connectors/polygonzk/PolygonZkSpokeConnector.sol:PolygonZkSpokeConnector",
        "label": "snapshotRoots",
        "offset": 0,
        "slot": "14",
        "type": "t_mapping(t_uint256,t_bytes32)"
      },
      {
        "astId": 2311,
        "contract": "contracts/messaging/connectors/polygonzk/PolygonZkSpokeConnector.sol:PolygonZkSpokeConnector",
        "label": "proposedAggregateRootHash",
        "offset": 0,
        "slot": "15",
        "type": "t_bytes32"
      },
      {
        "astId": 2313,
        "contract": "contracts/messaging/connectors/polygonzk/PolygonZkSpokeConnector.sol:PolygonZkSpokeConnector",
        "label": "disputeBlocks",
        "offset": 0,
        "slot": "16",
        "type": "t_uint256"
      },
      {
        "astId": 2316,
        "contract": "contracts/messaging/connectors/polygonzk/PolygonZkSpokeConnector.sol:PolygonZkSpokeConnector",
        "label": "minDisputeBlocks",
        "offset": 0,
        "slot": "17",
        "type": "t_uint256"
      },
      {
        "astId": 2323,
        "contract": "contracts/messaging/connectors/polygonzk/PolygonZkSpokeConnector.sol:PolygonZkSpokeConnector",
        "label": "optimisticMode",
        "offset": 0,
        "slot": "18",
        "type": "t_bool"
      },
      {
        "astId": 2328,
        "contract": "contracts/messaging/connectors/polygonzk/PolygonZkSpokeConnector.sol:PolygonZkSpokeConnector",
        "label": "allowlistedProposers",
        "offset": 0,
        "slot": "19",
        "type": "t_mapping(t_address,t_bool)"
      }
    ],
    "types": {
      "t_address": {
        "encoding": "inplace",
        "label": "address",
        "numberOfBytes": "20"
      },
      "t_bool": {
        "encoding": "inplace",
        "label": "bool",
        "numberOfBytes": "1"
      },
      "t_bytes32": {
        "encoding": "inplace",
        "label": "bytes32",
        "numberOfBytes": "32"
      },
      "t_contract(WatcherManager)1574": {
        "encoding": "inplace",
        "label": "contract WatcherManager",
        "numberOfBytes": "20"
      },
      "t_mapping(t_address,t_bool)": {
        "encoding": "mapping",
        "key": "t_address",
        "label": "mapping(address => bool)",
        "numberOfBytes": "32",
        "value": "t_bool"
      },
      "t_mapping(t_bytes32,t_bool)": {
        "encoding": "mapping",
        "key": "t_bytes32",
        "label": "mapping(bytes32 => bool)",
        "numberOfBytes": "32",
        "value": "t_bool"
      },
      "t_mapping(t_bytes32,t_uint256)": {
        "encoding": "mapping",
        "key": "t_bytes32",
        "label": "mapping(bytes32 => uint256)",
        "numberOfBytes": "32",
        "value": "t_uint256"
      },
      "t_mapping(t_uint256,t_bytes32)": {
        "encoding": "mapping",
        "key": "t_uint256",
        "label": "mapping(uint256 => bytes32)",
        "numberOfBytes": "32",
        "value": "t_bytes32"
      },
      "t_uint256": {
        "encoding": "inplace",
        "label": "uint256",
        "numberOfBytes": "32"
      }
    }
  }
}