{
  "_format": "hh-sol-artifact-1",
  "contractName": "TestLibIterableMapping",
  "sourceName": "contracts/testing/TestLibIterableMapping.sol",
  "abi": [
    {
      "inputs": [],
      "stateMutability": "nonpayable",
      "type": "constructor"
    },
    {
      "inputs": [
        {
          "components": [
            {
              "internalType": "uint256",
              "name": "amount",
              "type": "uint256"
            },
            {
              "internalType": "uint256",
              "name": "expiry",
              "type": "uint256"
            },
            {
              "internalType": "bytes32",
              "name": "digest",
              "type": "bytes32"
            }
          ],
          "internalType": "struct UnsignedTransactionData",
          "name": "transfer",
          "type": "tuple"
        }
      ],
      "name": "addTransaction",
      "outputs": [],
      "stateMutability": "nonpayable",
      "type": "function"
    },
    {
      "inputs": [
        {
          "internalType": "bytes32",
          "name": "s",
          "type": "bytes32"
        },
        {
          "internalType": "bytes32",
          "name": "t",
          "type": "bytes32"
        }
      ],
      "name": "digestEqual",
      "outputs": [
        {
          "internalType": "bool",
          "name": "",
          "type": "bool"
        }
      ],
      "stateMutability": "pure",
      "type": "function"
    },
    {
      "inputs": [
        {
          "internalType": "bytes32",
          "name": "digest",
          "type": "bytes32"
        }
      ],
      "name": "digestExists",
      "outputs": [
        {
          "internalType": "bool",
          "name": "",
          "type": "bool"
        }
      ],
      "stateMutability": "view",
      "type": "function"
    },
    {
      "inputs": [
        {
          "internalType": "bytes32",
          "name": "digest",
          "type": "bytes32"
        }
      ],
      "name": "getTransactionByDigest",
      "outputs": [
        {
          "components": [
            {
              "internalType": "uint256",
              "name": "amount",
              "type": "uint256"
            },
            {
              "internalType": "uint256",
              "name": "expiry",
              "type": "uint256"
            },
            {
              "internalType": "bytes32",
              "name": "digest",
              "type": "bytes32"
            }
          ],
          "internalType": "struct UnsignedTransactionData",
          "name": "",
          "type": "tuple"
        }
      ],
      "stateMutability": "view",
      "type": "function"
    },
    {
      "inputs": [
        {
          "internalType": "uint256",
          "name": "index",
          "type": "uint256"
        }
      ],
      "name": "getTransactionByIndex",
      "outputs": [
        {
          "components": [
            {
              "internalType": "uint256",
              "name": "amount",
              "type": "uint256"
            },
            {
              "internalType": "uint256",
              "name": "expiry",
              "type": "uint256"
            },
            {
              "internalType": "bytes32",
              "name": "digest",
              "type": "bytes32"
            }
          ],
          "internalType": "struct UnsignedTransactionData",
          "name": "",
          "type": "tuple"
        }
      ],
      "stateMutability": "view",
      "type": "function"
    },
    {
      "inputs": [],
      "name": "getTransactions",
      "outputs": [
        {
          "components": [
            {
              "internalType": "uint256",
              "name": "amount",
              "type": "uint256"
            },
            {
              "internalType": "uint256",
              "name": "expiry",
              "type": "uint256"
            },
            {
              "internalType": "bytes32",
              "name": "digest",
              "type": "bytes32"
            }
          ],
          "internalType": "struct UnsignedTransactionData[]",
          "name": "",
          "type": "tuple[]"
        }
      ],
      "stateMutability": "view",
      "type": "function"
    },
    {
      "inputs": [
        {
          "internalType": "bytes32",
          "name": "s",
          "type": "bytes32"
        }
      ],
      "name": "isEmptyString",
      "outputs": [
        {
          "internalType": "bool",
          "name": "",
          "type": "bool"
        }
      ],
      "stateMutability": "pure",
      "type": "function"
    },
    {
      "inputs": [],
      "name": "length",
      "outputs": [
        {
          "internalType": "uint256",
          "name": "",
          "type": "uint256"
        }
      ],
      "stateMutability": "view",
      "type": "function"
    },
    {
      "inputs": [
        {
          "internalType": "bytes32",
          "name": "digest",
          "type": "bytes32"
        }
      ],
      "name": "removeTransaction",
      "outputs": [],
      "stateMutability": "nonpayable",
      "type": "function"
    }
  ],
  "bytecode": "0x608060405234801561001057600080fd5b506110eb806100206000396000f3fe608060405234801561001057600080fd5b50600436106100935760003560e01c8063869152e711610066578063869152e714610134578063b1520b0614610164578063c68187d114610194578063f7332550146101b0578063fd56653b146101cc57610093565b80631f7b6d32146100985780633773dba0146100b65780634d7baa41146100e657806383920e9014610116575b600080fd5b6100a06101fc565b6040516100ad9190610daa565b60405180910390f35b6100d060048036038101906100cb9190610a59565b61020d565b6040516100dd9190610cf4565b60405180910390f35b61010060048036038101906100fb9190610a59565b61021f565b60405161010d9190610d8f565b60405180910390f35b61011e610239565b60405161012b9190610cd2565b60405180910390f35b61014e60048036038101906101499190610ae7565b61024a565b60405161015b9190610d8f565b60405180910390f35b61017e60048036038101906101799190610a59565b610264565b60405161018b9190610cf4565b60405180910390f35b6101ae60048036038101906101a99190610abe565b610278565b005b6101ca60048036038101906101c59190610a59565b610286565b005b6101e660048036038101906101e19190610a82565b610294565b6040516101f39190610cf4565b60405180910390f35b600061020860006102a8565b905090565b6000610218826102b9565b9050919050565b6102276109ab565b6102326000836102cf565b9050919050565b60606102456000610369565b905090565b6102526109ab565b61025d6000836104e9565b9050919050565b60006102716000836105c9565b9050919050565b610283600082610661565b50565b610291600082610794565b50565b60006102a0838361099e565b905092915050565b600081600101805490509050919050565b60006102c8826000801b61099e565b9050919050565b6102d76109ab565b6102e183836105c9565b610320576040517f08c379a000000000000000000000000000000000000000000000000000000000815260040161031790610d0f565b60405180910390fd5b8260000160008381526020019081526020016000206000016040518060600160405290816000820154815260200160018201548152602001600282015481525050905092915050565b606060008260010180549050905060008167ffffffffffffffff8111156103b9577f4e487b7100000000000000000000000000000000000000000000000000000000600052604160045260246000fd5b6040519080825280602002602001820160405280156103f257816020015b6103df6109ab565b8152602001906001900390816103d75790505b50905060005b828110156104de57846000016000866001018381548110610442577f4e487b7100000000000000000000000000000000000000000000000000000000600052603260045260246000fd5b9060005260206000200154815260200190815260200160002060000160405180606001604052908160008201548152602001600182015481526020016002820154815250508282815181106104c0577f4e487b7100000000000000000000000000000000000000000000000000000000600052603260045260246000fd5b602002602001018190525080806104d690610eb9565b9150506103f8565b508092505050919050565b6104f16109ab565b8260010180549050821061053a576040517f08c379a000000000000000000000000000000000000000000000000000000000815260040161053190610d6f565b60405180910390fd5b82600001600084600101848154811061057c577f4e487b7100000000000000000000000000000000000000000000000000000000600052603260045260246000fd5b906000526020600020015481526020019081526020016000206000016040518060600160405290816000820154815260200160018201548152602001600282015481525050905092915050565b60006105d4826102b9565b1580156105e957506000836001018054905014155b80156106595750610658836001018460000160008581526020019081526020016000206003015481548110610647577f4e487b7100000000000000000000000000000000000000000000000000000000600052603260045260246000fd5b90600052602060002001548361099e565b5b905092915050565b600081604001519050610673816102b9565b156106b3576040517f08c379a00000000000000000000000000000000000000000000000000000000081526004016106aa90610d2f565b60405180910390fd5b6106bd83826105c9565b156106fd576040517f08c379a00000000000000000000000000000000000000000000000000000000081526004016106f490610d4f565b60405180910390fd5b6040518060400160405280838152602001846001018054905081525083600001600083815260200190815260200160002060008201518160000160008201518160000155602082015181600101556040820151816002015550506020820151816003015590505082600101819080600181540180825580915050600190039060005260206000200160009091909190915055505050565b61079d816102b9565b156107dd576040517f08c379a00000000000000000000000000000000000000000000000000000000081526004016107d490610d2f565b60405180910390fd5b6107e782826105c9565b610826576040517f08c379a000000000000000000000000000000000000000000000000000000000815260040161081d90610d0f565b60405180910390fd5b60008260000160008381526020019081526020016000206003015490506000836001016001856001018054905061085d9190610e34565b81548110610894577f4e487b7100000000000000000000000000000000000000000000000000000000600052603260045260246000fd5b906000526020600020015490508184600001600083815260200190815260200160002060030181905550808460010183815481106108fb577f4e487b7100000000000000000000000000000000000000000000000000000000600052603260045260246000fd5b906000526020600020018190555083600001600084815260200190815260200160002060008082016000808201600090556001820160009055600282016000905550506003820160009055505083600101805480610982577f4e487b7100000000000000000000000000000000000000000000000000000000600052603160045260246000fd5b6001900381819060005260206000200160009055905550505050565b6000818314905092915050565b60405180606001604052806000815260200160008152602001600080191681525090565b6000813590506109de81611087565b92915050565b6000606082840312156109f657600080fd5b610a006060610dc5565b90506000610a1084828501610a44565b6000830152506020610a2484828501610a44565b6020830152506040610a38848285016109cf565b60408301525092915050565b600081359050610a538161109e565b92915050565b600060208284031215610a6b57600080fd5b6000610a79848285016109cf565b91505092915050565b60008060408385031215610a9557600080fd5b6000610aa3858286016109cf565b9250506020610ab4858286016109cf565b9150509250929050565b600060608284031215610ad057600080fd5b6000610ade848285016109e4565b91505092915050565b600060208284031215610af957600080fd5b6000610b0784828501610a44565b91505092915050565b6000610b1c8383610c30565b60608301905092915050565b6000610b3382610dfa565b610b3d8185610e12565b9350610b4883610dea565b8060005b83811015610b79578151610b608882610b10565b9750610b6b83610e05565b925050600181019050610b4c565b5085935050505092915050565b610b8f81610e68565b82525050565b610b9e81610e74565b82525050565b6000610bb1602483610e23565b9150610bbc82610f71565b604082019050919050565b6000610bd4602083610e23565b9150610bdf82610fc0565b602082019050919050565b6000610bf7602883610e23565b9150610c0282610fe9565b604082019050919050565b6000610c1a602183610e23565b9150610c2582611038565b604082019050919050565b606082016000820151610c466000850182610cb4565b506020820151610c596020850182610cb4565b506040820151610c6c6040850182610b95565b50505050565b606082016000820151610c886000850182610cb4565b506020820151610c9b6020850182610cb4565b506040820151610cae6040850182610b95565b50505050565b610cbd81610e7e565b82525050565b610ccc81610e7e565b82525050565b60006020820190508181036000830152610cec8184610b28565b905092915050565b6000602082019050610d096000830184610b86565b92915050565b60006020820190508181036000830152610d2881610ba4565b9050919050565b60006020820190508181036000830152610d4881610bc7565b9050919050565b60006020820190508181036000830152610d6881610bea565b9050919050565b60006020820190508181036000830152610d8881610c0d565b9050919050565b6000606082019050610da46000830184610c72565b92915050565b6000602082019050610dbf6000830184610cc3565b92915050565b6000610dcf610de0565b9050610ddb8282610e88565b919050565b6000604051905090565b6000819050602082019050919050565b600081519050919050565b6000602082019050919050565b600082825260208201905092915050565b600082825260208201905092915050565b6000610e3f82610e7e565b9150610e4a83610e7e565b925082821015610e5d57610e5c610f02565b5b828203905092915050565b60008115159050919050565b6000819050919050565b6000819050919050565b610e9182610f60565b810181811067ffffffffffffffff82111715610eb057610eaf610f31565b5b80604052505050565b6000610ec482610e7e565b91507fffffffffffffffffffffffffffffffffffffffffffffffffffffffffffffffff821415610ef757610ef6610f02565b5b600182019050919050565b7f4e487b7100000000000000000000000000000000000000000000000000000000600052601160045260246000fd5b7f4e487b7100000000000000000000000000000000000000000000000000000000600052604160045260246000fd5b6000601f19601f8301169050919050565b7f4c69624974657261626c654d617070696e673a204449474553545f4e4f545f4660008201527f4f554e4400000000000000000000000000000000000000000000000000000000602082015250565b7f4c69624974657261626c654d617070696e673a20454d5054595f444947455354600082015250565b7f4c69624974657261626c654d617070696e673a204449474553545f414c52454160008201527f44595f4144444544000000000000000000000000000000000000000000000000602082015250565b7f4c69624974657261626c654d617070696e673a20494e56414c49445f494e444560008201527f5800000000000000000000000000000000000000000000000000000000000000602082015250565b61109081610e74565b811461109b57600080fd5b50565b6110a781610e7e565b81146110b257600080fd5b5056fea2646970667358221220574c88c434d5f357a1d968ae9afd4cb5b2ac85d1a925168eb4d78b67fe08c45064736f6c63430008040033",
  "linkReferences": {},
  "deployedLinkReferences": {}
}