{
  "address": "0xBA3171e092705A09ef68DEaeC86F184B92026236",
  "abi": [
    {
      "inputs": [
        {
          "internalType": "uint256",
          "name": "_chainId",
          "type": "uint256"
        }
      ],
      "stateMutability": "nonpayable",
      "type": "constructor"
    },
    {
      "anonymous": false,
      "inputs": [
        {
          "indexed": true,
          "internalType": "address",
          "name": "addedAssetId",
          "type": "address"
        },
        {
          "indexed": true,
          "internalType": "address",
          "name": "caller",
          "type": "address"
        }
      ],
      "name": "AssetAdded",
      "type": "event"
    },
    {
      "anonymous": false,
      "inputs": [
        {
          "indexed": true,
          "internalType": "address",
          "name": "removedAssetId",
          "type": "address"
        },
        {
          "indexed": true,
          "internalType": "address",
          "name": "caller",
          "type": "address"
        }
      ],
      "name": "AssetRemoved",
      "type": "event"
    },
    {
      "anonymous": false,
      "inputs": [
        {
          "indexed": true,
          "internalType": "address",
          "name": "router",
          "type": "address"
        },
        {
          "indexed": true,
          "internalType": "address",
          "name": "assetId",
          "type": "address"
        },
        {
          "indexed": false,
          "internalType": "uint256",
          "name": "amount",
          "type": "uint256"
        },
        {
          "indexed": false,
          "internalType": "address",
          "name": "caller",
          "type": "address"
        }
      ],
      "name": "LiquidityAdded",
      "type": "event"
    },
    {
      "anonymous": false,
      "inputs": [
        {
          "indexed": true,
          "internalType": "address",
          "name": "router",
          "type": "address"
        },
        {
          "indexed": true,
          "internalType": "address",
          "name": "assetId",
          "type": "address"
        },
        {
          "indexed": false,
          "internalType": "uint256",
          "name": "amount",
          "type": "uint256"
        },
        {
          "indexed": false,
          "internalType": "address",
          "name": "recipient",
          "type": "address"
        }
      ],
      "name": "LiquidityRemoved",
      "type": "event"
    },
    {
      "anonymous": false,
      "inputs": [
        {
          "indexed": true,
          "internalType": "address",
          "name": "proposedOwner",
          "type": "address"
        }
      ],
      "name": "OwnershipProposed",
      "type": "event"
    },
    {
      "anonymous": false,
      "inputs": [
        {
          "indexed": true,
          "internalType": "address",
          "name": "previousOwner",
          "type": "address"
        },
        {
          "indexed": true,
          "internalType": "address",
          "name": "newOwner",
          "type": "address"
        }
      ],
      "name": "OwnershipTransferred",
      "type": "event"
    },
    {
      "anonymous": false,
      "inputs": [
        {
          "indexed": true,
          "internalType": "address",
          "name": "addedRouter",
          "type": "address"
        },
        {
          "indexed": true,
          "internalType": "address",
          "name": "caller",
          "type": "address"
        }
      ],
      "name": "RouterAdded",
      "type": "event"
    },
    {
      "anonymous": false,
      "inputs": [
        {
          "indexed": true,
          "internalType": "address",
          "name": "removedRouter",
          "type": "address"
        },
        {
          "indexed": true,
          "internalType": "address",
          "name": "caller",
          "type": "address"
        }
      ],
      "name": "RouterRemoved",
      "type": "event"
    },
    {
      "anonymous": false,
      "inputs": [
        {
          "indexed": true,
          "internalType": "address",
          "name": "user",
          "type": "address"
        },
        {
          "indexed": true,
          "internalType": "address",
          "name": "router",
          "type": "address"
        },
        {
          "indexed": true,
          "internalType": "bytes32",
          "name": "transactionId",
          "type": "bytes32"
        },
        {
          "components": [
            {
              "internalType": "address",
              "name": "user",
              "type": "address"
            },
            {
              "internalType": "address",
              "name": "router",
              "type": "address"
            },
            {
              "internalType": "address",
              "name": "sendingAssetId",
              "type": "address"
            },
            {
              "internalType": "address",
              "name": "receivingAssetId",
              "type": "address"
            },
            {
              "internalType": "address",
              "name": "sendingChainFallback",
              "type": "address"
            },
            {
              "internalType": "address",
              "name": "receivingAddress",
              "type": "address"
            },
            {
              "internalType": "address",
              "name": "callTo",
              "type": "address"
            },
            {
              "internalType": "bytes32",
              "name": "callDataHash",
              "type": "bytes32"
            },
            {
              "internalType": "bytes32",
              "name": "transactionId",
              "type": "bytes32"
            },
            {
              "internalType": "uint256",
              "name": "sendingChainId",
              "type": "uint256"
            },
            {
              "internalType": "uint256",
              "name": "receivingChainId",
              "type": "uint256"
            },
            {
              "internalType": "uint256",
              "name": "amount",
              "type": "uint256"
            },
            {
              "internalType": "uint256",
              "name": "expiry",
              "type": "uint256"
            },
            {
              "internalType": "uint256",
              "name": "preparedBlockNumber",
              "type": "uint256"
            }
          ],
          "indexed": false,
          "internalType": "struct ITransactionManager.TransactionData",
          "name": "txData",
          "type": "tuple"
        },
        {
          "indexed": false,
          "internalType": "uint256",
          "name": "relayerFee",
          "type": "uint256"
        },
        {
          "indexed": false,
          "internalType": "address",
          "name": "caller",
          "type": "address"
        }
      ],
      "name": "TransactionCancelled",
      "type": "event"
    },
    {
      "anonymous": false,
      "inputs": [
        {
          "indexed": true,
          "internalType": "address",
          "name": "user",
          "type": "address"
        },
        {
          "indexed": true,
          "internalType": "address",
          "name": "router",
          "type": "address"
        },
        {
          "indexed": true,
          "internalType": "bytes32",
          "name": "transactionId",
          "type": "bytes32"
        },
        {
          "components": [
            {
              "internalType": "address",
              "name": "user",
              "type": "address"
            },
            {
              "internalType": "address",
              "name": "router",
              "type": "address"
            },
            {
              "internalType": "address",
              "name": "sendingAssetId",
              "type": "address"
            },
            {
              "internalType": "address",
              "name": "receivingAssetId",
              "type": "address"
            },
            {
              "internalType": "address",
              "name": "sendingChainFallback",
              "type": "address"
            },
            {
              "internalType": "address",
              "name": "receivingAddress",
              "type": "address"
            },
            {
              "internalType": "address",
              "name": "callTo",
              "type": "address"
            },
            {
              "internalType": "bytes32",
              "name": "callDataHash",
              "type": "bytes32"
            },
            {
              "internalType": "bytes32",
              "name": "transactionId",
              "type": "bytes32"
            },
            {
              "internalType": "uint256",
              "name": "sendingChainId",
              "type": "uint256"
            },
            {
              "internalType": "uint256",
              "name": "receivingChainId",
              "type": "uint256"
            },
            {
              "internalType": "uint256",
              "name": "amount",
              "type": "uint256"
            },
            {
              "internalType": "uint256",
              "name": "expiry",
              "type": "uint256"
            },
            {
              "internalType": "uint256",
              "name": "preparedBlockNumber",
              "type": "uint256"
            }
          ],
          "indexed": false,
          "internalType": "struct ITransactionManager.TransactionData",
          "name": "txData",
          "type": "tuple"
        },
        {
          "indexed": false,
          "internalType": "uint256",
          "name": "relayerFee",
          "type": "uint256"
        },
        {
          "indexed": false,
          "internalType": "bytes",
          "name": "signature",
          "type": "bytes"
        },
        {
          "indexed": false,
          "internalType": "bytes",
          "name": "callData",
          "type": "bytes"
        },
        {
          "indexed": false,
          "internalType": "address",
          "name": "caller",
          "type": "address"
        }
      ],
      "name": "TransactionFulfilled",
      "type": "event"
    },
    {
      "anonymous": false,
      "inputs": [
        {
          "indexed": true,
          "internalType": "address",
          "name": "user",
          "type": "address"
        },
        {
          "indexed": true,
          "internalType": "address",
          "name": "router",
          "type": "address"
        },
        {
          "indexed": true,
          "internalType": "bytes32",
          "name": "transactionId",
          "type": "bytes32"
        },
        {
          "components": [
            {
              "internalType": "address",
              "name": "user",
              "type": "address"
            },
            {
              "internalType": "address",
              "name": "router",
              "type": "address"
            },
            {
              "internalType": "address",
              "name": "sendingAssetId",
              "type": "address"
            },
            {
              "internalType": "address",
              "name": "receivingAssetId",
              "type": "address"
            },
            {
              "internalType": "address",
              "name": "sendingChainFallback",
              "type": "address"
            },
            {
              "internalType": "address",
              "name": "receivingAddress",
              "type": "address"
            },
            {
              "internalType": "address",
              "name": "callTo",
              "type": "address"
            },
            {
              "internalType": "bytes32",
              "name": "callDataHash",
              "type": "bytes32"
            },
            {
              "internalType": "bytes32",
              "name": "transactionId",
              "type": "bytes32"
            },
            {
              "internalType": "uint256",
              "name": "sendingChainId",
              "type": "uint256"
            },
            {
              "internalType": "uint256",
              "name": "receivingChainId",
              "type": "uint256"
            },
            {
              "internalType": "uint256",
              "name": "amount",
              "type": "uint256"
            },
            {
              "internalType": "uint256",
              "name": "expiry",
              "type": "uint256"
            },
            {
              "internalType": "uint256",
              "name": "preparedBlockNumber",
              "type": "uint256"
            }
          ],
          "indexed": false,
          "internalType": "struct ITransactionManager.TransactionData",
          "name": "txData",
          "type": "tuple"
        },
        {
          "indexed": false,
          "internalType": "address",
          "name": "caller",
          "type": "address"
        },
        {
          "indexed": false,
          "internalType": "bytes",
          "name": "encryptedCallData",
          "type": "bytes"
        },
        {
          "indexed": false,
          "internalType": "bytes",
          "name": "encodedBid",
          "type": "bytes"
        },
        {
          "indexed": false,
          "internalType": "bytes",
          "name": "bidSignature",
          "type": "bytes"
        }
      ],
      "name": "TransactionPrepared",
      "type": "event"
    },
    {
      "inputs": [],
      "name": "MAX_TIMEOUT",
      "outputs": [
        {
          "internalType": "uint256",
          "name": "",
          "type": "uint256"
        }
      ],
      "stateMutability": "view",
      "type": "function"
    },
    {
      "inputs": [],
      "name": "MIN_TIMEOUT",
      "outputs": [
        {
          "internalType": "uint256",
          "name": "",
          "type": "uint256"
        }
      ],
      "stateMutability": "view",
      "type": "function"
    },
    {
      "inputs": [],
      "name": "acceptProposedOwner",
      "outputs": [],
      "stateMutability": "nonpayable",
      "type": "function"
    },
    {
      "inputs": [
        {
          "internalType": "address",
          "name": "assetId",
          "type": "address"
        }
      ],
      "name": "addAssetId",
      "outputs": [],
      "stateMutability": "nonpayable",
      "type": "function"
    },
    {
      "inputs": [
        {
          "internalType": "uint256",
          "name": "amount",
          "type": "uint256"
        },
        {
          "internalType": "address",
          "name": "assetId",
          "type": "address"
        }
      ],
      "name": "addLiquidity",
      "outputs": [],
      "stateMutability": "payable",
      "type": "function"
    },
    {
      "inputs": [
        {
          "internalType": "uint256",
          "name": "amount",
          "type": "uint256"
        },
        {
          "internalType": "address",
          "name": "assetId",
          "type": "address"
        },
        {
          "internalType": "address",
          "name": "router",
          "type": "address"
        }
      ],
      "name": "addLiquidityFor",
      "outputs": [],
      "stateMutability": "payable",
      "type": "function"
    },
    {
      "inputs": [
        {
          "internalType": "address",
          "name": "router",
          "type": "address"
        }
      ],
      "name": "addRouter",
      "outputs": [],
      "stateMutability": "nonpayable",
      "type": "function"
    },
    {
      "inputs": [
        {
          "internalType": "address",
          "name": "",
          "type": "address"
        }
      ],
      "name": "approvedAssets",
      "outputs": [
        {
          "internalType": "bool",
          "name": "",
          "type": "bool"
        }
      ],
      "stateMutability": "view",
      "type": "function"
    },
    {
      "inputs": [
        {
          "internalType": "address",
          "name": "",
          "type": "address"
        }
      ],
      "name": "approvedRouters",
      "outputs": [
        {
          "internalType": "bool",
          "name": "",
          "type": "bool"
        }
      ],
      "stateMutability": "view",
      "type": "function"
    },
    {
      "inputs": [
        {
          "components": [
            {
              "internalType": "address",
              "name": "user",
              "type": "address"
            },
            {
              "internalType": "address",
              "name": "router",
              "type": "address"
            },
            {
              "internalType": "address",
              "name": "sendingAssetId",
              "type": "address"
            },
            {
              "internalType": "address",
              "name": "receivingAssetId",
              "type": "address"
            },
            {
              "internalType": "address",
              "name": "sendingChainFallback",
              "type": "address"
            },
            {
              "internalType": "address",
              "name": "receivingAddress",
              "type": "address"
            },
            {
              "internalType": "address",
              "name": "callTo",
              "type": "address"
            },
            {
              "internalType": "bytes32",
              "name": "callDataHash",
              "type": "bytes32"
            },
            {
              "internalType": "bytes32",
              "name": "transactionId",
              "type": "bytes32"
            },
            {
              "internalType": "uint256",
              "name": "sendingChainId",
              "type": "uint256"
            },
            {
              "internalType": "uint256",
              "name": "receivingChainId",
              "type": "uint256"
            },
            {
              "internalType": "uint256",
              "name": "amount",
              "type": "uint256"
            },
            {
              "internalType": "uint256",
              "name": "expiry",
              "type": "uint256"
            },
            {
              "internalType": "uint256",
              "name": "preparedBlockNumber",
              "type": "uint256"
            }
          ],
          "internalType": "struct ITransactionManager.TransactionData",
          "name": "txData",
          "type": "tuple"
        },
        {
          "internalType": "uint256",
          "name": "relayerFee",
          "type": "uint256"
        },
        {
          "internalType": "bytes",
          "name": "signature",
          "type": "bytes"
        }
      ],
      "name": "cancel",
      "outputs": [
        {
          "components": [
            {
              "internalType": "address",
              "name": "user",
              "type": "address"
            },
            {
              "internalType": "address",
              "name": "router",
              "type": "address"
            },
            {
              "internalType": "address",
              "name": "sendingAssetId",
              "type": "address"
            },
            {
              "internalType": "address",
              "name": "receivingAssetId",
              "type": "address"
            },
            {
              "internalType": "address",
              "name": "sendingChainFallback",
              "type": "address"
            },
            {
              "internalType": "address",
              "name": "receivingAddress",
              "type": "address"
            },
            {
              "internalType": "address",
              "name": "callTo",
              "type": "address"
            },
            {
              "internalType": "bytes32",
              "name": "callDataHash",
              "type": "bytes32"
            },
            {
              "internalType": "bytes32",
              "name": "transactionId",
              "type": "bytes32"
            },
            {
              "internalType": "uint256",
              "name": "sendingChainId",
              "type": "uint256"
            },
            {
              "internalType": "uint256",
              "name": "receivingChainId",
              "type": "uint256"
            },
            {
              "internalType": "uint256",
              "name": "amount",
              "type": "uint256"
            },
            {
              "internalType": "uint256",
              "name": "expiry",
              "type": "uint256"
            },
            {
              "internalType": "uint256",
              "name": "preparedBlockNumber",
              "type": "uint256"
            }
          ],
          "internalType": "struct ITransactionManager.TransactionData",
          "name": "",
          "type": "tuple"
        }
      ],
      "stateMutability": "nonpayable",
      "type": "function"
    },
    {
      "inputs": [],
      "name": "chainId",
      "outputs": [
        {
          "internalType": "uint256",
          "name": "",
          "type": "uint256"
        }
      ],
      "stateMutability": "view",
      "type": "function"
    },
    {
      "inputs": [],
      "name": "delay",
      "outputs": [
        {
          "internalType": "uint256",
          "name": "",
          "type": "uint256"
        }
      ],
      "stateMutability": "view",
      "type": "function"
    },
    {
      "inputs": [
        {
          "components": [
            {
              "internalType": "address",
              "name": "user",
              "type": "address"
            },
            {
              "internalType": "address",
              "name": "router",
              "type": "address"
            },
            {
              "internalType": "address",
              "name": "sendingAssetId",
              "type": "address"
            },
            {
              "internalType": "address",
              "name": "receivingAssetId",
              "type": "address"
            },
            {
              "internalType": "address",
              "name": "sendingChainFallback",
              "type": "address"
            },
            {
              "internalType": "address",
              "name": "receivingAddress",
              "type": "address"
            },
            {
              "internalType": "address",
              "name": "callTo",
              "type": "address"
            },
            {
              "internalType": "bytes32",
              "name": "callDataHash",
              "type": "bytes32"
            },
            {
              "internalType": "bytes32",
              "name": "transactionId",
              "type": "bytes32"
            },
            {
              "internalType": "uint256",
              "name": "sendingChainId",
              "type": "uint256"
            },
            {
              "internalType": "uint256",
              "name": "receivingChainId",
              "type": "uint256"
            },
            {
              "internalType": "uint256",
              "name": "amount",
              "type": "uint256"
            },
            {
              "internalType": "uint256",
              "name": "expiry",
              "type": "uint256"
            },
            {
              "internalType": "uint256",
              "name": "preparedBlockNumber",
              "type": "uint256"
            }
          ],
          "internalType": "struct ITransactionManager.TransactionData",
          "name": "txData",
          "type": "tuple"
        },
        {
          "internalType": "uint256",
          "name": "relayerFee",
          "type": "uint256"
        },
        {
          "internalType": "bytes",
          "name": "signature",
          "type": "bytes"
        },
        {
          "internalType": "bytes",
          "name": "callData",
          "type": "bytes"
        }
      ],
      "name": "fulfill",
      "outputs": [
        {
          "components": [
            {
              "internalType": "address",
              "name": "user",
              "type": "address"
            },
            {
              "internalType": "address",
              "name": "router",
              "type": "address"
            },
            {
              "internalType": "address",
              "name": "sendingAssetId",
              "type": "address"
            },
            {
              "internalType": "address",
              "name": "receivingAssetId",
              "type": "address"
            },
            {
              "internalType": "address",
              "name": "sendingChainFallback",
              "type": "address"
            },
            {
              "internalType": "address",
              "name": "receivingAddress",
              "type": "address"
            },
            {
              "internalType": "address",
              "name": "callTo",
              "type": "address"
            },
            {
              "internalType": "bytes32",
              "name": "callDataHash",
              "type": "bytes32"
            },
            {
              "internalType": "bytes32",
              "name": "transactionId",
              "type": "bytes32"
            },
            {
              "internalType": "uint256",
              "name": "sendingChainId",
              "type": "uint256"
            },
            {
              "internalType": "uint256",
              "name": "receivingChainId",
              "type": "uint256"
            },
            {
              "internalType": "uint256",
              "name": "amount",
              "type": "uint256"
            },
            {
              "internalType": "uint256",
              "name": "expiry",
              "type": "uint256"
            },
            {
              "internalType": "uint256",
              "name": "preparedBlockNumber",
              "type": "uint256"
            }
          ],
          "internalType": "struct ITransactionManager.TransactionData",
          "name": "",
          "type": "tuple"
        }
      ],
      "stateMutability": "nonpayable",
      "type": "function"
    },
    {
      "inputs": [],
      "name": "interpreter",
      "outputs": [
        {
          "internalType": "contract IFulfillInterpreter",
          "name": "",
          "type": "address"
        }
      ],
      "stateMutability": "view",
      "type": "function"
    },
    {
      "inputs": [],
      "name": "owner",
      "outputs": [
        {
          "internalType": "address",
          "name": "",
          "type": "address"
        }
      ],
      "stateMutability": "view",
      "type": "function"
    },
    {
      "inputs": [
        {
          "components": [
            {
              "internalType": "address",
              "name": "user",
              "type": "address"
            },
            {
              "internalType": "address",
              "name": "router",
              "type": "address"
            },
            {
              "internalType": "address",
              "name": "sendingAssetId",
              "type": "address"
            },
            {
              "internalType": "address",
              "name": "receivingAssetId",
              "type": "address"
            },
            {
              "internalType": "address",
              "name": "sendingChainFallback",
              "type": "address"
            },
            {
              "internalType": "address",
              "name": "receivingAddress",
              "type": "address"
            },
            {
              "internalType": "address",
              "name": "callTo",
              "type": "address"
            },
            {
              "internalType": "uint256",
              "name": "sendingChainId",
              "type": "uint256"
            },
            {
              "internalType": "uint256",
              "name": "receivingChainId",
              "type": "uint256"
            },
            {
              "internalType": "bytes32",
              "name": "callDataHash",
              "type": "bytes32"
            },
            {
              "internalType": "bytes32",
              "name": "transactionId",
              "type": "bytes32"
            }
          ],
          "internalType": "struct ITransactionManager.InvariantTransactionData",
          "name": "invariantData",
          "type": "tuple"
        },
        {
          "internalType": "uint256",
          "name": "amount",
          "type": "uint256"
        },
        {
          "internalType": "uint256",
          "name": "expiry",
          "type": "uint256"
        },
        {
          "internalType": "bytes",
          "name": "encryptedCallData",
          "type": "bytes"
        },
        {
          "internalType": "bytes",
          "name": "encodedBid",
          "type": "bytes"
        },
        {
          "internalType": "bytes",
          "name": "bidSignature",
          "type": "bytes"
        }
      ],
      "name": "prepare",
      "outputs": [
        {
          "components": [
            {
              "internalType": "address",
              "name": "user",
              "type": "address"
            },
            {
              "internalType": "address",
              "name": "router",
              "type": "address"
            },
            {
              "internalType": "address",
              "name": "sendingAssetId",
              "type": "address"
            },
            {
              "internalType": "address",
              "name": "receivingAssetId",
              "type": "address"
            },
            {
              "internalType": "address",
              "name": "sendingChainFallback",
              "type": "address"
            },
            {
              "internalType": "address",
              "name": "receivingAddress",
              "type": "address"
            },
            {
              "internalType": "address",
              "name": "callTo",
              "type": "address"
            },
            {
              "internalType": "bytes32",
              "name": "callDataHash",
              "type": "bytes32"
            },
            {
              "internalType": "bytes32",
              "name": "transactionId",
              "type": "bytes32"
            },
            {
              "internalType": "uint256",
              "name": "sendingChainId",
              "type": "uint256"
            },
            {
              "internalType": "uint256",
              "name": "receivingChainId",
              "type": "uint256"
            },
            {
              "internalType": "uint256",
              "name": "amount",
              "type": "uint256"
            },
            {
              "internalType": "uint256",
              "name": "expiry",
              "type": "uint256"
            },
            {
              "internalType": "uint256",
              "name": "preparedBlockNumber",
              "type": "uint256"
            }
          ],
          "internalType": "struct ITransactionManager.TransactionData",
          "name": "",
          "type": "tuple"
        }
      ],
      "stateMutability": "payable",
      "type": "function"
    },
    {
      "inputs": [
        {
          "internalType": "address",
          "name": "newlyProposed",
          "type": "address"
        }
      ],
      "name": "proposeNewOwner",
      "outputs": [],
      "stateMutability": "nonpayable",
      "type": "function"
    },
    {
      "inputs": [],
      "name": "proposed",
      "outputs": [
        {
          "internalType": "address",
          "name": "",
          "type": "address"
        }
      ],
      "stateMutability": "view",
      "type": "function"
    },
    {
      "inputs": [],
      "name": "proposedTimestamp",
      "outputs": [
        {
          "internalType": "uint256",
          "name": "",
          "type": "uint256"
        }
      ],
      "stateMutability": "view",
      "type": "function"
    },
    {
      "inputs": [
        {
          "internalType": "address",
          "name": "assetId",
          "type": "address"
        }
      ],
      "name": "removeAssetId",
      "outputs": [],
      "stateMutability": "nonpayable",
      "type": "function"
    },
    {
      "inputs": [
        {
          "internalType": "uint256",
          "name": "amount",
          "type": "uint256"
        },
        {
          "internalType": "address",
          "name": "assetId",
          "type": "address"
        },
        {
          "internalType": "address payable",
          "name": "recipient",
          "type": "address"
        }
      ],
      "name": "removeLiquidity",
      "outputs": [],
      "stateMutability": "nonpayable",
      "type": "function"
    },
    {
      "inputs": [
        {
          "internalType": "address",
          "name": "router",
          "type": "address"
        }
      ],
      "name": "removeRouter",
      "outputs": [],
      "stateMutability": "nonpayable",
      "type": "function"
    },
    {
      "inputs": [],
      "name": "renounced",
      "outputs": [
        {
          "internalType": "bool",
          "name": "",
          "type": "bool"
        }
      ],
      "stateMutability": "view",
      "type": "function"
    },
    {
      "inputs": [
        {
          "internalType": "address",
          "name": "",
          "type": "address"
        },
        {
          "internalType": "address",
          "name": "",
          "type": "address"
        }
      ],
      "name": "routerBalances",
      "outputs": [
        {
          "internalType": "uint256",
          "name": "",
          "type": "uint256"
        }
      ],
      "stateMutability": "view",
      "type": "function"
    },
    {
      "inputs": [
        {
          "internalType": "bytes32",
          "name": "",
          "type": "bytes32"
        }
      ],
      "name": "variantTransactionData",
      "outputs": [
        {
          "internalType": "bytes32",
          "name": "",
          "type": "bytes32"
        }
      ],
      "stateMutability": "view",
      "type": "function"
    }
  ],
  "transactionHash": "0x6d936db6b9cdeb59c29fe973e1fab8d11fc3f64475225c67f6958f7704347506",
  "args": [
    "3"
  ],
  "solcInputHash": "eac605eace33de95acb9002b1174531f",
  "bytecode": "0x60c06040523480156200001157600080fd5b5060405162004303380380620043038339810160408190526200003491620000fe565b600160005562000044336200009e565b608081905260405130906200005990620000f0565b6001600160a01b039091168152602001604051809103906000f08015801562000086573d6000803e3d6000fd5b5060601b6001600160601b03191660a0525062000117565b600180546001600160a01b038381166001600160a01b0319831681179093556040519116919082907f8be0079c531659141344cd1fd0a4f28419497f9722a3daafe3b4186f6b6457e090600090a35050565b610afd806200380683390190565b60006020828403121562000110578081fd5b5051919050565b60805160a05160601c61369562000171600039600081816101f501528181610a5a0152610a810152600081816103a001528181610889015281816110780152818161183e0152818161186b01526119c401526136956000f3fe6080604052600436106101665760003560e01c806397eb0088116100d1578063c95f9d0e1161008a578063de38eb3a11610064578063de38eb3a1461047d578063e070da0914610494578063f31abcc4146104a7578063fd32af2f146104c757600080fd5b8063c95f9d0e14610437578063d1851c921461044a578063d232c2201461046857600080fd5b806397eb00881461035e5780639a8a05921461038e578063b1d2618d146103c2578063b1f8100d146103e2578063b4238e8414610402578063c5b350df1461042257600080fd5b8063445b1e4b11610123578063445b1e4b14610286578063543ad1df146102c65780635e679856146102dd5780636a42b8f81461030a5780636ae0b154146103205780638da5cb5b1461034057600080fd5b806324ca984e1461016b5780632893a6121461018d57806334e9393c146101c35780633a35cf17146101e35780633cf52ffb1461022f57806341258b5c1461024e575b600080fd5b34801561017757600080fd5b5061018b610186366004612c08565b6104da565b005b34801561019957600080fd5b506101ad6101a8366004612db8565b6105fd565b6040516101ba9190613523565b60405180910390f35b3480156101cf57600080fd5b5061018b6101de366004612c08565b610bee565b3480156101ef57600080fd5b506102177f000000000000000000000000000000000000000000000000000000000000000081565b6040516001600160a01b0390911681526020016101ba565b34801561023b57600080fd5b506003545b6040519081526020016101ba565b34801561025a57600080fd5b50610240610269366004612c24565b600460209081526000928352604080842090915290825290205481565b34801561029257600080fd5b506102b66102a1366004612c08565b60056020526000908152604090205460ff1681565b60405190151581526020016101ba565b3480156102d257600080fd5b506102406201518081565b3480156102e957600080fd5b506102406102f8366004612c7c565b60076020526000908152604090205481565b34801561031657600080fd5b5062093a80610240565b34801561032c57600080fd5b5061018b61033b366004612c08565b610cc8565b34801561034c57600080fd5b506001546001600160a01b0316610217565b34801561036a57600080fd5b506102b6610379366004612c08565b60066020526000908152604090205460ff1681565b34801561039a57600080fd5b506102407f000000000000000000000000000000000000000000000000000000000000000081565b3480156103ce57600080fd5b5061018b6103dd366004612c08565b610de3565b3480156103ee57600080fd5b5061018b6103fd366004612c08565b610ebe565b34801561040e57600080fd5b506101ad61041d366004612d5c565b610f03565b34801561042e57600080fd5b5061018b6113fd565b61018b610445366004612f24565b611497565b34801561045657600080fd5b506002546001600160a01b0316610217565b34801561047457600080fd5b506102b66114a6565b34801561048957600080fd5b5061024062278d0081565b61018b6104a2366004612f48565b6114ca565b3480156104b357600080fd5b5061018b6104c2366004612f89565b6114da565b6101ad6104d5366004612c94565b611633565b336104ed6001546001600160a01b031690565b6001600160a01b03161461051c5760405162461bcd60e51b81526004016105139061327f565b60405180910390fd5b6001600160a01b03811661055c5760405162461bcd60e51b81526020600482015260076024820152662341523a30303160c81b6044820152606401610513565b6001600160a01b03811660009081526005602052604090205460ff16156105af5760405162461bcd60e51b815260206004820152600760248201526611a0a91d18199960c91b6044820152606401610513565b6001600160a01b038116600081815260056020526040808220805460ff19166001179055513392917fbc68405e644da2aaf25623ce2199da82c6dfd2e1de102b400eba6a091704d4f491a350565b610605612b25565b600260005414156106585760405162461bcd60e51b815260206004820152601f60248201527f5265656e7472616e637947756172643a207265656e7472616e742063616c6c006044820152606401610513565b6002600090815561066888611fb0565b90506106848861016001358961018001358a6101a001356120ee565b600082815260076020526040902054146106c95760405162461bcd60e51b815260206004820152600660248201526523463a30313960d01b6044820152606401610513565b4288610180013510156107075760405162461bcd60e51b8152602060048201526006602482015265023463a3032360d41b6044820152606401610513565b6000886101a00135116107455760405162461bcd60e51b815260206004820152600660248201526523463a30323160d01b6044820152606401610513565b6107526020890189612c08565b6001600160a01b031661078c8961010001358960405180604001604052806007815260200166199d5b199a5b1b60ca1b8152508a8a61213c565b6001600160a01b0316146107cb5760405162461bcd60e51b815260206004820152600660248201526511a31d18191960d11b6044820152606401610513565b8761016001358711156108095760405162461bcd60e51b815260206004820152600660248201526523463a30323360d01b6044820152606401610513565b8760e00135848460405161081e9291906131f1565b60405180910390201461085c5760405162461bcd60e51b815260206004820152600660248201526508d18e8c0c8d60d21b6044820152606401610513565b61087288610160013589610180013560006120ee565b6000828152600760205260409020556101208801357f00000000000000000000000000000000000000000000000000000000000000001415610990576108be6040890160208a01612c08565b6001600160a01b0316336001600160a01b0316146109075760405162461bcd60e51b815260206004820152600660248201526511a31d18189b60d11b6044820152606401610513565b6101608801356004600061092160408c0160208d01612c08565b6001600160a01b03166001600160a01b0316815260200190815260200160002060008a60400160208101906109569190612c08565b6001600160a01b03166001600160a01b03168152602001908152602001600020600082825461098591906135d9565b90915550610b569050565b61016088013587900387156109b9576109b96109b260808b0160608c01612c08565b338a61221a565b60006109cb60e08b0160c08c01612c08565b6001600160a01b03161415610a0e578015610a0957610a096109f360808b0160608c01612c08565b610a0360c08c0160a08d01612c08565b8361221a565b610b54565b6000610a30610a2360808c0160608d01612c08565b6001600160a01b03161590565b905080158015610a405750600082115b15610a7f57610a7f610a5860808c0160608d01612c08565b7f00000000000000000000000000000000000000000000000000000000000000008461223e565b7f00000000000000000000000000000000000000000000000000000000000000006001600160a01b031663cf9a360482610aba576000610abc565b835b8c61010001358d60c0016020810190610ad59190612c08565b8e6060016020810190610ae89190612c08565b8f60a0016020810190610afb9190612c08565b888d8d6040518963ffffffff1660e01b8152600401610b20979695949392919061321d565b6000604051808303818588803b158015610b3957600080fd5b505af1158015610b4d573d6000803e3d6000fd5b5050505050505b505b610100880135610b6c60408a0160208b01612c08565b6001600160a01b0316610b8260208b018b612c08565b6001600160a01b03167f61399d5a2a6b2505b4a43caf76fc59136a7d0c50b01c303f0aa1530289efe4f78b8b8b8b8b8b33604051610bc697969594939291906134c5565b60405180910390a4610bdd36899003890189612e44565b600160005598975050505050505050565b33610c016001546001600160a01b031690565b6001600160a01b031614610c275760405162461bcd60e51b81526004016105139061327f565b6001600160a01b03811660009081526006602052604090205460ff1615610c7a5760405162461bcd60e51b815260206004820152600760248201526611a0a09d18199960c91b6044820152606401610513565b6001600160a01b038116600081815260066020526040808220805460ff19166001179055513392917f0bb5715f0f217c2fe9a0c877ea87d474380c641102f3440ee2a4c8b9d979091891a350565b33610cdb6001546001600160a01b031690565b6001600160a01b031614610d015760405162461bcd60e51b81526004016105139061327f565b6001600160a01b038116610d415760405162461bcd60e51b81526020600482015260076024820152662352523a30303160c81b6044820152606401610513565b6001600160a01b03811660009081526005602052604090205460ff161515600114610d985760405162461bcd60e51b81526020600482015260076024820152662352523a30333360c81b6044820152606401610513565b6001600160a01b038116600081815260056020526040808220805460ff19169055513392917fbee3e974bb6a6f44f20096ede047c191eef60322e65e4ee4bd3392230a8716d591a350565b33610df66001546001600160a01b031690565b6001600160a01b031614610e1c5760405162461bcd60e51b81526004016105139061327f565b6001600160a01b03811660009081526006602052604090205460ff161515600114610e735760405162461bcd60e51b81526020600482015260076024820152662352413a30333360c81b6044820152606401610513565b6001600160a01b038116600081815260066020526040808220805460ff19169055513392917f0fa1e4606af435f32f05b3804033d2933e691fab32ee74d2db6fa82d2741f1ea91a350565b33610ed16001546001600160a01b031690565b6001600160a01b031614610ef75760405162461bcd60e51b81526004016105139061327f565b610f0081612249565b50565b610f0b612b25565b60026000541415610f5e5760405162461bcd60e51b815260206004820152601f60248201527f5265656e7472616e637947756172643a207265656e7472616e742063616c6c006044820152606401610513565b60026000908155610f6e86611fb0565b9050610f8a866101600135876101800135886101a001356120ee565b60008281526007602052604090205414610fcf5760405162461bcd60e51b815260206004820152600660248201526523433a30313960d01b6044820152606401610513565b6000866101a001351161100d5760405162461bcd60e51b815260206004820152600660248201526523433a30323160d01b6044820152606401610513565b85610160013585111561104b5760405162461bcd60e51b815260206004820152600660248201526523433a30323360d01b6044820152606401610513565b61106186610160013587610180013560006120ee565b6000828152600760205260409020556101208601357f0000000000000000000000000000000000000000000000000000000000000000141561123b574286610180013510611135576110b96040870160208801612c08565b6001600160a01b0316336001600160a01b0316146111025760405162461bcd60e51b815260206004820152600660248201526523433a30323560d01b6044820152606401610513565b6111306111156060880160408901612c08565b61112560a0890160808a01612c08565b88610160013561221a565b61136f565b8415611202576111486020870187612c08565b6001600160a01b0316336001600160a01b031614806111b3575061116f6020870187612c08565b6001600160a01b03166111a8876101000135876040518060400160405280600681526020016518d85b98d95b60d21b815250888861213c565b6001600160a01b0316145b6111e85760405162461bcd60e51b815260206004820152600660248201526511a19d18191960d11b6044820152606401610513565b6112026111fb6060880160408901612c08565b338761221a565b610160860135858103908614611235576112356112256060890160408a01612c08565b610a0360a08a0160808b01612c08565b5061136f565b42866101800135106112f4576112546020870187612c08565b6001600160a01b0316336001600160a01b031614806112bf575061127b6020870187612c08565b6001600160a01b03166112b4876101000135876040518060400160405280600681526020016518d85b98d95b60d21b815250888861213c565b6001600160a01b0316145b6112f45760405162461bcd60e51b815260206004820152600660248201526511a19d18191960d11b6044820152606401610513565b6101608601356004600061130e60408a0160208b01612c08565b6001600160a01b03168152602081019190915260400160009081209061133a60808a0160608b01612c08565b6001600160a01b03166001600160a01b03168152602001908152602001600020600082825461136991906135d9565b90915550505b6101008601356113856040880160208901612c08565b6001600160a01b031661139b6020890189612c08565b6001600160a01b03167f5f57de32eb53b76955a73b53e195e3bd70ef42f0d1d9c64d82abefdc47cc37dc8989336040516113d793929190613495565b60405180910390a46113ee36879003870187612e44565b60016000559695505050505050565b336114106001546001600160a01b031690565b6001600160a01b0316146114365760405162461bcd60e51b81526004016105139061327f565b62093a806003544261144891906135f1565b116114805760405162461bcd60e51b815260206004820152600860248201526702341504f3a3033360c41b6044820152606401610513565b600254611495906001600160a01b0316612297565b565b6114a28282336122e9565b5050565b6000806114bb6001546001600160a01b031690565b6001600160a01b031614905090565b6114d58383836122e9565b505050565b6001600160a01b03811661151a5760405162461bcd60e51b815260206004820152600760248201526623524c3a30303760c81b6044820152606401610513565b600083116115545760405162461bcd60e51b815260206004820152600760248201526611a9261d18181960c91b6044820152606401610513565b3360009081526004602090815260408083206001600160a01b0386168452909152902054838110156115b25760405162461bcd60e51b8152602060048201526007602482015266046a498746060760cb1b6044820152606401610513565b3360009081526004602090815260408083206001600160a01b0387168452909152902084820390556115e583838661221a565b604080518581526001600160a01b03848116602083015285169133917f7da12116be8cb7af4b2d9e9b4a2ca2c3a3243ddd6fd3a94411902367b8eed56891015b60405180910390a350505050565b61163b612b25565b600061164a60208c018c612c08565b6001600160a01b0316141561168a5760405162461bcd60e51b815260206004820152600660248201526523503a30303960d01b6044820152606401610513565b600061169c60408c0160208d01612c08565b6001600160a01b031614156116dc5760405162461bcd60e51b815260206004820152600660248201526523503a30303160d01b6044820152606401610513565b60006116e66114a6565b9050808061172157506005600061170360408e0160208f01612c08565b6001600160a01b0316815260208101919091526040016000205460ff165b6117565760405162461bcd60e51b815260206004820152600660248201526523503a30303360d01b6044820152606401610513565b600061176860a08d0160808e01612c08565b6001600160a01b031614156117a85760405162461bcd60e51b8152602060048201526006602482015265023503a3031360d41b6044820152606401610513565b60006117ba60c08d0160a08e01612c08565b6001600160a01b031614156117fa5760405162461bcd60e51b815260206004820152600660248201526511a81d18191b60d11b6044820152606401610513565b8a61010001358b60e00135141561183c5760405162461bcd60e51b815260206004820152600660248201526523503a30313160d01b6044820152606401610513565b7f00000000000000000000000000000000000000000000000000000000000000008b60e00135148061189257507f00000000000000000000000000000000000000000000000000000000000000008b6101000135145b6118c75760405162461bcd60e51b815260206004820152600660248201526511a81d18189960d11b6044820152606401610513565b620151806118d5428b6135f1565b101561190c5760405162461bcd60e51b815260206004820152600660248201526523503a30313360d01b6044820152606401610513565b62278d0061191a428b6135f1565b11156119515760405162461bcd60e51b815260206004820152600660248201526508d40e8c0c4d60d21b6044820152606401610513565b60008b60405160200161196491906132a0565b60408051601f19818403018152918152815160209283012060008181526007909352912054909150156119c25760405162461bcd60e51b815260206004820152600660248201526523503a30313560d01b6044820152606401610513565b7f00000000000000000000000000000000000000000000000000000000000000008c60e001351415611b5f5760008b11611a275760405162461bcd60e51b815260206004820152600660248201526511a81d18181960d11b6044820152606401610513565b8180611a635750600660008d6040016020810190611a459190612c08565b6001600160a01b0316815260208101919091526040016000205460ff165b611a985760405162461bcd60e51b815260206004820152600660248201526508d40e8c0c0d60d21b6044820152606401610513565b611aa38b8b436120ee565b6000828152600760205260409081902091909155611acb90610a239060608f01908f01612c08565b15611b0d578a3414611b085760405162461bcd60e51b815260206004820152600660248201526523503a30303560d01b6044820152606401610513565b611e07565b3415611b445760405162461bcd60e51b815260206004820152600660248201526511a81d18181b60d11b6044820152606401610513565b611b08611b5760608e0160408f01612c08565b33308e612534565b6000611b7160e08e0160c08f01612c08565b6001600160a01b03161480611b9a5750611b9a611b9460e08e0160c08f01612c08565b3b151590565b611bcf5760405162461bcd60e51b815260206004820152600660248201526523503a30333160d01b6044820152606401610513565b8180611c0b5750600660008d6060016020810190611bed9190612c08565b6001600160a01b0316815260208101919091526040016000205460ff165b611c405760405162461bcd60e51b815260206004820152600660248201526508d40e8c0c0d60d21b6044820152606401610513565b611c5060408d0160208e01612c08565b6001600160a01b0316336001600160a01b031614611c995760405162461bcd60e51b815260206004820152600660248201526511a81d18189b60d11b6044820152606401610513565b3415611cd05760405162461bcd60e51b815260206004820152600660248201526523503a30313760d01b6044820152606401610513565b6000600460008e6020016020810190611ce99190612c08565b6001600160a01b03166001600160a01b0316815260200190815260200160002060008e6060016020810190611d1e9190612c08565b6001600160a01b03166001600160a01b031681526020019081526020016000205490508b811015611d7a5760405162461bcd60e51b8152602060048201526006602482015265046a0746062760d31b6044820152606401610513565b611d858c8c436120ee565b60076000848152602001908152602001600020819055508b8103600460008f6020016020810190611db69190612c08565b6001600160a01b03166001600160a01b0316815260200190815260200160002060008f6060016020810190611deb9190612c08565b6001600160a01b03168152602081019190915260400160002055505b6000604051806101c001604052808e6000016020810190611e289190612c08565b6001600160a01b031681526020018e6020016020810190611e499190612c08565b6001600160a01b031681526020018e6040016020810190611e6a9190612c08565b6001600160a01b031681526020018e6060016020810190611e8b9190612c08565b6001600160a01b031681526020018e6080016020810190611eac9190612c08565b6001600160a01b031681526020018e60a0016020810190611ecd9190612c08565b6001600160a01b031681526020018e60c0016020810190611eee9190612c08565b6001600160a01b031681526020018e610120013581526020018e610140013581526020018e60e0013581526020018e610100013581526020018d81526020018c815260200143815250905080610100015181602001516001600160a01b031682600001516001600160a01b03167f9a03967017bba72d6de8f56201584e10828c701f72d0da5705a5b42e73d875ab84338f8f8f8f8f8f604051611f98989796959493929190613532565b60405180910390a49c9b505050505050505050505050565b604080516101608101909152600090819080611fcf6020860186612c08565b6001600160a01b03168152602001846020016020810190611ff09190612c08565b6001600160a01b0316815260200161200e6060860160408701612c08565b6001600160a01b0316815260200161202c6080860160608701612c08565b6001600160a01b0316815260200161204a60a0860160808701612c08565b6001600160a01b0316815260200161206860c0860160a08701612c08565b6001600160a01b0316815260200161208660e0860160c08701612c08565b6001600160a01b03168152602001846101200135815260200184610140013581526020018460e0013581526020018461010001358152509050806040516020016120d09190613380565b60405160208183030381529060405280519060200120915050919050565b604080516060808201835285825260208083018681529284018581528451808301899052935184860152518383015283518084039092018252608090920190925281519101205b9392505050565b600080604051806060016040528088815260200187815260200186815250905061220f6121d3826040516020016121739190613466565b60408051601f1981840301815282825280516020918201207f19457468657265756d205369676e6564204d6573736167653a0a33320000000084830152603c8085019190915282518085039091018152605c909301909152815191012090565b85858080601f01602080910402602001604051908101604052809392919081815260200183838082843760009201919091525061254692505050565b979650505050505050565b6001600160a01b03831615612234576114d583838361223e565b6114d582826125f0565b6114d583838361267d565b42600355600280546001600160a01b0319166001600160a01b0383169081179091556040517f6ab4d119f23076e8ad491bc65ce85f017fb0591dce08755ba8591059cc51737a90600090a250565b600180546001600160a01b038381166001600160a01b0319831681179093556040519116919082907f8be0079c531659141344cd1fd0a4f28419497f9722a3daafe3b4186f6b6457e090600090a35050565b6001600160a01b0381166123295760405162461bcd60e51b815260206004820152600760248201526623414c3a30303160c81b6044820152606401610513565b600083116123635760405162461bcd60e51b815260206004820152600760248201526611a0a61d18181960c91b6044820152606401610513565b600061236d6114a6565b9050808061239357506001600160a01b03821660009081526005602052604090205460ff165b6123c95760405162461bcd60e51b815260206004820152600760248201526623414c3a30303360c81b6044820152606401610513565b80806123ed57506001600160a01b03831660009081526006602052604090205460ff165b6124235760405162461bcd60e51b815260206004820152600760248201526608d0530e8c0c0d60ca1b6044820152606401610513565b6001600160a01b0380831660009081526004602090815260408083209387168352929052908120805486929061245a9084906135d9565b90915550506001600160a01b0383166124ab578334146124a65760405162461bcd60e51b815260206004820152600760248201526623414c3a30303560c81b6044820152606401610513565b6124ef565b34156124e35760405162461bcd60e51b815260206004820152600760248201526611a0a61d18181b60c91b6044820152606401610513565b6124ef83333087612534565b604080518581523360208201526001600160a01b0380861692908516917f4bd28ccd068c4853d24d35f727ef2a3fea11ce55e8d93461e45f785818e1e1399101611625565b612540848484846126e0565b50505050565b600081516041141561257a5760208201516040830151606084015160001a61257086828585612718565b93505050506125ea565b8151604014156125a257602082015160408301516125998583836128c1565b925050506125ea565b60405162461bcd60e51b815260206004820152601f60248201527f45434453413a20696e76616c6964207369676e6174757265206c656e677468006044820152606401610513565b92915050565b6000826001600160a01b03168260405160006040518083038185875af1925050503d806000811461263d576040519150601f19603f3d011682016040523d82523d6000602084013e612642565b606091505b50509050806114d55760405162461bcd60e51b8152602060048201526007602482015266046a88a746064760cb1b6044820152606401610513565b6040516001600160a01b0383166024820152604481018290526114d590849063a9059cbb60e01b906064015b60408051601f198184030181529190526020810180516001600160e01b03166001600160e01b0319909316929092179091526128eb565b6040516001600160a01b03808516602483015283166044820152606481018290526125409085906323b872dd60e01b906084016126a9565b60007f7fffffffffffffffffffffffffffffff5d576e7357a4501ddfe92f46681b20a08211156127955760405162461bcd60e51b815260206004820152602260248201527f45434453413a20696e76616c6964207369676e6174757265202773272076616c604482015261756560f01b6064820152608401610513565b8360ff16601b14806127aa57508360ff16601c145b6128015760405162461bcd60e51b815260206004820152602260248201527f45434453413a20696e76616c6964207369676e6174757265202776272076616c604482015261756560f01b6064820152608401610513565b6040805160008082526020820180845288905260ff871692820192909252606081018590526080810184905260019060a0016020604051602081039080840390855afa158015612855573d6000803e3d6000fd5b5050604051601f1901519150506001600160a01b0381166128b85760405162461bcd60e51b815260206004820152601860248201527f45434453413a20696e76616c6964207369676e617475726500000000000000006044820152606401610513565b95945050505050565b60006001600160ff1b03821660ff83901c601b016128e186828785612718565b9695505050505050565b6000612940826040518060400160405280602081526020017f5361666545524332303a206c6f772d6c6576656c2063616c6c206661696c6564815250856001600160a01b03166129bd9092919063ffffffff16565b8051909150156114d5578080602001905181019061295e9190612c5c565b6114d55760405162461bcd60e51b815260206004820152602a60248201527f5361666545524332303a204552433230206f7065726174696f6e20646964206e6044820152691bdd081cdd58d8d9595960b21b6064820152608401610513565b60606129cc84846000856129d4565b949350505050565b606082471015612a355760405162461bcd60e51b815260206004820152602660248201527f416464726573733a20696e73756666696369656e742062616c616e636520666f6044820152651c8818d85b1b60d21b6064820152608401610513565b843b612a835760405162461bcd60e51b815260206004820152601d60248201527f416464726573733a2063616c6c20746f206e6f6e2d636f6e74726163740000006044820152606401610513565b600080866001600160a01b03168587604051612a9f9190613201565b60006040518083038185875af1925050503d8060008114612adc576040519150601f19603f3d011682016040523d82523d6000602084013e612ae1565b606091505b509150915061220f82828660608315612afb575081612135565b825115612b0b5782518084602001fd5b8160405162461bcd60e51b8152600401610513919061326c565b604080516101c081018252600080825260208201819052918101829052606081018290526080810182905260a0810182905260c0810182905260e08101829052610100810182905261012081018290526101408101829052610160810182905261018081018290526101a081019190915290565b8035612ba48161364a565b919050565b60008083601f840112612bba578182fd5b50813567ffffffffffffffff811115612bd1578182fd5b602083019150836020828501011115612be957600080fd5b9250929050565b60006101c08284031215612c02578081fd5b50919050565b600060208284031215612c19578081fd5b81356121358161364a565b60008060408385031215612c36578081fd5b8235612c418161364a565b91506020830135612c518161364a565b809150509250929050565b600060208284031215612c6d578081fd5b81518015158114612135578182fd5b600060208284031215612c8d578081fd5b5035919050565b6000806000806000806000806000898b03610200811215612cb3578586fd5b61016080821215612cc2578687fd5b8b9a508a013598505061018089013596506101a089013567ffffffffffffffff80821115612cee578687fd5b612cfa8d838e01612ba9565b90985096506101c08c0135915080821115612d13578586fd5b612d1f8d838e01612ba9565b90965094506101e08c0135915080821115612d38578384fd5b50612d458c828d01612ba9565b915080935050809150509295985092959850929598565b6000806000806102008587031215612d72578384fd5b612d7c8686612bf0565b93506101c085013592506101e085013567ffffffffffffffff811115612da0578283fd5b612dac87828801612ba9565b95989497509550505050565b6000806000806000806102208789031215612dd1578182fd5b612ddb8888612bf0565b95506101c087013594506101e087013567ffffffffffffffff80821115612e00578384fd5b612e0c8a838b01612ba9565b9096509450610200890135915080821115612e25578384fd5b50612e3289828a01612ba9565b979a9699509497509295939492505050565b60006101c08284031215612e56578081fd5b612e5e6135a1565b612e6783612b99565b8152612e7560208401612b99565b6020820152612e8660408401612b99565b6040820152612e9760608401612b99565b6060820152612ea860808401612b99565b6080820152612eb960a08401612b99565b60a0820152612eca60c08401612b99565b60c082015260e08381013590820152610100808401359082015261012080840135908201526101408084013590820152610160808401359082015261018080840135908201526101a0928301359281019290925250919050565b60008060408385031215612f36578182fd5b823591506020830135612c518161364a565b600080600060608486031215612f5c578283fd5b833592506020840135612f6e8161364a565b91506040840135612f7e8161364a565b809150509250925092565b600080600060608486031215612f5c578081fd5b81835281816020850137506000828201602090810191909152601f909101601f19169091010190565b60008151808452612fde816020860160208601613608565b601f01601f19169290920160200192915050565b61300c82612fff83612b99565b6001600160a01b03169052565b61301860208201612b99565b6001600160a01b0316602083015261303260408201612b99565b6001600160a01b0316604083015261304c60608201612b99565b6001600160a01b0316606083015261306660808201612b99565b6001600160a01b0316608083015261308060a08201612b99565b6001600160a01b031660a083015261309a60c08201612b99565b6001600160a01b031660c083015260e08181013590830152610100808201359083015261012080820135908301526101408082013590830152610160808201359083015261018080820135908301526101a090810135910152565b80516001600160a01b03168252602081015161311c60208401826001600160a01b03169052565b50604081015161313760408401826001600160a01b03169052565b50606081015161315260608401826001600160a01b03169052565b50608081015161316d60808401826001600160a01b03169052565b5060a081015161318860a08401826001600160a01b03169052565b5060c08101516131a360c08401826001600160a01b03169052565b5060e08181015190830152610100808201519083015261012080820151908301526101408082015190830152610160808201519083015261018080820151908301526101a090810151910152565b8183823760009101908152919050565b60008251613213818460208701613608565b9190910192915050565b8781526001600160a01b0387811660208301528681166040830152851660608201526080810184905260c060a0820181905260009061325f9083018486612f9d565b9998505050505050505050565b6020815260006121356020830184612fc6565b602080825260079082015266234f4f3a30323960c81b604082015260600190565b61016081016132b282612fff85612b99565b6132be60208401612b99565b6001600160a01b031660208301526132d860408401612b99565b6001600160a01b031660408301526132f260608401612b99565b6001600160a01b0316606083015261330c60808401612b99565b6001600160a01b0316608083015261332660a08401612b99565b6001600160a01b031660a083015261334060c08401612b99565b6001600160a01b031660c083015260e083810135908301526101008084013590830152610120808401359083015261014092830135929091019190915290565b81516001600160a01b03168152610160810160208301516133ac60208401826001600160a01b03169052565b5060408301516133c760408401826001600160a01b03169052565b5060608301516133e260608401826001600160a01b03169052565b5060808301516133fd60808401826001600160a01b03169052565b5060a083015161341860a08401826001600160a01b03169052565b5060c083015161343360c08401826001600160a01b03169052565b5060e083810151908301526101008084015190830152610120808401519083015261014092830151929091019190915290565b602081528151602082015260208201516040820152600060408301516060808401526129cc6080840182612fc6565b61020081016134a48286612ff2565b6101c08201939093526001600160a01b03919091166101e090910152919050565b60006102406134d4838b612ff2565b886101c0840152806101e08401526134ef818401888a612f9d565b9050828103610200840152613505818688612f9d565b91505060018060a01b03831661022083015298975050505050505050565b6101c081016125ea82846130f5565b6000610240613541838c6130f5565b6001600160a01b038a166101c08401526101e08301819052613566818401898b612f9d565b905082810361020084015261357c818789612f9d565b9050828103610220840152613592818587612f9d565b9b9a5050505050505050505050565b6040516101c0810167ffffffffffffffff811182821017156135d357634e487b7160e01b600052604160045260246000fd5b60405290565b600082198211156135ec576135ec613634565b500190565b60008282101561360357613603613634565b500390565b60005b8381101561362357818101518382015260200161360b565b838111156125405750506000910152565b634e487b7160e01b600052601160045260246000fd5b6001600160a01b0381168114610f0057600080fdfea264697066735822122090aaeb9eba11569d13117b998b29f4da5045c4faeb28fbfb88ff20965e86dac964736f6c6343000804003360a060405234801561001057600080fd5b50604051610afd380380610afd83398101604081905261002f91610049565b600160005560601b6001600160601b031916608052610077565b60006020828403121561005a578081fd5b81516001600160a01b0381168114610070578182fd5b9392505050565b60805160601c610a6361009a60003960008181603d015260980152610a636000f3fe6080604052600436106100295760003560e01c806396f32fb81461002e578063cf9a360414610078575b600080fd5b34801561003a57600080fd5b507f00000000000000000000000000000000000000000000000000000000000000006040516001600160a01b03909116815260200160405180910390f35b61008b61008636600461080d565b61008d565b005b336001600160a01b037f000000000000000000000000000000000000000000000000000000000000000016146100f55760405162461bcd60e51b8152602060048201526008602482015267234f544d3a30323760c01b60448201526064015b60405180910390fd5b6001600160a01b0385161580610110576101108688866101fe565b60006060883b1561018c57886001600160a01b031683610131576000610133565b865b868660405161014392919061090a565b60006040518083038185875af1925050503d8060008114610180576040519150601f19603f3d011682016040523d82523d6000602084013e610185565b606091505b5090925090505b816101ac5761019c88888861024e565b826101ac576101ac888a88610272565b897fbf49bd2de448d90a19e0510ab1030fead50ebfc64a4f112ca42535ae79fbab798a8a8a8a8a8a888a6040516101ea989796959493929190610936565b60405180910390a250505050505050505050565b6001600160a01b03831661023e5760405162461bcd60e51b815260206004820152600760248201526608d2504e8c0ccd60ca1b60448201526064016100ec565b6102498383836102bd565b505050565b6001600160a01b03831615610268576102498383836103b7565b61024982826103c2565b6001600160a01b0383166102b25760405162461bcd60e51b815260206004820152600760248201526608d1104e8c0ccd60ca1b60448201526064016100ec565b61024983838361044f565b604051636eb1769f60e11b81523060048201526001600160a01b038381166024830152600091839186169063dd62ed3e9060440160206040518083038186803b15801561030957600080fd5b505afa15801561031d573d6000803e3d6000fd5b505050506040513d601f19601f8201168201806040525081019061034191906108c6565b61034b91906109c5565b6040516001600160a01b0385166024820152604481018290529091506103b190859063095ea7b360e01b906064015b60408051601f198184030181529190526020810180516001600160e01b03166001600160e01b031990931692909217909152610571565b50505050565b610249838383610643565b6000826001600160a01b03168260405160006040518083038185875af1925050503d806000811461040f576040519150601f19603f3d011682016040523d82523d6000602084013e610414565b606091505b50509050806102495760405162461bcd60e51b8152602060048201526007602482015266046a88a746064760cb1b60448201526064016100ec565b604051636eb1769f60e11b81523060048201526001600160a01b0383811660248301526000919085169063dd62ed3e9060440160206040518083038186803b15801561049a57600080fd5b505afa1580156104ae573d6000803e3d6000fd5b505050506040513d601f19601f820116820180604052508101906104d291906108c6565b9050818110156105365760405162461bcd60e51b815260206004820152602960248201527f5361666545524332303a2064656372656173656420616c6c6f77616e63652062604482015268656c6f77207a65726f60b81b60648201526084016100ec565b6040516001600160a01b0384166024820152828203604482018190529061056a90869063095ea7b360e01b9060640161037a565b5050505050565b60006105c6826040518060400160405280602081526020017f5361666545524332303a206c6f772d6c6576656c2063616c6c206661696c6564815250856001600160a01b03166106739092919063ffffffff16565b80519091501561024957808060200190518101906105e491906107ed565b6102495760405162461bcd60e51b815260206004820152602a60248201527f5361666545524332303a204552433230206f7065726174696f6e20646964206e6044820152691bdd081cdd58d8d9595960b21b60648201526084016100ec565b6040516001600160a01b03831660248201526044810182905261024990849063a9059cbb60e01b9060640161037a565b6060610682848460008561068c565b90505b9392505050565b6060824710156106ed5760405162461bcd60e51b815260206004820152602660248201527f416464726573733a20696e73756666696369656e742062616c616e636520666f6044820152651c8818d85b1b60d21b60648201526084016100ec565b843b61073b5760405162461bcd60e51b815260206004820152601d60248201527f416464726573733a2063616c6c20746f206e6f6e2d636f6e747261637400000060448201526064016100ec565b600080866001600160a01b03168587604051610757919061091a565b60006040518083038185875af1925050503d8060008114610794576040519150601f19603f3d011682016040523d82523d6000602084013e610799565b606091505b50915091506107a98282866107b4565b979650505050505050565b606083156107c3575081610685565b8251156107d35782518084602001fd5b8160405162461bcd60e51b81526004016100ec91906109b2565b6000602082840312156107fe578081fd5b81518015158114610685578182fd5b600080600080600080600060c0888a031215610827578283fd5b87359650602088013561083981610a15565b9550604088013561084981610a15565b9450606088013561085981610a15565b93506080880135925060a088013567ffffffffffffffff8082111561087c578384fd5b818a0191508a601f83011261088f578384fd5b81358181111561089d578485fd5b8b60208285010111156108ae578485fd5b60208301945080935050505092959891949750929550565b6000602082840312156108d7578081fd5b5051919050565b600081518084526108f68160208601602086016109e9565b601f01601f19169290920160200192915050565b8183823760009101908152919050565b6000825161092c8184602087016109e9565b9190910192915050565b6001600160a01b0389811682528881166020830152871660408201526060810186905260e0608082018190528101849052600061010085878285013781818785010152601f19601f8701168301818482030160a0850152610999828201876108de565b9250505082151560c08301529998505050505050505050565b60208152600061068560208301846108de565b600082198211156109e457634e487b7160e01b81526011600452602481fd5b500190565b60005b83811015610a045781810151838201526020016109ec565b838111156103b15750506000910152565b6001600160a01b0381168114610a2a57600080fd5b5056fea264697066735822122052ff6662af8f185627da63635ccad13496e1e8c7ad49db09b904830a642db98564736f6c63430008040033",
  "devdoc": {
    "author": "Connext <support@connext.network>",
    "kind": "dev",
    "methods": {
      "addAssetId(address)": {
        "params": {
          "assetId": "AssetId to add"
        }
      },
      "addLiquidity(uint256,address)": {
        "params": {
          "amount": "The amount of liquidity to add for the router",
          "assetId": "The address (or `address(0)` if native asset) of the                asset you're adding liquidity for"
        }
      },
      "addLiquidityFor(uint256,address,address)": {
        "params": {
          "amount": "The amount of liquidity to add for the router",
          "assetId": "The address (or `address(0)` if native asset) of the                asset you're adding liquidity for",
          "router": "The router you are adding liquidity on behalf of"
        }
      },
      "addRouter(address)": {
        "params": {
          "router": "Router address to add"
        }
      },
      "cancel((address,address,address,address,address,address,address,bytes32,bytes32,uint256,uint256,uint256,uint256,uint256),uint256,bytes)": {
        "params": {
          "relayerFee": "The fee that should go to the relayer when they are                   calling the function for the user",
          "signature": "The user's signature that allows a transaction to be                  cancelled on the receiving chain.",
          "txData": "All of the data (invariant and variant) for a crosschain               transaction. The variant data provided is checked against               what was stored when the `prepare` function was called."
        }
      },
      "fulfill((address,address,address,address,address,address,address,bytes32,bytes32,uint256,uint256,uint256,uint256,uint256),uint256,bytes,bytes)": {
        "params": {
          "callData": "The calldata to be sent to and executed by the                  `FulfillHelper`",
          "relayerFee": "The fee that should go to the relayer when they are                   calling the function on the receiving chain for the user",
          "signature": "The users signature on the invariant data + fee that                  can be used by the router to unlock the transaction on                   the sending chain",
          "txData": "All of the data (invariant and variant) for a crosschain               transaction. The variant data provided is checked against               what was stored when the `prepare` function was called."
        }
      },
      "prepare((address,address,address,address,address,address,address,uint256,uint256,bytes32,bytes32),uint256,uint256,bytes,bytes,bytes)": {
        "params": {
          "amount": "The amount of the transaction on this chain",
          "bidSignature": "The signature of the bidder on the encoded bid for                     this transaction. Only used within the function for                     event emission. The validity of the bid and                     bidSignature are enforced offchain",
          "encodedBid": "The encoded bid that was accepted by the user for this                   crosschain transfer. It is supplied as a param to the                   function but is only used in event emission",
          "encryptedCallData": "The calldata to be executed when the tx is                          fulfilled. Used in the function to allow the user                          to reconstruct the tx from events. Hash is stored                          onchain to prevent shenanigans.",
          "expiry": "The block.timestamp when the transaction will no longer be               fulfillable and is freely cancellable on this chain",
          "invariantData": "The data for a crosschain transaction that will                      not change between sending and receiving chains.                      The hash of this data is used as the key to store                       the inforamtion that does change between chains                       (amount, expiry,preparedBlock) for verification"
        }
      },
      "removeAssetId(address)": {
        "params": {
          "assetId": "AssetId to remove"
        }
      },
      "removeLiquidity(uint256,address,address)": {
        "params": {
          "amount": "The amount of liquidity to remove for the router",
          "assetId": "The address (or `address(0)` if native asset) of the                asset you're removing liquidity for",
          "recipient": "The address that will receive the liquidity being removed"
        }
      },
      "removeRouter(address)": {
        "params": {
          "router": "Router address to remove"
        }
      }
    },
    "stateVariables": {
      "MAX_TIMEOUT": {
        "details": "Maximum timeout"
      },
      "MIN_TIMEOUT": {
        "details": "Minimum timeout (will be the lowest on the receiving chain)"
      },
      "approvedAssets": {
        "details": "Mapping of allowed assetIds on same chain of contract"
      },
      "approvedRouters": {
        "details": "Mapping of allowed router addresses"
      },
      "chainId": {
        "details": "The chain id of the contract, is passed in to avoid any evm issues"
      },
      "routerBalances": {
        "details": "Mapping of router to balance specific to asset"
      },
      "variantTransactionData": {
        "details": "Mapping of hash of `InvariantTransactionData` to the hash"
      }
    },
    "title": "TransactionManager",
    "version": 1
  },
  "userdoc": {
    "kind": "user",
    "methods": {
      "acceptProposedOwner()": {
        "notice": "Transfers ownership of the contract to a new account (`newOwner`). Can only be called by the current owner."
      },
      "addAssetId(address)": {
        "notice": "Used to add assets on same chain as contract that can         be transferred."
      },
      "addLiquidity(uint256,address)": {
        "notice": "This is used by any router to increase their available         liquidity for a given asset."
      },
      "addLiquidityFor(uint256,address,address)": {
        "notice": "This is used by any one to increase the available         liquidity for a given asset on behalf of a router"
      },
      "addRouter(address)": {
        "notice": "Used to add routers that can transact crosschain"
      },
      "cancel((address,address,address,address,address,address,address,bytes32,bytes32,uint256,uint256,uint256,uint256,uint256),uint256,bytes)": {
        "notice": "Any crosschain transaction can be cancelled after it has been         created to prevent indefinite lock up of funds. After the         transaction has expired, anyone can cancel it. Before the         expiry, only the recipient of the funds on the given chain is         able to cancel. On the sending chain, this means only the router         is able to cancel before the expiry, while only the user can         prematurely cancel on the receiving chain."
      },
      "delay()": {
        "notice": "Returns the delay period before a new owner can be accepted."
      },
      "fulfill((address,address,address,address,address,address,address,bytes32,bytes32,uint256,uint256,uint256,uint256,uint256),uint256,bytes,bytes)": {
        "notice": "This function completes a crosschain transaction. When called on         the receiving chain, the user reveals their signature on the         invariant parts of the transaction data and is sent the          appropriate amount. The router then uses this signature to         unlock the corresponding funds on the receiving chain, which are         then added back to their available liquidity. The user includes a         relayer fee since it is not assumed they will have gas on the         receiving chain. This function *must* be called before the         transaction expiry has elapsed."
      },
      "owner()": {
        "notice": "Returns the address of the current owner."
      },
      "prepare((address,address,address,address,address,address,address,uint256,uint256,bytes32,bytes32),uint256,uint256,bytes,bytes,bytes)": {
        "notice": "This function creates a crosschain transaction. When called on         the sending chain, the user is expected to lock up funds. When         called on the receiving chain, the router deducts the transfer         amount from the available liquidity. The majority of the         information about a given transfer does not change between chains,         with three notable exceptions: `amount`, `expiry`, and          `preparedBlock`. The `amount` and `expiry` are decremented         between sending and receiving chains to provide an incentive for          the router to complete the transaction and time for the router to         fulfill the transaction on the sending chain after the unlocking         signature is revealed, respectively."
      },
      "proposeNewOwner(address)": {
        "notice": "Sets the timestamp for an owner to be proposed, and sets the newly proposed owner as step 1 in a 2-step process"
      },
      "proposed()": {
        "notice": "Returns the address of the proposed owner."
      },
      "proposedTimestamp()": {
        "notice": "Returns the address of the proposed owner."
      },
      "removeAssetId(address)": {
        "notice": "Used to remove assets on same chain as contract that can         be transferred."
      },
      "removeLiquidity(uint256,address,address)": {
        "notice": "This is used by any router to decrease their available         liquidity for a given asset."
      },
      "removeRouter(address)": {
        "notice": "Used to remove routers that can transact crosschain"
      },
      "renounced()": {
        "notice": "Indicates if the ownership has been renounced() by         checking if current owner is address(0)"
      }
    },
    "notice": "This contract holds the logic to facilitate crosschain transactions.         Transactions go through three phases:         1. Route Auction: User broadcasts to our network signalling their          desired route. Routers respond with sealed bids containing          commitments to fulfilling the transaction within a certain time and          price range.         2. Prepare: Once the auction is completed, the transaction can be          prepared. The user submits a transaction to `TransactionManager`          contract on sender-side chain containing router's signed bid. This          transaction locks up the users funds on the sending chiain. Upon          detecting an event containing their signed bid from the chain,          router submits the same transaction to `TransactionManager` on the          receiver-side chain, and locks up a corresponding amount of          liquidity. The amount locked on the receiving chain is `sending          amount - auction fee` so the router is incentivized to complete the          transaction.         3. Fulfill: Upon detecting the `TransactionPrepared` event on the          receiver-side chain, the user signs a message and sends it to a          relayer, who will earn a fee for submission. The relayer (which may          be the router) then submits the message to the `TransactionManager`          to complete their transaction on receiver-side chain and claim the          funds locked by the router. A relayer is used here to allow users          to submit transactions with arbitrary calldata on the receiving          chain without needing gas to do so. The router then submits the          same signed message and completes transaction on sender-side,          unlocking the original `amount`.         If a transaction is not fulfilled within a fixed timeout, it          reverts and can be reclaimed by the party that called `prepare` on          each chain (initiator). Additionally, transactions can be cancelled          unilaterally by the person owed funds on that chain (router for          sending chain, user for receiving chain) prior to expiry.",
    "version": 1
  },
  "storageLayout": {
    "storage": [
      {
        "astId": 114,
        "contract": "contracts/TransactionManager.sol:TransactionManager",
        "label": "_status",
        "offset": 0,
        "slot": "0",
        "type": "t_uint256"
      },
      {
        "astId": 1521,
        "contract": "contracts/TransactionManager.sol:TransactionManager",
        "label": "_owner",
        "offset": 0,
        "slot": "1",
        "type": "t_address"
      },
      {
        "astId": 1523,
        "contract": "contracts/TransactionManager.sol:TransactionManager",
        "label": "_proposed",
        "offset": 0,
        "slot": "2",
        "type": "t_address"
      },
      {
        "astId": 1525,
        "contract": "contracts/TransactionManager.sol:TransactionManager",
        "label": "_proposedTimestamp",
        "offset": 0,
        "slot": "3",
        "type": "t_uint256"
      },
      {
        "astId": 1696,
        "contract": "contracts/TransactionManager.sol:TransactionManager",
        "label": "routerBalances",
        "offset": 0,
        "slot": "4",
        "type": "t_mapping(t_address,t_mapping(t_address,t_uint256))"
      },
      {
        "astId": 1701,
        "contract": "contracts/TransactionManager.sol:TransactionManager",
        "label": "approvedRouters",
        "offset": 0,
        "slot": "5",
        "type": "t_mapping(t_address,t_bool)"
      },
      {
        "astId": 1706,
        "contract": "contracts/TransactionManager.sol:TransactionManager",
        "label": "approvedAssets",
        "offset": 0,
        "slot": "6",
        "type": "t_mapping(t_address,t_bool)"
      },
      {
        "astId": 1711,
        "contract": "contracts/TransactionManager.sol:TransactionManager",
        "label": "variantTransactionData",
        "offset": 0,
        "slot": "7",
        "type": "t_mapping(t_bytes32,t_bytes32)"
      }
    ],
    "types": {
      "t_address": {
        "encoding": "inplace",
        "label": "address",
        "numberOfBytes": "20"
      },
      "t_bool": {
        "encoding": "inplace",
        "label": "bool",
        "numberOfBytes": "1"
      },
      "t_bytes32": {
        "encoding": "inplace",
        "label": "bytes32",
        "numberOfBytes": "32"
      },
      "t_mapping(t_address,t_bool)": {
        "encoding": "mapping",
        "key": "t_address",
        "label": "mapping(address => bool)",
        "numberOfBytes": "32",
        "value": "t_bool"
      },
      "t_mapping(t_address,t_mapping(t_address,t_uint256))": {
        "encoding": "mapping",
        "key": "t_address",
        "label": "mapping(address => mapping(address => uint256))",
        "numberOfBytes": "32",
        "value": "t_mapping(t_address,t_uint256)"
      },
      "t_mapping(t_address,t_uint256)": {
        "encoding": "mapping",
        "key": "t_address",
        "label": "mapping(address => uint256)",
        "numberOfBytes": "32",
        "value": "t_uint256"
      },
      "t_mapping(t_bytes32,t_bytes32)": {
        "encoding": "mapping",
        "key": "t_bytes32",
        "label": "mapping(bytes32 => bytes32)",
        "numberOfBytes": "32",
        "value": "t_bytes32"
      },
      "t_uint256": {
        "encoding": "inplace",
        "label": "uint256",
        "numberOfBytes": "32"
      }
    }
  }
}