{
  "address": "0xcE5E0D6870594F4923322D1771CF9606C2f1dB7e",
  "abi": [
    {
      "inputs": [
        {
          "internalType": "uint256",
          "name": "_chainId",
          "type": "uint256"
        }
      ],
      "stateMutability": "nonpayable",
      "type": "constructor"
    },
    {
      "anonymous": false,
      "inputs": [
        {
          "indexed": true,
          "internalType": "address",
          "name": "addedAssetId",
          "type": "address"
        },
        {
          "indexed": true,
          "internalType": "address",
          "name": "caller",
          "type": "address"
        }
      ],
      "name": "AssetAdded",
      "type": "event"
    },
    {
      "anonymous": false,
      "inputs": [
        {
          "indexed": false,
          "internalType": "bool",
          "name": "renounced",
          "type": "bool"
        }
      ],
      "name": "AssetOwnershipRenounced",
      "type": "event"
    },
    {
      "anonymous": false,
      "inputs": [
        {
          "indexed": false,
          "internalType": "uint256",
          "name": "timestamp",
          "type": "uint256"
        }
      ],
      "name": "AssetOwnershipRenunciationProposed",
      "type": "event"
    },
    {
      "anonymous": false,
      "inputs": [
        {
          "indexed": true,
          "internalType": "address",
          "name": "removedAssetId",
          "type": "address"
        },
        {
          "indexed": true,
          "internalType": "address",
          "name": "caller",
          "type": "address"
        }
      ],
      "name": "AssetRemoved",
      "type": "event"
    },
    {
      "anonymous": false,
      "inputs": [
        {
          "indexed": true,
          "internalType": "address",
          "name": "router",
          "type": "address"
        },
        {
          "indexed": true,
          "internalType": "address",
          "name": "assetId",
          "type": "address"
        },
        {
          "indexed": false,
          "internalType": "uint256",
          "name": "amount",
          "type": "uint256"
        },
        {
          "indexed": false,
          "internalType": "address",
          "name": "caller",
          "type": "address"
        }
      ],
      "name": "LiquidityAdded",
      "type": "event"
    },
    {
      "anonymous": false,
      "inputs": [
        {
          "indexed": true,
          "internalType": "address",
          "name": "router",
          "type": "address"
        },
        {
          "indexed": true,
          "internalType": "address",
          "name": "assetId",
          "type": "address"
        },
        {
          "indexed": false,
          "internalType": "uint256",
          "name": "amount",
          "type": "uint256"
        },
        {
          "indexed": false,
          "internalType": "address",
          "name": "recipient",
          "type": "address"
        }
      ],
      "name": "LiquidityRemoved",
      "type": "event"
    },
    {
      "anonymous": false,
      "inputs": [
        {
          "indexed": true,
          "internalType": "address",
          "name": "proposedOwner",
          "type": "address"
        }
      ],
      "name": "OwnershipProposed",
      "type": "event"
    },
    {
      "anonymous": false,
      "inputs": [
        {
          "indexed": true,
          "internalType": "address",
          "name": "previousOwner",
          "type": "address"
        },
        {
          "indexed": true,
          "internalType": "address",
          "name": "newOwner",
          "type": "address"
        }
      ],
      "name": "OwnershipTransferred",
      "type": "event"
    },
    {
      "anonymous": false,
      "inputs": [
        {
          "indexed": true,
          "internalType": "address",
          "name": "addedRouter",
          "type": "address"
        },
        {
          "indexed": true,
          "internalType": "address",
          "name": "caller",
          "type": "address"
        }
      ],
      "name": "RouterAdded",
      "type": "event"
    },
    {
      "anonymous": false,
      "inputs": [
        {
          "indexed": false,
          "internalType": "bool",
          "name": "renounced",
          "type": "bool"
        }
      ],
      "name": "RouterOwnershipRenounced",
      "type": "event"
    },
    {
      "anonymous": false,
      "inputs": [
        {
          "indexed": false,
          "internalType": "uint256",
          "name": "timestamp",
          "type": "uint256"
        }
      ],
      "name": "RouterOwnershipRenunciationProposed",
      "type": "event"
    },
    {
      "anonymous": false,
      "inputs": [
        {
          "indexed": true,
          "internalType": "address",
          "name": "removedRouter",
          "type": "address"
        },
        {
          "indexed": true,
          "internalType": "address",
          "name": "caller",
          "type": "address"
        }
      ],
      "name": "RouterRemoved",
      "type": "event"
    },
    {
      "anonymous": false,
      "inputs": [
        {
          "indexed": true,
          "internalType": "address",
          "name": "user",
          "type": "address"
        },
        {
          "indexed": true,
          "internalType": "address",
          "name": "router",
          "type": "address"
        },
        {
          "indexed": true,
          "internalType": "bytes32",
          "name": "transactionId",
          "type": "bytes32"
        },
        {
          "components": [
            {
              "internalType": "address",
              "name": "receivingChainTxManagerAddress",
              "type": "address"
            },
            {
              "internalType": "address",
              "name": "user",
              "type": "address"
            },
            {
              "internalType": "address",
              "name": "router",
              "type": "address"
            },
            {
              "internalType": "address",
              "name": "sendingAssetId",
              "type": "address"
            },
            {
              "internalType": "address",
              "name": "receivingAssetId",
              "type": "address"
            },
            {
              "internalType": "address",
              "name": "sendingChainFallback",
              "type": "address"
            },
            {
              "internalType": "address",
              "name": "receivingAddress",
              "type": "address"
            },
            {
              "internalType": "address",
              "name": "callTo",
              "type": "address"
            },
            {
              "internalType": "bytes32",
              "name": "callDataHash",
              "type": "bytes32"
            },
            {
              "internalType": "bytes32",
              "name": "transactionId",
              "type": "bytes32"
            },
            {
              "internalType": "uint256",
              "name": "sendingChainId",
              "type": "uint256"
            },
            {
              "internalType": "uint256",
              "name": "receivingChainId",
              "type": "uint256"
            },
            {
              "internalType": "uint256",
              "name": "amount",
              "type": "uint256"
            },
            {
              "internalType": "uint256",
              "name": "expiry",
              "type": "uint256"
            },
            {
              "internalType": "uint256",
              "name": "preparedBlockNumber",
              "type": "uint256"
            }
          ],
          "indexed": false,
          "internalType": "struct ITransactionManager.TransactionData",
          "name": "txData",
          "type": "tuple"
        },
        {
          "indexed": false,
          "internalType": "address",
          "name": "caller",
          "type": "address"
        }
      ],
      "name": "TransactionCancelled",
      "type": "event"
    },
    {
      "anonymous": false,
      "inputs": [
        {
          "indexed": true,
          "internalType": "address",
          "name": "user",
          "type": "address"
        },
        {
          "indexed": true,
          "internalType": "address",
          "name": "router",
          "type": "address"
        },
        {
          "indexed": true,
          "internalType": "bytes32",
          "name": "transactionId",
          "type": "bytes32"
        },
        {
          "components": [
            {
              "internalType": "address",
              "name": "receivingChainTxManagerAddress",
              "type": "address"
            },
            {
              "internalType": "address",
              "name": "user",
              "type": "address"
            },
            {
              "internalType": "address",
              "name": "router",
              "type": "address"
            },
            {
              "internalType": "address",
              "name": "sendingAssetId",
              "type": "address"
            },
            {
              "internalType": "address",
              "name": "receivingAssetId",
              "type": "address"
            },
            {
              "internalType": "address",
              "name": "sendingChainFallback",
              "type": "address"
            },
            {
              "internalType": "address",
              "name": "receivingAddress",
              "type": "address"
            },
            {
              "internalType": "address",
              "name": "callTo",
              "type": "address"
            },
            {
              "internalType": "bytes32",
              "name": "callDataHash",
              "type": "bytes32"
            },
            {
              "internalType": "bytes32",
              "name": "transactionId",
              "type": "bytes32"
            },
            {
              "internalType": "uint256",
              "name": "sendingChainId",
              "type": "uint256"
            },
            {
              "internalType": "uint256",
              "name": "receivingChainId",
              "type": "uint256"
            },
            {
              "internalType": "uint256",
              "name": "amount",
              "type": "uint256"
            },
            {
              "internalType": "uint256",
              "name": "expiry",
              "type": "uint256"
            },
            {
              "internalType": "uint256",
              "name": "preparedBlockNumber",
              "type": "uint256"
            }
          ],
          "indexed": false,
          "internalType": "struct ITransactionManager.TransactionData",
          "name": "txData",
          "type": "tuple"
        },
        {
          "indexed": false,
          "internalType": "uint256",
          "name": "relayerFee",
          "type": "uint256"
        },
        {
          "indexed": false,
          "internalType": "bytes",
          "name": "signature",
          "type": "bytes"
        },
        {
          "indexed": false,
          "internalType": "bytes",
          "name": "callData",
          "type": "bytes"
        },
        {
          "indexed": false,
          "internalType": "bool",
          "name": "success",
          "type": "bool"
        },
        {
          "indexed": false,
          "internalType": "bytes",
          "name": "returnData",
          "type": "bytes"
        },
        {
          "indexed": false,
          "internalType": "address",
          "name": "caller",
          "type": "address"
        }
      ],
      "name": "TransactionFulfilled",
      "type": "event"
    },
    {
      "anonymous": false,
      "inputs": [
        {
          "indexed": true,
          "internalType": "address",
          "name": "user",
          "type": "address"
        },
        {
          "indexed": true,
          "internalType": "address",
          "name": "router",
          "type": "address"
        },
        {
          "indexed": true,
          "internalType": "bytes32",
          "name": "transactionId",
          "type": "bytes32"
        },
        {
          "components": [
            {
              "internalType": "address",
              "name": "receivingChainTxManagerAddress",
              "type": "address"
            },
            {
              "internalType": "address",
              "name": "user",
              "type": "address"
            },
            {
              "internalType": "address",
              "name": "router",
              "type": "address"
            },
            {
              "internalType": "address",
              "name": "sendingAssetId",
              "type": "address"
            },
            {
              "internalType": "address",
              "name": "receivingAssetId",
              "type": "address"
            },
            {
              "internalType": "address",
              "name": "sendingChainFallback",
              "type": "address"
            },
            {
              "internalType": "address",
              "name": "receivingAddress",
              "type": "address"
            },
            {
              "internalType": "address",
              "name": "callTo",
              "type": "address"
            },
            {
              "internalType": "bytes32",
              "name": "callDataHash",
              "type": "bytes32"
            },
            {
              "internalType": "bytes32",
              "name": "transactionId",
              "type": "bytes32"
            },
            {
              "internalType": "uint256",
              "name": "sendingChainId",
              "type": "uint256"
            },
            {
              "internalType": "uint256",
              "name": "receivingChainId",
              "type": "uint256"
            },
            {
              "internalType": "uint256",
              "name": "amount",
              "type": "uint256"
            },
            {
              "internalType": "uint256",
              "name": "expiry",
              "type": "uint256"
            },
            {
              "internalType": "uint256",
              "name": "preparedBlockNumber",
              "type": "uint256"
            }
          ],
          "indexed": false,
          "internalType": "struct ITransactionManager.TransactionData",
          "name": "txData",
          "type": "tuple"
        },
        {
          "indexed": false,
          "internalType": "address",
          "name": "caller",
          "type": "address"
        },
        {
          "indexed": false,
          "internalType": "bytes",
          "name": "encryptedCallData",
          "type": "bytes"
        },
        {
          "indexed": false,
          "internalType": "bytes",
          "name": "encodedBid",
          "type": "bytes"
        },
        {
          "indexed": false,
          "internalType": "bytes",
          "name": "bidSignature",
          "type": "bytes"
        }
      ],
      "name": "TransactionPrepared",
      "type": "event"
    },
    {
      "inputs": [],
      "name": "MAX_TIMEOUT",
      "outputs": [
        {
          "internalType": "uint256",
          "name": "",
          "type": "uint256"
        }
      ],
      "stateMutability": "view",
      "type": "function"
    },
    {
      "inputs": [],
      "name": "MIN_TIMEOUT",
      "outputs": [
        {
          "internalType": "uint256",
          "name": "",
          "type": "uint256"
        }
      ],
      "stateMutability": "view",
      "type": "function"
    },
    {
      "inputs": [],
      "name": "acceptProposedOwner",
      "outputs": [],
      "stateMutability": "nonpayable",
      "type": "function"
    },
    {
      "inputs": [
        {
          "internalType": "address",
          "name": "assetId",
          "type": "address"
        }
      ],
      "name": "addAssetId",
      "outputs": [],
      "stateMutability": "nonpayable",
      "type": "function"
    },
    {
      "inputs": [
        {
          "internalType": "uint256",
          "name": "amount",
          "type": "uint256"
        },
        {
          "internalType": "address",
          "name": "assetId",
          "type": "address"
        }
      ],
      "name": "addLiquidity",
      "outputs": [],
      "stateMutability": "payable",
      "type": "function"
    },
    {
      "inputs": [
        {
          "internalType": "uint256",
          "name": "amount",
          "type": "uint256"
        },
        {
          "internalType": "address",
          "name": "assetId",
          "type": "address"
        },
        {
          "internalType": "address",
          "name": "router",
          "type": "address"
        }
      ],
      "name": "addLiquidityFor",
      "outputs": [],
      "stateMutability": "payable",
      "type": "function"
    },
    {
      "inputs": [
        {
          "internalType": "address",
          "name": "router",
          "type": "address"
        }
      ],
      "name": "addRouter",
      "outputs": [],
      "stateMutability": "nonpayable",
      "type": "function"
    },
    {
      "inputs": [
        {
          "internalType": "address",
          "name": "",
          "type": "address"
        }
      ],
      "name": "approvedAssets",
      "outputs": [
        {
          "internalType": "bool",
          "name": "",
          "type": "bool"
        }
      ],
      "stateMutability": "view",
      "type": "function"
    },
    {
      "inputs": [
        {
          "internalType": "address",
          "name": "",
          "type": "address"
        }
      ],
      "name": "approvedRouters",
      "outputs": [
        {
          "internalType": "bool",
          "name": "",
          "type": "bool"
        }
      ],
      "stateMutability": "view",
      "type": "function"
    },
    {
      "inputs": [],
      "name": "assetOwnershipTimestamp",
      "outputs": [
        {
          "internalType": "uint256",
          "name": "",
          "type": "uint256"
        }
      ],
      "stateMutability": "view",
      "type": "function"
    },
    {
      "inputs": [
        {
          "components": [
            {
              "internalType": "address",
              "name": "receivingChainTxManagerAddress",
              "type": "address"
            },
            {
              "internalType": "address",
              "name": "user",
              "type": "address"
            },
            {
              "internalType": "address",
              "name": "router",
              "type": "address"
            },
            {
              "internalType": "address",
              "name": "sendingAssetId",
              "type": "address"
            },
            {
              "internalType": "address",
              "name": "receivingAssetId",
              "type": "address"
            },
            {
              "internalType": "address",
              "name": "sendingChainFallback",
              "type": "address"
            },
            {
              "internalType": "address",
              "name": "receivingAddress",
              "type": "address"
            },
            {
              "internalType": "address",
              "name": "callTo",
              "type": "address"
            },
            {
              "internalType": "bytes32",
              "name": "callDataHash",
              "type": "bytes32"
            },
            {
              "internalType": "bytes32",
              "name": "transactionId",
              "type": "bytes32"
            },
            {
              "internalType": "uint256",
              "name": "sendingChainId",
              "type": "uint256"
            },
            {
              "internalType": "uint256",
              "name": "receivingChainId",
              "type": "uint256"
            },
            {
              "internalType": "uint256",
              "name": "amount",
              "type": "uint256"
            },
            {
              "internalType": "uint256",
              "name": "expiry",
              "type": "uint256"
            },
            {
              "internalType": "uint256",
              "name": "preparedBlockNumber",
              "type": "uint256"
            }
          ],
          "internalType": "struct ITransactionManager.TransactionData",
          "name": "txData",
          "type": "tuple"
        },
        {
          "internalType": "bytes",
          "name": "signature",
          "type": "bytes"
        }
      ],
      "name": "cancel",
      "outputs": [
        {
          "components": [
            {
              "internalType": "address",
              "name": "receivingChainTxManagerAddress",
              "type": "address"
            },
            {
              "internalType": "address",
              "name": "user",
              "type": "address"
            },
            {
              "internalType": "address",
              "name": "router",
              "type": "address"
            },
            {
              "internalType": "address",
              "name": "sendingAssetId",
              "type": "address"
            },
            {
              "internalType": "address",
              "name": "receivingAssetId",
              "type": "address"
            },
            {
              "internalType": "address",
              "name": "sendingChainFallback",
              "type": "address"
            },
            {
              "internalType": "address",
              "name": "receivingAddress",
              "type": "address"
            },
            {
              "internalType": "address",
              "name": "callTo",
              "type": "address"
            },
            {
              "internalType": "bytes32",
              "name": "callDataHash",
              "type": "bytes32"
            },
            {
              "internalType": "bytes32",
              "name": "transactionId",
              "type": "bytes32"
            },
            {
              "internalType": "uint256",
              "name": "sendingChainId",
              "type": "uint256"
            },
            {
              "internalType": "uint256",
              "name": "receivingChainId",
              "type": "uint256"
            },
            {
              "internalType": "uint256",
              "name": "amount",
              "type": "uint256"
            },
            {
              "internalType": "uint256",
              "name": "expiry",
              "type": "uint256"
            },
            {
              "internalType": "uint256",
              "name": "preparedBlockNumber",
              "type": "uint256"
            }
          ],
          "internalType": "struct ITransactionManager.TransactionData",
          "name": "",
          "type": "tuple"
        }
      ],
      "stateMutability": "nonpayable",
      "type": "function"
    },
    {
      "inputs": [],
      "name": "delay",
      "outputs": [
        {
          "internalType": "uint256",
          "name": "",
          "type": "uint256"
        }
      ],
      "stateMutability": "view",
      "type": "function"
    },
    {
      "inputs": [
        {
          "components": [
            {
              "internalType": "address",
              "name": "receivingChainTxManagerAddress",
              "type": "address"
            },
            {
              "internalType": "address",
              "name": "user",
              "type": "address"
            },
            {
              "internalType": "address",
              "name": "router",
              "type": "address"
            },
            {
              "internalType": "address",
              "name": "sendingAssetId",
              "type": "address"
            },
            {
              "internalType": "address",
              "name": "receivingAssetId",
              "type": "address"
            },
            {
              "internalType": "address",
              "name": "sendingChainFallback",
              "type": "address"
            },
            {
              "internalType": "address",
              "name": "receivingAddress",
              "type": "address"
            },
            {
              "internalType": "address",
              "name": "callTo",
              "type": "address"
            },
            {
              "internalType": "bytes32",
              "name": "callDataHash",
              "type": "bytes32"
            },
            {
              "internalType": "bytes32",
              "name": "transactionId",
              "type": "bytes32"
            },
            {
              "internalType": "uint256",
              "name": "sendingChainId",
              "type": "uint256"
            },
            {
              "internalType": "uint256",
              "name": "receivingChainId",
              "type": "uint256"
            },
            {
              "internalType": "uint256",
              "name": "amount",
              "type": "uint256"
            },
            {
              "internalType": "uint256",
              "name": "expiry",
              "type": "uint256"
            },
            {
              "internalType": "uint256",
              "name": "preparedBlockNumber",
              "type": "uint256"
            }
          ],
          "internalType": "struct ITransactionManager.TransactionData",
          "name": "txData",
          "type": "tuple"
        },
        {
          "internalType": "uint256",
          "name": "relayerFee",
          "type": "uint256"
        },
        {
          "internalType": "bytes",
          "name": "signature",
          "type": "bytes"
        },
        {
          "internalType": "bytes",
          "name": "callData",
          "type": "bytes"
        }
      ],
      "name": "fulfill",
      "outputs": [
        {
          "components": [
            {
              "internalType": "address",
              "name": "receivingChainTxManagerAddress",
              "type": "address"
            },
            {
              "internalType": "address",
              "name": "user",
              "type": "address"
            },
            {
              "internalType": "address",
              "name": "router",
              "type": "address"
            },
            {
              "internalType": "address",
              "name": "sendingAssetId",
              "type": "address"
            },
            {
              "internalType": "address",
              "name": "receivingAssetId",
              "type": "address"
            },
            {
              "internalType": "address",
              "name": "sendingChainFallback",
              "type": "address"
            },
            {
              "internalType": "address",
              "name": "receivingAddress",
              "type": "address"
            },
            {
              "internalType": "address",
              "name": "callTo",
              "type": "address"
            },
            {
              "internalType": "bytes32",
              "name": "callDataHash",
              "type": "bytes32"
            },
            {
              "internalType": "bytes32",
              "name": "transactionId",
              "type": "bytes32"
            },
            {
              "internalType": "uint256",
              "name": "sendingChainId",
              "type": "uint256"
            },
            {
              "internalType": "uint256",
              "name": "receivingChainId",
              "type": "uint256"
            },
            {
              "internalType": "uint256",
              "name": "amount",
              "type": "uint256"
            },
            {
              "internalType": "uint256",
              "name": "expiry",
              "type": "uint256"
            },
            {
              "internalType": "uint256",
              "name": "preparedBlockNumber",
              "type": "uint256"
            }
          ],
          "internalType": "struct ITransactionManager.TransactionData",
          "name": "",
          "type": "tuple"
        }
      ],
      "stateMutability": "nonpayable",
      "type": "function"
    },
    {
      "inputs": [],
      "name": "getChainId",
      "outputs": [
        {
          "internalType": "uint256",
          "name": "_chainId",
          "type": "uint256"
        }
      ],
      "stateMutability": "view",
      "type": "function"
    },
    {
      "inputs": [],
      "name": "getStoredChainId",
      "outputs": [
        {
          "internalType": "uint256",
          "name": "",
          "type": "uint256"
        }
      ],
      "stateMutability": "view",
      "type": "function"
    },
    {
      "inputs": [],
      "name": "interpreter",
      "outputs": [
        {
          "internalType": "contract IFulfillInterpreter",
          "name": "",
          "type": "address"
        }
      ],
      "stateMutability": "view",
      "type": "function"
    },
    {
      "inputs": [],
      "name": "isAssetOwnershipRenounced",
      "outputs": [
        {
          "internalType": "bool",
          "name": "",
          "type": "bool"
        }
      ],
      "stateMutability": "view",
      "type": "function"
    },
    {
      "inputs": [],
      "name": "isRouterOwnershipRenounced",
      "outputs": [
        {
          "internalType": "bool",
          "name": "",
          "type": "bool"
        }
      ],
      "stateMutability": "view",
      "type": "function"
    },
    {
      "inputs": [],
      "name": "owner",
      "outputs": [
        {
          "internalType": "address",
          "name": "",
          "type": "address"
        }
      ],
      "stateMutability": "view",
      "type": "function"
    },
    {
      "inputs": [
        {
          "components": [
            {
              "internalType": "address",
              "name": "receivingChainTxManagerAddress",
              "type": "address"
            },
            {
              "internalType": "address",
              "name": "user",
              "type": "address"
            },
            {
              "internalType": "address",
              "name": "router",
              "type": "address"
            },
            {
              "internalType": "address",
              "name": "sendingAssetId",
              "type": "address"
            },
            {
              "internalType": "address",
              "name": "receivingAssetId",
              "type": "address"
            },
            {
              "internalType": "address",
              "name": "sendingChainFallback",
              "type": "address"
            },
            {
              "internalType": "address",
              "name": "receivingAddress",
              "type": "address"
            },
            {
              "internalType": "address",
              "name": "callTo",
              "type": "address"
            },
            {
              "internalType": "uint256",
              "name": "sendingChainId",
              "type": "uint256"
            },
            {
              "internalType": "uint256",
              "name": "receivingChainId",
              "type": "uint256"
            },
            {
              "internalType": "bytes32",
              "name": "callDataHash",
              "type": "bytes32"
            },
            {
              "internalType": "bytes32",
              "name": "transactionId",
              "type": "bytes32"
            }
          ],
          "internalType": "struct ITransactionManager.InvariantTransactionData",
          "name": "invariantData",
          "type": "tuple"
        },
        {
          "internalType": "uint256",
          "name": "amount",
          "type": "uint256"
        },
        {
          "internalType": "uint256",
          "name": "expiry",
          "type": "uint256"
        },
        {
          "internalType": "bytes",
          "name": "encryptedCallData",
          "type": "bytes"
        },
        {
          "internalType": "bytes",
          "name": "encodedBid",
          "type": "bytes"
        },
        {
          "internalType": "bytes",
          "name": "bidSignature",
          "type": "bytes"
        }
      ],
      "name": "prepare",
      "outputs": [
        {
          "components": [
            {
              "internalType": "address",
              "name": "receivingChainTxManagerAddress",
              "type": "address"
            },
            {
              "internalType": "address",
              "name": "user",
              "type": "address"
            },
            {
              "internalType": "address",
              "name": "router",
              "type": "address"
            },
            {
              "internalType": "address",
              "name": "sendingAssetId",
              "type": "address"
            },
            {
              "internalType": "address",
              "name": "receivingAssetId",
              "type": "address"
            },
            {
              "internalType": "address",
              "name": "sendingChainFallback",
              "type": "address"
            },
            {
              "internalType": "address",
              "name": "receivingAddress",
              "type": "address"
            },
            {
              "internalType": "address",
              "name": "callTo",
              "type": "address"
            },
            {
              "internalType": "bytes32",
              "name": "callDataHash",
              "type": "bytes32"
            },
            {
              "internalType": "bytes32",
              "name": "transactionId",
              "type": "bytes32"
            },
            {
              "internalType": "uint256",
              "name": "sendingChainId",
              "type": "uint256"
            },
            {
              "internalType": "uint256",
              "name": "receivingChainId",
              "type": "uint256"
            },
            {
              "internalType": "uint256",
              "name": "amount",
              "type": "uint256"
            },
            {
              "internalType": "uint256",
              "name": "expiry",
              "type": "uint256"
            },
            {
              "internalType": "uint256",
              "name": "preparedBlockNumber",
              "type": "uint256"
            }
          ],
          "internalType": "struct ITransactionManager.TransactionData",
          "name": "",
          "type": "tuple"
        }
      ],
      "stateMutability": "payable",
      "type": "function"
    },
    {
      "inputs": [],
      "name": "proposeAssetOwnershipRenunciation",
      "outputs": [],
      "stateMutability": "nonpayable",
      "type": "function"
    },
    {
      "inputs": [
        {
          "internalType": "address",
          "name": "newlyProposed",
          "type": "address"
        }
      ],
      "name": "proposeNewOwner",
      "outputs": [],
      "stateMutability": "nonpayable",
      "type": "function"
    },
    {
      "inputs": [],
      "name": "proposeRouterOwnershipRenunciation",
      "outputs": [],
      "stateMutability": "nonpayable",
      "type": "function"
    },
    {
      "inputs": [],
      "name": "proposed",
      "outputs": [
        {
          "internalType": "address",
          "name": "",
          "type": "address"
        }
      ],
      "stateMutability": "view",
      "type": "function"
    },
    {
      "inputs": [],
      "name": "proposedTimestamp",
      "outputs": [
        {
          "internalType": "uint256",
          "name": "",
          "type": "uint256"
        }
      ],
      "stateMutability": "view",
      "type": "function"
    },
    {
      "inputs": [
        {
          "internalType": "address",
          "name": "assetId",
          "type": "address"
        }
      ],
      "name": "removeAssetId",
      "outputs": [],
      "stateMutability": "nonpayable",
      "type": "function"
    },
    {
      "inputs": [
        {
          "internalType": "uint256",
          "name": "amount",
          "type": "uint256"
        },
        {
          "internalType": "address",
          "name": "assetId",
          "type": "address"
        },
        {
          "internalType": "address payable",
          "name": "recipient",
          "type": "address"
        }
      ],
      "name": "removeLiquidity",
      "outputs": [],
      "stateMutability": "nonpayable",
      "type": "function"
    },
    {
      "inputs": [
        {
          "internalType": "address",
          "name": "router",
          "type": "address"
        }
      ],
      "name": "removeRouter",
      "outputs": [],
      "stateMutability": "nonpayable",
      "type": "function"
    },
    {
      "inputs": [],
      "name": "renounceAssetOwnership",
      "outputs": [],
      "stateMutability": "nonpayable",
      "type": "function"
    },
    {
      "inputs": [],
      "name": "renounceOwnership",
      "outputs": [],
      "stateMutability": "nonpayable",
      "type": "function"
    },
    {
      "inputs": [],
      "name": "renounceRouterOwnership",
      "outputs": [],
      "stateMutability": "nonpayable",
      "type": "function"
    },
    {
      "inputs": [],
      "name": "renounced",
      "outputs": [
        {
          "internalType": "bool",
          "name": "",
          "type": "bool"
        }
      ],
      "stateMutability": "view",
      "type": "function"
    },
    {
      "inputs": [
        {
          "internalType": "address",
          "name": "",
          "type": "address"
        },
        {
          "internalType": "address",
          "name": "",
          "type": "address"
        }
      ],
      "name": "routerBalances",
      "outputs": [
        {
          "internalType": "uint256",
          "name": "",
          "type": "uint256"
        }
      ],
      "stateMutability": "view",
      "type": "function"
    },
    {
      "inputs": [],
      "name": "routerOwnershipTimestamp",
      "outputs": [
        {
          "internalType": "uint256",
          "name": "",
          "type": "uint256"
        }
      ],
      "stateMutability": "view",
      "type": "function"
    },
    {
      "inputs": [
        {
          "internalType": "bytes32",
          "name": "",
          "type": "bytes32"
        }
      ],
      "name": "variantTransactionData",
      "outputs": [
        {
          "internalType": "bytes32",
          "name": "",
          "type": "bytes32"
        }
      ],
      "stateMutability": "view",
      "type": "function"
    }
  ],
  "transactionHash": "0xa321e4cbaa477f2eec1c412d940d930faa3665330a7ceba4b3410fedce194f7d",
  "args": [
    "3"
  ],
  "solcInputHash": "cadb280597e92d110c2cdb2c132e4ef5",
  "bytecode": "0x60c06040523480156200001157600080fd5b5060405162004a0138038062004a018339810160408190526200003491620000fe565b600160005562000044336200009e565b608081905260405130906200005990620000f0565b6001600160a01b039091168152602001604051809103906000f08015801562000086573d6000803e3d6000fd5b5060601b6001600160601b03191660a0525062000117565b600180546001600160a01b038381166001600160a01b0319831681179093556040519116919082907f8be0079c531659141344cd1fd0a4f28419497f9722a3daafe3b4186f6b6457e090600090a35050565b610b2d8062003ed483390190565b60006020828403121562000110578081fd5b5051919050565b60805160a05160601c613d7f62000155600039600081816102ee01528181612536015261255d015260008181610264015261077f0152613d7f6000f3fe6080604052600436106102045760003560e01c8063715018a611610118578063c5b350df116100a0578063de38eb3a1161006f578063de38eb3a146105d1578063e070da09146105e8578063e47602f7146105fb578063e8be0dfc14610610578063f31abcc41461062557600080fd5b8063c5b350df14610576578063c95f9d0e1461058b578063d1851c921461059e578063d232c220146105bc57600080fd5b806397eb0088116100e757806397eb0088146104dc578063b1d2618d1461050c578063b1f8100d1461052c578063c0c17baf1461054c578063c1a049591461056157600080fd5b8063715018a6146104745780637bac72b5146104895780638741eac5146104a95780638da5cb5b146104be57600080fd5b806341258b5c1161019b57806363405b931161016a57806363405b93146103e957806367df6017146104095780636a41633a146104295780636a42b8f81461043e5780636ae0b1541461045457600080fd5b806341258b5c1461033d578063445b1e4b14610375578063543ad1df146103a55780635e679856146103bc57600080fd5b806334e9393c116101d757806334e9393c146102a75780633855b467146102c75780633a35cf17146102dc5780633cf52ffb1461032857600080fd5b80632004ef451461020957806324ca984e1461023357806332a130c9146102555780633408e47014610292575b600080fd5b34801561021557600080fd5b5061021e610645565b60405190151581526020015b60405180910390f35b34801561023f57600080fd5b5061025361024e3660046130ec565b610667565b005b34801561026157600080fd5b507f00000000000000000000000000000000000000000000000000000000000000005b60405190815260200161022a565b34801561029e57600080fd5b5061028461077b565b3480156102b357600080fd5b506102536102c23660046130ec565b6107af565b3480156102d357600080fd5b5061025361087a565b3480156102e857600080fd5b506103107f000000000000000000000000000000000000000000000000000000000000000081565b6040516001600160a01b03909116815260200161022a565b34801561033457600080fd5b50600354610284565b34801561034957600080fd5b50610284610358366004613108565b600860209081526000928352604080842090915290825290205481565b34801561038157600080fd5b5061021e6103903660046130ec565b60096020526000908152604090205460ff1681565b3480156103b157600080fd5b506102846201518081565b3480156103c857600080fd5b506102846103d7366004613216565b600b6020526000908152604090205481565b6103fc6103f736600461322e565b610938565b60405161022a9190613c05565b34801561041557600080fd5b506103fc6104243660046132f6565b611204565b34801561043557600080fd5b50600754610284565b34801561044a57600080fd5b5062093a80610284565b34801561046057600080fd5b5061025361046f3660046130ec565b611560565b34801561048057600080fd5b5061025361166c565b34801561049557600080fd5b506103fc6104a436600461334a565b611739565b3480156104b557600080fd5b50610253611b25565b3480156104ca57600080fd5b506001546001600160a01b0316610310565b3480156104e857600080fd5b5061021e6104f73660046130ec565b600a6020526000908152604090205460ff1681565b34801561051857600080fd5b506102536105273660046130ec565b611b96565b34801561053857600080fd5b506102536105473660046130ec565b611c62565b34801561055857600080fd5b50610253611c98565b34801561056d57600080fd5b50600554610284565b34801561058257600080fd5b50610253611d54565b6102536105993660046134e0565b611de2565b3480156105aa57600080fd5b506002546001600160a01b0316610310565b3480156105c857600080fd5b5061021e611df1565b3480156105dd57600080fd5b5061028462278d0081565b6102536105f6366004613504565b611e15565b34801561060757600080fd5b50610253611e25565b34801561061c57600080fd5b5061021e611e96565b34801561063157600080fd5b50610253610640366004613504565b611eb6565b6001546000906001600160a01b03161580610662575060045460ff165b905090565b6001546001600160a01b0316331461069a5760405162461bcd60e51b81526004016106919061385e565b60405180910390fd5b6001600160a01b0381166106da5760405162461bcd60e51b81526020600482015260076024820152662341523a30303160c81b6044820152606401610691565b6001600160a01b03811660009081526009602052604090205460ff161561072d5760405162461bcd60e51b815260206004820152600760248201526611a0a91d18199960c91b6044820152606401610691565b6001600160a01b038116600081815260096020526040808220805460ff19166001179055513392917fbc68405e644da2aaf25623ce2199da82c6dfd2e1de102b400eba6a091704d4f491a350565b60007f0000000000000000000000000000000000000000000000000000000000000000806107aa574691505090565b919050565b6001546001600160a01b031633146107d95760405162461bcd60e51b81526004016106919061385e565b6001600160a01b0381166000908152600a602052604090205460ff161561082c5760405162461bcd60e51b815260206004820152600760248201526611a0a09d18199960c91b6044820152606401610691565b6001600160a01b0381166000818152600a6020526040808220805460ff19166001179055513392917f0bb5715f0f217c2fe9a0c877ea87d474380c641102f3440ee2a4c8b9d979091891a350565b6001546001600160a01b031633146108a45760405162461bcd60e51b81526004016106919061385e565b60065460ff16156108e25760405162461bcd60e51b815260206004820152600860248201526711a920a79d18199b60c11b6044820152606401610691565b62093a80600754426108f49190613cc5565b1161092c5760405162461bcd60e51b815260206004820152600860248201526702352414f3a3033360c41b6044820152606401610691565b610936600161203b565b565b610940612ff6565b600061095260408c0160208d016130ec565b6001600160a01b031614156109925760405162461bcd60e51b815260206004820152600660248201526523503a30303960d01b6044820152606401610691565b60006109a460608c0160408d016130ec565b6001600160a01b031614156109e45760405162461bcd60e51b815260206004820152600660248201526523503a30303160d01b6044820152606401610691565b6109ec610645565b80610a24575060096000610a0660608d0160408e016130ec565b6001600160a01b0316815260208101919091526040016000205460ff165b610a595760405162461bcd60e51b815260206004820152600660248201526523503a30303360d01b6044820152606401610691565b6000610a6b60c08c0160a08d016130ec565b6001600160a01b03161415610aab5760405162461bcd60e51b8152602060048201526006602482015265023503a3031360d41b6044820152606401610691565b6000610abd60e08c0160c08d016130ec565b6001600160a01b03161415610afd5760405162461bcd60e51b815260206004820152600660248201526511a81d18191b60d11b6044820152606401610691565b8961012001358a61010001351415610b405760405162461bcd60e51b815260206004820152600660248201526523503a30313160d01b6044820152606401610691565b6000610b4a61077b565b9050808b61010001351480610b635750808b6101200135145b610b985760405162461bcd60e51b815260206004820152600660248201526511a81d18189960d11b6044820152606401610691565b6000610ba4428b613cc5565b905062015180811015610be25760405162461bcd60e51b815260206004820152600660248201526523503a30313360d01b6044820152606401610691565b62278d00811115610c1e5760405162461bcd60e51b815260206004820152600660248201526508d40e8c0c4d60d21b6044820152606401610691565b5060008b604051602001610c3291906138b6565b60408051601f1981840301815291815281516020928301206000818152600b90935291205490915015610c905760405162461bcd60e51b815260206004820152600660248201526523503a30313560d01b6044820152606401610691565b818c61010001351415610d885760008b11610cd65760405162461bcd60e51b815260206004820152600660248201526511a81d18181960d11b6044820152606401610691565b610cde611e96565b80610d195750600a60008d6060016020810190610cfb91906130ec565b6001600160a01b0316815260208101919091526040016000205460ff165b610d4e5760405162461bcd60e51b815260206004820152600660248201526508d40e8c0c0d60d21b6044820152606401610691565b610d598b8b43612083565b6000828152600b6020526040902055610d81610d7b60808e0160608f016130ec565b8c6120d1565b9a50611039565b6000610d9b6101008e0160e08f016130ec565b6001600160a01b03161480610dc55750610dc5610dbf6101008e0160e08f016130ec565b3b151590565b610dfa5760405162461bcd60e51b815260206004820152600660248201526523503a30333160d01b6044820152606401610691565b610e02611e96565b80610e3d5750600a60008d6080016020810190610e1f91906130ec565b6001600160a01b0316815260208101919091526040016000205460ff165b610e725760405162461bcd60e51b815260206004820152600660248201526508d40e8c0c0d60d21b6044820152606401610691565b610e8260608d0160408e016130ec565b6001600160a01b0316336001600160a01b031614610ecb5760405162461bcd60e51b815260206004820152600660248201526511a81d18189b60d11b6044820152606401610691565b3415610f025760405162461bcd60e51b815260206004820152600660248201526523503a30313760d01b6044820152606401610691565b6000600860008e6040016020810190610f1b91906130ec565b6001600160a01b03166001600160a01b0316815260200190815260200160002060008e6080016020810190610f5091906130ec565b6001600160a01b03166001600160a01b031681526020019081526020016000205490508b811015610fac5760405162461bcd60e51b8152602060048201526006602482015265046a0746062760d31b6044820152606401610691565b610fb78c8c43612083565b600b6000848152602001908152602001600020819055508b8103600860008f6040016020810190610fe891906130ec565b6001600160a01b03166001600160a01b0316815260200190815260200160002060008f608001602081019061101d91906130ec565b6001600160a01b03168152602081019190915260400160002055505b6000604051806101e001604052808e600001602081019061105a91906130ec565b6001600160a01b031681526020018e602001602081019061107b91906130ec565b6001600160a01b031681526020018e604001602081019061109c91906130ec565b6001600160a01b031681526020018e60600160208101906110bd91906130ec565b6001600160a01b031681526020018e60800160208101906110de91906130ec565b6001600160a01b031681526020018e60a00160208101906110ff91906130ec565b6001600160a01b031681526020018e60c001602081019061112091906130ec565b6001600160a01b031681526020018e60e001602081019061114191906130ec565b6001600160a01b031681526020018e610140013581526020018e610160013581526020018e610100013581526020018e610120013581526020018d81526020018c815260200143815250905080610120015181604001516001600160a01b031682602001516001600160a01b03167fab398cccfbdc6ce7daf9d26bc84174d4d49bde657c28c1cc456b4eb7c0aa720a84338f8f8f8f8f8f6040516111ec989796959493929190613c14565b60405180910390a49c9b505050505050505050505050565b61120c612ff6565b6002600054141561122f5760405162461bcd60e51b81526004016106919061387f565b6002600090815561123f85612192565b905061125b856101800135866101a00135876101c00135612083565b6000828152600b6020526040902054146112a05760405162461bcd60e51b815260206004820152600660248201526523433a30313960d01b6044820152606401610691565b6000856101c00135116112de5760405162461bcd60e51b815260206004820152600660248201526523433a30323160d01b6044820152606401610691565b6112f4856101800135866101a001356000612083565b6000828152600b602052604081209190915561130e61077b565b90508086610140013514156113b55742866101a00135106113825761133960608701604088016130ec565b6001600160a01b0316336001600160a01b0316146113825760405162461bcd60e51b815260206004820152600660248201526523433a30323560d01b6044820152606401610691565b6113b061139560808801606089016130ec565b6113a560c0890160a08a016130ec565b8861018001356122f0565b6114d1565b42866101a0013510611456576113d160408701602088016130ec565b6001600160a01b0316336001600160a01b0316148061142157506113fb60408701602088016130ec565b6001600160a01b031661141687610120013583308989612314565b6001600160a01b0316145b6114565760405162461bcd60e51b815260206004820152600660248201526511a19d18191960d11b6044820152606401610691565b6101808601356008600061147060608a0160408b016130ec565b6001600160a01b03168152602081019190915260400160009081209061149c60a08a0160808b016130ec565b6001600160a01b03166001600160a01b0316815260200190815260200160002060008282546114cb9190613cad565b90915550505b6101208601356114e760608801604089016130ec565b6001600160a01b03166115006040890160208a016130ec565b6001600160a01b03167f9ff4e119c7d03c442b1656c62e4fb6c3cd6490a27ab86e7ff2ce50dd3b73a4c1893360405161153a929190613b5f565b60405180910390a4611551368790038701876133d6565b60016000559695505050505050565b6001546001600160a01b0316331461158a5760405162461bcd60e51b81526004016106919061385e565b6001600160a01b0381166115ca5760405162461bcd60e51b81526020600482015260076024820152662352523a30303160c81b6044820152606401610691565b6001600160a01b03811660009081526009602052604090205460ff1615156001146116215760405162461bcd60e51b81526020600482015260076024820152662352523a30333360c81b6044820152606401610691565b6001600160a01b038116600081815260096020526040808220805460ff19169055513392917fbee3e974bb6a6f44f20096ede047c191eef60322e65e4ee4bd3392230a8716d591a350565b6001546001600160a01b031633146116965760405162461bcd60e51b81526004016106919061385e565b62093a80600354426116a89190613cc5565b116116e05760405162461bcd60e51b815260206004820152600860248201526702341504f3a3033360c41b6044820152606401610691565b6002546001600160a01b0316156117245760405162461bcd60e51b815260206004820152600860248201526711a0a8279d18199b60c11b6044820152606401610691565b600254610936906001600160a01b0316612396565b611741612ff6565b600260005414156117645760405162461bcd60e51b81526004016106919061387f565b6002600090815561177488612192565b9050611790886101800135896101a001358a6101c00135612083565b6000828152600b6020526040902054146117d55760405162461bcd60e51b815260206004820152600660248201526523463a30313960d01b6044820152606401610691565b42886101a0013510156118135760405162461bcd60e51b8152602060048201526006602482015265023463a3032360d41b6044820152606401610691565b6000886101c00135116118515760405162461bcd60e51b815260206004820152600660248201526523463a30323160d01b6044820152606401610691565b6118616040890160208a016130ec565b6001600160a01b031661188e6101208a0135896101608c013561188760208e018e6130ec565b8b8b6123e8565b6001600160a01b0316146118cd5760405162461bcd60e51b815260206004820152600660248201526511a31d18191960d11b6044820152606401610691565b87610180013587111561190b5760405162461bcd60e51b815260206004820152600660248201526523463a30323360d01b6044820152606401610691565b87610100013584846040516119219291906137d0565b60405180910390201461195f5760405162461bcd60e51b815260206004820152600660248201526508d18e8c0c8d60d21b6044820152606401610691565b611975886101800135896101a001356000612083565b6000918252600b6020526040822055606061198e61077b565b8961014001351415611a73576119aa60608a0160408b016130ec565b6001600160a01b0316336001600160a01b0316146119f35760405162461bcd60e51b815260206004820152600660248201526511a31d18189b60d11b6044820152606401610691565b61018089013560086000611a0d60608d0160408e016130ec565b6001600160a01b031681526020810191909152604001600090812090611a3960808d0160608e016130ec565b6001600160a01b03166001600160a01b031681526020019081526020016000206000828254611a689190613cad565b90915550611a859050565b611a7f89898787612452565b90925090505b610120890135611a9b60608b0160408c016130ec565b6001600160a01b0316611ab460408c0160208d016130ec565b6001600160a01b03167f61bafb0ebbe27dfee40c81c31c114db452f16caed88c1f653c14d8645f1d78c78c8c8c8c8c8c8b8b33604051611afc99989796959493929190613b87565b60405180910390a4611b13368a90038a018a6133d6565b60016000559998505050505050505050565b6001546001600160a01b03163314611b4f5760405162461bcd60e51b81526004016106919061385e565b60065460ff1615611b8e5760405162461bcd60e51b815260206004820152600960248201526811a820a7a91d18199b60b91b6044820152606401610691565b61093661265d565b6001546001600160a01b03163314611bc05760405162461bcd60e51b81526004016106919061385e565b6001600160a01b0381166000908152600a602052604090205460ff161515600114611c175760405162461bcd60e51b81526020600482015260076024820152662352413a30333360c81b6044820152606401610691565b6001600160a01b0381166000818152600a6020526040808220805460ff19169055513392917f0fa1e4606af435f32f05b3804033d2933e691fab32ee74d2db6fa82d2741f1ea91a350565b6001546001600160a01b03163314611c8c5760405162461bcd60e51b81526004016106919061385e565b611c9581612699565b50565b6001546001600160a01b03163314611cc25760405162461bcd60e51b81526004016106919061385e565b60045460ff1615611d005760405162461bcd60e51b815260206004820152600860248201526711a929279d18199b60c11b6044820152606401610691565b62093a8060055442611d129190613cc5565b11611d4a5760405162461bcd60e51b815260206004820152600860248201526702352524f3a3033360c41b6044820152606401610691565b61093660016126e7565b6002546001600160a01b03163314611d985760405162461bcd60e51b8152602060048201526007602482015266234f503a30333560c81b6044820152606401610691565b62093a8060035442611daa9190613cc5565b116117245760405162461bcd60e51b815260206004820152600860248201526702341504f3a3033360c41b6044820152606401610691565b611ded828233612728565b5050565b600080611e066001546001600160a01b031690565b6001600160a01b031614905090565b611e20838383612728565b505050565b6001546001600160a01b03163314611e4f5760405162461bcd60e51b81526004016106919061385e565b60045460ff1615611e8e5760405162461bcd60e51b815260206004820152600960248201526811a82927a91d18199b60b91b6044820152606401610691565b6109366128fb565b6001546000906001600160a01b0316158061066257505060065460ff1690565b60026000541415611ed95760405162461bcd60e51b81526004016106919061387f565b60026000556001600160a01b038116611f1e5760405162461bcd60e51b815260206004820152600760248201526623524c3a30303760c81b6044820152606401610691565b60008311611f585760405162461bcd60e51b815260206004820152600760248201526611a9261d18181960c91b6044820152606401610691565b3360009081526008602090815260408083206001600160a01b038616845290915290205483811015611fb65760405162461bcd60e51b8152602060048201526007602482015266046a498746060760cb1b6044820152606401610691565b3360009081526008602090815260408083206001600160a01b038716845290915290208482039055611fe98383866122f0565b604080518581526001600160a01b03848116602083015285169133917f7da12116be8cb7af4b2d9e9b4a2ca2c3a3243ddd6fd3a94411902367b8eed568910160405180910390a3505060016000555050565b6006805460ff19168215159081179091556040519081527f868d89ead22a5d10f456845ac0014901d9af7203e71cf0892d70d9dc262c2fb9906020015b60405180910390a150565b604080516060808201835285825260208083018681529284018581528451808301899052935184860152518383015283518084039092018252608090920190925281519101205b9392505050565b6000816001600160a01b0384166121205782341461211b5760405162461bcd60e51b81526020600482015260076024820152662354413a30303560c81b6044820152606401610691565b612189565b600061212b85612931565b905034156121655760405162461bcd60e51b815260206004820152600760248201526611aa209d18181b60c91b6044820152606401610691565b612171853330876129c5565b8061217b86612931565b6121859190613cc5565b9150505b90505b92915050565b6040805161018081019091526000908190806121b160208601866130ec565b6001600160a01b031681526020018460200160208101906121d291906130ec565b6001600160a01b031681526020016121f060608601604087016130ec565b6001600160a01b0316815260200161220e60808601606087016130ec565b6001600160a01b0316815260200161222c60a08601608087016130ec565b6001600160a01b0316815260200161224a60c0860160a087016130ec565b6001600160a01b0316815260200161226860e0860160c087016130ec565b6001600160a01b03168152602001612287610100860160e087016130ec565b6001600160a01b031681526020018461014001358152602001846101600135815260200184610100013581526020018461012001358152509050806040516020016122d291906139b1565b60405160208183030381529060405280519060200120915050919050565b6001600160a01b0383161561230a57611e208383836129d7565b611e2082826129e2565b60008060405180608001604052808881526020016040518060400160405280600681526020016518d85b98d95b60d21b8152508152602001878152602001866001600160a01b0316815250905061238b816040516020016123759190613ab3565b6040516020818303038152906040528585612a70565b979650505050505050565b600180546001600160a01b038381166001600160a01b0319831681179093556040519116919082907f8be0079c531659141344cd1fd0a4f28419497f9722a3daafe3b4186f6b6457e090600090a35050565b6040805160a0810182528781526020808201889052825180840184526007815266199d5b199a5b1b60ca1b8183015282840152606082018790526001600160a01b038616608083015291516000926124469161237591849101613b04565b98975050505050505050565b60006060610180860135859003851561247f5761247f61247860a0890160808a016130ec565b33886122f0565b6000612492610100890160e08a016130ec565b6001600160a01b031614156124ea5780156124d0576124d06124ba60a0890160808a016130ec565b6124ca60e08a0160c08b016130ec565b836122f0565b604080516000808252602082019092529250925050612654565b600061250c6124ff60a08a0160808b016130ec565b6001600160a01b03161590565b90508015801561251c5750600082115b1561255b5761255b61253460a08a0160808b016130ec565b7f0000000000000000000000000000000000000000000000000000000000000000846129d7565b7f00000000000000000000000000000000000000000000000000000000000000006001600160a01b031663cf9a360482612596576000612598565b835b6101208b01356125af6101008d0160e08e016130ec565b6125bf60a08e0160808f016130ec565b8d60c00160208101906125d291906130ec565b888d8d6040518963ffffffff1660e01b81526004016125f797969594939291906137fc565b6000604051808303818588803b15801561261057600080fd5b505af1158015612624573d6000803e3d6000fd5b50505050506040513d6000823e601f3d908101601f1916820160405261264d919081019061315a565b9350935050505b94509492505050565b4260078190556040519081527fa78fdca214e4619ef34a695316d423f5b0d8274bc919d29733bf8f92ec8cbb7a906020015b60405180910390a1565b42600355600280546001600160a01b0319166001600160a01b0383169081179091556040517f6ab4d119f23076e8ad491bc65ce85f017fb0591dce08755ba8591059cc51737a90600090a250565b6004805460ff19168215159081179091556040519081527f243ebbb2f905234bbf0556bb38e1f7c23b09ffd2e441a16e58b844eb2ab7a39790602001612078565b6001600160a01b0381166127685760405162461bcd60e51b815260206004820152600760248201526623414c3a30303160c81b6044820152606401610691565b600083116127a25760405162461bcd60e51b815260206004820152600760248201526611a0a61d18181960c91b6044820152606401610691565b6127aa610645565b806127cd57506001600160a01b03811660009081526009602052604090205460ff165b6128035760405162461bcd60e51b815260206004820152600760248201526623414c3a30303360c81b6044820152606401610691565b61280b611e96565b8061282e57506001600160a01b0382166000908152600a602052604090205460ff165b6128645760405162461bcd60e51b815260206004820152600760248201526608d0530e8c0c0d60ca1b6044820152606401610691565b6001600160a01b0380821660009081526008602090815260408083209386168352929052908120805485929061289b908490613cad565b909155506128ab905082846120d1565b604080518281523360208201529194506001600160a01b0380851692908416917f4bd28ccd068c4853d24d35f727ef2a3fea11ce55e8d93461e45f785818e1e139910160405180910390a3505050565b4260058190556040519081527fa52048c5f468d21a62e4644ac4db19bcaa1a20f0cf37d163ba49c7217d35feb89060200161268f565b60006001600160a01b038216156129be576040516370a0823160e01b81523060048201526001600160a01b038316906370a082319060240160206040518083038186803b15801561298157600080fd5b505afa158015612995573d6000803e3d6000fd5b505050506040513d601f19601f820116820180604052508101906129b991906134c8565b61218c565b4792915050565b6129d184848484612b17565b50505050565b611e20838383612b82565b6000826001600160a01b03168260405160006040518083038185875af1925050503d8060008114612a2f576040519150601f19603f3d011682016040523d82523d6000602084013e612a34565b606091505b5050905080611e205760405162461bcd60e51b8152602060048201526008602482015267046a89c82746064760c31b6044820152606401610691565b6000612b0f612ad385805190602001206040517f19457468657265756d205369676e6564204d6573736167653a0a3332000000006020820152603c8101829052600090605c01604051602081830303815290604052805190602001209050919050565b84848080601f016020809104026020016040519081016040528093929190818152602001838380828437600092019190915250612bb292505050565b949350505050565b6040516001600160a01b03808516602483015283166044820152606481018290526129d19085906323b872dd60e01b906084015b60408051601f198184030181529190526020810180516001600160e01b03166001600160e01b031990931692909217909152612c56565b6040516001600160a01b038316602482015260448101829052611e2090849063a9059cbb60e01b90606401612b4b565b6000815160411415612be65760208201516040830151606084015160001a612bdc86828585612d28565b935050505061218c565b815160401415612c0e5760208201516040830151612c05858383612ed1565b9250505061218c565b60405162461bcd60e51b815260206004820152601f60248201527f45434453413a20696e76616c6964207369676e6174757265206c656e677468006044820152606401610691565b6000612cab826040518060400160405280602081526020017f5361666545524332303a206c6f772d6c6576656c2063616c6c206661696c6564815250856001600160a01b0316612efb9092919063ffffffff16565b805190915015611e205780806020019051810190612cc99190613140565b611e205760405162461bcd60e51b815260206004820152602a60248201527f5361666545524332303a204552433230206f7065726174696f6e20646964206e6044820152691bdd081cdd58d8d9595960b21b6064820152608401610691565b60007f7fffffffffffffffffffffffffffffff5d576e7357a4501ddfe92f46681b20a0821115612da55760405162461bcd60e51b815260206004820152602260248201527f45434453413a20696e76616c6964207369676e6174757265202773272076616c604482015261756560f01b6064820152608401610691565b8360ff16601b1480612dba57508360ff16601c145b612e115760405162461bcd60e51b815260206004820152602260248201527f45434453413a20696e76616c6964207369676e6174757265202776272076616c604482015261756560f01b6064820152608401610691565b6040805160008082526020820180845288905260ff871692820192909252606081018590526080810184905260019060a0016020604051602081039080840390855afa158015612e65573d6000803e3d6000fd5b5050604051601f1901519150506001600160a01b038116612ec85760405162461bcd60e51b815260206004820152601860248201527f45434453413a20696e76616c6964207369676e617475726500000000000000006044820152606401610691565b95945050505050565b60006001600160ff1b03821660ff83901c601b01612ef186828785612d28565b9695505050505050565b6060612b0f848460008585843b612f545760405162461bcd60e51b815260206004820152601d60248201527f416464726573733a2063616c6c20746f206e6f6e2d636f6e74726163740000006044820152606401610691565b600080866001600160a01b03168587604051612f7091906137e0565b60006040518083038185875af1925050503d8060008114612fad576040519150601f19603f3d011682016040523d82523d6000602084013e612fb2565b606091505b509150915061238b82828660608315612fcc5750816120ca565b825115612fdc5782518084602001fd5b8160405162461bcd60e51b8152600401610691919061384b565b604080516101e081018252600080825260208201819052918101829052606081018290526080810182905260a0810182905260c0810182905260e08101829052610100810182905261012081018290526101408101829052610160810182905261018081018290526101a081018290526101c081019190915290565b80356107aa81613d34565b805180151581146107aa57600080fd5b60008083601f84011261309e578182fd5b50813567ffffffffffffffff8111156130b5578182fd5b6020830191508360208285010111156130cd57600080fd5b9250929050565b60006101e082840312156130e6578081fd5b50919050565b6000602082840312156130fd578081fd5b813561218981613d34565b6000806040838503121561311a578081fd5b823561312581613d34565b9150602083013561313581613d34565b809150509250929050565b600060208284031215613151578081fd5b6120ca8261307d565b6000806040838503121561316c578182fd5b6131758361307d565b9150602083015167ffffffffffffffff80821115613191578283fd5b818501915085601f8301126131a4578283fd5b8151818111156131b6576131b6613d1e565b604051601f8201601f19908116603f011681019083821181831017156131de576131de613d1e565b816040528281528860208487010111156131f6578586fd5b613207836020830160208801613cdc565b80955050505050509250929050565b600060208284031215613227578081fd5b5035919050565b6000806000806000806000806000898b0361022081121561324d578586fd5b6101808082121561325c578687fd5b8b9a508a01359850506101a089013596506101c089013567ffffffffffffffff80821115613288578687fd5b6132948d838e0161308d565b90985096506101e08c01359150808211156132ad578586fd5b6132b98d838e0161308d565b90965094506102008c01359150808211156132d2578384fd5b506132df8c828d0161308d565b915080935050809150509295985092959850929598565b6000806000610200848603121561330b578283fd5b61331585856130d4565b92506101e084013567ffffffffffffffff811115613331578283fd5b61333d8682870161308d565b9497909650939450505050565b6000806000806000806102408789031215613363578182fd5b61336d88886130d4565b95506101e0870135945061020087013567ffffffffffffffff80821115613392578384fd5b61339e8a838b0161308d565b90965094506102208901359150808211156133b7578384fd5b506133c489828a0161308d565b979a9699509497509295939492505050565b60006101e082840312156133e8578081fd5b6133f0613c83565b6133f983613072565b815261340760208401613072565b602082015261341860408401613072565b604082015261342960608401613072565b606082015261343a60808401613072565b608082015261344b60a08401613072565b60a082015261345c60c08401613072565b60c082015261346d60e08401613072565b60e0820152610100838101359082015261012080840135908201526101408084013590820152610160808401359082015261018080840135908201526101a080840135908201526101c0928301359281019290925250919050565b6000602082840312156134d9578081fd5b5051919050565b600080604083850312156134f2578182fd5b82359150602083013561313581613d34565b600080600060608486031215613518578081fd5b83359250602084013561352a81613d34565b9150604084013561353a81613d34565b809150509250925092565b81835281816020850137506000828201602090810191909152601f909101601f19169091010190565b60008151808452613586816020860160208601613cdc565b601f01601f19169290920160200192915050565b6135b4826135a783613072565b6001600160a01b03169052565b6135c060208201613072565b6001600160a01b031660208301526135da60408201613072565b6001600160a01b031660408301526135f460608201613072565b6001600160a01b0316606083015261360e60808201613072565b6001600160a01b0316608083015261362860a08201613072565b6001600160a01b031660a083015261364260c08201613072565b6001600160a01b031660c083015261365c60e08201613072565b6001600160a01b031660e0830152610100818101359083015261012080820135908301526101408082013590830152610160808201359083015261018080820135908301526101a080820135908301526101c090810135910152565b80516001600160a01b0316825260208101516136df60208401826001600160a01b03169052565b5060408101516136fa60408401826001600160a01b03169052565b50606081015161371560608401826001600160a01b03169052565b50608081015161373060808401826001600160a01b03169052565b5060a081015161374b60a08401826001600160a01b03169052565b5060c081015161376660c08401826001600160a01b03169052565b5060e081015161378160e08401826001600160a01b03169052565b50610100818101519083015261012080820151908301526101408082015190830152610160808201519083015261018080820151908301526101a080820151908301526101c090810151910152565b8183823760009101908152919050565b600082516137f2818460208701613cdc565b9190910192915050565b8781526001600160a01b0387811660208301528681166040830152851660608201526080810184905260c060a0820181905260009061383e9083018486613545565b9998505050505050505050565b6020815260006120ca602083018461356e565b602080825260079082015266234f4f3a30323960c81b604082015260600190565b6020808252601f908201527f5265656e7472616e637947756172643a207265656e7472616e742063616c6c00604082015260600190565b61018081016138c8826135a785613072565b6138d460208401613072565b6001600160a01b031660208301526138ee60408401613072565b6001600160a01b0316604083015261390860608401613072565b6001600160a01b0316606083015261392260808401613072565b6001600160a01b0316608083015261393c60a08401613072565b6001600160a01b031660a083015261395660c08401613072565b6001600160a01b031660c083015261397060e08401613072565b6001600160a01b031660e083015261010083810135908301526101208084013590830152610140808401359083015261016092830135929091019190915290565b81516001600160a01b03168152610180810160208301516139dd60208401826001600160a01b03169052565b5060408301516139f860408401826001600160a01b03169052565b506060830151613a1360608401826001600160a01b03169052565b506080830151613a2e60808401826001600160a01b03169052565b5060a0830151613a4960a08401826001600160a01b03169052565b5060c0830151613a6460c08401826001600160a01b03169052565b5060e0830151613a7f60e08401826001600160a01b03169052565b5061010083810151908301526101208084015190830152610140808401519083015261016092830151929091019190915290565b60208152815160208201526000602083015160806040840152613ad960a084018261356e565b6040850151606085810191909152909401516001600160a01b03166080909301929092525090919050565b6020815281516020820152602082015160408201526000604083015160a06060840152613b3460c084018261356e565b6060850151608085810191909152909401516001600160a01b031660a0909301929092525090919050565b6102008101613b6e828561359a565b6001600160a01b03929092166101e09190910152919050565b60006102a0613b96838d61359a565b8a6101e084015280610200840152613bb18184018a8c613545565b9050828103610220840152613bc781888a613545565b9050851515610240840152828103610260840152613be5818661356e565b91505060018060a01b0383166102808301529a9950505050505050505050565b6101e0810161218c82846136b8565b6000610260613c23838c6136b8565b6001600160a01b038a166101e08401526102008301819052613c48818401898b613545565b9050828103610220840152613c5e818789613545565b9050828103610240840152613c74818587613545565b9b9a5050505050505050505050565b6040516101e0810167ffffffffffffffff81118282101715613ca757613ca7613d1e565b60405290565b60008219821115613cc057613cc0613d08565b500190565b600082821015613cd757613cd7613d08565b500390565b60005b83811015613cf7578181015183820152602001613cdf565b838111156129d15750506000910152565b634e487b7160e01b600052601160045260246000fd5b634e487b7160e01b600052604160045260246000fd5b6001600160a01b0381168114611c9557600080fdfea2646970667358221220f8a2a505932c3ff5ad86506c36385629563bb688654d6c9c778a1bef9faa79d764736f6c6343000804003360a060405234801561001057600080fd5b50604051610b2d380380610b2d83398101604081905261002f91610049565b600160005560601b6001600160601b031916608052610077565b60006020828403121561005a578081fd5b81516001600160a01b0381168114610070578182fd5b9392505050565b60805160601c610a9361009a600039600081816048015260a70152610a936000f3fe6080604052600436106100295760003560e01c806396f32fb81461002e578063cf9a360414610077575b600080fd5b34801561003a57600080fd5b506040516001600160a01b037f00000000000000000000000000000000000000000000000000000000000000001681526020015b60405180910390f35b61008a610085366004610822565b610098565b60405161006e9291906109c7565b60006060336001600160a01b037f000000000000000000000000000000000000000000000000000000000000000016146101045760405162461bcd60e51b8152602060048201526008602482015267234f544d3a30323760c01b60448201526064015b60405180910390fd5b6001600160a01b038716158061011f5761011f888a88610212565b600060608a3b1561019b578a6001600160a01b031683610140576000610142565b885b888860405161015292919061091f565b60006040518083038185875af1925050503d806000811461018f576040519150601f19603f3d011682016040523d82523d6000602084013e610194565b606091505b5090925090505b816101bb576101ab8a8a8a610262565b826101bb576101bb8a8c8a610286565b8b7fbf49bd2de448d90a19e0510ab1030fead50ebfc64a4f112ca42535ae79fbab798c8c8c8c8c8c888a6040516101f998979695949392919061094b565b60405180910390a2909b909a5098505050505050505050565b6001600160a01b0383166102525760405162461bcd60e51b815260206004820152600760248201526608d2504e8c0ccd60ca1b60448201526064016100fb565b61025d8383836102d1565b505050565b6001600160a01b0383161561027c5761025d8383836103cb565b61025d82826103d6565b6001600160a01b0383166102c65760405162461bcd60e51b815260206004820152600760248201526608d1104e8c0ccd60ca1b60448201526064016100fb565b61025d838383610464565b604051636eb1769f60e11b81523060048201526001600160a01b038381166024830152600091839186169063dd62ed3e9060440160206040518083038186803b15801561031d57600080fd5b505afa158015610331573d6000803e3d6000fd5b505050506040513d601f19601f8201168201806040525081019061035591906108db565b61035f91906109f5565b6040516001600160a01b0385166024820152604481018290529091506103c590859063095ea7b360e01b906064015b60408051601f198184030181529190526020810180516001600160e01b03166001600160e01b031990931692909217909152610586565b50505050565b61025d838383610658565b6000826001600160a01b03168260405160006040518083038185875af1925050503d8060008114610423576040519150601f19603f3d011682016040523d82523d6000602084013e610428565b606091505b505090508061025d5760405162461bcd60e51b8152602060048201526008602482015267046a89c82746064760c31b60448201526064016100fb565b604051636eb1769f60e11b81523060048201526001600160a01b0383811660248301526000919085169063dd62ed3e9060440160206040518083038186803b1580156104af57600080fd5b505afa1580156104c3573d6000803e3d6000fd5b505050506040513d601f19601f820116820180604052508101906104e791906108db565b90508181101561054b5760405162461bcd60e51b815260206004820152602960248201527f5361666545524332303a2064656372656173656420616c6c6f77616e63652062604482015268656c6f77207a65726f60b81b60648201526084016100fb565b6040516001600160a01b0384166024820152828203604482018190529061057f90869063095ea7b360e01b9060640161038e565b5050505050565b60006105db826040518060400160405280602081526020017f5361666545524332303a206c6f772d6c6576656c2063616c6c206661696c6564815250856001600160a01b03166106889092919063ffffffff16565b80519091501561025d57808060200190518101906105f99190610802565b61025d5760405162461bcd60e51b815260206004820152602a60248201527f5361666545524332303a204552433230206f7065726174696f6e20646964206e6044820152691bdd081cdd58d8d9595960b21b60648201526084016100fb565b6040516001600160a01b03831660248201526044810182905261025d90849063a9059cbb60e01b9060640161038e565b606061069784846000856106a1565b90505b9392505050565b6060824710156107025760405162461bcd60e51b815260206004820152602660248201527f416464726573733a20696e73756666696369656e742062616c616e636520666f6044820152651c8818d85b1b60d21b60648201526084016100fb565b843b6107505760405162461bcd60e51b815260206004820152601d60248201527f416464726573733a2063616c6c20746f206e6f6e2d636f6e747261637400000060448201526064016100fb565b600080866001600160a01b0316858760405161076c919061092f565b60006040518083038185875af1925050503d80600081146107a9576040519150601f19603f3d011682016040523d82523d6000602084013e6107ae565b606091505b50915091506107be8282866107c9565b979650505050505050565b606083156107d857508161069a565b8251156107e85782518084602001fd5b8160405162461bcd60e51b81526004016100fb91906109e2565b600060208284031215610813578081fd5b8151801515811461069a578182fd5b600080600080600080600060c0888a03121561083c578283fd5b87359650602088013561084e81610a45565b9550604088013561085e81610a45565b9450606088013561086e81610a45565b93506080880135925060a088013567ffffffffffffffff80821115610891578384fd5b818a0191508a601f8301126108a4578384fd5b8135818111156108b2578485fd5b8b60208285010111156108c3578485fd5b60208301945080935050505092959891949750929550565b6000602082840312156108ec578081fd5b5051919050565b6000815180845261090b816020860160208601610a19565b601f01601f19169290920160200192915050565b8183823760009101908152919050565b60008251610941818460208701610a19565b9190910192915050565b6001600160a01b0389811682528881166020830152871660408201526060810186905260e0608082018190528101849052600061010085878285013781818785010152601f19601f8701168301818482030160a08501526109ae828201876108f3565b9250505082151560c08301529998505050505050505050565b821515815260406020820152600061069760408301846108f3565b60208152600061069a60208301846108f3565b60008219821115610a1457634e487b7160e01b81526011600452602481fd5b500190565b60005b83811015610a34578181015183820152602001610a1c565b838111156103c55750506000910152565b6001600160a01b0381168114610a5a57600080fd5b5056fea264697066735822122054fb00728b764b8a8ec83285f0d93b770ffecaa2795a78606c7db0bb4704565164736f6c63430008040033",
  "devdoc": {
    "author": "Connext <support@connext.network>",
    "kind": "dev",
    "methods": {
      "addAssetId(address)": {
        "params": {
          "assetId": "AssetId to add"
        }
      },
      "addLiquidity(uint256,address)": {
        "params": {
          "amount": "The amount of liquidity to add for the router",
          "assetId": "The address (or `address(0)` if native asset) of the                asset you're adding liquidity for"
        }
      },
      "addLiquidityFor(uint256,address,address)": {
        "params": {
          "amount": "The amount of liquidity to add for the router",
          "assetId": "The address (or `address(0)` if native asset) of the                asset you're adding liquidity for",
          "router": "The router you are adding liquidity on behalf of"
        }
      },
      "addRouter(address)": {
        "params": {
          "router": "Router address to add"
        }
      },
      "cancel((address,address,address,address,address,address,address,address,bytes32,bytes32,uint256,uint256,uint256,uint256,uint256),bytes)": {
        "params": {
          "signature": "The user's signature that allows a transaction to be                  cancelled by a relayer",
          "txData": "All of the data (invariant and variant) for a crosschain               transaction. The variant data provided is checked against               what was stored when the `prepare` function was called."
        }
      },
      "fulfill((address,address,address,address,address,address,address,address,bytes32,bytes32,uint256,uint256,uint256,uint256,uint256),uint256,bytes,bytes)": {
        "params": {
          "callData": "The calldata to be sent to and executed by the                  `FulfillHelper`",
          "relayerFee": "The fee that should go to the relayer when they are                   calling the function on the receiving chain for the user",
          "signature": "The users signature on the transaction id + fee that                  can be used by the router to unlock the transaction on                   the sending chain",
          "txData": "All of the data (invariant and variant) for a crosschain               transaction. The variant data provided is checked against               what was stored when the `prepare` function was called."
        }
      },
      "prepare((address,address,address,address,address,address,address,address,uint256,uint256,bytes32,bytes32),uint256,uint256,bytes,bytes,bytes)": {
        "params": {
          "amount": "The amount of the transaction on this chain",
          "bidSignature": "The signature of the bidder on the encoded bid for                     this transaction. Only used within the function for                     event emission. The validity of the bid and                     bidSignature are enforced offchain",
          "encodedBid": "The encoded bid that was accepted by the user for this                   crosschain transfer. It is supplied as a param to the                   function but is only used in event emission",
          "encryptedCallData": "The calldata to be executed when the tx is                          fulfilled. Used in the function to allow the user                          to reconstruct the tx from events. Hash is stored                          onchain to prevent shenanigans.",
          "expiry": "The block.timestamp when the transaction will no longer be               fulfillable and is freely cancellable on this chain",
          "invariantData": "The data for a crosschain transaction that will                      not change between sending and receiving chains.                      The hash of this data is used as the key to store                       the inforamtion that does change between chains                       (amount,expiry,preparedBlock) for verification"
        }
      },
      "removeAssetId(address)": {
        "params": {
          "assetId": "AssetId to remove"
        }
      },
      "removeLiquidity(uint256,address,address)": {
        "params": {
          "amount": "The amount of liquidity to remove for the router",
          "assetId": "The address (or `address(0)` if native asset) of the                asset you're removing liquidity for",
          "recipient": "The address that will receive the liquidity being removed"
        }
      },
      "removeRouter(address)": {
        "params": {
          "router": "Router address to remove"
        }
      }
    },
    "stateVariables": {
      "MAX_TIMEOUT": {
        "details": "Maximum timeout (will be the highest on the sending chain)"
      },
      "MIN_TIMEOUT": {
        "details": "Minimum timeout (will be the lowest on the receiving chain)"
      },
      "approvedAssets": {
        "details": "Mapping of allowed assetIds on same chain as contract"
      },
      "approvedRouters": {
        "details": "Mapping of allowed router addresses. Must be added to both      sending and receiving chains when forwarding a transfer."
      },
      "chainId": {
        "details": "The stored chain id of the contract, may be passed in to avoid any       evm issues"
      },
      "interpreter": {
        "details": "The external contract that will execute crosschain      calldata"
      },
      "routerBalances": {
        "details": "Mapping of router to balance specific to asset"
      },
      "variantTransactionData": {
        "details": "Mapping of hash of `InvariantTransactionData` to the hash      of the `VariantTransactionData`"
      }
    },
    "title": "TransactionManager",
    "version": 1
  },
  "userdoc": {
    "kind": "user",
    "methods": {
      "acceptProposedOwner()": {
        "notice": "Transfers ownership of the contract to a new account (`newOwner`). Can only be called by the current owner."
      },
      "addAssetId(address)": {
        "notice": "Used to add assets on same chain as contract that can         be transferred."
      },
      "addLiquidity(uint256,address)": {
        "notice": "This is used by any router to increase their available         liquidity for a given asset."
      },
      "addLiquidityFor(uint256,address,address)": {
        "notice": "This is used by anyone to increase a router's available         liquidity for a given asset."
      },
      "addRouter(address)": {
        "notice": "Used to add routers that can transact crosschain"
      },
      "assetOwnershipTimestamp()": {
        "notice": "Returns the timestamp when asset ownership was last proposed to be renounced"
      },
      "cancel((address,address,address,address,address,address,address,address,bytes32,bytes32,uint256,uint256,uint256,uint256,uint256),bytes)": {
        "notice": "Any crosschain transaction can be cancelled after it has been         created to prevent indefinite lock up of funds. After the         transaction has expired, anyone can cancel it. Before the         expiry, only the recipient of the funds on the given chain is         able to cancel. On the sending chain, this means only the router         is able to cancel before the expiry, while only the user can         prematurely cancel on the receiving chain."
      },
      "delay()": {
        "notice": "Returns the delay period before a new owner can be accepted."
      },
      "fulfill((address,address,address,address,address,address,address,address,bytes32,bytes32,uint256,uint256,uint256,uint256,uint256),uint256,bytes,bytes)": {
        "notice": "This function completes a crosschain transaction. When called on         the receiving chain, the user reveals their signature on the         transactionId and is sent the amount corresponding to the number         of shares the router locked when calling `prepare`. The router          then uses this signature to unlock the corresponding funds on the          receiving chain, which are then added back to their available          liquidity. The user includes a relayer fee since it is not          assumed they will have gas on the receiving chain. This function          *must* be called before the transaction expiry has elapsed."
      },
      "getChainId()": {
        "notice": "Gets the chainId for this contract. If not specified during init         will use the block.chainId"
      },
      "getStoredChainId()": {
        "notice": "Allows us to get the chainId that this contract has stored"
      },
      "isAssetOwnershipRenounced()": {
        "notice": "Indicates if the ownership of the asset whitelist has been renounced"
      },
      "isRouterOwnershipRenounced()": {
        "notice": "Indicates if the ownership of the router whitelist has been renounced"
      },
      "owner()": {
        "notice": "Returns the address of the current owner."
      },
      "prepare((address,address,address,address,address,address,address,address,uint256,uint256,bytes32,bytes32),uint256,uint256,bytes,bytes,bytes)": {
        "notice": "This function creates a crosschain transaction. When called on         the sending chain, the user is expected to lock up funds. When         called on the receiving chain, the router deducts the transfer         amount from the available liquidity. The majority of the         information about a given transfer does not change between chains,         with three notable exceptions: `amount`, `expiry`, and          `preparedBlock`. The `amount` and `expiry` are decremented         between sending and receiving chains to provide an incentive for          the router to complete the transaction and time for the router to         fulfill the transaction on the sending chain after the unlocking         signature is revealed, respectively."
      },
      "proposeAssetOwnershipRenunciation()": {
        "notice": "Indicates if the ownership of the asset whitelist has been renounced"
      },
      "proposeNewOwner(address)": {
        "notice": "Sets the timestamp for an owner to be proposed, and sets the newly proposed owner as step 1 in a 2-step process"
      },
      "proposeRouterOwnershipRenunciation()": {
        "notice": "Indicates if the ownership of the router whitelist has been renounced"
      },
      "proposed()": {
        "notice": "Returns the address of the proposed owner."
      },
      "proposedTimestamp()": {
        "notice": "Returns the address of the proposed owner."
      },
      "removeAssetId(address)": {
        "notice": "Used to remove assets on same chain as contract that can         be transferred."
      },
      "removeLiquidity(uint256,address,address)": {
        "notice": "This is used by any router to decrease their available         liquidity for a given asset."
      },
      "removeRouter(address)": {
        "notice": "Used to remove routers that can transact crosschain"
      },
      "renounceAssetOwnership()": {
        "notice": "Indicates if the ownership of the asset whitelist has been renounced"
      },
      "renounceOwnership()": {
        "notice": "Renounces ownership of the contract after a delay"
      },
      "renounceRouterOwnership()": {
        "notice": "Indicates if the ownership of the asset whitelist has been renounced"
      },
      "renounced()": {
        "notice": "Indicates if the ownership has been renounced() by checking if current owner is address(0)"
      },
      "routerOwnershipTimestamp()": {
        "notice": "Returns the timestamp when router ownership was last proposed to be renounced"
      }
    },
    "notice": "This contract holds the logic to facilitate crosschain transactions.         Transactions go through three phases in the happy case:         1. Route Auction (offchain): User broadcasts to our network          signalling their desired route. Routers respond with sealed bids          containing commitments to fulfilling the transaction within a          certain time and price range.         2. Prepare: Once the auction is completed, the transaction can be          prepared. The user submits a transaction to `TransactionManager`          contract on sender-side chain containing router's signed bid. This          transaction locks up the users funds on the sending chain. Upon          detecting an event containing their signed bid from the chain,          router submits the same transaction to `TransactionManager` on the          receiver-side chain, and locks up a corresponding amount of          liquidity. The amount locked on the receiving chain is `sending          amount - auction fee` so the router is incentivized to complete the          transaction.         3. Fulfill: Upon detecting the `TransactionPrepared` event on the          receiver-side chain, the user signs a message and sends it to a          relayer, who will earn a fee for submission. The relayer (which may          be the router) then submits the message to the `TransactionManager`          to complete their transaction on receiver-side chain and claim the          funds locked by the router. A relayer is used here to allow users          to submit transactions with arbitrary calldata on the receiving          chain without needing gas to do so. The router then submits the          same signed message and completes transaction on sender-side,          unlocking the original `amount`.         If a transaction is not fulfilled within a fixed timeout, it          reverts and can be reclaimed by the party that called `prepare` on          each chain (initiator). Additionally, transactions can be cancelled          unilaterally by the person owed funds on that chain (router for          sending chain, user for receiving chain) prior to expiry.",
    "version": 1
  },
  "storageLayout": {
    "storage": [
      {
        "astId": 114,
        "contract": "contracts/TransactionManager.sol:TransactionManager",
        "label": "_status",
        "offset": 0,
        "slot": "0",
        "type": "t_uint256"
      },
      {
        "astId": 1521,
        "contract": "contracts/TransactionManager.sol:TransactionManager",
        "label": "_owner",
        "offset": 0,
        "slot": "1",
        "type": "t_address"
      },
      {
        "astId": 1523,
        "contract": "contracts/TransactionManager.sol:TransactionManager",
        "label": "_proposed",
        "offset": 0,
        "slot": "2",
        "type": "t_address"
      },
      {
        "astId": 1525,
        "contract": "contracts/TransactionManager.sol:TransactionManager",
        "label": "_proposedOwnershipTimestamp",
        "offset": 0,
        "slot": "3",
        "type": "t_uint256"
      },
      {
        "astId": 1527,
        "contract": "contracts/TransactionManager.sol:TransactionManager",
        "label": "_routerOwnershipRenounced",
        "offset": 0,
        "slot": "4",
        "type": "t_bool"
      },
      {
        "astId": 1529,
        "contract": "contracts/TransactionManager.sol:TransactionManager",
        "label": "_routerOwnershipTimestamp",
        "offset": 0,
        "slot": "5",
        "type": "t_uint256"
      },
      {
        "astId": 1531,
        "contract": "contracts/TransactionManager.sol:TransactionManager",
        "label": "_assetOwnershipRenounced",
        "offset": 0,
        "slot": "6",
        "type": "t_bool"
      },
      {
        "astId": 1533,
        "contract": "contracts/TransactionManager.sol:TransactionManager",
        "label": "_assetOwnershipTimestamp",
        "offset": 0,
        "slot": "7",
        "type": "t_uint256"
      },
      {
        "astId": 1971,
        "contract": "contracts/TransactionManager.sol:TransactionManager",
        "label": "routerBalances",
        "offset": 0,
        "slot": "8",
        "type": "t_mapping(t_address,t_mapping(t_address,t_uint256))"
      },
      {
        "astId": 1976,
        "contract": "contracts/TransactionManager.sol:TransactionManager",
        "label": "approvedRouters",
        "offset": 0,
        "slot": "9",
        "type": "t_mapping(t_address,t_bool)"
      },
      {
        "astId": 1981,
        "contract": "contracts/TransactionManager.sol:TransactionManager",
        "label": "approvedAssets",
        "offset": 0,
        "slot": "10",
        "type": "t_mapping(t_address,t_bool)"
      },
      {
        "astId": 1986,
        "contract": "contracts/TransactionManager.sol:TransactionManager",
        "label": "variantTransactionData",
        "offset": 0,
        "slot": "11",
        "type": "t_mapping(t_bytes32,t_bytes32)"
      }
    ],
    "types": {
      "t_address": {
        "encoding": "inplace",
        "label": "address",
        "numberOfBytes": "20"
      },
      "t_bool": {
        "encoding": "inplace",
        "label": "bool",
        "numberOfBytes": "1"
      },
      "t_bytes32": {
        "encoding": "inplace",
        "label": "bytes32",
        "numberOfBytes": "32"
      },
      "t_mapping(t_address,t_bool)": {
        "encoding": "mapping",
        "key": "t_address",
        "label": "mapping(address => bool)",
        "numberOfBytes": "32",
        "value": "t_bool"
      },
      "t_mapping(t_address,t_mapping(t_address,t_uint256))": {
        "encoding": "mapping",
        "key": "t_address",
        "label": "mapping(address => mapping(address => uint256))",
        "numberOfBytes": "32",
        "value": "t_mapping(t_address,t_uint256)"
      },
      "t_mapping(t_address,t_uint256)": {
        "encoding": "mapping",
        "key": "t_address",
        "label": "mapping(address => uint256)",
        "numberOfBytes": "32",
        "value": "t_uint256"
      },
      "t_mapping(t_bytes32,t_bytes32)": {
        "encoding": "mapping",
        "key": "t_bytes32",
        "label": "mapping(bytes32 => bytes32)",
        "numberOfBytes": "32",
        "value": "t_bytes32"
      },
      "t_uint256": {
        "encoding": "inplace",
        "label": "uint256",
        "numberOfBytes": "32"
      }
    }
  }
}