{
  "address": "0x1883208f1e7d1b0e0Ad7e7B841021d764dbc2c92",
  "abi": [
    {
      "inputs": [
        {
          "internalType": "uint32",
          "name": "_domain",
          "type": "uint32"
        },
        {
          "internalType": "uint32",
          "name": "_mirrorDomain",
          "type": "uint32"
        },
        {
          "internalType": "address",
          "name": "_amb",
          "type": "address"
        },
        {
          "internalType": "address",
          "name": "_rootManager",
          "type": "address"
        },
        {
          "internalType": "address",
          "name": "_mirrorConnector",
          "type": "address"
        },
        {
          "internalType": "uint256",
          "name": "_mirrorGas",
          "type": "uint256"
        },
        {
          "internalType": "uint256",
          "name": "_processGas",
          "type": "uint256"
        },
        {
          "internalType": "uint256",
          "name": "_reserveGas",
          "type": "uint256"
        },
        {
          "internalType": "uint256",
          "name": "_delayBlocks",
          "type": "uint256"
        },
        {
          "internalType": "address",
          "name": "_merkle",
          "type": "address"
        },
        {
          "internalType": "address",
          "name": "_watcherManager",
          "type": "address"
        }
      ],
      "stateMutability": "nonpayable",
      "type": "constructor"
    },
    {
      "inputs": [],
      "name": "NotCrossChainCall",
      "type": "error"
    },
    {
      "inputs": [],
      "name": "ProposedOwnable__acceptProposedOwner_delayNotElapsed",
      "type": "error"
    },
    {
      "inputs": [],
      "name": "ProposedOwnable__onlyOwner_notOwner",
      "type": "error"
    },
    {
      "inputs": [],
      "name": "ProposedOwnable__onlyProposed_notProposedOwner",
      "type": "error"
    },
    {
      "inputs": [],
      "name": "ProposedOwnable__proposeNewOwner_invalidProposal",
      "type": "error"
    },
    {
      "inputs": [],
      "name": "ProposedOwnable__proposeNewOwner_noOwnershipChange",
      "type": "error"
    },
    {
      "inputs": [],
      "name": "ProposedOwnable__renounceOwnership_delayNotElapsed",
      "type": "error"
    },
    {
      "inputs": [],
      "name": "ProposedOwnable__renounceOwnership_invalidProposal",
      "type": "error"
    },
    {
      "inputs": [],
      "name": "ProposedOwnable__renounceOwnership_noProposal",
      "type": "error"
    },
    {
      "anonymous": false,
      "inputs": [
        {
          "indexed": false,
          "internalType": "bytes32",
          "name": "current",
          "type": "bytes32"
        },
        {
          "indexed": false,
          "internalType": "bytes32",
          "name": "pending",
          "type": "bytes32"
        }
      ],
      "name": "AggregateRootsUpdated",
      "type": "event"
    },
    {
      "anonymous": false,
      "inputs": [
        {
          "indexed": false,
          "internalType": "bytes32",
          "name": "leaf",
          "type": "bytes32"
        },
        {
          "indexed": false,
          "internalType": "uint256",
          "name": "index",
          "type": "uint256"
        },
        {
          "indexed": false,
          "internalType": "bytes32",
          "name": "root",
          "type": "bytes32"
        },
        {
          "indexed": false,
          "internalType": "bytes",
          "name": "message",
          "type": "bytes"
        }
      ],
      "name": "Dispatch",
      "type": "event"
    },
    {
      "anonymous": false,
      "inputs": [
        {
          "indexed": false,
          "internalType": "bytes",
          "name": "data",
          "type": "bytes"
        },
        {
          "indexed": false,
          "internalType": "address",
          "name": "caller",
          "type": "address"
        }
      ],
      "name": "MessageProcessed",
      "type": "event"
    },
    {
      "anonymous": false,
      "inputs": [
        {
          "indexed": false,
          "internalType": "bytes",
          "name": "data",
          "type": "bytes"
        },
        {
          "indexed": false,
          "internalType": "address",
          "name": "caller",
          "type": "address"
        }
      ],
      "name": "MessageSent",
      "type": "event"
    },
    {
      "anonymous": false,
      "inputs": [
        {
          "indexed": false,
          "internalType": "address",
          "name": "previous",
          "type": "address"
        },
        {
          "indexed": false,
          "internalType": "address",
          "name": "current",
          "type": "address"
        }
      ],
      "name": "MirrorConnectorUpdated",
      "type": "event"
    },
    {
      "anonymous": false,
      "inputs": [
        {
          "indexed": false,
          "internalType": "uint256",
          "name": "previous",
          "type": "uint256"
        },
        {
          "indexed": false,
          "internalType": "uint256",
          "name": "current",
          "type": "uint256"
        }
      ],
      "name": "MirrorGasUpdated",
      "type": "event"
    },
    {
      "anonymous": false,
      "inputs": [
        {
          "indexed": true,
          "internalType": "uint32",
          "name": "domain",
          "type": "uint32"
        },
        {
          "indexed": true,
          "internalType": "uint32",
          "name": "mirrorDomain",
          "type": "uint32"
        },
        {
          "indexed": false,
          "internalType": "address",
          "name": "amb",
          "type": "address"
        },
        {
          "indexed": false,
          "internalType": "address",
          "name": "rootManager",
          "type": "address"
        },
        {
          "indexed": false,
          "internalType": "address",
          "name": "mirrorConnector",
          "type": "address"
        }
      ],
      "name": "NewConnector",
      "type": "event"
    },
    {
      "anonymous": false,
      "inputs": [
        {
          "indexed": true,
          "internalType": "address",
          "name": "proposedOwner",
          "type": "address"
        }
      ],
      "name": "OwnershipProposed",
      "type": "event"
    },
    {
      "anonymous": false,
      "inputs": [
        {
          "indexed": true,
          "internalType": "address",
          "name": "previousOwner",
          "type": "address"
        },
        {
          "indexed": true,
          "internalType": "address",
          "name": "newOwner",
          "type": "address"
        }
      ],
      "name": "OwnershipTransferred",
      "type": "event"
    },
    {
      "anonymous": false,
      "inputs": [
        {
          "indexed": false,
          "internalType": "bytes32",
          "name": "leaf",
          "type": "bytes32"
        },
        {
          "indexed": false,
          "internalType": "bool",
          "name": "success",
          "type": "bool"
        },
        {
          "indexed": false,
          "internalType": "bytes",
          "name": "returnData",
          "type": "bytes"
        }
      ],
      "name": "Process",
      "type": "event"
    },
    {
      "anonymous": false,
      "inputs": [
        {
          "indexed": false,
          "internalType": "address",
          "name": "sender",
          "type": "address"
        }
      ],
      "name": "SenderAdded",
      "type": "event"
    },
    {
      "anonymous": false,
      "inputs": [
        {
          "indexed": false,
          "internalType": "address",
          "name": "sender",
          "type": "address"
        }
      ],
      "name": "SenderRemoved",
      "type": "event"
    },
    {
      "anonymous": false,
      "inputs": [
        {
          "indexed": false,
          "internalType": "address",
          "name": "watcherManager",
          "type": "address"
        }
      ],
      "name": "WatcherManagerChanged",
      "type": "event"
    },
    {
      "inputs": [],
      "name": "AMB",
      "outputs": [
        {
          "internalType": "address",
          "name": "",
          "type": "address"
        }
      ],
      "stateMutability": "view",
      "type": "function"
    },
    {
      "inputs": [],
      "name": "DOMAIN",
      "outputs": [
        {
          "internalType": "uint32",
          "name": "",
          "type": "uint32"
        }
      ],
      "stateMutability": "view",
      "type": "function"
    },
    {
      "inputs": [],
      "name": "MERKLE",
      "outputs": [
        {
          "internalType": "contract MerkleTreeManager",
          "name": "",
          "type": "address"
        }
      ],
      "stateMutability": "view",
      "type": "function"
    },
    {
      "inputs": [],
      "name": "MIRROR_DOMAIN",
      "outputs": [
        {
          "internalType": "uint32",
          "name": "",
          "type": "uint32"
        }
      ],
      "stateMutability": "view",
      "type": "function"
    },
    {
      "inputs": [],
      "name": "PROCESS_GAS",
      "outputs": [
        {
          "internalType": "uint256",
          "name": "",
          "type": "uint256"
        }
      ],
      "stateMutability": "view",
      "type": "function"
    },
    {
      "inputs": [],
      "name": "RESERVE_GAS",
      "outputs": [
        {
          "internalType": "uint256",
          "name": "",
          "type": "uint256"
        }
      ],
      "stateMutability": "view",
      "type": "function"
    },
    {
      "inputs": [],
      "name": "ROOT_MANAGER",
      "outputs": [
        {
          "internalType": "address",
          "name": "",
          "type": "address"
        }
      ],
      "stateMutability": "view",
      "type": "function"
    },
    {
      "inputs": [],
      "name": "acceptProposedOwner",
      "outputs": [],
      "stateMutability": "nonpayable",
      "type": "function"
    },
    {
      "inputs": [
        {
          "internalType": "address",
          "name": "_sender",
          "type": "address"
        }
      ],
      "name": "addSender",
      "outputs": [],
      "stateMutability": "nonpayable",
      "type": "function"
    },
    {
      "inputs": [],
      "name": "aggregateRootCurrent",
      "outputs": [
        {
          "internalType": "bytes32",
          "name": "",
          "type": "bytes32"
        }
      ],
      "stateMutability": "view",
      "type": "function"
    },
    {
      "inputs": [],
      "name": "aggregateRootPending",
      "outputs": [
        {
          "internalType": "bytes32",
          "name": "",
          "type": "bytes32"
        }
      ],
      "stateMutability": "view",
      "type": "function"
    },
    {
      "inputs": [],
      "name": "aggregateRootPendingBlock",
      "outputs": [
        {
          "internalType": "uint256",
          "name": "",
          "type": "uint256"
        }
      ],
      "stateMutability": "view",
      "type": "function"
    },
    {
      "inputs": [],
      "name": "delay",
      "outputs": [
        {
          "internalType": "uint256",
          "name": "",
          "type": "uint256"
        }
      ],
      "stateMutability": "view",
      "type": "function"
    },
    {
      "inputs": [],
      "name": "delayBlocks",
      "outputs": [
        {
          "internalType": "uint256",
          "name": "",
          "type": "uint256"
        }
      ],
      "stateMutability": "view",
      "type": "function"
    },
    {
      "inputs": [
        {
          "internalType": "uint32",
          "name": "_destinationDomain",
          "type": "uint32"
        },
        {
          "internalType": "bytes32",
          "name": "_recipientAddress",
          "type": "bytes32"
        },
        {
          "internalType": "bytes",
          "name": "_messageBody",
          "type": "bytes"
        }
      ],
      "name": "dispatch",
      "outputs": [
        {
          "internalType": "bytes32",
          "name": "",
          "type": "bytes32"
        }
      ],
      "stateMutability": "nonpayable",
      "type": "function"
    },
    {
      "inputs": [],
      "name": "home",
      "outputs": [
        {
          "internalType": "contract IOutbox",
          "name": "",
          "type": "address"
        }
      ],
      "stateMutability": "view",
      "type": "function"
    },
    {
      "inputs": [],
      "name": "isPaused",
      "outputs": [
        {
          "internalType": "bool",
          "name": "",
          "type": "bool"
        }
      ],
      "stateMutability": "view",
      "type": "function"
    },
    {
      "inputs": [
        {
          "internalType": "address",
          "name": "_potentialReplica",
          "type": "address"
        }
      ],
      "name": "isReplica",
      "outputs": [
        {
          "internalType": "bool",
          "name": "",
          "type": "bool"
        }
      ],
      "stateMutability": "view",
      "type": "function"
    },
    {
      "inputs": [],
      "name": "localDomain",
      "outputs": [
        {
          "internalType": "uint32",
          "name": "",
          "type": "uint32"
        }
      ],
      "stateMutability": "view",
      "type": "function"
    },
    {
      "inputs": [
        {
          "internalType": "bytes32",
          "name": "",
          "type": "bytes32"
        }
      ],
      "name": "messages",
      "outputs": [
        {
          "internalType": "enum SpokeConnector.MessageStatus",
          "name": "",
          "type": "uint8"
        }
      ],
      "stateMutability": "view",
      "type": "function"
    },
    {
      "inputs": [],
      "name": "mirrorConnector",
      "outputs": [
        {
          "internalType": "address",
          "name": "",
          "type": "address"
        }
      ],
      "stateMutability": "view",
      "type": "function"
    },
    {
      "inputs": [],
      "name": "mirrorGas",
      "outputs": [
        {
          "internalType": "uint256",
          "name": "",
          "type": "uint256"
        }
      ],
      "stateMutability": "view",
      "type": "function"
    },
    {
      "inputs": [
        {
          "internalType": "uint32",
          "name": "",
          "type": "uint32"
        }
      ],
      "name": "nonces",
      "outputs": [
        {
          "internalType": "uint32",
          "name": "",
          "type": "uint32"
        }
      ],
      "stateMutability": "view",
      "type": "function"
    },
    {
      "inputs": [],
      "name": "outboundRoot",
      "outputs": [
        {
          "internalType": "bytes32",
          "name": "",
          "type": "bytes32"
        }
      ],
      "stateMutability": "view",
      "type": "function"
    },
    {
      "inputs": [],
      "name": "owner",
      "outputs": [
        {
          "internalType": "address",
          "name": "",
          "type": "address"
        }
      ],
      "stateMutability": "view",
      "type": "function"
    },
    {
      "inputs": [
        {
          "internalType": "bytes",
          "name": "_data",
          "type": "bytes"
        }
      ],
      "name": "processMessage",
      "outputs": [],
      "stateMutability": "nonpayable",
      "type": "function"
    },
    {
      "inputs": [
        {
          "internalType": "address",
          "name": "newlyProposed",
          "type": "address"
        }
      ],
      "name": "proposeNewOwner",
      "outputs": [],
      "stateMutability": "nonpayable",
      "type": "function"
    },
    {
      "inputs": [],
      "name": "proposed",
      "outputs": [
        {
          "internalType": "address",
          "name": "",
          "type": "address"
        }
      ],
      "stateMutability": "view",
      "type": "function"
    },
    {
      "inputs": [],
      "name": "proposedTimestamp",
      "outputs": [
        {
          "internalType": "uint256",
          "name": "",
          "type": "uint256"
        }
      ],
      "stateMutability": "view",
      "type": "function"
    },
    {
      "inputs": [
        {
          "components": [
            {
              "internalType": "bytes",
              "name": "message",
              "type": "bytes"
            },
            {
              "internalType": "bytes32[32]",
              "name": "path",
              "type": "bytes32[32]"
            },
            {
              "internalType": "uint256",
              "name": "index",
              "type": "uint256"
            }
          ],
          "internalType": "struct SpokeConnector.Proof[]",
          "name": "_proofs",
          "type": "tuple[]"
        },
        {
          "internalType": "bytes32[32]",
          "name": "_aggregatorPath",
          "type": "bytes32[32]"
        },
        {
          "internalType": "uint256",
          "name": "_aggregatorIndex",
          "type": "uint256"
        }
      ],
      "name": "proveAndProcess",
      "outputs": [],
      "stateMutability": "nonpayable",
      "type": "function"
    },
    {
      "inputs": [
        {
          "internalType": "bytes32",
          "name": "",
          "type": "bytes32"
        }
      ],
      "name": "provenRoots",
      "outputs": [
        {
          "internalType": "bool",
          "name": "",
          "type": "bool"
        }
      ],
      "stateMutability": "view",
      "type": "function"
    },
    {
      "inputs": [
        {
          "internalType": "address",
          "name": "_sender",
          "type": "address"
        }
      ],
      "name": "removeSender",
      "outputs": [],
      "stateMutability": "nonpayable",
      "type": "function"
    },
    {
      "inputs": [],
      "name": "renounceOwnership",
      "outputs": [],
      "stateMutability": "nonpayable",
      "type": "function"
    },
    {
      "inputs": [],
      "name": "renounced",
      "outputs": [
        {
          "internalType": "bool",
          "name": "",
          "type": "bool"
        }
      ],
      "stateMutability": "view",
      "type": "function"
    },
    {
      "inputs": [],
      "name": "send",
      "outputs": [],
      "stateMutability": "nonpayable",
      "type": "function"
    },
    {
      "inputs": [
        {
          "internalType": "bytes32",
          "name": "_current",
          "type": "bytes32"
        },
        {
          "internalType": "bytes32",
          "name": "_pending",
          "type": "bytes32"
        }
      ],
      "name": "setAggregateRoots",
      "outputs": [],
      "stateMutability": "nonpayable",
      "type": "function"
    },
    {
      "inputs": [
        {
          "internalType": "uint256",
          "name": "_delayBlocks",
          "type": "uint256"
        }
      ],
      "name": "setDelayBlocks",
      "outputs": [],
      "stateMutability": "nonpayable",
      "type": "function"
    },
    {
      "inputs": [
        {
          "internalType": "address",
          "name": "_mirrorConnector",
          "type": "address"
        }
      ],
      "name": "setMirrorConnector",
      "outputs": [],
      "stateMutability": "nonpayable",
      "type": "function"
    },
    {
      "inputs": [
        {
          "internalType": "uint256",
          "name": "_mirrorGas",
          "type": "uint256"
        }
      ],
      "name": "setMirrorGas",
      "outputs": [],
      "stateMutability": "nonpayable",
      "type": "function"
    },
    {
      "inputs": [
        {
          "internalType": "address",
          "name": "_watcherManager",
          "type": "address"
        }
      ],
      "name": "setWatcherManager",
      "outputs": [],
      "stateMutability": "nonpayable",
      "type": "function"
    },
    {
      "inputs": [
        {
          "internalType": "bool",
          "name": "paused",
          "type": "bool"
        }
      ],
      "name": "setWatcherPaused",
      "outputs": [],
      "stateMutability": "nonpayable",
      "type": "function"
    },
    {
      "inputs": [
        {
          "internalType": "address",
          "name": "_expected",
          "type": "address"
        }
      ],
      "name": "verifySender",
      "outputs": [
        {
          "internalType": "bool",
          "name": "",
          "type": "bool"
        }
      ],
      "stateMutability": "nonpayable",
      "type": "function"
    },
    {
      "inputs": [
        {
          "internalType": "address",
          "name": "",
          "type": "address"
        }
      ],
      "name": "whitelistedSenders",
      "outputs": [
        {
          "internalType": "bool",
          "name": "",
          "type": "bool"
        }
      ],
      "stateMutability": "view",
      "type": "function"
    }
  ],
  "transactionHash": "0x358fb70ed0a568396d816796963c9bff3aec0a489e0f009052877c27f138595a",
  "args": [
    "1734439522",
    "1735353714",
    "0x0000000000000000000000000000000000000064",
    "0x885F64A09eb296823534B9c09FbF744BEcd4F908",
    "0x0000000000000000000000000000000000000000",
    "850000",
    "850000",
    "15000",
    10,
    "0xc4804757EDCB9a4E37dcda48b888FC293d7d9b3F",
    "0x32f797366D01F374CA2382130c3A32D31fe6b870"
  ],
  "numDeployments": 1,
  "solcInputHash": "adac56662d41ef2899b365ba4cd26012",
  "bytecode": "0x6101606040523480156200001257600080fd5b506040516200323d3803806200323d83398101604081905262000035916200040a565b8a8a8a8a8a8a8a8a8a8a8a808b8b8b8b8b8b6200005233620002cf565b8563ffffffff166000036200009d5760405162461bcd60e51b815260206004820152600c60248201526b32b6b83a3c903237b6b0b4b760a11b60448201526064015b60405180910390fd5b6001600160a01b038316620000e95760405162461bcd60e51b815260206004820152601160248201527032b6b83a3c903937b7ba26b0b730b3b2b960791b604482015260640162000094565b63ffffffff8087166080526001600160a01b0380861660a05284811660c05290861660e052821615620001215762000121826200032e565b80156200013357620001338162000397565b604080516001600160a01b0386811682528581166020830152841681830152905163ffffffff87811692908916917f4f9c27c2fe3f84576ea469d367d044da53c45e951617e8389f2b5ed8db9d25f09181900360600190a35050600580546001600160a01b0319166001600160a01b039690961695909517909455505060016006555050620cf850851015620001fb5760405162461bcd60e51b815260206004820152600c60248201526b2170726f636573732067617360a01b604482015260640162000094565b613a988410156200023e5760405162461bcd60e51b815260206004820152600c60248201526b21726573657276652067617360a01b604482015260640162000094565b6101208590526101408490526001600160a01b038216620002915760405162461bcd60e51b815260206004820152600c60248201526b217a65726f206d65726b6c6560a01b604482015260640162000094565b816001600160a01b0316610100816001600160a01b0316815250508260078190555050505050505050505050505050505050505050505050620004c9565b600080546001600160a01b038381166001600160a01b0319808416821785556002859055600180549091169055604051919092169283917f8be0079c531659141344cd1fd0a4f28419497f9722a3daafe3b4186f6b6457e09190a35050565b600354604080516001600160a01b03928316815291831660208301527fc77bec288fc88f168427f2f7da682eadb26cac89d8d591af6e443da98dff2bbc910160405180910390a1600380546001600160a01b0319166001600160a01b0392909216919091179055565b60045460408051918252602082018390527f34b09b90f4cfa8747776f5cffd7d53ce7863a9b1f1fc8121903d22543a256511910160405180910390a1600455565b805163ffffffff81168114620003ed57600080fd5b919050565b80516001600160a01b0381168114620003ed57600080fd5b60008060008060008060008060008060006101608c8e0312156200042d57600080fd5b620004388c620003d8565b9a506200044860208d01620003d8565b99506200045860408d01620003f2565b98506200046860608d01620003f2565b97506200047860808d01620003f2565b965060a08c0151955060c08c0151945060e08c015193506101008c01519250620004a66101208d01620003f2565b9150620004b76101408d01620003f2565b90509295989b509295989b9093969950565b60805160a05160c05160e051610100516101205161014051612cc562000578600039600081816102c901526119700152600081816105f1015281816119910152611a18015260008181610495015281816107b201528181610bfb015261130e01526000610273015260006103db0152600081816105ca015281816106dc0152818161163d0152611b520152600081816103a10152818161044c015281816112bf01526118720152612cc56000f3fe608060405234801561001057600080fd5b50600436106102695760003560e01c8063a01892a511610151578063c5b350df116100c3578063d2a3cc7111610087578063d2a3cc71146105b2578063d69f9d61146105c5578063d88beda2146105ec578063db1b765914610613578063f38a267b14610626578063fa31de011461064957600080fd5b8063c5b350df1461056b578063cc39428314610573578063cf796c7514610586578063d1851c921461058f578063d232c220146105a057600080fd5b8063b2f8764311610115578063b2f87643146104f1578063b39af46614610504578063b46300ec14610517578063b697f5311461051f578063b95a200114610532578063c1ca16221461055857600080fd5b8063a01892a514610490578063ad9c0c2e146104b7578063b0c273cc146104c0578063b187bd26146104d3578063b1f8100d146104de57600080fd5b80635bd11efc116101ea5780636eb67a51116101ae5780636eb67a511461042f578063715018a6146104425780638d3638f41461044a5780638da5cb5b146104705780639aa44d00146104815780639fa92f9d1461048a57600080fd5b80635bd11efc146103c35780635f61e3ec146103d657806364fd5f841461041557806365eaf11b1461041e5780636a42b8f81461042657600080fd5b80633cf52ffb116102315780633cf52ffb1461035c5780633fc40eaa146103645780634ff746f61461036d5780635190bc531461038057806352a9674b1461039c57600080fd5b8063141684161461026e5780631eeaabea146102af57806325e3beda146102c4578063272efc69146102f95780632bbd59ca1461032c575b600080fd5b6102957f000000000000000000000000000000000000000000000000000000000000000081565b60405163ffffffff90911681526020015b60405180910390f35b6102c26102bd366004612559565b61065c565b005b6102eb7f000000000000000000000000000000000000000000000000000000000000000081565b6040519081526020016102a6565b61031c610307366004612587565b600c6020526000908152604090205460ff1681565b60405190151581526020016102a6565b61034f61033a366004612559565b600e6020526000908152604090205460ff1681565b6040516102a691906125ba565b6002546102eb565b6102eb60095481565b6102c261037b366004612685565b6106d1565b61031c61038e366004612587565b6001600160a01b0316301490565b6102957f000000000000000000000000000000000000000000000000000000000000000081565b6102c26103d1366004612587565b610777565b6103fd7f000000000000000000000000000000000000000000000000000000000000000081565b6040516001600160a01b0390911681526020016102a6565b6102eb600a5481565b6102eb6107ae565b62093a806102eb565b6102c261043d366004612559565b610837565b6102c261086b565b7f0000000000000000000000000000000000000000000000000000000000000000610295565b6000546001600160a01b03166103fd565b6102eb60085481565b306103fd565b6103fd7f000000000000000000000000000000000000000000000000000000000000000081565b6102eb60075481565b6102c26104ce3660046126c8565b61092a565b600f5460ff1661031c565b6102c26104ec366004612587565b610a28565b6102c26104ff366004612587565b610acd565b6102c26105123660046126e5565b610b49565b6102c2610bf7565b6102c261052d366004612587565b610cd8565b610295610540366004612720565b600d6020526000908152604090205463ffffffff1681565b6102c261056636600461273b565b610d57565b6102c26110f2565b6003546103fd906001600160a01b031681565b6102eb60045481565b6001546001600160a01b03166103fd565b6000546001600160a01b03161561031c565b6102c26105c0366004612587565b61114d565b6103fd7f000000000000000000000000000000000000000000000000000000000000000081565b6102eb7f000000000000000000000000000000000000000000000000000000000000000081565b61031c610621366004612587565b61120f565b61031c610634366004612559565b600b6020526000908152604090205460ff1681565b6102eb6106573660046127d3565b611220565b6000546001600160a01b03163314610687576040516311a8a1bb60e31b815260040160405180910390fd5b60075481036106cc5760405162461bcd60e51b815260206004820152600c60248201526b2164656c6179426c6f636b7360a01b60448201526064015b60405180910390fd5b600755565b336001600160a01b037f000000000000000000000000000000000000000000000000000000000000000016146107325760405162461bcd60e51b81526004016106c39060208082526004908201526310a0a6a160e11b604082015260600190565b61073b816113dd565b7fb3abc57bfeebd2cac918901db582f71972a8e628bccf19f5ae3e3482b98a5ced813360405161076c929190612886565b60405180910390a150565b6000546001600160a01b031633146107a2576040516311a8a1bb60e31b815260040160405180910390fd5b6107ab8161147d565b50565b60007f00000000000000000000000000000000000000000000000000000000000000006001600160a01b031663ebf0c7176040518163ffffffff1660e01b8152600401602060405180830381865afa15801561080e573d6000803e3d6000fd5b505050506040513d601f19601f8201168201806040525081019061083291906128b0565b905090565b6000546001600160a01b03163314610862576040516311a8a1bb60e31b815260040160405180910390fd5b6107ab816114e6565b6000546001600160a01b03163314610896576040516311a8a1bb60e31b815260040160405180910390fd5b6002546000036108b957604051630e4b303f60e21b815260040160405180910390fd5b62093a80600254426108cb91906128df565b116108e9576040516386d4b3f160e01b815260040160405180910390fd5b6001546001600160a01b031615610913576040516323295ef960e01b815260040160405180910390fd5b600154610928906001600160a01b0316611527565b565b6005546040516384785ecd60e01b81523360048201526001600160a01b03909116906384785ecd90602401602060405180830381865afa158015610972573d6000803e3d6000fd5b505050506040513d601f19601f8201168201806040525081019061099691906128f6565b6109cd5760405162461bcd60e51b815260206004820152600860248201526710bbb0ba31b432b960c11b60448201526064016106c3565b600f5481151560ff909116151503610a155760405162461bcd60e51b815260206004820152600b60248201526a105b1c9958591e481cd95d60aa1b60448201526064016106c3565b600f805460ff1916911515919091179055565b6000546001600160a01b03163314610a53576040516311a8a1bb60e31b815260040160405180910390fd5b6001546001600160a01b038281169116148015610a7857506001600160a01b03811615155b15610a96576040516311bc066560e11b815260040160405180910390fd5b6000546001600160a01b03808316911603610ac457604051634a2fb73f60e11b815260040160405180910390fd5b6107ab81611586565b6000546001600160a01b03163314610af8576040516311a8a1bb60e31b815260040160405180910390fd5b6001600160a01b0381166000818152600c6020908152604091829020805460ff1916905590519182527f384859c5ef5fafac31e8bc92ce7fb48b1f2c74c4dd5e212eb84ec202fa5d9fad910161076c565b6000546001600160a01b03163314610b74576040516311a8a1bb60e31b815260040160405180910390fd5b600f5460ff16610bb05760405162461bcd60e51b8152602060048201526007602482015266085c185d5cd95960ca1b60448201526064016106c3565b6008829055600981905560408051838152602081018390527fbe4fbf2f787f5368b702855f62c5a32d491f12b2caf62d0481ebf44e0354ce76910160405180910390a15050565b60007f00000000000000000000000000000000000000000000000000000000000000006001600160a01b031663ebf0c7176040518163ffffffff1660e01b8152600401602060405180830381865afa158015610c57573d6000803e3d6000fd5b505050506040513d601f19601f82011682018060405250810190610c7b91906128b0565b604051602001610c8d91815260200190565b6040516020818303038152906040529050610ca7816115d4565b7fa69577a1e55dd0712044e7078b408c39fadff8b3e1b334b202ff17e70eda9fdc813360405161076c929190612886565b6000546001600160a01b03163314610d03576040516311a8a1bb60e31b815260040160405180910390fd5b6001600160a01b0381166000818152600c6020908152604091829020805460ff1916600117905590519182527fd65eca5d561d3a4568c87b9b13ced4ab52a69edadfdfdb22d76bc595f36d7d87910161076c565b600f5460ff1615610d965760405162461bcd60e51b8152602060048201526009602482015268085d5b9c185d5cd95960ba1b60448201526064016106c3565b82610dcd5760405162461bcd60e51b81526020600482015260076024820152662170726f6f667360c81b60448201526064016106c3565b600084846000818110610de257610de2612913565b9050602002810190610df49190612929565b610dfe908061294a565b604051610e0c929190612998565b604051809103902090506000610e738287876000818110610e2f57610e2f612913565b9050602002810190610e419190612929565b60200188886000818110610e5757610e57612913565b9050602002810190610e699190612929565b61042001356116ae565b6000818152600b602052604090205490915060ff16610f39576000600a544311610e9f57600854610ea3565b6009545b90506000610edb8387602080602002604051908101604052809291908260208002808284376000920191909152508991506117539050565b9050818114610f1d5760405162461bcd60e51b815260206004820152600e60248201526d085859d9dc9959d85d19549bdbdd60921b60448201526064016106c3565b50506000818152600b60205260409020805460ff191660011790555b6000828152600e60205260409020805460ff191660019081179091555b63ffffffff811686111561105d5786868263ffffffff16818110610f7c57610f7c612913565b9050602002810190610f8e9190612929565b610f98908061294a565b604051610fa6929190612998565b604051809103902092506000610ffb8489898563ffffffff16818110610fce57610fce612913565b9050602002810190610fe09190612929565b6020018a8a8663ffffffff16818110610e5757610e57612913565b905082811461103a5760405162461bcd60e51b815260206004820152600b60248201526a085cda185c9959149bdbdd60aa1b60448201526064016106c3565b506000838152600e60205260409020805460ff1916600190811790915501610f56565b5060005b63ffffffff81168611156110e9576110e087878363ffffffff1681811061108a5761108a612913565b905060200281019061109c9190612929565b6110a6908061294a565b8080601f01602080910402602001604051908101604052809392919081815260200183838082843760009201919091525061180492505050565b50600101611061565b50505050505050565b6001546001600160a01b0316331461111d576040516311a7f27160e11b815260040160405180910390fd5b62093a806002544261112f91906128df565b116109135760405163d39c12bb60e01b815260040160405180910390fd5b6000546001600160a01b03163314611178576040516311a8a1bb60e31b815260040160405180910390fd5b6005546001600160a01b03908116908216036111d65760405162461bcd60e51b815260206004820152601760248201527f616c72656164792077617463686572206d616e6167657200000000000000000060448201526064016106c3565b6040516001600160a01b03821681527fc16d059e43d7f8e29ccb4e001a2f249d3c59e274925d6a6bc3912943441d9f6c9060200161076c565b600061121a82611b4b565b92915050565b336000908152600c602052604081205460ff1661126e5760405162461bcd60e51b815260206004820152600c60248201526b085dda1a5d195b1a5cdd195960a21b60448201526064016106c3565b63ffffffff8085166000908152600d6020526040902054166112918160016129a8565b63ffffffff8681166000908152600d60205260408120805463ffffffff1916939092169290921790556112e87f00000000000000000000000000000000000000000000000000000000000000003384898989611b91565b80516020820120604051632d287e4360e01b8152600481018290529192509060009081907f00000000000000000000000000000000000000000000000000000000000000006001600160a01b031690632d287e439060240160408051808303816000875af115801561135e573d6000803e3d6000fd5b505050506040513d601f19601f8201168201806040525081019061138291906129d0565b90925090507f40f08ee347fc927ae45902edc87debb024aab1a311943731968607f603f2152f836113b46001846128df565b84876040516113c694939291906129f4565b60405180910390a1509093505050505b9392505050565b6003546113f2906001600160a01b0316611b4b565b6114315760405162461bcd60e51b815260206004820152601060248201526f10b6b4b93937b921b7b73732b1ba37b960811b60448201526064016106c3565b805160201461146c5760405162461bcd60e51b8152602060048201526007602482015266042d8cadccee8d60cb1b60448201526064016106c3565b6107ab61147882612a19565b611bc9565b600354604080516001600160a01b03928316815291831660208301527fc77bec288fc88f168427f2f7da682eadb26cac89d8d591af6e443da98dff2bbc910160405180910390a1600380546001600160a01b0319166001600160a01b0392909216919091179055565b60045460408051918252602082018390527f34b09b90f4cfa8747776f5cffd7d53ce7863a9b1f1fc8121903d22543a256511910160405180910390a1600455565b600080546001600160a01b038381166001600160a01b0319808416821785556002859055600180549091169055604051919092169283917f8be0079c531659141344cd1fd0a4f28419497f9722a3daafe3b4186f6b6457e09190a35050565b42600255600180546001600160a01b0319166001600160a01b0383169081179091556040517f6ab4d119f23076e8ad491bc65ce85f017fb0591dce08755ba8591059cc51737a90600090a250565b6000634ff746f660e01b826040516024016115ef9190612a3d565b60408051601f198184030181529181526020820180516001600160e01b03166001600160e01b03199094169390931790925260035491516349460b4d60e11b81529092506001600160a01b037f000000000000000000000000000000000000000000000000000000000000000081169263928c169a926116789291909116908590600401612a50565b600060405180830381600087803b15801561169257600080fd5b505af11580156116a6573d6000803e3d6000fd5b505050505050565b6000806000858152600e602052604090205460ff1660028111156116d4576116d46125a4565b146117175760405162461bcd60e51b8152602060048201526013602482015272214d6573736167655374617475732e4e6f6e6560681b60448201526064016106c3565b61174b8484602080602002604051908101604052809291908260208002808284376000920191909152508691506117539050565b949350505050565b8260005b60208110156117fc57600183821c16600085836020811061177a5761177a612913565b60200201519050816001036117ba5760408051602081018390529081018590526060016040516020818303038152906040528051906020012093506117e7565b60408051602081018690529081018290526060016040516020818303038152906040528051906020012093505b505080806117f490612a74565b915050611757565b509392505050565b60006002600654036118585760405162461bcd60e51b815260206004820152601f60248201527f5265656e7472616e637947756172643a207265656e7472616e742063616c6c0060448201526064016106c3565b600260065560006118698382611c5d565b905063ffffffff7f0000000000000000000000000000000000000000000000000000000000000000166118a162ffffff198316611c81565b63ffffffff16146118e35760405162461bcd60e51b815260206004820152600c60248201526b10b232b9ba34b730ba34b7b760a11b60448201526064016106c3565b60006118f462ffffff198316611c96565b905060016000828152600e602052604090205460ff16600281111561191b5761191b6125a4565b146119525760405162461bcd60e51b815260206004820152600760248201526610b83937bb32b760c91b60448201526064016106c3565b6000818152600e60205260409020805460ff191660021790556119b57f00000000000000000000000000000000000000000000000000000000000000007f0000000000000000000000000000000000000000000000000000000000000000612a8d565b5a10156119ed5760405162461bcd60e51b81526004016106c3906020808252600490820152632167617360e01b604082015260600190565b60006119fe62ffffff198416611cdf565b6040805161010080825261012082019092529192506000917f0000000000000000000000000000000000000000000000000000000000000000908390836020820181803683370190505090506000611a5b62ffffff198916611cf0565b611a6a62ffffff198a16611d04565b611a7962ffffff198b16611d19565b611a96611a8b62ffffff198d16611d2e565b62ffffff1916611d5c565b604051602401611aa99493929190612aa5565b60408051601f198184030181529190526020810180516001600160e01b031663ab2dc3f560e01b17815281519192506000918291828a88f198503d945083851115611af2578394505b848252846000602084013e7fd42de95a9b26f1be134c8ecce389dc4fcfa18753d01661b7b361233569e8fe48878a84604051611b3093929190612ad4565b60405180910390a15050600160065550949695505050505050565b6000611b767f0000000000000000000000000000000000000000000000000000000000000000611da5565b6001600160a01b0316826001600160a01b0316149050919050565b6060868686868686604051602001611bae96959493929190612af5565b60405160208183030381529060405290509695505050505050565b600754600a54611bd99190612a8d565b4311611c165760405162461bcd60e51b815260206004820152600c60248201526b2164656c6179426c6f636b7360a01b60448201526064016106c3565b6009805460088190559082905543600a5560408051918252602082018390527fbe4fbf2f787f5368b702855f62c5a32d491f12b2caf62d0481ebf44e0354ce76910161076c565b815160009060208401611c7864ffffffffff85168284611e2f565b95945050505050565b600061121a62ffffff19831660286004611e76565b600080611cac8360781c6001600160601b031690565b6001600160601b031690506000611ccc8460181c6001600160601b031690565b6001600160601b03169091209392505050565b600061121a611ced83611ea6565b90565b600061121a62ffffff198316826004611e76565b600061121a62ffffff19831660246004611e76565b600061121a62ffffff19831660046020611eb7565b600061121a604c611d4c81601886901c6001600160601b03166128df565b62ffffff19851691906000612013565b6060600080611d748460181c6001600160601b031690565b6001600160601b031690506040519150819250611d94848360200161208d565b508181016020016040529052919050565b6000611db0826121e4565b611dcd5760405163253a6fc960e11b815260040160405180910390fd5b816001600160a01b031663d74523b36040518163ffffffff1660e01b8152600401602060405180830381865afa158015611e0b573d6000803e3d6000fd5b505050506040513d601f19601f8201168201806040525081019061121a9190612b4f565b600080611e3c8385612a8d565b9050604051811115611e4c575060005b80600003611e615762ffffff199150506113d6565b5050606092831b9190911790911b1760181b90565b6000611e83826020612b6c565b611e8e906008612b8f565b60ff16611e9c858585611eb7565b901c949350505050565b600061121a62ffffff198316602c60205b60008160ff16600003611ecc575060006113d6565b611edf8460181c6001600160601b031690565b6001600160601b0316611ef560ff841685612a8d565b1115611f5957611f40611f118560781c6001600160601b031690565b6001600160601b0316611f2d8660181c6001600160601b031690565b6001600160601b0316858560ff16612248565b60405162461bcd60e51b81526004016106c39190612a3d565b60208260ff161115611fd35760405162461bcd60e51b815260206004820152603a60248201527f54797065644d656d566965772f696e646578202d20417474656d70746564207460448201527f6f20696e646578206d6f7265207468616e20333220627974657300000000000060648201526084016106c3565b600882026000611fec8660781c6001600160601b031690565b6001600160601b031690506000600160ff1b60001984011d91909501511695945050505050565b6000806120298660781c6001600160601b031690565b6001600160601b0316905061203d866122b6565b846120488784612a8d565b6120529190612a8d565b11156120655762ffffff1991505061174b565b61206f8582612a8d565b90506120838364ffffffffff168286611e2f565b9695505050505050565b600062ffffff19808416036120f55760405162461bcd60e51b815260206004820152602860248201527f54797065644d656d566965772f636f7079546f202d204e756c6c20706f696e7460448201526732b9103232b932b360c11b60648201526084016106c3565b6120fe836122ef565b61215e5760405162461bcd60e51b815260206004820152602b60248201527f54797065644d656d566965772f636f7079546f202d20496e76616c696420706f60448201526a34b73a32b9103232b932b360a91b60648201526084016106c3565b60006121738460181c6001600160601b031690565b6001600160601b0316905060006121938560781c6001600160601b031690565b6001600160601b0316905060006040519050848111156121b35760206060fd5b8285848460045afa506120836121c98760d81c90565b64ffffffffff60601b606091821b168717901b841760181b90565b6000816001600160a01b031663175a260b6040518163ffffffff1660e01b8152600401602060405180830381865afa158015612224573d6000803e3d6000fd5b505050506040513d601f19601f8201168201806040525081019061121a91906128f6565b606060006122558661232c565b91505060006122638661232c565b91505060006122718661232c565b915050600061227f8661232c565b915050838383836040516020016122999493929190612bb8565b604051602081830303815290604052945050505050949350505050565b60006122cb8260181c6001600160601b031690565b6122de8360781c6001600160601b031690565b016001600160601b03169050919050565b60006122fb8260d81c90565b64ffffffffff1664ffffffffff0361231557506000919050565b6000612320836122b6565b60405110199392505050565b600080601f5b600f8160ff16111561238157600061234b826008612b8f565b60ff1685901c905061235c816123da565b61ffff16841793508160ff1660101461237757601084901b93505b5060001901612332565b50600f5b60ff8160ff1610156123d457600061239e826008612b8f565b60ff1685901c90506123af816123da565b61ffff16831792508160ff166000146123ca57601083901b92505b5060001901612385565b50915091565b60006123ec60048360ff16901c61240c565b60ff1661ffff919091161760081b6124038261240c565b60ff1617919050565b600060f08083179060ff821690036124275750603092915050565b8060ff1660f10361243b5750603192915050565b8060ff1660f20361244f5750603292915050565b8060ff1660f3036124635750603392915050565b8060ff1660f4036124775750603492915050565b8060ff1660f50361248b5750603592915050565b8060ff1660f60361249f5750603692915050565b8060ff1660f7036124b35750603792915050565b8060ff1660f8036124c75750603892915050565b8060ff1660f9036124db5750603992915050565b8060ff1660fa036124ef5750606192915050565b8060ff1660fb036125035750606292915050565b8060ff1660fc036125175750606392915050565b8060ff1660fd0361252b5750606492915050565b8060ff1660fe0361253f5750606592915050565b8060ff1660ff036125535750606692915050565b50919050565b60006020828403121561256b57600080fd5b5035919050565b6001600160a01b03811681146107ab57600080fd5b60006020828403121561259957600080fd5b81356113d681612572565b634e487b7160e01b600052602160045260246000fd5b60208101600383106125dc57634e487b7160e01b600052602160045260246000fd5b91905290565b634e487b7160e01b600052604160045260246000fd5b600082601f83011261260957600080fd5b813567ffffffffffffffff80821115612624576126246125e2565b604051601f8301601f19908116603f0116810190828211818310171561264c5761264c6125e2565b8160405283815286602085880101111561266557600080fd5b836020870160208301376000602085830101528094505050505092915050565b60006020828403121561269757600080fd5b813567ffffffffffffffff8111156126ae57600080fd5b61174b848285016125f8565b80151581146107ab57600080fd5b6000602082840312156126da57600080fd5b81356113d6816126ba565b600080604083850312156126f857600080fd5b50508035926020909101359150565b803563ffffffff8116811461271b57600080fd5b919050565b60006020828403121561273257600080fd5b6113d682612707565b600080600080610440858703121561275257600080fd5b843567ffffffffffffffff8082111561276a57600080fd5b818701915087601f83011261277e57600080fd5b81358181111561278d57600080fd5b8860208260051b85010111156127a257600080fd5b6020830196508095505050506104208501868111156127c057600080fd5b9396929550505060209290920191903590565b6000806000606084860312156127e857600080fd5b6127f184612707565b925060208401359150604084013567ffffffffffffffff81111561281457600080fd5b612820868287016125f8565b9150509250925092565b60005b8381101561284557818101518382015260200161282d565b83811115612854576000848401525b50505050565b6000815180845261287281602086016020860161282a565b601f01601f19169290920160200192915050565b604081526000612899604083018561285a565b905060018060a01b03831660208301529392505050565b6000602082840312156128c257600080fd5b5051919050565b634e487b7160e01b600052601160045260246000fd5b6000828210156128f1576128f16128c9565b500390565b60006020828403121561290857600080fd5b81516113d6816126ba565b634e487b7160e01b600052603260045260246000fd5b6000823561043e1983360301811261294057600080fd5b9190910192915050565b6000808335601e1984360301811261296157600080fd5b83018035915067ffffffffffffffff82111561297c57600080fd5b60200191503681900382131561299157600080fd5b9250929050565b8183823760009101908152919050565b600063ffffffff8083168185168083038211156129c7576129c76128c9565b01949350505050565b600080604083850312156129e357600080fd5b505080516020909101519092909150565b848152836020820152826040820152608060608201526000612083608083018461285a565b805160208083015191908110156125535760001960209190910360031b1b16919050565b6020815260006113d6602083018461285a565b6001600160a01b038316815260406020820181905260009061174b9083018461285a565b600060018201612a8657612a866128c9565b5060010190565b60008219821115612aa057612aa06128c9565b500190565b600063ffffffff808716835280861660208401525083604083015260806060830152612083608083018461285a565b8381528215156020820152606060408201526000611c78606083018461285a565b600063ffffffff60e01b808960e01b168352876004840152808760e01b166024840152808660e01b1660288401525083602c8301528251612b3d81604c85016020870161282a565b91909101604c01979650505050505050565b600060208284031215612b6157600080fd5b81516113d681612572565b600060ff821660ff841680821015612b8657612b866128c9565b90039392505050565b600060ff821660ff84168160ff0481118215151615612bb057612bb06128c9565b029392505050565b7f54797065644d656d566965772f696e646578202d204f76657272616e20746865815274040ecd2caee5c40a6d8d2c6ca40d2e640c2e84060f605b1b60208201526001600160d01b031960d086811b821660358401526e040eed2e8d040d8cadccee8d04060f608b1b603b840181905286821b8316604a8501527f2e20417474656d7074656420746f20696e646578206174206f666673657420306050850152600f60fb1b607085015285821b83166071850152607784015283901b166086820152601760f91b608c8201526000608d820161208356fea26469706673582212209f2d8c8eab20c222e420e5c2623b2acadb6ed836b27352c175e7c64d15fdedff64736f6c634300080f0033",
  "devdoc": {
    "kind": "dev",
    "methods": {
      "addSender(address)": {
        "details": "Only whitelisted routers can call `dispatch`"
      },
      "dispatch(uint32,bytes32,bytes)": {
        "details": "The root of this tree will eventually be dispatched to mainnet via `send`. On mainnet (the \"hub\"), it will be combined into a single aggregate root by RootManager (along with outbound roots from other chains). This aggregate root will be redistributed to all destination chains."
      },
      "home()": {
        "details": "The local inbox contract is a SpokeConnector with AMBs, and a Home contract with nomad",
        "returns": {
          "_0": "The local inbox contract"
        }
      },
      "isReplica(address)": {
        "returns": {
          "_0": "True if _potentialReplica is an enrolled Replica"
        }
      },
      "processMessage(bytes)": {
        "details": "This is called by AMBs to process messages originating from mirror connector"
      },
      "proveAndProcess((bytes,bytes32[32],uint256)[],bytes32[32],uint256)": {
        "details": "Currently, ALL messages in a given batch must path to the same shared inboundRoot, meaning they must all share an origin. See open TODO below for a potential solution to enable multi-origin batches.Intended to be called by the relayer at specific intervals during runtime.Will record a calculated root as having been proven if we've already proven that it was included in the aggregateRoot.",
        "params": {
          "_aggregatorIndex": "Index of the inbound root in the aggregator's merkle tree in the hub.",
          "_aggregatorPath": "Merkle path of inclusion for the inbound root.",
          "_proofs": "Batch of Proofs containing messages for proving/processing."
        }
      },
      "removeSender(address)": {
        "details": "Only whitelisted routers can call `dispatch`"
      },
      "setAggregateRoots(bytes32,bytes32)": {
        "details": "This required in case of fraud"
      },
      "setWatcherManager(address)": {
        "details": "Owner can enroll a watcher (abilities are defined by inheriting contracts)"
      },
      "setWatcherPaused(bool)": {
        "details": "This is only callable by a watcher, as set in the WatcherManager"
      }
    },
    "version": 1
  },
  "userdoc": {
    "events": {
      "MessageProcessed(bytes,address)": {
        "notice": "Emitted whenever a message is successfully received over an AMB"
      },
      "MessageSent(bytes,address)": {
        "notice": "Emitted whenever a message is successfully sent over an AMB"
      }
    },
    "kind": "user",
    "methods": {
      "AMB()": {
        "notice": "Address of the AMB on this domain."
      },
      "DOMAIN()": {
        "notice": "The domain of this Messaging (i.e. Connector) contract."
      },
      "MERKLE()": {
        "notice": "MerkleTreeManager contract instance. Will hold the active tree of message hashes, whose root will be sent crosschain to the hub for aggregation and redistribution."
      },
      "MIRROR_DOMAIN()": {
        "notice": "The domain of the corresponding messaging (i.e. Connector) contract."
      },
      "PROCESS_GAS()": {
        "notice": "Minimum gas for processing a received message (reserved for handle)"
      },
      "RESERVE_GAS()": {
        "notice": "Reserved gas (to ensure tx completes in case message processing runs out)"
      },
      "ROOT_MANAGER()": {
        "notice": "RootManager contract address."
      },
      "acceptProposedOwner()": {
        "notice": "Transfers ownership of the contract to a new account (`newOwner`). Can only be called by the current owner."
      },
      "addSender(address)": {
        "notice": "Adds a sender to the whitelist"
      },
      "aggregateRootCurrent()": {
        "notice": "This tracks the root of the tree containing outbound roots from all other supported domains. The \"current\" version is the one that is known to be past the delayBlocks time period."
      },
      "aggregateRootPending()": {
        "notice": "This is the \"pending\" aggregate root which is stored to allow a second root to be passing through the delayBlocks window while the current root is confirmed."
      },
      "aggregateRootPendingBlock()": {
        "notice": "This is the block number at which the pending aggregate root was set."
      },
      "delay()": {
        "notice": "Returns the delay period before a new owner can be accepted."
      },
      "delayBlocks()": {
        "notice": "Number of blocks to delay the processing of a message to allow for watchers to verify the validity and pause if necessary."
      },
      "dispatch(uint32,bytes32,bytes)": {
        "notice": "This function adds transfers to the outbound transfer merkle tree."
      },
      "home()": {
        "notice": "Get the local inbox contract from the xAppConnectionManager"
      },
      "isPaused()": {
        "notice": "This is called by the watcher to update the aggregate root"
      },
      "isReplica(address)": {
        "notice": "Determine whether _potentialReplica is an enrolled Replica from the xAppConnectionManager"
      },
      "localDomain()": {
        "notice": "This provides the implementation for what is defined in the ConnectorManager to avoid storing the domain redundantly"
      },
      "messages(bytes32)": {
        "notice": "Mapping of message leaves to MessageStatus, keyed on leaf"
      },
      "mirrorConnector()": {
        "notice": "Connector on L2 for L1 connectors, and vice versa."
      },
      "mirrorGas()": {
        "notice": "Gas costs forwarded to the `processMessage` call on the mirror domain"
      },
      "nonces(uint32)": {
        "notice": "domain => next available nonce for the domain"
      },
      "outboundRoot()": {
        "notice": "This returns the root of all messages with the origin domain as this domain (i.e. all outbound messages)"
      },
      "owner()": {
        "notice": "Returns the address of the current owner."
      },
      "processMessage(bytes)": {
        "notice": "Processes a message received by an AMB"
      },
      "proposeNewOwner(address)": {
        "notice": "Sets the timestamp for an owner to be proposed, and sets the newly proposed owner as step 1 in a 2-step process"
      },
      "proposed()": {
        "notice": "Returns the address of the proposed owner."
      },
      "proposedTimestamp()": {
        "notice": "Returns the address of the proposed owner."
      },
      "proveAndProcess((bytes,bytes32[32],uint256)[],bytes32[32],uint256)": {
        "notice": "Must be able to call the `handle` function on the BridgeRouter contract. This is called on the destination domain to handle incoming messages. Proving: Calculates the expected inbound root from an origin chain given a leaf (message hash), the index of the leaf, and the merkle proof of inclusion (path). Next, we check to ensure that this calculated inbound root is included in the current aggregateRoot, given its index in the aggregator tree and the proof of inclusion. Processing: After all messages have been proven, we dispatch each message to Connext (BridgeRouter) for execution."
      },
      "provenRoots(bytes32)": {
        "notice": "This tracks whether the root has been proven to exist within the given aggregate root"
      },
      "removeSender(address)": {
        "notice": "Removes a sender from the whitelist"
      },
      "renounceOwnership()": {
        "notice": "Renounces ownership of the contract after a delay"
      },
      "renounced()": {
        "notice": "Indicates if the ownership has been renounced() by checking if current owner is address(0)"
      },
      "send()": {
        "notice": "This returns the root of all messages with the origin domain as this domain (i.e. all outbound messages)"
      },
      "setAggregateRoots(bytes32,bytes32)": {
        "notice": "Set the aggregateRoots by owner if the contract is paused"
      },
      "setDelayBlocks(uint256)": {
        "notice": "Set the delayBlocks, in case this needs to be configured later"
      },
      "setMirrorConnector(address)": {
        "notice": "Sets the address of the l2Connector for this domain"
      },
      "setMirrorGas(uint256)": {
        "notice": "Sets the address of the l2Connector for this domain"
      },
      "setWatcherPaused(bool)": {
        "notice": "Set the `watcherPaused` boolean"
      },
      "verifySender(address)": {
        "notice": "Checks the cross domain sender for a given address"
      }
    },
    "version": 1
  },
  "storageLayout": {
    "storage": [
      {
        "astId": 40692,
        "contract": "contracts/messaging/connectors/arbitrum/ArbitrumSpokeConnector.sol:ArbitrumSpokeConnector",
        "label": "_owner",
        "offset": 0,
        "slot": "0",
        "type": "t_address"
      },
      {
        "astId": 40694,
        "contract": "contracts/messaging/connectors/arbitrum/ArbitrumSpokeConnector.sol:ArbitrumSpokeConnector",
        "label": "_proposed",
        "offset": 0,
        "slot": "1",
        "type": "t_address"
      },
      {
        "astId": 40696,
        "contract": "contracts/messaging/connectors/arbitrum/ArbitrumSpokeConnector.sol:ArbitrumSpokeConnector",
        "label": "_proposedOwnershipTimestamp",
        "offset": 0,
        "slot": "2",
        "type": "t_uint256"
      },
      {
        "astId": 31083,
        "contract": "contracts/messaging/connectors/arbitrum/ArbitrumSpokeConnector.sol:ArbitrumSpokeConnector",
        "label": "mirrorConnector",
        "offset": 0,
        "slot": "3",
        "type": "t_address"
      },
      {
        "astId": 31086,
        "contract": "contracts/messaging/connectors/arbitrum/ArbitrumSpokeConnector.sol:ArbitrumSpokeConnector",
        "label": "mirrorGas",
        "offset": 0,
        "slot": "4",
        "type": "t_uint256"
      },
      {
        "astId": 30888,
        "contract": "contracts/messaging/connectors/arbitrum/ArbitrumSpokeConnector.sol:ArbitrumSpokeConnector",
        "label": "watcherManager",
        "offset": 0,
        "slot": "5",
        "type": "t_contract(WatcherManager)31033"
      },
      {
        "astId": 3651,
        "contract": "contracts/messaging/connectors/arbitrum/ArbitrumSpokeConnector.sol:ArbitrumSpokeConnector",
        "label": "_status",
        "offset": 0,
        "slot": "6",
        "type": "t_uint256"
      },
      {
        "astId": 31656,
        "contract": "contracts/messaging/connectors/arbitrum/ArbitrumSpokeConnector.sol:ArbitrumSpokeConnector",
        "label": "delayBlocks",
        "offset": 0,
        "slot": "7",
        "type": "t_uint256"
      },
      {
        "astId": 31659,
        "contract": "contracts/messaging/connectors/arbitrum/ArbitrumSpokeConnector.sol:ArbitrumSpokeConnector",
        "label": "aggregateRootCurrent",
        "offset": 0,
        "slot": "8",
        "type": "t_bytes32"
      },
      {
        "astId": 31662,
        "contract": "contracts/messaging/connectors/arbitrum/ArbitrumSpokeConnector.sol:ArbitrumSpokeConnector",
        "label": "aggregateRootPending",
        "offset": 0,
        "slot": "9",
        "type": "t_bytes32"
      },
      {
        "astId": 31665,
        "contract": "contracts/messaging/connectors/arbitrum/ArbitrumSpokeConnector.sol:ArbitrumSpokeConnector",
        "label": "aggregateRootPendingBlock",
        "offset": 0,
        "slot": "10",
        "type": "t_uint256"
      },
      {
        "astId": 31670,
        "contract": "contracts/messaging/connectors/arbitrum/ArbitrumSpokeConnector.sol:ArbitrumSpokeConnector",
        "label": "provenRoots",
        "offset": 0,
        "slot": "11",
        "type": "t_mapping(t_bytes32,t_bool)"
      },
      {
        "astId": 31675,
        "contract": "contracts/messaging/connectors/arbitrum/ArbitrumSpokeConnector.sol:ArbitrumSpokeConnector",
        "label": "whitelistedSenders",
        "offset": 0,
        "slot": "12",
        "type": "t_mapping(t_address,t_bool)"
      },
      {
        "astId": 31680,
        "contract": "contracts/messaging/connectors/arbitrum/ArbitrumSpokeConnector.sol:ArbitrumSpokeConnector",
        "label": "nonces",
        "offset": 0,
        "slot": "13",
        "type": "t_mapping(t_uint32,t_uint32)"
      },
      {
        "astId": 31686,
        "contract": "contracts/messaging/connectors/arbitrum/ArbitrumSpokeConnector.sol:ArbitrumSpokeConnector",
        "label": "messages",
        "offset": 0,
        "slot": "14",
        "type": "t_mapping(t_bytes32,t_enum(MessageStatus)31634)"
      },
      {
        "astId": 31689,
        "contract": "contracts/messaging/connectors/arbitrum/ArbitrumSpokeConnector.sol:ArbitrumSpokeConnector",
        "label": "watcherPaused",
        "offset": 0,
        "slot": "15",
        "type": "t_bool"
      }
    ],
    "types": {
      "t_address": {
        "encoding": "inplace",
        "label": "address",
        "numberOfBytes": "20"
      },
      "t_bool": {
        "encoding": "inplace",
        "label": "bool",
        "numberOfBytes": "1"
      },
      "t_bytes32": {
        "encoding": "inplace",
        "label": "bytes32",
        "numberOfBytes": "32"
      },
      "t_contract(WatcherManager)31033": {
        "encoding": "inplace",
        "label": "contract WatcherManager",
        "numberOfBytes": "20"
      },
      "t_enum(MessageStatus)31634": {
        "encoding": "inplace",
        "label": "enum SpokeConnector.MessageStatus",
        "numberOfBytes": "1"
      },
      "t_mapping(t_address,t_bool)": {
        "encoding": "mapping",
        "key": "t_address",
        "label": "mapping(address => bool)",
        "numberOfBytes": "32",
        "value": "t_bool"
      },
      "t_mapping(t_bytes32,t_bool)": {
        "encoding": "mapping",
        "key": "t_bytes32",
        "label": "mapping(bytes32 => bool)",
        "numberOfBytes": "32",
        "value": "t_bool"
      },
      "t_mapping(t_bytes32,t_enum(MessageStatus)31634)": {
        "encoding": "mapping",
        "key": "t_bytes32",
        "label": "mapping(bytes32 => enum SpokeConnector.MessageStatus)",
        "numberOfBytes": "32",
        "value": "t_enum(MessageStatus)31634"
      },
      "t_mapping(t_uint32,t_uint32)": {
        "encoding": "mapping",
        "key": "t_uint32",
        "label": "mapping(uint32 => uint32)",
        "numberOfBytes": "32",
        "value": "t_uint32"
      },
      "t_uint256": {
        "encoding": "inplace",
        "label": "uint256",
        "numberOfBytes": "32"
      },
      "t_uint32": {
        "encoding": "inplace",
        "label": "uint32",
        "numberOfBytes": "4"
      }
    }
  }
}