{
  "address": "0x419F1Feb51bED7F2A1305afAebEE4C38eeAac878",
  "abi": [
    {
      "inputs": [
        {
          "internalType": "uint32",
          "name": "_domain",
          "type": "uint32"
        },
        {
          "internalType": "uint32",
          "name": "_mirrorDomain",
          "type": "uint32"
        },
        {
          "internalType": "address",
          "name": "_amb",
          "type": "address"
        },
        {
          "internalType": "address",
          "name": "_rootManager",
          "type": "address"
        },
        {
          "internalType": "address",
          "name": "_mirrorConnector",
          "type": "address"
        },
        {
          "internalType": "uint256",
          "name": "_processGas",
          "type": "uint256"
        },
        {
          "internalType": "uint256",
          "name": "_reserveGas",
          "type": "uint256"
        },
        {
          "internalType": "uint256",
          "name": "_delayBlocks",
          "type": "uint256"
        },
        {
          "internalType": "address",
          "name": "_merkle",
          "type": "address"
        },
        {
          "internalType": "address",
          "name": "_watcherManager",
          "type": "address"
        }
      ],
      "stateMutability": "nonpayable",
      "type": "constructor"
    },
    {
      "inputs": [],
      "name": "Connector__processMessage_notUsed",
      "type": "error"
    },
    {
      "inputs": [],
      "name": "NotCrossChainCall",
      "type": "error"
    },
    {
      "inputs": [],
      "name": "ProposedOwnable__onlyOwner_notOwner",
      "type": "error"
    },
    {
      "inputs": [],
      "name": "ProposedOwnable__onlyProposed_notProposedOwner",
      "type": "error"
    },
    {
      "inputs": [],
      "name": "ProposedOwnable__ownershipDelayElapsed_delayNotElapsed",
      "type": "error"
    },
    {
      "inputs": [],
      "name": "ProposedOwnable__proposeNewOwner_invalidProposal",
      "type": "error"
    },
    {
      "inputs": [],
      "name": "ProposedOwnable__proposeNewOwner_noOwnershipChange",
      "type": "error"
    },
    {
      "inputs": [],
      "name": "ProposedOwnable__renounceOwnership_invalidProposal",
      "type": "error"
    },
    {
      "inputs": [],
      "name": "ProposedOwnable__renounceOwnership_noProposal",
      "type": "error"
    },
    {
      "inputs": [],
      "name": "RateLimited__rateLimited_messageSendRateExceeded",
      "type": "error"
    },
    {
      "inputs": [],
      "name": "TypedMemView__index_indexMoreThan32Bytes",
      "type": "error"
    },
    {
      "inputs": [
        {
          "internalType": "uint256",
          "name": "loc",
          "type": "uint256"
        },
        {
          "internalType": "uint256",
          "name": "len",
          "type": "uint256"
        },
        {
          "internalType": "uint256",
          "name": "index",
          "type": "uint256"
        },
        {
          "internalType": "uint256",
          "name": "slice",
          "type": "uint256"
        }
      ],
      "name": "TypedMemView__index_overrun",
      "type": "error"
    },
    {
      "inputs": [],
      "name": "TypedMemView__unsafeCopyTo_identityOOG",
      "type": "error"
    },
    {
      "inputs": [],
      "name": "TypedMemView__unsafeCopyTo_invalidPointer",
      "type": "error"
    },
    {
      "inputs": [],
      "name": "TypedMemView__unsafeCopyTo_nullPointer",
      "type": "error"
    },
    {
      "anonymous": false,
      "inputs": [
        {
          "indexed": true,
          "internalType": "bytes32",
          "name": "root",
          "type": "bytes32"
        }
      ],
      "name": "AggregateRootReceived",
      "type": "event"
    },
    {
      "anonymous": false,
      "inputs": [
        {
          "indexed": true,
          "internalType": "bytes32",
          "name": "root",
          "type": "bytes32"
        }
      ],
      "name": "AggregateRootRemoved",
      "type": "event"
    },
    {
      "anonymous": false,
      "inputs": [
        {
          "indexed": true,
          "internalType": "bytes32",
          "name": "root",
          "type": "bytes32"
        }
      ],
      "name": "AggregateRootVerified",
      "type": "event"
    },
    {
      "anonymous": false,
      "inputs": [
        {
          "indexed": false,
          "internalType": "address",
          "name": "previous",
          "type": "address"
        },
        {
          "indexed": false,
          "internalType": "address",
          "name": "current",
          "type": "address"
        }
      ],
      "name": "AliasedSenderUpdated",
      "type": "event"
    },
    {
      "anonymous": false,
      "inputs": [
        {
          "indexed": true,
          "internalType": "uint256",
          "name": "updated",
          "type": "uint256"
        },
        {
          "indexed": false,
          "internalType": "address",
          "name": "caller",
          "type": "address"
        }
      ],
      "name": "DelayBlocksUpdated",
      "type": "event"
    },
    {
      "anonymous": false,
      "inputs": [
        {
          "indexed": true,
          "internalType": "bytes32",
          "name": "leaf",
          "type": "bytes32"
        },
        {
          "indexed": true,
          "internalType": "uint256",
          "name": "index",
          "type": "uint256"
        },
        {
          "indexed": true,
          "internalType": "bytes32",
          "name": "root",
          "type": "bytes32"
        },
        {
          "indexed": false,
          "internalType": "bytes",
          "name": "message",
          "type": "bytes"
        }
      ],
      "name": "Dispatch",
      "type": "event"
    },
    {
      "anonymous": false,
      "inputs": [
        {
          "indexed": true,
          "internalType": "address",
          "name": "to",
          "type": "address"
        },
        {
          "indexed": false,
          "internalType": "uint256",
          "name": "amount",
          "type": "uint256"
        }
      ],
      "name": "FundsWithdrawn",
      "type": "event"
    },
    {
      "anonymous": false,
      "inputs": [
        {
          "indexed": false,
          "internalType": "bytes",
          "name": "data",
          "type": "bytes"
        },
        {
          "indexed": false,
          "internalType": "address",
          "name": "caller",
          "type": "address"
        }
      ],
      "name": "MessageProcessed",
      "type": "event"
    },
    {
      "anonymous": false,
      "inputs": [
        {
          "indexed": true,
          "internalType": "bytes32",
          "name": "leaf",
          "type": "bytes32"
        },
        {
          "indexed": true,
          "internalType": "bytes32",
          "name": "aggregateRoot",
          "type": "bytes32"
        },
        {
          "indexed": false,
          "internalType": "uint256",
          "name": "aggregateIndex",
          "type": "uint256"
        }
      ],
      "name": "MessageProven",
      "type": "event"
    },
    {
      "anonymous": false,
      "inputs": [
        {
          "indexed": false,
          "internalType": "bytes",
          "name": "data",
          "type": "bytes"
        },
        {
          "indexed": false,
          "internalType": "bytes",
          "name": "encodedData",
          "type": "bytes"
        },
        {
          "indexed": false,
          "internalType": "address",
          "name": "caller",
          "type": "address"
        }
      ],
      "name": "MessageSent",
      "type": "event"
    },
    {
      "anonymous": false,
      "inputs": [
        {
          "indexed": false,
          "internalType": "address",
          "name": "previous",
          "type": "address"
        },
        {
          "indexed": false,
          "internalType": "address",
          "name": "current",
          "type": "address"
        }
      ],
      "name": "MirrorConnectorUpdated",
      "type": "event"
    },
    {
      "anonymous": false,
      "inputs": [
        {
          "indexed": true,
          "internalType": "uint32",
          "name": "domain",
          "type": "uint32"
        },
        {
          "indexed": true,
          "internalType": "uint32",
          "name": "mirrorDomain",
          "type": "uint32"
        },
        {
          "indexed": false,
          "internalType": "address",
          "name": "amb",
          "type": "address"
        },
        {
          "indexed": false,
          "internalType": "address",
          "name": "rootManager",
          "type": "address"
        },
        {
          "indexed": false,
          "internalType": "address",
          "name": "mirrorConnector",
          "type": "address"
        }
      ],
      "name": "NewConnector",
      "type": "event"
    },
    {
      "anonymous": false,
      "inputs": [
        {
          "indexed": true,
          "internalType": "address",
          "name": "proposedOwner",
          "type": "address"
        }
      ],
      "name": "OwnershipProposed",
      "type": "event"
    },
    {
      "anonymous": false,
      "inputs": [
        {
          "indexed": true,
          "internalType": "address",
          "name": "previousOwner",
          "type": "address"
        },
        {
          "indexed": true,
          "internalType": "address",
          "name": "newOwner",
          "type": "address"
        }
      ],
      "name": "OwnershipTransferred",
      "type": "event"
    },
    {
      "anonymous": false,
      "inputs": [
        {
          "indexed": false,
          "internalType": "address",
          "name": "account",
          "type": "address"
        }
      ],
      "name": "Paused",
      "type": "event"
    },
    {
      "anonymous": false,
      "inputs": [
        {
          "indexed": true,
          "internalType": "bytes32",
          "name": "leaf",
          "type": "bytes32"
        },
        {
          "indexed": false,
          "internalType": "bool",
          "name": "success",
          "type": "bool"
        },
        {
          "indexed": false,
          "internalType": "bytes",
          "name": "returnData",
          "type": "bytes"
        }
      ],
      "name": "Process",
      "type": "event"
    },
    {
      "anonymous": false,
      "inputs": [
        {
          "indexed": false,
          "internalType": "address",
          "name": "updater",
          "type": "address"
        },
        {
          "indexed": false,
          "internalType": "uint256",
          "name": "newRateLimit",
          "type": "uint256"
        }
      ],
      "name": "SendRateLimitUpdated",
      "type": "event"
    },
    {
      "anonymous": false,
      "inputs": [
        {
          "indexed": true,
          "internalType": "address",
          "name": "sender",
          "type": "address"
        }
      ],
      "name": "SenderAdded",
      "type": "event"
    },
    {
      "anonymous": false,
      "inputs": [
        {
          "indexed": true,
          "internalType": "address",
          "name": "sender",
          "type": "address"
        }
      ],
      "name": "SenderRemoved",
      "type": "event"
    },
    {
      "anonymous": false,
      "inputs": [
        {
          "indexed": true,
          "internalType": "uint256",
          "name": "snapshotId",
          "type": "uint256"
        },
        {
          "indexed": true,
          "internalType": "bytes32",
          "name": "root",
          "type": "bytes32"
        },
        {
          "indexed": true,
          "internalType": "uint256",
          "name": "count",
          "type": "uint256"
        }
      ],
      "name": "SnapshotRootSaved",
      "type": "event"
    },
    {
      "anonymous": false,
      "inputs": [
        {
          "indexed": false,
          "internalType": "address",
          "name": "account",
          "type": "address"
        }
      ],
      "name": "Unpaused",
      "type": "event"
    },
    {
      "anonymous": false,
      "inputs": [
        {
          "indexed": false,
          "internalType": "address",
          "name": "watcherManager",
          "type": "address"
        }
      ],
      "name": "WatcherManagerChanged",
      "type": "event"
    },
    {
      "inputs": [],
      "name": "AMB",
      "outputs": [
        {
          "internalType": "address",
          "name": "",
          "type": "address"
        }
      ],
      "stateMutability": "view",
      "type": "function"
    },
    {
      "inputs": [],
      "name": "DOMAIN",
      "outputs": [
        {
          "internalType": "uint32",
          "name": "",
          "type": "uint32"
        }
      ],
      "stateMutability": "view",
      "type": "function"
    },
    {
      "inputs": [],
      "name": "MERKLE",
      "outputs": [
        {
          "internalType": "contract MerkleTreeManager",
          "name": "",
          "type": "address"
        }
      ],
      "stateMutability": "view",
      "type": "function"
    },
    {
      "inputs": [],
      "name": "MIRROR_DOMAIN",
      "outputs": [
        {
          "internalType": "uint32",
          "name": "",
          "type": "uint32"
        }
      ],
      "stateMutability": "view",
      "type": "function"
    },
    {
      "inputs": [],
      "name": "PROCESS_GAS",
      "outputs": [
        {
          "internalType": "uint256",
          "name": "",
          "type": "uint256"
        }
      ],
      "stateMutability": "view",
      "type": "function"
    },
    {
      "inputs": [],
      "name": "RESERVE_GAS",
      "outputs": [
        {
          "internalType": "uint256",
          "name": "",
          "type": "uint256"
        }
      ],
      "stateMutability": "view",
      "type": "function"
    },
    {
      "inputs": [],
      "name": "ROOT_MANAGER",
      "outputs": [
        {
          "internalType": "address",
          "name": "",
          "type": "address"
        }
      ],
      "stateMutability": "view",
      "type": "function"
    },
    {
      "inputs": [],
      "name": "acceptProposedOwner",
      "outputs": [],
      "stateMutability": "nonpayable",
      "type": "function"
    },
    {
      "inputs": [
        {
          "internalType": "address",
          "name": "_sender",
          "type": "address"
        }
      ],
      "name": "addSender",
      "outputs": [],
      "stateMutability": "nonpayable",
      "type": "function"
    },
    {
      "inputs": [],
      "name": "aliasedSender",
      "outputs": [
        {
          "internalType": "address",
          "name": "",
          "type": "address"
        }
      ],
      "stateMutability": "view",
      "type": "function"
    },
    {
      "inputs": [
        {
          "internalType": "address",
          "name": "",
          "type": "address"
        }
      ],
      "name": "allowlistedSenders",
      "outputs": [
        {
          "internalType": "bool",
          "name": "",
          "type": "bool"
        }
      ],
      "stateMutability": "view",
      "type": "function"
    },
    {
      "inputs": [],
      "name": "delay",
      "outputs": [
        {
          "internalType": "uint256",
          "name": "",
          "type": "uint256"
        }
      ],
      "stateMutability": "view",
      "type": "function"
    },
    {
      "inputs": [],
      "name": "delayBlocks",
      "outputs": [
        {
          "internalType": "uint256",
          "name": "",
          "type": "uint256"
        }
      ],
      "stateMutability": "view",
      "type": "function"
    },
    {
      "inputs": [
        {
          "internalType": "uint32",
          "name": "_destinationDomain",
          "type": "uint32"
        },
        {
          "internalType": "bytes32",
          "name": "_recipientAddress",
          "type": "bytes32"
        },
        {
          "internalType": "bytes",
          "name": "_messageBody",
          "type": "bytes"
        }
      ],
      "name": "dispatch",
      "outputs": [
        {
          "internalType": "bytes32",
          "name": "",
          "type": "bytes32"
        },
        {
          "internalType": "bytes",
          "name": "",
          "type": "bytes"
        }
      ],
      "stateMutability": "nonpayable",
      "type": "function"
    },
    {
      "inputs": [],
      "name": "getLastCompletedSnapshotId",
      "outputs": [
        {
          "internalType": "uint256",
          "name": "_lastCompletedSnapshotId",
          "type": "uint256"
        }
      ],
      "stateMutability": "view",
      "type": "function"
    },
    {
      "inputs": [],
      "name": "getSnapshotDuration",
      "outputs": [
        {
          "internalType": "uint256",
          "name": "_snapshotDuration",
          "type": "uint256"
        }
      ],
      "stateMutability": "pure",
      "type": "function"
    },
    {
      "inputs": [],
      "name": "home",
      "outputs": [
        {
          "internalType": "contract IOutbox",
          "name": "",
          "type": "address"
        }
      ],
      "stateMutability": "view",
      "type": "function"
    },
    {
      "inputs": [
        {
          "internalType": "address",
          "name": "_potentialReplica",
          "type": "address"
        }
      ],
      "name": "isReplica",
      "outputs": [
        {
          "internalType": "bool",
          "name": "",
          "type": "bool"
        }
      ],
      "stateMutability": "view",
      "type": "function"
    },
    {
      "inputs": [],
      "name": "lastSentBlock",
      "outputs": [
        {
          "internalType": "uint256",
          "name": "",
          "type": "uint256"
        }
      ],
      "stateMutability": "view",
      "type": "function"
    },
    {
      "inputs": [],
      "name": "localDomain",
      "outputs": [
        {
          "internalType": "uint32",
          "name": "",
          "type": "uint32"
        }
      ],
      "stateMutability": "view",
      "type": "function"
    },
    {
      "inputs": [],
      "name": "mirrorConnector",
      "outputs": [
        {
          "internalType": "address",
          "name": "",
          "type": "address"
        }
      ],
      "stateMutability": "view",
      "type": "function"
    },
    {
      "inputs": [],
      "name": "outboundRoot",
      "outputs": [
        {
          "internalType": "bytes32",
          "name": "",
          "type": "bytes32"
        }
      ],
      "stateMutability": "view",
      "type": "function"
    },
    {
      "inputs": [],
      "name": "owner",
      "outputs": [
        {
          "internalType": "address",
          "name": "",
          "type": "address"
        }
      ],
      "stateMutability": "view",
      "type": "function"
    },
    {
      "inputs": [],
      "name": "pause",
      "outputs": [],
      "stateMutability": "nonpayable",
      "type": "function"
    },
    {
      "inputs": [],
      "name": "paused",
      "outputs": [
        {
          "internalType": "bool",
          "name": "",
          "type": "bool"
        }
      ],
      "stateMutability": "view",
      "type": "function"
    },
    {
      "inputs": [
        {
          "internalType": "bytes32",
          "name": "",
          "type": "bytes32"
        }
      ],
      "name": "pendingAggregateRoots",
      "outputs": [
        {
          "internalType": "uint256",
          "name": "",
          "type": "uint256"
        }
      ],
      "stateMutability": "view",
      "type": "function"
    },
    {
      "inputs": [
        {
          "internalType": "bytes",
          "name": "_data",
          "type": "bytes"
        }
      ],
      "name": "processMessage",
      "outputs": [],
      "stateMutability": "nonpayable",
      "type": "function"
    },
    {
      "inputs": [
        {
          "internalType": "address",
          "name": "newlyProposed",
          "type": "address"
        }
      ],
      "name": "proposeNewOwner",
      "outputs": [],
      "stateMutability": "nonpayable",
      "type": "function"
    },
    {
      "inputs": [],
      "name": "proposed",
      "outputs": [
        {
          "internalType": "address",
          "name": "",
          "type": "address"
        }
      ],
      "stateMutability": "view",
      "type": "function"
    },
    {
      "inputs": [],
      "name": "proposedTimestamp",
      "outputs": [
        {
          "internalType": "uint256",
          "name": "",
          "type": "uint256"
        }
      ],
      "stateMutability": "view",
      "type": "function"
    },
    {
      "inputs": [
        {
          "components": [
            {
              "internalType": "bytes",
              "name": "message",
              "type": "bytes"
            },
            {
              "internalType": "bytes32[32]",
              "name": "path",
              "type": "bytes32[32]"
            },
            {
              "internalType": "uint256",
              "name": "index",
              "type": "uint256"
            }
          ],
          "internalType": "struct SpokeConnector.Proof[]",
          "name": "_proofs",
          "type": "tuple[]"
        },
        {
          "internalType": "bytes32",
          "name": "_aggregateRoot",
          "type": "bytes32"
        },
        {
          "internalType": "bytes32[32]",
          "name": "_aggregatePath",
          "type": "bytes32[32]"
        },
        {
          "internalType": "uint256",
          "name": "_aggregateIndex",
          "type": "uint256"
        }
      ],
      "name": "proveAndProcess",
      "outputs": [],
      "stateMutability": "nonpayable",
      "type": "function"
    },
    {
      "inputs": [
        {
          "internalType": "bytes32",
          "name": "",
          "type": "bytes32"
        }
      ],
      "name": "provenAggregateRoots",
      "outputs": [
        {
          "internalType": "bool",
          "name": "",
          "type": "bool"
        }
      ],
      "stateMutability": "view",
      "type": "function"
    },
    {
      "inputs": [
        {
          "internalType": "bytes32",
          "name": "",
          "type": "bytes32"
        }
      ],
      "name": "provenMessageRoots",
      "outputs": [
        {
          "internalType": "bool",
          "name": "",
          "type": "bool"
        }
      ],
      "stateMutability": "view",
      "type": "function"
    },
    {
      "inputs": [],
      "name": "rateLimitBlocks",
      "outputs": [
        {
          "internalType": "uint256",
          "name": "",
          "type": "uint256"
        }
      ],
      "stateMutability": "view",
      "type": "function"
    },
    {
      "inputs": [
        {
          "internalType": "bytes32",
          "name": "_fraudulentRoot",
          "type": "bytes32"
        }
      ],
      "name": "removePendingAggregateRoot",
      "outputs": [],
      "stateMutability": "nonpayable",
      "type": "function"
    },
    {
      "inputs": [
        {
          "internalType": "address",
          "name": "_sender",
          "type": "address"
        }
      ],
      "name": "removeSender",
      "outputs": [],
      "stateMutability": "nonpayable",
      "type": "function"
    },
    {
      "inputs": [],
      "name": "renounceOwnership",
      "outputs": [],
      "stateMutability": "nonpayable",
      "type": "function"
    },
    {
      "inputs": [],
      "name": "renounced",
      "outputs": [
        {
          "internalType": "bool",
          "name": "",
          "type": "bool"
        }
      ],
      "stateMutability": "view",
      "type": "function"
    },
    {
      "inputs": [
        {
          "internalType": "bytes",
          "name": "_encodedData",
          "type": "bytes"
        }
      ],
      "name": "send",
      "outputs": [],
      "stateMutability": "payable",
      "type": "function"
    },
    {
      "inputs": [
        {
          "internalType": "bytes32",
          "name": "",
          "type": "bytes32"
        }
      ],
      "name": "sentMessageRoots",
      "outputs": [
        {
          "internalType": "bool",
          "name": "",
          "type": "bool"
        }
      ],
      "stateMutability": "view",
      "type": "function"
    },
    {
      "inputs": [
        {
          "internalType": "uint256",
          "name": "_delayBlocks",
          "type": "uint256"
        }
      ],
      "name": "setDelayBlocks",
      "outputs": [],
      "stateMutability": "nonpayable",
      "type": "function"
    },
    {
      "inputs": [
        {
          "internalType": "address",
          "name": "_mirrorConnector",
          "type": "address"
        }
      ],
      "name": "setMirrorConnector",
      "outputs": [],
      "stateMutability": "nonpayable",
      "type": "function"
    },
    {
      "inputs": [
        {
          "internalType": "uint256",
          "name": "_rateLimit",
          "type": "uint256"
        }
      ],
      "name": "setRateLimitBlocks",
      "outputs": [],
      "stateMutability": "nonpayable",
      "type": "function"
    },
    {
      "inputs": [
        {
          "internalType": "address",
          "name": "_watcherManager",
          "type": "address"
        }
      ],
      "name": "setWatcherManager",
      "outputs": [],
      "stateMutability": "nonpayable",
      "type": "function"
    },
    {
      "inputs": [
        {
          "internalType": "uint256",
          "name": "",
          "type": "uint256"
        }
      ],
      "name": "snapshotRoots",
      "outputs": [
        {
          "internalType": "bytes32",
          "name": "",
          "type": "bytes32"
        }
      ],
      "stateMutability": "view",
      "type": "function"
    },
    {
      "inputs": [],
      "name": "unpause",
      "outputs": [],
      "stateMutability": "nonpayable",
      "type": "function"
    },
    {
      "inputs": [
        {
          "internalType": "address",
          "name": "_expected",
          "type": "address"
        }
      ],
      "name": "verifySender",
      "outputs": [
        {
          "internalType": "bool",
          "name": "",
          "type": "bool"
        }
      ],
      "stateMutability": "nonpayable",
      "type": "function"
    },
    {
      "inputs": [],
      "name": "watcherManager",
      "outputs": [
        {
          "internalType": "contract WatcherManager",
          "name": "",
          "type": "address"
        }
      ],
      "stateMutability": "view",
      "type": "function"
    },
    {
      "inputs": [
        {
          "internalType": "address",
          "name": "_to",
          "type": "address"
        }
      ],
      "name": "withdrawFunds",
      "outputs": [],
      "stateMutability": "nonpayable",
      "type": "function"
    },
    {
      "stateMutability": "payable",
      "type": "receive"
    }
  ],
  "transactionHash": "0x95816e6b65bef22c36fbdc5bc9e77e23f4ddb7dcef3baf9b085ef01143b6d3a0",
  "args": [
    "1734439522",
    "1735353714",
    "0x0000000000000000000000000000000000000064",
    "0x215ACdd042E7b9fd9EE30b078f3C1E4F82995889",
    "0x455479462EA5e4782c43817Eb339b6d502128348",
    "850000",
    "15000",
    120,
    "0x33a22C77a1E301a1101f3F977985CeFD0e4f6231",
    "0x20E88bE518820E652C7c835E9f869F9631DD0f3c"
  ],
  "numDeployments": 1,
  "solcInputHash": "9799d331a5c5bc486a444e0cd01af9b7",
  "bytecode": "0x6101606040523480156200001257600080fd5b5060405162004036380380620040368339810160408190526200003591620004ae565b89898989898989898989808a8a8a8a8a6200005033620002bd565b8463ffffffff166000036200009b5760405162461bcd60e51b815260206004820152600c60248201526b32b6b83a3c903237b6b0b4b760a11b60448201526064015b60405180910390fd5b6001600160a01b038216620000e75760405162461bcd60e51b815260206004820152601160248201527032b6b83a3c903937b7ba26b0b730b3b2b960791b604482015260640162000092565b63ffffffff8086166080526001600160a01b0380851660a05283811660c05290851660e0528116156200011f576200011f8162000322565b604080516001600160a01b0385811682528481166020830152831681830152905163ffffffff86811692908816917f4f9c27c2fe3f84576ea469d367d044da53c45e951617e8389f2b5ed8db9d25f09181900360600190a350506003805460ff60a01b191690555050600480546001600160a01b0319166001600160a01b039390931692909217909155506001600755620cf84f8511620001f25760405162461bcd60e51b815260206004820152600c60248201526b2170726f636573732067617360a01b604482015260640162000092565b613a978411620002345760405162461bcd60e51b815260206004820152600c60248201526b21726573657276652067617360a01b604482015260640162000092565b6101208590526101408490526001600160a01b038216620002875760405162461bcd60e51b815260206004820152600c60248201526b217a65726f206d65726b6c6560a01b604482015260640162000092565b506001600160a01b03166101005260085550620002ad95508b9450506200039692505050565b5050505050505050505062000587565b600080546040516001600160a01b03808516939216917f8be0079c531659141344cd1fd0a4f28419497f9722a3daafe3b4186f6b6457e091a3600080546001600160a01b039092166001600160a01b0319928316178155600255600180549091169055565b6200032d8162000396565b600354604080516001600160a01b03928316815291831660208301527fc77bec288fc88f168427f2f7da682eadb26cac89d8d591af6e443da98dff2bbc910160405180910390a1600380546001600160a01b0319166001600160a01b0392909216919091179055565b60a0516040516326ddea8360e11b81526001600160a01b038381166004830152600060248301819052921690634dbbd50690604401602060405180830381865afa158015620003e9573d6000803e3d6000fd5b505050506040513d601f19601f820116820180604052508101906200040f919062000562565b600f54604080516001600160a01b03928316815291831660208301529192507f138b2e0015ac8e1842fbb73cdefea5574fd42dd33df05e84271a7adc811d6b3d910160405180910390a1600f80546001600160a01b0319166001600160a01b039290921691909117905550565b805163ffffffff811681146200049157600080fd5b919050565b80516001600160a01b03811681146200049157600080fd5b6000806000806000806000806000806101408b8d031215620004cf57600080fd5b620004da8b6200047c565b9950620004ea60208c016200047c565b9850620004fa60408c0162000496565b97506200050a60608c0162000496565b96506200051a60808c0162000496565b955060a08b0151945060c08b0151935060e08b01519250620005406101008c0162000496565b9150620005516101208c0162000496565b90509295989b9194979a5092959850565b6000602082840312156200057557600080fd5b620005808262000496565b9392505050565b60805160a05160c05160e0516101005161012051610140516139cf620006676000396000818161034001526120f00152600081816109120152818161211101526121a301526000818161074001528181610a8f01528181610dcb01528181610f2f0152818161107b0152818161177e0152818161181a015281816118e7015281816119b401528181611dda0152612088015260006102d0015260006105860152600081816108c801528181611bb1015281816125490152612e090152600081816104cd0152818161067c015281816119650152611fed01526139cf6000f3fe6080604052600436106102b25760003560e01c80638456cb5911610175578063c5b350df116100dc578063d3c805b711610095578063d88beda21161006f578063d88beda214610900578063db1b765914610934578063e0fed01014610954578063fa31de011461097457600080fd5b8063d3c805b7146108a1578063d69f9d61146108b6578063d7d317b3146108ea57600080fd5b8063c5b350df146107f8578063cc3942831461080d578063d1745e4f1461082d578063d1851c9214610844578063d232c22014610862578063d2a3cc711461088157600080fd5b8063a01892a51161012e578063a01892a51461072e578063a792c29b14610762578063ad9c0c2e14610782578063b1f8100d14610798578063b2f87643146107b8578063b697f531146107d857600080fd5b80638456cb59146106585780638d3638f41461066d5780638da5cb5b146106a057806398c9f2b9146106be5780639d3117c7146106ee5780639fa92f9d1461071b57600080fd5b806352a9674b116102195780636159ada1116101d25780636159ada1146105a857806365eaf11b146105d857806368742da6146105ed5780636a42b8f81461060d5780636b04a93314610623578063715018a61461064357600080fd5b806352a9674b146104bb578063572386ca146104ef578063579c16181461051f5780635bd11efc146105355780635c975abb146105555780635f61e3ec1461057457600080fd5b80633cf52ffb1161026b5780633cf52ffb146103fb5780633f4ba83a146104105780634ff746f614610425578063508a109b146104455780635190bc531461046557806351cc57cc1461048e57600080fd5b806314168416146102be5780631eeaabea1461030c57806325e3beda1461032e5780632bb1ae7c14610370578063301f07c314610383578063361d88ac146103c357600080fd5b366102b957005b600080fd5b3480156102ca57600080fd5b506102f27f000000000000000000000000000000000000000000000000000000000000000081565b60405163ffffffff90911681526020015b60405180910390f35b34801561031857600080fd5b5061032c6103273660046133b5565b6109a2565b005b34801561033a57600080fd5b506103627f000000000000000000000000000000000000000000000000000000000000000081565b604051908152602001610303565b61032c61037e366004613471565b610a4c565b34801561038f57600080fd5b506103b361039e3660046133b5565b600a6020526000908152604090205460ff1681565b6040519015158152602001610303565b3480156103cf57600080fd5b50600f546103e3906001600160a01b031681565b6040516001600160a01b039091168152602001610303565b34801561040757600080fd5b50600254610362565b34801561041c57600080fd5b5061032c610bed565b34801561043157600080fd5b5061032c610440366004613471565b610c2a565b34801561045157600080fd5b5061032c6104603660046134a6565b610cba565b34801561047157600080fd5b506103b3610480366004613557565b6001600160a01b0316301490565b34801561049a57600080fd5b506103626104a93660046133b5565b600e6020526000908152604090205481565b3480156104c757600080fd5b506102f27f000000000000000000000000000000000000000000000000000000000000000081565b3480156104fb57600080fd5b506103b361050a3660046133b5565b600c6020526000908152604090205460ff1681565b34801561052b57600080fd5b5061036260055481565b34801561054157600080fd5b5061032c610550366004613557565b611040565b34801561056157600080fd5b50600354600160a01b900460ff166103b3565b34801561058057600080fd5b506103e37f000000000000000000000000000000000000000000000000000000000000000081565b3480156105b457600080fd5b506103b36105c3366004613557565b600d6020526000908152604090205460ff1681565b3480156105e457600080fd5b50610362611077565b3480156105f957600080fd5b5061032c610608366004613557565b611100565b34801561061957600080fd5b5062093a80610362565b34801561062f57600080fd5b5061032c61063e3660046133b5565b61117d565b34801561064f57600080fd5b5061032c611240565b34801561066457600080fd5b5061032c6112a0565b34801561067957600080fd5b507f00000000000000000000000000000000000000000000000000000000000000006102f2565b3480156106ac57600080fd5b506000546001600160a01b03166103e3565b3480156106ca57600080fd5b506103b36106d93660046133b5565b600b6020526000908152604090205460ff1681565b3480156106fa57600080fd5b506103626107093660046133b5565b60096020526000908152604090205481565b34801561072757600080fd5b50306103e3565b34801561073a57600080fd5b506103e37f000000000000000000000000000000000000000000000000000000000000000081565b34801561076e57600080fd5b506004546103e3906001600160a01b031681565b34801561078e57600080fd5b5061036260085481565b3480156107a457600080fd5b5061032c6107b3366004613557565b611354565b3480156107c457600080fd5b5061032c6107d3366004613557565b6113f2565b3480156107e457600080fd5b5061032c6107f3366004613557565b6114b9565b34801561080457600080fd5b5061032c611583565b34801561081957600080fd5b506003546103e3906001600160a01b031681565b34801561083957600080fd5b506107084204610362565b34801561085057600080fd5b506001546001600160a01b03166103e3565b34801561086e57600080fd5b506000546001600160a01b0316156103b3565b34801561088d57600080fd5b5061032c61089c366004613557565b6115f3565b3480156108ad57600080fd5b50610708610362565b3480156108c257600080fd5b506103e37f000000000000000000000000000000000000000000000000000000000000000081565b3480156108f657600080fd5b5061036260065481565b34801561090c57600080fd5b506103627f000000000000000000000000000000000000000000000000000000000000000081565b34801561094057600080fd5b506103b361094f366004613557565b6116ca565b34801561096057600080fd5b5061032c61096f3660046133b5565b6116db565b34801561098057600080fd5b5061099461098f366004613586565b61170f565b60405161030392919061362f565b6000546001600160a01b031633146109cd576040516311a8a1bb60e31b815260040160405180910390fd5b6008548103610a125760405162461bcd60e51b815260206004820152600c60248201526b2164656c6179426c6f636b7360a01b60448201526064015b60405180910390fd5b60405133815281907f8bd16320f3b60336ed5fd2a770eb7453e7e71cfef4462addffd7ae9dfe201c8e9060200160405180910390a2600855565b610a54611a82565b43600554600654610a65919061365e565b1115610a84576040516346cf2af160e11b815260040160405180910390fd5b4360068190555060007f00000000000000000000000000000000000000000000000000000000000000006001600160a01b031663ebf0c7176040518163ffffffff1660e01b8152600401602060405180830381865afa158015610aeb573d6000803e3d6000fd5b505050506040513d601f19601f82011682018060405250810190610b0f9190613671565b6000818152600c602052604090205490915060ff1615610b655760405162461bcd60e51b81526020600482015260116024820152701c9bdbdd08185b1c9958591e481cd95b9d607a1b6044820152606401610a09565b6000818152600c60209081526040808320805460ff1916600117905551610b929184910190815260200190565b6040516020818303038152906040529050610bad8184611acf565b7fdcaa37a042a0087de79018c629bbd29cee82ca80bd9be394e1696bf9e9355077818433604051610be09392919061368a565b60405180910390a1505050565b6000546001600160a01b03163314610c18576040516311a8a1bb60e31b815260040160405180910390fd5b610c20611c23565b610c28611c73565b565b600f546001600160a01b03163314610c755760405162461bcd60e51b815260206004820152600e60248201526d10b0b634b0b9b2b229b2b73232b960911b6044820152606401610a09565b610c7e81611cc8565b7fb3abc57bfeebd2cac918901db582f71972a8e628bccf19f5ae3e3482b98a5ced8133604051610caf9291906136c8565b60405180910390a150565b610cc2611a82565b610cca611d68565b83610d015760405162461bcd60e51b81526020600482015260076024820152662170726f6f667360c81b6044820152606401610a09565b600085856000818110610d1657610d166136f2565b9050602002810190610d289190613708565b610d329080613729565b604051610d40929190613777565b604051809103902090506000610da78288886000818110610d6357610d636136f2565b9050602002810190610d759190613708565b60200189896000818110610d8b57610d8b6136f2565b9050602002810190610d9d9190613708565b6104200135611dc1565b9050610db581868686611edc565b6040516398fae8e960e01b8152600481018390527f00000000000000000000000000000000000000000000000000000000000000006001600160a01b0316906398fae8e990602401600060405180830381600087803b158015610e1757600080fd5b505af1158015610e2b573d6000803e3d6000fd5b5088925060019150505b818163ffffffff161015610f9f5788888263ffffffff16818110610e5b57610e5b6136f2565b9050602002810190610e6d9190613708565b610e779080613729565b604051610e85929190613777565b604051809103902093506000610eda858b8b8563ffffffff16818110610ead57610ead6136f2565b9050602002810190610ebf9190613708565b6020018c8c8663ffffffff16818110610d8b57610d8b6136f2565b9050838114610f195760405162461bcd60e51b815260206004820152600b60248201526a085cda185c9959149bdbdd60aa1b6044820152606401610a09565b6040516398fae8e960e01b8152600481018690527f00000000000000000000000000000000000000000000000000000000000000006001600160a01b0316906398fae8e990602401600060405180830381600087803b158015610f7b57600080fd5b505af1158015610f8f573d6000803e3d6000fd5b5050505081600101915050610e35565b5060005b818163ffffffff16101561102b5761102289898363ffffffff16818110610fcc57610fcc6136f2565b9050602002810190610fde9190613708565b610fe89080613729565b8080601f016020809104026020016040519081016040528093929190818152602001838380828437600092019190915250611fd792505050565b50600101610fa3565b505050506110396001600755565b5050505050565b6000546001600160a01b0316331461106b576040516311a8a1bb60e31b815260040160405180910390fd5b611074816122bc565b50565b60007f00000000000000000000000000000000000000000000000000000000000000006001600160a01b031663ebf0c7176040518163ffffffff1660e01b8152600401602060405180830381865afa1580156110d7573d6000803e3d6000fd5b505050506040513d601f19601f820116820180604052508101906110fb9190613671565b905090565b6000546001600160a01b0316331461112b576040516311a8a1bb60e31b815260040160405180910390fd5b47611136828261232e565b816001600160a01b03167feaff4b37086828766ad3268786972c0cd24259d4c87a80f9d3963a3c3d999b0d8260405161117191815260200190565b60405180910390a25050565b6000546001600160a01b031633146111a8576040516311a8a1bb60e31b815260040160405180910390fd5b6111b0611c23565b60008181526009602052604081205490036112055760405162461bcd60e51b8152602060048201526015602482015274616767726567617465526f6f74202165786973747360581b6044820152606401610a09565b6000818152600960205260408082208290555182917ff51534ecf10a58db36ce4f5180f59deddf3b3eb7c5e7454e602c2f80a40cc73991a250565b6000546001600160a01b0316331461126b576040516311a8a1bb60e31b815260040160405180910390fd5b60405162461bcd60e51b815260206004820152600a6024820152691c1c9bda1a589a5d195960b21b6044820152606401610a09565b600480546040516384785ecd60e01b815233928101929092526001600160a01b0316906384785ecd90602401602060405180830381865afa1580156112e9573d6000803e3d6000fd5b505050506040513d601f19601f8201168201806040525081019061130d9190613787565b6113445760405162461bcd60e51b815260206004820152600860248201526710bbb0ba31b432b960c11b6044820152606401610a09565b61134c611a82565b610c2861244c565b6000546001600160a01b0316331461137f576040516311a8a1bb60e31b815260040160405180910390fd5b6001546001600160a01b03828116911614801561139d575060025415155b156113bb576040516311bc066560e11b815260040160405180910390fd5b6000546001600160a01b038083169116036113e957604051634a2fb73f60e11b815260040160405180910390fd5b6110748161248f565b6000546001600160a01b0316331461141d576040516311a8a1bb60e31b815260040160405180910390fd5b6001600160a01b0381166000908152600d602052604090205460ff166114705760405162461bcd60e51b815260206004820152600860248201526708585b1b1bddd95960c21b6044820152606401610a09565b6001600160a01b0381166000818152600d6020526040808220805460ff19169055517f384859c5ef5fafac31e8bc92ce7fb48b1f2c74c4dd5e212eb84ec202fa5d9fad9190a250565b6000546001600160a01b031633146114e4576040516311a8a1bb60e31b815260040160405180910390fd5b6001600160a01b0381166000908152600d602052604090205460ff16156115375760405162461bcd60e51b8152602060048201526007602482015266185b1b1bddd95960ca1b6044820152606401610a09565b6001600160a01b0381166000818152600d6020526040808220805460ff19166001179055517fd65eca5d561d3a4568c87b9b13ced4ab52a69edadfdfdb22d76bc595f36d7d879190a250565b6001546001600160a01b031633146115ae576040516311a7f27160e11b815260040160405180910390fd5b62093a80600254426115c091906137a9565b116115de576040516324e0285f60e21b815260040160405180910390fd5b600154610c28906001600160a01b03166124dd565b6000546001600160a01b0316331461161e576040516311a8a1bb60e31b815260040160405180910390fd5b6004546001600160a01b039081169082160361167c5760405162461bcd60e51b815260206004820152601760248201527f616c72656164792077617463686572206d616e616765720000000000000000006044820152606401610a09565b600480546001600160a01b0319166001600160a01b0383169081179091556040519081527fc16d059e43d7f8e29ccb4e001a2f249d3c59e274925d6a6bc3912943441d9f6c90602001610caf565b60006116d582612542565b92915050565b6000546001600160a01b03163314611706576040516311a8a1bb60e31b815260040160405180910390fd5b61107481612588565b336000908152600d602052604081205460609060ff166117605760405162461bcd60e51b815260206004820152600c60248201526b08585b1b1bdddb1a5cdd195960a21b6044820152606401610a09565b61070842046000818152600e602052604081205490036118c95760007f00000000000000000000000000000000000000000000000000000000000000006001600160a01b031663ebf0c7176040518163ffffffff1660e01b8152600401602060405180830381865afa1580156117da573d6000803e3d6000fd5b505050506040513d601f19601f820116820180604052508101906117fe9190613671565b905080600e6000848152602001908152602001600020819055507f00000000000000000000000000000000000000000000000000000000000000006001600160a01b03166306661abd6040518163ffffffff1660e01b8152600401602060405180830381865afa158015611876573d6000803e3d6000fd5b505050506040513d601f19601f8201168201806040525081019061189a9190613671565b604051829084907f7ab06ac7a4d1b913d3302154561c33502bc3786196bf36757232034393d6143890600090a4505b604051630c132ab560e01b815263ffffffff871660048201526000907f00000000000000000000000000000000000000000000000000000000000000006001600160a01b031690630c132ab5906024016020604051808303816000875af1158015611938573d6000803e3d6000fd5b505050506040513d601f19601f8201168201806040525081019061195c91906137bc565b9050600061198e7f000000000000000000000000000000000000000000000000000000000000000033848b8b8b612606565b80516020820120604051632d287e4360e01b8152600481018290529192509060009081907f00000000000000000000000000000000000000000000000000000000000000006001600160a01b031690632d287e439060240160408051808303816000875af1158015611a04573d6000803e3d6000fd5b505050506040513d601f19601f82011682018060405250810190611a2891906137d9565b909250905081611a396001836137a9565b847f40f08ee347fc927ae45902edc87debb024aab1a311943731968607f603f2152f87604051611a6991906137fd565b60405180910390a4509099919850909650505050505050565b600354600160a01b900460ff1615610c285760405162461bcd60e51b815260206004820152601060248201526f14185d5cd8589b194e881c185d5cd95960821b6044820152606401610a09565b8151602014611b0a5760405162461bcd60e51b8152602060048201526007602482015266042d8cadccee8d60cb1b6044820152606401610a09565b805115611b485760405162461bcd60e51b815260206004820152600c60248201526b042c8c2e8c240d8cadccee8d60a31b6044820152606401610a09565b6000634ff746f660e01b83604051602401611b6391906137fd565b60408051601f198184030181529181526020820180516001600160e01b03166001600160e01b03199094169390931790925260035491516349460b4d60e11b81529092506001600160a01b037f000000000000000000000000000000000000000000000000000000000000000081169263928c169a92611bec9291909116908590600401613810565b600060405180830381600087803b158015611c0657600080fd5b505af1158015611c1a573d6000803e3d6000fd5b50505050505050565b600354600160a01b900460ff16610c285760405162461bcd60e51b815260206004820152601460248201527314185d5cd8589b194e881b9bdd081c185d5cd95960621b6044820152606401610a09565b611c7b611c23565b6003805460ff60a01b191690557f5db9ee0a495bf2e6ff9c91a7834c1ba4fdd244a5e8aa4e537bd38aeae4b073aa335b6040516001600160a01b03909116815260200160405180910390a1565b600354611cdd906001600160a01b0316612542565b611d1c5760405162461bcd60e51b815260206004820152601060248201526f10b6b4b93937b921b7b73732b1ba37b960811b6044820152606401610a09565b8051602014611d575760405162461bcd60e51b8152602060048201526007602482015266042d8cadccee8d60cb1b6044820152606401610a09565b611074611d6382613834565b61263e565b600260075403611dba5760405162461bcd60e51b815260206004820152601f60248201527f5265656e7472616e637947756172643a207265656e7472616e742063616c6c006044820152606401610a09565b6002600755565b600080604051630546f34b60e21b8152600481018690527f00000000000000000000000000000000000000000000000000000000000000006001600160a01b03169063151bcd2c90602401602060405180830381865afa158015611e29573d6000803e3d6000fd5b505050506040513d601f19601f82011682018060405250810190611e4d9190613871565b6002811115611e5e57611e5e61385b565b14611e9e5760405162461bcd60e51b815260206004820152601060248201526f214c6561665374617475732e4e6f6e6560801b6044820152606401610a09565b611ed284846020806020026040519081016040528092919082602080028082843760009201919091525086915061275f9050565b90505b9392505050565b6000848152600b602052604090205460ff16611fd157611efb83612aad565b6000611f3185846020806020026040519081016040528092919082602080028082843760009201919091525086915061275f9050565b9050838114611f785760405162461bcd60e51b81526020600482015260136024820152721a5b9d985b1a59081a5b989bdd5b99149bdbdd606a1b6044820152606401610a09565b6000858152600b602052604090819020805460ff1916600117905551849086907f7ec1ea51fe3db53e55ed9d922854bc2156f467ff2f87d74e2086dae2c84a88a890611fc79086815260200190565b60405180910390a3505b50505050565b600080611fe48382612c0d565b905063ffffffff7f00000000000000000000000000000000000000000000000000000000000000001661201c62ffffff198316612c31565b63ffffffff161461205e5760405162461bcd60e51b815260206004820152600c60248201526b10b232b9ba34b730ba34b7b760a11b6044820152606401610a09565b600061206f62ffffff198316612c46565b604051630b61f10360e41b8152600481018290529091507f00000000000000000000000000000000000000000000000000000000000000006001600160a01b03169063b61f103090602401600060405180830381600087803b1580156120d457600080fd5b505af11580156120e8573d6000803e3d6000fd5b5050505060017f00000000000000000000000000000000000000000000000000000000000000007f000000000000000000000000000000000000000000000000000000000000000061213a919061365e565b61214491906137a9565b5a1161217b5760405162461bcd60e51b8152600401610a09906020808252600490820152632167617360e01b604082015260600190565b600061218c62ffffff198416612c8f565b6040805161010080825261012082019092529192507f0000000000000000000000000000000000000000000000000000000000000000916000908260208201818036833701905050905060006121e762ffffff198816612ca0565b6121f662ffffff198916612cb4565b61220562ffffff198a16612cc9565b61222261221762ffffff198c16612cde565b62ffffff1916612d0c565b6040516024016122359493929190613892565b60408051601f198184030181529190526020810180516001600160e01b031663ab2dc3f560e01b179052905061226f858560008685612d55565b604051919950925086907fd42de95a9b26f1be134c8ecce389dc4fcfa18753d01661b7b361233569e8fe48906122a8908b9086906138cb565b60405180910390a250505050505050919050565b6122c581612de0565b600354604080516001600160a01b03928316815291831660208301527fc77bec288fc88f168427f2f7da682eadb26cac89d8d591af6e443da98dff2bbc910160405180910390a1600380546001600160a01b0319166001600160a01b0392909216919091179055565b8047101561237e5760405162461bcd60e51b815260206004820152601d60248201527f416464726573733a20696e73756666696369656e742062616c616e63650000006044820152606401610a09565b6000826001600160a01b03168260405160006040518083038185875af1925050503d80600081146123cb576040519150601f19603f3d011682016040523d82523d6000602084013e6123d0565b606091505b50509050806124475760405162461bcd60e51b815260206004820152603a60248201527f416464726573733a20756e61626c6520746f2073656e642076616c75652c207260448201527f6563697069656e74206d617920686176652072657665727465640000000000006064820152608401610a09565b505050565b612454611a82565b6003805460ff60a01b1916600160a01b1790557f62e78cea01bee320cd4e420270b5ea74000d11b0c9f74754ebdbfc544b05a258611cab3390565b42600255600180546001600160a01b0319166001600160a01b0383169081179091556040517f6ab4d119f23076e8ad491bc65ce85f017fb0591dce08755ba8591059cc51737a90600090a250565b600080546040516001600160a01b03808516939216917f8be0079c531659141344cd1fd0a4f28419497f9722a3daafe3b4186f6b6457e091a3600080546001600160a01b039092166001600160a01b0319928316178155600255600180549091169055565b600061256d7f0000000000000000000000000000000000000000000000000000000000000000612ee3565b6001600160a01b0316826001600160a01b0316149050919050565b60055481036125cb5760405162461bcd60e51b815260206004820152600f60248201526e085b995dc81c985d19481b1a5b5a5d608a1b6044820152606401610a09565b600581905560408051338152602081018390527f8e7fa5e406cb856aab05575e45ea011c6748376cc1b5229e3d67b92986406a159101610caf565b6060868686868686604051602001612623969594939291906138e6565b60405160208183030381529060405290509695505050505050565b8061267c5760405162461bcd60e51b815260206004820152600e60248201526d6e657720726f6f7420656d70747960901b6044820152606401610a09565b600081815260096020526040902054156126cf5760405162461bcd60e51b8152602060048201526014602482015273726f6f7420616c72656164792070656e64696e6760601b6044820152606401610a09565b6000818152600a602052604090205460ff16156127245760405162461bcd60e51b81526020600482015260136024820152723937b7ba1030b63932b0b23c90383937bb32b760691b6044820152606401610a09565b6000818152600960205260408082204390555182917f84ef18531155afdb0e64ff905d67044ae3aac63a6fba4661cfd9c4c14f289bc891a250565b6020600582811b8216948552835194820394909452604060008181206002851615871b808503919091528386015190528181206004851615871b808503919091528286015190528181206008851615871b80850391909152606086015190528181206010851615871b8085039190915260808087015190915282822084861615881b8086039190915260a0870151905282822083861615881b8086039190915260c0870151905282822090851615871b8085039190915260e0860151905281812061010080861615881b80860392909252860151905281812061020080861615881b80860392909252610120870151909152828220610400861615881b808603919091526101408701519052828220610800861615881b808603919091526101608701519052828220611000861615881b808603919091526101808701519052828220612000861615881b808603919091526101a08701519052828220614000861615881b808603919091526101c08701519052828220618000861615881b808603919091526101e0870151905282822062010000861615881b8086039190915290860151905281812062020000851615871b80850391909152610220860151905281812062040000851615871b80850391909152610240860151905281812062080000851615871b80850391909152610260860151905281812062100000851615871b80850391909152610280860151905281812062200000851615871b808503919091526102a0860151905281812062400000851615871b808503919091526102c0860151905281812062800000851615871b808503919091526102e086015190528181206301000000851615871b8085039190915261030086015190528181206302000000851615871b8085039190915261032086015190528181206304000000851615871b8085039190915261034086015190528181206308000000851615871b8085039190915261036086015190528181206310000000851615871b8085039190915261038086015190528181206320000000851615871b808503919091526103a086015190528181206340000000851615871b808503919091526103c0860151905281812063800000009094161590951b91829003929092526103e090920151909152902090565b80612af05760405162461bcd60e51b8152602060048201526013602482015272616767726567617465526f6f7420656d70747960681b6044820152606401610a09565b6000818152600a602052604090205460ff1615612b0a5750565b60008181526009602052604081205490819003612b605760405162461bcd60e51b81526020600482015260146024820152731859d9dc9959d85d19549bdbdd0808595e1a5cdd60621b6044820152606401610a09565b600854612b6d82436137a9565b1015612bbb5760405162461bcd60e51b815260206004820152601760248201527f616767726567617465526f6f74202176657269666965640000000000000000006044820152606401610a09565b6000828152600a6020526040808220805460ff191660011790555183917f36b314aba9f663b4d3ef3288ae489341cc5e6a2725a05fa2b72df7a27e03f42a91a250600090815260096020526040812055565b815160009060208401612c2864ffffffffff85168284612f6d565b95945050505050565b60006116d562ffffff19831660286004612faa565b600080612c5c8360781c6001600160601b031690565b6001600160601b031690506000612c7c8460181c6001600160601b031690565b6001600160601b03169091209392505050565b60006116d5612c9d83612fda565b90565b60006116d562ffffff198316826004612faa565b60006116d562ffffff19831660246004612faa565b60006116d562ffffff19831660046020612feb565b60006116d5604c612cfc81601886901c6001600160601b03166137a9565b62ffffff198516919060006130f6565b6060600080612d248460181c6001600160601b031690565b6001600160601b031690506040519150819250612d448483602001613172565b508181016020016040529052919050565b6000606060008060008661ffff1667ffffffffffffffff811115612d7b57612d7b6133ce565b6040519080825280601f01601f191660200182016040528015612da5576020820181803683370190505b5090506000808751602089018b8e8ef191503d925086831115612dc6578692505b828152826000602083013e90999098509650505050505050565b6040516326ddea8360e11b81526001600160a01b038281166004830152600060248301819052917f000000000000000000000000000000000000000000000000000000000000000090911690634dbbd50690604401602060405180830381865afa158015612e52573d6000803e3d6000fd5b505050506040513d601f19601f82011682018060405250810190612e769190613940565b600f54604080516001600160a01b03928316815291831660208301529192507f138b2e0015ac8e1842fbb73cdefea5574fd42dd33df05e84271a7adc811d6b3d910160405180910390a1600f80546001600160a01b0319166001600160a01b039290921691909117905550565b6000612eee82613265565b612f0b5760405163253a6fc960e11b815260040160405180910390fd5b816001600160a01b031663d74523b36040518163ffffffff1660e01b8152600401602060405180830381865afa158015612f49573d6000803e3d6000fd5b505050506040513d601f19601f820116820180604052508101906116d59190613940565b600080612f7a838561365e565b9050604051811115612f8a575060005b80600003612f9f5762ffffff19915050611ed5565b612c288585856132c9565b6000612fb782602061395d565b612fc2906008613976565b60ff16612fd0858585612feb565b901c949350505050565b60006116d562ffffff198316602c60205b60008160ff1660000361300057506000611ed5565b6130138460181c6001600160601b031690565b6001600160601b031661302960ff84168561365e565b1115613091576130428460781c6001600160601b031690565b6130558560181c6001600160601b031690565b6040516378218d2960e01b81526001600160601b039283166004820152911660248201526044810184905260ff83166064820152608401610a09565b60208260ff1611156130b65760405163045df3f960e01b815260040160405180910390fd5b6008820260006130cf8660781c6001600160601b031690565b6001600160601b031690506000600160ff1b60001984011d91909501511695945050505050565b60008061310c8660781c6001600160601b031690565b6001600160601b0316905061312086613340565b8461312b878461365e565b613135919061365e565b11156131485762ffffff1991505061316a565b613152858261365e565b90506131668364ffffffffff168286612f6d565b9150505b949350505050565b600062ffffff198084160361319a5760405163148d513360e21b815260040160405180910390fd5b6131a383613379565b156131c157604051632ee0949160e11b815260040160405180910390fd5b60006131d68460181c6001600160601b031690565b6001600160601b0316905060006131f68560781c6001600160601b031690565b6001600160601b031690506000806040519150858211156132175760206060fd5b8386858560045afa90508061323f57604051632af1bd9b60e21b815260040160405180910390fd5b61325a61324c8860d81c90565b64ffffffffff1687866132c9565b979650505050505050565b6000816001600160a01b031663175a260b6040518163ffffffff1660e01b8152600401602060405180830381865afa1580156132a5573d6000803e3d6000fd5b505050506040513d601f19601f820116820180604052508101906116d59190613787565b60006060601883856001600160601b038216821480156132f1575086816001600160601b0316145b61332a5760405162461bcd60e51b815260206004820152600a602482015269085d1c9d5b98d85d195960b21b6044820152606401610a09565b96831b90961790911b90941790931b9392505050565b60006133558260181c6001600160601b031690565b6133688360781c6001600160601b031690565b016001600160601b03169050919050565b60006133858260d81c90565b64ffffffffff1664ffffffffff0361339f57506001919050565b60006133aa83613340565b604051109392505050565b6000602082840312156133c757600080fd5b5035919050565b634e487b7160e01b600052604160045260246000fd5b600082601f8301126133f557600080fd5b813567ffffffffffffffff80821115613410576134106133ce565b604051601f8301601f19908116603f01168101908282118183101715613438576134386133ce565b8160405283815286602085880101111561345157600080fd5b836020870160208301376000602085830101528094505050505092915050565b60006020828403121561348357600080fd5b813567ffffffffffffffff81111561349a57600080fd5b61316a848285016133e4565b600080600080600061046086880312156134bf57600080fd5b853567ffffffffffffffff808211156134d757600080fd5b818801915088601f8301126134eb57600080fd5b8135818111156134fa57600080fd5b8960208260051b850101111561350f57600080fd5b60209283019750955050860135925061044086018781111561353057600080fd5b94979396509194604001933592915050565b6001600160a01b038116811461107457600080fd5b60006020828403121561356957600080fd5b8135611ed581613542565b63ffffffff8116811461107457600080fd5b60008060006060848603121561359b57600080fd5b83356135a681613574565b925060208401359150604084013567ffffffffffffffff8111156135c957600080fd5b6135d5868287016133e4565b9150509250925092565b60005b838110156135fa5781810151838201526020016135e2565b50506000910152565b6000815180845261361b8160208601602086016135df565b601f01601f19169290920160200192915050565b828152604060208201526000611ed26040830184613603565b634e487b7160e01b600052601160045260246000fd5b808201808211156116d5576116d5613648565b60006020828403121561368357600080fd5b5051919050565b60608152600061369d6060830186613603565b82810360208401526136af8186613603565b91505060018060a01b0383166040830152949350505050565b6040815260006136db6040830185613603565b905060018060a01b03831660208301529392505050565b634e487b7160e01b600052603260045260246000fd5b6000823561043e1983360301811261371f57600080fd5b9190910192915050565b6000808335601e1984360301811261374057600080fd5b83018035915067ffffffffffffffff82111561375b57600080fd5b60200191503681900382131561377057600080fd5b9250929050565b8183823760009101908152919050565b60006020828403121561379957600080fd5b81518015158114611ed557600080fd5b818103818111156116d5576116d5613648565b6000602082840312156137ce57600080fd5b8151611ed581613574565b600080604083850312156137ec57600080fd5b505080516020909101519092909150565b602081526000611ed56020830184613603565b6001600160a01b0383168152604060208201819052600090611ed290830184613603565b80516020808301519190811015613855576000198160200360031b1b821691505b50919050565b634e487b7160e01b600052602160045260246000fd5b60006020828403121561388357600080fd5b815160038110611ed557600080fd5b600063ffffffff8087168352808616602084015250836040830152608060608301526138c16080830184613603565b9695505050505050565b8215158152604060208201526000611ed26040830184613603565b600063ffffffff60e01b808960e01b168352876004840152808760e01b166024840152808660e01b1660288401525083602c830152825161392e81604c8501602087016135df565b91909101604c01979650505050505050565b60006020828403121561395257600080fd5b8151611ed581613542565b60ff82811682821603908111156116d5576116d5613648565b60ff818116838216029081169081811461399257613992613648565b509291505056fea264697066735822122055799f54b8ebf198cefc900e4f174244f55d1b75f024ac517ce6f6e5ece53c4d64736f6c63430008110033",
  "devdoc": {
    "kind": "dev",
    "methods": {
      "addSender(address)": {
        "details": "Only allowlisted routers (senders) can call `dispatch`.",
        "params": {
          "_sender": "Sender to whitelist"
        }
      },
      "dispatch(uint32,bytes32,bytes)": {
        "details": "The root of this tree will eventually be dispatched to mainnet via `send`. On mainnet (the \"hub\"), it will be combined into a single aggregate root by RootManager (along with outbound roots from other chains). This aggregate root will be redistributed to all destination chains.This function is also in charge of saving the snapshot root when needed. If the message being added to the tree is the first of the current period this means the last snapshot finished and its root must be saved. The saving happens before adding the new message to the tree. NOTE: okay to leave dispatch operational when paused as pause is designed for crosschain interactions",
        "params": {
          "_destinationDomain": "Domain message is intended for",
          "_messageBody": "Message contents",
          "_recipientAddress": "Address for message recipient"
        }
      },
      "getLastCompletedSnapshotId()": {
        "details": "The value is calculated through an internal function to reuse code and save gas",
        "returns": {
          "_lastCompletedSnapshotId": "The last completed snapshot id"
        }
      },
      "getSnapshotDuration()": {
        "returns": {
          "_snapshotDuration": "The duration of the snapshot"
        }
      },
      "home()": {
        "details": "The local inbox contract is a SpokeConnector with AMBs, and a Home contract with nomad",
        "returns": {
          "_0": "The local inbox contract"
        }
      },
      "isReplica(address)": {
        "returns": {
          "_0": "True if _potentialReplica is an enrolled Replica"
        }
      },
      "paused()": {
        "details": "Returns true if the contract is paused, and false otherwise."
      },
      "processMessage(bytes)": {
        "details": "This is called by AMBs to process messages originating from mirror connector"
      },
      "proveAndProcess((bytes,bytes32[32],uint256)[],bytes32,bytes32[32],uint256)": {
        "details": "Currently, ALL messages in a given batch must path to the same shared inboundRoot, meaning they must all share an origin. See open TODO below for a potential solution to enable multi-origin batches.Intended to be called by the relayer at specific intervals during runtime.Will record a calculated root as having been proven if we've already proven that it was included in the aggregateRoot.",
        "params": {
          "_aggregateIndex": "Index of the inbound root in the aggregator's merkle tree in the hub.",
          "_aggregatePath": "Merkle path of inclusion for the inbound root.",
          "_aggregateRoot": "The target aggregate root we want to prove inclusion for. This root must have already been delivered to this spoke connector contract and surpassed the validation period.",
          "_proofs": "Batch of Proofs containing messages for proving/processing."
        }
      },
      "removePendingAggregateRoot(bytes32)": {
        "details": "This method is required for handling fraud cases in the current construction. Specifically, this will protect against a fraudulent aggregate root getting transported, not fraudulent roots that constitute a given aggregate root (i.e. can protect against fraudulent hub -> spoke transport, not spoke -> hub transport).",
        "params": {
          "_fraudulentRoot": "Target fraudulent root that should be erased from the `pendingAggregateRoots` mapping."
        }
      },
      "removeSender(address)": {
        "details": "Only allowlisted routers (senders) can call `dispatch`.",
        "params": {
          "_sender": "Sender to remove from whitelist"
        }
      },
      "renounceOwnership()": {
        "details": "Renounce ownership should be impossible as long as it is impossible in the WatcherClient, and as long as only the owner can remove pending roots in case of fraud."
      },
      "send(bytes)": {
        "params": {
          "_encodedData": "Data needed to send crosschain message by associated amb"
        }
      },
      "setDelayBlocks(uint256)": {
        "params": {
          "_delayBlocks": "Updated delay block value"
        }
      },
      "setRateLimitBlocks(uint256)": {
        "details": "Rate limit is used to mitigate DoS vectors. (See `RateLimited` for more info.)",
        "params": {
          "_rateLimit": "The number of blocks require between sending messages. If set to 0, rate limiting for this spoke connector will be disabled."
        }
      },
      "withdrawFunds(address)": {
        "details": "Withdraws the entire balance of the contract.",
        "params": {
          "_to": "The recipient of the funds withdrawn"
        }
      }
    },
    "stateVariables": {
      "aliasedSender": {
        "details": "See: https://developer.arbitrum.io/arbos/l1-to-l2-messaging#address-aliasing"
      }
    },
    "version": 1
  },
  "userdoc": {
    "events": {
      "AggregateRootReceived(bytes32)": {
        "notice": "Emitted when a new aggregate root is delivered from the hub"
      },
      "AggregateRootRemoved(bytes32)": {
        "notice": "Emitted when a proposed aggregate root is removed by admin"
      },
      "AggregateRootVerified(bytes32)": {
        "notice": "Emitted when an aggregate root has made it through the fraud period without being disputed"
      },
      "DelayBlocksUpdated(uint256,address)": {
        "notice": "Emitted when the admin updates the delay blocks"
      },
      "Dispatch(bytes32,uint256,bytes32,bytes)": {
        "notice": "Emitted when a message is sent (leaf added to outbound root)"
      },
      "FundsWithdrawn(address,uint256)": {
        "notice": "Emitted when funds are withdrawn by the admin"
      },
      "MessageProcessed(bytes,address)": {
        "notice": "Emitted whenever a message is successfully received over an AMB"
      },
      "MessageProven(bytes32,bytes32,uint256)": {
        "notice": "Emitted when a message (outbound root from different spoke) is proven against the aggregate root"
      },
      "MessageSent(bytes,bytes,address)": {
        "notice": "Emitted whenever a message is successfully sent over an AMB"
      },
      "Process(bytes32,bool,bytes)": {
        "notice": "Emitted when a message is handled (this is the destination domain)"
      },
      "SenderAdded(address)": {
        "notice": "Emitted when a new sender is whitelisted for messaging"
      },
      "SenderRemoved(address)": {
        "notice": "Emitted when a new sender is de-whitelisted for messaging"
      },
      "WatcherManagerChanged(address)": {
        "notice": "Emitted when the manager address changes"
      }
    },
    "kind": "user",
    "methods": {
      "AMB()": {
        "notice": "Address of the AMB on this domain."
      },
      "DOMAIN()": {
        "notice": "The domain of this Messaging (i.e. Connector) contract."
      },
      "MERKLE()": {
        "notice": "MerkleTreeManager contract instance. Will hold the active tree of message hashes, whose root will be sent crosschain to the hub for aggregation and redistribution."
      },
      "MIRROR_DOMAIN()": {
        "notice": "The domain of the corresponding messaging (i.e. Connector) contract."
      },
      "PROCESS_GAS()": {
        "notice": "Minimum gas for processing a received message (reserved for handle)"
      },
      "RESERVE_GAS()": {
        "notice": "Reserved gas (to ensure tx completes in case message processing runs out)"
      },
      "ROOT_MANAGER()": {
        "notice": "RootManager contract address."
      },
      "acceptProposedOwner()": {
        "notice": "Transfers ownership of the contract to a new account (`newOwner`). Can only be called by the current owner."
      },
      "addSender(address)": {
        "notice": "Adds a sender to the allowlist."
      },
      "aliasedSender()": {
        "notice": "Aliased address of mirror connector. This value should be calculated and set when the `_mirrorConnector` address is set."
      },
      "allowlistedSenders(address)": {
        "notice": "Records all whitelisted senders"
      },
      "delay()": {
        "notice": "Returns the delay period before a new owner can be accepted."
      },
      "delayBlocks()": {
        "notice": "Number of blocks to delay the processing of a message to allow for watchers to verify the validity and pause if necessary."
      },
      "dispatch(uint32,bytes32,bytes)": {
        "notice": "This function adds transfers to the outbound transfer merkle tree."
      },
      "getLastCompletedSnapshotId()": {
        "notice": "This function gets the last completed snapshot id"
      },
      "getSnapshotDuration()": {
        "notice": "Get the duration of the snapshot"
      },
      "home()": {
        "notice": "Get the local inbox contract from the xAppConnectionManager"
      },
      "isReplica(address)": {
        "notice": "Determine whether _potentialReplica is an enrolled Replica from the xAppConnectionManager"
      },
      "lastSentBlock()": {
        "notice": "Tracks the last block that we sent a message."
      },
      "localDomain()": {
        "notice": "This provides the implementation for what is defined in the ConnectorManager to avoid storing the domain redundantly"
      },
      "mirrorConnector()": {
        "notice": "Connector on L2 for L1 connectors, and vice versa."
      },
      "outboundRoot()": {
        "notice": "This returns the root of all messages with the origin domain as this domain (i.e. all outbound messages)"
      },
      "owner()": {
        "notice": "Returns the address of the current owner."
      },
      "pause()": {
        "notice": "Watchers can pause contracts if fraud is detected"
      },
      "pendingAggregateRoots(bytes32)": {
        "notice": "This will hold the commit block for incoming aggregateRoots from the hub chain. Once they are verified, (i.e. have surpassed the verification period in `delayBlocks`) they can be used for proving inclusion of crosschain messages."
      },
      "processMessage(bytes)": {
        "notice": "Processes a message received by an AMB"
      },
      "proposeNewOwner(address)": {
        "notice": "Sets the timestamp for an owner to be proposed, and sets the newly proposed owner as step 1 in a 2-step process"
      },
      "proposed()": {
        "notice": "Returns the address of the proposed owner."
      },
      "proposedTimestamp()": {
        "notice": "Returns the address of the proposed owner."
      },
      "proveAndProcess((bytes,bytes32[32],uint256)[],bytes32,bytes32[32],uint256)": {
        "notice": "Must be able to call the `handle` function on the BridgeRouter contract. This is called on the destination domain to handle incoming messages. Proving: Calculates the expected inbound root from an origin chain given a leaf (message hash), the index of the leaf, and the merkle proof of inclusion (path). Next, we check to ensure that this calculated inbound root is included in the current aggregateRoot, given its index in the aggregator tree and the proof of inclusion. Processing: After all messages have been proven, we dispatch each message to Connext (BridgeRouter) for execution."
      },
      "provenAggregateRoots(bytes32)": {
        "notice": "This tracks the roots of the aggregate tree containing outbound roots from all other supported domains. The current version is the one that is known to be past the delayBlocks time period."
      },
      "provenMessageRoots(bytes32)": {
        "notice": "This tracks whether the root has been proven to exist within the given aggregate root."
      },
      "rateLimitBlocks()": {
        "notice": "The number of blocks required between message sending events."
      },
      "removePendingAggregateRoot(bytes32)": {
        "notice": "Manually remove a pending aggregateRoot by owner if the contract is paused."
      },
      "removeSender(address)": {
        "notice": "Removes a sender from the allowlist."
      },
      "renounceOwnership()": {
        "notice": "Remove ability to renounce ownership"
      },
      "renounced()": {
        "notice": "Indicates if the ownership has been renounced() by checking if current owner is address(0)"
      },
      "send(bytes)": {
        "notice": "This dispatches outbound root to hub via AMB"
      },
      "sentMessageRoots(bytes32)": {
        "notice": "This mapping records all message roots that have already been sent in order to prevent redundant message roots from being sent to hub."
      },
      "setDelayBlocks(uint256)": {
        "notice": "Set the `delayBlocks`, the period in blocks over which an incoming message is verified."
      },
      "setMirrorConnector(address)": {
        "notice": "Sets the address of the l2Connector for this domain"
      },
      "setRateLimitBlocks(uint256)": {
        "notice": "Set the rate limit (number of blocks) at which we can send messages from this contract to the hub chain using the `send` method."
      },
      "setWatcherManager(address)": {
        "notice": "Owner can enroll a watcher (abilities are defined by inheriting contracts)"
      },
      "snapshotRoots(uint256)": {
        "notice": "Mapping of the snapshot roots for a specific index. Used for data availability for off-chain scripts"
      },
      "unpause()": {
        "notice": "Owner can unpause contracts if fraud is detected by watchers"
      },
      "verifySender(address)": {
        "notice": "Checks the cross domain sender for a given address"
      },
      "watcherManager()": {
        "notice": "The `WatcherManager` contract governs the watcher allowlist."
      },
      "withdrawFunds(address)": {
        "notice": "This function should be callable by owner, and send funds trapped on a connector to the provided recipient."
      }
    },
    "version": 1
  },
  "storageLayout": {
    "storage": [
      {
        "astId": 45351,
        "contract": "contracts/messaging/connectors/arbitrum/ArbitrumSpokeConnector.sol:ArbitrumSpokeConnector",
        "label": "_owner",
        "offset": 0,
        "slot": "0",
        "type": "t_address"
      },
      {
        "astId": 45353,
        "contract": "contracts/messaging/connectors/arbitrum/ArbitrumSpokeConnector.sol:ArbitrumSpokeConnector",
        "label": "_proposed",
        "offset": 0,
        "slot": "1",
        "type": "t_address"
      },
      {
        "astId": 45355,
        "contract": "contracts/messaging/connectors/arbitrum/ArbitrumSpokeConnector.sol:ArbitrumSpokeConnector",
        "label": "_proposedOwnershipTimestamp",
        "offset": 0,
        "slot": "2",
        "type": "t_uint256"
      },
      {
        "astId": 34105,
        "contract": "contracts/messaging/connectors/arbitrum/ArbitrumSpokeConnector.sol:ArbitrumSpokeConnector",
        "label": "mirrorConnector",
        "offset": 0,
        "slot": "3",
        "type": "t_address"
      },
      {
        "astId": 2738,
        "contract": "contracts/messaging/connectors/arbitrum/ArbitrumSpokeConnector.sol:ArbitrumSpokeConnector",
        "label": "_paused",
        "offset": 20,
        "slot": "3",
        "type": "t_bool"
      },
      {
        "astId": 33859,
        "contract": "contracts/messaging/connectors/arbitrum/ArbitrumSpokeConnector.sol:ArbitrumSpokeConnector",
        "label": "watcherManager",
        "offset": 0,
        "slot": "4",
        "type": "t_contract(WatcherManager)34050"
      },
      {
        "astId": 45256,
        "contract": "contracts/messaging/connectors/arbitrum/ArbitrumSpokeConnector.sol:ArbitrumSpokeConnector",
        "label": "rateLimitBlocks",
        "offset": 0,
        "slot": "5",
        "type": "t_uint256"
      },
      {
        "astId": 45259,
        "contract": "contracts/messaging/connectors/arbitrum/ArbitrumSpokeConnector.sol:ArbitrumSpokeConnector",
        "label": "lastSentBlock",
        "offset": 0,
        "slot": "6",
        "type": "t_uint256"
      },
      {
        "astId": 2839,
        "contract": "contracts/messaging/connectors/arbitrum/ArbitrumSpokeConnector.sol:ArbitrumSpokeConnector",
        "label": "_status",
        "offset": 0,
        "slot": "7",
        "type": "t_uint256"
      },
      {
        "astId": 34641,
        "contract": "contracts/messaging/connectors/arbitrum/ArbitrumSpokeConnector.sol:ArbitrumSpokeConnector",
        "label": "delayBlocks",
        "offset": 0,
        "slot": "8",
        "type": "t_uint256"
      },
      {
        "astId": 34656,
        "contract": "contracts/messaging/connectors/arbitrum/ArbitrumSpokeConnector.sol:ArbitrumSpokeConnector",
        "label": "pendingAggregateRoots",
        "offset": 0,
        "slot": "9",
        "type": "t_mapping(t_bytes32,t_uint256)"
      },
      {
        "astId": 34661,
        "contract": "contracts/messaging/connectors/arbitrum/ArbitrumSpokeConnector.sol:ArbitrumSpokeConnector",
        "label": "provenAggregateRoots",
        "offset": 0,
        "slot": "10",
        "type": "t_mapping(t_bytes32,t_bool)"
      },
      {
        "astId": 34666,
        "contract": "contracts/messaging/connectors/arbitrum/ArbitrumSpokeConnector.sol:ArbitrumSpokeConnector",
        "label": "provenMessageRoots",
        "offset": 0,
        "slot": "11",
        "type": "t_mapping(t_bytes32,t_bool)"
      },
      {
        "astId": 34671,
        "contract": "contracts/messaging/connectors/arbitrum/ArbitrumSpokeConnector.sol:ArbitrumSpokeConnector",
        "label": "sentMessageRoots",
        "offset": 0,
        "slot": "12",
        "type": "t_mapping(t_bytes32,t_bool)"
      },
      {
        "astId": 34676,
        "contract": "contracts/messaging/connectors/arbitrum/ArbitrumSpokeConnector.sol:ArbitrumSpokeConnector",
        "label": "allowlistedSenders",
        "offset": 0,
        "slot": "13",
        "type": "t_mapping(t_address,t_bool)"
      },
      {
        "astId": 34681,
        "contract": "contracts/messaging/connectors/arbitrum/ArbitrumSpokeConnector.sol:ArbitrumSpokeConnector",
        "label": "snapshotRoots",
        "offset": 0,
        "slot": "14",
        "type": "t_mapping(t_uint256,t_bytes32)"
      },
      {
        "astId": 36244,
        "contract": "contracts/messaging/connectors/arbitrum/ArbitrumSpokeConnector.sol:ArbitrumSpokeConnector",
        "label": "aliasedSender",
        "offset": 0,
        "slot": "15",
        "type": "t_address"
      }
    ],
    "types": {
      "t_address": {
        "encoding": "inplace",
        "label": "address",
        "numberOfBytes": "20"
      },
      "t_bool": {
        "encoding": "inplace",
        "label": "bool",
        "numberOfBytes": "1"
      },
      "t_bytes32": {
        "encoding": "inplace",
        "label": "bytes32",
        "numberOfBytes": "32"
      },
      "t_contract(WatcherManager)34050": {
        "encoding": "inplace",
        "label": "contract WatcherManager",
        "numberOfBytes": "20"
      },
      "t_mapping(t_address,t_bool)": {
        "encoding": "mapping",
        "key": "t_address",
        "label": "mapping(address => bool)",
        "numberOfBytes": "32",
        "value": "t_bool"
      },
      "t_mapping(t_bytes32,t_bool)": {
        "encoding": "mapping",
        "key": "t_bytes32",
        "label": "mapping(bytes32 => bool)",
        "numberOfBytes": "32",
        "value": "t_bool"
      },
      "t_mapping(t_bytes32,t_uint256)": {
        "encoding": "mapping",
        "key": "t_bytes32",
        "label": "mapping(bytes32 => uint256)",
        "numberOfBytes": "32",
        "value": "t_uint256"
      },
      "t_mapping(t_uint256,t_bytes32)": {
        "encoding": "mapping",
        "key": "t_uint256",
        "label": "mapping(uint256 => bytes32)",
        "numberOfBytes": "32",
        "value": "t_bytes32"
      },
      "t_uint256": {
        "encoding": "inplace",
        "label": "uint256",
        "numberOfBytes": "32"
      }
    }
  }
}