{
  "contracts/TransactionManager.sol": {
    "TransactionManager": {
      "abi": [
        {
          "inputs": [
            {
              "internalType": "uint24",
              "name": "_chainId",
              "type": "uint24"
            }
          ],
          "stateMutability": "nonpayable",
          "type": "constructor"
        },
        {
          "anonymous": false,
          "inputs": [
            {
              "indexed": false,
              "internalType": "address",
              "name": "router",
              "type": "address"
            },
            {
              "indexed": false,
              "internalType": "address",
              "name": "assetId",
              "type": "address"
            },
            {
              "indexed": false,
              "internalType": "uint256",
              "name": "amount",
              "type": "uint256"
            }
          ],
          "name": "LiquidityAdded",
          "type": "event"
        },
        {
          "anonymous": false,
          "inputs": [
            {
              "indexed": false,
              "internalType": "address",
              "name": "router",
              "type": "address"
            },
            {
              "indexed": false,
              "internalType": "address",
              "name": "assetId",
              "type": "address"
            },
            {
              "indexed": false,
              "internalType": "uint256",
              "name": "amount",
              "type": "uint256"
            },
            {
              "indexed": false,
              "internalType": "address",
              "name": "recipient",
              "type": "address"
            }
          ],
          "name": "LiquidityRemoved",
          "type": "event"
        },
        {
          "anonymous": false,
          "inputs": [
            {
              "components": [
                {
                  "internalType": "address",
                  "name": "user",
                  "type": "address"
                },
                {
                  "internalType": "address",
                  "name": "router",
                  "type": "address"
                },
                {
                  "internalType": "uint256",
                  "name": "amount",
                  "type": "uint256"
                },
                {
                  "internalType": "address",
                  "name": "sendingAssetId",
                  "type": "address"
                },
                {
                  "internalType": "address",
                  "name": "receivingAssetId",
                  "type": "address"
                },
                {
                  "internalType": "uint24",
                  "name": "sendingChainId",
                  "type": "uint24"
                },
                {
                  "internalType": "uint24",
                  "name": "receivingChainId",
                  "type": "uint24"
                },
                {
                  "internalType": "address",
                  "name": "callTo",
                  "type": "address"
                },
                {
                  "internalType": "bytes",
                  "name": "callData",
                  "type": "bytes"
                },
                {
                  "internalType": "bytes32",
                  "name": "transactionId",
                  "type": "bytes32"
                },
                {
                  "internalType": "uint256",
                  "name": "expiry",
                  "type": "uint256"
                }
              ],
              "indexed": false,
              "internalType": "struct ITransactionManager.TransactionData",
              "name": "txData",
              "type": "tuple"
            },
            {
              "indexed": false,
              "internalType": "address",
              "name": "caller",
              "type": "address"
            }
          ],
          "name": "TransactionCancelled",
          "type": "event"
        },
        {
          "anonymous": false,
          "inputs": [
            {
              "components": [
                {
                  "internalType": "address",
                  "name": "user",
                  "type": "address"
                },
                {
                  "internalType": "address",
                  "name": "router",
                  "type": "address"
                },
                {
                  "internalType": "uint256",
                  "name": "amount",
                  "type": "uint256"
                },
                {
                  "internalType": "address",
                  "name": "sendingAssetId",
                  "type": "address"
                },
                {
                  "internalType": "address",
                  "name": "receivingAssetId",
                  "type": "address"
                },
                {
                  "internalType": "uint24",
                  "name": "sendingChainId",
                  "type": "uint24"
                },
                {
                  "internalType": "uint24",
                  "name": "receivingChainId",
                  "type": "uint24"
                },
                {
                  "internalType": "address",
                  "name": "callTo",
                  "type": "address"
                },
                {
                  "internalType": "bytes",
                  "name": "callData",
                  "type": "bytes"
                },
                {
                  "internalType": "bytes32",
                  "name": "transactionId",
                  "type": "bytes32"
                },
                {
                  "internalType": "uint256",
                  "name": "expiry",
                  "type": "uint256"
                }
              ],
              "indexed": false,
              "internalType": "struct ITransactionManager.TransactionData",
              "name": "txData",
              "type": "tuple"
            },
            {
              "indexed": false,
              "internalType": "bytes",
              "name": "signature",
              "type": "bytes"
            },
            {
              "indexed": false,
              "internalType": "address",
              "name": "caller",
              "type": "address"
            }
          ],
          "name": "TransactionFulfilled",
          "type": "event"
        },
        {
          "anonymous": false,
          "inputs": [
            {
              "components": [
                {
                  "internalType": "address",
                  "name": "user",
                  "type": "address"
                },
                {
                  "internalType": "address",
                  "name": "router",
                  "type": "address"
                },
                {
                  "internalType": "uint256",
                  "name": "amount",
                  "type": "uint256"
                },
                {
                  "internalType": "address",
                  "name": "sendingAssetId",
                  "type": "address"
                },
                {
                  "internalType": "address",
                  "name": "receivingAssetId",
                  "type": "address"
                },
                {
                  "internalType": "uint24",
                  "name": "sendingChainId",
                  "type": "uint24"
                },
                {
                  "internalType": "uint24",
                  "name": "receivingChainId",
                  "type": "uint24"
                },
                {
                  "internalType": "address",
                  "name": "callTo",
                  "type": "address"
                },
                {
                  "internalType": "bytes",
                  "name": "callData",
                  "type": "bytes"
                },
                {
                  "internalType": "bytes32",
                  "name": "transactionId",
                  "type": "bytes32"
                },
                {
                  "internalType": "uint256",
                  "name": "expiry",
                  "type": "uint256"
                }
              ],
              "indexed": false,
              "internalType": "struct ITransactionManager.TransactionData",
              "name": "txData",
              "type": "tuple"
            },
            {
              "indexed": false,
              "internalType": "address",
              "name": "caller",
              "type": "address"
            }
          ],
          "name": "TransactionPrepared",
          "type": "event"
        },
        {
          "inputs": [],
          "name": "MIN_TIMEOUT",
          "outputs": [
            {
              "internalType": "uint256",
              "name": "",
              "type": "uint256"
            }
          ],
          "stateMutability": "view",
          "type": "function"
        },
        {
          "inputs": [
            {
              "internalType": "bytes32",
              "name": "",
              "type": "bytes32"
            }
          ],
          "name": "activeTransactions",
          "outputs": [
            {
              "internalType": "bool",
              "name": "",
              "type": "bool"
            }
          ],
          "stateMutability": "view",
          "type": "function"
        },
        {
          "inputs": [
            {
              "internalType": "uint256",
              "name": "amount",
              "type": "uint256"
            },
            {
              "internalType": "address",
              "name": "assetId",
              "type": "address"
            }
          ],
          "name": "addLiquidity",
          "outputs": [],
          "stateMutability": "payable",
          "type": "function"
        },
        {
          "inputs": [
            {
              "components": [
                {
                  "internalType": "address",
                  "name": "user",
                  "type": "address"
                },
                {
                  "internalType": "address",
                  "name": "router",
                  "type": "address"
                },
                {
                  "internalType": "uint256",
                  "name": "amount",
                  "type": "uint256"
                },
                {
                  "internalType": "address",
                  "name": "sendingAssetId",
                  "type": "address"
                },
                {
                  "internalType": "address",
                  "name": "receivingAssetId",
                  "type": "address"
                },
                {
                  "internalType": "uint24",
                  "name": "sendingChainId",
                  "type": "uint24"
                },
                {
                  "internalType": "uint24",
                  "name": "receivingChainId",
                  "type": "uint24"
                },
                {
                  "internalType": "address",
                  "name": "callTo",
                  "type": "address"
                },
                {
                  "internalType": "bytes",
                  "name": "callData",
                  "type": "bytes"
                },
                {
                  "internalType": "bytes32",
                  "name": "transactionId",
                  "type": "bytes32"
                },
                {
                  "internalType": "uint256",
                  "name": "expiry",
                  "type": "uint256"
                }
              ],
              "internalType": "struct ITransactionManager.TransactionData",
              "name": "txData",
              "type": "tuple"
            }
          ],
          "name": "cancel",
          "outputs": [],
          "stateMutability": "nonpayable",
          "type": "function"
        },
        {
          "inputs": [],
          "name": "chainId",
          "outputs": [
            {
              "internalType": "uint24",
              "name": "",
              "type": "uint24"
            }
          ],
          "stateMutability": "view",
          "type": "function"
        },
        {
          "inputs": [
            {
              "components": [
                {
                  "internalType": "address",
                  "name": "user",
                  "type": "address"
                },
                {
                  "internalType": "address",
                  "name": "router",
                  "type": "address"
                },
                {
                  "internalType": "uint256",
                  "name": "amount",
                  "type": "uint256"
                },
                {
                  "internalType": "address",
                  "name": "sendingAssetId",
                  "type": "address"
                },
                {
                  "internalType": "address",
                  "name": "receivingAssetId",
                  "type": "address"
                },
                {
                  "internalType": "uint24",
                  "name": "sendingChainId",
                  "type": "uint24"
                },
                {
                  "internalType": "uint24",
                  "name": "receivingChainId",
                  "type": "uint24"
                },
                {
                  "internalType": "address",
                  "name": "callTo",
                  "type": "address"
                },
                {
                  "internalType": "bytes",
                  "name": "callData",
                  "type": "bytes"
                },
                {
                  "internalType": "bytes32",
                  "name": "transactionId",
                  "type": "bytes32"
                },
                {
                  "internalType": "uint256",
                  "name": "expiry",
                  "type": "uint256"
                }
              ],
              "internalType": "struct ITransactionManager.TransactionData",
              "name": "txData",
              "type": "tuple"
            },
            {
              "internalType": "bytes",
              "name": "signature",
              "type": "bytes"
            }
          ],
          "name": "fulfill",
          "outputs": [],
          "stateMutability": "nonpayable",
          "type": "function"
        },
        {
          "inputs": [
            {
              "components": [
                {
                  "internalType": "address",
                  "name": "user",
                  "type": "address"
                },
                {
                  "internalType": "address",
                  "name": "router",
                  "type": "address"
                },
                {
                  "internalType": "uint256",
                  "name": "amount",
                  "type": "uint256"
                },
                {
                  "internalType": "address",
                  "name": "sendingAssetId",
                  "type": "address"
                },
                {
                  "internalType": "address",
                  "name": "receivingAssetId",
                  "type": "address"
                },
                {
                  "internalType": "uint24",
                  "name": "sendingChainId",
                  "type": "uint24"
                },
                {
                  "internalType": "uint24",
                  "name": "receivingChainId",
                  "type": "uint24"
                },
                {
                  "internalType": "address",
                  "name": "callTo",
                  "type": "address"
                },
                {
                  "internalType": "bytes",
                  "name": "callData",
                  "type": "bytes"
                },
                {
                  "internalType": "bytes32",
                  "name": "transactionId",
                  "type": "bytes32"
                },
                {
                  "internalType": "uint256",
                  "name": "expiry",
                  "type": "uint256"
                }
              ],
              "internalType": "struct ITransactionManager.TransactionData",
              "name": "txData",
              "type": "tuple"
            }
          ],
          "name": "prepare",
          "outputs": [
            {
              "internalType": "bytes32",
              "name": "",
              "type": "bytes32"
            }
          ],
          "stateMutability": "payable",
          "type": "function"
        },
        {
          "inputs": [
            {
              "internalType": "uint256",
              "name": "amount",
              "type": "uint256"
            },
            {
              "internalType": "address",
              "name": "assetId",
              "type": "address"
            },
            {
              "internalType": "address payable",
              "name": "recipient",
              "type": "address"
            }
          ],
          "name": "removeLiquidity",
          "outputs": [],
          "stateMutability": "nonpayable",
          "type": "function"
        },
        {
          "inputs": [
            {
              "internalType": "address",
              "name": "",
              "type": "address"
            },
            {
              "internalType": "address",
              "name": "",
              "type": "address"
            }
          ],
          "name": "routerBalances",
          "outputs": [
            {
              "internalType": "uint256",
              "name": "",
              "type": "uint256"
            }
          ],
          "stateMutability": "view",
          "type": "function"
        }
      ],
      "evm": {
        "bytecode": {
          "linkReferences": {},
          "object": "60a06040523480156200001157600080fd5b50604051620035c0380380620035c0833981810160405281019062000037919062000072565b60016000819055508062ffffff1660808162ffffff1660e81b8152505050620000c7565b6000815190506200006c81620000ad565b92915050565b6000602082840312156200008557600080fd5b600062000095848285016200005b565b91505092915050565b600062ffffff82169050919050565b620000b8816200009e565b8114620000c457600080fd5b50565b60805160e81c6134b0620001106000396000818161033f015281816105df015281816106a7015281816106ec0152818161076b015281816108dc0152610fd201526134b06000f3fe6080604052600436106100865760003560e01c8063c06adaee11610059578063c06adaee14610147578063c95f9d0e14610177578063d448bd2514610193578063e9088189146101d0578063f31abcc4146101f957610086565b806341258b5c1461008b578063543ad1df146100c85780637c32fba9146100f35780639a8a05921461011c575b600080fd5b34801561009757600080fd5b506100b260048036038101906100ad9190611d3c565b610222565b6040516100bf9190612bd5565b60405180910390f35b3480156100d457600080fd5b506100dd610247565b6040516100ea9190612bd5565b60405180910390f35b3480156100ff57600080fd5b5061011a60048036038101906101159190611dca565b61024c565b005b34801561012857600080fd5b506101316105dd565b60405161013e9190612bba565b60405180910390f35b610161600480360381019061015c9190611dca565b610601565b60405161016e9190612781565b60405180910390f35b610191600480360381019061018c9190611ea4565b610be6565b005b34801561019f57600080fd5b506101ba60048036038101906101b59190611da1565b610df2565b6040516101c79190612766565b60405180910390f35b3480156101dc57600080fd5b506101f760048036038101906101f29190611e0b565b610e12565b005b34801561020557600080fd5b50610220600480360381019061021b9190611ee0565b611281565b005b6001602052816000526040600020602052806000526040600020600091509150505481565b600081565b60026000541415610292576040517f08c379a000000000000000000000000000000000000000000000000000000000815260040161028990612ae1565b60405180910390fd5b600260008190555060006102a5826114b5565b905060016002600083815260200190815260200160002060006101000a81548160ff0219169083151502179055610311576040517f08c379a0000000000000000000000000000000000000000000000000000000008152600401610308906129a1565b60405180910390fd5b60006002600083815260200190815260200160002060006101000a81548160ff0219169083151502179055507f000000000000000000000000000000000000000000000000000000000000000062ffffff168260a00160208101906103769190611e7b565b62ffffff16141561044f5742826101400135106103d8578160200160208101906103a09190611d13565b73ffffffffffffffffffffffffffffffffffffffff163373ffffffffffffffffffffffffffffffffffffffff16146103d757600080fd5b5b61040b8260600160208101906103ee9190611d13565b8360000160208101906104019190611d13565b8460400135611677565b61044a576040517f08c379a0000000000000000000000000000000000000000000000000000000008152600401610441906128c1565b60405180910390fd5b610598565b42826101400135106104dc5781600001602081019061046e9190611d13565b73ffffffffffffffffffffffffffffffffffffffff163373ffffffffffffffffffffffffffffffffffffffff16146104db576040517f08c379a00000000000000000000000000000000000000000000000000000000081526004016104d2906129e1565b60405180910390fd5b5b8160400135600160008460200160208101906104f89190611d13565b73ffffffffffffffffffffffffffffffffffffffff1673ffffffffffffffffffffffffffffffffffffffff16815260200190815260200160002060008460800160208101906105479190611d13565b73ffffffffffffffffffffffffffffffffffffffff1673ffffffffffffffffffffffffffffffffffffffff16815260200190815260200160002060008282546105909190612d43565b925050819055505b7f199deba8a6a6013af443143040bbb1ec3f4313f2db743530e1dc4b0cd40f1b5182336040516105c9929190612b43565b60405180910390a150600160008190555050565b7f000000000000000000000000000000000000000000000000000000000000000081565b600060026000541415610649576040517f08c379a000000000000000000000000000000000000000000000000000000000815260040161064090612ae1565b60405180910390fd5b60026000819055506000428361014001356106649190612d99565b10156106a5576040517f08c379a000000000000000000000000000000000000000000000000000000000815260040161069c90612841565b60405180910390fd5b7f000000000000000000000000000000000000000000000000000000000000000062ffffff168260a00160208101906106de9190611e7b565b62ffffff16148061072a57507f000000000000000000000000000000000000000000000000000000000000000062ffffff168260c00160208101906107239190611e7b565b62ffffff16145b610769576040517f08c379a0000000000000000000000000000000000000000000000000000000008152600401610760906128a1565b60405180910390fd5b7f000000000000000000000000000000000000000000000000000000000000000062ffffff168260a00160208101906107a29190611e7b565b62ffffff1614156108c2576107c88260600160208101906107c39190611d13565b6116aa565b156108185781604001353414610813576040517f08c379a000000000000000000000000000000000000000000000000000000000815260040161080a90612941565b60405180910390fd5b6108bd565b6000341461085b576040517f08c379a000000000000000000000000000000000000000000000000000000000815260040161085290612a01565b60405180910390fd5b61087d8260600160208101906108719190611d13565b333085604001356116e2565b6108bc576040517f08c379a00000000000000000000000000000000000000000000000000000000081526004016108b390612801565b60405180910390fd5b5b610b63565b8160c00160208101906108d59190611e7b565b62ffffff167f000000000000000000000000000000000000000000000000000000000000000062ffffff1614610940576040517f08c379a000000000000000000000000000000000000000000000000000000000815260040161093790612921565b60405180910390fd5b8160200160208101906109539190611d13565b73ffffffffffffffffffffffffffffffffffffffff163373ffffffffffffffffffffffffffffffffffffffff16146109c0576040517f08c379a00000000000000000000000000000000000000000000000000000000081526004016109b790612821565b60405180910390fd5b8160400135600160008460200160208101906109dc9190611d13565b73ffffffffffffffffffffffffffffffffffffffff1673ffffffffffffffffffffffffffffffffffffffff1681526020019081526020016000206000846080016020810190610a2b9190611d13565b73ffffffffffffffffffffffffffffffffffffffff1673ffffffffffffffffffffffffffffffffffffffff168152602001908152602001600020541015610aa7576040517f08c379a0000000000000000000000000000000000000000000000000000000008152600401610a9e90612a81565b60405180910390fd5b816040013560016000846020016020810190610ac39190611d13565b73ffffffffffffffffffffffffffffffffffffffff1673ffffffffffffffffffffffffffffffffffffffff1681526020019081526020016000206000846080016020810190610b129190611d13565b73ffffffffffffffffffffffffffffffffffffffff1673ffffffffffffffffffffffffffffffffffffffff1681526020019081526020016000206000828254610b5b9190612d99565b925050819055505b6000610b6e836114b5565b905060016002600083815260200190815260200160002060006101000a81548160ff0219169083151502179055507f6b8d6a2cec3e696832b71a0098f172d93c793ef03c1e1b93689a626b941d13fc8333604051610bcd929190612b43565b60405180910390a1809150506001600081905550919050565b60026000541415610c2c576040517f08c379a0000000000000000000000000000000000000000000000000000000008152600401610c2390612ae1565b60405180910390fd5b6002600081905550610c3d816116aa565b15610c8957813414610c84576040517f08c379a0000000000000000000000000000000000000000000000000000000008152600401610c7b90612ac1565b60405180910390fd5b610d18565b60003414610ccc576040517f08c379a0000000000000000000000000000000000000000000000000000000008152600401610cc390612a41565b60405180910390fd5b610cd8813330856116e2565b610d17576040517f08c379a0000000000000000000000000000000000000000000000000000000008152600401610d0e90612881565b60405180910390fd5b5b81600160003373ffffffffffffffffffffffffffffffffffffffff1673ffffffffffffffffffffffffffffffffffffffff16815260200190815260200160002060008373ffffffffffffffffffffffffffffffffffffffff1673ffffffffffffffffffffffffffffffffffffffff1681526020019081526020016000206000828254610da49190612d43565b925050819055507f9d278c56ba6dc86a12eefe6b43112bd6e06648eb4ec0b950ee2d783d40e2acb4338284604051610dde939291906126c1565b60405180910390a160016000819055505050565b60026020528060005260406000206000915054906101000a900460ff1681565b60026000541415610e58576040517f08c379a0000000000000000000000000000000000000000000000000000000008152600401610e4f90612ae1565b60405180910390fd5b60026000819055506000610e6b846114b5565b905060016002600083815260200190815260200160002060006101000a81548160ff0219169083151502179055610ed7576040517f08c379a0000000000000000000000000000000000000000000000000000000008152600401610ece906128e1565b60405180910390fd5b60006002600083815260200190815260200160002060006101000a81548160ff021916908315150217905550836000016020810190610f169190611d13565b73ffffffffffffffffffffffffffffffffffffffff16610f7a8285858080601f016020809104026020016040519081016040528093929190818152602001838380828437600081840152601f19601f82011690508083019250505050505050611789565b73ffffffffffffffffffffffffffffffffffffffff1614610fd0576040517f08c379a0000000000000000000000000000000000000000000000000000000008152600401610fc790612aa1565b60405180910390fd5b7f000000000000000000000000000000000000000000000000000000000000000062ffffff168460a00160208101906110099190611e7b565b62ffffff1614156110d4578360400135600160008660200160208101906110309190611d13565b73ffffffffffffffffffffffffffffffffffffffff1673ffffffffffffffffffffffffffffffffffffffff168152602001908152602001600020600086606001602081019061107f9190611d13565b73ffffffffffffffffffffffffffffffffffffffff1673ffffffffffffffffffffffffffffffffffffffff16815260200190815260200160002060008282546110c89190612d43565b92505081905550611236565b600067ffffffffffffffff811115611115577f4e487b7100000000000000000000000000000000000000000000000000000000600052604160045260246000fd5b6040519080825280601f01601f1916602001820160405280156111475781602001600182028036833780820191505090505b5080519060200120848061010001906111609190612bf0565b60405161116e92919061267c565b604051809103902014156111f3576111af8460600160208101906111929190611d13565b8560e00160208101906111a59190611d13565b8660400135611677565b6111ee576040517f08c379a00000000000000000000000000000000000000000000000000000000081526004016111e590612b01565b60405180910390fd5b611235565b6000611234576040517f08c379a000000000000000000000000000000000000000000000000000000000815260040161122b90612a61565b60405180910390fd5b5b5b7f280df9efeebc705987d91447e4d3d8129dc6df8ff02e029459f598e7217981e98484843360405161126b9493929190612b73565b60405180910390a1506001600081905550505050565b600260005414156112c7576040517f08c379a00000000000000000000000000000000000000000000000000000000081526004016112be90612ae1565b60405180910390fd5b600260008190555082600160003373ffffffffffffffffffffffffffffffffffffffff1673ffffffffffffffffffffffffffffffffffffffff16815260200190815260200160002060008473ffffffffffffffffffffffffffffffffffffffff1673ffffffffffffffffffffffffffffffffffffffff16815260200190815260200160002054101561138e576040517f08c379a000000000000000000000000000000000000000000000000000000000815260040161138590612a21565b60405180910390fd5b82600160003373ffffffffffffffffffffffffffffffffffffffff1673ffffffffffffffffffffffffffffffffffffffff16815260200190815260200160002060008473ffffffffffffffffffffffffffffffffffffffff1673ffffffffffffffffffffffffffffffffffffffff168152602001908152602001600020600082825461141a9190612d99565b9250508190555061142c828285611677565b61146b576040517f08c379a000000000000000000000000000000000000000000000000000000000815260040161146290612961565b60405180910390fd5b7f7da12116be8cb7af4b2d9e9b4a2ca2c3a3243ddd6fd3a94411902367b8eed568338385846040516114a094939291906126f8565b60405180910390a16001600081905550505050565b6000806040518061012001604052808460000160208101906114d79190611d13565b73ffffffffffffffffffffffffffffffffffffffff1681526020018460200160208101906115059190611d13565b73ffffffffffffffffffffffffffffffffffffffff1681526020018460600160208101906115339190611d13565b73ffffffffffffffffffffffffffffffffffffffff1681526020018460800160208101906115619190611d13565b73ffffffffffffffffffffffffffffffffffffffff1681526020018460a001602081019061158f9190611e7b565b62ffffff1681526020018460c00160208101906115ac9190611e7b565b62ffffff1681526020018460e00160208101906115c99190611d13565b73ffffffffffffffffffffffffffffffffffffffff168152602001848061010001906115f59190612bf0565b8080601f016020809104026020016040519081016040528093929190818152602001838380828437600081840152601f19601f8201169050808301925050505050505081526020018461012001358152509050806040516020016116599190612b21565b60405160208183030381529060405280519060200120915050919050565b6000611682846116aa565b61169657611691848484611853565b6116a1565b6116a08383611869565b5b90509392505050565b60008073ffffffffffffffffffffffffffffffffffffffff168273ffffffffffffffffffffffffffffffffffffffff16149050919050565b600061177f858585856040516024016116fd939291906126c1565b6040516020818303038152906040527f23b872dd000000000000000000000000000000000000000000000000000000007bffffffffffffffffffffffffffffffffffffffffffffffffffffffff19166020820180517bffffffffffffffffffffffffffffffffffffffffffffffffffffffff83818316178352505050506118ef565b9050949350505050565b6000806000806041855114156117b6576020850151925060408501519150606085015160001a905061183c565b604085511415611800576040850151602086015193507f7fffffffffffffffffffffffffffffffffffffffffffffffffffffffffffffff81169250601b8160ff1c0191505061183b565b6040517f08c379a000000000000000000000000000000000000000000000000000000000815260040161183290612861565b60405180910390fd5b5b611848868285856119dc565b935050505092915050565b6000611860848484611b67565b90509392505050565b60008060008473ffffffffffffffffffffffffffffffffffffffff1684604051611892906126ac565b60006040518083038185875af1925050503d80600081146118cf576040519150601f19603f3d011682016040523d82523d6000602084013e6118d4565b606091505b50915091506118e38282611c0b565b60019250505092915050565b60006118fa83611c1c565b611939576040517f08c379a0000000000000000000000000000000000000000000000000000000008152600401611930906129c1565b60405180910390fd5b6000808473ffffffffffffffffffffffffffffffffffffffff16846040516119619190612695565b6000604051808303816000865af19150503d806000811461199e576040519150601f19603f3d011682016040523d82523d6000602084013e6119a3565b606091505b50915091506119b28282611c0b565b6000815114806119d25750808060200190518101906119d19190611d78565b5b9250505092915050565b60007f7fffffffffffffffffffffffffffffff5d576e7357a4501ddfe92f46681b20a08260001c1115611a44576040517f08c379a0000000000000000000000000000000000000000000000000000000008152600401611a3b90612901565b60405180910390fd5b601b8460ff161480611a595750601c8460ff16145b611a98576040517f08c379a0000000000000000000000000000000000000000000000000000000008152600401611a8f90612981565b60405180910390fd5b600060018686868660405160008152602001604052604051611abd949392919061279c565b6020604051602081039080840390855afa158015611adf573d6000803e3d6000fd5b505050602060405103519050600073ffffffffffffffffffffffffffffffffffffffff168173ffffffffffffffffffffffffffffffffffffffff161415611b5b576040517f08c379a0000000000000000000000000000000000000000000000000000000008152600401611b52906127e1565b60405180910390fd5b80915050949350505050565b6000611c02848484604051602401611b8092919061273d565b6040516020818303038152906040527fa9059cbb000000000000000000000000000000000000000000000000000000007bffffffffffffffffffffffffffffffffffffffffffffffffffffffff19166020820180517bffffffffffffffffffffffffffffffffffffffffffffffffffffffff83818316178352505050506118ef565b90509392505050565b81611c1857805160208201fd5b5050565b600080823b905060008111915050919050565b600081359050611c3e816133f0565b92915050565b600081359050611c5381613407565b92915050565b600081519050611c688161341e565b92915050565b600081359050611c7d81613435565b92915050565b60008083601f840112611c9557600080fd5b8235905067ffffffffffffffff811115611cae57600080fd5b602083019150836001820283011115611cc657600080fd5b9250929050565b60006101608284031215611ce057600080fd5b81905092915050565b600081359050611cf88161344c565b92915050565b600081359050611d0d81613463565b92915050565b600060208284031215611d2557600080fd5b6000611d3384828501611c2f565b91505092915050565b60008060408385031215611d4f57600080fd5b6000611d5d85828601611c2f565b9250506020611d6e85828601611c2f565b9150509250929050565b600060208284031215611d8a57600080fd5b6000611d9884828501611c59565b91505092915050565b600060208284031215611db357600080fd5b6000611dc184828501611c6e565b91505092915050565b600060208284031215611ddc57600080fd5b600082013567ffffffffffffffff811115611df657600080fd5b611e0284828501611ccd565b91505092915050565b600080600060408486031215611e2057600080fd5b600084013567ffffffffffffffff811115611e3a57600080fd5b611e4686828701611ccd565b935050602084013567ffffffffffffffff811115611e6357600080fd5b611e6f86828701611c83565b92509250509250925092565b600060208284031215611e8d57600080fd5b6000611e9b84828501611ce9565b91505092915050565b60008060408385031215611eb757600080fd5b6000611ec585828601611cfe565b9250506020611ed685828601611c2f565b9150509250929050565b600080600060608486031215611ef557600080fd5b6000611f0386828701611cfe565b9350506020611f1486828701611c2f565b9250506040611f2586828701611c44565b9150509250925092565b611f3881612e4d565b82525050565b611f4781612dcd565b82525050565b611f5681612dcd565b82525050565b611f6581612df1565b82525050565b611f7481612dfd565b82525050565b611f8381612dfd565b82525050565b6000611f958385612c52565b9350611fa2838584612e83565b611fab83612ef4565b840190509392505050565b6000611fc28385612c63565b9350611fcf838584612e83565b611fd883612ef4565b840190509392505050565b6000611fef8385612c74565b9350611ffc838584612e83565b82840190509392505050565b600061201382612c47565b61201d8185612c52565b935061202d818560208601612e92565b61203681612ef4565b840191505092915050565b600061204c82612c47565b6120568185612c74565b9350612066818560208601612e92565b80840191505092915050565b600061207f601883612c7f565b915061208a82612f05565b602082019050919050565b60006120a2601e83612c7f565b91506120ad82612f2e565b602082019050919050565b60006120c5601883612c7f565b91506120d082612f57565b602082019050919050565b60006120e8601883612c7f565b91506120f382612f80565b602082019050919050565b600061210b601f83612c7f565b915061211682612fa9565b602082019050919050565b600061212e602383612c7f565b915061213982612fd2565b604082019050919050565b6000612151601983612c7f565b915061215c82613021565b602082019050919050565b6000612174601783612c7f565b915061217f8261304a565b602082019050919050565b6000612197601783612c7f565b91506121a282613073565b602082019050919050565b60006121ba602283612c7f565b91506121c58261309c565b604082019050919050565b60006121dd602083612c7f565b91506121e8826130eb565b602082019050919050565b6000612200601783612c7f565b915061220b82613114565b602082019050919050565b6000612223602083612c7f565b915061222e8261313d565b602082019050919050565b6000612246602283612c7f565b915061225182613166565b604082019050919050565b6000612269601683612c7f565b9150612274826131b5565b602082019050919050565b600061228c601183612c7f565b9150612297826131de565b602082019050919050565b60006122af601883612c7f565b91506122ba82613207565b602082019050919050565b60006122d2601e83612c7f565b91506122dd82613230565b602082019050919050565b60006122f5602383612c7f565b915061230082613259565b604082019050919050565b6000612318602383612c7f565b9150612323826132a8565b604082019050919050565b600061233b601e83612c7f565b9150612346826132f7565b602082019050919050565b600061235e600083612c74565b915061236982613320565b600082019050919050565b6000612381601f83612c7f565b915061238c82613323565b602082019050919050565b60006123a4601a83612c7f565b91506123af8261334c565b602082019050919050565b60006123c7601c83612c7f565b91506123d282613375565b602082019050919050565b60006123ea601f83612c7f565b91506123f58261339e565b602082019050919050565b600061240d601883612c7f565b9150612418826133c7565b602082019050919050565b60006101208301600083015161243c6000860182611f3e565b50602083015161244f6020860182611f3e565b5060408301516124626040860182611f3e565b5060608301516124756060860182611f3e565b5060808301516124886080860182612631565b5060a083015161249b60a0860182612631565b5060c08301516124ae60c0860182611f3e565b5060e083015184820360e08601526124c68282612008565b9150506101008301516124dd610100860182611f6b565b508091505092915050565b600061016083016124fc6000840184612c90565b6125096000860182611f3e565b506125176020840184612c90565b6125246020860182611f3e565b506125326040840184612d2c565b61253f604086018261264f565b5061254d6060840184612c90565b61255a6060860182611f3e565b506125686080840184612c90565b6125756080860182611f3e565b5061258360a0840184612d15565b61259060a0860182612631565b5061259e60c0840184612d15565b6125ab60c0860182612631565b506125b960e0840184612c90565b6125c660e0860182611f3e565b506125d5610100840184612cbe565b8583036101008701526125e9838284611f89565b925050506125fb610120840184612ca7565b612609610120860182611f6b565b50612618610140840184612d2c565b61262661014086018261264f565b508091505092915050565b61263a81612e27565b82525050565b61264981612e27565b82525050565b61265881612e36565b82525050565b61266781612e36565b82525050565b61267681612e40565b82525050565b6000612689828486611fe3565b91508190509392505050565b60006126a18284612041565b915081905092915050565b60006126b782612351565b9150819050919050565b60006060820190506126d66000830186611f4d565b6126e36020830185611f4d565b6126f0604083018461265e565b949350505050565b600060808201905061270d6000830187611f4d565b61271a6020830186611f4d565b612727604083018561265e565b6127346060830184611f2f565b95945050505050565b60006040820190506127526000830185611f4d565b61275f602083018461265e565b9392505050565b600060208201905061277b6000830184611f5c565b92915050565b60006020820190506127966000830184611f7a565b92915050565b60006080820190506127b16000830187611f7a565b6127be602083018661266d565b6127cb6040830185611f7a565b6127d86060830184611f7a565b95945050505050565b600060208201905081810360008301526127fa81612072565b9050919050565b6000602082019050818103600083015261281a81612095565b9050919050565b6000602082019050818103600083015261283a816120b8565b9050919050565b6000602082019050818103600083015261285a816120db565b9050919050565b6000602082019050818103600083015261287a816120fe565b9050919050565b6000602082019050818103600083015261289a81612121565b9050919050565b600060208201905081810360008301526128ba81612144565b9050919050565b600060208201905081810360008301526128da81612167565b9050919050565b600060208201905081810360008301526128fa8161218a565b9050919050565b6000602082019050818103600083015261291a816121ad565b9050919050565b6000602082019050818103600083015261293a816121d0565b9050919050565b6000602082019050818103600083015261295a816121f3565b9050919050565b6000602082019050818103600083015261297a81612216565b9050919050565b6000602082019050818103600083015261299a81612239565b9050919050565b600060208201905081810360008301526129ba8161225c565b9050919050565b600060208201905081810360008301526129da8161227f565b9050919050565b600060208201905081810360008301526129fa816122a2565b9050919050565b60006020820190508181036000830152612a1a816122c5565b9050919050565b60006020820190508181036000830152612a3a816122e8565b9050919050565b60006020820190508181036000830152612a5a8161230b565b9050919050565b60006020820190508181036000830152612a7a8161232e565b9050919050565b60006020820190508181036000830152612a9a81612374565b9050919050565b60006020820190508181036000830152612aba81612397565b9050919050565b60006020820190508181036000830152612ada816123ba565b9050919050565b60006020820190508181036000830152612afa816123dd565b9050919050565b60006020820190508181036000830152612b1a81612400565b9050919050565b60006020820190508181036000830152612b3b8184612423565b905092915050565b60006040820190508181036000830152612b5d81856124e8565b9050612b6c6020830184611f4d565b9392505050565b60006060820190508181036000830152612b8d81876124e8565b90508181036020830152612ba2818587611fb6565b9050612bb16040830184611f4d565b95945050505050565b6000602082019050612bcf6000830184612640565b92915050565b6000602082019050612bea600083018461265e565b92915050565b60008083356001602003843603038112612c0957600080fd5b80840192508235915067ffffffffffffffff821115612c2757600080fd5b602083019250600182023603831315612c3f57600080fd5b509250929050565b600081519050919050565b600082825260208201905092915050565b600082825260208201905092915050565b600081905092915050565b600082825260208201905092915050565b6000612c9f6020840184611c2f565b905092915050565b6000612cb66020840184611c6e565b905092915050565b60008083356001602003843603038112612cd757600080fd5b83810192508235915060208301925067ffffffffffffffff821115612cfb57600080fd5b600182023603841315612d0d57600080fd5b509250929050565b6000612d246020840184611ce9565b905092915050565b6000612d3b6020840184611cfe565b905092915050565b6000612d4e82612e36565b9150612d5983612e36565b9250827fffffffffffffffffffffffffffffffffffffffffffffffffffffffffffffffff03821115612d8e57612d8d612ec5565b5b828201905092915050565b6000612da482612e36565b9150612daf83612e36565b925082821015612dc257612dc1612ec5565b5b828203905092915050565b6000612dd882612e07565b9050919050565b6000612dea82612e07565b9050919050565b60008115159050919050565b6000819050919050565b600073ffffffffffffffffffffffffffffffffffffffff82169050919050565b600062ffffff82169050919050565b6000819050919050565b600060ff82169050919050565b6000612e5882612e5f565b9050919050565b6000612e6a82612e71565b9050919050565b6000612e7c82612e07565b9050919050565b82818337600083830152505050565b60005b83811015612eb0578082015181840152602081019050612e95565b83811115612ebf576000848401525b50505050565b7f4e487b7100000000000000000000000000000000000000000000000000000000600052601160045260246000fd5b6000601f19601f8301169050919050565b7f45434453413a20696e76616c6964207369676e61747572650000000000000000600082015250565b7f707265706172653a2045524332305f5452414e534645525f4641494c45440000600082015250565b7f707265706172653a20524f555445525f4d49534d415443480000000000000000600082015250565b7f707265706172653a2054494d454f55545f544f4f5f4c4f570000000000000000600082015250565b7f45434453413a20696e76616c6964207369676e6174757265206c656e67746800600082015250565b7f6164644c69717569646974793a2045524332305f5452414e534645525f46414960008201527f4c45440000000000000000000000000000000000000000000000000000000000602082015250565b7f707265706172653a20494e56414c49445f434841494e49445300000000000000600082015250565b7f63616e63656c3a205452414e534645525f4641494c4544000000000000000000600082015250565b7f66756c66696c6c3a20494e56414c49445f504152414d53000000000000000000600082015250565b7f45434453413a20696e76616c6964207369676e6174757265202773272076616c60008201527f7565000000000000000000000000000000000000000000000000000000000000602082015250565b7f707265706172653a20494e56414c49445f524543454956494e475f434841494e600082015250565b7f707265706172653a2056414c55455f4d49534d41544348000000000000000000600082015250565b7f72656d6f76654c69717569646974793a205452414e534645525f4641494c4544600082015250565b7f45434453413a20696e76616c6964207369676e6174757265202776272076616c60008201527f7565000000000000000000000000000000000000000000000000000000000000602082015250565b7f63616e63656c3a20494e56414c49445f504152414d5300000000000000000000600082015250565b7f4c696245524332303a204e4f5f434f4445000000000000000000000000000000600082015250565b7f63616e63656c3a20555345525f4d5553545f43414e43454c0000000000000000600082015250565b7f707265706172653a204554485f574954485f4552435f5452414e534645520000600082015250565b7f72656d6f76654c69717569646974793a20494e53554646494349454e545f465560008201527f4e44530000000000000000000000000000000000000000000000000000000000602082015250565b7f6164644c69717569646974793a204554485f574954485f4552435f5452414e5360008201527f4645520000000000000000000000000000000000000000000000000000000000602082015250565b7f66756c66696c6c3a20616464206d756c746963616c6c207061747465726e0000600082015250565b50565b7f707265706172653a20494e53554646494349454e545f4c495155494449545900600082015250565b7f66756c66696c6c3a20494e56414c49445f5349474e4154555245000000000000600082015250565b7f6164644c69717569646974793a2056414c55455f4d49534d4154434800000000600082015250565b7f5265656e7472616e637947756172643a207265656e7472616e742063616c6c00600082015250565b7f66756c66696c6c3a205452414e534645525f4641494c45440000000000000000600082015250565b6133f981612dcd565b811461340457600080fd5b50565b61341081612ddf565b811461341b57600080fd5b50565b61342781612df1565b811461343257600080fd5b50565b61343e81612dfd565b811461344957600080fd5b50565b61345581612e27565b811461346057600080fd5b50565b61346c81612e36565b811461347757600080fd5b5056fea26469706673582212204408f640c85b05232e47275f3bc0d264a2a0f72c9f2f12d7faa617e6eaef48b264736f6c63430008040033",
          "opcodes": "PUSH1 0xA0 PUSH1 0x40 MSTORE CALLVALUE DUP1 ISZERO PUSH3 0x11 JUMPI PUSH1 0x0 DUP1 REVERT JUMPDEST POP PUSH1 0x40 MLOAD PUSH3 0x35C0 CODESIZE SUB DUP1 PUSH3 0x35C0 DUP4 CODECOPY DUP2 DUP2 ADD PUSH1 0x40 MSTORE DUP2 ADD SWAP1 PUSH3 0x37 SWAP2 SWAP1 PUSH3 0x72 JUMP JUMPDEST PUSH1 0x1 PUSH1 0x0 DUP2 SWAP1 SSTORE POP DUP1 PUSH3 0xFFFFFF AND PUSH1 0x80 DUP2 PUSH3 0xFFFFFF AND PUSH1 0xE8 SHL DUP2 MSTORE POP POP POP PUSH3 0xC7 JUMP JUMPDEST PUSH1 0x0 DUP2 MLOAD SWAP1 POP PUSH3 0x6C DUP2 PUSH3 0xAD JUMP JUMPDEST SWAP3 SWAP2 POP POP JUMP JUMPDEST PUSH1 0x0 PUSH1 0x20 DUP3 DUP5 SUB SLT ISZERO PUSH3 0x85 JUMPI PUSH1 0x0 DUP1 REVERT JUMPDEST PUSH1 0x0 PUSH3 0x95 DUP5 DUP3 DUP6 ADD PUSH3 0x5B JUMP JUMPDEST SWAP2 POP POP SWAP3 SWAP2 POP POP JUMP JUMPDEST PUSH1 0x0 PUSH3 0xFFFFFF DUP3 AND SWAP1 POP SWAP2 SWAP1 POP JUMP JUMPDEST PUSH3 0xB8 DUP2 PUSH3 0x9E JUMP JUMPDEST DUP2 EQ PUSH3 0xC4 JUMPI PUSH1 0x0 DUP1 REVERT JUMPDEST POP JUMP JUMPDEST PUSH1 0x80 MLOAD PUSH1 0xE8 SHR PUSH2 0x34B0 PUSH3 0x110 PUSH1 0x0 CODECOPY PUSH1 0x0 DUP2 DUP2 PUSH2 0x33F ADD MSTORE DUP2 DUP2 PUSH2 0x5DF ADD MSTORE DUP2 DUP2 PUSH2 0x6A7 ADD MSTORE DUP2 DUP2 PUSH2 0x6EC ADD MSTORE DUP2 DUP2 PUSH2 0x76B ADD MSTORE DUP2 DUP2 PUSH2 0x8DC ADD MSTORE PUSH2 0xFD2 ADD MSTORE PUSH2 0x34B0 PUSH1 0x0 RETURN INVALID PUSH1 0x80 PUSH1 0x40 MSTORE PUSH1 0x4 CALLDATASIZE LT PUSH2 0x86 JUMPI PUSH1 0x0 CALLDATALOAD PUSH1 0xE0 SHR DUP1 PUSH4 0xC06ADAEE GT PUSH2 0x59 JUMPI DUP1 PUSH4 0xC06ADAEE EQ PUSH2 0x147 JUMPI DUP1 PUSH4 0xC95F9D0E EQ PUSH2 0x177 JUMPI DUP1 PUSH4 0xD448BD25 EQ PUSH2 0x193 JUMPI DUP1 PUSH4 0xE9088189 EQ PUSH2 0x1D0 JUMPI DUP1 PUSH4 0xF31ABCC4 EQ PUSH2 0x1F9 JUMPI PUSH2 0x86 JUMP JUMPDEST DUP1 PUSH4 0x41258B5C EQ PUSH2 0x8B JUMPI DUP1 PUSH4 0x543AD1DF EQ PUSH2 0xC8 JUMPI DUP1 PUSH4 0x7C32FBA9 EQ PUSH2 0xF3 JUMPI DUP1 PUSH4 0x9A8A0592 EQ PUSH2 0x11C JUMPI JUMPDEST PUSH1 0x0 DUP1 REVERT JUMPDEST CALLVALUE DUP1 ISZERO PUSH2 0x97 JUMPI PUSH1 0x0 DUP1 REVERT JUMPDEST POP PUSH2 0xB2 PUSH1 0x4 DUP1 CALLDATASIZE SUB DUP2 ADD SWAP1 PUSH2 0xAD SWAP2 SWAP1 PUSH2 0x1D3C JUMP JUMPDEST PUSH2 0x222 JUMP JUMPDEST PUSH1 0x40 MLOAD PUSH2 0xBF SWAP2 SWAP1 PUSH2 0x2BD5 JUMP JUMPDEST PUSH1 0x40 MLOAD DUP1 SWAP2 SUB SWAP1 RETURN JUMPDEST CALLVALUE DUP1 ISZERO PUSH2 0xD4 JUMPI PUSH1 0x0 DUP1 REVERT JUMPDEST POP PUSH2 0xDD PUSH2 0x247 JUMP JUMPDEST PUSH1 0x40 MLOAD PUSH2 0xEA SWAP2 SWAP1 PUSH2 0x2BD5 JUMP JUMPDEST PUSH1 0x40 MLOAD DUP1 SWAP2 SUB SWAP1 RETURN JUMPDEST CALLVALUE DUP1 ISZERO PUSH2 0xFF JUMPI PUSH1 0x0 DUP1 REVERT JUMPDEST POP PUSH2 0x11A PUSH1 0x4 DUP1 CALLDATASIZE SUB DUP2 ADD SWAP1 PUSH2 0x115 SWAP2 SWAP1 PUSH2 0x1DCA JUMP JUMPDEST PUSH2 0x24C JUMP JUMPDEST STOP JUMPDEST CALLVALUE DUP1 ISZERO PUSH2 0x128 JUMPI PUSH1 0x0 DUP1 REVERT JUMPDEST POP PUSH2 0x131 PUSH2 0x5DD JUMP JUMPDEST PUSH1 0x40 MLOAD PUSH2 0x13E SWAP2 SWAP1 PUSH2 0x2BBA JUMP JUMPDEST PUSH1 0x40 MLOAD DUP1 SWAP2 SUB SWAP1 RETURN JUMPDEST PUSH2 0x161 PUSH1 0x4 DUP1 CALLDATASIZE SUB DUP2 ADD SWAP1 PUSH2 0x15C SWAP2 SWAP1 PUSH2 0x1DCA JUMP JUMPDEST PUSH2 0x601 JUMP JUMPDEST PUSH1 0x40 MLOAD PUSH2 0x16E SWAP2 SWAP1 PUSH2 0x2781 JUMP JUMPDEST PUSH1 0x40 MLOAD DUP1 SWAP2 SUB SWAP1 RETURN JUMPDEST PUSH2 0x191 PUSH1 0x4 DUP1 CALLDATASIZE SUB DUP2 ADD SWAP1 PUSH2 0x18C SWAP2 SWAP1 PUSH2 0x1EA4 JUMP JUMPDEST PUSH2 0xBE6 JUMP JUMPDEST STOP JUMPDEST CALLVALUE DUP1 ISZERO PUSH2 0x19F JUMPI PUSH1 0x0 DUP1 REVERT JUMPDEST POP PUSH2 0x1BA PUSH1 0x4 DUP1 CALLDATASIZE SUB DUP2 ADD SWAP1 PUSH2 0x1B5 SWAP2 SWAP1 PUSH2 0x1DA1 JUMP JUMPDEST PUSH2 0xDF2 JUMP JUMPDEST PUSH1 0x40 MLOAD PUSH2 0x1C7 SWAP2 SWAP1 PUSH2 0x2766 JUMP JUMPDEST PUSH1 0x40 MLOAD DUP1 SWAP2 SUB SWAP1 RETURN JUMPDEST CALLVALUE DUP1 ISZERO PUSH2 0x1DC JUMPI PUSH1 0x0 DUP1 REVERT JUMPDEST POP PUSH2 0x1F7 PUSH1 0x4 DUP1 CALLDATASIZE SUB DUP2 ADD SWAP1 PUSH2 0x1F2 SWAP2 SWAP1 PUSH2 0x1E0B JUMP JUMPDEST PUSH2 0xE12 JUMP JUMPDEST STOP JUMPDEST CALLVALUE DUP1 ISZERO PUSH2 0x205 JUMPI PUSH1 0x0 DUP1 REVERT JUMPDEST POP PUSH2 0x220 PUSH1 0x4 DUP1 CALLDATASIZE SUB DUP2 ADD SWAP1 PUSH2 0x21B SWAP2 SWAP1 PUSH2 0x1EE0 JUMP JUMPDEST PUSH2 0x1281 JUMP JUMPDEST STOP JUMPDEST PUSH1 0x1 PUSH1 0x20 MSTORE DUP2 PUSH1 0x0 MSTORE PUSH1 0x40 PUSH1 0x0 KECCAK256 PUSH1 0x20 MSTORE DUP1 PUSH1 0x0 MSTORE PUSH1 0x40 PUSH1 0x0 KECCAK256 PUSH1 0x0 SWAP2 POP SWAP2 POP POP SLOAD DUP2 JUMP JUMPDEST PUSH1 0x0 DUP2 JUMP JUMPDEST PUSH1 0x2 PUSH1 0x0 SLOAD EQ ISZERO PUSH2 0x292 JUMPI PUSH1 0x40 MLOAD PUSH32 0x8C379A000000000000000000000000000000000000000000000000000000000 DUP2 MSTORE PUSH1 0x4 ADD PUSH2 0x289 SWAP1 PUSH2 0x2AE1 JUMP JUMPDEST PUSH1 0x40 MLOAD DUP1 SWAP2 SUB SWAP1 REVERT JUMPDEST PUSH1 0x2 PUSH1 0x0 DUP2 SWAP1 SSTORE POP PUSH1 0x0 PUSH2 0x2A5 DUP3 PUSH2 0x14B5 JUMP JUMPDEST SWAP1 POP PUSH1 0x1 PUSH1 0x2 PUSH1 0x0 DUP4 DUP2 MSTORE PUSH1 0x20 ADD SWAP1 DUP2 MSTORE PUSH1 0x20 ADD PUSH1 0x0 KECCAK256 PUSH1 0x0 PUSH2 0x100 EXP DUP2 SLOAD DUP2 PUSH1 0xFF MUL NOT AND SWAP1 DUP4 ISZERO ISZERO MUL OR SWAP1 SSTORE PUSH2 0x311 JUMPI PUSH1 0x40 MLOAD PUSH32 0x8C379A000000000000000000000000000000000000000000000000000000000 DUP2 MSTORE PUSH1 0x4 ADD PUSH2 0x308 SWAP1 PUSH2 0x29A1 JUMP JUMPDEST PUSH1 0x40 MLOAD DUP1 SWAP2 SUB SWAP1 REVERT JUMPDEST PUSH1 0x0 PUSH1 0x2 PUSH1 0x0 DUP4 DUP2 MSTORE PUSH1 0x20 ADD SWAP1 DUP2 MSTORE PUSH1 0x20 ADD PUSH1 0x0 KECCAK256 PUSH1 0x0 PUSH2 0x100 EXP DUP2 SLOAD DUP2 PUSH1 0xFF MUL NOT AND SWAP1 DUP4 ISZERO ISZERO MUL OR SWAP1 SSTORE POP PUSH32 0x0 PUSH3 0xFFFFFF AND DUP3 PUSH1 0xA0 ADD PUSH1 0x20 DUP2 ADD SWAP1 PUSH2 0x376 SWAP2 SWAP1 PUSH2 0x1E7B JUMP JUMPDEST PUSH3 0xFFFFFF AND EQ ISZERO PUSH2 0x44F JUMPI TIMESTAMP DUP3 PUSH2 0x140 ADD CALLDATALOAD LT PUSH2 0x3D8 JUMPI DUP2 PUSH1 0x20 ADD PUSH1 0x20 DUP2 ADD SWAP1 PUSH2 0x3A0 SWAP2 SWAP1 PUSH2 0x1D13 JUMP JUMPDEST PUSH20 0xFFFFFFFFFFFFFFFFFFFFFFFFFFFFFFFFFFFFFFFF AND CALLER PUSH20 0xFFFFFFFFFFFFFFFFFFFFFFFFFFFFFFFFFFFFFFFF AND EQ PUSH2 0x3D7 JUMPI PUSH1 0x0 DUP1 REVERT JUMPDEST JUMPDEST PUSH2 0x40B DUP3 PUSH1 0x60 ADD PUSH1 0x20 DUP2 ADD SWAP1 PUSH2 0x3EE SWAP2 SWAP1 PUSH2 0x1D13 JUMP JUMPDEST DUP4 PUSH1 0x0 ADD PUSH1 0x20 DUP2 ADD SWAP1 PUSH2 0x401 SWAP2 SWAP1 PUSH2 0x1D13 JUMP JUMPDEST DUP5 PUSH1 0x40 ADD CALLDATALOAD PUSH2 0x1677 JUMP JUMPDEST PUSH2 0x44A JUMPI PUSH1 0x40 MLOAD PUSH32 0x8C379A000000000000000000000000000000000000000000000000000000000 DUP2 MSTORE PUSH1 0x4 ADD PUSH2 0x441 SWAP1 PUSH2 0x28C1 JUMP JUMPDEST PUSH1 0x40 MLOAD DUP1 SWAP2 SUB SWAP1 REVERT JUMPDEST PUSH2 0x598 JUMP JUMPDEST TIMESTAMP DUP3 PUSH2 0x140 ADD CALLDATALOAD LT PUSH2 0x4DC JUMPI DUP2 PUSH1 0x0 ADD PUSH1 0x20 DUP2 ADD SWAP1 PUSH2 0x46E SWAP2 SWAP1 PUSH2 0x1D13 JUMP JUMPDEST PUSH20 0xFFFFFFFFFFFFFFFFFFFFFFFFFFFFFFFFFFFFFFFF AND CALLER PUSH20 0xFFFFFFFFFFFFFFFFFFFFFFFFFFFFFFFFFFFFFFFF AND EQ PUSH2 0x4DB JUMPI PUSH1 0x40 MLOAD PUSH32 0x8C379A000000000000000000000000000000000000000000000000000000000 DUP2 MSTORE PUSH1 0x4 ADD PUSH2 0x4D2 SWAP1 PUSH2 0x29E1 JUMP JUMPDEST PUSH1 0x40 MLOAD DUP1 SWAP2 SUB SWAP1 REVERT JUMPDEST JUMPDEST DUP2 PUSH1 0x40 ADD CALLDATALOAD PUSH1 0x1 PUSH1 0x0 DUP5 PUSH1 0x20 ADD PUSH1 0x20 DUP2 ADD SWAP1 PUSH2 0x4F8 SWAP2 SWAP1 PUSH2 0x1D13 JUMP JUMPDEST PUSH20 0xFFFFFFFFFFFFFFFFFFFFFFFFFFFFFFFFFFFFFFFF AND PUSH20 0xFFFFFFFFFFFFFFFFFFFFFFFFFFFFFFFFFFFFFFFF AND DUP2 MSTORE PUSH1 0x20 ADD SWAP1 DUP2 MSTORE PUSH1 0x20 ADD PUSH1 0x0 KECCAK256 PUSH1 0x0 DUP5 PUSH1 0x80 ADD PUSH1 0x20 DUP2 ADD SWAP1 PUSH2 0x547 SWAP2 SWAP1 PUSH2 0x1D13 JUMP JUMPDEST PUSH20 0xFFFFFFFFFFFFFFFFFFFFFFFFFFFFFFFFFFFFFFFF AND PUSH20 0xFFFFFFFFFFFFFFFFFFFFFFFFFFFFFFFFFFFFFFFF AND DUP2 MSTORE PUSH1 0x20 ADD SWAP1 DUP2 MSTORE PUSH1 0x20 ADD PUSH1 0x0 KECCAK256 PUSH1 0x0 DUP3 DUP3 SLOAD PUSH2 0x590 SWAP2 SWAP1 PUSH2 0x2D43 JUMP JUMPDEST SWAP3 POP POP DUP2 SWAP1 SSTORE POP JUMPDEST PUSH32 0x199DEBA8A6A6013AF443143040BBB1EC3F4313F2DB743530E1DC4B0CD40F1B51 DUP3 CALLER PUSH1 0x40 MLOAD PUSH2 0x5C9 SWAP3 SWAP2 SWAP1 PUSH2 0x2B43 JUMP JUMPDEST PUSH1 0x40 MLOAD DUP1 SWAP2 SUB SWAP1 LOG1 POP PUSH1 0x1 PUSH1 0x0 DUP2 SWAP1 SSTORE POP POP JUMP JUMPDEST PUSH32 0x0 DUP2 JUMP JUMPDEST PUSH1 0x0 PUSH1 0x2 PUSH1 0x0 SLOAD EQ ISZERO PUSH2 0x649 JUMPI PUSH1 0x40 MLOAD PUSH32 0x8C379A000000000000000000000000000000000000000000000000000000000 DUP2 MSTORE PUSH1 0x4 ADD PUSH2 0x640 SWAP1 PUSH2 0x2AE1 JUMP JUMPDEST PUSH1 0x40 MLOAD DUP1 SWAP2 SUB SWAP1 REVERT JUMPDEST PUSH1 0x2 PUSH1 0x0 DUP2 SWAP1 SSTORE POP PUSH1 0x0 TIMESTAMP DUP4 PUSH2 0x140 ADD CALLDATALOAD PUSH2 0x664 SWAP2 SWAP1 PUSH2 0x2D99 JUMP JUMPDEST LT ISZERO PUSH2 0x6A5 JUMPI PUSH1 0x40 MLOAD PUSH32 0x8C379A000000000000000000000000000000000000000000000000000000000 DUP2 MSTORE PUSH1 0x4 ADD PUSH2 0x69C SWAP1 PUSH2 0x2841 JUMP JUMPDEST PUSH1 0x40 MLOAD DUP1 SWAP2 SUB SWAP1 REVERT JUMPDEST PUSH32 0x0 PUSH3 0xFFFFFF AND DUP3 PUSH1 0xA0 ADD PUSH1 0x20 DUP2 ADD SWAP1 PUSH2 0x6DE SWAP2 SWAP1 PUSH2 0x1E7B JUMP JUMPDEST PUSH3 0xFFFFFF AND EQ DUP1 PUSH2 0x72A JUMPI POP PUSH32 0x0 PUSH3 0xFFFFFF AND DUP3 PUSH1 0xC0 ADD PUSH1 0x20 DUP2 ADD SWAP1 PUSH2 0x723 SWAP2 SWAP1 PUSH2 0x1E7B JUMP JUMPDEST PUSH3 0xFFFFFF AND EQ JUMPDEST PUSH2 0x769 JUMPI PUSH1 0x40 MLOAD PUSH32 0x8C379A000000000000000000000000000000000000000000000000000000000 DUP2 MSTORE PUSH1 0x4 ADD PUSH2 0x760 SWAP1 PUSH2 0x28A1 JUMP JUMPDEST PUSH1 0x40 MLOAD DUP1 SWAP2 SUB SWAP1 REVERT JUMPDEST PUSH32 0x0 PUSH3 0xFFFFFF AND DUP3 PUSH1 0xA0 ADD PUSH1 0x20 DUP2 ADD SWAP1 PUSH2 0x7A2 SWAP2 SWAP1 PUSH2 0x1E7B JUMP JUMPDEST PUSH3 0xFFFFFF AND EQ ISZERO PUSH2 0x8C2 JUMPI PUSH2 0x7C8 DUP3 PUSH1 0x60 ADD PUSH1 0x20 DUP2 ADD SWAP1 PUSH2 0x7C3 SWAP2 SWAP1 PUSH2 0x1D13 JUMP JUMPDEST PUSH2 0x16AA JUMP JUMPDEST ISZERO PUSH2 0x818 JUMPI DUP2 PUSH1 0x40 ADD CALLDATALOAD CALLVALUE EQ PUSH2 0x813 JUMPI PUSH1 0x40 MLOAD PUSH32 0x8C379A000000000000000000000000000000000000000000000000000000000 DUP2 MSTORE PUSH1 0x4 ADD PUSH2 0x80A SWAP1 PUSH2 0x2941 JUMP JUMPDEST PUSH1 0x40 MLOAD DUP1 SWAP2 SUB SWAP1 REVERT JUMPDEST PUSH2 0x8BD JUMP JUMPDEST PUSH1 0x0 CALLVALUE EQ PUSH2 0x85B JUMPI PUSH1 0x40 MLOAD PUSH32 0x8C379A000000000000000000000000000000000000000000000000000000000 DUP2 MSTORE PUSH1 0x4 ADD PUSH2 0x852 SWAP1 PUSH2 0x2A01 JUMP JUMPDEST PUSH1 0x40 MLOAD DUP1 SWAP2 SUB SWAP1 REVERT JUMPDEST PUSH2 0x87D DUP3 PUSH1 0x60 ADD PUSH1 0x20 DUP2 ADD SWAP1 PUSH2 0x871 SWAP2 SWAP1 PUSH2 0x1D13 JUMP JUMPDEST CALLER ADDRESS DUP6 PUSH1 0x40 ADD CALLDATALOAD PUSH2 0x16E2 JUMP JUMPDEST PUSH2 0x8BC JUMPI PUSH1 0x40 MLOAD PUSH32 0x8C379A000000000000000000000000000000000000000000000000000000000 DUP2 MSTORE PUSH1 0x4 ADD PUSH2 0x8B3 SWAP1 PUSH2 0x2801 JUMP JUMPDEST PUSH1 0x40 MLOAD DUP1 SWAP2 SUB SWAP1 REVERT JUMPDEST JUMPDEST PUSH2 0xB63 JUMP JUMPDEST DUP2 PUSH1 0xC0 ADD PUSH1 0x20 DUP2 ADD SWAP1 PUSH2 0x8D5 SWAP2 SWAP1 PUSH2 0x1E7B JUMP JUMPDEST PUSH3 0xFFFFFF AND PUSH32 0x0 PUSH3 0xFFFFFF AND EQ PUSH2 0x940 JUMPI PUSH1 0x40 MLOAD PUSH32 0x8C379A000000000000000000000000000000000000000000000000000000000 DUP2 MSTORE PUSH1 0x4 ADD PUSH2 0x937 SWAP1 PUSH2 0x2921 JUMP JUMPDEST PUSH1 0x40 MLOAD DUP1 SWAP2 SUB SWAP1 REVERT JUMPDEST DUP2 PUSH1 0x20 ADD PUSH1 0x20 DUP2 ADD SWAP1 PUSH2 0x953 SWAP2 SWAP1 PUSH2 0x1D13 JUMP JUMPDEST PUSH20 0xFFFFFFFFFFFFFFFFFFFFFFFFFFFFFFFFFFFFFFFF AND CALLER PUSH20 0xFFFFFFFFFFFFFFFFFFFFFFFFFFFFFFFFFFFFFFFF AND EQ PUSH2 0x9C0 JUMPI PUSH1 0x40 MLOAD PUSH32 0x8C379A000000000000000000000000000000000000000000000000000000000 DUP2 MSTORE PUSH1 0x4 ADD PUSH2 0x9B7 SWAP1 PUSH2 0x2821 JUMP JUMPDEST PUSH1 0x40 MLOAD DUP1 SWAP2 SUB SWAP1 REVERT JUMPDEST DUP2 PUSH1 0x40 ADD CALLDATALOAD PUSH1 0x1 PUSH1 0x0 DUP5 PUSH1 0x20 ADD PUSH1 0x20 DUP2 ADD SWAP1 PUSH2 0x9DC SWAP2 SWAP1 PUSH2 0x1D13 JUMP JUMPDEST PUSH20 0xFFFFFFFFFFFFFFFFFFFFFFFFFFFFFFFFFFFFFFFF AND PUSH20 0xFFFFFFFFFFFFFFFFFFFFFFFFFFFFFFFFFFFFFFFF AND DUP2 MSTORE PUSH1 0x20 ADD SWAP1 DUP2 MSTORE PUSH1 0x20 ADD PUSH1 0x0 KECCAK256 PUSH1 0x0 DUP5 PUSH1 0x80 ADD PUSH1 0x20 DUP2 ADD SWAP1 PUSH2 0xA2B SWAP2 SWAP1 PUSH2 0x1D13 JUMP JUMPDEST PUSH20 0xFFFFFFFFFFFFFFFFFFFFFFFFFFFFFFFFFFFFFFFF AND PUSH20 0xFFFFFFFFFFFFFFFFFFFFFFFFFFFFFFFFFFFFFFFF AND DUP2 MSTORE PUSH1 0x20 ADD SWAP1 DUP2 MSTORE PUSH1 0x20 ADD PUSH1 0x0 KECCAK256 SLOAD LT ISZERO PUSH2 0xAA7 JUMPI PUSH1 0x40 MLOAD PUSH32 0x8C379A000000000000000000000000000000000000000000000000000000000 DUP2 MSTORE PUSH1 0x4 ADD PUSH2 0xA9E SWAP1 PUSH2 0x2A81 JUMP JUMPDEST PUSH1 0x40 MLOAD DUP1 SWAP2 SUB SWAP1 REVERT JUMPDEST DUP2 PUSH1 0x40 ADD CALLDATALOAD PUSH1 0x1 PUSH1 0x0 DUP5 PUSH1 0x20 ADD PUSH1 0x20 DUP2 ADD SWAP1 PUSH2 0xAC3 SWAP2 SWAP1 PUSH2 0x1D13 JUMP JUMPDEST PUSH20 0xFFFFFFFFFFFFFFFFFFFFFFFFFFFFFFFFFFFFFFFF AND PUSH20 0xFFFFFFFFFFFFFFFFFFFFFFFFFFFFFFFFFFFFFFFF AND DUP2 MSTORE PUSH1 0x20 ADD SWAP1 DUP2 MSTORE PUSH1 0x20 ADD PUSH1 0x0 KECCAK256 PUSH1 0x0 DUP5 PUSH1 0x80 ADD PUSH1 0x20 DUP2 ADD SWAP1 PUSH2 0xB12 SWAP2 SWAP1 PUSH2 0x1D13 JUMP JUMPDEST PUSH20 0xFFFFFFFFFFFFFFFFFFFFFFFFFFFFFFFFFFFFFFFF AND PUSH20 0xFFFFFFFFFFFFFFFFFFFFFFFFFFFFFFFFFFFFFFFF AND DUP2 MSTORE PUSH1 0x20 ADD SWAP1 DUP2 MSTORE PUSH1 0x20 ADD PUSH1 0x0 KECCAK256 PUSH1 0x0 DUP3 DUP3 SLOAD PUSH2 0xB5B SWAP2 SWAP1 PUSH2 0x2D99 JUMP JUMPDEST SWAP3 POP POP DUP2 SWAP1 SSTORE POP JUMPDEST PUSH1 0x0 PUSH2 0xB6E DUP4 PUSH2 0x14B5 JUMP JUMPDEST SWAP1 POP PUSH1 0x1 PUSH1 0x2 PUSH1 0x0 DUP4 DUP2 MSTORE PUSH1 0x20 ADD SWAP1 DUP2 MSTORE PUSH1 0x20 ADD PUSH1 0x0 KECCAK256 PUSH1 0x0 PUSH2 0x100 EXP DUP2 SLOAD DUP2 PUSH1 0xFF MUL NOT AND SWAP1 DUP4 ISZERO ISZERO MUL OR SWAP1 SSTORE POP PUSH32 0x6B8D6A2CEC3E696832B71A0098F172D93C793EF03C1E1B93689A626B941D13FC DUP4 CALLER PUSH1 0x40 MLOAD PUSH2 0xBCD SWAP3 SWAP2 SWAP1 PUSH2 0x2B43 JUMP JUMPDEST PUSH1 0x40 MLOAD DUP1 SWAP2 SUB SWAP1 LOG1 DUP1 SWAP2 POP POP PUSH1 0x1 PUSH1 0x0 DUP2 SWAP1 SSTORE POP SWAP2 SWAP1 POP JUMP JUMPDEST PUSH1 0x2 PUSH1 0x0 SLOAD EQ ISZERO PUSH2 0xC2C JUMPI PUSH1 0x40 MLOAD PUSH32 0x8C379A000000000000000000000000000000000000000000000000000000000 DUP2 MSTORE PUSH1 0x4 ADD PUSH2 0xC23 SWAP1 PUSH2 0x2AE1 JUMP JUMPDEST PUSH1 0x40 MLOAD DUP1 SWAP2 SUB SWAP1 REVERT JUMPDEST PUSH1 0x2 PUSH1 0x0 DUP2 SWAP1 SSTORE POP PUSH2 0xC3D DUP2 PUSH2 0x16AA JUMP JUMPDEST ISZERO PUSH2 0xC89 JUMPI DUP2 CALLVALUE EQ PUSH2 0xC84 JUMPI PUSH1 0x40 MLOAD PUSH32 0x8C379A000000000000000000000000000000000000000000000000000000000 DUP2 MSTORE PUSH1 0x4 ADD PUSH2 0xC7B SWAP1 PUSH2 0x2AC1 JUMP JUMPDEST PUSH1 0x40 MLOAD DUP1 SWAP2 SUB SWAP1 REVERT JUMPDEST PUSH2 0xD18 JUMP JUMPDEST PUSH1 0x0 CALLVALUE EQ PUSH2 0xCCC JUMPI PUSH1 0x40 MLOAD PUSH32 0x8C379A000000000000000000000000000000000000000000000000000000000 DUP2 MSTORE PUSH1 0x4 ADD PUSH2 0xCC3 SWAP1 PUSH2 0x2A41 JUMP JUMPDEST PUSH1 0x40 MLOAD DUP1 SWAP2 SUB SWAP1 REVERT JUMPDEST PUSH2 0xCD8 DUP2 CALLER ADDRESS DUP6 PUSH2 0x16E2 JUMP JUMPDEST PUSH2 0xD17 JUMPI PUSH1 0x40 MLOAD PUSH32 0x8C379A000000000000000000000000000000000000000000000000000000000 DUP2 MSTORE PUSH1 0x4 ADD PUSH2 0xD0E SWAP1 PUSH2 0x2881 JUMP JUMPDEST PUSH1 0x40 MLOAD DUP1 SWAP2 SUB SWAP1 REVERT JUMPDEST JUMPDEST DUP2 PUSH1 0x1 PUSH1 0x0 CALLER PUSH20 0xFFFFFFFFFFFFFFFFFFFFFFFFFFFFFFFFFFFFFFFF AND PUSH20 0xFFFFFFFFFFFFFFFFFFFFFFFFFFFFFFFFFFFFFFFF AND DUP2 MSTORE PUSH1 0x20 ADD SWAP1 DUP2 MSTORE PUSH1 0x20 ADD PUSH1 0x0 KECCAK256 PUSH1 0x0 DUP4 PUSH20 0xFFFFFFFFFFFFFFFFFFFFFFFFFFFFFFFFFFFFFFFF AND PUSH20 0xFFFFFFFFFFFFFFFFFFFFFFFFFFFFFFFFFFFFFFFF AND DUP2 MSTORE PUSH1 0x20 ADD SWAP1 DUP2 MSTORE PUSH1 0x20 ADD PUSH1 0x0 KECCAK256 PUSH1 0x0 DUP3 DUP3 SLOAD PUSH2 0xDA4 SWAP2 SWAP1 PUSH2 0x2D43 JUMP JUMPDEST SWAP3 POP POP DUP2 SWAP1 SSTORE POP PUSH32 0x9D278C56BA6DC86A12EEFE6B43112BD6E06648EB4EC0B950EE2D783D40E2ACB4 CALLER DUP3 DUP5 PUSH1 0x40 MLOAD PUSH2 0xDDE SWAP4 SWAP3 SWAP2 SWAP1 PUSH2 0x26C1 JUMP JUMPDEST PUSH1 0x40 MLOAD DUP1 SWAP2 SUB SWAP1 LOG1 PUSH1 0x1 PUSH1 0x0 DUP2 SWAP1 SSTORE POP POP POP JUMP JUMPDEST PUSH1 0x2 PUSH1 0x20 MSTORE DUP1 PUSH1 0x0 MSTORE PUSH1 0x40 PUSH1 0x0 KECCAK256 PUSH1 0x0 SWAP2 POP SLOAD SWAP1 PUSH2 0x100 EXP SWAP1 DIV PUSH1 0xFF AND DUP2 JUMP JUMPDEST PUSH1 0x2 PUSH1 0x0 SLOAD EQ ISZERO PUSH2 0xE58 JUMPI PUSH1 0x40 MLOAD PUSH32 0x8C379A000000000000000000000000000000000000000000000000000000000 DUP2 MSTORE PUSH1 0x4 ADD PUSH2 0xE4F SWAP1 PUSH2 0x2AE1 JUMP JUMPDEST PUSH1 0x40 MLOAD DUP1 SWAP2 SUB SWAP1 REVERT JUMPDEST PUSH1 0x2 PUSH1 0x0 DUP2 SWAP1 SSTORE POP PUSH1 0x0 PUSH2 0xE6B DUP5 PUSH2 0x14B5 JUMP JUMPDEST SWAP1 POP PUSH1 0x1 PUSH1 0x2 PUSH1 0x0 DUP4 DUP2 MSTORE PUSH1 0x20 ADD SWAP1 DUP2 MSTORE PUSH1 0x20 ADD PUSH1 0x0 KECCAK256 PUSH1 0x0 PUSH2 0x100 EXP DUP2 SLOAD DUP2 PUSH1 0xFF MUL NOT AND SWAP1 DUP4 ISZERO ISZERO MUL OR SWAP1 SSTORE PUSH2 0xED7 JUMPI PUSH1 0x40 MLOAD PUSH32 0x8C379A000000000000000000000000000000000000000000000000000000000 DUP2 MSTORE PUSH1 0x4 ADD PUSH2 0xECE SWAP1 PUSH2 0x28E1 JUMP JUMPDEST PUSH1 0x40 MLOAD DUP1 SWAP2 SUB SWAP1 REVERT JUMPDEST PUSH1 0x0 PUSH1 0x2 PUSH1 0x0 DUP4 DUP2 MSTORE PUSH1 0x20 ADD SWAP1 DUP2 MSTORE PUSH1 0x20 ADD PUSH1 0x0 KECCAK256 PUSH1 0x0 PUSH2 0x100 EXP DUP2 SLOAD DUP2 PUSH1 0xFF MUL NOT AND SWAP1 DUP4 ISZERO ISZERO MUL OR SWAP1 SSTORE POP DUP4 PUSH1 0x0 ADD PUSH1 0x20 DUP2 ADD SWAP1 PUSH2 0xF16 SWAP2 SWAP1 PUSH2 0x1D13 JUMP JUMPDEST PUSH20 0xFFFFFFFFFFFFFFFFFFFFFFFFFFFFFFFFFFFFFFFF AND PUSH2 0xF7A DUP3 DUP6 DUP6 DUP1 DUP1 PUSH1 0x1F ADD PUSH1 0x20 DUP1 SWAP2 DIV MUL PUSH1 0x20 ADD PUSH1 0x40 MLOAD SWAP1 DUP2 ADD PUSH1 0x40 MSTORE DUP1 SWAP4 SWAP3 SWAP2 SWAP1 DUP2 DUP2 MSTORE PUSH1 0x20 ADD DUP4 DUP4 DUP1 DUP3 DUP5 CALLDATACOPY PUSH1 0x0 DUP2 DUP5 ADD MSTORE PUSH1 0x1F NOT PUSH1 0x1F DUP3 ADD AND SWAP1 POP DUP1 DUP4 ADD SWAP3 POP POP POP POP POP POP POP PUSH2 0x1789 JUMP JUMPDEST PUSH20 0xFFFFFFFFFFFFFFFFFFFFFFFFFFFFFFFFFFFFFFFF AND EQ PUSH2 0xFD0 JUMPI PUSH1 0x40 MLOAD PUSH32 0x8C379A000000000000000000000000000000000000000000000000000000000 DUP2 MSTORE PUSH1 0x4 ADD PUSH2 0xFC7 SWAP1 PUSH2 0x2AA1 JUMP JUMPDEST PUSH1 0x40 MLOAD DUP1 SWAP2 SUB SWAP1 REVERT JUMPDEST PUSH32 0x0 PUSH3 0xFFFFFF AND DUP5 PUSH1 0xA0 ADD PUSH1 0x20 DUP2 ADD SWAP1 PUSH2 0x1009 SWAP2 SWAP1 PUSH2 0x1E7B JUMP JUMPDEST PUSH3 0xFFFFFF AND EQ ISZERO PUSH2 0x10D4 JUMPI DUP4 PUSH1 0x40 ADD CALLDATALOAD PUSH1 0x1 PUSH1 0x0 DUP7 PUSH1 0x20 ADD PUSH1 0x20 DUP2 ADD SWAP1 PUSH2 0x1030 SWAP2 SWAP1 PUSH2 0x1D13 JUMP JUMPDEST PUSH20 0xFFFFFFFFFFFFFFFFFFFFFFFFFFFFFFFFFFFFFFFF AND PUSH20 0xFFFFFFFFFFFFFFFFFFFFFFFFFFFFFFFFFFFFFFFF AND DUP2 MSTORE PUSH1 0x20 ADD SWAP1 DUP2 MSTORE PUSH1 0x20 ADD PUSH1 0x0 KECCAK256 PUSH1 0x0 DUP7 PUSH1 0x60 ADD PUSH1 0x20 DUP2 ADD SWAP1 PUSH2 0x107F SWAP2 SWAP1 PUSH2 0x1D13 JUMP JUMPDEST PUSH20 0xFFFFFFFFFFFFFFFFFFFFFFFFFFFFFFFFFFFFFFFF AND PUSH20 0xFFFFFFFFFFFFFFFFFFFFFFFFFFFFFFFFFFFFFFFF AND DUP2 MSTORE PUSH1 0x20 ADD SWAP1 DUP2 MSTORE PUSH1 0x20 ADD PUSH1 0x0 KECCAK256 PUSH1 0x0 DUP3 DUP3 SLOAD PUSH2 0x10C8 SWAP2 SWAP1 PUSH2 0x2D43 JUMP JUMPDEST SWAP3 POP POP DUP2 SWAP1 SSTORE POP PUSH2 0x1236 JUMP JUMPDEST PUSH1 0x0 PUSH8 0xFFFFFFFFFFFFFFFF DUP2 GT ISZERO PUSH2 0x1115 JUMPI PUSH32 0x4E487B7100000000000000000000000000000000000000000000000000000000 PUSH1 0x0 MSTORE PUSH1 0x41 PUSH1 0x4 MSTORE PUSH1 0x24 PUSH1 0x0 REVERT JUMPDEST PUSH1 0x40 MLOAD SWAP1 DUP1 DUP3 MSTORE DUP1 PUSH1 0x1F ADD PUSH1 0x1F NOT AND PUSH1 0x20 ADD DUP3 ADD PUSH1 0x40 MSTORE DUP1 ISZERO PUSH2 0x1147 JUMPI DUP2 PUSH1 0x20 ADD PUSH1 0x1 DUP3 MUL DUP1 CALLDATASIZE DUP4 CALLDATACOPY DUP1 DUP3 ADD SWAP2 POP POP SWAP1 POP JUMPDEST POP DUP1 MLOAD SWAP1 PUSH1 0x20 ADD KECCAK256 DUP5 DUP1 PUSH2 0x100 ADD SWAP1 PUSH2 0x1160 SWAP2 SWAP1 PUSH2 0x2BF0 JUMP JUMPDEST PUSH1 0x40 MLOAD PUSH2 0x116E SWAP3 SWAP2 SWAP1 PUSH2 0x267C JUMP JUMPDEST PUSH1 0x40 MLOAD DUP1 SWAP2 SUB SWAP1 KECCAK256 EQ ISZERO PUSH2 0x11F3 JUMPI PUSH2 0x11AF DUP5 PUSH1 0x60 ADD PUSH1 0x20 DUP2 ADD SWAP1 PUSH2 0x1192 SWAP2 SWAP1 PUSH2 0x1D13 JUMP JUMPDEST DUP6 PUSH1 0xE0 ADD PUSH1 0x20 DUP2 ADD SWAP1 PUSH2 0x11A5 SWAP2 SWAP1 PUSH2 0x1D13 JUMP JUMPDEST DUP7 PUSH1 0x40 ADD CALLDATALOAD PUSH2 0x1677 JUMP JUMPDEST PUSH2 0x11EE JUMPI PUSH1 0x40 MLOAD PUSH32 0x8C379A000000000000000000000000000000000000000000000000000000000 DUP2 MSTORE PUSH1 0x4 ADD PUSH2 0x11E5 SWAP1 PUSH2 0x2B01 JUMP JUMPDEST PUSH1 0x40 MLOAD DUP1 SWAP2 SUB SWAP1 REVERT JUMPDEST PUSH2 0x1235 JUMP JUMPDEST PUSH1 0x0 PUSH2 0x1234 JUMPI PUSH1 0x40 MLOAD PUSH32 0x8C379A000000000000000000000000000000000000000000000000000000000 DUP2 MSTORE PUSH1 0x4 ADD PUSH2 0x122B SWAP1 PUSH2 0x2A61 JUMP JUMPDEST PUSH1 0x40 MLOAD DUP1 SWAP2 SUB SWAP1 REVERT JUMPDEST JUMPDEST JUMPDEST PUSH32 0x280DF9EFEEBC705987D91447E4D3D8129DC6DF8FF02E029459F598E7217981E9 DUP5 DUP5 DUP5 CALLER PUSH1 0x40 MLOAD PUSH2 0x126B SWAP5 SWAP4 SWAP3 SWAP2 SWAP1 PUSH2 0x2B73 JUMP JUMPDEST PUSH1 0x40 MLOAD DUP1 SWAP2 SUB SWAP1 LOG1 POP PUSH1 0x1 PUSH1 0x0 DUP2 SWAP1 SSTORE POP POP POP POP JUMP JUMPDEST PUSH1 0x2 PUSH1 0x0 SLOAD EQ ISZERO PUSH2 0x12C7 JUMPI PUSH1 0x40 MLOAD PUSH32 0x8C379A000000000000000000000000000000000000000000000000000000000 DUP2 MSTORE PUSH1 0x4 ADD PUSH2 0x12BE SWAP1 PUSH2 0x2AE1 JUMP JUMPDEST PUSH1 0x40 MLOAD DUP1 SWAP2 SUB SWAP1 REVERT JUMPDEST PUSH1 0x2 PUSH1 0x0 DUP2 SWAP1 SSTORE POP DUP3 PUSH1 0x1 PUSH1 0x0 CALLER PUSH20 0xFFFFFFFFFFFFFFFFFFFFFFFFFFFFFFFFFFFFFFFF AND PUSH20 0xFFFFFFFFFFFFFFFFFFFFFFFFFFFFFFFFFFFFFFFF AND DUP2 MSTORE PUSH1 0x20 ADD SWAP1 DUP2 MSTORE PUSH1 0x20 ADD PUSH1 0x0 KECCAK256 PUSH1 0x0 DUP5 PUSH20 0xFFFFFFFFFFFFFFFFFFFFFFFFFFFFFFFFFFFFFFFF AND PUSH20 0xFFFFFFFFFFFFFFFFFFFFFFFFFFFFFFFFFFFFFFFF AND DUP2 MSTORE PUSH1 0x20 ADD SWAP1 DUP2 MSTORE PUSH1 0x20 ADD PUSH1 0x0 KECCAK256 SLOAD LT ISZERO PUSH2 0x138E JUMPI PUSH1 0x40 MLOAD PUSH32 0x8C379A000000000000000000000000000000000000000000000000000000000 DUP2 MSTORE PUSH1 0x4 ADD PUSH2 0x1385 SWAP1 PUSH2 0x2A21 JUMP JUMPDEST PUSH1 0x40 MLOAD DUP1 SWAP2 SUB SWAP1 REVERT JUMPDEST DUP3 PUSH1 0x1 PUSH1 0x0 CALLER PUSH20 0xFFFFFFFFFFFFFFFFFFFFFFFFFFFFFFFFFFFFFFFF AND PUSH20 0xFFFFFFFFFFFFFFFFFFFFFFFFFFFFFFFFFFFFFFFF AND DUP2 MSTORE PUSH1 0x20 ADD SWAP1 DUP2 MSTORE PUSH1 0x20 ADD PUSH1 0x0 KECCAK256 PUSH1 0x0 DUP5 PUSH20 0xFFFFFFFFFFFFFFFFFFFFFFFFFFFFFFFFFFFFFFFF AND PUSH20 0xFFFFFFFFFFFFFFFFFFFFFFFFFFFFFFFFFFFFFFFF AND DUP2 MSTORE PUSH1 0x20 ADD SWAP1 DUP2 MSTORE PUSH1 0x20 ADD PUSH1 0x0 KECCAK256 PUSH1 0x0 DUP3 DUP3 SLOAD PUSH2 0x141A SWAP2 SWAP1 PUSH2 0x2D99 JUMP JUMPDEST SWAP3 POP POP DUP2 SWAP1 SSTORE POP PUSH2 0x142C DUP3 DUP3 DUP6 PUSH2 0x1677 JUMP JUMPDEST PUSH2 0x146B JUMPI PUSH1 0x40 MLOAD PUSH32 0x8C379A000000000000000000000000000000000000000000000000000000000 DUP2 MSTORE PUSH1 0x4 ADD PUSH2 0x1462 SWAP1 PUSH2 0x2961 JUMP JUMPDEST PUSH1 0x40 MLOAD DUP1 SWAP2 SUB SWAP1 REVERT JUMPDEST PUSH32 0x7DA12116BE8CB7AF4B2D9E9B4A2CA2C3A3243DDD6FD3A94411902367B8EED568 CALLER DUP4 DUP6 DUP5 PUSH1 0x40 MLOAD PUSH2 0x14A0 SWAP5 SWAP4 SWAP3 SWAP2 SWAP1 PUSH2 0x26F8 JUMP JUMPDEST PUSH1 0x40 MLOAD DUP1 SWAP2 SUB SWAP1 LOG1 PUSH1 0x1 PUSH1 0x0 DUP2 SWAP1 SSTORE POP POP POP POP JUMP JUMPDEST PUSH1 0x0 DUP1 PUSH1 0x40 MLOAD DUP1 PUSH2 0x120 ADD PUSH1 0x40 MSTORE DUP1 DUP5 PUSH1 0x0 ADD PUSH1 0x20 DUP2 ADD SWAP1 PUSH2 0x14D7 SWAP2 SWAP1 PUSH2 0x1D13 JUMP JUMPDEST PUSH20 0xFFFFFFFFFFFFFFFFFFFFFFFFFFFFFFFFFFFFFFFF AND DUP2 MSTORE PUSH1 0x20 ADD DUP5 PUSH1 0x20 ADD PUSH1 0x20 DUP2 ADD SWAP1 PUSH2 0x1505 SWAP2 SWAP1 PUSH2 0x1D13 JUMP JUMPDEST PUSH20 0xFFFFFFFFFFFFFFFFFFFFFFFFFFFFFFFFFFFFFFFF AND DUP2 MSTORE PUSH1 0x20 ADD DUP5 PUSH1 0x60 ADD PUSH1 0x20 DUP2 ADD SWAP1 PUSH2 0x1533 SWAP2 SWAP1 PUSH2 0x1D13 JUMP JUMPDEST PUSH20 0xFFFFFFFFFFFFFFFFFFFFFFFFFFFFFFFFFFFFFFFF AND DUP2 MSTORE PUSH1 0x20 ADD DUP5 PUSH1 0x80 ADD PUSH1 0x20 DUP2 ADD SWAP1 PUSH2 0x1561 SWAP2 SWAP1 PUSH2 0x1D13 JUMP JUMPDEST PUSH20 0xFFFFFFFFFFFFFFFFFFFFFFFFFFFFFFFFFFFFFFFF AND DUP2 MSTORE PUSH1 0x20 ADD DUP5 PUSH1 0xA0 ADD PUSH1 0x20 DUP2 ADD SWAP1 PUSH2 0x158F SWAP2 SWAP1 PUSH2 0x1E7B JUMP JUMPDEST PUSH3 0xFFFFFF AND DUP2 MSTORE PUSH1 0x20 ADD DUP5 PUSH1 0xC0 ADD PUSH1 0x20 DUP2 ADD SWAP1 PUSH2 0x15AC SWAP2 SWAP1 PUSH2 0x1E7B JUMP JUMPDEST PUSH3 0xFFFFFF AND DUP2 MSTORE PUSH1 0x20 ADD DUP5 PUSH1 0xE0 ADD PUSH1 0x20 DUP2 ADD SWAP1 PUSH2 0x15C9 SWAP2 SWAP1 PUSH2 0x1D13 JUMP JUMPDEST PUSH20 0xFFFFFFFFFFFFFFFFFFFFFFFFFFFFFFFFFFFFFFFF AND DUP2 MSTORE PUSH1 0x20 ADD DUP5 DUP1 PUSH2 0x100 ADD SWAP1 PUSH2 0x15F5 SWAP2 SWAP1 PUSH2 0x2BF0 JUMP JUMPDEST DUP1 DUP1 PUSH1 0x1F ADD PUSH1 0x20 DUP1 SWAP2 DIV MUL PUSH1 0x20 ADD PUSH1 0x40 MLOAD SWAP1 DUP2 ADD PUSH1 0x40 MSTORE DUP1 SWAP4 SWAP3 SWAP2 SWAP1 DUP2 DUP2 MSTORE PUSH1 0x20 ADD DUP4 DUP4 DUP1 DUP3 DUP5 CALLDATACOPY PUSH1 0x0 DUP2 DUP5 ADD MSTORE PUSH1 0x1F NOT PUSH1 0x1F DUP3 ADD AND SWAP1 POP DUP1 DUP4 ADD SWAP3 POP POP POP POP POP POP POP DUP2 MSTORE PUSH1 0x20 ADD DUP5 PUSH2 0x120 ADD CALLDATALOAD DUP2 MSTORE POP SWAP1 POP DUP1 PUSH1 0x40 MLOAD PUSH1 0x20 ADD PUSH2 0x1659 SWAP2 SWAP1 PUSH2 0x2B21 JUMP JUMPDEST PUSH1 0x40 MLOAD PUSH1 0x20 DUP2 DUP4 SUB SUB DUP2 MSTORE SWAP1 PUSH1 0x40 MSTORE DUP1 MLOAD SWAP1 PUSH1 0x20 ADD KECCAK256 SWAP2 POP POP SWAP2 SWAP1 POP JUMP JUMPDEST PUSH1 0x0 PUSH2 0x1682 DUP5 PUSH2 0x16AA JUMP JUMPDEST PUSH2 0x1696 JUMPI PUSH2 0x1691 DUP5 DUP5 DUP5 PUSH2 0x1853 JUMP JUMPDEST PUSH2 0x16A1 JUMP JUMPDEST PUSH2 0x16A0 DUP4 DUP4 PUSH2 0x1869 JUMP JUMPDEST JUMPDEST SWAP1 POP SWAP4 SWAP3 POP POP POP JUMP JUMPDEST PUSH1 0x0 DUP1 PUSH20 0xFFFFFFFFFFFFFFFFFFFFFFFFFFFFFFFFFFFFFFFF AND DUP3 PUSH20 0xFFFFFFFFFFFFFFFFFFFFFFFFFFFFFFFFFFFFFFFF AND EQ SWAP1 POP SWAP2 SWAP1 POP JUMP JUMPDEST PUSH1 0x0 PUSH2 0x177F DUP6 DUP6 DUP6 DUP6 PUSH1 0x40 MLOAD PUSH1 0x24 ADD PUSH2 0x16FD SWAP4 SWAP3 SWAP2 SWAP1 PUSH2 0x26C1 JUMP JUMPDEST PUSH1 0x40 MLOAD PUSH1 0x20 DUP2 DUP4 SUB SUB DUP2 MSTORE SWAP1 PUSH1 0x40 MSTORE PUSH32 0x23B872DD00000000000000000000000000000000000000000000000000000000 PUSH28 0xFFFFFFFFFFFFFFFFFFFFFFFFFFFFFFFFFFFFFFFFFFFFFFFFFFFFFFFF NOT AND PUSH1 0x20 DUP3 ADD DUP1 MLOAD PUSH28 0xFFFFFFFFFFFFFFFFFFFFFFFFFFFFFFFFFFFFFFFFFFFFFFFFFFFFFFFF DUP4 DUP2 DUP4 AND OR DUP4 MSTORE POP POP POP POP PUSH2 0x18EF JUMP JUMPDEST SWAP1 POP SWAP5 SWAP4 POP POP POP POP JUMP JUMPDEST PUSH1 0x0 DUP1 PUSH1 0x0 DUP1 PUSH1 0x41 DUP6 MLOAD EQ ISZERO PUSH2 0x17B6 JUMPI PUSH1 0x20 DUP6 ADD MLOAD SWAP3 POP PUSH1 0x40 DUP6 ADD MLOAD SWAP2 POP PUSH1 0x60 DUP6 ADD MLOAD PUSH1 0x0 BYTE SWAP1 POP PUSH2 0x183C JUMP JUMPDEST PUSH1 0x40 DUP6 MLOAD EQ ISZERO PUSH2 0x1800 JUMPI PUSH1 0x40 DUP6 ADD MLOAD PUSH1 0x20 DUP7 ADD MLOAD SWAP4 POP PUSH32 0x7FFFFFFFFFFFFFFFFFFFFFFFFFFFFFFFFFFFFFFFFFFFFFFFFFFFFFFFFFFFFFFF DUP2 AND SWAP3 POP PUSH1 0x1B DUP2 PUSH1 0xFF SHR ADD SWAP2 POP POP PUSH2 0x183B JUMP JUMPDEST PUSH1 0x40 MLOAD PUSH32 0x8C379A000000000000000000000000000000000000000000000000000000000 DUP2 MSTORE PUSH1 0x4 ADD PUSH2 0x1832 SWAP1 PUSH2 0x2861 JUMP JUMPDEST PUSH1 0x40 MLOAD DUP1 SWAP2 SUB SWAP1 REVERT JUMPDEST JUMPDEST PUSH2 0x1848 DUP7 DUP3 DUP6 DUP6 PUSH2 0x19DC JUMP JUMPDEST SWAP4 POP POP POP POP SWAP3 SWAP2 POP POP JUMP JUMPDEST PUSH1 0x0 PUSH2 0x1860 DUP5 DUP5 DUP5 PUSH2 0x1B67 JUMP JUMPDEST SWAP1 POP SWAP4 SWAP3 POP POP POP JUMP JUMPDEST PUSH1 0x0 DUP1 PUSH1 0x0 DUP5 PUSH20 0xFFFFFFFFFFFFFFFFFFFFFFFFFFFFFFFFFFFFFFFF AND DUP5 PUSH1 0x40 MLOAD PUSH2 0x1892 SWAP1 PUSH2 0x26AC JUMP JUMPDEST PUSH1 0x0 PUSH1 0x40 MLOAD DUP1 DUP4 SUB DUP2 DUP6 DUP8 GAS CALL SWAP3 POP POP POP RETURNDATASIZE DUP1 PUSH1 0x0 DUP2 EQ PUSH2 0x18CF JUMPI PUSH1 0x40 MLOAD SWAP2 POP PUSH1 0x1F NOT PUSH1 0x3F RETURNDATASIZE ADD AND DUP3 ADD PUSH1 0x40 MSTORE RETURNDATASIZE DUP3 MSTORE RETURNDATASIZE PUSH1 0x0 PUSH1 0x20 DUP5 ADD RETURNDATACOPY PUSH2 0x18D4 JUMP JUMPDEST PUSH1 0x60 SWAP2 POP JUMPDEST POP SWAP2 POP SWAP2 POP PUSH2 0x18E3 DUP3 DUP3 PUSH2 0x1C0B JUMP JUMPDEST PUSH1 0x1 SWAP3 POP POP POP SWAP3 SWAP2 POP POP JUMP JUMPDEST PUSH1 0x0 PUSH2 0x18FA DUP4 PUSH2 0x1C1C JUMP JUMPDEST PUSH2 0x1939 JUMPI PUSH1 0x40 MLOAD PUSH32 0x8C379A000000000000000000000000000000000000000000000000000000000 DUP2 MSTORE PUSH1 0x4 ADD PUSH2 0x1930 SWAP1 PUSH2 0x29C1 JUMP JUMPDEST PUSH1 0x40 MLOAD DUP1 SWAP2 SUB SWAP1 REVERT JUMPDEST PUSH1 0x0 DUP1 DUP5 PUSH20 0xFFFFFFFFFFFFFFFFFFFFFFFFFFFFFFFFFFFFFFFF AND DUP5 PUSH1 0x40 MLOAD PUSH2 0x1961 SWAP2 SWAP1 PUSH2 0x2695 JUMP JUMPDEST PUSH1 0x0 PUSH1 0x40 MLOAD DUP1 DUP4 SUB DUP2 PUSH1 0x0 DUP7 GAS CALL SWAP2 POP POP RETURNDATASIZE DUP1 PUSH1 0x0 DUP2 EQ PUSH2 0x199E JUMPI PUSH1 0x40 MLOAD SWAP2 POP PUSH1 0x1F NOT PUSH1 0x3F RETURNDATASIZE ADD AND DUP3 ADD PUSH1 0x40 MSTORE RETURNDATASIZE DUP3 MSTORE RETURNDATASIZE PUSH1 0x0 PUSH1 0x20 DUP5 ADD RETURNDATACOPY PUSH2 0x19A3 JUMP JUMPDEST PUSH1 0x60 SWAP2 POP JUMPDEST POP SWAP2 POP SWAP2 POP PUSH2 0x19B2 DUP3 DUP3 PUSH2 0x1C0B JUMP JUMPDEST PUSH1 0x0 DUP2 MLOAD EQ DUP1 PUSH2 0x19D2 JUMPI POP DUP1 DUP1 PUSH1 0x20 ADD SWAP1 MLOAD DUP2 ADD SWAP1 PUSH2 0x19D1 SWAP2 SWAP1 PUSH2 0x1D78 JUMP JUMPDEST JUMPDEST SWAP3 POP POP POP SWAP3 SWAP2 POP POP JUMP JUMPDEST PUSH1 0x0 PUSH32 0x7FFFFFFFFFFFFFFFFFFFFFFFFFFFFFFF5D576E7357A4501DDFE92F46681B20A0 DUP3 PUSH1 0x0 SHR GT ISZERO PUSH2 0x1A44 JUMPI PUSH1 0x40 MLOAD PUSH32 0x8C379A000000000000000000000000000000000000000000000000000000000 DUP2 MSTORE PUSH1 0x4 ADD PUSH2 0x1A3B SWAP1 PUSH2 0x2901 JUMP JUMPDEST PUSH1 0x40 MLOAD DUP1 SWAP2 SUB SWAP1 REVERT JUMPDEST PUSH1 0x1B DUP5 PUSH1 0xFF AND EQ DUP1 PUSH2 0x1A59 JUMPI POP PUSH1 0x1C DUP5 PUSH1 0xFF AND EQ JUMPDEST PUSH2 0x1A98 JUMPI PUSH1 0x40 MLOAD PUSH32 0x8C379A000000000000000000000000000000000000000000000000000000000 DUP2 MSTORE PUSH1 0x4 ADD PUSH2 0x1A8F SWAP1 PUSH2 0x2981 JUMP JUMPDEST PUSH1 0x40 MLOAD DUP1 SWAP2 SUB SWAP1 REVERT JUMPDEST PUSH1 0x0 PUSH1 0x1 DUP7 DUP7 DUP7 DUP7 PUSH1 0x40 MLOAD PUSH1 0x0 DUP2 MSTORE PUSH1 0x20 ADD PUSH1 0x40 MSTORE PUSH1 0x40 MLOAD PUSH2 0x1ABD SWAP5 SWAP4 SWAP3 SWAP2 SWAP1 PUSH2 0x279C JUMP JUMPDEST PUSH1 0x20 PUSH1 0x40 MLOAD PUSH1 0x20 DUP2 SUB SWAP1 DUP1 DUP5 SUB SWAP1 DUP6 GAS STATICCALL ISZERO DUP1 ISZERO PUSH2 0x1ADF JUMPI RETURNDATASIZE PUSH1 0x0 DUP1 RETURNDATACOPY RETURNDATASIZE PUSH1 0x0 REVERT JUMPDEST POP POP POP PUSH1 0x20 PUSH1 0x40 MLOAD SUB MLOAD SWAP1 POP PUSH1 0x0 PUSH20 0xFFFFFFFFFFFFFFFFFFFFFFFFFFFFFFFFFFFFFFFF AND DUP2 PUSH20 0xFFFFFFFFFFFFFFFFFFFFFFFFFFFFFFFFFFFFFFFF AND EQ ISZERO PUSH2 0x1B5B JUMPI PUSH1 0x40 MLOAD PUSH32 0x8C379A000000000000000000000000000000000000000000000000000000000 DUP2 MSTORE PUSH1 0x4 ADD PUSH2 0x1B52 SWAP1 PUSH2 0x27E1 JUMP JUMPDEST PUSH1 0x40 MLOAD DUP1 SWAP2 SUB SWAP1 REVERT JUMPDEST DUP1 SWAP2 POP POP SWAP5 SWAP4 POP POP POP POP JUMP JUMPDEST PUSH1 0x0 PUSH2 0x1C02 DUP5 DUP5 DUP5 PUSH1 0x40 MLOAD PUSH1 0x24 ADD PUSH2 0x1B80 SWAP3 SWAP2 SWAP1 PUSH2 0x273D JUMP JUMPDEST PUSH1 0x40 MLOAD PUSH1 0x20 DUP2 DUP4 SUB SUB DUP2 MSTORE SWAP1 PUSH1 0x40 MSTORE PUSH32 0xA9059CBB00000000000000000000000000000000000000000000000000000000 PUSH28 0xFFFFFFFFFFFFFFFFFFFFFFFFFFFFFFFFFFFFFFFFFFFFFFFFFFFFFFFF NOT AND PUSH1 0x20 DUP3 ADD DUP1 MLOAD PUSH28 0xFFFFFFFFFFFFFFFFFFFFFFFFFFFFFFFFFFFFFFFFFFFFFFFFFFFFFFFF DUP4 DUP2 DUP4 AND OR DUP4 MSTORE POP POP POP POP PUSH2 0x18EF JUMP JUMPDEST SWAP1 POP SWAP4 SWAP3 POP POP POP JUMP JUMPDEST DUP2 PUSH2 0x1C18 JUMPI DUP1 MLOAD PUSH1 0x20 DUP3 ADD REVERT JUMPDEST POP POP JUMP JUMPDEST PUSH1 0x0 DUP1 DUP3 EXTCODESIZE SWAP1 POP PUSH1 0x0 DUP2 GT SWAP2 POP POP SWAP2 SWAP1 POP JUMP JUMPDEST PUSH1 0x0 DUP2 CALLDATALOAD SWAP1 POP PUSH2 0x1C3E DUP2 PUSH2 0x33F0 JUMP JUMPDEST SWAP3 SWAP2 POP POP JUMP JUMPDEST PUSH1 0x0 DUP2 CALLDATALOAD SWAP1 POP PUSH2 0x1C53 DUP2 PUSH2 0x3407 JUMP JUMPDEST SWAP3 SWAP2 POP POP JUMP JUMPDEST PUSH1 0x0 DUP2 MLOAD SWAP1 POP PUSH2 0x1C68 DUP2 PUSH2 0x341E JUMP JUMPDEST SWAP3 SWAP2 POP POP JUMP JUMPDEST PUSH1 0x0 DUP2 CALLDATALOAD SWAP1 POP PUSH2 0x1C7D DUP2 PUSH2 0x3435 JUMP JUMPDEST SWAP3 SWAP2 POP POP JUMP JUMPDEST PUSH1 0x0 DUP1 DUP4 PUSH1 0x1F DUP5 ADD SLT PUSH2 0x1C95 JUMPI PUSH1 0x0 DUP1 REVERT JUMPDEST DUP3 CALLDATALOAD SWAP1 POP PUSH8 0xFFFFFFFFFFFFFFFF DUP2 GT ISZERO PUSH2 0x1CAE JUMPI PUSH1 0x0 DUP1 REVERT JUMPDEST PUSH1 0x20 DUP4 ADD SWAP2 POP DUP4 PUSH1 0x1 DUP3 MUL DUP4 ADD GT ISZERO PUSH2 0x1CC6 JUMPI PUSH1 0x0 DUP1 REVERT JUMPDEST SWAP3 POP SWAP3 SWAP1 POP JUMP JUMPDEST PUSH1 0x0 PUSH2 0x160 DUP3 DUP5 SUB SLT ISZERO PUSH2 0x1CE0 JUMPI PUSH1 0x0 DUP1 REVERT JUMPDEST DUP2 SWAP1 POP SWAP3 SWAP2 POP POP JUMP JUMPDEST PUSH1 0x0 DUP2 CALLDATALOAD SWAP1 POP PUSH2 0x1CF8 DUP2 PUSH2 0x344C JUMP JUMPDEST SWAP3 SWAP2 POP POP JUMP JUMPDEST PUSH1 0x0 DUP2 CALLDATALOAD SWAP1 POP PUSH2 0x1D0D DUP2 PUSH2 0x3463 JUMP JUMPDEST SWAP3 SWAP2 POP POP JUMP JUMPDEST PUSH1 0x0 PUSH1 0x20 DUP3 DUP5 SUB SLT ISZERO PUSH2 0x1D25 JUMPI PUSH1 0x0 DUP1 REVERT JUMPDEST PUSH1 0x0 PUSH2 0x1D33 DUP5 DUP3 DUP6 ADD PUSH2 0x1C2F JUMP JUMPDEST SWAP2 POP POP SWAP3 SWAP2 POP POP JUMP JUMPDEST PUSH1 0x0 DUP1 PUSH1 0x40 DUP4 DUP6 SUB SLT ISZERO PUSH2 0x1D4F JUMPI PUSH1 0x0 DUP1 REVERT JUMPDEST PUSH1 0x0 PUSH2 0x1D5D DUP6 DUP3 DUP7 ADD PUSH2 0x1C2F JUMP JUMPDEST SWAP3 POP POP PUSH1 0x20 PUSH2 0x1D6E DUP6 DUP3 DUP7 ADD PUSH2 0x1C2F JUMP JUMPDEST SWAP2 POP POP SWAP3 POP SWAP3 SWAP1 POP JUMP JUMPDEST PUSH1 0x0 PUSH1 0x20 DUP3 DUP5 SUB SLT ISZERO PUSH2 0x1D8A JUMPI PUSH1 0x0 DUP1 REVERT JUMPDEST PUSH1 0x0 PUSH2 0x1D98 DUP5 DUP3 DUP6 ADD PUSH2 0x1C59 JUMP JUMPDEST SWAP2 POP POP SWAP3 SWAP2 POP POP JUMP JUMPDEST PUSH1 0x0 PUSH1 0x20 DUP3 DUP5 SUB SLT ISZERO PUSH2 0x1DB3 JUMPI PUSH1 0x0 DUP1 REVERT JUMPDEST PUSH1 0x0 PUSH2 0x1DC1 DUP5 DUP3 DUP6 ADD PUSH2 0x1C6E JUMP JUMPDEST SWAP2 POP POP SWAP3 SWAP2 POP POP JUMP JUMPDEST PUSH1 0x0 PUSH1 0x20 DUP3 DUP5 SUB SLT ISZERO PUSH2 0x1DDC JUMPI PUSH1 0x0 DUP1 REVERT JUMPDEST PUSH1 0x0 DUP3 ADD CALLDATALOAD PUSH8 0xFFFFFFFFFFFFFFFF DUP2 GT ISZERO PUSH2 0x1DF6 JUMPI PUSH1 0x0 DUP1 REVERT JUMPDEST PUSH2 0x1E02 DUP5 DUP3 DUP6 ADD PUSH2 0x1CCD JUMP JUMPDEST SWAP2 POP POP SWAP3 SWAP2 POP POP JUMP JUMPDEST PUSH1 0x0 DUP1 PUSH1 0x0 PUSH1 0x40 DUP5 DUP7 SUB SLT ISZERO PUSH2 0x1E20 JUMPI PUSH1 0x0 DUP1 REVERT JUMPDEST PUSH1 0x0 DUP5 ADD CALLDATALOAD PUSH8 0xFFFFFFFFFFFFFFFF DUP2 GT ISZERO PUSH2 0x1E3A JUMPI PUSH1 0x0 DUP1 REVERT JUMPDEST PUSH2 0x1E46 DUP7 DUP3 DUP8 ADD PUSH2 0x1CCD JUMP JUMPDEST SWAP4 POP POP PUSH1 0x20 DUP5 ADD CALLDATALOAD PUSH8 0xFFFFFFFFFFFFFFFF DUP2 GT ISZERO PUSH2 0x1E63 JUMPI PUSH1 0x0 DUP1 REVERT JUMPDEST PUSH2 0x1E6F DUP7 DUP3 DUP8 ADD PUSH2 0x1C83 JUMP JUMPDEST SWAP3 POP SWAP3 POP POP SWAP3 POP SWAP3 POP SWAP3 JUMP JUMPDEST PUSH1 0x0 PUSH1 0x20 DUP3 DUP5 SUB SLT ISZERO PUSH2 0x1E8D JUMPI PUSH1 0x0 DUP1 REVERT JUMPDEST PUSH1 0x0 PUSH2 0x1E9B DUP5 DUP3 DUP6 ADD PUSH2 0x1CE9 JUMP JUMPDEST SWAP2 POP POP SWAP3 SWAP2 POP POP JUMP JUMPDEST PUSH1 0x0 DUP1 PUSH1 0x40 DUP4 DUP6 SUB SLT ISZERO PUSH2 0x1EB7 JUMPI PUSH1 0x0 DUP1 REVERT JUMPDEST PUSH1 0x0 PUSH2 0x1EC5 DUP6 DUP3 DUP7 ADD PUSH2 0x1CFE JUMP JUMPDEST SWAP3 POP POP PUSH1 0x20 PUSH2 0x1ED6 DUP6 DUP3 DUP7 ADD PUSH2 0x1C2F JUMP JUMPDEST SWAP2 POP POP SWAP3 POP SWAP3 SWAP1 POP JUMP JUMPDEST PUSH1 0x0 DUP1 PUSH1 0x0 PUSH1 0x60 DUP5 DUP7 SUB SLT ISZERO PUSH2 0x1EF5 JUMPI PUSH1 0x0 DUP1 REVERT JUMPDEST PUSH1 0x0 PUSH2 0x1F03 DUP7 DUP3 DUP8 ADD PUSH2 0x1CFE JUMP JUMPDEST SWAP4 POP POP PUSH1 0x20 PUSH2 0x1F14 DUP7 DUP3 DUP8 ADD PUSH2 0x1C2F JUMP JUMPDEST SWAP3 POP POP PUSH1 0x40 PUSH2 0x1F25 DUP7 DUP3 DUP8 ADD PUSH2 0x1C44 JUMP JUMPDEST SWAP2 POP POP SWAP3 POP SWAP3 POP SWAP3 JUMP JUMPDEST PUSH2 0x1F38 DUP2 PUSH2 0x2E4D JUMP JUMPDEST DUP3 MSTORE POP POP JUMP JUMPDEST PUSH2 0x1F47 DUP2 PUSH2 0x2DCD JUMP JUMPDEST DUP3 MSTORE POP POP JUMP JUMPDEST PUSH2 0x1F56 DUP2 PUSH2 0x2DCD JUMP JUMPDEST DUP3 MSTORE POP POP JUMP JUMPDEST PUSH2 0x1F65 DUP2 PUSH2 0x2DF1 JUMP JUMPDEST DUP3 MSTORE POP POP JUMP JUMPDEST PUSH2 0x1F74 DUP2 PUSH2 0x2DFD JUMP JUMPDEST DUP3 MSTORE POP POP JUMP JUMPDEST PUSH2 0x1F83 DUP2 PUSH2 0x2DFD JUMP JUMPDEST DUP3 MSTORE POP POP JUMP JUMPDEST PUSH1 0x0 PUSH2 0x1F95 DUP4 DUP6 PUSH2 0x2C52 JUMP JUMPDEST SWAP4 POP PUSH2 0x1FA2 DUP4 DUP6 DUP5 PUSH2 0x2E83 JUMP JUMPDEST PUSH2 0x1FAB DUP4 PUSH2 0x2EF4 JUMP JUMPDEST DUP5 ADD SWAP1 POP SWAP4 SWAP3 POP POP POP JUMP JUMPDEST PUSH1 0x0 PUSH2 0x1FC2 DUP4 DUP6 PUSH2 0x2C63 JUMP JUMPDEST SWAP4 POP PUSH2 0x1FCF DUP4 DUP6 DUP5 PUSH2 0x2E83 JUMP JUMPDEST PUSH2 0x1FD8 DUP4 PUSH2 0x2EF4 JUMP JUMPDEST DUP5 ADD SWAP1 POP SWAP4 SWAP3 POP POP POP JUMP JUMPDEST PUSH1 0x0 PUSH2 0x1FEF DUP4 DUP6 PUSH2 0x2C74 JUMP JUMPDEST SWAP4 POP PUSH2 0x1FFC DUP4 DUP6 DUP5 PUSH2 0x2E83 JUMP JUMPDEST DUP3 DUP5 ADD SWAP1 POP SWAP4 SWAP3 POP POP POP JUMP JUMPDEST PUSH1 0x0 PUSH2 0x2013 DUP3 PUSH2 0x2C47 JUMP JUMPDEST PUSH2 0x201D DUP2 DUP6 PUSH2 0x2C52 JUMP JUMPDEST SWAP4 POP PUSH2 0x202D DUP2 DUP6 PUSH1 0x20 DUP7 ADD PUSH2 0x2E92 JUMP JUMPDEST PUSH2 0x2036 DUP2 PUSH2 0x2EF4 JUMP JUMPDEST DUP5 ADD SWAP2 POP POP SWAP3 SWAP2 POP POP JUMP JUMPDEST PUSH1 0x0 PUSH2 0x204C DUP3 PUSH2 0x2C47 JUMP JUMPDEST PUSH2 0x2056 DUP2 DUP6 PUSH2 0x2C74 JUMP JUMPDEST SWAP4 POP PUSH2 0x2066 DUP2 DUP6 PUSH1 0x20 DUP7 ADD PUSH2 0x2E92 JUMP JUMPDEST DUP1 DUP5 ADD SWAP2 POP POP SWAP3 SWAP2 POP POP JUMP JUMPDEST PUSH1 0x0 PUSH2 0x207F PUSH1 0x18 DUP4 PUSH2 0x2C7F JUMP JUMPDEST SWAP2 POP PUSH2 0x208A DUP3 PUSH2 0x2F05 JUMP JUMPDEST PUSH1 0x20 DUP3 ADD SWAP1 POP SWAP2 SWAP1 POP JUMP JUMPDEST PUSH1 0x0 PUSH2 0x20A2 PUSH1 0x1E DUP4 PUSH2 0x2C7F JUMP JUMPDEST SWAP2 POP PUSH2 0x20AD DUP3 PUSH2 0x2F2E JUMP JUMPDEST PUSH1 0x20 DUP3 ADD SWAP1 POP SWAP2 SWAP1 POP JUMP JUMPDEST PUSH1 0x0 PUSH2 0x20C5 PUSH1 0x18 DUP4 PUSH2 0x2C7F JUMP JUMPDEST SWAP2 POP PUSH2 0x20D0 DUP3 PUSH2 0x2F57 JUMP JUMPDEST PUSH1 0x20 DUP3 ADD SWAP1 POP SWAP2 SWAP1 POP JUMP JUMPDEST PUSH1 0x0 PUSH2 0x20E8 PUSH1 0x18 DUP4 PUSH2 0x2C7F JUMP JUMPDEST SWAP2 POP PUSH2 0x20F3 DUP3 PUSH2 0x2F80 JUMP JUMPDEST PUSH1 0x20 DUP3 ADD SWAP1 POP SWAP2 SWAP1 POP JUMP JUMPDEST PUSH1 0x0 PUSH2 0x210B PUSH1 0x1F DUP4 PUSH2 0x2C7F JUMP JUMPDEST SWAP2 POP PUSH2 0x2116 DUP3 PUSH2 0x2FA9 JUMP JUMPDEST PUSH1 0x20 DUP3 ADD SWAP1 POP SWAP2 SWAP1 POP JUMP JUMPDEST PUSH1 0x0 PUSH2 0x212E PUSH1 0x23 DUP4 PUSH2 0x2C7F JUMP JUMPDEST SWAP2 POP PUSH2 0x2139 DUP3 PUSH2 0x2FD2 JUMP JUMPDEST PUSH1 0x40 DUP3 ADD SWAP1 POP SWAP2 SWAP1 POP JUMP JUMPDEST PUSH1 0x0 PUSH2 0x2151 PUSH1 0x19 DUP4 PUSH2 0x2C7F JUMP JUMPDEST SWAP2 POP PUSH2 0x215C DUP3 PUSH2 0x3021 JUMP JUMPDEST PUSH1 0x20 DUP3 ADD SWAP1 POP SWAP2 SWAP1 POP JUMP JUMPDEST PUSH1 0x0 PUSH2 0x2174 PUSH1 0x17 DUP4 PUSH2 0x2C7F JUMP JUMPDEST SWAP2 POP PUSH2 0x217F DUP3 PUSH2 0x304A JUMP JUMPDEST PUSH1 0x20 DUP3 ADD SWAP1 POP SWAP2 SWAP1 POP JUMP JUMPDEST PUSH1 0x0 PUSH2 0x2197 PUSH1 0x17 DUP4 PUSH2 0x2C7F JUMP JUMPDEST SWAP2 POP PUSH2 0x21A2 DUP3 PUSH2 0x3073 JUMP JUMPDEST PUSH1 0x20 DUP3 ADD SWAP1 POP SWAP2 SWAP1 POP JUMP JUMPDEST PUSH1 0x0 PUSH2 0x21BA PUSH1 0x22 DUP4 PUSH2 0x2C7F JUMP JUMPDEST SWAP2 POP PUSH2 0x21C5 DUP3 PUSH2 0x309C JUMP JUMPDEST PUSH1 0x40 DUP3 ADD SWAP1 POP SWAP2 SWAP1 POP JUMP JUMPDEST PUSH1 0x0 PUSH2 0x21DD PUSH1 0x20 DUP4 PUSH2 0x2C7F JUMP JUMPDEST SWAP2 POP PUSH2 0x21E8 DUP3 PUSH2 0x30EB JUMP JUMPDEST PUSH1 0x20 DUP3 ADD SWAP1 POP SWAP2 SWAP1 POP JUMP JUMPDEST PUSH1 0x0 PUSH2 0x2200 PUSH1 0x17 DUP4 PUSH2 0x2C7F JUMP JUMPDEST SWAP2 POP PUSH2 0x220B DUP3 PUSH2 0x3114 JUMP JUMPDEST PUSH1 0x20 DUP3 ADD SWAP1 POP SWAP2 SWAP1 POP JUMP JUMPDEST PUSH1 0x0 PUSH2 0x2223 PUSH1 0x20 DUP4 PUSH2 0x2C7F JUMP JUMPDEST SWAP2 POP PUSH2 0x222E DUP3 PUSH2 0x313D JUMP JUMPDEST PUSH1 0x20 DUP3 ADD SWAP1 POP SWAP2 SWAP1 POP JUMP JUMPDEST PUSH1 0x0 PUSH2 0x2246 PUSH1 0x22 DUP4 PUSH2 0x2C7F JUMP JUMPDEST SWAP2 POP PUSH2 0x2251 DUP3 PUSH2 0x3166 JUMP JUMPDEST PUSH1 0x40 DUP3 ADD SWAP1 POP SWAP2 SWAP1 POP JUMP JUMPDEST PUSH1 0x0 PUSH2 0x2269 PUSH1 0x16 DUP4 PUSH2 0x2C7F JUMP JUMPDEST SWAP2 POP PUSH2 0x2274 DUP3 PUSH2 0x31B5 JUMP JUMPDEST PUSH1 0x20 DUP3 ADD SWAP1 POP SWAP2 SWAP1 POP JUMP JUMPDEST PUSH1 0x0 PUSH2 0x228C PUSH1 0x11 DUP4 PUSH2 0x2C7F JUMP JUMPDEST SWAP2 POP PUSH2 0x2297 DUP3 PUSH2 0x31DE JUMP JUMPDEST PUSH1 0x20 DUP3 ADD SWAP1 POP SWAP2 SWAP1 POP JUMP JUMPDEST PUSH1 0x0 PUSH2 0x22AF PUSH1 0x18 DUP4 PUSH2 0x2C7F JUMP JUMPDEST SWAP2 POP PUSH2 0x22BA DUP3 PUSH2 0x3207 JUMP JUMPDEST PUSH1 0x20 DUP3 ADD SWAP1 POP SWAP2 SWAP1 POP JUMP JUMPDEST PUSH1 0x0 PUSH2 0x22D2 PUSH1 0x1E DUP4 PUSH2 0x2C7F JUMP JUMPDEST SWAP2 POP PUSH2 0x22DD DUP3 PUSH2 0x3230 JUMP JUMPDEST PUSH1 0x20 DUP3 ADD SWAP1 POP SWAP2 SWAP1 POP JUMP JUMPDEST PUSH1 0x0 PUSH2 0x22F5 PUSH1 0x23 DUP4 PUSH2 0x2C7F JUMP JUMPDEST SWAP2 POP PUSH2 0x2300 DUP3 PUSH2 0x3259 JUMP JUMPDEST PUSH1 0x40 DUP3 ADD SWAP1 POP SWAP2 SWAP1 POP JUMP JUMPDEST PUSH1 0x0 PUSH2 0x2318 PUSH1 0x23 DUP4 PUSH2 0x2C7F JUMP JUMPDEST SWAP2 POP PUSH2 0x2323 DUP3 PUSH2 0x32A8 JUMP JUMPDEST PUSH1 0x40 DUP3 ADD SWAP1 POP SWAP2 SWAP1 POP JUMP JUMPDEST PUSH1 0x0 PUSH2 0x233B PUSH1 0x1E DUP4 PUSH2 0x2C7F JUMP JUMPDEST SWAP2 POP PUSH2 0x2346 DUP3 PUSH2 0x32F7 JUMP JUMPDEST PUSH1 0x20 DUP3 ADD SWAP1 POP SWAP2 SWAP1 POP JUMP JUMPDEST PUSH1 0x0 PUSH2 0x235E PUSH1 0x0 DUP4 PUSH2 0x2C74 JUMP JUMPDEST SWAP2 POP PUSH2 0x2369 DUP3 PUSH2 0x3320 JUMP JUMPDEST PUSH1 0x0 DUP3 ADD SWAP1 POP SWAP2 SWAP1 POP JUMP JUMPDEST PUSH1 0x0 PUSH2 0x2381 PUSH1 0x1F DUP4 PUSH2 0x2C7F JUMP JUMPDEST SWAP2 POP PUSH2 0x238C DUP3 PUSH2 0x3323 JUMP JUMPDEST PUSH1 0x20 DUP3 ADD SWAP1 POP SWAP2 SWAP1 POP JUMP JUMPDEST PUSH1 0x0 PUSH2 0x23A4 PUSH1 0x1A DUP4 PUSH2 0x2C7F JUMP JUMPDEST SWAP2 POP PUSH2 0x23AF DUP3 PUSH2 0x334C JUMP JUMPDEST PUSH1 0x20 DUP3 ADD SWAP1 POP SWAP2 SWAP1 POP JUMP JUMPDEST PUSH1 0x0 PUSH2 0x23C7 PUSH1 0x1C DUP4 PUSH2 0x2C7F JUMP JUMPDEST SWAP2 POP PUSH2 0x23D2 DUP3 PUSH2 0x3375 JUMP JUMPDEST PUSH1 0x20 DUP3 ADD SWAP1 POP SWAP2 SWAP1 POP JUMP JUMPDEST PUSH1 0x0 PUSH2 0x23EA PUSH1 0x1F DUP4 PUSH2 0x2C7F JUMP JUMPDEST SWAP2 POP PUSH2 0x23F5 DUP3 PUSH2 0x339E JUMP JUMPDEST PUSH1 0x20 DUP3 ADD SWAP1 POP SWAP2 SWAP1 POP JUMP JUMPDEST PUSH1 0x0 PUSH2 0x240D PUSH1 0x18 DUP4 PUSH2 0x2C7F JUMP JUMPDEST SWAP2 POP PUSH2 0x2418 DUP3 PUSH2 0x33C7 JUMP JUMPDEST PUSH1 0x20 DUP3 ADD SWAP1 POP SWAP2 SWAP1 POP JUMP JUMPDEST PUSH1 0x0 PUSH2 0x120 DUP4 ADD PUSH1 0x0 DUP4 ADD MLOAD PUSH2 0x243C PUSH1 0x0 DUP7 ADD DUP3 PUSH2 0x1F3E JUMP JUMPDEST POP PUSH1 0x20 DUP4 ADD MLOAD PUSH2 0x244F PUSH1 0x20 DUP7 ADD DUP3 PUSH2 0x1F3E JUMP JUMPDEST POP PUSH1 0x40 DUP4 ADD MLOAD PUSH2 0x2462 PUSH1 0x40 DUP7 ADD DUP3 PUSH2 0x1F3E JUMP JUMPDEST POP PUSH1 0x60 DUP4 ADD MLOAD PUSH2 0x2475 PUSH1 0x60 DUP7 ADD DUP3 PUSH2 0x1F3E JUMP JUMPDEST POP PUSH1 0x80 DUP4 ADD MLOAD PUSH2 0x2488 PUSH1 0x80 DUP7 ADD DUP3 PUSH2 0x2631 JUMP JUMPDEST POP PUSH1 0xA0 DUP4 ADD MLOAD PUSH2 0x249B PUSH1 0xA0 DUP7 ADD DUP3 PUSH2 0x2631 JUMP JUMPDEST POP PUSH1 0xC0 DUP4 ADD MLOAD PUSH2 0x24AE PUSH1 0xC0 DUP7 ADD DUP3 PUSH2 0x1F3E JUMP JUMPDEST POP PUSH1 0xE0 DUP4 ADD MLOAD DUP5 DUP3 SUB PUSH1 0xE0 DUP7 ADD MSTORE PUSH2 0x24C6 DUP3 DUP3 PUSH2 0x2008 JUMP JUMPDEST SWAP2 POP POP PUSH2 0x100 DUP4 ADD MLOAD PUSH2 0x24DD PUSH2 0x100 DUP7 ADD DUP3 PUSH2 0x1F6B JUMP JUMPDEST POP DUP1 SWAP2 POP POP SWAP3 SWAP2 POP POP JUMP JUMPDEST PUSH1 0x0 PUSH2 0x160 DUP4 ADD PUSH2 0x24FC PUSH1 0x0 DUP5 ADD DUP5 PUSH2 0x2C90 JUMP JUMPDEST PUSH2 0x2509 PUSH1 0x0 DUP7 ADD DUP3 PUSH2 0x1F3E JUMP JUMPDEST POP PUSH2 0x2517 PUSH1 0x20 DUP5 ADD DUP5 PUSH2 0x2C90 JUMP JUMPDEST PUSH2 0x2524 PUSH1 0x20 DUP7 ADD DUP3 PUSH2 0x1F3E JUMP JUMPDEST POP PUSH2 0x2532 PUSH1 0x40 DUP5 ADD DUP5 PUSH2 0x2D2C JUMP JUMPDEST PUSH2 0x253F PUSH1 0x40 DUP7 ADD DUP3 PUSH2 0x264F JUMP JUMPDEST POP PUSH2 0x254D PUSH1 0x60 DUP5 ADD DUP5 PUSH2 0x2C90 JUMP JUMPDEST PUSH2 0x255A PUSH1 0x60 DUP7 ADD DUP3 PUSH2 0x1F3E JUMP JUMPDEST POP PUSH2 0x2568 PUSH1 0x80 DUP5 ADD DUP5 PUSH2 0x2C90 JUMP JUMPDEST PUSH2 0x2575 PUSH1 0x80 DUP7 ADD DUP3 PUSH2 0x1F3E JUMP JUMPDEST POP PUSH2 0x2583 PUSH1 0xA0 DUP5 ADD DUP5 PUSH2 0x2D15 JUMP JUMPDEST PUSH2 0x2590 PUSH1 0xA0 DUP7 ADD DUP3 PUSH2 0x2631 JUMP JUMPDEST POP PUSH2 0x259E PUSH1 0xC0 DUP5 ADD DUP5 PUSH2 0x2D15 JUMP JUMPDEST PUSH2 0x25AB PUSH1 0xC0 DUP7 ADD DUP3 PUSH2 0x2631 JUMP JUMPDEST POP PUSH2 0x25B9 PUSH1 0xE0 DUP5 ADD DUP5 PUSH2 0x2C90 JUMP JUMPDEST PUSH2 0x25C6 PUSH1 0xE0 DUP7 ADD DUP3 PUSH2 0x1F3E JUMP JUMPDEST POP PUSH2 0x25D5 PUSH2 0x100 DUP5 ADD DUP5 PUSH2 0x2CBE JUMP JUMPDEST DUP6 DUP4 SUB PUSH2 0x100 DUP8 ADD MSTORE PUSH2 0x25E9 DUP4 DUP3 DUP5 PUSH2 0x1F89 JUMP JUMPDEST SWAP3 POP POP POP PUSH2 0x25FB PUSH2 0x120 DUP5 ADD DUP5 PUSH2 0x2CA7 JUMP JUMPDEST PUSH2 0x2609 PUSH2 0x120 DUP7 ADD DUP3 PUSH2 0x1F6B JUMP JUMPDEST POP PUSH2 0x2618 PUSH2 0x140 DUP5 ADD DUP5 PUSH2 0x2D2C JUMP JUMPDEST PUSH2 0x2626 PUSH2 0x140 DUP7 ADD DUP3 PUSH2 0x264F JUMP JUMPDEST POP DUP1 SWAP2 POP POP SWAP3 SWAP2 POP POP JUMP JUMPDEST PUSH2 0x263A DUP2 PUSH2 0x2E27 JUMP JUMPDEST DUP3 MSTORE POP POP JUMP JUMPDEST PUSH2 0x2649 DUP2 PUSH2 0x2E27 JUMP JUMPDEST DUP3 MSTORE POP POP JUMP JUMPDEST PUSH2 0x2658 DUP2 PUSH2 0x2E36 JUMP JUMPDEST DUP3 MSTORE POP POP JUMP JUMPDEST PUSH2 0x2667 DUP2 PUSH2 0x2E36 JUMP JUMPDEST DUP3 MSTORE POP POP JUMP JUMPDEST PUSH2 0x2676 DUP2 PUSH2 0x2E40 JUMP JUMPDEST DUP3 MSTORE POP POP JUMP JUMPDEST PUSH1 0x0 PUSH2 0x2689 DUP3 DUP5 DUP7 PUSH2 0x1FE3 JUMP JUMPDEST SWAP2 POP DUP2 SWAP1 POP SWAP4 SWAP3 POP POP POP JUMP JUMPDEST PUSH1 0x0 PUSH2 0x26A1 DUP3 DUP5 PUSH2 0x2041 JUMP JUMPDEST SWAP2 POP DUP2 SWAP1 POP SWAP3 SWAP2 POP POP JUMP JUMPDEST PUSH1 0x0 PUSH2 0x26B7 DUP3 PUSH2 0x2351 JUMP JUMPDEST SWAP2 POP DUP2 SWAP1 POP SWAP2 SWAP1 POP JUMP JUMPDEST PUSH1 0x0 PUSH1 0x60 DUP3 ADD SWAP1 POP PUSH2 0x26D6 PUSH1 0x0 DUP4 ADD DUP7 PUSH2 0x1F4D JUMP JUMPDEST PUSH2 0x26E3 PUSH1 0x20 DUP4 ADD DUP6 PUSH2 0x1F4D JUMP JUMPDEST PUSH2 0x26F0 PUSH1 0x40 DUP4 ADD DUP5 PUSH2 0x265E JUMP JUMPDEST SWAP5 SWAP4 POP POP POP POP JUMP JUMPDEST PUSH1 0x0 PUSH1 0x80 DUP3 ADD SWAP1 POP PUSH2 0x270D PUSH1 0x0 DUP4 ADD DUP8 PUSH2 0x1F4D JUMP JUMPDEST PUSH2 0x271A PUSH1 0x20 DUP4 ADD DUP7 PUSH2 0x1F4D JUMP JUMPDEST PUSH2 0x2727 PUSH1 0x40 DUP4 ADD DUP6 PUSH2 0x265E JUMP JUMPDEST PUSH2 0x2734 PUSH1 0x60 DUP4 ADD DUP5 PUSH2 0x1F2F JUMP JUMPDEST SWAP6 SWAP5 POP POP POP POP POP JUMP JUMPDEST PUSH1 0x0 PUSH1 0x40 DUP3 ADD SWAP1 POP PUSH2 0x2752 PUSH1 0x0 DUP4 ADD DUP6 PUSH2 0x1F4D JUMP JUMPDEST PUSH2 0x275F PUSH1 0x20 DUP4 ADD DUP5 PUSH2 0x265E JUMP JUMPDEST SWAP4 SWAP3 POP POP POP JUMP JUMPDEST PUSH1 0x0 PUSH1 0x20 DUP3 ADD SWAP1 POP PUSH2 0x277B PUSH1 0x0 DUP4 ADD DUP5 PUSH2 0x1F5C JUMP JUMPDEST SWAP3 SWAP2 POP POP JUMP JUMPDEST PUSH1 0x0 PUSH1 0x20 DUP3 ADD SWAP1 POP PUSH2 0x2796 PUSH1 0x0 DUP4 ADD DUP5 PUSH2 0x1F7A JUMP JUMPDEST SWAP3 SWAP2 POP POP JUMP JUMPDEST PUSH1 0x0 PUSH1 0x80 DUP3 ADD SWAP1 POP PUSH2 0x27B1 PUSH1 0x0 DUP4 ADD DUP8 PUSH2 0x1F7A JUMP JUMPDEST PUSH2 0x27BE PUSH1 0x20 DUP4 ADD DUP7 PUSH2 0x266D JUMP JUMPDEST PUSH2 0x27CB PUSH1 0x40 DUP4 ADD DUP6 PUSH2 0x1F7A JUMP JUMPDEST PUSH2 0x27D8 PUSH1 0x60 DUP4 ADD DUP5 PUSH2 0x1F7A JUMP JUMPDEST SWAP6 SWAP5 POP POP POP POP POP JUMP JUMPDEST PUSH1 0x0 PUSH1 0x20 DUP3 ADD SWAP1 POP DUP2 DUP2 SUB PUSH1 0x0 DUP4 ADD MSTORE PUSH2 0x27FA DUP2 PUSH2 0x2072 JUMP JUMPDEST SWAP1 POP SWAP2 SWAP1 POP JUMP JUMPDEST PUSH1 0x0 PUSH1 0x20 DUP3 ADD SWAP1 POP DUP2 DUP2 SUB PUSH1 0x0 DUP4 ADD MSTORE PUSH2 0x281A DUP2 PUSH2 0x2095 JUMP JUMPDEST SWAP1 POP SWAP2 SWAP1 POP JUMP JUMPDEST PUSH1 0x0 PUSH1 0x20 DUP3 ADD SWAP1 POP DUP2 DUP2 SUB PUSH1 0x0 DUP4 ADD MSTORE PUSH2 0x283A DUP2 PUSH2 0x20B8 JUMP JUMPDEST SWAP1 POP SWAP2 SWAP1 POP JUMP JUMPDEST PUSH1 0x0 PUSH1 0x20 DUP3 ADD SWAP1 POP DUP2 DUP2 SUB PUSH1 0x0 DUP4 ADD MSTORE PUSH2 0x285A DUP2 PUSH2 0x20DB JUMP JUMPDEST SWAP1 POP SWAP2 SWAP1 POP JUMP JUMPDEST PUSH1 0x0 PUSH1 0x20 DUP3 ADD SWAP1 POP DUP2 DUP2 SUB PUSH1 0x0 DUP4 ADD MSTORE PUSH2 0x287A DUP2 PUSH2 0x20FE JUMP JUMPDEST SWAP1 POP SWAP2 SWAP1 POP JUMP JUMPDEST PUSH1 0x0 PUSH1 0x20 DUP3 ADD SWAP1 POP DUP2 DUP2 SUB PUSH1 0x0 DUP4 ADD MSTORE PUSH2 0x289A DUP2 PUSH2 0x2121 JUMP JUMPDEST SWAP1 POP SWAP2 SWAP1 POP JUMP JUMPDEST PUSH1 0x0 PUSH1 0x20 DUP3 ADD SWAP1 POP DUP2 DUP2 SUB PUSH1 0x0 DUP4 ADD MSTORE PUSH2 0x28BA DUP2 PUSH2 0x2144 JUMP JUMPDEST SWAP1 POP SWAP2 SWAP1 POP JUMP JUMPDEST PUSH1 0x0 PUSH1 0x20 DUP3 ADD SWAP1 POP DUP2 DUP2 SUB PUSH1 0x0 DUP4 ADD MSTORE PUSH2 0x28DA DUP2 PUSH2 0x2167 JUMP JUMPDEST SWAP1 POP SWAP2 SWAP1 POP JUMP JUMPDEST PUSH1 0x0 PUSH1 0x20 DUP3 ADD SWAP1 POP DUP2 DUP2 SUB PUSH1 0x0 DUP4 ADD MSTORE PUSH2 0x28FA DUP2 PUSH2 0x218A JUMP JUMPDEST SWAP1 POP SWAP2 SWAP1 POP JUMP JUMPDEST PUSH1 0x0 PUSH1 0x20 DUP3 ADD SWAP1 POP DUP2 DUP2 SUB PUSH1 0x0 DUP4 ADD MSTORE PUSH2 0x291A DUP2 PUSH2 0x21AD JUMP JUMPDEST SWAP1 POP SWAP2 SWAP1 POP JUMP JUMPDEST PUSH1 0x0 PUSH1 0x20 DUP3 ADD SWAP1 POP DUP2 DUP2 SUB PUSH1 0x0 DUP4 ADD MSTORE PUSH2 0x293A DUP2 PUSH2 0x21D0 JUMP JUMPDEST SWAP1 POP SWAP2 SWAP1 POP JUMP JUMPDEST PUSH1 0x0 PUSH1 0x20 DUP3 ADD SWAP1 POP DUP2 DUP2 SUB PUSH1 0x0 DUP4 ADD MSTORE PUSH2 0x295A DUP2 PUSH2 0x21F3 JUMP JUMPDEST SWAP1 POP SWAP2 SWAP1 POP JUMP JUMPDEST PUSH1 0x0 PUSH1 0x20 DUP3 ADD SWAP1 POP DUP2 DUP2 SUB PUSH1 0x0 DUP4 ADD MSTORE PUSH2 0x297A DUP2 PUSH2 0x2216 JUMP JUMPDEST SWAP1 POP SWAP2 SWAP1 POP JUMP JUMPDEST PUSH1 0x0 PUSH1 0x20 DUP3 ADD SWAP1 POP DUP2 DUP2 SUB PUSH1 0x0 DUP4 ADD MSTORE PUSH2 0x299A DUP2 PUSH2 0x2239 JUMP JUMPDEST SWAP1 POP SWAP2 SWAP1 POP JUMP JUMPDEST PUSH1 0x0 PUSH1 0x20 DUP3 ADD SWAP1 POP DUP2 DUP2 SUB PUSH1 0x0 DUP4 ADD MSTORE PUSH2 0x29BA DUP2 PUSH2 0x225C JUMP JUMPDEST SWAP1 POP SWAP2 SWAP1 POP JUMP JUMPDEST PUSH1 0x0 PUSH1 0x20 DUP3 ADD SWAP1 POP DUP2 DUP2 SUB PUSH1 0x0 DUP4 ADD MSTORE PUSH2 0x29DA DUP2 PUSH2 0x227F JUMP JUMPDEST SWAP1 POP SWAP2 SWAP1 POP JUMP JUMPDEST PUSH1 0x0 PUSH1 0x20 DUP3 ADD SWAP1 POP DUP2 DUP2 SUB PUSH1 0x0 DUP4 ADD MSTORE PUSH2 0x29FA DUP2 PUSH2 0x22A2 JUMP JUMPDEST SWAP1 POP SWAP2 SWAP1 POP JUMP JUMPDEST PUSH1 0x0 PUSH1 0x20 DUP3 ADD SWAP1 POP DUP2 DUP2 SUB PUSH1 0x0 DUP4 ADD MSTORE PUSH2 0x2A1A DUP2 PUSH2 0x22C5 JUMP JUMPDEST SWAP1 POP SWAP2 SWAP1 POP JUMP JUMPDEST PUSH1 0x0 PUSH1 0x20 DUP3 ADD SWAP1 POP DUP2 DUP2 SUB PUSH1 0x0 DUP4 ADD MSTORE PUSH2 0x2A3A DUP2 PUSH2 0x22E8 JUMP JUMPDEST SWAP1 POP SWAP2 SWAP1 POP JUMP JUMPDEST PUSH1 0x0 PUSH1 0x20 DUP3 ADD SWAP1 POP DUP2 DUP2 SUB PUSH1 0x0 DUP4 ADD MSTORE PUSH2 0x2A5A DUP2 PUSH2 0x230B JUMP JUMPDEST SWAP1 POP SWAP2 SWAP1 POP JUMP JUMPDEST PUSH1 0x0 PUSH1 0x20 DUP3 ADD SWAP1 POP DUP2 DUP2 SUB PUSH1 0x0 DUP4 ADD MSTORE PUSH2 0x2A7A DUP2 PUSH2 0x232E JUMP JUMPDEST SWAP1 POP SWAP2 SWAP1 POP JUMP JUMPDEST PUSH1 0x0 PUSH1 0x20 DUP3 ADD SWAP1 POP DUP2 DUP2 SUB PUSH1 0x0 DUP4 ADD MSTORE PUSH2 0x2A9A DUP2 PUSH2 0x2374 JUMP JUMPDEST SWAP1 POP SWAP2 SWAP1 POP JUMP JUMPDEST PUSH1 0x0 PUSH1 0x20 DUP3 ADD SWAP1 POP DUP2 DUP2 SUB PUSH1 0x0 DUP4 ADD MSTORE PUSH2 0x2ABA DUP2 PUSH2 0x2397 JUMP JUMPDEST SWAP1 POP SWAP2 SWAP1 POP JUMP JUMPDEST PUSH1 0x0 PUSH1 0x20 DUP3 ADD SWAP1 POP DUP2 DUP2 SUB PUSH1 0x0 DUP4 ADD MSTORE PUSH2 0x2ADA DUP2 PUSH2 0x23BA JUMP JUMPDEST SWAP1 POP SWAP2 SWAP1 POP JUMP JUMPDEST PUSH1 0x0 PUSH1 0x20 DUP3 ADD SWAP1 POP DUP2 DUP2 SUB PUSH1 0x0 DUP4 ADD MSTORE PUSH2 0x2AFA DUP2 PUSH2 0x23DD JUMP JUMPDEST SWAP1 POP SWAP2 SWAP1 POP JUMP JUMPDEST PUSH1 0x0 PUSH1 0x20 DUP3 ADD SWAP1 POP DUP2 DUP2 SUB PUSH1 0x0 DUP4 ADD MSTORE PUSH2 0x2B1A DUP2 PUSH2 0x2400 JUMP JUMPDEST SWAP1 POP SWAP2 SWAP1 POP JUMP JUMPDEST PUSH1 0x0 PUSH1 0x20 DUP3 ADD SWAP1 POP DUP2 DUP2 SUB PUSH1 0x0 DUP4 ADD MSTORE PUSH2 0x2B3B DUP2 DUP5 PUSH2 0x2423 JUMP JUMPDEST SWAP1 POP SWAP3 SWAP2 POP POP JUMP JUMPDEST PUSH1 0x0 PUSH1 0x40 DUP3 ADD SWAP1 POP DUP2 DUP2 SUB PUSH1 0x0 DUP4 ADD MSTORE PUSH2 0x2B5D DUP2 DUP6 PUSH2 0x24E8 JUMP JUMPDEST SWAP1 POP PUSH2 0x2B6C PUSH1 0x20 DUP4 ADD DUP5 PUSH2 0x1F4D JUMP JUMPDEST SWAP4 SWAP3 POP POP POP JUMP JUMPDEST PUSH1 0x0 PUSH1 0x60 DUP3 ADD SWAP1 POP DUP2 DUP2 SUB PUSH1 0x0 DUP4 ADD MSTORE PUSH2 0x2B8D DUP2 DUP8 PUSH2 0x24E8 JUMP JUMPDEST SWAP1 POP DUP2 DUP2 SUB PUSH1 0x20 DUP4 ADD MSTORE PUSH2 0x2BA2 DUP2 DUP6 DUP8 PUSH2 0x1FB6 JUMP JUMPDEST SWAP1 POP PUSH2 0x2BB1 PUSH1 0x40 DUP4 ADD DUP5 PUSH2 0x1F4D JUMP JUMPDEST SWAP6 SWAP5 POP POP POP POP POP JUMP JUMPDEST PUSH1 0x0 PUSH1 0x20 DUP3 ADD SWAP1 POP PUSH2 0x2BCF PUSH1 0x0 DUP4 ADD DUP5 PUSH2 0x2640 JUMP JUMPDEST SWAP3 SWAP2 POP POP JUMP JUMPDEST PUSH1 0x0 PUSH1 0x20 DUP3 ADD SWAP1 POP PUSH2 0x2BEA PUSH1 0x0 DUP4 ADD DUP5 PUSH2 0x265E JUMP JUMPDEST SWAP3 SWAP2 POP POP JUMP JUMPDEST PUSH1 0x0 DUP1 DUP4 CALLDATALOAD PUSH1 0x1 PUSH1 0x20 SUB DUP5 CALLDATASIZE SUB SUB DUP2 SLT PUSH2 0x2C09 JUMPI PUSH1 0x0 DUP1 REVERT JUMPDEST DUP1 DUP5 ADD SWAP3 POP DUP3 CALLDATALOAD SWAP2 POP PUSH8 0xFFFFFFFFFFFFFFFF DUP3 GT ISZERO PUSH2 0x2C27 JUMPI PUSH1 0x0 DUP1 REVERT JUMPDEST PUSH1 0x20 DUP4 ADD SWAP3 POP PUSH1 0x1 DUP3 MUL CALLDATASIZE SUB DUP4 SGT ISZERO PUSH2 0x2C3F JUMPI PUSH1 0x0 DUP1 REVERT JUMPDEST POP SWAP3 POP SWAP3 SWAP1 POP JUMP JUMPDEST PUSH1 0x0 DUP2 MLOAD SWAP1 POP SWAP2 SWAP1 POP JUMP JUMPDEST PUSH1 0x0 DUP3 DUP3 MSTORE PUSH1 0x20 DUP3 ADD SWAP1 POP SWAP3 SWAP2 POP POP JUMP JUMPDEST PUSH1 0x0 DUP3 DUP3 MSTORE PUSH1 0x20 DUP3 ADD SWAP1 POP SWAP3 SWAP2 POP POP JUMP JUMPDEST PUSH1 0x0 DUP2 SWAP1 POP SWAP3 SWAP2 POP POP JUMP JUMPDEST PUSH1 0x0 DUP3 DUP3 MSTORE PUSH1 0x20 DUP3 ADD SWAP1 POP SWAP3 SWAP2 POP POP JUMP JUMPDEST PUSH1 0x0 PUSH2 0x2C9F PUSH1 0x20 DUP5 ADD DUP5 PUSH2 0x1C2F JUMP JUMPDEST SWAP1 POP SWAP3 SWAP2 POP POP JUMP JUMPDEST PUSH1 0x0 PUSH2 0x2CB6 PUSH1 0x20 DUP5 ADD DUP5 PUSH2 0x1C6E JUMP JUMPDEST SWAP1 POP SWAP3 SWAP2 POP POP JUMP JUMPDEST PUSH1 0x0 DUP1 DUP4 CALLDATALOAD PUSH1 0x1 PUSH1 0x20 SUB DUP5 CALLDATASIZE SUB SUB DUP2 SLT PUSH2 0x2CD7 JUMPI PUSH1 0x0 DUP1 REVERT JUMPDEST DUP4 DUP2 ADD SWAP3 POP DUP3 CALLDATALOAD SWAP2 POP PUSH1 0x20 DUP4 ADD SWAP3 POP PUSH8 0xFFFFFFFFFFFFFFFF DUP3 GT ISZERO PUSH2 0x2CFB JUMPI PUSH1 0x0 DUP1 REVERT JUMPDEST PUSH1 0x1 DUP3 MUL CALLDATASIZE SUB DUP5 SGT ISZERO PUSH2 0x2D0D JUMPI PUSH1 0x0 DUP1 REVERT JUMPDEST POP SWAP3 POP SWAP3 SWAP1 POP JUMP JUMPDEST PUSH1 0x0 PUSH2 0x2D24 PUSH1 0x20 DUP5 ADD DUP5 PUSH2 0x1CE9 JUMP JUMPDEST SWAP1 POP SWAP3 SWAP2 POP POP JUMP JUMPDEST PUSH1 0x0 PUSH2 0x2D3B PUSH1 0x20 DUP5 ADD DUP5 PUSH2 0x1CFE JUMP JUMPDEST SWAP1 POP SWAP3 SWAP2 POP POP JUMP JUMPDEST PUSH1 0x0 PUSH2 0x2D4E DUP3 PUSH2 0x2E36 JUMP JUMPDEST SWAP2 POP PUSH2 0x2D59 DUP4 PUSH2 0x2E36 JUMP JUMPDEST SWAP3 POP DUP3 PUSH32 0xFFFFFFFFFFFFFFFFFFFFFFFFFFFFFFFFFFFFFFFFFFFFFFFFFFFFFFFFFFFFFFFF SUB DUP3 GT ISZERO PUSH2 0x2D8E JUMPI PUSH2 0x2D8D PUSH2 0x2EC5 JUMP JUMPDEST JUMPDEST DUP3 DUP3 ADD SWAP1 POP SWAP3 SWAP2 POP POP JUMP JUMPDEST PUSH1 0x0 PUSH2 0x2DA4 DUP3 PUSH2 0x2E36 JUMP JUMPDEST SWAP2 POP PUSH2 0x2DAF DUP4 PUSH2 0x2E36 JUMP JUMPDEST SWAP3 POP DUP3 DUP3 LT ISZERO PUSH2 0x2DC2 JUMPI PUSH2 0x2DC1 PUSH2 0x2EC5 JUMP JUMPDEST JUMPDEST DUP3 DUP3 SUB SWAP1 POP SWAP3 SWAP2 POP POP JUMP JUMPDEST PUSH1 0x0 PUSH2 0x2DD8 DUP3 PUSH2 0x2E07 JUMP JUMPDEST SWAP1 POP SWAP2 SWAP1 POP JUMP JUMPDEST PUSH1 0x0 PUSH2 0x2DEA DUP3 PUSH2 0x2E07 JUMP JUMPDEST SWAP1 POP SWAP2 SWAP1 POP JUMP JUMPDEST PUSH1 0x0 DUP2 ISZERO ISZERO SWAP1 POP SWAP2 SWAP1 POP JUMP JUMPDEST PUSH1 0x0 DUP2 SWAP1 POP SWAP2 SWAP1 POP JUMP JUMPDEST PUSH1 0x0 PUSH20 0xFFFFFFFFFFFFFFFFFFFFFFFFFFFFFFFFFFFFFFFF DUP3 AND SWAP1 POP SWAP2 SWAP1 POP JUMP JUMPDEST PUSH1 0x0 PUSH3 0xFFFFFF DUP3 AND SWAP1 POP SWAP2 SWAP1 POP JUMP JUMPDEST PUSH1 0x0 DUP2 SWAP1 POP SWAP2 SWAP1 POP JUMP JUMPDEST PUSH1 0x0 PUSH1 0xFF DUP3 AND SWAP1 POP SWAP2 SWAP1 POP JUMP JUMPDEST PUSH1 0x0 PUSH2 0x2E58 DUP3 PUSH2 0x2E5F JUMP JUMPDEST SWAP1 POP SWAP2 SWAP1 POP JUMP JUMPDEST PUSH1 0x0 PUSH2 0x2E6A DUP3 PUSH2 0x2E71 JUMP JUMPDEST SWAP1 POP SWAP2 SWAP1 POP JUMP JUMPDEST PUSH1 0x0 PUSH2 0x2E7C DUP3 PUSH2 0x2E07 JUMP JUMPDEST SWAP1 POP SWAP2 SWAP1 POP JUMP JUMPDEST DUP3 DUP2 DUP4 CALLDATACOPY PUSH1 0x0 DUP4 DUP4 ADD MSTORE POP POP POP JUMP JUMPDEST PUSH1 0x0 JUMPDEST DUP4 DUP2 LT ISZERO PUSH2 0x2EB0 JUMPI DUP1 DUP3 ADD MLOAD DUP2 DUP5 ADD MSTORE PUSH1 0x20 DUP2 ADD SWAP1 POP PUSH2 0x2E95 JUMP JUMPDEST DUP4 DUP2 GT ISZERO PUSH2 0x2EBF JUMPI PUSH1 0x0 DUP5 DUP5 ADD MSTORE JUMPDEST POP POP POP POP JUMP JUMPDEST PUSH32 0x4E487B7100000000000000000000000000000000000000000000000000000000 PUSH1 0x0 MSTORE PUSH1 0x11 PUSH1 0x4 MSTORE PUSH1 0x24 PUSH1 0x0 REVERT JUMPDEST PUSH1 0x0 PUSH1 0x1F NOT PUSH1 0x1F DUP4 ADD AND SWAP1 POP SWAP2 SWAP1 POP JUMP JUMPDEST PUSH32 0x45434453413A20696E76616C6964207369676E61747572650000000000000000 PUSH1 0x0 DUP3 ADD MSTORE POP JUMP JUMPDEST PUSH32 0x707265706172653A2045524332305F5452414E534645525F4641494C45440000 PUSH1 0x0 DUP3 ADD MSTORE POP JUMP JUMPDEST PUSH32 0x707265706172653A20524F555445525F4D49534D415443480000000000000000 PUSH1 0x0 DUP3 ADD MSTORE POP JUMP JUMPDEST PUSH32 0x707265706172653A2054494D454F55545F544F4F5F4C4F570000000000000000 PUSH1 0x0 DUP3 ADD MSTORE POP JUMP JUMPDEST PUSH32 0x45434453413A20696E76616C6964207369676E6174757265206C656E67746800 PUSH1 0x0 DUP3 ADD MSTORE POP JUMP JUMPDEST PUSH32 0x6164644C69717569646974793A2045524332305F5452414E534645525F464149 PUSH1 0x0 DUP3 ADD MSTORE PUSH32 0x4C45440000000000000000000000000000000000000000000000000000000000 PUSH1 0x20 DUP3 ADD MSTORE POP JUMP JUMPDEST PUSH32 0x707265706172653A20494E56414C49445F434841494E49445300000000000000 PUSH1 0x0 DUP3 ADD MSTORE POP JUMP JUMPDEST PUSH32 0x63616E63656C3A205452414E534645525F4641494C4544000000000000000000 PUSH1 0x0 DUP3 ADD MSTORE POP JUMP JUMPDEST PUSH32 0x66756C66696C6C3A20494E56414C49445F504152414D53000000000000000000 PUSH1 0x0 DUP3 ADD MSTORE POP JUMP JUMPDEST PUSH32 0x45434453413A20696E76616C6964207369676E6174757265202773272076616C PUSH1 0x0 DUP3 ADD MSTORE PUSH32 0x7565000000000000000000000000000000000000000000000000000000000000 PUSH1 0x20 DUP3 ADD MSTORE POP JUMP JUMPDEST PUSH32 0x707265706172653A20494E56414C49445F524543454956494E475F434841494E PUSH1 0x0 DUP3 ADD MSTORE POP JUMP JUMPDEST PUSH32 0x707265706172653A2056414C55455F4D49534D41544348000000000000000000 PUSH1 0x0 DUP3 ADD MSTORE POP JUMP JUMPDEST PUSH32 0x72656D6F76654C69717569646974793A205452414E534645525F4641494C4544 PUSH1 0x0 DUP3 ADD MSTORE POP JUMP JUMPDEST PUSH32 0x45434453413A20696E76616C6964207369676E6174757265202776272076616C PUSH1 0x0 DUP3 ADD MSTORE PUSH32 0x7565000000000000000000000000000000000000000000000000000000000000 PUSH1 0x20 DUP3 ADD MSTORE POP JUMP JUMPDEST PUSH32 0x63616E63656C3A20494E56414C49445F504152414D5300000000000000000000 PUSH1 0x0 DUP3 ADD MSTORE POP JUMP JUMPDEST PUSH32 0x4C696245524332303A204E4F5F434F4445000000000000000000000000000000 PUSH1 0x0 DUP3 ADD MSTORE POP JUMP JUMPDEST PUSH32 0x63616E63656C3A20555345525F4D5553545F43414E43454C0000000000000000 PUSH1 0x0 DUP3 ADD MSTORE POP JUMP JUMPDEST PUSH32 0x707265706172653A204554485F574954485F4552435F5452414E534645520000 PUSH1 0x0 DUP3 ADD MSTORE POP JUMP JUMPDEST PUSH32 0x72656D6F76654C69717569646974793A20494E53554646494349454E545F4655 PUSH1 0x0 DUP3 ADD MSTORE PUSH32 0x4E44530000000000000000000000000000000000000000000000000000000000 PUSH1 0x20 DUP3 ADD MSTORE POP JUMP JUMPDEST PUSH32 0x6164644C69717569646974793A204554485F574954485F4552435F5452414E53 PUSH1 0x0 DUP3 ADD MSTORE PUSH32 0x4645520000000000000000000000000000000000000000000000000000000000 PUSH1 0x20 DUP3 ADD MSTORE POP JUMP JUMPDEST PUSH32 0x66756C66696C6C3A20616464206D756C746963616C6C207061747465726E0000 PUSH1 0x0 DUP3 ADD MSTORE POP JUMP JUMPDEST POP JUMP JUMPDEST PUSH32 0x707265706172653A20494E53554646494349454E545F4C495155494449545900 PUSH1 0x0 DUP3 ADD MSTORE POP JUMP JUMPDEST PUSH32 0x66756C66696C6C3A20494E56414C49445F5349474E4154555245000000000000 PUSH1 0x0 DUP3 ADD MSTORE POP JUMP JUMPDEST PUSH32 0x6164644C69717569646974793A2056414C55455F4D49534D4154434800000000 PUSH1 0x0 DUP3 ADD MSTORE POP JUMP JUMPDEST PUSH32 0x5265656E7472616E637947756172643A207265656E7472616E742063616C6C00 PUSH1 0x0 DUP3 ADD MSTORE POP JUMP JUMPDEST PUSH32 0x66756C66696C6C3A205452414E534645525F4641494C45440000000000000000 PUSH1 0x0 DUP3 ADD MSTORE POP JUMP JUMPDEST PUSH2 0x33F9 DUP2 PUSH2 0x2DCD JUMP JUMPDEST DUP2 EQ PUSH2 0x3404 JUMPI PUSH1 0x0 DUP1 REVERT JUMPDEST POP JUMP JUMPDEST PUSH2 0x3410 DUP2 PUSH2 0x2DDF JUMP JUMPDEST DUP2 EQ PUSH2 0x341B JUMPI PUSH1 0x0 DUP1 REVERT JUMPDEST POP JUMP JUMPDEST PUSH2 0x3427 DUP2 PUSH2 0x2DF1 JUMP JUMPDEST DUP2 EQ PUSH2 0x3432 JUMPI PUSH1 0x0 DUP1 REVERT JUMPDEST POP JUMP JUMPDEST PUSH2 0x343E DUP2 PUSH2 0x2DFD JUMP JUMPDEST DUP2 EQ PUSH2 0x3449 JUMPI PUSH1 0x0 DUP1 REVERT JUMPDEST POP JUMP JUMPDEST PUSH2 0x3455 DUP2 PUSH2 0x2E27 JUMP JUMPDEST DUP2 EQ PUSH2 0x3460 JUMPI PUSH1 0x0 DUP1 REVERT JUMPDEST POP JUMP JUMPDEST PUSH2 0x346C DUP2 PUSH2 0x2E36 JUMP JUMPDEST DUP2 EQ PUSH2 0x3477 JUMPI PUSH1 0x0 DUP1 REVERT JUMPDEST POP JUMP INVALID LOG2 PUSH5 0x6970667358 0x22 SLT KECCAK256 DIFFICULTY ADDMOD 0xF6 BLOCKHASH 0xC8 JUMPDEST SDIV 0x23 0x2E SELFBALANCE 0x27 0x5F EXTCODESIZE 0xC0 0xD2 PUSH5 0xA2A0F72C9F 0x2F SLT 0xD7 STATICCALL 0xA6 OR 0xE6 0xEA 0xEF 0x48 0xB2 PUSH5 0x736F6C6343 STOP ADDMOD DIV STOP CALLER "
        },
        "methodIdentifiers": {
          "MIN_TIMEOUT()": "543ad1df",
          "activeTransactions(bytes32)": "d448bd25",
          "addLiquidity(uint256,address)": "c95f9d0e",
          "cancel((address,address,uint256,address,address,uint24,uint24,address,bytes,bytes32,uint256))": "7c32fba9",
          "chainId()": "9a8a0592",
          "fulfill((address,address,uint256,address,address,uint24,uint24,address,bytes,bytes32,uint256),bytes)": "e9088189",
          "prepare((address,address,uint256,address,address,uint24,uint24,address,bytes,bytes32,uint256))": "c06adaee",
          "removeLiquidity(uint256,address,address)": "f31abcc4",
          "routerBalances(address,address)": "41258b5c"
        }
      }
    }
  }
}