{
  "contracts/TransactionManager.sol": {
    "TransactionManager": {
      "abi": [
        {
          "inputs": [
            {
              "internalType": "uint24",
              "name": "_chainId",
              "type": "uint24"
            }
          ],
          "stateMutability": "nonpayable",
          "type": "constructor"
        },
        {
          "anonymous": false,
          "inputs": [
            {
              "indexed": false,
              "internalType": "address",
              "name": "router",
              "type": "address"
            },
            {
              "indexed": false,
              "internalType": "address",
              "name": "assetId",
              "type": "address"
            },
            {
              "indexed": false,
              "internalType": "uint256",
              "name": "amount",
              "type": "uint256"
            }
          ],
          "name": "LiquidityAdded",
          "type": "event"
        },
        {
          "anonymous": false,
          "inputs": [
            {
              "indexed": false,
              "internalType": "address",
              "name": "router",
              "type": "address"
            },
            {
              "indexed": false,
              "internalType": "address",
              "name": "assetId",
              "type": "address"
            },
            {
              "indexed": false,
              "internalType": "uint256",
              "name": "amount",
              "type": "uint256"
            },
            {
              "indexed": false,
              "internalType": "address",
              "name": "recipient",
              "type": "address"
            }
          ],
          "name": "LiquidityRemoved",
          "type": "event"
        },
        {
          "anonymous": false,
          "inputs": [
            {
              "components": [
                {
                  "internalType": "address",
                  "name": "user",
                  "type": "address"
                },
                {
                  "internalType": "address",
                  "name": "router",
                  "type": "address"
                },
                {
                  "internalType": "uint256",
                  "name": "amount",
                  "type": "uint256"
                },
                {
                  "internalType": "address",
                  "name": "sendingAssetId",
                  "type": "address"
                },
                {
                  "internalType": "address",
                  "name": "receivingAssetId",
                  "type": "address"
                },
                {
                  "internalType": "uint24",
                  "name": "sendingChainId",
                  "type": "uint24"
                },
                {
                  "internalType": "uint24",
                  "name": "receivingChainId",
                  "type": "uint24"
                },
                {
                  "internalType": "address",
                  "name": "callTo",
                  "type": "address"
                },
                {
                  "internalType": "bytes",
                  "name": "callData",
                  "type": "bytes"
                },
                {
                  "internalType": "bytes32",
                  "name": "transactionId",
                  "type": "bytes32"
                },
                {
                  "internalType": "uint256",
                  "name": "expiry",
                  "type": "uint256"
                }
              ],
              "indexed": false,
              "internalType": "struct ITransactionManager.TransactionData",
              "name": "txData",
              "type": "tuple"
            },
            {
              "indexed": false,
              "internalType": "address",
              "name": "caller",
              "type": "address"
            }
          ],
          "name": "TransactionCancelled",
          "type": "event"
        },
        {
          "anonymous": false,
          "inputs": [
            {
              "components": [
                {
                  "internalType": "address",
                  "name": "user",
                  "type": "address"
                },
                {
                  "internalType": "address",
                  "name": "router",
                  "type": "address"
                },
                {
                  "internalType": "uint256",
                  "name": "amount",
                  "type": "uint256"
                },
                {
                  "internalType": "address",
                  "name": "sendingAssetId",
                  "type": "address"
                },
                {
                  "internalType": "address",
                  "name": "receivingAssetId",
                  "type": "address"
                },
                {
                  "internalType": "uint24",
                  "name": "sendingChainId",
                  "type": "uint24"
                },
                {
                  "internalType": "uint24",
                  "name": "receivingChainId",
                  "type": "uint24"
                },
                {
                  "internalType": "address",
                  "name": "callTo",
                  "type": "address"
                },
                {
                  "internalType": "bytes",
                  "name": "callData",
                  "type": "bytes"
                },
                {
                  "internalType": "bytes32",
                  "name": "transactionId",
                  "type": "bytes32"
                },
                {
                  "internalType": "uint256",
                  "name": "expiry",
                  "type": "uint256"
                }
              ],
              "indexed": false,
              "internalType": "struct ITransactionManager.TransactionData",
              "name": "txData",
              "type": "tuple"
            },
            {
              "indexed": false,
              "internalType": "bytes",
              "name": "signature",
              "type": "bytes"
            },
            {
              "indexed": false,
              "internalType": "address",
              "name": "caller",
              "type": "address"
            }
          ],
          "name": "TransactionFulfilled",
          "type": "event"
        },
        {
          "anonymous": false,
          "inputs": [
            {
              "components": [
                {
                  "internalType": "address",
                  "name": "user",
                  "type": "address"
                },
                {
                  "internalType": "address",
                  "name": "router",
                  "type": "address"
                },
                {
                  "internalType": "uint256",
                  "name": "amount",
                  "type": "uint256"
                },
                {
                  "internalType": "address",
                  "name": "sendingAssetId",
                  "type": "address"
                },
                {
                  "internalType": "address",
                  "name": "receivingAssetId",
                  "type": "address"
                },
                {
                  "internalType": "uint24",
                  "name": "sendingChainId",
                  "type": "uint24"
                },
                {
                  "internalType": "uint24",
                  "name": "receivingChainId",
                  "type": "uint24"
                },
                {
                  "internalType": "address",
                  "name": "callTo",
                  "type": "address"
                },
                {
                  "internalType": "bytes",
                  "name": "callData",
                  "type": "bytes"
                },
                {
                  "internalType": "bytes32",
                  "name": "transactionId",
                  "type": "bytes32"
                },
                {
                  "internalType": "uint256",
                  "name": "expiry",
                  "type": "uint256"
                }
              ],
              "indexed": false,
              "internalType": "struct ITransactionManager.TransactionData",
              "name": "txData",
              "type": "tuple"
            },
            {
              "indexed": false,
              "internalType": "address",
              "name": "caller",
              "type": "address"
            }
          ],
          "name": "TransactionPrepared",
          "type": "event"
        },
        {
          "inputs": [],
          "name": "MIN_TIMEOUT",
          "outputs": [
            {
              "internalType": "uint256",
              "name": "",
              "type": "uint256"
            }
          ],
          "stateMutability": "view",
          "type": "function"
        },
        {
          "inputs": [
            {
              "internalType": "uint256",
              "name": "amount",
              "type": "uint256"
            },
            {
              "internalType": "address",
              "name": "assetId",
              "type": "address"
            }
          ],
          "name": "addLiquidity",
          "outputs": [],
          "stateMutability": "payable",
          "type": "function"
        },
        {
          "inputs": [
            {
              "components": [
                {
                  "internalType": "address",
                  "name": "user",
                  "type": "address"
                },
                {
                  "internalType": "address",
                  "name": "router",
                  "type": "address"
                },
                {
                  "internalType": "uint256",
                  "name": "amount",
                  "type": "uint256"
                },
                {
                  "internalType": "address",
                  "name": "sendingAssetId",
                  "type": "address"
                },
                {
                  "internalType": "address",
                  "name": "receivingAssetId",
                  "type": "address"
                },
                {
                  "internalType": "uint24",
                  "name": "sendingChainId",
                  "type": "uint24"
                },
                {
                  "internalType": "uint24",
                  "name": "receivingChainId",
                  "type": "uint24"
                },
                {
                  "internalType": "address",
                  "name": "callTo",
                  "type": "address"
                },
                {
                  "internalType": "bytes",
                  "name": "callData",
                  "type": "bytes"
                },
                {
                  "internalType": "bytes32",
                  "name": "transactionId",
                  "type": "bytes32"
                },
                {
                  "internalType": "uint256",
                  "name": "expiry",
                  "type": "uint256"
                }
              ],
              "internalType": "struct ITransactionManager.TransactionData",
              "name": "txData",
              "type": "tuple"
            }
          ],
          "name": "cancel",
          "outputs": [],
          "stateMutability": "nonpayable",
          "type": "function"
        },
        {
          "inputs": [],
          "name": "chainId",
          "outputs": [
            {
              "internalType": "uint24",
              "name": "",
              "type": "uint24"
            }
          ],
          "stateMutability": "view",
          "type": "function"
        },
        {
          "inputs": [
            {
              "components": [
                {
                  "internalType": "address",
                  "name": "user",
                  "type": "address"
                },
                {
                  "internalType": "address",
                  "name": "router",
                  "type": "address"
                },
                {
                  "internalType": "uint256",
                  "name": "amount",
                  "type": "uint256"
                },
                {
                  "internalType": "address",
                  "name": "sendingAssetId",
                  "type": "address"
                },
                {
                  "internalType": "address",
                  "name": "receivingAssetId",
                  "type": "address"
                },
                {
                  "internalType": "uint24",
                  "name": "sendingChainId",
                  "type": "uint24"
                },
                {
                  "internalType": "uint24",
                  "name": "receivingChainId",
                  "type": "uint24"
                },
                {
                  "internalType": "address",
                  "name": "callTo",
                  "type": "address"
                },
                {
                  "internalType": "bytes",
                  "name": "callData",
                  "type": "bytes"
                },
                {
                  "internalType": "bytes32",
                  "name": "transactionId",
                  "type": "bytes32"
                },
                {
                  "internalType": "uint256",
                  "name": "expiry",
                  "type": "uint256"
                }
              ],
              "internalType": "struct ITransactionManager.TransactionData",
              "name": "txData",
              "type": "tuple"
            },
            {
              "internalType": "bytes",
              "name": "signature",
              "type": "bytes"
            }
          ],
          "name": "fulfill",
          "outputs": [],
          "stateMutability": "nonpayable",
          "type": "function"
        },
        {
          "inputs": [
            {
              "components": [
                {
                  "internalType": "address",
                  "name": "user",
                  "type": "address"
                },
                {
                  "internalType": "address",
                  "name": "router",
                  "type": "address"
                },
                {
                  "internalType": "uint256",
                  "name": "amount",
                  "type": "uint256"
                },
                {
                  "internalType": "address",
                  "name": "sendingAssetId",
                  "type": "address"
                },
                {
                  "internalType": "address",
                  "name": "receivingAssetId",
                  "type": "address"
                },
                {
                  "internalType": "uint24",
                  "name": "sendingChainId",
                  "type": "uint24"
                },
                {
                  "internalType": "uint24",
                  "name": "receivingChainId",
                  "type": "uint24"
                },
                {
                  "internalType": "address",
                  "name": "callTo",
                  "type": "address"
                },
                {
                  "internalType": "bytes",
                  "name": "callData",
                  "type": "bytes"
                },
                {
                  "internalType": "bytes32",
                  "name": "transactionId",
                  "type": "bytes32"
                },
                {
                  "internalType": "uint256",
                  "name": "expiry",
                  "type": "uint256"
                }
              ],
              "internalType": "struct ITransactionManager.TransactionData",
              "name": "txData",
              "type": "tuple"
            }
          ],
          "name": "prepare",
          "outputs": [
            {
              "internalType": "bytes32",
              "name": "",
              "type": "bytes32"
            }
          ],
          "stateMutability": "payable",
          "type": "function"
        },
        {
          "inputs": [
            {
              "internalType": "uint256",
              "name": "amount",
              "type": "uint256"
            },
            {
              "internalType": "address",
              "name": "assetId",
              "type": "address"
            },
            {
              "internalType": "address payable",
              "name": "recipient",
              "type": "address"
            }
          ],
          "name": "removeLiquidity",
          "outputs": [],
          "stateMutability": "nonpayable",
          "type": "function"
        },
        {
          "inputs": [
            {
              "internalType": "address",
              "name": "",
              "type": "address"
            },
            {
              "internalType": "address",
              "name": "",
              "type": "address"
            }
          ],
          "name": "routerBalances",
          "outputs": [
            {
              "internalType": "uint256",
              "name": "",
              "type": "uint256"
            }
          ],
          "stateMutability": "view",
          "type": "function"
        }
      ],
      "evm": {
        "bytecode": {
          "linkReferences": {},
          "object": "60a06040523480156200001157600080fd5b5060405162003bae38038062003bae833981810160405281019062000037919062000072565b60016000819055508062ffffff1660808162ffffff1660e81b8152505050620000c7565b6000815190506200006c81620000ad565b92915050565b6000602082840312156200008557600080fd5b600062000095848285016200005b565b91505092915050565b600062ffffff82169050919050565b620000b8816200009e565b8114620000c457600080fd5b50565b60805160e81c613a9e6200011060003960008181610279015281816105c30152818161068b015281816106d00152818161074f015281816108c00152610f230152613a9e6000f3fe60806040526004361061007b5760003560e01c8063c06adaee1161004e578063c06adaee1461013c578063c95f9d0e1461016c578063e908818914610188578063f31abcc4146101b15761007b565b806341258b5c14610080578063543ad1df146100bd5780637c32fba9146100e85780639a8a059214610111575b600080fd5b34801561008c57600080fd5b506100a760048036038101906100a291906121ed565b6101da565b6040516100b491906130fc565b60405180910390f35b3480156100c957600080fd5b506100d26101ff565b6040516100df91906130fc565b60405180910390f35b3480156100f457600080fd5b5061010f600480360381019061010a9190612252565b610204565b005b34801561011d57600080fd5b506101266105c1565b60405161013391906130e1565b60405180910390f35b61015660048036038101906101519190612252565b6105e5565b6040516101639190612c48565b60405180910390f35b6101866004803603810190610181919061232c565b610bd5565b005b34801561019457600080fd5b506101af60048036038101906101aa9190612293565b610de1565b005b3480156101bd57600080fd5b506101d860048036038101906101d39190612368565b61127c565b005b6001602052816000526040600020602052806000526040600020600091509150505481565b600081565b6002600054141561024a576040517f08c379a000000000000000000000000000000000000000000000000000000000815260040161024190613008565b60405180910390fd5b6002600081905550600061025d826114b0565b9050600061027582600261167290919063ffffffff16565b90507f000000000000000000000000000000000000000000000000000000000000000062ffffff168360a00160208101906102b09190612303565b62ffffff161415610389574283610140013510610312578260200160208101906102da91906121c4565b73ffffffffffffffffffffffffffffffffffffffff163373ffffffffffffffffffffffffffffffffffffffff161461031157600080fd5b5b61034583606001602081019061032891906121c4565b84600001602081019061033b91906121c4565b856040013561170c565b610384576040517f08c379a000000000000000000000000000000000000000000000000000000000815260040161037b90612d88565b60405180910390fd5b610567565b82604001358160000151146103d3576040517f08c379a00000000000000000000000000000000000000000000000000000000081526004016103ca90612f08565b60405180910390fd5b82610140013581602001511461041e576040517f08c379a000000000000000000000000000000000000000000000000000000000815260040161041590612e68565b60405180910390fd5b42836101400135106104ab5782600001602081019061043d91906121c4565b73ffffffffffffffffffffffffffffffffffffffff163373ffffffffffffffffffffffffffffffffffffffff16146104aa576040517f08c379a00000000000000000000000000000000000000000000000000000000081526004016104a190612ec8565b60405180910390fd5b5b8260400135600160008560200160208101906104c791906121c4565b73ffffffffffffffffffffffffffffffffffffffff1673ffffffffffffffffffffffffffffffffffffffff168152602001908152602001600020600085608001602081019061051691906121c4565b73ffffffffffffffffffffffffffffffffffffffff1673ffffffffffffffffffffffffffffffffffffffff168152602001908152602001600020600082825461055f919061326a565b925050819055505b61057b82600261173f90919063ffffffff16565b7f199deba8a6a6013af443143040bbb1ec3f4313f2db743530e1dc4b0cd40f1b5183336040516105ac92919061306a565b60405180910390a15050600160008190555050565b7f000000000000000000000000000000000000000000000000000000000000000081565b60006002600054141561062d576040517f08c379a000000000000000000000000000000000000000000000000000000000815260040161062490613008565b60405180910390fd5b600260008190555060004283610140013561064891906132c0565b1015610689576040517f08c379a000000000000000000000000000000000000000000000000000000000815260040161068090612d08565b60405180910390fd5b7f000000000000000000000000000000000000000000000000000000000000000062ffffff168260a00160208101906106c29190612303565b62ffffff16148061070e57507f000000000000000000000000000000000000000000000000000000000000000062ffffff168260c00160208101906107079190612303565b62ffffff16145b61074d576040517f08c379a000000000000000000000000000000000000000000000000000000000815260040161074490612d68565b60405180910390fd5b7f000000000000000000000000000000000000000000000000000000000000000062ffffff168260a00160208101906107869190612303565b62ffffff1614156108a6576107ac8260600160208101906107a791906121c4565b611949565b156107fc57816040013534146107f7576040517f08c379a00000000000000000000000000000000000000000000000000000000081526004016107ee90612e28565b60405180910390fd5b6108a1565b6000341461083f576040517f08c379a000000000000000000000000000000000000000000000000000000000815260040161083690612ee8565b60405180910390fd5b61086182606001602081019061085591906121c4565b33308560400135611981565b6108a0576040517f08c379a000000000000000000000000000000000000000000000000000000000815260040161089790612cc8565b60405180910390fd5b5b610b47565b8160c00160208101906108b99190612303565b62ffffff167f000000000000000000000000000000000000000000000000000000000000000062ffffff1614610924576040517f08c379a000000000000000000000000000000000000000000000000000000000815260040161091b90612de8565b60405180910390fd5b81602001602081019061093791906121c4565b73ffffffffffffffffffffffffffffffffffffffff163373ffffffffffffffffffffffffffffffffffffffff16146109a4576040517f08c379a000000000000000000000000000000000000000000000000000000000815260040161099b90612ce8565b60405180910390fd5b8160400135600160008460200160208101906109c091906121c4565b73ffffffffffffffffffffffffffffffffffffffff1673ffffffffffffffffffffffffffffffffffffffff1681526020019081526020016000206000846080016020810190610a0f91906121c4565b73ffffffffffffffffffffffffffffffffffffffff1673ffffffffffffffffffffffffffffffffffffffff168152602001908152602001600020541015610a8b576040517f08c379a0000000000000000000000000000000000000000000000000000000008152600401610a8290612fa8565b60405180910390fd5b816040013560016000846020016020810190610aa791906121c4565b73ffffffffffffffffffffffffffffffffffffffff1673ffffffffffffffffffffffffffffffffffffffff1681526020019081526020016000206000846080016020810190610af691906121c4565b73ffffffffffffffffffffffffffffffffffffffff1673ffffffffffffffffffffffffffffffffffffffff1681526020019081526020016000206000828254610b3f91906132c0565b925050819055505b6000610b52836114b0565b9050610b8b6040518060600160405280856040013581526020018561014001358152602001838152506002611a2890919063ffffffff16565b7f6b8d6a2cec3e696832b71a0098f172d93c793ef03c1e1b93689a626b941d13fc8333604051610bbc92919061306a565b60405180910390a1809150506001600081905550919050565b60026000541415610c1b576040517f08c379a0000000000000000000000000000000000000000000000000000000008152600401610c1290613008565b60405180910390fd5b6002600081905550610c2c81611949565b15610c7857813414610c73576040517f08c379a0000000000000000000000000000000000000000000000000000000008152600401610c6a90612fe8565b60405180910390fd5b610d07565b60003414610cbb576040517f08c379a0000000000000000000000000000000000000000000000000000000008152600401610cb290612f48565b60405180910390fd5b610cc781333085611981565b610d06576040517f08c379a0000000000000000000000000000000000000000000000000000000008152600401610cfd90612d48565b60405180910390fd5b5b81600160003373ffffffffffffffffffffffffffffffffffffffff1673ffffffffffffffffffffffffffffffffffffffff16815260200190815260200160002060008373ffffffffffffffffffffffffffffffffffffffff1673ffffffffffffffffffffffffffffffffffffffff1681526020019081526020016000206000828254610d93919061326a565b925050819055507f9d278c56ba6dc86a12eefe6b43112bd6e06648eb4ec0b950ee2d783d40e2acb4338284604051610dcd93929190612ba3565b60405180910390a160016000819055505050565b60026000541415610e27576040517f08c379a0000000000000000000000000000000000000000000000000000000008152600401610e1e90613008565b60405180910390fd5b60026000819055506000610e3a846114b0565b90506000610e5282600261167290919063ffffffff16565b9050846000016020810190610e6791906121c4565b73ffffffffffffffffffffffffffffffffffffffff16610ecb8386868080601f016020809104026020016040519081016040528093929190818152602001838380828437600081840152601f19601f82011690508083019250505050505050611b5b565b73ffffffffffffffffffffffffffffffffffffffff1614610f21576040517f08c379a0000000000000000000000000000000000000000000000000000000008152600401610f1890612fc8565b60405180910390fd5b7f000000000000000000000000000000000000000000000000000000000000000062ffffff168560a0016020810190610f5a9190612303565b62ffffff16141561102557846040013560016000876020016020810190610f8191906121c4565b73ffffffffffffffffffffffffffffffffffffffff1673ffffffffffffffffffffffffffffffffffffffff1681526020019081526020016000206000876060016020810190610fd091906121c4565b73ffffffffffffffffffffffffffffffffffffffff1673ffffffffffffffffffffffffffffffffffffffff1681526020019081526020016000206000828254611019919061326a565b9250508190555061121c565b846040013581600001511461106f576040517f08c379a000000000000000000000000000000000000000000000000000000000815260040161106690612f08565b60405180910390fd5b8461014001358160200151146110ba576040517f08c379a00000000000000000000000000000000000000000000000000000000081526004016110b190612e68565b60405180910390fd5b600067ffffffffffffffff8111156110fb577f4e487b7100000000000000000000000000000000000000000000000000000000600052604160045260246000fd5b6040519080825280601f01601f19166020018201604052801561112d5781602001600182028036833780820191505090505b5080519060200120858061010001906111469190613117565b604051611154929190612b5e565b604051809103902014156111d95761119585606001602081019061117891906121c4565b8660e001602081019061118b91906121c4565b876040013561170c565b6111d4576040517f08c379a00000000000000000000000000000000000000000000000000000000081526004016111cb90613028565b60405180910390fd5b61121b565b600061121a576040517f08c379a000000000000000000000000000000000000000000000000000000000815260040161121190612f88565b60405180910390fd5b5b5b61123082600261173f90919063ffffffff16565b7f280df9efeebc705987d91447e4d3d8129dc6df8ff02e029459f598e7217981e985858533604051611265949392919061309a565b60405180910390a150506001600081905550505050565b600260005414156112c2576040517f08c379a00000000000000000000000000000000000000000000000000000000081526004016112b990613008565b60405180910390fd5b600260008190555082600160003373ffffffffffffffffffffffffffffffffffffffff1673ffffffffffffffffffffffffffffffffffffffff16815260200190815260200160002060008473ffffffffffffffffffffffffffffffffffffffff1673ffffffffffffffffffffffffffffffffffffffff168152602001908152602001600020541015611389576040517f08c379a000000000000000000000000000000000000000000000000000000000815260040161138090612f28565b60405180910390fd5b82600160003373ffffffffffffffffffffffffffffffffffffffff1673ffffffffffffffffffffffffffffffffffffffff16815260200190815260200160002060008473ffffffffffffffffffffffffffffffffffffffff1673ffffffffffffffffffffffffffffffffffffffff168152602001908152602001600020600082825461141591906132c0565b9250508190555061142782828561170c565b611466576040517f08c379a000000000000000000000000000000000000000000000000000000000815260040161145d90612e48565b60405180910390fd5b7f7da12116be8cb7af4b2d9e9b4a2ca2c3a3243ddd6fd3a94411902367b8eed5683383858460405161149b9493929190612bda565b60405180910390a16001600081905550505050565b6000806040518061012001604052808460000160208101906114d291906121c4565b73ffffffffffffffffffffffffffffffffffffffff16815260200184602001602081019061150091906121c4565b73ffffffffffffffffffffffffffffffffffffffff16815260200184606001602081019061152e91906121c4565b73ffffffffffffffffffffffffffffffffffffffff16815260200184608001602081019061155c91906121c4565b73ffffffffffffffffffffffffffffffffffffffff1681526020018460a001602081019061158a9190612303565b62ffffff1681526020018460c00160208101906115a79190612303565b62ffffff1681526020018460e00160208101906115c491906121c4565b73ffffffffffffffffffffffffffffffffffffffff168152602001848061010001906115f09190613117565b8080601f016020809104026020016040519081016040528093929190818152602001838380828437600081840152601f19601f8201169050808301925050505050505081526020018461012001358152509050806040516020016116549190613048565b60405160208183030381529060405280519060200120915050919050565b61167a6120bc565b6116848383611c25565b6116c3576040517f08c379a00000000000000000000000000000000000000000000000000000000081526004016116ba90612da8565b60405180910390fd5b8260000160008381526020019081526020016000206000016040518060600160405290816000820154815260200160018201548152602001600282015481525050905092915050565b600061171784611949565b61172b57611726848484611cbd565b611736565b6117358383611cd3565b5b90509392505050565b61174881611d59565b15611788576040517f08c379a000000000000000000000000000000000000000000000000000000000815260040161177f90612e08565b60405180910390fd5b6117928282611c25565b6117d1576040517f08c379a00000000000000000000000000000000000000000000000000000000081526004016117c890612da8565b60405180910390fd5b60008260000160008381526020019081526020016000206003015490506000836001016001856001018054905061180891906132c0565b8154811061183f577f4e487b7100000000000000000000000000000000000000000000000000000000600052603260045260246000fd5b906000526020600020015490508184600001600083815260200190815260200160002060030181905550808460010183815481106118a6577f4e487b7100000000000000000000000000000000000000000000000000000000600052603260045260246000fd5b90600052602060002001819055508360000160008481526020019081526020016000206000808201600080820160009055600182016000905560028201600090555050600382016000905550508360010180548061192d577f4e487b7100000000000000000000000000000000000000000000000000000000600052603160045260246000fd5b6001900381819060005260206000200160009055905550505050565b60008073ffffffffffffffffffffffffffffffffffffffff168273ffffffffffffffffffffffffffffffffffffffff16149050919050565b6000611a1e8585858560405160240161199c93929190612ba3565b6040516020818303038152906040527f23b872dd000000000000000000000000000000000000000000000000000000007bffffffffffffffffffffffffffffffffffffffffffffffffffffffff19166020820180517bffffffffffffffffffffffffffffffffffffffffffffffffffffffff8381831617835250505050611d6f565b9050949350505050565b600081604001519050611a3a81611d59565b15611a7a576040517f08c379a0000000000000000000000000000000000000000000000000000000008152600401611a7190612e08565b60405180910390fd5b611a848382611c25565b15611ac4576040517f08c379a0000000000000000000000000000000000000000000000000000000008152600401611abb90612f68565b60405180910390fd5b6040518060400160405280838152602001846001018054905081525083600001600083815260200190815260200160002060008201518160000160008201518160000155602082015181600101556040820151816002015550506020820151816003015590505082600101819080600181540180825580915050600190039060005260206000200160009091909190915055505050565b600080600080604185511415611b88576020850151925060408501519150606085015160001a9050611c0e565b604085511415611bd2576040850151602086015193507f7fffffffffffffffffffffffffffffffffffffffffffffffffffffffffffffff81169250601b8160ff1c01915050611c0d565b6040517f08c379a0000000000000000000000000000000000000000000000000000000008152600401611c0490612d28565b60405180910390fd5b5b611c1a86828585611e5c565b935050505092915050565b6000611c3082611d59565b158015611c4557506000836001018054905014155b8015611cb55750611cb4836001018460000160008581526020019081526020016000206003015481548110611ca3577f4e487b7100000000000000000000000000000000000000000000000000000000600052603260045260246000fd5b906000526020600020015483611fe7565b5b905092915050565b6000611cca848484611ff4565b90509392505050565b60008060008473ffffffffffffffffffffffffffffffffffffffff1684604051611cfc90612b8e565b60006040518083038185875af1925050503d8060008114611d39576040519150601f19603f3d011682016040523d82523d6000602084013e611d3e565b606091505b5091509150611d4d8282612098565b60019250505092915050565b6000611d68826000801b611fe7565b9050919050565b6000611d7a836120a9565b611db9576040517f08c379a0000000000000000000000000000000000000000000000000000000008152600401611db090612ea8565b60405180910390fd5b6000808473ffffffffffffffffffffffffffffffffffffffff1684604051611de19190612b77565b6000604051808303816000865af19150503d8060008114611e1e576040519150601f19603f3d011682016040523d82523d6000602084013e611e23565b606091505b5091509150611e328282612098565b600081511480611e52575080806020019051810190611e519190612229565b5b9250505092915050565b60007f7fffffffffffffffffffffffffffffff5d576e7357a4501ddfe92f46681b20a08260001c1115611ec4576040517f08c379a0000000000000000000000000000000000000000000000000000000008152600401611ebb90612dc8565b60405180910390fd5b601b8460ff161480611ed95750601c8460ff16145b611f18576040517f08c379a0000000000000000000000000000000000000000000000000000000008152600401611f0f90612e88565b60405180910390fd5b600060018686868660405160008152602001604052604051611f3d9493929190612c63565b6020604051602081039080840390855afa158015611f5f573d6000803e3d6000fd5b505050602060405103519050600073ffffffffffffffffffffffffffffffffffffffff168173ffffffffffffffffffffffffffffffffffffffff161415611fdb576040517f08c379a0000000000000000000000000000000000000000000000000000000008152600401611fd290612ca8565b60405180910390fd5b80915050949350505050565b6000818314905092915050565b600061208f84848460405160240161200d929190612c1f565b6040516020818303038152906040527fa9059cbb000000000000000000000000000000000000000000000000000000007bffffffffffffffffffffffffffffffffffffffffffffffffffffffff19166020820180517bffffffffffffffffffffffffffffffffffffffffffffffffffffffff8381831617835250505050611d6f565b90509392505050565b816120a557805160208201fd5b5050565b600080823b905060008111915050919050565b60405180606001604052806000815260200160008152602001600080191681525090565b6000813590506120ef816139de565b92915050565b600081359050612104816139f5565b92915050565b60008151905061211981613a0c565b92915050565b60008135905061212e81613a23565b92915050565b60008083601f84011261214657600080fd5b8235905067ffffffffffffffff81111561215f57600080fd5b60208301915083600182028301111561217757600080fd5b9250929050565b6000610160828403121561219157600080fd5b81905092915050565b6000813590506121a981613a3a565b92915050565b6000813590506121be81613a51565b92915050565b6000602082840312156121d657600080fd5b60006121e4848285016120e0565b91505092915050565b6000806040838503121561220057600080fd5b600061220e858286016120e0565b925050602061221f858286016120e0565b9150509250929050565b60006020828403121561223b57600080fd5b60006122498482850161210a565b91505092915050565b60006020828403121561226457600080fd5b600082013567ffffffffffffffff81111561227e57600080fd5b61228a8482850161217e565b91505092915050565b6000806000604084860312156122a857600080fd5b600084013567ffffffffffffffff8111156122c257600080fd5b6122ce8682870161217e565b935050602084013567ffffffffffffffff8111156122eb57600080fd5b6122f786828701612134565b92509250509250925092565b60006020828403121561231557600080fd5b60006123238482850161219a565b91505092915050565b6000806040838503121561233f57600080fd5b600061234d858286016121af565b925050602061235e858286016120e0565b9150509250929050565b60008060006060848603121561237d57600080fd5b600061238b868287016121af565b935050602061239c868287016120e0565b92505060406123ad868287016120f5565b9150509250925092565b6123c081613374565b82525050565b6123cf816132f4565b82525050565b6123de816132f4565b82525050565b6123ed81613324565b82525050565b6123fc81613324565b82525050565b600061240e8385613179565b935061241b8385846133aa565b6124248361341b565b840190509392505050565b600061243b838561318a565b93506124488385846133aa565b6124518361341b565b840190509392505050565b6000612468838561319b565b93506124758385846133aa565b82840190509392505050565b600061248c8261316e565b6124968185613179565b93506124a68185602086016133b9565b6124af8161341b565b840191505092915050565b60006124c58261316e565b6124cf818561319b565b93506124df8185602086016133b9565b80840191505092915050565b60006124f86018836131a6565b91506125038261342c565b602082019050919050565b600061251b601e836131a6565b915061252682613455565b602082019050919050565b600061253e6018836131a6565b91506125498261347e565b602082019050919050565b60006125616018836131a6565b915061256c826134a7565b602082019050919050565b6000612584601f836131a6565b915061258f826134d0565b602082019050919050565b60006125a76023836131a6565b91506125b2826134f9565b604082019050919050565b60006125ca6019836131a6565b91506125d582613548565b602082019050919050565b60006125ed6017836131a6565b91506125f882613571565b602082019050919050565b60006126106024836131a6565b915061261b8261359a565b604082019050919050565b60006126336022836131a6565b915061263e826135e9565b604082019050919050565b60006126566020836131a6565b915061266182613638565b602082019050919050565b60006126796020836131a6565b915061268482613661565b602082019050919050565b600061269c6017836131a6565b91506126a78261368a565b602082019050919050565b60006126bf6020836131a6565b91506126ca826136b3565b602082019050919050565b60006126e26016836131a6565b91506126ed826136dc565b602082019050919050565b60006127056022836131a6565b915061271082613705565b604082019050919050565b60006127286011836131a6565b915061273382613754565b602082019050919050565b600061274b6018836131a6565b91506127568261377d565b602082019050919050565b600061276e601e836131a6565b9150612779826137a6565b602082019050919050565b60006127916016836131a6565b915061279c826137cf565b602082019050919050565b60006127b46023836131a6565b91506127bf826137f8565b604082019050919050565b60006127d76023836131a6565b91506127e282613847565b604082019050919050565b60006127fa6028836131a6565b915061280582613896565b604082019050919050565b600061281d601e836131a6565b9150612828826138e5565b602082019050919050565b600061284060008361319b565b915061284b8261390e565b600082019050919050565b6000612863601f836131a6565b915061286e82613911565b602082019050919050565b6000612886601a836131a6565b91506128918261393a565b602082019050919050565b60006128a9601c836131a6565b91506128b482613963565b602082019050919050565b60006128cc601f836131a6565b91506128d78261398c565b602082019050919050565b60006128ef6018836131a6565b91506128fa826139b5565b602082019050919050565b60006101208301600083015161291e60008601826123c6565b50602083015161293160208601826123c6565b50604083015161294460408601826123c6565b50606083015161295760608601826123c6565b50608083015161296a6080860182612b13565b5060a083015161297d60a0860182612b13565b5060c083015161299060c08601826123c6565b5060e083015184820360e08601526129a88282612481565b9150506101008301516129bf6101008601826123e4565b508091505092915050565b600061016083016129de60008401846131b7565b6129eb60008601826123c6565b506129f960208401846131b7565b612a0660208601826123c6565b50612a146040840184613253565b612a216040860182612b31565b50612a2f60608401846131b7565b612a3c60608601826123c6565b50612a4a60808401846131b7565b612a5760808601826123c6565b50612a6560a084018461323c565b612a7260a0860182612b13565b50612a8060c084018461323c565b612a8d60c0860182612b13565b50612a9b60e08401846131b7565b612aa860e08601826123c6565b50612ab76101008401846131e5565b858303610100870152612acb838284612402565b92505050612add6101208401846131ce565b612aeb6101208601826123e4565b50612afa610140840184613253565b612b08610140860182612b31565b508091505092915050565b612b1c8161334e565b82525050565b612b2b8161334e565b82525050565b612b3a8161335d565b82525050565b612b498161335d565b82525050565b612b5881613367565b82525050565b6000612b6b82848661245c565b91508190509392505050565b6000612b8382846124ba565b915081905092915050565b6000612b9982612833565b9150819050919050565b6000606082019050612bb860008301866123d5565b612bc560208301856123d5565b612bd26040830184612b40565b949350505050565b6000608082019050612bef60008301876123d5565b612bfc60208301866123d5565b612c096040830185612b40565b612c1660608301846123b7565b95945050505050565b6000604082019050612c3460008301856123d5565b612c416020830184612b40565b9392505050565b6000602082019050612c5d60008301846123f3565b92915050565b6000608082019050612c7860008301876123f3565b612c856020830186612b4f565b612c9260408301856123f3565b612c9f60608301846123f3565b95945050505050565b60006020820190508181036000830152612cc1816124eb565b9050919050565b60006020820190508181036000830152612ce18161250e565b9050919050565b60006020820190508181036000830152612d0181612531565b9050919050565b60006020820190508181036000830152612d2181612554565b9050919050565b60006020820190508181036000830152612d4181612577565b9050919050565b60006020820190508181036000830152612d618161259a565b9050919050565b60006020820190508181036000830152612d81816125bd565b9050919050565b60006020820190508181036000830152612da1816125e0565b9050919050565b60006020820190508181036000830152612dc181612603565b9050919050565b60006020820190508181036000830152612de181612626565b9050919050565b60006020820190508181036000830152612e0181612649565b9050919050565b60006020820190508181036000830152612e218161266c565b9050919050565b60006020820190508181036000830152612e418161268f565b9050919050565b60006020820190508181036000830152612e61816126b2565b9050919050565b60006020820190508181036000830152612e81816126d5565b9050919050565b60006020820190508181036000830152612ea1816126f8565b9050919050565b60006020820190508181036000830152612ec18161271b565b9050919050565b60006020820190508181036000830152612ee18161273e565b9050919050565b60006020820190508181036000830152612f0181612761565b9050919050565b60006020820190508181036000830152612f2181612784565b9050919050565b60006020820190508181036000830152612f41816127a7565b9050919050565b60006020820190508181036000830152612f61816127ca565b9050919050565b60006020820190508181036000830152612f81816127ed565b9050919050565b60006020820190508181036000830152612fa181612810565b9050919050565b60006020820190508181036000830152612fc181612856565b9050919050565b60006020820190508181036000830152612fe181612879565b9050919050565b600060208201905081810360008301526130018161289c565b9050919050565b60006020820190508181036000830152613021816128bf565b9050919050565b60006020820190508181036000830152613041816128e2565b9050919050565b600060208201905081810360008301526130628184612905565b905092915050565b6000604082019050818103600083015261308481856129ca565b905061309360208301846123d5565b9392505050565b600060608201905081810360008301526130b481876129ca565b905081810360208301526130c981858761242f565b90506130d860408301846123d5565b95945050505050565b60006020820190506130f66000830184612b22565b92915050565b60006020820190506131116000830184612b40565b92915050565b6000808335600160200384360303811261313057600080fd5b80840192508235915067ffffffffffffffff82111561314e57600080fd5b60208301925060018202360383131561316657600080fd5b509250929050565b600081519050919050565b600082825260208201905092915050565b600082825260208201905092915050565b600081905092915050565b600082825260208201905092915050565b60006131c660208401846120e0565b905092915050565b60006131dd602084018461211f565b905092915050565b600080833560016020038436030381126131fe57600080fd5b83810192508235915060208301925067ffffffffffffffff82111561322257600080fd5b60018202360384131561323457600080fd5b509250929050565b600061324b602084018461219a565b905092915050565b600061326260208401846121af565b905092915050565b60006132758261335d565b91506132808361335d565b9250827fffffffffffffffffffffffffffffffffffffffffffffffffffffffffffffffff038211156132b5576132b46133ec565b5b828201905092915050565b60006132cb8261335d565b91506132d68361335d565b9250828210156132e9576132e86133ec565b5b828203905092915050565b60006132ff8261332e565b9050919050565b60006133118261332e565b9050919050565b60008115159050919050565b6000819050919050565b600073ffffffffffffffffffffffffffffffffffffffff82169050919050565b600062ffffff82169050919050565b6000819050919050565b600060ff82169050919050565b600061337f82613386565b9050919050565b600061339182613398565b9050919050565b60006133a38261332e565b9050919050565b82818337600083830152505050565b60005b838110156133d75780820151818401526020810190506133bc565b838111156133e6576000848401525b50505050565b7f4e487b7100000000000000000000000000000000000000000000000000000000600052601160045260246000fd5b6000601f19601f8301169050919050565b7f45434453413a20696e76616c6964207369676e61747572650000000000000000600082015250565b7f707265706172653a2045524332305f5452414e534645525f4641494c45440000600082015250565b7f707265706172653a20524f555445525f4d49534d415443480000000000000000600082015250565b7f707265706172653a2054494d454f55545f544f4f5f4c4f570000000000000000600082015250565b7f45434453413a20696e76616c6964207369676e6174757265206c656e67746800600082015250565b7f6164644c69717569646974793a2045524332305f5452414e534645525f46414960008201527f4c45440000000000000000000000000000000000000000000000000000000000602082015250565b7f707265706172653a20494e56414c49445f434841494e49445300000000000000600082015250565b7f63616e63656c3a205452414e534645525f4641494c4544000000000000000000600082015250565b7f4c69624974657261626c654d617070696e673a204449474553545f4e4f545f4660008201527f4f554e4400000000000000000000000000000000000000000000000000000000602082015250565b7f45434453413a20696e76616c6964207369676e6174757265202773272076616c60008201527f7565000000000000000000000000000000000000000000000000000000000000602082015250565b7f707265706172653a20494e56414c49445f524543454956494e475f434841494e600082015250565b7f4c69624974657261626c654d617070696e673a20454d5054595f444947455354600082015250565b7f707265706172653a2056414c55455f4d49534d41544348000000000000000000600082015250565b7f72656d6f76654c69717569646974793a205452414e534645525f4641494c4544600082015250565b7f63616e63656c3a20494e56414c49445f45585049525900000000000000000000600082015250565b7f45434453413a20696e76616c6964207369676e6174757265202776272076616c60008201527f7565000000000000000000000000000000000000000000000000000000000000602082015250565b7f4c696245524332303a204e4f5f434f4445000000000000000000000000000000600082015250565b7f63616e63656c3a20555345525f4d5553545f43414e43454c0000000000000000600082015250565b7f707265706172653a204554485f574954485f4552435f5452414e534645520000600082015250565b7f63616e63656c3a20494e56414c49445f414d4f554e5400000000000000000000600082015250565b7f72656d6f76654c69717569646974793a20494e53554646494349454e545f465560008201527f4e44530000000000000000000000000000000000000000000000000000000000602082015250565b7f6164644c69717569646974793a204554485f574954485f4552435f5452414e5360008201527f4645520000000000000000000000000000000000000000000000000000000000602082015250565b7f4c69624974657261626c654d617070696e673a204449474553545f414c52454160008201527f44595f4144444544000000000000000000000000000000000000000000000000602082015250565b7f66756c66696c6c3a20616464206d756c746963616c6c207061747465726e0000600082015250565b50565b7f707265706172653a20494e53554646494349454e545f4c495155494449545900600082015250565b7f66756c66696c6c3a20494e56414c49445f5349474e4154555245000000000000600082015250565b7f6164644c69717569646974793a2056414c55455f4d49534d4154434800000000600082015250565b7f5265656e7472616e637947756172643a207265656e7472616e742063616c6c00600082015250565b7f66756c66696c6c3a205452414e534645525f4641494c45440000000000000000600082015250565b6139e7816132f4565b81146139f257600080fd5b50565b6139fe81613306565b8114613a0957600080fd5b50565b613a1581613318565b8114613a2057600080fd5b50565b613a2c81613324565b8114613a3757600080fd5b50565b613a438161334e565b8114613a4e57600080fd5b50565b613a5a8161335d565b8114613a6557600080fd5b5056fea264697066735822122099a6251243e8edffa199ece76565181e19fcfd3ff0682a06605811edbc12464364736f6c63430008040033",
          "opcodes": "PUSH1 0xA0 PUSH1 0x40 MSTORE CALLVALUE DUP1 ISZERO PUSH3 0x11 JUMPI PUSH1 0x0 DUP1 REVERT JUMPDEST POP PUSH1 0x40 MLOAD PUSH3 0x3BAE CODESIZE SUB DUP1 PUSH3 0x3BAE DUP4 CODECOPY DUP2 DUP2 ADD PUSH1 0x40 MSTORE DUP2 ADD SWAP1 PUSH3 0x37 SWAP2 SWAP1 PUSH3 0x72 JUMP JUMPDEST PUSH1 0x1 PUSH1 0x0 DUP2 SWAP1 SSTORE POP DUP1 PUSH3 0xFFFFFF AND PUSH1 0x80 DUP2 PUSH3 0xFFFFFF AND PUSH1 0xE8 SHL DUP2 MSTORE POP POP POP PUSH3 0xC7 JUMP JUMPDEST PUSH1 0x0 DUP2 MLOAD SWAP1 POP PUSH3 0x6C DUP2 PUSH3 0xAD JUMP JUMPDEST SWAP3 SWAP2 POP POP JUMP JUMPDEST PUSH1 0x0 PUSH1 0x20 DUP3 DUP5 SUB SLT ISZERO PUSH3 0x85 JUMPI PUSH1 0x0 DUP1 REVERT JUMPDEST PUSH1 0x0 PUSH3 0x95 DUP5 DUP3 DUP6 ADD PUSH3 0x5B JUMP JUMPDEST SWAP2 POP POP SWAP3 SWAP2 POP POP JUMP JUMPDEST PUSH1 0x0 PUSH3 0xFFFFFF DUP3 AND SWAP1 POP SWAP2 SWAP1 POP JUMP JUMPDEST PUSH3 0xB8 DUP2 PUSH3 0x9E JUMP JUMPDEST DUP2 EQ PUSH3 0xC4 JUMPI PUSH1 0x0 DUP1 REVERT JUMPDEST POP JUMP JUMPDEST PUSH1 0x80 MLOAD PUSH1 0xE8 SHR PUSH2 0x3A9E PUSH3 0x110 PUSH1 0x0 CODECOPY PUSH1 0x0 DUP2 DUP2 PUSH2 0x279 ADD MSTORE DUP2 DUP2 PUSH2 0x5C3 ADD MSTORE DUP2 DUP2 PUSH2 0x68B ADD MSTORE DUP2 DUP2 PUSH2 0x6D0 ADD MSTORE DUP2 DUP2 PUSH2 0x74F ADD MSTORE DUP2 DUP2 PUSH2 0x8C0 ADD MSTORE PUSH2 0xF23 ADD MSTORE PUSH2 0x3A9E PUSH1 0x0 RETURN INVALID PUSH1 0x80 PUSH1 0x40 MSTORE PUSH1 0x4 CALLDATASIZE LT PUSH2 0x7B JUMPI PUSH1 0x0 CALLDATALOAD PUSH1 0xE0 SHR DUP1 PUSH4 0xC06ADAEE GT PUSH2 0x4E JUMPI DUP1 PUSH4 0xC06ADAEE EQ PUSH2 0x13C JUMPI DUP1 PUSH4 0xC95F9D0E EQ PUSH2 0x16C JUMPI DUP1 PUSH4 0xE9088189 EQ PUSH2 0x188 JUMPI DUP1 PUSH4 0xF31ABCC4 EQ PUSH2 0x1B1 JUMPI PUSH2 0x7B JUMP JUMPDEST DUP1 PUSH4 0x41258B5C EQ PUSH2 0x80 JUMPI DUP1 PUSH4 0x543AD1DF EQ PUSH2 0xBD JUMPI DUP1 PUSH4 0x7C32FBA9 EQ PUSH2 0xE8 JUMPI DUP1 PUSH4 0x9A8A0592 EQ PUSH2 0x111 JUMPI JUMPDEST PUSH1 0x0 DUP1 REVERT JUMPDEST CALLVALUE DUP1 ISZERO PUSH2 0x8C JUMPI PUSH1 0x0 DUP1 REVERT JUMPDEST POP PUSH2 0xA7 PUSH1 0x4 DUP1 CALLDATASIZE SUB DUP2 ADD SWAP1 PUSH2 0xA2 SWAP2 SWAP1 PUSH2 0x21ED JUMP JUMPDEST PUSH2 0x1DA JUMP JUMPDEST PUSH1 0x40 MLOAD PUSH2 0xB4 SWAP2 SWAP1 PUSH2 0x30FC JUMP JUMPDEST PUSH1 0x40 MLOAD DUP1 SWAP2 SUB SWAP1 RETURN JUMPDEST CALLVALUE DUP1 ISZERO PUSH2 0xC9 JUMPI PUSH1 0x0 DUP1 REVERT JUMPDEST POP PUSH2 0xD2 PUSH2 0x1FF JUMP JUMPDEST PUSH1 0x40 MLOAD PUSH2 0xDF SWAP2 SWAP1 PUSH2 0x30FC JUMP JUMPDEST PUSH1 0x40 MLOAD DUP1 SWAP2 SUB SWAP1 RETURN JUMPDEST CALLVALUE DUP1 ISZERO PUSH2 0xF4 JUMPI PUSH1 0x0 DUP1 REVERT JUMPDEST POP PUSH2 0x10F PUSH1 0x4 DUP1 CALLDATASIZE SUB DUP2 ADD SWAP1 PUSH2 0x10A SWAP2 SWAP1 PUSH2 0x2252 JUMP JUMPDEST PUSH2 0x204 JUMP JUMPDEST STOP JUMPDEST CALLVALUE DUP1 ISZERO PUSH2 0x11D JUMPI PUSH1 0x0 DUP1 REVERT JUMPDEST POP PUSH2 0x126 PUSH2 0x5C1 JUMP JUMPDEST PUSH1 0x40 MLOAD PUSH2 0x133 SWAP2 SWAP1 PUSH2 0x30E1 JUMP JUMPDEST PUSH1 0x40 MLOAD DUP1 SWAP2 SUB SWAP1 RETURN JUMPDEST PUSH2 0x156 PUSH1 0x4 DUP1 CALLDATASIZE SUB DUP2 ADD SWAP1 PUSH2 0x151 SWAP2 SWAP1 PUSH2 0x2252 JUMP JUMPDEST PUSH2 0x5E5 JUMP JUMPDEST PUSH1 0x40 MLOAD PUSH2 0x163 SWAP2 SWAP1 PUSH2 0x2C48 JUMP JUMPDEST PUSH1 0x40 MLOAD DUP1 SWAP2 SUB SWAP1 RETURN JUMPDEST PUSH2 0x186 PUSH1 0x4 DUP1 CALLDATASIZE SUB DUP2 ADD SWAP1 PUSH2 0x181 SWAP2 SWAP1 PUSH2 0x232C JUMP JUMPDEST PUSH2 0xBD5 JUMP JUMPDEST STOP JUMPDEST CALLVALUE DUP1 ISZERO PUSH2 0x194 JUMPI PUSH1 0x0 DUP1 REVERT JUMPDEST POP PUSH2 0x1AF PUSH1 0x4 DUP1 CALLDATASIZE SUB DUP2 ADD SWAP1 PUSH2 0x1AA SWAP2 SWAP1 PUSH2 0x2293 JUMP JUMPDEST PUSH2 0xDE1 JUMP JUMPDEST STOP JUMPDEST CALLVALUE DUP1 ISZERO PUSH2 0x1BD JUMPI PUSH1 0x0 DUP1 REVERT JUMPDEST POP PUSH2 0x1D8 PUSH1 0x4 DUP1 CALLDATASIZE SUB DUP2 ADD SWAP1 PUSH2 0x1D3 SWAP2 SWAP1 PUSH2 0x2368 JUMP JUMPDEST PUSH2 0x127C JUMP JUMPDEST STOP JUMPDEST PUSH1 0x1 PUSH1 0x20 MSTORE DUP2 PUSH1 0x0 MSTORE PUSH1 0x40 PUSH1 0x0 KECCAK256 PUSH1 0x20 MSTORE DUP1 PUSH1 0x0 MSTORE PUSH1 0x40 PUSH1 0x0 KECCAK256 PUSH1 0x0 SWAP2 POP SWAP2 POP POP SLOAD DUP2 JUMP JUMPDEST PUSH1 0x0 DUP2 JUMP JUMPDEST PUSH1 0x2 PUSH1 0x0 SLOAD EQ ISZERO PUSH2 0x24A JUMPI PUSH1 0x40 MLOAD PUSH32 0x8C379A000000000000000000000000000000000000000000000000000000000 DUP2 MSTORE PUSH1 0x4 ADD PUSH2 0x241 SWAP1 PUSH2 0x3008 JUMP JUMPDEST PUSH1 0x40 MLOAD DUP1 SWAP2 SUB SWAP1 REVERT JUMPDEST PUSH1 0x2 PUSH1 0x0 DUP2 SWAP1 SSTORE POP PUSH1 0x0 PUSH2 0x25D DUP3 PUSH2 0x14B0 JUMP JUMPDEST SWAP1 POP PUSH1 0x0 PUSH2 0x275 DUP3 PUSH1 0x2 PUSH2 0x1672 SWAP1 SWAP2 SWAP1 PUSH4 0xFFFFFFFF AND JUMP JUMPDEST SWAP1 POP PUSH32 0x0 PUSH3 0xFFFFFF AND DUP4 PUSH1 0xA0 ADD PUSH1 0x20 DUP2 ADD SWAP1 PUSH2 0x2B0 SWAP2 SWAP1 PUSH2 0x2303 JUMP JUMPDEST PUSH3 0xFFFFFF AND EQ ISZERO PUSH2 0x389 JUMPI TIMESTAMP DUP4 PUSH2 0x140 ADD CALLDATALOAD LT PUSH2 0x312 JUMPI DUP3 PUSH1 0x20 ADD PUSH1 0x20 DUP2 ADD SWAP1 PUSH2 0x2DA SWAP2 SWAP1 PUSH2 0x21C4 JUMP JUMPDEST PUSH20 0xFFFFFFFFFFFFFFFFFFFFFFFFFFFFFFFFFFFFFFFF AND CALLER PUSH20 0xFFFFFFFFFFFFFFFFFFFFFFFFFFFFFFFFFFFFFFFF AND EQ PUSH2 0x311 JUMPI PUSH1 0x0 DUP1 REVERT JUMPDEST JUMPDEST PUSH2 0x345 DUP4 PUSH1 0x60 ADD PUSH1 0x20 DUP2 ADD SWAP1 PUSH2 0x328 SWAP2 SWAP1 PUSH2 0x21C4 JUMP JUMPDEST DUP5 PUSH1 0x0 ADD PUSH1 0x20 DUP2 ADD SWAP1 PUSH2 0x33B SWAP2 SWAP1 PUSH2 0x21C4 JUMP JUMPDEST DUP6 PUSH1 0x40 ADD CALLDATALOAD PUSH2 0x170C JUMP JUMPDEST PUSH2 0x384 JUMPI PUSH1 0x40 MLOAD PUSH32 0x8C379A000000000000000000000000000000000000000000000000000000000 DUP2 MSTORE PUSH1 0x4 ADD PUSH2 0x37B SWAP1 PUSH2 0x2D88 JUMP JUMPDEST PUSH1 0x40 MLOAD DUP1 SWAP2 SUB SWAP1 REVERT JUMPDEST PUSH2 0x567 JUMP JUMPDEST DUP3 PUSH1 0x40 ADD CALLDATALOAD DUP2 PUSH1 0x0 ADD MLOAD EQ PUSH2 0x3D3 JUMPI PUSH1 0x40 MLOAD PUSH32 0x8C379A000000000000000000000000000000000000000000000000000000000 DUP2 MSTORE PUSH1 0x4 ADD PUSH2 0x3CA SWAP1 PUSH2 0x2F08 JUMP JUMPDEST PUSH1 0x40 MLOAD DUP1 SWAP2 SUB SWAP1 REVERT JUMPDEST DUP3 PUSH2 0x140 ADD CALLDATALOAD DUP2 PUSH1 0x20 ADD MLOAD EQ PUSH2 0x41E JUMPI PUSH1 0x40 MLOAD PUSH32 0x8C379A000000000000000000000000000000000000000000000000000000000 DUP2 MSTORE PUSH1 0x4 ADD PUSH2 0x415 SWAP1 PUSH2 0x2E68 JUMP JUMPDEST PUSH1 0x40 MLOAD DUP1 SWAP2 SUB SWAP1 REVERT JUMPDEST TIMESTAMP DUP4 PUSH2 0x140 ADD CALLDATALOAD LT PUSH2 0x4AB JUMPI DUP3 PUSH1 0x0 ADD PUSH1 0x20 DUP2 ADD SWAP1 PUSH2 0x43D SWAP2 SWAP1 PUSH2 0x21C4 JUMP JUMPDEST PUSH20 0xFFFFFFFFFFFFFFFFFFFFFFFFFFFFFFFFFFFFFFFF AND CALLER PUSH20 0xFFFFFFFFFFFFFFFFFFFFFFFFFFFFFFFFFFFFFFFF AND EQ PUSH2 0x4AA JUMPI PUSH1 0x40 MLOAD PUSH32 0x8C379A000000000000000000000000000000000000000000000000000000000 DUP2 MSTORE PUSH1 0x4 ADD PUSH2 0x4A1 SWAP1 PUSH2 0x2EC8 JUMP JUMPDEST PUSH1 0x40 MLOAD DUP1 SWAP2 SUB SWAP1 REVERT JUMPDEST JUMPDEST DUP3 PUSH1 0x40 ADD CALLDATALOAD PUSH1 0x1 PUSH1 0x0 DUP6 PUSH1 0x20 ADD PUSH1 0x20 DUP2 ADD SWAP1 PUSH2 0x4C7 SWAP2 SWAP1 PUSH2 0x21C4 JUMP JUMPDEST PUSH20 0xFFFFFFFFFFFFFFFFFFFFFFFFFFFFFFFFFFFFFFFF AND PUSH20 0xFFFFFFFFFFFFFFFFFFFFFFFFFFFFFFFFFFFFFFFF AND DUP2 MSTORE PUSH1 0x20 ADD SWAP1 DUP2 MSTORE PUSH1 0x20 ADD PUSH1 0x0 KECCAK256 PUSH1 0x0 DUP6 PUSH1 0x80 ADD PUSH1 0x20 DUP2 ADD SWAP1 PUSH2 0x516 SWAP2 SWAP1 PUSH2 0x21C4 JUMP JUMPDEST PUSH20 0xFFFFFFFFFFFFFFFFFFFFFFFFFFFFFFFFFFFFFFFF AND PUSH20 0xFFFFFFFFFFFFFFFFFFFFFFFFFFFFFFFFFFFFFFFF AND DUP2 MSTORE PUSH1 0x20 ADD SWAP1 DUP2 MSTORE PUSH1 0x20 ADD PUSH1 0x0 KECCAK256 PUSH1 0x0 DUP3 DUP3 SLOAD PUSH2 0x55F SWAP2 SWAP1 PUSH2 0x326A JUMP JUMPDEST SWAP3 POP POP DUP2 SWAP1 SSTORE POP JUMPDEST PUSH2 0x57B DUP3 PUSH1 0x2 PUSH2 0x173F SWAP1 SWAP2 SWAP1 PUSH4 0xFFFFFFFF AND JUMP JUMPDEST PUSH32 0x199DEBA8A6A6013AF443143040BBB1EC3F4313F2DB743530E1DC4B0CD40F1B51 DUP4 CALLER PUSH1 0x40 MLOAD PUSH2 0x5AC SWAP3 SWAP2 SWAP1 PUSH2 0x306A JUMP JUMPDEST PUSH1 0x40 MLOAD DUP1 SWAP2 SUB SWAP1 LOG1 POP POP PUSH1 0x1 PUSH1 0x0 DUP2 SWAP1 SSTORE POP POP JUMP JUMPDEST PUSH32 0x0 DUP2 JUMP JUMPDEST PUSH1 0x0 PUSH1 0x2 PUSH1 0x0 SLOAD EQ ISZERO PUSH2 0x62D JUMPI PUSH1 0x40 MLOAD PUSH32 0x8C379A000000000000000000000000000000000000000000000000000000000 DUP2 MSTORE PUSH1 0x4 ADD PUSH2 0x624 SWAP1 PUSH2 0x3008 JUMP JUMPDEST PUSH1 0x40 MLOAD DUP1 SWAP2 SUB SWAP1 REVERT JUMPDEST PUSH1 0x2 PUSH1 0x0 DUP2 SWAP1 SSTORE POP PUSH1 0x0 TIMESTAMP DUP4 PUSH2 0x140 ADD CALLDATALOAD PUSH2 0x648 SWAP2 SWAP1 PUSH2 0x32C0 JUMP JUMPDEST LT ISZERO PUSH2 0x689 JUMPI PUSH1 0x40 MLOAD PUSH32 0x8C379A000000000000000000000000000000000000000000000000000000000 DUP2 MSTORE PUSH1 0x4 ADD PUSH2 0x680 SWAP1 PUSH2 0x2D08 JUMP JUMPDEST PUSH1 0x40 MLOAD DUP1 SWAP2 SUB SWAP1 REVERT JUMPDEST PUSH32 0x0 PUSH3 0xFFFFFF AND DUP3 PUSH1 0xA0 ADD PUSH1 0x20 DUP2 ADD SWAP1 PUSH2 0x6C2 SWAP2 SWAP1 PUSH2 0x2303 JUMP JUMPDEST PUSH3 0xFFFFFF AND EQ DUP1 PUSH2 0x70E JUMPI POP PUSH32 0x0 PUSH3 0xFFFFFF AND DUP3 PUSH1 0xC0 ADD PUSH1 0x20 DUP2 ADD SWAP1 PUSH2 0x707 SWAP2 SWAP1 PUSH2 0x2303 JUMP JUMPDEST PUSH3 0xFFFFFF AND EQ JUMPDEST PUSH2 0x74D JUMPI PUSH1 0x40 MLOAD PUSH32 0x8C379A000000000000000000000000000000000000000000000000000000000 DUP2 MSTORE PUSH1 0x4 ADD PUSH2 0x744 SWAP1 PUSH2 0x2D68 JUMP JUMPDEST PUSH1 0x40 MLOAD DUP1 SWAP2 SUB SWAP1 REVERT JUMPDEST PUSH32 0x0 PUSH3 0xFFFFFF AND DUP3 PUSH1 0xA0 ADD PUSH1 0x20 DUP2 ADD SWAP1 PUSH2 0x786 SWAP2 SWAP1 PUSH2 0x2303 JUMP JUMPDEST PUSH3 0xFFFFFF AND EQ ISZERO PUSH2 0x8A6 JUMPI PUSH2 0x7AC DUP3 PUSH1 0x60 ADD PUSH1 0x20 DUP2 ADD SWAP1 PUSH2 0x7A7 SWAP2 SWAP1 PUSH2 0x21C4 JUMP JUMPDEST PUSH2 0x1949 JUMP JUMPDEST ISZERO PUSH2 0x7FC JUMPI DUP2 PUSH1 0x40 ADD CALLDATALOAD CALLVALUE EQ PUSH2 0x7F7 JUMPI PUSH1 0x40 MLOAD PUSH32 0x8C379A000000000000000000000000000000000000000000000000000000000 DUP2 MSTORE PUSH1 0x4 ADD PUSH2 0x7EE SWAP1 PUSH2 0x2E28 JUMP JUMPDEST PUSH1 0x40 MLOAD DUP1 SWAP2 SUB SWAP1 REVERT JUMPDEST PUSH2 0x8A1 JUMP JUMPDEST PUSH1 0x0 CALLVALUE EQ PUSH2 0x83F JUMPI PUSH1 0x40 MLOAD PUSH32 0x8C379A000000000000000000000000000000000000000000000000000000000 DUP2 MSTORE PUSH1 0x4 ADD PUSH2 0x836 SWAP1 PUSH2 0x2EE8 JUMP JUMPDEST PUSH1 0x40 MLOAD DUP1 SWAP2 SUB SWAP1 REVERT JUMPDEST PUSH2 0x861 DUP3 PUSH1 0x60 ADD PUSH1 0x20 DUP2 ADD SWAP1 PUSH2 0x855 SWAP2 SWAP1 PUSH2 0x21C4 JUMP JUMPDEST CALLER ADDRESS DUP6 PUSH1 0x40 ADD CALLDATALOAD PUSH2 0x1981 JUMP JUMPDEST PUSH2 0x8A0 JUMPI PUSH1 0x40 MLOAD PUSH32 0x8C379A000000000000000000000000000000000000000000000000000000000 DUP2 MSTORE PUSH1 0x4 ADD PUSH2 0x897 SWAP1 PUSH2 0x2CC8 JUMP JUMPDEST PUSH1 0x40 MLOAD DUP1 SWAP2 SUB SWAP1 REVERT JUMPDEST JUMPDEST PUSH2 0xB47 JUMP JUMPDEST DUP2 PUSH1 0xC0 ADD PUSH1 0x20 DUP2 ADD SWAP1 PUSH2 0x8B9 SWAP2 SWAP1 PUSH2 0x2303 JUMP JUMPDEST PUSH3 0xFFFFFF AND PUSH32 0x0 PUSH3 0xFFFFFF AND EQ PUSH2 0x924 JUMPI PUSH1 0x40 MLOAD PUSH32 0x8C379A000000000000000000000000000000000000000000000000000000000 DUP2 MSTORE PUSH1 0x4 ADD PUSH2 0x91B SWAP1 PUSH2 0x2DE8 JUMP JUMPDEST PUSH1 0x40 MLOAD DUP1 SWAP2 SUB SWAP1 REVERT JUMPDEST DUP2 PUSH1 0x20 ADD PUSH1 0x20 DUP2 ADD SWAP1 PUSH2 0x937 SWAP2 SWAP1 PUSH2 0x21C4 JUMP JUMPDEST PUSH20 0xFFFFFFFFFFFFFFFFFFFFFFFFFFFFFFFFFFFFFFFF AND CALLER PUSH20 0xFFFFFFFFFFFFFFFFFFFFFFFFFFFFFFFFFFFFFFFF AND EQ PUSH2 0x9A4 JUMPI PUSH1 0x40 MLOAD PUSH32 0x8C379A000000000000000000000000000000000000000000000000000000000 DUP2 MSTORE PUSH1 0x4 ADD PUSH2 0x99B SWAP1 PUSH2 0x2CE8 JUMP JUMPDEST PUSH1 0x40 MLOAD DUP1 SWAP2 SUB SWAP1 REVERT JUMPDEST DUP2 PUSH1 0x40 ADD CALLDATALOAD PUSH1 0x1 PUSH1 0x0 DUP5 PUSH1 0x20 ADD PUSH1 0x20 DUP2 ADD SWAP1 PUSH2 0x9C0 SWAP2 SWAP1 PUSH2 0x21C4 JUMP JUMPDEST PUSH20 0xFFFFFFFFFFFFFFFFFFFFFFFFFFFFFFFFFFFFFFFF AND PUSH20 0xFFFFFFFFFFFFFFFFFFFFFFFFFFFFFFFFFFFFFFFF AND DUP2 MSTORE PUSH1 0x20 ADD SWAP1 DUP2 MSTORE PUSH1 0x20 ADD PUSH1 0x0 KECCAK256 PUSH1 0x0 DUP5 PUSH1 0x80 ADD PUSH1 0x20 DUP2 ADD SWAP1 PUSH2 0xA0F SWAP2 SWAP1 PUSH2 0x21C4 JUMP JUMPDEST PUSH20 0xFFFFFFFFFFFFFFFFFFFFFFFFFFFFFFFFFFFFFFFF AND PUSH20 0xFFFFFFFFFFFFFFFFFFFFFFFFFFFFFFFFFFFFFFFF AND DUP2 MSTORE PUSH1 0x20 ADD SWAP1 DUP2 MSTORE PUSH1 0x20 ADD PUSH1 0x0 KECCAK256 SLOAD LT ISZERO PUSH2 0xA8B JUMPI PUSH1 0x40 MLOAD PUSH32 0x8C379A000000000000000000000000000000000000000000000000000000000 DUP2 MSTORE PUSH1 0x4 ADD PUSH2 0xA82 SWAP1 PUSH2 0x2FA8 JUMP JUMPDEST PUSH1 0x40 MLOAD DUP1 SWAP2 SUB SWAP1 REVERT JUMPDEST DUP2 PUSH1 0x40 ADD CALLDATALOAD PUSH1 0x1 PUSH1 0x0 DUP5 PUSH1 0x20 ADD PUSH1 0x20 DUP2 ADD SWAP1 PUSH2 0xAA7 SWAP2 SWAP1 PUSH2 0x21C4 JUMP JUMPDEST PUSH20 0xFFFFFFFFFFFFFFFFFFFFFFFFFFFFFFFFFFFFFFFF AND PUSH20 0xFFFFFFFFFFFFFFFFFFFFFFFFFFFFFFFFFFFFFFFF AND DUP2 MSTORE PUSH1 0x20 ADD SWAP1 DUP2 MSTORE PUSH1 0x20 ADD PUSH1 0x0 KECCAK256 PUSH1 0x0 DUP5 PUSH1 0x80 ADD PUSH1 0x20 DUP2 ADD SWAP1 PUSH2 0xAF6 SWAP2 SWAP1 PUSH2 0x21C4 JUMP JUMPDEST PUSH20 0xFFFFFFFFFFFFFFFFFFFFFFFFFFFFFFFFFFFFFFFF AND PUSH20 0xFFFFFFFFFFFFFFFFFFFFFFFFFFFFFFFFFFFFFFFF AND DUP2 MSTORE PUSH1 0x20 ADD SWAP1 DUP2 MSTORE PUSH1 0x20 ADD PUSH1 0x0 KECCAK256 PUSH1 0x0 DUP3 DUP3 SLOAD PUSH2 0xB3F SWAP2 SWAP1 PUSH2 0x32C0 JUMP JUMPDEST SWAP3 POP POP DUP2 SWAP1 SSTORE POP JUMPDEST PUSH1 0x0 PUSH2 0xB52 DUP4 PUSH2 0x14B0 JUMP JUMPDEST SWAP1 POP PUSH2 0xB8B PUSH1 0x40 MLOAD DUP1 PUSH1 0x60 ADD PUSH1 0x40 MSTORE DUP1 DUP6 PUSH1 0x40 ADD CALLDATALOAD DUP2 MSTORE PUSH1 0x20 ADD DUP6 PUSH2 0x140 ADD CALLDATALOAD DUP2 MSTORE PUSH1 0x20 ADD DUP4 DUP2 MSTORE POP PUSH1 0x2 PUSH2 0x1A28 SWAP1 SWAP2 SWAP1 PUSH4 0xFFFFFFFF AND JUMP JUMPDEST PUSH32 0x6B8D6A2CEC3E696832B71A0098F172D93C793EF03C1E1B93689A626B941D13FC DUP4 CALLER PUSH1 0x40 MLOAD PUSH2 0xBBC SWAP3 SWAP2 SWAP1 PUSH2 0x306A JUMP JUMPDEST PUSH1 0x40 MLOAD DUP1 SWAP2 SUB SWAP1 LOG1 DUP1 SWAP2 POP POP PUSH1 0x1 PUSH1 0x0 DUP2 SWAP1 SSTORE POP SWAP2 SWAP1 POP JUMP JUMPDEST PUSH1 0x2 PUSH1 0x0 SLOAD EQ ISZERO PUSH2 0xC1B JUMPI PUSH1 0x40 MLOAD PUSH32 0x8C379A000000000000000000000000000000000000000000000000000000000 DUP2 MSTORE PUSH1 0x4 ADD PUSH2 0xC12 SWAP1 PUSH2 0x3008 JUMP JUMPDEST PUSH1 0x40 MLOAD DUP1 SWAP2 SUB SWAP1 REVERT JUMPDEST PUSH1 0x2 PUSH1 0x0 DUP2 SWAP1 SSTORE POP PUSH2 0xC2C DUP2 PUSH2 0x1949 JUMP JUMPDEST ISZERO PUSH2 0xC78 JUMPI DUP2 CALLVALUE EQ PUSH2 0xC73 JUMPI PUSH1 0x40 MLOAD PUSH32 0x8C379A000000000000000000000000000000000000000000000000000000000 DUP2 MSTORE PUSH1 0x4 ADD PUSH2 0xC6A SWAP1 PUSH2 0x2FE8 JUMP JUMPDEST PUSH1 0x40 MLOAD DUP1 SWAP2 SUB SWAP1 REVERT JUMPDEST PUSH2 0xD07 JUMP JUMPDEST PUSH1 0x0 CALLVALUE EQ PUSH2 0xCBB JUMPI PUSH1 0x40 MLOAD PUSH32 0x8C379A000000000000000000000000000000000000000000000000000000000 DUP2 MSTORE PUSH1 0x4 ADD PUSH2 0xCB2 SWAP1 PUSH2 0x2F48 JUMP JUMPDEST PUSH1 0x40 MLOAD DUP1 SWAP2 SUB SWAP1 REVERT JUMPDEST PUSH2 0xCC7 DUP2 CALLER ADDRESS DUP6 PUSH2 0x1981 JUMP JUMPDEST PUSH2 0xD06 JUMPI PUSH1 0x40 MLOAD PUSH32 0x8C379A000000000000000000000000000000000000000000000000000000000 DUP2 MSTORE PUSH1 0x4 ADD PUSH2 0xCFD SWAP1 PUSH2 0x2D48 JUMP JUMPDEST PUSH1 0x40 MLOAD DUP1 SWAP2 SUB SWAP1 REVERT JUMPDEST JUMPDEST DUP2 PUSH1 0x1 PUSH1 0x0 CALLER PUSH20 0xFFFFFFFFFFFFFFFFFFFFFFFFFFFFFFFFFFFFFFFF AND PUSH20 0xFFFFFFFFFFFFFFFFFFFFFFFFFFFFFFFFFFFFFFFF AND DUP2 MSTORE PUSH1 0x20 ADD SWAP1 DUP2 MSTORE PUSH1 0x20 ADD PUSH1 0x0 KECCAK256 PUSH1 0x0 DUP4 PUSH20 0xFFFFFFFFFFFFFFFFFFFFFFFFFFFFFFFFFFFFFFFF AND PUSH20 0xFFFFFFFFFFFFFFFFFFFFFFFFFFFFFFFFFFFFFFFF AND DUP2 MSTORE PUSH1 0x20 ADD SWAP1 DUP2 MSTORE PUSH1 0x20 ADD PUSH1 0x0 KECCAK256 PUSH1 0x0 DUP3 DUP3 SLOAD PUSH2 0xD93 SWAP2 SWAP1 PUSH2 0x326A JUMP JUMPDEST SWAP3 POP POP DUP2 SWAP1 SSTORE POP PUSH32 0x9D278C56BA6DC86A12EEFE6B43112BD6E06648EB4EC0B950EE2D783D40E2ACB4 CALLER DUP3 DUP5 PUSH1 0x40 MLOAD PUSH2 0xDCD SWAP4 SWAP3 SWAP2 SWAP1 PUSH2 0x2BA3 JUMP JUMPDEST PUSH1 0x40 MLOAD DUP1 SWAP2 SUB SWAP1 LOG1 PUSH1 0x1 PUSH1 0x0 DUP2 SWAP1 SSTORE POP POP POP JUMP JUMPDEST PUSH1 0x2 PUSH1 0x0 SLOAD EQ ISZERO PUSH2 0xE27 JUMPI PUSH1 0x40 MLOAD PUSH32 0x8C379A000000000000000000000000000000000000000000000000000000000 DUP2 MSTORE PUSH1 0x4 ADD PUSH2 0xE1E SWAP1 PUSH2 0x3008 JUMP JUMPDEST PUSH1 0x40 MLOAD DUP1 SWAP2 SUB SWAP1 REVERT JUMPDEST PUSH1 0x2 PUSH1 0x0 DUP2 SWAP1 SSTORE POP PUSH1 0x0 PUSH2 0xE3A DUP5 PUSH2 0x14B0 JUMP JUMPDEST SWAP1 POP PUSH1 0x0 PUSH2 0xE52 DUP3 PUSH1 0x2 PUSH2 0x1672 SWAP1 SWAP2 SWAP1 PUSH4 0xFFFFFFFF AND JUMP JUMPDEST SWAP1 POP DUP5 PUSH1 0x0 ADD PUSH1 0x20 DUP2 ADD SWAP1 PUSH2 0xE67 SWAP2 SWAP1 PUSH2 0x21C4 JUMP JUMPDEST PUSH20 0xFFFFFFFFFFFFFFFFFFFFFFFFFFFFFFFFFFFFFFFF AND PUSH2 0xECB DUP4 DUP7 DUP7 DUP1 DUP1 PUSH1 0x1F ADD PUSH1 0x20 DUP1 SWAP2 DIV MUL PUSH1 0x20 ADD PUSH1 0x40 MLOAD SWAP1 DUP2 ADD PUSH1 0x40 MSTORE DUP1 SWAP4 SWAP3 SWAP2 SWAP1 DUP2 DUP2 MSTORE PUSH1 0x20 ADD DUP4 DUP4 DUP1 DUP3 DUP5 CALLDATACOPY PUSH1 0x0 DUP2 DUP5 ADD MSTORE PUSH1 0x1F NOT PUSH1 0x1F DUP3 ADD AND SWAP1 POP DUP1 DUP4 ADD SWAP3 POP POP POP POP POP POP POP PUSH2 0x1B5B JUMP JUMPDEST PUSH20 0xFFFFFFFFFFFFFFFFFFFFFFFFFFFFFFFFFFFFFFFF AND EQ PUSH2 0xF21 JUMPI PUSH1 0x40 MLOAD PUSH32 0x8C379A000000000000000000000000000000000000000000000000000000000 DUP2 MSTORE PUSH1 0x4 ADD PUSH2 0xF18 SWAP1 PUSH2 0x2FC8 JUMP JUMPDEST PUSH1 0x40 MLOAD DUP1 SWAP2 SUB SWAP1 REVERT JUMPDEST PUSH32 0x0 PUSH3 0xFFFFFF AND DUP6 PUSH1 0xA0 ADD PUSH1 0x20 DUP2 ADD SWAP1 PUSH2 0xF5A SWAP2 SWAP1 PUSH2 0x2303 JUMP JUMPDEST PUSH3 0xFFFFFF AND EQ ISZERO PUSH2 0x1025 JUMPI DUP5 PUSH1 0x40 ADD CALLDATALOAD PUSH1 0x1 PUSH1 0x0 DUP8 PUSH1 0x20 ADD PUSH1 0x20 DUP2 ADD SWAP1 PUSH2 0xF81 SWAP2 SWAP1 PUSH2 0x21C4 JUMP JUMPDEST PUSH20 0xFFFFFFFFFFFFFFFFFFFFFFFFFFFFFFFFFFFFFFFF AND PUSH20 0xFFFFFFFFFFFFFFFFFFFFFFFFFFFFFFFFFFFFFFFF AND DUP2 MSTORE PUSH1 0x20 ADD SWAP1 DUP2 MSTORE PUSH1 0x20 ADD PUSH1 0x0 KECCAK256 PUSH1 0x0 DUP8 PUSH1 0x60 ADD PUSH1 0x20 DUP2 ADD SWAP1 PUSH2 0xFD0 SWAP2 SWAP1 PUSH2 0x21C4 JUMP JUMPDEST PUSH20 0xFFFFFFFFFFFFFFFFFFFFFFFFFFFFFFFFFFFFFFFF AND PUSH20 0xFFFFFFFFFFFFFFFFFFFFFFFFFFFFFFFFFFFFFFFF AND DUP2 MSTORE PUSH1 0x20 ADD SWAP1 DUP2 MSTORE PUSH1 0x20 ADD PUSH1 0x0 KECCAK256 PUSH1 0x0 DUP3 DUP3 SLOAD PUSH2 0x1019 SWAP2 SWAP1 PUSH2 0x326A JUMP JUMPDEST SWAP3 POP POP DUP2 SWAP1 SSTORE POP PUSH2 0x121C JUMP JUMPDEST DUP5 PUSH1 0x40 ADD CALLDATALOAD DUP2 PUSH1 0x0 ADD MLOAD EQ PUSH2 0x106F JUMPI PUSH1 0x40 MLOAD PUSH32 0x8C379A000000000000000000000000000000000000000000000000000000000 DUP2 MSTORE PUSH1 0x4 ADD PUSH2 0x1066 SWAP1 PUSH2 0x2F08 JUMP JUMPDEST PUSH1 0x40 MLOAD DUP1 SWAP2 SUB SWAP1 REVERT JUMPDEST DUP5 PUSH2 0x140 ADD CALLDATALOAD DUP2 PUSH1 0x20 ADD MLOAD EQ PUSH2 0x10BA JUMPI PUSH1 0x40 MLOAD PUSH32 0x8C379A000000000000000000000000000000000000000000000000000000000 DUP2 MSTORE PUSH1 0x4 ADD PUSH2 0x10B1 SWAP1 PUSH2 0x2E68 JUMP JUMPDEST PUSH1 0x40 MLOAD DUP1 SWAP2 SUB SWAP1 REVERT JUMPDEST PUSH1 0x0 PUSH8 0xFFFFFFFFFFFFFFFF DUP2 GT ISZERO PUSH2 0x10FB JUMPI PUSH32 0x4E487B7100000000000000000000000000000000000000000000000000000000 PUSH1 0x0 MSTORE PUSH1 0x41 PUSH1 0x4 MSTORE PUSH1 0x24 PUSH1 0x0 REVERT JUMPDEST PUSH1 0x40 MLOAD SWAP1 DUP1 DUP3 MSTORE DUP1 PUSH1 0x1F ADD PUSH1 0x1F NOT AND PUSH1 0x20 ADD DUP3 ADD PUSH1 0x40 MSTORE DUP1 ISZERO PUSH2 0x112D JUMPI DUP2 PUSH1 0x20 ADD PUSH1 0x1 DUP3 MUL DUP1 CALLDATASIZE DUP4 CALLDATACOPY DUP1 DUP3 ADD SWAP2 POP POP SWAP1 POP JUMPDEST POP DUP1 MLOAD SWAP1 PUSH1 0x20 ADD KECCAK256 DUP6 DUP1 PUSH2 0x100 ADD SWAP1 PUSH2 0x1146 SWAP2 SWAP1 PUSH2 0x3117 JUMP JUMPDEST PUSH1 0x40 MLOAD PUSH2 0x1154 SWAP3 SWAP2 SWAP1 PUSH2 0x2B5E JUMP JUMPDEST PUSH1 0x40 MLOAD DUP1 SWAP2 SUB SWAP1 KECCAK256 EQ ISZERO PUSH2 0x11D9 JUMPI PUSH2 0x1195 DUP6 PUSH1 0x60 ADD PUSH1 0x20 DUP2 ADD SWAP1 PUSH2 0x1178 SWAP2 SWAP1 PUSH2 0x21C4 JUMP JUMPDEST DUP7 PUSH1 0xE0 ADD PUSH1 0x20 DUP2 ADD SWAP1 PUSH2 0x118B SWAP2 SWAP1 PUSH2 0x21C4 JUMP JUMPDEST DUP8 PUSH1 0x40 ADD CALLDATALOAD PUSH2 0x170C JUMP JUMPDEST PUSH2 0x11D4 JUMPI PUSH1 0x40 MLOAD PUSH32 0x8C379A000000000000000000000000000000000000000000000000000000000 DUP2 MSTORE PUSH1 0x4 ADD PUSH2 0x11CB SWAP1 PUSH2 0x3028 JUMP JUMPDEST PUSH1 0x40 MLOAD DUP1 SWAP2 SUB SWAP1 REVERT JUMPDEST PUSH2 0x121B JUMP JUMPDEST PUSH1 0x0 PUSH2 0x121A JUMPI PUSH1 0x40 MLOAD PUSH32 0x8C379A000000000000000000000000000000000000000000000000000000000 DUP2 MSTORE PUSH1 0x4 ADD PUSH2 0x1211 SWAP1 PUSH2 0x2F88 JUMP JUMPDEST PUSH1 0x40 MLOAD DUP1 SWAP2 SUB SWAP1 REVERT JUMPDEST JUMPDEST JUMPDEST PUSH2 0x1230 DUP3 PUSH1 0x2 PUSH2 0x173F SWAP1 SWAP2 SWAP1 PUSH4 0xFFFFFFFF AND JUMP JUMPDEST PUSH32 0x280DF9EFEEBC705987D91447E4D3D8129DC6DF8FF02E029459F598E7217981E9 DUP6 DUP6 DUP6 CALLER PUSH1 0x40 MLOAD PUSH2 0x1265 SWAP5 SWAP4 SWAP3 SWAP2 SWAP1 PUSH2 0x309A JUMP JUMPDEST PUSH1 0x40 MLOAD DUP1 SWAP2 SUB SWAP1 LOG1 POP POP PUSH1 0x1 PUSH1 0x0 DUP2 SWAP1 SSTORE POP POP POP POP JUMP JUMPDEST PUSH1 0x2 PUSH1 0x0 SLOAD EQ ISZERO PUSH2 0x12C2 JUMPI PUSH1 0x40 MLOAD PUSH32 0x8C379A000000000000000000000000000000000000000000000000000000000 DUP2 MSTORE PUSH1 0x4 ADD PUSH2 0x12B9 SWAP1 PUSH2 0x3008 JUMP JUMPDEST PUSH1 0x40 MLOAD DUP1 SWAP2 SUB SWAP1 REVERT JUMPDEST PUSH1 0x2 PUSH1 0x0 DUP2 SWAP1 SSTORE POP DUP3 PUSH1 0x1 PUSH1 0x0 CALLER PUSH20 0xFFFFFFFFFFFFFFFFFFFFFFFFFFFFFFFFFFFFFFFF AND PUSH20 0xFFFFFFFFFFFFFFFFFFFFFFFFFFFFFFFFFFFFFFFF AND DUP2 MSTORE PUSH1 0x20 ADD SWAP1 DUP2 MSTORE PUSH1 0x20 ADD PUSH1 0x0 KECCAK256 PUSH1 0x0 DUP5 PUSH20 0xFFFFFFFFFFFFFFFFFFFFFFFFFFFFFFFFFFFFFFFF AND PUSH20 0xFFFFFFFFFFFFFFFFFFFFFFFFFFFFFFFFFFFFFFFF AND DUP2 MSTORE PUSH1 0x20 ADD SWAP1 DUP2 MSTORE PUSH1 0x20 ADD PUSH1 0x0 KECCAK256 SLOAD LT ISZERO PUSH2 0x1389 JUMPI PUSH1 0x40 MLOAD PUSH32 0x8C379A000000000000000000000000000000000000000000000000000000000 DUP2 MSTORE PUSH1 0x4 ADD PUSH2 0x1380 SWAP1 PUSH2 0x2F28 JUMP JUMPDEST PUSH1 0x40 MLOAD DUP1 SWAP2 SUB SWAP1 REVERT JUMPDEST DUP3 PUSH1 0x1 PUSH1 0x0 CALLER PUSH20 0xFFFFFFFFFFFFFFFFFFFFFFFFFFFFFFFFFFFFFFFF AND PUSH20 0xFFFFFFFFFFFFFFFFFFFFFFFFFFFFFFFFFFFFFFFF AND DUP2 MSTORE PUSH1 0x20 ADD SWAP1 DUP2 MSTORE PUSH1 0x20 ADD PUSH1 0x0 KECCAK256 PUSH1 0x0 DUP5 PUSH20 0xFFFFFFFFFFFFFFFFFFFFFFFFFFFFFFFFFFFFFFFF AND PUSH20 0xFFFFFFFFFFFFFFFFFFFFFFFFFFFFFFFFFFFFFFFF AND DUP2 MSTORE PUSH1 0x20 ADD SWAP1 DUP2 MSTORE PUSH1 0x20 ADD PUSH1 0x0 KECCAK256 PUSH1 0x0 DUP3 DUP3 SLOAD PUSH2 0x1415 SWAP2 SWAP1 PUSH2 0x32C0 JUMP JUMPDEST SWAP3 POP POP DUP2 SWAP1 SSTORE POP PUSH2 0x1427 DUP3 DUP3 DUP6 PUSH2 0x170C JUMP JUMPDEST PUSH2 0x1466 JUMPI PUSH1 0x40 MLOAD PUSH32 0x8C379A000000000000000000000000000000000000000000000000000000000 DUP2 MSTORE PUSH1 0x4 ADD PUSH2 0x145D SWAP1 PUSH2 0x2E48 JUMP JUMPDEST PUSH1 0x40 MLOAD DUP1 SWAP2 SUB SWAP1 REVERT JUMPDEST PUSH32 0x7DA12116BE8CB7AF4B2D9E9B4A2CA2C3A3243DDD6FD3A94411902367B8EED568 CALLER DUP4 DUP6 DUP5 PUSH1 0x40 MLOAD PUSH2 0x149B SWAP5 SWAP4 SWAP3 SWAP2 SWAP1 PUSH2 0x2BDA JUMP JUMPDEST PUSH1 0x40 MLOAD DUP1 SWAP2 SUB SWAP1 LOG1 PUSH1 0x1 PUSH1 0x0 DUP2 SWAP1 SSTORE POP POP POP POP JUMP JUMPDEST PUSH1 0x0 DUP1 PUSH1 0x40 MLOAD DUP1 PUSH2 0x120 ADD PUSH1 0x40 MSTORE DUP1 DUP5 PUSH1 0x0 ADD PUSH1 0x20 DUP2 ADD SWAP1 PUSH2 0x14D2 SWAP2 SWAP1 PUSH2 0x21C4 JUMP JUMPDEST PUSH20 0xFFFFFFFFFFFFFFFFFFFFFFFFFFFFFFFFFFFFFFFF AND DUP2 MSTORE PUSH1 0x20 ADD DUP5 PUSH1 0x20 ADD PUSH1 0x20 DUP2 ADD SWAP1 PUSH2 0x1500 SWAP2 SWAP1 PUSH2 0x21C4 JUMP JUMPDEST PUSH20 0xFFFFFFFFFFFFFFFFFFFFFFFFFFFFFFFFFFFFFFFF AND DUP2 MSTORE PUSH1 0x20 ADD DUP5 PUSH1 0x60 ADD PUSH1 0x20 DUP2 ADD SWAP1 PUSH2 0x152E SWAP2 SWAP1 PUSH2 0x21C4 JUMP JUMPDEST PUSH20 0xFFFFFFFFFFFFFFFFFFFFFFFFFFFFFFFFFFFFFFFF AND DUP2 MSTORE PUSH1 0x20 ADD DUP5 PUSH1 0x80 ADD PUSH1 0x20 DUP2 ADD SWAP1 PUSH2 0x155C SWAP2 SWAP1 PUSH2 0x21C4 JUMP JUMPDEST PUSH20 0xFFFFFFFFFFFFFFFFFFFFFFFFFFFFFFFFFFFFFFFF AND DUP2 MSTORE PUSH1 0x20 ADD DUP5 PUSH1 0xA0 ADD PUSH1 0x20 DUP2 ADD SWAP1 PUSH2 0x158A SWAP2 SWAP1 PUSH2 0x2303 JUMP JUMPDEST PUSH3 0xFFFFFF AND DUP2 MSTORE PUSH1 0x20 ADD DUP5 PUSH1 0xC0 ADD PUSH1 0x20 DUP2 ADD SWAP1 PUSH2 0x15A7 SWAP2 SWAP1 PUSH2 0x2303 JUMP JUMPDEST PUSH3 0xFFFFFF AND DUP2 MSTORE PUSH1 0x20 ADD DUP5 PUSH1 0xE0 ADD PUSH1 0x20 DUP2 ADD SWAP1 PUSH2 0x15C4 SWAP2 SWAP1 PUSH2 0x21C4 JUMP JUMPDEST PUSH20 0xFFFFFFFFFFFFFFFFFFFFFFFFFFFFFFFFFFFFFFFF AND DUP2 MSTORE PUSH1 0x20 ADD DUP5 DUP1 PUSH2 0x100 ADD SWAP1 PUSH2 0x15F0 SWAP2 SWAP1 PUSH2 0x3117 JUMP JUMPDEST DUP1 DUP1 PUSH1 0x1F ADD PUSH1 0x20 DUP1 SWAP2 DIV MUL PUSH1 0x20 ADD PUSH1 0x40 MLOAD SWAP1 DUP2 ADD PUSH1 0x40 MSTORE DUP1 SWAP4 SWAP3 SWAP2 SWAP1 DUP2 DUP2 MSTORE PUSH1 0x20 ADD DUP4 DUP4 DUP1 DUP3 DUP5 CALLDATACOPY PUSH1 0x0 DUP2 DUP5 ADD MSTORE PUSH1 0x1F NOT PUSH1 0x1F DUP3 ADD AND SWAP1 POP DUP1 DUP4 ADD SWAP3 POP POP POP POP POP POP POP DUP2 MSTORE PUSH1 0x20 ADD DUP5 PUSH2 0x120 ADD CALLDATALOAD DUP2 MSTORE POP SWAP1 POP DUP1 PUSH1 0x40 MLOAD PUSH1 0x20 ADD PUSH2 0x1654 SWAP2 SWAP1 PUSH2 0x3048 JUMP JUMPDEST PUSH1 0x40 MLOAD PUSH1 0x20 DUP2 DUP4 SUB SUB DUP2 MSTORE SWAP1 PUSH1 0x40 MSTORE DUP1 MLOAD SWAP1 PUSH1 0x20 ADD KECCAK256 SWAP2 POP POP SWAP2 SWAP1 POP JUMP JUMPDEST PUSH2 0x167A PUSH2 0x20BC JUMP JUMPDEST PUSH2 0x1684 DUP4 DUP4 PUSH2 0x1C25 JUMP JUMPDEST PUSH2 0x16C3 JUMPI PUSH1 0x40 MLOAD PUSH32 0x8C379A000000000000000000000000000000000000000000000000000000000 DUP2 MSTORE PUSH1 0x4 ADD PUSH2 0x16BA SWAP1 PUSH2 0x2DA8 JUMP JUMPDEST PUSH1 0x40 MLOAD DUP1 SWAP2 SUB SWAP1 REVERT JUMPDEST DUP3 PUSH1 0x0 ADD PUSH1 0x0 DUP4 DUP2 MSTORE PUSH1 0x20 ADD SWAP1 DUP2 MSTORE PUSH1 0x20 ADD PUSH1 0x0 KECCAK256 PUSH1 0x0 ADD PUSH1 0x40 MLOAD DUP1 PUSH1 0x60 ADD PUSH1 0x40 MSTORE SWAP1 DUP2 PUSH1 0x0 DUP3 ADD SLOAD DUP2 MSTORE PUSH1 0x20 ADD PUSH1 0x1 DUP3 ADD SLOAD DUP2 MSTORE PUSH1 0x20 ADD PUSH1 0x2 DUP3 ADD SLOAD DUP2 MSTORE POP POP SWAP1 POP SWAP3 SWAP2 POP POP JUMP JUMPDEST PUSH1 0x0 PUSH2 0x1717 DUP5 PUSH2 0x1949 JUMP JUMPDEST PUSH2 0x172B JUMPI PUSH2 0x1726 DUP5 DUP5 DUP5 PUSH2 0x1CBD JUMP JUMPDEST PUSH2 0x1736 JUMP JUMPDEST PUSH2 0x1735 DUP4 DUP4 PUSH2 0x1CD3 JUMP JUMPDEST JUMPDEST SWAP1 POP SWAP4 SWAP3 POP POP POP JUMP JUMPDEST PUSH2 0x1748 DUP2 PUSH2 0x1D59 JUMP JUMPDEST ISZERO PUSH2 0x1788 JUMPI PUSH1 0x40 MLOAD PUSH32 0x8C379A000000000000000000000000000000000000000000000000000000000 DUP2 MSTORE PUSH1 0x4 ADD PUSH2 0x177F SWAP1 PUSH2 0x2E08 JUMP JUMPDEST PUSH1 0x40 MLOAD DUP1 SWAP2 SUB SWAP1 REVERT JUMPDEST PUSH2 0x1792 DUP3 DUP3 PUSH2 0x1C25 JUMP JUMPDEST PUSH2 0x17D1 JUMPI PUSH1 0x40 MLOAD PUSH32 0x8C379A000000000000000000000000000000000000000000000000000000000 DUP2 MSTORE PUSH1 0x4 ADD PUSH2 0x17C8 SWAP1 PUSH2 0x2DA8 JUMP JUMPDEST PUSH1 0x40 MLOAD DUP1 SWAP2 SUB SWAP1 REVERT JUMPDEST PUSH1 0x0 DUP3 PUSH1 0x0 ADD PUSH1 0x0 DUP4 DUP2 MSTORE PUSH1 0x20 ADD SWAP1 DUP2 MSTORE PUSH1 0x20 ADD PUSH1 0x0 KECCAK256 PUSH1 0x3 ADD SLOAD SWAP1 POP PUSH1 0x0 DUP4 PUSH1 0x1 ADD PUSH1 0x1 DUP6 PUSH1 0x1 ADD DUP1 SLOAD SWAP1 POP PUSH2 0x1808 SWAP2 SWAP1 PUSH2 0x32C0 JUMP JUMPDEST DUP2 SLOAD DUP2 LT PUSH2 0x183F JUMPI PUSH32 0x4E487B7100000000000000000000000000000000000000000000000000000000 PUSH1 0x0 MSTORE PUSH1 0x32 PUSH1 0x4 MSTORE PUSH1 0x24 PUSH1 0x0 REVERT JUMPDEST SWAP1 PUSH1 0x0 MSTORE PUSH1 0x20 PUSH1 0x0 KECCAK256 ADD SLOAD SWAP1 POP DUP2 DUP5 PUSH1 0x0 ADD PUSH1 0x0 DUP4 DUP2 MSTORE PUSH1 0x20 ADD SWAP1 DUP2 MSTORE PUSH1 0x20 ADD PUSH1 0x0 KECCAK256 PUSH1 0x3 ADD DUP2 SWAP1 SSTORE POP DUP1 DUP5 PUSH1 0x1 ADD DUP4 DUP2 SLOAD DUP2 LT PUSH2 0x18A6 JUMPI PUSH32 0x4E487B7100000000000000000000000000000000000000000000000000000000 PUSH1 0x0 MSTORE PUSH1 0x32 PUSH1 0x4 MSTORE PUSH1 0x24 PUSH1 0x0 REVERT JUMPDEST SWAP1 PUSH1 0x0 MSTORE PUSH1 0x20 PUSH1 0x0 KECCAK256 ADD DUP2 SWAP1 SSTORE POP DUP4 PUSH1 0x0 ADD PUSH1 0x0 DUP5 DUP2 MSTORE PUSH1 0x20 ADD SWAP1 DUP2 MSTORE PUSH1 0x20 ADD PUSH1 0x0 KECCAK256 PUSH1 0x0 DUP1 DUP3 ADD PUSH1 0x0 DUP1 DUP3 ADD PUSH1 0x0 SWAP1 SSTORE PUSH1 0x1 DUP3 ADD PUSH1 0x0 SWAP1 SSTORE PUSH1 0x2 DUP3 ADD PUSH1 0x0 SWAP1 SSTORE POP POP PUSH1 0x3 DUP3 ADD PUSH1 0x0 SWAP1 SSTORE POP POP DUP4 PUSH1 0x1 ADD DUP1 SLOAD DUP1 PUSH2 0x192D JUMPI PUSH32 0x4E487B7100000000000000000000000000000000000000000000000000000000 PUSH1 0x0 MSTORE PUSH1 0x31 PUSH1 0x4 MSTORE PUSH1 0x24 PUSH1 0x0 REVERT JUMPDEST PUSH1 0x1 SWAP1 SUB DUP2 DUP2 SWAP1 PUSH1 0x0 MSTORE PUSH1 0x20 PUSH1 0x0 KECCAK256 ADD PUSH1 0x0 SWAP1 SSTORE SWAP1 SSTORE POP POP POP POP JUMP JUMPDEST PUSH1 0x0 DUP1 PUSH20 0xFFFFFFFFFFFFFFFFFFFFFFFFFFFFFFFFFFFFFFFF AND DUP3 PUSH20 0xFFFFFFFFFFFFFFFFFFFFFFFFFFFFFFFFFFFFFFFF AND EQ SWAP1 POP SWAP2 SWAP1 POP JUMP JUMPDEST PUSH1 0x0 PUSH2 0x1A1E DUP6 DUP6 DUP6 DUP6 PUSH1 0x40 MLOAD PUSH1 0x24 ADD PUSH2 0x199C SWAP4 SWAP3 SWAP2 SWAP1 PUSH2 0x2BA3 JUMP JUMPDEST PUSH1 0x40 MLOAD PUSH1 0x20 DUP2 DUP4 SUB SUB DUP2 MSTORE SWAP1 PUSH1 0x40 MSTORE PUSH32 0x23B872DD00000000000000000000000000000000000000000000000000000000 PUSH28 0xFFFFFFFFFFFFFFFFFFFFFFFFFFFFFFFFFFFFFFFFFFFFFFFFFFFFFFFF NOT AND PUSH1 0x20 DUP3 ADD DUP1 MLOAD PUSH28 0xFFFFFFFFFFFFFFFFFFFFFFFFFFFFFFFFFFFFFFFFFFFFFFFFFFFFFFFF DUP4 DUP2 DUP4 AND OR DUP4 MSTORE POP POP POP POP PUSH2 0x1D6F JUMP JUMPDEST SWAP1 POP SWAP5 SWAP4 POP POP POP POP JUMP JUMPDEST PUSH1 0x0 DUP2 PUSH1 0x40 ADD MLOAD SWAP1 POP PUSH2 0x1A3A DUP2 PUSH2 0x1D59 JUMP JUMPDEST ISZERO PUSH2 0x1A7A JUMPI PUSH1 0x40 MLOAD PUSH32 0x8C379A000000000000000000000000000000000000000000000000000000000 DUP2 MSTORE PUSH1 0x4 ADD PUSH2 0x1A71 SWAP1 PUSH2 0x2E08 JUMP JUMPDEST PUSH1 0x40 MLOAD DUP1 SWAP2 SUB SWAP1 REVERT JUMPDEST PUSH2 0x1A84 DUP4 DUP3 PUSH2 0x1C25 JUMP JUMPDEST ISZERO PUSH2 0x1AC4 JUMPI PUSH1 0x40 MLOAD PUSH32 0x8C379A000000000000000000000000000000000000000000000000000000000 DUP2 MSTORE PUSH1 0x4 ADD PUSH2 0x1ABB SWAP1 PUSH2 0x2F68 JUMP JUMPDEST PUSH1 0x40 MLOAD DUP1 SWAP2 SUB SWAP1 REVERT JUMPDEST PUSH1 0x40 MLOAD DUP1 PUSH1 0x40 ADD PUSH1 0x40 MSTORE DUP1 DUP4 DUP2 MSTORE PUSH1 0x20 ADD DUP5 PUSH1 0x1 ADD DUP1 SLOAD SWAP1 POP DUP2 MSTORE POP DUP4 PUSH1 0x0 ADD PUSH1 0x0 DUP4 DUP2 MSTORE PUSH1 0x20 ADD SWAP1 DUP2 MSTORE PUSH1 0x20 ADD PUSH1 0x0 KECCAK256 PUSH1 0x0 DUP3 ADD MLOAD DUP2 PUSH1 0x0 ADD PUSH1 0x0 DUP3 ADD MLOAD DUP2 PUSH1 0x0 ADD SSTORE PUSH1 0x20 DUP3 ADD MLOAD DUP2 PUSH1 0x1 ADD SSTORE PUSH1 0x40 DUP3 ADD MLOAD DUP2 PUSH1 0x2 ADD SSTORE POP POP PUSH1 0x20 DUP3 ADD MLOAD DUP2 PUSH1 0x3 ADD SSTORE SWAP1 POP POP DUP3 PUSH1 0x1 ADD DUP2 SWAP1 DUP1 PUSH1 0x1 DUP2 SLOAD ADD DUP1 DUP3 SSTORE DUP1 SWAP2 POP POP PUSH1 0x1 SWAP1 SUB SWAP1 PUSH1 0x0 MSTORE PUSH1 0x20 PUSH1 0x0 KECCAK256 ADD PUSH1 0x0 SWAP1 SWAP2 SWAP1 SWAP2 SWAP1 SWAP2 POP SSTORE POP POP POP JUMP JUMPDEST PUSH1 0x0 DUP1 PUSH1 0x0 DUP1 PUSH1 0x41 DUP6 MLOAD EQ ISZERO PUSH2 0x1B88 JUMPI PUSH1 0x20 DUP6 ADD MLOAD SWAP3 POP PUSH1 0x40 DUP6 ADD MLOAD SWAP2 POP PUSH1 0x60 DUP6 ADD MLOAD PUSH1 0x0 BYTE SWAP1 POP PUSH2 0x1C0E JUMP JUMPDEST PUSH1 0x40 DUP6 MLOAD EQ ISZERO PUSH2 0x1BD2 JUMPI PUSH1 0x40 DUP6 ADD MLOAD PUSH1 0x20 DUP7 ADD MLOAD SWAP4 POP PUSH32 0x7FFFFFFFFFFFFFFFFFFFFFFFFFFFFFFFFFFFFFFFFFFFFFFFFFFFFFFFFFFFFFFF DUP2 AND SWAP3 POP PUSH1 0x1B DUP2 PUSH1 0xFF SHR ADD SWAP2 POP POP PUSH2 0x1C0D JUMP JUMPDEST PUSH1 0x40 MLOAD PUSH32 0x8C379A000000000000000000000000000000000000000000000000000000000 DUP2 MSTORE PUSH1 0x4 ADD PUSH2 0x1C04 SWAP1 PUSH2 0x2D28 JUMP JUMPDEST PUSH1 0x40 MLOAD DUP1 SWAP2 SUB SWAP1 REVERT JUMPDEST JUMPDEST PUSH2 0x1C1A DUP7 DUP3 DUP6 DUP6 PUSH2 0x1E5C JUMP JUMPDEST SWAP4 POP POP POP POP SWAP3 SWAP2 POP POP JUMP JUMPDEST PUSH1 0x0 PUSH2 0x1C30 DUP3 PUSH2 0x1D59 JUMP JUMPDEST ISZERO DUP1 ISZERO PUSH2 0x1C45 JUMPI POP PUSH1 0x0 DUP4 PUSH1 0x1 ADD DUP1 SLOAD SWAP1 POP EQ ISZERO JUMPDEST DUP1 ISZERO PUSH2 0x1CB5 JUMPI POP PUSH2 0x1CB4 DUP4 PUSH1 0x1 ADD DUP5 PUSH1 0x0 ADD PUSH1 0x0 DUP6 DUP2 MSTORE PUSH1 0x20 ADD SWAP1 DUP2 MSTORE PUSH1 0x20 ADD PUSH1 0x0 KECCAK256 PUSH1 0x3 ADD SLOAD DUP2 SLOAD DUP2 LT PUSH2 0x1CA3 JUMPI PUSH32 0x4E487B7100000000000000000000000000000000000000000000000000000000 PUSH1 0x0 MSTORE PUSH1 0x32 PUSH1 0x4 MSTORE PUSH1 0x24 PUSH1 0x0 REVERT JUMPDEST SWAP1 PUSH1 0x0 MSTORE PUSH1 0x20 PUSH1 0x0 KECCAK256 ADD SLOAD DUP4 PUSH2 0x1FE7 JUMP JUMPDEST JUMPDEST SWAP1 POP SWAP3 SWAP2 POP POP JUMP JUMPDEST PUSH1 0x0 PUSH2 0x1CCA DUP5 DUP5 DUP5 PUSH2 0x1FF4 JUMP JUMPDEST SWAP1 POP SWAP4 SWAP3 POP POP POP JUMP JUMPDEST PUSH1 0x0 DUP1 PUSH1 0x0 DUP5 PUSH20 0xFFFFFFFFFFFFFFFFFFFFFFFFFFFFFFFFFFFFFFFF AND DUP5 PUSH1 0x40 MLOAD PUSH2 0x1CFC SWAP1 PUSH2 0x2B8E JUMP JUMPDEST PUSH1 0x0 PUSH1 0x40 MLOAD DUP1 DUP4 SUB DUP2 DUP6 DUP8 GAS CALL SWAP3 POP POP POP RETURNDATASIZE DUP1 PUSH1 0x0 DUP2 EQ PUSH2 0x1D39 JUMPI PUSH1 0x40 MLOAD SWAP2 POP PUSH1 0x1F NOT PUSH1 0x3F RETURNDATASIZE ADD AND DUP3 ADD PUSH1 0x40 MSTORE RETURNDATASIZE DUP3 MSTORE RETURNDATASIZE PUSH1 0x0 PUSH1 0x20 DUP5 ADD RETURNDATACOPY PUSH2 0x1D3E JUMP JUMPDEST PUSH1 0x60 SWAP2 POP JUMPDEST POP SWAP2 POP SWAP2 POP PUSH2 0x1D4D DUP3 DUP3 PUSH2 0x2098 JUMP JUMPDEST PUSH1 0x1 SWAP3 POP POP POP SWAP3 SWAP2 POP POP JUMP JUMPDEST PUSH1 0x0 PUSH2 0x1D68 DUP3 PUSH1 0x0 DUP1 SHL PUSH2 0x1FE7 JUMP JUMPDEST SWAP1 POP SWAP2 SWAP1 POP JUMP JUMPDEST PUSH1 0x0 PUSH2 0x1D7A DUP4 PUSH2 0x20A9 JUMP JUMPDEST PUSH2 0x1DB9 JUMPI PUSH1 0x40 MLOAD PUSH32 0x8C379A000000000000000000000000000000000000000000000000000000000 DUP2 MSTORE PUSH1 0x4 ADD PUSH2 0x1DB0 SWAP1 PUSH2 0x2EA8 JUMP JUMPDEST PUSH1 0x40 MLOAD DUP1 SWAP2 SUB SWAP1 REVERT JUMPDEST PUSH1 0x0 DUP1 DUP5 PUSH20 0xFFFFFFFFFFFFFFFFFFFFFFFFFFFFFFFFFFFFFFFF AND DUP5 PUSH1 0x40 MLOAD PUSH2 0x1DE1 SWAP2 SWAP1 PUSH2 0x2B77 JUMP JUMPDEST PUSH1 0x0 PUSH1 0x40 MLOAD DUP1 DUP4 SUB DUP2 PUSH1 0x0 DUP7 GAS CALL SWAP2 POP POP RETURNDATASIZE DUP1 PUSH1 0x0 DUP2 EQ PUSH2 0x1E1E JUMPI PUSH1 0x40 MLOAD SWAP2 POP PUSH1 0x1F NOT PUSH1 0x3F RETURNDATASIZE ADD AND DUP3 ADD PUSH1 0x40 MSTORE RETURNDATASIZE DUP3 MSTORE RETURNDATASIZE PUSH1 0x0 PUSH1 0x20 DUP5 ADD RETURNDATACOPY PUSH2 0x1E23 JUMP JUMPDEST PUSH1 0x60 SWAP2 POP JUMPDEST POP SWAP2 POP SWAP2 POP PUSH2 0x1E32 DUP3 DUP3 PUSH2 0x2098 JUMP JUMPDEST PUSH1 0x0 DUP2 MLOAD EQ DUP1 PUSH2 0x1E52 JUMPI POP DUP1 DUP1 PUSH1 0x20 ADD SWAP1 MLOAD DUP2 ADD SWAP1 PUSH2 0x1E51 SWAP2 SWAP1 PUSH2 0x2229 JUMP JUMPDEST JUMPDEST SWAP3 POP POP POP SWAP3 SWAP2 POP POP JUMP JUMPDEST PUSH1 0x0 PUSH32 0x7FFFFFFFFFFFFFFFFFFFFFFFFFFFFFFF5D576E7357A4501DDFE92F46681B20A0 DUP3 PUSH1 0x0 SHR GT ISZERO PUSH2 0x1EC4 JUMPI PUSH1 0x40 MLOAD PUSH32 0x8C379A000000000000000000000000000000000000000000000000000000000 DUP2 MSTORE PUSH1 0x4 ADD PUSH2 0x1EBB SWAP1 PUSH2 0x2DC8 JUMP JUMPDEST PUSH1 0x40 MLOAD DUP1 SWAP2 SUB SWAP1 REVERT JUMPDEST PUSH1 0x1B DUP5 PUSH1 0xFF AND EQ DUP1 PUSH2 0x1ED9 JUMPI POP PUSH1 0x1C DUP5 PUSH1 0xFF AND EQ JUMPDEST PUSH2 0x1F18 JUMPI PUSH1 0x40 MLOAD PUSH32 0x8C379A000000000000000000000000000000000000000000000000000000000 DUP2 MSTORE PUSH1 0x4 ADD PUSH2 0x1F0F SWAP1 PUSH2 0x2E88 JUMP JUMPDEST PUSH1 0x40 MLOAD DUP1 SWAP2 SUB SWAP1 REVERT JUMPDEST PUSH1 0x0 PUSH1 0x1 DUP7 DUP7 DUP7 DUP7 PUSH1 0x40 MLOAD PUSH1 0x0 DUP2 MSTORE PUSH1 0x20 ADD PUSH1 0x40 MSTORE PUSH1 0x40 MLOAD PUSH2 0x1F3D SWAP5 SWAP4 SWAP3 SWAP2 SWAP1 PUSH2 0x2C63 JUMP JUMPDEST PUSH1 0x20 PUSH1 0x40 MLOAD PUSH1 0x20 DUP2 SUB SWAP1 DUP1 DUP5 SUB SWAP1 DUP6 GAS STATICCALL ISZERO DUP1 ISZERO PUSH2 0x1F5F JUMPI RETURNDATASIZE PUSH1 0x0 DUP1 RETURNDATACOPY RETURNDATASIZE PUSH1 0x0 REVERT JUMPDEST POP POP POP PUSH1 0x20 PUSH1 0x40 MLOAD SUB MLOAD SWAP1 POP PUSH1 0x0 PUSH20 0xFFFFFFFFFFFFFFFFFFFFFFFFFFFFFFFFFFFFFFFF AND DUP2 PUSH20 0xFFFFFFFFFFFFFFFFFFFFFFFFFFFFFFFFFFFFFFFF AND EQ ISZERO PUSH2 0x1FDB JUMPI PUSH1 0x40 MLOAD PUSH32 0x8C379A000000000000000000000000000000000000000000000000000000000 DUP2 MSTORE PUSH1 0x4 ADD PUSH2 0x1FD2 SWAP1 PUSH2 0x2CA8 JUMP JUMPDEST PUSH1 0x40 MLOAD DUP1 SWAP2 SUB SWAP1 REVERT JUMPDEST DUP1 SWAP2 POP POP SWAP5 SWAP4 POP POP POP POP JUMP JUMPDEST PUSH1 0x0 DUP2 DUP4 EQ SWAP1 POP SWAP3 SWAP2 POP POP JUMP JUMPDEST PUSH1 0x0 PUSH2 0x208F DUP5 DUP5 DUP5 PUSH1 0x40 MLOAD PUSH1 0x24 ADD PUSH2 0x200D SWAP3 SWAP2 SWAP1 PUSH2 0x2C1F JUMP JUMPDEST PUSH1 0x40 MLOAD PUSH1 0x20 DUP2 DUP4 SUB SUB DUP2 MSTORE SWAP1 PUSH1 0x40 MSTORE PUSH32 0xA9059CBB00000000000000000000000000000000000000000000000000000000 PUSH28 0xFFFFFFFFFFFFFFFFFFFFFFFFFFFFFFFFFFFFFFFFFFFFFFFFFFFFFFFF NOT AND PUSH1 0x20 DUP3 ADD DUP1 MLOAD PUSH28 0xFFFFFFFFFFFFFFFFFFFFFFFFFFFFFFFFFFFFFFFFFFFFFFFFFFFFFFFF DUP4 DUP2 DUP4 AND OR DUP4 MSTORE POP POP POP POP PUSH2 0x1D6F JUMP JUMPDEST SWAP1 POP SWAP4 SWAP3 POP POP POP JUMP JUMPDEST DUP2 PUSH2 0x20A5 JUMPI DUP1 MLOAD PUSH1 0x20 DUP3 ADD REVERT JUMPDEST POP POP JUMP JUMPDEST PUSH1 0x0 DUP1 DUP3 EXTCODESIZE SWAP1 POP PUSH1 0x0 DUP2 GT SWAP2 POP POP SWAP2 SWAP1 POP JUMP JUMPDEST PUSH1 0x40 MLOAD DUP1 PUSH1 0x60 ADD PUSH1 0x40 MSTORE DUP1 PUSH1 0x0 DUP2 MSTORE PUSH1 0x20 ADD PUSH1 0x0 DUP2 MSTORE PUSH1 0x20 ADD PUSH1 0x0 DUP1 NOT AND DUP2 MSTORE POP SWAP1 JUMP JUMPDEST PUSH1 0x0 DUP2 CALLDATALOAD SWAP1 POP PUSH2 0x20EF DUP2 PUSH2 0x39DE JUMP JUMPDEST SWAP3 SWAP2 POP POP JUMP JUMPDEST PUSH1 0x0 DUP2 CALLDATALOAD SWAP1 POP PUSH2 0x2104 DUP2 PUSH2 0x39F5 JUMP JUMPDEST SWAP3 SWAP2 POP POP JUMP JUMPDEST PUSH1 0x0 DUP2 MLOAD SWAP1 POP PUSH2 0x2119 DUP2 PUSH2 0x3A0C JUMP JUMPDEST SWAP3 SWAP2 POP POP JUMP JUMPDEST PUSH1 0x0 DUP2 CALLDATALOAD SWAP1 POP PUSH2 0x212E DUP2 PUSH2 0x3A23 JUMP JUMPDEST SWAP3 SWAP2 POP POP JUMP JUMPDEST PUSH1 0x0 DUP1 DUP4 PUSH1 0x1F DUP5 ADD SLT PUSH2 0x2146 JUMPI PUSH1 0x0 DUP1 REVERT JUMPDEST DUP3 CALLDATALOAD SWAP1 POP PUSH8 0xFFFFFFFFFFFFFFFF DUP2 GT ISZERO PUSH2 0x215F JUMPI PUSH1 0x0 DUP1 REVERT JUMPDEST PUSH1 0x20 DUP4 ADD SWAP2 POP DUP4 PUSH1 0x1 DUP3 MUL DUP4 ADD GT ISZERO PUSH2 0x2177 JUMPI PUSH1 0x0 DUP1 REVERT JUMPDEST SWAP3 POP SWAP3 SWAP1 POP JUMP JUMPDEST PUSH1 0x0 PUSH2 0x160 DUP3 DUP5 SUB SLT ISZERO PUSH2 0x2191 JUMPI PUSH1 0x0 DUP1 REVERT JUMPDEST DUP2 SWAP1 POP SWAP3 SWAP2 POP POP JUMP JUMPDEST PUSH1 0x0 DUP2 CALLDATALOAD SWAP1 POP PUSH2 0x21A9 DUP2 PUSH2 0x3A3A JUMP JUMPDEST SWAP3 SWAP2 POP POP JUMP JUMPDEST PUSH1 0x0 DUP2 CALLDATALOAD SWAP1 POP PUSH2 0x21BE DUP2 PUSH2 0x3A51 JUMP JUMPDEST SWAP3 SWAP2 POP POP JUMP JUMPDEST PUSH1 0x0 PUSH1 0x20 DUP3 DUP5 SUB SLT ISZERO PUSH2 0x21D6 JUMPI PUSH1 0x0 DUP1 REVERT JUMPDEST PUSH1 0x0 PUSH2 0x21E4 DUP5 DUP3 DUP6 ADD PUSH2 0x20E0 JUMP JUMPDEST SWAP2 POP POP SWAP3 SWAP2 POP POP JUMP JUMPDEST PUSH1 0x0 DUP1 PUSH1 0x40 DUP4 DUP6 SUB SLT ISZERO PUSH2 0x2200 JUMPI PUSH1 0x0 DUP1 REVERT JUMPDEST PUSH1 0x0 PUSH2 0x220E DUP6 DUP3 DUP7 ADD PUSH2 0x20E0 JUMP JUMPDEST SWAP3 POP POP PUSH1 0x20 PUSH2 0x221F DUP6 DUP3 DUP7 ADD PUSH2 0x20E0 JUMP JUMPDEST SWAP2 POP POP SWAP3 POP SWAP3 SWAP1 POP JUMP JUMPDEST PUSH1 0x0 PUSH1 0x20 DUP3 DUP5 SUB SLT ISZERO PUSH2 0x223B JUMPI PUSH1 0x0 DUP1 REVERT JUMPDEST PUSH1 0x0 PUSH2 0x2249 DUP5 DUP3 DUP6 ADD PUSH2 0x210A JUMP JUMPDEST SWAP2 POP POP SWAP3 SWAP2 POP POP JUMP JUMPDEST PUSH1 0x0 PUSH1 0x20 DUP3 DUP5 SUB SLT ISZERO PUSH2 0x2264 JUMPI PUSH1 0x0 DUP1 REVERT JUMPDEST PUSH1 0x0 DUP3 ADD CALLDATALOAD PUSH8 0xFFFFFFFFFFFFFFFF DUP2 GT ISZERO PUSH2 0x227E JUMPI PUSH1 0x0 DUP1 REVERT JUMPDEST PUSH2 0x228A DUP5 DUP3 DUP6 ADD PUSH2 0x217E JUMP JUMPDEST SWAP2 POP POP SWAP3 SWAP2 POP POP JUMP JUMPDEST PUSH1 0x0 DUP1 PUSH1 0x0 PUSH1 0x40 DUP5 DUP7 SUB SLT ISZERO PUSH2 0x22A8 JUMPI PUSH1 0x0 DUP1 REVERT JUMPDEST PUSH1 0x0 DUP5 ADD CALLDATALOAD PUSH8 0xFFFFFFFFFFFFFFFF DUP2 GT ISZERO PUSH2 0x22C2 JUMPI PUSH1 0x0 DUP1 REVERT JUMPDEST PUSH2 0x22CE DUP7 DUP3 DUP8 ADD PUSH2 0x217E JUMP JUMPDEST SWAP4 POP POP PUSH1 0x20 DUP5 ADD CALLDATALOAD PUSH8 0xFFFFFFFFFFFFFFFF DUP2 GT ISZERO PUSH2 0x22EB JUMPI PUSH1 0x0 DUP1 REVERT JUMPDEST PUSH2 0x22F7 DUP7 DUP3 DUP8 ADD PUSH2 0x2134 JUMP JUMPDEST SWAP3 POP SWAP3 POP POP SWAP3 POP SWAP3 POP SWAP3 JUMP JUMPDEST PUSH1 0x0 PUSH1 0x20 DUP3 DUP5 SUB SLT ISZERO PUSH2 0x2315 JUMPI PUSH1 0x0 DUP1 REVERT JUMPDEST PUSH1 0x0 PUSH2 0x2323 DUP5 DUP3 DUP6 ADD PUSH2 0x219A JUMP JUMPDEST SWAP2 POP POP SWAP3 SWAP2 POP POP JUMP JUMPDEST PUSH1 0x0 DUP1 PUSH1 0x40 DUP4 DUP6 SUB SLT ISZERO PUSH2 0x233F JUMPI PUSH1 0x0 DUP1 REVERT JUMPDEST PUSH1 0x0 PUSH2 0x234D DUP6 DUP3 DUP7 ADD PUSH2 0x21AF JUMP JUMPDEST SWAP3 POP POP PUSH1 0x20 PUSH2 0x235E DUP6 DUP3 DUP7 ADD PUSH2 0x20E0 JUMP JUMPDEST SWAP2 POP POP SWAP3 POP SWAP3 SWAP1 POP JUMP JUMPDEST PUSH1 0x0 DUP1 PUSH1 0x0 PUSH1 0x60 DUP5 DUP7 SUB SLT ISZERO PUSH2 0x237D JUMPI PUSH1 0x0 DUP1 REVERT JUMPDEST PUSH1 0x0 PUSH2 0x238B DUP7 DUP3 DUP8 ADD PUSH2 0x21AF JUMP JUMPDEST SWAP4 POP POP PUSH1 0x20 PUSH2 0x239C DUP7 DUP3 DUP8 ADD PUSH2 0x20E0 JUMP JUMPDEST SWAP3 POP POP PUSH1 0x40 PUSH2 0x23AD DUP7 DUP3 DUP8 ADD PUSH2 0x20F5 JUMP JUMPDEST SWAP2 POP POP SWAP3 POP SWAP3 POP SWAP3 JUMP JUMPDEST PUSH2 0x23C0 DUP2 PUSH2 0x3374 JUMP JUMPDEST DUP3 MSTORE POP POP JUMP JUMPDEST PUSH2 0x23CF DUP2 PUSH2 0x32F4 JUMP JUMPDEST DUP3 MSTORE POP POP JUMP JUMPDEST PUSH2 0x23DE DUP2 PUSH2 0x32F4 JUMP JUMPDEST DUP3 MSTORE POP POP JUMP JUMPDEST PUSH2 0x23ED DUP2 PUSH2 0x3324 JUMP JUMPDEST DUP3 MSTORE POP POP JUMP JUMPDEST PUSH2 0x23FC DUP2 PUSH2 0x3324 JUMP JUMPDEST DUP3 MSTORE POP POP JUMP JUMPDEST PUSH1 0x0 PUSH2 0x240E DUP4 DUP6 PUSH2 0x3179 JUMP JUMPDEST SWAP4 POP PUSH2 0x241B DUP4 DUP6 DUP5 PUSH2 0x33AA JUMP JUMPDEST PUSH2 0x2424 DUP4 PUSH2 0x341B JUMP JUMPDEST DUP5 ADD SWAP1 POP SWAP4 SWAP3 POP POP POP JUMP JUMPDEST PUSH1 0x0 PUSH2 0x243B DUP4 DUP6 PUSH2 0x318A JUMP JUMPDEST SWAP4 POP PUSH2 0x2448 DUP4 DUP6 DUP5 PUSH2 0x33AA JUMP JUMPDEST PUSH2 0x2451 DUP4 PUSH2 0x341B JUMP JUMPDEST DUP5 ADD SWAP1 POP SWAP4 SWAP3 POP POP POP JUMP JUMPDEST PUSH1 0x0 PUSH2 0x2468 DUP4 DUP6 PUSH2 0x319B JUMP JUMPDEST SWAP4 POP PUSH2 0x2475 DUP4 DUP6 DUP5 PUSH2 0x33AA JUMP JUMPDEST DUP3 DUP5 ADD SWAP1 POP SWAP4 SWAP3 POP POP POP JUMP JUMPDEST PUSH1 0x0 PUSH2 0x248C DUP3 PUSH2 0x316E JUMP JUMPDEST PUSH2 0x2496 DUP2 DUP6 PUSH2 0x3179 JUMP JUMPDEST SWAP4 POP PUSH2 0x24A6 DUP2 DUP6 PUSH1 0x20 DUP7 ADD PUSH2 0x33B9 JUMP JUMPDEST PUSH2 0x24AF DUP2 PUSH2 0x341B JUMP JUMPDEST DUP5 ADD SWAP2 POP POP SWAP3 SWAP2 POP POP JUMP JUMPDEST PUSH1 0x0 PUSH2 0x24C5 DUP3 PUSH2 0x316E JUMP JUMPDEST PUSH2 0x24CF DUP2 DUP6 PUSH2 0x319B JUMP JUMPDEST SWAP4 POP PUSH2 0x24DF DUP2 DUP6 PUSH1 0x20 DUP7 ADD PUSH2 0x33B9 JUMP JUMPDEST DUP1 DUP5 ADD SWAP2 POP POP SWAP3 SWAP2 POP POP JUMP JUMPDEST PUSH1 0x0 PUSH2 0x24F8 PUSH1 0x18 DUP4 PUSH2 0x31A6 JUMP JUMPDEST SWAP2 POP PUSH2 0x2503 DUP3 PUSH2 0x342C JUMP JUMPDEST PUSH1 0x20 DUP3 ADD SWAP1 POP SWAP2 SWAP1 POP JUMP JUMPDEST PUSH1 0x0 PUSH2 0x251B PUSH1 0x1E DUP4 PUSH2 0x31A6 JUMP JUMPDEST SWAP2 POP PUSH2 0x2526 DUP3 PUSH2 0x3455 JUMP JUMPDEST PUSH1 0x20 DUP3 ADD SWAP1 POP SWAP2 SWAP1 POP JUMP JUMPDEST PUSH1 0x0 PUSH2 0x253E PUSH1 0x18 DUP4 PUSH2 0x31A6 JUMP JUMPDEST SWAP2 POP PUSH2 0x2549 DUP3 PUSH2 0x347E JUMP JUMPDEST PUSH1 0x20 DUP3 ADD SWAP1 POP SWAP2 SWAP1 POP JUMP JUMPDEST PUSH1 0x0 PUSH2 0x2561 PUSH1 0x18 DUP4 PUSH2 0x31A6 JUMP JUMPDEST SWAP2 POP PUSH2 0x256C DUP3 PUSH2 0x34A7 JUMP JUMPDEST PUSH1 0x20 DUP3 ADD SWAP1 POP SWAP2 SWAP1 POP JUMP JUMPDEST PUSH1 0x0 PUSH2 0x2584 PUSH1 0x1F DUP4 PUSH2 0x31A6 JUMP JUMPDEST SWAP2 POP PUSH2 0x258F DUP3 PUSH2 0x34D0 JUMP JUMPDEST PUSH1 0x20 DUP3 ADD SWAP1 POP SWAP2 SWAP1 POP JUMP JUMPDEST PUSH1 0x0 PUSH2 0x25A7 PUSH1 0x23 DUP4 PUSH2 0x31A6 JUMP JUMPDEST SWAP2 POP PUSH2 0x25B2 DUP3 PUSH2 0x34F9 JUMP JUMPDEST PUSH1 0x40 DUP3 ADD SWAP1 POP SWAP2 SWAP1 POP JUMP JUMPDEST PUSH1 0x0 PUSH2 0x25CA PUSH1 0x19 DUP4 PUSH2 0x31A6 JUMP JUMPDEST SWAP2 POP PUSH2 0x25D5 DUP3 PUSH2 0x3548 JUMP JUMPDEST PUSH1 0x20 DUP3 ADD SWAP1 POP SWAP2 SWAP1 POP JUMP JUMPDEST PUSH1 0x0 PUSH2 0x25ED PUSH1 0x17 DUP4 PUSH2 0x31A6 JUMP JUMPDEST SWAP2 POP PUSH2 0x25F8 DUP3 PUSH2 0x3571 JUMP JUMPDEST PUSH1 0x20 DUP3 ADD SWAP1 POP SWAP2 SWAP1 POP JUMP JUMPDEST PUSH1 0x0 PUSH2 0x2610 PUSH1 0x24 DUP4 PUSH2 0x31A6 JUMP JUMPDEST SWAP2 POP PUSH2 0x261B DUP3 PUSH2 0x359A JUMP JUMPDEST PUSH1 0x40 DUP3 ADD SWAP1 POP SWAP2 SWAP1 POP JUMP JUMPDEST PUSH1 0x0 PUSH2 0x2633 PUSH1 0x22 DUP4 PUSH2 0x31A6 JUMP JUMPDEST SWAP2 POP PUSH2 0x263E DUP3 PUSH2 0x35E9 JUMP JUMPDEST PUSH1 0x40 DUP3 ADD SWAP1 POP SWAP2 SWAP1 POP JUMP JUMPDEST PUSH1 0x0 PUSH2 0x2656 PUSH1 0x20 DUP4 PUSH2 0x31A6 JUMP JUMPDEST SWAP2 POP PUSH2 0x2661 DUP3 PUSH2 0x3638 JUMP JUMPDEST PUSH1 0x20 DUP3 ADD SWAP1 POP SWAP2 SWAP1 POP JUMP JUMPDEST PUSH1 0x0 PUSH2 0x2679 PUSH1 0x20 DUP4 PUSH2 0x31A6 JUMP JUMPDEST SWAP2 POP PUSH2 0x2684 DUP3 PUSH2 0x3661 JUMP JUMPDEST PUSH1 0x20 DUP3 ADD SWAP1 POP SWAP2 SWAP1 POP JUMP JUMPDEST PUSH1 0x0 PUSH2 0x269C PUSH1 0x17 DUP4 PUSH2 0x31A6 JUMP JUMPDEST SWAP2 POP PUSH2 0x26A7 DUP3 PUSH2 0x368A JUMP JUMPDEST PUSH1 0x20 DUP3 ADD SWAP1 POP SWAP2 SWAP1 POP JUMP JUMPDEST PUSH1 0x0 PUSH2 0x26BF PUSH1 0x20 DUP4 PUSH2 0x31A6 JUMP JUMPDEST SWAP2 POP PUSH2 0x26CA DUP3 PUSH2 0x36B3 JUMP JUMPDEST PUSH1 0x20 DUP3 ADD SWAP1 POP SWAP2 SWAP1 POP JUMP JUMPDEST PUSH1 0x0 PUSH2 0x26E2 PUSH1 0x16 DUP4 PUSH2 0x31A6 JUMP JUMPDEST SWAP2 POP PUSH2 0x26ED DUP3 PUSH2 0x36DC JUMP JUMPDEST PUSH1 0x20 DUP3 ADD SWAP1 POP SWAP2 SWAP1 POP JUMP JUMPDEST PUSH1 0x0 PUSH2 0x2705 PUSH1 0x22 DUP4 PUSH2 0x31A6 JUMP JUMPDEST SWAP2 POP PUSH2 0x2710 DUP3 PUSH2 0x3705 JUMP JUMPDEST PUSH1 0x40 DUP3 ADD SWAP1 POP SWAP2 SWAP1 POP JUMP JUMPDEST PUSH1 0x0 PUSH2 0x2728 PUSH1 0x11 DUP4 PUSH2 0x31A6 JUMP JUMPDEST SWAP2 POP PUSH2 0x2733 DUP3 PUSH2 0x3754 JUMP JUMPDEST PUSH1 0x20 DUP3 ADD SWAP1 POP SWAP2 SWAP1 POP JUMP JUMPDEST PUSH1 0x0 PUSH2 0x274B PUSH1 0x18 DUP4 PUSH2 0x31A6 JUMP JUMPDEST SWAP2 POP PUSH2 0x2756 DUP3 PUSH2 0x377D JUMP JUMPDEST PUSH1 0x20 DUP3 ADD SWAP1 POP SWAP2 SWAP1 POP JUMP JUMPDEST PUSH1 0x0 PUSH2 0x276E PUSH1 0x1E DUP4 PUSH2 0x31A6 JUMP JUMPDEST SWAP2 POP PUSH2 0x2779 DUP3 PUSH2 0x37A6 JUMP JUMPDEST PUSH1 0x20 DUP3 ADD SWAP1 POP SWAP2 SWAP1 POP JUMP JUMPDEST PUSH1 0x0 PUSH2 0x2791 PUSH1 0x16 DUP4 PUSH2 0x31A6 JUMP JUMPDEST SWAP2 POP PUSH2 0x279C DUP3 PUSH2 0x37CF JUMP JUMPDEST PUSH1 0x20 DUP3 ADD SWAP1 POP SWAP2 SWAP1 POP JUMP JUMPDEST PUSH1 0x0 PUSH2 0x27B4 PUSH1 0x23 DUP4 PUSH2 0x31A6 JUMP JUMPDEST SWAP2 POP PUSH2 0x27BF DUP3 PUSH2 0x37F8 JUMP JUMPDEST PUSH1 0x40 DUP3 ADD SWAP1 POP SWAP2 SWAP1 POP JUMP JUMPDEST PUSH1 0x0 PUSH2 0x27D7 PUSH1 0x23 DUP4 PUSH2 0x31A6 JUMP JUMPDEST SWAP2 POP PUSH2 0x27E2 DUP3 PUSH2 0x3847 JUMP JUMPDEST PUSH1 0x40 DUP3 ADD SWAP1 POP SWAP2 SWAP1 POP JUMP JUMPDEST PUSH1 0x0 PUSH2 0x27FA PUSH1 0x28 DUP4 PUSH2 0x31A6 JUMP JUMPDEST SWAP2 POP PUSH2 0x2805 DUP3 PUSH2 0x3896 JUMP JUMPDEST PUSH1 0x40 DUP3 ADD SWAP1 POP SWAP2 SWAP1 POP JUMP JUMPDEST PUSH1 0x0 PUSH2 0x281D PUSH1 0x1E DUP4 PUSH2 0x31A6 JUMP JUMPDEST SWAP2 POP PUSH2 0x2828 DUP3 PUSH2 0x38E5 JUMP JUMPDEST PUSH1 0x20 DUP3 ADD SWAP1 POP SWAP2 SWAP1 POP JUMP JUMPDEST PUSH1 0x0 PUSH2 0x2840 PUSH1 0x0 DUP4 PUSH2 0x319B JUMP JUMPDEST SWAP2 POP PUSH2 0x284B DUP3 PUSH2 0x390E JUMP JUMPDEST PUSH1 0x0 DUP3 ADD SWAP1 POP SWAP2 SWAP1 POP JUMP JUMPDEST PUSH1 0x0 PUSH2 0x2863 PUSH1 0x1F DUP4 PUSH2 0x31A6 JUMP JUMPDEST SWAP2 POP PUSH2 0x286E DUP3 PUSH2 0x3911 JUMP JUMPDEST PUSH1 0x20 DUP3 ADD SWAP1 POP SWAP2 SWAP1 POP JUMP JUMPDEST PUSH1 0x0 PUSH2 0x2886 PUSH1 0x1A DUP4 PUSH2 0x31A6 JUMP JUMPDEST SWAP2 POP PUSH2 0x2891 DUP3 PUSH2 0x393A JUMP JUMPDEST PUSH1 0x20 DUP3 ADD SWAP1 POP SWAP2 SWAP1 POP JUMP JUMPDEST PUSH1 0x0 PUSH2 0x28A9 PUSH1 0x1C DUP4 PUSH2 0x31A6 JUMP JUMPDEST SWAP2 POP PUSH2 0x28B4 DUP3 PUSH2 0x3963 JUMP JUMPDEST PUSH1 0x20 DUP3 ADD SWAP1 POP SWAP2 SWAP1 POP JUMP JUMPDEST PUSH1 0x0 PUSH2 0x28CC PUSH1 0x1F DUP4 PUSH2 0x31A6 JUMP JUMPDEST SWAP2 POP PUSH2 0x28D7 DUP3 PUSH2 0x398C JUMP JUMPDEST PUSH1 0x20 DUP3 ADD SWAP1 POP SWAP2 SWAP1 POP JUMP JUMPDEST PUSH1 0x0 PUSH2 0x28EF PUSH1 0x18 DUP4 PUSH2 0x31A6 JUMP JUMPDEST SWAP2 POP PUSH2 0x28FA DUP3 PUSH2 0x39B5 JUMP JUMPDEST PUSH1 0x20 DUP3 ADD SWAP1 POP SWAP2 SWAP1 POP JUMP JUMPDEST PUSH1 0x0 PUSH2 0x120 DUP4 ADD PUSH1 0x0 DUP4 ADD MLOAD PUSH2 0x291E PUSH1 0x0 DUP7 ADD DUP3 PUSH2 0x23C6 JUMP JUMPDEST POP PUSH1 0x20 DUP4 ADD MLOAD PUSH2 0x2931 PUSH1 0x20 DUP7 ADD DUP3 PUSH2 0x23C6 JUMP JUMPDEST POP PUSH1 0x40 DUP4 ADD MLOAD PUSH2 0x2944 PUSH1 0x40 DUP7 ADD DUP3 PUSH2 0x23C6 JUMP JUMPDEST POP PUSH1 0x60 DUP4 ADD MLOAD PUSH2 0x2957 PUSH1 0x60 DUP7 ADD DUP3 PUSH2 0x23C6 JUMP JUMPDEST POP PUSH1 0x80 DUP4 ADD MLOAD PUSH2 0x296A PUSH1 0x80 DUP7 ADD DUP3 PUSH2 0x2B13 JUMP JUMPDEST POP PUSH1 0xA0 DUP4 ADD MLOAD PUSH2 0x297D PUSH1 0xA0 DUP7 ADD DUP3 PUSH2 0x2B13 JUMP JUMPDEST POP PUSH1 0xC0 DUP4 ADD MLOAD PUSH2 0x2990 PUSH1 0xC0 DUP7 ADD DUP3 PUSH2 0x23C6 JUMP JUMPDEST POP PUSH1 0xE0 DUP4 ADD MLOAD DUP5 DUP3 SUB PUSH1 0xE0 DUP7 ADD MSTORE PUSH2 0x29A8 DUP3 DUP3 PUSH2 0x2481 JUMP JUMPDEST SWAP2 POP POP PUSH2 0x100 DUP4 ADD MLOAD PUSH2 0x29BF PUSH2 0x100 DUP7 ADD DUP3 PUSH2 0x23E4 JUMP JUMPDEST POP DUP1 SWAP2 POP POP SWAP3 SWAP2 POP POP JUMP JUMPDEST PUSH1 0x0 PUSH2 0x160 DUP4 ADD PUSH2 0x29DE PUSH1 0x0 DUP5 ADD DUP5 PUSH2 0x31B7 JUMP JUMPDEST PUSH2 0x29EB PUSH1 0x0 DUP7 ADD DUP3 PUSH2 0x23C6 JUMP JUMPDEST POP PUSH2 0x29F9 PUSH1 0x20 DUP5 ADD DUP5 PUSH2 0x31B7 JUMP JUMPDEST PUSH2 0x2A06 PUSH1 0x20 DUP7 ADD DUP3 PUSH2 0x23C6 JUMP JUMPDEST POP PUSH2 0x2A14 PUSH1 0x40 DUP5 ADD DUP5 PUSH2 0x3253 JUMP JUMPDEST PUSH2 0x2A21 PUSH1 0x40 DUP7 ADD DUP3 PUSH2 0x2B31 JUMP JUMPDEST POP PUSH2 0x2A2F PUSH1 0x60 DUP5 ADD DUP5 PUSH2 0x31B7 JUMP JUMPDEST PUSH2 0x2A3C PUSH1 0x60 DUP7 ADD DUP3 PUSH2 0x23C6 JUMP JUMPDEST POP PUSH2 0x2A4A PUSH1 0x80 DUP5 ADD DUP5 PUSH2 0x31B7 JUMP JUMPDEST PUSH2 0x2A57 PUSH1 0x80 DUP7 ADD DUP3 PUSH2 0x23C6 JUMP JUMPDEST POP PUSH2 0x2A65 PUSH1 0xA0 DUP5 ADD DUP5 PUSH2 0x323C JUMP JUMPDEST PUSH2 0x2A72 PUSH1 0xA0 DUP7 ADD DUP3 PUSH2 0x2B13 JUMP JUMPDEST POP PUSH2 0x2A80 PUSH1 0xC0 DUP5 ADD DUP5 PUSH2 0x323C JUMP JUMPDEST PUSH2 0x2A8D PUSH1 0xC0 DUP7 ADD DUP3 PUSH2 0x2B13 JUMP JUMPDEST POP PUSH2 0x2A9B PUSH1 0xE0 DUP5 ADD DUP5 PUSH2 0x31B7 JUMP JUMPDEST PUSH2 0x2AA8 PUSH1 0xE0 DUP7 ADD DUP3 PUSH2 0x23C6 JUMP JUMPDEST POP PUSH2 0x2AB7 PUSH2 0x100 DUP5 ADD DUP5 PUSH2 0x31E5 JUMP JUMPDEST DUP6 DUP4 SUB PUSH2 0x100 DUP8 ADD MSTORE PUSH2 0x2ACB DUP4 DUP3 DUP5 PUSH2 0x2402 JUMP JUMPDEST SWAP3 POP POP POP PUSH2 0x2ADD PUSH2 0x120 DUP5 ADD DUP5 PUSH2 0x31CE JUMP JUMPDEST PUSH2 0x2AEB PUSH2 0x120 DUP7 ADD DUP3 PUSH2 0x23E4 JUMP JUMPDEST POP PUSH2 0x2AFA PUSH2 0x140 DUP5 ADD DUP5 PUSH2 0x3253 JUMP JUMPDEST PUSH2 0x2B08 PUSH2 0x140 DUP7 ADD DUP3 PUSH2 0x2B31 JUMP JUMPDEST POP DUP1 SWAP2 POP POP SWAP3 SWAP2 POP POP JUMP JUMPDEST PUSH2 0x2B1C DUP2 PUSH2 0x334E JUMP JUMPDEST DUP3 MSTORE POP POP JUMP JUMPDEST PUSH2 0x2B2B DUP2 PUSH2 0x334E JUMP JUMPDEST DUP3 MSTORE POP POP JUMP JUMPDEST PUSH2 0x2B3A DUP2 PUSH2 0x335D JUMP JUMPDEST DUP3 MSTORE POP POP JUMP JUMPDEST PUSH2 0x2B49 DUP2 PUSH2 0x335D JUMP JUMPDEST DUP3 MSTORE POP POP JUMP JUMPDEST PUSH2 0x2B58 DUP2 PUSH2 0x3367 JUMP JUMPDEST DUP3 MSTORE POP POP JUMP JUMPDEST PUSH1 0x0 PUSH2 0x2B6B DUP3 DUP5 DUP7 PUSH2 0x245C JUMP JUMPDEST SWAP2 POP DUP2 SWAP1 POP SWAP4 SWAP3 POP POP POP JUMP JUMPDEST PUSH1 0x0 PUSH2 0x2B83 DUP3 DUP5 PUSH2 0x24BA JUMP JUMPDEST SWAP2 POP DUP2 SWAP1 POP SWAP3 SWAP2 POP POP JUMP JUMPDEST PUSH1 0x0 PUSH2 0x2B99 DUP3 PUSH2 0x2833 JUMP JUMPDEST SWAP2 POP DUP2 SWAP1 POP SWAP2 SWAP1 POP JUMP JUMPDEST PUSH1 0x0 PUSH1 0x60 DUP3 ADD SWAP1 POP PUSH2 0x2BB8 PUSH1 0x0 DUP4 ADD DUP7 PUSH2 0x23D5 JUMP JUMPDEST PUSH2 0x2BC5 PUSH1 0x20 DUP4 ADD DUP6 PUSH2 0x23D5 JUMP JUMPDEST PUSH2 0x2BD2 PUSH1 0x40 DUP4 ADD DUP5 PUSH2 0x2B40 JUMP JUMPDEST SWAP5 SWAP4 POP POP POP POP JUMP JUMPDEST PUSH1 0x0 PUSH1 0x80 DUP3 ADD SWAP1 POP PUSH2 0x2BEF PUSH1 0x0 DUP4 ADD DUP8 PUSH2 0x23D5 JUMP JUMPDEST PUSH2 0x2BFC PUSH1 0x20 DUP4 ADD DUP7 PUSH2 0x23D5 JUMP JUMPDEST PUSH2 0x2C09 PUSH1 0x40 DUP4 ADD DUP6 PUSH2 0x2B40 JUMP JUMPDEST PUSH2 0x2C16 PUSH1 0x60 DUP4 ADD DUP5 PUSH2 0x23B7 JUMP JUMPDEST SWAP6 SWAP5 POP POP POP POP POP JUMP JUMPDEST PUSH1 0x0 PUSH1 0x40 DUP3 ADD SWAP1 POP PUSH2 0x2C34 PUSH1 0x0 DUP4 ADD DUP6 PUSH2 0x23D5 JUMP JUMPDEST PUSH2 0x2C41 PUSH1 0x20 DUP4 ADD DUP5 PUSH2 0x2B40 JUMP JUMPDEST SWAP4 SWAP3 POP POP POP JUMP JUMPDEST PUSH1 0x0 PUSH1 0x20 DUP3 ADD SWAP1 POP PUSH2 0x2C5D PUSH1 0x0 DUP4 ADD DUP5 PUSH2 0x23F3 JUMP JUMPDEST SWAP3 SWAP2 POP POP JUMP JUMPDEST PUSH1 0x0 PUSH1 0x80 DUP3 ADD SWAP1 POP PUSH2 0x2C78 PUSH1 0x0 DUP4 ADD DUP8 PUSH2 0x23F3 JUMP JUMPDEST PUSH2 0x2C85 PUSH1 0x20 DUP4 ADD DUP7 PUSH2 0x2B4F JUMP JUMPDEST PUSH2 0x2C92 PUSH1 0x40 DUP4 ADD DUP6 PUSH2 0x23F3 JUMP JUMPDEST PUSH2 0x2C9F PUSH1 0x60 DUP4 ADD DUP5 PUSH2 0x23F3 JUMP JUMPDEST SWAP6 SWAP5 POP POP POP POP POP JUMP JUMPDEST PUSH1 0x0 PUSH1 0x20 DUP3 ADD SWAP1 POP DUP2 DUP2 SUB PUSH1 0x0 DUP4 ADD MSTORE PUSH2 0x2CC1 DUP2 PUSH2 0x24EB JUMP JUMPDEST SWAP1 POP SWAP2 SWAP1 POP JUMP JUMPDEST PUSH1 0x0 PUSH1 0x20 DUP3 ADD SWAP1 POP DUP2 DUP2 SUB PUSH1 0x0 DUP4 ADD MSTORE PUSH2 0x2CE1 DUP2 PUSH2 0x250E JUMP JUMPDEST SWAP1 POP SWAP2 SWAP1 POP JUMP JUMPDEST PUSH1 0x0 PUSH1 0x20 DUP3 ADD SWAP1 POP DUP2 DUP2 SUB PUSH1 0x0 DUP4 ADD MSTORE PUSH2 0x2D01 DUP2 PUSH2 0x2531 JUMP JUMPDEST SWAP1 POP SWAP2 SWAP1 POP JUMP JUMPDEST PUSH1 0x0 PUSH1 0x20 DUP3 ADD SWAP1 POP DUP2 DUP2 SUB PUSH1 0x0 DUP4 ADD MSTORE PUSH2 0x2D21 DUP2 PUSH2 0x2554 JUMP JUMPDEST SWAP1 POP SWAP2 SWAP1 POP JUMP JUMPDEST PUSH1 0x0 PUSH1 0x20 DUP3 ADD SWAP1 POP DUP2 DUP2 SUB PUSH1 0x0 DUP4 ADD MSTORE PUSH2 0x2D41 DUP2 PUSH2 0x2577 JUMP JUMPDEST SWAP1 POP SWAP2 SWAP1 POP JUMP JUMPDEST PUSH1 0x0 PUSH1 0x20 DUP3 ADD SWAP1 POP DUP2 DUP2 SUB PUSH1 0x0 DUP4 ADD MSTORE PUSH2 0x2D61 DUP2 PUSH2 0x259A JUMP JUMPDEST SWAP1 POP SWAP2 SWAP1 POP JUMP JUMPDEST PUSH1 0x0 PUSH1 0x20 DUP3 ADD SWAP1 POP DUP2 DUP2 SUB PUSH1 0x0 DUP4 ADD MSTORE PUSH2 0x2D81 DUP2 PUSH2 0x25BD JUMP JUMPDEST SWAP1 POP SWAP2 SWAP1 POP JUMP JUMPDEST PUSH1 0x0 PUSH1 0x20 DUP3 ADD SWAP1 POP DUP2 DUP2 SUB PUSH1 0x0 DUP4 ADD MSTORE PUSH2 0x2DA1 DUP2 PUSH2 0x25E0 JUMP JUMPDEST SWAP1 POP SWAP2 SWAP1 POP JUMP JUMPDEST PUSH1 0x0 PUSH1 0x20 DUP3 ADD SWAP1 POP DUP2 DUP2 SUB PUSH1 0x0 DUP4 ADD MSTORE PUSH2 0x2DC1 DUP2 PUSH2 0x2603 JUMP JUMPDEST SWAP1 POP SWAP2 SWAP1 POP JUMP JUMPDEST PUSH1 0x0 PUSH1 0x20 DUP3 ADD SWAP1 POP DUP2 DUP2 SUB PUSH1 0x0 DUP4 ADD MSTORE PUSH2 0x2DE1 DUP2 PUSH2 0x2626 JUMP JUMPDEST SWAP1 POP SWAP2 SWAP1 POP JUMP JUMPDEST PUSH1 0x0 PUSH1 0x20 DUP3 ADD SWAP1 POP DUP2 DUP2 SUB PUSH1 0x0 DUP4 ADD MSTORE PUSH2 0x2E01 DUP2 PUSH2 0x2649 JUMP JUMPDEST SWAP1 POP SWAP2 SWAP1 POP JUMP JUMPDEST PUSH1 0x0 PUSH1 0x20 DUP3 ADD SWAP1 POP DUP2 DUP2 SUB PUSH1 0x0 DUP4 ADD MSTORE PUSH2 0x2E21 DUP2 PUSH2 0x266C JUMP JUMPDEST SWAP1 POP SWAP2 SWAP1 POP JUMP JUMPDEST PUSH1 0x0 PUSH1 0x20 DUP3 ADD SWAP1 POP DUP2 DUP2 SUB PUSH1 0x0 DUP4 ADD MSTORE PUSH2 0x2E41 DUP2 PUSH2 0x268F JUMP JUMPDEST SWAP1 POP SWAP2 SWAP1 POP JUMP JUMPDEST PUSH1 0x0 PUSH1 0x20 DUP3 ADD SWAP1 POP DUP2 DUP2 SUB PUSH1 0x0 DUP4 ADD MSTORE PUSH2 0x2E61 DUP2 PUSH2 0x26B2 JUMP JUMPDEST SWAP1 POP SWAP2 SWAP1 POP JUMP JUMPDEST PUSH1 0x0 PUSH1 0x20 DUP3 ADD SWAP1 POP DUP2 DUP2 SUB PUSH1 0x0 DUP4 ADD MSTORE PUSH2 0x2E81 DUP2 PUSH2 0x26D5 JUMP JUMPDEST SWAP1 POP SWAP2 SWAP1 POP JUMP JUMPDEST PUSH1 0x0 PUSH1 0x20 DUP3 ADD SWAP1 POP DUP2 DUP2 SUB PUSH1 0x0 DUP4 ADD MSTORE PUSH2 0x2EA1 DUP2 PUSH2 0x26F8 JUMP JUMPDEST SWAP1 POP SWAP2 SWAP1 POP JUMP JUMPDEST PUSH1 0x0 PUSH1 0x20 DUP3 ADD SWAP1 POP DUP2 DUP2 SUB PUSH1 0x0 DUP4 ADD MSTORE PUSH2 0x2EC1 DUP2 PUSH2 0x271B JUMP JUMPDEST SWAP1 POP SWAP2 SWAP1 POP JUMP JUMPDEST PUSH1 0x0 PUSH1 0x20 DUP3 ADD SWAP1 POP DUP2 DUP2 SUB PUSH1 0x0 DUP4 ADD MSTORE PUSH2 0x2EE1 DUP2 PUSH2 0x273E JUMP JUMPDEST SWAP1 POP SWAP2 SWAP1 POP JUMP JUMPDEST PUSH1 0x0 PUSH1 0x20 DUP3 ADD SWAP1 POP DUP2 DUP2 SUB PUSH1 0x0 DUP4 ADD MSTORE PUSH2 0x2F01 DUP2 PUSH2 0x2761 JUMP JUMPDEST SWAP1 POP SWAP2 SWAP1 POP JUMP JUMPDEST PUSH1 0x0 PUSH1 0x20 DUP3 ADD SWAP1 POP DUP2 DUP2 SUB PUSH1 0x0 DUP4 ADD MSTORE PUSH2 0x2F21 DUP2 PUSH2 0x2784 JUMP JUMPDEST SWAP1 POP SWAP2 SWAP1 POP JUMP JUMPDEST PUSH1 0x0 PUSH1 0x20 DUP3 ADD SWAP1 POP DUP2 DUP2 SUB PUSH1 0x0 DUP4 ADD MSTORE PUSH2 0x2F41 DUP2 PUSH2 0x27A7 JUMP JUMPDEST SWAP1 POP SWAP2 SWAP1 POP JUMP JUMPDEST PUSH1 0x0 PUSH1 0x20 DUP3 ADD SWAP1 POP DUP2 DUP2 SUB PUSH1 0x0 DUP4 ADD MSTORE PUSH2 0x2F61 DUP2 PUSH2 0x27CA JUMP JUMPDEST SWAP1 POP SWAP2 SWAP1 POP JUMP JUMPDEST PUSH1 0x0 PUSH1 0x20 DUP3 ADD SWAP1 POP DUP2 DUP2 SUB PUSH1 0x0 DUP4 ADD MSTORE PUSH2 0x2F81 DUP2 PUSH2 0x27ED JUMP JUMPDEST SWAP1 POP SWAP2 SWAP1 POP JUMP JUMPDEST PUSH1 0x0 PUSH1 0x20 DUP3 ADD SWAP1 POP DUP2 DUP2 SUB PUSH1 0x0 DUP4 ADD MSTORE PUSH2 0x2FA1 DUP2 PUSH2 0x2810 JUMP JUMPDEST SWAP1 POP SWAP2 SWAP1 POP JUMP JUMPDEST PUSH1 0x0 PUSH1 0x20 DUP3 ADD SWAP1 POP DUP2 DUP2 SUB PUSH1 0x0 DUP4 ADD MSTORE PUSH2 0x2FC1 DUP2 PUSH2 0x2856 JUMP JUMPDEST SWAP1 POP SWAP2 SWAP1 POP JUMP JUMPDEST PUSH1 0x0 PUSH1 0x20 DUP3 ADD SWAP1 POP DUP2 DUP2 SUB PUSH1 0x0 DUP4 ADD MSTORE PUSH2 0x2FE1 DUP2 PUSH2 0x2879 JUMP JUMPDEST SWAP1 POP SWAP2 SWAP1 POP JUMP JUMPDEST PUSH1 0x0 PUSH1 0x20 DUP3 ADD SWAP1 POP DUP2 DUP2 SUB PUSH1 0x0 DUP4 ADD MSTORE PUSH2 0x3001 DUP2 PUSH2 0x289C JUMP JUMPDEST SWAP1 POP SWAP2 SWAP1 POP JUMP JUMPDEST PUSH1 0x0 PUSH1 0x20 DUP3 ADD SWAP1 POP DUP2 DUP2 SUB PUSH1 0x0 DUP4 ADD MSTORE PUSH2 0x3021 DUP2 PUSH2 0x28BF JUMP JUMPDEST SWAP1 POP SWAP2 SWAP1 POP JUMP JUMPDEST PUSH1 0x0 PUSH1 0x20 DUP3 ADD SWAP1 POP DUP2 DUP2 SUB PUSH1 0x0 DUP4 ADD MSTORE PUSH2 0x3041 DUP2 PUSH2 0x28E2 JUMP JUMPDEST SWAP1 POP SWAP2 SWAP1 POP JUMP JUMPDEST PUSH1 0x0 PUSH1 0x20 DUP3 ADD SWAP1 POP DUP2 DUP2 SUB PUSH1 0x0 DUP4 ADD MSTORE PUSH2 0x3062 DUP2 DUP5 PUSH2 0x2905 JUMP JUMPDEST SWAP1 POP SWAP3 SWAP2 POP POP JUMP JUMPDEST PUSH1 0x0 PUSH1 0x40 DUP3 ADD SWAP1 POP DUP2 DUP2 SUB PUSH1 0x0 DUP4 ADD MSTORE PUSH2 0x3084 DUP2 DUP6 PUSH2 0x29CA JUMP JUMPDEST SWAP1 POP PUSH2 0x3093 PUSH1 0x20 DUP4 ADD DUP5 PUSH2 0x23D5 JUMP JUMPDEST SWAP4 SWAP3 POP POP POP JUMP JUMPDEST PUSH1 0x0 PUSH1 0x60 DUP3 ADD SWAP1 POP DUP2 DUP2 SUB PUSH1 0x0 DUP4 ADD MSTORE PUSH2 0x30B4 DUP2 DUP8 PUSH2 0x29CA JUMP JUMPDEST SWAP1 POP DUP2 DUP2 SUB PUSH1 0x20 DUP4 ADD MSTORE PUSH2 0x30C9 DUP2 DUP6 DUP8 PUSH2 0x242F JUMP JUMPDEST SWAP1 POP PUSH2 0x30D8 PUSH1 0x40 DUP4 ADD DUP5 PUSH2 0x23D5 JUMP JUMPDEST SWAP6 SWAP5 POP POP POP POP POP JUMP JUMPDEST PUSH1 0x0 PUSH1 0x20 DUP3 ADD SWAP1 POP PUSH2 0x30F6 PUSH1 0x0 DUP4 ADD DUP5 PUSH2 0x2B22 JUMP JUMPDEST SWAP3 SWAP2 POP POP JUMP JUMPDEST PUSH1 0x0 PUSH1 0x20 DUP3 ADD SWAP1 POP PUSH2 0x3111 PUSH1 0x0 DUP4 ADD DUP5 PUSH2 0x2B40 JUMP JUMPDEST SWAP3 SWAP2 POP POP JUMP JUMPDEST PUSH1 0x0 DUP1 DUP4 CALLDATALOAD PUSH1 0x1 PUSH1 0x20 SUB DUP5 CALLDATASIZE SUB SUB DUP2 SLT PUSH2 0x3130 JUMPI PUSH1 0x0 DUP1 REVERT JUMPDEST DUP1 DUP5 ADD SWAP3 POP DUP3 CALLDATALOAD SWAP2 POP PUSH8 0xFFFFFFFFFFFFFFFF DUP3 GT ISZERO PUSH2 0x314E JUMPI PUSH1 0x0 DUP1 REVERT JUMPDEST PUSH1 0x20 DUP4 ADD SWAP3 POP PUSH1 0x1 DUP3 MUL CALLDATASIZE SUB DUP4 SGT ISZERO PUSH2 0x3166 JUMPI PUSH1 0x0 DUP1 REVERT JUMPDEST POP SWAP3 POP SWAP3 SWAP1 POP JUMP JUMPDEST PUSH1 0x0 DUP2 MLOAD SWAP1 POP SWAP2 SWAP1 POP JUMP JUMPDEST PUSH1 0x0 DUP3 DUP3 MSTORE PUSH1 0x20 DUP3 ADD SWAP1 POP SWAP3 SWAP2 POP POP JUMP JUMPDEST PUSH1 0x0 DUP3 DUP3 MSTORE PUSH1 0x20 DUP3 ADD SWAP1 POP SWAP3 SWAP2 POP POP JUMP JUMPDEST PUSH1 0x0 DUP2 SWAP1 POP SWAP3 SWAP2 POP POP JUMP JUMPDEST PUSH1 0x0 DUP3 DUP3 MSTORE PUSH1 0x20 DUP3 ADD SWAP1 POP SWAP3 SWAP2 POP POP JUMP JUMPDEST PUSH1 0x0 PUSH2 0x31C6 PUSH1 0x20 DUP5 ADD DUP5 PUSH2 0x20E0 JUMP JUMPDEST SWAP1 POP SWAP3 SWAP2 POP POP JUMP JUMPDEST PUSH1 0x0 PUSH2 0x31DD PUSH1 0x20 DUP5 ADD DUP5 PUSH2 0x211F JUMP JUMPDEST SWAP1 POP SWAP3 SWAP2 POP POP JUMP JUMPDEST PUSH1 0x0 DUP1 DUP4 CALLDATALOAD PUSH1 0x1 PUSH1 0x20 SUB DUP5 CALLDATASIZE SUB SUB DUP2 SLT PUSH2 0x31FE JUMPI PUSH1 0x0 DUP1 REVERT JUMPDEST DUP4 DUP2 ADD SWAP3 POP DUP3 CALLDATALOAD SWAP2 POP PUSH1 0x20 DUP4 ADD SWAP3 POP PUSH8 0xFFFFFFFFFFFFFFFF DUP3 GT ISZERO PUSH2 0x3222 JUMPI PUSH1 0x0 DUP1 REVERT JUMPDEST PUSH1 0x1 DUP3 MUL CALLDATASIZE SUB DUP5 SGT ISZERO PUSH2 0x3234 JUMPI PUSH1 0x0 DUP1 REVERT JUMPDEST POP SWAP3 POP SWAP3 SWAP1 POP JUMP JUMPDEST PUSH1 0x0 PUSH2 0x324B PUSH1 0x20 DUP5 ADD DUP5 PUSH2 0x219A JUMP JUMPDEST SWAP1 POP SWAP3 SWAP2 POP POP JUMP JUMPDEST PUSH1 0x0 PUSH2 0x3262 PUSH1 0x20 DUP5 ADD DUP5 PUSH2 0x21AF JUMP JUMPDEST SWAP1 POP SWAP3 SWAP2 POP POP JUMP JUMPDEST PUSH1 0x0 PUSH2 0x3275 DUP3 PUSH2 0x335D JUMP JUMPDEST SWAP2 POP PUSH2 0x3280 DUP4 PUSH2 0x335D JUMP JUMPDEST SWAP3 POP DUP3 PUSH32 0xFFFFFFFFFFFFFFFFFFFFFFFFFFFFFFFFFFFFFFFFFFFFFFFFFFFFFFFFFFFFFFFF SUB DUP3 GT ISZERO PUSH2 0x32B5 JUMPI PUSH2 0x32B4 PUSH2 0x33EC JUMP JUMPDEST JUMPDEST DUP3 DUP3 ADD SWAP1 POP SWAP3 SWAP2 POP POP JUMP JUMPDEST PUSH1 0x0 PUSH2 0x32CB DUP3 PUSH2 0x335D JUMP JUMPDEST SWAP2 POP PUSH2 0x32D6 DUP4 PUSH2 0x335D JUMP JUMPDEST SWAP3 POP DUP3 DUP3 LT ISZERO PUSH2 0x32E9 JUMPI PUSH2 0x32E8 PUSH2 0x33EC JUMP JUMPDEST JUMPDEST DUP3 DUP3 SUB SWAP1 POP SWAP3 SWAP2 POP POP JUMP JUMPDEST PUSH1 0x0 PUSH2 0x32FF DUP3 PUSH2 0x332E JUMP JUMPDEST SWAP1 POP SWAP2 SWAP1 POP JUMP JUMPDEST PUSH1 0x0 PUSH2 0x3311 DUP3 PUSH2 0x332E JUMP JUMPDEST SWAP1 POP SWAP2 SWAP1 POP JUMP JUMPDEST PUSH1 0x0 DUP2 ISZERO ISZERO SWAP1 POP SWAP2 SWAP1 POP JUMP JUMPDEST PUSH1 0x0 DUP2 SWAP1 POP SWAP2 SWAP1 POP JUMP JUMPDEST PUSH1 0x0 PUSH20 0xFFFFFFFFFFFFFFFFFFFFFFFFFFFFFFFFFFFFFFFF DUP3 AND SWAP1 POP SWAP2 SWAP1 POP JUMP JUMPDEST PUSH1 0x0 PUSH3 0xFFFFFF DUP3 AND SWAP1 POP SWAP2 SWAP1 POP JUMP JUMPDEST PUSH1 0x0 DUP2 SWAP1 POP SWAP2 SWAP1 POP JUMP JUMPDEST PUSH1 0x0 PUSH1 0xFF DUP3 AND SWAP1 POP SWAP2 SWAP1 POP JUMP JUMPDEST PUSH1 0x0 PUSH2 0x337F DUP3 PUSH2 0x3386 JUMP JUMPDEST SWAP1 POP SWAP2 SWAP1 POP JUMP JUMPDEST PUSH1 0x0 PUSH2 0x3391 DUP3 PUSH2 0x3398 JUMP JUMPDEST SWAP1 POP SWAP2 SWAP1 POP JUMP JUMPDEST PUSH1 0x0 PUSH2 0x33A3 DUP3 PUSH2 0x332E JUMP JUMPDEST SWAP1 POP SWAP2 SWAP1 POP JUMP JUMPDEST DUP3 DUP2 DUP4 CALLDATACOPY PUSH1 0x0 DUP4 DUP4 ADD MSTORE POP POP POP JUMP JUMPDEST PUSH1 0x0 JUMPDEST DUP4 DUP2 LT ISZERO PUSH2 0x33D7 JUMPI DUP1 DUP3 ADD MLOAD DUP2 DUP5 ADD MSTORE PUSH1 0x20 DUP2 ADD SWAP1 POP PUSH2 0x33BC JUMP JUMPDEST DUP4 DUP2 GT ISZERO PUSH2 0x33E6 JUMPI PUSH1 0x0 DUP5 DUP5 ADD MSTORE JUMPDEST POP POP POP POP JUMP JUMPDEST PUSH32 0x4E487B7100000000000000000000000000000000000000000000000000000000 PUSH1 0x0 MSTORE PUSH1 0x11 PUSH1 0x4 MSTORE PUSH1 0x24 PUSH1 0x0 REVERT JUMPDEST PUSH1 0x0 PUSH1 0x1F NOT PUSH1 0x1F DUP4 ADD AND SWAP1 POP SWAP2 SWAP1 POP JUMP JUMPDEST PUSH32 0x45434453413A20696E76616C6964207369676E61747572650000000000000000 PUSH1 0x0 DUP3 ADD MSTORE POP JUMP JUMPDEST PUSH32 0x707265706172653A2045524332305F5452414E534645525F4641494C45440000 PUSH1 0x0 DUP3 ADD MSTORE POP JUMP JUMPDEST PUSH32 0x707265706172653A20524F555445525F4D49534D415443480000000000000000 PUSH1 0x0 DUP3 ADD MSTORE POP JUMP JUMPDEST PUSH32 0x707265706172653A2054494D454F55545F544F4F5F4C4F570000000000000000 PUSH1 0x0 DUP3 ADD MSTORE POP JUMP JUMPDEST PUSH32 0x45434453413A20696E76616C6964207369676E6174757265206C656E67746800 PUSH1 0x0 DUP3 ADD MSTORE POP JUMP JUMPDEST PUSH32 0x6164644C69717569646974793A2045524332305F5452414E534645525F464149 PUSH1 0x0 DUP3 ADD MSTORE PUSH32 0x4C45440000000000000000000000000000000000000000000000000000000000 PUSH1 0x20 DUP3 ADD MSTORE POP JUMP JUMPDEST PUSH32 0x707265706172653A20494E56414C49445F434841494E49445300000000000000 PUSH1 0x0 DUP3 ADD MSTORE POP JUMP JUMPDEST PUSH32 0x63616E63656C3A205452414E534645525F4641494C4544000000000000000000 PUSH1 0x0 DUP3 ADD MSTORE POP JUMP JUMPDEST PUSH32 0x4C69624974657261626C654D617070696E673A204449474553545F4E4F545F46 PUSH1 0x0 DUP3 ADD MSTORE PUSH32 0x4F554E4400000000000000000000000000000000000000000000000000000000 PUSH1 0x20 DUP3 ADD MSTORE POP JUMP JUMPDEST PUSH32 0x45434453413A20696E76616C6964207369676E6174757265202773272076616C PUSH1 0x0 DUP3 ADD MSTORE PUSH32 0x7565000000000000000000000000000000000000000000000000000000000000 PUSH1 0x20 DUP3 ADD MSTORE POP JUMP JUMPDEST PUSH32 0x707265706172653A20494E56414C49445F524543454956494E475F434841494E PUSH1 0x0 DUP3 ADD MSTORE POP JUMP JUMPDEST PUSH32 0x4C69624974657261626C654D617070696E673A20454D5054595F444947455354 PUSH1 0x0 DUP3 ADD MSTORE POP JUMP JUMPDEST PUSH32 0x707265706172653A2056414C55455F4D49534D41544348000000000000000000 PUSH1 0x0 DUP3 ADD MSTORE POP JUMP JUMPDEST PUSH32 0x72656D6F76654C69717569646974793A205452414E534645525F4641494C4544 PUSH1 0x0 DUP3 ADD MSTORE POP JUMP JUMPDEST PUSH32 0x63616E63656C3A20494E56414C49445F45585049525900000000000000000000 PUSH1 0x0 DUP3 ADD MSTORE POP JUMP JUMPDEST PUSH32 0x45434453413A20696E76616C6964207369676E6174757265202776272076616C PUSH1 0x0 DUP3 ADD MSTORE PUSH32 0x7565000000000000000000000000000000000000000000000000000000000000 PUSH1 0x20 DUP3 ADD MSTORE POP JUMP JUMPDEST PUSH32 0x4C696245524332303A204E4F5F434F4445000000000000000000000000000000 PUSH1 0x0 DUP3 ADD MSTORE POP JUMP JUMPDEST PUSH32 0x63616E63656C3A20555345525F4D5553545F43414E43454C0000000000000000 PUSH1 0x0 DUP3 ADD MSTORE POP JUMP JUMPDEST PUSH32 0x707265706172653A204554485F574954485F4552435F5452414E534645520000 PUSH1 0x0 DUP3 ADD MSTORE POP JUMP JUMPDEST PUSH32 0x63616E63656C3A20494E56414C49445F414D4F554E5400000000000000000000 PUSH1 0x0 DUP3 ADD MSTORE POP JUMP JUMPDEST PUSH32 0x72656D6F76654C69717569646974793A20494E53554646494349454E545F4655 PUSH1 0x0 DUP3 ADD MSTORE PUSH32 0x4E44530000000000000000000000000000000000000000000000000000000000 PUSH1 0x20 DUP3 ADD MSTORE POP JUMP JUMPDEST PUSH32 0x6164644C69717569646974793A204554485F574954485F4552435F5452414E53 PUSH1 0x0 DUP3 ADD MSTORE PUSH32 0x4645520000000000000000000000000000000000000000000000000000000000 PUSH1 0x20 DUP3 ADD MSTORE POP JUMP JUMPDEST PUSH32 0x4C69624974657261626C654D617070696E673A204449474553545F414C524541 PUSH1 0x0 DUP3 ADD MSTORE PUSH32 0x44595F4144444544000000000000000000000000000000000000000000000000 PUSH1 0x20 DUP3 ADD MSTORE POP JUMP JUMPDEST PUSH32 0x66756C66696C6C3A20616464206D756C746963616C6C207061747465726E0000 PUSH1 0x0 DUP3 ADD MSTORE POP JUMP JUMPDEST POP JUMP JUMPDEST PUSH32 0x707265706172653A20494E53554646494349454E545F4C495155494449545900 PUSH1 0x0 DUP3 ADD MSTORE POP JUMP JUMPDEST PUSH32 0x66756C66696C6C3A20494E56414C49445F5349474E4154555245000000000000 PUSH1 0x0 DUP3 ADD MSTORE POP JUMP JUMPDEST PUSH32 0x6164644C69717569646974793A2056414C55455F4D49534D4154434800000000 PUSH1 0x0 DUP3 ADD MSTORE POP JUMP JUMPDEST PUSH32 0x5265656E7472616E637947756172643A207265656E7472616E742063616C6C00 PUSH1 0x0 DUP3 ADD MSTORE POP JUMP JUMPDEST PUSH32 0x66756C66696C6C3A205452414E534645525F4641494C45440000000000000000 PUSH1 0x0 DUP3 ADD MSTORE POP JUMP JUMPDEST PUSH2 0x39E7 DUP2 PUSH2 0x32F4 JUMP JUMPDEST DUP2 EQ PUSH2 0x39F2 JUMPI PUSH1 0x0 DUP1 REVERT JUMPDEST POP JUMP JUMPDEST PUSH2 0x39FE DUP2 PUSH2 0x3306 JUMP JUMPDEST DUP2 EQ PUSH2 0x3A09 JUMPI PUSH1 0x0 DUP1 REVERT JUMPDEST POP JUMP JUMPDEST PUSH2 0x3A15 DUP2 PUSH2 0x3318 JUMP JUMPDEST DUP2 EQ PUSH2 0x3A20 JUMPI PUSH1 0x0 DUP1 REVERT JUMPDEST POP JUMP JUMPDEST PUSH2 0x3A2C DUP2 PUSH2 0x3324 JUMP JUMPDEST DUP2 EQ PUSH2 0x3A37 JUMPI PUSH1 0x0 DUP1 REVERT JUMPDEST POP JUMP JUMPDEST PUSH2 0x3A43 DUP2 PUSH2 0x334E JUMP JUMPDEST DUP2 EQ PUSH2 0x3A4E JUMPI PUSH1 0x0 DUP1 REVERT JUMPDEST POP JUMP JUMPDEST PUSH2 0x3A5A DUP2 PUSH2 0x335D JUMP JUMPDEST DUP2 EQ PUSH2 0x3A65 JUMPI PUSH1 0x0 DUP1 REVERT JUMPDEST POP JUMP INVALID LOG2 PUSH5 0x6970667358 0x22 SLT KECCAK256 SWAP10 0xA6 0x25 SLT NUMBER 0xE8 0xED SELFDESTRUCT LOG1 SWAP10 0xEC 0xE7 PUSH6 0x65181E19FCFD EXTCODEHASH CREATE PUSH9 0x2A06605811EDBC1246 NUMBER PUSH5 0x736F6C6343 STOP ADDMOD DIV STOP CALLER "
        },
        "methodIdentifiers": {
          "MIN_TIMEOUT()": "543ad1df",
          "addLiquidity(uint256,address)": "c95f9d0e",
          "cancel((address,address,uint256,address,address,uint24,uint24,address,bytes,bytes32,uint256))": "7c32fba9",
          "chainId()": "9a8a0592",
          "fulfill((address,address,uint256,address,address,uint24,uint24,address,bytes,bytes32,uint256),bytes)": "e9088189",
          "prepare((address,address,uint256,address,address,uint24,uint24,address,bytes,bytes32,uint256))": "c06adaee",
          "removeLiquidity(uint256,address,address)": "f31abcc4",
          "routerBalances(address,address)": "41258b5c"
        }
      }
    }
  }
}