{
  "contracts/TransactionManager.sol": {
    "TransactionManager": {
      "abi": [
        {
          "inputs": [
            {
              "internalType": "uint24",
              "name": "_chainId",
              "type": "uint24"
            }
          ],
          "stateMutability": "nonpayable",
          "type": "constructor"
        },
        {
          "anonymous": false,
          "inputs": [
            {
              "indexed": false,
              "internalType": "address",
              "name": "router",
              "type": "address"
            },
            {
              "indexed": false,
              "internalType": "address",
              "name": "assetId",
              "type": "address"
            },
            {
              "indexed": false,
              "internalType": "uint256",
              "name": "amount",
              "type": "uint256"
            }
          ],
          "name": "LiquidityAdded",
          "type": "event"
        },
        {
          "anonymous": false,
          "inputs": [
            {
              "indexed": false,
              "internalType": "address",
              "name": "router",
              "type": "address"
            },
            {
              "indexed": false,
              "internalType": "address",
              "name": "assetId",
              "type": "address"
            },
            {
              "indexed": false,
              "internalType": "uint256",
              "name": "amount",
              "type": "uint256"
            },
            {
              "indexed": false,
              "internalType": "address",
              "name": "recipient",
              "type": "address"
            }
          ],
          "name": "LiquidityRemoved",
          "type": "event"
        },
        {
          "anonymous": false,
          "inputs": [
            {
              "components": [
                {
                  "internalType": "address",
                  "name": "user",
                  "type": "address"
                },
                {
                  "internalType": "address",
                  "name": "router",
                  "type": "address"
                },
                {
                  "internalType": "uint256",
                  "name": "amount",
                  "type": "uint256"
                },
                {
                  "internalType": "address",
                  "name": "sendingAssetId",
                  "type": "address"
                },
                {
                  "internalType": "address",
                  "name": "receivingAssetId",
                  "type": "address"
                },
                {
                  "internalType": "uint24",
                  "name": "sendingChainId",
                  "type": "uint24"
                },
                {
                  "internalType": "uint24",
                  "name": "receivingChainId",
                  "type": "uint24"
                },
                {
                  "internalType": "address",
                  "name": "callTo",
                  "type": "address"
                },
                {
                  "internalType": "bytes",
                  "name": "callData",
                  "type": "bytes"
                },
                {
                  "internalType": "bytes32",
                  "name": "transactionId",
                  "type": "bytes32"
                },
                {
                  "internalType": "uint256",
                  "name": "expiry",
                  "type": "uint256"
                }
              ],
              "indexed": false,
              "internalType": "struct ITransactionManager.TransactionData",
              "name": "txData",
              "type": "tuple"
            },
            {
              "indexed": false,
              "internalType": "address",
              "name": "caller",
              "type": "address"
            }
          ],
          "name": "TransactionCancelled",
          "type": "event"
        },
        {
          "anonymous": false,
          "inputs": [
            {
              "components": [
                {
                  "internalType": "address",
                  "name": "user",
                  "type": "address"
                },
                {
                  "internalType": "address",
                  "name": "router",
                  "type": "address"
                },
                {
                  "internalType": "uint256",
                  "name": "amount",
                  "type": "uint256"
                },
                {
                  "internalType": "address",
                  "name": "sendingAssetId",
                  "type": "address"
                },
                {
                  "internalType": "address",
                  "name": "receivingAssetId",
                  "type": "address"
                },
                {
                  "internalType": "uint24",
                  "name": "sendingChainId",
                  "type": "uint24"
                },
                {
                  "internalType": "uint24",
                  "name": "receivingChainId",
                  "type": "uint24"
                },
                {
                  "internalType": "address",
                  "name": "callTo",
                  "type": "address"
                },
                {
                  "internalType": "bytes",
                  "name": "callData",
                  "type": "bytes"
                },
                {
                  "internalType": "bytes32",
                  "name": "transactionId",
                  "type": "bytes32"
                },
                {
                  "internalType": "uint256",
                  "name": "expiry",
                  "type": "uint256"
                }
              ],
              "indexed": false,
              "internalType": "struct ITransactionManager.TransactionData",
              "name": "txData",
              "type": "tuple"
            },
            {
              "indexed": false,
              "internalType": "bytes",
              "name": "signature",
              "type": "bytes"
            },
            {
              "indexed": false,
              "internalType": "address",
              "name": "caller",
              "type": "address"
            }
          ],
          "name": "TransactionFulfilled",
          "type": "event"
        },
        {
          "anonymous": false,
          "inputs": [
            {
              "components": [
                {
                  "internalType": "address",
                  "name": "user",
                  "type": "address"
                },
                {
                  "internalType": "address",
                  "name": "router",
                  "type": "address"
                },
                {
                  "internalType": "uint256",
                  "name": "amount",
                  "type": "uint256"
                },
                {
                  "internalType": "address",
                  "name": "sendingAssetId",
                  "type": "address"
                },
                {
                  "internalType": "address",
                  "name": "receivingAssetId",
                  "type": "address"
                },
                {
                  "internalType": "uint24",
                  "name": "sendingChainId",
                  "type": "uint24"
                },
                {
                  "internalType": "uint24",
                  "name": "receivingChainId",
                  "type": "uint24"
                },
                {
                  "internalType": "address",
                  "name": "callTo",
                  "type": "address"
                },
                {
                  "internalType": "bytes",
                  "name": "callData",
                  "type": "bytes"
                },
                {
                  "internalType": "bytes32",
                  "name": "transactionId",
                  "type": "bytes32"
                },
                {
                  "internalType": "uint256",
                  "name": "expiry",
                  "type": "uint256"
                }
              ],
              "indexed": false,
              "internalType": "struct ITransactionManager.TransactionData",
              "name": "txData",
              "type": "tuple"
            },
            {
              "indexed": false,
              "internalType": "address",
              "name": "caller",
              "type": "address"
            }
          ],
          "name": "TransactionPrepared",
          "type": "event"
        },
        {
          "inputs": [],
          "name": "MIN_TIMEOUT",
          "outputs": [
            {
              "internalType": "uint256",
              "name": "",
              "type": "uint256"
            }
          ],
          "stateMutability": "view",
          "type": "function"
        },
        {
          "inputs": [
            {
              "internalType": "uint256",
              "name": "amount",
              "type": "uint256"
            },
            {
              "internalType": "address",
              "name": "assetId",
              "type": "address"
            }
          ],
          "name": "addLiquidity",
          "outputs": [],
          "stateMutability": "payable",
          "type": "function"
        },
        {
          "inputs": [
            {
              "components": [
                {
                  "internalType": "address",
                  "name": "user",
                  "type": "address"
                },
                {
                  "internalType": "address",
                  "name": "router",
                  "type": "address"
                },
                {
                  "internalType": "uint256",
                  "name": "amount",
                  "type": "uint256"
                },
                {
                  "internalType": "address",
                  "name": "sendingAssetId",
                  "type": "address"
                },
                {
                  "internalType": "address",
                  "name": "receivingAssetId",
                  "type": "address"
                },
                {
                  "internalType": "uint24",
                  "name": "sendingChainId",
                  "type": "uint24"
                },
                {
                  "internalType": "uint24",
                  "name": "receivingChainId",
                  "type": "uint24"
                },
                {
                  "internalType": "address",
                  "name": "callTo",
                  "type": "address"
                },
                {
                  "internalType": "bytes",
                  "name": "callData",
                  "type": "bytes"
                },
                {
                  "internalType": "bytes32",
                  "name": "transactionId",
                  "type": "bytes32"
                },
                {
                  "internalType": "uint256",
                  "name": "expiry",
                  "type": "uint256"
                }
              ],
              "internalType": "struct ITransactionManager.TransactionData",
              "name": "txData",
              "type": "tuple"
            }
          ],
          "name": "cancel",
          "outputs": [],
          "stateMutability": "nonpayable",
          "type": "function"
        },
        {
          "inputs": [],
          "name": "chainId",
          "outputs": [
            {
              "internalType": "uint24",
              "name": "",
              "type": "uint24"
            }
          ],
          "stateMutability": "view",
          "type": "function"
        },
        {
          "inputs": [
            {
              "components": [
                {
                  "internalType": "address",
                  "name": "user",
                  "type": "address"
                },
                {
                  "internalType": "address",
                  "name": "router",
                  "type": "address"
                },
                {
                  "internalType": "uint256",
                  "name": "amount",
                  "type": "uint256"
                },
                {
                  "internalType": "address",
                  "name": "sendingAssetId",
                  "type": "address"
                },
                {
                  "internalType": "address",
                  "name": "receivingAssetId",
                  "type": "address"
                },
                {
                  "internalType": "uint24",
                  "name": "sendingChainId",
                  "type": "uint24"
                },
                {
                  "internalType": "uint24",
                  "name": "receivingChainId",
                  "type": "uint24"
                },
                {
                  "internalType": "address",
                  "name": "callTo",
                  "type": "address"
                },
                {
                  "internalType": "bytes",
                  "name": "callData",
                  "type": "bytes"
                },
                {
                  "internalType": "bytes32",
                  "name": "transactionId",
                  "type": "bytes32"
                },
                {
                  "internalType": "uint256",
                  "name": "expiry",
                  "type": "uint256"
                }
              ],
              "internalType": "struct ITransactionManager.TransactionData",
              "name": "txData",
              "type": "tuple"
            },
            {
              "internalType": "bytes",
              "name": "signature",
              "type": "bytes"
            }
          ],
          "name": "fulfill",
          "outputs": [],
          "stateMutability": "nonpayable",
          "type": "function"
        },
        {
          "inputs": [
            {
              "components": [
                {
                  "internalType": "address",
                  "name": "user",
                  "type": "address"
                },
                {
                  "internalType": "address",
                  "name": "router",
                  "type": "address"
                },
                {
                  "internalType": "uint256",
                  "name": "amount",
                  "type": "uint256"
                },
                {
                  "internalType": "address",
                  "name": "sendingAssetId",
                  "type": "address"
                },
                {
                  "internalType": "address",
                  "name": "receivingAssetId",
                  "type": "address"
                },
                {
                  "internalType": "uint24",
                  "name": "sendingChainId",
                  "type": "uint24"
                },
                {
                  "internalType": "uint24",
                  "name": "receivingChainId",
                  "type": "uint24"
                },
                {
                  "internalType": "address",
                  "name": "callTo",
                  "type": "address"
                },
                {
                  "internalType": "bytes",
                  "name": "callData",
                  "type": "bytes"
                },
                {
                  "internalType": "bytes32",
                  "name": "transactionId",
                  "type": "bytes32"
                },
                {
                  "internalType": "uint256",
                  "name": "expiry",
                  "type": "uint256"
                }
              ],
              "internalType": "struct ITransactionManager.TransactionData",
              "name": "txData",
              "type": "tuple"
            }
          ],
          "name": "prepare",
          "outputs": [
            {
              "internalType": "bytes32",
              "name": "",
              "type": "bytes32"
            }
          ],
          "stateMutability": "payable",
          "type": "function"
        },
        {
          "inputs": [
            {
              "internalType": "uint256",
              "name": "amount",
              "type": "uint256"
            },
            {
              "internalType": "address",
              "name": "assetId",
              "type": "address"
            },
            {
              "internalType": "address payable",
              "name": "recipient",
              "type": "address"
            }
          ],
          "name": "removeLiquidity",
          "outputs": [],
          "stateMutability": "nonpayable",
          "type": "function"
        },
        {
          "inputs": [
            {
              "internalType": "address",
              "name": "",
              "type": "address"
            },
            {
              "internalType": "address",
              "name": "",
              "type": "address"
            }
          ],
          "name": "routerBalances",
          "outputs": [
            {
              "internalType": "uint256",
              "name": "",
              "type": "uint256"
            }
          ],
          "stateMutability": "view",
          "type": "function"
        }
      ],
      "evm": {
        "bytecode": {
          "linkReferences": {},
          "object": "60a06040523480156200001157600080fd5b5060405162003d2d38038062003d2d833981810160405281019062000037919062000072565b60016000819055508062ffffff1660808162ffffff1660e81b8152505050620000c7565b6000815190506200006c81620000ad565b92915050565b6000602082840312156200008557600080fd5b600062000095848285016200005b565b91505092915050565b600062ffffff82169050919050565b620000b8816200009e565b8114620000c457600080fd5b50565b60805160e81c613c1d620001106000396000818161030e015281816105f90152818161073201528181610777015281816107f601528181610967015261105f0152613c1d6000f3fe60806040526004361061007b5760003560e01c8063c06adaee1161004e578063c06adaee1461013c578063c95f9d0e1461016c578063e908818914610188578063f31abcc4146101b15761007b565b806341258b5c14610080578063543ad1df146100bd5780637c32fba9146100e85780639a8a059214610111575b600080fd5b34801561008c57600080fd5b506100a760048036038101906100a29190612294565b6101da565b6040516100b49190613229565b60405180910390f35b3480156100c957600080fd5b506100d26101ff565b6040516100df9190613229565b60405180910390f35b3480156100f457600080fd5b5061010f600480360381019061010a91906122f9565b610204565b005b34801561011d57600080fd5b506101266105f7565b604051610133919061320e565b60405180910390f35b610156600480360381019061015191906122f9565b61061b565b6040516101639190612d35565b60405180910390f35b610186600480360381019061018191906123d3565b610c7c565b005b34801561019457600080fd5b506101af60048036038101906101aa919061233a565b610e88565b005b3480156101bd57600080fd5b506101d860048036038101906101d3919061240f565b611323565b005b6001602052816000526040600020602052806000526040600020600091509150505481565b600081565b6002600054141561024a576040517f08c379a000000000000000000000000000000000000000000000000000000000815260040161024190613135565b60405180910390fd5b6002600081905550600061025d82611557565b9050600061027582600261171990919063ffffffff16565b905082604001358160000151146102c1576040517f08c379a00000000000000000000000000000000000000000000000000000000081526004016102b890613015565b60405180910390fd5b82610140013581602001511461030c576040517f08c379a000000000000000000000000000000000000000000000000000000000815260040161030390612f75565b60405180910390fd5b7f000000000000000000000000000000000000000000000000000000000000000062ffffff168360a001602081019061034591906123aa565b62ffffff1614156104545742836101400135106103dd5782602001602081019061036f919061226b565b73ffffffffffffffffffffffffffffffffffffffff163373ffffffffffffffffffffffffffffffffffffffff16146103dc576040517f08c379a00000000000000000000000000000000000000000000000000000000081526004016103d3906130b5565b60405180910390fd5b5b6104108360600160208101906103f3919061226b565b846000016020810190610406919061226b565b85604001356117b3565b61044f576040517f08c379a000000000000000000000000000000000000000000000000000000000815260040161044690612e75565b60405180910390fd5b61059d565b42836101400135106104e157826000016020810190610473919061226b565b73ffffffffffffffffffffffffffffffffffffffff163373ffffffffffffffffffffffffffffffffffffffff16146104e0576040517f08c379a00000000000000000000000000000000000000000000000000000000081526004016104d790612fd5565b60405180910390fd5b5b8260400135600160008560200160208101906104fd919061226b565b73ffffffffffffffffffffffffffffffffffffffff1673ffffffffffffffffffffffffffffffffffffffff168152602001908152602001600020600085608001602081019061054c919061226b565b73ffffffffffffffffffffffffffffffffffffffff1673ffffffffffffffffffffffffffffffffffffffff16815260200190815260200160002060008282546105959190613397565b925050819055505b6105b18260026117e690919063ffffffff16565b7f199deba8a6a6013af443143040bbb1ec3f4313f2db743530e1dc4b0cd40f1b5183336040516105e2929190613197565b60405180910390a15050600160008190555050565b7f000000000000000000000000000000000000000000000000000000000000000081565b600060026000541415610663576040517f08c379a000000000000000000000000000000000000000000000000000000000815260040161065a90613135565b60405180910390fd5b600260008190555060004283610140013561067e91906133ed565b10156106bf576040517f08c379a00000000000000000000000000000000000000000000000000000000081526004016106b690612df5565b60405180910390fd5b8160c00160208101906106d291906123aa565b62ffffff168260a00160208101906106ea91906123aa565b62ffffff161415610730576040517f08c379a000000000000000000000000000000000000000000000000000000000815260040161072790612ed5565b60405180910390fd5b7f000000000000000000000000000000000000000000000000000000000000000062ffffff168260a001602081019061076991906123aa565b62ffffff1614806107b557507f000000000000000000000000000000000000000000000000000000000000000062ffffff168260c00160208101906107ae91906123aa565b62ffffff16145b6107f4576040517f08c379a00000000000000000000000000000000000000000000000000000000081526004016107eb90612e55565b60405180910390fd5b7f000000000000000000000000000000000000000000000000000000000000000062ffffff168260a001602081019061082d91906123aa565b62ffffff16141561094d5761085382606001602081019061084e919061226b565b6119f0565b156108a3578160400135341461089e576040517f08c379a000000000000000000000000000000000000000000000000000000000815260040161089590612f35565b60405180910390fd5b610948565b600034146108e6576040517f08c379a00000000000000000000000000000000000000000000000000000000081526004016108dd90612ff5565b60405180910390fd5b6109088260600160208101906108fc919061226b565b33308560400135611a28565b610947576040517f08c379a000000000000000000000000000000000000000000000000000000000815260040161093e90612db5565b60405180910390fd5b5b610bee565b8160c001602081019061096091906123aa565b62ffffff167f000000000000000000000000000000000000000000000000000000000000000062ffffff16146109cb576040517f08c379a00000000000000000000000000000000000000000000000000000000081526004016109c290612ef5565b60405180910390fd5b8160200160208101906109de919061226b565b73ffffffffffffffffffffffffffffffffffffffff163373ffffffffffffffffffffffffffffffffffffffff1614610a4b576040517f08c379a0000000000000000000000000000000000000000000000000000000008152600401610a4290612dd5565b60405180910390fd5b816040013560016000846020016020810190610a67919061226b565b73ffffffffffffffffffffffffffffffffffffffff1673ffffffffffffffffffffffffffffffffffffffff1681526020019081526020016000206000846080016020810190610ab6919061226b565b73ffffffffffffffffffffffffffffffffffffffff1673ffffffffffffffffffffffffffffffffffffffff168152602001908152602001600020541015610b32576040517f08c379a0000000000000000000000000000000000000000000000000000000008152600401610b29906130d5565b60405180910390fd5b816040013560016000846020016020810190610b4e919061226b565b73ffffffffffffffffffffffffffffffffffffffff1673ffffffffffffffffffffffffffffffffffffffff1681526020019081526020016000206000846080016020810190610b9d919061226b565b73ffffffffffffffffffffffffffffffffffffffff1673ffffffffffffffffffffffffffffffffffffffff1681526020019081526020016000206000828254610be691906133ed565b925050819055505b6000610bf983611557565b9050610c326040518060600160405280856040013581526020018561014001358152602001838152506002611acf90919063ffffffff16565b7f6b8d6a2cec3e696832b71a0098f172d93c793ef03c1e1b93689a626b941d13fc8333604051610c63929190613197565b60405180910390a1809150506001600081905550919050565b60026000541415610cc2576040517f08c379a0000000000000000000000000000000000000000000000000000000008152600401610cb990613135565b60405180910390fd5b6002600081905550610cd3816119f0565b15610d1f57813414610d1a576040517f08c379a0000000000000000000000000000000000000000000000000000000008152600401610d1190613115565b60405180910390fd5b610dae565b60003414610d62576040517f08c379a0000000000000000000000000000000000000000000000000000000008152600401610d5990613055565b60405180910390fd5b610d6e81333085611a28565b610dad576040517f08c379a0000000000000000000000000000000000000000000000000000000008152600401610da490612e35565b60405180910390fd5b5b81600160003373ffffffffffffffffffffffffffffffffffffffff1673ffffffffffffffffffffffffffffffffffffffff16815260200190815260200160002060008373ffffffffffffffffffffffffffffffffffffffff1673ffffffffffffffffffffffffffffffffffffffff1681526020019081526020016000206000828254610e3a9190613397565b925050819055507f9d278c56ba6dc86a12eefe6b43112bd6e06648eb4ec0b950ee2d783d40e2acb4338284604051610e7493929190612c90565b60405180910390a160016000819055505050565b60026000541415610ece576040517f08c379a0000000000000000000000000000000000000000000000000000000008152600401610ec590613135565b60405180910390fd5b60026000819055506000610ee184611557565b90506000610ef982600261171990919063ffffffff16565b90508460400135816000015114610f45576040517f08c379a0000000000000000000000000000000000000000000000000000000008152600401610f3c90613015565b60405180910390fd5b846101400135816020015114610f90576040517f08c379a0000000000000000000000000000000000000000000000000000000008152600401610f8790612f75565b60405180910390fd5b846000016020810190610fa3919061226b565b73ffffffffffffffffffffffffffffffffffffffff166110078386868080601f016020809104026020016040519081016040528093929190818152602001838380828437600081840152601f19601f82011690508083019250505050505050611c02565b73ffffffffffffffffffffffffffffffffffffffff161461105d576040517f08c379a0000000000000000000000000000000000000000000000000000000008152600401611054906130f5565b60405180910390fd5b7f000000000000000000000000000000000000000000000000000000000000000062ffffff168560a001602081019061109691906123aa565b62ffffff161415611161578460400135600160008760200160208101906110bd919061226b565b73ffffffffffffffffffffffffffffffffffffffff1673ffffffffffffffffffffffffffffffffffffffff168152602001908152602001600020600087606001602081019061110c919061226b565b73ffffffffffffffffffffffffffffffffffffffff1673ffffffffffffffffffffffffffffffffffffffff16815260200190815260200160002060008282546111559190613397565b925050819055506112c3565b600067ffffffffffffffff8111156111a2577f4e487b7100000000000000000000000000000000000000000000000000000000600052604160045260246000fd5b6040519080825280601f01601f1916602001820160405280156111d45781602001600182028036833780820191505090505b5080519060200120858061010001906111ed9190613244565b6040516111fb929190612c4b565b604051809103902014156112805761123c85606001602081019061121f919061226b565b8660e0016020810190611232919061226b565b87604001356117b3565b61127b576040517f08c379a000000000000000000000000000000000000000000000000000000000815260040161127290613155565b60405180910390fd5b6112c2565b60006112c1576040517f08c379a00000000000000000000000000000000000000000000000000000000081526004016112b890613095565b60405180910390fd5b5b5b6112d78260026117e690919063ffffffff16565b7f280df9efeebc705987d91447e4d3d8129dc6df8ff02e029459f598e7217981e98585853360405161130c94939291906131c7565b60405180910390a150506001600081905550505050565b60026000541415611369576040517f08c379a000000000000000000000000000000000000000000000000000000000815260040161136090613135565b60405180910390fd5b600260008190555082600160003373ffffffffffffffffffffffffffffffffffffffff1673ffffffffffffffffffffffffffffffffffffffff16815260200190815260200160002060008473ffffffffffffffffffffffffffffffffffffffff1673ffffffffffffffffffffffffffffffffffffffff168152602001908152602001600020541015611430576040517f08c379a000000000000000000000000000000000000000000000000000000000815260040161142790613035565b60405180910390fd5b82600160003373ffffffffffffffffffffffffffffffffffffffff1673ffffffffffffffffffffffffffffffffffffffff16815260200190815260200160002060008473ffffffffffffffffffffffffffffffffffffffff1673ffffffffffffffffffffffffffffffffffffffff16815260200190815260200160002060008282546114bc91906133ed565b925050819055506114ce8282856117b3565b61150d576040517f08c379a000000000000000000000000000000000000000000000000000000000815260040161150490612f55565b60405180910390fd5b7f7da12116be8cb7af4b2d9e9b4a2ca2c3a3243ddd6fd3a94411902367b8eed568338385846040516115429493929190612cc7565b60405180910390a16001600081905550505050565b600080604051806101200160405280846000016020810190611579919061226b565b73ffffffffffffffffffffffffffffffffffffffff1681526020018460200160208101906115a7919061226b565b73ffffffffffffffffffffffffffffffffffffffff1681526020018460600160208101906115d5919061226b565b73ffffffffffffffffffffffffffffffffffffffff168152602001846080016020810190611603919061226b565b73ffffffffffffffffffffffffffffffffffffffff1681526020018460a001602081019061163191906123aa565b62ffffff1681526020018460c001602081019061164e91906123aa565b62ffffff1681526020018460e001602081019061166b919061226b565b73ffffffffffffffffffffffffffffffffffffffff168152602001848061010001906116979190613244565b8080601f016020809104026020016040519081016040528093929190818152602001838380828437600081840152601f19601f8201169050808301925050505050505081526020018461012001358152509050806040516020016116fb9190613175565b60405160208183030381529060405280519060200120915050919050565b611721612163565b61172b8383611ccc565b61176a576040517f08c379a000000000000000000000000000000000000000000000000000000000815260040161176190612e95565b60405180910390fd5b8260000160008381526020019081526020016000206000016040518060600160405290816000820154815260200160018201548152602001600282015481525050905092915050565b60006117be846119f0565b6117d2576117cd848484611d64565b6117dd565b6117dc8383611d7a565b5b90509392505050565b6117ef81611e00565b1561182f576040517f08c379a000000000000000000000000000000000000000000000000000000000815260040161182690612f15565b60405180910390fd5b6118398282611ccc565b611878576040517f08c379a000000000000000000000000000000000000000000000000000000000815260040161186f90612e95565b60405180910390fd5b6000826000016000838152602001908152602001600020600301549050600083600101600185600101805490506118af91906133ed565b815481106118e6577f4e487b7100000000000000000000000000000000000000000000000000000000600052603260045260246000fd5b9060005260206000200154905081846000016000838152602001908152602001600020600301819055508084600101838154811061194d577f4e487b7100000000000000000000000000000000000000000000000000000000600052603260045260246000fd5b9060005260206000200181905550836000016000848152602001908152602001600020600080820160008082016000905560018201600090556002820160009055505060038201600090555050836001018054806119d4577f4e487b7100000000000000000000000000000000000000000000000000000000600052603160045260246000fd5b6001900381819060005260206000200160009055905550505050565b60008073ffffffffffffffffffffffffffffffffffffffff168273ffffffffffffffffffffffffffffffffffffffff16149050919050565b6000611ac585858585604051602401611a4393929190612c90565b6040516020818303038152906040527f23b872dd000000000000000000000000000000000000000000000000000000007bffffffffffffffffffffffffffffffffffffffffffffffffffffffff19166020820180517bffffffffffffffffffffffffffffffffffffffffffffffffffffffff8381831617835250505050611e16565b9050949350505050565b600081604001519050611ae181611e00565b15611b21576040517f08c379a0000000000000000000000000000000000000000000000000000000008152600401611b1890612f15565b60405180910390fd5b611b2b8382611ccc565b15611b6b576040517f08c379a0000000000000000000000000000000000000000000000000000000008152600401611b6290613075565b60405180910390fd5b6040518060400160405280838152602001846001018054905081525083600001600083815260200190815260200160002060008201518160000160008201518160000155602082015181600101556040820151816002015550506020820151816003015590505082600101819080600181540180825580915050600190039060005260206000200160009091909190915055505050565b600080600080604185511415611c2f576020850151925060408501519150606085015160001a9050611cb5565b604085511415611c79576040850151602086015193507f7fffffffffffffffffffffffffffffffffffffffffffffffffffffffffffffff81169250601b8160ff1c01915050611cb4565b6040517f08c379a0000000000000000000000000000000000000000000000000000000008152600401611cab90612e15565b60405180910390fd5b5b611cc186828585611f03565b935050505092915050565b6000611cd782611e00565b158015611cec57506000836001018054905014155b8015611d5c5750611d5b836001018460000160008581526020019081526020016000206003015481548110611d4a577f4e487b7100000000000000000000000000000000000000000000000000000000600052603260045260246000fd5b90600052602060002001548361208e565b5b905092915050565b6000611d7184848461209b565b90509392505050565b60008060008473ffffffffffffffffffffffffffffffffffffffff1684604051611da390612c7b565b60006040518083038185875af1925050503d8060008114611de0576040519150601f19603f3d011682016040523d82523d6000602084013e611de5565b606091505b5091509150611df4828261213f565b60019250505092915050565b6000611e0f826000801b61208e565b9050919050565b6000611e2183612150565b611e60576040517f08c379a0000000000000000000000000000000000000000000000000000000008152600401611e5790612fb5565b60405180910390fd5b6000808473ffffffffffffffffffffffffffffffffffffffff1684604051611e889190612c64565b6000604051808303816000865af19150503d8060008114611ec5576040519150601f19603f3d011682016040523d82523d6000602084013e611eca565b606091505b5091509150611ed9828261213f565b600081511480611ef9575080806020019051810190611ef891906122d0565b5b9250505092915050565b60007f7fffffffffffffffffffffffffffffff5d576e7357a4501ddfe92f46681b20a08260001c1115611f6b576040517f08c379a0000000000000000000000000000000000000000000000000000000008152600401611f6290612eb5565b60405180910390fd5b601b8460ff161480611f805750601c8460ff16145b611fbf576040517f08c379a0000000000000000000000000000000000000000000000000000000008152600401611fb690612f95565b60405180910390fd5b600060018686868660405160008152602001604052604051611fe49493929190612d50565b6020604051602081039080840390855afa158015612006573d6000803e3d6000fd5b505050602060405103519050600073ffffffffffffffffffffffffffffffffffffffff168173ffffffffffffffffffffffffffffffffffffffff161415612082576040517f08c379a000000000000000000000000000000000000000000000000000000000815260040161207990612d95565b60405180910390fd5b80915050949350505050565b6000818314905092915050565b60006121368484846040516024016120b4929190612d0c565b6040516020818303038152906040527fa9059cbb000000000000000000000000000000000000000000000000000000007bffffffffffffffffffffffffffffffffffffffffffffffffffffffff19166020820180517bffffffffffffffffffffffffffffffffffffffffffffffffffffffff8381831617835250505050611e16565b90509392505050565b8161214c57805160208201fd5b5050565b600080823b905060008111915050919050565b60405180606001604052806000815260200160008152602001600080191681525090565b60008135905061219681613b5d565b92915050565b6000813590506121ab81613b74565b92915050565b6000815190506121c081613b8b565b92915050565b6000813590506121d581613ba2565b92915050565b60008083601f8401126121ed57600080fd5b8235905067ffffffffffffffff81111561220657600080fd5b60208301915083600182028301111561221e57600080fd5b9250929050565b6000610160828403121561223857600080fd5b81905092915050565b60008135905061225081613bb9565b92915050565b60008135905061226581613bd0565b92915050565b60006020828403121561227d57600080fd5b600061228b84828501612187565b91505092915050565b600080604083850312156122a757600080fd5b60006122b585828601612187565b92505060206122c685828601612187565b9150509250929050565b6000602082840312156122e257600080fd5b60006122f0848285016121b1565b91505092915050565b60006020828403121561230b57600080fd5b600082013567ffffffffffffffff81111561232557600080fd5b61233184828501612225565b91505092915050565b60008060006040848603121561234f57600080fd5b600084013567ffffffffffffffff81111561236957600080fd5b61237586828701612225565b935050602084013567ffffffffffffffff81111561239257600080fd5b61239e868287016121db565b92509250509250925092565b6000602082840312156123bc57600080fd5b60006123ca84828501612241565b91505092915050565b600080604083850312156123e657600080fd5b60006123f485828601612256565b925050602061240585828601612187565b9150509250929050565b60008060006060848603121561242457600080fd5b600061243286828701612256565b935050602061244386828701612187565b92505060406124548682870161219c565b9150509250925092565b612467816134a1565b82525050565b61247681613421565b82525050565b61248581613421565b82525050565b61249481613451565b82525050565b6124a381613451565b82525050565b60006124b583856132a6565b93506124c28385846134d7565b6124cb83613548565b840190509392505050565b60006124e283856132b7565b93506124ef8385846134d7565b6124f883613548565b840190509392505050565b600061250f83856132c8565b935061251c8385846134d7565b82840190509392505050565b60006125338261329b565b61253d81856132a6565b935061254d8185602086016134e6565b61255681613548565b840191505092915050565b600061256c8261329b565b61257681856132c8565b93506125868185602086016134e6565b80840191505092915050565b600061259f6018836132d3565b91506125aa82613559565b602082019050919050565b60006125c2601e836132d3565b91506125cd82613582565b602082019050919050565b60006125e56018836132d3565b91506125f0826135ab565b602082019050919050565b60006126086018836132d3565b9150612613826135d4565b602082019050919050565b600061262b601f836132d3565b9150612636826135fd565b602082019050919050565b600061264e6023836132d3565b915061265982613626565b604082019050919050565b60006126716019836132d3565b915061267c82613675565b602082019050919050565b60006126946017836132d3565b915061269f8261369e565b602082019050919050565b60006126b76024836132d3565b91506126c2826136c7565b604082019050919050565b60006126da6022836132d3565b91506126e582613716565b604082019050919050565b60006126fd6016836132d3565b915061270882613765565b602082019050919050565b60006127206020836132d3565b915061272b8261378e565b602082019050919050565b60006127436020836132d3565b915061274e826137b7565b602082019050919050565b60006127666017836132d3565b9150612771826137e0565b602082019050919050565b60006127896020836132d3565b915061279482613809565b602082019050919050565b60006127ac6016836132d3565b91506127b782613832565b602082019050919050565b60006127cf6022836132d3565b91506127da8261385b565b604082019050919050565b60006127f26011836132d3565b91506127fd826138aa565b602082019050919050565b60006128156018836132d3565b9150612820826138d3565b602082019050919050565b6000612838601e836132d3565b9150612843826138fc565b602082019050919050565b600061285b6016836132d3565b915061286682613925565b602082019050919050565b600061287e6023836132d3565b91506128898261394e565b604082019050919050565b60006128a16023836132d3565b91506128ac8261399d565b604082019050919050565b60006128c46028836132d3565b91506128cf826139ec565b604082019050919050565b60006128e7601e836132d3565b91506128f282613a3b565b602082019050919050565b600061290a6000836132c8565b915061291582613a64565b600082019050919050565b600061292d601a836132d3565b915061293882613a67565b602082019050919050565b6000612950601f836132d3565b915061295b82613a90565b602082019050919050565b6000612973601a836132d3565b915061297e82613ab9565b602082019050919050565b6000612996601c836132d3565b91506129a182613ae2565b602082019050919050565b60006129b9601f836132d3565b91506129c482613b0b565b602082019050919050565b60006129dc6018836132d3565b91506129e782613b34565b602082019050919050565b600061012083016000830151612a0b600086018261246d565b506020830151612a1e602086018261246d565b506040830151612a31604086018261246d565b506060830151612a44606086018261246d565b506080830151612a576080860182612c00565b5060a0830151612a6a60a0860182612c00565b5060c0830151612a7d60c086018261246d565b5060e083015184820360e0860152612a958282612528565b915050610100830151612aac61010086018261248b565b508091505092915050565b60006101608301612acb60008401846132e4565b612ad8600086018261246d565b50612ae660208401846132e4565b612af3602086018261246d565b50612b016040840184613380565b612b0e6040860182612c1e565b50612b1c60608401846132e4565b612b29606086018261246d565b50612b3760808401846132e4565b612b44608086018261246d565b50612b5260a0840184613369565b612b5f60a0860182612c00565b50612b6d60c0840184613369565b612b7a60c0860182612c00565b50612b8860e08401846132e4565b612b9560e086018261246d565b50612ba4610100840184613312565b858303610100870152612bb88382846124a9565b92505050612bca6101208401846132fb565b612bd861012086018261248b565b50612be7610140840184613380565b612bf5610140860182612c1e565b508091505092915050565b612c098161347b565b82525050565b612c188161347b565b82525050565b612c278161348a565b82525050565b612c368161348a565b82525050565b612c4581613494565b82525050565b6000612c58828486612503565b91508190509392505050565b6000612c708284612561565b915081905092915050565b6000612c86826128fd565b9150819050919050565b6000606082019050612ca5600083018661247c565b612cb2602083018561247c565b612cbf6040830184612c2d565b949350505050565b6000608082019050612cdc600083018761247c565b612ce9602083018661247c565b612cf66040830185612c2d565b612d03606083018461245e565b95945050505050565b6000604082019050612d21600083018561247c565b612d2e6020830184612c2d565b9392505050565b6000602082019050612d4a600083018461249a565b92915050565b6000608082019050612d65600083018761249a565b612d726020830186612c3c565b612d7f604083018561249a565b612d8c606083018461249a565b95945050505050565b60006020820190508181036000830152612dae81612592565b9050919050565b60006020820190508181036000830152612dce816125b5565b9050919050565b60006020820190508181036000830152612dee816125d8565b9050919050565b60006020820190508181036000830152612e0e816125fb565b9050919050565b60006020820190508181036000830152612e2e8161261e565b9050919050565b60006020820190508181036000830152612e4e81612641565b9050919050565b60006020820190508181036000830152612e6e81612664565b9050919050565b60006020820190508181036000830152612e8e81612687565b9050919050565b60006020820190508181036000830152612eae816126aa565b9050919050565b60006020820190508181036000830152612ece816126cd565b9050919050565b60006020820190508181036000830152612eee816126f0565b9050919050565b60006020820190508181036000830152612f0e81612713565b9050919050565b60006020820190508181036000830152612f2e81612736565b9050919050565b60006020820190508181036000830152612f4e81612759565b9050919050565b60006020820190508181036000830152612f6e8161277c565b9050919050565b60006020820190508181036000830152612f8e8161279f565b9050919050565b60006020820190508181036000830152612fae816127c2565b9050919050565b60006020820190508181036000830152612fce816127e5565b9050919050565b60006020820190508181036000830152612fee81612808565b9050919050565b6000602082019050818103600083015261300e8161282b565b9050919050565b6000602082019050818103600083015261302e8161284e565b9050919050565b6000602082019050818103600083015261304e81612871565b9050919050565b6000602082019050818103600083015261306e81612894565b9050919050565b6000602082019050818103600083015261308e816128b7565b9050919050565b600060208201905081810360008301526130ae816128da565b9050919050565b600060208201905081810360008301526130ce81612920565b9050919050565b600060208201905081810360008301526130ee81612943565b9050919050565b6000602082019050818103600083015261310e81612966565b9050919050565b6000602082019050818103600083015261312e81612989565b9050919050565b6000602082019050818103600083015261314e816129ac565b9050919050565b6000602082019050818103600083015261316e816129cf565b9050919050565b6000602082019050818103600083015261318f81846129f2565b905092915050565b600060408201905081810360008301526131b18185612ab7565b90506131c0602083018461247c565b9392505050565b600060608201905081810360008301526131e18187612ab7565b905081810360208301526131f68185876124d6565b9050613205604083018461247c565b95945050505050565b60006020820190506132236000830184612c0f565b92915050565b600060208201905061323e6000830184612c2d565b92915050565b6000808335600160200384360303811261325d57600080fd5b80840192508235915067ffffffffffffffff82111561327b57600080fd5b60208301925060018202360383131561329357600080fd5b509250929050565b600081519050919050565b600082825260208201905092915050565b600082825260208201905092915050565b600081905092915050565b600082825260208201905092915050565b60006132f36020840184612187565b905092915050565b600061330a60208401846121c6565b905092915050565b6000808335600160200384360303811261332b57600080fd5b83810192508235915060208301925067ffffffffffffffff82111561334f57600080fd5b60018202360384131561336157600080fd5b509250929050565b60006133786020840184612241565b905092915050565b600061338f6020840184612256565b905092915050565b60006133a28261348a565b91506133ad8361348a565b9250827fffffffffffffffffffffffffffffffffffffffffffffffffffffffffffffffff038211156133e2576133e1613519565b5b828201905092915050565b60006133f88261348a565b91506134038361348a565b92508282101561341657613415613519565b5b828203905092915050565b600061342c8261345b565b9050919050565b600061343e8261345b565b9050919050565b60008115159050919050565b6000819050919050565b600073ffffffffffffffffffffffffffffffffffffffff82169050919050565b600062ffffff82169050919050565b6000819050919050565b600060ff82169050919050565b60006134ac826134b3565b9050919050565b60006134be826134c5565b9050919050565b60006134d08261345b565b9050919050565b82818337600083830152505050565b60005b838110156135045780820151818401526020810190506134e9565b83811115613513576000848401525b50505050565b7f4e487b7100000000000000000000000000000000000000000000000000000000600052601160045260246000fd5b6000601f19601f8301169050919050565b7f45434453413a20696e76616c6964207369676e61747572650000000000000000600082015250565b7f707265706172653a2045524332305f5452414e534645525f4641494c45440000600082015250565b7f707265706172653a20524f555445525f4d49534d415443480000000000000000600082015250565b7f707265706172653a2054494d454f55545f544f4f5f4c4f570000000000000000600082015250565b7f45434453413a20696e76616c6964207369676e6174757265206c656e67746800600082015250565b7f6164644c69717569646974793a2045524332305f5452414e534645525f46414960008201527f4c45440000000000000000000000000000000000000000000000000000000000602082015250565b7f707265706172653a20494e56414c49445f434841494e49445300000000000000600082015250565b7f63616e63656c3a205452414e534645525f4641494c4544000000000000000000600082015250565b7f4c69624974657261626c654d617070696e673a204449474553545f4e4f545f4660008201527f4f554e4400000000000000000000000000000000000000000000000000000000602082015250565b7f45434453413a20696e76616c6964207369676e6174757265202773272076616c60008201527f7565000000000000000000000000000000000000000000000000000000000000602082015250565b7f707265706172653a2053414d455f434841494e49445300000000000000000000600082015250565b7f707265706172653a20494e56414c49445f524543454956494e475f434841494e600082015250565b7f4c69624974657261626c654d617070696e673a20454d5054595f444947455354600082015250565b7f707265706172653a2056414c55455f4d49534d41544348000000000000000000600082015250565b7f72656d6f76654c69717569646974793a205452414e534645525f4641494c4544600082015250565b7f63616e63656c3a20494e56414c49445f45585049525900000000000000000000600082015250565b7f45434453413a20696e76616c6964207369676e6174757265202776272076616c60008201527f7565000000000000000000000000000000000000000000000000000000000000602082015250565b7f4c696245524332303a204e4f5f434f4445000000000000000000000000000000600082015250565b7f63616e63656c3a20555345525f4d5553545f43414e43454c0000000000000000600082015250565b7f707265706172653a204554485f574954485f4552435f5452414e534645520000600082015250565b7f63616e63656c3a20494e56414c49445f414d4f554e5400000000000000000000600082015250565b7f72656d6f76654c69717569646974793a20494e53554646494349454e545f465560008201527f4e44530000000000000000000000000000000000000000000000000000000000602082015250565b7f6164644c69717569646974793a204554485f574954485f4552435f5452414e5360008201527f4645520000000000000000000000000000000000000000000000000000000000602082015250565b7f4c69624974657261626c654d617070696e673a204449474553545f414c52454160008201527f44595f4144444544000000000000000000000000000000000000000000000000602082015250565b7f66756c66696c6c3a20616464206d756c746963616c6c207061747465726e0000600082015250565b50565b7f63616e63656c3a20524f555445525f4d5553545f43414e43454c000000000000600082015250565b7f707265706172653a20494e53554646494349454e545f4c495155494449545900600082015250565b7f66756c66696c6c3a20494e56414c49445f5349474e4154555245000000000000600082015250565b7f6164644c69717569646974793a2056414c55455f4d49534d4154434800000000600082015250565b7f5265656e7472616e637947756172643a207265656e7472616e742063616c6c00600082015250565b7f66756c66696c6c3a205452414e534645525f4641494c45440000000000000000600082015250565b613b6681613421565b8114613b7157600080fd5b50565b613b7d81613433565b8114613b8857600080fd5b50565b613b9481613445565b8114613b9f57600080fd5b50565b613bab81613451565b8114613bb657600080fd5b50565b613bc28161347b565b8114613bcd57600080fd5b50565b613bd98161348a565b8114613be457600080fd5b5056fea26469706673582212203b4335ca71ff1c0b4c1e2be0f0d368826d387540e2a0fd07a4449ede10db037664736f6c63430008040033",
          "opcodes": "PUSH1 0xA0 PUSH1 0x40 MSTORE CALLVALUE DUP1 ISZERO PUSH3 0x11 JUMPI PUSH1 0x0 DUP1 REVERT JUMPDEST POP PUSH1 0x40 MLOAD PUSH3 0x3D2D CODESIZE SUB DUP1 PUSH3 0x3D2D DUP4 CODECOPY DUP2 DUP2 ADD PUSH1 0x40 MSTORE DUP2 ADD SWAP1 PUSH3 0x37 SWAP2 SWAP1 PUSH3 0x72 JUMP JUMPDEST PUSH1 0x1 PUSH1 0x0 DUP2 SWAP1 SSTORE POP DUP1 PUSH3 0xFFFFFF AND PUSH1 0x80 DUP2 PUSH3 0xFFFFFF AND PUSH1 0xE8 SHL DUP2 MSTORE POP POP POP PUSH3 0xC7 JUMP JUMPDEST PUSH1 0x0 DUP2 MLOAD SWAP1 POP PUSH3 0x6C DUP2 PUSH3 0xAD JUMP JUMPDEST SWAP3 SWAP2 POP POP JUMP JUMPDEST PUSH1 0x0 PUSH1 0x20 DUP3 DUP5 SUB SLT ISZERO PUSH3 0x85 JUMPI PUSH1 0x0 DUP1 REVERT JUMPDEST PUSH1 0x0 PUSH3 0x95 DUP5 DUP3 DUP6 ADD PUSH3 0x5B JUMP JUMPDEST SWAP2 POP POP SWAP3 SWAP2 POP POP JUMP JUMPDEST PUSH1 0x0 PUSH3 0xFFFFFF DUP3 AND SWAP1 POP SWAP2 SWAP1 POP JUMP JUMPDEST PUSH3 0xB8 DUP2 PUSH3 0x9E JUMP JUMPDEST DUP2 EQ PUSH3 0xC4 JUMPI PUSH1 0x0 DUP1 REVERT JUMPDEST POP JUMP JUMPDEST PUSH1 0x80 MLOAD PUSH1 0xE8 SHR PUSH2 0x3C1D PUSH3 0x110 PUSH1 0x0 CODECOPY PUSH1 0x0 DUP2 DUP2 PUSH2 0x30E ADD MSTORE DUP2 DUP2 PUSH2 0x5F9 ADD MSTORE DUP2 DUP2 PUSH2 0x732 ADD MSTORE DUP2 DUP2 PUSH2 0x777 ADD MSTORE DUP2 DUP2 PUSH2 0x7F6 ADD MSTORE DUP2 DUP2 PUSH2 0x967 ADD MSTORE PUSH2 0x105F ADD MSTORE PUSH2 0x3C1D PUSH1 0x0 RETURN INVALID PUSH1 0x80 PUSH1 0x40 MSTORE PUSH1 0x4 CALLDATASIZE LT PUSH2 0x7B JUMPI PUSH1 0x0 CALLDATALOAD PUSH1 0xE0 SHR DUP1 PUSH4 0xC06ADAEE GT PUSH2 0x4E JUMPI DUP1 PUSH4 0xC06ADAEE EQ PUSH2 0x13C JUMPI DUP1 PUSH4 0xC95F9D0E EQ PUSH2 0x16C JUMPI DUP1 PUSH4 0xE9088189 EQ PUSH2 0x188 JUMPI DUP1 PUSH4 0xF31ABCC4 EQ PUSH2 0x1B1 JUMPI PUSH2 0x7B JUMP JUMPDEST DUP1 PUSH4 0x41258B5C EQ PUSH2 0x80 JUMPI DUP1 PUSH4 0x543AD1DF EQ PUSH2 0xBD JUMPI DUP1 PUSH4 0x7C32FBA9 EQ PUSH2 0xE8 JUMPI DUP1 PUSH4 0x9A8A0592 EQ PUSH2 0x111 JUMPI JUMPDEST PUSH1 0x0 DUP1 REVERT JUMPDEST CALLVALUE DUP1 ISZERO PUSH2 0x8C JUMPI PUSH1 0x0 DUP1 REVERT JUMPDEST POP PUSH2 0xA7 PUSH1 0x4 DUP1 CALLDATASIZE SUB DUP2 ADD SWAP1 PUSH2 0xA2 SWAP2 SWAP1 PUSH2 0x2294 JUMP JUMPDEST PUSH2 0x1DA JUMP JUMPDEST PUSH1 0x40 MLOAD PUSH2 0xB4 SWAP2 SWAP1 PUSH2 0x3229 JUMP JUMPDEST PUSH1 0x40 MLOAD DUP1 SWAP2 SUB SWAP1 RETURN JUMPDEST CALLVALUE DUP1 ISZERO PUSH2 0xC9 JUMPI PUSH1 0x0 DUP1 REVERT JUMPDEST POP PUSH2 0xD2 PUSH2 0x1FF JUMP JUMPDEST PUSH1 0x40 MLOAD PUSH2 0xDF SWAP2 SWAP1 PUSH2 0x3229 JUMP JUMPDEST PUSH1 0x40 MLOAD DUP1 SWAP2 SUB SWAP1 RETURN JUMPDEST CALLVALUE DUP1 ISZERO PUSH2 0xF4 JUMPI PUSH1 0x0 DUP1 REVERT JUMPDEST POP PUSH2 0x10F PUSH1 0x4 DUP1 CALLDATASIZE SUB DUP2 ADD SWAP1 PUSH2 0x10A SWAP2 SWAP1 PUSH2 0x22F9 JUMP JUMPDEST PUSH2 0x204 JUMP JUMPDEST STOP JUMPDEST CALLVALUE DUP1 ISZERO PUSH2 0x11D JUMPI PUSH1 0x0 DUP1 REVERT JUMPDEST POP PUSH2 0x126 PUSH2 0x5F7 JUMP JUMPDEST PUSH1 0x40 MLOAD PUSH2 0x133 SWAP2 SWAP1 PUSH2 0x320E JUMP JUMPDEST PUSH1 0x40 MLOAD DUP1 SWAP2 SUB SWAP1 RETURN JUMPDEST PUSH2 0x156 PUSH1 0x4 DUP1 CALLDATASIZE SUB DUP2 ADD SWAP1 PUSH2 0x151 SWAP2 SWAP1 PUSH2 0x22F9 JUMP JUMPDEST PUSH2 0x61B JUMP JUMPDEST PUSH1 0x40 MLOAD PUSH2 0x163 SWAP2 SWAP1 PUSH2 0x2D35 JUMP JUMPDEST PUSH1 0x40 MLOAD DUP1 SWAP2 SUB SWAP1 RETURN JUMPDEST PUSH2 0x186 PUSH1 0x4 DUP1 CALLDATASIZE SUB DUP2 ADD SWAP1 PUSH2 0x181 SWAP2 SWAP1 PUSH2 0x23D3 JUMP JUMPDEST PUSH2 0xC7C JUMP JUMPDEST STOP JUMPDEST CALLVALUE DUP1 ISZERO PUSH2 0x194 JUMPI PUSH1 0x0 DUP1 REVERT JUMPDEST POP PUSH2 0x1AF PUSH1 0x4 DUP1 CALLDATASIZE SUB DUP2 ADD SWAP1 PUSH2 0x1AA SWAP2 SWAP1 PUSH2 0x233A JUMP JUMPDEST PUSH2 0xE88 JUMP JUMPDEST STOP JUMPDEST CALLVALUE DUP1 ISZERO PUSH2 0x1BD JUMPI PUSH1 0x0 DUP1 REVERT JUMPDEST POP PUSH2 0x1D8 PUSH1 0x4 DUP1 CALLDATASIZE SUB DUP2 ADD SWAP1 PUSH2 0x1D3 SWAP2 SWAP1 PUSH2 0x240F JUMP JUMPDEST PUSH2 0x1323 JUMP JUMPDEST STOP JUMPDEST PUSH1 0x1 PUSH1 0x20 MSTORE DUP2 PUSH1 0x0 MSTORE PUSH1 0x40 PUSH1 0x0 KECCAK256 PUSH1 0x20 MSTORE DUP1 PUSH1 0x0 MSTORE PUSH1 0x40 PUSH1 0x0 KECCAK256 PUSH1 0x0 SWAP2 POP SWAP2 POP POP SLOAD DUP2 JUMP JUMPDEST PUSH1 0x0 DUP2 JUMP JUMPDEST PUSH1 0x2 PUSH1 0x0 SLOAD EQ ISZERO PUSH2 0x24A JUMPI PUSH1 0x40 MLOAD PUSH32 0x8C379A000000000000000000000000000000000000000000000000000000000 DUP2 MSTORE PUSH1 0x4 ADD PUSH2 0x241 SWAP1 PUSH2 0x3135 JUMP JUMPDEST PUSH1 0x40 MLOAD DUP1 SWAP2 SUB SWAP1 REVERT JUMPDEST PUSH1 0x2 PUSH1 0x0 DUP2 SWAP1 SSTORE POP PUSH1 0x0 PUSH2 0x25D DUP3 PUSH2 0x1557 JUMP JUMPDEST SWAP1 POP PUSH1 0x0 PUSH2 0x275 DUP3 PUSH1 0x2 PUSH2 0x1719 SWAP1 SWAP2 SWAP1 PUSH4 0xFFFFFFFF AND JUMP JUMPDEST SWAP1 POP DUP3 PUSH1 0x40 ADD CALLDATALOAD DUP2 PUSH1 0x0 ADD MLOAD EQ PUSH2 0x2C1 JUMPI PUSH1 0x40 MLOAD PUSH32 0x8C379A000000000000000000000000000000000000000000000000000000000 DUP2 MSTORE PUSH1 0x4 ADD PUSH2 0x2B8 SWAP1 PUSH2 0x3015 JUMP JUMPDEST PUSH1 0x40 MLOAD DUP1 SWAP2 SUB SWAP1 REVERT JUMPDEST DUP3 PUSH2 0x140 ADD CALLDATALOAD DUP2 PUSH1 0x20 ADD MLOAD EQ PUSH2 0x30C JUMPI PUSH1 0x40 MLOAD PUSH32 0x8C379A000000000000000000000000000000000000000000000000000000000 DUP2 MSTORE PUSH1 0x4 ADD PUSH2 0x303 SWAP1 PUSH2 0x2F75 JUMP JUMPDEST PUSH1 0x40 MLOAD DUP1 SWAP2 SUB SWAP1 REVERT JUMPDEST PUSH32 0x0 PUSH3 0xFFFFFF AND DUP4 PUSH1 0xA0 ADD PUSH1 0x20 DUP2 ADD SWAP1 PUSH2 0x345 SWAP2 SWAP1 PUSH2 0x23AA JUMP JUMPDEST PUSH3 0xFFFFFF AND EQ ISZERO PUSH2 0x454 JUMPI TIMESTAMP DUP4 PUSH2 0x140 ADD CALLDATALOAD LT PUSH2 0x3DD JUMPI DUP3 PUSH1 0x20 ADD PUSH1 0x20 DUP2 ADD SWAP1 PUSH2 0x36F SWAP2 SWAP1 PUSH2 0x226B JUMP JUMPDEST PUSH20 0xFFFFFFFFFFFFFFFFFFFFFFFFFFFFFFFFFFFFFFFF AND CALLER PUSH20 0xFFFFFFFFFFFFFFFFFFFFFFFFFFFFFFFFFFFFFFFF AND EQ PUSH2 0x3DC JUMPI PUSH1 0x40 MLOAD PUSH32 0x8C379A000000000000000000000000000000000000000000000000000000000 DUP2 MSTORE PUSH1 0x4 ADD PUSH2 0x3D3 SWAP1 PUSH2 0x30B5 JUMP JUMPDEST PUSH1 0x40 MLOAD DUP1 SWAP2 SUB SWAP1 REVERT JUMPDEST JUMPDEST PUSH2 0x410 DUP4 PUSH1 0x60 ADD PUSH1 0x20 DUP2 ADD SWAP1 PUSH2 0x3F3 SWAP2 SWAP1 PUSH2 0x226B JUMP JUMPDEST DUP5 PUSH1 0x0 ADD PUSH1 0x20 DUP2 ADD SWAP1 PUSH2 0x406 SWAP2 SWAP1 PUSH2 0x226B JUMP JUMPDEST DUP6 PUSH1 0x40 ADD CALLDATALOAD PUSH2 0x17B3 JUMP JUMPDEST PUSH2 0x44F JUMPI PUSH1 0x40 MLOAD PUSH32 0x8C379A000000000000000000000000000000000000000000000000000000000 DUP2 MSTORE PUSH1 0x4 ADD PUSH2 0x446 SWAP1 PUSH2 0x2E75 JUMP JUMPDEST PUSH1 0x40 MLOAD DUP1 SWAP2 SUB SWAP1 REVERT JUMPDEST PUSH2 0x59D JUMP JUMPDEST TIMESTAMP DUP4 PUSH2 0x140 ADD CALLDATALOAD LT PUSH2 0x4E1 JUMPI DUP3 PUSH1 0x0 ADD PUSH1 0x20 DUP2 ADD SWAP1 PUSH2 0x473 SWAP2 SWAP1 PUSH2 0x226B JUMP JUMPDEST PUSH20 0xFFFFFFFFFFFFFFFFFFFFFFFFFFFFFFFFFFFFFFFF AND CALLER PUSH20 0xFFFFFFFFFFFFFFFFFFFFFFFFFFFFFFFFFFFFFFFF AND EQ PUSH2 0x4E0 JUMPI PUSH1 0x40 MLOAD PUSH32 0x8C379A000000000000000000000000000000000000000000000000000000000 DUP2 MSTORE PUSH1 0x4 ADD PUSH2 0x4D7 SWAP1 PUSH2 0x2FD5 JUMP JUMPDEST PUSH1 0x40 MLOAD DUP1 SWAP2 SUB SWAP1 REVERT JUMPDEST JUMPDEST DUP3 PUSH1 0x40 ADD CALLDATALOAD PUSH1 0x1 PUSH1 0x0 DUP6 PUSH1 0x20 ADD PUSH1 0x20 DUP2 ADD SWAP1 PUSH2 0x4FD SWAP2 SWAP1 PUSH2 0x226B JUMP JUMPDEST PUSH20 0xFFFFFFFFFFFFFFFFFFFFFFFFFFFFFFFFFFFFFFFF AND PUSH20 0xFFFFFFFFFFFFFFFFFFFFFFFFFFFFFFFFFFFFFFFF AND DUP2 MSTORE PUSH1 0x20 ADD SWAP1 DUP2 MSTORE PUSH1 0x20 ADD PUSH1 0x0 KECCAK256 PUSH1 0x0 DUP6 PUSH1 0x80 ADD PUSH1 0x20 DUP2 ADD SWAP1 PUSH2 0x54C SWAP2 SWAP1 PUSH2 0x226B JUMP JUMPDEST PUSH20 0xFFFFFFFFFFFFFFFFFFFFFFFFFFFFFFFFFFFFFFFF AND PUSH20 0xFFFFFFFFFFFFFFFFFFFFFFFFFFFFFFFFFFFFFFFF AND DUP2 MSTORE PUSH1 0x20 ADD SWAP1 DUP2 MSTORE PUSH1 0x20 ADD PUSH1 0x0 KECCAK256 PUSH1 0x0 DUP3 DUP3 SLOAD PUSH2 0x595 SWAP2 SWAP1 PUSH2 0x3397 JUMP JUMPDEST SWAP3 POP POP DUP2 SWAP1 SSTORE POP JUMPDEST PUSH2 0x5B1 DUP3 PUSH1 0x2 PUSH2 0x17E6 SWAP1 SWAP2 SWAP1 PUSH4 0xFFFFFFFF AND JUMP JUMPDEST PUSH32 0x199DEBA8A6A6013AF443143040BBB1EC3F4313F2DB743530E1DC4B0CD40F1B51 DUP4 CALLER PUSH1 0x40 MLOAD PUSH2 0x5E2 SWAP3 SWAP2 SWAP1 PUSH2 0x3197 JUMP JUMPDEST PUSH1 0x40 MLOAD DUP1 SWAP2 SUB SWAP1 LOG1 POP POP PUSH1 0x1 PUSH1 0x0 DUP2 SWAP1 SSTORE POP POP JUMP JUMPDEST PUSH32 0x0 DUP2 JUMP JUMPDEST PUSH1 0x0 PUSH1 0x2 PUSH1 0x0 SLOAD EQ ISZERO PUSH2 0x663 JUMPI PUSH1 0x40 MLOAD PUSH32 0x8C379A000000000000000000000000000000000000000000000000000000000 DUP2 MSTORE PUSH1 0x4 ADD PUSH2 0x65A SWAP1 PUSH2 0x3135 JUMP JUMPDEST PUSH1 0x40 MLOAD DUP1 SWAP2 SUB SWAP1 REVERT JUMPDEST PUSH1 0x2 PUSH1 0x0 DUP2 SWAP1 SSTORE POP PUSH1 0x0 TIMESTAMP DUP4 PUSH2 0x140 ADD CALLDATALOAD PUSH2 0x67E SWAP2 SWAP1 PUSH2 0x33ED JUMP JUMPDEST LT ISZERO PUSH2 0x6BF JUMPI PUSH1 0x40 MLOAD PUSH32 0x8C379A000000000000000000000000000000000000000000000000000000000 DUP2 MSTORE PUSH1 0x4 ADD PUSH2 0x6B6 SWAP1 PUSH2 0x2DF5 JUMP JUMPDEST PUSH1 0x40 MLOAD DUP1 SWAP2 SUB SWAP1 REVERT JUMPDEST DUP2 PUSH1 0xC0 ADD PUSH1 0x20 DUP2 ADD SWAP1 PUSH2 0x6D2 SWAP2 SWAP1 PUSH2 0x23AA JUMP JUMPDEST PUSH3 0xFFFFFF AND DUP3 PUSH1 0xA0 ADD PUSH1 0x20 DUP2 ADD SWAP1 PUSH2 0x6EA SWAP2 SWAP1 PUSH2 0x23AA JUMP JUMPDEST PUSH3 0xFFFFFF AND EQ ISZERO PUSH2 0x730 JUMPI PUSH1 0x40 MLOAD PUSH32 0x8C379A000000000000000000000000000000000000000000000000000000000 DUP2 MSTORE PUSH1 0x4 ADD PUSH2 0x727 SWAP1 PUSH2 0x2ED5 JUMP JUMPDEST PUSH1 0x40 MLOAD DUP1 SWAP2 SUB SWAP1 REVERT JUMPDEST PUSH32 0x0 PUSH3 0xFFFFFF AND DUP3 PUSH1 0xA0 ADD PUSH1 0x20 DUP2 ADD SWAP1 PUSH2 0x769 SWAP2 SWAP1 PUSH2 0x23AA JUMP JUMPDEST PUSH3 0xFFFFFF AND EQ DUP1 PUSH2 0x7B5 JUMPI POP PUSH32 0x0 PUSH3 0xFFFFFF AND DUP3 PUSH1 0xC0 ADD PUSH1 0x20 DUP2 ADD SWAP1 PUSH2 0x7AE SWAP2 SWAP1 PUSH2 0x23AA JUMP JUMPDEST PUSH3 0xFFFFFF AND EQ JUMPDEST PUSH2 0x7F4 JUMPI PUSH1 0x40 MLOAD PUSH32 0x8C379A000000000000000000000000000000000000000000000000000000000 DUP2 MSTORE PUSH1 0x4 ADD PUSH2 0x7EB SWAP1 PUSH2 0x2E55 JUMP JUMPDEST PUSH1 0x40 MLOAD DUP1 SWAP2 SUB SWAP1 REVERT JUMPDEST PUSH32 0x0 PUSH3 0xFFFFFF AND DUP3 PUSH1 0xA0 ADD PUSH1 0x20 DUP2 ADD SWAP1 PUSH2 0x82D SWAP2 SWAP1 PUSH2 0x23AA JUMP JUMPDEST PUSH3 0xFFFFFF AND EQ ISZERO PUSH2 0x94D JUMPI PUSH2 0x853 DUP3 PUSH1 0x60 ADD PUSH1 0x20 DUP2 ADD SWAP1 PUSH2 0x84E SWAP2 SWAP1 PUSH2 0x226B JUMP JUMPDEST PUSH2 0x19F0 JUMP JUMPDEST ISZERO PUSH2 0x8A3 JUMPI DUP2 PUSH1 0x40 ADD CALLDATALOAD CALLVALUE EQ PUSH2 0x89E JUMPI PUSH1 0x40 MLOAD PUSH32 0x8C379A000000000000000000000000000000000000000000000000000000000 DUP2 MSTORE PUSH1 0x4 ADD PUSH2 0x895 SWAP1 PUSH2 0x2F35 JUMP JUMPDEST PUSH1 0x40 MLOAD DUP1 SWAP2 SUB SWAP1 REVERT JUMPDEST PUSH2 0x948 JUMP JUMPDEST PUSH1 0x0 CALLVALUE EQ PUSH2 0x8E6 JUMPI PUSH1 0x40 MLOAD PUSH32 0x8C379A000000000000000000000000000000000000000000000000000000000 DUP2 MSTORE PUSH1 0x4 ADD PUSH2 0x8DD SWAP1 PUSH2 0x2FF5 JUMP JUMPDEST PUSH1 0x40 MLOAD DUP1 SWAP2 SUB SWAP1 REVERT JUMPDEST PUSH2 0x908 DUP3 PUSH1 0x60 ADD PUSH1 0x20 DUP2 ADD SWAP1 PUSH2 0x8FC SWAP2 SWAP1 PUSH2 0x226B JUMP JUMPDEST CALLER ADDRESS DUP6 PUSH1 0x40 ADD CALLDATALOAD PUSH2 0x1A28 JUMP JUMPDEST PUSH2 0x947 JUMPI PUSH1 0x40 MLOAD PUSH32 0x8C379A000000000000000000000000000000000000000000000000000000000 DUP2 MSTORE PUSH1 0x4 ADD PUSH2 0x93E SWAP1 PUSH2 0x2DB5 JUMP JUMPDEST PUSH1 0x40 MLOAD DUP1 SWAP2 SUB SWAP1 REVERT JUMPDEST JUMPDEST PUSH2 0xBEE JUMP JUMPDEST DUP2 PUSH1 0xC0 ADD PUSH1 0x20 DUP2 ADD SWAP1 PUSH2 0x960 SWAP2 SWAP1 PUSH2 0x23AA JUMP JUMPDEST PUSH3 0xFFFFFF AND PUSH32 0x0 PUSH3 0xFFFFFF AND EQ PUSH2 0x9CB JUMPI PUSH1 0x40 MLOAD PUSH32 0x8C379A000000000000000000000000000000000000000000000000000000000 DUP2 MSTORE PUSH1 0x4 ADD PUSH2 0x9C2 SWAP1 PUSH2 0x2EF5 JUMP JUMPDEST PUSH1 0x40 MLOAD DUP1 SWAP2 SUB SWAP1 REVERT JUMPDEST DUP2 PUSH1 0x20 ADD PUSH1 0x20 DUP2 ADD SWAP1 PUSH2 0x9DE SWAP2 SWAP1 PUSH2 0x226B JUMP JUMPDEST PUSH20 0xFFFFFFFFFFFFFFFFFFFFFFFFFFFFFFFFFFFFFFFF AND CALLER PUSH20 0xFFFFFFFFFFFFFFFFFFFFFFFFFFFFFFFFFFFFFFFF AND EQ PUSH2 0xA4B JUMPI PUSH1 0x40 MLOAD PUSH32 0x8C379A000000000000000000000000000000000000000000000000000000000 DUP2 MSTORE PUSH1 0x4 ADD PUSH2 0xA42 SWAP1 PUSH2 0x2DD5 JUMP JUMPDEST PUSH1 0x40 MLOAD DUP1 SWAP2 SUB SWAP1 REVERT JUMPDEST DUP2 PUSH1 0x40 ADD CALLDATALOAD PUSH1 0x1 PUSH1 0x0 DUP5 PUSH1 0x20 ADD PUSH1 0x20 DUP2 ADD SWAP1 PUSH2 0xA67 SWAP2 SWAP1 PUSH2 0x226B JUMP JUMPDEST PUSH20 0xFFFFFFFFFFFFFFFFFFFFFFFFFFFFFFFFFFFFFFFF AND PUSH20 0xFFFFFFFFFFFFFFFFFFFFFFFFFFFFFFFFFFFFFFFF AND DUP2 MSTORE PUSH1 0x20 ADD SWAP1 DUP2 MSTORE PUSH1 0x20 ADD PUSH1 0x0 KECCAK256 PUSH1 0x0 DUP5 PUSH1 0x80 ADD PUSH1 0x20 DUP2 ADD SWAP1 PUSH2 0xAB6 SWAP2 SWAP1 PUSH2 0x226B JUMP JUMPDEST PUSH20 0xFFFFFFFFFFFFFFFFFFFFFFFFFFFFFFFFFFFFFFFF AND PUSH20 0xFFFFFFFFFFFFFFFFFFFFFFFFFFFFFFFFFFFFFFFF AND DUP2 MSTORE PUSH1 0x20 ADD SWAP1 DUP2 MSTORE PUSH1 0x20 ADD PUSH1 0x0 KECCAK256 SLOAD LT ISZERO PUSH2 0xB32 JUMPI PUSH1 0x40 MLOAD PUSH32 0x8C379A000000000000000000000000000000000000000000000000000000000 DUP2 MSTORE PUSH1 0x4 ADD PUSH2 0xB29 SWAP1 PUSH2 0x30D5 JUMP JUMPDEST PUSH1 0x40 MLOAD DUP1 SWAP2 SUB SWAP1 REVERT JUMPDEST DUP2 PUSH1 0x40 ADD CALLDATALOAD PUSH1 0x1 PUSH1 0x0 DUP5 PUSH1 0x20 ADD PUSH1 0x20 DUP2 ADD SWAP1 PUSH2 0xB4E SWAP2 SWAP1 PUSH2 0x226B JUMP JUMPDEST PUSH20 0xFFFFFFFFFFFFFFFFFFFFFFFFFFFFFFFFFFFFFFFF AND PUSH20 0xFFFFFFFFFFFFFFFFFFFFFFFFFFFFFFFFFFFFFFFF AND DUP2 MSTORE PUSH1 0x20 ADD SWAP1 DUP2 MSTORE PUSH1 0x20 ADD PUSH1 0x0 KECCAK256 PUSH1 0x0 DUP5 PUSH1 0x80 ADD PUSH1 0x20 DUP2 ADD SWAP1 PUSH2 0xB9D SWAP2 SWAP1 PUSH2 0x226B JUMP JUMPDEST PUSH20 0xFFFFFFFFFFFFFFFFFFFFFFFFFFFFFFFFFFFFFFFF AND PUSH20 0xFFFFFFFFFFFFFFFFFFFFFFFFFFFFFFFFFFFFFFFF AND DUP2 MSTORE PUSH1 0x20 ADD SWAP1 DUP2 MSTORE PUSH1 0x20 ADD PUSH1 0x0 KECCAK256 PUSH1 0x0 DUP3 DUP3 SLOAD PUSH2 0xBE6 SWAP2 SWAP1 PUSH2 0x33ED JUMP JUMPDEST SWAP3 POP POP DUP2 SWAP1 SSTORE POP JUMPDEST PUSH1 0x0 PUSH2 0xBF9 DUP4 PUSH2 0x1557 JUMP JUMPDEST SWAP1 POP PUSH2 0xC32 PUSH1 0x40 MLOAD DUP1 PUSH1 0x60 ADD PUSH1 0x40 MSTORE DUP1 DUP6 PUSH1 0x40 ADD CALLDATALOAD DUP2 MSTORE PUSH1 0x20 ADD DUP6 PUSH2 0x140 ADD CALLDATALOAD DUP2 MSTORE PUSH1 0x20 ADD DUP4 DUP2 MSTORE POP PUSH1 0x2 PUSH2 0x1ACF SWAP1 SWAP2 SWAP1 PUSH4 0xFFFFFFFF AND JUMP JUMPDEST PUSH32 0x6B8D6A2CEC3E696832B71A0098F172D93C793EF03C1E1B93689A626B941D13FC DUP4 CALLER PUSH1 0x40 MLOAD PUSH2 0xC63 SWAP3 SWAP2 SWAP1 PUSH2 0x3197 JUMP JUMPDEST PUSH1 0x40 MLOAD DUP1 SWAP2 SUB SWAP1 LOG1 DUP1 SWAP2 POP POP PUSH1 0x1 PUSH1 0x0 DUP2 SWAP1 SSTORE POP SWAP2 SWAP1 POP JUMP JUMPDEST PUSH1 0x2 PUSH1 0x0 SLOAD EQ ISZERO PUSH2 0xCC2 JUMPI PUSH1 0x40 MLOAD PUSH32 0x8C379A000000000000000000000000000000000000000000000000000000000 DUP2 MSTORE PUSH1 0x4 ADD PUSH2 0xCB9 SWAP1 PUSH2 0x3135 JUMP JUMPDEST PUSH1 0x40 MLOAD DUP1 SWAP2 SUB SWAP1 REVERT JUMPDEST PUSH1 0x2 PUSH1 0x0 DUP2 SWAP1 SSTORE POP PUSH2 0xCD3 DUP2 PUSH2 0x19F0 JUMP JUMPDEST ISZERO PUSH2 0xD1F JUMPI DUP2 CALLVALUE EQ PUSH2 0xD1A JUMPI PUSH1 0x40 MLOAD PUSH32 0x8C379A000000000000000000000000000000000000000000000000000000000 DUP2 MSTORE PUSH1 0x4 ADD PUSH2 0xD11 SWAP1 PUSH2 0x3115 JUMP JUMPDEST PUSH1 0x40 MLOAD DUP1 SWAP2 SUB SWAP1 REVERT JUMPDEST PUSH2 0xDAE JUMP JUMPDEST PUSH1 0x0 CALLVALUE EQ PUSH2 0xD62 JUMPI PUSH1 0x40 MLOAD PUSH32 0x8C379A000000000000000000000000000000000000000000000000000000000 DUP2 MSTORE PUSH1 0x4 ADD PUSH2 0xD59 SWAP1 PUSH2 0x3055 JUMP JUMPDEST PUSH1 0x40 MLOAD DUP1 SWAP2 SUB SWAP1 REVERT JUMPDEST PUSH2 0xD6E DUP2 CALLER ADDRESS DUP6 PUSH2 0x1A28 JUMP JUMPDEST PUSH2 0xDAD JUMPI PUSH1 0x40 MLOAD PUSH32 0x8C379A000000000000000000000000000000000000000000000000000000000 DUP2 MSTORE PUSH1 0x4 ADD PUSH2 0xDA4 SWAP1 PUSH2 0x2E35 JUMP JUMPDEST PUSH1 0x40 MLOAD DUP1 SWAP2 SUB SWAP1 REVERT JUMPDEST JUMPDEST DUP2 PUSH1 0x1 PUSH1 0x0 CALLER PUSH20 0xFFFFFFFFFFFFFFFFFFFFFFFFFFFFFFFFFFFFFFFF AND PUSH20 0xFFFFFFFFFFFFFFFFFFFFFFFFFFFFFFFFFFFFFFFF AND DUP2 MSTORE PUSH1 0x20 ADD SWAP1 DUP2 MSTORE PUSH1 0x20 ADD PUSH1 0x0 KECCAK256 PUSH1 0x0 DUP4 PUSH20 0xFFFFFFFFFFFFFFFFFFFFFFFFFFFFFFFFFFFFFFFF AND PUSH20 0xFFFFFFFFFFFFFFFFFFFFFFFFFFFFFFFFFFFFFFFF AND DUP2 MSTORE PUSH1 0x20 ADD SWAP1 DUP2 MSTORE PUSH1 0x20 ADD PUSH1 0x0 KECCAK256 PUSH1 0x0 DUP3 DUP3 SLOAD PUSH2 0xE3A SWAP2 SWAP1 PUSH2 0x3397 JUMP JUMPDEST SWAP3 POP POP DUP2 SWAP1 SSTORE POP PUSH32 0x9D278C56BA6DC86A12EEFE6B43112BD6E06648EB4EC0B950EE2D783D40E2ACB4 CALLER DUP3 DUP5 PUSH1 0x40 MLOAD PUSH2 0xE74 SWAP4 SWAP3 SWAP2 SWAP1 PUSH2 0x2C90 JUMP JUMPDEST PUSH1 0x40 MLOAD DUP1 SWAP2 SUB SWAP1 LOG1 PUSH1 0x1 PUSH1 0x0 DUP2 SWAP1 SSTORE POP POP POP JUMP JUMPDEST PUSH1 0x2 PUSH1 0x0 SLOAD EQ ISZERO PUSH2 0xECE JUMPI PUSH1 0x40 MLOAD PUSH32 0x8C379A000000000000000000000000000000000000000000000000000000000 DUP2 MSTORE PUSH1 0x4 ADD PUSH2 0xEC5 SWAP1 PUSH2 0x3135 JUMP JUMPDEST PUSH1 0x40 MLOAD DUP1 SWAP2 SUB SWAP1 REVERT JUMPDEST PUSH1 0x2 PUSH1 0x0 DUP2 SWAP1 SSTORE POP PUSH1 0x0 PUSH2 0xEE1 DUP5 PUSH2 0x1557 JUMP JUMPDEST SWAP1 POP PUSH1 0x0 PUSH2 0xEF9 DUP3 PUSH1 0x2 PUSH2 0x1719 SWAP1 SWAP2 SWAP1 PUSH4 0xFFFFFFFF AND JUMP JUMPDEST SWAP1 POP DUP5 PUSH1 0x40 ADD CALLDATALOAD DUP2 PUSH1 0x0 ADD MLOAD EQ PUSH2 0xF45 JUMPI PUSH1 0x40 MLOAD PUSH32 0x8C379A000000000000000000000000000000000000000000000000000000000 DUP2 MSTORE PUSH1 0x4 ADD PUSH2 0xF3C SWAP1 PUSH2 0x3015 JUMP JUMPDEST PUSH1 0x40 MLOAD DUP1 SWAP2 SUB SWAP1 REVERT JUMPDEST DUP5 PUSH2 0x140 ADD CALLDATALOAD DUP2 PUSH1 0x20 ADD MLOAD EQ PUSH2 0xF90 JUMPI PUSH1 0x40 MLOAD PUSH32 0x8C379A000000000000000000000000000000000000000000000000000000000 DUP2 MSTORE PUSH1 0x4 ADD PUSH2 0xF87 SWAP1 PUSH2 0x2F75 JUMP JUMPDEST PUSH1 0x40 MLOAD DUP1 SWAP2 SUB SWAP1 REVERT JUMPDEST DUP5 PUSH1 0x0 ADD PUSH1 0x20 DUP2 ADD SWAP1 PUSH2 0xFA3 SWAP2 SWAP1 PUSH2 0x226B JUMP JUMPDEST PUSH20 0xFFFFFFFFFFFFFFFFFFFFFFFFFFFFFFFFFFFFFFFF AND PUSH2 0x1007 DUP4 DUP7 DUP7 DUP1 DUP1 PUSH1 0x1F ADD PUSH1 0x20 DUP1 SWAP2 DIV MUL PUSH1 0x20 ADD PUSH1 0x40 MLOAD SWAP1 DUP2 ADD PUSH1 0x40 MSTORE DUP1 SWAP4 SWAP3 SWAP2 SWAP1 DUP2 DUP2 MSTORE PUSH1 0x20 ADD DUP4 DUP4 DUP1 DUP3 DUP5 CALLDATACOPY PUSH1 0x0 DUP2 DUP5 ADD MSTORE PUSH1 0x1F NOT PUSH1 0x1F DUP3 ADD AND SWAP1 POP DUP1 DUP4 ADD SWAP3 POP POP POP POP POP POP POP PUSH2 0x1C02 JUMP JUMPDEST PUSH20 0xFFFFFFFFFFFFFFFFFFFFFFFFFFFFFFFFFFFFFFFF AND EQ PUSH2 0x105D JUMPI PUSH1 0x40 MLOAD PUSH32 0x8C379A000000000000000000000000000000000000000000000000000000000 DUP2 MSTORE PUSH1 0x4 ADD PUSH2 0x1054 SWAP1 PUSH2 0x30F5 JUMP JUMPDEST PUSH1 0x40 MLOAD DUP1 SWAP2 SUB SWAP1 REVERT JUMPDEST PUSH32 0x0 PUSH3 0xFFFFFF AND DUP6 PUSH1 0xA0 ADD PUSH1 0x20 DUP2 ADD SWAP1 PUSH2 0x1096 SWAP2 SWAP1 PUSH2 0x23AA JUMP JUMPDEST PUSH3 0xFFFFFF AND EQ ISZERO PUSH2 0x1161 JUMPI DUP5 PUSH1 0x40 ADD CALLDATALOAD PUSH1 0x1 PUSH1 0x0 DUP8 PUSH1 0x20 ADD PUSH1 0x20 DUP2 ADD SWAP1 PUSH2 0x10BD SWAP2 SWAP1 PUSH2 0x226B JUMP JUMPDEST PUSH20 0xFFFFFFFFFFFFFFFFFFFFFFFFFFFFFFFFFFFFFFFF AND PUSH20 0xFFFFFFFFFFFFFFFFFFFFFFFFFFFFFFFFFFFFFFFF AND DUP2 MSTORE PUSH1 0x20 ADD SWAP1 DUP2 MSTORE PUSH1 0x20 ADD PUSH1 0x0 KECCAK256 PUSH1 0x0 DUP8 PUSH1 0x60 ADD PUSH1 0x20 DUP2 ADD SWAP1 PUSH2 0x110C SWAP2 SWAP1 PUSH2 0x226B JUMP JUMPDEST PUSH20 0xFFFFFFFFFFFFFFFFFFFFFFFFFFFFFFFFFFFFFFFF AND PUSH20 0xFFFFFFFFFFFFFFFFFFFFFFFFFFFFFFFFFFFFFFFF AND DUP2 MSTORE PUSH1 0x20 ADD SWAP1 DUP2 MSTORE PUSH1 0x20 ADD PUSH1 0x0 KECCAK256 PUSH1 0x0 DUP3 DUP3 SLOAD PUSH2 0x1155 SWAP2 SWAP1 PUSH2 0x3397 JUMP JUMPDEST SWAP3 POP POP DUP2 SWAP1 SSTORE POP PUSH2 0x12C3 JUMP JUMPDEST PUSH1 0x0 PUSH8 0xFFFFFFFFFFFFFFFF DUP2 GT ISZERO PUSH2 0x11A2 JUMPI PUSH32 0x4E487B7100000000000000000000000000000000000000000000000000000000 PUSH1 0x0 MSTORE PUSH1 0x41 PUSH1 0x4 MSTORE PUSH1 0x24 PUSH1 0x0 REVERT JUMPDEST PUSH1 0x40 MLOAD SWAP1 DUP1 DUP3 MSTORE DUP1 PUSH1 0x1F ADD PUSH1 0x1F NOT AND PUSH1 0x20 ADD DUP3 ADD PUSH1 0x40 MSTORE DUP1 ISZERO PUSH2 0x11D4 JUMPI DUP2 PUSH1 0x20 ADD PUSH1 0x1 DUP3 MUL DUP1 CALLDATASIZE DUP4 CALLDATACOPY DUP1 DUP3 ADD SWAP2 POP POP SWAP1 POP JUMPDEST POP DUP1 MLOAD SWAP1 PUSH1 0x20 ADD KECCAK256 DUP6 DUP1 PUSH2 0x100 ADD SWAP1 PUSH2 0x11ED SWAP2 SWAP1 PUSH2 0x3244 JUMP JUMPDEST PUSH1 0x40 MLOAD PUSH2 0x11FB SWAP3 SWAP2 SWAP1 PUSH2 0x2C4B JUMP JUMPDEST PUSH1 0x40 MLOAD DUP1 SWAP2 SUB SWAP1 KECCAK256 EQ ISZERO PUSH2 0x1280 JUMPI PUSH2 0x123C DUP6 PUSH1 0x60 ADD PUSH1 0x20 DUP2 ADD SWAP1 PUSH2 0x121F SWAP2 SWAP1 PUSH2 0x226B JUMP JUMPDEST DUP7 PUSH1 0xE0 ADD PUSH1 0x20 DUP2 ADD SWAP1 PUSH2 0x1232 SWAP2 SWAP1 PUSH2 0x226B JUMP JUMPDEST DUP8 PUSH1 0x40 ADD CALLDATALOAD PUSH2 0x17B3 JUMP JUMPDEST PUSH2 0x127B JUMPI PUSH1 0x40 MLOAD PUSH32 0x8C379A000000000000000000000000000000000000000000000000000000000 DUP2 MSTORE PUSH1 0x4 ADD PUSH2 0x1272 SWAP1 PUSH2 0x3155 JUMP JUMPDEST PUSH1 0x40 MLOAD DUP1 SWAP2 SUB SWAP1 REVERT JUMPDEST PUSH2 0x12C2 JUMP JUMPDEST PUSH1 0x0 PUSH2 0x12C1 JUMPI PUSH1 0x40 MLOAD PUSH32 0x8C379A000000000000000000000000000000000000000000000000000000000 DUP2 MSTORE PUSH1 0x4 ADD PUSH2 0x12B8 SWAP1 PUSH2 0x3095 JUMP JUMPDEST PUSH1 0x40 MLOAD DUP1 SWAP2 SUB SWAP1 REVERT JUMPDEST JUMPDEST JUMPDEST PUSH2 0x12D7 DUP3 PUSH1 0x2 PUSH2 0x17E6 SWAP1 SWAP2 SWAP1 PUSH4 0xFFFFFFFF AND JUMP JUMPDEST PUSH32 0x280DF9EFEEBC705987D91447E4D3D8129DC6DF8FF02E029459F598E7217981E9 DUP6 DUP6 DUP6 CALLER PUSH1 0x40 MLOAD PUSH2 0x130C SWAP5 SWAP4 SWAP3 SWAP2 SWAP1 PUSH2 0x31C7 JUMP JUMPDEST PUSH1 0x40 MLOAD DUP1 SWAP2 SUB SWAP1 LOG1 POP POP PUSH1 0x1 PUSH1 0x0 DUP2 SWAP1 SSTORE POP POP POP POP JUMP JUMPDEST PUSH1 0x2 PUSH1 0x0 SLOAD EQ ISZERO PUSH2 0x1369 JUMPI PUSH1 0x40 MLOAD PUSH32 0x8C379A000000000000000000000000000000000000000000000000000000000 DUP2 MSTORE PUSH1 0x4 ADD PUSH2 0x1360 SWAP1 PUSH2 0x3135 JUMP JUMPDEST PUSH1 0x40 MLOAD DUP1 SWAP2 SUB SWAP1 REVERT JUMPDEST PUSH1 0x2 PUSH1 0x0 DUP2 SWAP1 SSTORE POP DUP3 PUSH1 0x1 PUSH1 0x0 CALLER PUSH20 0xFFFFFFFFFFFFFFFFFFFFFFFFFFFFFFFFFFFFFFFF AND PUSH20 0xFFFFFFFFFFFFFFFFFFFFFFFFFFFFFFFFFFFFFFFF AND DUP2 MSTORE PUSH1 0x20 ADD SWAP1 DUP2 MSTORE PUSH1 0x20 ADD PUSH1 0x0 KECCAK256 PUSH1 0x0 DUP5 PUSH20 0xFFFFFFFFFFFFFFFFFFFFFFFFFFFFFFFFFFFFFFFF AND PUSH20 0xFFFFFFFFFFFFFFFFFFFFFFFFFFFFFFFFFFFFFFFF AND DUP2 MSTORE PUSH1 0x20 ADD SWAP1 DUP2 MSTORE PUSH1 0x20 ADD PUSH1 0x0 KECCAK256 SLOAD LT ISZERO PUSH2 0x1430 JUMPI PUSH1 0x40 MLOAD PUSH32 0x8C379A000000000000000000000000000000000000000000000000000000000 DUP2 MSTORE PUSH1 0x4 ADD PUSH2 0x1427 SWAP1 PUSH2 0x3035 JUMP JUMPDEST PUSH1 0x40 MLOAD DUP1 SWAP2 SUB SWAP1 REVERT JUMPDEST DUP3 PUSH1 0x1 PUSH1 0x0 CALLER PUSH20 0xFFFFFFFFFFFFFFFFFFFFFFFFFFFFFFFFFFFFFFFF AND PUSH20 0xFFFFFFFFFFFFFFFFFFFFFFFFFFFFFFFFFFFFFFFF AND DUP2 MSTORE PUSH1 0x20 ADD SWAP1 DUP2 MSTORE PUSH1 0x20 ADD PUSH1 0x0 KECCAK256 PUSH1 0x0 DUP5 PUSH20 0xFFFFFFFFFFFFFFFFFFFFFFFFFFFFFFFFFFFFFFFF AND PUSH20 0xFFFFFFFFFFFFFFFFFFFFFFFFFFFFFFFFFFFFFFFF AND DUP2 MSTORE PUSH1 0x20 ADD SWAP1 DUP2 MSTORE PUSH1 0x20 ADD PUSH1 0x0 KECCAK256 PUSH1 0x0 DUP3 DUP3 SLOAD PUSH2 0x14BC SWAP2 SWAP1 PUSH2 0x33ED JUMP JUMPDEST SWAP3 POP POP DUP2 SWAP1 SSTORE POP PUSH2 0x14CE DUP3 DUP3 DUP6 PUSH2 0x17B3 JUMP JUMPDEST PUSH2 0x150D JUMPI PUSH1 0x40 MLOAD PUSH32 0x8C379A000000000000000000000000000000000000000000000000000000000 DUP2 MSTORE PUSH1 0x4 ADD PUSH2 0x1504 SWAP1 PUSH2 0x2F55 JUMP JUMPDEST PUSH1 0x40 MLOAD DUP1 SWAP2 SUB SWAP1 REVERT JUMPDEST PUSH32 0x7DA12116BE8CB7AF4B2D9E9B4A2CA2C3A3243DDD6FD3A94411902367B8EED568 CALLER DUP4 DUP6 DUP5 PUSH1 0x40 MLOAD PUSH2 0x1542 SWAP5 SWAP4 SWAP3 SWAP2 SWAP1 PUSH2 0x2CC7 JUMP JUMPDEST PUSH1 0x40 MLOAD DUP1 SWAP2 SUB SWAP1 LOG1 PUSH1 0x1 PUSH1 0x0 DUP2 SWAP1 SSTORE POP POP POP POP JUMP JUMPDEST PUSH1 0x0 DUP1 PUSH1 0x40 MLOAD DUP1 PUSH2 0x120 ADD PUSH1 0x40 MSTORE DUP1 DUP5 PUSH1 0x0 ADD PUSH1 0x20 DUP2 ADD SWAP1 PUSH2 0x1579 SWAP2 SWAP1 PUSH2 0x226B JUMP JUMPDEST PUSH20 0xFFFFFFFFFFFFFFFFFFFFFFFFFFFFFFFFFFFFFFFF AND DUP2 MSTORE PUSH1 0x20 ADD DUP5 PUSH1 0x20 ADD PUSH1 0x20 DUP2 ADD SWAP1 PUSH2 0x15A7 SWAP2 SWAP1 PUSH2 0x226B JUMP JUMPDEST PUSH20 0xFFFFFFFFFFFFFFFFFFFFFFFFFFFFFFFFFFFFFFFF AND DUP2 MSTORE PUSH1 0x20 ADD DUP5 PUSH1 0x60 ADD PUSH1 0x20 DUP2 ADD SWAP1 PUSH2 0x15D5 SWAP2 SWAP1 PUSH2 0x226B JUMP JUMPDEST PUSH20 0xFFFFFFFFFFFFFFFFFFFFFFFFFFFFFFFFFFFFFFFF AND DUP2 MSTORE PUSH1 0x20 ADD DUP5 PUSH1 0x80 ADD PUSH1 0x20 DUP2 ADD SWAP1 PUSH2 0x1603 SWAP2 SWAP1 PUSH2 0x226B JUMP JUMPDEST PUSH20 0xFFFFFFFFFFFFFFFFFFFFFFFFFFFFFFFFFFFFFFFF AND DUP2 MSTORE PUSH1 0x20 ADD DUP5 PUSH1 0xA0 ADD PUSH1 0x20 DUP2 ADD SWAP1 PUSH2 0x1631 SWAP2 SWAP1 PUSH2 0x23AA JUMP JUMPDEST PUSH3 0xFFFFFF AND DUP2 MSTORE PUSH1 0x20 ADD DUP5 PUSH1 0xC0 ADD PUSH1 0x20 DUP2 ADD SWAP1 PUSH2 0x164E SWAP2 SWAP1 PUSH2 0x23AA JUMP JUMPDEST PUSH3 0xFFFFFF AND DUP2 MSTORE PUSH1 0x20 ADD DUP5 PUSH1 0xE0 ADD PUSH1 0x20 DUP2 ADD SWAP1 PUSH2 0x166B SWAP2 SWAP1 PUSH2 0x226B JUMP JUMPDEST PUSH20 0xFFFFFFFFFFFFFFFFFFFFFFFFFFFFFFFFFFFFFFFF AND DUP2 MSTORE PUSH1 0x20 ADD DUP5 DUP1 PUSH2 0x100 ADD SWAP1 PUSH2 0x1697 SWAP2 SWAP1 PUSH2 0x3244 JUMP JUMPDEST DUP1 DUP1 PUSH1 0x1F ADD PUSH1 0x20 DUP1 SWAP2 DIV MUL PUSH1 0x20 ADD PUSH1 0x40 MLOAD SWAP1 DUP2 ADD PUSH1 0x40 MSTORE DUP1 SWAP4 SWAP3 SWAP2 SWAP1 DUP2 DUP2 MSTORE PUSH1 0x20 ADD DUP4 DUP4 DUP1 DUP3 DUP5 CALLDATACOPY PUSH1 0x0 DUP2 DUP5 ADD MSTORE PUSH1 0x1F NOT PUSH1 0x1F DUP3 ADD AND SWAP1 POP DUP1 DUP4 ADD SWAP3 POP POP POP POP POP POP POP DUP2 MSTORE PUSH1 0x20 ADD DUP5 PUSH2 0x120 ADD CALLDATALOAD DUP2 MSTORE POP SWAP1 POP DUP1 PUSH1 0x40 MLOAD PUSH1 0x20 ADD PUSH2 0x16FB SWAP2 SWAP1 PUSH2 0x3175 JUMP JUMPDEST PUSH1 0x40 MLOAD PUSH1 0x20 DUP2 DUP4 SUB SUB DUP2 MSTORE SWAP1 PUSH1 0x40 MSTORE DUP1 MLOAD SWAP1 PUSH1 0x20 ADD KECCAK256 SWAP2 POP POP SWAP2 SWAP1 POP JUMP JUMPDEST PUSH2 0x1721 PUSH2 0x2163 JUMP JUMPDEST PUSH2 0x172B DUP4 DUP4 PUSH2 0x1CCC JUMP JUMPDEST PUSH2 0x176A JUMPI PUSH1 0x40 MLOAD PUSH32 0x8C379A000000000000000000000000000000000000000000000000000000000 DUP2 MSTORE PUSH1 0x4 ADD PUSH2 0x1761 SWAP1 PUSH2 0x2E95 JUMP JUMPDEST PUSH1 0x40 MLOAD DUP1 SWAP2 SUB SWAP1 REVERT JUMPDEST DUP3 PUSH1 0x0 ADD PUSH1 0x0 DUP4 DUP2 MSTORE PUSH1 0x20 ADD SWAP1 DUP2 MSTORE PUSH1 0x20 ADD PUSH1 0x0 KECCAK256 PUSH1 0x0 ADD PUSH1 0x40 MLOAD DUP1 PUSH1 0x60 ADD PUSH1 0x40 MSTORE SWAP1 DUP2 PUSH1 0x0 DUP3 ADD SLOAD DUP2 MSTORE PUSH1 0x20 ADD PUSH1 0x1 DUP3 ADD SLOAD DUP2 MSTORE PUSH1 0x20 ADD PUSH1 0x2 DUP3 ADD SLOAD DUP2 MSTORE POP POP SWAP1 POP SWAP3 SWAP2 POP POP JUMP JUMPDEST PUSH1 0x0 PUSH2 0x17BE DUP5 PUSH2 0x19F0 JUMP JUMPDEST PUSH2 0x17D2 JUMPI PUSH2 0x17CD DUP5 DUP5 DUP5 PUSH2 0x1D64 JUMP JUMPDEST PUSH2 0x17DD JUMP JUMPDEST PUSH2 0x17DC DUP4 DUP4 PUSH2 0x1D7A JUMP JUMPDEST JUMPDEST SWAP1 POP SWAP4 SWAP3 POP POP POP JUMP JUMPDEST PUSH2 0x17EF DUP2 PUSH2 0x1E00 JUMP JUMPDEST ISZERO PUSH2 0x182F JUMPI PUSH1 0x40 MLOAD PUSH32 0x8C379A000000000000000000000000000000000000000000000000000000000 DUP2 MSTORE PUSH1 0x4 ADD PUSH2 0x1826 SWAP1 PUSH2 0x2F15 JUMP JUMPDEST PUSH1 0x40 MLOAD DUP1 SWAP2 SUB SWAP1 REVERT JUMPDEST PUSH2 0x1839 DUP3 DUP3 PUSH2 0x1CCC JUMP JUMPDEST PUSH2 0x1878 JUMPI PUSH1 0x40 MLOAD PUSH32 0x8C379A000000000000000000000000000000000000000000000000000000000 DUP2 MSTORE PUSH1 0x4 ADD PUSH2 0x186F SWAP1 PUSH2 0x2E95 JUMP JUMPDEST PUSH1 0x40 MLOAD DUP1 SWAP2 SUB SWAP1 REVERT JUMPDEST PUSH1 0x0 DUP3 PUSH1 0x0 ADD PUSH1 0x0 DUP4 DUP2 MSTORE PUSH1 0x20 ADD SWAP1 DUP2 MSTORE PUSH1 0x20 ADD PUSH1 0x0 KECCAK256 PUSH1 0x3 ADD SLOAD SWAP1 POP PUSH1 0x0 DUP4 PUSH1 0x1 ADD PUSH1 0x1 DUP6 PUSH1 0x1 ADD DUP1 SLOAD SWAP1 POP PUSH2 0x18AF SWAP2 SWAP1 PUSH2 0x33ED JUMP JUMPDEST DUP2 SLOAD DUP2 LT PUSH2 0x18E6 JUMPI PUSH32 0x4E487B7100000000000000000000000000000000000000000000000000000000 PUSH1 0x0 MSTORE PUSH1 0x32 PUSH1 0x4 MSTORE PUSH1 0x24 PUSH1 0x0 REVERT JUMPDEST SWAP1 PUSH1 0x0 MSTORE PUSH1 0x20 PUSH1 0x0 KECCAK256 ADD SLOAD SWAP1 POP DUP2 DUP5 PUSH1 0x0 ADD PUSH1 0x0 DUP4 DUP2 MSTORE PUSH1 0x20 ADD SWAP1 DUP2 MSTORE PUSH1 0x20 ADD PUSH1 0x0 KECCAK256 PUSH1 0x3 ADD DUP2 SWAP1 SSTORE POP DUP1 DUP5 PUSH1 0x1 ADD DUP4 DUP2 SLOAD DUP2 LT PUSH2 0x194D JUMPI PUSH32 0x4E487B7100000000000000000000000000000000000000000000000000000000 PUSH1 0x0 MSTORE PUSH1 0x32 PUSH1 0x4 MSTORE PUSH1 0x24 PUSH1 0x0 REVERT JUMPDEST SWAP1 PUSH1 0x0 MSTORE PUSH1 0x20 PUSH1 0x0 KECCAK256 ADD DUP2 SWAP1 SSTORE POP DUP4 PUSH1 0x0 ADD PUSH1 0x0 DUP5 DUP2 MSTORE PUSH1 0x20 ADD SWAP1 DUP2 MSTORE PUSH1 0x20 ADD PUSH1 0x0 KECCAK256 PUSH1 0x0 DUP1 DUP3 ADD PUSH1 0x0 DUP1 DUP3 ADD PUSH1 0x0 SWAP1 SSTORE PUSH1 0x1 DUP3 ADD PUSH1 0x0 SWAP1 SSTORE PUSH1 0x2 DUP3 ADD PUSH1 0x0 SWAP1 SSTORE POP POP PUSH1 0x3 DUP3 ADD PUSH1 0x0 SWAP1 SSTORE POP POP DUP4 PUSH1 0x1 ADD DUP1 SLOAD DUP1 PUSH2 0x19D4 JUMPI PUSH32 0x4E487B7100000000000000000000000000000000000000000000000000000000 PUSH1 0x0 MSTORE PUSH1 0x31 PUSH1 0x4 MSTORE PUSH1 0x24 PUSH1 0x0 REVERT JUMPDEST PUSH1 0x1 SWAP1 SUB DUP2 DUP2 SWAP1 PUSH1 0x0 MSTORE PUSH1 0x20 PUSH1 0x0 KECCAK256 ADD PUSH1 0x0 SWAP1 SSTORE SWAP1 SSTORE POP POP POP POP JUMP JUMPDEST PUSH1 0x0 DUP1 PUSH20 0xFFFFFFFFFFFFFFFFFFFFFFFFFFFFFFFFFFFFFFFF AND DUP3 PUSH20 0xFFFFFFFFFFFFFFFFFFFFFFFFFFFFFFFFFFFFFFFF AND EQ SWAP1 POP SWAP2 SWAP1 POP JUMP JUMPDEST PUSH1 0x0 PUSH2 0x1AC5 DUP6 DUP6 DUP6 DUP6 PUSH1 0x40 MLOAD PUSH1 0x24 ADD PUSH2 0x1A43 SWAP4 SWAP3 SWAP2 SWAP1 PUSH2 0x2C90 JUMP JUMPDEST PUSH1 0x40 MLOAD PUSH1 0x20 DUP2 DUP4 SUB SUB DUP2 MSTORE SWAP1 PUSH1 0x40 MSTORE PUSH32 0x23B872DD00000000000000000000000000000000000000000000000000000000 PUSH28 0xFFFFFFFFFFFFFFFFFFFFFFFFFFFFFFFFFFFFFFFFFFFFFFFFFFFFFFFF NOT AND PUSH1 0x20 DUP3 ADD DUP1 MLOAD PUSH28 0xFFFFFFFFFFFFFFFFFFFFFFFFFFFFFFFFFFFFFFFFFFFFFFFFFFFFFFFF DUP4 DUP2 DUP4 AND OR DUP4 MSTORE POP POP POP POP PUSH2 0x1E16 JUMP JUMPDEST SWAP1 POP SWAP5 SWAP4 POP POP POP POP JUMP JUMPDEST PUSH1 0x0 DUP2 PUSH1 0x40 ADD MLOAD SWAP1 POP PUSH2 0x1AE1 DUP2 PUSH2 0x1E00 JUMP JUMPDEST ISZERO PUSH2 0x1B21 JUMPI PUSH1 0x40 MLOAD PUSH32 0x8C379A000000000000000000000000000000000000000000000000000000000 DUP2 MSTORE PUSH1 0x4 ADD PUSH2 0x1B18 SWAP1 PUSH2 0x2F15 JUMP JUMPDEST PUSH1 0x40 MLOAD DUP1 SWAP2 SUB SWAP1 REVERT JUMPDEST PUSH2 0x1B2B DUP4 DUP3 PUSH2 0x1CCC JUMP JUMPDEST ISZERO PUSH2 0x1B6B JUMPI PUSH1 0x40 MLOAD PUSH32 0x8C379A000000000000000000000000000000000000000000000000000000000 DUP2 MSTORE PUSH1 0x4 ADD PUSH2 0x1B62 SWAP1 PUSH2 0x3075 JUMP JUMPDEST PUSH1 0x40 MLOAD DUP1 SWAP2 SUB SWAP1 REVERT JUMPDEST PUSH1 0x40 MLOAD DUP1 PUSH1 0x40 ADD PUSH1 0x40 MSTORE DUP1 DUP4 DUP2 MSTORE PUSH1 0x20 ADD DUP5 PUSH1 0x1 ADD DUP1 SLOAD SWAP1 POP DUP2 MSTORE POP DUP4 PUSH1 0x0 ADD PUSH1 0x0 DUP4 DUP2 MSTORE PUSH1 0x20 ADD SWAP1 DUP2 MSTORE PUSH1 0x20 ADD PUSH1 0x0 KECCAK256 PUSH1 0x0 DUP3 ADD MLOAD DUP2 PUSH1 0x0 ADD PUSH1 0x0 DUP3 ADD MLOAD DUP2 PUSH1 0x0 ADD SSTORE PUSH1 0x20 DUP3 ADD MLOAD DUP2 PUSH1 0x1 ADD SSTORE PUSH1 0x40 DUP3 ADD MLOAD DUP2 PUSH1 0x2 ADD SSTORE POP POP PUSH1 0x20 DUP3 ADD MLOAD DUP2 PUSH1 0x3 ADD SSTORE SWAP1 POP POP DUP3 PUSH1 0x1 ADD DUP2 SWAP1 DUP1 PUSH1 0x1 DUP2 SLOAD ADD DUP1 DUP3 SSTORE DUP1 SWAP2 POP POP PUSH1 0x1 SWAP1 SUB SWAP1 PUSH1 0x0 MSTORE PUSH1 0x20 PUSH1 0x0 KECCAK256 ADD PUSH1 0x0 SWAP1 SWAP2 SWAP1 SWAP2 SWAP1 SWAP2 POP SSTORE POP POP POP JUMP JUMPDEST PUSH1 0x0 DUP1 PUSH1 0x0 DUP1 PUSH1 0x41 DUP6 MLOAD EQ ISZERO PUSH2 0x1C2F JUMPI PUSH1 0x20 DUP6 ADD MLOAD SWAP3 POP PUSH1 0x40 DUP6 ADD MLOAD SWAP2 POP PUSH1 0x60 DUP6 ADD MLOAD PUSH1 0x0 BYTE SWAP1 POP PUSH2 0x1CB5 JUMP JUMPDEST PUSH1 0x40 DUP6 MLOAD EQ ISZERO PUSH2 0x1C79 JUMPI PUSH1 0x40 DUP6 ADD MLOAD PUSH1 0x20 DUP7 ADD MLOAD SWAP4 POP PUSH32 0x7FFFFFFFFFFFFFFFFFFFFFFFFFFFFFFFFFFFFFFFFFFFFFFFFFFFFFFFFFFFFFFF DUP2 AND SWAP3 POP PUSH1 0x1B DUP2 PUSH1 0xFF SHR ADD SWAP2 POP POP PUSH2 0x1CB4 JUMP JUMPDEST PUSH1 0x40 MLOAD PUSH32 0x8C379A000000000000000000000000000000000000000000000000000000000 DUP2 MSTORE PUSH1 0x4 ADD PUSH2 0x1CAB SWAP1 PUSH2 0x2E15 JUMP JUMPDEST PUSH1 0x40 MLOAD DUP1 SWAP2 SUB SWAP1 REVERT JUMPDEST JUMPDEST PUSH2 0x1CC1 DUP7 DUP3 DUP6 DUP6 PUSH2 0x1F03 JUMP JUMPDEST SWAP4 POP POP POP POP SWAP3 SWAP2 POP POP JUMP JUMPDEST PUSH1 0x0 PUSH2 0x1CD7 DUP3 PUSH2 0x1E00 JUMP JUMPDEST ISZERO DUP1 ISZERO PUSH2 0x1CEC JUMPI POP PUSH1 0x0 DUP4 PUSH1 0x1 ADD DUP1 SLOAD SWAP1 POP EQ ISZERO JUMPDEST DUP1 ISZERO PUSH2 0x1D5C JUMPI POP PUSH2 0x1D5B DUP4 PUSH1 0x1 ADD DUP5 PUSH1 0x0 ADD PUSH1 0x0 DUP6 DUP2 MSTORE PUSH1 0x20 ADD SWAP1 DUP2 MSTORE PUSH1 0x20 ADD PUSH1 0x0 KECCAK256 PUSH1 0x3 ADD SLOAD DUP2 SLOAD DUP2 LT PUSH2 0x1D4A JUMPI PUSH32 0x4E487B7100000000000000000000000000000000000000000000000000000000 PUSH1 0x0 MSTORE PUSH1 0x32 PUSH1 0x4 MSTORE PUSH1 0x24 PUSH1 0x0 REVERT JUMPDEST SWAP1 PUSH1 0x0 MSTORE PUSH1 0x20 PUSH1 0x0 KECCAK256 ADD SLOAD DUP4 PUSH2 0x208E JUMP JUMPDEST JUMPDEST SWAP1 POP SWAP3 SWAP2 POP POP JUMP JUMPDEST PUSH1 0x0 PUSH2 0x1D71 DUP5 DUP5 DUP5 PUSH2 0x209B JUMP JUMPDEST SWAP1 POP SWAP4 SWAP3 POP POP POP JUMP JUMPDEST PUSH1 0x0 DUP1 PUSH1 0x0 DUP5 PUSH20 0xFFFFFFFFFFFFFFFFFFFFFFFFFFFFFFFFFFFFFFFF AND DUP5 PUSH1 0x40 MLOAD PUSH2 0x1DA3 SWAP1 PUSH2 0x2C7B JUMP JUMPDEST PUSH1 0x0 PUSH1 0x40 MLOAD DUP1 DUP4 SUB DUP2 DUP6 DUP8 GAS CALL SWAP3 POP POP POP RETURNDATASIZE DUP1 PUSH1 0x0 DUP2 EQ PUSH2 0x1DE0 JUMPI PUSH1 0x40 MLOAD SWAP2 POP PUSH1 0x1F NOT PUSH1 0x3F RETURNDATASIZE ADD AND DUP3 ADD PUSH1 0x40 MSTORE RETURNDATASIZE DUP3 MSTORE RETURNDATASIZE PUSH1 0x0 PUSH1 0x20 DUP5 ADD RETURNDATACOPY PUSH2 0x1DE5 JUMP JUMPDEST PUSH1 0x60 SWAP2 POP JUMPDEST POP SWAP2 POP SWAP2 POP PUSH2 0x1DF4 DUP3 DUP3 PUSH2 0x213F JUMP JUMPDEST PUSH1 0x1 SWAP3 POP POP POP SWAP3 SWAP2 POP POP JUMP JUMPDEST PUSH1 0x0 PUSH2 0x1E0F DUP3 PUSH1 0x0 DUP1 SHL PUSH2 0x208E JUMP JUMPDEST SWAP1 POP SWAP2 SWAP1 POP JUMP JUMPDEST PUSH1 0x0 PUSH2 0x1E21 DUP4 PUSH2 0x2150 JUMP JUMPDEST PUSH2 0x1E60 JUMPI PUSH1 0x40 MLOAD PUSH32 0x8C379A000000000000000000000000000000000000000000000000000000000 DUP2 MSTORE PUSH1 0x4 ADD PUSH2 0x1E57 SWAP1 PUSH2 0x2FB5 JUMP JUMPDEST PUSH1 0x40 MLOAD DUP1 SWAP2 SUB SWAP1 REVERT JUMPDEST PUSH1 0x0 DUP1 DUP5 PUSH20 0xFFFFFFFFFFFFFFFFFFFFFFFFFFFFFFFFFFFFFFFF AND DUP5 PUSH1 0x40 MLOAD PUSH2 0x1E88 SWAP2 SWAP1 PUSH2 0x2C64 JUMP JUMPDEST PUSH1 0x0 PUSH1 0x40 MLOAD DUP1 DUP4 SUB DUP2 PUSH1 0x0 DUP7 GAS CALL SWAP2 POP POP RETURNDATASIZE DUP1 PUSH1 0x0 DUP2 EQ PUSH2 0x1EC5 JUMPI PUSH1 0x40 MLOAD SWAP2 POP PUSH1 0x1F NOT PUSH1 0x3F RETURNDATASIZE ADD AND DUP3 ADD PUSH1 0x40 MSTORE RETURNDATASIZE DUP3 MSTORE RETURNDATASIZE PUSH1 0x0 PUSH1 0x20 DUP5 ADD RETURNDATACOPY PUSH2 0x1ECA JUMP JUMPDEST PUSH1 0x60 SWAP2 POP JUMPDEST POP SWAP2 POP SWAP2 POP PUSH2 0x1ED9 DUP3 DUP3 PUSH2 0x213F JUMP JUMPDEST PUSH1 0x0 DUP2 MLOAD EQ DUP1 PUSH2 0x1EF9 JUMPI POP DUP1 DUP1 PUSH1 0x20 ADD SWAP1 MLOAD DUP2 ADD SWAP1 PUSH2 0x1EF8 SWAP2 SWAP1 PUSH2 0x22D0 JUMP JUMPDEST JUMPDEST SWAP3 POP POP POP SWAP3 SWAP2 POP POP JUMP JUMPDEST PUSH1 0x0 PUSH32 0x7FFFFFFFFFFFFFFFFFFFFFFFFFFFFFFF5D576E7357A4501DDFE92F46681B20A0 DUP3 PUSH1 0x0 SHR GT ISZERO PUSH2 0x1F6B JUMPI PUSH1 0x40 MLOAD PUSH32 0x8C379A000000000000000000000000000000000000000000000000000000000 DUP2 MSTORE PUSH1 0x4 ADD PUSH2 0x1F62 SWAP1 PUSH2 0x2EB5 JUMP JUMPDEST PUSH1 0x40 MLOAD DUP1 SWAP2 SUB SWAP1 REVERT JUMPDEST PUSH1 0x1B DUP5 PUSH1 0xFF AND EQ DUP1 PUSH2 0x1F80 JUMPI POP PUSH1 0x1C DUP5 PUSH1 0xFF AND EQ JUMPDEST PUSH2 0x1FBF JUMPI PUSH1 0x40 MLOAD PUSH32 0x8C379A000000000000000000000000000000000000000000000000000000000 DUP2 MSTORE PUSH1 0x4 ADD PUSH2 0x1FB6 SWAP1 PUSH2 0x2F95 JUMP JUMPDEST PUSH1 0x40 MLOAD DUP1 SWAP2 SUB SWAP1 REVERT JUMPDEST PUSH1 0x0 PUSH1 0x1 DUP7 DUP7 DUP7 DUP7 PUSH1 0x40 MLOAD PUSH1 0x0 DUP2 MSTORE PUSH1 0x20 ADD PUSH1 0x40 MSTORE PUSH1 0x40 MLOAD PUSH2 0x1FE4 SWAP5 SWAP4 SWAP3 SWAP2 SWAP1 PUSH2 0x2D50 JUMP JUMPDEST PUSH1 0x20 PUSH1 0x40 MLOAD PUSH1 0x20 DUP2 SUB SWAP1 DUP1 DUP5 SUB SWAP1 DUP6 GAS STATICCALL ISZERO DUP1 ISZERO PUSH2 0x2006 JUMPI RETURNDATASIZE PUSH1 0x0 DUP1 RETURNDATACOPY RETURNDATASIZE PUSH1 0x0 REVERT JUMPDEST POP POP POP PUSH1 0x20 PUSH1 0x40 MLOAD SUB MLOAD SWAP1 POP PUSH1 0x0 PUSH20 0xFFFFFFFFFFFFFFFFFFFFFFFFFFFFFFFFFFFFFFFF AND DUP2 PUSH20 0xFFFFFFFFFFFFFFFFFFFFFFFFFFFFFFFFFFFFFFFF AND EQ ISZERO PUSH2 0x2082 JUMPI PUSH1 0x40 MLOAD PUSH32 0x8C379A000000000000000000000000000000000000000000000000000000000 DUP2 MSTORE PUSH1 0x4 ADD PUSH2 0x2079 SWAP1 PUSH2 0x2D95 JUMP JUMPDEST PUSH1 0x40 MLOAD DUP1 SWAP2 SUB SWAP1 REVERT JUMPDEST DUP1 SWAP2 POP POP SWAP5 SWAP4 POP POP POP POP JUMP JUMPDEST PUSH1 0x0 DUP2 DUP4 EQ SWAP1 POP SWAP3 SWAP2 POP POP JUMP JUMPDEST PUSH1 0x0 PUSH2 0x2136 DUP5 DUP5 DUP5 PUSH1 0x40 MLOAD PUSH1 0x24 ADD PUSH2 0x20B4 SWAP3 SWAP2 SWAP1 PUSH2 0x2D0C JUMP JUMPDEST PUSH1 0x40 MLOAD PUSH1 0x20 DUP2 DUP4 SUB SUB DUP2 MSTORE SWAP1 PUSH1 0x40 MSTORE PUSH32 0xA9059CBB00000000000000000000000000000000000000000000000000000000 PUSH28 0xFFFFFFFFFFFFFFFFFFFFFFFFFFFFFFFFFFFFFFFFFFFFFFFFFFFFFFFF NOT AND PUSH1 0x20 DUP3 ADD DUP1 MLOAD PUSH28 0xFFFFFFFFFFFFFFFFFFFFFFFFFFFFFFFFFFFFFFFFFFFFFFFFFFFFFFFF DUP4 DUP2 DUP4 AND OR DUP4 MSTORE POP POP POP POP PUSH2 0x1E16 JUMP JUMPDEST SWAP1 POP SWAP4 SWAP3 POP POP POP JUMP JUMPDEST DUP2 PUSH2 0x214C JUMPI DUP1 MLOAD PUSH1 0x20 DUP3 ADD REVERT JUMPDEST POP POP JUMP JUMPDEST PUSH1 0x0 DUP1 DUP3 EXTCODESIZE SWAP1 POP PUSH1 0x0 DUP2 GT SWAP2 POP POP SWAP2 SWAP1 POP JUMP JUMPDEST PUSH1 0x40 MLOAD DUP1 PUSH1 0x60 ADD PUSH1 0x40 MSTORE DUP1 PUSH1 0x0 DUP2 MSTORE PUSH1 0x20 ADD PUSH1 0x0 DUP2 MSTORE PUSH1 0x20 ADD PUSH1 0x0 DUP1 NOT AND DUP2 MSTORE POP SWAP1 JUMP JUMPDEST PUSH1 0x0 DUP2 CALLDATALOAD SWAP1 POP PUSH2 0x2196 DUP2 PUSH2 0x3B5D JUMP JUMPDEST SWAP3 SWAP2 POP POP JUMP JUMPDEST PUSH1 0x0 DUP2 CALLDATALOAD SWAP1 POP PUSH2 0x21AB DUP2 PUSH2 0x3B74 JUMP JUMPDEST SWAP3 SWAP2 POP POP JUMP JUMPDEST PUSH1 0x0 DUP2 MLOAD SWAP1 POP PUSH2 0x21C0 DUP2 PUSH2 0x3B8B JUMP JUMPDEST SWAP3 SWAP2 POP POP JUMP JUMPDEST PUSH1 0x0 DUP2 CALLDATALOAD SWAP1 POP PUSH2 0x21D5 DUP2 PUSH2 0x3BA2 JUMP JUMPDEST SWAP3 SWAP2 POP POP JUMP JUMPDEST PUSH1 0x0 DUP1 DUP4 PUSH1 0x1F DUP5 ADD SLT PUSH2 0x21ED JUMPI PUSH1 0x0 DUP1 REVERT JUMPDEST DUP3 CALLDATALOAD SWAP1 POP PUSH8 0xFFFFFFFFFFFFFFFF DUP2 GT ISZERO PUSH2 0x2206 JUMPI PUSH1 0x0 DUP1 REVERT JUMPDEST PUSH1 0x20 DUP4 ADD SWAP2 POP DUP4 PUSH1 0x1 DUP3 MUL DUP4 ADD GT ISZERO PUSH2 0x221E JUMPI PUSH1 0x0 DUP1 REVERT JUMPDEST SWAP3 POP SWAP3 SWAP1 POP JUMP JUMPDEST PUSH1 0x0 PUSH2 0x160 DUP3 DUP5 SUB SLT ISZERO PUSH2 0x2238 JUMPI PUSH1 0x0 DUP1 REVERT JUMPDEST DUP2 SWAP1 POP SWAP3 SWAP2 POP POP JUMP JUMPDEST PUSH1 0x0 DUP2 CALLDATALOAD SWAP1 POP PUSH2 0x2250 DUP2 PUSH2 0x3BB9 JUMP JUMPDEST SWAP3 SWAP2 POP POP JUMP JUMPDEST PUSH1 0x0 DUP2 CALLDATALOAD SWAP1 POP PUSH2 0x2265 DUP2 PUSH2 0x3BD0 JUMP JUMPDEST SWAP3 SWAP2 POP POP JUMP JUMPDEST PUSH1 0x0 PUSH1 0x20 DUP3 DUP5 SUB SLT ISZERO PUSH2 0x227D JUMPI PUSH1 0x0 DUP1 REVERT JUMPDEST PUSH1 0x0 PUSH2 0x228B DUP5 DUP3 DUP6 ADD PUSH2 0x2187 JUMP JUMPDEST SWAP2 POP POP SWAP3 SWAP2 POP POP JUMP JUMPDEST PUSH1 0x0 DUP1 PUSH1 0x40 DUP4 DUP6 SUB SLT ISZERO PUSH2 0x22A7 JUMPI PUSH1 0x0 DUP1 REVERT JUMPDEST PUSH1 0x0 PUSH2 0x22B5 DUP6 DUP3 DUP7 ADD PUSH2 0x2187 JUMP JUMPDEST SWAP3 POP POP PUSH1 0x20 PUSH2 0x22C6 DUP6 DUP3 DUP7 ADD PUSH2 0x2187 JUMP JUMPDEST SWAP2 POP POP SWAP3 POP SWAP3 SWAP1 POP JUMP JUMPDEST PUSH1 0x0 PUSH1 0x20 DUP3 DUP5 SUB SLT ISZERO PUSH2 0x22E2 JUMPI PUSH1 0x0 DUP1 REVERT JUMPDEST PUSH1 0x0 PUSH2 0x22F0 DUP5 DUP3 DUP6 ADD PUSH2 0x21B1 JUMP JUMPDEST SWAP2 POP POP SWAP3 SWAP2 POP POP JUMP JUMPDEST PUSH1 0x0 PUSH1 0x20 DUP3 DUP5 SUB SLT ISZERO PUSH2 0x230B JUMPI PUSH1 0x0 DUP1 REVERT JUMPDEST PUSH1 0x0 DUP3 ADD CALLDATALOAD PUSH8 0xFFFFFFFFFFFFFFFF DUP2 GT ISZERO PUSH2 0x2325 JUMPI PUSH1 0x0 DUP1 REVERT JUMPDEST PUSH2 0x2331 DUP5 DUP3 DUP6 ADD PUSH2 0x2225 JUMP JUMPDEST SWAP2 POP POP SWAP3 SWAP2 POP POP JUMP JUMPDEST PUSH1 0x0 DUP1 PUSH1 0x0 PUSH1 0x40 DUP5 DUP7 SUB SLT ISZERO PUSH2 0x234F JUMPI PUSH1 0x0 DUP1 REVERT JUMPDEST PUSH1 0x0 DUP5 ADD CALLDATALOAD PUSH8 0xFFFFFFFFFFFFFFFF DUP2 GT ISZERO PUSH2 0x2369 JUMPI PUSH1 0x0 DUP1 REVERT JUMPDEST PUSH2 0x2375 DUP7 DUP3 DUP8 ADD PUSH2 0x2225 JUMP JUMPDEST SWAP4 POP POP PUSH1 0x20 DUP5 ADD CALLDATALOAD PUSH8 0xFFFFFFFFFFFFFFFF DUP2 GT ISZERO PUSH2 0x2392 JUMPI PUSH1 0x0 DUP1 REVERT JUMPDEST PUSH2 0x239E DUP7 DUP3 DUP8 ADD PUSH2 0x21DB JUMP JUMPDEST SWAP3 POP SWAP3 POP POP SWAP3 POP SWAP3 POP SWAP3 JUMP JUMPDEST PUSH1 0x0 PUSH1 0x20 DUP3 DUP5 SUB SLT ISZERO PUSH2 0x23BC JUMPI PUSH1 0x0 DUP1 REVERT JUMPDEST PUSH1 0x0 PUSH2 0x23CA DUP5 DUP3 DUP6 ADD PUSH2 0x2241 JUMP JUMPDEST SWAP2 POP POP SWAP3 SWAP2 POP POP JUMP JUMPDEST PUSH1 0x0 DUP1 PUSH1 0x40 DUP4 DUP6 SUB SLT ISZERO PUSH2 0x23E6 JUMPI PUSH1 0x0 DUP1 REVERT JUMPDEST PUSH1 0x0 PUSH2 0x23F4 DUP6 DUP3 DUP7 ADD PUSH2 0x2256 JUMP JUMPDEST SWAP3 POP POP PUSH1 0x20 PUSH2 0x2405 DUP6 DUP3 DUP7 ADD PUSH2 0x2187 JUMP JUMPDEST SWAP2 POP POP SWAP3 POP SWAP3 SWAP1 POP JUMP JUMPDEST PUSH1 0x0 DUP1 PUSH1 0x0 PUSH1 0x60 DUP5 DUP7 SUB SLT ISZERO PUSH2 0x2424 JUMPI PUSH1 0x0 DUP1 REVERT JUMPDEST PUSH1 0x0 PUSH2 0x2432 DUP7 DUP3 DUP8 ADD PUSH2 0x2256 JUMP JUMPDEST SWAP4 POP POP PUSH1 0x20 PUSH2 0x2443 DUP7 DUP3 DUP8 ADD PUSH2 0x2187 JUMP JUMPDEST SWAP3 POP POP PUSH1 0x40 PUSH2 0x2454 DUP7 DUP3 DUP8 ADD PUSH2 0x219C JUMP JUMPDEST SWAP2 POP POP SWAP3 POP SWAP3 POP SWAP3 JUMP JUMPDEST PUSH2 0x2467 DUP2 PUSH2 0x34A1 JUMP JUMPDEST DUP3 MSTORE POP POP JUMP JUMPDEST PUSH2 0x2476 DUP2 PUSH2 0x3421 JUMP JUMPDEST DUP3 MSTORE POP POP JUMP JUMPDEST PUSH2 0x2485 DUP2 PUSH2 0x3421 JUMP JUMPDEST DUP3 MSTORE POP POP JUMP JUMPDEST PUSH2 0x2494 DUP2 PUSH2 0x3451 JUMP JUMPDEST DUP3 MSTORE POP POP JUMP JUMPDEST PUSH2 0x24A3 DUP2 PUSH2 0x3451 JUMP JUMPDEST DUP3 MSTORE POP POP JUMP JUMPDEST PUSH1 0x0 PUSH2 0x24B5 DUP4 DUP6 PUSH2 0x32A6 JUMP JUMPDEST SWAP4 POP PUSH2 0x24C2 DUP4 DUP6 DUP5 PUSH2 0x34D7 JUMP JUMPDEST PUSH2 0x24CB DUP4 PUSH2 0x3548 JUMP JUMPDEST DUP5 ADD SWAP1 POP SWAP4 SWAP3 POP POP POP JUMP JUMPDEST PUSH1 0x0 PUSH2 0x24E2 DUP4 DUP6 PUSH2 0x32B7 JUMP JUMPDEST SWAP4 POP PUSH2 0x24EF DUP4 DUP6 DUP5 PUSH2 0x34D7 JUMP JUMPDEST PUSH2 0x24F8 DUP4 PUSH2 0x3548 JUMP JUMPDEST DUP5 ADD SWAP1 POP SWAP4 SWAP3 POP POP POP JUMP JUMPDEST PUSH1 0x0 PUSH2 0x250F DUP4 DUP6 PUSH2 0x32C8 JUMP JUMPDEST SWAP4 POP PUSH2 0x251C DUP4 DUP6 DUP5 PUSH2 0x34D7 JUMP JUMPDEST DUP3 DUP5 ADD SWAP1 POP SWAP4 SWAP3 POP POP POP JUMP JUMPDEST PUSH1 0x0 PUSH2 0x2533 DUP3 PUSH2 0x329B JUMP JUMPDEST PUSH2 0x253D DUP2 DUP6 PUSH2 0x32A6 JUMP JUMPDEST SWAP4 POP PUSH2 0x254D DUP2 DUP6 PUSH1 0x20 DUP7 ADD PUSH2 0x34E6 JUMP JUMPDEST PUSH2 0x2556 DUP2 PUSH2 0x3548 JUMP JUMPDEST DUP5 ADD SWAP2 POP POP SWAP3 SWAP2 POP POP JUMP JUMPDEST PUSH1 0x0 PUSH2 0x256C DUP3 PUSH2 0x329B JUMP JUMPDEST PUSH2 0x2576 DUP2 DUP6 PUSH2 0x32C8 JUMP JUMPDEST SWAP4 POP PUSH2 0x2586 DUP2 DUP6 PUSH1 0x20 DUP7 ADD PUSH2 0x34E6 JUMP JUMPDEST DUP1 DUP5 ADD SWAP2 POP POP SWAP3 SWAP2 POP POP JUMP JUMPDEST PUSH1 0x0 PUSH2 0x259F PUSH1 0x18 DUP4 PUSH2 0x32D3 JUMP JUMPDEST SWAP2 POP PUSH2 0x25AA DUP3 PUSH2 0x3559 JUMP JUMPDEST PUSH1 0x20 DUP3 ADD SWAP1 POP SWAP2 SWAP1 POP JUMP JUMPDEST PUSH1 0x0 PUSH2 0x25C2 PUSH1 0x1E DUP4 PUSH2 0x32D3 JUMP JUMPDEST SWAP2 POP PUSH2 0x25CD DUP3 PUSH2 0x3582 JUMP JUMPDEST PUSH1 0x20 DUP3 ADD SWAP1 POP SWAP2 SWAP1 POP JUMP JUMPDEST PUSH1 0x0 PUSH2 0x25E5 PUSH1 0x18 DUP4 PUSH2 0x32D3 JUMP JUMPDEST SWAP2 POP PUSH2 0x25F0 DUP3 PUSH2 0x35AB JUMP JUMPDEST PUSH1 0x20 DUP3 ADD SWAP1 POP SWAP2 SWAP1 POP JUMP JUMPDEST PUSH1 0x0 PUSH2 0x2608 PUSH1 0x18 DUP4 PUSH2 0x32D3 JUMP JUMPDEST SWAP2 POP PUSH2 0x2613 DUP3 PUSH2 0x35D4 JUMP JUMPDEST PUSH1 0x20 DUP3 ADD SWAP1 POP SWAP2 SWAP1 POP JUMP JUMPDEST PUSH1 0x0 PUSH2 0x262B PUSH1 0x1F DUP4 PUSH2 0x32D3 JUMP JUMPDEST SWAP2 POP PUSH2 0x2636 DUP3 PUSH2 0x35FD JUMP JUMPDEST PUSH1 0x20 DUP3 ADD SWAP1 POP SWAP2 SWAP1 POP JUMP JUMPDEST PUSH1 0x0 PUSH2 0x264E PUSH1 0x23 DUP4 PUSH2 0x32D3 JUMP JUMPDEST SWAP2 POP PUSH2 0x2659 DUP3 PUSH2 0x3626 JUMP JUMPDEST PUSH1 0x40 DUP3 ADD SWAP1 POP SWAP2 SWAP1 POP JUMP JUMPDEST PUSH1 0x0 PUSH2 0x2671 PUSH1 0x19 DUP4 PUSH2 0x32D3 JUMP JUMPDEST SWAP2 POP PUSH2 0x267C DUP3 PUSH2 0x3675 JUMP JUMPDEST PUSH1 0x20 DUP3 ADD SWAP1 POP SWAP2 SWAP1 POP JUMP JUMPDEST PUSH1 0x0 PUSH2 0x2694 PUSH1 0x17 DUP4 PUSH2 0x32D3 JUMP JUMPDEST SWAP2 POP PUSH2 0x269F DUP3 PUSH2 0x369E JUMP JUMPDEST PUSH1 0x20 DUP3 ADD SWAP1 POP SWAP2 SWAP1 POP JUMP JUMPDEST PUSH1 0x0 PUSH2 0x26B7 PUSH1 0x24 DUP4 PUSH2 0x32D3 JUMP JUMPDEST SWAP2 POP PUSH2 0x26C2 DUP3 PUSH2 0x36C7 JUMP JUMPDEST PUSH1 0x40 DUP3 ADD SWAP1 POP SWAP2 SWAP1 POP JUMP JUMPDEST PUSH1 0x0 PUSH2 0x26DA PUSH1 0x22 DUP4 PUSH2 0x32D3 JUMP JUMPDEST SWAP2 POP PUSH2 0x26E5 DUP3 PUSH2 0x3716 JUMP JUMPDEST PUSH1 0x40 DUP3 ADD SWAP1 POP SWAP2 SWAP1 POP JUMP JUMPDEST PUSH1 0x0 PUSH2 0x26FD PUSH1 0x16 DUP4 PUSH2 0x32D3 JUMP JUMPDEST SWAP2 POP PUSH2 0x2708 DUP3 PUSH2 0x3765 JUMP JUMPDEST PUSH1 0x20 DUP3 ADD SWAP1 POP SWAP2 SWAP1 POP JUMP JUMPDEST PUSH1 0x0 PUSH2 0x2720 PUSH1 0x20 DUP4 PUSH2 0x32D3 JUMP JUMPDEST SWAP2 POP PUSH2 0x272B DUP3 PUSH2 0x378E JUMP JUMPDEST PUSH1 0x20 DUP3 ADD SWAP1 POP SWAP2 SWAP1 POP JUMP JUMPDEST PUSH1 0x0 PUSH2 0x2743 PUSH1 0x20 DUP4 PUSH2 0x32D3 JUMP JUMPDEST SWAP2 POP PUSH2 0x274E DUP3 PUSH2 0x37B7 JUMP JUMPDEST PUSH1 0x20 DUP3 ADD SWAP1 POP SWAP2 SWAP1 POP JUMP JUMPDEST PUSH1 0x0 PUSH2 0x2766 PUSH1 0x17 DUP4 PUSH2 0x32D3 JUMP JUMPDEST SWAP2 POP PUSH2 0x2771 DUP3 PUSH2 0x37E0 JUMP JUMPDEST PUSH1 0x20 DUP3 ADD SWAP1 POP SWAP2 SWAP1 POP JUMP JUMPDEST PUSH1 0x0 PUSH2 0x2789 PUSH1 0x20 DUP4 PUSH2 0x32D3 JUMP JUMPDEST SWAP2 POP PUSH2 0x2794 DUP3 PUSH2 0x3809 JUMP JUMPDEST PUSH1 0x20 DUP3 ADD SWAP1 POP SWAP2 SWAP1 POP JUMP JUMPDEST PUSH1 0x0 PUSH2 0x27AC PUSH1 0x16 DUP4 PUSH2 0x32D3 JUMP JUMPDEST SWAP2 POP PUSH2 0x27B7 DUP3 PUSH2 0x3832 JUMP JUMPDEST PUSH1 0x20 DUP3 ADD SWAP1 POP SWAP2 SWAP1 POP JUMP JUMPDEST PUSH1 0x0 PUSH2 0x27CF PUSH1 0x22 DUP4 PUSH2 0x32D3 JUMP JUMPDEST SWAP2 POP PUSH2 0x27DA DUP3 PUSH2 0x385B JUMP JUMPDEST PUSH1 0x40 DUP3 ADD SWAP1 POP SWAP2 SWAP1 POP JUMP JUMPDEST PUSH1 0x0 PUSH2 0x27F2 PUSH1 0x11 DUP4 PUSH2 0x32D3 JUMP JUMPDEST SWAP2 POP PUSH2 0x27FD DUP3 PUSH2 0x38AA JUMP JUMPDEST PUSH1 0x20 DUP3 ADD SWAP1 POP SWAP2 SWAP1 POP JUMP JUMPDEST PUSH1 0x0 PUSH2 0x2815 PUSH1 0x18 DUP4 PUSH2 0x32D3 JUMP JUMPDEST SWAP2 POP PUSH2 0x2820 DUP3 PUSH2 0x38D3 JUMP JUMPDEST PUSH1 0x20 DUP3 ADD SWAP1 POP SWAP2 SWAP1 POP JUMP JUMPDEST PUSH1 0x0 PUSH2 0x2838 PUSH1 0x1E DUP4 PUSH2 0x32D3 JUMP JUMPDEST SWAP2 POP PUSH2 0x2843 DUP3 PUSH2 0x38FC JUMP JUMPDEST PUSH1 0x20 DUP3 ADD SWAP1 POP SWAP2 SWAP1 POP JUMP JUMPDEST PUSH1 0x0 PUSH2 0x285B PUSH1 0x16 DUP4 PUSH2 0x32D3 JUMP JUMPDEST SWAP2 POP PUSH2 0x2866 DUP3 PUSH2 0x3925 JUMP JUMPDEST PUSH1 0x20 DUP3 ADD SWAP1 POP SWAP2 SWAP1 POP JUMP JUMPDEST PUSH1 0x0 PUSH2 0x287E PUSH1 0x23 DUP4 PUSH2 0x32D3 JUMP JUMPDEST SWAP2 POP PUSH2 0x2889 DUP3 PUSH2 0x394E JUMP JUMPDEST PUSH1 0x40 DUP3 ADD SWAP1 POP SWAP2 SWAP1 POP JUMP JUMPDEST PUSH1 0x0 PUSH2 0x28A1 PUSH1 0x23 DUP4 PUSH2 0x32D3 JUMP JUMPDEST SWAP2 POP PUSH2 0x28AC DUP3 PUSH2 0x399D JUMP JUMPDEST PUSH1 0x40 DUP3 ADD SWAP1 POP SWAP2 SWAP1 POP JUMP JUMPDEST PUSH1 0x0 PUSH2 0x28C4 PUSH1 0x28 DUP4 PUSH2 0x32D3 JUMP JUMPDEST SWAP2 POP PUSH2 0x28CF DUP3 PUSH2 0x39EC JUMP JUMPDEST PUSH1 0x40 DUP3 ADD SWAP1 POP SWAP2 SWAP1 POP JUMP JUMPDEST PUSH1 0x0 PUSH2 0x28E7 PUSH1 0x1E DUP4 PUSH2 0x32D3 JUMP JUMPDEST SWAP2 POP PUSH2 0x28F2 DUP3 PUSH2 0x3A3B JUMP JUMPDEST PUSH1 0x20 DUP3 ADD SWAP1 POP SWAP2 SWAP1 POP JUMP JUMPDEST PUSH1 0x0 PUSH2 0x290A PUSH1 0x0 DUP4 PUSH2 0x32C8 JUMP JUMPDEST SWAP2 POP PUSH2 0x2915 DUP3 PUSH2 0x3A64 JUMP JUMPDEST PUSH1 0x0 DUP3 ADD SWAP1 POP SWAP2 SWAP1 POP JUMP JUMPDEST PUSH1 0x0 PUSH2 0x292D PUSH1 0x1A DUP4 PUSH2 0x32D3 JUMP JUMPDEST SWAP2 POP PUSH2 0x2938 DUP3 PUSH2 0x3A67 JUMP JUMPDEST PUSH1 0x20 DUP3 ADD SWAP1 POP SWAP2 SWAP1 POP JUMP JUMPDEST PUSH1 0x0 PUSH2 0x2950 PUSH1 0x1F DUP4 PUSH2 0x32D3 JUMP JUMPDEST SWAP2 POP PUSH2 0x295B DUP3 PUSH2 0x3A90 JUMP JUMPDEST PUSH1 0x20 DUP3 ADD SWAP1 POP SWAP2 SWAP1 POP JUMP JUMPDEST PUSH1 0x0 PUSH2 0x2973 PUSH1 0x1A DUP4 PUSH2 0x32D3 JUMP JUMPDEST SWAP2 POP PUSH2 0x297E DUP3 PUSH2 0x3AB9 JUMP JUMPDEST PUSH1 0x20 DUP3 ADD SWAP1 POP SWAP2 SWAP1 POP JUMP JUMPDEST PUSH1 0x0 PUSH2 0x2996 PUSH1 0x1C DUP4 PUSH2 0x32D3 JUMP JUMPDEST SWAP2 POP PUSH2 0x29A1 DUP3 PUSH2 0x3AE2 JUMP JUMPDEST PUSH1 0x20 DUP3 ADD SWAP1 POP SWAP2 SWAP1 POP JUMP JUMPDEST PUSH1 0x0 PUSH2 0x29B9 PUSH1 0x1F DUP4 PUSH2 0x32D3 JUMP JUMPDEST SWAP2 POP PUSH2 0x29C4 DUP3 PUSH2 0x3B0B JUMP JUMPDEST PUSH1 0x20 DUP3 ADD SWAP1 POP SWAP2 SWAP1 POP JUMP JUMPDEST PUSH1 0x0 PUSH2 0x29DC PUSH1 0x18 DUP4 PUSH2 0x32D3 JUMP JUMPDEST SWAP2 POP PUSH2 0x29E7 DUP3 PUSH2 0x3B34 JUMP JUMPDEST PUSH1 0x20 DUP3 ADD SWAP1 POP SWAP2 SWAP1 POP JUMP JUMPDEST PUSH1 0x0 PUSH2 0x120 DUP4 ADD PUSH1 0x0 DUP4 ADD MLOAD PUSH2 0x2A0B PUSH1 0x0 DUP7 ADD DUP3 PUSH2 0x246D JUMP JUMPDEST POP PUSH1 0x20 DUP4 ADD MLOAD PUSH2 0x2A1E PUSH1 0x20 DUP7 ADD DUP3 PUSH2 0x246D JUMP JUMPDEST POP PUSH1 0x40 DUP4 ADD MLOAD PUSH2 0x2A31 PUSH1 0x40 DUP7 ADD DUP3 PUSH2 0x246D JUMP JUMPDEST POP PUSH1 0x60 DUP4 ADD MLOAD PUSH2 0x2A44 PUSH1 0x60 DUP7 ADD DUP3 PUSH2 0x246D JUMP JUMPDEST POP PUSH1 0x80 DUP4 ADD MLOAD PUSH2 0x2A57 PUSH1 0x80 DUP7 ADD DUP3 PUSH2 0x2C00 JUMP JUMPDEST POP PUSH1 0xA0 DUP4 ADD MLOAD PUSH2 0x2A6A PUSH1 0xA0 DUP7 ADD DUP3 PUSH2 0x2C00 JUMP JUMPDEST POP PUSH1 0xC0 DUP4 ADD MLOAD PUSH2 0x2A7D PUSH1 0xC0 DUP7 ADD DUP3 PUSH2 0x246D JUMP JUMPDEST POP PUSH1 0xE0 DUP4 ADD MLOAD DUP5 DUP3 SUB PUSH1 0xE0 DUP7 ADD MSTORE PUSH2 0x2A95 DUP3 DUP3 PUSH2 0x2528 JUMP JUMPDEST SWAP2 POP POP PUSH2 0x100 DUP4 ADD MLOAD PUSH2 0x2AAC PUSH2 0x100 DUP7 ADD DUP3 PUSH2 0x248B JUMP JUMPDEST POP DUP1 SWAP2 POP POP SWAP3 SWAP2 POP POP JUMP JUMPDEST PUSH1 0x0 PUSH2 0x160 DUP4 ADD PUSH2 0x2ACB PUSH1 0x0 DUP5 ADD DUP5 PUSH2 0x32E4 JUMP JUMPDEST PUSH2 0x2AD8 PUSH1 0x0 DUP7 ADD DUP3 PUSH2 0x246D JUMP JUMPDEST POP PUSH2 0x2AE6 PUSH1 0x20 DUP5 ADD DUP5 PUSH2 0x32E4 JUMP JUMPDEST PUSH2 0x2AF3 PUSH1 0x20 DUP7 ADD DUP3 PUSH2 0x246D JUMP JUMPDEST POP PUSH2 0x2B01 PUSH1 0x40 DUP5 ADD DUP5 PUSH2 0x3380 JUMP JUMPDEST PUSH2 0x2B0E PUSH1 0x40 DUP7 ADD DUP3 PUSH2 0x2C1E JUMP JUMPDEST POP PUSH2 0x2B1C PUSH1 0x60 DUP5 ADD DUP5 PUSH2 0x32E4 JUMP JUMPDEST PUSH2 0x2B29 PUSH1 0x60 DUP7 ADD DUP3 PUSH2 0x246D JUMP JUMPDEST POP PUSH2 0x2B37 PUSH1 0x80 DUP5 ADD DUP5 PUSH2 0x32E4 JUMP JUMPDEST PUSH2 0x2B44 PUSH1 0x80 DUP7 ADD DUP3 PUSH2 0x246D JUMP JUMPDEST POP PUSH2 0x2B52 PUSH1 0xA0 DUP5 ADD DUP5 PUSH2 0x3369 JUMP JUMPDEST PUSH2 0x2B5F PUSH1 0xA0 DUP7 ADD DUP3 PUSH2 0x2C00 JUMP JUMPDEST POP PUSH2 0x2B6D PUSH1 0xC0 DUP5 ADD DUP5 PUSH2 0x3369 JUMP JUMPDEST PUSH2 0x2B7A PUSH1 0xC0 DUP7 ADD DUP3 PUSH2 0x2C00 JUMP JUMPDEST POP PUSH2 0x2B88 PUSH1 0xE0 DUP5 ADD DUP5 PUSH2 0x32E4 JUMP JUMPDEST PUSH2 0x2B95 PUSH1 0xE0 DUP7 ADD DUP3 PUSH2 0x246D JUMP JUMPDEST POP PUSH2 0x2BA4 PUSH2 0x100 DUP5 ADD DUP5 PUSH2 0x3312 JUMP JUMPDEST DUP6 DUP4 SUB PUSH2 0x100 DUP8 ADD MSTORE PUSH2 0x2BB8 DUP4 DUP3 DUP5 PUSH2 0x24A9 JUMP JUMPDEST SWAP3 POP POP POP PUSH2 0x2BCA PUSH2 0x120 DUP5 ADD DUP5 PUSH2 0x32FB JUMP JUMPDEST PUSH2 0x2BD8 PUSH2 0x120 DUP7 ADD DUP3 PUSH2 0x248B JUMP JUMPDEST POP PUSH2 0x2BE7 PUSH2 0x140 DUP5 ADD DUP5 PUSH2 0x3380 JUMP JUMPDEST PUSH2 0x2BF5 PUSH2 0x140 DUP7 ADD DUP3 PUSH2 0x2C1E JUMP JUMPDEST POP DUP1 SWAP2 POP POP SWAP3 SWAP2 POP POP JUMP JUMPDEST PUSH2 0x2C09 DUP2 PUSH2 0x347B JUMP JUMPDEST DUP3 MSTORE POP POP JUMP JUMPDEST PUSH2 0x2C18 DUP2 PUSH2 0x347B JUMP JUMPDEST DUP3 MSTORE POP POP JUMP JUMPDEST PUSH2 0x2C27 DUP2 PUSH2 0x348A JUMP JUMPDEST DUP3 MSTORE POP POP JUMP JUMPDEST PUSH2 0x2C36 DUP2 PUSH2 0x348A JUMP JUMPDEST DUP3 MSTORE POP POP JUMP JUMPDEST PUSH2 0x2C45 DUP2 PUSH2 0x3494 JUMP JUMPDEST DUP3 MSTORE POP POP JUMP JUMPDEST PUSH1 0x0 PUSH2 0x2C58 DUP3 DUP5 DUP7 PUSH2 0x2503 JUMP JUMPDEST SWAP2 POP DUP2 SWAP1 POP SWAP4 SWAP3 POP POP POP JUMP JUMPDEST PUSH1 0x0 PUSH2 0x2C70 DUP3 DUP5 PUSH2 0x2561 JUMP JUMPDEST SWAP2 POP DUP2 SWAP1 POP SWAP3 SWAP2 POP POP JUMP JUMPDEST PUSH1 0x0 PUSH2 0x2C86 DUP3 PUSH2 0x28FD JUMP JUMPDEST SWAP2 POP DUP2 SWAP1 POP SWAP2 SWAP1 POP JUMP JUMPDEST PUSH1 0x0 PUSH1 0x60 DUP3 ADD SWAP1 POP PUSH2 0x2CA5 PUSH1 0x0 DUP4 ADD DUP7 PUSH2 0x247C JUMP JUMPDEST PUSH2 0x2CB2 PUSH1 0x20 DUP4 ADD DUP6 PUSH2 0x247C JUMP JUMPDEST PUSH2 0x2CBF PUSH1 0x40 DUP4 ADD DUP5 PUSH2 0x2C2D JUMP JUMPDEST SWAP5 SWAP4 POP POP POP POP JUMP JUMPDEST PUSH1 0x0 PUSH1 0x80 DUP3 ADD SWAP1 POP PUSH2 0x2CDC PUSH1 0x0 DUP4 ADD DUP8 PUSH2 0x247C JUMP JUMPDEST PUSH2 0x2CE9 PUSH1 0x20 DUP4 ADD DUP7 PUSH2 0x247C JUMP JUMPDEST PUSH2 0x2CF6 PUSH1 0x40 DUP4 ADD DUP6 PUSH2 0x2C2D JUMP JUMPDEST PUSH2 0x2D03 PUSH1 0x60 DUP4 ADD DUP5 PUSH2 0x245E JUMP JUMPDEST SWAP6 SWAP5 POP POP POP POP POP JUMP JUMPDEST PUSH1 0x0 PUSH1 0x40 DUP3 ADD SWAP1 POP PUSH2 0x2D21 PUSH1 0x0 DUP4 ADD DUP6 PUSH2 0x247C JUMP JUMPDEST PUSH2 0x2D2E PUSH1 0x20 DUP4 ADD DUP5 PUSH2 0x2C2D JUMP JUMPDEST SWAP4 SWAP3 POP POP POP JUMP JUMPDEST PUSH1 0x0 PUSH1 0x20 DUP3 ADD SWAP1 POP PUSH2 0x2D4A PUSH1 0x0 DUP4 ADD DUP5 PUSH2 0x249A JUMP JUMPDEST SWAP3 SWAP2 POP POP JUMP JUMPDEST PUSH1 0x0 PUSH1 0x80 DUP3 ADD SWAP1 POP PUSH2 0x2D65 PUSH1 0x0 DUP4 ADD DUP8 PUSH2 0x249A JUMP JUMPDEST PUSH2 0x2D72 PUSH1 0x20 DUP4 ADD DUP7 PUSH2 0x2C3C JUMP JUMPDEST PUSH2 0x2D7F PUSH1 0x40 DUP4 ADD DUP6 PUSH2 0x249A JUMP JUMPDEST PUSH2 0x2D8C PUSH1 0x60 DUP4 ADD DUP5 PUSH2 0x249A JUMP JUMPDEST SWAP6 SWAP5 POP POP POP POP POP JUMP JUMPDEST PUSH1 0x0 PUSH1 0x20 DUP3 ADD SWAP1 POP DUP2 DUP2 SUB PUSH1 0x0 DUP4 ADD MSTORE PUSH2 0x2DAE DUP2 PUSH2 0x2592 JUMP JUMPDEST SWAP1 POP SWAP2 SWAP1 POP JUMP JUMPDEST PUSH1 0x0 PUSH1 0x20 DUP3 ADD SWAP1 POP DUP2 DUP2 SUB PUSH1 0x0 DUP4 ADD MSTORE PUSH2 0x2DCE DUP2 PUSH2 0x25B5 JUMP JUMPDEST SWAP1 POP SWAP2 SWAP1 POP JUMP JUMPDEST PUSH1 0x0 PUSH1 0x20 DUP3 ADD SWAP1 POP DUP2 DUP2 SUB PUSH1 0x0 DUP4 ADD MSTORE PUSH2 0x2DEE DUP2 PUSH2 0x25D8 JUMP JUMPDEST SWAP1 POP SWAP2 SWAP1 POP JUMP JUMPDEST PUSH1 0x0 PUSH1 0x20 DUP3 ADD SWAP1 POP DUP2 DUP2 SUB PUSH1 0x0 DUP4 ADD MSTORE PUSH2 0x2E0E DUP2 PUSH2 0x25FB JUMP JUMPDEST SWAP1 POP SWAP2 SWAP1 POP JUMP JUMPDEST PUSH1 0x0 PUSH1 0x20 DUP3 ADD SWAP1 POP DUP2 DUP2 SUB PUSH1 0x0 DUP4 ADD MSTORE PUSH2 0x2E2E DUP2 PUSH2 0x261E JUMP JUMPDEST SWAP1 POP SWAP2 SWAP1 POP JUMP JUMPDEST PUSH1 0x0 PUSH1 0x20 DUP3 ADD SWAP1 POP DUP2 DUP2 SUB PUSH1 0x0 DUP4 ADD MSTORE PUSH2 0x2E4E DUP2 PUSH2 0x2641 JUMP JUMPDEST SWAP1 POP SWAP2 SWAP1 POP JUMP JUMPDEST PUSH1 0x0 PUSH1 0x20 DUP3 ADD SWAP1 POP DUP2 DUP2 SUB PUSH1 0x0 DUP4 ADD MSTORE PUSH2 0x2E6E DUP2 PUSH2 0x2664 JUMP JUMPDEST SWAP1 POP SWAP2 SWAP1 POP JUMP JUMPDEST PUSH1 0x0 PUSH1 0x20 DUP3 ADD SWAP1 POP DUP2 DUP2 SUB PUSH1 0x0 DUP4 ADD MSTORE PUSH2 0x2E8E DUP2 PUSH2 0x2687 JUMP JUMPDEST SWAP1 POP SWAP2 SWAP1 POP JUMP JUMPDEST PUSH1 0x0 PUSH1 0x20 DUP3 ADD SWAP1 POP DUP2 DUP2 SUB PUSH1 0x0 DUP4 ADD MSTORE PUSH2 0x2EAE DUP2 PUSH2 0x26AA JUMP JUMPDEST SWAP1 POP SWAP2 SWAP1 POP JUMP JUMPDEST PUSH1 0x0 PUSH1 0x20 DUP3 ADD SWAP1 POP DUP2 DUP2 SUB PUSH1 0x0 DUP4 ADD MSTORE PUSH2 0x2ECE DUP2 PUSH2 0x26CD JUMP JUMPDEST SWAP1 POP SWAP2 SWAP1 POP JUMP JUMPDEST PUSH1 0x0 PUSH1 0x20 DUP3 ADD SWAP1 POP DUP2 DUP2 SUB PUSH1 0x0 DUP4 ADD MSTORE PUSH2 0x2EEE DUP2 PUSH2 0x26F0 JUMP JUMPDEST SWAP1 POP SWAP2 SWAP1 POP JUMP JUMPDEST PUSH1 0x0 PUSH1 0x20 DUP3 ADD SWAP1 POP DUP2 DUP2 SUB PUSH1 0x0 DUP4 ADD MSTORE PUSH2 0x2F0E DUP2 PUSH2 0x2713 JUMP JUMPDEST SWAP1 POP SWAP2 SWAP1 POP JUMP JUMPDEST PUSH1 0x0 PUSH1 0x20 DUP3 ADD SWAP1 POP DUP2 DUP2 SUB PUSH1 0x0 DUP4 ADD MSTORE PUSH2 0x2F2E DUP2 PUSH2 0x2736 JUMP JUMPDEST SWAP1 POP SWAP2 SWAP1 POP JUMP JUMPDEST PUSH1 0x0 PUSH1 0x20 DUP3 ADD SWAP1 POP DUP2 DUP2 SUB PUSH1 0x0 DUP4 ADD MSTORE PUSH2 0x2F4E DUP2 PUSH2 0x2759 JUMP JUMPDEST SWAP1 POP SWAP2 SWAP1 POP JUMP JUMPDEST PUSH1 0x0 PUSH1 0x20 DUP3 ADD SWAP1 POP DUP2 DUP2 SUB PUSH1 0x0 DUP4 ADD MSTORE PUSH2 0x2F6E DUP2 PUSH2 0x277C JUMP JUMPDEST SWAP1 POP SWAP2 SWAP1 POP JUMP JUMPDEST PUSH1 0x0 PUSH1 0x20 DUP3 ADD SWAP1 POP DUP2 DUP2 SUB PUSH1 0x0 DUP4 ADD MSTORE PUSH2 0x2F8E DUP2 PUSH2 0x279F JUMP JUMPDEST SWAP1 POP SWAP2 SWAP1 POP JUMP JUMPDEST PUSH1 0x0 PUSH1 0x20 DUP3 ADD SWAP1 POP DUP2 DUP2 SUB PUSH1 0x0 DUP4 ADD MSTORE PUSH2 0x2FAE DUP2 PUSH2 0x27C2 JUMP JUMPDEST SWAP1 POP SWAP2 SWAP1 POP JUMP JUMPDEST PUSH1 0x0 PUSH1 0x20 DUP3 ADD SWAP1 POP DUP2 DUP2 SUB PUSH1 0x0 DUP4 ADD MSTORE PUSH2 0x2FCE DUP2 PUSH2 0x27E5 JUMP JUMPDEST SWAP1 POP SWAP2 SWAP1 POP JUMP JUMPDEST PUSH1 0x0 PUSH1 0x20 DUP3 ADD SWAP1 POP DUP2 DUP2 SUB PUSH1 0x0 DUP4 ADD MSTORE PUSH2 0x2FEE DUP2 PUSH2 0x2808 JUMP JUMPDEST SWAP1 POP SWAP2 SWAP1 POP JUMP JUMPDEST PUSH1 0x0 PUSH1 0x20 DUP3 ADD SWAP1 POP DUP2 DUP2 SUB PUSH1 0x0 DUP4 ADD MSTORE PUSH2 0x300E DUP2 PUSH2 0x282B JUMP JUMPDEST SWAP1 POP SWAP2 SWAP1 POP JUMP JUMPDEST PUSH1 0x0 PUSH1 0x20 DUP3 ADD SWAP1 POP DUP2 DUP2 SUB PUSH1 0x0 DUP4 ADD MSTORE PUSH2 0x302E DUP2 PUSH2 0x284E JUMP JUMPDEST SWAP1 POP SWAP2 SWAP1 POP JUMP JUMPDEST PUSH1 0x0 PUSH1 0x20 DUP3 ADD SWAP1 POP DUP2 DUP2 SUB PUSH1 0x0 DUP4 ADD MSTORE PUSH2 0x304E DUP2 PUSH2 0x2871 JUMP JUMPDEST SWAP1 POP SWAP2 SWAP1 POP JUMP JUMPDEST PUSH1 0x0 PUSH1 0x20 DUP3 ADD SWAP1 POP DUP2 DUP2 SUB PUSH1 0x0 DUP4 ADD MSTORE PUSH2 0x306E DUP2 PUSH2 0x2894 JUMP JUMPDEST SWAP1 POP SWAP2 SWAP1 POP JUMP JUMPDEST PUSH1 0x0 PUSH1 0x20 DUP3 ADD SWAP1 POP DUP2 DUP2 SUB PUSH1 0x0 DUP4 ADD MSTORE PUSH2 0x308E DUP2 PUSH2 0x28B7 JUMP JUMPDEST SWAP1 POP SWAP2 SWAP1 POP JUMP JUMPDEST PUSH1 0x0 PUSH1 0x20 DUP3 ADD SWAP1 POP DUP2 DUP2 SUB PUSH1 0x0 DUP4 ADD MSTORE PUSH2 0x30AE DUP2 PUSH2 0x28DA JUMP JUMPDEST SWAP1 POP SWAP2 SWAP1 POP JUMP JUMPDEST PUSH1 0x0 PUSH1 0x20 DUP3 ADD SWAP1 POP DUP2 DUP2 SUB PUSH1 0x0 DUP4 ADD MSTORE PUSH2 0x30CE DUP2 PUSH2 0x2920 JUMP JUMPDEST SWAP1 POP SWAP2 SWAP1 POP JUMP JUMPDEST PUSH1 0x0 PUSH1 0x20 DUP3 ADD SWAP1 POP DUP2 DUP2 SUB PUSH1 0x0 DUP4 ADD MSTORE PUSH2 0x30EE DUP2 PUSH2 0x2943 JUMP JUMPDEST SWAP1 POP SWAP2 SWAP1 POP JUMP JUMPDEST PUSH1 0x0 PUSH1 0x20 DUP3 ADD SWAP1 POP DUP2 DUP2 SUB PUSH1 0x0 DUP4 ADD MSTORE PUSH2 0x310E DUP2 PUSH2 0x2966 JUMP JUMPDEST SWAP1 POP SWAP2 SWAP1 POP JUMP JUMPDEST PUSH1 0x0 PUSH1 0x20 DUP3 ADD SWAP1 POP DUP2 DUP2 SUB PUSH1 0x0 DUP4 ADD MSTORE PUSH2 0x312E DUP2 PUSH2 0x2989 JUMP JUMPDEST SWAP1 POP SWAP2 SWAP1 POP JUMP JUMPDEST PUSH1 0x0 PUSH1 0x20 DUP3 ADD SWAP1 POP DUP2 DUP2 SUB PUSH1 0x0 DUP4 ADD MSTORE PUSH2 0x314E DUP2 PUSH2 0x29AC JUMP JUMPDEST SWAP1 POP SWAP2 SWAP1 POP JUMP JUMPDEST PUSH1 0x0 PUSH1 0x20 DUP3 ADD SWAP1 POP DUP2 DUP2 SUB PUSH1 0x0 DUP4 ADD MSTORE PUSH2 0x316E DUP2 PUSH2 0x29CF JUMP JUMPDEST SWAP1 POP SWAP2 SWAP1 POP JUMP JUMPDEST PUSH1 0x0 PUSH1 0x20 DUP3 ADD SWAP1 POP DUP2 DUP2 SUB PUSH1 0x0 DUP4 ADD MSTORE PUSH2 0x318F DUP2 DUP5 PUSH2 0x29F2 JUMP JUMPDEST SWAP1 POP SWAP3 SWAP2 POP POP JUMP JUMPDEST PUSH1 0x0 PUSH1 0x40 DUP3 ADD SWAP1 POP DUP2 DUP2 SUB PUSH1 0x0 DUP4 ADD MSTORE PUSH2 0x31B1 DUP2 DUP6 PUSH2 0x2AB7 JUMP JUMPDEST SWAP1 POP PUSH2 0x31C0 PUSH1 0x20 DUP4 ADD DUP5 PUSH2 0x247C JUMP JUMPDEST SWAP4 SWAP3 POP POP POP JUMP JUMPDEST PUSH1 0x0 PUSH1 0x60 DUP3 ADD SWAP1 POP DUP2 DUP2 SUB PUSH1 0x0 DUP4 ADD MSTORE PUSH2 0x31E1 DUP2 DUP8 PUSH2 0x2AB7 JUMP JUMPDEST SWAP1 POP DUP2 DUP2 SUB PUSH1 0x20 DUP4 ADD MSTORE PUSH2 0x31F6 DUP2 DUP6 DUP8 PUSH2 0x24D6 JUMP JUMPDEST SWAP1 POP PUSH2 0x3205 PUSH1 0x40 DUP4 ADD DUP5 PUSH2 0x247C JUMP JUMPDEST SWAP6 SWAP5 POP POP POP POP POP JUMP JUMPDEST PUSH1 0x0 PUSH1 0x20 DUP3 ADD SWAP1 POP PUSH2 0x3223 PUSH1 0x0 DUP4 ADD DUP5 PUSH2 0x2C0F JUMP JUMPDEST SWAP3 SWAP2 POP POP JUMP JUMPDEST PUSH1 0x0 PUSH1 0x20 DUP3 ADD SWAP1 POP PUSH2 0x323E PUSH1 0x0 DUP4 ADD DUP5 PUSH2 0x2C2D JUMP JUMPDEST SWAP3 SWAP2 POP POP JUMP JUMPDEST PUSH1 0x0 DUP1 DUP4 CALLDATALOAD PUSH1 0x1 PUSH1 0x20 SUB DUP5 CALLDATASIZE SUB SUB DUP2 SLT PUSH2 0x325D JUMPI PUSH1 0x0 DUP1 REVERT JUMPDEST DUP1 DUP5 ADD SWAP3 POP DUP3 CALLDATALOAD SWAP2 POP PUSH8 0xFFFFFFFFFFFFFFFF DUP3 GT ISZERO PUSH2 0x327B JUMPI PUSH1 0x0 DUP1 REVERT JUMPDEST PUSH1 0x20 DUP4 ADD SWAP3 POP PUSH1 0x1 DUP3 MUL CALLDATASIZE SUB DUP4 SGT ISZERO PUSH2 0x3293 JUMPI PUSH1 0x0 DUP1 REVERT JUMPDEST POP SWAP3 POP SWAP3 SWAP1 POP JUMP JUMPDEST PUSH1 0x0 DUP2 MLOAD SWAP1 POP SWAP2 SWAP1 POP JUMP JUMPDEST PUSH1 0x0 DUP3 DUP3 MSTORE PUSH1 0x20 DUP3 ADD SWAP1 POP SWAP3 SWAP2 POP POP JUMP JUMPDEST PUSH1 0x0 DUP3 DUP3 MSTORE PUSH1 0x20 DUP3 ADD SWAP1 POP SWAP3 SWAP2 POP POP JUMP JUMPDEST PUSH1 0x0 DUP2 SWAP1 POP SWAP3 SWAP2 POP POP JUMP JUMPDEST PUSH1 0x0 DUP3 DUP3 MSTORE PUSH1 0x20 DUP3 ADD SWAP1 POP SWAP3 SWAP2 POP POP JUMP JUMPDEST PUSH1 0x0 PUSH2 0x32F3 PUSH1 0x20 DUP5 ADD DUP5 PUSH2 0x2187 JUMP JUMPDEST SWAP1 POP SWAP3 SWAP2 POP POP JUMP JUMPDEST PUSH1 0x0 PUSH2 0x330A PUSH1 0x20 DUP5 ADD DUP5 PUSH2 0x21C6 JUMP JUMPDEST SWAP1 POP SWAP3 SWAP2 POP POP JUMP JUMPDEST PUSH1 0x0 DUP1 DUP4 CALLDATALOAD PUSH1 0x1 PUSH1 0x20 SUB DUP5 CALLDATASIZE SUB SUB DUP2 SLT PUSH2 0x332B JUMPI PUSH1 0x0 DUP1 REVERT JUMPDEST DUP4 DUP2 ADD SWAP3 POP DUP3 CALLDATALOAD SWAP2 POP PUSH1 0x20 DUP4 ADD SWAP3 POP PUSH8 0xFFFFFFFFFFFFFFFF DUP3 GT ISZERO PUSH2 0x334F JUMPI PUSH1 0x0 DUP1 REVERT JUMPDEST PUSH1 0x1 DUP3 MUL CALLDATASIZE SUB DUP5 SGT ISZERO PUSH2 0x3361 JUMPI PUSH1 0x0 DUP1 REVERT JUMPDEST POP SWAP3 POP SWAP3 SWAP1 POP JUMP JUMPDEST PUSH1 0x0 PUSH2 0x3378 PUSH1 0x20 DUP5 ADD DUP5 PUSH2 0x2241 JUMP JUMPDEST SWAP1 POP SWAP3 SWAP2 POP POP JUMP JUMPDEST PUSH1 0x0 PUSH2 0x338F PUSH1 0x20 DUP5 ADD DUP5 PUSH2 0x2256 JUMP JUMPDEST SWAP1 POP SWAP3 SWAP2 POP POP JUMP JUMPDEST PUSH1 0x0 PUSH2 0x33A2 DUP3 PUSH2 0x348A JUMP JUMPDEST SWAP2 POP PUSH2 0x33AD DUP4 PUSH2 0x348A JUMP JUMPDEST SWAP3 POP DUP3 PUSH32 0xFFFFFFFFFFFFFFFFFFFFFFFFFFFFFFFFFFFFFFFFFFFFFFFFFFFFFFFFFFFFFFFF SUB DUP3 GT ISZERO PUSH2 0x33E2 JUMPI PUSH2 0x33E1 PUSH2 0x3519 JUMP JUMPDEST JUMPDEST DUP3 DUP3 ADD SWAP1 POP SWAP3 SWAP2 POP POP JUMP JUMPDEST PUSH1 0x0 PUSH2 0x33F8 DUP3 PUSH2 0x348A JUMP JUMPDEST SWAP2 POP PUSH2 0x3403 DUP4 PUSH2 0x348A JUMP JUMPDEST SWAP3 POP DUP3 DUP3 LT ISZERO PUSH2 0x3416 JUMPI PUSH2 0x3415 PUSH2 0x3519 JUMP JUMPDEST JUMPDEST DUP3 DUP3 SUB SWAP1 POP SWAP3 SWAP2 POP POP JUMP JUMPDEST PUSH1 0x0 PUSH2 0x342C DUP3 PUSH2 0x345B JUMP JUMPDEST SWAP1 POP SWAP2 SWAP1 POP JUMP JUMPDEST PUSH1 0x0 PUSH2 0x343E DUP3 PUSH2 0x345B JUMP JUMPDEST SWAP1 POP SWAP2 SWAP1 POP JUMP JUMPDEST PUSH1 0x0 DUP2 ISZERO ISZERO SWAP1 POP SWAP2 SWAP1 POP JUMP JUMPDEST PUSH1 0x0 DUP2 SWAP1 POP SWAP2 SWAP1 POP JUMP JUMPDEST PUSH1 0x0 PUSH20 0xFFFFFFFFFFFFFFFFFFFFFFFFFFFFFFFFFFFFFFFF DUP3 AND SWAP1 POP SWAP2 SWAP1 POP JUMP JUMPDEST PUSH1 0x0 PUSH3 0xFFFFFF DUP3 AND SWAP1 POP SWAP2 SWAP1 POP JUMP JUMPDEST PUSH1 0x0 DUP2 SWAP1 POP SWAP2 SWAP1 POP JUMP JUMPDEST PUSH1 0x0 PUSH1 0xFF DUP3 AND SWAP1 POP SWAP2 SWAP1 POP JUMP JUMPDEST PUSH1 0x0 PUSH2 0x34AC DUP3 PUSH2 0x34B3 JUMP JUMPDEST SWAP1 POP SWAP2 SWAP1 POP JUMP JUMPDEST PUSH1 0x0 PUSH2 0x34BE DUP3 PUSH2 0x34C5 JUMP JUMPDEST SWAP1 POP SWAP2 SWAP1 POP JUMP JUMPDEST PUSH1 0x0 PUSH2 0x34D0 DUP3 PUSH2 0x345B JUMP JUMPDEST SWAP1 POP SWAP2 SWAP1 POP JUMP JUMPDEST DUP3 DUP2 DUP4 CALLDATACOPY PUSH1 0x0 DUP4 DUP4 ADD MSTORE POP POP POP JUMP JUMPDEST PUSH1 0x0 JUMPDEST DUP4 DUP2 LT ISZERO PUSH2 0x3504 JUMPI DUP1 DUP3 ADD MLOAD DUP2 DUP5 ADD MSTORE PUSH1 0x20 DUP2 ADD SWAP1 POP PUSH2 0x34E9 JUMP JUMPDEST DUP4 DUP2 GT ISZERO PUSH2 0x3513 JUMPI PUSH1 0x0 DUP5 DUP5 ADD MSTORE JUMPDEST POP POP POP POP JUMP JUMPDEST PUSH32 0x4E487B7100000000000000000000000000000000000000000000000000000000 PUSH1 0x0 MSTORE PUSH1 0x11 PUSH1 0x4 MSTORE PUSH1 0x24 PUSH1 0x0 REVERT JUMPDEST PUSH1 0x0 PUSH1 0x1F NOT PUSH1 0x1F DUP4 ADD AND SWAP1 POP SWAP2 SWAP1 POP JUMP JUMPDEST PUSH32 0x45434453413A20696E76616C6964207369676E61747572650000000000000000 PUSH1 0x0 DUP3 ADD MSTORE POP JUMP JUMPDEST PUSH32 0x707265706172653A2045524332305F5452414E534645525F4641494C45440000 PUSH1 0x0 DUP3 ADD MSTORE POP JUMP JUMPDEST PUSH32 0x707265706172653A20524F555445525F4D49534D415443480000000000000000 PUSH1 0x0 DUP3 ADD MSTORE POP JUMP JUMPDEST PUSH32 0x707265706172653A2054494D454F55545F544F4F5F4C4F570000000000000000 PUSH1 0x0 DUP3 ADD MSTORE POP JUMP JUMPDEST PUSH32 0x45434453413A20696E76616C6964207369676E6174757265206C656E67746800 PUSH1 0x0 DUP3 ADD MSTORE POP JUMP JUMPDEST PUSH32 0x6164644C69717569646974793A2045524332305F5452414E534645525F464149 PUSH1 0x0 DUP3 ADD MSTORE PUSH32 0x4C45440000000000000000000000000000000000000000000000000000000000 PUSH1 0x20 DUP3 ADD MSTORE POP JUMP JUMPDEST PUSH32 0x707265706172653A20494E56414C49445F434841494E49445300000000000000 PUSH1 0x0 DUP3 ADD MSTORE POP JUMP JUMPDEST PUSH32 0x63616E63656C3A205452414E534645525F4641494C4544000000000000000000 PUSH1 0x0 DUP3 ADD MSTORE POP JUMP JUMPDEST PUSH32 0x4C69624974657261626C654D617070696E673A204449474553545F4E4F545F46 PUSH1 0x0 DUP3 ADD MSTORE PUSH32 0x4F554E4400000000000000000000000000000000000000000000000000000000 PUSH1 0x20 DUP3 ADD MSTORE POP JUMP JUMPDEST PUSH32 0x45434453413A20696E76616C6964207369676E6174757265202773272076616C PUSH1 0x0 DUP3 ADD MSTORE PUSH32 0x7565000000000000000000000000000000000000000000000000000000000000 PUSH1 0x20 DUP3 ADD MSTORE POP JUMP JUMPDEST PUSH32 0x707265706172653A2053414D455F434841494E49445300000000000000000000 PUSH1 0x0 DUP3 ADD MSTORE POP JUMP JUMPDEST PUSH32 0x707265706172653A20494E56414C49445F524543454956494E475F434841494E PUSH1 0x0 DUP3 ADD MSTORE POP JUMP JUMPDEST PUSH32 0x4C69624974657261626C654D617070696E673A20454D5054595F444947455354 PUSH1 0x0 DUP3 ADD MSTORE POP JUMP JUMPDEST PUSH32 0x707265706172653A2056414C55455F4D49534D41544348000000000000000000 PUSH1 0x0 DUP3 ADD MSTORE POP JUMP JUMPDEST PUSH32 0x72656D6F76654C69717569646974793A205452414E534645525F4641494C4544 PUSH1 0x0 DUP3 ADD MSTORE POP JUMP JUMPDEST PUSH32 0x63616E63656C3A20494E56414C49445F45585049525900000000000000000000 PUSH1 0x0 DUP3 ADD MSTORE POP JUMP JUMPDEST PUSH32 0x45434453413A20696E76616C6964207369676E6174757265202776272076616C PUSH1 0x0 DUP3 ADD MSTORE PUSH32 0x7565000000000000000000000000000000000000000000000000000000000000 PUSH1 0x20 DUP3 ADD MSTORE POP JUMP JUMPDEST PUSH32 0x4C696245524332303A204E4F5F434F4445000000000000000000000000000000 PUSH1 0x0 DUP3 ADD MSTORE POP JUMP JUMPDEST PUSH32 0x63616E63656C3A20555345525F4D5553545F43414E43454C0000000000000000 PUSH1 0x0 DUP3 ADD MSTORE POP JUMP JUMPDEST PUSH32 0x707265706172653A204554485F574954485F4552435F5452414E534645520000 PUSH1 0x0 DUP3 ADD MSTORE POP JUMP JUMPDEST PUSH32 0x63616E63656C3A20494E56414C49445F414D4F554E5400000000000000000000 PUSH1 0x0 DUP3 ADD MSTORE POP JUMP JUMPDEST PUSH32 0x72656D6F76654C69717569646974793A20494E53554646494349454E545F4655 PUSH1 0x0 DUP3 ADD MSTORE PUSH32 0x4E44530000000000000000000000000000000000000000000000000000000000 PUSH1 0x20 DUP3 ADD MSTORE POP JUMP JUMPDEST PUSH32 0x6164644C69717569646974793A204554485F574954485F4552435F5452414E53 PUSH1 0x0 DUP3 ADD MSTORE PUSH32 0x4645520000000000000000000000000000000000000000000000000000000000 PUSH1 0x20 DUP3 ADD MSTORE POP JUMP JUMPDEST PUSH32 0x4C69624974657261626C654D617070696E673A204449474553545F414C524541 PUSH1 0x0 DUP3 ADD MSTORE PUSH32 0x44595F4144444544000000000000000000000000000000000000000000000000 PUSH1 0x20 DUP3 ADD MSTORE POP JUMP JUMPDEST PUSH32 0x66756C66696C6C3A20616464206D756C746963616C6C207061747465726E0000 PUSH1 0x0 DUP3 ADD MSTORE POP JUMP JUMPDEST POP JUMP JUMPDEST PUSH32 0x63616E63656C3A20524F555445525F4D5553545F43414E43454C000000000000 PUSH1 0x0 DUP3 ADD MSTORE POP JUMP JUMPDEST PUSH32 0x707265706172653A20494E53554646494349454E545F4C495155494449545900 PUSH1 0x0 DUP3 ADD MSTORE POP JUMP JUMPDEST PUSH32 0x66756C66696C6C3A20494E56414C49445F5349474E4154555245000000000000 PUSH1 0x0 DUP3 ADD MSTORE POP JUMP JUMPDEST PUSH32 0x6164644C69717569646974793A2056414C55455F4D49534D4154434800000000 PUSH1 0x0 DUP3 ADD MSTORE POP JUMP JUMPDEST PUSH32 0x5265656E7472616E637947756172643A207265656E7472616E742063616C6C00 PUSH1 0x0 DUP3 ADD MSTORE POP JUMP JUMPDEST PUSH32 0x66756C66696C6C3A205452414E534645525F4641494C45440000000000000000 PUSH1 0x0 DUP3 ADD MSTORE POP JUMP JUMPDEST PUSH2 0x3B66 DUP2 PUSH2 0x3421 JUMP JUMPDEST DUP2 EQ PUSH2 0x3B71 JUMPI PUSH1 0x0 DUP1 REVERT JUMPDEST POP JUMP JUMPDEST PUSH2 0x3B7D DUP2 PUSH2 0x3433 JUMP JUMPDEST DUP2 EQ PUSH2 0x3B88 JUMPI PUSH1 0x0 DUP1 REVERT JUMPDEST POP JUMP JUMPDEST PUSH2 0x3B94 DUP2 PUSH2 0x3445 JUMP JUMPDEST DUP2 EQ PUSH2 0x3B9F JUMPI PUSH1 0x0 DUP1 REVERT JUMPDEST POP JUMP JUMPDEST PUSH2 0x3BAB DUP2 PUSH2 0x3451 JUMP JUMPDEST DUP2 EQ PUSH2 0x3BB6 JUMPI PUSH1 0x0 DUP1 REVERT JUMPDEST POP JUMP JUMPDEST PUSH2 0x3BC2 DUP2 PUSH2 0x347B JUMP JUMPDEST DUP2 EQ PUSH2 0x3BCD JUMPI PUSH1 0x0 DUP1 REVERT JUMPDEST POP JUMP JUMPDEST PUSH2 0x3BD9 DUP2 PUSH2 0x348A JUMP JUMPDEST DUP2 EQ PUSH2 0x3BE4 JUMPI PUSH1 0x0 DUP1 REVERT JUMPDEST POP JUMP INVALID LOG2 PUSH5 0x6970667358 0x22 SLT KECCAK256 EXTCODESIZE NUMBER CALLDATALOAD 0xCA PUSH18 0xFF1C0B4C1E2BE0F0D368826D387540E2A0FD SMOD LOG4 DIFFICULTY SWAP15 0xDE LT 0xDB SUB PUSH23 0x64736F6C63430008040033000000000000000000000000 "
        },
        "methodIdentifiers": {
          "MIN_TIMEOUT()": "543ad1df",
          "addLiquidity(uint256,address)": "c95f9d0e",
          "cancel((address,address,uint256,address,address,uint24,uint24,address,bytes,bytes32,uint256))": "7c32fba9",
          "chainId()": "9a8a0592",
          "fulfill((address,address,uint256,address,address,uint24,uint24,address,bytes,bytes32,uint256),bytes)": "e9088189",
          "prepare((address,address,uint256,address,address,uint24,uint24,address,bytes,bytes32,uint256))": "c06adaee",
          "removeLiquidity(uint256,address,address)": "f31abcc4",
          "routerBalances(address,address)": "41258b5c"
        }
      }
    }
  }
}