{
  "address": "0x180eb9C86bAFf427B8B91D4e6d61Fb0dD86f1e45",
  "abi": [
    {
      "inputs": [],
      "stateMutability": "nonpayable",
      "type": "constructor"
    },
    {
      "inputs": [],
      "name": "count",
      "outputs": [
        {
          "internalType": "uint256",
          "name": "",
          "type": "uint256"
        }
      ],
      "stateMutability": "view",
      "type": "function"
    },
    {
      "inputs": [],
      "name": "increment",
      "outputs": [],
      "stateMutability": "nonpayable",
      "type": "function"
    },
    {
      "inputs": [
        {
          "internalType": "address",
          "name": "assetId",
          "type": "address"
        },
        {
          "internalType": "address",
          "name": "recipient",
          "type": "address"
        },
        {
          "internalType": "uint256",
          "name": "amount",
          "type": "uint256"
        }
      ],
      "name": "incrementAndSend",
      "outputs": [],
      "stateMutability": "payable",
      "type": "function"
    },
    {
      "inputs": [
        {
          "internalType": "bool",
          "name": "value",
          "type": "bool"
        }
      ],
      "name": "setShouldRevert",
      "outputs": [],
      "stateMutability": "nonpayable",
      "type": "function"
    },
    {
      "inputs": [],
      "name": "shouldRevert",
      "outputs": [
        {
          "internalType": "bool",
          "name": "",
          "type": "bool"
        }
      ],
      "stateMutability": "view",
      "type": "function"
    }
  ],
  "transactionHash": "0xcf0aad9d59d9fa5dcc3d3d94735eee7efa36ecd0790e1f63a02c30807342f164",
  "args": [],
  "solcInputHash": "47e5bc2081b3c8db7749ab44c5ca0b09",
  "bytecode": "0x6080604052600060015534801561001557600080fd5b506000805460ff1916905561080f8061002f6000396000f3fe60806040526004361061004a5760003560e01c806306661abd1461004f5780636813d78714610078578063d09de08a146100a8578063d2eee78a146100bd578063d3072d82146100d0575b600080fd5b34801561005b57600080fd5b5061006560015481565b6040519081526020015b60405180910390f35b34801561008457600080fd5b506100a66100933660046106f1565b6000805460ff1916911515919091179055565b005b3480156100b457600080fd5b506100a66100fa565b6100a66100cb3660046106b6565b61016b565b3480156100dc57600080fd5b506000546100ea9060ff1681565b604051901515815260200161006f565b60005460ff16156101525760405162461bcd60e51b815260206004820152601f60248201527f696e6372656d656e743a2073686f756c6452657665727420697320747275650060448201526064015b60405180910390fd5b60018060008282546101649190610778565b9091555050565b6001600160a01b0383166101d9578034146101d45760405162461bcd60e51b8152602060048201526024808201527f696e6372656d656e74416e6453656e643a20494e56414c49445f4554485f414d60448201526313d5539560e21b6064820152608401610149565b610233565b34156102275760405162461bcd60e51b815260206004820152601e60248201527f696e6372656d656e74416e6453656e643a204554485f574954485f45524300006044820152606401610149565b6102338333308461024b565b61023b6100fa565b61024683838361025d565b505050565b61025784848484610281565b50505050565b6001600160a01b03831615610277576102468383836102ec565b61024682826102f7565b6040516001600160a01b03808516602483015283166044820152606481018290526102579085906323b872dd60e01b906084015b60408051601f198184030181529190526020810180516001600160e01b03166001600160e01b031990931692909217909152610305565b6102468383836103d7565b6103018282610407565b5050565b600061035a826040518060400160405280602081526020017f5361666545524332303a206c6f772d6c6576656c2063616c6c206661696c6564815250856001600160a01b03166105209092919063ffffffff16565b8051909150156102465780806020019051810190610378919061070d565b6102465760405162461bcd60e51b815260206004820152602a60248201527f5361666545524332303a204552433230206f7065726174696f6e20646964206e6044820152691bdd081cdd58d8d9595960b21b6064820152608401610149565b6040516001600160a01b03831660248201526044810182905261024690849063a9059cbb60e01b906064016102b5565b804710156104575760405162461bcd60e51b815260206004820152601d60248201527f416464726573733a20696e73756666696369656e742062616c616e63650000006044820152606401610149565b6000826001600160a01b03168260405160006040518083038185875af1925050503d80600081146104a4576040519150601f19603f3d011682016040523d82523d6000602084013e6104a9565b606091505b50509050806102465760405162461bcd60e51b815260206004820152603a60248201527f416464726573733a20756e61626c6520746f2073656e642076616c75652c207260448201527f6563697069656e74206d617920686176652072657665727465640000000000006064820152608401610149565b606061052f8484600085610539565b90505b9392505050565b60608247101561059a5760405162461bcd60e51b815260206004820152602660248201527f416464726573733a20696e73756666696369656e742062616c616e636520666f6044820152651c8818d85b1b60d21b6064820152608401610149565b843b6105e85760405162461bcd60e51b815260206004820152601d60248201527f416464726573733a2063616c6c20746f206e6f6e2d636f6e74726163740000006044820152606401610149565b600080866001600160a01b031685876040516106049190610729565b60006040518083038185875af1925050503d8060008114610641576040519150601f19603f3d011682016040523d82523d6000602084013e610646565b606091505b5091509150610656828286610661565b979650505050505050565b60608315610670575081610532565b8251156106805782518084602001fd5b8160405162461bcd60e51b81526004016101499190610745565b80356001600160a01b03811681146106b157600080fd5b919050565b6000806000606084860312156106ca578283fd5b6106d38461069a565b92506106e16020850161069a565b9150604084013590509250925092565b600060208284031215610702578081fd5b8135610532816107c8565b60006020828403121561071e578081fd5b8151610532816107c8565b6000825161073b81846020870161079c565b9190910192915050565b602081526000825180602084015261076481604085016020870161079c565b601f01601f19169190910160400192915050565b6000821982111561079757634e487b7160e01b81526011600452602481fd5b500190565b60005b838110156107b757818101518382015260200161079f565b838111156102575750506000910152565b80151581146107d657600080fd5b5056fea264697066735822122032ee1189ac0cd8c35bad6d75b46f415b5eb6685a606702434649d21f5c4c893764736f6c63430008040033",
  "devdoc": {
    "kind": "dev",
    "methods": {},
    "version": 1
  },
  "userdoc": {
    "kind": "user",
    "methods": {},
    "version": 1
  },
  "storageLayout": {
    "storage": [
      {
        "astId": 6411,
        "contract": "contracts/test/Counter.sol:Counter",
        "label": "shouldRevert",
        "offset": 0,
        "slot": "0",
        "type": "t_bool"
      },
      {
        "astId": 6414,
        "contract": "contracts/test/Counter.sol:Counter",
        "label": "count",
        "offset": 0,
        "slot": "1",
        "type": "t_uint256"
      }
    ],
    "types": {
      "t_bool": {
        "encoding": "inplace",
        "label": "bool",
        "numberOfBytes": "1"
      },
      "t_uint256": {
        "encoding": "inplace",
        "label": "uint256",
        "numberOfBytes": "32"
      }
    }
  }
}