{
  "address": "0x702e9fc3fD7C49AC5A87eAD995d23a9c8fA4947B",
  "abi": [
    {
      "inputs": [
        {
          "internalType": "address payable",
          "name": "callTo",
          "type": "address"
        },
        {
          "internalType": "address",
          "name": "assetId",
          "type": "address"
        },
        {
          "internalType": "address payable",
          "name": "fallbackAddress",
          "type": "address"
        },
        {
          "internalType": "uint256",
          "name": "amount",
          "type": "uint256"
        },
        {
          "internalType": "bytes",
          "name": "callData",
          "type": "bytes"
        }
      ],
      "name": "execute",
      "outputs": [],
      "stateMutability": "payable",
      "type": "function"
    }
  ],
  "transactionHash": "0xf7e905a3bbd8c2ab72e5612bebd48156c74b98e1ee4886a61e2cbe32c55e404a",
  "args": [],
  "solcInputHash": "93a7b1bcc38669621dec7556fccfe3cf",
  "bytecode": "0x608060405234801561001057600080fd5b506001600055610891806100256000396000f3fe60806040526004361061001e5760003560e01c80635b5120f714610023575b600080fd5b6100366100313660046106ae565b610038565b005b600260005414156100905760405162461bcd60e51b815260206004820152601f60248201527f5265656e7472616e637947756172643a207265656e7472616e742063616c6c0060448201526064015b60405180910390fd5b60026000556001600160a01b03851615806100b0576100b086888661014f565b6000876001600160a01b0316826100c85760006100ca565b855b85856040516100da929190610794565b60006040518083038185875af1925050503d8060008114610117576040519150601f19603f3d011682016040523d82523d6000602084013e61011c565b606091505b50509050806101405761013087878761015f565b8161014057610140878987610183565b50506001600055505050505050565b61015a83838361018e565b505050565b6001600160a01b038316156101795761015a838383610288565b61015a828261030a565b61015a838383610340565b604051636eb1769f60e11b81523060048201526001600160a01b038381166024830152600091839186169063dd62ed3e9060440160206040518083038186803b1580156101da57600080fd5b505afa1580156101ee573d6000803e3d6000fd5b505050506040513d601f19601f82011682018060405250810190610212919061077c565b61021c91906107f3565b6040516001600160a01b03851660248201526044810182905290915061028290859063095ea7b360e01b906064015b60408051601f198184030181529190526020810180516001600160e01b03166001600160e01b031990931692909217909152610462565b50505050565b60405163a9059cbb60e01b81526001600160a01b0383811660048301526024820183905284169063a9059cbb90604401602060405180830381600087803b1580156102d257600080fd5b505af11580156102e6573d6000803e3d6000fd5b505050506040513d601f19601f82011682018060405250810190610282919061075c565b6040516001600160a01b0383169082156108fc029083906000818181858888f1935050505015801561015a573d6000803e3d6000fd5b604051636eb1769f60e11b81523060048201526001600160a01b0383811660248301526000919085169063dd62ed3e9060440160206040518083038186803b15801561038b57600080fd5b505afa15801561039f573d6000803e3d6000fd5b505050506040513d601f19601f820116820180604052508101906103c3919061077c565b9050818110156104275760405162461bcd60e51b815260206004820152602960248201527f5361666545524332303a2064656372656173656420616c6c6f77616e63652062604482015268656c6f77207a65726f60b81b6064820152608401610087565b6040516001600160a01b0384166024820152828203604482018190529061045b90869063095ea7b360e01b9060640161024b565b5050505050565b60006104b7826040518060400160405280602081526020017f5361666545524332303a206c6f772d6c6576656c2063616c6c206661696c6564815250856001600160a01b03166105349092919063ffffffff16565b80519091501561015a57808060200190518101906104d5919061075c565b61015a5760405162461bcd60e51b815260206004820152602a60248201527f5361666545524332303a204552433230206f7065726174696f6e20646964206e6044820152691bdd081cdd58d8d9595960b21b6064820152608401610087565b6060610543848460008561054d565b90505b9392505050565b6060824710156105ae5760405162461bcd60e51b815260206004820152602660248201527f416464726573733a20696e73756666696369656e742062616c616e636520666f6044820152651c8818d85b1b60d21b6064820152608401610087565b843b6105fc5760405162461bcd60e51b815260206004820152601d60248201527f416464726573733a2063616c6c20746f206e6f6e2d636f6e74726163740000006044820152606401610087565b600080866001600160a01b0316858760405161061891906107a4565b60006040518083038185875af1925050503d8060008114610655576040519150601f19603f3d011682016040523d82523d6000602084013e61065a565b606091505b509150915061066a828286610675565b979650505050505050565b60608315610684575081610546565b8251156106945782518084602001fd5b8160405162461bcd60e51b815260040161008791906107c0565b60008060008060008060a087890312156106c6578182fd5b86356106d181610843565b955060208701356106e181610843565b945060408701356106f181610843565b935060608701359250608087013567ffffffffffffffff80821115610714578384fd5b818901915089601f830112610727578384fd5b813581811115610735578485fd5b8a6020828501011115610746578485fd5b6020830194508093505050509295509295509295565b60006020828403121561076d578081fd5b81518015158114610546578182fd5b60006020828403121561078d578081fd5b5051919050565b8183823760009101908152919050565b600082516107b6818460208701610817565b9190910192915050565b60208152600082518060208401526107df816040850160208701610817565b601f01601f19169190910160400192915050565b6000821982111561081257634e487b7160e01b81526011600452602481fd5b500190565b60005b8381101561083257818101518382015260200161081a565b838111156102825750506000910152565b6001600160a01b038116811461085857600080fd5b5056fea26469706673582212209e881c2a1ef36fe24475c4695c30514718f8c2fc4d8e595f4c707cad76e3e65864736f6c63430008040033",
  "devdoc": {
    "kind": "dev",
    "methods": {},
    "version": 1
  },
  "userdoc": {
    "kind": "user",
    "methods": {},
    "version": 1
  },
  "storageLayout": {
    "storage": [
      {
        "astId": 114,
        "contract": "contracts/interpreters/FulfillInterpreter.sol:FulfillInterpreter",
        "label": "_status",
        "offset": 0,
        "slot": "0",
        "type": "t_uint256"
      }
    ],
    "types": {
      "t_uint256": {
        "encoding": "inplace",
        "label": "uint256",
        "numberOfBytes": "32"
      }
    }
  }
}