{
  "address": "0xf2aBf640AdFBc79BA6037Dc16d1aadC12C314086",
  "abi": [
    {
      "inputs": [
        {
          "internalType": "address",
          "name": "_transactionManager",
          "type": "address"
        },
        {
          "internalType": "uint256",
          "name": "_chainId",
          "type": "uint256"
        }
      ],
      "stateMutability": "nonpayable",
      "type": "constructor"
    },
    {
      "anonymous": false,
      "inputs": [
        {
          "indexed": true,
          "internalType": "address",
          "name": "previousOwner",
          "type": "address"
        },
        {
          "indexed": true,
          "internalType": "address",
          "name": "newOwner",
          "type": "address"
        }
      ],
      "name": "OwnershipTransferred",
      "type": "event"
    },
    {
      "anonymous": false,
      "inputs": [
        {
          "indexed": false,
          "internalType": "address",
          "name": "router",
          "type": "address"
        },
        {
          "indexed": false,
          "internalType": "address",
          "name": "routerSigner",
          "type": "address"
        },
        {
          "indexed": false,
          "internalType": "address",
          "name": "recipient",
          "type": "address"
        },
        {
          "indexed": false,
          "internalType": "address",
          "name": "transactionManager",
          "type": "address"
        }
      ],
      "name": "RouterCreated",
      "type": "event"
    },
    {
      "inputs": [
        {
          "internalType": "address",
          "name": "routerSigner",
          "type": "address"
        },
        {
          "internalType": "address",
          "name": "recipient",
          "type": "address"
        }
      ],
      "name": "createRouter",
      "outputs": [
        {
          "internalType": "address",
          "name": "",
          "type": "address"
        }
      ],
      "stateMutability": "nonpayable",
      "type": "function"
    },
    {
      "inputs": [
        {
          "internalType": "address",
          "name": "routerSigner",
          "type": "address"
        },
        {
          "internalType": "address",
          "name": "recipient",
          "type": "address"
        },
        {
          "internalType": "address",
          "name": "owner",
          "type": "address"
        }
      ],
      "name": "getRouterAddress",
      "outputs": [
        {
          "internalType": "address",
          "name": "",
          "type": "address"
        }
      ],
      "stateMutability": "view",
      "type": "function"
    },
    {
      "inputs": [],
      "name": "owner",
      "outputs": [
        {
          "internalType": "address",
          "name": "",
          "type": "address"
        }
      ],
      "stateMutability": "view",
      "type": "function"
    },
    {
      "inputs": [],
      "name": "renounceOwnership",
      "outputs": [],
      "stateMutability": "nonpayable",
      "type": "function"
    },
    {
      "inputs": [
        {
          "internalType": "address",
          "name": "",
          "type": "address"
        }
      ],
      "name": "routerAddresses",
      "outputs": [
        {
          "internalType": "address",
          "name": "",
          "type": "address"
        }
      ],
      "stateMutability": "view",
      "type": "function"
    },
    {
      "inputs": [
        {
          "internalType": "address",
          "name": "_transactionManager",
          "type": "address"
        }
      ],
      "name": "setTransactionManager",
      "outputs": [],
      "stateMutability": "nonpayable",
      "type": "function"
    },
    {
      "inputs": [],
      "name": "transactionManager",
      "outputs": [
        {
          "internalType": "contract ITransactionManager",
          "name": "",
          "type": "address"
        }
      ],
      "stateMutability": "view",
      "type": "function"
    },
    {
      "inputs": [
        {
          "internalType": "address",
          "name": "newOwner",
          "type": "address"
        }
      ],
      "name": "transferOwnership",
      "outputs": [],
      "stateMutability": "nonpayable",
      "type": "function"
    }
  ],
  "transactionHash": "0xf494bddd5f508c0bd149825fc62fdff2ca988b7af2e8bff9779de74c39a391b6",
  "args": [
    "0xb6cb4893F7e27aDF1bdda1d283A6b344A1F57D58",
    "5"
  ],
  "solcInputHash": "f20367e174712413a9398d83a8d17423",
  "bytecode": "0x60a060405234801561001057600080fd5b5060405161212938038061212983398101604081905261002f916100b0565b61003833610060565b608052600180546001600160a01b0319166001600160a01b03929092169190911790556100e8565b600080546001600160a01b038381166001600160a01b0319831681178455604051919092169283917f8be0079c531659141344cd1fd0a4f28419497f9722a3daafe3b4186f6b6457e09190a35050565b600080604083850312156100c2578182fd5b82516001600160a01b03811681146100d8578283fd5b6020939093015192949293505050565b608051612026610103600039600061024701526120266000f3fe608060405234801561001057600080fd5b50600436106100885760003560e01c8063715018a61161005b578063715018a61461010d5780637f629efc146101155780638da5cb5b14610128578063f2fde38b1461013957600080fd5b80630b1fa61c1461008d5780631f16a046146100a257806334b8f443146100e75780633b716452146100fa575b600080fd5b6100a061009b36600461066d565b61014c565b005b6100cb6100b036600461066d565b6002602052600090815260409020546001600160a01b031681565b6040516001600160a01b03909116815260200160405180910390f35b6100cb6100f53660046106b9565b6101a1565b6001546100cb906001600160a01b031681565b6100a06101ce565b6100cb610123366004610687565b610204565b6000546001600160a01b03166100cb565b6100a061014736600461066d565b610330565b6000546001600160a01b0316331461017f5760405162461bcd60e51b815260040161017690610749565b60405180910390fd5b600180546001600160a01b0319166001600160a01b0392909216919091179055565b60006101c66101af856103cb565b6101ba86868661040a565b80519060200120610493565b949350505050565b6000546001600160a01b031633146101f85760405162461bcd60e51b815260040161017690610749565b61020260006104f2565b565b6000806102256000610215866103cb565b61022087873361040a565b610542565b600154604051630e66b9c960e21b81526001600160a01b0391821660048201527f0000000000000000000000000000000000000000000000000000000000000000602482015291925082169063399ae72490604401600060405180830381600087803b15801561029457600080fd5b505af11580156102a8573d6000803e3d6000fd5b505050506001600160a01b0384811660008181526002602090815260409182902080548686166001600160a01b0319909116811790915560015483519182529181019390935286841683830152909216606082015290517fe8e811674d167b407a67a22f592a226ade5e34b608e7d56721f82422f3b981979181900360800190a19392505050565b6000546001600160a01b0316331461035a5760405162461bcd60e51b815260040161017690610749565b6001600160a01b0381166103bf5760405162461bcd60e51b815260206004820152602660248201527f4f776e61626c653a206e6577206f776e657220697320746865207a65726f206160448201526564647265737360d01b6064820152608401610176565b6103c8816104f2565b50565b6040516bffffffffffffffffffffffff19606083901b166020820152600090603401604051602081830303815290604052805190602001209050919050565b606060006040518060200161041e90610644565b601f1982820381018352601f9091011660408181526001600160a01b0380891660208401528088169183019190915285166060820152909150819060800160408051601f198184030181529082905261047a9291602001610734565b6040516020818303038152906040529150509392505050565b604080516001600160f81b03196020808301919091526bffffffffffffffffffffffff193060601b16602183015260358201859052605580830185905283518084039091018152607590920190925280519101206000905b9392505050565b600080546001600160a01b038381166001600160a01b0319831681178455604051919092169283917f8be0079c531659141344cd1fd0a4f28419497f9722a3daafe3b4186f6b6457e09190a35050565b600080844710156105955760405162461bcd60e51b815260206004820152601d60248201527f437265617465323a20696e73756666696369656e742062616c616e63650000006044820152606401610176565b82516105e35760405162461bcd60e51b815260206004820181905260248201527f437265617465323a2062797465636f6465206c656e677468206973207a65726f6044820152606401610176565b8383516020850187f590506001600160a01b0381166101c65760405162461bcd60e51b815260206004820152601960248201527f437265617465323a204661696c6564206f6e206465706c6f79000000000000006044820152606401610176565b6118728061077f83390190565b80356001600160a01b038116811461066857600080fd5b919050565b60006020828403121561067e578081fd5b6104eb82610651565b60008060408385031215610699578081fd5b6106a283610651565b91506106b060208401610651565b90509250929050565b6000806000606084860312156106cd578081fd5b6106d684610651565b92506106e460208501610651565b91506106f260408501610651565b90509250925092565b60008151815b8181101561071b5760208185018101518683015201610701565b818111156107295782828601525b509290920192915050565b60006101c661074383866106fb565b846106fb565b6020808252818101527f4f776e61626c653a2063616c6c6572206973206e6f7420746865206f776e657260408201526060019056fe60a06040523480156200001157600080fd5b5060405162001872380380620018728339810160408190526200003491620001cc565b6200003f336200008a565b3360601b608052600480546001600160a01b038581166001600160a01b03199283161790925560038054928516929091169190911790556200008181620000da565b50505062000215565b600080546001600160a01b038381166001600160a01b0319831681178455604051919092169283917f8be0079c531659141344cd1fd0a4f28419497f9722a3daafe3b4186f6b6457e09190a35050565b6000546001600160a01b031633146200013a5760405162461bcd60e51b815260206004820181905260248201527f4f776e61626c653a2063616c6c6572206973206e6f7420746865206f776e657260448201526064015b60405180910390fd5b6001600160a01b038116620001a15760405162461bcd60e51b815260206004820152602660248201527f4f776e61626c653a206e6577206f776e657220697320746865207a65726f206160448201526564647265737360d01b606482015260840162000131565b620001ac816200008a565b50565b80516001600160a01b0381168114620001c757600080fd5b919050565b600080600060608486031215620001e1578283fd5b620001ec84620001af565b9250620001fc60208501620001af565b91506200020c60408501620001af565b90509250925092565b60805160601c6116376200023b6000396000818161019301526102d301526116376000f3fe6080604052600436106100dd5760003560e01c8063715018a61161007f578063c48bf4a611610059578063c48bf4a614610255578063d2baa16814610275578063d4132a0b14610288578063f2fde38b146102a857600080fd5b8063715018a6146101f55780638da5cb5b1461020a5780639da42bac1461022857600080fd5b80633bbed4a0116100bb5780633bbed4a0146101615780634ba514371461018157806366d003ac146101b55780636c19e783146101d557600080fd5b80633411dbdc146100e2578063399ae7241461011f5780633b71645214610141575b600080fd5b3480156100ee57600080fd5b50600454610102906001600160a01b031681565b6040516001600160a01b0390911681526020015b60405180910390f35b34801561012b57600080fd5b5061013f61013a366004610d05565b6102c8565b005b34801561014d57600080fd5b50600154610102906001600160a01b031681565b34801561016d57600080fd5b5061013f61017c366004610ce2565b61035e565b34801561018d57600080fd5b506101027f000000000000000000000000000000000000000000000000000000000000000081565b3480156101c157600080fd5b50600354610102906001600160a01b031681565b3480156101e157600080fd5b5061013f6101f0366004610ce2565b6103aa565b34801561020157600080fd5b5061013f6103f6565b34801561021657600080fd5b506000546001600160a01b0316610102565b34801561023457600080fd5b50610248610243366004610d9e565b61042c565b6040516101169190611438565b34801561026157600080fd5b50610248610270366004610d30565b61052f565b610248610283366004610df2565b6105c1565b34801561029457600080fd5b5061013f6102a3366004610f35565b6106d1565b3480156102b457600080fd5b5061013f6102c3366004610ce2565b6107f5565b336001600160a01b037f000000000000000000000000000000000000000000000000000000000000000016146103385760405162461bcd60e51b815260206004820152601060248201526f4f4e4c595f5649415f464143544f525960801b60448201526064015b60405180910390fd5b600180546001600160a01b0319166001600160a01b039390931692909217909155600255565b6000546001600160a01b031633146103885760405162461bcd60e51b815260040161032f90611128565b600380546001600160a01b0319166001600160a01b0392909216919091179055565b6000546001600160a01b031633146103d45760405162461bcd60e51b815260040161032f90611128565b600480546001600160a01b0319166001600160a01b0392909216919091179055565b6000546001600160a01b031633146104205760405162461bcd60e51b815260040161032f90611128565b61042a6000610890565b565b610434610bfc565b6004546001600160a01b031633146104a45760006104728560405160200161045c91906111cb565b60405160208183030381529060405285856108e0565b6004549091506001600160a01b038083169116146104a25760405162461bcd60e51b815260040161032f906110f1565b505b6001546040516301362a3560e71b81526001600160a01b0390911690639b151a80906104d49087906004016111cb565b61020060405180830381600087803b1580156104ef57600080fd5b505af1158015610503573d6000803e3d6000fd5b505050506040513d601f19601f820116820180604052508101906105279190610e31565b949350505050565b610537610bfc565b6004546001600160a01b0316331461059157600061055f8560405160200161045c919061115d565b6004549091506001600160a01b0380831691161461058f5760405162461bcd60e51b815260040161032f906110f1565b505b600154604051635f48d15d60e11b81526001600160a01b039091169063be91a2ba906104d490879060040161115d565b6105c9610bfc565b6004546001600160a01b031633146106235760006105f18560405160200161045c9190611267565b6004549091506001600160a01b038083169116146106215760405162461bcd60e51b815260040161032f906110f1565b505b6001546001600160a01b031663d945937261065461064760a0880160808901610ce2565b6001600160a01b03161590565b61065f576000610661565b345b866040518363ffffffff1660e01b815260040161067e9190611267565b610200604051808303818588803b15801561069857600080fd5b505af11580156106ac573d6000803e3d6000fd5b50505050506040513d601f19601f820116820180604052508101906105279190610e31565b6004546001600160a01b0316331461077f5760408051608080820183528682526001600160a01b0386811660208085019182526002548587019081526004548416606080880191825288519384018d905293518516978301979097525191810191909152935116908301529060009061074c9060a00161045c565b6004549091506001600160a01b0380831691161461077c5760405162461bcd60e51b815260040161032f906110f1565b50505b600154600354604051633cc6af3160e21b8152600481018790526001600160a01b038681166024830152918216604482015291169063f31abcc490606401600060405180830381600087803b1580156107d757600080fd5b505af11580156107eb573d6000803e3d6000fd5b5050505050505050565b6000546001600160a01b0316331461081f5760405162461bcd60e51b815260040161032f90611128565b6001600160a01b0381166108845760405162461bcd60e51b815260206004820152602660248201527f4f776e61626c653a206e6577206f776e657220697320746865207a65726f206160448201526564647265737360d01b606482015260840161032f565b61088d81610890565b50565b600080546001600160a01b038381166001600160a01b0319831681178455604051919092169283917f8be0079c531659141344cd1fd0a4f28419497f9722a3daafe3b4186f6b6457e09190a35050565b600061052761094385805190602001206040517f19457468657265756d205369676e6564204d6573736167653a0a3332000000006020820152603c8101829052600090605c01604051602081830303815290604052805190602001209050919050565b84848080601f01602080910402602001604051908101604052809392919081815260200183838082843760009201919091525061097f92505050565b60008151604114156109b35760208201516040830151606084015160001a6109a986828585610a29565b9350505050610a23565b8151604014156109db57602082015160408301516109d2858383610bd2565b92505050610a23565b60405162461bcd60e51b815260206004820152601f60248201527f45434453413a20696e76616c6964207369676e6174757265206c656e67746800604482015260640161032f565b92915050565b60007f7fffffffffffffffffffffffffffffff5d576e7357a4501ddfe92f46681b20a0821115610aa65760405162461bcd60e51b815260206004820152602260248201527f45434453413a20696e76616c6964207369676e6174757265202773272076616c604482015261756560f01b606482015260840161032f565b8360ff16601b1480610abb57508360ff16601c145b610b125760405162461bcd60e51b815260206004820152602260248201527f45434453413a20696e76616c6964207369676e6174757265202776272076616c604482015261756560f01b606482015260840161032f565b6040805160008082526020820180845288905260ff871692820192909252606081018590526080810184905260019060a0016020604051602081039080840390855afa158015610b66573d6000803e3d6000fd5b5050604051601f1901519150506001600160a01b038116610bc95760405162461bcd60e51b815260206004820152601860248201527f45434453413a20696e76616c6964207369676e61747572650000000000000000604482015260640161032f565b95945050505050565b60006001600160ff1b03821660ff83901c601b01610bf286828785610a29565b9695505050505050565b6040805161020081018252600080825260208201819052918101829052606081018290526080810182905260a0810182905260c0810182905260e08101829052610100810182905261012081018290526101408101829052610160810182905261018081018290526101a081018290526101c081018290526101e081019190915290565b8035610c8b816115ec565b919050565b8051610c8b816115ec565b60008083601f840112610cac578182fd5b50813567ffffffffffffffff811115610cc3578182fd5b602083019150836020828501011115610cdb57600080fd5b9250929050565b600060208284031215610cf3578081fd5b8135610cfe816115ec565b9392505050565b60008060408385031215610d17578081fd5b8235610d22816115ec565b946020939093013593505050565b600080600060408486031215610d44578081fd5b833567ffffffffffffffff80821115610d5b578283fd5b908501906102408288031215610d6f578283fd5b90935060208501359080821115610d84578283fd5b50610d9186828701610c9b565b9497909650939450505050565b600080600060408486031215610db2578283fd5b833567ffffffffffffffff80821115610dc9578485fd5b908501906102808288031215610ddd578485fd5b90935060208501359080821115610d84578384fd5b600080600060408486031215610e06578283fd5b833567ffffffffffffffff80821115610e1d578485fd5b908501906102608288031215610ddd578485fd5b60006102008284031215610e43578081fd5b610e4b61156f565b610e5483610c90565b8152610e6260208401610c90565b6020820152610e7360408401610c90565b6040820152610e8460608401610c90565b6060820152610e9560808401610c90565b6080820152610ea660a08401610c90565b60a0820152610eb760c08401610c90565b60c0820152610ec860e08401610c90565b60e0820152610100610edb818501610c90565b9082015261012083810151908201526101408084015190820152610160808401519082015261018080840151908201526101a080840151908201526101c080840151908201526101e0928301519281019290925250919050565b60008060008060608587031215610f4a578081fd5b843593506020850135610f5c816115ec565b9250604085013567ffffffffffffffff811115610f77578182fd5b610f8387828801610c9b565b95989497509550505050565b81835281816020850137506000828201602090810191909152601f909101601f19169091010190565b610fd282610fc583610c80565b6001600160a01b03169052565b610fde60208201610c80565b6001600160a01b03166020830152610ff860408201610c80565b6001600160a01b0316604083015261101260608201610c80565b6001600160a01b0316606083015261102c60808201610c80565b6001600160a01b0316608083015261104660a08201610c80565b6001600160a01b031660a083015261106060c08201610c80565b6001600160a01b031660c083015261107a60e08201610c80565b6001600160a01b031660e0830152610100611096828201610c80565b6001600160a01b03169083015261012081810135908301526101408082013590830152610160808201359083015261018080820135908301526101a080820135908301526101c080820135908301526101e090810135910152565b6020808252601d908201527f526f75746572207369676e6174757265206973206e6f742076616c6964000000604082015260600190565b6020808252818101527f4f776e61626c653a2063616c6c6572206973206e6f7420746865206f776e6572604082015260600190565b6020815261116e6020820183610fb8565b600061117e6102008401846115a7565b610240610220818187015261119861026087018486610f8f565b93506111a6818801886115a7565b878603601f190184890152935090506111c0848483610f8f565b979650505050505050565b602081526111dc6020820183610fb8565b6000610220610200840135818401526111f7818501856115a7565b915061028061024081818701526112136102a087018585610f8f565b9350611221818801886115a7565b93509050601f1961026081888703018189015261123f868685610f8f565b955061124d818a018a6115a7565b9550925050808786030183880152506111c0848483610f8f565b6020815261127b60208201610fc584610c80565b600061128960208401610c80565b6001600160a01b0381166040840152506112a560408401610c80565b6001600160a01b0381166060840152506112c160608401610c80565b6001600160a01b0381166080840152506112dd60808401610c80565b6001600160a01b03811660a0840152506112f960a08401610c80565b6001600160a01b03811660c08401525061131560c08401610c80565b6001600160a01b03811660e08401525061133160e08401610c80565b610100611348818501836001600160a01b03169052565b611353818601610c80565b91505061012061136d818501836001600160a01b03169052565b6101409150808501358285015250610160818501358185015261018091508085013582850152506101a081850135818501526101c091508085013582850152506101e081850135818501526113c4818601866115a7565b9250905061026061020081818701526113e261028087018585610f8f565b93506113f0818801886115a7565b93509050601f1961022081888703018189015261140e868685610f8f565b955061141c818a018a6115a7565b955092505061024081888703018189015261123f868685610f8f565b81516001600160a01b031681526102008101602083015161146460208401826001600160a01b03169052565b50604083015161147f60408401826001600160a01b03169052565b50606083015161149a60608401826001600160a01b03169052565b5060808301516114b560808401826001600160a01b03169052565b5060a08301516114d060a08401826001600160a01b03169052565b5060c08301516114eb60c08401826001600160a01b03169052565b5060e083015161150660e08401826001600160a01b03169052565b50610100838101516001600160a01b03169083015261012080840151908301526101408084015190830152610160808401519083015261018080840151908301526101a080840151908301526101c080840151908301526101e092830151929091019190915290565b604051610200810167ffffffffffffffff811182821017156115a157634e487b7160e01b600052604160045260246000fd5b60405290565b6000808335601e198436030181126115bd578283fd5b830160208101925035905067ffffffffffffffff8111156115dd57600080fd5b803603831315610cdb57600080fd5b6001600160a01b038116811461088d57600080fdfea26469706673582212204203e7b4269c71bc40d9ed62d77e6a9bd607b6df86304fc35496b286546c2f4664736f6c63430008040033a26469706673582212205a6e60ad75cdbd78abce0cc0599ed683b82d29c02940e37de52636996a48205164736f6c63430008040033",
  "devdoc": {
    "kind": "dev",
    "methods": {
      "createRouter(address,address)": {
        "params": {
          "recipient": "address recipient",
          "routerSigner": "address router signer"
        }
      },
      "getRouterAddress(address,address,address)": {
        "params": {
          "recipient": "address recipient",
          "routerSigner": "address router signer"
        }
      },
      "owner()": {
        "details": "Returns the address of the current owner."
      },
      "renounceOwnership()": {
        "details": "Leaves the contract without owner. It will not be possible to call `onlyOwner` functions anymore. Can only be called by the current owner. NOTE: Renouncing ownership will leave the contract without an owner, thereby removing any functionality that is only available to the owner."
      },
      "transferOwnership(address)": {
        "details": "Transfers ownership of the contract to a new account (`newOwner`). Can only be called by the current owner."
      }
    },
    "stateVariables": {
      "chainId": {
        "details": "The stored chain id of the contract, may be passed in to avoid any      evm issues"
      },
      "routerAddresses": {
        "details": "Mapping of routerSigner to created Router contract address"
      },
      "transactionManager": {
        "details": "The transaction Manager contract"
      }
    },
    "version": 1
  },
  "userdoc": {
    "kind": "user",
    "methods": {
      "createRouter(address,address)": {
        "notice": "Allows us to create new router contract"
      },
      "getRouterAddress(address,address,address)": {
        "notice": "Allows us to get the address for a new router contract created via `createRouter`"
      }
    },
    "version": 1
  },
  "storageLayout": {
    "storage": [
      {
        "astId": 7,
        "contract": "contracts/RouterFactory.sol:RouterFactory",
        "label": "_owner",
        "offset": 0,
        "slot": "0",
        "type": "t_address"
      },
      {
        "astId": 3368,
        "contract": "contracts/RouterFactory.sol:RouterFactory",
        "label": "transactionManager",
        "offset": 0,
        "slot": "1",
        "type": "t_contract(ITransactionManager)5668"
      },
      {
        "astId": 3373,
        "contract": "contracts/RouterFactory.sol:RouterFactory",
        "label": "routerAddresses",
        "offset": 0,
        "slot": "2",
        "type": "t_mapping(t_address,t_address)"
      }
    ],
    "types": {
      "t_address": {
        "encoding": "inplace",
        "label": "address",
        "numberOfBytes": "20"
      },
      "t_contract(ITransactionManager)5668": {
        "encoding": "inplace",
        "label": "contract ITransactionManager",
        "numberOfBytes": "20"
      },
      "t_mapping(t_address,t_address)": {
        "encoding": "mapping",
        "key": "t_address",
        "label": "mapping(address => address)",
        "numberOfBytes": "32",
        "value": "t_address"
      }
    }
  }
}