{
  "address": "0x096536a5664e2A68875ce422DE9E6b57C77B09C9",
  "abi": [
    {
      "inputs": [
        {
          "internalType": "uint256",
          "name": "_chainId",
          "type": "uint256"
        }
      ],
      "stateMutability": "nonpayable",
      "type": "constructor"
    },
    {
      "anonymous": false,
      "inputs": [
        {
          "indexed": true,
          "internalType": "address",
          "name": "addedAssetId",
          "type": "address"
        },
        {
          "indexed": true,
          "internalType": "address",
          "name": "caller",
          "type": "address"
        }
      ],
      "name": "AssetAdded",
      "type": "event"
    },
    {
      "anonymous": false,
      "inputs": [
        {
          "indexed": false,
          "internalType": "bool",
          "name": "renounced",
          "type": "bool"
        }
      ],
      "name": "AssetOwnershipRenounced",
      "type": "event"
    },
    {
      "anonymous": false,
      "inputs": [
        {
          "indexed": false,
          "internalType": "uint256",
          "name": "timestamp",
          "type": "uint256"
        }
      ],
      "name": "AssetOwnershipRenunciationProposed",
      "type": "event"
    },
    {
      "anonymous": false,
      "inputs": [
        {
          "indexed": true,
          "internalType": "address",
          "name": "removedAssetId",
          "type": "address"
        },
        {
          "indexed": true,
          "internalType": "address",
          "name": "caller",
          "type": "address"
        }
      ],
      "name": "AssetRemoved",
      "type": "event"
    },
    {
      "anonymous": false,
      "inputs": [
        {
          "indexed": true,
          "internalType": "address",
          "name": "router",
          "type": "address"
        },
        {
          "indexed": true,
          "internalType": "address",
          "name": "assetId",
          "type": "address"
        },
        {
          "indexed": false,
          "internalType": "uint256",
          "name": "amount",
          "type": "uint256"
        },
        {
          "indexed": false,
          "internalType": "address",
          "name": "caller",
          "type": "address"
        }
      ],
      "name": "LiquidityAdded",
      "type": "event"
    },
    {
      "anonymous": false,
      "inputs": [
        {
          "indexed": true,
          "internalType": "address",
          "name": "router",
          "type": "address"
        },
        {
          "indexed": true,
          "internalType": "address",
          "name": "assetId",
          "type": "address"
        },
        {
          "indexed": false,
          "internalType": "uint256",
          "name": "amount",
          "type": "uint256"
        },
        {
          "indexed": false,
          "internalType": "address",
          "name": "recipient",
          "type": "address"
        }
      ],
      "name": "LiquidityRemoved",
      "type": "event"
    },
    {
      "anonymous": false,
      "inputs": [
        {
          "indexed": true,
          "internalType": "address",
          "name": "proposedOwner",
          "type": "address"
        }
      ],
      "name": "OwnershipProposed",
      "type": "event"
    },
    {
      "anonymous": false,
      "inputs": [
        {
          "indexed": true,
          "internalType": "address",
          "name": "previousOwner",
          "type": "address"
        },
        {
          "indexed": true,
          "internalType": "address",
          "name": "newOwner",
          "type": "address"
        }
      ],
      "name": "OwnershipTransferred",
      "type": "event"
    },
    {
      "anonymous": false,
      "inputs": [
        {
          "indexed": true,
          "internalType": "address",
          "name": "addedRouter",
          "type": "address"
        },
        {
          "indexed": true,
          "internalType": "address",
          "name": "caller",
          "type": "address"
        }
      ],
      "name": "RouterAdded",
      "type": "event"
    },
    {
      "anonymous": false,
      "inputs": [
        {
          "indexed": false,
          "internalType": "bool",
          "name": "renounced",
          "type": "bool"
        }
      ],
      "name": "RouterOwnershipRenounced",
      "type": "event"
    },
    {
      "anonymous": false,
      "inputs": [
        {
          "indexed": false,
          "internalType": "uint256",
          "name": "timestamp",
          "type": "uint256"
        }
      ],
      "name": "RouterOwnershipRenunciationProposed",
      "type": "event"
    },
    {
      "anonymous": false,
      "inputs": [
        {
          "indexed": true,
          "internalType": "address",
          "name": "removedRouter",
          "type": "address"
        },
        {
          "indexed": true,
          "internalType": "address",
          "name": "caller",
          "type": "address"
        }
      ],
      "name": "RouterRemoved",
      "type": "event"
    },
    {
      "anonymous": false,
      "inputs": [
        {
          "indexed": true,
          "internalType": "address",
          "name": "user",
          "type": "address"
        },
        {
          "indexed": true,
          "internalType": "address",
          "name": "router",
          "type": "address"
        },
        {
          "indexed": true,
          "internalType": "bytes32",
          "name": "transactionId",
          "type": "bytes32"
        },
        {
          "components": [
            {
              "internalType": "address",
              "name": "receivingChainTxManagerAddress",
              "type": "address"
            },
            {
              "internalType": "address",
              "name": "user",
              "type": "address"
            },
            {
              "internalType": "address",
              "name": "router",
              "type": "address"
            },
            {
              "internalType": "address",
              "name": "initiator",
              "type": "address"
            },
            {
              "internalType": "address",
              "name": "sendingAssetId",
              "type": "address"
            },
            {
              "internalType": "address",
              "name": "receivingAssetId",
              "type": "address"
            },
            {
              "internalType": "address",
              "name": "sendingChainFallback",
              "type": "address"
            },
            {
              "internalType": "address",
              "name": "receivingAddress",
              "type": "address"
            },
            {
              "internalType": "address",
              "name": "callTo",
              "type": "address"
            },
            {
              "internalType": "bytes32",
              "name": "callDataHash",
              "type": "bytes32"
            },
            {
              "internalType": "bytes32",
              "name": "transactionId",
              "type": "bytes32"
            },
            {
              "internalType": "uint256",
              "name": "sendingChainId",
              "type": "uint256"
            },
            {
              "internalType": "uint256",
              "name": "receivingChainId",
              "type": "uint256"
            },
            {
              "internalType": "uint256",
              "name": "amount",
              "type": "uint256"
            },
            {
              "internalType": "uint256",
              "name": "expiry",
              "type": "uint256"
            },
            {
              "internalType": "uint256",
              "name": "preparedBlockNumber",
              "type": "uint256"
            }
          ],
          "indexed": false,
          "internalType": "struct ITransactionManager.TransactionData",
          "name": "txData",
          "type": "tuple"
        },
        {
          "indexed": false,
          "internalType": "address",
          "name": "caller",
          "type": "address"
        }
      ],
      "name": "TransactionCancelled",
      "type": "event"
    },
    {
      "anonymous": false,
      "inputs": [
        {
          "indexed": true,
          "internalType": "address",
          "name": "user",
          "type": "address"
        },
        {
          "indexed": true,
          "internalType": "address",
          "name": "router",
          "type": "address"
        },
        {
          "indexed": true,
          "internalType": "bytes32",
          "name": "transactionId",
          "type": "bytes32"
        },
        {
          "components": [
            {
              "internalType": "address",
              "name": "receivingChainTxManagerAddress",
              "type": "address"
            },
            {
              "internalType": "address",
              "name": "user",
              "type": "address"
            },
            {
              "internalType": "address",
              "name": "router",
              "type": "address"
            },
            {
              "internalType": "address",
              "name": "initiator",
              "type": "address"
            },
            {
              "internalType": "address",
              "name": "sendingAssetId",
              "type": "address"
            },
            {
              "internalType": "address",
              "name": "receivingAssetId",
              "type": "address"
            },
            {
              "internalType": "address",
              "name": "sendingChainFallback",
              "type": "address"
            },
            {
              "internalType": "address",
              "name": "receivingAddress",
              "type": "address"
            },
            {
              "internalType": "address",
              "name": "callTo",
              "type": "address"
            },
            {
              "internalType": "bytes32",
              "name": "callDataHash",
              "type": "bytes32"
            },
            {
              "internalType": "bytes32",
              "name": "transactionId",
              "type": "bytes32"
            },
            {
              "internalType": "uint256",
              "name": "sendingChainId",
              "type": "uint256"
            },
            {
              "internalType": "uint256",
              "name": "receivingChainId",
              "type": "uint256"
            },
            {
              "internalType": "uint256",
              "name": "amount",
              "type": "uint256"
            },
            {
              "internalType": "uint256",
              "name": "expiry",
              "type": "uint256"
            },
            {
              "internalType": "uint256",
              "name": "preparedBlockNumber",
              "type": "uint256"
            }
          ],
          "indexed": false,
          "internalType": "struct ITransactionManager.TransactionData",
          "name": "txData",
          "type": "tuple"
        },
        {
          "indexed": false,
          "internalType": "uint256",
          "name": "relayerFee",
          "type": "uint256"
        },
        {
          "indexed": false,
          "internalType": "bytes",
          "name": "signature",
          "type": "bytes"
        },
        {
          "indexed": false,
          "internalType": "bytes",
          "name": "callData",
          "type": "bytes"
        },
        {
          "indexed": false,
          "internalType": "bool",
          "name": "success",
          "type": "bool"
        },
        {
          "indexed": false,
          "internalType": "bool",
          "name": "isContract",
          "type": "bool"
        },
        {
          "indexed": false,
          "internalType": "bytes",
          "name": "returnData",
          "type": "bytes"
        },
        {
          "indexed": false,
          "internalType": "address",
          "name": "caller",
          "type": "address"
        }
      ],
      "name": "TransactionFulfilled",
      "type": "event"
    },
    {
      "anonymous": false,
      "inputs": [
        {
          "indexed": true,
          "internalType": "address",
          "name": "user",
          "type": "address"
        },
        {
          "indexed": true,
          "internalType": "address",
          "name": "router",
          "type": "address"
        },
        {
          "indexed": true,
          "internalType": "bytes32",
          "name": "transactionId",
          "type": "bytes32"
        },
        {
          "components": [
            {
              "internalType": "address",
              "name": "receivingChainTxManagerAddress",
              "type": "address"
            },
            {
              "internalType": "address",
              "name": "user",
              "type": "address"
            },
            {
              "internalType": "address",
              "name": "router",
              "type": "address"
            },
            {
              "internalType": "address",
              "name": "initiator",
              "type": "address"
            },
            {
              "internalType": "address",
              "name": "sendingAssetId",
              "type": "address"
            },
            {
              "internalType": "address",
              "name": "receivingAssetId",
              "type": "address"
            },
            {
              "internalType": "address",
              "name": "sendingChainFallback",
              "type": "address"
            },
            {
              "internalType": "address",
              "name": "receivingAddress",
              "type": "address"
            },
            {
              "internalType": "address",
              "name": "callTo",
              "type": "address"
            },
            {
              "internalType": "bytes32",
              "name": "callDataHash",
              "type": "bytes32"
            },
            {
              "internalType": "bytes32",
              "name": "transactionId",
              "type": "bytes32"
            },
            {
              "internalType": "uint256",
              "name": "sendingChainId",
              "type": "uint256"
            },
            {
              "internalType": "uint256",
              "name": "receivingChainId",
              "type": "uint256"
            },
            {
              "internalType": "uint256",
              "name": "amount",
              "type": "uint256"
            },
            {
              "internalType": "uint256",
              "name": "expiry",
              "type": "uint256"
            },
            {
              "internalType": "uint256",
              "name": "preparedBlockNumber",
              "type": "uint256"
            }
          ],
          "indexed": false,
          "internalType": "struct ITransactionManager.TransactionData",
          "name": "txData",
          "type": "tuple"
        },
        {
          "indexed": false,
          "internalType": "address",
          "name": "caller",
          "type": "address"
        },
        {
          "indexed": false,
          "internalType": "bytes",
          "name": "encryptedCallData",
          "type": "bytes"
        },
        {
          "indexed": false,
          "internalType": "bytes",
          "name": "encodedBid",
          "type": "bytes"
        },
        {
          "indexed": false,
          "internalType": "bytes",
          "name": "bidSignature",
          "type": "bytes"
        }
      ],
      "name": "TransactionPrepared",
      "type": "event"
    },
    {
      "inputs": [],
      "name": "MAX_TIMEOUT",
      "outputs": [
        {
          "internalType": "uint256",
          "name": "",
          "type": "uint256"
        }
      ],
      "stateMutability": "view",
      "type": "function"
    },
    {
      "inputs": [],
      "name": "MIN_TIMEOUT",
      "outputs": [
        {
          "internalType": "uint256",
          "name": "",
          "type": "uint256"
        }
      ],
      "stateMutability": "view",
      "type": "function"
    },
    {
      "inputs": [],
      "name": "acceptProposedOwner",
      "outputs": [],
      "stateMutability": "nonpayable",
      "type": "function"
    },
    {
      "inputs": [
        {
          "internalType": "address",
          "name": "assetId",
          "type": "address"
        }
      ],
      "name": "addAssetId",
      "outputs": [],
      "stateMutability": "nonpayable",
      "type": "function"
    },
    {
      "inputs": [
        {
          "internalType": "uint256",
          "name": "amount",
          "type": "uint256"
        },
        {
          "internalType": "address",
          "name": "assetId",
          "type": "address"
        }
      ],
      "name": "addLiquidity",
      "outputs": [],
      "stateMutability": "payable",
      "type": "function"
    },
    {
      "inputs": [
        {
          "internalType": "uint256",
          "name": "amount",
          "type": "uint256"
        },
        {
          "internalType": "address",
          "name": "assetId",
          "type": "address"
        },
        {
          "internalType": "address",
          "name": "router",
          "type": "address"
        }
      ],
      "name": "addLiquidityFor",
      "outputs": [],
      "stateMutability": "payable",
      "type": "function"
    },
    {
      "inputs": [
        {
          "internalType": "address",
          "name": "router",
          "type": "address"
        }
      ],
      "name": "addRouter",
      "outputs": [],
      "stateMutability": "nonpayable",
      "type": "function"
    },
    {
      "inputs": [
        {
          "internalType": "address",
          "name": "",
          "type": "address"
        }
      ],
      "name": "approvedAssets",
      "outputs": [
        {
          "internalType": "bool",
          "name": "",
          "type": "bool"
        }
      ],
      "stateMutability": "view",
      "type": "function"
    },
    {
      "inputs": [
        {
          "internalType": "address",
          "name": "",
          "type": "address"
        }
      ],
      "name": "approvedRouters",
      "outputs": [
        {
          "internalType": "bool",
          "name": "",
          "type": "bool"
        }
      ],
      "stateMutability": "view",
      "type": "function"
    },
    {
      "inputs": [],
      "name": "assetOwnershipTimestamp",
      "outputs": [
        {
          "internalType": "uint256",
          "name": "",
          "type": "uint256"
        }
      ],
      "stateMutability": "view",
      "type": "function"
    },
    {
      "inputs": [
        {
          "components": [
            {
              "internalType": "address",
              "name": "receivingChainTxManagerAddress",
              "type": "address"
            },
            {
              "internalType": "address",
              "name": "user",
              "type": "address"
            },
            {
              "internalType": "address",
              "name": "router",
              "type": "address"
            },
            {
              "internalType": "address",
              "name": "initiator",
              "type": "address"
            },
            {
              "internalType": "address",
              "name": "sendingAssetId",
              "type": "address"
            },
            {
              "internalType": "address",
              "name": "receivingAssetId",
              "type": "address"
            },
            {
              "internalType": "address",
              "name": "sendingChainFallback",
              "type": "address"
            },
            {
              "internalType": "address",
              "name": "receivingAddress",
              "type": "address"
            },
            {
              "internalType": "address",
              "name": "callTo",
              "type": "address"
            },
            {
              "internalType": "bytes32",
              "name": "callDataHash",
              "type": "bytes32"
            },
            {
              "internalType": "bytes32",
              "name": "transactionId",
              "type": "bytes32"
            },
            {
              "internalType": "uint256",
              "name": "sendingChainId",
              "type": "uint256"
            },
            {
              "internalType": "uint256",
              "name": "receivingChainId",
              "type": "uint256"
            },
            {
              "internalType": "uint256",
              "name": "amount",
              "type": "uint256"
            },
            {
              "internalType": "uint256",
              "name": "expiry",
              "type": "uint256"
            },
            {
              "internalType": "uint256",
              "name": "preparedBlockNumber",
              "type": "uint256"
            }
          ],
          "internalType": "struct ITransactionManager.TransactionData",
          "name": "txData",
          "type": "tuple"
        },
        {
          "internalType": "bytes",
          "name": "signature",
          "type": "bytes"
        }
      ],
      "name": "cancel",
      "outputs": [
        {
          "components": [
            {
              "internalType": "address",
              "name": "receivingChainTxManagerAddress",
              "type": "address"
            },
            {
              "internalType": "address",
              "name": "user",
              "type": "address"
            },
            {
              "internalType": "address",
              "name": "router",
              "type": "address"
            },
            {
              "internalType": "address",
              "name": "initiator",
              "type": "address"
            },
            {
              "internalType": "address",
              "name": "sendingAssetId",
              "type": "address"
            },
            {
              "internalType": "address",
              "name": "receivingAssetId",
              "type": "address"
            },
            {
              "internalType": "address",
              "name": "sendingChainFallback",
              "type": "address"
            },
            {
              "internalType": "address",
              "name": "receivingAddress",
              "type": "address"
            },
            {
              "internalType": "address",
              "name": "callTo",
              "type": "address"
            },
            {
              "internalType": "bytes32",
              "name": "callDataHash",
              "type": "bytes32"
            },
            {
              "internalType": "bytes32",
              "name": "transactionId",
              "type": "bytes32"
            },
            {
              "internalType": "uint256",
              "name": "sendingChainId",
              "type": "uint256"
            },
            {
              "internalType": "uint256",
              "name": "receivingChainId",
              "type": "uint256"
            },
            {
              "internalType": "uint256",
              "name": "amount",
              "type": "uint256"
            },
            {
              "internalType": "uint256",
              "name": "expiry",
              "type": "uint256"
            },
            {
              "internalType": "uint256",
              "name": "preparedBlockNumber",
              "type": "uint256"
            }
          ],
          "internalType": "struct ITransactionManager.TransactionData",
          "name": "",
          "type": "tuple"
        }
      ],
      "stateMutability": "nonpayable",
      "type": "function"
    },
    {
      "inputs": [],
      "name": "delay",
      "outputs": [
        {
          "internalType": "uint256",
          "name": "",
          "type": "uint256"
        }
      ],
      "stateMutability": "view",
      "type": "function"
    },
    {
      "inputs": [
        {
          "components": [
            {
              "internalType": "address",
              "name": "receivingChainTxManagerAddress",
              "type": "address"
            },
            {
              "internalType": "address",
              "name": "user",
              "type": "address"
            },
            {
              "internalType": "address",
              "name": "router",
              "type": "address"
            },
            {
              "internalType": "address",
              "name": "initiator",
              "type": "address"
            },
            {
              "internalType": "address",
              "name": "sendingAssetId",
              "type": "address"
            },
            {
              "internalType": "address",
              "name": "receivingAssetId",
              "type": "address"
            },
            {
              "internalType": "address",
              "name": "sendingChainFallback",
              "type": "address"
            },
            {
              "internalType": "address",
              "name": "receivingAddress",
              "type": "address"
            },
            {
              "internalType": "address",
              "name": "callTo",
              "type": "address"
            },
            {
              "internalType": "bytes32",
              "name": "callDataHash",
              "type": "bytes32"
            },
            {
              "internalType": "bytes32",
              "name": "transactionId",
              "type": "bytes32"
            },
            {
              "internalType": "uint256",
              "name": "sendingChainId",
              "type": "uint256"
            },
            {
              "internalType": "uint256",
              "name": "receivingChainId",
              "type": "uint256"
            },
            {
              "internalType": "uint256",
              "name": "amount",
              "type": "uint256"
            },
            {
              "internalType": "uint256",
              "name": "expiry",
              "type": "uint256"
            },
            {
              "internalType": "uint256",
              "name": "preparedBlockNumber",
              "type": "uint256"
            }
          ],
          "internalType": "struct ITransactionManager.TransactionData",
          "name": "txData",
          "type": "tuple"
        },
        {
          "internalType": "uint256",
          "name": "relayerFee",
          "type": "uint256"
        },
        {
          "internalType": "bytes",
          "name": "signature",
          "type": "bytes"
        },
        {
          "internalType": "bytes",
          "name": "callData",
          "type": "bytes"
        }
      ],
      "name": "fulfill",
      "outputs": [
        {
          "components": [
            {
              "internalType": "address",
              "name": "receivingChainTxManagerAddress",
              "type": "address"
            },
            {
              "internalType": "address",
              "name": "user",
              "type": "address"
            },
            {
              "internalType": "address",
              "name": "router",
              "type": "address"
            },
            {
              "internalType": "address",
              "name": "initiator",
              "type": "address"
            },
            {
              "internalType": "address",
              "name": "sendingAssetId",
              "type": "address"
            },
            {
              "internalType": "address",
              "name": "receivingAssetId",
              "type": "address"
            },
            {
              "internalType": "address",
              "name": "sendingChainFallback",
              "type": "address"
            },
            {
              "internalType": "address",
              "name": "receivingAddress",
              "type": "address"
            },
            {
              "internalType": "address",
              "name": "callTo",
              "type": "address"
            },
            {
              "internalType": "bytes32",
              "name": "callDataHash",
              "type": "bytes32"
            },
            {
              "internalType": "bytes32",
              "name": "transactionId",
              "type": "bytes32"
            },
            {
              "internalType": "uint256",
              "name": "sendingChainId",
              "type": "uint256"
            },
            {
              "internalType": "uint256",
              "name": "receivingChainId",
              "type": "uint256"
            },
            {
              "internalType": "uint256",
              "name": "amount",
              "type": "uint256"
            },
            {
              "internalType": "uint256",
              "name": "expiry",
              "type": "uint256"
            },
            {
              "internalType": "uint256",
              "name": "preparedBlockNumber",
              "type": "uint256"
            }
          ],
          "internalType": "struct ITransactionManager.TransactionData",
          "name": "",
          "type": "tuple"
        }
      ],
      "stateMutability": "nonpayable",
      "type": "function"
    },
    {
      "inputs": [],
      "name": "getChainId",
      "outputs": [
        {
          "internalType": "uint256",
          "name": "_chainId",
          "type": "uint256"
        }
      ],
      "stateMutability": "view",
      "type": "function"
    },
    {
      "inputs": [],
      "name": "getStoredChainId",
      "outputs": [
        {
          "internalType": "uint256",
          "name": "",
          "type": "uint256"
        }
      ],
      "stateMutability": "view",
      "type": "function"
    },
    {
      "inputs": [],
      "name": "interpreter",
      "outputs": [
        {
          "internalType": "contract IFulfillInterpreter",
          "name": "",
          "type": "address"
        }
      ],
      "stateMutability": "view",
      "type": "function"
    },
    {
      "inputs": [],
      "name": "isAssetOwnershipRenounced",
      "outputs": [
        {
          "internalType": "bool",
          "name": "",
          "type": "bool"
        }
      ],
      "stateMutability": "view",
      "type": "function"
    },
    {
      "inputs": [],
      "name": "isRouterOwnershipRenounced",
      "outputs": [
        {
          "internalType": "bool",
          "name": "",
          "type": "bool"
        }
      ],
      "stateMutability": "view",
      "type": "function"
    },
    {
      "inputs": [],
      "name": "owner",
      "outputs": [
        {
          "internalType": "address",
          "name": "",
          "type": "address"
        }
      ],
      "stateMutability": "view",
      "type": "function"
    },
    {
      "inputs": [
        {
          "components": [
            {
              "internalType": "address",
              "name": "receivingChainTxManagerAddress",
              "type": "address"
            },
            {
              "internalType": "address",
              "name": "user",
              "type": "address"
            },
            {
              "internalType": "address",
              "name": "router",
              "type": "address"
            },
            {
              "internalType": "address",
              "name": "initiator",
              "type": "address"
            },
            {
              "internalType": "address",
              "name": "sendingAssetId",
              "type": "address"
            },
            {
              "internalType": "address",
              "name": "receivingAssetId",
              "type": "address"
            },
            {
              "internalType": "address",
              "name": "sendingChainFallback",
              "type": "address"
            },
            {
              "internalType": "address",
              "name": "receivingAddress",
              "type": "address"
            },
            {
              "internalType": "address",
              "name": "callTo",
              "type": "address"
            },
            {
              "internalType": "uint256",
              "name": "sendingChainId",
              "type": "uint256"
            },
            {
              "internalType": "uint256",
              "name": "receivingChainId",
              "type": "uint256"
            },
            {
              "internalType": "bytes32",
              "name": "callDataHash",
              "type": "bytes32"
            },
            {
              "internalType": "bytes32",
              "name": "transactionId",
              "type": "bytes32"
            }
          ],
          "internalType": "struct ITransactionManager.InvariantTransactionData",
          "name": "invariantData",
          "type": "tuple"
        },
        {
          "internalType": "uint256",
          "name": "amount",
          "type": "uint256"
        },
        {
          "internalType": "uint256",
          "name": "expiry",
          "type": "uint256"
        },
        {
          "internalType": "bytes",
          "name": "encryptedCallData",
          "type": "bytes"
        },
        {
          "internalType": "bytes",
          "name": "encodedBid",
          "type": "bytes"
        },
        {
          "internalType": "bytes",
          "name": "bidSignature",
          "type": "bytes"
        }
      ],
      "name": "prepare",
      "outputs": [
        {
          "components": [
            {
              "internalType": "address",
              "name": "receivingChainTxManagerAddress",
              "type": "address"
            },
            {
              "internalType": "address",
              "name": "user",
              "type": "address"
            },
            {
              "internalType": "address",
              "name": "router",
              "type": "address"
            },
            {
              "internalType": "address",
              "name": "initiator",
              "type": "address"
            },
            {
              "internalType": "address",
              "name": "sendingAssetId",
              "type": "address"
            },
            {
              "internalType": "address",
              "name": "receivingAssetId",
              "type": "address"
            },
            {
              "internalType": "address",
              "name": "sendingChainFallback",
              "type": "address"
            },
            {
              "internalType": "address",
              "name": "receivingAddress",
              "type": "address"
            },
            {
              "internalType": "address",
              "name": "callTo",
              "type": "address"
            },
            {
              "internalType": "bytes32",
              "name": "callDataHash",
              "type": "bytes32"
            },
            {
              "internalType": "bytes32",
              "name": "transactionId",
              "type": "bytes32"
            },
            {
              "internalType": "uint256",
              "name": "sendingChainId",
              "type": "uint256"
            },
            {
              "internalType": "uint256",
              "name": "receivingChainId",
              "type": "uint256"
            },
            {
              "internalType": "uint256",
              "name": "amount",
              "type": "uint256"
            },
            {
              "internalType": "uint256",
              "name": "expiry",
              "type": "uint256"
            },
            {
              "internalType": "uint256",
              "name": "preparedBlockNumber",
              "type": "uint256"
            }
          ],
          "internalType": "struct ITransactionManager.TransactionData",
          "name": "",
          "type": "tuple"
        }
      ],
      "stateMutability": "payable",
      "type": "function"
    },
    {
      "inputs": [],
      "name": "proposeAssetOwnershipRenunciation",
      "outputs": [],
      "stateMutability": "nonpayable",
      "type": "function"
    },
    {
      "inputs": [
        {
          "internalType": "address",
          "name": "newlyProposed",
          "type": "address"
        }
      ],
      "name": "proposeNewOwner",
      "outputs": [],
      "stateMutability": "nonpayable",
      "type": "function"
    },
    {
      "inputs": [],
      "name": "proposeRouterOwnershipRenunciation",
      "outputs": [],
      "stateMutability": "nonpayable",
      "type": "function"
    },
    {
      "inputs": [],
      "name": "proposed",
      "outputs": [
        {
          "internalType": "address",
          "name": "",
          "type": "address"
        }
      ],
      "stateMutability": "view",
      "type": "function"
    },
    {
      "inputs": [],
      "name": "proposedTimestamp",
      "outputs": [
        {
          "internalType": "uint256",
          "name": "",
          "type": "uint256"
        }
      ],
      "stateMutability": "view",
      "type": "function"
    },
    {
      "inputs": [
        {
          "internalType": "address",
          "name": "assetId",
          "type": "address"
        }
      ],
      "name": "removeAssetId",
      "outputs": [],
      "stateMutability": "nonpayable",
      "type": "function"
    },
    {
      "inputs": [
        {
          "internalType": "uint256",
          "name": "amount",
          "type": "uint256"
        },
        {
          "internalType": "address",
          "name": "assetId",
          "type": "address"
        },
        {
          "internalType": "address payable",
          "name": "recipient",
          "type": "address"
        }
      ],
      "name": "removeLiquidity",
      "outputs": [],
      "stateMutability": "nonpayable",
      "type": "function"
    },
    {
      "inputs": [
        {
          "internalType": "address",
          "name": "router",
          "type": "address"
        }
      ],
      "name": "removeRouter",
      "outputs": [],
      "stateMutability": "nonpayable",
      "type": "function"
    },
    {
      "inputs": [],
      "name": "renounceAssetOwnership",
      "outputs": [],
      "stateMutability": "nonpayable",
      "type": "function"
    },
    {
      "inputs": [],
      "name": "renounceOwnership",
      "outputs": [],
      "stateMutability": "nonpayable",
      "type": "function"
    },
    {
      "inputs": [],
      "name": "renounceRouterOwnership",
      "outputs": [],
      "stateMutability": "nonpayable",
      "type": "function"
    },
    {
      "inputs": [],
      "name": "renounced",
      "outputs": [
        {
          "internalType": "bool",
          "name": "",
          "type": "bool"
        }
      ],
      "stateMutability": "view",
      "type": "function"
    },
    {
      "inputs": [
        {
          "internalType": "address",
          "name": "",
          "type": "address"
        },
        {
          "internalType": "address",
          "name": "",
          "type": "address"
        }
      ],
      "name": "routerBalances",
      "outputs": [
        {
          "internalType": "uint256",
          "name": "",
          "type": "uint256"
        }
      ],
      "stateMutability": "view",
      "type": "function"
    },
    {
      "inputs": [],
      "name": "routerOwnershipTimestamp",
      "outputs": [
        {
          "internalType": "uint256",
          "name": "",
          "type": "uint256"
        }
      ],
      "stateMutability": "view",
      "type": "function"
    },
    {
      "inputs": [
        {
          "internalType": "bytes32",
          "name": "",
          "type": "bytes32"
        }
      ],
      "name": "variantTransactionData",
      "outputs": [
        {
          "internalType": "bytes32",
          "name": "",
          "type": "bytes32"
        }
      ],
      "stateMutability": "view",
      "type": "function"
    }
  ],
  "transactionHash": "0x72a21404f2469ee016dfe6661e2082646d813d5516fc24e2e73eb51cceb6ca88",
  "args": [
    "5"
  ],
  "solcInputHash": "3aa1cb813f96702c4462824954034aef",
  "bytecode": "0x60c06040523480156200001157600080fd5b5060405162004f6538038062004f65833981016040819052620000349162000105565b600160005562000044336200009e565b608081905260405130906200005990620000f7565b6001600160a01b039091168152602001604051809103906000f08015801562000086573d6000803e3d6000fd5b5060601b6001600160601b03191660a052506200011e565b600180546001600160a01b038381166001600160a01b0319831681179093556000600381905560405191909216929183917f8be0079c531659141344cd1fd0a4f28419497f9722a3daafe3b4186f6b6457e09190a35050565b610bf0806200437583390190565b60006020828403121562000117578081fd5b5051919050565b60805160a05160601c6142196200015c6000396000818161030e01528181612827015261284e015260008181610284015261110001526142196000f3fe6080604052600436106102045760003560e01c80638741eac511610118578063c5b350df116100a0578063de38eb3a1161006f578063de38eb3a146105db578063e070da09146105f2578063e47602f714610605578063e8be0dfc1461061a578063f31abcc41461062f57600080fd5b8063c5b350df14610576578063c95f9d0e1461058b578063d1851c921461059e578063d232c220146105bc57600080fd5b8063ad8e83e2116100e7578063ad8e83e2146104ec578063b1d2618d1461050c578063b1f8100d1461052c578063c0c17baf1461054c578063c1a049591461056157600080fd5b80638741eac5146104695780638da5cb5b1461047e57806397eb00881461049c5780639a07ce82146104cc57600080fd5b80633cf52ffb1161019b5780635e6798561161016a5780635e679856146103dc5780636a41633a146104095780636a42b8f81461041e5780636ae0b15414610434578063715018a61461045457600080fd5b80633cf52ffb1461034857806341258b5c1461035d578063445b1e4b14610395578063543ad1df146103c557600080fd5b80633408e470116101d75780633408e470146102b257806334e9393c146102c75780633855b467146102e75780633a35cf17146102fc57600080fd5b80632004ef451461020957806324ca984e146102335780632d1c25991461025557806332a130c914610275575b600080fd5b34801561021557600080fd5b5061021e61064f565b60405190151581526020015b60405180910390f35b34801561023f57600080fd5b5061025361024e3660046134e4565b610671565b005b61026861026336600461361d565b610785565b60405161022a919061406e565b34801561028157600080fd5b507f00000000000000000000000000000000000000000000000000000000000000005b60405190815260200161022a565b3480156102be57600080fd5b506102a46110fc565b3480156102d357600080fd5b506102536102e23660046134e4565b61112c565b3480156102f357600080fd5b506102536111f7565b34801561030857600080fd5b506103307f000000000000000000000000000000000000000000000000000000000000000081565b6040516001600160a01b03909116815260200161022a565b34801561035457600080fd5b506003546102a4565b34801561036957600080fd5b506102a4610378366004613500565b600860209081526000928352604080842090915290825290205481565b3480156103a157600080fd5b5061021e6103b03660046134e4565b60096020526000908152604090205460ff1681565b3480156103d157600080fd5b506102a46201518081565b3480156103e857600080fd5b506102a46103f7366004613605565b600b6020526000908152604090205481565b34801561041557600080fd5b506007546102a4565b34801561042a57600080fd5b5062093a806102a4565b34801561044057600080fd5b5061025361044f3660046134e4565b6112f2565b34801561046057600080fd5b506102536113fe565b34801561047557600080fd5b50610253611505565b34801561048a57600080fd5b506001546001600160a01b0316610330565b3480156104a857600080fd5b5061021e6104b73660046134e4565b600a6020526000908152604090205460ff1681565b3480156104d857600080fd5b506102686104e7366004613739565b611576565b3480156104f857600080fd5b506102686105073660046136e5565b6119ea565b34801561051857600080fd5b506102536105273660046134e4565b611d46565b34801561053857600080fd5b506102536105473660046134e4565b611e12565b34801561055857600080fd5b50610253611eec565b34801561056d57600080fd5b506005546102a4565b34801561058257600080fd5b50610253611fe5565b6102536105993660046138e1565b6120bf565b3480156105aa57600080fd5b506002546001600160a01b0316610330565b3480156105c857600080fd5b506001546001600160a01b03161561021e565b3480156105e757600080fd5b506102a462278d0081565b610253610600366004613905565b6120fb565b34801561061157600080fd5b50610253612138565b34801561062657600080fd5b5061021e6121a9565b34801561063b57600080fd5b5061025361064a366004613905565b6121c9565b6001546000906001600160a01b0316158061066c575060045460ff165b905090565b6001546001600160a01b031633146106a45760405162461bcd60e51b815260040161069b90613c8e565b60405180910390fd5b6001600160a01b0381166106e45760405162461bcd60e51b81526020600482015260076024820152662341523a30303160c81b604482015260640161069b565b6001600160a01b03811660009081526009602052604090205460ff16156107375760405162461bcd60e51b815260206004820152600760248201526611a0a91d18199960c91b604482015260640161069b565b6001600160a01b038116600081815260096020526040808220805460ff19166001179055513392917fbc68405e644da2aaf25623ce2199da82c6dfd2e1de102b400eba6a091704d4f491a350565b61078d6133e6565b600260005414156107b05760405162461bcd60e51b815260040161069b90613caf565b600260009081556107c760408c0160208d016134e4565b6001600160a01b031614156108075760405162461bcd60e51b815260206004820152600660248201526523503a30303960d01b604482015260640161069b565b600061081960608c0160408d016134e4565b6001600160a01b031614156108595760405162461bcd60e51b815260206004820152600660248201526523503a30303160d01b604482015260640161069b565b61086161064f565b8061089957506009600061087b60608d0160408e016134e4565b6001600160a01b0316815260208101919091526040016000205460ff165b6108ce5760405162461bcd60e51b815260206004820152600660248201526523503a30303360d01b604482015260640161069b565b60006108e060e08c0160c08d016134e4565b6001600160a01b031614156109205760405162461bcd60e51b8152602060048201526006602482015265023503a3031360d41b604482015260640161069b565b60006109336101008c0160e08d016134e4565b6001600160a01b031614156109735760405162461bcd60e51b815260206004820152600660248201526511a81d18191b60d11b604482015260640161069b565b8961014001358a610120013514156109b65760405162461bcd60e51b815260206004820152600660248201526523503a30313160d01b604482015260640161069b565b60006109c06110fc565b9050808b610120013514806109d95750808b6101400135145b610a0e5760405162461bcd60e51b815260206004820152600660248201526511a81d18189960d11b604482015260640161069b565b6000610a1a428b61415f565b905062015180811015610a585760405162461bcd60e51b815260206004820152600660248201526523503a30313360d01b604482015260640161069b565b62278d00811115610a945760405162461bcd60e51b815260206004820152600660248201526508d40e8c0c4d60d21b604482015260640161069b565b5060008b604051602001610aa89190613ce6565b60408051601f1981840301815291815281516020928301206000818152600b90935291205490915015610b065760405162461bcd60e51b815260206004820152600660248201526523503a30313560d01b604482015260640161069b565b818c61012001351415610c5757610b2360808d0160608e016134e4565b6001600160a01b0316336001600160a01b031614610b6c5760405162461bcd60e51b815260206004820152600660248201526523503a30333960d01b604482015260640161069b565b60008b11610ba55760405162461bcd60e51b815260206004820152600660248201526511a81d18181960d11b604482015260640161069b565b610bad6121a9565b80610be85750600a60008d6080016020810190610bca91906134e4565b6001600160a01b0316815260208101919091526040016000205460ff165b610c1d5760405162461bcd60e51b815260206004820152600660248201526508d40e8c0c0d60d21b604482015260640161069b565b610c36610c3060a08e0160808f016134e4565b8c61234e565b9a50610c438b8b4361240f565b6000828152600b6020526040902055610f0a565b6000610c6b6101208e016101008f016134e4565b6001600160a01b03161480610c965750610c96610c906101208e016101008f016134e4565b3b151590565b610ccb5760405162461bcd60e51b815260206004820152600660248201526523503a30333160d01b604482015260640161069b565b610cd36121a9565b80610d0e5750600a60008d60a0016020810190610cf091906134e4565b6001600160a01b0316815260208101919091526040016000205460ff165b610d435760405162461bcd60e51b815260206004820152600660248201526508d40e8c0c0d60d21b604482015260640161069b565b610d5360608d0160408e016134e4565b6001600160a01b0316336001600160a01b031614610d9c5760405162461bcd60e51b815260206004820152600660248201526511a81d18189b60d11b604482015260640161069b565b3415610dd35760405162461bcd60e51b815260206004820152600660248201526523503a30313760d01b604482015260640161069b565b6000600860008e6040016020810190610dec91906134e4565b6001600160a01b03166001600160a01b0316815260200190815260200160002060008e60a0016020810190610e2191906134e4565b6001600160a01b03166001600160a01b031681526020019081526020016000205490508b811015610e7d5760405162461bcd60e51b8152602060048201526006602482015265046a0746062760d31b604482015260640161069b565b610e888c8c4361240f565b600b6000848152602001908152602001600020819055508b8103600860008f6040016020810190610eb991906134e4565b6001600160a01b03166001600160a01b0316815260200190815260200160002060008f60a0016020810190610eee91906134e4565b6001600160a01b03168152602081019190915260400160002055505b60006040518061020001604052808e6000016020810190610f2b91906134e4565b6001600160a01b031681526020018e6020016020810190610f4c91906134e4565b6001600160a01b031681526020018e6040016020810190610f6d91906134e4565b6001600160a01b031681526020018e6060016020810190610f8e91906134e4565b6001600160a01b031681526020018e6080016020810190610faf91906134e4565b6001600160a01b031681526020018e60a0016020810190610fd091906134e4565b6001600160a01b031681526020018e60c0016020810190610ff191906134e4565b6001600160a01b031681526020018e60e001602081019061101291906134e4565b6001600160a01b031681526020018e61010001602081019061103491906134e4565b6001600160a01b031681526020018e610160013581526020018e610180013581526020018e610120013581526020018e610140013581526020018d81526020018c815260200143815250905080610140015181604001516001600160a01b031682602001516001600160a01b03167febe37af0c4490cde618ca535b3489bafaf9ab79e7fd0c6fa0f9f505805d3db0484338f8f8f8f8f8f6040516110df98979695949392919061407d565b60405180910390a460016000559c9b505050505050505050505050565b60007f0000000000000000000000000000000000000000000000000000000000000000806111275750465b919050565b6001546001600160a01b031633146111565760405162461bcd60e51b815260040161069b90613c8e565b6001600160a01b0381166000908152600a602052604090205460ff16156111a95760405162461bcd60e51b815260206004820152600760248201526611a0a09d18199960c91b604482015260640161069b565b6001600160a01b0381166000818152600a6020526040808220805460ff19166001179055513392917f0bb5715f0f217c2fe9a0c877ea87d474380c641102f3440ee2a4c8b9d979091891a350565b6001546001600160a01b031633146112215760405162461bcd60e51b815260040161069b90613c8e565b60065460ff161561125f5760405162461bcd60e51b8152602060048201526008602482015267046a4829e746066760c31b604482015260640161069b565b60006007541161129c5760405162461bcd60e51b81526020600482015260086024820152672352414f3a30333760c01b604482015260640161069b565b62093a80600754426112ae919061415f565b116112e65760405162461bcd60e51b815260206004820152600860248201526702352414f3a3033360c41b604482015260640161069b565b6112f0600161245d565b565b6001546001600160a01b0316331461131c5760405162461bcd60e51b815260040161069b90613c8e565b6001600160a01b03811661135c5760405162461bcd60e51b81526020600482015260076024820152662352523a30303160c81b604482015260640161069b565b6001600160a01b03811660009081526009602052604090205460ff1615156001146113b35760405162461bcd60e51b81526020600482015260076024820152662352523a30333360c81b604482015260640161069b565b6001600160a01b038116600081815260096020526040808220805460ff19169055513392917fbee3e974bb6a6f44f20096ede047c191eef60322e65e4ee4bd3392230a8716d591a350565b6001546001600160a01b031633146114285760405162461bcd60e51b815260040161069b90613c8e565b6000600354116114645760405162461bcd60e51b815260206004820152600760248201526623524f3a30333760c81b604482015260640161069b565b62093a8060035442611476919061415f565b116114ad5760405162461bcd60e51b8152602060048201526007602482015266023524f3a3033360cc1b604482015260640161069b565b6002546001600160a01b0316156114f05760405162461bcd60e51b815260206004820152600760248201526611a9279d18199b60c91b604482015260640161069b565b6002546112f0906001600160a01b03166124aa565b6001546001600160a01b0316331461152f5760405162461bcd60e51b815260040161069b90613c8e565b60065460ff161561156e5760405162461bcd60e51b8152602060048201526009602482015268046a0829ea4746066760bb1b604482015260640161069b565b6112f0612503565b61157e6133e6565b600260005414156115a15760405162461bcd60e51b815260040161069b90613caf565b600260009081556115b18861253f565b90506115cd886101a00135896101c001358a6101e0013561240f565b6000828152600b6020526040902054146116125760405162461bcd60e51b815260206004820152600660248201526523463a30313960d01b604482015260640161069b565b42886101c0013510156116505760405162461bcd60e51b8152602060048201526006602482015265023463a3032360d41b604482015260640161069b565b6000886101e001351161168e5760405162461bcd60e51b815260206004820152600660248201526523463a30323160d01b604482015260640161069b565b87610120013584846040516116a4929190613c00565b6040518091039020146116e25760405162461bcd60e51b815260206004820152600660248201526508d18e8c0c8d60d21b604482015260640161069b565b6116f8886101a00135896101c00135600061240f565b6000918252600b6020526040822055806060816117136110fc565b9050808b610160013514156118895761173260608c0160408d016134e4565b6001600160a01b0316336001600160a01b03161461177b5760405162461bcd60e51b815260206004820152600660248201526511a31d18189b60d11b604482015260640161069b565b61178b60408c0160208d016134e4565b6001600160a01b03166117be8c61014001358c8e61018001358f60000160208101906117b791906134e4565b8e8e6126bd565b6001600160a01b0316146117fd5760405162461bcd60e51b815260206004820152600660248201526511a31d18191960d11b604482015260640161069b565b8a6101a00135600860008d604001602081019061181a91906134e4565b6001600160a01b03166001600160a01b0316815260200190815260200160002060008d608001602081019061184f91906134e4565b6001600160a01b03166001600160a01b03168152602001908152602001600020600082825461187e9190614147565b909155506119469050565b61189960408c0160208d016134e4565b6001600160a01b03166118b58c61014001358c84308e8e6126bd565b6001600160a01b0316146118f45760405162461bcd60e51b815260206004820152600660248201526511a31d18191960d11b604482015260640161069b565b8a6101a001358a11156119325760405162461bcd60e51b815260206004820152600660248201526523463a30323360d01b604482015260640161069b565b61193e8b8b898961273d565b919550935091505b6101408b013561195c60608d0160408e016134e4565b6001600160a01b031661197560408e0160208f016134e4565b6001600160a01b03167f489a88cbb14194020aec27cc1a563e404bca74dde249d653cfaff3438c413ad08e8e8e8e8e8e8d8d8d336040516119bf9a99989796959493929190613fe6565b60405180910390a46119d6368c90038c018c6137c5565b60016000559b9a5050505050505050505050565b6119f26133e6565b60026000541415611a155760405162461bcd60e51b815260040161069b90613caf565b60026000908155611a258561253f565b9050611a41856101a00135866101c00135876101e0013561240f565b6000828152600b602052604090205414611a865760405162461bcd60e51b815260206004820152600660248201526523433a30313960d01b604482015260640161069b565b6000856101e0013511611ac45760405162461bcd60e51b815260206004820152600660248201526523433a30323160d01b604482015260640161069b565b611ada856101a00135866101c00135600061240f565b6000828152600b6020526040812091909155611af46110fc565b9050808661016001351415611b9b5742866101c0013510611b6857611b1f60608701604088016134e4565b6001600160a01b0316336001600160a01b031614611b685760405162461bcd60e51b815260206004820152600660248201526523433a30323560d01b604482015260640161069b565b611b96611b7b60a08801608089016134e4565b611b8b60e0890160c08a016134e4565b886101a00135612955565b611cb7565b42866101c0013510611c3c57611bb760408701602088016134e4565b6001600160a01b0316336001600160a01b03161480611c075750611be160408701602088016134e4565b6001600160a01b0316611bfc8761014001358330898961297e565b6001600160a01b0316145b611c3c5760405162461bcd60e51b815260206004820152600660248201526511a19d18191960d11b604482015260640161069b565b6101a086013560086000611c5660608a0160408b016134e4565b6001600160a01b031681526020810191909152604001600090812090611c8260c08a0160a08b016134e4565b6001600160a01b03166001600160a01b031681526020019081526020016000206000828254611cb19190614147565b90915550505b610140860135611ccd60608801604089016134e4565b6001600160a01b0316611ce66040890160208a016134e4565b6001600160a01b03167f0dc170e095b194873dc214a0ebbaf0b822932e46e2c6da9e12d915531723b3fc8933604051611d20929190613fbe565b60405180910390a4611d37368790038701876137c5565b60016000559695505050505050565b6001546001600160a01b03163314611d705760405162461bcd60e51b815260040161069b90613c8e565b6001600160a01b0381166000908152600a602052604090205460ff161515600114611dc75760405162461bcd60e51b81526020600482015260076024820152662352413a30333360c81b604482015260640161069b565b6001600160a01b0381166000818152600a6020526040808220805460ff19169055513392917f0fa1e4606af435f32f05b3804033d2933e691fab32ee74d2db6fa82d2741f1ea91a350565b6001546001600160a01b03163314611e3c5760405162461bcd60e51b815260040161069b90613c8e565b6002546001600160a01b038281169116141580611e6057506001600160a01b038116155b611e975760405162461bcd60e51b815260206004820152600860248201526711a827279d18199b60c11b604482015260640161069b565b6001546001600160a01b0382811691161415611ee05760405162461bcd60e51b8152602060048201526008602482015267046a09c9e746066760c31b604482015260640161069b565b611ee9816129ea565b50565b6001546001600160a01b03163314611f165760405162461bcd60e51b815260040161069b90613c8e565b60045460ff1615611f545760405162461bcd60e51b8152602060048201526008602482015267046a4a49e746066760c31b604482015260640161069b565b600060055411611f915760405162461bcd60e51b81526020600482015260086024820152672352524f3a30333760c01b604482015260640161069b565b62093a8060055442611fa3919061415f565b11611fdb5760405162461bcd60e51b815260206004820152600860248201526702352524f3a3033360c41b604482015260640161069b565b6112f06001612a38565b6002546001600160a01b031633146120295760405162461bcd60e51b8152602060048201526007602482015266234f503a30333560c81b604482015260640161069b565b6002546001546001600160a01b03908116911614156120755760405162461bcd60e51b815260206004820152600860248201526704682a09e746066760c31b604482015260640161069b565b62093a8060035442612087919061415f565b116114f05760405162461bcd60e51b815260206004820152600860248201526702341504f3a3033360c41b604482015260640161069b565b600260005414156120e25760405162461bcd60e51b815260040161069b90613caf565b60026000556120f2828233612a7e565b50506001600055565b6002600054141561211e5760405162461bcd60e51b815260040161069b90613caf565b600260005561212e838383612a7e565b5050600160005550565b6001546001600160a01b031633146121625760405162461bcd60e51b815260040161069b90613c8e565b60045460ff16156121a15760405162461bcd60e51b8152602060048201526009602482015268046a0a49ea4746066760bb1b604482015260640161069b565b6112f0612c52565b6001546000906001600160a01b0316158061066c57505060065460ff1690565b600260005414156121ec5760405162461bcd60e51b815260040161069b90613caf565b60026000556001600160a01b0381166122315760405162461bcd60e51b815260206004820152600760248201526623524c3a30303760c81b604482015260640161069b565b6000831161226b5760405162461bcd60e51b815260206004820152600760248201526611a9261d18181960c91b604482015260640161069b565b3360009081526008602090815260408083206001600160a01b0386168452909152902054838110156122c95760405162461bcd60e51b8152602060048201526007602482015266046a498746060760cb1b604482015260640161069b565b3360009081526008602090815260408083206001600160a01b0387168452909152902084820390556122fc838386612955565b604080518581526001600160a01b03848116602083015285169133917f7da12116be8cb7af4b2d9e9b4a2ca2c3a3243ddd6fd3a94411902367b8eed568910160405180910390a3505060016000555050565b6000816001600160a01b03841661239d578234146123985760405162461bcd60e51b81526020600482015260076024820152662354413a30303560c81b604482015260640161069b565b612406565b60006123a885612c88565b905034156123e25760405162461bcd60e51b815260206004820152600760248201526611aa209d18181b60c91b604482015260640161069b565b6123ee85333087612d1c565b806123f886612c88565b612402919061415f565b9150505b90505b92915050565b604080516060808201835285825260208083018681529284018581528451808301899052935184860152518383015283518084039092018252608090920190925281519101205b9392505050565b6006805460ff191682151590811790915560006007556040519081527f868d89ead22a5d10f456845ac0014901d9af7203e71cf0892d70d9dc262c2fb9906020015b60405180910390a150565b600180546001600160a01b038381166001600160a01b0319831681179093556000600381905560405191909216929183917f8be0079c531659141344cd1fd0a4f28419497f9722a3daafe3b4186f6b6457e09190a35050565b4260078190556040519081527fa78fdca214e4619ef34a695316d423f5b0d8274bc919d29733bf8f92ec8cbb7a906020015b60405180910390a1565b604080516101a0810190915260009081908061255e60208601866134e4565b6001600160a01b0316815260200184602001602081019061257f91906134e4565b6001600160a01b0316815260200161259d60608601604087016134e4565b6001600160a01b031681526020016125bb60808601606087016134e4565b6001600160a01b031681526020016125d960a08601608087016134e4565b6001600160a01b031681526020016125f760c0860160a087016134e4565b6001600160a01b0316815260200161261560e0860160c087016134e4565b6001600160a01b03168152602001612634610100860160e087016134e4565b6001600160a01b03168152602001612654610120860161010087016134e4565b6001600160a01b0316815260200184610160013581526020018461018001358152602001846101200135815260200184610140013581525090508060405160200161269f9190613dfc565b60405160208183030381529060405280519060200120915050919050565b6040805160a0810182528781526020808201889052825180840184526007815266199d5b199a5b1b60ca1b8183015282840152606082018790526001600160a01b038616608083015291516000926127319161271b91849101613f63565b6040516020818303038152906040528585612d2e565b98975050505050505050565b60008060606101a0870135869003861561276b5761276b61276460c08a0160a08b016134e4565b3389612955565b600061277f6101208a016101008b016134e4565b6001600160a01b031614156127db5780156127be576127be6127a760c08a0160a08b016134e4565b6127b86101008b0160e08c016134e4565b83612955565b50506040805160008082526020820190925290925082915061294b565b60006127fd6127f060c08b0160a08c016134e4565b6001600160a01b03161590565b90508015801561280d5750600082115b1561284c5761284c61282560c08b0160a08c016134e4565b7f000000000000000000000000000000000000000000000000000000000000000084612dd5565b7f00000000000000000000000000000000000000000000000000000000000000006001600160a01b031663cf9a360482612887576000612889565b835b6101408c01356128a16101208e016101008f016134e4565b8d60a00160208101906128b491906134e4565b8e60e00160208101906128c791906134e4565b888e8e6040518963ffffffff1660e01b81526004016128ec9796959493929190613c2c565b6000604051808303818588803b15801561290557600080fd5b505af1158015612919573d6000803e3d6000fd5b50505050506040513d6000823e601f3d908101601f191682016040526129429190810190613552565b94509450945050505b9450945094915050565b6001600160a01b038316156129745761296f838383612dd5565b505050565b61296f8282612de0565b60008060405180608001604052808881526020016040518060400160405280600681526020016518d85b98d95b60d21b8152508152602001878152602001866001600160a01b031681525090506129df8160405160200161271b9190613f12565b979650505050505050565b42600355600280546001600160a01b0319166001600160a01b0383169081179091556040517f6ab4d119f23076e8ad491bc65ce85f017fb0591dce08755ba8591059cc51737a90600090a250565b6004805460ff191682151590811790915560006005556040519081527f243ebbb2f905234bbf0556bb38e1f7c23b09ffd2e441a16e58b844eb2ab7a3979060200161249f565b6001600160a01b038116612abe5760405162461bcd60e51b815260206004820152600760248201526623414c3a30303160c81b604482015260640161069b565b60008311612af85760405162461bcd60e51b815260206004820152600760248201526611a0a61d18181960c91b604482015260640161069b565b612b0061064f565b80612b2357506001600160a01b03811660009081526009602052604090205460ff165b612b595760405162461bcd60e51b815260206004820152600760248201526623414c3a30303360c81b604482015260640161069b565b612b616121a9565b80612b8457506001600160a01b0382166000908152600a602052604090205460ff165b612bba5760405162461bcd60e51b815260206004820152600760248201526608d0530e8c0c0d60ca1b604482015260640161069b565b612bc4828461234e565b6001600160a01b038083166000908152600860209081526040808320938716835292905290812080549295508592909190612c00908490614147565b9091555050604080518481523360208201526001600160a01b0380851692908416917f4bd28ccd068c4853d24d35f727ef2a3fea11ce55e8d93461e45f785818e1e139910160405180910390a3505050565b4260058190556040519081527fa52048c5f468d21a62e4644ac4db19bcaa1a20f0cf37d163ba49c7217d35feb890602001612535565b60006001600160a01b03821615612d15576040516370a0823160e01b81523060048201526001600160a01b038316906370a082319060240160206040518083038186803b158015612cd857600080fd5b505afa158015612cec573d6000803e3d6000fd5b505050506040513d601f19601f82011682018060405250810190612d1091906138c9565b612409565b4792915050565b612d2884848484612dee565b50505050565b6000612dcd612d9185805190602001206040517f19457468657265756d205369676e6564204d6573736167653a0a3332000000006020820152603c8101829052600090605c01604051602081830303815290604052805190602001209050919050565b84848080601f016020809104026020016040519081016040528093929190818152602001838380828437600092019190915250612e5992505050565b949350505050565b61296f838383612efd565b612dea8282612f2d565b5050565b6040516001600160a01b0380851660248301528316604482015260648101829052612d289085906323b872dd60e01b906084015b60408051601f198184030181529190526020810180516001600160e01b03166001600160e01b031990931692909217909152613046565b6000815160411415612e8d5760208201516040830151606084015160001a612e8386828585613118565b9350505050612409565b815160401415612eb55760208201516040830151612eac8583836132c1565b92505050612409565b60405162461bcd60e51b815260206004820152601f60248201527f45434453413a20696e76616c6964207369676e6174757265206c656e67746800604482015260640161069b565b6040516001600160a01b03831660248201526044810182905261296f90849063a9059cbb60e01b90606401612e22565b80471015612f7d5760405162461bcd60e51b815260206004820152601d60248201527f416464726573733a20696e73756666696369656e742062616c616e6365000000604482015260640161069b565b6000826001600160a01b03168260405160006040518083038185875af1925050503d8060008114612fca576040519150601f19603f3d011682016040523d82523d6000602084013e612fcf565b606091505b505090508061296f5760405162461bcd60e51b815260206004820152603a60248201527f416464726573733a20756e61626c6520746f2073656e642076616c75652c207260448201527f6563697069656e74206d61792068617665207265766572746564000000000000606482015260840161069b565b600061309b826040518060400160405280602081526020017f5361666545524332303a206c6f772d6c6576656c2063616c6c206661696c6564815250856001600160a01b03166132eb9092919063ffffffff16565b80519091501561296f57808060200190518101906130b99190613538565b61296f5760405162461bcd60e51b815260206004820152602a60248201527f5361666545524332303a204552433230206f7065726174696f6e20646964206e6044820152691bdd081cdd58d8d9595960b21b606482015260840161069b565b60007f7fffffffffffffffffffffffffffffff5d576e7357a4501ddfe92f46681b20a08211156131955760405162461bcd60e51b815260206004820152602260248201527f45434453413a20696e76616c6964207369676e6174757265202773272076616c604482015261756560f01b606482015260840161069b565b8360ff16601b14806131aa57508360ff16601c145b6132015760405162461bcd60e51b815260206004820152602260248201527f45434453413a20696e76616c6964207369676e6174757265202776272076616c604482015261756560f01b606482015260840161069b565b6040805160008082526020820180845288905260ff871692820192909252606081018590526080810184905260019060a0016020604051602081039080840390855afa158015613255573d6000803e3d6000fd5b5050604051601f1901519150506001600160a01b0381166132b85760405162461bcd60e51b815260206004820152601860248201527f45434453413a20696e76616c6964207369676e61747572650000000000000000604482015260640161069b565b95945050505050565b60006001600160ff1b03821660ff83901c601b016132e186828785613118565b9695505050505050565b6060612dcd848460008585843b6133445760405162461bcd60e51b815260206004820152601d60248201527f416464726573733a2063616c6c20746f206e6f6e2d636f6e7472616374000000604482015260640161069b565b600080866001600160a01b031685876040516133609190613c10565b60006040518083038185875af1925050503d806000811461339d576040519150601f19603f3d011682016040523d82523d6000602084013e6133a2565b606091505b50915091506129df828286606083156133bc575081612456565b8251156133cc5782518084602001fd5b8160405162461bcd60e51b815260040161069b9190613c7b565b6040805161020081018252600080825260208201819052918101829052606081018290526080810182905260a0810182905260c0810182905260e08101829052610100810182905261012081018290526101408101829052610160810182905261018081018290526101a081018290526101c081018290526101e081019190915290565b8035611127816141ce565b8051801515811461112757600080fd5b60008083601f840112613496578182fd5b50813567ffffffffffffffff8111156134ad578182fd5b6020830191508360208285010111156134c557600080fd5b9250929050565b600061020082840312156134de578081fd5b50919050565b6000602082840312156134f5578081fd5b8135612406816141ce565b60008060408385031215613512578081fd5b823561351d816141ce565b9150602083013561352d816141ce565b809150509250929050565b600060208284031215613549578081fd5b61245682613475565b600080600060608486031215613566578081fd5b61356f84613475565b925061357d60208501613475565b9150604084015167ffffffffffffffff80821115613599578283fd5b818601915086601f8301126135ac578283fd5b8151818111156135be576135be6141b8565b6135d1601f8201601f1916602001614116565b91508082528760208285010111156135e7578384fd5b6135f8816020840160208601614176565b5080925050509250925092565b600060208284031215613616578081fd5b5035919050565b6000806000806000806000806000898b0361024081121561363c578586fd5b6101a08082121561364b578687fd5b8b9a508a01359850506101c089013596506101e089013567ffffffffffffffff80821115613677578687fd5b6136838d838e01613485565b90985096506102008c013591508082111561369c578586fd5b6136a88d838e01613485565b90965094506102208c01359150808211156136c1578384fd5b506136ce8c828d01613485565b915080935050809150509295985092959850929598565b600080600061022084860312156136fa578283fd5b61370485856134cc565b925061020084013567ffffffffffffffff811115613720578283fd5b61372c86828701613485565b9497909650939450505050565b6000806000806000806102608789031215613752578182fd5b61375c88886134cc565b9550610200870135945061022087013567ffffffffffffffff80821115613781578384fd5b61378d8a838b01613485565b90965094506102408901359150808211156137a6578384fd5b506137b389828a01613485565b979a9699509497509295939492505050565b600061020082840312156137d7578081fd5b6137df6140ec565b6137e88361346a565b81526137f66020840161346a565b60208201526138076040840161346a565b60408201526138186060840161346a565b60608201526138296080840161346a565b608082015261383a60a0840161346a565b60a082015261384b60c0840161346a565b60c082015261385c60e0840161346a565b60e082015261010061386f81850161346a565b9082015261012083810135908201526101408084013590820152610160808401359082015261018080840135908201526101a080840135908201526101c080840135908201526101e0928301359281019290925250919050565b6000602082840312156138da578081fd5b5051919050565b600080604083850312156138f3578182fd5b82359150602083013561352d816141ce565b600080600060608486031215613919578081fd5b83359250602084013561392b816141ce565b9150604084013561393b816141ce565b809150509250925092565b81835281816020850137506000828201602090810191909152601f909101601f19169091010190565b60008151808452613987816020860160208601614176565b601f01601f19169290920160200192915050565b6139b5826139a88361346a565b6001600160a01b03169052565b6139c16020820161346a565b6001600160a01b031660208301526139db6040820161346a565b6001600160a01b031660408301526139f56060820161346a565b6001600160a01b03166060830152613a0f6080820161346a565b6001600160a01b03166080830152613a2960a0820161346a565b6001600160a01b031660a0830152613a4360c0820161346a565b6001600160a01b031660c0830152613a5d60e0820161346a565b6001600160a01b031660e0830152610100613a7982820161346a565b6001600160a01b03169083015261012081810135908301526101408082013590830152610160808201359083015261018080820135908301526101a080820135908301526101c080820135908301526101e090810135910152565b80516001600160a01b031682526020810151613afb60208401826001600160a01b03169052565b506040810151613b1660408401826001600160a01b03169052565b506060810151613b3160608401826001600160a01b03169052565b506080810151613b4c60808401826001600160a01b03169052565b5060a0810151613b6760a08401826001600160a01b03169052565b5060c0810151613b8260c08401826001600160a01b03169052565b5060e0810151613b9d60e08401826001600160a01b03169052565b50610100818101516001600160a01b03169083015261012080820151908301526101408082015190830152610160808201519083015261018080820151908301526101a080820151908301526101c080820151908301526101e090810151910152565b8183823760009101908152919050565b60008251613c22818460208701614176565b9190910192915050565b8781526001600160a01b0387811660208301528681166040830152851660608201526080810184905260c060a08201819052600090613c6e9083018486613946565b9998505050505050505050565b602081526000612456602083018461396f565b602080825260079082015266234f4f3a30323960c81b604082015260600190565b6020808252601f908201527f5265656e7472616e637947756172643a207265656e7472616e742063616c6c00604082015260600190565b6101a08101613cf8826139a88561346a565b613d046020840161346a565b6001600160a01b03166020830152613d1e6040840161346a565b6001600160a01b03166040830152613d386060840161346a565b6001600160a01b03166060830152613d526080840161346a565b6001600160a01b03166080830152613d6c60a0840161346a565b6001600160a01b031660a0830152613d8660c0840161346a565b6001600160a01b031660c0830152613da060e0840161346a565b6001600160a01b031660e0830152610100613dbc84820161346a565b6001600160a01b03169083015261012083810135908301526101408084013590830152610160808401359083015261018092830135929091019190915290565b81516001600160a01b031681526101a081016020830151613e2860208401826001600160a01b03169052565b506040830151613e4360408401826001600160a01b03169052565b506060830151613e5e60608401826001600160a01b03169052565b506080830151613e7960808401826001600160a01b03169052565b5060a0830151613e9460a08401826001600160a01b03169052565b5060c0830151613eaf60c08401826001600160a01b03169052565b5060e0830151613eca60e08401826001600160a01b03169052565b50610100838101516001600160a01b03169083015261012080840151908301526101408084015190830152610160808401519083015261018092830151929091019190915290565b60208152815160208201526000602083015160806040840152613f3860a084018261396f565b6040850151606085810191909152909401516001600160a01b03166080909301929092525090919050565b6020815281516020820152602082015160408201526000604083015160a06060840152613f9360c084018261396f565b6060850151608085810191909152909401516001600160a01b031660a0909301929092525090919050565b6102208101613fcd828561399b565b6001600160a01b03929092166102009190910152919050565b60006102e0613ff5838e61399b565b8b610200840152806102208401526140108184018b8d613946565b905082810361024084015261402681898b613946565b90508615156102608401528515156102808401528281036102a084015261404d818661396f565b91505060018060a01b0383166102c08301529b9a5050505050505050505050565b61020081016124098284613ad4565b600061028061408c838c613ad4565b6001600160a01b038a1661020084015261022083018190526140b1818401898b613946565b90508281036102408401526140c7818789613946565b90508281036102608401526140dd818587613946565b9b9a5050505050505050505050565b604051610200810167ffffffffffffffff81118282101715614110576141106141b8565b60405290565b604051601f8201601f1916810167ffffffffffffffff8111828210171561413f5761413f6141b8565b604052919050565b6000821982111561415a5761415a6141a2565b500190565b600082821015614171576141716141a2565b500390565b60005b83811015614191578181015183820152602001614179565b83811115612d285750506000910152565b634e487b7160e01b600052601160045260246000fd5b634e487b7160e01b600052604160045260246000fd5b6001600160a01b0381168114611ee957600080fdfea2646970667358221220a75ae2550ae0c77b5a877eeed36ec65526d8cc8f1ec8f5837d4a7f680280250a64736f6c6343000804003360a060405234801561001057600080fd5b50604051610bf0380380610bf083398101604081905261002f91610049565b600160005560601b6001600160601b031916608052610077565b60006020828403121561005a578081fd5b81516001600160a01b0381168114610070578182fd5b9392505050565b60805160601c610b5661009a600039600081816048015260a90152610b566000f3fe6080604052600436106100295760003560e01c806396f32fb81461002e578063cf9a360414610077575b600080fd5b34801561003a57600080fd5b506040516001600160a01b037f00000000000000000000000000000000000000000000000000000000000000001681526020015b60405180910390f35b61008a6100853660046108c4565b610099565b60405161006e93929190610a79565b6000806060336001600160a01b037f000000000000000000000000000000000000000000000000000000000000000016146101065760405162461bcd60e51b8152602060048201526008602482015267234f544d3a30323760c01b60448201526064015b60405180910390fd5b6001600160a01b038816158061012157610121898b8961021b565b600060608b3b158015906101a0578c6001600160a01b031684610145576000610147565b8a5b8a8a6040516101579291906109c1565b60006040518083038185875af1925050503d8060008114610194576040519150601f19603f3d011682016040523d82523d6000602084013e610199565b606091505b5090935091505b826101c0576101b08c8c8c61026b565b836101c0576101c08c8e8c61028f565b8d7f03196b76502b81bbf14393f8b5ed67dff323f1f86667b064820f1fdf293686a18e8e8e8e8e8e898b8a604051610200999897969594939291906109ed565b60405180910390a2919d919c509a5098505050505050505050565b6001600160a01b03831661025b5760405162461bcd60e51b815260206004820152600760248201526608d2504e8c0ccd60ca1b60448201526064016100fd565b6102668383836102da565b505050565b6001600160a01b03831615610285576102668383836103d4565b61026682826103df565b6001600160a01b0383166102cf5760405162461bcd60e51b815260206004820152600760248201526608d1104e8c0ccd60ca1b60448201526064016100fd565b6102668383836103ed565b604051636eb1769f60e11b81523060048201526001600160a01b038381166024830152600091839186169063dd62ed3e9060440160206040518083038186803b15801561032657600080fd5b505afa15801561033a573d6000803e3d6000fd5b505050506040513d601f19601f8201168201806040525081019061035e919061097d565b6103689190610ab8565b6040516001600160a01b0385166024820152604481018290529091506103ce90859063095ea7b360e01b906064015b60408051601f198184030181529190526020810180516001600160e01b03166001600160e01b03199093169290921790915261050f565b50505050565b6102668383836105e1565b6103e98282610611565b5050565b604051636eb1769f60e11b81523060048201526001600160a01b0383811660248301526000919085169063dd62ed3e9060440160206040518083038186803b15801561043857600080fd5b505afa15801561044c573d6000803e3d6000fd5b505050506040513d601f19601f82011682018060405250810190610470919061097d565b9050818110156104d45760405162461bcd60e51b815260206004820152602960248201527f5361666545524332303a2064656372656173656420616c6c6f77616e63652062604482015268656c6f77207a65726f60b81b60648201526084016100fd565b6040516001600160a01b0384166024820152828203604482018190529061050890869063095ea7b360e01b90606401610397565b5050505050565b6000610564826040518060400160405280602081526020017f5361666545524332303a206c6f772d6c6576656c2063616c6c206661696c6564815250856001600160a01b031661072a9092919063ffffffff16565b805190915015610266578080602001905181019061058291906108a4565b6102665760405162461bcd60e51b815260206004820152602a60248201527f5361666545524332303a204552433230206f7065726174696f6e20646964206e6044820152691bdd081cdd58d8d9595960b21b60648201526084016100fd565b6040516001600160a01b03831660248201526044810182905261026690849063a9059cbb60e01b90606401610397565b804710156106615760405162461bcd60e51b815260206004820152601d60248201527f416464726573733a20696e73756666696369656e742062616c616e636500000060448201526064016100fd565b6000826001600160a01b03168260405160006040518083038185875af1925050503d80600081146106ae576040519150601f19603f3d011682016040523d82523d6000602084013e6106b3565b606091505b50509050806102665760405162461bcd60e51b815260206004820152603a60248201527f416464726573733a20756e61626c6520746f2073656e642076616c75652c207260448201527f6563697069656e74206d6179206861766520726576657274656400000000000060648201526084016100fd565b60606107398484600085610743565b90505b9392505050565b6060824710156107a45760405162461bcd60e51b815260206004820152602660248201527f416464726573733a20696e73756666696369656e742062616c616e636520666f6044820152651c8818d85b1b60d21b60648201526084016100fd565b843b6107f25760405162461bcd60e51b815260206004820152601d60248201527f416464726573733a2063616c6c20746f206e6f6e2d636f6e747261637400000060448201526064016100fd565b600080866001600160a01b0316858760405161080e91906109d1565b60006040518083038185875af1925050503d806000811461084b576040519150601f19603f3d011682016040523d82523d6000602084013e610850565b606091505b509150915061086082828661086b565b979650505050505050565b6060831561087a57508161073c565b82511561088a5782518084602001fd5b8160405162461bcd60e51b81526004016100fd9190610aa5565b6000602082840312156108b5578081fd5b8151801515811461073c578182fd5b600080600080600080600060c0888a0312156108de578283fd5b8735965060208801356108f081610b08565b9550604088013561090081610b08565b9450606088013561091081610b08565b93506080880135925060a088013567ffffffffffffffff80821115610933578384fd5b818a0191508a601f830112610946578384fd5b813581811115610954578485fd5b8b6020828501011115610965578485fd5b60208301945080935050505092959891949750929550565b60006020828403121561098e578081fd5b5051919050565b600081518084526109ad816020860160208601610adc565b601f01601f19169290920160200192915050565b8183823760009101908152919050565b600082516109e3818460208701610adc565b9190910192915050565b6001600160a01b038a8116825289811660208301528816604082015260608101879052610100608082018190528101859052600061012086888285013781818885010152601f19601f8801168301818482030160a0850152610a5182820188610995565b9250505083151560c0830152610a6b60e083018415159052565b9a9950505050505050505050565b83151581528215156020820152606060408201526000610a9c6060830184610995565b95945050505050565b60208152600061073c6020830184610995565b60008219821115610ad757634e487b7160e01b81526011600452602481fd5b500190565b60005b83811015610af7578181015183820152602001610adf565b838111156103ce5750506000910152565b6001600160a01b0381168114610b1d57600080fd5b5056fea26469706673582212202269da452bba446914352b77d48fb1282f9d93d6579e7d5164e4949a9439643864736f6c63430008040033",
  "devdoc": {
    "author": "Connext <support@connext.network>",
    "kind": "dev",
    "methods": {
      "addAssetId(address)": {
        "params": {
          "assetId": "AssetId to add"
        }
      },
      "addLiquidity(uint256,address)": {
        "params": {
          "amount": "The amount of liquidity to add for the router",
          "assetId": "The address (or `address(0)` if native asset) of the                asset you're adding liquidity for"
        }
      },
      "addLiquidityFor(uint256,address,address)": {
        "params": {
          "amount": "The amount of liquidity to add for the router",
          "assetId": "The address (or `address(0)` if native asset) of the                asset you're adding liquidity for",
          "router": "The router you are adding liquidity on behalf of"
        }
      },
      "addRouter(address)": {
        "params": {
          "router": "Router address to add"
        }
      },
      "cancel((address,address,address,address,address,address,address,address,address,bytes32,bytes32,uint256,uint256,uint256,uint256,uint256),bytes)": {
        "params": {
          "signature": "The user's signature that allows a transaction to be                  cancelled by a relayer",
          "txData": "All of the data (invariant and variant) for a crosschain               transaction. The variant data provided is checked against               what was stored when the `prepare` function was called."
        }
      },
      "fulfill((address,address,address,address,address,address,address,address,address,bytes32,bytes32,uint256,uint256,uint256,uint256,uint256),uint256,bytes,bytes)": {
        "params": {
          "callData": "The calldata to be sent to and executed by the                  `FulfillHelper`",
          "relayerFee": "The fee that should go to the relayer when they are                   calling the function on the receiving chain for the user",
          "signature": "The users signature on the transaction id + fee that                  can be used by the router to unlock the transaction on                   the sending chain",
          "txData": "All of the data (invariant and variant) for a crosschain               transaction. The variant data provided is checked against               what was stored when the `prepare` function was called."
        }
      },
      "prepare((address,address,address,address,address,address,address,address,address,uint256,uint256,bytes32,bytes32),uint256,uint256,bytes,bytes,bytes)": {
        "params": {
          "amount": "The amount of the transaction on this chain",
          "bidSignature": "The signature of the bidder on the encoded bid for                     this transaction. Only used within the function for                     event emission. The validity of the bid and                     bidSignature are enforced offchain",
          "encodedBid": "The encoded bid that was accepted by the user for this                   crosschain transfer. It is supplied as a param to the                   function but is only used in event emission",
          "encryptedCallData": "The calldata to be executed when the tx is                          fulfilled. Used in the function to allow the user                          to reconstruct the tx from events. Hash is stored                          onchain to prevent shenanigans.",
          "expiry": "The block.timestamp when the transaction will no longer be               fulfillable and is freely cancellable on this chain",
          "invariantData": "The data for a crosschain transaction that will                      not change between sending and receiving chains.                      The hash of this data is used as the key to store                       the inforamtion that does change between chains                       (amount,expiry,preparedBlock) for verification"
        }
      },
      "removeAssetId(address)": {
        "params": {
          "assetId": "AssetId to remove"
        }
      },
      "removeLiquidity(uint256,address,address)": {
        "params": {
          "amount": "The amount of liquidity to remove for the router",
          "assetId": "The address (or `address(0)` if native asset) of the                asset you're removing liquidity for",
          "recipient": "The address that will receive the liquidity being removed"
        }
      },
      "removeRouter(address)": {
        "params": {
          "router": "Router address to remove"
        }
      }
    },
    "stateVariables": {
      "MAX_TIMEOUT": {
        "details": "Maximum timeout (will be the highest on the sending chain)"
      },
      "MIN_TIMEOUT": {
        "details": "Minimum timeout (will be the lowest on the receiving chain)"
      },
      "approvedAssets": {
        "details": "Mapping of allowed assetIds on same chain as contract"
      },
      "approvedRouters": {
        "details": "Mapping of allowed router addresses. Must be added to both      sending and receiving chains when forwarding a transfer."
      },
      "chainId": {
        "details": "The stored chain id of the contract, may be passed in to avoid any       evm issues"
      },
      "interpreter": {
        "details": "The external contract that will execute crosschain      calldata"
      },
      "routerBalances": {
        "details": "Mapping of router to balance specific to asset"
      },
      "variantTransactionData": {
        "details": "Mapping of hash of `InvariantTransactionData` to the hash      of the `VariantTransactionData`"
      }
    },
    "title": "TransactionManager",
    "version": 1
  },
  "userdoc": {
    "kind": "user",
    "methods": {
      "acceptProposedOwner()": {
        "notice": "Transfers ownership of the contract to a new account (`newOwner`). Can only be called by the current owner."
      },
      "addAssetId(address)": {
        "notice": "Used to add assets on same chain as contract that can         be transferred."
      },
      "addLiquidity(uint256,address)": {
        "notice": "This is used by any router to increase their available         liquidity for a given asset."
      },
      "addLiquidityFor(uint256,address,address)": {
        "notice": "This is used by anyone to increase a router's available         liquidity for a given asset."
      },
      "addRouter(address)": {
        "notice": "Used to add routers that can transact crosschain"
      },
      "assetOwnershipTimestamp()": {
        "notice": "Returns the timestamp when asset ownership was last proposed to be renounced"
      },
      "cancel((address,address,address,address,address,address,address,address,address,bytes32,bytes32,uint256,uint256,uint256,uint256,uint256),bytes)": {
        "notice": "Any crosschain transaction can be cancelled after it has been         created to prevent indefinite lock up of funds. After the         transaction has expired, anyone can cancel it. Before the         expiry, only the recipient of the funds on the given chain is         able to cancel. On the sending chain, this means only the router         is able to cancel before the expiry, while only the user can         prematurely cancel on the receiving chain."
      },
      "delay()": {
        "notice": "Returns the delay period before a new owner can be accepted."
      },
      "fulfill((address,address,address,address,address,address,address,address,address,bytes32,bytes32,uint256,uint256,uint256,uint256,uint256),uint256,bytes,bytes)": {
        "notice": "This function completes a crosschain transaction. When called on         the receiving chain, the user reveals their signature on the         transactionId and is sent the amount corresponding to the number         of shares the router locked when calling `prepare`. The router          then uses this signature to unlock the corresponding funds on the          receiving chain, which are then added back to their available          liquidity. The user includes a relayer fee since it is not          assumed they will have gas on the receiving chain. This function          *must* be called before the transaction expiry has elapsed."
      },
      "getChainId()": {
        "notice": "Gets the chainId for this contract. If not specified during init         will use the block.chainId"
      },
      "getStoredChainId()": {
        "notice": "Allows us to get the chainId that this contract has stored"
      },
      "isAssetOwnershipRenounced()": {
        "notice": "Indicates if the ownership of the asset whitelist has been renounced"
      },
      "isRouterOwnershipRenounced()": {
        "notice": "Indicates if the ownership of the router whitelist has been renounced"
      },
      "owner()": {
        "notice": "Returns the address of the current owner."
      },
      "prepare((address,address,address,address,address,address,address,address,address,uint256,uint256,bytes32,bytes32),uint256,uint256,bytes,bytes,bytes)": {
        "notice": "This function creates a crosschain transaction. When called on         the sending chain, the user is expected to lock up funds. When         called on the receiving chain, the router deducts the transfer         amount from the available liquidity. The majority of the         information about a given transfer does not change between chains,         with three notable exceptions: `amount`, `expiry`, and          `preparedBlock`. The `amount` and `expiry` are decremented         between sending and receiving chains to provide an incentive for          the router to complete the transaction and time for the router to         fulfill the transaction on the sending chain after the unlocking         signature is revealed, respectively."
      },
      "proposeAssetOwnershipRenunciation()": {
        "notice": "Indicates if the ownership of the asset whitelist has been renounced"
      },
      "proposeNewOwner(address)": {
        "notice": "Sets the timestamp for an owner to be proposed, and sets the newly proposed owner as step 1 in a 2-step process"
      },
      "proposeRouterOwnershipRenunciation()": {
        "notice": "Indicates if the ownership of the router whitelist has been renounced"
      },
      "proposed()": {
        "notice": "Returns the address of the proposed owner."
      },
      "proposedTimestamp()": {
        "notice": "Returns the address of the proposed owner."
      },
      "removeAssetId(address)": {
        "notice": "Used to remove assets on same chain as contract that can         be transferred."
      },
      "removeLiquidity(uint256,address,address)": {
        "notice": "This is used by any router to decrease their available         liquidity for a given asset."
      },
      "removeRouter(address)": {
        "notice": "Used to remove routers that can transact crosschain"
      },
      "renounceAssetOwnership()": {
        "notice": "Indicates if the ownership of the asset whitelist has been renounced"
      },
      "renounceOwnership()": {
        "notice": "Renounces ownership of the contract after a delay"
      },
      "renounceRouterOwnership()": {
        "notice": "Indicates if the ownership of the asset whitelist has been renounced"
      },
      "renounced()": {
        "notice": "Indicates if the ownership has been renounced() by checking if current owner is address(0)"
      },
      "routerOwnershipTimestamp()": {
        "notice": "Returns the timestamp when router ownership was last proposed to be renounced"
      }
    },
    "notice": "This contract holds the logic to facilitate crosschain transactions.         Transactions go through three phases in the happy case:         1. Route Auction (offchain): User broadcasts to our network          signalling their desired route. Routers respond with sealed bids          containing commitments to fulfilling the transaction within a          certain time and price range.         2. Prepare: Once the auction is completed, the transaction can be          prepared. The user submits a transaction to `TransactionManager`          contract on sender-side chain containing router's signed bid. This          transaction locks up the users funds on the sending chain. Upon          detecting an event containing their signed bid from the chain,          router submits the same transaction to `TransactionManager` on the          receiver-side chain, and locks up a corresponding amount of          liquidity. The amount locked on the receiving chain is `sending          amount - auction fee` so the router is incentivized to complete the          transaction.         3. Fulfill: Upon detecting the `TransactionPrepared` event on the          receiver-side chain, the user signs a message and sends it to a          relayer, who will earn a fee for submission. The relayer (which may          be the router) then submits the message to the `TransactionManager`          to complete their transaction on receiver-side chain and claim the          funds locked by the router. A relayer is used here to allow users          to submit transactions with arbitrary calldata on the receiving          chain without needing gas to do so. The router then submits the          same signed message and completes transaction on sender-side,          unlocking the original `amount`.         If a transaction is not fulfilled within a fixed timeout, it          reverts and can be reclaimed by the party that called `prepare` on          each chain (initiator). Additionally, transactions can be cancelled          unilaterally by the person owed funds on that chain (router for          sending chain, user for receiving chain) prior to expiry.",
    "version": 1
  },
  "storageLayout": {
    "storage": [
      {
        "astId": 114,
        "contract": "contracts/TransactionManager.sol:TransactionManager",
        "label": "_status",
        "offset": 0,
        "slot": "0",
        "type": "t_uint256"
      },
      {
        "astId": 2382,
        "contract": "contracts/TransactionManager.sol:TransactionManager",
        "label": "_owner",
        "offset": 0,
        "slot": "1",
        "type": "t_address"
      },
      {
        "astId": 2384,
        "contract": "contracts/TransactionManager.sol:TransactionManager",
        "label": "_proposed",
        "offset": 0,
        "slot": "2",
        "type": "t_address"
      },
      {
        "astId": 2386,
        "contract": "contracts/TransactionManager.sol:TransactionManager",
        "label": "_proposedOwnershipTimestamp",
        "offset": 0,
        "slot": "3",
        "type": "t_uint256"
      },
      {
        "astId": 2388,
        "contract": "contracts/TransactionManager.sol:TransactionManager",
        "label": "_routerOwnershipRenounced",
        "offset": 0,
        "slot": "4",
        "type": "t_bool"
      },
      {
        "astId": 2390,
        "contract": "contracts/TransactionManager.sol:TransactionManager",
        "label": "_routerOwnershipTimestamp",
        "offset": 0,
        "slot": "5",
        "type": "t_uint256"
      },
      {
        "astId": 2392,
        "contract": "contracts/TransactionManager.sol:TransactionManager",
        "label": "_assetOwnershipRenounced",
        "offset": 0,
        "slot": "6",
        "type": "t_bool"
      },
      {
        "astId": 2394,
        "contract": "contracts/TransactionManager.sol:TransactionManager",
        "label": "_assetOwnershipTimestamp",
        "offset": 0,
        "slot": "7",
        "type": "t_uint256"
      },
      {
        "astId": 2892,
        "contract": "contracts/TransactionManager.sol:TransactionManager",
        "label": "routerBalances",
        "offset": 0,
        "slot": "8",
        "type": "t_mapping(t_address,t_mapping(t_address,t_uint256))"
      },
      {
        "astId": 2897,
        "contract": "contracts/TransactionManager.sol:TransactionManager",
        "label": "approvedRouters",
        "offset": 0,
        "slot": "9",
        "type": "t_mapping(t_address,t_bool)"
      },
      {
        "astId": 2902,
        "contract": "contracts/TransactionManager.sol:TransactionManager",
        "label": "approvedAssets",
        "offset": 0,
        "slot": "10",
        "type": "t_mapping(t_address,t_bool)"
      },
      {
        "astId": 2907,
        "contract": "contracts/TransactionManager.sol:TransactionManager",
        "label": "variantTransactionData",
        "offset": 0,
        "slot": "11",
        "type": "t_mapping(t_bytes32,t_bytes32)"
      }
    ],
    "types": {
      "t_address": {
        "encoding": "inplace",
        "label": "address",
        "numberOfBytes": "20"
      },
      "t_bool": {
        "encoding": "inplace",
        "label": "bool",
        "numberOfBytes": "1"
      },
      "t_bytes32": {
        "encoding": "inplace",
        "label": "bytes32",
        "numberOfBytes": "32"
      },
      "t_mapping(t_address,t_bool)": {
        "encoding": "mapping",
        "key": "t_address",
        "label": "mapping(address => bool)",
        "numberOfBytes": "32",
        "value": "t_bool"
      },
      "t_mapping(t_address,t_mapping(t_address,t_uint256))": {
        "encoding": "mapping",
        "key": "t_address",
        "label": "mapping(address => mapping(address => uint256))",
        "numberOfBytes": "32",
        "value": "t_mapping(t_address,t_uint256)"
      },
      "t_mapping(t_address,t_uint256)": {
        "encoding": "mapping",
        "key": "t_address",
        "label": "mapping(address => uint256)",
        "numberOfBytes": "32",
        "value": "t_uint256"
      },
      "t_mapping(t_bytes32,t_bytes32)": {
        "encoding": "mapping",
        "key": "t_bytes32",
        "label": "mapping(bytes32 => bytes32)",
        "numberOfBytes": "32",
        "value": "t_bytes32"
      },
      "t_uint256": {
        "encoding": "inplace",
        "label": "uint256",
        "numberOfBytes": "32"
      }
    }
  }
}