{
  "address": "0xB71c21FBFC346ad9b8B2C706460F892139797E42",
  "abi": [
    {
      "inputs": [
        {
          "internalType": "address",
          "name": "_wrapped",
          "type": "address"
        }
      ],
      "stateMutability": "nonpayable",
      "type": "constructor"
    },
    {
      "anonymous": false,
      "inputs": [
        {
          "indexed": false,
          "internalType": "address",
          "name": "tokenAddress",
          "type": "address"
        },
        {
          "indexed": false,
          "internalType": "address",
          "name": "source",
          "type": "address"
        }
      ],
      "name": "AggregatorUpdated",
      "type": "event"
    },
    {
      "anonymous": false,
      "inputs": [
        {
          "indexed": false,
          "internalType": "address",
          "name": "token",
          "type": "address"
        },
        {
          "indexed": false,
          "internalType": "uint256",
          "name": "oldPrice",
          "type": "uint256"
        },
        {
          "indexed": false,
          "internalType": "uint256",
          "name": "newPrice",
          "type": "uint256"
        }
      ],
      "name": "DirectPriceUpdated",
      "type": "event"
    },
    {
      "anonymous": false,
      "inputs": [
        {
          "indexed": false,
          "internalType": "address",
          "name": "oldAdmin",
          "type": "address"
        },
        {
          "indexed": false,
          "internalType": "address",
          "name": "newAdmin",
          "type": "address"
        }
      ],
      "name": "NewAdmin",
      "type": "event"
    },
    {
      "anonymous": false,
      "inputs": [
        {
          "indexed": false,
          "internalType": "address",
          "name": "token",
          "type": "address"
        },
        {
          "indexed": false,
          "internalType": "address",
          "name": "baseToken",
          "type": "address"
        },
        {
          "indexed": false,
          "internalType": "address",
          "name": "lpToken",
          "type": "address"
        },
        {
          "indexed": false,
          "internalType": "bool",
          "name": "_active",
          "type": "bool"
        }
      ],
      "name": "PriceRecordUpdated",
      "type": "event"
    },
    {
      "inputs": [],
      "name": "admin",
      "outputs": [
        {
          "internalType": "address",
          "name": "",
          "type": "address"
        }
      ],
      "stateMutability": "view",
      "type": "function"
    },
    {
      "inputs": [
        {
          "internalType": "address",
          "name": "",
          "type": "address"
        }
      ],
      "name": "aggregators",
      "outputs": [
        {
          "internalType": "contract AggregatorV3Interface",
          "name": "",
          "type": "address"
        }
      ],
      "stateMutability": "view",
      "type": "function"
    },
    {
      "inputs": [
        {
          "internalType": "address",
          "name": "",
          "type": "address"
        }
      ],
      "name": "assetPrices",
      "outputs": [
        {
          "internalType": "uint256",
          "name": "",
          "type": "uint256"
        }
      ],
      "stateMutability": "view",
      "type": "function"
    },
    {
      "inputs": [
        {
          "internalType": "address",
          "name": "_tokenAddress",
          "type": "address"
        }
      ],
      "name": "getPriceFromChainlink",
      "outputs": [
        {
          "internalType": "uint256",
          "name": "",
          "type": "uint256"
        }
      ],
      "stateMutability": "view",
      "type": "function"
    },
    {
      "inputs": [
        {
          "internalType": "address",
          "name": "_tokenAddress",
          "type": "address"
        }
      ],
      "name": "getPriceFromDex",
      "outputs": [
        {
          "internalType": "uint256",
          "name": "",
          "type": "uint256"
        }
      ],
      "stateMutability": "view",
      "type": "function"
    },
    {
      "inputs": [
        {
          "internalType": "address",
          "name": "_tokenAddress",
          "type": "address"
        }
      ],
      "name": "getPriceFromOracle",
      "outputs": [
        {
          "internalType": "uint256",
          "name": "",
          "type": "uint256"
        }
      ],
      "stateMutability": "view",
      "type": "function"
    },
    {
      "inputs": [
        {
          "internalType": "address",
          "name": "_tokenAddress",
          "type": "address"
        }
      ],
      "name": "getTokenPrice",
      "outputs": [
        {
          "internalType": "uint256",
          "name": "",
          "type": "uint256"
        }
      ],
      "stateMutability": "view",
      "type": "function"
    },
    {
      "inputs": [],
      "name": "isPriceOracle",
      "outputs": [
        {
          "internalType": "bool",
          "name": "",
          "type": "bool"
        }
      ],
      "stateMutability": "view",
      "type": "function"
    },
    {
      "inputs": [
        {
          "internalType": "address",
          "name": "",
          "type": "address"
        }
      ],
      "name": "priceRecords",
      "outputs": [
        {
          "internalType": "address",
          "name": "token",
          "type": "address"
        },
        {
          "internalType": "address",
          "name": "baseToken",
          "type": "address"
        },
        {
          "internalType": "address",
          "name": "lpToken",
          "type": "address"
        },
        {
          "internalType": "bool",
          "name": "active",
          "type": "bool"
        }
      ],
      "stateMutability": "view",
      "type": "function"
    },
    {
      "inputs": [
        {
          "internalType": "address",
          "name": "newAdmin",
          "type": "address"
        }
      ],
      "name": "setAdmin",
      "outputs": [],
      "stateMutability": "nonpayable",
      "type": "function"
    },
    {
      "inputs": [
        {
          "internalType": "address[]",
          "name": "tokenAddresses",
          "type": "address[]"
        },
        {
          "internalType": "address[]",
          "name": "sources",
          "type": "address[]"
        }
      ],
      "name": "setAggregators",
      "outputs": [],
      "stateMutability": "nonpayable",
      "type": "function"
    },
    {
      "inputs": [
        {
          "internalType": "address",
          "name": "_token",
          "type": "address"
        },
        {
          "internalType": "address",
          "name": "_baseToken",
          "type": "address"
        },
        {
          "internalType": "address",
          "name": "_lpToken",
          "type": "address"
        },
        {
          "internalType": "bool",
          "name": "_active",
          "type": "bool"
        }
      ],
      "name": "setDexPriceInfo",
      "outputs": [],
      "stateMutability": "nonpayable",
      "type": "function"
    },
    {
      "inputs": [
        {
          "internalType": "address",
          "name": "_token",
          "type": "address"
        },
        {
          "internalType": "uint256",
          "name": "_price",
          "type": "uint256"
        }
      ],
      "name": "setDirectPrice",
      "outputs": [],
      "stateMutability": "nonpayable",
      "type": "function"
    },
    {
      "inputs": [],
      "name": "wrapped",
      "outputs": [
        {
          "internalType": "address",
          "name": "",
          "type": "address"
        }
      ],
      "stateMutability": "view",
      "type": "function"
    }
  ],
  "transactionHash": "0xe9e1412c104c96e2efb0529af23d7ee1b9768988a9f0e80705cc21be394d1514",
  "args": [
    "0xe91D153E0b41518A2Ce8Dd3D7944Fa863463a97d"
  ],
  "solcInputHash": "59630b089315b19bfdf4e25af6a81911",
  "bytecode": "0x608060405234801561001057600080fd5b506040516110a73803806110a783398101604081905261002f9161005d565b600180546001600160a01b039092166001600160a01b0319928316179055600080549091163317905561008b565b60006020828403121561006e578081fd5b81516001600160a01b0381168114610084578182fd5b9392505050565b61100d8061009a6000396000f3fe608060405234801561001057600080fd5b50600436106100ea5760003560e01c80635e9a523c1161008c578063856d562d11610066578063856d562d14610202578063a2a870a914610215578063d02641a014610292578063f851a440146102a557600080fd5b80635e9a523c146101b757806366331bba146101d7578063704b6c02146101ef57600080fd5b80633f9fb505116100c85780633f9fb5051461015d5780634c8e42a11461017057806350e70d4814610191578063538e573c146101a457600080fd5b806309a8acb0146100ef578063112cdab9146101045780631994b4fd1461014a575b600080fd5b6101026100fd366004610d4b565b6102b8565b005b61012d610112366004610cd8565b6002602052600090815260409020546001600160a01b031681565b6040516001600160a01b0390911681526020015b60405180910390f35b610102610158366004610cf2565b61038b565b61010261016b366004610d74565b6104f6565b61018361017e366004610cd8565b6106d0565b604051908152602001610141565b60015461012d906001600160a01b031681565b6101836101b2366004610cd8565b6109b6565b6101836101c5366004610cd8565b60046020526000908152604090205481565b6101df600181565b6040519015158152602001610141565b6101026101fd366004610cd8565b6109c9565b610183610210366004610cd8565b610a84565b61025d610223366004610cd8565b6003602052600090815260409020805460018201546002909201546001600160a01b0391821692821691811690600160a01b900460ff1684565b60405161014194939291906001600160a01b039485168152928416602084015292166040820152901515606082015260800190565b6101836102a0366004610cd8565b610bd8565b60005461012d906001600160a01b031681565b6000546001600160a01b031633146103175760405162461bcd60e51b815260206004820152601f60248201527f6f6e6c792061646d696e2063616e20736574206469726563742070726963650060448201526064015b60405180910390fd5b6001600160a01b0382166000818152600460209081526040918290205482519384529083015281018290527fe2c8fb681c257e4e8df5ef1c464cff10ce6b072837628c9b6de5e7239a483e5d9060600160405180910390a16001600160a01b03909116600090815260046020526040902055565b6000546001600160a01b031633146103e55760405162461bcd60e51b815260206004820152601c60248201527f6f6e6c792061646d696e2063616e207365742044455820707269636500000000604482015260640161030e565b6001600160a01b038416600090815260036020526040812090610407856109b6565b90506000811161044e5760405162461bcd60e51b815260206004820152601260248201527134b73b30b634b2103130b9b2903a37b5b2b760711b604482015260640161030e565b81546001600160a01b038781166001600160a01b031992831681178555600185018054898416941684179055600285018054871515600160a01b81026001600160a81b0319909216948a16948517919091179091556040805192835260208301949094529281019190915260608101919091527f896c992bf7fd70df3a83c741812b6b20c1da89e5efeaefa1fde40987c7e91a129060800160405180910390a1505050505050565b6000546001600160a01b0316331461055f5760405162461bcd60e51b815260206004820152602660248201527f6f6e6c79207468652061646d696e206d617920736574207468652061676772656044820152656761746f727360d01b606482015260840161030e565b60005b838110156106c95782828281811061058a57634e487b7160e01b600052603260045260246000fd5b905060200201602081019061059f9190610cd8565b600260008787858181106105c357634e487b7160e01b600052603260045260246000fd5b90506020020160208101906105d89190610cd8565b6001600160a01b039081168252602082019290925260400160002080546001600160a01b031916929091169190911790557f89baabef7dfd0683c0ac16fd2a8431c51b49fbe654c3f7b5ef19763e2ccd88f285858381811061064a57634e487b7160e01b600052603260045260246000fd5b905060200201602081019061065f9190610cd8565b84848481811061067f57634e487b7160e01b600052603260045260246000fd5b90506020020160208101906106949190610cd8565b604080516001600160a01b0393841681529290911660208301520160405180910390a1806106c181610fa6565b915050610562565b5050505050565b6001600160a01b03811660009081526003602052604081206002810154600160a01b900460ff16156109ad57805460028201546040516370a0823160e01b81526001600160a01b03918216600482015260009291909116906370a082319060240160206040518083038186803b15801561074957600080fd5b505afa15801561075d573d6000803e3d6000fd5b505050506040513d601f19601f820116820180604052508101906107819190610ddd565b905060008260000160009054906101000a90046001600160a01b03166001600160a01b031663313ce5676040518163ffffffff1660e01b815260040160206040518083038186803b1580156107d557600080fd5b505afa1580156107e9573d6000803e3d6000fd5b505050506040513d601f19601f8201168201806040525081019061080d9190610e44565b61081b9060ff166012610f8f565b9050600061083461082d83600a610ec8565b8490610c37565b600185015460028601546040516370a0823160e01b81526001600160a01b0391821660048201529293506000929116906370a082319060240160206040518083038186803b15801561088557600080fd5b505afa158015610899573d6000803e3d6000fd5b505050506040513d601f19601f820116820180604052508101906108bd9190610ddd565b905060008560010160009054906101000a90046001600160a01b03166001600160a01b031663313ce5676040518163ffffffff1660e01b815260040160206040518083038186803b15801561091157600080fd5b505afa158015610925573d6000803e3d6000fd5b505050506040513d601f19601f820116820180604052508101906109499190610e44565b6109579060ff166012610f8f565b9050600061096961082d83600a610ec8565b6001880154909150600090610986906001600160a01b03166109b6565b9050600061099e866109988486610c37565b90610c4c565b9b9a5050505050505050505050565b50600092915050565b6000806109c283610a84565b9392505050565b6000546001600160a01b03163314610a235760405162461bcd60e51b815260206004820152601c60248201527f6f6e6c792061646d696e2063616e20736574206e65772061646d696e00000000604482015260640161030e565b600080546001600160a01b038381166001600160a01b031983168117909355604080519190921680825260208201939093527ff9ffabca9c8276e99321725bcb43fb076a6c66a54b7f21c4e8146d8519b417dc910160405180910390a15050565b6001600160a01b0380821660009081526002602052604081205490911680156109ad576000816001600160a01b031663feaf968c6040518163ffffffff1660e01b815260040160a06040518083038186803b158015610ae257600080fd5b505afa158015610af6573d6000803e3d6000fd5b505050506040513d601f19601f82011682018060405250810190610b1a9190610df5565b5050509150508060001415610b33575060009392505050565b60008190506000610bce846001600160a01b031663313ce5676040518163ffffffff1660e01b815260040160206040518083038186803b158015610b7657600080fd5b505afa158015610b8a573d6000803e3d6000fd5b505050506040513d601f19601f82011682018060405250810190610bae9190610e44565b610bbc9060ff166012610f8f565b610bc790600a610ec8565b8390610c37565b9695505050505050565b6000816001600160a01b038116610bf757506001546001600160a01b03165b6001600160a01b03811660009081526004602052604090205480610c2157610c1e826109b6565b90505b806109c257610c2f826106d0565b949350505050565b6000610c438284610f70565b90505b92915050565b6000610c438284610e65565b80356001600160a01b0381168114610c6f57600080fd5b919050565b60008083601f840112610c85578182fd5b50813567ffffffffffffffff811115610c9c578182fd5b6020830191508360208260051b8501011115610cb757600080fd5b9250929050565b805169ffffffffffffffffffff81168114610c6f57600080fd5b600060208284031215610ce9578081fd5b610c4382610c58565b60008060008060808587031215610d07578283fd5b610d1085610c58565b9350610d1e60208601610c58565b9250610d2c60408601610c58565b915060608501358015158114610d40578182fd5b939692955090935050565b60008060408385031215610d5d578182fd5b610d6683610c58565b946020939093013593505050565b60008060008060408587031215610d89578384fd5b843567ffffffffffffffff80821115610da0578586fd5b610dac88838901610c74565b90965094506020870135915080821115610dc4578384fd5b50610dd187828801610c74565b95989497509550505050565b600060208284031215610dee578081fd5b5051919050565b600080600080600060a08688031215610e0c578081fd5b610e1586610cbe565b9450602086015193506040860151925060608601519150610e3860808701610cbe565b90509295509295909350565b600060208284031215610e55578081fd5b815160ff811681146109c2578182fd5b600082610e8057634e487b7160e01b81526012600452602481fd5b500490565b600181815b80851115610ec0578160001904821115610ea657610ea6610fc1565b80851615610eb357918102915b93841c9390800290610e8a565b509250929050565b6000610c438383600082610ede57506001610c46565b81610eeb57506000610c46565b8160018114610f015760028114610f0b57610f27565b6001915050610c46565b60ff841115610f1c57610f1c610fc1565b50506001821b610c46565b5060208310610133831016604e8410600b8410161715610f4a575081810a610c46565b610f548383610e85565b8060001904821115610f6857610f68610fc1565b029392505050565b6000816000190483118215151615610f8a57610f8a610fc1565b500290565b600082821015610fa157610fa1610fc1565b500390565b6000600019821415610fba57610fba610fc1565b5060010190565b634e487b7160e01b600052601160045260246000fdfea264697066735822122094331f7ee771b87b26fb4e819ce6d04c78e813852f09e9efd4ca49a89a066acc64736f6c63430008040033",
  "devdoc": {
    "kind": "dev",
    "methods": {},
    "version": 1
  },
  "userdoc": {
    "kind": "user",
    "methods": {
      "aggregators(address)": {
        "notice": "Chainlink Aggregators"
      },
      "isPriceOracle()": {
        "notice": "Indicator that this is a PriceOracle contract (for inspection)"
      }
    },
    "version": 1
  },
  "storageLayout": {
    "storage": [
      {
        "astId": 1889,
        "contract": "contracts/ConnextPriceOracle.sol:ConnextPriceOracle",
        "label": "admin",
        "offset": 0,
        "slot": "0",
        "type": "t_address"
      },
      {
        "astId": 1891,
        "contract": "contracts/ConnextPriceOracle.sol:ConnextPriceOracle",
        "label": "wrapped",
        "offset": 0,
        "slot": "1",
        "type": "t_address"
      },
      {
        "astId": 1897,
        "contract": "contracts/ConnextPriceOracle.sol:ConnextPriceOracle",
        "label": "aggregators",
        "offset": 0,
        "slot": "2",
        "type": "t_mapping(t_address,t_contract(AggregatorV3Interface)1878)"
      },
      {
        "astId": 1911,
        "contract": "contracts/ConnextPriceOracle.sol:ConnextPriceOracle",
        "label": "priceRecords",
        "offset": 0,
        "slot": "3",
        "type": "t_mapping(t_address,t_struct(PriceInfo)1906_storage)"
      },
      {
        "astId": 1915,
        "contract": "contracts/ConnextPriceOracle.sol:ConnextPriceOracle",
        "label": "assetPrices",
        "offset": 0,
        "slot": "4",
        "type": "t_mapping(t_address,t_uint256)"
      }
    ],
    "types": {
      "t_address": {
        "encoding": "inplace",
        "label": "address",
        "numberOfBytes": "20"
      },
      "t_bool": {
        "encoding": "inplace",
        "label": "bool",
        "numberOfBytes": "1"
      },
      "t_contract(AggregatorV3Interface)1878": {
        "encoding": "inplace",
        "label": "contract AggregatorV3Interface",
        "numberOfBytes": "20"
      },
      "t_mapping(t_address,t_contract(AggregatorV3Interface)1878)": {
        "encoding": "mapping",
        "key": "t_address",
        "label": "mapping(address => contract AggregatorV3Interface)",
        "numberOfBytes": "32",
        "value": "t_contract(AggregatorV3Interface)1878"
      },
      "t_mapping(t_address,t_struct(PriceInfo)1906_storage)": {
        "encoding": "mapping",
        "key": "t_address",
        "label": "mapping(address => struct ConnextPriceOracle.PriceInfo)",
        "numberOfBytes": "32",
        "value": "t_struct(PriceInfo)1906_storage"
      },
      "t_mapping(t_address,t_uint256)": {
        "encoding": "mapping",
        "key": "t_address",
        "label": "mapping(address => uint256)",
        "numberOfBytes": "32",
        "value": "t_uint256"
      },
      "t_struct(PriceInfo)1906_storage": {
        "encoding": "inplace",
        "label": "struct ConnextPriceOracle.PriceInfo",
        "members": [
          {
            "astId": 1899,
            "contract": "contracts/ConnextPriceOracle.sol:ConnextPriceOracle",
            "label": "token",
            "offset": 0,
            "slot": "0",
            "type": "t_address"
          },
          {
            "astId": 1901,
            "contract": "contracts/ConnextPriceOracle.sol:ConnextPriceOracle",
            "label": "baseToken",
            "offset": 0,
            "slot": "1",
            "type": "t_address"
          },
          {
            "astId": 1903,
            "contract": "contracts/ConnextPriceOracle.sol:ConnextPriceOracle",
            "label": "lpToken",
            "offset": 0,
            "slot": "2",
            "type": "t_address"
          },
          {
            "astId": 1905,
            "contract": "contracts/ConnextPriceOracle.sol:ConnextPriceOracle",
            "label": "active",
            "offset": 20,
            "slot": "2",
            "type": "t_bool"
          }
        ],
        "numberOfBytes": "96"
      },
      "t_uint256": {
        "encoding": "inplace",
        "label": "uint256",
        "numberOfBytes": "32"
      }
    }
  }
}