{
  "address": "0xf204a4Ef082f5c04bB89F7D5E6568B796096735a",
  "abi": [
    {
      "inputs": [
        {
          "internalType": "uint32",
          "name": "_domain",
          "type": "uint32"
        },
        {
          "internalType": "uint32",
          "name": "_mirrorDomain",
          "type": "uint32"
        },
        {
          "internalType": "address",
          "name": "",
          "type": "address"
        },
        {
          "internalType": "address",
          "name": "_rootManager",
          "type": "address"
        },
        {
          "internalType": "address",
          "name": "",
          "type": "address"
        }
      ],
      "stateMutability": "nonpayable",
      "type": "constructor"
    },
    {
      "inputs": [],
      "name": "Connector__processMessage_notUsed",
      "type": "error"
    },
    {
      "inputs": [],
      "name": "ProposedOwnable__onlyOwner_notOwner",
      "type": "error"
    },
    {
      "inputs": [],
      "name": "ProposedOwnable__onlyProposed_notProposedOwner",
      "type": "error"
    },
    {
      "inputs": [],
      "name": "ProposedOwnable__ownershipDelayElapsed_delayNotElapsed",
      "type": "error"
    },
    {
      "inputs": [],
      "name": "ProposedOwnable__proposeNewOwner_invalidProposal",
      "type": "error"
    },
    {
      "inputs": [],
      "name": "ProposedOwnable__proposeNewOwner_noOwnershipChange",
      "type": "error"
    },
    {
      "inputs": [],
      "name": "ProposedOwnable__renounceOwnership_invalidProposal",
      "type": "error"
    },
    {
      "inputs": [],
      "name": "ProposedOwnable__renounceOwnership_noProposal",
      "type": "error"
    },
    {
      "anonymous": false,
      "inputs": [
        {
          "indexed": false,
          "internalType": "bytes",
          "name": "data",
          "type": "bytes"
        },
        {
          "indexed": false,
          "internalType": "address",
          "name": "caller",
          "type": "address"
        }
      ],
      "name": "MessageProcessed",
      "type": "event"
    },
    {
      "anonymous": false,
      "inputs": [
        {
          "indexed": false,
          "internalType": "bytes",
          "name": "data",
          "type": "bytes"
        },
        {
          "indexed": false,
          "internalType": "bytes",
          "name": "encodedData",
          "type": "bytes"
        },
        {
          "indexed": false,
          "internalType": "address",
          "name": "caller",
          "type": "address"
        }
      ],
      "name": "MessageSent",
      "type": "event"
    },
    {
      "anonymous": false,
      "inputs": [
        {
          "indexed": false,
          "internalType": "address",
          "name": "previous",
          "type": "address"
        },
        {
          "indexed": false,
          "internalType": "address",
          "name": "current",
          "type": "address"
        }
      ],
      "name": "MirrorConnectorUpdated",
      "type": "event"
    },
    {
      "anonymous": false,
      "inputs": [
        {
          "indexed": true,
          "internalType": "uint32",
          "name": "domain",
          "type": "uint32"
        },
        {
          "indexed": true,
          "internalType": "uint32",
          "name": "mirrorDomain",
          "type": "uint32"
        },
        {
          "indexed": false,
          "internalType": "address",
          "name": "amb",
          "type": "address"
        },
        {
          "indexed": false,
          "internalType": "address",
          "name": "rootManager",
          "type": "address"
        },
        {
          "indexed": false,
          "internalType": "address",
          "name": "mirrorConnector",
          "type": "address"
        }
      ],
      "name": "NewConnector",
      "type": "event"
    },
    {
      "anonymous": false,
      "inputs": [
        {
          "indexed": true,
          "internalType": "address",
          "name": "proposedOwner",
          "type": "address"
        }
      ],
      "name": "OwnershipProposed",
      "type": "event"
    },
    {
      "anonymous": false,
      "inputs": [
        {
          "indexed": true,
          "internalType": "address",
          "name": "previousOwner",
          "type": "address"
        },
        {
          "indexed": true,
          "internalType": "address",
          "name": "newOwner",
          "type": "address"
        }
      ],
      "name": "OwnershipTransferred",
      "type": "event"
    },
    {
      "inputs": [],
      "name": "AMB",
      "outputs": [
        {
          "internalType": "address",
          "name": "",
          "type": "address"
        }
      ],
      "stateMutability": "view",
      "type": "function"
    },
    {
      "inputs": [],
      "name": "DOMAIN",
      "outputs": [
        {
          "internalType": "uint32",
          "name": "",
          "type": "uint32"
        }
      ],
      "stateMutability": "view",
      "type": "function"
    },
    {
      "inputs": [],
      "name": "MIRROR_DOMAIN",
      "outputs": [
        {
          "internalType": "uint32",
          "name": "",
          "type": "uint32"
        }
      ],
      "stateMutability": "view",
      "type": "function"
    },
    {
      "inputs": [],
      "name": "ROOT_MANAGER",
      "outputs": [
        {
          "internalType": "address",
          "name": "",
          "type": "address"
        }
      ],
      "stateMutability": "view",
      "type": "function"
    },
    {
      "inputs": [],
      "name": "acceptProposedOwner",
      "outputs": [],
      "stateMutability": "nonpayable",
      "type": "function"
    },
    {
      "inputs": [
        {
          "internalType": "bytes32",
          "name": "_data",
          "type": "bytes32"
        }
      ],
      "name": "addSpokeRootToAggregate",
      "outputs": [],
      "stateMutability": "nonpayable",
      "type": "function"
    },
    {
      "inputs": [],
      "name": "delay",
      "outputs": [
        {
          "internalType": "uint256",
          "name": "",
          "type": "uint256"
        }
      ],
      "stateMutability": "view",
      "type": "function"
    },
    {
      "inputs": [],
      "name": "mirrorConnector",
      "outputs": [
        {
          "internalType": "address",
          "name": "",
          "type": "address"
        }
      ],
      "stateMutability": "view",
      "type": "function"
    },
    {
      "inputs": [],
      "name": "owner",
      "outputs": [
        {
          "internalType": "address",
          "name": "",
          "type": "address"
        }
      ],
      "stateMutability": "view",
      "type": "function"
    },
    {
      "inputs": [
        {
          "internalType": "bytes",
          "name": "_data",
          "type": "bytes"
        }
      ],
      "name": "processMessage",
      "outputs": [],
      "stateMutability": "nonpayable",
      "type": "function"
    },
    {
      "inputs": [
        {
          "internalType": "address",
          "name": "newlyProposed",
          "type": "address"
        }
      ],
      "name": "proposeNewOwner",
      "outputs": [],
      "stateMutability": "nonpayable",
      "type": "function"
    },
    {
      "inputs": [],
      "name": "proposed",
      "outputs": [
        {
          "internalType": "address",
          "name": "",
          "type": "address"
        }
      ],
      "stateMutability": "view",
      "type": "function"
    },
    {
      "inputs": [],
      "name": "proposedTimestamp",
      "outputs": [
        {
          "internalType": "uint256",
          "name": "",
          "type": "uint256"
        }
      ],
      "stateMutability": "view",
      "type": "function"
    },
    {
      "inputs": [],
      "name": "renounceOwnership",
      "outputs": [],
      "stateMutability": "nonpayable",
      "type": "function"
    },
    {
      "inputs": [],
      "name": "renounced",
      "outputs": [
        {
          "internalType": "bool",
          "name": "",
          "type": "bool"
        }
      ],
      "stateMutability": "view",
      "type": "function"
    },
    {
      "inputs": [
        {
          "internalType": "bytes",
          "name": "_data",
          "type": "bytes"
        },
        {
          "internalType": "bytes",
          "name": "_encodedData",
          "type": "bytes"
        }
      ],
      "name": "sendMessage",
      "outputs": [],
      "stateMutability": "payable",
      "type": "function"
    },
    {
      "inputs": [
        {
          "internalType": "address",
          "name": "_mirrorConnector",
          "type": "address"
        }
      ],
      "name": "setMirrorConnector",
      "outputs": [],
      "stateMutability": "nonpayable",
      "type": "function"
    },
    {
      "inputs": [
        {
          "internalType": "address",
          "name": "_expected",
          "type": "address"
        }
      ],
      "name": "verifySender",
      "outputs": [
        {
          "internalType": "bool",
          "name": "",
          "type": "bool"
        }
      ],
      "stateMutability": "nonpayable",
      "type": "function"
    },
    {
      "stateMutability": "payable",
      "type": "receive"
    }
  ],
  "transactionHash": "0xf3c5adb11222356607fd4f73eda5f008c000e91c69167cf7c4d4cff9dcc1a86f",
  "args": [
    "31337",
    "31338",
    "0x0000000000000000000000000000000000000000",
    "0x9FBDa871d559710256a2502A2517b794B482Db40",
    "0x0000000000000000000000000000000000000000"
  ],
  "numDeployments": 1,
  "solcInputHash": "658e0604d8512e235620028e7538de65",
  "bytecode": "0x6101006040523480156200001257600080fd5b5060405162000fc438038062000fc4833981016040819052620000359162000298565b84846000848184848284816200004b3362000198565b8463ffffffff16600003620000965760405162461bcd60e51b815260206004820152600c60248201526b32b6b83a3c903237b6b0b4b760a11b60448201526064015b60405180910390fd5b6001600160a01b038216620000e25760405162461bcd60e51b815260206004820152601160248201527032b6b83a3c903937b7ba26b0b730b3b2b960791b60448201526064016200008d565b63ffffffff8086166080526001600160a01b0380851660a05283811660c05290851660e0528116156200011a576200011a81620001fd565b604080516001600160a01b0385811682528481166020830152831681830152905163ffffffff86811692908816917f4f9c27c2fe3f84576ea469d367d044da53c45e951617e8389f2b5ed8db9d25f09181900360600190a3505050505050505050506200018d336200019860201b60201c565b505050505062000308565b600080546040516001600160a01b03808516939216917f8be0079c531659141344cd1fd0a4f28419497f9722a3daafe3b4186f6b6457e091a3600080546001600160a01b039092166001600160a01b0319928316178155600255600180549091169055565b600354604080516001600160a01b03928316815291831660208301527fc77bec288fc88f168427f2f7da682eadb26cac89d8d591af6e443da98dff2bbc910160405180910390a1600380546001600160a01b0319166001600160a01b0392909216919091179055565b805163ffffffff811681146200027b57600080fd5b919050565b80516001600160a01b03811681146200027b57600080fd5b600080600080600060a08688031215620002b157600080fd5b620002bc8662000266565b9450620002cc6020870162000266565b9350620002dc6040870162000280565b9250620002ec6060870162000280565b9150620002fc6080870162000280565b90509295509295909350565b60805160a05160c05160e051610c666200035e6000396000818161012b0152610774015260008181610221015281816103c101526107a2015260008181610354015261046c015260006101cd0152610c666000f3fe60806040526004361061010d5760003560e01c80638da5cb5b11610095578063d1851c9211610064578063d1851c92146102f9578063d232c22014610317578063d69f9d6114610342578063d993bee314610376578063db1b76591461039657600080fd5b80638da5cb5b14610286578063b1f8100d146102a4578063c5b350df146102c4578063cc394283146102d957600080fd5b806352a9674b116100dc57806352a9674b146101bb5780635bd11efc146101ef5780635f61e3ec1461020f5780636a42b8f81461025b578063715018a61461027157600080fd5b806314168416146101195780633cf52ffb1461016757806348e6fa23146101865780634ff746f61461019b57600080fd5b3661011457005b600080fd5b34801561012557600080fd5b5061014d7f000000000000000000000000000000000000000000000000000000000000000081565b60405163ffffffff90911681526020015b60405180910390f35b34801561017357600080fd5b506002545b60405190815260200161015e565b610199610194366004610a77565b6103b6565b005b3480156101a757600080fd5b506101996101b6366004610adb565b610461565b3480156101c757600080fd5b5061014d7f000000000000000000000000000000000000000000000000000000000000000081565b3480156101fb57600080fd5b5061019961020a366004610b18565b610507565b34801561021b57600080fd5b506102437f000000000000000000000000000000000000000000000000000000000000000081565b6040516001600160a01b03909116815260200161015e565b34801561026757600080fd5b5062093a80610178565b34801561027d57600080fd5b5061019961053e565b34801561029257600080fd5b506000546001600160a01b0316610243565b3480156102b057600080fd5b506101996102bf366004610b18565b6105f2565b3480156102d057600080fd5b50610199610690565b3480156102e557600080fd5b50600354610243906001600160a01b031681565b34801561030557600080fd5b506001546001600160a01b0316610243565b34801561032357600080fd5b506000546001600160a01b0316155b604051901515815260200161015e565b34801561034e57600080fd5b506102437f000000000000000000000000000000000000000000000000000000000000000081565b34801561038257600080fd5b50610199610391366004610b48565b610700565b3480156103a257600080fd5b506103326103b1366004610b18565b610856565b336001600160a01b037f000000000000000000000000000000000000000000000000000000000000000016146104225760405162461bcd60e51b815260206004820152600c60248201526b10b937b7ba26b0b730b3b2b960a11b60448201526064015b60405180910390fd5b7fdcaa37a042a0087de79018c629bbd29cee82ca80bd9be394e1696bf9e935507782823360405161045593929190610ba7565b60405180910390a15050565b336001600160a01b037f000000000000000000000000000000000000000000000000000000000000000016146104c25760405162461bcd60e51b81526004016104199060208082526004908201526310a0a6a160e11b604082015260600190565b6104cb81610867565b7fb3abc57bfeebd2cac918901db582f71972a8e628bccf19f5ae3e3482b98a5ced81336040516104fc929190610be5565b60405180910390a150565b6000546001600160a01b03163314610532576040516311a8a1bb60e31b815260040160405180910390fd5b61053b81610880565b50565b6000546001600160a01b03163314610569576040516311a8a1bb60e31b815260040160405180910390fd5b62093a806002544261057b9190610c0f565b11610599576040516324e0285f60e21b815260040160405180910390fd5b6002546000036105bc57604051630e4b303f60e21b815260040160405180910390fd5b6001546001600160a01b0316156105e6576040516323295ef960e01b815260040160405180910390fd5b6105f060006108e9565b565b6000546001600160a01b0316331461061d576040516311a8a1bb60e31b815260040160405180910390fd5b6001546001600160a01b03828116911614801561063b575060025415155b15610659576040516311bc066560e11b815260040160405180910390fd5b6000546001600160a01b0380831691160361068757604051634a2fb73f60e11b815260040160405180910390fd5b61053b8161094e565b6001546001600160a01b031633146106bb576040516311a7f27160e11b815260040160405180910390fd5b62093a80600254426106cd9190610c0f565b116106eb576040516324e0285f60e21b815260040160405180910390fd5b6001546105f0906001600160a01b03166108e9565b6000546001600160a01b0316331461072b576040516311a8a1bb60e31b815260040160405180910390fd5b806107605760405162461bcd60e51b8152602060048201526005602482015264656d70747960d81b6044820152606401610419565b60405163473ec9fd60e11b815263ffffffff7f0000000000000000000000000000000000000000000000000000000000000000166004820152602481018290527f00000000000000000000000000000000000000000000000000000000000000006001600160a01b031690638e7d93fa90604401600060405180830381600087803b1580156107ee57600080fd5b505af1158015610802573d6000803e3d6000fd5b505050507fb3abc57bfeebd2cac918901db582f71972a8e628bccf19f5ae3e3482b98a5ced8160405160200161083a91815260200190565b60408051601f19818403018152908290526104fc913390610be5565b60006108618261099c565b92915050565b6040516316c2fdb560e21b815260040160405180910390fd5b600354604080516001600160a01b03928316815291831660208301527fc77bec288fc88f168427f2f7da682eadb26cac89d8d591af6e443da98dff2bbc910160405180910390a1600380546001600160a01b0319166001600160a01b0392909216919091179055565b600080546040516001600160a01b03808516939216917f8be0079c531659141344cd1fd0a4f28419497f9722a3daafe3b4186f6b6457e091a3600080546001600160a01b039092166001600160a01b0319928316178155600255600180549091169055565b42600255600180546001600160a01b0319166001600160a01b0383169081179091556040517f6ab4d119f23076e8ad491bc65ce85f017fb0591dce08755ba8591059cc51737a90600090a250565b60405162461bcd60e51b815260206004820152600a602482015269085cdd5c1c1bdc9d195960b21b6044820152600090606401610419565b634e487b7160e01b600052604160045260246000fd5b600082601f8301126109fb57600080fd5b813567ffffffffffffffff80821115610a1657610a166109d4565b604051601f8301601f19908116603f01168101908282118183101715610a3e57610a3e6109d4565b81604052838152866020858801011115610a5757600080fd5b836020870160208301376000602085830101528094505050505092915050565b60008060408385031215610a8a57600080fd5b823567ffffffffffffffff80821115610aa257600080fd5b610aae868387016109ea565b93506020850135915080821115610ac457600080fd5b50610ad1858286016109ea565b9150509250929050565b600060208284031215610aed57600080fd5b813567ffffffffffffffff811115610b0457600080fd5b610b10848285016109ea565b949350505050565b600060208284031215610b2a57600080fd5b81356001600160a01b0381168114610b4157600080fd5b9392505050565b600060208284031215610b5a57600080fd5b5035919050565b6000815180845260005b81811015610b8757602081850181015186830182015201610b6b565b506000602082860101526020601f19601f83011685010191505092915050565b606081526000610bba6060830186610b61565b8281036020840152610bcc8186610b61565b91505060018060a01b0383166040830152949350505050565b604081526000610bf86040830185610b61565b905060018060a01b03831660208301529392505050565b8181038181111561086157634e487b7160e01b600052601160045260246000fdfea26469706673582212201a68bb1fc2e8c53f7674ee390d55626807d8fc035d060e19abf2d43ac7b3e24664736f6c63430008110033",
  "devdoc": {
    "author": "Connext",
    "kind": "dev",
    "methods": {
      "addSpokeRootToAggregate(bytes32)": {
        "params": {
          "_data": "The data to be added to the merkle tree"
        }
      },
      "processMessage(bytes)": {
        "details": "This is called by AMBs to process messages originating from mirror connector"
      },
      "sendMessage(bytes,bytes)": {
        "details": "This is called by the root manager *only* on mainnet to propagate the aggregate root"
      }
    },
    "title": "AdminHubConnector",
    "version": 1
  },
  "userdoc": {
    "events": {
      "MessageProcessed(bytes,address)": {
        "notice": "Emitted whenever a message is successfully received over an AMB"
      },
      "MessageSent(bytes,bytes,address)": {
        "notice": "Emitted whenever a message is successfully sent over an AMB"
      }
    },
    "kind": "user",
    "methods": {
      "AMB()": {
        "notice": "Address of the AMB on this domain."
      },
      "DOMAIN()": {
        "notice": "The domain of this Messaging (i.e. Connector) contract."
      },
      "MIRROR_DOMAIN()": {
        "notice": "The domain of the corresponding messaging (i.e. Connector) contract."
      },
      "ROOT_MANAGER()": {
        "notice": "RootManager contract address."
      },
      "acceptProposedOwner()": {
        "notice": "Transfers ownership of the contract to a new account (`newOwner`). Can only be called by the current owner."
      },
      "addSpokeRootToAggregate(bytes32)": {
        "notice": "Owner only function that allows merkle roots to be added to the RootManager's merkle tree."
      },
      "delay()": {
        "notice": "Returns the delay period before a new owner can be accepted."
      },
      "mirrorConnector()": {
        "notice": "Connector on L2 for L1 connectors, and vice versa."
      },
      "owner()": {
        "notice": "Returns the address of the current owner."
      },
      "processMessage(bytes)": {
        "notice": "Processes a message received by an AMB"
      },
      "proposeNewOwner(address)": {
        "notice": "Sets the timestamp for an owner to be proposed, and sets the newly proposed owner as step 1 in a 2-step process"
      },
      "proposed()": {
        "notice": "Returns the address of the proposed owner."
      },
      "proposedTimestamp()": {
        "notice": "Returns the address of the proposed owner."
      },
      "renounceOwnership()": {
        "notice": "Renounces ownership of the contract after a delay"
      },
      "renounced()": {
        "notice": "Indicates if the ownership has been renounced() by checking if current owner is address(0)"
      },
      "sendMessage(bytes,bytes)": {
        "notice": "Sends a message over the amb"
      },
      "setMirrorConnector(address)": {
        "notice": "Sets the address of the l2Connector for this domain"
      },
      "verifySender(address)": {
        "notice": "Checks the cross domain sender for a given address"
      }
    },
    "notice": "This contract is a hub connector that allows the owner to create roots which will be added to the RootManager's merkle trees. This is meant to be deployed only as an emergency measure where an AMB is no longer operational and a root needs to be sent in order to allow users to withdraw funds. This contract should be deployed with the same domain as the AMB it is replacing.",
    "version": 1
  },
  "storageLayout": {
    "storage": [
      {
        "astId": 43533,
        "contract": "contracts/messaging/connectors/admin/AdminHubConnector.sol:AdminHubConnector",
        "label": "_owner",
        "offset": 0,
        "slot": "0",
        "type": "t_address"
      },
      {
        "astId": 43535,
        "contract": "contracts/messaging/connectors/admin/AdminHubConnector.sol:AdminHubConnector",
        "label": "_proposed",
        "offset": 0,
        "slot": "1",
        "type": "t_address"
      },
      {
        "astId": 43537,
        "contract": "contracts/messaging/connectors/admin/AdminHubConnector.sol:AdminHubConnector",
        "label": "_proposedOwnershipTimestamp",
        "offset": 0,
        "slot": "2",
        "type": "t_uint256"
      },
      {
        "astId": 32363,
        "contract": "contracts/messaging/connectors/admin/AdminHubConnector.sol:AdminHubConnector",
        "label": "mirrorConnector",
        "offset": 0,
        "slot": "3",
        "type": "t_address"
      }
    ],
    "types": {
      "t_address": {
        "encoding": "inplace",
        "label": "address",
        "numberOfBytes": "20"
      },
      "t_uint256": {
        "encoding": "inplace",
        "label": "uint256",
        "numberOfBytes": "32"
      }
    }
  }
}