{
  "address": "0xC667DE991c8B40C969f6996b4F6167851527c9f6",
  "abi": [
    {
      "inputs": [
        {
          "internalType": "uint32",
          "name": "_domain",
          "type": "uint32"
        },
        {
          "internalType": "uint32",
          "name": "_mirrorDomain",
          "type": "uint32"
        },
        {
          "internalType": "address",
          "name": "_amb",
          "type": "address"
        },
        {
          "internalType": "address",
          "name": "_rootManager",
          "type": "address"
        },
        {
          "internalType": "address",
          "name": "_mirrorConnector",
          "type": "address"
        },
        {
          "internalType": "uint256",
          "name": "_processGas",
          "type": "uint256"
        },
        {
          "internalType": "uint256",
          "name": "_reserveGas",
          "type": "uint256"
        },
        {
          "internalType": "uint256",
          "name": "_delayBlocks",
          "type": "uint256"
        },
        {
          "internalType": "address",
          "name": "_merkle",
          "type": "address"
        },
        {
          "internalType": "address",
          "name": "_watcherManager",
          "type": "address"
        },
        {
          "internalType": "uint256",
          "name": "_gasCap",
          "type": "uint256"
        },
        {
          "internalType": "uint16",
          "name": "_mirrorWormholeChainId",
          "type": "uint16"
        }
      ],
      "stateMutability": "nonpayable",
      "type": "constructor"
    },
    {
      "inputs": [],
      "name": "Connector__processMessage_notUsed",
      "type": "error"
    },
    {
      "inputs": [],
      "name": "ProposedOwnable__onlyOwner_notOwner",
      "type": "error"
    },
    {
      "inputs": [],
      "name": "ProposedOwnable__onlyProposed_notProposedOwner",
      "type": "error"
    },
    {
      "inputs": [],
      "name": "ProposedOwnable__ownershipDelayElapsed_delayNotElapsed",
      "type": "error"
    },
    {
      "inputs": [],
      "name": "ProposedOwnable__proposeNewOwner_invalidProposal",
      "type": "error"
    },
    {
      "inputs": [],
      "name": "ProposedOwnable__proposeNewOwner_noOwnershipChange",
      "type": "error"
    },
    {
      "inputs": [],
      "name": "ProposedOwnable__renounceOwnership_invalidProposal",
      "type": "error"
    },
    {
      "inputs": [],
      "name": "ProposedOwnable__renounceOwnership_noProposal",
      "type": "error"
    },
    {
      "inputs": [],
      "name": "RateLimited__rateLimited_messageSendRateExceeded",
      "type": "error"
    },
    {
      "inputs": [],
      "name": "TypedMemView__index_indexMoreThan32Bytes",
      "type": "error"
    },
    {
      "inputs": [
        {
          "internalType": "uint256",
          "name": "loc",
          "type": "uint256"
        },
        {
          "internalType": "uint256",
          "name": "len",
          "type": "uint256"
        },
        {
          "internalType": "uint256",
          "name": "index",
          "type": "uint256"
        },
        {
          "internalType": "uint256",
          "name": "slice",
          "type": "uint256"
        }
      ],
      "name": "TypedMemView__index_overrun",
      "type": "error"
    },
    {
      "inputs": [],
      "name": "TypedMemView__unsafeCopyTo_identityOOG",
      "type": "error"
    },
    {
      "inputs": [],
      "name": "TypedMemView__unsafeCopyTo_invalidPointer",
      "type": "error"
    },
    {
      "inputs": [],
      "name": "TypedMemView__unsafeCopyTo_nullPointer",
      "type": "error"
    },
    {
      "anonymous": false,
      "inputs": [
        {
          "indexed": false,
          "internalType": "bytes32",
          "name": "root",
          "type": "bytes32"
        }
      ],
      "name": "AggregateRootReceived",
      "type": "event"
    },
    {
      "anonymous": false,
      "inputs": [
        {
          "indexed": false,
          "internalType": "bytes32",
          "name": "root",
          "type": "bytes32"
        }
      ],
      "name": "AggregateRootRemoved",
      "type": "event"
    },
    {
      "anonymous": false,
      "inputs": [
        {
          "indexed": true,
          "internalType": "bytes32",
          "name": "root",
          "type": "bytes32"
        }
      ],
      "name": "AggregateRootVerified",
      "type": "event"
    },
    {
      "anonymous": false,
      "inputs": [
        {
          "indexed": true,
          "internalType": "uint256",
          "name": "updated",
          "type": "uint256"
        },
        {
          "indexed": false,
          "internalType": "address",
          "name": "caller",
          "type": "address"
        }
      ],
      "name": "DelayBlocksUpdated",
      "type": "event"
    },
    {
      "anonymous": false,
      "inputs": [
        {
          "indexed": false,
          "internalType": "bytes32",
          "name": "leaf",
          "type": "bytes32"
        },
        {
          "indexed": false,
          "internalType": "uint256",
          "name": "index",
          "type": "uint256"
        },
        {
          "indexed": false,
          "internalType": "bytes32",
          "name": "root",
          "type": "bytes32"
        },
        {
          "indexed": false,
          "internalType": "bytes",
          "name": "message",
          "type": "bytes"
        }
      ],
      "name": "Dispatch",
      "type": "event"
    },
    {
      "anonymous": false,
      "inputs": [
        {
          "indexed": true,
          "internalType": "address",
          "name": "to",
          "type": "address"
        },
        {
          "indexed": false,
          "internalType": "uint256",
          "name": "amount",
          "type": "uint256"
        }
      ],
      "name": "FundsWithdrawn",
      "type": "event"
    },
    {
      "anonymous": false,
      "inputs": [
        {
          "indexed": false,
          "internalType": "uint256",
          "name": "_previous",
          "type": "uint256"
        },
        {
          "indexed": false,
          "internalType": "uint256",
          "name": "_updated",
          "type": "uint256"
        }
      ],
      "name": "GasCapUpdated",
      "type": "event"
    },
    {
      "anonymous": false,
      "inputs": [
        {
          "indexed": false,
          "internalType": "bytes",
          "name": "data",
          "type": "bytes"
        },
        {
          "indexed": false,
          "internalType": "address",
          "name": "caller",
          "type": "address"
        }
      ],
      "name": "MessageProcessed",
      "type": "event"
    },
    {
      "anonymous": false,
      "inputs": [
        {
          "indexed": true,
          "internalType": "bytes32",
          "name": "leaf",
          "type": "bytes32"
        },
        {
          "indexed": true,
          "internalType": "bytes32",
          "name": "aggregateRoot",
          "type": "bytes32"
        },
        {
          "indexed": false,
          "internalType": "uint256",
          "name": "aggregateIndex",
          "type": "uint256"
        }
      ],
      "name": "MessageProven",
      "type": "event"
    },
    {
      "anonymous": false,
      "inputs": [
        {
          "indexed": false,
          "internalType": "bytes",
          "name": "data",
          "type": "bytes"
        },
        {
          "indexed": false,
          "internalType": "bytes",
          "name": "encodedData",
          "type": "bytes"
        },
        {
          "indexed": false,
          "internalType": "address",
          "name": "caller",
          "type": "address"
        }
      ],
      "name": "MessageSent",
      "type": "event"
    },
    {
      "anonymous": false,
      "inputs": [
        {
          "indexed": false,
          "internalType": "address",
          "name": "previous",
          "type": "address"
        },
        {
          "indexed": false,
          "internalType": "address",
          "name": "current",
          "type": "address"
        }
      ],
      "name": "MirrorConnectorUpdated",
      "type": "event"
    },
    {
      "anonymous": false,
      "inputs": [
        {
          "indexed": true,
          "internalType": "uint32",
          "name": "domain",
          "type": "uint32"
        },
        {
          "indexed": true,
          "internalType": "uint32",
          "name": "mirrorDomain",
          "type": "uint32"
        },
        {
          "indexed": false,
          "internalType": "address",
          "name": "amb",
          "type": "address"
        },
        {
          "indexed": false,
          "internalType": "address",
          "name": "rootManager",
          "type": "address"
        },
        {
          "indexed": false,
          "internalType": "address",
          "name": "mirrorConnector",
          "type": "address"
        }
      ],
      "name": "NewConnector",
      "type": "event"
    },
    {
      "anonymous": false,
      "inputs": [
        {
          "indexed": true,
          "internalType": "address",
          "name": "proposedOwner",
          "type": "address"
        }
      ],
      "name": "OwnershipProposed",
      "type": "event"
    },
    {
      "anonymous": false,
      "inputs": [
        {
          "indexed": true,
          "internalType": "address",
          "name": "previousOwner",
          "type": "address"
        },
        {
          "indexed": true,
          "internalType": "address",
          "name": "newOwner",
          "type": "address"
        }
      ],
      "name": "OwnershipTransferred",
      "type": "event"
    },
    {
      "anonymous": false,
      "inputs": [
        {
          "indexed": false,
          "internalType": "address",
          "name": "account",
          "type": "address"
        }
      ],
      "name": "Paused",
      "type": "event"
    },
    {
      "anonymous": false,
      "inputs": [
        {
          "indexed": false,
          "internalType": "bytes32",
          "name": "leaf",
          "type": "bytes32"
        },
        {
          "indexed": false,
          "internalType": "bool",
          "name": "success",
          "type": "bool"
        },
        {
          "indexed": false,
          "internalType": "bytes",
          "name": "returnData",
          "type": "bytes"
        }
      ],
      "name": "Process",
      "type": "event"
    },
    {
      "anonymous": false,
      "inputs": [
        {
          "indexed": true,
          "internalType": "address",
          "name": "previous",
          "type": "address"
        },
        {
          "indexed": true,
          "internalType": "address",
          "name": "updated",
          "type": "address"
        }
      ],
      "name": "RefundAddressUpdated",
      "type": "event"
    },
    {
      "anonymous": false,
      "inputs": [
        {
          "indexed": false,
          "internalType": "address",
          "name": "updater",
          "type": "address"
        },
        {
          "indexed": false,
          "internalType": "uint256",
          "name": "newRateLimit",
          "type": "uint256"
        }
      ],
      "name": "SendRateLimitUpdated",
      "type": "event"
    },
    {
      "anonymous": false,
      "inputs": [
        {
          "indexed": false,
          "internalType": "address",
          "name": "sender",
          "type": "address"
        }
      ],
      "name": "SenderAdded",
      "type": "event"
    },
    {
      "anonymous": false,
      "inputs": [
        {
          "indexed": false,
          "internalType": "address",
          "name": "sender",
          "type": "address"
        }
      ],
      "name": "SenderRemoved",
      "type": "event"
    },
    {
      "anonymous": false,
      "inputs": [
        {
          "indexed": false,
          "internalType": "address",
          "name": "account",
          "type": "address"
        }
      ],
      "name": "Unpaused",
      "type": "event"
    },
    {
      "anonymous": false,
      "inputs": [
        {
          "indexed": false,
          "internalType": "address",
          "name": "watcherManager",
          "type": "address"
        }
      ],
      "name": "WatcherManagerChanged",
      "type": "event"
    },
    {
      "inputs": [],
      "name": "AMB",
      "outputs": [
        {
          "internalType": "address",
          "name": "",
          "type": "address"
        }
      ],
      "stateMutability": "view",
      "type": "function"
    },
    {
      "inputs": [],
      "name": "DOMAIN",
      "outputs": [
        {
          "internalType": "uint32",
          "name": "",
          "type": "uint32"
        }
      ],
      "stateMutability": "view",
      "type": "function"
    },
    {
      "inputs": [],
      "name": "MERKLE",
      "outputs": [
        {
          "internalType": "contract MerkleTreeManager",
          "name": "",
          "type": "address"
        }
      ],
      "stateMutability": "view",
      "type": "function"
    },
    {
      "inputs": [],
      "name": "MIRROR_DOMAIN",
      "outputs": [
        {
          "internalType": "uint32",
          "name": "",
          "type": "uint32"
        }
      ],
      "stateMutability": "view",
      "type": "function"
    },
    {
      "inputs": [],
      "name": "MIRROR_WORMHOLE_ID",
      "outputs": [
        {
          "internalType": "uint16",
          "name": "",
          "type": "uint16"
        }
      ],
      "stateMutability": "view",
      "type": "function"
    },
    {
      "inputs": [],
      "name": "PROCESS_GAS",
      "outputs": [
        {
          "internalType": "uint256",
          "name": "",
          "type": "uint256"
        }
      ],
      "stateMutability": "view",
      "type": "function"
    },
    {
      "inputs": [],
      "name": "RESERVE_GAS",
      "outputs": [
        {
          "internalType": "uint256",
          "name": "",
          "type": "uint256"
        }
      ],
      "stateMutability": "view",
      "type": "function"
    },
    {
      "inputs": [],
      "name": "ROOT_MANAGER",
      "outputs": [
        {
          "internalType": "address",
          "name": "",
          "type": "address"
        }
      ],
      "stateMutability": "view",
      "type": "function"
    },
    {
      "inputs": [],
      "name": "acceptProposedOwner",
      "outputs": [],
      "stateMutability": "nonpayable",
      "type": "function"
    },
    {
      "inputs": [
        {
          "internalType": "address",
          "name": "_sender",
          "type": "address"
        }
      ],
      "name": "addSender",
      "outputs": [],
      "stateMutability": "nonpayable",
      "type": "function"
    },
    {
      "inputs": [
        {
          "internalType": "address",
          "name": "",
          "type": "address"
        }
      ],
      "name": "allowlistedSenders",
      "outputs": [
        {
          "internalType": "bool",
          "name": "",
          "type": "bool"
        }
      ],
      "stateMutability": "view",
      "type": "function"
    },
    {
      "inputs": [],
      "name": "delay",
      "outputs": [
        {
          "internalType": "uint256",
          "name": "",
          "type": "uint256"
        }
      ],
      "stateMutability": "view",
      "type": "function"
    },
    {
      "inputs": [],
      "name": "delayBlocks",
      "outputs": [
        {
          "internalType": "uint256",
          "name": "",
          "type": "uint256"
        }
      ],
      "stateMutability": "view",
      "type": "function"
    },
    {
      "inputs": [
        {
          "internalType": "uint32",
          "name": "_destinationDomain",
          "type": "uint32"
        },
        {
          "internalType": "bytes32",
          "name": "_recipientAddress",
          "type": "bytes32"
        },
        {
          "internalType": "bytes",
          "name": "_messageBody",
          "type": "bytes"
        }
      ],
      "name": "dispatch",
      "outputs": [
        {
          "internalType": "bytes32",
          "name": "",
          "type": "bytes32"
        },
        {
          "internalType": "bytes",
          "name": "",
          "type": "bytes"
        }
      ],
      "stateMutability": "nonpayable",
      "type": "function"
    },
    {
      "inputs": [],
      "name": "home",
      "outputs": [
        {
          "internalType": "contract IOutbox",
          "name": "",
          "type": "address"
        }
      ],
      "stateMutability": "view",
      "type": "function"
    },
    {
      "inputs": [
        {
          "internalType": "address",
          "name": "_potentialReplica",
          "type": "address"
        }
      ],
      "name": "isReplica",
      "outputs": [
        {
          "internalType": "bool",
          "name": "",
          "type": "bool"
        }
      ],
      "stateMutability": "view",
      "type": "function"
    },
    {
      "inputs": [],
      "name": "lastSentBlock",
      "outputs": [
        {
          "internalType": "uint256",
          "name": "",
          "type": "uint256"
        }
      ],
      "stateMutability": "view",
      "type": "function"
    },
    {
      "inputs": [],
      "name": "localDomain",
      "outputs": [
        {
          "internalType": "uint32",
          "name": "",
          "type": "uint32"
        }
      ],
      "stateMutability": "view",
      "type": "function"
    },
    {
      "inputs": [
        {
          "internalType": "bytes32",
          "name": "",
          "type": "bytes32"
        }
      ],
      "name": "messages",
      "outputs": [
        {
          "internalType": "enum SpokeConnector.MessageStatus",
          "name": "",
          "type": "uint8"
        }
      ],
      "stateMutability": "view",
      "type": "function"
    },
    {
      "inputs": [],
      "name": "mirrorConnector",
      "outputs": [
        {
          "internalType": "address",
          "name": "",
          "type": "address"
        }
      ],
      "stateMutability": "view",
      "type": "function"
    },
    {
      "inputs": [
        {
          "internalType": "uint32",
          "name": "",
          "type": "uint32"
        }
      ],
      "name": "nonces",
      "outputs": [
        {
          "internalType": "uint32",
          "name": "",
          "type": "uint32"
        }
      ],
      "stateMutability": "view",
      "type": "function"
    },
    {
      "inputs": [],
      "name": "outboundRoot",
      "outputs": [
        {
          "internalType": "bytes32",
          "name": "",
          "type": "bytes32"
        }
      ],
      "stateMutability": "view",
      "type": "function"
    },
    {
      "inputs": [],
      "name": "owner",
      "outputs": [
        {
          "internalType": "address",
          "name": "",
          "type": "address"
        }
      ],
      "stateMutability": "view",
      "type": "function"
    },
    {
      "inputs": [],
      "name": "pause",
      "outputs": [],
      "stateMutability": "nonpayable",
      "type": "function"
    },
    {
      "inputs": [],
      "name": "paused",
      "outputs": [
        {
          "internalType": "bool",
          "name": "",
          "type": "bool"
        }
      ],
      "stateMutability": "view",
      "type": "function"
    },
    {
      "inputs": [
        {
          "internalType": "bytes32",
          "name": "",
          "type": "bytes32"
        }
      ],
      "name": "pendingAggregateRoots",
      "outputs": [
        {
          "internalType": "uint256",
          "name": "",
          "type": "uint256"
        }
      ],
      "stateMutability": "view",
      "type": "function"
    },
    {
      "inputs": [
        {
          "internalType": "bytes",
          "name": "_data",
          "type": "bytes"
        }
      ],
      "name": "processMessage",
      "outputs": [],
      "stateMutability": "nonpayable",
      "type": "function"
    },
    {
      "inputs": [
        {
          "internalType": "bytes32",
          "name": "",
          "type": "bytes32"
        }
      ],
      "name": "processedWhMessages",
      "outputs": [
        {
          "internalType": "bool",
          "name": "",
          "type": "bool"
        }
      ],
      "stateMutability": "view",
      "type": "function"
    },
    {
      "inputs": [
        {
          "internalType": "address",
          "name": "newlyProposed",
          "type": "address"
        }
      ],
      "name": "proposeNewOwner",
      "outputs": [],
      "stateMutability": "nonpayable",
      "type": "function"
    },
    {
      "inputs": [],
      "name": "proposed",
      "outputs": [
        {
          "internalType": "address",
          "name": "",
          "type": "address"
        }
      ],
      "stateMutability": "view",
      "type": "function"
    },
    {
      "inputs": [],
      "name": "proposedTimestamp",
      "outputs": [
        {
          "internalType": "uint256",
          "name": "",
          "type": "uint256"
        }
      ],
      "stateMutability": "view",
      "type": "function"
    },
    {
      "inputs": [
        {
          "components": [
            {
              "internalType": "bytes",
              "name": "message",
              "type": "bytes"
            },
            {
              "internalType": "bytes32[32]",
              "name": "path",
              "type": "bytes32[32]"
            },
            {
              "internalType": "uint256",
              "name": "index",
              "type": "uint256"
            }
          ],
          "internalType": "struct SpokeConnector.Proof[]",
          "name": "_proofs",
          "type": "tuple[]"
        },
        {
          "internalType": "bytes32",
          "name": "_aggregateRoot",
          "type": "bytes32"
        },
        {
          "internalType": "bytes32[32]",
          "name": "_aggregatePath",
          "type": "bytes32[32]"
        },
        {
          "internalType": "uint256",
          "name": "_aggregateIndex",
          "type": "uint256"
        }
      ],
      "name": "proveAndProcess",
      "outputs": [],
      "stateMutability": "nonpayable",
      "type": "function"
    },
    {
      "inputs": [
        {
          "internalType": "bytes32",
          "name": "",
          "type": "bytes32"
        }
      ],
      "name": "provenAggregateRoots",
      "outputs": [
        {
          "internalType": "bool",
          "name": "",
          "type": "bool"
        }
      ],
      "stateMutability": "view",
      "type": "function"
    },
    {
      "inputs": [
        {
          "internalType": "bytes32",
          "name": "",
          "type": "bytes32"
        }
      ],
      "name": "provenMessageRoots",
      "outputs": [
        {
          "internalType": "bool",
          "name": "",
          "type": "bool"
        }
      ],
      "stateMutability": "view",
      "type": "function"
    },
    {
      "inputs": [
        {
          "internalType": "uint256",
          "name": "_gasLimit",
          "type": "uint256"
        },
        {
          "internalType": "address",
          "name": "_amb",
          "type": "address"
        }
      ],
      "name": "quoteEVMDeliveryPrice",
      "outputs": [
        {
          "internalType": "uint256",
          "name": "_cost",
          "type": "uint256"
        }
      ],
      "stateMutability": "view",
      "type": "function"
    },
    {
      "inputs": [],
      "name": "rateLimitBlocks",
      "outputs": [
        {
          "internalType": "uint256",
          "name": "",
          "type": "uint256"
        }
      ],
      "stateMutability": "view",
      "type": "function"
    },
    {
      "inputs": [
        {
          "internalType": "bytes",
          "name": "_payload",
          "type": "bytes"
        },
        {
          "internalType": "bytes[]",
          "name": "",
          "type": "bytes[]"
        },
        {
          "internalType": "bytes32",
          "name": "_sourceAddress",
          "type": "bytes32"
        },
        {
          "internalType": "uint16",
          "name": "_sourceChain",
          "type": "uint16"
        },
        {
          "internalType": "bytes32",
          "name": "_deliveryHash",
          "type": "bytes32"
        }
      ],
      "name": "receiveWormholeMessages",
      "outputs": [],
      "stateMutability": "payable",
      "type": "function"
    },
    {
      "inputs": [],
      "name": "refundAddress",
      "outputs": [
        {
          "internalType": "address",
          "name": "",
          "type": "address"
        }
      ],
      "stateMutability": "view",
      "type": "function"
    },
    {
      "inputs": [
        {
          "internalType": "bytes32",
          "name": "_fraudulentRoot",
          "type": "bytes32"
        }
      ],
      "name": "removePendingAggregateRoot",
      "outputs": [],
      "stateMutability": "nonpayable",
      "type": "function"
    },
    {
      "inputs": [
        {
          "internalType": "address",
          "name": "_sender",
          "type": "address"
        }
      ],
      "name": "removeSender",
      "outputs": [],
      "stateMutability": "nonpayable",
      "type": "function"
    },
    {
      "inputs": [],
      "name": "renounceOwnership",
      "outputs": [],
      "stateMutability": "nonpayable",
      "type": "function"
    },
    {
      "inputs": [],
      "name": "renounced",
      "outputs": [
        {
          "internalType": "bool",
          "name": "",
          "type": "bool"
        }
      ],
      "stateMutability": "view",
      "type": "function"
    },
    {
      "inputs": [
        {
          "internalType": "bytes",
          "name": "_encodedData",
          "type": "bytes"
        }
      ],
      "name": "send",
      "outputs": [],
      "stateMutability": "payable",
      "type": "function"
    },
    {
      "inputs": [
        {
          "internalType": "bytes32",
          "name": "",
          "type": "bytes32"
        }
      ],
      "name": "sentMessageRoots",
      "outputs": [
        {
          "internalType": "bool",
          "name": "",
          "type": "bool"
        }
      ],
      "stateMutability": "view",
      "type": "function"
    },
    {
      "inputs": [
        {
          "internalType": "uint256",
          "name": "_delayBlocks",
          "type": "uint256"
        }
      ],
      "name": "setDelayBlocks",
      "outputs": [],
      "stateMutability": "nonpayable",
      "type": "function"
    },
    {
      "inputs": [
        {
          "internalType": "uint256",
          "name": "_gasCap",
          "type": "uint256"
        }
      ],
      "name": "setGasCap",
      "outputs": [],
      "stateMutability": "nonpayable",
      "type": "function"
    },
    {
      "inputs": [
        {
          "internalType": "address",
          "name": "_mirrorConnector",
          "type": "address"
        }
      ],
      "name": "setMirrorConnector",
      "outputs": [],
      "stateMutability": "nonpayable",
      "type": "function"
    },
    {
      "inputs": [
        {
          "internalType": "uint256",
          "name": "_rateLimit",
          "type": "uint256"
        }
      ],
      "name": "setRateLimitBlocks",
      "outputs": [],
      "stateMutability": "nonpayable",
      "type": "function"
    },
    {
      "inputs": [
        {
          "internalType": "address",
          "name": "_updated",
          "type": "address"
        }
      ],
      "name": "setRefundAddress",
      "outputs": [],
      "stateMutability": "nonpayable",
      "type": "function"
    },
    {
      "inputs": [
        {
          "internalType": "address",
          "name": "_watcherManager",
          "type": "address"
        }
      ],
      "name": "setWatcherManager",
      "outputs": [],
      "stateMutability": "nonpayable",
      "type": "function"
    },
    {
      "inputs": [],
      "name": "unpause",
      "outputs": [],
      "stateMutability": "nonpayable",
      "type": "function"
    },
    {
      "inputs": [
        {
          "internalType": "address",
          "name": "_expected",
          "type": "address"
        }
      ],
      "name": "verifySender",
      "outputs": [
        {
          "internalType": "bool",
          "name": "",
          "type": "bool"
        }
      ],
      "stateMutability": "nonpayable",
      "type": "function"
    },
    {
      "inputs": [],
      "name": "watcherManager",
      "outputs": [
        {
          "internalType": "contract WatcherManager",
          "name": "",
          "type": "address"
        }
      ],
      "stateMutability": "view",
      "type": "function"
    },
    {
      "inputs": [
        {
          "internalType": "address",
          "name": "_to",
          "type": "address"
        }
      ],
      "name": "withdrawFunds",
      "outputs": [],
      "stateMutability": "nonpayable",
      "type": "function"
    },
    {
      "stateMutability": "payable",
      "type": "receive"
    }
  ],
  "transactionHash": "0xb890f8432cbe1b0d938faeba2fefc3adb30a197ff2afcab5c07c49877dd3e549",
  "args": [
    "6450786",
    "6648936",
    "0x27428DD2d3DD32A4D7f7C497eAaa23130d894911",
    "0xd5d61E9dfb6680Cba8353988Ba0337802811C2e1",
    "0x0000000000000000000000000000000000000000",
    "850000",
    "15000",
    0,
    "0x995dfd686f4953B059355Df769cc4CE672983aF1",
    "0xeBc0a8e5B841Be85428e7dCc66C283DC2fd111f9",
    "400000",
    "2"
  ],
  "numDeployments": 1,
  "solcInputHash": "e708ecce32e6efc9e346efa212a85361",
  "bytecode": "0x6101806040523480156200001257600080fd5b50604051620042a5380380620042a58339810160408190526200003591620004c1565b8181818e8e8e8e8e8e8e8e8e8e808a8a8a8a8a6200005333620002d9565b8463ffffffff166000036200009e5760405162461bcd60e51b815260206004820152600c60248201526b32b6b83a3c903237b6b0b4b760a11b60448201526064015b60405180910390fd5b6001600160a01b038216620000ea5760405162461bcd60e51b815260206004820152601160248201527032b6b83a3c903937b7ba26b0b730b3b2b960791b604482015260640162000095565b63ffffffff8086166080526001600160a01b0380851660a05283811660c05290851660e052811615620001225762000122816200033e565b604080516001600160a01b0385811682528481166020830152831681830152905163ffffffff86811692908816917f4f9c27c2fe3f84576ea469d367d044da53c45e951617e8389f2b5ed8db9d25f09181900360600190a350506003805460ff60a01b191690555050600480546001600160a01b0319166001600160a01b039390931692909217909155506001600755620cf84f8511620001f55760405162461bcd60e51b815260206004820152600c60248201526b2170726f636573732067617360a01b604482015260640162000095565b613a978411620002375760405162461bcd60e51b815260206004820152600c60248201526b21726573657276652067617360a01b604482015260640162000095565b6101208590526101408490526001600160a01b0382166200028a5760405162461bcd60e51b815260206004820152600c60248201526b217a65726f206d65726b6c6560a01b604482015260640162000095565b506001600160a01b03166101005260085550620002b0955086945050620003a792505050565b5061ffff811661016052620002c533620003e8565b50505050505050505050505050506200059c565b600080546040516001600160a01b03808516939216917f8be0079c531659141344cd1fd0a4f28419497f9722a3daafe3b4186f6b6457e091a3600080546001600160a01b039092166001600160a01b0319928316178155600255600180549091169055565b600354604080516001600160a01b03928316815291831660208301527fc77bec288fc88f168427f2f7da682eadb26cac89d8d591af6e443da98dff2bbc910160405180910390a1600380546001600160a01b0319166001600160a01b0392909216919091179055565b60105460408051918252602082018390527f877a02cb809da0364d23adca3cd50c451b53f279d3df632e1fc11eb66335bce5910160405180910390a1601055565b6011546001600160a01b0390811690821603620004335760405162461bcd60e51b81526020600482015260086024820152670858da185b99d95960c21b604482015260640162000095565b6011546040516001600160a01b038084169216907f57b5839c3435f5b2eb2d2e286fb44ca7303d01d9b25a5d9c05c489523474285990600090a3601180546001600160a01b0319166001600160a01b0392909216919091179055565b805163ffffffff81168114620004a457600080fd5b919050565b80516001600160a01b0381168114620004a457600080fd5b6000806000806000806000806000806000806101808d8f031215620004e557600080fd5b620004f08d6200048f565b9b506200050060208e016200048f565b9a506200051060408e01620004a9565b99506200052060608e01620004a9565b98506200053060808e01620004a9565b975060a08d0151965060c08d0151955060e08d01519450620005566101008e01620004a9565b9350620005676101208e01620004a9565b92506101408d015191506101608d015161ffff811681146200058857600080fd5b809150509295989b509295989b509295989b565b60805160a05160c05160e05161010051610120516101405161016051613c3a6200066b6000396000818161043f01528181610dfe01528181612162015261282f0152600081816104a60152611f99015260008181610a9a01528181611fba01526120470152600081816108c101528181610c4e0152818161127c01526119b501526000610394015260006106e7015260008181610a5001528181610eaa0152818161120d0152611b8001526000818161062e015281816107fd015281816119570152611e990152613c3a6000f3fe6080604052600436106103395760003560e01c80636b04a933116101ab578063b2f87643116100f7578063d2a3cc7111610095578063d88beda21161006f578063d88beda214610a88578063db1b765914610abc578063e0fed01014610adc578063fa31de0114610afc57600080fd5b8063d2a3cc7114610a1e578063d69f9d6114610a3e578063d7d317b314610a7257600080fd5b8063c5b350df116100d1578063c5b350df146109ac578063cc394283146109c1578063d1851c92146109e1578063d232c220146109ff57600080fd5b8063b2f8764314610939578063b697f53114610959578063b95a20011461097957600080fd5b806398c9f2b911610164578063a01892a51161013e578063a01892a5146108af578063a792c29b146108e3578063ad9c0c2e14610903578063b1f8100d1461091957600080fd5b806398c9f2b91461083f5780639d3117c71461086f5780639fa92f9d1461089c57600080fd5b80636b04a93314610784578063715018a6146107a45780637850b020146107b95780638456cb59146107d95780638d3638f4146107ee5780638da5cb5b1461082157600080fd5b80634ff746f6116102855780635bd11efc116102235780636159ada1116101fd5780636159ada11461070957806365eaf11b1461073957806368742da61461074e5780636a42b8f81461076e57600080fd5b80635bd11efc146106965780635c975abb146106b65780635f61e3ec146106d557600080fd5b8063529dca321161025f578063529dca321461060957806352a9674b1461061c578063572386ca14610650578063579c16181461068057600080fd5b80634ff746f6146105a0578063508a109b146105c05780635190bc53146105e057600080fd5b806325e3beda116102f2578063301f07c3116102cc578063301f07c3146105265780633cf52ffb146105565780633f4ba83a1461056b5780634d93538b1461058057600080fd5b806325e3beda146104945780632bb1ae7c146104d65780632bbd59ca146104e957600080fd5b80630cb61f6c14610345578063141684161461038257806315b75bea146103cb57806318c81709146103ed578063194ea9961461042d5780631eeaabea1461047457600080fd5b3661034057005b600080fd5b34801561035157600080fd5b50601154610365906001600160a01b031681565b6040516001600160a01b0390911681526020015b60405180910390f35b34801561038e57600080fd5b506103b67f000000000000000000000000000000000000000000000000000000000000000081565b60405163ffffffff9091168152602001610379565b3480156103d757600080fd5b506103eb6103e636600461345a565b610b2a565b005b3480156103f957600080fd5b5061041d610408366004613475565b60126020526000908152604090205460ff1681565b6040519015158152602001610379565b34801561043957600080fd5b506104617f000000000000000000000000000000000000000000000000000000000000000081565b60405161ffff9091168152602001610379565b34801561048057600080fd5b506103eb61048f366004613475565b610b61565b3480156104a057600080fd5b506104c87f000000000000000000000000000000000000000000000000000000000000000081565b604051908152602001610379565b6103eb6104e4366004613545565b610c0b565b3480156104f557600080fd5b50610519610504366004613475565b600f6020526000908152604090205460ff1681565b6040516103799190613590565b34801561053257600080fd5b5061041d610541366004613475565b600a6020526000908152604090205460ff1681565b34801561056257600080fd5b506002546104c8565b34801561057757600080fd5b506103eb610dae565b34801561058c57600080fd5b506104c861059b3660046135b8565b610deb565b3480156105ac57600080fd5b506103eb6105bb366004613545565b610e9f565b3480156105cc57600080fd5b506103eb6105db3660046135e4565b610f45565b3480156105ec57600080fd5b5061041d6105fb36600461345a565b6001600160a01b0316301490565b6103eb610617366004613692565b611207565b34801561062857600080fd5b506103b67f000000000000000000000000000000000000000000000000000000000000000081565b34801561065c57600080fd5b5061041d61066b366004613475565b600c6020526000908152604090205460ff1681565b34801561068c57600080fd5b506104c860055481565b3480156106a257600080fd5b506103eb6106b136600461345a565b611244565b3480156106c257600080fd5b50600354600160a01b900460ff1661041d565b3480156106e157600080fd5b506103657f000000000000000000000000000000000000000000000000000000000000000081565b34801561071557600080fd5b5061041d61072436600461345a565b600d6020526000908152604090205460ff1681565b34801561074557600080fd5b506104c8611278565b34801561075a57600080fd5b506103eb61076936600461345a565b611301565b34801561077a57600080fd5b5062093a806104c8565b34801561079057600080fd5b506103eb61079f366004613475565b61137e565b3480156107b057600080fd5b506103eb611449565b3480156107c557600080fd5b506103eb6107d4366004613475565b6114a9565b3480156107e557600080fd5b506103eb6114dd565b3480156107fa57600080fd5b507f00000000000000000000000000000000000000000000000000000000000000006103b6565b34801561082d57600080fd5b506000546001600160a01b0316610365565b34801561084b57600080fd5b5061041d61085a366004613475565b600b6020526000908152604090205460ff1681565b34801561087b57600080fd5b506104c861088a366004613475565b60096020526000908152604090205481565b3480156108a857600080fd5b5030610365565b3480156108bb57600080fd5b506103657f000000000000000000000000000000000000000000000000000000000000000081565b3480156108ef57600080fd5b50600454610365906001600160a01b031681565b34801561090f57600080fd5b506104c860085481565b34801561092557600080fd5b506103eb61093436600461345a565b611591565b34801561094557600080fd5b506103eb61095436600461345a565b61162f565b34801561096557600080fd5b506103eb61097436600461345a565b6116ab565b34801561098557600080fd5b506103b66109943660046137af565b600e6020526000908152604090205463ffffffff1681565b3480156109b857600080fd5b506103eb61172a565b3480156109cd57600080fd5b50600354610365906001600160a01b031681565b3480156109ed57600080fd5b506001546001600160a01b0316610365565b348015610a0b57600080fd5b506000546001600160a01b03161561041d565b348015610a2a57600080fd5b506103eb610a3936600461345a565b61179a565b348015610a4a57600080fd5b506103657f000000000000000000000000000000000000000000000000000000000000000081565b348015610a7e57600080fd5b506104c860065481565b348015610a9457600080fd5b506104c87f000000000000000000000000000000000000000000000000000000000000000081565b348015610ac857600080fd5b5061041d610ad736600461345a565b611871565b348015610ae857600080fd5b506103eb610af7366004613475565b611882565b348015610b0857600080fd5b50610b1c610b173660046137ca565b6118b6565b604051610379929190613871565b6000546001600160a01b03163314610b55576040516311a8a1bb60e31b815260040160405180910390fd5b610b5e81611a85565b50565b6000546001600160a01b03163314610b8c576040516311a8a1bb60e31b815260040160405180910390fd5b6008548103610bd15760405162461bcd60e51b815260206004820152600c60248201526b2164656c6179426c6f636b7360a01b60448201526064015b60405180910390fd5b60405133815281907f8bd16320f3b60336ed5fd2a770eb7453e7e71cfef4462addffd7ae9dfe201c8e9060200160405180910390a2600855565b610c13611b2a565b43600554600654610c2491906138a0565b1115610c43576040516346cf2af160e11b815260040160405180910390fd5b4360068190555060007f00000000000000000000000000000000000000000000000000000000000000006001600160a01b031663ebf0c7176040518163ffffffff1660e01b8152600401602060405180830381865afa158015610caa573d6000803e3d6000fd5b505050506040513d601f19601f82011682018060405250810190610cce91906138b3565b6000818152600c602052604090205490915060ff1615610d245760405162461bcd60e51b81526020600482015260116024820152701c9bdbdd08185b1c9958591e481cd95b9d607a1b6044820152606401610bc8565b600081604051602001610d3991815260200190565b6040516020818303038152906040529050610d548184611b77565b6000828152600c602052604090819020805460ff19166001179055517fdcaa37a042a0087de79018c629bbd29cee82ca80bd9be394e1696bf9e935507790610da1908390869033906138cc565b60405180910390a1505050565b6000546001600160a01b03163314610dd9576040516311a8a1bb60e31b815260040160405180910390fd5b610de1611bb4565b610de9611c04565b565b6000816001600160a01b031663c23ee3c37f00000000000000000000000000000000000000000000000000000000000000006000610e2887611c59565b6040516001600160e01b031960e086901b16815261ffff9093166004840152602483019190915260448201526064016040805180830381865afa158015610e73573d6000803e3d6000fd5b505050506040513d601f19601f82011682018060405250810190610e97919061390a565b509392505050565b336001600160a01b037f00000000000000000000000000000000000000000000000000000000000000001614610f005760405162461bcd60e51b8152600401610bc89060208082526004908201526310a0a6a160e11b604082015260600190565b610f0981611c6f565b7fb3abc57bfeebd2cac918901db582f71972a8e628bccf19f5ae3e3482b98a5ced8133604051610f3a92919061392e565b60405180910390a150565b610f4d611b2a565b610f55611c88565b83610f8c5760405162461bcd60e51b81526020600482015260076024820152662170726f6f667360c81b6044820152606401610bc8565b600085856000818110610fa157610fa1613958565b9050602002810190610fb3919061396e565b610fbd908061398f565b604051610fcb9291906139dd565b6040518091039020905060006110328288886000818110610fee57610fee613958565b9050602002810190611000919061396e565b6020018989600081811061101657611016613958565b9050602002810190611028919061396e565b6104200135611ce1565b905061104081868686611d88565b6000828152600f60205260409020805460ff1916600190811790915586905b818163ffffffff1610156111665788888263ffffffff1681811061108557611085613958565b9050602002810190611097919061396e565b6110a1908061398f565b6040516110af9291906139dd565b604051809103902093506000611104858b8b8563ffffffff168181106110d7576110d7613958565b90506020028101906110e9919061396e565b6020018c8c8663ffffffff1681811061101657611016613958565b90508381146111435760405162461bcd60e51b815260206004820152600b60248201526a085cda185c9959149bdbdd60aa1b6044820152606401610bc8565b506000848152600f60205260409020805460ff191660019081179091550161105f565b5060005b818163ffffffff1610156111f2576111e989898363ffffffff1681811061119357611193613958565b90506020028101906111a5919061396e565b6111af908061398f565b8080601f016020809104026020016040519081016040528093929190818152602001838380828437600092019190915250611e8392505050565b5060010161116a565b505050506112006001600755565b5050505050565b611232827f000000000000000000000000000000000000000000000000000000000000000083612160565b61120061123e8461227a565b866122bd565b6000546001600160a01b0316331461126f576040516311a8a1bb60e31b815260040160405180910390fd5b610b5e8161238e565b60007f00000000000000000000000000000000000000000000000000000000000000006001600160a01b031663ebf0c7176040518163ffffffff1660e01b8152600401602060405180830381865afa1580156112d8573d6000803e3d6000fd5b505050506040513d601f19601f820116820180604052508101906112fc91906138b3565b905090565b6000546001600160a01b0316331461132c576040516311a8a1bb60e31b815260040160405180910390fd5b4761133782826123f7565b816001600160a01b03167feaff4b37086828766ad3268786972c0cd24259d4c87a80f9d3963a3c3d999b0d8260405161137291815260200190565b60405180910390a25050565b6000546001600160a01b031633146113a9576040516311a8a1bb60e31b815260040160405180910390fd5b6113b1611bb4565b60008181526009602052604081205490036114065760405162461bcd60e51b8152602060048201526015602482015274616767726567617465526f6f74202165786973747360581b6044820152606401610bc8565b60008181526009602052604080822091909155517ff51534ecf10a58db36ce4f5180f59deddf3b3eb7c5e7454e602c2f80a40cc73990610f3a9083815260200190565b6000546001600160a01b03163314611474576040516311a8a1bb60e31b815260040160405180910390fd5b60405162461bcd60e51b815260206004820152600a6024820152691c1c9bda1a589a5d195960b21b6044820152606401610bc8565b6000546001600160a01b031633146114d4576040516311a8a1bb60e31b815260040160405180910390fd5b610b5e81612515565b600480546040516384785ecd60e01b815233928101929092526001600160a01b0316906384785ecd90602401602060405180830381865afa158015611526573d6000803e3d6000fd5b505050506040513d601f19601f8201168201806040525081019061154a91906139ed565b6115815760405162461bcd60e51b815260206004820152600860248201526710bbb0ba31b432b960c11b6044820152606401610bc8565b611589611b2a565b610de9612556565b6000546001600160a01b031633146115bc576040516311a8a1bb60e31b815260040160405180910390fd5b6001546001600160a01b0382811691161480156115da575060025415155b156115f8576040516311bc066560e11b815260040160405180910390fd5b6000546001600160a01b0380831691160361162657604051634a2fb73f60e11b815260040160405180910390fd5b610b5e81612599565b6000546001600160a01b0316331461165a576040516311a8a1bb60e31b815260040160405180910390fd5b6001600160a01b0381166000818152600d6020908152604091829020805460ff1916905590519182527f384859c5ef5fafac31e8bc92ce7fb48b1f2c74c4dd5e212eb84ec202fa5d9fad9101610f3a565b6000546001600160a01b031633146116d6576040516311a8a1bb60e31b815260040160405180910390fd5b6001600160a01b0381166000818152600d6020908152604091829020805460ff1916600117905590519182527fd65eca5d561d3a4568c87b9b13ced4ab52a69edadfdfdb22d76bc595f36d7d879101610f3a565b6001546001600160a01b03163314611755576040516311a7f27160e11b815260040160405180910390fd5b62093a80600254426117679190613a0f565b11611785576040516324e0285f60e21b815260040160405180910390fd5b600154610de9906001600160a01b03166125e7565b6000546001600160a01b031633146117c5576040516311a8a1bb60e31b815260040160405180910390fd5b6004546001600160a01b03908116908216036118235760405162461bcd60e51b815260206004820152601760248201527f616c72656164792077617463686572206d616e616765720000000000000000006044820152606401610bc8565b600480546001600160a01b0319166001600160a01b0383169081179091556040519081527fc16d059e43d7f8e29ccb4e001a2f249d3c59e274925d6a6bc3912943441d9f6c90602001610f3a565b600061187c8261264c565b92915050565b6000546001600160a01b031633146118ad576040516311a8a1bb60e31b815260040160405180910390fd5b610b5e81612665565b336000908152600d602052604081205460609060ff166119075760405162461bcd60e51b815260206004820152600c60248201526b08585b1b1bdddb1a5cdd195960a21b6044820152606401610bc8565b63ffffffff8086166000908152600e602052604081208054919291909116908261193083613a22565b91906101000a81548163ffffffff021916908363ffffffff1602179055509050600061198f7f0000000000000000000000000000000000000000000000000000000000000000611986336001600160a01b031690565b848a8a8a6126e3565b80516020820120604051632d287e4360e01b8152600481018290529192509060009081907f00000000000000000000000000000000000000000000000000000000000000006001600160a01b031690632d287e439060240160408051808303816000875af1158015611a05573d6000803e3d6000fd5b505050506040513d601f19601f82011682018060405250810190611a29919061390a565b90925090507f40f08ee347fc927ae45902edc87debb024aab1a311943731968607f603f2152f83611a5b600184613a0f565b8487604051611a6d9493929190613a45565b60405180910390a15090989197509095505050505050565b6011546001600160a01b0390811690821603611ace5760405162461bcd60e51b81526020600482015260086024820152670858da185b99d95960c21b6044820152606401610bc8565b6011546040516001600160a01b038084169216907f57b5839c3435f5b2eb2d2e286fb44ca7303d01d9b25a5d9c05c489523474285990600090a3601180546001600160a01b0319166001600160a01b0392909216919091179055565b600354600160a01b900460ff1615610de95760405162461bcd60e51b815260206004820152601060248201526f14185d5cd8589b194e881c185d5cd95960821b6044820152606401610bc8565b600354611bb0907f0000000000000000000000000000000000000000000000000000000000000000906001600160a01b0316848461271b565b5050565b600354600160a01b900460ff16610de95760405162461bcd60e51b815260206004820152601460248201527314185d5cd8589b194e881b9bdd081c185d5cd95960621b6044820152606401610bc8565b611c0c611bb4565b6003805460ff60a01b191690557f5db9ee0a495bf2e6ff9c91a7834c1ba4fdd244a5e8aa4e537bd38aeae4b073aa335b6040516001600160a01b03909116815260200160405180910390a1565b6000601054821115611c6b5760105491505b5090565b6040516316c2fdb560e21b815260040160405180910390fd5b600260075403611cda5760405162461bcd60e51b815260206004820152601f60248201527f5265656e7472616e637947756172643a207265656e7472616e742063616c6c006044820152606401610bc8565b6002600755565b6000806000858152600f602052604090205460ff166002811115611d0757611d0761357a565b14611d4a5760405162461bcd60e51b8152602060048201526013602482015272214d6573736167655374617475732e4e6f6e6560681b6044820152606401610bc8565b611d7e8484602080602002604051908101604052809291908260208002808284376000920191909152508691506128b09050565b90505b9392505050565b6000848152600b602052604090205460ff16611e7d57611da783612bfe565b6000611ddd8584602080602002604051908101604052809291908260208002808284376000920191909152508691506128b09050565b9050838114611e245760405162461bcd60e51b81526020600482015260136024820152721a5b9d985b1a59081a5b989bdd5b99149bdbdd606a1b6044820152606401610bc8565b6000858152600b602052604090819020805460ff1916600117905551849086907f7ec1ea51fe3db53e55ed9d922854bc2156f467ff2f87d74e2086dae2c84a88a890611e739086815260200190565b60405180910390a3505b50505050565b600080611e908382612d5e565b905063ffffffff7f000000000000000000000000000000000000000000000000000000000000000016611ec862ffffff198316612d82565b63ffffffff1614611f0a5760405162461bcd60e51b815260206004820152600c60248201526b10b232b9ba34b730ba34b7b760a11b6044820152606401610bc8565b6000611f1b62ffffff198316612d97565b905060016000828152600f602052604090205460ff166002811115611f4257611f4261357a565b14611f795760405162461bcd60e51b815260206004820152600760248201526610b83937bb32b760c91b6044820152606401610bc8565b6000818152600f60205260409020805460ff191660021790556001611fde7f00000000000000000000000000000000000000000000000000000000000000007f00000000000000000000000000000000000000000000000000000000000000006138a0565b611fe89190613a0f565b5a1161201f5760405162461bcd60e51b8152600401610bc8906020808252600490820152632167617360e01b604082015260600190565b600061203062ffffff198416612de0565b6040805161010080825261012082019092529192507f00000000000000000000000000000000000000000000000000000000000000009160009082602082018180368337019050509050600061208b62ffffff198816612df1565b61209a62ffffff198916612e05565b6120a962ffffff198a16612e1a565b6120c66120bb62ffffff198c16612e2f565b62ffffff1916612e5d565b6040516024016120d99493929190613a74565b60408051601f198184030181529190526020810180516001600160e01b031663ab2dc3f560e01b1790529050612113858560008685612ea6565b60405191995092507fd42de95a9b26f1be134c8ecce389dc4fcfa18753d01661b7b361233569e8fe489061214c9088908b908690613aa3565b60405180910390a150505050505050919050565b7f000000000000000000000000000000000000000000000000000000000000000061ffff168361ffff16146121c75760405162461bcd60e51b815260206004820152600d60248201526c10b9b7bab931b29031b430b4b760991b6044820152606401610bc8565b336001600160a01b0383161461220a5760405162461bcd60e51b815260206004820152600860248201526710b932b630bcb2b960c11b6044820152606401610bc8565b60008181526012602052604090205460ff161561225d5760405162461bcd60e51b8152602060048201526011602482015270185b1c9958591e481c1c9bd8d95cdcd959607a1b6044820152606401610bc8565b6000908152601260205260409020805460ff191660011790555050565b600060a082901c15611c6b5760405162461bcd60e51b815260206004820152600c60248201526b2165766d206164647265737360a01b6044820152606401610bc8565b6122c68261264c565b6123055760405162461bcd60e51b815260206004820152601060248201526f10b6b4b93937b921b7b73732b1ba37b960811b6044820152606401610bc8565b80516020146123405760405162461bcd60e51b8152602060048201526007602482015266042d8cadccee8d60cb1b6044820152606401610bc8565b61235161234c82613ac4565b612f31565b7fb3abc57bfeebd2cac918901db582f71972a8e628bccf19f5ae3e3482b98a5ced813360405161238292919061392e565b60405180910390a15050565b600354604080516001600160a01b03928316815291831660208301527fc77bec288fc88f168427f2f7da682eadb26cac89d8d591af6e443da98dff2bbc910160405180910390a1600380546001600160a01b0319166001600160a01b0392909216919091179055565b804710156124475760405162461bcd60e51b815260206004820152601d60248201527f416464726573733a20696e73756666696369656e742062616c616e63650000006044820152606401610bc8565b6000826001600160a01b03168260405160006040518083038185875af1925050503d8060008114612494576040519150601f19603f3d011682016040523d82523d6000602084013e612499565b606091505b50509050806125105760405162461bcd60e51b815260206004820152603a60248201527f416464726573733a20756e61626c6520746f2073656e642076616c75652c207260448201527f6563697069656e74206d617920686176652072657665727465640000000000006064820152608401610bc8565b505050565b60105460408051918252602082018390527f877a02cb809da0364d23adca3cd50c451b53f279d3df632e1fc11eb66335bce5910160405180910390a1601055565b61255e611b2a565b6003805460ff60a01b1916600160a01b1790557f62e78cea01bee320cd4e420270b5ea74000d11b0c9f74754ebdbfc544b05a258611c3c3390565b42600255600180546001600160a01b0319166001600160a01b0383169081179091556040517f6ab4d119f23076e8ad491bc65ce85f017fb0591dce08755ba8591059cc51737a90600090a250565b600080546040516001600160a01b03808516939216917f8be0079c531659141344cd1fd0a4f28419497f9722a3daafe3b4186f6b6457e091a3600080546001600160a01b039092166001600160a01b0319928316178155600255600180549091169055565b6003546000906001600160a01b0383811691161461187c565b60055481036126a85760405162461bcd60e51b815260206004820152600f60248201526e085b995dc81c985d19481b1a5b5a5d608a1b6044820152606401610bc8565b600581905560408051338152602081018390527f8e7fa5e406cb856aab05575e45ea011c6748376cc1b5229e3d67b92986406a159101610f3a565b606086868686868660405160200161270096959493929190613aeb565b60405160208183030381529060405290509695505050505050565b815160201461275b5760405162461bcd60e51b815260206004820152600c60248201526b042c8c2e8c240d8cadccee8d60a31b6044820152606401610bc8565b80516020146127a35760405162461bcd60e51b8152602060048201526014602482015273042cadcc6dec8cac840c8c2e8c240d8cadccee8d60631b6044820152606401610bc8565b6000818060200190518101906127b991906138b3565b905060006127c78287610deb565b90503481146128055760405162461bcd60e51b815260206004820152600a602482015269216d73672e76616c756560b01b6044820152606401610bc8565b6011546040516312d729bd60e21b81526001600160a01b0380891692634b5ca6f4928592612864927f0000000000000000000000000000000000000000000000000000000000000000928c928c926000928c9287921690600401613b45565b60206040518083038185885af1158015612882573d6000803e3d6000fd5b50505050506040513d601f19601f820116820180604052508101906128a79190613b9e565b50505050505050565b6020600582811b8216948552835194820394909452604060008181206002851615871b808503919091528386015190528181206004851615871b808503919091528286015190528181206008851615871b80850391909152606086015190528181206010851615871b8085039190915260808087015190915282822084861615881b8086039190915260a0870151905282822083861615881b8086039190915260c0870151905282822090851615871b8085039190915260e0860151905281812061010080861615881b80860392909252860151905281812061020080861615881b80860392909252610120870151909152828220610400861615881b808603919091526101408701519052828220610800861615881b808603919091526101608701519052828220611000861615881b808603919091526101808701519052828220612000861615881b808603919091526101a08701519052828220614000861615881b808603919091526101c08701519052828220618000861615881b808603919091526101e0870151905282822062010000861615881b8086039190915290860151905281812062020000851615871b80850391909152610220860151905281812062040000851615871b80850391909152610240860151905281812062080000851615871b80850391909152610260860151905281812062100000851615871b80850391909152610280860151905281812062200000851615871b808503919091526102a0860151905281812062400000851615871b808503919091526102c0860151905281812062800000851615871b808503919091526102e086015190528181206301000000851615871b8085039190915261030086015190528181206302000000851615871b8085039190915261032086015190528181206304000000851615871b8085039190915261034086015190528181206308000000851615871b8085039190915261036086015190528181206310000000851615871b8085039190915261038086015190528181206320000000851615871b808503919091526103a086015190528181206340000000851615871b808503919091526103c0860151905281812063800000009094161590951b91829003929092526103e090920151909152902090565b80612c415760405162461bcd60e51b8152602060048201526013602482015272616767726567617465526f6f7420656d70747960681b6044820152606401610bc8565b6000818152600a602052604090205460ff1615612c5b5750565b60008181526009602052604081205490819003612cb15760405162461bcd60e51b81526020600482015260146024820152731859d9dc9959d85d19549bdbdd0808595e1a5cdd60621b6044820152606401610bc8565b600854612cbe8243613a0f565b1015612d0c5760405162461bcd60e51b815260206004820152601760248201527f616767726567617465526f6f74202176657269666965640000000000000000006044820152606401610bc8565b6000828152600a6020526040808220805460ff191660011790555183917f36b314aba9f663b4d3ef3288ae489341cc5e6a2725a05fa2b72df7a27e03f42a91a250600090815260096020526040812055565b815160009060208401612d7964ffffffffff8516828461305a565b95945050505050565b600061187c62ffffff19831660286004613097565b600080612dad8360781c6001600160601b031690565b6001600160601b031690506000612dcd8460181c6001600160601b031690565b6001600160601b03169091209392505050565b600061187c612dee836130c7565b90565b600061187c62ffffff198316826004613097565b600061187c62ffffff19831660246004613097565b600061187c62ffffff198316600460206130d8565b600061187c604c612e4d81601886901c6001600160601b0316613a0f565b62ffffff198516919060006131e3565b6060600080612e758460181c6001600160601b031690565b6001600160601b031690506040519150819250612e95848360200161325f565b508181016020016040529052919050565b6000606060008060008661ffff1667ffffffffffffffff811115612ecc57612ecc61348e565b6040519080825280601f01601f191660200182016040528015612ef6576020820181803683370190505b5090506000808751602089018b8e8ef191503d925086831115612f17578692505b828152826000602083013e90999098509650505050505050565b80612f6f5760405162461bcd60e51b815260206004820152600e60248201526d6e657720726f6f7420656d70747960901b6044820152606401610bc8565b60008181526009602052604090205415612fc25760405162461bcd60e51b8152602060048201526014602482015273726f6f7420616c72656164792070656e64696e6760601b6044820152606401610bc8565b6000818152600a602052604090205460ff16156130175760405162461bcd60e51b81526020600482015260136024820152723937b7ba1030b63932b0b23c90383937bb32b760691b6044820152606401610bc8565b60008181526009602052604090819020439055517f84ef18531155afdb0e64ff905d67044ae3aac63a6fba4661cfd9c4c14f289bc890610f3a9083815260200190565b60008061306783856138a0565b9050604051811115613077575060005b8060000361308c5762ffffff19915050611d81565b612d79858585613352565b60006130a4826020613bc8565b6130af906008613be1565b60ff166130bd8585856130d8565b901c949350505050565b600061187c62ffffff198316602c60205b60008160ff166000036130ed57506000611d81565b6131008460181c6001600160601b031690565b6001600160601b031661311660ff8416856138a0565b111561317e5761312f8460781c6001600160601b031690565b6131428560181c6001600160601b031690565b6040516378218d2960e01b81526001600160601b039283166004820152911660248201526044810184905260ff83166064820152608401610bc8565b60208260ff1611156131a35760405163045df3f960e01b815260040160405180910390fd5b6008820260006131bc8660781c6001600160601b031690565b6001600160601b031690506000600160ff1b60001984011d91909501511695945050505050565b6000806131f98660781c6001600160601b031690565b6001600160601b0316905061320d866133c9565b8461321887846138a0565b61322291906138a0565b11156132355762ffffff19915050613257565b61323f85826138a0565b90506132538364ffffffffff16828661305a565b9150505b949350505050565b600062ffffff19808416036132875760405163148d513360e21b815260040160405180910390fd5b61329083613402565b156132ae57604051632ee0949160e11b815260040160405180910390fd5b60006132c38460181c6001600160601b031690565b6001600160601b0316905060006132e38560781c6001600160601b031690565b6001600160601b031690506000806040519150858211156133045760206060fd5b8386858560045afa90508061332c57604051632af1bd9b60e21b815260040160405180910390fd5b6133476133398860d81c90565b64ffffffffff168786613352565b979650505050505050565b60006060601883856001600160601b0382168214801561337a575086816001600160601b0316145b6133b35760405162461bcd60e51b815260206004820152600a602482015269085d1c9d5b98d85d195960b21b6044820152606401610bc8565b96831b90961790911b90941790931b9392505050565b60006133de8260181c6001600160601b031690565b6133f18360781c6001600160601b031690565b016001600160601b03169050919050565b600061340e8260d81c90565b64ffffffffff1664ffffffffff0361342857506001919050565b6000613433836133c9565b604051109392505050565b80356001600160a01b038116811461345557600080fd5b919050565b60006020828403121561346c57600080fd5b611d818261343e565b60006020828403121561348757600080fd5b5035919050565b634e487b7160e01b600052604160045260246000fd5b604051601f8201601f1916810167ffffffffffffffff811182821017156134cd576134cd61348e565b604052919050565b600082601f8301126134e657600080fd5b813567ffffffffffffffff8111156135005761350061348e565b613513601f8201601f19166020016134a4565b81815284602083860101111561352857600080fd5b816020850160208301376000918101602001919091529392505050565b60006020828403121561355757600080fd5b813567ffffffffffffffff81111561356e57600080fd5b613257848285016134d5565b634e487b7160e01b600052602160045260246000fd5b60208101600383106135b257634e487b7160e01b600052602160045260246000fd5b91905290565b600080604083850312156135cb57600080fd5b823591506135db6020840161343e565b90509250929050565b600080600080600061046086880312156135fd57600080fd5b853567ffffffffffffffff8082111561361557600080fd5b818801915088601f83011261362957600080fd5b81358181111561363857600080fd5b8960208260051b850101111561364d57600080fd5b60209283019750955050860135925061044086018781111561366e57600080fd5b94979396509194604001933592915050565b803561ffff8116811461345557600080fd5b600080600080600060a086880312156136aa57600080fd5b853567ffffffffffffffff808211156136c257600080fd5b6136ce89838a016134d5565b96506020915081880135818111156136e557600080fd5b8801601f81018a136136f657600080fd5b8035828111156137085761370861348e565b8060051b6137178582016134a4565b918252828101850191858101908d84111561373157600080fd5b86850192505b8383101561376d5782358681111561374f5760008081fd5b61375d8f89838901016134d5565b8352509186019190860190613737565b809a50505050505050506040860135925061378a60608701613680565b949793965091946080013592915050565b803563ffffffff8116811461345557600080fd5b6000602082840312156137c157600080fd5b611d818261379b565b6000806000606084860312156137df57600080fd5b6137e88461379b565b925060208401359150604084013567ffffffffffffffff81111561380b57600080fd5b613817868287016134d5565b9150509250925092565b60005b8381101561383c578181015183820152602001613824565b50506000910152565b6000815180845261385d816020860160208601613821565b601f01601f19169290920160200192915050565b828152604060208201526000611d7e6040830184613845565b634e487b7160e01b600052601160045260246000fd5b8082018082111561187c5761187c61388a565b6000602082840312156138c557600080fd5b5051919050565b6060815260006138df6060830186613845565b82810360208401526138f18186613845565b91505060018060a01b0383166040830152949350505050565b6000806040838503121561391d57600080fd5b505080516020909101519092909150565b6040815260006139416040830185613845565b905060018060a01b03831660208301529392505050565b634e487b7160e01b600052603260045260246000fd5b6000823561043e1983360301811261398557600080fd5b9190910192915050565b6000808335601e198436030181126139a657600080fd5b83018035915067ffffffffffffffff8211156139c157600080fd5b6020019150368190038213156139d657600080fd5b9250929050565b8183823760009101908152919050565b6000602082840312156139ff57600080fd5b81518015158114611d8157600080fd5b8181038181111561187c5761187c61388a565b600063ffffffff808316818103613a3b57613a3b61388a565b6001019392505050565b848152836020820152826040820152608060608201526000613a6a6080830184613845565b9695505050505050565b600063ffffffff808716835280861660208401525083604083015260806060830152613a6a6080830184613845565b8381528215156020820152606060408201526000612d796060830184613845565b80516020808301519190811015613ae5576000198160200360031b1b821691505b50919050565b600063ffffffff60e01b808960e01b168352876004840152808760e01b166024840152808660e01b1660288401525083602c8301528251613b3381604c850160208701613821565b91909101604c01979650505050505050565b600061ffff808a16835260018060a01b03808a16602085015260e06040850152613b7260e085018a613845565b925087606085015286608085015281861660a085015280851660c0850152505098975050505050505050565b600060208284031215613bb057600080fd5b815167ffffffffffffffff81168114611d8157600080fd5b60ff828116828216039081111561187c5761187c61388a565b60ff8181168382160290811690818114613bfd57613bfd61388a565b509291505056fea26469706673582212204627bda9a7d2fc64888fe8681bbab40c9a63c69251c11fa3df2425e5986b5bc164736f6c63430008110033",
  "devdoc": {
    "kind": "dev",
    "methods": {
      "addSender(address)": {
        "details": "Only allowlisted routers (senders) can call `dispatch`."
      },
      "dispatch(uint32,bytes32,bytes)": {
        "details": "The root of this tree will eventually be dispatched to mainnet via `send`. On mainnet (the \"hub\"), it will be combined into a single aggregate root by RootManager (along with outbound roots from other chains). This aggregate root will be redistributed to all destination chains. NOTE: okay to leave dispatch operational when paused as pause is designed for crosschain interactions"
      },
      "home()": {
        "details": "The local inbox contract is a SpokeConnector with AMBs, and a Home contract with nomad",
        "returns": {
          "_0": "The local inbox contract"
        }
      },
      "isReplica(address)": {
        "returns": {
          "_0": "True if _potentialReplica is an enrolled Replica"
        }
      },
      "paused()": {
        "details": "Returns true if the contract is paused, and false otherwise."
      },
      "processMessage(bytes)": {
        "details": "This is called by AMBs to process messages originating from mirror connector"
      },
      "proveAndProcess((bytes,bytes32[32],uint256)[],bytes32,bytes32[32],uint256)": {
        "details": "Currently, ALL messages in a given batch must path to the same shared inboundRoot, meaning they must all share an origin. See open TODO below for a potential solution to enable multi-origin batches.Intended to be called by the relayer at specific intervals during runtime.Will record a calculated root as having been proven if we've already proven that it was included in the aggregateRoot.",
        "params": {
          "_aggregateIndex": "Index of the inbound root in the aggregator's merkle tree in the hub.",
          "_aggregatePath": "Merkle path of inclusion for the inbound root.",
          "_aggregateRoot": "The target aggregate root we want to prove inclusion for. This root must have already been delivered to this spoke connector contract and surpassed the validation period.",
          "_proofs": "Batch of Proofs containing messages for proving/processing."
        }
      },
      "quoteEVMDeliveryPrice(uint256,address)": {
        "details": "calculcate gas to call `receiveWormholeMessages` on target chain https://github.com/wormhole-foundation/wormhole/blob/main/ethereum/contracts/relayer/deliveryProvider/DeliveryProvider.sol"
      },
      "receiveWormholeMessages(bytes,bytes[],bytes32,uint16,bytes32)": {
        "details": "This is defined here instead of the `BaseWormhole` to avoid storing AMB values twice."
      },
      "removePendingAggregateRoot(bytes32)": {
        "details": "This method is required for handling fraud cases in the current construction.",
        "params": {
          "_fraudulentRoot": "Target fraudulent root that should be erased from the `pendingAggregateRoots` mapping."
        }
      },
      "removeSender(address)": {
        "details": "Only allowlisted routers (senders) can call `dispatch`."
      },
      "setRateLimitBlocks(uint256)": {
        "details": "Rate limit is used to mitigate DoS vectors. (See `RateLimited` for more info.)",
        "params": {
          "_rateLimit": "The number of blocks require between sending messages. If set to 0, rate limiting for this spoke connector will be disabled."
        }
      },
      "setRefundAddress(address)": {
        "params": {
          "_updated": "The updated refund address"
        }
      },
      "withdrawFunds(address)": {
        "details": "Withdraws the entire balance of the contract.",
        "params": {
          "_to": "The recipient of the funds withdrawn"
        }
      }
    },
    "version": 1
  },
  "userdoc": {
    "events": {
      "FundsWithdrawn(address,uint256)": {
        "notice": "Emitted when funds are withdrawn by the admin"
      },
      "GasCapUpdated(uint256,uint256)": {
        "notice": "Emitted when admin updates the gas cap"
      },
      "MessageProcessed(bytes,address)": {
        "notice": "Emitted whenever a message is successfully received over an AMB"
      },
      "MessageSent(bytes,bytes,address)": {
        "notice": "Emitted whenever a message is successfully sent over an AMB"
      },
      "WatcherManagerChanged(address)": {
        "notice": "Emitted when the manager address changes"
      }
    },
    "kind": "user",
    "methods": {
      "AMB()": {
        "notice": "Address of the AMB on this domain."
      },
      "DOMAIN()": {
        "notice": "The domain of this Messaging (i.e. Connector) contract."
      },
      "MERKLE()": {
        "notice": "MerkleTreeManager contract instance. Will hold the active tree of message hashes, whose root will be sent crosschain to the hub for aggregation and redistribution."
      },
      "MIRROR_DOMAIN()": {
        "notice": "The domain of the corresponding messaging (i.e. Connector) contract."
      },
      "MIRROR_WORMHOLE_ID()": {
        "notice": "The wormhole id for the mirror network"
      },
      "PROCESS_GAS()": {
        "notice": "Minimum gas for processing a received message (reserved for handle)"
      },
      "RESERVE_GAS()": {
        "notice": "Reserved gas (to ensure tx completes in case message processing runs out)"
      },
      "ROOT_MANAGER()": {
        "notice": "RootManager contract address."
      },
      "acceptProposedOwner()": {
        "notice": "Transfers ownership of the contract to a new account (`newOwner`). Can only be called by the current owner."
      },
      "addSender(address)": {
        "notice": "Adds a sender to the allowlist."
      },
      "delay()": {
        "notice": "Returns the delay period before a new owner can be accepted."
      },
      "delayBlocks()": {
        "notice": "Number of blocks to delay the processing of a message to allow for watchers to verify the validity and pause if necessary."
      },
      "dispatch(uint32,bytes32,bytes)": {
        "notice": "This function adds transfers to the outbound transfer merkle tree."
      },
      "home()": {
        "notice": "Get the local inbox contract from the xAppConnectionManager"
      },
      "isReplica(address)": {
        "notice": "Determine whether _potentialReplica is an enrolled Replica from the xAppConnectionManager"
      },
      "lastSentBlock()": {
        "notice": "Tracks the last block that we sent a message."
      },
      "localDomain()": {
        "notice": "This provides the implementation for what is defined in the ConnectorManager to avoid storing the domain redundantly"
      },
      "messages(bytes32)": {
        "notice": "Mapping of message leaves to MessageStatus, keyed on leaf."
      },
      "mirrorConnector()": {
        "notice": "Connector on L2 for L1 connectors, and vice versa."
      },
      "nonces(uint32)": {
        "notice": "domain => next available nonce for the domain."
      },
      "outboundRoot()": {
        "notice": "This returns the root of all messages with the origin domain as this domain (i.e. all outbound messages)"
      },
      "owner()": {
        "notice": "Returns the address of the current owner."
      },
      "pause()": {
        "notice": "Watchers can pause contracts if fraud is detected"
      },
      "pendingAggregateRoots(bytes32)": {
        "notice": "This will hold the commit block for incoming aggregateRoots from the hub chain. Once they are verified, (i.e. have surpassed the verification period in `delayBlocks`) they can be used for proving inclusion of crosschain messages."
      },
      "processMessage(bytes)": {
        "notice": "Processes a message received by an AMB"
      },
      "processedWhMessages(bytes32)": {
        "notice": "Mapping of processed messages from wormhole."
      },
      "proposeNewOwner(address)": {
        "notice": "Sets the timestamp for an owner to be proposed, and sets the newly proposed owner as step 1 in a 2-step process"
      },
      "proposed()": {
        "notice": "Returns the address of the proposed owner."
      },
      "proposedTimestamp()": {
        "notice": "Returns the address of the proposed owner."
      },
      "proveAndProcess((bytes,bytes32[32],uint256)[],bytes32,bytes32[32],uint256)": {
        "notice": "Must be able to call the `handle` function on the BridgeRouter contract. This is called on the destination domain to handle incoming messages. Proving: Calculates the expected inbound root from an origin chain given a leaf (message hash), the index of the leaf, and the merkle proof of inclusion (path). Next, we check to ensure that this calculated inbound root is included in the current aggregateRoot, given its index in the aggregator tree and the proof of inclusion. Processing: After all messages have been proven, we dispatch each message to Connext (BridgeRouter) for execution."
      },
      "provenAggregateRoots(bytes32)": {
        "notice": "This tracks the roots of the aggregate tree containing outbound roots from all other supported domains. The current version is the one that is known to be past the delayBlocks time period."
      },
      "provenMessageRoots(bytes32)": {
        "notice": "This tracks whether the root has been proven to exist within the given aggregate root."
      },
      "rateLimitBlocks()": {
        "notice": "The number of blocks required between message sending events."
      },
      "receiveWormholeMessages(bytes,bytes[],bytes32,uint16,bytes32)": {
        "notice": "This function is called to receive messages through the wormhole relayer module https://book.wormhole.com/technical/evm/relayer.html"
      },
      "refundAddress()": {
        "notice": "The address on this chain any refunds from wormhole fees will be sent to"
      },
      "removePendingAggregateRoot(bytes32)": {
        "notice": "Manually remove a pending aggregateRoot by owner if the contract is paused."
      },
      "removeSender(address)": {
        "notice": "Removes a sender from the allowlist."
      },
      "renounceOwnership()": {
        "notice": "Should not be able to renounce ownership"
      },
      "renounced()": {
        "notice": "Indicates if the ownership has been renounced() by checking if current owner is address(0)"
      },
      "send(bytes)": {
        "notice": "This returns the root of all messages with the origin domain as this domain (i.e. all outbound messages)"
      },
      "sentMessageRoots(bytes32)": {
        "notice": "This mapping records all message roots that have already been sent in order to prevent redundant message roots from being sent to hub."
      },
      "setDelayBlocks(uint256)": {
        "notice": "Set the `delayBlocks`, the period in blocks over which an incoming message is verified."
      },
      "setMirrorConnector(address)": {
        "notice": "Sets the address of the l2Connector for this domain"
      },
      "setRateLimitBlocks(uint256)": {
        "notice": "Set the rate limit (number of blocks) at which we can send messages from this contract to the hub chain using the `send` method."
      },
      "setRefundAddress(address)": {
        "notice": "Allows the owner to set a new address to collect excess wormhole fees."
      },
      "setWatcherManager(address)": {
        "notice": "Owner can enroll a watcher (abilities are defined by inheriting contracts)"
      },
      "unpause()": {
        "notice": "Owner can unpause contracts if fraud is detected by watchers"
      },
      "verifySender(address)": {
        "notice": "Checks the cross domain sender for a given address"
      },
      "watcherManager()": {
        "notice": "The `WatcherManager` contract governs the watcher allowlist."
      },
      "withdrawFunds(address)": {
        "notice": "This function should be callable by owner, and send funds trapped on a connector to the provided recipient."
      }
    },
    "version": 1
  },
  "storageLayout": {
    "storage": [
      {
        "astId": 43323,
        "contract": "contracts/messaging/connectors/wormhole/WormholeSpokeConnector.sol:WormholeSpokeConnector",
        "label": "_owner",
        "offset": 0,
        "slot": "0",
        "type": "t_address"
      },
      {
        "astId": 43325,
        "contract": "contracts/messaging/connectors/wormhole/WormholeSpokeConnector.sol:WormholeSpokeConnector",
        "label": "_proposed",
        "offset": 0,
        "slot": "1",
        "type": "t_address"
      },
      {
        "astId": 43327,
        "contract": "contracts/messaging/connectors/wormhole/WormholeSpokeConnector.sol:WormholeSpokeConnector",
        "label": "_proposedOwnershipTimestamp",
        "offset": 0,
        "slot": "2",
        "type": "t_uint256"
      },
      {
        "astId": 32363,
        "contract": "contracts/messaging/connectors/wormhole/WormholeSpokeConnector.sol:WormholeSpokeConnector",
        "label": "mirrorConnector",
        "offset": 0,
        "slot": "3",
        "type": "t_address"
      },
      {
        "astId": 2738,
        "contract": "contracts/messaging/connectors/wormhole/WormholeSpokeConnector.sol:WormholeSpokeConnector",
        "label": "_paused",
        "offset": 20,
        "slot": "3",
        "type": "t_bool"
      },
      {
        "astId": 32136,
        "contract": "contracts/messaging/connectors/wormhole/WormholeSpokeConnector.sol:WormholeSpokeConnector",
        "label": "watcherManager",
        "offset": 0,
        "slot": "4",
        "type": "t_contract(WatcherManager)32317"
      },
      {
        "astId": 43251,
        "contract": "contracts/messaging/connectors/wormhole/WormholeSpokeConnector.sol:WormholeSpokeConnector",
        "label": "rateLimitBlocks",
        "offset": 0,
        "slot": "5",
        "type": "t_uint256"
      },
      {
        "astId": 43254,
        "contract": "contracts/messaging/connectors/wormhole/WormholeSpokeConnector.sol:WormholeSpokeConnector",
        "label": "lastSentBlock",
        "offset": 0,
        "slot": "6",
        "type": "t_uint256"
      },
      {
        "astId": 2839,
        "contract": "contracts/messaging/connectors/wormhole/WormholeSpokeConnector.sol:WormholeSpokeConnector",
        "label": "_status",
        "offset": 0,
        "slot": "7",
        "type": "t_uint256"
      },
      {
        "astId": 32858,
        "contract": "contracts/messaging/connectors/wormhole/WormholeSpokeConnector.sol:WormholeSpokeConnector",
        "label": "delayBlocks",
        "offset": 0,
        "slot": "8",
        "type": "t_uint256"
      },
      {
        "astId": 32873,
        "contract": "contracts/messaging/connectors/wormhole/WormholeSpokeConnector.sol:WormholeSpokeConnector",
        "label": "pendingAggregateRoots",
        "offset": 0,
        "slot": "9",
        "type": "t_mapping(t_bytes32,t_uint256)"
      },
      {
        "astId": 32878,
        "contract": "contracts/messaging/connectors/wormhole/WormholeSpokeConnector.sol:WormholeSpokeConnector",
        "label": "provenAggregateRoots",
        "offset": 0,
        "slot": "10",
        "type": "t_mapping(t_bytes32,t_bool)"
      },
      {
        "astId": 32883,
        "contract": "contracts/messaging/connectors/wormhole/WormholeSpokeConnector.sol:WormholeSpokeConnector",
        "label": "provenMessageRoots",
        "offset": 0,
        "slot": "11",
        "type": "t_mapping(t_bytes32,t_bool)"
      },
      {
        "astId": 32888,
        "contract": "contracts/messaging/connectors/wormhole/WormholeSpokeConnector.sol:WormholeSpokeConnector",
        "label": "sentMessageRoots",
        "offset": 0,
        "slot": "12",
        "type": "t_mapping(t_bytes32,t_bool)"
      },
      {
        "astId": 32893,
        "contract": "contracts/messaging/connectors/wormhole/WormholeSpokeConnector.sol:WormholeSpokeConnector",
        "label": "allowlistedSenders",
        "offset": 0,
        "slot": "13",
        "type": "t_mapping(t_address,t_bool)"
      },
      {
        "astId": 32898,
        "contract": "contracts/messaging/connectors/wormhole/WormholeSpokeConnector.sol:WormholeSpokeConnector",
        "label": "nonces",
        "offset": 0,
        "slot": "14",
        "type": "t_mapping(t_uint32,t_uint32)"
      },
      {
        "astId": 32904,
        "contract": "contracts/messaging/connectors/wormhole/WormholeSpokeConnector.sol:WormholeSpokeConnector",
        "label": "messages",
        "offset": 0,
        "slot": "15",
        "type": "t_mapping(t_bytes32,t_enum(MessageStatus)32846)"
      },
      {
        "astId": 32613,
        "contract": "contracts/messaging/connectors/wormhole/WormholeSpokeConnector.sol:WormholeSpokeConnector",
        "label": "gasCap",
        "offset": 0,
        "slot": "16",
        "type": "t_uint256"
      },
      {
        "astId": 39468,
        "contract": "contracts/messaging/connectors/wormhole/WormholeSpokeConnector.sol:WormholeSpokeConnector",
        "label": "refundAddress",
        "offset": 0,
        "slot": "17",
        "type": "t_address"
      },
      {
        "astId": 39473,
        "contract": "contracts/messaging/connectors/wormhole/WormholeSpokeConnector.sol:WormholeSpokeConnector",
        "label": "processedWhMessages",
        "offset": 0,
        "slot": "18",
        "type": "t_mapping(t_bytes32,t_bool)"
      }
    ],
    "types": {
      "t_address": {
        "encoding": "inplace",
        "label": "address",
        "numberOfBytes": "20"
      },
      "t_bool": {
        "encoding": "inplace",
        "label": "bool",
        "numberOfBytes": "1"
      },
      "t_bytes32": {
        "encoding": "inplace",
        "label": "bytes32",
        "numberOfBytes": "32"
      },
      "t_contract(WatcherManager)32317": {
        "encoding": "inplace",
        "label": "contract WatcherManager",
        "numberOfBytes": "20"
      },
      "t_enum(MessageStatus)32846": {
        "encoding": "inplace",
        "label": "enum SpokeConnector.MessageStatus",
        "numberOfBytes": "1"
      },
      "t_mapping(t_address,t_bool)": {
        "encoding": "mapping",
        "key": "t_address",
        "label": "mapping(address => bool)",
        "numberOfBytes": "32",
        "value": "t_bool"
      },
      "t_mapping(t_bytes32,t_bool)": {
        "encoding": "mapping",
        "key": "t_bytes32",
        "label": "mapping(bytes32 => bool)",
        "numberOfBytes": "32",
        "value": "t_bool"
      },
      "t_mapping(t_bytes32,t_enum(MessageStatus)32846)": {
        "encoding": "mapping",
        "key": "t_bytes32",
        "label": "mapping(bytes32 => enum SpokeConnector.MessageStatus)",
        "numberOfBytes": "32",
        "value": "t_enum(MessageStatus)32846"
      },
      "t_mapping(t_bytes32,t_uint256)": {
        "encoding": "mapping",
        "key": "t_bytes32",
        "label": "mapping(bytes32 => uint256)",
        "numberOfBytes": "32",
        "value": "t_uint256"
      },
      "t_mapping(t_uint32,t_uint32)": {
        "encoding": "mapping",
        "key": "t_uint32",
        "label": "mapping(uint32 => uint32)",
        "numberOfBytes": "32",
        "value": "t_uint32"
      },
      "t_uint256": {
        "encoding": "inplace",
        "label": "uint256",
        "numberOfBytes": "32"
      },
      "t_uint32": {
        "encoding": "inplace",
        "label": "uint32",
        "numberOfBytes": "4"
      }
    }
  }
}