{
  "address": "0x69009c6f567590d8B469dbF4C8808e8ee32b8a45",
  "abi": [
    {
      "inputs": [
        {
          "internalType": "uint32",
          "name": "_domain",
          "type": "uint32"
        },
        {
          "internalType": "uint32",
          "name": "_mirrorDomain",
          "type": "uint32"
        },
        {
          "internalType": "address",
          "name": "_amb",
          "type": "address"
        },
        {
          "internalType": "address",
          "name": "_rootManager",
          "type": "address"
        },
        {
          "internalType": "address",
          "name": "_mirrorConnector",
          "type": "address"
        },
        {
          "internalType": "uint256",
          "name": "_gasCap",
          "type": "uint256"
        },
        {
          "internalType": "uint16",
          "name": "_mirrorWormholeChainId",
          "type": "uint16"
        }
      ],
      "stateMutability": "nonpayable",
      "type": "constructor"
    },
    {
      "inputs": [],
      "name": "Connector__processMessage_notUsed",
      "type": "error"
    },
    {
      "inputs": [],
      "name": "ProposedOwnable__onlyOwner_notOwner",
      "type": "error"
    },
    {
      "inputs": [],
      "name": "ProposedOwnable__onlyProposed_notProposedOwner",
      "type": "error"
    },
    {
      "inputs": [],
      "name": "ProposedOwnable__ownershipDelayElapsed_delayNotElapsed",
      "type": "error"
    },
    {
      "inputs": [],
      "name": "ProposedOwnable__proposeNewOwner_invalidProposal",
      "type": "error"
    },
    {
      "inputs": [],
      "name": "ProposedOwnable__proposeNewOwner_noOwnershipChange",
      "type": "error"
    },
    {
      "inputs": [],
      "name": "ProposedOwnable__renounceOwnership_invalidProposal",
      "type": "error"
    },
    {
      "inputs": [],
      "name": "ProposedOwnable__renounceOwnership_noProposal",
      "type": "error"
    },
    {
      "anonymous": false,
      "inputs": [
        {
          "indexed": false,
          "internalType": "uint256",
          "name": "_previous",
          "type": "uint256"
        },
        {
          "indexed": false,
          "internalType": "uint256",
          "name": "_updated",
          "type": "uint256"
        }
      ],
      "name": "GasCapUpdated",
      "type": "event"
    },
    {
      "anonymous": false,
      "inputs": [
        {
          "indexed": false,
          "internalType": "bytes",
          "name": "data",
          "type": "bytes"
        },
        {
          "indexed": false,
          "internalType": "address",
          "name": "caller",
          "type": "address"
        }
      ],
      "name": "MessageProcessed",
      "type": "event"
    },
    {
      "anonymous": false,
      "inputs": [
        {
          "indexed": false,
          "internalType": "bytes",
          "name": "data",
          "type": "bytes"
        },
        {
          "indexed": false,
          "internalType": "bytes",
          "name": "encodedData",
          "type": "bytes"
        },
        {
          "indexed": false,
          "internalType": "address",
          "name": "caller",
          "type": "address"
        }
      ],
      "name": "MessageSent",
      "type": "event"
    },
    {
      "anonymous": false,
      "inputs": [
        {
          "indexed": false,
          "internalType": "address",
          "name": "previous",
          "type": "address"
        },
        {
          "indexed": false,
          "internalType": "address",
          "name": "current",
          "type": "address"
        }
      ],
      "name": "MirrorConnectorUpdated",
      "type": "event"
    },
    {
      "anonymous": false,
      "inputs": [
        {
          "indexed": true,
          "internalType": "uint32",
          "name": "domain",
          "type": "uint32"
        },
        {
          "indexed": true,
          "internalType": "uint32",
          "name": "mirrorDomain",
          "type": "uint32"
        },
        {
          "indexed": false,
          "internalType": "address",
          "name": "amb",
          "type": "address"
        },
        {
          "indexed": false,
          "internalType": "address",
          "name": "rootManager",
          "type": "address"
        },
        {
          "indexed": false,
          "internalType": "address",
          "name": "mirrorConnector",
          "type": "address"
        }
      ],
      "name": "NewConnector",
      "type": "event"
    },
    {
      "anonymous": false,
      "inputs": [
        {
          "indexed": true,
          "internalType": "address",
          "name": "proposedOwner",
          "type": "address"
        }
      ],
      "name": "OwnershipProposed",
      "type": "event"
    },
    {
      "anonymous": false,
      "inputs": [
        {
          "indexed": true,
          "internalType": "address",
          "name": "previousOwner",
          "type": "address"
        },
        {
          "indexed": true,
          "internalType": "address",
          "name": "newOwner",
          "type": "address"
        }
      ],
      "name": "OwnershipTransferred",
      "type": "event"
    },
    {
      "anonymous": false,
      "inputs": [
        {
          "indexed": true,
          "internalType": "address",
          "name": "previous",
          "type": "address"
        },
        {
          "indexed": true,
          "internalType": "address",
          "name": "updated",
          "type": "address"
        }
      ],
      "name": "RefundAddressUpdated",
      "type": "event"
    },
    {
      "inputs": [],
      "name": "AMB",
      "outputs": [
        {
          "internalType": "address",
          "name": "",
          "type": "address"
        }
      ],
      "stateMutability": "view",
      "type": "function"
    },
    {
      "inputs": [],
      "name": "DOMAIN",
      "outputs": [
        {
          "internalType": "uint32",
          "name": "",
          "type": "uint32"
        }
      ],
      "stateMutability": "view",
      "type": "function"
    },
    {
      "inputs": [],
      "name": "MIRROR_DOMAIN",
      "outputs": [
        {
          "internalType": "uint32",
          "name": "",
          "type": "uint32"
        }
      ],
      "stateMutability": "view",
      "type": "function"
    },
    {
      "inputs": [],
      "name": "MIRROR_WORMHOLE_ID",
      "outputs": [
        {
          "internalType": "uint16",
          "name": "",
          "type": "uint16"
        }
      ],
      "stateMutability": "view",
      "type": "function"
    },
    {
      "inputs": [],
      "name": "ROOT_MANAGER",
      "outputs": [
        {
          "internalType": "address",
          "name": "",
          "type": "address"
        }
      ],
      "stateMutability": "view",
      "type": "function"
    },
    {
      "inputs": [],
      "name": "acceptProposedOwner",
      "outputs": [],
      "stateMutability": "nonpayable",
      "type": "function"
    },
    {
      "inputs": [],
      "name": "delay",
      "outputs": [
        {
          "internalType": "uint256",
          "name": "",
          "type": "uint256"
        }
      ],
      "stateMutability": "view",
      "type": "function"
    },
    {
      "inputs": [],
      "name": "mirrorConnector",
      "outputs": [
        {
          "internalType": "address",
          "name": "",
          "type": "address"
        }
      ],
      "stateMutability": "view",
      "type": "function"
    },
    {
      "inputs": [],
      "name": "owner",
      "outputs": [
        {
          "internalType": "address",
          "name": "",
          "type": "address"
        }
      ],
      "stateMutability": "view",
      "type": "function"
    },
    {
      "inputs": [
        {
          "internalType": "bytes",
          "name": "_data",
          "type": "bytes"
        }
      ],
      "name": "processMessage",
      "outputs": [],
      "stateMutability": "nonpayable",
      "type": "function"
    },
    {
      "inputs": [
        {
          "internalType": "bytes32",
          "name": "",
          "type": "bytes32"
        }
      ],
      "name": "processedWhMessages",
      "outputs": [
        {
          "internalType": "bool",
          "name": "",
          "type": "bool"
        }
      ],
      "stateMutability": "view",
      "type": "function"
    },
    {
      "inputs": [
        {
          "internalType": "address",
          "name": "newlyProposed",
          "type": "address"
        }
      ],
      "name": "proposeNewOwner",
      "outputs": [],
      "stateMutability": "nonpayable",
      "type": "function"
    },
    {
      "inputs": [],
      "name": "proposed",
      "outputs": [
        {
          "internalType": "address",
          "name": "",
          "type": "address"
        }
      ],
      "stateMutability": "view",
      "type": "function"
    },
    {
      "inputs": [],
      "name": "proposedTimestamp",
      "outputs": [
        {
          "internalType": "uint256",
          "name": "",
          "type": "uint256"
        }
      ],
      "stateMutability": "view",
      "type": "function"
    },
    {
      "inputs": [
        {
          "internalType": "uint256",
          "name": "_gasLimit",
          "type": "uint256"
        },
        {
          "internalType": "address",
          "name": "_amb",
          "type": "address"
        }
      ],
      "name": "quoteEVMDeliveryPrice",
      "outputs": [
        {
          "internalType": "uint256",
          "name": "_cost",
          "type": "uint256"
        }
      ],
      "stateMutability": "view",
      "type": "function"
    },
    {
      "inputs": [
        {
          "internalType": "bytes",
          "name": "_payload",
          "type": "bytes"
        },
        {
          "internalType": "bytes[]",
          "name": "",
          "type": "bytes[]"
        },
        {
          "internalType": "bytes32",
          "name": "_sourceAddress",
          "type": "bytes32"
        },
        {
          "internalType": "uint16",
          "name": "_sourceChain",
          "type": "uint16"
        },
        {
          "internalType": "bytes32",
          "name": "_deliveryHash",
          "type": "bytes32"
        }
      ],
      "name": "receiveWormholeMessages",
      "outputs": [],
      "stateMutability": "payable",
      "type": "function"
    },
    {
      "inputs": [],
      "name": "refundAddress",
      "outputs": [
        {
          "internalType": "address",
          "name": "",
          "type": "address"
        }
      ],
      "stateMutability": "view",
      "type": "function"
    },
    {
      "inputs": [],
      "name": "renounceOwnership",
      "outputs": [],
      "stateMutability": "nonpayable",
      "type": "function"
    },
    {
      "inputs": [],
      "name": "renounced",
      "outputs": [
        {
          "internalType": "bool",
          "name": "",
          "type": "bool"
        }
      ],
      "stateMutability": "view",
      "type": "function"
    },
    {
      "inputs": [
        {
          "internalType": "bytes",
          "name": "_data",
          "type": "bytes"
        },
        {
          "internalType": "bytes",
          "name": "_encodedData",
          "type": "bytes"
        }
      ],
      "name": "sendMessage",
      "outputs": [],
      "stateMutability": "payable",
      "type": "function"
    },
    {
      "inputs": [
        {
          "internalType": "uint256",
          "name": "_gasCap",
          "type": "uint256"
        }
      ],
      "name": "setGasCap",
      "outputs": [],
      "stateMutability": "nonpayable",
      "type": "function"
    },
    {
      "inputs": [
        {
          "internalType": "address",
          "name": "_mirrorConnector",
          "type": "address"
        }
      ],
      "name": "setMirrorConnector",
      "outputs": [],
      "stateMutability": "nonpayable",
      "type": "function"
    },
    {
      "inputs": [
        {
          "internalType": "address",
          "name": "_updated",
          "type": "address"
        }
      ],
      "name": "setRefundAddress",
      "outputs": [],
      "stateMutability": "nonpayable",
      "type": "function"
    },
    {
      "inputs": [
        {
          "internalType": "address",
          "name": "_expected",
          "type": "address"
        }
      ],
      "name": "verifySender",
      "outputs": [
        {
          "internalType": "bool",
          "name": "",
          "type": "bool"
        }
      ],
      "stateMutability": "nonpayable",
      "type": "function"
    },
    {
      "stateMutability": "payable",
      "type": "receive"
    }
  ],
  "transactionHash": "0xfd467ca2bda2a7a5fb532b774fe2f69947e80e1df7f9873be5d90f92a458a60a",
  "args": [
    "6648936",
    "6450786",
    "0x27428DD2d3DD32A4D7f7C497eAaa23130d894911",
    "0xd5d61E9dfb6680Cba8353988Ba0337802811C2e1",
    "0x0000000000000000000000000000000000000000",
    "300000",
    "4"
  ],
  "numDeployments": 1,
  "solcInputHash": "e708ecce32e6efc9e346efa212a85361",
  "bytecode": "0x6101206040523480156200001257600080fd5b5060405162001a2038038062001a2083398101604081905262000035916200039b565b818181898989898984848484846200004d33620001b3565b8463ffffffff16600003620000985760405162461bcd60e51b815260206004820152600c60248201526b32b6b83a3c903237b6b0b4b760a11b60448201526064015b60405180910390fd5b6001600160a01b038216620000e45760405162461bcd60e51b815260206004820152601160248201527032b6b83a3c903937b7ba26b0b730b3b2b960791b60448201526064016200008f565b63ffffffff8086166080526001600160a01b0380851660a05283811660c05290851660e0528116156200011c576200011c8162000218565b604080516001600160a01b0385811682528481166020830152831681830152905163ffffffff86811692908816917f4f9c27c2fe3f84576ea469d367d044da53c45e951617e8389f2b5ed8db9d25f09181900360600190a3505050505050505050506200018f816200028160201b60201c565b5061ffff811661010052620001a433620002c2565b50505050505050505062000431565b600080546040516001600160a01b03808516939216917f8be0079c531659141344cd1fd0a4f28419497f9722a3daafe3b4186f6b6457e091a3600080546001600160a01b039092166001600160a01b0319928316178155600255600180549091169055565b600354604080516001600160a01b03928316815291831660208301527fc77bec288fc88f168427f2f7da682eadb26cac89d8d591af6e443da98dff2bbc910160405180910390a1600380546001600160a01b0319166001600160a01b0392909216919091179055565b60045460408051918252602082018390527f877a02cb809da0364d23adca3cd50c451b53f279d3df632e1fc11eb66335bce5910160405180910390a1600455565b6005546001600160a01b03908116908216036200030d5760405162461bcd60e51b81526020600482015260086024820152670858da185b99d95960c21b60448201526064016200008f565b6005546040516001600160a01b038084169216907f57b5839c3435f5b2eb2d2e286fb44ca7303d01d9b25a5d9c05c489523474285990600090a3600580546001600160a01b0319166001600160a01b0392909216919091179055565b805163ffffffff811681146200037e57600080fd5b919050565b80516001600160a01b03811681146200037e57600080fd5b600080600080600080600060e0888a031215620003b757600080fd5b620003c28862000369565b9650620003d26020890162000369565b9550620003e26040890162000383565b9450620003f26060890162000383565b9350620004026080890162000383565b925060a0880151915060c088015161ffff811681146200042157600080fd5b8091505092959891949750929550565b60805160a05160c05160e0516101005161156b620004b560003960008181610255015281816105e501528181610abe01526110080152600081816101aa0152610cc9015260008181610375015281816105280152610ca20152600081816104a401528181610691015281816107320152610a5901526000610321015261156b6000f3fe60806040526004361061014f5760003560e01c80635f61e3ec116100b6578063c5b350df1161006f578063c5b350df14610420578063cc39428314610435578063d1851c9214610455578063d232c22014610473578063d69f9d6114610492578063db1b7659146104c657600080fd5b80635f61e3ec146103635780636a42b8f814610397578063715018a6146103ad5780637850b020146103c25780638da5cb5b146103e2578063b1f8100d1461040057600080fd5b806348e6fa231161010857806348e6fa23146102a95780634d93538b146102bc5780634ff746f6146102dc578063529dca32146102fc57806352a9674b1461030f5780635bd11efc1461034357600080fd5b80630cb61f6c1461015b578063141684161461019857806315b75bea146101e157806318c8170914610203578063194ea996146102435780633cf52ffb1461028a57600080fd5b3661015657005b600080fd5b34801561016757600080fd5b5060055461017b906001600160a01b031681565b6040516001600160a01b0390911681526020015b60405180910390f35b3480156101a457600080fd5b506101cc7f000000000000000000000000000000000000000000000000000000000000000081565b60405163ffffffff909116815260200161018f565b3480156101ed57600080fd5b506102016101fc3660046110a5565b6104e6565b005b34801561020f57600080fd5b5061023361021e3660046110c7565b60066020526000908152604090205460ff1681565b604051901515815260200161018f565b34801561024f57600080fd5b506102777f000000000000000000000000000000000000000000000000000000000000000081565b60405161ffff909116815260200161018f565b34801561029657600080fd5b506002545b60405190815260200161018f565b6102016102b7366004611197565b61051d565b3480156102c857600080fd5b5061029b6102d73660046111fb565b6105d2565b3480156102e857600080fd5b506102016102f7366004611227565b610686565b61020161030a366004611276565b61072c565b34801561031b57600080fd5b506101cc7f000000000000000000000000000000000000000000000000000000000000000081565b34801561034f57600080fd5b5061020161035e3660046110a5565b610770565b34801561036f57600080fd5b5061017b7f000000000000000000000000000000000000000000000000000000000000000081565b3480156103a357600080fd5b5062093a8061029b565b3480156103b957600080fd5b506102016107a4565b3480156103ce57600080fd5b506102016103dd3660046110c7565b610858565b3480156103ee57600080fd5b506000546001600160a01b031661017b565b34801561040c57600080fd5b5061020161041b3660046110a5565b61088c565b34801561042c57600080fd5b5061020161092a565b34801561044157600080fd5b5060035461017b906001600160a01b031681565b34801561046157600080fd5b506001546001600160a01b031661017b565b34801561047f57600080fd5b506000546001600160a01b031615610233565b34801561049e57600080fd5b5061017b7f000000000000000000000000000000000000000000000000000000000000000081565b3480156104d257600080fd5b506102336104e13660046110a5565b61099a565b6000546001600160a01b03163314610511576040516311a8a1bb60e31b815260040160405180910390fd5b61051a816109ab565b50565b336001600160a01b037f000000000000000000000000000000000000000000000000000000000000000016146105895760405162461bcd60e51b815260206004820152600c60248201526b10b937b7ba26b0b730b3b2b960a11b60448201526064015b60405180910390fd5b6105938282610a50565b7fdcaa37a042a0087de79018c629bbd29cee82ca80bd9be394e1696bf9e93550778282336040516105c6939291906113c5565b60405180910390a15050565b6000816001600160a01b031663c23ee3c37f0000000000000000000000000000000000000000000000000000000000000000600061060f87610a8d565b6040516001600160e01b031960e086901b16815261ffff9093166004840152602483019190915260448201526064016040805180830381865afa15801561065a573d6000803e3d6000fd5b505050506040513d601f19601f8201168201806040525081019061067e9190611403565b509392505050565b336001600160a01b037f000000000000000000000000000000000000000000000000000000000000000016146106e75760405162461bcd60e51b81526004016105809060208082526004908201526310a0a6a160e11b604082015260600190565b6106f081610aa3565b7fb3abc57bfeebd2cac918901db582f71972a8e628bccf19f5ae3e3482b98a5ced8133604051610721929190611427565b60405180910390a150565b610757827f000000000000000000000000000000000000000000000000000000000000000083610abc565b61076961076384610bd6565b86610c19565b5050505050565b6000546001600160a01b0316331461079b576040516311a8a1bb60e31b815260040160405180910390fd5b61051a81610d7e565b6000546001600160a01b031633146107cf576040516311a8a1bb60e31b815260040160405180910390fd5b62093a80600254426107e19190611451565b116107ff576040516324e0285f60e21b815260040160405180910390fd5b60025460000361082257604051630e4b303f60e21b815260040160405180910390fd5b6001546001600160a01b03161561084c576040516323295ef960e01b815260040160405180910390fd5b6108566000610de7565b565b6000546001600160a01b03163314610883576040516311a8a1bb60e31b815260040160405180910390fd5b61051a81610e4c565b6000546001600160a01b031633146108b7576040516311a8a1bb60e31b815260040160405180910390fd5b6001546001600160a01b0382811691161480156108d5575060025415155b156108f3576040516311bc066560e11b815260040160405180910390fd5b6000546001600160a01b0380831691160361092157604051634a2fb73f60e11b815260040160405180910390fd5b61051a81610e8d565b6001546001600160a01b03163314610955576040516311a7f27160e11b815260040160405180910390fd5b62093a80600254426109679190611451565b11610985576040516324e0285f60e21b815260040160405180910390fd5b600154610856906001600160a01b0316610de7565b60006109a582610edb565b92915050565b6005546001600160a01b03908116908216036109f45760405162461bcd60e51b81526020600482015260086024820152670858da185b99d95960c21b6044820152606401610580565b6005546040516001600160a01b038084169216907f57b5839c3435f5b2eb2d2e286fb44ca7303d01d9b25a5d9c05c489523474285990600090a3600580546001600160a01b0319166001600160a01b0392909216919091179055565b600354610a89907f0000000000000000000000000000000000000000000000000000000000000000906001600160a01b03168484610ef4565b5050565b6000600454821115610a9f5760045491505b5090565b6040516316c2fdb560e21b815260040160405180910390fd5b7f000000000000000000000000000000000000000000000000000000000000000061ffff168361ffff1614610b235760405162461bcd60e51b815260206004820152600d60248201526c10b9b7bab931b29031b430b4b760991b6044820152606401610580565b336001600160a01b03831614610b665760405162461bcd60e51b815260206004820152600860248201526710b932b630bcb2b960c11b6044820152606401610580565b60008181526006602052604090205460ff1615610bb95760405162461bcd60e51b8152602060048201526011602482015270185b1c9958591e481c1c9bd8d95cdcd959607a1b6044820152606401610580565b6000908152600660205260409020805460ff191660011790555050565b600060a082901c15610a9f5760405162461bcd60e51b815260206004820152600c60248201526b2165766d206164647265737360a01b6044820152606401610580565b610c2282610edb565b610c5d5760405162461bcd60e51b815260206004820152600c60248201526b10b61921b7b73732b1ba37b960a11b6044820152606401610580565b8051602014610c985760405162461bcd60e51b8152602060048201526007602482015266042d8cadccee8d60cb1b6044820152606401610580565b6001600160a01b037f000000000000000000000000000000000000000000000000000000000000000016638e7d93fa7f0000000000000000000000000000000000000000000000000000000000000000610cf184611472565b6040516001600160e01b031960e085901b16815263ffffffff9290921660048301526024820152604401600060405180830381600087803b158015610d3557600080fd5b505af1158015610d49573d6000803e3d6000fd5b505050507fb3abc57bfeebd2cac918901db582f71972a8e628bccf19f5ae3e3482b98a5ced81336040516105c6929190611427565b600354604080516001600160a01b03928316815291831660208301527fc77bec288fc88f168427f2f7da682eadb26cac89d8d591af6e443da98dff2bbc910160405180910390a1600380546001600160a01b0319166001600160a01b0392909216919091179055565b600080546040516001600160a01b03808516939216917f8be0079c531659141344cd1fd0a4f28419497f9722a3daafe3b4186f6b6457e091a3600080546001600160a01b039092166001600160a01b0319928316178155600255600180549091169055565b60045460408051918252602082018390527f877a02cb809da0364d23adca3cd50c451b53f279d3df632e1fc11eb66335bce5910160405180910390a1600455565b42600255600180546001600160a01b0319166001600160a01b0383169081179091556040517f6ab4d119f23076e8ad491bc65ce85f017fb0591dce08755ba8591059cc51737a90600090a250565b6003546000906001600160a01b038381169116146109a5565b8151602014610f345760405162461bcd60e51b815260206004820152600c60248201526b042c8c2e8c240d8cadccee8d60a31b6044820152606401610580565b8051602014610f7c5760405162461bcd60e51b8152602060048201526014602482015273042cadcc6dec8cac840c8c2e8c240d8cadccee8d60631b6044820152606401610580565b600081806020019051810190610f929190611499565b90506000610fa082876105d2565b9050348114610fde5760405162461bcd60e51b815260206004820152600a602482015269216d73672e76616c756560b01b6044820152606401610580565b6005546040516312d729bd60e21b81526001600160a01b0380891692634b5ca6f492859261103d927f0000000000000000000000000000000000000000000000000000000000000000928c928c926000928c92879216906004016114b2565b60206040518083038185885af115801561105b573d6000803e3d6000fd5b50505050506040513d601f19601f82011682018060405250810190611080919061150b565b50505050505050565b80356001600160a01b03811681146110a057600080fd5b919050565b6000602082840312156110b757600080fd5b6110c082611089565b9392505050565b6000602082840312156110d957600080fd5b5035919050565b634e487b7160e01b600052604160045260246000fd5b604051601f8201601f1916810167ffffffffffffffff8111828210171561111f5761111f6110e0565b604052919050565b600082601f83011261113857600080fd5b813567ffffffffffffffff811115611152576111526110e0565b611165601f8201601f19166020016110f6565b81815284602083860101111561117a57600080fd5b816020850160208301376000918101602001919091529392505050565b600080604083850312156111aa57600080fd5b823567ffffffffffffffff808211156111c257600080fd5b6111ce86838701611127565b935060208501359150808211156111e457600080fd5b506111f185828601611127565b9150509250929050565b6000806040838503121561120e57600080fd5b8235915061121e60208401611089565b90509250929050565b60006020828403121561123957600080fd5b813567ffffffffffffffff81111561125057600080fd5b61125c84828501611127565b949350505050565b803561ffff811681146110a057600080fd5b600080600080600060a0868803121561128e57600080fd5b853567ffffffffffffffff808211156112a657600080fd5b6112b289838a01611127565b96506020915081880135818111156112c957600080fd5b8801601f81018a136112da57600080fd5b8035828111156112ec576112ec6110e0565b8060051b6112fb8582016110f6565b918252828101850191858101908d84111561131557600080fd5b86850192505b83831015611351578235868111156113335760008081fd5b6113418f8983890101611127565b835250918601919086019061131b565b809a50505050505050506040860135925061136e60608701611264565b949793965091946080013592915050565b6000815180845260005b818110156113a557602081850181015186830182015201611389565b506000602082860101526020601f19601f83011685010191505092915050565b6060815260006113d8606083018661137f565b82810360208401526113ea818661137f565b91505060018060a01b0383166040830152949350505050565b6000806040838503121561141657600080fd5b505080516020909101519092909150565b60408152600061143a604083018561137f565b905060018060a01b03831660208301529392505050565b818103818111156109a557634e487b7160e01b600052601160045260246000fd5b80516020808301519190811015611493576000198160200360031b1b821691505b50919050565b6000602082840312156114ab57600080fd5b5051919050565b600061ffff808a16835260018060a01b03808a16602085015260e060408501526114df60e085018a61137f565b925087606085015286608085015281861660a085015280851660c0850152505098975050505050505050565b60006020828403121561151d57600080fd5b815167ffffffffffffffff811681146110c057600080fdfea26469706673582212207fae5ae139ba9412dd3eb66ea44881835a9cf3d5dfc7e4643f136b945ae492a364736f6c63430008110033",
  "devdoc": {
    "kind": "dev",
    "methods": {
      "processMessage(bytes)": {
        "details": "This is called by AMBs to process messages originating from mirror connector"
      },
      "quoteEVMDeliveryPrice(uint256,address)": {
        "details": "calculcate gas to call `receiveWormholeMessages` on target chain https://github.com/wormhole-foundation/wormhole/blob/main/ethereum/contracts/relayer/deliveryProvider/DeliveryProvider.sol"
      },
      "receiveWormholeMessages(bytes,bytes[],bytes32,uint16,bytes32)": {
        "details": "This is defined here instead of the `BaseWormhole` to avoid storing AMB values twice."
      },
      "sendMessage(bytes,bytes)": {
        "details": "This is called by the root manager *only* on mainnet to propagate the aggregate root"
      },
      "setRefundAddress(address)": {
        "params": {
          "_updated": "The updated refund address"
        }
      }
    },
    "version": 1
  },
  "userdoc": {
    "events": {
      "GasCapUpdated(uint256,uint256)": {
        "notice": "Emitted when admin updates the gas cap"
      },
      "MessageProcessed(bytes,address)": {
        "notice": "Emitted whenever a message is successfully received over an AMB"
      },
      "MessageSent(bytes,bytes,address)": {
        "notice": "Emitted whenever a message is successfully sent over an AMB"
      }
    },
    "kind": "user",
    "methods": {
      "AMB()": {
        "notice": "Address of the AMB on this domain."
      },
      "DOMAIN()": {
        "notice": "The domain of this Messaging (i.e. Connector) contract."
      },
      "MIRROR_DOMAIN()": {
        "notice": "The domain of the corresponding messaging (i.e. Connector) contract."
      },
      "MIRROR_WORMHOLE_ID()": {
        "notice": "The wormhole id for the mirror network"
      },
      "ROOT_MANAGER()": {
        "notice": "RootManager contract address."
      },
      "acceptProposedOwner()": {
        "notice": "Transfers ownership of the contract to a new account (`newOwner`). Can only be called by the current owner."
      },
      "delay()": {
        "notice": "Returns the delay period before a new owner can be accepted."
      },
      "mirrorConnector()": {
        "notice": "Connector on L2 for L1 connectors, and vice versa."
      },
      "owner()": {
        "notice": "Returns the address of the current owner."
      },
      "processMessage(bytes)": {
        "notice": "Processes a message received by an AMB"
      },
      "processedWhMessages(bytes32)": {
        "notice": "Mapping of processed messages from wormhole."
      },
      "proposeNewOwner(address)": {
        "notice": "Sets the timestamp for an owner to be proposed, and sets the newly proposed owner as step 1 in a 2-step process"
      },
      "proposed()": {
        "notice": "Returns the address of the proposed owner."
      },
      "proposedTimestamp()": {
        "notice": "Returns the address of the proposed owner."
      },
      "receiveWormholeMessages(bytes,bytes[],bytes32,uint16,bytes32)": {
        "notice": "This function is called to receive messages through the wormhole relayer module https://book.wormhole.com/technical/evm/relayer.html"
      },
      "refundAddress()": {
        "notice": "The address on this chain any refunds from wormhole fees will be sent to"
      },
      "renounceOwnership()": {
        "notice": "Renounces ownership of the contract after a delay"
      },
      "renounced()": {
        "notice": "Indicates if the ownership has been renounced() by checking if current owner is address(0)"
      },
      "sendMessage(bytes,bytes)": {
        "notice": "Sends a message over the amb"
      },
      "setMirrorConnector(address)": {
        "notice": "Sets the address of the l2Connector for this domain"
      },
      "setRefundAddress(address)": {
        "notice": "Allows the owner to set a new address to collect excess wormhole fees."
      },
      "verifySender(address)": {
        "notice": "Checks the cross domain sender for a given address"
      }
    },
    "version": 1
  },
  "storageLayout": {
    "storage": [
      {
        "astId": 43323,
        "contract": "contracts/messaging/connectors/wormhole/WormholeHubConnector.sol:WormholeHubConnector",
        "label": "_owner",
        "offset": 0,
        "slot": "0",
        "type": "t_address"
      },
      {
        "astId": 43325,
        "contract": "contracts/messaging/connectors/wormhole/WormholeHubConnector.sol:WormholeHubConnector",
        "label": "_proposed",
        "offset": 0,
        "slot": "1",
        "type": "t_address"
      },
      {
        "astId": 43327,
        "contract": "contracts/messaging/connectors/wormhole/WormholeHubConnector.sol:WormholeHubConnector",
        "label": "_proposedOwnershipTimestamp",
        "offset": 0,
        "slot": "2",
        "type": "t_uint256"
      },
      {
        "astId": 32363,
        "contract": "contracts/messaging/connectors/wormhole/WormholeHubConnector.sol:WormholeHubConnector",
        "label": "mirrorConnector",
        "offset": 0,
        "slot": "3",
        "type": "t_address"
      },
      {
        "astId": 32613,
        "contract": "contracts/messaging/connectors/wormhole/WormholeHubConnector.sol:WormholeHubConnector",
        "label": "gasCap",
        "offset": 0,
        "slot": "4",
        "type": "t_uint256"
      },
      {
        "astId": 39468,
        "contract": "contracts/messaging/connectors/wormhole/WormholeHubConnector.sol:WormholeHubConnector",
        "label": "refundAddress",
        "offset": 0,
        "slot": "5",
        "type": "t_address"
      },
      {
        "astId": 39473,
        "contract": "contracts/messaging/connectors/wormhole/WormholeHubConnector.sol:WormholeHubConnector",
        "label": "processedWhMessages",
        "offset": 0,
        "slot": "6",
        "type": "t_mapping(t_bytes32,t_bool)"
      }
    ],
    "types": {
      "t_address": {
        "encoding": "inplace",
        "label": "address",
        "numberOfBytes": "20"
      },
      "t_bool": {
        "encoding": "inplace",
        "label": "bool",
        "numberOfBytes": "1"
      },
      "t_bytes32": {
        "encoding": "inplace",
        "label": "bytes32",
        "numberOfBytes": "32"
      },
      "t_mapping(t_bytes32,t_bool)": {
        "encoding": "mapping",
        "key": "t_bytes32",
        "label": "mapping(bytes32 => bool)",
        "numberOfBytes": "32",
        "value": "t_bool"
      },
      "t_uint256": {
        "encoding": "inplace",
        "label": "uint256",
        "numberOfBytes": "32"
      }
    }
  }
}