{
  "address": "0xa98f36ca759271928d18AE9b8BC6e214C279fDeD",
  "abi": [
    {
      "inputs": [
        {
          "internalType": "uint32",
          "name": "_domain",
          "type": "uint32"
        },
        {
          "internalType": "uint32",
          "name": "_mirrorDomain",
          "type": "uint32"
        },
        {
          "internalType": "address",
          "name": "_amb",
          "type": "address"
        },
        {
          "internalType": "address",
          "name": "_rootManager",
          "type": "address"
        },
        {
          "internalType": "address",
          "name": "_mirrorConnector",
          "type": "address"
        },
        {
          "internalType": "uint256",
          "name": "_gasCap",
          "type": "uint256"
        },
        {
          "internalType": "uint256",
          "name": "_mirrorChainId",
          "type": "uint256"
        }
      ],
      "stateMutability": "nonpayable",
      "type": "constructor"
    },
    {
      "inputs": [],
      "name": "Connector__processMessage_notUsed",
      "type": "error"
    },
    {
      "inputs": [],
      "name": "ProposedOwnable__onlyOwner_notOwner",
      "type": "error"
    },
    {
      "inputs": [],
      "name": "ProposedOwnable__onlyProposed_notProposedOwner",
      "type": "error"
    },
    {
      "inputs": [],
      "name": "ProposedOwnable__ownershipDelayElapsed_delayNotElapsed",
      "type": "error"
    },
    {
      "inputs": [],
      "name": "ProposedOwnable__proposeNewOwner_invalidProposal",
      "type": "error"
    },
    {
      "inputs": [],
      "name": "ProposedOwnable__proposeNewOwner_noOwnershipChange",
      "type": "error"
    },
    {
      "inputs": [],
      "name": "ProposedOwnable__renounceOwnership_invalidProposal",
      "type": "error"
    },
    {
      "inputs": [],
      "name": "ProposedOwnable__renounceOwnership_noProposal",
      "type": "error"
    },
    {
      "anonymous": false,
      "inputs": [
        {
          "indexed": true,
          "internalType": "address",
          "name": "to",
          "type": "address"
        },
        {
          "indexed": false,
          "internalType": "uint256",
          "name": "amount",
          "type": "uint256"
        }
      ],
      "name": "FundsWithdrawn",
      "type": "event"
    },
    {
      "anonymous": false,
      "inputs": [
        {
          "indexed": false,
          "internalType": "uint256",
          "name": "_previous",
          "type": "uint256"
        },
        {
          "indexed": false,
          "internalType": "uint256",
          "name": "_updated",
          "type": "uint256"
        }
      ],
      "name": "GasCapUpdated",
      "type": "event"
    },
    {
      "anonymous": false,
      "inputs": [
        {
          "indexed": false,
          "internalType": "uint256",
          "name": "previous",
          "type": "uint256"
        },
        {
          "indexed": false,
          "internalType": "uint256",
          "name": "updated",
          "type": "uint256"
        }
      ],
      "name": "GasFloorUpdated",
      "type": "event"
    },
    {
      "anonymous": false,
      "inputs": [
        {
          "indexed": false,
          "internalType": "bytes",
          "name": "data",
          "type": "bytes"
        },
        {
          "indexed": false,
          "internalType": "address",
          "name": "caller",
          "type": "address"
        }
      ],
      "name": "MessageProcessed",
      "type": "event"
    },
    {
      "anonymous": false,
      "inputs": [
        {
          "indexed": false,
          "internalType": "bytes",
          "name": "data",
          "type": "bytes"
        },
        {
          "indexed": false,
          "internalType": "bytes",
          "name": "encodedData",
          "type": "bytes"
        },
        {
          "indexed": false,
          "internalType": "address",
          "name": "caller",
          "type": "address"
        }
      ],
      "name": "MessageSent",
      "type": "event"
    },
    {
      "anonymous": false,
      "inputs": [
        {
          "indexed": false,
          "internalType": "address",
          "name": "previous",
          "type": "address"
        },
        {
          "indexed": false,
          "internalType": "address",
          "name": "current",
          "type": "address"
        }
      ],
      "name": "MirrorConnectorUpdated",
      "type": "event"
    },
    {
      "anonymous": false,
      "inputs": [
        {
          "indexed": true,
          "internalType": "uint32",
          "name": "domain",
          "type": "uint32"
        },
        {
          "indexed": true,
          "internalType": "uint32",
          "name": "mirrorDomain",
          "type": "uint32"
        },
        {
          "indexed": false,
          "internalType": "address",
          "name": "amb",
          "type": "address"
        },
        {
          "indexed": false,
          "internalType": "address",
          "name": "rootManager",
          "type": "address"
        },
        {
          "indexed": false,
          "internalType": "address",
          "name": "mirrorConnector",
          "type": "address"
        }
      ],
      "name": "NewConnector",
      "type": "event"
    },
    {
      "anonymous": false,
      "inputs": [
        {
          "indexed": true,
          "internalType": "address",
          "name": "proposedOwner",
          "type": "address"
        }
      ],
      "name": "OwnershipProposed",
      "type": "event"
    },
    {
      "anonymous": false,
      "inputs": [
        {
          "indexed": true,
          "internalType": "address",
          "name": "previousOwner",
          "type": "address"
        },
        {
          "indexed": true,
          "internalType": "address",
          "name": "newOwner",
          "type": "address"
        }
      ],
      "name": "OwnershipTransferred",
      "type": "event"
    },
    {
      "inputs": [],
      "name": "AMB",
      "outputs": [
        {
          "internalType": "address",
          "name": "",
          "type": "address"
        }
      ],
      "stateMutability": "view",
      "type": "function"
    },
    {
      "inputs": [],
      "name": "DOMAIN",
      "outputs": [
        {
          "internalType": "uint32",
          "name": "",
          "type": "uint32"
        }
      ],
      "stateMutability": "view",
      "type": "function"
    },
    {
      "inputs": [],
      "name": "MIRROR_CHAIN_ID",
      "outputs": [
        {
          "internalType": "uint256",
          "name": "",
          "type": "uint256"
        }
      ],
      "stateMutability": "view",
      "type": "function"
    },
    {
      "inputs": [],
      "name": "MIRROR_DOMAIN",
      "outputs": [
        {
          "internalType": "uint32",
          "name": "",
          "type": "uint32"
        }
      ],
      "stateMutability": "view",
      "type": "function"
    },
    {
      "inputs": [],
      "name": "ROOT_MANAGER",
      "outputs": [
        {
          "internalType": "address",
          "name": "",
          "type": "address"
        }
      ],
      "stateMutability": "view",
      "type": "function"
    },
    {
      "inputs": [],
      "name": "acceptProposedOwner",
      "outputs": [],
      "stateMutability": "nonpayable",
      "type": "function"
    },
    {
      "inputs": [],
      "name": "delay",
      "outputs": [
        {
          "internalType": "uint256",
          "name": "",
          "type": "uint256"
        }
      ],
      "stateMutability": "view",
      "type": "function"
    },
    {
      "inputs": [
        {
          "internalType": "bytes",
          "name": "_data",
          "type": "bytes"
        },
        {
          "internalType": "bytes",
          "name": "_signatures",
          "type": "bytes"
        }
      ],
      "name": "executeSignatures",
      "outputs": [],
      "stateMutability": "nonpayable",
      "type": "function"
    },
    {
      "inputs": [],
      "name": "floor",
      "outputs": [
        {
          "internalType": "uint256",
          "name": "",
          "type": "uint256"
        }
      ],
      "stateMutability": "view",
      "type": "function"
    },
    {
      "inputs": [],
      "name": "gasCap",
      "outputs": [
        {
          "internalType": "uint256",
          "name": "",
          "type": "uint256"
        }
      ],
      "stateMutability": "view",
      "type": "function"
    },
    {
      "inputs": [],
      "name": "mirrorConnector",
      "outputs": [
        {
          "internalType": "address",
          "name": "",
          "type": "address"
        }
      ],
      "stateMutability": "view",
      "type": "function"
    },
    {
      "inputs": [],
      "name": "owner",
      "outputs": [
        {
          "internalType": "address",
          "name": "",
          "type": "address"
        }
      ],
      "stateMutability": "view",
      "type": "function"
    },
    {
      "inputs": [
        {
          "internalType": "bytes",
          "name": "_data",
          "type": "bytes"
        }
      ],
      "name": "processMessage",
      "outputs": [],
      "stateMutability": "nonpayable",
      "type": "function"
    },
    {
      "inputs": [
        {
          "internalType": "address",
          "name": "newlyProposed",
          "type": "address"
        }
      ],
      "name": "proposeNewOwner",
      "outputs": [],
      "stateMutability": "nonpayable",
      "type": "function"
    },
    {
      "inputs": [],
      "name": "proposed",
      "outputs": [
        {
          "internalType": "address",
          "name": "",
          "type": "address"
        }
      ],
      "stateMutability": "view",
      "type": "function"
    },
    {
      "inputs": [],
      "name": "proposedTimestamp",
      "outputs": [
        {
          "internalType": "uint256",
          "name": "",
          "type": "uint256"
        }
      ],
      "stateMutability": "view",
      "type": "function"
    },
    {
      "inputs": [],
      "name": "renounceOwnership",
      "outputs": [],
      "stateMutability": "nonpayable",
      "type": "function"
    },
    {
      "inputs": [],
      "name": "renounced",
      "outputs": [
        {
          "internalType": "bool",
          "name": "",
          "type": "bool"
        }
      ],
      "stateMutability": "view",
      "type": "function"
    },
    {
      "inputs": [
        {
          "internalType": "bytes",
          "name": "_data",
          "type": "bytes"
        },
        {
          "internalType": "bytes",
          "name": "_encodedData",
          "type": "bytes"
        }
      ],
      "name": "sendMessage",
      "outputs": [],
      "stateMutability": "payable",
      "type": "function"
    },
    {
      "inputs": [
        {
          "internalType": "uint256",
          "name": "_gasCap",
          "type": "uint256"
        }
      ],
      "name": "setGasCap",
      "outputs": [],
      "stateMutability": "nonpayable",
      "type": "function"
    },
    {
      "inputs": [
        {
          "internalType": "uint256",
          "name": "_floor",
          "type": "uint256"
        }
      ],
      "name": "setGasFloor",
      "outputs": [],
      "stateMutability": "nonpayable",
      "type": "function"
    },
    {
      "inputs": [
        {
          "internalType": "address",
          "name": "_mirrorConnector",
          "type": "address"
        }
      ],
      "name": "setMirrorConnector",
      "outputs": [],
      "stateMutability": "nonpayable",
      "type": "function"
    },
    {
      "inputs": [
        {
          "internalType": "address",
          "name": "_expected",
          "type": "address"
        }
      ],
      "name": "verifySender",
      "outputs": [
        {
          "internalType": "bool",
          "name": "",
          "type": "bool"
        }
      ],
      "stateMutability": "nonpayable",
      "type": "function"
    },
    {
      "inputs": [
        {
          "internalType": "address",
          "name": "_to",
          "type": "address"
        }
      ],
      "name": "withdrawFunds",
      "outputs": [],
      "stateMutability": "nonpayable",
      "type": "function"
    },
    {
      "stateMutability": "payable",
      "type": "receive"
    }
  ],
  "transactionHash": "0x2eb541ea1fd72de694ddebe0302b325ee10922bdbc7d83198278a6d98f82814c",
  "args": [
    "6648936",
    "6778479",
    "0x4C36d2919e407f0Cc2Ee3c993ccF8ac26d9CE64e",
    "0x0031d290B8526e2Eb6ac22111E5fF96EcA760258",
    "0x0000000000000000000000000000000000000000",
    "4000000",
    "100"
  ],
  "numDeployments": 1,
  "solcInputHash": "9bce7dbe1d7f33982ad13000cbb5faea",
  "bytecode": "0x6101206040523480156200001257600080fd5b50604051620019bd380380620019bd8339810160408190526200003591620002e9565b818181898989898984848484846200004d33620001a8565b8463ffffffff16600003620000985760405162461bcd60e51b815260206004820152600c60248201526b32b6b83a3c903237b6b0b4b760a11b60448201526064015b60405180910390fd5b6001600160a01b038216620000e45760405162461bcd60e51b815260206004820152601160248201527032b6b83a3c903937b7ba26b0b730b3b2b960791b60448201526064016200008f565b63ffffffff8086166080526001600160a01b0380851660a05283811660c05290851660e0528116156200011c576200011c816200020d565b604080516001600160a01b0385811682528481166020830152831681830152905163ffffffff86811692908816917f4f9c27c2fe3f84576ea469d367d044da53c45e951617e8389f2b5ed8db9d25f09181900360600190a3505050505050505050506200018f816200027660201b60201c565b506101005250506064600555506200036c945050505050565b600080546040516001600160a01b03808516939216917f8be0079c531659141344cd1fd0a4f28419497f9722a3daafe3b4186f6b6457e091a3600080546001600160a01b039092166001600160a01b0319928316178155600255600180549091169055565b600354604080516001600160a01b03928316815291831660208301527fc77bec288fc88f168427f2f7da682eadb26cac89d8d591af6e443da98dff2bbc910160405180910390a1600380546001600160a01b0319166001600160a01b0392909216919091179055565b60045460408051918252602082018390527f877a02cb809da0364d23adca3cd50c451b53f279d3df632e1fc11eb66335bce5910160405180910390a1600455565b805163ffffffff81168114620002cc57600080fd5b919050565b80516001600160a01b0381168114620002cc57600080fd5b600080600080600080600060e0888a0312156200030557600080fd5b6200031088620002b7565b96506200032060208901620002b7565b95506200033060408901620002d1565b94506200034060608901620002d1565b93506200035060808901620002d1565b925060a0880151915060c0880151905092959891949750929550565b60805160a05160c05160e051610100516115c6620003f7600039600081816103bd015261116e0152600081816101960152610cde0152600081816102b30152818161054b0152610cb701526000818161045a015281816104d30152818161060001528181610a8001528181610bb601528181610fe201526110040152600061025f01526115c66000f3fe60806040526004361061014f5760003560e01c8063715018a6116100b6578063cc3942831161006f578063cc394283146103df578063d1851c92146103ff578063d232c2201461041d578063d69f9d6114610448578063db1b76591461047c578063efc5ea7e1461049c57600080fd5b8063715018a6146103235780637850b020146103385780638da5cb5b14610358578063b1f8100d14610376578063c5b350df14610396578063c8a4d690146103ab57600080fd5b80634ff746f6116101085780634ff746f61461022d57806352a9674b1461024d5780635bd11efc146102815780635f61e3ec146102a157806368742da6146102ed5780636a42b8f81461030d57600080fd5b8063047dbeb81461015b57806314168416146101845780633cf52ffb146101cd5780633f7658fd146101e2578063406953631461020457806348e6fa231461021a57600080fd5b3661015657005b600080fd5b34801561016757600080fd5b5061017160045481565b6040519081526020015b60405180910390f35b34801561019057600080fd5b506101b87f000000000000000000000000000000000000000000000000000000000000000081565b60405163ffffffff909116815260200161017b565b3480156101d957600080fd5b50600254610171565b3480156101ee57600080fd5b506102026101fd3660046112fc565b6104bc565b005b34801561021057600080fd5b5061017160055481565b6102026102283660046112fc565b610540565b34801561023957600080fd5b50610202610248366004611360565b6105f5565b34801561025957600080fd5b506101b87f000000000000000000000000000000000000000000000000000000000000000081565b34801561028d57600080fd5b5061020261029c3660046113b2565b61069b565b3480156102ad57600080fd5b506102d57f000000000000000000000000000000000000000000000000000000000000000081565b6040516001600160a01b03909116815260200161017b565b3480156102f957600080fd5b506102026103083660046113b2565b6106d2565b34801561031957600080fd5b5062093a80610171565b34801561032f57600080fd5b5061020261074f565b34801561034457600080fd5b506102026103533660046113d6565b610803565b34801561036457600080fd5b506000546001600160a01b03166102d5565b34801561038257600080fd5b506102026103913660046113b2565b610837565b3480156103a257600080fd5b506102026108d5565b3480156103b757600080fd5b506101717f000000000000000000000000000000000000000000000000000000000000000081565b3480156103eb57600080fd5b506003546102d5906001600160a01b031681565b34801561040b57600080fd5b506001546001600160a01b03166102d5565b34801561042957600080fd5b506000546001600160a01b0316155b604051901515815260200161017b565b34801561045457600080fd5b506102d57f000000000000000000000000000000000000000000000000000000000000000081565b34801561048857600080fd5b506104386104973660046113b2565b610945565b3480156104a857600080fd5b506102026104b73660046113d6565b610956565b604051633f7658fd60e01b81526001600160a01b037f00000000000000000000000000000000000000000000000000000000000000001690633f7658fd9061050a9085908590600401611435565b600060405180830381600087803b15801561052457600080fd5b505af1158015610538573d6000803e3d6000fd5b505050505050565b336001600160a01b037f000000000000000000000000000000000000000000000000000000000000000016146105ac5760405162461bcd60e51b815260206004820152600c60248201526b10b937b7ba26b0b730b3b2b960a11b60448201526064015b60405180910390fd5b6105b68282610a35565b7fdcaa37a042a0087de79018c629bbd29cee82ca80bd9be394e1696bf9e93550778282336040516105e993929190611463565b60405180910390a15050565b336001600160a01b037f000000000000000000000000000000000000000000000000000000000000000016146106565760405162461bcd60e51b81526004016105a39060208082526004908201526310a0a6a160e11b604082015260600190565b61065f81610b63565b7fb3abc57bfeebd2cac918901db582f71972a8e628bccf19f5ae3e3482b98a5ced81336040516106909291906114a1565b60405180910390a150565b6000546001600160a01b031633146106c6576040516311a8a1bb60e31b815260040160405180910390fd5b6106cf81610d65565b50565b6000546001600160a01b031633146106fd576040516311a8a1bb60e31b815260040160405180910390fd5b476107088282610dce565b816001600160a01b03167feaff4b37086828766ad3268786972c0cd24259d4c87a80f9d3963a3c3d999b0d8260405161074391815260200190565b60405180910390a25050565b6000546001600160a01b0316331461077a576040516311a8a1bb60e31b815260040160405180910390fd5b62093a806002544261078c91906114cb565b116107aa576040516324e0285f60e21b815260040160405180910390fd5b6002546000036107cd57604051630e4b303f60e21b815260040160405180910390fd5b6001546001600160a01b0316156107f7576040516323295ef960e01b815260040160405180910390fd5b6108016000610ee7565b565b6000546001600160a01b0316331461082e576040516311a8a1bb60e31b815260040160405180910390fd5b6106cf81610f4c565b6000546001600160a01b03163314610862576040516311a8a1bb60e31b815260040160405180910390fd5b6001546001600160a01b038281169116148015610880575060025415155b1561089e576040516311bc066560e11b815260040160405180910390fd5b6000546001600160a01b038083169116036108cc57604051634a2fb73f60e11b815260040160405180910390fd5b6106cf81610f8d565b6001546001600160a01b03163314610900576040516311a7f27160e11b815260040160405180910390fd5b62093a806002544261091291906114cb565b11610930576040516324e0285f60e21b815260040160405180910390fd5b600154610801906001600160a01b0316610ee7565b600061095082610fdb565b92915050565b6000546001600160a01b03163314610981576040516311a8a1bb60e31b815260040160405180910390fd5b606481116109ba5760405162461bcd60e51b81526004016105a39060208082526004908201526303c3130360e41b604082015260600190565b6005548181036109f65760405162461bcd60e51b8152602060048201526007602482015266216368616e676560c81b60448201526064016105a3565b60408051828152602081018490527f0108906765999c42c54ca1438863c94a730ae4123af260237d200f1b065aa494910160405180910390a150600555565b8151602014610a705760405162461bcd60e51b8152602060048201526007602482015266042d8cadccee8d60cb1b60448201526064016105a3565b6003546040516001600160a01b037f000000000000000000000000000000000000000000000000000000000000000081169263dc8601b3929116906327fba37b60e11b90610ac29087906024016114ec565b60408051601f198184030181529190526020810180516001600160e01b03166001600160e01b031990931692909217909152610afd85611089565b6040518463ffffffff1660e01b8152600401610b1b939291906114ff565b6020604051808303816000875af1158015610b3a573d6000803e3d6000fd5b505050506040513d601f19601f82011682018060405250810190610b5e9190611533565b505050565b600354610b78906001600160a01b0316610fdb565b610bb35760405162461bcd60e51b815260206004820152600c60248201526b10b61921b7b73732b1ba37b960a11b60448201526064016105a3565b467f00000000000000000000000000000000000000000000000000000000000000006001600160a01b0316631544298e6040518163ffffffff1660e01b8152600401602060405180830381865afa158015610c12573d6000803e3d6000fd5b505050506040513d601f19601f82011682018060405250810190610c369190611533565b14610c725760405162461bcd60e51b815260206004820152600c60248201526b10b9b7bab931b2a1b430b4b760a11b60448201526064016105a3565b8051602014610cad5760405162461bcd60e51b8152602060048201526007602482015266042d8cadccee8d60cb1b60448201526064016105a3565b6001600160a01b037f000000000000000000000000000000000000000000000000000000000000000016638e7d93fa7f0000000000000000000000000000000000000000000000000000000000000000610d068461154c565b6040516001600160e01b031960e085901b16815263ffffffff9290921660048301526024820152604401600060405180830381600087803b158015610d4a57600080fd5b505af1158015610d5e573d6000803e3d6000fd5b5050505050565b600354604080516001600160a01b03928316815291831660208301527fc77bec288fc88f168427f2f7da682eadb26cac89d8d591af6e443da98dff2bbc910160405180910390a1600380546001600160a01b0319166001600160a01b0392909216919091179055565b80471015610e1e5760405162461bcd60e51b815260206004820152601d60248201527f416464726573733a20696e73756666696369656e742062616c616e636500000060448201526064016105a3565b6000826001600160a01b03168260405160006040518083038185875af1925050503d8060008114610e6b576040519150601f19603f3d011682016040523d82523d6000602084013e610e70565b606091505b5050905080610b5e5760405162461bcd60e51b815260206004820152603a60248201527f416464726573733a20756e61626c6520746f2073656e642076616c75652c207260448201527f6563697069656e74206d6179206861766520726576657274656400000000000060648201526084016105a3565b600080546040516001600160a01b03808516939216917f8be0079c531659141344cd1fd0a4f28419497f9722a3daafe3b4186f6b6457e091a3600080546001600160a01b039092166001600160a01b0319928316178155600255600180549091169055565b60045460408051918252602082018390527f877a02cb809da0364d23adca3cd50c451b53f279d3df632e1fc11eb66335bce5910160405180910390a1600455565b42600255600180546001600160a01b0319166001600160a01b0383169081179091556040517f6ab4d119f23076e8ad491bc65ce85f017fb0591dce08755ba8591059cc51737a90600090a250565b60006109507f0000000000000000000000000000000000000000000000000000000000000000837f00000000000000000000000000000000000000000000000000000000000000006001600160a01b031663b07506116040518163ffffffff1660e01b8152600401602060405180830381865afa158015611060573d6000803e3d6000fd5b505050506040513d601f19601f820116820180604052508101906110849190611533565b611128565b600081516020146110cb5760405162461bcd60e51b815260206004820152600c60248201526b042c8c2e8c240d8cadccee8d60a31b60448201526064016105a3565b6110e7828060200190518101906110e29190611533565b611243565b905060055481116111235760405162461bcd60e51b81526020600482015260066024820152651e333637b7b960d11b60448201526064016105a3565b919050565b6000336001600160a01b0385161461116c5760405162461bcd60e51b81526020600482015260076024820152662162726964676560c81b60448201526064016105a3565b7f000000000000000000000000000000000000000000000000000000000000000082146111c55760405162461bcd60e51b815260206004820152600760248201526621736f7572636560c81b60448201526064016105a3565b826001600160a01b0316846001600160a01b031663d67bdd256040518163ffffffff1660e01b8152600401602060405180830381865afa15801561120d573d6000803e3d6000fd5b505050506040513d601f19601f820116820180604052508101906112319190611573565b6001600160a01b031614949350505050565b60006004548211156112555760045491505b5090565b634e487b7160e01b600052604160045260246000fd5b600082601f83011261128057600080fd5b813567ffffffffffffffff8082111561129b5761129b611259565b604051601f8301601f19908116603f011681019082821181831017156112c3576112c3611259565b816040528381528660208588010111156112dc57600080fd5b836020870160208301376000602085830101528094505050505092915050565b6000806040838503121561130f57600080fd5b823567ffffffffffffffff8082111561132757600080fd5b6113338683870161126f565b9350602085013591508082111561134957600080fd5b506113568582860161126f565b9150509250929050565b60006020828403121561137257600080fd5b813567ffffffffffffffff81111561138957600080fd5b6113958482850161126f565b949350505050565b6001600160a01b03811681146106cf57600080fd5b6000602082840312156113c457600080fd5b81356113cf8161139d565b9392505050565b6000602082840312156113e857600080fd5b5035919050565b6000815180845260005b81811015611415576020818501810151868301820152016113f9565b506000602082860101526020601f19601f83011685010191505092915050565b60408152600061144860408301856113ef565b828103602084015261145a81856113ef565b95945050505050565b60608152600061147660608301866113ef565b828103602084015261148881866113ef565b91505060018060a01b0383166040830152949350505050565b6040815260006114b460408301856113ef565b905060018060a01b03831660208301529392505050565b8181038181111561095057634e487b7160e01b600052601160045260246000fd5b6020815260006113cf60208301846113ef565b6001600160a01b0384168152606060208201819052600090611523908301856113ef565b9050826040830152949350505050565b60006020828403121561154557600080fd5b5051919050565b8051602080830151919081101561156d576000198160200360031b1b821691505b50919050565b60006020828403121561158557600080fd5b81516113cf8161139d56fea264697066735822122028603112c314d09f4a0a9d0da90279378e65c07917b65921f89dc3a2aed162de64736f6c63430008110033",
  "devdoc": {
    "kind": "dev",
    "methods": {
      "processMessage(bytes)": {
        "details": "This is called by AMBs to process messages originating from mirror connector"
      },
      "sendMessage(bytes,bytes)": {
        "details": "This is called by the root manager *only* on mainnet to propagate the aggregate root"
      },
      "setGasFloor(uint256)": {
        "params": {
          "_floor": "The updated gas floor"
        }
      },
      "withdrawFunds(address)": {
        "details": "Withdraws the entire balance of the contract.",
        "params": {
          "_to": "The recipient of the funds withdrawn"
        }
      }
    },
    "version": 1
  },
  "userdoc": {
    "events": {
      "FundsWithdrawn(address,uint256)": {
        "notice": "Emitted when funds are withdrawn by the admin"
      },
      "GasCapUpdated(uint256,uint256)": {
        "notice": "Emitted when admin updates the gas cap"
      },
      "MessageProcessed(bytes,address)": {
        "notice": "Emitted whenever a message is successfully received over an AMB"
      },
      "MessageSent(bytes,bytes,address)": {
        "notice": "Emitted whenever a message is successfully sent over an AMB"
      }
    },
    "kind": "user",
    "methods": {
      "AMB()": {
        "notice": "Address of the AMB on this domain."
      },
      "DOMAIN()": {
        "notice": "The domain of this Messaging (i.e. Connector) contract."
      },
      "MIRROR_DOMAIN()": {
        "notice": "The domain of the corresponding messaging (i.e. Connector) contract."
      },
      "ROOT_MANAGER()": {
        "notice": "RootManager contract address."
      },
      "acceptProposedOwner()": {
        "notice": "Transfers ownership of the contract to a new account (`newOwner`). Can only be called by the current owner."
      },
      "delay()": {
        "notice": "Returns the delay period before a new owner can be accepted."
      },
      "floor()": {
        "notice": "The minimum amount of gas required to send along with a message"
      },
      "gasCap()": {
        "notice": "The gnosis amb requires destination gas to be specified on the origin. The gas used will be passed in by the relayer to allow for real-time estimates, but will be capped at the admin-set cap."
      },
      "mirrorConnector()": {
        "notice": "Connector on L2 for L1 connectors, and vice versa."
      },
      "owner()": {
        "notice": "Returns the address of the current owner."
      },
      "processMessage(bytes)": {
        "notice": "Processes a message received by an AMB"
      },
      "proposeNewOwner(address)": {
        "notice": "Sets the timestamp for an owner to be proposed, and sets the newly proposed owner as step 1 in a 2-step process"
      },
      "proposed()": {
        "notice": "Returns the address of the proposed owner."
      },
      "proposedTimestamp()": {
        "notice": "Returns the address of the proposed owner."
      },
      "renounceOwnership()": {
        "notice": "Renounces ownership of the contract after a delay"
      },
      "renounced()": {
        "notice": "Indicates if the ownership has been renounced() by checking if current owner is address(0)"
      },
      "sendMessage(bytes,bytes)": {
        "notice": "Sends a message over the amb"
      },
      "setGasFloor(uint256)": {
        "notice": "Allows admin to update the minimum gas to be sent along with an AMB call"
      },
      "setMirrorConnector(address)": {
        "notice": "Sets the address of the l2Connector for this domain"
      },
      "verifySender(address)": {
        "notice": "Checks the cross domain sender for a given address"
      },
      "withdrawFunds(address)": {
        "notice": "This function should be callable by owner, and send funds trapped on a connector to the provided recipient."
      }
    },
    "version": 1
  },
  "storageLayout": {
    "storage": [
      {
        "astId": 28996,
        "contract": "contracts/messaging/connectors/gnosis/GnosisHubConnector.sol:GnosisHubConnector",
        "label": "_owner",
        "offset": 0,
        "slot": "0",
        "type": "t_address"
      },
      {
        "astId": 28998,
        "contract": "contracts/messaging/connectors/gnosis/GnosisHubConnector.sol:GnosisHubConnector",
        "label": "_proposed",
        "offset": 0,
        "slot": "1",
        "type": "t_address"
      },
      {
        "astId": 29000,
        "contract": "contracts/messaging/connectors/gnosis/GnosisHubConnector.sol:GnosisHubConnector",
        "label": "_proposedOwnershipTimestamp",
        "offset": 0,
        "slot": "2",
        "type": "t_uint256"
      },
      {
        "astId": 17245,
        "contract": "contracts/messaging/connectors/gnosis/GnosisHubConnector.sol:GnosisHubConnector",
        "label": "mirrorConnector",
        "offset": 0,
        "slot": "3",
        "type": "t_address"
      },
      {
        "astId": 17530,
        "contract": "contracts/messaging/connectors/gnosis/GnosisHubConnector.sol:GnosisHubConnector",
        "label": "gasCap",
        "offset": 0,
        "slot": "4",
        "type": "t_uint256"
      },
      {
        "astId": 20240,
        "contract": "contracts/messaging/connectors/gnosis/GnosisHubConnector.sol:GnosisHubConnector",
        "label": "floor",
        "offset": 0,
        "slot": "5",
        "type": "t_uint256"
      }
    ],
    "types": {
      "t_address": {
        "encoding": "inplace",
        "label": "address",
        "numberOfBytes": "20"
      },
      "t_uint256": {
        "encoding": "inplace",
        "label": "uint256",
        "numberOfBytes": "32"
      }
    }
  }
}