{
  "address": "0x89285703326a9b3192841f67121DD714E4968689",
  "abi": [
    {
      "inputs": [
        {
          "internalType": "uint32",
          "name": "_domain",
          "type": "uint32"
        },
        {
          "internalType": "uint32",
          "name": "_mirrorDomain",
          "type": "uint32"
        },
        {
          "internalType": "address",
          "name": "_amb",
          "type": "address"
        },
        {
          "internalType": "address",
          "name": "_rootManager",
          "type": "address"
        },
        {
          "internalType": "address",
          "name": "_mirrorConnector",
          "type": "address"
        }
      ],
      "stateMutability": "nonpayable",
      "type": "constructor"
    },
    {
      "inputs": [],
      "name": "Connector__processMessage_notUsed",
      "type": "error"
    },
    {
      "inputs": [],
      "name": "ProposedOwnable__onlyOwner_notOwner",
      "type": "error"
    },
    {
      "inputs": [],
      "name": "ProposedOwnable__onlyProposed_notProposedOwner",
      "type": "error"
    },
    {
      "inputs": [],
      "name": "ProposedOwnable__ownershipDelayElapsed_delayNotElapsed",
      "type": "error"
    },
    {
      "inputs": [],
      "name": "ProposedOwnable__proposeNewOwner_invalidProposal",
      "type": "error"
    },
    {
      "inputs": [],
      "name": "ProposedOwnable__proposeNewOwner_noOwnershipChange",
      "type": "error"
    },
    {
      "inputs": [],
      "name": "ProposedOwnable__renounceOwnership_invalidProposal",
      "type": "error"
    },
    {
      "inputs": [],
      "name": "ProposedOwnable__renounceOwnership_noProposal",
      "type": "error"
    },
    {
      "anonymous": false,
      "inputs": [
        {
          "indexed": true,
          "internalType": "address",
          "name": "to",
          "type": "address"
        },
        {
          "indexed": false,
          "internalType": "uint256",
          "name": "amount",
          "type": "uint256"
        }
      ],
      "name": "FundsWithdrawn",
      "type": "event"
    },
    {
      "anonymous": false,
      "inputs": [
        {
          "indexed": false,
          "internalType": "bytes",
          "name": "data",
          "type": "bytes"
        },
        {
          "indexed": false,
          "internalType": "address",
          "name": "caller",
          "type": "address"
        }
      ],
      "name": "MessageProcessed",
      "type": "event"
    },
    {
      "anonymous": false,
      "inputs": [
        {
          "indexed": false,
          "internalType": "bytes",
          "name": "data",
          "type": "bytes"
        },
        {
          "indexed": false,
          "internalType": "bytes",
          "name": "encodedData",
          "type": "bytes"
        },
        {
          "indexed": false,
          "internalType": "address",
          "name": "caller",
          "type": "address"
        }
      ],
      "name": "MessageSent",
      "type": "event"
    },
    {
      "anonymous": false,
      "inputs": [
        {
          "indexed": false,
          "internalType": "address",
          "name": "previous",
          "type": "address"
        },
        {
          "indexed": false,
          "internalType": "address",
          "name": "current",
          "type": "address"
        }
      ],
      "name": "MirrorConnectorUpdated",
      "type": "event"
    },
    {
      "anonymous": false,
      "inputs": [
        {
          "indexed": true,
          "internalType": "uint32",
          "name": "domain",
          "type": "uint32"
        },
        {
          "indexed": true,
          "internalType": "uint32",
          "name": "mirrorDomain",
          "type": "uint32"
        },
        {
          "indexed": false,
          "internalType": "address",
          "name": "amb",
          "type": "address"
        },
        {
          "indexed": false,
          "internalType": "address",
          "name": "rootManager",
          "type": "address"
        },
        {
          "indexed": false,
          "internalType": "address",
          "name": "mirrorConnector",
          "type": "address"
        }
      ],
      "name": "NewConnector",
      "type": "event"
    },
    {
      "anonymous": false,
      "inputs": [
        {
          "indexed": true,
          "internalType": "address",
          "name": "proposedOwner",
          "type": "address"
        }
      ],
      "name": "OwnershipProposed",
      "type": "event"
    },
    {
      "anonymous": false,
      "inputs": [
        {
          "indexed": true,
          "internalType": "address",
          "name": "previousOwner",
          "type": "address"
        },
        {
          "indexed": true,
          "internalType": "address",
          "name": "newOwner",
          "type": "address"
        }
      ],
      "name": "OwnershipTransferred",
      "type": "event"
    },
    {
      "inputs": [],
      "name": "AMB",
      "outputs": [
        {
          "internalType": "address",
          "name": "",
          "type": "address"
        }
      ],
      "stateMutability": "view",
      "type": "function"
    },
    {
      "inputs": [],
      "name": "DOMAIN",
      "outputs": [
        {
          "internalType": "uint32",
          "name": "",
          "type": "uint32"
        }
      ],
      "stateMutability": "view",
      "type": "function"
    },
    {
      "inputs": [],
      "name": "MIRROR_DOMAIN",
      "outputs": [
        {
          "internalType": "uint32",
          "name": "",
          "type": "uint32"
        }
      ],
      "stateMutability": "view",
      "type": "function"
    },
    {
      "inputs": [],
      "name": "ROOT_MANAGER",
      "outputs": [
        {
          "internalType": "address",
          "name": "",
          "type": "address"
        }
      ],
      "stateMutability": "view",
      "type": "function"
    },
    {
      "inputs": [],
      "name": "acceptProposedOwner",
      "outputs": [],
      "stateMutability": "nonpayable",
      "type": "function"
    },
    {
      "inputs": [
        {
          "internalType": "bytes",
          "name": "_calldata",
          "type": "bytes"
        },
        {
          "internalType": "uint256",
          "name": "_nonce",
          "type": "uint256"
        }
      ],
      "name": "claimMessage",
      "outputs": [],
      "stateMutability": "nonpayable",
      "type": "function"
    },
    {
      "inputs": [],
      "name": "delay",
      "outputs": [
        {
          "internalType": "uint256",
          "name": "",
          "type": "uint256"
        }
      ],
      "stateMutability": "view",
      "type": "function"
    },
    {
      "inputs": [],
      "name": "mirrorConnector",
      "outputs": [
        {
          "internalType": "address",
          "name": "",
          "type": "address"
        }
      ],
      "stateMutability": "view",
      "type": "function"
    },
    {
      "inputs": [],
      "name": "owner",
      "outputs": [
        {
          "internalType": "address",
          "name": "",
          "type": "address"
        }
      ],
      "stateMutability": "view",
      "type": "function"
    },
    {
      "inputs": [
        {
          "internalType": "bytes",
          "name": "_data",
          "type": "bytes"
        }
      ],
      "name": "processMessage",
      "outputs": [],
      "stateMutability": "nonpayable",
      "type": "function"
    },
    {
      "inputs": [
        {
          "internalType": "address",
          "name": "newlyProposed",
          "type": "address"
        }
      ],
      "name": "proposeNewOwner",
      "outputs": [],
      "stateMutability": "nonpayable",
      "type": "function"
    },
    {
      "inputs": [],
      "name": "proposed",
      "outputs": [
        {
          "internalType": "address",
          "name": "",
          "type": "address"
        }
      ],
      "stateMutability": "view",
      "type": "function"
    },
    {
      "inputs": [],
      "name": "proposedTimestamp",
      "outputs": [
        {
          "internalType": "uint256",
          "name": "",
          "type": "uint256"
        }
      ],
      "stateMutability": "view",
      "type": "function"
    },
    {
      "inputs": [],
      "name": "renounceOwnership",
      "outputs": [],
      "stateMutability": "nonpayable",
      "type": "function"
    },
    {
      "inputs": [],
      "name": "renounced",
      "outputs": [
        {
          "internalType": "bool",
          "name": "",
          "type": "bool"
        }
      ],
      "stateMutability": "view",
      "type": "function"
    },
    {
      "inputs": [
        {
          "internalType": "bytes",
          "name": "_data",
          "type": "bytes"
        },
        {
          "internalType": "bytes",
          "name": "_encodedData",
          "type": "bytes"
        }
      ],
      "name": "sendMessage",
      "outputs": [],
      "stateMutability": "payable",
      "type": "function"
    },
    {
      "inputs": [
        {
          "internalType": "address",
          "name": "_mirrorConnector",
          "type": "address"
        }
      ],
      "name": "setMirrorConnector",
      "outputs": [],
      "stateMutability": "nonpayable",
      "type": "function"
    },
    {
      "inputs": [
        {
          "internalType": "address",
          "name": "_expected",
          "type": "address"
        }
      ],
      "name": "verifySender",
      "outputs": [
        {
          "internalType": "bool",
          "name": "",
          "type": "bool"
        }
      ],
      "stateMutability": "nonpayable",
      "type": "function"
    },
    {
      "inputs": [
        {
          "internalType": "address",
          "name": "_to",
          "type": "address"
        }
      ],
      "name": "withdrawFunds",
      "outputs": [],
      "stateMutability": "nonpayable",
      "type": "function"
    },
    {
      "stateMutability": "payable",
      "type": "receive"
    }
  ],
  "transactionHash": "0xaebe664d07dc578c72536966c825b0032d91ac10d25196b9cc0bf75c94704e91",
  "args": [
    "6648936",
    "1818848877",
    "0xd19d4B5d358258f05D7B411E21A1460D11B0876F",
    "0x0031d290B8526e2Eb6ac22111E5fF96EcA760258",
    "0x0000000000000000000000000000000000000000"
  ],
  "numDeployments": 1,
  "solcInputHash": "9bce7dbe1d7f33982ad13000cbb5faea",
  "bytecode": "0x6101006040523480156200001257600080fd5b506040516200154738038062001547833981016040819052620000359162000286565b848484848484848484846200004a3362000186565b8463ffffffff16600003620000955760405162461bcd60e51b815260206004820152600c60248201526b32b6b83a3c903237b6b0b4b760a11b60448201526064015b60405180910390fd5b6001600160a01b038216620000e15760405162461bcd60e51b815260206004820152601160248201527032b6b83a3c903937b7ba26b0b730b3b2b960791b60448201526064016200008c565b63ffffffff8086166080526001600160a01b0380851660a05283811660c05290851660e05281161562000119576200011981620001eb565b604080516001600160a01b0385811682528481166020830152831681830152905163ffffffff86811692908816917f4f9c27c2fe3f84576ea469d367d044da53c45e951617e8389f2b5ed8db9d25f09181900360600190a3505050505050505050505050505050620002f6565b600080546040516001600160a01b03808516939216917f8be0079c531659141344cd1fd0a4f28419497f9722a3daafe3b4186f6b6457e091a3600080546001600160a01b039092166001600160a01b0319928316178155600255600180549091169055565b600354604080516001600160a01b03928316815291831660208301527fc77bec288fc88f168427f2f7da682eadb26cac89d8d591af6e443da98dff2bbc910160405180910390a1600380546001600160a01b0319166001600160a01b0392909216919091179055565b805163ffffffff811681146200026957600080fd5b919050565b80516001600160a01b03811681146200026957600080fd5b600080600080600060a086880312156200029f57600080fd5b620002aa8662000254565b9450620002ba6020870162000254565b9350620002ca604087016200026e565b9250620002da606087016200026e565b9150620002ea608087016200026e565b90509295509295909350565b60805160a05160c05160e0516111e662000361600039600081816101360152610a5101526000818161022c015281816103ec0152610a2a01526000818161039f015281816104a1015281816106be015281816108d70152610d19015260006101d801526111e66000f3fe6080604052600436106101185760003560e01c8063715018a6116100a0578063cc39428311610064578063cc39428314610324578063d1851c9214610344578063d232c22014610362578063d69f9d611461038d578063db1b7659146103c157600080fd5b8063715018a61461029c57806389da8496146102b15780638da5cb5b146102d1578063b1f8100d146102ef578063c5b350df1461030f57600080fd5b806352a9674b116100e757806352a9674b146101c65780635bd11efc146101fa5780635f61e3ec1461021a57806368742da6146102665780636a42b8f81461028657600080fd5b806314168416146101245780633cf52ffb1461017257806348e6fa23146101915780634ff746f6146101a657600080fd5b3661011f57005b600080fd5b34801561013057600080fd5b506101587f000000000000000000000000000000000000000000000000000000000000000081565b60405163ffffffff90911681526020015b60405180910390f35b34801561017e57600080fd5b506002545b604051908152602001610169565b6101a461019f366004610e9d565b6103e1565b005b3480156101b257600080fd5b506101a46101c1366004610f01565b610496565b3480156101d257600080fd5b506101587f000000000000000000000000000000000000000000000000000000000000000081565b34801561020657600080fd5b506101a4610215366004610f53565b61053c565b34801561022657600080fd5b5061024e7f000000000000000000000000000000000000000000000000000000000000000081565b6040516001600160a01b039091168152602001610169565b34801561027257600080fd5b506101a4610281366004610f53565b610573565b34801561029257600080fd5b5062093a80610183565b3480156102a857600080fd5b506101a46105f0565b3480156102bd57600080fd5b506101a46102cc366004610f77565b6106a4565b3480156102dd57600080fd5b506000546001600160a01b031661024e565b3480156102fb57600080fd5b506101a461030a366004610f53565b61073d565b34801561031b57600080fd5b506101a46107db565b34801561033057600080fd5b5060035461024e906001600160a01b031681565b34801561035057600080fd5b506001546001600160a01b031661024e565b34801561036e57600080fd5b506000546001600160a01b0316155b6040519015158152602001610169565b34801561039957600080fd5b5061024e7f000000000000000000000000000000000000000000000000000000000000000081565b3480156103cd57600080fd5b5061037d6103dc366004610f53565b61084b565b336001600160a01b037f0000000000000000000000000000000000000000000000000000000000000000161461044d5760405162461bcd60e51b815260206004820152600c60248201526b10b937b7ba26b0b730b3b2b960a11b60448201526064015b60405180910390fd5b610457828261085c565b7fdcaa37a042a0087de79018c629bbd29cee82ca80bd9be394e1696bf9e935507782823360405161048a93929190611035565b60405180910390a15050565b336001600160a01b037f000000000000000000000000000000000000000000000000000000000000000016146104f75760405162461bcd60e51b81526004016104449060208082526004908201526310a0a6a160e11b604082015260600190565b61050081610995565b7fb3abc57bfeebd2cac918901db582f71972a8e628bccf19f5ae3e3482b98a5ced8133604051610531929190611073565b60405180910390a150565b6000546001600160a01b03163314610567576040516311a8a1bb60e31b815260040160405180910390fd5b61057081610ad8565b50565b6000546001600160a01b0316331461059e576040516311a8a1bb60e31b815260040160405180910390fd5b476105a98282610b41565b816001600160a01b03167feaff4b37086828766ad3268786972c0cd24259d4c87a80f9d3963a3c3d999b0d826040516105e491815260200190565b60405180910390a25050565b6000546001600160a01b0316331461061b576040516311a8a1bb60e31b815260040160405180910390fd5b62093a806002544261062d919061109d565b1161064b576040516324e0285f60e21b815260040160405180910390fd5b60025460000361066e57604051630e4b303f60e21b815260040160405180910390fd5b6001546001600160a01b031615610698576040516323295ef960e01b815260040160405180910390fd5b6106a26000610c5f565b565b60035460405163248f049b60e11b81526001600160a01b037f000000000000000000000000000000000000000000000000000000000000000081169263491e0936926107069291909116903090600090819081908b908b908b906004016110be565b600060405180830381600087803b15801561072057600080fd5b505af1158015610734573d6000803e3d6000fd5b50505050505050565b6000546001600160a01b03163314610768576040516311a8a1bb60e31b815260040160405180910390fd5b6001546001600160a01b038281169116148015610786575060025415155b156107a4576040516311bc066560e11b815260040160405180910390fd5b6000546001600160a01b038083169116036107d257604051634a2fb73f60e11b815260040160405180910390fd5b61057081610cc4565b6001546001600160a01b03163314610806576040516311a7f27160e11b815260040160405180910390fd5b62093a8060025442610818919061109d565b11610836576040516324e0285f60e21b815260040160405180910390fd5b6001546106a2906001600160a01b0316610c5f565b600061085682610d12565b92915050565b81516020146108975760405162461bcd60e51b8152602060048201526007602482015266042d8cadccee8d60cb1b6044820152606401610444565b8051156108d55760405162461bcd60e51b815260206004820152600c60248201526b042c8c2e8c240d8cadccee8d60a31b6044820152606401610444565b7f00000000000000000000000000000000000000000000000000000000000000006001600160a01b0316639f3ce55a34600360009054906101000a90046001600160a01b031634634ff746f660e01b876040516024016109359190611129565b60408051601f198184030181529181526020820180516001600160e01b03166001600160e01b03199485161790525160e087901b909216825261097c93929160040161113c565b6000604051808303818588803b15801561072057600080fd5b6003546109aa906001600160a01b0316610d12565b6109e55760405162461bcd60e51b815260206004820152600c60248201526b10b61921b7b73732b1ba37b960a11b6044820152606401610444565b8051602014610a205760405162461bcd60e51b8152602060048201526007602482015266042d8cadccee8d60cb1b6044820152606401610444565b6001600160a01b037f000000000000000000000000000000000000000000000000000000000000000016638e7d93fa7f0000000000000000000000000000000000000000000000000000000000000000610a798461116c565b6040516001600160e01b031960e085901b16815263ffffffff9290921660048301526024820152604401600060405180830381600087803b158015610abd57600080fd5b505af1158015610ad1573d6000803e3d6000fd5b5050505050565b600354604080516001600160a01b03928316815291831660208301527fc77bec288fc88f168427f2f7da682eadb26cac89d8d591af6e443da98dff2bbc910160405180910390a1600380546001600160a01b0319166001600160a01b0392909216919091179055565b80471015610b915760405162461bcd60e51b815260206004820152601d60248201527f416464726573733a20696e73756666696369656e742062616c616e63650000006044820152606401610444565b6000826001600160a01b03168260405160006040518083038185875af1925050503d8060008114610bde576040519150601f19603f3d011682016040523d82523d6000602084013e610be3565b606091505b5050905080610c5a5760405162461bcd60e51b815260206004820152603a60248201527f416464726573733a20756e61626c6520746f2073656e642076616c75652c207260448201527f6563697069656e74206d617920686176652072657665727465640000000000006064820152608401610444565b505050565b600080546040516001600160a01b03808516939216917f8be0079c531659141344cd1fd0a4f28419497f9722a3daafe3b4186f6b6457e091a3600080546001600160a01b039092166001600160a01b0319928316178155600255600180549091169055565b42600255600180546001600160a01b0319166001600160a01b0383169081179091556040517f6ab4d119f23076e8ad491bc65ce85f017fb0591dce08755ba8591059cc51737a90600090a250565b60006108567f0000000000000000000000000000000000000000000000000000000000000000836000336001600160a01b03841614610d7d5760405162461bcd60e51b81526020600482015260076024820152662162726964676560c81b6044820152606401610444565b816001600160a01b0316836001600160a01b03166367e404ce6040518163ffffffff1660e01b8152600401602060405180830381865afa158015610dc5573d6000803e3d6000fd5b505050506040513d601f19601f82011682018060405250810190610de99190611193565b6001600160a01b0316149392505050565b634e487b7160e01b600052604160045260246000fd5b600082601f830112610e2157600080fd5b813567ffffffffffffffff80821115610e3c57610e3c610dfa565b604051601f8301601f19908116603f01168101908282118183101715610e6457610e64610dfa565b81604052838152866020858801011115610e7d57600080fd5b836020870160208301376000602085830101528094505050505092915050565b60008060408385031215610eb057600080fd5b823567ffffffffffffffff80821115610ec857600080fd5b610ed486838701610e10565b93506020850135915080821115610eea57600080fd5b50610ef785828601610e10565b9150509250929050565b600060208284031215610f1357600080fd5b813567ffffffffffffffff811115610f2a57600080fd5b610f3684828501610e10565b949350505050565b6001600160a01b038116811461057057600080fd5b600060208284031215610f6557600080fd5b8135610f7081610f3e565b9392505050565b600080600060408486031215610f8c57600080fd5b833567ffffffffffffffff80821115610fa457600080fd5b818601915086601f830112610fb857600080fd5b813581811115610fc757600080fd5b876020828501011115610fd957600080fd5b6020928301989097509590910135949350505050565b6000815180845260005b8181101561101557602081850181015186830182015201610ff9565b506000602082860101526020601f19601f83011685010191505092915050565b6060815260006110486060830186610fef565b828103602084015261105a8186610fef565b91505060018060a01b0383166040830152949350505050565b6040815260006110866040830185610fef565b905060018060a01b03831660208301529392505050565b8181038181111561085657634e487b7160e01b600052601160045260246000fd5b6001600160a01b038981168252888116602083015260408201889052606082018790528516608082015260e060a0820181905281018390526000610100848682850137600083860182015260c083019390935250601f909201601f1916909101019695505050505050565b602081526000610f706020830184610fef565b60018060a01b03841681528260208201526060604082015260006111636060830184610fef565b95945050505050565b8051602080830151919081101561118d576000198160200360031b1b821691505b50919050565b6000602082840312156111a557600080fd5b8151610f7081610f3e56fea2646970667358221220f43cd8df8147b17ee4bbced48f2fa314b17d836893b38b69416cd68ee4d51da764736f6c63430008110033",
  "devdoc": {
    "kind": "dev",
    "methods": {
      "claimMessage(bytes,uint256)": {
        "params": {
          "_calldata": "The calldata used by the destination message service to call/forward to the destination contract.",
          "_nonce": "Unique message number."
        }
      },
      "processMessage(bytes)": {
        "details": "This is called by AMBs to process messages originating from mirror connector"
      },
      "sendMessage(bytes,bytes)": {
        "details": "This is called by the root manager *only* on mainnet to propagate the aggregate root"
      },
      "withdrawFunds(address)": {
        "details": "Withdraws the entire balance of the contract.",
        "params": {
          "_to": "The recipient of the funds withdrawn"
        }
      }
    },
    "version": 1
  },
  "userdoc": {
    "events": {
      "FundsWithdrawn(address,uint256)": {
        "notice": "Emitted when funds are withdrawn by the admin"
      },
      "MessageProcessed(bytes,address)": {
        "notice": "Emitted whenever a message is successfully received over an AMB"
      },
      "MessageSent(bytes,bytes,address)": {
        "notice": "Emitted whenever a message is successfully sent over an AMB"
      }
    },
    "kind": "user",
    "methods": {
      "AMB()": {
        "notice": "Address of the AMB on this domain."
      },
      "DOMAIN()": {
        "notice": "The domain of this Messaging (i.e. Connector) contract."
      },
      "MIRROR_DOMAIN()": {
        "notice": "The domain of the corresponding messaging (i.e. Connector) contract."
      },
      "ROOT_MANAGER()": {
        "notice": "RootManager contract address."
      },
      "acceptProposedOwner()": {
        "notice": "Transfers ownership of the contract to a new account (`newOwner`). Can only be called by the current owner."
      },
      "claimMessage(bytes,uint256)": {
        "notice": "Deliver a message to the destination chain."
      },
      "delay()": {
        "notice": "Returns the delay period before a new owner can be accepted."
      },
      "mirrorConnector()": {
        "notice": "Connector on L2 for L1 connectors, and vice versa."
      },
      "owner()": {
        "notice": "Returns the address of the current owner."
      },
      "processMessage(bytes)": {
        "notice": "Processes a message received by an AMB"
      },
      "proposeNewOwner(address)": {
        "notice": "Sets the timestamp for an owner to be proposed, and sets the newly proposed owner as step 1 in a 2-step process"
      },
      "proposed()": {
        "notice": "Returns the address of the proposed owner."
      },
      "proposedTimestamp()": {
        "notice": "Returns the address of the proposed owner."
      },
      "renounceOwnership()": {
        "notice": "Renounces ownership of the contract after a delay"
      },
      "renounced()": {
        "notice": "Indicates if the ownership has been renounced() by checking if current owner is address(0)"
      },
      "sendMessage(bytes,bytes)": {
        "notice": "Sends a message over the amb"
      },
      "setMirrorConnector(address)": {
        "notice": "Sets the address of the l2Connector for this domain"
      },
      "verifySender(address)": {
        "notice": "Checks the cross domain sender for a given address"
      },
      "withdrawFunds(address)": {
        "notice": "This function should be callable by owner, and send funds trapped on a connector to the provided recipient."
      }
    },
    "version": 1
  },
  "storageLayout": {
    "storage": [
      {
        "astId": 28996,
        "contract": "contracts/messaging/connectors/linea/LineaHubConnector.sol:LineaHubConnector",
        "label": "_owner",
        "offset": 0,
        "slot": "0",
        "type": "t_address"
      },
      {
        "astId": 28998,
        "contract": "contracts/messaging/connectors/linea/LineaHubConnector.sol:LineaHubConnector",
        "label": "_proposed",
        "offset": 0,
        "slot": "1",
        "type": "t_address"
      },
      {
        "astId": 29000,
        "contract": "contracts/messaging/connectors/linea/LineaHubConnector.sol:LineaHubConnector",
        "label": "_proposedOwnershipTimestamp",
        "offset": 0,
        "slot": "2",
        "type": "t_uint256"
      },
      {
        "astId": 17245,
        "contract": "contracts/messaging/connectors/linea/LineaHubConnector.sol:LineaHubConnector",
        "label": "mirrorConnector",
        "offset": 0,
        "slot": "3",
        "type": "t_address"
      }
    ],
    "types": {
      "t_address": {
        "encoding": "inplace",
        "label": "address",
        "numberOfBytes": "20"
      },
      "t_uint256": {
        "encoding": "inplace",
        "label": "uint256",
        "numberOfBytes": "32"
      }
    }
  }
}