{
  "address": "0x5B0E1a507E786f0a7c11C972ad5F4dd254661e24",
  "abi": [
    {
      "inputs": [
        {
          "internalType": "uint32",
          "name": "_domain",
          "type": "uint32"
        },
        {
          "internalType": "uint32",
          "name": "_mirrorDomain",
          "type": "uint32"
        },
        {
          "internalType": "address",
          "name": "_amb",
          "type": "address"
        },
        {
          "internalType": "address",
          "name": "_rootManager",
          "type": "address"
        },
        {
          "internalType": "address",
          "name": "_mirrorConnector",
          "type": "address"
        },
        {
          "internalType": "address",
          "name": "_stateCommitmentChain",
          "type": "address"
        },
        {
          "internalType": "uint256",
          "name": "_gasCap",
          "type": "uint256"
        }
      ],
      "stateMutability": "nonpayable",
      "type": "constructor"
    },
    {
      "inputs": [],
      "name": "Connector__processMessage_notUsed",
      "type": "error"
    },
    {
      "inputs": [],
      "name": "ProposedOwnable__onlyOwner_notOwner",
      "type": "error"
    },
    {
      "inputs": [],
      "name": "ProposedOwnable__onlyProposed_notProposedOwner",
      "type": "error"
    },
    {
      "inputs": [],
      "name": "ProposedOwnable__ownershipDelayElapsed_delayNotElapsed",
      "type": "error"
    },
    {
      "inputs": [],
      "name": "ProposedOwnable__proposeNewOwner_invalidProposal",
      "type": "error"
    },
    {
      "inputs": [],
      "name": "ProposedOwnable__proposeNewOwner_noOwnershipChange",
      "type": "error"
    },
    {
      "inputs": [],
      "name": "ProposedOwnable__renounceOwnership_invalidProposal",
      "type": "error"
    },
    {
      "inputs": [],
      "name": "ProposedOwnable__renounceOwnership_noProposal",
      "type": "error"
    },
    {
      "anonymous": false,
      "inputs": [
        {
          "indexed": true,
          "internalType": "address",
          "name": "to",
          "type": "address"
        },
        {
          "indexed": false,
          "internalType": "uint256",
          "name": "amount",
          "type": "uint256"
        }
      ],
      "name": "FundsWithdrawn",
      "type": "event"
    },
    {
      "anonymous": false,
      "inputs": [
        {
          "indexed": false,
          "internalType": "uint256",
          "name": "_previous",
          "type": "uint256"
        },
        {
          "indexed": false,
          "internalType": "uint256",
          "name": "_updated",
          "type": "uint256"
        }
      ],
      "name": "GasCapUpdated",
      "type": "event"
    },
    {
      "anonymous": false,
      "inputs": [
        {
          "indexed": false,
          "internalType": "bytes",
          "name": "data",
          "type": "bytes"
        },
        {
          "indexed": false,
          "internalType": "address",
          "name": "caller",
          "type": "address"
        }
      ],
      "name": "MessageProcessed",
      "type": "event"
    },
    {
      "anonymous": false,
      "inputs": [
        {
          "indexed": false,
          "internalType": "bytes",
          "name": "data",
          "type": "bytes"
        },
        {
          "indexed": false,
          "internalType": "bytes",
          "name": "encodedData",
          "type": "bytes"
        },
        {
          "indexed": false,
          "internalType": "address",
          "name": "caller",
          "type": "address"
        }
      ],
      "name": "MessageSent",
      "type": "event"
    },
    {
      "anonymous": false,
      "inputs": [
        {
          "indexed": false,
          "internalType": "address",
          "name": "previous",
          "type": "address"
        },
        {
          "indexed": false,
          "internalType": "address",
          "name": "current",
          "type": "address"
        }
      ],
      "name": "MirrorConnectorUpdated",
      "type": "event"
    },
    {
      "anonymous": false,
      "inputs": [
        {
          "indexed": true,
          "internalType": "uint32",
          "name": "domain",
          "type": "uint32"
        },
        {
          "indexed": true,
          "internalType": "uint32",
          "name": "mirrorDomain",
          "type": "uint32"
        },
        {
          "indexed": false,
          "internalType": "address",
          "name": "amb",
          "type": "address"
        },
        {
          "indexed": false,
          "internalType": "address",
          "name": "rootManager",
          "type": "address"
        },
        {
          "indexed": false,
          "internalType": "address",
          "name": "mirrorConnector",
          "type": "address"
        }
      ],
      "name": "NewConnector",
      "type": "event"
    },
    {
      "anonymous": false,
      "inputs": [
        {
          "indexed": true,
          "internalType": "address",
          "name": "proposedOwner",
          "type": "address"
        }
      ],
      "name": "OwnershipProposed",
      "type": "event"
    },
    {
      "anonymous": false,
      "inputs": [
        {
          "indexed": true,
          "internalType": "address",
          "name": "previousOwner",
          "type": "address"
        },
        {
          "indexed": true,
          "internalType": "address",
          "name": "newOwner",
          "type": "address"
        }
      ],
      "name": "OwnershipTransferred",
      "type": "event"
    },
    {
      "inputs": [],
      "name": "AMB",
      "outputs": [
        {
          "internalType": "address",
          "name": "",
          "type": "address"
        }
      ],
      "stateMutability": "view",
      "type": "function"
    },
    {
      "inputs": [],
      "name": "DOMAIN",
      "outputs": [
        {
          "internalType": "uint32",
          "name": "",
          "type": "uint32"
        }
      ],
      "stateMutability": "view",
      "type": "function"
    },
    {
      "inputs": [],
      "name": "MIRROR_DOMAIN",
      "outputs": [
        {
          "internalType": "uint32",
          "name": "",
          "type": "uint32"
        }
      ],
      "stateMutability": "view",
      "type": "function"
    },
    {
      "inputs": [],
      "name": "ROOT_MANAGER",
      "outputs": [
        {
          "internalType": "address",
          "name": "",
          "type": "address"
        }
      ],
      "stateMutability": "view",
      "type": "function"
    },
    {
      "inputs": [],
      "name": "acceptProposedOwner",
      "outputs": [],
      "stateMutability": "nonpayable",
      "type": "function"
    },
    {
      "inputs": [],
      "name": "delay",
      "outputs": [
        {
          "internalType": "uint256",
          "name": "",
          "type": "uint256"
        }
      ],
      "stateMutability": "view",
      "type": "function"
    },
    {
      "inputs": [],
      "name": "gasCap",
      "outputs": [
        {
          "internalType": "uint256",
          "name": "",
          "type": "uint256"
        }
      ],
      "stateMutability": "view",
      "type": "function"
    },
    {
      "inputs": [],
      "name": "mirrorConnector",
      "outputs": [
        {
          "internalType": "address",
          "name": "",
          "type": "address"
        }
      ],
      "stateMutability": "view",
      "type": "function"
    },
    {
      "inputs": [],
      "name": "owner",
      "outputs": [
        {
          "internalType": "address",
          "name": "",
          "type": "address"
        }
      ],
      "stateMutability": "view",
      "type": "function"
    },
    {
      "inputs": [
        {
          "internalType": "bytes",
          "name": "_data",
          "type": "bytes"
        }
      ],
      "name": "processMessage",
      "outputs": [],
      "stateMutability": "nonpayable",
      "type": "function"
    },
    {
      "inputs": [
        {
          "internalType": "address",
          "name": "_target",
          "type": "address"
        },
        {
          "internalType": "address",
          "name": "_sender",
          "type": "address"
        },
        {
          "internalType": "bytes",
          "name": "_message",
          "type": "bytes"
        },
        {
          "internalType": "uint256",
          "name": "_messageNonce",
          "type": "uint256"
        },
        {
          "components": [
            {
              "internalType": "bytes32",
              "name": "stateRoot",
              "type": "bytes32"
            },
            {
              "components": [
                {
                  "internalType": "uint256",
                  "name": "batchIndex",
                  "type": "uint256"
                },
                {
                  "internalType": "bytes32",
                  "name": "batchRoot",
                  "type": "bytes32"
                },
                {
                  "internalType": "uint256",
                  "name": "batchSize",
                  "type": "uint256"
                },
                {
                  "internalType": "uint256",
                  "name": "prevTotalElements",
                  "type": "uint256"
                },
                {
                  "internalType": "bytes",
                  "name": "signature",
                  "type": "bytes"
                },
                {
                  "internalType": "bytes",
                  "name": "extraData",
                  "type": "bytes"
                }
              ],
              "internalType": "struct ChainBatchHeader",
              "name": "stateRootBatchHeader",
              "type": "tuple"
            },
            {
              "components": [
                {
                  "internalType": "uint256",
                  "name": "index",
                  "type": "uint256"
                },
                {
                  "internalType": "bytes32[]",
                  "name": "siblings",
                  "type": "bytes32[]"
                }
              ],
              "internalType": "struct ChainInclusionProof",
              "name": "stateRootProof",
              "type": "tuple"
            },
            {
              "internalType": "bytes",
              "name": "stateTrieWitness",
              "type": "bytes"
            },
            {
              "internalType": "bytes",
              "name": "storageTrieWitness",
              "type": "bytes"
            }
          ],
          "internalType": "struct L2MessageInclusionProof",
          "name": "_proof",
          "type": "tuple"
        }
      ],
      "name": "processMessageFromRoot",
      "outputs": [],
      "stateMutability": "nonpayable",
      "type": "function"
    },
    {
      "inputs": [
        {
          "internalType": "bytes32",
          "name": "",
          "type": "bytes32"
        }
      ],
      "name": "processed",
      "outputs": [
        {
          "internalType": "bool",
          "name": "",
          "type": "bool"
        }
      ],
      "stateMutability": "view",
      "type": "function"
    },
    {
      "inputs": [
        {
          "internalType": "address",
          "name": "newlyProposed",
          "type": "address"
        }
      ],
      "name": "proposeNewOwner",
      "outputs": [],
      "stateMutability": "nonpayable",
      "type": "function"
    },
    {
      "inputs": [],
      "name": "proposed",
      "outputs": [
        {
          "internalType": "address",
          "name": "",
          "type": "address"
        }
      ],
      "stateMutability": "view",
      "type": "function"
    },
    {
      "inputs": [],
      "name": "proposedTimestamp",
      "outputs": [
        {
          "internalType": "uint256",
          "name": "",
          "type": "uint256"
        }
      ],
      "stateMutability": "view",
      "type": "function"
    },
    {
      "inputs": [],
      "name": "renounceOwnership",
      "outputs": [],
      "stateMutability": "nonpayable",
      "type": "function"
    },
    {
      "inputs": [],
      "name": "renounced",
      "outputs": [
        {
          "internalType": "bool",
          "name": "",
          "type": "bool"
        }
      ],
      "stateMutability": "view",
      "type": "function"
    },
    {
      "inputs": [
        {
          "internalType": "bytes",
          "name": "_data",
          "type": "bytes"
        },
        {
          "internalType": "bytes",
          "name": "_encodedData",
          "type": "bytes"
        }
      ],
      "name": "sendMessage",
      "outputs": [],
      "stateMutability": "payable",
      "type": "function"
    },
    {
      "inputs": [
        {
          "internalType": "uint256",
          "name": "_gasCap",
          "type": "uint256"
        }
      ],
      "name": "setGasCap",
      "outputs": [],
      "stateMutability": "nonpayable",
      "type": "function"
    },
    {
      "inputs": [
        {
          "internalType": "address",
          "name": "_mirrorConnector",
          "type": "address"
        }
      ],
      "name": "setMirrorConnector",
      "outputs": [],
      "stateMutability": "nonpayable",
      "type": "function"
    },
    {
      "inputs": [],
      "name": "stateCommitmentChain",
      "outputs": [
        {
          "internalType": "contract IStateCommitmentChain",
          "name": "",
          "type": "address"
        }
      ],
      "stateMutability": "view",
      "type": "function"
    },
    {
      "inputs": [
        {
          "internalType": "address",
          "name": "_expected",
          "type": "address"
        }
      ],
      "name": "verifySender",
      "outputs": [
        {
          "internalType": "bool",
          "name": "",
          "type": "bool"
        }
      ],
      "stateMutability": "nonpayable",
      "type": "function"
    },
    {
      "inputs": [
        {
          "internalType": "address",
          "name": "_to",
          "type": "address"
        }
      ],
      "name": "withdrawFunds",
      "outputs": [],
      "stateMutability": "nonpayable",
      "type": "function"
    },
    {
      "stateMutability": "payable",
      "type": "receive"
    }
  ],
  "transactionHash": "0x56ba41381536e45f64be548b787a0a3a5e47bee800c3c9eb7a451b961540cee6",
  "args": [
    "6648936",
    "1835101812",
    "0x676A795fe6E43C17c668de16730c3F690FEB7120",
    "0x523AB7424AD126809b1d7A134eb6E0ee414C9B3A",
    "0x0000000000000000000000000000000000000000",
    "0x89E9D387555AF0cDE22cb98833Bae40d640AD7fa",
    "850000"
  ],
  "numDeployments": 1,
  "solcInputHash": "f27fc0c5a728e8290f4e343b9381d1ad",
  "bytecode": "0x6101206040523480156200001257600080fd5b506040516200321f3803806200321f8339810160408190526200003591620002eb565b8080888888888884848484846200004c33620001aa565b8463ffffffff16600003620000975760405162461bcd60e51b815260206004820152600c60248201526b32b6b83a3c903237b6b0b4b760a11b60448201526064015b60405180910390fd5b6001600160a01b038216620000e35760405162461bcd60e51b815260206004820152601160248201527032b6b83a3c903937b7ba26b0b730b3b2b960791b60448201526064016200008e565b63ffffffff8086166080526001600160a01b0380851660a05283811660c05290851660e0528116156200011b576200011b816200020f565b604080516001600160a01b0385811682528481166020830152831681830152905163ffffffff86811692908816917f4f9c27c2fe3f84576ea469d367d044da53c45e951617e8389f2b5ed8db9d25f09181900360600190a3505050505050505050506200018e816200027860201b60201c565b5050506001600160a01b03166101005250620003779350505050565b600080546040516001600160a01b03808516939216917f8be0079c531659141344cd1fd0a4f28419497f9722a3daafe3b4186f6b6457e091a3600080546001600160a01b039092166001600160a01b0319928316178155600255600180549091169055565b600354604080516001600160a01b03928316815291831660208301527fc77bec288fc88f168427f2f7da682eadb26cac89d8d591af6e443da98dff2bbc910160405180910390a1600380546001600160a01b0319166001600160a01b0392909216919091179055565b60045460408051918252602082018390527f877a02cb809da0364d23adca3cd50c451b53f279d3df632e1fc11eb66335bce5910160405180910390a1600455565b805163ffffffff81168114620002ce57600080fd5b919050565b80516001600160a01b0381168114620002ce57600080fd5b600080600080600080600060e0888a0312156200030757600080fd5b6200031288620002b9565b96506200032260208901620002b9565b95506200033260408901620002d3565b94506200034260608901620002d3565b93506200035260808901620002d3565b92506200036260a08901620002d3565b915060c0880151905092959891949750929550565b60805160a05160c05160e05161010051612e32620003ed6000396000818161018b0152610fa60152600081816101d7015261064f0152600081816102de0152818161068a015261073301526000818161046d015281816107e301528181610c510152610f5b0152600061028a0152612e326000f3fe6080604052600436106101445760003560e01c80636a42b8f8116100b6578063c5b350df1161006f578063c5b350df146103e9578063cc394283146103fe578063d1851c921461041e578063d232c2201461043c578063d69f9d611461045b578063db1b76591461048f57600080fd5b80636a42b8f814610320578063715018a6146103365780637850b0201461034b5780638da5cb5b1461036b578063b1f8100d14610389578063c1f0808a146103a957600080fd5b806348e6fa231161010857806348e6fa23146102455780634ff746f61461025857806352a9674b146102785780635bd11efc146102ac5780635f61e3ec146102cc57806368742da61461030057600080fd5b8063047dbeb8146101505780630f329ef81461017957806314168416146101c55780632c7608d81461020e5780633cf52ffb1461023057600080fd5b3661014b57005b600080fd5b34801561015c57600080fd5b5061016660045481565b6040519081526020015b60405180910390f35b34801561018557600080fd5b506101ad7f000000000000000000000000000000000000000000000000000000000000000081565b6040516001600160a01b039091168152602001610170565b3480156101d157600080fd5b506101f97f000000000000000000000000000000000000000000000000000000000000000081565b60405163ffffffff9091168152602001610170565b34801561021a57600080fd5b5061022e610229366004612830565b6104af565b005b34801561023c57600080fd5b50600254610166565b61022e610253366004612968565b610728565b34801561026457600080fd5b5061022e6102733660046129cb565b6107d8565b34801561028457600080fd5b506101f97f000000000000000000000000000000000000000000000000000000000000000081565b3480156102b857600080fd5b5061022e6102c7366004612a07565b61087e565b3480156102d857600080fd5b506101ad7f000000000000000000000000000000000000000000000000000000000000000081565b34801561030c57600080fd5b5061022e61031b366004612a07565b6108b5565b34801561032c57600080fd5b5062093a80610166565b34801561034257600080fd5b5061022e610932565b34801561035757600080fd5b5061022e610366366004612a24565b6109e6565b34801561037757600080fd5b506000546001600160a01b03166101ad565b34801561039557600080fd5b5061022e6103a4366004612a07565b610a1a565b3480156103b557600080fd5b506103d96103c4366004612a24565b60056020526000908152604090205460ff1681565b6040519015158152602001610170565b3480156103f557600080fd5b5061022e610ab8565b34801561040a57600080fd5b506003546101ad906001600160a01b031681565b34801561042a57600080fd5b506001546001600160a01b03166101ad565b34801561044857600080fd5b506000546001600160a01b0316156103d9565b34801561046757600080fd5b506101ad7f000000000000000000000000000000000000000000000000000000000000000081565b34801561049b57600080fd5b506103d96104aa366004612a07565b610b28565b6003546001600160a01b038581169116146105045760405162461bcd60e51b815260206004820152601060248201526f10b6b4b93937b921b7b73732b1ba37b960811b60448201526064015b60405180910390fd5b6001600160a01b03851630146105445760405162461bcd60e51b8152602060048201526005602482015264217468697360d81b60448201526064016104fb565b600061055286868686610b39565b905061055e8183610b86565b6105935760405162461bcd60e51b815260206004820152600660248201526510b83937b7b360d11b60448201526064016104fb565b83516020146105ce5760405162461bcd60e51b8152602060048201526007602482015266042d8cadccee8d60cb1b60448201526064016104fb565b60006105d985612a3d565b60008181526005602052604090205490915060ff16156106275760405162461bcd60e51b81526020600482015260096024820152681c1c9bd8d95cdcd95960ba1b60448201526064016104fb565b60008181526005602052604090819020805460ff191660011790555163473ec9fd60e11b81527f000000000000000000000000000000000000000000000000000000000000000063ffffffff166004820152602481018290526001600160a01b037f00000000000000000000000000000000000000000000000000000000000000001690638e7d93fa90604401600060405180830381600087803b1580156106ce57600080fd5b505af11580156106e2573d6000803e3d6000fd5b505050507fb3abc57bfeebd2cac918901db582f71972a8e628bccf19f5ae3e3482b98a5ced8533604051610717929190612ab4565b60405180910390a150505050505050565b336001600160a01b037f0000000000000000000000000000000000000000000000000000000000000000161461078f5760405162461bcd60e51b815260206004820152600c60248201526b10b937b7ba26b0b730b3b2b960a11b60448201526064016104fb565b6107998282610ba9565b7fdcaa37a042a0087de79018c629bbd29cee82ca80bd9be394e1696bf9e93550778282336040516107cc93929190612ade565b60405180910390a15050565b336001600160a01b037f000000000000000000000000000000000000000000000000000000000000000016146108395760405162461bcd60e51b81526004016104fb9060208082526004908201526310a0a6a160e11b604082015260600190565b61084281610cc0565b7fb3abc57bfeebd2cac918901db582f71972a8e628bccf19f5ae3e3482b98a5ced8133604051610873929190612ab4565b60405180910390a150565b6000546001600160a01b031633146108a9576040516311a8a1bb60e31b815260040160405180910390fd5b6108b281610cd9565b50565b6000546001600160a01b031633146108e0576040516311a8a1bb60e31b815260040160405180910390fd5b476108eb8282610d42565b816001600160a01b03167feaff4b37086828766ad3268786972c0cd24259d4c87a80f9d3963a3c3d999b0d8260405161092691815260200190565b60405180910390a25050565b6000546001600160a01b0316331461095d576040516311a8a1bb60e31b815260040160405180910390fd5b62093a806002544261096f9190612b32565b1161098d576040516324e0285f60e21b815260040160405180910390fd5b6002546000036109b057604051630e4b303f60e21b815260040160405180910390fd5b6001546001600160a01b0316156109da576040516323295ef960e01b815260040160405180910390fd5b6109e46000610e60565b565b6000546001600160a01b03163314610a11576040516311a8a1bb60e31b815260040160405180910390fd5b6108b281610ec5565b6000546001600160a01b03163314610a45576040516311a8a1bb60e31b815260040160405180910390fd5b6001546001600160a01b038281169116148015610a63575060025415155b15610a81576040516311bc066560e11b815260040160405180910390fd5b6000546001600160a01b03808316911603610aaf57604051634a2fb73f60e11b815260040160405180910390fd5b6108b281610f06565b6001546001600160a01b03163314610ae3576040516311a7f27160e11b815260040160405180910390fd5b62093a8060025442610af59190612b32565b11610b13576040516324e0285f60e21b815260040160405180910390fd5b6001546109e4906001600160a01b0316610e60565b6000610b3382610f54565b92915050565b606084848484604051602401610b529493929190612b45565b60408051601f198184030181529190526020810180516001600160e01b031663cbd4ece960e01b1790529050949350505050565b6000610b9182610f80565b8015610ba25750610ba2838361101a565b9392505050565b8151602014610be45760405162461bcd60e51b8152602060048201526007602482015266042d8cadccee8d60cb1b60448201526064016104fb565b6000634ff746f660e01b83604051602401610bff9190612b82565b60408051601f198184030181529181526020820180516001600160e01b03166001600160e01b031990941693909317909252600354600480549351633dbb202b60e01b81529294506001600160a01b037f0000000000000000000000000000000000000000000000000000000000000000811694633dbb202b94610c899490921692879201612b95565b600060405180830381600087803b158015610ca357600080fd5b505af1158015610cb7573d6000803e3d6000fd5b50505050505050565b6040516316c2fdb560e21b815260040160405180910390fd5b600354604080516001600160a01b03928316815291831660208301527fc77bec288fc88f168427f2f7da682eadb26cac89d8d591af6e443da98dff2bbc910160405180910390a1600380546001600160a01b0319166001600160a01b0392909216919091179055565b80471015610d925760405162461bcd60e51b815260206004820152601d60248201527f416464726573733a20696e73756666696369656e742062616c616e636500000060448201526064016104fb565b6000826001600160a01b03168260405160006040518083038185875af1925050503d8060008114610ddf576040519150601f19603f3d011682016040523d82523d6000602084013e610de4565b606091505b5050905080610e5b5760405162461bcd60e51b815260206004820152603a60248201527f416464726573733a20756e61626c6520746f2073656e642076616c75652c207260448201527f6563697069656e74206d6179206861766520726576657274656400000000000060648201526084016104fb565b505050565b600080546040516001600160a01b03808516939216917f8be0079c531659141344cd1fd0a4f28419497f9722a3daafe3b4186f6b6457e091a3600080546001600160a01b039092166001600160a01b0319928316178155600255600180549091169055565b60045460408051918252602082018390527f877a02cb809da0364d23adca3cd50c451b53f279d3df632e1fc11eb66335bce5910160405180910390a1600455565b42600255600180546001600160a01b0319166001600160a01b0383169081179091556040517f6ab4d119f23076e8ad491bc65ce85f017fb0591dce08755ba8591059cc51737a90600090a250565b6000610b337f0000000000000000000000000000000000000000000000000000000000000000836111a9565b80516020820151604080840151905163b768bb1760e01b81526000936001600160a01b037f0000000000000000000000000000000000000000000000000000000000000000169363b768bb1793610fd993600401612bcf565b602060405180830381865afa158015610ff6573d6000803e3d6000fd5b505050506040513d601f19601f82011682018060405250810190610b339190612c99565b600080836007602160991b01604051602001611037929190612cbb565b60408051601f1981840301815282825280516020918201209083015260009082015260600160408051601f19818403018152908290528051602091820120602160f91b91830191909152915060009081906110ab9060340160408051601f198184030181529190526060870151875161126a565b909250905060018215151461113e5760405162461bcd60e51b815260206004820152604d60248201527f4d6573736167652070617373696e67207072656465706c6f7920686173206e6f60448201527f74206265656e20696e697469616c697a6564206f7220696e76616c696420707260648201526c37b7b310383937bb34b232b21760991b608482015260a4016104fb565b600061114982611293565b905061119e8460405160200161116191815260200190565b60408051601f1981840301815290829052600160f81b60208301529060210160405160208183030381529060405288608001518460400151611357565b979650505050505050565b6000336001600160a01b038416146111ed5760405162461bcd60e51b81526020600482015260076024820152662162726964676560c81b60448201526064016104fb565b816001600160a01b0316836001600160a01b0316636e296e456040518163ffffffff1660e01b8152600401602060405180830381865afa158015611235573d6000803e3d6000fd5b505050506040513d601f19601f820116820180604052508101906112599190612cf2565b6001600160a01b0316149392505050565b6000606060006112798661137b565b90506112868186866113ad565b9250925050935093915050565b6040805160808101825260008082526020820181905291810182905260608101829052906112c083611488565b905060405180608001604052806112f0836000815181106112e3576112e3612d0f565b60200260200101516114bb565b815260200161130b836001815181106112e3576112e3612d0f565b81526020016113338360028151811061132657611326612d0f565b60200260200101516114c2565b815260200161134e8360038151811061132657611326612d0f565b90529392505050565b6000806113638661137b565b9050611371818686866115c3565b9695505050505050565b6060818051906020012060405160200161139791815260200190565b6040516020818303038152906040529050919050565b6000606060006113bc856115f9565b905060008060006113ce848a896116ec565b815192955090935091501580806113e25750815b61142e5760405162461bcd60e51b815260206004820152601a60248201527f50726f76696465642070726f6f6620697320696e76616c69642e00000000000060448201526064016104fb565b60008161144a5760405180602001604052806000815250611476565b61147686611459600188612b32565b8151811061146957611469612d0f565b6020026020010151611b02565b919b919a509098505050505050505050565b604080518082018252600080825260209182015281518083019092528251825280830190820152606090610b3390611b2c565b6000610b33825b600060228260000151106115185760405162461bcd60e51b815260206004820152601a60248201527f496e76616c696420524c5020627974657333322076616c75652e00000000000060448201526064016104fb565b600080600061152685611d18565b91945092509050600081600181111561154157611541612d25565b1461158e5760405162461bcd60e51b815260206004820152601a60248201527f496e76616c696420524c5020627974657333322076616c75652e00000000000060448201526064016104fb565b60008386602001516115a09190612d3b565b805190915060208410156113715760208490036101000a90049695505050505050565b60008060006115d38786866113ad565b9150915081801561119e575080516020808301919091208751918801919091201461119e565b6060600061160683611488565b9050600081516001600160401b03811115611623576116236125be565b60405190808252806020026020018201604052801561166857816020015b60408051808201909152606080825260208201528152602001906001900390816116415790505b50825190915060005b818110156116e257600061169d85838151811061169057611690612d0f565b6020026020010151612066565b905060405180604001604052808281526020016116b983611488565b8152508483815181106116ce576116ce612d0f565b602090810291909101015250600101611671565b5090949350505050565b600060608180806116fc876120f6565b90506000869050600080611723604051806040016040528060608152602001606081525090565b8b5160005b81811015611ad9578d818151811061174257611742612d0f565b6020026020010151925083856117589190612d3b565b9450611765600189612d3b565b9750846000036117c0578251805160209091012086146117bb5760405162461bcd60e51b8152602060048201526011602482015270092dcecc2d8d2c840e4dedee840d0c2e6d607b1b60448201526064016104fb565b61187e565b825151601f1015611823578251805160209091012086146117bb5760405162461bcd60e51b815260206004820152601b60248201527f496e76616c6964206c6172676520696e7465726e616c2068617368000000000060448201526064016104fb565b85611831846000015161222a565b1461187e5760405162461bcd60e51b815260206004820152601a60248201527f496e76616c696420696e7465726e616c206e6f6465206861736800000000000060448201526064016104fb565b60019081019061189090601090612d3b565b836020015151036119025786518514611ad95760008786815181106118b7576118b7612d0f565b602001015160f81c60f81b60f81c9050600084602001518260ff16815181106118e2576118e2612d0f565b602002602001015190506118f581612252565b9750600195505050611728565b600283602001515103611a9157600061191a84612288565b905060008160008151811061193157611931612d0f565b016020015160f81c90506000611948600283612d64565b611953906002612d86565b90506000611964848360ff166122ac565b905060006119728c8b6122ac565b9050600061198083836122e2565b905060ff851660021480611997575060ff85166003145b156119d1578083511480156119ac5750808251145b156119be576119bb818c612d3b565b9a505b50600160ff1b9a50611ad9945050505050565b60ff851615806119e4575060ff85166001145b15611a3a5782518114611a045750600160ff1b9a50611ad9945050505050565b611a2b8960200151600181518110611a1e57611a1e612d0f565b6020026020010151612252565b9b509850611728945050505050565b60405162461bcd60e51b815260206004820152602660248201527f52656365697665642061206e6f6465207769746820616e20756e6b6e6f776e206044820152650e0e4caccd2f60d31b60648201526084016104fb565b60405162461bcd60e51b815260206004820152601d60248201527f526563656976656420616e20756e706172736561626c65206e6f64652e00000060448201526064016104fb565b50600160ff1b851487611aec88876122ac565b909f909e50909c509a5050505050505050505050565b60208101518051606091610b3391611b1c90600190612b32565b8151811061169057611690612d0f565b6060600080611b3a84611d18565b91935090915060019050816001811115611b5657611b56612d25565b14611ba35760405162461bcd60e51b815260206004820152601760248201527f496e76616c696420524c50206c6973742076616c75652e00000000000000000060448201526064016104fb565b6040805160208082526104208201909252600091816020015b6040805180820190915260008082526020820152815260200190600190039081611bbc5790505090506000835b8651811015611d0d5760208210611c555760405162461bcd60e51b815260206004820152602a60248201527f50726f766964656420524c50206c6973742065786365656473206d6178206c6960448201526939ba103632b733ba341760b11b60648201526084016104fb565b600080611c926040518060400160405280858c60000151611c769190612b32565b8152602001858c60200151611c8b9190612d3b565b9052611d18565b509150915060405180604001604052808383611cae9190612d3b565b8152602001848b60200151611cc39190612d3b565b815250858581518110611cd857611cd8612d0f565b6020908102919091010152611cee600185612d3b565b9350611cfa8183612d3b565b611d049084612d3b565b92505050611be9565b508152949350505050565b600080600080846000015111611d705760405162461bcd60e51b815260206004820152601860248201527f524c50206974656d2063616e6e6f74206265206e756c6c2e000000000000000060448201526064016104fb565b6020840151805160001a6080811015611d9657600060016000945094509450505061205f565b60b8811015611e13576000611dac608083612b32565b905080876000015111611e015760405162461bcd60e51b815260206004820152601960248201527f496e76616c696420524c502073686f727420737472696e672e0000000000000060448201526064016104fb565b6001955093506000925061205f915050565b60c0811015611f03576000611e2960b783612b32565b905080876000015111611e7e5760405162461bcd60e51b815260206004820152601f60248201527f496e76616c696420524c50206c6f6e6720737472696e67206c656e6774682e0060448201526064016104fb565b600183015160208290036101000a9004611e988183612d3b565b885111611ee75760405162461bcd60e51b815260206004820152601860248201527f496e76616c696420524c50206c6f6e6720737472696e672e000000000000000060448201526064016104fb565b611ef2826001612d3b565b965094506000935061205f92505050565b60f8811015611f7f576000611f1960c083612b32565b905080876000015111611f6e5760405162461bcd60e51b815260206004820152601760248201527f496e76616c696420524c502073686f7274206c6973742e00000000000000000060448201526064016104fb565b60019550935084925061205f915050565b6000611f8c60f783612b32565b905080876000015111611fe15760405162461bcd60e51b815260206004820152601d60248201527f496e76616c696420524c50206c6f6e67206c697374206c656e6774682e00000060448201526064016104fb565b600183015160208290036101000a9004611ffb8183612d3b565b8851116120435760405162461bcd60e51b815260206004820152601660248201527524b73b30b634b210292628103637b733903634b9ba1760511b60448201526064016104fb565b61204e826001612d3b565b965094506001935061205f92505050565b9193909250565b6060600080600061207685611d18565b91945092509050600081600181111561209157612091612d25565b146120de5760405162461bcd60e51b815260206004820152601860248201527f496e76616c696420524c502062797465732076616c75652e000000000000000060448201526064016104fb565b6120ed8560200151848461235e565b95945050505050565b60606000825160026121089190612d9f565b6001600160401b0381111561211f5761211f6125be565b6040519080825280601f01601f191660200182016040528015612149576020820181803683370190505b50835190915060005b8181101561222157600485828151811061216e5761216e612d0f565b01602001516001600160f81b031916901c8361218b836002612d9f565b8151811061219b5761219b612d0f565b60200101906001600160f81b031916908160001a90535060108582815181106121c6576121c6612d0f565b01602001516121d8919060f81c612d64565b60f81b836121e7836002612d9f565b6121f2906001612d3b565b8151811061220257612202612d0f565b60200101906001600160f81b031916908160001a905350600101612152565b50909392505050565b600060208251101561223e57506020015190565b81806020019051810190610b339190612db6565b600060606020836000015110156122735761226c83612431565b905061227f565b61227c83612066565b90505b610ba28161222a565b6060610b336122a7836020015160008151811061169057611690612d0f565b6120f6565b6060825182106122cb5750604080516020810190915260008152610b33565b610ba283838486516122dd9190612b32565b61243c565b6000805b8084511180156122f65750808351115b8015612347575082818151811061230f5761230f612d0f565b602001015160f81c60f81b6001600160f81b03191684828151811061233657612336612d0f565b01602001516001600160f81b031916145b15610ba2578061235681612dcf565b9150506122e6565b60606000826001600160401b0381111561237a5761237a6125be565b6040519080825280601f01601f1916602001820160405280156123a4576020820181803683370190505b50905080516000036123b7579050610ba2565b60006123c38587612d3b565b90506020820160005b6123d7602087612de8565b81101561240457825182526123ed602084612d3b565b92506123fa602083612d3b565b91506001016123cc565b5060006001602087066020036101000a039050808251168119845116178252839450505050509392505050565b6060610b3382612593565b60608161244a81601f612d3b565b10156124895760405162461bcd60e51b815260206004820152600e60248201526d736c6963655f6f766572666c6f7760901b60448201526064016104fb565b826124948382612d3b565b10156124d35760405162461bcd60e51b815260206004820152600e60248201526d736c6963655f6f766572666c6f7760901b60448201526064016104fb565b6124dd8284612d3b565b845110156125215760405162461bcd60e51b8152602060048201526011602482015270736c6963655f6f75744f66426f756e647360781b60448201526064016104fb565b606082158015612540576040519150600082526020820160405261258a565b6040519150601f8416801560200281840101858101878315602002848b0101015b81831015612579578051835260209283019201612561565b5050858452601f01601f1916604052505b50949350505050565b6060610b3382602001516000846000015161235e565b6001600160a01b03811681146108b257600080fd5b634e487b7160e01b600052604160045260246000fd5b60405160c081016001600160401b03811182821017156125f6576125f66125be565b60405290565b604080519081016001600160401b03811182821017156125f6576125f66125be565b60405160a081016001600160401b03811182821017156125f6576125f66125be565b604051601f8201601f191681016001600160401b0381118282101715612668576126686125be565b604052919050565b600082601f83011261268157600080fd5b81356001600160401b0381111561269a5761269a6125be565b6126ad601f8201601f1916602001612640565b8181528460208386010111156126c257600080fd5b816020850160208301376000918101602001919091529392505050565b600060c082840312156126f157600080fd5b6126f96125d4565b90508135815260208201356020820152604082013560408201526060820135606082015260808201356001600160401b038082111561273757600080fd5b61274385838601612670565b608084015260a084013591508082111561275c57600080fd5b5061276984828501612670565b60a08301525092915050565b60006040828403121561278757600080fd5b61278f6125fc565b9050813581526020808301356001600160401b03808211156127b057600080fd5b818501915085601f8301126127c457600080fd5b8135818111156127d6576127d66125be565b8060051b91506127e7848301612640565b818152918301840191848101908884111561280157600080fd5b938501935b8385101561281f57843582529385019390850190612806565b808688015250505050505092915050565b600080600080600060a0868803121561284857600080fd5b8535612853816125a9565b94506020860135612863816125a9565b935060408601356001600160401b038082111561287f57600080fd5b61288b89838a01612670565b94506060880135935060808801359150808211156128a857600080fd5b9087019060a0828a0312156128bc57600080fd5b6128c461261e565b823581526020830135828111156128da57600080fd5b6128e68b8286016126df565b6020830152506040830135828111156128fe57600080fd5b61290a8b828601612775565b60408301525060608301358281111561292257600080fd5b61292e8b828601612670565b60608301525060808301358281111561294657600080fd5b6129528b828601612670565b6080830152508093505050509295509295909350565b6000806040838503121561297b57600080fd5b82356001600160401b038082111561299257600080fd5b61299e86838701612670565b935060208501359150808211156129b457600080fd5b506129c185828601612670565b9150509250929050565b6000602082840312156129dd57600080fd5b81356001600160401b038111156129f357600080fd5b6129ff84828501612670565b949350505050565b600060208284031215612a1957600080fd5b8135610ba2816125a9565b600060208284031215612a3657600080fd5b5035919050565b80516020808301519190811015612a5e576000198160200360031b1b821691505b50919050565b60005b83811015612a7f578181015183820152602001612a67565b50506000910152565b60008151808452612aa0816020860160208601612a64565b601f01601f19169290920160200192915050565b604081526000612ac76040830185612a88565b905060018060a01b03831660208301529392505050565b606081526000612af16060830186612a88565b8281036020840152612b038186612a88565b91505060018060a01b0383166040830152949350505050565b634e487b7160e01b600052601160045260246000fd5b81810381811115610b3357610b33612b1c565b6001600160a01b03858116825284166020820152608060408201819052600090612b7190830185612a88565b905082606083015295945050505050565b602081526000610ba26020830184612a88565b6001600160a01b0384168152606060208201819052600090612bb990830185612a88565b905063ffffffff83166040830152949350505050565b8381526000602060608184015284516060840152808501516080840152604085015160a0840152606085015160c0840152608085015160c060e0850152612c1a610120850182612a88565b905060a0860151605f1985830301610100860152612c388282612a88565b91505083810360408501526040810185518252828601516040848401528181518084526060850191508583019450600093505b80841015612c8b5784518252938501936001939093019290850190612c6b565b509998505050505050505050565b600060208284031215612cab57600080fd5b81518015158114610ba257600080fd5b60008351612ccd818460208801612a64565b60609390931b6bffffffffffffffffffffffff19169190920190815260140192915050565b600060208284031215612d0457600080fd5b8151610ba2816125a9565b634e487b7160e01b600052603260045260246000fd5b634e487b7160e01b600052602160045260246000fd5b80820180821115610b3357610b33612b1c565b634e487b7160e01b600052601260045260246000fd5b600060ff831680612d7757612d77612d4e565b8060ff84160691505092915050565b60ff8281168282160390811115610b3357610b33612b1c565b8082028115828204841417610b3357610b33612b1c565b600060208284031215612dc857600080fd5b5051919050565b600060018201612de157612de1612b1c565b5060010190565b600082612df757612df7612d4e565b50049056fea264697066735822122082286c0fa1e0635f8fe388e463f698007a76bc492cb28c17206150163a57886c64736f6c63430008110033",
  "devdoc": {
    "details": "MantleHubConnector uses a pre-bedrock version of the optimism contracts. See the original ChainBatchHeader structure here: https://github.com/ethereum-optimism/optimism/blob/fcfcf6e7e69801e63904ec53815db01a8d45dcac/packages/contracts/contracts/libraries/codec/Lib_OVMCodec.sol#L34-L40",
    "kind": "dev",
    "methods": {
      "processMessage(bytes)": {
        "details": "This is called by AMBs to process messages originating from mirror connector"
      },
      "processMessageFromRoot(address,address,bytes,uint256,(bytes32,(uint256,bytes32,uint256,uint256,bytes,bytes),(uint256,bytes32[]),bytes,bytes))": {
        "details": "modified from: https://github.com/ethereum-optimism/optimism/blob/9973c1da3211e094a180a8a96ba9f8bb1ab1b389/packages/contracts/contracts/L1/messaging/L1CrossDomainMessenger.sol#L165"
      },
      "sendMessage(bytes,bytes)": {
        "details": "This is called by the root manager *only* on mainnet to propagate the aggregate root"
      },
      "withdrawFunds(address)": {
        "details": "Withdraws the entire balance of the contract.",
        "params": {
          "_to": "The recipient of the funds withdrawn"
        }
      }
    },
    "title": "MantleHubConnector",
    "version": 1
  },
  "userdoc": {
    "events": {
      "FundsWithdrawn(address,uint256)": {
        "notice": "Emitted when funds are withdrawn by the admin"
      },
      "GasCapUpdated(uint256,uint256)": {
        "notice": "Emitted when admin updates the gas cap"
      },
      "MessageProcessed(bytes,address)": {
        "notice": "Emitted whenever a message is successfully received over an AMB"
      },
      "MessageSent(bytes,bytes,address)": {
        "notice": "Emitted whenever a message is successfully sent over an AMB"
      }
    },
    "kind": "user",
    "methods": {
      "AMB()": {
        "notice": "Address of the AMB on this domain."
      },
      "DOMAIN()": {
        "notice": "The domain of this Messaging (i.e. Connector) contract."
      },
      "MIRROR_DOMAIN()": {
        "notice": "The domain of the corresponding messaging (i.e. Connector) contract."
      },
      "ROOT_MANAGER()": {
        "notice": "RootManager contract address."
      },
      "acceptProposedOwner()": {
        "notice": "Transfers ownership of the contract to a new account (`newOwner`). Can only be called by the current owner."
      },
      "delay()": {
        "notice": "Returns the delay period before a new owner can be accepted."
      },
      "gasCap()": {
        "notice": "The gnosis amb requires destination gas to be specified on the origin. The gas used will be passed in by the relayer to allow for real-time estimates, but will be capped at the admin-set cap."
      },
      "mirrorConnector()": {
        "notice": "Connector on L2 for L1 connectors, and vice versa."
      },
      "owner()": {
        "notice": "Returns the address of the current owner."
      },
      "processMessage(bytes)": {
        "notice": "Processes a message received by an AMB"
      },
      "proposeNewOwner(address)": {
        "notice": "Sets the timestamp for an owner to be proposed, and sets the newly proposed owner as step 1 in a 2-step process"
      },
      "proposed()": {
        "notice": "Returns the address of the proposed owner."
      },
      "proposedTimestamp()": {
        "notice": "Returns the address of the proposed owner."
      },
      "renounceOwnership()": {
        "notice": "Renounces ownership of the contract after a delay"
      },
      "renounced()": {
        "notice": "Indicates if the ownership has been renounced() by checking if current owner is address(0)"
      },
      "sendMessage(bytes,bytes)": {
        "notice": "Sends a message over the amb"
      },
      "setMirrorConnector(address)": {
        "notice": "Sets the address of the l2Connector for this domain"
      },
      "verifySender(address)": {
        "notice": "Checks the cross domain sender for a given address"
      },
      "withdrawFunds(address)": {
        "notice": "This function should be callable by owner, and send funds trapped on a connector to the provided recipient."
      }
    },
    "notice": "Mantle is a pre-bedrock optimism fork, with a modified header structure. This alters the `processMessageFromRoot` interface.",
    "version": 1
  },
  "storageLayout": {
    "storage": [
      {
        "astId": 49365,
        "contract": "contracts/messaging/connectors/mantle/MantleHubConnector.sol:MantleHubConnector",
        "label": "_owner",
        "offset": 0,
        "slot": "0",
        "type": "t_address"
      },
      {
        "astId": 49367,
        "contract": "contracts/messaging/connectors/mantle/MantleHubConnector.sol:MantleHubConnector",
        "label": "_proposed",
        "offset": 0,
        "slot": "1",
        "type": "t_address"
      },
      {
        "astId": 49369,
        "contract": "contracts/messaging/connectors/mantle/MantleHubConnector.sol:MantleHubConnector",
        "label": "_proposedOwnershipTimestamp",
        "offset": 0,
        "slot": "2",
        "type": "t_uint256"
      },
      {
        "astId": 34491,
        "contract": "contracts/messaging/connectors/mantle/MantleHubConnector.sol:MantleHubConnector",
        "label": "mirrorConnector",
        "offset": 0,
        "slot": "3",
        "type": "t_address"
      },
      {
        "astId": 34776,
        "contract": "contracts/messaging/connectors/mantle/MantleHubConnector.sol:MantleHubConnector",
        "label": "gasCap",
        "offset": 0,
        "slot": "4",
        "type": "t_uint256"
      },
      {
        "astId": 38515,
        "contract": "contracts/messaging/connectors/mantle/MantleHubConnector.sol:MantleHubConnector",
        "label": "processed",
        "offset": 0,
        "slot": "5",
        "type": "t_mapping(t_bytes32,t_bool)"
      }
    ],
    "types": {
      "t_address": {
        "encoding": "inplace",
        "label": "address",
        "numberOfBytes": "20"
      },
      "t_bool": {
        "encoding": "inplace",
        "label": "bool",
        "numberOfBytes": "1"
      },
      "t_bytes32": {
        "encoding": "inplace",
        "label": "bytes32",
        "numberOfBytes": "32"
      },
      "t_mapping(t_bytes32,t_bool)": {
        "encoding": "mapping",
        "key": "t_bytes32",
        "label": "mapping(bytes32 => bool)",
        "numberOfBytes": "32",
        "value": "t_bool"
      },
      "t_uint256": {
        "encoding": "inplace",
        "label": "uint256",
        "numberOfBytes": "32"
      }
    }
  }
}