{
  "address": "0x2D20B01E5979309b50cF461689333CA14e6E876D",
  "abi": [
    {
      "inputs": [
        {
          "components": [
            {
              "internalType": "address",
              "name": "connext",
              "type": "address"
            },
            {
              "internalType": "address",
              "name": "spokeConnector",
              "type": "address"
            },
            {
              "internalType": "address",
              "name": "gelatoRelayer",
              "type": "address"
            },
            {
              "internalType": "address",
              "name": "feeCollector",
              "type": "address"
            },
            {
              "internalType": "address",
              "name": "keep3r",
              "type": "address"
            },
            {
              "internalType": "address",
              "name": "rootManager",
              "type": "address"
            },
            {
              "internalType": "address",
              "name": "autonolas",
              "type": "address"
            },
            {
              "internalType": "uint256",
              "name": "propagateCooldown",
              "type": "uint256"
            },
            {
              "internalType": "uint256",
              "name": "finalizeCooldown",
              "type": "uint256"
            },
            {
              "internalType": "uint256",
              "name": "proposeAggregateRootCooldown",
              "type": "uint256"
            },
            {
              "internalType": "address[]",
              "name": "hubConnectors",
              "type": "address[]"
            },
            {
              "internalType": "uint32[]",
              "name": "hubConnectorChains",
              "type": "uint32[]"
            }
          ],
          "internalType": "struct RelayerProxyHub.HubConstructorParams",
          "name": "_params",
          "type": "tuple"
        }
      ],
      "stateMutability": "nonpayable",
      "type": "constructor"
    },
    {
      "inputs": [],
      "name": "ProposedOwnable__onlyOwner_notOwner",
      "type": "error"
    },
    {
      "inputs": [],
      "name": "ProposedOwnable__onlyProposed_notProposedOwner",
      "type": "error"
    },
    {
      "inputs": [],
      "name": "ProposedOwnable__ownershipDelayElapsed_delayNotElapsed",
      "type": "error"
    },
    {
      "inputs": [],
      "name": "ProposedOwnable__proposeNewOwner_invalidProposal",
      "type": "error"
    },
    {
      "inputs": [],
      "name": "ProposedOwnable__proposeNewOwner_noOwnershipChange",
      "type": "error"
    },
    {
      "inputs": [],
      "name": "ProposedOwnable__renounceOwnership_invalidProposal",
      "type": "error"
    },
    {
      "inputs": [],
      "name": "ProposedOwnable__renounceOwnership_noProposal",
      "type": "error"
    },
    {
      "inputs": [],
      "name": "RelayerProxyHub__processFromRoot_alreadyProcessed",
      "type": "error"
    },
    {
      "inputs": [],
      "name": "RelayerProxyHub__processFromRoot_noHubConnector",
      "type": "error"
    },
    {
      "inputs": [],
      "name": "RelayerProxyHub__processFromRoot_unsupportedChain",
      "type": "error"
    },
    {
      "inputs": [],
      "name": "RelayerProxyHub__propagateCooledDown_notCooledDown",
      "type": "error"
    },
    {
      "inputs": [
        {
          "internalType": "address",
          "name": "signer",
          "type": "address"
        }
      ],
      "name": "RelayerProxyHub__validateProposeSignature_notProposer",
      "type": "error"
    },
    {
      "inputs": [],
      "name": "RelayerProxy__addRelayer_relayerAdded",
      "type": "error"
    },
    {
      "inputs": [],
      "name": "RelayerProxy__definedAddress_empty",
      "type": "error"
    },
    {
      "inputs": [],
      "name": "RelayerProxy__finalizeCooledDown_notCooledDown",
      "type": "error"
    },
    {
      "inputs": [],
      "name": "RelayerProxy__isWorkableBySender_notWorkable",
      "type": "error"
    },
    {
      "inputs": [],
      "name": "RelayerProxy__onlyRelayer_notRelayer",
      "type": "error"
    },
    {
      "inputs": [],
      "name": "RelayerProxy__proposeAggregateRootCooledDown_notCooledDown",
      "type": "error"
    },
    {
      "inputs": [],
      "name": "RelayerProxy__removeRelayer_relayerNotAdded",
      "type": "error"
    },
    {
      "inputs": [],
      "name": "RelayerProxy__validateAndPayWithCredits_notKeep3r",
      "type": "error"
    },
    {
      "inputs": [
        {
          "internalType": "address",
          "name": "signer",
          "type": "address"
        }
      ],
      "name": "RelayerProxy__validateProposeSignature_notProposer",
      "type": "error"
    },
    {
      "anonymous": false,
      "inputs": [
        {
          "indexed": false,
          "internalType": "address",
          "name": "updated",
          "type": "address"
        },
        {
          "indexed": false,
          "internalType": "address",
          "name": "previous",
          "type": "address"
        }
      ],
      "name": "AutonolasChanged",
      "type": "event"
    },
    {
      "anonymous": false,
      "inputs": [
        {
          "indexed": false,
          "internalType": "enum RelayerProxyHub.AutonolasPriorityFunction",
          "name": "fn",
          "type": "uint8"
        },
        {
          "indexed": false,
          "internalType": "uint8",
          "name": "updated",
          "type": "uint8"
        },
        {
          "indexed": false,
          "internalType": "uint8",
          "name": "previous",
          "type": "uint8"
        }
      ],
      "name": "AutonolasPriorityChanged",
      "type": "event"
    },
    {
      "anonymous": false,
      "inputs": [
        {
          "indexed": false,
          "internalType": "address",
          "name": "updated",
          "type": "address"
        },
        {
          "indexed": false,
          "internalType": "address",
          "name": "previous",
          "type": "address"
        }
      ],
      "name": "ConnextChanged",
      "type": "event"
    },
    {
      "anonymous": false,
      "inputs": [
        {
          "indexed": false,
          "internalType": "address",
          "name": "updated",
          "type": "address"
        },
        {
          "indexed": false,
          "internalType": "address",
          "name": "previous",
          "type": "address"
        }
      ],
      "name": "FeeCollectorChanged",
      "type": "event"
    },
    {
      "anonymous": false,
      "inputs": [
        {
          "indexed": false,
          "internalType": "uint256",
          "name": "finalizeCooldown",
          "type": "uint256"
        },
        {
          "indexed": false,
          "internalType": "uint256",
          "name": "oldFinalizeCooldown",
          "type": "uint256"
        }
      ],
      "name": "FinalizeCooldownChanged",
      "type": "event"
    },
    {
      "anonymous": false,
      "inputs": [
        {
          "indexed": false,
          "internalType": "address",
          "name": "token",
          "type": "address"
        },
        {
          "indexed": false,
          "internalType": "uint256",
          "name": "amount",
          "type": "uint256"
        },
        {
          "indexed": false,
          "internalType": "uint256",
          "name": "balance",
          "type": "uint256"
        }
      ],
      "name": "FundsDeducted",
      "type": "event"
    },
    {
      "anonymous": false,
      "inputs": [
        {
          "indexed": false,
          "internalType": "uint256",
          "name": "amount",
          "type": "uint256"
        },
        {
          "indexed": false,
          "internalType": "uint256",
          "name": "balance",
          "type": "uint256"
        }
      ],
      "name": "FundsReceived",
      "type": "event"
    },
    {
      "anonymous": false,
      "inputs": [
        {
          "indexed": false,
          "internalType": "address",
          "name": "updated",
          "type": "address"
        },
        {
          "indexed": false,
          "internalType": "address",
          "name": "previous",
          "type": "address"
        }
      ],
      "name": "GelatoRelayerChanged",
      "type": "event"
    },
    {
      "anonymous": false,
      "inputs": [
        {
          "indexed": false,
          "internalType": "address",
          "name": "hubConnector",
          "type": "address"
        },
        {
          "indexed": false,
          "internalType": "address",
          "name": "oldHubConnector",
          "type": "address"
        },
        {
          "indexed": false,
          "internalType": "uint32",
          "name": "chain",
          "type": "uint32"
        }
      ],
      "name": "HubConnectorChanged",
      "type": "event"
    },
    {
      "anonymous": false,
      "inputs": [
        {
          "indexed": false,
          "internalType": "address",
          "name": "updated",
          "type": "address"
        },
        {
          "indexed": false,
          "internalType": "address",
          "name": "previous",
          "type": "address"
        }
      ],
      "name": "Keep3rChanged",
      "type": "event"
    },
    {
      "anonymous": false,
      "inputs": [
        {
          "indexed": true,
          "internalType": "address",
          "name": "proposedOwner",
          "type": "address"
        }
      ],
      "name": "OwnershipProposed",
      "type": "event"
    },
    {
      "anonymous": false,
      "inputs": [
        {
          "indexed": true,
          "internalType": "address",
          "name": "previousOwner",
          "type": "address"
        },
        {
          "indexed": true,
          "internalType": "address",
          "name": "newOwner",
          "type": "address"
        }
      ],
      "name": "OwnershipTransferred",
      "type": "event"
    },
    {
      "anonymous": false,
      "inputs": [
        {
          "indexed": false,
          "internalType": "uint256",
          "name": "propagateCooldown",
          "type": "uint256"
        },
        {
          "indexed": false,
          "internalType": "uint256",
          "name": "oldPropagateCooldown",
          "type": "uint256"
        }
      ],
      "name": "PropagateCooldownChanged",
      "type": "event"
    },
    {
      "anonymous": false,
      "inputs": [
        {
          "indexed": false,
          "internalType": "uint256",
          "name": "proposeAggregateRootCooldown",
          "type": "uint256"
        },
        {
          "indexed": false,
          "internalType": "uint256",
          "name": "oldProposeAggregateRootCooldown",
          "type": "uint256"
        }
      ],
      "name": "ProposeAggregateRootCooldownChanged",
      "type": "event"
    },
    {
      "anonymous": false,
      "inputs": [
        {
          "indexed": false,
          "internalType": "address",
          "name": "relayer",
          "type": "address"
        }
      ],
      "name": "RelayerAdded",
      "type": "event"
    },
    {
      "anonymous": false,
      "inputs": [
        {
          "indexed": false,
          "internalType": "address",
          "name": "relayer",
          "type": "address"
        }
      ],
      "name": "RelayerRemoved",
      "type": "event"
    },
    {
      "anonymous": false,
      "inputs": [
        {
          "indexed": false,
          "internalType": "address",
          "name": "rootManager",
          "type": "address"
        },
        {
          "indexed": false,
          "internalType": "address",
          "name": "oldRootManager",
          "type": "address"
        }
      ],
      "name": "RootManagerChanged",
      "type": "event"
    },
    {
      "anonymous": false,
      "inputs": [
        {
          "indexed": false,
          "internalType": "address",
          "name": "updated",
          "type": "address"
        },
        {
          "indexed": false,
          "internalType": "address",
          "name": "previous",
          "type": "address"
        }
      ],
      "name": "SpokeConnectorChanged",
      "type": "event"
    },
    {
      "inputs": [],
      "name": "acceptProposedOwner",
      "outputs": [],
      "stateMutability": "nonpayable",
      "type": "function"
    },
    {
      "inputs": [
        {
          "internalType": "address",
          "name": "_relayer",
          "type": "address"
        }
      ],
      "name": "addRelayer",
      "outputs": [],
      "stateMutability": "nonpayable",
      "type": "function"
    },
    {
      "inputs": [
        {
          "internalType": "address",
          "name": "",
          "type": "address"
        }
      ],
      "name": "allowedRelayer",
      "outputs": [
        {
          "internalType": "bool",
          "name": "",
          "type": "bool"
        }
      ],
      "stateMutability": "view",
      "type": "function"
    },
    {
      "inputs": [],
      "name": "autonolas",
      "outputs": [
        {
          "internalType": "address",
          "name": "",
          "type": "address"
        }
      ],
      "stateMutability": "view",
      "type": "function"
    },
    {
      "inputs": [
        {
          "internalType": "enum RelayerProxyHub.AutonolasPriorityFunction",
          "name": "",
          "type": "uint8"
        }
      ],
      "name": "autonolasPriority",
      "outputs": [
        {
          "internalType": "uint8",
          "name": "",
          "type": "uint8"
        }
      ],
      "stateMutability": "view",
      "type": "function"
    },
    {
      "inputs": [],
      "name": "connext",
      "outputs": [
        {
          "internalType": "contract IConnext",
          "name": "",
          "type": "address"
        }
      ],
      "stateMutability": "view",
      "type": "function"
    },
    {
      "inputs": [],
      "name": "delay",
      "outputs": [
        {
          "internalType": "uint256",
          "name": "",
          "type": "uint256"
        }
      ],
      "stateMutability": "view",
      "type": "function"
    },
    {
      "inputs": [],
      "name": "domain",
      "outputs": [
        {
          "internalType": "uint32",
          "name": "",
          "type": "uint32"
        }
      ],
      "stateMutability": "view",
      "type": "function"
    },
    {
      "inputs": [
        {
          "components": [
            {
              "components": [
                {
                  "internalType": "uint32",
                  "name": "originDomain",
                  "type": "uint32"
                },
                {
                  "internalType": "uint32",
                  "name": "destinationDomain",
                  "type": "uint32"
                },
                {
                  "internalType": "uint32",
                  "name": "canonicalDomain",
                  "type": "uint32"
                },
                {
                  "internalType": "address",
                  "name": "to",
                  "type": "address"
                },
                {
                  "internalType": "address",
                  "name": "delegate",
                  "type": "address"
                },
                {
                  "internalType": "bool",
                  "name": "receiveLocal",
                  "type": "bool"
                },
                {
                  "internalType": "bytes",
                  "name": "callData",
                  "type": "bytes"
                },
                {
                  "internalType": "uint256",
                  "name": "slippage",
                  "type": "uint256"
                },
                {
                  "internalType": "address",
                  "name": "originSender",
                  "type": "address"
                },
                {
                  "internalType": "uint256",
                  "name": "bridgedAmt",
                  "type": "uint256"
                },
                {
                  "internalType": "uint256",
                  "name": "normalizedIn",
                  "type": "uint256"
                },
                {
                  "internalType": "uint256",
                  "name": "nonce",
                  "type": "uint256"
                },
                {
                  "internalType": "bytes32",
                  "name": "canonicalId",
                  "type": "bytes32"
                }
              ],
              "internalType": "struct TransferInfo",
              "name": "params",
              "type": "tuple"
            },
            {
              "internalType": "address[]",
              "name": "routers",
              "type": "address[]"
            },
            {
              "internalType": "bytes[]",
              "name": "routerSignatures",
              "type": "bytes[]"
            },
            {
              "internalType": "address",
              "name": "sequencer",
              "type": "address"
            },
            {
              "internalType": "bytes",
              "name": "sequencerSignature",
              "type": "bytes"
            }
          ],
          "internalType": "struct ExecuteArgs",
          "name": "_args",
          "type": "tuple"
        },
        {
          "internalType": "uint256",
          "name": "_fee",
          "type": "uint256"
        }
      ],
      "name": "execute",
      "outputs": [
        {
          "internalType": "bytes32",
          "name": "transferId",
          "type": "bytes32"
        }
      ],
      "stateMutability": "nonpayable",
      "type": "function"
    },
    {
      "inputs": [],
      "name": "feeCollector",
      "outputs": [
        {
          "internalType": "address",
          "name": "",
          "type": "address"
        }
      ],
      "stateMutability": "view",
      "type": "function"
    },
    {
      "inputs": [
        {
          "internalType": "bytes32",
          "name": "_proposedAggregateRoot",
          "type": "bytes32"
        },
        {
          "internalType": "uint256",
          "name": "_rootTimestamp",
          "type": "uint256"
        },
        {
          "internalType": "uint256",
          "name": "_endOfDispute",
          "type": "uint256"
        }
      ],
      "name": "finalize",
      "outputs": [],
      "stateMutability": "nonpayable",
      "type": "function"
    },
    {
      "inputs": [
        {
          "internalType": "address[]",
          "name": "_connectors",
          "type": "address[]"
        },
        {
          "internalType": "uint256[]",
          "name": "_fees",
          "type": "uint256[]"
        },
        {
          "internalType": "bytes[]",
          "name": "_encodedData",
          "type": "bytes[]"
        },
        {
          "internalType": "bytes32",
          "name": "_proposedAggregateRoot",
          "type": "bytes32"
        },
        {
          "internalType": "uint256",
          "name": "_endOfDispute",
          "type": "uint256"
        }
      ],
      "name": "finalizeAndPropagate",
      "outputs": [
        {
          "internalType": "uint256",
          "name": "_fee",
          "type": "uint256"
        }
      ],
      "stateMutability": "nonpayable",
      "type": "function"
    },
    {
      "inputs": [
        {
          "internalType": "address[]",
          "name": "_connectors",
          "type": "address[]"
        },
        {
          "internalType": "uint256[]",
          "name": "_fees",
          "type": "uint256[]"
        },
        {
          "internalType": "bytes[]",
          "name": "_encodedData",
          "type": "bytes[]"
        },
        {
          "internalType": "bytes32",
          "name": "_proposedAggregateRoot",
          "type": "bytes32"
        },
        {
          "internalType": "uint256",
          "name": "_endOfDispute",
          "type": "uint256"
        }
      ],
      "name": "finalizeAndPropagateKeep3r",
      "outputs": [
        {
          "internalType": "uint256",
          "name": "_fee",
          "type": "uint256"
        }
      ],
      "stateMutability": "nonpayable",
      "type": "function"
    },
    {
      "inputs": [],
      "name": "finalizeCooldown",
      "outputs": [
        {
          "internalType": "uint256",
          "name": "",
          "type": "uint256"
        }
      ],
      "stateMutability": "view",
      "type": "function"
    },
    {
      "inputs": [
        {
          "internalType": "bytes32",
          "name": "_proposedAggregateRoot",
          "type": "bytes32"
        },
        {
          "internalType": "uint256",
          "name": "_endOfDispute",
          "type": "uint256"
        }
      ],
      "name": "finalizeOnRoot",
      "outputs": [],
      "stateMutability": "nonpayable",
      "type": "function"
    },
    {
      "inputs": [],
      "name": "gelatoRelayer",
      "outputs": [
        {
          "internalType": "address",
          "name": "",
          "type": "address"
        }
      ],
      "stateMutability": "view",
      "type": "function"
    },
    {
      "inputs": [
        {
          "internalType": "uint32",
          "name": "",
          "type": "uint32"
        }
      ],
      "name": "hubConnectors",
      "outputs": [
        {
          "internalType": "address",
          "name": "",
          "type": "address"
        }
      ],
      "stateMutability": "view",
      "type": "function"
    },
    {
      "inputs": [],
      "name": "keep3r",
      "outputs": [
        {
          "internalType": "contract IKeep3rV2",
          "name": "",
          "type": "address"
        }
      ],
      "stateMutability": "view",
      "type": "function"
    },
    {
      "inputs": [],
      "name": "lastFinalizeAt",
      "outputs": [
        {
          "internalType": "uint256",
          "name": "",
          "type": "uint256"
        }
      ],
      "stateMutability": "view",
      "type": "function"
    },
    {
      "inputs": [],
      "name": "lastPropagateAt",
      "outputs": [
        {
          "internalType": "uint256",
          "name": "",
          "type": "uint256"
        }
      ],
      "stateMutability": "view",
      "type": "function"
    },
    {
      "inputs": [],
      "name": "lastProposeAggregateRootAt",
      "outputs": [
        {
          "internalType": "uint256",
          "name": "",
          "type": "uint256"
        }
      ],
      "stateMutability": "view",
      "type": "function"
    },
    {
      "inputs": [],
      "name": "owner",
      "outputs": [
        {
          "internalType": "address",
          "name": "",
          "type": "address"
        }
      ],
      "stateMutability": "view",
      "type": "function"
    },
    {
      "inputs": [
        {
          "internalType": "bytes",
          "name": "_encodedData",
          "type": "bytes"
        },
        {
          "internalType": "uint32",
          "name": "_fromChain",
          "type": "uint32"
        },
        {
          "internalType": "bytes32",
          "name": "_l2Hash",
          "type": "bytes32"
        }
      ],
      "name": "processFromRoot",
      "outputs": [],
      "stateMutability": "nonpayable",
      "type": "function"
    },
    {
      "inputs": [
        {
          "internalType": "bytes",
          "name": "_encodedData",
          "type": "bytes"
        },
        {
          "internalType": "uint32",
          "name": "_fromChain",
          "type": "uint32"
        },
        {
          "internalType": "bytes32",
          "name": "_l2Hash",
          "type": "bytes32"
        }
      ],
      "name": "processFromRootKeep3r",
      "outputs": [],
      "stateMutability": "nonpayable",
      "type": "function"
    },
    {
      "inputs": [
        {
          "internalType": "uint32",
          "name": "",
          "type": "uint32"
        },
        {
          "internalType": "bytes32",
          "name": "",
          "type": "bytes32"
        }
      ],
      "name": "processedRootMessages",
      "outputs": [
        {
          "internalType": "bool",
          "name": "",
          "type": "bool"
        }
      ],
      "stateMutability": "view",
      "type": "function"
    },
    {
      "inputs": [
        {
          "internalType": "address[]",
          "name": "_connectors",
          "type": "address[]"
        },
        {
          "internalType": "uint256[]",
          "name": "_messageFees",
          "type": "uint256[]"
        },
        {
          "internalType": "bytes[]",
          "name": "_encodedData",
          "type": "bytes[]"
        },
        {
          "internalType": "uint256",
          "name": "_relayerFee",
          "type": "uint256"
        }
      ],
      "name": "propagate",
      "outputs": [],
      "stateMutability": "nonpayable",
      "type": "function"
    },
    {
      "inputs": [],
      "name": "propagateCooldown",
      "outputs": [
        {
          "internalType": "uint256",
          "name": "",
          "type": "uint256"
        }
      ],
      "stateMutability": "view",
      "type": "function"
    },
    {
      "inputs": [
        {
          "internalType": "address[]",
          "name": "_connectors",
          "type": "address[]"
        },
        {
          "internalType": "uint256[]",
          "name": "_messageFees",
          "type": "uint256[]"
        },
        {
          "internalType": "bytes[]",
          "name": "_encodedData",
          "type": "bytes[]"
        }
      ],
      "name": "propagateKeep3r",
      "outputs": [],
      "stateMutability": "nonpayable",
      "type": "function"
    },
    {
      "inputs": [
        {
          "internalType": "uint32[]",
          "name": "domains",
          "type": "uint32[]"
        }
      ],
      "name": "propagateWorkable",
      "outputs": [
        {
          "internalType": "bool",
          "name": "",
          "type": "bool"
        }
      ],
      "stateMutability": "nonpayable",
      "type": "function"
    },
    {
      "inputs": [
        {
          "internalType": "bytes32",
          "name": "_aggregateRoot",
          "type": "bytes32"
        },
        {
          "internalType": "uint256",
          "name": "_rootTimestamp",
          "type": "uint256"
        },
        {
          "internalType": "bytes",
          "name": "_signature",
          "type": "bytes"
        },
        {
          "internalType": "uint256",
          "name": "_fee",
          "type": "uint256"
        }
      ],
      "name": "proposeAggregateRoot",
      "outputs": [],
      "stateMutability": "nonpayable",
      "type": "function"
    },
    {
      "inputs": [],
      "name": "proposeAggregateRootCooldown",
      "outputs": [
        {
          "internalType": "uint256",
          "name": "",
          "type": "uint256"
        }
      ],
      "stateMutability": "view",
      "type": "function"
    },
    {
      "inputs": [
        {
          "internalType": "uint256",
          "name": "_snapshotId",
          "type": "uint256"
        },
        {
          "internalType": "bytes32",
          "name": "_aggregateRoot",
          "type": "bytes32"
        },
        {
          "internalType": "bytes32[]",
          "name": "_snapshotsRoots",
          "type": "bytes32[]"
        },
        {
          "internalType": "uint32[]",
          "name": "_domains",
          "type": "uint32[]"
        },
        {
          "internalType": "bytes",
          "name": "_signature",
          "type": "bytes"
        }
      ],
      "name": "proposeAggregateRootOnRoot",
      "outputs": [],
      "stateMutability": "nonpayable",
      "type": "function"
    },
    {
      "inputs": [
        {
          "internalType": "uint256",
          "name": "_snapshotId",
          "type": "uint256"
        },
        {
          "internalType": "bytes32",
          "name": "_aggregateRoot",
          "type": "bytes32"
        },
        {
          "internalType": "bytes32[]",
          "name": "_snapshotsRoots",
          "type": "bytes32[]"
        },
        {
          "internalType": "uint32[]",
          "name": "_domains",
          "type": "uint32[]"
        },
        {
          "internalType": "bytes",
          "name": "_signature",
          "type": "bytes"
        }
      ],
      "name": "proposeAggregateRootOnRootKeep3r",
      "outputs": [],
      "stateMutability": "nonpayable",
      "type": "function"
    },
    {
      "inputs": [
        {
          "internalType": "address",
          "name": "newlyProposed",
          "type": "address"
        }
      ],
      "name": "proposeNewOwner",
      "outputs": [],
      "stateMutability": "nonpayable",
      "type": "function"
    },
    {
      "inputs": [],
      "name": "proposed",
      "outputs": [
        {
          "internalType": "address",
          "name": "",
          "type": "address"
        }
      ],
      "stateMutability": "view",
      "type": "function"
    },
    {
      "inputs": [],
      "name": "proposedTimestamp",
      "outputs": [
        {
          "internalType": "uint256",
          "name": "",
          "type": "uint256"
        }
      ],
      "stateMutability": "view",
      "type": "function"
    },
    {
      "inputs": [
        {
          "components": [
            {
              "internalType": "bytes",
              "name": "message",
              "type": "bytes"
            },
            {
              "internalType": "bytes32[32]",
              "name": "path",
              "type": "bytes32[32]"
            },
            {
              "internalType": "uint256",
              "name": "index",
              "type": "uint256"
            }
          ],
          "internalType": "struct ISpokeConnector.Proof[]",
          "name": "_proofs",
          "type": "tuple[]"
        },
        {
          "internalType": "bytes32",
          "name": "_aggregateRoot",
          "type": "bytes32"
        },
        {
          "internalType": "bytes32[32]",
          "name": "_aggregatePath",
          "type": "bytes32[32]"
        },
        {
          "internalType": "uint256",
          "name": "_aggregateIndex",
          "type": "uint256"
        },
        {
          "internalType": "uint256",
          "name": "_fee",
          "type": "uint256"
        }
      ],
      "name": "proveAndProcess",
      "outputs": [],
      "stateMutability": "nonpayable",
      "type": "function"
    },
    {
      "inputs": [
        {
          "internalType": "address",
          "name": "_relayer",
          "type": "address"
        }
      ],
      "name": "removeRelayer",
      "outputs": [],
      "stateMutability": "nonpayable",
      "type": "function"
    },
    {
      "inputs": [],
      "name": "renounceOwnership",
      "outputs": [],
      "stateMutability": "nonpayable",
      "type": "function"
    },
    {
      "inputs": [],
      "name": "renounced",
      "outputs": [
        {
          "internalType": "bool",
          "name": "",
          "type": "bool"
        }
      ],
      "stateMutability": "view",
      "type": "function"
    },
    {
      "inputs": [],
      "name": "rootManager",
      "outputs": [
        {
          "internalType": "contract IRootManager",
          "name": "",
          "type": "address"
        }
      ],
      "stateMutability": "view",
      "type": "function"
    },
    {
      "inputs": [
        {
          "internalType": "bytes",
          "name": "_encodedData",
          "type": "bytes"
        },
        {
          "internalType": "uint256",
          "name": "_messageFee",
          "type": "uint256"
        },
        {
          "internalType": "uint256",
          "name": "_relayerFee",
          "type": "uint256"
        }
      ],
      "name": "send",
      "outputs": [],
      "stateMutability": "nonpayable",
      "type": "function"
    },
    {
      "inputs": [],
      "name": "sendRootToHubSpoke",
      "outputs": [],
      "stateMutability": "nonpayable",
      "type": "function"
    },
    {
      "inputs": [
        {
          "internalType": "address",
          "name": "_autonolas",
          "type": "address"
        }
      ],
      "name": "setAutonolas",
      "outputs": [],
      "stateMutability": "nonpayable",
      "type": "function"
    },
    {
      "inputs": [
        {
          "internalType": "enum RelayerProxyHub.AutonolasPriorityFunction",
          "name": "_function",
          "type": "uint8"
        },
        {
          "internalType": "uint8",
          "name": "_autonolasPriority",
          "type": "uint8"
        }
      ],
      "name": "setAutonolasPriority",
      "outputs": [],
      "stateMutability": "nonpayable",
      "type": "function"
    },
    {
      "inputs": [
        {
          "internalType": "address",
          "name": "_connext",
          "type": "address"
        }
      ],
      "name": "setConnext",
      "outputs": [],
      "stateMutability": "nonpayable",
      "type": "function"
    },
    {
      "inputs": [
        {
          "internalType": "address",
          "name": "_feeCollector",
          "type": "address"
        }
      ],
      "name": "setFeeCollector",
      "outputs": [],
      "stateMutability": "nonpayable",
      "type": "function"
    },
    {
      "inputs": [
        {
          "internalType": "uint256",
          "name": "_finalizeCooldown",
          "type": "uint256"
        }
      ],
      "name": "setFinalizeCooldown",
      "outputs": [],
      "stateMutability": "nonpayable",
      "type": "function"
    },
    {
      "inputs": [
        {
          "internalType": "address",
          "name": "_gelatoRelayer",
          "type": "address"
        }
      ],
      "name": "setGelatoRelayer",
      "outputs": [],
      "stateMutability": "nonpayable",
      "type": "function"
    },
    {
      "inputs": [
        {
          "internalType": "address",
          "name": "_hubConnector",
          "type": "address"
        },
        {
          "internalType": "uint32",
          "name": "_chain",
          "type": "uint32"
        }
      ],
      "name": "setHubConnector",
      "outputs": [],
      "stateMutability": "nonpayable",
      "type": "function"
    },
    {
      "inputs": [
        {
          "internalType": "address",
          "name": "_keep3r",
          "type": "address"
        }
      ],
      "name": "setKeep3r",
      "outputs": [],
      "stateMutability": "nonpayable",
      "type": "function"
    },
    {
      "inputs": [
        {
          "internalType": "uint256",
          "name": "_propagateCooldown",
          "type": "uint256"
        }
      ],
      "name": "setPropagateCooldown",
      "outputs": [],
      "stateMutability": "nonpayable",
      "type": "function"
    },
    {
      "inputs": [
        {
          "internalType": "uint256",
          "name": "_proposeCooldown",
          "type": "uint256"
        }
      ],
      "name": "setProposeAggregateRootCooldown",
      "outputs": [],
      "stateMutability": "nonpayable",
      "type": "function"
    },
    {
      "inputs": [
        {
          "internalType": "address",
          "name": "_rootManager",
          "type": "address"
        }
      ],
      "name": "setRootManager",
      "outputs": [],
      "stateMutability": "nonpayable",
      "type": "function"
    },
    {
      "inputs": [
        {
          "internalType": "address",
          "name": "_spokeConnector",
          "type": "address"
        }
      ],
      "name": "setSpokeConnector",
      "outputs": [],
      "stateMutability": "nonpayable",
      "type": "function"
    },
    {
      "inputs": [],
      "name": "spokeConnector",
      "outputs": [
        {
          "internalType": "contract ISpokeConnector",
          "name": "",
          "type": "address"
        }
      ],
      "stateMutability": "view",
      "type": "function"
    },
    {
      "inputs": [
        {
          "internalType": "address",
          "name": "_token",
          "type": "address"
        }
      ],
      "name": "withdraw",
      "outputs": [],
      "stateMutability": "nonpayable",
      "type": "function"
    },
    {
      "stateMutability": "payable",
      "type": "receive"
    }
  ],
  "transactionHash": "0x39d069eaffae36c10df1e77943b8cd89499485cbef517a7db260d473b4e6560d",
  "args": [
    {
      "connext": "0x5e1ba88978B1f9b61448C5e6881e21A7d771D139",
      "spokeConnector": "0x1dB5Ee7B6235e6C31EFb4b3eE45190Ca14E1a214",
      "gelatoRelayer": "0x0000000000000000000000000000000000000000",
      "feeCollector": "0x0000000000000000000000000000000000000000",
      "keep3r": "0xeb02addCfD8B773A5FFA6B9d1FE99c566f8c44CC",
      "rootManager": "0x0031d290B8526e2Eb6ac22111E5fF96EcA760258",
      "autonolas": "0x0000000000000000000000000000000000000000",
      "propagateCooldown": 1800,
      "finalizeCooldown": 1800,
      "proposeAggregateRootCooldown": 1800,
      "hubConnectors": [
        "0x1dB5Ee7B6235e6C31EFb4b3eE45190Ca14E1a214",
        "0x4d9F990E96d7B9180c7cAFe003456AdD60aA9860",
        "0x1b891D279a763426394c9E2100205005C0DCAf43",
        "0xa98f36ca759271928d18AE9b8BC6e214C279fDeD",
        "0x62C3f15Eee9A932B90c64B07c02EE9962b8DbB5A",
        "0x4d9F990E96d7B9180c7cAFe003456AdD60aA9860",
        "0x18a7a4e4C70fcec6Eb4844eb84bc98523F58b898",
        "0x5FA89ea322708b30882D3aa3a9fC3DA4775274c0",
        "0xD2a6cDd411d8d7357a0E87b8fDBa6ae53B4A231d",
        "0x5b447756e2E55CEB8d0e46217ea666CF3e037cdd",
        "0xAf00e0b7B5cE2D3a0B5d02DEc936254550228b61",
        "0x842aD61A06f8f6bC125E8059bcD4D6D3440ECA34",
        "0x7D8d16c500b89E4A1fdE991F284d84d57E949aE3",
        "0xd5aE7b90Dba594899977072e363bBf164E7B1D15",
        "0x89285703326a9b3192841f67121DD714E4968689",
        "0x3B1edF344F03489b86DE923f288514De80aa929A"
      ],
      "hubConnectorChains": [
        1,
        10,
        56,
        100,
        137,
        252,
        324,
        1088,
        1101,
        5000,
        8453,
        34443,
        42161,
        43114,
        59144,
        534352
      ]
    }
  ],
  "numDeployments": 2,
  "solcInputHash": "dd554adc81396e5175040a2eb9916e3d",
  "bytecode": "0x60806040523480156200001157600080fd5b50604051620059cb380380620059cb833981016040819052620000349162000987565b6040518060e0016040528082600001516001600160a01b0316815260200182602001516001600160a01b0316815260200182604001516001600160a01b0316815260200182606001516001600160a01b0316815260200182608001516001600160a01b0316815260200182610120015181526020018261010001518152506001600381905550620000cb336200029b60201b60201c565b8051620000d89062000300565b6020810151620000e89062000369565b6040810151620000f890620003d2565b606081015162000108906200043b565b60808101516200011890620004a4565b60a081015162000128906200050d565b60c081015162000138906200054f565b6040810151620001489062000591565b80602001516001600160a01b03166352a9674b6040518163ffffffff1660e01b8152600401602060405180830381865afa1580156200018b573d6000803e3d6000fd5b505050506040513d601f19601f82011682018060405250810190620001b1919062000ace565b6008805463ffffffff92909216600160a01b0263ffffffff60a01b199092169190911790555060a0810151620001e79062000626565b60e0810151620001f7906200068f565b61012081015162000208906200050d565b60c08101516200021890620006d1565b60005b8161014001515181101562000293576200027e826101400151828151811062000248576200024862000af3565b602002602001015183610160015183815181106200026a576200026a62000af3565b60200260200101516200073a60201b60201c565b806200028a8162000b09565b9150506200021b565b505062000b31565b600080546040516001600160a01b03808516939216917f8be0079c531659141344cd1fd0a4f28419497f9722a3daafe3b4186f6b6457e091a3600080546001600160a01b039092166001600160a01b0319928316178155600255600180549091169055565b600754604080516001600160a01b03808516825290921660208301527f87539ad41983c0ecff8f321db8edf4dd9e830593562770bdacdda085b83e3bb2910160405180910390a1600780546001600160a01b0319166001600160a01b0392909216919091179055565b600854604080516001600160a01b03808516825290921660208301527f66948d99d8431a8416af2202bc301823b7cdd87beb9bddaa274aedac0611a5fd910160405180910390a1600880546001600160a01b0319166001600160a01b0392909216919091179055565b600454604080516001600160a01b03808516825290921660208301527f5db4a067a1f787c3269642464a2a1560868b50b0873e7dec83939ae2359f6128910160405180910390a1600480546001600160a01b0319166001600160a01b0392909216919091179055565b600554604080516001600160a01b03808516825290921660208301527f649c5e3d0ed183894196148e193af316452b0037e77d2ff0fef23b7dc722bed0910160405180910390a1600580546001600160a01b0319166001600160a01b0392909216919091179055565b600654604080516001600160a01b03808516825290921660208301527f711d2a81db157c0acede64f080708460163dfaddcd4266c2c609efb458d3e4c0910160405180910390a1600680546001600160a01b0319166001600160a01b0392909216919091179055565b6009546040805183815260208101929092527f289d6927dc5ba66abb928c5be9d3aecd2baf7c8e89f1faec6a791b8b21589a5d910160405180910390a1600955565b600b546040805183815260208101929092527f2a1ca87adff1a64c5b6edc218dfd6b80208260b240fbc939ea43e07c2764f5ca910160405180910390a1600b55565b6001600160a01b0381166000908152600d602052604090205460ff1615620005cc57604051639e9dd41d60e01b815260040160405180910390fd5b6001600160a01b0381166000818152600d6020908152604091829020805460ff1916600117905590519182527f03580ee9f53a62b7cb409a2cb56f9be87747dd15017afc5cef6eef321e4fb2c5910160405180910390a150565b600e54604080516001600160a01b03808516825290921660208301527f3124eaf4f16c6ddd81951200c6d8f65d5800753bef06584bd672c8b22c76b487910160405180910390a1600e80546001600160a01b0319166001600160a01b0392909216919091179055565b600f546040805183815260208101929092527f5d93bbdda0d794fed18c39a7b776dc86cbf6ed443032e6baac71373996b85010910160405180910390a1600f55565b601154604080516001600160a01b03808516825290921660208301527f17da78d98886c3b8819430ab0693a44c32dfa6426a4db4601ce45bc4bc2385ec910160405180910390a1601180546001600160a01b0319166001600160a01b0392909216919091179055565b63ffffffff81166000818152601460209081526040918290205482516001600160a01b0387811682529091169181019190915280820192909252517ff3f83f3e1df056d9be522e74b3fe84add98c686289a646ae55708277434240929181900360600190a163ffffffff16600090815260146020526040902080546001600160a01b0319166001600160a01b0392909216919091179055565b634e487b7160e01b600052604160045260246000fd5b60405161018081016001600160401b03811182821017156200080f576200080f620007d3565b60405290565b604051601f8201601f191681016001600160401b0381118282101715620008405762000840620007d3565b604052919050565b80516001600160a01b03811681146200086057600080fd5b919050565b60006001600160401b03821115620008815762000881620007d3565b5060051b60200190565b600082601f8301126200089d57600080fd5b81516020620008b6620008b08362000865565b62000815565b82815260059290921b84018101918181019086841115620008d657600080fd5b8286015b84811015620008fc57620008ee8162000848565b8352918301918301620008da565b509695505050505050565b805163ffffffff811681146200086057600080fd5b600082601f8301126200092e57600080fd5b8151602062000941620008b08362000865565b82815260059290921b840181019181810190868411156200096157600080fd5b8286015b84811015620008fc57620009798162000907565b835291830191830162000965565b6000602082840312156200099a57600080fd5b81516001600160401b0380821115620009b257600080fd5b908301906101808286031215620009c857600080fd5b620009d2620007e9565b620009dd8362000848565b8152620009ed6020840162000848565b602082015262000a006040840162000848565b604082015262000a136060840162000848565b606082015262000a266080840162000848565b608082015262000a3960a0840162000848565b60a082015262000a4c60c0840162000848565b60c082015260e0838101519082015261010080840151908201526101208084015190820152610140808401518381111562000a8657600080fd5b62000a94888287016200088b565b828401525050610160808401518381111562000aaf57600080fd5b62000abd888287016200091c565b918301919091525095945050505050565b60006020828403121562000ae157600080fd5b62000aec8262000907565b9392505050565b634e487b7160e01b600052603260045260246000fd5b60006001820162000b2a57634e487b7160e01b600052601160045260246000fd5b5060010190565b614e8a8062000b416000396000f3fe6080604052600436106103795760003560e01c80639c166c0b116101d1578063cf842be111610102578063dbd8848d116100a0578063e7dc20981161006f578063e7dc209814610aa9578063f0a67eba14610abf578063f3f91e8e14610adf578063fff01c4514610aff57600080fd5b8063dbd8848d14610a29578063dd39f00d14610a49578063de4b054814610a69578063e79457f114610a8957600080fd5b8063d6412ecb116100dc578063d6412ecb146109b3578063d9ef0bee146109c9578063db205635146109e9578063db40452214610a0957600080fd5b8063cf842be114610956578063d1851c9214610976578063d232c2201461099457600080fd5b8063b619d99f1161016f578063c415b95c11610149578063c415b95c146108e1578063c5b350df14610901578063caabc4c214610916578063ce9cec901461093657600080fd5b8063b619d99f14610868578063bfb4c78314610888578063c2fb26a6146108a857600080fd5b8063a42dce80116101ab578063a42dce80146107e8578063a91b8fb814610808578063b1f8100d14610828578063b4cef5461461084857600080fd5b80639c166c0b146107885780639cadce00146107a85780639f645a03146107c857600080fd5b8063622520bb116102ab57806389099717116102495780638e02f759116102235780638e02f759146107125780638efed12714610732578063931c0e78146107525780639a2652db1461076857600080fd5b806389099717146106b45780638c976851146106d45780638da5cb5b146106f457600080fd5b80636eba787f116102855780636eba787f14610649578063715018a614610669578063716907a71461067e57806382443e041461069457600080fd5b8063622520bb146105c5578063634c7bb5146106135780636a42b8f81461063357600080fd5b8063492a96f41161031857806351cff8d9116102f257806351cff8d91461054f578063529100391461056f5780635e21966a1461058557806360f0a5ac146105a557600080fd5b8063492a96f4146104ef5780634cc18e571461050f5780634d6f20131461052f57600080fd5b8063214444331161035457806321444433146104665780632d484bcc1461048a5780632f55b98d146104aa5780633cf52ffb146104da57600080fd5b806254a4fb146103bd57806315fa23bc146104045780631acde6281461041b57600080fd5b366103b857604080513481524760208201527f063d07ee72a7483b8e07ca09054bb686775c5c030f945dde3823a5257a0a93eb910160405180910390a1005b600080fd5b3480156103c957600080fd5b506103ed6103d8366004613748565b60126020526000908152604090205460ff1681565b60405160ff90911681526020015b60405180910390f35b34801561041057600080fd5b50610419610b1f565b005b34801561042757600080fd5b5061045661043636600461377e565b601360209081526000928352604080842090915290825290205460ff1681565b60405190151581526020016103fb565b34801561047257600080fd5b5061047c60105481565b6040519081526020016103fb565b34801561049657600080fd5b506104196104a53660046137a8565b610b89565b3480156104b657600080fd5b506104566104c53660046137d8565b600d6020526000908152604090205460ff1681565b3480156104e657600080fd5b5060025461047c565b3480156104fb57600080fd5b5061047c61050a366004613a2c565b610bc0565b34801561051b57600080fd5b5061041961052a3660046137d8565b610c52565b34801561053b57600080fd5b5061041961054a3660046137d8565b610cb2565b34801561055b57600080fd5b5061041961056a3660046137d8565b610d0e565b34801561057b57600080fd5b5061047c60095481565b34801561059157600080fd5b506104196105a03660046137d8565b610e87565b3480156105b157600080fd5b506104196105c03660046137d8565b610ee3565b3480156105d157600080fd5b506105fb6105e0366004613ad2565b6014602052600090815260409020546001600160a01b031681565b6040516001600160a01b0390911681526020016103fb565b34801561061f57600080fd5b506006546105fb906001600160a01b031681565b34801561063f57600080fd5b5062093a8061047c565b34801561065557600080fd5b506004546105fb906001600160a01b031681565b34801561067557600080fd5b50610419610f3f565b34801561068a57600080fd5b5061047c600b5481565b3480156106a057600080fd5b506104196106af366004613aed565b610ff3565b3480156106c057600080fd5b506104196106cf3660046137d8565b611028565b3480156106e057600080fd5b506104196106ef366004613b2a565b611084565b34801561070057600080fd5b506000546001600160a01b03166105fb565b34801561071e57600080fd5b5061041961072d366004613bbd565b6112a3565b34801561073e57600080fd5b5061047c61074d366004613be9565b61135a565b34801561075e57600080fd5b5061047c600c5481565b34801561077457600080fd5b50610419610783366004613c24565b611420565b34801561079457600080fd5b506011546105fb906001600160a01b031681565b3480156107b457600080fd5b506008546105fb906001600160a01b031681565b3480156107d457600080fd5b506104196107e33660046137d8565b6114e3565b3480156107f457600080fd5b506104196108033660046137d8565b61153f565b34801561081457600080fd5b50610419610823366004613cbf565b61159b565b34801561083457600080fd5b506104196108433660046137d8565b6115fd565b34801561085457600080fd5b506104196108633660046137a8565b61169b565b34801561087457600080fd5b50610419610883366004613cf2565b6116cf565b34801561089457600080fd5b506104196108a3366004613d98565b61194a565b3480156108b457600080fd5b506008546108cc90600160a01b900463ffffffff1681565b60405163ffffffff90911681526020016103fb565b3480156108ed57600080fd5b506005546105fb906001600160a01b031681565b34801561090d57600080fd5b50610419611998565b34801561092257600080fd5b50610419610931366004613e20565b611a08565b34801561094257600080fd5b50610456610951366004613e77565b611b00565b34801561096257600080fd5b50610419610971366004613f0e565b611c59565b34801561098257600080fd5b506001546001600160a01b03166105fb565b3480156109a057600080fd5b506000546001600160a01b031615610456565b3480156109bf57600080fd5b5061047c600a5481565b3480156109d557600080fd5b506104196109e4366004613f30565b611d08565b3480156109f557600080fd5b50600e546105fb906001600160a01b031681565b348015610a1557600080fd5b50610419610a243660046137a8565b611de1565b348015610a3557600080fd5b50610419610a44366004613d98565b611e15565b348015610a5557600080fd5b50610419610a643660046137d8565b611feb565b348015610a7557600080fd5b506007546105fb906001600160a01b031681565b348015610a9557600080fd5b50610419610aa4366004613f7d565b612047565b348015610ab557600080fd5b5061047c600f5481565b348015610acb57600080fd5b50610419610ada3660046137d8565b612104565b348015610aeb57600080fd5b50610419610afa366004613cf2565b612160565b348015610b0b57600080fd5b5061047c610b1a366004613a2c565b612259565b600e60009054906101000a90046001600160a01b03166001600160a01b03166315fa23bc6040518163ffffffff1660e01b8152600401600060405180830381600087803b158015610b6f57600080fd5b505af1158015610b83573d6000803e3d6000fd5b50505050565b6000546001600160a01b03163314610bb4576040516311a8a1bb60e31b815260040160405180910390fd5b610bbd81612481565b50565b336000908152600d602052604081205460ff16610bf057604051633cb4b93960e01b815260040160405180910390fd5b600f54601054610c00919061400a565b421015610c2057604051630962070b60e21b815260040160405180910390fd5b610c286124c3565b610c3788888888888888612521565b9050610c436001600355565b42601055979650505050505050565b6000546001600160a01b03163314610c7d576040516311a8a1bb60e31b815260040160405180910390fd5b806001600160a01b038116610ca55760405163b04f8dcf60e01b815260040160405180910390fd5b610cae826125e8565b5050565b6000546001600160a01b03163314610cdd576040516311a8a1bb60e31b815260040160405180910390fd5b806001600160a01b038116610d055760405163b04f8dcf60e01b815260040160405180910390fd5b610cae82612651565b6000546001600160a01b03163314610d39576040516311a8a1bb60e31b815260040160405180910390fd5b610d416124c3565b60006001600160a01b03821615610dbf576040516370a0823160e01b81523060048201526001600160a01b038316906370a0823190602401602060405180830381865afa158015610d96573d6000803e3d6000fd5b505050506040513d601f19601f82011682018060405250810190610dba919061401d565b610dc1565b475b90506001600160a01b038216610de057610ddb33826126ba565b610e53565b60405163a9059cbb60e01b8152336004820152602481018290526001600160a01b0383169063a9059cbb906044016020604051808303816000875af1158015610e2d573d6000803e3d6000fd5b505050506040513d601f19601f82011682018060405250810190610e519190614044565b505b600080516020614e35833981519152828283604051610e7493929190614061565b60405180910390a150610bbd6001600355565b6000546001600160a01b03163314610eb2576040516311a8a1bb60e31b815260040160405180910390fd5b806001600160a01b038116610eda5760405163b04f8dcf60e01b815260040160405180910390fd5b610cae826127d3565b6000546001600160a01b03163314610f0e576040516311a8a1bb60e31b815260040160405180910390fd5b806001600160a01b038116610f365760405163b04f8dcf60e01b815260040160405180910390fd5b610cae8261283c565b6000546001600160a01b03163314610f6a576040516311a8a1bb60e31b815260040160405180910390fd5b62093a8060025442610f7c9190614082565b11610f9a576040516324e0285f60e21b815260040160405180910390fd5b600254600003610fbd57604051630e4b303f60e21b815260040160405180910390fd5b6001546001600160a01b031615610fe7576040516323295ef960e01b815260040160405180910390fd5b610ff160006128cd565b565b6000546001600160a01b0316331461101e576040516311a8a1bb60e31b815260040160405180910390fd5b610cae8282612932565b6000546001600160a01b03163314611053576040516311a8a1bb60e31b815260040160405180910390fd5b806001600160a01b03811661107b5760405163b04f8dcf60e01b815260040160405180910390fd5b610cae826129fa565b60115460009033906001600160a01b031681148015906110dd5750601260008360038111156110b5576110b5614095565b60038111156110c6576110c6614095565b815260208101919091526040016000205460ff1615155b801561113c57506001601260008460038111156110fc576110fc614095565b600381111561110d5761110d614095565b815260208101919091526040016000205461112b919060ff166140ab565b60ff16611139600a436140c4565b11155b1561115a5760405163114c214760e01b815260040160405180910390fd5b6006546040516335d2155560e11b81523360048201819052916001600160a01b031690636ba42aaa906024016020604051808303816000875af11580156111a5573d6000803e3d6000fd5b505050506040513d601f19601f820116820180604052508101906111c99190614044565b6111e6576040516334985ed360e01b815260040160405180910390fd5b600f546010546111f6919061400a565b42101561121657604051630962070b60e21b815260040160405180910390fd5b61121e6124c3565b61122b8888888888612a63565b506112366001600355565b426010556006546040516317fbade560e21b81526001600160a01b03838116600483015290911690635feeb79490602401600060405180830381600087803b15801561128157600080fd5b505af1158015611295573d6000803e3d6000fd5b505050505050505050505050565b600b54600c546112b3919061400a565b4210156112d357604051630c0e333560e11b815260040160405180910390fd5b6112db6124c3565b600854604051638e02f75960e01b81526004810185905260248101849052604481018390526001600160a01b0390911690638e02f75990606401600060405180830381600087803b15801561132f57600080fd5b505af1158015611343573d6000803e3d6000fd5b505050506113516001600355565b505042600c5550565b336000908152600d602052604081205460ff1661138a57604051633cb4b93960e01b815260040160405180910390fd5b6113926124c3565b6007546040516331f1f3e960e11b81526001600160a01b03909116906363e3e7d2906113c290869060040161424b565b6020604051808303816000875af11580156113e1573d6000803e3d6000fd5b505050506040513d601f19601f82011682018060405250810190611405919061401d565b905061141082612b24565b61141a6001600355565b92915050565b336000908152600d602052604090205460ff1661145057604051633cb4b93960e01b815260040160405180910390fd5b600f54601054611460919061400a565b42101561148057604051630962070b60e21b815260040160405180910390fd5b6114886124c3565b60006114978787878787612a63565b9050600080516020614e35833981519152600082476040516114bb93929190614061565b60405180910390a16114cc82612b24565b506114d76001600355565b50504260105550505050565b6000546001600160a01b0316331461150e576040516311a8a1bb60e31b815260040160405180910390fd5b806001600160a01b0381166115365760405163b04f8dcf60e01b815260040160405180910390fd5b610cae82612b88565b6000546001600160a01b0316331461156a576040516311a8a1bb60e31b815260040160405180910390fd5b806001600160a01b0381166115925760405163b04f8dcf60e01b815260040160405180910390fd5b610cae82612bf1565b6000546001600160a01b031633146115c6576040516311a8a1bb60e31b815260040160405180910390fd5b816001600160a01b0381166115ee5760405163b04f8dcf60e01b815260040160405180910390fd5b6115f88383612c5a565b505050565b6000546001600160a01b03163314611628576040516311a8a1bb60e31b815260040160405180910390fd5b6001546001600160a01b038281169116148015611646575060025415155b15611664576040516311bc066560e11b815260040160405180910390fd5b6000546001600160a01b0380831691160361169257604051634a2fb73f60e11b815260040160405180910390fd5b610bbd81612cf3565b6000546001600160a01b031633146116c6576040516311a8a1bb60e31b815260040160405180910390fd5b610bbd81612d41565b60115460029033906001600160a01b0316811480159061172857506012600083600381111561170057611700614095565b600381111561171157611711614095565b815260208101919091526040016000205460ff1615155b8015611787575060016012600084600381111561174757611747614095565b600381111561175857611758614095565b8152602081019190915260400160002054611776919060ff166140ab565b60ff16611784600a436140c4565b11155b156117a55760405163114c214760e01b815260040160405180910390fd5b6006546040516335d2155560e11b81523360048201819052916001600160a01b031690636ba42aaa906024016020604051808303816000875af11580156117f0573d6000803e3d6000fd5b505050506040513d601f19601f820116820180604052508101906118149190614044565b611831576040516334985ed360e01b815260040160405180910390fd5b600954600a54611841919061400a565b4210156118615760405163923904d960e01b815260040160405180910390fd5b61186f8a8a600a5487612d83565b600e54604051630892003960e01b81526001600160a01b03909116906308920039906118a9908d908d908d908d908d908d90600401614470565b600060405180830381600087803b1580156118c357600080fd5b505af11580156118d7573d6000803e3d6000fd5b505042600a5550506006546040516317fbade560e21b81526001600160a01b03838116600483015290911690635feeb79490602401600060405180830381600087803b15801561192657600080fd5b505af115801561193a573d6000803e3d6000fd5b5050505050505050505050505050565b336000908152600d602052604090205460ff1661197a57604051633cb4b93960e01b815260040160405180910390fd5b6119826124c3565b61198e84848484612e83565b610b836001600355565b6001546001600160a01b031633146119c3576040516311a7f27160e11b815260040160405180910390fd5b62093a80600254426119d59190614082565b116119f3576040516324e0285f60e21b815260040160405180910390fd5b600154610ff1906001600160a01b03166128cd565b336000908152600d602052604090205460ff16611a3857604051633cb4b93960e01b815260040160405180910390fd5b600954600a54611a48919061400a565b421015611a685760405163923904d960e01b815260040160405180910390fd5b611a706124c3565b611a7e8484600a5485613237565b60085460405163111c183760e01b815260048101869052602481018590526001600160a01b039091169063111c183790604401600060405180830381600087803b158015611acb57600080fd5b505af1158015611adf573d6000803e3d6000fd5b50505050611aec81612b24565b611af66001600355565b505042600a555050565b600e546040805163957908d160e01b8152815160009384936001600160a01b039091169263957908d19260048083019392829003018187875af1158015611b4b573d6000803e3d6000fd5b505050506040513d601f19601f82011682018060405250810190611b6f91906144db565b5090506000805b8451811015611c3457600e54855184916001600160a01b03169063f715589a90889085908110611ba857611ba86144ff565b60200260200101516040518263ffffffff1660e01b8152600401611bd8919063ffffffff91909116815260200190565b602060405180830381865afa158015611bf5573d6000803e3d6000fd5b505050506040513d601f19601f82011682018060405250810190611c19919061401d565b1415915081611c345780611c2c81614515565b915050611b76565b50808015611c515750600f54601054611c4d919061400a565b4210155b949350505050565b600b54600c54611c69919061400a565b421015611c8957604051630c0e333560e11b815260040160405180910390fd5b611c916124c3565b600e5460405163e9812d7160e01b815260048101849052602481018390526001600160a01b039091169063e9812d7190604401600060405180830381600087803b158015611cde57600080fd5b505af1158015611cf2573d6000803e3d6000fd5b50505050611d006001600355565b505042600c55565b336000908152600d602052604090205460ff16611d3857604051633cb4b93960e01b815260040160405180910390fd5b611d406124c3565b600854604051630aec6b9f60e21b81526001600160a01b0390911690632bb1ae7c908490611d72908790600401614574565b6000604051808303818588803b158015611d8b57600080fd5b505af1158015611d9f573d6000803e3d6000fd5b5050505050600080516020614e3583398151915260008347604051611dc693929190614061565b60405180910390a1611dd781612b24565b6115f86001600355565b6000546001600160a01b03163314611e0c576040516311a8a1bb60e31b815260040160405180910390fd5b610bbd81613331565b60115460019033906001600160a01b03168114801590611e6e575060126000836003811115611e4657611e46614095565b6003811115611e5757611e57614095565b815260208101919091526040016000205460ff1615155b8015611ecd5750600160126000846003811115611e8d57611e8d614095565b6003811115611e9e57611e9e614095565b8152602081019190915260400160002054611ebc919060ff166140ab565b60ff16611eca600a436140c4565b11155b15611eeb5760405163114c214760e01b815260040160405180910390fd5b6006546040516335d2155560e11b81523360048201819052916001600160a01b031690636ba42aaa906024016020604051808303816000875af1158015611f36573d6000803e3d6000fd5b505050506040513d601f19601f82011682018060405250810190611f5a9190614044565b611f77576040516334985ed360e01b815260040160405180910390fd5b611f8387878787612e83565b6006546040516317fbade560e21b81526001600160a01b03838116600483015290911690635feeb79490602401600060405180830381600087803b158015611fca57600080fd5b505af1158015611fde573d6000803e3d6000fd5b5050505050505050505050565b6000546001600160a01b03163314612016576040516311a8a1bb60e31b815260040160405180910390fd5b806001600160a01b03811661203e5760405163b04f8dcf60e01b815260040160405180910390fd5b610cae82613373565b336000908152600d602052604090205460ff1661207757604051633cb4b93960e01b815260040160405180910390fd5b61207f6124c3565b60085460405163508a109b60e01b81526001600160a01b039091169063508a109b906120b79089908990899089908990600401614591565b600060405180830381600087803b1580156120d157600080fd5b505af11580156120e5573d6000803e3d6000fd5b505050506120f281612b24565b6120fc6001600355565b505050505050565b6000546001600160a01b0316331461212f576040516311a8a1bb60e31b815260040160405180910390fd5b806001600160a01b0381166121575760405163b04f8dcf60e01b815260040160405180910390fd5b610cae82613401565b336000908152600d602052604090205460ff1661219057604051633cb4b93960e01b815260040160405180910390fd5b600954600a546121a0919061400a565b4210156121c05760405163923904d960e01b815260040160405180910390fd5b6121c86124c3565b6121d68787600a5484612d83565b600e54604051630892003960e01b81526001600160a01b0390911690630892003990612210908a908a908a908a908a908a90600401614470565b600060405180830381600087803b15801561222a57600080fd5b505af115801561223e573d6000803e3d6000fd5b5050505061224c6001600355565b505042600a555050505050565b601154600090819033906001600160a01b031681148015906122b457506012600083600381111561228c5761228c614095565b600381111561229d5761229d614095565b815260208101919091526040016000205460ff1615155b801561231357506001601260008460038111156122d3576122d3614095565b60038111156122e4576122e4614095565b8152602081019190915260400160002054612302919060ff166140ab565b60ff16612310600a436140c4565b11155b156123315760405163114c214760e01b815260040160405180910390fd5b6006546040516335d2155560e11b81523360048201819052916001600160a01b031690636ba42aaa906024016020604051808303816000875af115801561237c573d6000803e3d6000fd5b505050506040513d601f19601f820116820180604052508101906123a09190614044565b6123bd576040516334985ed360e01b815260040160405180910390fd5b600f546010546123cd919061400a565b4210156123ed57604051630962070b60e21b815260040160405180910390fd5b6123f56124c3565b6124048b8b8b8b8b8b8b612521565b93506124106001600355565b426010556006546040516317fbade560e21b81526001600160a01b03838116600483015290911690635feeb79490602401600060405180830381600087803b15801561245b57600080fd5b505af115801561246f573d6000803e3d6000fd5b50505050505050979650505050505050565b600f546040805183815260208101929092527f5d93bbdda0d794fed18c39a7b776dc86cbf6ed443032e6baac71373996b85010910160405180910390a1600f55565b60026003540361251a5760405162461bcd60e51b815260206004820152601f60248201527f5265656e7472616e637947756172643a207265656e7472616e742063616c6c0060448201526064015b60405180910390fd5b6002600355565b60008087815b818163ffffffff1610156125695788888263ffffffff1681811061254d5761254d6144ff565b905060200201358361255f919061400a565b9250600101612527565b50600e5460405163124aa5bd60e21b81526001600160a01b039091169063492a96f49084906125a8908e908e908e908e908e908e908e906004016146d7565b6000604051808303818588803b1580156125c157600080fd5b505af11580156125d5573d6000803e3d6000fd5b50949d9c50505050505050505050505050565b600654604080516001600160a01b03808516825290921660208301527f711d2a81db157c0acede64f080708460163dfaddcd4266c2c609efb458d3e4c0910160405180910390a1600680546001600160a01b0319166001600160a01b0392909216919091179055565b600754604080516001600160a01b03808516825290921660208301527f87539ad41983c0ecff8f321db8edf4dd9e830593562770bdacdda085b83e3bb2910160405180910390a1600780546001600160a01b0319166001600160a01b0392909216919091179055565b8047101561270a5760405162461bcd60e51b815260206004820152601d60248201527f416464726573733a20696e73756666696369656e742062616c616e63650000006044820152606401612511565b6000826001600160a01b03168260405160006040518083038185875af1925050503d8060008114612757576040519150601f19603f3d011682016040523d82523d6000602084013e61275c565b606091505b50509050806115f85760405162461bcd60e51b815260206004820152603a60248201527f416464726573733a20756e61626c6520746f2073656e642076616c75652c207260448201527f6563697069656e74206d617920686176652072657665727465640000000000006064820152608401612511565b600454604080516001600160a01b03808516825290921660208301527f5db4a067a1f787c3269642464a2a1560868b50b0873e7dec83939ae2359f6128910160405180910390a1600480546001600160a01b0319166001600160a01b0392909216919091179055565b6001600160a01b0381166000908152600d602052604090205460ff166128755760405163092a8e7160e41b815260040160405180910390fd5b6001600160a01b0381166000818152600d6020908152604091829020805460ff1916905590519182527f10e1f7ce9fd7d1b90a66d13a2ab3cb8dd7f29f3f8d520b143b063ccfbab6906b91015b60405180910390a150565b600080546040516001600160a01b03808516939216917f8be0079c531659141344cd1fd0a4f28419497f9722a3daafe3b4186f6b6457e091a3600080546001600160a01b039092166001600160a01b0319928316178155600255600180549091169055565b7f2cf410431a72dc4bf0cc68af378641831e086686f41d275c16b60799824af83b82826012600086600381111561296b5761296b614095565b600381111561297c5761297c614095565b8152602081019190915260409081016000205490516129a093929160ff1690614729565b60405180910390a180601260008460038111156129bf576129bf614095565b60038111156129d0576129d0614095565b815260200190815260200160002060006101000a81548160ff021916908360ff1602179055505050565b601154604080516001600160a01b03808516825290921660208301527f17da78d98886c3b8819430ab0693a44c32dfa6426a4db4601ce45bc4bc2385ec910160405180910390a1601180546001600160a01b0319166001600160a01b0392909216919091179055565b60008085815b818163ffffffff161015612aab5786868263ffffffff16818110612a8f57612a8f6144ff565b9050602002013583612aa1919061400a565b9250600101612a69565b50600e5460405163412e12db60e01b81526001600160a01b039091169063412e12db908490612ae6908c908c908c908c908c90600401614763565b6000604051808303818588803b158015612aff57600080fd5b505af1158015612b13573d6000803e3d6000fd5b50949b9a5050505050505050505050565b80600003612b2f5750565b6004546001600160a01b03163303612b5c57600554612b57906001600160a01b0316826126ba565b612b66565b612b6633826126ba565b600080516020614e35833981519152600082476040516128c293929190614061565b600854604080516001600160a01b03808516825290921660208301527f66948d99d8431a8416af2202bc301823b7cdd87beb9bddaa274aedac0611a5fd910160405180910390a1600880546001600160a01b0319166001600160a01b0392909216919091179055565b600554604080516001600160a01b03808516825290921660208301527f649c5e3d0ed183894196148e193af316452b0037e77d2ff0fef23b7dc722bed0910160405180910390a1600580546001600160a01b0319166001600160a01b0392909216919091179055565b63ffffffff81166000818152601460209081526040918290205482516001600160a01b0387811682529091169181019190915280820192909252517ff3f83f3e1df056d9be522e74b3fe84add98c686289a646ae55708277434240929181900360600190a163ffffffff16600090815260146020526040902080546001600160a01b0319166001600160a01b0392909216919091179055565b42600255600180546001600160a01b0319166001600160a01b0383169081179091556040517f6ab4d119f23076e8ad491bc65ce85f017fb0591dce08755ba8591059cc51737a90600090a250565b600b546040805183815260208101929092527f2a1ca87adff1a64c5b6edc218dfd6b80208260b240fbc939ea43e07c2764f5ca910160405180910390a1600b55565b600854604080516020810187905290810185905260608101849052600160a01b90910460e01b6001600160e01b03191660808201526000906084016040516020818303038152906040528051906020012090506000612deb83612de58461346a565b906134bd565b600e54604051632516d8ed60e11b81526001600160a01b038084166004830152929350911690634a2db1da90602401602060405180830381865afa158015612e37573d6000803e3d6000fd5b505050506040513d601f19601f82011682018060405250810190612e5b9190614044565b6120fc5760405163af1cef3f60e01b81526001600160a01b0382166004820152602401612511565b63ffffffff8216600090815260136020908152604080832084845290915290205460ff1615612ec5576040516320a413f360e01b815260040160405180910390fd5b63ffffffff82166000908152601460205260409020546001600160a01b0316612f0157604051636617d23960e01b815260040160405180910390fd5b63ffffffff821660008181526013602090815260408083208584529091529020805460ff1916600117905560641480612f41575063ffffffff82166127d8145b15612fd8576000612f54848601866147aa565b63ffffffff8416600090815260146020908152604091829020548351918401519251633f7658fd60e01b81529394506001600160a01b031692633f7658fd92612fa09291600401614850565b600060405180830381600087803b158015612fba57600080fd5b505af1158015612fce573d6000803e3d6000fd5b5050505050610b83565b63ffffffff821661a4b11480612ff6575063ffffffff821662066eed145b1561306b57600061300984860186614981565b63ffffffff841660009081526014602090815260409182902054835191840151838501516060860151608087015160a08801519651632750dce960e21b81529798506001600160a01b0390941696639d4373a496612fa0969591600401614a70565b63ffffffff8216600a1480613087575063ffffffff82166101a4145b156130f257600061309a84860186614b59565b63ffffffff8416600090815260146020908152604091829020548351918401518385015160608601519451637049138f60e01b81529596506001600160a01b0390921694637049138f94612fa0949391600401614c71565b63ffffffff8216610144148061310f575063ffffffff8216610118145b1561317f57600061312284860186614d1a565b63ffffffff8416600090815260146020908152604091829020548351918401518385015160608601516080870151955163e92a492f60e01b81529697506001600160a01b039093169563e92a492f95612fa0959491600401614ddf565b63ffffffff82166089148061319c575063ffffffff821662013881145b1561321e5763ffffffff82166000908152601460205260409081902054905163f953cec760e01b81526001600160a01b039091169063f953cec7906131e79087908790600401614e20565b600060405180830381600087803b15801561320157600080fd5b505af1158015613215573d6000803e3d6000fd5b50505050610b83565b60405163d3f4d63b60e01b815260040160405180910390fd5b600854604080516020810187905290810185905260608101849052600160a01b90910460e01b6001600160e01b0319166080820152600090608401604051602081830303815290604052805190602001209050600061329983612de58461346a565b600854604051632516d8ed60e11b81526001600160a01b038084166004830152929350911690634a2db1da90602401602060405180830381865afa1580156132e5573d6000803e3d6000fd5b505050506040513d601f19601f820116820180604052508101906133099190614044565b6120fc57604051634810638b60e01b81526001600160a01b0382166004820152602401612511565b6009546040805183815260208101929092527f289d6927dc5ba66abb928c5be9d3aecd2baf7c8e89f1faec6a791b8b21589a5d910160405180910390a1600955565b6001600160a01b0381166000908152600d602052604090205460ff16156133ad57604051639e9dd41d60e01b815260040160405180910390fd5b6001600160a01b0381166000818152600d6020908152604091829020805460ff1916600117905590519182527f03580ee9f53a62b7cb409a2cb56f9be87747dd15017afc5cef6eef321e4fb2c591016128c2565b600e54604080516001600160a01b03808516825290921660208301527f3124eaf4f16c6ddd81951200c6d8f65d5800753bef06584bd672c8b22c76b487910160405180910390a1600e80546001600160a01b0319166001600160a01b0392909216919091179055565b6040517f19457468657265756d205369676e6564204d6573736167653a0a3332000000006020820152603c8101829052600090605c01604051602081830303815290604052805190602001209050919050565b60008060006134cc85856134e1565b915091506134d981613526565b509392505050565b60008082516041036135175760208301516040840151606085015160001a61350b87828585613670565b9450945050505061351f565b506000905060025b9250929050565b600081600481111561353a5761353a614095565b036135425750565b600181600481111561355657613556614095565b036135a35760405162461bcd60e51b815260206004820152601860248201527f45434453413a20696e76616c6964207369676e617475726500000000000000006044820152606401612511565b60028160048111156135b7576135b7614095565b036136045760405162461bcd60e51b815260206004820152601f60248201527f45434453413a20696e76616c6964207369676e6174757265206c656e677468006044820152606401612511565b600381600481111561361857613618614095565b03610bbd5760405162461bcd60e51b815260206004820152602260248201527f45434453413a20696e76616c6964207369676e6174757265202773272076616c604482015261756560f01b6064820152608401612511565b6000807f7fffffffffffffffffffffffffffffff5d576e7357a4501ddfe92f46681b20a08311156136a7575060009050600361372b565b6040805160008082526020820180845289905260ff881692820192909252606081018690526080810185905260019060a0016020604051602081039080840390855afa1580156136fb573d6000803e3d6000fd5b5050604051601f1901519150506001600160a01b0381166137245760006001925092505061372b565b9150600090505b94509492505050565b80356004811061374357600080fd5b919050565b60006020828403121561375a57600080fd5b61376382613734565b9392505050565b803563ffffffff8116811461374357600080fd5b6000806040838503121561379157600080fd5b61379a8361376a565b946020939093013593505050565b6000602082840312156137ba57600080fd5b5035919050565b80356001600160a01b038116811461374357600080fd5b6000602082840312156137ea57600080fd5b613763826137c1565b60008083601f84011261380557600080fd5b5081356001600160401b0381111561381c57600080fd5b6020830191508360208260051b850101111561351f57600080fd5b634e487b7160e01b600052604160045260246000fd5b60405160e081016001600160401b038111828210171561386f5761386f613837565b60405290565b60405160c081016001600160401b038111828210171561386f5761386f613837565b604051608081016001600160401b038111828210171561386f5761386f613837565b60405160a081016001600160401b038111828210171561386f5761386f613837565b604051601f8201601f191681016001600160401b038111828210171561390357613903613837565b604052919050565b60006001600160401b0382111561392457613924613837565b5060051b60200190565b600082601f83011261393f57600080fd5b81356001600160401b0381111561395857613958613837565b61396b601f8201601f19166020016138db565b81815284602083860101111561398057600080fd5b816020850160208301376000918101602001919091529392505050565b600082601f8301126139ae57600080fd5b813560206139c36139be8361390b565b6138db565b82815260059290921b840181019181810190868411156139e257600080fd5b8286015b84811015613a215780356001600160401b03811115613a055760008081fd5b613a138986838b010161392e565b8452509183019183016139e6565b509695505050505050565b600080600080600080600060a0888a031215613a4757600080fd5b87356001600160401b0380821115613a5e57600080fd5b613a6a8b838c016137f3565b909950975060208a0135915080821115613a8357600080fd5b613a8f8b838c016137f3565b909750955060408a0135915080821115613aa857600080fd5b50613ab58a828b0161399d565b935050606088013591506080880135905092959891949750929550565b600060208284031215613ae457600080fd5b6137638261376a565b60008060408385031215613b0057600080fd5b613b0983613734565b9150602083013560ff81168114613b1f57600080fd5b809150509250929050565b600080600080600060608688031215613b4257600080fd5b85356001600160401b0380821115613b5957600080fd5b613b6589838a016137f3565b90975095506020880135915080821115613b7e57600080fd5b613b8a89838a016137f3565b90955093506040880135915080821115613ba357600080fd5b50613bb08882890161399d565b9150509295509295909350565b600080600060608486031215613bd257600080fd5b505081359360208301359350604090920135919050565b60008060408385031215613bfc57600080fd5b82356001600160401b03811115613c1257600080fd5b830160a0818603121561379a57600080fd5b60008060008060008060808789031215613c3d57600080fd5b86356001600160401b0380821115613c5457600080fd5b613c608a838b016137f3565b90985096506020890135915080821115613c7957600080fd5b613c858a838b016137f3565b90965094506040890135915080821115613c9e57600080fd5b50613cab89828a0161399d565b925050606087013590509295509295509295565b60008060408385031215613cd257600080fd5b613cdb836137c1565b9150613ce96020840161376a565b90509250929050565b600080600080600080600060a0888a031215613d0d57600080fd5b873596506020880135955060408801356001600160401b0380821115613d3257600080fd5b613d3e8b838c016137f3565b909750955060608a0135915080821115613d5757600080fd5b613d638b838c016137f3565b909550935060808a0135915080821115613d7c57600080fd5b50613d898a828b0161392e565b91505092959891949750929550565b60008060008060608587031215613dae57600080fd5b84356001600160401b0380821115613dc557600080fd5b818701915087601f830112613dd957600080fd5b813581811115613de857600080fd5b886020828501011115613dfa57600080fd5b602092830196509450613e10918701905061376a565b9396929550929360400135925050565b60008060008060808587031215613e3657600080fd5b843593506020850135925060408501356001600160401b03811115613e5a57600080fd5b613e668782880161392e565b949793965093946060013593505050565b60006020808385031215613e8a57600080fd5b82356001600160401b03811115613ea057600080fd5b8301601f81018513613eb157600080fd5b8035613ebf6139be8261390b565b81815260059190911b82018301908381019087831115613ede57600080fd5b928401925b82841015613f0357613ef48461376a565b82529284019290840190613ee3565b979650505050505050565b60008060408385031215613f2157600080fd5b50508035926020909101359150565b600080600060608486031215613f4557600080fd5b83356001600160401b03811115613f5b57600080fd5b613f678682870161392e565b9660208601359650604090950135949350505050565b6000806000806000806104808789031215613f9757600080fd5b86356001600160401b03811115613fad57600080fd5b613fb989828a016137f3565b90975095505060208701359350610440870188811115613fd857600080fd5b9598949750929560408101953594610460909101359350915050565b634e487b7160e01b600052601160045260246000fd5b8082018082111561141a5761141a613ff4565b60006020828403121561402f57600080fd5b5051919050565b8015158114610bbd57600080fd5b60006020828403121561405657600080fd5b815161376381614036565b6001600160a01b039390931683526020830191909152604082015260600190565b8181038181111561141a5761141a613ff4565b634e487b7160e01b600052602160045260246000fd5b60ff828116828216039081111561141a5761141a613ff4565b6000826140e157634e487b7160e01b600052601260045260246000fd5b500690565b803561374381614036565b6000808335601e1984360301811261410857600080fd5b83016020810192503590506001600160401b0381111561412757600080fd5b80360382131561351f57600080fd5b81835281816020850137506000828201602090810191909152601f909101601f19169091010190565b6000808335601e1984360301811261417657600080fd5b83016020810192503590506001600160401b0381111561419557600080fd5b8060051b360382131561351f57600080fd5b8183526000602080850194508260005b858110156141e3576001600160a01b036141d0836137c1565b16875295820195908201906001016141b7565b509495945050505050565b81835260006020808501808196508560051b810191508460005b8781101561423e57828403895261421f82886140f1565b61422a868284614136565b9a87019a9550505090840190600101614208565b5091979650505050505050565b602081526000823561019e1984360301811261426657600080fd5b60a06020840152830161428960c0840161427f8361376a565b63ffffffff169052565b6142956020820161376a565b63ffffffff1660e08401526142ac6040820161376a565b6101006142c08186018363ffffffff169052565b6142cc606084016137c1565b91506101206142e5818701846001600160a01b03169052565b6142f1608085016137c1565b925061014061430a818801856001600160a01b03169052565b61431660a086016140e6565b93506101606143288189018615159052565b61433560c08701876140f1565b95506101a061018081818c01526143516102608c018985614136565b975060e0890135828c0152614367878a016137c1565b6001600160a01b03166101c08c0152948801356101e08b0152505090850135610200880152840135610220870152830135610240860152506143ac602086018661415f565b9250601f19808684030160408701526143c68385846141a7565b93506143d5604088018861415f565b93509150808685030160608701526143ee8484846141ee565b93506143fc606088016137c1565b6001600160a01b0381166080880152925061441a60808801886140f1565b93509150808685030160a087015250614434838383614136565b9695505050505050565b81835260006001600160fb1b0383111561445757600080fd5b8260051b80836020870137939093016020019392505050565b8681526000602087818401526080604084015261449160808401878961443e565b83810360608501528481528590820160005b868110156144cc5763ffffffff6144b98461376a565b16825291830191908301906001016144a3565b509a9950505050505050505050565b600080604083850312156144ee57600080fd5b505080516020909101519092909150565b634e487b7160e01b600052603260045260246000fd5b60006001820161452757614527613ff4565b5060010190565b6000815180845260005b8181101561455457602081850181015186830182015201614538565b506000602082860101526020601f19601f83011685010191505092915050565b602081526000613763602083018461452e565b6104008183375050565b6104608082528101859052600061048080830190600588901b8401018883805b8a8110156146275786840361047f190185528235368d900361043e190181126145d8578283fd5b8c016104406145e782806140f1565b8288526145f78389018284614136565b925050506020610400818401828901376104209283013596909201959095529485019492909201916001016145b1565b50505080925050508460208301526146426040830185614587565b826104408301529695505050505050565b8183526000602080850194508260005b858110156141e3576001600160a01b0361467c836137c1565b1687529582019590820190600101614663565b600081518084526020808501808196508360051b8101915082860160005b8581101561423e5782840389526146c584835161452e565b988501989350908401906001016146ad565b60a0815260006146eb60a08301898b614653565b82810360208401526146fe81888a61443e565b90508281036040840152614712818761468f565b606084019590955250506080015295945050505050565b606081016004851061474b57634e487b7160e01b600052602160045260246000fd5b93815260ff9283166020820152911660409091015290565b606081526000614777606083018789614653565b828103602084015261478a81868861443e565b9050828103604084015261479e818561468f565b98975050505050505050565b6000602082840312156147bc57600080fd5b81356001600160401b03808211156147d357600080fd5b90830190604082860312156147e757600080fd5b60405160408101818110838211171561480257614802613837565b60405282358281111561481457600080fd5b6148208782860161392e565b82525060208301358281111561483557600080fd5b6148418782860161392e565b60208301525095945050505050565b604081526000614863604083018561452e565b8281036020840152614875818561452e565b95945050505050565b80356001600160401b038116811461374357600080fd5b600082601f8301126148a657600080fd5b813560206148b66139be8361390b565b82815260059290921b840181019181810190868411156148d557600080fd5b8286015b84811015613a2157803583529183019183016148d9565b600060e0828403121561490257600080fd5b61490a61384d565b9050614915826137c1565b8152614923602083016137c1565b602082015260408201356040820152606082013560608201526080820135608082015260a082013560a082015260c08201356001600160401b0381111561496957600080fd5b6149758482850161392e565b60c08301525092915050565b60006020828403121561499357600080fd5b81356001600160401b03808211156149aa57600080fd5b9083019060c082860312156149be57600080fd5b6149c6613875565b6149cf8361487e565b815260208301356020820152604083013560408201526060830135828111156149f757600080fd5b614a0387828601614895565b6060830152506080830135608082015260a083013582811115614a2557600080fd5b614a31878286016148f0565b60a08301525095945050505050565b600081518084526020808501945080840160005b838110156141e357815187529582019590820190600101614a54565b6001600160401b038716815285602082015284604082015260c060608201526000614a9e60c0830186614a40565b84608084015282810360a084015260018060a01b038085511682528060208601511660208301525060408401516040820152606084015160608201526080840151608082015260a084015160a082015260c084015160e060c0830152614b0760e083018261452e565b9a9950505050505050505050565b600060808284031215614b2757600080fd5b614b2f613897565b90508135815260208201356020820152604082013560408201526060820135606082015292915050565b600060208284031215614b6b57600080fd5b81356001600160401b0380821115614b8257600080fd5b9083019060e08286031215614b9657600080fd5b614b9e613897565b823582811115614bad57600080fd5b830160c08188031215614bbf57600080fd5b614bc7613875565b81358152614bd7602083016137c1565b6020820152614be8604083016137c1565b6040820152606082013560608201526080820135608082015260a082013584811115614c1357600080fd5b614c1f8982850161392e565b60a08301525082525060208381013590820152614c3f8660408501614b15565b604082015260c083013582811115614c5657600080fd5b614c628782860161399d565b60608301525095945050505050565b60e080825285519082015260208501516001600160a01b039081166101008301526040860151166101208201526060850151610140820152608085015161016082015260a085015160c0610180830152600090614cd26101a084018261452e565b9050856020840152614d086040840186805182526020810151602083015260408101516040830152606081015160608301525050565b82810360c0840152613f03818561468f565b600060208284031215614d2c57600080fd5b81356001600160401b0380821115614d4357600080fd5b9083019060a08286031215614d5757600080fd5b614d5f6138b9565b614d688361376a565b815260208301356020820152604083013561ffff81168114614d8957600080fd5b6040820152606083013582811115614da057600080fd5b614dac8782860161392e565b606083015250608083013582811115614dc457600080fd5b614dd087828601614895565b60808301525095945050505050565b63ffffffff8616815284602082015261ffff8416604082015260a060608201526000614e0e60a083018561452e565b828103608084015261479e8185614a40565b602081526000611c5160208301848661413656fe6e5f7db1c3e1839c6d5eb59148d9042f8cdf3afe518b213142d5a68db640e90ca264697066735822122057b277f724e17151198b25441ac7ed8259d889d32c1a0094ad6e726cb9d47d3e64736f6c63430008110033",
  "devdoc": {
    "author": "Connext Labs, Inc.",
    "events": {
      "AutonolasChanged(address,address)": {
        "params": {
          "previous": "Old Autonolas address in the contract",
          "updated": "New Autonolas address in the contract"
        }
      },
      "AutonolasPriorityChanged(uint8,uint8,uint8)": {
        "params": {
          "previous": "Old Autonolas priority in the contract",
          "updated": "New Autonolas priority in the contract"
        }
      },
      "HubConnectorChanged(address,address,uint32)": {
        "params": {
          "chain": "Chain ID of the hub connector",
          "hubConnector": "New hub connector address",
          "oldHubConnector": "Old hub connector address"
        }
      },
      "PropagateCooldownChanged(uint256,uint256)": {
        "params": {
          "oldPropagateCooldown": "Old cooldown period",
          "propagateCooldown": "New cooldown period"
        }
      },
      "RootManagerChanged(address,address)": {
        "params": {
          "oldRootManager": "Old root manager address in the contract",
          "rootManager": "New root manager address in the contract"
        }
      }
    },
    "kind": "dev",
    "methods": {
      "addRelayer(address)": {
        "params": {
          "_relayer": "- Relayer address to add."
        }
      },
      "execute(((uint32,uint32,uint32,address,address,bool,bytes,uint256,address,uint256,uint256,uint256,bytes32),address[],bytes[],address,bytes),uint256)": {
        "params": {
          "_args": "- ExecuteArgs arguments.",
          "_fee": "- Fee to be paid to relayer."
        },
        "returns": {
          "transferId": "- The transfer ID of the crosschain transfer. Should match the xcall's transfer ID in order for reconciliation to occur."
        }
      },
      "finalize(bytes32,uint256,uint256)": {
        "params": {
          "_endOfDispute": "The block in which the dispute period for proposed root finalizes",
          "_proposedAggregateRoot": "The aggregate root currently proposed",
          "_rootTimestamp": "Block.timestamp at which the root was finalized in the root manager contract."
        }
      },
      "finalizeAndPropagate(address[],uint256[],bytes[],bytes32,uint256)": {
        "params": {
          "_connectors": "Array of connectors: should match exactly the array of `connectors` in storage;",
          "_encodedData": "Array of encodedData: extra params for each AMB if required",
          "_endOfDispute": "The timestamp when the dispute period ends.",
          "_fees": "Array of fees in native token for an AMB if required",
          "_proposedAggregateRoot": "The aggregate root to be proposed."
        }
      },
      "finalizeAndPropagateKeep3r(address[],uint256[],bytes[],bytes32,uint256)": {
        "params": {
          "_connectors": "Array of connectors: should match exactly the array of `connectors` in storage;",
          "_encodedData": "Array of encodedData: extra params for each AMB if required",
          "_endOfDispute": "The timestamp when the dispute period ends.",
          "_fees": "Array of fees in native token for an AMB if required",
          "_proposedAggregateRoot": "The aggregate root to be proposed."
        }
      },
      "finalizeOnRoot(bytes32,uint256)": {
        "params": {
          "_endOfDispute": "The block in which the dispute period for proposed root finalizes",
          "_proposedAggregateRoot": "The aggregate root currently proposed"
        }
      },
      "processFromRoot(bytes,uint32,bytes32)": {
        "params": {
          "_encodedData": "Array of encoded data for HubConnector function.",
          "_fromChain": "Chain ID of the chain the message is coming from.",
          "_l2Hash": "Hash of the message on the L2 chain."
        }
      },
      "processFromRootKeep3r(bytes,uint32,bytes32)": {
        "params": {
          "_encodedData": "Array of encoded data for HubConnector function.",
          "_fromChain": "Chain ID of the chain the message is coming from.",
          "_l2Hash": "Hash of the message on the L2 chain."
        }
      },
      "propagate(address[],uint256[],bytes[],uint256)": {
        "params": {
          "_connectors": "Array of connectors: should match exactly the array of `connectors` in storage; used here to reduce gas costs, and keep them static regardless of number of supported domains.",
          "_encodedData": "Array of encodedData: extra params for each AMB if required",
          "_messageFees": "Array of fees in native token for an AMB if required",
          "_relayerFee": "Fee to be paid to relayer"
        }
      },
      "propagateKeep3r(address[],uint256[],bytes[])": {
        "params": {
          "_connectors": "Array of connectors: should match exactly the array of `connectors` in storage; used here to reduce gas costs, and keep them static regardless of number of supported domains.",
          "_encodedData": "Array of encodedData: extra params for each AMB if required",
          "_messageFees": "Array of fees in native token for an AMB if required"
        }
      },
      "propagateWorkable(uint32[])": {
        "returns": {
          "_0": "True if the RootManager has a workable root."
        }
      },
      "proposeAggregateRoot(bytes32,uint256,bytes,uint256)": {
        "details": "_rootTimestamp is required for off-chain agents to be able to know which root they should fetch from the root manager contract                     in order to compare it with the one being proposed. The off-chain agents should also ensure the proposed root is                     not an old one.",
        "params": {
          "_aggregateRoot": "The aggregate root to propose.",
          "_fee": "- Fee to be paid to relayer.",
          "_rootTimestamp": "Block.timestamp at which the root was finalized in the root manager contract.",
          "_signature": "Signature from the approved proposer."
        }
      },
      "proposeAggregateRootOnRoot(uint256,bytes32,bytes32[],uint32[],bytes)": {
        "details": "This contract will validate the signer is a whitelisted proposer on the RootManager, and then call `propose` itself. This means this contract must *also* be whitelisted as a proposer on the RootManager.",
        "params": {
          "_aggregateRoot": "The aggregate root to be proposed.",
          "_domains": "The domains of the snapshots to be proposed.",
          "_signature": "Signature from the approved proposer.",
          "_snapshotId": "The snapshot id of the root to be proposed.",
          "_snapshotsRoots": "The roots of the connectors included in the aggregate."
        }
      },
      "proposeAggregateRootOnRootKeep3r(uint256,bytes32,bytes32[],uint32[],bytes)": {
        "details": "This contract will validate the signer is a whitelisted proposer on the RootManager, and then call `propose` itself. This means this contract must *also* be whitelisted as a proposer on the RootManager.",
        "params": {
          "_aggregateRoot": "The aggregate root to be proposed.",
          "_domains": "The domains of the snapshots to be proposed.",
          "_snapshotId": "The snapshot id of the root to be proposed.",
          "_snapshotsRoots": "The roots of the connectors included in the aggregate."
        }
      },
      "proveAndProcess((bytes,bytes32[32],uint256)[],bytes32,bytes32[32],uint256,uint256)": {
        "params": {
          "_aggregateIndex": "Index of the inbound root in the aggregator's merkle tree in the hub.",
          "_aggregatePath": "Merkle path of inclusion for the inbound root.",
          "_aggregateRoot": "The target aggregate root we want to prove inclusion for. This root must have already been delivered to this spoke connector contract and surpassed the validation period.",
          "_fee": "- Fee to be paid to relayer.",
          "_proofs": "Batch of Proofs containing messages for proving/processing."
        }
      },
      "removeRelayer(address)": {
        "params": {
          "_relayer": "- Relayer address to remove."
        }
      },
      "send(bytes,uint256,uint256)": {
        "params": {
          "_encodedData": "- Data to be sent to Connext SpokeConnector",
          "_messageFee": "- Fee to be paid to the SpokeConnector for connected AMBs that require fees.",
          "_relayerFee": "- Fee to be paid to relayer."
        }
      },
      "setAutonolas(address)": {
        "params": {
          "_autonolas": "- New Autonolas contract address."
        }
      },
      "setAutonolasPriority(uint8,uint8)": {
        "params": {
          "_autonolasPriority": "- New Autonolas priority."
        }
      },
      "setConnext(address)": {
        "params": {
          "_connext": "- New Connext address."
        }
      },
      "setFeeCollector(address)": {
        "params": {
          "_feeCollector": "- New Gelato Fee Collector address."
        }
      },
      "setFinalizeCooldown(uint256)": {
        "params": {
          "_finalizeCooldown": "The new cooldown in seconds."
        }
      },
      "setGelatoRelayer(address)": {
        "params": {
          "_gelatoRelayer": "- New Gelato relayer address."
        }
      },
      "setHubConnector(address,uint32)": {
        "params": {
          "_hubConnector": "The address of the new HubConnector on this domain."
        }
      },
      "setKeep3r(address)": {
        "params": {
          "_keep3r": "- New Keep3r contract address."
        }
      },
      "setPropagateCooldown(uint256)": {
        "params": {
          "_propagateCooldown": "The new cooldown in seconds."
        }
      },
      "setProposeAggregateRootCooldown(uint256)": {
        "params": {
          "_proposeCooldown": "The new cooldown in seconds."
        }
      },
      "setRootManager(address)": {
        "params": {
          "_rootManager": "The address of the new RootManager on this domain."
        }
      },
      "setSpokeConnector(address)": {
        "params": {
          "_spokeConnector": "- New SpokeConnector address."
        }
      }
    },
    "stateVariables": {
      "autonolas": {
        "details": "Special consideration for Autonolas keeper"
      },
      "autonolasPriority": {
        "details": "number between 0 and 10 to determine priority that Autonolas has for jobs. 0 is disabled, 10 will work for every block."
      }
    },
    "title": "RelayerProxyHub",
    "version": 1
  },
  "userdoc": {
    "events": {
      "AutonolasChanged(address,address)": {
        "notice": "Emitted when Autonolas address is updated by admin"
      },
      "AutonolasPriorityChanged(uint8,uint8,uint8)": {
        "notice": "Emitted when Autonolas priority is updated by admin"
      },
      "ConnextChanged(address,address)": {
        "notice": "Emitted when Connext contract address is updated by admin"
      },
      "FeeCollectorChanged(address,address)": {
        "notice": "Emitted when FeeCollectorChanged address is updated by admin"
      },
      "FinalizeCooldownChanged(uint256,uint256)": {
        "notice": "Emitted when the cooldown period for finalize is updated"
      },
      "FundsDeducted(address,uint256,uint256)": {
        "notice": "Emitted when funds removed from the contract by admin"
      },
      "FundsReceived(uint256,uint256)": {
        "notice": "Emitted when funds added to the contract"
      },
      "GelatoRelayerChanged(address,address)": {
        "notice": "Emitted when GelatoRelayer address is updated by admin"
      },
      "HubConnectorChanged(address,address,uint32)": {
        "notice": "Emitted when a new hub connector is updated"
      },
      "Keep3rChanged(address,address)": {
        "notice": "Emitted when Keep3r address is updated by admin"
      },
      "PropagateCooldownChanged(uint256,uint256)": {
        "notice": "Emitted when the cooldown period for propagate is updated"
      },
      "ProposeAggregateRootCooldownChanged(uint256,uint256)": {
        "notice": "Emitted when the cooldown period for proposeAggregateRoot is updated"
      },
      "RelayerAdded(address)": {
        "notice": "Emitted when a new relayer is allowlisted by admin"
      },
      "RelayerRemoved(address)": {
        "notice": "Emitted when a relayer is removed from allowlist by admin"
      },
      "RootManagerChanged(address,address)": {
        "notice": "Emitted when the root manager is updated by admin"
      },
      "SpokeConnectorChanged(address,address)": {
        "notice": "Emitted when SpokeConnector contract address is updated by admin"
      }
    },
    "kind": "user",
    "methods": {
      "acceptProposedOwner()": {
        "notice": "Transfers ownership of the contract to a new account (`newOwner`). Can only be called by the current owner."
      },
      "addRelayer(address)": {
        "notice": "Adds a relayer address to the allowed relayers mapping."
      },
      "autonolas()": {
        "notice": "Address of Autonolas keeper contract"
      },
      "autonolasPriority(uint8)": {
        "notice": "Mapping of Autonolas priority function to priority number"
      },
      "constructor": {
        "notice": "Creates a new RelayerProxyHub instance."
      },
      "delay()": {
        "notice": "Returns the delay period before a new owner can be accepted."
      },
      "execute(((uint32,uint32,uint32,address,address,bool,bytes,uint256,address,uint256,uint256,uint256,bytes32),address[],bytes[],address,bytes),uint256)": {
        "notice": "Wraps the call to execute() on Connext and pays either the caller or hardcoded relayer from this contract's balance for completing the transaction."
      },
      "finalize(bytes32,uint256,uint256)": {
        "notice": "Wraps the `finalize` function on root manager"
      },
      "finalizeAndPropagate(address[],uint256[],bytes[],bytes32,uint256)": {
        "notice": "Wraps the `finalizeAndPropagate` function"
      },
      "finalizeAndPropagateKeep3r(address[],uint256[],bytes[],bytes32,uint256)": {
        "notice": "Wraps the `finalizeAndPropagate` function"
      },
      "finalizeCooldown()": {
        "notice": "Delay for the finalize function"
      },
      "finalizeOnRoot(bytes32,uint256)": {
        "notice": "Wraps the `finalize` function on root manager"
      },
      "hubConnectors(uint32)": {
        "notice": "Mapping of identifier to hub connector contract address"
      },
      "lastFinalizeAt()": {
        "notice": "Timestamp of the last time the finalize job was worked."
      },
      "lastPropagateAt()": {
        "notice": "Timestamp of the last time the propagate job was worked."
      },
      "lastProposeAggregateRootAt()": {
        "notice": "Timestamp of when last aggregate was proposed"
      },
      "owner()": {
        "notice": "Returns the address of the current owner."
      },
      "processFromRoot(bytes,uint32,bytes32)": {
        "notice": "Wraps the call to processFromRoot() on RootManager. Only allowed to be called by registered relayer."
      },
      "processFromRootKeep3r(bytes,uint32,bytes32)": {
        "notice": "Wraps the call to processFromRoot() on RootManager and pays with Keep3r credits. Only allowed to be called by registered Keep3r."
      },
      "processedRootMessages(uint32,bytes32)": {
        "notice": "Mapping of identifier to root message hash to boolean indicating if the message has been processed"
      },
      "propagate(address[],uint256[],bytes[],uint256)": {
        "notice": "Wraps the call to propagate() on RootManager and pays either the caller or hardcoded relayer from this contract's balance for completing the transaction."
      },
      "propagateCooldown()": {
        "notice": "Delay for the propagate function"
      },
      "propagateKeep3r(address[],uint256[],bytes[])": {
        "notice": "Wraps the call to propagate() on RootManager and pays with Keep3r credits. Only allowed to be called by registered Keep3r."
      },
      "propagateWorkable(uint32[])": {
        "notice": "Checks if the RootManager has a workable root. Calls the rootManager's dequeue() function to check if the RootManager has a sendable root. This is an expensive function so it should only be called off-chain to determine if the relayer should call the propagate() function."
      },
      "proposeAggregateRoot(bytes32,uint256,bytes,uint256)": {
        "notice": "Wraps the call to proposeAggregateRoot() on SpokeConnector and pays either the caller or hardcoded relayer"
      },
      "proposeAggregateRootCooldown()": {
        "notice": "Delay for the proposeAggregateRoot function"
      },
      "proposeAggregateRootOnRoot(uint256,bytes32,bytes32[],uint32[],bytes)": {
        "notice": "Wraps the `proposeAggregateRoot` function of RootManager"
      },
      "proposeAggregateRootOnRootKeep3r(uint256,bytes32,bytes32[],uint32[],bytes)": {
        "notice": "Wraps the `proposeAggregateRoot` function of RootManager"
      },
      "proposeNewOwner(address)": {
        "notice": "Sets the timestamp for an owner to be proposed, and sets the newly proposed owner as step 1 in a 2-step process"
      },
      "proposed()": {
        "notice": "Returns the address of the proposed owner."
      },
      "proposedTimestamp()": {
        "notice": "Returns the address of the proposed owner."
      },
      "proveAndProcess((bytes,bytes32[32],uint256)[],bytes32,bytes32[32],uint256,uint256)": {
        "notice": "Wraps the call to proveAndProcess() on SpokeConnector and pays either the caller or hardcoded relayer from this contract's balance for completing the transaction."
      },
      "removeRelayer(address)": {
        "notice": "Removes a relayer address from the allowed relayers mapping."
      },
      "renounceOwnership()": {
        "notice": "Renounces ownership of the contract after a delay"
      },
      "renounced()": {
        "notice": "Indicates if the ownership has been renounced() by checking if current owner is address(0)"
      },
      "rootManager()": {
        "notice": "Address of the RootManager contract"
      },
      "send(bytes,uint256,uint256)": {
        "notice": "Wraps the call to send() on SpokeConnector and pays either the caller or hardcoded relayer from this contract's balance for completing the transaction."
      },
      "sendRootToHubSpoke()": {
        "notice": "Wraps the `sendRootToHubSpoke` function of RootManager"
      },
      "setAutonolas(address)": {
        "notice": "Updates the Autonolas contract address on this contract."
      },
      "setAutonolasPriority(uint8,uint8)": {
        "notice": "Updates the Autonolas priority on this contract."
      },
      "setConnext(address)": {
        "notice": "Updates the Connext address on this contract."
      },
      "setFeeCollector(address)": {
        "notice": "Updates the Gelato Fee Collector address on this contract."
      },
      "setFinalizeCooldown(uint256)": {
        "notice": "Updates the finalize cooldown."
      },
      "setGelatoRelayer(address)": {
        "notice": "Updates the Gelato relayer address on this contract."
      },
      "setHubConnector(address,uint32)": {
        "notice": "Updates the HubConnector address."
      },
      "setKeep3r(address)": {
        "notice": "Updates the Keep3r contract address on this contract."
      },
      "setPropagateCooldown(uint256)": {
        "notice": "Updates the propagate cooldown."
      },
      "setProposeAggregateRootCooldown(uint256)": {
        "notice": "Updates the propose cooldown."
      },
      "setRootManager(address)": {
        "notice": "Updates the RootManager address."
      },
      "setSpokeConnector(address)": {
        "notice": "Updates the SpokeConnector address on this contract."
      },
      "withdraw(address)": {
        "notice": "Withdraws tokens stored on this contract to msg.sender."
      }
    },
    "notice": "This is a temporary contract that wraps the Connext RootManager's propagate() function so that it can be called by Gelato's legacy relayer network. The contract stores native assets and pays them to the relayer on function call.",
    "version": 1
  },
  "storageLayout": {
    "storage": [
      {
        "astId": 29053,
        "contract": "contracts/core/connext/helpers/RelayerProxyHub.sol:RelayerProxyHub",
        "label": "_owner",
        "offset": 0,
        "slot": "0",
        "type": "t_address"
      },
      {
        "astId": 29055,
        "contract": "contracts/core/connext/helpers/RelayerProxyHub.sol:RelayerProxyHub",
        "label": "_proposed",
        "offset": 0,
        "slot": "1",
        "type": "t_address"
      },
      {
        "astId": 29057,
        "contract": "contracts/core/connext/helpers/RelayerProxyHub.sol:RelayerProxyHub",
        "label": "_proposedOwnershipTimestamp",
        "offset": 0,
        "slot": "2",
        "type": "t_uint256"
      },
      {
        "astId": 1732,
        "contract": "contracts/core/connext/helpers/RelayerProxyHub.sol:RelayerProxyHub",
        "label": "_status",
        "offset": 0,
        "slot": "3",
        "type": "t_uint256"
      },
      {
        "astId": 4681,
        "contract": "contracts/core/connext/helpers/RelayerProxyHub.sol:RelayerProxyHub",
        "label": "gelatoRelayer",
        "offset": 0,
        "slot": "4",
        "type": "t_address"
      },
      {
        "astId": 4683,
        "contract": "contracts/core/connext/helpers/RelayerProxyHub.sol:RelayerProxyHub",
        "label": "feeCollector",
        "offset": 0,
        "slot": "5",
        "type": "t_address"
      },
      {
        "astId": 4686,
        "contract": "contracts/core/connext/helpers/RelayerProxyHub.sol:RelayerProxyHub",
        "label": "keep3r",
        "offset": 0,
        "slot": "6",
        "type": "t_contract(IKeep3rV2)4669"
      },
      {
        "astId": 4689,
        "contract": "contracts/core/connext/helpers/RelayerProxyHub.sol:RelayerProxyHub",
        "label": "connext",
        "offset": 0,
        "slot": "7",
        "type": "t_contract(IConnext)8001"
      },
      {
        "astId": 4692,
        "contract": "contracts/core/connext/helpers/RelayerProxyHub.sol:RelayerProxyHub",
        "label": "spokeConnector",
        "offset": 0,
        "slot": "8",
        "type": "t_contract(ISpokeConnector)4656"
      },
      {
        "astId": 4694,
        "contract": "contracts/core/connext/helpers/RelayerProxyHub.sol:RelayerProxyHub",
        "label": "domain",
        "offset": 20,
        "slot": "8",
        "type": "t_uint32"
      },
      {
        "astId": 4697,
        "contract": "contracts/core/connext/helpers/RelayerProxyHub.sol:RelayerProxyHub",
        "label": "proposeAggregateRootCooldown",
        "offset": 0,
        "slot": "9",
        "type": "t_uint256"
      },
      {
        "astId": 4700,
        "contract": "contracts/core/connext/helpers/RelayerProxyHub.sol:RelayerProxyHub",
        "label": "lastProposeAggregateRootAt",
        "offset": 0,
        "slot": "10",
        "type": "t_uint256"
      },
      {
        "astId": 4703,
        "contract": "contracts/core/connext/helpers/RelayerProxyHub.sol:RelayerProxyHub",
        "label": "finalizeCooldown",
        "offset": 0,
        "slot": "11",
        "type": "t_uint256"
      },
      {
        "astId": 4706,
        "contract": "contracts/core/connext/helpers/RelayerProxyHub.sol:RelayerProxyHub",
        "label": "lastFinalizeAt",
        "offset": 0,
        "slot": "12",
        "type": "t_uint256"
      },
      {
        "astId": 4710,
        "contract": "contracts/core/connext/helpers/RelayerProxyHub.sol:RelayerProxyHub",
        "label": "allowedRelayer",
        "offset": 0,
        "slot": "13",
        "type": "t_mapping(t_address,t_bool)"
      },
      {
        "astId": 5863,
        "contract": "contracts/core/connext/helpers/RelayerProxyHub.sol:RelayerProxyHub",
        "label": "rootManager",
        "offset": 0,
        "slot": "14",
        "type": "t_contract(IRootManager)5731"
      },
      {
        "astId": 5866,
        "contract": "contracts/core/connext/helpers/RelayerProxyHub.sol:RelayerProxyHub",
        "label": "propagateCooldown",
        "offset": 0,
        "slot": "15",
        "type": "t_uint256"
      },
      {
        "astId": 5869,
        "contract": "contracts/core/connext/helpers/RelayerProxyHub.sol:RelayerProxyHub",
        "label": "lastPropagateAt",
        "offset": 0,
        "slot": "16",
        "type": "t_uint256"
      },
      {
        "astId": 5872,
        "contract": "contracts/core/connext/helpers/RelayerProxyHub.sol:RelayerProxyHub",
        "label": "autonolas",
        "offset": 0,
        "slot": "17",
        "type": "t_address"
      },
      {
        "astId": 5883,
        "contract": "contracts/core/connext/helpers/RelayerProxyHub.sol:RelayerProxyHub",
        "label": "autonolasPriority",
        "offset": 0,
        "slot": "18",
        "type": "t_mapping(t_enum(AutonolasPriorityFunction)5877,t_uint8)"
      },
      {
        "astId": 5890,
        "contract": "contracts/core/connext/helpers/RelayerProxyHub.sol:RelayerProxyHub",
        "label": "processedRootMessages",
        "offset": 0,
        "slot": "19",
        "type": "t_mapping(t_uint32,t_mapping(t_bytes32,t_bool))"
      },
      {
        "astId": 5895,
        "contract": "contracts/core/connext/helpers/RelayerProxyHub.sol:RelayerProxyHub",
        "label": "hubConnectors",
        "offset": 0,
        "slot": "20",
        "type": "t_mapping(t_uint32,t_address)"
      }
    ],
    "types": {
      "t_address": {
        "encoding": "inplace",
        "label": "address",
        "numberOfBytes": "20"
      },
      "t_bool": {
        "encoding": "inplace",
        "label": "bool",
        "numberOfBytes": "1"
      },
      "t_bytes32": {
        "encoding": "inplace",
        "label": "bytes32",
        "numberOfBytes": "32"
      },
      "t_contract(IConnext)8001": {
        "encoding": "inplace",
        "label": "contract IConnext",
        "numberOfBytes": "20"
      },
      "t_contract(IKeep3rV2)4669": {
        "encoding": "inplace",
        "label": "contract IKeep3rV2",
        "numberOfBytes": "20"
      },
      "t_contract(IRootManager)5731": {
        "encoding": "inplace",
        "label": "contract IRootManager",
        "numberOfBytes": "20"
      },
      "t_contract(ISpokeConnector)4656": {
        "encoding": "inplace",
        "label": "contract ISpokeConnector",
        "numberOfBytes": "20"
      },
      "t_enum(AutonolasPriorityFunction)5877": {
        "encoding": "inplace",
        "label": "enum RelayerProxyHub.AutonolasPriorityFunction",
        "numberOfBytes": "1"
      },
      "t_mapping(t_address,t_bool)": {
        "encoding": "mapping",
        "key": "t_address",
        "label": "mapping(address => bool)",
        "numberOfBytes": "32",
        "value": "t_bool"
      },
      "t_mapping(t_bytes32,t_bool)": {
        "encoding": "mapping",
        "key": "t_bytes32",
        "label": "mapping(bytes32 => bool)",
        "numberOfBytes": "32",
        "value": "t_bool"
      },
      "t_mapping(t_enum(AutonolasPriorityFunction)5877,t_uint8)": {
        "encoding": "mapping",
        "key": "t_enum(AutonolasPriorityFunction)5877",
        "label": "mapping(enum RelayerProxyHub.AutonolasPriorityFunction => uint8)",
        "numberOfBytes": "32",
        "value": "t_uint8"
      },
      "t_mapping(t_uint32,t_address)": {
        "encoding": "mapping",
        "key": "t_uint32",
        "label": "mapping(uint32 => address)",
        "numberOfBytes": "32",
        "value": "t_address"
      },
      "t_mapping(t_uint32,t_mapping(t_bytes32,t_bool))": {
        "encoding": "mapping",
        "key": "t_uint32",
        "label": "mapping(uint32 => mapping(bytes32 => bool))",
        "numberOfBytes": "32",
        "value": "t_mapping(t_bytes32,t_bool)"
      },
      "t_uint256": {
        "encoding": "inplace",
        "label": "uint256",
        "numberOfBytes": "32"
      },
      "t_uint32": {
        "encoding": "inplace",
        "label": "uint32",
        "numberOfBytes": "4"
      },
      "t_uint8": {
        "encoding": "inplace",
        "label": "uint8",
        "numberOfBytes": "1"
      }
    }
  }
}