{
  "address": "0x3B1edF344F03489b86DE923f288514De80aa929A",
  "abi": [
    {
      "inputs": [
        {
          "internalType": "uint32",
          "name": "_domain",
          "type": "uint32"
        },
        {
          "internalType": "uint32",
          "name": "_mirrorDomain",
          "type": "uint32"
        },
        {
          "internalType": "address",
          "name": "_amb",
          "type": "address"
        },
        {
          "internalType": "address",
          "name": "_rootManager",
          "type": "address"
        },
        {
          "internalType": "address",
          "name": "_mirrorConnector",
          "type": "address"
        },
        {
          "internalType": "uint256",
          "name": "_gasCap",
          "type": "uint256"
        }
      ],
      "stateMutability": "nonpayable",
      "type": "constructor"
    },
    {
      "inputs": [],
      "name": "Connector__processMessage_notUsed",
      "type": "error"
    },
    {
      "inputs": [],
      "name": "ProposedOwnable__onlyOwner_notOwner",
      "type": "error"
    },
    {
      "inputs": [],
      "name": "ProposedOwnable__onlyProposed_notProposedOwner",
      "type": "error"
    },
    {
      "inputs": [],
      "name": "ProposedOwnable__ownershipDelayElapsed_delayNotElapsed",
      "type": "error"
    },
    {
      "inputs": [],
      "name": "ProposedOwnable__proposeNewOwner_invalidProposal",
      "type": "error"
    },
    {
      "inputs": [],
      "name": "ProposedOwnable__proposeNewOwner_noOwnershipChange",
      "type": "error"
    },
    {
      "inputs": [],
      "name": "ProposedOwnable__renounceOwnership_invalidProposal",
      "type": "error"
    },
    {
      "inputs": [],
      "name": "ProposedOwnable__renounceOwnership_noProposal",
      "type": "error"
    },
    {
      "inputs": [],
      "name": "ScrollHubConnector_DataLengthIsNot32",
      "type": "error"
    },
    {
      "inputs": [],
      "name": "ScrollHubConnector_EmptyRefundAddress",
      "type": "error"
    },
    {
      "inputs": [],
      "name": "ScrollHubConnector_OriginSenderIsNotMirror",
      "type": "error"
    },
    {
      "anonymous": false,
      "inputs": [
        {
          "indexed": true,
          "internalType": "address",
          "name": "to",
          "type": "address"
        },
        {
          "indexed": false,
          "internalType": "uint256",
          "name": "amount",
          "type": "uint256"
        }
      ],
      "name": "FundsWithdrawn",
      "type": "event"
    },
    {
      "anonymous": false,
      "inputs": [
        {
          "indexed": false,
          "internalType": "uint256",
          "name": "_previous",
          "type": "uint256"
        },
        {
          "indexed": false,
          "internalType": "uint256",
          "name": "_updated",
          "type": "uint256"
        }
      ],
      "name": "GasCapUpdated",
      "type": "event"
    },
    {
      "anonymous": false,
      "inputs": [
        {
          "indexed": false,
          "internalType": "bytes",
          "name": "data",
          "type": "bytes"
        },
        {
          "indexed": false,
          "internalType": "address",
          "name": "caller",
          "type": "address"
        }
      ],
      "name": "MessageProcessed",
      "type": "event"
    },
    {
      "anonymous": false,
      "inputs": [
        {
          "indexed": false,
          "internalType": "bytes",
          "name": "data",
          "type": "bytes"
        },
        {
          "indexed": false,
          "internalType": "bytes",
          "name": "encodedData",
          "type": "bytes"
        },
        {
          "indexed": false,
          "internalType": "address",
          "name": "caller",
          "type": "address"
        }
      ],
      "name": "MessageSent",
      "type": "event"
    },
    {
      "anonymous": false,
      "inputs": [
        {
          "indexed": false,
          "internalType": "address",
          "name": "previous",
          "type": "address"
        },
        {
          "indexed": false,
          "internalType": "address",
          "name": "current",
          "type": "address"
        }
      ],
      "name": "MirrorConnectorUpdated",
      "type": "event"
    },
    {
      "anonymous": false,
      "inputs": [
        {
          "indexed": true,
          "internalType": "uint32",
          "name": "domain",
          "type": "uint32"
        },
        {
          "indexed": true,
          "internalType": "uint32",
          "name": "mirrorDomain",
          "type": "uint32"
        },
        {
          "indexed": false,
          "internalType": "address",
          "name": "amb",
          "type": "address"
        },
        {
          "indexed": false,
          "internalType": "address",
          "name": "rootManager",
          "type": "address"
        },
        {
          "indexed": false,
          "internalType": "address",
          "name": "mirrorConnector",
          "type": "address"
        }
      ],
      "name": "NewConnector",
      "type": "event"
    },
    {
      "anonymous": false,
      "inputs": [
        {
          "indexed": true,
          "internalType": "address",
          "name": "proposedOwner",
          "type": "address"
        }
      ],
      "name": "OwnershipProposed",
      "type": "event"
    },
    {
      "anonymous": false,
      "inputs": [
        {
          "indexed": true,
          "internalType": "address",
          "name": "previousOwner",
          "type": "address"
        },
        {
          "indexed": true,
          "internalType": "address",
          "name": "newOwner",
          "type": "address"
        }
      ],
      "name": "OwnershipTransferred",
      "type": "event"
    },
    {
      "inputs": [],
      "name": "AMB",
      "outputs": [
        {
          "internalType": "address",
          "name": "",
          "type": "address"
        }
      ],
      "stateMutability": "view",
      "type": "function"
    },
    {
      "inputs": [],
      "name": "DOMAIN",
      "outputs": [
        {
          "internalType": "uint32",
          "name": "",
          "type": "uint32"
        }
      ],
      "stateMutability": "view",
      "type": "function"
    },
    {
      "inputs": [],
      "name": "L1_SCROLL_MESSENGER",
      "outputs": [
        {
          "internalType": "contract IL1ScrollMessenger",
          "name": "",
          "type": "address"
        }
      ],
      "stateMutability": "view",
      "type": "function"
    },
    {
      "inputs": [],
      "name": "MIRROR_DOMAIN",
      "outputs": [
        {
          "internalType": "uint32",
          "name": "",
          "type": "uint32"
        }
      ],
      "stateMutability": "view",
      "type": "function"
    },
    {
      "inputs": [],
      "name": "ROOT_MANAGER",
      "outputs": [
        {
          "internalType": "address",
          "name": "",
          "type": "address"
        }
      ],
      "stateMutability": "view",
      "type": "function"
    },
    {
      "inputs": [],
      "name": "ZERO_MSG_VALUE",
      "outputs": [
        {
          "internalType": "uint256",
          "name": "",
          "type": "uint256"
        }
      ],
      "stateMutability": "view",
      "type": "function"
    },
    {
      "inputs": [],
      "name": "acceptProposedOwner",
      "outputs": [],
      "stateMutability": "nonpayable",
      "type": "function"
    },
    {
      "inputs": [],
      "name": "delay",
      "outputs": [
        {
          "internalType": "uint256",
          "name": "",
          "type": "uint256"
        }
      ],
      "stateMutability": "view",
      "type": "function"
    },
    {
      "inputs": [],
      "name": "gasCap",
      "outputs": [
        {
          "internalType": "uint256",
          "name": "",
          "type": "uint256"
        }
      ],
      "stateMutability": "view",
      "type": "function"
    },
    {
      "inputs": [],
      "name": "mirrorConnector",
      "outputs": [
        {
          "internalType": "address",
          "name": "",
          "type": "address"
        }
      ],
      "stateMutability": "view",
      "type": "function"
    },
    {
      "inputs": [],
      "name": "owner",
      "outputs": [
        {
          "internalType": "address",
          "name": "",
          "type": "address"
        }
      ],
      "stateMutability": "view",
      "type": "function"
    },
    {
      "inputs": [
        {
          "internalType": "bytes",
          "name": "_data",
          "type": "bytes"
        }
      ],
      "name": "processMessage",
      "outputs": [],
      "stateMutability": "nonpayable",
      "type": "function"
    },
    {
      "inputs": [
        {
          "internalType": "address",
          "name": "newlyProposed",
          "type": "address"
        }
      ],
      "name": "proposeNewOwner",
      "outputs": [],
      "stateMutability": "nonpayable",
      "type": "function"
    },
    {
      "inputs": [],
      "name": "proposed",
      "outputs": [
        {
          "internalType": "address",
          "name": "",
          "type": "address"
        }
      ],
      "stateMutability": "view",
      "type": "function"
    },
    {
      "inputs": [],
      "name": "proposedTimestamp",
      "outputs": [
        {
          "internalType": "uint256",
          "name": "",
          "type": "uint256"
        }
      ],
      "stateMutability": "view",
      "type": "function"
    },
    {
      "inputs": [],
      "name": "renounceOwnership",
      "outputs": [],
      "stateMutability": "nonpayable",
      "type": "function"
    },
    {
      "inputs": [],
      "name": "renounced",
      "outputs": [
        {
          "internalType": "bool",
          "name": "",
          "type": "bool"
        }
      ],
      "stateMutability": "view",
      "type": "function"
    },
    {
      "inputs": [
        {
          "internalType": "bytes",
          "name": "_data",
          "type": "bytes"
        },
        {
          "internalType": "bytes",
          "name": "_encodedData",
          "type": "bytes"
        }
      ],
      "name": "sendMessage",
      "outputs": [],
      "stateMutability": "payable",
      "type": "function"
    },
    {
      "inputs": [
        {
          "internalType": "uint256",
          "name": "_gasCap",
          "type": "uint256"
        }
      ],
      "name": "setGasCap",
      "outputs": [],
      "stateMutability": "nonpayable",
      "type": "function"
    },
    {
      "inputs": [
        {
          "internalType": "address",
          "name": "_mirrorConnector",
          "type": "address"
        }
      ],
      "name": "setMirrorConnector",
      "outputs": [],
      "stateMutability": "nonpayable",
      "type": "function"
    },
    {
      "inputs": [
        {
          "internalType": "address",
          "name": "_expected",
          "type": "address"
        }
      ],
      "name": "verifySender",
      "outputs": [
        {
          "internalType": "bool",
          "name": "",
          "type": "bool"
        }
      ],
      "stateMutability": "nonpayable",
      "type": "function"
    },
    {
      "inputs": [
        {
          "internalType": "address",
          "name": "_to",
          "type": "address"
        }
      ],
      "name": "withdrawFunds",
      "outputs": [],
      "stateMutability": "nonpayable",
      "type": "function"
    },
    {
      "stateMutability": "payable",
      "type": "receive"
    }
  ],
  "transactionHash": "0xac23625e1431375d4efe2ebe1c85a68976858cef673aa31dc0b092eba44f90a2",
  "args": [
    "6648936",
    "1935897199",
    "0x6774Bcbd5ceCeF1336b5300fb5186a12DDD8b367",
    "0x0031d290B8526e2Eb6ac22111E5fF96EcA760258",
    "0x0000000000000000000000000000000000000000",
    "200000"
  ],
  "numDeployments": 1,
  "solcInputHash": "825f02436f2e8393996969a8daaca2e0",
  "bytecode": "0x6101206040523480156200001257600080fd5b506040516200150c3803806200150c8339810160408190526200003591620002ec565b8080878787878784848484846200004c33620001ab565b8463ffffffff16600003620000975760405162461bcd60e51b815260206004820152600c60248201526b32b6b83a3c903237b6b0b4b760a11b60448201526064015b60405180910390fd5b6001600160a01b038216620000e35760405162461bcd60e51b815260206004820152601160248201527032b6b83a3c903937b7ba26b0b730b3b2b960791b60448201526064016200008e565b63ffffffff8086166080526001600160a01b0380851660a05283811660c05290851660e0528116156200011b576200011b8162000210565b604080516001600160a01b0385811682528481166020830152831681830152905163ffffffff86811692908816917f4f9c27c2fe3f84576ea469d367d044da53c45e951617e8389f2b5ed8db9d25f09181900360600190a3505050505050505050506200018e816200027960201b60201c565b5050506001600160a01b0390921661010052506200036492505050565b600080546040516001600160a01b03808516939216917f8be0079c531659141344cd1fd0a4f28419497f9722a3daafe3b4186f6b6457e091a3600080546001600160a01b039092166001600160a01b0319928316178155600255600180549091169055565b600354604080516001600160a01b03928316815291831660208301527fc77bec288fc88f168427f2f7da682eadb26cac89d8d591af6e443da98dff2bbc910160405180910390a1600380546001600160a01b0319166001600160a01b0392909216919091179055565b60045460408051918252602082018390527f877a02cb809da0364d23adca3cd50c451b53f279d3df632e1fc11eb66335bce5910160405180910390a1600455565b805163ffffffff81168114620002cf57600080fd5b919050565b80516001600160a01b0381168114620002cf57600080fd5b60008060008060008060c087890312156200030657600080fd5b6200031187620002ba565b95506200032160208801620002ba565b94506200033160408801620002d4565b93506200034160608801620002d4565b92506200035160808801620002d4565b915060a087015190509295509295509295565b60805160a05160c05160e05161010051611139620003d3600039600081816102fe0152818161095f0152610d750152600081816101800152610a6401526000818161027c015281816104700152610a3d01526000818161042301526105250152600061021301526111396000f3fe6080604052600436106101395760003560e01c80636a4a3ed7116100ab578063c5b350df1161006f578063c5b350df14610393578063cc394283146103a8578063d1851c92146103c8578063d232c220146103e6578063d69f9d6114610411578063db1b76591461044557600080fd5b80636a4a3ed7146102ec578063715018a6146103205780637850b020146103355780638da5cb5b14610355578063b1f8100d1461037357600080fd5b806352a9674b116100fd57806352a9674b146102015780635bd11efc146102355780635ef537e3146102555780635f61e3ec1461026a57806368742da6146102b65780636a42b8f8146102d657600080fd5b8063047dbeb814610145578063141684161461016e5780633cf52ffb146101b757806348e6fa23146101cc5780634ff746f6146101e157600080fd5b3661014057005b600080fd5b34801561015157600080fd5b5061015b60045481565b6040519081526020015b60405180910390f35b34801561017a57600080fd5b506101a27f000000000000000000000000000000000000000000000000000000000000000081565b60405163ffffffff9091168152602001610165565b3480156101c357600080fd5b5060025461015b565b6101df6101da366004610ea8565b610465565b005b3480156101ed57600080fd5b506101df6101fc366004610f0c565b61051a565b34801561020d57600080fd5b506101a27f000000000000000000000000000000000000000000000000000000000000000081565b34801561024157600080fd5b506101df610250366004610f5e565b6105c0565b34801561026157600080fd5b5061015b600081565b34801561027657600080fd5b5061029e7f000000000000000000000000000000000000000000000000000000000000000081565b6040516001600160a01b039091168152602001610165565b3480156102c257600080fd5b506101df6102d1366004610f5e565b6105f7565b3480156102e257600080fd5b5062093a8061015b565b3480156102f857600080fd5b5061029e7f000000000000000000000000000000000000000000000000000000000000000081565b34801561032c57600080fd5b506101df610674565b34801561034157600080fd5b506101df610350366004610f82565b610728565b34801561036157600080fd5b506000546001600160a01b031661029e565b34801561037f57600080fd5b506101df61038e366004610f5e565b61075c565b34801561039f57600080fd5b506101df6107fa565b3480156103b457600080fd5b5060035461029e906001600160a01b031681565b3480156103d457600080fd5b506001546001600160a01b031661029e565b3480156103f257600080fd5b506000546001600160a01b0316155b6040519015158152602001610165565b34801561041d57600080fd5b5061029e7f000000000000000000000000000000000000000000000000000000000000000081565b34801561045157600080fd5b50610401610460366004610f5e565b61086a565b336001600160a01b037f000000000000000000000000000000000000000000000000000000000000000016146104d15760405162461bcd60e51b815260206004820152600c60248201526b10b937b7ba26b0b730b3b2b960a11b60448201526064015b60405180910390fd5b6104db828261087b565b7fdcaa37a042a0087de79018c629bbd29cee82ca80bd9be394e1696bf9e935507782823360405161050e93929190610fe1565b60405180910390a15050565b336001600160a01b037f0000000000000000000000000000000000000000000000000000000000000000161461057b5760405162461bcd60e51b81526004016104c89060208082526004908201526310a0a6a160e11b604082015260600190565b610584816109d8565b7fb3abc57bfeebd2cac918901db582f71972a8e628bccf19f5ae3e3482b98a5ced81336040516105b592919061101f565b60405180910390a150565b6000546001600160a01b031633146105eb576040516311a8a1bb60e31b815260040160405180910390fd5b6105f481610aec565b50565b6000546001600160a01b03163314610622576040516311a8a1bb60e31b815260040160405180910390fd5b4761062d8282610b55565b816001600160a01b03167feaff4b37086828766ad3268786972c0cd24259d4c87a80f9d3963a3c3d999b0d8260405161066891815260200190565b60405180910390a25050565b6000546001600160a01b0316331461069f576040516311a8a1bb60e31b815260040160405180910390fd5b62093a80600254426106b19190611049565b116106cf576040516324e0285f60e21b815260040160405180910390fd5b6002546000036106f257604051630e4b303f60e21b815260040160405180910390fd5b6001546001600160a01b03161561071c576040516323295ef960e01b815260040160405180910390fd5b6107266000610c73565b565b6000546001600160a01b03163314610753576040516311a8a1bb60e31b815260040160405180910390fd5b6105f481610cd8565b6000546001600160a01b03163314610787576040516311a8a1bb60e31b815260040160405180910390fd5b6001546001600160a01b0382811691161480156107a5575060025415155b156107c3576040516311bc066560e11b815260040160405180910390fd5b6000546001600160a01b038083169116036107f157604051634a2fb73f60e11b815260040160405180910390fd5b6105f481610d19565b6001546001600160a01b03163314610825576040516311a7f27160e11b815260040160405180910390fd5b62093a80600254426108379190611049565b11610855576040516324e0285f60e21b815260040160405180910390fd5b600154610726906001600160a01b0316610c73565b600061087582610d67565b92915050565b81610887815160201490565b6108a4576040516377dfa04760e01b815260040160405180910390fd5b6000808351116108b55760006108c9565b828060200190518101906108c9919061106a565b90506001600160a01b0381166108f257604051631436655960e21b815260040160405180910390fd5b6000634ff746f660e01b8560405160240161090d9190611087565b60408051601f198184030181529181526020820180516001600160e01b03166001600160e01b031990941693909317909252600354600480549351635f7b157760e01b81529294506001600160a01b037f0000000000000000000000000000000000000000000000000000000000000000811694635f7b157794349461099f94931692600092899290918b910161109a565b6000604051808303818588803b1580156109b857600080fd5b505af11580156109cc573d6000803e3d6000fd5b50505050505050505050565b806109e4815160201490565b610a01576040516377dfa04760e01b815260040160405180910390fd5b600354610a16906001600160a01b0316610d67565b610a33576040516319c42f3560e21b815260040160405180910390fd5b6001600160a01b037f000000000000000000000000000000000000000000000000000000000000000016638e7d93fa7f0000000000000000000000000000000000000000000000000000000000000000610a8c856110dc565b6040516001600160e01b031960e085901b16815263ffffffff9290921660048301526024820152604401600060405180830381600087803b158015610ad057600080fd5b505af1158015610ae4573d6000803e3d6000fd5b505050505050565b600354604080516001600160a01b03928316815291831660208301527fc77bec288fc88f168427f2f7da682eadb26cac89d8d591af6e443da98dff2bbc910160405180910390a1600380546001600160a01b0319166001600160a01b0392909216919091179055565b80471015610ba55760405162461bcd60e51b815260206004820152601d60248201527f416464726573733a20696e73756666696369656e742062616c616e636500000060448201526064016104c8565b6000826001600160a01b03168260405160006040518083038185875af1925050503d8060008114610bf2576040519150601f19603f3d011682016040523d82523d6000602084013e610bf7565b606091505b5050905080610c6e5760405162461bcd60e51b815260206004820152603a60248201527f416464726573733a20756e61626c6520746f2073656e642076616c75652c207260448201527f6563697069656e74206d6179206861766520726576657274656400000000000060648201526084016104c8565b505050565b600080546040516001600160a01b03808516939216917f8be0079c531659141344cd1fd0a4f28419497f9722a3daafe3b4186f6b6457e091a3600080546001600160a01b039092166001600160a01b0319928316178155600255600180549091169055565b60045460408051918252602082018390527f877a02cb809da0364d23adca3cd50c451b53f279d3df632e1fc11eb66335bce5910160405180910390a1600455565b42600255600180546001600160a01b0319166001600160a01b0383169081179091556040517f6ab4d119f23076e8ad491bc65ce85f017fb0591dce08755ba8591059cc51737a90600090a250565b6000816001600160a01b03167f00000000000000000000000000000000000000000000000000000000000000006001600160a01b0316636e296e456040518163ffffffff1660e01b8152600401602060405180830381865afa158015610dd1573d6000803e3d6000fd5b505050506040513d601f19601f82011682018060405250810190610df5919061106a565b6001600160a01b03161492915050565b634e487b7160e01b600052604160045260246000fd5b600082601f830112610e2c57600080fd5b813567ffffffffffffffff80821115610e4757610e47610e05565b604051601f8301601f19908116603f01168101908282118183101715610e6f57610e6f610e05565b81604052838152866020858801011115610e8857600080fd5b836020870160208301376000602085830101528094505050505092915050565b60008060408385031215610ebb57600080fd5b823567ffffffffffffffff80821115610ed357600080fd5b610edf86838701610e1b565b93506020850135915080821115610ef557600080fd5b50610f0285828601610e1b565b9150509250929050565b600060208284031215610f1e57600080fd5b813567ffffffffffffffff811115610f3557600080fd5b610f4184828501610e1b565b949350505050565b6001600160a01b03811681146105f457600080fd5b600060208284031215610f7057600080fd5b8135610f7b81610f49565b9392505050565b600060208284031215610f9457600080fd5b5035919050565b6000815180845260005b81811015610fc157602081850181015186830182015201610fa5565b506000602082860101526020601f19601f83011685010191505092915050565b606081526000610ff46060830186610f9b565b82810360208401526110068186610f9b565b91505060018060a01b0383166040830152949350505050565b6040815260006110326040830185610f9b565b905060018060a01b03831660208301529392505050565b8181038181111561087557634e487b7160e01b600052601160045260246000fd5b60006020828403121561107c57600080fd5b8151610f7b81610f49565b602081526000610f7b6020830184610f9b565b600060018060a01b03808816835286602084015260a060408401526110c260a0840187610f9b565b606084019590955292909216608090910152509392505050565b805160208083015191908110156110fd576000198160200360031b1b821691505b5091905056fea26469706673582212209a9a367978e56231d301648bd4ce017ec152a15f56e6f4fdfca888e701322e1364736f6c63430008110033",
  "devdoc": {
    "kind": "dev",
    "methods": {
      "constructor": {
        "params": {
          "_amb": "Arbitrary Message Bridge address",
          "_domain": "L1 domain",
          "_gasCap": "Gas limit for cross domain message",
          "_mirrorConnector": "Mirror connector address",
          "_mirrorDomain": "L2 domain",
          "_rootManager": "Root manager address"
        }
      },
      "processMessage(bytes)": {
        "details": "This is called by AMBs to process messages originating from mirror connector"
      },
      "sendMessage(bytes,bytes)": {
        "details": "This is called by the root manager *only* on mainnet to propagate the aggregate root"
      },
      "withdrawFunds(address)": {
        "details": "Withdraws the entire balance of the contract.",
        "params": {
          "_to": "The recipient of the funds withdrawn"
        }
      }
    },
    "title": "ScrollHubConnector",
    "version": 1
  },
  "userdoc": {
    "errors": {
      "ScrollHubConnector_DataLengthIsNot32()": [
        {
          "notice": "Thrown when the message length is not 32 bytes"
        }
      ],
      "ScrollHubConnector_EmptyRefundAddress()": [
        {
          "notice": "Thrown when the refund address is empty"
        }
      ],
      "ScrollHubConnector_OriginSenderIsNotMirror()": [
        {
          "notice": "Thrown when the origin sender of the cross domain message is not the mirror connector"
        }
      ]
    },
    "events": {
      "FundsWithdrawn(address,uint256)": {
        "notice": "Emitted when funds are withdrawn by the admin"
      },
      "GasCapUpdated(uint256,uint256)": {
        "notice": "Emitted when admin updates the gas cap"
      },
      "MessageProcessed(bytes,address)": {
        "notice": "Emitted whenever a message is successfully received over an AMB"
      },
      "MessageSent(bytes,bytes,address)": {
        "notice": "Emitted whenever a message is successfully sent over an AMB"
      }
    },
    "kind": "user",
    "methods": {
      "AMB()": {
        "notice": "Address of the AMB on this domain."
      },
      "DOMAIN()": {
        "notice": "The domain of this Messaging (i.e. Connector) contract."
      },
      "L1_SCROLL_MESSENGER()": {
        "notice": "L1 Scroll Messenger"
      },
      "MIRROR_DOMAIN()": {
        "notice": "The domain of the corresponding messaging (i.e. Connector) contract."
      },
      "ROOT_MANAGER()": {
        "notice": "RootManager contract address."
      },
      "ZERO_MSG_VALUE()": {
        "notice": "Constant used to represent the zero value of a message"
      },
      "acceptProposedOwner()": {
        "notice": "Transfers ownership of the contract to a new account (`newOwner`). Can only be called by the current owner."
      },
      "constructor": {
        "notice": "Creates a new ScrollHubConnector instance"
      },
      "delay()": {
        "notice": "Returns the delay period before a new owner can be accepted."
      },
      "gasCap()": {
        "notice": "The gnosis amb requires destination gas to be specified on the origin. The gas used will be passed in by the relayer to allow for real-time estimates, but will be capped at the admin-set cap."
      },
      "mirrorConnector()": {
        "notice": "Connector on L2 for L1 connectors, and vice versa."
      },
      "owner()": {
        "notice": "Returns the address of the current owner."
      },
      "processMessage(bytes)": {
        "notice": "Processes a message received by an AMB"
      },
      "proposeNewOwner(address)": {
        "notice": "Sets the timestamp for an owner to be proposed, and sets the newly proposed owner as step 1 in a 2-step process"
      },
      "proposed()": {
        "notice": "Returns the address of the proposed owner."
      },
      "proposedTimestamp()": {
        "notice": "Returns the address of the proposed owner."
      },
      "renounceOwnership()": {
        "notice": "Renounces ownership of the contract after a delay"
      },
      "renounced()": {
        "notice": "Indicates if the ownership has been renounced() by checking if current owner is address(0)"
      },
      "sendMessage(bytes,bytes)": {
        "notice": "Sends a message over the amb"
      },
      "setMirrorConnector(address)": {
        "notice": "Sets the address of the l2Connector for this domain"
      },
      "verifySender(address)": {
        "notice": "Checks the cross domain sender for a given address"
      },
      "withdrawFunds(address)": {
        "notice": "This function should be callable by owner, and send funds trapped on a connector to the provided recipient."
      }
    },
    "notice": "Scroll Hub Connector contract in charge of sending messages to the L2 Scroll Hub Connector through the L1 Scroll Messenger, and receiving messages from the L2 Scroll Hub Connector through the L1 Scroll Messenger",
    "version": 1
  },
  "storageLayout": {
    "storage": [
      {
        "astId": 4722,
        "contract": "contracts/messaging/connectors/scroll/ScrollHubConnector.sol:ScrollHubConnector",
        "label": "_owner",
        "offset": 0,
        "slot": "0",
        "type": "t_address"
      },
      {
        "astId": 4724,
        "contract": "contracts/messaging/connectors/scroll/ScrollHubConnector.sol:ScrollHubConnector",
        "label": "_proposed",
        "offset": 0,
        "slot": "1",
        "type": "t_address"
      },
      {
        "astId": 4726,
        "contract": "contracts/messaging/connectors/scroll/ScrollHubConnector.sol:ScrollHubConnector",
        "label": "_proposedOwnershipTimestamp",
        "offset": 0,
        "slot": "2",
        "type": "t_uint256"
      },
      {
        "astId": 1629,
        "contract": "contracts/messaging/connectors/scroll/ScrollHubConnector.sol:ScrollHubConnector",
        "label": "mirrorConnector",
        "offset": 0,
        "slot": "3",
        "type": "t_address"
      },
      {
        "astId": 1938,
        "contract": "contracts/messaging/connectors/scroll/ScrollHubConnector.sol:ScrollHubConnector",
        "label": "gasCap",
        "offset": 0,
        "slot": "4",
        "type": "t_uint256"
      }
    ],
    "types": {
      "t_address": {
        "encoding": "inplace",
        "label": "address",
        "numberOfBytes": "20"
      },
      "t_uint256": {
        "encoding": "inplace",
        "label": "uint256",
        "numberOfBytes": "32"
      }
    }
  }
}