{
  "address": "0xD3B338fcE3238C7353Ef44A628f96cB48B2fa0B5",
  "abi": [
    {
      "inputs": [
        {
          "internalType": "uint32",
          "name": "_domain",
          "type": "uint32"
        },
        {
          "internalType": "uint32",
          "name": "_mirrorDomain",
          "type": "uint32"
        },
        {
          "internalType": "address",
          "name": "_amb",
          "type": "address"
        },
        {
          "internalType": "address",
          "name": "_rootManager",
          "type": "address"
        },
        {
          "internalType": "address",
          "name": "_mirrorConnector",
          "type": "address"
        },
        {
          "internalType": "uint32",
          "name": "_mirrorNetworkId",
          "type": "uint32"
        }
      ],
      "stateMutability": "nonpayable",
      "type": "constructor"
    },
    {
      "inputs": [],
      "name": "Connector__processMessage_notUsed",
      "type": "error"
    },
    {
      "inputs": [],
      "name": "ProposedOwnable__onlyOwner_notOwner",
      "type": "error"
    },
    {
      "inputs": [],
      "name": "ProposedOwnable__onlyProposed_notProposedOwner",
      "type": "error"
    },
    {
      "inputs": [],
      "name": "ProposedOwnable__ownershipDelayElapsed_delayNotElapsed",
      "type": "error"
    },
    {
      "inputs": [],
      "name": "ProposedOwnable__proposeNewOwner_invalidProposal",
      "type": "error"
    },
    {
      "inputs": [],
      "name": "ProposedOwnable__proposeNewOwner_noOwnershipChange",
      "type": "error"
    },
    {
      "inputs": [],
      "name": "ProposedOwnable__renounceOwnership_invalidProposal",
      "type": "error"
    },
    {
      "inputs": [],
      "name": "ProposedOwnable__renounceOwnership_noProposal",
      "type": "error"
    },
    {
      "anonymous": false,
      "inputs": [
        {
          "indexed": true,
          "internalType": "address",
          "name": "to",
          "type": "address"
        },
        {
          "indexed": false,
          "internalType": "uint256",
          "name": "amount",
          "type": "uint256"
        }
      ],
      "name": "FundsWithdrawn",
      "type": "event"
    },
    {
      "anonymous": false,
      "inputs": [
        {
          "indexed": false,
          "internalType": "bytes",
          "name": "data",
          "type": "bytes"
        },
        {
          "indexed": false,
          "internalType": "address",
          "name": "caller",
          "type": "address"
        }
      ],
      "name": "MessageProcessed",
      "type": "event"
    },
    {
      "anonymous": false,
      "inputs": [
        {
          "indexed": false,
          "internalType": "bytes",
          "name": "data",
          "type": "bytes"
        },
        {
          "indexed": false,
          "internalType": "bytes",
          "name": "encodedData",
          "type": "bytes"
        },
        {
          "indexed": false,
          "internalType": "address",
          "name": "caller",
          "type": "address"
        }
      ],
      "name": "MessageSent",
      "type": "event"
    },
    {
      "anonymous": false,
      "inputs": [
        {
          "indexed": false,
          "internalType": "address",
          "name": "previous",
          "type": "address"
        },
        {
          "indexed": false,
          "internalType": "address",
          "name": "current",
          "type": "address"
        }
      ],
      "name": "MirrorConnectorUpdated",
      "type": "event"
    },
    {
      "anonymous": false,
      "inputs": [
        {
          "indexed": true,
          "internalType": "uint32",
          "name": "domain",
          "type": "uint32"
        },
        {
          "indexed": true,
          "internalType": "uint32",
          "name": "mirrorDomain",
          "type": "uint32"
        },
        {
          "indexed": false,
          "internalType": "address",
          "name": "amb",
          "type": "address"
        },
        {
          "indexed": false,
          "internalType": "address",
          "name": "rootManager",
          "type": "address"
        },
        {
          "indexed": false,
          "internalType": "address",
          "name": "mirrorConnector",
          "type": "address"
        }
      ],
      "name": "NewConnector",
      "type": "event"
    },
    {
      "anonymous": false,
      "inputs": [
        {
          "indexed": true,
          "internalType": "address",
          "name": "proposedOwner",
          "type": "address"
        }
      ],
      "name": "OwnershipProposed",
      "type": "event"
    },
    {
      "anonymous": false,
      "inputs": [
        {
          "indexed": true,
          "internalType": "address",
          "name": "previousOwner",
          "type": "address"
        },
        {
          "indexed": true,
          "internalType": "address",
          "name": "newOwner",
          "type": "address"
        }
      ],
      "name": "OwnershipTransferred",
      "type": "event"
    },
    {
      "inputs": [],
      "name": "AMB",
      "outputs": [
        {
          "internalType": "address",
          "name": "",
          "type": "address"
        }
      ],
      "stateMutability": "view",
      "type": "function"
    },
    {
      "inputs": [],
      "name": "DOMAIN",
      "outputs": [
        {
          "internalType": "uint32",
          "name": "",
          "type": "uint32"
        }
      ],
      "stateMutability": "view",
      "type": "function"
    },
    {
      "inputs": [],
      "name": "MIRROR_DOMAIN",
      "outputs": [
        {
          "internalType": "uint32",
          "name": "",
          "type": "uint32"
        }
      ],
      "stateMutability": "view",
      "type": "function"
    },
    {
      "inputs": [],
      "name": "ROOT_MANAGER",
      "outputs": [
        {
          "internalType": "address",
          "name": "",
          "type": "address"
        }
      ],
      "stateMutability": "view",
      "type": "function"
    },
    {
      "inputs": [],
      "name": "acceptProposedOwner",
      "outputs": [],
      "stateMutability": "nonpayable",
      "type": "function"
    },
    {
      "inputs": [],
      "name": "delay",
      "outputs": [
        {
          "internalType": "uint256",
          "name": "",
          "type": "uint256"
        }
      ],
      "stateMutability": "view",
      "type": "function"
    },
    {
      "inputs": [],
      "name": "mirrorConnector",
      "outputs": [
        {
          "internalType": "address",
          "name": "",
          "type": "address"
        }
      ],
      "stateMutability": "view",
      "type": "function"
    },
    {
      "inputs": [
        {
          "internalType": "address",
          "name": "originAddress",
          "type": "address"
        },
        {
          "internalType": "uint32",
          "name": "originNetwork",
          "type": "uint32"
        },
        {
          "internalType": "bytes",
          "name": "data",
          "type": "bytes"
        }
      ],
      "name": "onMessageReceived",
      "outputs": [],
      "stateMutability": "payable",
      "type": "function"
    },
    {
      "inputs": [],
      "name": "owner",
      "outputs": [
        {
          "internalType": "address",
          "name": "",
          "type": "address"
        }
      ],
      "stateMutability": "view",
      "type": "function"
    },
    {
      "inputs": [
        {
          "internalType": "bytes",
          "name": "_data",
          "type": "bytes"
        }
      ],
      "name": "processMessage",
      "outputs": [],
      "stateMutability": "nonpayable",
      "type": "function"
    },
    {
      "inputs": [
        {
          "internalType": "address",
          "name": "newlyProposed",
          "type": "address"
        }
      ],
      "name": "proposeNewOwner",
      "outputs": [],
      "stateMutability": "nonpayable",
      "type": "function"
    },
    {
      "inputs": [],
      "name": "proposed",
      "outputs": [
        {
          "internalType": "address",
          "name": "",
          "type": "address"
        }
      ],
      "stateMutability": "view",
      "type": "function"
    },
    {
      "inputs": [],
      "name": "proposedTimestamp",
      "outputs": [
        {
          "internalType": "uint256",
          "name": "",
          "type": "uint256"
        }
      ],
      "stateMutability": "view",
      "type": "function"
    },
    {
      "inputs": [],
      "name": "renounceOwnership",
      "outputs": [],
      "stateMutability": "nonpayable",
      "type": "function"
    },
    {
      "inputs": [],
      "name": "renounced",
      "outputs": [
        {
          "internalType": "bool",
          "name": "",
          "type": "bool"
        }
      ],
      "stateMutability": "view",
      "type": "function"
    },
    {
      "inputs": [
        {
          "internalType": "bytes",
          "name": "_data",
          "type": "bytes"
        },
        {
          "internalType": "bytes",
          "name": "_encodedData",
          "type": "bytes"
        }
      ],
      "name": "sendMessage",
      "outputs": [],
      "stateMutability": "payable",
      "type": "function"
    },
    {
      "inputs": [
        {
          "internalType": "address",
          "name": "_mirrorConnector",
          "type": "address"
        }
      ],
      "name": "setMirrorConnector",
      "outputs": [],
      "stateMutability": "nonpayable",
      "type": "function"
    },
    {
      "inputs": [
        {
          "internalType": "address",
          "name": "_expected",
          "type": "address"
        }
      ],
      "name": "verifySender",
      "outputs": [
        {
          "internalType": "bool",
          "name": "",
          "type": "bool"
        }
      ],
      "stateMutability": "nonpayable",
      "type": "function"
    },
    {
      "inputs": [
        {
          "internalType": "address",
          "name": "_to",
          "type": "address"
        }
      ],
      "name": "withdrawFunds",
      "outputs": [],
      "stateMutability": "nonpayable",
      "type": "function"
    },
    {
      "stateMutability": "payable",
      "type": "receive"
    }
  ],
  "transactionHash": "0xcbd9a7305bc3be6503f535a37d579c2bda35b5f4322af802c923fdf1f323b097",
  "args": [
    "6648936",
    "2020368761",
    "0x2a3DD3EB832aF982ec71669E178424b10Dca2EDe",
    "0x0031d290B8526e2Eb6ac22111E5fF96EcA760258",
    "0x0000000000000000000000000000000000000000",
    "3"
  ],
  "numDeployments": 1,
  "solcInputHash": "538258e795c565caa3acdc2019dbc3c9",
  "bytecode": "0x6101206040523480156200001257600080fd5b506040516200148838038062001488833981016040819052620000359162000295565b80868686868684848484846200004b3362000195565b8463ffffffff16600003620000965760405162461bcd60e51b815260206004820152600c60248201526b32b6b83a3c903237b6b0b4b760a11b60448201526064015b60405180910390fd5b6001600160a01b038216620000e25760405162461bcd60e51b815260206004820152601160248201527032b6b83a3c903937b7ba26b0b730b3b2b960791b60448201526064016200008d565b63ffffffff8086166080526001600160a01b0380851660a05283811660c05290851660e0528116156200011a576200011a81620001fa565b604080516001600160a01b0385811682528481166020830152831681830152905163ffffffff86811692908816917f4f9c27c2fe3f84576ea469d367d044da53c45e951617e8389f2b5ed8db9d25f09181900360600190a350505063ffffffff9097166101005250620003169b505050505050505050505050565b600080546040516001600160a01b03808516939216917f8be0079c531659141344cd1fd0a4f28419497f9722a3daafe3b4186f6b6457e091a3600080546001600160a01b039092166001600160a01b0319928316178155600255600180549091169055565b600354604080516001600160a01b03928316815291831660208301527fc77bec288fc88f168427f2f7da682eadb26cac89d8d591af6e443da98dff2bbc910160405180910390a1600380546001600160a01b0319166001600160a01b0392909216919091179055565b805163ffffffff811681146200027857600080fd5b919050565b80516001600160a01b03811681146200027857600080fd5b60008060008060008060c08789031215620002af57600080fd5b620002ba8762000263565b9550620002ca6020880162000263565b9450620002da604088016200027d565b9350620002ea606088016200027d565b9250620002fa608088016200027d565b91506200030a60a0880162000263565b90509295509295509295565b60805160a05160c05160e051610100516110fc6200038c600039600081816103d60152610d3c01526000818161013601526108e201526000818161023f0152818161049b01526108bb0152600081816103920152818161054b015281816109a00152610c2f015260006101eb01526110fc6000f3fe6080604052600436106101185760003560e01c80636a42b8f8116100a0578063cc39428311610064578063cc39428314610317578063d1851c9214610337578063d232c22014610355578063d69f9d6114610380578063db1b7659146103b457600080fd5b80636a42b8f814610299578063715018a6146102af5780638da5cb5b146102c4578063b1f8100d146102e2578063c5b350df1461030257600080fd5b80634ff746f6116100e75780634ff746f6146101b957806352a9674b146101d95780635bd11efc1461020d5780635f61e3ec1461022d57806368742da61461027957600080fd5b806314168416146101245780631806b5f2146101725780633cf52ffb1461018757806348e6fa23146101a657600080fd5b3661011f57005b600080fd5b34801561013057600080fd5b506101587f000000000000000000000000000000000000000000000000000000000000000081565b60405163ffffffff90911681526020015b60405180910390f35b610185610180366004610e62565b6103d4565b005b34801561019357600080fd5b506002545b604051908152602001610169565b6101856101b4366004610ecb565b610490565b3480156101c557600080fd5b506101856101d4366004610f2f565b610540565b3480156101e557600080fd5b506101587f000000000000000000000000000000000000000000000000000000000000000081565b34801561021957600080fd5b50610185610228366004610f6c565b6105e6565b34801561023957600080fd5b506102617f000000000000000000000000000000000000000000000000000000000000000081565b6040516001600160a01b039091168152602001610169565b34801561028557600080fd5b50610185610294366004610f6c565b61061d565b3480156102a557600080fd5b5062093a80610198565b3480156102bb57600080fd5b5061018561069a565b3480156102d057600080fd5b506000546001600160a01b0316610261565b3480156102ee57600080fd5b506101856102fd366004610f6c565b61074e565b34801561030e57600080fd5b506101856107ec565b34801561032357600080fd5b50600354610261906001600160a01b031681565b34801561034357600080fd5b506001546001600160a01b0316610261565b34801561036157600080fd5b506000546001600160a01b0316155b6040519015158152602001610169565b34801561038c57600080fd5b506102617f000000000000000000000000000000000000000000000000000000000000000081565b3480156103c057600080fd5b506103706103cf366004610f6c565b61085c565b7f000000000000000000000000000000000000000000000000000000000000000063ffffffff168263ffffffff16146104465760405162461bcd60e51b815260206004820152600f60248201526e216d6972726f72206e6574776f726b60881b60448201526064015b60405180910390fd5b80516020146104815760405162461bcd60e51b8152602060048201526007602482015266042d8cadccee8d60cb1b604482015260640161043d565b61048b838261086d565b505050565b336001600160a01b037f000000000000000000000000000000000000000000000000000000000000000016146104f75760405162461bcd60e51b815260206004820152600c60248201526b10b937b7ba26b0b730b3b2b960a11b604482015260640161043d565b6105018282610997565b7fdcaa37a042a0087de79018c629bbd29cee82ca80bd9be394e1696bf9e935507782823360405161053493929190610fd4565b60405180910390a15050565b336001600160a01b037f000000000000000000000000000000000000000000000000000000000000000016146105a15760405162461bcd60e51b815260040161043d9060208082526004908201526310a0a6a160e11b604082015260600190565b6105aa816109d4565b7fb3abc57bfeebd2cac918901db582f71972a8e628bccf19f5ae3e3482b98a5ced81336040516105db929190611012565b60405180910390a150565b6000546001600160a01b03163314610611576040516311a8a1bb60e31b815260040160405180910390fd5b61061a816109ed565b50565b6000546001600160a01b03163314610648576040516311a8a1bb60e31b815260040160405180910390fd5b476106538282610a56565b816001600160a01b03167feaff4b37086828766ad3268786972c0cd24259d4c87a80f9d3963a3c3d999b0d8260405161068e91815260200190565b60405180910390a25050565b6000546001600160a01b031633146106c5576040516311a8a1bb60e31b815260040160405180910390fd5b62093a80600254426106d7919061103c565b116106f5576040516324e0285f60e21b815260040160405180910390fd5b60025460000361071857604051630e4b303f60e21b815260040160405180910390fd5b6001546001600160a01b031615610742576040516323295ef960e01b815260040160405180910390fd5b61074c6000610b6f565b565b6000546001600160a01b03163314610779576040516311a8a1bb60e31b815260040160405180910390fd5b6001546001600160a01b038281169116148015610797575060025415155b156107b5576040516311bc066560e11b815260040160405180910390fd5b6000546001600160a01b038083169116036107e357604051634a2fb73f60e11b815260040160405180910390fd5b61061a81610bd4565b6001546001600160a01b03163314610817576040516311a7f27160e11b815260040160405180910390fd5b62093a8060025442610829919061103c565b11610847576040516324e0285f60e21b815260040160405180910390fd5b60015461074c906001600160a01b0316610b6f565b600061086782610c22565b92915050565b61087682610c22565b6108b15760405162461bcd60e51b815260206004820152600c60248201526b10b61921b7b73732b1ba37b960a11b604482015260640161043d565b6001600160a01b037f000000000000000000000000000000000000000000000000000000000000000016638e7d93fa7f000000000000000000000000000000000000000000000000000000000000000061090a8461105d565b6040516001600160e01b031960e085901b16815263ffffffff9290921660048301526024820152604401600060405180830381600087803b15801561094e57600080fd5b505af1158015610962573d6000803e3d6000fd5b505050507fb3abc57bfeebd2cac918901db582f71972a8e628bccf19f5ae3e3482b98a5ced8133604051610534929190611012565b6003546109d0907f0000000000000000000000000000000000000000000000000000000000000000906001600160a01b03168484610c9a565b5050565b6040516316c2fdb560e21b815260040160405180910390fd5b600354604080516001600160a01b03928316815291831660208301527fc77bec288fc88f168427f2f7da682eadb26cac89d8d591af6e443da98dff2bbc910160405180910390a1600380546001600160a01b0319166001600160a01b0392909216919091179055565b80471015610aa65760405162461bcd60e51b815260206004820152601d60248201527f416464726573733a20696e73756666696369656e742062616c616e6365000000604482015260640161043d565b6000826001600160a01b03168260405160006040518083038185875af1925050503d8060008114610af3576040519150601f19603f3d011682016040523d82523d6000602084013e610af8565b606091505b505090508061048b5760405162461bcd60e51b815260206004820152603a60248201527f416464726573733a20756e61626c6520746f2073656e642076616c75652c207260448201527f6563697069656e74206d61792068617665207265766572746564000000000000606482015260840161043d565b600080546040516001600160a01b03808516939216917f8be0079c531659141344cd1fd0a4f28419497f9722a3daafe3b4186f6b6457e091a3600080546001600160a01b039092166001600160a01b0319928316178155600255600180549091169055565b42600255600180546001600160a01b0319166001600160a01b0383169081179091556040517f6ab4d119f23076e8ad491bc65ce85f017fb0591dce08755ba8591059cc51737a90600090a250565b6000336001600160a01b037f00000000000000000000000000000000000000000000000000000000000000001614610c855760405162461bcd60e51b815260040161043d9060208082526004908201526310b0b6b160e11b604082015260600190565b506003546001600160a01b0391821691161490565b8151602014610cda5760405162461bcd60e51b815260206004820152600c60248201526b042c8c2e8c240d8cadccee8d60a31b604482015260640161043d565b805115610d185760405162461bcd60e51b815260206004820152600c60248201526b042c8c2e8c240d8cadccee8d60a31b604482015260640161043d565b604051630481fe6f60e31b81526001600160a01b0385169063240ff37890610d6b907f00000000000000000000000000000000000000000000000000000000000000009087906001908890600401611084565b600060405180830381600087803b158015610d8557600080fd5b505af1158015610d99573d6000803e3d6000fd5b5050505050505050565b80356001600160a01b0381168114610dba57600080fd5b919050565b634e487b7160e01b600052604160045260246000fd5b600082601f830112610de657600080fd5b813567ffffffffffffffff80821115610e0157610e01610dbf565b604051601f8301601f19908116603f01168101908282118183101715610e2957610e29610dbf565b81604052838152866020858801011115610e4257600080fd5b836020870160208301376000602085830101528094505050505092915050565b600080600060608486031215610e7757600080fd5b610e8084610da3565b9250602084013563ffffffff81168114610e9957600080fd5b9150604084013567ffffffffffffffff811115610eb557600080fd5b610ec186828701610dd5565b9150509250925092565b60008060408385031215610ede57600080fd5b823567ffffffffffffffff80821115610ef657600080fd5b610f0286838701610dd5565b93506020850135915080821115610f1857600080fd5b50610f2585828601610dd5565b9150509250929050565b600060208284031215610f4157600080fd5b813567ffffffffffffffff811115610f5857600080fd5b610f6484828501610dd5565b949350505050565b600060208284031215610f7e57600080fd5b610f8782610da3565b9392505050565b6000815180845260005b81811015610fb457602081850181015186830182015201610f98565b506000602082860101526020601f19601f83011685010191505092915050565b606081526000610fe76060830186610f8e565b8281036020840152610ff98186610f8e565b91505060018060a01b0383166040830152949350505050565b6040815260006110256040830185610f8e565b905060018060a01b03831660208301529392505050565b8181038181111561086757634e487b7160e01b600052601160045260246000fd5b8051602080830151919081101561107e576000198160200360031b1b821691505b50919050565b63ffffffff851681526001600160a01b038416602082015282151560408201526080606082018190526000906110bc90830184610f8e565b969550505050505056fea26469706673582212209394206d08b2e4969f11ffe4457e18d244b974a8aaabcc501cd0dcc7703482f664736f6c63430008110033",
  "devdoc": {
    "kind": "dev",
    "methods": {
      "processMessage(bytes)": {
        "details": "This is called by AMBs to process messages originating from mirror connector"
      },
      "sendMessage(bytes,bytes)": {
        "details": "This is called by the root manager *only* on mainnet to propagate the aggregate root"
      },
      "withdrawFunds(address)": {
        "details": "Withdraws the entire balance of the contract.",
        "params": {
          "_to": "The recipient of the funds withdrawn"
        }
      }
    },
    "version": 1
  },
  "userdoc": {
    "events": {
      "FundsWithdrawn(address,uint256)": {
        "notice": "Emitted when funds are withdrawn by the admin"
      },
      "MessageProcessed(bytes,address)": {
        "notice": "Emitted whenever a message is successfully received over an AMB"
      },
      "MessageSent(bytes,bytes,address)": {
        "notice": "Emitted whenever a message is successfully sent over an AMB"
      }
    },
    "kind": "user",
    "methods": {
      "AMB()": {
        "notice": "Address of the AMB on this domain."
      },
      "DOMAIN()": {
        "notice": "The domain of this Messaging (i.e. Connector) contract."
      },
      "MIRROR_DOMAIN()": {
        "notice": "The domain of the corresponding messaging (i.e. Connector) contract."
      },
      "ROOT_MANAGER()": {
        "notice": "RootManager contract address."
      },
      "acceptProposedOwner()": {
        "notice": "Transfers ownership of the contract to a new account (`newOwner`). Can only be called by the current owner."
      },
      "delay()": {
        "notice": "Returns the delay period before a new owner can be accepted."
      },
      "mirrorConnector()": {
        "notice": "Connector on L2 for L1 connectors, and vice versa."
      },
      "onMessageReceived(address,uint32,bytes)": {
        "notice": "This function is called by the PolygonZkEVMBridge to handle incoming messages. while handling claimMessage"
      },
      "owner()": {
        "notice": "Returns the address of the current owner."
      },
      "processMessage(bytes)": {
        "notice": "Processes a message received by an AMB"
      },
      "proposeNewOwner(address)": {
        "notice": "Sets the timestamp for an owner to be proposed, and sets the newly proposed owner as step 1 in a 2-step process"
      },
      "proposed()": {
        "notice": "Returns the address of the proposed owner."
      },
      "proposedTimestamp()": {
        "notice": "Returns the address of the proposed owner."
      },
      "renounceOwnership()": {
        "notice": "Renounces ownership of the contract after a delay"
      },
      "renounced()": {
        "notice": "Indicates if the ownership has been renounced() by checking if current owner is address(0)"
      },
      "sendMessage(bytes,bytes)": {
        "notice": "Sends a message over the amb"
      },
      "setMirrorConnector(address)": {
        "notice": "Sets the address of the l2Connector for this domain"
      },
      "verifySender(address)": {
        "notice": "Checks the cross domain sender for a given address"
      },
      "withdrawFunds(address)": {
        "notice": "This function should be callable by owner, and send funds trapped on a connector to the provided recipient."
      }
    },
    "version": 1
  },
  "storageLayout": {
    "storage": [
      {
        "astId": 4674,
        "contract": "contracts/messaging/connectors/polygonzk/PolygonZkHubConnector.sol:PolygonZkHubConnector",
        "label": "_owner",
        "offset": 0,
        "slot": "0",
        "type": "t_address"
      },
      {
        "astId": 4676,
        "contract": "contracts/messaging/connectors/polygonzk/PolygonZkHubConnector.sol:PolygonZkHubConnector",
        "label": "_proposed",
        "offset": 0,
        "slot": "1",
        "type": "t_address"
      },
      {
        "astId": 4678,
        "contract": "contracts/messaging/connectors/polygonzk/PolygonZkHubConnector.sol:PolygonZkHubConnector",
        "label": "_proposedOwnershipTimestamp",
        "offset": 0,
        "slot": "2",
        "type": "t_uint256"
      },
      {
        "astId": 1629,
        "contract": "contracts/messaging/connectors/polygonzk/PolygonZkHubConnector.sol:PolygonZkHubConnector",
        "label": "mirrorConnector",
        "offset": 0,
        "slot": "3",
        "type": "t_address"
      }
    ],
    "types": {
      "t_address": {
        "encoding": "inplace",
        "label": "address",
        "numberOfBytes": "20"
      },
      "t_uint256": {
        "encoding": "inplace",
        "label": "uint256",
        "numberOfBytes": "32"
      }
    }
  }
}