{
  "address": "0x18a7a4e4C70fcec6Eb4844eb84bc98523F58b898",
  "abi": [
    {
      "inputs": [
        {
          "internalType": "uint32",
          "name": "_domain",
          "type": "uint32"
        },
        {
          "internalType": "uint32",
          "name": "_mirrorDomain",
          "type": "uint32"
        },
        {
          "internalType": "address",
          "name": "_amb",
          "type": "address"
        },
        {
          "internalType": "address",
          "name": "_rootManager",
          "type": "address"
        },
        {
          "internalType": "address",
          "name": "_mirrorConnector",
          "type": "address"
        },
        {
          "internalType": "uint256",
          "name": "_gasCap",
          "type": "uint256"
        }
      ],
      "stateMutability": "nonpayable",
      "type": "constructor"
    },
    {
      "inputs": [],
      "name": "Connector__processMessage_notUsed",
      "type": "error"
    },
    {
      "inputs": [],
      "name": "ProposedOwnable__onlyOwner_notOwner",
      "type": "error"
    },
    {
      "inputs": [],
      "name": "ProposedOwnable__onlyProposed_notProposedOwner",
      "type": "error"
    },
    {
      "inputs": [],
      "name": "ProposedOwnable__ownershipDelayElapsed_delayNotElapsed",
      "type": "error"
    },
    {
      "inputs": [],
      "name": "ProposedOwnable__proposeNewOwner_invalidProposal",
      "type": "error"
    },
    {
      "inputs": [],
      "name": "ProposedOwnable__proposeNewOwner_noOwnershipChange",
      "type": "error"
    },
    {
      "inputs": [],
      "name": "ProposedOwnable__renounceOwnership_invalidProposal",
      "type": "error"
    },
    {
      "inputs": [],
      "name": "ProposedOwnable__renounceOwnership_noProposal",
      "type": "error"
    },
    {
      "anonymous": false,
      "inputs": [
        {
          "indexed": true,
          "internalType": "address",
          "name": "to",
          "type": "address"
        },
        {
          "indexed": false,
          "internalType": "uint256",
          "name": "amount",
          "type": "uint256"
        }
      ],
      "name": "FundsWithdrawn",
      "type": "event"
    },
    {
      "anonymous": false,
      "inputs": [
        {
          "indexed": false,
          "internalType": "uint256",
          "name": "_previous",
          "type": "uint256"
        },
        {
          "indexed": false,
          "internalType": "uint256",
          "name": "_updated",
          "type": "uint256"
        }
      ],
      "name": "GasCapUpdated",
      "type": "event"
    },
    {
      "anonymous": false,
      "inputs": [
        {
          "indexed": false,
          "internalType": "bytes",
          "name": "data",
          "type": "bytes"
        },
        {
          "indexed": false,
          "internalType": "address",
          "name": "caller",
          "type": "address"
        }
      ],
      "name": "MessageProcessed",
      "type": "event"
    },
    {
      "anonymous": false,
      "inputs": [
        {
          "indexed": false,
          "internalType": "bytes",
          "name": "data",
          "type": "bytes"
        },
        {
          "indexed": false,
          "internalType": "bytes",
          "name": "encodedData",
          "type": "bytes"
        },
        {
          "indexed": false,
          "internalType": "address",
          "name": "caller",
          "type": "address"
        }
      ],
      "name": "MessageSent",
      "type": "event"
    },
    {
      "anonymous": false,
      "inputs": [
        {
          "indexed": false,
          "internalType": "address",
          "name": "previous",
          "type": "address"
        },
        {
          "indexed": false,
          "internalType": "address",
          "name": "current",
          "type": "address"
        }
      ],
      "name": "MirrorConnectorUpdated",
      "type": "event"
    },
    {
      "anonymous": false,
      "inputs": [
        {
          "indexed": true,
          "internalType": "uint32",
          "name": "domain",
          "type": "uint32"
        },
        {
          "indexed": true,
          "internalType": "uint32",
          "name": "mirrorDomain",
          "type": "uint32"
        },
        {
          "indexed": false,
          "internalType": "address",
          "name": "amb",
          "type": "address"
        },
        {
          "indexed": false,
          "internalType": "address",
          "name": "rootManager",
          "type": "address"
        },
        {
          "indexed": false,
          "internalType": "address",
          "name": "mirrorConnector",
          "type": "address"
        }
      ],
      "name": "NewConnector",
      "type": "event"
    },
    {
      "anonymous": false,
      "inputs": [
        {
          "indexed": true,
          "internalType": "address",
          "name": "proposedOwner",
          "type": "address"
        }
      ],
      "name": "OwnershipProposed",
      "type": "event"
    },
    {
      "anonymous": false,
      "inputs": [
        {
          "indexed": true,
          "internalType": "address",
          "name": "previousOwner",
          "type": "address"
        },
        {
          "indexed": true,
          "internalType": "address",
          "name": "newOwner",
          "type": "address"
        }
      ],
      "name": "OwnershipTransferred",
      "type": "event"
    },
    {
      "inputs": [],
      "name": "AMB",
      "outputs": [
        {
          "internalType": "address",
          "name": "",
          "type": "address"
        }
      ],
      "stateMutability": "view",
      "type": "function"
    },
    {
      "inputs": [],
      "name": "DOMAIN",
      "outputs": [
        {
          "internalType": "uint32",
          "name": "",
          "type": "uint32"
        }
      ],
      "stateMutability": "view",
      "type": "function"
    },
    {
      "inputs": [],
      "name": "MIRROR_DOMAIN",
      "outputs": [
        {
          "internalType": "uint32",
          "name": "",
          "type": "uint32"
        }
      ],
      "stateMutability": "view",
      "type": "function"
    },
    {
      "inputs": [],
      "name": "ROOT_MANAGER",
      "outputs": [
        {
          "internalType": "address",
          "name": "",
          "type": "address"
        }
      ],
      "stateMutability": "view",
      "type": "function"
    },
    {
      "inputs": [],
      "name": "acceptProposedOwner",
      "outputs": [],
      "stateMutability": "nonpayable",
      "type": "function"
    },
    {
      "inputs": [],
      "name": "delay",
      "outputs": [
        {
          "internalType": "uint256",
          "name": "",
          "type": "uint256"
        }
      ],
      "stateMutability": "view",
      "type": "function"
    },
    {
      "inputs": [],
      "name": "gasCap",
      "outputs": [
        {
          "internalType": "uint256",
          "name": "",
          "type": "uint256"
        }
      ],
      "stateMutability": "view",
      "type": "function"
    },
    {
      "inputs": [],
      "name": "mirrorConnector",
      "outputs": [
        {
          "internalType": "address",
          "name": "",
          "type": "address"
        }
      ],
      "stateMutability": "view",
      "type": "function"
    },
    {
      "inputs": [],
      "name": "owner",
      "outputs": [
        {
          "internalType": "address",
          "name": "",
          "type": "address"
        }
      ],
      "stateMutability": "view",
      "type": "function"
    },
    {
      "inputs": [
        {
          "internalType": "bytes",
          "name": "_data",
          "type": "bytes"
        }
      ],
      "name": "processMessage",
      "outputs": [],
      "stateMutability": "nonpayable",
      "type": "function"
    },
    {
      "inputs": [
        {
          "internalType": "uint32",
          "name": "_l2BlockNumber",
          "type": "uint32"
        },
        {
          "internalType": "uint256",
          "name": "_l2MessageIndex",
          "type": "uint256"
        },
        {
          "internalType": "uint16",
          "name": "_l2TxNumberInBlock",
          "type": "uint16"
        },
        {
          "internalType": "bytes",
          "name": "_message",
          "type": "bytes"
        },
        {
          "internalType": "bytes32[]",
          "name": "_proof",
          "type": "bytes32[]"
        }
      ],
      "name": "processMessageFromRoot",
      "outputs": [],
      "stateMutability": "nonpayable",
      "type": "function"
    },
    {
      "inputs": [
        {
          "internalType": "bytes32",
          "name": "",
          "type": "bytes32"
        }
      ],
      "name": "processed",
      "outputs": [
        {
          "internalType": "bool",
          "name": "",
          "type": "bool"
        }
      ],
      "stateMutability": "view",
      "type": "function"
    },
    {
      "inputs": [
        {
          "internalType": "address",
          "name": "newlyProposed",
          "type": "address"
        }
      ],
      "name": "proposeNewOwner",
      "outputs": [],
      "stateMutability": "nonpayable",
      "type": "function"
    },
    {
      "inputs": [],
      "name": "proposed",
      "outputs": [
        {
          "internalType": "address",
          "name": "",
          "type": "address"
        }
      ],
      "stateMutability": "view",
      "type": "function"
    },
    {
      "inputs": [],
      "name": "proposedTimestamp",
      "outputs": [
        {
          "internalType": "uint256",
          "name": "",
          "type": "uint256"
        }
      ],
      "stateMutability": "view",
      "type": "function"
    },
    {
      "inputs": [],
      "name": "renounceOwnership",
      "outputs": [],
      "stateMutability": "nonpayable",
      "type": "function"
    },
    {
      "inputs": [],
      "name": "renounced",
      "outputs": [
        {
          "internalType": "bool",
          "name": "",
          "type": "bool"
        }
      ],
      "stateMutability": "view",
      "type": "function"
    },
    {
      "inputs": [
        {
          "internalType": "bytes",
          "name": "_data",
          "type": "bytes"
        },
        {
          "internalType": "bytes",
          "name": "_encodedData",
          "type": "bytes"
        }
      ],
      "name": "sendMessage",
      "outputs": [],
      "stateMutability": "payable",
      "type": "function"
    },
    {
      "inputs": [
        {
          "internalType": "uint256",
          "name": "_gasCap",
          "type": "uint256"
        }
      ],
      "name": "setGasCap",
      "outputs": [],
      "stateMutability": "nonpayable",
      "type": "function"
    },
    {
      "inputs": [
        {
          "internalType": "address",
          "name": "_mirrorConnector",
          "type": "address"
        }
      ],
      "name": "setMirrorConnector",
      "outputs": [],
      "stateMutability": "nonpayable",
      "type": "function"
    },
    {
      "inputs": [
        {
          "internalType": "address",
          "name": "_expected",
          "type": "address"
        }
      ],
      "name": "verifySender",
      "outputs": [
        {
          "internalType": "bool",
          "name": "",
          "type": "bool"
        }
      ],
      "stateMutability": "nonpayable",
      "type": "function"
    },
    {
      "inputs": [
        {
          "internalType": "address",
          "name": "_to",
          "type": "address"
        }
      ],
      "name": "withdrawFunds",
      "outputs": [],
      "stateMutability": "nonpayable",
      "type": "function"
    },
    {
      "stateMutability": "payable",
      "type": "receive"
    }
  ],
  "transactionHash": "0x0c28f6f82766bf5b06bf978e6f8bf88bf74fb6db3a8a56567ce80a4778c49c5d",
  "args": [
    "6648936",
    "2053862243",
    "0x32400084c286cf3e17e7b677ea9583e60a000324",
    "0x0031d290B8526e2Eb6ac22111E5fF96EcA760258",
    "0x0000000000000000000000000000000000000000",
    "850000"
  ],
  "numDeployments": 1,
  "solcInputHash": "6ba9340b79f8dcc31c12e4fcb8cd7f90",
  "bytecode": "0x6101006040523480156200001257600080fd5b5060405162001a5038038062001a508339810160408190526200003591620002db565b80868686868684848484846200004b336200019a565b8463ffffffff16600003620000965760405162461bcd60e51b815260206004820152600c60248201526b32b6b83a3c903237b6b0b4b760a11b60448201526064015b60405180910390fd5b6001600160a01b038216620000e25760405162461bcd60e51b815260206004820152601160248201527032b6b83a3c903937b7ba26b0b730b3b2b960791b60448201526064016200008d565b63ffffffff8086166080526001600160a01b0380851660a05283811660c05290851660e0528116156200011a576200011a81620001ff565b604080516001600160a01b0385811682528481166020830152831681830152905163ffffffff86811692908816917f4f9c27c2fe3f84576ea469d367d044da53c45e951617e8389f2b5ed8db9d25f09181900360600190a3505050505050505050506200018d816200026860201b60201c565b5050505050505062000353565b600080546040516001600160a01b03808516939216917f8be0079c531659141344cd1fd0a4f28419497f9722a3daafe3b4186f6b6457e091a3600080546001600160a01b039092166001600160a01b0319928316178155600255600180549091169055565b600354604080516001600160a01b03928316815291831660208301527fc77bec288fc88f168427f2f7da682eadb26cac89d8d591af6e443da98dff2bbc910160405180910390a1600380546001600160a01b0319166001600160a01b0392909216919091179055565b60045460408051918252602082018390527f877a02cb809da0364d23adca3cd50c451b53f279d3df632e1fc11eb66335bce5910160405180910390a1600455565b805163ffffffff81168114620002be57600080fd5b919050565b80516001600160a01b0381168114620002be57600080fd5b60008060008060008060c08789031215620002f557600080fd5b6200030087620002a9565b95506200031060208801620002a9565b94506200032060408801620002c3565b93506200033060608801620002c3565b92506200034060808801620002c3565b915060a087015190509295509295509295565b60805160a05160c05160e051611692620003be600039600081816101800152610a6f0152600081816102670152818161047b0152610aaa01526000818161040e01528181610530015281816108f501528181610c690152610d200152600061021301526116926000f3fe6080604052600436106101395760003560e01c80637850b020116100ab578063cc3942831161006f578063cc3942831461039f578063d1851c92146103bf578063d232c220146103dd578063d69f9d61146103fc578063db1b765914610430578063e92a492f1461045057600080fd5b80637850b020146102ec5780638da5cb5b1461030c578063b1f8100d1461032a578063c1f0808a1461034a578063c5b350df1461038a57600080fd5b806352a9674b116100fd57806352a9674b146102015780635bd11efc146102355780635f61e3ec1461025557806368742da6146102a15780636a42b8f8146102c1578063715018a6146102d757600080fd5b8063047dbeb814610145578063141684161461016e5780633cf52ffb146101b757806348e6fa23146101cc5780634ff746f6146101e157600080fd5b3661014057005b600080fd5b34801561015157600080fd5b5061015b60045481565b6040519081526020015b60405180910390f35b34801561017a57600080fd5b506101a27f000000000000000000000000000000000000000000000000000000000000000081565b60405163ffffffff9091168152602001610165565b3480156101c357600080fd5b5060025461015b565b6101df6101da366004611142565b610470565b005b3480156101ed57600080fd5b506101df6101fc3660046111a6565b610525565b34801561020d57600080fd5b506101a27f000000000000000000000000000000000000000000000000000000000000000081565b34801561024157600080fd5b506101df6102503660046111f8565b6105cb565b34801561026157600080fd5b506102897f000000000000000000000000000000000000000000000000000000000000000081565b6040516001600160a01b039091168152602001610165565b3480156102ad57600080fd5b506101df6102bc3660046111f8565b610602565b3480156102cd57600080fd5b5062093a8061015b565b3480156102e357600080fd5b506101df61067f565b3480156102f857600080fd5b506101df61030736600461121c565b610733565b34801561031857600080fd5b506000546001600160a01b0316610289565b34801561033657600080fd5b506101df6103453660046111f8565b610767565b34801561035657600080fd5b5061037a61036536600461121c565b60056020526000908152604090205460ff1681565b6040519015158152602001610165565b34801561039657600080fd5b506101df610805565b3480156103ab57600080fd5b50600354610289906001600160a01b031681565b3480156103cb57600080fd5b506001546001600160a01b0316610289565b3480156103e957600080fd5b506000546001600160a01b03161561037a565b34801561040857600080fd5b506102897f000000000000000000000000000000000000000000000000000000000000000081565b34801561043c57600080fd5b5061037a61044b3660046111f8565b610875565b34801561045c57600080fd5b506101df61046b3660046112c3565b61087f565b336001600160a01b037f000000000000000000000000000000000000000000000000000000000000000016146104dc5760405162461bcd60e51b815260206004820152600c60248201526b10b937b7ba26b0b730b3b2b960a11b60448201526064015b60405180910390fd5b6104e68282610b4e565b7fdcaa37a042a0087de79018c629bbd29cee82ca80bd9be394e1696bf9e9355077828233604051610519939291906113b8565b60405180910390a15050565b336001600160a01b037f000000000000000000000000000000000000000000000000000000000000000016146105865760405162461bcd60e51b81526004016104d39060208082526004908201526310a0a6a160e11b604082015260600190565b61058f81610df5565b7fb3abc57bfeebd2cac918901db582f71972a8e628bccf19f5ae3e3482b98a5ced81336040516105c09291906113f6565b60405180910390a150565b6000546001600160a01b031633146105f6576040516311a8a1bb60e31b815260040160405180910390fd5b6105ff81610e0e565b50565b6000546001600160a01b0316331461062d576040516311a8a1bb60e31b815260040160405180910390fd5b476106388282610e77565b816001600160a01b03167feaff4b37086828766ad3268786972c0cd24259d4c87a80f9d3963a3c3d999b0d8260405161067391815260200190565b60405180910390a25050565b6000546001600160a01b031633146106aa576040516311a8a1bb60e31b815260040160405180910390fd5b62093a80600254426106bc9190611420565b116106da576040516324e0285f60e21b815260040160405180910390fd5b6002546000036106fd57604051630e4b303f60e21b815260040160405180910390fd5b6001546001600160a01b031615610727576040516323295ef960e01b815260040160405180910390fd5b6107316000610f95565b565b6000546001600160a01b0316331461075e576040516311a8a1bb60e31b815260040160405180910390fd5b6105ff81610ffa565b6000546001600160a01b03163314610792576040516311a8a1bb60e31b815260040160405180910390fd5b6001546001600160a01b0382811691161480156107b0575060025415155b156107ce576040516311bc066560e11b815260040160405180910390fd5b6000546001600160a01b038083169116036107fc57604051634a2fb73f60e11b815260040160405180910390fd5b6105ff8161103b565b6001546001600160a01b03163314610830576040516311a7f27160e11b815260040160405180910390fd5b62093a80600254426108429190611420565b11610860576040516324e0285f60e21b815260040160405180910390fd5b600154610731906001600160a01b0316610f95565b6000805b92915050565b602083146108b95760405162461bcd60e51b8152602060048201526007602482015266042d8cadccee8d60cb1b60448201526064016104d3565b6040805160608101825261ffff871681526003546001600160a01b03166020808301919091528251601f870182900482028101820184528681527f0000000000000000000000000000000000000000000000000000000000000000936000939290830191908990899081908401838280828437600092018290525093909452505060405163e4948f4360e01b8152929350916001600160a01b038516915063e4948f4390610973908d908d9087908b908b90600401611441565b602060405180830381865afa158015610990573d6000803e3d6000fd5b505050506040513d601f19601f820116820180604052508101906109b491906114ca565b9050806109ed5760405162461bcd60e51b815260206004820152600760248201526610b83937bb32b760c91b60448201526064016104d3565b60006109f987896114ec565b60008181526005602052604090205490915060ff1615610a475760405162461bcd60e51b81526020600482015260096024820152681c1c9bd8d95cdcd95960ba1b60448201526064016104d3565b60008181526005602052604090819020805460ff191660011790555163473ec9fd60e11b81527f000000000000000000000000000000000000000000000000000000000000000063ffffffff166004820152602481018290526001600160a01b037f00000000000000000000000000000000000000000000000000000000000000001690638e7d93fa90604401600060405180830381600087803b158015610aee57600080fd5b505af1158015610b02573d6000803e3d6000fd5b505050507fb3abc57bfeebd2cac918901db582f71972a8e628bccf19f5ae3e3482b98a5ced888833604051610b399392919061150a565b60405180910390a15050505050505050505050565b8051606014610b8e5760405162461bcd60e51b815260206004820152600c60248201526b042c8c2e8c240d8cadccee8d60a31b60448201526064016104d3565b8151602014610bc95760405162461bcd60e51b8152602060048201526007602482015266042d8cadccee8d60cb1b60448201526064016104d3565b6000634ff746f660e01b83604051602401610be4919061154b565b604051602081830303815290604052906001600160e01b0319166020820180516001600160e01b0383818316178352505050509050600080600084806020019051810190610c32919061155e565b9250925092506000610c4334611089565b604051635a3998c760e11b81523a600482015260248101869052604481018590529091507f00000000000000000000000000000000000000000000000000000000000000006001600160a01b03169063b473318e90606401602060405180830381865afa158015610cb8573d6000803e3d6000fd5b505050506040513d601f19601f82011682018060405250810190610cdc9190611597565b811015610d135760405162461bcd60e51b8152602060048201526005602482015264216665657360d81b60448201526064016104d3565b6003546001600160a01b037f000000000000000000000000000000000000000000000000000000000000000081169163eb67241991849116600089898983604051908082528060200260200182016040528015610d8457816020015b6060815260200190600190039081610d6f5790505b508a6040518963ffffffff1660e01b8152600401610da897969594939291906115b0565b60206040518083038185885af1158015610dc6573d6000803e3d6000fd5b50505050506040513d601f19601f82011682018060405250810190610deb9190611597565b5050505050505050565b6040516316c2fdb560e21b815260040160405180910390fd5b600354604080516001600160a01b03928316815291831660208301527fc77bec288fc88f168427f2f7da682eadb26cac89d8d591af6e443da98dff2bbc910160405180910390a1600380546001600160a01b0319166001600160a01b0392909216919091179055565b80471015610ec75760405162461bcd60e51b815260206004820152601d60248201527f416464726573733a20696e73756666696369656e742062616c616e636500000060448201526064016104d3565b6000826001600160a01b03168260405160006040518083038185875af1925050503d8060008114610f14576040519150601f19603f3d011682016040523d82523d6000602084013e610f19565b606091505b5050905080610f905760405162461bcd60e51b815260206004820152603a60248201527f416464726573733a20756e61626c6520746f2073656e642076616c75652c207260448201527f6563697069656e74206d6179206861766520726576657274656400000000000060648201526084016104d3565b505050565b600080546040516001600160a01b03808516939216917f8be0079c531659141344cd1fd0a4f28419497f9722a3daafe3b4186f6b6457e091a3600080546001600160a01b039092166001600160a01b0319928316178155600255600180549091169055565b60045460408051918252602082018390527f877a02cb809da0364d23adca3cd50c451b53f279d3df632e1fc11eb66335bce5910160405180910390a1600455565b42600255600180546001600160a01b0319166001600160a01b0383169081179091556040517f6ab4d119f23076e8ad491bc65ce85f017fb0591dce08755ba8591059cc51737a90600090a250565b600060045482111561109b5760045491505b5090565b634e487b7160e01b600052604160045260246000fd5b600082601f8301126110c657600080fd5b813567ffffffffffffffff808211156110e1576110e161109f565b604051601f8301601f19908116603f011681019082821181831017156111095761110961109f565b8160405283815286602085880101111561112257600080fd5b836020870160208301376000602085830101528094505050505092915050565b6000806040838503121561115557600080fd5b823567ffffffffffffffff8082111561116d57600080fd5b611179868387016110b5565b9350602085013591508082111561118f57600080fd5b5061119c858286016110b5565b9150509250929050565b6000602082840312156111b857600080fd5b813567ffffffffffffffff8111156111cf57600080fd5b6111db848285016110b5565b949350505050565b6001600160a01b03811681146105ff57600080fd5b60006020828403121561120a57600080fd5b8135611215816111e3565b9392505050565b60006020828403121561122e57600080fd5b5035919050565b60008083601f84011261124757600080fd5b50813567ffffffffffffffff81111561125f57600080fd5b60208301915083602082850101111561127757600080fd5b9250929050565b60008083601f84011261129057600080fd5b50813567ffffffffffffffff8111156112a857600080fd5b6020830191508360208260051b850101111561127757600080fd5b600080600080600080600060a0888a0312156112de57600080fd5b873563ffffffff811681146112f257600080fd5b965060208801359550604088013561ffff8116811461131057600080fd5b9450606088013567ffffffffffffffff8082111561132d57600080fd5b6113398b838c01611235565b909650945060808a013591508082111561135257600080fd5b5061135f8a828b0161127e565b989b979a50959850939692959293505050565b6000815180845260005b818110156113985760208185018101518683018201520161137c565b506000602082860101526020601f19601f83011685010191505092915050565b6060815260006113cb6060830186611372565b82810360208401526113dd8186611372565b91505060018060a01b0383166040830152949350505050565b6040815260006114096040830185611372565b905060018060a01b03831660208301529392505050565b8181038181111561087957634e487b7160e01b600052601160045260246000fd5b63ffffffff861681528460208201526080604082015261ffff845116608082015260018060a01b0360208501511660a082015260006040850151606060c084015261148f60e0840182611372565b838103606085015284815290506001600160fb1b038411156114b057600080fd5b8360051b8086602084013701602001979650505050505050565b6000602082840312156114dc57600080fd5b8151801515811461121557600080fd5b8035602083101561087957600019602084900360031b1b1692915050565b6040815282604082015282846060830137600060608483018101919091526001600160a01b03929092166020820152601f909201601f191690910101919050565b6020815260006112156020830184611372565b60008060006060848603121561157357600080fd5b8351925060208401519150604084015161158c816111e3565b809150509250925092565b6000602082840312156115a957600080fd5b5051919050565b60018060a01b038816815260006020888184015260e060408401526115d860e0840189611372565b87606085015286608085015283810360a08501528086518083528383019150838160051b84010184890160005b8381101561163357601f19868403018552611621838351611372565b94870194925090860190600101611605565b50506001600160a01b03881660c088015294506116509350505050565b9897505050505050505056fea2646970667358221220a4b973c806ecd99a3197b277d15492b317e7146bf533753898b286e2f98f2c6064736f6c63430008110033",
  "devdoc": {
    "kind": "dev",
    "methods": {
      "processMessage(bytes)": {
        "details": "This is called by AMBs to process messages originating from mirror connector"
      },
      "processMessageFromRoot(uint32,uint256,uint16,bytes,bytes32[])": {
        "details": "modified from: https://v2-docs.zksync.io/dev/developer-guides/Bridging/l2-l1.html#prove-inclusion-of-the-message-into-the-l2-block"
      },
      "sendMessage(bytes,bytes)": {
        "details": "This is called by the root manager *only* on mainnet to propagate the aggregate root"
      },
      "withdrawFunds(address)": {
        "details": "Withdraws the entire balance of the contract.",
        "params": {
          "_to": "The recipient of the funds withdrawn"
        }
      }
    },
    "version": 1
  },
  "userdoc": {
    "events": {
      "FundsWithdrawn(address,uint256)": {
        "notice": "Emitted when funds are withdrawn by the admin"
      },
      "GasCapUpdated(uint256,uint256)": {
        "notice": "Emitted when admin updates the gas cap"
      },
      "MessageProcessed(bytes,address)": {
        "notice": "Emitted whenever a message is successfully received over an AMB"
      },
      "MessageSent(bytes,bytes,address)": {
        "notice": "Emitted whenever a message is successfully sent over an AMB"
      }
    },
    "kind": "user",
    "methods": {
      "AMB()": {
        "notice": "Address of the AMB on this domain."
      },
      "DOMAIN()": {
        "notice": "The domain of this Messaging (i.e. Connector) contract."
      },
      "MIRROR_DOMAIN()": {
        "notice": "The domain of the corresponding messaging (i.e. Connector) contract."
      },
      "ROOT_MANAGER()": {
        "notice": "RootManager contract address."
      },
      "acceptProposedOwner()": {
        "notice": "Transfers ownership of the contract to a new account (`newOwner`). Can only be called by the current owner."
      },
      "delay()": {
        "notice": "Returns the delay period before a new owner can be accepted."
      },
      "gasCap()": {
        "notice": "The gnosis amb requires destination gas to be specified on the origin. The gas used will be passed in by the relayer to allow for real-time estimates, but will be capped at the admin-set cap."
      },
      "mirrorConnector()": {
        "notice": "Connector on L2 for L1 connectors, and vice versa."
      },
      "owner()": {
        "notice": "Returns the address of the current owner."
      },
      "processMessage(bytes)": {
        "notice": "Processes a message received by an AMB"
      },
      "processMessageFromRoot(uint32,uint256,uint16,bytes,bytes32[])": {
        "notice": "Processes message and proves inclusion of that message in the root."
      },
      "proposeNewOwner(address)": {
        "notice": "Sets the timestamp for an owner to be proposed, and sets the newly proposed owner as step 1 in a 2-step process"
      },
      "proposed()": {
        "notice": "Returns the address of the proposed owner."
      },
      "proposedTimestamp()": {
        "notice": "Returns the address of the proposed owner."
      },
      "renounceOwnership()": {
        "notice": "Renounces ownership of the contract after a delay"
      },
      "renounced()": {
        "notice": "Indicates if the ownership has been renounced() by checking if current owner is address(0)"
      },
      "sendMessage(bytes,bytes)": {
        "notice": "Sends a message over the amb"
      },
      "setMirrorConnector(address)": {
        "notice": "Sets the address of the l2Connector for this domain"
      },
      "verifySender(address)": {
        "notice": "Checks the cross domain sender for a given address"
      },
      "withdrawFunds(address)": {
        "notice": "This function should be callable by owner, and send funds trapped on a connector to the provided recipient."
      }
    },
    "version": 1
  },
  "storageLayout": {
    "storage": [
      {
        "astId": 48861,
        "contract": "contracts/messaging/connectors/zksync/ZkSyncHubConnector.sol:ZkSyncHubConnector",
        "label": "_owner",
        "offset": 0,
        "slot": "0",
        "type": "t_address"
      },
      {
        "astId": 48863,
        "contract": "contracts/messaging/connectors/zksync/ZkSyncHubConnector.sol:ZkSyncHubConnector",
        "label": "_proposed",
        "offset": 0,
        "slot": "1",
        "type": "t_address"
      },
      {
        "astId": 48865,
        "contract": "contracts/messaging/connectors/zksync/ZkSyncHubConnector.sol:ZkSyncHubConnector",
        "label": "_proposedOwnershipTimestamp",
        "offset": 0,
        "slot": "2",
        "type": "t_uint256"
      },
      {
        "astId": 34491,
        "contract": "contracts/messaging/connectors/zksync/ZkSyncHubConnector.sol:ZkSyncHubConnector",
        "label": "mirrorConnector",
        "offset": 0,
        "slot": "3",
        "type": "t_address"
      },
      {
        "astId": 34776,
        "contract": "contracts/messaging/connectors/zksync/ZkSyncHubConnector.sol:ZkSyncHubConnector",
        "label": "gasCap",
        "offset": 0,
        "slot": "4",
        "type": "t_uint256"
      },
      {
        "astId": 45478,
        "contract": "contracts/messaging/connectors/zksync/ZkSyncHubConnector.sol:ZkSyncHubConnector",
        "label": "processed",
        "offset": 0,
        "slot": "5",
        "type": "t_mapping(t_bytes32,t_bool)"
      }
    ],
    "types": {
      "t_address": {
        "encoding": "inplace",
        "label": "address",
        "numberOfBytes": "20"
      },
      "t_bool": {
        "encoding": "inplace",
        "label": "bool",
        "numberOfBytes": "1"
      },
      "t_bytes32": {
        "encoding": "inplace",
        "label": "bytes32",
        "numberOfBytes": "32"
      },
      "t_mapping(t_bytes32,t_bool)": {
        "encoding": "mapping",
        "key": "t_bytes32",
        "label": "mapping(bytes32 => bool)",
        "numberOfBytes": "32",
        "value": "t_bool"
      },
      "t_uint256": {
        "encoding": "inplace",
        "label": "uint256",
        "numberOfBytes": "32"
      }
    }
  }
}