{
  "address": "0xff475fb2e160F4b8e42423C017aA7688846ec496",
  "abi": [
    {
      "inputs": [
        {
          "internalType": "bytes",
          "name": "transactions",
          "type": "bytes"
        }
      ],
      "name": "multiSend",
      "outputs": [],
      "stateMutability": "payable",
      "type": "function"
    }
  ],
  "transactionHash": "0x3b66bf859719da763b7624f675f11ac2975ba927e62b3c6ff6b543adb076bf7f",
  "args": [],
  "solcInputHash": "046ce2b626f23a1e233043de11118b3b",
  "bytecode": "0x608060405234801561001057600080fd5b506101a7806100206000396000f3fe60806040526004361061001e5760003560e01c80638d80ff0a14610023575b600080fd5b6100366100313660046100b1565b610038565b005b805160205b818110156100ac578083015160f81c6001820184015160601c601583018501516035840186015160558501870160008560008114610082576001811461001e5761008e565b6000808585888a5af191505b508061009957600080fd5b505080605501850194505050505061003d565b505050565b6000602082840312156100c2578081fd5b813567ffffffffffffffff808211156100d9578283fd5b818401915084601f8301126100ec578283fd5b8135818111156100fe576100fe61015b565b604051601f8201601f19908116603f011681019083821181831017156101265761012661015b565b8160405282815287602084870101111561013e578586fd5b826020860160208301379182016020019490945295945050505050565b634e487b7160e01b600052604160045260246000fdfea264697066735822122004692850a3c757dd04189de813ffd391c717d6b355055a233087f236d4537a2d64736f6c63430008040033",
  "devdoc": {
    "author": "Stefan George - <stefan@gnosis.io>Richard Meissner - <richard@gnosis.io>",
    "kind": "dev",
    "methods": {
      "multiSend(bytes)": {
        "details": "Sends multiple transactions and reverts all if one fails.",
        "params": {
          "transactions": "Encoded transactions. Each transaction is encoded as a packed bytes of                     operation has to be uint8(0) in this version (=> 1 byte),                     to as a address (=> 20 bytes),                     value as a uint256 (=> 32 bytes),                     data length as a uint256 (=> 32 bytes),                     data as bytes.                     see abi.encodePacked for more information on packed encoding"
        }
      }
    },
    "title": "Multi Send Call Only - Allows to batch multiple transactions into one, but only calls",
    "version": 1
  },
  "userdoc": {
    "kind": "user",
    "methods": {
      "multiSend(bytes)": {
        "notice": "The code is for most part the same as the normal MultiSend (to keep compatibility),         but reverts if a transaction tries to use a delegatecall.This method is payable as delegatecalls keep the msg.value from the previous call         If the calling method (e.g. execTransaction) received ETH this would revert otherwise"
      }
    },
    "notice": "The guard logic is not required here as this contract doesn't support nested delegate calls",
    "version": 1
  },
  "storageLayout": {
    "storage": [],
    "types": null
  }
}