{
  "address": "0xa5c8362860938E059026aFa31fEBA4833a75a859",
  "abi": [
    {
      "anonymous": false,
      "inputs": [
        {
          "indexed": true,
          "internalType": "address",
          "name": "previousOwner",
          "type": "address"
        },
        {
          "indexed": true,
          "internalType": "address",
          "name": "newOwner",
          "type": "address"
        }
      ],
      "name": "OwnershipTransferred",
      "type": "event"
    },
    {
      "anonymous": false,
      "inputs": [
        {
          "indexed": true,
          "internalType": "uint64",
          "name": "originAndNonce",
          "type": "uint64"
        },
        {
          "indexed": true,
          "internalType": "address",
          "name": "token",
          "type": "address"
        },
        {
          "indexed": true,
          "internalType": "address",
          "name": "recipient",
          "type": "address"
        },
        {
          "indexed": false,
          "internalType": "address",
          "name": "liquidityProvider",
          "type": "address"
        },
        {
          "indexed": false,
          "internalType": "uint256",
          "name": "amount",
          "type": "uint256"
        }
      ],
      "name": "Receive",
      "type": "event"
    },
    {
      "anonymous": false,
      "inputs": [
        {
          "indexed": true,
          "internalType": "address",
          "name": "token",
          "type": "address"
        },
        {
          "indexed": true,
          "internalType": "address",
          "name": "from",
          "type": "address"
        },
        {
          "indexed": true,
          "internalType": "uint32",
          "name": "toDomain",
          "type": "uint32"
        },
        {
          "indexed": false,
          "internalType": "bytes32",
          "name": "toId",
          "type": "bytes32"
        },
        {
          "indexed": false,
          "internalType": "uint256",
          "name": "amount",
          "type": "uint256"
        },
        {
          "indexed": false,
          "internalType": "bool",
          "name": "fastLiquidityEnabled",
          "type": "bool"
        },
        {
          "indexed": false,
          "internalType": "bytes32",
          "name": "externalHash",
          "type": "bytes32"
        },
        {
          "indexed": false,
          "internalType": "bytes",
          "name": "message",
          "type": "bytes"
        }
      ],
      "name": "Send",
      "type": "event"
    },
    {
      "stateMutability": "payable",
      "type": "fallback"
    },
    {
      "inputs": [],
      "name": "DUST_AMOUNT",
      "outputs": [
        {
          "internalType": "uint256",
          "name": "",
          "type": "uint256"
        }
      ],
      "stateMutability": "view",
      "type": "function"
    },
    {
      "inputs": [],
      "name": "PRE_FILL_FEE_DENOMINATOR",
      "outputs": [
        {
          "internalType": "uint256",
          "name": "",
          "type": "uint256"
        }
      ],
      "stateMutability": "view",
      "type": "function"
    },
    {
      "inputs": [],
      "name": "PRE_FILL_FEE_NUMERATOR",
      "outputs": [
        {
          "internalType": "uint256",
          "name": "",
          "type": "uint256"
        }
      ],
      "stateMutability": "view",
      "type": "function"
    },
    {
      "inputs": [],
      "name": "VERSION",
      "outputs": [
        {
          "internalType": "uint8",
          "name": "",
          "type": "uint8"
        }
      ],
      "stateMutability": "view",
      "type": "function"
    },
    {
      "inputs": [],
      "name": "connext",
      "outputs": [
        {
          "internalType": "contract IConnext",
          "name": "",
          "type": "address"
        }
      ],
      "stateMutability": "view",
      "type": "function"
    },
    {
      "inputs": [
        {
          "internalType": "uint32",
          "name": "_domain",
          "type": "uint32"
        },
        {
          "internalType": "bytes32",
          "name": "_id",
          "type": "bytes32"
        },
        {
          "internalType": "address",
          "name": "_custom",
          "type": "address"
        }
      ],
      "name": "enrollCustom",
      "outputs": [],
      "stateMutability": "nonpayable",
      "type": "function"
    },
    {
      "inputs": [
        {
          "internalType": "uint32",
          "name": "_domain",
          "type": "uint32"
        },
        {
          "internalType": "bytes32",
          "name": "_router",
          "type": "bytes32"
        }
      ],
      "name": "enrollRemoteRouter",
      "outputs": [],
      "stateMutability": "nonpayable",
      "type": "function"
    },
    {
      "inputs": [
        {
          "internalType": "uint32",
          "name": "_origin",
          "type": "uint32"
        },
        {
          "internalType": "uint32",
          "name": "_nonce",
          "type": "uint32"
        },
        {
          "internalType": "bytes32",
          "name": "_sender",
          "type": "bytes32"
        },
        {
          "internalType": "bytes",
          "name": "_message",
          "type": "bytes"
        }
      ],
      "name": "handle",
      "outputs": [],
      "stateMutability": "nonpayable",
      "type": "function"
    },
    {
      "inputs": [
        {
          "internalType": "address",
          "name": "_tokenRegistry",
          "type": "address"
        },
        {
          "internalType": "address",
          "name": "_xAppConnectionManager",
          "type": "address"
        }
      ],
      "name": "initialize",
      "outputs": [],
      "stateMutability": "nonpayable",
      "type": "function"
    },
    {
      "inputs": [
        {
          "internalType": "bytes32",
          "name": "",
          "type": "bytes32"
        }
      ],
      "name": "liquidityProvider",
      "outputs": [
        {
          "internalType": "address",
          "name": "",
          "type": "address"
        }
      ],
      "stateMutability": "view",
      "type": "function"
    },
    {
      "inputs": [
        {
          "internalType": "address",
          "name": "_oldRepr",
          "type": "address"
        }
      ],
      "name": "migrate",
      "outputs": [],
      "stateMutability": "nonpayable",
      "type": "function"
    },
    {
      "inputs": [],
      "name": "owner",
      "outputs": [
        {
          "internalType": "address",
          "name": "",
          "type": "address"
        }
      ],
      "stateMutability": "view",
      "type": "function"
    },
    {
      "inputs": [
        {
          "internalType": "uint32",
          "name": "",
          "type": "uint32"
        }
      ],
      "name": "remotes",
      "outputs": [
        {
          "internalType": "bytes32",
          "name": "",
          "type": "bytes32"
        }
      ],
      "stateMutability": "view",
      "type": "function"
    },
    {
      "inputs": [],
      "name": "renounceOwnership",
      "outputs": [],
      "stateMutability": "nonpayable",
      "type": "function"
    },
    {
      "inputs": [
        {
          "internalType": "address",
          "name": "_token",
          "type": "address"
        },
        {
          "internalType": "uint256",
          "name": "_amount",
          "type": "uint256"
        },
        {
          "internalType": "uint32",
          "name": "_destination",
          "type": "uint32"
        },
        {
          "internalType": "bytes32",
          "name": "_recipient",
          "type": "bytes32"
        },
        {
          "internalType": "bool",
          "name": "_enableFast",
          "type": "bool"
        },
        {
          "internalType": "bytes32",
          "name": "_externalHash",
          "type": "bytes32"
        }
      ],
      "name": "send",
      "outputs": [],
      "stateMutability": "nonpayable",
      "type": "function"
    },
    {
      "inputs": [
        {
          "internalType": "address",
          "name": "_connext",
          "type": "address"
        }
      ],
      "name": "setConnext",
      "outputs": [],
      "stateMutability": "nonpayable",
      "type": "function"
    },
    {
      "inputs": [
        {
          "internalType": "address",
          "name": "_xAppConnectionManager",
          "type": "address"
        }
      ],
      "name": "setXAppConnectionManager",
      "outputs": [],
      "stateMutability": "nonpayable",
      "type": "function"
    },
    {
      "inputs": [],
      "name": "tokenRegistry",
      "outputs": [
        {
          "internalType": "contract ITokenRegistry",
          "name": "",
          "type": "address"
        }
      ],
      "stateMutability": "view",
      "type": "function"
    },
    {
      "inputs": [
        {
          "internalType": "address",
          "name": "newOwner",
          "type": "address"
        }
      ],
      "name": "transferOwnership",
      "outputs": [],
      "stateMutability": "nonpayable",
      "type": "function"
    },
    {
      "inputs": [],
      "name": "xAppConnectionManager",
      "outputs": [
        {
          "internalType": "contract XAppConnectionManager",
          "name": "",
          "type": "address"
        }
      ],
      "stateMutability": "view",
      "type": "function"
    },
    {
      "stateMutability": "payable",
      "type": "receive"
    }
  ],
  "transactionHash": "0x95d8bd0988f82706eacbc22acddffdef07f3ba70555f29d7a5dae26a689275c1",
  "args": [],
  "numDeployments": 1,
  "solcInputHash": "8d94bcf427cf18c8df76e8f625e51b3c",
  "bytecode": "0x608060405234801561001057600080fd5b50612dfd806100206000396000f3fe6080604052600436106101175760003560e01c806383bbb8061161009a578063b49c53a711610061578063b49c53a714610328578063ce5494bb1461035c578063de4b05481461037c578063f2fde38b1461039c578063ffa1ad74146103bc57005b806383bbb806146102825780638da5cb5b146102af57806397f641ab146102cd5780639d23c4c7146102e8578063ab2dc3f51461030857005b8063546d573d116100de578063546d573d146101dd5780636cdccfb8146102135780636eb3d5fe14610237578063715018a61461024d5780638022e5591461026257005b806328b1aea0146101205780633339df961461014057806341bdc8b51461017d578063485cc9551461019d5780634d6f2013146101bd57005b3661011e57005b005b34801561012c57600080fd5b5061011e61013b3660046126bf565b6103e3565b34801561014c57600080fd5b50606554610160906001600160a01b031681565b6040516001600160a01b0390911681526020015b60405180910390f35b34801561018957600080fd5b5061011e610198366004612701565b61054d565b3480156101a957600080fd5b5061011e6101b836600461271e565b610599565b3480156101c957600080fd5b5061011e6101d8366004612701565b610631565b3480156101e957600080fd5b506101606101f8366004612757565b60ca602052600090815260409020546001600160a01b031681565b34801561021f57600080fd5b5061022961270b81565b604051908152602001610174565b34801561024357600080fd5b5061022961271081565b34801561025957600080fd5b5061011e61067d565b34801561026e57600080fd5b5061011e61027d36600461277e565b6106b3565b34801561028e57600080fd5b5061022961029d3660046127e5565b60976020526000908152604090205481565b3480156102bb57600080fd5b506033546001600160a01b0316610160565b3480156102d957600080fd5b5061022966d529ae9e86000081565b3480156102f457600080fd5b5060c954610160906001600160a01b031681565b34801561031457600080fd5b5061011e610323366004612871565b610a1b565b34801561033457600080fd5b5061011e610343366004612920565b63ffffffff909116600090815260976020526040902055565b34801561036857600080fd5b5061011e610377366004612701565b610b82565b34801561038857600080fd5b5060cb54610160906001600160a01b031681565b3480156103a857600080fd5b5061011e6103b7366004612701565b610d78565b3480156103c857600080fd5b506103d1600081565b60405160ff9091168152602001610174565b6033546001600160a01b031633146104165760405162461bcd60e51b815260040161040d9061294c565b60405180910390fd5b6040516340c10f1960e01b8152306004820152600160248201526001600160a01b038216906340c10f1990604401600060405180830381600087803b15801561045e57600080fd5b505af1158015610472573d6000803e3d6000fd5b5050604051632770a7eb60e21b8152306004820152600160248201526001600160a01b0384169250639dc29fac9150604401600060405180830381600087803b1580156104be57600080fd5b505af11580156104d2573d6000803e3d6000fd5b505060c9546040516301458d7560e51b815263ffffffff87166004820152602481018690526001600160a01b03858116604483015290911692506328b1aea09150606401600060405180830381600087803b15801561053057600080fd5b505af1158015610544573d6000803e3d6000fd5b50505050505050565b6033546001600160a01b031633146105775760405162461bcd60e51b815260040161040d9061294c565b606580546001600160a01b0319166001600160a01b0392909216919091179055565b600054610100900460ff166105b45760005460ff16156105b8565b303b155b6105d45760405162461bcd60e51b815260040161040d90612981565b600054610100900460ff161580156105f6576000805461ffff19166101011790555b60c980546001600160a01b0319166001600160a01b03851617905561061a82610e13565b801561062c576000805461ff00191690555b505050565b6033546001600160a01b0316331461065b5760405162461bcd60e51b815260040161040d9061294c565b60cb80546001600160a01b0319166001600160a01b0392909216919091179055565b6033546001600160a01b031633146106a75760405162461bcd60e51b815260040161040d9061294c565b6106b16000610ea9565b565b826106e95760405162461bcd60e51b815260206004820152600660248201526502172656369760d41b604482015260640161040d565b60006106f485610efb565b60c95460405163c86415cb60e01b81526001600160a01b03808b1660048301529293508992600092169063c86415cb90602401602060405180830381865afa158015610744573d6000803e3d6000fd5b505050506040513d601f19601f8201168201806040525081019061076891906129cf565b156108c7578715610788576107886001600160a01b038a1633308b610f4d565b6108c0826001600160a01b03166306fdde036040518163ffffffff1660e01b81526004016000604051808303816000875af11580156107cb573d6000803e3d6000fd5b505050506040513d6000823e601f3d908101601f191682016040526107f39190810190612a18565b836001600160a01b03166395d89b416040518163ffffffff1660e01b8152600401600060405180830381865afa158015610831573d6000803e3d6000fd5b505050506040513d6000823e601f3d908101601f191682016040526108599190810190612a18565b846001600160a01b031663313ce5676040518163ffffffff1660e01b8152600401602060405180830381865afa158015610897573d6000803e3d6000fd5b505050506040513d601f19601f820116820180604052508101906108bb9190612a86565b610fbe565b9050610993565b871561092e57604051632770a7eb60e21b8152336004820152602481018990526001600160a01b03831690639dc29fac90604401600060405180830381600087803b15801561091557600080fd5b505af1158015610929573d6000803e3d6000fd5b505050505b816001600160a01b0316634815fcb16040518163ffffffff1660e01b8152600401602060405180830381865afa15801561096c573d6000803e3d6000fd5b505050506040513d601f19601f820116820180604052508101906109909190612aa9565b90505b60006109a2878a848989610ffb565b905060006109b2828c8b88611079565b905063ffffffff8916336001600160a01b038d167fcb554bfb97d7299e77bf47e9e3e4e26063c84b4f4e06066d4919047b1f57b9628b8e8c8c6109f5898b6111ee565b604051610a06959493929190612aee565b60405180910390a45050505050505050505050565b610a24336112d0565b610a5b5760405162461bcd60e51b8152602060048201526008602482015267217265706c69636160c01b604482015260640161040d565b63ffffffff8416600090815260976020526040902054849083908114610ab45760405162461bcd60e51b815260206004820152600e60248201526d10b932b6b7ba32903937baba32b960911b604482015260640161040d565b6000610ace610ac38583611345565b62ffffff1916611369565b90506000610ae162ffffff198316611382565b90506000610af462ffffff1984166113a6565b9050610b0562ffffff1982166113f4565b15610b1d57610b18898984846000611401565b610b77565b610b2c62ffffff198216611626565b15610b3f57610b18898984846001611401565b60405162461bcd60e51b815260206004820152600d60248201526c10bb30b634b21030b1ba34b7b760991b604482015260640161040d565b505050505050505050565b60c954604051630e71e25160e01b81526001600160a01b0383811660048301526000921690630e71e25190602401602060405180830381865afa158015610bcd573d6000803e3d6000fd5b505050506040513d601f19601f82011682018060405250810190610bf19190612b1b565b9050816001600160a01b0316816001600160a01b03161415610c425760405162461bcd60e51b815260206004820152600a60248201526908591a5999995c995b9d60b21b604482015260640161040d565b6040516370a0823160e01b815233600482015282906000906001600160a01b038316906370a0823190602401602060405180830381865afa158015610c8b573d6000803e3d6000fd5b505050506040513d601f19601f82011682018060405250810190610caf9190612aa9565b604051632770a7eb60e21b8152336004820152602481018290529091506001600160a01b03831690639dc29fac90604401600060405180830381600087803b158015610cfa57600080fd5b505af1158015610d0e573d6000803e3d6000fd5b50506040516340c10f1960e01b8152336004820152602481018490526001600160a01b03861692506340c10f199150604401600060405180830381600087803b158015610d5a57600080fd5b505af1158015610d6e573d6000803e3d6000fd5b5050505050505050565b6033546001600160a01b03163314610da25760405162461bcd60e51b815260040161040d9061294c565b6001600160a01b038116610e075760405162461bcd60e51b815260206004820152602660248201527f4f776e61626c653a206e6577206f776e657220697320746865207a65726f206160448201526564647265737360d01b606482015260840161040d565b610e1081610ea9565b50565b600054610100900460ff16610e2e5760005460ff1615610e32565b303b155b610e4e5760405162461bcd60e51b815260040161040d90612981565b600054610100900460ff16158015610e70576000805461ffff19166101011790555b606580546001600160a01b0319166001600160a01b038416179055610e93611633565b8015610ea5576000805461ff00191690555b5050565b603380546001600160a01b038381166001600160a01b0319831681179093556040519116919082907f8be0079c531659141344cd1fd0a4f28419497f9722a3daafe3b4186f6b6457e090600090a35050565b63ffffffff811660009081526097602052604090205480610f485760405162461bcd60e51b81526020600482015260076024820152662172656d6f746560c81b604482015260640161040d565b919050565b6040516001600160a01b0380851660248301528316604482015260648101829052610fb89085906323b872dd60e01b906084015b60408051601f198184030181529190526020810180516001600160e01b03166001600160e01b031990931692909217909152611662565b50505050565b600083518484518585604051602001610fdb959493929190612b38565b6040516020818303038152906040528051906020012090505b9392505050565b6000808361100a57600361100d565b60045b905061106e81600481111561102457611024612b98565b6110586000848b8b8b8a604051602001611042959493929190612bae565b60408051601f1981840301815291905290611345565b6301000000600160d81b031660d89190911b1790565b979650505050505050565b60c9546040516378a9bb4360e11b81526001600160a01b038581166004830152600092839283929091169063f1537686906024016040805180830381865afa1580156110c9573d6000803e3d6000fd5b505050506040513d601f19601f820116820180604052508101906110ed9190612bf7565b9150915060006110fd8383611734565b9050606560009054906101000a90046001600160a01b03166001600160a01b0316639fa92f9d6040518163ffffffff1660e01b8152600401602060405180830381865afa158015611152573d6000803e3d6000fd5b505050506040513d601f19601f820116820180604052508101906111769190612b1b565b6001600160a01b031663fa31de018787611190858d6111ee565b6040518463ffffffff1660e01b81526004016111ae93929190612c25565b600060405180830381600087803b1580156111c857600080fd5b505af11580156111dc573d6000803e3d6000fd5b5092955050505050505b949350505050565b6060826001611205815b62ffffff19841690611768565b5061120f84611841565b6112455760405162461bcd60e51b815260206004820152600760248201526610b0b1ba34b7b760c91b604482015260640161040d565b604080516002808252606082018352600092602083019080368337019050509050858160008151811061127a5761127a612c4a565b602002602001019062ffffff1916908162ffffff19168152505084816001815181106112a8576112a8612c4a565b62ffffff19909216602092830291909101909101526112c68161185b565b9695505050505050565b606554604051635190bc5360e01b81526001600160a01b0383811660048301526000921690635190bc5390602401602060405180830381865afa15801561131b573d6000803e3d6000fd5b505050506040513d601f19601f8201168201806040525081019061133f91906129cf565b92915050565b81516000906020840161136064ffffffffff851682846118b0565b95945050505050565b600061133f611377836118f4565b62ffffff1916611926565b6000816002611390816111f8565b506111e662ffffff198516600060246001611981565b60008160026113b4816111f8565b5060006113cf6024601887901c6001600160601b0316612c76565b905060006113dc866119f1565b60ff1690506112c662ffffff19871660248484611981565b600061133f826003611a06565b60c9546000906001600160a01b031663b869d89a61142462ffffff198716611a65565b61143362ffffff198816611a87565b6040516001600160e01b031960e085901b16815263ffffffff92909216600483015260248201526044016020604051808303816000875af115801561147c573d6000803e3d6000fd5b505050506040513d601f19601f820116820180604052508101906114a09190612b1b565b905060006114b362ffffff198516611aa9565b905060006114c662ffffff198616611abc565b905060006114d962ffffff198716611ad1565b905084156115995760cb546114f9906001600160a01b0316858484611ae6565b60cb546001600160a01b0316637b9c1a0161151962ffffff198916611c43565b6040516001600160e01b031960e084901b168152600481019190915263ffffffff8c1660248201526001600160a01b038088166044830152861660648201526084810185905260a401600060405180830381600087803b15801561157c57600080fd5b505af1158015611590573d6000803e3d6000fd5b505050506115ae565b6115a583858484611ae6565b6115ae83611c58565b6001600160a01b0380841690851667ffffffff0000000060208c901b1663ffffffff8b161760408051600081526020810187905267ffffffffffffffff92909216917f9f9a97db84f39202ca3b409b63f7ccf7d3fd810e176573c7483088b6f181bbbb910160405180910390a4505050505050505050565b600061133f826004611a06565b600054610100900460ff1661165a5760405162461bcd60e51b815260040161040d90612c8d565b6106b1611cae565b60006116b7826040518060400160405280602081526020017f5361666545524332303a206c6f772d6c6576656c2063616c6c206661696c6564815250856001600160a01b0316611cde9092919063ffffffff16565b80519091501561062c57808060200190518101906116d591906129cf565b61062c5760405162461bcd60e51b815260206004820152602a60248201527f5361666545524332303a204552433230206f7065726174696f6e20646964206e6044820152691bdd081cdd58d8d9595960b21b606482015260840161040d565b6000610ff460016040516001600160e01b031960e087901b1660208201526024810185905261105890600090604401611042565b60006117748383611ced565b61183a5760006117936117878560d81c90565b64ffffffffff16611d10565b91505060006117a88464ffffffffff16611d10565b6040517f5479706520617373657274696f6e206661696c65642e20476f7420307800000060208201526001600160b01b031960b086811b8216603d8401526c05c408af0e0cac6e8cac84060f609b1b604784015283901b16605482015290925060009150605e0160405160208183030381529060405290508060405162461bcd60e51b815260040161040d9190612cd8565b5090919050565b600061184c826113f4565b8061133f575061133f82611626565b60405160609060006118708460208401611dbe565b905060006118878260181c6001600160601b031690565b6001600160601b03169050600061189d83611e4e565b9184525082016020016040525092915050565b6000806118bd8385612ceb565b90506040518111156118cd575060005b806118df5762ffffff19915050610ff4565b5050606092831b9190911790911b1760181b90565b60006118ff82611e64565b1561191c576301000000600160d81b038216600160d91b1761133f565b62ffffff1961133f565b600061193182611e87565b61197d5760405162461bcd60e51b815260206004820152601960248201527f56616c696469747920617373657274696f6e206661696c656400000000000000604482015260640161040d565b5090565b6000806119978660781c6001600160601b031690565b6001600160601b031690506119ab86611ec5565b846119b68784612ceb565b6119c09190612ceb565b11156119d35762ffffff199150506111e6565b6119dd8582612ceb565b90506112c68364ffffffffff1682866118b0565b600061133f62ffffff19831660246001611efe565b6000816004811115611a1a57611a1a612b98565b60ff16611a2684611f2e565b60ff16148015610ff45750816004811115611a4357611a43612b98565b611a4c84611f42565b6004811115611a5d57611a5d612b98565b149392505050565b6000816001611a73816111f8565b506111e662ffffff19851660006004611efe565b6000816001611a95816111f8565b506111e662ffffff19851660046020611f5d565b600061133f62ffffff198316600d6120b6565b600061133f62ffffff19831660216020611efe565b600061133f62ffffff19831660416020611f5d565b60c95460405163c86415cb60e01b81526001600160a01b03858116600483015284151592169063c86415cb90602401602060405180830381865afa158015611b32573d6000803e3d6000fd5b505050506040513d601f19601f82011682018060405250810190611b5691906129cf565b8015611b5f5750805b15611b7d57611b786001600160a01b03851686856120c4565b611c3c565b8015611be6576040516340c10f1960e01b81526001600160a01b038681166004830152602482018590528516906340c10f1990604401600060405180830381600087803b158015611bcd57600080fd5b505af1158015611be1573d6000803e3d6000fd5b505050505b60405163cc2ab7c760e01b8152600481018390526001600160a01b0385169063cc2ab7c790602401600060405180830381600087803b158015611c2857600080fd5b505af1158015610b77573d6000803e3d6000fd5b5050505050565b600061133f62ffffff19831660616020611f5d565b66d529ae9e860000816001600160a01b031631108015611c7f575066d529ae9e8600004710155b15610e10576040516001600160a01b0382169060009066d529ae9e8600009082818181858883f1505050505050565b600054610100900460ff16611cd55760405162461bcd60e51b815260040161040d90612c8d565b6106b133610ea9565b60606111e684846000856120f4565b60008164ffffffffff16611d018460d81c90565b64ffffffffff16149392505050565b600080601f5b600f8160ff161115611d65576000611d2f826008612d03565b60ff1685901c9050611d408161221a565b61ffff16841793508160ff16601014611d5b57601084901b93505b5060001901611d16565b50600f5b60ff8160ff161015611db8576000611d82826008612d03565b60ff1685901c9050611d938161221a565b61ffff16831792508160ff16600014611dae57601083901b92505b5060001901611d69565b50915091565b600060405182811115611dd15760206060fd5b506000805b8451811015611e3e576000858281518110611df357611df3612c4a565b60200260200101519050611e098184870161224c565b50611e1d8160181c6001600160601b031690565b6001600160601b031683019250508080611e3690612d2c565b915050611dd6565b50606083901b811760181b6111e6565b6000611e59826123a4565b61133f906020612d47565b6000601882901c6001600160601b0316611e8060816024612ceb565b1492915050565b6000611e938260d81c90565b64ffffffffff1664ffffffffff1415611eae57506000919050565b6000611eb983611ec5565b60405110199392505050565b6000611eda8260181c6001600160601b031690565b611eed8360781c6001600160601b031690565b016001600160601b03169050919050565b6000611f0b826020612d66565b611f16906008612d03565b60ff16611f24858585611f5d565b901c949350505050565b600061133f62ffffff198316826001611efe565b600060d882901c60ff16600481111561133f5761133f612b98565b600060ff8216611f6f57506000610ff4565b611f828460181c6001600160601b031690565b6001600160601b0316611f9860ff841685612ceb565b1115611ffc57611fe3611fb48560781c6001600160601b031690565b6001600160601b0316611fd08660181c6001600160601b031690565b6001600160601b0316858560ff166123d9565b60405162461bcd60e51b815260040161040d9190612cd8565b60208260ff1611156120765760405162461bcd60e51b815260206004820152603a60248201527f54797065644d656d566965772f696e646578202d20417474656d70746564207460448201527f6f20696e646578206d6f7265207468616e203332206279746573000000000000606482015260840161040d565b60088202600061208f8660781c6001600160601b031690565b6001600160601b031690506000600160ff1b60001984011d91909501511695945050505050565b6000610ff483836014611efe565b6040516001600160a01b03831660248201526044810182905261062c90849063a9059cbb60e01b90606401610f81565b6060824710156121555760405162461bcd60e51b815260206004820152602660248201527f416464726573733a20696e73756666696369656e742062616c616e636520666f6044820152651c8818d85b1b60d21b606482015260840161040d565b6001600160a01b0385163b6121ac5760405162461bcd60e51b815260206004820152601d60248201527f416464726573733a2063616c6c20746f206e6f6e2d636f6e7472616374000000604482015260640161040d565b600080866001600160a01b031685876040516121c89190612d89565b60006040518083038185875af1925050503d8060008114612205576040519150601f19603f3d011682016040523d82523d6000602084013e61220a565b606091505b509150915061106e828286612503565b600061222c60048360ff16901c61253c565b60ff1661ffff919091161760081b6122438261253c565b60ff1617919050565b600062ffffff1980841614156122b55760405162461bcd60e51b815260206004820152602860248201527f54797065644d656d566965772f636f7079546f202d204e756c6c20706f696e7460448201526732b9103232b932b360c11b606482015260840161040d565b6122be83611e87565b61231e5760405162461bcd60e51b815260206004820152602b60248201527f54797065644d656d566965772f636f7079546f202d20496e76616c696420706f60448201526a34b73a32b9103232b932b360a91b606482015260840161040d565b60006123338460181c6001600160601b031690565b6001600160601b0316905060006123538560781c6001600160601b031690565b6001600160601b0316905060006040519050848111156123735760206060fd5b8285848460045afa506112c66123898760d81c90565b64ffffffffff60601b606091821b168717901b841760181b90565b600060206123bb8360181c6001600160601b031690565b6123cf906001600160601b03166020612ceb565b61133f9190612da5565b606060006123e686611d10565b91505060006123f486611d10565b915050600061240286611d10565b915050600061241086611d10565b604080517f54797065644d656d566965772f696e646578202d204f76657272616e20746865602082015274040ecd2caee5c40a6d8d2c6ca40d2e640c2e84060f605b1b818301526001600160d01b031960d098891b811660558301526e040eed2e8d040d8cadccee8d04060f608b1b605b830181905297891b8116606a8301527f2e20417474656d7074656420746f20696e646578206174206f666673657420306070830152600f60fb1b609083015295881b861660918201526097810196909652951b90921660a68401525050601760f91b60ac8201528151808203608d01815260ad90910190915295945050505050565b60608315612512575081610ff4565b8251156125225782518084602001fd5b8160405162461bcd60e51b815260040161040d9190612cd8565b600060f08083179060ff821614156125575750603092915050565b8060ff1660f1141561256c5750603192915050565b8060ff1660f214156125815750603292915050565b8060ff1660f314156125965750603392915050565b8060ff1660f414156125ab5750603492915050565b8060ff1660f514156125c05750603592915050565b8060ff1660f614156125d55750603692915050565b8060ff1660f714156125ea5750603792915050565b8060ff1660f814156125ff5750603892915050565b8060ff1660f914156126145750603992915050565b8060ff1660fa14156126295750606192915050565b8060ff1660fb141561263e5750606292915050565b8060ff1660fc14156126535750606392915050565b8060ff1660fd14156126685750606492915050565b8060ff1660fe141561267d5750606592915050565b8060ff1660ff14156126925750606692915050565b50919050565b63ffffffff81168114610e1057600080fd5b6001600160a01b0381168114610e1057600080fd5b6000806000606084860312156126d457600080fd5b83356126df81612698565b92506020840135915060408401356126f6816126aa565b809150509250925092565b60006020828403121561271357600080fd5b8135610ff4816126aa565b6000806040838503121561273157600080fd5b823561273c816126aa565b9150602083013561274c816126aa565b809150509250929050565b60006020828403121561276957600080fd5b5035919050565b8015158114610e1057600080fd5b60008060008060008060c0878903121561279757600080fd5b86356127a2816126aa565b95506020870135945060408701356127b981612698565b93506060870135925060808701356127d081612770565b8092505060a087013590509295509295509295565b6000602082840312156127f757600080fd5b8135610ff481612698565b634e487b7160e01b600052604160045260246000fd5b604051601f8201601f1916810167ffffffffffffffff8111828210171561284157612841612802565b604052919050565b600067ffffffffffffffff82111561286357612863612802565b50601f01601f191660200190565b6000806000806080858703121561288757600080fd5b843561289281612698565b935060208501356128a281612698565b925060408501359150606085013567ffffffffffffffff8111156128c557600080fd5b8501601f810187136128d657600080fd5b80356128e96128e482612849565b612818565b8181528860208385010111156128fe57600080fd5b8160208401602083013760006020838301015280935050505092959194509250565b6000806040838503121561293357600080fd5b823561293e81612698565b946020939093013593505050565b6020808252818101527f4f776e61626c653a2063616c6c6572206973206e6f7420746865206f776e6572604082015260600190565b6020808252602e908201527f496e697469616c697a61626c653a20636f6e747261637420697320616c72656160408201526d191e481a5b9a5d1a585b1a5e995960921b606082015260800190565b6000602082840312156129e157600080fd5b8151610ff481612770565b60005b83811015612a075781810151838201526020016129ef565b83811115610fb85750506000910152565b600060208284031215612a2a57600080fd5b815167ffffffffffffffff811115612a4157600080fd5b8201601f81018413612a5257600080fd5b8051612a606128e482612849565b818152856020838501011115612a7557600080fd5b6113608260208301602086016129ec565b600060208284031215612a9857600080fd5b815160ff81168114610ff457600080fd5b600060208284031215612abb57600080fd5b5051919050565b60008151808452612ada8160208601602086016129ec565b601f01601f19169290920160200192915050565b858152846020820152831515604082015282606082015260a06080820152600061106e60a0830184612ac2565b600060208284031215612b2d57600080fd5b8151610ff4816126aa565b85815260008551612b50816020850160208a016129ec565b80830190508560208201528451612b6e8160408401602089016129ec565b60f89490941b6001600160f81b031916604091909401908101939093525050604101949350505050565b634e487b7160e01b600052602160045260246000fd5b600060058710612bce57634e487b7160e01b600052602160045260246000fd5b5060f89590951b8552600185019390935260218401919091526041830152606182015260810190565b60008060408385031215612c0a57600080fd5b8251612c1581612698565b6020939093015192949293505050565b63ffffffff841681528260208201526060604082015260006113606060830184612ac2565b634e487b7160e01b600052603260045260246000fd5b634e487b7160e01b600052601160045260246000fd5b600082821015612c8857612c88612c60565b500390565b6020808252602b908201527f496e697469616c697a61626c653a20636f6e7472616374206973206e6f74206960408201526a6e697469616c697a696e6760a81b606082015260800190565b602081526000610ff46020830184612ac2565b60008219821115612cfe57612cfe612c60565b500190565b600060ff821660ff84168160ff0481118215151615612d2457612d24612c60565b029392505050565b6000600019821415612d4057612d40612c60565b5060010190565b6000816000190483118215151615612d6157612d61612c60565b500290565b600060ff821660ff841680821015612d8057612d80612c60565b90039392505050565b60008251612d9b8184602087016129ec565b9190910192915050565b600082612dc257634e487b7160e01b600052601260045260246000fd5b50049056fea264697066735822122009599a5a373f3addb69324a736fbbd54f25efeb267b8293f373d8221f66d16c364736f6c634300080b0033",
  "devdoc": {
    "events": {
      "Receive(uint64,address,address,address,uint256)": {
        "params": {
          "amount": "The amount of tokens being received",
          "liquidityProvider": "The account providing liquidity",
          "originAndNonce": "Domain where the transfer originated and the unique identifier for the message from origin to destination, combined in a single field ((origin << 32) & nonce)",
          "recipient": "The address receiving the tokens; the original recipient of the transfer",
          "token": "The address of the local token contract being received"
        }
      },
      "Send(address,address,uint32,bytes32,uint256,bool,bytes32,bytes)": {
        "params": {
          "amount": "the amount of tokens sent",
          "fastLiquidityEnabled": "True if fast liquidity is enabled, False otherwise",
          "from": "the address sending tokens",
          "toDomain": "the domain of the chain the tokens are being sent to",
          "toId": "the bytes32 address of the recipient of the tokens",
          "token": "the address of the token contract"
        }
      }
    },
    "kind": "dev",
    "methods": {
      "enrollCustom(uint32,bytes32,address)": {
        "params": {
          "_custom": "the address of the custom implementation to use.",
          "_domain": "the domain of the canonical Token to enroll",
          "_id": "the bytes32 ID of the canonical of the Token to enroll"
        }
      },
      "enrollRemoteRouter(uint32,bytes32)": {
        "params": {
          "_domain": "The domain of the remote xApp Router",
          "_router": "The address of the remote xApp Router"
        }
      },
      "handle(uint32,uint32,bytes32,bytes)": {
        "params": {
          "_message": "The message",
          "_nonce": "The unique identifier for the message from origin to destination",
          "_origin": "The origin domain",
          "_sender": "The sender address"
        }
      },
      "migrate(address)": {
        "details": "This is explicitly opt-in to allow dapps to decide when and how to upgrade to the new representation.",
        "params": {
          "_oldRepr": "The address of the old token to migrate"
        }
      },
      "owner()": {
        "details": "Returns the address of the current owner."
      },
      "renounceOwnership()": {
        "details": "Leaves the contract without owner. It will not be possible to call `onlyOwner` functions anymore. Can only be called by the current owner. NOTE: Renouncing ownership will leave the contract without an owner, thereby removing any functionality that is only available to the owner."
      },
      "send(address,uint256,uint32,bytes32,bool,bytes32)": {
        "params": {
          "_amount": "The token amount",
          "_destination": "The destination domain",
          "_enableFast": "True to enable fast liquidity",
          "_recipient": "The recipient address",
          "_token": "The token address"
        }
      },
      "setConnext(address)": {
        "details": "Transacion manager and bridge router store references to each other",
        "params": {
          "_connext": "the address of the transaction manager implementation"
        }
      },
      "setXAppConnectionManager(address)": {
        "params": {
          "_xAppConnectionManager": "The address of the xAppConnectionManager contract"
        }
      },
      "transferOwnership(address)": {
        "details": "Transfers ownership of the contract to a new account (`newOwner`). Can only be called by the current owner."
      }
    },
    "title": "BridgeRouter",
    "version": 1
  },
  "userdoc": {
    "events": {
      "Receive(uint64,address,address,address,uint256)": {
        "notice": "emitted when tokens are dispensed to an account on this domain emitted both when fast liquidity is provided, and when the transfer ultimately settles"
      },
      "Send(address,address,uint32,bytes32,uint256,bool,bytes32,bytes)": {
        "notice": "emitted when tokens are sent from this domain to another domain"
      }
    },
    "kind": "user",
    "methods": {
      "enrollCustom(uint32,bytes32,address)": {
        "notice": "Enroll a custom token. This allows projects to work with governance to specify a custom representation."
      },
      "enrollRemoteRouter(uint32,bytes32)": {
        "notice": "Register the address of a Router contract for the same xApp on a remote chain"
      },
      "handle(uint32,uint32,bytes32,bytes)": {
        "notice": "Handles an incoming message"
      },
      "migrate(address)": {
        "notice": "Migrate all tokens in a previous representation to the latest custom representation. This works by looking up local mappings and then burning old tokens and minting new tokens."
      },
      "send(address,uint256,uint32,bytes32,bool,bytes32)": {
        "notice": "Send tokens to a recipient on a remote chain"
      },
      "setConnext(address)": {
        "notice": "Sets the transaction manager."
      },
      "setXAppConnectionManager(address)": {
        "notice": "Modify the contract the xApp uses to validate Replica contracts"
      }
    },
    "version": 1
  },
  "storageLayout": {
    "storage": [
      {
        "astId": 130,
        "contract": "contracts/nomad-xapps/contracts/bridge/BridgeRouter.sol:BridgeRouter",
        "label": "_initialized",
        "offset": 0,
        "slot": "0",
        "type": "t_bool"
      },
      {
        "astId": 133,
        "contract": "contracts/nomad-xapps/contracts/bridge/BridgeRouter.sol:BridgeRouter",
        "label": "_initializing",
        "offset": 1,
        "slot": "0",
        "type": "t_bool"
      },
      {
        "astId": 1655,
        "contract": "contracts/nomad-xapps/contracts/bridge/BridgeRouter.sol:BridgeRouter",
        "label": "__gap",
        "offset": 0,
        "slot": "1",
        "type": "t_array(t_uint256)50_storage"
      },
      {
        "astId": 10,
        "contract": "contracts/nomad-xapps/contracts/bridge/BridgeRouter.sol:BridgeRouter",
        "label": "_owner",
        "offset": 0,
        "slot": "51",
        "type": "t_address"
      },
      {
        "astId": 122,
        "contract": "contracts/nomad-xapps/contracts/bridge/BridgeRouter.sol:BridgeRouter",
        "label": "__gap",
        "offset": 0,
        "slot": "52",
        "type": "t_array(t_uint256)49_storage"
      },
      {
        "astId": 21840,
        "contract": "contracts/nomad-xapps/contracts/bridge/BridgeRouter.sol:BridgeRouter",
        "label": "xAppConnectionManager",
        "offset": 0,
        "slot": "101",
        "type": "t_contract(XAppConnectionManager)16936"
      },
      {
        "astId": 21844,
        "contract": "contracts/nomad-xapps/contracts/bridge/BridgeRouter.sol:BridgeRouter",
        "label": "__GAP",
        "offset": 0,
        "slot": "102",
        "type": "t_array(t_uint256)49_storage"
      },
      {
        "astId": 21736,
        "contract": "contracts/nomad-xapps/contracts/bridge/BridgeRouter.sol:BridgeRouter",
        "label": "remotes",
        "offset": 0,
        "slot": "151",
        "type": "t_mapping(t_uint32,t_bytes32)"
      },
      {
        "astId": 21740,
        "contract": "contracts/nomad-xapps/contracts/bridge/BridgeRouter.sol:BridgeRouter",
        "label": "__GAP",
        "offset": 0,
        "slot": "152",
        "type": "t_array(t_uint256)49_storage"
      },
      {
        "astId": 22650,
        "contract": "contracts/nomad-xapps/contracts/bridge/BridgeRouter.sol:BridgeRouter",
        "label": "tokenRegistry",
        "offset": 0,
        "slot": "201",
        "type": "t_contract(ITokenRegistry)25993"
      },
      {
        "astId": 22654,
        "contract": "contracts/nomad-xapps/contracts/bridge/BridgeRouter.sol:BridgeRouter",
        "label": "liquidityProvider",
        "offset": 0,
        "slot": "202",
        "type": "t_mapping(t_bytes32,t_address)"
      },
      {
        "astId": 22657,
        "contract": "contracts/nomad-xapps/contracts/bridge/BridgeRouter.sol:BridgeRouter",
        "label": "connext",
        "offset": 0,
        "slot": "203",
        "type": "t_contract(IConnext)9577"
      },
      {
        "astId": 22661,
        "contract": "contracts/nomad-xapps/contracts/bridge/BridgeRouter.sol:BridgeRouter",
        "label": "__GAP",
        "offset": 0,
        "slot": "204",
        "type": "t_array(t_uint256)49_storage"
      }
    ],
    "types": {
      "t_address": {
        "encoding": "inplace",
        "label": "address",
        "numberOfBytes": "20"
      },
      "t_array(t_uint256)49_storage": {
        "base": "t_uint256",
        "encoding": "inplace",
        "label": "uint256[49]",
        "numberOfBytes": "1568"
      },
      "t_array(t_uint256)50_storage": {
        "base": "t_uint256",
        "encoding": "inplace",
        "label": "uint256[50]",
        "numberOfBytes": "1600"
      },
      "t_bool": {
        "encoding": "inplace",
        "label": "bool",
        "numberOfBytes": "1"
      },
      "t_bytes32": {
        "encoding": "inplace",
        "label": "bytes32",
        "numberOfBytes": "32"
      },
      "t_contract(IConnext)9577": {
        "encoding": "inplace",
        "label": "contract IConnext",
        "numberOfBytes": "20"
      },
      "t_contract(ITokenRegistry)25993": {
        "encoding": "inplace",
        "label": "contract ITokenRegistry",
        "numberOfBytes": "20"
      },
      "t_contract(XAppConnectionManager)16936": {
        "encoding": "inplace",
        "label": "contract XAppConnectionManager",
        "numberOfBytes": "20"
      },
      "t_mapping(t_bytes32,t_address)": {
        "encoding": "mapping",
        "key": "t_bytes32",
        "label": "mapping(bytes32 => address)",
        "numberOfBytes": "32",
        "value": "t_address"
      },
      "t_mapping(t_uint32,t_bytes32)": {
        "encoding": "mapping",
        "key": "t_uint32",
        "label": "mapping(uint32 => bytes32)",
        "numberOfBytes": "32",
        "value": "t_bytes32"
      },
      "t_uint256": {
        "encoding": "inplace",
        "label": "uint256",
        "numberOfBytes": "32"
      },
      "t_uint32": {
        "encoding": "inplace",
        "label": "uint32",
        "numberOfBytes": "4"
      }
    }
  }
}