{
  "address": "0x1C098BF6cb4E3226EA1bD0401E4E88b1097B9029",
  "abi": [
    {
      "inputs": [],
      "name": "AssetLogic__getTokenIndexFromStableSwapPool_notExist",
      "type": "error"
    },
    {
      "inputs": [],
      "name": "AssetLogic__handleIncomingAsset_ethWithErcTransfer",
      "type": "error"
    },
    {
      "inputs": [],
      "name": "AssetLogic__handleIncomingAsset_notAmount",
      "type": "error"
    },
    {
      "inputs": [],
      "name": "AssetLogic__transferAssetFromContract_notNative",
      "type": "error"
    },
    {
      "inputs": [],
      "name": "BaseConnextFacet__onlyOwner_notOwner",
      "type": "error"
    },
    {
      "inputs": [],
      "name": "BaseConnextFacet__onlyProposed_notProposedOwner",
      "type": "error"
    },
    {
      "inputs": [],
      "name": "BaseConnextFacet__onlyRemoteRouter_notRemoteRouter",
      "type": "error"
    },
    {
      "inputs": [],
      "name": "BaseConnextFacet__onlyReplica_notReplica",
      "type": "error"
    },
    {
      "inputs": [],
      "name": "BridgeFacet__bumpTransfer_valueIsZero",
      "type": "error"
    },
    {
      "inputs": [],
      "name": "BridgeFacet__execute_alreadyExecuted",
      "type": "error"
    },
    {
      "inputs": [],
      "name": "BridgeFacet__execute_invalidRouterSignature",
      "type": "error"
    },
    {
      "inputs": [],
      "name": "BridgeFacet__execute_maxRoutersExceeded",
      "type": "error"
    },
    {
      "inputs": [],
      "name": "BridgeFacet__execute_notReconciled",
      "type": "error"
    },
    {
      "inputs": [],
      "name": "BridgeFacet__execute_notSupportedRouter",
      "type": "error"
    },
    {
      "inputs": [],
      "name": "BridgeFacet__execute_unapprovedRelayer",
      "type": "error"
    },
    {
      "inputs": [],
      "name": "BridgeFacet__handleExecuteTransaction_invalidSponsoredAmount",
      "type": "error"
    },
    {
      "inputs": [],
      "name": "BridgeFacet__reconcile_alreadyReconciled",
      "type": "error"
    },
    {
      "inputs": [],
      "name": "BridgeFacet__reconcile_invalidAction",
      "type": "error"
    },
    {
      "inputs": [],
      "name": "BridgeFacet__setExecutor_invalidExecutor",
      "type": "error"
    },
    {
      "inputs": [],
      "name": "BridgeFacet__setPromiseRouter_invalidPromiseRouter",
      "type": "error"
    },
    {
      "inputs": [],
      "name": "BridgeFacet__setSponsorVault_invalidSponsorVault",
      "type": "error"
    },
    {
      "inputs": [],
      "name": "BridgeFacet__xcall_callbackNotAContract",
      "type": "error"
    },
    {
      "inputs": [],
      "name": "BridgeFacet__xcall_emptyTo",
      "type": "error"
    },
    {
      "inputs": [],
      "name": "BridgeFacet__xcall_nonZeroCallbackFeeForCallback",
      "type": "error"
    },
    {
      "inputs": [],
      "name": "BridgeFacet__xcall_notSupportedAsset",
      "type": "error"
    },
    {
      "inputs": [],
      "name": "BridgeFacet__xcall_wrongDomain",
      "type": "error"
    },
    {
      "anonymous": false,
      "inputs": [
        {
          "indexed": true,
          "internalType": "bytes32",
          "name": "transferId",
          "type": "bytes32"
        },
        {
          "indexed": true,
          "internalType": "address",
          "name": "to",
          "type": "address"
        },
        {
          "components": [
            {
              "components": [
                {
                  "internalType": "address",
                  "name": "to",
                  "type": "address"
                },
                {
                  "internalType": "bytes",
                  "name": "callData",
                  "type": "bytes"
                },
                {
                  "internalType": "uint32",
                  "name": "originDomain",
                  "type": "uint32"
                },
                {
                  "internalType": "uint32",
                  "name": "destinationDomain",
                  "type": "uint32"
                },
                {
                  "internalType": "address",
                  "name": "recovery",
                  "type": "address"
                },
                {
                  "internalType": "address",
                  "name": "callback",
                  "type": "address"
                },
                {
                  "internalType": "uint256",
                  "name": "callbackFee",
                  "type": "uint256"
                },
                {
                  "internalType": "bool",
                  "name": "forceSlow",
                  "type": "bool"
                },
                {
                  "internalType": "bool",
                  "name": "receiveLocal",
                  "type": "bool"
                }
              ],
              "internalType": "struct CallParams",
              "name": "params",
              "type": "tuple"
            },
            {
              "internalType": "address",
              "name": "local",
              "type": "address"
            },
            {
              "internalType": "address[]",
              "name": "routers",
              "type": "address[]"
            },
            {
              "internalType": "bytes[]",
              "name": "routerSignatures",
              "type": "bytes[]"
            },
            {
              "internalType": "uint256",
              "name": "relayerFee",
              "type": "uint256"
            },
            {
              "internalType": "uint256",
              "name": "amount",
              "type": "uint256"
            },
            {
              "internalType": "uint256",
              "name": "nonce",
              "type": "uint256"
            },
            {
              "internalType": "address",
              "name": "originSender",
              "type": "address"
            }
          ],
          "indexed": false,
          "internalType": "struct ExecuteArgs",
          "name": "args",
          "type": "tuple"
        },
        {
          "indexed": false,
          "internalType": "address",
          "name": "transactingAsset",
          "type": "address"
        },
        {
          "indexed": false,
          "internalType": "uint256",
          "name": "transactingAmount",
          "type": "uint256"
        },
        {
          "indexed": false,
          "internalType": "address",
          "name": "caller",
          "type": "address"
        }
      ],
      "name": "Executed",
      "type": "event"
    },
    {
      "anonymous": false,
      "inputs": [
        {
          "indexed": false,
          "internalType": "address",
          "name": "oldExecutor",
          "type": "address"
        },
        {
          "indexed": false,
          "internalType": "address",
          "name": "newExecutor",
          "type": "address"
        },
        {
          "indexed": false,
          "internalType": "address",
          "name": "caller",
          "type": "address"
        }
      ],
      "name": "ExecutorUpdated",
      "type": "event"
    },
    {
      "anonymous": false,
      "inputs": [
        {
          "indexed": false,
          "internalType": "address",
          "name": "oldRouter",
          "type": "address"
        },
        {
          "indexed": false,
          "internalType": "address",
          "name": "newRouter",
          "type": "address"
        },
        {
          "indexed": false,
          "internalType": "address",
          "name": "caller",
          "type": "address"
        }
      ],
      "name": "PromiseRouterUpdated",
      "type": "event"
    },
    {
      "anonymous": false,
      "inputs": [
        {
          "indexed": true,
          "internalType": "bytes32",
          "name": "transferId",
          "type": "bytes32"
        },
        {
          "indexed": true,
          "internalType": "uint32",
          "name": "origin",
          "type": "uint32"
        },
        {
          "indexed": false,
          "internalType": "address[]",
          "name": "routers",
          "type": "address[]"
        },
        {
          "indexed": false,
          "internalType": "address",
          "name": "asset",
          "type": "address"
        },
        {
          "indexed": false,
          "internalType": "uint256",
          "name": "amount",
          "type": "uint256"
        },
        {
          "indexed": false,
          "internalType": "address",
          "name": "caller",
          "type": "address"
        }
      ],
      "name": "Reconciled",
      "type": "event"
    },
    {
      "anonymous": false,
      "inputs": [
        {
          "indexed": false,
          "internalType": "address",
          "name": "oldSponsorVault",
          "type": "address"
        },
        {
          "indexed": false,
          "internalType": "address",
          "name": "newSponsorVault",
          "type": "address"
        },
        {
          "indexed": false,
          "internalType": "address",
          "name": "caller",
          "type": "address"
        }
      ],
      "name": "SponsorVaultUpdated",
      "type": "event"
    },
    {
      "anonymous": false,
      "inputs": [
        {
          "indexed": true,
          "internalType": "bytes32",
          "name": "transferId",
          "type": "bytes32"
        },
        {
          "indexed": false,
          "internalType": "uint256",
          "name": "relayerFee",
          "type": "uint256"
        },
        {
          "indexed": false,
          "internalType": "address",
          "name": "caller",
          "type": "address"
        }
      ],
      "name": "TransferRelayerFeesUpdated",
      "type": "event"
    },
    {
      "anonymous": false,
      "inputs": [
        {
          "indexed": true,
          "internalType": "bytes32",
          "name": "transferId",
          "type": "bytes32"
        },
        {
          "components": [
            {
              "components": [
                {
                  "internalType": "address",
                  "name": "to",
                  "type": "address"
                },
                {
                  "internalType": "bytes",
                  "name": "callData",
                  "type": "bytes"
                },
                {
                  "internalType": "uint32",
                  "name": "originDomain",
                  "type": "uint32"
                },
                {
                  "internalType": "uint32",
                  "name": "destinationDomain",
                  "type": "uint32"
                },
                {
                  "internalType": "address",
                  "name": "recovery",
                  "type": "address"
                },
                {
                  "internalType": "address",
                  "name": "callback",
                  "type": "address"
                },
                {
                  "internalType": "uint256",
                  "name": "callbackFee",
                  "type": "uint256"
                },
                {
                  "internalType": "bool",
                  "name": "forceSlow",
                  "type": "bool"
                },
                {
                  "internalType": "bool",
                  "name": "receiveLocal",
                  "type": "bool"
                }
              ],
              "internalType": "struct CallParams",
              "name": "params",
              "type": "tuple"
            },
            {
              "internalType": "address",
              "name": "transactingAssetId",
              "type": "address"
            },
            {
              "internalType": "uint256",
              "name": "amount",
              "type": "uint256"
            },
            {
              "internalType": "uint256",
              "name": "relayerFee",
              "type": "uint256"
            }
          ],
          "indexed": false,
          "internalType": "struct XCallArgs",
          "name": "xcallArgs",
          "type": "tuple"
        },
        {
          "components": [
            {
              "internalType": "address",
              "name": "transactingAssetId",
              "type": "address"
            },
            {
              "internalType": "uint256",
              "name": "amount",
              "type": "uint256"
            },
            {
              "internalType": "uint256",
              "name": "bridgedAmt",
              "type": "uint256"
            },
            {
              "internalType": "address",
              "name": "bridged",
              "type": "address"
            }
          ],
          "indexed": false,
          "internalType": "struct BridgeFacet.XCalledEventArgs",
          "name": "args",
          "type": "tuple"
        },
        {
          "indexed": false,
          "internalType": "uint256",
          "name": "nonce",
          "type": "uint256"
        },
        {
          "indexed": false,
          "internalType": "bytes",
          "name": "message",
          "type": "bytes"
        },
        {
          "indexed": false,
          "internalType": "address",
          "name": "caller",
          "type": "address"
        }
      ],
      "name": "XCalled",
      "type": "event"
    },
    {
      "inputs": [
        {
          "internalType": "bytes32",
          "name": "_transferId",
          "type": "bytes32"
        }
      ],
      "name": "bumpTransfer",
      "outputs": [],
      "stateMutability": "payable",
      "type": "function"
    },
    {
      "inputs": [],
      "name": "domain",
      "outputs": [
        {
          "internalType": "uint256",
          "name": "",
          "type": "uint256"
        }
      ],
      "stateMutability": "view",
      "type": "function"
    },
    {
      "inputs": [
        {
          "components": [
            {
              "components": [
                {
                  "internalType": "address",
                  "name": "to",
                  "type": "address"
                },
                {
                  "internalType": "bytes",
                  "name": "callData",
                  "type": "bytes"
                },
                {
                  "internalType": "uint32",
                  "name": "originDomain",
                  "type": "uint32"
                },
                {
                  "internalType": "uint32",
                  "name": "destinationDomain",
                  "type": "uint32"
                },
                {
                  "internalType": "address",
                  "name": "recovery",
                  "type": "address"
                },
                {
                  "internalType": "address",
                  "name": "callback",
                  "type": "address"
                },
                {
                  "internalType": "uint256",
                  "name": "callbackFee",
                  "type": "uint256"
                },
                {
                  "internalType": "bool",
                  "name": "forceSlow",
                  "type": "bool"
                },
                {
                  "internalType": "bool",
                  "name": "receiveLocal",
                  "type": "bool"
                }
              ],
              "internalType": "struct CallParams",
              "name": "params",
              "type": "tuple"
            },
            {
              "internalType": "address",
              "name": "local",
              "type": "address"
            },
            {
              "internalType": "address[]",
              "name": "routers",
              "type": "address[]"
            },
            {
              "internalType": "bytes[]",
              "name": "routerSignatures",
              "type": "bytes[]"
            },
            {
              "internalType": "uint256",
              "name": "relayerFee",
              "type": "uint256"
            },
            {
              "internalType": "uint256",
              "name": "amount",
              "type": "uint256"
            },
            {
              "internalType": "uint256",
              "name": "nonce",
              "type": "uint256"
            },
            {
              "internalType": "address",
              "name": "originSender",
              "type": "address"
            }
          ],
          "internalType": "struct ExecuteArgs",
          "name": "_args",
          "type": "tuple"
        }
      ],
      "name": "execute",
      "outputs": [
        {
          "internalType": "bytes32",
          "name": "",
          "type": "bytes32"
        }
      ],
      "stateMutability": "nonpayable",
      "type": "function"
    },
    {
      "inputs": [],
      "name": "executor",
      "outputs": [
        {
          "internalType": "contract IExecutor",
          "name": "",
          "type": "address"
        }
      ],
      "stateMutability": "view",
      "type": "function"
    },
    {
      "inputs": [
        {
          "internalType": "uint32",
          "name": "_origin",
          "type": "uint32"
        },
        {
          "internalType": "uint32",
          "name": "_nonce",
          "type": "uint32"
        },
        {
          "internalType": "bytes32",
          "name": "_sender",
          "type": "bytes32"
        },
        {
          "internalType": "bytes",
          "name": "_message",
          "type": "bytes"
        }
      ],
      "name": "handle",
      "outputs": [],
      "stateMutability": "nonpayable",
      "type": "function"
    },
    {
      "inputs": [],
      "name": "nonce",
      "outputs": [
        {
          "internalType": "uint256",
          "name": "",
          "type": "uint256"
        }
      ],
      "stateMutability": "view",
      "type": "function"
    },
    {
      "inputs": [],
      "name": "promiseRouter",
      "outputs": [
        {
          "internalType": "contract PromiseRouter",
          "name": "",
          "type": "address"
        }
      ],
      "stateMutability": "view",
      "type": "function"
    },
    {
      "inputs": [
        {
          "internalType": "bytes32",
          "name": "_transferId",
          "type": "bytes32"
        }
      ],
      "name": "reconciledTransfers",
      "outputs": [
        {
          "internalType": "bool",
          "name": "",
          "type": "bool"
        }
      ],
      "stateMutability": "view",
      "type": "function"
    },
    {
      "inputs": [
        {
          "internalType": "bytes32",
          "name": "_transferId",
          "type": "bytes32"
        }
      ],
      "name": "relayerFees",
      "outputs": [
        {
          "internalType": "uint256",
          "name": "",
          "type": "uint256"
        }
      ],
      "stateMutability": "view",
      "type": "function"
    },
    {
      "inputs": [
        {
          "internalType": "bytes32",
          "name": "_transferId",
          "type": "bytes32"
        }
      ],
      "name": "routedTransfers",
      "outputs": [
        {
          "internalType": "address[]",
          "name": "",
          "type": "address[]"
        }
      ],
      "stateMutability": "view",
      "type": "function"
    },
    {
      "inputs": [
        {
          "internalType": "address",
          "name": "_executor",
          "type": "address"
        }
      ],
      "name": "setExecutor",
      "outputs": [],
      "stateMutability": "nonpayable",
      "type": "function"
    },
    {
      "inputs": [
        {
          "internalType": "address payable",
          "name": "_promiseRouter",
          "type": "address"
        }
      ],
      "name": "setPromiseRouter",
      "outputs": [],
      "stateMutability": "nonpayable",
      "type": "function"
    },
    {
      "inputs": [
        {
          "internalType": "address",
          "name": "_sponsorVault",
          "type": "address"
        }
      ],
      "name": "setSponsorVault",
      "outputs": [],
      "stateMutability": "nonpayable",
      "type": "function"
    },
    {
      "inputs": [],
      "name": "sponsorVault",
      "outputs": [
        {
          "internalType": "contract ISponsorVault",
          "name": "",
          "type": "address"
        }
      ],
      "stateMutability": "view",
      "type": "function"
    },
    {
      "inputs": [
        {
          "components": [
            {
              "components": [
                {
                  "internalType": "address",
                  "name": "to",
                  "type": "address"
                },
                {
                  "internalType": "bytes",
                  "name": "callData",
                  "type": "bytes"
                },
                {
                  "internalType": "uint32",
                  "name": "originDomain",
                  "type": "uint32"
                },
                {
                  "internalType": "uint32",
                  "name": "destinationDomain",
                  "type": "uint32"
                },
                {
                  "internalType": "address",
                  "name": "recovery",
                  "type": "address"
                },
                {
                  "internalType": "address",
                  "name": "callback",
                  "type": "address"
                },
                {
                  "internalType": "uint256",
                  "name": "callbackFee",
                  "type": "uint256"
                },
                {
                  "internalType": "bool",
                  "name": "forceSlow",
                  "type": "bool"
                },
                {
                  "internalType": "bool",
                  "name": "receiveLocal",
                  "type": "bool"
                }
              ],
              "internalType": "struct CallParams",
              "name": "params",
              "type": "tuple"
            },
            {
              "internalType": "address",
              "name": "transactingAssetId",
              "type": "address"
            },
            {
              "internalType": "uint256",
              "name": "amount",
              "type": "uint256"
            },
            {
              "internalType": "uint256",
              "name": "relayerFee",
              "type": "uint256"
            }
          ],
          "internalType": "struct XCallArgs",
          "name": "_args",
          "type": "tuple"
        }
      ],
      "name": "xcall",
      "outputs": [
        {
          "internalType": "bytes32",
          "name": "",
          "type": "bytes32"
        }
      ],
      "stateMutability": "payable",
      "type": "function"
    }
  ],
  "transactionHash": "0x577898abae5d6ae43896e2ef095ccb368b2dd4961f9d79d3c5d584f6bccf4bb0",
  "args": [],
  "numDeployments": 1,
  "solcInputHash": "f5b2f37df86192a6d0177d8bf896b81c",
  "bytecode": "0x608060405234801561001057600080fd5b5061553d806100206000396000f3fe6080604052600436106100e85760003560e01c8063a142d6491161008a578063c26c9c0a11610059578063c26c9c0a1461026b578063c2fb26a6146102ab578063c34c08e5146102c0578063f0d6a924146102de57600080fd5b8063a142d649146101f8578063ab2dc3f514610218578063affed0e014610238578063bb2804001461024d57600080fd5b80632424401f116100c65780632424401f146101655780634156a8831461017857806372dbadfc146101995780639b098908146101cb57600080fd5b80631a8bc0e1146100ed5780631aebfe18146101235780631c3c0ea814610145575b600080fd5b3480156100f957600080fd5b5061010d610108366004614727565b6102fe565b60405161011a9190614740565b60405180910390f35b34801561012f57600080fd5b5061014361013e3660046147ad565b61036a565b005b34801561015157600080fd5b506101436101603660046147ad565b610432565b610143610173366004614727565b610505565b61018b6101863660046147ca565b610596565b60405190815260200161011a565b3480156101a557600080fd5b506004546001600160a01b03165b6040516001600160a01b03909116815260200161011a565b3480156101d757600080fd5b5061018b6101e6366004614727565b60009081526012602052604090205490565b34801561020457600080fd5b506101436102133660046147ad565b610634565b34801561022457600080fd5b50610143610233366004614891565b610707565b34801561024457600080fd5b5060065461018b565b34801561025957600080fd5b506015546001600160a01b03166101b3565b34801561027757600080fd5b5061029b610286366004614727565b6000908152600e602052604090205460ff1690565b604051901515815260200161011a565b3480156102b757600080fd5b5060085461018b565b3480156102cc57600080fd5b506007546001600160a01b03166101b3565b3480156102ea57600080fd5b5061018b6102f9366004614940565b610778565b6000818152600f602090815260409182902080548351818402810184019094528084526060939283018282801561035e57602002820191906000526020600020905b81546001600160a01b03168152600190910190602001808311610340575b50505050509050919050565b33610373610831565b6001600160a01b03161461039a576040516314e74a2560e21b815260040160405180910390fd5b6015546001600160a01b039081169082168114156103cb5760405163334f10a360e11b815260040160405180910390fd5b601580546001600160a01b0319166001600160a01b03848116918217909255604080519284168352602083019190915233908201527fbebea8e5917df53539d222b751ec993b536f5289f79cfec311e527481fee8501906060015b60405180910390a15050565b3361043b610831565b6001600160a01b031614610462576040516314e74a2560e21b815260040160405180910390fd5b6007546001600160a01b0390811690821681148061048857506001600160a01b0382163b155b156104a6576040516302c1835b60e21b815260040160405180910390fd5b600780546001600160a01b0319166001600160a01b03848116918217909255604080519284168352602083019190915233908201527ffb6e3b9089f982ec94f9efcf6f8358010c0aab7a69d739165d542659552c22c590606001610426565b34610523576040516348e7dc3f60e01b815260040160405180910390fd5b60008181526012602052604081208054349290610541908490614992565b9091555050600081815260126020908152604091829020548251908152339181019190915282917feab1c093c8ba2224a2907cd9efb6ed51c233306ff5a66853b84e02a0bf95feab910160405180910390a250565b60006105a18261085f565b60008060006105af856109bf565b6000838152601260205260409081902060608a013590556006549051939650919450925084917f7f9a44468cd4a3c9115f4484cc70939547e8d807c832f32b8c049302f981300191610608918991869188903390614b85565b60405180910390a26001600060060160008282546106269190614992565b909155509295945050505050565b3361063d610831565b6001600160a01b031614610664576040516314e74a2560e21b815260040160405180910390fd5b6004546001600160a01b0390811690821681148061068a57506001600160a01b0382163b155b156106a85760405163690e294960e01b815260040160405180910390fd5b600480546001600160a01b0319166001600160a01b03848116918217909255604080519284168352602083019190915233908201527f2873de4c5a17b06af1782c9bd388400d168f477b41d12d8b4a7008db725989fc90606001610426565b61071033610cc1565b61072d576040516337f4845160e21b815260040160405180910390fd5b63ffffffff841660009081526016602052604090205484908390811461076657604051636144997960e11b815260040160405180910390fd5b6107708684610d36565b505050505050565b6000806000610786846110e0565b9150915060008061079984841588611371565b915091506107aa86838387876114f8565b600084815260136020526040902080546001600160a01b031916331790556107d28680614c3b565b6107e09060208101906147ad565b6001600160a01b0316847fcc01b2a882ee6498e93fc33f54161f325c804d36dc80a0c8119655b1c09767228884863360405161081f9493929190614d4b565b60405180910390a35091949350505050565b7fc8fcad8db84d3cc18b4c41d551ea0ee66dd599cde068d998e57d5e09332c1320546001600160a01b031690565b60085461086c8280614c3b565b61087d906060810190604001614e3a565b63ffffffff16146108a15760405163522b4c9760e01b815260040160405180910390fd5b60006108ad8280614c3b565b6108bb9060208101906147ad565b6001600160a01b031614156108e25760405162845fdd60e41b815260040160405180910390fd5b60006108ee8280614c3b565b6108ff9060c081019060a0016147ad565b6001600160a01b03161480156109225750600061091c8280614c3b565b60c00135115b156109405760405163145e29ef60e11b815260040160405180910390fd5b600061094c8280614c3b565b61095d9060c081019060a0016147ad565b6001600160a01b03161415801561099e575061099c61097c8280614c3b565b61098d9060c081019060a0016147ad565b6001600160a01b03163b151590565b155b156109bc57604051630c4e8aa360e01b815260040160405180910390fd5b50565b604080516080810182526000808252602082018190529181018290526060818101839052906000610a096109f38680614c3b565b610a04906080810190606001614e3a565b611a89565b9050600080610a1e60408801602089016147ad565b6001600160a01b031614610a4157610a3c60408701602088016147ad565b610a4e565b6005546001600160a01b03165b6001600160a01b0381166000908152600c60209081526040918290208251808401909352805463ffffffff1683526001015490820181905291925090610aa7576040516379e5923d60e01b815260040160405180910390fd5b6000610ae2610abc60408a0160208b016147ad565b60408a0135610acb8b80614c3b565b610add9060c0013560608d0135614992565b611ae0565b915050600080610af3848685611b71565b915091506000610b038b86611c59565b9050610b0f8b80614c3b565b60c0013515610b89576004546001600160a01b0316635540f1c0610b338d80614c3b565b60c00135836040518363ffffffff1660e01b8152600401610b5691815260200190565b6000604051808303818588803b158015610b6f57600080fd5b505af1158015610b83573d6000803e3d6000fd5b50505050505b6000610b978c848487611ca7565b60175460408051639fa92f9d60e01b815290519293506001600160a01b0390911691639fa92f9d916004808201926020929091908290030181865afa158015610be4573d6000803e3d6000fd5b505050506040513d601f19601f82011682018060405250810190610c089190614e57565b6001600160a01b031663fa31de01610c208e80614c3b565b610c31906080810190606001614e3a565b8a846040518463ffffffff1660e01b8152600401610c5193929190614e74565b600060405180830381600087803b158015610c6b57600080fd5b505af1158015610c7f573d6000803e3d6000fd5b5050604080516080810182526001600160a01b039a8b168152602081019890985287019590955250919095166060840152939993985090965091945050505050565b601754604051635190bc5360e01b81526001600160a01b0383811660048301526000921690635190bc5390602401602060405180830381865afa158015610d0c573d6000803e3d6000fd5b505050506040513d601f19601f82011682018060405250810190610d309190614e99565b92915050565b6000610d50610d458383612001565b62ffffff1916612025565b90506000610d6362ffffff19831661203e565b90506000610d7662ffffff19841661206b565b9050610d8762ffffff1982166120c3565b610da457604051639b23e53d60e01b815260040160405180910390fd5b6000610db562ffffff1983166120d0565b6000818152600e602052604090205490915060ff1615610de857604051630ebc517960e11b815260040160405180910390fd5b6009546000906001600160a01b031663b869d89a610e0b62ffffff1987166120e5565b610e1a62ffffff198816612107565b6040516001600160e01b031960e085901b16815263ffffffff92909216600483015260248201526044016020604051808303816000875af1158015610e63573d6000803e3d6000fd5b505050506040513d601f19601f82011682018060405250810190610e879190614e57565b90506000610e9a62ffffff198516612129565b90506000610ead62ffffff19861661213e565b60095460405163c86415cb60e01b81526001600160a01b03868116600483015292935091169063c86415cb90602401602060405180830381865afa158015610ef9573d6000803e3d6000fd5b505050506040513d601f19601f82011682018060405250810190610f1d9190614e99565b610fdc576040516340c10f1960e01b8152306004820152602481018390526001600160a01b038416906340c10f1990604401600060405180830381600087803b158015610f6957600080fd5b505af1158015610f7d573d6000803e3d6000fd5b505060405163cc2ab7c760e01b8152600481018490526001600160a01b038616925063cc2ab7c79150602401600060405180830381600087803b158015610fc357600080fd5b505af1158015610fd7573d6000803e3d6000fd5b505050505b6000848152600e60209081526040808320805460ff19166001179055600f90915290208054801561108e5760006110138286614eb6565b905060005b8281101561108b57816000601001600086848154811061103a5761103a614ed8565b60009182526020808320909101546001600160a01b0390811684528382019490945260409283018220938c168252929092528120805490919061107e908490614992565b9091555050600101611018565b50505b8a63ffffffff16867f0e5f1128fa87ef75539a5e012b42695000db91072e7500fb2723ccbb37d0803c848888336040516110cb9493929190614eee565b60405180910390a35050505050505050505050565b33600090815260116020526040812054819060ff16611112576040516313f5362f60e11b815260040160405180910390fd5b60006111216040850185614f66565b6014549092508211159050611149576040516313c06ef360e01b815260040160405180910390fd5b600061115485612153565b6000818152600e602052604090205490915060ff166111738680614c3b565b6111859061010081019060e001614fb0565b801561118f575080155b156111ad57604051636320d2cf60e11b815260040160405180910390fd5b6040805160208082018590528183018690528251808303840181526060909201909252805191012083156113115760005b8481101561130b576111ee612242565b15801561124b5750601e600061120760408b018b614f66565b8481811061121757611217614ed8565b905060200201602081019061122c91906147ad565b6001600160a01b0316815260208101919091526040016000205460ff16155b1561126957604051630e1eb7f760e31b815260040160405180910390fd5b6112a18261127a60608b018b614f66565b8481811061128a5761128a614ed8565b905060200281019061129c9190614fcd565b612269565b6001600160a01b03166112b760408a018a614f66565b838181106112c7576112c7614ed8565b90506020020160208101906112dc91906147ad565b6001600160a01b03161461130357604051633a1dd23360e21b815260040160405180910390fd5b6001016111de565b5061132f565b8161132f57604051636320d2cf60e11b815260040160405180910390fd5b6000838152601360205260409020546001600160a01b0316156113655760405163c2f8eb9360e01b815260040160405180910390fd5b50909590945092505050565b60008060a0830135816113876040860186614f66565b9150508515611492576001546002546113a59160a08801359161230b565b91506113b46040860186614f66565b6000898152600f602052604090206113cd9290916146b8565b5060006113da8284614eb6565b905060005b8281101561148f5781601060006113f960408b018b614f66565b8581811061140957611409614ed8565b905060200201602081019061141e91906147ad565b6001600160a01b03166001600160a01b03168152602001908152602001600020600089602001602081019061145391906147ad565b6001600160a01b03166001600160a01b0316815260200190815260200160002060008282546114829190615014565b90915550506001016113df565b50505b61149c8580614c3b565b6114af9061012081019061010001614fb0565b156114d057816114c560408701602088016147ad565b9350935050506114f0565b6114e96114e360408701602088016147ad565b83612322565b9350935050505b935093915050565b6015546001600160a01b03161561177d57806116c9576040516370a0823160e01b81523060048201526000906001600160a01b038516906370a0823190602401602060405180830381865afa158015611555573d6000803e3d6000fd5b505050506040513d601f19601f82011682018060405250810190611579919061502b565b6015549091506000906001600160a01b031663c87ba5a68660a08a01356115a08b80614c3b565b6115ae9060208101906147ad565b60405160e085901b6001600160e01b03191681526001600160a01b039384166004820152602481019290925290911660448201526064016020604051808303816000875af1158015611604573d6000803e3d6000fd5b505050506040513d601f19601f82011682018060405250810190611628919061502b565b90506116348183614992565b6040516370a0823160e01b81523060048201526001600160a01b038716906370a0823190602401602060405180830381865afa158015611678573d6000803e3d6000fd5b505050506040513d601f19601f8201168201806040525081019061169c919061502b565b146116ba576040516304184fc360e31b815260040160405180910390fd5b6116c48187614992565b955050505b6015546001600160a01b03166304df19dd6116e48780614c3b565b6116f5906060810190604001614e3a565b6116ff8880614c3b565b61170d9060208101906147ad565b6040516001600160e01b031960e085901b16815263ffffffff9290921660048301526001600160a01b0316602482015260808801356044820152606401600060405180830381600087803b15801561176457600080fd5b505af1158015611778573d6000803e3d6000fd5b505050505b7fc5d2460186f7233c927e7db2dcc703c0e500b653ca82273b7bfad8045d85a4706117a88680614c3b565b6117b6906020810190614fcd565b6040516117c4929190615044565b604051809103902014156117f9576117f4836117e08780614c3b565b6117ee9060208101906147ad565b866123ef565b611a82565b6007546118119084906001600160a01b0316866123ef565b6007546040805160e0810182528481526020810187905260009283926001600160a01b0390911691636d6801e791810161184b8b80614c3b565b6118599060208101906147ad565b6001600160a01b031681526020016118718b80614c3b565b6118829060a08101906080016147ad565b6001600160a01b03168152602001886001600160a01b03168152602001866118c3576040518060400160405280601d815260200162ffffff198152506118f7565b6118f76118d08c80614c3b565b6118e1906060810190604001614e3a565b6118f26101008e0160e08f016147ad565b6124b0565b81526020016119068b80614c3b565b611914906020810190614fcd565b8080601f01602080910402602001604051908101604052809392919081815260200183838082843760009201919091525050509152506040516001600160e01b031960e084901b16815261196b9190600401615054565b6000604051808303816000875af115801561198a573d6000803e3d6000fd5b505050506040513d6000823e601f3d908101601f191682016040526119b29190810190615100565b909250905060006119c38880614c3b565b6119d49060c081019060a0016147ad565b6001600160a01b031614611a7f576004546001600160a01b03166365d82b8b6119fd8980614c3b565b611a0e906060810190604001614e3a565b86611a198b80614c3b565b611a2a9060c081019060a0016147ad565b86866040518663ffffffff1660e01b8152600401611a4c959493929190615165565b600060405180830381600087803b158015611a6657600080fd5b505af1158015611a7a573d6000803e3d6000fd5b505050505b50505b5050505050565b63ffffffff811660009081526016602052604090205480611adb5760405162461bcd60e51b81526020600482015260076024820152662172656d6f746560c81b60448201526064015b60405180910390fd5b919050565b60008080846001600160a01b038716611b3a57611afd8587614992565b3414611b1c5760405163024789fb60e21b815260040160405180910390fd5b611b25866124df565b60058201546001600160a01b03169650611b67565b843414611b5a5760405163eb9c265360e01b815260040160405180910390fd5b611b64878761253b565b90505b9596945050505050565b602083015160009081908190611b8d57838592509250506114f0565b600981015486516020880151604051631626cf1960e21b815263ffffffff909216600483015260248201526000916001600160a01b03169063589b3c6490604401602060405180830381865afa158015611beb573d6000803e3d6000fd5b505050506040513d601f19601f82011682018060405250810190611c0f9190614e57565b905084611c225784935091506114f09050565b856001600160a01b0316816001600160a01b03161415611c495784869350935050506114f0565b6114e9876020015187838861262a565b600654600090611c698480614c3b565b602080850151855160408051611c89969594339493928b013591016151a0565b60405160208183030381529060405280519060200120905092915050565b60095460405163c86415cb60e01b81526001600160a01b03808616600483015260609286926000929091169063c86415cb90602401602060405180830381865afa158015611cf9573d6000803e3d6000fd5b505050506040513d601f19601f82011682018060405250810190611d1d9190614e99565b15611e6157611e5a826001600160a01b03166306fdde036040518163ffffffff1660e01b81526004016000604051808303816000875af1158015611d65573d6000803e3d6000fd5b505050506040513d6000823e601f3d908101601f19168201604052611d8d91908101906151ed565b836001600160a01b03166395d89b416040518163ffffffff1660e01b8152600401600060405180830381865afa158015611dcb573d6000803e3d6000fd5b505050506040513d6000823e601f3d908101601f19168201604052611df391908101906151ed565b846001600160a01b031663313ce5676040518163ffffffff1660e01b8152600401602060405180830381865afa158015611e31573d6000803e3d6000fd5b505050506040513d601f19601f82011682018060405250810190611e559190615236565b612740565b9050611f2d565b8315611ec857604051632770a7eb60e21b8152336004820152602481018590526001600160a01b03831690639dc29fac90604401600060405180830381600087803b158015611eaf57600080fd5b505af1158015611ec3573d6000803e3d6000fd5b505050505b816001600160a01b0316634815fcb16040518163ffffffff1660e01b8152600401602060405180830381865afa158015611f06573d6000803e3d6000fd5b505050506040513d601f19601f82011682018060405250810190611f2a919061502b565b90505b6000611f61611f59611f3f8a80614c3b565b611f4d9060208101906147ad565b6001600160a01b031690565b86848961277c565b6009546040516378a9bb4360e11b81526001600160a01b038a811660048301529293506000928392169063f1537686906024016040805180830381865afa158015611fb0573d6000803e3d6000fd5b505050506040513d601f19601f82011682018060405250810190611fd49190615259565b915091506000611fe483836127ce565b9050611ff08185612802565b96505050505050505b949350505050565b81516000906020840161201c64ffffffffff851682846128d1565b95945050505050565b6000610d3061203383612915565b62ffffff1916612947565b6000816002612055815b62ffffff198416906129a2565b50611ff962ffffff198516600060246001612a7b565b600081600261207981612048565b5060006120946024601887901c6001600160601b0316615014565b905060006120a186612aeb565b60ff1690506120b962ffffff19871660248484612a7b565b9695505050505050565b6000610d30826003612b00565b6000610d3062ffffff19831660616020612b5f565b60008160016120f381612048565b50611ff962ffffff19851660006004612cb8565b600081600161211581612048565b50611ff962ffffff19851660046020612b5f565b6000610d3062ffffff19831660216020612cb8565b6000610d3062ffffff19831660416020612b5f565b600954600090819081906001600160a01b031663f153768661217b60408701602088016147ad565b6040516001600160e01b031960e084901b1681526001600160a01b0390911660048201526024016040805180830381865afa1580156121be573d6000803e3d6000fd5b505050506040513d601f19601f820116820180604052508101906121e29190615259565b909250905060c08401356121f68580614c3b565b612207610100870160e088016147ad565b83858860a00135604051602001612223969594939291906151a0565b6040516020818303038152906040528051906020012092505050919050565b60008061224d610831565b6001600160a01b031614806122645750601a5460ff165b905090565b60006123016122c5856040517f19457468657265756d205369676e6564204d6573736167653a0a3332000000006020820152603c8101829052600090605c01604051602081830303815290604052805190602001209050919050565b84848080601f016020809104026020016040519081016040528093929190818152602001838380828437600092019190915250612ce892505050565b90505b9392505050565b600081612318848661529d565b6123019190614eb6565b600080808060098101546040516378a9bb4360e11b81526001600160a01b0388811660048301529293506000929091169063f1537686906024016040805180830381865afa158015612378573d6000803e3d6000fd5b505050506040513d601f19601f8201168201806040525081019061239c9190615259565b6000818152600d850160205260409020549092506001600160a01b03908116915087168114156123d4578587945094505050506123e8565b6123e08288838961262a565b945094505050505b9250929050565b60006001600160a01b03841661241857604051632b28b36d60e01b815260040160405180910390fd5b60058101546001600160a01b038581169116141561249f576005810154604051632e1a7d4d60e01b8152600481018490526001600160a01b0390911690632e1a7d4d90602401600060405180830381600087803b15801561247857600080fd5b505af115801561248c573d6000803e3d6000fd5b5050505061249a8383612d0c565b6124aa565b6124aa848484612e2a565b50505050565b6060600183836040516020016124c8939291906152bc565b604051602081830303815290604052905092915050565b60055460408051630d0e30db60e41b815290516000926001600160a01b03169163d0e30db0918591600480820192879290919082900301818588803b15801561252757600080fd5b505af1158015611a7f573d6000803e3d6000fd5b6040516370a0823160e01b815230600482015260009081906001600160a01b038516906370a0823190602401602060405180830381865afa158015612584573d6000803e3d6000fd5b505050506040513d601f19601f820116820180604052508101906125a8919061502b565b90506125b684333086612e8d565b6040516370a0823160e01b815230600482015281906001600160a01b038616906370a0823190602401602060405180830381865afa1580156125fc573d6000803e3d6000fd5b505050506040513d601f19601f82011682018060405250810190612620919061502b565b611ff99190615014565b600084815260246020526040812060070154819081901561268f5760006126518888612ec5565b9050600061265f8988612ec5565b60008a815260248501602052604081209192506126829190849084908a90612f45565b8794509450505050612737565b6000878152600a820160205260409020546001600160a01b03166126b4878287613243565b60405163d5914c4560e01b8152600481018690526001600160a01b038881166024830152878116604483015282169063d5914c45906064016020604051808303816000875af115801561270b573d6000803e3d6000fd5b505050506040513d601f19601f8201168201806040525081019061272f919061502b565b869350935050505b94509492505050565b60008351848451858560405160200161275d959493929190615309565b6040516020818303038152906040528051906020012090509392505050565b600061201c60036127b860006003898989896040516020016127a2959493929190615369565b60408051601f1981840301815291905290612001565b6301000000600160d81b031660d89190911b1790565b600061230460016040516001600160e01b031960e087901b166020820152602481018590526127b8906000906044016127a2565b606082600161281081612048565b5061281a84613358565b6128505760405162461bcd60e51b815260206004820152600760248201526610b0b1ba34b7b760c91b6044820152606401611ad2565b604080516002808252606082018352600092602083019080368337019050509050858160008151811061288557612885614ed8565b602002602001019062ffffff1916908162ffffff19168152505084816001815181106128b3576128b3614ed8565b62ffffff19909216602092830291909101909101526120b981613363565b6000806128de8385614992565b90506040518111156128ee575060005b806129005762ffffff19915050612304565b5050606092831b9190911790911b1760181b90565b6000612920826133b8565b1561293d576301000000600160d81b038216600160d91b17610d30565b62ffffff19610d30565b6000612952826133db565b61299e5760405162461bcd60e51b815260206004820152601960248201527f56616c696469747920617373657274696f6e206661696c6564000000000000006044820152606401611ad2565b5090565b60006129ae8383613419565b612a745760006129cd6129c18560d81c90565b64ffffffffff1661343c565b91505060006129e28464ffffffffff1661343c565b6040517f5479706520617373657274696f6e206661696c65642e20476f7420307800000060208201526001600160b01b031960b086811b8216603d8401526c05c408af0e0cac6e8cac84060f609b1b604784015283901b16605482015290925060009150605e0160405160208183030381529060405290508060405162461bcd60e51b8152600401611ad291906153a4565b5090919050565b600080612a918660781c6001600160601b031690565b6001600160601b03169050612aa5866134ea565b84612ab08784614992565b612aba9190614992565b1115612acd5762ffffff19915050611ff9565b612ad78582614992565b90506120b98364ffffffffff1682866128d1565b6000610d3062ffffff19831660246001612cb8565b6000816003811115612b1457612b14615287565b60ff16612b2084613523565b60ff161480156123045750816003811115612b3d57612b3d615287565b612b4684613537565b6003811115612b5757612b57615287565b149392505050565b600060ff8216612b7157506000612304565b612b848460181c6001600160601b031690565b6001600160601b0316612b9a60ff841685614992565b1115612bfe57612be5612bb68560781c6001600160601b031690565b6001600160601b0316612bd28660181c6001600160601b031690565b6001600160601b0316858560ff16613552565b60405162461bcd60e51b8152600401611ad291906153a4565b60208260ff161115612c785760405162461bcd60e51b815260206004820152603a60248201527f54797065644d656d566965772f696e646578202d20417474656d70746564207460448201527f6f20696e646578206d6f7265207468616e2033322062797465730000000000006064820152608401611ad2565b600882026000612c918660781c6001600160601b031690565b6001600160601b031690506000600160ff1b60001984011d91909501511695945050505050565b6000612cc58260206153b7565b612cd09060086153da565b60ff16612cde858585612b5f565b901c949350505050565b6000806000612cf785856135c0565b91509150612d048161362d565b509392505050565b80471015612d5c5760405162461bcd60e51b815260206004820152601d60248201527f416464726573733a20696e73756666696369656e742062616c616e63650000006044820152606401611ad2565b6000826001600160a01b03168260405160006040518083038185875af1925050503d8060008114612da9576040519150601f19603f3d011682016040523d82523d6000602084013e612dae565b606091505b5050905080612e255760405162461bcd60e51b815260206004820152603a60248201527f416464726573733a20756e61626c6520746f2073656e642076616c75652c207260448201527f6563697069656e74206d617920686176652072657665727465640000000000006064820152608401611ad2565b505050565b6040516001600160a01b038316602482015260448101829052612e2590849063a9059cbb60e01b906064015b60408051601f198184030181529190526020810180516001600160e01b03166001600160e01b0319909316929092179091526137e8565b6040516001600160a01b03808516602483015283166044820152606481018290526124aa9085906323b872dd60e01b90608401612e56565b60008281526025602090815260408083206001600160a01b0385168085529083528184205486855260249093529083206007018054849360ff1692919083908110612f1257612f12614ed8565b6000918252602090912001546001600160a01b031614611ff95760405163054e442960e41b815260040160405180910390fd5b600080866007018660ff1681548110612f6057612f60614ed8565b6000918252602090912001546040516370a0823160e01b81523360048201526001600160a01b03909116915081906370a0823190602401602060405180830381865afa158015612fb4573d6000803e3d6000fd5b505050506040513d601f19601f82011682018060405250810190612fd8919061502b565b8411156130275760405162461bcd60e51b815260206004820152601d60248201527f43616e6e6f742073776170206d6f7265207468616e20796f75206f776e0000006044820152606401611ad2565b60008060008960090180548060200260200160405190810160405280929190818152602001828054801561307a57602002820191906000526020600020905b815481526020019060010190808311613066575b5050505050905061308e8a8a8a8a856138ba565b9093509150858310156130e35760405162461bcd60e51b815260206004820181905260248201527f53776170206469646e277420726573756c7420696e206d696e20746f6b656e736044820152606401611ad2565b60006131318b6008018a60ff168154811061310057613100614ed8565b906000526020600020015461312b6402540be40061312b8f6005015488613a7b90919063ffffffff16565b90613a87565b905061316288838c60ff168151811061314c5761314c614ed8565b6020026020010151613a9390919063ffffffff16565b8b6009018b60ff168154811061317a5761317a614ed8565b90600052602060002001819055506131c1816131bb86858d60ff16815181106131a5576131a5614ed8565b6020026020010151613a9f90919063ffffffff16565b90613a9f565b8b6009018a60ff16815481106131d9576131d9614ed8565b60009182526020918290200191909155604080518a815291820186905260ff8c8116838301528b1660608301525133917fc6c1e0630dbe9130cc068028486c0d118ddcea348550819defd5cb8c257f8a38919081900360800190a250919998505050505050505050565b8015806132bd5750604051636eb1769f60e11b81523060048201526001600160a01b03838116602483015284169063dd62ed3e90604401602060405180830381865afa158015613297573d6000803e3d6000fd5b505050506040513d601f19601f820116820180604052508101906132bb919061502b565b155b6133285760405162461bcd60e51b815260206004820152603660248201527f5361666545524332303a20617070726f76652066726f6d206e6f6e2d7a65726f60448201527520746f206e6f6e2d7a65726f20616c6c6f77616e636560501b6064820152608401611ad2565b6040516001600160a01b038316602482015260448101829052612e2590849063095ea7b360e01b90606401612e56565b6000610d30826120c3565b60405160609060006133788460208401613aab565b9050600061338f8260181c6001600160601b031690565b6001600160601b0316905060006133a583613b3b565b9184525082016020016040525092915050565b6000601882901c6001600160601b03166133d460816024614992565b1492915050565b60006133e78260d81c90565b64ffffffffff1664ffffffffff141561340257506000919050565b600061340d836134ea565b60405110199392505050565b60008164ffffffffff1661342d8460d81c90565b64ffffffffff16149392505050565b600080601f5b600f8160ff16111561349157600061345b8260086153da565b60ff1685901c905061346c81613b51565b61ffff16841793508160ff1660101461348757601084901b93505b5060001901613442565b50600f5b60ff8160ff1610156134e45760006134ae8260086153da565b60ff1685901c90506134bf81613b51565b61ffff16831792508160ff166000146134da57601083901b92505b5060001901613495565b50915091565b60006134ff8260181c6001600160601b031690565b6135128360781c6001600160601b031690565b016001600160601b03169050919050565b6000610d3062ffffff198316826001612cb8565b600060d882901c60ff166003811115610d3057610d30615287565b6060600061355f8661343c565b915050600061356d8661343c565b915050600061357b8661343c565b91505060006135898661343c565b915050838383836040516020016135a39493929190615403565b604051602081830303815290604052945050505050949350505050565b6000808251604114156135f75760208301516040840151606085015160001a6135eb87828585613b83565b945094505050506123e8565b8251604014156136215760208301516040840151613616868383613c6d565b9350935050506123e8565b506000905060026123e8565b600081600481111561364157613641615287565b141561364a5750565b600181600481111561365e5761365e615287565b14156136ac5760405162461bcd60e51b815260206004820152601860248201527f45434453413a20696e76616c6964207369676e617475726500000000000000006044820152606401611ad2565b60028160048111156136c0576136c0615287565b141561370e5760405162461bcd60e51b815260206004820152601f60248201527f45434453413a20696e76616c6964207369676e6174757265206c656e677468006044820152606401611ad2565b600381600481111561372257613722615287565b141561377b5760405162461bcd60e51b815260206004820152602260248201527f45434453413a20696e76616c6964207369676e6174757265202773272076616c604482015261756560f01b6064820152608401611ad2565b600481600481111561378f5761378f615287565b14156109bc5760405162461bcd60e51b815260206004820152602260248201527f45434453413a20696e76616c6964207369676e6174757265202776272076616c604482015261756560f01b6064820152608401611ad2565b600061383d826040518060400160405280602081526020017f5361666545524332303a206c6f772d6c6576656c2063616c6c206661696c6564815250856001600160a01b0316613c989092919063ffffffff16565b805190915015612e25578080602001905181019061385b9190614e99565b612e255760405162461bcd60e51b815260206004820152602a60248201527f5361666545524332303a204552433230206f7065726174696f6e20646964206e6044820152691bdd081cdd58d8d9595960b21b6064820152608401611ad2565b60008060008760080180548060200260200160405190810160405280929190818152602001828054801561390d57602002820191906000526020600020905b8154815260200190600101908083116138f9575b5050505050905060006139208583613ca7565b905080518860ff16108015613938575080518760ff16105b6139845760405162461bcd60e51b815260206004820152601860248201527f546f6b656e20696e646578206f7574206f662072616e676500000000000000006044820152606401611ad2565b60006139db828a60ff168151811061399e5761399e614ed8565b60200260200101516139d5858c60ff16815181106139be576139be614ed8565b60200260200101518a613a7b90919063ffffffff16565b90613a93565b905060006139f46139eb8c613dcc565b8b8b8587613dd7565b9050613a1460016131bb83868d60ff16815181106131a5576131a5614ed8565b9550613a366402540be40061312b8d6004015489613a7b90919063ffffffff16565b9450613a6b848a60ff1681518110613a5057613a50614ed8565b602002602001015161312b8789613a9f90919063ffffffff16565b9550505050509550959350505050565b6000612304828461529d565b60006123048284614eb6565b60006123048284614992565b60006123048284615014565b600060405182811115613abe5760206060fd5b506000805b8451811015613b2b576000858281518110613ae057613ae0614ed8565b60200260200101519050613af681848701614027565b50613b0a8160181c6001600160601b031690565b6001600160601b031683019250508080613b23906154da565b915050613ac3565b50606083901b811760181b611ff9565b6000613b468261417f565b610d3090602061529d565b6000613b6360048360ff16901c6141b4565b60ff1661ffff919091161760081b613b7a826141b4565b60ff1617919050565b6000807f7fffffffffffffffffffffffffffffff5d576e7357a4501ddfe92f46681b20a0831115613bba5750600090506003612737565b8460ff16601b14158015613bd257508460ff16601c14155b15613be35750600090506004612737565b6040805160008082526020820180845289905260ff881692820192909252606081018690526080810185905260019060a0016020604051602081039080840390855afa158015613c37573d6000803e3d6000fd5b5050604051601f1901519150506001600160a01b038116613c6057600060019250925050612737565b9660009650945050505050565b6000806001600160ff1b03831681613c8a60ff86901c601b614992565b90506114e987828885613b83565b60606123018484600085614310565b81518151606091908114613cfd5760405162461bcd60e51b815260206004820152601f60248201527f42616c616e636573206d757374206d61746368206d756c7469706c69657273006044820152606401611ad2565b60008167ffffffffffffffff811115613d1857613d18614822565b604051908082528060200260200182016040528015613d41578160200160208202803683370190505b50905060005b82811015613dc357613d94858281518110613d6457613d64614ed8565b6020026020010151878381518110613d7e57613d7e614ed8565b6020026020010151613a7b90919063ffffffff16565b828281518110613da657613da6614ed8565b602090810291909101015280613dbb816154da565b915050613d47565b50949350505050565b6000610d3082614441565b805160009060ff8681169086161415613e325760405162461bcd60e51b815260206004820152601d60248201527f43616e277420636f6d7061726520746f6b656e20746f20697473656c660000006044820152606401611ad2565b808660ff16108015613e465750808560ff16105b613e8b5760405162461bcd60e51b8152602060048201526016602482015275151bdad95b9cc81b5d5cdd081899481a5b881c1bdbdb60521b6044820152606401611ad2565b6000613e9784896144c2565b905080600080613ea7858c613a7b565b90506000805b86811015613f30578b60ff16811415613ec857899150613ef8565b8a60ff168114613ef357888181518110613ee457613ee4614ed8565b60200260200101519150613ef8565b613f1e565b613f028483613a93565b9350613f1b613f118389613a7b565b61312b8789613a7b565b94505b80613f28816154da565b915050613ead565b50613f53613f3e8388613a7b565b61312b6064613f4d888a613a7b565b90613a7b565b93506000613f70613f698461312b896064613a7b565b8590613a93565b9050600086815b610100811015613fde579091508190613faa613f9c8a6131bb876139d5876002613a7b565b61312b8a6139d58680613a7b565b9150613fb68284614643565b15613fcc5750985061201c975050505050505050565b80613fd6816154da565b915050613f77565b5060405162461bcd60e51b815260206004820152601e60248201527f417070726f78696d6174696f6e20646964206e6f7420636f6e766572676500006044820152606401611ad2565b600062ffffff1980841614156140905760405162461bcd60e51b815260206004820152602860248201527f54797065644d656d566965772f636f7079546f202d204e756c6c20706f696e7460448201526732b9103232b932b360c11b6064820152608401611ad2565b614099836133db565b6140f95760405162461bcd60e51b815260206004820152602b60248201527f54797065644d656d566965772f636f7079546f202d20496e76616c696420706f60448201526a34b73a32b9103232b932b360a91b6064820152608401611ad2565b600061410e8460181c6001600160601b031690565b6001600160601b03169050600061412e8560781c6001600160601b031690565b6001600160601b03169050600060405190508481111561414e5760206060fd5b8285848460045afa506120b96141648760d81c90565b64ffffffffff60601b606091821b168717901b841760181b90565b600060206141968360181c6001600160601b031690565b6141aa906001600160601b03166020614992565b610d309190614eb6565b600060f08083179060ff821614156141cf5750603092915050565b8060ff1660f114156141e45750603192915050565b8060ff1660f214156141f95750603292915050565b8060ff1660f3141561420e5750603392915050565b8060ff1660f414156142235750603492915050565b8060ff1660f514156142385750603592915050565b8060ff1660f6141561424d5750603692915050565b8060ff1660f714156142625750603792915050565b8060ff1660f814156142775750603892915050565b8060ff1660f9141561428c5750603992915050565b8060ff1660fa14156142a15750606192915050565b8060ff1660fb14156142b65750606292915050565b8060ff1660fc14156142cb5750606392915050565b8060ff1660fd14156142e05750606492915050565b8060ff1660fe14156142f55750606592915050565b8060ff1660ff141561430a5750606692915050565b50919050565b6060824710156143715760405162461bcd60e51b815260206004820152602660248201527f416464726573733a20696e73756666696369656e742062616c616e636520666f6044820152651c8818d85b1b60d21b6064820152608401611ad2565b6001600160a01b0385163b6143c85760405162461bcd60e51b815260206004820152601d60248201527f416464726573733a2063616c6c20746f206e6f6e2d636f6e74726163740000006044820152606401611ad2565b600080866001600160a01b031685876040516143e491906154f5565b60006040518083038185875af1925050503d8060008114614421576040519150601f19603f3d011682016040523d82523d6000602084013e614426565b606091505b509150915061443682828661465a565b979650505050505050565b600381015460018201546000919042821115612304576002840154845480831115614494576120b961448d6144768685613a9f565b61312b6144834287613a9f565b613f4d8887613a9f565b8290613a93565b6120b96144bb6144a48685613a9f565b61312b6144b14287613a9f565b613f4d8689613a9f565b8290613a9f565b815160009081805b82811015614512576144fe8682815181106144e7576144e7614ed8565b602002602001015183613a9390919063ffffffff16565b91508061450a816154da565b9150506144ca565b508061452357600092505050610d30565b600081816145318786613a7b565b905060005b610100811015614604578260005b878110156145835761456f614565898d8481518110613d7e57613d7e614ed8565b61312b8488613a7b565b91508061457b816154da565b915050614544565b5092935083926145d16145b161459e83613f4d8b6001613a93565b6139d5606461312b89613f4d8a84613a9f565b61312b86613f4d6145c2868d613a7b565b6139d5606461312b8b8f613a7b565b93506145dd8486614643565b156145f15783975050505050505050610d30565b50806145fc816154da565b915050614536565b5060405162461bcd60e51b81526020600482015260136024820152724420646f6573206e6f7420636f6e766572676560681b6044820152606401611ad2565b600060016146518484614693565b11159392505050565b60608315614669575081612304565b8251156146795782518084602001fd5b8160405162461bcd60e51b8152600401611ad291906153a4565b6000818311156146ae576146a78284615014565b9050610d30565b6123048383615014565b82805482825590600052602060002090810192821561470b579160200282015b8281111561470b5781546001600160a01b0319166001600160a01b038435161782556020909201916001909101906146d8565b5061299e9291505b8082111561299e5760008155600101614713565b60006020828403121561473957600080fd5b5035919050565b6020808252825182820181905260009190848201906040850190845b818110156147815783516001600160a01b03168352928401929184019160010161475c565b50909695505050505050565b6001600160a01b03811681146109bc57600080fd5b8035611adb8161478d565b6000602082840312156147bf57600080fd5b81356123048161478d565b6000602082840312156147dc57600080fd5b813567ffffffffffffffff8111156147f357600080fd5b82016080818503121561230457600080fd5b63ffffffff811681146109bc57600080fd5b8035611adb81614805565b634e487b7160e01b600052604160045260246000fd5b604051601f8201601f1916810167ffffffffffffffff8111828210171561486157614861614822565b604052919050565b600067ffffffffffffffff82111561488357614883614822565b50601f01601f191660200190565b600080600080608085870312156148a757600080fd5b84356148b281614805565b935060208501356148c281614805565b925060408501359150606085013567ffffffffffffffff8111156148e557600080fd5b8501601f810187136148f657600080fd5b803561490961490482614869565b614838565b81815288602083850101111561491e57600080fd5b8160208401602083013760006020838301015280935050505092959194509250565b60006020828403121561495257600080fd5b813567ffffffffffffffff81111561496957600080fd5b8201610100818503121561230457600080fd5b634e487b7160e01b600052601160045260246000fd5b600082198211156149a5576149a561497c565b500190565b6000823561011e198336030181126149c157600080fd5b90910192915050565b6000808335601e198436030181126149e157600080fd5b830160208101925035905067ffffffffffffffff811115614a0157600080fd5b8036038313156123e857600080fd5b81835281816020850137506000828201602090810191909152601f909101601f19169091010190565b80151581146109bc57600080fd5b8035611adb81614a39565b60006101208235614a628161478d565b6001600160a01b03168452614a7a60208401846149ca565b826020870152614a8d8387018284614a10565b92505050614a9d60408401614817565b63ffffffff166040850152614ab460608401614817565b63ffffffff166060850152614acb608084016147a2565b6001600160a01b03166080850152614ae560a084016147a2565b6001600160a01b031660a085015260c08381013590850152614b0960e08401614a47565b151560e0850152610100614b1e848201614a47565b15159401939093525090919050565b60005b83811015614b48578181015183820152602001614b30565b838111156124aa5750506000910152565b60008151808452614b71816020860160208601614b2d565b601f01601f19169290920160200192915050565b6000610100808352614b9788896149aa565b608082850152614bab610180850182614a52565b9150506020880135614bbc8161478d565b6001600160a01b039081166101208501526040898101356101408601526060808b0135610160870152895183166020808801919091528a015182870152908901518186015288015116608084015260a0830186905282810360c0840152614c238186614b59565b9150506120b960e08301846001600160a01b03169052565b6000823561011e19833603018112614c5257600080fd5b9190910192915050565b6000808335601e19843603018112614c7357600080fd5b830160208101925035905067ffffffffffffffff811115614c9357600080fd5b8060051b36038313156123e857600080fd5b8183526000602080850194508260005b85811015614ce3578135614cc88161478d565b6001600160a01b031687529582019590820190600101614cb5565b509495945050505050565b81835260006020808501808196508560051b810191508460005b87811015614d3e578284038952614d1f82886149ca565b614d2a868284614a10565b9a87019a9550505090840190600101614d08565b5091979650505050505050565b608081526000614d5b86876149aa565b610100806080850152614d72610180850183614a52565b9150614d80602089016147a2565b6001600160a01b031660a0850152614d9b6040890189614c5c565b607f19808786030160c0880152614db3858385614ca5565b9450614dc260608c018c614c5c565b93509150808786030160e088015250614ddc848383614cee565b935050506080880135818501525060a087013561012084015260c0870135610140840152614e0c60e088016147a2565b6001600160a01b0390811661016085015286811660208501526040840186905284166060840152905061201c565b600060208284031215614e4c57600080fd5b813561230481614805565b600060208284031215614e6957600080fd5b81516123048161478d565b63ffffffff8416815282602082015260606040820152600061201c6060830184614b59565b600060208284031215614eab57600080fd5b815161230481614a39565b600082614ed357634e487b7160e01b600052601260045260246000fd5b500490565b634e487b7160e01b600052603260045260246000fd5b6000608082016080835280875480835260a08501915088600052602092508260002060005b82811015614f385781546001600160a01b031684529284019260019182019101614f13565b5050506001600160a01b03968716918401919091526040830194909452509216606090920191909152919050565b6000808335601e19843603018112614f7d57600080fd5b83018035915067ffffffffffffffff821115614f9857600080fd5b6020019150600581901b36038213156123e857600080fd5b600060208284031215614fc257600080fd5b813561230481614a39565b6000808335601e19843603018112614fe457600080fd5b83018035915067ffffffffffffffff821115614fff57600080fd5b6020019150368190038213156123e857600080fd5b6000828210156150265761502661497c565b500390565b60006020828403121561503d57600080fd5b5051919050565b8183823760009101908152919050565b6020815281516020820152602082015160408201526000604083015160018060a01b0380821660608501528060608601511660808501528060808601511660a0850152505060a083015160e060c08401526150b3610100840182614b59565b905060c0840151601f198483030160e085015261201c8282614b59565b60006150de61490484614869565b90508281528383830111156150f257600080fd5b612304836020830184614b2d565b6000806040838503121561511357600080fd5b825161511e81614a39565b602084015190925067ffffffffffffffff81111561513b57600080fd5b8301601f8101851361514c57600080fd5b61515b858251602084016150d0565b9150509250929050565b63ffffffff8616815284602082015260018060a01b0384166040820152821515606082015260a06080820152600061443660a0830184614b59565b86815260c0602082015260006151b960c0830188614a52565b6001600160a01b0396909616604083015250606081019390935263ffffffff91909116608083015260a09091015292915050565b6000602082840312156151ff57600080fd5b815167ffffffffffffffff81111561521657600080fd5b8201601f8101841361522757600080fd5b611ff9848251602084016150d0565b60006020828403121561524857600080fd5b815160ff8116811461230457600080fd5b6000806040838503121561526c57600080fd5b825161527781614805565b6020939093015192949293505050565b634e487b7160e01b600052602160045260246000fd5b60008160001904831182151516156152b7576152b761497c565b500290565b6000600285106152ce576152ce615287565b5060f89390931b835260e09190911b6001600160e01b031916600183015260601b6bffffffffffffffffffffffff1916600582015260190190565b85815260008551615321816020850160208a01614b2d565b8083019050856020820152845161533f816040840160208901614b2d565b60f89490941b6001600160f81b031916604091909401908101939093525050604101949350505050565b60006004871061537b5761537b615287565b5060f89590951b8552600185019390935260218401919091526041830152606182015260810190565b6020815260006123046020830184614b59565b600060ff821660ff8416808210156153d1576153d161497c565b90039392505050565b600060ff821660ff84168160ff04811182151516156153fb576153fb61497c565b029392505050565b7f54797065644d656d566965772f696e646578202d204f76657272616e20746865815274040ecd2caee5c40a6d8d2c6ca40d2e640c2e84060f605b1b60208201526001600160d01b031960d086811b821660358401526e040eed2e8d040d8cadccee8d04060f608b1b603b840181905286821b8316604a8501527f2e20417474656d7074656420746f20696e646578206174206f666673657420306050850152600f60fb1b607085015285821b83166071850152607784015283901b166086820152601760f91b608c8201526000608d82016120b9565b60006000198214156154ee576154ee61497c565b5060010190565b60008251614c52818460208701614b2d56fea2646970667358221220f52882e9ee144ed67734ed488c4abcd96f4a73159bcfbe78a62a7944aacbecf664736f6c634300080b0033",
  "devdoc": {
    "events": {
      "Executed(bytes32,address,((address,bytes,uint32,uint32,address,address,uint256,bool,bool),address,address[],bytes[],uint256,uint256,uint256,address),address,uint256,address)": {
        "details": "`execute` may be called when providing fast liquidity *or* when processing a reconciled transfer",
        "params": {
          "args": "- The ExecuteArgs provided to the function",
          "caller": "- The account that called the function",
          "to": "- The CallParams.to provided, created as indexed parameter",
          "transactingAmount": "- The amount of transferring asset the to address receives or the external call is executed with",
          "transactingAsset": "- The asset the to gets or the external call is executed with. Should be the adopted asset on that chain.",
          "transferId": "- The unique identifier of the crosschain transfer"
        }
      },
      "ExecutorUpdated(address,address,address)": {
        "params": {
          "caller": "- The account that called the function",
          "newExecutor": "- The executor new value",
          "oldExecutor": "- The executor old value"
        }
      },
      "PromiseRouterUpdated(address,address,address)": {
        "params": {
          "caller": "- The account that called the function",
          "newRouter": "- The promiseRouter new value",
          "oldRouter": "- The promiseRouter old value"
        }
      },
      "Reconciled(bytes32,uint32,address[],address,uint256,address)": {
        "params": {
          "amount": "- The amount that was provided by the bridge",
          "asset": "- The asset that was provided by the bridge",
          "caller": "- The account that called the function",
          "origin": "- The origin domain of the transfer",
          "routers": "- The CallParams.recipient provided, created as indexed parameter",
          "transferId": "- The unique identifier of the crosschain transaction"
        }
      },
      "SponsorVaultUpdated(address,address,address)": {
        "params": {
          "caller": "- The account that called the function",
          "newSponsorVault": "- The sponsorVault new value",
          "oldSponsorVault": "- The sponsorVault old value"
        }
      },
      "TransferRelayerFeesUpdated(bytes32,uint256,address)": {
        "params": {
          "caller": "- The account that called the function",
          "relayerFee": "- The updated amount of relayer fee in native asset",
          "transferId": "- The unique identifier of the crosschain transaction"
        }
      }
    },
    "kind": "dev",
    "methods": {
      "bumpTransfer(bytes32)": {
        "params": {
          "_transferId": "- The unique identifier of the crosschain transaction"
        }
      },
      "execute(((address,bytes,uint32,uint32,address,address,uint256,bool,bool),address,address[],bytes[],uint256,uint256,uint256,address))": {
        "details": "Can be called prior to or after `handle`, depending if fast liquidity is being used."
      },
      "handle(uint32,uint32,bytes32,bytes)": {
        "details": "This function relies on nomad relayers and should not consume arbitrary amounts of gas",
        "params": {
          "_message": "The message",
          "_nonce": "The unique identifier for the message from origin to destination",
          "_origin": "The origin domain",
          "_sender": "The sender address"
        }
      },
      "xcall(((address,bytes,uint32,uint32,address,address,uint256,bool,bool),address,uint256,uint256))": {
        "details": "This contract must have approval to transfer the adopted assets. They are then swapped to the local nomad assets via the configured AMM and sent over the bridge router.",
        "params": {
          "_args": "- The XCallArgs"
        },
        "returns": {
          "_0": "The transfer id of the crosschain transfer"
        }
      }
    },
    "version": 1
  },
  "userdoc": {
    "events": {
      "Executed(bytes32,address,((address,bytes,uint32,uint32,address,address,uint256,bool,bool),address,address[],bytes[],uint256,uint256,uint256,address),address,uint256,address)": {
        "notice": "Emitted when `execute` is called on the destination chain"
      },
      "ExecutorUpdated(address,address,address)": {
        "notice": "Emitted when the executor variable is updated"
      },
      "PromiseRouterUpdated(address,address,address)": {
        "notice": "Emitted when the promiseRouter variable is updated"
      },
      "Reconciled(bytes32,uint32,address[],address,uint256,address)": {
        "notice": "Emitted when `reconciled` is called by the bridge on the destination domain"
      },
      "SponsorVaultUpdated(address,address,address)": {
        "notice": "Emitted when the sponsorVault variable is updated"
      },
      "TransferRelayerFeesUpdated(bytes32,uint256,address)": {
        "notice": "Emitted when `bumpTransfer` is called by an user on the origin domain"
      },
      "XCalled(bytes32,((address,bytes,uint32,uint32,address,address,uint256,bool,bool),address,uint256,uint256),(address,uint256,uint256,address),uint256,bytes,address)": {
        "notice": "Emitted when `xcall` is called on the origin domain"
      }
    },
    "kind": "user",
    "methods": {
      "bumpTransfer(bytes32)": {
        "notice": "Anyone can call this function on the origin domain to increase the relayer fee for a transfer."
      },
      "execute(((address,bytes,uint32,uint32,address,address,uint256,bool,bool),address,address[],bytes[],uint256,uint256,uint256,address))": {
        "notice": "Called on the destination domain to disburse correct assets to end recipient and execute any included calldata"
      },
      "handle(uint32,uint32,bytes32,bytes)": {
        "notice": "Handles an incoming message"
      },
      "xcall(((address,bytes,uint32,uint32,address,address,uint256,bool,bool),address,uint256,uint256))": {
        "notice": "This function is called by a user who is looking to bridge funds"
      }
    },
    "version": 1
  },
  "storageLayout": {
    "storage": [
      {
        "astId": 8023,
        "contract": "contracts/facets/BridgeFacet.sol:BridgeFacet",
        "label": "s",
        "offset": 0,
        "slot": "0",
        "type": "t_struct(AppStorage)16534_storage"
      }
    ],
    "types": {
      "t_address": {
        "encoding": "inplace",
        "label": "address",
        "numberOfBytes": "20"
      },
      "t_array(t_address)dyn_storage": {
        "base": "t_address",
        "encoding": "dynamic_array",
        "label": "address[]",
        "numberOfBytes": "32"
      },
      "t_array(t_contract(IERC20)3314)dyn_storage": {
        "base": "t_contract(IERC20)3314",
        "encoding": "dynamic_array",
        "label": "contract IERC20[]",
        "numberOfBytes": "32"
      },
      "t_array(t_uint256)dyn_storage": {
        "base": "t_uint256",
        "encoding": "dynamic_array",
        "label": "uint256[]",
        "numberOfBytes": "32"
      },
      "t_bool": {
        "encoding": "inplace",
        "label": "bool",
        "numberOfBytes": "1"
      },
      "t_bytes32": {
        "encoding": "inplace",
        "label": "bytes32",
        "numberOfBytes": "32"
      },
      "t_contract(IERC20)3314": {
        "encoding": "inplace",
        "label": "contract IERC20",
        "numberOfBytes": "20"
      },
      "t_contract(IExecutor)14050": {
        "encoding": "inplace",
        "label": "contract IExecutor",
        "numberOfBytes": "20"
      },
      "t_contract(ISponsorVault)14150": {
        "encoding": "inplace",
        "label": "contract ISponsorVault",
        "numberOfBytes": "20"
      },
      "t_contract(IStableSwap)14412": {
        "encoding": "inplace",
        "label": "contract IStableSwap",
        "numberOfBytes": "20"
      },
      "t_contract(ITokenRegistry)30698": {
        "encoding": "inplace",
        "label": "contract ITokenRegistry",
        "numberOfBytes": "20"
      },
      "t_contract(IWrapped)14447": {
        "encoding": "inplace",
        "label": "contract IWrapped",
        "numberOfBytes": "20"
      },
      "t_contract(LPToken)16329": {
        "encoding": "inplace",
        "label": "contract LPToken",
        "numberOfBytes": "20"
      },
      "t_contract(PromiseRouter)30054": {
        "encoding": "inplace",
        "label": "contract PromiseRouter",
        "numberOfBytes": "20"
      },
      "t_contract(RelayerFeeRouter)30565": {
        "encoding": "inplace",
        "label": "contract RelayerFeeRouter",
        "numberOfBytes": "20"
      },
      "t_contract(XAppConnectionManager)22594": {
        "encoding": "inplace",
        "label": "contract XAppConnectionManager",
        "numberOfBytes": "20"
      },
      "t_mapping(t_address,t_address)": {
        "encoding": "mapping",
        "key": "t_address",
        "label": "mapping(address => address)",
        "numberOfBytes": "32",
        "value": "t_address"
      },
      "t_mapping(t_address,t_bool)": {
        "encoding": "mapping",
        "key": "t_address",
        "label": "mapping(address => bool)",
        "numberOfBytes": "32",
        "value": "t_bool"
      },
      "t_mapping(t_address,t_mapping(t_address,t_uint256))": {
        "encoding": "mapping",
        "key": "t_address",
        "label": "mapping(address => mapping(address => uint256))",
        "numberOfBytes": "32",
        "value": "t_mapping(t_address,t_uint256)"
      },
      "t_mapping(t_address,t_struct(TokenId)15673_storage)": {
        "encoding": "mapping",
        "key": "t_address",
        "label": "mapping(address => struct ConnextMessage.TokenId)",
        "numberOfBytes": "32",
        "value": "t_struct(TokenId)15673_storage"
      },
      "t_mapping(t_address,t_uint256)": {
        "encoding": "mapping",
        "key": "t_address",
        "label": "mapping(address => uint256)",
        "numberOfBytes": "32",
        "value": "t_uint256"
      },
      "t_mapping(t_address,t_uint8)": {
        "encoding": "mapping",
        "key": "t_address",
        "label": "mapping(address => uint8)",
        "numberOfBytes": "32",
        "value": "t_uint8"
      },
      "t_mapping(t_bytes32,t_address)": {
        "encoding": "mapping",
        "key": "t_bytes32",
        "label": "mapping(bytes32 => address)",
        "numberOfBytes": "32",
        "value": "t_address"
      },
      "t_mapping(t_bytes32,t_array(t_address)dyn_storage)": {
        "encoding": "mapping",
        "key": "t_bytes32",
        "label": "mapping(bytes32 => address[])",
        "numberOfBytes": "32",
        "value": "t_array(t_address)dyn_storage"
      },
      "t_mapping(t_bytes32,t_bool)": {
        "encoding": "mapping",
        "key": "t_bytes32",
        "label": "mapping(bytes32 => bool)",
        "numberOfBytes": "32",
        "value": "t_bool"
      },
      "t_mapping(t_bytes32,t_contract(IStableSwap)14412)": {
        "encoding": "mapping",
        "key": "t_bytes32",
        "label": "mapping(bytes32 => contract IStableSwap)",
        "numberOfBytes": "32",
        "value": "t_contract(IStableSwap)14412"
      },
      "t_mapping(t_bytes32,t_mapping(t_address,t_uint8))": {
        "encoding": "mapping",
        "key": "t_bytes32",
        "label": "mapping(bytes32 => mapping(address => uint8))",
        "numberOfBytes": "32",
        "value": "t_mapping(t_address,t_uint8)"
      },
      "t_mapping(t_bytes32,t_struct(Swap)17815_storage)": {
        "encoding": "mapping",
        "key": "t_bytes32",
        "label": "mapping(bytes32 => struct SwapUtils.Swap)",
        "numberOfBytes": "32",
        "value": "t_struct(Swap)17815_storage"
      },
      "t_mapping(t_bytes32,t_uint256)": {
        "encoding": "mapping",
        "key": "t_bytes32",
        "label": "mapping(bytes32 => uint256)",
        "numberOfBytes": "32",
        "value": "t_uint256"
      },
      "t_mapping(t_uint32,t_bytes32)": {
        "encoding": "mapping",
        "key": "t_uint32",
        "label": "mapping(uint32 => bytes32)",
        "numberOfBytes": "32",
        "value": "t_bytes32"
      },
      "t_struct(AppStorage)16534_storage": {
        "encoding": "inplace",
        "label": "struct AppStorage",
        "members": [
          {
            "astId": 16423,
            "contract": "contracts/facets/BridgeFacet.sol:BridgeFacet",
            "label": "initialized",
            "offset": 0,
            "slot": "0",
            "type": "t_bool"
          },
          {
            "astId": 16425,
            "contract": "contracts/facets/BridgeFacet.sol:BridgeFacet",
            "label": "LIQUIDITY_FEE_NUMERATOR",
            "offset": 0,
            "slot": "1",
            "type": "t_uint256"
          },
          {
            "astId": 16427,
            "contract": "contracts/facets/BridgeFacet.sol:BridgeFacet",
            "label": "LIQUIDITY_FEE_DENOMINATOR",
            "offset": 0,
            "slot": "2",
            "type": "t_uint256"
          },
          {
            "astId": 16430,
            "contract": "contracts/facets/BridgeFacet.sol:BridgeFacet",
            "label": "relayerFeeRouter",
            "offset": 0,
            "slot": "3",
            "type": "t_contract(RelayerFeeRouter)30565"
          },
          {
            "astId": 16433,
            "contract": "contracts/facets/BridgeFacet.sol:BridgeFacet",
            "label": "promiseRouter",
            "offset": 0,
            "slot": "4",
            "type": "t_contract(PromiseRouter)30054"
          },
          {
            "astId": 16436,
            "contract": "contracts/facets/BridgeFacet.sol:BridgeFacet",
            "label": "wrapper",
            "offset": 0,
            "slot": "5",
            "type": "t_contract(IWrapped)14447"
          },
          {
            "astId": 16438,
            "contract": "contracts/facets/BridgeFacet.sol:BridgeFacet",
            "label": "nonce",
            "offset": 0,
            "slot": "6",
            "type": "t_uint256"
          },
          {
            "astId": 16441,
            "contract": "contracts/facets/BridgeFacet.sol:BridgeFacet",
            "label": "executor",
            "offset": 0,
            "slot": "7",
            "type": "t_contract(IExecutor)14050"
          },
          {
            "astId": 16443,
            "contract": "contracts/facets/BridgeFacet.sol:BridgeFacet",
            "label": "domain",
            "offset": 0,
            "slot": "8",
            "type": "t_uint256"
          },
          {
            "astId": 16446,
            "contract": "contracts/facets/BridgeFacet.sol:BridgeFacet",
            "label": "tokenRegistry",
            "offset": 0,
            "slot": "9",
            "type": "t_contract(ITokenRegistry)30698"
          },
          {
            "astId": 16451,
            "contract": "contracts/facets/BridgeFacet.sol:BridgeFacet",
            "label": "adoptedToLocalPools",
            "offset": 0,
            "slot": "10",
            "type": "t_mapping(t_bytes32,t_contract(IStableSwap)14412)"
          },
          {
            "astId": 16455,
            "contract": "contracts/facets/BridgeFacet.sol:BridgeFacet",
            "label": "approvedAssets",
            "offset": 0,
            "slot": "11",
            "type": "t_mapping(t_bytes32,t_bool)"
          },
          {
            "astId": 16460,
            "contract": "contracts/facets/BridgeFacet.sol:BridgeFacet",
            "label": "adoptedToCanonical",
            "offset": 0,
            "slot": "12",
            "type": "t_mapping(t_address,t_struct(TokenId)15673_storage)"
          },
          {
            "astId": 16464,
            "contract": "contracts/facets/BridgeFacet.sol:BridgeFacet",
            "label": "canonicalToAdopted",
            "offset": 0,
            "slot": "13",
            "type": "t_mapping(t_bytes32,t_address)"
          },
          {
            "astId": 16468,
            "contract": "contracts/facets/BridgeFacet.sol:BridgeFacet",
            "label": "reconciledTransfers",
            "offset": 0,
            "slot": "14",
            "type": "t_mapping(t_bytes32,t_bool)"
          },
          {
            "astId": 16473,
            "contract": "contracts/facets/BridgeFacet.sol:BridgeFacet",
            "label": "routedTransfers",
            "offset": 0,
            "slot": "15",
            "type": "t_mapping(t_bytes32,t_array(t_address)dyn_storage)"
          },
          {
            "astId": 16479,
            "contract": "contracts/facets/BridgeFacet.sol:BridgeFacet",
            "label": "routerBalances",
            "offset": 0,
            "slot": "16",
            "type": "t_mapping(t_address,t_mapping(t_address,t_uint256))"
          },
          {
            "astId": 16483,
            "contract": "contracts/facets/BridgeFacet.sol:BridgeFacet",
            "label": "approvedRelayers",
            "offset": 0,
            "slot": "17",
            "type": "t_mapping(t_address,t_bool)"
          },
          {
            "astId": 16487,
            "contract": "contracts/facets/BridgeFacet.sol:BridgeFacet",
            "label": "relayerFees",
            "offset": 0,
            "slot": "18",
            "type": "t_mapping(t_bytes32,t_uint256)"
          },
          {
            "astId": 16491,
            "contract": "contracts/facets/BridgeFacet.sol:BridgeFacet",
            "label": "transferRelayer",
            "offset": 0,
            "slot": "19",
            "type": "t_mapping(t_bytes32,t_address)"
          },
          {
            "astId": 16493,
            "contract": "contracts/facets/BridgeFacet.sol:BridgeFacet",
            "label": "maxRoutersPerTransfer",
            "offset": 0,
            "slot": "20",
            "type": "t_uint256"
          },
          {
            "astId": 16496,
            "contract": "contracts/facets/BridgeFacet.sol:BridgeFacet",
            "label": "sponsorVault",
            "offset": 0,
            "slot": "21",
            "type": "t_contract(ISponsorVault)14150"
          },
          {
            "astId": 16500,
            "contract": "contracts/facets/BridgeFacet.sol:BridgeFacet",
            "label": "remotes",
            "offset": 0,
            "slot": "22",
            "type": "t_mapping(t_uint32,t_bytes32)"
          },
          {
            "astId": 16503,
            "contract": "contracts/facets/BridgeFacet.sol:BridgeFacet",
            "label": "xAppConnectionManager",
            "offset": 0,
            "slot": "23",
            "type": "t_contract(XAppConnectionManager)22594"
          },
          {
            "astId": 16505,
            "contract": "contracts/facets/BridgeFacet.sol:BridgeFacet",
            "label": "_proposed",
            "offset": 0,
            "slot": "24",
            "type": "t_address"
          },
          {
            "astId": 16507,
            "contract": "contracts/facets/BridgeFacet.sol:BridgeFacet",
            "label": "_proposedOwnershipTimestamp",
            "offset": 0,
            "slot": "25",
            "type": "t_uint256"
          },
          {
            "astId": 16509,
            "contract": "contracts/facets/BridgeFacet.sol:BridgeFacet",
            "label": "_routerOwnershipRenounced",
            "offset": 0,
            "slot": "26",
            "type": "t_bool"
          },
          {
            "astId": 16511,
            "contract": "contracts/facets/BridgeFacet.sol:BridgeFacet",
            "label": "_routerOwnershipTimestamp",
            "offset": 0,
            "slot": "27",
            "type": "t_uint256"
          },
          {
            "astId": 16513,
            "contract": "contracts/facets/BridgeFacet.sol:BridgeFacet",
            "label": "_assetOwnershipRenounced",
            "offset": 0,
            "slot": "28",
            "type": "t_bool"
          },
          {
            "astId": 16515,
            "contract": "contracts/facets/BridgeFacet.sol:BridgeFacet",
            "label": "_assetOwnershipTimestamp",
            "offset": 0,
            "slot": "29",
            "type": "t_uint256"
          },
          {
            "astId": 16518,
            "contract": "contracts/facets/BridgeFacet.sol:BridgeFacet",
            "label": "routerPermissionInfo",
            "offset": 0,
            "slot": "30",
            "type": "t_struct(RouterPermissionsManagerInfo)16421_storage"
          },
          {
            "astId": 16520,
            "contract": "contracts/facets/BridgeFacet.sol:BridgeFacet",
            "label": "_status",
            "offset": 0,
            "slot": "35",
            "type": "t_uint256"
          },
          {
            "astId": 16526,
            "contract": "contracts/facets/BridgeFacet.sol:BridgeFacet",
            "label": "swapStorages",
            "offset": 0,
            "slot": "36",
            "type": "t_mapping(t_bytes32,t_struct(Swap)17815_storage)"
          },
          {
            "astId": 16533,
            "contract": "contracts/facets/BridgeFacet.sol:BridgeFacet",
            "label": "tokenIndexes",
            "offset": 0,
            "slot": "37",
            "type": "t_mapping(t_bytes32,t_mapping(t_address,t_uint8))"
          }
        ],
        "numberOfBytes": "1216"
      },
      "t_struct(RouterPermissionsManagerInfo)16421_storage": {
        "encoding": "inplace",
        "label": "struct RouterPermissionsManagerInfo",
        "members": [
          {
            "astId": 16404,
            "contract": "contracts/facets/BridgeFacet.sol:BridgeFacet",
            "label": "approvedRouters",
            "offset": 0,
            "slot": "0",
            "type": "t_mapping(t_address,t_bool)"
          },
          {
            "astId": 16408,
            "contract": "contracts/facets/BridgeFacet.sol:BridgeFacet",
            "label": "routerRecipients",
            "offset": 0,
            "slot": "1",
            "type": "t_mapping(t_address,t_address)"
          },
          {
            "astId": 16412,
            "contract": "contracts/facets/BridgeFacet.sol:BridgeFacet",
            "label": "routerOwners",
            "offset": 0,
            "slot": "2",
            "type": "t_mapping(t_address,t_address)"
          },
          {
            "astId": 16416,
            "contract": "contracts/facets/BridgeFacet.sol:BridgeFacet",
            "label": "proposedRouterOwners",
            "offset": 0,
            "slot": "3",
            "type": "t_mapping(t_address,t_address)"
          },
          {
            "astId": 16420,
            "contract": "contracts/facets/BridgeFacet.sol:BridgeFacet",
            "label": "proposedRouterTimestamp",
            "offset": 0,
            "slot": "4",
            "type": "t_mapping(t_address,t_uint256)"
          }
        ],
        "numberOfBytes": "160"
      },
      "t_struct(Swap)17815_storage": {
        "encoding": "inplace",
        "label": "struct SwapUtils.Swap",
        "members": [
          {
            "astId": 17791,
            "contract": "contracts/facets/BridgeFacet.sol:BridgeFacet",
            "label": "initialA",
            "offset": 0,
            "slot": "0",
            "type": "t_uint256"
          },
          {
            "astId": 17793,
            "contract": "contracts/facets/BridgeFacet.sol:BridgeFacet",
            "label": "futureA",
            "offset": 0,
            "slot": "1",
            "type": "t_uint256"
          },
          {
            "astId": 17795,
            "contract": "contracts/facets/BridgeFacet.sol:BridgeFacet",
            "label": "initialATime",
            "offset": 0,
            "slot": "2",
            "type": "t_uint256"
          },
          {
            "astId": 17797,
            "contract": "contracts/facets/BridgeFacet.sol:BridgeFacet",
            "label": "futureATime",
            "offset": 0,
            "slot": "3",
            "type": "t_uint256"
          },
          {
            "astId": 17799,
            "contract": "contracts/facets/BridgeFacet.sol:BridgeFacet",
            "label": "swapFee",
            "offset": 0,
            "slot": "4",
            "type": "t_uint256"
          },
          {
            "astId": 17801,
            "contract": "contracts/facets/BridgeFacet.sol:BridgeFacet",
            "label": "adminFee",
            "offset": 0,
            "slot": "5",
            "type": "t_uint256"
          },
          {
            "astId": 17804,
            "contract": "contracts/facets/BridgeFacet.sol:BridgeFacet",
            "label": "lpToken",
            "offset": 0,
            "slot": "6",
            "type": "t_contract(LPToken)16329"
          },
          {
            "astId": 17808,
            "contract": "contracts/facets/BridgeFacet.sol:BridgeFacet",
            "label": "pooledTokens",
            "offset": 0,
            "slot": "7",
            "type": "t_array(t_contract(IERC20)3314)dyn_storage"
          },
          {
            "astId": 17811,
            "contract": "contracts/facets/BridgeFacet.sol:BridgeFacet",
            "label": "tokenPrecisionMultipliers",
            "offset": 0,
            "slot": "8",
            "type": "t_array(t_uint256)dyn_storage"
          },
          {
            "astId": 17814,
            "contract": "contracts/facets/BridgeFacet.sol:BridgeFacet",
            "label": "balances",
            "offset": 0,
            "slot": "9",
            "type": "t_array(t_uint256)dyn_storage"
          }
        ],
        "numberOfBytes": "320"
      },
      "t_struct(TokenId)15673_storage": {
        "encoding": "inplace",
        "label": "struct ConnextMessage.TokenId",
        "members": [
          {
            "astId": 15670,
            "contract": "contracts/facets/BridgeFacet.sol:BridgeFacet",
            "label": "domain",
            "offset": 0,
            "slot": "0",
            "type": "t_uint32"
          },
          {
            "astId": 15672,
            "contract": "contracts/facets/BridgeFacet.sol:BridgeFacet",
            "label": "id",
            "offset": 0,
            "slot": "1",
            "type": "t_bytes32"
          }
        ],
        "numberOfBytes": "64"
      },
      "t_uint256": {
        "encoding": "inplace",
        "label": "uint256",
        "numberOfBytes": "32"
      },
      "t_uint32": {
        "encoding": "inplace",
        "label": "uint32",
        "numberOfBytes": "4"
      },
      "t_uint8": {
        "encoding": "inplace",
        "label": "uint8",
        "numberOfBytes": "1"
      }
    }
  }
}