{
  "address": "0x455AF009731d078dB47917E57AA1024f624368fF",
  "abi": [
    {
      "anonymous": false,
      "inputs": [
        {
          "indexed": false,
          "internalType": "bytes32",
          "name": "canonicalId",
          "type": "bytes32"
        },
        {
          "indexed": false,
          "internalType": "uint32",
          "name": "domain",
          "type": "uint32"
        },
        {
          "indexed": false,
          "internalType": "address",
          "name": "adoptedAsset",
          "type": "address"
        },
        {
          "indexed": false,
          "internalType": "address",
          "name": "supportedAsset",
          "type": "address"
        },
        {
          "indexed": false,
          "internalType": "address",
          "name": "caller",
          "type": "address"
        }
      ],
      "name": "AssetAdded",
      "type": "event"
    },
    {
      "anonymous": false,
      "inputs": [
        {
          "indexed": false,
          "internalType": "bool",
          "name": "renounced",
          "type": "bool"
        }
      ],
      "name": "AssetOwnershipRenounced",
      "type": "event"
    },
    {
      "anonymous": false,
      "inputs": [
        {
          "indexed": false,
          "internalType": "uint256",
          "name": "timestamp",
          "type": "uint256"
        }
      ],
      "name": "AssetOwnershipRenunciationProposed",
      "type": "event"
    },
    {
      "anonymous": false,
      "inputs": [
        {
          "indexed": false,
          "internalType": "bytes32",
          "name": "canonicalId",
          "type": "bytes32"
        },
        {
          "indexed": false,
          "internalType": "address",
          "name": "caller",
          "type": "address"
        }
      ],
      "name": "AssetRemoved",
      "type": "event"
    },
    {
      "anonymous": false,
      "inputs": [
        {
          "indexed": true,
          "internalType": "bytes32",
          "name": "transferId",
          "type": "bytes32"
        },
        {
          "indexed": true,
          "internalType": "address",
          "name": "to",
          "type": "address"
        },
        {
          "indexed": true,
          "internalType": "address",
          "name": "router",
          "type": "address"
        },
        {
          "components": [
            {
              "internalType": "address",
              "name": "to",
              "type": "address"
            },
            {
              "internalType": "bytes",
              "name": "callData",
              "type": "bytes"
            },
            {
              "internalType": "uint32",
              "name": "originDomain",
              "type": "uint32"
            },
            {
              "internalType": "uint32",
              "name": "destinationDomain",
              "type": "uint32"
            }
          ],
          "indexed": false,
          "internalType": "struct IConnext.CallParams",
          "name": "params",
          "type": "tuple"
        },
        {
          "indexed": false,
          "internalType": "address",
          "name": "localAsset",
          "type": "address"
        },
        {
          "indexed": false,
          "internalType": "address",
          "name": "transactingAsset",
          "type": "address"
        },
        {
          "indexed": false,
          "internalType": "uint256",
          "name": "localAmount",
          "type": "uint256"
        },
        {
          "indexed": false,
          "internalType": "uint256",
          "name": "transactingAmount",
          "type": "uint256"
        },
        {
          "indexed": false,
          "internalType": "address",
          "name": "caller",
          "type": "address"
        }
      ],
      "name": "Executed",
      "type": "event"
    },
    {
      "anonymous": false,
      "inputs": [
        {
          "indexed": false,
          "internalType": "address",
          "name": "router",
          "type": "address"
        },
        {
          "indexed": false,
          "internalType": "address",
          "name": "local",
          "type": "address"
        },
        {
          "indexed": false,
          "internalType": "bytes32",
          "name": "canonicalId",
          "type": "bytes32"
        },
        {
          "indexed": false,
          "internalType": "uint256",
          "name": "amount",
          "type": "uint256"
        },
        {
          "indexed": false,
          "internalType": "address",
          "name": "caller",
          "type": "address"
        }
      ],
      "name": "LiquidityAdded",
      "type": "event"
    },
    {
      "anonymous": false,
      "inputs": [
        {
          "indexed": true,
          "internalType": "address",
          "name": "router",
          "type": "address"
        },
        {
          "indexed": false,
          "internalType": "address",
          "name": "to",
          "type": "address"
        },
        {
          "indexed": false,
          "internalType": "address",
          "name": "local",
          "type": "address"
        },
        {
          "indexed": false,
          "internalType": "uint256",
          "name": "amount",
          "type": "uint256"
        },
        {
          "indexed": false,
          "internalType": "address",
          "name": "caller",
          "type": "address"
        }
      ],
      "name": "LiquidityRemoved",
      "type": "event"
    },
    {
      "anonymous": false,
      "inputs": [
        {
          "indexed": true,
          "internalType": "address",
          "name": "proposedOwner",
          "type": "address"
        }
      ],
      "name": "OwnershipProposed",
      "type": "event"
    },
    {
      "anonymous": false,
      "inputs": [
        {
          "indexed": true,
          "internalType": "address",
          "name": "previousOwner",
          "type": "address"
        },
        {
          "indexed": true,
          "internalType": "address",
          "name": "newOwner",
          "type": "address"
        }
      ],
      "name": "OwnershipTransferred",
      "type": "event"
    },
    {
      "anonymous": false,
      "inputs": [
        {
          "indexed": true,
          "internalType": "bytes32",
          "name": "transferId",
          "type": "bytes32"
        },
        {
          "indexed": true,
          "internalType": "address",
          "name": "to",
          "type": "address"
        },
        {
          "indexed": true,
          "internalType": "address",
          "name": "router",
          "type": "address"
        },
        {
          "indexed": false,
          "internalType": "address",
          "name": "localAsset",
          "type": "address"
        },
        {
          "indexed": false,
          "internalType": "uint256",
          "name": "localAmount",
          "type": "uint256"
        },
        {
          "components": [
            {
              "internalType": "address",
              "name": "router",
              "type": "address"
            },
            {
              "internalType": "uint256",
              "name": "amount",
              "type": "uint256"
            }
          ],
          "indexed": false,
          "internalType": "struct IConnext.ExecutedTransfer",
          "name": "executed",
          "type": "tuple"
        },
        {
          "indexed": false,
          "internalType": "address",
          "name": "caller",
          "type": "address"
        }
      ],
      "name": "Reconciled",
      "type": "event"
    },
    {
      "anonymous": false,
      "inputs": [
        {
          "indexed": false,
          "internalType": "address",
          "name": "router",
          "type": "address"
        },
        {
          "indexed": false,
          "internalType": "address",
          "name": "caller",
          "type": "address"
        }
      ],
      "name": "RouterAdded",
      "type": "event"
    },
    {
      "anonymous": false,
      "inputs": [
        {
          "indexed": false,
          "internalType": "bool",
          "name": "renounced",
          "type": "bool"
        }
      ],
      "name": "RouterOwnershipRenounced",
      "type": "event"
    },
    {
      "anonymous": false,
      "inputs": [
        {
          "indexed": false,
          "internalType": "uint256",
          "name": "timestamp",
          "type": "uint256"
        }
      ],
      "name": "RouterOwnershipRenunciationProposed",
      "type": "event"
    },
    {
      "anonymous": false,
      "inputs": [
        {
          "indexed": false,
          "internalType": "address",
          "name": "router",
          "type": "address"
        },
        {
          "indexed": false,
          "internalType": "address",
          "name": "caller",
          "type": "address"
        }
      ],
      "name": "RouterRemoved",
      "type": "event"
    },
    {
      "anonymous": false,
      "inputs": [
        {
          "indexed": false,
          "internalType": "bytes32",
          "name": "canonicalId",
          "type": "bytes32"
        },
        {
          "indexed": false,
          "internalType": "uint32",
          "name": "domain",
          "type": "uint32"
        },
        {
          "indexed": false,
          "internalType": "address",
          "name": "swapPool",
          "type": "address"
        },
        {
          "indexed": false,
          "internalType": "address",
          "name": "caller",
          "type": "address"
        }
      ],
      "name": "StableSwapAdded",
      "type": "event"
    },
    {
      "anonymous": false,
      "inputs": [
        {
          "indexed": true,
          "internalType": "bytes32",
          "name": "transferId",
          "type": "bytes32"
        },
        {
          "indexed": true,
          "internalType": "address",
          "name": "to",
          "type": "address"
        },
        {
          "components": [
            {
              "internalType": "address",
              "name": "to",
              "type": "address"
            },
            {
              "internalType": "bytes",
              "name": "callData",
              "type": "bytes"
            },
            {
              "internalType": "uint32",
              "name": "originDomain",
              "type": "uint32"
            },
            {
              "internalType": "uint32",
              "name": "destinationDomain",
              "type": "uint32"
            }
          ],
          "indexed": false,
          "internalType": "struct IConnext.CallParams",
          "name": "params",
          "type": "tuple"
        },
        {
          "indexed": false,
          "internalType": "address",
          "name": "transactingAsset",
          "type": "address"
        },
        {
          "indexed": false,
          "internalType": "address",
          "name": "localAsset",
          "type": "address"
        },
        {
          "indexed": false,
          "internalType": "uint256",
          "name": "transactingAmount",
          "type": "uint256"
        },
        {
          "indexed": false,
          "internalType": "uint256",
          "name": "localAmount",
          "type": "uint256"
        },
        {
          "indexed": false,
          "internalType": "uint256",
          "name": "nonce",
          "type": "uint256"
        },
        {
          "indexed": false,
          "internalType": "address",
          "name": "caller",
          "type": "address"
        }
      ],
      "name": "XCalled",
      "type": "event"
    },
    {
      "inputs": [],
      "name": "acceptProposedOwner",
      "outputs": [],
      "stateMutability": "nonpayable",
      "type": "function"
    },
    {
      "inputs": [
        {
          "internalType": "uint256",
          "name": "amount",
          "type": "uint256"
        },
        {
          "internalType": "address",
          "name": "local",
          "type": "address"
        }
      ],
      "name": "addLiquidity",
      "outputs": [],
      "stateMutability": "payable",
      "type": "function"
    },
    {
      "inputs": [
        {
          "internalType": "uint256",
          "name": "amount",
          "type": "uint256"
        },
        {
          "internalType": "address",
          "name": "local",
          "type": "address"
        },
        {
          "internalType": "address",
          "name": "router",
          "type": "address"
        }
      ],
      "name": "addLiquidityFor",
      "outputs": [],
      "stateMutability": "payable",
      "type": "function"
    },
    {
      "inputs": [
        {
          "internalType": "address",
          "name": "router",
          "type": "address"
        }
      ],
      "name": "addRelayerFees",
      "outputs": [],
      "stateMutability": "payable",
      "type": "function"
    },
    {
      "inputs": [
        {
          "internalType": "address",
          "name": "router",
          "type": "address"
        }
      ],
      "name": "addRouter",
      "outputs": [],
      "stateMutability": "nonpayable",
      "type": "function"
    },
    {
      "inputs": [
        {
          "components": [
            {
              "internalType": "uint32",
              "name": "domain",
              "type": "uint32"
            },
            {
              "internalType": "bytes32",
              "name": "id",
              "type": "bytes32"
            }
          ],
          "internalType": "struct BridgeMessage.TokenId",
          "name": "canonical",
          "type": "tuple"
        },
        {
          "internalType": "address",
          "name": "stableSwapPool",
          "type": "address"
        }
      ],
      "name": "addStableSwapPool",
      "outputs": [],
      "stateMutability": "nonpayable",
      "type": "function"
    },
    {
      "inputs": [
        {
          "internalType": "address",
          "name": "",
          "type": "address"
        }
      ],
      "name": "adoptedToCanonical",
      "outputs": [
        {
          "internalType": "uint32",
          "name": "domain",
          "type": "uint32"
        },
        {
          "internalType": "bytes32",
          "name": "id",
          "type": "bytes32"
        }
      ],
      "stateMutability": "view",
      "type": "function"
    },
    {
      "inputs": [
        {
          "internalType": "bytes32",
          "name": "",
          "type": "bytes32"
        }
      ],
      "name": "adoptedToLocalPools",
      "outputs": [
        {
          "internalType": "contract IStableSwap",
          "name": "",
          "type": "address"
        }
      ],
      "stateMutability": "view",
      "type": "function"
    },
    {
      "inputs": [
        {
          "internalType": "bytes32",
          "name": "",
          "type": "bytes32"
        }
      ],
      "name": "approvedAssets",
      "outputs": [
        {
          "internalType": "bool",
          "name": "",
          "type": "bool"
        }
      ],
      "stateMutability": "view",
      "type": "function"
    },
    {
      "inputs": [
        {
          "internalType": "address",
          "name": "",
          "type": "address"
        }
      ],
      "name": "approvedRouters",
      "outputs": [
        {
          "internalType": "bool",
          "name": "",
          "type": "bool"
        }
      ],
      "stateMutability": "view",
      "type": "function"
    },
    {
      "inputs": [],
      "name": "assetOwnershipTimestamp",
      "outputs": [
        {
          "internalType": "uint256",
          "name": "",
          "type": "uint256"
        }
      ],
      "stateMutability": "view",
      "type": "function"
    },
    {
      "inputs": [],
      "name": "bridgeRouter",
      "outputs": [
        {
          "internalType": "contract BridgeRouter",
          "name": "",
          "type": "address"
        }
      ],
      "stateMutability": "view",
      "type": "function"
    },
    {
      "inputs": [
        {
          "internalType": "bytes32",
          "name": "",
          "type": "bytes32"
        }
      ],
      "name": "canonicalToAdopted",
      "outputs": [
        {
          "internalType": "address",
          "name": "",
          "type": "address"
        }
      ],
      "stateMutability": "view",
      "type": "function"
    },
    {
      "inputs": [],
      "name": "delay",
      "outputs": [
        {
          "internalType": "uint256",
          "name": "",
          "type": "uint256"
        }
      ],
      "stateMutability": "view",
      "type": "function"
    },
    {
      "inputs": [],
      "name": "domain",
      "outputs": [
        {
          "internalType": "uint256",
          "name": "",
          "type": "uint256"
        }
      ],
      "stateMutability": "view",
      "type": "function"
    },
    {
      "inputs": [
        {
          "components": [
            {
              "components": [
                {
                  "internalType": "address",
                  "name": "to",
                  "type": "address"
                },
                {
                  "internalType": "bytes",
                  "name": "callData",
                  "type": "bytes"
                },
                {
                  "internalType": "uint32",
                  "name": "originDomain",
                  "type": "uint32"
                },
                {
                  "internalType": "uint32",
                  "name": "destinationDomain",
                  "type": "uint32"
                }
              ],
              "internalType": "struct IConnext.CallParams",
              "name": "params",
              "type": "tuple"
            },
            {
              "internalType": "address",
              "name": "local",
              "type": "address"
            },
            {
              "internalType": "address",
              "name": "router",
              "type": "address"
            },
            {
              "internalType": "uint32",
              "name": "feePercentage",
              "type": "uint32"
            },
            {
              "internalType": "uint256",
              "name": "amount",
              "type": "uint256"
            },
            {
              "internalType": "uint256",
              "name": "nonce",
              "type": "uint256"
            },
            {
              "internalType": "bytes",
              "name": "relayerSignature",
              "type": "bytes"
            },
            {
              "internalType": "address",
              "name": "originSender",
              "type": "address"
            }
          ],
          "internalType": "struct IConnext.ExecuteArgs",
          "name": "_args",
          "type": "tuple"
        }
      ],
      "name": "execute",
      "outputs": [
        {
          "internalType": "bytes32",
          "name": "",
          "type": "bytes32"
        }
      ],
      "stateMutability": "nonpayable",
      "type": "function"
    },
    {
      "inputs": [],
      "name": "executor",
      "outputs": [
        {
          "internalType": "contract IExecutor",
          "name": "",
          "type": "address"
        }
      ],
      "stateMutability": "view",
      "type": "function"
    },
    {
      "inputs": [
        {
          "internalType": "uint256",
          "name": "_domain",
          "type": "uint256"
        },
        {
          "internalType": "address payable",
          "name": "_bridgeRouter",
          "type": "address"
        },
        {
          "internalType": "address",
          "name": "_tokenRegistry",
          "type": "address"
        },
        {
          "internalType": "address",
          "name": "_wrappedNative",
          "type": "address"
        }
      ],
      "name": "initialize",
      "outputs": [],
      "stateMutability": "nonpayable",
      "type": "function"
    },
    {
      "inputs": [],
      "name": "isAssetOwnershipRenounced",
      "outputs": [
        {
          "internalType": "bool",
          "name": "",
          "type": "bool"
        }
      ],
      "stateMutability": "view",
      "type": "function"
    },
    {
      "inputs": [],
      "name": "isRouterOwnershipRenounced",
      "outputs": [
        {
          "internalType": "bool",
          "name": "",
          "type": "bool"
        }
      ],
      "stateMutability": "view",
      "type": "function"
    },
    {
      "inputs": [],
      "name": "nonce",
      "outputs": [
        {
          "internalType": "uint256",
          "name": "",
          "type": "uint256"
        }
      ],
      "stateMutability": "view",
      "type": "function"
    },
    {
      "inputs": [],
      "name": "owner",
      "outputs": [
        {
          "internalType": "address",
          "name": "",
          "type": "address"
        }
      ],
      "stateMutability": "view",
      "type": "function"
    },
    {
      "inputs": [],
      "name": "proposeAssetOwnershipRenunciation",
      "outputs": [],
      "stateMutability": "nonpayable",
      "type": "function"
    },
    {
      "inputs": [
        {
          "internalType": "address",
          "name": "newlyProposed",
          "type": "address"
        }
      ],
      "name": "proposeNewOwner",
      "outputs": [],
      "stateMutability": "nonpayable",
      "type": "function"
    },
    {
      "inputs": [],
      "name": "proposeRouterOwnershipRenunciation",
      "outputs": [],
      "stateMutability": "nonpayable",
      "type": "function"
    },
    {
      "inputs": [],
      "name": "proposed",
      "outputs": [
        {
          "internalType": "address",
          "name": "",
          "type": "address"
        }
      ],
      "stateMutability": "view",
      "type": "function"
    },
    {
      "inputs": [],
      "name": "proposedTimestamp",
      "outputs": [
        {
          "internalType": "uint256",
          "name": "",
          "type": "uint256"
        }
      ],
      "stateMutability": "view",
      "type": "function"
    },
    {
      "inputs": [
        {
          "internalType": "bytes32",
          "name": "_transferId",
          "type": "bytes32"
        },
        {
          "internalType": "address",
          "name": "_local",
          "type": "address"
        },
        {
          "internalType": "address",
          "name": "_recipient",
          "type": "address"
        },
        {
          "internalType": "uint256",
          "name": "_amount",
          "type": "uint256"
        }
      ],
      "name": "reconcile",
      "outputs": [],
      "stateMutability": "payable",
      "type": "function"
    },
    {
      "inputs": [
        {
          "internalType": "bytes32",
          "name": "",
          "type": "bytes32"
        }
      ],
      "name": "reconciledTransfers",
      "outputs": [
        {
          "internalType": "bytes32",
          "name": "",
          "type": "bytes32"
        }
      ],
      "stateMutability": "view",
      "type": "function"
    },
    {
      "inputs": [
        {
          "internalType": "bytes32",
          "name": "canonicalId",
          "type": "bytes32"
        },
        {
          "internalType": "address",
          "name": "adoptedAssetId",
          "type": "address"
        }
      ],
      "name": "removeAssetId",
      "outputs": [],
      "stateMutability": "nonpayable",
      "type": "function"
    },
    {
      "inputs": [
        {
          "internalType": "uint256",
          "name": "amount",
          "type": "uint256"
        },
        {
          "internalType": "address",
          "name": "local",
          "type": "address"
        },
        {
          "internalType": "address payable",
          "name": "to",
          "type": "address"
        }
      ],
      "name": "removeLiquidity",
      "outputs": [],
      "stateMutability": "nonpayable",
      "type": "function"
    },
    {
      "inputs": [
        {
          "internalType": "uint256",
          "name": "amount",
          "type": "uint256"
        },
        {
          "internalType": "address payable",
          "name": "to",
          "type": "address"
        }
      ],
      "name": "removeRelayerFees",
      "outputs": [],
      "stateMutability": "nonpayable",
      "type": "function"
    },
    {
      "inputs": [
        {
          "internalType": "address",
          "name": "router",
          "type": "address"
        }
      ],
      "name": "removeRouter",
      "outputs": [],
      "stateMutability": "nonpayable",
      "type": "function"
    },
    {
      "inputs": [],
      "name": "renounceAssetOwnership",
      "outputs": [],
      "stateMutability": "nonpayable",
      "type": "function"
    },
    {
      "inputs": [],
      "name": "renounceOwnership",
      "outputs": [],
      "stateMutability": "nonpayable",
      "type": "function"
    },
    {
      "inputs": [],
      "name": "renounceRouterOwnership",
      "outputs": [],
      "stateMutability": "nonpayable",
      "type": "function"
    },
    {
      "inputs": [],
      "name": "renounced",
      "outputs": [
        {
          "internalType": "bool",
          "name": "",
          "type": "bool"
        }
      ],
      "stateMutability": "view",
      "type": "function"
    },
    {
      "inputs": [
        {
          "internalType": "bytes32",
          "name": "",
          "type": "bytes32"
        }
      ],
      "name": "routedTransfers",
      "outputs": [
        {
          "internalType": "address",
          "name": "router",
          "type": "address"
        },
        {
          "internalType": "uint256",
          "name": "amount",
          "type": "uint256"
        }
      ],
      "stateMutability": "view",
      "type": "function"
    },
    {
      "inputs": [
        {
          "internalType": "bytes32",
          "name": "",
          "type": "bytes32"
        }
      ],
      "name": "routedTransfersGas",
      "outputs": [
        {
          "internalType": "uint256",
          "name": "gasUsed",
          "type": "uint256"
        },
        {
          "internalType": "uint256",
          "name": "gasPrice",
          "type": "uint256"
        }
      ],
      "stateMutability": "view",
      "type": "function"
    },
    {
      "inputs": [
        {
          "internalType": "address",
          "name": "",
          "type": "address"
        },
        {
          "internalType": "address",
          "name": "",
          "type": "address"
        }
      ],
      "name": "routerBalances",
      "outputs": [
        {
          "internalType": "uint256",
          "name": "",
          "type": "uint256"
        }
      ],
      "stateMutability": "view",
      "type": "function"
    },
    {
      "inputs": [],
      "name": "routerOwnershipTimestamp",
      "outputs": [
        {
          "internalType": "uint256",
          "name": "",
          "type": "uint256"
        }
      ],
      "stateMutability": "view",
      "type": "function"
    },
    {
      "inputs": [
        {
          "internalType": "address",
          "name": "",
          "type": "address"
        }
      ],
      "name": "routerRelayerFees",
      "outputs": [
        {
          "internalType": "uint256",
          "name": "",
          "type": "uint256"
        }
      ],
      "stateMutability": "view",
      "type": "function"
    },
    {
      "inputs": [
        {
          "components": [
            {
              "internalType": "uint32",
              "name": "domain",
              "type": "uint32"
            },
            {
              "internalType": "bytes32",
              "name": "id",
              "type": "bytes32"
            }
          ],
          "internalType": "struct BridgeMessage.TokenId",
          "name": "canonical",
          "type": "tuple"
        },
        {
          "internalType": "address",
          "name": "adoptedAssetId",
          "type": "address"
        },
        {
          "internalType": "address",
          "name": "stableSwapPool",
          "type": "address"
        }
      ],
      "name": "setupAsset",
      "outputs": [],
      "stateMutability": "nonpayable",
      "type": "function"
    },
    {
      "inputs": [],
      "name": "tokenRegistry",
      "outputs": [
        {
          "internalType": "contract TokenRegistry",
          "name": "",
          "type": "address"
        }
      ],
      "stateMutability": "view",
      "type": "function"
    },
    {
      "inputs": [],
      "name": "wrapper",
      "outputs": [
        {
          "internalType": "contract IWrapped",
          "name": "",
          "type": "address"
        }
      ],
      "stateMutability": "view",
      "type": "function"
    },
    {
      "inputs": [
        {
          "components": [
            {
              "components": [
                {
                  "internalType": "address",
                  "name": "to",
                  "type": "address"
                },
                {
                  "internalType": "bytes",
                  "name": "callData",
                  "type": "bytes"
                },
                {
                  "internalType": "uint32",
                  "name": "originDomain",
                  "type": "uint32"
                },
                {
                  "internalType": "uint32",
                  "name": "destinationDomain",
                  "type": "uint32"
                }
              ],
              "internalType": "struct IConnext.CallParams",
              "name": "params",
              "type": "tuple"
            },
            {
              "internalType": "address",
              "name": "transactingAssetId",
              "type": "address"
            },
            {
              "internalType": "uint256",
              "name": "amount",
              "type": "uint256"
            }
          ],
          "internalType": "struct IConnext.XCallArgs",
          "name": "_args",
          "type": "tuple"
        }
      ],
      "name": "xcall",
      "outputs": [
        {
          "internalType": "bytes32",
          "name": "",
          "type": "bytes32"
        }
      ],
      "stateMutability": "payable",
      "type": "function"
    },
    {
      "stateMutability": "payable",
      "type": "receive"
    }
  ],
  "transactionHash": "0x4b5c3fa831e394867ed3c0801616481e5a5db0ca9fd26e2bde2940135301b66e",
  "args": [],
  "numDeployments": 2,
  "solcInputHash": "ce65c7514d5bbebdad4524791d5fbea9",
  "bytecode": "0x608060405234801561001057600080fd5b50615941806100206000396000f3fe608060405260043610620002b75760003560e01c806383c68876116200016b578063c26c9c0a11620000d1578063d232c2201162000084578063d232c22014620008f6578063e070da091462000917578063e47602f7146200092e578063e8be0dfc1462000946578063ea7a904d146200095e578063f31abcc4146200098357600080fd5b8063c26c9c0a146200083c578063c2fb26a6146200086d578063c34c08e51462000885578063c5b350df14620008a7578063c95f9d0e14620008bf578063d1851c9214620008d657600080fd5b8063ac210cc7116200012a578063ac210cc71462000774578063affed0e01462000796578063b1f8100d14620007ae578063bd7e1e2e14620007d3578063c0c17baf146200080d578063c1a04959146200082557600080fd5b806383c6887614620006d257806386ba778614620007035780638741eac5146200071a5780638da5cb5b14620007325780639d23c4c7146200075257600080fd5b806341af5b52116200021d5780636a42b8f811620001d05780636a42b8f814620005e55780636ae0b15414620005fd578063715018a61462000622578063754d1d54146200063a5780637b298e27146200065f578063806474de146200068457600080fd5b806341af5b5214620004c1578063445b1e4b14620004e3578063569d29e4146200051757806357bd0a32146200053c5780636006209114620005705780636a41633a14620005ce57600080fd5b806324ca984e116200027657806324ca984e14620003b95780632c1999d014620003de5780633855b46714620004315780633cf52ffb146200044957806340b18b7e146200046057806341258b5c146200048557600080fd5b8063023ae73a14620002c45780631506e46314620002ee5780631a8bc0e114620003155780632004ef4514620003795780632077490914620003a257600080fd5b36620002bf57005b600080fd5b620002db620002d536600462003988565b620009a8565b6040519081526020015b60405180910390f35b348015620002fb57600080fd5b50620003136200030d366004620039f5565b62000bac565b005b3480156200032257600080fd5b50620003596200033436600462003a32565b607260205260009081526040902080546001909101546001600160a01b039091169082565b604080516001600160a01b039093168352602083019190915201620002e5565b3480156200038657600080fd5b506200039162000be9565b6040519015158152602001620002e5565b62000313620003b336600462003a4c565b62000c0c565b348015620003c657600080fd5b5062000313620003d836600462003a4c565b62000c79565b348015620003eb57600080fd5b5062000418620003fd36600462003a32565b607a602052600090815260409020546001600160a01b031681565b6040516001600160a01b039091168152602001620002e5565b3480156200043e57600080fd5b506200031362000d9d565b3480156200045657600080fd5b50603554620002db565b3480156200046d57600080fd5b50620002db6200047f36600462003a6c565b62000ea5565b3480156200049257600080fd5b50620002db620004a436600462003aab565b607560209081526000928352604080842090915290825290205481565b348015620004ce57600080fd5b50606c5462000418906001600160a01b031681565b348015620004f057600080fd5b50620003916200050236600462003a4c565b60776020526000908152604090205460ff1681565b3480156200052457600080fd5b50620003136200053636600462003ade565b6200128e565b3480156200054957600080fd5b50620003916200055b36600462003a32565b60786020526000908152604090205460ff1681565b3480156200057d57600080fd5b50620005b16200058f36600462003a4c565b6079602052600090815260409020805460019091015463ffffffff9091169082565b6040805163ffffffff9093168352602083019190915201620002e5565b348015620005db57600080fd5b50603954620002db565b348015620005f257600080fd5b5062093a80620002db565b3480156200060a57600080fd5b50620003136200061c36600462003a4c565b620012d8565b3480156200062f57600080fd5b5062000313620013f7565b3480156200064757600080fd5b50620003136200065936600462003b2f565b6200150b565b3480156200066c57600080fd5b50620003136200067e36600462003b89565b620016a4565b3480156200069157600080fd5b50620006bc620006a336600462003a32565b6073602052600090815260409020805460019091015482565b60408051928352602083019190915201620002e5565b348015620006df57600080fd5b50620002db620006f136600462003a4c565b60766020526000908152604090205481565b620003136200071436600462003bb1565b620016d7565b3480156200072757600080fd5b506200031362001829565b3480156200073f57600080fd5b506033546001600160a01b031662000418565b3480156200075f57600080fd5b5060705462000418906001600160a01b031681565b3480156200078157600080fd5b50606d5462000418906001600160a01b031681565b348015620007a357600080fd5b50620002db606e5481565b348015620007bb57600080fd5b5062000313620007cd36600462003a4c565b620018a1565b348015620007e057600080fd5b5062000418620007f236600462003a32565b6071602052600090815260409020546001600160a01b031681565b3480156200081a57600080fd5b506200031362001985565b3480156200083257600080fd5b50603754620002db565b3480156200084957600080fd5b50620002db6200085b36600462003a32565b607b6020526000908152604090205481565b3480156200087a57600080fd5b50620002db60745481565b3480156200089257600080fd5b50606f5462000418906001600160a01b031681565b348015620008b457600080fd5b506200031362001a8b565b62000313620008d036600462003b89565b62001b6d565b348015620008e357600080fd5b506034546001600160a01b031662000418565b3480156200090357600080fd5b506033546001600160a01b03161562000391565b620003136200092836600462003bfe565b62001bad565b3480156200093b57600080fd5b506200031362001bee565b3480156200095357600080fd5b506200039162001c66565b3480156200096b57600080fd5b50620003136200097d36600462003b89565b62001c87565b3480156200099057600080fd5b5062000313620009a236600462003bfe565b62001dc2565b60008060798180620009c1604087016020880162003a4c565b6001600160a01b031614620009e857620009e2604086016020870162003a4c565b620009f5565b606d546001600160a01b03165b6001600160a01b03166001600160a01b0316815260200190815260200160002060010154141562000a605760405162461bcd60e51b815260206004820152601060248201526f085cdd5c1c1bdc9d195917d85cdcd95d60821b60448201526064015b60405180910390fd5b60008062000a8462000a79604086016020870162003a4c565b856040013562001f5c565b9150915060008062000a9784846200216c565b606e54919350915060009062000aba903362000ab48a8062003c3a565b6200231b565b606e8054919250600062000ace8362003c71565b9091555062000b1c905062000ae4888062003c3a565b62000af790608081019060600162003cb4565b62000b03898062003c3a565b62000b1390602081019062003a4c565b84868562002354565b62000b28878062003c3a565b62000b3890602081019062003a4c565b6001600160a01b0316817f023e565b14eb42ff84b14f9c07ae846f5234b3a596e8e01ea2a0573e28d1d80862000b6f8a8062003c3a565b888689896001606e5462000b84919062003cd4565b3360405162000b9a979695949392919062003dce565b60405180910390a39695505050505050565b6033546001600160a01b0316331462000bd95760405162461bcd60e51b815260040162000a579062003e22565b62000be582826200241b565b5050565b6033546000906001600160a01b0316158062000c07575060365460ff165b905090565b6000341162000c475760405162461bcd60e51b81526020600482015260066024820152652176616c756560d01b604482015260640162000a57565b6001600160a01b0381166000908152607660205260408120805434929062000c7190849062003e43565b909155505050565b6033546001600160a01b0316331462000ca65760405162461bcd60e51b815260040162000a579062003e22565b6001600160a01b03811662000ce85760405162461bcd60e51b81526020600482015260076024820152662341523a30303160c81b604482015260640162000a57565b6001600160a01b03811660009081526077602052604090205460ff161562000d3d5760405162461bcd60e51b815260206004820152600760248201526611a0a91d18199960c91b604482015260640162000a57565b6001600160a01b038116600081815260776020908152604091829020805460ff19166001179055815192835233908301527fbc68405e644da2aaf25623ce2199da82c6dfd2e1de102b400eba6a091704d4f491015b60405180910390a150565b6033546001600160a01b0316331462000dca5760405162461bcd60e51b815260040162000a579062003e22565b60385460ff161562000e0a5760405162461bcd60e51b8152602060048201526008602482015267046a4829e746066760c31b604482015260640162000a57565b60006039541162000e495760405162461bcd60e51b81526020600482015260086024820152672352414f3a30333760c01b604482015260640162000a57565b62093a806039544262000e5d919062003cd4565b1162000e975760405162461bcd60e51b815260206004820152600860248201526702352414f3a3033360c41b604482015260640162000a57565b62000ea36001620024aa565b565b6000805a9050600062000ed560a085013562000ec9610100870160e0880162003a4c565b62000ab4878062003c3a565b6000818152607b60205260409020549091508015801562000f2a5762000f2483608088013562000f0c60408a0160208b0162003a4c565b62000f1e60608b0160408c0162003a4c565b620024f1565b62000fa6565b62000f6762000f40604088016020890162003a4c565b62000f4c888062003c3a565b62000f5c90602081019062003a4c565b8860800135620025c5565b821462000fa65760405162461bcd60e51b815260206004820152600c60248201526b21736c6f7720706172616d7360a01b604482015260640162000a57565b60008062000fca62000fbf60408a0160208b0162003a4c565b896080013562002620565b606b54919350915062000fde898062003c3a565b62000fee90602081019062003e5e565b60405162000ffe92919062003ea8565b604051809103902014156200103b5762001035816200101e8a8062003c3a565b6200102e90602081019062003a4c565b84620026f3565b62001177565b606f54620010559082906001600160a01b031684620026f3565b606f546001600160a01b0316631e29b4408684620010748c8062003c3a565b6200108490602081019062003a4c565b8588620010cf57620010c96200109b8f8062003c3a565b620010ae90606081019060400162003cb4565b8f60e0016020810190620010c3919062003a4c565b620027c5565b620010ea565b6040518060400160405280601d815260200162ffffff198152505b620010f68f8062003c3a565b6200110690602081019062003e5e565b6040518863ffffffff1660e01b81526004016200112a979695949392919062003f15565b6000604051808303816000875af11580156200114a573d6000803e3d6000fd5b505050506040513d6000823e601f3d908101601f1916820160405262001174919081019062003f9a565b50505b8215620011ba5760405180604001604052805a62001196908962003cd4565b81523a60209182015260008781526073825260409020825181559101516001909101555b620011f885620011d160608b0160408c0162003a4c565b620011e360808c0160608d0162003cb4565b620011f260c08d018d62003e5e565b620027f6565b3362001205898062003c3a565b6200121590602081019062003a4c565b6001600160a01b0316867f3d5b9d96144cef95ba201c4dbd1f875f6dd32edc9d8813056dea706bf52fc10a6200124c8c8062003c3a565b6200125e60408e0160208f0162003a4c565b868e6080013589336040516200127a9695949392919062004068565b60405180910390a450929695505050505050565b6033546001600160a01b03163314620012bb5760405162461bcd60e51b815260040162000a579062003e22565b620012c7838362002916565b620012d383826200241b565b505050565b6033546001600160a01b03163314620013055760405162461bcd60e51b815260040162000a579062003e22565b6001600160a01b038116620013475760405162461bcd60e51b81526020600482015260076024820152662352523a30303160c81b604482015260640162000a57565b6001600160a01b03811660009081526077602052604090205460ff161515600114620013a05760405162461bcd60e51b81526020600482015260076024820152662352523a30333360c81b604482015260640162000a57565b6001600160a01b038116600081815260776020908152604091829020805460ff19169055815192835233908301527fbee3e974bb6a6f44f20096ede047c191eef60322e65e4ee4bd3392230a8716d5910162000d92565b6033546001600160a01b03163314620014245760405162461bcd60e51b815260040162000a579062003e22565b600060355411620014625760405162461bcd60e51b815260206004820152600760248201526623524f3a30333760c81b604482015260640162000a57565b62093a806035544262001476919062003cd4565b11620014af5760405162461bcd60e51b8152602060048201526007602482015266023524f3a3033360cc1b604482015260640162000a57565b6034546001600160a01b031615620014f45760405162461bcd60e51b815260206004820152600760248201526611a9279d18199b60c91b604482015260640162000a57565b60345462000ea3906001600160a01b031662002a6f565b600054610100900460ff16620015285760005460ff16156200152c565b303b155b620015915760405162461bcd60e51b815260206004820152602e60248201527f496e697469616c697a61626c653a20636f6e747261637420697320616c72656160448201526d191e481a5b9a5d1a585b1a5e995960921b606482015260840162000a57565b600054610100900460ff16158015620015b4576000805461ffff19166101011790555b620015be62002ac8565b620015c862002afc565b6000606e556074859055606c80546001600160a01b0319166001600160a01b0386161790556040513090620015fd906200397a565b6001600160a01b039091168152602001604051809103906000f0801580156200162a573d6000803e3d6000fd5b50606f80546001600160a01b03199081166001600160a01b0393841617909155607080548216868416179055606d80549091169184169190911790557fc5d2460186f7233c927e7db2dcc703c0e500b653ca82273b7bfad8045d85a470606b5580156200169d576000805461ff00191690555b5050505050565b3360009081526076602052604081208054849290620016c590849062003cd4565b9091555062000be59050818362002b30565b606c546001600160a01b031633146200171d5760405162461bcd60e51b81526020600482015260076024820152662162726964676560c81b604482015260640162000a57565b600084815260726020908152604091829020825180840190935280546001600160a01b031680845260019091015491830191909152620017795762001764848484620025c5565b6000868152607b6020526040902055620017ba565b80516001600160a01b03908116600090815260756020908152604080832093881683529290529081208054849290620017b490849062003e43565b90915550505b8051604080516001600160a01b0387811682526020808301879052855182168385015285015160608301523360808301529151928216929186169188917f0285346435ebf237a77b7d7a7956d0154d9965588c1b03a36ab589bb44503469919081900360a00190a45050505050565b6033546001600160a01b03163314620018565760405162461bcd60e51b815260040162000a579062003e22565b60385460ff1615620018975760405162461bcd60e51b8152602060048201526009602482015268046a0829ea4746066760bb1b604482015260640162000a57565b62000ea362002c4f565b6033546001600160a01b03163314620018ce5760405162461bcd60e51b815260040162000a579062003e22565b6034546001600160a01b038281169116141580620018f357506001600160a01b038116155b6200192c5760405162461bcd60e51b815260206004820152600860248201526711a827279d18199b60c11b604482015260640162000a57565b6033546001600160a01b0382811691161415620019775760405162461bcd60e51b8152602060048201526008602482015267046a09c9e746066760c31b604482015260640162000a57565b620019828162002c8b565b50565b6033546001600160a01b03163314620019b25760405162461bcd60e51b815260040162000a579062003e22565b60365460ff1615620019f25760405162461bcd60e51b8152602060048201526008602482015267046a4a49e746066760c31b604482015260640162000a57565b60006037541162001a315760405162461bcd60e51b81526020600482015260086024820152672352524f3a30333760c01b604482015260640162000a57565b62093a806037544262001a45919062003cd4565b1162001a7f5760405162461bcd60e51b815260206004820152600860248201526702352524f3a3033360c41b604482015260640162000a57565b62000ea3600162002cd9565b6034546001600160a01b0316331462001ad15760405162461bcd60e51b8152602060048201526007602482015266234f503a30333560c81b604482015260640162000a57565b6034546033546001600160a01b039081169116141562001b1f5760405162461bcd60e51b815260206004820152600860248201526704682a09e746066760c31b604482015260640162000a57565b62093a806035544262001b33919062003cd4565b11620014f45760405162461bcd60e51b815260206004820152600860248201526702341504f3a3033360c41b604482015260640162000a57565b6002600154141562001b935760405162461bcd60e51b815260040162000a5790620040b7565b600260015562001ba582823362002d20565b505060018055565b6002600154141562001bd35760405162461bcd60e51b815260040162000a5790620040b7565b600260015562001be583838362002d20565b50506001805550565b6033546001600160a01b0316331462001c1b5760405162461bcd60e51b815260040162000a579062003e22565b60365460ff161562001c5c5760405162461bcd60e51b8152602060048201526009602482015268046a0a49ea4746066760bb1b604482015260640162000a57565b62000ea362002fb3565b6033546000906001600160a01b0316158062000c0757505060385460ff1690565b6033546001600160a01b0316331462001cb45760405162461bcd60e51b815260040162000a579062003e22565b60008281526078602052604090205460ff16151560011462001d035760405162461bcd60e51b81526020600482015260076024820152662352413a30333360c81b604482015260640162000a57565b6000828152607860209081526040808320805460ff191690556071909152812080546001600160a01b03191690556079906001600160a01b0383161562001d4b578262001d58565b606d546001600160a01b03165b6001600160a01b0316815260208082019290925260409081016000908120805463ffffffff1916815560010155805184815233928101929092527f9d181adb70e733f5235f839c1eed929407ea8526e41d01f49b9fef703e78dddf91015b60405180910390a15050565b6002600154141562001de85760405162461bcd60e51b815260040162000a5790620040b7565b60026001556001600160a01b03811662001e2f5760405162461bcd60e51b815260206004820152600760248201526623524c3a30303760c81b604482015260640162000a57565b6000831162001e6b5760405162461bcd60e51b815260206004820152600760248201526611a9261d18181960c91b604482015260640162000a57565b3360009081526075602090815260408083206001600160a01b03861684529091529020548381101562001ecb5760405162461bcd60e51b8152602060048201526007602482015266046a498746060760cb1b604482015260640162000a57565b3360009081526075602090815260408083206001600160a01b03871684529091529020848203905562001f00838386620026f3565b604080516001600160a01b03848116825285166020820152808201869052336060820181905291517f63b05915120b3d5a231e7c3625a411c15b2a79c35e3b1432a4f1ea95468cc6349181900360800190a25050600180555050565b600080826001600160a01b0385166200202a5783341462001faa5760405162461bcd60e51b815260206004820152600760248201526608585b5bdd5b9d60ca1b604482015260640162000a57565b606d60009054906101000a90046001600160a01b03166001600160a01b031663d0e30db0856040518263ffffffff1660e01b81526004016000604051808303818588803b15801562001ffb57600080fd5b505af115801562002010573d6000803e3d6000fd5b5050606d546001600160a01b031697506200215f92505050565b6040516370a0823160e01b81523060048201526000906001600160a01b038716906370a0823190602401602060405180830381865afa15801562002072573d6000803e3d6000fd5b505050506040513d601f19601f82011682018060405250810190620020989190620040ee565b90503415620020d45760405162461bcd60e51b815260206004820152600760248201526611aa209d18181b60c91b604482015260640162000a57565b620020e28633308862002fea565b6040516370a0823160e01b815230600482015281906001600160a01b038816906370a0823190602401602060405180830381865afa15801562002129573d6000803e3d6000fd5b505050506040513d601f19601f820116820180604052508101906200214f9190620040ee565b6200215b919062003cd4565b9150505b84925090505b9250929050565b6001600160a01b03821660009081526079602090815260408083208151808301909252805463ffffffff168252600101549181018290528291620021b7578385925092505062002165565b60705481516020830151604051631626cf1960e21b815263ffffffff909216600483015260248201526000916001600160a01b03169063589b3c6490604401602060405180830381865afa15801562002214573d6000803e3d6000fd5b505050506040513d601f19601f820116820180604052508101906200223a919062004108565b9050856001600160a01b0316816001600160a01b031614156200226557848693509350505062002165565b6020808301516000908152607190915260409020546001600160a01b0316620022908782886200305d565b60405163d5914c4560e01b8152600481018790526001600160a01b038881166024830152838116604483015282169063d5914c45906064016020604051808303816000875af1158015620022e8573d6000803e3d6000fd5b505050506040513d601f19601f820116820180604052508101906200230e9190620040ee565b9791965090945050505050565b6000838383604051602001620023349392919062004128565b6040516020818303038152906040528051906020012090505b9392505050565b606c546200236e9084906001600160a01b0316846200317a565b606c546001600160a01b0316638022e55984848862002393896001600160a01b031690565b6040516001600160e01b031960e087901b1681526001600160a01b039094166004850152602484019290925263ffffffff16604483015260648201526001608482015260a4810184905260c401600060405180830381600087803b158015620023fb57600080fd5b505af115801562002410573d6000803e3d6000fd5b505050505050505050565b6020828101803560008181526071909352604090922080546001600160a01b0319166001600160a01b0385161790557fd6f882d8fd8cc867bb57db3880bc4ad0b9b84689b57bba1b51feec7be397e3c2919062002479908562003cb4565b6040805192835263ffffffff90911660208301526001600160a01b0384169082015233606082015260800162001db6565b6038805460ff191682151590811790915560006039556040519081527f868d89ead22a5d10f456845ac0014901d9af7203e71cf0892d70d9dc262c2fb99060200162000d92565b6000848152607260205260409020546001600160a01b031615620025415760405162461bcd60e51b815260206004820152600660248201526521656d70747960d01b604482015260640162000a57565b6001600160a01b038082166000908152607560209081526040808320938616835292905290812080548592906200257a90849062003cd4565b90915550506040805180820182526001600160a01b03928316815260208082019586526000968752607290529420935184546001600160a01b03191691161783555051600190910155565b60408051606080820183526001600160a01b0395861680835260208084019586529587169284019283528351808701919091529351848401529051909416828501528051808303909401845260809091019052815191012090565b60705460405163b9730eaf60e01b81526001600160a01b038481166004830152600092839283929091169063b9730eaf906024016040805180830381865afa15801562002671573d6000803e3d6000fd5b505050506040513d601f19601f820116820180604052508101906200269791906200415d565b6000818152607a60205260409020549092506001600160a01b0390811691508616811415620026ce57848693509350505062002165565b6000828152607160205260409020546001600160a01b0316620022908782886200305d565b6001600160a01b038316620027355760405162461bcd60e51b8152602060048201526007602482015266216e617469766560c81b604482015260640162000a57565b606d546001600160a01b0384811691161415620027b857606d54604051632e1a7d4d60e01b8152600481018390526001600160a01b0390911690632e1a7d4d90602401600060405180830381600087803b1580156200279357600080fd5b505af1158015620027a8573d6000803e3d6000fd5b50505050620012d3828262002b30565b620012d383838362003233565b606060018383604051602001620027df93929190620041a4565b604051602081830303815290604052905092915050565b336001600160a01b03851614156200280e576200169d565b6200284c85846040516020016200283592919091825263ffffffff16602082015260400190565b604051602081830303815290604052838362003265565b6001600160a01b0316846001600160a01b031614620028995760405162461bcd60e51b8152602060048201526008602482015267217274725f73696760c01b604482015260640162000a57565b63ffffffff8316620028ab576200169d565b60006064620028c163ffffffff86164862004200565b620028cd919062004222565b6001600160a01b038616600090815260766020526040812080549293508392909190620028fc90849062003cd4565b909155506200290e9050338262002b30565b505050505050565b60208083013560009081526078909152604090205460ff1615620029675760405162461bcd60e51b815260206004820152600760248201526611a0a09d18199960c91b604482015260640162000a57565b6020808301356000908152607882526040808220805460ff191660011790556001600160a01b03841682526079909252208290620029a6828262004245565b50600090506001600160a01b03821615620029c25781620029cf565b606d546001600160a01b03165b602084810180356000818152607a909352604090922080546001600160a01b0319166001600160a01b0385161790559192507f42e28d2d3431c24c3f3b6e2623a169bd4a31dd1f66780c4499af54a28632779b9162002a2f908662003cb4565b6040805192835263ffffffff9190911660208301526001600160a01b038581168383015284166060830152336080830152519081900360a00190a1505050565b603380546001600160a01b038381166001600160a01b0319831681179093556000603581905560405191909216929183917f8be0079c531659141344cd1fd0a4f28419497f9722a3daafe3b4186f6b6457e09190a35050565b600054610100900460ff1662002af25760405162461bcd60e51b815260040162000a579062004274565b62000ea36200330f565b600054610100900460ff1662002b265760405162461bcd60e51b815260040162000a579062004274565b62000ea362003344565b8047101562002b825760405162461bcd60e51b815260206004820152601d60248201527f416464726573733a20696e73756666696369656e742062616c616e6365000000604482015260640162000a57565b6000826001600160a01b03168260405160006040518083038185875af1925050503d806000811462002bd1576040519150601f19603f3d011682016040523d82523d6000602084013e62002bd6565b606091505b5050905080620012d35760405162461bcd60e51b815260206004820152603a60248201527f416464726573733a20756e61626c6520746f2073656e642076616c75652c207260448201527f6563697069656e74206d61792068617665207265766572746564000000000000606482015260840162000a57565b4260398190556040519081527fa78fdca214e4619ef34a695316d423f5b0d8274bc919d29733bf8f92ec8cbb7a906020015b60405180910390a1565b42603555603480546001600160a01b0319166001600160a01b0383169081179091556040517f6ab4d119f23076e8ad491bc65ce85f017fb0591dce08755ba8591059cc51737a90600090a250565b6036805460ff191682151590811790915560006037556040519081527f243ebbb2f905234bbf0556bb38e1f7c23b09ffd2e441a16e58b844eb2ab7a3979060200162000d92565b6001600160a01b03811662002d625760405162461bcd60e51b815260206004820152600760248201526623414c3a30303160c81b604482015260640162000a57565b6000831162002d9e5760405162461bcd60e51b815260206004820152600760248201526611a0a61d18181960c91b604482015260640162000a57565b6070546000906001600160a01b039081169063f15376869085161562002dc5578462002dd2565b606d546001600160a01b03165b6040516001600160e01b031960e084901b1681526001600160a01b0390911660048201526024016040805180830381865afa15801562002e16573d6000803e3d6000fd5b505050506040513d601f19601f8201168201806040525081019062002e3c91906200415d565b91505062002e4962000be9565b8062002e6d57506001600160a01b03821660009081526077602052604090205460ff165b62002ea55760405162461bcd60e51b815260206004820152600760248201526623414c3a30303360c81b604482015260640162000a57565b62002eaf62001c66565b8062002ec9575060008181526078602052604090205460ff165b62002f015760405162461bcd60e51b815260206004820152600760248201526608d0530e8c0c0d60ca1b604482015260640162000a57565b60008062002f10858762001f5c565b6001600160a01b03808716600090815260756020908152604080832093861683529290529081208054939550919350839262002f4e90849062003e43565b9091555050604080516001600160a01b03808716825284166020820152908101849052606081018290523360808201527fc30593c06911f2f2fc32a69df3a28e4a0b116d8d461b47a005ae4d28cd49282b9060a00160405180910390a1505050505050565b4260378190556040519081527fa52048c5f468d21a62e4644ac4db19bcaa1a20f0cf37d163ba49c7217d35feb89060200162002c81565b6040516001600160a01b0380851660248301528316604482015260648101829052620030579085906323b872dd60e01b906084015b60408051601f198184030181529190526020810180516001600160e01b03166001600160e01b03199093169290921790915262003374565b50505050565b801580620030db5750604051636eb1769f60e11b81523060048201526001600160a01b03838116602483015284169063dd62ed3e90604401602060405180830381865afa158015620030b3573d6000803e3d6000fd5b505050506040513d601f19601f82011682018060405250810190620030d99190620040ee565b155b620031485760405162461bcd60e51b815260206004820152603660248201527f5361666545524332303a20617070726f76652066726f6d206e6f6e2d7a65726f60448201527520746f206e6f6e2d7a65726f20616c6c6f77616e636560501b606482015260840162000a57565b6040516001600160a01b038316602482015260448101829052620012d390849063095ea7b360e01b906064016200301f565b604051636eb1769f60e11b81523060048201526001600160a01b038381166024830152600091839186169063dd62ed3e90604401602060405180830381865afa158015620031cc573d6000803e3d6000fd5b505050506040513d601f19601f82011682018060405250810190620031f29190620040ee565b620031fe919062003e43565b6040516001600160a01b0385166024820152604481018290529091506200305790859063095ea7b360e01b906064016200301f565b6040516001600160a01b038316602482015260448101829052620012d390849063a9059cbb60e01b906064016200301f565b600062003307620032ca85805190602001206040517f19457468657265756d205369676e6564204d6573736167653a0a3332000000006020820152603c8101829052600090605c01604051602081830303815290604052805190602001209050919050565b84848080601f0160208091040260200160405190810160405280939291908181526020018383808284376000920191909152506200344d92505050565b949350505050565b600054610100900460ff16620033395760405162461bcd60e51b815260040162000a579062004274565b62000ea33362002a6f565b600054610100900460ff166200336e5760405162461bcd60e51b815260040162000a579062004274565b60018055565b6000620033cb826040518060400160405280602081526020017f5361666545524332303a206c6f772d6c6576656c2063616c6c206661696c6564815250856001600160a01b0316620034759092919063ffffffff16565b805190915015620012d35780806020019051810190620033ec9190620042bf565b620012d35760405162461bcd60e51b815260206004820152602a60248201527f5361666545524332303a204552433230206f7065726174696f6e20646964206e6044820152691bdd081cdd58d8d9595960b21b606482015260840162000a57565b60008060006200345e858562003486565b915091506200346d81620034fc565b509392505050565b6060620033078484600085620036cf565b600080825160411415620034c15760208301516040840151606085015160001a620034b4878285856200380a565b9450945050505062002165565b825160401415620034ef5760208301516040840151620034e3868383620038ff565b93509350505062002165565b5060009050600262002165565b60008160048111156200351357620035136200418e565b14156200351d5750565b60018160048111156200353457620035346200418e565b1415620035845760405162461bcd60e51b815260206004820152601860248201527f45434453413a20696e76616c6964207369676e61747572650000000000000000604482015260640162000a57565b60028160048111156200359b576200359b6200418e565b1415620035eb5760405162461bcd60e51b815260206004820152601f60248201527f45434453413a20696e76616c6964207369676e6174757265206c656e67746800604482015260640162000a57565b60038160048111156200360257620036026200418e565b14156200365d5760405162461bcd60e51b815260206004820152602260248201527f45434453413a20696e76616c6964207369676e6174757265202773272076616c604482015261756560f01b606482015260840162000a57565b60048160048111156200367457620036746200418e565b1415620019825760405162461bcd60e51b815260206004820152602260248201527f45434453413a20696e76616c6964207369676e6174757265202776272076616c604482015261756560f01b606482015260840162000a57565b606082471015620037325760405162461bcd60e51b815260206004820152602660248201527f416464726573733a20696e73756666696369656e742062616c616e636520666f6044820152651c8818d85b1b60d21b606482015260840162000a57565b6001600160a01b0385163b6200378b5760405162461bcd60e51b815260206004820152601d60248201527f416464726573733a2063616c6c20746f206e6f6e2d636f6e7472616374000000604482015260640162000a57565b600080866001600160a01b03168587604051620037a99190620042dd565b60006040518083038185875af1925050503d8060008114620037e8576040519150601f19603f3d011682016040523d82523d6000602084013e620037ed565b606091505b5091509150620037ff8282866200393c565b979650505050505050565b6000807f7fffffffffffffffffffffffffffffff5d576e7357a4501ddfe92f46681b20a0831115620038435750600090506003620038f6565b8460ff16601b141580156200385c57508460ff16601c14155b156200386f5750600090506004620038f6565b6040805160008082526020820180845289905260ff881692820192909252606081018690526080810185905260019060a0016020604051602081039080840390855afa158015620038c4573d6000803e3d6000fd5b5050604051601f1901519150506001600160a01b038116620038ef57600060019250925050620038f6565b9150600090505b94509492505050565b6000806001600160ff1b038316816200391e60ff86901c601b62003e43565b90506200392e878288856200380a565b935093505050935093915050565b606083156200394d5750816200234d565b8251156200395e5782518084602001fd5b8160405162461bcd60e51b815260040162000a579190620042f1565b611605806200430783390190565b6000602082840312156200399b57600080fd5b813567ffffffffffffffff811115620039b357600080fd5b8201606081850312156200234d57600080fd5b600060408284031215620039d957600080fd5b50919050565b6001600160a01b03811681146200198257600080fd5b6000806060838503121562003a0957600080fd5b62003a158484620039c6565b9150604083013562003a2781620039df565b809150509250929050565b60006020828403121562003a4557600080fd5b5035919050565b60006020828403121562003a5f57600080fd5b81356200234d81620039df565b60006020828403121562003a7f57600080fd5b813567ffffffffffffffff81111562003a9757600080fd5b820161010081850312156200234d57600080fd5b6000806040838503121562003abf57600080fd5b823562003acc81620039df565b9150602083013562003a2781620039df565b60008060006080848603121562003af457600080fd5b62003b008585620039c6565b9250604084013562003b1281620039df565b9150606084013562003b2481620039df565b809150509250925092565b6000806000806080858703121562003b4657600080fd5b84359350602085013562003b5a81620039df565b9250604085013562003b6c81620039df565b9150606085013562003b7e81620039df565b939692955090935050565b6000806040838503121562003b9d57600080fd5b82359150602083013562003a2781620039df565b6000806000806080858703121562003bc857600080fd5b84359350602085013562003bdc81620039df565b9250604085013562003bee81620039df565b9396929550929360600135925050565b60008060006060848603121562003c1457600080fd5b83359250602084013562003c2881620039df565b9150604084013562003b2481620039df565b60008235607e1983360301811262003c5157600080fd5b9190910192915050565b634e487b7160e01b600052601160045260246000fd5b600060001982141562003c885762003c8862003c5b565b5060010190565b63ffffffff811681146200198257600080fd5b803562003caf8162003c8f565b919050565b60006020828403121562003cc757600080fd5b81356200234d8162003c8f565b60008282101562003ce95762003ce962003c5b565b500390565b81835281816020850137506000828201602090810191909152601f909101601f19169091010190565b6000813562003d2681620039df565b6001600160a01b03168352602082013536839003601e1901811262003d4a57600080fd5b8201803567ffffffffffffffff81111562003d6457600080fd5b80360384131562003d7457600080fd5b6080602086015262003d8e60808601826020850162003cee565b915050604083013562003da18162003c8f565b63ffffffff16604085015262003dba6060840162003ca2565b63ffffffff81166060860152509392505050565b60e08152600062003de360e083018a62003d17565b6001600160a01b0398891660208401529688166040830152506060810194909452608084019290925260a083015290921660c090920191909152919050565b602080825260079082015266234f4f3a30323960c81b604082015260600190565b6000821982111562003e595762003e5962003c5b565b500190565b6000808335601e1984360301811262003e7657600080fd5b83018035915067ffffffffffffffff82111562003e9257600080fd5b6020019150368190038213156200216557600080fd5b8183823760009101908152919050565b60005b8381101562003ed557818101518382015260200162003ebb565b83811115620030575750506000910152565b6000815180845262003f0181602086016020860162003eb8565b601f01601f19169290920160200192915050565b878152602081018790526001600160a01b0386811660408301528516606082015260c06080820181905260009062003f509083018662003ee7565b82810360a084015262003f6581858762003cee565b9a9950505050505050505050565b8051801515811462003caf57600080fd5b634e487b7160e01b600052604160045260246000fd5b6000806040838503121562003fae57600080fd5b62003fb98362003f73565b9150602083015167ffffffffffffffff8082111562003fd757600080fd5b818501915085601f83011262003fec57600080fd5b81518181111562004001576200400162003f84565b604051601f8201601f19908116603f011681019083821181831017156200402c576200402c62003f84565b816040528281528860208487010111156200404657600080fd5b6200405983602083016020880162003eb8565b80955050505050509250929050565b60c0815260006200407d60c083018962003d17565b6001600160a01b0397881660208401529587166040830152506060810193909352608083019190915290921660a090920191909152919050565b6020808252601f908201527f5265656e7472616e637947756172643a207265656e7472616e742063616c6c00604082015260600190565b6000602082840312156200410157600080fd5b5051919050565b6000602082840312156200411b57600080fd5b81516200234d81620039df565b8381526001600160a01b0383166020820152606060408201819052600090620041549083018462003d17565b95945050505050565b600080604083850312156200417157600080fd5b82516200417e8162003c8f565b6020939093015192949293505050565b634e487b7160e01b600052602160045260246000fd5b600060028510620041c557634e487b7160e01b600052602160045260246000fd5b5060f89390931b835260e09190911b6001600160e01b031916600183015260601b6bffffffffffffffffffffffff1916600582015260190190565b60008160001904831182151516156200421d576200421d62003c5b565b500290565b6000826200424057634e487b7160e01b600052601260045260246000fd5b500490565b8135620042528162003c8f565b63ffffffff811663ffffffff1983541617825550602082013560018201555050565b6020808252602b908201527f496e697469616c697a61626c653a20636f6e7472616374206973206e6f74206960408201526a6e697469616c697a696e6760a81b606082015260800190565b600060208284031215620042d257600080fd5b6200234d8262003f73565b6000825162003c5181846020870162003eb8565b6020815260006200234d602083018462003ee756fe60e0604052601d60a081905262ffffff1960c090815262000024916000919062000067565b503480156200003257600080fd5b50604051620016053803806200160583398101604081905262000055916200010d565b6001600160a01b03166080526200017c565b82805462000075906200013f565b90600052602060002090601f016020900481019282620000995760008555620000e4565b82601f10620000b457805160ff1916838001178555620000e4565b82800160010185558215620000e4579182015b82811115620000e4578251825591602001919060010190620000c7565b50620000f2929150620000f6565b5090565b5b80821115620000f25760008155600101620000f7565b6000602082840312156200012057600080fd5b81516001600160a01b03811681146200013857600080fd5b9392505050565b600181811c908216806200015457607f821691505b602082108114156200017657634e487b7160e01b600052602260045260246000fd5b50919050565b6080516114676200019e6000396000818160d4015261010701526114676000f3fe60806040526004361061003f5760003560e01c80631e29b440146100445780632b59241f1461006e578063938b5f321461009b578063975740c6146100c5575b600080fd5b610057610052366004611103565b6100f8565b604051610065929190611270565b60405180910390f35b34801561007a57600080fd5b506100836102ef565b6040516001600160a01b039091168152602001610065565b3480156100a757600080fd5b506100b0610396565b60405163ffffffff9091168152602001610065565b3480156100d157600080fd5b507f0000000000000000000000000000000000000000000000000000000000000000610083565b60006060336001600160a01b037f000000000000000000000000000000000000000000000000000000000000000016146101635760405162461bcd60e51b8152602060048201526007602482015266234f433a30323760c81b60448201526064015b60405180910390fd5b6001600160a01b038616158061017e5761017e87898b6103b4565b600060606001600160a01b038a163b6101c55760405162461bcd60e51b81526020600482015260096024820152680858dbdb9d1c9858dd60ba1b604482015260640161015a565b87516101d89060009060208b0190610ffc565b50896001600160a01b0316836101ef5760006101f1565b8b5b888860405161020192919061128b565b60006040518083038185875af1925050503d806000811461023e576040519150601f19603f3d011682016040523d82523d6000602084013e610243565b606091505b5060408051808201909152601d80825262ffffff1960209092019182529294509092506102739160009190610ffc565b5081158015610280575082155b1561029057610290898b8d61049f565b896001600160a01b03168c7f627b4985667a94d1a70c70277b9471eed68009d6f9c3ae5d25fa799fd3f0398d8b8e8c8c8c888a6040516102d6979695949392919061129b565b60405180910390a3909b909a5098505050505050505050565b6000806103856000805461030290611318565b80601f016020809104026020016040519081016040528092919081815260200182805461032e90611318565b801561037b5780601f106103505761010080835404028352916020019161037b565b820191906000526020600020905b81548152906001019060200180831161035e57829003601f168201915b50505050506105b2565b9050610390816105cc565b91505090565b6000806103a96000805461030290611318565b9050610390816105fd565b604051636eb1769f60e11b81523060048201526001600160a01b038381166024830152600091839186169063dd62ed3e90604401602060405180830381865afa158015610405573d6000803e3d6000fd5b505050506040513d601f19601f82011682018060405250810190610429919061134d565b610433919061137c565b6040516001600160a01b03851660248201526044810182905290915061049990859063095ea7b360e01b906064015b60408051601f198184030181529190526020810180516001600160e01b03166001600160e01b03199093169290921790915261061f565b50505050565b604051636eb1769f60e11b81523060048201526001600160a01b0383811660248301526000919085169063dd62ed3e90604401602060405180830381865afa1580156104ef573d6000803e3d6000fd5b505050506040513d601f19601f82011682018060405250810190610513919061134d565b9050818110156105775760405162461bcd60e51b815260206004820152602960248201527f5361666545524332303a2064656372656173656420616c6c6f77616e63652062604482015268656c6f77207a65726f60b81b606482015260840161015a565b6040516001600160a01b038416602482015282820360448201819052906105ab90869063095ea7b360e01b90606401610462565b5050505050565b60006105c66105c183836106f6565b61071a565b92915050565b60008160016105e3815b62ffffff19841690610733565b506105f562ffffff198516600561080c565b949350505050565b600081600161060b816105d6565b506105f562ffffff19851660016004610821565b6000610674826040518060400160405280602081526020017f5361666545524332303a206c6f772d6c6576656c2063616c6c206661696c6564815250856001600160a01b03166108519092919063ffffffff16565b8051909150156106f157808060200190518101906106929190611394565b6106f15760405162461bcd60e51b815260206004820152602a60248201527f5361666545524332303a204552433230206f7065726174696f6e20646964206e6044820152691bdd081cdd58d8d9595960b21b606482015260840161015a565b505050565b81516000906020840161071164ffffffffff85168284610860565b95945050505050565b60006105c6610728836108a4565b62ffffff19166108de565b600061073f8383610939565b61080557600061075e6107528560d81c90565b64ffffffffff1661095c565b91505060006107738464ffffffffff1661095c565b6040517f5479706520617373657274696f6e206661696c65642e20476f7420307800000060208201526001600160b01b031960b086811b8216603d8401526c05c408af0e0cac6e8cac84060f609b1b604784015283901b16605482015290925060009150605e0160405160208183030381529060405290508060405162461bcd60e51b815260040161015a91906113b6565b5090919050565b600061081a83836014610821565b9392505050565b600061082e8260206113c9565b6108399060086113ec565b60ff16610847858585610a0a565b901c949350505050565b60606105f58484600085610b63565b60008061086d838561137c565b905060405181111561087d575060005b8061088f5762ffffff1991505061081a565b5050606092831b9190911790911b1760181b90565b60006001600160601b03601883901c16601914156108d4576301000000600160d81b038216600160d81b176105c6565b62ffffff196105c6565b60006108e982610c94565b6109355760405162461bcd60e51b815260206004820152601960248201527f56616c696469747920617373657274696f6e206661696c656400000000000000604482015260640161015a565b5090565b60008164ffffffffff1661094d8460d81c90565b64ffffffffff16149392505050565b600080601f5b600f8160ff1611156109b157600061097b8260086113ec565b60ff1685901c905061098c81610cd2565b61ffff16841793508160ff166010146109a757601084901b93505b5060001901610962565b50600f5b60ff8160ff161015610a045760006109ce8260086113ec565b60ff1685901c90506109df81610cd2565b61ffff16831792508160ff166000146109fa57601083901b92505b50600019016109b5565b50915091565b600060ff8216610a1c5750600061081a565b610a2f8460181c6001600160601b031690565b6001600160601b0316610a4560ff84168561137c565b1115610aa957610a90610a618560781c6001600160601b031690565b6001600160601b0316610a7d8660181c6001600160601b031690565b6001600160601b0316858560ff16610d04565b60405162461bcd60e51b815260040161015a91906113b6565b60208260ff161115610b235760405162461bcd60e51b815260206004820152603a60248201527f54797065644d656d566965772f696e646578202d20417474656d70746564207460448201527f6f20696e646578206d6f7265207468616e203332206279746573000000000000606482015260840161015a565b600882026000610b3c8660781c6001600160601b031690565b6001600160601b031690506000600160ff1b60001984011d91909501511695945050505050565b606082471015610bc45760405162461bcd60e51b815260206004820152602660248201527f416464726573733a20696e73756666696369656e742062616c616e636520666f6044820152651c8818d85b1b60d21b606482015260840161015a565b6001600160a01b0385163b610c1b5760405162461bcd60e51b815260206004820152601d60248201527f416464726573733a2063616c6c20746f206e6f6e2d636f6e7472616374000000604482015260640161015a565b600080866001600160a01b03168587604051610c379190611415565b60006040518083038185875af1925050503d8060008114610c74576040519150601f19603f3d011682016040523d82523d6000602084013e610c79565b606091505b5091509150610c89828286610e2e565b979650505050505050565b6000610ca08260d81c90565b64ffffffffff1664ffffffffff1415610cbb57506000919050565b6000610cc683610e67565b60405110199392505050565b6000610ce460048360ff16901c610ea0565b60ff1661ffff919091161760081b610cfb82610ea0565b60ff1617919050565b60606000610d118661095c565b9150506000610d1f8661095c565b9150506000610d2d8661095c565b9150506000610d3b8661095c565b604080517f54797065644d656d566965772f696e646578202d204f76657272616e20746865602082015274040ecd2caee5c40a6d8d2c6ca40d2e640c2e84060f605b1b818301526001600160d01b031960d098891b811660558301526e040eed2e8d040d8cadccee8d04060f608b1b605b830181905297891b8116606a8301527f2e20417474656d7074656420746f20696e646578206174206f666673657420306070830152600f60fb1b609083015295881b861660918201526097810196909652951b90921660a68401525050601760f91b60ac8201528151808203608d01815260ad90910190915295945050505050565b60608315610e3d57508161081a565b825115610e4d5782518084602001fd5b8160405162461bcd60e51b815260040161015a91906113b6565b6000610e7c8260181c6001600160601b031690565b610e8f8360781c6001600160601b031690565b016001600160601b03169050919050565b600060f08083179060ff82161415610ebb5750603092915050565b8060ff1660f11415610ed05750603192915050565b8060ff1660f21415610ee55750603292915050565b8060ff1660f31415610efa5750603392915050565b8060ff1660f41415610f0f5750603492915050565b8060ff1660f51415610f245750603592915050565b8060ff1660f61415610f395750603692915050565b8060ff1660f71415610f4e5750603792915050565b8060ff1660f81415610f635750603892915050565b8060ff1660f91415610f785750603992915050565b8060ff1660fa1415610f8d5750606192915050565b8060ff1660fb1415610fa25750606292915050565b8060ff1660fc1415610fb75750606392915050565b8060ff1660fd1415610fcc5750606492915050565b8060ff1660fe1415610fe15750606592915050565b8060ff1660ff1415610ff65750606692915050565b50919050565b82805461100890611318565b90600052602060002090601f01602090048101928261102a5760008555611070565b82601f1061104357805160ff1916838001178555611070565b82800160010185558215611070579182015b82811115611070578251825591602001919060010190611055565b506109359291505b808211156109355760008155600101611078565b6001600160a01b03811681146110a157600080fd5b50565b634e487b7160e01b600052604160045260246000fd5b60008083601f8401126110cc57600080fd5b50813567ffffffffffffffff8111156110e457600080fd5b6020830191508360208285010111156110fc57600080fd5b9250929050565b600080600080600080600060c0888a03121561111e57600080fd5b873596506020880135955060408801356111378161108c565b945060608801356111478161108c565b9350608088013567ffffffffffffffff8082111561116457600080fd5b818a0191508a601f83011261117857600080fd5b81358181111561118a5761118a6110a4565b604051601f8201601f19908116603f011681019083821181831017156111b2576111b26110a4565b816040528281528d60208487010111156111cb57600080fd5b8260208601602083013760006020848301015280975050505060a08a01359150808211156111f857600080fd5b506112058a828b016110ba565b989b979a50959850939692959293505050565b60005b8381101561123357818101518382015260200161121b565b838111156104995750506000910152565b6000815180845261125c816020860160208601611218565b601f01601f19169290920160200192915050565b82151581526040602082015260006105f56040830184611244565b8183823760009101908152919050565b60018060a01b038816815286602082015260c0604082015260006112c260c0830188611244565b828103606084015285815285876020830137600060208783010152601f19601f8701168101905060208382030160808401526113016020820186611244565b91505082151560a083015298975050505050505050565b600181811c9082168061132c57607f821691505b60208210811415610ff657634e487b7160e01b600052602260045260246000fd5b60006020828403121561135f57600080fd5b5051919050565b634e487b7160e01b600052601160045260246000fd5b6000821982111561138f5761138f611366565b500190565b6000602082840312156113a657600080fd5b8151801515811461081a57600080fd5b60208152600061081a6020830184611244565b600060ff821660ff8416808210156113e3576113e3611366565b90039392505050565b600060ff821660ff84168160ff048111821515161561140d5761140d611366565b029392505050565b60008251611427818460208701611218565b919091019291505056fea26469706673582212208a80317d917a9223c22316eec704a84e6818733067edc2a385330f498c3bfaf864736f6c634300080b0033a26469706673582212201e9ab8b324e9bf3448e2e5f7f92156a2d6086c191faf6af60131107401a8b09064736f6c634300080b0033",
  "devdoc": {
    "kind": "dev",
    "methods": {
      "addLiquidity(uint256,address)": {
        "details": "The liquidity will be held in the local asset, which is the representation if you are *not* on the canonical domain, and the canonical asset otherwise.",
        "params": {
          "amount": "- The amount of liquidity to add for the router",
          "local": "- The address of the asset you're adding liquidity for. If adding liquidity of the native asset, routers may use `address(0)` or the wrapped asset"
        }
      },
      "addLiquidityFor(uint256,address,address)": {
        "details": "The liquidity will be held in the local asset, which is the representation if you are *not* on the canonical domain, and the canonical asset otherwise.",
        "params": {
          "amount": "- The amount of liquidity to add for the router",
          "local": "- The address of the asset you're adding liquidity for. If adding liquidity of the native asset, routers may use `address(0)` or the wrapped asset",
          "router": "The router you are adding liquidity on behalf of"
        }
      },
      "addRelayerFees(address)": {
        "params": {
          "router": "- The router to credit"
        }
      },
      "addRouter(address)": {
        "params": {
          "router": "Router address to add"
        }
      },
      "execute(((address,bytes,uint32,uint32),address,address,uint32,uint256,uint256,bytes,address))": {
        "details": "Will store the `ExecutedTransfer` if fast liquidity is provided, or assert the hash of the `ReconciledTransfer` when using bridge liquidity",
        "params": {
          "_args": "- The `ExecuteArgs` for the transfer"
        },
        "returns": {
          "_0": "bytes32 The transfer id of the crosschain transfer"
        }
      },
      "reconcile(bytes32,address,address,uint256)": {
        "details": "If fast liquidity was provided, the `amount` and `externalHash` are asserted against the `ExecutedTransaction` struct stored onchain. If no fast liqudity was provided, the hash of the `ReconciledTransaction` is stored onchain to enforce correctness when `execute` is called",
        "params": {
          "_amount": "- The amount bridged",
          "_local": "- The address of the asset delivered by the bridge",
          "_recipient": "- The address that will receive funds on the destination domain",
          "_transferId": "- Transfer UUID"
        }
      },
      "removeAssetId(bytes32,address)": {
        "params": {
          "adoptedAssetId": "- Corresponding adopted asset to remove",
          "canonicalId": "- Token id to remove"
        }
      },
      "removeLiquidity(uint256,address,address)": {
        "params": {
          "amount": "- The amount of liquidity to remove for the router",
          "local": "- The address of the asset you're removing liquidity from. If removing liquidity of the native asset, routers may use `address(0)` or the wrapped asset",
          "to": "The address that will receive the liquidity being removed"
        }
      },
      "removeRelayerFees(uint256,address)": {
        "details": "Must be called by the router you are decrementing relayer fees for",
        "params": {
          "amount": "- The amount of relayer fee to remove",
          "to": "- Who to send funds to"
        }
      },
      "removeRouter(address)": {
        "params": {
          "router": "Router address to remove"
        }
      },
      "setupAsset((uint32,bytes32),address,address)": {
        "details": "When whitelisting the canonical asset, all representational assets would be whitelisted as well. In the event you have a different adopted asset (i.e. PoS USDC on polygon), you should *not* whitelist the adopted asset. The stable swap pool address used should allow you to swap between the local <> adopted asset",
        "params": {
          "adoptedAssetId": "- The used asset id for this domain (i.e. PoS USDC for polygon)",
          "canonical": "- The canonical asset to add by id and domain. All representations will be whitelisted as well",
          "stableSwapPool": "- Address of the pool to swap adopted <> local asset"
        }
      },
      "xcall(((address,bytes,uint32,uint32),address,uint256))": {
        "details": "This contract must have approval to transfer the adopted assets. They are then swapped to the local nomad assets via the configured AMM and sent over the bridge router.",
        "params": {
          "_args": "- The XCallArgs"
        },
        "returns": {
          "_0": "The transfer id of the crosschain transfer"
        }
      }
    },
    "stateVariables": {
      "__gap": {
        "details": "This empty reserved space is put in place to allow future versions to add new variables without shifting down storage in the inheritance chain. See https://docs.openzeppelin.com/contracts/4.x/upgradeable#storage_gaps"
      },
      "adoptedToCanonical": {
        "details": "If the adopted asset is the native asset, the keyed address will be the wrapped asset address"
      },
      "adoptedToLocalPools": {
        "details": "Swaps for an adopted asset <> nomad local asset (i.e. POS USDC <> madUSDC on polygon)"
      },
      "approvedAssets": {
        "details": "Mapping is keyed on the canonical token identifier matching what is stored in the token registry"
      },
      "canonicalToAdopted": {
        "details": "If the adopted asset is the native asset, the stored address will be the wrapped asset address"
      },
      "domain": {
        "details": "Must match the nomad domain, which is distinct from the \"chainId\""
      },
      "nonce": {
        "details": "Assigned at first interaction (xcall on origin domain);"
      },
      "reconciledTransfers": {
        "details": "This information is stored onchain if the transaction has not been fulfilled at the time of reconcile"
      },
      "routedTransfers": {
        "details": "This information is stored onchain if fast liquidity is provided"
      },
      "routedTransfersGas": {
        "details": "This informaion is stored onchain if fast liquidity is provided"
      },
      "routerBalances": {
        "details": "Routers should always store liquidity that they can expect to receive via the bridge on this domain (the nomad local asset)"
      },
      "routerRelayerFees": {
        "details": "Right now, routers only store native asset onchain. TODO: allow for approved relaying assets"
      },
      "wrapper": {
        "details": "Needed because the nomad only handles ERC20 assets"
      }
    },
    "version": 1
  },
  "userdoc": {
    "events": {
      "AssetAdded(bytes32,uint32,address,address,address)": {
        "notice": "Emitted when a new asset is added"
      },
      "AssetRemoved(bytes32,address)": {
        "notice": "Emitted when an asset is removed from whitelists"
      },
      "Executed(bytes32,address,address,(address,bytes,uint32,uint32),address,address,uint256,uint256,address)": {
        "notice": "Emitted when `execute` is called on the destination chain"
      },
      "LiquidityAdded(address,address,bytes32,uint256,address)": {
        "notice": "Emitted when a router adds liquidity to the contract"
      },
      "LiquidityRemoved(address,address,address,uint256,address)": {
        "notice": "Emitted when a router withdraws liquidity from the contract"
      },
      "Reconciled(bytes32,address,address,address,uint256,(address,uint256),address)": {
        "notice": "Emitted when `reconciled` is called by the bridge on the destination domain"
      },
      "RouterAdded(address,address)": {
        "notice": "Emitted when a new router is added"
      },
      "RouterRemoved(address,address)": {
        "notice": "Emitted when an existing router is removed"
      },
      "StableSwapAdded(bytes32,uint32,address,address)": {
        "notice": "Emitted when a new stable-swap AMM is added for the local <> adopted token"
      },
      "XCalled(bytes32,address,(address,bytes,uint32,uint32),address,address,uint256,uint256,uint256,address)": {
        "notice": "Emitted when `xcall` is called on the origin domain"
      }
    },
    "kind": "user",
    "methods": {
      "acceptProposedOwner()": {
        "notice": "Transfers ownership of the contract to a new account (`newOwner`). Can only be called by the current owner."
      },
      "addLiquidity(uint256,address)": {
        "notice": "This is used by any router to increase their available liquidity for a given asset."
      },
      "addLiquidityFor(uint256,address,address)": {
        "notice": "This is used by anyone to increase a router's available liquidity for a given asset."
      },
      "addRelayerFees(address)": {
        "notice": "Used to add relayer fees in the native asset"
      },
      "addRouter(address)": {
        "notice": "Used to add routers that can transact crosschain"
      },
      "addStableSwapPool((uint32,bytes32),address)": {
        "notice": "Adds a stable swap pool for the local <> adopted asset."
      },
      "adoptedToCanonical(address)": {
        "notice": "Mapping of canonical to adopted assets on this domain"
      },
      "adoptedToLocalPools(bytes32)": {
        "notice": "Mapping holding the AMMs for swapping in and out of local assets"
      },
      "approvedAssets(bytes32)": {
        "notice": "Mapping of whitelisted assets on same domain as contract"
      },
      "approvedRouters(address)": {
        "notice": "Mapping of whitelisted router addresses."
      },
      "assetOwnershipTimestamp()": {
        "notice": "Returns the timestamp when asset ownership was last proposed to be renounced"
      },
      "bridgeRouter()": {
        "notice": "The local nomad bridge router"
      },
      "canonicalToAdopted(bytes32)": {
        "notice": "Mapping of adopted to canonical on this domain"
      },
      "delay()": {
        "notice": "Returns the delay period before a new owner can be accepted."
      },
      "domain()": {
        "notice": "The domain this contract exists on"
      },
      "execute(((address,bytes,uint32,uint32),address,address,uint32,uint256,uint256,bytes,address))": {
        "notice": "This function is called on the destination chain when the bridged asset should be swapped into the adopted asset and the external call executed. Can be used before reconcile (when providing fast liquidity) or after reconcile (when using liquidity from the bridge)"
      },
      "executor()": {
        "notice": "The external contract that will execute crosschain calldata"
      },
      "isAssetOwnershipRenounced()": {
        "notice": "Indicates if the ownership of the asset whitelist has been renounced"
      },
      "isRouterOwnershipRenounced()": {
        "notice": "Indicates if the ownership of the router whitelist has been renounced"
      },
      "nonce()": {
        "notice": "Nonce for the contract, used to keep unique transfer ids."
      },
      "owner()": {
        "notice": "Returns the address of the current owner."
      },
      "proposeAssetOwnershipRenunciation()": {
        "notice": "Indicates if the ownership of the asset whitelist has been renounced"
      },
      "proposeNewOwner(address)": {
        "notice": "Sets the timestamp for an owner to be proposed, and sets the newly proposed owner as step 1 in a 2-step process"
      },
      "proposeRouterOwnershipRenunciation()": {
        "notice": "Indicates if the ownership of the router whitelist has been renounced"
      },
      "proposed()": {
        "notice": "Returns the address of the proposed owner."
      },
      "proposedTimestamp()": {
        "notice": "Returns the address of the proposed owner."
      },
      "reconcile(bytes32,address,address,uint256)": {
        "notice": "This function is called by the bridge router to pass through the information provided by the user on prepare."
      },
      "reconciledTransfers(bytes32)": {
        "notice": "Stores hash of the `ReconciledTransaction` (all information passed through bridge) on `reconcile`"
      },
      "removeAssetId(bytes32,address)": {
        "notice": "Used to remove assets from the whitelist"
      },
      "removeLiquidity(uint256,address,address)": {
        "notice": "This is used by any router to decrease their available liquidity for a given asset."
      },
      "removeRelayerFees(uint256,address)": {
        "notice": "Used to remove relayer fee in the native asset"
      },
      "removeRouter(address)": {
        "notice": "Used to remove routers that can transact crosschain"
      },
      "renounceAssetOwnership()": {
        "notice": "Indicates if the ownership of the asset whitelist has been renounced"
      },
      "renounceOwnership()": {
        "notice": "Renounces ownership of the contract after a delay"
      },
      "renounceRouterOwnership()": {
        "notice": "Indicates if the ownership of the asset whitelist has been renounced"
      },
      "renounced()": {
        "notice": "Indicates if the ownership has been renounced() by checking if current owner is address(0)"
      },
      "routedTransfers(bytes32)": {
        "notice": "Stores the transferId => ExecutedTransfer mapping"
      },
      "routedTransfersGas(bytes32)": {
        "notice": "Stores the transferId => GasInfo mapping to track gas used on `execute`"
      },
      "routerBalances(address,address)": {
        "notice": "Mapping of router to available balance of an asset"
      },
      "routerOwnershipTimestamp()": {
        "notice": "Returns the timestamp when router ownership was last proposed to be renounced"
      },
      "routerRelayerFees(address)": {
        "notice": "Mapping of router to available relayer fee"
      },
      "setupAsset((uint32,bytes32),address,address)": {
        "notice": "Used to add supported assets. This is an admin only function"
      },
      "tokenRegistry()": {
        "notice": "The local nomad token registry"
      },
      "wrapper()": {
        "notice": "The address of the wrapper for the native asset on this domain"
      },
      "xcall(((address,bytes,uint32,uint32),address,uint256))": {
        "notice": "This function is called by a user who is looking to bridge funds"
      }
    },
    "version": 1
  },
  "storageLayout": {
    "storage": [
      {
        "astId": 130,
        "contract": "contracts/Connext.sol:Connext",
        "label": "_initialized",
        "offset": 0,
        "slot": "0",
        "type": "t_bool"
      },
      {
        "astId": 133,
        "contract": "contracts/Connext.sol:Connext",
        "label": "_initializing",
        "offset": 1,
        "slot": "0",
        "type": "t_bool"
      },
      {
        "astId": 322,
        "contract": "contracts/Connext.sol:Connext",
        "label": "_status",
        "offset": 0,
        "slot": "1",
        "type": "t_uint256"
      },
      {
        "astId": 366,
        "contract": "contracts/Connext.sol:Connext",
        "label": "__gap",
        "offset": 0,
        "slot": "2",
        "type": "t_array(t_uint256)49_storage"
      },
      {
        "astId": 7949,
        "contract": "contracts/Connext.sol:Connext",
        "label": "_owner",
        "offset": 0,
        "slot": "51",
        "type": "t_address"
      },
      {
        "astId": 7951,
        "contract": "contracts/Connext.sol:Connext",
        "label": "_proposed",
        "offset": 0,
        "slot": "52",
        "type": "t_address"
      },
      {
        "astId": 7953,
        "contract": "contracts/Connext.sol:Connext",
        "label": "_proposedOwnershipTimestamp",
        "offset": 0,
        "slot": "53",
        "type": "t_uint256"
      },
      {
        "astId": 7955,
        "contract": "contracts/Connext.sol:Connext",
        "label": "_routerOwnershipRenounced",
        "offset": 0,
        "slot": "54",
        "type": "t_bool"
      },
      {
        "astId": 7957,
        "contract": "contracts/Connext.sol:Connext",
        "label": "_routerOwnershipTimestamp",
        "offset": 0,
        "slot": "55",
        "type": "t_uint256"
      },
      {
        "astId": 7959,
        "contract": "contracts/Connext.sol:Connext",
        "label": "_assetOwnershipRenounced",
        "offset": 0,
        "slot": "56",
        "type": "t_bool"
      },
      {
        "astId": 7961,
        "contract": "contracts/Connext.sol:Connext",
        "label": "_assetOwnershipTimestamp",
        "offset": 0,
        "slot": "57",
        "type": "t_uint256"
      },
      {
        "astId": 8450,
        "contract": "contracts/Connext.sol:Connext",
        "label": "__gap",
        "offset": 0,
        "slot": "58",
        "type": "t_array(t_uint256)49_storage"
      },
      {
        "astId": 5744,
        "contract": "contracts/Connext.sol:Connext",
        "label": "EMPTY",
        "offset": 0,
        "slot": "107",
        "type": "t_bytes32"
      },
      {
        "astId": 5748,
        "contract": "contracts/Connext.sol:Connext",
        "label": "bridgeRouter",
        "offset": 0,
        "slot": "108",
        "type": "t_contract(BridgeRouter)22183"
      },
      {
        "astId": 5752,
        "contract": "contracts/Connext.sol:Connext",
        "label": "wrapper",
        "offset": 0,
        "slot": "109",
        "type": "t_contract(IWrapped)10042"
      },
      {
        "astId": 5755,
        "contract": "contracts/Connext.sol:Connext",
        "label": "nonce",
        "offset": 0,
        "slot": "110",
        "type": "t_uint256"
      },
      {
        "astId": 5759,
        "contract": "contracts/Connext.sol:Connext",
        "label": "executor",
        "offset": 0,
        "slot": "111",
        "type": "t_contract(IExecutor)9759"
      },
      {
        "astId": 5763,
        "contract": "contracts/Connext.sol:Connext",
        "label": "tokenRegistry",
        "offset": 0,
        "slot": "112",
        "type": "t_contract(TokenRegistry)23489"
      },
      {
        "astId": 5769,
        "contract": "contracts/Connext.sol:Connext",
        "label": "adoptedToLocalPools",
        "offset": 0,
        "slot": "113",
        "type": "t_mapping(t_bytes32,t_contract(IStableSwap)10031)"
      },
      {
        "astId": 5775,
        "contract": "contracts/Connext.sol:Connext",
        "label": "routedTransfers",
        "offset": 0,
        "slot": "114",
        "type": "t_mapping(t_bytes32,t_struct(ExecutedTransfer)9248_storage)"
      },
      {
        "astId": 5781,
        "contract": "contracts/Connext.sol:Connext",
        "label": "routedTransfersGas",
        "offset": 0,
        "slot": "115",
        "type": "t_mapping(t_bytes32,t_struct(GasInfo)9253_storage)"
      },
      {
        "astId": 5784,
        "contract": "contracts/Connext.sol:Connext",
        "label": "domain",
        "offset": 0,
        "slot": "116",
        "type": "t_uint256"
      },
      {
        "astId": 5791,
        "contract": "contracts/Connext.sol:Connext",
        "label": "routerBalances",
        "offset": 0,
        "slot": "117",
        "type": "t_mapping(t_address,t_mapping(t_address,t_uint256))"
      },
      {
        "astId": 5796,
        "contract": "contracts/Connext.sol:Connext",
        "label": "routerRelayerFees",
        "offset": 0,
        "slot": "118",
        "type": "t_mapping(t_address,t_uint256)"
      },
      {
        "astId": 5801,
        "contract": "contracts/Connext.sol:Connext",
        "label": "approvedRouters",
        "offset": 0,
        "slot": "119",
        "type": "t_mapping(t_address,t_bool)"
      },
      {
        "astId": 5806,
        "contract": "contracts/Connext.sol:Connext",
        "label": "approvedAssets",
        "offset": 0,
        "slot": "120",
        "type": "t_mapping(t_bytes32,t_bool)"
      },
      {
        "astId": 5812,
        "contract": "contracts/Connext.sol:Connext",
        "label": "adoptedToCanonical",
        "offset": 0,
        "slot": "121",
        "type": "t_mapping(t_address,t_struct(TokenId)20824_storage)"
      },
      {
        "astId": 5817,
        "contract": "contracts/Connext.sol:Connext",
        "label": "canonicalToAdopted",
        "offset": 0,
        "slot": "122",
        "type": "t_mapping(t_bytes32,t_address)"
      },
      {
        "astId": 5822,
        "contract": "contracts/Connext.sol:Connext",
        "label": "reconciledTransfers",
        "offset": 0,
        "slot": "123",
        "type": "t_mapping(t_bytes32,t_bytes32)"
      },
      {
        "astId": 7317,
        "contract": "contracts/Connext.sol:Connext",
        "label": "__gap",
        "offset": 0,
        "slot": "124",
        "type": "t_array(t_uint256)49_storage"
      }
    ],
    "types": {
      "t_address": {
        "encoding": "inplace",
        "label": "address",
        "numberOfBytes": "20"
      },
      "t_array(t_uint256)49_storage": {
        "base": "t_uint256",
        "encoding": "inplace",
        "label": "uint256[49]",
        "numberOfBytes": "1568"
      },
      "t_bool": {
        "encoding": "inplace",
        "label": "bool",
        "numberOfBytes": "1"
      },
      "t_bytes32": {
        "encoding": "inplace",
        "label": "bytes32",
        "numberOfBytes": "32"
      },
      "t_contract(BridgeRouter)22183": {
        "encoding": "inplace",
        "label": "contract BridgeRouter",
        "numberOfBytes": "20"
      },
      "t_contract(IExecutor)9759": {
        "encoding": "inplace",
        "label": "contract IExecutor",
        "numberOfBytes": "20"
      },
      "t_contract(IStableSwap)10031": {
        "encoding": "inplace",
        "label": "contract IStableSwap",
        "numberOfBytes": "20"
      },
      "t_contract(IWrapped)10042": {
        "encoding": "inplace",
        "label": "contract IWrapped",
        "numberOfBytes": "20"
      },
      "t_contract(TokenRegistry)23489": {
        "encoding": "inplace",
        "label": "contract TokenRegistry",
        "numberOfBytes": "20"
      },
      "t_mapping(t_address,t_bool)": {
        "encoding": "mapping",
        "key": "t_address",
        "label": "mapping(address => bool)",
        "numberOfBytes": "32",
        "value": "t_bool"
      },
      "t_mapping(t_address,t_mapping(t_address,t_uint256))": {
        "encoding": "mapping",
        "key": "t_address",
        "label": "mapping(address => mapping(address => uint256))",
        "numberOfBytes": "32",
        "value": "t_mapping(t_address,t_uint256)"
      },
      "t_mapping(t_address,t_struct(TokenId)20824_storage)": {
        "encoding": "mapping",
        "key": "t_address",
        "label": "mapping(address => struct BridgeMessage.TokenId)",
        "numberOfBytes": "32",
        "value": "t_struct(TokenId)20824_storage"
      },
      "t_mapping(t_address,t_uint256)": {
        "encoding": "mapping",
        "key": "t_address",
        "label": "mapping(address => uint256)",
        "numberOfBytes": "32",
        "value": "t_uint256"
      },
      "t_mapping(t_bytes32,t_address)": {
        "encoding": "mapping",
        "key": "t_bytes32",
        "label": "mapping(bytes32 => address)",
        "numberOfBytes": "32",
        "value": "t_address"
      },
      "t_mapping(t_bytes32,t_bool)": {
        "encoding": "mapping",
        "key": "t_bytes32",
        "label": "mapping(bytes32 => bool)",
        "numberOfBytes": "32",
        "value": "t_bool"
      },
      "t_mapping(t_bytes32,t_bytes32)": {
        "encoding": "mapping",
        "key": "t_bytes32",
        "label": "mapping(bytes32 => bytes32)",
        "numberOfBytes": "32",
        "value": "t_bytes32"
      },
      "t_mapping(t_bytes32,t_contract(IStableSwap)10031)": {
        "encoding": "mapping",
        "key": "t_bytes32",
        "label": "mapping(bytes32 => contract IStableSwap)",
        "numberOfBytes": "32",
        "value": "t_contract(IStableSwap)10031"
      },
      "t_mapping(t_bytes32,t_struct(ExecutedTransfer)9248_storage)": {
        "encoding": "mapping",
        "key": "t_bytes32",
        "label": "mapping(bytes32 => struct IConnext.ExecutedTransfer)",
        "numberOfBytes": "32",
        "value": "t_struct(ExecutedTransfer)9248_storage"
      },
      "t_mapping(t_bytes32,t_struct(GasInfo)9253_storage)": {
        "encoding": "mapping",
        "key": "t_bytes32",
        "label": "mapping(bytes32 => struct IConnext.GasInfo)",
        "numberOfBytes": "32",
        "value": "t_struct(GasInfo)9253_storage"
      },
      "t_struct(ExecutedTransfer)9248_storage": {
        "encoding": "inplace",
        "label": "struct IConnext.ExecutedTransfer",
        "members": [
          {
            "astId": 9245,
            "contract": "contracts/Connext.sol:Connext",
            "label": "router",
            "offset": 0,
            "slot": "0",
            "type": "t_address"
          },
          {
            "astId": 9247,
            "contract": "contracts/Connext.sol:Connext",
            "label": "amount",
            "offset": 0,
            "slot": "1",
            "type": "t_uint256"
          }
        ],
        "numberOfBytes": "64"
      },
      "t_struct(GasInfo)9253_storage": {
        "encoding": "inplace",
        "label": "struct IConnext.GasInfo",
        "members": [
          {
            "astId": 9250,
            "contract": "contracts/Connext.sol:Connext",
            "label": "gasUsed",
            "offset": 0,
            "slot": "0",
            "type": "t_uint256"
          },
          {
            "astId": 9252,
            "contract": "contracts/Connext.sol:Connext",
            "label": "gasPrice",
            "offset": 0,
            "slot": "1",
            "type": "t_uint256"
          }
        ],
        "numberOfBytes": "64"
      },
      "t_struct(TokenId)20824_storage": {
        "encoding": "inplace",
        "label": "struct BridgeMessage.TokenId",
        "members": [
          {
            "astId": 20821,
            "contract": "contracts/Connext.sol:Connext",
            "label": "domain",
            "offset": 0,
            "slot": "0",
            "type": "t_uint32"
          },
          {
            "astId": 20823,
            "contract": "contracts/Connext.sol:Connext",
            "label": "id",
            "offset": 0,
            "slot": "1",
            "type": "t_bytes32"
          }
        ],
        "numberOfBytes": "64"
      },
      "t_uint256": {
        "encoding": "inplace",
        "label": "uint256",
        "numberOfBytes": "32"
      },
      "t_uint32": {
        "encoding": "inplace",
        "label": "uint32",
        "numberOfBytes": "4"
      }
    }
  }
}