{
  "address": "0xe806161F790e2cfA9b22131c35b31A543F9769D5",
  "abi": [
    {
      "inputs": [],
      "name": "PromiseRouter__bumpCallbackFee_messageUnavailable",
      "type": "error"
    },
    {
      "inputs": [],
      "name": "PromiseRouter__bumpCallbackFee_valueIsZero",
      "type": "error"
    },
    {
      "inputs": [],
      "name": "PromiseRouter__initCallbackFee_valueIsZero",
      "type": "error"
    },
    {
      "inputs": [],
      "name": "PromiseRouter__onlyConnext_notConnext",
      "type": "error"
    },
    {
      "inputs": [],
      "name": "PromiseRouter__process_insufficientCallbackFee",
      "type": "error"
    },
    {
      "inputs": [],
      "name": "PromiseRouter__process_invalidTransferId",
      "type": "error"
    },
    {
      "inputs": [],
      "name": "PromiseRouter__process_notApprovedRelayer",
      "type": "error"
    },
    {
      "inputs": [],
      "name": "PromiseRouter__process_notContractCallback",
      "type": "error"
    },
    {
      "inputs": [],
      "name": "PromiseRouter__send_callbackAddressNotContract",
      "type": "error"
    },
    {
      "inputs": [],
      "name": "PromiseRouter__send_returndataEmpty",
      "type": "error"
    },
    {
      "inputs": [],
      "name": "ProposedOwnableUpgradeable__acceptProposedOwner_delayNotElapsed",
      "type": "error"
    },
    {
      "inputs": [],
      "name": "ProposedOwnableUpgradeable__acceptProposedOwner_noOwnershipChange",
      "type": "error"
    },
    {
      "inputs": [],
      "name": "ProposedOwnableUpgradeable__onlyOwner_notOwner",
      "type": "error"
    },
    {
      "inputs": [],
      "name": "ProposedOwnableUpgradeable__onlyProposed_notProposedOwner",
      "type": "error"
    },
    {
      "inputs": [],
      "name": "ProposedOwnableUpgradeable__proposeAssetOwnershipRenunciation_noOwnershipChange",
      "type": "error"
    },
    {
      "inputs": [],
      "name": "ProposedOwnableUpgradeable__proposeNewOwner_invalidProposal",
      "type": "error"
    },
    {
      "inputs": [],
      "name": "ProposedOwnableUpgradeable__proposeNewOwner_noOwnershipChange",
      "type": "error"
    },
    {
      "inputs": [],
      "name": "ProposedOwnableUpgradeable__proposeRouterOwnershipRenunciation_noOwnershipChange",
      "type": "error"
    },
    {
      "inputs": [],
      "name": "ProposedOwnableUpgradeable__renounceAssetOwnership_delayNotElapsed",
      "type": "error"
    },
    {
      "inputs": [],
      "name": "ProposedOwnableUpgradeable__renounceAssetOwnership_noOwnershipChange",
      "type": "error"
    },
    {
      "inputs": [],
      "name": "ProposedOwnableUpgradeable__renounceAssetOwnership_noProposal",
      "type": "error"
    },
    {
      "inputs": [],
      "name": "ProposedOwnableUpgradeable__renounceOwnership_delayNotElapsed",
      "type": "error"
    },
    {
      "inputs": [],
      "name": "ProposedOwnableUpgradeable__renounceOwnership_invalidProposal",
      "type": "error"
    },
    {
      "inputs": [],
      "name": "ProposedOwnableUpgradeable__renounceOwnership_noProposal",
      "type": "error"
    },
    {
      "inputs": [],
      "name": "ProposedOwnableUpgradeable__renounceRouterOwnership_delayNotElapsed",
      "type": "error"
    },
    {
      "inputs": [],
      "name": "ProposedOwnableUpgradeable__renounceRouterOwnership_noOwnershipChange",
      "type": "error"
    },
    {
      "inputs": [],
      "name": "ProposedOwnableUpgradeable__renounceRouterOwnership_noProposal",
      "type": "error"
    },
    {
      "anonymous": false,
      "inputs": [
        {
          "indexed": false,
          "internalType": "bool",
          "name": "renounced",
          "type": "bool"
        }
      ],
      "name": "AssetOwnershipRenounced",
      "type": "event"
    },
    {
      "anonymous": false,
      "inputs": [
        {
          "indexed": false,
          "internalType": "uint256",
          "name": "timestamp",
          "type": "uint256"
        }
      ],
      "name": "AssetOwnershipRenunciationProposed",
      "type": "event"
    },
    {
      "anonymous": false,
      "inputs": [
        {
          "indexed": true,
          "internalType": "bytes32",
          "name": "transferId",
          "type": "bytes32"
        },
        {
          "indexed": false,
          "internalType": "address",
          "name": "relayer",
          "type": "address"
        }
      ],
      "name": "CallbackExecuted",
      "type": "event"
    },
    {
      "anonymous": false,
      "inputs": [
        {
          "indexed": true,
          "internalType": "bytes32",
          "name": "transferId",
          "type": "bytes32"
        },
        {
          "indexed": false,
          "internalType": "uint256",
          "name": "addedFee",
          "type": "uint256"
        },
        {
          "indexed": false,
          "internalType": "uint256",
          "name": "totalFee",
          "type": "uint256"
        },
        {
          "indexed": false,
          "internalType": "address",
          "name": "caller",
          "type": "address"
        }
      ],
      "name": "CallbackFeeAdded",
      "type": "event"
    },
    {
      "anonymous": false,
      "inputs": [
        {
          "indexed": false,
          "internalType": "uint8",
          "name": "version",
          "type": "uint8"
        }
      ],
      "name": "Initialized",
      "type": "event"
    },
    {
      "anonymous": false,
      "inputs": [
        {
          "indexed": true,
          "internalType": "address",
          "name": "proposedOwner",
          "type": "address"
        }
      ],
      "name": "OwnershipProposed",
      "type": "event"
    },
    {
      "anonymous": false,
      "inputs": [
        {
          "indexed": true,
          "internalType": "address",
          "name": "previousOwner",
          "type": "address"
        },
        {
          "indexed": true,
          "internalType": "address",
          "name": "newOwner",
          "type": "address"
        }
      ],
      "name": "OwnershipTransferred",
      "type": "event"
    },
    {
      "anonymous": false,
      "inputs": [
        {
          "indexed": true,
          "internalType": "uint64",
          "name": "originAndNonce",
          "type": "uint64"
        },
        {
          "indexed": true,
          "internalType": "uint32",
          "name": "origin",
          "type": "uint32"
        },
        {
          "indexed": false,
          "internalType": "bytes32",
          "name": "transferId",
          "type": "bytes32"
        },
        {
          "indexed": false,
          "internalType": "address",
          "name": "callbackAddress",
          "type": "address"
        },
        {
          "indexed": false,
          "internalType": "bool",
          "name": "success",
          "type": "bool"
        },
        {
          "indexed": false,
          "internalType": "bytes",
          "name": "data",
          "type": "bytes"
        },
        {
          "indexed": false,
          "internalType": "bytes",
          "name": "message",
          "type": "bytes"
        }
      ],
      "name": "Receive",
      "type": "event"
    },
    {
      "anonymous": false,
      "inputs": [
        {
          "indexed": false,
          "internalType": "bool",
          "name": "renounced",
          "type": "bool"
        }
      ],
      "name": "RouterOwnershipRenounced",
      "type": "event"
    },
    {
      "anonymous": false,
      "inputs": [
        {
          "indexed": false,
          "internalType": "uint256",
          "name": "timestamp",
          "type": "uint256"
        }
      ],
      "name": "RouterOwnershipRenunciationProposed",
      "type": "event"
    },
    {
      "anonymous": false,
      "inputs": [
        {
          "indexed": false,
          "internalType": "uint32",
          "name": "domain",
          "type": "uint32"
        },
        {
          "indexed": false,
          "internalType": "bytes32",
          "name": "remote",
          "type": "bytes32"
        },
        {
          "indexed": false,
          "internalType": "bytes32",
          "name": "transferId",
          "type": "bytes32"
        },
        {
          "indexed": false,
          "internalType": "address",
          "name": "callbackAddress",
          "type": "address"
        },
        {
          "indexed": false,
          "internalType": "bool",
          "name": "success",
          "type": "bool"
        },
        {
          "indexed": false,
          "internalType": "bytes",
          "name": "data",
          "type": "bytes"
        },
        {
          "indexed": false,
          "internalType": "bytes",
          "name": "message",
          "type": "bytes"
        }
      ],
      "name": "Send",
      "type": "event"
    },
    {
      "anonymous": false,
      "inputs": [
        {
          "indexed": true,
          "internalType": "address",
          "name": "connext",
          "type": "address"
        }
      ],
      "name": "SetConnext",
      "type": "event"
    },
    {
      "inputs": [],
      "name": "VERSION",
      "outputs": [
        {
          "internalType": "uint8",
          "name": "",
          "type": "uint8"
        }
      ],
      "stateMutability": "view",
      "type": "function"
    },
    {
      "inputs": [],
      "name": "acceptProposedOwner",
      "outputs": [],
      "stateMutability": "nonpayable",
      "type": "function"
    },
    {
      "inputs": [],
      "name": "assetOwnershipTimestamp",
      "outputs": [
        {
          "internalType": "uint256",
          "name": "",
          "type": "uint256"
        }
      ],
      "stateMutability": "view",
      "type": "function"
    },
    {
      "inputs": [
        {
          "internalType": "bytes32",
          "name": "_transferId",
          "type": "bytes32"
        }
      ],
      "name": "bumpCallbackFee",
      "outputs": [],
      "stateMutability": "payable",
      "type": "function"
    },
    {
      "inputs": [
        {
          "internalType": "bytes32",
          "name": "",
          "type": "bytes32"
        }
      ],
      "name": "callbackFees",
      "outputs": [
        {
          "internalType": "uint256",
          "name": "",
          "type": "uint256"
        }
      ],
      "stateMutability": "view",
      "type": "function"
    },
    {
      "inputs": [],
      "name": "connext",
      "outputs": [
        {
          "internalType": "contract IConnextHandler",
          "name": "",
          "type": "address"
        }
      ],
      "stateMutability": "view",
      "type": "function"
    },
    {
      "inputs": [],
      "name": "delay",
      "outputs": [
        {
          "internalType": "uint256",
          "name": "",
          "type": "uint256"
        }
      ],
      "stateMutability": "view",
      "type": "function"
    },
    {
      "inputs": [
        {
          "internalType": "uint32",
          "name": "_domain",
          "type": "uint32"
        },
        {
          "internalType": "bytes32",
          "name": "_router",
          "type": "bytes32"
        }
      ],
      "name": "enrollRemoteRouter",
      "outputs": [],
      "stateMutability": "nonpayable",
      "type": "function"
    },
    {
      "inputs": [
        {
          "internalType": "uint32",
          "name": "_origin",
          "type": "uint32"
        },
        {
          "internalType": "uint32",
          "name": "_nonce",
          "type": "uint32"
        },
        {
          "internalType": "bytes32",
          "name": "_sender",
          "type": "bytes32"
        },
        {
          "internalType": "bytes",
          "name": "_message",
          "type": "bytes"
        }
      ],
      "name": "handle",
      "outputs": [],
      "stateMutability": "nonpayable",
      "type": "function"
    },
    {
      "inputs": [
        {
          "internalType": "bytes32",
          "name": "_transferId",
          "type": "bytes32"
        }
      ],
      "name": "initCallbackFee",
      "outputs": [],
      "stateMutability": "payable",
      "type": "function"
    },
    {
      "inputs": [
        {
          "internalType": "address",
          "name": "_xAppConnectionManager",
          "type": "address"
        }
      ],
      "name": "initialize",
      "outputs": [],
      "stateMutability": "nonpayable",
      "type": "function"
    },
    {
      "inputs": [],
      "name": "isAssetOwnershipRenounced",
      "outputs": [
        {
          "internalType": "bool",
          "name": "",
          "type": "bool"
        }
      ],
      "stateMutability": "view",
      "type": "function"
    },
    {
      "inputs": [],
      "name": "isRouterOwnershipRenounced",
      "outputs": [
        {
          "internalType": "bool",
          "name": "",
          "type": "bool"
        }
      ],
      "stateMutability": "view",
      "type": "function"
    },
    {
      "inputs": [],
      "name": "owner",
      "outputs": [
        {
          "internalType": "address",
          "name": "",
          "type": "address"
        }
      ],
      "stateMutability": "view",
      "type": "function"
    },
    {
      "inputs": [
        {
          "internalType": "bytes32",
          "name": "transferId",
          "type": "bytes32"
        }
      ],
      "name": "process",
      "outputs": [],
      "stateMutability": "nonpayable",
      "type": "function"
    },
    {
      "inputs": [
        {
          "internalType": "bytes32",
          "name": "",
          "type": "bytes32"
        }
      ],
      "name": "promiseMessages",
      "outputs": [
        {
          "internalType": "bytes",
          "name": "",
          "type": "bytes"
        }
      ],
      "stateMutability": "view",
      "type": "function"
    },
    {
      "inputs": [],
      "name": "proposeAssetOwnershipRenunciation",
      "outputs": [],
      "stateMutability": "nonpayable",
      "type": "function"
    },
    {
      "inputs": [
        {
          "internalType": "address",
          "name": "newlyProposed",
          "type": "address"
        }
      ],
      "name": "proposeNewOwner",
      "outputs": [],
      "stateMutability": "nonpayable",
      "type": "function"
    },
    {
      "inputs": [],
      "name": "proposeRouterOwnershipRenunciation",
      "outputs": [],
      "stateMutability": "nonpayable",
      "type": "function"
    },
    {
      "inputs": [],
      "name": "proposed",
      "outputs": [
        {
          "internalType": "address",
          "name": "",
          "type": "address"
        }
      ],
      "stateMutability": "view",
      "type": "function"
    },
    {
      "inputs": [],
      "name": "proposedTimestamp",
      "outputs": [
        {
          "internalType": "uint256",
          "name": "",
          "type": "uint256"
        }
      ],
      "stateMutability": "view",
      "type": "function"
    },
    {
      "inputs": [
        {
          "internalType": "uint32",
          "name": "",
          "type": "uint32"
        }
      ],
      "name": "remotes",
      "outputs": [
        {
          "internalType": "bytes32",
          "name": "",
          "type": "bytes32"
        }
      ],
      "stateMutability": "view",
      "type": "function"
    },
    {
      "inputs": [],
      "name": "renounceAssetOwnership",
      "outputs": [],
      "stateMutability": "nonpayable",
      "type": "function"
    },
    {
      "inputs": [],
      "name": "renounceOwnership",
      "outputs": [],
      "stateMutability": "nonpayable",
      "type": "function"
    },
    {
      "inputs": [],
      "name": "renounceRouterOwnership",
      "outputs": [],
      "stateMutability": "nonpayable",
      "type": "function"
    },
    {
      "inputs": [],
      "name": "renounced",
      "outputs": [
        {
          "internalType": "bool",
          "name": "",
          "type": "bool"
        }
      ],
      "stateMutability": "view",
      "type": "function"
    },
    {
      "inputs": [],
      "name": "routerOwnershipTimestamp",
      "outputs": [
        {
          "internalType": "uint256",
          "name": "",
          "type": "uint256"
        }
      ],
      "stateMutability": "view",
      "type": "function"
    },
    {
      "inputs": [
        {
          "internalType": "uint32",
          "name": "_domain",
          "type": "uint32"
        },
        {
          "internalType": "bytes32",
          "name": "_transferId",
          "type": "bytes32"
        },
        {
          "internalType": "address",
          "name": "_callbackAddress",
          "type": "address"
        },
        {
          "internalType": "bool",
          "name": "_returnSuccess",
          "type": "bool"
        },
        {
          "internalType": "bytes",
          "name": "_returnData",
          "type": "bytes"
        }
      ],
      "name": "send",
      "outputs": [],
      "stateMutability": "nonpayable",
      "type": "function"
    },
    {
      "inputs": [
        {
          "internalType": "address",
          "name": "_connext",
          "type": "address"
        }
      ],
      "name": "setConnext",
      "outputs": [],
      "stateMutability": "nonpayable",
      "type": "function"
    },
    {
      "inputs": [
        {
          "internalType": "address",
          "name": "_xAppConnectionManager",
          "type": "address"
        }
      ],
      "name": "setXAppConnectionManager",
      "outputs": [],
      "stateMutability": "nonpayable",
      "type": "function"
    },
    {
      "inputs": [],
      "name": "xAppConnectionManager",
      "outputs": [
        {
          "internalType": "contract XAppConnectionManager",
          "name": "",
          "type": "address"
        }
      ],
      "stateMutability": "view",
      "type": "function"
    },
    {
      "stateMutability": "payable",
      "type": "receive"
    }
  ],
  "transactionHash": "0x4c7b78b6bac4fdc1549a815229dcfe8ca1b0cc9b3f676b01fed61560f8e0b5b3",
  "args": [],
  "numDeployments": 1,
  "solcInputHash": "b51a577c630f5e620e9717e65dcbea3a",
  "bytecode": "0x608060405234801561001057600080fd5b50612a16806100206000396000f3fe6080604052600436106101dc5760003560e01c80638741eac511610102578063c5b350df11610095578063e47602f711610064578063e47602f714610536578063e8be0dfc1461054b578063fc89d37714610560578063ffa1ad741461057357600080fd5b8063c5b350df146104bd578063d1851c92146104d2578063d232c220146104f0578063de4b05481461051657600080fd5b8063b49c53a7116100d1578063b49c53a714610453578063c0c17baf14610473578063c1a0495914610488578063c4d66de81461049d57600080fd5b80638741eac5146103da5780638da5cb5b146103ef578063ab2dc3f514610413578063b1f8100d1461043357600080fd5b80634d6f20131161017a5780636a41633a116101495780636a41633a1461036d5780636a42b8f814610382578063715018a61461039857806383bbb806146103ad57600080fd5b80634d6f2013146102ed5780634fa6b6341461030d5780635540f1c01461033a57806365d82b8b1461034d57600080fd5b80633339df96116101b65780633339df96146102615780633855b467146102995780633cf52ffb146102ae57806341bdc8b5146102cd57600080fd5b80632004ef45146101e8578063213d325e146102125780632a952b2d1461023f57600080fd5b366101e357005b600080fd5b3480156101f457600080fd5b506101fd61059a565b60405190151581526020015b60405180910390f35b34801561021e57600080fd5b5061023261022d366004612354565b6105c0565b60405161020991906123ba565b34801561024b57600080fd5b5061025f61025a366004612354565b61065a565b005b34801561026d57600080fd5b50603854610281906001600160a01b031681565b6040516001600160a01b039091168152602001610209565b3480156102a557600080fd5b5061025f610955565b3480156102ba57600080fd5b506002545b604051908152602001610209565b3480156102d957600080fd5b5061025f6102e83660046123e2565b610a06565b3480156102f957600080fd5b5061025f6103083660046123e2565b610a59565b34801561031957600080fd5b506102bf610328366004612354565b60d06020526000908152604090205481565b61025f610348366004612354565b610ad4565b34801561035957600080fd5b5061025f610368366004612421565b610b96565b34801561037957600080fd5b506006546102bf565b34801561038e57600080fd5b5062093a806102bf565b3480156103a457600080fd5b5061025f610d4c565b3480156103b957600080fd5b506102bf6103c83660046124d2565b606a6020526000908152604090205481565b3480156103e657600080fd5b5061025f610e0c565b3480156103fb57600080fd5b506000546201000090046001600160a01b0316610281565b34801561041f57600080fd5b5061025f61042e366004612503565b610e69565b34801561043f57600080fd5b5061025f61044e3660046123e2565b610ff3565b34801561045f57600080fd5b5061025f61046e3660046125df565b6110a8565b34801561047f57600080fd5b5061025f6110f2565b34801561049457600080fd5b506004546102bf565b3480156104a957600080fd5b5061025f6104b83660046123e2565b6111a1565b3480156104c957600080fd5b5061025f611218565b3480156104de57600080fd5b506001546001600160a01b0316610281565b3480156104fc57600080fd5b506101fd6000546201000090046001600160a01b03161590565b34801561052257600080fd5b5060ce54610281906001600160a01b031681565b34801561054257600080fd5b5061025f6112ab565b34801561055757600080fd5b506101fd611308565b61025f61056e366004612354565b61132c565b34801561057f57600080fd5b50610588600081565b60405160ff9091168152602001610209565b600080546201000090046001600160a01b031615806105bb575060035460ff165b905090565b60cf60205260009081526040902080546105d990612609565b80601f016020809104026020016040519081016040528092919081815260200182805461060590612609565b80156106525780601f1061062757610100808354040283529160200191610652565b820191906000526020600020905b81548152906001019060200180831161063557829003601f168201915b505050505081565b6002609c5414156106b25760405162461bcd60e51b815260206004820152601f60248201527f5265656e7472616e637947756172643a207265656e7472616e742063616c6c0060448201526064015b60405180910390fd5b6002609c55600081815260cf6020526040812080546106d090612609565b80601f01602080910402602001604051908101604052809291908181526020018280546106fc90612609565b80156107495780601f1061071e57610100808354040283529160200191610749565b820191906000526020600020905b81548152906001019060200180831161072c57829003601f168201915b5050505050905080516000141561077357604051633099ed6360e01b815260040160405180910390fd5b600061078d6107828383611384565b62ffffff19166113a8565b60ce5460405163867f0d4d60e01b81523360048201529192506001600160a01b03169063867f0d4d90602401602060405180830381865afa1580156107d6573d6000803e3d6000fd5b505050506040513d601f19601f820116820180604052508101906107fa919061263e565b61081757604051630be95c7560e41b815260040160405180910390fd5b600061082862ffffff1983166113c7565b90506001600160a01b0381163b610852576040516374a3bc6160e11b815260040160405180910390fd5b600084815260d0602090815260408083205460cf909252822090916108779190612289565b600085815260d060205260408120556001600160a01b03821663034baf0e866108a562ffffff1987166113f8565b6108b462ffffff198816611425565b6040518463ffffffff1660e01b81526004016108d29392919061265b565b600060405180830381600087803b1580156108ec57600080fd5b505af1158015610900573d6000803e3d6000fd5b50506040513381528792507f25639428fb03bb25e9ccc77977e8f4ed022248bae7422d898c57f328d21ad75d915060200160405180910390a28015610949576109493382611463565b50506001609c55505050565b6000546201000090046001600160a01b0316331461098657604051630cd5bd6f60e21b815260040160405180910390fd5b60055460ff16156109aa57604051634e3d8db760e11b815260040160405180910390fd5b6006546109ca57604051631c2ed13b60e01b815260040160405180910390fd5b62093a80600654426109dc9190612692565b116109fa57604051635aeaa22f60e11b815260040160405180910390fd5b610a046001611581565b565b6000546201000090046001600160a01b03163314610a3757604051630cd5bd6f60e21b815260040160405180910390fd5b603880546001600160a01b0319166001600160a01b0392909216919091179055565b6000546201000090046001600160a01b03163314610a8a57604051630cd5bd6f60e21b815260040160405180910390fd5b60ce80546001600160a01b0319166001600160a01b0383169081179091556040517f8ff00ea0f06ea523b8f4b80a53bb86b4967c9909b4e354b47a83371249ad57f390600090a250565b60ce546001600160a01b03163314610aff57604051632c4b07cf60e01b815260040160405180910390fd5b34610b2057604051600162bcaa2760e01b0319815260040160405180910390fd5b600081815260d0602052604081208054349290610b3e9084906126a9565b9091555050600081815260d06020908152604091829020548251348152918201523381830152905182917fe01346f7c5b12b318c8239d37465281e572012b3f898085a3d2ed142ba2fa15d919081900360600190a250565b60ce546001600160a01b03163314610bc157604051632c4b07cf60e01b815260040160405180910390fd5b80610bdf576040516349f88d8360e01b815260040160405180910390fd5b6001600160a01b0384163b610c07576040516391ca0fb560e01b815260040160405180910390fd5b6000610c12876115ce565b90506000610c238787878787611620565b9050603860009054906101000a90046001600160a01b03166001600160a01b0316639fa92f9d6040518163ffffffff1660e01b8152600401602060405180830381865afa158015610c78573d6000803e3d6000fd5b505050506040513d601f19601f82011682018060405250810190610c9c91906126c1565b6001600160a01b031663fa31de018984846040518463ffffffff1660e01b8152600401610ccb939291906126de565b600060405180830381600087803b158015610ce557600080fd5b505af1158015610cf9573d6000803e3d6000fd5b505050507fa1d84c22c68d469068eaf6be2c49fd6f9120f7e4176ba1dc8027e5e1cdce1f918883898989898988604051610d3a989796959493929190612703565b60405180910390a15050505050505050565b6000546201000090046001600160a01b03163314610d7d57604051630cd5bd6f60e21b815260040160405180910390fd5b600254610d9d57604051632a2d7bdb60e11b815260040160405180910390fd5b62093a8060025442610daf9190612692565b11610dcd5760405163136ae5ad60e01b815260040160405180910390fd5b6001546001600160a01b031615610df7576040516301a8692360e11b815260040160405180910390fd5b600154610a04906001600160a01b0316611668565b6000546201000090046001600160a01b03163314610e3d57604051630cd5bd6f60e21b815260040160405180910390fd5b60055460ff1615610e615760405163382242c360e01b815260040160405180910390fd5b610a046116c8565b610e7233611704565b610ea95760405162461bcd60e51b8152602060048201526008602482015267217265706c69636160c01b60448201526064016106a9565b63ffffffff84166000908152606a6020526040902054849083908114610f025760405162461bcd60e51b815260206004820152600e60248201526d10b932b6b7ba32903937baba32b960911b60448201526064016106a9565b6000610f116107828583611384565b90506000610f2462ffffff198316611773565b90506000610f3762ffffff1984166113c7565b90506000610f4a62ffffff1985166113f8565b90506000610f5d62ffffff198616611425565b600085815260cf602090815260409091208a51929350610f819290918b01906122c3565b5063ffffffff8b8116908b1660208d901b67ffffffff00000000161767ffffffffffffffff167f878c51ec082a65de8c0a9e68ec34c48c86f4d76ae6d693587eb4420611ae0f51868686868e604051610fde95949392919061277e565b60405180910390a35050505050505050505050565b6000546201000090046001600160a01b0316331461102457604051630cd5bd6f60e21b815260040160405180910390fd5b6001546001600160a01b03828116911614801561104957506001600160a01b03811615155b1561106757604051635334dcf560e01b815260040160405180910390fd5b6000546001600160a01b038281166201000090920416141561109c576040516304d9ae9160e21b815260040160405180910390fd5b6110a581611795565b50565b6000546201000090046001600160a01b031633146110d957604051630cd5bd6f60e21b815260040160405180910390fd5b63ffffffff9091166000908152606a6020526040902055565b6000546201000090046001600160a01b0316331461112357604051630cd5bd6f60e21b815260040160405180910390fd5b60035460ff16156111475760405163cd0cbe2b60e01b815260040160405180910390fd5b60045461116757604051636da7f42560e01b815260040160405180910390fd5b62093a80600454426111799190612692565b116111975760405163288a062560e21b815260040160405180910390fd5b610a0460016117e3565b60006111ad6001611829565b905080156111c5576000805461ff0019166101001790555b6111ce826118b1565b8015611214576000805461ff0019169055604051600181527f7f26b83ff96e1f2b6a682f133852f6798a09c465da95921460cefb38474024989060200160405180910390a15b5050565b6001546001600160a01b03163314611243576040516340a61e4d60e01b815260040160405180910390fd5b6001546000546201000090046001600160a01b039081169116141561127b576040516315cb454d60e21b815260040160405180910390fd5b62093a806002544261128d9190612692565b11610df75760405163970af82d60e01b815260040160405180910390fd5b6000546201000090046001600160a01b031633146112dc57604051630cd5bd6f60e21b815260040160405180910390fd5b60035460ff16156113005760405163b1134ca960e01b815260040160405180910390fd5b610a046118f8565b600080546201000090046001600160a01b031615806105bb57505060055460ff1690565b3461134a57604051633f1fd4df60e21b815260040160405180910390fd5b600081815260cf60205260409020805461136390612609565b15159050610b20576040516353b0f6d960e01b815260040160405180910390fd5b81516000906020840161139f64ffffffffff8516828461192e565b95945050505050565b60006113c16113b683611975565b62ffffff19166119a7565b92915050565b60008160016113de815b62ffffff19841690611a02565b506113f062ffffff1985166021611adb565b949350505050565b6000816001611406816113d1565b5061141a62ffffff19851660356001611ae5565b600114949350505050565b6060816001611433816113d1565b50600061143f85611b15565b905061139f61145862ffffff1987166056846000611b2a565b62ffffff1916611ba4565b804710156114b35760405162461bcd60e51b815260206004820152601d60248201527f416464726573733a20696e73756666696369656e742062616c616e636500000060448201526064016106a9565b6000826001600160a01b03168260405160006040518083038185875af1925050503d8060008114611500576040519150601f19603f3d011682016040523d82523d6000602084013e611505565b606091505b505090508061157c5760405162461bcd60e51b815260206004820152603a60248201527f416464726573733a20756e61626c6520746f2073656e642076616c75652c207260448201527f6563697069656e74206d6179206861766520726576657274656400000000000060648201526084016106a9565b505050565b6005805460ff191682151590811790915560006006556040519081527f868d89ead22a5d10f456845ac0014901d9af7203e71cf0892d70d9dc262c2fb9906020015b60405180910390a150565b63ffffffff81166000908152606a60205260409020548061161b5760405162461bcd60e51b81526020600482015260076024820152662172656d6f746560c81b60448201526064016106a9565b919050565b60606001868686611632576000611635565b60015b60405161164e94939291908790899082906020016127ce565b604051602081830303815290604052905095945050505050565b600080546001600160a01b038381166201000081810262010000600160b01b03198516178555600285905560405193049190911692909183917f8be0079c531659141344cd1fd0a4f28419497f9722a3daafe3b4186f6b6457e091a35050565b4260068190556040519081527fa78fdca214e4619ef34a695316d423f5b0d8274bc919d29733bf8f92ec8cbb7a906020015b60405180910390a1565b603854604051635190bc5360e01b81526001600160a01b0383811660048301526000921690635190bc5390602401602060405180830381865afa15801561174f573d6000803e3d6000fd5b505050506040513d601f19601f820116820180604052508101906113c1919061263e565b6000816001611781816113d1565b506113f062ffffff19851660016020611bed565b42600255600180546001600160a01b0319166001600160a01b0383169081179091556040517f6ab4d119f23076e8ad491bc65ce85f017fb0591dce08755ba8591059cc51737a90600090a250565b6003805460ff191682151590811790915560006004556040519081527f243ebbb2f905234bbf0556bb38e1f7c23b09ffd2e441a16e58b844eb2ab7a397906020016115c3565b60008054610100900460ff1615611870578160ff16600114801561184c5750303b155b6118685760405162461bcd60e51b81526004016106a990612824565b506000919050565b60005460ff8084169116106118975760405162461bcd60e51b81526004016106a990612824565b506000805460ff191660ff92909216919091179055600190565b60006118bd6001611829565b905080156118d5576000805461ff0019166101001790555b603880546001600160a01b0319166001600160a01b0384161790556111ce611d46565b4260048190556040519081527fa52048c5f468d21a62e4644ac4db19bcaa1a20f0cf37d163ba49c7217d35feb8906020016116fa565b60008061193b83856126a9565b905060405181111561194b575060005b8061195d5762ffffff1991505061196e565b5050606083811b8317901b811760181b5b9392505050565b600061198082611d75565b1561199d576301000000600160d81b038216600160d81b176113c1565b62ffffff196113c1565b60006119b282611dbd565b6119fe5760405162461bcd60e51b815260206004820152601960248201527f56616c696469747920617373657274696f6e206661696c65640000000000000060448201526064016106a9565b5090565b6000611a0e8383611dfb565b611ad4576000611a2d611a218560d81c90565b64ffffffffff16611e1e565b9150506000611a428464ffffffffff16611e1e565b6040517f5479706520617373657274696f6e206661696c65642e20476f7420307800000060208201526001600160b01b031960b086811b8216603d8401526c05c408af0e0cac6e8cac84060f609b1b604784015283901b16605482015290925060009150605e0160405160208183030381529060405290508060405162461bcd60e51b81526004016106a991906123ba565b5090919050565b600061196e838360145b6000611af2826020612872565b611afd906008612895565b60ff16611b0b858585611bed565b901c949350505050565b60006113c162ffffff19831660366020611ae5565b600080611b408660781c6001600160601b031690565b6001600160601b03169050611b5486611ecc565b84611b5f87846126a9565b611b6991906126a9565b1115611b7c5762ffffff199150506113f0565b611b8685826126a9565b9050611b9a8364ffffffffff16828661192e565b9695505050505050565b6060600080611bbc8460181c6001600160601b031690565b6001600160601b031690506040519150819250611bdc8483602001611f05565b508181016020016040529052919050565b600060ff8216611bff5750600061196e565b611c128460181c6001600160601b031690565b6001600160601b0316611c2860ff8416856126a9565b1115611c8c57611c73611c448560781c6001600160601b031690565b6001600160601b0316611c608660181c6001600160601b031690565b6001600160601b0316858560ff1661205d565b60405162461bcd60e51b81526004016106a991906123ba565b60208260ff161115611d065760405162461bcd60e51b815260206004820152603a60248201527f54797065644d656d566965772f696e646578202d20417474656d70746564207460448201527f6f20696e646578206d6f7265207468616e20333220627974657300000000000060648201526084016106a9565b600882026000611d1f8660781c6001600160601b031690565b6001600160601b031690506000600160ff1b60001984011d91909501511695945050505050565b600054610100900460ff16611d6d5760405162461bcd60e51b81526004016106a9906128be565b610a046120cb565b6000601882901c6001600160601b031681611d8f84611b15565b9050605682118015611da15750600081115b80156113f0575081611db48260566126a9565b14949350505050565b6000611dc98260d81c90565b64ffffffffff1664ffffffffff1415611de457506000919050565b6000611def83611ecc565b60405110199392505050565b60008164ffffffffff16611e0f8460d81c90565b64ffffffffff16149392505050565b600080601f5b600f8160ff161115611e73576000611e3d826008612895565b60ff1685901c9050611e4e816120fb565b61ffff16841793508160ff16601014611e6957601084901b93505b5060001901611e24565b50600f5b60ff8160ff161015611ec6576000611e90826008612895565b60ff1685901c9050611ea1816120fb565b61ffff16831792508160ff16600014611ebc57601083901b92505b5060001901611e77565b50915091565b6000611ee18260181c6001600160601b031690565b611ef48360781c6001600160601b031690565b016001600160601b03169050919050565b600062ffffff198084161415611f6e5760405162461bcd60e51b815260206004820152602860248201527f54797065644d656d566965772f636f7079546f202d204e756c6c20706f696e7460448201526732b9103232b932b360c11b60648201526084016106a9565b611f7783611dbd565b611fd75760405162461bcd60e51b815260206004820152602b60248201527f54797065644d656d566965772f636f7079546f202d20496e76616c696420706f60448201526a34b73a32b9103232b932b360a91b60648201526084016106a9565b6000611fec8460181c6001600160601b031690565b6001600160601b03169050600061200c8560781c6001600160601b031690565b6001600160601b03169050600060405190508481111561202c5760206060fd5b8285848460045afa50611b9a6120428760d81c90565b64ffffffffff60601b606091821b168717901b841760181b90565b6060600061206a86611e1e565b915050600061207886611e1e565b915050600061208686611e1e565b915050600061209486611e1e565b915050838383836040516020016120ae9493929190612909565b604051602081830303815290604052945050505050949350505050565b600054610100900460ff166120f25760405162461bcd60e51b81526004016106a9906128be565b610a0433611668565b600061210d60048360ff16901c61212d565b60ff1661ffff919091161760081b6121248261212d565b60ff1617919050565b600060f08083179060ff821614156121485750603092915050565b8060ff1660f1141561215d5750603192915050565b8060ff1660f214156121725750603292915050565b8060ff1660f314156121875750603392915050565b8060ff1660f4141561219c5750603492915050565b8060ff1660f514156121b15750603592915050565b8060ff1660f614156121c65750603692915050565b8060ff1660f714156121db5750603792915050565b8060ff1660f814156121f05750603892915050565b8060ff1660f914156122055750603992915050565b8060ff1660fa141561221a5750606192915050565b8060ff1660fb141561222f5750606292915050565b8060ff1660fc14156122445750606392915050565b8060ff1660fd14156122595750606492915050565b8060ff1660fe141561226e5750606592915050565b8060ff1660ff14156122835750606692915050565b50919050565b50805461229590612609565b6000825580601f106122a5575050565b601f0160209004906000526020600020908101906110a5919061233f565b8280546122cf90612609565b90600052602060002090601f0160209004810192826122f15760008555612337565b82601f1061230a57805160ff1916838001178555612337565b82800160010185558215612337579182015b8281111561233757825182559160200191906001019061231c565b506119fe9291505b5b808211156119fe5760008155600101612340565b60006020828403121561236657600080fd5b5035919050565b6000815180845260005b8181101561239357602081850181015186830182015201612377565b818111156123a5576000602083870101525b50601f01601f19169290920160200192915050565b60208152600061196e602083018461236d565b6001600160a01b03811681146110a557600080fd5b6000602082840312156123f457600080fd5b813561196e816123cd565b803563ffffffff8116811461161b57600080fd5b80151581146110a557600080fd5b60008060008060008060a0878903121561243a57600080fd5b612443876123ff565b955060208701359450604087013561245a816123cd565b9350606087013561246a81612413565b9250608087013567ffffffffffffffff8082111561248757600080fd5b818901915089601f83011261249b57600080fd5b8135818111156124aa57600080fd5b8a60208285010111156124bc57600080fd5b6020830194508093505050509295509295509295565b6000602082840312156124e457600080fd5b61196e826123ff565b634e487b7160e01b600052604160045260246000fd5b6000806000806080858703121561251957600080fd5b612522856123ff565b9350612530602086016123ff565b925060408501359150606085013567ffffffffffffffff8082111561255457600080fd5b818701915087601f83011261256857600080fd5b81358181111561257a5761257a6124ed565b604051601f8201601f19908116603f011681019083821181831017156125a2576125a26124ed565b816040528281528a60208487010111156125bb57600080fd5b82602086016020830137600060208483010152809550505050505092959194509250565b600080604083850312156125f257600080fd5b6125fb836123ff565b946020939093013593505050565b600181811c9082168061261d57607f821691505b6020821081141561228357634e487b7160e01b600052602260045260246000fd5b60006020828403121561265057600080fd5b815161196e81612413565b838152821515602082015260606040820152600061139f606083018461236d565b634e487b7160e01b600052601160045260246000fd5b6000828210156126a4576126a461267c565b500390565b600082198211156126bc576126bc61267c565b500190565b6000602082840312156126d357600080fd5b815161196e816123cd565b63ffffffff8416815282602082015260606040820152600061139f606083018461236d565b63ffffffff8916815287602082015286604082015260018060a01b0386166060820152841515608082015260e060a08201528260e082015260006101008486828501376000838601820152601f8501601f19168301838103820160c085015261276e8183018661236d565b9c9b505050505050505050505050565b8581526001600160a01b0385166020820152831515604082015260a0606082018190526000906127b09083018561236d565b82810360808401526127c2818561236d565b98975050505050505050565b600060ff60f81b808a60f81b1683528860018401526001600160601b03198860601b166021840152808760f81b166035840152508460368301528284605684013750600091016056019081529695505050505050565b6020808252602e908201527f496e697469616c697a61626c653a20636f6e747261637420697320616c72656160408201526d191e481a5b9a5d1a585b1a5e995960921b606082015260800190565b600060ff821660ff84168082101561288c5761288c61267c565b90039392505050565b600060ff821660ff84168160ff04811182151516156128b6576128b661267c565b029392505050565b6020808252602b908201527f496e697469616c697a61626c653a20636f6e7472616374206973206e6f74206960408201526a6e697469616c697a696e6760a81b606082015260800190565b7f54797065644d656d566965772f696e646578202d204f76657272616e20746865815274040ecd2caee5c40a6d8d2c6ca40d2e640c2e84060f605b1b60208201526001600160d01b031960d086811b821660358401526e040eed2e8d040d8cadccee8d04060f608b1b603b840181905286821b8316604a8501527f2e20417474656d7074656420746f20696e646578206174206f666673657420306050850152600f60fb1b607085015285821b83166071850152607784015283901b166086820152601760f91b608c8201526000608d8201611b9a56fea26469706673582212204f54fef21c94912891b683ed75aa6fe8dc30c9f4cd84ef79a30174f90924fb1764736f6c634300080b0033",
  "devdoc": {
    "events": {
      "CallbackExecuted(bytes32,address)": {
        "params": {
          "relayer": "The address of the relayer which executed the callback",
          "transferId": "The transferId"
        }
      },
      "CallbackFeeAdded(bytes32,uint256,uint256,address)": {
        "params": {
          "addedFee": "The fee amount that added newly",
          "caller": "The transaction caller",
          "totalFee": "The total fee amount, can be bumped by multiple times",
          "transferId": "The transferId"
        }
      },
      "Receive(uint64,uint32,bytes32,address,bool,bytes,bytes)": {
        "params": {
          "callbackAddress": "The address of the callback",
          "data": "The returnData from the execution on the destination domain",
          "message": "The message sent to the destination domain",
          "origin": "Domain where the transfer originated",
          "originAndNonce": "Domain where the transfer originated and the unique identifier for the message from origin to destination, combined in a single field ((origin << 32) & nonce)",
          "success": "The return success from the execution on the destination domain",
          "transferId": "The transferId"
        }
      },
      "Send(uint32,bytes32,bytes32,address,bool,bytes,bytes)": {
        "params": {
          "callbackAddress": "The address of the callback",
          "data": "The returnData from the execution on the destination domain",
          "domain": "The domain where to execute the callback",
          "message": "The message sent to the destination domain",
          "remote": "Remote PromiseRouter address",
          "success": "The return success from the execution on the destination domain",
          "transferId": "The transferId"
        }
      },
      "SetConnext(address)": {
        "params": {
          "connext": "The new connext address"
        }
      }
    },
    "kind": "dev",
    "methods": {
      "bumpCallbackFee(bytes32)": {
        "params": {
          "_transferId": "- The unique identifier of the crosschain transaction"
        }
      },
      "enrollRemoteRouter(uint32,bytes32)": {
        "params": {
          "_domain": "The domain of the remote xApp Router",
          "_router": "The address of the remote xApp Router"
        }
      },
      "handle(uint32,uint32,bytes32,bytes)": {
        "params": {
          "_message": "The message",
          "_nonce": "The unique identifier for the message from origin to destination",
          "_origin": "The origin domain",
          "_sender": "The sender address"
        }
      },
      "initCallbackFee(bytes32)": {
        "params": {
          "_transferId": "- The unique identifier of the crosschain transaction"
        }
      },
      "process(bytes32)": {
        "params": {
          "transferId": "The transferId to process"
        }
      },
      "send(uint32,bytes32,address,bool,bytes)": {
        "params": {
          "_callbackAddress": "A callback address to be called when promise callback is received",
          "_domain": "The domain where to execute callback",
          "_returnData": "The returnData from the execution",
          "_returnSuccess": "The returnSuccess from the execution",
          "_transferId": "The transferId"
        }
      },
      "setConnext(address)": {
        "details": "Connext and relayer fee router store references to each other",
        "params": {
          "_connext": "The address of the Connext implementation"
        }
      },
      "setXAppConnectionManager(address)": {
        "params": {
          "_xAppConnectionManager": "The address of the xAppConnectionManager contract"
        }
      }
    },
    "stateVariables": {
      "callbackFees": {
        "details": "This will track all the callback fees for each transferId. Can add while xcall or bumping callback fee"
      },
      "promiseMessages": {
        "details": "While handling the message, it will parse transferId from incomming message and store the message in the mapping"
      }
    },
    "title": "PromiseRouter",
    "version": 1
  },
  "userdoc": {
    "events": {
      "CallbackExecuted(bytes32,address)": {
        "notice": "Emitted when callback function executed"
      },
      "CallbackFeeAdded(bytes32,uint256,uint256,address)": {
        "notice": "Emitted when transaction fee for callback added"
      },
      "Receive(uint64,uint32,bytes32,address,bool,bytes,bytes)": {
        "notice": "Emitted when a promise callback message has arrived to this domain"
      },
      "Send(uint32,bytes32,bytes32,address,bool,bytes,bytes)": {
        "notice": "Emitted when a promise callback has been sent from this domain"
      },
      "SetConnext(address)": {
        "notice": "Emitted when a new Connext address is set"
      }
    },
    "kind": "user",
    "methods": {
      "acceptProposedOwner()": {
        "notice": "Transfers ownership of the contract to a new account (`newOwner`). Can only be called by the current owner."
      },
      "assetOwnershipTimestamp()": {
        "notice": "Returns the timestamp when asset ownership was last proposed to be renounced"
      },
      "bumpCallbackFee(bytes32)": {
        "notice": "This function will be called on the origin domain to increase the callback fee"
      },
      "callbackFees(bytes32)": {
        "notice": "Mapping of transferId to callback fee"
      },
      "delay()": {
        "notice": "Returns the delay period before a new owner can be accepted."
      },
      "enrollRemoteRouter(uint32,bytes32)": {
        "notice": "Register the address of a Router contract for the same xApp on a remote chain"
      },
      "handle(uint32,uint32,bytes32,bytes)": {
        "notice": "Handles an incoming message"
      },
      "initCallbackFee(bytes32)": {
        "notice": "This function will be called on the origin domain to init the callback fee while xcall"
      },
      "isAssetOwnershipRenounced()": {
        "notice": "Indicates if the ownership of the asset whitelist has been renounced"
      },
      "isRouterOwnershipRenounced()": {
        "notice": "Indicates if the ownership of the router whitelist has been renounced"
      },
      "owner()": {
        "notice": "Returns the address of the current owner."
      },
      "process(bytes32)": {
        "notice": "Process stored callback function"
      },
      "promiseMessages(bytes32)": {
        "notice": "Mapping of transferId to promise callback messages"
      },
      "proposeAssetOwnershipRenunciation()": {
        "notice": "Indicates if the ownership of the asset whitelist has been renounced"
      },
      "proposeNewOwner(address)": {
        "notice": "Sets the timestamp for an owner to be proposed, and sets the newly proposed owner as step 1 in a 2-step process"
      },
      "proposeRouterOwnershipRenunciation()": {
        "notice": "Indicates if the ownership of the router whitelist has been renounced"
      },
      "proposed()": {
        "notice": "Returns the address of the proposed owner."
      },
      "proposedTimestamp()": {
        "notice": "Returns the address of the proposed owner."
      },
      "renounceAssetOwnership()": {
        "notice": "Indicates if the ownership of the asset whitelist has been renounced"
      },
      "renounceOwnership()": {
        "notice": "Renounces ownership of the contract after a delay"
      },
      "renounceRouterOwnership()": {
        "notice": "Indicates if the ownership of the asset whitelist has been renounced"
      },
      "renounced()": {
        "notice": "Indicates if the ownership has been renounced() by checking if current owner is address(0)"
      },
      "routerOwnershipTimestamp()": {
        "notice": "Returns the timestamp when router ownership was last proposed to be renounced"
      },
      "send(uint32,bytes32,address,bool,bytes)": {
        "notice": "Sends a request to execute callback in the originated domain"
      },
      "setConnext(address)": {
        "notice": "Sets the Connext."
      },
      "setXAppConnectionManager(address)": {
        "notice": "Modify the contract the xApp uses to validate Replica contracts"
      }
    },
    "version": 1
  },
  "storageLayout": {
    "storage": [
      {
        "astId": 130,
        "contract": "contracts/nomad-xapps/contracts/promise-router/PromiseRouter.sol:PromiseRouter",
        "label": "_initialized",
        "offset": 0,
        "slot": "0",
        "type": "t_uint8"
      },
      {
        "astId": 133,
        "contract": "contracts/nomad-xapps/contracts/promise-router/PromiseRouter.sol:PromiseRouter",
        "label": "_initializing",
        "offset": 1,
        "slot": "0",
        "type": "t_bool"
      },
      {
        "astId": 6456,
        "contract": "contracts/nomad-xapps/contracts/promise-router/PromiseRouter.sol:PromiseRouter",
        "label": "_owner",
        "offset": 2,
        "slot": "0",
        "type": "t_address"
      },
      {
        "astId": 6458,
        "contract": "contracts/nomad-xapps/contracts/promise-router/PromiseRouter.sol:PromiseRouter",
        "label": "_proposed",
        "offset": 0,
        "slot": "1",
        "type": "t_address"
      },
      {
        "astId": 6460,
        "contract": "contracts/nomad-xapps/contracts/promise-router/PromiseRouter.sol:PromiseRouter",
        "label": "_proposedOwnershipTimestamp",
        "offset": 0,
        "slot": "2",
        "type": "t_uint256"
      },
      {
        "astId": 6462,
        "contract": "contracts/nomad-xapps/contracts/promise-router/PromiseRouter.sol:PromiseRouter",
        "label": "_routerOwnershipRenounced",
        "offset": 0,
        "slot": "3",
        "type": "t_bool"
      },
      {
        "astId": 6464,
        "contract": "contracts/nomad-xapps/contracts/promise-router/PromiseRouter.sol:PromiseRouter",
        "label": "_routerOwnershipTimestamp",
        "offset": 0,
        "slot": "4",
        "type": "t_uint256"
      },
      {
        "astId": 6466,
        "contract": "contracts/nomad-xapps/contracts/promise-router/PromiseRouter.sol:PromiseRouter",
        "label": "_assetOwnershipRenounced",
        "offset": 0,
        "slot": "5",
        "type": "t_bool"
      },
      {
        "astId": 6468,
        "contract": "contracts/nomad-xapps/contracts/promise-router/PromiseRouter.sol:PromiseRouter",
        "label": "_assetOwnershipTimestamp",
        "offset": 0,
        "slot": "6",
        "type": "t_uint256"
      },
      {
        "astId": 6953,
        "contract": "contracts/nomad-xapps/contracts/promise-router/PromiseRouter.sol:PromiseRouter",
        "label": "__gap",
        "offset": 0,
        "slot": "7",
        "type": "t_array(t_uint256)49_storage"
      },
      {
        "astId": 22436,
        "contract": "contracts/nomad-xapps/contracts/promise-router/PromiseRouter.sol:PromiseRouter",
        "label": "xAppConnectionManager",
        "offset": 0,
        "slot": "56",
        "type": "t_contract(XAppConnectionManager)17530"
      },
      {
        "astId": 22440,
        "contract": "contracts/nomad-xapps/contracts/promise-router/PromiseRouter.sol:PromiseRouter",
        "label": "__GAP",
        "offset": 0,
        "slot": "57",
        "type": "t_array(t_uint256)49_storage"
      },
      {
        "astId": 22330,
        "contract": "contracts/nomad-xapps/contracts/promise-router/PromiseRouter.sol:PromiseRouter",
        "label": "remotes",
        "offset": 0,
        "slot": "106",
        "type": "t_mapping(t_uint32,t_bytes32)"
      },
      {
        "astId": 22334,
        "contract": "contracts/nomad-xapps/contracts/promise-router/PromiseRouter.sol:PromiseRouter",
        "label": "__GAP",
        "offset": 0,
        "slot": "107",
        "type": "t_array(t_uint256)49_storage"
      },
      {
        "astId": 390,
        "contract": "contracts/nomad-xapps/contracts/promise-router/PromiseRouter.sol:PromiseRouter",
        "label": "_status",
        "offset": 0,
        "slot": "156",
        "type": "t_uint256"
      },
      {
        "astId": 434,
        "contract": "contracts/nomad-xapps/contracts/promise-router/PromiseRouter.sol:PromiseRouter",
        "label": "__gap",
        "offset": 0,
        "slot": "157",
        "type": "t_array(t_uint256)49_storage"
      },
      {
        "astId": 25918,
        "contract": "contracts/nomad-xapps/contracts/promise-router/PromiseRouter.sol:PromiseRouter",
        "label": "connext",
        "offset": 0,
        "slot": "206",
        "type": "t_contract(IConnextHandler)8130"
      },
      {
        "astId": 25923,
        "contract": "contracts/nomad-xapps/contracts/promise-router/PromiseRouter.sol:PromiseRouter",
        "label": "promiseMessages",
        "offset": 0,
        "slot": "207",
        "type": "t_mapping(t_bytes32,t_bytes_storage)"
      },
      {
        "astId": 25928,
        "contract": "contracts/nomad-xapps/contracts/promise-router/PromiseRouter.sol:PromiseRouter",
        "label": "callbackFees",
        "offset": 0,
        "slot": "208",
        "type": "t_mapping(t_bytes32,t_uint256)"
      },
      {
        "astId": 25932,
        "contract": "contracts/nomad-xapps/contracts/promise-router/PromiseRouter.sol:PromiseRouter",
        "label": "__GAP",
        "offset": 0,
        "slot": "209",
        "type": "t_array(t_uint256)49_storage"
      }
    ],
    "types": {
      "t_address": {
        "encoding": "inplace",
        "label": "address",
        "numberOfBytes": "20"
      },
      "t_array(t_uint256)49_storage": {
        "base": "t_uint256",
        "encoding": "inplace",
        "label": "uint256[49]",
        "numberOfBytes": "1568"
      },
      "t_bool": {
        "encoding": "inplace",
        "label": "bool",
        "numberOfBytes": "1"
      },
      "t_bytes32": {
        "encoding": "inplace",
        "label": "bytes32",
        "numberOfBytes": "32"
      },
      "t_bytes_storage": {
        "encoding": "bytes",
        "label": "bytes",
        "numberOfBytes": "32"
      },
      "t_contract(IConnextHandler)8130": {
        "encoding": "inplace",
        "label": "contract IConnextHandler",
        "numberOfBytes": "20"
      },
      "t_contract(XAppConnectionManager)17530": {
        "encoding": "inplace",
        "label": "contract XAppConnectionManager",
        "numberOfBytes": "20"
      },
      "t_mapping(t_bytes32,t_bytes_storage)": {
        "encoding": "mapping",
        "key": "t_bytes32",
        "label": "mapping(bytes32 => bytes)",
        "numberOfBytes": "32",
        "value": "t_bytes_storage"
      },
      "t_mapping(t_bytes32,t_uint256)": {
        "encoding": "mapping",
        "key": "t_bytes32",
        "label": "mapping(bytes32 => uint256)",
        "numberOfBytes": "32",
        "value": "t_uint256"
      },
      "t_mapping(t_uint32,t_bytes32)": {
        "encoding": "mapping",
        "key": "t_uint32",
        "label": "mapping(uint32 => bytes32)",
        "numberOfBytes": "32",
        "value": "t_bytes32"
      },
      "t_uint256": {
        "encoding": "inplace",
        "label": "uint256",
        "numberOfBytes": "32"
      },
      "t_uint32": {
        "encoding": "inplace",
        "label": "uint32",
        "numberOfBytes": "4"
      },
      "t_uint8": {
        "encoding": "inplace",
        "label": "uint8",
        "numberOfBytes": "1"
      }
    }
  }
}