{
  "address": "0x74F21210EdbfDE5987C8516B27735eF85838a134",
  "abi": [
    {
      "inputs": [],
      "name": "ProposedOwnableUpgradeable__acceptProposedOwner_delayNotElapsed",
      "type": "error"
    },
    {
      "inputs": [],
      "name": "ProposedOwnableUpgradeable__acceptProposedOwner_noOwnershipChange",
      "type": "error"
    },
    {
      "inputs": [],
      "name": "ProposedOwnableUpgradeable__onlyOwner_notOwner",
      "type": "error"
    },
    {
      "inputs": [],
      "name": "ProposedOwnableUpgradeable__onlyProposed_notProposedOwner",
      "type": "error"
    },
    {
      "inputs": [],
      "name": "ProposedOwnableUpgradeable__proposeAssetOwnershipRenunciation_noOwnershipChange",
      "type": "error"
    },
    {
      "inputs": [],
      "name": "ProposedOwnableUpgradeable__proposeNewOwner_invalidProposal",
      "type": "error"
    },
    {
      "inputs": [],
      "name": "ProposedOwnableUpgradeable__proposeNewOwner_noOwnershipChange",
      "type": "error"
    },
    {
      "inputs": [],
      "name": "ProposedOwnableUpgradeable__proposeRouterOwnershipRenunciation_noOwnershipChange",
      "type": "error"
    },
    {
      "inputs": [],
      "name": "ProposedOwnableUpgradeable__renounceAssetOwnership_delayNotElapsed",
      "type": "error"
    },
    {
      "inputs": [],
      "name": "ProposedOwnableUpgradeable__renounceAssetOwnership_noOwnershipChange",
      "type": "error"
    },
    {
      "inputs": [],
      "name": "ProposedOwnableUpgradeable__renounceAssetOwnership_noProposal",
      "type": "error"
    },
    {
      "inputs": [],
      "name": "ProposedOwnableUpgradeable__renounceOwnership_delayNotElapsed",
      "type": "error"
    },
    {
      "inputs": [],
      "name": "ProposedOwnableUpgradeable__renounceOwnership_invalidProposal",
      "type": "error"
    },
    {
      "inputs": [],
      "name": "ProposedOwnableUpgradeable__renounceOwnership_noProposal",
      "type": "error"
    },
    {
      "inputs": [],
      "name": "ProposedOwnableUpgradeable__renounceRouterOwnership_delayNotElapsed",
      "type": "error"
    },
    {
      "inputs": [],
      "name": "ProposedOwnableUpgradeable__renounceRouterOwnership_noOwnershipChange",
      "type": "error"
    },
    {
      "inputs": [],
      "name": "ProposedOwnableUpgradeable__renounceRouterOwnership_noProposal",
      "type": "error"
    },
    {
      "inputs": [],
      "name": "RelayerFeeRouter__onlyConnext_notConnext",
      "type": "error"
    },
    {
      "inputs": [],
      "name": "RelayerFeeRouter__send_claimEmpty",
      "type": "error"
    },
    {
      "inputs": [],
      "name": "RelayerFeeRouter__send_recipientEmpty",
      "type": "error"
    },
    {
      "anonymous": false,
      "inputs": [
        {
          "indexed": false,
          "internalType": "bool",
          "name": "renounced",
          "type": "bool"
        }
      ],
      "name": "AssetOwnershipRenounced",
      "type": "event"
    },
    {
      "anonymous": false,
      "inputs": [
        {
          "indexed": false,
          "internalType": "uint256",
          "name": "timestamp",
          "type": "uint256"
        }
      ],
      "name": "AssetOwnershipRenunciationProposed",
      "type": "event"
    },
    {
      "anonymous": false,
      "inputs": [
        {
          "indexed": false,
          "internalType": "uint8",
          "name": "version",
          "type": "uint8"
        }
      ],
      "name": "Initialized",
      "type": "event"
    },
    {
      "anonymous": false,
      "inputs": [
        {
          "indexed": true,
          "internalType": "address",
          "name": "proposedOwner",
          "type": "address"
        }
      ],
      "name": "OwnershipProposed",
      "type": "event"
    },
    {
      "anonymous": false,
      "inputs": [
        {
          "indexed": true,
          "internalType": "address",
          "name": "previousOwner",
          "type": "address"
        },
        {
          "indexed": true,
          "internalType": "address",
          "name": "newOwner",
          "type": "address"
        }
      ],
      "name": "OwnershipTransferred",
      "type": "event"
    },
    {
      "anonymous": false,
      "inputs": [
        {
          "indexed": true,
          "internalType": "uint64",
          "name": "originAndNonce",
          "type": "uint64"
        },
        {
          "indexed": true,
          "internalType": "uint32",
          "name": "origin",
          "type": "uint32"
        },
        {
          "indexed": true,
          "internalType": "address",
          "name": "recipient",
          "type": "address"
        },
        {
          "indexed": false,
          "internalType": "bytes32[]",
          "name": "transferIds",
          "type": "bytes32[]"
        }
      ],
      "name": "Receive",
      "type": "event"
    },
    {
      "anonymous": false,
      "inputs": [
        {
          "indexed": false,
          "internalType": "bool",
          "name": "renounced",
          "type": "bool"
        }
      ],
      "name": "RouterOwnershipRenounced",
      "type": "event"
    },
    {
      "anonymous": false,
      "inputs": [
        {
          "indexed": false,
          "internalType": "uint256",
          "name": "timestamp",
          "type": "uint256"
        }
      ],
      "name": "RouterOwnershipRenunciationProposed",
      "type": "event"
    },
    {
      "anonymous": false,
      "inputs": [
        {
          "indexed": false,
          "internalType": "uint32",
          "name": "domain",
          "type": "uint32"
        },
        {
          "indexed": false,
          "internalType": "address",
          "name": "recipient",
          "type": "address"
        },
        {
          "indexed": false,
          "internalType": "bytes32[]",
          "name": "transferIds",
          "type": "bytes32[]"
        },
        {
          "indexed": false,
          "internalType": "bytes32",
          "name": "remote",
          "type": "bytes32"
        },
        {
          "indexed": false,
          "internalType": "bytes",
          "name": "message",
          "type": "bytes"
        }
      ],
      "name": "Send",
      "type": "event"
    },
    {
      "anonymous": false,
      "inputs": [
        {
          "indexed": true,
          "internalType": "address",
          "name": "connext",
          "type": "address"
        }
      ],
      "name": "SetConnext",
      "type": "event"
    },
    {
      "inputs": [],
      "name": "VERSION",
      "outputs": [
        {
          "internalType": "uint8",
          "name": "",
          "type": "uint8"
        }
      ],
      "stateMutability": "view",
      "type": "function"
    },
    {
      "inputs": [],
      "name": "acceptProposedOwner",
      "outputs": [],
      "stateMutability": "nonpayable",
      "type": "function"
    },
    {
      "inputs": [],
      "name": "assetOwnershipTimestamp",
      "outputs": [
        {
          "internalType": "uint256",
          "name": "",
          "type": "uint256"
        }
      ],
      "stateMutability": "view",
      "type": "function"
    },
    {
      "inputs": [],
      "name": "connext",
      "outputs": [
        {
          "internalType": "contract IConnextHandler",
          "name": "",
          "type": "address"
        }
      ],
      "stateMutability": "view",
      "type": "function"
    },
    {
      "inputs": [],
      "name": "delay",
      "outputs": [
        {
          "internalType": "uint256",
          "name": "",
          "type": "uint256"
        }
      ],
      "stateMutability": "view",
      "type": "function"
    },
    {
      "inputs": [
        {
          "internalType": "uint32",
          "name": "_domain",
          "type": "uint32"
        },
        {
          "internalType": "bytes32",
          "name": "_router",
          "type": "bytes32"
        }
      ],
      "name": "enrollRemoteRouter",
      "outputs": [],
      "stateMutability": "nonpayable",
      "type": "function"
    },
    {
      "inputs": [
        {
          "internalType": "uint32",
          "name": "_origin",
          "type": "uint32"
        },
        {
          "internalType": "uint32",
          "name": "_nonce",
          "type": "uint32"
        },
        {
          "internalType": "bytes32",
          "name": "_sender",
          "type": "bytes32"
        },
        {
          "internalType": "bytes",
          "name": "_message",
          "type": "bytes"
        }
      ],
      "name": "handle",
      "outputs": [],
      "stateMutability": "nonpayable",
      "type": "function"
    },
    {
      "inputs": [
        {
          "internalType": "address",
          "name": "_xAppConnectionManager",
          "type": "address"
        }
      ],
      "name": "initialize",
      "outputs": [],
      "stateMutability": "nonpayable",
      "type": "function"
    },
    {
      "inputs": [],
      "name": "isAssetOwnershipRenounced",
      "outputs": [
        {
          "internalType": "bool",
          "name": "",
          "type": "bool"
        }
      ],
      "stateMutability": "view",
      "type": "function"
    },
    {
      "inputs": [],
      "name": "isRouterOwnershipRenounced",
      "outputs": [
        {
          "internalType": "bool",
          "name": "",
          "type": "bool"
        }
      ],
      "stateMutability": "view",
      "type": "function"
    },
    {
      "inputs": [],
      "name": "owner",
      "outputs": [
        {
          "internalType": "address",
          "name": "",
          "type": "address"
        }
      ],
      "stateMutability": "view",
      "type": "function"
    },
    {
      "inputs": [],
      "name": "proposeAssetOwnershipRenunciation",
      "outputs": [],
      "stateMutability": "nonpayable",
      "type": "function"
    },
    {
      "inputs": [
        {
          "internalType": "address",
          "name": "newlyProposed",
          "type": "address"
        }
      ],
      "name": "proposeNewOwner",
      "outputs": [],
      "stateMutability": "nonpayable",
      "type": "function"
    },
    {
      "inputs": [],
      "name": "proposeRouterOwnershipRenunciation",
      "outputs": [],
      "stateMutability": "nonpayable",
      "type": "function"
    },
    {
      "inputs": [],
      "name": "proposed",
      "outputs": [
        {
          "internalType": "address",
          "name": "",
          "type": "address"
        }
      ],
      "stateMutability": "view",
      "type": "function"
    },
    {
      "inputs": [],
      "name": "proposedTimestamp",
      "outputs": [
        {
          "internalType": "uint256",
          "name": "",
          "type": "uint256"
        }
      ],
      "stateMutability": "view",
      "type": "function"
    },
    {
      "inputs": [
        {
          "internalType": "uint32",
          "name": "",
          "type": "uint32"
        }
      ],
      "name": "remotes",
      "outputs": [
        {
          "internalType": "bytes32",
          "name": "",
          "type": "bytes32"
        }
      ],
      "stateMutability": "view",
      "type": "function"
    },
    {
      "inputs": [],
      "name": "renounceAssetOwnership",
      "outputs": [],
      "stateMutability": "nonpayable",
      "type": "function"
    },
    {
      "inputs": [],
      "name": "renounceOwnership",
      "outputs": [],
      "stateMutability": "nonpayable",
      "type": "function"
    },
    {
      "inputs": [],
      "name": "renounceRouterOwnership",
      "outputs": [],
      "stateMutability": "nonpayable",
      "type": "function"
    },
    {
      "inputs": [],
      "name": "renounced",
      "outputs": [
        {
          "internalType": "bool",
          "name": "",
          "type": "bool"
        }
      ],
      "stateMutability": "view",
      "type": "function"
    },
    {
      "inputs": [],
      "name": "routerOwnershipTimestamp",
      "outputs": [
        {
          "internalType": "uint256",
          "name": "",
          "type": "uint256"
        }
      ],
      "stateMutability": "view",
      "type": "function"
    },
    {
      "inputs": [
        {
          "internalType": "uint32",
          "name": "_domain",
          "type": "uint32"
        },
        {
          "internalType": "address",
          "name": "_recipient",
          "type": "address"
        },
        {
          "internalType": "bytes32[]",
          "name": "_transferIds",
          "type": "bytes32[]"
        }
      ],
      "name": "send",
      "outputs": [],
      "stateMutability": "nonpayable",
      "type": "function"
    },
    {
      "inputs": [
        {
          "internalType": "address",
          "name": "_connext",
          "type": "address"
        }
      ],
      "name": "setConnext",
      "outputs": [],
      "stateMutability": "nonpayable",
      "type": "function"
    },
    {
      "inputs": [
        {
          "internalType": "address",
          "name": "_xAppConnectionManager",
          "type": "address"
        }
      ],
      "name": "setXAppConnectionManager",
      "outputs": [],
      "stateMutability": "nonpayable",
      "type": "function"
    },
    {
      "inputs": [],
      "name": "xAppConnectionManager",
      "outputs": [
        {
          "internalType": "contract XAppConnectionManager",
          "name": "",
          "type": "address"
        }
      ],
      "stateMutability": "view",
      "type": "function"
    }
  ],
  "transactionHash": "0x199fe15c9731ce63d367b2fc53ecab299fc91cfe7a27dc4865c9af8213dfe4af",
  "args": [],
  "numDeployments": 2,
  "solcInputHash": "fe35d64fe7943db130deb84b44d7581b",
  "bytecode": "0x608060405234801561001057600080fd5b50611f2c806100206000396000f3fe608060405234801561001057600080fd5b506004361061018e5760003560e01c8063b1f8100d116100de578063d1851c9211610097578063de4b054811610071578063de4b054814610316578063e47602f714610329578063e8be0dfc14610331578063ffa1ad741461033957600080fd5b8063d1851c92146102d9578063d232c220146102ea578063d7d680a31461030357600080fd5b8063b1f8100d14610288578063b49c53a71461029b578063c0c17baf146102ae578063c1a04959146102b6578063c4d66de8146102be578063c5b350df146102d157600080fd5b80636a41633a1161014b57806383bbb8061161012557806383bbb806146102365780638741eac5146102565780638da5cb5b1461025e578063ab2dc3f51461027557600080fd5b80636a41633a1461021d5780636a42b8f814610225578063715018a61461022e57600080fd5b80632004ef45146101935780633339df96146101b05780633855b467146101db5780633cf52ffb146101e557806341bdc8b5146101f75780634d6f20131461020a575b600080fd5b61019b610353565b60405190151581526020015b60405180910390f35b6038546101c3906001600160a01b031681565b6040516001600160a01b0390911681526020016101a7565b6101e3610379565b005b6002545b6040519081526020016101a7565b6101e3610205366004611961565b61042a565b6101e3610218366004611961565b61047d565b6006546101e9565b62093a806101e9565b6101e36104f8565b6101e9610244366004611992565b606a6020526000908152604090205481565b6101e36105b8565b6000546201000090046001600160a01b03166101c3565b6101e36102833660046119c3565b610615565b6101e3610296366004611961565b6107d4565b6101e36102a9366004611a9f565b610889565b6101e36108d3565b6004546101e9565b6101e36102cc366004611961565b610982565b6101e36109f9565b6001546001600160a01b03166101c3565b61019b6000546201000090046001600160a01b03161590565b6101e3610311366004611ac9565b610a8c565b609c546101c3906001600160a01b031681565b6101e3610c39565b61019b610c96565b610341600081565b60405160ff90911681526020016101a7565b600080546201000090046001600160a01b03161580610374575060035460ff165b905090565b6000546201000090046001600160a01b031633146103aa57604051630cd5bd6f60e21b815260040160405180910390fd5b60055460ff16156103ce57604051634e3d8db760e11b815260040160405180910390fd5b6006546103ee57604051631c2ed13b60e01b815260040160405180910390fd5b62093a80600654426104009190611b72565b1161041e57604051635aeaa22f60e11b815260040160405180910390fd5b6104286001610cba565b565b6000546201000090046001600160a01b0316331461045b57604051630cd5bd6f60e21b815260040160405180910390fd5b603880546001600160a01b0319166001600160a01b0392909216919091179055565b6000546201000090046001600160a01b031633146104ae57604051630cd5bd6f60e21b815260040160405180910390fd5b609c80546001600160a01b0319166001600160a01b0383169081179091556040517f8ff00ea0f06ea523b8f4b80a53bb86b4967c9909b4e354b47a83371249ad57f390600090a250565b6000546201000090046001600160a01b0316331461052957604051630cd5bd6f60e21b815260040160405180910390fd5b60025461054957604051632a2d7bdb60e11b815260040160405180910390fd5b62093a806002544261055b9190611b72565b116105795760405163136ae5ad60e01b815260040160405180910390fd5b6001546001600160a01b0316156105a3576040516301a8692360e11b815260040160405180910390fd5b600154610428906001600160a01b0316610d07565b6000546201000090046001600160a01b031633146105e957604051630cd5bd6f60e21b815260040160405180910390fd5b60055460ff161561060d5760405163382242c360e01b815260040160405180910390fd5b610428610d67565b61061e33610da3565b61065a5760405162461bcd60e51b8152602060048201526008602482015267217265706c69636160c01b60448201526064015b60405180910390fd5b63ffffffff84166000908152606a60205260409020548490839081146106b35760405162461bcd60e51b815260206004820152600e60248201526d10b932b6b7ba32903937baba32b960911b6044820152606401610651565b60006106cd6106c28583610e18565b62ffffff1916610e3c565b905060006106e062ffffff198316610e55565b905060006106f362ffffff198416610e86565b609c5460405163d7aada8160e01b81529192506001600160a01b03169063d7aada81906107269085908590600401611bc4565b600060405180830381600087803b15801561074057600080fd5b505af1158015610754573d6000803e3d6000fd5b50505050816001600160a01b03168963ffffffff166107888b8b63ffffffff1660209190911b67ffffffff00000000161790565b67ffffffffffffffff167fb29810b17f96b207e4d6c91fd73ec7ab882db28c3a239f2eb6c7c801c43d003b846040516107c19190611be8565b60405180910390a4505050505050505050565b6000546201000090046001600160a01b0316331461080557604051630cd5bd6f60e21b815260040160405180910390fd5b6001546001600160a01b03828116911614801561082a57506001600160a01b03811615155b1561084857604051635334dcf560e01b815260040160405180910390fd5b6000546001600160a01b038281166201000090920416141561087d576040516304d9ae9160e21b815260040160405180910390fd5b61088681610f55565b50565b6000546201000090046001600160a01b031633146108ba57604051630cd5bd6f60e21b815260040160405180910390fd5b63ffffffff9091166000908152606a6020526040902055565b6000546201000090046001600160a01b0316331461090457604051630cd5bd6f60e21b815260040160405180910390fd5b60035460ff16156109285760405163cd0cbe2b60e01b815260040160405180910390fd5b60045461094857604051636da7f42560e01b815260040160405180910390fd5b62093a806004544261095a9190611b72565b116109785760405163288a062560e21b815260040160405180910390fd5b6104286001610fa3565b600061098e6001610fe9565b905080156109a6576000805461ff0019166101001790555b6109af82611076565b80156109f5576000805461ff0019169055604051600181527f7f26b83ff96e1f2b6a682f133852f6798a09c465da95921460cefb38474024989060200160405180910390a15b5050565b6001546001600160a01b03163314610a24576040516340a61e4d60e01b815260040160405180910390fd5b6001546000546201000090046001600160a01b0390811691161415610a5c576040516315cb454d60e21b815260040160405180910390fd5b62093a8060025442610a6e9190611b72565b116105a35760405163970af82d60e01b815260040160405180910390fd5b609c546001600160a01b03163314610ab75760405163014e189b60e41b815260040160405180910390fd5b80610ad557604051635aef8ded60e01b815260040160405180910390fd5b6001600160a01b038316610afc5760405163f7afa16f60e01b815260040160405180910390fd5b6000610b07856110bd565b90506000610b1685858561110a565b9050603860009054906101000a90046001600160a01b03166001600160a01b0316639fa92f9d6040518163ffffffff1660e01b8152600401602060405180830381865afa158015610b6b573d6000803e3d6000fd5b505050506040513d601f19601f82011682018060405250810190610b8f9190611bfb565b6001600160a01b031663fa31de018784846040518463ffffffff1660e01b8152600401610bbe93929190611c65565b600060405180830381600087803b158015610bd857600080fd5b505af1158015610bec573d6000803e3d6000fd5b505050507f90d6f02f078dba10aa43c39bf7a3d3bc9629a280b078d473da5486c6531ec641868686868686604051610c2996959493929190611c8a565b60405180910390a1505050505050565b6000546201000090046001600160a01b03163314610c6a57604051630cd5bd6f60e21b815260040160405180910390fd5b60035460ff1615610c8e5760405163b1134ca960e01b815260040160405180910390fd5b61042861113f565b600080546201000090046001600160a01b0316158061037457505060055460ff1690565b6005805460ff191682151590811790915560006006556040519081527f868d89ead22a5d10f456845ac0014901d9af7203e71cf0892d70d9dc262c2fb9906020015b60405180910390a150565b600080546001600160a01b038381166201000081810262010000600160b01b03198516178555600285905560405193049190911692909183917f8be0079c531659141344cd1fd0a4f28419497f9722a3daafe3b4186f6b6457e091a35050565b4260068190556040519081527fa78fdca214e4619ef34a695316d423f5b0d8274bc919d29733bf8f92ec8cbb7a906020015b60405180910390a1565b603854604051635190bc5360e01b81526001600160a01b0383811660048301526000921690635190bc5390602401602060405180830381865afa158015610dee573d6000803e3d6000fd5b505050506040513d601f19601f82011682018060405250810190610e129190611d07565b92915050565b815160009060208401610e3364ffffffffff85168284611175565b95945050505050565b6000610e12610e4a836111b9565b62ffffff19166111eb565b6000816001610e6c815b62ffffff19841690611246565b50610e7e62ffffff198516600161131f565b949350505050565b6060816001610e9481610e5f565b506000610eaa62ffffff19861660156020611329565b905060008167ffffffffffffffff811115610ec757610ec76119ad565b604051908082528060200260200182016040528015610ef0578160200160208202803683370190505b50905060005b82811015610f4b57610f26610f0c602083611d29565b610f17906035611d48565b62ffffff198916906020611359565b828281518110610f3857610f38611d60565b6020908102919091010152600101610ef6565b5095945050505050565b42600255600180546001600160a01b0319166001600160a01b0383169081179091556040517f6ab4d119f23076e8ad491bc65ce85f017fb0591dce08755ba8591059cc51737a90600090a250565b6003805460ff191682151590811790915560006004556040519081527f243ebbb2f905234bbf0556bb38e1f7c23b09ffd2e441a16e58b844eb2ab7a39790602001610cfc565b60008054610100900460ff1615611030578160ff16600114801561100c5750303b155b6110285760405162461bcd60e51b815260040161065190611d76565b506000919050565b60005460ff8084169116106110575760405162461bcd60e51b815260040161065190611d76565b506000805460ff191660ff92909216919091179055600190565b919050565b60006110826001610fe9565b9050801561109a576000805461ff0019166101001790555b603880546001600160a01b0319166001600160a01b0384161790556109af6114b2565b63ffffffff81166000908152606a6020526040902054806110715760405162461bcd60e51b81526020600482015260076024820152662172656d6f746560c81b6044820152606401610651565b6060600160405161112691908690859087908290602001611dc4565b60405160208183030381529060405290505b9392505050565b4260048190556040519081527fa52048c5f468d21a62e4644ac4db19bcaa1a20f0cf37d163ba49c7217d35feb890602001610d99565b6000806111828385611d48565b9050604051811115611192575060005b806111a45762ffffff19915050611138565b5050606092831b9190911790911b1760181b90565b60006111c4826114e1565b156111e1576301000000600160d81b038216600160d81b17610e12565b62ffffff19610e12565b60006111f68261151c565b6112425760405162461bcd60e51b815260206004820152601960248201527f56616c696469747920617373657274696f6e206661696c6564000000000000006044820152606401610651565b5090565b6000611252838361155a565b6113185760006112716112658560d81c90565b64ffffffffff1661157d565b91505060006112868464ffffffffff1661157d565b6040517f5479706520617373657274696f6e206661696c65642e20476f7420307800000060208201526001600160b01b031960b086811b8216603d8401526c05c408af0e0cac6e8cac84060f609b1b604784015283901b16605482015290925060009150605e0160405160208183030381529060405290508060405162461bcd60e51b81526004016106519190611e2a565b5090919050565b6000611138838360145b6000611336826020611e3d565b611341906008611e60565b60ff1661134f858585611359565b901c949350505050565b600060ff821661136b57506000611138565b61137e8460181c6001600160601b031690565b6001600160601b031661139460ff841685611d48565b11156113f8576113df6113b08560781c6001600160601b031690565b6001600160601b03166113cc8660181c6001600160601b031690565b6001600160601b0316858560ff1661162b565b60405162461bcd60e51b81526004016106519190611e2a565b60208260ff1611156114725760405162461bcd60e51b815260206004820152603a60248201527f54797065644d656d566965772f696e646578202d20417474656d70746564207460448201527f6f20696e646578206d6f7265207468616e2033322062797465730000000000006064820152608401610651565b60088202600061148b8660781c6001600160601b031690565b6001600160601b031690506000600160ff1b60001984011d91909501511695945050505050565b600054610100900460ff166114d95760405162461bcd60e51b815260040161065190611e89565b610428611755565b6000601882901c6001600160601b0316605581108015906111385750602061150a603583611b72565b6115149190611ed4565b159392505050565b60006115288260d81c90565b64ffffffffff1664ffffffffff141561154357506000919050565b600061154e83611785565b60405110199392505050565b60008164ffffffffff1661156e8460d81c90565b64ffffffffff16149392505050565b600080601f5b600f8160ff1611156115d257600061159c826008611e60565b60ff1685901c90506115ad816117be565b61ffff16841793508160ff166010146115c857601084901b93505b5060001901611583565b50600f5b60ff8160ff1610156116255760006115ef826008611e60565b60ff1685901c9050611600816117be565b61ffff16831792508160ff1660001461161b57601083901b92505b50600019016115d6565b50915091565b606060006116388661157d565b91505060006116468661157d565b91505060006116548661157d565b91505060006116628661157d565b604080517f54797065644d656d566965772f696e646578202d204f76657272616e20746865602082015274040ecd2caee5c40a6d8d2c6ca40d2e640c2e84060f605b1b818301526001600160d01b031960d098891b811660558301526e040eed2e8d040d8cadccee8d04060f608b1b605b830181905297891b8116606a8301527f2e20417474656d7074656420746f20696e646578206174206f666673657420306070830152600f60fb1b609083015295881b861660918201526097810196909652951b90921660a68401525050601760f91b60ac8201528151808203608d01815260ad90910190915295945050505050565b600054610100900460ff1661177c5760405162461bcd60e51b815260040161065190611e89565b61042833610d07565b600061179a8260181c6001600160601b031690565b6117ad8360781c6001600160601b031690565b016001600160601b03169050919050565b60006117d060048360ff16901c6117f0565b60ff1661ffff919091161760081b6117e7826117f0565b60ff1617919050565b600060f08083179060ff8216141561180b5750603092915050565b8060ff1660f114156118205750603192915050565b8060ff1660f214156118355750603292915050565b8060ff1660f3141561184a5750603392915050565b8060ff1660f4141561185f5750603492915050565b8060ff1660f514156118745750603592915050565b8060ff1660f614156118895750603692915050565b8060ff1660f7141561189e5750603792915050565b8060ff1660f814156118b35750603892915050565b8060ff1660f914156118c85750603992915050565b8060ff1660fa14156118dd5750606192915050565b8060ff1660fb14156118f25750606292915050565b8060ff1660fc14156119075750606392915050565b8060ff1660fd141561191c5750606492915050565b8060ff1660fe14156119315750606592915050565b8060ff1660ff14156119465750606692915050565b50919050565b6001600160a01b038116811461088657600080fd5b60006020828403121561197357600080fd5b81356111388161194c565b803563ffffffff8116811461107157600080fd5b6000602082840312156119a457600080fd5b6111388261197e565b634e487b7160e01b600052604160045260246000fd5b600080600080608085870312156119d957600080fd5b6119e28561197e565b93506119f06020860161197e565b925060408501359150606085013567ffffffffffffffff80821115611a1457600080fd5b818701915087601f830112611a2857600080fd5b813581811115611a3a57611a3a6119ad565b604051601f8201601f19908116603f01168101908382118183101715611a6257611a626119ad565b816040528281528a6020848701011115611a7b57600080fd5b82602086016020830137600060208483010152809550505050505092959194509250565b60008060408385031215611ab257600080fd5b611abb8361197e565b946020939093013593505050565b60008060008060608587031215611adf57600080fd5b611ae88561197e565b93506020850135611af88161194c565b9250604085013567ffffffffffffffff80821115611b1557600080fd5b818701915087601f830112611b2957600080fd5b813581811115611b3857600080fd5b8860208260051b8501011115611b4d57600080fd5b95989497505060200194505050565b634e487b7160e01b600052601160045260246000fd5b600082821015611b8457611b84611b5c565b500390565b600081518084526020808501945080840160005b83811015611bb957815187529582019590820190600101611b9d565b509495945050505050565b6001600160a01b0383168152604060208201819052600090610e7e90830184611b89565b6020815260006111386020830184611b89565b600060208284031215611c0d57600080fd5b81516111388161194c565b6000815180845260005b81811015611c3e57602081850181015186830182015201611c22565b81811115611c50576000602083870101525b50601f01601f19169290920160200192915050565b63ffffffff84168152826020820152606060408201526000610e336060830184611c18565b63ffffffff871681526001600160a01b038616602082015260a060408201819052810184905260006001600160fb1b03851115611cc657600080fd5b8460051b808760c0850137808301905060c081016000815285606085015260c0848303016080850152611cf98186611c18565b9a9950505050505050505050565b600060208284031215611d1957600080fd5b8151801515811461113857600080fd5b6000816000190483118215151615611d4357611d43611b5c565b500290565b60008219821115611d5b57611d5b611b5c565b500190565b634e487b7160e01b600052603260045260246000fd5b6020808252602e908201527f496e697469616c697a61626c653a20636f6e747261637420697320616c72656160408201526d191e481a5b9a5d1a585b1a5e995960921b606082015260800190565b60f886901b6001600160f81b0319168152606085901b6bffffffffffffffffffffffff191660018201526015810184905260006001600160fb1b03831115611e0b57600080fd5b8260051b80856035850137600092016035019182525095945050505050565b6020815260006111386020830184611c18565b600060ff821660ff841680821015611e5757611e57611b5c565b90039392505050565b600060ff821660ff84168160ff0481118215151615611e8157611e81611b5c565b029392505050565b6020808252602b908201527f496e697469616c697a61626c653a20636f6e7472616374206973206e6f74206960408201526a6e697469616c697a696e6760a81b606082015260800190565b600082611ef157634e487b7160e01b600052601260045260246000fd5b50069056fea2646970667358221220a31c1ee8f1d9cf8d1667c5a7546b4e865953fd0160b089ebd7469070c063ed6e64736f6c634300080b0033",
  "devdoc": {
    "events": {
      "Receive(uint64,uint32,address,bytes32[])": {
        "params": {
          "origin": "Domain where the transfer originated",
          "originAndNonce": "Domain where the transfer originated and the unique identifier for the message from origin to destination, combined in a single field ((origin << 32) & nonce)",
          "recipient": "The address of the relayer",
          "transferIds": "A group of transaction ids to claim for fee bumps"
        }
      },
      "Send(uint32,address,bytes32[],bytes32,bytes)": {
        "params": {
          "domain": "The domain where to claim the fees",
          "message": "The message sent to the destination domain",
          "recipient": "The address of the relayer",
          "remote": "Remote RelayerFeeRouter address",
          "transferIds": "A group of transaction ids to claim for fee bumps"
        }
      },
      "SetConnext(address)": {
        "params": {
          "connext": "The new connext address"
        }
      }
    },
    "kind": "dev",
    "methods": {
      "enrollRemoteRouter(uint32,bytes32)": {
        "params": {
          "_domain": "The domain of the remote xApp Router",
          "_router": "The address of the remote xApp Router"
        }
      },
      "handle(uint32,uint32,bytes32,bytes)": {
        "params": {
          "_message": "The message",
          "_nonce": "The unique identifier for the message from origin to destination",
          "_origin": "The origin domain",
          "_sender": "The sender address"
        }
      },
      "send(uint32,address,bytes32[])": {
        "params": {
          "_domain": "The domain where to claim the fees",
          "_recipient": "The address of the relayer",
          "_transferIds": "A group of transfer ids to claim for fee bumps"
        }
      },
      "setConnext(address)": {
        "details": "Connext and relayer fee router store references to each other",
        "params": {
          "_connext": "The address of the Connext implementation"
        }
      },
      "setXAppConnectionManager(address)": {
        "params": {
          "_xAppConnectionManager": "The address of the xAppConnectionManager contract"
        }
      }
    },
    "title": "RelayerFeeRouter",
    "version": 1
  },
  "userdoc": {
    "events": {
      "Receive(uint64,uint32,address,bytes32[])": {
        "notice": "Emitted when the a fees claim message has arrived to this domain"
      },
      "Send(uint32,address,bytes32[],bytes32,bytes)": {
        "notice": "Emitted when a fees claim has been initialized in this domain"
      },
      "SetConnext(address)": {
        "notice": "Emitted when a new Connext address is set"
      }
    },
    "kind": "user",
    "methods": {
      "acceptProposedOwner()": {
        "notice": "Transfers ownership of the contract to a new account (`newOwner`). Can only be called by the current owner."
      },
      "assetOwnershipTimestamp()": {
        "notice": "Returns the timestamp when asset ownership was last proposed to be renounced"
      },
      "delay()": {
        "notice": "Returns the delay period before a new owner can be accepted."
      },
      "enrollRemoteRouter(uint32,bytes32)": {
        "notice": "Register the address of a Router contract for the same xApp on a remote chain"
      },
      "handle(uint32,uint32,bytes32,bytes)": {
        "notice": "Handles an incoming message"
      },
      "isAssetOwnershipRenounced()": {
        "notice": "Indicates if the ownership of the asset whitelist has been renounced"
      },
      "isRouterOwnershipRenounced()": {
        "notice": "Indicates if the ownership of the router whitelist has been renounced"
      },
      "owner()": {
        "notice": "Returns the address of the current owner."
      },
      "proposeAssetOwnershipRenunciation()": {
        "notice": "Indicates if the ownership of the asset whitelist has been renounced"
      },
      "proposeNewOwner(address)": {
        "notice": "Sets the timestamp for an owner to be proposed, and sets the newly proposed owner as step 1 in a 2-step process"
      },
      "proposeRouterOwnershipRenunciation()": {
        "notice": "Indicates if the ownership of the router whitelist has been renounced"
      },
      "proposed()": {
        "notice": "Returns the address of the proposed owner."
      },
      "proposedTimestamp()": {
        "notice": "Returns the address of the proposed owner."
      },
      "renounceAssetOwnership()": {
        "notice": "Indicates if the ownership of the asset whitelist has been renounced"
      },
      "renounceOwnership()": {
        "notice": "Renounces ownership of the contract after a delay"
      },
      "renounceRouterOwnership()": {
        "notice": "Indicates if the ownership of the asset whitelist has been renounced"
      },
      "renounced()": {
        "notice": "Indicates if the ownership has been renounced() by checking if current owner is address(0)"
      },
      "routerOwnershipTimestamp()": {
        "notice": "Returns the timestamp when router ownership was last proposed to be renounced"
      },
      "send(uint32,address,bytes32[])": {
        "notice": "Sends a request to claim the fees in the originated domain"
      },
      "setConnext(address)": {
        "notice": "Sets the Connext."
      },
      "setXAppConnectionManager(address)": {
        "notice": "Modify the contract the xApp uses to validate Replica contracts"
      }
    },
    "version": 1
  },
  "storageLayout": {
    "storage": [
      {
        "astId": 130,
        "contract": "contracts/nomad-xapps/contracts/relayer-fee-router/RelayerFeeRouter.sol:RelayerFeeRouter",
        "label": "_initialized",
        "offset": 0,
        "slot": "0",
        "type": "t_uint8"
      },
      {
        "astId": 133,
        "contract": "contracts/nomad-xapps/contracts/relayer-fee-router/RelayerFeeRouter.sol:RelayerFeeRouter",
        "label": "_initializing",
        "offset": 1,
        "slot": "0",
        "type": "t_bool"
      },
      {
        "astId": 6456,
        "contract": "contracts/nomad-xapps/contracts/relayer-fee-router/RelayerFeeRouter.sol:RelayerFeeRouter",
        "label": "_owner",
        "offset": 2,
        "slot": "0",
        "type": "t_address"
      },
      {
        "astId": 6458,
        "contract": "contracts/nomad-xapps/contracts/relayer-fee-router/RelayerFeeRouter.sol:RelayerFeeRouter",
        "label": "_proposed",
        "offset": 0,
        "slot": "1",
        "type": "t_address"
      },
      {
        "astId": 6460,
        "contract": "contracts/nomad-xapps/contracts/relayer-fee-router/RelayerFeeRouter.sol:RelayerFeeRouter",
        "label": "_proposedOwnershipTimestamp",
        "offset": 0,
        "slot": "2",
        "type": "t_uint256"
      },
      {
        "astId": 6462,
        "contract": "contracts/nomad-xapps/contracts/relayer-fee-router/RelayerFeeRouter.sol:RelayerFeeRouter",
        "label": "_routerOwnershipRenounced",
        "offset": 0,
        "slot": "3",
        "type": "t_bool"
      },
      {
        "astId": 6464,
        "contract": "contracts/nomad-xapps/contracts/relayer-fee-router/RelayerFeeRouter.sol:RelayerFeeRouter",
        "label": "_routerOwnershipTimestamp",
        "offset": 0,
        "slot": "4",
        "type": "t_uint256"
      },
      {
        "astId": 6466,
        "contract": "contracts/nomad-xapps/contracts/relayer-fee-router/RelayerFeeRouter.sol:RelayerFeeRouter",
        "label": "_assetOwnershipRenounced",
        "offset": 0,
        "slot": "5",
        "type": "t_bool"
      },
      {
        "astId": 6468,
        "contract": "contracts/nomad-xapps/contracts/relayer-fee-router/RelayerFeeRouter.sol:RelayerFeeRouter",
        "label": "_assetOwnershipTimestamp",
        "offset": 0,
        "slot": "6",
        "type": "t_uint256"
      },
      {
        "astId": 6953,
        "contract": "contracts/nomad-xapps/contracts/relayer-fee-router/RelayerFeeRouter.sol:RelayerFeeRouter",
        "label": "__gap",
        "offset": 0,
        "slot": "7",
        "type": "t_array(t_uint256)49_storage"
      },
      {
        "astId": 22237,
        "contract": "contracts/nomad-xapps/contracts/relayer-fee-router/RelayerFeeRouter.sol:RelayerFeeRouter",
        "label": "xAppConnectionManager",
        "offset": 0,
        "slot": "56",
        "type": "t_contract(XAppConnectionManager)17331"
      },
      {
        "astId": 22241,
        "contract": "contracts/nomad-xapps/contracts/relayer-fee-router/RelayerFeeRouter.sol:RelayerFeeRouter",
        "label": "__GAP",
        "offset": 0,
        "slot": "57",
        "type": "t_array(t_uint256)49_storage"
      },
      {
        "astId": 22131,
        "contract": "contracts/nomad-xapps/contracts/relayer-fee-router/RelayerFeeRouter.sol:RelayerFeeRouter",
        "label": "remotes",
        "offset": 0,
        "slot": "106",
        "type": "t_mapping(t_uint32,t_bytes32)"
      },
      {
        "astId": 22135,
        "contract": "contracts/nomad-xapps/contracts/relayer-fee-router/RelayerFeeRouter.sol:RelayerFeeRouter",
        "label": "__GAP",
        "offset": 0,
        "slot": "107",
        "type": "t_array(t_uint256)49_storage"
      },
      {
        "astId": 26167,
        "contract": "contracts/nomad-xapps/contracts/relayer-fee-router/RelayerFeeRouter.sol:RelayerFeeRouter",
        "label": "connext",
        "offset": 0,
        "slot": "156",
        "type": "t_contract(IConnextHandler)8096"
      },
      {
        "astId": 26171,
        "contract": "contracts/nomad-xapps/contracts/relayer-fee-router/RelayerFeeRouter.sol:RelayerFeeRouter",
        "label": "__GAP",
        "offset": 0,
        "slot": "157",
        "type": "t_array(t_uint256)49_storage"
      }
    ],
    "types": {
      "t_address": {
        "encoding": "inplace",
        "label": "address",
        "numberOfBytes": "20"
      },
      "t_array(t_uint256)49_storage": {
        "base": "t_uint256",
        "encoding": "inplace",
        "label": "uint256[49]",
        "numberOfBytes": "1568"
      },
      "t_bool": {
        "encoding": "inplace",
        "label": "bool",
        "numberOfBytes": "1"
      },
      "t_bytes32": {
        "encoding": "inplace",
        "label": "bytes32",
        "numberOfBytes": "32"
      },
      "t_contract(IConnextHandler)8096": {
        "encoding": "inplace",
        "label": "contract IConnextHandler",
        "numberOfBytes": "20"
      },
      "t_contract(XAppConnectionManager)17331": {
        "encoding": "inplace",
        "label": "contract XAppConnectionManager",
        "numberOfBytes": "20"
      },
      "t_mapping(t_uint32,t_bytes32)": {
        "encoding": "mapping",
        "key": "t_uint32",
        "label": "mapping(uint32 => bytes32)",
        "numberOfBytes": "32",
        "value": "t_bytes32"
      },
      "t_uint256": {
        "encoding": "inplace",
        "label": "uint256",
        "numberOfBytes": "32"
      },
      "t_uint32": {
        "encoding": "inplace",
        "label": "uint32",
        "numberOfBytes": "4"
      },
      "t_uint8": {
        "encoding": "inplace",
        "label": "uint8",
        "numberOfBytes": "1"
      }
    }
  }
}