{
  "address": "0xDCF7dbAaB36DCe7ff8c8ce7413238359dad0f7c3",
  "abi": [
    {
      "anonymous": false,
      "inputs": [
        {
          "indexed": true,
          "internalType": "address",
          "name": "previousOwner",
          "type": "address"
        },
        {
          "indexed": true,
          "internalType": "address",
          "name": "newOwner",
          "type": "address"
        }
      ],
      "name": "OwnershipTransferred",
      "type": "event"
    },
    {
      "anonymous": false,
      "inputs": [
        {
          "indexed": true,
          "internalType": "uint64",
          "name": "originAndNonce",
          "type": "uint64"
        },
        {
          "indexed": true,
          "internalType": "address",
          "name": "token",
          "type": "address"
        },
        {
          "indexed": true,
          "internalType": "address",
          "name": "recipient",
          "type": "address"
        },
        {
          "indexed": false,
          "internalType": "address",
          "name": "liquidityProvider",
          "type": "address"
        },
        {
          "indexed": false,
          "internalType": "uint256",
          "name": "amount",
          "type": "uint256"
        }
      ],
      "name": "Receive",
      "type": "event"
    },
    {
      "anonymous": false,
      "inputs": [
        {
          "indexed": true,
          "internalType": "address",
          "name": "token",
          "type": "address"
        },
        {
          "indexed": true,
          "internalType": "address",
          "name": "from",
          "type": "address"
        },
        {
          "indexed": true,
          "internalType": "uint32",
          "name": "toDomain",
          "type": "uint32"
        },
        {
          "indexed": false,
          "internalType": "bytes32",
          "name": "toId",
          "type": "bytes32"
        },
        {
          "indexed": false,
          "internalType": "uint256",
          "name": "amount",
          "type": "uint256"
        },
        {
          "indexed": false,
          "internalType": "bool",
          "name": "fastLiquidityEnabled",
          "type": "bool"
        },
        {
          "indexed": false,
          "internalType": "bytes32",
          "name": "externalHash",
          "type": "bytes32"
        },
        {
          "indexed": false,
          "internalType": "bytes",
          "name": "message",
          "type": "bytes"
        }
      ],
      "name": "Send",
      "type": "event"
    },
    {
      "stateMutability": "payable",
      "type": "fallback"
    },
    {
      "inputs": [],
      "name": "DUST_AMOUNT",
      "outputs": [
        {
          "internalType": "uint256",
          "name": "",
          "type": "uint256"
        }
      ],
      "stateMutability": "view",
      "type": "function"
    },
    {
      "inputs": [],
      "name": "PRE_FILL_FEE_DENOMINATOR",
      "outputs": [
        {
          "internalType": "uint256",
          "name": "",
          "type": "uint256"
        }
      ],
      "stateMutability": "view",
      "type": "function"
    },
    {
      "inputs": [],
      "name": "PRE_FILL_FEE_NUMERATOR",
      "outputs": [
        {
          "internalType": "uint256",
          "name": "",
          "type": "uint256"
        }
      ],
      "stateMutability": "view",
      "type": "function"
    },
    {
      "inputs": [],
      "name": "VERSION",
      "outputs": [
        {
          "internalType": "uint8",
          "name": "",
          "type": "uint8"
        }
      ],
      "stateMutability": "view",
      "type": "function"
    },
    {
      "inputs": [
        {
          "internalType": "uint32",
          "name": "_domain",
          "type": "uint32"
        },
        {
          "internalType": "bytes32",
          "name": "_id",
          "type": "bytes32"
        },
        {
          "internalType": "address",
          "name": "_custom",
          "type": "address"
        }
      ],
      "name": "enrollCustom",
      "outputs": [],
      "stateMutability": "nonpayable",
      "type": "function"
    },
    {
      "inputs": [
        {
          "internalType": "uint32",
          "name": "_domain",
          "type": "uint32"
        },
        {
          "internalType": "bytes32",
          "name": "_router",
          "type": "bytes32"
        }
      ],
      "name": "enrollRemoteRouter",
      "outputs": [],
      "stateMutability": "nonpayable",
      "type": "function"
    },
    {
      "inputs": [
        {
          "internalType": "uint32",
          "name": "_origin",
          "type": "uint32"
        },
        {
          "internalType": "uint32",
          "name": "_nonce",
          "type": "uint32"
        },
        {
          "internalType": "bytes32",
          "name": "_sender",
          "type": "bytes32"
        },
        {
          "internalType": "bytes",
          "name": "_message",
          "type": "bytes"
        }
      ],
      "name": "handle",
      "outputs": [],
      "stateMutability": "nonpayable",
      "type": "function"
    },
    {
      "inputs": [
        {
          "internalType": "address",
          "name": "_tokenRegistry",
          "type": "address"
        },
        {
          "internalType": "address",
          "name": "_xAppConnectionManager",
          "type": "address"
        }
      ],
      "name": "initialize",
      "outputs": [],
      "stateMutability": "nonpayable",
      "type": "function"
    },
    {
      "inputs": [
        {
          "internalType": "bytes32",
          "name": "",
          "type": "bytes32"
        }
      ],
      "name": "liquidityProvider",
      "outputs": [
        {
          "internalType": "address",
          "name": "",
          "type": "address"
        }
      ],
      "stateMutability": "view",
      "type": "function"
    },
    {
      "inputs": [
        {
          "internalType": "address",
          "name": "_oldRepr",
          "type": "address"
        }
      ],
      "name": "migrate",
      "outputs": [],
      "stateMutability": "nonpayable",
      "type": "function"
    },
    {
      "inputs": [],
      "name": "owner",
      "outputs": [
        {
          "internalType": "address",
          "name": "",
          "type": "address"
        }
      ],
      "stateMutability": "view",
      "type": "function"
    },
    {
      "inputs": [
        {
          "internalType": "uint32",
          "name": "",
          "type": "uint32"
        }
      ],
      "name": "remotes",
      "outputs": [
        {
          "internalType": "bytes32",
          "name": "",
          "type": "bytes32"
        }
      ],
      "stateMutability": "view",
      "type": "function"
    },
    {
      "inputs": [],
      "name": "renounceOwnership",
      "outputs": [],
      "stateMutability": "nonpayable",
      "type": "function"
    },
    {
      "inputs": [
        {
          "internalType": "address",
          "name": "_token",
          "type": "address"
        },
        {
          "internalType": "uint256",
          "name": "_amount",
          "type": "uint256"
        },
        {
          "internalType": "uint32",
          "name": "_destination",
          "type": "uint32"
        },
        {
          "internalType": "bytes32",
          "name": "_recipient",
          "type": "bytes32"
        },
        {
          "internalType": "bool",
          "name": "_enableFast",
          "type": "bool"
        },
        {
          "internalType": "bytes32",
          "name": "_externalId",
          "type": "bytes32"
        },
        {
          "internalType": "bytes32",
          "name": "_externalHash",
          "type": "bytes32"
        }
      ],
      "name": "send",
      "outputs": [],
      "stateMutability": "nonpayable",
      "type": "function"
    },
    {
      "inputs": [
        {
          "internalType": "address",
          "name": "_transactionManager",
          "type": "address"
        }
      ],
      "name": "setTransactionManager",
      "outputs": [],
      "stateMutability": "nonpayable",
      "type": "function"
    },
    {
      "inputs": [
        {
          "internalType": "address",
          "name": "_xAppConnectionManager",
          "type": "address"
        }
      ],
      "name": "setXAppConnectionManager",
      "outputs": [],
      "stateMutability": "nonpayable",
      "type": "function"
    },
    {
      "inputs": [],
      "name": "tokenRegistry",
      "outputs": [
        {
          "internalType": "contract ITokenRegistry",
          "name": "",
          "type": "address"
        }
      ],
      "stateMutability": "view",
      "type": "function"
    },
    {
      "inputs": [],
      "name": "transactionManager",
      "outputs": [
        {
          "internalType": "contract ITransactionManager",
          "name": "",
          "type": "address"
        }
      ],
      "stateMutability": "view",
      "type": "function"
    },
    {
      "inputs": [
        {
          "internalType": "address",
          "name": "newOwner",
          "type": "address"
        }
      ],
      "name": "transferOwnership",
      "outputs": [],
      "stateMutability": "nonpayable",
      "type": "function"
    },
    {
      "inputs": [],
      "name": "xAppConnectionManager",
      "outputs": [
        {
          "internalType": "contract XAppConnectionManager",
          "name": "",
          "type": "address"
        }
      ],
      "stateMutability": "view",
      "type": "function"
    },
    {
      "stateMutability": "payable",
      "type": "receive"
    }
  ],
  "args": [],
  "numDeployments": 1,
  "solcInputHash": "0f13a6ad32b921cea237c736edac6d30",
  "bytecode": "0x608060405234801561001057600080fd5b50612e94806100206000396000f3fe6080604052600436106101175760003560e01c806383bbb8061161009a578063adadc0dc11610061578063adadc0dc14610328578063b49c53a714610348578063ce5494bb1461037c578063f2fde38b1461039c578063ffa1ad74146103bc57005b806383bbb806146102825780638da5cb5b146102af57806397f641ab146102cd5780639d23c4c7146102e8578063ab2dc3f51461030857005b8063485cc955116100de578063485cc955146101dd578063546d573d146101fd5780636cdccfb8146102335780636eb3d5fe14610257578063715018a61461026d57005b80630b1fa61c1461012057806328b1aea0146101405780633339df96146101605780633b7164521461019d57806341bdc8b5146101bd57005b3661011e57005b005b34801561012c57600080fd5b5061011e61013b36600461270a565b6103e3565b34801561014c57600080fd5b5061011e61015b366004612739565b610438565b34801561016c57600080fd5b50606554610180906001600160a01b031681565b6040516001600160a01b0390911681526020015b60405180910390f35b3480156101a957600080fd5b5060cb54610180906001600160a01b031681565b3480156101c957600080fd5b5061011e6101d836600461270a565b610599565b3480156101e957600080fd5b5061011e6101f836600461277b565b6105e5565b34801561020957600080fd5b506101806102183660046127b4565b60ca602052600090815260409020546001600160a01b031681565b34801561023f57600080fd5b5061024961270b81565b604051908152602001610194565b34801561026357600080fd5b5061024961271081565b34801561027957600080fd5b5061011e61067d565b34801561028e57600080fd5b5061024961029d3660046127cd565b60976020526000908152604090205481565b3480156102bb57600080fd5b506033546001600160a01b0316610180565b3480156102d957600080fd5b5061024966d529ae9e86000081565b3480156102f457600080fd5b5060c954610180906001600160a01b031681565b34801561031457600080fd5b5061011e610323366004612859565b6106b3565b34801561033457600080fd5b5061011e610343366004612916565b61081a565b34801561035457600080fd5b5061011e610363366004612987565b63ffffffff909116600090815260976020526040902055565b34801561038857600080fd5b5061011e61039736600461270a565b610baf565b3480156103a857600080fd5b5061011e6103b736600461270a565b610da6565b3480156103c857600080fd5b506103d1600081565b60405160ff9091168152602001610194565b6033546001600160a01b031633146104165760405162461bcd60e51b815260040161040d906129b3565b60405180910390fd5b60cb80546001600160a01b0319166001600160a01b0392909216919091179055565b6033546001600160a01b031633146104625760405162461bcd60e51b815260040161040d906129b3565b6040516340c10f1960e01b8152306004820152600160248201526001600160a01b038216906340c10f1990604401600060405180830381600087803b1580156104aa57600080fd5b505af11580156104be573d6000803e3d6000fd5b5050604051632770a7eb60e21b8152306004820152600160248201526001600160a01b0384169250639dc29fac9150604401600060405180830381600087803b15801561050a57600080fd5b505af115801561051e573d6000803e3d6000fd5b505060c9546040516301458d7560e51b815263ffffffff87166004820152602481018690526001600160a01b03858116604483015290911692506328b1aea09150606401600060405180830381600087803b15801561057c57600080fd5b505af1158015610590573d6000803e3d6000fd5b50505050505050565b6033546001600160a01b031633146105c35760405162461bcd60e51b815260040161040d906129b3565b606580546001600160a01b0319166001600160a01b0392909216919091179055565b600054610100900460ff166106005760005460ff1615610604565b303b155b6106205760405162461bcd60e51b815260040161040d906129e8565b600054610100900460ff16158015610642576000805461ffff19166101011790555b60c980546001600160a01b0319166001600160a01b03851617905561066682610e41565b8015610678576000805461ff00191690555b505050565b6033546001600160a01b031633146106a75760405162461bcd60e51b815260040161040d906129b3565b6106b16000610ed7565b565b6106bc33610f29565b6106f35760405162461bcd60e51b8152602060048201526008602482015267217265706c69636160c01b604482015260640161040d565b63ffffffff841660009081526097602052604090205484908390811461074c5760405162461bcd60e51b815260206004820152600e60248201526d10b932b6b7ba32903937baba32b960911b604482015260640161040d565b600061076661075b8583610f9e565b62ffffff1916610fc2565b9050600061077962ffffff198316610fdb565b9050600061078c62ffffff198416611010565b905061079d62ffffff198216611068565b156107b5576107b0898984846000611075565b61080f565b6107c462ffffff1982166112a5565b156107d7576107b0898984846001611075565b60405162461bcd60e51b815260206004820152600d60248201526c10bb30b634b21030b1ba34b7b760991b604482015260640161040d565b505050505050505050565b600086116108525760405162461bcd60e51b815260206004820152600560248201526408585b5b9d60da1b604482015260640161040d565b836108885760405162461bcd60e51b815260206004820152600660248201526502172656369760d41b604482015260640161040d565b6000610893866112b2565b60c95460405163c86415cb60e01b81526001600160a01b03808c1660048301529293508a92600092169063c86415cb90602401602060405180830381865afa1580156108e3573d6000803e3d6000fd5b505050506040513d601f19601f820116820180604052508101906109079190612a36565b15610a60576109216001600160a01b038b1633308c611304565b610a59826001600160a01b03166306fdde036040518163ffffffff1660e01b81526004016000604051808303816000875af1158015610964573d6000803e3d6000fd5b505050506040513d6000823e601f3d908101601f1916820160405261098c9190810190612a7f565b836001600160a01b03166395d89b416040518163ffffffff1660e01b8152600401600060405180830381865afa1580156109ca573d6000803e3d6000fd5b505050506040513d6000823e601f3d908101601f191682016040526109f29190810190612a7f565b846001600160a01b031663313ce5676040518163ffffffff1660e01b8152600401602060405180830381865afa158015610a30573d6000803e3d6000fd5b505050506040513d601f19601f82011682018060405250810190610a549190612aed565b611375565b9050610b25565b604051632770a7eb60e21b8152336004820152602481018a90526001600160a01b03831690639dc29fac90604401600060405180830381600087803b158015610aa857600080fd5b505af1158015610abc573d6000803e3d6000fd5b50505050816001600160a01b0316634815fcb16040518163ffffffff1660e01b8152600401602060405180830381865afa158015610afe573d6000803e3d6000fd5b505050506040513d601f19601f82011682018060405250810190610b229190612b10565b90505b6000610b35888b848a8a8a6113b2565b90506000610b45828d8c88611433565b905063ffffffff8a16336001600160a01b038e167fcb554bfb97d7299e77bf47e9e3e4e26063c84b4f4e06066d4919047b1f57b9628c8f8d8c610b88898b6115a6565b604051610b99959493929190612b55565b60405180910390a4505050505050505050505050565b60c954604051630e71e25160e01b81526001600160a01b0383811660048301526000921690630e71e25190602401602060405180830381865afa158015610bfa573d6000803e3d6000fd5b505050506040513d601f19601f82011682018060405250810190610c1e9190612b82565b9050816001600160a01b0316816001600160a01b03161415610c6f5760405162461bcd60e51b815260206004820152600a60248201526908591a5999995c995b9d60b21b604482015260640161040d565b6040516370a0823160e01b815233600482015282906000906001600160a01b038316906370a0823190602401602060405180830381865afa158015610cb8573d6000803e3d6000fd5b505050506040513d601f19601f82011682018060405250810190610cdc9190612b10565b604051632770a7eb60e21b8152336004820152602481018290529091506001600160a01b03831690639dc29fac90604401600060405180830381600087803b158015610d2757600080fd5b505af1158015610d3b573d6000803e3d6000fd5b50506040516340c10f1960e01b8152336004820152602481018490526001600160a01b03861692506340c10f1991506044015b600060405180830381600087803b158015610d8857600080fd5b505af1158015610d9c573d6000803e3d6000fd5b5050505050505050565b6033546001600160a01b03163314610dd05760405162461bcd60e51b815260040161040d906129b3565b6001600160a01b038116610e355760405162461bcd60e51b815260206004820152602660248201527f4f776e61626c653a206e6577206f776e657220697320746865207a65726f206160448201526564647265737360d01b606482015260840161040d565b610e3e81610ed7565b50565b600054610100900460ff16610e5c5760005460ff1615610e60565b303b155b610e7c5760405162461bcd60e51b815260040161040d906129e8565b600054610100900460ff16158015610e9e576000805461ffff19166101011790555b606580546001600160a01b0319166001600160a01b038416179055610ec1611675565b8015610ed3576000805461ff00191690555b5050565b603380546001600160a01b038381166001600160a01b0319831681179093556040519116919082907f8be0079c531659141344cd1fd0a4f28419497f9722a3daafe3b4186f6b6457e090600090a35050565b606554604051635190bc5360e01b81526001600160a01b0383811660048301526000921690635190bc5390602401602060405180830381865afa158015610f74573d6000803e3d6000fd5b505050506040513d601f19601f82011682018060405250810190610f989190612a36565b92915050565b815160009060208401610fb964ffffffffff851682846116a4565b95945050505050565b6000610f98610fd0836116e8565b62ffffff191661171a565b6000816002610ff2815b62ffffff19841690611775565b5061100862ffffff19851660006024600161184e565b949350505050565b600081600261101e81610fe5565b5060006110396024601887901c6001600160601b0316612bcb565b90506000611046866118bd565b60ff16905061105e62ffffff1987166024848461184e565b9695505050505050565b6000610f988260036118d2565b60c9546000906001600160a01b031663b869d89a61109862ffffff198716611931565b6110a762ffffff198816611953565b6040516001600160e01b031960e085901b16815263ffffffff92909216600483015260248201526044016020604051808303816000875af11580156110f0573d6000803e3d6000fd5b505050506040513d601f19601f820116820180604052508101906111149190612b82565b9050600061112762ffffff198516611975565b9050600061113a62ffffff198616611988565b9050600061114d62ffffff19871661199d565b905084156112185760cb5461116d906001600160a01b03168584846119b2565b60cb546001600160a01b0316639e4394ea61118d62ffffff198916611acd565b86868661119f62ffffff198d16611ae2565b6040516001600160e01b031960e088901b16815260048101959095526001600160a01b0393841660248601529290911660448401526064830152608482015260a401600060405180830381600087803b1580156111fb57600080fd5b505af115801561120f573d6000803e3d6000fd5b5050505061122d565b611224838584846119b2565b61122d83611af7565b6001600160a01b0380841690851667ffffffff0000000060208c901b1663ffffffff8b161760408051600081526020810187905267ffffffffffffffff92909216917f9f9a97db84f39202ca3b409b63f7ccf7d3fd810e176573c7483088b6f181bbbb910160405180910390a4505050505050505050565b6000610f988260046118d2565b63ffffffff8116600090815260976020526040902054806112ff5760405162461bcd60e51b81526020600482015260076024820152662172656d6f746560c81b604482015260640161040d565b919050565b6040516001600160a01b038085166024830152831660448201526064810182905261136f9085906323b872dd60e01b906084015b60408051601f198184030181529190526020810180516001600160e01b03166001600160e01b031990931692909217909152611b4d565b50505050565b600083518484518585604051602001611392959493929190612be2565b6040516020818303038152906040528051906020012090505b9392505050565b600080846113c15760036113c4565b60045b90506114278160048111156113db576113db612b9f565b6114116000848c8c8c8b8b6040516020016113fb96959493929190612c42565b60408051601f1981840301815291905290610f9e565b6301000000600160d81b031660d89190911b1790565b98975050505050505050565b60c9546040516378a9bb4360e11b81526001600160a01b038581166004830152600092839283929091169063f1537686906024016040805180830381865afa158015611483573d6000803e3d6000fd5b505050506040513d601f19601f820116820180604052508101906114a79190612c90565b9150915060006114b78383611c1f565b9050606560009054906101000a90046001600160a01b03166001600160a01b0316639fa92f9d6040518163ffffffff1660e01b8152600401602060405180830381865afa15801561150c573d6000803e3d6000fd5b505050506040513d601f19601f820116820180604052508101906115309190612b82565b6001600160a01b031663fa31de01878761154a858d6115a6565b6040518463ffffffff1660e01b815260040161156893929190612cbe565b600060405180830381600087803b15801561158257600080fd5b505af1158015611596573d6000803e3d6000fd5b50929a9950505050505050505050565b60608260016115b481610fe5565b506115be84611c53565b6115f45760405162461bcd60e51b815260206004820152600760248201526610b0b1ba34b7b760c91b604482015260640161040d565b604080516002808252606082018352600092602083019080368337019050509050858160008151811061162957611629612ce3565b602002602001019062ffffff1916908162ffffff191681525050848160018151811061165757611657612ce3565b62ffffff199092166020928302919091019091015261105e81611c6d565b600054610100900460ff1661169c5760405162461bcd60e51b815260040161040d90612cf9565b6106b1611cc9565b6000806116b18484611cf9565b90506040518111156116c1575060005b806116d35762ffffff199150506113ab565b5050606092831b9190911790911b1760181b90565b60006116f382611d05565b15611710576301000000600160d81b038216600160d91b17610f98565b62ffffff19610f98565b600061172582611d28565b6117715760405162461bcd60e51b815260206004820152601960248201527f56616c696469747920617373657274696f6e206661696c656400000000000000604482015260640161040d565b5090565b60006117818383611d66565b6118475760006117a06117948560d81c90565b64ffffffffff16611d89565b91505060006117b58464ffffffffff16611d89565b6040517f5479706520617373657274696f6e206661696c65642e20476f7420307800000060208201526001600160b01b031960b086811b8216603d8401526c05c408af0e0cac6e8cac84060f609b1b604784015283901b16605482015290925060009150605e0160405160208183030381529060405290508060405162461bcd60e51b815260040161040d9190612d44565b5090919050565b6000806118648660781c6001600160601b031690565b6001600160601b0316905061187886611e49565b61188c856118868489611cf9565b90611cf9565b111561189f5762ffffff19915050611008565b6118a98186611cf9565b905061105e8364ffffffffff1682866116a4565b6000610f9862ffffff19831660246001611e8a565b60008160048111156118e6576118e6612b9f565b60ff166118f284611eba565b60ff161480156113ab575081600481111561190f5761190f612b9f565b61191884611ece565b600481111561192957611929612b9f565b149392505050565b600081600161193f81610fe5565b5061100862ffffff19851660006004611e8a565b600081600161196181610fe5565b5061100862ffffff19851660046020611ee9565b6000610f9862ffffff198316600d612042565b6000610f9862ffffff19831660216020611e8a565b6000610f9862ffffff19831660416020611ee9565b60c95460405163c86415cb60e01b81526001600160a01b0385811660048301529091169063c86415cb90602401602060405180830381865afa1580156119fc573d6000803e3d6000fd5b505050506040513d601f19601f82011682018060405250810190611a209190612a36565b15611a3e57611a396001600160a01b0384168584612050565b61136f565b6040516340c10f1960e01b81526001600160a01b038581166004830152602482018490528416906340c10f1990604401600060405180830381600087803b158015611a8857600080fd5b505af1158015611a9c573d6000803e3d6000fd5b505060405163cc2ab7c760e01b8152600481018490526001600160a01b038616925063cc2ab7c79150602401610d6e565b6000610f9862ffffff19831660616020611ee9565b6000610f9862ffffff19831660816020611ee9565b66d529ae9e860000816001600160a01b031631108015611b1e575066d529ae9e8600004710155b15610e3e576040516001600160a01b0382169060009066d529ae9e8600009082818181858883f1505050505050565b6000611ba2826040518060400160405280602081526020017f5361666545524332303a206c6f772d6c6576656c2063616c6c206661696c6564815250856001600160a01b03166120809092919063ffffffff16565b8051909150156106785780806020019051810190611bc09190612a36565b6106785760405162461bcd60e51b815260206004820152602a60248201527f5361666545524332303a204552433230206f7065726174696f6e20646964206e6044820152691bdd081cdd58d8d9595960b21b606482015260840161040d565b60006113ab60016040516001600160e01b031960e087901b16602082015260248101859052611411906000906044016113fb565b6000611c5e82611068565b80610f985750610f98826112a5565b6040516060906000611c8984611c84846020612d57565b61208f565b90506000611ca08260181c6001600160601b031690565b6001600160601b031690506000611cb683612130565b9184525082016020016040525092915050565b600054610100900460ff16611cf05760405162461bcd60e51b815260040161040d90612cf9565b6106b133610ed7565b60006113ab8284612d57565b6000601882901c6001600160601b0316611d2160a16024612d57565b1492915050565b6000611d348260d81c90565b64ffffffffff1664ffffffffff1415611d4f57506000919050565b6000611d5a83611e49565b60405110199392505050565b60008164ffffffffff16611d7a8460d81c90565b64ffffffffff16149392505050565b600080601f5b600f8160ff161115611de7576000611da8826008612d6f565b60ff1685901c9050611db981612146565b61ffff16841793508160ff16601014611dd457601084901b93505b50611de0600182612d98565b9050611d8f565b50600f5b60ff8160ff161015611e43576000611e04826008612d6f565b60ff1685901c9050611e1581612146565b61ffff16831792508160ff16600014611e3057601083901b92505b50611e3c600182612d98565b9050611deb565b50915091565b6000611e5e8260181c6001600160601b031690565b611e718360781c6001600160601b031690565b611e7b9190612dbb565b6001600160601b031692915050565b6000611e97826020612d98565b611ea2906008612d6f565b60ff16611eb0858585611ee9565b901c949350505050565b6000610f9862ffffff198316826001611e8a565b600060d882901c60ff166004811115610f9857610f98612b9f565b600060ff8216611efb575060006113ab565b611f0e8460181c6001600160601b031690565b6001600160601b0316611f248460ff8516611cf9565b1115611f8857611f6f611f408560781c6001600160601b031690565b6001600160601b0316611f5c8660181c6001600160601b031690565b6001600160601b0316858560ff16612178565b60405162461bcd60e51b815260040161040d9190612d44565b60208260ff1611156120025760405162461bcd60e51b815260206004820152603a60248201527f54797065644d656d566965772f696e646578202d20417474656d70746564207460448201527f6f20696e646578206d6f7265207468616e203332206279746573000000000000606482015260840161040d565b60088202600061201b8660781c6001600160601b031690565b6001600160601b031690506000600160ff1b60001984011d91909501511695945050505050565b60006113ab83836014611e8a565b6040516001600160a01b03831660248201526044810182905261067890849063a9059cbb60e01b90606401611338565b606061100884846000856122a2565b6000604051828111156120a25760206060fd5b506000805b84518110156121205760008582815181106120c4576120c4612ce3565b602002602001015190506120e38184876120de9190612d57565b6123d3565b506120f78160181c6001600160601b031690565b61210a906001600160601b031684612d57565b925050808061211890612de6565b9150506120a7565b50606083901b811760181b611008565b600061213b8261252b565b610f98906020612e01565b600061215860048360ff16901c612560565b60ff1661ffff919091161760081b61216f82612560565b60ff1617919050565b6060600061218586611d89565b915050600061219386611d89565b91505060006121a186611d89565b91505060006121af86611d89565b604080517f54797065644d656d566965772f696e646578202d204f76657272616e20746865602082015274040ecd2caee5c40a6d8d2c6ca40d2e640c2e84060f605b1b818301526001600160d01b031960d098891b811660558301526e040eed2e8d040d8cadccee8d04060f608b1b605b830181905297891b8116606a8301527f2e20417474656d7074656420746f20696e646578206174206f666673657420306070830152600f60fb1b609083015295881b861660918201526097810196909652951b90921660a68401525050601760f91b60ac8201528151808203608d01815260ad90910190915295945050505050565b6060824710156123035760405162461bcd60e51b815260206004820152602660248201527f416464726573733a20696e73756666696369656e742062616c616e636520666f6044820152651c8818d85b1b60d21b606482015260840161040d565b6001600160a01b0385163b61235a5760405162461bcd60e51b815260206004820152601d60248201527f416464726573733a2063616c6c20746f206e6f6e2d636f6e7472616374000000604482015260640161040d565b600080866001600160a01b031685876040516123769190612e20565b60006040518083038185875af1925050503d80600081146123b3576040519150601f19603f3d011682016040523d82523d6000602084013e6123b8565b606091505b50915091506123c88282866126bc565b979650505050505050565b600062ffffff19808416141561243c5760405162461bcd60e51b815260206004820152602860248201527f54797065644d656d566965772f636f7079546f202d204e756c6c20706f696e7460448201526732b9103232b932b360c11b606482015260840161040d565b61244583611d28565b6124a55760405162461bcd60e51b815260206004820152602b60248201527f54797065644d656d566965772f636f7079546f202d20496e76616c696420706f60448201526a34b73a32b9103232b932b360a91b606482015260840161040d565b60006124ba8460181c6001600160601b031690565b6001600160601b0316905060006124da8560781c6001600160601b031690565b6001600160601b0316905060006040519050848111156124fa5760206060fd5b8285848460045afa5061105e6125108760d81c90565b64ffffffffff60601b606091821b168717901b841760181b90565b6000602061255660206125478560181c6001600160601b031690565b6001600160601b031690611cf9565b610f989190612e3c565b600060f08083179060ff8216141561257b5750603092915050565b8060ff1660f114156125905750603192915050565b8060ff1660f214156125a55750603292915050565b8060ff1660f314156125ba5750603392915050565b8060ff1660f414156125cf5750603492915050565b8060ff1660f514156125e45750603592915050565b8060ff1660f614156125f95750603692915050565b8060ff1660f7141561260e5750603792915050565b8060ff1660f814156126235750603892915050565b8060ff1660f914156126385750603992915050565b8060ff1660fa141561264d5750606192915050565b8060ff1660fb14156126625750606292915050565b8060ff1660fc14156126775750606392915050565b8060ff1660fd141561268c5750606492915050565b8060ff1660fe14156126a15750606592915050565b8060ff1660ff14156126b65750606692915050565b50919050565b606083156126cb5750816113ab565b8251156126db5782518084602001fd5b8160405162461bcd60e51b815260040161040d9190612d44565b6001600160a01b0381168114610e3e57600080fd5b60006020828403121561271c57600080fd5b81356113ab816126f5565b63ffffffff81168114610e3e57600080fd5b60008060006060848603121561274e57600080fd5b833561275981612727565b9250602084013591506040840135612770816126f5565b809150509250925092565b6000806040838503121561278e57600080fd5b8235612799816126f5565b915060208301356127a9816126f5565b809150509250929050565b6000602082840312156127c657600080fd5b5035919050565b6000602082840312156127df57600080fd5b81356113ab81612727565b634e487b7160e01b600052604160045260246000fd5b604051601f8201601f1916810167ffffffffffffffff81118282101715612829576128296127ea565b604052919050565b600067ffffffffffffffff82111561284b5761284b6127ea565b50601f01601f191660200190565b6000806000806080858703121561286f57600080fd5b843561287a81612727565b9350602085013561288a81612727565b925060408501359150606085013567ffffffffffffffff8111156128ad57600080fd5b8501601f810187136128be57600080fd5b80356128d16128cc82612831565b612800565b8181528860208385010111156128e657600080fd5b8160208401602083013760006020838301015280935050505092959194509250565b8015158114610e3e57600080fd5b600080600080600080600060e0888a03121561293157600080fd5b873561293c816126f5565b965060208801359550604088013561295381612727565b945060608801359350608088013561296a81612908565b9699959850939692959460a0840135945060c09093013592915050565b6000806040838503121561299a57600080fd5b82356129a581612727565b946020939093013593505050565b6020808252818101527f4f776e61626c653a2063616c6c6572206973206e6f7420746865206f776e6572604082015260600190565b6020808252602e908201527f496e697469616c697a61626c653a20636f6e747261637420697320616c72656160408201526d191e481a5b9a5d1a585b1a5e995960921b606082015260800190565b600060208284031215612a4857600080fd5b81516113ab81612908565b60005b83811015612a6e578181015183820152602001612a56565b8381111561136f5750506000910152565b600060208284031215612a9157600080fd5b815167ffffffffffffffff811115612aa857600080fd5b8201601f81018413612ab957600080fd5b8051612ac76128cc82612831565b818152856020838501011115612adc57600080fd5b610fb9826020830160208601612a53565b600060208284031215612aff57600080fd5b815160ff811681146113ab57600080fd5b600060208284031215612b2257600080fd5b5051919050565b60008151808452612b41816020860160208601612a53565b601f01601f19169290920160200192915050565b858152846020820152831515604082015282606082015260a0608082015260006123c860a0830184612b29565b600060208284031215612b9457600080fd5b81516113ab816126f5565b634e487b7160e01b600052602160045260246000fd5b634e487b7160e01b600052601160045260246000fd5b600082821015612bdd57612bdd612bb5565b500390565b85815260008551612bfa816020850160208a01612a53565b80830190508560208201528451612c18816040840160208901612a53565b60f89490941b6001600160f81b031916604091909401908101939093525050604101949350505050565b600060058810612c6257634e487b7160e01b600052602160045260246000fd5b5060f89690961b86526001860194909452602185019290925260418401526061830152608182015260a10190565b60008060408385031215612ca357600080fd5b8251612cae81612727565b6020939093015192949293505050565b63ffffffff84168152826020820152606060408201526000610fb96060830184612b29565b634e487b7160e01b600052603260045260246000fd5b6020808252602b908201527f496e697469616c697a61626c653a20636f6e7472616374206973206e6f74206960408201526a6e697469616c697a696e6760a81b606082015260800190565b6020815260006113ab6020830184612b29565b60008219821115612d6a57612d6a612bb5565b500190565b600060ff821660ff84168160ff0481118215151615612d9057612d90612bb5565b029392505050565b600060ff821660ff841680821015612db257612db2612bb5565b90039392505050565b60006001600160601b03808316818516808303821115612ddd57612ddd612bb5565b01949350505050565b6000600019821415612dfa57612dfa612bb5565b5060010190565b6000816000190483118215151615612e1b57612e1b612bb5565b500290565b60008251612e32818460208701612a53565b9190910192915050565b600082612e5957634e487b7160e01b600052601260045260246000fd5b50049056fea2646970667358221220f2c411ffca70953eede0c639d39749ca617278a694043350cd71e66281f3362664736f6c634300080b0033",
  "devdoc": {
    "events": {
      "Receive(uint64,address,address,address,uint256)": {
        "params": {
          "amount": "The amount of tokens being received",
          "liquidityProvider": "The account providing liquidity",
          "originAndNonce": "Domain where the transfer originated and the unique identifier for the message from origin to destination, combined in a single field ((origin << 32) & nonce)",
          "recipient": "The address receiving the tokens; the original recipient of the transfer",
          "token": "The address of the local token contract being received"
        }
      },
      "Send(address,address,uint32,bytes32,uint256,bool,bytes32,bytes)": {
        "params": {
          "amount": "the amount of tokens sent",
          "fastLiquidityEnabled": "True if fast liquidity is enabled, False otherwise",
          "from": "the address sending tokens",
          "toDomain": "the domain of the chain the tokens are being sent to",
          "toId": "the bytes32 address of the recipient of the tokens",
          "token": "the address of the token contract"
        }
      }
    },
    "kind": "dev",
    "methods": {
      "enrollCustom(uint32,bytes32,address)": {
        "params": {
          "_custom": "the address of the custom implementation to use.",
          "_domain": "the domain of the canonical Token to enroll",
          "_id": "the bytes32 ID of the canonical of the Token to enroll"
        }
      },
      "enrollRemoteRouter(uint32,bytes32)": {
        "params": {
          "_domain": "The domain of the remote xApp Router",
          "_router": "The address of the remote xApp Router"
        }
      },
      "handle(uint32,uint32,bytes32,bytes)": {
        "params": {
          "_message": "The message",
          "_nonce": "The unique identifier for the message from origin to destination",
          "_origin": "The origin domain",
          "_sender": "The sender address"
        }
      },
      "migrate(address)": {
        "details": "This is explicitly opt-in to allow dapps to decide when and how to upgrade to the new representation.",
        "params": {
          "_oldRepr": "The address of the old token to migrate"
        }
      },
      "owner()": {
        "details": "Returns the address of the current owner."
      },
      "renounceOwnership()": {
        "details": "Leaves the contract without owner. It will not be possible to call `onlyOwner` functions anymore. Can only be called by the current owner. NOTE: Renouncing ownership will leave the contract without an owner, thereby removing any functionality that is only available to the owner."
      },
      "send(address,uint256,uint32,bytes32,bool,bytes32,bytes32)": {
        "params": {
          "_amount": "The token amount",
          "_destination": "The destination domain",
          "_enableFast": "True to enable fast liquidity",
          "_recipient": "The recipient address",
          "_token": "The token address"
        }
      },
      "setTransactionManager(address)": {
        "details": "Transacion manager and bridge router store references to each other",
        "params": {
          "_transactionManager": "the address of the transaction manager implementation"
        }
      },
      "setXAppConnectionManager(address)": {
        "params": {
          "_xAppConnectionManager": "The address of the xAppConnectionManager contract"
        }
      },
      "transferOwnership(address)": {
        "details": "Transfers ownership of the contract to a new account (`newOwner`). Can only be called by the current owner."
      }
    },
    "title": "BridgeRouter",
    "version": 1
  },
  "userdoc": {
    "events": {
      "Receive(uint64,address,address,address,uint256)": {
        "notice": "emitted when tokens are dispensed to an account on this domain emitted both when fast liquidity is provided, and when the transfer ultimately settles"
      },
      "Send(address,address,uint32,bytes32,uint256,bool,bytes32,bytes)": {
        "notice": "emitted when tokens are sent from this domain to another domain"
      }
    },
    "kind": "user",
    "methods": {
      "enrollCustom(uint32,bytes32,address)": {
        "notice": "Enroll a custom token. This allows projects to work with governance to specify a custom representation."
      },
      "enrollRemoteRouter(uint32,bytes32)": {
        "notice": "Register the address of a Router contract for the same xApp on a remote chain"
      },
      "handle(uint32,uint32,bytes32,bytes)": {
        "notice": "Handles an incoming message"
      },
      "migrate(address)": {
        "notice": "Migrate all tokens in a previous representation to the latest custom representation. This works by looking up local mappings and then burning old tokens and minting new tokens."
      },
      "send(address,uint256,uint32,bytes32,bool,bytes32,bytes32)": {
        "notice": "Send tokens to a recipient on a remote chain"
      },
      "setTransactionManager(address)": {
        "notice": "Sets the transaction manager."
      },
      "setXAppConnectionManager(address)": {
        "notice": "Modify the contract the xApp uses to validate Replica contracts"
      }
    },
    "version": 1
  },
  "storageLayout": {
    "storage": [
      {
        "astId": 130,
        "contract": "contracts/nomad-xapps/contracts/bridge/BridgeRouter.sol:BridgeRouter",
        "label": "_initialized",
        "offset": 0,
        "slot": "0",
        "type": "t_bool"
      },
      {
        "astId": 133,
        "contract": "contracts/nomad-xapps/contracts/bridge/BridgeRouter.sol:BridgeRouter",
        "label": "_initializing",
        "offset": 1,
        "slot": "0",
        "type": "t_bool"
      },
      {
        "astId": 1655,
        "contract": "contracts/nomad-xapps/contracts/bridge/BridgeRouter.sol:BridgeRouter",
        "label": "__gap",
        "offset": 0,
        "slot": "1",
        "type": "t_array(t_uint256)50_storage"
      },
      {
        "astId": 10,
        "contract": "contracts/nomad-xapps/contracts/bridge/BridgeRouter.sol:BridgeRouter",
        "label": "_owner",
        "offset": 0,
        "slot": "51",
        "type": "t_address"
      },
      {
        "astId": 122,
        "contract": "contracts/nomad-xapps/contracts/bridge/BridgeRouter.sol:BridgeRouter",
        "label": "__gap",
        "offset": 0,
        "slot": "52",
        "type": "t_array(t_uint256)49_storage"
      },
      {
        "astId": 20210,
        "contract": "contracts/nomad-xapps/contracts/bridge/BridgeRouter.sol:BridgeRouter",
        "label": "xAppConnectionManager",
        "offset": 0,
        "slot": "101",
        "type": "t_contract(XAppConnectionManager)15304"
      },
      {
        "astId": 20214,
        "contract": "contracts/nomad-xapps/contracts/bridge/BridgeRouter.sol:BridgeRouter",
        "label": "__GAP",
        "offset": 0,
        "slot": "102",
        "type": "t_array(t_uint256)49_storage"
      },
      {
        "astId": 20106,
        "contract": "contracts/nomad-xapps/contracts/bridge/BridgeRouter.sol:BridgeRouter",
        "label": "remotes",
        "offset": 0,
        "slot": "151",
        "type": "t_mapping(t_uint32,t_bytes32)"
      },
      {
        "astId": 20110,
        "contract": "contracts/nomad-xapps/contracts/bridge/BridgeRouter.sol:BridgeRouter",
        "label": "__GAP",
        "offset": 0,
        "slot": "152",
        "type": "t_array(t_uint256)49_storage"
      },
      {
        "astId": 21038,
        "contract": "contracts/nomad-xapps/contracts/bridge/BridgeRouter.sol:BridgeRouter",
        "label": "tokenRegistry",
        "offset": 0,
        "slot": "201",
        "type": "t_contract(ITokenRegistry)23845"
      },
      {
        "astId": 21042,
        "contract": "contracts/nomad-xapps/contracts/bridge/BridgeRouter.sol:BridgeRouter",
        "label": "liquidityProvider",
        "offset": 0,
        "slot": "202",
        "type": "t_mapping(t_bytes32,t_address)"
      },
      {
        "astId": 21045,
        "contract": "contracts/nomad-xapps/contracts/bridge/BridgeRouter.sol:BridgeRouter",
        "label": "transactionManager",
        "offset": 0,
        "slot": "203",
        "type": "t_contract(ITransactionManager)23861"
      },
      {
        "astId": 21049,
        "contract": "contracts/nomad-xapps/contracts/bridge/BridgeRouter.sol:BridgeRouter",
        "label": "__GAP",
        "offset": 0,
        "slot": "204",
        "type": "t_array(t_uint256)49_storage"
      }
    ],
    "types": {
      "t_address": {
        "encoding": "inplace",
        "label": "address",
        "numberOfBytes": "20"
      },
      "t_array(t_uint256)49_storage": {
        "base": "t_uint256",
        "encoding": "inplace",
        "label": "uint256[49]",
        "numberOfBytes": "1568"
      },
      "t_array(t_uint256)50_storage": {
        "base": "t_uint256",
        "encoding": "inplace",
        "label": "uint256[50]",
        "numberOfBytes": "1600"
      },
      "t_bool": {
        "encoding": "inplace",
        "label": "bool",
        "numberOfBytes": "1"
      },
      "t_bytes32": {
        "encoding": "inplace",
        "label": "bytes32",
        "numberOfBytes": "32"
      },
      "t_contract(ITokenRegistry)23845": {
        "encoding": "inplace",
        "label": "contract ITokenRegistry",
        "numberOfBytes": "20"
      },
      "t_contract(ITransactionManager)23861": {
        "encoding": "inplace",
        "label": "contract ITransactionManager",
        "numberOfBytes": "20"
      },
      "t_contract(XAppConnectionManager)15304": {
        "encoding": "inplace",
        "label": "contract XAppConnectionManager",
        "numberOfBytes": "20"
      },
      "t_mapping(t_bytes32,t_address)": {
        "encoding": "mapping",
        "key": "t_bytes32",
        "label": "mapping(bytes32 => address)",
        "numberOfBytes": "32",
        "value": "t_address"
      },
      "t_mapping(t_uint32,t_bytes32)": {
        "encoding": "mapping",
        "key": "t_uint32",
        "label": "mapping(uint32 => bytes32)",
        "numberOfBytes": "32",
        "value": "t_bytes32"
      },
      "t_uint256": {
        "encoding": "inplace",
        "label": "uint256",
        "numberOfBytes": "32"
      },
      "t_uint32": {
        "encoding": "inplace",
        "label": "uint32",
        "numberOfBytes": "4"
      }
    }
  }
}