{
  "address": "0x3bf4d0DD2440b8EBd5304126BD71b9aBB0f943CC",
  "abi": [
    {
      "anonymous": false,
      "inputs": [
        {
          "indexed": false,
          "internalType": "bytes32",
          "name": "canonicalId",
          "type": "bytes32"
        },
        {
          "indexed": false,
          "internalType": "uint32",
          "name": "domain",
          "type": "uint32"
        },
        {
          "indexed": false,
          "internalType": "address",
          "name": "adoptedAsset",
          "type": "address"
        },
        {
          "indexed": false,
          "internalType": "address",
          "name": "supportedAsset",
          "type": "address"
        },
        {
          "indexed": false,
          "internalType": "address",
          "name": "caller",
          "type": "address"
        }
      ],
      "name": "AssetAdded",
      "type": "event"
    },
    {
      "anonymous": false,
      "inputs": [
        {
          "indexed": false,
          "internalType": "bool",
          "name": "renounced",
          "type": "bool"
        }
      ],
      "name": "AssetOwnershipRenounced",
      "type": "event"
    },
    {
      "anonymous": false,
      "inputs": [
        {
          "indexed": false,
          "internalType": "uint256",
          "name": "timestamp",
          "type": "uint256"
        }
      ],
      "name": "AssetOwnershipRenunciationProposed",
      "type": "event"
    },
    {
      "anonymous": false,
      "inputs": [
        {
          "indexed": false,
          "internalType": "bytes32",
          "name": "canonicalId",
          "type": "bytes32"
        },
        {
          "indexed": false,
          "internalType": "address",
          "name": "caller",
          "type": "address"
        }
      ],
      "name": "AssetRemoved",
      "type": "event"
    },
    {
      "anonymous": false,
      "inputs": [
        {
          "indexed": false,
          "internalType": "uint32",
          "name": "destination",
          "type": "uint32"
        },
        {
          "indexed": false,
          "internalType": "bytes32",
          "name": "root",
          "type": "bytes32"
        },
        {
          "indexed": false,
          "internalType": "address[3]",
          "name": "tokens",
          "type": "address[3]"
        },
        {
          "indexed": false,
          "internalType": "uint256[3]",
          "name": "amounts",
          "type": "uint256[3]"
        },
        {
          "indexed": false,
          "internalType": "address",
          "name": "caller",
          "type": "address"
        }
      ],
      "name": "Dispatched",
      "type": "event"
    },
    {
      "anonymous": false,
      "inputs": [
        {
          "indexed": true,
          "internalType": "bytes32",
          "name": "transferId",
          "type": "bytes32"
        },
        {
          "indexed": true,
          "internalType": "address",
          "name": "to",
          "type": "address"
        },
        {
          "indexed": true,
          "internalType": "address",
          "name": "router",
          "type": "address"
        },
        {
          "components": [
            {
              "internalType": "address",
              "name": "to",
              "type": "address"
            },
            {
              "internalType": "bytes",
              "name": "callData",
              "type": "bytes"
            },
            {
              "internalType": "uint32",
              "name": "originDomain",
              "type": "uint32"
            },
            {
              "internalType": "uint32",
              "name": "destinationDomain",
              "type": "uint32"
            }
          ],
          "indexed": false,
          "internalType": "struct Connext.CallParams",
          "name": "params",
          "type": "tuple"
        },
        {
          "indexed": false,
          "internalType": "address",
          "name": "localAsset",
          "type": "address"
        },
        {
          "indexed": false,
          "internalType": "address",
          "name": "transferringAsset",
          "type": "address"
        },
        {
          "indexed": false,
          "internalType": "uint256",
          "name": "localAmount",
          "type": "uint256"
        },
        {
          "indexed": false,
          "internalType": "uint256",
          "name": "transferringAmount",
          "type": "uint256"
        },
        {
          "indexed": false,
          "internalType": "address",
          "name": "caller",
          "type": "address"
        }
      ],
      "name": "Executed",
      "type": "event"
    },
    {
      "anonymous": false,
      "inputs": [
        {
          "indexed": false,
          "internalType": "address",
          "name": "router",
          "type": "address"
        },
        {
          "indexed": false,
          "internalType": "address",
          "name": "local",
          "type": "address"
        },
        {
          "indexed": false,
          "internalType": "bytes32",
          "name": "canonicalId",
          "type": "bytes32"
        },
        {
          "indexed": false,
          "internalType": "uint256",
          "name": "amount",
          "type": "uint256"
        },
        {
          "indexed": false,
          "internalType": "address",
          "name": "caller",
          "type": "address"
        }
      ],
      "name": "LiquidityAdded",
      "type": "event"
    },
    {
      "anonymous": false,
      "inputs": [
        {
          "indexed": true,
          "internalType": "address",
          "name": "router",
          "type": "address"
        },
        {
          "indexed": false,
          "internalType": "address",
          "name": "to",
          "type": "address"
        },
        {
          "indexed": false,
          "internalType": "address",
          "name": "local",
          "type": "address"
        },
        {
          "indexed": false,
          "internalType": "uint256",
          "name": "amount",
          "type": "uint256"
        },
        {
          "indexed": false,
          "internalType": "address",
          "name": "caller",
          "type": "address"
        }
      ],
      "name": "LiquidityRemoved",
      "type": "event"
    },
    {
      "anonymous": false,
      "inputs": [
        {
          "indexed": true,
          "internalType": "address",
          "name": "proposedOwner",
          "type": "address"
        }
      ],
      "name": "OwnershipProposed",
      "type": "event"
    },
    {
      "anonymous": false,
      "inputs": [
        {
          "indexed": true,
          "internalType": "address",
          "name": "previousOwner",
          "type": "address"
        },
        {
          "indexed": true,
          "internalType": "address",
          "name": "newOwner",
          "type": "address"
        }
      ],
      "name": "OwnershipTransferred",
      "type": "event"
    },
    {
      "anonymous": false,
      "inputs": [
        {
          "indexed": false,
          "internalType": "bytes32",
          "name": "root",
          "type": "bytes32"
        },
        {
          "indexed": false,
          "internalType": "address",
          "name": "caller",
          "type": "address"
        }
      ],
      "name": "Reconciled",
      "type": "event"
    },
    {
      "anonymous": false,
      "inputs": [
        {
          "indexed": false,
          "internalType": "address",
          "name": "router",
          "type": "address"
        },
        {
          "indexed": false,
          "internalType": "address",
          "name": "caller",
          "type": "address"
        }
      ],
      "name": "RouterAdded",
      "type": "event"
    },
    {
      "anonymous": false,
      "inputs": [
        {
          "indexed": false,
          "internalType": "bool",
          "name": "renounced",
          "type": "bool"
        }
      ],
      "name": "RouterOwnershipRenounced",
      "type": "event"
    },
    {
      "anonymous": false,
      "inputs": [
        {
          "indexed": false,
          "internalType": "uint256",
          "name": "timestamp",
          "type": "uint256"
        }
      ],
      "name": "RouterOwnershipRenunciationProposed",
      "type": "event"
    },
    {
      "anonymous": false,
      "inputs": [
        {
          "indexed": false,
          "internalType": "address",
          "name": "router",
          "type": "address"
        },
        {
          "indexed": false,
          "internalType": "address",
          "name": "caller",
          "type": "address"
        }
      ],
      "name": "RouterRemoved",
      "type": "event"
    },
    {
      "anonymous": false,
      "inputs": [
        {
          "indexed": false,
          "internalType": "bytes32",
          "name": "canonicalId",
          "type": "bytes32"
        },
        {
          "indexed": false,
          "internalType": "uint32",
          "name": "domain",
          "type": "uint32"
        },
        {
          "indexed": false,
          "internalType": "address",
          "name": "swapPool",
          "type": "address"
        },
        {
          "indexed": false,
          "internalType": "address",
          "name": "caller",
          "type": "address"
        }
      ],
      "name": "StableSwapAdded",
      "type": "event"
    },
    {
      "anonymous": false,
      "inputs": [
        {
          "indexed": true,
          "internalType": "bytes32",
          "name": "transferId",
          "type": "bytes32"
        },
        {
          "indexed": true,
          "internalType": "uint256",
          "name": "idx",
          "type": "uint256"
        },
        {
          "indexed": true,
          "internalType": "address",
          "name": "to",
          "type": "address"
        },
        {
          "components": [
            {
              "internalType": "address",
              "name": "to",
              "type": "address"
            },
            {
              "internalType": "bytes",
              "name": "callData",
              "type": "bytes"
            },
            {
              "internalType": "uint32",
              "name": "originDomain",
              "type": "uint32"
            },
            {
              "internalType": "uint32",
              "name": "destinationDomain",
              "type": "uint32"
            }
          ],
          "indexed": false,
          "internalType": "struct Connext.CallParams",
          "name": "params",
          "type": "tuple"
        },
        {
          "indexed": false,
          "internalType": "address",
          "name": "transferringAsset",
          "type": "address"
        },
        {
          "indexed": false,
          "internalType": "address",
          "name": "localAsset",
          "type": "address"
        },
        {
          "indexed": false,
          "internalType": "uint256",
          "name": "transferringAmount",
          "type": "uint256"
        },
        {
          "indexed": false,
          "internalType": "uint256",
          "name": "localAmount",
          "type": "uint256"
        },
        {
          "indexed": false,
          "internalType": "uint256",
          "name": "nonce",
          "type": "uint256"
        },
        {
          "indexed": false,
          "internalType": "address",
          "name": "caller",
          "type": "address"
        }
      ],
      "name": "XCalled",
      "type": "event"
    },
    {
      "inputs": [],
      "name": "acceptProposedOwner",
      "outputs": [],
      "stateMutability": "nonpayable",
      "type": "function"
    },
    {
      "inputs": [
        {
          "internalType": "uint256",
          "name": "amount",
          "type": "uint256"
        },
        {
          "internalType": "address",
          "name": "local",
          "type": "address"
        }
      ],
      "name": "addLiquidity",
      "outputs": [],
      "stateMutability": "payable",
      "type": "function"
    },
    {
      "inputs": [
        {
          "internalType": "uint256",
          "name": "amount",
          "type": "uint256"
        },
        {
          "internalType": "address",
          "name": "local",
          "type": "address"
        },
        {
          "internalType": "address",
          "name": "router",
          "type": "address"
        }
      ],
      "name": "addLiquidityFor",
      "outputs": [],
      "stateMutability": "payable",
      "type": "function"
    },
    {
      "inputs": [
        {
          "internalType": "address",
          "name": "router",
          "type": "address"
        }
      ],
      "name": "addRelayerFees",
      "outputs": [],
      "stateMutability": "payable",
      "type": "function"
    },
    {
      "inputs": [
        {
          "internalType": "address",
          "name": "router",
          "type": "address"
        }
      ],
      "name": "addRouter",
      "outputs": [],
      "stateMutability": "nonpayable",
      "type": "function"
    },
    {
      "inputs": [
        {
          "components": [
            {
              "internalType": "uint32",
              "name": "domain",
              "type": "uint32"
            },
            {
              "internalType": "bytes32",
              "name": "id",
              "type": "bytes32"
            }
          ],
          "internalType": "struct BridgeMessage.TokenId",
          "name": "canonical",
          "type": "tuple"
        },
        {
          "internalType": "address",
          "name": "stableSwapPool",
          "type": "address"
        }
      ],
      "name": "addStableSwapPool",
      "outputs": [],
      "stateMutability": "nonpayable",
      "type": "function"
    },
    {
      "inputs": [
        {
          "internalType": "address",
          "name": "",
          "type": "address"
        }
      ],
      "name": "adoptedToCanonical",
      "outputs": [
        {
          "internalType": "uint32",
          "name": "domain",
          "type": "uint32"
        },
        {
          "internalType": "bytes32",
          "name": "id",
          "type": "bytes32"
        }
      ],
      "stateMutability": "view",
      "type": "function"
    },
    {
      "inputs": [
        {
          "internalType": "bytes32",
          "name": "",
          "type": "bytes32"
        }
      ],
      "name": "adoptedToLocalPools",
      "outputs": [
        {
          "internalType": "contract IStableSwap",
          "name": "",
          "type": "address"
        }
      ],
      "stateMutability": "view",
      "type": "function"
    },
    {
      "inputs": [
        {
          "internalType": "bytes32",
          "name": "",
          "type": "bytes32"
        }
      ],
      "name": "approvedAssets",
      "outputs": [
        {
          "internalType": "bool",
          "name": "",
          "type": "bool"
        }
      ],
      "stateMutability": "view",
      "type": "function"
    },
    {
      "inputs": [
        {
          "internalType": "address",
          "name": "",
          "type": "address"
        }
      ],
      "name": "approvedRouters",
      "outputs": [
        {
          "internalType": "bool",
          "name": "",
          "type": "bool"
        }
      ],
      "stateMutability": "view",
      "type": "function"
    },
    {
      "inputs": [],
      "name": "assetOwnershipTimestamp",
      "outputs": [
        {
          "internalType": "uint256",
          "name": "",
          "type": "uint256"
        }
      ],
      "stateMutability": "view",
      "type": "function"
    },
    {
      "inputs": [
        {
          "internalType": "uint32",
          "name": "",
          "type": "uint32"
        },
        {
          "internalType": "uint256",
          "name": "",
          "type": "uint256"
        }
      ],
      "name": "batchAmounts",
      "outputs": [
        {
          "internalType": "uint256",
          "name": "",
          "type": "uint256"
        }
      ],
      "stateMutability": "view",
      "type": "function"
    },
    {
      "inputs": [
        {
          "internalType": "uint32",
          "name": "",
          "type": "uint32"
        },
        {
          "internalType": "uint256",
          "name": "",
          "type": "uint256"
        }
      ],
      "name": "batchAssets",
      "outputs": [
        {
          "internalType": "address",
          "name": "",
          "type": "address"
        }
      ],
      "stateMutability": "view",
      "type": "function"
    },
    {
      "inputs": [],
      "name": "bridgeRouter",
      "outputs": [
        {
          "internalType": "contract BridgeRouter",
          "name": "",
          "type": "address"
        }
      ],
      "stateMutability": "view",
      "type": "function"
    },
    {
      "inputs": [
        {
          "internalType": "bytes32",
          "name": "",
          "type": "bytes32"
        }
      ],
      "name": "canonicalToAdopted",
      "outputs": [
        {
          "internalType": "address",
          "name": "",
          "type": "address"
        }
      ],
      "stateMutability": "view",
      "type": "function"
    },
    {
      "inputs": [],
      "name": "count",
      "outputs": [
        {
          "internalType": "uint256",
          "name": "",
          "type": "uint256"
        }
      ],
      "stateMutability": "view",
      "type": "function"
    },
    {
      "inputs": [],
      "name": "delay",
      "outputs": [
        {
          "internalType": "uint256",
          "name": "",
          "type": "uint256"
        }
      ],
      "stateMutability": "view",
      "type": "function"
    },
    {
      "inputs": [
        {
          "internalType": "uint32",
          "name": "_destination",
          "type": "uint32"
        }
      ],
      "name": "dispatch",
      "outputs": [],
      "stateMutability": "nonpayable",
      "type": "function"
    },
    {
      "inputs": [],
      "name": "domain",
      "outputs": [
        {
          "internalType": "uint256",
          "name": "",
          "type": "uint256"
        }
      ],
      "stateMutability": "view",
      "type": "function"
    },
    {
      "inputs": [
        {
          "components": [
            {
              "components": [
                {
                  "internalType": "address",
                  "name": "to",
                  "type": "address"
                },
                {
                  "internalType": "bytes",
                  "name": "callData",
                  "type": "bytes"
                },
                {
                  "internalType": "uint32",
                  "name": "originDomain",
                  "type": "uint32"
                },
                {
                  "internalType": "uint32",
                  "name": "destinationDomain",
                  "type": "uint32"
                }
              ],
              "internalType": "struct Connext.CallParams",
              "name": "params",
              "type": "tuple"
            },
            {
              "internalType": "address",
              "name": "local",
              "type": "address"
            },
            {
              "internalType": "address",
              "name": "router",
              "type": "address"
            },
            {
              "internalType": "uint32",
              "name": "feePercentage",
              "type": "uint32"
            },
            {
              "internalType": "uint256",
              "name": "amount",
              "type": "uint256"
            },
            {
              "internalType": "uint256",
              "name": "index",
              "type": "uint256"
            },
            {
              "internalType": "bytes32",
              "name": "transferId",
              "type": "bytes32"
            },
            {
              "internalType": "bytes32[32]",
              "name": "proof",
              "type": "bytes32[32]"
            },
            {
              "internalType": "bytes",
              "name": "relayerSignature",
              "type": "bytes"
            }
          ],
          "internalType": "struct Connext.ExecuteArgs",
          "name": "_args",
          "type": "tuple"
        }
      ],
      "name": "execute",
      "outputs": [
        {
          "internalType": "bytes32",
          "name": "",
          "type": "bytes32"
        }
      ],
      "stateMutability": "nonpayable",
      "type": "function"
    },
    {
      "inputs": [],
      "name": "executor",
      "outputs": [
        {
          "internalType": "contract IExecutor",
          "name": "",
          "type": "address"
        }
      ],
      "stateMutability": "view",
      "type": "function"
    },
    {
      "inputs": [],
      "name": "incomingRoot",
      "outputs": [
        {
          "internalType": "bytes32",
          "name": "",
          "type": "bytes32"
        }
      ],
      "stateMutability": "view",
      "type": "function"
    },
    {
      "inputs": [
        {
          "internalType": "uint256",
          "name": "_domain",
          "type": "uint256"
        },
        {
          "internalType": "address payable",
          "name": "_bridgeRouter",
          "type": "address"
        },
        {
          "internalType": "address",
          "name": "_tokenRegistry",
          "type": "address"
        },
        {
          "internalType": "address",
          "name": "_wrappedNative",
          "type": "address"
        }
      ],
      "name": "initialize",
      "outputs": [],
      "stateMutability": "nonpayable",
      "type": "function"
    },
    {
      "inputs": [],
      "name": "isAssetOwnershipRenounced",
      "outputs": [
        {
          "internalType": "bool",
          "name": "",
          "type": "bool"
        }
      ],
      "stateMutability": "view",
      "type": "function"
    },
    {
      "inputs": [],
      "name": "isRouterOwnershipRenounced",
      "outputs": [
        {
          "internalType": "bool",
          "name": "",
          "type": "bool"
        }
      ],
      "stateMutability": "view",
      "type": "function"
    },
    {
      "inputs": [],
      "name": "nonce",
      "outputs": [
        {
          "internalType": "uint256",
          "name": "",
          "type": "uint256"
        }
      ],
      "stateMutability": "view",
      "type": "function"
    },
    {
      "inputs": [],
      "name": "owner",
      "outputs": [
        {
          "internalType": "address",
          "name": "",
          "type": "address"
        }
      ],
      "stateMutability": "view",
      "type": "function"
    },
    {
      "inputs": [
        {
          "internalType": "bytes32",
          "name": "_transferId",
          "type": "bytes32"
        },
        {
          "internalType": "uint256",
          "name": "_amount",
          "type": "uint256"
        },
        {
          "internalType": "address",
          "name": "_local",
          "type": "address"
        },
        {
          "internalType": "uint256",
          "name": "_index",
          "type": "uint256"
        },
        {
          "internalType": "bytes32[32]",
          "name": "_proof",
          "type": "bytes32[32]"
        },
        {
          "components": [
            {
              "internalType": "address",
              "name": "to",
              "type": "address"
            },
            {
              "internalType": "bytes",
              "name": "callData",
              "type": "bytes"
            },
            {
              "internalType": "uint32",
              "name": "originDomain",
              "type": "uint32"
            },
            {
              "internalType": "uint32",
              "name": "destinationDomain",
              "type": "uint32"
            }
          ],
          "internalType": "struct Connext.CallParams",
          "name": "_params",
          "type": "tuple"
        }
      ],
      "name": "process",
      "outputs": [],
      "stateMutability": "nonpayable",
      "type": "function"
    },
    {
      "inputs": [],
      "name": "proposeAssetOwnershipRenunciation",
      "outputs": [],
      "stateMutability": "nonpayable",
      "type": "function"
    },
    {
      "inputs": [
        {
          "internalType": "address",
          "name": "newlyProposed",
          "type": "address"
        }
      ],
      "name": "proposeNewOwner",
      "outputs": [],
      "stateMutability": "nonpayable",
      "type": "function"
    },
    {
      "inputs": [],
      "name": "proposeRouterOwnershipRenunciation",
      "outputs": [],
      "stateMutability": "nonpayable",
      "type": "function"
    },
    {
      "inputs": [],
      "name": "proposed",
      "outputs": [
        {
          "internalType": "address",
          "name": "",
          "type": "address"
        }
      ],
      "stateMutability": "view",
      "type": "function"
    },
    {
      "inputs": [],
      "name": "proposedTimestamp",
      "outputs": [
        {
          "internalType": "uint256",
          "name": "",
          "type": "uint256"
        }
      ],
      "stateMutability": "view",
      "type": "function"
    },
    {
      "inputs": [
        {
          "internalType": "bytes32",
          "name": "_incomingRoot",
          "type": "bytes32"
        }
      ],
      "name": "reconcile",
      "outputs": [],
      "stateMutability": "payable",
      "type": "function"
    },
    {
      "inputs": [
        {
          "internalType": "bytes32",
          "name": "canonicalId",
          "type": "bytes32"
        },
        {
          "internalType": "address",
          "name": "adoptedAssetId",
          "type": "address"
        }
      ],
      "name": "removeAssetId",
      "outputs": [],
      "stateMutability": "nonpayable",
      "type": "function"
    },
    {
      "inputs": [
        {
          "internalType": "uint256",
          "name": "amount",
          "type": "uint256"
        },
        {
          "internalType": "address",
          "name": "local",
          "type": "address"
        },
        {
          "internalType": "address payable",
          "name": "to",
          "type": "address"
        }
      ],
      "name": "removeLiquidity",
      "outputs": [],
      "stateMutability": "nonpayable",
      "type": "function"
    },
    {
      "inputs": [
        {
          "internalType": "uint256",
          "name": "amount",
          "type": "uint256"
        },
        {
          "internalType": "address payable",
          "name": "to",
          "type": "address"
        }
      ],
      "name": "removeRelayerFees",
      "outputs": [],
      "stateMutability": "nonpayable",
      "type": "function"
    },
    {
      "inputs": [
        {
          "internalType": "address",
          "name": "router",
          "type": "address"
        }
      ],
      "name": "removeRouter",
      "outputs": [],
      "stateMutability": "nonpayable",
      "type": "function"
    },
    {
      "inputs": [],
      "name": "renounceAssetOwnership",
      "outputs": [],
      "stateMutability": "nonpayable",
      "type": "function"
    },
    {
      "inputs": [],
      "name": "renounceOwnership",
      "outputs": [],
      "stateMutability": "nonpayable",
      "type": "function"
    },
    {
      "inputs": [],
      "name": "renounceRouterOwnership",
      "outputs": [],
      "stateMutability": "nonpayable",
      "type": "function"
    },
    {
      "inputs": [],
      "name": "renounced",
      "outputs": [
        {
          "internalType": "bool",
          "name": "",
          "type": "bool"
        }
      ],
      "stateMutability": "view",
      "type": "function"
    },
    {
      "inputs": [],
      "name": "root",
      "outputs": [
        {
          "internalType": "bytes32",
          "name": "",
          "type": "bytes32"
        }
      ],
      "stateMutability": "view",
      "type": "function"
    },
    {
      "inputs": [
        {
          "internalType": "bytes32",
          "name": "",
          "type": "bytes32"
        }
      ],
      "name": "routedTransfers",
      "outputs": [
        {
          "internalType": "address",
          "name": "router",
          "type": "address"
        },
        {
          "internalType": "uint256",
          "name": "amount",
          "type": "uint256"
        },
        {
          "internalType": "bytes32",
          "name": "externalHash",
          "type": "bytes32"
        }
      ],
      "stateMutability": "view",
      "type": "function"
    },
    {
      "inputs": [
        {
          "internalType": "bytes32",
          "name": "",
          "type": "bytes32"
        }
      ],
      "name": "routedTransfersGas",
      "outputs": [
        {
          "internalType": "uint256",
          "name": "gasUsed",
          "type": "uint256"
        },
        {
          "internalType": "uint256",
          "name": "gasPrice",
          "type": "uint256"
        }
      ],
      "stateMutability": "view",
      "type": "function"
    },
    {
      "inputs": [
        {
          "internalType": "address",
          "name": "",
          "type": "address"
        },
        {
          "internalType": "address",
          "name": "",
          "type": "address"
        }
      ],
      "name": "routerBalances",
      "outputs": [
        {
          "internalType": "uint256",
          "name": "",
          "type": "uint256"
        }
      ],
      "stateMutability": "view",
      "type": "function"
    },
    {
      "inputs": [],
      "name": "routerOwnershipTimestamp",
      "outputs": [
        {
          "internalType": "uint256",
          "name": "",
          "type": "uint256"
        }
      ],
      "stateMutability": "view",
      "type": "function"
    },
    {
      "inputs": [
        {
          "internalType": "address",
          "name": "",
          "type": "address"
        }
      ],
      "name": "routerRelayerFees",
      "outputs": [
        {
          "internalType": "uint256",
          "name": "",
          "type": "uint256"
        }
      ],
      "stateMutability": "view",
      "type": "function"
    },
    {
      "inputs": [
        {
          "components": [
            {
              "internalType": "uint32",
              "name": "domain",
              "type": "uint32"
            },
            {
              "internalType": "bytes32",
              "name": "id",
              "type": "bytes32"
            }
          ],
          "internalType": "struct BridgeMessage.TokenId",
          "name": "canonical",
          "type": "tuple"
        },
        {
          "internalType": "address",
          "name": "adoptedAssetId",
          "type": "address"
        },
        {
          "internalType": "address",
          "name": "stableSwapPool",
          "type": "address"
        }
      ],
      "name": "setupAsset",
      "outputs": [],
      "stateMutability": "nonpayable",
      "type": "function"
    },
    {
      "inputs": [],
      "name": "tokenRegistry",
      "outputs": [
        {
          "internalType": "contract TokenRegistry",
          "name": "",
          "type": "address"
        }
      ],
      "stateMutability": "view",
      "type": "function"
    },
    {
      "inputs": [],
      "name": "tree",
      "outputs": [
        {
          "internalType": "uint256",
          "name": "count",
          "type": "uint256"
        }
      ],
      "stateMutability": "view",
      "type": "function"
    },
    {
      "inputs": [],
      "name": "wrapper",
      "outputs": [
        {
          "internalType": "contract IWrapped",
          "name": "",
          "type": "address"
        }
      ],
      "stateMutability": "view",
      "type": "function"
    },
    {
      "inputs": [
        {
          "components": [
            {
              "components": [
                {
                  "internalType": "address",
                  "name": "to",
                  "type": "address"
                },
                {
                  "internalType": "bytes",
                  "name": "callData",
                  "type": "bytes"
                },
                {
                  "internalType": "uint32",
                  "name": "originDomain",
                  "type": "uint32"
                },
                {
                  "internalType": "uint32",
                  "name": "destinationDomain",
                  "type": "uint32"
                }
              ],
              "internalType": "struct Connext.CallParams",
              "name": "params",
              "type": "tuple"
            },
            {
              "internalType": "address",
              "name": "transactingAssetId",
              "type": "address"
            },
            {
              "internalType": "uint256",
              "name": "amount",
              "type": "uint256"
            }
          ],
          "internalType": "struct Connext.XCallArgs",
          "name": "_args",
          "type": "tuple"
        }
      ],
      "name": "xcall",
      "outputs": [
        {
          "internalType": "bytes32",
          "name": "",
          "type": "bytes32"
        }
      ],
      "stateMutability": "payable",
      "type": "function"
    },
    {
      "stateMutability": "payable",
      "type": "receive"
    }
  ],
  "args": [],
  "numDeployments": 1,
  "solcInputHash": "8ef6e7fbf37b0340e54b85c10ff76629",
  "bytecode": "0x608060405234801561001057600080fd5b50615ff080620000216000396000f3fe608060405260043610620003605760003560e01c806383c6887611620001ce578063c2fb26a6116200010b578063e070da0911620000a1578063ea7a904d1162000078578063ea7a904d1462000aa5578063ebf0c7171462000aca578063f31abcc41462000ae2578063fd54b2281462000b0757600080fd5b8063e070da091462000a5e578063e47602f71462000a75578063e8be0dfc1462000a8d57600080fd5b8063c95f9d0e11620000e2578063c95f9d0e14620009e1578063d1851c9214620009f8578063d232c2201462000a18578063d58fc79e1462000a3957600080fd5b8063c2fb26a6146200098f578063c34c08e514620009a7578063c5b350df14620009c957600080fd5b8063a5730fd31162000181578063b1f8100d1162000158578063b1f8100d1462000901578063bd7e1e2e1462000926578063c0c17baf1462000960578063c1a04959146200097857600080fd5b8063a5730fd314620008b0578063ac210cc714620008c7578063affed0e014620008e957600080fd5b806383c6887614620007db57806383dc86b0146200080c5780638741eac514620008315780638da5cb5b14620008495780639d23c4c71462000869578063a3128878146200088b57600080fd5b8063445b1e4b116200029d5780636a42b8f81162000250578063754d1d541162000227578063754d1d54146200071e5780637710bbab14620007435780637b298e271462000768578063806474de146200078d57600080fd5b80636a42b8f814620006c95780636ae0b15414620006e1578063715018a6146200070657600080fd5b8063445b1e4b14620005af578063569d29e414620005e357806356a4be23146200060857806357bd0a3214620006205780636006209114620006545780636a41633a14620006b257600080fd5b80632077490911620003135780633855b46711620002ea5780633855b46714620005225780633cf52ffb146200053a57806341258b5c146200055157806341af5b52146200058d57600080fd5b806320774909146200049357806324ca984e14620004aa5780632c1999d014620004cf57600080fd5b8063023ae73a146200036d57806306661abd1462000397578063089c9c1514620003ae5780631506e46314620003d35780631a8bc0e114620003fa5780632004ef45146200046a57600080fd5b366200036857005b600080fd5b620003846200037e3660046200498e565b62000b20565b6040519081526020015b60405180910390f35b348015620003a457600080fd5b50608b5462000384565b348015620003bb57600080fd5b5062000384620003cd366004620049f1565b62000d00565b348015620003e057600080fd5b50620003f8620003f236600462004a4f565b62000d26565b005b3480156200040757600080fd5b50620004446200041936600462004a8c565b60c4602052600090815260409020805460018201546002909201546001600160a01b03909116919083565b604080516001600160a01b0390941684526020840192909252908201526060016200038e565b3480156200047757600080fd5b506200048262000d63565b60405190151581526020016200038e565b620003f8620004a436600462004aa6565b62000d86565b348015620004b757600080fd5b50620003f8620004c936600462004aa6565b62000df3565b348015620004dc57600080fd5b5062000509620004ee36600462004a8c565b60cc602052600090815260409020546001600160a01b031681565b6040516001600160a01b0390911681526020016200038e565b3480156200052f57600080fd5b50620003f862000f17565b3480156200054757600080fd5b5060355462000384565b3480156200055e57600080fd5b50620003846200057036600462004ac6565b60c760209081526000928352604080842090915290825290205481565b3480156200059a57600080fd5b5060be5462000509906001600160a01b031681565b348015620005bc57600080fd5b5062000482620005ce36600462004aa6565b60c96020526000908152604090205460ff1681565b348015620005f057600080fd5b50620003f86200060236600462004af9565b6200101f565b3480156200061557600080fd5b506200038460cf5481565b3480156200062d57600080fd5b50620004826200063f36600462004a8c565b60ca6020526000908152604090205460ff1681565b3480156200066157600080fd5b50620006956200067336600462004aa6565b60cb602052600090815260409020805460019091015463ffffffff9091169082565b6040805163ffffffff90931683526020830191909152016200038e565b348015620006bf57600080fd5b5060395462000384565b348015620006d657600080fd5b5062093a8062000384565b348015620006ee57600080fd5b50620003f86200070036600462004aa6565b62001069565b3480156200071357600080fd5b50620003f862001188565b3480156200072b57600080fd5b50620003f86200073d36600462004b4a565b6200129c565b3480156200075057600080fd5b50620003f86200076236600462004ba4565b62001435565b3480156200077557600080fd5b50620003f86200078736600462004c34565b6200162b565b3480156200079a57600080fd5b50620007c5620007ac36600462004a8c565b60c5602052600090815260409020805460019091015482565b604080519283526020830191909152016200038e565b348015620007e857600080fd5b5062000384620007fa36600462004aa6565b60c86020526000908152604090205481565b3480156200081957600080fd5b50620003f86200082b36600462004c5c565b6200165e565b3480156200083e57600080fd5b50620003f8620018b3565b3480156200085657600080fd5b506033546001600160a01b031662000509565b3480156200087657600080fd5b5060c25462000509906001600160a01b031681565b3480156200089857600080fd5b5062000384620008aa36600462004c7c565b6200192b565b620003f8620008c136600462004a8c565b62001db8565b348015620008d457600080fd5b5060bf5462000509906001600160a01b031681565b348015620008f657600080fd5b506200038460c05481565b3480156200090e57600080fd5b50620003f86200092036600462004aa6565b62001e39565b3480156200093357600080fd5b50620005096200094536600462004a8c565b60c3602052600090815260409020546001600160a01b031681565b3480156200096d57600080fd5b50620003f862001f1d565b3480156200098557600080fd5b5060375462000384565b3480156200099c57600080fd5b506200038460c65481565b348015620009b457600080fd5b5060c15462000509906001600160a01b031681565b348015620009d657600080fd5b50620003f862002023565b620003f8620009f236600462004c34565b62002105565b34801562000a0557600080fd5b506034546001600160a01b031662000509565b34801562000a2557600080fd5b506033546001600160a01b03161562000482565b34801562000a4657600080fd5b506200050962000a58366004620049f1565b62002145565b620003f862000a6f36600462004cbb565b62002174565b34801562000a8257600080fd5b50620003f8620021b5565b34801562000a9a57600080fd5b50620004826200222d565b34801562000ab257600080fd5b50620003f862000ac436600462004c34565b6200224e565b34801562000ad757600080fd5b506200038462002389565b34801562000aef57600080fd5b50620003f862000b0136600462004cbb565b62002397565b34801562000b1457600080fd5b50608b54620003849081565b60008060cb818062000b39604087016020880162004aa6565b6001600160a01b03161462000b605762000b5a604086016020870162004aa6565b62000b6d565b60bf546001600160a01b03165b6001600160a01b03166001600160a01b0316815260200190815260200160002060010154141562000bd85760405162461bcd60e51b815260206004820152601060248201526f085cdd5c1c1bdc9d195917d85cdcd95d60821b60448201526064015b60405180910390fd5b60008062000bfc62000bf1604086016020870162004aa6565b856040013562002531565b9150915060008062000c0f848462002741565b91509150600062000c2560c05460c654620028f0565b60c08054919250600062000c398362004d0d565b9091555062000c58905081848462000c528b8062004d2b565b62002927565b62000c64878062004d2b565b62000c7490602081019062004aa6565b6001600160a01b0316600162000c89608b5490565b62000c95919062004d4c565b827f4ff8b4a691a88a2915c361362e88d9f51ca25e51913d4edd31153128e671566062000cc38b8062004d2b565b89878a8a600160c05462000cd8919062004d4c565b3360405162000cee979695949392919062004e44565b60405180910390a49695505050505050565b60ce602052816000526040600020816003811062000d1d57600080fd5b01549150829050565b6033546001600160a01b0316331462000d535760405162461bcd60e51b815260040162000bcf9062004e98565b62000d5f828262002b16565b5050565b6033546000906001600160a01b0316158062000d81575060365460ff165b905090565b6000341162000dc15760405162461bcd60e51b81526020600482015260066024820152652176616c756560d01b604482015260640162000bcf565b6001600160a01b038116600090815260c860205260408120805434929062000deb90849062004eb9565b909155505050565b6033546001600160a01b0316331462000e205760405162461bcd60e51b815260040162000bcf9062004e98565b6001600160a01b03811662000e625760405162461bcd60e51b81526020600482015260076024820152662341523a30303160c81b604482015260640162000bcf565b6001600160a01b038116600090815260c9602052604090205460ff161562000eb75760405162461bcd60e51b815260206004820152600760248201526611a0a91d18199960c91b604482015260640162000bcf565b6001600160a01b038116600081815260c96020908152604091829020805460ff19166001179055815192835233908301527fbc68405e644da2aaf25623ce2199da82c6dfd2e1de102b400eba6a091704d4f491015b60405180910390a150565b6033546001600160a01b0316331462000f445760405162461bcd60e51b815260040162000bcf9062004e98565b60385460ff161562000f845760405162461bcd60e51b8152602060048201526008602482015267046a4829e746066760c31b604482015260640162000bcf565b60006039541162000fc35760405162461bcd60e51b81526020600482015260086024820152672352414f3a30333760c01b604482015260640162000bcf565b62093a806039544262000fd7919062004d4c565b11620010115760405162461bcd60e51b815260206004820152600860248201526702352414f3a3033360c41b604482015260640162000bcf565b6200101d600162002ba5565b565b6033546001600160a01b031633146200104c5760405162461bcd60e51b815260040162000bcf9062004e98565b62001058838362002bec565b62001064838262002b16565b505050565b6033546001600160a01b03163314620010965760405162461bcd60e51b815260040162000bcf9062004e98565b6001600160a01b038116620010d85760405162461bcd60e51b81526020600482015260076024820152662352523a30303160c81b604482015260640162000bcf565b6001600160a01b038116600090815260c9602052604090205460ff161515600114620011315760405162461bcd60e51b81526020600482015260076024820152662352523a30333360c81b604482015260640162000bcf565b6001600160a01b038116600081815260c96020908152604091829020805460ff19169055815192835233908301527fbee3e974bb6a6f44f20096ede047c191eef60322e65e4ee4bd3392230a8716d5910162000f0c565b6033546001600160a01b03163314620011b55760405162461bcd60e51b815260040162000bcf9062004e98565b600060355411620011f35760405162461bcd60e51b815260206004820152600760248201526623524f3a30333760c81b604482015260640162000bcf565b62093a806035544262001207919062004d4c565b11620012405760405162461bcd60e51b8152602060048201526007602482015266023524f3a3033360cc1b604482015260640162000bcf565b6034546001600160a01b031615620012855760405162461bcd60e51b815260206004820152600760248201526611a9279d18199b60c91b604482015260640162000bcf565b6034546200101d906001600160a01b031662002d45565b600054610100900460ff16620012b95760005460ff1615620012bd565b303b155b620013225760405162461bcd60e51b815260206004820152602e60248201527f496e697469616c697a61626c653a20636f6e747261637420697320616c72656160448201526d191e481a5b9a5d1a585b1a5e995960921b606482015260840162000bcf565b600054610100900460ff1615801562001345576000805461ffff19166101011790555b6200134f62002d9e565b6200135962002dd2565b600060c05560c685905560be80546001600160a01b0319166001600160a01b03861617905560405130906200138e90620048b7565b6001600160a01b039091168152602001604051809103906000f080158015620013bb573d6000803e3d6000fd5b5060c180546001600160a01b03199081166001600160a01b039384161790915560c28054821686841617905560bf80549091169184169190911790557fc5d2460186f7233c927e7db2dcc703c0e500b653ca82273b7bfad8045d85a47060bd5580156200142e576000805461ff00191690555b5050505050565b60c25460405163b9730eaf60e01b81526001600160a01b038681166004830152600092169063b9730eaf906024016040805180830381865afa15801562001480573d6000803e3d6000fd5b505050506040513d601f19601f82011682018060405250810190620014a6919062004ed4565b60c254909250600091506001600160a01b031663589b3c64620014d0606086016040870162004c5c565b6040516001600160e01b031960e084901b16815263ffffffff91909116600482015260248101859052604401602060405180830381865afa1580156200151a573d6000803e3d6000fd5b505050506040513d601f19601f8201168201806040525081019062001540919062004f05565b90506000620015528989848762002e06565b905060006200158c8287602080602002604051908101604052809291908260208002808284376000920191909152508b915062002e869050565b60008b815260c460205260409020549091506001600160a01b031680620015e05760405162461bcd60e51b815260206004820152600760248201526610b937baba32b960c91b604482015260640162000bcf565b6001600160a01b03808216600090815260c760209081526040808320938d16835292905290812080548c92906200161990849062004eb9565b90915550505050505050505050505050565b33600090815260c86020526040812080548492906200164c90849062004d4c565b9091555062000d5f9050818362002f41565b63ffffffff8116600090815260cd6020526040808220815160608101928390529160039082845b81546001600160a01b0316815260019091019060200180831162001685575050505063ffffffff8416600090815260ce6020526040808220815160608101928390529495509193925060039082845b815481526020019060010190808311620016d4575050604080516060810182526000808252602080830182905282840182905263ffffffff8b16825260cd905291822095965090946200172e9450925090506003620048c5565b50604080516060810182526000808252602080830182905282840182905263ffffffff8816825260ce9052919091206200176a91600362004922565b5060005b6003811015620017ef5760008482600381106200178f576200178f62004f25565b602002015190506001600160a01b03811615620017d95760be54620017d99082906001600160a01b0316868560038110620017ce57620017ce62004f25565b602002015162003060565b5080620017e68162004d0d565b9150506200176e565b506000620017fe606b6200314c565b60be54604051633d72b5ff60e21b81529192506001600160a01b03169063f5cad7fc906200183790879087908a90879060040162004f8e565b600060405180830381600087803b1580156200185257600080fd5b505af115801562001867573d6000803e3d6000fd5b505050507fac251ae57ddf308c00c3ff28e5f1c6decfe6d8d37e71ed5eba225fcc8fcaed1c8582868633604051620018a495949392919062004fc6565b60405180910390a15050505050565b6033546001600160a01b03163314620018e05760405162461bcd60e51b815260040162000bcf9062004e98565b60385460ff1615620019215760405162461bcd60e51b8152602060048201526009602482015268046a0829ea4746066760bb1b604482015260640162000bcf565b6200101d62003163565b6000805a60c2549091506000906001600160a01b031663b9730eaf62001958604087016020880162004aa6565b6040516001600160e01b031960e084901b1681526001600160a01b0390911660048201526024016040805180830381865afa1580156200199c573d6000803e3d6000fd5b505050506040513d601f19601f82011682018060405250810190620019c2919062004ed4565b60c254909250600091506001600160a01b031663589b3c64620019e6878062004d2b565b620019f990606081019060400162004c5c565b6040516001600160e01b031960e084901b16815263ffffffff91909116600482015260248101859052604401602060405180830381865afa15801562001a43573d6000803e3d6000fd5b505050506040513d601f19601f8201168201806040525081019062001a69919062004f05565b905060008062001a8f60c088013560808901358562001a898b8062004d2b565b62002e06565b9050600062001ace828960e00160208060200260405190810160405280929190826020800280828437600092019190915250505060a08b013562002e86565b60cf541415925062001b1e915062001ae99050878062004d2b565b60c088013562001b0060408a0160208b0162004aa6565b62001b1260608b0160408c0162004aa6565b858b608001356200319f565b60008062001b4262001b3760408a0160208b0162004aa6565b8960800135620032f6565b60bd54919350915062001b56898062004d2b565b62001b6690602081019062005015565b60405162001b769291906200505f565b6040518091039020141562001bb35762001bad8162001b968a8062004d2b565b62001ba690602081019062004aa6565b84620033c9565b62001c8e565b60c15462001bcd9082906001600160a01b031684620033c9565b60c1546001600160a01b031663a81a368d60c08a013562001bef8b8062004d2b565b62001bff90602081019062004aa6565b848662001c0d8e8062004d2b565b62001c1d90602081019062005015565b6040518763ffffffff1660e01b815260040162001c40969594939291906200506f565b6000604051808303816000875af115801562001c60573d6000803e3d6000fd5b505050506040513d6000823e601f3d908101601f1916820160405262001c8a91908101906200510d565b5050505b821562001cd65760405180604001604052805a62001cad908962004d4c565b81523a60209182015260c08a0135600090815260c5825260409020825181559101516001909101555b62001d1960c089013562001cf160608b0160408c0162004aa6565b62001d0360808c0160608d0162004c5c565b62001d136104e08d018d62005015565b6200349b565b3362001d26898062004d2b565b62001d3690602081019062004aa6565b6001600160a01b031660c08a01357f3d5b9d96144cef95ba201c4dbd1f875f6dd32edc9d8813056dea706bf52fc10a62001d718c8062004d2b565b62001d8360408e0160208f0162004aa6565b868e60800135893360405162001d9f96959493929190620051ed565b60405180910390a450505060c090940135949350505050565b60be546001600160a01b0316331462001dfe5760405162461bcd60e51b81526020600482015260076024820152662162726964676560c81b604482015260640162000bcf565b60cf819055604080518281523360208201527fc6dead806d5f79c4a79d45c68d9cdc3b017da3a595c706180f8d5e3831ef883a910162000f0c565b6033546001600160a01b0316331462001e665760405162461bcd60e51b815260040162000bcf9062004e98565b6034546001600160a01b03828116911614158062001e8b57506001600160a01b038116155b62001ec45760405162461bcd60e51b815260206004820152600860248201526711a827279d18199b60c11b604482015260640162000bcf565b6033546001600160a01b038281169116141562001f0f5760405162461bcd60e51b8152602060048201526008602482015267046a09c9e746066760c31b604482015260640162000bcf565b62001f1a81620035bb565b50565b6033546001600160a01b0316331462001f4a5760405162461bcd60e51b815260040162000bcf9062004e98565b60365460ff161562001f8a5760405162461bcd60e51b8152602060048201526008602482015267046a4a49e746066760c31b604482015260640162000bcf565b60006037541162001fc95760405162461bcd60e51b81526020600482015260086024820152672352524f3a30333760c01b604482015260640162000bcf565b62093a806037544262001fdd919062004d4c565b11620020175760405162461bcd60e51b815260206004820152600860248201526702352524f3a3033360c41b604482015260640162000bcf565b6200101d600162003609565b6034546001600160a01b03163314620020695760405162461bcd60e51b8152602060048201526007602482015266234f503a30333560c81b604482015260640162000bcf565b6034546033546001600160a01b0390811691161415620020b75760405162461bcd60e51b815260206004820152600860248201526704682a09e746066760c31b604482015260640162000bcf565b62093a8060355442620020cb919062004d4c565b11620012855760405162461bcd60e51b815260206004820152600860248201526702341504f3a3033360c41b604482015260640162000bcf565b600260015414156200212b5760405162461bcd60e51b815260040162000bcf906200523c565b60026001556200213d82823362003650565b505060018055565b60cd60205281600052604060002081600381106200216257600080fd5b01546001600160a01b03169150829050565b600260015414156200219a5760405162461bcd60e51b815260040162000bcf906200523c565b6002600155620021ac83838362003650565b50506001805550565b6033546001600160a01b03163314620021e25760405162461bcd60e51b815260040162000bcf9062004e98565b60365460ff1615620022235760405162461bcd60e51b8152602060048201526009602482015268046a0a49ea4746066760bb1b604482015260640162000bcf565b6200101d620038e3565b6033546000906001600160a01b0316158062000d8157505060385460ff1690565b6033546001600160a01b031633146200227b5760405162461bcd60e51b815260040162000bcf9062004e98565b600082815260ca602052604090205460ff161515600114620022ca5760405162461bcd60e51b81526020600482015260076024820152662352413a30333360c81b604482015260640162000bcf565b600082815260ca60209081526040808320805460ff1916905560c3909152812080546001600160a01b031916905560cb906001600160a01b038316156200231257826200231f565b60bf546001600160a01b03165b6001600160a01b0316815260208082019290925260409081016000908120805463ffffffff1916815560010155805184815233928101929092527f9d181adb70e733f5235f839c1eed929407ea8526e41d01f49b9fef703e78dddf91015b60405180910390a15050565b600062000d81606b6200314c565b60026001541415620023bd5760405162461bcd60e51b815260040162000bcf906200523c565b60026001556001600160a01b038116620024045760405162461bcd60e51b815260206004820152600760248201526623524c3a30303760c81b604482015260640162000bcf565b60008311620024405760405162461bcd60e51b815260206004820152600760248201526611a9261d18181960c91b604482015260640162000bcf565b33600090815260c7602090815260408083206001600160a01b038616845290915290205483811015620024a05760405162461bcd60e51b8152602060048201526007602482015266046a498746060760cb1b604482015260640162000bcf565b33600090815260c7602090815260408083206001600160a01b038716845290915290208482039055620024d5838386620033c9565b604080516001600160a01b03848116825285166020820152808201869052336060820181905291517f63b05915120b3d5a231e7c3625a411c15b2a79c35e3b1432a4f1ea95468cc6349181900360800190a25050600180555050565b600080826001600160a01b038516620025ff578334146200257f5760405162461bcd60e51b815260206004820152600760248201526608585b5bdd5b9d60ca1b604482015260640162000bcf565b60bf60009054906101000a90046001600160a01b03166001600160a01b031663d0e30db0856040518263ffffffff1660e01b81526004016000604051808303818588803b158015620025d057600080fd5b505af1158015620025e5573d6000803e3d6000fd5b505060bf546001600160a01b031697506200273492505050565b6040516370a0823160e01b81523060048201526000906001600160a01b038716906370a0823190602401602060405180830381865afa15801562002647573d6000803e3d6000fd5b505050506040513d601f19601f820116820180604052508101906200266d919062005273565b90503415620026a95760405162461bcd60e51b815260206004820152600760248201526611aa209d18181b60c91b604482015260640162000bcf565b620026b7863330886200391a565b6040516370a0823160e01b815230600482015281906001600160a01b038816906370a0823190602401602060405180830381865afa158015620026fe573d6000803e3d6000fd5b505050506040513d601f19601f8201168201806040525081019062002724919062005273565b62002730919062004d4c565b9150505b84925090505b9250929050565b6001600160a01b038216600090815260cb602090815260408083208151808301909252805463ffffffff1682526001015491810182905282916200278c57838592509250506200273a565b60c25481516020830151604051631626cf1960e21b815263ffffffff909216600483015260248201526000916001600160a01b03169063589b3c6490604401602060405180830381865afa158015620027e9573d6000803e3d6000fd5b505050506040513d601f19601f820116820180604052508101906200280f919062004f05565b9050856001600160a01b0316816001600160a01b031614156200283a5784869350935050506200273a565b602080830151600090815260c390915260409020546001600160a01b03166200286587828862003954565b60405163d5914c4560e01b8152600481018790526001600160a01b038881166024830152838116604483015282169063d5914c45906064016020604051808303816000875af1158015620028bd573d6000803e3d6000fd5b505050506040513d601f19601f82011682018060405250810190620028e3919062005273565b9791965090945050505050565b60408051602081018490529081018290526000906060015b6040516020818303038152906040528051906020012090505b92915050565b6000620029378585858562002e06565b905062002946606b8262003a71565b60005b60cd60006200295f608086016060870162004c5c565b63ffffffff16815260200152600381101562002ad957600060cd816200298c608087016060880162004c5c565b63ffffffff1663ffffffff1681526020019081526020016000208260038110620029ba57620029ba62004f25565b01546001600160a01b039081169150851681141562002a39578560ce6000620029ea608088016060890162004c5c565b63ffffffff1663ffffffff168152602001908152602001600020836003811062002a185762002a1862004f25565b01600082825462002a2a919062004eb9565b9091555062002b109350505050565b6001600160a01b03811662002ac3578460cd600062002a5f608088016060890162004c5c565b63ffffffff1663ffffffff168152602001908152602001600020836003811062002a8d5762002a8d62004f25565b0180546001600160a01b0319166001600160a01b03929092169190911790558560ce6000620029ea608088016060890162004c5c565b508062002ad08162004d0d565b91505062002949565b5060405162461bcd60e51b815260206004820152600a60248201526918985d18da08199d5b1b60b21b604482015260640162000bcf565b50505050565b60208281018035600081815260c3909352604090922080546001600160a01b0319166001600160a01b0385161790557fd6f882d8fd8cc867bb57db3880bc4ad0b9b84689b57bba1b51feec7be397e3c2919062002b74908562004c5c565b6040805192835263ffffffff90911660208301526001600160a01b038416908201523360608201526080016200237d565b6038805460ff191682151590811790915560006039556040519081527f868d89ead22a5d10f456845ac0014901d9af7203e71cf0892d70d9dc262c2fb99060200162000f0c565b602080830135600090815260ca909152604090205460ff161562002c3d5760405162461bcd60e51b815260206004820152600760248201526611a0a09d18199960c91b604482015260640162000bcf565b602080830135600090815260ca82526040808220805460ff191660011790556001600160a01b038416825260cb90925220829062002c7c82826200528d565b50600090506001600160a01b0382161562002c98578162002ca5565b60bf546001600160a01b03165b60208481018035600081815260cc909352604090922080546001600160a01b0319166001600160a01b0385161790559192507f42e28d2d3431c24c3f3b6e2623a169bd4a31dd1f66780c4499af54a28632779b9162002d05908662004c5c565b6040805192835263ffffffff9190911660208301526001600160a01b038581168383015284166060830152336080830152519081900360a00190a1505050565b603380546001600160a01b038381166001600160a01b0319831681179093556000603581905560405191909216929183917f8be0079c531659141344cd1fd0a4f28419497f9722a3daafe3b4186f6b6457e09190a35050565b600054610100900460ff1662002dc85760405162461bcd60e51b815260040162000bcf90620052bc565b6200101d62003ba1565b600054610100900460ff1662002dfc5760405162461bcd60e51b815260040162000bcf90620052bc565b6200101d62003bd6565b600084848462002e1a602086018662004aa6565b62002e29602087018762005015565b62002e3b6060890160408a0162004c5c565b62002e4d60808a0160608b0162004c5c565b60405160200162002e6698979695949392919062005307565b604051602081830303815290604052805190602001209050949350505050565b8260005b602081101562002f3957600183821c16600085836020811062002eb15762002eb162004f25565b60200201519050816001141562002ef457604080516020810183905290810185905260600160405160208183030381529060405280519060200120935062002f21565b60408051602081018690529081018290526060016040516020818303038152906040528051906020012093505b5050808062002f309062004d0d565b91505062002e8a565b509392505050565b8047101562002f935760405162461bcd60e51b815260206004820152601d60248201527f416464726573733a20696e73756666696369656e742062616c616e6365000000604482015260640162000bcf565b6000826001600160a01b03168260405160006040518083038185875af1925050503d806000811462002fe2576040519150601f19603f3d011682016040523d82523d6000602084013e62002fe7565b606091505b5050905080620010645760405162461bcd60e51b815260206004820152603a60248201527f416464726573733a20756e61626c6520746f2073656e642076616c75652c207260448201527f6563697069656e74206d61792068617665207265766572746564000000000000606482015260840162000bcf565b604051636eb1769f60e11b81523060048201526001600160a01b038381166024830152600091839186169063dd62ed3e90604401602060405180830381865afa158015620030b2573d6000803e3d6000fd5b505050506040513d601f19601f82011682018060405250810190620030d8919062005273565b620030e4919062004eb9565b6040516001600160a01b03851660248201526044810182905290915062002b1090859063095ea7b360e01b906064015b60408051601f198184030181529190526020810180516001600160e01b03166001600160e01b03199093169290921790915262003c06565b600062002921826200315d62003cdf565b620041a2565b4260398190556040519081527fa78fdca214e4619ef34a695316d423f5b0d8274bc919d29733bf8f92ec8cbb7a906020015b60405180910390a1565b6000620031fe620031b4602089018962004aa6565b620031c360208a018a62005015565b8080601f0160208091040260200160405190810160405280939291908181526020018383808284376000920191909152506200428292505050565b90508215620032ed57600086815260c460205260409020546001600160a01b031615620032575760405162461bcd60e51b815260206004820152600660248201526521656d70747960d01b604482015260640162000bcf565b6001600160a01b03808516600090815260c760209081526040808320938916835292905290812080548492906200329090849062004d4c565b9091555050604080516060810182526001600160a01b038681168252602080830186815283850186815260008c815260c490935294909120925183546001600160a01b031916921691909117825551600182015590516002909101555b50505050505050565b60c25460405163b9730eaf60e01b81526001600160a01b038481166004830152600092839283929091169063b9730eaf906024016040805180830381865afa15801562003347573d6000803e3d6000fd5b505050506040513d601f19601f820116820180604052508101906200336d919062004ed4565b600081815260cc60205260409020549092506001600160a01b0390811691508616811415620033a45784869350935050506200273a565b600082815260c360205260409020546001600160a01b03166200286587828862003954565b6001600160a01b0383166200340b5760405162461bcd60e51b8152602060048201526007602482015266216e617469766560c81b604482015260640162000bcf565b60bf546001600160a01b03848116911614156200348e5760bf54604051632e1a7d4d60e01b8152600481018390526001600160a01b0390911690632e1a7d4d90602401600060405180830381600087803b1580156200346957600080fd5b505af11580156200347e573d6000803e3d6000fd5b5050505062001064828262002f41565b62001064838383620042b4565b336001600160a01b0385161415620034b3576200142e565b620034f18584604051602001620034da92919091825263ffffffff16602082015260400190565b6040516020818303038152906040528383620042e6565b6001600160a01b0316846001600160a01b0316146200353e5760405162461bcd60e51b8152602060048201526008602482015267217274725f73696760c01b604482015260640162000bcf565b63ffffffff831662003550576200142e565b600060646200356663ffffffff86164862005365565b62003572919062005387565b6001600160a01b038616600090815260c86020526040812080549293508392909190620035a190849062004d4c565b90915550620035b39050338262002f41565b505050505050565b42603555603480546001600160a01b0319166001600160a01b0383169081179091556040517f6ab4d119f23076e8ad491bc65ce85f017fb0591dce08755ba8591059cc51737a90600090a250565b6036805460ff191682151590811790915560006037556040519081527f243ebbb2f905234bbf0556bb38e1f7c23b09ffd2e441a16e58b844eb2ab7a3979060200162000f0c565b6001600160a01b038116620036925760405162461bcd60e51b815260206004820152600760248201526623414c3a30303160c81b604482015260640162000bcf565b60008311620036ce5760405162461bcd60e51b815260206004820152600760248201526611a0a61d18181960c91b604482015260640162000bcf565b60c2546000906001600160a01b039081169063f153768690851615620036f5578462003702565b60bf546001600160a01b03165b6040516001600160e01b031960e084901b1681526001600160a01b0390911660048201526024016040805180830381865afa15801562003746573d6000803e3d6000fd5b505050506040513d601f19601f820116820180604052508101906200376c919062004ed4565b9150506200377962000d63565b806200379d57506001600160a01b038216600090815260c9602052604090205460ff165b620037d55760405162461bcd60e51b815260206004820152600760248201526623414c3a30303360c81b604482015260640162000bcf565b620037df6200222d565b80620037f95750600081815260ca602052604090205460ff165b620038315760405162461bcd60e51b815260206004820152600760248201526608d0530e8c0c0d60ca1b604482015260640162000bcf565b60008062003840858762002531565b6001600160a01b03808716600090815260c7602090815260408083209386168352929052908120805493955091935083926200387e90849062004eb9565b9091555050604080516001600160a01b03808716825284166020820152908101849052606081018290523360808201527fc30593c06911f2f2fc32a69df3a28e4a0b116d8d461b47a005ae4d28cd49282b9060a00160405180910390a1505050505050565b4260378190556040519081527fa52048c5f468d21a62e4644ac4db19bcaa1a20f0cf37d163ba49c7217d35feb89060200162003195565b6040516001600160a01b038085166024830152831660448201526064810182905262002b109085906323b872dd60e01b9060840162003114565b801580620039d25750604051636eb1769f60e11b81523060048201526001600160a01b03838116602483015284169063dd62ed3e90604401602060405180830381865afa158015620039aa573d6000803e3d6000fd5b505050506040513d601f19601f82011682018060405250810190620039d0919062005273565b155b62003a3f5760405162461bcd60e51b815260206004820152603660248201527f5361666545524332303a20617070726f76652066726f6d206e6f6e2d7a65726f60448201527520746f206e6f6e2d7a65726f20616c6c6f77616e636560501b606482015260840162000bcf565b6040516001600160a01b0383166024820152604481018290526200106490849063095ea7b360e01b9060640162003114565b600162003a8160206002620054a7565b62003a8d919062004d4c565b82602001541062003ad45760405162461bcd60e51b815260206004820152601060248201526f1b595c9adb19481d1c995948199d5b1b60821b604482015260640162000bcf565b600182602001600082825462003aeb919062004eb9565b9091555050602082015460005b602081101562003b9657816001166001141562003b2d578284826020811062003b255762003b2562004f25565b015550505050565b83816020811062003b425762003b4262004f25565b0154604080516020810192909252810184905260600160405160208183030381529060405280519060200120925060028262003b7f919062005387565b91508062003b8d8162004d0d565b91505062003af8565b5062001064620054b5565b600054610100900460ff1662003bcb5760405162461bcd60e51b815260040162000bcf90620052bc565b6200101d3362002d45565b600054610100900460ff1662003c005760405162461bcd60e51b815260040162000bcf90620052bc565b60018055565b600062003c5d826040518060400160405280602081526020017f5361666545524332303a206c6f772d6c6576656c2063616c6c206661696c6564815250856001600160a01b0316620043929092919063ffffffff16565b80519091501562001064578080602001905181019062003c7e9190620054cb565b620010645760405162461bcd60e51b815260206004820152602a60248201527f5361666545524332303a204552433230206f7065726174696f6e20646964206e6044820152691bdd081cdd58d8d9595960b21b606482015260840162000bcf565b62003ce962004958565b600081527fad3228b676f7d3cd4284a5443f17f1962b36e491b30a40b2405849e597ba5fb560208201527fb4c11951957c6f8f642c4af61cd6b24640fec6dc7fc607ee8206a99e92410d3060408201527f21ddb9a356815c3fac1026b6dec5df3124afbadb485c9ba5a3e3398a04b7ba8560608201527fe58769b32a1beaf1ea27375a44095a0d1fb664ce2dd358e7fcbfb78c26a1934460808201527f0eb01ebfc9ed27500cd4dfc979272d1f0913cc9f66540d7e8005811109e1cf2d60a08201527f887c22bd8750d34016ac3c66b5ff102dacdd73f6b014e710b51e8022af9a196860c08201527fffd70157e48063fc33c97a050f7f640233bf646cc98d9524c6b92bcf3ab56f8360e08201527f9867cc5f7f196b93bae1e27e6320742445d290f2263827498b54fec539f756af6101008201527fcefad4e508c098b9a7e1d8feb19955fb02ba9675585078710969d3440f5054e06101208201527ff9dc3e7fe016e050eff260334f18a5d4fe391d82092319f5964f2e2eb7c1c3a56101408201527ff8b13a49e282f609c317a833fb8d976d11517c571d1221a265d25af778ecf8926101608201527f3490c6ceeb450aecdc82e28293031d10c7d73bf85e57bf041a97360aa2c5d99c6101808201527fc1df82d9c4b87413eae2ef048f94b4d3554cea73d92b0f7af96e0271c691e2bb6101a08201527f5c67add7c6caf302256adedf7ab114da0acfe870d449a3a489f781d659e8becc6101c08201527fda7bce9f4e8618b6bd2f4132ce798cdc7a60e7e1460a7299e3c6342a579626d26101e08201527f2733e50f526ec2fa19a22b31e8ed50f23cd1fdf94c9154ed3a7609a2f1ff981f6102008201527fe1d3b5c807b281e4683cc6d6315cf95b9ade8641defcb32372f1c126e398ef7a6102208201527f5a2dce0a8a7f68bb74560f8f71837c2c2ebbcbf7fffb42ae1896f13f7c7479a06102408201527fb46a28b6f55540f89444f63de0378e3d121be09e06cc9ded1c20e65876d36aa06102608201527fc65e9645644786b620e2dd2ad648ddfcbf4a7e5b1a3a4ecfe7f64667a3f0b7e26102808201527ff4418588ed35a2458cffeb39b93d26f18d2ab13bdce6aee58e7b99359ec2dfd96102a08201527f5a9c16dc00d6ef18b7933a6f8dc65ccb55667138776f7dea101070dc8796e3776102c08201527f4df84f40ae0c8229d0d6069e5c8f39a7c299677a09d367fc7b05e3bc380ee6526102e08201527fcdc72595f74c7b1043d0e1ffbab734648c838dfb0527d971b602bc216c9619ef6103008201527f0abf5ac974a1ed57f4050aa510dd9c74f508277b39d7973bb2dfccc5eeb0618d6103208201527fb8cd74046ff337f0a7bf2c8e03e10f642c1886798d71806ab1e888d9e5ee87d06103408201527f838c5655cb21c6cb83313b5a631175dff4963772cce9108188b34ac87c81c41e6103608201527f662ee4dd2dd7b2bc707961b1e646c4047669dcb6584f0d8d770daf5d7e7deb2e6103808201527f388ab20e2573d171a88108e79d820e98f26c0b84aa8b2f4aa4968dbb818ea3226103a08201527f93237c50ba75ee485f4c22adf2f741400bdf8d6a9cc7df7ecae576221665d7356103c08201527f8448818bb4ae4562849e949e17ac16e0be16688e156b5cf15e098c627c0056a96103e082015290565b6020820154600090815b60208110156200427a57600182821c166000868360208110620041d357620041d362004f25565b0154905081600114156200421357604080516020810183905290810186905260600160405160208183030381529060405280519060200120945062004262565b8486846020811062004229576200422962004f25565b602002015160405160200162004249929190918252602082015260400190565b6040516020818303038152906040528051906020012094505b50508080620042719062004d0d565b915050620041ac565b505092915050565b60006040518060400160405280846001600160a01b031681526020018381525060405160200162002908919062005517565b6040516001600160a01b0383166024820152604481018290526200106490849063a9059cbb60e01b9060640162003114565b6000620043886200434b85805190602001206040517f19457468657265756d205369676e6564204d6573736167653a0a3332000000006020820152603c8101829052600090605c01604051602081830303815290604052805190602001209050919050565b84848080601f016020809104026020016040519081016040528093929190818152602001838380828437600092019190915250620043a392505050565b90505b9392505050565b6060620043888484600085620043c3565b6000806000620043b48585620044fe565b9150915062002f398162004574565b606082471015620044265760405162461bcd60e51b815260206004820152602660248201527f416464726573733a20696e73756666696369656e742062616c616e636520666f6044820152651c8818d85b1b60d21b606482015260840162000bcf565b6001600160a01b0385163b6200447f5760405162461bcd60e51b815260206004820152601d60248201527f416464726573733a2063616c6c20746f206e6f6e2d636f6e7472616374000000604482015260640162000bcf565b600080866001600160a01b031685876040516200449d91906200554e565b60006040518083038185875af1925050503d8060008114620044dc576040519150601f19603f3d011682016040523d82523d6000602084013e620044e1565b606091505b5091509150620044f382828662004747565b979650505050505050565b600080825160411415620045395760208301516040840151606085015160001a6200452c8782858562004785565b945094505050506200273a565b8251604014156200456757602083015160408401516200455b8683836200487a565b9350935050506200273a565b506000905060026200273a565b60008160048111156200458b576200458b62005562565b1415620045955750565b6001816004811115620045ac57620045ac62005562565b1415620045fc5760405162461bcd60e51b815260206004820152601860248201527f45434453413a20696e76616c6964207369676e61747572650000000000000000604482015260640162000bcf565b600281600481111562004613576200461362005562565b1415620046635760405162461bcd60e51b815260206004820152601f60248201527f45434453413a20696e76616c6964207369676e6174757265206c656e67746800604482015260640162000bcf565b60038160048111156200467a576200467a62005562565b1415620046d55760405162461bcd60e51b815260206004820152602260248201527f45434453413a20696e76616c6964207369676e6174757265202773272076616c604482015261756560f01b606482015260840162000bcf565b6004816004811115620046ec57620046ec62005562565b141562001f1a5760405162461bcd60e51b815260206004820152602260248201527f45434453413a20696e76616c6964207369676e6174757265202776272076616c604482015261756560f01b606482015260840162000bcf565b60608315620047585750816200438b565b825115620047695782518084602001fd5b8160405162461bcd60e51b815260040162000bcf919062005578565b6000807f7fffffffffffffffffffffffffffffff5d576e7357a4501ddfe92f46681b20a0831115620047be575060009050600362004871565b8460ff16601b14158015620047d757508460ff16601c14155b15620047ea575060009050600462004871565b6040805160008082526020820180845289905260ff881692820192909252606081018690526080810185905260019060a0016020604051602081039080840390855afa1580156200483f573d6000803e3d6000fd5b5050604051601f1901519150506001600160a01b0381166200486a5760006001925092505062004871565b9150600090505b94509492505050565b6000806001600160ff1b038316816200489960ff86901c601b62004eb9565b9050620048a98782888562004785565b935093505050935093915050565b610a2d806200558e83390190565b826003810192821562004910579160200282015b828111156200491057825182546001600160a01b0319166001600160a01b03909116178255602090920191600190910190620048d9565b506200491e92915062004977565b5090565b826003810192821562004910579160200282015b8281111562004910578251829060ff1690559160200191906001019062004936565b6040518061040001604052806020906020820280368337509192915050565b5b808211156200491e576000815560010162004978565b600060208284031215620049a157600080fd5b813567ffffffffffffffff811115620049b957600080fd5b8201606081850312156200438b57600080fd5b63ffffffff8116811462001f1a57600080fd5b8035620049ec81620049cc565b919050565b6000806040838503121562004a0557600080fd5b823562004a1281620049cc565b946020939093013593505050565b60006040828403121562004a3357600080fd5b50919050565b6001600160a01b038116811462001f1a57600080fd5b6000806060838503121562004a6357600080fd5b62004a6f848462004a20565b9150604083013562004a818162004a39565b809150509250929050565b60006020828403121562004a9f57600080fd5b5035919050565b60006020828403121562004ab957600080fd5b81356200438b8162004a39565b6000806040838503121562004ada57600080fd5b823562004ae78162004a39565b9150602083013562004a818162004a39565b60008060006080848603121562004b0f57600080fd5b62004b1b858562004a20565b9250604084013562004b2d8162004a39565b9150606084013562004b3f8162004a39565b809150509250925092565b6000806000806080858703121562004b6157600080fd5b84359350602085013562004b758162004a39565b9250604085013562004b878162004a39565b9150606085013562004b998162004a39565b939692955090935050565b6000806000806000806104a0878903121562004bbf57600080fd5b8635955060208701359450604087013562004bda8162004a39565b93506060870135925061048087018881111562004bf657600080fd5b6080880192503567ffffffffffffffff81111562004c1357600080fd5b87016080818a03121562004c2657600080fd5b809150509295509295509295565b6000806040838503121562004c4857600080fd5b82359150602083013562004a818162004a39565b60006020828403121562004c6f57600080fd5b81356200438b81620049cc565b60006020828403121562004c8f57600080fd5b813567ffffffffffffffff81111562004ca757600080fd5b820161050081850312156200438b57600080fd5b60008060006060848603121562004cd157600080fd5b83359250602084013562004ce58162004a39565b9150604084013562004b3f8162004a39565b634e487b7160e01b600052601160045260246000fd5b600060001982141562004d245762004d2462004cf7565b5060010190565b60008235607e1983360301811262004d4257600080fd5b9190910192915050565b60008282101562004d615762004d6162004cf7565b500390565b81835281816020850137506000828201602090810191909152601f909101601f19169091010190565b6000813562004d9e8162004a39565b6001600160a01b03168352602082013536839003601e1901811262004dc257600080fd5b8201803567ffffffffffffffff81111562004ddc57600080fd5b80360384131562004dec57600080fd5b6080602086015262004e0660808601826020850162004d66565b915050604083013562004e1981620049cc565b63ffffffff16604085015262004e3260608401620049df565b63ffffffff8116606086015262002f39565b60e08152600062004e5960e083018a62004d8f565b6001600160a01b0398891660208401529688166040830152506060810194909452608084019290925260a083015290921660c090920191909152919050565b602080825260079082015266234f4f3a30323960c81b604082015260600190565b6000821982111562004ecf5762004ecf62004cf7565b500190565b6000806040838503121562004ee857600080fd5b825162004ef581620049cc565b6020939093015192949293505050565b60006020828403121562004f1857600080fd5b81516200438b8162004a39565b634e487b7160e01b600052603260045260246000fd5b8060005b600381101562002b105781516001600160a01b031684526020938401939091019060010162004f3f565b8060005b600381101562002b1057815184526020938401939091019060010162004f6d565b610100810162004f9f828762004f3b565b62004fae606083018662004f69565b63ffffffff9390931660c082015260e0015292915050565b63ffffffff8616815260208101859052610120810162004fea604083018662004f3b565b62004ff960a083018562004f69565b6001600160a01b03929092166101009190910152949350505050565b6000808335601e198436030181126200502d57600080fd5b83018035915067ffffffffffffffff8211156200504957600080fd5b6020019150368190038213156200273a57600080fd5b8183823760009101908152919050565b8681526001600160a01b038681166020830152851660408201526060810184905260a060808201819052600090620050ab908301848662004d66565b98975050505050505050565b80518015158114620049ec57600080fd5b634e487b7160e01b600052604160045260246000fd5b60005b83811015620050fb578181015183820152602001620050e1565b8381111562002b105750506000910152565b6000806000606084860312156200512357600080fd5b6200512e84620050b7565b92506200513e60208501620050b7565b9150604084015167ffffffffffffffff808211156200515c57600080fd5b818601915086601f8301126200517157600080fd5b815181811115620051865762005186620050c8565b604051601f8201601f19908116603f01168101908382118183101715620051b157620051b1620050c8565b81604052828152896020848701011115620051cb57600080fd5b620051de836020830160208801620050de565b80955050505050509250925092565b60c0815260006200520260c083018962004d8f565b6001600160a01b0397881660208401529587166040830152506060810193909352608083019190915290921660a090920191909152919050565b6020808252601f908201527f5265656e7472616e637947756172643a207265656e7472616e742063616c6c00604082015260600190565b6000602082840312156200528657600080fd5b5051919050565b81356200529a81620049cc565b63ffffffff811663ffffffff1983541617825550602082013560018201555050565b6020808252602b908201527f496e697469616c697a61626c653a20636f6e7472616374206973206e6f74206960408201526a6e697469616c697a696e6760a81b606082015260800190565b888152602081018890526001600160a01b0387811660408301528616606082015260e06080820181905260009062005343908301868862004d66565b63ffffffff94851660a08401529290931660c090910152979650505050505050565b600081600019048311821515161562005382576200538262004cf7565b500290565b600082620053a557634e487b7160e01b600052601260045260246000fd5b500490565b600181815b80851115620053eb578160001904821115620053cf57620053cf62004cf7565b80851615620053dd57918102915b93841c9390800290620053af565b509250929050565b600082620054045750600162002921565b81620054135750600062002921565b81600181146200542c5760028114620054375762005457565b600191505062002921565b60ff8411156200544b576200544b62004cf7565b50506001821b62002921565b5060208310610133831016604e8410600b84101617156200547c575081810a62002921565b620054888383620053aa565b80600019048211156200549f576200549f62004cf7565b029392505050565b60006200438b8383620053f3565b634e487b7160e01b600052600160045260246000fd5b600060208284031215620054de57600080fd5b6200438b82620050b7565b6000815180845262005503816020860160208601620050de565b601f01601f19169290920160200192915050565b602080825282516001600160a01b031682820152820151604080830152600090620055466060840182620054e9565b949350505050565b6000825162004d42818460208701620050de565b634e487b7160e01b600052602160045260246000fd5b6020815260006200438b6020830184620054e956fe60a060405234801561001057600080fd5b50604051610a2d380380610a2d83398101604081905261002f91610045565b60016000556001600160a01b0316608052610075565b60006020828403121561005757600080fd5b81516001600160a01b038116811461006e57600080fd5b9392505050565b608051610998610095600039600081816048015260a901526109986000f3fe6080604052600436106100295760003560e01c8063975740c61461002e578063a81a368d14610077575b600080fd5b34801561003a57600080fd5b506040516001600160a01b037f00000000000000000000000000000000000000000000000000000000000000001681526020015b60405180910390f35b61008a610085366004610723565b610099565b60405161006e93929190610825565b6000806060336001600160a01b037f000000000000000000000000000000000000000000000000000000000000000016146101055760405162461bcd60e51b8152602060048201526007602482015266234f433a30323760c81b60448201526064015b60405180910390fd5b6001600160a01b038716158061012057610120888a8961021d565b600060606001600160a01b038b163b158015906101a8578b6001600160a01b03168461014d57600061014f565b8a5b8a8a60405161015f929190610851565b60006040518083038185875af1925050503d806000811461019c576040519150601f19603f3d011682016040523d82523d6000602084013e6101a1565b606091505b5090935091505b826101bd57836101bd576101bd8b8d8c61026d565b8b6001600160a01b03168d7fba8945310c2d5b346d3320f14e4072113b27427d9442cd033665c6f70244a1a28d8d8d8d888a896040516102039796959493929190610861565b60405180910390a3919c919b509950975050505050505050565b6001600160a01b03831661025d5760405162461bcd60e51b815260206004820152600760248201526608d2504e8c0ccd60ca1b60448201526064016100fc565b6102688383836102b8565b505050565b6001600160a01b0383166102ad5760405162461bcd60e51b815260206004820152600760248201526608d1104e8c0ccd60ca1b60448201526064016100fc565b6102688383836103a3565b604051636eb1769f60e11b81523060048201526001600160a01b038381166024830152600091839186169063dd62ed3e90604401602060405180830381865afa158015610309573d6000803e3d6000fd5b505050506040513d601f19601f8201168201806040525081019061032d91906108d2565b61033791906108eb565b6040516001600160a01b03851660248201526044810182905290915061039d90859063095ea7b360e01b906064015b60408051601f198184030181529190526020810180516001600160e01b03166001600160e01b0319909316929092179091526104b6565b50505050565b604051636eb1769f60e11b81523060048201526001600160a01b0383811660248301526000919085169063dd62ed3e90604401602060405180830381865afa1580156103f3573d6000803e3d6000fd5b505050506040513d601f19601f8201168201806040525081019061041791906108d2565b90508181101561047b5760405162461bcd60e51b815260206004820152602960248201527f5361666545524332303a2064656372656173656420616c6c6f77616e63652062604482015268656c6f77207a65726f60b81b60648201526084016100fc565b6040516001600160a01b038416602482015282820360448201819052906104af90869063095ea7b360e01b90606401610366565b5050505050565b600061050b826040518060400160405280602081526020017f5361666545524332303a206c6f772d6c6576656c2063616c6c206661696c6564815250856001600160a01b03166105889092919063ffffffff16565b80519091501561026857808060200190518101906105299190610911565b6102685760405162461bcd60e51b815260206004820152602a60248201527f5361666545524332303a204552433230206f7065726174696f6e20646964206e6044820152691bdd081cdd58d8d9595960b21b60648201526084016100fc565b606061059784846000856105a1565b90505b9392505050565b6060824710156106025760405162461bcd60e51b815260206004820152602660248201527f416464726573733a20696e73756666696369656e742062616c616e636520666f6044820152651c8818d85b1b60d21b60648201526084016100fc565b6001600160a01b0385163b6106595760405162461bcd60e51b815260206004820152601d60248201527f416464726573733a2063616c6c20746f206e6f6e2d636f6e747261637400000060448201526064016100fc565b600080866001600160a01b031685876040516106759190610933565b60006040518083038185875af1925050503d80600081146106b2576040519150601f19603f3d011682016040523d82523d6000602084013e6106b7565b606091505b50915091506106c78282866106d2565b979650505050505050565b606083156106e157508161059a565b8251156106f15782518084602001fd5b8160405162461bcd60e51b81526004016100fc919061094f565b6001600160a01b038116811461072057600080fd5b50565b60008060008060008060a0878903121561073c57600080fd5b86359550602087013561074e8161070b565b9450604087013561075e8161070b565b935060608701359250608087013567ffffffffffffffff8082111561078257600080fd5b818901915089601f83011261079657600080fd5b8135818111156107a557600080fd5b8a60208285010111156107b757600080fd5b6020830194508093505050509295509295509295565b60005b838110156107e85781810151838201526020016107d0565b8381111561039d5750506000910152565b600081518084526108118160208601602086016107cd565b601f01601f19169290920160200192915050565b8315158152821515602082015260606040820152600061084860608301846107f9565b95945050505050565b8183823760009101908152919050565b6001600160a01b03881681526020810187905260c0604082018190528101859052848660e0830137600060e086830101526000601f19601f870116820160e08382030160608401526108b660e08201876107f9565b9415156080840152505090151560a09091015295945050505050565b6000602082840312156108e457600080fd5b5051919050565b6000821982111561090c57634e487b7160e01b600052601160045260246000fd5b500190565b60006020828403121561092357600080fd5b8151801515811461059a57600080fd5b600082516109458184602087016107cd565b9190910192915050565b60208152600061059a60208301846107f956fea26469706673582212200fd8419e1c5a6a9f17cff24b79788b595e2c84269e672290facd383eff7ef52864736f6c634300080b0033a2646970667358221220a2233c918b1fd3e08770b1db3c2440698489275b88af8980c2b684d36ac3aa6764736f6c634300080b0033",
  "devdoc": {
    "events": {
      "AssetAdded(bytes32,uint32,address,address,address)": {
        "params": {
          "adoptedAsset": "- The address of the adopted (user-expected) asset",
          "caller": "- The account that called the function",
          "canonicalId": "- The canonical identifier of the token the local <> adopted AMM is for",
          "domain": "- The domain of the canonical token for the local <> adopted amm",
          "supportedAsset": "- The address of the whitelisted asset. If the native asset is to be whitelisted, the address of the wrapped version will be stored"
        }
      },
      "AssetRemoved(bytes32,address)": {
        "params": {
          "caller": "- The account that called the function",
          "canonicalId": "- The canonical identifier of the token removed"
        }
      },
      "Dispatched(uint32,bytes32,address[3],uint256[3],address)": {
        "details": "This function calls `send` on the bridge router"
      },
      "Executed(bytes32,address,address,(address,bytes,uint32,uint32),address,address,uint256,uint256,address)": {
        "details": "`execute` may be called when providing fast liquidity *or* when processing a reconciled transfer",
        "params": {
          "caller": "- The account that called the function",
          "localAmount": "- The amount that was provided by the bridge",
          "localAsset": "- The asset that was provided by the bridge",
          "params": "- The CallParams provided to the function",
          "router": "- The router that supplied fast liquidity, if applicable",
          "to": "- The CallParams.to provided, created as indexed parameter",
          "transferId": "- The unique identifier of the crosschain transfer",
          "transferringAmount": "- The amount of transferring asset the to address receives or the external call is executed with",
          "transferringAsset": "- The asset the to gets or the external call is executed with. Should be the adopted asset on that chain."
        }
      },
      "LiquidityAdded(address,address,bytes32,uint256,address)": {
        "params": {
          "amount": "- The amount of liquidity added",
          "caller": "- The account that called the function",
          "local": "- The address of the token added (all liquidity held in local asset)",
          "router": "- The address of the router the funds were credited to"
        }
      },
      "LiquidityRemoved(address,address,address,uint256,address)": {
        "params": {
          "amount": "- The amount of liquidity withdrawn",
          "caller": "- The account that called the function",
          "local": "- The address of the token withdrawn",
          "router": "- The router you are removing liquidity from",
          "to": "- The address the funds were withdrawn to"
        }
      },
      "Reconciled(bytes32,address)": {
        "params": {
          "root": "- the new root delivered by the bridge"
        }
      },
      "RouterAdded(address,address)": {
        "params": {
          "caller": "- The account that called the function",
          "router": "- The address of the added router"
        }
      },
      "RouterRemoved(address,address)": {
        "params": {
          "caller": "- The account that called the function",
          "router": "- The address of the removed router"
        }
      },
      "StableSwapAdded(bytes32,uint32,address,address)": {
        "params": {
          "caller": "- The account that called the function",
          "canonicalId": "- The canonical identifier of the token the local <> adopted AMM is for",
          "domain": "- The domain of the canonical token for the local <> adopted amm",
          "swapPool": "- The address of the AMM"
        }
      },
      "XCalled(bytes32,uint256,address,(address,bytes,uint32,uint32),address,address,uint256,uint256,uint256,address)": {
        "params": {
          "caller": "- The account that called the function",
          "idx": "- The leaf index of the transfer in batch tree",
          "localAmount": "- The amount sent over the bridge (initialAmount with slippage)",
          "localAsset": "- The asset sent over the bridge. Will be the local asset of nomad that corresponds to the provided `transferringAsset`",
          "nonce": "- The nonce of the origin domain contract. Used to create the unique identifier for the transfer",
          "params": "- The CallParams provided to the function",
          "to": "- The CallParams.to provided, created as indexed parameter",
          "transferId": "- The unique identifier of the crosschain transfer",
          "transferringAmount": "- The amount of transferring asset the tx xcalled with",
          "transferringAsset": "- The asset the caller sent with the transfer. Can be the adopted, canonical, or the representational asset"
        }
      }
    },
    "kind": "dev",
    "methods": {
      "addLiquidity(uint256,address)": {
        "details": "The liquidity will be held in the local asset, which is the representation if you are *not* on the canonical domain, and the canonical asset otherwise.",
        "params": {
          "amount": "- The amount of liquidity to add for the router",
          "local": "- The address of the asset you're adding liquidity for. If adding liquidity of the native asset, routers may use `address(0)` or the wrapped asset"
        }
      },
      "addLiquidityFor(uint256,address,address)": {
        "details": "The liquidity will be held in the local asset, which is the representation if you are *not* on the canonical domain, and the canonical asset otherwise.",
        "params": {
          "amount": "- The amount of liquidity to add for the router",
          "local": "- The address of the asset you're adding liquidity for. If adding liquidity of the native asset, routers may use `address(0)` or the wrapped asset",
          "router": "The router you are adding liquidity on behalf of"
        }
      },
      "addRelayerFees(address)": {
        "params": {
          "router": "- The router to credit"
        }
      },
      "addRouter(address)": {
        "params": {
          "router": "Router address to add"
        }
      },
      "execute(((address,bytes,uint32,uint32),address,address,uint32,uint256,uint256,bytes32,bytes32[32],bytes))": {
        "details": "Will store the `ExecutedTransfer` if fast liquidity is provided, or assert the hash of the `ReconciledTransfer` when using bridge liquidity",
        "params": {
          "_args": "- The `ExecuteArgs` for the transfer"
        },
        "returns": {
          "_0": "The transfer id of the crosschain transfer"
        }
      },
      "reconcile(bytes32)": {
        "params": {
          "_incomingRoot": "- The hash of the `ExternalCall` passed through the bridge"
        }
      },
      "removeAssetId(bytes32,address)": {
        "params": {
          "adoptedAssetId": "- Corresponding adopted asset to remove",
          "canonicalId": "- Token id to remove"
        }
      },
      "removeLiquidity(uint256,address,address)": {
        "params": {
          "amount": "- The amount of liquidity to remove for the router",
          "local": "- The address of the asset you're removing liquidity from. If removing liquidity of the native asset, routers may use `address(0)` or the wrapped asset",
          "to": "The address that will receive the liquidity being removed"
        }
      },
      "removeRelayerFees(uint256,address)": {
        "details": "Must be called by the router you are decrementing relayer fees for",
        "params": {
          "amount": "- The amount of relayer fee to remove",
          "to": "- Who to send funds to"
        }
      },
      "removeRouter(address)": {
        "params": {
          "router": "Router address to remove"
        }
      },
      "setupAsset((uint32,bytes32),address,address)": {
        "details": "When whitelisting the canonical asset, all representational assets would be whitelisted as well. In the event you have a different adopted asset (i.e. PoS USDC on polygon), you should *not* whitelist the adopted asset. The stable swap pool address used should allow you to swap between the local <> adopted asset",
        "params": {
          "adoptedAssetId": "- The used asset id for this domain (i.e. PoS USDC for polygon)",
          "canonical": "- The canonical asset to add by id and domain. All representations will be whitelisted as well",
          "stableSwapPool": "- Address of the pool to swap adopted <> local asset"
        }
      },
      "xcall(((address,bytes,uint32,uint32),address,uint256))": {
        "details": "This contract must have approval to transfer the adopted assets. They are then swapped to the local nomad assets via the configured AMM and sent over the bridge router.",
        "params": {
          "_args": "- The XCallArgs"
        },
        "returns": {
          "_0": "The transfer id of the crosschain transfer"
        }
      }
    },
    "stateVariables": {
      "__gap": {
        "details": "This empty reserved space is put in place to allow future versions to add new variables without shifting down storage in the inheritance chain. See https://docs.openzeppelin.com/contracts/4.x/upgradeable#storage_gaps"
      },
      "adoptedToCanonical": {
        "details": "If the adopted asset is the native asset, the keyed address will be the wrapped asset address"
      },
      "adoptedToLocalPools": {
        "details": "Swaps for an adopted asset <> nomad local asset (i.e. POS USDC <> madUSDC on polygon)"
      },
      "approvedAssets": {
        "details": "Mapping is keyed on the canonical token identifier matching what is stored in the token registry"
      },
      "canonicalToAdopted": {
        "details": "If the adopted asset is the native asset, the stored address will be the wrapped asset address"
      },
      "domain": {
        "details": "Must match the nomad domain, which is distinct from the \"chainId\""
      },
      "nonce": {
        "details": "Assigned at first interaction (xcall on origin domain);"
      },
      "routedTransfers": {
        "details": "This information is stored onchain if fast liquidity is provided"
      },
      "routedTransfersGas": {
        "details": "This informaion is stored onchain if fast liquidity is provided"
      },
      "routerBalances": {
        "details": "Routers should always store liquidity that they can expect to receive via the bridge on this domain (the nomad local asset)"
      },
      "routerRelayerFees": {
        "details": "Right now, routers only store native asset onchain. TODO: allow for approved relaying assets"
      },
      "wrapper": {
        "details": "Needed because the nomad only handles ERC20 assets"
      }
    },
    "version": 1
  },
  "userdoc": {
    "events": {
      "AssetAdded(bytes32,uint32,address,address,address)": {
        "notice": "Emitted when a new asset is added"
      },
      "AssetRemoved(bytes32,address)": {
        "notice": "Emitted when an asset is removed from whitelists"
      },
      "Dispatched(uint32,bytes32,address[3],uint256[3],address)": {
        "notice": "Emitted when a batch is `dispatched` to destination"
      },
      "Executed(bytes32,address,address,(address,bytes,uint32,uint32),address,address,uint256,uint256,address)": {
        "notice": "Emitted when `execute` is called on the destination chain"
      },
      "LiquidityAdded(address,address,bytes32,uint256,address)": {
        "notice": "Emitted when a router adds liquidity to the contract"
      },
      "LiquidityRemoved(address,address,address,uint256,address)": {
        "notice": "Emitted when a router withdraws liquidity from the contract"
      },
      "Reconciled(bytes32,address)": {
        "notice": "Emitted when `reconciled` is called by the bridge on the destination domain"
      },
      "RouterAdded(address,address)": {
        "notice": "Emitted when a new router is added"
      },
      "RouterRemoved(address,address)": {
        "notice": "Emitted when an existing router is removed"
      },
      "StableSwapAdded(bytes32,uint32,address,address)": {
        "notice": "Emitted when a new stable-swap AMM is added for the local <> adopted token"
      },
      "XCalled(bytes32,uint256,address,(address,bytes,uint32,uint32),address,address,uint256,uint256,uint256,address)": {
        "notice": "Emitted when `xcall` is called on the origin domain"
      }
    },
    "kind": "user",
    "methods": {
      "acceptProposedOwner()": {
        "notice": "Transfers ownership of the contract to a new account (`newOwner`). Can only be called by the current owner."
      },
      "addLiquidity(uint256,address)": {
        "notice": "This is used by any router to increase their available liquidity for a given asset."
      },
      "addLiquidityFor(uint256,address,address)": {
        "notice": "This is used by anyone to increase a router's available liquidity for a given asset."
      },
      "addRelayerFees(address)": {
        "notice": "Used to add relayer fees in the native asset"
      },
      "addRouter(address)": {
        "notice": "Used to add routers that can transact crosschain"
      },
      "addStableSwapPool((uint32,bytes32),address)": {
        "notice": "Adds a stable swap pool for the local <> adopted asset."
      },
      "adoptedToCanonical(address)": {
        "notice": "Mapping of canonical to adopted assets on this domain"
      },
      "adoptedToLocalPools(bytes32)": {
        "notice": "Mapping holding the AMMs for swapping in and out of local assets"
      },
      "approvedAssets(bytes32)": {
        "notice": "Mapping of whitelisted assets on same domain as contract"
      },
      "approvedRouters(address)": {
        "notice": "Mapping of whitelisted router addresses."
      },
      "assetOwnershipTimestamp()": {
        "notice": "Returns the timestamp when asset ownership was last proposed to be renounced"
      },
      "bridgeRouter()": {
        "notice": "The local nomad bridge router"
      },
      "canonicalToAdopted(bytes32)": {
        "notice": "Mapping of adopted to canonical on this domain"
      },
      "count()": {
        "notice": "Returns the number of inserted leaves in the tree (current index)"
      },
      "delay()": {
        "notice": "Returns the delay period before a new owner can be accepted."
      },
      "dispatch(uint32)": {
        "notice": "Sends a transfer root through nomad"
      },
      "domain()": {
        "notice": "The domain this contract exists on"
      },
      "execute(((address,bytes,uint32,uint32),address,address,uint32,uint256,uint256,bytes32,bytes32[32],bytes))": {
        "notice": "This function is called on the destination chain when the bridged asset should be swapped into the adopted asset and the external call executed. Can be used before reconcile (when providing fast liquidity) or after reconcile (when using liquidity from the bridge)"
      },
      "executor()": {
        "notice": "The external contract that will execute crosschain calldata"
      },
      "incomingRoot()": {
        "notice": "Latest root passed through nomad system. Should include all transfers"
      },
      "isAssetOwnershipRenounced()": {
        "notice": "Indicates if the ownership of the asset whitelist has been renounced"
      },
      "isRouterOwnershipRenounced()": {
        "notice": "Indicates if the ownership of the router whitelist has been renounced"
      },
      "nonce()": {
        "notice": "Nonce for the contract, used to keep unique transfer ids."
      },
      "owner()": {
        "notice": "Returns the address of the current owner."
      },
      "process(bytes32,uint256,address,uint256,bytes32[32],(address,bytes,uint32,uint32))": {
        "notice": "Called by routers that sent fast liquidity to claim funds once a batch-transfer root has been put onchain via nomad."
      },
      "proposeAssetOwnershipRenunciation()": {
        "notice": "Indicates if the ownership of the asset whitelist has been renounced"
      },
      "proposeNewOwner(address)": {
        "notice": "Sets the timestamp for an owner to be proposed, and sets the newly proposed owner as step 1 in a 2-step process"
      },
      "proposeRouterOwnershipRenunciation()": {
        "notice": "Indicates if the ownership of the router whitelist has been renounced"
      },
      "proposed()": {
        "notice": "Returns the address of the proposed owner."
      },
      "proposedTimestamp()": {
        "notice": "Returns the address of the proposed owner."
      },
      "reconcile(bytes32)": {
        "notice": "This function is called by the bridge router to pass through the merkle root of the batch."
      },
      "removeAssetId(bytes32,address)": {
        "notice": "Used to remove assets from the whitelist"
      },
      "removeLiquidity(uint256,address,address)": {
        "notice": "This is used by any router to decrease their available liquidity for a given asset."
      },
      "removeRelayerFees(uint256,address)": {
        "notice": "Used to remove relayer fee in the native asset"
      },
      "removeRouter(address)": {
        "notice": "Used to remove routers that can transact crosschain"
      },
      "renounceAssetOwnership()": {
        "notice": "Indicates if the ownership of the asset whitelist has been renounced"
      },
      "renounceOwnership()": {
        "notice": "Renounces ownership of the contract after a delay"
      },
      "renounceRouterOwnership()": {
        "notice": "Indicates if the ownership of the asset whitelist has been renounced"
      },
      "renounced()": {
        "notice": "Indicates if the ownership has been renounced() by checking if current owner is address(0)"
      },
      "root()": {
        "notice": "Calculates and returns tree's current root"
      },
      "routedTransfers(bytes32)": {
        "notice": "Stores the transferId => ExecutedTransfer mapping"
      },
      "routedTransfersGas(bytes32)": {
        "notice": "Stores the transferId => GasInfo mapping to track gas used on `execute`"
      },
      "routerBalances(address,address)": {
        "notice": "Mapping of router to available balance of an asset"
      },
      "routerOwnershipTimestamp()": {
        "notice": "Returns the timestamp when router ownership was last proposed to be renounced"
      },
      "routerRelayerFees(address)": {
        "notice": "Mapping of router to available relayer fee"
      },
      "setupAsset((uint32,bytes32),address,address)": {
        "notice": "Used to add supported assets. This is an admin only function"
      },
      "tokenRegistry()": {
        "notice": "The local nomad token registry"
      },
      "wrapper()": {
        "notice": "The address of the wrapper for the native asset on this domain"
      },
      "xcall(((address,bytes,uint32,uint32),address,uint256))": {
        "notice": "This function is called by a user who is looking to bridge funds"
      }
    },
    "version": 1
  },
  "storageLayout": {
    "storage": [
      {
        "astId": 130,
        "contract": "contracts/Connext.sol:Connext",
        "label": "_initialized",
        "offset": 0,
        "slot": "0",
        "type": "t_bool"
      },
      {
        "astId": 133,
        "contract": "contracts/Connext.sol:Connext",
        "label": "_initializing",
        "offset": 1,
        "slot": "0",
        "type": "t_bool"
      },
      {
        "astId": 322,
        "contract": "contracts/Connext.sol:Connext",
        "label": "_status",
        "offset": 0,
        "slot": "1",
        "type": "t_uint256"
      },
      {
        "astId": 366,
        "contract": "contracts/Connext.sol:Connext",
        "label": "__gap",
        "offset": 0,
        "slot": "2",
        "type": "t_array(t_uint256)49_storage"
      },
      {
        "astId": 8105,
        "contract": "contracts/Connext.sol:Connext",
        "label": "_owner",
        "offset": 0,
        "slot": "51",
        "type": "t_address"
      },
      {
        "astId": 8107,
        "contract": "contracts/Connext.sol:Connext",
        "label": "_proposed",
        "offset": 0,
        "slot": "52",
        "type": "t_address"
      },
      {
        "astId": 8109,
        "contract": "contracts/Connext.sol:Connext",
        "label": "_proposedOwnershipTimestamp",
        "offset": 0,
        "slot": "53",
        "type": "t_uint256"
      },
      {
        "astId": 8111,
        "contract": "contracts/Connext.sol:Connext",
        "label": "_routerOwnershipRenounced",
        "offset": 0,
        "slot": "54",
        "type": "t_bool"
      },
      {
        "astId": 8113,
        "contract": "contracts/Connext.sol:Connext",
        "label": "_routerOwnershipTimestamp",
        "offset": 0,
        "slot": "55",
        "type": "t_uint256"
      },
      {
        "astId": 8115,
        "contract": "contracts/Connext.sol:Connext",
        "label": "_assetOwnershipRenounced",
        "offset": 0,
        "slot": "56",
        "type": "t_bool"
      },
      {
        "astId": 8117,
        "contract": "contracts/Connext.sol:Connext",
        "label": "_assetOwnershipTimestamp",
        "offset": 0,
        "slot": "57",
        "type": "t_uint256"
      },
      {
        "astId": 8606,
        "contract": "contracts/Connext.sol:Connext",
        "label": "__gap",
        "offset": 0,
        "slot": "58",
        "type": "t_array(t_uint256)49_storage"
      },
      {
        "astId": 14169,
        "contract": "contracts/Connext.sol:Connext",
        "label": "tree",
        "offset": 0,
        "slot": "107",
        "type": "t_struct(Tree)17575_storage"
      },
      {
        "astId": 14173,
        "contract": "contracts/Connext.sol:Connext",
        "label": "__GAP",
        "offset": 0,
        "slot": "140",
        "type": "t_array(t_uint256)49_storage"
      },
      {
        "astId": 5641,
        "contract": "contracts/Connext.sol:Connext",
        "label": "EMPTY",
        "offset": 0,
        "slot": "189",
        "type": "t_bytes32"
      },
      {
        "astId": 5645,
        "contract": "contracts/Connext.sol:Connext",
        "label": "bridgeRouter",
        "offset": 0,
        "slot": "190",
        "type": "t_contract(BridgeRouter)22091"
      },
      {
        "astId": 5649,
        "contract": "contracts/Connext.sol:Connext",
        "label": "wrapper",
        "offset": 0,
        "slot": "191",
        "type": "t_contract(IWrapped)9894"
      },
      {
        "astId": 5652,
        "contract": "contracts/Connext.sol:Connext",
        "label": "nonce",
        "offset": 0,
        "slot": "192",
        "type": "t_uint256"
      },
      {
        "astId": 5656,
        "contract": "contracts/Connext.sol:Connext",
        "label": "executor",
        "offset": 0,
        "slot": "193",
        "type": "t_contract(IExecutor)9611"
      },
      {
        "astId": 5660,
        "contract": "contracts/Connext.sol:Connext",
        "label": "tokenRegistry",
        "offset": 0,
        "slot": "194",
        "type": "t_contract(TokenRegistry)23397"
      },
      {
        "astId": 5666,
        "contract": "contracts/Connext.sol:Connext",
        "label": "adoptedToLocalPools",
        "offset": 0,
        "slot": "195",
        "type": "t_mapping(t_bytes32,t_contract(IStableSwap)9883)"
      },
      {
        "astId": 5672,
        "contract": "contracts/Connext.sol:Connext",
        "label": "routedTransfers",
        "offset": 0,
        "slot": "196",
        "type": "t_mapping(t_bytes32,t_struct(ExecutedTransfer)5454_storage)"
      },
      {
        "astId": 5678,
        "contract": "contracts/Connext.sol:Connext",
        "label": "routedTransfersGas",
        "offset": 0,
        "slot": "197",
        "type": "t_mapping(t_bytes32,t_struct(GasInfo)5459_storage)"
      },
      {
        "astId": 5681,
        "contract": "contracts/Connext.sol:Connext",
        "label": "domain",
        "offset": 0,
        "slot": "198",
        "type": "t_uint256"
      },
      {
        "astId": 5688,
        "contract": "contracts/Connext.sol:Connext",
        "label": "routerBalances",
        "offset": 0,
        "slot": "199",
        "type": "t_mapping(t_address,t_mapping(t_address,t_uint256))"
      },
      {
        "astId": 5693,
        "contract": "contracts/Connext.sol:Connext",
        "label": "routerRelayerFees",
        "offset": 0,
        "slot": "200",
        "type": "t_mapping(t_address,t_uint256)"
      },
      {
        "astId": 5698,
        "contract": "contracts/Connext.sol:Connext",
        "label": "approvedRouters",
        "offset": 0,
        "slot": "201",
        "type": "t_mapping(t_address,t_bool)"
      },
      {
        "astId": 5703,
        "contract": "contracts/Connext.sol:Connext",
        "label": "approvedAssets",
        "offset": 0,
        "slot": "202",
        "type": "t_mapping(t_bytes32,t_bool)"
      },
      {
        "astId": 5709,
        "contract": "contracts/Connext.sol:Connext",
        "label": "adoptedToCanonical",
        "offset": 0,
        "slot": "203",
        "type": "t_mapping(t_address,t_struct(TokenId)20550_storage)"
      },
      {
        "astId": 5714,
        "contract": "contracts/Connext.sol:Connext",
        "label": "canonicalToAdopted",
        "offset": 0,
        "slot": "204",
        "type": "t_mapping(t_bytes32,t_address)"
      },
      {
        "astId": 5720,
        "contract": "contracts/Connext.sol:Connext",
        "label": "batchAssets",
        "offset": 0,
        "slot": "205",
        "type": "t_mapping(t_uint32,t_array(t_address)3_storage)"
      },
      {
        "astId": 5726,
        "contract": "contracts/Connext.sol:Connext",
        "label": "batchAmounts",
        "offset": 0,
        "slot": "206",
        "type": "t_mapping(t_uint32,t_array(t_uint256)3_storage)"
      },
      {
        "astId": 5729,
        "contract": "contracts/Connext.sol:Connext",
        "label": "incomingRoot",
        "offset": 0,
        "slot": "207",
        "type": "t_bytes32"
      },
      {
        "astId": 7488,
        "contract": "contracts/Connext.sol:Connext",
        "label": "__gap",
        "offset": 0,
        "slot": "208",
        "type": "t_array(t_uint256)49_storage"
      }
    ],
    "types": {
      "t_address": {
        "encoding": "inplace",
        "label": "address",
        "numberOfBytes": "20"
      },
      "t_array(t_address)3_storage": {
        "base": "t_address",
        "encoding": "inplace",
        "label": "address[3]",
        "numberOfBytes": "96"
      },
      "t_array(t_bytes32)32_storage": {
        "base": "t_bytes32",
        "encoding": "inplace",
        "label": "bytes32[32]",
        "numberOfBytes": "1024"
      },
      "t_array(t_uint256)3_storage": {
        "base": "t_uint256",
        "encoding": "inplace",
        "label": "uint256[3]",
        "numberOfBytes": "96"
      },
      "t_array(t_uint256)49_storage": {
        "base": "t_uint256",
        "encoding": "inplace",
        "label": "uint256[49]",
        "numberOfBytes": "1568"
      },
      "t_bool": {
        "encoding": "inplace",
        "label": "bool",
        "numberOfBytes": "1"
      },
      "t_bytes32": {
        "encoding": "inplace",
        "label": "bytes32",
        "numberOfBytes": "32"
      },
      "t_contract(BridgeRouter)22091": {
        "encoding": "inplace",
        "label": "contract BridgeRouter",
        "numberOfBytes": "20"
      },
      "t_contract(IExecutor)9611": {
        "encoding": "inplace",
        "label": "contract IExecutor",
        "numberOfBytes": "20"
      },
      "t_contract(IStableSwap)9883": {
        "encoding": "inplace",
        "label": "contract IStableSwap",
        "numberOfBytes": "20"
      },
      "t_contract(IWrapped)9894": {
        "encoding": "inplace",
        "label": "contract IWrapped",
        "numberOfBytes": "20"
      },
      "t_contract(TokenRegistry)23397": {
        "encoding": "inplace",
        "label": "contract TokenRegistry",
        "numberOfBytes": "20"
      },
      "t_mapping(t_address,t_bool)": {
        "encoding": "mapping",
        "key": "t_address",
        "label": "mapping(address => bool)",
        "numberOfBytes": "32",
        "value": "t_bool"
      },
      "t_mapping(t_address,t_mapping(t_address,t_uint256))": {
        "encoding": "mapping",
        "key": "t_address",
        "label": "mapping(address => mapping(address => uint256))",
        "numberOfBytes": "32",
        "value": "t_mapping(t_address,t_uint256)"
      },
      "t_mapping(t_address,t_struct(TokenId)20550_storage)": {
        "encoding": "mapping",
        "key": "t_address",
        "label": "mapping(address => struct BridgeMessage.TokenId)",
        "numberOfBytes": "32",
        "value": "t_struct(TokenId)20550_storage"
      },
      "t_mapping(t_address,t_uint256)": {
        "encoding": "mapping",
        "key": "t_address",
        "label": "mapping(address => uint256)",
        "numberOfBytes": "32",
        "value": "t_uint256"
      },
      "t_mapping(t_bytes32,t_address)": {
        "encoding": "mapping",
        "key": "t_bytes32",
        "label": "mapping(bytes32 => address)",
        "numberOfBytes": "32",
        "value": "t_address"
      },
      "t_mapping(t_bytes32,t_bool)": {
        "encoding": "mapping",
        "key": "t_bytes32",
        "label": "mapping(bytes32 => bool)",
        "numberOfBytes": "32",
        "value": "t_bool"
      },
      "t_mapping(t_bytes32,t_contract(IStableSwap)9883)": {
        "encoding": "mapping",
        "key": "t_bytes32",
        "label": "mapping(bytes32 => contract IStableSwap)",
        "numberOfBytes": "32",
        "value": "t_contract(IStableSwap)9883"
      },
      "t_mapping(t_bytes32,t_struct(ExecutedTransfer)5454_storage)": {
        "encoding": "mapping",
        "key": "t_bytes32",
        "label": "mapping(bytes32 => struct Connext.ExecutedTransfer)",
        "numberOfBytes": "32",
        "value": "t_struct(ExecutedTransfer)5454_storage"
      },
      "t_mapping(t_bytes32,t_struct(GasInfo)5459_storage)": {
        "encoding": "mapping",
        "key": "t_bytes32",
        "label": "mapping(bytes32 => struct Connext.GasInfo)",
        "numberOfBytes": "32",
        "value": "t_struct(GasInfo)5459_storage"
      },
      "t_mapping(t_uint32,t_array(t_address)3_storage)": {
        "encoding": "mapping",
        "key": "t_uint32",
        "label": "mapping(uint32 => address[3])",
        "numberOfBytes": "32",
        "value": "t_array(t_address)3_storage"
      },
      "t_mapping(t_uint32,t_array(t_uint256)3_storage)": {
        "encoding": "mapping",
        "key": "t_uint32",
        "label": "mapping(uint32 => uint256[3])",
        "numberOfBytes": "32",
        "value": "t_array(t_uint256)3_storage"
      },
      "t_struct(ExecutedTransfer)5454_storage": {
        "encoding": "inplace",
        "label": "struct Connext.ExecutedTransfer",
        "members": [
          {
            "astId": 5449,
            "contract": "contracts/Connext.sol:Connext",
            "label": "router",
            "offset": 0,
            "slot": "0",
            "type": "t_address"
          },
          {
            "astId": 5451,
            "contract": "contracts/Connext.sol:Connext",
            "label": "amount",
            "offset": 0,
            "slot": "1",
            "type": "t_uint256"
          },
          {
            "astId": 5453,
            "contract": "contracts/Connext.sol:Connext",
            "label": "externalHash",
            "offset": 0,
            "slot": "2",
            "type": "t_bytes32"
          }
        ],
        "numberOfBytes": "96"
      },
      "t_struct(GasInfo)5459_storage": {
        "encoding": "inplace",
        "label": "struct Connext.GasInfo",
        "members": [
          {
            "astId": 5456,
            "contract": "contracts/Connext.sol:Connext",
            "label": "gasUsed",
            "offset": 0,
            "slot": "0",
            "type": "t_uint256"
          },
          {
            "astId": 5458,
            "contract": "contracts/Connext.sol:Connext",
            "label": "gasPrice",
            "offset": 0,
            "slot": "1",
            "type": "t_uint256"
          }
        ],
        "numberOfBytes": "64"
      },
      "t_struct(TokenId)20550_storage": {
        "encoding": "inplace",
        "label": "struct BridgeMessage.TokenId",
        "members": [
          {
            "astId": 20547,
            "contract": "contracts/Connext.sol:Connext",
            "label": "domain",
            "offset": 0,
            "slot": "0",
            "type": "t_uint32"
          },
          {
            "astId": 20549,
            "contract": "contracts/Connext.sol:Connext",
            "label": "id",
            "offset": 0,
            "slot": "1",
            "type": "t_bytes32"
          }
        ],
        "numberOfBytes": "64"
      },
      "t_struct(Tree)17575_storage": {
        "encoding": "inplace",
        "label": "struct MerkleLib.Tree",
        "members": [
          {
            "astId": 17572,
            "contract": "contracts/Connext.sol:Connext",
            "label": "branch",
            "offset": 0,
            "slot": "0",
            "type": "t_array(t_bytes32)32_storage"
          },
          {
            "astId": 17574,
            "contract": "contracts/Connext.sol:Connext",
            "label": "count",
            "offset": 0,
            "slot": "32",
            "type": "t_uint256"
          }
        ],
        "numberOfBytes": "1056"
      },
      "t_uint256": {
        "encoding": "inplace",
        "label": "uint256",
        "numberOfBytes": "32"
      },
      "t_uint32": {
        "encoding": "inplace",
        "label": "uint32",
        "numberOfBytes": "4"
      }
    }
  }
}