{
  "address": "0xc42e3137EA1FEAD4fe2da093D16b3A70f2E27c00",
  "abi": [
    {
      "inputs": [],
      "name": "ConnextHandler__addLiquidityForRouter_amountIsZero",
      "type": "error"
    },
    {
      "inputs": [],
      "name": "ConnextHandler__addLiquidityForRouter_badAsset",
      "type": "error"
    },
    {
      "inputs": [],
      "name": "ConnextHandler__addLiquidityForRouter_badRouter",
      "type": "error"
    },
    {
      "inputs": [],
      "name": "ConnextHandler__addLiquidityForRouter_routerEmpty",
      "type": "error"
    },
    {
      "inputs": [],
      "name": "ConnextHandler__bumpTransfer_valueIsZero",
      "type": "error"
    },
    {
      "inputs": [],
      "name": "ConnextHandler__execute_unapprovedRelayer",
      "type": "error"
    },
    {
      "inputs": [],
      "name": "ConnextHandler__onlyRelayerFeeRouter_notRelayerFeeRouter",
      "type": "error"
    },
    {
      "inputs": [],
      "name": "ConnextHandler__setMaxRoutersPerTransfer_invalidMaxRoutersPerTransfer",
      "type": "error"
    },
    {
      "inputs": [],
      "name": "ProposedOwnableUpgradeable__acceptProposedOwner_delayNotElapsed",
      "type": "error"
    },
    {
      "inputs": [],
      "name": "ProposedOwnableUpgradeable__acceptProposedOwner_noOwnershipChange",
      "type": "error"
    },
    {
      "inputs": [],
      "name": "ProposedOwnableUpgradeable__onlyOwner_notOwner",
      "type": "error"
    },
    {
      "inputs": [],
      "name": "ProposedOwnableUpgradeable__onlyProposed_notProposedOwner",
      "type": "error"
    },
    {
      "inputs": [],
      "name": "ProposedOwnableUpgradeable__proposeAssetOwnershipRenunciation_noOwnershipChange",
      "type": "error"
    },
    {
      "inputs": [],
      "name": "ProposedOwnableUpgradeable__proposeNewOwner_invalidProposal",
      "type": "error"
    },
    {
      "inputs": [],
      "name": "ProposedOwnableUpgradeable__proposeNewOwner_noOwnershipChange",
      "type": "error"
    },
    {
      "inputs": [],
      "name": "ProposedOwnableUpgradeable__proposeRouterOwnershipRenunciation_noOwnershipChange",
      "type": "error"
    },
    {
      "inputs": [],
      "name": "ProposedOwnableUpgradeable__renounceAssetOwnership_delayNotElapsed",
      "type": "error"
    },
    {
      "inputs": [],
      "name": "ProposedOwnableUpgradeable__renounceAssetOwnership_noOwnershipChange",
      "type": "error"
    },
    {
      "inputs": [],
      "name": "ProposedOwnableUpgradeable__renounceAssetOwnership_noProposal",
      "type": "error"
    },
    {
      "inputs": [],
      "name": "ProposedOwnableUpgradeable__renounceOwnership_delayNotElapsed",
      "type": "error"
    },
    {
      "inputs": [],
      "name": "ProposedOwnableUpgradeable__renounceOwnership_invalidProposal",
      "type": "error"
    },
    {
      "inputs": [],
      "name": "ProposedOwnableUpgradeable__renounceOwnership_noProposal",
      "type": "error"
    },
    {
      "inputs": [],
      "name": "ProposedOwnableUpgradeable__renounceRouterOwnership_delayNotElapsed",
      "type": "error"
    },
    {
      "inputs": [],
      "name": "ProposedOwnableUpgradeable__renounceRouterOwnership_noOwnershipChange",
      "type": "error"
    },
    {
      "inputs": [],
      "name": "ProposedOwnableUpgradeable__renounceRouterOwnership_noProposal",
      "type": "error"
    },
    {
      "inputs": [],
      "name": "RouterPermissionsManagerLogic__setupRouter_amountIsZero",
      "type": "error"
    },
    {
      "inputs": [],
      "name": "RouterPermissionsManagerLogic__setupRouter_routerEmpty",
      "type": "error"
    },
    {
      "anonymous": false,
      "inputs": [
        {
          "indexed": false,
          "internalType": "bool",
          "name": "renounced",
          "type": "bool"
        }
      ],
      "name": "AssetOwnershipRenounced",
      "type": "event"
    },
    {
      "anonymous": false,
      "inputs": [
        {
          "indexed": false,
          "internalType": "uint256",
          "name": "timestamp",
          "type": "uint256"
        }
      ],
      "name": "AssetOwnershipRenunciationProposed",
      "type": "event"
    },
    {
      "anonymous": false,
      "inputs": [
        {
          "indexed": false,
          "internalType": "uint8",
          "name": "version",
          "type": "uint8"
        }
      ],
      "name": "Initialized",
      "type": "event"
    },
    {
      "anonymous": false,
      "inputs": [
        {
          "indexed": true,
          "internalType": "address",
          "name": "proposedOwner",
          "type": "address"
        }
      ],
      "name": "OwnershipProposed",
      "type": "event"
    },
    {
      "anonymous": false,
      "inputs": [
        {
          "indexed": true,
          "internalType": "address",
          "name": "previousOwner",
          "type": "address"
        },
        {
          "indexed": true,
          "internalType": "address",
          "name": "newOwner",
          "type": "address"
        }
      ],
      "name": "OwnershipTransferred",
      "type": "event"
    },
    {
      "anonymous": false,
      "inputs": [
        {
          "indexed": false,
          "internalType": "bool",
          "name": "renounced",
          "type": "bool"
        }
      ],
      "name": "RouterOwnershipRenounced",
      "type": "event"
    },
    {
      "anonymous": false,
      "inputs": [
        {
          "indexed": false,
          "internalType": "uint256",
          "name": "timestamp",
          "type": "uint256"
        }
      ],
      "name": "RouterOwnershipRenunciationProposed",
      "type": "event"
    },
    {
      "inputs": [],
      "name": "LIQUIDITY_FEE_DENOMINATOR",
      "outputs": [
        {
          "internalType": "uint256",
          "name": "",
          "type": "uint256"
        }
      ],
      "stateMutability": "view",
      "type": "function"
    },
    {
      "inputs": [],
      "name": "LIQUIDITY_FEE_NUMERATOR",
      "outputs": [
        {
          "internalType": "uint256",
          "name": "",
          "type": "uint256"
        }
      ],
      "stateMutability": "view",
      "type": "function"
    },
    {
      "inputs": [],
      "name": "acceptProposedOwner",
      "outputs": [],
      "stateMutability": "nonpayable",
      "type": "function"
    },
    {
      "inputs": [
        {
          "internalType": "address",
          "name": "router",
          "type": "address"
        }
      ],
      "name": "acceptProposedRouterOwner",
      "outputs": [],
      "stateMutability": "nonpayable",
      "type": "function"
    },
    {
      "inputs": [
        {
          "internalType": "uint256",
          "name": "_amount",
          "type": "uint256"
        },
        {
          "internalType": "address",
          "name": "_local",
          "type": "address"
        }
      ],
      "name": "addLiquidity",
      "outputs": [],
      "stateMutability": "payable",
      "type": "function"
    },
    {
      "inputs": [
        {
          "internalType": "uint256",
          "name": "_amount",
          "type": "uint256"
        },
        {
          "internalType": "address",
          "name": "_local",
          "type": "address"
        },
        {
          "internalType": "address",
          "name": "_router",
          "type": "address"
        }
      ],
      "name": "addLiquidityFor",
      "outputs": [],
      "stateMutability": "payable",
      "type": "function"
    },
    {
      "inputs": [
        {
          "internalType": "address",
          "name": "_relayer",
          "type": "address"
        }
      ],
      "name": "addRelayer",
      "outputs": [],
      "stateMutability": "nonpayable",
      "type": "function"
    },
    {
      "inputs": [
        {
          "components": [
            {
              "internalType": "uint32",
              "name": "domain",
              "type": "uint32"
            },
            {
              "internalType": "bytes32",
              "name": "id",
              "type": "bytes32"
            }
          ],
          "internalType": "struct ConnextMessage.TokenId",
          "name": "_canonical",
          "type": "tuple"
        },
        {
          "internalType": "address",
          "name": "_stableSwapPool",
          "type": "address"
        }
      ],
      "name": "addStableSwapPool",
      "outputs": [],
      "stateMutability": "nonpayable",
      "type": "function"
    },
    {
      "inputs": [
        {
          "internalType": "address",
          "name": "",
          "type": "address"
        }
      ],
      "name": "adoptedToCanonical",
      "outputs": [
        {
          "internalType": "uint32",
          "name": "domain",
          "type": "uint32"
        },
        {
          "internalType": "bytes32",
          "name": "id",
          "type": "bytes32"
        }
      ],
      "stateMutability": "view",
      "type": "function"
    },
    {
      "inputs": [
        {
          "internalType": "bytes32",
          "name": "",
          "type": "bytes32"
        }
      ],
      "name": "adoptedToLocalPools",
      "outputs": [
        {
          "internalType": "contract IStableSwap",
          "name": "",
          "type": "address"
        }
      ],
      "stateMutability": "view",
      "type": "function"
    },
    {
      "inputs": [
        {
          "internalType": "bytes32",
          "name": "",
          "type": "bytes32"
        }
      ],
      "name": "approvedAssets",
      "outputs": [
        {
          "internalType": "bool",
          "name": "",
          "type": "bool"
        }
      ],
      "stateMutability": "view",
      "type": "function"
    },
    {
      "inputs": [
        {
          "internalType": "address",
          "name": "",
          "type": "address"
        }
      ],
      "name": "approvedRelayers",
      "outputs": [
        {
          "internalType": "bool",
          "name": "",
          "type": "bool"
        }
      ],
      "stateMutability": "view",
      "type": "function"
    },
    {
      "inputs": [],
      "name": "assetOwnershipTimestamp",
      "outputs": [
        {
          "internalType": "uint256",
          "name": "",
          "type": "uint256"
        }
      ],
      "stateMutability": "view",
      "type": "function"
    },
    {
      "inputs": [
        {
          "internalType": "bytes32",
          "name": "_transferId",
          "type": "bytes32"
        }
      ],
      "name": "bumpTransfer",
      "outputs": [],
      "stateMutability": "payable",
      "type": "function"
    },
    {
      "inputs": [
        {
          "internalType": "bytes32",
          "name": "",
          "type": "bytes32"
        }
      ],
      "name": "canonicalToAdopted",
      "outputs": [
        {
          "internalType": "address",
          "name": "",
          "type": "address"
        }
      ],
      "stateMutability": "view",
      "type": "function"
    },
    {
      "inputs": [
        {
          "internalType": "address",
          "name": "_recipient",
          "type": "address"
        },
        {
          "internalType": "bytes32[]",
          "name": "_transferIds",
          "type": "bytes32[]"
        }
      ],
      "name": "claim",
      "outputs": [],
      "stateMutability": "nonpayable",
      "type": "function"
    },
    {
      "inputs": [],
      "name": "delay",
      "outputs": [
        {
          "internalType": "uint256",
          "name": "",
          "type": "uint256"
        }
      ],
      "stateMutability": "view",
      "type": "function"
    },
    {
      "inputs": [],
      "name": "domain",
      "outputs": [
        {
          "internalType": "uint256",
          "name": "",
          "type": "uint256"
        }
      ],
      "stateMutability": "view",
      "type": "function"
    },
    {
      "inputs": [
        {
          "internalType": "uint32",
          "name": "_domain",
          "type": "uint32"
        },
        {
          "internalType": "bytes32",
          "name": "_router",
          "type": "bytes32"
        }
      ],
      "name": "enrollRemoteRouter",
      "outputs": [],
      "stateMutability": "nonpayable",
      "type": "function"
    },
    {
      "inputs": [
        {
          "components": [
            {
              "components": [
                {
                  "internalType": "address",
                  "name": "to",
                  "type": "address"
                },
                {
                  "internalType": "bytes",
                  "name": "callData",
                  "type": "bytes"
                },
                {
                  "internalType": "uint32",
                  "name": "originDomain",
                  "type": "uint32"
                },
                {
                  "internalType": "uint32",
                  "name": "destinationDomain",
                  "type": "uint32"
                }
              ],
              "internalType": "struct IConnextHandler.CallParams",
              "name": "params",
              "type": "tuple"
            },
            {
              "internalType": "address",
              "name": "local",
              "type": "address"
            },
            {
              "internalType": "address[]",
              "name": "routers",
              "type": "address[]"
            },
            {
              "internalType": "bytes[]",
              "name": "routerSignatures",
              "type": "bytes[]"
            },
            {
              "internalType": "uint256",
              "name": "amount",
              "type": "uint256"
            },
            {
              "internalType": "uint256",
              "name": "nonce",
              "type": "uint256"
            },
            {
              "internalType": "address",
              "name": "originSender",
              "type": "address"
            }
          ],
          "internalType": "struct IConnextHandler.ExecuteArgs",
          "name": "_args",
          "type": "tuple"
        }
      ],
      "name": "execute",
      "outputs": [
        {
          "internalType": "bytes32",
          "name": "transferId",
          "type": "bytes32"
        }
      ],
      "stateMutability": "nonpayable",
      "type": "function"
    },
    {
      "inputs": [],
      "name": "executor",
      "outputs": [
        {
          "internalType": "contract IExecutor",
          "name": "",
          "type": "address"
        }
      ],
      "stateMutability": "view",
      "type": "function"
    },
    {
      "inputs": [
        {
          "internalType": "address",
          "name": "_router",
          "type": "address"
        }
      ],
      "name": "getProposedRouterOwner",
      "outputs": [
        {
          "internalType": "address",
          "name": "",
          "type": "address"
        }
      ],
      "stateMutability": "view",
      "type": "function"
    },
    {
      "inputs": [
        {
          "internalType": "address",
          "name": "_router",
          "type": "address"
        }
      ],
      "name": "getProposedRouterOwnerTimestamp",
      "outputs": [
        {
          "internalType": "uint256",
          "name": "",
          "type": "uint256"
        }
      ],
      "stateMutability": "view",
      "type": "function"
    },
    {
      "inputs": [
        {
          "internalType": "address",
          "name": "_router",
          "type": "address"
        }
      ],
      "name": "getRouterApproval",
      "outputs": [
        {
          "internalType": "bool",
          "name": "",
          "type": "bool"
        }
      ],
      "stateMutability": "view",
      "type": "function"
    },
    {
      "inputs": [
        {
          "internalType": "address",
          "name": "_router",
          "type": "address"
        }
      ],
      "name": "getRouterOwner",
      "outputs": [
        {
          "internalType": "address",
          "name": "",
          "type": "address"
        }
      ],
      "stateMutability": "view",
      "type": "function"
    },
    {
      "inputs": [
        {
          "internalType": "address",
          "name": "_router",
          "type": "address"
        }
      ],
      "name": "getRouterRecipient",
      "outputs": [
        {
          "internalType": "address",
          "name": "",
          "type": "address"
        }
      ],
      "stateMutability": "view",
      "type": "function"
    },
    {
      "inputs": [
        {
          "internalType": "uint32",
          "name": "_origin",
          "type": "uint32"
        },
        {
          "internalType": "uint32",
          "name": "_nonce",
          "type": "uint32"
        },
        {
          "internalType": "bytes32",
          "name": "_sender",
          "type": "bytes32"
        },
        {
          "internalType": "bytes",
          "name": "_message",
          "type": "bytes"
        }
      ],
      "name": "handle",
      "outputs": [],
      "stateMutability": "nonpayable",
      "type": "function"
    },
    {
      "inputs": [
        {
          "internalType": "uint256",
          "name": "_domain",
          "type": "uint256"
        },
        {
          "internalType": "address",
          "name": "_xAppConnectionManager",
          "type": "address"
        },
        {
          "internalType": "address",
          "name": "_tokenRegistry",
          "type": "address"
        },
        {
          "internalType": "address",
          "name": "_wrappedNative",
          "type": "address"
        },
        {
          "internalType": "address",
          "name": "_relayerFeeRouter",
          "type": "address"
        }
      ],
      "name": "initialize",
      "outputs": [],
      "stateMutability": "nonpayable",
      "type": "function"
    },
    {
      "inputs": [
        {
          "internalType": "uint32",
          "name": "_domain",
          "type": "uint32"
        },
        {
          "internalType": "address",
          "name": "_recipient",
          "type": "address"
        },
        {
          "internalType": "bytes32[]",
          "name": "_transferIds",
          "type": "bytes32[]"
        }
      ],
      "name": "initiateClaim",
      "outputs": [],
      "stateMutability": "nonpayable",
      "type": "function"
    },
    {
      "inputs": [],
      "name": "isAssetOwnershipRenounced",
      "outputs": [
        {
          "internalType": "bool",
          "name": "",
          "type": "bool"
        }
      ],
      "stateMutability": "view",
      "type": "function"
    },
    {
      "inputs": [],
      "name": "isRouterOwnershipRenounced",
      "outputs": [
        {
          "internalType": "bool",
          "name": "",
          "type": "bool"
        }
      ],
      "stateMutability": "view",
      "type": "function"
    },
    {
      "inputs": [],
      "name": "maxRoutersPerTransfer",
      "outputs": [
        {
          "internalType": "uint256",
          "name": "",
          "type": "uint256"
        }
      ],
      "stateMutability": "view",
      "type": "function"
    },
    {
      "inputs": [],
      "name": "nonce",
      "outputs": [
        {
          "internalType": "uint256",
          "name": "",
          "type": "uint256"
        }
      ],
      "stateMutability": "view",
      "type": "function"
    },
    {
      "inputs": [],
      "name": "owner",
      "outputs": [
        {
          "internalType": "address",
          "name": "",
          "type": "address"
        }
      ],
      "stateMutability": "view",
      "type": "function"
    },
    {
      "inputs": [],
      "name": "proposeAssetOwnershipRenunciation",
      "outputs": [],
      "stateMutability": "nonpayable",
      "type": "function"
    },
    {
      "inputs": [
        {
          "internalType": "address",
          "name": "newlyProposed",
          "type": "address"
        }
      ],
      "name": "proposeNewOwner",
      "outputs": [],
      "stateMutability": "nonpayable",
      "type": "function"
    },
    {
      "inputs": [
        {
          "internalType": "address",
          "name": "router",
          "type": "address"
        },
        {
          "internalType": "address",
          "name": "proposed",
          "type": "address"
        }
      ],
      "name": "proposeRouterOwner",
      "outputs": [],
      "stateMutability": "nonpayable",
      "type": "function"
    },
    {
      "inputs": [],
      "name": "proposeRouterOwnershipRenunciation",
      "outputs": [],
      "stateMutability": "nonpayable",
      "type": "function"
    },
    {
      "inputs": [],
      "name": "proposed",
      "outputs": [
        {
          "internalType": "address",
          "name": "",
          "type": "address"
        }
      ],
      "stateMutability": "view",
      "type": "function"
    },
    {
      "inputs": [],
      "name": "proposedTimestamp",
      "outputs": [
        {
          "internalType": "uint256",
          "name": "",
          "type": "uint256"
        }
      ],
      "stateMutability": "view",
      "type": "function"
    },
    {
      "inputs": [
        {
          "internalType": "bytes32",
          "name": "",
          "type": "bytes32"
        }
      ],
      "name": "reconciledTransfers",
      "outputs": [
        {
          "internalType": "bool",
          "name": "",
          "type": "bool"
        }
      ],
      "stateMutability": "view",
      "type": "function"
    },
    {
      "inputs": [],
      "name": "relayerFeeRouter",
      "outputs": [
        {
          "internalType": "contract RelayerFeeRouter",
          "name": "",
          "type": "address"
        }
      ],
      "stateMutability": "view",
      "type": "function"
    },
    {
      "inputs": [
        {
          "internalType": "bytes32",
          "name": "",
          "type": "bytes32"
        }
      ],
      "name": "relayerFees",
      "outputs": [
        {
          "internalType": "uint256",
          "name": "",
          "type": "uint256"
        }
      ],
      "stateMutability": "view",
      "type": "function"
    },
    {
      "inputs": [
        {
          "internalType": "uint32",
          "name": "",
          "type": "uint32"
        }
      ],
      "name": "remotes",
      "outputs": [
        {
          "internalType": "bytes32",
          "name": "",
          "type": "bytes32"
        }
      ],
      "stateMutability": "view",
      "type": "function"
    },
    {
      "inputs": [
        {
          "internalType": "bytes32",
          "name": "_canonicalId",
          "type": "bytes32"
        },
        {
          "internalType": "address",
          "name": "_adoptedAssetId",
          "type": "address"
        }
      ],
      "name": "removeAssetId",
      "outputs": [],
      "stateMutability": "nonpayable",
      "type": "function"
    },
    {
      "inputs": [
        {
          "internalType": "uint256",
          "name": "_amount",
          "type": "uint256"
        },
        {
          "internalType": "address",
          "name": "_local",
          "type": "address"
        },
        {
          "internalType": "address payable",
          "name": "_to",
          "type": "address"
        }
      ],
      "name": "removeLiquidity",
      "outputs": [],
      "stateMutability": "nonpayable",
      "type": "function"
    },
    {
      "inputs": [
        {
          "internalType": "address",
          "name": "_relayer",
          "type": "address"
        }
      ],
      "name": "removeRelayer",
      "outputs": [],
      "stateMutability": "nonpayable",
      "type": "function"
    },
    {
      "inputs": [
        {
          "internalType": "address",
          "name": "_router",
          "type": "address"
        }
      ],
      "name": "removeRouter",
      "outputs": [],
      "stateMutability": "nonpayable",
      "type": "function"
    },
    {
      "inputs": [],
      "name": "renounceAssetOwnership",
      "outputs": [],
      "stateMutability": "nonpayable",
      "type": "function"
    },
    {
      "inputs": [],
      "name": "renounceOwnership",
      "outputs": [],
      "stateMutability": "nonpayable",
      "type": "function"
    },
    {
      "inputs": [],
      "name": "renounceRouterOwnership",
      "outputs": [],
      "stateMutability": "nonpayable",
      "type": "function"
    },
    {
      "inputs": [],
      "name": "renounced",
      "outputs": [
        {
          "internalType": "bool",
          "name": "",
          "type": "bool"
        }
      ],
      "stateMutability": "view",
      "type": "function"
    },
    {
      "inputs": [
        {
          "internalType": "bytes32",
          "name": "",
          "type": "bytes32"
        },
        {
          "internalType": "uint256",
          "name": "",
          "type": "uint256"
        }
      ],
      "name": "routedTransfers",
      "outputs": [
        {
          "internalType": "address",
          "name": "",
          "type": "address"
        }
      ],
      "stateMutability": "view",
      "type": "function"
    },
    {
      "inputs": [
        {
          "internalType": "address",
          "name": "",
          "type": "address"
        },
        {
          "internalType": "address",
          "name": "",
          "type": "address"
        }
      ],
      "name": "routerBalances",
      "outputs": [
        {
          "internalType": "uint256",
          "name": "",
          "type": "uint256"
        }
      ],
      "stateMutability": "view",
      "type": "function"
    },
    {
      "inputs": [],
      "name": "routerOwnershipTimestamp",
      "outputs": [
        {
          "internalType": "uint256",
          "name": "",
          "type": "uint256"
        }
      ],
      "stateMutability": "view",
      "type": "function"
    },
    {
      "inputs": [
        {
          "internalType": "uint256",
          "name": "_newMaxRouters",
          "type": "uint256"
        }
      ],
      "name": "setMaxRoutersPerTransfer",
      "outputs": [],
      "stateMutability": "nonpayable",
      "type": "function"
    },
    {
      "inputs": [
        {
          "internalType": "address",
          "name": "router",
          "type": "address"
        },
        {
          "internalType": "address",
          "name": "recipient",
          "type": "address"
        }
      ],
      "name": "setRouterRecipient",
      "outputs": [],
      "stateMutability": "nonpayable",
      "type": "function"
    },
    {
      "inputs": [
        {
          "internalType": "address",
          "name": "_xAppConnectionManager",
          "type": "address"
        }
      ],
      "name": "setXAppConnectionManager",
      "outputs": [],
      "stateMutability": "nonpayable",
      "type": "function"
    },
    {
      "inputs": [
        {
          "components": [
            {
              "internalType": "uint32",
              "name": "domain",
              "type": "uint32"
            },
            {
              "internalType": "bytes32",
              "name": "id",
              "type": "bytes32"
            }
          ],
          "internalType": "struct ConnextMessage.TokenId",
          "name": "_canonical",
          "type": "tuple"
        },
        {
          "internalType": "address",
          "name": "_adoptedAssetId",
          "type": "address"
        },
        {
          "internalType": "address",
          "name": "_stableSwapPool",
          "type": "address"
        }
      ],
      "name": "setupAsset",
      "outputs": [],
      "stateMutability": "nonpayable",
      "type": "function"
    },
    {
      "inputs": [
        {
          "internalType": "address",
          "name": "_router",
          "type": "address"
        },
        {
          "internalType": "address",
          "name": "_owner",
          "type": "address"
        },
        {
          "internalType": "address",
          "name": "_recipient",
          "type": "address"
        }
      ],
      "name": "setupRouter",
      "outputs": [],
      "stateMutability": "nonpayable",
      "type": "function"
    },
    {
      "inputs": [],
      "name": "tokenRegistry",
      "outputs": [
        {
          "internalType": "contract ITokenRegistry",
          "name": "",
          "type": "address"
        }
      ],
      "stateMutability": "view",
      "type": "function"
    },
    {
      "inputs": [
        {
          "internalType": "bytes32",
          "name": "",
          "type": "bytes32"
        }
      ],
      "name": "transferRelayer",
      "outputs": [
        {
          "internalType": "address",
          "name": "",
          "type": "address"
        }
      ],
      "stateMutability": "view",
      "type": "function"
    },
    {
      "inputs": [],
      "name": "wrapper",
      "outputs": [
        {
          "internalType": "contract IWrapped",
          "name": "",
          "type": "address"
        }
      ],
      "stateMutability": "view",
      "type": "function"
    },
    {
      "inputs": [],
      "name": "xAppConnectionManager",
      "outputs": [
        {
          "internalType": "contract XAppConnectionManager",
          "name": "",
          "type": "address"
        }
      ],
      "stateMutability": "view",
      "type": "function"
    },
    {
      "inputs": [
        {
          "components": [
            {
              "components": [
                {
                  "internalType": "address",
                  "name": "to",
                  "type": "address"
                },
                {
                  "internalType": "bytes",
                  "name": "callData",
                  "type": "bytes"
                },
                {
                  "internalType": "uint32",
                  "name": "originDomain",
                  "type": "uint32"
                },
                {
                  "internalType": "uint32",
                  "name": "destinationDomain",
                  "type": "uint32"
                }
              ],
              "internalType": "struct IConnextHandler.CallParams",
              "name": "params",
              "type": "tuple"
            },
            {
              "internalType": "address",
              "name": "transactingAssetId",
              "type": "address"
            },
            {
              "internalType": "uint256",
              "name": "amount",
              "type": "uint256"
            },
            {
              "internalType": "uint256",
              "name": "relayerFee",
              "type": "uint256"
            }
          ],
          "internalType": "struct IConnextHandler.XCallArgs",
          "name": "_args",
          "type": "tuple"
        }
      ],
      "name": "xcall",
      "outputs": [
        {
          "internalType": "bytes32",
          "name": "",
          "type": "bytes32"
        }
      ],
      "stateMutability": "payable",
      "type": "function"
    },
    {
      "stateMutability": "payable",
      "type": "receive"
    }
  ],
  "transactionHash": "0x167d9e6f15f5531933c7ff5c7c350b9049f612737059619fc4ee24cb3e5f1431",
  "args": [],
  "numDeployments": 3,
  "solcInputHash": "fe35d64fe7943db130deb84b44d7581b",
  "bytecode": "0x608060405234801561001057600080fd5b50614fa2806100206000396000f3fe608060405260043610620004235760003560e01c80639b0989081162000227578063c6bf691d116200012f578063e070da0911620000b9578063ea7a904d1162000084578063ea7a904d1462000d11578063eb492f441462000d36578063f31abcc41462000d5b578063f40fec521462000d80578063ffaf3f1a1462000dbb57600080fd5b8063e070da091462000ca5578063e47602f71462000cbc578063e8be0dfc1462000cd4578063e9160f3e1462000cec57600080fd5b8063d1851c9211620000fa578063d1851c921462000c1a578063d232c2201462000c3a578063d7aada811462000c5b578063dd39f00d1462000c8057600080fd5b8063c6bf691d1462000b7e578063c95f9d0e1462000bbb578063ca27a83d1462000bd2578063cf9737691462000bf757600080fd5b8063bd7e1e2e11620001b1578063c26c9c0a116200017c578063c26c9c0a1462000af5578063c2fb26a61462000b2a578063c34c08e51462000b43578063c5b350df1462000b6657600080fd5b8063bd7e1e2e1462000a74578063c0c17baf1462000aaf578063c104f41a1462000ac7578063c1a049591462000ade57600080fd5b8063ac210cc711620001f2578063ac210cc714620009ee578063affed0e01462000a11578063b1f8100d1462000a2a578063b49c53a71462000a4f57600080fd5b80639b098908146200095b5780639bf6d875146200098d5780639d23c4c714620009a6578063ab2dc3f514620009c957600080fd5b8063468f6668116200032b5780636ae0b15411620002b557806383bbb806116200028057806383bbb80614620008bd5780638741eac514620008ee5780638cba8b6a14620009065780638da5cb5b146200093b57600080fd5b80636ae0b1541462000836578063715018a6146200085b5780637708a628146200087357806382904716146200089857600080fd5b80636006209111620002f657806360062091146200078357806360f0a5ac14620007e25780636a41633a14620008075780636a42b8f8146200081e57600080fd5b8063468f666814620006ec5780634b72c5da1462000711578063569d29e4146200072957806357bd0a32146200074e57600080fd5b80632c1999d011620003ad5780633b688da611620003785780633b688da614620006365780633cf52ffb146200067357806341258b5c146200068a57806341bdc8b514620006c757600080fd5b80632c1999d014620005835780633339df9614620005d75780633641e08314620005f95780633855b467146200061e57600080fd5b80631506e46311620003ee5780631506e463146200050a5780632004ef45146200052f57806322a3c00714620005475780632424401f146200056c57600080fd5b80630951d6d8146200043057806309935b8f146200045b57806312d5717014620004825780631407093b14620004bc57600080fd5b366200042b57005b600080fd5b3480156200043d57600080fd5b506200044860d55481565b6040519081526020015b60405180910390f35b3480156200046857600080fd5b50620004806200047a366004620029ed565b62000de0565b005b3480156200048f57600080fd5b5062000448620004a1366004620029ed565b6001600160a01b0316600090815260d4602052604090205490565b348015620004c957600080fd5b50620004f9620004db366004620029ed565b6001600160a01b0316600090815260d0602052604090205460ff1690565b604051901515815260200162000452565b3480156200051757600080fd5b50620004806200052936600462002a26565b62000e63565b3480156200053c57600080fd5b50620004f962000f04565b3480156200055457600080fd5b50620004806200056636600462002a63565b62000f27565b620004806200057d36600462002a96565b62000f77565b3480156200059057600080fd5b50620005be620005a236600462002a96565b610112602052600090815260409020546001600160a01b031681565b6040516001600160a01b03909116815260200162000452565b348015620005e457600080fd5b50606b54620005be906001600160a01b031681565b3480156200060657600080fd5b50620004806200061836600462002ab0565b62000fb8565b3480156200062b57600080fd5b506200048062001126565b3480156200064357600080fd5b50620005be62000655366004620029ed565b6001600160a01b03908116600090815260d360205260409020541690565b3480156200068057600080fd5b5060355462000448565b3480156200069757600080fd5b5062000448620006a936600462002a63565b61011560209081526000928352604080842090915290825290205481565b348015620006d457600080fd5b5062000480620006e6366004620029ed565b620011d9565b348015620006f957600080fd5b50620004806200070b36600462002b82565b62001227565b3480156200071e57600080fd5b506200044860d65481565b3480156200073657600080fd5b50620004806200074836600462002bee565b620012b0565b3480156200075b57600080fd5b50620004f96200076d36600462002a96565b6101106020526000908152604090205460ff1681565b3480156200079057600080fd5b50620007c5620007a2366004620029ed565b610111602052600090815260409020805460019091015463ffffffff9091169082565b6040805163ffffffff909316835260208301919091520162000452565b348015620007ef57600080fd5b506200048062000801366004620029ed565b620013d9565b3480156200081457600080fd5b5060395462000448565b3480156200082b57600080fd5b5062093a8062000448565b3480156200084357600080fd5b506200048062000855366004620029ed565b6200144e565b3480156200086857600080fd5b506200048062001488565b3480156200088057600080fd5b50620005be6200089236600462002c3f565b6200154a565b348015620008a557600080fd5b5062000480620008b736600462002a96565b62001584565b348015620008ca57600080fd5b5062000448620008dc36600462002c62565b609d6020526000908152604090205481565b348015620008fb57600080fd5b506200048062001630565b3480156200091357600080fd5b50620004f962000925366004620029ed565b6101166020526000908152604090205460ff1681565b3480156200094857600080fd5b506033546001600160a01b0316620005be565b3480156200096857600080fd5b50620004486200097a36600462002a96565b6101176020526000908152604090205481565b3480156200099a57600080fd5b50620004486101195481565b348015620009b357600080fd5b5061010e54620005be906001600160a01b031681565b348015620009d657600080fd5b5062000480620009e836600462002d91565b6200168b565b348015620009fb57600080fd5b5061010a54620005be906001600160a01b031681565b34801562000a1e57600080fd5b506200044861010b5481565b34801562000a3757600080fd5b506200048062000a49366004620029ed565b620017bf565b34801562000a5c57600080fd5b506200048062000a6e36600462002e04565b6200186b565b34801562000a8157600080fd5b50620005be62000a9336600462002a96565b61010f602052600090815260409020546001600160a01b031681565b34801562000abc57600080fd5b5062000480620018b0565b6200044862000ad836600462002e33565b62001961565b34801562000aeb57600080fd5b5060375462000448565b34801562000b0257600080fd5b50620004f962000b1436600462002a96565b6101136020526000908152604090205460ff1681565b34801562000b3757600080fd5b506200044861010d5481565b34801562000b5057600080fd5b5061010c54620005be906001600160a01b031681565b34801562000b7357600080fd5b506200048062001af9565b34801562000b8b57600080fd5b50620005be62000b9d366004620029ed565b6001600160a01b03908116600090815260d160205260409020541690565b6200048062000bcc36600462002e70565b62001b8b565b34801562000bdf57600080fd5b506200044862000bf136600462002e98565b62001bcb565b34801562000c0457600080fd5b5061010954620005be906001600160a01b031681565b34801562000c2757600080fd5b506034546001600160a01b0316620005be565b34801562000c4757600080fd5b506033546001600160a01b031615620004f9565b34801562000c6857600080fd5b506200048062000c7a36600462002ed5565b62001d16565b34801562000c8d57600080fd5b506200048062000c9f366004620029ed565b62001d84565b6200048062000cb636600462002f2f565b62001df7565b34801562000cc957600080fd5b506200048062001e38565b34801562000ce157600080fd5b50620004f962001e93565b34801562000cf957600080fd5b50620005be62000d0b366004620029ed565b62001eb4565b34801562000d1e57600080fd5b506200048062000d3036600462002e70565b62001ec9565b34801562000d4357600080fd5b506200048062000d5536600462002f6b565b62001f62565b34801562000d6857600080fd5b506200048062000d7a36600462002f2f565b62001fa0565b34801562000d8d57600080fd5b50620005be62000d9f36600462002a96565b610118602052600090815260409020546001600160a01b031681565b34801562000dc857600080fd5b506200048062000dda36600462002a63565b62002092565b60cf54604051630d183f5b60e31b81526001600160a01b0383166004820152602481019190915260d06044820152731f6C88af80cEcE299f190071E2Af336Ddcf170bF906368c1fad8906064015b60006040518083038186803b15801562000e4757600080fd5b505af415801562000e5c573d6000803e3d6000fd5b5050505050565b6033546001600160a01b0316331462000e8f57604051630cd5bd6f60e21b815260040160405180910390fd5b6040516301d9fdc360e61b815273F8dfeCE366C5CDba20f41aa155bF50d2f195a39e9063767f70c09062000ece908590859061010f9060040162002fc0565b60006040518083038186803b15801562000ee757600080fd5b505af415801562000efc573d6000803e3d6000fd5b505050505050565b6033546000906001600160a01b0316158062000f22575060365460ff165b905090565b60405163dc26fe0f60e01b81526001600160a01b0380841660048301528216602482015260d06044820152731f6C88af80cEcE299f190071E2Af336Ddcf170bF9063dc26fe0f9060640162000ece565b6040516302fba8f160e51b815260048101829052610117602482015273F8dfeCE366C5CDba20f41aa155bF50d2f195a39e90635f751e209060440162000e2e565b600062000fc66001620020e2565b9050801562000fdf576000805461ff0019166101001790555b62000fea8562002177565b62000ff46200220e565b62000ffe62002242565b600061010b5561010d86905561010980546001600160a01b0319166001600160a01b03841617905560405130906200103690620029bc565b6001600160a01b039091168152602001604051809103906000f08015801562001063573d6000803e3d6000fd5b5061010c80546001600160a01b03199081166001600160a01b039384161790915561010e8054821687841617905561010a80549091169185169190911790557fc5d2460186f7233c927e7db2dcc703c0e500b653ca82273b7bfad8045d85a47060d75561270b60d55561271060d655600561011955801562000efc576000805461ff0019169055604051600181527f7f26b83ff96e1f2b6a682f133852f6798a09c465da95921460cefb38474024989060200160405180910390a1505050505050565b6033546001600160a01b031633146200115257604051630cd5bd6f60e21b815260040160405180910390fd5b60385460ff16156200117757604051634e3d8db760e11b815260040160405180910390fd5b6039546200119857604051631c2ed13b60e01b815260040160405180910390fd5b62093a8060395442620011ac919062002fea565b11620011cb57604051635aeaa22f60e11b815260040160405180910390fd5b620011d7600162002276565b565b6033546001600160a01b031633146200120557604051630cd5bd6f60e21b815260040160405180910390fd5b606b80546001600160a01b0319166001600160a01b0392909216919091179055565b6101095460405163271b322160e01b815273F8dfeCE366C5CDba20f41aa155bF50d2f195a39e9163271b322191620012789188918891889188916001600160a01b0316906101189060040162003047565b60006040518083038186803b1580156200129157600080fd5b505af4158015620012a6573d6000803e3d6000fd5b5050505050505050565b6033546001600160a01b03163314620012dc57604051630cd5bd6f60e21b815260040160405180910390fd5b61010a546040516330d512f360e11b815273F8dfeCE366C5CDba20f41aa155bF50d2f195a39e916361aa25e6916200133191879187916001600160a01b0316906101109061011190610112906004016200308c565b60006040518083038186803b1580156200134a57600080fd5b505af41580156200135f573d6000803e3d6000fd5b50506040516301d9fdc360e61b815273F8dfeCE366C5CDba20f41aa155bF50d2f195a39e925063767f70c09150620013a2908690859061010f9060040162002fc0565b60006040518083038186803b158015620013bb57600080fd5b505af4158015620013d0573d6000803e3d6000fd5b50505050505050565b6033546001600160a01b031633146200140557604051630cd5bd6f60e21b815260040160405180910390fd5b6040516373b8255360e01b81526001600160a01b0382166004820152610116602482015273F8dfeCE366C5CDba20f41aa155bF50d2f195a39e906373b825539060440162000e2e565b6033546001600160a01b031633146200147a57604051630cd5bd6f60e21b815260040160405180910390fd5b6200148581620022c3565b50565b6033546001600160a01b03163314620014b457604051630cd5bd6f60e21b815260040160405180910390fd5b603554620014d557604051632a2d7bdb60e11b815260040160405180910390fd5b62093a8060355442620014e9919062002fea565b11620015085760405163136ae5ad60e01b815260040160405180910390fd5b6034546001600160a01b03161562001533576040516301a8692360e11b815260040160405180910390fd5b603454620011d7906001600160a01b03166200230b565b61011460205281600052604060002081815481106200156857600080fd5b6000918252602090912001546001600160a01b03169150829050565b6033546001600160a01b03163314620015b057604051630cd5bd6f60e21b815260040160405180910390fd5b61011954604051633d0e0fb560e01b815273F8dfeCE366C5CDba20f41aa155bF50d2f195a39e91633d0e0fb591620015f5918591600401918252602082015260400190565b60006040518083038186803b1580156200160e57600080fd5b505af415801562001623573d6000803e3d6000fd5b5050506101199190915550565b6033546001600160a01b031633146200165c57604051630cd5bd6f60e21b815260040160405180910390fd5b60385460ff1615620016815760405163382242c360e01b815260040160405180910390fd5b620011d762002364565b6200169633620023a0565b620016d35760405162461bcd60e51b8152602060048201526008602482015267217265706c69636160c01b60448201526064015b60405180910390fd5b63ffffffff84166000908152609d60205260409020548490839081146200172e5760405162461bcd60e51b815260206004820152600e60248201526d10b932b6b7ba32903937baba32b960911b6044820152606401620016ca565b61010e546040516310007eb560e31b815273F8dfeCE366C5CDba20f41aa155bF50d2f195a39e91638003f5a89162001785918a918891610113916001600160a01b0390911690610114906101159060040162003120565b60006040518083038186803b1580156200179e57600080fd5b505af4158015620017b3573d6000803e3d6000fd5b50505050505050505050565b6033546001600160a01b03163314620017eb57604051630cd5bd6f60e21b815260040160405180910390fd5b6034546001600160a01b0382811691161480156200181157506001600160a01b03811615155b156200183057604051635334dcf560e01b815260040160405180910390fd5b6033546001600160a01b038281169116141562001860576040516304d9ae9160e21b815260040160405180910390fd5b620014858162002412565b6033546001600160a01b031633146200189757604051630cd5bd6f60e21b815260040160405180910390fd5b63ffffffff9091166000908152609d6020526040902055565b6033546001600160a01b03163314620018dc57604051630cd5bd6f60e21b815260040160405180910390fd5b60365460ff1615620019015760405163cd0cbe2b60e01b815260040160405180910390fd5b6037546200192257604051636da7f42560e01b815260040160405180910390fd5b62093a806037544262001936919062002fea565b11620019555760405163288a062560e21b815260040160405180910390fd5b620011d7600162002460565b6000806200198d6200197484806200316f565b6200198790608081019060600162002c62565b620024a7565b905060006040518060e0016040528085620019a8906200321c565b815261010a546001600160a01b0390811660208084019190915261010b5460408085019190915261010e548316606085015261010d546080850152606b548151639fa92f9d60e01b8152915160a090950194931692639fa92f9d926004808401939192918290030181865afa15801562001a26573d6000803e3d6000fd5b505050506040513d601f19601f8201168201806040525081019062001a4c919062003291565b6001600160a01b0316815260200183815250905060008073F8dfeCE366C5CDba20f41aa155bF50d2f195a39e634772eb6d8461011161010f6101176040518563ffffffff1660e01b815260040162001aa8949392919062003306565b6040805180830381865af415801562001ac5573d6000803e3d6000fd5b505050506040513d601f19601f8201168201806040525081019062001aeb9190620033d4565b61010b559695505050505050565b6034546001600160a01b0316331462001b25576040516340a61e4d60e01b815260040160405180910390fd5b6034546033546001600160a01b039081169116141562001b58576040516315cb454d60e21b815260040160405180910390fd5b62093a806035544262001b6c919062002fea565b11620015335760405163970af82d60e01b815260040160405180910390fd5b6002600154141562001bb15760405162461bcd60e51b8152600401620016ca90620033f9565b600260015562001bc3828233620024f6565b505060018055565b336000908152610116602052604081205460ff1662001bfd57604051633412968d60e01b815260040160405180910390fd5b60006040518061010001604052808462001c17906200355d565b815260200162001c2662000f04565b1515815261011954602082015261010e546001600160a01b0390811660408084019190915261010a548216606084015261010c54909116608083015260d55460a083015260d65460c090920191909152516345b049e960e01b815290915073F8dfeCE366C5CDba20f41aa155bF50d2f195a39e906345b049e99062001ccb90849061011490610113906101159061010f906101129060d090610118906004016200368d565b602060405180830381865af415801562001ce9573d6000803e3d6000fd5b505050506040513d601f19601f8201168201806040525081019062001d0f919062003827565b9392505050565b610109546001600160a01b0316331462001d435760405163b58c129760e01b815260040160405180910390fd5b604051631da0f25760e21b815273F8dfeCE366C5CDba20f41aa155bF50d2f195a39e90637683c95c90620013a2908690869086906101179060040162003841565b6033546001600160a01b0316331462001db057604051630cd5bd6f60e21b815260040160405180910390fd5b60405162968b7960e01b81526001600160a01b0382166004820152610116602482015273F8dfeCE366C5CDba20f41aa155bF50d2f195a39e9062968b799060440162000e2e565b6002600154141562001e1d5760405162461bcd60e51b8152600401620016ca90620033f9565b600260015562001e2f838383620024f6565b50506001805550565b6033546001600160a01b0316331462001e6457604051630cd5bd6f60e21b815260040160405180910390fd5b60365460ff161562001e895760405163b1134ca960e01b815260040160405180910390fd5b620011d7620026e3565b6033546000906001600160a01b0316158062000f2257505060385460ff1690565b600062001ec38260d26200271a565b92915050565b6033546001600160a01b0316331462001ef557604051630cd5bd6f60e21b815260040160405180910390fd5b61010a5460405163763c2b5d60e11b8152600481018490526001600160a01b0380841660248301529091166044820152610110606482015261010f608482015261011160a482015273F8dfeCE366C5CDba20f41aa155bF50d2f195a39e9063ec7856ba9060c40162000ece565b6033546001600160a01b0316331462001f8e57604051630cd5bd6f60e21b815260040160405180910390fd5b62001f9b8383836200274f565b505050565b6002600154141562001fc65760405162461bcd60e51b8152600401620016ca90620033f9565b600260015533600090815260d160205260409020546001600160a01b0316801562001ff2578062001ff4565b815b61010a54604051633e9ec44360e11b8152600481018790526001600160a01b03808716602483015280841660448301526101156064830152909116608482015290915073F8dfeCE366C5CDba20f41aa155bF50d2f195a39e90637d3d88869060a40160006040518083038186803b1580156200206f57600080fd5b505af415801562002084573d6000803e3d6000fd5b505060018055505050505050565b604051638596e32b60e01b81526001600160a01b0380841660048301528216602482015260d06044820152731f6C88af80cEcE299f190071E2Af336Ddcf170bF90638596e32b9060640162000ece565b60008054610100900460ff16156200212e578160ff166001148015620021075750303b155b620021265760405162461bcd60e51b8152600401620016ca9062003879565b506000919050565b60005460ff808416911610620021585760405162461bcd60e51b8152600401620016ca9062003879565b506000805460ff191660ff92909216919091179055600190565b919050565b6000620021856001620020e2565b905080156200219e576000805461ff0019166101001790555b606b80546001600160a01b0319166001600160a01b038416179055620021c36200275e565b80156200220a576000805461ff0019169055604051600181527f7f26b83ff96e1f2b6a682f133852f6798a09c465da95921460cefb38474024989060200160405180910390a15b5050565b600054610100900460ff16620022385760405162461bcd60e51b8152600401620016ca90620038c7565b620011d762002792565b600054610100900460ff166200226c5760405162461bcd60e51b8152600401620016ca90620038c7565b620011d7620027c2565b6038805460ff191682151590811790915560006039556040519081527f868d89ead22a5d10f456845ac0014901d9af7203e71cf0892d70d9dc262c2fb9906020015b60405180910390a150565b6040516339c4831560e01b81526001600160a01b038216600482015260d06024820152731f6C88af80cEcE299f190071E2Af336Ddcf170bF906339c483159060440162000e2e565b603380546001600160a01b038381166001600160a01b0319831681179093556000603581905560405191909216929183917f8be0079c531659141344cd1fd0a4f28419497f9722a3daafe3b4186f6b6457e09190a35050565b4260398190556040519081527fa78fdca214e4619ef34a695316d423f5b0d8274bc919d29733bf8f92ec8cbb7a906020015b60405180910390a1565b606b54604051635190bc5360e01b81526001600160a01b0383811660048301526000921690635190bc5390602401602060405180830381865afa158015620023ec573d6000803e3d6000fd5b505050506040513d601f19601f8201168201806040525081019062001ec3919062003912565b42603555603480546001600160a01b0319166001600160a01b0383169081179091556040517f6ab4d119f23076e8ad491bc65ce85f017fb0591dce08755ba8591059cc51737a90600090a250565b6036805460ff191682151590811790915560006037556040519081527f243ebbb2f905234bbf0556bb38e1f7c23b09ffd2e441a16e58b844eb2ab7a39790602001620022b8565b63ffffffff81166000908152609d602052604090205480620021725760405162461bcd60e51b81526020600482015260076024820152662172656d6f746560c81b6044820152606401620016ca565b6001600160a01b0381166200251e57604051637dd33f2b60e01b815260040160405180910390fd5b826200253d57604051630af1548760e41b815260040160405180910390fd5b61010e546000906001600160a01b039081169063f15376869085161562002565578462002573565b61010a546001600160a01b03165b6040516001600160e01b031960e084901b1681526001600160a01b0390911660048201526024016040805180830381865afa158015620025b7573d6000803e3d6000fd5b505050506040513d601f19601f82011682018060405250810190620025dd919062003936565b915050620025ea62000f04565b1580156200261157506001600160a01b038216600090815260d0602052604090205460ff16155b15620026305760405163237c7bef60e01b815260040160405180910390fd5b6200263a62001e93565b1580156200265857506000818152610110602052604090205460ff16155b15620026775760405163bdb84e1360e01b815260040160405180910390fd5b61010a54604051630f52295360e01b8152600481018690526001600160a01b038086166024830152808516604483015261011560648301526084820184905290911660a482015273F8dfeCE366C5CDba20f41aa155bF50d2f195a39e90630f5229539060c40162001278565b4260378190556040519081527fa52048c5f468d21a62e4644ac4db19bcaa1a20f0cf37d163ba49c7217d35feb89060200162002396565b6001600160a01b03808316600090815260208390526040812054909116801562002745578062002747565b835b949350505050565b62001f9b83838360d0620027f5565b600054610100900460ff16620027885760405162461bcd60e51b8152600401620016ca90620038c7565b620011d762002987565b600054610100900460ff16620027bc5760405162461bcd60e51b8152600401620016ca90620038c7565b60018055565b600054610100900460ff16620027ec5760405162461bcd60e51b8152600401620016ca90620038c7565b62093a8060cf55565b6001600160a01b0384166200281d57604051630487895760e01b815260040160405180910390fd5b6001600160a01b03841660009081526020829052604090205460ff16156200285857604051630ef8aa0160e21b815260040160405180910390fd5b6001600160a01b03841660008181526020838152604091829020805460ff1916600117905590513381527fbc68405e644da2aaf25623ce2199da82c6dfd2e1de102b400eba6a091704d4f4910160405180910390a26001600160a01b0383161562002917576001600160a01b03848116600081815260028401602052604080822080546001600160a01b0319169488169485179055519091907fd73892e8827a6025d74a01fca72a8e0d9e2c04080272e728f8861410c7d3c2d1908390a45b6001600160a01b0382161562002981576001600160a01b03848116600081815260018401602052604080822080546001600160a01b0319169487169485179055519091907f31f32ebf07b0ac7fe173f7b7f3f943020d9bdc6dbfbdcdae01bd45ea78d953d7908390a45b50505050565b600054610100900460ff16620029b15760405162461bcd60e51b8152600401620016ca90620038c7565b620011d7336200230b565b611605806200396883390190565b6001600160a01b03811681146200148557600080fd5b80356200217281620029ca565b60006020828403121562002a0057600080fd5b813562001d0f81620029ca565b60006040828403121562002a2057600080fd5b50919050565b6000806060838503121562002a3a57600080fd5b62002a46848462002a0d565b9150604083013562002a5881620029ca565b809150509250929050565b6000806040838503121562002a7757600080fd5b823562002a8481620029ca565b9150602083013562002a5881620029ca565b60006020828403121562002aa957600080fd5b5035919050565b600080600080600060a0868803121562002ac957600080fd5b85359450602086013562002add81620029ca565b9350604086013562002aef81620029ca565b9250606086013562002b0181620029ca565b9150608086013562002b1381620029ca565b809150509295509295909350565b63ffffffff811681146200148557600080fd5b60008083601f84011262002b4757600080fd5b5081356001600160401b0381111562002b5f57600080fd5b6020830191508360208260051b850101111562002b7b57600080fd5b9250929050565b6000806000806060858703121562002b9957600080fd5b843562002ba68162002b21565b9350602085013562002bb881620029ca565b925060408501356001600160401b0381111562002bd457600080fd5b62002be28782880162002b34565b95989497509550505050565b60008060006080848603121562002c0457600080fd5b62002c10858562002a0d565b9250604084013562002c2281620029ca565b9150606084013562002c3481620029ca565b809150509250925092565b6000806040838503121562002c5357600080fd5b50508035926020909101359150565b60006020828403121562002c7557600080fd5b813562001d0f8162002b21565b634e487b7160e01b600052604160045260246000fd5b604051608081016001600160401b038111828210171562002cbd5762002cbd62002c82565b60405290565b60405160e081016001600160401b038111828210171562002cbd5762002cbd62002c82565b604051601f8201601f191681016001600160401b038111828210171562002d135762002d1362002c82565b604052919050565b600082601f83011262002d2d57600080fd5b81356001600160401b0381111562002d495762002d4962002c82565b62002d5e601f8201601f191660200162002ce8565b81815284602083860101111562002d7457600080fd5b816020850160208301376000918101602001919091529392505050565b6000806000806080858703121562002da857600080fd5b843562002db58162002b21565b9350602085013562002dc78162002b21565b92506040850135915060608501356001600160401b0381111562002dea57600080fd5b62002df88782880162002d1b565b91505092959194509250565b6000806040838503121562002e1857600080fd5b823562002e258162002b21565b946020939093013593505050565b60006020828403121562002e4657600080fd5b81356001600160401b0381111562002e5d57600080fd5b82016080818503121562001d0f57600080fd5b6000806040838503121562002e8457600080fd5b82359150602083013562002a5881620029ca565b60006020828403121562002eab57600080fd5b81356001600160401b0381111562002ec257600080fd5b820160e0818503121562001d0f57600080fd5b60008060006040848603121562002eeb57600080fd5b833562002ef881620029ca565b925060208401356001600160401b0381111562002f1457600080fd5b62002f228682870162002b34565b9497909650939450505050565b60008060006060848603121562002f4557600080fd5b83359250602084013562002f5981620029ca565b9150604084013562002c3481620029ca565b60008060006060848603121562002f8157600080fd5b833562002f8e81620029ca565b9250602084013562002f5981620029ca565b803562002fad8162002b21565b63ffffffff168252602090810135910152565b6080810162002fd0828662002fa0565b6001600160a01b0393909316604082015260600152919050565b6000828210156200300b57634e487b7160e01b600052601160045260246000fd5b500390565b81835260006001600160fb1b038311156200302a57600080fd5b8260051b8083602087013760009401602001938452509192915050565b63ffffffff87168152600060018060a01b03808816602084015260a060408401526200307860a08401878962003010565b941660608301525060800152949350505050565b60e081016200309c828962002fa0565b6001600160a01b039687166040830152949095166060860152608085019290925260a084015260c090920191909152919050565b6000815180845260005b81811015620030f857602081850181015186830182015201620030da565b818111156200310b576000602083870101525b50601f01601f19169290920160200192915050565b63ffffffff8716815260c0602082015260006200314160c0830188620030d0565b6040830196909652506001600160a01b03939093166060840152608083019190915260a09091015292915050565b60008235607e198336030181126200318657600080fd5b9190910192915050565b600060808284031215620031a357600080fd5b620031ad62002c98565b90508135620031bc81620029ca565b815260208201356001600160401b03811115620031d857600080fd5b620031e68482850162002d1b565b6020830152506040820135620031fc8162002b21565b60408201526060820135620032118162002b21565b606082015292915050565b6000608082360312156200322f57600080fd5b6200323962002c98565b82356001600160401b038111156200325057600080fd5b6200325e3682860162003190565b82525060208301356200327181620029ca565b602082015260408381013590820152606092830135928101929092525090565b600060208284031215620032a457600080fd5b815162001d0f81620029ca565b60018060a01b0381511682526000602082015160806020850152620032da6080850182620030d0565b9050604083015163ffffffff808216604087015280606086015116606087015250508091505092915050565b608081526000855160e06080840152805160806101608501526200332f6101e0850182620032b1565b6020838101516001600160a01b0390811661018088015260408501516101a08801526060909401516101c087015289015192831660a08601529050604088015160c085015260608801516001600160a01b03811660e08601529150608088015161010085015260a08801516001600160a01b038116610120860152915060c0979097015161014084015250506020810193909352604083019190915260609091015290565b60008060408385031215620033e857600080fd5b505080516020909101519092909150565b6020808252601f908201527f5265656e7472616e637947756172643a207265656e7472616e742063616c6c00604082015260600190565b60006001600160401b038211156200344c576200344c62002c82565b5060051b60200190565b600082601f8301126200346857600080fd5b81356020620034816200347b8362003430565b62002ce8565b82815260059290921b84018101918181019086841115620034a157600080fd5b8286015b84811015620034c9578035620034bb81620029ca565b8352918301918301620034a5565b509695505050505050565b600082601f830112620034e657600080fd5b81356020620034f96200347b8362003430565b82815260059290921b840181019181810190868411156200351957600080fd5b8286015b84811015620034c95780356001600160401b038111156200353e5760008081fd5b6200354e8986838b010162002d1b565b8452509183019183016200351d565b600060e082360312156200357057600080fd5b6200357a62002cc3565b82356001600160401b03808211156200359257600080fd5b620035a03683870162003190565b8352620035b060208601620029e0565b60208401526040850135915080821115620035ca57600080fd5b620035d83683870162003456565b60408401526060850135915080821115620035f257600080fd5b506200360136828601620034d4565b6060830152506080830135608082015260a083013560a08201526200362960c08401620029e0565b60c082015292915050565b600081518084526020808501808196508360051b8101915082860160005b85811015620036805782840389526200366d848351620030d0565b9885019893509084019060010162003652565b5091979650505050505050565b60006101008083528a5181828501528051915060e0610200850152620036b86102e0850183620032b1565b6020828101516001600160a01b0390811661022088015260408401518784036101ff199081016102408a015281518086529184019650929360009391908501905b808510156200371d57875184168252968501966001949094019390850190620036f9565b506060860151965081898203016102608a01526200373c818862003634565b965050505050608082015161028086015260a08201516102a086015260c08201519150620037766102c08601836001600160a01b03169052565b8c810151801515610120870152915060408d015161014086015260608d01516001600160a01b038116610160870152915060808d01516001600160a01b038116610180870152915060a08d01516001600160a01b0381166101a0870152915060c08d01516101c086015260e08d01516101e08601528293508b818601525050508760408301528660608301528560808301528460a08301528360c08301528260e08301529998505050505050505050565b6000602082840312156200383a57600080fd5b5051919050565b6001600160a01b038516815260606020820181905260009062003868908301858762003010565b905082604083015295945050505050565b6020808252602e908201527f496e697469616c697a61626c653a20636f6e747261637420697320616c72656160408201526d191e481a5b9a5d1a585b1a5e995960921b606082015260800190565b6020808252602b908201527f496e697469616c697a61626c653a20636f6e7472616374206973206e6f74206960408201526a6e697469616c697a696e6760a81b606082015260800190565b6000602082840312156200392557600080fd5b8151801515811462001d0f57600080fd5b600080604083850312156200394a57600080fd5b8251620039578162002b21565b602093909301519294929350505056fe60e0604052601d60a081905262ffffff1960c090815262000024916000919062000067565b503480156200003257600080fd5b50604051620016053803806200160583398101604081905262000055916200010d565b6001600160a01b03166080526200017c565b82805462000075906200013f565b90600052602060002090601f016020900481019282620000995760008555620000e4565b82601f10620000b457805160ff1916838001178555620000e4565b82800160010185558215620000e4579182015b82811115620000e4578251825591602001919060010190620000c7565b50620000f2929150620000f6565b5090565b5b80821115620000f25760008155600101620000f7565b6000602082840312156200012057600080fd5b81516001600160a01b03811681146200013857600080fd5b9392505050565b600181811c908216806200015457607f821691505b602082108114156200017657634e487b7160e01b600052602260045260246000fd5b50919050565b6080516114676200019e6000396000818160d4015261010701526114676000f3fe60806040526004361061003f5760003560e01c80631e29b440146100445780632b59241f1461006e578063938b5f321461009b578063975740c6146100c5575b600080fd5b610057610052366004611103565b6100f8565b604051610065929190611270565b60405180910390f35b34801561007a57600080fd5b506100836102ef565b6040516001600160a01b039091168152602001610065565b3480156100a757600080fd5b506100b0610396565b60405163ffffffff9091168152602001610065565b3480156100d157600080fd5b507f0000000000000000000000000000000000000000000000000000000000000000610083565b60006060336001600160a01b037f000000000000000000000000000000000000000000000000000000000000000016146101635760405162461bcd60e51b8152602060048201526007602482015266234f433a30323760c81b60448201526064015b60405180910390fd5b6001600160a01b038616158061017e5761017e87898b6103b4565b600060606001600160a01b038a163b6101c55760405162461bcd60e51b81526020600482015260096024820152680858dbdb9d1c9858dd60ba1b604482015260640161015a565b87516101d89060009060208b0190610ffc565b50896001600160a01b0316836101ef5760006101f1565b8b5b888860405161020192919061128b565b60006040518083038185875af1925050503d806000811461023e576040519150601f19603f3d011682016040523d82523d6000602084013e610243565b606091505b5060408051808201909152601d80825262ffffff1960209092019182529294509092506102739160009190610ffc565b5081158015610280575082155b1561029057610290898b8d61049f565b896001600160a01b03168c7f627b4985667a94d1a70c70277b9471eed68009d6f9c3ae5d25fa799fd3f0398d8b8e8c8c8c888a6040516102d6979695949392919061129b565b60405180910390a3909b909a5098505050505050505050565b6000806103856000805461030290611318565b80601f016020809104026020016040519081016040528092919081815260200182805461032e90611318565b801561037b5780601f106103505761010080835404028352916020019161037b565b820191906000526020600020905b81548152906001019060200180831161035e57829003601f168201915b50505050506105b2565b9050610390816105cc565b91505090565b6000806103a96000805461030290611318565b9050610390816105fd565b604051636eb1769f60e11b81523060048201526001600160a01b038381166024830152600091839186169063dd62ed3e90604401602060405180830381865afa158015610405573d6000803e3d6000fd5b505050506040513d601f19601f82011682018060405250810190610429919061134d565b610433919061137c565b6040516001600160a01b03851660248201526044810182905290915061049990859063095ea7b360e01b906064015b60408051601f198184030181529190526020810180516001600160e01b03166001600160e01b03199093169290921790915261061f565b50505050565b604051636eb1769f60e11b81523060048201526001600160a01b0383811660248301526000919085169063dd62ed3e90604401602060405180830381865afa1580156104ef573d6000803e3d6000fd5b505050506040513d601f19601f82011682018060405250810190610513919061134d565b9050818110156105775760405162461bcd60e51b815260206004820152602960248201527f5361666545524332303a2064656372656173656420616c6c6f77616e63652062604482015268656c6f77207a65726f60b81b606482015260840161015a565b6040516001600160a01b038416602482015282820360448201819052906105ab90869063095ea7b360e01b90606401610462565b5050505050565b60006105c66105c183836106f6565b61071a565b92915050565b60008160016105e3815b62ffffff19841690610733565b506105f562ffffff198516600561080c565b949350505050565b600081600161060b816105d6565b506105f562ffffff19851660016004610821565b6000610674826040518060400160405280602081526020017f5361666545524332303a206c6f772d6c6576656c2063616c6c206661696c6564815250856001600160a01b03166108519092919063ffffffff16565b8051909150156106f157808060200190518101906106929190611394565b6106f15760405162461bcd60e51b815260206004820152602a60248201527f5361666545524332303a204552433230206f7065726174696f6e20646964206e6044820152691bdd081cdd58d8d9595960b21b606482015260840161015a565b505050565b81516000906020840161071164ffffffffff85168284610860565b95945050505050565b60006105c6610728836108a4565b62ffffff19166108de565b600061073f8383610939565b61080557600061075e6107528560d81c90565b64ffffffffff1661095c565b91505060006107738464ffffffffff1661095c565b6040517f5479706520617373657274696f6e206661696c65642e20476f7420307800000060208201526001600160b01b031960b086811b8216603d8401526c05c408af0e0cac6e8cac84060f609b1b604784015283901b16605482015290925060009150605e0160405160208183030381529060405290508060405162461bcd60e51b815260040161015a91906113b6565b5090919050565b600061081a83836014610821565b9392505050565b600061082e8260206113c9565b6108399060086113ec565b60ff16610847858585610a0a565b901c949350505050565b60606105f58484600085610b63565b60008061086d838561137c565b905060405181111561087d575060005b8061088f5762ffffff1991505061081a565b5050606092831b9190911790911b1760181b90565b60006001600160601b03601883901c16601914156108d4576301000000600160d81b038216600160d81b176105c6565b62ffffff196105c6565b60006108e982610c94565b6109355760405162461bcd60e51b815260206004820152601960248201527f56616c696469747920617373657274696f6e206661696c656400000000000000604482015260640161015a565b5090565b60008164ffffffffff1661094d8460d81c90565b64ffffffffff16149392505050565b600080601f5b600f8160ff1611156109b157600061097b8260086113ec565b60ff1685901c905061098c81610cd2565b61ffff16841793508160ff166010146109a757601084901b93505b5060001901610962565b50600f5b60ff8160ff161015610a045760006109ce8260086113ec565b60ff1685901c90506109df81610cd2565b61ffff16831792508160ff166000146109fa57601083901b92505b50600019016109b5565b50915091565b600060ff8216610a1c5750600061081a565b610a2f8460181c6001600160601b031690565b6001600160601b0316610a4560ff84168561137c565b1115610aa957610a90610a618560781c6001600160601b031690565b6001600160601b0316610a7d8660181c6001600160601b031690565b6001600160601b0316858560ff16610d04565b60405162461bcd60e51b815260040161015a91906113b6565b60208260ff161115610b235760405162461bcd60e51b815260206004820152603a60248201527f54797065644d656d566965772f696e646578202d20417474656d70746564207460448201527f6f20696e646578206d6f7265207468616e203332206279746573000000000000606482015260840161015a565b600882026000610b3c8660781c6001600160601b031690565b6001600160601b031690506000600160ff1b60001984011d91909501511695945050505050565b606082471015610bc45760405162461bcd60e51b815260206004820152602660248201527f416464726573733a20696e73756666696369656e742062616c616e636520666f6044820152651c8818d85b1b60d21b606482015260840161015a565b6001600160a01b0385163b610c1b5760405162461bcd60e51b815260206004820152601d60248201527f416464726573733a2063616c6c20746f206e6f6e2d636f6e7472616374000000604482015260640161015a565b600080866001600160a01b03168587604051610c379190611415565b60006040518083038185875af1925050503d8060008114610c74576040519150601f19603f3d011682016040523d82523d6000602084013e610c79565b606091505b5091509150610c89828286610e2e565b979650505050505050565b6000610ca08260d81c90565b64ffffffffff1664ffffffffff1415610cbb57506000919050565b6000610cc683610e67565b60405110199392505050565b6000610ce460048360ff16901c610ea0565b60ff1661ffff919091161760081b610cfb82610ea0565b60ff1617919050565b60606000610d118661095c565b9150506000610d1f8661095c565b9150506000610d2d8661095c565b9150506000610d3b8661095c565b604080517f54797065644d656d566965772f696e646578202d204f76657272616e20746865602082015274040ecd2caee5c40a6d8d2c6ca40d2e640c2e84060f605b1b818301526001600160d01b031960d098891b811660558301526e040eed2e8d040d8cadccee8d04060f608b1b605b830181905297891b8116606a8301527f2e20417474656d7074656420746f20696e646578206174206f666673657420306070830152600f60fb1b609083015295881b861660918201526097810196909652951b90921660a68401525050601760f91b60ac8201528151808203608d01815260ad90910190915295945050505050565b60608315610e3d57508161081a565b825115610e4d5782518084602001fd5b8160405162461bcd60e51b815260040161015a91906113b6565b6000610e7c8260181c6001600160601b031690565b610e8f8360781c6001600160601b031690565b016001600160601b03169050919050565b600060f08083179060ff82161415610ebb5750603092915050565b8060ff1660f11415610ed05750603192915050565b8060ff1660f21415610ee55750603292915050565b8060ff1660f31415610efa5750603392915050565b8060ff1660f41415610f0f5750603492915050565b8060ff1660f51415610f245750603592915050565b8060ff1660f61415610f395750603692915050565b8060ff1660f71415610f4e5750603792915050565b8060ff1660f81415610f635750603892915050565b8060ff1660f91415610f785750603992915050565b8060ff1660fa1415610f8d5750606192915050565b8060ff1660fb1415610fa25750606292915050565b8060ff1660fc1415610fb75750606392915050565b8060ff1660fd1415610fcc5750606492915050565b8060ff1660fe1415610fe15750606592915050565b8060ff1660ff1415610ff65750606692915050565b50919050565b82805461100890611318565b90600052602060002090601f01602090048101928261102a5760008555611070565b82601f1061104357805160ff1916838001178555611070565b82800160010185558215611070579182015b82811115611070578251825591602001919060010190611055565b506109359291505b808211156109355760008155600101611078565b6001600160a01b03811681146110a157600080fd5b50565b634e487b7160e01b600052604160045260246000fd5b60008083601f8401126110cc57600080fd5b50813567ffffffffffffffff8111156110e457600080fd5b6020830191508360208285010111156110fc57600080fd5b9250929050565b600080600080600080600060c0888a03121561111e57600080fd5b873596506020880135955060408801356111378161108c565b945060608801356111478161108c565b9350608088013567ffffffffffffffff8082111561116457600080fd5b818a0191508a601f83011261117857600080fd5b81358181111561118a5761118a6110a4565b604051601f8201601f19908116603f011681019083821181831017156111b2576111b26110a4565b816040528281528d60208487010111156111cb57600080fd5b8260208601602083013760006020848301015280975050505060a08a01359150808211156111f857600080fd5b506112058a828b016110ba565b989b979a50959850939692959293505050565b60005b8381101561123357818101518382015260200161121b565b838111156104995750506000910152565b6000815180845261125c816020860160208601611218565b601f01601f19169290920160200192915050565b82151581526040602082015260006105f56040830184611244565b8183823760009101908152919050565b60018060a01b038816815286602082015260c0604082015260006112c260c0830188611244565b828103606084015285815285876020830137600060208783010152601f19601f8701168101905060208382030160808401526113016020820186611244565b91505082151560a083015298975050505050505050565b600181811c9082168061132c57607f821691505b60208210811415610ff657634e487b7160e01b600052602260045260246000fd5b60006020828403121561135f57600080fd5b5051919050565b634e487b7160e01b600052601160045260246000fd5b6000821982111561138f5761138f611366565b500190565b6000602082840312156113a657600080fd5b8151801515811461081a57600080fd5b60208152600061081a6020830184611244565b600060ff821660ff8416808210156113e3576113e3611366565b90039392505050565b600060ff821660ff84168160ff048111821515161561140d5761140d611366565b029392505050565b60008251611427818460208701611218565b919091019291505056fea2646970667358221220367359cdf430571b9fe95e3cef00876b30a728e74c3d1d8c9ce3789959b4d64b64736f6c634300080b0033a2646970667358221220ddd177090f1399914b238ccb26dff201b682d7f2915b24b1e311f53662ddbf5564736f6c634300080b0033",
  "deployedBytecode": "0x608060405260043610620004235760003560e01c80639b0989081162000227578063c6bf691d116200012f578063e070da0911620000b9578063ea7a904d1162000084578063ea7a904d1462000d11578063eb492f441462000d36578063f31abcc41462000d5b578063f40fec521462000d80578063ffaf3f1a1462000dbb57600080fd5b8063e070da091462000ca5578063e47602f71462000cbc578063e8be0dfc1462000cd4578063e9160f3e1462000cec57600080fd5b8063d1851c9211620000fa578063d1851c921462000c1a578063d232c2201462000c3a578063d7aada811462000c5b578063dd39f00d1462000c8057600080fd5b8063c6bf691d1462000b7e578063c95f9d0e1462000bbb578063ca27a83d1462000bd2578063cf9737691462000bf757600080fd5b8063bd7e1e2e11620001b1578063c26c9c0a116200017c578063c26c9c0a1462000af5578063c2fb26a61462000b2a578063c34c08e51462000b43578063c5b350df1462000b6657600080fd5b8063bd7e1e2e1462000a74578063c0c17baf1462000aaf578063c104f41a1462000ac7578063c1a049591462000ade57600080fd5b8063ac210cc711620001f2578063ac210cc714620009ee578063affed0e01462000a11578063b1f8100d1462000a2a578063b49c53a71462000a4f57600080fd5b80639b098908146200095b5780639bf6d875146200098d5780639d23c4c714620009a6578063ab2dc3f514620009c957600080fd5b8063468f6668116200032b5780636ae0b15411620002b557806383bbb806116200028057806383bbb80614620008bd5780638741eac514620008ee5780638cba8b6a14620009065780638da5cb5b146200093b57600080fd5b80636ae0b1541462000836578063715018a6146200085b5780637708a628146200087357806382904716146200089857600080fd5b80636006209111620002f657806360062091146200078357806360f0a5ac14620007e25780636a41633a14620008075780636a42b8f8146200081e57600080fd5b8063468f666814620006ec5780634b72c5da1462000711578063569d29e4146200072957806357bd0a32146200074e57600080fd5b80632c1999d011620003ad5780633b688da611620003785780633b688da614620006365780633cf52ffb146200067357806341258b5c146200068a57806341bdc8b514620006c757600080fd5b80632c1999d014620005835780633339df9614620005d75780633641e08314620005f95780633855b467146200061e57600080fd5b80631506e46311620003ee5780631506e463146200050a5780632004ef45146200052f57806322a3c00714620005475780632424401f146200056c57600080fd5b80630951d6d8146200043057806309935b8f146200045b57806312d5717014620004825780631407093b14620004bc57600080fd5b366200042b57005b600080fd5b3480156200043d57600080fd5b506200044860d55481565b6040519081526020015b60405180910390f35b3480156200046857600080fd5b50620004806200047a366004620029ed565b62000de0565b005b3480156200048f57600080fd5b5062000448620004a1366004620029ed565b6001600160a01b0316600090815260d4602052604090205490565b348015620004c957600080fd5b50620004f9620004db366004620029ed565b6001600160a01b0316600090815260d0602052604090205460ff1690565b604051901515815260200162000452565b3480156200051757600080fd5b50620004806200052936600462002a26565b62000e63565b3480156200053c57600080fd5b50620004f962000f04565b3480156200055457600080fd5b50620004806200056636600462002a63565b62000f27565b620004806200057d36600462002a96565b62000f77565b3480156200059057600080fd5b50620005be620005a236600462002a96565b610112602052600090815260409020546001600160a01b031681565b6040516001600160a01b03909116815260200162000452565b348015620005e457600080fd5b50606b54620005be906001600160a01b031681565b3480156200060657600080fd5b50620004806200061836600462002ab0565b62000fb8565b3480156200062b57600080fd5b506200048062001126565b3480156200064357600080fd5b50620005be62000655366004620029ed565b6001600160a01b03908116600090815260d360205260409020541690565b3480156200068057600080fd5b5060355462000448565b3480156200069757600080fd5b5062000448620006a936600462002a63565b61011560209081526000928352604080842090915290825290205481565b348015620006d457600080fd5b5062000480620006e6366004620029ed565b620011d9565b348015620006f957600080fd5b50620004806200070b36600462002b82565b62001227565b3480156200071e57600080fd5b506200044860d65481565b3480156200073657600080fd5b50620004806200074836600462002bee565b620012b0565b3480156200075b57600080fd5b50620004f96200076d36600462002a96565b6101106020526000908152604090205460ff1681565b3480156200079057600080fd5b50620007c5620007a2366004620029ed565b610111602052600090815260409020805460019091015463ffffffff9091169082565b6040805163ffffffff909316835260208301919091520162000452565b348015620007ef57600080fd5b506200048062000801366004620029ed565b620013d9565b3480156200081457600080fd5b5060395462000448565b3480156200082b57600080fd5b5062093a8062000448565b3480156200084357600080fd5b506200048062000855366004620029ed565b6200144e565b3480156200086857600080fd5b506200048062001488565b3480156200088057600080fd5b50620005be6200089236600462002c3f565b6200154a565b348015620008a557600080fd5b5062000480620008b736600462002a96565b62001584565b348015620008ca57600080fd5b5062000448620008dc36600462002c62565b609d6020526000908152604090205481565b348015620008fb57600080fd5b506200048062001630565b3480156200091357600080fd5b50620004f962000925366004620029ed565b6101166020526000908152604090205460ff1681565b3480156200094857600080fd5b506033546001600160a01b0316620005be565b3480156200096857600080fd5b50620004486200097a36600462002a96565b6101176020526000908152604090205481565b3480156200099a57600080fd5b50620004486101195481565b348015620009b357600080fd5b5061010e54620005be906001600160a01b031681565b348015620009d657600080fd5b5062000480620009e836600462002d91565b6200168b565b348015620009fb57600080fd5b5061010a54620005be906001600160a01b031681565b34801562000a1e57600080fd5b506200044861010b5481565b34801562000a3757600080fd5b506200048062000a49366004620029ed565b620017bf565b34801562000a5c57600080fd5b506200048062000a6e36600462002e04565b6200186b565b34801562000a8157600080fd5b50620005be62000a9336600462002a96565b61010f602052600090815260409020546001600160a01b031681565b34801562000abc57600080fd5b5062000480620018b0565b6200044862000ad836600462002e33565b62001961565b34801562000aeb57600080fd5b5060375462000448565b34801562000b0257600080fd5b50620004f962000b1436600462002a96565b6101136020526000908152604090205460ff1681565b34801562000b3757600080fd5b506200044861010d5481565b34801562000b5057600080fd5b5061010c54620005be906001600160a01b031681565b34801562000b7357600080fd5b506200048062001af9565b34801562000b8b57600080fd5b50620005be62000b9d366004620029ed565b6001600160a01b03908116600090815260d160205260409020541690565b6200048062000bcc36600462002e70565b62001b8b565b34801562000bdf57600080fd5b506200044862000bf136600462002e98565b62001bcb565b34801562000c0457600080fd5b5061010954620005be906001600160a01b031681565b34801562000c2757600080fd5b506034546001600160a01b0316620005be565b34801562000c4757600080fd5b506033546001600160a01b031615620004f9565b34801562000c6857600080fd5b506200048062000c7a36600462002ed5565b62001d16565b34801562000c8d57600080fd5b506200048062000c9f366004620029ed565b62001d84565b6200048062000cb636600462002f2f565b62001df7565b34801562000cc957600080fd5b506200048062001e38565b34801562000ce157600080fd5b50620004f962001e93565b34801562000cf957600080fd5b50620005be62000d0b366004620029ed565b62001eb4565b34801562000d1e57600080fd5b506200048062000d3036600462002e70565b62001ec9565b34801562000d4357600080fd5b506200048062000d5536600462002f6b565b62001f62565b34801562000d6857600080fd5b506200048062000d7a36600462002f2f565b62001fa0565b34801562000d8d57600080fd5b50620005be62000d9f36600462002a96565b610118602052600090815260409020546001600160a01b031681565b34801562000dc857600080fd5b506200048062000dda36600462002a63565b62002092565b60cf54604051630d183f5b60e31b81526001600160a01b0383166004820152602481019190915260d0604482015273__$75c29036ac1bef2befe7a7f1afa513e8fd$__906368c1fad8906064015b60006040518083038186803b15801562000e4757600080fd5b505af415801562000e5c573d6000803e3d6000fd5b5050505050565b6033546001600160a01b0316331462000e8f57604051630cd5bd6f60e21b815260040160405180910390fd5b6040516301d9fdc360e61b815273__$e9b8f0d4275fffc6a137782a630dcbfc8b$__9063767f70c09062000ece908590859061010f9060040162002fc0565b60006040518083038186803b15801562000ee757600080fd5b505af415801562000efc573d6000803e3d6000fd5b505050505050565b6033546000906001600160a01b0316158062000f22575060365460ff165b905090565b60405163dc26fe0f60e01b81526001600160a01b0380841660048301528216602482015260d0604482015273__$75c29036ac1bef2befe7a7f1afa513e8fd$__9063dc26fe0f9060640162000ece565b6040516302fba8f160e51b815260048101829052610117602482015273__$e9b8f0d4275fffc6a137782a630dcbfc8b$__90635f751e209060440162000e2e565b600062000fc66001620020e2565b9050801562000fdf576000805461ff0019166101001790555b62000fea8562002177565b62000ff46200220e565b62000ffe62002242565b600061010b5561010d86905561010980546001600160a01b0319166001600160a01b03841617905560405130906200103690620029bc565b6001600160a01b039091168152602001604051809103906000f08015801562001063573d6000803e3d6000fd5b5061010c80546001600160a01b03199081166001600160a01b039384161790915561010e8054821687841617905561010a80549091169185169190911790557fc5d2460186f7233c927e7db2dcc703c0e500b653ca82273b7bfad8045d85a47060d75561270b60d55561271060d655600561011955801562000efc576000805461ff0019169055604051600181527f7f26b83ff96e1f2b6a682f133852f6798a09c465da95921460cefb38474024989060200160405180910390a1505050505050565b6033546001600160a01b031633146200115257604051630cd5bd6f60e21b815260040160405180910390fd5b60385460ff16156200117757604051634e3d8db760e11b815260040160405180910390fd5b6039546200119857604051631c2ed13b60e01b815260040160405180910390fd5b62093a8060395442620011ac919062002fea565b11620011cb57604051635aeaa22f60e11b815260040160405180910390fd5b620011d7600162002276565b565b6033546001600160a01b031633146200120557604051630cd5bd6f60e21b815260040160405180910390fd5b606b80546001600160a01b0319166001600160a01b0392909216919091179055565b6101095460405163271b322160e01b815273__$e9b8f0d4275fffc6a137782a630dcbfc8b$__9163271b322191620012789188918891889188916001600160a01b0316906101189060040162003047565b60006040518083038186803b1580156200129157600080fd5b505af4158015620012a6573d6000803e3d6000fd5b5050505050505050565b6033546001600160a01b03163314620012dc57604051630cd5bd6f60e21b815260040160405180910390fd5b61010a546040516330d512f360e11b815273__$e9b8f0d4275fffc6a137782a630dcbfc8b$__916361aa25e6916200133191879187916001600160a01b0316906101109061011190610112906004016200308c565b60006040518083038186803b1580156200134a57600080fd5b505af41580156200135f573d6000803e3d6000fd5b50506040516301d9fdc360e61b815273__$e9b8f0d4275fffc6a137782a630dcbfc8b$__925063767f70c09150620013a2908690859061010f9060040162002fc0565b60006040518083038186803b158015620013bb57600080fd5b505af4158015620013d0573d6000803e3d6000fd5b50505050505050565b6033546001600160a01b031633146200140557604051630cd5bd6f60e21b815260040160405180910390fd5b6040516373b8255360e01b81526001600160a01b0382166004820152610116602482015273__$e9b8f0d4275fffc6a137782a630dcbfc8b$__906373b825539060440162000e2e565b6033546001600160a01b031633146200147a57604051630cd5bd6f60e21b815260040160405180910390fd5b6200148581620022c3565b50565b6033546001600160a01b03163314620014b457604051630cd5bd6f60e21b815260040160405180910390fd5b603554620014d557604051632a2d7bdb60e11b815260040160405180910390fd5b62093a8060355442620014e9919062002fea565b11620015085760405163136ae5ad60e01b815260040160405180910390fd5b6034546001600160a01b03161562001533576040516301a8692360e11b815260040160405180910390fd5b603454620011d7906001600160a01b03166200230b565b61011460205281600052604060002081815481106200156857600080fd5b6000918252602090912001546001600160a01b03169150829050565b6033546001600160a01b03163314620015b057604051630cd5bd6f60e21b815260040160405180910390fd5b61011954604051633d0e0fb560e01b815273__$e9b8f0d4275fffc6a137782a630dcbfc8b$__91633d0e0fb591620015f5918591600401918252602082015260400190565b60006040518083038186803b1580156200160e57600080fd5b505af415801562001623573d6000803e3d6000fd5b5050506101199190915550565b6033546001600160a01b031633146200165c57604051630cd5bd6f60e21b815260040160405180910390fd5b60385460ff1615620016815760405163382242c360e01b815260040160405180910390fd5b620011d762002364565b6200169633620023a0565b620016d35760405162461bcd60e51b8152602060048201526008602482015267217265706c69636160c01b60448201526064015b60405180910390fd5b63ffffffff84166000908152609d60205260409020548490839081146200172e5760405162461bcd60e51b815260206004820152600e60248201526d10b932b6b7ba32903937baba32b960911b6044820152606401620016ca565b61010e546040516310007eb560e31b815273__$e9b8f0d4275fffc6a137782a630dcbfc8b$__91638003f5a89162001785918a918891610113916001600160a01b0390911690610114906101159060040162003120565b60006040518083038186803b1580156200179e57600080fd5b505af4158015620017b3573d6000803e3d6000fd5b50505050505050505050565b6033546001600160a01b03163314620017eb57604051630cd5bd6f60e21b815260040160405180910390fd5b6034546001600160a01b0382811691161480156200181157506001600160a01b03811615155b156200183057604051635334dcf560e01b815260040160405180910390fd5b6033546001600160a01b038281169116141562001860576040516304d9ae9160e21b815260040160405180910390fd5b620014858162002412565b6033546001600160a01b031633146200189757604051630cd5bd6f60e21b815260040160405180910390fd5b63ffffffff9091166000908152609d6020526040902055565b6033546001600160a01b03163314620018dc57604051630cd5bd6f60e21b815260040160405180910390fd5b60365460ff1615620019015760405163cd0cbe2b60e01b815260040160405180910390fd5b6037546200192257604051636da7f42560e01b815260040160405180910390fd5b62093a806037544262001936919062002fea565b11620019555760405163288a062560e21b815260040160405180910390fd5b620011d7600162002460565b6000806200198d6200197484806200316f565b6200198790608081019060600162002c62565b620024a7565b905060006040518060e0016040528085620019a8906200321c565b815261010a546001600160a01b0390811660208084019190915261010b5460408085019190915261010e548316606085015261010d546080850152606b548151639fa92f9d60e01b8152915160a090950194931692639fa92f9d926004808401939192918290030181865afa15801562001a26573d6000803e3d6000fd5b505050506040513d601f19601f8201168201806040525081019062001a4c919062003291565b6001600160a01b0316815260200183815250905060008073__$e9b8f0d4275fffc6a137782a630dcbfc8b$__634772eb6d8461011161010f6101176040518563ffffffff1660e01b815260040162001aa8949392919062003306565b6040805180830381865af415801562001ac5573d6000803e3d6000fd5b505050506040513d601f19601f8201168201806040525081019062001aeb9190620033d4565b61010b559695505050505050565b6034546001600160a01b0316331462001b25576040516340a61e4d60e01b815260040160405180910390fd5b6034546033546001600160a01b039081169116141562001b58576040516315cb454d60e21b815260040160405180910390fd5b62093a806035544262001b6c919062002fea565b11620015335760405163970af82d60e01b815260040160405180910390fd5b6002600154141562001bb15760405162461bcd60e51b8152600401620016ca90620033f9565b600260015562001bc3828233620024f6565b505060018055565b336000908152610116602052604081205460ff1662001bfd57604051633412968d60e01b815260040160405180910390fd5b60006040518061010001604052808462001c17906200355d565b815260200162001c2662000f04565b1515815261011954602082015261010e546001600160a01b0390811660408084019190915261010a548216606084015261010c54909116608083015260d55460a083015260d65460c090920191909152516345b049e960e01b815290915073__$e9b8f0d4275fffc6a137782a630dcbfc8b$__906345b049e99062001ccb90849061011490610113906101159061010f906101129060d090610118906004016200368d565b602060405180830381865af415801562001ce9573d6000803e3d6000fd5b505050506040513d601f19601f8201168201806040525081019062001d0f919062003827565b9392505050565b610109546001600160a01b0316331462001d435760405163b58c129760e01b815260040160405180910390fd5b604051631da0f25760e21b815273__$e9b8f0d4275fffc6a137782a630dcbfc8b$__90637683c95c90620013a2908690869086906101179060040162003841565b6033546001600160a01b0316331462001db057604051630cd5bd6f60e21b815260040160405180910390fd5b60405162968b7960e01b81526001600160a01b0382166004820152610116602482015273__$e9b8f0d4275fffc6a137782a630dcbfc8b$__9062968b799060440162000e2e565b6002600154141562001e1d5760405162461bcd60e51b8152600401620016ca90620033f9565b600260015562001e2f838383620024f6565b50506001805550565b6033546001600160a01b0316331462001e6457604051630cd5bd6f60e21b815260040160405180910390fd5b60365460ff161562001e895760405163b1134ca960e01b815260040160405180910390fd5b620011d7620026e3565b6033546000906001600160a01b0316158062000f2257505060385460ff1690565b600062001ec38260d26200271a565b92915050565b6033546001600160a01b0316331462001ef557604051630cd5bd6f60e21b815260040160405180910390fd5b61010a5460405163763c2b5d60e11b8152600481018490526001600160a01b0380841660248301529091166044820152610110606482015261010f608482015261011160a482015273__$e9b8f0d4275fffc6a137782a630dcbfc8b$__9063ec7856ba9060c40162000ece565b6033546001600160a01b0316331462001f8e57604051630cd5bd6f60e21b815260040160405180910390fd5b62001f9b8383836200274f565b505050565b6002600154141562001fc65760405162461bcd60e51b8152600401620016ca90620033f9565b600260015533600090815260d160205260409020546001600160a01b0316801562001ff2578062001ff4565b815b61010a54604051633e9ec44360e11b8152600481018790526001600160a01b03808716602483015280841660448301526101156064830152909116608482015290915073__$e9b8f0d4275fffc6a137782a630dcbfc8b$__90637d3d88869060a40160006040518083038186803b1580156200206f57600080fd5b505af415801562002084573d6000803e3d6000fd5b505060018055505050505050565b604051638596e32b60e01b81526001600160a01b0380841660048301528216602482015260d0604482015273__$75c29036ac1bef2befe7a7f1afa513e8fd$__90638596e32b9060640162000ece565b60008054610100900460ff16156200212e578160ff166001148015620021075750303b155b620021265760405162461bcd60e51b8152600401620016ca9062003879565b506000919050565b60005460ff808416911610620021585760405162461bcd60e51b8152600401620016ca9062003879565b506000805460ff191660ff92909216919091179055600190565b919050565b6000620021856001620020e2565b905080156200219e576000805461ff0019166101001790555b606b80546001600160a01b0319166001600160a01b038416179055620021c36200275e565b80156200220a576000805461ff0019169055604051600181527f7f26b83ff96e1f2b6a682f133852f6798a09c465da95921460cefb38474024989060200160405180910390a15b5050565b600054610100900460ff16620022385760405162461bcd60e51b8152600401620016ca90620038c7565b620011d762002792565b600054610100900460ff166200226c5760405162461bcd60e51b8152600401620016ca90620038c7565b620011d7620027c2565b6038805460ff191682151590811790915560006039556040519081527f868d89ead22a5d10f456845ac0014901d9af7203e71cf0892d70d9dc262c2fb9906020015b60405180910390a150565b6040516339c4831560e01b81526001600160a01b038216600482015260d0602482015273__$75c29036ac1bef2befe7a7f1afa513e8fd$__906339c483159060440162000e2e565b603380546001600160a01b038381166001600160a01b0319831681179093556000603581905560405191909216929183917f8be0079c531659141344cd1fd0a4f28419497f9722a3daafe3b4186f6b6457e09190a35050565b4260398190556040519081527fa78fdca214e4619ef34a695316d423f5b0d8274bc919d29733bf8f92ec8cbb7a906020015b60405180910390a1565b606b54604051635190bc5360e01b81526001600160a01b0383811660048301526000921690635190bc5390602401602060405180830381865afa158015620023ec573d6000803e3d6000fd5b505050506040513d601f19601f8201168201806040525081019062001ec3919062003912565b42603555603480546001600160a01b0319166001600160a01b0383169081179091556040517f6ab4d119f23076e8ad491bc65ce85f017fb0591dce08755ba8591059cc51737a90600090a250565b6036805460ff191682151590811790915560006037556040519081527f243ebbb2f905234bbf0556bb38e1f7c23b09ffd2e441a16e58b844eb2ab7a39790602001620022b8565b63ffffffff81166000908152609d602052604090205480620021725760405162461bcd60e51b81526020600482015260076024820152662172656d6f746560c81b6044820152606401620016ca565b6001600160a01b0381166200251e57604051637dd33f2b60e01b815260040160405180910390fd5b826200253d57604051630af1548760e41b815260040160405180910390fd5b61010e546000906001600160a01b039081169063f15376869085161562002565578462002573565b61010a546001600160a01b03165b6040516001600160e01b031960e084901b1681526001600160a01b0390911660048201526024016040805180830381865afa158015620025b7573d6000803e3d6000fd5b505050506040513d601f19601f82011682018060405250810190620025dd919062003936565b915050620025ea62000f04565b1580156200261157506001600160a01b038216600090815260d0602052604090205460ff16155b15620026305760405163237c7bef60e01b815260040160405180910390fd5b6200263a62001e93565b1580156200265857506000818152610110602052604090205460ff16155b15620026775760405163bdb84e1360e01b815260040160405180910390fd5b61010a54604051630f52295360e01b8152600481018690526001600160a01b038086166024830152808516604483015261011560648301526084820184905290911660a482015273__$e9b8f0d4275fffc6a137782a630dcbfc8b$__90630f5229539060c40162001278565b4260378190556040519081527fa52048c5f468d21a62e4644ac4db19bcaa1a20f0cf37d163ba49c7217d35feb89060200162002396565b6001600160a01b03808316600090815260208390526040812054909116801562002745578062002747565b835b949350505050565b62001f9b83838360d0620027f5565b600054610100900460ff16620027885760405162461bcd60e51b8152600401620016ca90620038c7565b620011d762002987565b600054610100900460ff16620027bc5760405162461bcd60e51b8152600401620016ca90620038c7565b60018055565b600054610100900460ff16620027ec5760405162461bcd60e51b8152600401620016ca90620038c7565b62093a8060cf55565b6001600160a01b0384166200281d57604051630487895760e01b815260040160405180910390fd5b6001600160a01b03841660009081526020829052604090205460ff16156200285857604051630ef8aa0160e21b815260040160405180910390fd5b6001600160a01b03841660008181526020838152604091829020805460ff1916600117905590513381527fbc68405e644da2aaf25623ce2199da82c6dfd2e1de102b400eba6a091704d4f4910160405180910390a26001600160a01b0383161562002917576001600160a01b03848116600081815260028401602052604080822080546001600160a01b0319169488169485179055519091907fd73892e8827a6025d74a01fca72a8e0d9e2c04080272e728f8861410c7d3c2d1908390a45b6001600160a01b0382161562002981576001600160a01b03848116600081815260018401602052604080822080546001600160a01b0319169487169485179055519091907f31f32ebf07b0ac7fe173f7b7f3f943020d9bdc6dbfbdcdae01bd45ea78d953d7908390a45b50505050565b600054610100900460ff16620029b15760405162461bcd60e51b8152600401620016ca90620038c7565b620011d7336200230b565b611605806200396883390190565b6001600160a01b03811681146200148557600080fd5b80356200217281620029ca565b60006020828403121562002a0057600080fd5b813562001d0f81620029ca565b60006040828403121562002a2057600080fd5b50919050565b6000806060838503121562002a3a57600080fd5b62002a46848462002a0d565b9150604083013562002a5881620029ca565b809150509250929050565b6000806040838503121562002a7757600080fd5b823562002a8481620029ca565b9150602083013562002a5881620029ca565b60006020828403121562002aa957600080fd5b5035919050565b600080600080600060a0868803121562002ac957600080fd5b85359450602086013562002add81620029ca565b9350604086013562002aef81620029ca565b9250606086013562002b0181620029ca565b9150608086013562002b1381620029ca565b809150509295509295909350565b63ffffffff811681146200148557600080fd5b60008083601f84011262002b4757600080fd5b5081356001600160401b0381111562002b5f57600080fd5b6020830191508360208260051b850101111562002b7b57600080fd5b9250929050565b6000806000806060858703121562002b9957600080fd5b843562002ba68162002b21565b9350602085013562002bb881620029ca565b925060408501356001600160401b0381111562002bd457600080fd5b62002be28782880162002b34565b95989497509550505050565b60008060006080848603121562002c0457600080fd5b62002c10858562002a0d565b9250604084013562002c2281620029ca565b9150606084013562002c3481620029ca565b809150509250925092565b6000806040838503121562002c5357600080fd5b50508035926020909101359150565b60006020828403121562002c7557600080fd5b813562001d0f8162002b21565b634e487b7160e01b600052604160045260246000fd5b604051608081016001600160401b038111828210171562002cbd5762002cbd62002c82565b60405290565b60405160e081016001600160401b038111828210171562002cbd5762002cbd62002c82565b604051601f8201601f191681016001600160401b038111828210171562002d135762002d1362002c82565b604052919050565b600082601f83011262002d2d57600080fd5b81356001600160401b0381111562002d495762002d4962002c82565b62002d5e601f8201601f191660200162002ce8565b81815284602083860101111562002d7457600080fd5b816020850160208301376000918101602001919091529392505050565b6000806000806080858703121562002da857600080fd5b843562002db58162002b21565b9350602085013562002dc78162002b21565b92506040850135915060608501356001600160401b0381111562002dea57600080fd5b62002df88782880162002d1b565b91505092959194509250565b6000806040838503121562002e1857600080fd5b823562002e258162002b21565b946020939093013593505050565b60006020828403121562002e4657600080fd5b81356001600160401b0381111562002e5d57600080fd5b82016080818503121562001d0f57600080fd5b6000806040838503121562002e8457600080fd5b82359150602083013562002a5881620029ca565b60006020828403121562002eab57600080fd5b81356001600160401b0381111562002ec257600080fd5b820160e0818503121562001d0f57600080fd5b60008060006040848603121562002eeb57600080fd5b833562002ef881620029ca565b925060208401356001600160401b0381111562002f1457600080fd5b62002f228682870162002b34565b9497909650939450505050565b60008060006060848603121562002f4557600080fd5b83359250602084013562002f5981620029ca565b9150604084013562002c3481620029ca565b60008060006060848603121562002f8157600080fd5b833562002f8e81620029ca565b9250602084013562002f5981620029ca565b803562002fad8162002b21565b63ffffffff168252602090810135910152565b6080810162002fd0828662002fa0565b6001600160a01b0393909316604082015260600152919050565b6000828210156200300b57634e487b7160e01b600052601160045260246000fd5b500390565b81835260006001600160fb1b038311156200302a57600080fd5b8260051b8083602087013760009401602001938452509192915050565b63ffffffff87168152600060018060a01b03808816602084015260a060408401526200307860a08401878962003010565b941660608301525060800152949350505050565b60e081016200309c828962002fa0565b6001600160a01b039687166040830152949095166060860152608085019290925260a084015260c090920191909152919050565b6000815180845260005b81811015620030f857602081850181015186830182015201620030da565b818111156200310b576000602083870101525b50601f01601f19169290920160200192915050565b63ffffffff8716815260c0602082015260006200314160c0830188620030d0565b6040830196909652506001600160a01b03939093166060840152608083019190915260a09091015292915050565b60008235607e198336030181126200318657600080fd5b9190910192915050565b600060808284031215620031a357600080fd5b620031ad62002c98565b90508135620031bc81620029ca565b815260208201356001600160401b03811115620031d857600080fd5b620031e68482850162002d1b565b6020830152506040820135620031fc8162002b21565b60408201526060820135620032118162002b21565b606082015292915050565b6000608082360312156200322f57600080fd5b6200323962002c98565b82356001600160401b038111156200325057600080fd5b6200325e3682860162003190565b82525060208301356200327181620029ca565b602082015260408381013590820152606092830135928101929092525090565b600060208284031215620032a457600080fd5b815162001d0f81620029ca565b60018060a01b0381511682526000602082015160806020850152620032da6080850182620030d0565b9050604083015163ffffffff808216604087015280606086015116606087015250508091505092915050565b608081526000855160e06080840152805160806101608501526200332f6101e0850182620032b1565b6020838101516001600160a01b0390811661018088015260408501516101a08801526060909401516101c087015289015192831660a08601529050604088015160c085015260608801516001600160a01b03811660e08601529150608088015161010085015260a08801516001600160a01b038116610120860152915060c0979097015161014084015250506020810193909352604083019190915260609091015290565b60008060408385031215620033e857600080fd5b505080516020909101519092909150565b6020808252601f908201527f5265656e7472616e637947756172643a207265656e7472616e742063616c6c00604082015260600190565b60006001600160401b038211156200344c576200344c62002c82565b5060051b60200190565b600082601f8301126200346857600080fd5b81356020620034816200347b8362003430565b62002ce8565b82815260059290921b84018101918181019086841115620034a157600080fd5b8286015b84811015620034c9578035620034bb81620029ca565b8352918301918301620034a5565b509695505050505050565b600082601f830112620034e657600080fd5b81356020620034f96200347b8362003430565b82815260059290921b840181019181810190868411156200351957600080fd5b8286015b84811015620034c95780356001600160401b038111156200353e5760008081fd5b6200354e8986838b010162002d1b565b8452509183019183016200351d565b600060e082360312156200357057600080fd5b6200357a62002cc3565b82356001600160401b03808211156200359257600080fd5b620035a03683870162003190565b8352620035b060208601620029e0565b60208401526040850135915080821115620035ca57600080fd5b620035d83683870162003456565b60408401526060850135915080821115620035f257600080fd5b506200360136828601620034d4565b6060830152506080830135608082015260a083013560a08201526200362960c08401620029e0565b60c082015292915050565b600081518084526020808501808196508360051b8101915082860160005b85811015620036805782840389526200366d848351620030d0565b9885019893509084019060010162003652565b5091979650505050505050565b60006101008083528a5181828501528051915060e0610200850152620036b86102e0850183620032b1565b6020828101516001600160a01b0390811661022088015260408401518784036101ff199081016102408a015281518086529184019650929360009391908501905b808510156200371d57875184168252968501966001949094019390850190620036f9565b506060860151965081898203016102608a01526200373c818862003634565b965050505050608082015161028086015260a08201516102a086015260c08201519150620037766102c08601836001600160a01b03169052565b8c810151801515610120870152915060408d015161014086015260608d01516001600160a01b038116610160870152915060808d01516001600160a01b038116610180870152915060a08d01516001600160a01b0381166101a0870152915060c08d01516101c086015260e08d01516101e08601528293508b818601525050508760408301528660608301528560808301528460a08301528360c08301528260e08301529998505050505050505050565b6000602082840312156200383a57600080fd5b5051919050565b6001600160a01b038516815260606020820181905260009062003868908301858762003010565b905082604083015295945050505050565b6020808252602e908201527f496e697469616c697a61626c653a20636f6e747261637420697320616c72656160408201526d191e481a5b9a5d1a585b1a5e995960921b606082015260800190565b6020808252602b908201527f496e697469616c697a61626c653a20636f6e7472616374206973206e6f74206960408201526a6e697469616c697a696e6760a81b606082015260800190565b6000602082840312156200392557600080fd5b8151801515811462001d0f57600080fd5b600080604083850312156200394a57600080fd5b8251620039578162002b21565b602093909301519294929350505056fe60e0604052601d60a081905262ffffff1960c090815262000024916000919062000067565b503480156200003257600080fd5b50604051620016053803806200160583398101604081905262000055916200010d565b6001600160a01b03166080526200017c565b82805462000075906200013f565b90600052602060002090601f016020900481019282620000995760008555620000e4565b82601f10620000b457805160ff1916838001178555620000e4565b82800160010185558215620000e4579182015b82811115620000e4578251825591602001919060010190620000c7565b50620000f2929150620000f6565b5090565b5b80821115620000f25760008155600101620000f7565b6000602082840312156200012057600080fd5b81516001600160a01b03811681146200013857600080fd5b9392505050565b600181811c908216806200015457607f821691505b602082108114156200017657634e487b7160e01b600052602260045260246000fd5b50919050565b6080516114676200019e6000396000818160d4015261010701526114676000f3fe60806040526004361061003f5760003560e01c80631e29b440146100445780632b59241f1461006e578063938b5f321461009b578063975740c6146100c5575b600080fd5b610057610052366004611103565b6100f8565b604051610065929190611270565b60405180910390f35b34801561007a57600080fd5b506100836102ef565b6040516001600160a01b039091168152602001610065565b3480156100a757600080fd5b506100b0610396565b60405163ffffffff9091168152602001610065565b3480156100d157600080fd5b507f0000000000000000000000000000000000000000000000000000000000000000610083565b60006060336001600160a01b037f000000000000000000000000000000000000000000000000000000000000000016146101635760405162461bcd60e51b8152602060048201526007602482015266234f433a30323760c81b60448201526064015b60405180910390fd5b6001600160a01b038616158061017e5761017e87898b6103b4565b600060606001600160a01b038a163b6101c55760405162461bcd60e51b81526020600482015260096024820152680858dbdb9d1c9858dd60ba1b604482015260640161015a565b87516101d89060009060208b0190610ffc565b50896001600160a01b0316836101ef5760006101f1565b8b5b888860405161020192919061128b565b60006040518083038185875af1925050503d806000811461023e576040519150601f19603f3d011682016040523d82523d6000602084013e610243565b606091505b5060408051808201909152601d80825262ffffff1960209092019182529294509092506102739160009190610ffc565b5081158015610280575082155b1561029057610290898b8d61049f565b896001600160a01b03168c7f627b4985667a94d1a70c70277b9471eed68009d6f9c3ae5d25fa799fd3f0398d8b8e8c8c8c888a6040516102d6979695949392919061129b565b60405180910390a3909b909a5098505050505050505050565b6000806103856000805461030290611318565b80601f016020809104026020016040519081016040528092919081815260200182805461032e90611318565b801561037b5780601f106103505761010080835404028352916020019161037b565b820191906000526020600020905b81548152906001019060200180831161035e57829003601f168201915b50505050506105b2565b9050610390816105cc565b91505090565b6000806103a96000805461030290611318565b9050610390816105fd565b604051636eb1769f60e11b81523060048201526001600160a01b038381166024830152600091839186169063dd62ed3e90604401602060405180830381865afa158015610405573d6000803e3d6000fd5b505050506040513d601f19601f82011682018060405250810190610429919061134d565b610433919061137c565b6040516001600160a01b03851660248201526044810182905290915061049990859063095ea7b360e01b906064015b60408051601f198184030181529190526020810180516001600160e01b03166001600160e01b03199093169290921790915261061f565b50505050565b604051636eb1769f60e11b81523060048201526001600160a01b0383811660248301526000919085169063dd62ed3e90604401602060405180830381865afa1580156104ef573d6000803e3d6000fd5b505050506040513d601f19601f82011682018060405250810190610513919061134d565b9050818110156105775760405162461bcd60e51b815260206004820152602960248201527f5361666545524332303a2064656372656173656420616c6c6f77616e63652062604482015268656c6f77207a65726f60b81b606482015260840161015a565b6040516001600160a01b038416602482015282820360448201819052906105ab90869063095ea7b360e01b90606401610462565b5050505050565b60006105c66105c183836106f6565b61071a565b92915050565b60008160016105e3815b62ffffff19841690610733565b506105f562ffffff198516600561080c565b949350505050565b600081600161060b816105d6565b506105f562ffffff19851660016004610821565b6000610674826040518060400160405280602081526020017f5361666545524332303a206c6f772d6c6576656c2063616c6c206661696c6564815250856001600160a01b03166108519092919063ffffffff16565b8051909150156106f157808060200190518101906106929190611394565b6106f15760405162461bcd60e51b815260206004820152602a60248201527f5361666545524332303a204552433230206f7065726174696f6e20646964206e6044820152691bdd081cdd58d8d9595960b21b606482015260840161015a565b505050565b81516000906020840161071164ffffffffff85168284610860565b95945050505050565b60006105c6610728836108a4565b62ffffff19166108de565b600061073f8383610939565b61080557600061075e6107528560d81c90565b64ffffffffff1661095c565b91505060006107738464ffffffffff1661095c565b6040517f5479706520617373657274696f6e206661696c65642e20476f7420307800000060208201526001600160b01b031960b086811b8216603d8401526c05c408af0e0cac6e8cac84060f609b1b604784015283901b16605482015290925060009150605e0160405160208183030381529060405290508060405162461bcd60e51b815260040161015a91906113b6565b5090919050565b600061081a83836014610821565b9392505050565b600061082e8260206113c9565b6108399060086113ec565b60ff16610847858585610a0a565b901c949350505050565b60606105f58484600085610b63565b60008061086d838561137c565b905060405181111561087d575060005b8061088f5762ffffff1991505061081a565b5050606092831b9190911790911b1760181b90565b60006001600160601b03601883901c16601914156108d4576301000000600160d81b038216600160d81b176105c6565b62ffffff196105c6565b60006108e982610c94565b6109355760405162461bcd60e51b815260206004820152601960248201527f56616c696469747920617373657274696f6e206661696c656400000000000000604482015260640161015a565b5090565b60008164ffffffffff1661094d8460d81c90565b64ffffffffff16149392505050565b600080601f5b600f8160ff1611156109b157600061097b8260086113ec565b60ff1685901c905061098c81610cd2565b61ffff16841793508160ff166010146109a757601084901b93505b5060001901610962565b50600f5b60ff8160ff161015610a045760006109ce8260086113ec565b60ff1685901c90506109df81610cd2565b61ffff16831792508160ff166000146109fa57601083901b92505b50600019016109b5565b50915091565b600060ff8216610a1c5750600061081a565b610a2f8460181c6001600160601b031690565b6001600160601b0316610a4560ff84168561137c565b1115610aa957610a90610a618560781c6001600160601b031690565b6001600160601b0316610a7d8660181c6001600160601b031690565b6001600160601b0316858560ff16610d04565b60405162461bcd60e51b815260040161015a91906113b6565b60208260ff161115610b235760405162461bcd60e51b815260206004820152603a60248201527f54797065644d656d566965772f696e646578202d20417474656d70746564207460448201527f6f20696e646578206d6f7265207468616e203332206279746573000000000000606482015260840161015a565b600882026000610b3c8660781c6001600160601b031690565b6001600160601b031690506000600160ff1b60001984011d91909501511695945050505050565b606082471015610bc45760405162461bcd60e51b815260206004820152602660248201527f416464726573733a20696e73756666696369656e742062616c616e636520666f6044820152651c8818d85b1b60d21b606482015260840161015a565b6001600160a01b0385163b610c1b5760405162461bcd60e51b815260206004820152601d60248201527f416464726573733a2063616c6c20746f206e6f6e2d636f6e7472616374000000604482015260640161015a565b600080866001600160a01b03168587604051610c379190611415565b60006040518083038185875af1925050503d8060008114610c74576040519150601f19603f3d011682016040523d82523d6000602084013e610c79565b606091505b5091509150610c89828286610e2e565b979650505050505050565b6000610ca08260d81c90565b64ffffffffff1664ffffffffff1415610cbb57506000919050565b6000610cc683610e67565b60405110199392505050565b6000610ce460048360ff16901c610ea0565b60ff1661ffff919091161760081b610cfb82610ea0565b60ff1617919050565b60606000610d118661095c565b9150506000610d1f8661095c565b9150506000610d2d8661095c565b9150506000610d3b8661095c565b604080517f54797065644d656d566965772f696e646578202d204f76657272616e20746865602082015274040ecd2caee5c40a6d8d2c6ca40d2e640c2e84060f605b1b818301526001600160d01b031960d098891b811660558301526e040eed2e8d040d8cadccee8d04060f608b1b605b830181905297891b8116606a8301527f2e20417474656d7074656420746f20696e646578206174206f666673657420306070830152600f60fb1b609083015295881b861660918201526097810196909652951b90921660a68401525050601760f91b60ac8201528151808203608d01815260ad90910190915295945050505050565b60608315610e3d57508161081a565b825115610e4d5782518084602001fd5b8160405162461bcd60e51b815260040161015a91906113b6565b6000610e7c8260181c6001600160601b031690565b610e8f8360781c6001600160601b031690565b016001600160601b03169050919050565b600060f08083179060ff82161415610ebb5750603092915050565b8060ff1660f11415610ed05750603192915050565b8060ff1660f21415610ee55750603292915050565b8060ff1660f31415610efa5750603392915050565b8060ff1660f41415610f0f5750603492915050565b8060ff1660f51415610f245750603592915050565b8060ff1660f61415610f395750603692915050565b8060ff1660f71415610f4e5750603792915050565b8060ff1660f81415610f635750603892915050565b8060ff1660f91415610f785750603992915050565b8060ff1660fa1415610f8d5750606192915050565b8060ff1660fb1415610fa25750606292915050565b8060ff1660fc1415610fb75750606392915050565b8060ff1660fd1415610fcc5750606492915050565b8060ff1660fe1415610fe15750606592915050565b8060ff1660ff1415610ff65750606692915050565b50919050565b82805461100890611318565b90600052602060002090601f01602090048101928261102a5760008555611070565b82601f1061104357805160ff1916838001178555611070565b82800160010185558215611070579182015b82811115611070578251825591602001919060010190611055565b506109359291505b808211156109355760008155600101611078565b6001600160a01b03811681146110a157600080fd5b50565b634e487b7160e01b600052604160045260246000fd5b60008083601f8401126110cc57600080fd5b50813567ffffffffffffffff8111156110e457600080fd5b6020830191508360208285010111156110fc57600080fd5b9250929050565b600080600080600080600060c0888a03121561111e57600080fd5b873596506020880135955060408801356111378161108c565b945060608801356111478161108c565b9350608088013567ffffffffffffffff8082111561116457600080fd5b818a0191508a601f83011261117857600080fd5b81358181111561118a5761118a6110a4565b604051601f8201601f19908116603f011681019083821181831017156111b2576111b26110a4565b816040528281528d60208487010111156111cb57600080fd5b8260208601602083013760006020848301015280975050505060a08a01359150808211156111f857600080fd5b506112058a828b016110ba565b989b979a50959850939692959293505050565b60005b8381101561123357818101518382015260200161121b565b838111156104995750506000910152565b6000815180845261125c816020860160208601611218565b601f01601f19169290920160200192915050565b82151581526040602082015260006105f56040830184611244565b8183823760009101908152919050565b60018060a01b038816815286602082015260c0604082015260006112c260c0830188611244565b828103606084015285815285876020830137600060208783010152601f19601f8701168101905060208382030160808401526113016020820186611244565b91505082151560a083015298975050505050505050565b600181811c9082168061132c57607f821691505b60208210811415610ff657634e487b7160e01b600052602260045260246000fd5b60006020828403121561135f57600080fd5b5051919050565b634e487b7160e01b600052601160045260246000fd5b6000821982111561138f5761138f611366565b500190565b6000602082840312156113a657600080fd5b8151801515811461081a57600080fd5b60208152600061081a6020830184611244565b600060ff821660ff8416808210156113e3576113e3611366565b90039392505050565b600060ff821660ff84168160ff048111821515161561140d5761140d611366565b029392505050565b60008251611427818460208701611218565b919091019291505056fea2646970667358221220367359cdf430571b9fe95e3cef00876b30a728e74c3d1d8c9ce3789959b4d64b64736f6c634300080b0033a2646970667358221220ddd177090f1399914b238ccb26dff201b682d7f2915b24b1e311f53662ddbf5564736f6c634300080b0033",
  "libraries": {
    "ConnextLogic": "0xF8dfeCE366C5CDba20f41aa155bF50d2f195a39e",
    "RouterPermissionsManagerLogic": "0x1f6C88af80cEcE299f190071E2Af336Ddcf170bF"
  },
  "devdoc": {
    "author": "Connext Labs",
    "details": "This contract primarily contains the storage used by the functions within the `ConnextLogic` contract, which contains the meaningful logic",
    "kind": "dev",
    "methods": {
      "acceptProposedRouterOwner(address)": {
        "params": {
          "router": "Router address to set recipient"
        }
      },
      "addLiquidity(uint256,address)": {
        "details": "The liquidity will be held in the local asset, which is the representation if you are *not* on the canonical domain, and the canonical asset otherwise.",
        "params": {
          "_amount": "- The amount of liquidity to add for the router",
          "_local": "- The address of the asset you're adding liquidity for. If adding liquidity of the native asset, routers may use `address(0)` or the wrapped asset"
        }
      },
      "addLiquidityFor(uint256,address,address)": {
        "details": "The liquidity will be held in the local asset, which is the representation if you are *not* on the canonical domain, and the canonical asset otherwise.",
        "params": {
          "_amount": "- The amount of liquidity to add for the router",
          "_local": "- The address of the asset you're adding liquidity for. If adding liquidity of the native asset, routers may use `address(0)` or the wrapped asset",
          "_router": "The router you are adding liquidity on behalf of"
        }
      },
      "addRelayer(address)": {
        "params": {
          "_relayer": "- The relayer address to add"
        }
      },
      "bumpTransfer(bytes32)": {
        "params": {
          "_transferId": "- The unique identifier of the crosschain transaction"
        }
      },
      "claim(address,bytes32[])": {
        "details": "Called by the RelayerFeeRouter.handle message. The validity of the transferIds is asserted before dispatching the message.",
        "params": {
          "_recipient": "- address on origin chain to send claimed funds to",
          "_transferIds": "- transferIds to claim"
        }
      },
      "enrollRemoteRouter(uint32,bytes32)": {
        "params": {
          "_domain": "The domain of the remote xApp Router",
          "_router": "The address of the remote xApp Router"
        }
      },
      "execute(((address,bytes,uint32,uint32),address,address[],bytes[],uint256,uint256,address))": {
        "details": "Can be called prior to or after `handle`, depending if fast liquidity is being used."
      },
      "getProposedRouterOwner(address)": {
        "details": "All routers must wait for the delay timeout before accepting a new owner",
        "params": {
          "_router": "The relevant router address"
        }
      },
      "getProposedRouterOwnerTimestamp(address)": {
        "details": "All routers must wait for the delay timeout before accepting a new owner",
        "params": {
          "_router": "The relevant router address"
        }
      },
      "getRouterApproval(address)": {
        "params": {
          "_router": "The relevant router address"
        }
      },
      "getRouterOwner(address)": {
        "details": "Uses logic function here to handle the case where router owner is not set. Other getters within this interface use explicitly the stored value",
        "params": {
          "_router": "The relevant router address"
        }
      },
      "getRouterRecipient(address)": {
        "details": "The recipient (if set) receives all funds when router liquidity is removed",
        "params": {
          "_router": "The relevant router address"
        }
      },
      "handle(uint32,uint32,bytes32,bytes)": {
        "details": "This function relies on nomad relayers and should not consume arbitrary amounts of gas",
        "params": {
          "_message": "The message",
          "_nonce": "The unique identifier for the message from origin to destination",
          "_origin": "The origin domain",
          "_sender": "The sender address"
        }
      },
      "initiateClaim(uint32,address,bytes32[])": {
        "details": "Domain should be the origin domain of all the transfer ids",
        "params": {
          "_domain": "- domain to claim funds on",
          "_recipient": "- address on origin chain to send claimed funds to",
          "_transferIds": "- transferIds to claim"
        }
      },
      "proposeRouterOwner(address,address)": {
        "params": {
          "proposed": "Proposed owner Address to set to router",
          "router": "Router address to set recipient"
        }
      },
      "removeAssetId(bytes32,address)": {
        "params": {
          "_adoptedAssetId": "- Corresponding adopted asset to remove",
          "_canonicalId": "- Token id to remove"
        }
      },
      "removeLiquidity(uint256,address,address)": {
        "params": {
          "_amount": "- The amount of liquidity to remove for the router",
          "_local": "- The address of the asset you're removing liquidity from. If removing liquidity of the native asset, routers may use `address(0)` or the wrapped asset",
          "_to": "The address that will receive the liquidity being removed"
        }
      },
      "removeRelayer(address)": {
        "params": {
          "_relayer": "- The relayer address to remove"
        }
      },
      "removeRouter(address)": {
        "params": {
          "_router": "Router address to remove"
        }
      },
      "setMaxRoutersPerTransfer(uint256)": {
        "params": {
          "_newMaxRouters": "The new max amount of routers"
        }
      },
      "setRouterRecipient(address,address)": {
        "details": "Router should only be able to set this once otherwise if router key compromised, no problem is solved since attacker could just update recipient",
        "params": {
          "recipient": "Recipient Address to set to router",
          "router": "Router address to set recipient"
        }
      },
      "setXAppConnectionManager(address)": {
        "params": {
          "_xAppConnectionManager": "The address of the xAppConnectionManager contract"
        }
      },
      "setupAsset((uint32,bytes32),address,address)": {
        "details": "When whitelisting the canonical asset, all representational assets would be whitelisted as well. In the event you have a different adopted asset (i.e. PoS USDC on polygon), you should *not* whitelist the adopted asset. The stable swap pool address used should allow you to swap between the local <> adopted asset",
        "params": {
          "_adoptedAssetId": "- The used asset id for this domain (i.e. PoS USDC for polygon)",
          "_canonical": "- The canonical asset to add by id and domain. All representations will be whitelisted as well"
        }
      },
      "setupRouter(address,address,address)": {
        "params": {
          "_owner": "Initial Owner of router",
          "_recipient": "Initial Recipient of router",
          "_router": "Router address to setup"
        }
      },
      "xcall(((address,bytes,uint32,uint32),address,uint256,uint256))": {
        "details": "This contract must have approval to transfer the adopted assets. They are then swapped to the local nomad assets via the configured AMM and sent over the bridge router.",
        "params": {
          "_args": "- The XCallArgs"
        },
        "returns": {
          "_0": "The transfer id of the crosschain transfer"
        }
      }
    },
    "stateVariables": {
      "__gap": {
        "details": "This empty reserved space is put in place to allow future versions to add new variables without shifting down storage in the inheritance chain. See https://docs.openzeppelin.com/contracts/4.x/upgradeable#storage_gaps"
      },
      "adoptedToCanonical": {
        "details": "If the adopted asset is the native asset, the keyed address will be the wrapped asset address"
      },
      "adoptedToLocalPools": {
        "details": "Swaps for an adopted asset <> nomad local asset (i.e. POS USDC <> madUSDC on polygon)"
      },
      "approvedAssets": {
        "details": "Mapping is keyed on the canonical token identifier matching what is stored in the token registry"
      },
      "approvedRelayers": {
        "details": "Send relayer fee if msg.sender is approvedRelayer. otherwise revert()"
      },
      "canonicalToAdopted": {
        "details": "If the adopted asset is the native asset, the stored address will be the wrapped asset address"
      },
      "domain": {
        "details": "Must match the nomad domain, which is distinct from the \"chainId\""
      },
      "nonce": {
        "details": "Assigned at first interaction (xcall on origin domain);"
      },
      "relayerFees": {
        "details": "This will track all of the relayer fees assigned to a transfer by id, including any bumps made by the relayer"
      },
      "routerBalances": {
        "details": "Routers should always store liquidity that they can expect to receive via the bridge on this domain (the nomad local asset)"
      },
      "transferRelayer": {
        "details": "When relayer claims, must check that the msg.sender has forwarded transfer"
      },
      "wrapper": {
        "details": "Needed because the nomad only handles ERC20 assets"
      }
    },
    "title": "ConnextHandler",
    "version": 1
  },
  "userdoc": {
    "kind": "user",
    "methods": {
      "acceptProposedOwner()": {
        "notice": "Transfers ownership of the contract to a new account (`newOwner`). Can only be called by the current owner."
      },
      "acceptProposedRouterOwner(address)": {
        "notice": "New router owner must accept role, or previous if proposed is 0x0"
      },
      "addLiquidity(uint256,address)": {
        "notice": "This is used by any router to increase their available liquidity for a given asset."
      },
      "addLiquidityFor(uint256,address,address)": {
        "notice": "This is used by anyone to increase a router's available liquidity for a given asset."
      },
      "addRelayer(address)": {
        "notice": "Used to add approved relayer"
      },
      "addStableSwapPool((uint32,bytes32),address)": {
        "notice": "Adds a stable swap pool for the local <> adopted asset."
      },
      "adoptedToCanonical(address)": {
        "notice": "Mapping of canonical to adopted assets on this domain"
      },
      "adoptedToLocalPools(bytes32)": {
        "notice": "Mapping holding the AMMs for swapping in and out of local assets"
      },
      "approvedAssets(bytes32)": {
        "notice": "Mapping of whitelisted assets on same domain as contract"
      },
      "approvedRelayers(address)": {
        "notice": "Mapping of approved relayers"
      },
      "assetOwnershipTimestamp()": {
        "notice": "Returns the timestamp when asset ownership was last proposed to be renounced"
      },
      "bumpTransfer(bytes32)": {
        "notice": "Anyone can call this function on the origin domain to increase the relayer fee for a transfer."
      },
      "canonicalToAdopted(bytes32)": {
        "notice": "Mapping of adopted to canonical on this domain"
      },
      "claim(address,bytes32[])": {
        "notice": "Pays out a relayer for the given fees"
      },
      "delay()": {
        "notice": "Returns the delay period before a new owner can be accepted."
      },
      "domain()": {
        "notice": "The domain this contract exists on"
      },
      "enrollRemoteRouter(uint32,bytes32)": {
        "notice": "Register the address of a Router contract for the same xApp on a remote chain"
      },
      "execute(((address,bytes,uint32,uint32),address,address[],bytes[],uint256,uint256,address))": {
        "notice": "Called on the destination domain to disburse correct assets to end recipient and execute any included calldata"
      },
      "executor()": {
        "notice": "The external contract that will execute crosschain calldata"
      },
      "getProposedRouterOwner(address)": {
        "notice": "Returns the currently proposed router owner"
      },
      "getProposedRouterOwnerTimestamp(address)": {
        "notice": "Returns the currently proposed router owner timestamp"
      },
      "getRouterApproval(address)": {
        "notice": "Returns the approved router for the given router address"
      },
      "getRouterOwner(address)": {
        "notice": "Returns the router owner if it is set, or the router itself if not"
      },
      "getRouterRecipient(address)": {
        "notice": "Returns the recipient for the specified router"
      },
      "handle(uint32,uint32,bytes32,bytes)": {
        "notice": "Handles an incoming message"
      },
      "initiateClaim(uint32,address,bytes32[])": {
        "notice": "Called by relayer when they want to claim owed funds on a given domain"
      },
      "isAssetOwnershipRenounced()": {
        "notice": "Indicates if the ownership of the asset whitelist has been renounced"
      },
      "isRouterOwnershipRenounced()": {
        "notice": "Indicates if the ownership of the router whitelist has been renounced"
      },
      "maxRoutersPerTransfer()": {
        "notice": "The max amount of routers a payment can be routed through"
      },
      "nonce()": {
        "notice": "Nonce for the contract, used to keep unique transfer ids."
      },
      "owner()": {
        "notice": "Returns the address of the current owner."
      },
      "proposeAssetOwnershipRenunciation()": {
        "notice": "Indicates if the ownership of the asset whitelist has been renounced"
      },
      "proposeNewOwner(address)": {
        "notice": "Sets the timestamp for an owner to be proposed, and sets the newly proposed owner as step 1 in a 2-step process"
      },
      "proposeRouterOwner(address,address)": {
        "notice": "Current owner or router may propose a new router owner"
      },
      "proposeRouterOwnershipRenunciation()": {
        "notice": "Indicates if the ownership of the router whitelist has been renounced"
      },
      "proposed()": {
        "notice": "Returns the address of the proposed owner."
      },
      "proposedTimestamp()": {
        "notice": "Returns the address of the proposed owner."
      },
      "reconciledTransfers(bytes32)": {
        "notice": "Mapping to determine if transfer is reconciled"
      },
      "relayerFeeRouter()": {
        "notice": "The local nomad relayer fee router"
      },
      "relayerFees(bytes32)": {
        "notice": "Stores the relayer fee for a transfer. Updated on origin domain when a user calls xcall or bump"
      },
      "removeAssetId(bytes32,address)": {
        "notice": "Used to remove assets from the whitelist"
      },
      "removeLiquidity(uint256,address,address)": {
        "notice": "This is used by any router to decrease their available liquidity for a given asset."
      },
      "removeRelayer(address)": {
        "notice": "Used to remove approved relayer"
      },
      "removeRouter(address)": {
        "notice": "Used to remove routers that can transact crosschain"
      },
      "renounceAssetOwnership()": {
        "notice": "Indicates if the ownership of the asset whitelist has been renounced"
      },
      "renounceOwnership()": {
        "notice": "Renounces ownership of the contract after a delay"
      },
      "renounceRouterOwnership()": {
        "notice": "Indicates if the ownership of the asset whitelist has been renounced"
      },
      "renounced()": {
        "notice": "Indicates if the ownership has been renounced() by checking if current owner is address(0)"
      },
      "routedTransfers(bytes32,uint256)": {
        "notice": "Mapping holding router address that provided fast liquidity"
      },
      "routerBalances(address,address)": {
        "notice": "Mapping of router to available balance of an asset"
      },
      "routerOwnershipTimestamp()": {
        "notice": "Returns the timestamp when router ownership was last proposed to be renounced"
      },
      "setMaxRoutersPerTransfer(uint256)": {
        "notice": "Used to set the max amount of routers a payment can be routed through"
      },
      "setRouterRecipient(address,address)": {
        "notice": "Sets the designated recipient for a router"
      },
      "setXAppConnectionManager(address)": {
        "notice": "Modify the contract the xApp uses to validate Replica contracts"
      },
      "setupAsset((uint32,bytes32),address,address)": {
        "notice": "Used to add supported assets. This is an admin only function"
      },
      "setupRouter(address,address,address)": {
        "notice": "Used to set router initial properties"
      },
      "tokenRegistry()": {
        "notice": "The local nomad token registry"
      },
      "transferRelayer(bytes32)": {
        "notice": "Stores the relayer of a transfer. Updated on the destination domain when a relayer calls execute for transfer"
      },
      "wrapper()": {
        "notice": "The address of the wrapper for the native asset on this domain"
      },
      "xcall(((address,bytes,uint32,uint32),address,uint256,uint256))": {
        "notice": "This function is called by a user who is looking to bridge funds"
      }
    },
    "notice": "Contains logic to facilitate bridging via nomad, including the provision of fast liquidity",
    "version": 1
  },
  "storageLayout": {
    "storage": [
      {
        "astId": 130,
        "contract": "contracts/nomad-xapps/contracts/connext/ConnextHandler.sol:ConnextHandler",
        "label": "_initialized",
        "offset": 0,
        "slot": "0",
        "type": "t_uint8"
      },
      {
        "astId": 133,
        "contract": "contracts/nomad-xapps/contracts/connext/ConnextHandler.sol:ConnextHandler",
        "label": "_initializing",
        "offset": 1,
        "slot": "0",
        "type": "t_bool"
      },
      {
        "astId": 390,
        "contract": "contracts/nomad-xapps/contracts/connext/ConnextHandler.sol:ConnextHandler",
        "label": "_status",
        "offset": 0,
        "slot": "1",
        "type": "t_uint256"
      },
      {
        "astId": 434,
        "contract": "contracts/nomad-xapps/contracts/connext/ConnextHandler.sol:ConnextHandler",
        "label": "__gap",
        "offset": 0,
        "slot": "2",
        "type": "t_array(t_uint256)49_storage"
      },
      {
        "astId": 6456,
        "contract": "contracts/nomad-xapps/contracts/connext/ConnextHandler.sol:ConnextHandler",
        "label": "_owner",
        "offset": 0,
        "slot": "51",
        "type": "t_address"
      },
      {
        "astId": 6458,
        "contract": "contracts/nomad-xapps/contracts/connext/ConnextHandler.sol:ConnextHandler",
        "label": "_proposed",
        "offset": 0,
        "slot": "52",
        "type": "t_address"
      },
      {
        "astId": 6460,
        "contract": "contracts/nomad-xapps/contracts/connext/ConnextHandler.sol:ConnextHandler",
        "label": "_proposedOwnershipTimestamp",
        "offset": 0,
        "slot": "53",
        "type": "t_uint256"
      },
      {
        "astId": 6462,
        "contract": "contracts/nomad-xapps/contracts/connext/ConnextHandler.sol:ConnextHandler",
        "label": "_routerOwnershipRenounced",
        "offset": 0,
        "slot": "54",
        "type": "t_bool"
      },
      {
        "astId": 6464,
        "contract": "contracts/nomad-xapps/contracts/connext/ConnextHandler.sol:ConnextHandler",
        "label": "_routerOwnershipTimestamp",
        "offset": 0,
        "slot": "55",
        "type": "t_uint256"
      },
      {
        "astId": 6466,
        "contract": "contracts/nomad-xapps/contracts/connext/ConnextHandler.sol:ConnextHandler",
        "label": "_assetOwnershipRenounced",
        "offset": 0,
        "slot": "56",
        "type": "t_bool"
      },
      {
        "astId": 6468,
        "contract": "contracts/nomad-xapps/contracts/connext/ConnextHandler.sol:ConnextHandler",
        "label": "_assetOwnershipTimestamp",
        "offset": 0,
        "slot": "57",
        "type": "t_uint256"
      },
      {
        "astId": 6953,
        "contract": "contracts/nomad-xapps/contracts/connext/ConnextHandler.sol:ConnextHandler",
        "label": "__gap",
        "offset": 0,
        "slot": "58",
        "type": "t_array(t_uint256)49_storage"
      },
      {
        "astId": 22237,
        "contract": "contracts/nomad-xapps/contracts/connext/ConnextHandler.sol:ConnextHandler",
        "label": "xAppConnectionManager",
        "offset": 0,
        "slot": "107",
        "type": "t_contract(XAppConnectionManager)17331"
      },
      {
        "astId": 22241,
        "contract": "contracts/nomad-xapps/contracts/connext/ConnextHandler.sol:ConnextHandler",
        "label": "__GAP",
        "offset": 0,
        "slot": "108",
        "type": "t_array(t_uint256)49_storage"
      },
      {
        "astId": 22131,
        "contract": "contracts/nomad-xapps/contracts/connext/ConnextHandler.sol:ConnextHandler",
        "label": "remotes",
        "offset": 0,
        "slot": "157",
        "type": "t_mapping(t_uint32,t_bytes32)"
      },
      {
        "astId": 22135,
        "contract": "contracts/nomad-xapps/contracts/connext/ConnextHandler.sol:ConnextHandler",
        "label": "__GAP",
        "offset": 0,
        "slot": "158",
        "type": "t_array(t_uint256)49_storage"
      },
      {
        "astId": 6966,
        "contract": "contracts/nomad-xapps/contracts/connext/ConnextHandler.sol:ConnextHandler",
        "label": "_delay",
        "offset": 0,
        "slot": "207",
        "type": "t_uint256"
      },
      {
        "astId": 6969,
        "contract": "contracts/nomad-xapps/contracts/connext/ConnextHandler.sol:ConnextHandler",
        "label": "routerInfo",
        "offset": 0,
        "slot": "208",
        "type": "t_struct(RouterPermissionsManagerInfo)11162_storage"
      },
      {
        "astId": 22766,
        "contract": "contracts/nomad-xapps/contracts/connext/ConnextHandler.sol:ConnextHandler",
        "label": "LIQUIDITY_FEE_NUMERATOR",
        "offset": 0,
        "slot": "213",
        "type": "t_uint256"
      },
      {
        "astId": 22768,
        "contract": "contracts/nomad-xapps/contracts/connext/ConnextHandler.sol:ConnextHandler",
        "label": "LIQUIDITY_FEE_DENOMINATOR",
        "offset": 0,
        "slot": "214",
        "type": "t_uint256"
      },
      {
        "astId": 22771,
        "contract": "contracts/nomad-xapps/contracts/connext/ConnextHandler.sol:ConnextHandler",
        "label": "EMPTY",
        "offset": 0,
        "slot": "215",
        "type": "t_bytes32"
      },
      {
        "astId": 22776,
        "contract": "contracts/nomad-xapps/contracts/connext/ConnextHandler.sol:ConnextHandler",
        "label": "__gap",
        "offset": 0,
        "slot": "216",
        "type": "t_array(t_uint256)49_storage"
      },
      {
        "astId": 22780,
        "contract": "contracts/nomad-xapps/contracts/connext/ConnextHandler.sol:ConnextHandler",
        "label": "relayerFeeRouter",
        "offset": 0,
        "slot": "265",
        "type": "t_contract(RelayerFeeRouter)26409"
      },
      {
        "astId": 22784,
        "contract": "contracts/nomad-xapps/contracts/connext/ConnextHandler.sol:ConnextHandler",
        "label": "wrapper",
        "offset": 0,
        "slot": "266",
        "type": "t_contract(IWrapped)8609"
      },
      {
        "astId": 22787,
        "contract": "contracts/nomad-xapps/contracts/connext/ConnextHandler.sol:ConnextHandler",
        "label": "nonce",
        "offset": 0,
        "slot": "267",
        "type": "t_uint256"
      },
      {
        "astId": 22791,
        "contract": "contracts/nomad-xapps/contracts/connext/ConnextHandler.sol:ConnextHandler",
        "label": "executor",
        "offset": 0,
        "slot": "268",
        "type": "t_contract(IExecutor)8325"
      },
      {
        "astId": 22794,
        "contract": "contracts/nomad-xapps/contracts/connext/ConnextHandler.sol:ConnextHandler",
        "label": "domain",
        "offset": 0,
        "slot": "269",
        "type": "t_uint256"
      },
      {
        "astId": 22798,
        "contract": "contracts/nomad-xapps/contracts/connext/ConnextHandler.sol:ConnextHandler",
        "label": "tokenRegistry",
        "offset": 0,
        "slot": "270",
        "type": "t_contract(ITokenRegistry)26542"
      },
      {
        "astId": 22804,
        "contract": "contracts/nomad-xapps/contracts/connext/ConnextHandler.sol:ConnextHandler",
        "label": "adoptedToLocalPools",
        "offset": 0,
        "slot": "271",
        "type": "t_mapping(t_bytes32,t_contract(IStableSwap)8598)"
      },
      {
        "astId": 22809,
        "contract": "contracts/nomad-xapps/contracts/connext/ConnextHandler.sol:ConnextHandler",
        "label": "approvedAssets",
        "offset": 0,
        "slot": "272",
        "type": "t_mapping(t_bytes32,t_bool)"
      },
      {
        "astId": 22815,
        "contract": "contracts/nomad-xapps/contracts/connext/ConnextHandler.sol:ConnextHandler",
        "label": "adoptedToCanonical",
        "offset": 0,
        "slot": "273",
        "type": "t_mapping(t_address,t_struct(TokenId)23523_storage)"
      },
      {
        "astId": 22820,
        "contract": "contracts/nomad-xapps/contracts/connext/ConnextHandler.sol:ConnextHandler",
        "label": "canonicalToAdopted",
        "offset": 0,
        "slot": "274",
        "type": "t_mapping(t_bytes32,t_address)"
      },
      {
        "astId": 22825,
        "contract": "contracts/nomad-xapps/contracts/connext/ConnextHandler.sol:ConnextHandler",
        "label": "reconciledTransfers",
        "offset": 0,
        "slot": "275",
        "type": "t_mapping(t_bytes32,t_bool)"
      },
      {
        "astId": 22831,
        "contract": "contracts/nomad-xapps/contracts/connext/ConnextHandler.sol:ConnextHandler",
        "label": "routedTransfers",
        "offset": 0,
        "slot": "276",
        "type": "t_mapping(t_bytes32,t_array(t_address)dyn_storage)"
      },
      {
        "astId": 22838,
        "contract": "contracts/nomad-xapps/contracts/connext/ConnextHandler.sol:ConnextHandler",
        "label": "routerBalances",
        "offset": 0,
        "slot": "277",
        "type": "t_mapping(t_address,t_mapping(t_address,t_uint256))"
      },
      {
        "astId": 22843,
        "contract": "contracts/nomad-xapps/contracts/connext/ConnextHandler.sol:ConnextHandler",
        "label": "approvedRelayers",
        "offset": 0,
        "slot": "278",
        "type": "t_mapping(t_address,t_bool)"
      },
      {
        "astId": 22848,
        "contract": "contracts/nomad-xapps/contracts/connext/ConnextHandler.sol:ConnextHandler",
        "label": "relayerFees",
        "offset": 0,
        "slot": "279",
        "type": "t_mapping(t_bytes32,t_uint256)"
      },
      {
        "astId": 22853,
        "contract": "contracts/nomad-xapps/contracts/connext/ConnextHandler.sol:ConnextHandler",
        "label": "transferRelayer",
        "offset": 0,
        "slot": "280",
        "type": "t_mapping(t_bytes32,t_address)"
      },
      {
        "astId": 22856,
        "contract": "contracts/nomad-xapps/contracts/connext/ConnextHandler.sol:ConnextHandler",
        "label": "maxRoutersPerTransfer",
        "offset": 0,
        "slot": "281",
        "type": "t_uint256"
      }
    ],
    "types": {
      "t_address": {
        "encoding": "inplace",
        "label": "address",
        "numberOfBytes": "20"
      },
      "t_array(t_address)dyn_storage": {
        "base": "t_address",
        "encoding": "dynamic_array",
        "label": "address[]",
        "numberOfBytes": "32"
      },
      "t_array(t_uint256)49_storage": {
        "base": "t_uint256",
        "encoding": "inplace",
        "label": "uint256[49]",
        "numberOfBytes": "1568"
      },
      "t_bool": {
        "encoding": "inplace",
        "label": "bool",
        "numberOfBytes": "1"
      },
      "t_bytes32": {
        "encoding": "inplace",
        "label": "bytes32",
        "numberOfBytes": "32"
      },
      "t_contract(IExecutor)8325": {
        "encoding": "inplace",
        "label": "contract IExecutor",
        "numberOfBytes": "20"
      },
      "t_contract(IStableSwap)8598": {
        "encoding": "inplace",
        "label": "contract IStableSwap",
        "numberOfBytes": "20"
      },
      "t_contract(ITokenRegistry)26542": {
        "encoding": "inplace",
        "label": "contract ITokenRegistry",
        "numberOfBytes": "20"
      },
      "t_contract(IWrapped)8609": {
        "encoding": "inplace",
        "label": "contract IWrapped",
        "numberOfBytes": "20"
      },
      "t_contract(RelayerFeeRouter)26409": {
        "encoding": "inplace",
        "label": "contract RelayerFeeRouter",
        "numberOfBytes": "20"
      },
      "t_contract(XAppConnectionManager)17331": {
        "encoding": "inplace",
        "label": "contract XAppConnectionManager",
        "numberOfBytes": "20"
      },
      "t_mapping(t_address,t_address)": {
        "encoding": "mapping",
        "key": "t_address",
        "label": "mapping(address => address)",
        "numberOfBytes": "32",
        "value": "t_address"
      },
      "t_mapping(t_address,t_bool)": {
        "encoding": "mapping",
        "key": "t_address",
        "label": "mapping(address => bool)",
        "numberOfBytes": "32",
        "value": "t_bool"
      },
      "t_mapping(t_address,t_mapping(t_address,t_uint256))": {
        "encoding": "mapping",
        "key": "t_address",
        "label": "mapping(address => mapping(address => uint256))",
        "numberOfBytes": "32",
        "value": "t_mapping(t_address,t_uint256)"
      },
      "t_mapping(t_address,t_struct(TokenId)23523_storage)": {
        "encoding": "mapping",
        "key": "t_address",
        "label": "mapping(address => struct ConnextMessage.TokenId)",
        "numberOfBytes": "32",
        "value": "t_struct(TokenId)23523_storage"
      },
      "t_mapping(t_address,t_uint256)": {
        "encoding": "mapping",
        "key": "t_address",
        "label": "mapping(address => uint256)",
        "numberOfBytes": "32",
        "value": "t_uint256"
      },
      "t_mapping(t_bytes32,t_address)": {
        "encoding": "mapping",
        "key": "t_bytes32",
        "label": "mapping(bytes32 => address)",
        "numberOfBytes": "32",
        "value": "t_address"
      },
      "t_mapping(t_bytes32,t_array(t_address)dyn_storage)": {
        "encoding": "mapping",
        "key": "t_bytes32",
        "label": "mapping(bytes32 => address[])",
        "numberOfBytes": "32",
        "value": "t_array(t_address)dyn_storage"
      },
      "t_mapping(t_bytes32,t_bool)": {
        "encoding": "mapping",
        "key": "t_bytes32",
        "label": "mapping(bytes32 => bool)",
        "numberOfBytes": "32",
        "value": "t_bool"
      },
      "t_mapping(t_bytes32,t_contract(IStableSwap)8598)": {
        "encoding": "mapping",
        "key": "t_bytes32",
        "label": "mapping(bytes32 => contract IStableSwap)",
        "numberOfBytes": "32",
        "value": "t_contract(IStableSwap)8598"
      },
      "t_mapping(t_bytes32,t_uint256)": {
        "encoding": "mapping",
        "key": "t_bytes32",
        "label": "mapping(bytes32 => uint256)",
        "numberOfBytes": "32",
        "value": "t_uint256"
      },
      "t_mapping(t_uint32,t_bytes32)": {
        "encoding": "mapping",
        "key": "t_uint32",
        "label": "mapping(uint32 => bytes32)",
        "numberOfBytes": "32",
        "value": "t_bytes32"
      },
      "t_struct(RouterPermissionsManagerInfo)11162_storage": {
        "encoding": "inplace",
        "label": "struct RouterPermissionsManagerInfo",
        "members": [
          {
            "astId": 11145,
            "contract": "contracts/nomad-xapps/contracts/connext/ConnextHandler.sol:ConnextHandler",
            "label": "approvedRouters",
            "offset": 0,
            "slot": "0",
            "type": "t_mapping(t_address,t_bool)"
          },
          {
            "astId": 11149,
            "contract": "contracts/nomad-xapps/contracts/connext/ConnextHandler.sol:ConnextHandler",
            "label": "routerRecipients",
            "offset": 0,
            "slot": "1",
            "type": "t_mapping(t_address,t_address)"
          },
          {
            "astId": 11153,
            "contract": "contracts/nomad-xapps/contracts/connext/ConnextHandler.sol:ConnextHandler",
            "label": "routerOwners",
            "offset": 0,
            "slot": "2",
            "type": "t_mapping(t_address,t_address)"
          },
          {
            "astId": 11157,
            "contract": "contracts/nomad-xapps/contracts/connext/ConnextHandler.sol:ConnextHandler",
            "label": "proposedRouterOwners",
            "offset": 0,
            "slot": "3",
            "type": "t_mapping(t_address,t_address)"
          },
          {
            "astId": 11161,
            "contract": "contracts/nomad-xapps/contracts/connext/ConnextHandler.sol:ConnextHandler",
            "label": "proposedRouterTimestamp",
            "offset": 0,
            "slot": "4",
            "type": "t_mapping(t_address,t_uint256)"
          }
        ],
        "numberOfBytes": "160"
      },
      "t_struct(TokenId)23523_storage": {
        "encoding": "inplace",
        "label": "struct ConnextMessage.TokenId",
        "members": [
          {
            "astId": 23520,
            "contract": "contracts/nomad-xapps/contracts/connext/ConnextHandler.sol:ConnextHandler",
            "label": "domain",
            "offset": 0,
            "slot": "0",
            "type": "t_uint32"
          },
          {
            "astId": 23522,
            "contract": "contracts/nomad-xapps/contracts/connext/ConnextHandler.sol:ConnextHandler",
            "label": "id",
            "offset": 0,
            "slot": "1",
            "type": "t_bytes32"
          }
        ],
        "numberOfBytes": "64"
      },
      "t_uint256": {
        "encoding": "inplace",
        "label": "uint256",
        "numberOfBytes": "32"
      },
      "t_uint32": {
        "encoding": "inplace",
        "label": "uint32",
        "numberOfBytes": "4"
      },
      "t_uint8": {
        "encoding": "inplace",
        "label": "uint8",
        "numberOfBytes": "1"
      }
    }
  }
}