{
  "address": "0xA302F22Ba1143218D010f83c7a11fbba5b045813",
  "abi": [
    {
      "anonymous": false,
      "inputs": [
        {
          "indexed": false,
          "internalType": "bytes32",
          "name": "canonicalId",
          "type": "bytes32"
        },
        {
          "indexed": false,
          "internalType": "uint32",
          "name": "domain",
          "type": "uint32"
        },
        {
          "indexed": false,
          "internalType": "address",
          "name": "adoptedAsset",
          "type": "address"
        },
        {
          "indexed": false,
          "internalType": "address",
          "name": "supportedAsset",
          "type": "address"
        },
        {
          "indexed": false,
          "internalType": "address",
          "name": "caller",
          "type": "address"
        }
      ],
      "name": "AssetAdded",
      "type": "event"
    },
    {
      "anonymous": false,
      "inputs": [
        {
          "indexed": false,
          "internalType": "bool",
          "name": "renounced",
          "type": "bool"
        }
      ],
      "name": "AssetOwnershipRenounced",
      "type": "event"
    },
    {
      "anonymous": false,
      "inputs": [
        {
          "indexed": false,
          "internalType": "uint256",
          "name": "timestamp",
          "type": "uint256"
        }
      ],
      "name": "AssetOwnershipRenunciationProposed",
      "type": "event"
    },
    {
      "anonymous": false,
      "inputs": [
        {
          "indexed": false,
          "internalType": "bytes32",
          "name": "canonicalId",
          "type": "bytes32"
        },
        {
          "indexed": false,
          "internalType": "address",
          "name": "caller",
          "type": "address"
        }
      ],
      "name": "AssetRemoved",
      "type": "event"
    },
    {
      "anonymous": false,
      "inputs": [
        {
          "indexed": true,
          "internalType": "bytes32",
          "name": "transferId",
          "type": "bytes32"
        },
        {
          "indexed": true,
          "internalType": "address",
          "name": "to",
          "type": "address"
        },
        {
          "indexed": true,
          "internalType": "address",
          "name": "router",
          "type": "address"
        },
        {
          "components": [
            {
              "internalType": "address",
              "name": "to",
              "type": "address"
            },
            {
              "internalType": "bytes",
              "name": "callData",
              "type": "bytes"
            },
            {
              "internalType": "uint32",
              "name": "originDomain",
              "type": "uint32"
            },
            {
              "internalType": "uint32",
              "name": "destinationDomain",
              "type": "uint32"
            }
          ],
          "indexed": false,
          "internalType": "struct IConnext.CallParams",
          "name": "params",
          "type": "tuple"
        },
        {
          "indexed": false,
          "internalType": "address",
          "name": "localAsset",
          "type": "address"
        },
        {
          "indexed": false,
          "internalType": "address",
          "name": "transactingAsset",
          "type": "address"
        },
        {
          "indexed": false,
          "internalType": "uint256",
          "name": "localAmount",
          "type": "uint256"
        },
        {
          "indexed": false,
          "internalType": "uint256",
          "name": "transactingAmount",
          "type": "uint256"
        },
        {
          "indexed": false,
          "internalType": "address",
          "name": "caller",
          "type": "address"
        }
      ],
      "name": "Executed",
      "type": "event"
    },
    {
      "anonymous": false,
      "inputs": [
        {
          "indexed": false,
          "internalType": "address",
          "name": "router",
          "type": "address"
        },
        {
          "indexed": false,
          "internalType": "address",
          "name": "local",
          "type": "address"
        },
        {
          "indexed": false,
          "internalType": "bytes32",
          "name": "canonicalId",
          "type": "bytes32"
        },
        {
          "indexed": false,
          "internalType": "uint256",
          "name": "amount",
          "type": "uint256"
        },
        {
          "indexed": false,
          "internalType": "address",
          "name": "caller",
          "type": "address"
        }
      ],
      "name": "LiquidityAdded",
      "type": "event"
    },
    {
      "anonymous": false,
      "inputs": [
        {
          "indexed": true,
          "internalType": "address",
          "name": "router",
          "type": "address"
        },
        {
          "indexed": false,
          "internalType": "address",
          "name": "to",
          "type": "address"
        },
        {
          "indexed": false,
          "internalType": "address",
          "name": "local",
          "type": "address"
        },
        {
          "indexed": false,
          "internalType": "uint256",
          "name": "amount",
          "type": "uint256"
        },
        {
          "indexed": false,
          "internalType": "address",
          "name": "caller",
          "type": "address"
        }
      ],
      "name": "LiquidityRemoved",
      "type": "event"
    },
    {
      "anonymous": false,
      "inputs": [
        {
          "indexed": true,
          "internalType": "address",
          "name": "proposedOwner",
          "type": "address"
        }
      ],
      "name": "OwnershipProposed",
      "type": "event"
    },
    {
      "anonymous": false,
      "inputs": [
        {
          "indexed": true,
          "internalType": "address",
          "name": "previousOwner",
          "type": "address"
        },
        {
          "indexed": true,
          "internalType": "address",
          "name": "newOwner",
          "type": "address"
        }
      ],
      "name": "OwnershipTransferred",
      "type": "event"
    },
    {
      "anonymous": false,
      "inputs": [
        {
          "indexed": true,
          "internalType": "bytes32",
          "name": "transferId",
          "type": "bytes32"
        },
        {
          "indexed": true,
          "internalType": "address",
          "name": "to",
          "type": "address"
        },
        {
          "indexed": true,
          "internalType": "address",
          "name": "router",
          "type": "address"
        },
        {
          "indexed": false,
          "internalType": "address",
          "name": "localAsset",
          "type": "address"
        },
        {
          "indexed": false,
          "internalType": "uint256",
          "name": "localAmount",
          "type": "uint256"
        },
        {
          "components": [
            {
              "internalType": "address",
              "name": "router",
              "type": "address"
            },
            {
              "internalType": "uint256",
              "name": "amount",
              "type": "uint256"
            }
          ],
          "indexed": false,
          "internalType": "struct IConnext.ExecutedTransfer",
          "name": "executed",
          "type": "tuple"
        },
        {
          "indexed": false,
          "internalType": "address",
          "name": "caller",
          "type": "address"
        }
      ],
      "name": "Reconciled",
      "type": "event"
    },
    {
      "anonymous": false,
      "inputs": [
        {
          "indexed": false,
          "internalType": "address",
          "name": "router",
          "type": "address"
        },
        {
          "indexed": false,
          "internalType": "address",
          "name": "caller",
          "type": "address"
        }
      ],
      "name": "RouterAdded",
      "type": "event"
    },
    {
      "anonymous": false,
      "inputs": [
        {
          "indexed": false,
          "internalType": "bool",
          "name": "renounced",
          "type": "bool"
        }
      ],
      "name": "RouterOwnershipRenounced",
      "type": "event"
    },
    {
      "anonymous": false,
      "inputs": [
        {
          "indexed": false,
          "internalType": "uint256",
          "name": "timestamp",
          "type": "uint256"
        }
      ],
      "name": "RouterOwnershipRenunciationProposed",
      "type": "event"
    },
    {
      "anonymous": false,
      "inputs": [
        {
          "indexed": false,
          "internalType": "address",
          "name": "router",
          "type": "address"
        },
        {
          "indexed": false,
          "internalType": "address",
          "name": "caller",
          "type": "address"
        }
      ],
      "name": "RouterRemoved",
      "type": "event"
    },
    {
      "anonymous": false,
      "inputs": [
        {
          "indexed": false,
          "internalType": "bytes32",
          "name": "canonicalId",
          "type": "bytes32"
        },
        {
          "indexed": false,
          "internalType": "uint32",
          "name": "domain",
          "type": "uint32"
        },
        {
          "indexed": false,
          "internalType": "address",
          "name": "swapPool",
          "type": "address"
        },
        {
          "indexed": false,
          "internalType": "address",
          "name": "caller",
          "type": "address"
        }
      ],
      "name": "StableSwapAdded",
      "type": "event"
    },
    {
      "anonymous": false,
      "inputs": [
        {
          "indexed": true,
          "internalType": "bytes32",
          "name": "transferId",
          "type": "bytes32"
        },
        {
          "indexed": true,
          "internalType": "address",
          "name": "to",
          "type": "address"
        },
        {
          "components": [
            {
              "internalType": "address",
              "name": "to",
              "type": "address"
            },
            {
              "internalType": "bytes",
              "name": "callData",
              "type": "bytes"
            },
            {
              "internalType": "uint32",
              "name": "originDomain",
              "type": "uint32"
            },
            {
              "internalType": "uint32",
              "name": "destinationDomain",
              "type": "uint32"
            }
          ],
          "indexed": false,
          "internalType": "struct IConnext.CallParams",
          "name": "params",
          "type": "tuple"
        },
        {
          "indexed": false,
          "internalType": "address",
          "name": "transactingAsset",
          "type": "address"
        },
        {
          "indexed": false,
          "internalType": "address",
          "name": "localAsset",
          "type": "address"
        },
        {
          "indexed": false,
          "internalType": "uint256",
          "name": "transactingAmount",
          "type": "uint256"
        },
        {
          "indexed": false,
          "internalType": "uint256",
          "name": "localAmount",
          "type": "uint256"
        },
        {
          "indexed": false,
          "internalType": "uint256",
          "name": "nonce",
          "type": "uint256"
        },
        {
          "indexed": false,
          "internalType": "address",
          "name": "caller",
          "type": "address"
        }
      ],
      "name": "XCalled",
      "type": "event"
    },
    {
      "inputs": [],
      "name": "acceptProposedOwner",
      "outputs": [],
      "stateMutability": "nonpayable",
      "type": "function"
    },
    {
      "inputs": [
        {
          "internalType": "uint256",
          "name": "amount",
          "type": "uint256"
        },
        {
          "internalType": "address",
          "name": "local",
          "type": "address"
        }
      ],
      "name": "addLiquidity",
      "outputs": [],
      "stateMutability": "payable",
      "type": "function"
    },
    {
      "inputs": [
        {
          "internalType": "uint256",
          "name": "amount",
          "type": "uint256"
        },
        {
          "internalType": "address",
          "name": "local",
          "type": "address"
        },
        {
          "internalType": "address",
          "name": "router",
          "type": "address"
        }
      ],
      "name": "addLiquidityFor",
      "outputs": [],
      "stateMutability": "payable",
      "type": "function"
    },
    {
      "inputs": [
        {
          "internalType": "address",
          "name": "router",
          "type": "address"
        }
      ],
      "name": "addRelayerFees",
      "outputs": [],
      "stateMutability": "payable",
      "type": "function"
    },
    {
      "inputs": [
        {
          "internalType": "address",
          "name": "router",
          "type": "address"
        }
      ],
      "name": "addRouter",
      "outputs": [],
      "stateMutability": "nonpayable",
      "type": "function"
    },
    {
      "inputs": [
        {
          "components": [
            {
              "internalType": "uint32",
              "name": "domain",
              "type": "uint32"
            },
            {
              "internalType": "bytes32",
              "name": "id",
              "type": "bytes32"
            }
          ],
          "internalType": "struct BridgeMessage.TokenId",
          "name": "canonical",
          "type": "tuple"
        },
        {
          "internalType": "address",
          "name": "stableSwapPool",
          "type": "address"
        }
      ],
      "name": "addStableSwapPool",
      "outputs": [],
      "stateMutability": "nonpayable",
      "type": "function"
    },
    {
      "inputs": [
        {
          "internalType": "address",
          "name": "",
          "type": "address"
        }
      ],
      "name": "adoptedToCanonical",
      "outputs": [
        {
          "internalType": "uint32",
          "name": "domain",
          "type": "uint32"
        },
        {
          "internalType": "bytes32",
          "name": "id",
          "type": "bytes32"
        }
      ],
      "stateMutability": "view",
      "type": "function"
    },
    {
      "inputs": [
        {
          "internalType": "bytes32",
          "name": "",
          "type": "bytes32"
        }
      ],
      "name": "adoptedToLocalPools",
      "outputs": [
        {
          "internalType": "contract IStableSwap",
          "name": "",
          "type": "address"
        }
      ],
      "stateMutability": "view",
      "type": "function"
    },
    {
      "inputs": [
        {
          "internalType": "bytes32",
          "name": "",
          "type": "bytes32"
        }
      ],
      "name": "approvedAssets",
      "outputs": [
        {
          "internalType": "bool",
          "name": "",
          "type": "bool"
        }
      ],
      "stateMutability": "view",
      "type": "function"
    },
    {
      "inputs": [
        {
          "internalType": "address",
          "name": "",
          "type": "address"
        }
      ],
      "name": "approvedRouters",
      "outputs": [
        {
          "internalType": "bool",
          "name": "",
          "type": "bool"
        }
      ],
      "stateMutability": "view",
      "type": "function"
    },
    {
      "inputs": [],
      "name": "assetOwnershipTimestamp",
      "outputs": [
        {
          "internalType": "uint256",
          "name": "",
          "type": "uint256"
        }
      ],
      "stateMutability": "view",
      "type": "function"
    },
    {
      "inputs": [],
      "name": "bridgeRouter",
      "outputs": [
        {
          "internalType": "contract BridgeRouter",
          "name": "",
          "type": "address"
        }
      ],
      "stateMutability": "view",
      "type": "function"
    },
    {
      "inputs": [
        {
          "internalType": "bytes32",
          "name": "",
          "type": "bytes32"
        }
      ],
      "name": "canonicalToAdopted",
      "outputs": [
        {
          "internalType": "address",
          "name": "",
          "type": "address"
        }
      ],
      "stateMutability": "view",
      "type": "function"
    },
    {
      "inputs": [],
      "name": "delay",
      "outputs": [
        {
          "internalType": "uint256",
          "name": "",
          "type": "uint256"
        }
      ],
      "stateMutability": "view",
      "type": "function"
    },
    {
      "inputs": [],
      "name": "domain",
      "outputs": [
        {
          "internalType": "uint256",
          "name": "",
          "type": "uint256"
        }
      ],
      "stateMutability": "view",
      "type": "function"
    },
    {
      "inputs": [
        {
          "components": [
            {
              "components": [
                {
                  "internalType": "address",
                  "name": "to",
                  "type": "address"
                },
                {
                  "internalType": "bytes",
                  "name": "callData",
                  "type": "bytes"
                },
                {
                  "internalType": "uint32",
                  "name": "originDomain",
                  "type": "uint32"
                },
                {
                  "internalType": "uint32",
                  "name": "destinationDomain",
                  "type": "uint32"
                }
              ],
              "internalType": "struct IConnext.CallParams",
              "name": "params",
              "type": "tuple"
            },
            {
              "internalType": "address",
              "name": "local",
              "type": "address"
            },
            {
              "internalType": "address",
              "name": "router",
              "type": "address"
            },
            {
              "internalType": "uint32",
              "name": "feePercentage",
              "type": "uint32"
            },
            {
              "internalType": "uint256",
              "name": "amount",
              "type": "uint256"
            },
            {
              "internalType": "bytes32",
              "name": "transferId",
              "type": "bytes32"
            },
            {
              "internalType": "bytes",
              "name": "relayerSignature",
              "type": "bytes"
            }
          ],
          "internalType": "struct IConnext.ExecuteArgs",
          "name": "_args",
          "type": "tuple"
        }
      ],
      "name": "execute",
      "outputs": [
        {
          "internalType": "bytes32",
          "name": "",
          "type": "bytes32"
        }
      ],
      "stateMutability": "nonpayable",
      "type": "function"
    },
    {
      "inputs": [],
      "name": "executor",
      "outputs": [
        {
          "internalType": "contract IExecutor",
          "name": "",
          "type": "address"
        }
      ],
      "stateMutability": "view",
      "type": "function"
    },
    {
      "inputs": [
        {
          "internalType": "uint256",
          "name": "_domain",
          "type": "uint256"
        },
        {
          "internalType": "address payable",
          "name": "_bridgeRouter",
          "type": "address"
        },
        {
          "internalType": "address",
          "name": "_tokenRegistry",
          "type": "address"
        },
        {
          "internalType": "address",
          "name": "_wrappedNative",
          "type": "address"
        }
      ],
      "name": "initialize",
      "outputs": [],
      "stateMutability": "nonpayable",
      "type": "function"
    },
    {
      "inputs": [],
      "name": "isAssetOwnershipRenounced",
      "outputs": [
        {
          "internalType": "bool",
          "name": "",
          "type": "bool"
        }
      ],
      "stateMutability": "view",
      "type": "function"
    },
    {
      "inputs": [],
      "name": "isRouterOwnershipRenounced",
      "outputs": [
        {
          "internalType": "bool",
          "name": "",
          "type": "bool"
        }
      ],
      "stateMutability": "view",
      "type": "function"
    },
    {
      "inputs": [],
      "name": "nonce",
      "outputs": [
        {
          "internalType": "uint256",
          "name": "",
          "type": "uint256"
        }
      ],
      "stateMutability": "view",
      "type": "function"
    },
    {
      "inputs": [],
      "name": "owner",
      "outputs": [
        {
          "internalType": "address",
          "name": "",
          "type": "address"
        }
      ],
      "stateMutability": "view",
      "type": "function"
    },
    {
      "inputs": [],
      "name": "proposeAssetOwnershipRenunciation",
      "outputs": [],
      "stateMutability": "nonpayable",
      "type": "function"
    },
    {
      "inputs": [
        {
          "internalType": "address",
          "name": "newlyProposed",
          "type": "address"
        }
      ],
      "name": "proposeNewOwner",
      "outputs": [],
      "stateMutability": "nonpayable",
      "type": "function"
    },
    {
      "inputs": [],
      "name": "proposeRouterOwnershipRenunciation",
      "outputs": [],
      "stateMutability": "nonpayable",
      "type": "function"
    },
    {
      "inputs": [],
      "name": "proposed",
      "outputs": [
        {
          "internalType": "address",
          "name": "",
          "type": "address"
        }
      ],
      "stateMutability": "view",
      "type": "function"
    },
    {
      "inputs": [],
      "name": "proposedTimestamp",
      "outputs": [
        {
          "internalType": "uint256",
          "name": "",
          "type": "uint256"
        }
      ],
      "stateMutability": "view",
      "type": "function"
    },
    {
      "inputs": [
        {
          "internalType": "bytes32",
          "name": "_transferId",
          "type": "bytes32"
        },
        {
          "internalType": "address",
          "name": "_local",
          "type": "address"
        },
        {
          "internalType": "address",
          "name": "_recipient",
          "type": "address"
        },
        {
          "internalType": "uint256",
          "name": "_amount",
          "type": "uint256"
        }
      ],
      "name": "reconcile",
      "outputs": [],
      "stateMutability": "payable",
      "type": "function"
    },
    {
      "inputs": [
        {
          "internalType": "bytes32",
          "name": "",
          "type": "bytes32"
        }
      ],
      "name": "reconciledTransfers",
      "outputs": [
        {
          "internalType": "bytes32",
          "name": "",
          "type": "bytes32"
        }
      ],
      "stateMutability": "view",
      "type": "function"
    },
    {
      "inputs": [
        {
          "internalType": "bytes32",
          "name": "canonicalId",
          "type": "bytes32"
        },
        {
          "internalType": "address",
          "name": "adoptedAssetId",
          "type": "address"
        }
      ],
      "name": "removeAssetId",
      "outputs": [],
      "stateMutability": "nonpayable",
      "type": "function"
    },
    {
      "inputs": [
        {
          "internalType": "uint256",
          "name": "amount",
          "type": "uint256"
        },
        {
          "internalType": "address",
          "name": "local",
          "type": "address"
        },
        {
          "internalType": "address payable",
          "name": "to",
          "type": "address"
        }
      ],
      "name": "removeLiquidity",
      "outputs": [],
      "stateMutability": "nonpayable",
      "type": "function"
    },
    {
      "inputs": [
        {
          "internalType": "uint256",
          "name": "amount",
          "type": "uint256"
        },
        {
          "internalType": "address payable",
          "name": "to",
          "type": "address"
        }
      ],
      "name": "removeRelayerFees",
      "outputs": [],
      "stateMutability": "nonpayable",
      "type": "function"
    },
    {
      "inputs": [
        {
          "internalType": "address",
          "name": "router",
          "type": "address"
        }
      ],
      "name": "removeRouter",
      "outputs": [],
      "stateMutability": "nonpayable",
      "type": "function"
    },
    {
      "inputs": [],
      "name": "renounceAssetOwnership",
      "outputs": [],
      "stateMutability": "nonpayable",
      "type": "function"
    },
    {
      "inputs": [],
      "name": "renounceOwnership",
      "outputs": [],
      "stateMutability": "nonpayable",
      "type": "function"
    },
    {
      "inputs": [],
      "name": "renounceRouterOwnership",
      "outputs": [],
      "stateMutability": "nonpayable",
      "type": "function"
    },
    {
      "inputs": [],
      "name": "renounced",
      "outputs": [
        {
          "internalType": "bool",
          "name": "",
          "type": "bool"
        }
      ],
      "stateMutability": "view",
      "type": "function"
    },
    {
      "inputs": [
        {
          "internalType": "bytes32",
          "name": "",
          "type": "bytes32"
        }
      ],
      "name": "routedTransfers",
      "outputs": [
        {
          "internalType": "address",
          "name": "router",
          "type": "address"
        },
        {
          "internalType": "uint256",
          "name": "amount",
          "type": "uint256"
        }
      ],
      "stateMutability": "view",
      "type": "function"
    },
    {
      "inputs": [
        {
          "internalType": "bytes32",
          "name": "",
          "type": "bytes32"
        }
      ],
      "name": "routedTransfersGas",
      "outputs": [
        {
          "internalType": "uint256",
          "name": "gasUsed",
          "type": "uint256"
        },
        {
          "internalType": "uint256",
          "name": "gasPrice",
          "type": "uint256"
        }
      ],
      "stateMutability": "view",
      "type": "function"
    },
    {
      "inputs": [
        {
          "internalType": "address",
          "name": "",
          "type": "address"
        },
        {
          "internalType": "address",
          "name": "",
          "type": "address"
        }
      ],
      "name": "routerBalances",
      "outputs": [
        {
          "internalType": "uint256",
          "name": "",
          "type": "uint256"
        }
      ],
      "stateMutability": "view",
      "type": "function"
    },
    {
      "inputs": [],
      "name": "routerOwnershipTimestamp",
      "outputs": [
        {
          "internalType": "uint256",
          "name": "",
          "type": "uint256"
        }
      ],
      "stateMutability": "view",
      "type": "function"
    },
    {
      "inputs": [
        {
          "internalType": "address",
          "name": "",
          "type": "address"
        }
      ],
      "name": "routerRelayerFees",
      "outputs": [
        {
          "internalType": "uint256",
          "name": "",
          "type": "uint256"
        }
      ],
      "stateMutability": "view",
      "type": "function"
    },
    {
      "inputs": [
        {
          "components": [
            {
              "internalType": "uint32",
              "name": "domain",
              "type": "uint32"
            },
            {
              "internalType": "bytes32",
              "name": "id",
              "type": "bytes32"
            }
          ],
          "internalType": "struct BridgeMessage.TokenId",
          "name": "canonical",
          "type": "tuple"
        },
        {
          "internalType": "address",
          "name": "adoptedAssetId",
          "type": "address"
        },
        {
          "internalType": "address",
          "name": "stableSwapPool",
          "type": "address"
        }
      ],
      "name": "setupAsset",
      "outputs": [],
      "stateMutability": "nonpayable",
      "type": "function"
    },
    {
      "inputs": [],
      "name": "tokenRegistry",
      "outputs": [
        {
          "internalType": "contract TokenRegistry",
          "name": "",
          "type": "address"
        }
      ],
      "stateMutability": "view",
      "type": "function"
    },
    {
      "inputs": [],
      "name": "wrapper",
      "outputs": [
        {
          "internalType": "contract IWrapped",
          "name": "",
          "type": "address"
        }
      ],
      "stateMutability": "view",
      "type": "function"
    },
    {
      "inputs": [
        {
          "components": [
            {
              "components": [
                {
                  "internalType": "address",
                  "name": "to",
                  "type": "address"
                },
                {
                  "internalType": "bytes",
                  "name": "callData",
                  "type": "bytes"
                },
                {
                  "internalType": "uint32",
                  "name": "originDomain",
                  "type": "uint32"
                },
                {
                  "internalType": "uint32",
                  "name": "destinationDomain",
                  "type": "uint32"
                }
              ],
              "internalType": "struct IConnext.CallParams",
              "name": "params",
              "type": "tuple"
            },
            {
              "internalType": "address",
              "name": "transactingAssetId",
              "type": "address"
            },
            {
              "internalType": "uint256",
              "name": "amount",
              "type": "uint256"
            }
          ],
          "internalType": "struct IConnext.XCallArgs",
          "name": "_args",
          "type": "tuple"
        }
      ],
      "name": "xcall",
      "outputs": [
        {
          "internalType": "bytes32",
          "name": "",
          "type": "bytes32"
        }
      ],
      "stateMutability": "payable",
      "type": "function"
    },
    {
      "stateMutability": "payable",
      "type": "receive"
    }
  ],
  "transactionHash": "0xf730608de05dec367e098db11876d41f683c99f0d0721a99f25ba99ac66008d1",
  "args": [],
  "numDeployments": 2,
  "solcInputHash": "39c50d29f593d4ff82c7db323458e972",
  "bytecode": "0x608060405234801561001057600080fd5b50614b30806100206000396000f3fe608060405260043610620002b75760003560e01c806383c68876116200016b578063c26c9c0a11620000d1578063d232c2201162000084578063d232c22014620008f6578063e070da091462000917578063e47602f7146200092e578063e8be0dfc1462000946578063ea7a904d146200095e578063f31abcc4146200098357600080fd5b8063c26c9c0a146200083c578063c2fb26a6146200086d578063c34c08e51462000885578063c5b350df14620008a7578063c95f9d0e14620008bf578063d1851c9214620008d657600080fd5b8063ac210cc7116200012a578063ac210cc71462000774578063affed0e01462000796578063b1f8100d14620007ae578063bd7e1e2e14620007d3578063c0c17baf146200080d578063c1a04959146200082557600080fd5b806383c6887614620006d257806386ba778614620007035780638741eac5146200071a5780638da5cb5b14620007325780639d23c4c7146200075257600080fd5b8063445b1e4b116200021d5780636a42b8f811620001d05780636a42b8f814620005e55780636ae0b15414620005fd578063715018a61462000622578063754d1d54146200063a5780637b298e27146200065f578063806474de146200068457600080fd5b8063445b1e4b14620004be578063483ef75314620004f2578063569d29e4146200051757806357bd0a32146200053c5780636006209114620005705780636a41633a14620005ce57600080fd5b806324ca984e116200027657806324ca984e14620003b95780632c1999d014620003de5780633855b46714620004315780633cf52ffb146200044957806341258b5c146200046057806341af5b52146200049c57600080fd5b8063023ae73a14620002c45780631506e46314620002ee5780631a8bc0e114620003155780632004ef4514620003795780632077490914620003a257600080fd5b36620002bf57005b600080fd5b620002db620002d53660046200386c565b620009a8565b6040519081526020015b60405180910390f35b348015620002fb57600080fd5b50620003136200030d366004620038d9565b62000bab565b005b3480156200032257600080fd5b50620003596200033436600462003916565b607260205260009081526040902080546001909101546001600160a01b039091169082565b604080516001600160a01b039093168352602083019190915201620002e5565b3480156200038657600080fd5b506200039162000be8565b6040519015158152602001620002e5565b62000313620003b336600462003930565b62000c0b565b348015620003c657600080fd5b5062000313620003d836600462003930565b62000c78565b348015620003eb57600080fd5b5062000418620003fd36600462003916565b607a602052600090815260409020546001600160a01b031681565b6040516001600160a01b039091168152602001620002e5565b3480156200043e57600080fd5b506200031362000d9c565b3480156200045657600080fd5b50603554620002db565b3480156200046d57600080fd5b50620002db6200047f36600462003950565b607560209081526000928352604080842090915290825290205481565b348015620004a957600080fd5b50606c5462000418906001600160a01b031681565b348015620004cb57600080fd5b5062000391620004dd36600462003930565b60776020526000908152604090205460ff1681565b348015620004ff57600080fd5b50620002db6200051136600462003983565b62000ea4565b3480156200052457600080fd5b506200031362000536366004620039c1565b6200119c565b3480156200054957600080fd5b50620003916200055b36600462003916565b60786020526000908152604090205460ff1681565b3480156200057d57600080fd5b50620005b16200058f36600462003930565b6079602052600090815260409020805460019091015463ffffffff9091169082565b6040805163ffffffff9093168352602083019190915201620002e5565b348015620005db57600080fd5b50603954620002db565b348015620005f257600080fd5b5062093a80620002db565b3480156200060a57600080fd5b50620003136200061c36600462003930565b620011e6565b3480156200062f57600080fd5b506200031362001305565b3480156200064757600080fd5b50620003136200065936600462003a12565b62001419565b3480156200066c57600080fd5b50620003136200067e36600462003a6c565b620015b2565b3480156200069157600080fd5b50620006bc620006a336600462003916565b6073602052600090815260409020805460019091015482565b60408051928352602083019190915201620002e5565b348015620006df57600080fd5b50620002db620006f136600462003930565b60766020526000908152604090205481565b620003136200071436600462003a94565b620015e5565b3480156200072757600080fd5b506200031362001737565b3480156200073f57600080fd5b506033546001600160a01b031662000418565b3480156200075f57600080fd5b5060705462000418906001600160a01b031681565b3480156200078157600080fd5b50606d5462000418906001600160a01b031681565b348015620007a357600080fd5b50620002db606e5481565b348015620007bb57600080fd5b5062000313620007cd36600462003930565b620017af565b348015620007e057600080fd5b5062000418620007f236600462003916565b6071602052600090815260409020546001600160a01b031681565b3480156200081a57600080fd5b506200031362001893565b3480156200083257600080fd5b50603754620002db565b3480156200084957600080fd5b50620002db6200085b36600462003916565b607b6020526000908152604090205481565b3480156200087a57600080fd5b50620002db60745481565b3480156200089257600080fd5b50606f5462000418906001600160a01b031681565b348015620008b457600080fd5b506200031362001999565b62000313620008d036600462003a6c565b62001a7b565b348015620008e357600080fd5b506034546001600160a01b031662000418565b3480156200090357600080fd5b506033546001600160a01b03161562000391565b620003136200092836600462003ae1565b62001abb565b3480156200093b57600080fd5b506200031362001afc565b3480156200095357600080fd5b506200039162001b74565b3480156200096b57600080fd5b50620003136200097d36600462003a6c565b62001b95565b3480156200099057600080fd5b5062000313620009a236600462003ae1565b62001cd0565b60008060798180620009c1604087016020880162003930565b6001600160a01b031614620009e857620009e2604086016020870162003930565b620009f5565b606d546001600160a01b03165b6001600160a01b03166001600160a01b0316815260200190815260200160002060010154141562000a605760405162461bcd60e51b815260206004820152601060248201526f085cdd5c1c1bdc9d195917d85cdcd95d60821b60448201526064015b60405180910390fd5b60008062000a8462000a79604086016020870162003930565b856040013562001e6a565b9150915060008062000a9784846200207a565b606e54919350915060009062000ab99062000ab3898062003b1d565b62002229565b606e8054919250600062000acd8362003b54565b9091555062000b1b905062000ae3888062003b1d565b62000af690608081019060600162003b97565b62000b02898062003b1d565b62000b1290602081019062003930565b8486856200225e565b62000b27878062003b1d565b62000b3790602081019062003930565b6001600160a01b0316817f023e565b14eb42ff84b14f9c07ae846f5234b3a596e8e01ea2a0573e28d1d80862000b6e8a8062003b1d565b888689896001606e5462000b83919062003bb7565b3360405162000b99979695949392919062003cb1565b60405180910390a39695505050505050565b6033546001600160a01b0316331462000bd85760405162461bcd60e51b815260040162000a579062003d05565b62000be4828262002325565b5050565b6033546000906001600160a01b0316158062000c06575060365460ff165b905090565b6000341162000c465760405162461bcd60e51b81526020600482015260066024820152652176616c756560d01b604482015260640162000a57565b6001600160a01b0381166000908152607660205260408120805434929062000c7090849062003d26565b909155505050565b6033546001600160a01b0316331462000ca55760405162461bcd60e51b815260040162000a579062003d05565b6001600160a01b03811662000ce75760405162461bcd60e51b81526020600482015260076024820152662341523a30303160c81b604482015260640162000a57565b6001600160a01b03811660009081526077602052604090205460ff161562000d3c5760405162461bcd60e51b815260206004820152600760248201526611a0a91d18199960c91b604482015260640162000a57565b6001600160a01b038116600081815260776020908152604091829020805460ff19166001179055815192835233908301527fbc68405e644da2aaf25623ce2199da82c6dfd2e1de102b400eba6a091704d4f491015b60405180910390a150565b6033546001600160a01b0316331462000dc95760405162461bcd60e51b815260040162000a579062003d05565b60385460ff161562000e095760405162461bcd60e51b8152602060048201526008602482015267046a4829e746066760c31b604482015260640162000a57565b60006039541162000e485760405162461bcd60e51b81526020600482015260086024820152672352414f3a30333760c01b604482015260640162000a57565b62093a806039544262000e5c919062003bb7565b1162000e965760405162461bcd60e51b815260206004820152600860248201526702352414f3a3033360c41b604482015260640162000a57565b62000ea26001620023b4565b565b6000805a60a08401356000908152607b60205260409020549091501562000f0562000ed0858062003b1d565b60a086013562000ee7604088016020890162003930565b62000ef96060890160408a0162003930565b858960800135620023fb565b60008062000f2962000f1e604088016020890162003930565b8760800135620024df565b606b54919350915062000f3d878062003b1d565b62000f4d90602081019062003d41565b60405162000f5d92919062003d8b565b6040518091039020141562000f9a5762000f948162000f7d888062003b1d565b62000f8d90602081019062003930565b84620025b2565b62001075565b606f5462000fb49082906001600160a01b031684620025b2565b606f546001600160a01b031663a81a368d60a088013562000fd6898062003b1d565b62000fe690602081019062003930565b848662000ff48c8062003b1d565b6200100490602081019062003d41565b6040518763ffffffff1660e01b8152600401620010279695949392919062003d9b565b6000604051808303816000875af115801562001047573d6000803e3d6000fd5b505050506040513d6000823e601f3d908101601f1916820160405262001071919081019062003e39565b5050505b8215620010bd5760405180604001604052805a62001094908762003bb7565b81523a60209182015260a088013560009081526073825260409020825181559101516001909101555b620010ff60a0870135620010d86060890160408a0162003930565b620010ea60808a0160608b0162003b97565b620010f960c08b018b62003d41565b62002684565b336200110c878062003b1d565b6200111c90602081019062003930565b6001600160a01b031660a08801357f3d5b9d96144cef95ba201c4dbd1f875f6dd32edc9d8813056dea706bf52fc10a620011578a8062003b1d565b6200116960408c0160208d0162003930565b868c608001358933604051620011859695949392919062003f19565b60405180910390a450505060a09092013592915050565b6033546001600160a01b03163314620011c95760405162461bcd60e51b815260040162000a579062003d05565b620011d583836200279c565b620011e1838262002325565b505050565b6033546001600160a01b03163314620012135760405162461bcd60e51b815260040162000a579062003d05565b6001600160a01b038116620012555760405162461bcd60e51b81526020600482015260076024820152662352523a30303160c81b604482015260640162000a57565b6001600160a01b03811660009081526077602052604090205460ff161515600114620012ae5760405162461bcd60e51b81526020600482015260076024820152662352523a30333360c81b604482015260640162000a57565b6001600160a01b038116600081815260776020908152604091829020805460ff19169055815192835233908301527fbee3e974bb6a6f44f20096ede047c191eef60322e65e4ee4bd3392230a8716d5910162000d91565b6033546001600160a01b03163314620013325760405162461bcd60e51b815260040162000a579062003d05565b600060355411620013705760405162461bcd60e51b815260206004820152600760248201526623524f3a30333760c81b604482015260640162000a57565b62093a806035544262001384919062003bb7565b11620013bd5760405162461bcd60e51b8152602060048201526007602482015266023524f3a3033360cc1b604482015260640162000a57565b6034546001600160a01b031615620014025760405162461bcd60e51b815260206004820152600760248201526611a9279d18199b60c91b604482015260640162000a57565b60345462000ea2906001600160a01b0316620028f5565b600054610100900460ff16620014365760005460ff16156200143a565b303b155b6200149f5760405162461bcd60e51b815260206004820152602e60248201527f496e697469616c697a61626c653a20636f6e747261637420697320616c72656160448201526d191e481a5b9a5d1a585b1a5e995960921b606482015260840162000a57565b600054610100900460ff16158015620014c2576000805461ffff19166101011790555b620014cc6200294e565b620014d662002982565b6000606e556074859055606c80546001600160a01b0319166001600160a01b03861617905560405130906200150b906200385e565b6001600160a01b039091168152602001604051809103906000f08015801562001538573d6000803e3d6000fd5b50606f80546001600160a01b03199081166001600160a01b0393841617909155607080548216868416179055606d80549091169184169190911790557fc5d2460186f7233c927e7db2dcc703c0e500b653ca82273b7bfad8045d85a470606b558015620015ab576000805461ff00191690555b5050505050565b3360009081526076602052604081208054849290620015d390849062003bb7565b9091555062000be490508183620029b6565b606c546001600160a01b031633146200162b5760405162461bcd60e51b81526020600482015260076024820152662162726964676560c81b604482015260640162000a57565b600084815260726020908152604091829020825180840190935280546001600160a01b03168084526001909101549183019190915262001687576200167284848462002ad5565b6000868152607b6020526040902055620016c8565b80516001600160a01b03908116600090815260756020908152604080832093881683529290529081208054849290620016c290849062003d26565b90915550505b8051604080516001600160a01b0387811682526020808301879052855182168385015285015160608301523360808301529151928216929186169188917f0285346435ebf237a77b7d7a7956d0154d9965588c1b03a36ab589bb44503469919081900360a00190a45050505050565b6033546001600160a01b03163314620017645760405162461bcd60e51b815260040162000a579062003d05565b60385460ff1615620017a55760405162461bcd60e51b8152602060048201526009602482015268046a0829ea4746066760bb1b604482015260640162000a57565b62000ea262002b33565b6033546001600160a01b03163314620017dc5760405162461bcd60e51b815260040162000a579062003d05565b6034546001600160a01b0382811691161415806200180157506001600160a01b038116155b6200183a5760405162461bcd60e51b815260206004820152600860248201526711a827279d18199b60c11b604482015260640162000a57565b6033546001600160a01b0382811691161415620018855760405162461bcd60e51b8152602060048201526008602482015267046a09c9e746066760c31b604482015260640162000a57565b620018908162002b6f565b50565b6033546001600160a01b03163314620018c05760405162461bcd60e51b815260040162000a579062003d05565b60365460ff1615620019005760405162461bcd60e51b8152602060048201526008602482015267046a4a49e746066760c31b604482015260640162000a57565b6000603754116200193f5760405162461bcd60e51b81526020600482015260086024820152672352524f3a30333760c01b604482015260640162000a57565b62093a806037544262001953919062003bb7565b116200198d5760405162461bcd60e51b815260206004820152600860248201526702352524f3a3033360c41b604482015260640162000a57565b62000ea2600162002bbd565b6034546001600160a01b03163314620019df5760405162461bcd60e51b8152602060048201526007602482015266234f503a30333560c81b604482015260640162000a57565b6034546033546001600160a01b039081169116141562001a2d5760405162461bcd60e51b815260206004820152600860248201526704682a09e746066760c31b604482015260640162000a57565b62093a806035544262001a41919062003bb7565b11620014025760405162461bcd60e51b815260206004820152600860248201526702341504f3a3033360c41b604482015260640162000a57565b6002600154141562001aa15760405162461bcd60e51b815260040162000a579062003f68565b600260015562001ab382823362002c04565b505060018055565b6002600154141562001ae15760405162461bcd60e51b815260040162000a579062003f68565b600260015562001af383838362002c04565b50506001805550565b6033546001600160a01b0316331462001b295760405162461bcd60e51b815260040162000a579062003d05565b60365460ff161562001b6a5760405162461bcd60e51b8152602060048201526009602482015268046a0a49ea4746066760bb1b604482015260640162000a57565b62000ea262002e97565b6033546000906001600160a01b0316158062000c0657505060385460ff1690565b6033546001600160a01b0316331462001bc25760405162461bcd60e51b815260040162000a579062003d05565b60008281526078602052604090205460ff16151560011462001c115760405162461bcd60e51b81526020600482015260076024820152662352413a30333360c81b604482015260640162000a57565b6000828152607860209081526040808320805460ff191690556071909152812080546001600160a01b03191690556079906001600160a01b0383161562001c59578262001c66565b606d546001600160a01b03165b6001600160a01b0316815260208082019290925260409081016000908120805463ffffffff1916815560010155805184815233928101929092527f9d181adb70e733f5235f839c1eed929407ea8526e41d01f49b9fef703e78dddf91015b60405180910390a15050565b6002600154141562001cf65760405162461bcd60e51b815260040162000a579062003f68565b60026001556001600160a01b03811662001d3d5760405162461bcd60e51b815260206004820152600760248201526623524c3a30303760c81b604482015260640162000a57565b6000831162001d795760405162461bcd60e51b815260206004820152600760248201526611a9261d18181960c91b604482015260640162000a57565b3360009081526075602090815260408083206001600160a01b03861684529091529020548381101562001dd95760405162461bcd60e51b8152602060048201526007602482015266046a498746060760cb1b604482015260640162000a57565b3360009081526075602090815260408083206001600160a01b03871684529091529020848203905562001e0e838386620025b2565b604080516001600160a01b03848116825285166020820152808201869052336060820181905291517f63b05915120b3d5a231e7c3625a411c15b2a79c35e3b1432a4f1ea95468cc6349181900360800190a25050600180555050565b600080826001600160a01b03851662001f385783341462001eb85760405162461bcd60e51b815260206004820152600760248201526608585b5bdd5b9d60ca1b604482015260640162000a57565b606d60009054906101000a90046001600160a01b03166001600160a01b031663d0e30db0856040518263ffffffff1660e01b81526004016000604051808303818588803b15801562001f0957600080fd5b505af115801562001f1e573d6000803e3d6000fd5b5050606d546001600160a01b031697506200206d92505050565b6040516370a0823160e01b81523060048201526000906001600160a01b038716906370a0823190602401602060405180830381865afa15801562001f80573d6000803e3d6000fd5b505050506040513d601f19601f8201168201806040525081019062001fa6919062003f9f565b9050341562001fe25760405162461bcd60e51b815260206004820152600760248201526611aa209d18181b60c91b604482015260640162000a57565b62001ff08633308862002ece565b6040516370a0823160e01b815230600482015281906001600160a01b038816906370a0823190602401602060405180830381865afa15801562002037573d6000803e3d6000fd5b505050506040513d601f19601f820116820180604052508101906200205d919062003f9f565b62002069919062003bb7565b9150505b84925090505b9250929050565b6001600160a01b03821660009081526079602090815260408083208151808301909252805463ffffffff168252600101549181018290528291620020c5578385925092505062002073565b60705481516020830151604051631626cf1960e21b815263ffffffff909216600483015260248201526000916001600160a01b03169063589b3c6490604401602060405180830381865afa15801562002122573d6000803e3d6000fd5b505050506040513d601f19601f8201168201806040525081019062002148919062003fb9565b9050856001600160a01b0316816001600160a01b031614156200217357848693509350505062002073565b6020808301516000908152607190915260409020546001600160a01b03166200219e87828862002f41565b60405163d5914c4560e01b8152600481018790526001600160a01b038881166024830152838116604483015282169063d5914c45906064016020604051808303816000875af1158015620021f6573d6000803e3d6000fd5b505050506040513d601f19601f820116820180604052508101906200221c919062003f9f565b9791965090945050505050565b600082826040516020016200224092919062003fd9565b60405160208183030381529060405280519060200120905092915050565b606c54620022789084906001600160a01b0316846200305e565b606c546001600160a01b0316638022e5598484886200229d896001600160a01b031690565b6040516001600160e01b031960e087901b1681526001600160a01b039094166004850152602484019290925263ffffffff16604483015260648201526001608482015260a4810184905260c401600060405180830381600087803b1580156200230557600080fd5b505af11580156200231a573d6000803e3d6000fd5b505050505050505050565b6020828101803560008181526071909352604090922080546001600160a01b0319166001600160a01b0385161790557fd6f882d8fd8cc867bb57db3880bc4ad0b9b84689b57bba1b51feec7be397e3c2919062002383908562003b97565b6040805192835263ffffffff90911660208301526001600160a01b0384169082015233606082015260800162001cc4565b6038805460ff191682151590811790915560006039556040519081527f868d89ead22a5d10f456845ac0014901d9af7203e71cf0892d70d9dc262c2fb99060200162000d91565b8115620024d7576000858152607260205260409020546001600160a01b031615620024525760405162461bcd60e51b815260206004820152600660248201526521656d70747960d01b604482015260640162000a57565b6001600160a01b038084166000908152607560209081526040808320938816835292905290812080548392906200248b90849062003bb7565b90915550506040805180820182526001600160a01b038581168252602080830185815260008a81526072909252939020915182546001600160a01b031916911617815590516001909101555b505050505050565b60705460405163b9730eaf60e01b81526001600160a01b038481166004830152600092839283929091169063b9730eaf906024016040805180830381865afa15801562002530573d6000803e3d6000fd5b505050506040513d601f19601f8201168201806040525081019062002556919062003ff4565b6000818152607a60205260409020549092506001600160a01b03908116915086168114156200258d57848693509350505062002073565b6000828152607160205260409020546001600160a01b03166200219e87828862002f41565b6001600160a01b038316620025f45760405162461bcd60e51b8152602060048201526007602482015266216e617469766560c81b604482015260640162000a57565b606d546001600160a01b03848116911614156200267757606d54604051632e1a7d4d60e01b8152600481018390526001600160a01b0390911690632e1a7d4d90602401600060405180830381600087803b1580156200265257600080fd5b505af115801562002667573d6000803e3d6000fd5b50505050620011e18282620029b6565b620011e183838362003117565b336001600160a01b03851614156200269c57620015ab565b620026da8584604051602001620026c392919091825263ffffffff16602082015260400190565b604051602081830303815290604052838362003149565b6001600160a01b0316846001600160a01b031614620027275760405162461bcd60e51b8152602060048201526008602482015267217274725f73696760c01b604482015260640162000a57565b63ffffffff83166200273957620015ab565b600060646200274f63ffffffff86164862004025565b6200275b919062004047565b6001600160a01b0386166000908152607660205260408120805492935083929091906200278a90849062003bb7565b90915550620024d790503382620029b6565b60208083013560009081526078909152604090205460ff1615620027ed5760405162461bcd60e51b815260206004820152600760248201526611a0a09d18199960c91b604482015260640162000a57565b6020808301356000908152607882526040808220805460ff191660011790556001600160a01b038416825260799092522082906200282c82826200406a565b50600090506001600160a01b0382161562002848578162002855565b606d546001600160a01b03165b602084810180356000818152607a909352604090922080546001600160a01b0319166001600160a01b0385161790559192507f42e28d2d3431c24c3f3b6e2623a169bd4a31dd1f66780c4499af54a28632779b91620028b5908662003b97565b6040805192835263ffffffff9190911660208301526001600160a01b038581168383015284166060830152336080830152519081900360a00190a1505050565b603380546001600160a01b038381166001600160a01b0319831681179093556000603581905560405191909216929183917f8be0079c531659141344cd1fd0a4f28419497f9722a3daafe3b4186f6b6457e09190a35050565b600054610100900460ff16620029785760405162461bcd60e51b815260040162000a579062004099565b62000ea2620031f3565b600054610100900460ff16620029ac5760405162461bcd60e51b815260040162000a579062004099565b62000ea262003228565b8047101562002a085760405162461bcd60e51b815260206004820152601d60248201527f416464726573733a20696e73756666696369656e742062616c616e6365000000604482015260640162000a57565b6000826001600160a01b03168260405160006040518083038185875af1925050503d806000811462002a57576040519150601f19603f3d011682016040523d82523d6000602084013e62002a5c565b606091505b5050905080620011e15760405162461bcd60e51b815260206004820152603a60248201527f416464726573733a20756e61626c6520746f2073656e642076616c75652c207260448201527f6563697069656e74206d61792068617665207265766572746564000000000000606482015260840162000a57565b60408051606080820183526001600160a01b03868116808452602080850187815288841695870195865286518083019390935251828701529351909116818301528351808203909201825260800190925281519101205b9392505050565b4260398190556040519081527fa78fdca214e4619ef34a695316d423f5b0d8274bc919d29733bf8f92ec8cbb7a906020015b60405180910390a1565b42603555603480546001600160a01b0319166001600160a01b0383169081179091556040517f6ab4d119f23076e8ad491bc65ce85f017fb0591dce08755ba8591059cc51737a90600090a250565b6036805460ff191682151590811790915560006037556040519081527f243ebbb2f905234bbf0556bb38e1f7c23b09ffd2e441a16e58b844eb2ab7a3979060200162000d91565b6001600160a01b03811662002c465760405162461bcd60e51b815260206004820152600760248201526623414c3a30303160c81b604482015260640162000a57565b6000831162002c825760405162461bcd60e51b815260206004820152600760248201526611a0a61d18181960c91b604482015260640162000a57565b6070546000906001600160a01b039081169063f15376869085161562002ca9578462002cb6565b606d546001600160a01b03165b6040516001600160e01b031960e084901b1681526001600160a01b0390911660048201526024016040805180830381865afa15801562002cfa573d6000803e3d6000fd5b505050506040513d601f19601f8201168201806040525081019062002d20919062003ff4565b91505062002d2d62000be8565b8062002d5157506001600160a01b03821660009081526077602052604090205460ff165b62002d895760405162461bcd60e51b815260206004820152600760248201526623414c3a30303360c81b604482015260640162000a57565b62002d9362001b74565b8062002dad575060008181526078602052604090205460ff165b62002de55760405162461bcd60e51b815260206004820152600760248201526608d0530e8c0c0d60ca1b604482015260640162000a57565b60008062002df4858762001e6a565b6001600160a01b03808716600090815260756020908152604080832093861683529290529081208054939550919350839262002e3290849062003d26565b9091555050604080516001600160a01b03808716825284166020820152908101849052606081018290523360808201527fc30593c06911f2f2fc32a69df3a28e4a0b116d8d461b47a005ae4d28cd49282b9060a00160405180910390a1505050505050565b4260378190556040519081527fa52048c5f468d21a62e4644ac4db19bcaa1a20f0cf37d163ba49c7217d35feb89060200162002b65565b6040516001600160a01b038085166024830152831660448201526064810182905262002f3b9085906323b872dd60e01b906084015b60408051601f198184030181529190526020810180516001600160e01b03166001600160e01b03199093169290921790915262003258565b50505050565b80158062002fbf5750604051636eb1769f60e11b81523060048201526001600160a01b03838116602483015284169063dd62ed3e90604401602060405180830381865afa15801562002f97573d6000803e3d6000fd5b505050506040513d601f19601f8201168201806040525081019062002fbd919062003f9f565b155b6200302c5760405162461bcd60e51b815260206004820152603660248201527f5361666545524332303a20617070726f76652066726f6d206e6f6e2d7a65726f60448201527520746f206e6f6e2d7a65726f20616c6c6f77616e636560501b606482015260840162000a57565b6040516001600160a01b038316602482015260448101829052620011e190849063095ea7b360e01b9060640162002f03565b604051636eb1769f60e11b81523060048201526001600160a01b038381166024830152600091839186169063dd62ed3e90604401602060405180830381865afa158015620030b0573d6000803e3d6000fd5b505050506040513d601f19601f82011682018060405250810190620030d6919062003f9f565b620030e2919062003d26565b6040516001600160a01b03851660248201526044810182905290915062002f3b90859063095ea7b360e01b9060640162002f03565b6040516001600160a01b038316602482015260448101829052620011e190849063a9059cbb60e01b9060640162002f03565b6000620031eb620031ae85805190602001206040517f19457468657265756d205369676e6564204d6573736167653a0a3332000000006020820152603c8101829052600090605c01604051602081830303815290604052805190602001209050919050565b84848080601f0160208091040260200160405190810160405280939291908181526020018383808284376000920191909152506200333192505050565b949350505050565b600054610100900460ff166200321d5760405162461bcd60e51b815260040162000a579062004099565b62000ea233620028f5565b600054610100900460ff16620032525760405162461bcd60e51b815260040162000a579062004099565b60018055565b6000620032af826040518060400160405280602081526020017f5361666545524332303a206c6f772d6c6576656c2063616c6c206661696c6564815250856001600160a01b0316620033599092919063ffffffff16565b805190915015620011e15780806020019051810190620032d09190620040e4565b620011e15760405162461bcd60e51b815260206004820152602a60248201527f5361666545524332303a204552433230206f7065726174696f6e20646964206e6044820152691bdd081cdd58d8d9595960b21b606482015260840162000a57565b60008060006200334285856200336a565b915091506200335181620033e0565b509392505050565b6060620031eb8484600085620035b3565b600080825160411415620033a55760208301516040840151606085015160001a6200339887828585620036ee565b9450945050505062002073565b825160401415620033d35760208301516040840151620033c7868383620037e3565b93509350505062002073565b5060009050600262002073565b6000816004811115620033f757620033f762004102565b1415620034015750565b600181600481111562003418576200341862004102565b1415620034685760405162461bcd60e51b815260206004820152601860248201527f45434453413a20696e76616c6964207369676e61747572650000000000000000604482015260640162000a57565b60028160048111156200347f576200347f62004102565b1415620034cf5760405162461bcd60e51b815260206004820152601f60248201527f45434453413a20696e76616c6964207369676e6174757265206c656e67746800604482015260640162000a57565b6003816004811115620034e657620034e662004102565b1415620035415760405162461bcd60e51b815260206004820152602260248201527f45434453413a20696e76616c6964207369676e6174757265202773272076616c604482015261756560f01b606482015260840162000a57565b600481600481111562003558576200355862004102565b1415620018905760405162461bcd60e51b815260206004820152602260248201527f45434453413a20696e76616c6964207369676e6174757265202776272076616c604482015261756560f01b606482015260840162000a57565b606082471015620036165760405162461bcd60e51b815260206004820152602660248201527f416464726573733a20696e73756666696369656e742062616c616e636520666f6044820152651c8818d85b1b60d21b606482015260840162000a57565b6001600160a01b0385163b6200366f5760405162461bcd60e51b815260206004820152601d60248201527f416464726573733a2063616c6c20746f206e6f6e2d636f6e7472616374000000604482015260640162000a57565b600080866001600160a01b031685876040516200368d919062004118565b60006040518083038185875af1925050503d8060008114620036cc576040519150601f19603f3d011682016040523d82523d6000602084013e620036d1565b606091505b5091509150620036e382828662003820565b979650505050505050565b6000807f7fffffffffffffffffffffffffffffff5d576e7357a4501ddfe92f46681b20a0831115620037275750600090506003620037da565b8460ff16601b141580156200374057508460ff16601c14155b15620037535750600090506004620037da565b6040805160008082526020820180845289905260ff881692820192909252606081018690526080810185905260019060a0016020604051602081039080840390855afa158015620037a8573d6000803e3d6000fd5b5050604051601f1901519150506001600160a01b038116620037d357600060019250925050620037da565b9150600090505b94509492505050565b6000806001600160ff1b038316816200380260ff86901c601b62003d26565b90506200381287828885620036ee565b935093505050935093915050565b606083156200383157508162002b2c565b825115620038425782518084602001fd5b8160405162461bcd60e51b815260040162000a5791906200412c565b610999806200416283390190565b6000602082840312156200387f57600080fd5b813567ffffffffffffffff8111156200389757600080fd5b82016060818503121562002b2c57600080fd5b600060408284031215620038bd57600080fd5b50919050565b6001600160a01b03811681146200189057600080fd5b60008060608385031215620038ed57600080fd5b620038f98484620038aa565b915060408301356200390b81620038c3565b809150509250929050565b6000602082840312156200392957600080fd5b5035919050565b6000602082840312156200394357600080fd5b813562002b2c81620038c3565b600080604083850312156200396457600080fd5b82356200397181620038c3565b915060208301356200390b81620038c3565b6000602082840312156200399657600080fd5b813567ffffffffffffffff811115620039ae57600080fd5b820160e0818503121562002b2c57600080fd5b600080600060808486031215620039d757600080fd5b620039e38585620038aa565b92506040840135620039f581620038c3565b9150606084013562003a0781620038c3565b809150509250925092565b6000806000806080858703121562003a2957600080fd5b84359350602085013562003a3d81620038c3565b9250604085013562003a4f81620038c3565b9150606085013562003a6181620038c3565b939692955090935050565b6000806040838503121562003a8057600080fd5b8235915060208301356200390b81620038c3565b6000806000806080858703121562003aab57600080fd5b84359350602085013562003abf81620038c3565b9250604085013562003ad181620038c3565b9396929550929360600135925050565b60008060006060848603121562003af757600080fd5b83359250602084013562003b0b81620038c3565b9150604084013562003a0781620038c3565b60008235607e1983360301811262003b3457600080fd5b9190910192915050565b634e487b7160e01b600052601160045260246000fd5b600060001982141562003b6b5762003b6b62003b3e565b5060010190565b63ffffffff811681146200189057600080fd5b803562003b928162003b72565b919050565b60006020828403121562003baa57600080fd5b813562002b2c8162003b72565b60008282101562003bcc5762003bcc62003b3e565b500390565b81835281816020850137506000828201602090810191909152601f909101601f19169091010190565b6000813562003c0981620038c3565b6001600160a01b03168352602082013536839003601e1901811262003c2d57600080fd5b8201803567ffffffffffffffff81111562003c4757600080fd5b80360384131562003c5757600080fd5b6080602086015262003c7160808601826020850162003bd1565b915050604083013562003c848162003b72565b63ffffffff16604085015262003c9d6060840162003b85565b63ffffffff81166060860152509392505050565b60e08152600062003cc660e083018a62003bfa565b6001600160a01b0398891660208401529688166040830152506060810194909452608084019290925260a083015290921660c090920191909152919050565b602080825260079082015266234f4f3a30323960c81b604082015260600190565b6000821982111562003d3c5762003d3c62003b3e565b500190565b6000808335601e1984360301811262003d5957600080fd5b83018035915067ffffffffffffffff82111562003d7557600080fd5b6020019150368190038213156200207357600080fd5b8183823760009101908152919050565b8681526001600160a01b038681166020830152851660408201526060810184905260a06080820181905260009062003dd7908301848662003bd1565b98975050505050505050565b8051801515811462003b9257600080fd5b634e487b7160e01b600052604160045260246000fd5b60005b8381101562003e2757818101518382015260200162003e0d565b8381111562002f3b5750506000910152565b60008060006060848603121562003e4f57600080fd5b62003e5a8462003de3565b925062003e6a6020850162003de3565b9150604084015167ffffffffffffffff8082111562003e8857600080fd5b818601915086601f83011262003e9d57600080fd5b81518181111562003eb25762003eb262003df4565b604051601f8201601f19908116603f0116810190838211818310171562003edd5762003edd62003df4565b8160405282815289602084870101111562003ef757600080fd5b62003f0a83602083016020880162003e0a565b80955050505050509250925092565b60c08152600062003f2e60c083018962003bfa565b6001600160a01b0397881660208401529587166040830152506060810193909352608083019190915290921660a090920191909152919050565b6020808252601f908201527f5265656e7472616e637947756172643a207265656e7472616e742063616c6c00604082015260600190565b60006020828403121562003fb257600080fd5b5051919050565b60006020828403121562003fcc57600080fd5b815162002b2c81620038c3565b828152604060208201526000620031eb604083018462003bfa565b600080604083850312156200400857600080fd5b8251620040158162003b72565b6020939093015192949293505050565b600081600019048311821515161562004042576200404262003b3e565b500290565b6000826200406557634e487b7160e01b600052601260045260246000fd5b500490565b8135620040778162003b72565b63ffffffff811663ffffffff1983541617825550602082013560018201555050565b6020808252602b908201527f496e697469616c697a61626c653a20636f6e7472616374206973206e6f74206960408201526a6e697469616c697a696e6760a81b606082015260800190565b600060208284031215620040f757600080fd5b62002b2c8262003de3565b634e487b7160e01b600052602160045260246000fd5b6000825162003b3481846020870162003e0a565b60208152600082518060208401526200414d81604085016020870162003e0a565b601f01601f1916919091016040019291505056fe60a060405234801561001057600080fd5b5060405161099938038061099983398101604081905261002f91610040565b6001600160a01b0316608052610070565b60006020828403121561005257600080fd5b81516001600160a01b038116811461006957600080fd5b9392505050565b608051610909610090600039600081816048015260a901526109096000f3fe6080604052600436106100295760003560e01c8063975740c61461002e578063a81a368d14610077575b600080fd5b34801561003a57600080fd5b506040516001600160a01b037f00000000000000000000000000000000000000000000000000000000000000001681526020015b60405180910390f35b61008a610085366004610694565b610099565b60405161006e93929190610796565b6000806060336001600160a01b037f000000000000000000000000000000000000000000000000000000000000000016146101055760405162461bcd60e51b8152602060048201526007602482015266234f433a30323760c81b60448201526064015b60405180910390fd5b6001600160a01b038716158061012057610120888a89610224565b600060606001600160a01b038b163b158015906101a8578b6001600160a01b03168461014d57600061014f565b8a5b8a8a60405161015f9291906107c2565b60006040518083038185875af1925050503d806000811461019c576040519150601f19603f3d011682016040523d82523d6000602084013e6101a1565b606091505b5090935091505b821580156101b4575083155b156101c4576101c48b8d8c61030f565b8b6001600160a01b03168d7fba8945310c2d5b346d3320f14e4072113b27427d9442cd033665c6f70244a1a28d8d8d8d888a8960405161020a97969594939291906107d2565b60405180910390a3919c919b509950975050505050505050565b604051636eb1769f60e11b81523060048201526001600160a01b038381166024830152600091839186169063dd62ed3e90604401602060405180830381865afa158015610275573d6000803e3d6000fd5b505050506040513d601f19601f820116820180604052508101906102999190610843565b6102a3919061085c565b6040516001600160a01b03851660248201526044810182905290915061030990859063095ea7b360e01b906064015b60408051601f198184030181529190526020810180516001600160e01b03166001600160e01b031990931692909217909152610422565b50505050565b604051636eb1769f60e11b81523060048201526001600160a01b0383811660248301526000919085169063dd62ed3e90604401602060405180830381865afa15801561035f573d6000803e3d6000fd5b505050506040513d601f19601f820116820180604052508101906103839190610843565b9050818110156103e75760405162461bcd60e51b815260206004820152602960248201527f5361666545524332303a2064656372656173656420616c6c6f77616e63652062604482015268656c6f77207a65726f60b81b60648201526084016100fc565b6040516001600160a01b0384166024820152828203604482018190529061041b90869063095ea7b360e01b906064016102d2565b5050505050565b6000610477826040518060400160405280602081526020017f5361666545524332303a206c6f772d6c6576656c2063616c6c206661696c6564815250856001600160a01b03166104f99092919063ffffffff16565b8051909150156104f457808060200190518101906104959190610882565b6104f45760405162461bcd60e51b815260206004820152602a60248201527f5361666545524332303a204552433230206f7065726174696f6e20646964206e6044820152691bdd081cdd58d8d9595960b21b60648201526084016100fc565b505050565b60606105088484600085610512565b90505b9392505050565b6060824710156105735760405162461bcd60e51b815260206004820152602660248201527f416464726573733a20696e73756666696369656e742062616c616e636520666f6044820152651c8818d85b1b60d21b60648201526084016100fc565b6001600160a01b0385163b6105ca5760405162461bcd60e51b815260206004820152601d60248201527f416464726573733a2063616c6c20746f206e6f6e2d636f6e747261637400000060448201526064016100fc565b600080866001600160a01b031685876040516105e691906108a4565b60006040518083038185875af1925050503d8060008114610623576040519150601f19603f3d011682016040523d82523d6000602084013e610628565b606091505b5091509150610638828286610643565b979650505050505050565b6060831561065257508161050b565b8251156106625782518084602001fd5b8160405162461bcd60e51b81526004016100fc91906108c0565b6001600160a01b038116811461069157600080fd5b50565b60008060008060008060a087890312156106ad57600080fd5b8635955060208701356106bf8161067c565b945060408701356106cf8161067c565b935060608701359250608087013567ffffffffffffffff808211156106f357600080fd5b818901915089601f83011261070757600080fd5b81358181111561071657600080fd5b8a602082850101111561072857600080fd5b6020830194508093505050509295509295509295565b60005b83811015610759578181015183820152602001610741565b838111156103095750506000910152565b6000815180845261078281602086016020860161073e565b601f01601f19169290920160200192915050565b831515815282151560208201526060604082015260006107b9606083018461076a565b95945050505050565b8183823760009101908152919050565b6001600160a01b03881681526020810187905260c0604082018190528101859052848660e0830137600060e086830101526000601f19601f870116820160e083820301606084015261082760e082018761076a565b9415156080840152505090151560a09091015295945050505050565b60006020828403121561085557600080fd5b5051919050565b6000821982111561087d57634e487b7160e01b600052601160045260246000fd5b500190565b60006020828403121561089457600080fd5b8151801515811461050b57600080fd5b600082516108b681846020870161073e565b9190910192915050565b60208152600061050b602083018461076a56fea264697066735822122071973be53b56d3872e78f9017f90ec920d3b06a9fbc38727edfe31eb165af57f64736f6c634300080b0033a264697066735822122091e1e0e65b2255e414a727acf5a6731b5f7ebff7cf858490748ac4ce9319ecd464736f6c634300080b0033",
  "devdoc": {
    "kind": "dev",
    "methods": {
      "addLiquidity(uint256,address)": {
        "details": "The liquidity will be held in the local asset, which is the representation if you are *not* on the canonical domain, and the canonical asset otherwise.",
        "params": {
          "amount": "- The amount of liquidity to add for the router",
          "local": "- The address of the asset you're adding liquidity for. If adding liquidity of the native asset, routers may use `address(0)` or the wrapped asset"
        }
      },
      "addLiquidityFor(uint256,address,address)": {
        "details": "The liquidity will be held in the local asset, which is the representation if you are *not* on the canonical domain, and the canonical asset otherwise.",
        "params": {
          "amount": "- The amount of liquidity to add for the router",
          "local": "- The address of the asset you're adding liquidity for. If adding liquidity of the native asset, routers may use `address(0)` or the wrapped asset",
          "router": "The router you are adding liquidity on behalf of"
        }
      },
      "addRelayerFees(address)": {
        "params": {
          "router": "- The router to credit"
        }
      },
      "addRouter(address)": {
        "params": {
          "router": "Router address to add"
        }
      },
      "execute(((address,bytes,uint32,uint32),address,address,uint32,uint256,bytes32,bytes))": {
        "details": "Will store the `ExecutedTransfer` if fast liquidity is provided, or assert the hash of the `ReconciledTransfer` when using bridge liquidity",
        "params": {
          "_args": "- The `ExecuteArgs` for the transfer"
        },
        "returns": {
          "_0": "bytes32 The transfer id of the crosschain transfer"
        }
      },
      "reconcile(bytes32,address,address,uint256)": {
        "details": "If fast liquidity was provided, the `amount` and `externalHash` are asserted against the `ExecutedTransaction` struct stored onchain. If no fast liqudity was provided, the hash of the `ReconciledTransaction` is stored onchain to enforce correctness when `execute` is called",
        "params": {
          "_amount": "- The amount bridged",
          "_local": "- The address of the asset delivered by the bridge",
          "_recipient": "- The address that will receive funds on the destination domain",
          "_transferId": "- Transfer UUID"
        }
      },
      "removeAssetId(bytes32,address)": {
        "params": {
          "adoptedAssetId": "- Corresponding adopted asset to remove",
          "canonicalId": "- Token id to remove"
        }
      },
      "removeLiquidity(uint256,address,address)": {
        "params": {
          "amount": "- The amount of liquidity to remove for the router",
          "local": "- The address of the asset you're removing liquidity from. If removing liquidity of the native asset, routers may use `address(0)` or the wrapped asset",
          "to": "The address that will receive the liquidity being removed"
        }
      },
      "removeRelayerFees(uint256,address)": {
        "details": "Must be called by the router you are decrementing relayer fees for",
        "params": {
          "amount": "- The amount of relayer fee to remove",
          "to": "- Who to send funds to"
        }
      },
      "removeRouter(address)": {
        "params": {
          "router": "Router address to remove"
        }
      },
      "setupAsset((uint32,bytes32),address,address)": {
        "details": "When whitelisting the canonical asset, all representational assets would be whitelisted as well. In the event you have a different adopted asset (i.e. PoS USDC on polygon), you should *not* whitelist the adopted asset. The stable swap pool address used should allow you to swap between the local <> adopted asset",
        "params": {
          "adoptedAssetId": "- The used asset id for this domain (i.e. PoS USDC for polygon)",
          "canonical": "- The canonical asset to add by id and domain. All representations will be whitelisted as well",
          "stableSwapPool": "- Address of the pool to swap adopted <> local asset"
        }
      },
      "xcall(((address,bytes,uint32,uint32),address,uint256))": {
        "details": "This contract must have approval to transfer the adopted assets. They are then swapped to the local nomad assets via the configured AMM and sent over the bridge router.",
        "params": {
          "_args": "- The XCallArgs"
        },
        "returns": {
          "_0": "The transfer id of the crosschain transfer"
        }
      }
    },
    "stateVariables": {
      "__gap": {
        "details": "This empty reserved space is put in place to allow future versions to add new variables without shifting down storage in the inheritance chain. See https://docs.openzeppelin.com/contracts/4.x/upgradeable#storage_gaps"
      },
      "adoptedToCanonical": {
        "details": "If the adopted asset is the native asset, the keyed address will be the wrapped asset address"
      },
      "adoptedToLocalPools": {
        "details": "Swaps for an adopted asset <> nomad local asset (i.e. POS USDC <> madUSDC on polygon)"
      },
      "approvedAssets": {
        "details": "Mapping is keyed on the canonical token identifier matching what is stored in the token registry"
      },
      "canonicalToAdopted": {
        "details": "If the adopted asset is the native asset, the stored address will be the wrapped asset address"
      },
      "domain": {
        "details": "Must match the nomad domain, which is distinct from the \"chainId\""
      },
      "nonce": {
        "details": "Assigned at first interaction (xcall on origin domain);"
      },
      "reconciledTransfers": {
        "details": "This information is stored onchain if the transaction has not been fulfilled at the time of reconcile"
      },
      "routedTransfers": {
        "details": "This information is stored onchain if fast liquidity is provided"
      },
      "routedTransfersGas": {
        "details": "This informaion is stored onchain if fast liquidity is provided"
      },
      "routerBalances": {
        "details": "Routers should always store liquidity that they can expect to receive via the bridge on this domain (the nomad local asset)"
      },
      "routerRelayerFees": {
        "details": "Right now, routers only store native asset onchain. TODO: allow for approved relaying assets"
      },
      "wrapper": {
        "details": "Needed because the nomad only handles ERC20 assets"
      }
    },
    "version": 1
  },
  "userdoc": {
    "events": {
      "AssetAdded(bytes32,uint32,address,address,address)": {
        "notice": "Emitted when a new asset is added"
      },
      "AssetRemoved(bytes32,address)": {
        "notice": "Emitted when an asset is removed from whitelists"
      },
      "Executed(bytes32,address,address,(address,bytes,uint32,uint32),address,address,uint256,uint256,address)": {
        "notice": "Emitted when `execute` is called on the destination chain"
      },
      "LiquidityAdded(address,address,bytes32,uint256,address)": {
        "notice": "Emitted when a router adds liquidity to the contract"
      },
      "LiquidityRemoved(address,address,address,uint256,address)": {
        "notice": "Emitted when a router withdraws liquidity from the contract"
      },
      "Reconciled(bytes32,address,address,address,uint256,(address,uint256),address)": {
        "notice": "Emitted when `reconciled` is called by the bridge on the destination domain"
      },
      "RouterAdded(address,address)": {
        "notice": "Emitted when a new router is added"
      },
      "RouterRemoved(address,address)": {
        "notice": "Emitted when an existing router is removed"
      },
      "StableSwapAdded(bytes32,uint32,address,address)": {
        "notice": "Emitted when a new stable-swap AMM is added for the local <> adopted token"
      },
      "XCalled(bytes32,address,(address,bytes,uint32,uint32),address,address,uint256,uint256,uint256,address)": {
        "notice": "Emitted when `xcall` is called on the origin domain"
      }
    },
    "kind": "user",
    "methods": {
      "acceptProposedOwner()": {
        "notice": "Transfers ownership of the contract to a new account (`newOwner`). Can only be called by the current owner."
      },
      "addLiquidity(uint256,address)": {
        "notice": "This is used by any router to increase their available liquidity for a given asset."
      },
      "addLiquidityFor(uint256,address,address)": {
        "notice": "This is used by anyone to increase a router's available liquidity for a given asset."
      },
      "addRelayerFees(address)": {
        "notice": "Used to add relayer fees in the native asset"
      },
      "addRouter(address)": {
        "notice": "Used to add routers that can transact crosschain"
      },
      "addStableSwapPool((uint32,bytes32),address)": {
        "notice": "Adds a stable swap pool for the local <> adopted asset."
      },
      "adoptedToCanonical(address)": {
        "notice": "Mapping of canonical to adopted assets on this domain"
      },
      "adoptedToLocalPools(bytes32)": {
        "notice": "Mapping holding the AMMs for swapping in and out of local assets"
      },
      "approvedAssets(bytes32)": {
        "notice": "Mapping of whitelisted assets on same domain as contract"
      },
      "approvedRouters(address)": {
        "notice": "Mapping of whitelisted router addresses."
      },
      "assetOwnershipTimestamp()": {
        "notice": "Returns the timestamp when asset ownership was last proposed to be renounced"
      },
      "bridgeRouter()": {
        "notice": "The local nomad bridge router"
      },
      "canonicalToAdopted(bytes32)": {
        "notice": "Mapping of adopted to canonical on this domain"
      },
      "delay()": {
        "notice": "Returns the delay period before a new owner can be accepted."
      },
      "domain()": {
        "notice": "The domain this contract exists on"
      },
      "execute(((address,bytes,uint32,uint32),address,address,uint32,uint256,bytes32,bytes))": {
        "notice": "This function is called on the destination chain when the bridged asset should be swapped into the adopted asset and the external call executed. Can be used before reconcile (when providing fast liquidity) or after reconcile (when using liquidity from the bridge)"
      },
      "executor()": {
        "notice": "The external contract that will execute crosschain calldata"
      },
      "isAssetOwnershipRenounced()": {
        "notice": "Indicates if the ownership of the asset whitelist has been renounced"
      },
      "isRouterOwnershipRenounced()": {
        "notice": "Indicates if the ownership of the router whitelist has been renounced"
      },
      "nonce()": {
        "notice": "Nonce for the contract, used to keep unique transfer ids."
      },
      "owner()": {
        "notice": "Returns the address of the current owner."
      },
      "proposeAssetOwnershipRenunciation()": {
        "notice": "Indicates if the ownership of the asset whitelist has been renounced"
      },
      "proposeNewOwner(address)": {
        "notice": "Sets the timestamp for an owner to be proposed, and sets the newly proposed owner as step 1 in a 2-step process"
      },
      "proposeRouterOwnershipRenunciation()": {
        "notice": "Indicates if the ownership of the router whitelist has been renounced"
      },
      "proposed()": {
        "notice": "Returns the address of the proposed owner."
      },
      "proposedTimestamp()": {
        "notice": "Returns the address of the proposed owner."
      },
      "reconcile(bytes32,address,address,uint256)": {
        "notice": "This function is called by the bridge router to pass through the information provided by the user on prepare."
      },
      "reconciledTransfers(bytes32)": {
        "notice": "Stores hash of the `ReconciledTransaction` (all information passed through bridge) on `reconcile`"
      },
      "removeAssetId(bytes32,address)": {
        "notice": "Used to remove assets from the whitelist"
      },
      "removeLiquidity(uint256,address,address)": {
        "notice": "This is used by any router to decrease their available liquidity for a given asset."
      },
      "removeRelayerFees(uint256,address)": {
        "notice": "Used to remove relayer fee in the native asset"
      },
      "removeRouter(address)": {
        "notice": "Used to remove routers that can transact crosschain"
      },
      "renounceAssetOwnership()": {
        "notice": "Indicates if the ownership of the asset whitelist has been renounced"
      },
      "renounceOwnership()": {
        "notice": "Renounces ownership of the contract after a delay"
      },
      "renounceRouterOwnership()": {
        "notice": "Indicates if the ownership of the asset whitelist has been renounced"
      },
      "renounced()": {
        "notice": "Indicates if the ownership has been renounced() by checking if current owner is address(0)"
      },
      "routedTransfers(bytes32)": {
        "notice": "Stores the transferId => ExecutedTransfer mapping"
      },
      "routedTransfersGas(bytes32)": {
        "notice": "Stores the transferId => GasInfo mapping to track gas used on `execute`"
      },
      "routerBalances(address,address)": {
        "notice": "Mapping of router to available balance of an asset"
      },
      "routerOwnershipTimestamp()": {
        "notice": "Returns the timestamp when router ownership was last proposed to be renounced"
      },
      "routerRelayerFees(address)": {
        "notice": "Mapping of router to available relayer fee"
      },
      "setupAsset((uint32,bytes32),address,address)": {
        "notice": "Used to add supported assets. This is an admin only function"
      },
      "tokenRegistry()": {
        "notice": "The local nomad token registry"
      },
      "wrapper()": {
        "notice": "The address of the wrapper for the native asset on this domain"
      },
      "xcall(((address,bytes,uint32,uint32),address,uint256))": {
        "notice": "This function is called by a user who is looking to bridge funds"
      }
    },
    "version": 1
  },
  "storageLayout": {
    "storage": [
      {
        "astId": 130,
        "contract": "contracts/Connext.sol:Connext",
        "label": "_initialized",
        "offset": 0,
        "slot": "0",
        "type": "t_bool"
      },
      {
        "astId": 133,
        "contract": "contracts/Connext.sol:Connext",
        "label": "_initializing",
        "offset": 1,
        "slot": "0",
        "type": "t_bool"
      },
      {
        "astId": 322,
        "contract": "contracts/Connext.sol:Connext",
        "label": "_status",
        "offset": 0,
        "slot": "1",
        "type": "t_uint256"
      },
      {
        "astId": 366,
        "contract": "contracts/Connext.sol:Connext",
        "label": "__gap",
        "offset": 0,
        "slot": "2",
        "type": "t_array(t_uint256)49_storage"
      },
      {
        "astId": 7546,
        "contract": "contracts/Connext.sol:Connext",
        "label": "_owner",
        "offset": 0,
        "slot": "51",
        "type": "t_address"
      },
      {
        "astId": 7548,
        "contract": "contracts/Connext.sol:Connext",
        "label": "_proposed",
        "offset": 0,
        "slot": "52",
        "type": "t_address"
      },
      {
        "astId": 7550,
        "contract": "contracts/Connext.sol:Connext",
        "label": "_proposedOwnershipTimestamp",
        "offset": 0,
        "slot": "53",
        "type": "t_uint256"
      },
      {
        "astId": 7552,
        "contract": "contracts/Connext.sol:Connext",
        "label": "_routerOwnershipRenounced",
        "offset": 0,
        "slot": "54",
        "type": "t_bool"
      },
      {
        "astId": 7554,
        "contract": "contracts/Connext.sol:Connext",
        "label": "_routerOwnershipTimestamp",
        "offset": 0,
        "slot": "55",
        "type": "t_uint256"
      },
      {
        "astId": 7556,
        "contract": "contracts/Connext.sol:Connext",
        "label": "_assetOwnershipRenounced",
        "offset": 0,
        "slot": "56",
        "type": "t_bool"
      },
      {
        "astId": 7558,
        "contract": "contracts/Connext.sol:Connext",
        "label": "_assetOwnershipTimestamp",
        "offset": 0,
        "slot": "57",
        "type": "t_uint256"
      },
      {
        "astId": 8047,
        "contract": "contracts/Connext.sol:Connext",
        "label": "__gap",
        "offset": 0,
        "slot": "58",
        "type": "t_array(t_uint256)49_storage"
      },
      {
        "astId": 5391,
        "contract": "contracts/Connext.sol:Connext",
        "label": "EMPTY",
        "offset": 0,
        "slot": "107",
        "type": "t_bytes32"
      },
      {
        "astId": 5395,
        "contract": "contracts/Connext.sol:Connext",
        "label": "bridgeRouter",
        "offset": 0,
        "slot": "108",
        "type": "t_contract(BridgeRouter)21440"
      },
      {
        "astId": 5399,
        "contract": "contracts/Connext.sol:Connext",
        "label": "wrapper",
        "offset": 0,
        "slot": "109",
        "type": "t_contract(IWrapped)9627"
      },
      {
        "astId": 5402,
        "contract": "contracts/Connext.sol:Connext",
        "label": "nonce",
        "offset": 0,
        "slot": "110",
        "type": "t_uint256"
      },
      {
        "astId": 5406,
        "contract": "contracts/Connext.sol:Connext",
        "label": "executor",
        "offset": 0,
        "slot": "111",
        "type": "t_contract(IExecutor)9344"
      },
      {
        "astId": 5410,
        "contract": "contracts/Connext.sol:Connext",
        "label": "tokenRegistry",
        "offset": 0,
        "slot": "112",
        "type": "t_contract(TokenRegistry)22746"
      },
      {
        "astId": 5416,
        "contract": "contracts/Connext.sol:Connext",
        "label": "adoptedToLocalPools",
        "offset": 0,
        "slot": "113",
        "type": "t_mapping(t_bytes32,t_contract(IStableSwap)9616)"
      },
      {
        "astId": 5422,
        "contract": "contracts/Connext.sol:Connext",
        "label": "routedTransfers",
        "offset": 0,
        "slot": "114",
        "type": "t_mapping(t_bytes32,t_struct(ExecutedTransfer)8845_storage)"
      },
      {
        "astId": 5428,
        "contract": "contracts/Connext.sol:Connext",
        "label": "routedTransfersGas",
        "offset": 0,
        "slot": "115",
        "type": "t_mapping(t_bytes32,t_struct(GasInfo)8850_storage)"
      },
      {
        "astId": 5431,
        "contract": "contracts/Connext.sol:Connext",
        "label": "domain",
        "offset": 0,
        "slot": "116",
        "type": "t_uint256"
      },
      {
        "astId": 5438,
        "contract": "contracts/Connext.sol:Connext",
        "label": "routerBalances",
        "offset": 0,
        "slot": "117",
        "type": "t_mapping(t_address,t_mapping(t_address,t_uint256))"
      },
      {
        "astId": 5443,
        "contract": "contracts/Connext.sol:Connext",
        "label": "routerRelayerFees",
        "offset": 0,
        "slot": "118",
        "type": "t_mapping(t_address,t_uint256)"
      },
      {
        "astId": 5448,
        "contract": "contracts/Connext.sol:Connext",
        "label": "approvedRouters",
        "offset": 0,
        "slot": "119",
        "type": "t_mapping(t_address,t_bool)"
      },
      {
        "astId": 5453,
        "contract": "contracts/Connext.sol:Connext",
        "label": "approvedAssets",
        "offset": 0,
        "slot": "120",
        "type": "t_mapping(t_bytes32,t_bool)"
      },
      {
        "astId": 5459,
        "contract": "contracts/Connext.sol:Connext",
        "label": "adoptedToCanonical",
        "offset": 0,
        "slot": "121",
        "type": "t_mapping(t_address,t_struct(TokenId)20081_storage)"
      },
      {
        "astId": 5464,
        "contract": "contracts/Connext.sol:Connext",
        "label": "canonicalToAdopted",
        "offset": 0,
        "slot": "122",
        "type": "t_mapping(t_bytes32,t_address)"
      },
      {
        "astId": 5469,
        "contract": "contracts/Connext.sol:Connext",
        "label": "reconciledTransfers",
        "offset": 0,
        "slot": "123",
        "type": "t_mapping(t_bytes32,t_bytes32)"
      },
      {
        "astId": 6929,
        "contract": "contracts/Connext.sol:Connext",
        "label": "__gap",
        "offset": 0,
        "slot": "124",
        "type": "t_array(t_uint256)49_storage"
      }
    ],
    "types": {
      "t_address": {
        "encoding": "inplace",
        "label": "address",
        "numberOfBytes": "20"
      },
      "t_array(t_uint256)49_storage": {
        "base": "t_uint256",
        "encoding": "inplace",
        "label": "uint256[49]",
        "numberOfBytes": "1568"
      },
      "t_bool": {
        "encoding": "inplace",
        "label": "bool",
        "numberOfBytes": "1"
      },
      "t_bytes32": {
        "encoding": "inplace",
        "label": "bytes32",
        "numberOfBytes": "32"
      },
      "t_contract(BridgeRouter)21440": {
        "encoding": "inplace",
        "label": "contract BridgeRouter",
        "numberOfBytes": "20"
      },
      "t_contract(IExecutor)9344": {
        "encoding": "inplace",
        "label": "contract IExecutor",
        "numberOfBytes": "20"
      },
      "t_contract(IStableSwap)9616": {
        "encoding": "inplace",
        "label": "contract IStableSwap",
        "numberOfBytes": "20"
      },
      "t_contract(IWrapped)9627": {
        "encoding": "inplace",
        "label": "contract IWrapped",
        "numberOfBytes": "20"
      },
      "t_contract(TokenRegistry)22746": {
        "encoding": "inplace",
        "label": "contract TokenRegistry",
        "numberOfBytes": "20"
      },
      "t_mapping(t_address,t_bool)": {
        "encoding": "mapping",
        "key": "t_address",
        "label": "mapping(address => bool)",
        "numberOfBytes": "32",
        "value": "t_bool"
      },
      "t_mapping(t_address,t_mapping(t_address,t_uint256))": {
        "encoding": "mapping",
        "key": "t_address",
        "label": "mapping(address => mapping(address => uint256))",
        "numberOfBytes": "32",
        "value": "t_mapping(t_address,t_uint256)"
      },
      "t_mapping(t_address,t_struct(TokenId)20081_storage)": {
        "encoding": "mapping",
        "key": "t_address",
        "label": "mapping(address => struct BridgeMessage.TokenId)",
        "numberOfBytes": "32",
        "value": "t_struct(TokenId)20081_storage"
      },
      "t_mapping(t_address,t_uint256)": {
        "encoding": "mapping",
        "key": "t_address",
        "label": "mapping(address => uint256)",
        "numberOfBytes": "32",
        "value": "t_uint256"
      },
      "t_mapping(t_bytes32,t_address)": {
        "encoding": "mapping",
        "key": "t_bytes32",
        "label": "mapping(bytes32 => address)",
        "numberOfBytes": "32",
        "value": "t_address"
      },
      "t_mapping(t_bytes32,t_bool)": {
        "encoding": "mapping",
        "key": "t_bytes32",
        "label": "mapping(bytes32 => bool)",
        "numberOfBytes": "32",
        "value": "t_bool"
      },
      "t_mapping(t_bytes32,t_bytes32)": {
        "encoding": "mapping",
        "key": "t_bytes32",
        "label": "mapping(bytes32 => bytes32)",
        "numberOfBytes": "32",
        "value": "t_bytes32"
      },
      "t_mapping(t_bytes32,t_contract(IStableSwap)9616)": {
        "encoding": "mapping",
        "key": "t_bytes32",
        "label": "mapping(bytes32 => contract IStableSwap)",
        "numberOfBytes": "32",
        "value": "t_contract(IStableSwap)9616"
      },
      "t_mapping(t_bytes32,t_struct(ExecutedTransfer)8845_storage)": {
        "encoding": "mapping",
        "key": "t_bytes32",
        "label": "mapping(bytes32 => struct IConnext.ExecutedTransfer)",
        "numberOfBytes": "32",
        "value": "t_struct(ExecutedTransfer)8845_storage"
      },
      "t_mapping(t_bytes32,t_struct(GasInfo)8850_storage)": {
        "encoding": "mapping",
        "key": "t_bytes32",
        "label": "mapping(bytes32 => struct IConnext.GasInfo)",
        "numberOfBytes": "32",
        "value": "t_struct(GasInfo)8850_storage"
      },
      "t_struct(ExecutedTransfer)8845_storage": {
        "encoding": "inplace",
        "label": "struct IConnext.ExecutedTransfer",
        "members": [
          {
            "astId": 8842,
            "contract": "contracts/Connext.sol:Connext",
            "label": "router",
            "offset": 0,
            "slot": "0",
            "type": "t_address"
          },
          {
            "astId": 8844,
            "contract": "contracts/Connext.sol:Connext",
            "label": "amount",
            "offset": 0,
            "slot": "1",
            "type": "t_uint256"
          }
        ],
        "numberOfBytes": "64"
      },
      "t_struct(GasInfo)8850_storage": {
        "encoding": "inplace",
        "label": "struct IConnext.GasInfo",
        "members": [
          {
            "astId": 8847,
            "contract": "contracts/Connext.sol:Connext",
            "label": "gasUsed",
            "offset": 0,
            "slot": "0",
            "type": "t_uint256"
          },
          {
            "astId": 8849,
            "contract": "contracts/Connext.sol:Connext",
            "label": "gasPrice",
            "offset": 0,
            "slot": "1",
            "type": "t_uint256"
          }
        ],
        "numberOfBytes": "64"
      },
      "t_struct(TokenId)20081_storage": {
        "encoding": "inplace",
        "label": "struct BridgeMessage.TokenId",
        "members": [
          {
            "astId": 20078,
            "contract": "contracts/Connext.sol:Connext",
            "label": "domain",
            "offset": 0,
            "slot": "0",
            "type": "t_uint32"
          },
          {
            "astId": 20080,
            "contract": "contracts/Connext.sol:Connext",
            "label": "id",
            "offset": 0,
            "slot": "1",
            "type": "t_bytes32"
          }
        ],
        "numberOfBytes": "64"
      },
      "t_uint256": {
        "encoding": "inplace",
        "label": "uint256",
        "numberOfBytes": "32"
      },
      "t_uint32": {
        "encoding": "inplace",
        "label": "uint32",
        "numberOfBytes": "4"
      }
    }
  }
}