{
  "address": "0x29f13A268200d152B1e26A526CBC906848D901f0",
  "abi": [
    {
      "inputs": [],
      "name": "AssetLogic__transferAssetFromContract_notNative",
      "type": "error"
    },
    {
      "inputs": [],
      "name": "Connext__addAssetId_alreadyAdded",
      "type": "error"
    },
    {
      "inputs": [],
      "name": "Connext__addLiquidityForRouter_amountIsZero",
      "type": "error"
    },
    {
      "inputs": [],
      "name": "Connext__addLiquidityForRouter_badAsset",
      "type": "error"
    },
    {
      "inputs": [],
      "name": "Connext__addLiquidityForRouter_badRouter",
      "type": "error"
    },
    {
      "inputs": [],
      "name": "Connext__addLiquidityForRouter_routerEmpty",
      "type": "error"
    },
    {
      "inputs": [],
      "name": "Connext__addRelayerFees_notValue",
      "type": "error"
    },
    {
      "inputs": [],
      "name": "Connext__addRelayer_alreadyApproved",
      "type": "error"
    },
    {
      "inputs": [],
      "name": "Connext__decrementLiquidity_maxRoutersExceeded",
      "type": "error"
    },
    {
      "inputs": [],
      "name": "Connext__decrementLiquidity_notEmpty",
      "type": "error"
    },
    {
      "inputs": [],
      "name": "Connext__execute_notSlowParams",
      "type": "error"
    },
    {
      "inputs": [],
      "name": "Connext__handleRelayerFees_notApprovedRelayer",
      "type": "error"
    },
    {
      "inputs": [],
      "name": "Connext__handleRelayerFees_notRtrSig",
      "type": "error"
    },
    {
      "inputs": [],
      "name": "Connext__onlyBridgeRouter_notBridge",
      "type": "error"
    },
    {
      "inputs": [],
      "name": "Connext__removeAssetId_notAdded",
      "type": "error"
    },
    {
      "inputs": [],
      "name": "Connext__removeLiquidity_amountIsZero",
      "type": "error"
    },
    {
      "inputs": [],
      "name": "Connext__removeLiquidity_insufficientFunds",
      "type": "error"
    },
    {
      "inputs": [],
      "name": "Connext__removeLiquidity_recipientEmpty",
      "type": "error"
    },
    {
      "inputs": [],
      "name": "Connext__removeRelayer_notApproved",
      "type": "error"
    },
    {
      "inputs": [],
      "name": "Connext__setMaxRoutersPerTransfer_invalidMaxRoutersPerTransfer",
      "type": "error"
    },
    {
      "inputs": [],
      "name": "Connext__xcall_notSupportedAsset",
      "type": "error"
    },
    {
      "inputs": [],
      "name": "ProposedOwnableUpgradeable__acceptProposedOwner_delayNotElapsed",
      "type": "error"
    },
    {
      "inputs": [],
      "name": "ProposedOwnableUpgradeable__acceptProposedOwner_noOwnershipChange",
      "type": "error"
    },
    {
      "inputs": [],
      "name": "ProposedOwnableUpgradeable__onlyOwner_notOwner",
      "type": "error"
    },
    {
      "inputs": [],
      "name": "ProposedOwnableUpgradeable__onlyProposed_notProposedOwner",
      "type": "error"
    },
    {
      "inputs": [],
      "name": "ProposedOwnableUpgradeable__proposeAssetOwnershipRenunciation_noOwnershipChange",
      "type": "error"
    },
    {
      "inputs": [],
      "name": "ProposedOwnableUpgradeable__proposeNewOwner_invalidProposal",
      "type": "error"
    },
    {
      "inputs": [],
      "name": "ProposedOwnableUpgradeable__proposeNewOwner_noOwnershipChange",
      "type": "error"
    },
    {
      "inputs": [],
      "name": "ProposedOwnableUpgradeable__proposeRouterOwnershipRenunciation_noOwnershipChange",
      "type": "error"
    },
    {
      "inputs": [],
      "name": "ProposedOwnableUpgradeable__renounceAssetOwnership_delayNotElapsed",
      "type": "error"
    },
    {
      "inputs": [],
      "name": "ProposedOwnableUpgradeable__renounceAssetOwnership_noOwnershipChange",
      "type": "error"
    },
    {
      "inputs": [],
      "name": "ProposedOwnableUpgradeable__renounceAssetOwnership_noProposal",
      "type": "error"
    },
    {
      "inputs": [],
      "name": "ProposedOwnableUpgradeable__renounceOwnership_delayNotElapsed",
      "type": "error"
    },
    {
      "inputs": [],
      "name": "ProposedOwnableUpgradeable__renounceOwnership_invalidProposal",
      "type": "error"
    },
    {
      "inputs": [],
      "name": "ProposedOwnableUpgradeable__renounceOwnership_noProposal",
      "type": "error"
    },
    {
      "inputs": [],
      "name": "ProposedOwnableUpgradeable__renounceRouterOwnership_delayNotElapsed",
      "type": "error"
    },
    {
      "inputs": [],
      "name": "ProposedOwnableUpgradeable__renounceRouterOwnership_noOwnershipChange",
      "type": "error"
    },
    {
      "inputs": [],
      "name": "ProposedOwnableUpgradeable__renounceRouterOwnership_noProposal",
      "type": "error"
    },
    {
      "inputs": [],
      "name": "RouterPermissionsManagerLogic__setupRouter_amountIsZero",
      "type": "error"
    },
    {
      "inputs": [],
      "name": "RouterPermissionsManagerLogic__setupRouter_routerEmpty",
      "type": "error"
    },
    {
      "anonymous": false,
      "inputs": [
        {
          "indexed": false,
          "internalType": "bytes32",
          "name": "canonicalId",
          "type": "bytes32"
        },
        {
          "indexed": false,
          "internalType": "uint32",
          "name": "domain",
          "type": "uint32"
        },
        {
          "indexed": false,
          "internalType": "address",
          "name": "adoptedAsset",
          "type": "address"
        },
        {
          "indexed": false,
          "internalType": "address",
          "name": "supportedAsset",
          "type": "address"
        },
        {
          "indexed": false,
          "internalType": "address",
          "name": "caller",
          "type": "address"
        }
      ],
      "name": "AssetAdded",
      "type": "event"
    },
    {
      "anonymous": false,
      "inputs": [
        {
          "indexed": false,
          "internalType": "bool",
          "name": "renounced",
          "type": "bool"
        }
      ],
      "name": "AssetOwnershipRenounced",
      "type": "event"
    },
    {
      "anonymous": false,
      "inputs": [
        {
          "indexed": false,
          "internalType": "uint256",
          "name": "timestamp",
          "type": "uint256"
        }
      ],
      "name": "AssetOwnershipRenunciationProposed",
      "type": "event"
    },
    {
      "anonymous": false,
      "inputs": [
        {
          "indexed": false,
          "internalType": "bytes32",
          "name": "canonicalId",
          "type": "bytes32"
        },
        {
          "indexed": false,
          "internalType": "address",
          "name": "caller",
          "type": "address"
        }
      ],
      "name": "AssetRemoved",
      "type": "event"
    },
    {
      "anonymous": false,
      "inputs": [
        {
          "indexed": true,
          "internalType": "bytes32",
          "name": "transferId",
          "type": "bytes32"
        },
        {
          "indexed": true,
          "internalType": "address",
          "name": "to",
          "type": "address"
        },
        {
          "indexed": true,
          "internalType": "address",
          "name": "router",
          "type": "address"
        },
        {
          "components": [
            {
              "internalType": "address",
              "name": "to",
              "type": "address"
            },
            {
              "internalType": "bytes",
              "name": "callData",
              "type": "bytes"
            },
            {
              "internalType": "uint32",
              "name": "originDomain",
              "type": "uint32"
            },
            {
              "internalType": "uint32",
              "name": "destinationDomain",
              "type": "uint32"
            }
          ],
          "indexed": false,
          "internalType": "struct IConnext.CallParams",
          "name": "params",
          "type": "tuple"
        },
        {
          "indexed": false,
          "internalType": "address",
          "name": "localAsset",
          "type": "address"
        },
        {
          "indexed": false,
          "internalType": "address",
          "name": "transactingAsset",
          "type": "address"
        },
        {
          "indexed": false,
          "internalType": "uint256",
          "name": "localAmount",
          "type": "uint256"
        },
        {
          "indexed": false,
          "internalType": "uint256",
          "name": "transactingAmount",
          "type": "uint256"
        },
        {
          "indexed": false,
          "internalType": "address",
          "name": "caller",
          "type": "address"
        }
      ],
      "name": "Executed",
      "type": "event"
    },
    {
      "anonymous": false,
      "inputs": [
        {
          "indexed": true,
          "internalType": "address",
          "name": "router",
          "type": "address"
        },
        {
          "indexed": false,
          "internalType": "address",
          "name": "local",
          "type": "address"
        },
        {
          "indexed": false,
          "internalType": "bytes32",
          "name": "canonicalId",
          "type": "bytes32"
        },
        {
          "indexed": false,
          "internalType": "uint256",
          "name": "amount",
          "type": "uint256"
        },
        {
          "indexed": false,
          "internalType": "address",
          "name": "caller",
          "type": "address"
        }
      ],
      "name": "LiquidityAdded",
      "type": "event"
    },
    {
      "anonymous": false,
      "inputs": [
        {
          "indexed": true,
          "internalType": "address",
          "name": "router",
          "type": "address"
        },
        {
          "indexed": false,
          "internalType": "address",
          "name": "to",
          "type": "address"
        },
        {
          "indexed": false,
          "internalType": "address",
          "name": "local",
          "type": "address"
        },
        {
          "indexed": false,
          "internalType": "uint256",
          "name": "amount",
          "type": "uint256"
        },
        {
          "indexed": false,
          "internalType": "address",
          "name": "caller",
          "type": "address"
        }
      ],
      "name": "LiquidityRemoved",
      "type": "event"
    },
    {
      "anonymous": false,
      "inputs": [
        {
          "indexed": false,
          "internalType": "uint256",
          "name": "maxRoutersPerTransfer",
          "type": "uint256"
        },
        {
          "indexed": false,
          "internalType": "address",
          "name": "caller",
          "type": "address"
        }
      ],
      "name": "MaxRoutersPerTransferUpdated",
      "type": "event"
    },
    {
      "anonymous": false,
      "inputs": [
        {
          "indexed": true,
          "internalType": "address",
          "name": "proposedOwner",
          "type": "address"
        }
      ],
      "name": "OwnershipProposed",
      "type": "event"
    },
    {
      "anonymous": false,
      "inputs": [
        {
          "indexed": true,
          "internalType": "address",
          "name": "previousOwner",
          "type": "address"
        },
        {
          "indexed": true,
          "internalType": "address",
          "name": "newOwner",
          "type": "address"
        }
      ],
      "name": "OwnershipTransferred",
      "type": "event"
    },
    {
      "anonymous": false,
      "inputs": [
        {
          "indexed": true,
          "internalType": "bytes32",
          "name": "transferId",
          "type": "bytes32"
        },
        {
          "indexed": true,
          "internalType": "uint32",
          "name": "origin",
          "type": "uint32"
        },
        {
          "indexed": false,
          "internalType": "address",
          "name": "to",
          "type": "address"
        },
        {
          "indexed": false,
          "internalType": "address",
          "name": "localAsset",
          "type": "address"
        },
        {
          "indexed": false,
          "internalType": "uint256",
          "name": "localAmount",
          "type": "uint256"
        },
        {
          "components": [
            {
              "internalType": "address[]",
              "name": "routers",
              "type": "address[]"
            },
            {
              "internalType": "uint256",
              "name": "amount",
              "type": "uint256"
            }
          ],
          "indexed": false,
          "internalType": "struct IConnext.ExecutedTransfer",
          "name": "executed",
          "type": "tuple"
        },
        {
          "indexed": false,
          "internalType": "address",
          "name": "caller",
          "type": "address"
        }
      ],
      "name": "Reconciled",
      "type": "event"
    },
    {
      "anonymous": false,
      "inputs": [
        {
          "indexed": false,
          "internalType": "address",
          "name": "relayer",
          "type": "address"
        },
        {
          "indexed": false,
          "internalType": "address",
          "name": "caller",
          "type": "address"
        }
      ],
      "name": "RelayerAdded",
      "type": "event"
    },
    {
      "anonymous": false,
      "inputs": [
        {
          "indexed": false,
          "internalType": "address",
          "name": "relayer",
          "type": "address"
        },
        {
          "indexed": false,
          "internalType": "address",
          "name": "caller",
          "type": "address"
        }
      ],
      "name": "RelayerRemoved",
      "type": "event"
    },
    {
      "anonymous": false,
      "inputs": [
        {
          "indexed": false,
          "internalType": "bool",
          "name": "renounced",
          "type": "bool"
        }
      ],
      "name": "RouterOwnershipRenounced",
      "type": "event"
    },
    {
      "anonymous": false,
      "inputs": [
        {
          "indexed": false,
          "internalType": "uint256",
          "name": "timestamp",
          "type": "uint256"
        }
      ],
      "name": "RouterOwnershipRenunciationProposed",
      "type": "event"
    },
    {
      "anonymous": false,
      "inputs": [
        {
          "indexed": false,
          "internalType": "bytes32",
          "name": "canonicalId",
          "type": "bytes32"
        },
        {
          "indexed": false,
          "internalType": "uint32",
          "name": "domain",
          "type": "uint32"
        },
        {
          "indexed": false,
          "internalType": "address",
          "name": "swapPool",
          "type": "address"
        },
        {
          "indexed": false,
          "internalType": "address",
          "name": "caller",
          "type": "address"
        }
      ],
      "name": "StableSwapAdded",
      "type": "event"
    },
    {
      "anonymous": false,
      "inputs": [
        {
          "indexed": true,
          "internalType": "bytes32",
          "name": "transferId",
          "type": "bytes32"
        },
        {
          "indexed": true,
          "internalType": "address",
          "name": "to",
          "type": "address"
        },
        {
          "components": [
            {
              "internalType": "address",
              "name": "to",
              "type": "address"
            },
            {
              "internalType": "bytes",
              "name": "callData",
              "type": "bytes"
            },
            {
              "internalType": "uint32",
              "name": "originDomain",
              "type": "uint32"
            },
            {
              "internalType": "uint32",
              "name": "destinationDomain",
              "type": "uint32"
            }
          ],
          "indexed": false,
          "internalType": "struct IConnext.CallParams",
          "name": "params",
          "type": "tuple"
        },
        {
          "indexed": false,
          "internalType": "address",
          "name": "transactingAsset",
          "type": "address"
        },
        {
          "indexed": false,
          "internalType": "address",
          "name": "localAsset",
          "type": "address"
        },
        {
          "indexed": false,
          "internalType": "uint256",
          "name": "transactingAmount",
          "type": "uint256"
        },
        {
          "indexed": false,
          "internalType": "uint256",
          "name": "localAmount",
          "type": "uint256"
        },
        {
          "indexed": false,
          "internalType": "uint256",
          "name": "nonce",
          "type": "uint256"
        },
        {
          "indexed": false,
          "internalType": "address",
          "name": "caller",
          "type": "address"
        }
      ],
      "name": "XCalled",
      "type": "event"
    },
    {
      "inputs": [],
      "name": "acceptProposedOwner",
      "outputs": [],
      "stateMutability": "nonpayable",
      "type": "function"
    },
    {
      "inputs": [
        {
          "internalType": "address",
          "name": "router",
          "type": "address"
        }
      ],
      "name": "acceptProposedRouterOwner",
      "outputs": [],
      "stateMutability": "nonpayable",
      "type": "function"
    },
    {
      "inputs": [
        {
          "internalType": "uint256",
          "name": "amount",
          "type": "uint256"
        },
        {
          "internalType": "address",
          "name": "local",
          "type": "address"
        }
      ],
      "name": "addLiquidity",
      "outputs": [],
      "stateMutability": "payable",
      "type": "function"
    },
    {
      "inputs": [
        {
          "internalType": "uint256",
          "name": "amount",
          "type": "uint256"
        },
        {
          "internalType": "address",
          "name": "local",
          "type": "address"
        },
        {
          "internalType": "address",
          "name": "router",
          "type": "address"
        }
      ],
      "name": "addLiquidityFor",
      "outputs": [],
      "stateMutability": "payable",
      "type": "function"
    },
    {
      "inputs": [
        {
          "internalType": "address",
          "name": "relayer",
          "type": "address"
        }
      ],
      "name": "addRelayer",
      "outputs": [],
      "stateMutability": "nonpayable",
      "type": "function"
    },
    {
      "inputs": [
        {
          "internalType": "address",
          "name": "router",
          "type": "address"
        }
      ],
      "name": "addRelayerFees",
      "outputs": [],
      "stateMutability": "payable",
      "type": "function"
    },
    {
      "inputs": [
        {
          "components": [
            {
              "internalType": "uint32",
              "name": "domain",
              "type": "uint32"
            },
            {
              "internalType": "bytes32",
              "name": "id",
              "type": "bytes32"
            }
          ],
          "internalType": "struct BridgeMessage.TokenId",
          "name": "canonical",
          "type": "tuple"
        },
        {
          "internalType": "address",
          "name": "stableSwapPool",
          "type": "address"
        }
      ],
      "name": "addStableSwapPool",
      "outputs": [],
      "stateMutability": "nonpayable",
      "type": "function"
    },
    {
      "inputs": [
        {
          "internalType": "address",
          "name": "",
          "type": "address"
        }
      ],
      "name": "adoptedToCanonical",
      "outputs": [
        {
          "internalType": "uint32",
          "name": "domain",
          "type": "uint32"
        },
        {
          "internalType": "bytes32",
          "name": "id",
          "type": "bytes32"
        }
      ],
      "stateMutability": "view",
      "type": "function"
    },
    {
      "inputs": [
        {
          "internalType": "bytes32",
          "name": "",
          "type": "bytes32"
        }
      ],
      "name": "adoptedToLocalPools",
      "outputs": [
        {
          "internalType": "contract IStableSwap",
          "name": "",
          "type": "address"
        }
      ],
      "stateMutability": "view",
      "type": "function"
    },
    {
      "inputs": [
        {
          "internalType": "bytes32",
          "name": "",
          "type": "bytes32"
        }
      ],
      "name": "approvedAssets",
      "outputs": [
        {
          "internalType": "bool",
          "name": "",
          "type": "bool"
        }
      ],
      "stateMutability": "view",
      "type": "function"
    },
    {
      "inputs": [
        {
          "internalType": "address",
          "name": "",
          "type": "address"
        }
      ],
      "name": "approvedRelayers",
      "outputs": [
        {
          "internalType": "bool",
          "name": "",
          "type": "bool"
        }
      ],
      "stateMutability": "view",
      "type": "function"
    },
    {
      "inputs": [
        {
          "internalType": "address",
          "name": "_approved",
          "type": "address"
        }
      ],
      "name": "approvedRouters",
      "outputs": [
        {
          "internalType": "bool",
          "name": "",
          "type": "bool"
        }
      ],
      "stateMutability": "view",
      "type": "function"
    },
    {
      "inputs": [],
      "name": "assetOwnershipTimestamp",
      "outputs": [
        {
          "internalType": "uint256",
          "name": "",
          "type": "uint256"
        }
      ],
      "stateMutability": "view",
      "type": "function"
    },
    {
      "inputs": [],
      "name": "bridgeRouter",
      "outputs": [
        {
          "internalType": "contract BridgeRouter",
          "name": "",
          "type": "address"
        }
      ],
      "stateMutability": "view",
      "type": "function"
    },
    {
      "inputs": [
        {
          "internalType": "bytes32",
          "name": "",
          "type": "bytes32"
        }
      ],
      "name": "canonicalToAdopted",
      "outputs": [
        {
          "internalType": "address",
          "name": "",
          "type": "address"
        }
      ],
      "stateMutability": "view",
      "type": "function"
    },
    {
      "inputs": [],
      "name": "delay",
      "outputs": [
        {
          "internalType": "uint256",
          "name": "",
          "type": "uint256"
        }
      ],
      "stateMutability": "view",
      "type": "function"
    },
    {
      "inputs": [],
      "name": "domain",
      "outputs": [
        {
          "internalType": "uint256",
          "name": "",
          "type": "uint256"
        }
      ],
      "stateMutability": "view",
      "type": "function"
    },
    {
      "inputs": [
        {
          "components": [
            {
              "components": [
                {
                  "internalType": "address",
                  "name": "to",
                  "type": "address"
                },
                {
                  "internalType": "bytes",
                  "name": "callData",
                  "type": "bytes"
                },
                {
                  "internalType": "uint32",
                  "name": "originDomain",
                  "type": "uint32"
                },
                {
                  "internalType": "uint32",
                  "name": "destinationDomain",
                  "type": "uint32"
                }
              ],
              "internalType": "struct IConnext.CallParams",
              "name": "params",
              "type": "tuple"
            },
            {
              "internalType": "address",
              "name": "local",
              "type": "address"
            },
            {
              "internalType": "address[]",
              "name": "routers",
              "type": "address[]"
            },
            {
              "internalType": "uint32",
              "name": "feePercentage",
              "type": "uint32"
            },
            {
              "internalType": "uint256",
              "name": "amount",
              "type": "uint256"
            },
            {
              "internalType": "uint256",
              "name": "nonce",
              "type": "uint256"
            },
            {
              "internalType": "bytes",
              "name": "relayerSignature",
              "type": "bytes"
            },
            {
              "internalType": "address",
              "name": "originSender",
              "type": "address"
            }
          ],
          "internalType": "struct IConnext.ExecuteArgs",
          "name": "_args",
          "type": "tuple"
        }
      ],
      "name": "execute",
      "outputs": [
        {
          "internalType": "bytes32",
          "name": "",
          "type": "bytes32"
        }
      ],
      "stateMutability": "nonpayable",
      "type": "function"
    },
    {
      "inputs": [],
      "name": "executor",
      "outputs": [
        {
          "internalType": "contract IExecutor",
          "name": "",
          "type": "address"
        }
      ],
      "stateMutability": "view",
      "type": "function"
    },
    {
      "inputs": [
        {
          "internalType": "uint256",
          "name": "_domain",
          "type": "uint256"
        },
        {
          "internalType": "address payable",
          "name": "_bridgeRouter",
          "type": "address"
        },
        {
          "internalType": "address",
          "name": "_tokenRegistry",
          "type": "address"
        },
        {
          "internalType": "address",
          "name": "_wrappedNative",
          "type": "address"
        }
      ],
      "name": "initialize",
      "outputs": [],
      "stateMutability": "nonpayable",
      "type": "function"
    },
    {
      "inputs": [],
      "name": "isAssetOwnershipRenounced",
      "outputs": [
        {
          "internalType": "bool",
          "name": "",
          "type": "bool"
        }
      ],
      "stateMutability": "view",
      "type": "function"
    },
    {
      "inputs": [],
      "name": "isRouterOwnershipRenounced",
      "outputs": [
        {
          "internalType": "bool",
          "name": "",
          "type": "bool"
        }
      ],
      "stateMutability": "view",
      "type": "function"
    },
    {
      "inputs": [],
      "name": "maxRoutersPerTransfer",
      "outputs": [
        {
          "internalType": "uint256",
          "name": "",
          "type": "uint256"
        }
      ],
      "stateMutability": "view",
      "type": "function"
    },
    {
      "inputs": [],
      "name": "nonce",
      "outputs": [
        {
          "internalType": "uint256",
          "name": "",
          "type": "uint256"
        }
      ],
      "stateMutability": "view",
      "type": "function"
    },
    {
      "inputs": [],
      "name": "owner",
      "outputs": [
        {
          "internalType": "address",
          "name": "",
          "type": "address"
        }
      ],
      "stateMutability": "view",
      "type": "function"
    },
    {
      "inputs": [],
      "name": "proposeAssetOwnershipRenunciation",
      "outputs": [],
      "stateMutability": "nonpayable",
      "type": "function"
    },
    {
      "inputs": [
        {
          "internalType": "address",
          "name": "newlyProposed",
          "type": "address"
        }
      ],
      "name": "proposeNewOwner",
      "outputs": [],
      "stateMutability": "nonpayable",
      "type": "function"
    },
    {
      "inputs": [
        {
          "internalType": "address",
          "name": "router",
          "type": "address"
        },
        {
          "internalType": "address",
          "name": "proposed",
          "type": "address"
        }
      ],
      "name": "proposeRouterOwner",
      "outputs": [],
      "stateMutability": "nonpayable",
      "type": "function"
    },
    {
      "inputs": [],
      "name": "proposeRouterOwnershipRenunciation",
      "outputs": [],
      "stateMutability": "nonpayable",
      "type": "function"
    },
    {
      "inputs": [],
      "name": "proposed",
      "outputs": [
        {
          "internalType": "address",
          "name": "",
          "type": "address"
        }
      ],
      "stateMutability": "view",
      "type": "function"
    },
    {
      "inputs": [
        {
          "internalType": "address",
          "name": "_router",
          "type": "address"
        }
      ],
      "name": "proposedRouterOwners",
      "outputs": [
        {
          "internalType": "address",
          "name": "",
          "type": "address"
        }
      ],
      "stateMutability": "view",
      "type": "function"
    },
    {
      "inputs": [
        {
          "internalType": "address",
          "name": "_router",
          "type": "address"
        }
      ],
      "name": "proposedRouterTimestamp",
      "outputs": [
        {
          "internalType": "uint256",
          "name": "",
          "type": "uint256"
        }
      ],
      "stateMutability": "view",
      "type": "function"
    },
    {
      "inputs": [],
      "name": "proposedTimestamp",
      "outputs": [
        {
          "internalType": "uint256",
          "name": "",
          "type": "uint256"
        }
      ],
      "stateMutability": "view",
      "type": "function"
    },
    {
      "inputs": [
        {
          "internalType": "bytes32",
          "name": "_transferId",
          "type": "bytes32"
        },
        {
          "internalType": "uint32",
          "name": "_origin",
          "type": "uint32"
        },
        {
          "internalType": "address",
          "name": "_local",
          "type": "address"
        },
        {
          "internalType": "address",
          "name": "_recipient",
          "type": "address"
        },
        {
          "internalType": "uint256",
          "name": "_amount",
          "type": "uint256"
        }
      ],
      "name": "reconcile",
      "outputs": [],
      "stateMutability": "payable",
      "type": "function"
    },
    {
      "inputs": [
        {
          "internalType": "bytes32",
          "name": "",
          "type": "bytes32"
        }
      ],
      "name": "reconciledTransfers",
      "outputs": [
        {
          "internalType": "bytes32",
          "name": "",
          "type": "bytes32"
        }
      ],
      "stateMutability": "view",
      "type": "function"
    },
    {
      "inputs": [
        {
          "internalType": "bytes32",
          "name": "canonicalId",
          "type": "bytes32"
        },
        {
          "internalType": "address",
          "name": "adoptedAssetId",
          "type": "address"
        }
      ],
      "name": "removeAssetId",
      "outputs": [],
      "stateMutability": "nonpayable",
      "type": "function"
    },
    {
      "inputs": [
        {
          "internalType": "uint256",
          "name": "amount",
          "type": "uint256"
        },
        {
          "internalType": "address",
          "name": "local",
          "type": "address"
        },
        {
          "internalType": "address payable",
          "name": "to",
          "type": "address"
        }
      ],
      "name": "removeLiquidity",
      "outputs": [],
      "stateMutability": "nonpayable",
      "type": "function"
    },
    {
      "inputs": [
        {
          "internalType": "address",
          "name": "relayer",
          "type": "address"
        }
      ],
      "name": "removeRelayer",
      "outputs": [],
      "stateMutability": "nonpayable",
      "type": "function"
    },
    {
      "inputs": [
        {
          "internalType": "uint256",
          "name": "amount",
          "type": "uint256"
        },
        {
          "internalType": "address payable",
          "name": "to",
          "type": "address"
        }
      ],
      "name": "removeRelayerFees",
      "outputs": [],
      "stateMutability": "nonpayable",
      "type": "function"
    },
    {
      "inputs": [
        {
          "internalType": "address",
          "name": "router",
          "type": "address"
        }
      ],
      "name": "removeRouter",
      "outputs": [],
      "stateMutability": "nonpayable",
      "type": "function"
    },
    {
      "inputs": [],
      "name": "renounceAssetOwnership",
      "outputs": [],
      "stateMutability": "nonpayable",
      "type": "function"
    },
    {
      "inputs": [],
      "name": "renounceOwnership",
      "outputs": [],
      "stateMutability": "nonpayable",
      "type": "function"
    },
    {
      "inputs": [],
      "name": "renounceRouterOwnership",
      "outputs": [],
      "stateMutability": "nonpayable",
      "type": "function"
    },
    {
      "inputs": [],
      "name": "renounced",
      "outputs": [
        {
          "internalType": "bool",
          "name": "",
          "type": "bool"
        }
      ],
      "stateMutability": "view",
      "type": "function"
    },
    {
      "inputs": [
        {
          "internalType": "bytes32",
          "name": "",
          "type": "bytes32"
        }
      ],
      "name": "routedTransfers",
      "outputs": [
        {
          "internalType": "uint256",
          "name": "amount",
          "type": "uint256"
        }
      ],
      "stateMutability": "view",
      "type": "function"
    },
    {
      "inputs": [
        {
          "internalType": "bytes32",
          "name": "",
          "type": "bytes32"
        }
      ],
      "name": "routedTransfersGas",
      "outputs": [
        {
          "internalType": "uint256",
          "name": "gasUsed",
          "type": "uint256"
        },
        {
          "internalType": "uint256",
          "name": "gasPrice",
          "type": "uint256"
        }
      ],
      "stateMutability": "view",
      "type": "function"
    },
    {
      "inputs": [
        {
          "internalType": "address",
          "name": "",
          "type": "address"
        },
        {
          "internalType": "address",
          "name": "",
          "type": "address"
        }
      ],
      "name": "routerBalances",
      "outputs": [
        {
          "internalType": "uint256",
          "name": "",
          "type": "uint256"
        }
      ],
      "stateMutability": "view",
      "type": "function"
    },
    {
      "inputs": [
        {
          "internalType": "address",
          "name": "_router",
          "type": "address"
        }
      ],
      "name": "routerOwners",
      "outputs": [
        {
          "internalType": "address",
          "name": "",
          "type": "address"
        }
      ],
      "stateMutability": "view",
      "type": "function"
    },
    {
      "inputs": [],
      "name": "routerOwnershipTimestamp",
      "outputs": [
        {
          "internalType": "uint256",
          "name": "",
          "type": "uint256"
        }
      ],
      "stateMutability": "view",
      "type": "function"
    },
    {
      "inputs": [
        {
          "internalType": "address",
          "name": "_router",
          "type": "address"
        }
      ],
      "name": "routerRecipients",
      "outputs": [
        {
          "internalType": "address",
          "name": "",
          "type": "address"
        }
      ],
      "stateMutability": "view",
      "type": "function"
    },
    {
      "inputs": [
        {
          "internalType": "address",
          "name": "",
          "type": "address"
        }
      ],
      "name": "routerRelayerFees",
      "outputs": [
        {
          "internalType": "uint256",
          "name": "",
          "type": "uint256"
        }
      ],
      "stateMutability": "view",
      "type": "function"
    },
    {
      "inputs": [
        {
          "internalType": "uint256",
          "name": "newMaxRouters",
          "type": "uint256"
        }
      ],
      "name": "setMaxRoutersPerTransfer",
      "outputs": [],
      "stateMutability": "nonpayable",
      "type": "function"
    },
    {
      "inputs": [
        {
          "internalType": "address",
          "name": "router",
          "type": "address"
        },
        {
          "internalType": "address",
          "name": "recipient",
          "type": "address"
        }
      ],
      "name": "setRouterRecipient",
      "outputs": [],
      "stateMutability": "nonpayable",
      "type": "function"
    },
    {
      "inputs": [
        {
          "components": [
            {
              "internalType": "uint32",
              "name": "domain",
              "type": "uint32"
            },
            {
              "internalType": "bytes32",
              "name": "id",
              "type": "bytes32"
            }
          ],
          "internalType": "struct BridgeMessage.TokenId",
          "name": "canonical",
          "type": "tuple"
        },
        {
          "internalType": "address",
          "name": "adoptedAssetId",
          "type": "address"
        },
        {
          "internalType": "address",
          "name": "stableSwapPool",
          "type": "address"
        }
      ],
      "name": "setupAsset",
      "outputs": [],
      "stateMutability": "nonpayable",
      "type": "function"
    },
    {
      "inputs": [
        {
          "internalType": "address",
          "name": "router",
          "type": "address"
        },
        {
          "internalType": "address",
          "name": "owner",
          "type": "address"
        },
        {
          "internalType": "address",
          "name": "recipient",
          "type": "address"
        }
      ],
      "name": "setupRouter",
      "outputs": [],
      "stateMutability": "nonpayable",
      "type": "function"
    },
    {
      "inputs": [],
      "name": "tokenRegistry",
      "outputs": [
        {
          "internalType": "contract TokenRegistry",
          "name": "",
          "type": "address"
        }
      ],
      "stateMutability": "view",
      "type": "function"
    },
    {
      "inputs": [],
      "name": "wrapper",
      "outputs": [
        {
          "internalType": "contract IWrapped",
          "name": "",
          "type": "address"
        }
      ],
      "stateMutability": "view",
      "type": "function"
    },
    {
      "inputs": [
        {
          "components": [
            {
              "components": [
                {
                  "internalType": "address",
                  "name": "to",
                  "type": "address"
                },
                {
                  "internalType": "bytes",
                  "name": "callData",
                  "type": "bytes"
                },
                {
                  "internalType": "uint32",
                  "name": "originDomain",
                  "type": "uint32"
                },
                {
                  "internalType": "uint32",
                  "name": "destinationDomain",
                  "type": "uint32"
                }
              ],
              "internalType": "struct IConnext.CallParams",
              "name": "params",
              "type": "tuple"
            },
            {
              "internalType": "address",
              "name": "transactingAssetId",
              "type": "address"
            },
            {
              "internalType": "uint256",
              "name": "amount",
              "type": "uint256"
            }
          ],
          "internalType": "struct IConnext.XCallArgs",
          "name": "_args",
          "type": "tuple"
        }
      ],
      "name": "xcall",
      "outputs": [
        {
          "internalType": "bytes32",
          "name": "",
          "type": "bytes32"
        }
      ],
      "stateMutability": "payable",
      "type": "function"
    },
    {
      "stateMutability": "payable",
      "type": "receive"
    }
  ],
  "transactionHash": "0x7c09dd57b8168567872721335bea5cf4040de7313b7c5c0b9ac162543746712b",
  "args": [],
  "numDeployments": 2,
  "solcInputHash": "8ec85d835ad876fbc6cc715c2014762c",
  "bytecode": "0x608060405234801561001057600080fd5b50615aab806100206000396000f3fe608060405260043610620003cf5760003560e01c80638741eac511620001f7578063c34c08e51162000117578063e070da0911620000ad578063ea7a904d1162000078578063ea7a904d1462000c20578063eb492f441462000c45578063f31abcc41462000c6a578063ffaf3f1a1462000c8f57600080fd5b8063e070da091462000bb4578063e47602f71462000bcb578063e886e29a1462000be3578063e8be0dfc1462000c0857600080fd5b8063d1851c9211620000ee578063d1851c921462000b11578063d232c2201462000b31578063d57f088b1462000b52578063dd39f00d1462000b8f57600080fd5b8063c34c08e51462000ac0578063c5b350df1462000ae2578063c95f9d0e1462000afa57600080fd5b8063affed0e0116200018d578063c0c17baf1162000164578063c0c17baf1462000a48578063c1a049591462000a60578063c26c9c0a1462000a77578063c2fb26a61462000aa857600080fd5b8063affed0e014620009d1578063b1f8100d14620009e9578063bd7e1e2e1462000a0e57600080fd5b80639bf6d87511620001ce5780639bf6d87514620009385780639d127e5114620009505780639d23c4c7146200098d578063ac210cc714620009af57600080fd5b80638741eac514620008cc5780638cba8b6a14620008e45780638da5cb5b146200091857600080fd5b806357bd0a3211620002ef578063715018a611620002855780637ebfe70f11620002505780637ebfe70f14620007ee578063806474de146200082857806382904716146200087657806383c68876146200089b57600080fd5b8063715018a61462000775578063754d1d54146200078d5780637b298e2714620007b25780637b9c1a0114620007d757600080fd5b80636a41633a11620002c65780636a41633a14620006e45780636a42b8f814620006fb5780636ae0b15414620007135780636f2335ea146200073857600080fd5b806357bd0a32146200062d57806360062091146200066157806360f0a5ac14620006bf57600080fd5b80632c1999d0116200036557806341258b5c116200033c57806341258b5c146200056d57806341af5b5214620005a9578063445b1e4b14620005cb578063569d29e4146200060857600080fd5b80632c1999d014620004eb5780633855b467146200053e5780633cf52ffb146200055657600080fd5b80631a8bc0e111620003a65780631a8bc0e114620004525780632004ef4514620004865780632077490914620004af57806322a3c00714620004c657600080fd5b8063023ae73a14620003dc57806309935b8f14620004065780631506e463146200042d57600080fd5b36620003d757005b600080fd5b620003f3620003ed366004620038d7565b62000cb4565b6040519081526020015b60405180910390f35b3480156200041357600080fd5b506200042b620004253660046200392b565b62001110565b005b3480156200043a57600080fd5b506200042b6200044c36600462003964565b62001193565b3480156200045f57600080fd5b50620003f362000471366004620039a1565b60786020526000908152604090206001015481565b3480156200049357600080fd5b506200049e620011cf565b6040519015158152602001620003fd565b6200042b620004c03660046200392b565b620011f2565b348015620004d357600080fd5b506200042b620004e5366004620039bb565b62001243565b348015620004f857600080fd5b50620005256200050a366004620039a1565b607d602052600090815260409020546001600160a01b031681565b6040516001600160a01b039091168152602001620003fd565b3480156200054b57600080fd5b506200042b620012b7565b3480156200056357600080fd5b50603554620003f3565b3480156200057a57600080fd5b50620003f36200058c366004620039bb565b608160209081526000928352604080842090915290825290205481565b348015620005b657600080fd5b5060725462000525906001600160a01b031681565b348015620005d857600080fd5b506200049e620005ea3660046200392b565b6001600160a01b03166000908152606c602052604090205460ff1690565b3480156200061557600080fd5b506200042b62000627366004620039ee565b6200136a565b3480156200063a57600080fd5b506200049e6200064c366004620039a1565b607b6020526000908152604090205460ff1681565b3480156200066e57600080fd5b50620006a2620006803660046200392b565b607c602052600090815260409020805460019091015463ffffffff9091169082565b6040805163ffffffff9093168352602083019190915201620003fd565b348015620006cc57600080fd5b506200042b620006de3660046200392b565b620013b3565b348015620006f157600080fd5b50603954620003f3565b3480156200070857600080fd5b5062093a80620003f3565b3480156200072057600080fd5b506200042b620007323660046200392b565b62001476565b3480156200074557600080fd5b5062000525620007573660046200392b565b6001600160a01b039081166000908152606d60205260409020541690565b3480156200078257600080fd5b506200042b620014b0565b3480156200079a57600080fd5b506200042b620007ac36600462003a3f565b62001572565b348015620007bf57600080fd5b506200042b620007d136600462003a99565b6200171d565b6200042b620007e836600462003ad4565b62001750565b348015620007fb57600080fd5b50620003f36200080d3660046200392b565b6001600160a01b031660009081526070602052604090205490565b3480156200083557600080fd5b506200086062000847366004620039a1565b6079602052600090815260409020805460019091015482565b60408051928352602083019190915201620003fd565b3480156200088357600080fd5b506200042b62000895366004620039a1565b620019a9565b348015620008a857600080fd5b50620003f3620008ba3660046200392b565b607f6020526000908152604090205481565b348015620008d957600080fd5b506200042b62001a32565b348015620008f157600080fd5b506200049e620009033660046200392b565b60806020526000908152604090205460ff1681565b3480156200092557600080fd5b506033546001600160a01b031662000525565b3480156200094557600080fd5b50620003f360825481565b3480156200095d57600080fd5b50620005256200096f3660046200392b565b6001600160a01b039081166000908152606f60205260409020541690565b3480156200099a57600080fd5b5060765462000525906001600160a01b031681565b348015620009bc57600080fd5b5060735462000525906001600160a01b031681565b348015620009de57600080fd5b50620003f360745481565b348015620009f657600080fd5b506200042b62000a083660046200392b565b62001a8d565b34801562000a1b57600080fd5b506200052562000a2d366004620039a1565b6077602052600090815260409020546001600160a01b031681565b34801562000a5557600080fd5b506200042b62001b39565b34801562000a6d57600080fd5b50603754620003f3565b34801562000a8457600080fd5b50620003f362000a96366004620039a1565b607e6020526000908152604090205481565b34801562000ab557600080fd5b50620003f3607a5481565b34801562000acd57600080fd5b5060755462000525906001600160a01b031681565b34801562000aef57600080fd5b506200042b62001bea565b6200042b62000b0b36600462003a99565b62001c7c565b34801562000b1e57600080fd5b506034546001600160a01b031662000525565b34801562000b3e57600080fd5b506033546001600160a01b0316156200049e565b34801562000b5f57600080fd5b506200052562000b713660046200392b565b6001600160a01b039081166000908152606e60205260409020541690565b34801562000b9c57600080fd5b506200042b62000bae3660046200392b565b62001cbc565b6200042b62000bc536600462003b36565b62001d7d565b34801562000bd857600080fd5b506200042b62001dbe565b34801562000bf057600080fd5b50620003f362000c0236600462003b72565b62001e19565b34801562000c1557600080fd5b506200049e6200238b565b34801562000c2d57600080fd5b506200042b62000c3f36600462003a99565b620023ac565b34801562000c5257600080fd5b506200042b62000c6436600462003bb1565b620024c7565b34801562000c7757600080fd5b506200042b62000c8936600462003b36565b62002500565b34801562000c9c57600080fd5b506200042b62000cae366004620039bb565b6200267e565b600080607c818062000ccd60408701602088016200392b565b6001600160a01b03161462000cf45762000cee60408601602087016200392b565b62000d01565b6073546001600160a01b03165b6001600160a01b03166001600160a01b0316815260200190815260200160002060010154141562000d4557604051634edd41eb60e11b815260040160405180910390fd5b600080735d45B4A30193ba5efB748B19Ae6C5C46aA2DC3fC63c2ba762562000d7460408701602088016200392b565b6073546040805160e085901b6001600160e01b03191681526001600160a01b039384166004820152908901356024820152911660448201526064016040805180830381865af415801562000dcc573d6000803e3d6000fd5b505050506040513d601f19601f8201168201806040525081019062000df2919062003be6565b6001600160a01b038281166000818152607c6020908152604080832081518083018352815463ffffffff9081168252600190920154818501818152908652607790945282852054607654935163c78e2b4160e01b81528251909316600484015293516024830152928616604482015294166064850152608484019290925260a4830184905293955091935090919081907341E885C322A7C9a8A4Cf8Bd08d569c7bf48D64289063c78e2b419060c4016040805180830381865af415801562000ebe573d6000803e3d6000fd5b505050506040513d601f19601f8201168201806040525081019062000ee4919062003c17565b60745491935091506000907341E885C322A7C9a8A4Cf8Bd08d569c7bf48D6428906374abed0f903362000f188c8062003c3f565b6040518463ffffffff1660e01b815260040162000f389392919062003cd9565b602060405180830381865af415801562000f56573d6000803e3d6000fd5b505050506040513d601f19601f8201168201806040525081019062000f7c919062003d72565b60748054919250600062000f908362003da2565b90915550506072547341E885C322A7C9a8A4Cf8Bd08d569c7bf48D64289063df1ddc75906001600160a01b031662000fc98b8062003c3f565b62000fdc90608081019060600162003dc0565b62000fe88c8062003c3f565b62000ff89060208101906200392b565b6040516001600160e01b031960e086901b1681526001600160a01b03938416600482015263ffffffff9290921660248301528216604482015290851660648201526084810186905260a4810184905260c40160006040518083038186803b1580156200106357600080fd5b505af415801562001078573d6000803e3d6000fd5b506200108b92508a915081905062003c3f565b6200109b9060208101906200392b565b6001600160a01b0316817f023e565b14eb42ff84b14f9c07ae846f5234b3a596e8e01ea2a0573e28d1d808620010d28b8062003c3f565b89868a896001607454620010e7919062003de0565b33604051620010fd979695949392919062003e7d565b60405180910390a3979650505050505050565b606b54604051630d183f5b60e31b81526001600160a01b03831660048201526024810191909152606c604482015273a9a6D04f724BDDD1aca08C925461851E09EfFb38906368c1fad8906064015b60006040518083038186803b1580156200117757600080fd5b505af41580156200118c573d6000803e3d6000fd5b5050505050565b6033546001600160a01b03163314620011bf57604051630cd5bd6f60e21b815260040160405180910390fd5b620011cb8282620026bc565b5050565b6033546000906001600160a01b03161580620011ed575060365460ff165b905090565b346200121157604051630841bfc160e11b815260040160405180910390fd5b6001600160a01b0381166000908152607f6020526040812080543492906200123b90849062003ed1565b909155505050565b60405163dc26fe0f60e01b815273a9a6D04f724BDDD1aca08C925461851E09EfFb389063dc26fe0f90620012819085908590606c9060040162003eec565b60006040518083038186803b1580156200129a57600080fd5b505af4158015620012af573d6000803e3d6000fd5b505050505050565b6033546001600160a01b03163314620012e357604051630cd5bd6f60e21b815260040160405180910390fd5b60385460ff16156200130857604051634e3d8db760e11b815260040160405180910390fd5b6039546200132957604051631c2ed13b60e01b815260040160405180910390fd5b62093a80603954426200133d919062003de0565b116200135c57604051635aeaa22f60e11b815260040160405180910390fd5b6200136860016200274b565b565b6033546001600160a01b031633146200139657604051630cd5bd6f60e21b815260040160405180910390fd5b620013a2838362002792565b620013ae8382620026bc565b505050565b6033546001600160a01b03163314620013df57604051630cd5bd6f60e21b815260040160405180910390fd5b6001600160a01b03811660009081526080602052604090205460ff1662001419576040516388c915d360e01b815260040160405180910390fd5b6001600160a01b038116600081815260806020908152604091829020805460ff19169055815192835233908301527f0bdcf1d6f29aa87af8131cc81dcbb295fcf98d71cfcdc79cc5d965317bae1d0a91015b60405180910390a150565b6033546001600160a01b03163314620014a257604051630cd5bd6f60e21b815260040160405180910390fd5b620014ad81620028d1565b50565b6033546001600160a01b03163314620014dc57604051630cd5bd6f60e21b815260040160405180910390fd5b603554620014fd57604051632a2d7bdb60e11b815260040160405180910390fd5b62093a806035544262001511919062003de0565b11620015305760405163136ae5ad60e01b815260040160405180910390fd5b6034546001600160a01b0316156200155b576040516301a8692360e11b815260040160405180910390fd5b60345462001368906001600160a01b031662002919565b600054610100900460ff166200158f5760005460ff161562001593565b303b155b620015fc5760405162461bcd60e51b815260206004820152602e60248201527f496e697469616c697a61626c653a20636f6e747261637420697320616c72656160448201526d191e481a5b9a5d1a585b1a5e995960921b60648201526084015b60405180910390fd5b600054610100900460ff161580156200161f576000805461ffff19166101011790555b6200162962002972565b62001633620029a6565b6200163d620029da565b6000607455607a859055607280546001600160a01b0319166001600160a01b0386161790556040513090620016729062003848565b6001600160a01b039091168152602001604051809103906000f0801580156200169f573d6000803e3d6000fd5b50607580546001600160a01b03199081166001600160a01b0393841617909155607680548216868416179055607380549091169184169190911790557fc5d2460186f7233c927e7db2dcc703c0e500b653ca82273b7bfad8045d85a470607155600560825580156200118c576000805461ff00191690555050505050565b336000908152607f6020526040812080548492906200173e90849062003de0565b90915550620011cb9050818362002a0e565b6072546001600160a01b031633146200177c57604051635282101360e01b815260040160405180910390fd5b6000858152607860209081526040808320815181546060948102820185018452928101838152909391928492849190840182828015620017e657602002820191906000526020600020905b81546001600160a01b03168152600190910190602001808311620017c7575b50505050508152602001600182015481525050905080600001515160001415620018a057604051632c91b38b60e11b81527341E885C322A7C9a8A4Cf8Bd08d569c7bf48D642890635923671690620018479087908790879060040162003eec565b602060405180830381865af415801562001865573d6000803e3d6000fd5b505050506040513d601f19601f820116820180604052508101906200188b919062003d72565b6000878152607e602052604090205562001958565b8051516000620018b1828562003f10565b905060005b828110156200195457816081600086600001518481518110620018dd57620018dd62003f33565b60200260200101516001600160a01b03166001600160a01b031681526020019081526020016000206000896001600160a01b03166001600160a01b03168152602001908152602001600020600082825462001939919062003ed1565b909155508190506200194b8162003da2565b915050620018b6565b5050505b8463ffffffff16867f945e4332ea59a3268632d66866bfa824dfd80dbea80edd1ae5d8ab276b80b15085878686336040516200199995949392919062003f49565b60405180910390a3505050505050565b6033546001600160a01b03163314620019d557604051630cd5bd6f60e21b815260040160405180910390fd5b60008111620019f75760405163b6a4e9d360e01b815260040160405180910390fd5b6082819055604080518281523360208201527fa7fe33308fb33ae6f3259e3c7c954ae3d6cd7f428cd17f653413c2cdc691666d91016200146b565b6033546001600160a01b0316331462001a5e57604051630cd5bd6f60e21b815260040160405180910390fd5b60385460ff161562001a835760405163382242c360e01b815260040160405180910390fd5b6200136862002b2d565b6033546001600160a01b0316331462001ab957604051630cd5bd6f60e21b815260040160405180910390fd5b6034546001600160a01b03828116911614801562001adf57506001600160a01b03811615155b1562001afe57604051635334dcf560e01b815260040160405180910390fd5b6033546001600160a01b038281169116141562001b2e576040516304d9ae9160e21b815260040160405180910390fd5b620014ad8162002b69565b6033546001600160a01b0316331462001b6557604051630cd5bd6f60e21b815260040160405180910390fd5b60365460ff161562001b8a5760405163cd0cbe2b60e01b815260040160405180910390fd5b60375462001bab57604051636da7f42560e01b815260040160405180910390fd5b62093a806037544262001bbf919062003de0565b1162001bde5760405163288a062560e21b815260040160405180910390fd5b62001368600162002bb7565b6034546001600160a01b0316331462001c16576040516340a61e4d60e01b815260040160405180910390fd5b6034546033546001600160a01b039081169116141562001c49576040516315cb454d60e21b815260040160405180910390fd5b62093a806035544262001c5d919062003de0565b116200155b5760405163970af82d60e01b815260040160405180910390fd5b6002600154141562001ca25760405162461bcd60e51b8152600401620015f39062003fe4565b600260015562001cb482823362002bfe565b505060018055565b6033546001600160a01b0316331462001ce857604051630cd5bd6f60e21b815260040160405180910390fd5b6001600160a01b03811660009081526080602052604090205460ff161562001d23576040516344c1e5a160e11b815260040160405180910390fd5b6001600160a01b038116600081815260806020908152604091829020805460ff19166001179055815192835233908301527fd756b9aee10d6f2c80dc42c5031beb0e0847f6e1d6ba50199bdfc3f0de5cc0cc91016200146b565b6002600154141562001da35760405162461bcd60e51b8152600401620015f39062003fe4565b600260015562001db583838362002bfe565b50506001805550565b6033546001600160a01b0316331462001dea57604051630cd5bd6f60e21b815260040160405180910390fd5b60365460ff161562001e0f5760405163b1134ca960e01b815260040160405180910390fd5b6200136862002eb2565b6000805a905060007341E885C322A7C9a8A4Cf8Bd08d569c7bf48D64286374abed0f60a086013562001e53610100880160e089016200392b565b62001e5f888062003c3f565b6040518463ffffffff1660e01b815260040162001e7f9392919062003cd9565b602060405180830381865af415801562001e9d573d6000803e3d6000fd5b505050506040513d601f19601f8201168201806040525081019062001ec3919062003d72565b6000818152607e60205260409020549091508015801562001f155762001f0f83608088013562001efa60408a0160208b016200392b565b62001f0960408b018b6200401b565b62002ee9565b62001fe6565b7341E885C322A7C9a8A4Cf8Bd08d569c7bf48D6428635923671662001f416040890160208a016200392b565b62001f4d898062003c3f565b62001f5d9060208101906200392b565b89608001356040518463ffffffff1660e01b815260040162001f829392919062003eec565b602060405180830381865af415801562001fa0573d6000803e3d6000fd5b505050506040513d601f19601f8201168201806040525081019062001fc6919062003d72565b821462001fe65760405163df03e27d60e01b815260040160405180910390fd5b60765460009081907341E885C322A7C9a8A4Cf8Bd08d569c7bf48D64289063eee03d8d90607d906077906001600160a01b03166200202b60408e0160208f016200392b565b6040516001600160e01b031960e087901b168152600481019490945260248401929092526001600160a01b03908116604484015216606482015260808b0135608482015260a4016040805180830381865af41580156200208f573d6000803e3d6000fd5b505050506040513d601f19601f82011682018060405250810190620020b5919062003c17565b6071549193509150620020c9898062003c3f565b620020d990602081019062004068565b604051620020e9929190620040b2565b6040518091039020141562002133576200212d81620021098a8062003c3f565b620021199060208101906200392b565b60735485906001600160a01b03166200307b565b62002277565b607554607354620021559183916001600160a01b03918216918691166200307b565b6075546001600160a01b0316631e29b4408684620021748c8062003c3f565b620021849060208101906200392b565b8588620021cf57620021c96200219b8f8062003c3f565b620021ae90606081019060400162003dc0565b8f60e0016020810190620021c391906200392b565b6200313f565b620021ea565b6040518060400160405280601d815260200162ffffff198152505b620021f68f8062003c3f565b6200220690602081019062004068565b6040518863ffffffff1660e01b81526004016200222a97969594939291906200411f565b6000604051808303816000875af11580156200224a573d6000803e3d6000fd5b505050506040513d6000823e601f3d908101601f19168201604052620022749190810190620041a9565b50505b8215620022ba5760405180604001604052805a62002296908962003de0565b81523a60209182015260008781526079825260409020825181559101516001909101555b620022f585620022ce60408b018b6200401b565b620022e060808d0160608e0162003dc0565b620022ef60c08e018e62004068565b62003170565b3362002302898062003c3f565b620023129060208101906200392b565b6001600160a01b0316867f3d5b9d96144cef95ba201c4dbd1f875f6dd32edc9d8813056dea706bf52fc10a620023498c8062003c3f565b6200235b60408e0160208f016200392b565b868e608001358933604051620023779695949392919062004277565b60405180910390a450929695505050505050565b6033546000906001600160a01b03161580620011ed57505060385460ff1690565b6033546001600160a01b03163314620023d857604051630cd5bd6f60e21b815260040160405180910390fd5b6000828152607b602052604090205460ff16620024085760405163323b090f60e11b815260040160405180910390fd5b6000828152607b60209081526040808320805460ff191690556077909152812080546001600160a01b0319169055607c906001600160a01b038316156200245057826200245d565b6073546001600160a01b03165b6001600160a01b0316815260208082019290925260409081016000908120805463ffffffff1916815560010155805184815233928101929092527f9d181adb70e733f5235f839c1eed929407ea8526e41d01f49b9fef703e78dddf91015b60405180910390a15050565b6033546001600160a01b03163314620024f357604051630cd5bd6f60e21b815260040160405180910390fd5b620013ae8383836200334f565b60026001541415620025265760405162461bcd60e51b8152600401620015f39062003fe4565b6002600155336000908152606d60205260409020546001600160a01b0316801562002552578062002554565b815b90506001600160a01b0381166200257e576040516312b96f1360e31b815260040160405180910390fd5b836200259d5760405163e9416d6b60e01b815260040160405180910390fd5b3360009081526081602090815260408083206001600160a01b038716845290915290205484811015620025e357604051630cf5c4d760e21b815260040160405180910390fd5b3360009081526081602090815260408083206001600160a01b038881168552925290912086830390556073546200262191869185918991166200307b565b604080516001600160a01b03848116825286166020820152808201879052336060820181905291517f63b05915120b3d5a231e7c3625a411c15b2a79c35e3b1432a4f1ea95468cc6349181900360800190a2505060018055505050565b604051638596e32b60e01b815273a9a6D04f724BDDD1aca08C925461851E09EfFb3890638596e32b90620012819085908590606c9060040162003eec565b6020828101803560008181526077909352604090922080546001600160a01b0319166001600160a01b0385161790557fd6f882d8fd8cc867bb57db3880bc4ad0b9b84689b57bba1b51feec7be397e3c291906200271a908562003dc0565b6040805192835263ffffffff90911660208301526001600160a01b03841690820152336060820152608001620024bb565b6038805460ff191682151590811790915560006039556040519081527f868d89ead22a5d10f456845ac0014901d9af7203e71cf0892d70d9dc262c2fb9906020016200146b565b6020808301356000908152607b909152604090205460ff1615620027c95760405163519b93a960e11b815260040160405180910390fd5b6020808301356000908152607b82526040808220805460ff191660011790556001600160a01b0384168252607c909252208290620028088282620042c6565b50600090506001600160a01b0382161562002824578162002831565b6073546001600160a01b03165b602084810180356000818152607d909352604090922080546001600160a01b0319166001600160a01b0385161790559192507f42e28d2d3431c24c3f3b6e2623a169bd4a31dd1f66780c4499af54a28632779b9162002891908662003dc0565b6040805192835263ffffffff9190911660208301526001600160a01b038581168383015284166060830152336080830152519081900360a00190a1505050565b6040516339c4831560e01b81526001600160a01b0382166004820152606c602482015273a9a6D04f724BDDD1aca08C925461851E09EfFb38906339c48315906044016200115e565b603380546001600160a01b038381166001600160a01b0319831681179093556000603581905560405191909216929183917f8be0079c531659141344cd1fd0a4f28419497f9722a3daafe3b4186f6b6457e09190a35050565b600054610100900460ff166200299c5760405162461bcd60e51b8152600401620015f390620042f5565b620013686200335e565b600054610100900460ff16620029d05760405162461bcd60e51b8152600401620015f390620042f5565b6200136862003393565b600054610100900460ff1662002a045760405162461bcd60e51b8152600401620015f390620042f5565b62001368620033c3565b8047101562002a605760405162461bcd60e51b815260206004820152601d60248201527f416464726573733a20696e73756666696369656e742062616c616e63650000006044820152606401620015f3565b6000826001600160a01b03168260405160006040518083038185875af1925050503d806000811462002aaf576040519150601f19603f3d011682016040523d82523d6000602084013e62002ab4565b606091505b5050905080620013ae5760405162461bcd60e51b815260206004820152603a60248201527f416464726573733a20756e61626c6520746f2073656e642076616c75652c207260448201527f6563697069656e74206d617920686176652072657665727465640000000000006064820152608401620015f3565b4260398190556040519081527fa78fdca214e4619ef34a695316d423f5b0d8274bc919d29733bf8f92ec8cbb7a906020015b60405180910390a1565b42603555603480546001600160a01b0319166001600160a01b0383169081179091556040517f6ab4d119f23076e8ad491bc65ce85f017fb0591dce08755ba8591059cc51737a90600090a250565b6036805460ff191682151590811790915560006037556040519081527f243ebbb2f905234bbf0556bb38e1f7c23b09ffd2e441a16e58b844eb2ab7a397906020016200146b565b6001600160a01b03811662002c2657604051633156e82b60e01b815260040160405180910390fd5b8262002c455760405163550d20b960e01b815260040160405180910390fd5b6076546000906001600160a01b039081169063f15376869085161562002c6c578462002c79565b6073546001600160a01b03165b6040516001600160e01b031960e084901b1681526001600160a01b0390911660048201526024016040805180830381865afa15801562002cbd573d6000803e3d6000fd5b505050506040513d601f19601f8201168201806040525081019062002ce3919062004340565b91505062002cf0620011cf565b15801562002d1757506001600160a01b0382166000908152606c602052604090205460ff16155b1562002d36576040516312c8158160e31b815260040160405180910390fd5b62002d406200238b565b15801562002d5d57506000818152607b602052604090205460ff16155b1562002d7c5760405163647851ab60e11b815260040160405180910390fd5b60735460405163c2ba762560e01b81526001600160a01b0380861660048301526024820187905290911660448201526000908190735d45B4A30193ba5efB748B19Ae6C5C46aA2DC3fC9063c2ba7625906064016040805180830381865af415801562002dec573d6000803e3d6000fd5b505050506040513d601f19601f8201168201806040525081019062002e12919062003be6565b6001600160a01b03808716600090815260816020908152604080832093861683529290529081208054939550919350839262002e5090849062003ed1565b9091555050604080516001600160a01b03848116825260208201869052918101839052336060820152908516907fc30593c06911f2f2fc32a69df3a28e4a0b116d8d461b47a005ae4d28cd49282b9060800160405180910390a2505050505050565b4260378190556040519081527fa52048c5f468d21a62e4644ac4db19bcaa1a20f0cf37d163ba49c7217d35feb89060200162002b5f565b6000858152607860205260409020541562002f175760405163563e87d360e11b815260040160405180910390fd5b608254819081111562002f3d5760405163e16a4d0360e01b815260040160405180910390fd5b600062002f4b828762003f10565b905060005b8281101562002ff957816081600087878581811062002f735762002f7362003f33565b905060200201602081019062002f8a91906200392b565b6001600160a01b03166001600160a01b031681526020019081526020016000206000886001600160a01b03166001600160a01b03168152602001908152602001600020600082825462002fde919062003de0565b9091555081905062002ff08162003da2565b91505062002f50565b506040518060400160405280858580806020026020016040519081016040528093929190818152602001838360200280828437600092018290525093855250505060209182018990528981526078825260409020825180519192620030649284929091019062003856565b506020820151816001015590505050505050505050565b6001600160a01b038416620030a357604051632b28b36d60e01b815260040160405180910390fd5b806001600160a01b0316846001600160a01b031614156200312c57604051632e1a7d4d60e01b8152600481018390526001600160a01b03821690632e1a7d4d90602401600060405180830381600087803b1580156200310157600080fd5b505af115801562003116573d6000803e3d6000fd5b5050505062003126838362002a0e565b62003139565b62003139848484620033f6565b50505050565b606060018383604051602001620031599392919062004361565b604051602081830303815290604052905092915050565b60008585600081811062003188576200318862003f33565b90506020020160208101906200319f91906200392b565b9050336001600160a01b0382161415620031ba5750620012af565b3360009081526080602052604090205460ff16620031eb57604051630eeb9d7360e41b815260040160405180910390fd5b7341E885C322A7C9a8A4Cf8Bd08d569c7bf48D6428634d6e855e88866040516020016200322892919091825263ffffffff16602082015260400190565b60405160208183030381529060405285856040518463ffffffff1660e01b81526004016200325993929190620043bd565b602060405180830381865af415801562003277573d6000803e3d6000fd5b505050506040513d601f19601f820116820180604052508101906200329d9190620043e7565b6001600160a01b0316816001600160a01b031614620032cf576040516325813bbf60e11b815260040160405180910390fd5b63ffffffff8416620032e25750620012af565b60006064620032f863ffffffff87164862004407565b62003304919062003f10565b6001600160a01b0383166000908152607f60205260408120805492935083929091906200333390849062003de0565b90915550620033459050338262002a0e565b5050505050505050565b620013ae838383606c6200344a565b600054610100900460ff16620033885760405162461bcd60e51b8152600401620015f390620042f5565b620013683362002919565b600054610100900460ff16620033bd5760405162461bcd60e51b8152600401620015f390620042f5565b60018055565b600054610100900460ff16620033ed5760405162461bcd60e51b8152600401620015f390620042f5565b62093a80606b55565b604080516001600160a01b038416602482015260448082018490528251808303909101815260649091019091526020810180516001600160e01b031663a9059cbb60e01b179052620013ae908490620035db565b6001600160a01b0384166200347257604051630487895760e01b815260040160405180910390fd5b6001600160a01b03841660009081526020829052604090205460ff1615620034ad57604051630ef8aa0160e21b815260040160405180910390fd5b6001600160a01b03841660008181526020838152604091829020805460ff1916600117905590513381527fbc68405e644da2aaf25623ce2199da82c6dfd2e1de102b400eba6a091704d4f4910160405180910390a26001600160a01b038316156200356c576001600160a01b03848116600081815260028401602052604080822080546001600160a01b0319169488169485179055519091907fd73892e8827a6025d74a01fca72a8e0d9e2c04080272e728f8861410c7d3c2d1908390a45b6001600160a01b0382161562003139576001600160a01b03848116600081815260018401602052604080822080546001600160a01b0319169487169485179055519091907f31f32ebf07b0ac7fe173f7b7f3f943020d9bdc6dbfbdcdae01bd45ea78d953d7908390a450505050565b600062003632826040518060400160405280602081526020017f5361666545524332303a206c6f772d6c6576656c2063616c6c206661696c6564815250856001600160a01b0316620036b49092919063ffffffff16565b805190915015620013ae578080602001905181019062003653919062004429565b620013ae5760405162461bcd60e51b815260206004820152602a60248201527f5361666545524332303a204552433230206f7065726174696f6e20646964206e6044820152691bdd081cdd58d8d9595960b21b6064820152608401620015f3565b6060620036c58484600085620036cf565b90505b9392505050565b606082471015620037325760405162461bcd60e51b815260206004820152602660248201527f416464726573733a20696e73756666696369656e742062616c616e636520666f6044820152651c8818d85b1b60d21b6064820152608401620015f3565b6001600160a01b0385163b6200378b5760405162461bcd60e51b815260206004820152601d60248201527f416464726573733a2063616c6c20746f206e6f6e2d636f6e74726163740000006044820152606401620015f3565b600080866001600160a01b03168587604051620037a9919062004447565b60006040518083038185875af1925050503d8060008114620037e8576040519150601f19603f3d011682016040523d82523d6000602084013e620037ed565b606091505b5091509150620037ff8282866200380a565b979650505050505050565b606083156200381b575081620036c8565b8251156200382c5782518084602001fd5b8160405162461bcd60e51b8152600401620015f391906200445b565b611605806200447183390190565b828054828255906000526020600020908101928215620038ae579160200282015b82811115620038ae57825182546001600160a01b0319166001600160a01b0390911617825560209092019160019091019062003877565b50620038bc929150620038c0565b5090565b5b80821115620038bc5760008155600101620038c1565b600060208284031215620038ea57600080fd5b813567ffffffffffffffff8111156200390257600080fd5b820160608185031215620036c857600080fd5b6001600160a01b0381168114620014ad57600080fd5b6000602082840312156200393e57600080fd5b8135620036c88162003915565b6000604082840312156200395e57600080fd5b50919050565b600080606083850312156200397857600080fd5b6200398484846200394b565b91506040830135620039968162003915565b809150509250929050565b600060208284031215620039b457600080fd5b5035919050565b60008060408385031215620039cf57600080fd5b8235620039dc8162003915565b91506020830135620039968162003915565b60008060006080848603121562003a0457600080fd5b62003a1085856200394b565b9250604084013562003a228162003915565b9150606084013562003a348162003915565b809150509250925092565b6000806000806080858703121562003a5657600080fd5b84359350602085013562003a6a8162003915565b9250604085013562003a7c8162003915565b9150606085013562003a8e8162003915565b939692955090935050565b6000806040838503121562003aad57600080fd5b823591506020830135620039968162003915565b63ffffffff81168114620014ad57600080fd5b600080600080600060a0868803121562003aed57600080fd5b85359450602086013562003b018162003ac1565b9350604086013562003b138162003915565b9250606086013562003b258162003915565b949793965091946080013592915050565b60008060006060848603121562003b4c57600080fd5b83359250602084013562003b608162003915565b9150604084013562003a348162003915565b60006020828403121562003b8557600080fd5b813567ffffffffffffffff81111562003b9d57600080fd5b82016101008185031215620036c857600080fd5b60008060006060848603121562003bc757600080fd5b833562003bd48162003915565b9250602084013562003b608162003915565b6000806040838503121562003bfa57600080fd5b825162003c078162003915565b6020939093015192949293505050565b6000806040838503121562003c2b57600080fd5b825191506020830151620039968162003915565b60008235607e1983360301811262003c5657600080fd5b9190910192915050565b6000808335601e1984360301811262003c7857600080fd5b830160208101925035905067ffffffffffffffff81111562003c9957600080fd5b80360383131562003ca957600080fd5b9250929050565b81835281816020850137506000828201602090810191909152601f909101601f19169091010190565b8381526001600160a01b03838116602083015260606040830152600090833562003d038162003915565b16606083015262003d18602084018462003c60565b60808085015262003d2e60e08501828462003cb0565b915050604084013562003d418162003ac1565b63ffffffff90811660a085015260608501359062003d5f8262003ac1565b1660c09390930192909252509392505050565b60006020828403121562003d8557600080fd5b5051919050565b634e487b7160e01b600052601160045260246000fd5b600060001982141562003db95762003db962003d8c565b5060010190565b60006020828403121562003dd357600080fd5b8135620036c88162003ac1565b60008282101562003df55762003df562003d8c565b500390565b6000813562003e098162003915565b6001600160a01b0316835262003e23602083018362003c60565b6080602086015262003e3a60808601828462003cb0565b915050604083013562003e4d8162003ac1565b63ffffffff908116604086015260608401359062003e6b8262003ac1565b16606094909401939093525090919050565b60e08152600062003e9260e083018a62003dfa565b6001600160a01b0398891660208401529688166040830152506060810194909452608084019290925260a083015290921660c090920191909152919050565b6000821982111562003ee75762003ee762003d8c565b500190565b6001600160a01b039384168152919092166020820152604081019190915260600190565b60008262003f2e57634e487b7160e01b600052601260045260246000fd5b500490565b634e487b7160e01b600052603260045260246000fd5b600060018060a01b03808816835260208188168185015286604085015260a0606085015260e084018651604060a0870152818151808452610100880191508483019350600092505b8083101562003fb55783518616825292840192600192909201919084019062003f91565b509288015160c087015250506001600160a01b0385166080850152915062003fda9050565b9695505050505050565b6020808252601f908201527f5265656e7472616e637947756172643a207265656e7472616e742063616c6c00604082015260600190565b6000808335601e198436030181126200403357600080fd5b83018035915067ffffffffffffffff8211156200404f57600080fd5b6020019150600581901b360382131562003ca957600080fd5b6000808335601e198436030181126200408057600080fd5b83018035915067ffffffffffffffff8211156200409c57600080fd5b60200191503681900382131562003ca957600080fd5b8183823760009101908152919050565b60005b83811015620040df578181015183820152602001620040c5565b83811115620031395750506000910152565b600081518084526200410b816020860160208601620040c2565b601f01601f19169290920160200192915050565b878152602081018790526001600160a01b0386811660408301528516606082015260c0608082018190526000906200415a90830186620040f1565b82810360a08401526200416f81858762003cb0565b9a9950505050505050505050565b805180151581146200418e57600080fd5b919050565b634e487b7160e01b600052604160045260246000fd5b60008060408385031215620041bd57600080fd5b620041c8836200417d565b9150602083015167ffffffffffffffff80821115620041e657600080fd5b818501915085601f830112620041fb57600080fd5b81518181111562004210576200421062004193565b604051601f8201601f19908116603f011681019083821181831017156200423b576200423b62004193565b816040528281528860208487010111156200425557600080fd5b62004268836020830160208801620040c2565b80955050505050509250929050565b60c0815260006200428c60c083018962003dfa565b6001600160a01b0397881660208401529587166040830152506060810193909352608083019190915290921660a090920191909152919050565b8135620042d38162003ac1565b63ffffffff811663ffffffff1983541617825550602082013560018201555050565b6020808252602b908201527f496e697469616c697a61626c653a20636f6e7472616374206973206e6f74206960408201526a6e697469616c697a696e6760a81b606082015260800190565b600080604083850312156200435457600080fd5b825162003c078162003ac1565b6000600285106200438257634e487b7160e01b600052602160045260246000fd5b5060f89390931b835260e09190911b6001600160e01b031916600183015260601b6bffffffffffffffffffffffff1916600582015260190190565b604081526000620043d26040830186620040f1565b828103602084015262003fda81858762003cb0565b600060208284031215620043fa57600080fd5b8151620036c88162003915565b600081600019048311821515161562004424576200442462003d8c565b500290565b6000602082840312156200443c57600080fd5b620036c8826200417d565b6000825162003c56818460208701620040c2565b602081526000620036c86020830184620040f156fe60e0604052601d60a081905262ffffff1960c090815262000024916000919062000067565b503480156200003257600080fd5b50604051620016053803806200160583398101604081905262000055916200010d565b6001600160a01b03166080526200017c565b82805462000075906200013f565b90600052602060002090601f016020900481019282620000995760008555620000e4565b82601f10620000b457805160ff1916838001178555620000e4565b82800160010185558215620000e4579182015b82811115620000e4578251825591602001919060010190620000c7565b50620000f2929150620000f6565b5090565b5b80821115620000f25760008155600101620000f7565b6000602082840312156200012057600080fd5b81516001600160a01b03811681146200013857600080fd5b9392505050565b600181811c908216806200015457607f821691505b602082108114156200017657634e487b7160e01b600052602260045260246000fd5b50919050565b6080516114676200019e6000396000818160d4015261010701526114676000f3fe60806040526004361061003f5760003560e01c80631e29b440146100445780632b59241f1461006e578063938b5f321461009b578063975740c6146100c5575b600080fd5b610057610052366004611103565b6100f8565b604051610065929190611270565b60405180910390f35b34801561007a57600080fd5b506100836102ef565b6040516001600160a01b039091168152602001610065565b3480156100a757600080fd5b506100b0610396565b60405163ffffffff9091168152602001610065565b3480156100d157600080fd5b507f0000000000000000000000000000000000000000000000000000000000000000610083565b60006060336001600160a01b037f000000000000000000000000000000000000000000000000000000000000000016146101635760405162461bcd60e51b8152602060048201526007602482015266234f433a30323760c81b60448201526064015b60405180910390fd5b6001600160a01b038616158061017e5761017e87898b6103b4565b600060606001600160a01b038a163b6101c55760405162461bcd60e51b81526020600482015260096024820152680858dbdb9d1c9858dd60ba1b604482015260640161015a565b87516101d89060009060208b0190610ffc565b50896001600160a01b0316836101ef5760006101f1565b8b5b888860405161020192919061128b565b60006040518083038185875af1925050503d806000811461023e576040519150601f19603f3d011682016040523d82523d6000602084013e610243565b606091505b5060408051808201909152601d80825262ffffff1960209092019182529294509092506102739160009190610ffc565b5081158015610280575082155b1561029057610290898b8d61049f565b896001600160a01b03168c7f627b4985667a94d1a70c70277b9471eed68009d6f9c3ae5d25fa799fd3f0398d8b8e8c8c8c888a6040516102d6979695949392919061129b565b60405180910390a3909b909a5098505050505050505050565b6000806103856000805461030290611318565b80601f016020809104026020016040519081016040528092919081815260200182805461032e90611318565b801561037b5780601f106103505761010080835404028352916020019161037b565b820191906000526020600020905b81548152906001019060200180831161035e57829003601f168201915b50505050506105b2565b9050610390816105cc565b91505090565b6000806103a96000805461030290611318565b9050610390816105fd565b604051636eb1769f60e11b81523060048201526001600160a01b038381166024830152600091839186169063dd62ed3e90604401602060405180830381865afa158015610405573d6000803e3d6000fd5b505050506040513d601f19601f82011682018060405250810190610429919061134d565b610433919061137c565b6040516001600160a01b03851660248201526044810182905290915061049990859063095ea7b360e01b906064015b60408051601f198184030181529190526020810180516001600160e01b03166001600160e01b03199093169290921790915261061f565b50505050565b604051636eb1769f60e11b81523060048201526001600160a01b0383811660248301526000919085169063dd62ed3e90604401602060405180830381865afa1580156104ef573d6000803e3d6000fd5b505050506040513d601f19601f82011682018060405250810190610513919061134d565b9050818110156105775760405162461bcd60e51b815260206004820152602960248201527f5361666545524332303a2064656372656173656420616c6c6f77616e63652062604482015268656c6f77207a65726f60b81b606482015260840161015a565b6040516001600160a01b038416602482015282820360448201819052906105ab90869063095ea7b360e01b90606401610462565b5050505050565b60006105c66105c183836106f6565b61071a565b92915050565b60008160016105e3815b62ffffff19841690610733565b506105f562ffffff198516600561080c565b949350505050565b600081600161060b816105d6565b506105f562ffffff19851660016004610821565b6000610674826040518060400160405280602081526020017f5361666545524332303a206c6f772d6c6576656c2063616c6c206661696c6564815250856001600160a01b03166108519092919063ffffffff16565b8051909150156106f157808060200190518101906106929190611394565b6106f15760405162461bcd60e51b815260206004820152602a60248201527f5361666545524332303a204552433230206f7065726174696f6e20646964206e6044820152691bdd081cdd58d8d9595960b21b606482015260840161015a565b505050565b81516000906020840161071164ffffffffff85168284610860565b95945050505050565b60006105c6610728836108a4565b62ffffff19166108de565b600061073f8383610939565b61080557600061075e6107528560d81c90565b64ffffffffff1661095c565b91505060006107738464ffffffffff1661095c565b6040517f5479706520617373657274696f6e206661696c65642e20476f7420307800000060208201526001600160b01b031960b086811b8216603d8401526c05c408af0e0cac6e8cac84060f609b1b604784015283901b16605482015290925060009150605e0160405160208183030381529060405290508060405162461bcd60e51b815260040161015a91906113b6565b5090919050565b600061081a83836014610821565b9392505050565b600061082e8260206113c9565b6108399060086113ec565b60ff16610847858585610a0a565b901c949350505050565b60606105f58484600085610b63565b60008061086d838561137c565b905060405181111561087d575060005b8061088f5762ffffff1991505061081a565b5050606092831b9190911790911b1760181b90565b60006001600160601b03601883901c16601914156108d4576301000000600160d81b038216600160d81b176105c6565b62ffffff196105c6565b60006108e982610c94565b6109355760405162461bcd60e51b815260206004820152601960248201527f56616c696469747920617373657274696f6e206661696c656400000000000000604482015260640161015a565b5090565b60008164ffffffffff1661094d8460d81c90565b64ffffffffff16149392505050565b600080601f5b600f8160ff1611156109b157600061097b8260086113ec565b60ff1685901c905061098c81610cd2565b61ffff16841793508160ff166010146109a757601084901b93505b5060001901610962565b50600f5b60ff8160ff161015610a045760006109ce8260086113ec565b60ff1685901c90506109df81610cd2565b61ffff16831792508160ff166000146109fa57601083901b92505b50600019016109b5565b50915091565b600060ff8216610a1c5750600061081a565b610a2f8460181c6001600160601b031690565b6001600160601b0316610a4560ff84168561137c565b1115610aa957610a90610a618560781c6001600160601b031690565b6001600160601b0316610a7d8660181c6001600160601b031690565b6001600160601b0316858560ff16610d04565b60405162461bcd60e51b815260040161015a91906113b6565b60208260ff161115610b235760405162461bcd60e51b815260206004820152603a60248201527f54797065644d656d566965772f696e646578202d20417474656d70746564207460448201527f6f20696e646578206d6f7265207468616e203332206279746573000000000000606482015260840161015a565b600882026000610b3c8660781c6001600160601b031690565b6001600160601b031690506000600160ff1b60001984011d91909501511695945050505050565b606082471015610bc45760405162461bcd60e51b815260206004820152602660248201527f416464726573733a20696e73756666696369656e742062616c616e636520666f6044820152651c8818d85b1b60d21b606482015260840161015a565b6001600160a01b0385163b610c1b5760405162461bcd60e51b815260206004820152601d60248201527f416464726573733a2063616c6c20746f206e6f6e2d636f6e7472616374000000604482015260640161015a565b600080866001600160a01b03168587604051610c379190611415565b60006040518083038185875af1925050503d8060008114610c74576040519150601f19603f3d011682016040523d82523d6000602084013e610c79565b606091505b5091509150610c89828286610e2e565b979650505050505050565b6000610ca08260d81c90565b64ffffffffff1664ffffffffff1415610cbb57506000919050565b6000610cc683610e67565b60405110199392505050565b6000610ce460048360ff16901c610ea0565b60ff1661ffff919091161760081b610cfb82610ea0565b60ff1617919050565b60606000610d118661095c565b9150506000610d1f8661095c565b9150506000610d2d8661095c565b9150506000610d3b8661095c565b604080517f54797065644d656d566965772f696e646578202d204f76657272616e20746865602082015274040ecd2caee5c40a6d8d2c6ca40d2e640c2e84060f605b1b818301526001600160d01b031960d098891b811660558301526e040eed2e8d040d8cadccee8d04060f608b1b605b830181905297891b8116606a8301527f2e20417474656d7074656420746f20696e646578206174206f666673657420306070830152600f60fb1b609083015295881b861660918201526097810196909652951b90921660a68401525050601760f91b60ac8201528151808203608d01815260ad90910190915295945050505050565b60608315610e3d57508161081a565b825115610e4d5782518084602001fd5b8160405162461bcd60e51b815260040161015a91906113b6565b6000610e7c8260181c6001600160601b031690565b610e8f8360781c6001600160601b031690565b016001600160601b03169050919050565b600060f08083179060ff82161415610ebb5750603092915050565b8060ff1660f11415610ed05750603192915050565b8060ff1660f21415610ee55750603292915050565b8060ff1660f31415610efa5750603392915050565b8060ff1660f41415610f0f5750603492915050565b8060ff1660f51415610f245750603592915050565b8060ff1660f61415610f395750603692915050565b8060ff1660f71415610f4e5750603792915050565b8060ff1660f81415610f635750603892915050565b8060ff1660f91415610f785750603992915050565b8060ff1660fa1415610f8d5750606192915050565b8060ff1660fb1415610fa25750606292915050565b8060ff1660fc1415610fb75750606392915050565b8060ff1660fd1415610fcc5750606492915050565b8060ff1660fe1415610fe15750606592915050565b8060ff1660ff1415610ff65750606692915050565b50919050565b82805461100890611318565b90600052602060002090601f01602090048101928261102a5760008555611070565b82601f1061104357805160ff1916838001178555611070565b82800160010185558215611070579182015b82811115611070578251825591602001919060010190611055565b506109359291505b808211156109355760008155600101611078565b6001600160a01b03811681146110a157600080fd5b50565b634e487b7160e01b600052604160045260246000fd5b60008083601f8401126110cc57600080fd5b50813567ffffffffffffffff8111156110e457600080fd5b6020830191508360208285010111156110fc57600080fd5b9250929050565b600080600080600080600060c0888a03121561111e57600080fd5b873596506020880135955060408801356111378161108c565b945060608801356111478161108c565b9350608088013567ffffffffffffffff8082111561116457600080fd5b818a0191508a601f83011261117857600080fd5b81358181111561118a5761118a6110a4565b604051601f8201601f19908116603f011681019083821181831017156111b2576111b26110a4565b816040528281528d60208487010111156111cb57600080fd5b8260208601602083013760006020848301015280975050505060a08a01359150808211156111f857600080fd5b506112058a828b016110ba565b989b979a50959850939692959293505050565b60005b8381101561123357818101518382015260200161121b565b838111156104995750506000910152565b6000815180845261125c816020860160208601611218565b601f01601f19169290920160200192915050565b82151581526040602082015260006105f56040830184611244565b8183823760009101908152919050565b60018060a01b038816815286602082015260c0604082015260006112c260c0830188611244565b828103606084015285815285876020830137600060208783010152601f19601f8701168101905060208382030160808401526113016020820186611244565b91505082151560a083015298975050505050505050565b600181811c9082168061132c57607f821691505b60208210811415610ff657634e487b7160e01b600052602260045260246000fd5b60006020828403121561135f57600080fd5b5051919050565b634e487b7160e01b600052601160045260246000fd5b6000821982111561138f5761138f611366565b500190565b6000602082840312156113a657600080fd5b8151801515811461081a57600080fd5b60208152600061081a6020830184611244565b600060ff821660ff8416808210156113e3576113e3611366565b90039392505050565b600060ff821660ff84168160ff048111821515161561140d5761140d611366565b029392505050565b60008251611427818460208701611218565b919091019291505056fea2646970667358221220cf99f1e51cad9594d66ba9ebc40248a29d4e0b4207c330460e78f292f23ffbec64736f6c634300080b0033a26469706673582212203a2c2e5534b2ec344704b23de560ed1cd38e014efc2eb0e380dd25d37ff3200064736f6c634300080b0033",
  "deployedBytecode": "0x608060405260043610620003cf5760003560e01c80638741eac511620001f7578063c34c08e51162000117578063e070da0911620000ad578063ea7a904d1162000078578063ea7a904d1462000c20578063eb492f441462000c45578063f31abcc41462000c6a578063ffaf3f1a1462000c8f57600080fd5b8063e070da091462000bb4578063e47602f71462000bcb578063e886e29a1462000be3578063e8be0dfc1462000c0857600080fd5b8063d1851c9211620000ee578063d1851c921462000b11578063d232c2201462000b31578063d57f088b1462000b52578063dd39f00d1462000b8f57600080fd5b8063c34c08e51462000ac0578063c5b350df1462000ae2578063c95f9d0e1462000afa57600080fd5b8063affed0e0116200018d578063c0c17baf1162000164578063c0c17baf1462000a48578063c1a049591462000a60578063c26c9c0a1462000a77578063c2fb26a61462000aa857600080fd5b8063affed0e014620009d1578063b1f8100d14620009e9578063bd7e1e2e1462000a0e57600080fd5b80639bf6d87511620001ce5780639bf6d87514620009385780639d127e5114620009505780639d23c4c7146200098d578063ac210cc714620009af57600080fd5b80638741eac514620008cc5780638cba8b6a14620008e45780638da5cb5b146200091857600080fd5b806357bd0a3211620002ef578063715018a611620002855780637ebfe70f11620002505780637ebfe70f14620007ee578063806474de146200082857806382904716146200087657806383c68876146200089b57600080fd5b8063715018a61462000775578063754d1d54146200078d5780637b298e2714620007b25780637b9c1a0114620007d757600080fd5b80636a41633a11620002c65780636a41633a14620006e45780636a42b8f814620006fb5780636ae0b15414620007135780636f2335ea146200073857600080fd5b806357bd0a32146200062d57806360062091146200066157806360f0a5ac14620006bf57600080fd5b80632c1999d0116200036557806341258b5c116200033c57806341258b5c146200056d57806341af5b5214620005a9578063445b1e4b14620005cb578063569d29e4146200060857600080fd5b80632c1999d014620004eb5780633855b467146200053e5780633cf52ffb146200055657600080fd5b80631a8bc0e111620003a65780631a8bc0e114620004525780632004ef4514620004865780632077490914620004af57806322a3c00714620004c657600080fd5b8063023ae73a14620003dc57806309935b8f14620004065780631506e463146200042d57600080fd5b36620003d757005b600080fd5b620003f3620003ed366004620038d7565b62000cb4565b6040519081526020015b60405180910390f35b3480156200041357600080fd5b506200042b620004253660046200392b565b62001110565b005b3480156200043a57600080fd5b506200042b6200044c36600462003964565b62001193565b3480156200045f57600080fd5b50620003f362000471366004620039a1565b60786020526000908152604090206001015481565b3480156200049357600080fd5b506200049e620011cf565b6040519015158152602001620003fd565b6200042b620004c03660046200392b565b620011f2565b348015620004d357600080fd5b506200042b620004e5366004620039bb565b62001243565b348015620004f857600080fd5b50620005256200050a366004620039a1565b607d602052600090815260409020546001600160a01b031681565b6040516001600160a01b039091168152602001620003fd565b3480156200054b57600080fd5b506200042b620012b7565b3480156200056357600080fd5b50603554620003f3565b3480156200057a57600080fd5b50620003f36200058c366004620039bb565b608160209081526000928352604080842090915290825290205481565b348015620005b657600080fd5b5060725462000525906001600160a01b031681565b348015620005d857600080fd5b506200049e620005ea3660046200392b565b6001600160a01b03166000908152606c602052604090205460ff1690565b3480156200061557600080fd5b506200042b62000627366004620039ee565b6200136a565b3480156200063a57600080fd5b506200049e6200064c366004620039a1565b607b6020526000908152604090205460ff1681565b3480156200066e57600080fd5b50620006a2620006803660046200392b565b607c602052600090815260409020805460019091015463ffffffff9091169082565b6040805163ffffffff9093168352602083019190915201620003fd565b348015620006cc57600080fd5b506200042b620006de3660046200392b565b620013b3565b348015620006f157600080fd5b50603954620003f3565b3480156200070857600080fd5b5062093a80620003f3565b3480156200072057600080fd5b506200042b620007323660046200392b565b62001476565b3480156200074557600080fd5b5062000525620007573660046200392b565b6001600160a01b039081166000908152606d60205260409020541690565b3480156200078257600080fd5b506200042b620014b0565b3480156200079a57600080fd5b506200042b620007ac36600462003a3f565b62001572565b348015620007bf57600080fd5b506200042b620007d136600462003a99565b6200171d565b6200042b620007e836600462003ad4565b62001750565b348015620007fb57600080fd5b50620003f36200080d3660046200392b565b6001600160a01b031660009081526070602052604090205490565b3480156200083557600080fd5b506200086062000847366004620039a1565b6079602052600090815260409020805460019091015482565b60408051928352602083019190915201620003fd565b3480156200088357600080fd5b506200042b62000895366004620039a1565b620019a9565b348015620008a857600080fd5b50620003f3620008ba3660046200392b565b607f6020526000908152604090205481565b348015620008d957600080fd5b506200042b62001a32565b348015620008f157600080fd5b506200049e620009033660046200392b565b60806020526000908152604090205460ff1681565b3480156200092557600080fd5b506033546001600160a01b031662000525565b3480156200094557600080fd5b50620003f360825481565b3480156200095d57600080fd5b50620005256200096f3660046200392b565b6001600160a01b039081166000908152606f60205260409020541690565b3480156200099a57600080fd5b5060765462000525906001600160a01b031681565b348015620009bc57600080fd5b5060735462000525906001600160a01b031681565b348015620009de57600080fd5b50620003f360745481565b348015620009f657600080fd5b506200042b62000a083660046200392b565b62001a8d565b34801562000a1b57600080fd5b506200052562000a2d366004620039a1565b6077602052600090815260409020546001600160a01b031681565b34801562000a5557600080fd5b506200042b62001b39565b34801562000a6d57600080fd5b50603754620003f3565b34801562000a8457600080fd5b50620003f362000a96366004620039a1565b607e6020526000908152604090205481565b34801562000ab557600080fd5b50620003f3607a5481565b34801562000acd57600080fd5b5060755462000525906001600160a01b031681565b34801562000aef57600080fd5b506200042b62001bea565b6200042b62000b0b36600462003a99565b62001c7c565b34801562000b1e57600080fd5b506034546001600160a01b031662000525565b34801562000b3e57600080fd5b506033546001600160a01b0316156200049e565b34801562000b5f57600080fd5b506200052562000b713660046200392b565b6001600160a01b039081166000908152606e60205260409020541690565b34801562000b9c57600080fd5b506200042b62000bae3660046200392b565b62001cbc565b6200042b62000bc536600462003b36565b62001d7d565b34801562000bd857600080fd5b506200042b62001dbe565b34801562000bf057600080fd5b50620003f362000c0236600462003b72565b62001e19565b34801562000c1557600080fd5b506200049e6200238b565b34801562000c2d57600080fd5b506200042b62000c3f36600462003a99565b620023ac565b34801562000c5257600080fd5b506200042b62000c6436600462003bb1565b620024c7565b34801562000c7757600080fd5b506200042b62000c8936600462003b36565b62002500565b34801562000c9c57600080fd5b506200042b62000cae366004620039bb565b6200267e565b600080607c818062000ccd60408701602088016200392b565b6001600160a01b03161462000cf45762000cee60408601602087016200392b565b62000d01565b6073546001600160a01b03165b6001600160a01b03166001600160a01b0316815260200190815260200160002060010154141562000d4557604051634edd41eb60e11b815260040160405180910390fd5b60008073__$b23150ba64566a7fb579e8b64fd3df6d89$__63c2ba762562000d7460408701602088016200392b565b6073546040805160e085901b6001600160e01b03191681526001600160a01b039384166004820152908901356024820152911660448201526064016040805180830381865af415801562000dcc573d6000803e3d6000fd5b505050506040513d601f19601f8201168201806040525081019062000df2919062003be6565b6001600160a01b038281166000818152607c6020908152604080832081518083018352815463ffffffff9081168252600190920154818501818152908652607790945282852054607654935163c78e2b4160e01b81528251909316600484015293516024830152928616604482015294166064850152608484019290925260a48301849052939550919350909190819073__$3a1b7476c6d543c750592c2db81c1c77e9$__9063c78e2b419060c4016040805180830381865af415801562000ebe573d6000803e3d6000fd5b505050506040513d601f19601f8201168201806040525081019062000ee4919062003c17565b607454919350915060009073__$3a1b7476c6d543c750592c2db81c1c77e9$__906374abed0f903362000f188c8062003c3f565b6040518463ffffffff1660e01b815260040162000f389392919062003cd9565b602060405180830381865af415801562000f56573d6000803e3d6000fd5b505050506040513d601f19601f8201168201806040525081019062000f7c919062003d72565b60748054919250600062000f908362003da2565b909155505060725473__$3a1b7476c6d543c750592c2db81c1c77e9$__9063df1ddc75906001600160a01b031662000fc98b8062003c3f565b62000fdc90608081019060600162003dc0565b62000fe88c8062003c3f565b62000ff89060208101906200392b565b6040516001600160e01b031960e086901b1681526001600160a01b03938416600482015263ffffffff9290921660248301528216604482015290851660648201526084810186905260a4810184905260c40160006040518083038186803b1580156200106357600080fd5b505af415801562001078573d6000803e3d6000fd5b506200108b92508a915081905062003c3f565b6200109b9060208101906200392b565b6001600160a01b0316817f023e565b14eb42ff84b14f9c07ae846f5234b3a596e8e01ea2a0573e28d1d808620010d28b8062003c3f565b89868a896001607454620010e7919062003de0565b33604051620010fd979695949392919062003e7d565b60405180910390a3979650505050505050565b606b54604051630d183f5b60e31b81526001600160a01b03831660048201526024810191909152606c604482015273__$75c29036ac1bef2befe7a7f1afa513e8fd$__906368c1fad8906064015b60006040518083038186803b1580156200117757600080fd5b505af41580156200118c573d6000803e3d6000fd5b5050505050565b6033546001600160a01b03163314620011bf57604051630cd5bd6f60e21b815260040160405180910390fd5b620011cb8282620026bc565b5050565b6033546000906001600160a01b03161580620011ed575060365460ff165b905090565b346200121157604051630841bfc160e11b815260040160405180910390fd5b6001600160a01b0381166000908152607f6020526040812080543492906200123b90849062003ed1565b909155505050565b60405163dc26fe0f60e01b815273__$75c29036ac1bef2befe7a7f1afa513e8fd$__9063dc26fe0f90620012819085908590606c9060040162003eec565b60006040518083038186803b1580156200129a57600080fd5b505af4158015620012af573d6000803e3d6000fd5b505050505050565b6033546001600160a01b03163314620012e357604051630cd5bd6f60e21b815260040160405180910390fd5b60385460ff16156200130857604051634e3d8db760e11b815260040160405180910390fd5b6039546200132957604051631c2ed13b60e01b815260040160405180910390fd5b62093a80603954426200133d919062003de0565b116200135c57604051635aeaa22f60e11b815260040160405180910390fd5b6200136860016200274b565b565b6033546001600160a01b031633146200139657604051630cd5bd6f60e21b815260040160405180910390fd5b620013a2838362002792565b620013ae8382620026bc565b505050565b6033546001600160a01b03163314620013df57604051630cd5bd6f60e21b815260040160405180910390fd5b6001600160a01b03811660009081526080602052604090205460ff1662001419576040516388c915d360e01b815260040160405180910390fd5b6001600160a01b038116600081815260806020908152604091829020805460ff19169055815192835233908301527f0bdcf1d6f29aa87af8131cc81dcbb295fcf98d71cfcdc79cc5d965317bae1d0a91015b60405180910390a150565b6033546001600160a01b03163314620014a257604051630cd5bd6f60e21b815260040160405180910390fd5b620014ad81620028d1565b50565b6033546001600160a01b03163314620014dc57604051630cd5bd6f60e21b815260040160405180910390fd5b603554620014fd57604051632a2d7bdb60e11b815260040160405180910390fd5b62093a806035544262001511919062003de0565b11620015305760405163136ae5ad60e01b815260040160405180910390fd5b6034546001600160a01b0316156200155b576040516301a8692360e11b815260040160405180910390fd5b60345462001368906001600160a01b031662002919565b600054610100900460ff166200158f5760005460ff161562001593565b303b155b620015fc5760405162461bcd60e51b815260206004820152602e60248201527f496e697469616c697a61626c653a20636f6e747261637420697320616c72656160448201526d191e481a5b9a5d1a585b1a5e995960921b60648201526084015b60405180910390fd5b600054610100900460ff161580156200161f576000805461ffff19166101011790555b6200162962002972565b62001633620029a6565b6200163d620029da565b6000607455607a859055607280546001600160a01b0319166001600160a01b0386161790556040513090620016729062003848565b6001600160a01b039091168152602001604051809103906000f0801580156200169f573d6000803e3d6000fd5b50607580546001600160a01b03199081166001600160a01b0393841617909155607680548216868416179055607380549091169184169190911790557fc5d2460186f7233c927e7db2dcc703c0e500b653ca82273b7bfad8045d85a470607155600560825580156200118c576000805461ff00191690555050505050565b336000908152607f6020526040812080548492906200173e90849062003de0565b90915550620011cb9050818362002a0e565b6072546001600160a01b031633146200177c57604051635282101360e01b815260040160405180910390fd5b6000858152607860209081526040808320815181546060948102820185018452928101838152909391928492849190840182828015620017e657602002820191906000526020600020905b81546001600160a01b03168152600190910190602001808311620017c7575b50505050508152602001600182015481525050905080600001515160001415620018a057604051632c91b38b60e11b815273__$3a1b7476c6d543c750592c2db81c1c77e9$__90635923671690620018479087908790879060040162003eec565b602060405180830381865af415801562001865573d6000803e3d6000fd5b505050506040513d601f19601f820116820180604052508101906200188b919062003d72565b6000878152607e602052604090205562001958565b8051516000620018b1828562003f10565b905060005b828110156200195457816081600086600001518481518110620018dd57620018dd62003f33565b60200260200101516001600160a01b03166001600160a01b031681526020019081526020016000206000896001600160a01b03166001600160a01b03168152602001908152602001600020600082825462001939919062003ed1565b909155508190506200194b8162003da2565b915050620018b6565b5050505b8463ffffffff16867f945e4332ea59a3268632d66866bfa824dfd80dbea80edd1ae5d8ab276b80b15085878686336040516200199995949392919062003f49565b60405180910390a3505050505050565b6033546001600160a01b03163314620019d557604051630cd5bd6f60e21b815260040160405180910390fd5b60008111620019f75760405163b6a4e9d360e01b815260040160405180910390fd5b6082819055604080518281523360208201527fa7fe33308fb33ae6f3259e3c7c954ae3d6cd7f428cd17f653413c2cdc691666d91016200146b565b6033546001600160a01b0316331462001a5e57604051630cd5bd6f60e21b815260040160405180910390fd5b60385460ff161562001a835760405163382242c360e01b815260040160405180910390fd5b6200136862002b2d565b6033546001600160a01b0316331462001ab957604051630cd5bd6f60e21b815260040160405180910390fd5b6034546001600160a01b03828116911614801562001adf57506001600160a01b03811615155b1562001afe57604051635334dcf560e01b815260040160405180910390fd5b6033546001600160a01b038281169116141562001b2e576040516304d9ae9160e21b815260040160405180910390fd5b620014ad8162002b69565b6033546001600160a01b0316331462001b6557604051630cd5bd6f60e21b815260040160405180910390fd5b60365460ff161562001b8a5760405163cd0cbe2b60e01b815260040160405180910390fd5b60375462001bab57604051636da7f42560e01b815260040160405180910390fd5b62093a806037544262001bbf919062003de0565b1162001bde5760405163288a062560e21b815260040160405180910390fd5b62001368600162002bb7565b6034546001600160a01b0316331462001c16576040516340a61e4d60e01b815260040160405180910390fd5b6034546033546001600160a01b039081169116141562001c49576040516315cb454d60e21b815260040160405180910390fd5b62093a806035544262001c5d919062003de0565b116200155b5760405163970af82d60e01b815260040160405180910390fd5b6002600154141562001ca25760405162461bcd60e51b8152600401620015f39062003fe4565b600260015562001cb482823362002bfe565b505060018055565b6033546001600160a01b0316331462001ce857604051630cd5bd6f60e21b815260040160405180910390fd5b6001600160a01b03811660009081526080602052604090205460ff161562001d23576040516344c1e5a160e11b815260040160405180910390fd5b6001600160a01b038116600081815260806020908152604091829020805460ff19166001179055815192835233908301527fd756b9aee10d6f2c80dc42c5031beb0e0847f6e1d6ba50199bdfc3f0de5cc0cc91016200146b565b6002600154141562001da35760405162461bcd60e51b8152600401620015f39062003fe4565b600260015562001db583838362002bfe565b50506001805550565b6033546001600160a01b0316331462001dea57604051630cd5bd6f60e21b815260040160405180910390fd5b60365460ff161562001e0f5760405163b1134ca960e01b815260040160405180910390fd5b6200136862002eb2565b6000805a9050600073__$3a1b7476c6d543c750592c2db81c1c77e9$__6374abed0f60a086013562001e53610100880160e089016200392b565b62001e5f888062003c3f565b6040518463ffffffff1660e01b815260040162001e7f9392919062003cd9565b602060405180830381865af415801562001e9d573d6000803e3d6000fd5b505050506040513d601f19601f8201168201806040525081019062001ec3919062003d72565b6000818152607e60205260409020549091508015801562001f155762001f0f83608088013562001efa60408a0160208b016200392b565b62001f0960408b018b6200401b565b62002ee9565b62001fe6565b73__$3a1b7476c6d543c750592c2db81c1c77e9$__635923671662001f416040890160208a016200392b565b62001f4d898062003c3f565b62001f5d9060208101906200392b565b89608001356040518463ffffffff1660e01b815260040162001f829392919062003eec565b602060405180830381865af415801562001fa0573d6000803e3d6000fd5b505050506040513d601f19601f8201168201806040525081019062001fc6919062003d72565b821462001fe65760405163df03e27d60e01b815260040160405180910390fd5b607654600090819073__$3a1b7476c6d543c750592c2db81c1c77e9$__9063eee03d8d90607d906077906001600160a01b03166200202b60408e0160208f016200392b565b6040516001600160e01b031960e087901b168152600481019490945260248401929092526001600160a01b03908116604484015216606482015260808b0135608482015260a4016040805180830381865af41580156200208f573d6000803e3d6000fd5b505050506040513d601f19601f82011682018060405250810190620020b5919062003c17565b6071549193509150620020c9898062003c3f565b620020d990602081019062004068565b604051620020e9929190620040b2565b6040518091039020141562002133576200212d81620021098a8062003c3f565b620021199060208101906200392b565b60735485906001600160a01b03166200307b565b62002277565b607554607354620021559183916001600160a01b03918216918691166200307b565b6075546001600160a01b0316631e29b4408684620021748c8062003c3f565b620021849060208101906200392b565b8588620021cf57620021c96200219b8f8062003c3f565b620021ae90606081019060400162003dc0565b8f60e0016020810190620021c391906200392b565b6200313f565b620021ea565b6040518060400160405280601d815260200162ffffff198152505b620021f68f8062003c3f565b6200220690602081019062004068565b6040518863ffffffff1660e01b81526004016200222a97969594939291906200411f565b6000604051808303816000875af11580156200224a573d6000803e3d6000fd5b505050506040513d6000823e601f3d908101601f19168201604052620022749190810190620041a9565b50505b8215620022ba5760405180604001604052805a62002296908962003de0565b81523a60209182015260008781526079825260409020825181559101516001909101555b620022f585620022ce60408b018b6200401b565b620022e060808d0160608e0162003dc0565b620022ef60c08e018e62004068565b62003170565b3362002302898062003c3f565b620023129060208101906200392b565b6001600160a01b0316867f3d5b9d96144cef95ba201c4dbd1f875f6dd32edc9d8813056dea706bf52fc10a620023498c8062003c3f565b6200235b60408e0160208f016200392b565b868e608001358933604051620023779695949392919062004277565b60405180910390a450929695505050505050565b6033546000906001600160a01b03161580620011ed57505060385460ff1690565b6033546001600160a01b03163314620023d857604051630cd5bd6f60e21b815260040160405180910390fd5b6000828152607b602052604090205460ff16620024085760405163323b090f60e11b815260040160405180910390fd5b6000828152607b60209081526040808320805460ff191690556077909152812080546001600160a01b0319169055607c906001600160a01b038316156200245057826200245d565b6073546001600160a01b03165b6001600160a01b0316815260208082019290925260409081016000908120805463ffffffff1916815560010155805184815233928101929092527f9d181adb70e733f5235f839c1eed929407ea8526e41d01f49b9fef703e78dddf91015b60405180910390a15050565b6033546001600160a01b03163314620024f357604051630cd5bd6f60e21b815260040160405180910390fd5b620013ae8383836200334f565b60026001541415620025265760405162461bcd60e51b8152600401620015f39062003fe4565b6002600155336000908152606d60205260409020546001600160a01b0316801562002552578062002554565b815b90506001600160a01b0381166200257e576040516312b96f1360e31b815260040160405180910390fd5b836200259d5760405163e9416d6b60e01b815260040160405180910390fd5b3360009081526081602090815260408083206001600160a01b038716845290915290205484811015620025e357604051630cf5c4d760e21b815260040160405180910390fd5b3360009081526081602090815260408083206001600160a01b038881168552925290912086830390556073546200262191869185918991166200307b565b604080516001600160a01b03848116825286166020820152808201879052336060820181905291517f63b05915120b3d5a231e7c3625a411c15b2a79c35e3b1432a4f1ea95468cc6349181900360800190a2505060018055505050565b604051638596e32b60e01b815273__$75c29036ac1bef2befe7a7f1afa513e8fd$__90638596e32b90620012819085908590606c9060040162003eec565b6020828101803560008181526077909352604090922080546001600160a01b0319166001600160a01b0385161790557fd6f882d8fd8cc867bb57db3880bc4ad0b9b84689b57bba1b51feec7be397e3c291906200271a908562003dc0565b6040805192835263ffffffff90911660208301526001600160a01b03841690820152336060820152608001620024bb565b6038805460ff191682151590811790915560006039556040519081527f868d89ead22a5d10f456845ac0014901d9af7203e71cf0892d70d9dc262c2fb9906020016200146b565b6020808301356000908152607b909152604090205460ff1615620027c95760405163519b93a960e11b815260040160405180910390fd5b6020808301356000908152607b82526040808220805460ff191660011790556001600160a01b0384168252607c909252208290620028088282620042c6565b50600090506001600160a01b0382161562002824578162002831565b6073546001600160a01b03165b602084810180356000818152607d909352604090922080546001600160a01b0319166001600160a01b0385161790559192507f42e28d2d3431c24c3f3b6e2623a169bd4a31dd1f66780c4499af54a28632779b9162002891908662003dc0565b6040805192835263ffffffff9190911660208301526001600160a01b038581168383015284166060830152336080830152519081900360a00190a1505050565b6040516339c4831560e01b81526001600160a01b0382166004820152606c602482015273__$75c29036ac1bef2befe7a7f1afa513e8fd$__906339c48315906044016200115e565b603380546001600160a01b038381166001600160a01b0319831681179093556000603581905560405191909216929183917f8be0079c531659141344cd1fd0a4f28419497f9722a3daafe3b4186f6b6457e09190a35050565b600054610100900460ff166200299c5760405162461bcd60e51b8152600401620015f390620042f5565b620013686200335e565b600054610100900460ff16620029d05760405162461bcd60e51b8152600401620015f390620042f5565b6200136862003393565b600054610100900460ff1662002a045760405162461bcd60e51b8152600401620015f390620042f5565b62001368620033c3565b8047101562002a605760405162461bcd60e51b815260206004820152601d60248201527f416464726573733a20696e73756666696369656e742062616c616e63650000006044820152606401620015f3565b6000826001600160a01b03168260405160006040518083038185875af1925050503d806000811462002aaf576040519150601f19603f3d011682016040523d82523d6000602084013e62002ab4565b606091505b5050905080620013ae5760405162461bcd60e51b815260206004820152603a60248201527f416464726573733a20756e61626c6520746f2073656e642076616c75652c207260448201527f6563697069656e74206d617920686176652072657665727465640000000000006064820152608401620015f3565b4260398190556040519081527fa78fdca214e4619ef34a695316d423f5b0d8274bc919d29733bf8f92ec8cbb7a906020015b60405180910390a1565b42603555603480546001600160a01b0319166001600160a01b0383169081179091556040517f6ab4d119f23076e8ad491bc65ce85f017fb0591dce08755ba8591059cc51737a90600090a250565b6036805460ff191682151590811790915560006037556040519081527f243ebbb2f905234bbf0556bb38e1f7c23b09ffd2e441a16e58b844eb2ab7a397906020016200146b565b6001600160a01b03811662002c2657604051633156e82b60e01b815260040160405180910390fd5b8262002c455760405163550d20b960e01b815260040160405180910390fd5b6076546000906001600160a01b039081169063f15376869085161562002c6c578462002c79565b6073546001600160a01b03165b6040516001600160e01b031960e084901b1681526001600160a01b0390911660048201526024016040805180830381865afa15801562002cbd573d6000803e3d6000fd5b505050506040513d601f19601f8201168201806040525081019062002ce3919062004340565b91505062002cf0620011cf565b15801562002d1757506001600160a01b0382166000908152606c602052604090205460ff16155b1562002d36576040516312c8158160e31b815260040160405180910390fd5b62002d406200238b565b15801562002d5d57506000818152607b602052604090205460ff16155b1562002d7c5760405163647851ab60e11b815260040160405180910390fd5b60735460405163c2ba762560e01b81526001600160a01b038086166004830152602482018790529091166044820152600090819073__$b23150ba64566a7fb579e8b64fd3df6d89$__9063c2ba7625906064016040805180830381865af415801562002dec573d6000803e3d6000fd5b505050506040513d601f19601f8201168201806040525081019062002e12919062003be6565b6001600160a01b03808716600090815260816020908152604080832093861683529290529081208054939550919350839262002e5090849062003ed1565b9091555050604080516001600160a01b03848116825260208201869052918101839052336060820152908516907fc30593c06911f2f2fc32a69df3a28e4a0b116d8d461b47a005ae4d28cd49282b9060800160405180910390a2505050505050565b4260378190556040519081527fa52048c5f468d21a62e4644ac4db19bcaa1a20f0cf37d163ba49c7217d35feb89060200162002b5f565b6000858152607860205260409020541562002f175760405163563e87d360e11b815260040160405180910390fd5b608254819081111562002f3d5760405163e16a4d0360e01b815260040160405180910390fd5b600062002f4b828762003f10565b905060005b8281101562002ff957816081600087878581811062002f735762002f7362003f33565b905060200201602081019062002f8a91906200392b565b6001600160a01b03166001600160a01b031681526020019081526020016000206000886001600160a01b03166001600160a01b03168152602001908152602001600020600082825462002fde919062003de0565b9091555081905062002ff08162003da2565b91505062002f50565b506040518060400160405280858580806020026020016040519081016040528093929190818152602001838360200280828437600092018290525093855250505060209182018990528981526078825260409020825180519192620030649284929091019062003856565b506020820151816001015590505050505050505050565b6001600160a01b038416620030a357604051632b28b36d60e01b815260040160405180910390fd5b806001600160a01b0316846001600160a01b031614156200312c57604051632e1a7d4d60e01b8152600481018390526001600160a01b03821690632e1a7d4d90602401600060405180830381600087803b1580156200310157600080fd5b505af115801562003116573d6000803e3d6000fd5b5050505062003126838362002a0e565b62003139565b62003139848484620033f6565b50505050565b606060018383604051602001620031599392919062004361565b604051602081830303815290604052905092915050565b60008585600081811062003188576200318862003f33565b90506020020160208101906200319f91906200392b565b9050336001600160a01b0382161415620031ba5750620012af565b3360009081526080602052604090205460ff16620031eb57604051630eeb9d7360e41b815260040160405180910390fd5b73__$3a1b7476c6d543c750592c2db81c1c77e9$__634d6e855e88866040516020016200322892919091825263ffffffff16602082015260400190565b60405160208183030381529060405285856040518463ffffffff1660e01b81526004016200325993929190620043bd565b602060405180830381865af415801562003277573d6000803e3d6000fd5b505050506040513d601f19601f820116820180604052508101906200329d9190620043e7565b6001600160a01b0316816001600160a01b031614620032cf576040516325813bbf60e11b815260040160405180910390fd5b63ffffffff8416620032e25750620012af565b60006064620032f863ffffffff87164862004407565b62003304919062003f10565b6001600160a01b0383166000908152607f60205260408120805492935083929091906200333390849062003de0565b90915550620033459050338262002a0e565b5050505050505050565b620013ae838383606c6200344a565b600054610100900460ff16620033885760405162461bcd60e51b8152600401620015f390620042f5565b620013683362002919565b600054610100900460ff16620033bd5760405162461bcd60e51b8152600401620015f390620042f5565b60018055565b600054610100900460ff16620033ed5760405162461bcd60e51b8152600401620015f390620042f5565b62093a80606b55565b604080516001600160a01b038416602482015260448082018490528251808303909101815260649091019091526020810180516001600160e01b031663a9059cbb60e01b179052620013ae908490620035db565b6001600160a01b0384166200347257604051630487895760e01b815260040160405180910390fd5b6001600160a01b03841660009081526020829052604090205460ff1615620034ad57604051630ef8aa0160e21b815260040160405180910390fd5b6001600160a01b03841660008181526020838152604091829020805460ff1916600117905590513381527fbc68405e644da2aaf25623ce2199da82c6dfd2e1de102b400eba6a091704d4f4910160405180910390a26001600160a01b038316156200356c576001600160a01b03848116600081815260028401602052604080822080546001600160a01b0319169488169485179055519091907fd73892e8827a6025d74a01fca72a8e0d9e2c04080272e728f8861410c7d3c2d1908390a45b6001600160a01b0382161562003139576001600160a01b03848116600081815260018401602052604080822080546001600160a01b0319169487169485179055519091907f31f32ebf07b0ac7fe173f7b7f3f943020d9bdc6dbfbdcdae01bd45ea78d953d7908390a450505050565b600062003632826040518060400160405280602081526020017f5361666545524332303a206c6f772d6c6576656c2063616c6c206661696c6564815250856001600160a01b0316620036b49092919063ffffffff16565b805190915015620013ae578080602001905181019062003653919062004429565b620013ae5760405162461bcd60e51b815260206004820152602a60248201527f5361666545524332303a204552433230206f7065726174696f6e20646964206e6044820152691bdd081cdd58d8d9595960b21b6064820152608401620015f3565b6060620036c58484600085620036cf565b90505b9392505050565b606082471015620037325760405162461bcd60e51b815260206004820152602660248201527f416464726573733a20696e73756666696369656e742062616c616e636520666f6044820152651c8818d85b1b60d21b6064820152608401620015f3565b6001600160a01b0385163b6200378b5760405162461bcd60e51b815260206004820152601d60248201527f416464726573733a2063616c6c20746f206e6f6e2d636f6e74726163740000006044820152606401620015f3565b600080866001600160a01b03168587604051620037a9919062004447565b60006040518083038185875af1925050503d8060008114620037e8576040519150601f19603f3d011682016040523d82523d6000602084013e620037ed565b606091505b5091509150620037ff8282866200380a565b979650505050505050565b606083156200381b575081620036c8565b8251156200382c5782518084602001fd5b8160405162461bcd60e51b8152600401620015f391906200445b565b611605806200447183390190565b828054828255906000526020600020908101928215620038ae579160200282015b82811115620038ae57825182546001600160a01b0319166001600160a01b0390911617825560209092019160019091019062003877565b50620038bc929150620038c0565b5090565b5b80821115620038bc5760008155600101620038c1565b600060208284031215620038ea57600080fd5b813567ffffffffffffffff8111156200390257600080fd5b820160608185031215620036c857600080fd5b6001600160a01b0381168114620014ad57600080fd5b6000602082840312156200393e57600080fd5b8135620036c88162003915565b6000604082840312156200395e57600080fd5b50919050565b600080606083850312156200397857600080fd5b6200398484846200394b565b91506040830135620039968162003915565b809150509250929050565b600060208284031215620039b457600080fd5b5035919050565b60008060408385031215620039cf57600080fd5b8235620039dc8162003915565b91506020830135620039968162003915565b60008060006080848603121562003a0457600080fd5b62003a1085856200394b565b9250604084013562003a228162003915565b9150606084013562003a348162003915565b809150509250925092565b6000806000806080858703121562003a5657600080fd5b84359350602085013562003a6a8162003915565b9250604085013562003a7c8162003915565b9150606085013562003a8e8162003915565b939692955090935050565b6000806040838503121562003aad57600080fd5b823591506020830135620039968162003915565b63ffffffff81168114620014ad57600080fd5b600080600080600060a0868803121562003aed57600080fd5b85359450602086013562003b018162003ac1565b9350604086013562003b138162003915565b9250606086013562003b258162003915565b949793965091946080013592915050565b60008060006060848603121562003b4c57600080fd5b83359250602084013562003b608162003915565b9150604084013562003a348162003915565b60006020828403121562003b8557600080fd5b813567ffffffffffffffff81111562003b9d57600080fd5b82016101008185031215620036c857600080fd5b60008060006060848603121562003bc757600080fd5b833562003bd48162003915565b9250602084013562003b608162003915565b6000806040838503121562003bfa57600080fd5b825162003c078162003915565b6020939093015192949293505050565b6000806040838503121562003c2b57600080fd5b825191506020830151620039968162003915565b60008235607e1983360301811262003c5657600080fd5b9190910192915050565b6000808335601e1984360301811262003c7857600080fd5b830160208101925035905067ffffffffffffffff81111562003c9957600080fd5b80360383131562003ca957600080fd5b9250929050565b81835281816020850137506000828201602090810191909152601f909101601f19169091010190565b8381526001600160a01b03838116602083015260606040830152600090833562003d038162003915565b16606083015262003d18602084018462003c60565b60808085015262003d2e60e08501828462003cb0565b915050604084013562003d418162003ac1565b63ffffffff90811660a085015260608501359062003d5f8262003ac1565b1660c09390930192909252509392505050565b60006020828403121562003d8557600080fd5b5051919050565b634e487b7160e01b600052601160045260246000fd5b600060001982141562003db95762003db962003d8c565b5060010190565b60006020828403121562003dd357600080fd5b8135620036c88162003ac1565b60008282101562003df55762003df562003d8c565b500390565b6000813562003e098162003915565b6001600160a01b0316835262003e23602083018362003c60565b6080602086015262003e3a60808601828462003cb0565b915050604083013562003e4d8162003ac1565b63ffffffff908116604086015260608401359062003e6b8262003ac1565b16606094909401939093525090919050565b60e08152600062003e9260e083018a62003dfa565b6001600160a01b0398891660208401529688166040830152506060810194909452608084019290925260a083015290921660c090920191909152919050565b6000821982111562003ee75762003ee762003d8c565b500190565b6001600160a01b039384168152919092166020820152604081019190915260600190565b60008262003f2e57634e487b7160e01b600052601260045260246000fd5b500490565b634e487b7160e01b600052603260045260246000fd5b600060018060a01b03808816835260208188168185015286604085015260a0606085015260e084018651604060a0870152818151808452610100880191508483019350600092505b8083101562003fb55783518616825292840192600192909201919084019062003f91565b509288015160c087015250506001600160a01b0385166080850152915062003fda9050565b9695505050505050565b6020808252601f908201527f5265656e7472616e637947756172643a207265656e7472616e742063616c6c00604082015260600190565b6000808335601e198436030181126200403357600080fd5b83018035915067ffffffffffffffff8211156200404f57600080fd5b6020019150600581901b360382131562003ca957600080fd5b6000808335601e198436030181126200408057600080fd5b83018035915067ffffffffffffffff8211156200409c57600080fd5b60200191503681900382131562003ca957600080fd5b8183823760009101908152919050565b60005b83811015620040df578181015183820152602001620040c5565b83811115620031395750506000910152565b600081518084526200410b816020860160208601620040c2565b601f01601f19169290920160200192915050565b878152602081018790526001600160a01b0386811660408301528516606082015260c0608082018190526000906200415a90830186620040f1565b82810360a08401526200416f81858762003cb0565b9a9950505050505050505050565b805180151581146200418e57600080fd5b919050565b634e487b7160e01b600052604160045260246000fd5b60008060408385031215620041bd57600080fd5b620041c8836200417d565b9150602083015167ffffffffffffffff80821115620041e657600080fd5b818501915085601f830112620041fb57600080fd5b81518181111562004210576200421062004193565b604051601f8201601f19908116603f011681019083821181831017156200423b576200423b62004193565b816040528281528860208487010111156200425557600080fd5b62004268836020830160208801620040c2565b80955050505050509250929050565b60c0815260006200428c60c083018962003dfa565b6001600160a01b0397881660208401529587166040830152506060810193909352608083019190915290921660a090920191909152919050565b8135620042d38162003ac1565b63ffffffff811663ffffffff1983541617825550602082013560018201555050565b6020808252602b908201527f496e697469616c697a61626c653a20636f6e7472616374206973206e6f74206960408201526a6e697469616c697a696e6760a81b606082015260800190565b600080604083850312156200435457600080fd5b825162003c078162003ac1565b6000600285106200438257634e487b7160e01b600052602160045260246000fd5b5060f89390931b835260e09190911b6001600160e01b031916600183015260601b6bffffffffffffffffffffffff1916600582015260190190565b604081526000620043d26040830186620040f1565b828103602084015262003fda81858762003cb0565b600060208284031215620043fa57600080fd5b8151620036c88162003915565b600081600019048311821515161562004424576200442462003d8c565b500290565b6000602082840312156200443c57600080fd5b620036c8826200417d565b6000825162003c56818460208701620040c2565b602081526000620036c86020830184620040f156fe60e0604052601d60a081905262ffffff1960c090815262000024916000919062000067565b503480156200003257600080fd5b50604051620016053803806200160583398101604081905262000055916200010d565b6001600160a01b03166080526200017c565b82805462000075906200013f565b90600052602060002090601f016020900481019282620000995760008555620000e4565b82601f10620000b457805160ff1916838001178555620000e4565b82800160010185558215620000e4579182015b82811115620000e4578251825591602001919060010190620000c7565b50620000f2929150620000f6565b5090565b5b80821115620000f25760008155600101620000f7565b6000602082840312156200012057600080fd5b81516001600160a01b03811681146200013857600080fd5b9392505050565b600181811c908216806200015457607f821691505b602082108114156200017657634e487b7160e01b600052602260045260246000fd5b50919050565b6080516114676200019e6000396000818160d4015261010701526114676000f3fe60806040526004361061003f5760003560e01c80631e29b440146100445780632b59241f1461006e578063938b5f321461009b578063975740c6146100c5575b600080fd5b610057610052366004611103565b6100f8565b604051610065929190611270565b60405180910390f35b34801561007a57600080fd5b506100836102ef565b6040516001600160a01b039091168152602001610065565b3480156100a757600080fd5b506100b0610396565b60405163ffffffff9091168152602001610065565b3480156100d157600080fd5b507f0000000000000000000000000000000000000000000000000000000000000000610083565b60006060336001600160a01b037f000000000000000000000000000000000000000000000000000000000000000016146101635760405162461bcd60e51b8152602060048201526007602482015266234f433a30323760c81b60448201526064015b60405180910390fd5b6001600160a01b038616158061017e5761017e87898b6103b4565b600060606001600160a01b038a163b6101c55760405162461bcd60e51b81526020600482015260096024820152680858dbdb9d1c9858dd60ba1b604482015260640161015a565b87516101d89060009060208b0190610ffc565b50896001600160a01b0316836101ef5760006101f1565b8b5b888860405161020192919061128b565b60006040518083038185875af1925050503d806000811461023e576040519150601f19603f3d011682016040523d82523d6000602084013e610243565b606091505b5060408051808201909152601d80825262ffffff1960209092019182529294509092506102739160009190610ffc565b5081158015610280575082155b1561029057610290898b8d61049f565b896001600160a01b03168c7f627b4985667a94d1a70c70277b9471eed68009d6f9c3ae5d25fa799fd3f0398d8b8e8c8c8c888a6040516102d6979695949392919061129b565b60405180910390a3909b909a5098505050505050505050565b6000806103856000805461030290611318565b80601f016020809104026020016040519081016040528092919081815260200182805461032e90611318565b801561037b5780601f106103505761010080835404028352916020019161037b565b820191906000526020600020905b81548152906001019060200180831161035e57829003601f168201915b50505050506105b2565b9050610390816105cc565b91505090565b6000806103a96000805461030290611318565b9050610390816105fd565b604051636eb1769f60e11b81523060048201526001600160a01b038381166024830152600091839186169063dd62ed3e90604401602060405180830381865afa158015610405573d6000803e3d6000fd5b505050506040513d601f19601f82011682018060405250810190610429919061134d565b610433919061137c565b6040516001600160a01b03851660248201526044810182905290915061049990859063095ea7b360e01b906064015b60408051601f198184030181529190526020810180516001600160e01b03166001600160e01b03199093169290921790915261061f565b50505050565b604051636eb1769f60e11b81523060048201526001600160a01b0383811660248301526000919085169063dd62ed3e90604401602060405180830381865afa1580156104ef573d6000803e3d6000fd5b505050506040513d601f19601f82011682018060405250810190610513919061134d565b9050818110156105775760405162461bcd60e51b815260206004820152602960248201527f5361666545524332303a2064656372656173656420616c6c6f77616e63652062604482015268656c6f77207a65726f60b81b606482015260840161015a565b6040516001600160a01b038416602482015282820360448201819052906105ab90869063095ea7b360e01b90606401610462565b5050505050565b60006105c66105c183836106f6565b61071a565b92915050565b60008160016105e3815b62ffffff19841690610733565b506105f562ffffff198516600561080c565b949350505050565b600081600161060b816105d6565b506105f562ffffff19851660016004610821565b6000610674826040518060400160405280602081526020017f5361666545524332303a206c6f772d6c6576656c2063616c6c206661696c6564815250856001600160a01b03166108519092919063ffffffff16565b8051909150156106f157808060200190518101906106929190611394565b6106f15760405162461bcd60e51b815260206004820152602a60248201527f5361666545524332303a204552433230206f7065726174696f6e20646964206e6044820152691bdd081cdd58d8d9595960b21b606482015260840161015a565b505050565b81516000906020840161071164ffffffffff85168284610860565b95945050505050565b60006105c6610728836108a4565b62ffffff19166108de565b600061073f8383610939565b61080557600061075e6107528560d81c90565b64ffffffffff1661095c565b91505060006107738464ffffffffff1661095c565b6040517f5479706520617373657274696f6e206661696c65642e20476f7420307800000060208201526001600160b01b031960b086811b8216603d8401526c05c408af0e0cac6e8cac84060f609b1b604784015283901b16605482015290925060009150605e0160405160208183030381529060405290508060405162461bcd60e51b815260040161015a91906113b6565b5090919050565b600061081a83836014610821565b9392505050565b600061082e8260206113c9565b6108399060086113ec565b60ff16610847858585610a0a565b901c949350505050565b60606105f58484600085610b63565b60008061086d838561137c565b905060405181111561087d575060005b8061088f5762ffffff1991505061081a565b5050606092831b9190911790911b1760181b90565b60006001600160601b03601883901c16601914156108d4576301000000600160d81b038216600160d81b176105c6565b62ffffff196105c6565b60006108e982610c94565b6109355760405162461bcd60e51b815260206004820152601960248201527f56616c696469747920617373657274696f6e206661696c656400000000000000604482015260640161015a565b5090565b60008164ffffffffff1661094d8460d81c90565b64ffffffffff16149392505050565b600080601f5b600f8160ff1611156109b157600061097b8260086113ec565b60ff1685901c905061098c81610cd2565b61ffff16841793508160ff166010146109a757601084901b93505b5060001901610962565b50600f5b60ff8160ff161015610a045760006109ce8260086113ec565b60ff1685901c90506109df81610cd2565b61ffff16831792508160ff166000146109fa57601083901b92505b50600019016109b5565b50915091565b600060ff8216610a1c5750600061081a565b610a2f8460181c6001600160601b031690565b6001600160601b0316610a4560ff84168561137c565b1115610aa957610a90610a618560781c6001600160601b031690565b6001600160601b0316610a7d8660181c6001600160601b031690565b6001600160601b0316858560ff16610d04565b60405162461bcd60e51b815260040161015a91906113b6565b60208260ff161115610b235760405162461bcd60e51b815260206004820152603a60248201527f54797065644d656d566965772f696e646578202d20417474656d70746564207460448201527f6f20696e646578206d6f7265207468616e203332206279746573000000000000606482015260840161015a565b600882026000610b3c8660781c6001600160601b031690565b6001600160601b031690506000600160ff1b60001984011d91909501511695945050505050565b606082471015610bc45760405162461bcd60e51b815260206004820152602660248201527f416464726573733a20696e73756666696369656e742062616c616e636520666f6044820152651c8818d85b1b60d21b606482015260840161015a565b6001600160a01b0385163b610c1b5760405162461bcd60e51b815260206004820152601d60248201527f416464726573733a2063616c6c20746f206e6f6e2d636f6e7472616374000000604482015260640161015a565b600080866001600160a01b03168587604051610c379190611415565b60006040518083038185875af1925050503d8060008114610c74576040519150601f19603f3d011682016040523d82523d6000602084013e610c79565b606091505b5091509150610c89828286610e2e565b979650505050505050565b6000610ca08260d81c90565b64ffffffffff1664ffffffffff1415610cbb57506000919050565b6000610cc683610e67565b60405110199392505050565b6000610ce460048360ff16901c610ea0565b60ff1661ffff919091161760081b610cfb82610ea0565b60ff1617919050565b60606000610d118661095c565b9150506000610d1f8661095c565b9150506000610d2d8661095c565b9150506000610d3b8661095c565b604080517f54797065644d656d566965772f696e646578202d204f76657272616e20746865602082015274040ecd2caee5c40a6d8d2c6ca40d2e640c2e84060f605b1b818301526001600160d01b031960d098891b811660558301526e040eed2e8d040d8cadccee8d04060f608b1b605b830181905297891b8116606a8301527f2e20417474656d7074656420746f20696e646578206174206f666673657420306070830152600f60fb1b609083015295881b861660918201526097810196909652951b90921660a68401525050601760f91b60ac8201528151808203608d01815260ad90910190915295945050505050565b60608315610e3d57508161081a565b825115610e4d5782518084602001fd5b8160405162461bcd60e51b815260040161015a91906113b6565b6000610e7c8260181c6001600160601b031690565b610e8f8360781c6001600160601b031690565b016001600160601b03169050919050565b600060f08083179060ff82161415610ebb5750603092915050565b8060ff1660f11415610ed05750603192915050565b8060ff1660f21415610ee55750603292915050565b8060ff1660f31415610efa5750603392915050565b8060ff1660f41415610f0f5750603492915050565b8060ff1660f51415610f245750603592915050565b8060ff1660f61415610f395750603692915050565b8060ff1660f71415610f4e5750603792915050565b8060ff1660f81415610f635750603892915050565b8060ff1660f91415610f785750603992915050565b8060ff1660fa1415610f8d5750606192915050565b8060ff1660fb1415610fa25750606292915050565b8060ff1660fc1415610fb75750606392915050565b8060ff1660fd1415610fcc5750606492915050565b8060ff1660fe1415610fe15750606592915050565b8060ff1660ff1415610ff65750606692915050565b50919050565b82805461100890611318565b90600052602060002090601f01602090048101928261102a5760008555611070565b82601f1061104357805160ff1916838001178555611070565b82800160010185558215611070579182015b82811115611070578251825591602001919060010190611055565b506109359291505b808211156109355760008155600101611078565b6001600160a01b03811681146110a157600080fd5b50565b634e487b7160e01b600052604160045260246000fd5b60008083601f8401126110cc57600080fd5b50813567ffffffffffffffff8111156110e457600080fd5b6020830191508360208285010111156110fc57600080fd5b9250929050565b600080600080600080600060c0888a03121561111e57600080fd5b873596506020880135955060408801356111378161108c565b945060608801356111478161108c565b9350608088013567ffffffffffffffff8082111561116457600080fd5b818a0191508a601f83011261117857600080fd5b81358181111561118a5761118a6110a4565b604051601f8201601f19908116603f011681019083821181831017156111b2576111b26110a4565b816040528281528d60208487010111156111cb57600080fd5b8260208601602083013760006020848301015280975050505060a08a01359150808211156111f857600080fd5b506112058a828b016110ba565b989b979a50959850939692959293505050565b60005b8381101561123357818101518382015260200161121b565b838111156104995750506000910152565b6000815180845261125c816020860160208601611218565b601f01601f19169290920160200192915050565b82151581526040602082015260006105f56040830184611244565b8183823760009101908152919050565b60018060a01b038816815286602082015260c0604082015260006112c260c0830188611244565b828103606084015285815285876020830137600060208783010152601f19601f8701168101905060208382030160808401526113016020820186611244565b91505082151560a083015298975050505050505050565b600181811c9082168061132c57607f821691505b60208210811415610ff657634e487b7160e01b600052602260045260246000fd5b60006020828403121561135f57600080fd5b5051919050565b634e487b7160e01b600052601160045260246000fd5b6000821982111561138f5761138f611366565b500190565b6000602082840312156113a657600080fd5b8151801515811461081a57600080fd5b60208152600061081a6020830184611244565b600060ff821660ff8416808210156113e3576113e3611366565b90039392505050565b600060ff821660ff84168160ff048111821515161561140d5761140d611366565b029392505050565b60008251611427818460208701611218565b919091019291505056fea2646970667358221220cf99f1e51cad9594d66ba9ebc40248a29d4e0b4207c330460e78f292f23ffbec64736f6c634300080b0033a26469706673582212203a2c2e5534b2ec344704b23de560ed1cd38e014efc2eb0e380dd25d37ff3200064736f6c634300080b0033",
  "libraries": {
    "AssetLogic": "0x5d45B4A30193ba5efB748B19Ae6C5C46aA2DC3fC",
    "ConnextUtils": "0x41E885C322A7C9a8A4Cf8Bd08d569c7bf48D6428",
    "RouterPermissionsManagerLogic": "0xa9a6D04f724BDDD1aca08C925461851E09EfFb38"
  },
  "devdoc": {
    "kind": "dev",
    "methods": {
      "acceptProposedRouterOwner(address)": {
        "params": {
          "router": "Router address to set recipient"
        }
      },
      "addLiquidity(uint256,address)": {
        "details": "The liquidity will be held in the local asset, which is the representation if you are *not* on the canonical domain, and the canonical asset otherwise.",
        "params": {
          "amount": "- The amount of liquidity to add for the router",
          "local": "- The address of the asset you're adding liquidity for. If adding liquidity of the native asset, routers may use `address(0)` or the wrapped asset"
        }
      },
      "addLiquidityFor(uint256,address,address)": {
        "details": "The liquidity will be held in the local asset, which is the representation if you are *not* on the canonical domain, and the canonical asset otherwise.",
        "params": {
          "amount": "- The amount of liquidity to add for the router",
          "local": "- The address of the asset you're adding liquidity for. If adding liquidity of the native asset, routers may use `address(0)` or the wrapped asset",
          "router": "The router you are adding liquidity on behalf of"
        }
      },
      "addRelayer(address)": {
        "params": {
          "relayer": "- The relayer address to add"
        }
      },
      "addRelayerFees(address)": {
        "params": {
          "router": "- The router to credit"
        }
      },
      "execute(((address,bytes,uint32,uint32),address,address[],uint32,uint256,uint256,bytes,address))": {
        "details": "Will store the `ExecutedTransfer` if fast liquidity is provided, or assert the hash of the `ReconciledTransfer` when using bridge liquidity",
        "params": {
          "_args": "- The `ExecuteArgs` for the transfer"
        },
        "returns": {
          "_0": "bytes32 The transfer id of the crosschain transfer"
        }
      },
      "proposeRouterOwner(address,address)": {
        "params": {
          "proposed": "Proposed owner Address to set to router",
          "router": "Router address to set recipient"
        }
      },
      "reconcile(bytes32,uint32,address,address,uint256)": {
        "details": "If fast liquidity was provided, the `amount` and `externalHash` are asserted against the `ExecutedTransaction` struct stored onchain. If no fast liqudity was provided, the hash of the `ReconciledTransaction` is stored onchain to enforce correctness when `execute` is called",
        "params": {
          "_amount": "- The amount bridged",
          "_local": "- The address of the asset delivered by the bridge",
          "_origin": "- The origin domain of the transfer",
          "_recipient": "- The address that will receive funds on the destination domain",
          "_transferId": "- Transfer UUID"
        }
      },
      "removeAssetId(bytes32,address)": {
        "params": {
          "adoptedAssetId": "- Corresponding adopted asset to remove",
          "canonicalId": "- Token id to remove"
        }
      },
      "removeLiquidity(uint256,address,address)": {
        "params": {
          "amount": "- The amount of liquidity to remove for the router",
          "local": "- The address of the asset you're removing liquidity from. If removing liquidity of the native asset, routers may use `address(0)` or the wrapped asset",
          "to": "The address that will receive the liquidity being removed"
        }
      },
      "removeRelayer(address)": {
        "params": {
          "relayer": "- The relayer address to remove"
        }
      },
      "removeRelayerFees(uint256,address)": {
        "details": "Must be called by the router you are decrementing relayer fees for",
        "params": {
          "amount": "- The amount of relayer fee to remove",
          "to": "- Who to send funds to"
        }
      },
      "removeRouter(address)": {
        "params": {
          "router": "Router address to remove"
        }
      },
      "setMaxRoutersPerTransfer(uint256)": {
        "params": {
          "newMaxRouters": "The new max amount of routers"
        }
      },
      "setRouterRecipient(address,address)": {
        "details": "Router should only be able to set this once otherwise if router key compromised, no problem is solved since attacker could just update recipient",
        "params": {
          "recipient": "Recipient Address to set to router",
          "router": "Router address to set recipient"
        }
      },
      "setupAsset((uint32,bytes32),address,address)": {
        "details": "When whitelisting the canonical asset, all representational assets would be whitelisted as well. In the event you have a different adopted asset (i.e. PoS USDC on polygon), you should *not* whitelist the adopted asset. The stable swap pool address used should allow you to swap between the local <> adopted asset",
        "params": {
          "adoptedAssetId": "- The used asset id for this domain (i.e. PoS USDC for polygon)",
          "canonical": "- The canonical asset to add by id and domain. All representations will be whitelisted as well",
          "stableSwapPool": "- Address of the pool to swap adopted <> local asset"
        }
      },
      "setupRouter(address,address,address)": {
        "params": {
          "owner": "Initial Owner of router",
          "recipient": "Initial Recipient of router",
          "router": "Router address to setup"
        }
      },
      "xcall(((address,bytes,uint32,uint32),address,uint256))": {
        "details": "This contract must have approval to transfer the adopted assets. They are then swapped to the local nomad assets via the configured AMM and sent over the bridge router.",
        "params": {
          "_args": "- The XCallArgs"
        },
        "returns": {
          "_0": "The transfer id of the crosschain transfer"
        }
      }
    },
    "stateVariables": {
      "__gap": {
        "details": "This empty reserved space is put in place to allow future versions to add new variables without shifting down storage in the inheritance chain. See https://docs.openzeppelin.com/contracts/4.x/upgradeable#storage_gaps"
      },
      "adoptedToCanonical": {
        "details": "If the adopted asset is the native asset, the keyed address will be the wrapped asset address"
      },
      "adoptedToLocalPools": {
        "details": "Swaps for an adopted asset <> nomad local asset (i.e. POS USDC <> madUSDC on polygon)"
      },
      "approvedAssets": {
        "details": "Mapping is keyed on the canonical token identifier matching what is stored in the token registry"
      },
      "approvedRelayers": {
        "details": "Send relayer fee if msg.sender is approvedRelayer. otherwise revert()"
      },
      "canonicalToAdopted": {
        "details": "If the adopted asset is the native asset, the stored address will be the wrapped asset address"
      },
      "domain": {
        "details": "Must match the nomad domain, which is distinct from the \"chainId\""
      },
      "nonce": {
        "details": "Assigned at first interaction (xcall on origin domain);"
      },
      "reconciledTransfers": {
        "details": "This information is stored onchain if the transaction has not been fulfilled at the time of reconcile"
      },
      "routedTransfers": {
        "details": "This information is stored onchain if fast liquidity is provided"
      },
      "routedTransfersGas": {
        "details": "This informaion is stored onchain if fast liquidity is provided"
      },
      "routerBalances": {
        "details": "Routers should always store liquidity that they can expect to receive via the bridge on this domain (the nomad local asset)"
      },
      "routerRelayerFees": {
        "details": "Right now, routers only store native asset onchain. TODO: allow for approved relaying assets"
      },
      "wrapper": {
        "details": "Needed because the nomad only handles ERC20 assets"
      }
    },
    "version": 1
  },
  "userdoc": {
    "events": {
      "AssetAdded(bytes32,uint32,address,address,address)": {
        "notice": "Emitted when a new asset is added"
      },
      "AssetRemoved(bytes32,address)": {
        "notice": "Emitted when an asset is removed from whitelists"
      },
      "Executed(bytes32,address,address,(address,bytes,uint32,uint32),address,address,uint256,uint256,address)": {
        "notice": "Emitted when `execute` is called on the destination chain"
      },
      "LiquidityAdded(address,address,bytes32,uint256,address)": {
        "notice": "Emitted when a router adds liquidity to the contract"
      },
      "LiquidityRemoved(address,address,address,uint256,address)": {
        "notice": "Emitted when a router withdraws liquidity from the contract"
      },
      "MaxRoutersPerTransferUpdated(uint256,address)": {
        "notice": "Emitted when the maxRoutersPerTransfer variable is updated"
      },
      "Reconciled(bytes32,uint32,address,address,uint256,(address[],uint256),address)": {
        "notice": "Emitted when `reconciled` is called by the bridge on the destination domain"
      },
      "RelayerAdded(address,address)": {
        "notice": "Emitted when a rlayer is added or removed from whitelists"
      },
      "RelayerRemoved(address,address)": {
        "notice": "Emitted when a rlayer is added or removed from whitelists"
      },
      "StableSwapAdded(bytes32,uint32,address,address)": {
        "notice": "Emitted when a new stable-swap AMM is added for the local <> adopted token"
      },
      "XCalled(bytes32,address,(address,bytes,uint32,uint32),address,address,uint256,uint256,uint256,address)": {
        "notice": "Emitted when `xcall` is called on the origin domain"
      }
    },
    "kind": "user",
    "methods": {
      "acceptProposedOwner()": {
        "notice": "Transfers ownership of the contract to a new account (`newOwner`). Can only be called by the current owner."
      },
      "acceptProposedRouterOwner(address)": {
        "notice": "New router owner must accept role, or previous if proposed is 0x0"
      },
      "addLiquidity(uint256,address)": {
        "notice": "This is used by any router to increase their available liquidity for a given asset."
      },
      "addLiquidityFor(uint256,address,address)": {
        "notice": "This is used by anyone to increase a router's available liquidity for a given asset."
      },
      "addRelayer(address)": {
        "notice": "Used to add approved relayer"
      },
      "addRelayerFees(address)": {
        "notice": "Used to add relayer fees in the native asset"
      },
      "addStableSwapPool((uint32,bytes32),address)": {
        "notice": "Adds a stable swap pool for the local <> adopted asset."
      },
      "adoptedToCanonical(address)": {
        "notice": "Mapping of canonical to adopted assets on this domain"
      },
      "adoptedToLocalPools(bytes32)": {
        "notice": "Mapping holding the AMMs for swapping in and out of local assets"
      },
      "approvedAssets(bytes32)": {
        "notice": "Mapping of whitelisted assets on same domain as contract"
      },
      "approvedRelayers(address)": {
        "notice": "Mapping of approved relayers"
      },
      "assetOwnershipTimestamp()": {
        "notice": "Returns the timestamp when asset ownership was last proposed to be renounced"
      },
      "bridgeRouter()": {
        "notice": "The local nomad bridge router"
      },
      "canonicalToAdopted(bytes32)": {
        "notice": "Mapping of adopted to canonical on this domain"
      },
      "delay()": {
        "notice": "Returns the delay period before a new owner can be accepted."
      },
      "domain()": {
        "notice": "The domain this contract exists on"
      },
      "execute(((address,bytes,uint32,uint32),address,address[],uint32,uint256,uint256,bytes,address))": {
        "notice": "This function is called on the destination chain when the bridged asset should be swapped into the adopted asset and the external call executed. Can be used before reconcile (when providing fast liquidity) or after reconcile (when using liquidity from the bridge)"
      },
      "executor()": {
        "notice": "The external contract that will execute crosschain calldata"
      },
      "isAssetOwnershipRenounced()": {
        "notice": "Indicates if the ownership of the asset whitelist has been renounced"
      },
      "isRouterOwnershipRenounced()": {
        "notice": "Indicates if the ownership of the router whitelist has been renounced"
      },
      "maxRoutersPerTransfer()": {
        "notice": "The max amount of routers a payment can be routed through"
      },
      "nonce()": {
        "notice": "Nonce for the contract, used to keep unique transfer ids."
      },
      "owner()": {
        "notice": "Returns the address of the current owner."
      },
      "proposeAssetOwnershipRenunciation()": {
        "notice": "Indicates if the ownership of the asset whitelist has been renounced"
      },
      "proposeNewOwner(address)": {
        "notice": "Sets the timestamp for an owner to be proposed, and sets the newly proposed owner as step 1 in a 2-step process"
      },
      "proposeRouterOwner(address,address)": {
        "notice": "Current owner or router may propose a new router owner"
      },
      "proposeRouterOwnershipRenunciation()": {
        "notice": "Indicates if the ownership of the router whitelist has been renounced"
      },
      "proposed()": {
        "notice": "Returns the address of the proposed owner."
      },
      "proposedTimestamp()": {
        "notice": "Returns the address of the proposed owner."
      },
      "reconcile(bytes32,uint32,address,address,uint256)": {
        "notice": "This function is called by the bridge router to pass through the information provided by the user on prepare."
      },
      "reconciledTransfers(bytes32)": {
        "notice": "Stores hash of the `ReconciledTransaction` (all information passed through bridge) on `reconcile`"
      },
      "removeAssetId(bytes32,address)": {
        "notice": "Used to remove assets from the whitelist"
      },
      "removeLiquidity(uint256,address,address)": {
        "notice": "This is used by any router to decrease their available liquidity for a given asset."
      },
      "removeRelayer(address)": {
        "notice": "Used to remove approved relayer"
      },
      "removeRelayerFees(uint256,address)": {
        "notice": "Used to remove relayer fee in the native asset"
      },
      "removeRouter(address)": {
        "notice": "Used to remove routers that can transact crosschain"
      },
      "renounceAssetOwnership()": {
        "notice": "Indicates if the ownership of the asset whitelist has been renounced"
      },
      "renounceOwnership()": {
        "notice": "Renounces ownership of the contract after a delay"
      },
      "renounceRouterOwnership()": {
        "notice": "Indicates if the ownership of the asset whitelist has been renounced"
      },
      "renounced()": {
        "notice": "Indicates if the ownership has been renounced() by checking if current owner is address(0)"
      },
      "routedTransfers(bytes32)": {
        "notice": "Stores the transferId => ExecutedTransfer mapping"
      },
      "routedTransfersGas(bytes32)": {
        "notice": "Stores the transferId => GasInfo mapping to track gas used on `execute`"
      },
      "routerBalances(address,address)": {
        "notice": "Mapping of router to available balance of an asset"
      },
      "routerOwnershipTimestamp()": {
        "notice": "Returns the timestamp when router ownership was last proposed to be renounced"
      },
      "routerRelayerFees(address)": {
        "notice": "Mapping of router to available relayer fee"
      },
      "setMaxRoutersPerTransfer(uint256)": {
        "notice": "Used to set the max amount of routers a payment can be routed through"
      },
      "setRouterRecipient(address,address)": {
        "notice": "Sets the designated recipient for a router"
      },
      "setupAsset((uint32,bytes32),address,address)": {
        "notice": "Used to add supported assets. This is an admin only function"
      },
      "setupRouter(address,address,address)": {
        "notice": "Used to set router initial properties"
      },
      "tokenRegistry()": {
        "notice": "The local nomad token registry"
      },
      "wrapper()": {
        "notice": "The address of the wrapper for the native asset on this domain"
      },
      "xcall(((address,bytes,uint32,uint32),address,uint256))": {
        "notice": "This function is called by a user who is looking to bridge funds"
      }
    },
    "version": 1
  },
  "storageLayout": {
    "storage": [
      {
        "astId": 130,
        "contract": "contracts/Connext.sol:Connext",
        "label": "_initialized",
        "offset": 0,
        "slot": "0",
        "type": "t_bool"
      },
      {
        "astId": 133,
        "contract": "contracts/Connext.sol:Connext",
        "label": "_initializing",
        "offset": 1,
        "slot": "0",
        "type": "t_bool"
      },
      {
        "astId": 322,
        "contract": "contracts/Connext.sol:Connext",
        "label": "_status",
        "offset": 0,
        "slot": "1",
        "type": "t_uint256"
      },
      {
        "astId": 366,
        "contract": "contracts/Connext.sol:Connext",
        "label": "__gap",
        "offset": 0,
        "slot": "2",
        "type": "t_array(t_uint256)49_storage"
      },
      {
        "astId": 7788,
        "contract": "contracts/Connext.sol:Connext",
        "label": "_owner",
        "offset": 0,
        "slot": "51",
        "type": "t_address"
      },
      {
        "astId": 7790,
        "contract": "contracts/Connext.sol:Connext",
        "label": "_proposed",
        "offset": 0,
        "slot": "52",
        "type": "t_address"
      },
      {
        "astId": 7792,
        "contract": "contracts/Connext.sol:Connext",
        "label": "_proposedOwnershipTimestamp",
        "offset": 0,
        "slot": "53",
        "type": "t_uint256"
      },
      {
        "astId": 7794,
        "contract": "contracts/Connext.sol:Connext",
        "label": "_routerOwnershipRenounced",
        "offset": 0,
        "slot": "54",
        "type": "t_bool"
      },
      {
        "astId": 7796,
        "contract": "contracts/Connext.sol:Connext",
        "label": "_routerOwnershipTimestamp",
        "offset": 0,
        "slot": "55",
        "type": "t_uint256"
      },
      {
        "astId": 7798,
        "contract": "contracts/Connext.sol:Connext",
        "label": "_assetOwnershipRenounced",
        "offset": 0,
        "slot": "56",
        "type": "t_bool"
      },
      {
        "astId": 7800,
        "contract": "contracts/Connext.sol:Connext",
        "label": "_assetOwnershipTimestamp",
        "offset": 0,
        "slot": "57",
        "type": "t_uint256"
      },
      {
        "astId": 8285,
        "contract": "contracts/Connext.sol:Connext",
        "label": "__gap",
        "offset": 0,
        "slot": "58",
        "type": "t_array(t_uint256)49_storage"
      },
      {
        "astId": 8297,
        "contract": "contracts/Connext.sol:Connext",
        "label": "_delay",
        "offset": 0,
        "slot": "107",
        "type": "t_uint256"
      },
      {
        "astId": 8300,
        "contract": "contracts/Connext.sol:Connext",
        "label": "routerInfo",
        "offset": 0,
        "slot": "108",
        "type": "t_struct(RouterPermissionsManagerInfo)10784_storage"
      },
      {
        "astId": 5791,
        "contract": "contracts/Connext.sol:Connext",
        "label": "EMPTY",
        "offset": 0,
        "slot": "113",
        "type": "t_bytes32"
      },
      {
        "astId": 5795,
        "contract": "contracts/Connext.sol:Connext",
        "label": "bridgeRouter",
        "offset": 0,
        "slot": "114",
        "type": "t_contract(BridgeRouter)23322"
      },
      {
        "astId": 5799,
        "contract": "contracts/Connext.sol:Connext",
        "label": "wrapper",
        "offset": 0,
        "slot": "115",
        "type": "t_contract(IWrapped)10089"
      },
      {
        "astId": 5802,
        "contract": "contracts/Connext.sol:Connext",
        "label": "nonce",
        "offset": 0,
        "slot": "116",
        "type": "t_uint256"
      },
      {
        "astId": 5806,
        "contract": "contracts/Connext.sol:Connext",
        "label": "executor",
        "offset": 0,
        "slot": "117",
        "type": "t_contract(IExecutor)9806"
      },
      {
        "astId": 5810,
        "contract": "contracts/Connext.sol:Connext",
        "label": "tokenRegistry",
        "offset": 0,
        "slot": "118",
        "type": "t_contract(TokenRegistry)24628"
      },
      {
        "astId": 5816,
        "contract": "contracts/Connext.sol:Connext",
        "label": "adoptedToLocalPools",
        "offset": 0,
        "slot": "119",
        "type": "t_mapping(t_bytes32,t_contract(IStableSwap)10078)"
      },
      {
        "astId": 5822,
        "contract": "contracts/Connext.sol:Connext",
        "label": "routedTransfers",
        "offset": 0,
        "slot": "120",
        "type": "t_mapping(t_bytes32,t_struct(ExecutedTransfer)9266_storage)"
      },
      {
        "astId": 5828,
        "contract": "contracts/Connext.sol:Connext",
        "label": "routedTransfersGas",
        "offset": 0,
        "slot": "121",
        "type": "t_mapping(t_bytes32,t_struct(GasInfo)9271_storage)"
      },
      {
        "astId": 5831,
        "contract": "contracts/Connext.sol:Connext",
        "label": "domain",
        "offset": 0,
        "slot": "122",
        "type": "t_uint256"
      },
      {
        "astId": 5836,
        "contract": "contracts/Connext.sol:Connext",
        "label": "approvedAssets",
        "offset": 0,
        "slot": "123",
        "type": "t_mapping(t_bytes32,t_bool)"
      },
      {
        "astId": 5842,
        "contract": "contracts/Connext.sol:Connext",
        "label": "adoptedToCanonical",
        "offset": 0,
        "slot": "124",
        "type": "t_mapping(t_address,t_struct(TokenId)21948_storage)"
      },
      {
        "astId": 5847,
        "contract": "contracts/Connext.sol:Connext",
        "label": "canonicalToAdopted",
        "offset": 0,
        "slot": "125",
        "type": "t_mapping(t_bytes32,t_address)"
      },
      {
        "astId": 5852,
        "contract": "contracts/Connext.sol:Connext",
        "label": "reconciledTransfers",
        "offset": 0,
        "slot": "126",
        "type": "t_mapping(t_bytes32,t_bytes32)"
      },
      {
        "astId": 5857,
        "contract": "contracts/Connext.sol:Connext",
        "label": "routerRelayerFees",
        "offset": 0,
        "slot": "127",
        "type": "t_mapping(t_address,t_uint256)"
      },
      {
        "astId": 5862,
        "contract": "contracts/Connext.sol:Connext",
        "label": "approvedRelayers",
        "offset": 0,
        "slot": "128",
        "type": "t_mapping(t_address,t_bool)"
      },
      {
        "astId": 5869,
        "contract": "contracts/Connext.sol:Connext",
        "label": "routerBalances",
        "offset": 0,
        "slot": "129",
        "type": "t_mapping(t_address,t_mapping(t_address,t_uint256))"
      },
      {
        "astId": 5872,
        "contract": "contracts/Connext.sol:Connext",
        "label": "maxRoutersPerTransfer",
        "offset": 0,
        "slot": "130",
        "type": "t_uint256"
      },
      {
        "astId": 7122,
        "contract": "contracts/Connext.sol:Connext",
        "label": "__gap",
        "offset": 0,
        "slot": "131",
        "type": "t_array(t_uint256)49_storage"
      }
    ],
    "types": {
      "t_address": {
        "encoding": "inplace",
        "label": "address",
        "numberOfBytes": "20"
      },
      "t_array(t_address)dyn_storage": {
        "base": "t_address",
        "encoding": "dynamic_array",
        "label": "address[]",
        "numberOfBytes": "32"
      },
      "t_array(t_uint256)49_storage": {
        "base": "t_uint256",
        "encoding": "inplace",
        "label": "uint256[49]",
        "numberOfBytes": "1568"
      },
      "t_bool": {
        "encoding": "inplace",
        "label": "bool",
        "numberOfBytes": "1"
      },
      "t_bytes32": {
        "encoding": "inplace",
        "label": "bytes32",
        "numberOfBytes": "32"
      },
      "t_contract(BridgeRouter)23322": {
        "encoding": "inplace",
        "label": "contract BridgeRouter",
        "numberOfBytes": "20"
      },
      "t_contract(IExecutor)9806": {
        "encoding": "inplace",
        "label": "contract IExecutor",
        "numberOfBytes": "20"
      },
      "t_contract(IStableSwap)10078": {
        "encoding": "inplace",
        "label": "contract IStableSwap",
        "numberOfBytes": "20"
      },
      "t_contract(IWrapped)10089": {
        "encoding": "inplace",
        "label": "contract IWrapped",
        "numberOfBytes": "20"
      },
      "t_contract(TokenRegistry)24628": {
        "encoding": "inplace",
        "label": "contract TokenRegistry",
        "numberOfBytes": "20"
      },
      "t_mapping(t_address,t_address)": {
        "encoding": "mapping",
        "key": "t_address",
        "label": "mapping(address => address)",
        "numberOfBytes": "32",
        "value": "t_address"
      },
      "t_mapping(t_address,t_bool)": {
        "encoding": "mapping",
        "key": "t_address",
        "label": "mapping(address => bool)",
        "numberOfBytes": "32",
        "value": "t_bool"
      },
      "t_mapping(t_address,t_mapping(t_address,t_uint256))": {
        "encoding": "mapping",
        "key": "t_address",
        "label": "mapping(address => mapping(address => uint256))",
        "numberOfBytes": "32",
        "value": "t_mapping(t_address,t_uint256)"
      },
      "t_mapping(t_address,t_struct(TokenId)21948_storage)": {
        "encoding": "mapping",
        "key": "t_address",
        "label": "mapping(address => struct BridgeMessage.TokenId)",
        "numberOfBytes": "32",
        "value": "t_struct(TokenId)21948_storage"
      },
      "t_mapping(t_address,t_uint256)": {
        "encoding": "mapping",
        "key": "t_address",
        "label": "mapping(address => uint256)",
        "numberOfBytes": "32",
        "value": "t_uint256"
      },
      "t_mapping(t_bytes32,t_address)": {
        "encoding": "mapping",
        "key": "t_bytes32",
        "label": "mapping(bytes32 => address)",
        "numberOfBytes": "32",
        "value": "t_address"
      },
      "t_mapping(t_bytes32,t_bool)": {
        "encoding": "mapping",
        "key": "t_bytes32",
        "label": "mapping(bytes32 => bool)",
        "numberOfBytes": "32",
        "value": "t_bool"
      },
      "t_mapping(t_bytes32,t_bytes32)": {
        "encoding": "mapping",
        "key": "t_bytes32",
        "label": "mapping(bytes32 => bytes32)",
        "numberOfBytes": "32",
        "value": "t_bytes32"
      },
      "t_mapping(t_bytes32,t_contract(IStableSwap)10078)": {
        "encoding": "mapping",
        "key": "t_bytes32",
        "label": "mapping(bytes32 => contract IStableSwap)",
        "numberOfBytes": "32",
        "value": "t_contract(IStableSwap)10078"
      },
      "t_mapping(t_bytes32,t_struct(ExecutedTransfer)9266_storage)": {
        "encoding": "mapping",
        "key": "t_bytes32",
        "label": "mapping(bytes32 => struct IConnext.ExecutedTransfer)",
        "numberOfBytes": "32",
        "value": "t_struct(ExecutedTransfer)9266_storage"
      },
      "t_mapping(t_bytes32,t_struct(GasInfo)9271_storage)": {
        "encoding": "mapping",
        "key": "t_bytes32",
        "label": "mapping(bytes32 => struct IConnext.GasInfo)",
        "numberOfBytes": "32",
        "value": "t_struct(GasInfo)9271_storage"
      },
      "t_struct(ExecutedTransfer)9266_storage": {
        "encoding": "inplace",
        "label": "struct IConnext.ExecutedTransfer",
        "members": [
          {
            "astId": 9263,
            "contract": "contracts/Connext.sol:Connext",
            "label": "routers",
            "offset": 0,
            "slot": "0",
            "type": "t_array(t_address)dyn_storage"
          },
          {
            "astId": 9265,
            "contract": "contracts/Connext.sol:Connext",
            "label": "amount",
            "offset": 0,
            "slot": "1",
            "type": "t_uint256"
          }
        ],
        "numberOfBytes": "64"
      },
      "t_struct(GasInfo)9271_storage": {
        "encoding": "inplace",
        "label": "struct IConnext.GasInfo",
        "members": [
          {
            "astId": 9268,
            "contract": "contracts/Connext.sol:Connext",
            "label": "gasUsed",
            "offset": 0,
            "slot": "0",
            "type": "t_uint256"
          },
          {
            "astId": 9270,
            "contract": "contracts/Connext.sol:Connext",
            "label": "gasPrice",
            "offset": 0,
            "slot": "1",
            "type": "t_uint256"
          }
        ],
        "numberOfBytes": "64"
      },
      "t_struct(RouterPermissionsManagerInfo)10784_storage": {
        "encoding": "inplace",
        "label": "struct RouterPermissionsManagerInfo",
        "members": [
          {
            "astId": 10767,
            "contract": "contracts/Connext.sol:Connext",
            "label": "approvedRouters",
            "offset": 0,
            "slot": "0",
            "type": "t_mapping(t_address,t_bool)"
          },
          {
            "astId": 10771,
            "contract": "contracts/Connext.sol:Connext",
            "label": "routerRecipients",
            "offset": 0,
            "slot": "1",
            "type": "t_mapping(t_address,t_address)"
          },
          {
            "astId": 10775,
            "contract": "contracts/Connext.sol:Connext",
            "label": "routerOwners",
            "offset": 0,
            "slot": "2",
            "type": "t_mapping(t_address,t_address)"
          },
          {
            "astId": 10779,
            "contract": "contracts/Connext.sol:Connext",
            "label": "proposedRouterOwners",
            "offset": 0,
            "slot": "3",
            "type": "t_mapping(t_address,t_address)"
          },
          {
            "astId": 10783,
            "contract": "contracts/Connext.sol:Connext",
            "label": "proposedRouterTimestamp",
            "offset": 0,
            "slot": "4",
            "type": "t_mapping(t_address,t_uint256)"
          }
        ],
        "numberOfBytes": "160"
      },
      "t_struct(TokenId)21948_storage": {
        "encoding": "inplace",
        "label": "struct BridgeMessage.TokenId",
        "members": [
          {
            "astId": 21945,
            "contract": "contracts/Connext.sol:Connext",
            "label": "domain",
            "offset": 0,
            "slot": "0",
            "type": "t_uint32"
          },
          {
            "astId": 21947,
            "contract": "contracts/Connext.sol:Connext",
            "label": "id",
            "offset": 0,
            "slot": "1",
            "type": "t_bytes32"
          }
        ],
        "numberOfBytes": "64"
      },
      "t_uint256": {
        "encoding": "inplace",
        "label": "uint256",
        "numberOfBytes": "32"
      },
      "t_uint32": {
        "encoding": "inplace",
        "label": "uint32",
        "numberOfBytes": "4"
      }
    }
  }
}