{
  "address": "0x0aBdDE7d4C7F916A154eA7b3C2b81dA9D674d9d2",
  "abi": [
    {
      "anonymous": false,
      "inputs": [
        {
          "components": [
            {
              "internalType": "address",
              "name": "facetAddress",
              "type": "address"
            },
            {
              "internalType": "enum IDiamondCut.FacetCutAction",
              "name": "action",
              "type": "uint8"
            },
            {
              "internalType": "bytes4[]",
              "name": "functionSelectors",
              "type": "bytes4[]"
            }
          ],
          "indexed": false,
          "internalType": "struct IDiamondCut.FacetCut[]",
          "name": "_diamondCut",
          "type": "tuple[]"
        },
        {
          "indexed": false,
          "internalType": "address",
          "name": "_init",
          "type": "address"
        },
        {
          "indexed": false,
          "internalType": "bytes",
          "name": "_calldata",
          "type": "bytes"
        }
      ],
      "name": "DiamondCut",
      "type": "event"
    },
    {
      "inputs": [
        {
          "components": [
            {
              "internalType": "address",
              "name": "facetAddress",
              "type": "address"
            },
            {
              "internalType": "enum IDiamondCut.FacetCutAction",
              "name": "action",
              "type": "uint8"
            },
            {
              "internalType": "bytes4[]",
              "name": "functionSelectors",
              "type": "bytes4[]"
            }
          ],
          "internalType": "struct IDiamondCut.FacetCut[]",
          "name": "_diamondCut",
          "type": "tuple[]"
        },
        {
          "internalType": "address",
          "name": "_init",
          "type": "address"
        },
        {
          "internalType": "bytes",
          "name": "_calldata",
          "type": "bytes"
        }
      ],
      "name": "diamondCut",
      "outputs": [],
      "stateMutability": "nonpayable",
      "type": "function"
    },
    {
      "inputs": [
        {
          "components": [
            {
              "internalType": "address",
              "name": "facetAddress",
              "type": "address"
            },
            {
              "internalType": "enum IDiamondCut.FacetCutAction",
              "name": "action",
              "type": "uint8"
            },
            {
              "internalType": "bytes4[]",
              "name": "functionSelectors",
              "type": "bytes4[]"
            }
          ],
          "internalType": "struct IDiamondCut.FacetCut[]",
          "name": "_diamondCut",
          "type": "tuple[]"
        },
        {
          "internalType": "address",
          "name": "_init",
          "type": "address"
        },
        {
          "internalType": "bytes",
          "name": "_calldata",
          "type": "bytes"
        }
      ],
      "name": "proposeDiamondCut",
      "outputs": [],
      "stateMutability": "nonpayable",
      "type": "function"
    },
    {
      "inputs": [
        {
          "components": [
            {
              "internalType": "address",
              "name": "facetAddress",
              "type": "address"
            },
            {
              "internalType": "enum IDiamondCut.FacetCutAction",
              "name": "action",
              "type": "uint8"
            },
            {
              "internalType": "bytes4[]",
              "name": "functionSelectors",
              "type": "bytes4[]"
            }
          ],
          "internalType": "struct IDiamondCut.FacetCut[]",
          "name": "_diamondCut",
          "type": "tuple[]"
        },
        {
          "internalType": "address",
          "name": "_init",
          "type": "address"
        },
        {
          "internalType": "bytes",
          "name": "_calldata",
          "type": "bytes"
        }
      ],
      "name": "rescindDiamondCut",
      "outputs": [],
      "stateMutability": "nonpayable",
      "type": "function"
    }
  ],
  "transactionHash": "0x443ebc73047593118b29a30de3175055703f681f1f9dfe1928f07622f6ede932",
  "args": [],
  "numDeployments": 1,
  "solcInputHash": "d8ac8947d2038f1503271c4625fa2970",
  "bytecode": "0x608060405234801561001057600080fd5b5061179d806100206000396000f3fe608060405234801561001057600080fd5b50600436106100415760003560e01c80631f931c1c146100465780632c67849c1461005b578063bbf2358e1461006e575b600080fd5b61005961005436600461112c565b610081565b005b61005961006936600461112c565b6100da565b61005961007c36600461112c565b61012c565b61008961017e565b6100d36100968587611272565b8484848080601f0160208091040260200160405190810160405280939291908181526020018383808284376000920191909152506101ef92505050565b5050505050565b6100e261017e565b6100d36100ef8587611272565b8484848080601f01602080910402602001604051908101604052809392919081815260200183838082843760009201919091525061047392505050565b61013461017e565b6100d36101418587611272565b8484848080601f01602080910402602001604051908101604052809392919081815260200183838082843760009201919091525061050692505050565b6000805160206116fc833981519152600401546001600160a01b031633146101ed5760405162461bcd60e51b815260206004820152601b60248201527f4c69624469616d6f6e643a2021636f6e7472616374206f776e6572000000000060448201526064015b60405180910390fd5b565b7fc8fcad8db84d3cc18b4c41d551ea0ee66dd599cde068d998e57d5e09332c131e546000805160206116fc8339815191529015610261576000816005016000868686604051602001610243939291906114fa565b60408051601f19818403018152919052805160209182012082520152505b60005b845181101561042757600085828151811061028157610281611538565b6020026020010151602001519050600060028111156102a2576102a26113b6565b8160028111156102b4576102b46113b6565b03610302576102fd8683815181106102ce576102ce611538565b6020026020010151600001518784815181106102ec576102ec611538565b6020026020010151604001516105ac565b610414565b6001816002811115610316576103166113b6565b0361035f576102fd86838151811061033057610330611538565b60200260200101516000015187848151811061034e5761034e611538565b602002602001015160400151610724565b6002816002811115610373576103736113b6565b036103bc576102fd86838151811061038d5761038d611538565b6020026020010151600001518784815181106103ab576103ab611538565b6020026020010151604001516108b4565b60405162461bcd60e51b815260206004820152602760248201527f4c69624469616d6f6e644375743a20496e636f727265637420466163657443756044820152663a20b1ba34b7b760c91b60648201526084016101e4565b508061041f81611564565b915050610264565b507f8faa70878671ccd212d20771b795c50af8fd3ff6cf27f4bde57e5d4de0aeb67384848460405161045b939291906114fa565b60405180910390a161046d83836109cc565b50505050565b60006000805160206116fc833981519152600501600085858560405160200161049e939291906114fa565b604051602081830303815290604052805190602001208152602001908152602001600020819055507f47b4eb69218cd939e2a72afd9d24fe3a6ca02515a6d712ff3942062df2eedbdb8383836040516104f9939291906114fa565b60405180910390a1505050565b600061051562093a804261157d565b9050806000805160206116fc8339815191526005016000868686604051602001610541939291906114fa565b604051602081830303815290604052805190602001208152602001908152602001600020819055507f6c20294df7018c510b52fd6cc0352d7b78056de164d751b75da6ef7b63daa83e8484848460405161059e9493929190611595565b60405180910390a150505050565b80516000036105cd5760405162461bcd60e51b81526004016101e4906115db565b6000805160206116fc8339815191526001600160a01b0383166106025760405162461bcd60e51b81526004016101e490611626565b6001600160a01b0383166000908152600182016020526040812054906001600160601b0382169003610638576106388285610bd9565b60005b83518110156100d357600084828151811061065857610658611538565b6020908102919091018101516001600160e01b031981166000908152918690526040909120549091506001600160a01b031680156106f65760405162461bcd60e51b815260206004820152603560248201527f4c69624469616d6f6e644375743a2043616e2774206164642066756e6374696f6044820152746e207468617420616c72656164792065786973747360581b60648201526084016101e4565b6107028583868a610c43565b8361070c81611672565b9450505050808061071c90611564565b91505061063b565b80516000036107455760405162461bcd60e51b81526004016101e4906115db565b6000805160206116fc8339815191526001600160a01b03831661077a5760405162461bcd60e51b81526004016101e490611626565b6001600160a01b0383166000908152600182016020526040812054906001600160601b03821690036107b0576107b08285610bd9565b60005b83518110156100d35760008482815181106107d0576107d0611538565b6020908102919091018101516001600160e01b031981166000908152918690526040909120549091506001600160a01b03908116908716810361087b5760405162461bcd60e51b815260206004820152603860248201527f4c69624469616d6f6e644375743a2043616e2774207265706c6163652066756e60448201527f6374696f6e20776974682073616d652066756e6374696f6e000000000000000060648201526084016101e4565b610886858284610ce3565b6108928583868a610c43565b8361089c81611672565b945050505080806108ac90611564565b9150506107b3565b80516000036108d55760405162461bcd60e51b81526004016101e4906115db565b6000805160206116fc8339815191526001600160a01b0383161561095a5760405162461bcd60e51b815260206004820152603660248201527f4c69624469616d6f6e644375743a2052656d6f76652066616365742061646472604482015275657373206d757374206265206164647265737328302960501b60648201526084016101e4565b60005b825181101561046d57600083828151811061097a5761097a611538565b6020908102919091018101516001600160e01b031981166000908152918590526040909120549091506001600160a01b03166109b7848284610ce3565b505080806109c490611564565b91505061095d565b6001600160a01b038216610a5357805115610a4f5760405162461bcd60e51b815260206004820152603c60248201527f4c69624469616d6f6e644375743a205f696e697420697320616464726573732860448201527f3029206275745f63616c6c64617461206973206e6f7420656d7074790000000060648201526084016101e4565b5050565b8051600003610aca5760405162461bcd60e51b815260206004820152603d60248201527f4c69624469616d6f6e644375743a205f63616c6c6461746120697320656d707460448201527f7920627574205f696e6974206973206e6f74206164647265737328302900000060648201526084016101e4565b6001600160a01b0382163014610afc57610afc8260405180606001604052806028815260200161171c602891396110a6565b600080836001600160a01b031683604051610b179190611698565b600060405180830381855af49150503d8060008114610b52576040519150601f19603f3d011682016040523d82523d6000602084013e610b57565b606091505b50915091508161046d57805115610b82578060405162461bcd60e51b81526004016101e491906116b4565b60405162461bcd60e51b815260206004820152602660248201527f4c69624469616d6f6e644375743a205f696e69742066756e6374696f6e2072656044820152651d995c9d195960d21b60648201526084016101e4565b610bfb81604051806060016040528060248152602001611744602491396110a6565b6002820180546001600160a01b0390921660008181526001948501602090815260408220860185905594840183559182529290200180546001600160a01b0319169091179055565b6001600160e01b0319831660008181526020868152604080832080546001600160601b03909716600160a01b026001600160a01b0397881617815594909516808352600180890183529583208054968701815583528183206008870401805460e09890981c60046007909816979097026101000a96870263ffffffff9097021990971695909517909555529290915281546001600160a01b031916179055565b6001600160a01b038216610d5f5760405162461bcd60e51b815260206004820152603760248201527f4c69624469616d6f6e644375743a2043616e27742072656d6f76652066756e6360448201527f74696f6e207468617420646f65736e277420657869737400000000000000000060648201526084016101e4565b306001600160a01b03831603610dce5760405162461bcd60e51b815260206004820152602e60248201527f4c69624469616d6f6e644375743a2043616e27742072656d6f766520696d6d7560448201526d3a30b1363290333ab731ba34b7b760911b60648201526084016101e4565b6001600160e01b03198116600090815260208481526040808320546001600160a01b0386168452600180880190935290832054600160a01b9091046001600160601b03169291610e1d916116ce565b9050808214610f0f576001600160a01b03841660009081526001860160205260408120805483908110610e5257610e52611538565b600091825260208083206008830401546001600160a01b038916845260018a019091526040909220805460079092166004026101000a90920460e01b925082919085908110610ea357610ea3611538565b600091825260208083206008830401805463ffffffff60079094166004026101000a938402191660e09590951c929092029390931790556001600160e01b03199290921682528690526040902080546001600160a01b0316600160a01b6001600160601b038516021790555b6001600160a01b03841660009081526001860160205260409020805480610f3857610f386116e5565b60008281526020808220600860001990940193840401805463ffffffff600460078716026101000a0219169055919092556001600160e01b031985168252869052604081208190558190036100d3576002850154600090610f9b906001906116ce565b6001600160a01b038616600090815260018089016020526040909120015490915080821461104a576000876002018381548110610fda57610fda611538565b6000918252602090912001546002890180546001600160a01b03909216925082918490811061100b5761100b611538565b600091825260208083209190910180546001600160a01b0319166001600160a01b03948516179055929091168152600189810190925260409020018190555b8660020180548061105d5761105d6116e5565b60008281526020808220830160001990810180546001600160a01b03191690559092019092556001600160a01b0388168252600189810190915260408220015550505050505050565b813b818161046d5760405162461bcd60e51b81526004016101e491906116b4565b80356001600160a01b03811681146110de57600080fd5b919050565b60008083601f8401126110f557600080fd5b50813567ffffffffffffffff81111561110d57600080fd5b60208301915083602082850101111561112557600080fd5b9250929050565b60008060008060006060868803121561114457600080fd5b853567ffffffffffffffff8082111561115c57600080fd5b818801915088601f83011261117057600080fd5b81358181111561117f57600080fd5b8960208260051b850101111561119457600080fd5b602083019750809650506111aa602089016110c7565b945060408801359150808211156111c057600080fd5b506111cd888289016110e3565b969995985093965092949392505050565b634e487b7160e01b600052604160045260246000fd5b6040516060810167ffffffffffffffff81118282101715611217576112176111de565b60405290565b604051601f8201601f1916810167ffffffffffffffff81118282101715611246576112466111de565b604052919050565b600067ffffffffffffffff821115611268576112686111de565b5060051b60200190565b60006112856112808461124e565b61121d565b83815260208082019190600586811b8601368111156112a357600080fd5b865b818110156113a957803567ffffffffffffffff808211156112c65760008081fd5b818a019150606082360312156112dc5760008081fd5b6112e46111f4565b6112ed836110c7565b815286830135600381106113015760008081fd5b81880152604083810135838111156113195760008081fd5b939093019236601f85011261133057600092508283fd5b833592506113406112808461124e565b83815292871b8401880192888101903685111561135d5760008081fd5b948901945b848610156113925785356001600160e01b0319811681146113835760008081fd5b82529489019490890190611362565b9183019190915250885250509483019483016112a5565b5092979650505050505050565b634e487b7160e01b600052602160045260246000fd5b600082825180855260208086019550808260051b84010181860160005b8481101561149557858303601f19018952815180516001600160a01b0316845284810151606090818601906003811061143257634e487b7160e01b600052602160045260246000fd5b86880152604092830151928601919091528151908190529085019060808501906000905b808210156114805783516001600160e01b0319168352928701929187019160019190910190611456565b505099850199935050908301906001016113e9565b5090979650505050505050565b60005b838110156114bd5781810151838201526020016114a5565b8381111561046d5750506000910152565b600081518084526114e68160208601602086016114a2565b601f01601f19169290920160200192915050565b60608152600061150d60608301866113cc565b6001600160a01b0385166020840152828103604084015261152e81856114ce565b9695505050505050565b634e487b7160e01b600052603260045260246000fd5b634e487b7160e01b600052601160045260246000fd5b6000600182016115765761157661154e565b5060010190565b600082198211156115905761159061154e565b500190565b6080815260006115a860808301876113cc565b6001600160a01b038616602084015282810360408401526115c981866114ce565b91505082606083015295945050505050565b6020808252602b908201527f4c69624469616d6f6e644375743a204e6f2073656c6563746f727320696e206660408201526a1858d95d081d1bc818dd5d60aa1b606082015260800190565b6020808252602c908201527f4c69624469616d6f6e644375743a204164642066616365742063616e2774206260408201526b65206164647265737328302960a01b606082015260800190565b60006001600160601b0380831681810361168e5761168e61154e565b6001019392505050565b600082516116aa8184602087016114a2565b9190910192915050565b6020815260006116c760208301846114ce565b9392505050565b6000828210156116e0576116e061154e565b500390565b634e487b7160e01b600052603160045260246000fdfec8fcad8db84d3cc18b4c41d551ea0ee66dd599cde068d998e57d5e09332c131c4c69624469616d6f6e644375743a205f696e6974206164647265737320686173206e6f20636f64654c69624469616d6f6e644375743a204e657720666163657420686173206e6f20636f6465a2646970667358221220f052bcbeae1fd2f10ea8e109dd0aa2d7aab67dada33b2089a3ba54e6024035b364736f6c634300080f0033",
  "devdoc": {
    "kind": "dev",
    "methods": {
      "diamondCut((address,uint8,bytes4[])[],address,bytes)": {
        "params": {
          "_calldata": "A function call, including function selector and arguments                  _calldata is executed with delegatecall on _init",
          "_diamondCut": "Contains the facet addresses and function selectors",
          "_init": "The address of the contract or facet to execute _calldata"
        }
      }
    },
    "version": 1
  },
  "userdoc": {
    "kind": "user",
    "methods": {
      "diamondCut((address,uint8,bytes4[])[],address,bytes)": {
        "notice": "Add/replace/remove any number of functions and optionally execute         a function with delegatecall"
      }
    },
    "version": 1
  },
  "storageLayout": {
    "storage": [],
    "types": null
  }
}