{
  "address": "0x88ce1a6Aa076947e1b039bD581e2498c0fbD746f",
  "abi": [
    {
      "anonymous": false,
      "inputs": [
        {
          "components": [
            {
              "internalType": "address",
              "name": "facetAddress",
              "type": "address"
            },
            {
              "internalType": "enum IDiamondCut.FacetCutAction",
              "name": "action",
              "type": "uint8"
            },
            {
              "internalType": "bytes4[]",
              "name": "functionSelectors",
              "type": "bytes4[]"
            }
          ],
          "indexed": false,
          "internalType": "struct IDiamondCut.FacetCut[]",
          "name": "_diamondCut",
          "type": "tuple[]"
        },
        {
          "indexed": false,
          "internalType": "address",
          "name": "_init",
          "type": "address"
        },
        {
          "indexed": false,
          "internalType": "bytes",
          "name": "_calldata",
          "type": "bytes"
        }
      ],
      "name": "DiamondCut",
      "type": "event"
    },
    {
      "inputs": [
        {
          "components": [
            {
              "internalType": "address",
              "name": "facetAddress",
              "type": "address"
            },
            {
              "internalType": "enum IDiamondCut.FacetCutAction",
              "name": "action",
              "type": "uint8"
            },
            {
              "internalType": "bytes4[]",
              "name": "functionSelectors",
              "type": "bytes4[]"
            }
          ],
          "internalType": "struct IDiamondCut.FacetCut[]",
          "name": "_diamondCut",
          "type": "tuple[]"
        },
        {
          "internalType": "address",
          "name": "_init",
          "type": "address"
        },
        {
          "internalType": "bytes",
          "name": "_calldata",
          "type": "bytes"
        }
      ],
      "name": "diamondCut",
      "outputs": [],
      "stateMutability": "nonpayable",
      "type": "function"
    },
    {
      "inputs": [
        {
          "components": [
            {
              "internalType": "address",
              "name": "facetAddress",
              "type": "address"
            },
            {
              "internalType": "enum IDiamondCut.FacetCutAction",
              "name": "action",
              "type": "uint8"
            },
            {
              "internalType": "bytes4[]",
              "name": "functionSelectors",
              "type": "bytes4[]"
            }
          ],
          "internalType": "struct IDiamondCut.FacetCut[]",
          "name": "_diamondCut",
          "type": "tuple[]"
        },
        {
          "internalType": "address",
          "name": "_init",
          "type": "address"
        },
        {
          "internalType": "bytes",
          "name": "_calldata",
          "type": "bytes"
        }
      ],
      "name": "proposeDiamondCut",
      "outputs": [],
      "stateMutability": "nonpayable",
      "type": "function"
    },
    {
      "inputs": [
        {
          "components": [
            {
              "internalType": "address",
              "name": "facetAddress",
              "type": "address"
            },
            {
              "internalType": "enum IDiamondCut.FacetCutAction",
              "name": "action",
              "type": "uint8"
            },
            {
              "internalType": "bytes4[]",
              "name": "functionSelectors",
              "type": "bytes4[]"
            }
          ],
          "internalType": "struct IDiamondCut.FacetCut[]",
          "name": "_diamondCut",
          "type": "tuple[]"
        },
        {
          "internalType": "address",
          "name": "_init",
          "type": "address"
        },
        {
          "internalType": "bytes",
          "name": "_calldata",
          "type": "bytes"
        }
      ],
      "name": "rescindDiamondCut",
      "outputs": [],
      "stateMutability": "nonpayable",
      "type": "function"
    }
  ],
  "transactionHash": "0xfe8950409c9569f20b692dd6ef62d25d1b155beb739c7e500db01c77a617315e",
  "args": [],
  "numDeployments": 1,
  "solcInputHash": "28a1680f8c9b96a6e25163563e7c895e",
  "bytecode": "0x608060405234801561001057600080fd5b50611801806100206000396000f3fe608060405234801561001057600080fd5b50600436106100415760003560e01c80631f931c1c146100465780632c67849c1461005b578063bbf2358e1461006e575b600080fd5b610059610054366004611193565b610081565b005b610059610069366004611193565b6100da565b61005961007c366004611193565b61012c565b61008961017e565b6100d361009685876112d9565b8484848080601f0160208091040260200160405190810160405280939291908181526020018383808284376000920191909152506101ef92505050565b5050505050565b6100e261017e565b6100d36100ef85876112d9565b8484848080601f0160208091040260200160405190810160405280939291908181526020018383808284376000920191909152506104da92505050565b61013461017e565b6100d361014185876112d9565b8484848080601f01602080910402602001604051908101604052809392919081815260200183838082843760009201919091525061056d92505050565b600080516020611760833981519152600401546001600160a01b031633146101ed5760405162461bcd60e51b815260206004820152601b60248201527f4c69624469616d6f6e643a2021636f6e7472616374206f776e6572000000000060448201526064015b60405180910390fd5b565b7fc8fcad8db84d3cc18b4c41d551ea0ee66dd599cde068d998e57d5e09332c131e5460008051602061176083398151915290156102c85760008160050160008686866040516020016102439392919061155e565b6040516020818303038152906040528051906020012081526020019081526020016000205490508060001415801561027a57504281105b6102c65760405162461bcd60e51b815260206004820152601d60248201527f4c69624469616d6f6e643a2064656c6179206e6f7420656c617073656400000060448201526064016101e4565b505b60005b845181101561048e5760008582815181106102e8576102e861159c565b6020026020010151602001519050600060028111156103095761030961141d565b81600281111561031b5761031b61141d565b03610369576103648683815181106103355761033561159c565b6020026020010151600001518784815181106103535761035361159c565b602002602001015160400151610613565b61047b565b600181600281111561037d5761037d61141d565b036103c6576103648683815181106103975761039761159c565b6020026020010151600001518784815181106103b5576103b561159c565b60200260200101516040015161078b565b60028160028111156103da576103da61141d565b03610423576103648683815181106103f4576103f461159c565b6020026020010151600001518784815181106104125761041261159c565b60200260200101516040015161091b565b60405162461bcd60e51b815260206004820152602760248201527f4c69624469616d6f6e644375743a20496e636f727265637420466163657443756044820152663a20b1ba34b7b760c91b60648201526084016101e4565b5080610486816115c8565b9150506102cb565b507f8faa70878671ccd212d20771b795c50af8fd3ff6cf27f4bde57e5d4de0aeb6738484846040516104c29392919061155e565b60405180910390a16104d48383610a33565b50505050565b600060008051602061176083398151915260050160008585856040516020016105059392919061155e565b604051602081830303815290604052805190602001208152602001908152602001600020819055507f47b4eb69218cd939e2a72afd9d24fe3a6ca02515a6d712ff3942062df2eedbdb8383836040516105609392919061155e565b60405180910390a1505050565b600061057c62093a80426115e1565b90508060008051602061176083398151915260050160008686866040516020016105a89392919061155e565b604051602081830303815290604052805190602001208152602001908152602001600020819055507f6c20294df7018c510b52fd6cc0352d7b78056de164d751b75da6ef7b63daa83e8484848460405161060594939291906115f9565b60405180910390a150505050565b80516000036106345760405162461bcd60e51b81526004016101e49061163f565b6000805160206117608339815191526001600160a01b0383166106695760405162461bcd60e51b81526004016101e49061168a565b6001600160a01b0383166000908152600182016020526040812054906001600160601b038216900361069f5761069f8285610c40565b60005b83518110156100d35760008482815181106106bf576106bf61159c565b6020908102919091018101516001600160e01b031981166000908152918690526040909120549091506001600160a01b0316801561075d5760405162461bcd60e51b815260206004820152603560248201527f4c69624469616d6f6e644375743a2043616e2774206164642066756e6374696f6044820152746e207468617420616c72656164792065786973747360581b60648201526084016101e4565b6107698583868a610caa565b83610773816116d6565b94505050508080610783906115c8565b9150506106a2565b80516000036107ac5760405162461bcd60e51b81526004016101e49061163f565b6000805160206117608339815191526001600160a01b0383166107e15760405162461bcd60e51b81526004016101e49061168a565b6001600160a01b0383166000908152600182016020526040812054906001600160601b0382169003610817576108178285610c40565b60005b83518110156100d35760008482815181106108375761083761159c565b6020908102919091018101516001600160e01b031981166000908152918690526040909120549091506001600160a01b0390811690871681036108e25760405162461bcd60e51b815260206004820152603860248201527f4c69624469616d6f6e644375743a2043616e2774207265706c6163652066756e60448201527f6374696f6e20776974682073616d652066756e6374696f6e000000000000000060648201526084016101e4565b6108ed858284610d4a565b6108f98583868a610caa565b83610903816116d6565b94505050508080610913906115c8565b91505061081a565b805160000361093c5760405162461bcd60e51b81526004016101e49061163f565b6000805160206117608339815191526001600160a01b038316156109c15760405162461bcd60e51b815260206004820152603660248201527f4c69624469616d6f6e644375743a2052656d6f76652066616365742061646472604482015275657373206d757374206265206164647265737328302960501b60648201526084016101e4565b60005b82518110156104d45760008382815181106109e1576109e161159c565b6020908102919091018101516001600160e01b031981166000908152918590526040909120549091506001600160a01b0316610a1e848284610d4a565b50508080610a2b906115c8565b9150506109c4565b6001600160a01b038216610aba57805115610ab65760405162461bcd60e51b815260206004820152603c60248201527f4c69624469616d6f6e644375743a205f696e697420697320616464726573732860448201527f3029206275745f63616c6c64617461206973206e6f7420656d7074790000000060648201526084016101e4565b5050565b8051600003610b315760405162461bcd60e51b815260206004820152603d60248201527f4c69624469616d6f6e644375743a205f63616c6c6461746120697320656d707460448201527f7920627574205f696e6974206973206e6f74206164647265737328302900000060648201526084016101e4565b6001600160a01b0382163014610b6357610b63826040518060600160405280602881526020016117806028913961110d565b600080836001600160a01b031683604051610b7e91906116fc565b600060405180830381855af49150503d8060008114610bb9576040519150601f19603f3d011682016040523d82523d6000602084013e610bbe565b606091505b5091509150816104d457805115610be9578060405162461bcd60e51b81526004016101e49190611718565b60405162461bcd60e51b815260206004820152602660248201527f4c69624469616d6f6e644375743a205f696e69742066756e6374696f6e2072656044820152651d995c9d195960d21b60648201526084016101e4565b610c62816040518060600160405280602481526020016117a86024913961110d565b6002820180546001600160a01b0390921660008181526001948501602090815260408220860185905594840183559182529290200180546001600160a01b0319169091179055565b6001600160e01b0319831660008181526020868152604080832080546001600160601b03909716600160a01b026001600160a01b0397881617815594909516808352600180890183529583208054968701815583528183206008870401805460e09890981c60046007909816979097026101000a96870263ffffffff9097021990971695909517909555529290915281546001600160a01b031916179055565b6001600160a01b038216610dc65760405162461bcd60e51b815260206004820152603760248201527f4c69624469616d6f6e644375743a2043616e27742072656d6f76652066756e6360448201527f74696f6e207468617420646f65736e277420657869737400000000000000000060648201526084016101e4565b306001600160a01b03831603610e355760405162461bcd60e51b815260206004820152602e60248201527f4c69624469616d6f6e644375743a2043616e27742072656d6f766520696d6d7560448201526d3a30b1363290333ab731ba34b7b760911b60648201526084016101e4565b6001600160e01b03198116600090815260208481526040808320546001600160a01b0386168452600180880190935290832054600160a01b9091046001600160601b03169291610e8491611732565b9050808214610f76576001600160a01b03841660009081526001860160205260408120805483908110610eb957610eb961159c565b600091825260208083206008830401546001600160a01b038916845260018a019091526040909220805460079092166004026101000a90920460e01b925082919085908110610f0a57610f0a61159c565b600091825260208083206008830401805463ffffffff60079094166004026101000a938402191660e09590951c929092029390931790556001600160e01b03199290921682528690526040902080546001600160a01b0316600160a01b6001600160601b038516021790555b6001600160a01b03841660009081526001860160205260409020805480610f9f57610f9f611749565b60008281526020808220600860001990940193840401805463ffffffff600460078716026101000a0219169055919092556001600160e01b031985168252869052604081208190558190036100d357600285015460009061100290600190611732565b6001600160a01b03861660009081526001808901602052604090912001549091508082146110b15760008760020183815481106110415761104161159c565b6000918252602090912001546002890180546001600160a01b0390921692508291849081106110725761107261159c565b600091825260208083209190910180546001600160a01b0319166001600160a01b03948516179055929091168152600189810190925260409020018190555b866002018054806110c4576110c4611749565b60008281526020808220830160001990810180546001600160a01b03191690559092019092556001600160a01b0388168252600189810190915260408220015550505050505050565b813b81816104d45760405162461bcd60e51b81526004016101e49190611718565b80356001600160a01b038116811461114557600080fd5b919050565b60008083601f84011261115c57600080fd5b50813567ffffffffffffffff81111561117457600080fd5b60208301915083602082850101111561118c57600080fd5b9250929050565b6000806000806000606086880312156111ab57600080fd5b853567ffffffffffffffff808211156111c357600080fd5b818801915088601f8301126111d757600080fd5b8135818111156111e657600080fd5b8960208260051b85010111156111fb57600080fd5b602083019750809650506112116020890161112e565b9450604088013591508082111561122757600080fd5b506112348882890161114a565b969995985093965092949392505050565b634e487b7160e01b600052604160045260246000fd5b6040516060810167ffffffffffffffff8111828210171561127e5761127e611245565b60405290565b604051601f8201601f1916810167ffffffffffffffff811182821017156112ad576112ad611245565b604052919050565b600067ffffffffffffffff8211156112cf576112cf611245565b5060051b60200190565b60006112ec6112e7846112b5565b611284565b83815260208082019190600586811b86013681111561130a57600080fd5b865b8181101561141057803567ffffffffffffffff8082111561132d5760008081fd5b818a019150606082360312156113435760008081fd5b61134b61125b565b6113548361112e565b815286830135600381106113685760008081fd5b81880152604083810135838111156113805760008081fd5b939093019236601f85011261139757600092508283fd5b833592506113a76112e7846112b5565b83815292871b840188019288810190368511156113c45760008081fd5b948901945b848610156113f95785356001600160e01b0319811681146113ea5760008081fd5b825294890194908901906113c9565b91830191909152508852505094830194830161130c565b5092979650505050505050565b634e487b7160e01b600052602160045260246000fd5b600081518084526020808501808196508360051b8101915082860160005b858110156114f9578284038952815180516001600160a01b0316855285810151606090818701906003811061149657634e487b7160e01b600052602160045260246000fd5b87890152604092830151928701919091528151908190529086019060808601906000905b808210156114e45783516001600160e01b03191683529288019291880191600191909101906114ba565b50509986019994505090840190600101611451565b5091979650505050505050565b60005b83811015611521578181015183820152602001611509565b838111156104d45750506000910152565b6000815180845261154a816020860160208601611506565b601f01601f19169290920160200192915050565b6060815260006115716060830186611433565b6001600160a01b038516602084015282810360408401526115928185611532565b9695505050505050565b634e487b7160e01b600052603260045260246000fd5b634e487b7160e01b600052601160045260246000fd5b6000600182016115da576115da6115b2565b5060010190565b600082198211156115f4576115f46115b2565b500190565b60808152600061160c6080830187611433565b6001600160a01b0386166020840152828103604084015261162d8186611532565b91505082606083015295945050505050565b6020808252602b908201527f4c69624469616d6f6e644375743a204e6f2073656c6563746f727320696e206660408201526a1858d95d081d1bc818dd5d60aa1b606082015260800190565b6020808252602c908201527f4c69624469616d6f6e644375743a204164642066616365742063616e2774206260408201526b65206164647265737328302960a01b606082015260800190565b60006001600160601b038083168181036116f2576116f26115b2565b6001019392505050565b6000825161170e818460208701611506565b9190910192915050565b60208152600061172b6020830184611532565b9392505050565b600082821015611744576117446115b2565b500390565b634e487b7160e01b600052603160045260246000fdfec8fcad8db84d3cc18b4c41d551ea0ee66dd599cde068d998e57d5e09332c131c4c69624469616d6f6e644375743a205f696e6974206164647265737320686173206e6f20636f64654c69624469616d6f6e644375743a204e657720666163657420686173206e6f20636f6465a26469706673582212208831f42b4c08e88a940ffb4cbb09501a4df2e2a3789f0e0484cc4566f03d9f1064736f6c634300080f0033",
  "devdoc": {
    "kind": "dev",
    "methods": {
      "diamondCut((address,uint8,bytes4[])[],address,bytes)": {
        "params": {
          "_calldata": "A function call, including function selector and arguments                  _calldata is executed with delegatecall on _init",
          "_diamondCut": "Contains the facet addresses and function selectors",
          "_init": "The address of the contract or facet to execute _calldata"
        }
      }
    },
    "version": 1
  },
  "userdoc": {
    "kind": "user",
    "methods": {
      "diamondCut((address,uint8,bytes4[])[],address,bytes)": {
        "notice": "Add/replace/remove any number of functions and optionally execute         a function with delegatecall"
      }
    },
    "version": 1
  },
  "storageLayout": {
    "storage": [],
    "types": null
  }
}