{
  "address": "0xd5b54774480646E6921220a3Bf8CaA361337E1D4",
  "abi": [
    {
      "inputs": [],
      "name": "BaseConnextFacet__nonReentrant_reentrantCall",
      "type": "error"
    },
    {
      "inputs": [],
      "name": "BaseConnextFacet__onlyOwner_notOwner",
      "type": "error"
    },
    {
      "inputs": [],
      "name": "BaseConnextFacet__onlyProposed_notProposedOwner",
      "type": "error"
    },
    {
      "inputs": [],
      "name": "BaseConnextFacet__onlyRemoteRouter_notRemoteRouter",
      "type": "error"
    },
    {
      "inputs": [],
      "name": "BaseConnextFacet__onlyReplica_notReplica",
      "type": "error"
    },
    {
      "inputs": [],
      "name": "BaseConnextFacet__whenNotPaused_paused",
      "type": "error"
    },
    {
      "inputs": [],
      "name": "RelayerFacet__addRelayer_alreadyApproved",
      "type": "error"
    },
    {
      "inputs": [],
      "name": "RelayerFacet__initiateClaim_emptyClaim",
      "type": "error"
    },
    {
      "inputs": [
        {
          "internalType": "bytes32",
          "name": "transferId",
          "type": "bytes32"
        }
      ],
      "name": "RelayerFacet__initiateClaim_notRelayer",
      "type": "error"
    },
    {
      "inputs": [],
      "name": "RelayerFacet__onlyRelayerFeeRouter_notRelayerFeeRouter",
      "type": "error"
    },
    {
      "inputs": [],
      "name": "RelayerFacet__removeRelayer_notApproved",
      "type": "error"
    },
    {
      "inputs": [],
      "name": "RelayerFacet__setRelayerFeeRouter_invalidRelayerFeeRouter",
      "type": "error"
    },
    {
      "anonymous": false,
      "inputs": [
        {
          "indexed": true,
          "internalType": "address",
          "name": "recipient",
          "type": "address"
        },
        {
          "indexed": false,
          "internalType": "uint256",
          "name": "total",
          "type": "uint256"
        },
        {
          "indexed": false,
          "internalType": "bytes32[]",
          "name": "transferIds",
          "type": "bytes32[]"
        }
      ],
      "name": "Claimed",
      "type": "event"
    },
    {
      "anonymous": false,
      "inputs": [
        {
          "indexed": true,
          "internalType": "uint32",
          "name": "domain",
          "type": "uint32"
        },
        {
          "indexed": true,
          "internalType": "address",
          "name": "recipient",
          "type": "address"
        },
        {
          "indexed": false,
          "internalType": "address",
          "name": "caller",
          "type": "address"
        },
        {
          "indexed": false,
          "internalType": "bytes32[]",
          "name": "transferIds",
          "type": "bytes32[]"
        }
      ],
      "name": "InitiatedClaim",
      "type": "event"
    },
    {
      "anonymous": false,
      "inputs": [
        {
          "indexed": false,
          "internalType": "address",
          "name": "relayer",
          "type": "address"
        },
        {
          "indexed": false,
          "internalType": "address",
          "name": "caller",
          "type": "address"
        }
      ],
      "name": "RelayerAdded",
      "type": "event"
    },
    {
      "anonymous": false,
      "inputs": [
        {
          "indexed": false,
          "internalType": "address",
          "name": "oldRouter",
          "type": "address"
        },
        {
          "indexed": false,
          "internalType": "address",
          "name": "newRouter",
          "type": "address"
        },
        {
          "indexed": false,
          "internalType": "address",
          "name": "caller",
          "type": "address"
        }
      ],
      "name": "RelayerFeeRouterUpdated",
      "type": "event"
    },
    {
      "anonymous": false,
      "inputs": [
        {
          "indexed": false,
          "internalType": "address",
          "name": "relayer",
          "type": "address"
        },
        {
          "indexed": false,
          "internalType": "address",
          "name": "caller",
          "type": "address"
        }
      ],
      "name": "RelayerRemoved",
      "type": "event"
    },
    {
      "inputs": [
        {
          "internalType": "address",
          "name": "_relayer",
          "type": "address"
        }
      ],
      "name": "addRelayer",
      "outputs": [],
      "stateMutability": "nonpayable",
      "type": "function"
    },
    {
      "inputs": [
        {
          "internalType": "address",
          "name": "_relayer",
          "type": "address"
        }
      ],
      "name": "approvedRelayers",
      "outputs": [
        {
          "internalType": "bool",
          "name": "",
          "type": "bool"
        }
      ],
      "stateMutability": "view",
      "type": "function"
    },
    {
      "inputs": [
        {
          "internalType": "address",
          "name": "_recipient",
          "type": "address"
        },
        {
          "internalType": "bytes32[]",
          "name": "_transferIds",
          "type": "bytes32[]"
        }
      ],
      "name": "claim",
      "outputs": [],
      "stateMutability": "nonpayable",
      "type": "function"
    },
    {
      "inputs": [
        {
          "internalType": "uint32",
          "name": "_domain",
          "type": "uint32"
        },
        {
          "internalType": "address",
          "name": "_recipient",
          "type": "address"
        },
        {
          "internalType": "bytes32[]",
          "name": "_transferIds",
          "type": "bytes32[]"
        }
      ],
      "name": "initiateClaim",
      "outputs": [],
      "stateMutability": "nonpayable",
      "type": "function"
    },
    {
      "inputs": [],
      "name": "relayerFeeRouter",
      "outputs": [
        {
          "internalType": "contract RelayerFeeRouter",
          "name": "",
          "type": "address"
        }
      ],
      "stateMutability": "view",
      "type": "function"
    },
    {
      "inputs": [
        {
          "internalType": "address",
          "name": "_relayer",
          "type": "address"
        }
      ],
      "name": "removeRelayer",
      "outputs": [],
      "stateMutability": "nonpayable",
      "type": "function"
    },
    {
      "inputs": [
        {
          "internalType": "address",
          "name": "_relayerFeeRouter",
          "type": "address"
        }
      ],
      "name": "setRelayerFeeRouter",
      "outputs": [],
      "stateMutability": "nonpayable",
      "type": "function"
    },
    {
      "inputs": [
        {
          "internalType": "bytes32",
          "name": "_transferId",
          "type": "bytes32"
        }
      ],
      "name": "transferRelayer",
      "outputs": [
        {
          "internalType": "address",
          "name": "",
          "type": "address"
        }
      ],
      "stateMutability": "view",
      "type": "function"
    }
  ],
  "transactionHash": "0x0c9e83c4ba31912c78d216f5b39bb6271286f6f30d7e160637668d8bfb36df9d",
  "args": [],
  "numDeployments": 1,
  "solcInputHash": "28a1680f8c9b96a6e25163563e7c895e",
  "bytecode": "0x608060405234801561001057600080fd5b50610a4e806100206000396000f3fe608060405234801561001057600080fd5b50600436106100885760003560e01c8063cf9737691161005b578063cf97376914610109578063d7aada811461012e578063dd39f00d14610141578063f40fec521461015457600080fd5b806324fc7a311461008d578063468f6668146100a257806360f0a5ac146100b55780638cba8b6a146100c8575b600080fd5b6100a061009b3660046107dd565b61017d565b005b6100a06100b036600461084b565b610257565b6100a06100c33660046107dd565b6103ea565b6100f46100d63660046107dd565b6001600160a01b031660009081526010602052604090205460ff1690565b60405190151581526020015b60405180910390f35b6003546001600160a01b03165b6040516001600160a01b039091168152602001610100565b6100a061013c3660046108b7565b6104b0565b6100a061014f3660046107dd565b6105b2565b61011661016236600461090a565b6000908152601260205260409020546001600160a01b031690565b33610186610675565b6001600160a01b0316146101ad576040516314e74a2560e21b815260040160405180910390fd5b6003546001600160a01b039081169082168114806101d357506001600160a01b0382163b155b156101f15760405163158449a960e31b815260040160405180910390fd5b600380546001600160a01b0319166001600160a01b03848116918217909255604080519284168352602083019190915233908201527fc4790440370ddadab246fe4bd425061ed47a1dd48d071a025d0523ee4a4d9f009060600160405180910390a15050565b60265460ff161561027b57604051633ee5b89360e01b815260040160405180910390fd5b80600081900361029e5760405163a8977ec160e01b815260040160405180910390fd5b60005b8181101561032e5733601260008686858181106102c0576102c0610923565b60209081029290920135835250810191909152604001600020546001600160a01b031614610326578383828181106102fa576102fa610923565b90506020020135604051633eb73d9960e11b815260040161031d91815260200190565b60405180910390fd5b6001016102a1565b5060035460405163d7d680a360e01b81526001600160a01b039091169063d7d680a39061036590889088908890889060040161096f565b600060405180830381600087803b15801561037f57600080fd5b505af1158015610393573d6000803e3d6000fd5b50505050836001600160a01b03168563ffffffff167f68a0b54b1aeae4bd0cc4fabefe2e6c06c6197fbbcf2122402e017620bdf0b41c3386866040516103db939291906109aa565b60405180910390a35050505050565b336103f3610675565b6001600160a01b03161461041a576040516314e74a2560e21b815260040160405180910390fd5b6001600160a01b03811660009081526010602052604090205460ff166104535760405163050d2e7760e21b815260040160405180910390fd5b6001600160a01b038116600081815260106020908152604091829020805460ff19169055815192835233908301527f0bdcf1d6f29aa87af8131cc81dcbb295fcf98d71cfcdc79cc5d965317bae1d0a91015b60405180910390a150565b6003546001600160a01b031633146104db57604051630600057d60e41b815260040160405180910390fd5b806000805b8281101561055b57601160008686848181106104fe576104fe610923565b905060200201358152602001908152602001600020548261051f91906109d8565b91506011600086868481811061053757610537610923565b905060200201358152602001908152602001600020600090558060010190506104e0565b5061056685826106a3565b846001600160a01b03167f2bfaaa152bcd96bf9b286ad5528d510fe2a107a182c7e42aefb7f0e1130bb3718286866040516105a3939291906109fe565b60405180910390a25050505050565b336105bb610675565b6001600160a01b0316146105e2576040516314e74a2560e21b815260040160405180910390fd5b6001600160a01b03811660009081526010602052604090205460ff161561061c576040516317a65d9f60e31b815260040160405180910390fd5b6001600160a01b038116600081815260106020908152604091829020805460ff19166001179055815192835233908301527fd756b9aee10d6f2c80dc42c5031beb0e0847f6e1d6ba50199bdfc3f0de5cc0cc91016104a5565b7fc8fcad8db84d3cc18b4c41d551ea0ee66dd599cde068d998e57d5e09332c1320546001600160a01b031690565b804710156106f35760405162461bcd60e51b815260206004820152601d60248201527f416464726573733a20696e73756666696369656e742062616c616e6365000000604482015260640161031d565b6000826001600160a01b03168260405160006040518083038185875af1925050503d8060008114610740576040519150601f19603f3d011682016040523d82523d6000602084013e610745565b606091505b50509050806107bc5760405162461bcd60e51b815260206004820152603a60248201527f416464726573733a20756e61626c6520746f2073656e642076616c75652c207260448201527f6563697069656e74206d61792068617665207265766572746564000000000000606482015260840161031d565b505050565b80356001600160a01b03811681146107d857600080fd5b919050565b6000602082840312156107ef57600080fd5b6107f8826107c1565b9392505050565b60008083601f84011261081157600080fd5b50813567ffffffffffffffff81111561082957600080fd5b6020830191508360208260051b850101111561084457600080fd5b9250929050565b6000806000806060858703121561086157600080fd5b843563ffffffff8116811461087557600080fd5b9350610883602086016107c1565b9250604085013567ffffffffffffffff81111561089f57600080fd5b6108ab878288016107ff565b95989497509550505050565b6000806000604084860312156108cc57600080fd5b6108d5846107c1565b9250602084013567ffffffffffffffff8111156108f157600080fd5b6108fd868287016107ff565b9497909650939450505050565b60006020828403121561091c57600080fd5b5035919050565b634e487b7160e01b600052603260045260246000fd5b81835260006001600160fb1b0383111561095257600080fd5b8260051b8083602087013760009401602001938452509192915050565b63ffffffff851681526001600160a01b03841660208201526060604082018190526000906109a09083018486610939565b9695505050505050565b6001600160a01b03841681526040602082018190526000906109cf9083018486610939565b95945050505050565b600082198211156109f957634e487b7160e01b600052601160045260246000fd5b500190565b8381526040602082015260006109cf60408301848661093956fea26469706673582212203d19de2f84b780ca167a6312fbb50da2c0aaef88fb274f90659142752387fc1b64736f6c634300080f0033",
  "devdoc": {
    "events": {
      "Claimed(address,uint256,bytes32[])": {
        "params": {
          "recipient": "- Address on origin chain to send claimed funds to",
          "total": "- Total amount claimed",
          "transferIds": "- TransferIds to claim"
        }
      },
      "InitiatedClaim(uint32,address,address,bytes32[])": {
        "params": {
          "caller": "- The account that called the function",
          "domain": "- Domain to claim funds on",
          "recipient": "- Address on origin chain to send claimed funds to",
          "transferIds": "- TransferIds to claim"
        }
      },
      "RelayerAdded(address,address)": {
        "params": {
          "caller": "- The account that called the function",
          "relayer": "- The relayer address to be added or removed"
        }
      },
      "RelayerFeeRouterUpdated(address,address,address)": {
        "params": {
          "caller": "- The account that called the function",
          "newRouter": "- The relayerFeeRouter new value",
          "oldRouter": "- The relayerFeeRouter old value"
        }
      },
      "RelayerRemoved(address,address)": {
        "params": {
          "caller": "- The account that called the function",
          "relayer": "- The relayer address to be added or removed"
        }
      }
    },
    "kind": "dev",
    "methods": {
      "addRelayer(address)": {
        "params": {
          "_relayer": "- The relayer address to add"
        }
      },
      "claim(address,bytes32[])": {
        "details": "Called by the RelayerFeeRouter.handle message. The validity of the transferIds is asserted before dispatching the message.",
        "params": {
          "_recipient": "- address on origin chain to send claimed funds to",
          "_transferIds": "- transferIds to claim"
        }
      },
      "initiateClaim(uint32,address,bytes32[])": {
        "details": "Domain should be the origin domain of all the transfer IDs.",
        "params": {
          "_domain": "- domain to claim funds on",
          "_recipient": "- address on origin chain to send claimed funds to",
          "_transferIds": "- transferIds to claim"
        }
      },
      "removeRelayer(address)": {
        "params": {
          "_relayer": "- The relayer address to remove"
        }
      },
      "setRelayerFeeRouter(address)": {
        "params": {
          "_relayerFeeRouter": "The address of the new router"
        }
      }
    },
    "version": 1
  },
  "userdoc": {
    "events": {
      "Claimed(address,uint256,bytes32[])": {
        "notice": "Emitted when `claim` is called on the origin domain"
      },
      "InitiatedClaim(uint32,address,address,bytes32[])": {
        "notice": "Emitted when `initiateClaim` is called on the destination chain"
      },
      "RelayerAdded(address,address)": {
        "notice": "Emitted when a relayer is added or removed from whitelists"
      },
      "RelayerFeeRouterUpdated(address,address,address)": {
        "notice": "Emitted when the relayerFeeRouter variable is updated"
      },
      "RelayerRemoved(address,address)": {
        "notice": "Emitted when a relayer is added or removed from whitelists"
      }
    },
    "kind": "user",
    "methods": {
      "addRelayer(address)": {
        "notice": "Used to add approved relayer"
      },
      "claim(address,bytes32[])": {
        "notice": "Pays out a relayer for the given fees"
      },
      "initiateClaim(uint32,address,bytes32[])": {
        "notice": "Called by relayer when they want to claim owed funds on a given domain."
      },
      "removeRelayer(address)": {
        "notice": "Used to remove approved relayer"
      },
      "setRelayerFeeRouter(address)": {
        "notice": "Updates the relayer fee router"
      }
    },
    "version": 1
  },
  "storageLayout": {
    "storage": [
      {
        "astId": 5318,
        "contract": "contracts/core/connext/facets/RelayerFacet.sol:RelayerFacet",
        "label": "s",
        "offset": 0,
        "slot": "0",
        "type": "t_struct(AppStorage)20695_storage"
      }
    ],
    "types": {
      "t_address": {
        "encoding": "inplace",
        "label": "address",
        "numberOfBytes": "20"
      },
      "t_array(t_address)dyn_storage": {
        "base": "t_address",
        "encoding": "dynamic_array",
        "label": "address[]",
        "numberOfBytes": "32"
      },
      "t_array(t_contract(IERC20)3290)dyn_storage": {
        "base": "t_contract(IERC20)3290",
        "encoding": "dynamic_array",
        "label": "contract IERC20[]",
        "numberOfBytes": "32"
      },
      "t_array(t_uint256)dyn_storage": {
        "base": "t_uint256",
        "encoding": "dynamic_array",
        "label": "uint256[]",
        "numberOfBytes": "32"
      },
      "t_bool": {
        "encoding": "inplace",
        "label": "bool",
        "numberOfBytes": "1"
      },
      "t_bytes32": {
        "encoding": "inplace",
        "label": "bytes32",
        "numberOfBytes": "32"
      },
      "t_contract(IERC20)3290": {
        "encoding": "inplace",
        "label": "contract IERC20",
        "numberOfBytes": "20"
      },
      "t_contract(IExecutor)17941": {
        "encoding": "inplace",
        "label": "contract IExecutor",
        "numberOfBytes": "20"
      },
      "t_contract(ISponsorVault)18003": {
        "encoding": "inplace",
        "label": "contract ISponsorVault",
        "numberOfBytes": "20"
      },
      "t_contract(IStableSwap)18313": {
        "encoding": "inplace",
        "label": "contract IStableSwap",
        "numberOfBytes": "20"
      },
      "t_contract(ITokenRegistry)18402": {
        "encoding": "inplace",
        "label": "contract ITokenRegistry",
        "numberOfBytes": "20"
      },
      "t_contract(IWrapped)18413": {
        "encoding": "inplace",
        "label": "contract IWrapped",
        "numberOfBytes": "20"
      },
      "t_contract(LPToken)13942": {
        "encoding": "inplace",
        "label": "contract LPToken",
        "numberOfBytes": "20"
      },
      "t_contract(PromiseRouter)26221": {
        "encoding": "inplace",
        "label": "contract PromiseRouter",
        "numberOfBytes": "20"
      },
      "t_contract(RelayerFeeRouter)26783": {
        "encoding": "inplace",
        "label": "contract RelayerFeeRouter",
        "numberOfBytes": "20"
      },
      "t_contract(XAppConnectionManager)29391": {
        "encoding": "inplace",
        "label": "contract XAppConnectionManager",
        "numberOfBytes": "20"
      },
      "t_mapping(t_address,t_address)": {
        "encoding": "mapping",
        "key": "t_address",
        "label": "mapping(address => address)",
        "numberOfBytes": "32",
        "value": "t_address"
      },
      "t_mapping(t_address,t_bool)": {
        "encoding": "mapping",
        "key": "t_address",
        "label": "mapping(address => bool)",
        "numberOfBytes": "32",
        "value": "t_bool"
      },
      "t_mapping(t_address,t_mapping(t_address,t_uint256))": {
        "encoding": "mapping",
        "key": "t_address",
        "label": "mapping(address => mapping(address => uint256))",
        "numberOfBytes": "32",
        "value": "t_mapping(t_address,t_uint256)"
      },
      "t_mapping(t_address,t_struct(TokenId)19702_storage)": {
        "encoding": "mapping",
        "key": "t_address",
        "label": "mapping(address => struct ConnextMessage.TokenId)",
        "numberOfBytes": "32",
        "value": "t_struct(TokenId)19702_storage"
      },
      "t_mapping(t_address,t_uint256)": {
        "encoding": "mapping",
        "key": "t_address",
        "label": "mapping(address => uint256)",
        "numberOfBytes": "32",
        "value": "t_uint256"
      },
      "t_mapping(t_address,t_uint8)": {
        "encoding": "mapping",
        "key": "t_address",
        "label": "mapping(address => uint8)",
        "numberOfBytes": "32",
        "value": "t_uint8"
      },
      "t_mapping(t_bytes32,t_address)": {
        "encoding": "mapping",
        "key": "t_bytes32",
        "label": "mapping(bytes32 => address)",
        "numberOfBytes": "32",
        "value": "t_address"
      },
      "t_mapping(t_bytes32,t_array(t_address)dyn_storage)": {
        "encoding": "mapping",
        "key": "t_bytes32",
        "label": "mapping(bytes32 => address[])",
        "numberOfBytes": "32",
        "value": "t_array(t_address)dyn_storage"
      },
      "t_mapping(t_bytes32,t_bool)": {
        "encoding": "mapping",
        "key": "t_bytes32",
        "label": "mapping(bytes32 => bool)",
        "numberOfBytes": "32",
        "value": "t_bool"
      },
      "t_mapping(t_bytes32,t_contract(IStableSwap)18313)": {
        "encoding": "mapping",
        "key": "t_bytes32",
        "label": "mapping(bytes32 => contract IStableSwap)",
        "numberOfBytes": "32",
        "value": "t_contract(IStableSwap)18313"
      },
      "t_mapping(t_bytes32,t_mapping(t_address,t_uint8))": {
        "encoding": "mapping",
        "key": "t_bytes32",
        "label": "mapping(bytes32 => mapping(address => uint8))",
        "numberOfBytes": "32",
        "value": "t_mapping(t_address,t_uint8)"
      },
      "t_mapping(t_bytes32,t_struct(Swap)22121_storage)": {
        "encoding": "mapping",
        "key": "t_bytes32",
        "label": "mapping(bytes32 => struct SwapUtils.Swap)",
        "numberOfBytes": "32",
        "value": "t_struct(Swap)22121_storage"
      },
      "t_mapping(t_bytes32,t_uint256)": {
        "encoding": "mapping",
        "key": "t_bytes32",
        "label": "mapping(bytes32 => uint256)",
        "numberOfBytes": "32",
        "value": "t_uint256"
      },
      "t_mapping(t_uint32,t_bytes32)": {
        "encoding": "mapping",
        "key": "t_uint32",
        "label": "mapping(uint32 => bytes32)",
        "numberOfBytes": "32",
        "value": "t_bytes32"
      },
      "t_struct(AppStorage)20695_storage": {
        "encoding": "inplace",
        "label": "struct AppStorage",
        "members": [
          {
            "astId": 20560,
            "contract": "contracts/core/connext/facets/RelayerFacet.sol:RelayerFacet",
            "label": "initialized",
            "offset": 0,
            "slot": "0",
            "type": "t_bool"
          },
          {
            "astId": 20562,
            "contract": "contracts/core/connext/facets/RelayerFacet.sol:RelayerFacet",
            "label": "LIQUIDITY_FEE_NUMERATOR",
            "offset": 0,
            "slot": "1",
            "type": "t_uint256"
          },
          {
            "astId": 20564,
            "contract": "contracts/core/connext/facets/RelayerFacet.sol:RelayerFacet",
            "label": "LIQUIDITY_FEE_DENOMINATOR",
            "offset": 0,
            "slot": "2",
            "type": "t_uint256"
          },
          {
            "astId": 20567,
            "contract": "contracts/core/connext/facets/RelayerFacet.sol:RelayerFacet",
            "label": "relayerFeeRouter",
            "offset": 0,
            "slot": "3",
            "type": "t_contract(RelayerFeeRouter)26783"
          },
          {
            "astId": 20570,
            "contract": "contracts/core/connext/facets/RelayerFacet.sol:RelayerFacet",
            "label": "promiseRouter",
            "offset": 0,
            "slot": "4",
            "type": "t_contract(PromiseRouter)26221"
          },
          {
            "astId": 20573,
            "contract": "contracts/core/connext/facets/RelayerFacet.sol:RelayerFacet",
            "label": "wrapper",
            "offset": 0,
            "slot": "5",
            "type": "t_contract(IWrapped)18413"
          },
          {
            "astId": 20575,
            "contract": "contracts/core/connext/facets/RelayerFacet.sol:RelayerFacet",
            "label": "nonce",
            "offset": 0,
            "slot": "6",
            "type": "t_uint256"
          },
          {
            "astId": 20578,
            "contract": "contracts/core/connext/facets/RelayerFacet.sol:RelayerFacet",
            "label": "executor",
            "offset": 0,
            "slot": "7",
            "type": "t_contract(IExecutor)17941"
          },
          {
            "astId": 20580,
            "contract": "contracts/core/connext/facets/RelayerFacet.sol:RelayerFacet",
            "label": "domain",
            "offset": 20,
            "slot": "7",
            "type": "t_uint32"
          },
          {
            "astId": 20583,
            "contract": "contracts/core/connext/facets/RelayerFacet.sol:RelayerFacet",
            "label": "tokenRegistry",
            "offset": 0,
            "slot": "8",
            "type": "t_contract(ITokenRegistry)18402"
          },
          {
            "astId": 20588,
            "contract": "contracts/core/connext/facets/RelayerFacet.sol:RelayerFacet",
            "label": "adoptedToLocalPools",
            "offset": 0,
            "slot": "9",
            "type": "t_mapping(t_bytes32,t_contract(IStableSwap)18313)"
          },
          {
            "astId": 20592,
            "contract": "contracts/core/connext/facets/RelayerFacet.sol:RelayerFacet",
            "label": "approvedAssets",
            "offset": 0,
            "slot": "10",
            "type": "t_mapping(t_bytes32,t_bool)"
          },
          {
            "astId": 20597,
            "contract": "contracts/core/connext/facets/RelayerFacet.sol:RelayerFacet",
            "label": "adoptedToCanonical",
            "offset": 0,
            "slot": "11",
            "type": "t_mapping(t_address,t_struct(TokenId)19702_storage)"
          },
          {
            "astId": 20601,
            "contract": "contracts/core/connext/facets/RelayerFacet.sol:RelayerFacet",
            "label": "canonicalToAdopted",
            "offset": 0,
            "slot": "12",
            "type": "t_mapping(t_bytes32,t_address)"
          },
          {
            "astId": 20605,
            "contract": "contracts/core/connext/facets/RelayerFacet.sol:RelayerFacet",
            "label": "reconciledTransfers",
            "offset": 0,
            "slot": "13",
            "type": "t_mapping(t_bytes32,t_bool)"
          },
          {
            "astId": 20610,
            "contract": "contracts/core/connext/facets/RelayerFacet.sol:RelayerFacet",
            "label": "routedTransfers",
            "offset": 0,
            "slot": "14",
            "type": "t_mapping(t_bytes32,t_array(t_address)dyn_storage)"
          },
          {
            "astId": 20616,
            "contract": "contracts/core/connext/facets/RelayerFacet.sol:RelayerFacet",
            "label": "routerBalances",
            "offset": 0,
            "slot": "15",
            "type": "t_mapping(t_address,t_mapping(t_address,t_uint256))"
          },
          {
            "astId": 20620,
            "contract": "contracts/core/connext/facets/RelayerFacet.sol:RelayerFacet",
            "label": "approvedRelayers",
            "offset": 0,
            "slot": "16",
            "type": "t_mapping(t_address,t_bool)"
          },
          {
            "astId": 20624,
            "contract": "contracts/core/connext/facets/RelayerFacet.sol:RelayerFacet",
            "label": "relayerFees",
            "offset": 0,
            "slot": "17",
            "type": "t_mapping(t_bytes32,t_uint256)"
          },
          {
            "astId": 20628,
            "contract": "contracts/core/connext/facets/RelayerFacet.sol:RelayerFacet",
            "label": "transferRelayer",
            "offset": 0,
            "slot": "18",
            "type": "t_mapping(t_bytes32,t_address)"
          },
          {
            "astId": 20630,
            "contract": "contracts/core/connext/facets/RelayerFacet.sol:RelayerFacet",
            "label": "maxRoutersPerTransfer",
            "offset": 0,
            "slot": "19",
            "type": "t_uint256"
          },
          {
            "astId": 20633,
            "contract": "contracts/core/connext/facets/RelayerFacet.sol:RelayerFacet",
            "label": "sponsorVault",
            "offset": 0,
            "slot": "20",
            "type": "t_contract(ISponsorVault)18003"
          },
          {
            "astId": 20637,
            "contract": "contracts/core/connext/facets/RelayerFacet.sol:RelayerFacet",
            "label": "remotes",
            "offset": 0,
            "slot": "21",
            "type": "t_mapping(t_uint32,t_bytes32)"
          },
          {
            "astId": 20640,
            "contract": "contracts/core/connext/facets/RelayerFacet.sol:RelayerFacet",
            "label": "xAppConnectionManager",
            "offset": 0,
            "slot": "22",
            "type": "t_contract(XAppConnectionManager)29391"
          },
          {
            "astId": 20642,
            "contract": "contracts/core/connext/facets/RelayerFacet.sol:RelayerFacet",
            "label": "_proposed",
            "offset": 0,
            "slot": "23",
            "type": "t_address"
          },
          {
            "astId": 20644,
            "contract": "contracts/core/connext/facets/RelayerFacet.sol:RelayerFacet",
            "label": "_proposedOwnershipTimestamp",
            "offset": 0,
            "slot": "24",
            "type": "t_uint256"
          },
          {
            "astId": 20646,
            "contract": "contracts/core/connext/facets/RelayerFacet.sol:RelayerFacet",
            "label": "_routerOwnershipRenounced",
            "offset": 0,
            "slot": "25",
            "type": "t_bool"
          },
          {
            "astId": 20648,
            "contract": "contracts/core/connext/facets/RelayerFacet.sol:RelayerFacet",
            "label": "_routerOwnershipTimestamp",
            "offset": 0,
            "slot": "26",
            "type": "t_uint256"
          },
          {
            "astId": 20650,
            "contract": "contracts/core/connext/facets/RelayerFacet.sol:RelayerFacet",
            "label": "_assetOwnershipRenounced",
            "offset": 0,
            "slot": "27",
            "type": "t_bool"
          },
          {
            "astId": 20652,
            "contract": "contracts/core/connext/facets/RelayerFacet.sol:RelayerFacet",
            "label": "_assetOwnershipTimestamp",
            "offset": 0,
            "slot": "28",
            "type": "t_uint256"
          },
          {
            "astId": 20655,
            "contract": "contracts/core/connext/facets/RelayerFacet.sol:RelayerFacet",
            "label": "routerPermissionInfo",
            "offset": 0,
            "slot": "29",
            "type": "t_struct(RouterPermissionsManagerInfo)20558_storage"
          },
          {
            "astId": 20657,
            "contract": "contracts/core/connext/facets/RelayerFacet.sol:RelayerFacet",
            "label": "_status",
            "offset": 0,
            "slot": "35",
            "type": "t_uint256"
          },
          {
            "astId": 20663,
            "contract": "contracts/core/connext/facets/RelayerFacet.sol:RelayerFacet",
            "label": "swapStorages",
            "offset": 0,
            "slot": "36",
            "type": "t_mapping(t_bytes32,t_struct(Swap)22121_storage)"
          },
          {
            "astId": 20670,
            "contract": "contracts/core/connext/facets/RelayerFacet.sol:RelayerFacet",
            "label": "tokenIndexes",
            "offset": 0,
            "slot": "37",
            "type": "t_mapping(t_bytes32,t_mapping(t_address,t_uint8))"
          },
          {
            "astId": 20673,
            "contract": "contracts/core/connext/facets/RelayerFacet.sol:RelayerFacet",
            "label": "_paused",
            "offset": 0,
            "slot": "38",
            "type": "t_bool"
          },
          {
            "astId": 20676,
            "contract": "contracts/core/connext/facets/RelayerFacet.sol:RelayerFacet",
            "label": "aavePool",
            "offset": 1,
            "slot": "38",
            "type": "t_address"
          },
          {
            "astId": 20679,
            "contract": "contracts/core/connext/facets/RelayerFacet.sol:RelayerFacet",
            "label": "aavePortalFeeNumerator",
            "offset": 0,
            "slot": "39",
            "type": "t_uint256"
          },
          {
            "astId": 20684,
            "contract": "contracts/core/connext/facets/RelayerFacet.sol:RelayerFacet",
            "label": "portalDebt",
            "offset": 0,
            "slot": "40",
            "type": "t_mapping(t_bytes32,t_uint256)"
          },
          {
            "astId": 20689,
            "contract": "contracts/core/connext/facets/RelayerFacet.sol:RelayerFacet",
            "label": "portalFeeDebt",
            "offset": 0,
            "slot": "41",
            "type": "t_mapping(t_bytes32,t_uint256)"
          },
          {
            "astId": 20694,
            "contract": "contracts/core/connext/facets/RelayerFacet.sol:RelayerFacet",
            "label": "receiveLocalOverrides",
            "offset": 0,
            "slot": "42",
            "type": "t_mapping(t_bytes32,t_bool)"
          }
        ],
        "numberOfBytes": "1376"
      },
      "t_struct(RouterPermissionsManagerInfo)20558_storage": {
        "encoding": "inplace",
        "label": "struct RouterPermissionsManagerInfo",
        "members": [
          {
            "astId": 20537,
            "contract": "contracts/core/connext/facets/RelayerFacet.sol:RelayerFacet",
            "label": "approvedRouters",
            "offset": 0,
            "slot": "0",
            "type": "t_mapping(t_address,t_bool)"
          },
          {
            "astId": 20541,
            "contract": "contracts/core/connext/facets/RelayerFacet.sol:RelayerFacet",
            "label": "approvedForPortalRouters",
            "offset": 0,
            "slot": "1",
            "type": "t_mapping(t_address,t_bool)"
          },
          {
            "astId": 20545,
            "contract": "contracts/core/connext/facets/RelayerFacet.sol:RelayerFacet",
            "label": "routerRecipients",
            "offset": 0,
            "slot": "2",
            "type": "t_mapping(t_address,t_address)"
          },
          {
            "astId": 20549,
            "contract": "contracts/core/connext/facets/RelayerFacet.sol:RelayerFacet",
            "label": "routerOwners",
            "offset": 0,
            "slot": "3",
            "type": "t_mapping(t_address,t_address)"
          },
          {
            "astId": 20553,
            "contract": "contracts/core/connext/facets/RelayerFacet.sol:RelayerFacet",
            "label": "proposedRouterOwners",
            "offset": 0,
            "slot": "4",
            "type": "t_mapping(t_address,t_address)"
          },
          {
            "astId": 20557,
            "contract": "contracts/core/connext/facets/RelayerFacet.sol:RelayerFacet",
            "label": "proposedRouterTimestamp",
            "offset": 0,
            "slot": "5",
            "type": "t_mapping(t_address,t_uint256)"
          }
        ],
        "numberOfBytes": "192"
      },
      "t_struct(Swap)22121_storage": {
        "encoding": "inplace",
        "label": "struct SwapUtils.Swap",
        "members": [
          {
            "astId": 22094,
            "contract": "contracts/core/connext/facets/RelayerFacet.sol:RelayerFacet",
            "label": "initialA",
            "offset": 0,
            "slot": "0",
            "type": "t_uint256"
          },
          {
            "astId": 22096,
            "contract": "contracts/core/connext/facets/RelayerFacet.sol:RelayerFacet",
            "label": "futureA",
            "offset": 0,
            "slot": "1",
            "type": "t_uint256"
          },
          {
            "astId": 22098,
            "contract": "contracts/core/connext/facets/RelayerFacet.sol:RelayerFacet",
            "label": "initialATime",
            "offset": 0,
            "slot": "2",
            "type": "t_uint256"
          },
          {
            "astId": 22100,
            "contract": "contracts/core/connext/facets/RelayerFacet.sol:RelayerFacet",
            "label": "futureATime",
            "offset": 0,
            "slot": "3",
            "type": "t_uint256"
          },
          {
            "astId": 22102,
            "contract": "contracts/core/connext/facets/RelayerFacet.sol:RelayerFacet",
            "label": "swapFee",
            "offset": 0,
            "slot": "4",
            "type": "t_uint256"
          },
          {
            "astId": 22104,
            "contract": "contracts/core/connext/facets/RelayerFacet.sol:RelayerFacet",
            "label": "adminFee",
            "offset": 0,
            "slot": "5",
            "type": "t_uint256"
          },
          {
            "astId": 22107,
            "contract": "contracts/core/connext/facets/RelayerFacet.sol:RelayerFacet",
            "label": "lpToken",
            "offset": 0,
            "slot": "6",
            "type": "t_contract(LPToken)13942"
          },
          {
            "astId": 22111,
            "contract": "contracts/core/connext/facets/RelayerFacet.sol:RelayerFacet",
            "label": "pooledTokens",
            "offset": 0,
            "slot": "7",
            "type": "t_array(t_contract(IERC20)3290)dyn_storage"
          },
          {
            "astId": 22114,
            "contract": "contracts/core/connext/facets/RelayerFacet.sol:RelayerFacet",
            "label": "tokenPrecisionMultipliers",
            "offset": 0,
            "slot": "8",
            "type": "t_array(t_uint256)dyn_storage"
          },
          {
            "astId": 22117,
            "contract": "contracts/core/connext/facets/RelayerFacet.sol:RelayerFacet",
            "label": "balances",
            "offset": 0,
            "slot": "9",
            "type": "t_array(t_uint256)dyn_storage"
          },
          {
            "astId": 22120,
            "contract": "contracts/core/connext/facets/RelayerFacet.sol:RelayerFacet",
            "label": "adminFees",
            "offset": 0,
            "slot": "10",
            "type": "t_array(t_uint256)dyn_storage"
          }
        ],
        "numberOfBytes": "352"
      },
      "t_struct(TokenId)19702_storage": {
        "encoding": "inplace",
        "label": "struct ConnextMessage.TokenId",
        "members": [
          {
            "astId": 19699,
            "contract": "contracts/core/connext/facets/RelayerFacet.sol:RelayerFacet",
            "label": "domain",
            "offset": 0,
            "slot": "0",
            "type": "t_uint32"
          },
          {
            "astId": 19701,
            "contract": "contracts/core/connext/facets/RelayerFacet.sol:RelayerFacet",
            "label": "id",
            "offset": 0,
            "slot": "1",
            "type": "t_bytes32"
          }
        ],
        "numberOfBytes": "64"
      },
      "t_uint256": {
        "encoding": "inplace",
        "label": "uint256",
        "numberOfBytes": "32"
      },
      "t_uint32": {
        "encoding": "inplace",
        "label": "uint32",
        "numberOfBytes": "4"
      },
      "t_uint8": {
        "encoding": "inplace",
        "label": "uint8",
        "numberOfBytes": "1"
      }
    }
  }
}