{
  "address": "0x6DAC844B4ab2284bC6b12bEE5c06258A00a8f9B5",
  "abi": [
    {
      "inputs": [],
      "name": "BaseConnextFacet__onlyOwner_notOwner",
      "type": "error"
    },
    {
      "inputs": [],
      "name": "BaseConnextFacet__onlyProposed_notProposedOwner",
      "type": "error"
    },
    {
      "inputs": [],
      "name": "BaseConnextFacet__onlyRemoteRouter_notRemoteRouter",
      "type": "error"
    },
    {
      "inputs": [],
      "name": "BaseConnextFacet__onlyReplica_notReplica",
      "type": "error"
    },
    {
      "inputs": [],
      "name": "StableSwapFacet__deadlineCheck_deadlineNotMet",
      "type": "error"
    },
    {
      "inputs": [],
      "name": "StableSwapFacet__getSwapTokenBalance_indexOutOfRange",
      "type": "error"
    },
    {
      "inputs": [],
      "name": "StableSwapFacet__getSwapTokenIndex_notExist",
      "type": "error"
    },
    {
      "inputs": [],
      "name": "StableSwapFacet__getSwapToken_outOfRange",
      "type": "error"
    },
    {
      "inputs": [],
      "name": "StableSwapFacet__initializeSwap_aExceedMax",
      "type": "error"
    },
    {
      "inputs": [],
      "name": "StableSwapFacet__initializeSwap_adminFeeExceedMax",
      "type": "error"
    },
    {
      "inputs": [],
      "name": "StableSwapFacet__initializeSwap_alreadyInitialized",
      "type": "error"
    },
    {
      "inputs": [],
      "name": "StableSwapFacet__initializeSwap_decimalsMismatch",
      "type": "error"
    },
    {
      "inputs": [],
      "name": "StableSwapFacet__initializeSwap_duplicateTokens",
      "type": "error"
    },
    {
      "inputs": [],
      "name": "StableSwapFacet__initializeSwap_failedInitLpTokenClone",
      "type": "error"
    },
    {
      "inputs": [],
      "name": "StableSwapFacet__initializeSwap_feeExceedMax",
      "type": "error"
    },
    {
      "inputs": [],
      "name": "StableSwapFacet__initializeSwap_invalidPooledTokens",
      "type": "error"
    },
    {
      "inputs": [],
      "name": "StableSwapFacet__initializeSwap_tokenDecimalsExceedMax",
      "type": "error"
    },
    {
      "inputs": [],
      "name": "StableSwapFacet__initializeSwap_zeroTokenAddress",
      "type": "error"
    },
    {
      "inputs": [
        {
          "internalType": "bytes32",
          "name": "canonicalId",
          "type": "bytes32"
        },
        {
          "internalType": "uint256[]",
          "name": "amounts",
          "type": "uint256[]"
        },
        {
          "internalType": "uint256",
          "name": "minToMint",
          "type": "uint256"
        },
        {
          "internalType": "uint256",
          "name": "deadline",
          "type": "uint256"
        }
      ],
      "name": "addSwapLiquidity",
      "outputs": [
        {
          "internalType": "uint256",
          "name": "",
          "type": "uint256"
        }
      ],
      "stateMutability": "nonpayable",
      "type": "function"
    },
    {
      "inputs": [
        {
          "internalType": "bytes32",
          "name": "canonicalId",
          "type": "bytes32"
        },
        {
          "internalType": "uint256",
          "name": "amount",
          "type": "uint256"
        }
      ],
      "name": "calculateRemoveSwapLiquidity",
      "outputs": [
        {
          "internalType": "uint256[]",
          "name": "",
          "type": "uint256[]"
        }
      ],
      "stateMutability": "view",
      "type": "function"
    },
    {
      "inputs": [
        {
          "internalType": "bytes32",
          "name": "canonicalId",
          "type": "bytes32"
        },
        {
          "internalType": "uint256",
          "name": "tokenAmount",
          "type": "uint256"
        },
        {
          "internalType": "uint8",
          "name": "tokenIndex",
          "type": "uint8"
        }
      ],
      "name": "calculateRemoveSwapLiquidityOneToken",
      "outputs": [
        {
          "internalType": "uint256",
          "name": "availableTokenAmount",
          "type": "uint256"
        }
      ],
      "stateMutability": "view",
      "type": "function"
    },
    {
      "inputs": [
        {
          "internalType": "bytes32",
          "name": "canonicalId",
          "type": "bytes32"
        },
        {
          "internalType": "uint8",
          "name": "tokenIndexFrom",
          "type": "uint8"
        },
        {
          "internalType": "uint8",
          "name": "tokenIndexTo",
          "type": "uint8"
        },
        {
          "internalType": "uint256",
          "name": "dx",
          "type": "uint256"
        }
      ],
      "name": "calculateSwap",
      "outputs": [
        {
          "internalType": "uint256",
          "name": "",
          "type": "uint256"
        }
      ],
      "stateMutability": "view",
      "type": "function"
    },
    {
      "inputs": [
        {
          "internalType": "bytes32",
          "name": "canonicalId",
          "type": "bytes32"
        },
        {
          "internalType": "uint256[]",
          "name": "amounts",
          "type": "uint256[]"
        },
        {
          "internalType": "bool",
          "name": "deposit",
          "type": "bool"
        }
      ],
      "name": "calculateSwapTokenAmount",
      "outputs": [
        {
          "internalType": "uint256",
          "name": "",
          "type": "uint256"
        }
      ],
      "stateMutability": "view",
      "type": "function"
    },
    {
      "inputs": [
        {
          "internalType": "bytes32",
          "name": "canonicalId",
          "type": "bytes32"
        }
      ],
      "name": "getSwapA",
      "outputs": [
        {
          "internalType": "uint256",
          "name": "",
          "type": "uint256"
        }
      ],
      "stateMutability": "view",
      "type": "function"
    },
    {
      "inputs": [
        {
          "internalType": "bytes32",
          "name": "canonicalId",
          "type": "bytes32"
        }
      ],
      "name": "getSwapAPrecise",
      "outputs": [
        {
          "internalType": "uint256",
          "name": "",
          "type": "uint256"
        }
      ],
      "stateMutability": "view",
      "type": "function"
    },
    {
      "inputs": [
        {
          "internalType": "bytes32",
          "name": "canonicalId",
          "type": "bytes32"
        },
        {
          "internalType": "uint256",
          "name": "index",
          "type": "uint256"
        }
      ],
      "name": "getSwapAdminBalance",
      "outputs": [
        {
          "internalType": "uint256",
          "name": "",
          "type": "uint256"
        }
      ],
      "stateMutability": "view",
      "type": "function"
    },
    {
      "inputs": [
        {
          "internalType": "bytes32",
          "name": "canonicalId",
          "type": "bytes32"
        }
      ],
      "name": "getSwapLPToken",
      "outputs": [
        {
          "internalType": "address",
          "name": "",
          "type": "address"
        }
      ],
      "stateMutability": "view",
      "type": "function"
    },
    {
      "inputs": [
        {
          "internalType": "bytes32",
          "name": "canonicalId",
          "type": "bytes32"
        }
      ],
      "name": "getSwapStorage",
      "outputs": [
        {
          "components": [
            {
              "internalType": "uint256",
              "name": "initialA",
              "type": "uint256"
            },
            {
              "internalType": "uint256",
              "name": "futureA",
              "type": "uint256"
            },
            {
              "internalType": "uint256",
              "name": "initialATime",
              "type": "uint256"
            },
            {
              "internalType": "uint256",
              "name": "futureATime",
              "type": "uint256"
            },
            {
              "internalType": "uint256",
              "name": "swapFee",
              "type": "uint256"
            },
            {
              "internalType": "uint256",
              "name": "adminFee",
              "type": "uint256"
            },
            {
              "internalType": "contract LPToken",
              "name": "lpToken",
              "type": "address"
            },
            {
              "internalType": "contract IERC20[]",
              "name": "pooledTokens",
              "type": "address[]"
            },
            {
              "internalType": "uint256[]",
              "name": "tokenPrecisionMultipliers",
              "type": "uint256[]"
            },
            {
              "internalType": "uint256[]",
              "name": "balances",
              "type": "uint256[]"
            }
          ],
          "internalType": "struct SwapUtils.Swap",
          "name": "",
          "type": "tuple"
        }
      ],
      "stateMutability": "view",
      "type": "function"
    },
    {
      "inputs": [
        {
          "internalType": "bytes32",
          "name": "canonicalId",
          "type": "bytes32"
        },
        {
          "internalType": "uint8",
          "name": "index",
          "type": "uint8"
        }
      ],
      "name": "getSwapToken",
      "outputs": [
        {
          "internalType": "contract IERC20",
          "name": "",
          "type": "address"
        }
      ],
      "stateMutability": "view",
      "type": "function"
    },
    {
      "inputs": [
        {
          "internalType": "bytes32",
          "name": "canonicalId",
          "type": "bytes32"
        },
        {
          "internalType": "uint8",
          "name": "index",
          "type": "uint8"
        }
      ],
      "name": "getSwapTokenBalance",
      "outputs": [
        {
          "internalType": "uint256",
          "name": "",
          "type": "uint256"
        }
      ],
      "stateMutability": "view",
      "type": "function"
    },
    {
      "inputs": [
        {
          "internalType": "bytes32",
          "name": "canonicalId",
          "type": "bytes32"
        },
        {
          "internalType": "address",
          "name": "tokenAddress",
          "type": "address"
        }
      ],
      "name": "getSwapTokenIndex",
      "outputs": [
        {
          "internalType": "uint8",
          "name": "",
          "type": "uint8"
        }
      ],
      "stateMutability": "view",
      "type": "function"
    },
    {
      "inputs": [
        {
          "internalType": "bytes32",
          "name": "canonicalId",
          "type": "bytes32"
        }
      ],
      "name": "getSwapVirtualPrice",
      "outputs": [
        {
          "internalType": "uint256",
          "name": "",
          "type": "uint256"
        }
      ],
      "stateMutability": "view",
      "type": "function"
    },
    {
      "inputs": [
        {
          "internalType": "bytes32",
          "name": "_canonicalId",
          "type": "bytes32"
        },
        {
          "internalType": "contract IERC20[]",
          "name": "_pooledTokens",
          "type": "address[]"
        },
        {
          "internalType": "uint8[]",
          "name": "decimals",
          "type": "uint8[]"
        },
        {
          "internalType": "string",
          "name": "lpTokenName",
          "type": "string"
        },
        {
          "internalType": "string",
          "name": "lpTokenSymbol",
          "type": "string"
        },
        {
          "internalType": "uint256",
          "name": "_a",
          "type": "uint256"
        },
        {
          "internalType": "uint256",
          "name": "_fee",
          "type": "uint256"
        },
        {
          "internalType": "uint256",
          "name": "_adminFee",
          "type": "uint256"
        },
        {
          "internalType": "address",
          "name": "lpTokenTargetAddress",
          "type": "address"
        }
      ],
      "name": "initializeSwap",
      "outputs": [],
      "stateMutability": "nonpayable",
      "type": "function"
    },
    {
      "inputs": [
        {
          "internalType": "bytes32",
          "name": "canonicalId",
          "type": "bytes32"
        },
        {
          "internalType": "uint256",
          "name": "futureA",
          "type": "uint256"
        },
        {
          "internalType": "uint256",
          "name": "futureTime",
          "type": "uint256"
        }
      ],
      "name": "rampA",
      "outputs": [],
      "stateMutability": "nonpayable",
      "type": "function"
    },
    {
      "inputs": [
        {
          "internalType": "bytes32",
          "name": "canonicalId",
          "type": "bytes32"
        },
        {
          "internalType": "uint256",
          "name": "amount",
          "type": "uint256"
        },
        {
          "internalType": "uint256[]",
          "name": "minAmounts",
          "type": "uint256[]"
        },
        {
          "internalType": "uint256",
          "name": "deadline",
          "type": "uint256"
        }
      ],
      "name": "removeSwapLiquidity",
      "outputs": [
        {
          "internalType": "uint256[]",
          "name": "",
          "type": "uint256[]"
        }
      ],
      "stateMutability": "nonpayable",
      "type": "function"
    },
    {
      "inputs": [
        {
          "internalType": "bytes32",
          "name": "canonicalId",
          "type": "bytes32"
        },
        {
          "internalType": "uint256[]",
          "name": "amounts",
          "type": "uint256[]"
        },
        {
          "internalType": "uint256",
          "name": "maxBurnAmount",
          "type": "uint256"
        },
        {
          "internalType": "uint256",
          "name": "deadline",
          "type": "uint256"
        }
      ],
      "name": "removeSwapLiquidityImbalance",
      "outputs": [
        {
          "internalType": "uint256",
          "name": "",
          "type": "uint256"
        }
      ],
      "stateMutability": "nonpayable",
      "type": "function"
    },
    {
      "inputs": [
        {
          "internalType": "bytes32",
          "name": "canonicalId",
          "type": "bytes32"
        },
        {
          "internalType": "uint256",
          "name": "tokenAmount",
          "type": "uint256"
        },
        {
          "internalType": "uint8",
          "name": "tokenIndex",
          "type": "uint8"
        },
        {
          "internalType": "uint256",
          "name": "minAmount",
          "type": "uint256"
        },
        {
          "internalType": "uint256",
          "name": "deadline",
          "type": "uint256"
        }
      ],
      "name": "removeSwapLiquidityOneToken",
      "outputs": [
        {
          "internalType": "uint256",
          "name": "",
          "type": "uint256"
        }
      ],
      "stateMutability": "nonpayable",
      "type": "function"
    },
    {
      "inputs": [
        {
          "internalType": "bytes32",
          "name": "canonicalId",
          "type": "bytes32"
        },
        {
          "internalType": "uint256",
          "name": "newAdminFee",
          "type": "uint256"
        }
      ],
      "name": "setSwapAdminFee",
      "outputs": [],
      "stateMutability": "nonpayable",
      "type": "function"
    },
    {
      "inputs": [
        {
          "internalType": "bytes32",
          "name": "canonicalId",
          "type": "bytes32"
        },
        {
          "internalType": "uint256",
          "name": "newSwapFee",
          "type": "uint256"
        }
      ],
      "name": "setSwapFee",
      "outputs": [],
      "stateMutability": "nonpayable",
      "type": "function"
    },
    {
      "inputs": [
        {
          "internalType": "bytes32",
          "name": "canonicalId",
          "type": "bytes32"
        }
      ],
      "name": "stopRampA",
      "outputs": [],
      "stateMutability": "nonpayable",
      "type": "function"
    },
    {
      "inputs": [
        {
          "internalType": "bytes32",
          "name": "canonicalId",
          "type": "bytes32"
        },
        {
          "internalType": "uint8",
          "name": "tokenIndexFrom",
          "type": "uint8"
        },
        {
          "internalType": "uint8",
          "name": "tokenIndexTo",
          "type": "uint8"
        },
        {
          "internalType": "uint256",
          "name": "dx",
          "type": "uint256"
        },
        {
          "internalType": "uint256",
          "name": "minDy",
          "type": "uint256"
        },
        {
          "internalType": "uint256",
          "name": "deadline",
          "type": "uint256"
        }
      ],
      "name": "swap",
      "outputs": [
        {
          "internalType": "uint256",
          "name": "",
          "type": "uint256"
        }
      ],
      "stateMutability": "nonpayable",
      "type": "function"
    },
    {
      "inputs": [
        {
          "internalType": "bytes32",
          "name": "canonicalId",
          "type": "bytes32"
        },
        {
          "internalType": "uint256",
          "name": "amountIn",
          "type": "uint256"
        },
        {
          "internalType": "address",
          "name": "assetIn",
          "type": "address"
        },
        {
          "internalType": "address",
          "name": "assetOut",
          "type": "address"
        },
        {
          "internalType": "uint256",
          "name": "minAmountOut",
          "type": "uint256"
        },
        {
          "internalType": "uint256",
          "name": "deadline",
          "type": "uint256"
        }
      ],
      "name": "swapExact",
      "outputs": [
        {
          "internalType": "uint256",
          "name": "",
          "type": "uint256"
        }
      ],
      "stateMutability": "payable",
      "type": "function"
    },
    {
      "inputs": [
        {
          "internalType": "bytes32",
          "name": "canonicalId",
          "type": "bytes32"
        }
      ],
      "name": "withdrawSwapAdminFees",
      "outputs": [],
      "stateMutability": "nonpayable",
      "type": "function"
    }
  ],
  "transactionHash": "0xc1374a740ee2a153e656a9b96042a78b09ba3e651522b104f42aa9c1a9a87ee2",
  "args": [],
  "numDeployments": 1,
  "solcInputHash": "859f0e08df6fb53e88f852234768df86",
  "bytecode": "0x608060405234801561001057600080fd5b506157e980620000216000396000f3fe6080604052600436106101665760003560e01c80638b480b12116100d1578063ad94911b1161008a578063bb0577eb11610064578063bb0577eb14610470578063d251dc3514610490578063f495e807146104b0578063ff126de9146104d057600080fd5b8063ad94911b146103fe578063b3a4eab414610430578063b6618dff1461045057600080fd5b80638b480b121461030d5780638d3654571461035e5780638f11d27f1461037e5780639c8eab971461039e578063a02288f4146103be578063a1a23c29146103de57600080fd5b806347555ef61161012357806347555ef61461024d5780634bbcba8e1461026d57806372a30e081461029a5780637652f59d146102ba57806376ca2e52146102da57806380b297e8146102fa57600080fd5b80631301caa21461016b5780631963e4261461019e578063241ca57a146101c057806329d99b10146101e05780632d91a5151461020057806343be5eaf1461022d575b600080fd5b34801561017757600080fd5b5061018b610186366004614c30565b6104f0565b6040519081526020015b60405180910390f35b3480156101aa57600080fd5b506101be6101b9366004614c52565b610511565b005b3480156101cc57600080fd5b5061018b6101db366004614cc9565b61055f565b3480156101ec57600080fd5b5061018b6101fb366004614d37565b61060f565b34801561020c57600080fd5b5061022061021b366004614d6c565b610632565b6040516101959190614df9565b34801561023957600080fd5b506101be610248366004614c30565b61080c565b34801561025957600080fd5b506101be61026836600461507c565b610858565b34801561027957600080fd5b5061028d610288366004615160565b610e15565b60405161019591906151ba565b3480156102a657600080fd5b506101be6102b5366004614d6c565b610e7c565b3480156102c657600080fd5b5061018b6102d5366004614d6c565b610ec6565b3480156102e657600080fd5b5061018b6102f53660046151db565b610edd565b61018b610308366004615239565b610f02565b34801561031957600080fd5b50610346610328366004614d6c565b6000908152602460205260409020600601546001600160a01b031690565b6040516001600160a01b039091168152602001610195565b34801561036a57600080fd5b5061018b610379366004614cc9565b610f8e565b34801561038a57600080fd5b5061018b610399366004615295565b611025565b3480156103aa57600080fd5b506101be6103b9366004614c30565b61103f565b3480156103ca57600080fd5b5061028d6103d9366004614c30565b611087565b3480156103ea57600080fd5b506101be6103f9366004614d6c565b6110a2565b34801561040a57600080fd5b5061041e6104193660046152d9565b6110ea565b60405160ff9091168152602001610195565b34801561043c57600080fd5b5061034661044b366004615309565b611142565b34801561045c57600080fd5b5061018b61046b366004615335565b6111b7565b34801561047c57600080fd5b5061018b61048b366004615309565b61121e565b34801561049c57600080fd5b5061018b6104ab366004614d6c565b61128b565b3480156104bc57600080fd5b5061018b6104cb366004614d6c565b6112a2565b3480156104dc57600080fd5b5061018b6104eb36600461537c565b6112b9565b60008281526024602052604081206105089083611321565b90505b92915050565b3361051a6113fb565b6001600160a01b031614610541576040516314e74a2560e21b815260040160405180910390fd5b600083815260246020526040902061055a908383611429565b505050565b6023546000906002141561058e5760405162461bcd60e51b8152600401610585906153d4565b60405180910390fd5b600260235581428110156105b5576040516326f04e8b60e21b815260040160405180910390fd5b6105ff86868080602002602001604051908101604052809392919081815260200183836020028082843760009201829052508c815260246020526040902093925088915050611671565b6001602355979650505050505050565b6000838152602460205260408120610628908484611e73565b90505b9392505050565b61069160405180610140016040528060008152602001600081526020016000815260200160008152602001600081526020016000815260200160006001600160a01b031681526020016060815260200160608152602001606081525090565b600082815260246020908152604091829020825161014081018452815481526001820154818401526002820154818501526003820154606082015260048201546080820152600582015460a082015260068201546001600160a01b031660c08201526007820180548551818602810186019096528086529194929360e0860193929083018282801561074c57602002820191906000526020600020905b81546001600160a01b0316815260019091019060200180831161072e575b50505050508152602001600882018054806020026020016040519081016040528092919081815260200182805480156107a457602002820191906000526020600020905b815481526020019060010190808311610790575b50505050508152602001600982018054806020026020016040519081016040528092919081815260200182805480156107fc57602002820191906000526020600020905b8154815260200190600101908083116107e8575b5050505050815250509050919050565b336108156113fb565b6001600160a01b03161461083c576040516314e74a2560e21b815260040160405180910390fd5b60008281526024602052604090206108549082611f04565b5050565b336108616113fb565b6001600160a01b031614610888576040516314e74a2560e21b815260040160405180910390fd5b600089815260246020526040902060070154156108b8576040516323e8594b60e21b815260040160405180910390fd5b600188511115806108ca575060208851115b156108e857604051630fad893160e31b815260040160405180910390fd5b865188511461090a57604051631f70001360e11b815260040160405180910390fd5b600087516001600160401b0381111561092557610925614eae565b60405190808252806020026020018201604052801561094e578160200160208202803683370190505b50905060005b89518160ff161015610b975760ff811615610a2a5760008b81526025602052604081208b519091908c9060ff85169081106109915761099161540b565b6020908102919091018101516001600160a01b031682528101919091526040016000205460ff16151580610a0c5750898160ff16815181106109d5576109d561540b565b60200260200101516001600160a01b03168a6000815181106109f9576109f961540b565b60200260200101516001600160a01b0316145b15610a2a57604051630cfbc09160e01b815260040160405180910390fd5b60006001600160a01b03168a8260ff1681518110610a4a57610a4a61540b565b60200260200101516001600160a01b03161415610a7a576040516317c52b6960e31b815260040160405180910390fd5b601260ff16898260ff1681518110610a9457610a9461540b565b602002602001015160ff161115610abe57604051635a9eaac560e01b815260040160405180910390fd5b888160ff1681518110610ad357610ad361540b565b60200260200101516012610ae79190615437565b610af59060ff16600a61553e565b828260ff1681518110610b0a57610b0a61540b565b60200260200101818152505080600060250160008d815260200190815260200160002060008c8460ff1681518110610b4457610b4461540b565b60200260200101516001600160a01b03166001600160a01b0316815260200190815260200160002060006101000a81548160ff021916908360ff1602179055508080610b8f9061554a565b915050610954565b50620f42408510610bbb57604051631307699160e31b815260040160405180910390fd5b6305f5e1008410610bdf5760405163b1289b7d60e01b815260040160405180910390fd5b6402540be4008310610c045760405163012fe8d760e41b815260040160405180910390fd5b6000610c0f83611f89565b60405163266c45bb60e11b81529091506001600160a01b03821690634cd88b7690610c40908b908b906004016155c2565b6020604051808303816000875af1158015610c5f573d6000803e3d6000fd5b505050506040513d601f19601f82011682018060405250810190610c8391906155e7565b610ca05760405163f995562360e01b815260040160405180910390fd5b604051806101400160405280606488610cb99190615604565b8152602001610cc9606489615604565b81526020016000815260200160008152602001868152602001858152602001826001600160a01b031681526020018b81526020018381526020018b516001600160401b03811115610d1c57610d1c614eae565b604051908082528060200260200182016040528015610d45578160200160208202803683370190505b50905260008c81526024602090815260409182902083518155838201516001820155918301516002830155606083015160038301556080830151600483015560a0830151600583015560c08301516006830180546001600160a01b0319166001600160a01b0390921691909117905560e08301518051610dcb9260078501920190614b7b565b506101008201518051610de8916008840191602090910190614be0565b506101208201518051610e05916009840191602090910190614be0565b5050505050505050505050505050565b60235460609060021415610e3b5760405162461bcd60e51b8152600401610585906153d4565b60026023558142811015610e62576040516326f04e8b60e21b815260040160405180910390fd5b60008781526024602052604090206105ff90878787612026565b33610e856113fb565b6001600160a01b031614610eac576040516314e74a2560e21b815260040160405180910390fd5b6000818152602460205260409020610ec3906123f8565b50565b600081815260246020526040812061050b906124a9565b6000848152602460205260408120610ef7908585856124b4565b90505b949350505050565b60235460009060021415610f285760405162461bcd60e51b8152600401610585906153d4565b60026023558142811015610f4f576040516326f04e8b60e21b815260040160405180910390fd5b610f7d610f5c89886110ea565b610f668a886110ea565b60008b815260246020526040902091908a88612744565b600160235598975050505050505050565b60235460009060021415610fb45760405162461bcd60e51b8152600401610585906153d4565b60026023558142811015610fdb576040516326f04e8b60e21b815260040160405180910390fd5b6105ff86868080602002602001604051908101604052809392919081815260200183836020028082843760009201829052508c815260246020526040902093925088915050612afc565b6000848152602460205260408120610ef79085858561339b565b336110486113fb565b6001600160a01b03161461106f576040516314e74a2560e21b815260040160405180910390fd5b600082815260246020526040902061085490826133fc565b6000828152602460205260409020606090610508908361347a565b336110ab6113fb565b6001600160a01b0316146110d2576040516314e74a2560e21b815260040160405180910390fd5b6000818152602460205260409020610ec39033613551565b60008281526025602090815260408083206001600160a01b038516808552925282205460ff169061111b8583611142565b6001600160a01b0316146105085760405163336752bb60e01b815260040160405180910390fd5b60008281526024602052604081206007015460ff8316106111755760405162e6731760e41b815260040160405180910390fd5b6000838152602460205260409020600701805460ff841690811061119b5761119b61540b565b6000918252602090912001546001600160a01b03169392505050565b602354600090600214156111dd5760405162461bcd60e51b8152600401610585906153d4565b60026023558142811015611204576040516326f04e8b60e21b815260040160405180910390fd5b60008781526024602052604090206105ff90878787613665565b60008281526024602052604081206009015460ff83161061125257604051634105699160e01b815260040160405180910390fd5b6000838152602460205260409020600901805460ff84169081106112785761127861540b565b9060005260206000200154905092915050565b600081815260246020526040812061050b906139b3565b600081815260246020526040812061050b906139c3565b602354600090600214156112df5760405162461bcd60e51b8152600401610585906153d4565b60026023558142811015611306576040516326f04e8b60e21b815260040160405180910390fd5b6000888152602460205260409020610f7d9088888888612744565b600782015460009082106113475760405162461bcd60e51b815260040161058590615623565b61050883600901838154811061135f5761135f61540b565b906000526020600020015484600701848154811061137f5761137f61540b565b6000918252602090912001546040516370a0823160e01b81523060048201526001600160a01b03909116906370a08231906024015b602060405180830381865afa1580156113d1573d6000803e3d6000fd5b505050506040513d601f19601f820116820180604052508101906113f5919061565a565b90613a88565b7fc8fcad8db84d3cc18b4c41d551ea0ee66dd599cde068d998e57d5e09332c1320546001600160a01b031690565b600283015461143b9062015180613a94565b42101561148a5760405162461bcd60e51b815260206004820152601f60248201527f57616974203120646179206265666f7265207374617274696e672072616d70006044820152606401610585565b6114974262127500613a94565b8110156114df5760405162461bcd60e51b8152602060048201526016602482015275496e73756666696369656e742072616d702074696d6560501b6044820152606401610585565b6000821180156114f15750620f424082105b61153d5760405162461bcd60e51b815260206004820181905260248201527f667574757265415f206d757374206265203e203020616e64203c204d41585f416044820152606401610585565b600061154884613aa0565b90506000611557846064613b2b565b9050818110156115b8578161156d826002613b2b565b10156115b35760405162461bcd60e51b8152602060048201526015602482015274199d5d1d5c995057c81a5cc81d1bdbc81cdb585b1b605a1b6044820152606401610585565b61160a565b6115c3826002613b2b565b81111561160a5760405162461bcd60e51b8152602060048201526015602482015274667574757265415f20697320746f6f206c6172676560581b6044820152606401610585565b8185556001850181905542600286018190556003860184905560408051848152602081018490528082019290925260608201859052517fa2b71ec6df949300b59aab36b55e189697b750119dd349fcfa8c0f779e83c2549181900360800190a15050505050565b60008060405180610100016040528060008152602001600081526020016000815260200161169e876124a9565b81526020018660060160009054906101000a90046001600160a01b03166001600160a01b03168152602001600081526020018660090180548060200260200160405190810160405280929190818152602001828054801561171e57602002820191906000526020600020905b81548152602001906001019080831161170a575b505050505081526020018660080180548060200260200160405190810160405280929190818152602001828054801561177657602002820191906000526020600020905b815481526020019060010190808311611762575b5050505050815250905080608001516001600160a01b03166318160ddd6040518163ffffffff1660e01b8152600401602060405180830381865afa1580156117c2573d6000803e3d6000fd5b505050506040513d601f19601f820116820180604052508101906117e6919061565a565b60a0820152600785018054604080516020808402820181019092528281526000939092909183018282801561184457602002820191906000526020600020905b81546001600160a01b03168152600190910190602001808311611826575b50505050509050805185511461189c5760405162461bcd60e51b815260206004820181905260248201527f416d6f756e74732073686f756c64206d6174636820706f6f6c20746f6b656e736044820152606401610585565b60808201516040516370a0823160e01b81523360048201526001600160a01b03909116906370a0823190602401602060405180830381865afa1580156118e6573d6000803e3d6000fd5b505050506040513d601f19601f8201168201806040525081019061190a919061565a565b841115801561191857508315155b6119345760405162461bcd60e51b815260040161058590615673565b600061194587600401548351613b37565b9050600082516001600160401b0381111561196257611962614eae565b60405190808252806020026020018201604052801561198b578160200160208202803683370190505b509050600083516001600160401b038111156119a9576119a9614eae565b6040519080825280602002602001820160405280156119d2578160200160208202803683370190505b5090506119f46119ea8660c001518760e00151613b56565b8660600151613c64565b855260005b8451811015611a9457611a65898281518110611a1757611a1761540b565b6020026020010151604051806060016040528060238152602001615791602391398860c001518481518110611a4e57611a4e61540b565b6020026020010151613deb9092919063ffffffff16565b828281518110611a7757611a7761540b565b602090810291909101015280611a8c8161569a565b9150506119f9565b50611aa66119ea828760e00151613b56565b602086015260005b8451811015611c47576000611afb8760000151611af58960c001518581518110611ada57611ada61540b565b60200260200101518a60200151613b2b90919063ffffffff16565b90613e17565b90506000611b2b848481518110611b1457611b1461540b565b602002602001015183613e2390919063ffffffff16565b9050611b406402540be400611af58884613b2b565b858481518110611b5257611b5261540b565b602002602001018181525050611bc2611b9a6402540be400611af58f60050154898881518110611b8457611b8461540b565b6020026020010151613b2b90919063ffffffff16565b858581518110611bac57611bac61540b565b6020026020010151613a8890919063ffffffff16565b8c6009018481548110611bd757611bd761540b565b9060005260206000200181905550611c14858481518110611bfa57611bfa61540b565b6020026020010151858581518110611bac57611bac61540b565b848481518110611c2657611c2661540b565b60200260200101818152505050508080611c3f9061569a565b915050611aae565b50611c596119ea828760e00151613b56565b60408601819052855160a087015160009350611c8592611af59190611c7f908490613a88565b90613b2b565b905080611cd45760405162461bcd60e51b815260206004820152601b60248201527f4275726e7420616d6f756e742063616e6e6f74206265207a65726f00000000006044820152606401610585565b611cdf816001613a94565b905086811115611d315760405162461bcd60e51b815260206004820152601b60248201527f746f6b656e416d6f756e74203e206d61784275726e416d6f756e7400000000006044820152606401610585565b608085015160405163079cc67960e41b8152336004820152602481018390526001600160a01b03909116906379cc679090604401600060405180830381600087803b158015611d7f57600080fd5b505af1158015611d93573d6000803e3d6000fd5b5050505060005b8451811015611e0557611df3338a8381518110611db957611db961540b565b6020026020010151878481518110611dd357611dd361540b565b60200260200101516001600160a01b0316613e489092919063ffffffff16565b80611dfd8161569a565b915050611d9a565b50336001600160a01b03167f3631c28b1f9dd213e0319fb167b554d76b6c283a41143eb400a0d1adb1af175589848860200151611e4f868b60a00151613a8890919063ffffffff16565b604051611e5f94939291906156b5565b60405180910390a298975050505050505050565b600080611efa8585858860060160009054906101000a90046001600160a01b03166001600160a01b03166318160ddd6040518163ffffffff1660e01b8152600401602060405180830381865afa158015611ed1573d6000803e3d6000fd5b505050506040513d601f19601f82011682018060405250810190611ef5919061565a565b613eab565b5095945050505050565b6305f5e100811115611f4a5760405162461bcd60e51b815260206004820152600f60248201526e08ccaca40d2e640e8dede40d0d2ced608b1b6044820152606401610585565b600482018190556040518181527fd88ea5155021c6f8dafa1a741e173f595cdf77ce7c17d43342131d7f06afdfe5906020015b60405180910390a15050565b6000604051733d602d80600a3d3981f3363d3d373d3d3d363d7360601b81528260601b60148201526e5af43d82803e903d91602b57fd5bf360881b60288201526037816000f09150506001600160a01b0381166120215760405162461bcd60e51b8152602060048201526016602482015275115490cc4c4d8dce8818dc99585d194819985a5b195960521b6044820152606401610585565b919050565b6006840154600785018054604080516020808402820181019092528281526060946001600160a01b031693600093919290919083018282801561209257602002820191906000526020600020905b81546001600160a01b03168152600190910190602001808311612074575b50506040516370a0823160e01b815233600482015293945050506001600160a01b038416916370a082319150602401602060405180830381865afa1580156120de573d6000803e3d6000fd5b505050506040513d601f19601f82011682018060405250810190612102919061565a565b8611156121215760405162461bcd60e51b815260040161058590615673565b805184146121715760405162461bcd60e51b815260206004820181905260248201527f6d696e416d6f756e7473206d757374206d6174636820706f6f6c546f6b656e736044820152606401610585565b6000876009018054806020026020016040519081016040528092919081815260200182805480156121c157602002820191906000526020600020905b8154815260200190600101908083116121ad575b505050505090506000836001600160a01b03166318160ddd6040518163ffffffff1660e01b8152600401602060405180830381865afa158015612208573d6000803e3d6000fd5b505050506040513d601f19601f8201168201806040525081019061222c919061565a565b9050600061223b838a84613f13565b905060005b81518110156123445788888281811061225b5761225b61540b565b905060200201358282815181106122745761227461540b565b602002602001015110156122ca5760405162461bcd60e51b815260206004820152601a60248201527f616d6f756e74735b695d203c206d696e416d6f756e74735b695d0000000000006044820152606401610585565b6122f98282815181106122df576122df61540b565b6020026020010151858381518110611bac57611bac61540b565b8b600901828154811061230e5761230e61540b565b906000526020600020018190555061233233838381518110611db957611db961540b565b8061233c8161569a565b915050612240565b5060405163079cc67960e41b8152336004820152602481018a90526001600160a01b038616906379cc679090604401600060405180830381600087803b15801561238d57600080fd5b505af11580156123a1573d6000803e3d6000fd5b503392507f88d38ed598fdd809c2bf01ee49cd24b7fdabf379a83d29567952b60324d58cef91508390506123d5858d613a88565b6040516123e39291906156ee565b60405180910390a29998505050505050505050565b4281600301541161244b5760405162461bcd60e51b815260206004820152601760248201527f52616d7020697320616c72656164792073746f707065640000000000000000006044820152606401610585565b600061245682613aa0565b808355600183018190554260028401819055600384018190556040519192507f46e22fb3709ad289f62ce63d469248536dbc78d82b84a3d7e74ad606dc20193891611f7d91848252602082015260400190565b600061050b82613aa0565b6000806124c0866124a9565b905060008660090180548060200260200160405190810160405280929190818152602001828054801561251257602002820191906000526020600020905b8154815260200190600101908083116124fe575b5050505050905060008760080180548060200260200160405190810160405280929190818152602001828054801561256957602002820191906000526020600020905b815481526020019060010190808311612555575b50505050509050600061258561257f8484613b56565b85613c64565b905060005b8351811015612678578615612600576125dd8989838181106125ae576125ae61540b565b905060200201358583815181106125c7576125c761540b565b6020026020010151613a9490919063ffffffff16565b8482815181106125ef576125ef61540b565b602002602001018181525050612666565b6126478989838181106126155761261561540b565b9050602002013560405180606001604052806023815260200161579160239139868481518110611a4e57611a4e61540b565b8482815181106126595761265961540b565b6020026020010181815250505b806126708161569a565b91505061258a565b50600061268e6126888585613b56565b86613c64565b905060008a60060160009054906101000a90046001600160a01b03166001600160a01b03166318160ddd6040518163ffffffff1660e01b8152600401602060405180830381865afa1580156126e7573d6000803e3d6000fd5b505050506040513d601f19601f8201168201806040525081019061270b919061565a565b905087156127325761272583611af583611c7f8684613a88565b9650505050505050610efa565b61272583611af583611c7f8387613a88565b600080866007018660ff168154811061275f5761275f61540b565b6000918252602090912001546040516370a0823160e01b81523360048201526001600160a01b03909116915081906370a0823190602401602060405180830381865afa1580156127b3573d6000803e3d6000fd5b505050506040513d601f19601f820116820180604052508101906127d7919061565a565b8411156128265760405162461bcd60e51b815260206004820152601d60248201527f43616e6e6f742073776170206d6f7265207468616e20796f75206f776e0000006044820152606401610585565b6040516370a0823160e01b81523060048201526000906001600160a01b038316906370a0823190602401602060405180830381865afa15801561286d573d6000803e3d6000fd5b505050506040513d601f19601f82011682018060405250810190612891919061565a565b90506128a86001600160a01b038316333088614001565b6040516370a0823160e01b81523060048201526128da9082906001600160a01b038516906370a08231906024016113b4565b9450505060008060008860090180548060200260200160405190810160405280929190818152602001828054801561293157602002820191906000526020600020905b81548152602001906001019080831161291d575b505050505090506129458989898985614039565b90935091508483101561299a5760405162461bcd60e51b815260206004820181905260248201527f53776170206469646e277420726573756c7420696e206d696e20746f6b656e736044820152606401610585565b60006129e28a6008018960ff16815481106129b7576129b761540b565b9060005260206000200154611af56402540be400611af58e6005015488613b2b90919063ffffffff16565b90506129fd87838b60ff16815181106125c7576125c761540b565b8a6009018a60ff1681548110612a1557612a1561540b565b9060005260206000200181905550612a40816113f586858c60ff1681518110611bac57611bac61540b565b8a6009018960ff1681548110612a5857612a5861540b565b9060005260206000200181905550612a9f33858c6007018b60ff1681548110612a8357612a8361540b565b6000918252602090912001546001600160a01b03169190613e48565b604080518881526020810186905260ff8b8116828401528a166060820152905133917fc6c1e0630dbe9130cc068028486c0d118ddcea348550819defd5cb8c257f8a38919081900360800190a25091925050505b95945050505050565b60008084600701805480602002602001604051908101604052809291908181526020018280548015612b5757602002820191906000526020600020905b81546001600160a01b03168152600190910190602001808311612b39575b505050505090508051845114612baf5760405162461bcd60e51b815260206004820181905260248201527f416d6f756e7473206d757374206d6174636820706f6f6c656420746f6b656e736044820152606401610585565b6000604051806101000160405280600081526020016000815260200160008152602001612bdb886124a9565b81526020018760060160009054906101000a90046001600160a01b03166001600160a01b031681526020016000815260200187600901805480602002602001604051908101604052809291908181526020018280548015612c5b57602002820191906000526020600020905b815481526020019060010190808311612c47575b5050505050815260200187600801805480602002602001604051908101604052809291908181526020018280548015612cb357602002820191906000526020600020905b815481526020019060010190808311612c9f575b5050505050815250905080608001516001600160a01b03166318160ddd6040518163ffffffff1660e01b8152600401602060405180830381865afa158015612cff573d6000803e3d6000fd5b505050506040513d601f19601f82011682018060405250810190612d23919061565a565b60a0820181905215612d5157612d4e612d448260c001518360e00151613b56565b8260600151613c64565b81525b600082516001600160401b03811115612d6c57612d6c614eae565b604051908082528060200260200182016040528015612d95578160200160208202803683370190505b50905060005b8351811015612fe85760a0830151151580612dcf57506000878281518110612dc557612dc561540b565b6020026020010151115b612e1b5760405162461bcd60e51b815260206004820152601e60248201527f4d75737420737570706c7920616c6c20746f6b656e7320696e20706f6f6c00006044820152606401610585565b868181518110612e2d57612e2d61540b565b6020026020010151600014612f86576000848281518110612e5057612e5061540b565b60209081029190910101516040516370a0823160e01b81523060048201526001600160a01b03909116906370a0823190602401602060405180830381865afa158015612ea0573d6000803e3d6000fd5b505050506040513d601f19601f82011682018060405250810190612ec4919061565a565b9050612f1833308a8581518110612edd57612edd61540b565b6020026020010151888681518110612ef757612ef761540b565b60200260200101516001600160a01b0316614001909392919063ffffffff16565b612f6681868481518110612f2e57612f2e61540b565b60209081029190910101516040516370a0823160e01b81523060048201526001600160a01b03909116906370a08231906024016113b4565b888381518110612f7857612f7861540b565b602002602001018181525050505b612fb9878281518110612f9b57612f9b61540b565b60200260200101518460c0015183815181106125c7576125c761540b565b828281518110612fcb57612fcb61540b565b602090810291909101015280612fe08161569a565b915050612d9b565b50613004612ffa828460e00151613b56565b8360600151613c64565b6020830181905282511061304e5760405162461bcd60e51b8152602060048201526011602482015270442073686f756c6420696e63726561736560781b6044820152606401610585565b6020820151604083015282516000906001600160401b0381111561307457613074614eae565b60405190808252806020026020018201604052801561309d578160200160208202803683370190505b5090508260a001516000146132495760006130bd89600401548651613b37565b905060005b85518110156132225760006131098660000151611af58860c0015185815181106130ee576130ee61540b565b60200260200101518960200151613b2b90919063ffffffff16565b905061314a6402540be400611af561314388868151811061312c5761312c61540b565b602002602001015185613e2390919063ffffffff16565b8690613b2b565b84838151811061315c5761315c61540b565b6020026020010181815250506131a061318e6402540be400611af58e60050154888781518110611b8457611b8461540b565b868481518110611bac57611bac61540b565b8b60090183815481106131b5576131b561540b565b90600052602060002001819055506131f28483815181106131d8576131d861540b565b6020026020010151868481518110611bac57611bac61540b565b8583815181106132045761320461540b565b6020908102919091010152508061321a8161569a565b9150506130c2565b5061323e613234848660e00151613b56565b8560600151613c64565b604085015250613260565b815161325e9060098a01906020850190614be0565b505b60008360a001516000141561327a5750602083015161329c565b835160a085015160408601516132999291611af591611c7f9084613a88565b90505b868110156132ec5760405162461bcd60e51b815260206004820152601b60248201527f436f756c646e2774206d696e74206d696e2072657175657374656400000000006044820152606401610585565b60808401516040516340c10f1960e01b8152336004820152602481018390526001600160a01b03909116906340c10f1990604401600060405180830381600087803b15801561333a57600080fd5b505af115801561334e573d6000803e3d6000fd5b50505050336001600160a01b03167f189c623b666b1b45b83d7178f39b8c087cb09774317ca2f53c2d3c3726f222a289848760200151611e4f868a60a00151613a9490919063ffffffff16565b6000611efa85858585896009018054806020026020016040519081016040528092919081815260200182805480156133f257602002820191906000526020600020905b8154815260200190600101908083116133de575b5050505050614039565b6402540be4008111156134435760405162461bcd60e51b815260206004820152600f60248201526e08ccaca40d2e640e8dede40d0d2ced608b1b6044820152606401610585565b600582018190556040518181527fab599d640ca80cde2b09b128a4154a8dfe608cb80f4c9399c8b954b01fd35f3890602001611f7d565b6060610508836009018054806020026020016040519081016040528092919081815260200182805480156134cd57602002820191906000526020600020905b8154815260200190600101908083116134b9575b5050505050838560060160009054906101000a90046001600160a01b03166001600160a01b03166318160ddd6040518163ffffffff1660e01b8152600401602060405180830381865afa158015613528573d6000803e3d6000fd5b505050506040513d601f19601f8201168201806040525081019061354c919061565a565b613f13565b6000826007018054806020026020016040519081016040528092919081815260200182805480156135ab57602002820191906000526020600020905b81546001600160a01b0316815260019091019060200180831161358d575b5050505050905060005b815181101561365f5760008282815181106135d2576135d261540b565b60200260200101519050600061362e8660090184815481106135f6576135f661540b565b6000918252602090912001546040516370a0823160e01b81523060048201526001600160a01b038516906370a08231906024016113b4565b9050801561364a5761364a6001600160a01b0383168683613e48565b505080806136579061569a565b9150506135b5565b50505050565b6006840154600785018054604080516020808402820181019092528281526000946001600160a01b031693859391929091908301828280156136d057602002820191906000526020600020905b81546001600160a01b031681526001909101906020018083116136b2575b50506040516370a0823160e01b815233600482015293945050506001600160a01b038416916370a082319150602401602060405180830381865afa15801561371c573d6000803e3d6000fd5b505050506040513d601f19601f82011682018060405250810190613740919061565a565b86111561375f5760405162461bcd60e51b815260040161058590615673565b80518560ff16106137a45760405162461bcd60e51b815260206004820152600f60248201526e151bdad95b881b9bdd08199bdd5b99608a1b6044820152606401610585565b6000826001600160a01b03166318160ddd6040518163ffffffff1660e01b8152600401602060405180830381865afa1580156137e4573d6000803e3d6000fd5b505050506040513d601f19601f82011682018060405250810190613808919061565a565b90506000806138198a8a8a86613eab565b915091508682101561385e5760405162461bcd60e51b815260206004820152600e60248201526d191e480f081b5a5b905b5bdd5b9d60921b6044820152606401610585565b6138bc61388b6138846402540be400611af58e6005015486613b2b90919063ffffffff16565b8490613a94565b8b6009018a60ff16815481106138a3576138a361540b565b9060005260206000200154613a8890919063ffffffff16565b8a6009018960ff16815481106138d4576138d461540b565b60009182526020909120015560405163079cc67960e41b8152336004820152602481018a90526001600160a01b038616906379cc679090604401600060405180830381600087803b15801561392857600080fd5b505af115801561393c573d6000803e3d6000fd5b5050505061395a3383868b60ff1681518110611dd357611dd361540b565b604080518a81526020810185905260ff8a168183015260608101849052905133917f43fb02998f4e03da2e0e6fff53fdbf0c40a9f45f145dc377fc30615d7d7a8a64919081900360800190a25098975050505050505050565b600061050b6064611af584613aa0565b6000806139e06139d2846141c4565b6139db856124a9565b613c64565b905060008360060160009054906101000a90046001600160a01b031690506000816001600160a01b03166318160ddd6040518163ffffffff1660e01b8152600401602060405180830381865afa158015613a3e573d6000803e3d6000fd5b505050506040513d601f19601f82011682018060405250810190613a62919061565a565b90508015613a7d57612af381611af56131436012600a61553e565b506000949350505050565b60006105088284615710565b60006105088284615727565b60038101546001820154600091904282111561062b576002840154845480831115613afd57613af3613aec613ad58685613a88565b611af5613ae24287613a88565b611c7f8887613a88565b8290613a94565b9695505050505050565b613af3613b24613b0d8685613a88565b611af5613b1a4287613a88565b611c7f8689613a88565b8290613a88565b60006105088284615604565b6000610508613b4c6004611c7f856001613a88565b611af58585613b2b565b81518151606091908114613bac5760405162461bcd60e51b815260206004820152601f60248201527f42616c616e636573206d757374206d61746368206d756c7469706c69657273006044820152606401610585565b6000816001600160401b03811115613bc657613bc6614eae565b604051908082528060200260200182016040528015613bef578160200160208202803683370190505b50905060005b82811015613c5b57613c2c858281518110613c1257613c1261540b565b6020026020010151878381518110611b8457611b8461540b565b828281518110613c3e57613c3e61540b565b602090810291909101015280613c538161569a565b915050613bf5565b50949350505050565b815160009081805b82811015613cb457613ca0868281518110613c8957613c8961540b565b602002602001015183613a9490919063ffffffff16565b915080613cac8161569a565b915050613c6c565b5080613cc55760009250505061050b565b60008181613cd38786613b2b565b905060005b610100811015613dac578260005b87811015613d2557613d11613d07898d8481518110611b8457611b8461540b565b611af58488613b2b565b915080613d1d8161569a565b915050613ce6565b509293508392613d79613d59613d4083611c7f8b6001613a94565b613d536064611af589611c7f8a84613a88565b90613a94565b611af586611c7f613d6a868d613b2b565b613d536064611af58b8f613b2b565b9350613d858486614274565b15613d99578397505050505050505061050b565b5080613da48161569a565b915050613cd8565b5060405162461bcd60e51b81526020600482015260136024820152724420646f6573206e6f7420636f6e766572676560681b6044820152606401610585565b60008184841115613e0f5760405162461bcd60e51b8152600401610585919061573f565b505050900390565b60006105088284615752565b600081831115613e3e57613e378284615710565b905061050b565b6105088383615710565b6040516001600160a01b03831660248201526044810182905261055a90849063a9059cbb60e01b906064015b60408051601f198184030181529190526020810180516001600160e01b03166001600160e01b03199093169290921790915261428b565b6000806000806000613ebf89888a8961435d565b8093508194508295505050506000613f02846113f58c6008018b60ff1681548110613eec57613eec61540b565b600091825260209091200154611af58688613a88565b939a93995092975050505050505050565b606081831115613f655760405162461bcd60e51b815260206004820152601a60248201527f43616e6e6f742065786365656420746f74616c20737570706c790000000000006044820152606401610585565b600084516001600160401b03811115613f8057613f80614eae565b604051908082528060200260200182016040528015613fa9578160200160208202803683370190505b50905060005b8551811015613c5b57613fd284611af587898581518110611b8457611b8461540b565b828281518110613fe457613fe461540b565b602090810291909101015280613ff98161569a565b915050613faf565b6040516001600160a01b038085166024830152831660448201526064810182905261365f9085906323b872dd60e01b90608401613e74565b60008060008760080180548060200260200160405190810160405280929190818152602001828054801561408c57602002820191906000526020600020905b815481526020019060010190808311614078575b50505050509050600061409f8583613b56565b905080518860ff161080156140b7575080518760ff16105b6140d35760405162461bcd60e51b815260040161058590615623565b6000614124828a60ff16815181106140ed576140ed61540b565b6020026020010151613d53858c60ff168151811061410d5761410d61540b565b60200260200101518a613b2b90919063ffffffff16565b9050600061413d6141348c6124a9565b8b8b8587614645565b905061415d60016113f583868d60ff1681518110611bac57611bac61540b565b955061417f6402540be400611af58d6004015489613b2b90919063ffffffff16565b94506141b4848a60ff16815181106141995761419961540b565b6020026020010151611af58789613a8890919063ffffffff16565b9550505050509550959350505050565b606061050b8260090180548060200260200160405190810160405280929190818152602001828054801561421757602002820191906000526020600020905b815481526020019060010190808311614203575b50505050508360080180548060200260200160405190810160405280929190818152602001828054801561426a57602002820191906000526020600020905b815481526020019060010190808311614256575b5050505050613b56565b600060016142828484613e23565b11159392505050565b60006142e0826040518060400160405280602081526020017f5361666545524332303a206c6f772d6c6576656c2063616c6c206661696c6564815250856001600160a01b031661488f9092919063ffffffff16565b80519091501561055a57808060200190518101906142fe91906155e7565b61055a5760405162461bcd60e51b815260206004820152602a60248201527f5361666545524332303a204552433230206f7065726174696f6e20646964206e6044820152691bdd081cdd58d8d9595960b21b6064820152608401610585565b60008060008061436c886141c4565b905080518760ff16106143915760405162461bcd60e51b815260040161058590615623565b60006040518060a0016040528060008152602001600081526020016000815260200160008152602001600081525090506143ca896124a9565b608082018190526143dc908390613c64565b8082526143fc906143f4908890611af5908b90613b2b565b825190613a88565b60208201528151829060ff8a169081106144185761441861540b565b602002602001015187111561446f5760405162461bcd60e51b815260206004820152601a60248201527f5769746864726177206578636565647320617661696c61626c650000000000006044820152606401610585565b61448381608001518984846020015161489e565b604082015281516000906001600160401b038111156144a4576144a4614eae565b6040519080825280602002602001820160405280156144cd578160200160208202803683370190505b5090506144df8a600401548451613b37565b606083015260005b83518110156145a95760008482815181106145045761450461540b565b60200260200101519050614579613b246402540be400611af587606001518f60ff16871461455257885160208a015161454d9161454691611af5908a90613b2b565b8790613a88565b611c7f565b611c7f89604001516113f58b60000151611af58d602001518b613b2b90919063ffffffff16565b83838151811061458b5761458b61540b565b602090810291909101015250806145a18161569a565b9150506144e7565b5060006145d86145c384608001518c85876020015161489e565b838c60ff1681518110611bac57611bac61540b565b905061460c8b6008018b60ff16815481106145f5576145f561540b565b600091825260209091200154611af5836001613a88565b9050808360400151858c60ff16815181106146295761462961540b565b6020026020010151965096509650505050509450945094915050565b805160009060ff86811690861614156146a05760405162461bcd60e51b815260206004820152601d60248201527f43616e277420636f6d7061726520746f6b656e20746f20697473656c660000006044820152606401610585565b808660ff161080156146b45750808560ff16105b6146f95760405162461bcd60e51b8152602060048201526016602482015275151bdad95b9cc81b5d5cdd081899481a5b881c1bdbdb60521b6044820152606401610585565b60006147058489613c64565b905080600080614715858c613b2b565b90506000805b8681101561479e578b60ff1681141561473657899150614766565b8a60ff168114614761578881815181106147525761475261540b565b60200260200101519150614766565b61478c565b6147708483613a94565b935061478961477f8389613b2b565b611af58789613b2b565b94505b806147968161569a565b91505061471b565b506147bb6147ac8388613b2b565b611af56064611c7f888a613b2b565b935060006147d86147d184611af5896064613b2b565b8590613a94565b9050600086815b6101008110156148465790915081906148126148048a6113f587613d53876002613b2b565b611af58a613d538680613b2b565b915061481e8284614274565b1561483457509850612af3975050505050505050565b8061483e8161569a565b9150506147df565b5060405162461bcd60e51b815260206004820152601e60248201527f417070726f78696d6174696f6e20646964206e6f7420636f6e766572676500006044820152606401610585565b60606106288484600085614a11565b815160009060ff851681116148e75760405162461bcd60e51b815260206004820152600f60248201526e151bdad95b881b9bdd08199bdd5b99608a1b6044820152606401610585565b826000806148f58985613b2b565b905060005b84811015614972578860ff168114614960576149388882815181106149215761492161540b565b602002602001015184613a9490919063ffffffff16565b925061495d614953868a8481518110611b8457611b8461540b565b611af5868a613b2b565b93505b8061496a8161569a565b9150506148fa565b5061498f6149808286613b2b565b611af56064611c7f878b613b2b565b925060006149a561388483611af58a6064613b2b565b9050600087815b6101008110156148465790915081906149df6149d18b6113f587613d53876002613b2b565b611af589613d538680613b2b565b91506149eb8284614274565b156149ff57509650610efa95505050505050565b80614a098161569a565b9150506149ac565b606082471015614a725760405162461bcd60e51b815260206004820152602660248201527f416464726573733a20696e73756666696369656e742062616c616e636520666f6044820152651c8818d85b1b60d21b6064820152608401610585565b6001600160a01b0385163b614ac95760405162461bcd60e51b815260206004820152601d60248201527f416464726573733a2063616c6c20746f206e6f6e2d636f6e74726163740000006044820152606401610585565b600080866001600160a01b03168587604051614ae59190615774565b60006040518083038185875af1925050503d8060008114614b22576040519150601f19603f3d011682016040523d82523d6000602084013e614b27565b606091505b5091509150614b37828286614b42565b979650505050505050565b60608315614b5157508161062b565b825115614b615782518084602001fd5b8160405162461bcd60e51b8152600401610585919061573f565b828054828255906000526020600020908101928215614bd0579160200282015b82811115614bd057825182546001600160a01b0319166001600160a01b03909116178255602090920191600190910190614b9b565b50614bdc929150614c1b565b5090565b828054828255906000526020600020908101928215614bd0579160200282015b82811115614bd0578251825591602001919060010190614c00565b5b80821115614bdc5760008155600101614c1c565b60008060408385031215614c4357600080fd5b50508035926020909101359150565b600080600060608486031215614c6757600080fd5b505081359360208301359350604090920135919050565b60008083601f840112614c9057600080fd5b5081356001600160401b03811115614ca757600080fd5b6020830191508360208260051b8501011115614cc257600080fd5b9250929050565b600080600080600060808688031215614ce157600080fd5b8535945060208601356001600160401b03811115614cfe57600080fd5b614d0a88828901614c7e565b9699909850959660408101359660609091013595509350505050565b803560ff8116811461202157600080fd5b600080600060608486031215614d4c57600080fd5b8335925060208401359150614d6360408501614d26565b90509250925092565b600060208284031215614d7e57600080fd5b5035919050565b600081518084526020808501945080840160005b83811015614dbe5781516001600160a01b031687529582019590820190600101614d99565b509495945050505050565b600081518084526020808501945080840160005b83811015614dbe57815187529582019590820190600101614ddd565b6020815281516020820152602082015160408201526040820151606082015260608201516080820152608082015160a082015260a082015160c0820152600060c0830151614e5260e08401826001600160a01b03169052565b5060e08301516101406101008181860152614e71610160860184614d85565b9250808601519050601f19610120818786030181880152614e928584614dc9565b908801518782039092018488015293509050613af38382614dc9565b634e487b7160e01b600052604160045260246000fd5b604051601f8201601f191681016001600160401b0381118282101715614eec57614eec614eae565b604052919050565b60006001600160401b03821115614f0d57614f0d614eae565b5060051b60200190565b6001600160a01b0381168114610ec357600080fd5b600082601f830112614f3d57600080fd5b81356020614f52614f4d83614ef4565b614ec4565b82815260059290921b84018101918181019086841115614f7157600080fd5b8286015b84811015614f95578035614f8881614f17565b8352918301918301614f75565b509695505050505050565b600082601f830112614fb157600080fd5b81356020614fc1614f4d83614ef4565b82815260059290921b84018101918181019086841115614fe057600080fd5b8286015b84811015614f9557614ff581614d26565b8352918301918301614fe4565b600082601f83011261501357600080fd5b81356001600160401b0381111561502c5761502c614eae565b61503f601f8201601f1916602001614ec4565b81815284602083860101111561505457600080fd5b816020850160208301376000918101602001919091529392505050565b803561202181614f17565b60008060008060008060008060006101208a8c03121561509b57600080fd5b8935985060208a01356001600160401b03808211156150b957600080fd5b6150c58d838e01614f2c565b995060408c01359150808211156150db57600080fd5b6150e78d838e01614fa0565b985060608c01359150808211156150fd57600080fd5b6151098d838e01615002565b975060808c013591508082111561511f57600080fd5b5061512c8c828d01615002565b95505060a08a0135935060c08a0135925060e08a013591506151516101008b01615071565b90509295985092959850929598565b60008060008060006080868803121561517857600080fd5b853594506020860135935060408601356001600160401b0381111561519c57600080fd5b6151a888828901614c7e565b96999598509660600135949350505050565b6020815260006105086020830184614dc9565b8015158114610ec357600080fd5b600080600080606085870312156151f157600080fd5b8435935060208501356001600160401b0381111561520e57600080fd5b61521a87828801614c7e565b909450925050604085013561522e816151cd565b939692955090935050565b60008060008060008060c0878903121561525257600080fd5b8635955060208701359450604087013561526b81614f17565b9350606087013561527b81614f17565b9598949750929560808101359460a0909101359350915050565b600080600080608085870312156152ab57600080fd5b843593506152bb60208601614d26565b92506152c960408601614d26565b9396929550929360600135925050565b600080604083850312156152ec57600080fd5b8235915060208301356152fe81614f17565b809150509250929050565b6000806040838503121561531c57600080fd5b8235915061532c60208401614d26565b90509250929050565b600080600080600060a0868803121561534d57600080fd5b853594506020860135935061536460408701614d26565b94979396509394606081013594506080013592915050565b60008060008060008060c0878903121561539557600080fd5b863595506153a560208801614d26565b94506153b360408801614d26565b9350606087013592506080870135915060a087013590509295509295509295565b6020808252601f908201527f5265656e7472616e637947756172643a207265656e7472616e742063616c6c00604082015260600190565b634e487b7160e01b600052603260045260246000fd5b634e487b7160e01b600052601160045260246000fd5b600060ff821660ff84168082101561545157615451615421565b90039392505050565b600181815b8085111561549557816000190482111561547b5761547b615421565b8085161561548857918102915b93841c939080029061545f565b509250929050565b6000826154ac5750600161050b565b816154b95750600061050b565b81600181146154cf57600281146154d9576154f5565b600191505061050b565b60ff8411156154ea576154ea615421565b50506001821b61050b565b5060208310610133831016604e8410600b8410161715615518575081810a61050b565b615522838361545a565b806000190482111561553657615536615421565b029392505050565b6000610508838361549d565b600060ff821660ff81141561556157615561615421565b60010192915050565b60005b8381101561558557818101518382015260200161556d565b8381111561365f5750506000910152565b600081518084526155ae81602086016020860161556a565b601f01601f19169290920160200192915050565b6040815260006155d56040830185615596565b8281036020840152612af38185615596565b6000602082840312156155f957600080fd5b8151610508816151cd565b600081600019048311821515161561561e5761561e615421565b500290565b60208082526018908201527f546f6b656e20696e646578206f7574206f662072616e67650000000000000000604082015260600190565b60006020828403121561566c57600080fd5b5051919050565b6020808252600d908201526c1f2628173130b630b731b2a7b360991b604082015260600190565b60006000198214156156ae576156ae615421565b5060010190565b6080815260006156c86080830187614dc9565b82810360208401526156da8187614dc9565b604084019590955250506060015292915050565b6040815260006157016040830185614dc9565b90508260208301529392505050565b60008282101561572257615722615421565b500390565b6000821982111561573a5761573a615421565b500190565b6020815260006105086020830184615596565b60008261576f57634e487b7160e01b600052601260045260246000fd5b500490565b6000825161578681846020870161556a565b919091019291505056fe43616e6e6f74207769746864726177206d6f7265207468616e20617661696c61626c65a26469706673582212207193e64426b9ae0b2052c0019116663874203158702ca152058a44504d6cf03a64736f6c634300080b0033",
  "devdoc": {
    "details": "Most of the logic is stored as a library `SwapUtils` for the sake of reducing contract's deployment size.",
    "kind": "dev",
    "methods": {
      "addSwapLiquidity(bytes32,uint256[],uint256,uint256)": {
        "params": {
          "amounts": "the amounts of each token to add, in their native precision",
          "canonicalId": "the canonical token id",
          "deadline": "latest timestamp to accept this transaction",
          "minToMint": "the minimum LP tokens adding this amount of liquidity should mint, otherwise revert. Handy for front-running mitigation"
        },
        "returns": {
          "_0": "amount of LP token user minted and received"
        }
      },
      "calculateRemoveSwapLiquidity(bytes32,uint256)": {
        "params": {
          "amount": "the amount of LP tokens that would be burned on withdrawal",
          "canonicalId": "the canonical token id"
        },
        "returns": {
          "_0": "array of token balances that the user will receive"
        }
      },
      "calculateRemoveSwapLiquidityOneToken(bytes32,uint256,uint8)": {
        "params": {
          "canonicalId": "the canonical token id",
          "tokenAmount": "the amount of LP token to burn",
          "tokenIndex": "index of which token will be withdrawn"
        },
        "returns": {
          "availableTokenAmount": "calculated amount of underlying token available to withdraw"
        }
      },
      "calculateSwap(bytes32,uint8,uint8,uint256)": {
        "params": {
          "canonicalId": "the canonical token id",
          "dx": "the amount of tokens the user wants to sell. If the token charges a fee on transfers, use the amount that gets transferred after the fee.",
          "tokenIndexFrom": "the token the user wants to sell",
          "tokenIndexTo": "the token the user wants to buy"
        },
        "returns": {
          "_0": "amount of tokens the user will receive"
        }
      },
      "calculateSwapTokenAmount(bytes32,uint256[],bool)": {
        "details": "This shouldn't be used outside frontends for user estimates.",
        "params": {
          "amounts": "an array of token amounts to deposit or withdrawal, corresponding to pooledTokens. The amount should be in each pooled token's native precision. If a token charges a fee on transfers, use the amount that gets transferred after the fee.",
          "canonicalId": "the canonical token id",
          "deposit": "whether this is a deposit or a withdrawal"
        },
        "returns": {
          "_0": "token amount the user will receive"
        }
      },
      "getSwapA(bytes32)": {
        "details": "See the StableSwap paper for details",
        "params": {
          "canonicalId": "the canonical token id"
        },
        "returns": {
          "_0": "A parameter"
        }
      },
      "getSwapAPrecise(bytes32)": {
        "details": "See the StableSwap paper for details",
        "params": {
          "canonicalId": "the canonical token id"
        },
        "returns": {
          "_0": "A parameter in its raw precision form"
        }
      },
      "getSwapAdminBalance(bytes32,uint256)": {
        "params": {
          "canonicalId": "the canonical token id",
          "index": "Index of the pooled token"
        },
        "returns": {
          "_0": "admin's token balance in the token's precision"
        }
      },
      "getSwapLPToken(bytes32)": {
        "params": {
          "canonicalId": "the canonical token id"
        },
        "returns": {
          "_0": "LPToken"
        }
      },
      "getSwapStorage(bytes32)": {
        "params": {
          "canonicalId": "the canonical token id"
        },
        "returns": {
          "_0": "SwapUtils.Swap"
        }
      },
      "getSwapToken(bytes32,uint8)": {
        "params": {
          "canonicalId": "the canonical token id",
          "index": "the index of the token"
        },
        "returns": {
          "_0": "address of the token at given index"
        }
      },
      "getSwapTokenBalance(bytes32,uint8)": {
        "params": {
          "canonicalId": "the canonical token id",
          "index": "the index of the token"
        },
        "returns": {
          "_0": "current balance of the pooled token at given index with token's native precision"
        }
      },
      "getSwapTokenIndex(bytes32,address)": {
        "params": {
          "canonicalId": "the canonical token id",
          "tokenAddress": "address of the token"
        },
        "returns": {
          "_0": "the index of the given token address"
        }
      },
      "getSwapVirtualPrice(bytes32)": {
        "params": {
          "canonicalId": "the canonical token id"
        },
        "returns": {
          "_0": "the virtual price, scaled to the POOL_PRECISION_DECIMALS"
        }
      },
      "initializeSwap(bytes32,address[],uint8[],string,string,uint256,uint256,uint256,address)": {
        "params": {
          "_a": "the amplification coefficient * n * (n - 1). See the StableSwap paper for details",
          "_adminFee": "default adminFee to be initialized with",
          "_canonicalId": "the canonical token id",
          "_fee": "default swap fee to be initialized with",
          "_pooledTokens": "an array of ERC20s this pool will accept",
          "decimals": "the decimals to use for each pooled token, eg 8 for WBTC. Cannot be larger than POOL_PRECISION_DECIMALS",
          "lpTokenName": "the long-form name of the token to be deployed",
          "lpTokenSymbol": "the short symbol for the token to be deployed",
          "lpTokenTargetAddress": "the address of an existing LPToken contract to use as a target"
        }
      },
      "rampA(bytes32,uint256,uint256)": {
        "params": {
          "canonicalId": "the canonical token id",
          "futureA": "the new A to ramp towards",
          "futureTime": "timestamp when the new A should be reached"
        }
      },
      "removeSwapLiquidity(bytes32,uint256,uint256[],uint256)": {
        "details": "Liquidity can always be removed, even when the pool is paused.",
        "params": {
          "amount": "the amount of LP tokens to burn",
          "canonicalId": "the canonical token id",
          "deadline": "latest timestamp to accept this transaction",
          "minAmounts": "the minimum amounts of each token in the pool        acceptable for this burn. Useful as a front-running mitigation"
        },
        "returns": {
          "_0": "amounts of tokens user received"
        }
      },
      "removeSwapLiquidityImbalance(bytes32,uint256[],uint256,uint256)": {
        "params": {
          "amounts": "how much of each token to withdraw",
          "canonicalId": "the canonical token id",
          "deadline": "latest timestamp to accept this transaction",
          "maxBurnAmount": "the max LP token provider is willing to pay to remove liquidity. Useful as a front-running mitigation."
        },
        "returns": {
          "_0": "amount of LP tokens burned"
        }
      },
      "removeSwapLiquidityOneToken(bytes32,uint256,uint8,uint256,uint256)": {
        "params": {
          "canonicalId": "the canonical token id",
          "deadline": "latest timestamp to accept this transaction",
          "minAmount": "the minimum amount to withdraw, otherwise revert",
          "tokenAmount": "the amount of the token you want to receive",
          "tokenIndex": "the index of the token you want to receive"
        },
        "returns": {
          "_0": "amount of chosen token user received"
        }
      },
      "setSwapAdminFee(bytes32,uint256)": {
        "params": {
          "canonicalId": "the canonical token id",
          "newAdminFee": "new admin fee to be applied on future transactions"
        }
      },
      "setSwapFee(bytes32,uint256)": {
        "params": {
          "canonicalId": "the canonical token id",
          "newSwapFee": "new swap fee to be applied on future transactions"
        }
      },
      "stopRampA(bytes32)": {
        "params": {
          "canonicalId": "the canonical token id"
        }
      },
      "swap(bytes32,uint8,uint8,uint256,uint256,uint256)": {
        "params": {
          "canonicalId": "the canonical token id",
          "deadline": "latest timestamp to accept this transaction",
          "dx": "the amount of tokens the user wants to swap from",
          "minDy": "the min amount the user would like to receive, or revert.",
          "tokenIndexFrom": "the token the user wants to swap from",
          "tokenIndexTo": "the token the user wants to swap to"
        }
      },
      "swapExact(bytes32,uint256,address,address,uint256,uint256)": {
        "params": {
          "amountIn": "the amount of tokens the user wants to swap from",
          "assetIn": "the token the user wants to swap from",
          "assetOut": "the token the user wants to swap to",
          "canonicalId": "the canonical token id"
        }
      },
      "withdrawSwapAdminFees(bytes32)": {
        "params": {
          "canonicalId": "the canonical token id"
        }
      }
    },
    "title": "Swap - A StableSwap implementation in solidity.",
    "version": 1
  },
  "userdoc": {
    "kind": "user",
    "methods": {
      "addSwapLiquidity(bytes32,uint256[],uint256,uint256)": {
        "notice": "Add liquidity to the pool with the given amounts of tokens"
      },
      "calculateRemoveSwapLiquidity(bytes32,uint256)": {
        "notice": "A simple method to calculate amount of each underlying tokens that is returned upon burning given amount of LP tokens"
      },
      "calculateRemoveSwapLiquidityOneToken(bytes32,uint256,uint8)": {
        "notice": "Calculate the amount of underlying token available to withdraw when withdrawing via only single token"
      },
      "calculateSwap(bytes32,uint8,uint8,uint256)": {
        "notice": "Calculate amount of tokens you receive on swap"
      },
      "calculateSwapTokenAmount(bytes32,uint256[],bool)": {
        "notice": "A simple method to calculate prices from deposits or withdrawals, excluding fees but including slippage. This is helpful as an input into the various \"min\" parameters on calls to fight front-running"
      },
      "getSwapA(bytes32)": {
        "notice": "Return A, the amplification coefficient * n * (n - 1)"
      },
      "getSwapAPrecise(bytes32)": {
        "notice": "Return A in its raw precision form"
      },
      "getSwapAdminBalance(bytes32,uint256)": {
        "notice": "This function reads the accumulated amount of admin fees of the token with given index"
      },
      "getSwapLPToken(bytes32)": {
        "notice": "Return LP token for canonical Id"
      },
      "getSwapStorage(bytes32)": {
        "notice": "Return Stable swap storage"
      },
      "getSwapToken(bytes32,uint8)": {
        "notice": "Return address of the pooled token at given index. Reverts if tokenIndex is out of range."
      },
      "getSwapTokenBalance(bytes32,uint8)": {
        "notice": "Return current balance of the pooled token at given index"
      },
      "getSwapTokenIndex(bytes32,address)": {
        "notice": "Return the index of the given token address. Reverts if no matching token is found."
      },
      "getSwapVirtualPrice(bytes32)": {
        "notice": "Get the virtual price, to help calculate profit"
      },
      "initializeSwap(bytes32,address[],uint8[],string,string,uint256,uint256,uint256,address)": {
        "notice": "Initializes this Swap contract with the given parameters. This will also clone a LPToken contract that represents users' LP positions. The owner of LPToken will be this contract - which means only this contract is allowed to mint/burn tokens."
      },
      "rampA(bytes32,uint256,uint256)": {
        "notice": "Start ramping up or down A parameter towards given futureA and futureTime Checks if the change is too rapid, and commits the new A value only when it falls under the limit range."
      },
      "removeSwapLiquidity(bytes32,uint256,uint256[],uint256)": {
        "notice": "Burn LP tokens to remove liquidity from the pool. Withdraw fee that decays linearly over period of 4 weeks since last deposit will apply."
      },
      "removeSwapLiquidityImbalance(bytes32,uint256[],uint256,uint256)": {
        "notice": "Remove liquidity from the pool, weighted differently than the pool's current balances. Withdraw fee that decays linearly over period of 4 weeks since last deposit will apply."
      },
      "removeSwapLiquidityOneToken(bytes32,uint256,uint8,uint256,uint256)": {
        "notice": "Remove liquidity from the pool all in one token. Withdraw fee that decays linearly over period of 4 weeks since last deposit will apply."
      },
      "setSwapAdminFee(bytes32,uint256)": {
        "notice": "Update the admin fee. Admin fee takes portion of the swap fee."
      },
      "setSwapFee(bytes32,uint256)": {
        "notice": "Update the swap fee to be applied on swaps"
      },
      "stopRampA(bytes32)": {
        "notice": "Stop ramping A immediately. Reverts if ramp A is already stopped."
      },
      "swap(bytes32,uint8,uint8,uint256,uint256,uint256)": {
        "notice": "Swap two tokens using this pool"
      },
      "swapExact(bytes32,uint256,address,address,uint256,uint256)": {
        "notice": "Swap two tokens using this pool"
      },
      "withdrawSwapAdminFees(bytes32)": {
        "notice": "Withdraw all admin fees to the contract owner"
      }
    },
    "notice": "This contract is responsible for custody of closely pegged assets (eg. group of stablecoins) and automatic market making system. Users become an LP (Liquidity Provider) by depositing their tokens in desired ratios for an exchange of the pool token that represents their share of the pool. Users can burn pool tokens and withdraw their share of token(s). Each time a swap between the pooled tokens happens, a set fee incurs which effectively gets distributed to the LPs. In case of emergencies, admin can pause additional deposits, swaps, or single-asset withdraws - which stops the ratio of the tokens in the pool from changing. Users can always withdraw their tokens via multi-asset withdraws.",
    "version": 1
  },
  "storageLayout": {
    "storage": [
      {
        "astId": 7961,
        "contract": "contracts/facets/StableSwapFacet.sol:StableSwapFacet",
        "label": "s",
        "offset": 0,
        "slot": "0",
        "type": "t_struct(AppStorage)16472_storage"
      }
    ],
    "types": {
      "t_address": {
        "encoding": "inplace",
        "label": "address",
        "numberOfBytes": "20"
      },
      "t_array(t_address)dyn_storage": {
        "base": "t_address",
        "encoding": "dynamic_array",
        "label": "address[]",
        "numberOfBytes": "32"
      },
      "t_array(t_contract(IERC20)3250)dyn_storage": {
        "base": "t_contract(IERC20)3250",
        "encoding": "dynamic_array",
        "label": "contract IERC20[]",
        "numberOfBytes": "32"
      },
      "t_array(t_uint256)dyn_storage": {
        "base": "t_uint256",
        "encoding": "dynamic_array",
        "label": "uint256[]",
        "numberOfBytes": "32"
      },
      "t_bool": {
        "encoding": "inplace",
        "label": "bool",
        "numberOfBytes": "1"
      },
      "t_bytes32": {
        "encoding": "inplace",
        "label": "bytes32",
        "numberOfBytes": "32"
      },
      "t_contract(IERC20)3250": {
        "encoding": "inplace",
        "label": "contract IERC20",
        "numberOfBytes": "20"
      },
      "t_contract(IExecutor)13988": {
        "encoding": "inplace",
        "label": "contract IExecutor",
        "numberOfBytes": "20"
      },
      "t_contract(ISponsorVault)14088": {
        "encoding": "inplace",
        "label": "contract ISponsorVault",
        "numberOfBytes": "20"
      },
      "t_contract(IStableSwap)14350": {
        "encoding": "inplace",
        "label": "contract IStableSwap",
        "numberOfBytes": "20"
      },
      "t_contract(ITokenRegistry)30636": {
        "encoding": "inplace",
        "label": "contract ITokenRegistry",
        "numberOfBytes": "20"
      },
      "t_contract(IWrapped)14385": {
        "encoding": "inplace",
        "label": "contract IWrapped",
        "numberOfBytes": "20"
      },
      "t_contract(LPToken)16267": {
        "encoding": "inplace",
        "label": "contract LPToken",
        "numberOfBytes": "20"
      },
      "t_contract(PromiseRouter)29992": {
        "encoding": "inplace",
        "label": "contract PromiseRouter",
        "numberOfBytes": "20"
      },
      "t_contract(RelayerFeeRouter)30503": {
        "encoding": "inplace",
        "label": "contract RelayerFeeRouter",
        "numberOfBytes": "20"
      },
      "t_contract(XAppConnectionManager)22532": {
        "encoding": "inplace",
        "label": "contract XAppConnectionManager",
        "numberOfBytes": "20"
      },
      "t_mapping(t_address,t_address)": {
        "encoding": "mapping",
        "key": "t_address",
        "label": "mapping(address => address)",
        "numberOfBytes": "32",
        "value": "t_address"
      },
      "t_mapping(t_address,t_bool)": {
        "encoding": "mapping",
        "key": "t_address",
        "label": "mapping(address => bool)",
        "numberOfBytes": "32",
        "value": "t_bool"
      },
      "t_mapping(t_address,t_mapping(t_address,t_uint256))": {
        "encoding": "mapping",
        "key": "t_address",
        "label": "mapping(address => mapping(address => uint256))",
        "numberOfBytes": "32",
        "value": "t_mapping(t_address,t_uint256)"
      },
      "t_mapping(t_address,t_struct(TokenId)15611_storage)": {
        "encoding": "mapping",
        "key": "t_address",
        "label": "mapping(address => struct ConnextMessage.TokenId)",
        "numberOfBytes": "32",
        "value": "t_struct(TokenId)15611_storage"
      },
      "t_mapping(t_address,t_uint256)": {
        "encoding": "mapping",
        "key": "t_address",
        "label": "mapping(address => uint256)",
        "numberOfBytes": "32",
        "value": "t_uint256"
      },
      "t_mapping(t_address,t_uint8)": {
        "encoding": "mapping",
        "key": "t_address",
        "label": "mapping(address => uint8)",
        "numberOfBytes": "32",
        "value": "t_uint8"
      },
      "t_mapping(t_bytes32,t_address)": {
        "encoding": "mapping",
        "key": "t_bytes32",
        "label": "mapping(bytes32 => address)",
        "numberOfBytes": "32",
        "value": "t_address"
      },
      "t_mapping(t_bytes32,t_array(t_address)dyn_storage)": {
        "encoding": "mapping",
        "key": "t_bytes32",
        "label": "mapping(bytes32 => address[])",
        "numberOfBytes": "32",
        "value": "t_array(t_address)dyn_storage"
      },
      "t_mapping(t_bytes32,t_bool)": {
        "encoding": "mapping",
        "key": "t_bytes32",
        "label": "mapping(bytes32 => bool)",
        "numberOfBytes": "32",
        "value": "t_bool"
      },
      "t_mapping(t_bytes32,t_contract(IStableSwap)14350)": {
        "encoding": "mapping",
        "key": "t_bytes32",
        "label": "mapping(bytes32 => contract IStableSwap)",
        "numberOfBytes": "32",
        "value": "t_contract(IStableSwap)14350"
      },
      "t_mapping(t_bytes32,t_mapping(t_address,t_uint8))": {
        "encoding": "mapping",
        "key": "t_bytes32",
        "label": "mapping(bytes32 => mapping(address => uint8))",
        "numberOfBytes": "32",
        "value": "t_mapping(t_address,t_uint8)"
      },
      "t_mapping(t_bytes32,t_struct(Swap)17753_storage)": {
        "encoding": "mapping",
        "key": "t_bytes32",
        "label": "mapping(bytes32 => struct SwapUtils.Swap)",
        "numberOfBytes": "32",
        "value": "t_struct(Swap)17753_storage"
      },
      "t_mapping(t_bytes32,t_uint256)": {
        "encoding": "mapping",
        "key": "t_bytes32",
        "label": "mapping(bytes32 => uint256)",
        "numberOfBytes": "32",
        "value": "t_uint256"
      },
      "t_mapping(t_uint32,t_bytes32)": {
        "encoding": "mapping",
        "key": "t_uint32",
        "label": "mapping(uint32 => bytes32)",
        "numberOfBytes": "32",
        "value": "t_bytes32"
      },
      "t_struct(AppStorage)16472_storage": {
        "encoding": "inplace",
        "label": "struct AppStorage",
        "members": [
          {
            "astId": 16361,
            "contract": "contracts/facets/StableSwapFacet.sol:StableSwapFacet",
            "label": "initialized",
            "offset": 0,
            "slot": "0",
            "type": "t_bool"
          },
          {
            "astId": 16363,
            "contract": "contracts/facets/StableSwapFacet.sol:StableSwapFacet",
            "label": "LIQUIDITY_FEE_NUMERATOR",
            "offset": 0,
            "slot": "1",
            "type": "t_uint256"
          },
          {
            "astId": 16365,
            "contract": "contracts/facets/StableSwapFacet.sol:StableSwapFacet",
            "label": "LIQUIDITY_FEE_DENOMINATOR",
            "offset": 0,
            "slot": "2",
            "type": "t_uint256"
          },
          {
            "astId": 16368,
            "contract": "contracts/facets/StableSwapFacet.sol:StableSwapFacet",
            "label": "relayerFeeRouter",
            "offset": 0,
            "slot": "3",
            "type": "t_contract(RelayerFeeRouter)30503"
          },
          {
            "astId": 16371,
            "contract": "contracts/facets/StableSwapFacet.sol:StableSwapFacet",
            "label": "promiseRouter",
            "offset": 0,
            "slot": "4",
            "type": "t_contract(PromiseRouter)29992"
          },
          {
            "astId": 16374,
            "contract": "contracts/facets/StableSwapFacet.sol:StableSwapFacet",
            "label": "wrapper",
            "offset": 0,
            "slot": "5",
            "type": "t_contract(IWrapped)14385"
          },
          {
            "astId": 16376,
            "contract": "contracts/facets/StableSwapFacet.sol:StableSwapFacet",
            "label": "nonce",
            "offset": 0,
            "slot": "6",
            "type": "t_uint256"
          },
          {
            "astId": 16379,
            "contract": "contracts/facets/StableSwapFacet.sol:StableSwapFacet",
            "label": "executor",
            "offset": 0,
            "slot": "7",
            "type": "t_contract(IExecutor)13988"
          },
          {
            "astId": 16381,
            "contract": "contracts/facets/StableSwapFacet.sol:StableSwapFacet",
            "label": "domain",
            "offset": 0,
            "slot": "8",
            "type": "t_uint256"
          },
          {
            "astId": 16384,
            "contract": "contracts/facets/StableSwapFacet.sol:StableSwapFacet",
            "label": "tokenRegistry",
            "offset": 0,
            "slot": "9",
            "type": "t_contract(ITokenRegistry)30636"
          },
          {
            "astId": 16389,
            "contract": "contracts/facets/StableSwapFacet.sol:StableSwapFacet",
            "label": "adoptedToLocalPools",
            "offset": 0,
            "slot": "10",
            "type": "t_mapping(t_bytes32,t_contract(IStableSwap)14350)"
          },
          {
            "astId": 16393,
            "contract": "contracts/facets/StableSwapFacet.sol:StableSwapFacet",
            "label": "approvedAssets",
            "offset": 0,
            "slot": "11",
            "type": "t_mapping(t_bytes32,t_bool)"
          },
          {
            "astId": 16398,
            "contract": "contracts/facets/StableSwapFacet.sol:StableSwapFacet",
            "label": "adoptedToCanonical",
            "offset": 0,
            "slot": "12",
            "type": "t_mapping(t_address,t_struct(TokenId)15611_storage)"
          },
          {
            "astId": 16402,
            "contract": "contracts/facets/StableSwapFacet.sol:StableSwapFacet",
            "label": "canonicalToAdopted",
            "offset": 0,
            "slot": "13",
            "type": "t_mapping(t_bytes32,t_address)"
          },
          {
            "astId": 16406,
            "contract": "contracts/facets/StableSwapFacet.sol:StableSwapFacet",
            "label": "reconciledTransfers",
            "offset": 0,
            "slot": "14",
            "type": "t_mapping(t_bytes32,t_bool)"
          },
          {
            "astId": 16411,
            "contract": "contracts/facets/StableSwapFacet.sol:StableSwapFacet",
            "label": "routedTransfers",
            "offset": 0,
            "slot": "15",
            "type": "t_mapping(t_bytes32,t_array(t_address)dyn_storage)"
          },
          {
            "astId": 16417,
            "contract": "contracts/facets/StableSwapFacet.sol:StableSwapFacet",
            "label": "routerBalances",
            "offset": 0,
            "slot": "16",
            "type": "t_mapping(t_address,t_mapping(t_address,t_uint256))"
          },
          {
            "astId": 16421,
            "contract": "contracts/facets/StableSwapFacet.sol:StableSwapFacet",
            "label": "approvedRelayers",
            "offset": 0,
            "slot": "17",
            "type": "t_mapping(t_address,t_bool)"
          },
          {
            "astId": 16425,
            "contract": "contracts/facets/StableSwapFacet.sol:StableSwapFacet",
            "label": "relayerFees",
            "offset": 0,
            "slot": "18",
            "type": "t_mapping(t_bytes32,t_uint256)"
          },
          {
            "astId": 16429,
            "contract": "contracts/facets/StableSwapFacet.sol:StableSwapFacet",
            "label": "transferRelayer",
            "offset": 0,
            "slot": "19",
            "type": "t_mapping(t_bytes32,t_address)"
          },
          {
            "astId": 16431,
            "contract": "contracts/facets/StableSwapFacet.sol:StableSwapFacet",
            "label": "maxRoutersPerTransfer",
            "offset": 0,
            "slot": "20",
            "type": "t_uint256"
          },
          {
            "astId": 16434,
            "contract": "contracts/facets/StableSwapFacet.sol:StableSwapFacet",
            "label": "sponsorVault",
            "offset": 0,
            "slot": "21",
            "type": "t_contract(ISponsorVault)14088"
          },
          {
            "astId": 16438,
            "contract": "contracts/facets/StableSwapFacet.sol:StableSwapFacet",
            "label": "remotes",
            "offset": 0,
            "slot": "22",
            "type": "t_mapping(t_uint32,t_bytes32)"
          },
          {
            "astId": 16441,
            "contract": "contracts/facets/StableSwapFacet.sol:StableSwapFacet",
            "label": "xAppConnectionManager",
            "offset": 0,
            "slot": "23",
            "type": "t_contract(XAppConnectionManager)22532"
          },
          {
            "astId": 16443,
            "contract": "contracts/facets/StableSwapFacet.sol:StableSwapFacet",
            "label": "_proposed",
            "offset": 0,
            "slot": "24",
            "type": "t_address"
          },
          {
            "astId": 16445,
            "contract": "contracts/facets/StableSwapFacet.sol:StableSwapFacet",
            "label": "_proposedOwnershipTimestamp",
            "offset": 0,
            "slot": "25",
            "type": "t_uint256"
          },
          {
            "astId": 16447,
            "contract": "contracts/facets/StableSwapFacet.sol:StableSwapFacet",
            "label": "_routerOwnershipRenounced",
            "offset": 0,
            "slot": "26",
            "type": "t_bool"
          },
          {
            "astId": 16449,
            "contract": "contracts/facets/StableSwapFacet.sol:StableSwapFacet",
            "label": "_routerOwnershipTimestamp",
            "offset": 0,
            "slot": "27",
            "type": "t_uint256"
          },
          {
            "astId": 16451,
            "contract": "contracts/facets/StableSwapFacet.sol:StableSwapFacet",
            "label": "_assetOwnershipRenounced",
            "offset": 0,
            "slot": "28",
            "type": "t_bool"
          },
          {
            "astId": 16453,
            "contract": "contracts/facets/StableSwapFacet.sol:StableSwapFacet",
            "label": "_assetOwnershipTimestamp",
            "offset": 0,
            "slot": "29",
            "type": "t_uint256"
          },
          {
            "astId": 16456,
            "contract": "contracts/facets/StableSwapFacet.sol:StableSwapFacet",
            "label": "routerPermissionInfo",
            "offset": 0,
            "slot": "30",
            "type": "t_struct(RouterPermissionsManagerInfo)16359_storage"
          },
          {
            "astId": 16458,
            "contract": "contracts/facets/StableSwapFacet.sol:StableSwapFacet",
            "label": "_status",
            "offset": 0,
            "slot": "35",
            "type": "t_uint256"
          },
          {
            "astId": 16464,
            "contract": "contracts/facets/StableSwapFacet.sol:StableSwapFacet",
            "label": "swapStorages",
            "offset": 0,
            "slot": "36",
            "type": "t_mapping(t_bytes32,t_struct(Swap)17753_storage)"
          },
          {
            "astId": 16471,
            "contract": "contracts/facets/StableSwapFacet.sol:StableSwapFacet",
            "label": "tokenIndexes",
            "offset": 0,
            "slot": "37",
            "type": "t_mapping(t_bytes32,t_mapping(t_address,t_uint8))"
          }
        ],
        "numberOfBytes": "1216"
      },
      "t_struct(RouterPermissionsManagerInfo)16359_storage": {
        "encoding": "inplace",
        "label": "struct RouterPermissionsManagerInfo",
        "members": [
          {
            "astId": 16342,
            "contract": "contracts/facets/StableSwapFacet.sol:StableSwapFacet",
            "label": "approvedRouters",
            "offset": 0,
            "slot": "0",
            "type": "t_mapping(t_address,t_bool)"
          },
          {
            "astId": 16346,
            "contract": "contracts/facets/StableSwapFacet.sol:StableSwapFacet",
            "label": "routerRecipients",
            "offset": 0,
            "slot": "1",
            "type": "t_mapping(t_address,t_address)"
          },
          {
            "astId": 16350,
            "contract": "contracts/facets/StableSwapFacet.sol:StableSwapFacet",
            "label": "routerOwners",
            "offset": 0,
            "slot": "2",
            "type": "t_mapping(t_address,t_address)"
          },
          {
            "astId": 16354,
            "contract": "contracts/facets/StableSwapFacet.sol:StableSwapFacet",
            "label": "proposedRouterOwners",
            "offset": 0,
            "slot": "3",
            "type": "t_mapping(t_address,t_address)"
          },
          {
            "astId": 16358,
            "contract": "contracts/facets/StableSwapFacet.sol:StableSwapFacet",
            "label": "proposedRouterTimestamp",
            "offset": 0,
            "slot": "4",
            "type": "t_mapping(t_address,t_uint256)"
          }
        ],
        "numberOfBytes": "160"
      },
      "t_struct(Swap)17753_storage": {
        "encoding": "inplace",
        "label": "struct SwapUtils.Swap",
        "members": [
          {
            "astId": 17729,
            "contract": "contracts/facets/StableSwapFacet.sol:StableSwapFacet",
            "label": "initialA",
            "offset": 0,
            "slot": "0",
            "type": "t_uint256"
          },
          {
            "astId": 17731,
            "contract": "contracts/facets/StableSwapFacet.sol:StableSwapFacet",
            "label": "futureA",
            "offset": 0,
            "slot": "1",
            "type": "t_uint256"
          },
          {
            "astId": 17733,
            "contract": "contracts/facets/StableSwapFacet.sol:StableSwapFacet",
            "label": "initialATime",
            "offset": 0,
            "slot": "2",
            "type": "t_uint256"
          },
          {
            "astId": 17735,
            "contract": "contracts/facets/StableSwapFacet.sol:StableSwapFacet",
            "label": "futureATime",
            "offset": 0,
            "slot": "3",
            "type": "t_uint256"
          },
          {
            "astId": 17737,
            "contract": "contracts/facets/StableSwapFacet.sol:StableSwapFacet",
            "label": "swapFee",
            "offset": 0,
            "slot": "4",
            "type": "t_uint256"
          },
          {
            "astId": 17739,
            "contract": "contracts/facets/StableSwapFacet.sol:StableSwapFacet",
            "label": "adminFee",
            "offset": 0,
            "slot": "5",
            "type": "t_uint256"
          },
          {
            "astId": 17742,
            "contract": "contracts/facets/StableSwapFacet.sol:StableSwapFacet",
            "label": "lpToken",
            "offset": 0,
            "slot": "6",
            "type": "t_contract(LPToken)16267"
          },
          {
            "astId": 17746,
            "contract": "contracts/facets/StableSwapFacet.sol:StableSwapFacet",
            "label": "pooledTokens",
            "offset": 0,
            "slot": "7",
            "type": "t_array(t_contract(IERC20)3250)dyn_storage"
          },
          {
            "astId": 17749,
            "contract": "contracts/facets/StableSwapFacet.sol:StableSwapFacet",
            "label": "tokenPrecisionMultipliers",
            "offset": 0,
            "slot": "8",
            "type": "t_array(t_uint256)dyn_storage"
          },
          {
            "astId": 17752,
            "contract": "contracts/facets/StableSwapFacet.sol:StableSwapFacet",
            "label": "balances",
            "offset": 0,
            "slot": "9",
            "type": "t_array(t_uint256)dyn_storage"
          }
        ],
        "numberOfBytes": "320"
      },
      "t_struct(TokenId)15611_storage": {
        "encoding": "inplace",
        "label": "struct ConnextMessage.TokenId",
        "members": [
          {
            "astId": 15608,
            "contract": "contracts/facets/StableSwapFacet.sol:StableSwapFacet",
            "label": "domain",
            "offset": 0,
            "slot": "0",
            "type": "t_uint32"
          },
          {
            "astId": 15610,
            "contract": "contracts/facets/StableSwapFacet.sol:StableSwapFacet",
            "label": "id",
            "offset": 0,
            "slot": "1",
            "type": "t_bytes32"
          }
        ],
        "numberOfBytes": "64"
      },
      "t_uint256": {
        "encoding": "inplace",
        "label": "uint256",
        "numberOfBytes": "32"
      },
      "t_uint32": {
        "encoding": "inplace",
        "label": "uint32",
        "numberOfBytes": "4"
      },
      "t_uint8": {
        "encoding": "inplace",
        "label": "uint8",
        "numberOfBytes": "1"
      }
    }
  }
}