{
  "address": "0x595d969609257f3203950B4d474D560f8bAc64BB",
  "abi": [
    {
      "anonymous": false,
      "inputs": [
        {
          "indexed": true,
          "internalType": "address",
          "name": "provider",
          "type": "address"
        },
        {
          "indexed": false,
          "internalType": "uint256[]",
          "name": "tokenAmounts",
          "type": "uint256[]"
        },
        {
          "indexed": false,
          "internalType": "uint256[]",
          "name": "fees",
          "type": "uint256[]"
        },
        {
          "indexed": false,
          "internalType": "uint256",
          "name": "invariant",
          "type": "uint256"
        },
        {
          "indexed": false,
          "internalType": "uint256",
          "name": "lpTokenSupply",
          "type": "uint256"
        }
      ],
      "name": "AddLiquidity",
      "type": "event"
    },
    {
      "anonymous": false,
      "inputs": [
        {
          "indexed": false,
          "internalType": "uint256",
          "name": "newAdminFee",
          "type": "uint256"
        }
      ],
      "name": "NewAdminFee",
      "type": "event"
    },
    {
      "anonymous": false,
      "inputs": [
        {
          "indexed": false,
          "internalType": "uint256",
          "name": "newSwapFee",
          "type": "uint256"
        }
      ],
      "name": "NewSwapFee",
      "type": "event"
    },
    {
      "anonymous": false,
      "inputs": [
        {
          "indexed": false,
          "internalType": "uint256",
          "name": "newWithdrawFee",
          "type": "uint256"
        }
      ],
      "name": "NewWithdrawFee",
      "type": "event"
    },
    {
      "anonymous": false,
      "inputs": [
        {
          "indexed": true,
          "internalType": "address",
          "name": "previousOwner",
          "type": "address"
        },
        {
          "indexed": true,
          "internalType": "address",
          "name": "newOwner",
          "type": "address"
        }
      ],
      "name": "OwnershipTransferred",
      "type": "event"
    },
    {
      "anonymous": false,
      "inputs": [
        {
          "indexed": false,
          "internalType": "address",
          "name": "account",
          "type": "address"
        }
      ],
      "name": "Paused",
      "type": "event"
    },
    {
      "anonymous": false,
      "inputs": [
        {
          "indexed": false,
          "internalType": "uint256",
          "name": "oldA",
          "type": "uint256"
        },
        {
          "indexed": false,
          "internalType": "uint256",
          "name": "newA",
          "type": "uint256"
        },
        {
          "indexed": false,
          "internalType": "uint256",
          "name": "initialTime",
          "type": "uint256"
        },
        {
          "indexed": false,
          "internalType": "uint256",
          "name": "futureTime",
          "type": "uint256"
        }
      ],
      "name": "RampA",
      "type": "event"
    },
    {
      "anonymous": false,
      "inputs": [
        {
          "indexed": true,
          "internalType": "address",
          "name": "provider",
          "type": "address"
        },
        {
          "indexed": false,
          "internalType": "uint256[]",
          "name": "tokenAmounts",
          "type": "uint256[]"
        },
        {
          "indexed": false,
          "internalType": "uint256",
          "name": "lpTokenSupply",
          "type": "uint256"
        }
      ],
      "name": "RemoveLiquidity",
      "type": "event"
    },
    {
      "anonymous": false,
      "inputs": [
        {
          "indexed": true,
          "internalType": "address",
          "name": "provider",
          "type": "address"
        },
        {
          "indexed": false,
          "internalType": "uint256[]",
          "name": "tokenAmounts",
          "type": "uint256[]"
        },
        {
          "indexed": false,
          "internalType": "uint256[]",
          "name": "fees",
          "type": "uint256[]"
        },
        {
          "indexed": false,
          "internalType": "uint256",
          "name": "invariant",
          "type": "uint256"
        },
        {
          "indexed": false,
          "internalType": "uint256",
          "name": "lpTokenSupply",
          "type": "uint256"
        }
      ],
      "name": "RemoveLiquidityImbalance",
      "type": "event"
    },
    {
      "anonymous": false,
      "inputs": [
        {
          "indexed": true,
          "internalType": "address",
          "name": "provider",
          "type": "address"
        },
        {
          "indexed": false,
          "internalType": "uint256",
          "name": "lpTokenAmount",
          "type": "uint256"
        },
        {
          "indexed": false,
          "internalType": "uint256",
          "name": "lpTokenSupply",
          "type": "uint256"
        },
        {
          "indexed": false,
          "internalType": "uint256",
          "name": "boughtId",
          "type": "uint256"
        },
        {
          "indexed": false,
          "internalType": "uint256",
          "name": "tokensBought",
          "type": "uint256"
        }
      ],
      "name": "RemoveLiquidityOne",
      "type": "event"
    },
    {
      "anonymous": false,
      "inputs": [
        {
          "indexed": false,
          "internalType": "uint256",
          "name": "currentA",
          "type": "uint256"
        },
        {
          "indexed": false,
          "internalType": "uint256",
          "name": "time",
          "type": "uint256"
        }
      ],
      "name": "StopRampA",
      "type": "event"
    },
    {
      "anonymous": false,
      "inputs": [
        {
          "indexed": true,
          "internalType": "address",
          "name": "buyer",
          "type": "address"
        },
        {
          "indexed": false,
          "internalType": "uint256",
          "name": "tokensSold",
          "type": "uint256"
        },
        {
          "indexed": false,
          "internalType": "uint256",
          "name": "tokensBought",
          "type": "uint256"
        },
        {
          "indexed": false,
          "internalType": "uint128",
          "name": "soldId",
          "type": "uint128"
        },
        {
          "indexed": false,
          "internalType": "uint128",
          "name": "boughtId",
          "type": "uint128"
        }
      ],
      "name": "TokenSwap",
      "type": "event"
    },
    {
      "anonymous": false,
      "inputs": [
        {
          "indexed": false,
          "internalType": "address",
          "name": "account",
          "type": "address"
        }
      ],
      "name": "Unpaused",
      "type": "event"
    },
    {
      "inputs": [
        {
          "internalType": "uint256[]",
          "name": "amounts",
          "type": "uint256[]"
        },
        {
          "internalType": "uint256",
          "name": "minToMint",
          "type": "uint256"
        },
        {
          "internalType": "uint256",
          "name": "deadline",
          "type": "uint256"
        }
      ],
      "name": "addLiquidity",
      "outputs": [
        {
          "internalType": "uint256",
          "name": "",
          "type": "uint256"
        }
      ],
      "stateMutability": "nonpayable",
      "type": "function"
    },
    {
      "inputs": [
        {
          "internalType": "uint256",
          "name": "amount",
          "type": "uint256"
        }
      ],
      "name": "calculateRemoveLiquidity",
      "outputs": [
        {
          "internalType": "uint256[]",
          "name": "",
          "type": "uint256[]"
        }
      ],
      "stateMutability": "view",
      "type": "function"
    },
    {
      "inputs": [
        {
          "internalType": "uint256",
          "name": "tokenAmount",
          "type": "uint256"
        },
        {
          "internalType": "uint8",
          "name": "tokenIndex",
          "type": "uint8"
        }
      ],
      "name": "calculateRemoveLiquidityOneToken",
      "outputs": [
        {
          "internalType": "uint256",
          "name": "availableTokenAmount",
          "type": "uint256"
        }
      ],
      "stateMutability": "view",
      "type": "function"
    },
    {
      "inputs": [
        {
          "internalType": "uint8",
          "name": "tokenIndexFrom",
          "type": "uint8"
        },
        {
          "internalType": "uint8",
          "name": "tokenIndexTo",
          "type": "uint8"
        },
        {
          "internalType": "uint256",
          "name": "dx",
          "type": "uint256"
        }
      ],
      "name": "calculateSwap",
      "outputs": [
        {
          "internalType": "uint256",
          "name": "",
          "type": "uint256"
        }
      ],
      "stateMutability": "view",
      "type": "function"
    },
    {
      "inputs": [
        {
          "internalType": "uint256[]",
          "name": "amounts",
          "type": "uint256[]"
        },
        {
          "internalType": "bool",
          "name": "deposit",
          "type": "bool"
        }
      ],
      "name": "calculateTokenAmount",
      "outputs": [
        {
          "internalType": "uint256",
          "name": "",
          "type": "uint256"
        }
      ],
      "stateMutability": "view",
      "type": "function"
    },
    {
      "inputs": [],
      "name": "getA",
      "outputs": [
        {
          "internalType": "uint256",
          "name": "",
          "type": "uint256"
        }
      ],
      "stateMutability": "view",
      "type": "function"
    },
    {
      "inputs": [],
      "name": "getAPrecise",
      "outputs": [
        {
          "internalType": "uint256",
          "name": "",
          "type": "uint256"
        }
      ],
      "stateMutability": "view",
      "type": "function"
    },
    {
      "inputs": [
        {
          "internalType": "uint256",
          "name": "index",
          "type": "uint256"
        }
      ],
      "name": "getAdminBalance",
      "outputs": [
        {
          "internalType": "uint256",
          "name": "",
          "type": "uint256"
        }
      ],
      "stateMutability": "view",
      "type": "function"
    },
    {
      "inputs": [
        {
          "internalType": "uint8",
          "name": "index",
          "type": "uint8"
        }
      ],
      "name": "getToken",
      "outputs": [
        {
          "internalType": "contract IERC20",
          "name": "",
          "type": "address"
        }
      ],
      "stateMutability": "view",
      "type": "function"
    },
    {
      "inputs": [
        {
          "internalType": "uint8",
          "name": "index",
          "type": "uint8"
        }
      ],
      "name": "getTokenBalance",
      "outputs": [
        {
          "internalType": "uint256",
          "name": "",
          "type": "uint256"
        }
      ],
      "stateMutability": "view",
      "type": "function"
    },
    {
      "inputs": [
        {
          "internalType": "address",
          "name": "tokenAddress",
          "type": "address"
        }
      ],
      "name": "getTokenIndex",
      "outputs": [
        {
          "internalType": "uint8",
          "name": "",
          "type": "uint8"
        }
      ],
      "stateMutability": "view",
      "type": "function"
    },
    {
      "inputs": [],
      "name": "getVirtualPrice",
      "outputs": [
        {
          "internalType": "uint256",
          "name": "",
          "type": "uint256"
        }
      ],
      "stateMutability": "view",
      "type": "function"
    },
    {
      "inputs": [
        {
          "internalType": "contract IERC20[]",
          "name": "_pooledTokens",
          "type": "address[]"
        },
        {
          "internalType": "uint8[]",
          "name": "decimals",
          "type": "uint8[]"
        },
        {
          "internalType": "string",
          "name": "lpTokenName",
          "type": "string"
        },
        {
          "internalType": "string",
          "name": "lpTokenSymbol",
          "type": "string"
        },
        {
          "internalType": "uint256",
          "name": "_a",
          "type": "uint256"
        },
        {
          "internalType": "uint256",
          "name": "_fee",
          "type": "uint256"
        },
        {
          "internalType": "uint256",
          "name": "_adminFee",
          "type": "uint256"
        },
        {
          "internalType": "address",
          "name": "lpTokenTargetAddress",
          "type": "address"
        }
      ],
      "name": "initialize",
      "outputs": [],
      "stateMutability": "nonpayable",
      "type": "function"
    },
    {
      "inputs": [],
      "name": "owner",
      "outputs": [
        {
          "internalType": "address",
          "name": "",
          "type": "address"
        }
      ],
      "stateMutability": "view",
      "type": "function"
    },
    {
      "inputs": [],
      "name": "pause",
      "outputs": [],
      "stateMutability": "nonpayable",
      "type": "function"
    },
    {
      "inputs": [],
      "name": "paused",
      "outputs": [
        {
          "internalType": "bool",
          "name": "",
          "type": "bool"
        }
      ],
      "stateMutability": "view",
      "type": "function"
    },
    {
      "inputs": [
        {
          "internalType": "uint256",
          "name": "futureA",
          "type": "uint256"
        },
        {
          "internalType": "uint256",
          "name": "futureTime",
          "type": "uint256"
        }
      ],
      "name": "rampA",
      "outputs": [],
      "stateMutability": "nonpayable",
      "type": "function"
    },
    {
      "inputs": [
        {
          "internalType": "uint256",
          "name": "amount",
          "type": "uint256"
        },
        {
          "internalType": "uint256[]",
          "name": "minAmounts",
          "type": "uint256[]"
        },
        {
          "internalType": "uint256",
          "name": "deadline",
          "type": "uint256"
        }
      ],
      "name": "removeLiquidity",
      "outputs": [
        {
          "internalType": "uint256[]",
          "name": "",
          "type": "uint256[]"
        }
      ],
      "stateMutability": "nonpayable",
      "type": "function"
    },
    {
      "inputs": [
        {
          "internalType": "uint256[]",
          "name": "amounts",
          "type": "uint256[]"
        },
        {
          "internalType": "uint256",
          "name": "maxBurnAmount",
          "type": "uint256"
        },
        {
          "internalType": "uint256",
          "name": "deadline",
          "type": "uint256"
        }
      ],
      "name": "removeLiquidityImbalance",
      "outputs": [
        {
          "internalType": "uint256",
          "name": "",
          "type": "uint256"
        }
      ],
      "stateMutability": "nonpayable",
      "type": "function"
    },
    {
      "inputs": [
        {
          "internalType": "uint256",
          "name": "tokenAmount",
          "type": "uint256"
        },
        {
          "internalType": "uint8",
          "name": "tokenIndex",
          "type": "uint8"
        },
        {
          "internalType": "uint256",
          "name": "minAmount",
          "type": "uint256"
        },
        {
          "internalType": "uint256",
          "name": "deadline",
          "type": "uint256"
        }
      ],
      "name": "removeLiquidityOneToken",
      "outputs": [
        {
          "internalType": "uint256",
          "name": "",
          "type": "uint256"
        }
      ],
      "stateMutability": "nonpayable",
      "type": "function"
    },
    {
      "inputs": [],
      "name": "renounceOwnership",
      "outputs": [],
      "stateMutability": "nonpayable",
      "type": "function"
    },
    {
      "inputs": [
        {
          "internalType": "uint256",
          "name": "newAdminFee",
          "type": "uint256"
        }
      ],
      "name": "setAdminFee",
      "outputs": [],
      "stateMutability": "nonpayable",
      "type": "function"
    },
    {
      "inputs": [
        {
          "internalType": "uint256",
          "name": "newSwapFee",
          "type": "uint256"
        }
      ],
      "name": "setSwapFee",
      "outputs": [],
      "stateMutability": "nonpayable",
      "type": "function"
    },
    {
      "inputs": [],
      "name": "stopRampA",
      "outputs": [],
      "stateMutability": "nonpayable",
      "type": "function"
    },
    {
      "inputs": [
        {
          "internalType": "uint8",
          "name": "tokenIndexFrom",
          "type": "uint8"
        },
        {
          "internalType": "uint8",
          "name": "tokenIndexTo",
          "type": "uint8"
        },
        {
          "internalType": "uint256",
          "name": "dx",
          "type": "uint256"
        },
        {
          "internalType": "uint256",
          "name": "minDy",
          "type": "uint256"
        },
        {
          "internalType": "uint256",
          "name": "deadline",
          "type": "uint256"
        }
      ],
      "name": "swap",
      "outputs": [
        {
          "internalType": "uint256",
          "name": "",
          "type": "uint256"
        }
      ],
      "stateMutability": "nonpayable",
      "type": "function"
    },
    {
      "inputs": [
        {
          "internalType": "uint256",
          "name": "amountIn",
          "type": "uint256"
        },
        {
          "internalType": "address",
          "name": "assetIn",
          "type": "address"
        },
        {
          "internalType": "address",
          "name": "assetOut",
          "type": "address"
        }
      ],
      "name": "swapExact",
      "outputs": [
        {
          "internalType": "uint256",
          "name": "",
          "type": "uint256"
        }
      ],
      "stateMutability": "payable",
      "type": "function"
    },
    {
      "inputs": [],
      "name": "swapStorage",
      "outputs": [
        {
          "internalType": "uint256",
          "name": "initialA",
          "type": "uint256"
        },
        {
          "internalType": "uint256",
          "name": "futureA",
          "type": "uint256"
        },
        {
          "internalType": "uint256",
          "name": "initialATime",
          "type": "uint256"
        },
        {
          "internalType": "uint256",
          "name": "futureATime",
          "type": "uint256"
        },
        {
          "internalType": "uint256",
          "name": "swapFee",
          "type": "uint256"
        },
        {
          "internalType": "uint256",
          "name": "adminFee",
          "type": "uint256"
        },
        {
          "internalType": "contract LPToken",
          "name": "lpToken",
          "type": "address"
        }
      ],
      "stateMutability": "view",
      "type": "function"
    },
    {
      "inputs": [
        {
          "internalType": "address",
          "name": "newOwner",
          "type": "address"
        }
      ],
      "name": "transferOwnership",
      "outputs": [],
      "stateMutability": "nonpayable",
      "type": "function"
    },
    {
      "inputs": [],
      "name": "unpause",
      "outputs": [],
      "stateMutability": "nonpayable",
      "type": "function"
    },
    {
      "inputs": [],
      "name": "withdrawAdminFees",
      "outputs": [],
      "stateMutability": "nonpayable",
      "type": "function"
    }
  ],
  "transactionHash": "0xff19ac841b91d6aed31d49a57d0c2a2861037a65b37ff6ab7adf110d9497e810",
  "args": [],
  "numDeployments": 1,
  "solcInputHash": "0391c5980b98d88f898bb0154cd40596",
  "bytecode": "0x608060405234801561001057600080fd5b5061293f806100206000396000f3fe6080604052600436106101cd5760003560e01c806384cdd9bc116100f7578063c4db7fa011610095578063e6ab280611610064578063e6ab280614610550578063ef0a712f14610570578063f2fad2b614610590578063f2fde38b146105b057600080fd5b8063c4db7fa0146104fe578063d46300fd14610513578063d5914c4514610528578063e25aa5fa1461053b57600080fd5b806391695586116100d1578063916955861461047e57806391ceb3eb1461049e578063a95b089f146104be578063b28cb6dc146104de57600080fd5b806384cdd9bc146104205780638beb60b6146104405780638da5cb5b1461046057600080fd5b80634d49e87d1161016f57806366c0bd241161013e57806366c0bd241461038c578063715018a6146103be57806382b86600146103d35780638456cb591461040b57600080fd5b80634d49e87d146102b3578063593d132c146102d35780635c975abb146102f35780635fd65f0f1461031657600080fd5b8063342a87a1116101ab578063342a87a11461023e57806334e199071461025e5780633e3a15601461027e5780633f4ba83a1461029e57600080fd5b80630419b45a146101d25780630ba81959146101e957806331cd52b014610211575b600080fd5b3480156101de57600080fd5b506101e76105d0565b005b3480156101f557600080fd5b506101fe610691565b6040519081526020015b60405180910390f35b34801561021d57600080fd5b5061023161022c366004611ee7565b61070e565b6040516102089190611f3a565b34801561024a57600080fd5b506101fe610259366004611f8f565b6107eb565b34801561026a57600080fd5b506101e7610279366004611fbb565b61087b565b34801561028a57600080fd5b506101fe610299366004611fd4565b610913565b3480156102aa57600080fd5b506101e7610a0d565b3480156102bf57600080fd5b506101fe6102ce36600461200f565b610a41565b3480156102df57600080fd5b506101e76102ee366004612060565b610aed565b3480156102ff57600080fd5b5060655460ff166040519015158152602001610208565b34801561032257600080fd5b5060c95460ca5460cb5460cc5460cd5460ce5460cf5461034e969594939291906001600160a01b031687565b604080519788526020880196909652948601939093526060850191909152608084015260a08301526001600160a01b031660c082015260e001610208565b34801561039857600080fd5b506103ac6103a73660046120a2565b610b8c565b60405160ff9091168152602001610208565b3480156103ca57600080fd5b506101e7610c03565b3480156103df57600080fd5b506103f36103ee3660046120c6565b610c37565b6040516001600160a01b039091168152602001610208565b34801561041757600080fd5b506101e7610caf565b34801561042c57600080fd5b506101fe61043b36600461200f565b610ce1565b34801561044c57600080fd5b506101e761045b366004611fbb565b610d8d565b34801561046c57600080fd5b506033546001600160a01b03166103f3565b34801561048a57600080fd5b506101fe6104993660046120e1565b610df6565b3480156104aa57600080fd5b506101fe6104b93660046120c6565b610f07565b3480156104ca57600080fd5b506101fe6104d936600461212e565b610f7c565b3480156104ea57600080fd5b506101e76104f936600461231b565b611014565b34801561050a57600080fd5b506101e7611743565b34801561051f57600080fd5b506101fe6117a5565b6101fe6105363660046123f6565b6117e0565b34801561054757600080fd5b506101fe6118b7565b34801561055c57600080fd5b506101fe61056b366004612446565b6118f2565b34801561057c57600080fd5b506101fe61058b366004611fbb565b611933565b34801561059c57600080fd5b506102316105ab366004611fbb565b6119b1565b3480156105bc57600080fd5b506101e76105cb3660046120a2565b611a33565b6033546001600160a01b031633146106035760405162461bcd60e51b81526004016105fa90612492565b60405180910390fd5b731c93B4BB417e14D1acA1fFbDD412A97Cfb5562616324c5c75160c96106316033546001600160a01b031690565b6040516001600160e01b031960e085901b16815260048101929092526001600160a01b031660248201526044015b60006040518083038186803b15801561067757600080fd5b505af415801561068b573d6000803e3d6000fd5b50505050565b60405163c9b64dcb60e01b815260c96004820152600090738629Cc604f177CB201FA421e1875298557D218759063c9b64dcb906024015b602060405180830381865af41580156106e5573d6000803e3d6000fd5b505050506040513d601f19601f8201168201806040525081019061070991906124c7565b905090565b6060600260975414156107335760405162461bcd60e51b81526004016105fa906124e0565b600260975581428110156107595760405162461bcd60e51b81526004016105fa90612517565b6040516339feb59f60e11b8152731c93B4BB417e14D1acA1fFbDD412A97Cfb556261906373fd6b3e906107979060c9908a908a908a90600401612577565b600060405180830381865af41580156107b4573d6000803e3d6000fd5b505050506040513d6000823e601f3d908101601f191682016040526107dc91908101906125a1565b60016097559695505050505050565b60405163703493a160e11b815260c960048201526024810183905260ff82166044820152600090731c93B4BB417e14D1acA1fFbDD412A97Cfb5562619063e069274290606401602060405180830381865af415801561084e573d6000803e3d6000fd5b505050506040513d601f19601f8201168201806040525081019061087291906124c7565b90505b92915050565b6033546001600160a01b031633146108a55760405162461bcd60e51b81526004016105fa90612492565b60405163119f861b60e21b815260c9600482015260248101829052731c93B4BB417e14D1acA1fFbDD412A97Cfb5562619063467e186c906044015b60006040518083038186803b1580156108f857600080fd5b505af415801561090c573d6000803e3d6000fd5b5050505050565b6000600260975414156109385760405162461bcd60e51b81526004016105fa906124e0565b600260975560655460ff16156109605760405162461bcd60e51b81526004016105fa90612632565b81804211156109815760405162461bcd60e51b81526004016105fa90612517565b60405163e7a4db8160e01b815260c960048201526024810187905260ff8616604482015260648101859052731c93B4BB417e14D1acA1fFbDD412A97Cfb5562619063e7a4db81906084015b602060405180830381865af41580156109e9573d6000803e3d6000fd5b505050506040513d601f19601f820116820180604052508101906107dc91906124c7565b6033546001600160a01b03163314610a375760405162461bcd60e51b81526004016105fa90612492565b610a3f611ace565b565b600060026097541415610a665760405162461bcd60e51b81526004016105fa906124e0565b600260975560655460ff1615610a8e5760405162461bcd60e51b81526004016105fa90612632565b8180421115610aaf5760405162461bcd60e51b81526004016105fa90612517565b6040516340370edf60e01b8152731c93B4BB417e14D1acA1fFbDD412A97Cfb556261906340370edf906109cc9060c9908a908a908a9060040161265c565b6033546001600160a01b03163314610b175760405162461bcd60e51b81526004016105fa90612492565b6040516358fdd79b60e01b815260c960048201526024810183905260448101829052738629Cc604f177CB201FA421e1875298557D21875906358fdd79b9060640160006040518083038186803b158015610b7057600080fd5b505af4158015610b84573d6000803e3d6000fd5b505050505050565b6001600160a01b038116600081815260d36020526040812054909160ff90911690610bb682610c37565b6001600160a01b0316146108755760405162461bcd60e51b8152602060048201526014602482015273151bdad95b88191bd95cc81b9bdd08195e1a5cdd60621b60448201526064016105fa565b6033546001600160a01b03163314610c2d5760405162461bcd60e51b81526004016105fa90612492565b610a3f6000611b61565b60d05460009060ff831610610c7d5760405162461bcd60e51b815260206004820152600c60248201526b4f7574206f662072616e676560a01b60448201526064016105fa565b60d0805460ff8416908110610c9457610c94612687565b6000918252602090912001546001600160a01b031692915050565b6033546001600160a01b03163314610cd95760405162461bcd60e51b81526004016105fa90612492565b610a3f611bb3565b600060026097541415610d065760405162461bcd60e51b81526004016105fa906124e0565b600260975560655460ff1615610d2e5760405162461bcd60e51b81526004016105fa90612632565b8180421115610d4f5760405162461bcd60e51b81526004016105fa90612517565b6040516320dc8e1360e11b8152731c93B4BB417e14D1acA1fFbDD412A97Cfb556261906341b91c26906109cc9060c9908a908a908a9060040161265c565b6033546001600160a01b03163314610db75760405162461bcd60e51b81526004016105fa90612492565b604051633823393b60e11b815260c9600482015260248101829052731c93B4BB417e14D1acA1fFbDD412A97Cfb556261906370467276906044016108e0565b600060026097541415610e1b5760405162461bcd60e51b81526004016105fa906124e0565b600260975560655460ff1615610e435760405162461bcd60e51b81526004016105fa90612632565b8180421115610e645760405162461bcd60e51b81526004016105fa90612517565b60405163529cbd9160e11b815260c9600482015260ff8089166024830152871660448201526064810186905260848101859052731c93B4BB417e14D1acA1fFbDD412A97Cfb5562619063a5397b229060a401602060405180830381865af4158015610ed3573d6000803e3d6000fd5b505050506040513d601f19601f82011682018060405250810190610ef791906124c7565b6001609755979650505050505050565b60d05460009060ff831610610f535760405162461bcd60e51b8152602060048201526012602482015271496e646578206f7574206f662072616e676560701b60448201526064016105fa565b60d2805460ff8416908110610f6a57610f6a612687565b90600052602060002001549050919050565b6040516312c8d80f60e21b815260c9600482015260ff80851660248301528316604482015260648101829052600090731c93B4BB417e14D1acA1fFbDD412A97Cfb55626190634b23603c906084015b602060405180830381865af4158015610fe8573d6000803e3d6000fd5b505050506040513d601f19601f8201168201806040525081019061100c91906124c7565b949350505050565b600054610100900460ff1661102f5760005460ff1615611033565b303b155b6110965760405162461bcd60e51b815260206004820152602e60248201527f496e697469616c697a61626c653a20636f6e747261637420697320616c72656160448201526d191e481a5b9a5d1a585b1a5e995960921b60648201526084016105fa565b600054610100900460ff161580156110b8576000805461ffff19166101011790555b6110c0611c0b565b6110c8611c4a565b60018951116111195760405162461bcd60e51b815260206004820152601960248201527f5f706f6f6c6564546f6b656e732e6c656e677468203c3d20310000000000000060448201526064016105fa565b60208951111561116b5760405162461bcd60e51b815260206004820152601960248201527f5f706f6f6c6564546f6b656e732e6c656e677468203e2033320000000000000060448201526064016105fa565b87518951146111bc5760405162461bcd60e51b815260206004820152601f60248201527f5f706f6f6c6564546f6b656e7320646563696d616c73206d69736d617463680060448201526064016105fa565b6000885167ffffffffffffffff8111156111d8576111d861216a565b604051908082528060200260200182016040528015611201578160200160208202803683370190505b50905060005b8a518160ff1610156114b15760ff8116156112f05760d360008c8360ff168151811061123557611235612687565b6020908102919091018101516001600160a01b031682528101919091526040016000205460ff161580156112b157508a8160ff168151811061127957611279612687565b60200260200101516001600160a01b03168b60008151811061129d5761129d612687565b60200260200101516001600160a01b031614155b6112f05760405162461bcd60e51b815260206004820152601060248201526f4475706c696361746520746f6b656e7360801b60448201526064016105fa565b60006001600160a01b03168b8260ff168151811061131057611310612687565b60200260200101516001600160a01b0316141561136f5760405162461bcd60e51b815260206004820152601d60248201527f546865203020616464726573732069736e277420616e204552432d323000000060448201526064016105fa565b601260ff168a8260ff168151811061138957611389612687565b602002602001015160ff1611156113e25760405162461bcd60e51b815260206004820152601a60248201527f546f6b656e20646563696d616c732065786365656473206d617800000000000060448201526064016105fa565b6114188a8260ff16815181106113fa576113fa612687565b602002602001015160ff16601260ff16611c7990919063ffffffff16565b61142390600a612797565b828260ff168151811061143857611438612687565b6020026020010181815250508060d360008d8460ff168151811061145e5761145e612687565b60200260200101516001600160a01b03166001600160a01b0316815260200190815260200160002060006101000a81548160ff021916908360ff16021790555080806114a9906127a3565b915050611207565b50620f424086106114f95760405162461bcd60e51b81526020600482015260126024820152715f612065786365656473206d6178696d756d60701b60448201526064016105fa565b6305f5e10085106115435760405162461bcd60e51b81526020600482015260146024820152735f6665652065786365656473206d6178696d756d60601b60448201526064016105fa565b6402540be40084106115975760405162461bcd60e51b815260206004820152601960248201527f5f61646d696e4665652065786365656473206d6178696d756d0000000000000060448201526064016105fa565b60006115a284611c85565b60405163266c45bb60e11b81529091506001600160a01b03821690634cd88b76906115d3908c908c90600401612810565b6020604051808303816000875af11580156115f2573d6000803e3d6000fd5b505050506040513d601f19601f82011682018060405250810190611616919061283e565b6116625760405162461bcd60e51b815260206004820152601c60248201527f636f756c64206e6f7420696e6974206c70546f6b656e20636c6f6e650000000060448201526064016105fa565b60cf80546001600160a01b0319166001600160a01b0383161790558a516116909060d09060208e0190611de6565b5081516116a49060d1906020850190611e4b565b508a5167ffffffffffffffff8111156116bf576116bf61216a565b6040519080825280602002602001820160405280156116e8578160200160208202803683370190505b5080516116fd9160d291602090910190611e4b565b50611709876064611d22565b60c955611717876064611d22565b60ca55505060cd84905560ce8390558015611738576000805461ff00191690555b505050505050505050565b6033546001600160a01b0316331461176d5760405162461bcd60e51b81526004016105fa90612492565b6040516378a7108f60e11b815260c96004820152738629Cc604f177CB201FA421e1875298557D218759063f14e211e9060240161065f565b604051632c28533f60e21b815260c96004820152600090738629Cc604f177CB201FA421e1875298557D218759063b0a14cfc906024016106c8565b6000600260975414156118055760405162461bcd60e51b81526004016105fa906124e0565b600260975560655460ff161561182d5760405162461bcd60e51b81526004016105fa90612632565b600061183884610b8c565b9050600061184584610b8c565b60405163529cbd9160e11b815260c9600482015260ff8085166024830152821660448201526064810188905260006084820152909150731c93B4BB417e14D1acA1fFbDD412A97Cfb5562619063a5397b229060a401602060405180830381865af41580156109e9573d6000803e3d6000fd5b604051631c641b0b60e21b815260c96004820152600090731c93B4BB417e14D1acA1fFbDD412A97Cfb556261906371906c2c906024016106c8565b604051630834b49160e41b8152600090731c93B4BB417e14D1acA1fFbDD412A97Cfb5562619063834b491090610fcb9060c99088908890889060040161285b565b6040516303e8240b60e51b815260c9600482015260248101829052600090731c93B4BB417e14D1acA1fFbDD412A97Cfb55626190637d04816090604401602060405180830381865af415801561198d573d6000803e3d6000fd5b505050506040513d601f19601f8201168201806040525081019061087591906124c7565b6040516338381f2560e11b815260c9600482015260248101829052606090731c93B4BB417e14D1acA1fFbDD412A97Cfb556261906370703e4a90604401600060405180830381865af4158015611a0b573d6000803e3d6000fd5b505050506040513d6000823e601f3d908101601f1916820160405261087591908101906125a1565b6033546001600160a01b03163314611a5d5760405162461bcd60e51b81526004016105fa90612492565b6001600160a01b038116611ac25760405162461bcd60e51b815260206004820152602660248201527f4f776e61626c653a206e6577206f776e657220697320746865207a65726f206160448201526564647265737360d01b60648201526084016105fa565b611acb81611b61565b50565b60655460ff16611b175760405162461bcd60e51b815260206004820152601460248201527314185d5cd8589b194e881b9bdd081c185d5cd95960621b60448201526064016105fa565b6065805460ff191690557f5db9ee0a495bf2e6ff9c91a7834c1ba4fdd244a5e8aa4e537bd38aeae4b073aa335b6040516001600160a01b03909116815260200160405180910390a1565b603380546001600160a01b038381166001600160a01b0319831681179093556040519116919082907f8be0079c531659141344cd1fd0a4f28419497f9722a3daafe3b4186f6b6457e090600090a35050565b60655460ff1615611bd65760405162461bcd60e51b81526004016105fa90612632565b6065805460ff191660011790557f62e78cea01bee320cd4e420270b5ea74000d11b0c9f74754ebdbfc544b05a258611b443390565b600054610100900460ff16611c325760405162461bcd60e51b81526004016105fa90612888565b611c3a611d2e565b611c42611d55565b610a3f611d85565b600054610100900460ff16611c715760405162461bcd60e51b81526004016105fa90612888565b610a3f611db8565b600061087282846128d3565b6000604051733d602d80600a3d3981f3363d3d373d3d3d363d7360601b81528260601b60148201526e5af43d82803e903d91602b57fd5bf360881b60288201526037816000f09150506001600160a01b038116611d1d5760405162461bcd60e51b8152602060048201526016602482015275115490cc4c4d8dce8818dc99585d194819985a5b195960521b60448201526064016105fa565b919050565b600061087282846128ea565b600054610100900460ff16610a3f5760405162461bcd60e51b81526004016105fa90612888565b600054610100900460ff16611d7c5760405162461bcd60e51b81526004016105fa90612888565b610a3f33611b61565b600054610100900460ff16611dac5760405162461bcd60e51b81526004016105fa90612888565b6065805460ff19169055565b600054610100900460ff16611ddf5760405162461bcd60e51b81526004016105fa90612888565b6001609755565b828054828255906000526020600020908101928215611e3b579160200282015b82811115611e3b57825182546001600160a01b0319166001600160a01b03909116178255602090920191600190910190611e06565b50611e47929150611e86565b5090565b828054828255906000526020600020908101928215611e3b579160200282015b82811115611e3b578251825591602001919060010190611e6b565b5b80821115611e475760008155600101611e87565b60008083601f840112611ead57600080fd5b50813567ffffffffffffffff811115611ec557600080fd5b6020830191508360208260051b8501011115611ee057600080fd5b9250929050565b60008060008060608587031215611efd57600080fd5b84359350602085013567ffffffffffffffff811115611f1b57600080fd5b611f2787828801611e9b565b9598909750949560400135949350505050565b6020808252825182820181905260009190848201906040850190845b81811015611f7257835183529284019291840191600101611f56565b50909695505050505050565b803560ff81168114611d1d57600080fd5b60008060408385031215611fa257600080fd5b82359150611fb260208401611f7e565b90509250929050565b600060208284031215611fcd57600080fd5b5035919050565b60008060008060808587031215611fea57600080fd5b84359350611ffa60208601611f7e565b93969395505050506040820135916060013590565b6000806000806060858703121561202557600080fd5b843567ffffffffffffffff81111561203c57600080fd5b61204887828801611e9b565b90989097506020870135966040013595509350505050565b6000806040838503121561207357600080fd5b50508035926020909101359150565b6001600160a01b0381168114611acb57600080fd5b8035611d1d81612082565b6000602082840312156120b457600080fd5b81356120bf81612082565b9392505050565b6000602082840312156120d857600080fd5b61087282611f7e565b600080600080600060a086880312156120f957600080fd5b61210286611f7e565b945061211060208701611f7e565b94979496505050506040830135926060810135926080909101359150565b60008060006060848603121561214357600080fd5b61214c84611f7e565b925061215a60208501611f7e565b9150604084013590509250925092565b634e487b7160e01b600052604160045260246000fd5b604051601f8201601f1916810167ffffffffffffffff811182821017156121a9576121a961216a565b604052919050565b600067ffffffffffffffff8211156121cb576121cb61216a565b5060051b60200190565b600082601f8301126121e657600080fd5b813560206121fb6121f6836121b1565b612180565b82815260059290921b8401810191818101908684111561221a57600080fd5b8286015b8481101561223e57803561223181612082565b835291830191830161221e565b509695505050505050565b600082601f83011261225a57600080fd5b8135602061226a6121f6836121b1565b82815260059290921b8401810191818101908684111561228957600080fd5b8286015b8481101561223e5761229e81611f7e565b835291830191830161228d565b600082601f8301126122bc57600080fd5b813567ffffffffffffffff8111156122d6576122d661216a565b6122e9601f8201601f1916602001612180565b8181528460208386010111156122fe57600080fd5b816020850160208301376000918101602001919091529392505050565b600080600080600080600080610100898b03121561233857600080fd5b883567ffffffffffffffff8082111561235057600080fd5b61235c8c838d016121d5565b995060208b013591508082111561237257600080fd5b61237e8c838d01612249565b985060408b013591508082111561239457600080fd5b6123a08c838d016122ab565b975060608b01359150808211156123b657600080fd5b506123c38b828c016122ab565b9550506080890135935060a0890135925060c089013591506123e760e08a01612097565b90509295985092959890939650565b60008060006060848603121561240b57600080fd5b83359250602084013561241d81612082565b9150604084013561242d81612082565b809150509250925092565b8015158114611acb57600080fd5b60008060006040848603121561245b57600080fd5b833567ffffffffffffffff81111561247257600080fd5b61247e86828701611e9b565b909450925050602084013561242d81612438565b6020808252818101527f4f776e61626c653a2063616c6c6572206973206e6f7420746865206f776e6572604082015260600190565b6000602082840312156124d957600080fd5b5051919050565b6020808252601f908201527f5265656e7472616e637947756172643a207265656e7472616e742063616c6c00604082015260600190565b60208082526010908201526f111958591b1a5b99481b9bdd081b595d60821b604082015260600190565b81835260006001600160fb1b0383111561255a57600080fd5b8260051b8083602087013760009401602001938452509192915050565b848152836020820152606060408201526000612597606083018486612541565b9695505050505050565b600060208083850312156125b457600080fd5b825167ffffffffffffffff8111156125cb57600080fd5b8301601f810185136125dc57600080fd5b80516125ea6121f6826121b1565b81815260059190911b8201830190838101908783111561260957600080fd5b928401925b828410156126275783518252928401929084019061260e565b979650505050505050565b60208082526010908201526f14185d5cd8589b194e881c185d5cd95960821b604082015260600190565b848152606060208201526000612676606083018587612541565b905082604083015295945050505050565b634e487b7160e01b600052603260045260246000fd5b634e487b7160e01b600052601160045260246000fd5b600181815b808511156126ee5781600019048211156126d4576126d461269d565b808516156126e157918102915b93841c93908002906126b8565b509250929050565b60008261270557506001610875565b8161271257506000610875565b816001811461272857600281146127325761274e565b6001915050610875565b60ff8411156127435761274361269d565b50506001821b610875565b5060208310610133831016604e8410600b8410161715612771575081810a610875565b61277b83836126b3565b806000190482111561278f5761278f61269d565b029392505050565b600061087283836126f6565b600060ff821660ff8114156127ba576127ba61269d565b60010192915050565b6000815180845260005b818110156127e9576020818501810151868301820152016127cd565b818111156127fb576000602083870101525b50601f01601f19169290920160200192915050565b60408152600061282360408301856127c3565b828103602084015261283581856127c3565b95945050505050565b60006020828403121561285057600080fd5b81516120bf81612438565b848152606060208201526000612875606083018587612541565b9050821515604083015295945050505050565b6020808252602b908201527f496e697469616c697a61626c653a20636f6e7472616374206973206e6f74206960408201526a6e697469616c697a696e6760a81b606082015260800190565b6000828210156128e5576128e561269d565b500390565b60008160001904831182151516156129045761290461269d565b50029056fea2646970667358221220751fd5a6ba409686bf56cfe6c60ae1db553cb7d1851f0e4ad3b4e227d775a99764736f6c634300080b0033",
  "deployedBytecode": "0x6080604052600436106101cd5760003560e01c806384cdd9bc116100f7578063c4db7fa011610095578063e6ab280611610064578063e6ab280614610550578063ef0a712f14610570578063f2fad2b614610590578063f2fde38b146105b057600080fd5b8063c4db7fa0146104fe578063d46300fd14610513578063d5914c4514610528578063e25aa5fa1461053b57600080fd5b806391695586116100d1578063916955861461047e57806391ceb3eb1461049e578063a95b089f146104be578063b28cb6dc146104de57600080fd5b806384cdd9bc146104205780638beb60b6146104405780638da5cb5b1461046057600080fd5b80634d49e87d1161016f57806366c0bd241161013e57806366c0bd241461038c578063715018a6146103be57806382b86600146103d35780638456cb591461040b57600080fd5b80634d49e87d146102b3578063593d132c146102d35780635c975abb146102f35780635fd65f0f1461031657600080fd5b8063342a87a1116101ab578063342a87a11461023e57806334e199071461025e5780633e3a15601461027e5780633f4ba83a1461029e57600080fd5b80630419b45a146101d25780630ba81959146101e957806331cd52b014610211575b600080fd5b3480156101de57600080fd5b506101e76105d0565b005b3480156101f557600080fd5b506101fe610691565b6040519081526020015b60405180910390f35b34801561021d57600080fd5b5061023161022c366004611ee7565b61070e565b6040516102089190611f3a565b34801561024a57600080fd5b506101fe610259366004611f8f565b6107eb565b34801561026a57600080fd5b506101e7610279366004611fbb565b61087b565b34801561028a57600080fd5b506101fe610299366004611fd4565b610913565b3480156102aa57600080fd5b506101e7610a0d565b3480156102bf57600080fd5b506101fe6102ce36600461200f565b610a41565b3480156102df57600080fd5b506101e76102ee366004612060565b610aed565b3480156102ff57600080fd5b5060655460ff166040519015158152602001610208565b34801561032257600080fd5b5060c95460ca5460cb5460cc5460cd5460ce5460cf5461034e969594939291906001600160a01b031687565b604080519788526020880196909652948601939093526060850191909152608084015260a08301526001600160a01b031660c082015260e001610208565b34801561039857600080fd5b506103ac6103a73660046120a2565b610b8c565b60405160ff9091168152602001610208565b3480156103ca57600080fd5b506101e7610c03565b3480156103df57600080fd5b506103f36103ee3660046120c6565b610c37565b6040516001600160a01b039091168152602001610208565b34801561041757600080fd5b506101e7610caf565b34801561042c57600080fd5b506101fe61043b36600461200f565b610ce1565b34801561044c57600080fd5b506101e761045b366004611fbb565b610d8d565b34801561046c57600080fd5b506033546001600160a01b03166103f3565b34801561048a57600080fd5b506101fe6104993660046120e1565b610df6565b3480156104aa57600080fd5b506101fe6104b93660046120c6565b610f07565b3480156104ca57600080fd5b506101fe6104d936600461212e565b610f7c565b3480156104ea57600080fd5b506101e76104f936600461231b565b611014565b34801561050a57600080fd5b506101e7611743565b34801561051f57600080fd5b506101fe6117a5565b6101fe6105363660046123f6565b6117e0565b34801561054757600080fd5b506101fe6118b7565b34801561055c57600080fd5b506101fe61056b366004612446565b6118f2565b34801561057c57600080fd5b506101fe61058b366004611fbb565b611933565b34801561059c57600080fd5b506102316105ab366004611fbb565b6119b1565b3480156105bc57600080fd5b506101e76105cb3660046120a2565b611a33565b6033546001600160a01b031633146106035760405162461bcd60e51b81526004016105fa90612492565b60405180910390fd5b73__$6b2842ca3e57797a9d4b4103cb14e272b1$__6324c5c75160c96106316033546001600160a01b031690565b6040516001600160e01b031960e085901b16815260048101929092526001600160a01b031660248201526044015b60006040518083038186803b15801561067757600080fd5b505af415801561068b573d6000803e3d6000fd5b50505050565b60405163c9b64dcb60e01b815260c9600482015260009073__$ab74bb8be094b3ab64ad8b56d873337849$__9063c9b64dcb906024015b602060405180830381865af41580156106e5573d6000803e3d6000fd5b505050506040513d601f19601f8201168201806040525081019061070991906124c7565b905090565b6060600260975414156107335760405162461bcd60e51b81526004016105fa906124e0565b600260975581428110156107595760405162461bcd60e51b81526004016105fa90612517565b6040516339feb59f60e11b815273__$6b2842ca3e57797a9d4b4103cb14e272b1$__906373fd6b3e906107979060c9908a908a908a90600401612577565b600060405180830381865af41580156107b4573d6000803e3d6000fd5b505050506040513d6000823e601f3d908101601f191682016040526107dc91908101906125a1565b60016097559695505050505050565b60405163703493a160e11b815260c960048201526024810183905260ff8216604482015260009073__$6b2842ca3e57797a9d4b4103cb14e272b1$__9063e069274290606401602060405180830381865af415801561084e573d6000803e3d6000fd5b505050506040513d601f19601f8201168201806040525081019061087291906124c7565b90505b92915050565b6033546001600160a01b031633146108a55760405162461bcd60e51b81526004016105fa90612492565b60405163119f861b60e21b815260c960048201526024810182905273__$6b2842ca3e57797a9d4b4103cb14e272b1$__9063467e186c906044015b60006040518083038186803b1580156108f857600080fd5b505af415801561090c573d6000803e3d6000fd5b5050505050565b6000600260975414156109385760405162461bcd60e51b81526004016105fa906124e0565b600260975560655460ff16156109605760405162461bcd60e51b81526004016105fa90612632565b81804211156109815760405162461bcd60e51b81526004016105fa90612517565b60405163e7a4db8160e01b815260c960048201526024810187905260ff861660448201526064810185905273__$6b2842ca3e57797a9d4b4103cb14e272b1$__9063e7a4db81906084015b602060405180830381865af41580156109e9573d6000803e3d6000fd5b505050506040513d601f19601f820116820180604052508101906107dc91906124c7565b6033546001600160a01b03163314610a375760405162461bcd60e51b81526004016105fa90612492565b610a3f611ace565b565b600060026097541415610a665760405162461bcd60e51b81526004016105fa906124e0565b600260975560655460ff1615610a8e5760405162461bcd60e51b81526004016105fa90612632565b8180421115610aaf5760405162461bcd60e51b81526004016105fa90612517565b6040516340370edf60e01b815273__$6b2842ca3e57797a9d4b4103cb14e272b1$__906340370edf906109cc9060c9908a908a908a9060040161265c565b6033546001600160a01b03163314610b175760405162461bcd60e51b81526004016105fa90612492565b6040516358fdd79b60e01b815260c96004820152602481018390526044810182905273__$ab74bb8be094b3ab64ad8b56d873337849$__906358fdd79b9060640160006040518083038186803b158015610b7057600080fd5b505af4158015610b84573d6000803e3d6000fd5b505050505050565b6001600160a01b038116600081815260d36020526040812054909160ff90911690610bb682610c37565b6001600160a01b0316146108755760405162461bcd60e51b8152602060048201526014602482015273151bdad95b88191bd95cc81b9bdd08195e1a5cdd60621b60448201526064016105fa565b6033546001600160a01b03163314610c2d5760405162461bcd60e51b81526004016105fa90612492565b610a3f6000611b61565b60d05460009060ff831610610c7d5760405162461bcd60e51b815260206004820152600c60248201526b4f7574206f662072616e676560a01b60448201526064016105fa565b60d0805460ff8416908110610c9457610c94612687565b6000918252602090912001546001600160a01b031692915050565b6033546001600160a01b03163314610cd95760405162461bcd60e51b81526004016105fa90612492565b610a3f611bb3565b600060026097541415610d065760405162461bcd60e51b81526004016105fa906124e0565b600260975560655460ff1615610d2e5760405162461bcd60e51b81526004016105fa90612632565b8180421115610d4f5760405162461bcd60e51b81526004016105fa90612517565b6040516320dc8e1360e11b815273__$6b2842ca3e57797a9d4b4103cb14e272b1$__906341b91c26906109cc9060c9908a908a908a9060040161265c565b6033546001600160a01b03163314610db75760405162461bcd60e51b81526004016105fa90612492565b604051633823393b60e11b815260c960048201526024810182905273__$6b2842ca3e57797a9d4b4103cb14e272b1$__906370467276906044016108e0565b600060026097541415610e1b5760405162461bcd60e51b81526004016105fa906124e0565b600260975560655460ff1615610e435760405162461bcd60e51b81526004016105fa90612632565b8180421115610e645760405162461bcd60e51b81526004016105fa90612517565b60405163529cbd9160e11b815260c9600482015260ff808916602483015287166044820152606481018690526084810185905273__$6b2842ca3e57797a9d4b4103cb14e272b1$__9063a5397b229060a401602060405180830381865af4158015610ed3573d6000803e3d6000fd5b505050506040513d601f19601f82011682018060405250810190610ef791906124c7565b6001609755979650505050505050565b60d05460009060ff831610610f535760405162461bcd60e51b8152602060048201526012602482015271496e646578206f7574206f662072616e676560701b60448201526064016105fa565b60d2805460ff8416908110610f6a57610f6a612687565b90600052602060002001549050919050565b6040516312c8d80f60e21b815260c9600482015260ff8085166024830152831660448201526064810182905260009073__$6b2842ca3e57797a9d4b4103cb14e272b1$__90634b23603c906084015b602060405180830381865af4158015610fe8573d6000803e3d6000fd5b505050506040513d601f19601f8201168201806040525081019061100c91906124c7565b949350505050565b600054610100900460ff1661102f5760005460ff1615611033565b303b155b6110965760405162461bcd60e51b815260206004820152602e60248201527f496e697469616c697a61626c653a20636f6e747261637420697320616c72656160448201526d191e481a5b9a5d1a585b1a5e995960921b60648201526084016105fa565b600054610100900460ff161580156110b8576000805461ffff19166101011790555b6110c0611c0b565b6110c8611c4a565b60018951116111195760405162461bcd60e51b815260206004820152601960248201527f5f706f6f6c6564546f6b656e732e6c656e677468203c3d20310000000000000060448201526064016105fa565b60208951111561116b5760405162461bcd60e51b815260206004820152601960248201527f5f706f6f6c6564546f6b656e732e6c656e677468203e2033320000000000000060448201526064016105fa565b87518951146111bc5760405162461bcd60e51b815260206004820152601f60248201527f5f706f6f6c6564546f6b656e7320646563696d616c73206d69736d617463680060448201526064016105fa565b6000885167ffffffffffffffff8111156111d8576111d861216a565b604051908082528060200260200182016040528015611201578160200160208202803683370190505b50905060005b8a518160ff1610156114b15760ff8116156112f05760d360008c8360ff168151811061123557611235612687565b6020908102919091018101516001600160a01b031682528101919091526040016000205460ff161580156112b157508a8160ff168151811061127957611279612687565b60200260200101516001600160a01b03168b60008151811061129d5761129d612687565b60200260200101516001600160a01b031614155b6112f05760405162461bcd60e51b815260206004820152601060248201526f4475706c696361746520746f6b656e7360801b60448201526064016105fa565b60006001600160a01b03168b8260ff168151811061131057611310612687565b60200260200101516001600160a01b0316141561136f5760405162461bcd60e51b815260206004820152601d60248201527f546865203020616464726573732069736e277420616e204552432d323000000060448201526064016105fa565b601260ff168a8260ff168151811061138957611389612687565b602002602001015160ff1611156113e25760405162461bcd60e51b815260206004820152601a60248201527f546f6b656e20646563696d616c732065786365656473206d617800000000000060448201526064016105fa565b6114188a8260ff16815181106113fa576113fa612687565b602002602001015160ff16601260ff16611c7990919063ffffffff16565b61142390600a612797565b828260ff168151811061143857611438612687565b6020026020010181815250508060d360008d8460ff168151811061145e5761145e612687565b60200260200101516001600160a01b03166001600160a01b0316815260200190815260200160002060006101000a81548160ff021916908360ff16021790555080806114a9906127a3565b915050611207565b50620f424086106114f95760405162461bcd60e51b81526020600482015260126024820152715f612065786365656473206d6178696d756d60701b60448201526064016105fa565b6305f5e10085106115435760405162461bcd60e51b81526020600482015260146024820152735f6665652065786365656473206d6178696d756d60601b60448201526064016105fa565b6402540be40084106115975760405162461bcd60e51b815260206004820152601960248201527f5f61646d696e4665652065786365656473206d6178696d756d0000000000000060448201526064016105fa565b60006115a284611c85565b60405163266c45bb60e11b81529091506001600160a01b03821690634cd88b76906115d3908c908c90600401612810565b6020604051808303816000875af11580156115f2573d6000803e3d6000fd5b505050506040513d601f19601f82011682018060405250810190611616919061283e565b6116625760405162461bcd60e51b815260206004820152601c60248201527f636f756c64206e6f7420696e6974206c70546f6b656e20636c6f6e650000000060448201526064016105fa565b60cf80546001600160a01b0319166001600160a01b0383161790558a516116909060d09060208e0190611de6565b5081516116a49060d1906020850190611e4b565b508a5167ffffffffffffffff8111156116bf576116bf61216a565b6040519080825280602002602001820160405280156116e8578160200160208202803683370190505b5080516116fd9160d291602090910190611e4b565b50611709876064611d22565b60c955611717876064611d22565b60ca55505060cd84905560ce8390558015611738576000805461ff00191690555b505050505050505050565b6033546001600160a01b0316331461176d5760405162461bcd60e51b81526004016105fa90612492565b6040516378a7108f60e11b815260c9600482015273__$ab74bb8be094b3ab64ad8b56d873337849$__9063f14e211e9060240161065f565b604051632c28533f60e21b815260c9600482015260009073__$ab74bb8be094b3ab64ad8b56d873337849$__9063b0a14cfc906024016106c8565b6000600260975414156118055760405162461bcd60e51b81526004016105fa906124e0565b600260975560655460ff161561182d5760405162461bcd60e51b81526004016105fa90612632565b600061183884610b8c565b9050600061184584610b8c565b60405163529cbd9160e11b815260c9600482015260ff808516602483015282166044820152606481018890526000608482015290915073__$6b2842ca3e57797a9d4b4103cb14e272b1$__9063a5397b229060a401602060405180830381865af41580156109e9573d6000803e3d6000fd5b604051631c641b0b60e21b815260c9600482015260009073__$6b2842ca3e57797a9d4b4103cb14e272b1$__906371906c2c906024016106c8565b604051630834b49160e41b815260009073__$6b2842ca3e57797a9d4b4103cb14e272b1$__9063834b491090610fcb9060c99088908890889060040161285b565b6040516303e8240b60e51b815260c960048201526024810182905260009073__$6b2842ca3e57797a9d4b4103cb14e272b1$__90637d04816090604401602060405180830381865af415801561198d573d6000803e3d6000fd5b505050506040513d601f19601f8201168201806040525081019061087591906124c7565b6040516338381f2560e11b815260c960048201526024810182905260609073__$6b2842ca3e57797a9d4b4103cb14e272b1$__906370703e4a90604401600060405180830381865af4158015611a0b573d6000803e3d6000fd5b505050506040513d6000823e601f3d908101601f1916820160405261087591908101906125a1565b6033546001600160a01b03163314611a5d5760405162461bcd60e51b81526004016105fa90612492565b6001600160a01b038116611ac25760405162461bcd60e51b815260206004820152602660248201527f4f776e61626c653a206e6577206f776e657220697320746865207a65726f206160448201526564647265737360d01b60648201526084016105fa565b611acb81611b61565b50565b60655460ff16611b175760405162461bcd60e51b815260206004820152601460248201527314185d5cd8589b194e881b9bdd081c185d5cd95960621b60448201526064016105fa565b6065805460ff191690557f5db9ee0a495bf2e6ff9c91a7834c1ba4fdd244a5e8aa4e537bd38aeae4b073aa335b6040516001600160a01b03909116815260200160405180910390a1565b603380546001600160a01b038381166001600160a01b0319831681179093556040519116919082907f8be0079c531659141344cd1fd0a4f28419497f9722a3daafe3b4186f6b6457e090600090a35050565b60655460ff1615611bd65760405162461bcd60e51b81526004016105fa90612632565b6065805460ff191660011790557f62e78cea01bee320cd4e420270b5ea74000d11b0c9f74754ebdbfc544b05a258611b443390565b600054610100900460ff16611c325760405162461bcd60e51b81526004016105fa90612888565b611c3a611d2e565b611c42611d55565b610a3f611d85565b600054610100900460ff16611c715760405162461bcd60e51b81526004016105fa90612888565b610a3f611db8565b600061087282846128d3565b6000604051733d602d80600a3d3981f3363d3d373d3d3d363d7360601b81528260601b60148201526e5af43d82803e903d91602b57fd5bf360881b60288201526037816000f09150506001600160a01b038116611d1d5760405162461bcd60e51b8152602060048201526016602482015275115490cc4c4d8dce8818dc99585d194819985a5b195960521b60448201526064016105fa565b919050565b600061087282846128ea565b600054610100900460ff16610a3f5760405162461bcd60e51b81526004016105fa90612888565b600054610100900460ff16611d7c5760405162461bcd60e51b81526004016105fa90612888565b610a3f33611b61565b600054610100900460ff16611dac5760405162461bcd60e51b81526004016105fa90612888565b6065805460ff19169055565b600054610100900460ff16611ddf5760405162461bcd60e51b81526004016105fa90612888565b6001609755565b828054828255906000526020600020908101928215611e3b579160200282015b82811115611e3b57825182546001600160a01b0319166001600160a01b03909116178255602090920191600190910190611e06565b50611e47929150611e86565b5090565b828054828255906000526020600020908101928215611e3b579160200282015b82811115611e3b578251825591602001919060010190611e6b565b5b80821115611e475760008155600101611e87565b60008083601f840112611ead57600080fd5b50813567ffffffffffffffff811115611ec557600080fd5b6020830191508360208260051b8501011115611ee057600080fd5b9250929050565b60008060008060608587031215611efd57600080fd5b84359350602085013567ffffffffffffffff811115611f1b57600080fd5b611f2787828801611e9b565b9598909750949560400135949350505050565b6020808252825182820181905260009190848201906040850190845b81811015611f7257835183529284019291840191600101611f56565b50909695505050505050565b803560ff81168114611d1d57600080fd5b60008060408385031215611fa257600080fd5b82359150611fb260208401611f7e565b90509250929050565b600060208284031215611fcd57600080fd5b5035919050565b60008060008060808587031215611fea57600080fd5b84359350611ffa60208601611f7e565b93969395505050506040820135916060013590565b6000806000806060858703121561202557600080fd5b843567ffffffffffffffff81111561203c57600080fd5b61204887828801611e9b565b90989097506020870135966040013595509350505050565b6000806040838503121561207357600080fd5b50508035926020909101359150565b6001600160a01b0381168114611acb57600080fd5b8035611d1d81612082565b6000602082840312156120b457600080fd5b81356120bf81612082565b9392505050565b6000602082840312156120d857600080fd5b61087282611f7e565b600080600080600060a086880312156120f957600080fd5b61210286611f7e565b945061211060208701611f7e565b94979496505050506040830135926060810135926080909101359150565b60008060006060848603121561214357600080fd5b61214c84611f7e565b925061215a60208501611f7e565b9150604084013590509250925092565b634e487b7160e01b600052604160045260246000fd5b604051601f8201601f1916810167ffffffffffffffff811182821017156121a9576121a961216a565b604052919050565b600067ffffffffffffffff8211156121cb576121cb61216a565b5060051b60200190565b600082601f8301126121e657600080fd5b813560206121fb6121f6836121b1565b612180565b82815260059290921b8401810191818101908684111561221a57600080fd5b8286015b8481101561223e57803561223181612082565b835291830191830161221e565b509695505050505050565b600082601f83011261225a57600080fd5b8135602061226a6121f6836121b1565b82815260059290921b8401810191818101908684111561228957600080fd5b8286015b8481101561223e5761229e81611f7e565b835291830191830161228d565b600082601f8301126122bc57600080fd5b813567ffffffffffffffff8111156122d6576122d661216a565b6122e9601f8201601f1916602001612180565b8181528460208386010111156122fe57600080fd5b816020850160208301376000918101602001919091529392505050565b600080600080600080600080610100898b03121561233857600080fd5b883567ffffffffffffffff8082111561235057600080fd5b61235c8c838d016121d5565b995060208b013591508082111561237257600080fd5b61237e8c838d01612249565b985060408b013591508082111561239457600080fd5b6123a08c838d016122ab565b975060608b01359150808211156123b657600080fd5b506123c38b828c016122ab565b9550506080890135935060a0890135925060c089013591506123e760e08a01612097565b90509295985092959890939650565b60008060006060848603121561240b57600080fd5b83359250602084013561241d81612082565b9150604084013561242d81612082565b809150509250925092565b8015158114611acb57600080fd5b60008060006040848603121561245b57600080fd5b833567ffffffffffffffff81111561247257600080fd5b61247e86828701611e9b565b909450925050602084013561242d81612438565b6020808252818101527f4f776e61626c653a2063616c6c6572206973206e6f7420746865206f776e6572604082015260600190565b6000602082840312156124d957600080fd5b5051919050565b6020808252601f908201527f5265656e7472616e637947756172643a207265656e7472616e742063616c6c00604082015260600190565b60208082526010908201526f111958591b1a5b99481b9bdd081b595d60821b604082015260600190565b81835260006001600160fb1b0383111561255a57600080fd5b8260051b8083602087013760009401602001938452509192915050565b848152836020820152606060408201526000612597606083018486612541565b9695505050505050565b600060208083850312156125b457600080fd5b825167ffffffffffffffff8111156125cb57600080fd5b8301601f810185136125dc57600080fd5b80516125ea6121f6826121b1565b81815260059190911b8201830190838101908783111561260957600080fd5b928401925b828410156126275783518252928401929084019061260e565b979650505050505050565b60208082526010908201526f14185d5cd8589b194e881c185d5cd95960821b604082015260600190565b848152606060208201526000612676606083018587612541565b905082604083015295945050505050565b634e487b7160e01b600052603260045260246000fd5b634e487b7160e01b600052601160045260246000fd5b600181815b808511156126ee5781600019048211156126d4576126d461269d565b808516156126e157918102915b93841c93908002906126b8565b509250929050565b60008261270557506001610875565b8161271257506000610875565b816001811461272857600281146127325761274e565b6001915050610875565b60ff8411156127435761274361269d565b50506001821b610875565b5060208310610133831016604e8410600b8410161715612771575081810a610875565b61277b83836126b3565b806000190482111561278f5761278f61269d565b029392505050565b600061087283836126f6565b600060ff821660ff8114156127ba576127ba61269d565b60010192915050565b6000815180845260005b818110156127e9576020818501810151868301820152016127cd565b818111156127fb576000602083870101525b50601f01601f19169290920160200192915050565b60408152600061282360408301856127c3565b828103602084015261283581856127c3565b95945050505050565b60006020828403121561285057600080fd5b81516120bf81612438565b848152606060208201526000612875606083018587612541565b9050821515604083015295945050505050565b6020808252602b908201527f496e697469616c697a61626c653a20636f6e7472616374206973206e6f74206960408201526a6e697469616c697a696e6760a81b606082015260800190565b6000828210156128e5576128e561269d565b500390565b60008160001904831182151516156129045761290461269d565b50029056fea2646970667358221220751fd5a6ba409686bf56cfe6c60ae1db553cb7d1851f0e4ad3b4e227d775a99764736f6c634300080b0033",
  "libraries": {
    "SwapUtils": "0x1c93B4BB417e14D1acA1fFbDD412A97Cfb556261",
    "AmplificationUtils": "0x8629Cc604f177CB201FA421e1875298557D21875"
  },
  "devdoc": {
    "details": "Most of the logic is stored as a library `SwapUtils` for the sake of reducing contract's deployment size.",
    "kind": "dev",
    "methods": {
      "addLiquidity(uint256[],uint256,uint256)": {
        "params": {
          "amounts": "the amounts of each token to add, in their native precision",
          "deadline": "latest timestamp to accept this transaction",
          "minToMint": "the minimum LP tokens adding this amount of liquidity should mint, otherwise revert. Handy for front-running mitigation"
        },
        "returns": {
          "_0": "amount of LP token user minted and received"
        }
      },
      "calculateRemoveLiquidity(uint256)": {
        "params": {
          "amount": "the amount of LP tokens that would be burned on withdrawal"
        },
        "returns": {
          "_0": "array of token balances that the user will receive"
        }
      },
      "calculateRemoveLiquidityOneToken(uint256,uint8)": {
        "params": {
          "tokenAmount": "the amount of LP token to burn",
          "tokenIndex": "index of which token will be withdrawn"
        },
        "returns": {
          "availableTokenAmount": "calculated amount of underlying token available to withdraw"
        }
      },
      "calculateSwap(uint8,uint8,uint256)": {
        "params": {
          "dx": "the amount of tokens the user wants to sell. If the token charges a fee on transfers, use the amount that gets transferred after the fee.",
          "tokenIndexFrom": "the token the user wants to sell",
          "tokenIndexTo": "the token the user wants to buy"
        },
        "returns": {
          "_0": "amount of tokens the user will receive"
        }
      },
      "calculateTokenAmount(uint256[],bool)": {
        "details": "This shouldn't be used outside frontends for user estimates.",
        "params": {
          "amounts": "an array of token amounts to deposit or withdrawal, corresponding to pooledTokens. The amount should be in each pooled token's native precision. If a token charges a fee on transfers, use the amount that gets transferred after the fee.",
          "deposit": "whether this is a deposit or a withdrawal"
        },
        "returns": {
          "_0": "token amount the user will receive"
        }
      },
      "getA()": {
        "details": "See the StableSwap paper for details",
        "returns": {
          "_0": "A parameter"
        }
      },
      "getAPrecise()": {
        "details": "See the StableSwap paper for details",
        "returns": {
          "_0": "A parameter in its raw precision form"
        }
      },
      "getAdminBalance(uint256)": {
        "params": {
          "index": "Index of the pooled token"
        },
        "returns": {
          "_0": "admin's token balance in the token's precision"
        }
      },
      "getToken(uint8)": {
        "params": {
          "index": "the index of the token"
        },
        "returns": {
          "_0": "address of the token at given index"
        }
      },
      "getTokenBalance(uint8)": {
        "params": {
          "index": "the index of the token"
        },
        "returns": {
          "_0": "current balance of the pooled token at given index with token's native precision"
        }
      },
      "getTokenIndex(address)": {
        "params": {
          "tokenAddress": "address of the token"
        },
        "returns": {
          "_0": "the index of the given token address"
        }
      },
      "getVirtualPrice()": {
        "returns": {
          "_0": "the virtual price, scaled to the POOL_PRECISION_DECIMALS"
        }
      },
      "initialize(address[],uint8[],string,string,uint256,uint256,uint256,address)": {
        "params": {
          "_a": "the amplification coefficient * n * (n - 1). See the StableSwap paper for details",
          "_adminFee": "default adminFee to be initialized with",
          "_fee": "default swap fee to be initialized with",
          "_pooledTokens": "an array of ERC20s this pool will accept",
          "decimals": "the decimals to use for each pooled token, eg 8 for WBTC. Cannot be larger than POOL_PRECISION_DECIMALS",
          "lpTokenName": "the long-form name of the token to be deployed",
          "lpTokenSymbol": "the short symbol for the token to be deployed",
          "lpTokenTargetAddress": "the address of an existing LPToken contract to use as a target"
        }
      },
      "owner()": {
        "details": "Returns the address of the current owner."
      },
      "paused()": {
        "details": "Returns true if the contract is paused, and false otherwise."
      },
      "rampA(uint256,uint256)": {
        "params": {
          "futureA": "the new A to ramp towards",
          "futureTime": "timestamp when the new A should be reached"
        }
      },
      "removeLiquidity(uint256,uint256[],uint256)": {
        "details": "Liquidity can always be removed, even when the pool is paused.",
        "params": {
          "amount": "the amount of LP tokens to burn",
          "deadline": "latest timestamp to accept this transaction",
          "minAmounts": "the minimum amounts of each token in the pool        acceptable for this burn. Useful as a front-running mitigation"
        },
        "returns": {
          "_0": "amounts of tokens user received"
        }
      },
      "removeLiquidityImbalance(uint256[],uint256,uint256)": {
        "params": {
          "amounts": "how much of each token to withdraw",
          "deadline": "latest timestamp to accept this transaction",
          "maxBurnAmount": "the max LP token provider is willing to pay to remove liquidity. Useful as a front-running mitigation."
        },
        "returns": {
          "_0": "amount of LP tokens burned"
        }
      },
      "removeLiquidityOneToken(uint256,uint8,uint256,uint256)": {
        "params": {
          "deadline": "latest timestamp to accept this transaction",
          "minAmount": "the minimum amount to withdraw, otherwise revert",
          "tokenAmount": "the amount of the token you want to receive",
          "tokenIndex": "the index of the token you want to receive"
        },
        "returns": {
          "_0": "amount of chosen token user received"
        }
      },
      "renounceOwnership()": {
        "details": "Leaves the contract without owner. It will not be possible to call `onlyOwner` functions anymore. Can only be called by the current owner. NOTE: Renouncing ownership will leave the contract without an owner, thereby removing any functionality that is only available to the owner."
      },
      "setAdminFee(uint256)": {
        "params": {
          "newAdminFee": "new admin fee to be applied on future transactions"
        }
      },
      "setSwapFee(uint256)": {
        "params": {
          "newSwapFee": "new swap fee to be applied on future transactions"
        }
      },
      "swap(uint8,uint8,uint256,uint256,uint256)": {
        "params": {
          "deadline": "latest timestamp to accept this transaction",
          "dx": "the amount of tokens the user wants to swap from",
          "minDy": "the min amount the user would like to receive, or revert.",
          "tokenIndexFrom": "the token the user wants to swap from",
          "tokenIndexTo": "the token the user wants to swap to"
        }
      },
      "swapExact(uint256,address,address)": {
        "params": {
          "amountIn": "the amount of tokens the user wants to swap from",
          "assetIn": "the token the user wants to swap from",
          "assetOut": "the token the user wants to swap to"
        }
      },
      "transferOwnership(address)": {
        "details": "Transfers ownership of the contract to a new account (`newOwner`). Can only be called by the current owner."
      }
    },
    "title": "Swap - A StableSwap implementation in solidity.",
    "version": 1
  },
  "userdoc": {
    "kind": "user",
    "methods": {
      "addLiquidity(uint256[],uint256,uint256)": {
        "notice": "Add liquidity to the pool with the given amounts of tokens"
      },
      "calculateRemoveLiquidity(uint256)": {
        "notice": "A simple method to calculate amount of each underlying tokens that is returned upon burning given amount of LP tokens"
      },
      "calculateRemoveLiquidityOneToken(uint256,uint8)": {
        "notice": "Calculate the amount of underlying token available to withdraw when withdrawing via only single token"
      },
      "calculateSwap(uint8,uint8,uint256)": {
        "notice": "Calculate amount of tokens you receive on swap"
      },
      "calculateTokenAmount(uint256[],bool)": {
        "notice": "A simple method to calculate prices from deposits or withdrawals, excluding fees but including slippage. This is helpful as an input into the various \"min\" parameters on calls to fight front-running"
      },
      "getA()": {
        "notice": "Return A, the amplification coefficient * n * (n - 1)"
      },
      "getAPrecise()": {
        "notice": "Return A in its raw precision form"
      },
      "getAdminBalance(uint256)": {
        "notice": "This function reads the accumulated amount of admin fees of the token with given index"
      },
      "getToken(uint8)": {
        "notice": "Return address of the pooled token at given index. Reverts if tokenIndex is out of range."
      },
      "getTokenBalance(uint8)": {
        "notice": "Return current balance of the pooled token at given index"
      },
      "getTokenIndex(address)": {
        "notice": "Return the index of the given token address. Reverts if no matching token is found."
      },
      "getVirtualPrice()": {
        "notice": "Get the virtual price, to help calculate profit"
      },
      "initialize(address[],uint8[],string,string,uint256,uint256,uint256,address)": {
        "notice": "Initializes this Swap contract with the given parameters. This will also clone a LPToken contract that represents users' LP positions. The owner of LPToken will be this contract - which means only this contract is allowed to mint/burn tokens."
      },
      "pause()": {
        "notice": "Pause the contract. Revert if already paused."
      },
      "rampA(uint256,uint256)": {
        "notice": "Start ramping up or down A parameter towards given futureA and futureTime Checks if the change is too rapid, and commits the new A value only when it falls under the limit range."
      },
      "removeLiquidity(uint256,uint256[],uint256)": {
        "notice": "Burn LP tokens to remove liquidity from the pool. Withdraw fee that decays linearly over period of 4 weeks since last deposit will apply."
      },
      "removeLiquidityImbalance(uint256[],uint256,uint256)": {
        "notice": "Remove liquidity from the pool, weighted differently than the pool's current balances. Withdraw fee that decays linearly over period of 4 weeks since last deposit will apply."
      },
      "removeLiquidityOneToken(uint256,uint8,uint256,uint256)": {
        "notice": "Remove liquidity from the pool all in one token. Withdraw fee that decays linearly over period of 4 weeks since last deposit will apply."
      },
      "setAdminFee(uint256)": {
        "notice": "Update the admin fee. Admin fee takes portion of the swap fee."
      },
      "setSwapFee(uint256)": {
        "notice": "Update the swap fee to be applied on swaps"
      },
      "stopRampA()": {
        "notice": "Stop ramping A immediately. Reverts if ramp A is already stopped."
      },
      "swap(uint8,uint8,uint256,uint256,uint256)": {
        "notice": "Swap two tokens using this pool"
      },
      "swapExact(uint256,address,address)": {
        "notice": "Swap two tokens using this pool"
      },
      "unpause()": {
        "notice": "Unpause the contract. Revert if already unpaused."
      },
      "withdrawAdminFees()": {
        "notice": "Withdraw all admin fees to the contract owner"
      }
    },
    "notice": "This contract is responsible for custody of closely pegged assets (eg. group of stablecoins) and automatic market making system. Users become an LP (Liquidity Provider) by depositing their tokens in desired ratios for an exchange of the pool token that represents their share of the pool. Users can burn pool tokens and withdraw their share of token(s). Each time a swap between the pooled tokens happens, a set fee incurs which effectively gets distributed to the LPs. In case of emergencies, admin can pause additional deposits, swaps, or single-asset withdraws - which stops the ratio of the tokens in the pool from changing. Users can always withdraw their tokens via multi-asset withdraws.",
    "version": 1
  },
  "storageLayout": {
    "storage": [
      {
        "astId": 130,
        "contract": "contracts/StableSwap.sol:StableSwap",
        "label": "_initialized",
        "offset": 0,
        "slot": "0",
        "type": "t_bool"
      },
      {
        "astId": 133,
        "contract": "contracts/StableSwap.sol:StableSwap",
        "label": "_initializing",
        "offset": 1,
        "slot": "0",
        "type": "t_bool"
      },
      {
        "astId": 1655,
        "contract": "contracts/StableSwap.sol:StableSwap",
        "label": "__gap",
        "offset": 0,
        "slot": "1",
        "type": "t_array(t_uint256)50_storage"
      },
      {
        "astId": 10,
        "contract": "contracts/StableSwap.sol:StableSwap",
        "label": "_owner",
        "offset": 0,
        "slot": "51",
        "type": "t_address"
      },
      {
        "astId": 122,
        "contract": "contracts/StableSwap.sol:StableSwap",
        "label": "__gap",
        "offset": 0,
        "slot": "52",
        "type": "t_array(t_uint256)49_storage"
      },
      {
        "astId": 218,
        "contract": "contracts/StableSwap.sol:StableSwap",
        "label": "_paused",
        "offset": 0,
        "slot": "101",
        "type": "t_bool"
      },
      {
        "astId": 307,
        "contract": "contracts/StableSwap.sol:StableSwap",
        "label": "__gap",
        "offset": 0,
        "slot": "102",
        "type": "t_array(t_uint256)49_storage"
      },
      {
        "astId": 322,
        "contract": "contracts/StableSwap.sol:StableSwap",
        "label": "_status",
        "offset": 0,
        "slot": "151",
        "type": "t_uint256"
      },
      {
        "astId": 366,
        "contract": "contracts/StableSwap.sol:StableSwap",
        "label": "__gap",
        "offset": 0,
        "slot": "152",
        "type": "t_array(t_uint256)49_storage"
      },
      {
        "astId": 8455,
        "contract": "contracts/StableSwap.sol:StableSwap",
        "label": "swapStorage",
        "offset": 0,
        "slot": "201",
        "type": "t_struct(Swap)11031_storage"
      },
      {
        "astId": 8459,
        "contract": "contracts/StableSwap.sol:StableSwap",
        "label": "tokenIndexes",
        "offset": 0,
        "slot": "211",
        "type": "t_mapping(t_address,t_uint8)"
      }
    ],
    "types": {
      "t_address": {
        "encoding": "inplace",
        "label": "address",
        "numberOfBytes": "20"
      },
      "t_array(t_contract(IERC20)3859)dyn_storage": {
        "base": "t_contract(IERC20)3859",
        "encoding": "dynamic_array",
        "label": "contract IERC20[]",
        "numberOfBytes": "32"
      },
      "t_array(t_uint256)49_storage": {
        "base": "t_uint256",
        "encoding": "inplace",
        "label": "uint256[49]",
        "numberOfBytes": "1568"
      },
      "t_array(t_uint256)50_storage": {
        "base": "t_uint256",
        "encoding": "inplace",
        "label": "uint256[50]",
        "numberOfBytes": "1600"
      },
      "t_array(t_uint256)dyn_storage": {
        "base": "t_uint256",
        "encoding": "dynamic_array",
        "label": "uint256[]",
        "numberOfBytes": "32"
      },
      "t_bool": {
        "encoding": "inplace",
        "label": "bool",
        "numberOfBytes": "1"
      },
      "t_contract(IERC20)3859": {
        "encoding": "inplace",
        "label": "contract IERC20",
        "numberOfBytes": "20"
      },
      "t_contract(LPToken)10821": {
        "encoding": "inplace",
        "label": "contract LPToken",
        "numberOfBytes": "20"
      },
      "t_mapping(t_address,t_uint8)": {
        "encoding": "mapping",
        "key": "t_address",
        "label": "mapping(address => uint8)",
        "numberOfBytes": "32",
        "value": "t_uint8"
      },
      "t_struct(Swap)11031_storage": {
        "encoding": "inplace",
        "label": "struct SwapUtils.Swap",
        "members": [
          {
            "astId": 11007,
            "contract": "contracts/StableSwap.sol:StableSwap",
            "label": "initialA",
            "offset": 0,
            "slot": "0",
            "type": "t_uint256"
          },
          {
            "astId": 11009,
            "contract": "contracts/StableSwap.sol:StableSwap",
            "label": "futureA",
            "offset": 0,
            "slot": "1",
            "type": "t_uint256"
          },
          {
            "astId": 11011,
            "contract": "contracts/StableSwap.sol:StableSwap",
            "label": "initialATime",
            "offset": 0,
            "slot": "2",
            "type": "t_uint256"
          },
          {
            "astId": 11013,
            "contract": "contracts/StableSwap.sol:StableSwap",
            "label": "futureATime",
            "offset": 0,
            "slot": "3",
            "type": "t_uint256"
          },
          {
            "astId": 11015,
            "contract": "contracts/StableSwap.sol:StableSwap",
            "label": "swapFee",
            "offset": 0,
            "slot": "4",
            "type": "t_uint256"
          },
          {
            "astId": 11017,
            "contract": "contracts/StableSwap.sol:StableSwap",
            "label": "adminFee",
            "offset": 0,
            "slot": "5",
            "type": "t_uint256"
          },
          {
            "astId": 11020,
            "contract": "contracts/StableSwap.sol:StableSwap",
            "label": "lpToken",
            "offset": 0,
            "slot": "6",
            "type": "t_contract(LPToken)10821"
          },
          {
            "astId": 11024,
            "contract": "contracts/StableSwap.sol:StableSwap",
            "label": "pooledTokens",
            "offset": 0,
            "slot": "7",
            "type": "t_array(t_contract(IERC20)3859)dyn_storage"
          },
          {
            "astId": 11027,
            "contract": "contracts/StableSwap.sol:StableSwap",
            "label": "tokenPrecisionMultipliers",
            "offset": 0,
            "slot": "8",
            "type": "t_array(t_uint256)dyn_storage"
          },
          {
            "astId": 11030,
            "contract": "contracts/StableSwap.sol:StableSwap",
            "label": "balances",
            "offset": 0,
            "slot": "9",
            "type": "t_array(t_uint256)dyn_storage"
          }
        ],
        "numberOfBytes": "320"
      },
      "t_uint256": {
        "encoding": "inplace",
        "label": "uint256",
        "numberOfBytes": "32"
      },
      "t_uint8": {
        "encoding": "inplace",
        "label": "uint8",
        "numberOfBytes": "1"
      }
    }
  }
}