{
  "address": "0x2A8Ba07aCcd182B9FbF90c9708A4EAfC3e7e08Da",
  "abi": [
    {
      "anonymous": false,
      "inputs": [
        {
          "indexed": true,
          "internalType": "address",
          "name": "provider",
          "type": "address"
        },
        {
          "indexed": false,
          "internalType": "uint256[]",
          "name": "tokenAmounts",
          "type": "uint256[]"
        },
        {
          "indexed": false,
          "internalType": "uint256[]",
          "name": "fees",
          "type": "uint256[]"
        },
        {
          "indexed": false,
          "internalType": "uint256",
          "name": "invariant",
          "type": "uint256"
        },
        {
          "indexed": false,
          "internalType": "uint256",
          "name": "lpTokenSupply",
          "type": "uint256"
        }
      ],
      "name": "AddLiquidity",
      "type": "event"
    },
    {
      "anonymous": false,
      "inputs": [
        {
          "indexed": false,
          "internalType": "uint256",
          "name": "newAdminFee",
          "type": "uint256"
        }
      ],
      "name": "NewAdminFee",
      "type": "event"
    },
    {
      "anonymous": false,
      "inputs": [
        {
          "indexed": false,
          "internalType": "uint256",
          "name": "newSwapFee",
          "type": "uint256"
        }
      ],
      "name": "NewSwapFee",
      "type": "event"
    },
    {
      "anonymous": false,
      "inputs": [
        {
          "indexed": false,
          "internalType": "uint256",
          "name": "oldA",
          "type": "uint256"
        },
        {
          "indexed": false,
          "internalType": "uint256",
          "name": "newA",
          "type": "uint256"
        },
        {
          "indexed": false,
          "internalType": "uint256",
          "name": "initialTime",
          "type": "uint256"
        },
        {
          "indexed": false,
          "internalType": "uint256",
          "name": "futureTime",
          "type": "uint256"
        }
      ],
      "name": "RampA",
      "type": "event"
    },
    {
      "anonymous": false,
      "inputs": [
        {
          "indexed": true,
          "internalType": "address",
          "name": "provider",
          "type": "address"
        },
        {
          "indexed": false,
          "internalType": "uint256[]",
          "name": "tokenAmounts",
          "type": "uint256[]"
        },
        {
          "indexed": false,
          "internalType": "uint256",
          "name": "lpTokenSupply",
          "type": "uint256"
        }
      ],
      "name": "RemoveLiquidity",
      "type": "event"
    },
    {
      "anonymous": false,
      "inputs": [
        {
          "indexed": true,
          "internalType": "address",
          "name": "provider",
          "type": "address"
        },
        {
          "indexed": false,
          "internalType": "uint256[]",
          "name": "tokenAmounts",
          "type": "uint256[]"
        },
        {
          "indexed": false,
          "internalType": "uint256[]",
          "name": "fees",
          "type": "uint256[]"
        },
        {
          "indexed": false,
          "internalType": "uint256",
          "name": "invariant",
          "type": "uint256"
        },
        {
          "indexed": false,
          "internalType": "uint256",
          "name": "lpTokenSupply",
          "type": "uint256"
        }
      ],
      "name": "RemoveLiquidityImbalance",
      "type": "event"
    },
    {
      "anonymous": false,
      "inputs": [
        {
          "indexed": true,
          "internalType": "address",
          "name": "provider",
          "type": "address"
        },
        {
          "indexed": false,
          "internalType": "uint256",
          "name": "lpTokenAmount",
          "type": "uint256"
        },
        {
          "indexed": false,
          "internalType": "uint256",
          "name": "lpTokenSupply",
          "type": "uint256"
        },
        {
          "indexed": false,
          "internalType": "uint256",
          "name": "boughtId",
          "type": "uint256"
        },
        {
          "indexed": false,
          "internalType": "uint256",
          "name": "tokensBought",
          "type": "uint256"
        }
      ],
      "name": "RemoveLiquidityOne",
      "type": "event"
    },
    {
      "anonymous": false,
      "inputs": [
        {
          "indexed": false,
          "internalType": "uint256",
          "name": "currentA",
          "type": "uint256"
        },
        {
          "indexed": false,
          "internalType": "uint256",
          "name": "time",
          "type": "uint256"
        }
      ],
      "name": "StopRampA",
      "type": "event"
    },
    {
      "anonymous": false,
      "inputs": [
        {
          "indexed": true,
          "internalType": "address",
          "name": "buyer",
          "type": "address"
        },
        {
          "indexed": false,
          "internalType": "uint256",
          "name": "tokensSold",
          "type": "uint256"
        },
        {
          "indexed": false,
          "internalType": "uint256",
          "name": "tokensBought",
          "type": "uint256"
        },
        {
          "indexed": false,
          "internalType": "uint128",
          "name": "soldId",
          "type": "uint128"
        },
        {
          "indexed": false,
          "internalType": "uint128",
          "name": "boughtId",
          "type": "uint128"
        }
      ],
      "name": "TokenSwap",
      "type": "event"
    },
    {
      "inputs": [],
      "name": "A_PRECISION",
      "outputs": [
        {
          "internalType": "uint256",
          "name": "",
          "type": "uint256"
        }
      ],
      "stateMutability": "view",
      "type": "function"
    },
    {
      "inputs": [],
      "name": "MAX_A",
      "outputs": [
        {
          "internalType": "uint256",
          "name": "",
          "type": "uint256"
        }
      ],
      "stateMutability": "view",
      "type": "function"
    },
    {
      "inputs": [
        {
          "internalType": "uint256[]",
          "name": "xp",
          "type": "uint256[]"
        },
        {
          "internalType": "uint256",
          "name": "a",
          "type": "uint256"
        }
      ],
      "name": "getD",
      "outputs": [
        {
          "internalType": "uint256",
          "name": "",
          "type": "uint256"
        }
      ],
      "stateMutability": "pure",
      "type": "function"
    },
    {
      "inputs": [
        {
          "internalType": "uint256",
          "name": "preciseA",
          "type": "uint256"
        },
        {
          "internalType": "uint8",
          "name": "tokenIndexFrom",
          "type": "uint8"
        },
        {
          "internalType": "uint8",
          "name": "tokenIndexTo",
          "type": "uint8"
        },
        {
          "internalType": "uint256",
          "name": "x",
          "type": "uint256"
        },
        {
          "internalType": "uint256[]",
          "name": "xp",
          "type": "uint256[]"
        }
      ],
      "name": "getY",
      "outputs": [
        {
          "internalType": "uint256",
          "name": "",
          "type": "uint256"
        }
      ],
      "stateMutability": "pure",
      "type": "function"
    },
    {
      "inputs": [
        {
          "internalType": "uint256",
          "name": "a",
          "type": "uint256"
        },
        {
          "internalType": "uint8",
          "name": "tokenIndex",
          "type": "uint8"
        },
        {
          "internalType": "uint256[]",
          "name": "xp",
          "type": "uint256[]"
        },
        {
          "internalType": "uint256",
          "name": "d",
          "type": "uint256"
        }
      ],
      "name": "getYD",
      "outputs": [
        {
          "internalType": "uint256",
          "name": "",
          "type": "uint256"
        }
      ],
      "stateMutability": "pure",
      "type": "function"
    }
  ],
  "transactionHash": "0x1ce71e6db58cf8554d03b5822cebac20321802103c8939d33c17643434074a0c",
  "args": [],
  "numDeployments": 1,
  "solcInputHash": "ec83ca6b31a4e026f512418a8d587963",
  "bytecode": "0x614b0461003a600b82828239805160001a60731461002d57634e487b7160e01b600052600060045260246000fd5b30600052607381538281f3fe73000000000000000000000000000000000000000030146080604052600436106101985760003560e01c806380ba0f2d116100e8578063b92fa35c116100a1578063e5b994c51161007b578063e5b994c5146103d0578063f2042939146103f0578063f43dee5314610410578063fc7841841461042357600080fd5b8063b92fa35c14610395578063d011f918146103a8578063e07805aa146103b057600080fd5b806380ba0f2d1461030957806384eeef271461031c5780638be1e5231461032f5780638cc122bb146103425780639cbd240614610355578063ae3feedc1461037557600080fd5b806339698415116101555780636967280a1161012f5780636967280a146102965780636fbb250c146102a957806376a3b67c146102d657806377b83d30146102e957600080fd5b8063396984151461024c57806359d9996a1461025657806367487f2a1461027657600080fd5b806308bbaa231461019d5780631ce9046f146101bf57806322b1b5f6146101e557806322b2b607146101f85780632f4998ad1461020b57806338e630de1461021e575b600080fd5b8180156101a957600080fd5b506101bd6101b8366004614269565b610443565b005b6101d26101cd366004614269565b6104c7565b6040519081526020015b60405180910390f35b6101d26101f336600461428b565b610516565b6101d2610206366004614300565b61052c565b6101d2610219366004614374565b6107f0565b61023161022c3660046143b8565b61085b565b604080519384526020840192909252908201526060016101dc565b6101d2620f424081565b81801561026257600080fd5b506101bd610271366004614269565b610b50565b81801561028257600080fd5b506101d2610291366004614498565b610bc6565b6101d26102a43660046144e7565b611500565b8180156102b557600080fd5b506102c96102c4366004614545565b6116b5565b6040516101dc9190614597565b6101d26102e43660046145db565b611ab2565b8180156102f557600080fd5b506101d2610304366004614498565b611c18565b6101d261031736600461461f565b6123ba565b6101d261032a366004614690565b6125a3565b6101d261033d36600461428b565b61262a565b6102c9610350366004614269565b6126ea565b81801561036157600080fd5b506101bd6103703660046146c5565b6127c1565b81801561038157600080fd5b506101d2610390366004614701565b6128bf565b6101d26103a3366004614374565b612c56565b6101d2606481565b8180156103bc57600080fd5b506101d26103cb36600461472e565b612cb7565b8180156103dc57600080fd5b506101bd6103eb36600461428b565b61313f565b8180156103fc57600080fd5b506101d261040b36600461472e565b6131f0565b6101d261041e36600461428b565b61357d565b81801561042f57600080fd5b506101bd61043e36600461477c565b613588565b6402540be4008111156104885760405162461bcd60e51b81526020600482015260086024820152670e8dede40d0d2ced60c31b60448201526064015b60405180910390fd5b600582018190556040518181527fab599d640ca80cde2b09b128a4154a8dfe608cb80f4c9399c8b954b01fd35f38906020015b60405180910390a15050565b600782015460009082106104ed5760405162461bcd60e51b815260040161047f906147a8565b82600a018281548110610502576105026147d4565b906000526020600020015490505b92915050565b60006105106064610526846137cf565b90613853565b600080610538866137cf565b905060008660090180548060200260200160405190810160405280929190818152602001828054801561058a57602002820191906000526020600020905b815481526020019060010190808311610576575b505050505090506000876008018054806020026020016040519081016040528092919081815260200182805480156105e157602002820191906000526020600020905b8154815260200190600101908083116105cd575b5050505050905060008251905060006106036105fd858561385f565b86611ab2565b905060005b8281101561071557871561067d5761065a8a8a8381811061062b5761062b6147d4565b90506020020135868381518110610644576106446147d4565b602002602001015161395a90919063ffffffff16565b85828151811061066c5761066c6147d4565b60200260200101818152505061070d565b6106ee8a8a83818110610692576106926147d4565b90506020020135604051806040016040528060138152602001727769746864726177203e617661696c61626c6560681b8152508784815181106106d7576106d76147d4565b60200260200101516139669092919063ffffffff16565b858281518110610700576107006147d4565b6020026020010181815250505b600101610608565b50600061072b610725868661385f565b87611ab2565b905060008b60060160009054906101000a90046001600160a01b03166001600160a01b03166318160ddd6040518163ffffffff1660e01b8152600401602060405180830381865afa158015610784573d6000803e3d6000fd5b505050506040513d601f19601f820116820180604052508101906107a891906147ea565b905088156107d6576107c883610526836107c28684613992565b9061399e565b9750505050505050506107e8565b6107c883610526836107c28387613992565b949350505050565b6000610851858585858960090180548060200260200160405190810160405280929190818152602001828054801561084757602002820191906000526020600020905b815481526020019060010190808311610833575b50505050506139aa565b5095945050505050565b60008060008061086a88613b35565b905080518760ff161061088f5760405162461bcd60e51b815260040161047f906147a8565b60006040518060a0016040528060008152602001600081526020016000815260200160008152602001600081525090506108c8896137cf565b608082018190526108da908390611ab2565b8082526108fa906108f2908890610526908b9061399e565b825190613992565b60208201528151829060ff8a16908110610916576109166147d4565b60200260200101518711156109615760405162461bcd60e51b81526020600482015260116024820152706578636565647320617661696c61626c6560781b604482015260640161047f565b610975816080015189848460200151611500565b604082015281516000906001600160401b03811115610996576109966143f3565b6040519080825280602002602001820160405280156109bf578160200160208202803683370190505b5090506109d18a600401548451613be5565b606083015260005b8351811015610a9e5760008482815181106109f6576109f66147d4565b60200260200101519050610a78610a716402540be40061052687606001518f60ff168714610a4457885160208a0151610a3f91610a3891610526908a9061399e565b8790613992565b6107c2565b6107c28960400151610a6b8b600001516105268d602001518b61399e90919063ffffffff16565b90613992565b8290613992565b838381518110610a8a57610a8a6147d4565b6020908102919091010152506001016109d9565b506000610ae3610ab884608001518c858760200151611500565b838c60ff1681518110610acd57610acd6147d4565b602002602001015161399290919063ffffffff16565b9050610b178b6008018b60ff1681548110610b0057610b006147d4565b600091825260209091200154610526836001613992565b9050808360400151858c60ff1681518110610b3457610b346147d4565b6020026020010151965096509650505050509450945094915050565b6305f5e100811115610b8f5760405162461bcd60e51b81526020600482015260086024820152670e8dede40d0d2ced60c31b604482015260640161047f565b600482018190556040518181527fd88ea5155021c6f8dafa1a741e173f595cdf77ce7c17d43342131d7f06afdfe5906020016104bb565b60008084600701805480602002602001604051908101604052809291908181526020018280548015610c2157602002820191906000526020600020905b81546001600160a01b03168152600190910190602001808311610c03575b5050505050905060008151905080855114610c775760405162461bcd60e51b81526020600482015260166024820152756d69736d6174636820706f6f6c656420746f6b656e7360501b604482015260640161047f565b6000604051806101000160405280600081526020016000815260200160008152602001610ca3896137cf565b81526020018860060160009054906101000a90046001600160a01b03166001600160a01b031681526020016000815260200188600901805480602002602001604051908101604052809291908181526020018280548015610d2357602002820191906000526020600020905b815481526020019060010190808311610d0f575b5050505050815260200188600801805480602002602001604051908101604052809291908181526020018280548015610d7b57602002820191906000526020600020905b815481526020019060010190808311610d67575b5050505050815250905080608001516001600160a01b03166318160ddd6040518163ffffffff1660e01b8152600401602060405180830381865afa158015610dc7573d6000803e3d6000fd5b505050506040513d601f19601f82011682018060405250810190610deb91906147ea565b60a0820181905215610e1957610e16610e0c8260c001518360e0015161385f565b8260600151611ab2565b81525b6000826001600160401b03811115610e3357610e336143f3565b604051908082528060200260200182016040528015610e5c578160200160208202803683370190505b50905060005b838110156110d75760a0830151151580610e965750878181518110610e8957610e896147d4565b6020026020010151600014155b610ed75760405162461bcd60e51b815260206004820152601260248201527121737570706c7920616c6c20746f6b656e7360701b604482015260640161047f565b878181518110610ee957610ee96147d4565b602002602001015160001461107f576000858281518110610f0c57610f0c6147d4565b60209081029190910101516040516370a0823160e01b81523060048201526001600160a01b03909116906370a0823190602401602060405180830381865afa158015610f5c573d6000803e3d6000fd5b505050506040513d601f19601f82011682018060405250810190610f8091906147ea565b9050610fd433308b8581518110610f9957610f996147d4565b6020026020010151898681518110610fb357610fb36147d4565b60200260200101516001600160a01b0316613c04909392919063ffffffff16565b61105f81878481518110610fea57610fea6147d4565b60209081029190910101516040516370a0823160e01b81523060048201526001600160a01b03909116906370a08231906024015b602060405180830381865afa15801561103b573d6000803e3d6000fd5b505050506040513d601f19601f82011682018060405250810190610a6b91906147ea565b898381518110611071576110716147d4565b602002602001018181525050505b6110b2888281518110611094576110946147d4565b60200260200101518460c001518381518110610644576106446147d4565b8282815181106110c4576110c46147d4565b6020908102919091010152600101610e62565b506110f36110e9828460e0015161385f565b8360600151611ab2565b6020830181905282511061113d5760405162461bcd60e51b8152602060048201526011602482015270442073686f756c6420696e63726561736560781b604482015260640161047f565b602082015160408301526000836001600160401b03811115611161576111616143f3565b60405190808252806020026020018201604052801561118a578160200160208202803683370190505b5090508260a0015160001461139b5760006111a98a6004015486613be5565b905060005b858110156113745760006111f486600001516105268860c0015185815181106111d9576111d96147d4565b6020026020010151896020015161399e90919063ffffffff16565b90506112356402540be40061052661122e888681518110611217576112176147d4565b602002602001015185613c6f90919063ffffffff16565b869061399e565b848381518110611247576112476147d4565b602002602001018181525050600061128e6402540be4006105268f60050154888781518110611278576112786147d4565b602002602001015161399e90919063ffffffff16565b90506112a681878581518110610acd57610acd6147d4565b8d60090184815481106112bb576112bb6147d4565b90600052602060002001819055506112fb818e600a0185815481106112e2576112e26147d4565b906000526020600020015461395a90919063ffffffff16565b8d600a018481548110611310576113106147d4565b906000526020600020018190555061134d858481518110611333576113336147d4565b6020026020010151878581518110610acd57610acd6147d4565b86848151811061135f5761135f6147d4565b602090810291909101015250506001016111ae565b50611390611386848660e0015161385f565b8560600151611ab2565b6040850152506113b2565b81516113b09060098b01906020850190614209565b505b60008360a001516000036113cb575060208301516113ed565b835160a085015160408601516113ea9291610526916107c29084613992565b90505b8781101561142a5760405162461bcd60e51b815260206004820152600a60248201526936b4b73a101e1036b4b760b11b604482015260640161047f565b60808401516040516340c10f1960e01b8152336004820152602481018390526001600160a01b03909116906340c10f1990604401600060405180830381600087803b15801561147857600080fd5b505af115801561148c573d6000803e3d6000fd5b50505050336001600160a01b03167f189c623b666b1b45b83d7178f39b8c087cb09774317ca2f53c2d3c3726f222a28a8487602001516114d9868a60a0015161395a90919063ffffffff16565b6040516114e9949392919061483e565b60405180910390a2955050505050505b9392505050565b815160009060ff851681116115495760405162461bcd60e51b815260206004820152600f60248201526e151bdad95b881b9bdd08199bdd5b99608a1b604482015260640161047f565b82600080611557898561399e565b905060005b848110156115ca578860ff1681146115c25761159a888281518110611583576115836147d4565b60200260200101518461395a90919063ffffffff16565b92506115bf6115b5868a8481518110611278576112786147d4565b610526868a61399e565b93505b60010161155c565b506115e76115d8828661399e565b61052660646107c2878b61399e565b925060006116046115fd836105268a606461399e565b849061395a565b9050600087815b61010081101561166c5790915081906116446116368b610a6b8761163087600261399e565b9061395a565b61052689611630868061399e565b91506116508284613c94565b15611664575096506107e895505050505050565b60010161160b565b5060405162461bcd60e51b815260206004820152601e60248201527f417070726f78696d6174696f6e20646964206e6f7420636f6e76657267650000604482015260640161047f565b6006840154600785018054604080516020808402820181019092528281526060946001600160a01b031693600093919290919083018282801561172157602002820191906000526020600020905b81546001600160a01b03168152600190910190602001808311611703575b50506040516370a0823160e01b815233600482015293945050506001600160a01b038416916370a082319150602401602060405180830381865afa15801561176d573d6000803e3d6000fd5b505050506040513d601f19601f8201168201806040525081019061179191906147ea565b8611156117b05760405162461bcd60e51b815260040161047f90614877565b80518481146117f75760405162461bcd60e51b81526020600482015260136024820152726d69736d6174636820706f6f6c546f6b656e7360681b604482015260640161047f565b60008860090180548060200260200160405190810160405280929190818152602001828054801561184757602002820191906000526020600020905b815481526020019060010190808311611833575b505050505090506000846001600160a01b03166318160ddd6040518163ffffffff1660e01b8152600401602060405180830381865afa15801561188e573d6000803e3d6000fd5b505050506040513d601f19601f820116820180604052508101906118b291906147ea565b905060006118c1838b84613cab565b805190915060005b818110156119fc578a8a828181106118e3576118e36147d4565b905060200201358382815181106118fc576118fc6147d4565b602002602001015110156119525760405162461bcd60e51b815260206004820152601a60248201527f616d6f756e74735b695d203c206d696e416d6f756e74735b695d000000000000604482015260640161047f565b611981838281518110611967576119676147d4565b6020026020010151868381518110610acd57610acd6147d4565b8d6009018281548110611996576119966147d4565b90600052602060002001819055506119f4338483815181106119ba576119ba6147d4565b60200260200101518984815181106119d4576119d46147d4565b60200260200101516001600160a01b0316613d859092919063ffffffff16565b6001016118c9565b5060405163079cc67960e41b8152336004820152602481018c90526001600160a01b038816906379cc679090604401600060405180830381600087803b158015611a4557600080fd5b505af1158015611a59573d6000803e3d6000fd5b503392507f88d38ed598fdd809c2bf01ee49cd24b7fdabf379a83d29567952b60324d58cef9150849050611a8d868f613992565b604051611a9b92919061489e565b60405180910390a2509a9950505050505050505050565b815160009081805b82811015611af857611aee868281518110611ad757611ad76147d4565b60200260200101518361395a90919063ffffffff16565b9150600101611aba565b5080600003611b0c57600092505050610510565b60008181611b1a878661399e565b905060005b610100811015611bd9578260005b87811015611b6257611b58611b4e898d8481518110611278576112786147d4565b610526848861399e565b9150600101611b2d565b509293508392611bb0611b90611b7d836107c28b600161395a565b6116306064610526896107c28a84613992565b610526866107c2611ba1868d61399e565b61163060646105268b8f61399e565b9350611bbc8486613c94565b15611bd05783975050505050505050610510565b50600101611b1f565b5060405162461bcd60e51b81526020600482015260136024820152724420646f6573206e6f7420636f6e766572676560681b604482015260640161047f565b600080604051806101000160405280600081526020016000815260200160008152602001611c45876137cf565b81526020018660060160009054906101000a90046001600160a01b03166001600160a01b031681526020016000815260200186600901805480602002602001604051908101604052809291908181526020018280548015611cc557602002820191906000526020600020905b815481526020019060010190808311611cb1575b5050505050815260200186600801805480602002602001604051908101604052809291908181526020018280548015611d1d57602002820191906000526020600020905b815481526020019060010190808311611d09575b5050505050815250905080608001516001600160a01b03166318160ddd6040518163ffffffff1660e01b8152600401602060405180830381865afa158015611d69573d6000803e3d6000fd5b505050506040513d601f19601f82011682018060405250810190611d8d91906147ea565b60a08201526007850180546040805160208084028201810190925282815260009390929091830182828015611deb57602002820191906000526020600020905b81546001600160a01b03168152600190910190602001808311611dcd575b5050835189519495509392505050808214611e3f5760405162461bcd60e51b81526020600482015260146024820152736d69736d6174636820706f6f6c20746f6b656e7360601b604482015260640161047f565b60808401516040516370a0823160e01b81523360048201526001600160a01b03909116906370a0823190602401602060405180830381865afa158015611e89573d6000803e3d6000fd5b505050506040513d601f19601f82011682018060405250810190611ead91906147ea565b8611158015611ebb57508515155b611ed75760405162461bcd60e51b815260040161047f90614877565b6000611ee7896004015484613be5565b90506000836001600160401b03811115611f0357611f036143f3565b604051908082528060200260200182016040528015611f2c578160200160208202803683370190505b5090506000846001600160401b03811115611f4957611f496143f3565b604051908082528060200260200182016040528015611f72578160200160208202803683370190505b509050611f94611f8a8860c001518960e0015161385f565b8860600151611ab2565b875260005b8581101561202f5761200a8b8281518110611fb657611fb66147d4565b60200260200101516040518060400160405280601c81526020017f7769746864726177206d6f7265207468616e20617661696c61626c65000000008152508a60c0015184815181106106d7576106d76147d4565b82828151811061201c5761201c6147d4565b6020908102919091010152600101611f99565b50612041611f8a828960e0015161385f565b602088015260005b858110156121e557600061208f89600001516105268b60c001518581518110612074576120746147d4565b60200260200101518c6020015161399e90919063ffffffff16565b905060006120bf8484815181106120a8576120a86147d4565b602002602001015183613c6f90919063ffffffff16565b90506120d46402540be400610526888461399e565b8584815181106120e6576120e66147d4565b602002602001018181525050505060006121196402540be4006105268f60050154878681518110611278576112786147d4565b905061213181848481518110610acd57610acd6147d4565b8d6009018381548110612146576121466147d4565b906000526020600020018190555061216d818e600a0184815481106112e2576112e26147d4565b8d600a018381548110612182576121826147d4565b90600052602060002001819055506121bf8483815181106121a5576121a56147d4565b6020026020010151848481518110610acd57610acd6147d4565b8383815181106121d1576121d16147d4565b602090810291909101015250600101612049565b506121f7611f8a828960e0015161385f565b60408801819052875160a08901516000935061221d9261052691906107c2908490613992565b90508060000361225e5760405162461bcd60e51b815260206004820152600c60248201526b085e995c9bc8185b5bdd5b9d60a21b604482015260640161047f565b61226981600161395a565b9050888111156122bb5760405162461bcd60e51b815260206004820152601b60248201527f746f6b656e416d6f756e74203e206d61784275726e416d6f756e740000000000604482015260640161047f565b608087015160405163079cc67960e41b8152336004820152602481018390526001600160a01b03909116906379cc679090604401600060405180830381600087803b15801561230957600080fd5b505af115801561231d573d6000803e3d6000fd5b5050505060005b8581101561234a57612342338c83815181106119ba576119ba6147d4565b600101612324565b50336001600160a01b03167f3631c28b1f9dd213e0319fb167b554d76b6c283a41143eb400a0d1adb1af17558b848a60200151612394868d60a0015161399290919063ffffffff16565b6040516123a4949392919061483e565b60405180910390a29a9950505050505050505050565b805160009060ff8086169087160361240e5760405162461bcd60e51b815260206004820152601760248201527631b7b6b830b932903a37b5b2b7103a379034ba39b2b63360491b604482015260640161047f565b808660ff161080156124225750808560ff16105b6124605760405162461bcd60e51b815260206004820152600f60248201526e1d1bdad95b881b9bdd08199bdd5b99608a1b604482015260640161047f565b600061246c8489611ab2565b90508060008061247c858c61399e565b90506000805b868110156124fc578b60ff16810361249c578991506124cf565b8a60ff1681146124c7578881815181106124b8576124b86147d4565b602002602001015191506124cf565b600101612482565b6124d9848361395a565b93506124f26124e8838961399e565b610526878961399e565b9450600101612482565b5061251961250a838861399e565b61052660646107c2888a61399e565b9350600061253661252f8461052689606461399e565b859061395a565b9050600086815b61010081101561166c5790915081906125706125628a610a6b8761163087600261399e565b6105268a611630868061399e565b915061257c8284613c94565b156125925750985061259a975050505050505050565b60010161253d565b95945050505050565b6000806108518585858860060160009054906101000a90046001600160a01b03166001600160a01b03166318160ddd6040518163ffffffff1660e01b8152600401602060405180830381865afa158015612601573d6000803e3d6000fd5b505050506040513d601f19601f8201168201806040525081019061262591906147ea565b613dba565b60008061264261263984613b35565b6102e4856137cf565b905060008360060160009054906101000a90046001600160a01b031690506000816001600160a01b03166318160ddd6040518163ffffffff1660e01b8152600401602060405180830381865afa1580156126a0573d6000803e3d6000fd5b505050506040513d601f19601f820116820180604052508101906126c491906147ea565b905080156126df5761259a8161052661122e6012600a6149ba565b506000949350505050565b60606114f98360090180548060200260200160405190810160405280929190818152602001828054801561273d57602002820191906000526020600020905b815481526020019060010190808311612729575b5050505050838560060160009054906101000a90046001600160a01b03166001600160a01b03166318160ddd6040518163ffffffff1660e01b8152600401602060405180830381865afa158015612798573d6000803e3d6000fd5b505050506040513d601f19601f820116820180604052508101906127bc91906147ea565b613cab565b60008260070180548060200260200160405190810160405280929190818152602001828054801561281b57602002820191906000526020600020905b81546001600160a01b031681526001909101906020018083116127fd575b5050505050905060005b81518110156128b9576000828281518110612842576128426147d4565b60200260200101519050600085600a018381548110612863576128636147d4565b90600052602060002001549050806000146128af57600086600a01848154811061288f5761288f6147d4565b6000918252602090912001556128af6001600160a01b0383168683613d85565b5050600101612825565b50505050565b6006840154600785018054604080516020808402820181019092528281526000946001600160a01b0316938593919290919083018282801561292a57602002820191906000526020600020905b81546001600160a01b0316815260019091019060200180831161290c575b50506040516370a0823160e01b815233600482015293945050506001600160a01b038416916370a082319150602401602060405180830381865afa158015612976573d6000803e3d6000fd5b505050506040513d601f19601f8201168201806040525081019061299a91906147ea565b8611156129b95760405162461bcd60e51b815260040161047f90614877565b805160ff861681116129f95760405162461bcd60e51b81526020600482015260096024820152681b9bdd08199bdd5b9960ba1b604482015260640161047f565b6000836001600160a01b03166318160ddd6040518163ffffffff1660e01b8152600401602060405180830381865afa158015612a39573d6000803e3d6000fd5b505050506040513d601f19601f82011682018060405250810190612a5d91906147ea565b9050600080612a6e8b8b8b86613dba565b9150915087821015612ab35760405162461bcd60e51b815260206004820152600e60248201526d191e480f081b5a5b905b5bdd5b9d60921b604482015260640161047f565b6000612ad56402540be4006105268e600501548561399e90919063ffffffff16565b9050612b15612ae4848361395a565b8d6009018c60ff1681548110612afc57612afc6147d4565b906000526020600020015461399290919063ffffffff16565b8c6009018b60ff1681548110612b2d57612b2d6147d4565b6000918252602090912001558015612b8057612b5b818d600a018c60ff16815481106112e2576112e26147d4565b8c600a018b60ff1681548110612b7357612b736147d4565b6000918252602090912001555b60405163079cc67960e41b8152336004820152602481018c90526001600160a01b038816906379cc679090604401600060405180830381600087803b158015612bc857600080fd5b505af1158015612bdc573d6000803e3d6000fd5b50505050612bfa3384888d60ff16815181106119d4576119d46147d4565b604080518c81526020810186905260ff8c168183015260608101859052905133917f43fb02998f4e03da2e0e6fff53fdbf0c40a9f45f145dc377fc30615d7d7a8a64919081900360800190a250909a9950505050505050505050565b60006108518585858589600901805480602002602001604051908101604052809291908181526020018280548015612cad57602002820191906000526020600020905b815481526020019060010190808311612c99575b5050505050613e22565b6000856009018460ff1681548110612cd157612cd16147d4565b9060005260206000200154831115612d1b5760405162461bcd60e51b815260206004820152600d60248201526c3e706f6f6c2062616c616e636560981b604482015260640161047f565b600080600088600901805480602002602001604051908101604052809291908181526020018280548015612d6e57602002820191906000526020600020905b815481526020019060010190808311612d5a575b50505050509050612d828989898985613e22565b909350915084831115612dc45760405162461bcd60e51b815260206004820152600a6024820152690c8f0407c40dac2f088f60b31b604482015260640161047f565b6000612e0c8a6008018a60ff1681548110612de157612de16147d4565b90600052602060002001546105266402540be4006105268e600501548861399e90919063ffffffff16565b9050612e2b81610a6b86858d60ff1681518110610644576106446147d4565b8a6009018a60ff1681548110612e4357612e436147d4565b9060005260206000200181905550612e6a87838a60ff1681518110610acd57610acd6147d4565b8a6009018960ff1681548110612e8257612e826147d4565b6000918252602090912001558015612ed557612eb0818b600a018b60ff16815481106112e2576112e26147d4565b8a600a018a60ff1681548110612ec857612ec86147d4565b6000918252602090912001555b60008a6007018a60ff1681548110612eef57612eef6147d4565b6000918252602090912001546040516370a0823160e01b81523360048201526001600160a01b03909116915081906370a0823190602401602060405180830381865afa158015612f43573d6000803e3d6000fd5b505050506040513d601f19601f82011682018060405250810190612f6791906147ea565b851115612faa5760405162461bcd60e51b815260206004820152601160248201527036b7b932903a3430b7103cb7ba9037bbb760791b604482015260640161047f565b6040516370a0823160e01b81523060048201526000906001600160a01b038316906370a0823190602401602060405180830381865afa158015612ff1573d6000803e3d6000fd5b505050506040513d601f19601f8201168201806040525081019061301591906147ea565b905061302c6001600160a01b038316333089613c04565b6040516370a0823160e01b815230600482015261305e9082906001600160a01b038516906370a082319060240161101e565b86146130a45760405162461bcd60e51b81526020600482015260156024820152743737ba1039bab83837b93a103332b2903a37b5b2b760591b604482015260640161047f565b50506130df33888c6007018b60ff16815481106130c3576130c36147d4565b6000918252602090912001546001600160a01b03169190613d85565b604080518581526020810189905260ff808c1692820192909252908916606082015233907fc6c1e0630dbe9130cc068028486c0d118ddcea348550819defd5cb8c257f8a38906080015b60405180910390a2509198975050505050505050565b428160030154116131925760405162461bcd60e51b815260206004820152601760248201527f52616d7020697320616c72656164792073746f70706564000000000000000000604482015260640161047f565b600061319d826137cf565b808355600183018190554260028401819055600384018190556040519192507f46e22fb3709ad289f62ce63d469248536dbc78d82b84a3d7e74ad606dc201938916104bb91848252602082015260400190565b600080866007018660ff168154811061320b5761320b6147d4565b6000918252602090912001546040516370a0823160e01b81523360048201526001600160a01b03909116915081906370a0823190602401602060405180830381865afa15801561325f573d6000803e3d6000fd5b505050506040513d601f19601f8201168201806040525081019061328391906147ea565b8411156132cb5760405162461bcd60e51b815260206004820152601660248201527539bbb0b81036b7b932903a3430b7103cb7ba9037bbb760511b604482015260640161047f565b6040516370a0823160e01b81523060048201526000906001600160a01b038316906370a0823190602401602060405180830381865afa158015613312573d6000803e3d6000fd5b505050506040513d601f19601f8201168201806040525081019061333691906147ea565b905061334d6001600160a01b038316333088613c04565b6040516370a0823160e01b815230600482015261337f9082906001600160a01b038516906370a082319060240161101e565b945050506000806000886009018054806020026020016040519081016040528092919081815260200182805480156133d657602002820191906000526020600020905b8154815260200190600101908083116133c2575b505050505090506133ea89898989856139aa565b90935091508483101561342c5760405162461bcd60e51b815260206004820152600a6024820152696479203c206d696e447960b01b604482015260640161047f565b60006134498a6008018960ff1681548110612de157612de16147d4565b905061346487838b60ff1681518110610644576106446147d4565b8a6009018a60ff168154811061347c5761347c6147d4565b90600052602060002001819055506134a781610a6b86858c60ff1681518110610acd57610acd6147d4565b8a6009018960ff16815481106134bf576134bf6147d4565b6000918252602090912001558015613512576134ed818b600a018a60ff16815481106112e2576112e26147d4565b8a600a018960ff1681548110613505576135056147d4565b6000918252602090912001555b61352f33858c6007018b60ff16815481106130c3576130c36147d4565b604080518881526020810186905260ff808c1692820192909252908916606082015233907fc6c1e0630dbe9130cc068028486c0d118ddcea348550819defd5cb8c257f8a3890608001613129565b6000610510826137cf565b600283015461359a906201518061395a565b4210156135e95760405162461bcd60e51b815260206004820152601f60248201527f57616974203120646179206265666f7265207374617274696e672072616d7000604482015260640161047f565b6135f6426212750061395a565b81101561363e5760405162461bcd60e51b8152602060048201526016602482015275496e73756666696369656e742072616d702074696d6560501b604482015260640161047f565b811580159061364f5750620f424082105b61369b5760405162461bcd60e51b815260206004820181905260248201527f667574757265415f206d757374206265203e203020616e64203c204d41585f41604482015260640161047f565b60006136a6846137cf565b905060006136b584606461399e565b90508181101561371657816136cb82600261399e565b10156137115760405162461bcd60e51b8152602060048201526015602482015274199d5d1d5c995057c81a5cc81d1bdbc81cdb585b1b605a1b604482015260640161047f565b613768565b61372182600261399e565b8111156137685760405162461bcd60e51b8152602060048201526015602482015274667574757265415f20697320746f6f206c6172676560581b604482015260640161047f565b8185556001850181905542600286018190556003860184905560408051848152602081018490528082019290925260608201859052517fa2b71ec6df949300b59aab36b55e189697b750119dd349fcfa8c0f779e83c2549181900360800190a15050505050565b6003810154600182015460009190428211156114f957600284015484548083111561382c5761382261381b6138048685613992565b6105266138114287613992565b6107c28887613992565b829061395a565b9695505050505050565b613822610a7161383c8685613992565b6105266138494287613992565b6107c28689613992565b60006114f982846149c6565b815181516060919081146138ac5760405162461bcd60e51b81526020600482015260146024820152736d69736d61746368206d756c7469706c6965727360601b604482015260640161047f565b6000816001600160401b038111156138c6576138c66143f3565b6040519080825280602002602001820160405280156138ef578160200160208202803683370190505b50905060005b828110156139515761392c858281518110613912576139126147d4565b6020026020010151878381518110611278576112786147d4565b82828151811061393e5761393e6147d4565b60209081029190910101526001016138f5565b50949350505050565b60006114f982846149e8565b6000818484111561398a5760405162461bcd60e51b815260040161047f9190614a2c565b505050900390565b60006114f98284614a5f565b60006114f98284614a76565b6000806000876008018054806020026020016040519081016040528092919081815260200182805480156139fd57602002820191906000526020600020905b8154815260200190600101908083116139e9575b505050505090506000613a10858361385f565b905080518860ff16108015613a28575080518760ff16105b613a445760405162461bcd60e51b815260040161047f906147a8565b6000613a95828a60ff1681518110613a5e57613a5e6147d4565b6020026020010151611630858c60ff1681518110613a7e57613a7e6147d4565b60200260200101518a61399e90919063ffffffff16565b90506000613aae613aa58c6137cf565b8b8b85876123ba565b9050613ace6001610a6b83868d60ff1681518110610acd57610acd6147d4565b9550613af06402540be4006105268d600401548961399e90919063ffffffff16565b9450613b25848a60ff1681518110613b0a57613b0a6147d4565b6020026020010151610526878961399290919063ffffffff16565b9550505050509550959350505050565b606061051082600901805480602002602001604051908101604052809291908181526020018280548015613b8857602002820191906000526020600020905b815481526020019060010190808311613b74575b505050505083600801805480602002602001604051908101604052809291908181526020018280548015613bdb57602002820191906000526020600020905b815481526020019060010190808311613bc7575b505050505061385f565b60006114f9613bfa60046107c2856001613992565b610526858561399e565b6040516001600160a01b03808516602483015283166044820152606481018290526128b99085906323b872dd60e01b906084015b60408051601f198184030181529190526020810180516001600160e01b03166001600160e01b031990931692909217909152614023565b600081831115613c8a57613c838284614a5f565b9050610510565b6114f98383614a5f565b60006001613ca28484613c6f565b11159392505050565b606081831115613cf35760405162461bcd60e51b815260206004820152601360248201527265786365656420746f74616c20737570706c7960681b604482015260640161047f565b83516000816001600160401b03811115613d0f57613d0f6143f3565b604051908082528060200260200182016040528015613d38578160200160208202803683370190505b50905060005b8281101561085157613d6085610526888a8581518110611278576112786147d4565b828281518110613d7257613d726147d4565b6020908102919091010152600101613d3e565b6040516001600160a01b038316602482015260448101829052613db590849063a9059cbb60e01b90606401613c38565b505050565b6000806000806000613dce89888a8961085b565b8093508194508295505050506000613e1184610a6b8c6008018b60ff1681548110613dfb57613dfb6147d4565b6000918252602090912001546105268688613992565b939a93995092975050505050505050565b6000808460ff168660ff1603613e745760405162461bcd60e51b815260206004820152601760248201527631b7b6b830b932903a37b5b2b7103a379034ba39b2b63360491b604482015260640161047f565b600087600801805480602002602001604051908101604052809291908181526020018280548015613ec457602002820191906000526020600020905b815481526020019060010190808311613eb0575b505050505090506000613ed7858361385f565b905080518860ff16108015613eef575080518760ff16105b613f0b5760405162461bcd60e51b815260040161047f906147a8565b6000613f168a6137cf565b90506000613f248383611ab2565b9050613f56613f41858b60ff1681518110613a7e57613a7e6147d4565b848b60ff1681518110610acd57610acd6147d4565b838a60ff1681518110613f6b57613f6b6147d4565b6020026020010181815250506000613f85838c8685611500565b9050613fbb6001611630868e60ff1681518110613fa457613fa46147d4565b60200260200101518461399290919063ffffffff16565b9650613fdd6402540be4006105268e600401548a61399e90919063ffffffff16565b9550614012858c60ff1681518110613ff757613ff76147d4565b6020026020010151610526888a61395a90919063ffffffff16565b965050505050509550959350505050565b6000614078826040518060400160405280602081526020017f5361666545524332303a206c6f772d6c6576656c2063616c6c206661696c6564815250856001600160a01b03166140f59092919063ffffffff16565b805190915015613db557808060200190518101906140969190614a95565b613db55760405162461bcd60e51b815260206004820152602a60248201527f5361666545524332303a204552433230206f7065726174696f6e20646964206e6044820152691bdd081cdd58d8d9595960b21b606482015260840161047f565b60606107e88484600085856001600160a01b0385163b6141575760405162461bcd60e51b815260206004820152601d60248201527f416464726573733a2063616c6c20746f206e6f6e2d636f6e7472616374000000604482015260640161047f565b600080866001600160a01b031685876040516141739190614ab2565b60006040518083038185875af1925050503d80600081146141b0576040519150601f19603f3d011682016040523d82523d6000602084013e6141b5565b606091505b50915091506141c58282866141d0565b979650505050505050565b606083156141df5750816114f9565b8251156141ef5782518084602001fd5b8160405162461bcd60e51b815260040161047f9190614a2c565b828054828255906000526020600020908101928215614244579160200282015b82811115614244578251825591602001919060010190614229565b50614250929150614254565b5090565b5b808211156142505760008155600101614255565b6000806040838503121561427c57600080fd5b50508035926020909101359150565b60006020828403121561429d57600080fd5b5035919050565b60008083601f8401126142b657600080fd5b5081356001600160401b038111156142cd57600080fd5b6020830191508360208260051b85010111156142e857600080fd5b9250929050565b80151581146142fd57600080fd5b50565b6000806000806060858703121561431657600080fd5b8435935060208501356001600160401b0381111561433357600080fd5b61433f878288016142a4565b9094509250506040850135614353816142ef565b939692955090935050565b803560ff8116811461436f57600080fd5b919050565b6000806000806080858703121561438a57600080fd5b8435935061439a6020860161435e565b92506143a86040860161435e565b9396929550929360600135925050565b600080600080608085870312156143ce57600080fd5b843593506143de6020860161435e565b93969395505050506040820135916060013590565b634e487b7160e01b600052604160045260246000fd5b600082601f83011261441a57600080fd5b813560206001600160401b0380831115614436576144366143f3565b8260051b604051601f19603f8301168101818110848211171561445b5761445b6143f3565b60405293845285810183019383810192508785111561447957600080fd5b83870191505b848210156141c55781358352918301919083019061447f565b6000806000606084860312156144ad57600080fd5b8335925060208401356001600160401b038111156144ca57600080fd5b6144d686828701614409565b925050604084013590509250925092565b600080600080608085870312156144fd57600080fd5b8435935061450d6020860161435e565b925060408501356001600160401b0381111561452857600080fd5b61453487828801614409565b949793965093946060013593505050565b6000806000806060858703121561455b57600080fd5b843593506020850135925060408501356001600160401b0381111561457f57600080fd5b61458b878288016142a4565b95989497509550505050565b6020808252825182820181905260009190848201906040850190845b818110156145cf578351835292840192918401916001016145b3565b50909695505050505050565b600080604083850312156145ee57600080fd5b82356001600160401b0381111561460457600080fd5b61461085828601614409565b95602094909401359450505050565b600080600080600060a0868803121561463757600080fd5b853594506146476020870161435e565b93506146556040870161435e565b92506060860135915060808601356001600160401b0381111561467757600080fd5b61468388828901614409565b9150509295509295909350565b6000806000606084860312156146a557600080fd5b83359250602084013591506146bc6040850161435e565b90509250925092565b600080604083850312156146d857600080fd5b8235915060208301356001600160a01b03811681146146f657600080fd5b809150509250929050565b6000806000806080858703121561471757600080fd5b84359350602085013592506143a86040860161435e565b600080600080600060a0868803121561474657600080fd5b853594506147566020870161435e565b93506147646040870161435e565b94979396509394606081013594506080013592915050565b60008060006060848603121561479157600080fd5b505081359360208301359350604090920135919050565b602080825260129082015271696e646578206f7574206f662072616e676560701b604082015260600190565b634e487b7160e01b600052603260045260246000fd5b6000602082840312156147fc57600080fd5b5051919050565b600081518084526020808501945080840160005b8381101561483357815187529582019590820190600101614817565b509495945050505050565b6080815260006148516080830187614803565b82810360208401526148638187614803565b604084019590955250506060015292915050565b6020808252600d908201526c1f2628173130b630b731b2a7b360991b604082015260600190565b6040815260006148b16040830185614803565b90508260208301529392505050565b634e487b7160e01b600052601160045260246000fd5b600181815b808511156149115781600019048211156148f7576148f76148c0565b8085161561490457918102915b93841c93908002906148db565b509250929050565b60008261492857506001610510565b8161493557506000610510565b816001811461494b576002811461495557614971565b6001915050610510565b60ff841115614966576149666148c0565b50506001821b610510565b5060208310610133831016604e8410600b8410161715614994575081810a610510565b61499e83836148d6565b80600019048211156149b2576149b26148c0565b029392505050565b60006114f98383614919565b6000826149e357634e487b7160e01b600052601260045260246000fd5b500490565b600082198211156149fb576149fb6148c0565b500190565b60005b83811015614a1b578181015183820152602001614a03565b838111156128b95750506000910152565b6020815260008251806020840152614a4b816040850160208701614a00565b601f01601f19169190910160400192915050565b600082821015614a7157614a716148c0565b500390565b6000816000190483118215151615614a9057614a906148c0565b500290565b600060208284031215614aa757600080fd5b81516114f9816142ef565b60008251614ac4818460208701614a00565b919091019291505056fea26469706673582212204ecbc2f218759cfe628d0657f491f8a86d7558658c332368ae9ee472b336fc0964736f6c634300080f0033",
  "devdoc": {
    "details": "Contracts relying on this library must initialize SwapUtils.Swap struct then use this library for SwapUtils.Swap struct. Note that this library contains both functions called by users and admins. Admin functions should be protected within contracts using this library.",
    "kind": "dev",
    "methods": {
      "addLiquidity(SwapUtilsExternal.Swap storage,uint256[],uint256)": {
        "params": {
          "amounts": "the amounts of each token to add, in their native precision",
          "minToMint": "the minimum LP tokens adding this amount of liquidity should mint, otherwise revert. Handy for front-running mitigation allowed addresses. If the pool is not in the guarded launch phase, this parameter will be ignored.",
          "self": "Swap struct to read from and write to"
        },
        "returns": {
          "_0": "amount of LP token user received"
        }
      },
      "calculateRemoveLiquidity(SwapUtilsExternal.Swap storage,uint256)": {
        "params": {
          "amount": "the amount of LP tokens that would to be burned on withdrawal"
        },
        "returns": {
          "_0": "array of amounts of tokens user will receive"
        }
      },
      "calculateSwap(SwapUtilsExternal.Swap storage,uint8,uint8,uint256)": {
        "params": {
          "dx": "the number of tokens to sell. If the token charges a fee on transfers, use the amount that gets transferred after the fee.",
          "self": "Swap struct to read from",
          "tokenIndexFrom": "the token to sell",
          "tokenIndexTo": "the token to buy"
        },
        "returns": {
          "dy": "the number of tokens the user will get"
        }
      },
      "calculateSwapInv(SwapUtilsExternal.Swap storage,uint8,uint8,uint256)": {
        "params": {
          "dy": "the number of tokens to buy.",
          "self": "Swap struct to read from",
          "tokenIndexFrom": "the token to sell",
          "tokenIndexTo": "the token to buy"
        },
        "returns": {
          "dx": "the number of tokens the user have to transfer + fee"
        }
      },
      "calculateTokenAmount(SwapUtilsExternal.Swap storage,uint256[],bool)": {
        "details": "This shouldn't be used outside frontends for user estimates.",
        "params": {
          "amounts": "an array of token amounts to deposit or withdrawal, corresponding to pooledTokens. The amount should be in each pooled token's native precision. If a token charges a fee on transfers, use the amount that gets transferred after the fee.",
          "deposit": "whether this is a deposit or a withdrawal",
          "self": "Swap struct to read from"
        },
        "returns": {
          "_0": "if deposit was true, total amount of lp token that will be minted and if deposit was false, total amount of lp token that will be burned"
        }
      },
      "calculateWithdrawOneToken(SwapUtilsExternal.Swap storage,uint256,uint8)": {
        "params": {
          "self": "Swap struct to read from",
          "tokenAmount": "the amount to withdraw in the pool's precision",
          "tokenIndex": "which token will be withdrawn"
        },
        "returns": {
          "_0": "the amount of token user will receive"
        }
      },
      "calculateWithdrawOneTokenDY(SwapUtilsExternal.Swap storage,uint8,uint256,uint256)": {
        "params": {
          "self": "Swap struct to read from",
          "tokenAmount": "the amount to withdraw in the pools precision",
          "tokenIndex": "which token will be withdrawn"
        },
        "returns": {
          "_0": "the d and the new y after withdrawing one token"
        }
      },
      "getA(SwapUtilsExternal.Swap storage)": {
        "details": "See the StableSwap paper for details",
        "params": {
          "self": "Swap struct to read from"
        },
        "returns": {
          "_0": "A parameter"
        }
      },
      "getAPrecise(SwapUtilsExternal.Swap storage)": {
        "details": "See the StableSwap paper for details",
        "params": {
          "self": "Swap struct to read from"
        },
        "returns": {
          "_0": "A parameter in its raw precision form"
        }
      },
      "getAdminBalance(SwapUtilsExternal.Swap storage,uint256)": {
        "params": {
          "index": "Index of the pooled token",
          "self": "Swap struct to read from"
        },
        "returns": {
          "_0": "admin balance in the token's precision"
        }
      },
      "getD(uint256[],uint256)": {
        "params": {
          "a": "the amplification coefficient * n * (n - 1) in A_PRECISION. See the StableSwap paper for details",
          "xp": "a precision-adjusted set of pool balances. Array should be the same cardinality as the pool."
        },
        "returns": {
          "_0": "the invariant, at the precision of the pool"
        }
      },
      "getVirtualPrice(SwapUtilsExternal.Swap storage)": {
        "params": {
          "self": "Swap struct to read from"
        },
        "returns": {
          "_0": "the virtual price, scaled to precision of POOL_PRECISION_DECIMALS"
        }
      },
      "getY(uint256,uint8,uint8,uint256,uint256[])": {
        "params": {
          "preciseA": "precise form of amplification coefficient",
          "tokenIndexFrom": "index of FROM token",
          "tokenIndexTo": "index of TO token",
          "x": "the new total amount of FROM token",
          "xp": "balances of the tokens in the pool"
        },
        "returns": {
          "_0": "the amount of TO token that should remain in the pool"
        }
      },
      "getYD(uint256,uint8,uint256[],uint256)": {
        "details": "This is accomplished via solving the invariant iteratively. See the StableSwap paper and Curve.fi implementation for further details. x_1**2 + x1 * (sum' - (A*n**n - 1) * D / (A * n**n)) = D ** (n + 1) / (n ** (2 * n) * prod' * A) x_1**2 + b*x_1 = c x_1 = (x_1**2 + c) / (2*x_1 + b)",
        "params": {
          "a": "the amplification coefficient * n * (n - 1). See the StableSwap paper for details.",
          "d": "the stableswap invariant",
          "tokenIndex": "Index of token we are calculating for.",
          "xp": "a precision-adjusted set of pool balances. Array should be the same cardinality as the pool."
        },
        "returns": {
          "_0": "the price of the token, in the same precision as in xp"
        }
      },
      "rampA(SwapUtilsExternal.Swap storage,uint256,uint256)": {
        "params": {
          "futureA_": "the new A to ramp towards",
          "futureTime_": "timestamp when the new A should be reached",
          "self": "Swap struct to update"
        }
      },
      "removeLiquidity(SwapUtilsExternal.Swap storage,uint256,uint256[])": {
        "details": "Liquidity can always be removed, even when the pool is paused.",
        "params": {
          "amount": "the amount of LP tokens to burn",
          "minAmounts": "the minimum amounts of each token in the pool acceptable for this burn. Useful as a front-running mitigation",
          "self": "Swap struct to read from and write to"
        },
        "returns": {
          "_0": "amounts of tokens the user received"
        }
      },
      "removeLiquidityImbalance(SwapUtilsExternal.Swap storage,uint256[],uint256)": {
        "params": {
          "amounts": "how much of each token to withdraw",
          "maxBurnAmount": "the max LP token provider is willing to pay to remove liquidity. Useful as a front-running mitigation.",
          "self": "Swap struct to read from and write to"
        },
        "returns": {
          "_0": "actual amount of LP tokens burned in the withdrawal"
        }
      },
      "removeLiquidityOneToken(SwapUtilsExternal.Swap storage,uint256,uint8,uint256)": {
        "params": {
          "minAmount": "the minimum amount to withdraw, otherwise revert",
          "self": "Swap struct to read from and write to",
          "tokenAmount": "the amount of the lp tokens to burn",
          "tokenIndex": "the index of the token you want to receive"
        },
        "returns": {
          "_0": "amount chosen token that user received"
        }
      },
      "setAdminFee(SwapUtilsExternal.Swap storage,uint256)": {
        "details": "adminFee cannot be higher than 100% of the swap fee",
        "params": {
          "newAdminFee": "new admin fee to be applied on future transactions",
          "self": "Swap struct to update"
        }
      },
      "setSwapFee(SwapUtilsExternal.Swap storage,uint256)": {
        "details": "fee cannot be higher than 1% of each swap",
        "params": {
          "newSwapFee": "new swap fee to be applied on future transactions",
          "self": "Swap struct to update"
        }
      },
      "stopRampA(SwapUtilsExternal.Swap storage)": {
        "params": {
          "self": "Swap struct to update"
        }
      },
      "swap(SwapUtilsExternal.Swap storage,uint8,uint8,uint256,uint256)": {
        "params": {
          "dx": "the amount of tokens the user wants to sell",
          "minDy": "the min amount the user would like to receive, or revert.",
          "self": "Swap struct to read from and write to",
          "tokenIndexFrom": "the token the user wants to sell",
          "tokenIndexTo": "the token the user wants to buy"
        },
        "returns": {
          "_0": "amount of token user received on swap"
        }
      },
      "swapOut(SwapUtilsExternal.Swap storage,uint8,uint8,uint256,uint256)": {
        "params": {
          "dy": "the amount of tokens the user wants to buy",
          "maxDx": "the max amount the user would like to send.",
          "self": "Swap struct to read from and write to",
          "tokenIndexFrom": "the token the user wants to sell",
          "tokenIndexTo": "the token the user wants to buy"
        },
        "returns": {
          "_0": "amount of token user have to transfer on swap"
        }
      },
      "withdrawAdminFees(SwapUtilsExternal.Swap storage,address)": {
        "params": {
          "self": "Swap struct to withdraw fees from",
          "to": "Address to send the fees to"
        }
      }
    },
    "title": "SwapUtilsExternal library",
    "version": 1
  },
  "userdoc": {
    "kind": "user",
    "methods": {
      "addLiquidity(SwapUtilsExternal.Swap storage,uint256[],uint256)": {
        "notice": "Add liquidity to the pool"
      },
      "calculateRemoveLiquidity(SwapUtilsExternal.Swap storage,uint256)": {
        "notice": "A simple method to calculate amount of each underlying tokens that is returned upon burning given amount of LP tokens"
      },
      "calculateSwap(SwapUtilsExternal.Swap storage,uint8,uint8,uint256)": {
        "notice": "Externally calculates a swap between two tokens."
      },
      "calculateSwapInv(SwapUtilsExternal.Swap storage,uint8,uint8,uint256)": {
        "notice": "Externally calculates a swap between two tokens."
      },
      "calculateTokenAmount(SwapUtilsExternal.Swap storage,uint256[],bool)": {
        "notice": "A simple method to calculate prices from deposits or withdrawals, excluding fees but including slippage. This is helpful as an input into the various \"min\" parameters on calls to fight front-running"
      },
      "calculateWithdrawOneToken(SwapUtilsExternal.Swap storage,uint256,uint8)": {
        "notice": "Calculate the dy, the amount of selected token that user receives and the fee of withdrawing in one token"
      },
      "calculateWithdrawOneTokenDY(SwapUtilsExternal.Swap storage,uint8,uint256,uint256)": {
        "notice": "Calculate the dy of withdrawing in one token"
      },
      "getA(SwapUtilsExternal.Swap storage)": {
        "notice": "Return A, the amplification coefficient * n * (n - 1)"
      },
      "getAPrecise(SwapUtilsExternal.Swap storage)": {
        "notice": "Return A in its raw precision"
      },
      "getAdminBalance(SwapUtilsExternal.Swap storage,uint256)": {
        "notice": "return accumulated amount of admin fees of the token with given index"
      },
      "getD(uint256[],uint256)": {
        "notice": "Get D, the StableSwap invariant, based on a set of balances and a particular A."
      },
      "getVirtualPrice(SwapUtilsExternal.Swap storage)": {
        "notice": "Get the virtual price, to help calculate profit"
      },
      "getY(uint256,uint8,uint8,uint256,uint256[])": {
        "notice": "Calculate the new balances of the tokens given the indexes of the token that is swapped from (FROM) and the token that is swapped to (TO). This function is used as a helper function to calculate how much TO token the user should receive on swap."
      },
      "getYD(uint256,uint8,uint256[],uint256)": {
        "notice": "Calculate the price of a token in the pool with given precision-adjusted balances and a particular D."
      },
      "rampA(SwapUtilsExternal.Swap storage,uint256,uint256)": {
        "notice": "Start ramping up or down A parameter towards given futureA_ and futureTime_ Checks if the change is too rapid, and commits the new A value only when it falls under the limit range."
      },
      "removeLiquidity(SwapUtilsExternal.Swap storage,uint256,uint256[])": {
        "notice": "Burn LP tokens to remove liquidity from the pool."
      },
      "removeLiquidityImbalance(SwapUtilsExternal.Swap storage,uint256[],uint256)": {
        "notice": "Remove liquidity from the pool, weighted differently than the pool's current balances."
      },
      "removeLiquidityOneToken(SwapUtilsExternal.Swap storage,uint256,uint8,uint256)": {
        "notice": "Remove liquidity from the pool all in one token."
      },
      "setAdminFee(SwapUtilsExternal.Swap storage,uint256)": {
        "notice": "Sets the admin fee"
      },
      "setSwapFee(SwapUtilsExternal.Swap storage,uint256)": {
        "notice": "update the swap fee"
      },
      "stopRampA(SwapUtilsExternal.Swap storage)": {
        "notice": "Stops ramping A immediately. Once this function is called, rampA() cannot be called for another 24 hours"
      },
      "swap(SwapUtilsExternal.Swap storage,uint8,uint8,uint256,uint256)": {
        "notice": "swap two tokens in the pool"
      },
      "swapOut(SwapUtilsExternal.Swap storage,uint8,uint8,uint256,uint256)": {
        "notice": "swap two tokens in the pool"
      },
      "withdrawAdminFees(SwapUtilsExternal.Swap storage,address)": {
        "notice": "withdraw all admin fees to a given address"
      }
    },
    "notice": "A library to be used within Swap.sol. Contains functions responsible for custody and AMM functionalities.",
    "version": 1
  },
  "storageLayout": {
    "storage": [],
    "types": null
  }
}