{
  "address": "0xA6a55DD1a3665f171c37037a96422a42A954eEA6",
  "abi": [
    {
      "anonymous": false,
      "inputs": [
        {
          "indexed": false,
          "internalType": "bytes32",
          "name": "canonicalId",
          "type": "bytes32"
        },
        {
          "indexed": false,
          "internalType": "uint32",
          "name": "domain",
          "type": "uint32"
        },
        {
          "indexed": false,
          "internalType": "address",
          "name": "adoptedAsset",
          "type": "address"
        },
        {
          "indexed": false,
          "internalType": "address",
          "name": "supportedAsset",
          "type": "address"
        },
        {
          "indexed": false,
          "internalType": "address",
          "name": "caller",
          "type": "address"
        }
      ],
      "name": "AssetAdded",
      "type": "event"
    },
    {
      "anonymous": false,
      "inputs": [
        {
          "indexed": false,
          "internalType": "bool",
          "name": "renounced",
          "type": "bool"
        }
      ],
      "name": "AssetOwnershipRenounced",
      "type": "event"
    },
    {
      "anonymous": false,
      "inputs": [
        {
          "indexed": false,
          "internalType": "uint256",
          "name": "timestamp",
          "type": "uint256"
        }
      ],
      "name": "AssetOwnershipRenunciationProposed",
      "type": "event"
    },
    {
      "anonymous": false,
      "inputs": [
        {
          "indexed": false,
          "internalType": "bytes32",
          "name": "canonicalId",
          "type": "bytes32"
        },
        {
          "indexed": false,
          "internalType": "address",
          "name": "caller",
          "type": "address"
        }
      ],
      "name": "AssetRemoved",
      "type": "event"
    },
    {
      "anonymous": false,
      "inputs": [
        {
          "indexed": true,
          "internalType": "bytes32",
          "name": "transactionId",
          "type": "bytes32"
        },
        {
          "indexed": true,
          "internalType": "address",
          "name": "recipient",
          "type": "address"
        },
        {
          "indexed": true,
          "internalType": "address",
          "name": "router",
          "type": "address"
        },
        {
          "components": [
            {
              "internalType": "address",
              "name": "recipient",
              "type": "address"
            },
            {
              "internalType": "address",
              "name": "callTo",
              "type": "address"
            },
            {
              "internalType": "bytes",
              "name": "callData",
              "type": "bytes"
            },
            {
              "internalType": "uint32",
              "name": "originDomain",
              "type": "uint32"
            },
            {
              "internalType": "uint32",
              "name": "destinationDomain",
              "type": "uint32"
            }
          ],
          "indexed": false,
          "internalType": "struct TransactionManager.CallParams",
          "name": "params",
          "type": "tuple"
        },
        {
          "indexed": false,
          "internalType": "uint256",
          "name": "nonce",
          "type": "uint256"
        },
        {
          "indexed": false,
          "internalType": "address",
          "name": "localAsset",
          "type": "address"
        },
        {
          "indexed": false,
          "internalType": "address",
          "name": "transactingAsset",
          "type": "address"
        },
        {
          "indexed": false,
          "internalType": "uint256",
          "name": "localAmount",
          "type": "uint256"
        },
        {
          "indexed": false,
          "internalType": "uint256",
          "name": "transactingAmount",
          "type": "uint256"
        },
        {
          "indexed": false,
          "internalType": "address",
          "name": "caller",
          "type": "address"
        }
      ],
      "name": "Fulfilled",
      "type": "event"
    },
    {
      "anonymous": false,
      "inputs": [
        {
          "indexed": false,
          "internalType": "address",
          "name": "router",
          "type": "address"
        },
        {
          "indexed": false,
          "internalType": "address",
          "name": "local",
          "type": "address"
        },
        {
          "indexed": false,
          "internalType": "bytes32",
          "name": "canonicalId",
          "type": "bytes32"
        },
        {
          "indexed": false,
          "internalType": "uint256",
          "name": "amount",
          "type": "uint256"
        },
        {
          "indexed": false,
          "internalType": "address",
          "name": "caller",
          "type": "address"
        }
      ],
      "name": "LiquidityAdded",
      "type": "event"
    },
    {
      "anonymous": false,
      "inputs": [
        {
          "indexed": true,
          "internalType": "address",
          "name": "router",
          "type": "address"
        },
        {
          "indexed": false,
          "internalType": "address",
          "name": "recipient",
          "type": "address"
        },
        {
          "indexed": false,
          "internalType": "address",
          "name": "local",
          "type": "address"
        },
        {
          "indexed": false,
          "internalType": "uint256",
          "name": "amount",
          "type": "uint256"
        },
        {
          "indexed": false,
          "internalType": "address",
          "name": "caller",
          "type": "address"
        }
      ],
      "name": "LiquidityRemoved",
      "type": "event"
    },
    {
      "anonymous": false,
      "inputs": [
        {
          "indexed": true,
          "internalType": "address",
          "name": "proposedOwner",
          "type": "address"
        }
      ],
      "name": "OwnershipProposed",
      "type": "event"
    },
    {
      "anonymous": false,
      "inputs": [
        {
          "indexed": true,
          "internalType": "address",
          "name": "previousOwner",
          "type": "address"
        },
        {
          "indexed": true,
          "internalType": "address",
          "name": "newOwner",
          "type": "address"
        }
      ],
      "name": "OwnershipTransferred",
      "type": "event"
    },
    {
      "anonymous": false,
      "inputs": [
        {
          "indexed": true,
          "internalType": "bytes32",
          "name": "transactionId",
          "type": "bytes32"
        },
        {
          "indexed": true,
          "internalType": "address",
          "name": "recipient",
          "type": "address"
        },
        {
          "components": [
            {
              "internalType": "address",
              "name": "recipient",
              "type": "address"
            },
            {
              "internalType": "address",
              "name": "callTo",
              "type": "address"
            },
            {
              "internalType": "bytes",
              "name": "callData",
              "type": "bytes"
            },
            {
              "internalType": "uint32",
              "name": "originDomain",
              "type": "uint32"
            },
            {
              "internalType": "uint32",
              "name": "destinationDomain",
              "type": "uint32"
            }
          ],
          "indexed": false,
          "internalType": "struct TransactionManager.CallParams",
          "name": "params",
          "type": "tuple"
        },
        {
          "indexed": false,
          "internalType": "address",
          "name": "transactingAsset",
          "type": "address"
        },
        {
          "indexed": false,
          "internalType": "address",
          "name": "localAsset",
          "type": "address"
        },
        {
          "indexed": false,
          "internalType": "uint256",
          "name": "transactingAmount",
          "type": "uint256"
        },
        {
          "indexed": false,
          "internalType": "uint256",
          "name": "localAmount",
          "type": "uint256"
        },
        {
          "indexed": false,
          "internalType": "uint256",
          "name": "nonce",
          "type": "uint256"
        },
        {
          "indexed": false,
          "internalType": "address",
          "name": "caller",
          "type": "address"
        }
      ],
      "name": "Prepared",
      "type": "event"
    },
    {
      "anonymous": false,
      "inputs": [
        {
          "indexed": true,
          "internalType": "bytes32",
          "name": "transactionId",
          "type": "bytes32"
        },
        {
          "indexed": true,
          "internalType": "address",
          "name": "recipient",
          "type": "address"
        },
        {
          "indexed": true,
          "internalType": "address",
          "name": "router",
          "type": "address"
        },
        {
          "indexed": false,
          "internalType": "address",
          "name": "localAsset",
          "type": "address"
        },
        {
          "indexed": false,
          "internalType": "uint256",
          "name": "localAmount",
          "type": "uint256"
        },
        {
          "indexed": false,
          "internalType": "bytes32",
          "name": "externalHash",
          "type": "bytes32"
        },
        {
          "components": [
            {
              "internalType": "address",
              "name": "router",
              "type": "address"
            },
            {
              "internalType": "uint256",
              "name": "amount",
              "type": "uint256"
            },
            {
              "internalType": "bytes32",
              "name": "externalHash",
              "type": "bytes32"
            }
          ],
          "indexed": false,
          "internalType": "struct TransactionManager.FulfilledTransaction",
          "name": "fulfilled",
          "type": "tuple"
        },
        {
          "indexed": false,
          "internalType": "address",
          "name": "caller",
          "type": "address"
        }
      ],
      "name": "Reconciled",
      "type": "event"
    },
    {
      "anonymous": false,
      "inputs": [
        {
          "indexed": false,
          "internalType": "address",
          "name": "router",
          "type": "address"
        },
        {
          "indexed": false,
          "internalType": "address",
          "name": "caller",
          "type": "address"
        }
      ],
      "name": "RouterAdded",
      "type": "event"
    },
    {
      "anonymous": false,
      "inputs": [
        {
          "indexed": false,
          "internalType": "bool",
          "name": "renounced",
          "type": "bool"
        }
      ],
      "name": "RouterOwnershipRenounced",
      "type": "event"
    },
    {
      "anonymous": false,
      "inputs": [
        {
          "indexed": false,
          "internalType": "uint256",
          "name": "timestamp",
          "type": "uint256"
        }
      ],
      "name": "RouterOwnershipRenunciationProposed",
      "type": "event"
    },
    {
      "anonymous": false,
      "inputs": [
        {
          "indexed": false,
          "internalType": "address",
          "name": "router",
          "type": "address"
        },
        {
          "indexed": false,
          "internalType": "address",
          "name": "caller",
          "type": "address"
        }
      ],
      "name": "RouterRemoved",
      "type": "event"
    },
    {
      "anonymous": false,
      "inputs": [
        {
          "indexed": false,
          "internalType": "bytes32",
          "name": "canonicalId",
          "type": "bytes32"
        },
        {
          "indexed": false,
          "internalType": "uint32",
          "name": "domain",
          "type": "uint32"
        },
        {
          "indexed": false,
          "internalType": "address",
          "name": "swapPool",
          "type": "address"
        },
        {
          "indexed": false,
          "internalType": "address",
          "name": "caller",
          "type": "address"
        }
      ],
      "name": "StableSwapAdded",
      "type": "event"
    },
    {
      "inputs": [],
      "name": "acceptProposedOwner",
      "outputs": [],
      "stateMutability": "nonpayable",
      "type": "function"
    },
    {
      "inputs": [
        {
          "internalType": "uint256",
          "name": "amount",
          "type": "uint256"
        },
        {
          "internalType": "address",
          "name": "local",
          "type": "address"
        }
      ],
      "name": "addLiquidity",
      "outputs": [],
      "stateMutability": "payable",
      "type": "function"
    },
    {
      "inputs": [
        {
          "internalType": "uint256",
          "name": "amount",
          "type": "uint256"
        },
        {
          "internalType": "address",
          "name": "local",
          "type": "address"
        },
        {
          "internalType": "address",
          "name": "router",
          "type": "address"
        }
      ],
      "name": "addLiquidityFor",
      "outputs": [],
      "stateMutability": "payable",
      "type": "function"
    },
    {
      "inputs": [
        {
          "internalType": "address",
          "name": "router",
          "type": "address"
        }
      ],
      "name": "addRelayerFees",
      "outputs": [],
      "stateMutability": "payable",
      "type": "function"
    },
    {
      "inputs": [
        {
          "internalType": "address",
          "name": "router",
          "type": "address"
        }
      ],
      "name": "addRouter",
      "outputs": [],
      "stateMutability": "nonpayable",
      "type": "function"
    },
    {
      "inputs": [
        {
          "components": [
            {
              "internalType": "uint32",
              "name": "domain",
              "type": "uint32"
            },
            {
              "internalType": "bytes32",
              "name": "id",
              "type": "bytes32"
            }
          ],
          "internalType": "struct BridgeMessage.TokenId",
          "name": "canonical",
          "type": "tuple"
        },
        {
          "internalType": "address",
          "name": "stableSwapPool",
          "type": "address"
        }
      ],
      "name": "addStableSwapPool",
      "outputs": [],
      "stateMutability": "nonpayable",
      "type": "function"
    },
    {
      "inputs": [
        {
          "internalType": "address",
          "name": "",
          "type": "address"
        }
      ],
      "name": "adoptedToCanonical",
      "outputs": [
        {
          "internalType": "uint32",
          "name": "domain",
          "type": "uint32"
        },
        {
          "internalType": "bytes32",
          "name": "id",
          "type": "bytes32"
        }
      ],
      "stateMutability": "view",
      "type": "function"
    },
    {
      "inputs": [
        {
          "internalType": "bytes32",
          "name": "",
          "type": "bytes32"
        }
      ],
      "name": "adoptedToLocalPools",
      "outputs": [
        {
          "internalType": "contract IStableSwap",
          "name": "",
          "type": "address"
        }
      ],
      "stateMutability": "view",
      "type": "function"
    },
    {
      "inputs": [
        {
          "internalType": "bytes32",
          "name": "",
          "type": "bytes32"
        }
      ],
      "name": "approvedAssets",
      "outputs": [
        {
          "internalType": "bool",
          "name": "",
          "type": "bool"
        }
      ],
      "stateMutability": "view",
      "type": "function"
    },
    {
      "inputs": [
        {
          "internalType": "address",
          "name": "",
          "type": "address"
        }
      ],
      "name": "approvedRouters",
      "outputs": [
        {
          "internalType": "bool",
          "name": "",
          "type": "bool"
        }
      ],
      "stateMutability": "view",
      "type": "function"
    },
    {
      "inputs": [],
      "name": "assetOwnershipTimestamp",
      "outputs": [
        {
          "internalType": "uint256",
          "name": "",
          "type": "uint256"
        }
      ],
      "stateMutability": "view",
      "type": "function"
    },
    {
      "inputs": [],
      "name": "bridgeRouter",
      "outputs": [
        {
          "internalType": "contract BridgeRouter",
          "name": "",
          "type": "address"
        }
      ],
      "stateMutability": "view",
      "type": "function"
    },
    {
      "inputs": [
        {
          "internalType": "bytes32",
          "name": "",
          "type": "bytes32"
        }
      ],
      "name": "canonicalToAdopted",
      "outputs": [
        {
          "internalType": "address",
          "name": "",
          "type": "address"
        }
      ],
      "stateMutability": "view",
      "type": "function"
    },
    {
      "inputs": [],
      "name": "delay",
      "outputs": [
        {
          "internalType": "uint256",
          "name": "",
          "type": "uint256"
        }
      ],
      "stateMutability": "view",
      "type": "function"
    },
    {
      "inputs": [],
      "name": "domain",
      "outputs": [
        {
          "internalType": "uint256",
          "name": "",
          "type": "uint256"
        }
      ],
      "stateMutability": "view",
      "type": "function"
    },
    {
      "inputs": [
        {
          "components": [
            {
              "components": [
                {
                  "internalType": "address",
                  "name": "recipient",
                  "type": "address"
                },
                {
                  "internalType": "address",
                  "name": "callTo",
                  "type": "address"
                },
                {
                  "internalType": "bytes",
                  "name": "callData",
                  "type": "bytes"
                },
                {
                  "internalType": "uint32",
                  "name": "originDomain",
                  "type": "uint32"
                },
                {
                  "internalType": "uint32",
                  "name": "destinationDomain",
                  "type": "uint32"
                }
              ],
              "internalType": "struct TransactionManager.CallParams",
              "name": "params",
              "type": "tuple"
            },
            {
              "internalType": "address",
              "name": "local",
              "type": "address"
            },
            {
              "internalType": "address",
              "name": "router",
              "type": "address"
            },
            {
              "internalType": "uint32",
              "name": "feePercentage",
              "type": "uint32"
            },
            {
              "internalType": "uint256",
              "name": "nonce",
              "type": "uint256"
            },
            {
              "internalType": "uint256",
              "name": "amount",
              "type": "uint256"
            },
            {
              "internalType": "bytes",
              "name": "relayerSignature",
              "type": "bytes"
            }
          ],
          "internalType": "struct TransactionManager.FulfillArgs",
          "name": "_args",
          "type": "tuple"
        }
      ],
      "name": "fulfill",
      "outputs": [
        {
          "internalType": "bytes32",
          "name": "",
          "type": "bytes32"
        }
      ],
      "stateMutability": "nonpayable",
      "type": "function"
    },
    {
      "inputs": [
        {
          "internalType": "uint256",
          "name": "_domain",
          "type": "uint256"
        },
        {
          "internalType": "address payable",
          "name": "_bridgeRouter",
          "type": "address"
        },
        {
          "internalType": "address",
          "name": "_tokenRegistry",
          "type": "address"
        },
        {
          "internalType": "address",
          "name": "_wrappedNative",
          "type": "address"
        }
      ],
      "name": "initialize",
      "outputs": [],
      "stateMutability": "nonpayable",
      "type": "function"
    },
    {
      "inputs": [],
      "name": "interpreter",
      "outputs": [
        {
          "internalType": "contract IFulfillInterpreter",
          "name": "",
          "type": "address"
        }
      ],
      "stateMutability": "view",
      "type": "function"
    },
    {
      "inputs": [],
      "name": "isAssetOwnershipRenounced",
      "outputs": [
        {
          "internalType": "bool",
          "name": "",
          "type": "bool"
        }
      ],
      "stateMutability": "view",
      "type": "function"
    },
    {
      "inputs": [],
      "name": "isRouterOwnershipRenounced",
      "outputs": [
        {
          "internalType": "bool",
          "name": "",
          "type": "bool"
        }
      ],
      "stateMutability": "view",
      "type": "function"
    },
    {
      "inputs": [],
      "name": "nonce",
      "outputs": [
        {
          "internalType": "uint256",
          "name": "",
          "type": "uint256"
        }
      ],
      "stateMutability": "view",
      "type": "function"
    },
    {
      "inputs": [],
      "name": "owner",
      "outputs": [
        {
          "internalType": "address",
          "name": "",
          "type": "address"
        }
      ],
      "stateMutability": "view",
      "type": "function"
    },
    {
      "inputs": [
        {
          "components": [
            {
              "components": [
                {
                  "internalType": "address",
                  "name": "recipient",
                  "type": "address"
                },
                {
                  "internalType": "address",
                  "name": "callTo",
                  "type": "address"
                },
                {
                  "internalType": "bytes",
                  "name": "callData",
                  "type": "bytes"
                },
                {
                  "internalType": "uint32",
                  "name": "originDomain",
                  "type": "uint32"
                },
                {
                  "internalType": "uint32",
                  "name": "destinationDomain",
                  "type": "uint32"
                }
              ],
              "internalType": "struct TransactionManager.CallParams",
              "name": "params",
              "type": "tuple"
            },
            {
              "internalType": "address",
              "name": "transactingAssetId",
              "type": "address"
            },
            {
              "internalType": "uint256",
              "name": "amount",
              "type": "uint256"
            }
          ],
          "internalType": "struct TransactionManager.PrepareArgs",
          "name": "_args",
          "type": "tuple"
        }
      ],
      "name": "prepare",
      "outputs": [
        {
          "internalType": "bytes32",
          "name": "",
          "type": "bytes32"
        }
      ],
      "stateMutability": "payable",
      "type": "function"
    },
    {
      "inputs": [],
      "name": "proposeAssetOwnershipRenunciation",
      "outputs": [],
      "stateMutability": "nonpayable",
      "type": "function"
    },
    {
      "inputs": [
        {
          "internalType": "address",
          "name": "newlyProposed",
          "type": "address"
        }
      ],
      "name": "proposeNewOwner",
      "outputs": [],
      "stateMutability": "nonpayable",
      "type": "function"
    },
    {
      "inputs": [],
      "name": "proposeRouterOwnershipRenunciation",
      "outputs": [],
      "stateMutability": "nonpayable",
      "type": "function"
    },
    {
      "inputs": [],
      "name": "proposed",
      "outputs": [
        {
          "internalType": "address",
          "name": "",
          "type": "address"
        }
      ],
      "stateMutability": "view",
      "type": "function"
    },
    {
      "inputs": [],
      "name": "proposedTimestamp",
      "outputs": [
        {
          "internalType": "uint256",
          "name": "",
          "type": "uint256"
        }
      ],
      "stateMutability": "view",
      "type": "function"
    },
    {
      "inputs": [
        {
          "internalType": "bytes32",
          "name": "_id",
          "type": "bytes32"
        },
        {
          "internalType": "address",
          "name": "_local",
          "type": "address"
        },
        {
          "internalType": "address",
          "name": "_recipient",
          "type": "address"
        },
        {
          "internalType": "uint256",
          "name": "_amount",
          "type": "uint256"
        },
        {
          "internalType": "bytes32",
          "name": "_externalHash",
          "type": "bytes32"
        }
      ],
      "name": "reconcile",
      "outputs": [],
      "stateMutability": "payable",
      "type": "function"
    },
    {
      "inputs": [
        {
          "internalType": "bytes32",
          "name": "",
          "type": "bytes32"
        }
      ],
      "name": "reconciledTransactions",
      "outputs": [
        {
          "internalType": "bytes32",
          "name": "",
          "type": "bytes32"
        }
      ],
      "stateMutability": "view",
      "type": "function"
    },
    {
      "inputs": [
        {
          "internalType": "bytes32",
          "name": "canonicalId",
          "type": "bytes32"
        },
        {
          "internalType": "address",
          "name": "adoptedAssetId",
          "type": "address"
        }
      ],
      "name": "removeAssetId",
      "outputs": [],
      "stateMutability": "nonpayable",
      "type": "function"
    },
    {
      "inputs": [
        {
          "internalType": "uint256",
          "name": "amount",
          "type": "uint256"
        },
        {
          "internalType": "address",
          "name": "local",
          "type": "address"
        },
        {
          "internalType": "address payable",
          "name": "recipient",
          "type": "address"
        }
      ],
      "name": "removeLiquidity",
      "outputs": [],
      "stateMutability": "nonpayable",
      "type": "function"
    },
    {
      "inputs": [
        {
          "internalType": "uint256",
          "name": "amount",
          "type": "uint256"
        },
        {
          "internalType": "address payable",
          "name": "recipient",
          "type": "address"
        }
      ],
      "name": "removeRelayerFees",
      "outputs": [],
      "stateMutability": "nonpayable",
      "type": "function"
    },
    {
      "inputs": [
        {
          "internalType": "address",
          "name": "router",
          "type": "address"
        }
      ],
      "name": "removeRouter",
      "outputs": [],
      "stateMutability": "nonpayable",
      "type": "function"
    },
    {
      "inputs": [],
      "name": "renounceAssetOwnership",
      "outputs": [],
      "stateMutability": "nonpayable",
      "type": "function"
    },
    {
      "inputs": [],
      "name": "renounceOwnership",
      "outputs": [],
      "stateMutability": "nonpayable",
      "type": "function"
    },
    {
      "inputs": [],
      "name": "renounceRouterOwnership",
      "outputs": [],
      "stateMutability": "nonpayable",
      "type": "function"
    },
    {
      "inputs": [],
      "name": "renounced",
      "outputs": [
        {
          "internalType": "bool",
          "name": "",
          "type": "bool"
        }
      ],
      "stateMutability": "view",
      "type": "function"
    },
    {
      "inputs": [
        {
          "internalType": "bytes32",
          "name": "",
          "type": "bytes32"
        }
      ],
      "name": "routedTransactions",
      "outputs": [
        {
          "internalType": "address",
          "name": "router",
          "type": "address"
        },
        {
          "internalType": "uint256",
          "name": "amount",
          "type": "uint256"
        },
        {
          "internalType": "bytes32",
          "name": "externalHash",
          "type": "bytes32"
        }
      ],
      "stateMutability": "view",
      "type": "function"
    },
    {
      "inputs": [
        {
          "internalType": "bytes32",
          "name": "",
          "type": "bytes32"
        }
      ],
      "name": "routedTransactionsGas",
      "outputs": [
        {
          "internalType": "uint256",
          "name": "gasUsed",
          "type": "uint256"
        },
        {
          "internalType": "uint256",
          "name": "gasPrice",
          "type": "uint256"
        }
      ],
      "stateMutability": "view",
      "type": "function"
    },
    {
      "inputs": [
        {
          "internalType": "address",
          "name": "",
          "type": "address"
        },
        {
          "internalType": "address",
          "name": "",
          "type": "address"
        }
      ],
      "name": "routerBalances",
      "outputs": [
        {
          "internalType": "uint256",
          "name": "",
          "type": "uint256"
        }
      ],
      "stateMutability": "view",
      "type": "function"
    },
    {
      "inputs": [],
      "name": "routerOwnershipTimestamp",
      "outputs": [
        {
          "internalType": "uint256",
          "name": "",
          "type": "uint256"
        }
      ],
      "stateMutability": "view",
      "type": "function"
    },
    {
      "inputs": [
        {
          "internalType": "address",
          "name": "",
          "type": "address"
        }
      ],
      "name": "routerRelayerFees",
      "outputs": [
        {
          "internalType": "uint256",
          "name": "",
          "type": "uint256"
        }
      ],
      "stateMutability": "view",
      "type": "function"
    },
    {
      "inputs": [
        {
          "components": [
            {
              "internalType": "uint32",
              "name": "domain",
              "type": "uint32"
            },
            {
              "internalType": "bytes32",
              "name": "id",
              "type": "bytes32"
            }
          ],
          "internalType": "struct BridgeMessage.TokenId",
          "name": "canonical",
          "type": "tuple"
        },
        {
          "internalType": "address",
          "name": "adoptedAssetId",
          "type": "address"
        },
        {
          "internalType": "address",
          "name": "stableSwapPool",
          "type": "address"
        }
      ],
      "name": "setupAsset",
      "outputs": [],
      "stateMutability": "nonpayable",
      "type": "function"
    },
    {
      "inputs": [],
      "name": "tokenRegistry",
      "outputs": [
        {
          "internalType": "contract TokenRegistry",
          "name": "",
          "type": "address"
        }
      ],
      "stateMutability": "view",
      "type": "function"
    },
    {
      "inputs": [],
      "name": "wrapper",
      "outputs": [
        {
          "internalType": "contract IWrapped",
          "name": "",
          "type": "address"
        }
      ],
      "stateMutability": "view",
      "type": "function"
    },
    {
      "stateMutability": "payable",
      "type": "receive"
    }
  ],
  "args": [],
  "numDeployments": 1,
  "solcInputHash": "0f13a6ad32b921cea237c736edac6d30",
  "bytecode": "0x608060405234801561001057600080fd5b50615029806100206000396000f3fe608060405260043610620002b75760003560e01c80638741eac5116200016b578063c0c17baf11620000d1578063d232c2201162000084578063d232c2201462000902578063e070da091462000923578063e47602f7146200093a578063e8be0dfc1462000952578063ea7a904d146200096a578063f31abcc4146200098f57600080fd5b8063c0c17baf146200086c578063c1a049591462000884578063c2fb26a6146200089b578063c5b350df14620008b3578063c95f9d0e14620008cb578063d1851c9214620008e257600080fd5b8063ac210cc7116200012a578063ac210cc7146200077d578063affed0e0146200079f578063b1f8100d14620007b7578063bb7363cc14620007dc578063bd7e1e2e146200080d578063bff32da8146200084757600080fd5b80638741eac514620006be5780638ba4508514620006d65780638da5cb5b14620007245780639d23c4c714620007445780639e4394ea146200076657600080fd5b8063445b1e4b116200021d5780636a42b8f811620001d05780636a42b8f814620005ee5780636ae0b1541462000606578063715018a6146200062b578063754d1d5414620006435780637b298e27146200066857806383c68876146200068d57600080fd5b8063445b1e4b146200047c578063569d29e414620004b057806357bd0a3214620004d55780636006209114620005095780636414091814620005675780636a41633a14620005d757600080fd5b80632c1999d011620002765780632c1999d0146200037a5780633855b46714620003cd5780633a35cf1714620003e55780633cf52ffb146200040757806341258b5c146200041e57806341af5b52146200045a57600080fd5b80631506e46314620002c45780631eab28f914620002eb5780632004ef45146200031557806320774909146200033e57806324ca984e146200035557600080fd5b36620002bf57005b600080fd5b348015620002d157600080fd5b50620002e9620002e336600462003af7565b620009b4565b005b62000302620002fc36600462003b34565b620009fa565b6040519081526020015b60405180910390f35b3480156200032257600080fd5b506200032d62000caf565b60405190151581526020016200030c565b620002e96200034f36600462003b72565b62000cd2565b3480156200036257600080fd5b50620002e96200037436600462003b72565b62000d04565b3480156200038757600080fd5b50620003b46200039936600462003b92565b607a602052600090815260409020546001600160a01b031681565b6040516001600160a01b0390911681526020016200030c565b348015620003da57600080fd5b50620002e962000e28565b348015620003f257600080fd5b50606e54620003b4906001600160a01b031681565b3480156200041457600080fd5b5060355462000302565b3480156200042b57600080fd5b50620003026200043d36600462003bac565b607560209081526000928352604080842090915290825290205481565b3480156200046757600080fd5b50606b54620003b4906001600160a01b031681565b3480156200048957600080fd5b506200032d6200049b36600462003b72565b60776020526000908152604090205460ff1681565b348015620004bd57600080fd5b50620002e9620004cf36600462003bdf565b62000f30565b348015620004e257600080fd5b506200032d620004f436600462003b92565b60786020526000908152604090205460ff1681565b3480156200051657600080fd5b506200054a6200052836600462003b72565b6079602052600090815260409020805460019091015463ffffffff9091169082565b6040805163ffffffff90931683526020830191909152016200030c565b3480156200057457600080fd5b50620005b16200058636600462003b92565b6071602052600090815260409020805460018201546002909201546001600160a01b03909116919083565b604080516001600160a01b0390941684526020840192909252908201526060016200030c565b348015620005e457600080fd5b5060395462000302565b348015620005fb57600080fd5b5062093a8062000302565b3480156200061357600080fd5b50620002e96200062536600462003b72565b62000f7a565b3480156200063857600080fd5b50620002e962001099565b3480156200065057600080fd5b50620002e96200066236600462003c30565b620011ad565b3480156200067557600080fd5b50620002e96200068736600462003c8a565b62001322565b3480156200069a57600080fd5b5062000302620006ac36600462003b72565b60766020526000908152604090205481565b348015620006cb57600080fd5b50620002e962001355565b348015620006e357600080fd5b506200070e620006f536600462003b92565b6072602052600090815260409020805460019091015482565b604080519283526020830191909152016200030c565b3480156200073157600080fd5b506033546001600160a01b0316620003b4565b3480156200075157600080fd5b50606f54620003b4906001600160a01b031681565b620002e96200077736600462003cb2565b620013cd565b3480156200078a57600080fd5b50606c54620003b4906001600160a01b031681565b348015620007ac57600080fd5b5062000302606d5481565b348015620007c457600080fd5b50620002e9620007d636600462003b72565b6200157e565b348015620007e957600080fd5b5062000302620007fb36600462003b92565b60736020526000908152604090205481565b3480156200081a57600080fd5b50620003b46200082c36600462003b92565b6070602052600090815260409020546001600160a01b031681565b3480156200085457600080fd5b50620003026200086636600462003d09565b62001662565b3480156200087957600080fd5b50620002e9620019b6565b3480156200089157600080fd5b5060375462000302565b348015620008a857600080fd5b506200030260745481565b348015620008c057600080fd5b50620002e962001abc565b620002e9620008dc36600462003c8a565b62001b9e565b348015620008ef57600080fd5b506034546001600160a01b0316620003b4565b3480156200090f57600080fd5b506033546001600160a01b0316156200032d565b620002e96200093436600462003d47565b62001bde565b3480156200094757600080fd5b50620002e962001c1f565b3480156200095f57600080fd5b506200032d62001c97565b3480156200097757600080fd5b50620002e96200098936600462003c8a565b62001cb8565b3480156200099c57600080fd5b50620002e9620009ae36600462003d47565b62001df3565b6033546001600160a01b03163314620009ea5760405162461bcd60e51b8152600401620009e19062003d83565b60405180910390fd5b620009f6828262001f8d565b5050565b6000806079818062000a13604087016020880162003b72565b6001600160a01b03161462000a3a5762000a34604086016020870162003b72565b62000a47565b606c546001600160a01b03165b6001600160a01b03166001600160a01b0316815260200190815260200160002060010154141562000aae5760405162461bcd60e51b815260206004820152601060248201526f085cdd5c1c1bdc9d195917d85cdcd95d60821b6044820152606401620009e1565b60008062000ad262000ac7604086016020870162003b72565b85604001356200201c565b9150915060008062000ae584846200222c565b91509150600062000b21606d54607454604080516020808201949094528082019290925280518083038201815260609092019052805191012090565b606d8054919250600062000b358362003dba565b9091555062000c1f905062000b4b888062003dd8565b62000b5e9060a081019060800162003e1e565b62000b6a898062003dd8565b62000b7a90602081019062003b72565b84868562000c1962000b8d8e8062003dd8565b62000b9d90602081019062003b72565b62000ba98f8062003dd8565b62000bbc90604081019060200162003b72565b8f806000019062000bce919062003dd8565b62000bde90604081019062003e3e565b8080601f016020809104026020016040519081016040528093929190818152602001838380828437600092019190915250620023db92505050565b6200243c565b62000c2b878062003dd8565b62000c3b90602081019062003b72565b6001600160a01b0316817faa858d2a751f10ba408efe39c65b526420ce14aabd065785ab25f2ee860bc0db62000c728a8062003dd8565b888689896001606d5462000c87919062003e88565b3360405162000c9d979695949392919062003f99565b60405180910390a39695505050505050565b6033546000906001600160a01b0316158062000ccd575060365460ff165b905090565b6001600160a01b0381166000908152607660205260408120805434929062000cfc90849062003fed565b909155505050565b6033546001600160a01b0316331462000d315760405162461bcd60e51b8152600401620009e19062003d83565b6001600160a01b03811662000d735760405162461bcd60e51b81526020600482015260076024820152662341523a30303160c81b6044820152606401620009e1565b6001600160a01b03811660009081526077602052604090205460ff161562000dc85760405162461bcd60e51b815260206004820152600760248201526611a0a91d18199960c91b6044820152606401620009e1565b6001600160a01b038116600081815260776020908152604091829020805460ff19166001179055815192835233908301527fbc68405e644da2aaf25623ce2199da82c6dfd2e1de102b400eba6a091704d4f491015b60405180910390a150565b6033546001600160a01b0316331462000e555760405162461bcd60e51b8152600401620009e19062003d83565b60385460ff161562000e955760405162461bcd60e51b8152602060048201526008602482015267046a4829e746066760c31b6044820152606401620009e1565b60006039541162000ed45760405162461bcd60e51b81526020600482015260086024820152672352414f3a30333760c01b6044820152606401620009e1565b62093a806039544262000ee8919062003e88565b1162000f225760405162461bcd60e51b815260206004820152600860248201526702352414f3a3033360c41b6044820152606401620009e1565b62000f2e60016200250b565b565b6033546001600160a01b0316331462000f5d5760405162461bcd60e51b8152600401620009e19062003d83565b62000f69838362002552565b62000f75838262001f8d565b505050565b6033546001600160a01b0316331462000fa75760405162461bcd60e51b8152600401620009e19062003d83565b6001600160a01b03811662000fe95760405162461bcd60e51b81526020600482015260076024820152662352523a30303160c81b6044820152606401620009e1565b6001600160a01b03811660009081526077602052604090205460ff161515600114620010425760405162461bcd60e51b81526020600482015260076024820152662352523a30333360c81b6044820152606401620009e1565b6001600160a01b038116600081815260776020908152604091829020805460ff19169055815192835233908301527fbee3e974bb6a6f44f20096ede047c191eef60322e65e4ee4bd3392230a8716d5910162000e1d565b6033546001600160a01b03163314620010c65760405162461bcd60e51b8152600401620009e19062003d83565b600060355411620011045760405162461bcd60e51b815260206004820152600760248201526623524f3a30333760c81b6044820152606401620009e1565b62093a806035544262001118919062003e88565b11620011515760405162461bcd60e51b8152602060048201526007602482015266023524f3a3033360cc1b6044820152606401620009e1565b6034546001600160a01b031615620011965760405162461bcd60e51b815260206004820152600760248201526611a9279d18199b60c91b6044820152606401620009e1565b60345462000f2e906001600160a01b0316620026ab565b600054610100900460ff16620011ca5760005460ff1615620011ce565b303b155b620012335760405162461bcd60e51b815260206004820152602e60248201527f496e697469616c697a61626c653a20636f6e747261637420697320616c72656160448201526d191e481a5b9a5d1a585b1a5e995960921b6064820152608401620009e1565b600054610100900460ff1615801562001256576000805461ffff19166101011790555b6200126062002704565b6200126a62002738565b6000606d556074859055606b80546001600160a01b0319166001600160a01b03861617905560405130906200129f9062003aba565b6001600160a01b039091168152602001604051809103906000f080158015620012cc573d6000803e3d6000fd5b50606e80546001600160a01b03199081166001600160a01b0393841617909155606f80548216868416179055606c805490911691841691909117905580156200131b576000805461ff00191690555b5050505050565b33600090815260766020526040812080548492906200134390849062003e88565b90915550620009f6905081836200276c565b6033546001600160a01b03163314620013825760405162461bcd60e51b8152600401620009e19062003d83565b60385460ff1615620013c35760405162461bcd60e51b8152602060048201526009602482015268046a0829ea4746066760bb1b6044820152606401620009e1565b62000f2e6200288b565b606b546001600160a01b03163314620014135760405162461bcd60e51b81526020600482015260076024820152662162726964676560c81b6044820152606401620009e1565b600085815260716020908152604091829020825160608101845281546001600160a01b0316808252600183015493820193909352600290910154928101929092526200147c576200146785858585620028c7565b600087815260736020526040902055620014fe565b81816040015114620014bd5760405162461bcd60e51b815260206004820152600960248201526808595e1d195c9b985b60ba1b6044820152606401620009e1565b80516001600160a01b03908116600090815260756020908152604080832093891683529290529081208054859290620014f890849062003fed565b90915550505b8051604080516001600160a01b038881168252602080830188905282840187905285518216606084015285015160808301529184015160a08201523360c0820152918116919086169088907fcadf9cf98df75c21f161e3c701edaa004eb9756d7413b30b2c4cf359fc95d8de9060e00160405180910390a4505050505050565b6033546001600160a01b03163314620015ab5760405162461bcd60e51b8152600401620009e19062003d83565b6034546001600160a01b038281169116141580620015d057506001600160a01b038116155b620016095760405162461bcd60e51b815260206004820152600860248201526711a827279d18199b60c11b6044820152606401620009e1565b6033546001600160a01b0382811691161415620016545760405162461bcd60e51b8152602060048201526008602482015267046a09c9e746066760c31b6044820152606401620009e1565b6200165f8162002934565b50565b6000805a90506000620016c460808501356200167f868062003dd8565b6200169290608081019060600162003e1e565b63ffffffff16604080516020808201949094528082019290925280518083038201815260609092019052805191012090565b6000818152607360205260409020549091501562001718620016e7868062003dd8565b83620016fa6040890160208a0162003b72565b6200170c60608a0160408b0162003b72565b858a60a0013562002982565b6000806200173c620017316040890160208a0162003b72565b8860a0013562002b54565b909250905060006200174f888062003dd8565b6200176290604081019060200162003b72565b6001600160a01b03161415620017a0576200179a8162001783898062003dd8565b6200179390602081019062003b72565b8462002c27565b62001897565b606e54620017ba9082906001600160a01b03168462002c27565b606e546001600160a01b031663cf9a360485620017d88a8062003dd8565b620017eb90604081019060200162003b72565b84620017f88c8062003dd8565b6200180890602081019062003b72565b87620018158e8062003dd8565b6200182590604081019062003e3e565b6040518863ffffffff1660e01b815260040162001849979695949392919062004008565b6000604051808303816000875af115801562001869573d6000803e3d6000fd5b505050506040513d6000823e601f3d908101601f19168201604052620018939190810190620040af565b5050505b8215620018da5760405180604001604052805a620018b6908862003e88565b81523a60209182015260008681526072825260409020825181559101516001909101555b6200191b620018f06060890160408a0162003b72565b60808901803590620019069060608c0162003e1e565b6200191560c08c018c62003e3e565b62002cf9565b3362001928888062003dd8565b6200193890602081019062003b72565b6001600160a01b0316857ff5e90e5901380e22041aa14a3278bd65b49393e071767d2c405e015b075f86406200196f8b8062003dd8565b60808c01356200198660408e0160208f0162003b72565b878e60a001358a33604051620019a397969594939291906200418f565b60405180910390a4509195945050505050565b6033546001600160a01b03163314620019e35760405162461bcd60e51b8152600401620009e19062003d83565b60365460ff161562001a235760405162461bcd60e51b8152602060048201526008602482015267046a4a49e746066760c31b6044820152606401620009e1565b60006037541162001a625760405162461bcd60e51b81526020600482015260086024820152672352524f3a30333760c01b6044820152606401620009e1565b62093a806037544262001a76919062003e88565b1162001ab05760405162461bcd60e51b815260206004820152600860248201526702352524f3a3033360c41b6044820152606401620009e1565b62000f2e600162002e19565b6034546001600160a01b0316331462001b025760405162461bcd60e51b8152602060048201526007602482015266234f503a30333560c81b6044820152606401620009e1565b6034546033546001600160a01b039081169116141562001b505760405162461bcd60e51b815260206004820152600860248201526704682a09e746066760c31b6044820152606401620009e1565b62093a806035544262001b64919062003e88565b11620011965760405162461bcd60e51b815260206004820152600860248201526702341504f3a3033360c41b6044820152606401620009e1565b6002600154141562001bc45760405162461bcd60e51b8152600401620009e190620041e0565b600260015562001bd682823362002e60565b505060018055565b6002600154141562001c045760405162461bcd60e51b8152600401620009e190620041e0565b600260015562001c1683838362002e60565b50506001805550565b6033546001600160a01b0316331462001c4c5760405162461bcd60e51b8152600401620009e19062003d83565b60365460ff161562001c8d5760405162461bcd60e51b8152602060048201526009602482015268046a0a49ea4746066760bb1b6044820152606401620009e1565b62000f2e620030f3565b6033546000906001600160a01b0316158062000ccd57505060385460ff1690565b6033546001600160a01b0316331462001ce55760405162461bcd60e51b8152600401620009e19062003d83565b60008281526078602052604090205460ff16151560011462001d345760405162461bcd60e51b81526020600482015260076024820152662352413a30333360c81b6044820152606401620009e1565b6000828152607860209081526040808320805460ff191690556070909152812080546001600160a01b03191690556079906001600160a01b0383161562001d7c578262001d89565b606c546001600160a01b03165b6001600160a01b0316815260208082019290925260409081016000908120805463ffffffff1916815560010155805184815233928101929092527f9d181adb70e733f5235f839c1eed929407ea8526e41d01f49b9fef703e78dddf91015b60405180910390a15050565b6002600154141562001e195760405162461bcd60e51b8152600401620009e190620041e0565b60026001556001600160a01b03811662001e605760405162461bcd60e51b815260206004820152600760248201526623524c3a30303760c81b6044820152606401620009e1565b6000831162001e9c5760405162461bcd60e51b815260206004820152600760248201526611a9261d18181960c91b6044820152606401620009e1565b3360009081526075602090815260408083206001600160a01b03861684529091529020548381101562001efc5760405162461bcd60e51b8152602060048201526007602482015266046a498746060760cb1b6044820152606401620009e1565b3360009081526075602090815260408083206001600160a01b03871684529091529020848203905562001f3183838662002c27565b604080516001600160a01b03848116825285166020820152808201869052336060820181905291517f63b05915120b3d5a231e7c3625a411c15b2a79c35e3b1432a4f1ea95468cc6349181900360800190a25050600180555050565b6020828101803560008181526070909352604090922080546001600160a01b0319166001600160a01b0385161790557fd6f882d8fd8cc867bb57db3880bc4ad0b9b84689b57bba1b51feec7be397e3c2919062001feb908562003e1e565b6040805192835263ffffffff90911660208301526001600160a01b0384169082015233606082015260800162001de7565b600080826001600160a01b038516620020ea578334146200206a5760405162461bcd60e51b815260206004820152600760248201526608585b5bdd5b9d60ca1b6044820152606401620009e1565b606c60009054906101000a90046001600160a01b03166001600160a01b031663d0e30db0856040518263ffffffff1660e01b81526004016000604051808303818588803b158015620020bb57600080fd5b505af1158015620020d0573d6000803e3d6000fd5b5050606c546001600160a01b031697506200221f92505050565b6040516370a0823160e01b81523060048201526000906001600160a01b038716906370a0823190602401602060405180830381865afa15801562002132573d6000803e3d6000fd5b505050506040513d601f19601f8201168201806040525081019062002158919062004217565b90503415620021945760405162461bcd60e51b815260206004820152600760248201526611aa209d18181b60c91b6044820152606401620009e1565b620021a2863330886200312a565b6040516370a0823160e01b815230600482015281906001600160a01b038816906370a0823190602401602060405180830381865afa158015620021e9573d6000803e3d6000fd5b505050506040513d601f19601f820116820180604052508101906200220f919062004217565b6200221b919062003e88565b9150505b84925090505b9250929050565b6001600160a01b03821660009081526079602090815260408083208151808301909252805463ffffffff16825260010154918101829052829162002277578385925092505062002225565b606f5481516020830151604051631626cf1960e21b815263ffffffff909216600483015260248201526000916001600160a01b03169063589b3c6490604401602060405180830381865afa158015620022d4573d6000803e3d6000fd5b505050506040513d601f19601f82011682018060405250810190620022fa919062004231565b9050856001600160a01b0316816001600160a01b031614156200232557848693509350505062002225565b6020808301516000908152607090915260409020546001600160a01b0316620023508782886200319d565b60405163d5914c4560e01b8152600481018790526001600160a01b038881166024830152838116604483015282169063d5914c45906064016020604051808303816000875af1158015620023a8573d6000803e3d6000fd5b505050506040513d601f19601f82011682018060405250810190620023ce919062004217565b9791965090945050505050565b60006040518060600160405280856001600160a01b03168152602001846001600160a01b03168152602001838152506040516020016200241c91906200427f565b6040516020818303038152906040528051906020012090505b9392505050565b606b54620024569085906001600160a01b031685620032ba565b606b546001600160a01b031663adadc0dc8585896200247b8a6001600160a01b031690565b6040516001600160e01b031960e087901b1681526001600160a01b039094166004850152602484019290925263ffffffff16604483015260648201526001608482015260a4810185905260c4810184905260e401600060405180830381600087803b158015620024ea57600080fd5b505af1158015620024ff573d6000803e3d6000fd5b50505050505050505050565b6038805460ff191682151590811790915560006039556040519081527f868d89ead22a5d10f456845ac0014901d9af7203e71cf0892d70d9dc262c2fb99060200162000e1d565b60208083013560009081526078909152604090205460ff1615620025a35760405162461bcd60e51b815260206004820152600760248201526611a0a09d18199960c91b6044820152606401620009e1565b6020808301356000908152607882526040808220805460ff191660011790556001600160a01b03841682526079909252208290620025e28282620042bc565b50600090506001600160a01b03821615620025fe57816200260b565b606c546001600160a01b03165b602084810180356000818152607a909352604090922080546001600160a01b0319166001600160a01b0385161790559192507f42e28d2d3431c24c3f3b6e2623a169bd4a31dd1f66780c4499af54a28632779b916200266b908662003e1e565b6040805192835263ffffffff9190911660208301526001600160a01b038581168383015284166060830152336080830152519081900360a00190a1505050565b603380546001600160a01b038381166001600160a01b0319831681179093556000603581905560405191909216929183917f8be0079c531659141344cd1fd0a4f28419497f9722a3daafe3b4186f6b6457e09190a35050565b600054610100900460ff166200272e5760405162461bcd60e51b8152600401620009e190620042eb565b62000f2e62003373565b600054610100900460ff16620027625760405162461bcd60e51b8152600401620009e190620042eb565b62000f2e620033a8565b80471015620027be5760405162461bcd60e51b815260206004820152601d60248201527f416464726573733a20696e73756666696369656e742062616c616e63650000006044820152606401620009e1565b6000826001600160a01b03168260405160006040518083038185875af1925050503d80600081146200280d576040519150601f19603f3d011682016040523d82523d6000602084013e62002812565b606091505b505090508062000f755760405162461bcd60e51b815260206004820152603a60248201527f416464726573733a20756e61626c6520746f2073656e642076616c75652c207260448201527f6563697069656e74206d617920686176652072657665727465640000000000006064820152608401620009e1565b4260398190556040519081527fa78fdca214e4619ef34a695316d423f5b0d8274bc919d29733bf8f92ec8cbb7a906020015b60405180910390a1565b60408051608080820183528382526001600160a01b039687166020808401918252838501968752968816606093840190815284518089019690965290518816858501529451918401919091529251909416818301528351808203909201825260a001909252815191012090565b42603555603480546001600160a01b0319166001600160a01b0383169081179091556040517f6ab4d119f23076e8ad491bc65ce85f017fb0591dce08755ba8591059cc51737a90600090a250565b6000620029b862002997602089018962003b72565b620029a960408a0160208b0162003b72565b62000bde60408b018b62003e3e565b9050821562002aac576000868152607160205260409020546001600160a01b03161562002a115760405162461bcd60e51b815260206004820152600660248201526521656d70747960d01b6044820152606401620009e1565b6001600160a01b0380851660009081526075602090815260408083209389168352929052908120805484929062002a4a90849062003e88565b9091555050604080516060810182526001600160a01b038681168252602080830186815283850186815260008c8152607190935294909120925183546001600160a01b0319169216919091178255516001820155905160029091015562002b4b565b6000868152607360205260409020548062002af35760405162461bcd60e51b815260206004820152600660248201526508599bdd5b9960d21b6044820152606401620009e1565b62002b0f8662002b0760208b018b62003b72565b8585620028c7565b811462002b495760405162461bcd60e51b815260206004820152600760248201526621706172616d7360c81b6044820152606401620009e1565b505b50505050505050565b606f5460405163b9730eaf60e01b81526001600160a01b038481166004830152600092839283929091169063b9730eaf906024016040805180830381865afa15801562002ba5573d6000803e3d6000fd5b505050506040513d601f19601f8201168201806040525081019062002bcb919062004336565b6000818152607a60205260409020549092506001600160a01b039081169150861681141562002c0257848693509350505062002225565b6000828152607060205260409020546001600160a01b0316620023508782886200319d565b6001600160a01b03831662002c695760405162461bcd60e51b8152602060048201526007602482015266216e617469766560c81b6044820152606401620009e1565b606c546001600160a01b038481169116141562002cec57606c54604051632e1a7d4d60e01b8152600481018390526001600160a01b0390911690632e1a7d4d90602401600060405180830381600087803b15801562002cc757600080fd5b505af115801562002cdc573d6000803e3d6000fd5b5050505062000f7582826200276c565b62000f75838383620033d8565b336001600160a01b038616141562002d11576200131b565b62002d4f848460405160200162002d3892919091825263ffffffff16602082015260400190565b60405160208183030381529060405283836200340a565b6001600160a01b0316856001600160a01b03161462002d9c5760405162461bcd60e51b8152602060048201526008602482015267217274725f73696760c01b6044820152606401620009e1565b63ffffffff831662002dae576200131b565b6000606462002dc463ffffffff86164862004367565b62002dd0919062004389565b6001600160a01b03871660009081526076602052604081208054929350839290919062002dff90849062003e88565b9091555062002e11905033826200276c565b505050505050565b6036805460ff191682151590811790915560006037556040519081527f243ebbb2f905234bbf0556bb38e1f7c23b09ffd2e441a16e58b844eb2ab7a3979060200162000e1d565b6001600160a01b03811662002ea25760405162461bcd60e51b815260206004820152600760248201526623414c3a30303160c81b6044820152606401620009e1565b6000831162002ede5760405162461bcd60e51b815260206004820152600760248201526611a0a61d18181960c91b6044820152606401620009e1565b606f546000906001600160a01b039081169063f15376869085161562002f05578462002f12565b606c546001600160a01b03165b6040516001600160e01b031960e084901b1681526001600160a01b0390911660048201526024016040805180830381865afa15801562002f56573d6000803e3d6000fd5b505050506040513d601f19601f8201168201806040525081019062002f7c919062004336565b91505062002f8962000caf565b8062002fad57506001600160a01b03821660009081526077602052604090205460ff165b62002fe55760405162461bcd60e51b815260206004820152600760248201526623414c3a30303360c81b6044820152606401620009e1565b62002fef62001c97565b8062003009575060008181526078602052604090205460ff165b620030415760405162461bcd60e51b815260206004820152600760248201526608d0530e8c0c0d60ca1b6044820152606401620009e1565b6000806200305085876200201c565b6001600160a01b0380871660009081526075602090815260408083209386168352929052908120805493955091935083926200308e90849062003fed565b9091555050604080516001600160a01b03808716825284166020820152908101849052606081018290523360808201527fc30593c06911f2f2fc32a69df3a28e4a0b116d8d461b47a005ae4d28cd49282b9060a00160405180910390a1505050505050565b4260378190556040519081527fa52048c5f468d21a62e4644ac4db19bcaa1a20f0cf37d163ba49c7217d35feb890602001620028bd565b6040516001600160a01b0380851660248301528316604482015260648101829052620031979085906323b872dd60e01b906084015b60408051601f198184030181529190526020810180516001600160e01b03166001600160e01b031990931692909217909152620034b4565b50505050565b8015806200321b5750604051636eb1769f60e11b81523060048201526001600160a01b03838116602483015284169063dd62ed3e90604401602060405180830381865afa158015620031f3573d6000803e3d6000fd5b505050506040513d601f19601f8201168201806040525081019062003219919062004217565b155b620032885760405162461bcd60e51b815260206004820152603660248201527f5361666545524332303a20617070726f76652066726f6d206e6f6e2d7a65726f60448201527520746f206e6f6e2d7a65726f20616c6c6f77616e636560501b6064820152608401620009e1565b6040516001600160a01b03831660248201526044810182905262000f7590849063095ea7b360e01b906064016200315f565b604051636eb1769f60e11b81523060048201526001600160a01b038381166024830152600091839186169063dd62ed3e90604401602060405180830381865afa1580156200330c573d6000803e3d6000fd5b505050506040513d601f19601f8201168201806040525081019062003332919062004217565b6200333e919062003fed565b6040516001600160a01b0385166024820152604481018290529091506200319790859063095ea7b360e01b906064016200315f565b600054610100900460ff166200339d5760405162461bcd60e51b8152600401620009e190620042eb565b62000f2e33620026ab565b600054610100900460ff16620033d25760405162461bcd60e51b8152600401620009e190620042eb565b60018055565b6040516001600160a01b03831660248201526044810182905262000f7590849063a9059cbb60e01b906064016200315f565b6000620034ac6200346f85805190602001206040517f19457468657265756d205369676e6564204d6573736167653a0a3332000000006020820152603c8101829052600090605c01604051602081830303815290604052805190602001209050919050565b84848080601f0160208091040260200160405190810160405280939291908181526020018383808284376000920191909152506200358d92505050565b949350505050565b60006200350b826040518060400160405280602081526020017f5361666545524332303a206c6f772d6c6576656c2063616c6c206661696c6564815250856001600160a01b0316620035b59092919063ffffffff16565b80519091501562000f7557808060200190518101906200352c9190620043ac565b62000f755760405162461bcd60e51b815260206004820152602a60248201527f5361666545524332303a204552433230206f7065726174696f6e20646964206e6044820152691bdd081cdd58d8d9595960b21b6064820152608401620009e1565b60008060006200359e8585620035c6565b91509150620035ad816200363c565b509392505050565b6060620034ac84846000856200380f565b600080825160411415620036015760208301516040840151606085015160001a620035f4878285856200394a565b9450945050505062002225565b8251604014156200362f57602083015160408401516200362386838362003a3f565b93509350505062002225565b5060009050600262002225565b6000816004811115620036535762003653620043ca565b14156200365d5750565b6001816004811115620036745762003674620043ca565b1415620036c45760405162461bcd60e51b815260206004820152601860248201527f45434453413a20696e76616c6964207369676e617475726500000000000000006044820152606401620009e1565b6002816004811115620036db57620036db620043ca565b14156200372b5760405162461bcd60e51b815260206004820152601f60248201527f45434453413a20696e76616c6964207369676e6174757265206c656e677468006044820152606401620009e1565b6003816004811115620037425762003742620043ca565b14156200379d5760405162461bcd60e51b815260206004820152602260248201527f45434453413a20696e76616c6964207369676e6174757265202773272076616c604482015261756560f01b6064820152608401620009e1565b6004816004811115620037b457620037b4620043ca565b14156200165f5760405162461bcd60e51b815260206004820152602260248201527f45434453413a20696e76616c6964207369676e6174757265202776272076616c604482015261756560f01b6064820152608401620009e1565b606082471015620038725760405162461bcd60e51b815260206004820152602660248201527f416464726573733a20696e73756666696369656e742062616c616e636520666f6044820152651c8818d85b1b60d21b6064820152608401620009e1565b6001600160a01b0385163b620038cb5760405162461bcd60e51b815260206004820152601d60248201527f416464726573733a2063616c6c20746f206e6f6e2d636f6e74726163740000006044820152606401620009e1565b600080866001600160a01b03168587604051620038e99190620043e0565b60006040518083038185875af1925050503d806000811462003928576040519150601f19603f3d011682016040523d82523d6000602084013e6200392d565b606091505b50915091506200393f82828662003a7c565b979650505050505050565b6000807f7fffffffffffffffffffffffffffffff5d576e7357a4501ddfe92f46681b20a083111562003983575060009050600362003a36565b8460ff16601b141580156200399c57508460ff16601c14155b15620039af575060009050600462003a36565b6040805160008082526020820180845289905260ff881692820192909252606081018690526080810185905260019060a0016020604051602081039080840390855afa15801562003a04573d6000803e3d6000fd5b5050604051601f1901519150506001600160a01b03811662003a2f5760006001925092505062003a36565b9150600090505b94509492505050565b6000806001600160ff1b0383168162003a5e60ff86901c601b62003fed565b905062003a6e878288856200394a565b935093505050935093915050565b6060831562003a8d57508162002435565b82511562003a9e5782518084602001fd5b8160405162461bcd60e51b8152600401620009e19190620043f4565b610bea806200440a83390190565b60006040828403121562003adb57600080fd5b50919050565b6001600160a01b03811681146200165f57600080fd5b6000806060838503121562003b0b57600080fd5b62003b17848462003ac8565b9150604083013562003b298162003ae1565b809150509250929050565b60006020828403121562003b4757600080fd5b813567ffffffffffffffff81111562003b5f57600080fd5b8201606081850312156200243557600080fd5b60006020828403121562003b8557600080fd5b8135620024358162003ae1565b60006020828403121562003ba557600080fd5b5035919050565b6000806040838503121562003bc057600080fd5b823562003bcd8162003ae1565b9150602083013562003b298162003ae1565b60008060006080848603121562003bf557600080fd5b62003c01858562003ac8565b9250604084013562003c138162003ae1565b9150606084013562003c258162003ae1565b809150509250925092565b6000806000806080858703121562003c4757600080fd5b84359350602085013562003c5b8162003ae1565b9250604085013562003c6d8162003ae1565b9150606085013562003c7f8162003ae1565b939692955090935050565b6000806040838503121562003c9e57600080fd5b82359150602083013562003b298162003ae1565b600080600080600060a0868803121562003ccb57600080fd5b85359450602086013562003cdf8162003ae1565b9350604086013562003cf18162003ae1565b94979396509394606081013594506080013592915050565b60006020828403121562003d1c57600080fd5b813567ffffffffffffffff81111562003d3457600080fd5b820160e081850312156200243557600080fd5b60008060006060848603121562003d5d57600080fd5b83359250602084013562003d718162003ae1565b9150604084013562003c258162003ae1565b602080825260079082015266234f4f3a30323960c81b604082015260600190565b634e487b7160e01b600052601160045260246000fd5b600060001982141562003dd15762003dd162003da4565b5060010190565b60008235609e1983360301811262003def57600080fd5b9190910192915050565b63ffffffff811681146200165f57600080fd5b803562003e198162003df9565b919050565b60006020828403121562003e3157600080fd5b8135620024358162003df9565b6000808335601e1984360301811262003e5657600080fd5b83018035915067ffffffffffffffff82111562003e7257600080fd5b6020019150368190038213156200222557600080fd5b60008282101562003e9d5762003e9d62003da4565b500390565b81835281816020850137506000828201602090810191909152601f909101601f19169091010190565b6000813562003eda8162003ae1565b6001600160a01b03908116845260208301359062003ef88262003ae1565b166020840152604082013536839003601e1901811262003f1757600080fd5b8201803567ffffffffffffffff81111562003f3157600080fd5b80360384131562003f4157600080fd5b60a0604086015262003f5b60a08601826020850162003ea2565b91505062003f6c6060840162003e0c565b63ffffffff16606085015262003f856080840162003e0c565b63ffffffff81166080860152509392505050565b60e08152600062003fae60e083018a62003ecb565b6001600160a01b0398891660208401529688166040830152506060810194909452608084019290925260a083015290921660c090920191909152919050565b6000821982111562004003576200400362003da4565b500190565b8781526001600160a01b0387811660208301528681166040830152851660608201526080810184905260c060a082018190526000906200404c908301848662003ea2565b9998505050505050505050565b8051801515811462003e1957600080fd5b634e487b7160e01b600052604160045260246000fd5b60005b838110156200409d57818101518382015260200162004083565b83811115620031975750506000910152565b600080600060608486031215620040c557600080fd5b620040d08462004059565b9250620040e06020850162004059565b9150604084015167ffffffffffffffff80821115620040fe57600080fd5b818601915086601f8301126200411357600080fd5b8151818111156200412857620041286200406a565b604051601f8201601f19908116603f011681019083821181831017156200415357620041536200406a565b816040528281528960208487010111156200416d57600080fd5b6200418083602083016020880162004080565b80955050505050509250925092565b60e081526000620041a460e083018a62003ecb565b6020830198909852506001600160a01b0395861660408201529385166060850152608084019290925260a083015290911660c090910152919050565b6020808252601f908201527f5265656e7472616e637947756172643a207265656e7472616e742063616c6c00604082015260600190565b6000602082840312156200422a57600080fd5b5051919050565b6000602082840312156200424457600080fd5b8151620024358162003ae1565b600081518084526200426b81602086016020860162004080565b601f01601f19169290920160200192915050565b60208152600060018060a01b03808451166020840152806020850151166040840152506040830151606080840152620034ac608084018262004251565b8135620042c98162003df9565b63ffffffff811663ffffffff1983541617825550602082013560018201555050565b6020808252602b908201527f496e697469616c697a61626c653a20636f6e7472616374206973206e6f74206960408201526a6e697469616c697a696e6760a81b606082015260800190565b600080604083850312156200434a57600080fd5b8251620043578162003df9565b6020939093015192949293505050565b600081600019048311821515161562004384576200438462003da4565b500290565b600082620043a757634e487b7160e01b600052601260045260246000fd5b500490565b600060208284031215620043bf57600080fd5b620024358262004059565b634e487b7160e01b600052602160045260246000fd5b6000825162003def81846020870162004080565b6020815260006200243560208301846200425156fe60a060405234801561001057600080fd5b50604051610bea380380610bea83398101604081905261002f91610045565b60016000556001600160a01b0316608052610075565b60006020828403121561005757600080fd5b81516001600160a01b038116811461006e57600080fd5b9392505050565b608051610b55610095600039600081816048015260a90152610b556000f3fe6080604052600436106100295760003560e01c806396f32fb81461002e578063cf9a360414610077575b600080fd5b34801561003a57600080fd5b506040516001600160a01b037f00000000000000000000000000000000000000000000000000000000000000001681526020015b60405180910390f35b61008a6100853660046108b0565b610099565b60405161006e939291906109c6565b6000806060336001600160a01b037f000000000000000000000000000000000000000000000000000000000000000016146101065760405162461bcd60e51b8152602060048201526008602482015267234f544d3a30323760c01b60448201526064015b60405180910390fd5b6001600160a01b038816158061012157610121898b89610224565b600060606001600160a01b038c163b158015906101a9578c6001600160a01b03168461014e576000610150565b8a5b8a8a6040516101609291906109f2565b60006040518083038185875af1925050503d806000811461019d576040519150601f19603f3d011682016040523d82523d6000602084013e6101a2565b606091505b5090935091505b826101c9576101b98c8c8c610274565b836101c9576101c98c8e8c610298565b8d7f03196b76502b81bbf14393f8b5ed67dff323f1f86667b064820f1fdf293686a18e8e8e8e8e8e898b8a60405161020999989796959493929190610a02565b60405180910390a2919d919c509a5098505050505050505050565b6001600160a01b0383166102645760405162461bcd60e51b815260206004820152600760248201526608d2504e8c0ccd60ca1b60448201526064016100fd565b61026f8383836102e3565b505050565b6001600160a01b0383161561028e5761026f8383836103ce565b61026f82826103d9565b6001600160a01b0383166102d85760405162461bcd60e51b815260206004820152600760248201526608d1104e8c0ccd60ca1b60448201526064016100fd565b61026f8383836103e7565b604051636eb1769f60e11b81523060048201526001600160a01b038381166024830152600091839186169063dd62ed3e90604401602060405180830381865afa158015610334573d6000803e3d6000fd5b505050506040513d601f19601f820116820180604052508101906103589190610a8f565b6103629190610aa8565b6040516001600160a01b0385166024820152604481018290529091506103c890859063095ea7b360e01b906064015b60408051601f198184030181529190526020810180516001600160e01b03166001600160e01b0319909316929092179091526104fa565b50505050565b61026f8383836105cc565b6103e382826105fc565b5050565b604051636eb1769f60e11b81523060048201526001600160a01b0383811660248301526000919085169063dd62ed3e90604401602060405180830381865afa158015610437573d6000803e3d6000fd5b505050506040513d601f19601f8201168201806040525081019061045b9190610a8f565b9050818110156104bf5760405162461bcd60e51b815260206004820152602960248201527f5361666545524332303a2064656372656173656420616c6c6f77616e63652062604482015268656c6f77207a65726f60b81b60648201526084016100fd565b6040516001600160a01b038416602482015282820360448201819052906104f390869063095ea7b360e01b90606401610391565b5050505050565b600061054f826040518060400160405280602081526020017f5361666545524332303a206c6f772d6c6576656c2063616c6c206661696c6564815250856001600160a01b03166107159092919063ffffffff16565b80519091501561026f578080602001905181019061056d9190610ace565b61026f5760405162461bcd60e51b815260206004820152602a60248201527f5361666545524332303a204552433230206f7065726174696f6e20646964206e6044820152691bdd081cdd58d8d9595960b21b60648201526084016100fd565b6040516001600160a01b03831660248201526044810182905261026f90849063a9059cbb60e01b90606401610391565b8047101561064c5760405162461bcd60e51b815260206004820152601d60248201527f416464726573733a20696e73756666696369656e742062616c616e636500000060448201526064016100fd565b6000826001600160a01b03168260405160006040518083038185875af1925050503d8060008114610699576040519150601f19603f3d011682016040523d82523d6000602084013e61069e565b606091505b505090508061026f5760405162461bcd60e51b815260206004820152603a60248201527f416464726573733a20756e61626c6520746f2073656e642076616c75652c207260448201527f6563697069656e74206d6179206861766520726576657274656400000000000060648201526084016100fd565b6060610724848460008561072e565b90505b9392505050565b60608247101561078f5760405162461bcd60e51b815260206004820152602660248201527f416464726573733a20696e73756666696369656e742062616c616e636520666f6044820152651c8818d85b1b60d21b60648201526084016100fd565b6001600160a01b0385163b6107e65760405162461bcd60e51b815260206004820152601d60248201527f416464726573733a2063616c6c20746f206e6f6e2d636f6e747261637400000060448201526064016100fd565b600080866001600160a01b031685876040516108029190610af0565b60006040518083038185875af1925050503d806000811461083f576040519150601f19603f3d011682016040523d82523d6000602084013e610844565b606091505b509150915061085482828661085f565b979650505050505050565b6060831561086e575081610727565b82511561087e5782518084602001fd5b8160405162461bcd60e51b81526004016100fd9190610b0c565b6001600160a01b03811681146108ad57600080fd5b50565b600080600080600080600060c0888a0312156108cb57600080fd5b8735965060208801356108dd81610898565b955060408801356108ed81610898565b945060608801356108fd81610898565b93506080880135925060a088013567ffffffffffffffff8082111561092157600080fd5b818a0191508a601f83011261093557600080fd5b81358181111561094457600080fd5b8b602082850101111561095657600080fd5b60208301945080935050505092959891949750929550565b60005b83811015610989578181015183820152602001610971565b838111156103c85750506000910152565b600081518084526109b281602086016020860161096e565b601f01601f19169290920160200192915050565b831515815282151560208201526060604082015260006109e9606083018461099a565b95945050505050565b8183823760009101908152919050565b6001600160a01b038a811682528981166020830152881660408201526060810187905261010060808201819052810185905260006101208688828501376000838801820152601f8701601f19168301838103820160a0850152610a678183018861099a565b9250505083151560c0830152610a8160e083018415159052565b9a9950505050505050505050565b600060208284031215610aa157600080fd5b5051919050565b60008219821115610ac957634e487b7160e01b600052601160045260246000fd5b500190565b600060208284031215610ae057600080fd5b8151801515811461072757600080fd5b60008251610b0281846020870161096e565b9190910192915050565b602081526000610727602083018461099a56fea26469706673582212201e02c2ccece5754bc449014383bcf1f525dd0ccb14ec95f7a21edda9b52e205964736f6c634300080b0033a2646970667358221220d8ead213e6a330abe1d50afb9e17de7af8bb1ebdb06ea3dbe62bb95c685a322c64736f6c634300080b0033",
  "devdoc": {
    "events": {
      "AssetAdded(bytes32,uint32,address,address,address)": {
        "params": {
          "adoptedAsset": "- The address of the adopted (user-expected) asset",
          "caller": "- The account that called the function",
          "canonicalId": "- The canonical identifier of the token the local <> adopted AMM is for",
          "domain": "- The domain of the canonical token for the local <> adopted amm",
          "supportedAsset": "- The address of the whitelisted asset. If the native asset is to be whitelisted, the address of the wrapped version will be stored"
        }
      },
      "AssetRemoved(bytes32,address)": {
        "params": {
          "caller": "- The account that called the function",
          "canonicalId": "- The canonical identifier of the token removed"
        }
      },
      "Fulfilled(bytes32,address,address,(address,address,bytes,uint32,uint32),uint256,address,address,uint256,uint256,address)": {
        "details": "`fulfill` may be called when providing fast liquidity *or* when processing a reconciled transaction",
        "params": {
          "caller": "- The account that called the function",
          "localAmount": "- The amount that was provided by the bridge",
          "localAsset": "- The asset that was provided by the bridge",
          "nonce": "- The nonce of the origin domain contract. Used to create the unique identifier for the transaction",
          "params": "- The CallParams provided to the function",
          "recipient": "- The CallParams.recipient provided, created as indexed parameter",
          "router": "- The router that supplied fast liquidity, if applicable",
          "transactingAmount": "- The amount of transacting asset the recipient receives or the external call is executed with",
          "transactingAsset": "- The asset the recipient gets or the external call is executed with. Should be the adopted asset on that chain.",
          "transactionId": "- The unique identifier of the crosschain transaction"
        }
      },
      "LiquidityAdded(address,address,bytes32,uint256,address)": {
        "params": {
          "amount": "- The amount of liquidity added",
          "caller": "- The account that called the function",
          "local": "- The address of the token added (all liquidity held in local asset)",
          "router": "- The address of the router the funds were credited to"
        }
      },
      "LiquidityRemoved(address,address,address,uint256,address)": {
        "params": {
          "amount": "- The amount of liquidity withdrawn",
          "caller": "- The account that called the function",
          "local": "- The address of the token withdrawn",
          "recipient": "- The address the funds were withdrawn to",
          "router": "- The router you are removing liquidity from"
        }
      },
      "Prepared(bytes32,address,(address,address,bytes,uint32,uint32),address,address,uint256,uint256,uint256,address)": {
        "params": {
          "caller": "- The account that called the function",
          "localAmount": "- The amount sent over the bridge (initialAmount with slippage)",
          "localAsset": "- The asset sent over the bridge. Will be the local asset of nomad that corresponds to the provided `transactingAsset`",
          "nonce": "- The nonce of the origin domain contract. Used to create the unique identifier for the transaction",
          "params": "- The CallParams provided to the function",
          "recipient": "- The CallParams.recipient provided, created as indexed parameter",
          "transactingAmount": "- The amount of transacting asset the tx prepared with",
          "transactingAsset": "- The asset the caller sent with the transaction. Can be the adopted, canonical, or the representational asset",
          "transactionId": "- The unique identifier of the crosschain transaction"
        }
      },
      "Reconciled(bytes32,address,address,address,uint256,bytes32,(address,uint256,bytes32),address)": {
        "params": {
          "caller": "- The account that called the function",
          "externalHash": "- Hash of the `ExternalCall` passed through bridge",
          "fulfilled": "- Record of the `FulfilledTransaction` stored onchain if fast liquidity is provided",
          "localAmount": "- The amount that was provided by the bridge",
          "localAsset": "- The asset that was provided by the bridge",
          "recipient": "- The CallParams.recipient provided, created as indexed parameter",
          "router": "- The router that supplied fast liquidity, if applicable",
          "transactionId": "- The unique identifier of the crosschain transaction"
        }
      },
      "RouterAdded(address,address)": {
        "params": {
          "caller": "- The account that called the function",
          "router": "- The address of the added router"
        }
      },
      "RouterRemoved(address,address)": {
        "params": {
          "caller": "- The account that called the function",
          "router": "- The address of the removed router"
        }
      },
      "StableSwapAdded(bytes32,uint32,address,address)": {
        "params": {
          "caller": "- The account that called the function",
          "canonicalId": "- The canonical identifier of the token the local <> adopted AMM is for",
          "domain": "- The domain of the canonical token for the local <> adopted amm",
          "swapPool": "- The address of the AMM"
        }
      }
    },
    "kind": "dev",
    "methods": {
      "addLiquidity(uint256,address)": {
        "details": "The liquidity will be held in the local asset, which is the representation if you are *not* on the canonical domain, and the canonical asset otherwise.",
        "params": {
          "amount": "- The amount of liquidity to add for the router",
          "local": "- The address of the asset you're adding liquidity for. If adding liquidity of the native asset, routers may use `address(0)` or the wrapped asset"
        }
      },
      "addLiquidityFor(uint256,address,address)": {
        "details": "The liquidity will be held in the local asset, which is the representation if you are *not* on the canonical domain, and the canonical asset otherwise.",
        "params": {
          "amount": "- The amount of liquidity to add for the router",
          "local": "- The address of the asset you're adding liquidity for. If adding liquidity of the native asset, routers may use `address(0)` or the wrapped asset",
          "router": "The router you are adding liquidity on behalf of"
        }
      },
      "addRelayerFees(address)": {
        "params": {
          "router": "- The router to credit"
        }
      },
      "addRouter(address)": {
        "params": {
          "router": "Router address to add"
        }
      },
      "fulfill(((address,address,bytes,uint32,uint32),address,address,uint32,uint256,uint256,bytes))": {
        "details": "Will store the `FulfilledTransaction` if fast liquidity is provided, or assert the hash of the `ReconciledTransaction` when using bridge liquidity",
        "params": {
          "_args": "- The `FulfillArgs` for the transaction"
        },
        "returns": {
          "_0": "The transaction id of the crosschain transaction"
        }
      },
      "prepare(((address,address,bytes,uint32,uint32),address,uint256))": {
        "details": "This contract must have approval to transfer the adopted assets. They are then swapped to the local nomad assets via the configured AMM and sent over the bridge router.",
        "params": {
          "_args": "- The PrepareArgs"
        },
        "returns": {
          "_0": "The transaction id of the crosschain transaction"
        }
      },
      "reconcile(bytes32,address,address,uint256,bytes32)": {
        "details": "If fast liquidity was provided, the `amount` and `externalHash` are asserted against the `FulfilledTransaction` struct stored onchain. If no fast liqudity was provided, the hash of the `ReconciledTransaction` is stored onchain to enforce correctness when `fulfill` is called",
        "params": {
          "_externalHash": "- The hash of the `ExternalCall` passed through the bridge",
          "_id": "- The transaction id",
          "_local": "- The address of the asset delivered by the bridge",
          "_recipient": "- The address that will receive funds on the destination domain"
        }
      },
      "removeAssetId(bytes32,address)": {
        "params": {
          "adoptedAssetId": "- Corresponding adopted asset to remove",
          "canonicalId": "- Token id to remove"
        }
      },
      "removeLiquidity(uint256,address,address)": {
        "params": {
          "amount": "- The amount of liquidity to remove for the router",
          "local": "- The address of the asset you're removing liquidity from. If removing liquidity of the native asset, routers may use `address(0)` or the wrapped asset",
          "recipient": "The address that will receive the liquidity being removed"
        }
      },
      "removeRelayerFees(uint256,address)": {
        "details": "Must be called by the router you are decrementing relayer fees for",
        "params": {
          "amount": "- The amount of relayer fee to remove",
          "recipient": "- Who to send funds to"
        }
      },
      "removeRouter(address)": {
        "params": {
          "router": "Router address to remove"
        }
      },
      "setupAsset((uint32,bytes32),address,address)": {
        "details": "When whitelisting the canonical asset, all representational assets would be whitelisted as well. In the event you have a different adopted asset (i.e. PoS USDC on polygon), you should *not* whitelist the adopted asset. The stable swap pool address used should allow you to swap between the local <> adopted asset",
        "params": {
          "adoptedAssetId": "- The used asset id for this domain (i.e. PoS USDC for polygon)",
          "canonical": "- The canonical asset to add by id and domain. All representations will be whitelisted as well",
          "stableSwapPool": "- Address of the pool to swap adopted <> local asset"
        }
      }
    },
    "stateVariables": {
      "__gap": {
        "details": "This empty reserved space is put in place to allow future versions to add new variables without shifting down storage in the inheritance chain. See https://docs.openzeppelin.com/contracts/4.x/upgradeable#storage_gaps"
      },
      "adoptedToCanonical": {
        "details": "If the adopted asset is the native asset, the keyed address will be the wrapped asset address"
      },
      "adoptedToLocalPools": {
        "details": "Swaps for an adopted asset <> nomad local asset (i.e. POS USDC <> madUSDC on polygon)"
      },
      "approvedAssets": {
        "details": "Mapping is keyed on the canonical token identifier matching what is stored in the token registry"
      },
      "canonicalToAdopted": {
        "details": "If the adopted asset is the native asset, the stored address will be the wrapped asset address"
      },
      "domain": {
        "details": "Must match the nomad domain, which is distinct from the \"chainId\""
      },
      "nonce": {
        "details": "Assigned at first interaction (prepare on origin domain);"
      },
      "reconciledTransactions": {
        "details": "This information is stored onchain if the transaction has not been fulfilled at the time of reconcile"
      },
      "routedTransactions": {
        "details": "This information is stored onchain if fast liquidity is provided"
      },
      "routedTransactionsGas": {
        "details": "This informaion is stored onchain if fast liquidity is provided"
      },
      "routerBalances": {
        "details": "Routers should always store liquidity that they can expect to receive via the bridge on this domain (the nomad local asset)"
      },
      "routerRelayerFees": {
        "details": "Right now, routers only store native asset onchain. TODO: allow for approved relaying assets"
      },
      "wrapper": {
        "details": "Needed because the nomad only handles ERC20 assets"
      }
    },
    "version": 1
  },
  "userdoc": {
    "events": {
      "AssetAdded(bytes32,uint32,address,address,address)": {
        "notice": "Emitted when a new asset is added"
      },
      "AssetRemoved(bytes32,address)": {
        "notice": "Emitted when an asset is removed from whitelists"
      },
      "Fulfilled(bytes32,address,address,(address,address,bytes,uint32,uint32),uint256,address,address,uint256,uint256,address)": {
        "notice": "Emitted when `fulfill` is called on the destination chain"
      },
      "LiquidityAdded(address,address,bytes32,uint256,address)": {
        "notice": "Emitted when a router adds liquidity to the contract"
      },
      "LiquidityRemoved(address,address,address,uint256,address)": {
        "notice": "Emitted when a router withdraws liquidity from the contract"
      },
      "Prepared(bytes32,address,(address,address,bytes,uint32,uint32),address,address,uint256,uint256,uint256,address)": {
        "notice": "Emitted when `prepare` is called on the origin domain"
      },
      "Reconciled(bytes32,address,address,address,uint256,bytes32,(address,uint256,bytes32),address)": {
        "notice": "Emitted when `reconciled` is called by the bridge on the destination domain"
      },
      "RouterAdded(address,address)": {
        "notice": "Emitted when a new router is added"
      },
      "RouterRemoved(address,address)": {
        "notice": "Emitted when an existing router is removed"
      },
      "StableSwapAdded(bytes32,uint32,address,address)": {
        "notice": "Emitted when a new stable-swap AMM is added for the local <> adopted token"
      }
    },
    "kind": "user",
    "methods": {
      "acceptProposedOwner()": {
        "notice": "Transfers ownership of the contract to a new account (`newOwner`). Can only be called by the current owner."
      },
      "addLiquidity(uint256,address)": {
        "notice": "This is used by any router to increase their available liquidity for a given asset."
      },
      "addLiquidityFor(uint256,address,address)": {
        "notice": "This is used by anyone to increase a router's available liquidity for a given asset."
      },
      "addRelayerFees(address)": {
        "notice": "Used to add relayer fees in the native asset"
      },
      "addRouter(address)": {
        "notice": "Used to add routers that can transact crosschain"
      },
      "addStableSwapPool((uint32,bytes32),address)": {
        "notice": "Adds a stable swap pool for the local <> adopted asset."
      },
      "adoptedToCanonical(address)": {
        "notice": "Mapping of canonical to adopted assets on this domain"
      },
      "adoptedToLocalPools(bytes32)": {
        "notice": "Mapping holding the AMMs for swapping in and out of local assets"
      },
      "approvedAssets(bytes32)": {
        "notice": "Mapping of whitelisted assets on same domain as contract"
      },
      "approvedRouters(address)": {
        "notice": "Mapping of whitelisted router addresses."
      },
      "assetOwnershipTimestamp()": {
        "notice": "Returns the timestamp when asset ownership was last proposed to be renounced"
      },
      "bridgeRouter()": {
        "notice": "The local nomad bridge router"
      },
      "canonicalToAdopted(bytes32)": {
        "notice": "Mapping of adopted to canonical on this domain"
      },
      "delay()": {
        "notice": "Returns the delay period before a new owner can be accepted."
      },
      "domain()": {
        "notice": "The domain this contract exists on"
      },
      "fulfill(((address,address,bytes,uint32,uint32),address,address,uint32,uint256,uint256,bytes))": {
        "notice": "This function is called on the destination chain when the bridged asset should be swapped into the adopted asset and the external call executed. Can be used before reconcile (when providing fast liquidity) or after reconcile (when using liquidity from the bridge)"
      },
      "interpreter()": {
        "notice": "The external contract that will execute crosschain calldata"
      },
      "isAssetOwnershipRenounced()": {
        "notice": "Indicates if the ownership of the asset whitelist has been renounced"
      },
      "isRouterOwnershipRenounced()": {
        "notice": "Indicates if the ownership of the router whitelist has been renounced"
      },
      "nonce()": {
        "notice": "Nonce for the contract, used to keep unique transaction ids."
      },
      "owner()": {
        "notice": "Returns the address of the current owner."
      },
      "prepare(((address,address,bytes,uint32,uint32),address,uint256))": {
        "notice": "This function is called by a user who is looking to bridge funds"
      },
      "proposeAssetOwnershipRenunciation()": {
        "notice": "Indicates if the ownership of the asset whitelist has been renounced"
      },
      "proposeNewOwner(address)": {
        "notice": "Sets the timestamp for an owner to be proposed, and sets the newly proposed owner as step 1 in a 2-step process"
      },
      "proposeRouterOwnershipRenunciation()": {
        "notice": "Indicates if the ownership of the router whitelist has been renounced"
      },
      "proposed()": {
        "notice": "Returns the address of the proposed owner."
      },
      "proposedTimestamp()": {
        "notice": "Returns the address of the proposed owner."
      },
      "reconcile(bytes32,address,address,uint256,bytes32)": {
        "notice": "This function is called by the bridge router to pass through the information provided by the user on prepare."
      },
      "reconciledTransactions(bytes32)": {
        "notice": "Stores hash of the `ReconciledTransaction` (all information passed through bridge) on `reconcile`"
      },
      "removeAssetId(bytes32,address)": {
        "notice": "Used to remove assets from the whitelist"
      },
      "removeLiquidity(uint256,address,address)": {
        "notice": "This is used by any router to decrease their available liquidity for a given asset."
      },
      "removeRelayerFees(uint256,address)": {
        "notice": "Used to remove relayer fee in the native asset"
      },
      "removeRouter(address)": {
        "notice": "Used to remove routers that can transact crosschain"
      },
      "renounceAssetOwnership()": {
        "notice": "Indicates if the ownership of the asset whitelist has been renounced"
      },
      "renounceOwnership()": {
        "notice": "Renounces ownership of the contract after a delay"
      },
      "renounceRouterOwnership()": {
        "notice": "Indicates if the ownership of the asset whitelist has been renounced"
      },
      "renounced()": {
        "notice": "Indicates if the ownership has been renounced() by checking if current owner is address(0)"
      },
      "routedTransactions(bytes32)": {
        "notice": "Stores the transactionId => FulfilledTransaction mapping"
      },
      "routedTransactionsGas(bytes32)": {
        "notice": "Stores the transactionId => GasInfo mapping to track gas used on `fulfill`"
      },
      "routerBalances(address,address)": {
        "notice": "Mapping of router to available balance of an asset"
      },
      "routerOwnershipTimestamp()": {
        "notice": "Returns the timestamp when router ownership was last proposed to be renounced"
      },
      "routerRelayerFees(address)": {
        "notice": "Mapping of router to available relayer fee"
      },
      "setupAsset((uint32,bytes32),address,address)": {
        "notice": "Used to add supported assets. This is an admin only function"
      },
      "tokenRegistry()": {
        "notice": "The local nomad token registry"
      },
      "wrapper()": {
        "notice": "The address of the wrapper for the native asset on this domain"
      }
    },
    "version": 1
  },
  "storageLayout": {
    "storage": [
      {
        "astId": 130,
        "contract": "contracts/TransactionManager.sol:TransactionManager",
        "label": "_initialized",
        "offset": 0,
        "slot": "0",
        "type": "t_bool"
      },
      {
        "astId": 133,
        "contract": "contracts/TransactionManager.sol:TransactionManager",
        "label": "_initializing",
        "offset": 1,
        "slot": "0",
        "type": "t_bool"
      },
      {
        "astId": 322,
        "contract": "contracts/TransactionManager.sol:TransactionManager",
        "label": "_status",
        "offset": 0,
        "slot": "1",
        "type": "t_uint256"
      },
      {
        "astId": 366,
        "contract": "contracts/TransactionManager.sol:TransactionManager",
        "label": "__gap",
        "offset": 0,
        "slot": "2",
        "type": "t_array(t_uint256)49_storage"
      },
      {
        "astId": 6023,
        "contract": "contracts/TransactionManager.sol:TransactionManager",
        "label": "_owner",
        "offset": 0,
        "slot": "51",
        "type": "t_address"
      },
      {
        "astId": 6025,
        "contract": "contracts/TransactionManager.sol:TransactionManager",
        "label": "_proposed",
        "offset": 0,
        "slot": "52",
        "type": "t_address"
      },
      {
        "astId": 6027,
        "contract": "contracts/TransactionManager.sol:TransactionManager",
        "label": "_proposedOwnershipTimestamp",
        "offset": 0,
        "slot": "53",
        "type": "t_uint256"
      },
      {
        "astId": 6029,
        "contract": "contracts/TransactionManager.sol:TransactionManager",
        "label": "_routerOwnershipRenounced",
        "offset": 0,
        "slot": "54",
        "type": "t_bool"
      },
      {
        "astId": 6031,
        "contract": "contracts/TransactionManager.sol:TransactionManager",
        "label": "_routerOwnershipTimestamp",
        "offset": 0,
        "slot": "55",
        "type": "t_uint256"
      },
      {
        "astId": 6033,
        "contract": "contracts/TransactionManager.sol:TransactionManager",
        "label": "_assetOwnershipRenounced",
        "offset": 0,
        "slot": "56",
        "type": "t_bool"
      },
      {
        "astId": 6035,
        "contract": "contracts/TransactionManager.sol:TransactionManager",
        "label": "_assetOwnershipTimestamp",
        "offset": 0,
        "slot": "57",
        "type": "t_uint256"
      },
      {
        "astId": 6524,
        "contract": "contracts/TransactionManager.sol:TransactionManager",
        "label": "__gap",
        "offset": 0,
        "slot": "58",
        "type": "t_array(t_uint256)49_storage"
      },
      {
        "astId": 7533,
        "contract": "contracts/TransactionManager.sol:TransactionManager",
        "label": "bridgeRouter",
        "offset": 0,
        "slot": "107",
        "type": "t_contract(BridgeRouter)21701"
      },
      {
        "astId": 7537,
        "contract": "contracts/TransactionManager.sol:TransactionManager",
        "label": "wrapper",
        "offset": 0,
        "slot": "108",
        "type": "t_contract(IWrapped)9654"
      },
      {
        "astId": 7540,
        "contract": "contracts/TransactionManager.sol:TransactionManager",
        "label": "nonce",
        "offset": 0,
        "slot": "109",
        "type": "t_uint256"
      },
      {
        "astId": 7544,
        "contract": "contracts/TransactionManager.sol:TransactionManager",
        "label": "interpreter",
        "offset": 0,
        "slot": "110",
        "type": "t_contract(IFulfillInterpreter)9371"
      },
      {
        "astId": 7548,
        "contract": "contracts/TransactionManager.sol:TransactionManager",
        "label": "tokenRegistry",
        "offset": 0,
        "slot": "111",
        "type": "t_contract(TokenRegistry)23029"
      },
      {
        "astId": 7554,
        "contract": "contracts/TransactionManager.sol:TransactionManager",
        "label": "adoptedToLocalPools",
        "offset": 0,
        "slot": "112",
        "type": "t_mapping(t_bytes32,t_contract(IStableSwap)9643)"
      },
      {
        "astId": 7560,
        "contract": "contracts/TransactionManager.sol:TransactionManager",
        "label": "routedTransactions",
        "offset": 0,
        "slot": "113",
        "type": "t_mapping(t_bytes32,t_struct(FulfilledTransaction)7354_storage)"
      },
      {
        "astId": 7566,
        "contract": "contracts/TransactionManager.sol:TransactionManager",
        "label": "routedTransactionsGas",
        "offset": 0,
        "slot": "114",
        "type": "t_mapping(t_bytes32,t_struct(GasInfo)7359_storage)"
      },
      {
        "astId": 7571,
        "contract": "contracts/TransactionManager.sol:TransactionManager",
        "label": "reconciledTransactions",
        "offset": 0,
        "slot": "115",
        "type": "t_mapping(t_bytes32,t_bytes32)"
      },
      {
        "astId": 7574,
        "contract": "contracts/TransactionManager.sol:TransactionManager",
        "label": "domain",
        "offset": 0,
        "slot": "116",
        "type": "t_uint256"
      },
      {
        "astId": 7581,
        "contract": "contracts/TransactionManager.sol:TransactionManager",
        "label": "routerBalances",
        "offset": 0,
        "slot": "117",
        "type": "t_mapping(t_address,t_mapping(t_address,t_uint256))"
      },
      {
        "astId": 7586,
        "contract": "contracts/TransactionManager.sol:TransactionManager",
        "label": "routerRelayerFees",
        "offset": 0,
        "slot": "118",
        "type": "t_mapping(t_address,t_uint256)"
      },
      {
        "astId": 7591,
        "contract": "contracts/TransactionManager.sol:TransactionManager",
        "label": "approvedRouters",
        "offset": 0,
        "slot": "119",
        "type": "t_mapping(t_address,t_bool)"
      },
      {
        "astId": 7596,
        "contract": "contracts/TransactionManager.sol:TransactionManager",
        "label": "approvedAssets",
        "offset": 0,
        "slot": "120",
        "type": "t_mapping(t_bytes32,t_bool)"
      },
      {
        "astId": 7602,
        "contract": "contracts/TransactionManager.sol:TransactionManager",
        "label": "adoptedToCanonical",
        "offset": 0,
        "slot": "121",
        "type": "t_mapping(t_address,t_struct(TokenId)20318_storage)"
      },
      {
        "astId": 7607,
        "contract": "contracts/TransactionManager.sol:TransactionManager",
        "label": "canonicalToAdopted",
        "offset": 0,
        "slot": "122",
        "type": "t_mapping(t_bytes32,t_address)"
      },
      {
        "astId": 9147,
        "contract": "contracts/TransactionManager.sol:TransactionManager",
        "label": "__gap",
        "offset": 0,
        "slot": "123",
        "type": "t_array(t_uint256)49_storage"
      }
    ],
    "types": {
      "t_address": {
        "encoding": "inplace",
        "label": "address",
        "numberOfBytes": "20"
      },
      "t_array(t_uint256)49_storage": {
        "base": "t_uint256",
        "encoding": "inplace",
        "label": "uint256[49]",
        "numberOfBytes": "1568"
      },
      "t_bool": {
        "encoding": "inplace",
        "label": "bool",
        "numberOfBytes": "1"
      },
      "t_bytes32": {
        "encoding": "inplace",
        "label": "bytes32",
        "numberOfBytes": "32"
      },
      "t_contract(BridgeRouter)21701": {
        "encoding": "inplace",
        "label": "contract BridgeRouter",
        "numberOfBytes": "20"
      },
      "t_contract(IFulfillInterpreter)9371": {
        "encoding": "inplace",
        "label": "contract IFulfillInterpreter",
        "numberOfBytes": "20"
      },
      "t_contract(IStableSwap)9643": {
        "encoding": "inplace",
        "label": "contract IStableSwap",
        "numberOfBytes": "20"
      },
      "t_contract(IWrapped)9654": {
        "encoding": "inplace",
        "label": "contract IWrapped",
        "numberOfBytes": "20"
      },
      "t_contract(TokenRegistry)23029": {
        "encoding": "inplace",
        "label": "contract TokenRegistry",
        "numberOfBytes": "20"
      },
      "t_mapping(t_address,t_bool)": {
        "encoding": "mapping",
        "key": "t_address",
        "label": "mapping(address => bool)",
        "numberOfBytes": "32",
        "value": "t_bool"
      },
      "t_mapping(t_address,t_mapping(t_address,t_uint256))": {
        "encoding": "mapping",
        "key": "t_address",
        "label": "mapping(address => mapping(address => uint256))",
        "numberOfBytes": "32",
        "value": "t_mapping(t_address,t_uint256)"
      },
      "t_mapping(t_address,t_struct(TokenId)20318_storage)": {
        "encoding": "mapping",
        "key": "t_address",
        "label": "mapping(address => struct BridgeMessage.TokenId)",
        "numberOfBytes": "32",
        "value": "t_struct(TokenId)20318_storage"
      },
      "t_mapping(t_address,t_uint256)": {
        "encoding": "mapping",
        "key": "t_address",
        "label": "mapping(address => uint256)",
        "numberOfBytes": "32",
        "value": "t_uint256"
      },
      "t_mapping(t_bytes32,t_address)": {
        "encoding": "mapping",
        "key": "t_bytes32",
        "label": "mapping(bytes32 => address)",
        "numberOfBytes": "32",
        "value": "t_address"
      },
      "t_mapping(t_bytes32,t_bool)": {
        "encoding": "mapping",
        "key": "t_bytes32",
        "label": "mapping(bytes32 => bool)",
        "numberOfBytes": "32",
        "value": "t_bool"
      },
      "t_mapping(t_bytes32,t_bytes32)": {
        "encoding": "mapping",
        "key": "t_bytes32",
        "label": "mapping(bytes32 => bytes32)",
        "numberOfBytes": "32",
        "value": "t_bytes32"
      },
      "t_mapping(t_bytes32,t_contract(IStableSwap)9643)": {
        "encoding": "mapping",
        "key": "t_bytes32",
        "label": "mapping(bytes32 => contract IStableSwap)",
        "numberOfBytes": "32",
        "value": "t_contract(IStableSwap)9643"
      },
      "t_mapping(t_bytes32,t_struct(FulfilledTransaction)7354_storage)": {
        "encoding": "mapping",
        "key": "t_bytes32",
        "label": "mapping(bytes32 => struct TransactionManager.FulfilledTransaction)",
        "numberOfBytes": "32",
        "value": "t_struct(FulfilledTransaction)7354_storage"
      },
      "t_mapping(t_bytes32,t_struct(GasInfo)7359_storage)": {
        "encoding": "mapping",
        "key": "t_bytes32",
        "label": "mapping(bytes32 => struct TransactionManager.GasInfo)",
        "numberOfBytes": "32",
        "value": "t_struct(GasInfo)7359_storage"
      },
      "t_struct(FulfilledTransaction)7354_storage": {
        "encoding": "inplace",
        "label": "struct TransactionManager.FulfilledTransaction",
        "members": [
          {
            "astId": 7349,
            "contract": "contracts/TransactionManager.sol:TransactionManager",
            "label": "router",
            "offset": 0,
            "slot": "0",
            "type": "t_address"
          },
          {
            "astId": 7351,
            "contract": "contracts/TransactionManager.sol:TransactionManager",
            "label": "amount",
            "offset": 0,
            "slot": "1",
            "type": "t_uint256"
          },
          {
            "astId": 7353,
            "contract": "contracts/TransactionManager.sol:TransactionManager",
            "label": "externalHash",
            "offset": 0,
            "slot": "2",
            "type": "t_bytes32"
          }
        ],
        "numberOfBytes": "96"
      },
      "t_struct(GasInfo)7359_storage": {
        "encoding": "inplace",
        "label": "struct TransactionManager.GasInfo",
        "members": [
          {
            "astId": 7356,
            "contract": "contracts/TransactionManager.sol:TransactionManager",
            "label": "gasUsed",
            "offset": 0,
            "slot": "0",
            "type": "t_uint256"
          },
          {
            "astId": 7358,
            "contract": "contracts/TransactionManager.sol:TransactionManager",
            "label": "gasPrice",
            "offset": 0,
            "slot": "1",
            "type": "t_uint256"
          }
        ],
        "numberOfBytes": "64"
      },
      "t_struct(TokenId)20318_storage": {
        "encoding": "inplace",
        "label": "struct BridgeMessage.TokenId",
        "members": [
          {
            "astId": 20315,
            "contract": "contracts/TransactionManager.sol:TransactionManager",
            "label": "domain",
            "offset": 0,
            "slot": "0",
            "type": "t_uint32"
          },
          {
            "astId": 20317,
            "contract": "contracts/TransactionManager.sol:TransactionManager",
            "label": "id",
            "offset": 0,
            "slot": "1",
            "type": "t_bytes32"
          }
        ],
        "numberOfBytes": "64"
      },
      "t_uint256": {
        "encoding": "inplace",
        "label": "uint256",
        "numberOfBytes": "32"
      },
      "t_uint32": {
        "encoding": "inplace",
        "label": "uint32",
        "numberOfBytes": "4"
      }
    }
  }
}