{
  "address": "0xAB393124278d438F4b00496Df463C3b91Ba030AB",
  "abi": [
    {
      "inputs": [],
      "stateMutability": "nonpayable",
      "type": "constructor"
    },
    {
      "anonymous": false,
      "inputs": [
        {
          "indexed": true,
          "internalType": "address",
          "name": "previousOwner",
          "type": "address"
        },
        {
          "indexed": true,
          "internalType": "address",
          "name": "newOwner",
          "type": "address"
        }
      ],
      "name": "OwnershipTransferred",
      "type": "event"
    },
    {
      "anonymous": false,
      "inputs": [
        {
          "indexed": true,
          "internalType": "uint32",
          "name": "domain",
          "type": "uint32"
        },
        {
          "indexed": false,
          "internalType": "address",
          "name": "replica",
          "type": "address"
        }
      ],
      "name": "ReplicaEnrolled",
      "type": "event"
    },
    {
      "anonymous": false,
      "inputs": [
        {
          "indexed": true,
          "internalType": "uint32",
          "name": "domain",
          "type": "uint32"
        },
        {
          "indexed": false,
          "internalType": "address",
          "name": "replica",
          "type": "address"
        }
      ],
      "name": "ReplicaUnenrolled",
      "type": "event"
    },
    {
      "anonymous": false,
      "inputs": [
        {
          "indexed": true,
          "internalType": "uint32",
          "name": "domain",
          "type": "uint32"
        },
        {
          "indexed": false,
          "internalType": "address",
          "name": "watcher",
          "type": "address"
        },
        {
          "indexed": false,
          "internalType": "bool",
          "name": "access",
          "type": "bool"
        }
      ],
      "name": "WatcherPermissionSet",
      "type": "event"
    },
    {
      "inputs": [
        {
          "internalType": "uint32",
          "name": "",
          "type": "uint32"
        }
      ],
      "name": "domainToReplica",
      "outputs": [
        {
          "internalType": "address",
          "name": "",
          "type": "address"
        }
      ],
      "stateMutability": "view",
      "type": "function"
    },
    {
      "inputs": [],
      "name": "home",
      "outputs": [
        {
          "internalType": "contract Home",
          "name": "",
          "type": "address"
        }
      ],
      "stateMutability": "view",
      "type": "function"
    },
    {
      "inputs": [
        {
          "internalType": "address",
          "name": "_replica",
          "type": "address"
        }
      ],
      "name": "isReplica",
      "outputs": [
        {
          "internalType": "bool",
          "name": "",
          "type": "bool"
        }
      ],
      "stateMutability": "view",
      "type": "function"
    },
    {
      "inputs": [],
      "name": "localDomain",
      "outputs": [
        {
          "internalType": "uint32",
          "name": "",
          "type": "uint32"
        }
      ],
      "stateMutability": "view",
      "type": "function"
    },
    {
      "inputs": [],
      "name": "owner",
      "outputs": [
        {
          "internalType": "address",
          "name": "",
          "type": "address"
        }
      ],
      "stateMutability": "view",
      "type": "function"
    },
    {
      "inputs": [
        {
          "internalType": "address",
          "name": "_replica",
          "type": "address"
        },
        {
          "internalType": "uint32",
          "name": "_domain",
          "type": "uint32"
        }
      ],
      "name": "ownerEnrollReplica",
      "outputs": [],
      "stateMutability": "nonpayable",
      "type": "function"
    },
    {
      "inputs": [
        {
          "internalType": "address",
          "name": "_replica",
          "type": "address"
        }
      ],
      "name": "ownerUnenrollReplica",
      "outputs": [],
      "stateMutability": "nonpayable",
      "type": "function"
    },
    {
      "inputs": [],
      "name": "renounceOwnership",
      "outputs": [],
      "stateMutability": "nonpayable",
      "type": "function"
    },
    {
      "inputs": [
        {
          "internalType": "address",
          "name": "",
          "type": "address"
        }
      ],
      "name": "replicaToDomain",
      "outputs": [
        {
          "internalType": "uint32",
          "name": "",
          "type": "uint32"
        }
      ],
      "stateMutability": "view",
      "type": "function"
    },
    {
      "inputs": [
        {
          "internalType": "address",
          "name": "_home",
          "type": "address"
        }
      ],
      "name": "setHome",
      "outputs": [],
      "stateMutability": "nonpayable",
      "type": "function"
    },
    {
      "inputs": [
        {
          "internalType": "address",
          "name": "_watcher",
          "type": "address"
        },
        {
          "internalType": "uint32",
          "name": "_domain",
          "type": "uint32"
        },
        {
          "internalType": "bool",
          "name": "_access",
          "type": "bool"
        }
      ],
      "name": "setWatcherPermission",
      "outputs": [],
      "stateMutability": "nonpayable",
      "type": "function"
    },
    {
      "inputs": [
        {
          "internalType": "address",
          "name": "newOwner",
          "type": "address"
        }
      ],
      "name": "transferOwnership",
      "outputs": [],
      "stateMutability": "nonpayable",
      "type": "function"
    },
    {
      "inputs": [
        {
          "internalType": "uint32",
          "name": "_domain",
          "type": "uint32"
        },
        {
          "internalType": "bytes32",
          "name": "_updater",
          "type": "bytes32"
        },
        {
          "internalType": "bytes",
          "name": "_signature",
          "type": "bytes"
        }
      ],
      "name": "unenrollReplica",
      "outputs": [],
      "stateMutability": "nonpayable",
      "type": "function"
    },
    {
      "inputs": [
        {
          "internalType": "address",
          "name": "_watcher",
          "type": "address"
        },
        {
          "internalType": "uint32",
          "name": "_domain",
          "type": "uint32"
        }
      ],
      "name": "watcherPermission",
      "outputs": [
        {
          "internalType": "bool",
          "name": "",
          "type": "bool"
        }
      ],
      "stateMutability": "view",
      "type": "function"
    }
  ],
  "transactionHash": "0x4fab033904dc113d5319140b94afde70708f54889028ef1b4aea746c7c4aeb16",
  "args": [],
  "numDeployments": 1,
  "solcInputHash": "879c001a628e875f22b2a7c614db6d0d",
  "bytecode": "0x608060405234801561001057600080fd5b5061001a3361001f565b61006f565b600080546001600160a01b038381166001600160a01b0319831681178455604051919092169283917f8be0079c531659141344cd1fd0a4f28419497f9722a3daafe3b4186f6b6457e09190a35050565b610f838061007e6000396000f3fe608060405234801561001057600080fd5b50600436106100ea5760003560e01c80638f5d90e01161008c578063b9cff16211610066578063b9cff16214610234578063e0e7a9131461025d578063f2fde38b14610270578063f31faefb1461028357600080fd5b80638f5d90e0146101fb578063916c34701461020e5780639fa92f9d1461022157600080fd5b80636ef0f37f116100c85780636ef0f37f146101b1578063715018a6146101c65780638d3638f4146101ce5780638da5cb5b146101d657600080fd5b8063427ebef5146100ef5780635190bc53146101455780635f8b1dba14610176575b600080fd5b6101306100fd366004610cdc565b6001600160a01b038216600090815260046020908152604080832063ffffffff8516845290915290205460ff1692915050565b60405190151581526020015b60405180910390f35b610130610153366004610d15565b6001600160a01b031660009081526002602052604090205463ffffffff16151590565b61019c610184366004610d15565b60026020526000908152604090205463ffffffff1681565b60405163ffffffff909116815260200161013c565b6101c46101bf366004610d15565b610296565b005b6101c46102eb565b61019c610321565b6000546001600160a01b03165b6040516001600160a01b03909116815260200161013c565b6101c4610209366004610d15565b610394565b6101c461021c366004610d39565b6103ca565b6001546101e3906001600160a01b031681565b6101e3610242366004610d89565b6003602052600090815260409020546001600160a01b031681565b6101c461026b366004610dbc565b61046d565b6101c461027e366004610d15565b610614565b6101c4610291366004610cdc565b6106ac565b6000546001600160a01b031633146102c95760405162461bcd60e51b81526004016102c090610e89565b60405180910390fd5b600180546001600160a01b0319166001600160a01b0392909216919091179055565b6000546001600160a01b031633146103155760405162461bcd60e51b81526004016102c090610e89565b61031f6000610761565b565b6001546040805163234d8e3d60e21b815290516000926001600160a01b031691638d3638f49160048083019260209291908290030181865afa15801561036b573d6000803e3d6000fd5b505050506040513d601f19601f8201168201806040525081019061038f9190610ebe565b905090565b6000546001600160a01b031633146103be5760405162461bcd60e51b81526004016102c090610e89565b6103c7816107b1565b50565b6000546001600160a01b031633146103f45760405162461bcd60e51b81526004016102c090610e89565b6001600160a01b038316600081815260046020908152604080832063ffffffff871680855290835292819020805460ff191686151590811790915581519485529184019190915290917f517de16b526853f481451c5151e87484e1b251ec7d0302efa1019c2ece179c2c910160405180910390a2505050565b63ffffffff83166000908152600360205260409020546001600160a01b0316806104cb5760405162461bcd60e51b815260206004820152600f60248201526e217265706c6963612065786973747360881b60448201526064016102c0565b826001600160a01b0316816001600160a01b031663df034cd06040518163ffffffff1660e01b8152600401602060405180830381865afa158015610513573d6000803e3d6000fd5b505050506040513d601f19601f820116820180604052508101906105379190610edb565b6001600160a01b0316146105805760405162461bcd60e51b815260206004820152601060248201526f10b1bab93932b73a103ab83230ba32b960811b60448201526064016102c0565b6000610597856001600160a01b0384168686610830565b6001600160a01b038116600090815260046020908152604080832063ffffffff8a16845290915290205490915060ff166106045760405162461bcd60e51b815260206004820152600e60248201526d10bb30b634b2103bb0ba31b432b960911b60448201526064016102c0565b61060d826107b1565b5050505050565b6000546001600160a01b0316331461063e5760405162461bcd60e51b81526004016102c090610e89565b6001600160a01b0381166106a35760405162461bcd60e51b815260206004820152602660248201527f4f776e61626c653a206e6577206f776e657220697320746865207a65726f206160448201526564647265737360d01b60648201526084016102c0565b6103c781610761565b6000546001600160a01b031633146106d65760405162461bcd60e51b81526004016102c090610e89565b6106df826107b1565b6001600160a01b0382166000818152600260209081526040808320805463ffffffff191663ffffffff8716908117909155808452600383529281902080546001600160a01b031916851790555192835290917f8440df9bf8a8542634a9eb196da1735b786ed9aa2fc12b080ac34c5fa81a923491015b60405180910390a25050565b600080546001600160a01b038381166001600160a01b0319831681178455604051919092169283917f8be0079c531659141344cd1fd0a4f28419497f9722a3daafe3b4186f6b6457e09190a35050565b6001600160a01b0381166000818152600260208181526040808420805463ffffffff168086526003845282862080546001600160a01b031916905594869052928252825463ffffffff19169092559051928352909182917fce1533133fb359ace801d3176bbad25ace030d714aed35e38a6293c8a60b115b9101610755565b600080846001600160a01b03166345630b1a6040518163ffffffff1660e01b8152600401602060405180830381865afa158015610871573d6000803e3d6000fd5b505050506040513d601f19601f820116820180604052508101906108959190610ef8565b905060008187866040516020016108cc9392919092835260e09190911b6001600160e01b0319166020830152602482015260440190565b60408051808303601f1901815282825280516020918201207f19457468657265756d205369676e6564204d6573736167653a0a33320000000082850152603c8085019190915282518085039091018152605c909301909152815191012090506109358185610940565b979650505050505050565b600080600061094f8585610964565b9150915061095c816109d4565b509392505050565b60008082516041141561099b5760208301516040840151606085015160001a61098f87828585610b8f565b945094505050506109cd565b8251604014156109c557602083015160408401516109ba868383610c7c565b9350935050506109cd565b506000905060025b9250929050565b60008160048111156109e8576109e8610f11565b14156109f15750565b6001816004811115610a0557610a05610f11565b1415610a535760405162461bcd60e51b815260206004820152601860248201527f45434453413a20696e76616c6964207369676e6174757265000000000000000060448201526064016102c0565b6002816004811115610a6757610a67610f11565b1415610ab55760405162461bcd60e51b815260206004820152601f60248201527f45434453413a20696e76616c6964207369676e6174757265206c656e6774680060448201526064016102c0565b6003816004811115610ac957610ac9610f11565b1415610b225760405162461bcd60e51b815260206004820152602260248201527f45434453413a20696e76616c6964207369676e6174757265202773272076616c604482015261756560f01b60648201526084016102c0565b6004816004811115610b3657610b36610f11565b14156103c75760405162461bcd60e51b815260206004820152602260248201527f45434453413a20696e76616c6964207369676e6174757265202776272076616c604482015261756560f01b60648201526084016102c0565b6000807f7fffffffffffffffffffffffffffffff5d576e7357a4501ddfe92f46681b20a0831115610bc65750600090506003610c73565b8460ff16601b14158015610bde57508460ff16601c14155b15610bef5750600090506004610c73565b6040805160008082526020820180845289905260ff881692820192909252606081018690526080810185905260019060a0016020604051602081039080840390855afa158015610c43573d6000803e3d6000fd5b5050604051601f1901519150506001600160a01b038116610c6c57600060019250925050610c73565b9150600090505b94509492505050565b6000806001600160ff1b03831681610c9960ff86901c601b610f27565b9050610ca787828885610b8f565b935093505050935093915050565b6001600160a01b03811681146103c757600080fd5b63ffffffff811681146103c757600080fd5b60008060408385031215610cef57600080fd5b8235610cfa81610cb5565b91506020830135610d0a81610cca565b809150509250929050565b600060208284031215610d2757600080fd5b8135610d3281610cb5565b9392505050565b600080600060608486031215610d4e57600080fd5b8335610d5981610cb5565b92506020840135610d6981610cca565b915060408401358015158114610d7e57600080fd5b809150509250925092565b600060208284031215610d9b57600080fd5b8135610d3281610cca565b634e487b7160e01b600052604160045260246000fd5b600080600060608486031215610dd157600080fd5b8335610ddc81610cca565b925060208401359150604084013567ffffffffffffffff80821115610e0057600080fd5b818601915086601f830112610e1457600080fd5b813581811115610e2657610e26610da6565b604051601f8201601f19908116603f01168101908382118183101715610e4e57610e4e610da6565b81604052828152896020848701011115610e6757600080fd5b8260208601602083013760006020848301015280955050505050509250925092565b6020808252818101527f4f776e61626c653a2063616c6c6572206973206e6f7420746865206f776e6572604082015260600190565b600060208284031215610ed057600080fd5b8151610d3281610cca565b600060208284031215610eed57600080fd5b8151610d3281610cb5565b600060208284031215610f0a57600080fd5b5051919050565b634e487b7160e01b600052602160045260246000fd5b60008219821115610f4857634e487b7160e01b600052601160045260246000fd5b50019056fea2646970667358221220882ef991f30e186bd5d91e5c252bcf8a6ed2a9c63d3ea66a2d4ba7ee84ad549164736f6c634300080b0033",
  "devdoc": {
    "author": "Illusory Systems Inc.",
    "events": {
      "ReplicaEnrolled(uint32,address)": {
        "params": {
          "domain": "the remote domain of the Home contract for the Replica",
          "replica": "the address of the Replica"
        }
      },
      "ReplicaUnenrolled(uint32,address)": {
        "params": {
          "domain": "the remote domain of the Home contract for the Replica",
          "replica": "the address of the Replica"
        }
      },
      "WatcherPermissionSet(uint32,address,bool)": {
        "params": {
          "access": "TRUE if the Watcher was given permissions, FALSE if permissions were removed",
          "domain": "the remote domain of the Home contract for the Replica",
          "watcher": "the address of the Watcher"
        }
      }
    },
    "kind": "dev",
    "methods": {
      "isReplica(address)": {
        "params": {
          "_replica": "the replica to check for enrollment"
        },
        "returns": {
          "_0": "TRUE iff _replica is enrolled"
        }
      },
      "localDomain()": {
        "returns": {
          "_0": "local domain"
        }
      },
      "owner()": {
        "details": "Returns the address of the current owner."
      },
      "ownerEnrollReplica(address,uint32)": {
        "params": {
          "_domain": "the remote domain of the Home contract for the Replica",
          "_replica": "the address of the Replica"
        }
      },
      "ownerUnenrollReplica(address)": {
        "params": {
          "_replica": "the address of the Replica"
        }
      },
      "renounceOwnership()": {
        "details": "Leaves the contract without owner. It will not be possible to call `onlyOwner` functions anymore. Can only be called by the current owner. NOTE: Renouncing ownership will leave the contract without an owner, thereby removing any functionality that is only available to the owner."
      },
      "setHome(address)": {
        "params": {
          "_home": "the address of the local Home contract"
        }
      },
      "setWatcherPermission(address,uint32,bool)": {
        "params": {
          "_access": "TRUE to give the Watcher permissions, FALSE to remove permissions",
          "_domain": "the remote domain of the Home contract for the Replica",
          "_watcher": "the address of the Watcher"
        }
      },
      "transferOwnership(address)": {
        "details": "Transfers ownership of the contract to a new account (`newOwner`). Can only be called by the current owner."
      },
      "unenrollReplica(uint32,bytes32,bytes)": {
        "details": "in the future, if fraud occurs on the Home contract, the Watcher will submit their signature directly to the Home and it can be relayed to all remote chains to un-enroll the Replicas",
        "params": {
          "_domain": "the remote domain of the Home contract for the Replica",
          "_signature": "signature of watcher on (domain, replica address, updater address)",
          "_updater": "the address of the Updater for the Home contract (also stored on Replica)"
        }
      },
      "watcherPermission(address,uint32)": {
        "params": {
          "_domain": "the domain to check for watcher permissions",
          "_watcher": "the address of the watcher"
        },
        "returns": {
          "_0": "TRUE iff _watcher has permission to un-enroll replicas on _domain"
        }
      }
    },
    "title": "XAppConnectionManager",
    "version": 1
  },
  "userdoc": {
    "events": {
      "ReplicaEnrolled(uint32,address)": {
        "notice": "Emitted when a new Replica is enrolled / added"
      },
      "ReplicaUnenrolled(uint32,address)": {
        "notice": "Emitted when a new Replica is un-enrolled / removed"
      },
      "WatcherPermissionSet(uint32,address,bool)": {
        "notice": "Emitted when Watcher permissions are changed"
      }
    },
    "kind": "user",
    "methods": {
      "isReplica(address)": {
        "notice": "Check whether _replica is enrolled"
      },
      "localDomain()": {
        "notice": "Query local domain from Home"
      },
      "ownerEnrollReplica(address,uint32)": {
        "notice": "Allow Owner to enroll Replica contract"
      },
      "ownerUnenrollReplica(address)": {
        "notice": "Allow Owner to un-enroll Replica contract"
      },
      "setHome(address)": {
        "notice": "Set the address of the local Home contract"
      },
      "setWatcherPermission(address,uint32,bool)": {
        "notice": "Allow Owner to set Watcher permissions for a Replica"
      },
      "unenrollReplica(uint32,bytes32,bytes)": {
        "notice": "Un-Enroll a replica contract in the case that fraud was detected on the Home"
      },
      "watcherPermission(address,uint32)": {
        "notice": "Get access permissions for the watcher on the domain"
      }
    },
    "notice": "Manages a registry of local Replica contracts for remote Home domains. Accepts Watcher signatures to un-enroll Replicas attached to fraudulent remote Homes",
    "version": 1
  },
  "storageLayout": {
    "storage": [
      {
        "astId": 2586,
        "contract": "contracts/nomad-core/contracts/XAppConnectionManager.sol:XAppConnectionManager",
        "label": "_owner",
        "offset": 0,
        "slot": "0",
        "type": "t_address"
      },
      {
        "astId": 16601,
        "contract": "contracts/nomad-core/contracts/XAppConnectionManager.sol:XAppConnectionManager",
        "label": "home",
        "offset": 0,
        "slot": "1",
        "type": "t_contract(Home)15560"
      },
      {
        "astId": 16605,
        "contract": "contracts/nomad-core/contracts/XAppConnectionManager.sol:XAppConnectionManager",
        "label": "replicaToDomain",
        "offset": 0,
        "slot": "2",
        "type": "t_mapping(t_address,t_uint32)"
      },
      {
        "astId": 16609,
        "contract": "contracts/nomad-core/contracts/XAppConnectionManager.sol:XAppConnectionManager",
        "label": "domainToReplica",
        "offset": 0,
        "slot": "3",
        "type": "t_mapping(t_uint32,t_address)"
      },
      {
        "astId": 16615,
        "contract": "contracts/nomad-core/contracts/XAppConnectionManager.sol:XAppConnectionManager",
        "label": "watcherPermissions",
        "offset": 0,
        "slot": "4",
        "type": "t_mapping(t_address,t_mapping(t_uint32,t_bool))"
      }
    ],
    "types": {
      "t_address": {
        "encoding": "inplace",
        "label": "address",
        "numberOfBytes": "20"
      },
      "t_bool": {
        "encoding": "inplace",
        "label": "bool",
        "numberOfBytes": "1"
      },
      "t_contract(Home)15560": {
        "encoding": "inplace",
        "label": "contract Home",
        "numberOfBytes": "20"
      },
      "t_mapping(t_address,t_mapping(t_uint32,t_bool))": {
        "encoding": "mapping",
        "key": "t_address",
        "label": "mapping(address => mapping(uint32 => bool))",
        "numberOfBytes": "32",
        "value": "t_mapping(t_uint32,t_bool)"
      },
      "t_mapping(t_address,t_uint32)": {
        "encoding": "mapping",
        "key": "t_address",
        "label": "mapping(address => uint32)",
        "numberOfBytes": "32",
        "value": "t_uint32"
      },
      "t_mapping(t_uint32,t_address)": {
        "encoding": "mapping",
        "key": "t_uint32",
        "label": "mapping(uint32 => address)",
        "numberOfBytes": "32",
        "value": "t_address"
      },
      "t_mapping(t_uint32,t_bool)": {
        "encoding": "mapping",
        "key": "t_uint32",
        "label": "mapping(uint32 => bool)",
        "numberOfBytes": "32",
        "value": "t_bool"
      },
      "t_uint32": {
        "encoding": "inplace",
        "label": "uint32",
        "numberOfBytes": "4"
      }
    }
  }
}