{
  "address": "0x223e62d3a2C528FFbDE81430A45c0bD30990cF0F",
  "abi": [
    {
      "inputs": [
        {
          "components": [
            {
              "internalType": "uint32",
              "name": "domain",
              "type": "uint32"
            },
            {
              "internalType": "uint32",
              "name": "mirrorDomain",
              "type": "uint32"
            },
            {
              "internalType": "address",
              "name": "amb",
              "type": "address"
            },
            {
              "internalType": "address",
              "name": "rootManager",
              "type": "address"
            },
            {
              "internalType": "address",
              "name": "mirrorConnector",
              "type": "address"
            },
            {
              "internalType": "uint256",
              "name": "processGas",
              "type": "uint256"
            },
            {
              "internalType": "uint256",
              "name": "reserveGas",
              "type": "uint256"
            },
            {
              "internalType": "uint256",
              "name": "delayBlocks",
              "type": "uint256"
            },
            {
              "internalType": "address",
              "name": "merkle",
              "type": "address"
            },
            {
              "internalType": "address",
              "name": "watcherManager",
              "type": "address"
            },
            {
              "internalType": "uint256",
              "name": "minDisputeBlocks",
              "type": "uint256"
            },
            {
              "internalType": "uint256",
              "name": "disputeBlocks",
              "type": "uint256"
            }
          ],
          "internalType": "struct SpokeConnector.ConstructorParams",
          "name": "_baseSpokeParams",
          "type": "tuple"
        },
        {
          "internalType": "uint256",
          "name": "_gasCap",
          "type": "uint256"
        }
      ],
      "stateMutability": "nonpayable",
      "type": "constructor"
    },
    {
      "inputs": [],
      "name": "Connector__processMessage_notUsed",
      "type": "error"
    },
    {
      "inputs": [],
      "name": "ProposedOwnable__onlyOwner_notOwner",
      "type": "error"
    },
    {
      "inputs": [],
      "name": "ProposedOwnable__onlyProposed_notProposedOwner",
      "type": "error"
    },
    {
      "inputs": [],
      "name": "ProposedOwnable__ownershipDelayElapsed_delayNotElapsed",
      "type": "error"
    },
    {
      "inputs": [],
      "name": "ProposedOwnable__proposeNewOwner_invalidProposal",
      "type": "error"
    },
    {
      "inputs": [],
      "name": "ProposedOwnable__proposeNewOwner_noOwnershipChange",
      "type": "error"
    },
    {
      "inputs": [],
      "name": "ProposedOwnable__renounceOwnership_invalidProposal",
      "type": "error"
    },
    {
      "inputs": [],
      "name": "ProposedOwnable__renounceOwnership_noProposal",
      "type": "error"
    },
    {
      "inputs": [],
      "name": "RateLimited__rateLimited_messageSendRateExceeded",
      "type": "error"
    },
    {
      "inputs": [],
      "name": "SpokeConnector_activateOptimisticMode__OptimisticModeOn",
      "type": "error"
    },
    {
      "inputs": [],
      "name": "SpokeConnector_constructor__DisputeBlocksLowerThanMin",
      "type": "error"
    },
    {
      "inputs": [],
      "name": "SpokeConnector_finalize__InvalidInputHash",
      "type": "error"
    },
    {
      "inputs": [],
      "name": "SpokeConnector_finalize__ProposeInProgress",
      "type": "error"
    },
    {
      "inputs": [],
      "name": "SpokeConnector_finalize__ProposedHashIsFinalizedHash",
      "type": "error"
    },
    {
      "inputs": [],
      "name": "SpokeConnector_onlyOptimisticMode__SlowModeOn",
      "type": "error"
    },
    {
      "inputs": [],
      "name": "SpokeConnector_onlyProposer__NotAllowlistedProposer",
      "type": "error"
    },
    {
      "inputs": [],
      "name": "SpokeConnector_proposeAggregateRoot__ProposeInProgress",
      "type": "error"
    },
    {
      "inputs": [],
      "name": "SpokeConnector_receiveAggregateRoot__OptimisticModeOn",
      "type": "error"
    },
    {
      "inputs": [],
      "name": "SpokeConnector_setDisputeBlocks__DisputeBlocksLowerThanMin",
      "type": "error"
    },
    {
      "inputs": [],
      "name": "SpokeConnector_setDisputeBlocks__SameDisputeBlocksAsBefore",
      "type": "error"
    },
    {
      "inputs": [],
      "name": "SpokeConnector_setMinDisputeBlocks__SameMinDisputeBlocksAsBefore",
      "type": "error"
    },
    {
      "inputs": [],
      "name": "TypedMemView__index_indexMoreThan32Bytes",
      "type": "error"
    },
    {
      "inputs": [
        {
          "internalType": "uint256",
          "name": "loc",
          "type": "uint256"
        },
        {
          "internalType": "uint256",
          "name": "len",
          "type": "uint256"
        },
        {
          "internalType": "uint256",
          "name": "index",
          "type": "uint256"
        },
        {
          "internalType": "uint256",
          "name": "slice",
          "type": "uint256"
        }
      ],
      "name": "TypedMemView__index_overrun",
      "type": "error"
    },
    {
      "inputs": [],
      "name": "TypedMemView__unsafeCopyTo_identityOOG",
      "type": "error"
    },
    {
      "inputs": [],
      "name": "TypedMemView__unsafeCopyTo_invalidPointer",
      "type": "error"
    },
    {
      "inputs": [],
      "name": "TypedMemView__unsafeCopyTo_nullPointer",
      "type": "error"
    },
    {
      "anonymous": false,
      "inputs": [
        {
          "indexed": true,
          "internalType": "bytes32",
          "name": "aggregateRoot",
          "type": "bytes32"
        },
        {
          "indexed": true,
          "internalType": "uint256",
          "name": "rootTimestamp",
          "type": "uint256"
        },
        {
          "indexed": true,
          "internalType": "uint256",
          "name": "endOfDispute",
          "type": "uint256"
        },
        {
          "indexed": false,
          "internalType": "uint32",
          "name": "domain",
          "type": "uint32"
        }
      ],
      "name": "AggregateRootProposed",
      "type": "event"
    },
    {
      "anonymous": false,
      "inputs": [
        {
          "indexed": true,
          "internalType": "bytes32",
          "name": "root",
          "type": "bytes32"
        }
      ],
      "name": "AggregateRootReceived",
      "type": "event"
    },
    {
      "anonymous": false,
      "inputs": [
        {
          "indexed": true,
          "internalType": "bytes32",
          "name": "root",
          "type": "bytes32"
        }
      ],
      "name": "AggregateRootRemoved",
      "type": "event"
    },
    {
      "anonymous": false,
      "inputs": [
        {
          "indexed": true,
          "internalType": "bytes32",
          "name": "root",
          "type": "bytes32"
        }
      ],
      "name": "AggregateRootVerified",
      "type": "event"
    },
    {
      "anonymous": false,
      "inputs": [
        {
          "indexed": true,
          "internalType": "uint256",
          "name": "updated",
          "type": "uint256"
        },
        {
          "indexed": false,
          "internalType": "address",
          "name": "caller",
          "type": "address"
        }
      ],
      "name": "DelayBlocksUpdated",
      "type": "event"
    },
    {
      "anonymous": false,
      "inputs": [
        {
          "indexed": true,
          "internalType": "bytes32",
          "name": "leaf",
          "type": "bytes32"
        },
        {
          "indexed": true,
          "internalType": "uint256",
          "name": "index",
          "type": "uint256"
        },
        {
          "indexed": true,
          "internalType": "bytes32",
          "name": "root",
          "type": "bytes32"
        },
        {
          "indexed": false,
          "internalType": "bytes",
          "name": "message",
          "type": "bytes"
        }
      ],
      "name": "Dispatch",
      "type": "event"
    },
    {
      "anonymous": false,
      "inputs": [
        {
          "indexed": false,
          "internalType": "uint256",
          "name": "previous",
          "type": "uint256"
        },
        {
          "indexed": false,
          "internalType": "uint256",
          "name": "updated",
          "type": "uint256"
        }
      ],
      "name": "DisputeBlocksUpdated",
      "type": "event"
    },
    {
      "anonymous": false,
      "inputs": [
        {
          "indexed": true,
          "internalType": "address",
          "name": "to",
          "type": "address"
        },
        {
          "indexed": false,
          "internalType": "uint256",
          "name": "amount",
          "type": "uint256"
        }
      ],
      "name": "FundsWithdrawn",
      "type": "event"
    },
    {
      "anonymous": false,
      "inputs": [
        {
          "indexed": false,
          "internalType": "uint256",
          "name": "_previous",
          "type": "uint256"
        },
        {
          "indexed": false,
          "internalType": "uint256",
          "name": "_updated",
          "type": "uint256"
        }
      ],
      "name": "GasCapUpdated",
      "type": "event"
    },
    {
      "anonymous": false,
      "inputs": [
        {
          "indexed": false,
          "internalType": "bytes",
          "name": "data",
          "type": "bytes"
        },
        {
          "indexed": false,
          "internalType": "address",
          "name": "caller",
          "type": "address"
        }
      ],
      "name": "MessageProcessed",
      "type": "event"
    },
    {
      "anonymous": false,
      "inputs": [
        {
          "indexed": true,
          "internalType": "bytes32",
          "name": "leaf",
          "type": "bytes32"
        },
        {
          "indexed": true,
          "internalType": "bytes32",
          "name": "aggregateRoot",
          "type": "bytes32"
        },
        {
          "indexed": false,
          "internalType": "uint256",
          "name": "aggregateIndex",
          "type": "uint256"
        }
      ],
      "name": "MessageProven",
      "type": "event"
    },
    {
      "anonymous": false,
      "inputs": [
        {
          "indexed": false,
          "internalType": "bytes",
          "name": "data",
          "type": "bytes"
        },
        {
          "indexed": false,
          "internalType": "bytes",
          "name": "encodedData",
          "type": "bytes"
        },
        {
          "indexed": false,
          "internalType": "address",
          "name": "caller",
          "type": "address"
        }
      ],
      "name": "MessageSent",
      "type": "event"
    },
    {
      "anonymous": false,
      "inputs": [
        {
          "indexed": false,
          "internalType": "uint256",
          "name": "previous",
          "type": "uint256"
        },
        {
          "indexed": false,
          "internalType": "uint256",
          "name": "updated",
          "type": "uint256"
        }
      ],
      "name": "MinDisputeBlocksUpdated",
      "type": "event"
    },
    {
      "anonymous": false,
      "inputs": [
        {
          "indexed": false,
          "internalType": "address",
          "name": "previous",
          "type": "address"
        },
        {
          "indexed": false,
          "internalType": "address",
          "name": "current",
          "type": "address"
        }
      ],
      "name": "MirrorConnectorUpdated",
      "type": "event"
    },
    {
      "anonymous": false,
      "inputs": [
        {
          "indexed": true,
          "internalType": "uint32",
          "name": "domain",
          "type": "uint32"
        },
        {
          "indexed": true,
          "internalType": "uint32",
          "name": "mirrorDomain",
          "type": "uint32"
        },
        {
          "indexed": false,
          "internalType": "address",
          "name": "amb",
          "type": "address"
        },
        {
          "indexed": false,
          "internalType": "address",
          "name": "rootManager",
          "type": "address"
        },
        {
          "indexed": false,
          "internalType": "address",
          "name": "mirrorConnector",
          "type": "address"
        }
      ],
      "name": "NewConnector",
      "type": "event"
    },
    {
      "anonymous": false,
      "inputs": [],
      "name": "OptimisticModeActivated",
      "type": "event"
    },
    {
      "anonymous": false,
      "inputs": [
        {
          "indexed": true,
          "internalType": "address",
          "name": "proposedOwner",
          "type": "address"
        }
      ],
      "name": "OwnershipProposed",
      "type": "event"
    },
    {
      "anonymous": false,
      "inputs": [
        {
          "indexed": true,
          "internalType": "address",
          "name": "previousOwner",
          "type": "address"
        },
        {
          "indexed": true,
          "internalType": "address",
          "name": "newOwner",
          "type": "address"
        }
      ],
      "name": "OwnershipTransferred",
      "type": "event"
    },
    {
      "anonymous": false,
      "inputs": [
        {
          "indexed": false,
          "internalType": "address",
          "name": "account",
          "type": "address"
        }
      ],
      "name": "Paused",
      "type": "event"
    },
    {
      "anonymous": false,
      "inputs": [
        {
          "indexed": true,
          "internalType": "bytes32",
          "name": "aggregateRoot",
          "type": "bytes32"
        }
      ],
      "name": "PendingAggregateRootDeleted",
      "type": "event"
    },
    {
      "anonymous": false,
      "inputs": [
        {
          "indexed": true,
          "internalType": "bytes32",
          "name": "leaf",
          "type": "bytes32"
        },
        {
          "indexed": false,
          "internalType": "bool",
          "name": "success",
          "type": "bool"
        },
        {
          "indexed": false,
          "internalType": "bytes",
          "name": "returnData",
          "type": "bytes"
        }
      ],
      "name": "Process",
      "type": "event"
    },
    {
      "anonymous": false,
      "inputs": [
        {
          "indexed": false,
          "internalType": "bytes32",
          "name": "aggregateRoot",
          "type": "bytes32"
        }
      ],
      "name": "ProposedRootFinalized",
      "type": "event"
    },
    {
      "anonymous": false,
      "inputs": [
        {
          "indexed": true,
          "internalType": "address",
          "name": "proposer",
          "type": "address"
        }
      ],
      "name": "ProposerAdded",
      "type": "event"
    },
    {
      "anonymous": false,
      "inputs": [
        {
          "indexed": true,
          "internalType": "address",
          "name": "proposer",
          "type": "address"
        }
      ],
      "name": "ProposerRemoved",
      "type": "event"
    },
    {
      "anonymous": false,
      "inputs": [
        {
          "indexed": false,
          "internalType": "address",
          "name": "updater",
          "type": "address"
        },
        {
          "indexed": false,
          "internalType": "uint256",
          "name": "newRateLimit",
          "type": "uint256"
        }
      ],
      "name": "SendRateLimitUpdated",
      "type": "event"
    },
    {
      "anonymous": false,
      "inputs": [
        {
          "indexed": true,
          "internalType": "address",
          "name": "sender",
          "type": "address"
        }
      ],
      "name": "SenderAdded",
      "type": "event"
    },
    {
      "anonymous": false,
      "inputs": [
        {
          "indexed": true,
          "internalType": "address",
          "name": "sender",
          "type": "address"
        }
      ],
      "name": "SenderRemoved",
      "type": "event"
    },
    {
      "anonymous": false,
      "inputs": [
        {
          "indexed": true,
          "internalType": "address",
          "name": "watcher",
          "type": "address"
        }
      ],
      "name": "SlowModeActivated",
      "type": "event"
    },
    {
      "anonymous": false,
      "inputs": [
        {
          "indexed": true,
          "internalType": "uint256",
          "name": "snapshotId",
          "type": "uint256"
        },
        {
          "indexed": true,
          "internalType": "bytes32",
          "name": "root",
          "type": "bytes32"
        },
        {
          "indexed": true,
          "internalType": "uint256",
          "name": "count",
          "type": "uint256"
        }
      ],
      "name": "SnapshotRootSaved",
      "type": "event"
    },
    {
      "anonymous": false,
      "inputs": [
        {
          "indexed": false,
          "internalType": "address",
          "name": "account",
          "type": "address"
        }
      ],
      "name": "Unpaused",
      "type": "event"
    },
    {
      "anonymous": false,
      "inputs": [
        {
          "indexed": false,
          "internalType": "address",
          "name": "watcherManager",
          "type": "address"
        }
      ],
      "name": "WatcherManagerChanged",
      "type": "event"
    },
    {
      "inputs": [],
      "name": "AMB",
      "outputs": [
        {
          "internalType": "address",
          "name": "",
          "type": "address"
        }
      ],
      "stateMutability": "view",
      "type": "function"
    },
    {
      "inputs": [],
      "name": "DOMAIN",
      "outputs": [
        {
          "internalType": "uint32",
          "name": "",
          "type": "uint32"
        }
      ],
      "stateMutability": "view",
      "type": "function"
    },
    {
      "inputs": [],
      "name": "FINALIZED_HASH",
      "outputs": [
        {
          "internalType": "bytes32",
          "name": "",
          "type": "bytes32"
        }
      ],
      "stateMutability": "view",
      "type": "function"
    },
    {
      "inputs": [],
      "name": "MERKLE",
      "outputs": [
        {
          "internalType": "contract MerkleTreeManager",
          "name": "",
          "type": "address"
        }
      ],
      "stateMutability": "view",
      "type": "function"
    },
    {
      "inputs": [],
      "name": "MIRROR_DOMAIN",
      "outputs": [
        {
          "internalType": "uint32",
          "name": "",
          "type": "uint32"
        }
      ],
      "stateMutability": "view",
      "type": "function"
    },
    {
      "inputs": [],
      "name": "PROCESS_GAS",
      "outputs": [
        {
          "internalType": "uint256",
          "name": "",
          "type": "uint256"
        }
      ],
      "stateMutability": "view",
      "type": "function"
    },
    {
      "inputs": [],
      "name": "RESERVE_GAS",
      "outputs": [
        {
          "internalType": "uint256",
          "name": "",
          "type": "uint256"
        }
      ],
      "stateMutability": "view",
      "type": "function"
    },
    {
      "inputs": [],
      "name": "ROOT_MANAGER",
      "outputs": [
        {
          "internalType": "address",
          "name": "",
          "type": "address"
        }
      ],
      "stateMutability": "view",
      "type": "function"
    },
    {
      "inputs": [],
      "name": "acceptProposedOwner",
      "outputs": [],
      "stateMutability": "nonpayable",
      "type": "function"
    },
    {
      "inputs": [],
      "name": "activateOptimisticMode",
      "outputs": [],
      "stateMutability": "nonpayable",
      "type": "function"
    },
    {
      "inputs": [],
      "name": "activateSlowMode",
      "outputs": [],
      "stateMutability": "nonpayable",
      "type": "function"
    },
    {
      "inputs": [
        {
          "internalType": "address",
          "name": "_proposer",
          "type": "address"
        }
      ],
      "name": "addProposer",
      "outputs": [],
      "stateMutability": "nonpayable",
      "type": "function"
    },
    {
      "inputs": [
        {
          "internalType": "address",
          "name": "_sender",
          "type": "address"
        }
      ],
      "name": "addSender",
      "outputs": [],
      "stateMutability": "nonpayable",
      "type": "function"
    },
    {
      "inputs": [
        {
          "internalType": "address",
          "name": "",
          "type": "address"
        }
      ],
      "name": "allowlistedProposers",
      "outputs": [
        {
          "internalType": "bool",
          "name": "",
          "type": "bool"
        }
      ],
      "stateMutability": "view",
      "type": "function"
    },
    {
      "inputs": [
        {
          "internalType": "address",
          "name": "",
          "type": "address"
        }
      ],
      "name": "allowlistedSenders",
      "outputs": [
        {
          "internalType": "bool",
          "name": "",
          "type": "bool"
        }
      ],
      "stateMutability": "view",
      "type": "function"
    },
    {
      "inputs": [],
      "name": "delay",
      "outputs": [
        {
          "internalType": "uint256",
          "name": "",
          "type": "uint256"
        }
      ],
      "stateMutability": "view",
      "type": "function"
    },
    {
      "inputs": [],
      "name": "delayBlocks",
      "outputs": [
        {
          "internalType": "uint256",
          "name": "",
          "type": "uint256"
        }
      ],
      "stateMutability": "view",
      "type": "function"
    },
    {
      "inputs": [
        {
          "internalType": "uint32",
          "name": "_destinationDomain",
          "type": "uint32"
        },
        {
          "internalType": "bytes32",
          "name": "_recipientAddress",
          "type": "bytes32"
        },
        {
          "internalType": "bytes",
          "name": "_messageBody",
          "type": "bytes"
        }
      ],
      "name": "dispatch",
      "outputs": [
        {
          "internalType": "bytes32",
          "name": "",
          "type": "bytes32"
        },
        {
          "internalType": "bytes",
          "name": "",
          "type": "bytes"
        }
      ],
      "stateMutability": "nonpayable",
      "type": "function"
    },
    {
      "inputs": [],
      "name": "disputeBlocks",
      "outputs": [
        {
          "internalType": "uint256",
          "name": "",
          "type": "uint256"
        }
      ],
      "stateMutability": "view",
      "type": "function"
    },
    {
      "inputs": [
        {
          "internalType": "bytes32",
          "name": "_proposedAggregateRoot",
          "type": "bytes32"
        },
        {
          "internalType": "uint256",
          "name": "_rootTimestamp",
          "type": "uint256"
        },
        {
          "internalType": "uint256",
          "name": "_endOfDispute",
          "type": "uint256"
        }
      ],
      "name": "finalize",
      "outputs": [],
      "stateMutability": "nonpayable",
      "type": "function"
    },
    {
      "inputs": [],
      "name": "gasCap",
      "outputs": [
        {
          "internalType": "uint256",
          "name": "",
          "type": "uint256"
        }
      ],
      "stateMutability": "view",
      "type": "function"
    },
    {
      "inputs": [],
      "name": "getLastCompletedSnapshotId",
      "outputs": [
        {
          "internalType": "uint256",
          "name": "_lastCompletedSnapshotId",
          "type": "uint256"
        }
      ],
      "stateMutability": "view",
      "type": "function"
    },
    {
      "inputs": [],
      "name": "getSnapshotDuration",
      "outputs": [
        {
          "internalType": "uint256",
          "name": "_snapshotDuration",
          "type": "uint256"
        }
      ],
      "stateMutability": "pure",
      "type": "function"
    },
    {
      "inputs": [],
      "name": "home",
      "outputs": [
        {
          "internalType": "contract IOutbox",
          "name": "",
          "type": "address"
        }
      ],
      "stateMutability": "view",
      "type": "function"
    },
    {
      "inputs": [
        {
          "internalType": "address",
          "name": "_potentialReplica",
          "type": "address"
        }
      ],
      "name": "isReplica",
      "outputs": [
        {
          "internalType": "bool",
          "name": "",
          "type": "bool"
        }
      ],
      "stateMutability": "view",
      "type": "function"
    },
    {
      "inputs": [],
      "name": "lastSentBlock",
      "outputs": [
        {
          "internalType": "uint256",
          "name": "",
          "type": "uint256"
        }
      ],
      "stateMutability": "view",
      "type": "function"
    },
    {
      "inputs": [],
      "name": "localDomain",
      "outputs": [
        {
          "internalType": "uint32",
          "name": "",
          "type": "uint32"
        }
      ],
      "stateMutability": "view",
      "type": "function"
    },
    {
      "inputs": [],
      "name": "minDisputeBlocks",
      "outputs": [
        {
          "internalType": "uint256",
          "name": "",
          "type": "uint256"
        }
      ],
      "stateMutability": "view",
      "type": "function"
    },
    {
      "inputs": [],
      "name": "mirrorConnector",
      "outputs": [
        {
          "internalType": "address",
          "name": "",
          "type": "address"
        }
      ],
      "stateMutability": "view",
      "type": "function"
    },
    {
      "inputs": [],
      "name": "optimisticMode",
      "outputs": [
        {
          "internalType": "bool",
          "name": "",
          "type": "bool"
        }
      ],
      "stateMutability": "view",
      "type": "function"
    },
    {
      "inputs": [],
      "name": "outboundRoot",
      "outputs": [
        {
          "internalType": "bytes32",
          "name": "",
          "type": "bytes32"
        }
      ],
      "stateMutability": "view",
      "type": "function"
    },
    {
      "inputs": [],
      "name": "owner",
      "outputs": [
        {
          "internalType": "address",
          "name": "",
          "type": "address"
        }
      ],
      "stateMutability": "view",
      "type": "function"
    },
    {
      "inputs": [],
      "name": "pause",
      "outputs": [],
      "stateMutability": "nonpayable",
      "type": "function"
    },
    {
      "inputs": [],
      "name": "paused",
      "outputs": [
        {
          "internalType": "bool",
          "name": "",
          "type": "bool"
        }
      ],
      "stateMutability": "view",
      "type": "function"
    },
    {
      "inputs": [
        {
          "internalType": "bytes32",
          "name": "",
          "type": "bytes32"
        }
      ],
      "name": "pendingAggregateRoots",
      "outputs": [
        {
          "internalType": "uint256",
          "name": "",
          "type": "uint256"
        }
      ],
      "stateMutability": "view",
      "type": "function"
    },
    {
      "inputs": [
        {
          "internalType": "bytes",
          "name": "_data",
          "type": "bytes"
        }
      ],
      "name": "processMessage",
      "outputs": [],
      "stateMutability": "nonpayable",
      "type": "function"
    },
    {
      "inputs": [
        {
          "internalType": "bytes32",
          "name": "_aggregateRoot",
          "type": "bytes32"
        },
        {
          "internalType": "uint256",
          "name": "_rootTimestamp",
          "type": "uint256"
        }
      ],
      "name": "proposeAggregateRoot",
      "outputs": [],
      "stateMutability": "nonpayable",
      "type": "function"
    },
    {
      "inputs": [
        {
          "internalType": "address",
          "name": "newlyProposed",
          "type": "address"
        }
      ],
      "name": "proposeNewOwner",
      "outputs": [],
      "stateMutability": "nonpayable",
      "type": "function"
    },
    {
      "inputs": [],
      "name": "proposed",
      "outputs": [
        {
          "internalType": "address",
          "name": "",
          "type": "address"
        }
      ],
      "stateMutability": "view",
      "type": "function"
    },
    {
      "inputs": [],
      "name": "proposedAggregateRootHash",
      "outputs": [
        {
          "internalType": "bytes32",
          "name": "",
          "type": "bytes32"
        }
      ],
      "stateMutability": "view",
      "type": "function"
    },
    {
      "inputs": [],
      "name": "proposedTimestamp",
      "outputs": [
        {
          "internalType": "uint256",
          "name": "",
          "type": "uint256"
        }
      ],
      "stateMutability": "view",
      "type": "function"
    },
    {
      "inputs": [
        {
          "components": [
            {
              "internalType": "bytes",
              "name": "message",
              "type": "bytes"
            },
            {
              "internalType": "bytes32[32]",
              "name": "path",
              "type": "bytes32[32]"
            },
            {
              "internalType": "uint256",
              "name": "index",
              "type": "uint256"
            }
          ],
          "internalType": "struct SpokeConnector.Proof[]",
          "name": "_proofs",
          "type": "tuple[]"
        },
        {
          "internalType": "bytes32",
          "name": "_aggregateRoot",
          "type": "bytes32"
        },
        {
          "internalType": "bytes32[32]",
          "name": "_aggregatePath",
          "type": "bytes32[32]"
        },
        {
          "internalType": "uint256",
          "name": "_aggregateIndex",
          "type": "uint256"
        }
      ],
      "name": "proveAndProcess",
      "outputs": [],
      "stateMutability": "nonpayable",
      "type": "function"
    },
    {
      "inputs": [
        {
          "internalType": "bytes32",
          "name": "",
          "type": "bytes32"
        }
      ],
      "name": "provenAggregateRoots",
      "outputs": [
        {
          "internalType": "bool",
          "name": "",
          "type": "bool"
        }
      ],
      "stateMutability": "view",
      "type": "function"
    },
    {
      "inputs": [
        {
          "internalType": "bytes32",
          "name": "",
          "type": "bytes32"
        }
      ],
      "name": "provenMessageRoots",
      "outputs": [
        {
          "internalType": "bool",
          "name": "",
          "type": "bool"
        }
      ],
      "stateMutability": "view",
      "type": "function"
    },
    {
      "inputs": [],
      "name": "rateLimitBlocks",
      "outputs": [
        {
          "internalType": "uint256",
          "name": "",
          "type": "uint256"
        }
      ],
      "stateMutability": "view",
      "type": "function"
    },
    {
      "inputs": [
        {
          "internalType": "bytes32",
          "name": "_fraudulentRoot",
          "type": "bytes32"
        }
      ],
      "name": "removePendingAggregateRoot",
      "outputs": [],
      "stateMutability": "nonpayable",
      "type": "function"
    },
    {
      "inputs": [
        {
          "internalType": "address",
          "name": "_proposer",
          "type": "address"
        }
      ],
      "name": "removeProposer",
      "outputs": [],
      "stateMutability": "nonpayable",
      "type": "function"
    },
    {
      "inputs": [
        {
          "internalType": "address",
          "name": "_sender",
          "type": "address"
        }
      ],
      "name": "removeSender",
      "outputs": [],
      "stateMutability": "nonpayable",
      "type": "function"
    },
    {
      "inputs": [],
      "name": "renounceOwnership",
      "outputs": [],
      "stateMutability": "nonpayable",
      "type": "function"
    },
    {
      "inputs": [],
      "name": "renounced",
      "outputs": [
        {
          "internalType": "bool",
          "name": "",
          "type": "bool"
        }
      ],
      "stateMutability": "view",
      "type": "function"
    },
    {
      "inputs": [
        {
          "internalType": "bytes",
          "name": "_encodedData",
          "type": "bytes"
        }
      ],
      "name": "send",
      "outputs": [],
      "stateMutability": "payable",
      "type": "function"
    },
    {
      "inputs": [
        {
          "internalType": "bytes32",
          "name": "",
          "type": "bytes32"
        }
      ],
      "name": "sentMessageRoots",
      "outputs": [
        {
          "internalType": "bool",
          "name": "",
          "type": "bool"
        }
      ],
      "stateMutability": "view",
      "type": "function"
    },
    {
      "inputs": [
        {
          "internalType": "uint256",
          "name": "_delayBlocks",
          "type": "uint256"
        }
      ],
      "name": "setDelayBlocks",
      "outputs": [],
      "stateMutability": "nonpayable",
      "type": "function"
    },
    {
      "inputs": [
        {
          "internalType": "uint256",
          "name": "_disputeBlocks",
          "type": "uint256"
        }
      ],
      "name": "setDisputeBlocks",
      "outputs": [],
      "stateMutability": "nonpayable",
      "type": "function"
    },
    {
      "inputs": [
        {
          "internalType": "uint256",
          "name": "_gasCap",
          "type": "uint256"
        }
      ],
      "name": "setGasCap",
      "outputs": [],
      "stateMutability": "nonpayable",
      "type": "function"
    },
    {
      "inputs": [
        {
          "internalType": "uint256",
          "name": "_minDisputeBlocks",
          "type": "uint256"
        }
      ],
      "name": "setMinDisputeBlocks",
      "outputs": [],
      "stateMutability": "nonpayable",
      "type": "function"
    },
    {
      "inputs": [
        {
          "internalType": "address",
          "name": "_mirrorConnector",
          "type": "address"
        }
      ],
      "name": "setMirrorConnector",
      "outputs": [],
      "stateMutability": "nonpayable",
      "type": "function"
    },
    {
      "inputs": [
        {
          "internalType": "uint256",
          "name": "_rateLimit",
          "type": "uint256"
        }
      ],
      "name": "setRateLimitBlocks",
      "outputs": [],
      "stateMutability": "nonpayable",
      "type": "function"
    },
    {
      "inputs": [
        {
          "internalType": "address",
          "name": "_watcherManager",
          "type": "address"
        }
      ],
      "name": "setWatcherManager",
      "outputs": [],
      "stateMutability": "nonpayable",
      "type": "function"
    },
    {
      "inputs": [
        {
          "internalType": "uint256",
          "name": "",
          "type": "uint256"
        }
      ],
      "name": "snapshotRoots",
      "outputs": [
        {
          "internalType": "bytes32",
          "name": "",
          "type": "bytes32"
        }
      ],
      "stateMutability": "view",
      "type": "function"
    },
    {
      "inputs": [],
      "name": "unpause",
      "outputs": [],
      "stateMutability": "nonpayable",
      "type": "function"
    },
    {
      "inputs": [
        {
          "internalType": "address",
          "name": "_expected",
          "type": "address"
        }
      ],
      "name": "verifySender",
      "outputs": [
        {
          "internalType": "bool",
          "name": "",
          "type": "bool"
        }
      ],
      "stateMutability": "nonpayable",
      "type": "function"
    },
    {
      "inputs": [],
      "name": "watcherManager",
      "outputs": [
        {
          "internalType": "contract WatcherManager",
          "name": "",
          "type": "address"
        }
      ],
      "stateMutability": "view",
      "type": "function"
    },
    {
      "inputs": [
        {
          "internalType": "address",
          "name": "_to",
          "type": "address"
        }
      ],
      "name": "withdrawFunds",
      "outputs": [],
      "stateMutability": "nonpayable",
      "type": "function"
    },
    {
      "stateMutability": "payable",
      "type": "receive"
    }
  ],
  "transactionHash": "0x46a4936ba799bd033b6e8a0afb6fd3afcc98e7141582b40a51595953cd449966",
  "args": [
    {
      "domain": "1836016741",
      "mirrorDomain": "6648936",
      "amb": "0x4200000000000000000000000000000000000007",
      "rootManager": "0x0031d290B8526e2Eb6ac22111E5fF96EcA760258",
      "mirrorConnector": "0x0000000000000000000000000000000000000000",
      "processGas": "2000000",
      "reserveGas": "15000",
      "delayBlocks": 900,
      "merkle": "0xA3E91AeFAdEcb8919180F581f5Be897c763be593",
      "watcherManager": "0x72c393d9aE5e352877B4adC585B1939B670213D8",
      "minDisputeBlocks": 450,
      "disputeBlocks": 900
    },
    "850000"
  ],
  "numDeployments": 1,
  "solcInputHash": "f27fc0c5a728e8290f4e343b9381d1ad",
  "bytecode": "0x6101606040526001600f553480156200001757600080fd5b506040516200490a3803806200490a8339810160408190526200003a9162000497565b808083806101200151816000015182602001518360400151846060015185608001516200006d336200031e60201b60201c565b8463ffffffff16600003620000b85760405162461bcd60e51b815260206004820152600c60248201526b32b6b83a3c903237b6b0b4b760a11b60448201526064015b60405180910390fd5b6001600160a01b038216620001045760405162461bcd60e51b815260206004820152601160248201527032b6b83a3c903937b7ba26b0b730b3b2b960791b6044820152606401620000af565b63ffffffff8086166080526001600160a01b0380851660a05283811660c05290851660e0528116156200013c576200013c8162000383565b604080516001600160a01b0385811682528481166020830152831681830152905163ffffffff86811692908816917f4f9c27c2fe3f84576ea469d367d044da53c45e951617e8389f2b5ed8db9d25f09181900360600190a350506003805460ff60a01b191690555050600480546001600160a01b0319166001600160a01b03939093169290921790915550600160075561016081015161014082015180821015620001fa576040516350ccf05160e01b815260040160405180910390fd5b620cf84f8360a0015111620002415760405162461bcd60e51b815260206004820152600c60248201526b2170726f636573732067617360a01b6044820152606401620000af565b613a978360c0015111620002875760405162461bcd60e51b815260206004820152600c60248201526b21726573657276652067617360a01b6044820152606401620000af565b60a08301516101205260c0830151610140526101008301516001600160a01b0316620002e55760405162461bcd60e51b815260206004820152600c60248201526b217a65726f206d65726b6c6560a01b6044820152606401620000af565b610100808401516001600160a01b0316905260e0909201516008556011919091556010556200031481620003ec565b505050506200058c565b600080546040516001600160a01b03808516939216917f8be0079c531659141344cd1fd0a4f28419497f9722a3daafe3b4186f6b6457e091a3600080546001600160a01b039092166001600160a01b0319928316178155600255600180549091169055565b600354604080516001600160a01b03928316815291831660208301527fc77bec288fc88f168427f2f7da682eadb26cac89d8d591af6e443da98dff2bbc910160405180910390a1600380546001600160a01b0319166001600160a01b0392909216919091179055565b60145460408051918252602082018390527f877a02cb809da0364d23adca3cd50c451b53f279d3df632e1fc11eb66335bce5910160405180910390a1601455565b60405161018081016001600160401b03811182821017156200045f57634e487b7160e01b600052604160045260246000fd5b60405290565b805163ffffffff811681146200047a57600080fd5b919050565b80516001600160a01b03811681146200047a57600080fd5b6000808284036101a0811215620004ad57600080fd5b61018080821215620004be57600080fd5b620004c86200042d565b9150620004d58562000465565b8252620004e56020860162000465565b6020830152620004f8604086016200047f565b60408301526200050b606086016200047f565b60608301526200051e608086016200047f565b608083015260a085015160a083015260c085015160c083015260e085015160e0830152610100620005518187016200047f565b90830152610120620005658682016200047f565b90830152610140858101519083015261016080860151908301529093015192949293505050565b60805160a05160c05160e05161010051610120516101405161429762000673600039600081816104cf01526128fa015260008181610bb20152818161291b01526129ad01526000818161096001528181610fbb015281816112ac015281816114100152818161155c0152818161206c01528181612108015281816121d5015281816122a2015281816125e401526128920152600061045001526000610734015260008181610b680152818161110001528181612d8b0152612eb30152600081816106660152818161087c01528181610de80152818161225301526127f701526142976000f3fe6080604052600436106103c75760003560e01c80638456cb59116101f2578063cbfa20211161010d578063d3c805b7116100a0578063db1b76591161006f578063db1b765914610bd4578063e0fed01014610bf4578063f4b6e41014610c14578063fa31de0114610c2a57600080fd5b8063d3c805b714610b41578063d69f9d6114610b56578063d7d317b314610b8a578063d88beda214610ba057600080fd5b8063d1851c92116100dc578063d1851c9214610acf578063d232c22014610aed578063d2a3cc7114610b0c578063d3c54fe514610b2c57600080fd5b8063cbfa202114610a6d578063cc39428314610a82578063ceb3454e14610aa2578063d1745e4f14610ab857600080fd5b8063a792c29b11610185578063b1f8100d11610154578063b1f8100d146109f8578063b2f8764314610a18578063b697f53114610a38578063c5b350df14610a5857600080fd5b8063a792c29b14610982578063a941f3f3146109a2578063ad9c0c2e146109c2578063b03cd418146109d857600080fd5b806398c9f2b9116101c157806398c9f2b9146108de5780639d3117c71461090e5780639fa92f9d1461093b578063a01892a51461094e57600080fd5b80638456cb59146108585780638d3638f41461086d5780638da5cb5b146108a05780638e02f759146108be57600080fd5b806351cc57cc116102e257806360caf7a0116102755780636a42b8f8116102445780636a42b8f8146107ed5780636b04a93314610803578063715018a6146108235780637850b0201461083857600080fd5b806360caf7a01461076e5780636159ada11461078857806365eaf11b146107b857806368742da6146107cd57600080fd5b80635bd11efc116102b15780635bd11efc146106ce5780635c975abb146106ee5780635d3087611461070d5780635f61e3ec1461072257600080fd5b806351cc57cc1461062757806352a9674b14610654578063572386ca14610688578063579c1618146106b857600080fd5b80632bb1ae7c1161035a5780634a2db1da116103295780634a2db1da1461058e5780634ff746f6146105be578063508a109b146105de5780635190bc53146105fe57600080fd5b80632bb1ae7c14610511578063301f07c3146105245780633cf52ffb146105645780633f4ba83a1461057957600080fd5b80631eeaabea116103965780631eeaabea1461048757806320f62eda146104a757806325e3beda146104bd578063263ef354146104f157600080fd5b8063047dbeb8146103d357806309d632d3146103fc578063111c18371461041e578063141684161461043e57600080fd5b366103ce57005b600080fd5b3480156103df57600080fd5b506103e960145481565b6040519081526020015b60405180910390f35b34801561040857600080fd5b5061041c610417366004613c2e565b610c58565b005b34801561042a57600080fd5b5061041c610439366004613c4b565b610ccc565b34801561044a57600080fd5b506104727f000000000000000000000000000000000000000000000000000000000000000081565b60405163ffffffff90911681526020016103f3565b34801561049357600080fd5b5061041c6104a2366004613c6d565b610e40565b3480156104b357600080fd5b506103e960105481565b3480156104c957600080fd5b506103e97f000000000000000000000000000000000000000000000000000000000000000081565b3480156104fd57600080fd5b5061041c61050c366004613c6d565b610eea565b61041c61051f366004613d29565b610f78565b34801561053057600080fd5b5061055461053f366004613c6d565b600a6020526000908152604090205460ff1681565b60405190151581526020016103f3565b34801561057057600080fd5b506002546103e9565b34801561058557600080fd5b5061041c6110b8565b34801561059a57600080fd5b506105546105a9366004613c2e565b60136020526000908152604090205460ff1681565b3480156105ca57600080fd5b5061041c6105d9366004613d29565b6110f5565b3480156105ea57600080fd5b5061041c6105f9366004613d5e565b61119b565b34801561060a57600080fd5b50610554610619366004613c2e565b6001600160a01b0316301490565b34801561063357600080fd5b506103e9610642366004613c6d565b600e6020526000908152604090205481565b34801561066057600080fd5b506104727f000000000000000000000000000000000000000000000000000000000000000081565b34801561069457600080fd5b506105546106a3366004613c6d565b600c6020526000908152604090205460ff1681565b3480156106c457600080fd5b506103e960055481565b3480156106da57600080fd5b5061041c6106e9366004613c2e565b611521565b3480156106fa57600080fd5b50600354600160a01b900460ff16610554565b34801561071957600080fd5b506103e9600181565b34801561072e57600080fd5b506107567f000000000000000000000000000000000000000000000000000000000000000081565b6040516001600160a01b0390911681526020016103f3565b34801561077a57600080fd5b506012546105549060ff1681565b34801561079457600080fd5b506105546107a3366004613c2e565b600d6020526000908152604090205460ff1681565b3480156107c457600080fd5b506103e9611558565b3480156107d957600080fd5b5061041c6107e8366004613c2e565b6115e1565b3480156107f957600080fd5b5062093a806103e9565b34801561080f57600080fd5b5061041c61081e366004613c6d565b61165e565b34801561082f57600080fd5b5061041c611721565b34801561084457600080fd5b5061041c610853366004613c6d565b611781565b34801561086457600080fd5b5061041c6117b5565b34801561087957600080fd5b507f0000000000000000000000000000000000000000000000000000000000000000610472565b3480156108ac57600080fd5b506000546001600160a01b0316610756565b3480156108ca57600080fd5b5061041c6108d9366004613dfa565b611869565b3480156108ea57600080fd5b506105546108f9366004613c6d565b600b6020526000908152604090205460ff1681565b34801561091a57600080fd5b506103e9610929366004613c6d565b60096020526000908152604090205481565b34801561094757600080fd5b5030610756565b34801561095a57600080fd5b506107567f000000000000000000000000000000000000000000000000000000000000000081565b34801561098e57600080fd5b50600454610756906001600160a01b031681565b3480156109ae57600080fd5b5061041c6109bd366004613c6d565b611990565b3480156109ce57600080fd5b506103e960085481565b3480156109e457600080fd5b5061041c6109f3366004613c2e565b611a41565b348015610a0457600080fd5b5061041c610a13366004613c2e565b611ab8565b348015610a2457600080fd5b5061041c610a33366004613c2e565b611b56565b348015610a4457600080fd5b5061041c610a53366004613c2e565b611c1d565b348015610a6457600080fd5b5061041c611ce7565b348015610a7957600080fd5b5061041c611d57565b348015610a8e57600080fd5b50600354610756906001600160a01b031681565b348015610aae57600080fd5b506103e9600f5481565b348015610ac457600080fd5b5061070842046103e9565b348015610adb57600080fd5b506001546001600160a01b0316610756565b348015610af957600080fd5b506000546001600160a01b031615610554565b348015610b1857600080fd5b5061041c610b27366004613c2e565b611e5a565b348015610b3857600080fd5b5061041c611f31565b348015610b4d57600080fd5b506107086103e9565b348015610b6257600080fd5b506107567f000000000000000000000000000000000000000000000000000000000000000081565b348015610b9657600080fd5b506103e960065481565b348015610bac57600080fd5b506103e97f000000000000000000000000000000000000000000000000000000000000000081565b348015610be057600080fd5b50610554610bef366004613c2e565b611fb8565b348015610c0057600080fd5b5061041c610c0f366004613c6d565b611fc9565b348015610c2057600080fd5b506103e960115481565b348015610c3657600080fd5b50610c4a610c45366004613e38565b611ffd565b6040516103f3929190613ee1565b6000546001600160a01b03163314610c83576040516311a8a1bb60e31b815260040160405180910390fd5b6001600160a01b038116600081815260136020526040808220805460ff19169055517fbab6b194452fd4fa50e0ca09bf0f89976da30a2b92fdf91372ad1a176d81e3289190a250565b610cd4612370565b3360009081526013602052604090205460ff16610d045760405163dce46cfd60e01b815260040160405180910390fd5b60125460ff16610d2757604051637022548360e11b815260040160405180910390fd5b600f54600114610d4a57604051632bf9cc6b60e11b815260040160405180910390fd5b60008281526009602052604090205415610d97576000828152600960205260408082208290555183917f25baf79d6178f15bc11aefa9950ab45ad2e15f1fb6d8aa3b4f7889a6b2e2f70491a25b600060105443610da79190613f10565b60408051602081018690529081018490526060810182905290915060800160408051601f19818403018152908290528051602091820120600f5563ffffffff7f00000000000000000000000000000000000000000000000000000000000000001682528291849186917f7008dd9e43d32c464bcffa3c51a95b0d1038885b09f490062dee0fee59054e9c910160405180910390a4505050565b6000546001600160a01b03163314610e6b576040516311a8a1bb60e31b815260040160405180910390fd5b6008548103610eb05760405162461bcd60e51b815260206004820152600c60248201526b2164656c6179426c6f636b7360a01b60448201526064015b60405180910390fd5b60405133815281907f8bd16320f3b60336ed5fd2a770eb7453e7e71cfef4462addffd7ae9dfe201c8e9060200160405180910390a2600855565b6000546001600160a01b03163314610f15576040516311a8a1bb60e31b815260040160405180910390fd5b6011548103610f375760405163545924bf60e11b815260040160405180910390fd5b60115460408051918252602082018390527fdfad87ee418f8b636836b030634c8040055c9a5f641899df5a5d1d3c554fee47910160405180910390a1601155565b610f80612370565b43600554600654610f919190613f10565b1115610fb0576040516346cf2af160e11b815260040160405180910390fd5b4360068190555060007f00000000000000000000000000000000000000000000000000000000000000006001600160a01b031663ebf0c7176040518163ffffffff1660e01b8152600401602060405180830381865afa158015611017573d6000803e3d6000fd5b505050506040513d601f19601f8201168201806040525081019061103b9190613f23565b6000818152600c602052604090205490915060ff16156110915760405162461bcd60e51b81526020600482015260116024820152701c9bdbdd08185b1c9958591e481cd95b9d607a1b6044820152606401610ea7565b6000818152600c60205260409020805460ff191660011790556110b481836123bd565b5050565b6000546001600160a01b031633146110e3576040516311a8a1bb60e31b815260040160405180910390fd5b6110eb61242d565b6110f361247d565b565b336001600160a01b037f000000000000000000000000000000000000000000000000000000000000000016146111565760405162461bcd60e51b8152600401610ea79060208082526004908201526310a0a6a160e11b604082015260600190565b61115f816124d2565b7fb3abc57bfeebd2cac918901db582f71972a8e628bccf19f5ae3e3482b98a5ced8133604051611190929190613f3c565b60405180910390a150565b6111a3612370565b6111ab612572565b836111e25760405162461bcd60e51b81526020600482015260076024820152662170726f6f667360c81b6044820152606401610ea7565b6000858560008181106111f7576111f7613f66565b90506020028101906112099190613f7c565b6112139080613f9d565b604051611221929190613feb565b604051809103902090506000611288828888600081811061124457611244613f66565b90506020028101906112569190613f7c565b6020018989600081811061126c5761126c613f66565b905060200281019061127e9190613f7c565b61042001356125cb565b9050611296818686866126e6565b6040516398fae8e960e01b8152600481018390527f00000000000000000000000000000000000000000000000000000000000000006001600160a01b0316906398fae8e990602401600060405180830381600087803b1580156112f857600080fd5b505af115801561130c573d6000803e3d6000fd5b5088925060019150505b818163ffffffff1610156114805788888263ffffffff1681811061133c5761133c613f66565b905060200281019061134e9190613f7c565b6113589080613f9d565b604051611366929190613feb565b6040518091039020935060006113bb858b8b8563ffffffff1681811061138e5761138e613f66565b90506020028101906113a09190613f7c565b6020018c8c8663ffffffff1681811061126c5761126c613f66565b90508381146113fa5760405162461bcd60e51b815260206004820152600b60248201526a085cda185c9959149bdbdd60aa1b6044820152606401610ea7565b6040516398fae8e960e01b8152600481018690527f00000000000000000000000000000000000000000000000000000000000000006001600160a01b0316906398fae8e990602401600060405180830381600087803b15801561145c57600080fd5b505af1158015611470573d6000803e3d6000fd5b5050505081600101915050611316565b5060005b818163ffffffff16101561150c5761150389898363ffffffff168181106114ad576114ad613f66565b90506020028101906114bf9190613f7c565b6114c99080613f9d565b8080601f0160208091040260200160405190810160405280939291908181526020018383808284376000920191909152506127e192505050565b50600101611484565b5050505061151a6001600755565b5050505050565b6000546001600160a01b0316331461154c576040516311a8a1bb60e31b815260040160405180910390fd5b61155581612ac6565b50565b60007f00000000000000000000000000000000000000000000000000000000000000006001600160a01b031663ebf0c7176040518163ffffffff1660e01b8152600401602060405180830381865afa1580156115b8573d6000803e3d6000fd5b505050506040513d601f19601f820116820180604052508101906115dc9190613f23565b905090565b6000546001600160a01b0316331461160c576040516311a8a1bb60e31b815260040160405180910390fd5b476116178282612b2f565b816001600160a01b03167feaff4b37086828766ad3268786972c0cd24259d4c87a80f9d3963a3c3d999b0d8260405161165291815260200190565b60405180910390a25050565b6000546001600160a01b03163314611689576040516311a8a1bb60e31b815260040160405180910390fd5b61169161242d565b60008181526009602052604081205490036116e65760405162461bcd60e51b8152602060048201526015602482015274616767726567617465526f6f74202165786973747360581b6044820152606401610ea7565b6000818152600960205260408082208290555182917ff51534ecf10a58db36ce4f5180f59deddf3b3eb7c5e7454e602c2f80a40cc73991a250565b6000546001600160a01b0316331461174c576040516311a8a1bb60e31b815260040160405180910390fd5b60405162461bcd60e51b815260206004820152600a6024820152691c1c9bda1a589a5d195960b21b6044820152606401610ea7565b6000546001600160a01b031633146117ac576040516311a8a1bb60e31b815260040160405180910390fd5b61155581612c4d565b600480546040516384785ecd60e01b815233928101929092526001600160a01b0316906384785ecd90602401602060405180830381865afa1580156117fe573d6000803e3d6000fd5b505050506040513d601f19601f820116820180604052508101906118229190613ffb565b6118595760405162461bcd60e51b815260206004820152600860248201526710bbb0ba31b432b960c11b6044820152606401610ea7565b611861612370565b6110f3612c8e565b611871612370565b60125460ff1661189457604051637022548360e11b815260040160405180910390fd5b438111156118b557604051636839359160e01b815260040160405180910390fd5b600f5460001981016118da576040516317d1c37960e31b815260040160405180910390fd5b604080516020810186905290810184905260608101839052600090608001604051602081830303815290604052805190602001209050818114611930576040516333dfe00560e21b815260040160405180910390fd5b6000858152600a602052604090819020805460ff19166001908117909155600f55517f2dc49dedbe4da61c874d43fd3b63b0ed21ba78b75c83feca2f810ae13ada0af4906119819087815260200190565b60405180910390a15050505050565b6000546001600160a01b031633146119bb576040516311a8a1bb60e31b815260040160405180910390fd5b6011548110156119de5760405163575ce9f760e01b815260040160405180910390fd5b6010548103611a0057604051630d3d523f60e11b815260040160405180910390fd5b60105460408051918252602082018390527fff74184d965d306545ebeb3283c4d7a39f453a9c0ea539db6437b33ceb9c5125910160405180910390a1601055565b6000546001600160a01b03163314611a6c576040516311a8a1bb60e31b815260040160405180910390fd5b6001600160a01b038116600081815260136020526040808220805460ff19166001179055517f2bf05609716bc4b090ad0e99b47b91881c7517771259c625df05db7e9d8c81819190a250565b6000546001600160a01b03163314611ae3576040516311a8a1bb60e31b815260040160405180910390fd5b6001546001600160a01b038281169116148015611b01575060025415155b15611b1f576040516311bc066560e11b815260040160405180910390fd5b6000546001600160a01b03808316911603611b4d57604051634a2fb73f60e11b815260040160405180910390fd5b61155581612cd1565b6000546001600160a01b03163314611b81576040516311a8a1bb60e31b815260040160405180910390fd5b6001600160a01b0381166000908152600d602052604090205460ff16611bd45760405162461bcd60e51b815260206004820152600860248201526708585b1b1bddd95960c21b6044820152606401610ea7565b6001600160a01b0381166000818152600d6020526040808220805460ff19169055517f384859c5ef5fafac31e8bc92ce7fb48b1f2c74c4dd5e212eb84ec202fa5d9fad9190a250565b6000546001600160a01b03163314611c48576040516311a8a1bb60e31b815260040160405180910390fd5b6001600160a01b0381166000908152600d602052604090205460ff1615611c9b5760405162461bcd60e51b8152602060048201526007602482015266185b1b1bddd95960ca1b6044820152606401610ea7565b6001600160a01b0381166000818152600d6020526040808220805460ff19166001179055517fd65eca5d561d3a4568c87b9b13ced4ab52a69edadfdfdb22d76bc595f36d7d879190a250565b6001546001600160a01b03163314611d12576040516311a7f27160e11b815260040160405180910390fd5b62093a8060025442611d24919061401d565b11611d42576040516324e0285f60e21b815260040160405180910390fd5b6001546110f3906001600160a01b0316612d1f565b600480546040516384785ecd60e01b815233928101929092526001600160a01b0316906384785ecd90602401602060405180830381865afa158015611da0573d6000803e3d6000fd5b505050506040513d601f19601f82011682018060405250810190611dc49190613ffb565b611dfb5760405162461bcd60e51b815260206004820152600860248201526710bbb0ba31b432b960c11b6044820152606401610ea7565b60125460ff16611e1e57604051637022548360e11b815260040160405180910390fd5b6012805460ff191690556001600f5560405133907f714b2723706f07835c1a61e679dc639438acf1e1d0bbae60d17e5a246a754d6e90600090a2565b6000546001600160a01b03163314611e85576040516311a8a1bb60e31b815260040160405180910390fd5b6004546001600160a01b0390811690821603611ee35760405162461bcd60e51b815260206004820152601760248201527f616c72656164792077617463686572206d616e616765720000000000000000006044820152606401610ea7565b600480546001600160a01b0319166001600160a01b0383169081179091556040519081527fc16d059e43d7f8e29ccb4e001a2f249d3c59e274925d6a6bc3912943441d9f6c90602001611190565b6000546001600160a01b03163314611f5c576040516311a8a1bb60e31b815260040160405180910390fd5b60125460ff1615611f8057604051630e8a34ed60e41b815260040160405180910390fd5b6012805460ff191660011790556040517f46b91c03184b9c3d3422333019c7e56a3e8940f285463e754a526110287bd52190600090a1565b6000611fc382612d84565b92915050565b6000546001600160a01b03163314611ff4576040516311a8a1bb60e31b815260040160405180910390fd5b61155581612db0565b336000908152600d602052604081205460609060ff1661204e5760405162461bcd60e51b815260206004820152600c60248201526b08585b1b1bdddb1a5cdd195960a21b6044820152606401610ea7565b61070842046000818152600e602052604081205490036121b75760007f00000000000000000000000000000000000000000000000000000000000000006001600160a01b031663ebf0c7176040518163ffffffff1660e01b8152600401602060405180830381865afa1580156120c8573d6000803e3d6000fd5b505050506040513d601f19601f820116820180604052508101906120ec9190613f23565b905080600e6000848152602001908152602001600020819055507f00000000000000000000000000000000000000000000000000000000000000006001600160a01b03166306661abd6040518163ffffffff1660e01b8152600401602060405180830381865afa158015612164573d6000803e3d6000fd5b505050506040513d601f19601f820116820180604052508101906121889190613f23565b604051829084907f7ab06ac7a4d1b913d3302154561c33502bc3786196bf36757232034393d6143890600090a4505b604051630c132ab560e01b815263ffffffff871660048201526000907f00000000000000000000000000000000000000000000000000000000000000006001600160a01b031690630c132ab5906024016020604051808303816000875af1158015612226573d6000803e3d6000fd5b505050506040513d601f19601f8201168201806040525081019061224a9190614030565b9050600061227c7f000000000000000000000000000000000000000000000000000000000000000033848b8b8b612e2e565b80516020820120604051632d287e4360e01b8152600481018290529192509060009081907f00000000000000000000000000000000000000000000000000000000000000006001600160a01b031690632d287e439060240160408051808303816000875af11580156122f2573d6000803e3d6000fd5b505050506040513d601f19601f82011682018060405250810190612316919061404d565b90925090508161232760018361401d565b847f40f08ee347fc927ae45902edc87debb024aab1a311943731968607f603f2152f876040516123579190614071565b60405180910390a4509099919850909650505050505050565b600354600160a01b900460ff16156110f35760405162461bcd60e51b815260206004820152601060248201526f14185d5cd8589b194e881c185d5cd95960821b6044820152606401610ea7565b6000826040516020016123d291815260200190565b60405160208183030381529060405290506123ed8183612e66565b7fdcaa37a042a0087de79018c629bbd29cee82ca80bd9be394e1696bf9e935507781833360405161242093929190614084565b60405180910390a1505050565b600354600160a01b900460ff166110f35760405162461bcd60e51b815260206004820152601460248201527314185d5cd8589b194e881b9bdd081c185d5cd95960621b6044820152606401610ea7565b61248561242d565b6003805460ff60a01b191690557f5db9ee0a495bf2e6ff9c91a7834c1ba4fdd244a5e8aa4e537bd38aeae4b073aa335b6040516001600160a01b03909116815260200160405180910390a1565b6003546124e7906001600160a01b0316612d84565b6125265760405162461bcd60e51b815260206004820152601060248201526f10b6b4b93937b921b7b73732b1ba37b960811b6044820152606401610ea7565b80516020146125615760405162461bcd60e51b8152602060048201526007602482015266042d8cadccee8d60cb1b6044820152606401610ea7565b61155561256d826140c2565b612f3a565b6002600754036125c45760405162461bcd60e51b815260206004820152601f60248201527f5265656e7472616e637947756172643a207265656e7472616e742063616c6c006044820152606401610ea7565b6002600755565b600080604051630546f34b60e21b8152600481018690527f00000000000000000000000000000000000000000000000000000000000000006001600160a01b03169063151bcd2c90602401602060405180830381865afa158015612633573d6000803e3d6000fd5b505050506040513d601f19601f8201168201806040525081019061265791906140ff565b6002811115612668576126686140e9565b146126a85760405162461bcd60e51b815260206004820152601060248201526f214c6561665374617475732e4e6f6e6560801b6044820152606401610ea7565b6126dc84846020806020026040519081016040528092919082602080028082843760009201919091525086915061307f9050565b90505b9392505050565b6000848152600b602052604090205460ff166127db57612705836133cd565b600061273b85846020806020026040519081016040528092919082602080028082843760009201919091525086915061307f9050565b90508381146127825760405162461bcd60e51b81526020600482015260136024820152721a5b9d985b1a59081a5b989bdd5b99149bdbdd606a1b6044820152606401610ea7565b6000858152600b602052604090819020805460ff1916600117905551849086907f7ec1ea51fe3db53e55ed9d922854bc2156f467ff2f87d74e2086dae2c84a88a8906127d19086815260200190565b60405180910390a3505b50505050565b6000806127ee838261352d565b905063ffffffff7f00000000000000000000000000000000000000000000000000000000000000001661282662ffffff198316613551565b63ffffffff16146128685760405162461bcd60e51b815260206004820152600c60248201526b10b232b9ba34b730ba34b7b760a11b6044820152606401610ea7565b600061287962ffffff198316613566565b604051630b61f10360e41b8152600481018290529091507f00000000000000000000000000000000000000000000000000000000000000006001600160a01b03169063b61f103090602401600060405180830381600087803b1580156128de57600080fd5b505af11580156128f2573d6000803e3d6000fd5b5050505060017f00000000000000000000000000000000000000000000000000000000000000007f00000000000000000000000000000000000000000000000000000000000000006129449190613f10565b61294e919061401d565b5a116129855760405162461bcd60e51b8152600401610ea7906020808252600490820152632167617360e01b604082015260600190565b600061299662ffffff1984166135af565b6040805161010080825261012082019092529192507f0000000000000000000000000000000000000000000000000000000000000000916000908260208201818036833701905050905060006129f162ffffff1988166135c0565b612a0062ffffff1989166135d4565b612a0f62ffffff198a166135e9565b612a2c612a2162ffffff198c166135fe565b62ffffff191661362c565b604051602401612a3f9493929190614120565b60408051601f198184030181529190526020810180516001600160e01b031663ab2dc3f560e01b1790529050612a79858560008685613675565b604051919950925086907fd42de95a9b26f1be134c8ecce389dc4fcfa18753d01661b7b361233569e8fe4890612ab2908b908690614159565b60405180910390a250505050505050919050565b600354604080516001600160a01b03928316815291831660208301527fc77bec288fc88f168427f2f7da682eadb26cac89d8d591af6e443da98dff2bbc910160405180910390a1600380546001600160a01b0319166001600160a01b0392909216919091179055565b80471015612b7f5760405162461bcd60e51b815260206004820152601d60248201527f416464726573733a20696e73756666696369656e742062616c616e63650000006044820152606401610ea7565b6000826001600160a01b03168260405160006040518083038185875af1925050503d8060008114612bcc576040519150601f19603f3d011682016040523d82523d6000602084013e612bd1565b606091505b5050905080612c485760405162461bcd60e51b815260206004820152603a60248201527f416464726573733a20756e61626c6520746f2073656e642076616c75652c207260448201527f6563697069656e74206d617920686176652072657665727465640000000000006064820152608401610ea7565b505050565b60145460408051918252602082018390527f877a02cb809da0364d23adca3cd50c451b53f279d3df632e1fc11eb66335bce5910160405180910390a1601455565b612c96612370565b6003805460ff60a01b1916600160a01b1790557f62e78cea01bee320cd4e420270b5ea74000d11b0c9f74754ebdbfc544b05a2586124b53390565b42600255600180546001600160a01b0319166001600160a01b0383169081179091556040517f6ab4d119f23076e8ad491bc65ce85f017fb0591dce08755ba8591059cc51737a90600090a250565b600080546040516001600160a01b03808516939216917f8be0079c531659141344cd1fd0a4f28419497f9722a3daafe3b4186f6b6457e091a3600080546001600160a01b039092166001600160a01b0319928316178155600255600180549091169055565b6000611fc37f000000000000000000000000000000000000000000000000000000000000000083613700565b6005548103612df35760405162461bcd60e51b815260206004820152600f60248201526e085b995dc81c985d19481b1a5b5a5d608a1b6044820152606401610ea7565b600581905560408051338152602081018390527f8e7fa5e406cb856aab05575e45ea011c6748376cc1b5229e3d67b92986406a159101611190565b6060868686868686604051602001612e4b96959493929190614174565b60405160208183030381529060405290509695505050505050565b8151602014612ea65760405162461bcd60e51b815260206004820152600c60248201526b042c8c2e8c240d8cadccee8d60a31b6044820152606401610ea7565b6003546001600160a01b037f0000000000000000000000000000000000000000000000000000000000000000811691633dbb202b911684612ee6856137c1565b6040518463ffffffff1660e01b8152600401612f04939291906141ce565b600060405180830381600087803b158015612f1e57600080fd5b505af1158015612f32573d6000803e3d6000fd5b505050505050565b60125460ff1615612f5e5760405163f8bc6d7d60e01b815260040160405180910390fd5b80612f9c5760405162461bcd60e51b815260206004820152600e60248201526d6e657720726f6f7420656d70747960901b6044820152606401610ea7565b60008181526009602052604090205415612fef5760405162461bcd60e51b8152602060048201526014602482015273726f6f7420616c72656164792070656e64696e6760601b6044820152606401610ea7565b6000818152600a602052604090205460ff16156130445760405162461bcd60e51b81526020600482015260136024820152723937b7ba1030b63932b0b23c90383937bb32b760691b6044820152606401610ea7565b6000818152600960205260408082204390555182917f84ef18531155afdb0e64ff905d67044ae3aac63a6fba4661cfd9c4c14f289bc891a250565b6020600582811b8216948552835194820394909452604060008181206002851615871b808503919091528386015190528181206004851615871b808503919091528286015190528181206008851615871b80850391909152606086015190528181206010851615871b8085039190915260808087015190915282822084861615881b8086039190915260a0870151905282822083861615881b8086039190915260c0870151905282822090851615871b8085039190915260e0860151905281812061010080861615881b80860392909252860151905281812061020080861615881b80860392909252610120870151909152828220610400861615881b808603919091526101408701519052828220610800861615881b808603919091526101608701519052828220611000861615881b808603919091526101808701519052828220612000861615881b808603919091526101a08701519052828220614000861615881b808603919091526101c08701519052828220618000861615881b808603919091526101e0870151905282822062010000861615881b8086039190915290860151905281812062020000851615871b80850391909152610220860151905281812062040000851615871b80850391909152610240860151905281812062080000851615871b80850391909152610260860151905281812062100000851615871b80850391909152610280860151905281812062200000851615871b808503919091526102a0860151905281812062400000851615871b808503919091526102c0860151905281812062800000851615871b808503919091526102e086015190528181206301000000851615871b8085039190915261030086015190528181206302000000851615871b8085039190915261032086015190528181206304000000851615871b8085039190915261034086015190528181206308000000851615871b8085039190915261036086015190528181206310000000851615871b8085039190915261038086015190528181206320000000851615871b808503919091526103a086015190528181206340000000851615871b808503919091526103c0860151905281812063800000009094161590951b91829003929092526103e090920151909152902090565b806134105760405162461bcd60e51b8152602060048201526013602482015272616767726567617465526f6f7420656d70747960681b6044820152606401610ea7565b6000818152600a602052604090205460ff161561342a5750565b600081815260096020526040812054908190036134805760405162461bcd60e51b81526020600482015260146024820152731859d9dc9959d85d19549bdbdd0808595e1a5cdd60621b6044820152606401610ea7565b60085461348d824361401d565b10156134db5760405162461bcd60e51b815260206004820152601760248201527f616767726567617465526f6f74202176657269666965640000000000000000006044820152606401610ea7565b6000828152600a6020526040808220805460ff191660011790555183917f36b314aba9f663b4d3ef3288ae489341cc5e6a2725a05fa2b72df7a27e03f42a91a250600090815260096020526040812055565b81516000906020840161354864ffffffffff8516828461381f565b95945050505050565b6000611fc362ffffff1983166028600461385c565b60008061357c8360781c6001600160601b031690565b6001600160601b03169050600061359c8460181c6001600160601b031690565b6001600160601b03169091209392505050565b6000611fc36135bd8361388c565b90565b6000611fc362ffffff19831682600461385c565b6000611fc362ffffff1983166024600461385c565b6000611fc362ffffff1983166004602061389d565b6000611fc3604c61361c81601886901c6001600160601b031661401d565b62ffffff198516919060006139a8565b60606000806136448460181c6001600160601b031690565b6001600160601b0316905060405191508192506136648483602001613a24565b508181016020016040529052919050565b6000606060008060008661ffff1667ffffffffffffffff81111561369b5761369b613c86565b6040519080825280601f01601f1916602001820160405280156136c5576020820181803683370190505b5090506000808751602089018b8e8ef191503d9250868311156136e6578692505b828152826000602083013e90999098509650505050505050565b6000336001600160a01b038416146137445760405162461bcd60e51b81526020600482015260076024820152662162726964676560c81b6044820152606401610ea7565b816001600160a01b0316836001600160a01b0316636e296e456040518163ffffffff1660e01b8152600401602060405180830381865afa15801561378c573d6000803e3d6000fd5b505050506040513d601f19601f820116820180604052508101906137b09190614208565b6001600160a01b0316149392505050565b600081516020146138035760405162461bcd60e51b815260206004820152600c60248201526b042c8c2e8c240d8cadccee8d60a31b6044820152606401610ea7565b611fc38280602001905181019061381a9190613f23565b613b17565b60008061382c8385613f10565b905060405181111561383c575060005b806000036138515762ffffff199150506126df565b613548858585613b2d565b6000613869826020614225565b61387490600861423e565b60ff1661388285858561389d565b901c949350505050565b6000611fc362ffffff198316602c60205b60008160ff166000036138b2575060006126df565b6138c58460181c6001600160601b031690565b6001600160601b03166138db60ff841685613f10565b1115613943576138f48460781c6001600160601b031690565b6139078560181c6001600160601b031690565b6040516378218d2960e01b81526001600160601b039283166004820152911660248201526044810184905260ff83166064820152608401610ea7565b60208260ff1611156139685760405163045df3f960e01b815260040160405180910390fd5b6008820260006139818660781c6001600160601b031690565b6001600160601b031690506000600160ff1b60001984011d91909501511695945050505050565b6000806139be8660781c6001600160601b031690565b6001600160601b031690506139d286613ba4565b846139dd8784613f10565b6139e79190613f10565b11156139fa5762ffffff19915050613a1c565b613a048582613f10565b9050613a188364ffffffffff16828661381f565b9150505b949350505050565b600062ffffff1980841603613a4c5760405163148d513360e21b815260040160405180910390fd5b613a5583613bdd565b15613a7357604051632ee0949160e11b815260040160405180910390fd5b6000613a888460181c6001600160601b031690565b6001600160601b031690506000613aa88560781c6001600160601b031690565b6001600160601b03169050600080604051915085821115613ac95760206060fd5b8386858560045afa905080613af157604051632af1bd9b60e21b815260040160405180910390fd5b613b0c613afe8860d81c90565b64ffffffffff168786613b2d565b979650505050505050565b6000601454821115613b295760145491505b5090565b60006060601883856001600160601b03821682148015613b55575086816001600160601b0316145b613b8e5760405162461bcd60e51b815260206004820152600a602482015269085d1c9d5b98d85d195960b21b6044820152606401610ea7565b96831b90961790911b90941790931b9392505050565b6000613bb98260181c6001600160601b031690565b613bcc8360781c6001600160601b031690565b016001600160601b03169050919050565b6000613be98260d81c90565b64ffffffffff1664ffffffffff03613c0357506001919050565b6000613c0e83613ba4565b604051109392505050565b6001600160a01b038116811461155557600080fd5b600060208284031215613c4057600080fd5b81356126df81613c19565b60008060408385031215613c5e57600080fd5b50508035926020909101359150565b600060208284031215613c7f57600080fd5b5035919050565b634e487b7160e01b600052604160045260246000fd5b600082601f830112613cad57600080fd5b813567ffffffffffffffff80821115613cc857613cc8613c86565b604051601f8301601f19908116603f01168101908282118183101715613cf057613cf0613c86565b81604052838152866020858801011115613d0957600080fd5b836020870160208301376000602085830101528094505050505092915050565b600060208284031215613d3b57600080fd5b813567ffffffffffffffff811115613d5257600080fd5b613a1c84828501613c9c565b60008060008060006104608688031215613d7757600080fd5b853567ffffffffffffffff80821115613d8f57600080fd5b818801915088601f830112613da357600080fd5b813581811115613db257600080fd5b8960208260051b8501011115613dc757600080fd5b602092830197509550508601359250610440860187811115613de857600080fd5b94979396509194604001933592915050565b600080600060608486031215613e0f57600080fd5b505081359360208301359350604090920135919050565b63ffffffff8116811461155557600080fd5b600080600060608486031215613e4d57600080fd5b8335613e5881613e26565b925060208401359150604084013567ffffffffffffffff811115613e7b57600080fd5b613e8786828701613c9c565b9150509250925092565b60005b83811015613eac578181015183820152602001613e94565b50506000910152565b60008151808452613ecd816020860160208601613e91565b601f01601f19169290920160200192915050565b8281526040602082015260006126dc6040830184613eb5565b634e487b7160e01b600052601160045260246000fd5b80820180821115611fc357611fc3613efa565b600060208284031215613f3557600080fd5b5051919050565b604081526000613f4f6040830185613eb5565b905060018060a01b03831660208301529392505050565b634e487b7160e01b600052603260045260246000fd5b6000823561043e19833603018112613f9357600080fd5b9190910192915050565b6000808335601e19843603018112613fb457600080fd5b83018035915067ffffffffffffffff821115613fcf57600080fd5b602001915036819003821315613fe457600080fd5b9250929050565b8183823760009101908152919050565b60006020828403121561400d57600080fd5b815180151581146126df57600080fd5b81810381811115611fc357611fc3613efa565b60006020828403121561404257600080fd5b81516126df81613e26565b6000806040838503121561406057600080fd5b505080516020909101519092909150565b6020815260006126df6020830184613eb5565b6060815260006140976060830186613eb5565b82810360208401526140a98186613eb5565b91505060018060a01b0383166040830152949350505050565b805160208083015191908110156140e3576000198160200360031b1b821691505b50919050565b634e487b7160e01b600052602160045260246000fd5b60006020828403121561411157600080fd5b8151600381106126df57600080fd5b600063ffffffff80871683528086166020840152508360408301526080606083015261414f6080830184613eb5565b9695505050505050565b82151581526040602082015260006126dc6040830184613eb5565b600063ffffffff60e01b808960e01b168352876004840152808760e01b166024840152808660e01b1660288401525083602c83015282516141bc81604c850160208701613e91565b91909101604c01979650505050505050565b6001600160a01b03841681526060602082018190526000906141f290830185613eb5565b905063ffffffff83166040830152949350505050565b60006020828403121561421a57600080fd5b81516126df81613c19565b60ff8281168282160390811115611fc357611fc3613efa565b60ff818116838216029081169081811461425a5761425a613efa565b509291505056fea264697066735822122062e3690046b6a10c8bf370abd64d334083a37d2a1ab942c18d18d15bd7477cc664736f6c63430008110033",
  "devdoc": {
    "kind": "dev",
    "methods": {
      "activateSlowMode()": {
        "details": "Sets the proposed aggregate root hash to FINALIZED_HASH, invalidating it."
      },
      "addProposer(address)": {
        "details": "Only allowlisted proposers can call `proposeAggregateRoot`."
      },
      "addSender(address)": {
        "details": "Only allowlisted routers (senders) can call `dispatch`.",
        "params": {
          "_sender": "Sender to whitelist"
        }
      },
      "dispatch(uint32,bytes32,bytes)": {
        "details": "The root of this tree will eventually be dispatched to mainnet via `send`. On mainnet (the \"hub\"), it will be combined into a single aggregate root by RootManager (along with outbound roots from other chains). This aggregate root will be redistributed to all destination chains.This function is also in charge of saving the snapshot root when needed. If the message being added to the tree is the first of the current period this means the last snapshot finished and its root must be saved. The saving happens before adding the new message to the tree. NOTE: okay to leave dispatch operational when paused as pause is designed for crosschain interactions",
        "params": {
          "_destinationDomain": "Domain message is intended for",
          "_messageBody": "Message contents",
          "_recipientAddress": "Address for message recipient"
        }
      },
      "finalize(bytes32,uint256,uint256)": {
        "details": "Finalized roots won't be monitored by off-chain agents as they are deemed valid.",
        "params": {
          "_endOfDispute": "The block in which the dispute period for proposedAggregateRootHash concludes",
          "_proposedAggregateRoot": "The aggregate root currently proposed"
        }
      },
      "getLastCompletedSnapshotId()": {
        "details": "The value is calculated through an internal function to reuse code and save gas",
        "returns": {
          "_lastCompletedSnapshotId": "The last completed snapshot id"
        }
      },
      "getSnapshotDuration()": {
        "returns": {
          "_snapshotDuration": "The duration of the snapshot"
        }
      },
      "home()": {
        "details": "The local inbox contract is a SpokeConnector with AMBs, and a Home contract with nomad",
        "returns": {
          "_0": "The local inbox contract"
        }
      },
      "isReplica(address)": {
        "returns": {
          "_0": "True if _potentialReplica is an enrolled Replica"
        }
      },
      "paused()": {
        "details": "Returns true if the contract is paused, and false otherwise."
      },
      "processMessage(bytes)": {
        "details": "This is called by AMBs to process messages originating from mirror connector"
      },
      "proposeAggregateRoot(bytes32,uint256)": {
        "details": "_rootTimestamp is required for off-chain agents to be able to know which root they should fetch from the root manager contract                     in order to compare it with the one being proposed. The off-chain agents should also ensure the proposed root is                     not an old one.",
        "params": {
          "_aggregateRoot": "The aggregate root to propose.",
          "_rootTimestamp": "Block.timestamp at which the root was finalized in the root manager contract."
        }
      },
      "proveAndProcess((bytes,bytes32[32],uint256)[],bytes32,bytes32[32],uint256)": {
        "details": "Currently, ALL messages in a given batch must path to the same shared inboundRoot, meaning they must all share an origin. See open TODO below for a potential solution to enable multi-origin batches.Intended to be called by the relayer at specific intervals during runtime.Will record a calculated root as having been proven if we've already proven that it was included in the aggregateRoot.",
        "params": {
          "_aggregateIndex": "Index of the inbound root in the aggregator's merkle tree in the hub.",
          "_aggregatePath": "Merkle path of inclusion for the inbound root.",
          "_aggregateRoot": "The target aggregate root we want to prove inclusion for. This root must have already been delivered to this spoke connector contract and surpassed the validation period.",
          "_proofs": "Batch of Proofs containing messages for proving/processing."
        }
      },
      "removePendingAggregateRoot(bytes32)": {
        "details": "This method is required for handling fraud cases in the current construction. Specifically, this will protect against a fraudulent aggregate root getting transported, not fraudulent roots that constitute a given aggregate root (i.e. can protect against fraudulent hub -> spoke transport, not spoke -> hub transport).",
        "params": {
          "_fraudulentRoot": "Target fraudulent root that should be erased from the `pendingAggregateRoots` mapping."
        }
      },
      "removeProposer(address)": {
        "details": "Only allowlisted proposers can call `proposeAggregateRoot`."
      },
      "removeSender(address)": {
        "details": "Only allowlisted routers (senders) can call `dispatch`.",
        "params": {
          "_sender": "Sender to remove from whitelist"
        }
      },
      "send(bytes)": {
        "params": {
          "_encodedData": "Data needed to send crosschain message by associated amb"
        }
      },
      "setDelayBlocks(uint256)": {
        "params": {
          "_delayBlocks": "Updated delay block value"
        }
      },
      "setRateLimitBlocks(uint256)": {
        "details": "Rate limit is used to mitigate DoS vectors. (See `RateLimited` for more info.)",
        "params": {
          "_rateLimit": "The number of blocks require between sending messages. If set to 0, rate limiting for this spoke connector will be disabled."
        }
      },
      "withdrawFunds(address)": {
        "details": "Withdraws the entire balance of the contract.",
        "params": {
          "_to": "The recipient of the funds withdrawn"
        }
      }
    },
    "version": 1
  },
  "userdoc": {
    "events": {
      "AggregateRootProposed(bytes32,uint256,uint256,uint32)": {
        "notice": "Emitted when a new aggregate root is proposed"
      },
      "AggregateRootReceived(bytes32)": {
        "notice": "Emitted when a new aggregate root is delivered from the hub"
      },
      "AggregateRootRemoved(bytes32)": {
        "notice": "Emitted when a proposed aggregate root is removed by admin"
      },
      "AggregateRootVerified(bytes32)": {
        "notice": "Emitted when an aggregate root has made it through the fraud period without being disputed"
      },
      "DelayBlocksUpdated(uint256,address)": {
        "notice": "Emitted when the admin updates the delay blocks"
      },
      "Dispatch(bytes32,uint256,bytes32,bytes)": {
        "notice": "Emitted when a message is sent (leaf added to outbound root)"
      },
      "DisputeBlocksUpdated(uint256,uint256)": {
        "notice": "Emitted when the number of dispute blocks is updated"
      },
      "FundsWithdrawn(address,uint256)": {
        "notice": "Emitted when funds are withdrawn by the admin"
      },
      "GasCapUpdated(uint256,uint256)": {
        "notice": "Emitted when admin updates the gas cap"
      },
      "MessageProcessed(bytes,address)": {
        "notice": "Emitted whenever a message is successfully received over an AMB"
      },
      "MessageProven(bytes32,bytes32,uint256)": {
        "notice": "Emitted when a message (outbound root from different spoke) is proven against the aggregate root"
      },
      "MessageSent(bytes,bytes,address)": {
        "notice": "Emitted whenever a message is successfully sent over an AMB"
      },
      "MinDisputeBlocksUpdated(uint256,uint256)": {
        "notice": "Emitted whem the number of minimum dispute blocks is updated"
      },
      "OptimisticModeActivated()": {
        "notice": "Emitted when optimistic mode is activated"
      },
      "PendingAggregateRootDeleted(bytes32)": {
        "notice": "Emitted when a pending aggregate root is deleted from the pendingAggregateRoots mapping"
      },
      "Process(bytes32,bool,bytes)": {
        "notice": "Emitted when a message is handled (this is the destination domain)"
      },
      "ProposedRootFinalized(bytes32)": {
        "notice": "Emitted when the current proposed root is finalized"
      },
      "ProposerAdded(address)": {
        "notice": "Emitted when a new proposer is added"
      },
      "ProposerRemoved(address)": {
        "notice": "Emitted when a proposer is removed"
      },
      "SenderAdded(address)": {
        "notice": "Emitted when a new sender is whitelisted for messaging"
      },
      "SenderRemoved(address)": {
        "notice": "Emitted when a new sender is de-whitelisted for messaging"
      },
      "SlowModeActivated(address)": {
        "notice": "Emitted when slow mode is activated"
      },
      "WatcherManagerChanged(address)": {
        "notice": "Emitted when the manager address changes"
      }
    },
    "kind": "user",
    "methods": {
      "AMB()": {
        "notice": "Address of the AMB on this domain."
      },
      "DOMAIN()": {
        "notice": "The domain of this Messaging (i.e. Connector) contract."
      },
      "FINALIZED_HASH()": {
        "notice": "Hash used to keep the proposal slot warm once a given proposal has been finalized."
      },
      "MERKLE()": {
        "notice": "MerkleTreeManager contract instance. Will hold the active tree of message hashes, whose root will be sent crosschain to the hub for aggregation and redistribution."
      },
      "MIRROR_DOMAIN()": {
        "notice": "The domain of the corresponding messaging (i.e. Connector) contract."
      },
      "PROCESS_GAS()": {
        "notice": "Minimum gas for processing a received message (reserved for handle)"
      },
      "RESERVE_GAS()": {
        "notice": "Reserved gas (to ensure tx completes in case message processing runs out)"
      },
      "ROOT_MANAGER()": {
        "notice": "RootManager contract address."
      },
      "acceptProposedOwner()": {
        "notice": "Transfers ownership of the contract to a new account (`newOwner`). Can only be called by the current owner."
      },
      "activateOptimisticMode()": {
        "notice": "Owner can set the system to optimistic mode."
      },
      "activateSlowMode()": {
        "notice": "Watcher can set the system in slow mode."
      },
      "addProposer(address)": {
        "notice": "Adds a proposer to the allowlist."
      },
      "addSender(address)": {
        "notice": "Adds a sender to the allowlist."
      },
      "allowlistedProposers(address)": {
        "notice": "This is used for the `onlyProposers` modifier, which gates who can propose new roots using `proposeAggregateRoot`."
      },
      "allowlistedSenders(address)": {
        "notice": "Records all whitelisted senders"
      },
      "delay()": {
        "notice": "Returns the delay period before a new owner can be accepted."
      },
      "delayBlocks()": {
        "notice": "Number of blocks to delay the processing of a message to allow for watchers to verify the validity and pause if necessary."
      },
      "dispatch(uint32,bytes32,bytes)": {
        "notice": "This function adds transfers to the outbound transfer merkle tree."
      },
      "finalize(bytes32,uint256,uint256)": {
        "notice": "Finalizes the proposed aggregate root. This confirms the root validity. Therefore, it can be proved and processed."
      },
      "gasCap()": {
        "notice": "The gnosis amb requires destination gas to be specified on the origin. The gas used will be passed in by the relayer to allow for real-time estimates, but will be capped at the admin-set cap."
      },
      "getLastCompletedSnapshotId()": {
        "notice": "This function gets the last completed snapshot id"
      },
      "getSnapshotDuration()": {
        "notice": "Get the duration of the snapshot"
      },
      "home()": {
        "notice": "Get the local inbox contract from the xAppConnectionManager"
      },
      "isReplica(address)": {
        "notice": "Determine whether _potentialReplica is an enrolled Replica from the xAppConnectionManager"
      },
      "lastSentBlock()": {
        "notice": "Tracks the last block that we sent a message."
      },
      "localDomain()": {
        "notice": "This provides the implementation for what is defined in the ConnectorManager to avoid storing the domain redundantly"
      },
      "minDisputeBlocks()": {
        "notice": "The minimum number of blocks disputeBlocks can be set to."
      },
      "mirrorConnector()": {
        "notice": "Connector on L2 for L1 connectors, and vice versa."
      },
      "optimisticMode()": {
        "notice": "True if the system is working in optimistic mode. Otherwise is working in slow mode"
      },
      "outboundRoot()": {
        "notice": "This returns the root of all messages with the origin domain as this domain (i.e. all outbound messages)"
      },
      "owner()": {
        "notice": "Returns the address of the current owner."
      },
      "pause()": {
        "notice": "Watchers can pause contracts if fraud is detected"
      },
      "pendingAggregateRoots(bytes32)": {
        "notice": "This will hold the commit block for incoming aggregateRoots from the hub chain. Once they are verified, (i.e. have surpassed the verification period in `delayBlocks`) they can be used for proving inclusion of crosschain messages."
      },
      "processMessage(bytes)": {
        "notice": "Processes a message received by an AMB"
      },
      "proposeAggregateRoot(bytes32,uint256)": {
        "notice": "Propose a new aggregate root"
      },
      "proposeNewOwner(address)": {
        "notice": "Sets the timestamp for an owner to be proposed, and sets the newly proposed owner as step 1 in a 2-step process"
      },
      "proposed()": {
        "notice": "Returns the address of the proposed owner."
      },
      "proposedAggregateRootHash()": {
        "notice": "The resulting hash of keccaking the proposed aggregate root, the timestamp at which it was finalized in the root manager      and the block at which the time to dispute it ends."
      },
      "proposedTimestamp()": {
        "notice": "Returns the address of the proposed owner."
      },
      "proveAndProcess((bytes,bytes32[32],uint256)[],bytes32,bytes32[32],uint256)": {
        "notice": "Must be able to call the `handle` function on the BridgeRouter contract. This is called on the destination domain to handle incoming messages. Proving: Calculates the expected inbound root from an origin chain given a leaf (message hash), the index of the leaf, and the merkle proof of inclusion (path). Next, we check to ensure that this calculated inbound root is included in the current aggregateRoot, given its index in the aggregator tree and the proof of inclusion. Processing: After all messages have been proven, we dispatch each message to Connext (BridgeRouter) for execution."
      },
      "provenAggregateRoots(bytes32)": {
        "notice": "This tracks the roots of the aggregate tree containing outbound roots from all other supported domains. The current version is the one that is known to be past the delayBlocks time period."
      },
      "provenMessageRoots(bytes32)": {
        "notice": "This tracks whether the root has been proven to exist within the given aggregate root."
      },
      "rateLimitBlocks()": {
        "notice": "The number of blocks required between message sending events."
      },
      "removePendingAggregateRoot(bytes32)": {
        "notice": "Manually remove a pending aggregateRoot by owner if the contract is paused."
      },
      "removeProposer(address)": {
        "notice": "Removes a proposer from the allowlist."
      },
      "removeSender(address)": {
        "notice": "Removes a sender from the allowlist."
      },
      "renounceOwnership()": {
        "notice": "Should not be able to renounce ownership"
      },
      "renounced()": {
        "notice": "Indicates if the ownership has been renounced() by checking if current owner is address(0)"
      },
      "send(bytes)": {
        "notice": "This dispatches outbound root to hub via AMB"
      },
      "sentMessageRoots(bytes32)": {
        "notice": "This mapping records all message roots that have already been sent in order to prevent redundant message roots from being sent to hub."
      },
      "setDelayBlocks(uint256)": {
        "notice": "Set the `delayBlocks`, the period in blocks over which an incoming message is verified."
      },
      "setDisputeBlocks(uint256)": {
        "notice": "Set the `disputeBlocks`, the duration, in blocks, of the dispute process for a given proposed root"
      },
      "setMinDisputeBlocks(uint256)": {
        "notice": "Set the `minDisputeBlocks` variable to the provided parameter."
      },
      "setMirrorConnector(address)": {
        "notice": "Sets the address of the l2Connector for this domain"
      },
      "setRateLimitBlocks(uint256)": {
        "notice": "Set the rate limit (number of blocks) at which we can send messages from this contract to the hub chain using the `send` method."
      },
      "setWatcherManager(address)": {
        "notice": "Owner can enroll a watcher (abilities are defined by inheriting contracts)"
      },
      "snapshotRoots(uint256)": {
        "notice": "Mapping of the snapshot roots for a specific index. Used for data availability for off-chain scripts"
      },
      "unpause()": {
        "notice": "Owner can unpause contracts if fraud is detected by watchers"
      },
      "verifySender(address)": {
        "notice": "Checks the cross domain sender for a given address"
      },
      "watcherManager()": {
        "notice": "The `WatcherManager` contract governs the watcher allowlist."
      },
      "withdrawFunds(address)": {
        "notice": "This function should be callable by owner, and send funds trapped on a connector to the provided recipient."
      }
    },
    "version": 1
  },
  "storageLayout": {
    "storage": [
      {
        "astId": 49365,
        "contract": "contracts/messaging/connectors/optimism/OptimismSpokeConnector.sol:OptimismSpokeConnector",
        "label": "_owner",
        "offset": 0,
        "slot": "0",
        "type": "t_address"
      },
      {
        "astId": 49367,
        "contract": "contracts/messaging/connectors/optimism/OptimismSpokeConnector.sol:OptimismSpokeConnector",
        "label": "_proposed",
        "offset": 0,
        "slot": "1",
        "type": "t_address"
      },
      {
        "astId": 49369,
        "contract": "contracts/messaging/connectors/optimism/OptimismSpokeConnector.sol:OptimismSpokeConnector",
        "label": "_proposedOwnershipTimestamp",
        "offset": 0,
        "slot": "2",
        "type": "t_uint256"
      },
      {
        "astId": 34491,
        "contract": "contracts/messaging/connectors/optimism/OptimismSpokeConnector.sol:OptimismSpokeConnector",
        "label": "mirrorConnector",
        "offset": 0,
        "slot": "3",
        "type": "t_address"
      },
      {
        "astId": 2738,
        "contract": "contracts/messaging/connectors/optimism/OptimismSpokeConnector.sol:OptimismSpokeConnector",
        "label": "_paused",
        "offset": 20,
        "slot": "3",
        "type": "t_bool"
      },
      {
        "astId": 34245,
        "contract": "contracts/messaging/connectors/optimism/OptimismSpokeConnector.sol:OptimismSpokeConnector",
        "label": "watcherManager",
        "offset": 0,
        "slot": "4",
        "type": "t_contract(WatcherManager)34436"
      },
      {
        "astId": 49270,
        "contract": "contracts/messaging/connectors/optimism/OptimismSpokeConnector.sol:OptimismSpokeConnector",
        "label": "rateLimitBlocks",
        "offset": 0,
        "slot": "5",
        "type": "t_uint256"
      },
      {
        "astId": 49273,
        "contract": "contracts/messaging/connectors/optimism/OptimismSpokeConnector.sol:OptimismSpokeConnector",
        "label": "lastSentBlock",
        "offset": 0,
        "slot": "6",
        "type": "t_uint256"
      },
      {
        "astId": 2839,
        "contract": "contracts/messaging/connectors/optimism/OptimismSpokeConnector.sol:OptimismSpokeConnector",
        "label": "_status",
        "offset": 0,
        "slot": "7",
        "type": "t_uint256"
      },
      {
        "astId": 35129,
        "contract": "contracts/messaging/connectors/optimism/OptimismSpokeConnector.sol:OptimismSpokeConnector",
        "label": "delayBlocks",
        "offset": 0,
        "slot": "8",
        "type": "t_uint256"
      },
      {
        "astId": 35144,
        "contract": "contracts/messaging/connectors/optimism/OptimismSpokeConnector.sol:OptimismSpokeConnector",
        "label": "pendingAggregateRoots",
        "offset": 0,
        "slot": "9",
        "type": "t_mapping(t_bytes32,t_uint256)"
      },
      {
        "astId": 35149,
        "contract": "contracts/messaging/connectors/optimism/OptimismSpokeConnector.sol:OptimismSpokeConnector",
        "label": "provenAggregateRoots",
        "offset": 0,
        "slot": "10",
        "type": "t_mapping(t_bytes32,t_bool)"
      },
      {
        "astId": 35154,
        "contract": "contracts/messaging/connectors/optimism/OptimismSpokeConnector.sol:OptimismSpokeConnector",
        "label": "provenMessageRoots",
        "offset": 0,
        "slot": "11",
        "type": "t_mapping(t_bytes32,t_bool)"
      },
      {
        "astId": 35159,
        "contract": "contracts/messaging/connectors/optimism/OptimismSpokeConnector.sol:OptimismSpokeConnector",
        "label": "sentMessageRoots",
        "offset": 0,
        "slot": "12",
        "type": "t_mapping(t_bytes32,t_bool)"
      },
      {
        "astId": 35164,
        "contract": "contracts/messaging/connectors/optimism/OptimismSpokeConnector.sol:OptimismSpokeConnector",
        "label": "allowlistedSenders",
        "offset": 0,
        "slot": "13",
        "type": "t_mapping(t_address,t_bool)"
      },
      {
        "astId": 35169,
        "contract": "contracts/messaging/connectors/optimism/OptimismSpokeConnector.sol:OptimismSpokeConnector",
        "label": "snapshotRoots",
        "offset": 0,
        "slot": "14",
        "type": "t_mapping(t_uint256,t_bytes32)"
      },
      {
        "astId": 35173,
        "contract": "contracts/messaging/connectors/optimism/OptimismSpokeConnector.sol:OptimismSpokeConnector",
        "label": "proposedAggregateRootHash",
        "offset": 0,
        "slot": "15",
        "type": "t_bytes32"
      },
      {
        "astId": 35175,
        "contract": "contracts/messaging/connectors/optimism/OptimismSpokeConnector.sol:OptimismSpokeConnector",
        "label": "disputeBlocks",
        "offset": 0,
        "slot": "16",
        "type": "t_uint256"
      },
      {
        "astId": 35178,
        "contract": "contracts/messaging/connectors/optimism/OptimismSpokeConnector.sol:OptimismSpokeConnector",
        "label": "minDisputeBlocks",
        "offset": 0,
        "slot": "17",
        "type": "t_uint256"
      },
      {
        "astId": 35185,
        "contract": "contracts/messaging/connectors/optimism/OptimismSpokeConnector.sol:OptimismSpokeConnector",
        "label": "optimisticMode",
        "offset": 0,
        "slot": "18",
        "type": "t_bool"
      },
      {
        "astId": 35190,
        "contract": "contracts/messaging/connectors/optimism/OptimismSpokeConnector.sol:OptimismSpokeConnector",
        "label": "allowlistedProposers",
        "offset": 0,
        "slot": "19",
        "type": "t_mapping(t_address,t_bool)"
      },
      {
        "astId": 34776,
        "contract": "contracts/messaging/connectors/optimism/OptimismSpokeConnector.sol:OptimismSpokeConnector",
        "label": "gasCap",
        "offset": 0,
        "slot": "20",
        "type": "t_uint256"
      }
    ],
    "types": {
      "t_address": {
        "encoding": "inplace",
        "label": "address",
        "numberOfBytes": "20"
      },
      "t_bool": {
        "encoding": "inplace",
        "label": "bool",
        "numberOfBytes": "1"
      },
      "t_bytes32": {
        "encoding": "inplace",
        "label": "bytes32",
        "numberOfBytes": "32"
      },
      "t_contract(WatcherManager)34436": {
        "encoding": "inplace",
        "label": "contract WatcherManager",
        "numberOfBytes": "20"
      },
      "t_mapping(t_address,t_bool)": {
        "encoding": "mapping",
        "key": "t_address",
        "label": "mapping(address => bool)",
        "numberOfBytes": "32",
        "value": "t_bool"
      },
      "t_mapping(t_bytes32,t_bool)": {
        "encoding": "mapping",
        "key": "t_bytes32",
        "label": "mapping(bytes32 => bool)",
        "numberOfBytes": "32",
        "value": "t_bool"
      },
      "t_mapping(t_bytes32,t_uint256)": {
        "encoding": "mapping",
        "key": "t_bytes32",
        "label": "mapping(bytes32 => uint256)",
        "numberOfBytes": "32",
        "value": "t_uint256"
      },
      "t_mapping(t_uint256,t_bytes32)": {
        "encoding": "mapping",
        "key": "t_uint256",
        "label": "mapping(uint256 => bytes32)",
        "numberOfBytes": "32",
        "value": "t_bytes32"
      },
      "t_uint256": {
        "encoding": "inplace",
        "label": "uint256",
        "numberOfBytes": "32"
      }
    }
  }
}