{
  "_format": "hh-sol-artifact-1",
  "contractName": "ConnextUtils",
  "sourceName": "contracts/lib/Connext/ConnextUtils.sol",
  "abi": [
    {
      "inputs": [],
      "name": "ConnextUtils__addAssetId_alreadyAdded",
      "type": "error"
    },
    {
      "inputs": [],
      "name": "ConnextUtils__addRelayer_alreadyApproved",
      "type": "error"
    },
    {
      "inputs": [],
      "name": "ConnextUtils__bumpTransfer_invalidTransfer",
      "type": "error"
    },
    {
      "inputs": [],
      "name": "ConnextUtils__bumpTransfer_valueIsZero",
      "type": "error"
    },
    {
      "inputs": [],
      "name": "ConnextUtils__execute_alreadyExecuted",
      "type": "error"
    },
    {
      "inputs": [],
      "name": "ConnextUtils__execute_maxRoutersExceeded",
      "type": "error"
    },
    {
      "inputs": [],
      "name": "ConnextUtils__execute_notSupportedRouter",
      "type": "error"
    },
    {
      "inputs": [],
      "name": "ConnextUtils__execute_unapprovedRelayer",
      "type": "error"
    },
    {
      "inputs": [
        {
          "internalType": "bytes32",
          "name": "transferId",
          "type": "bytes32"
        }
      ],
      "name": "ConnextUtils__initiateClaim_notRelayer",
      "type": "error"
    },
    {
      "inputs": [],
      "name": "ConnextUtils__reconcile_alreadyReconciled",
      "type": "error"
    },
    {
      "inputs": [],
      "name": "ConnextUtils__reconcile_invalidAction",
      "type": "error"
    },
    {
      "inputs": [],
      "name": "ConnextUtils__removeAssetId_notAdded",
      "type": "error"
    },
    {
      "inputs": [],
      "name": "ConnextUtils__removeLiquidity_amountIsZero",
      "type": "error"
    },
    {
      "inputs": [],
      "name": "ConnextUtils__removeLiquidity_insufficientFunds",
      "type": "error"
    },
    {
      "inputs": [],
      "name": "ConnextUtils__removeLiquidity_recipientEmpty",
      "type": "error"
    },
    {
      "inputs": [],
      "name": "ConnextUtils__removeRelayer_notApproved",
      "type": "error"
    },
    {
      "inputs": [],
      "name": "ConnextUtils__setMaxRoutersPerTransfer_invalidMaxRoutersPerTransfer",
      "type": "error"
    },
    {
      "inputs": [],
      "name": "ConnextUtils__transferAssetFromContract_notNative",
      "type": "error"
    },
    {
      "inputs": [],
      "name": "ConnextUtils__transferAssetToContract_ethWithErcTransfer",
      "type": "error"
    },
    {
      "inputs": [],
      "name": "ConnextUtils__transferAssetToContract_notAmount",
      "type": "error"
    },
    {
      "inputs": [],
      "name": "ConnextUtils__xcall_emptyTo",
      "type": "error"
    },
    {
      "inputs": [],
      "name": "ConnextUtils__xcall_notSupportedAsset",
      "type": "error"
    },
    {
      "inputs": [],
      "name": "ConnextUtils__xcall_relayerFeeIsZero",
      "type": "error"
    },
    {
      "inputs": [],
      "name": "ConnextUtils__xcall_wrongDomain",
      "type": "error"
    },
    {
      "anonymous": false,
      "inputs": [
        {
          "indexed": false,
          "internalType": "bytes32",
          "name": "canonicalId",
          "type": "bytes32"
        },
        {
          "indexed": false,
          "internalType": "uint32",
          "name": "domain",
          "type": "uint32"
        },
        {
          "indexed": false,
          "internalType": "address",
          "name": "adoptedAsset",
          "type": "address"
        },
        {
          "indexed": false,
          "internalType": "address",
          "name": "supportedAsset",
          "type": "address"
        },
        {
          "indexed": false,
          "internalType": "address",
          "name": "caller",
          "type": "address"
        }
      ],
      "name": "AssetAdded",
      "type": "event"
    },
    {
      "anonymous": false,
      "inputs": [
        {
          "indexed": false,
          "internalType": "bytes32",
          "name": "canonicalId",
          "type": "bytes32"
        },
        {
          "indexed": false,
          "internalType": "address",
          "name": "caller",
          "type": "address"
        }
      ],
      "name": "AssetRemoved",
      "type": "event"
    },
    {
      "anonymous": false,
      "inputs": [
        {
          "indexed": true,
          "internalType": "address",
          "name": "recipient",
          "type": "address"
        },
        {
          "indexed": false,
          "internalType": "uint256",
          "name": "total",
          "type": "uint256"
        },
        {
          "indexed": false,
          "internalType": "bytes32[]",
          "name": "transferIds",
          "type": "bytes32[]"
        }
      ],
      "name": "Claimed",
      "type": "event"
    },
    {
      "anonymous": false,
      "inputs": [
        {
          "indexed": true,
          "internalType": "bytes32",
          "name": "transferId",
          "type": "bytes32"
        },
        {
          "indexed": true,
          "internalType": "address",
          "name": "to",
          "type": "address"
        },
        {
          "components": [
            {
              "components": [
                {
                  "internalType": "address",
                  "name": "to",
                  "type": "address"
                },
                {
                  "internalType": "bytes",
                  "name": "callData",
                  "type": "bytes"
                },
                {
                  "internalType": "uint32",
                  "name": "originDomain",
                  "type": "uint32"
                },
                {
                  "internalType": "uint32",
                  "name": "destinationDomain",
                  "type": "uint32"
                }
              ],
              "internalType": "struct IConnext.CallParams",
              "name": "params",
              "type": "tuple"
            },
            {
              "internalType": "address",
              "name": "local",
              "type": "address"
            },
            {
              "internalType": "address[]",
              "name": "routers",
              "type": "address[]"
            },
            {
              "internalType": "uint256",
              "name": "amount",
              "type": "uint256"
            },
            {
              "internalType": "uint256",
              "name": "nonce",
              "type": "uint256"
            },
            {
              "internalType": "address",
              "name": "originSender",
              "type": "address"
            }
          ],
          "indexed": false,
          "internalType": "struct IConnext.ExecuteArgs",
          "name": "args",
          "type": "tuple"
        },
        {
          "indexed": false,
          "internalType": "address",
          "name": "transactingAsset",
          "type": "address"
        },
        {
          "indexed": false,
          "internalType": "uint256",
          "name": "transactingAmount",
          "type": "uint256"
        },
        {
          "indexed": false,
          "internalType": "address",
          "name": "caller",
          "type": "address"
        }
      ],
      "name": "Executed",
      "type": "event"
    },
    {
      "anonymous": false,
      "inputs": [
        {
          "indexed": true,
          "internalType": "uint32",
          "name": "domain",
          "type": "uint32"
        },
        {
          "indexed": true,
          "internalType": "address",
          "name": "recipient",
          "type": "address"
        },
        {
          "indexed": false,
          "internalType": "address",
          "name": "caller",
          "type": "address"
        },
        {
          "indexed": false,
          "internalType": "bytes32[]",
          "name": "transferIds",
          "type": "bytes32[]"
        }
      ],
      "name": "InitiatedClaim",
      "type": "event"
    },
    {
      "anonymous": false,
      "inputs": [
        {
          "indexed": true,
          "internalType": "address",
          "name": "router",
          "type": "address"
        },
        {
          "indexed": false,
          "internalType": "address",
          "name": "local",
          "type": "address"
        },
        {
          "indexed": false,
          "internalType": "bytes32",
          "name": "canonicalId",
          "type": "bytes32"
        },
        {
          "indexed": false,
          "internalType": "uint256",
          "name": "amount",
          "type": "uint256"
        },
        {
          "indexed": false,
          "internalType": "address",
          "name": "caller",
          "type": "address"
        }
      ],
      "name": "LiquidityAdded",
      "type": "event"
    },
    {
      "anonymous": false,
      "inputs": [
        {
          "indexed": true,
          "internalType": "address",
          "name": "router",
          "type": "address"
        },
        {
          "indexed": false,
          "internalType": "address",
          "name": "to",
          "type": "address"
        },
        {
          "indexed": false,
          "internalType": "address",
          "name": "local",
          "type": "address"
        },
        {
          "indexed": false,
          "internalType": "uint256",
          "name": "amount",
          "type": "uint256"
        },
        {
          "indexed": false,
          "internalType": "address",
          "name": "caller",
          "type": "address"
        }
      ],
      "name": "LiquidityRemoved",
      "type": "event"
    },
    {
      "anonymous": false,
      "inputs": [
        {
          "indexed": true,
          "internalType": "bytes32",
          "name": "transferId",
          "type": "bytes32"
        },
        {
          "indexed": true,
          "internalType": "uint32",
          "name": "origin",
          "type": "uint32"
        },
        {
          "indexed": false,
          "internalType": "address[]",
          "name": "routers",
          "type": "address[]"
        },
        {
          "indexed": false,
          "internalType": "address",
          "name": "asset",
          "type": "address"
        },
        {
          "indexed": false,
          "internalType": "uint256",
          "name": "amount",
          "type": "uint256"
        },
        {
          "indexed": false,
          "internalType": "address",
          "name": "caller",
          "type": "address"
        }
      ],
      "name": "Reconciled",
      "type": "event"
    },
    {
      "anonymous": false,
      "inputs": [
        {
          "indexed": false,
          "internalType": "address",
          "name": "relayer",
          "type": "address"
        },
        {
          "indexed": false,
          "internalType": "address",
          "name": "caller",
          "type": "address"
        }
      ],
      "name": "RelayerAdded",
      "type": "event"
    },
    {
      "anonymous": false,
      "inputs": [
        {
          "indexed": false,
          "internalType": "address",
          "name": "relayer",
          "type": "address"
        },
        {
          "indexed": false,
          "internalType": "address",
          "name": "caller",
          "type": "address"
        }
      ],
      "name": "RelayerRemoved",
      "type": "event"
    },
    {
      "anonymous": false,
      "inputs": [
        {
          "indexed": false,
          "internalType": "bytes32",
          "name": "canonicalId",
          "type": "bytes32"
        },
        {
          "indexed": false,
          "internalType": "uint32",
          "name": "domain",
          "type": "uint32"
        },
        {
          "indexed": false,
          "internalType": "address",
          "name": "swapPool",
          "type": "address"
        },
        {
          "indexed": false,
          "internalType": "address",
          "name": "caller",
          "type": "address"
        }
      ],
      "name": "StableSwapAdded",
      "type": "event"
    },
    {
      "anonymous": false,
      "inputs": [
        {
          "indexed": true,
          "internalType": "bytes32",
          "name": "transferId",
          "type": "bytes32"
        },
        {
          "indexed": false,
          "internalType": "uint256",
          "name": "relayerFee",
          "type": "uint256"
        },
        {
          "indexed": false,
          "internalType": "address",
          "name": "caller",
          "type": "address"
        }
      ],
      "name": "TransferRelayerFeesUpdated",
      "type": "event"
    },
    {
      "anonymous": false,
      "inputs": [
        {
          "indexed": true,
          "internalType": "bytes32",
          "name": "transferId",
          "type": "bytes32"
        },
        {
          "components": [
            {
              "components": [
                {
                  "internalType": "address",
                  "name": "to",
                  "type": "address"
                },
                {
                  "internalType": "bytes",
                  "name": "callData",
                  "type": "bytes"
                },
                {
                  "internalType": "uint32",
                  "name": "originDomain",
                  "type": "uint32"
                },
                {
                  "internalType": "uint32",
                  "name": "destinationDomain",
                  "type": "uint32"
                }
              ],
              "internalType": "struct IConnext.CallParams",
              "name": "params",
              "type": "tuple"
            },
            {
              "internalType": "address",
              "name": "transactingAssetId",
              "type": "address"
            },
            {
              "internalType": "uint256",
              "name": "amount",
              "type": "uint256"
            },
            {
              "internalType": "uint256",
              "name": "relayerFee",
              "type": "uint256"
            }
          ],
          "indexed": false,
          "internalType": "struct IConnext.XCallArgs",
          "name": "xcallArgs",
          "type": "tuple"
        },
        {
          "components": [
            {
              "internalType": "address",
              "name": "transactingAssetId",
              "type": "address"
            },
            {
              "internalType": "uint256",
              "name": "amount",
              "type": "uint256"
            },
            {
              "internalType": "uint256",
              "name": "bridgedAmt",
              "type": "uint256"
            },
            {
              "internalType": "address",
              "name": "bridged",
              "type": "address"
            }
          ],
          "indexed": false,
          "internalType": "struct ConnextUtils.XCalledEventArgs",
          "name": "args",
          "type": "tuple"
        },
        {
          "indexed": false,
          "internalType": "uint256",
          "name": "nonce",
          "type": "uint256"
        },
        {
          "indexed": false,
          "internalType": "bytes",
          "name": "message",
          "type": "bytes"
        },
        {
          "indexed": false,
          "internalType": "address",
          "name": "caller",
          "type": "address"
        }
      ],
      "name": "XCalled",
      "type": "event"
    },
    {
      "inputs": [
        {
          "internalType": "bytes",
          "name": "_encoded",
          "type": "bytes"
        },
        {
          "internalType": "bytes",
          "name": "_sig",
          "type": "bytes"
        }
      ],
      "name": "recoverSignature",
      "outputs": [
        {
          "internalType": "address",
          "name": "",
          "type": "address"
        }
      ],
      "stateMutability": "pure",
      "type": "function"
    }
  ],
  "bytecode": "0x6149fc61003a600b82828239805160001a60731461002d57634e487b7160e01b600052600060045260246000fd5b30600052607381538281f3fe73000000000000000000000000000000000000000030146080604052600436106100f35760003560e01c806373b82553116100965780637d3d8886116100705780637d3d8886146102585780638003f5a814610278578063e8bd964314610298578063ec7856ba146102cd57600080fd5b806373b82553146101f8578063767f70c0146102185780637683c95c1461023857600080fd5b80634d6e855e116100d25780634d6e855e1461015a5780635f751e201461018a57806361aa25e6146101aa57806366191a15146101ca57600080fd5b8062968b79146100f85780630f5229531461011a578063271b32211461013a575b600080fd5b81801561010457600080fd5b5061011861011336600461387c565b6102ed565b005b81801561012657600080fd5b506101186101353660046138a8565b610386565b81801561014657600080fd5b50610118610155366004613970565b610499565b61016d610168366004613ab7565b6105e1565b6040516001600160a01b0390911681526020015b60405180910390f35b81801561019657600080fd5b506101186101a5366004613b4d565b61068a565b8180156101b657600080fd5b506101186101c5366004613b81565b61071a565b8180156101d657600080fd5b506101ea6101e5366004613bf7565b61084c565b604051908152602001610181565b81801561020457600080fd5b5061011861021336600461387c565b61092c565b81801561022457600080fd5b50610118610233366004613c6d565b6109b9565b81801561024457600080fd5b50610118610253366004613cad565b610a4c565b81801561026457600080fd5b50610118610273366004613d08565b610b20565b81801561028457600080fd5b50610118610293366004613d67565b610c34565b8180156102a457600080fd5b506102b86102b3366004613de4565b610fd6565b60408051928352602083019190915201610181565b8180156102d957600080fd5b506101186102e8366004613e37565b611088565b6001600160a01b03821660009081526020829052604090205460ff1615610327576040516371797a7b60e01b815260040160405180910390fd5b6001600160a01b03821660008181526020838152604091829020805460ff19166001179055815192835233908301527fd756b9aee10d6f2c80dc42c5031beb0e0847f6e1d6ba50199bdfc3f0de5cc0cc91015b60405180910390a15050565b60008073__$b23150ba64566a7fb579e8b64fd3df6d89$__63c7c4bba0888a6000876040518563ffffffff1660e01b81526004016103c79493929190613e93565b6040805180830381865af41580156103e3573d6000803e3d6000fd5b505050506040513d601f19601f820116820180604052508101906104079190613ebe565b6001600160a01b03808916600090815260208981526040808320938616835292905290812080549395509193508392610441908490613f02565b92505081905550856001600160a01b03167fc30593c06911f2f2fc32a69df3a28e4a0b116d8d461b47a005ae4d28cd49282b838684336040516104879493929190613e93565b60405180910390a25050505050505050565b60005b8381101561052857338260008787858181106104ba576104ba613f1a565b60209081029290920135835250810191909152604001600020546001600160a01b031614610520578484828181106104f4576104f4613f1a565b9050602002013560405163364a20af60e21b815260040161051791815260200190565b60405180910390fd5b60010161049c565b5060405163d7d680a360e01b81526001600160a01b0383169063d7d680a39061055b908990899089908990600401613f66565b600060405180830381600087803b15801561057557600080fd5b505af1158015610589573d6000803e3d6000fd5b50505050846001600160a01b03168663ffffffff167f68a0b54b1aeae4bd0cc4fabefe2e6c06c6197fbbcf2122402e017620bdf0b41c3387876040516105d193929190613f97565b60405180910390a3505050505050565b600061068061064485805190602001206040517f19457468657265756d205369676e6564204d6573736167653a0a3332000000006020820152603c8101829052600090605c01604051602081830303815290604052805190602001209050919050565b84848080601f01602080910402602001604051908101604052809392919081815260200183838082843760009201919091525061116892505050565b90505b9392505050565b346106a857604051633109689960e11b815260040160405180910390fd5b600082815260208290526040812080543492906106c6908490613f02565b909155505060008281526020828152604091829020548251908152339181019190915283917feab1c093c8ba2224a2907cd9efb6ed51c233306ff5a66853b84e02a0bf95feab910160405180910390a25050565b602080870135600090815290849052604090205460ff161561074f576040516302a7bfbf60e01b815260040160405180910390fd5b60208087013560009081529084905260408120805460ff191660011790556001600160a01b038616156107825785610784565b845b6001600160a01b038116600090815260208590526040902090915087906107ab8282613fbc565b505060208781018035600081815292859052604090922080546001600160a01b0319166001600160a01b0385161790557f42e28d2d3431c24c3f3b6e2623a169bd4a31dd1f66780c4499af54a28632779b9190610808908a613fe9565b6040805192835263ffffffff9190911660208301526001600160a01b038981168383015284166060830152336080830152519081900360a00190a150505050505050565b600080600061085c8b858b61118c565b915091506000806108748484158f8f8e8e8e8e611230565b915091506108858d8383878761144e565b600084815260208790526040902080546001600160a01b031916331790556108ad8d80614006565b6108b79080614026565b6108c590602081019061403c565b6001600160a01b0316847fac3c558574a3b421c1403ef1a73da1d0ed049eb30dc0224ad221babbaf2270c98f80600001906109009190614006565b8486336040516109139493929190614195565b60405180910390a350919b9a5050505050505050505050565b6001600160a01b03821660009081526020829052604090205460ff1661096557604051633a69966960e21b815260040160405180910390fd5b6001600160a01b03821660008181526020838152604091829020805460ff19169055815192835233908301527f0bdcf1d6f29aa87af8131cc81dcbb295fcf98d71cfcdc79cc5d965317bae1d0a910161037a565b60208381018035600081815292849052604090922080546001600160a01b0319166001600160a01b0386161790557fd6f882d8fd8cc867bb57db3880bc4ad0b9b84689b57bba1b51feec7be397e3c29190610a149086613fe9565b6040805192835263ffffffff90911660208301526001600160a01b0385169082015233606082015260800160405180910390a1505050565b6000805b83811015610ac957826000868684818110610a6d57610a6d613f1a565b9050602002013581526020019081526020016000205482610a8e9190613f02565b91506000836000878785818110610aa757610aa7613f1a565b6020908102929092013583525081019190915260400160002055600101610a50565b50610ad48582611646565b846001600160a01b03167f2bfaaa152bcd96bf9b286ad5528d510fe2a107a182c7e42aefb7f0e1130bb371828686604051610b1193929190614287565b60405180910390a25050505050565b6001600160a01b038316610b4757604051630fb676ff60e11b815260040160405180910390fd5b84610b6557604051636e4fcf7760e11b815260040160405180910390fd5b336000908152602083815260408083206001600160a01b038816845290915290205485811015610ba85760405163ca6a1f5560e01b815260040160405180910390fd5b336000908152602084815260408083206001600160a01b038916845290915290208682039055610bda85858885611764565b604080516001600160a01b03868116825287166020820152808201889052336060820181905291517f63b05915120b3d5a231e7c3625a411c15b2a79c35e3b1432a4f1ea95468cc6349181900360800190a2505050505050565b6000610c4e610c43878361181f565b62ffffff1916611843565b90506000610c6162ffffff198316611862565b90506000610c7462ffffff198416611897565b9050610c8562ffffff1982166118ef565b610ca25760405163f52f2ffb60e01b815260040160405180910390fd5b6000610cb362ffffff1983166118fc565b600081815260208a9052604090205490915060ff1615610ce6576040516305f2d54160e31b815260040160405180910390fd5b60006001600160a01b03881663b869d89a610d0662ffffff198716611911565b610d1562ffffff198816611933565b6040516001600160e01b031960e085901b16815263ffffffff92909216600483015260248201526044016020604051808303816000875af1158015610d5e573d6000803e3d6000fd5b505050506040513d601f19601f82011682018060405250810190610d8291906142a1565b90506000610d9562ffffff198516611955565b90506000610da862ffffff19861661196a565b60405163c86415cb60e01b81526001600160a01b038581166004830152919250908b169063c86415cb90602401602060405180830381865afa158015610df2573d6000803e3d6000fd5b505050506040513d601f19601f82011682018060405250810190610e1691906142ce565b610ed5576040516340c10f1960e01b8152306004820152602481018390526001600160a01b038416906340c10f1990604401600060405180830381600087803b158015610e6257600080fd5b505af1158015610e76573d6000803e3d6000fd5b505060405163cc2ab7c760e01b8152600481018490526001600160a01b038616925063cc2ab7c79150602401600060405180830381600087803b158015610ebc57600080fd5b505af1158015610ed0573d6000803e3d6000fd5b505050505b600084815260208c81526040808320805460ff19166001179055908b9052902080548015610f80576000610f0982866142e9565b905060005b82811015610f7d57818c6000868481548110610f2c57610f2c613f1a565b60009182526020808320909101546001600160a01b0390811684528382019490945260409283018220938c1682529290925281208054909190610f70908490613f02565b9091555050600101610f0e565b50505b8e63ffffffff16867f0e5f1128fa87ef75539a5e012b42695000db91072e7500fb2723ccbb37d0803c84888833604051610fbd949392919061430b565b60405180910390a3505050505050505050505050505050565b600080610fe28661197f565b6000806000610ff2898989611a1c565b919450925090506110038980614026565b6000848152602088905260409020606091909101359055827f172e4c0e3b137e3bbad1e9e8c029743db7d7a013f735930a9edd574d5099c5fe6110468b80614026565b838c60400135863360405161105f9594939291906143db565b60405180910390a28261107760408b01356001613f02565b945094505050505b94509492505050565b60008681526020849052604090205460ff166110b7576040516307bdea5360e11b815260040160405180910390fd5b600086815260208481526040808320805460ff1916905590849052812080546001600160a01b031916905581906001600160a01b038716156110f957866110fb565b855b6001600160a01b0316815260208082019290925260409081016000908120805463ffffffff1916815560010155805188815233928101929092527f9d181adb70e733f5235f839c1eed929407ea8526e41d01f49b9fef703e78dddf910160405180910390a1505050505050565b60008060006111778585611d01565b9150915061118481611d71565b509392505050565b600080602085013561119e8680614006565b6111ac906040810190614491565b905011156111cd57604051633cfda47b60e01b815260040160405180910390fd5b60006111d886611f2c565b6000818152602087905260409020549091506001600160a01b0316156112115760405163667dadbb60e01b815260040160405180910390fd5b60008181526020859052604090205490925060ff169050935093915050565b6000808061123e8980614006565b60600135905060006112508a80614006565b61125e906040810190614491565b9150508a15611405576112876112748b80614006565b606001358b60a001358c60c00135612056565b91506112938a80614006565b6112a1906040810190614491565b60008e815260208c9052604090206112ba9290916137e8565b5060006112c782846142e9565b905060005b82811015611402578660006112e18e80614006565b6112ef906040810190614491565b848181106112ff576112ff613f1a565b9050602002016020810190611314919061403c565b6001600160a01b0316815260208101919091526040016000205460ff1661134e57604051630e10f97160e01b815260040160405180910390fd5b818a600061135c8f80614006565b61136a906040810190614491565b8581811061137a5761137a613f1a565b905060200201602081019061138f919061403c565b6001600160a01b0316815260208101919091526040016000908120906113b58f80614006565b6113c690604081019060200161403c565b6001600160a01b03166001600160a01b0316815260200190815260200160002060008282546113f591906144da565b90915550506001016112cc565b50505b61143b868861141a60608e0160408f0161403c565b6114248e80614006565b61143590604081019060200161403c565b8661206d565b9350935050509850989650505050505050565b7fc5d2460186f7233c927e7db2dcc703c0e500b653ca82273b7bfad8045d85a4706114798680614006565b6114839080614026565b6114919060208101906144f1565b60405161149f929190614537565b604051809103902014156114ee576114e9836114bb8780614006565b6114c59080614026565b6114d390602081019061403c565b866114e460808a0160608b0161403c565b611764565b61163f565b611502836114d360a088016080890161403c565b61151260a086016080870161403c565b6001600160a01b0316631e29b440838661152c8980614006565b6115369080614026565b61154490602081019061403c565b8786611569576040518060400160405280601d815260200162ffffff198152506115b1565b6115b16115768c80614006565b6115809080614026565b611591906060810190604001613fe9565b61159b8d80614006565b6115ac9060c081019060a00161403c565b6121c3565b6115bb8c80614006565b6115c59080614026565b6115d39060208101906144f1565b6040518863ffffffff1660e01b81526004016115f59796959493929190614547565b6000604051808303816000875af1158015611614573d6000803e3d6000fd5b505050506040513d6000823e601f3d908101601f1916820160405261163c91908101906145d1565b50505b5050505050565b804710156116965760405162461bcd60e51b815260206004820152601d60248201527f416464726573733a20696e73756666696369656e742062616c616e63650000006044820152606401610517565b6000826001600160a01b03168260405160006040518083038185875af1925050503d80600081146116e3576040519150601f19603f3d011682016040523d82523d6000602084013e6116e8565b606091505b505090508061175f5760405162461bcd60e51b815260206004820152603a60248201527f416464726573733a20756e61626c6520746f2073656e642076616c75652c207260448201527f6563697069656e74206d617920686176652072657665727465640000000000006064820152608401610517565b505050565b6001600160a01b03841661178b576040516316f5916760e31b815260040160405180910390fd5b806001600160a01b0316846001600160a01b0316141561180e57604051632e1a7d4d60e01b8152600481018390526001600160a01b03821690632e1a7d4d90602401600060405180830381600087803b1580156117e757600080fd5b505af11580156117fb573d6000803e3d6000fd5b505050506118098383611646565b611819565b6118198484846121f2565b50505050565b81516000906020840161183a64ffffffffff85168284612255565b95945050505050565b600061185c61185183612299565b62ffffff19166122cb565b92915050565b6000816002611879815b62ffffff19841690612326565b5061188f62ffffff1985166000602460016123ff565b949350505050565b60008160026118a58161186c565b5060006118c06024601887901c6001600160601b03166144da565b905060006118cd8661246f565b60ff1690506118e562ffffff198716602484846123ff565b9695505050505050565b600061185c826003612484565b600061185c62ffffff198316606160206124e3565b600081600161191f8161186c565b5061188f62ffffff1985166000600461263c565b60008160016119418161186c565b5061188f62ffffff198516600460206124e3565b600061185c62ffffff1983166021602061263c565b600061185c62ffffff198316604160206124e3565b608081013561198e8280614026565b6119989080614026565b6119a9906060810190604001613fe9565b63ffffffff16146119cd576040516375850f5960e11b815260040160405180910390fd5b60006119d98280614026565b6119e39080614026565b6119f190602081019061403c565b6001600160a01b03161415611a195760405163025406af60e61b815260040160405180910390fd5b50565b60408051608081018252600080825260208201819052918101829052606081810183905290600080611a4e8880614026565b611a5f90604081019060200161403c565b6001600160a01b031614611a8d57611a778780614026565b611a8890604081019060200161403c565b611a9d565b611a9d604088016020890161403c565b6001600160a01b038116600090815260208881526040918290208251808401909352805463ffffffff1683526001015490820181905291925090611af4576040516342968a6b60e01b815260040160405180910390fd5b600073__$b23150ba64566a7fb579e8b64fd3df6d89$__63c7c4bba0611b1a8b80614026565b611b2b90604081019060200161403c565b611b358c80614026565b60400135611b438d80614026565b606001358d6020016020810190611b5a919061403c565b6040518563ffffffff1660e01b8152600401611b799493929190613e93565b6040805180830381865af4158015611b95573d6000803e3d6000fd5b505050506040513d601f19601f82011682018060405250810190611bb99190613ebe565b915050600080611c07848a60008760200151815260200190815260200160002060009054906101000a90046001600160a01b03168d6060016020810190611c00919061403c565b888761266c565b915091506000611c178c866127cc565b90506000611c278d848487612832565b9050611c3960c08e0160a08f0161403c565b6001600160a01b031663fa31de01611c518f80614026565b611c5b9080614026565b611c6c906080810190606001613fe9565b8f60c00135846040518463ffffffff1660e01b8152600401611c9093929190614648565b600060405180830381600087803b158015611caa57600080fd5b505af1158015611cbe573d6000803e3d6000fd5b5050604080516080810182526001600160a01b039a8b168152602081019890985287019590955250919095166060840152939a9399509097509195505050505050565b600080825160411415611d385760208301516040840151606085015160001a611d2c87828585612bab565b94509450505050611d6a565b825160401415611d625760208301516040840151611d57868383612c95565b935093505050611d6a565b506000905060025b9250929050565b6000816004811115611d8557611d85614632565b1415611d8e5750565b6001816004811115611da257611da2614632565b1415611df05760405162461bcd60e51b815260206004820152601860248201527f45434453413a20696e76616c6964207369676e617475726500000000000000006044820152606401610517565b6002816004811115611e0457611e04614632565b1415611e525760405162461bcd60e51b815260206004820152601f60248201527f45434453413a20696e76616c6964207369676e6174757265206c656e677468006044820152606401610517565b6003816004811115611e6657611e66614632565b1415611ebf5760405162461bcd60e51b815260206004820152602260248201527f45434453413a20696e76616c6964207369676e6174757265202773272076616c604482015261756560f01b6064820152608401610517565b6004816004811115611ed357611ed3614632565b1415611a195760405162461bcd60e51b815260206004820152602260248201527f45434453413a20696e76616c6964207369676e6174757265202776272076616c604482015261756560f01b6064820152608401610517565b60008080611f40606085016040860161403c565b6001600160a01b031663f1537686611f588680614006565b611f6990604081019060200161403c565b6040516001600160e01b031960e084901b1681526001600160a01b0390911660048201526024016040805180830381865afa158015611fac573d6000803e3d6000fd5b505050506040513d601f19601f82011682018060405250810190611fd0919061466d565b9092509050611fdf8480614006565b60800135611fed8580614006565b611ff79080614026565b6120018680614006565b6120129060c081019060a00161403c565b838561201e8980614006565b606001356040516020016120379695949392919061468b565b6040516020818303038152906040528051906020012092505050919050565b60008161206384866146d8565b61068091906142e9565b6040516378a9bb4360e11b81526001600160a01b038381166004830152600091829182919087169063f1537686906024016040805180830381865afa1580156120ba573d6000803e3d6000fd5b505050506040513d601f19601f820116820180604052508101906120de919061466d565b600081815260208b905260409020549092506001600160a01b03908116915086168114156121135784869350935050506121b9565b6000828152602089905260409020546001600160a01b0316612136878288612cce565b60405163d5914c4560e01b8152600481018790526001600160a01b038881166024830152838116604483015282169063d5914c45906064016020604051808303816000875af115801561218d573d6000803e3d6000fd5b505050506040513d601f19601f820116820180604052508101906121b191906146f7565b945090925050505b9550959350505050565b6060600183836040516020016121db93929190614710565b604051602081830303815290604052905092915050565b6040516001600160a01b03831660248201526044810182905261175f90849063a9059cbb60e01b906064015b60408051601f198184030181529190526020810180516001600160e01b03166001600160e01b031990931692909217909152612de3565b6000806122628385613f02565b9050604051811115612272575060005b806122845762ffffff19915050610683565b5050606092831b9190911790911b1760181b90565b60006122a482612eb5565b156122c1576301000000600160d81b038216600160d91b1761185c565b62ffffff1961185c565b60006122d682612ed8565b6123225760405162461bcd60e51b815260206004820152601960248201527f56616c696469747920617373657274696f6e206661696c6564000000000000006044820152606401610517565b5090565b60006123328383612f16565b6123f85760006123516123458560d81c90565b64ffffffffff16612f39565b91505060006123668464ffffffffff16612f39565b6040517f5479706520617373657274696f6e206661696c65642e20476f7420307800000060208201526001600160b01b031960b086811b8216603d8401526c05c408af0e0cac6e8cac84060f609b1b604784015283901b16605482015290925060009150605e0160405160208183030381529060405290508060405162461bcd60e51b8152600401610517919061475d565b5090919050565b6000806124158660781c6001600160601b031690565b6001600160601b0316905061242986612fe7565b846124348784613f02565b61243e9190613f02565b11156124515762ffffff1991505061188f565b61245b8582613f02565b90506118e58364ffffffffff168286612255565b600061185c62ffffff1983166024600161263c565b600081600381111561249857612498614632565b60ff166124a484613020565b60ff1614801561068357508160038111156124c1576124c1614632565b6124ca84613034565b60038111156124db576124db614632565b149392505050565b600060ff82166124f557506000610683565b6125088460181c6001600160601b031690565b6001600160601b031661251e60ff841685613f02565b11156125825761256961253a8560781c6001600160601b031690565b6001600160601b03166125568660181c6001600160601b031690565b6001600160601b0316858560ff1661304f565b60405162461bcd60e51b8152600401610517919061475d565b60208260ff1611156125fc5760405162461bcd60e51b815260206004820152603a60248201527f54797065644d656d566965772f696e646578202d20417474656d70746564207460448201527f6f20696e646578206d6f7265207468616e2033322062797465730000000000006064820152608401610517565b6008820260006126158660781c6001600160601b031690565b6001600160601b031690506000600160ff1b60001984011d91909501511695945050505050565b6000612649826020614770565b612654906008614793565b60ff166126628585856124e3565b901c949350505050565b602085015160009081906126845750819050826121b9565b86516020880151604051631626cf1960e21b815263ffffffff909216600483015260248201526000906001600160a01b0387169063589b3c6490604401602060405180830381865afa1580156126de573d6000803e3d6000fd5b505050506040513d601f19601f8201168201806040525081019061270291906142a1565b9050836127135783925090506121b9565b846001600160a01b0316816001600160a01b0316141561273957838592509250506121b9565b612744858886612cce565b60405163d5914c4560e01b8152600481018590526001600160a01b038681166024830152828116604483015288169063d5914c45906064016020604051808303816000875af115801561279b573d6000803e3d6000fd5b505050506040513d601f19601f820116820180604052508101906127bf91906146f7565b9890975095505050505050565b600060408301356127dd8480614026565b6127e79080614026565b602084015184513391906127fb8880614026565b604001356040516020016128149695949392919061468b565b60405160208183030381529060405280519060200120905092915050565b60608360006128466080880188850161403c565b60405163c86415cb60e01b81526001600160a01b038881166004830152919091169063c86415cb90602401602060405180830381865afa15801561288e573d6000803e3d6000fd5b505050506040513d601f19601f820116820180604052508101906128b291906142ce565b156129f6576129ef826001600160a01b03166306fdde036040518163ffffffff1660e01b81526004016000604051808303816000875af11580156128fa573d6000803e3d6000fd5b505050506040513d6000823e601f3d908101601f1916820160405261292291908101906147bc565b836001600160a01b03166395d89b416040518163ffffffff1660e01b8152600401600060405180830381865afa158015612960573d6000803e3d6000fd5b505050506040513d6000823e601f3d908101601f1916820160405261298891908101906147bc565b846001600160a01b031663313ce5676040518163ffffffff1660e01b8152600401602060405180830381865afa1580156129c6573d6000803e3d6000fd5b505050506040513d601f19601f820116820180604052508101906129ea9190614804565b6130bd565b9050612ac2565b8315612a5d57604051632770a7eb60e21b8152336004820152602481018590526001600160a01b03831690639dc29fac90604401600060405180830381600087803b158015612a4457600080fd5b505af1158015612a58573d6000803e3d6000fd5b505050505b816001600160a01b0316634815fcb16040518163ffffffff1660e01b8152600401602060405180830381865afa158015612a9b573d6000803e3d6000fd5b505050506040513d601f19601f82011682018060405250810190612abf91906146f7565b90505b6000612b00612af8612ad48a80614026565b612ade9080614026565b612aec90602081019061403c565b6001600160a01b031690565b8684896130f9565b9050600080612b1560808b0160608c0161403c565b6040516378a9bb4360e11b81526001600160a01b038b81166004830152919091169063f1537686906024016040805180830381865afa158015612b5c573d6000803e3d6000fd5b505050506040513d601f19601f82011682018060405250810190612b80919061466d565b915091506000612b90838361314b565b9050612b9c818561317f565b9b9a5050505050505050505050565b6000807f7fffffffffffffffffffffffffffffff5d576e7357a4501ddfe92f46681b20a0831115612be2575060009050600361107f565b8460ff16601b14158015612bfa57508460ff16601c14155b15612c0b575060009050600461107f565b6040805160008082526020820180845289905260ff881692820192909252606081018690526080810185905260019060a0016020604051602081039080840390855afa158015612c5f573d6000803e3d6000fd5b5050604051601f1901519150506001600160a01b038116612c885760006001925092505061107f565b9660009650945050505050565b6000806001600160ff1b03831681612cb260ff86901c601b613f02565b9050612cc087828885612bab565b935093505050935093915050565b801580612d485750604051636eb1769f60e11b81523060048201526001600160a01b03838116602483015284169063dd62ed3e90604401602060405180830381865afa158015612d22573d6000803e3d6000fd5b505050506040513d601f19601f82011682018060405250810190612d4691906146f7565b155b612db35760405162461bcd60e51b815260206004820152603660248201527f5361666545524332303a20617070726f76652066726f6d206e6f6e2d7a65726f60448201527520746f206e6f6e2d7a65726f20616c6c6f77616e636560501b6064820152608401610517565b6040516001600160a01b03831660248201526044810182905261175f90849063095ea7b360e01b9060640161221e565b6000612e38826040518060400160405280602081526020017f5361666545524332303a206c6f772d6c6576656c2063616c6c206661696c6564815250856001600160a01b031661324e9092919063ffffffff16565b80519091501561175f5780806020019051810190612e5691906142ce565b61175f5760405162461bcd60e51b815260206004820152602a60248201527f5361666545524332303a204552433230206f7065726174696f6e20646964206e6044820152691bdd081cdd58d8d9595960b21b6064820152608401610517565b6000601882901c6001600160601b0316612ed160816024613f02565b1492915050565b6000612ee48260d81c90565b64ffffffffff1664ffffffffff1415612eff57506000919050565b6000612f0a83612fe7565b60405110199392505050565b60008164ffffffffff16612f2a8460d81c90565b64ffffffffff16149392505050565b600080601f5b600f8160ff161115612f8e576000612f58826008614793565b60ff1685901c9050612f698161325d565b61ffff16841793508160ff16601014612f8457601084901b93505b5060001901612f3f565b50600f5b60ff8160ff161015612fe1576000612fab826008614793565b60ff1685901c9050612fbc8161325d565b61ffff16831792508160ff16600014612fd757601083901b92505b5060001901612f92565b50915091565b6000612ffc8260181c6001600160601b031690565b61300f8360781c6001600160601b031690565b016001600160601b03169050919050565b600061185c62ffffff19831682600161263c565b600060d882901c60ff16600381111561185c5761185c614632565b6060600061305c86612f39565b915050600061306a86612f39565b915050600061307886612f39565b915050600061308686612f39565b915050838383836040516020016130a09493929190614827565b604051602081830303815290604052945050505050949350505050565b6000835184845185856040516020016130da9594939291906148fe565b6040516020818303038152906040528051906020012090509392505050565b600061183a6003613135600060038989898960405160200161311f95949392919061495e565b60408051601f198184030181529190529061181f565b6301000000600160d81b031660d89190911b1790565b600061068360016040516001600160e01b031960e087901b166020820152602481018590526131359060009060440161311f565b606082600161318d8161186c565b506131978461328f565b6131cd5760405162461bcd60e51b815260206004820152600760248201526610b0b1ba34b7b760c91b6044820152606401610517565b604080516002808252606082018352600092602083019080368337019050509050858160008151811061320257613202613f1a565b602002602001019062ffffff1916908162ffffff191681525050848160018151811061323057613230613f1a565b62ffffff19909216602092830291909101909101526118e58161329a565b606061068084846000856132ef565b600061326f60048360ff16901c613420565b60ff1661ffff919091161760081b61328682613420565b60ff1617919050565b600061185c826118ef565b60405160609060006132af846020840161357c565b905060006132c68260181c6001600160601b031690565b6001600160601b0316905060006132dc8361360c565b9184525082016020016040525092915050565b6060824710156133505760405162461bcd60e51b815260206004820152602660248201527f416464726573733a20696e73756666696369656e742062616c616e636520666f6044820152651c8818d85b1b60d21b6064820152608401610517565b6001600160a01b0385163b6133a75760405162461bcd60e51b815260206004820152601d60248201527f416464726573733a2063616c6c20746f206e6f6e2d636f6e74726163740000006044820152606401610517565b600080866001600160a01b031685876040516133c39190614999565b60006040518083038185875af1925050503d8060008114613400576040519150601f19603f3d011682016040523d82523d6000602084013e613405565b606091505b5091509150613415828286613622565b979650505050505050565b600060f08083179060ff8216141561343b5750603092915050565b8060ff1660f114156134505750603192915050565b8060ff1660f214156134655750603292915050565b8060ff1660f3141561347a5750603392915050565b8060ff1660f4141561348f5750603492915050565b8060ff1660f514156134a45750603592915050565b8060ff1660f614156134b95750603692915050565b8060ff1660f714156134ce5750603792915050565b8060ff1660f814156134e35750603892915050565b8060ff1660f914156134f85750603992915050565b8060ff1660fa141561350d5750606192915050565b8060ff1660fb14156135225750606292915050565b8060ff1660fc14156135375750606392915050565b8060ff1660fd141561354c5750606492915050565b8060ff1660fe14156135615750606592915050565b8060ff1660ff14156135765750606692915050565b50919050565b60006040518281111561358f5760206060fd5b506000805b84518110156135fc5760008582815181106135b1576135b1613f1a565b602002602001015190506135c78184870161365b565b506135db8160181c6001600160601b031690565b6001600160601b0316830192505080806135f4906149ab565b915050613594565b50606083901b811760181b61188f565b6000613617826137b3565b61185c9060206146d8565b60608315613631575081610683565b8251156136415782518084602001fd5b8160405162461bcd60e51b8152600401610517919061475d565b600062ffffff1980841614156136c45760405162461bcd60e51b815260206004820152602860248201527f54797065644d656d566965772f636f7079546f202d204e756c6c20706f696e7460448201526732b9103232b932b360c11b6064820152608401610517565b6136cd83612ed8565b61372d5760405162461bcd60e51b815260206004820152602b60248201527f54797065644d656d566965772f636f7079546f202d20496e76616c696420706f60448201526a34b73a32b9103232b932b360a91b6064820152608401610517565b60006137428460181c6001600160601b031690565b6001600160601b0316905060006137628560781c6001600160601b031690565b6001600160601b0316905060006040519050848111156137825760206060fd5b8285848460045afa506118e56137988760d81c90565b64ffffffffff60601b606091821b168717901b841760181b90565b600060206137ca8360181c6001600160601b031690565b6137de906001600160601b03166020613f02565b61185c91906142e9565b82805482825590600052602060002090810192821561383b579160200282015b8281111561383b5781546001600160a01b0319166001600160a01b03843516178255602090920191600190910190613808565b506123229291505b808211156123225760008155600101613843565b6001600160a01b0381168114611a1957600080fd5b803561387781613857565b919050565b6000806040838503121561388f57600080fd5b823561389a81613857565b946020939093013593505050565b60008060008060008060c087890312156138c157600080fd5b8635955060208701356138d381613857565b945060408701356138e381613857565b9350606087013592506080870135915060a087013561390181613857565b809150509295509295509295565b63ffffffff81168114611a1957600080fd5b80356138778161390f565b60008083601f84011261393e57600080fd5b5081356001600160401b0381111561395557600080fd5b6020830191508360208260051b8501011115611d6a57600080fd5b60008060008060008060a0878903121561398957600080fd5b86356139948161390f565b955060208701356139a481613857565b945060408701356001600160401b038111156139bf57600080fd5b6139cb89828a0161392c565b90955093505060608701356139df81613857565b80925050608087013590509295509295509295565b634e487b7160e01b600052604160045260246000fd5b604051601f8201601f191681016001600160401b0381118282101715613a3257613a326139f4565b604052919050565b60006001600160401b03821115613a5357613a536139f4565b50601f01601f191660200190565b600082601f830112613a7257600080fd5b8135613a85613a8082613a3a565b613a0a565b818152846020838601011115613a9a57600080fd5b816020850160208301376000918101602001919091529392505050565b600080600060408486031215613acc57600080fd5b83356001600160401b0380821115613ae357600080fd5b613aef87838801613a61565b94506020860135915080821115613b0557600080fd5b818601915086601f830112613b1957600080fd5b813581811115613b2857600080fd5b876020828501011115613b3a57600080fd5b6020830194508093505050509250925092565b60008060408385031215613b6057600080fd5b50508035926020909101359150565b60006040828403121561357657600080fd5b60008060008060008060e08789031215613b9a57600080fd5b613ba48888613b6f565b95506040870135613bb481613857565b94506060870135613bc481613857565b959894975094956080810135955060a08101359460c0909101359350915050565b600060e0828403121561357657600080fd5b600080600080600080600080610100898b031215613c1457600080fd5b88356001600160401b03811115613c2a57600080fd5b613c368b828c01613be5565b9b60208b01359b5060408b01359a60608101359a506080810135995060a0810135985060c0810135975060e0013595509350505050565b600080600060808486031215613c8257600080fd5b613c8c8585613b6f565b92506040840135613c9c81613857565b929592945050506060919091013590565b60008060008060608587031215613cc357600080fd5b8435613cce81613857565b935060208501356001600160401b03811115613ce957600080fd5b613cf58782880161392c565b9598909750949560400135949350505050565b600080600080600060a08688031215613d2057600080fd5b853594506020860135613d3281613857565b93506040860135613d4281613857565b9250606086013591506080860135613d5981613857565b809150509295509295909350565b60008060008060008060c08789031215613d8057600080fd5b8635613d8b8161390f565b955060208701356001600160401b03811115613da657600080fd5b613db289828a01613a61565b955050604087013593506060870135613dca81613857565b9598949750929560808101359460a0909101359350915050565b60008060008060808587031215613dfa57600080fd5b84356001600160401b03811115613e1057600080fd5b613e1c87828801613be5565b97602087013597506040870135966060013595509350505050565b60008060008060008060c08789031215613e5057600080fd5b863595506020870135613e6281613857565b94506040870135613e7281613857565b959894975094956060810135955060808101359460a0909101359350915050565b6001600160a01b03948516815260208101939093526040830191909152909116606082015260800190565b60008060408385031215613ed157600080fd5b8251613edc81613857565b6020939093015192949293505050565b634e487b7160e01b600052601160045260246000fd5b60008219821115613f1557613f15613eec565b500190565b634e487b7160e01b600052603260045260246000fd5b81835260006001600160fb1b03831115613f4957600080fd5b8260051b8083602087013760009401602001938452509192915050565b63ffffffff851681526001600160a01b03841660208201526060604082018190526000906118e59083018486613f30565b6001600160a01b038416815260406020820181905260009061183a9083018486613f30565b8135613fc78161390f565b63ffffffff811663ffffffff1983541617825550602082013560018201555050565b600060208284031215613ffb57600080fd5b81356106838161390f565b6000823560be1983360301811261401c57600080fd5b9190910192915050565b60008235607e1983360301811261401c57600080fd5b60006020828403121561404e57600080fd5b813561068381613857565b60008235607e1983360301811261406f57600080fd5b90910192915050565b81835281816020850137506000828201602090810191909152601f909101601f19169091010190565b600081356140ae81613857565b6001600160a01b03168352602082013536839003601e190181126140d157600080fd5b820180356001600160401b038111156140e957600080fd5b8036038413156140f857600080fd5b60806020860152614110608086018260208501614078565b91505060408301356141218161390f565b63ffffffff16604085015261413860608401613921565b63ffffffff81166060860152509392505050565b8183526000602080850194508260005b8581101561418a57813561416f81613857565b6001600160a01b03168752958201959082019060010161415c565b509495945050505050565b6080815260006141a58687614059565b60c060808401526141ba6101408401826140a1565b905060208701356141ca81613857565b6001600160a01b031660a0840152604087013536889003601e190181126141f057600080fd5b870180356001600160401b0381111561420857600080fd5b8060051b360389131561421a57600080fd5b848303607f190160c086015261423483826020850161414c565b92505050606087013560e0840152608087013561010084015261425960a0880161386c565b6001600160a01b0390811661012085015286811660208501526040840186905284166060840152905061183a565b83815260406020820152600061183a604083018486613f30565b6000602082840312156142b357600080fd5b815161068381613857565b8051801515811461387757600080fd5b6000602082840312156142e057600080fd5b610683826142be565b60008261430657634e487b7160e01b600052601260045260246000fd5b500490565b6000608082016080835280875480835260a08501915088600052602092508260002060005b828110156143555781546001600160a01b031684529284019260019182019101614330565b5050506001600160a01b03968716918401919091526040830194909452509216606090920191909152919050565b60005b8381101561439e578181015183820152602001614386565b838111156118195750506000910152565b600081518084526143c7816020860160208601614383565b601f01601f19169290920160200192915050565b60006101008083526143ed8889614059565b6080828501526144016101808501826140a1565b915050602088013561441281613857565b6001600160a01b039081166101208501526040898101356101408601526060808b0135610160870152895183166020808801919091528a015182870152908901518186015288015116608084015260a0830186905282810360c084015261447981866143af565b9150506118e560e08301846001600160a01b03169052565b6000808335601e198436030181126144a857600080fd5b8301803591506001600160401b038211156144c257600080fd5b6020019150600581901b3603821315611d6a57600080fd5b6000828210156144ec576144ec613eec565b500390565b6000808335601e1984360301811261450857600080fd5b8301803591506001600160401b0382111561452257600080fd5b602001915036819003821315611d6a57600080fd5b8183823760009101908152919050565b878152602081018790526001600160a01b0386811660408301528516606082015260c060808201819052600090614580908301866143af565b82810360a0840152614593818587614078565b9a9950505050505050505050565b60006145af613a8084613a3a565b90508281528383830111156145c357600080fd5b610683836020830184614383565b600080604083850312156145e457600080fd5b6145ed836142be565b915060208301516001600160401b0381111561460857600080fd5b8301601f8101851361461957600080fd5b614628858251602084016145a1565b9150509250929050565b634e487b7160e01b600052602160045260246000fd5b63ffffffff8416815282602082015260606040820152600061183a60608301846143af565b6000806040838503121561468057600080fd5b8251613edc8161390f565b86815260c0602082015260006146a460c08301886140a1565b6001600160a01b0396909616604083015250606081019390935263ffffffff91909116608083015260a09091015292915050565b60008160001904831182151516156146f2576146f2613eec565b500290565b60006020828403121561470957600080fd5b5051919050565b60006002851061472257614722614632565b5060f89390931b835260e09190911b6001600160e01b031916600183015260601b6bffffffffffffffffffffffff1916600582015260190190565b60208152600061068360208301846143af565b600060ff821660ff84168082101561478a5761478a613eec565b90039392505050565b600060ff821660ff84168160ff04811182151516156147b4576147b4613eec565b029392505050565b6000602082840312156147ce57600080fd5b81516001600160401b038111156147e457600080fd5b8201601f810184136147f557600080fd5b61188f848251602084016145a1565b60006020828403121561481657600080fd5b815160ff8116811461068357600080fd5b7f54797065644d656d566965772f696e646578202d204f76657272616e20746865815274040ecd2caee5c40a6d8d2c6ca40d2e640c2e84060f605b1b60208201526001600160d01b031960d086811b821660358401526e040eed2e8d040d8cadccee8d04060f608b1b603b840181905286821b8316604a8501527f2e20417474656d7074656420746f20696e646578206174206f666673657420306050850152600f60fb1b607085015285821b83166071850152607784015283901b166086820152601760f91b608c8201526000608d82016118e5565b85815260008551614916816020850160208a01614383565b80830190508560208201528451614934816040840160208901614383565b60f89490941b6001600160f81b031916604091909401908101939093525050604101949350505050565b60006004871061497057614970614632565b5060f89590951b8552600185019390935260218401919091526041830152606182015260810190565b6000825161401c818460208701614383565b60006000198214156149bf576149bf613eec565b506001019056fea26469706673582212206dd81405983d41c17ed3a52132388d3330179bffd0d47051c872617936a820a864736f6c634300080b0033",
  "linkReferences": {
    "contracts/lib/Connext/AssetLogic.sol": {
      "AssetLogic": [
        {
          "length": 20,
          "start": 965
        },
        {
          "length": 20,
          "start": 6962
        }
      ]
    }
  },
  "deployedLinkReferences": {
    "contracts/lib/Connext/AssetLogic.sol": {
      "AssetLogic": [
        {
          "length": 20,
          "start": 907
        },
        {
          "length": 20,
          "start": 6904
        }
      ]
    }
  }
}