{
  "address": "0xD8Ee64CCb6F3047214714ab40F655216332a9C21",
  "abi": [
    {
      "inputs": [],
      "name": "AssetLogic__getTokenIndexFromStableSwapPool_notExist",
      "type": "error"
    },
    {
      "inputs": [],
      "name": "AssetLogic__handleOutgoingAsset_notNative",
      "type": "error"
    },
    {
      "inputs": [],
      "name": "AssetLogic__transferAssetToContract_feeOnTransferNotSupported",
      "type": "error"
    },
    {
      "inputs": [],
      "name": "BaseConnextFacet__getAdoptedAsset_notWhitelisted",
      "type": "error"
    },
    {
      "inputs": [],
      "name": "BaseConnextFacet__getApprovedCanonicalId_notWhitelisted",
      "type": "error"
    },
    {
      "inputs": [],
      "name": "BaseConnextFacet__nonReentrant_reentrantCall",
      "type": "error"
    },
    {
      "inputs": [],
      "name": "BaseConnextFacet__onlyBridgeRouter_notBridgeRouter",
      "type": "error"
    },
    {
      "inputs": [],
      "name": "BaseConnextFacet__onlyOwnerOrAdmin_notOwnerOrAdmin",
      "type": "error"
    },
    {
      "inputs": [],
      "name": "BaseConnextFacet__onlyOwnerOrRouter_notOwnerOrRouter",
      "type": "error"
    },
    {
      "inputs": [],
      "name": "BaseConnextFacet__onlyOwnerOrWatcher_notOwnerOrWatcher",
      "type": "error"
    },
    {
      "inputs": [],
      "name": "BaseConnextFacet__onlyOwner_notOwner",
      "type": "error"
    },
    {
      "inputs": [],
      "name": "BaseConnextFacet__onlyProposed_notProposedOwner",
      "type": "error"
    },
    {
      "inputs": [],
      "name": "BaseConnextFacet__whenNotPaused_paused",
      "type": "error"
    },
    {
      "inputs": [],
      "name": "BridgeFacet__addRemote_invalidDomain",
      "type": "error"
    },
    {
      "inputs": [],
      "name": "BridgeFacet__addSequencer_alreadyApproved",
      "type": "error"
    },
    {
      "inputs": [],
      "name": "BridgeFacet__bumpTransfer_valueIsZero",
      "type": "error"
    },
    {
      "inputs": [],
      "name": "BridgeFacet__executePortalTransfer_insufficientAmountWithdrawn",
      "type": "error"
    },
    {
      "inputs": [],
      "name": "BridgeFacet__execute_alreadyExecuted",
      "type": "error"
    },
    {
      "inputs": [],
      "name": "BridgeFacet__execute_alreadyReconciled",
      "type": "error"
    },
    {
      "inputs": [],
      "name": "BridgeFacet__execute_invalidRouterSignature",
      "type": "error"
    },
    {
      "inputs": [],
      "name": "BridgeFacet__execute_invalidSequencerSignature",
      "type": "error"
    },
    {
      "inputs": [],
      "name": "BridgeFacet__execute_maxRoutersExceeded",
      "type": "error"
    },
    {
      "inputs": [],
      "name": "BridgeFacet__execute_notApprovedForPortals",
      "type": "error"
    },
    {
      "inputs": [],
      "name": "BridgeFacet__execute_notReconciled",
      "type": "error"
    },
    {
      "inputs": [],
      "name": "BridgeFacet__execute_notSupportedRouter",
      "type": "error"
    },
    {
      "inputs": [],
      "name": "BridgeFacet__execute_notSupportedSequencer",
      "type": "error"
    },
    {
      "inputs": [],
      "name": "BridgeFacet__execute_unapprovedSender",
      "type": "error"
    },
    {
      "inputs": [],
      "name": "BridgeFacet__execute_wrongDomain",
      "type": "error"
    },
    {
      "inputs": [],
      "name": "BridgeFacet__forceUpdateSlippage_invalidSlippage",
      "type": "error"
    },
    {
      "inputs": [],
      "name": "BridgeFacet__forceUpdateSlippage_notDestination",
      "type": "error"
    },
    {
      "inputs": [],
      "name": "BridgeFacet__mustHaveRemote_destinationNotSupported",
      "type": "error"
    },
    {
      "inputs": [],
      "name": "BridgeFacet__onlyDelegate_notDelegate",
      "type": "error"
    },
    {
      "inputs": [],
      "name": "BridgeFacet__removeSequencer_notApproved",
      "type": "error"
    },
    {
      "inputs": [],
      "name": "BridgeFacet__xcall_canonicalAssetNotReceived",
      "type": "error"
    },
    {
      "inputs": [],
      "name": "BridgeFacet__xcall_emptyTo",
      "type": "error"
    },
    {
      "inputs": [],
      "name": "BridgeFacet__xcall_invalidSlippage",
      "type": "error"
    },
    {
      "inputs": [],
      "name": "BridgeFacet__xcall_nativeAssetNotSupported",
      "type": "error"
    },
    {
      "inputs": [],
      "name": "BridgeFacet__xcall_notSupportedAsset",
      "type": "error"
    },
    {
      "anonymous": false,
      "inputs": [
        {
          "indexed": true,
          "internalType": "bytes32",
          "name": "transferId",
          "type": "bytes32"
        },
        {
          "indexed": true,
          "internalType": "address",
          "name": "router",
          "type": "address"
        },
        {
          "indexed": false,
          "internalType": "address",
          "name": "asset",
          "type": "address"
        },
        {
          "indexed": false,
          "internalType": "uint256",
          "name": "amount",
          "type": "uint256"
        }
      ],
      "name": "AavePortalMintUnbacked",
      "type": "event"
    },
    {
      "anonymous": false,
      "inputs": [
        {
          "indexed": true,
          "internalType": "bytes32",
          "name": "transferId",
          "type": "bytes32"
        },
        {
          "indexed": true,
          "internalType": "address",
          "name": "to",
          "type": "address"
        },
        {
          "indexed": true,
          "internalType": "address",
          "name": "asset",
          "type": "address"
        },
        {
          "components": [
            {
              "components": [
                {
                  "internalType": "uint32",
                  "name": "originDomain",
                  "type": "uint32"
                },
                {
                  "internalType": "uint32",
                  "name": "destinationDomain",
                  "type": "uint32"
                },
                {
                  "internalType": "uint32",
                  "name": "canonicalDomain",
                  "type": "uint32"
                },
                {
                  "internalType": "address",
                  "name": "to",
                  "type": "address"
                },
                {
                  "internalType": "address",
                  "name": "delegate",
                  "type": "address"
                },
                {
                  "internalType": "bool",
                  "name": "receiveLocal",
                  "type": "bool"
                },
                {
                  "internalType": "bytes",
                  "name": "callData",
                  "type": "bytes"
                },
                {
                  "internalType": "uint256",
                  "name": "slippage",
                  "type": "uint256"
                },
                {
                  "internalType": "address",
                  "name": "originSender",
                  "type": "address"
                },
                {
                  "internalType": "uint256",
                  "name": "bridgedAmt",
                  "type": "uint256"
                },
                {
                  "internalType": "uint256",
                  "name": "normalizedIn",
                  "type": "uint256"
                },
                {
                  "internalType": "uint256",
                  "name": "nonce",
                  "type": "uint256"
                },
                {
                  "internalType": "bytes32",
                  "name": "canonicalId",
                  "type": "bytes32"
                }
              ],
              "internalType": "struct CallParams",
              "name": "params",
              "type": "tuple"
            },
            {
              "internalType": "address[]",
              "name": "routers",
              "type": "address[]"
            },
            {
              "internalType": "bytes[]",
              "name": "routerSignatures",
              "type": "bytes[]"
            },
            {
              "internalType": "address",
              "name": "sequencer",
              "type": "address"
            },
            {
              "internalType": "bytes",
              "name": "sequencerSignature",
              "type": "bytes"
            }
          ],
          "indexed": false,
          "internalType": "struct ExecuteArgs",
          "name": "args",
          "type": "tuple"
        },
        {
          "indexed": false,
          "internalType": "address",
          "name": "local",
          "type": "address"
        },
        {
          "indexed": false,
          "internalType": "uint256",
          "name": "amount",
          "type": "uint256"
        },
        {
          "indexed": false,
          "internalType": "address",
          "name": "caller",
          "type": "address"
        }
      ],
      "name": "Executed",
      "type": "event"
    },
    {
      "anonymous": false,
      "inputs": [
        {
          "indexed": false,
          "internalType": "address",
          "name": "oldExecutor",
          "type": "address"
        },
        {
          "indexed": false,
          "internalType": "address",
          "name": "newExecutor",
          "type": "address"
        },
        {
          "indexed": false,
          "internalType": "address",
          "name": "caller",
          "type": "address"
        }
      ],
      "name": "ExecutorUpdated",
      "type": "event"
    },
    {
      "anonymous": false,
      "inputs": [
        {
          "indexed": true,
          "internalType": "bytes32",
          "name": "transferId",
          "type": "bytes32"
        },
        {
          "indexed": false,
          "internalType": "bool",
          "name": "success",
          "type": "bool"
        },
        {
          "indexed": false,
          "internalType": "bytes",
          "name": "returnData",
          "type": "bytes"
        }
      ],
      "name": "ExternalCalldataExecuted",
      "type": "event"
    },
    {
      "anonymous": false,
      "inputs": [
        {
          "indexed": false,
          "internalType": "uint32",
          "name": "domain",
          "type": "uint32"
        },
        {
          "indexed": false,
          "internalType": "address",
          "name": "remote",
          "type": "address"
        },
        {
          "indexed": false,
          "internalType": "address",
          "name": "caller",
          "type": "address"
        }
      ],
      "name": "RemoteAdded",
      "type": "event"
    },
    {
      "anonymous": false,
      "inputs": [
        {
          "indexed": true,
          "internalType": "address",
          "name": "token",
          "type": "address"
        },
        {
          "indexed": true,
          "internalType": "address",
          "name": "from",
          "type": "address"
        },
        {
          "indexed": true,
          "internalType": "uint32",
          "name": "toDomain",
          "type": "uint32"
        },
        {
          "indexed": false,
          "internalType": "bytes32",
          "name": "toId",
          "type": "bytes32"
        },
        {
          "indexed": false,
          "internalType": "uint256",
          "name": "amount",
          "type": "uint256"
        },
        {
          "indexed": false,
          "internalType": "bool",
          "name": "toHook",
          "type": "bool"
        }
      ],
      "name": "Send",
      "type": "event"
    },
    {
      "anonymous": false,
      "inputs": [
        {
          "indexed": false,
          "internalType": "address",
          "name": "sequencer",
          "type": "address"
        },
        {
          "indexed": false,
          "internalType": "address",
          "name": "caller",
          "type": "address"
        }
      ],
      "name": "SequencerAdded",
      "type": "event"
    },
    {
      "anonymous": false,
      "inputs": [
        {
          "indexed": false,
          "internalType": "address",
          "name": "sequencer",
          "type": "address"
        },
        {
          "indexed": false,
          "internalType": "address",
          "name": "caller",
          "type": "address"
        }
      ],
      "name": "SequencerRemoved",
      "type": "event"
    },
    {
      "anonymous": false,
      "inputs": [
        {
          "indexed": true,
          "internalType": "bytes32",
          "name": "transferId",
          "type": "bytes32"
        },
        {
          "indexed": false,
          "internalType": "uint256",
          "name": "slippage",
          "type": "uint256"
        }
      ],
      "name": "SlippageUpdated",
      "type": "event"
    },
    {
      "anonymous": false,
      "inputs": [
        {
          "indexed": true,
          "internalType": "bytes32",
          "name": "transferId",
          "type": "bytes32"
        },
        {
          "indexed": false,
          "internalType": "uint256",
          "name": "relayerFee",
          "type": "uint256"
        },
        {
          "indexed": false,
          "internalType": "address",
          "name": "caller",
          "type": "address"
        }
      ],
      "name": "TransferRelayerFeesUpdated",
      "type": "event"
    },
    {
      "anonymous": false,
      "inputs": [
        {
          "indexed": true,
          "internalType": "bytes32",
          "name": "transferId",
          "type": "bytes32"
        },
        {
          "indexed": true,
          "internalType": "uint256",
          "name": "nonce",
          "type": "uint256"
        },
        {
          "indexed": true,
          "internalType": "bytes32",
          "name": "messageHash",
          "type": "bytes32"
        },
        {
          "components": [
            {
              "internalType": "uint32",
              "name": "originDomain",
              "type": "uint32"
            },
            {
              "internalType": "uint32",
              "name": "destinationDomain",
              "type": "uint32"
            },
            {
              "internalType": "uint32",
              "name": "canonicalDomain",
              "type": "uint32"
            },
            {
              "internalType": "address",
              "name": "to",
              "type": "address"
            },
            {
              "internalType": "address",
              "name": "delegate",
              "type": "address"
            },
            {
              "internalType": "bool",
              "name": "receiveLocal",
              "type": "bool"
            },
            {
              "internalType": "bytes",
              "name": "callData",
              "type": "bytes"
            },
            {
              "internalType": "uint256",
              "name": "slippage",
              "type": "uint256"
            },
            {
              "internalType": "address",
              "name": "originSender",
              "type": "address"
            },
            {
              "internalType": "uint256",
              "name": "bridgedAmt",
              "type": "uint256"
            },
            {
              "internalType": "uint256",
              "name": "normalizedIn",
              "type": "uint256"
            },
            {
              "internalType": "uint256",
              "name": "nonce",
              "type": "uint256"
            },
            {
              "internalType": "bytes32",
              "name": "canonicalId",
              "type": "bytes32"
            }
          ],
          "indexed": false,
          "internalType": "struct CallParams",
          "name": "params",
          "type": "tuple"
        },
        {
          "indexed": false,
          "internalType": "address",
          "name": "local",
          "type": "address"
        }
      ],
      "name": "XCalled",
      "type": "event"
    },
    {
      "inputs": [],
      "name": "AAVE_REFERRAL_CODE",
      "outputs": [
        {
          "internalType": "uint16",
          "name": "",
          "type": "uint16"
        }
      ],
      "stateMutability": "view",
      "type": "function"
    },
    {
      "inputs": [],
      "name": "DUST_AMOUNT",
      "outputs": [
        {
          "internalType": "uint256",
          "name": "",
          "type": "uint256"
        }
      ],
      "stateMutability": "view",
      "type": "function"
    },
    {
      "inputs": [
        {
          "internalType": "address",
          "name": "_sequencer",
          "type": "address"
        }
      ],
      "name": "addSequencer",
      "outputs": [],
      "stateMutability": "nonpayable",
      "type": "function"
    },
    {
      "inputs": [
        {
          "internalType": "address",
          "name": "_sequencer",
          "type": "address"
        }
      ],
      "name": "approvedSequencers",
      "outputs": [
        {
          "internalType": "bool",
          "name": "",
          "type": "bool"
        }
      ],
      "stateMutability": "view",
      "type": "function"
    },
    {
      "inputs": [
        {
          "internalType": "bytes32",
          "name": "_transferId",
          "type": "bytes32"
        }
      ],
      "name": "bumpTransfer",
      "outputs": [],
      "stateMutability": "payable",
      "type": "function"
    },
    {
      "inputs": [],
      "name": "domain",
      "outputs": [
        {
          "internalType": "uint32",
          "name": "",
          "type": "uint32"
        }
      ],
      "stateMutability": "view",
      "type": "function"
    },
    {
      "inputs": [
        {
          "internalType": "uint32",
          "name": "_domain",
          "type": "uint32"
        },
        {
          "internalType": "bytes32",
          "name": "_router",
          "type": "bytes32"
        }
      ],
      "name": "enrollRemoteRouter",
      "outputs": [],
      "stateMutability": "nonpayable",
      "type": "function"
    },
    {
      "inputs": [
        {
          "components": [
            {
              "components": [
                {
                  "internalType": "uint32",
                  "name": "originDomain",
                  "type": "uint32"
                },
                {
                  "internalType": "uint32",
                  "name": "destinationDomain",
                  "type": "uint32"
                },
                {
                  "internalType": "uint32",
                  "name": "canonicalDomain",
                  "type": "uint32"
                },
                {
                  "internalType": "address",
                  "name": "to",
                  "type": "address"
                },
                {
                  "internalType": "address",
                  "name": "delegate",
                  "type": "address"
                },
                {
                  "internalType": "bool",
                  "name": "receiveLocal",
                  "type": "bool"
                },
                {
                  "internalType": "bytes",
                  "name": "callData",
                  "type": "bytes"
                },
                {
                  "internalType": "uint256",
                  "name": "slippage",
                  "type": "uint256"
                },
                {
                  "internalType": "address",
                  "name": "originSender",
                  "type": "address"
                },
                {
                  "internalType": "uint256",
                  "name": "bridgedAmt",
                  "type": "uint256"
                },
                {
                  "internalType": "uint256",
                  "name": "normalizedIn",
                  "type": "uint256"
                },
                {
                  "internalType": "uint256",
                  "name": "nonce",
                  "type": "uint256"
                },
                {
                  "internalType": "bytes32",
                  "name": "canonicalId",
                  "type": "bytes32"
                }
              ],
              "internalType": "struct CallParams",
              "name": "params",
              "type": "tuple"
            },
            {
              "internalType": "address[]",
              "name": "routers",
              "type": "address[]"
            },
            {
              "internalType": "bytes[]",
              "name": "routerSignatures",
              "type": "bytes[]"
            },
            {
              "internalType": "address",
              "name": "sequencer",
              "type": "address"
            },
            {
              "internalType": "bytes",
              "name": "sequencerSignature",
              "type": "bytes"
            }
          ],
          "internalType": "struct ExecuteArgs",
          "name": "_args",
          "type": "tuple"
        }
      ],
      "name": "execute",
      "outputs": [
        {
          "internalType": "bytes32",
          "name": "",
          "type": "bytes32"
        }
      ],
      "stateMutability": "nonpayable",
      "type": "function"
    },
    {
      "inputs": [
        {
          "components": [
            {
              "internalType": "uint32",
              "name": "originDomain",
              "type": "uint32"
            },
            {
              "internalType": "uint32",
              "name": "destinationDomain",
              "type": "uint32"
            },
            {
              "internalType": "uint32",
              "name": "canonicalDomain",
              "type": "uint32"
            },
            {
              "internalType": "address",
              "name": "to",
              "type": "address"
            },
            {
              "internalType": "address",
              "name": "delegate",
              "type": "address"
            },
            {
              "internalType": "bool",
              "name": "receiveLocal",
              "type": "bool"
            },
            {
              "internalType": "bytes",
              "name": "callData",
              "type": "bytes"
            },
            {
              "internalType": "uint256",
              "name": "slippage",
              "type": "uint256"
            },
            {
              "internalType": "address",
              "name": "originSender",
              "type": "address"
            },
            {
              "internalType": "uint256",
              "name": "bridgedAmt",
              "type": "uint256"
            },
            {
              "internalType": "uint256",
              "name": "normalizedIn",
              "type": "uint256"
            },
            {
              "internalType": "uint256",
              "name": "nonce",
              "type": "uint256"
            },
            {
              "internalType": "bytes32",
              "name": "canonicalId",
              "type": "bytes32"
            }
          ],
          "internalType": "struct CallParams",
          "name": "_params",
          "type": "tuple"
        },
        {
          "internalType": "uint256",
          "name": "_slippage",
          "type": "uint256"
        }
      ],
      "name": "forceUpdateSlippage",
      "outputs": [],
      "stateMutability": "nonpayable",
      "type": "function"
    },
    {
      "inputs": [],
      "name": "nonce",
      "outputs": [
        {
          "internalType": "uint256",
          "name": "",
          "type": "uint256"
        }
      ],
      "stateMutability": "view",
      "type": "function"
    },
    {
      "inputs": [
        {
          "internalType": "bytes32",
          "name": "_transferId",
          "type": "bytes32"
        }
      ],
      "name": "reconciledTransfers",
      "outputs": [
        {
          "internalType": "bool",
          "name": "",
          "type": "bool"
        }
      ],
      "stateMutability": "view",
      "type": "function"
    },
    {
      "inputs": [
        {
          "internalType": "bytes32",
          "name": "_transferId",
          "type": "bytes32"
        }
      ],
      "name": "relayerFees",
      "outputs": [
        {
          "internalType": "uint256",
          "name": "",
          "type": "uint256"
        }
      ],
      "stateMutability": "view",
      "type": "function"
    },
    {
      "inputs": [
        {
          "internalType": "uint32",
          "name": "_domain",
          "type": "uint32"
        }
      ],
      "name": "remote",
      "outputs": [
        {
          "internalType": "address",
          "name": "",
          "type": "address"
        }
      ],
      "stateMutability": "view",
      "type": "function"
    },
    {
      "inputs": [
        {
          "internalType": "address",
          "name": "_sequencer",
          "type": "address"
        }
      ],
      "name": "removeSequencer",
      "outputs": [],
      "stateMutability": "nonpayable",
      "type": "function"
    },
    {
      "inputs": [
        {
          "internalType": "bytes32",
          "name": "_transferId",
          "type": "bytes32"
        }
      ],
      "name": "routedTransfers",
      "outputs": [
        {
          "internalType": "address[]",
          "name": "",
          "type": "address[]"
        }
      ],
      "stateMutability": "view",
      "type": "function"
    },
    {
      "inputs": [
        {
          "internalType": "address",
          "name": "_xAppConnectionManager",
          "type": "address"
        }
      ],
      "name": "setXAppConnectionManager",
      "outputs": [],
      "stateMutability": "nonpayable",
      "type": "function"
    },
    {
      "inputs": [],
      "name": "xAppConnectionManager",
      "outputs": [
        {
          "internalType": "address",
          "name": "",
          "type": "address"
        }
      ],
      "stateMutability": "view",
      "type": "function"
    },
    {
      "inputs": [
        {
          "internalType": "uint32",
          "name": "_destination",
          "type": "uint32"
        },
        {
          "internalType": "address",
          "name": "_to",
          "type": "address"
        },
        {
          "internalType": "address",
          "name": "_asset",
          "type": "address"
        },
        {
          "internalType": "address",
          "name": "_delegate",
          "type": "address"
        },
        {
          "internalType": "uint256",
          "name": "_amount",
          "type": "uint256"
        },
        {
          "internalType": "uint256",
          "name": "_slippage",
          "type": "uint256"
        },
        {
          "internalType": "bytes",
          "name": "_callData",
          "type": "bytes"
        }
      ],
      "name": "xcall",
      "outputs": [
        {
          "internalType": "bytes32",
          "name": "",
          "type": "bytes32"
        }
      ],
      "stateMutability": "payable",
      "type": "function"
    },
    {
      "inputs": [
        {
          "internalType": "uint32",
          "name": "_destination",
          "type": "uint32"
        },
        {
          "internalType": "address",
          "name": "_to",
          "type": "address"
        },
        {
          "internalType": "address",
          "name": "_asset",
          "type": "address"
        },
        {
          "internalType": "address",
          "name": "_delegate",
          "type": "address"
        },
        {
          "internalType": "uint256",
          "name": "_amount",
          "type": "uint256"
        },
        {
          "internalType": "uint256",
          "name": "_slippage",
          "type": "uint256"
        },
        {
          "internalType": "bytes",
          "name": "_callData",
          "type": "bytes"
        }
      ],
      "name": "xcallIntoLocal",
      "outputs": [
        {
          "internalType": "bytes32",
          "name": "",
          "type": "bytes32"
        }
      ],
      "stateMutability": "payable",
      "type": "function"
    }
  ],
  "transactionHash": "0x3ec8a40c8b343dbbbf11f0807e3f9ca10a95e4bac9cde015dd82c3913cf01a8e",
  "args": [],
  "numDeployments": 3,
  "solcInputHash": "0fab695824bb3e9042cee88f25740cca",
  "bytecode": "0x608060405234801561001057600080fd5b50615450806100206000396000f3fe6080604052600436106101145760003560e01c80636989ca7c116100a05780639b098908116100645780639b09890814610316578063affed0e014610343578063b49c53a714610358578063c26c9c0a14610378578063c2fb26a6146103a857600080fd5b80636989ca7c146102955780638a336231146102b55780638aac16ba146102d557806391f5de79146102e857806397f641ab146102fb57600080fd5b80632424401f116100e75780632424401f146101f45780633339df961461020957806341bdc8b514610227578063541267111461024757806363e3e7d21461026757600080fd5b806305a363de14610119578063121cca3114610146578063159e041f1461017e5780631a8bc0e1146101c7575b600080fd5b34801561012557600080fd5b5061012e600081565b60405161ffff90911681526020015b60405180910390f35b34801561015257600080fd5b50610166610161366004614517565b6103cd565b6040516001600160a01b03909116815260200161013d565b34801561018a57600080fd5b506101b7610199366004614552565b6001600160a01b031660009081526029602052604090205460ff1690565b604051901515815260200161013d565b3480156101d357600080fd5b506101e76101e236600461456f565b6103ea565b60405161013d9190614588565b61020761020236600461456f565b610456565b005b34801561021557600080fd5b50602a546001600160a01b0316610166565b34801561023357600080fd5b50610207610242366004614552565b61053c565b34801561025357600080fd5b506102076102623660046145d5565b61058e565b34801561027357600080fd5b5061028761028236600461461f565b610690565b60405190815260200161013d565b3480156102a157600080fd5b506102076102b0366004614552565b6107e3565b3480156102c157600080fd5b506102076102d0366004614552565b6108a9565b6102876102e3366004614659565b61096c565b6102876102f6366004614659565b610a33565b34801561030757600080fd5b5061028766d529ae9e86000081565b34801561032257600080fd5b5061028761033136600461456f565b6000908152600f602052604090205490565b34801561034f57600080fd5b50600354610287565b34801561036457600080fd5b50610207610373366004614726565b610aec565b34801561038457600080fd5b506101b761039336600461456f565b6000908152600b602052604090205460ff1690565b3480156103b457600080fd5b5060045460405163ffffffff909116815260200161013d565b63ffffffff81166000908152601460205260408120545b92915050565b6000818152600c602090815260409182902080548351818402810184019094528084526060939283018282801561044a57602002820191906000526020600020905b81546001600160a01b0316815260019091019060200180831161042c575b50505050509050919050565b6022546001190161047a57604051637ce54e2d60e11b815260040160405180910390fd5b600260225560255460ff16156104a357604051633ee5b89360e01b815260040160405180910390fd5b346000036104c4576040516348e7dc3f60e01b815260040160405180910390fd5b6000818152600f6020526040812080543492906104e2908490614758565b90915550506000818152600f6020908152604091829020548251908152339181019190915282917feab1c093c8ba2224a2907cd9efb6ed51c233306ff5a66853b84e02a0bf95feab910160405180910390a2506001602255565b33610545610bab565b6001600160a01b03161461056c576040516314e74a2560e21b815260040160405180910390fd5b602a80546001600160a01b0319166001600160a01b0392909216919091179055565b81336105a060a0830160808401614552565b6001600160a01b0316146105c75760405163e3613aff60e01b815260040160405180910390fd5b6127108211156105ea57604051633345cd4360e11b815260040160405180910390fd5b60045463ffffffff166106036040850160208601614517565b63ffffffff161461062757604051632a8e462760e01b815260040160405180910390fd5b600061063a61063585614875565b610bd9565b600081815260136020526040908190208590555190915081907fb243c3cea6cd1bbfd64d5d0765f13734ca7b87fdf14e017391fe12a8891434ca906106829086815260200190565b60405180910390a250505050565b602254600090600119016106b757604051637ce54e2d60e11b815260040160405180910390fd5b600260225560255460ff16156106e057604051633ee5b89360e01b815260040160405180910390fd5b6000806106ec84610c09565b600082815260106020526040812080546001600160a01b031916331790559193509150808061074f856107476107228a8061496a565b61018001356107318b8061496a565b610742906060810190604001614517565b610fe9565b86158a61102b565b92509250925060006107648885858989611500565b90506001600160a01b03831661077a898061496a565b61078b906080810190606001614552565b6001600160a01b0316877f0b07a8b0b083f8976b3c832b720632f49cb8ba1e7a99e1b145f51a47d3391cb78b8686336040516107ca9493929190614ae7565b60405180910390a4505060016022555091949350505050565b336107ec610bab565b6001600160a01b031614610813576040516314e74a2560e21b815260040160405180910390fd5b6001600160a01b03811660009081526029602052604090205460ff1661084c57604051637840a40d60e01b815260040160405180910390fd5b6001600160a01b038116600081815260296020908152604091829020805460ff19169055815192835233908301527f4860b0a180d4b5969c2757493a999f05d0b22318320f154a02170aa239e24b1391015b60405180910390a150565b336108b2610bab565b6001600160a01b0316146108d9576040516314e74a2560e21b815260040160405180910390fd5b6001600160a01b03811660009081526029602052604090205460ff16156109135760405163e2a4506360e01b815260040160405180910390fd5b6001600160a01b038116600081815260296020908152604091829020805460ff19166001179055815192835233908301527f3860a100215fe93b6b95ed1ae0870e538f85a73b30d073f63fefc60e08b0c124910161089e565b604080516101a08101825260045463ffffffff90811682528a1660208083019190915260008284018190526001600160a01b03808c1660608501528916608084015260a083018190528351601f86018390048302810183019094528484529283929160c0830191908790879081908401838280828437600092018290525093855250505060208201889052336040830152606082018190526080820181905260a0820181905260c0909101529050610a25818988611549565b9a9950505050505050505050565b604080516101a08101825260045463ffffffff90811682528a1660208083019190915260008284018190526001600160a01b03808c16606085015289166080840152600160a08401528351601f86018390048302810183019094528484529283929160c0830191908790879081908401838280828437600092018290525093855250505060208201889052336040830152606082018190526080820181905260a0820181905260c0909101529050610a25818988611549565b33610af5610bab565b6001600160a01b031614610b1c576040516314e74a2560e21b815260040160405180910390fd5b60045463ffffffff90811690831603610b4857604051632892757b60e21b815260040160405180910390fd5b63ffffffff821660008181526014602090815260409182902084905581519283526001600160a01b038416908301523382820152517fb07f562723347d6ea7f9f37b3b31f96b65104c3339d1c89e1b6fa88e2410b85c9181900360600190a15050565b7fc8fcad8db84d3cc18b4c41d551ea0ee66dd599cde068d998e57d5e09332c1320546001600160a01b031690565b600081604051602001610bec9190614e69565b604051602081830303815290604052805190602001209050919050565b336000908152600e6020526040812054819060ff16158015610c575750610c30838061496a565b610c419060a0810190608001614552565b6001600160a01b0316336001600160a01b031614155b15610c7557604051637c32a2b360e01b815260040160405180910390fd5b60045463ffffffff16610c88848061496a565b610c99906040810190602001614517565b63ffffffff1614610cbd5760405163b6bb322560e01b815260040160405180910390fd5b6000610ccc6020850185614e7c565b6011549092508211159050610cf4576040516313c06ef360e01b815260040160405180910390fd5b6000610d0c610d03868061496a565b61063590614875565b6000818152600b6020908152604080832054905193945060ff1692610d3e918591879101918252602082015260400190565b60405160208183030381529060405280519060200120905083600014610f89578115610d7d5760405163373c9f6f60e01b815260040160405180910390fd5b60296000610d9160808a0160608b01614552565b6001600160a01b0316815260208101919091526040016000205460ff16610dcb57604051631fa09b5360e31b815260040160405180910390fd5b610e1883610ddc60208a018a614e7c565b604051602001610dee93929190614ec5565b60408051601f198184030181529190528051602090910120610e1360808a018a614edf565b611808565b6001600160a01b0316610e316080890160608a01614552565b6001600160a01b031614610e5857604051638579eca560e01b815260040160405180910390fd5b60005b84811015610f8357610e6b61185a565b158015610ec85750601c6000610e8460208b018b614e7c565b84818110610e9457610e94614f25565b9050602002016020810190610ea99190614552565b6001600160a01b0316815260208101919091526040016000205460ff16155b15610ee657604051630e1eb7f760e31b815260040160405180910390fd5b610f1982610ef760408b018b614e7c565b84818110610f0757610f07614f25565b9050602002810190610e139190614edf565b6001600160a01b0316610f2f60208a018a614e7c565b83818110610f3f57610f3f614f25565b9050602002016020810190610f549190614552565b6001600160a01b031614610f7b57604051633a1dd23360e21b815260040160405180910390fd5b600101610e5b565b50610fa7565b81610fa757604051636320d2cf60e11b815260040160405180910390fd5b6000838152601060205260409020546001600160a01b031615610fdd5760405163c2f8eb9360e01b815260040160405180910390fd5b50909590945092505050565b6000828260405160200161100d92919091825263ffffffff16602082015260400190565b60405160208183030381529060405280519060200120905092915050565b6000808061103c6020850185614e7c565b6000898152600c6020526040902061105592909161448b565b50600061108b87611066878061496a565b6101800135611075888061496a565b611086906060810190604001614517565b611881565b9050611097858061496a565b61012001356000036110b1576000935091508190506114f6565b60006110bd868061496a565b6101200135905086156114765760006110d96020880188614e7c565b91506110fd90506110ea888061496a565b6101200135600060010154612710611890565b91508060010361130757611111878061496a565b6111229060c081019060a001614f3b565b15801561118e575081600d600061113c60208b018b614e7c565b600081811061114d5761114d614f25565b90506020020160208101906111629190614552565b6001600160a01b0390811682526020808301939093526040918201600090812091881681529252902054105b80156111a9575060255461010090046001600160a01b031615155b1561127257601d60006111bf60208a018a614e7c565b60008181106111d0576111d0614f25565b90506020020160208101906111e59190614552565b6001600160a01b0316815260208101919091526040016000205460ff1661121f576040516310c4e50960e01b815260040160405180910390fd5b6000806112608c8c8661123560208e018e614e7c565b600081811061124657611246614f25565b905060200201602081019061125b9190614552565b6118a7565b90985096509394506114f69350505050565b81600d600061128460208b018b614e7c565b600081811061129557611295614f25565b90506020020160208101906112aa9190614552565b6001600160a01b03166001600160a01b031681526020019081526020016000206000856001600160a01b03166001600160a01b0316815260200190815260200160002060008282546112fc9190614f58565b909155506114749050565b60006113138284614f85565b905060005b611323600184614f58565b8110156113c05781600d600061133c60208d018d614e7c565b8581811061134c5761134c614f25565b90506020020160208101906113619190614552565b6001600160a01b03166001600160a01b031681526020019081526020016000206000876001600160a01b03166001600160a01b0316815260200190815260200160002060008282546113b39190614f58565b9091555050600101611318565b5060006113cd8385614f99565b6113d79083614758565b905080600d60006113eb60208d018d614e7c565b6113f6600189614f58565b81811061140557611405614f25565b905060200201602081019061141a9190614552565b6001600160a01b03166001600160a01b031681526020019081526020016000206000876001600160a01b03166001600160a01b03168152602001908152602001600020600082825461146c9190614f58565b909155505050505b505b611480868061496a565b6114919060c081019060a001614f3b565b156114a257935091508190506114f6565b60008981526013602052604081205490806114e98b86868685036114d3576114ca8d8061496a565b60e001356114d5565b865b6114df8e8061496a565b6101400135611a73565b9098509650939450505050505b9450945094915050565b600061152784611510888061496a565b611521906080810190606001614552565b87611b46565b61153d838686856115388b8061496a565b611b8a565b50835b95945050505050565b60255460009060ff161561157057604051633ee5b89360e01b815260040160405180910390fd5b60006001600160a01b03841615801561158857508215155b156115a65760405163ae715ad360e01b815260040160405180910390fd5b6115b38560200151611d81565b60608601519091506001600160a01b03166115e05760405162845fdd60e41b815260040160405180910390fd5b6127108560e0015111156116075760405163388d723160e11b815260040160405180910390fd5b604080518082019091526000808252602082018190529081906000806001600160a01b0389161561169e5761163b89611dba565b6020820151825192955090925061165491839190611881565b83518b5191965063ffffffff91821691161480156116835750886001600160a01b0316856001600160a01b0316145b835163ffffffff1660408c015260208401516101808c015291505b87156116c6576116ae8989611e3e565b6116bf818a878b8e60e00151611f57565b6101208b01525b6001600160a01b0389161561174757611742896001600160a01b031663313ce5676040518163ffffffff1660e01b8152600401602060405180830381865afa158015611716573d6000803e3d6000fd5b505050506040513d601f19601f8201168201806040525081019061173a9190614fad565b60128a61206b565b61174a565b60005b6101408b01526117598a610bd9565b60038054919550600061176b83614fd0565b909155506101608b0152506000838152600f602052604081208054349290611794908490614758565b9250508190555060006117b5848b602001518886898f6101200151886120d6565b9050808a6101600151857ff396bf2f190af41bfaba814075e8d206f741ff48b2effe0af036a5aef81559eb8d896040516117f0929190614fe9565b60405180910390a450919450505050505b9392505050565b6000611852611816856122c6565b84848080601f01602080910402602001604051908101604052809392919081815260200183838082843760009201919091525061230192505050565b949350505050565b600080611865610bab565b6001600160a01b0316148061187c575060175460ff165b905090565b60006118528484846000612325565b60008161189d8486615013565b6118529190614f85565b60008060006118b586612363565b6025546040516369a933a560e01b81526001600160a01b0380841660048301526024820189905230604483015260006064830152929350610100909104909116906369a933a590608401600060405180830381600087803b15801561191957600080fd5b505af115801561192d573d6000803e3d6000fd5b5050602554604051631a4ca37b60e21b81526001600160a01b038581166004830152602482018a90523060448301526000945061010090920490911691506369328dec906064016020604051808303816000875af1158015611993573d6000803e3d6000fd5b505050506040513d601f19601f820116820180604052508101906119b79190615032565b9050858110156119da5760405163407559a360e11b815260040160405180910390fd5b6000888152602760205260409020869055602654612710906119fd908890615013565b611a079190614f85565b6000898152602860209081526040918290209290925580516001600160a01b038581168252928101899052918716918a917f2d3ba0fa5be2ef8cb1ec8920a07a6cbccc2397b18ca3e70f48ea695500b8f218910160405180910390a35084925090505b94509492505050565b600085815260096020526040812054819081906001600160a01b039081169088168103611aa7578688935093505050611b3c565b86600003611abb578693509150611b3c9050565b611b358989838a611b306012876001600160a01b031663313ce5676040518163ffffffff1660e01b8152600401602060405180830381865afa158015611b05573d6000803e3d6000fd5b505050506040513d601f19601f82011682018060405250810190611b299190614fad565b8c8e612399565b6123e5565b9350935050505b9550959350505050565b80600003611b5357505050565b6001600160a01b038316611b7a57604051633a48ca7b60e11b815260040160405180910390fd5b611b8583838361251e565b505050565b7fc5d2460186f7233c927e7db2dcc703c0e500b653ca82273b7bfad8045d85a470611bb860c0830183614edf565b604051611bc692919061504b565b60405180910390200315611d7a57600060608315611c9057611c86611bf16080850160608601614552565b6127105a611bff9190614f58565b600061010063fd614f4160e01b8c8c8c611c1f6101208d018d8701614552565b611c2c60208e018e614517565b611c3960c08f018f614edf565b604051602401611c4f979695949392919061505b565b60408051601f198184030181529190526020810180516001600160e01b03166001600160e01b031990931692909217909152612581565b9092509050611d3d565b611ca06080840160608501614552565b6001600160a01b031663fd614f418888886000611cc060208a018a614517565b611ccd60c08b018b614edf565b6040518863ffffffff1660e01b8152600401611cef979695949392919061505b565b6000604051808303816000875af1158015611d0e573d6000803e3d6000fd5b505050506040513d6000823e601f3d908101601f19168201604052611d3691908101906150ae565b9050600191505b867fb1a4ab59facaedd6d3a71da3902e0a1fa5b99750c0e20cd878334378a41cb3358383604051611d6f92919061511b565b60405180910390a250505b5050505050565b63ffffffff811660009081526014602052604090205480611db557604051630c3bcd4960e41b815260040160405180910390fd5b919050565b6040805180820190915260008082526020820152600080611dda8461260b565b90506000611df082602001518360000151610fe9565b9050611dfa61262a565b158015611e16575060008181526006602052604090205460ff16155b15611e345760405163d7ad34f160e01b815260040160405180910390fd5b9094909350915050565b80600003611e4a575050565b6040516370a0823160e01b81523060048201526000906001600160a01b038416906370a0823190602401602060405180830381865afa158015611e91573d6000803e3d6000fd5b505050506040513d601f19601f82011682018060405250810190611eb59190615032565b9050611ec38333308561264f565b6040516370a0823160e01b8152306004820152829082906001600160a01b038616906370a0823190602401602060405180830381865afa158015611f0b573d6000803e3d6000fd5b505050506040513d601f19601f82011682018060405250810190611f2f9190615032565b611f399190614f58565b14611b8557604051631a39afd960e11b815260040160405180910390fd5b600082600003611f68575081611540565b846001600160a01b0316846001600160a01b031603611f88575081611540565b600061205f87878787611b308b6001600160a01b031663313ce5676040518163ffffffff1660e01b8152600401602060405180830381865afa158015611fd2573d6000803e3d6000fd5b505050506040513d601f19601f82011682018060405250810190611ff69190614fad565b8b6001600160a01b031663313ce5676040518163ffffffff1660e01b8152600401602060405180830381865afa158015612034573d6000803e3d6000fd5b505050506040513d601f19601f820116820180604052508101906120589190614fad565b8b8b612399565b50979650505050505050565b60008260ff168460ff1603612081575080611801565b60008360ff168560ff1610156120b75761209b8585615136565b6120a690600a61523d565b6120b09084615013565b9050611852565b6120c18486615136565b6120cc90600a61523d565b6115409084614f85565b83516020850151600091859183916120ed9161268d565b9050841561215b578361215b57604051632770a7eb60e21b8152306004820152602481018690526001600160a01b03831690639dc29fac90604401600060405180830381600087803b15801561214257600080fd5b505af1158015612156573d6000803e3d6000fd5b505050505b6000612167868c6126cc565b9050600080602a0160009054906101000a90046001600160a01b03166001600160a01b0316639fa92f9d6040518163ffffffff1660e01b8152600401602060405180830381865afa1580156121c0573d6000803e3d6000fd5b505050506040513d601f19601f820116820180604052508101906121e4919061524c565b6001600160a01b031663fa31de018c8c6121fe87876126e8565b6040518463ffffffff1660e01b815260040161221c93929190615269565b6020604051808303816000875af115801561223b573d6000803e3d6000fd5b505050506040513d601f19601f8201168201806040525081019061225f9190615032565b604080518c8152602081018a9052600181830152905191925063ffffffff8d169133916001600160a01b038c16917fa3d219cf126a12be40d7ad1ceef46231c987988dd4e686457b610e1b6b80a4bf9181900360600190a49b9a5050505050505050505050565b6040517f19457468657265756d205369676e6564204d6573736167653a0a3332000000006020820152603c8101829052600090605c01610bec565b600080600061231085856127c3565b9150915061231d81612808565b509392505050565b600481015460009063ffffffff90811690841603612344575082611852565b506000938452600a01602052505060409020546001600160a01b031690565b6000818152600960205260408120546001600160a01b0316806103e457604051634cdfde3760e11b815260040160405180910390fd5b6000826000036123ab57506000611852565b60006127106123ba8482614f58565b6123c49086615013565b6123ce9190614f85565b90506123db86868361206b565b9695505050505050565b600085815260236020526040812060080154819081901561243b5761243061240d89896129c1565b6124178a896129c1565b60008b8152602385016020526040902091908888612a41565b869250925050611b3c565b60008881526005820160205260408120546001600160a01b0316906124639089908390612d6e565b61246e888288612e83565b6001600160a01b03811663d460f0a2878a8a8961248d42610e10614758565b6040516001600160e01b031960e088901b16815260048101959095526001600160a01b0393841660248601529290911660448401526064830152608482015260a4016020604051808303816000875af11580156124ee573d6000803e3d6000fd5b505050506040513d601f19601f820116820180604052508101906125129190615032565b87935093505050611b3c565b6040516001600160a01b038316602482015260448101829052611b8590849063a9059cbb60e01b906064015b60408051601f198184030181529190526020810180516001600160e01b03166001600160e01b031990931692909217909152612f35565b6000606060008060008661ffff166001600160401b038111156125a6576125a6614770565b6040519080825280601f01601f1916602001820160405280156125d0576020820181803683370190505b5090506000808751602089018b8e8ef191503d9250868311156125f1578692505b828152826000602083013e90999098509650505050505050565b60408051808201909152600080825260208201526103e4826000613007565b600080612635610bab565b6001600160a01b0316148061187c57505060195460ff1690565b6040516001600160a01b03808516602483015283166044820152606481018290526126879085906323b872dd60e01b9060840161254a565b50505050565b600061180160016040516001600160e01b031960e087901b166020820152602481018590526044015b60408051601f19818403018152919052906130ff565b600061180160038085856040516020016126b6939291906152a4565b60608260016126fd62ffffff1983168261311a565b50612707846131f3565b6127425760405162461bcd60e51b815260206004820152600760248201526610b0b1ba34b7b760c91b60448201526064015b60405180910390fd5b604080516002808252606082018352600092602083019080368337019050509050858160008151811061277757612777614f25565b602002602001019062ffffff1916908162ffffff19168152505084816001815181106127a5576127a5614f25565b62ffffff19909216602092830291909101909101526123db816131fe565b60008082516041036127f95760208301516040840151606085015160001a6127ed87828585613253565b94509450505050612801565b506000905060025b9250929050565b600081600481111561281c5761281c61528e565b036128245750565b60018160048111156128385761283861528e565b036128855760405162461bcd60e51b815260206004820152601860248201527f45434453413a20696e76616c6964207369676e617475726500000000000000006044820152606401612739565b60028160048111156128995761289961528e565b036128e65760405162461bcd60e51b815260206004820152601f60248201527f45434453413a20696e76616c6964207369676e6174757265206c656e677468006044820152606401612739565b60038160048111156128fa576128fa61528e565b036129525760405162461bcd60e51b815260206004820152602260248201527f45434453413a20696e76616c6964207369676e6174757265202773272076616c604482015261756560f01b6064820152608401612739565b60048160048111156129665761296661528e565b036129be5760405162461bcd60e51b815260206004820152602260248201527f45434453413a20696e76616c6964207369676e6174757265202776272076616c604482015261756560f01b6064820152608401612739565b50565b60008281526024602090815260408083206001600160a01b0385168085529083528184205486855260239093529083206008018054849360ff1692919083908110612a0e57612a0e614f25565b6000918252602090912001546001600160a01b0316146118525760405163054e442960e41b815260040160405180910390fd5b600080866008018660ff1681548110612a5c57612a5c614f25565b6000918252602090912001546040516370a0823160e01b81523360048201526001600160a01b03909116915081906370a0823190602401602060405180830381865afa158015612ab0573d6000803e3d6000fd5b505050506040513d601f19601f82011682018060405250810190612ad49190615032565b841115612b175760405162461bcd60e51b815260206004820152601160248201527036b7b932903a3430b7103cb7ba9037bbb760791b6044820152606401612739565b600080600089600a01805480602002602001604051908101604052809291908181526020018280548015612b6a57602002820191906000526020600020905b815481526020019060010190808311612b56575b50505050509050612b7e8a8a8a8a8561333d565b909350915085831015612bc05760405162461bcd60e51b815260206004820152600a6024820152696479203c206d696e447960b01b6044820152606401612739565b60008a6009018960ff1681548110612bda57612bda614f25565b90600052602060002001546402540be4008c6006015485612bfb9190615013565b612c059190614f85565b612c0f9190614f85565b905087828b60ff1681518110612c2757612c27614f25565b6020026020010151612c399190614758565b8b600a018b60ff1681548110612c5157612c51614f25565b90600052602060002001819055508084838b60ff1681518110612c7657612c76614f25565b6020026020010151612c889190614f58565b612c929190614f58565b8b600a018a60ff1681548110612caa57612caa614f25565b6000918252602090912001558015612d0f57808b600b018a60ff1681548110612cd557612cd5614f25565b9060005260206000200154612cea9190614758565b8b600b018a60ff1681548110612d0257612d02614f25565b6000918252602090912001555b8a54604080518a81526020810187905260ff8d8116828401528c16606082015290513392917f28d4cf2d5709da3b474b5f05cfd7083faffd601f9500d1f8439b8a13ec7df320919081900360800190a350919998505050505050505050565b801580612de85750604051636eb1769f60e11b81523060048201526001600160a01b03838116602483015284169063dd62ed3e90604401602060405180830381865afa158015612dc2573d6000803e3d6000fd5b505050506040513d601f19601f82011682018060405250810190612de69190615032565b155b612e535760405162461bcd60e51b815260206004820152603660248201527f5361666545524332303a20617070726f76652066726f6d206e6f6e2d7a65726f60448201527520746f206e6f6e2d7a65726f20616c6c6f77616e636560501b6064820152608401612739565b6040516001600160a01b038316602482015260448101829052611b8590849063095ea7b360e01b9060640161254a565b604051636eb1769f60e11b81523060048201526001600160a01b038381166024830152600091839186169063dd62ed3e90604401602060405180830381865afa158015612ed4573d6000803e3d6000fd5b505050506040513d601f19601f82011682018060405250810190612ef89190615032565b612f029190614758565b6040516001600160a01b03851660248201526044810182905290915061268790859063095ea7b360e01b9060640161254a565b6000612f8a826040518060400160405280602081526020017f5361666545524332303a206c6f772d6c6576656c2063616c6c206661696c6564815250856001600160a01b03166135039092919063ffffffff16565b805190915015611b855780806020019051810190612fa891906152e0565b611b855760405162461bcd60e51b815260206004820152602a60248201527f5361666545524332303a204552433230206f7065726174696f6e20646964206e6044820152691bdd081cdd58d8d9595960b21b6064820152608401612739565b604080518082019091526000808252602082015260408051808201909152600080825260208201526001600160a01b0384166130445790506103e4565b506001600160a01b03831660009081526007830160209081526040918290208251808401909352805463ffffffff16808452600190910154918301919091521561308f5790506103e4565b6130998484613512565b156130bf57600483015463ffffffff1681526001600160a01b0384166020820152611801565b506001600160a01b03831660009081526008830160209081526040918290208251808401909352805463ffffffff16835260010154908201529392505050565b81516000906020840161154064ffffffffff85168284613548565b6000613126838361358f565b6131ec5760006131456131398560d81c90565b64ffffffffff166135b2565b915050600061315a8464ffffffffff166135b2565b6040517f5479706520617373657274696f6e206661696c65642e20476f7420307800000060208201526001600160b01b031960b086811b8216603d8401526c05c408af0e0cac6e8cac84060f609b1b604784015283901b16605482015290925060009150605e0160405160208183030381529060405290508060405162461bcd60e51b815260040161273991906152fd565b5090919050565b60006103e482613660565b6040516060906000613213846020840161366d565b9050600061322a8260181c6001600160601b031690565b6001600160601b031690506000613240836136fd565b9184525082016020016040525092915050565b6000807f7fffffffffffffffffffffffffffffff5d576e7357a4501ddfe92f46681b20a083111561328a5750600090506003611a6a565b8460ff16601b141580156132a257508460ff16601c14155b156132b35750600090506004611a6a565b6040805160008082526020820180845289905260ff881692820192909252606081018690526080810185905260019060a0016020604051602081039080840390855afa158015613307573d6000803e3d6000fd5b5050604051601f1901519150506001600160a01b03811661333057600060019250925050611a6a565b9660009650945050505050565b60008060008760090180548060200260200160405190810160405280929190818152602001828054801561339057602002820191906000526020600020905b81548152602001906001019080831161337c575b5050505050905060006133a38583613713565b905080518860ff161080156133bb575080518760ff16105b6133fc5760405162461bcd60e51b8152602060048201526012602482015271696e646578206f7574206f662072616e676560701b6044820152606401612739565b6000818960ff168151811061341357613413614f25565b6020026020010151838a60ff168151811061343057613430614f25565b6020026020010151886134439190615013565b61344d9190614758565b9050600061346661345d8c61381d565b8b8b8587613828565b9050600181848b60ff168151811061348057613480614f25565b60200260200101516134929190614f58565b61349c9190614f58565b95506402540be4008b60050154876134b49190615013565b6134be9190614f85565b9450838960ff16815181106134d5576134d5614f25565b602002602001015185876134e99190614f58565b6134f39190614f85565b9550505050509550959350505050565b60606118528484600085613a8f565b6001600160a01b038216600090815260088201602052604081205463ffffffff1615613540575060006103e4565b50503b151590565b6000806135558385614758565b9050604051811115613565575060005b8060000361357a5762ffffff19915050611801565b5050606092831b9190911790911b1760181b90565b60008164ffffffffff166135a38460d81c90565b64ffffffffff16149392505050565b600080601f5b600f8160ff1611156136075760006135d1826008615310565b60ff1685901c90506135e281613bc0565b61ffff16841793508160ff166010146135fd57601084901b93505b50600019016135b8565b50600f5b60ff8160ff16101561365a576000613624826008615310565b60ff1685901c905061363581613bc0565b61ffff16831792508160ff1660001461365057601083901b92505b506000190161360b565b50915091565b60006103e4826003613bf2565b6000604051828111156136805760206060fd5b506000805b84518110156136ed5760008582815181106136a2576136a2614f25565b602002602001015190506136b881848701613c51565b506136cc8160181c6001600160601b031690565b6001600160601b0316830192505080806136e590614fd0565b915050613685565b50606083901b811760181b611852565b600061370882613da8565b6103e4906020615013565b815181516060919081146137605760405162461bcd60e51b81526020600482015260146024820152736d69736d61746368206d756c7469706c6965727360601b6044820152606401612739565b6000816001600160401b0381111561377a5761377a614770565b6040519080825280602002602001820160405280156137a3578160200160208202803683370190505b50905060005b82811015613814578481815181106137c3576137c3614f25565b60200260200101518682815181106137dd576137dd614f25565b60200260200101516137ef9190615013565b82828151811061380157613801614f25565b60209081029190910101526001016137a9565b50949350505050565b60006103e482613ddd565b805160009060ff808616908716036138825760405162461bcd60e51b815260206004820152601760248201527f636f6d7061726520746f6b656e20746f20697473656c660000000000000000006044820152606401612739565b808660ff161080156138965750808560ff16105b6138d45760405162461bcd60e51b815260206004820152600f60248201526e1d1bdad95b881b9bdd08199bdd5b99608a1b6044820152606401612739565b60006138e08489613e7d565b9050806000806138f08b86615013565b90506000805b86811015613977578b60ff16810361391057899150613943565b8a60ff16811461393b5788818151811061392c5761392c614f25565b60200260200101519150613943565b6001016138f6565b61394d8285614758565b93506139598783615013565b6139638787615013565b61396d9190614f85565b94506001016138f6565b506139828683615013565b606461398e8787615013565b6139989190615013565b6139a29190614f85565b93506000826139b2606488615013565b6139bc9190614f85565b6139c69085614758565b9050600086815b610100811015613a465781925088848360026139e99190615013565b6139f39190614758565b6139fd9190614f58565b88613a088480615013565b613a129190614758565b613a1c9190614f85565b9150613a28828461402a565b15613a3e57509850611540975050505050505050565b6001016139cd565b5060405162461bcd60e51b815260206004820152601e60248201527f417070726f78696d6174696f6e20646964206e6f7420636f6e766572676500006044820152606401612739565b606082471015613af05760405162461bcd60e51b815260206004820152602660248201527f416464726573733a20696e73756666696369656e742062616c616e636520666f6044820152651c8818d85b1b60d21b6064820152608401612739565b6001600160a01b0385163b613b475760405162461bcd60e51b815260206004820152601d60248201527f416464726573733a2063616c6c20746f206e6f6e2d636f6e74726163740000006044820152606401612739565b600080866001600160a01b03168587604051613b639190615331565b60006040518083038185875af1925050503d8060008114613ba0576040519150601f19603f3d011682016040523d82523d6000602084013e613ba5565b606091505b5091509150613bb5828286614041565b979650505050505050565b6000613bd260048360ff16901c61407a565b60ff1661ffff919091161760081b613be98261407a565b60ff1617919050565b6000816003811115613c0657613c0661528e565b60ff16613c12846141c7565b60ff161480156118015750816003811115613c2f57613c2f61528e565b613c38846141db565b6003811115613c4957613c4961528e565b149392505050565b600062ffffff1980841603613cb95760405162461bcd60e51b815260206004820152602860248201527f54797065644d656d566965772f636f7079546f202d204e756c6c20706f696e7460448201526732b9103232b932b360c11b6064820152608401612739565b613cc2836141f6565b613d225760405162461bcd60e51b815260206004820152602b60248201527f54797065644d656d566965772f636f7079546f202d20496e76616c696420706f60448201526a34b73a32b9103232b932b360a91b6064820152608401612739565b6000613d378460181c6001600160601b031690565b6001600160601b031690506000613d578560781c6001600160601b031690565b6001600160601b031690506000604051905084811115613d775760206060fd5b8285848460045afa506123db613d8d8760d81c90565b64ffffffffff60601b606091821b168717901b841760181b90565b60006020613dbf8360181c6001600160601b031690565b613dd3906001600160601b0316601f614758565b6103e49190614f85565b600481015460028201546000919042821115611801576003840154600185015480831115613e4157613e0f8285614f58565b613e198342614f58565b613e238386614f58565b613e2d9190615013565b613e379190614f85565b6123db9082614758565b613e4b8285614f58565b613e558342614f58565b613e5f8584614f58565b613e699190615013565b613e739190614f85565b6123db9082614f58565b815160009081805b82811015613ebc57858181518110613e9f57613e9f614f25565b602002602001015182613eb29190614758565b9150600101613e85565b5080600003613ed0576000925050506103e4565b60008181613ede8588615013565b905060005b610100811015613feb578260005b87811015613f3c57878b8281518110613f0c57613f0c614f25565b6020026020010151613f1e9190615013565b613f288684615013565b613f329190614f85565b9150600101613ef1565b5083945080876001613f4e9190614758565b613f589190615013565b606485613f658287614f58565b613f6f9190615013565b613f799190614f85565b613f839190614758565b84613f8e8984615013565b6064613f9a8a88615013565b613fa49190614f85565b613fae9190614758565b613fb89190615013565b613fc29190614f85565b9350613fce848661402a565b15613fe257839750505050505050506103e4565b50600101613ee3565b5060405162461bcd60e51b81526020600482015260136024820152724420646f6573206e6f7420636f6e766572676560681b6044820152606401612739565b600060016140388484614233565b11159392505050565b60608315614050575081611801565b8251156140605782518084602001fd5b8160405162461bcd60e51b815260040161273991906152fd565b600060f08083179060ff821690036140955750603092915050565b8060ff1660f1036140a95750603192915050565b8060ff1660f2036140bd5750603292915050565b8060ff1660f3036140d15750603392915050565b8060ff1660f4036140e55750603492915050565b8060ff1660f5036140f95750603592915050565b8060ff1660f60361410d5750603692915050565b8060ff1660f7036141215750603792915050565b8060ff1660f8036141355750603892915050565b8060ff1660f9036141495750603992915050565b8060ff1660fa0361415d5750606192915050565b8060ff1660fb036141715750606292915050565b8060ff1660fc036141855750606392915050565b8060ff1660fd036141995750606492915050565b8060ff1660fe036141ad5750606592915050565b8060ff1660ff036141c15750606692915050565b50919050565b60006103e462ffffff198316826001614258565b600060d882901c60ff1660038111156103e4576103e461528e565b60006142028260d81c90565b64ffffffffff1664ffffffffff0361421c57506000919050565b600061422783614288565b60405110199392505050565b60008183111561424e576142478284614f58565b90506103e4565b6118018383614f58565b6000614265826020615136565b614270906008615310565b60ff1661427e8585856142c1565b901c949350505050565b600061429d8260181c6001600160601b031690565b6142b08360781c6001600160601b031690565b016001600160601b03169050919050565b60008160ff166000036142d657506000611801565b6142e98460181c6001600160601b031690565b6001600160601b03166142ff60ff841685614758565b11156143635761434a61431b8560781c6001600160601b031690565b6001600160601b03166143378660181c6001600160601b031690565b6001600160601b0316858560ff1661441d565b60405162461bcd60e51b815260040161273991906152fd565b60208260ff1611156143dd5760405162461bcd60e51b815260206004820152603a60248201527f54797065644d656d566965772f696e646578202d20417474656d70746564207460448201527f6f20696e646578206d6f7265207468616e2033322062797465730000000000006064820152608401612739565b6008820260006143f68660781c6001600160601b031690565b6001600160601b031690506000600160ff1b60001984011d91909501511695945050505050565b6060600061442a866135b2565b9150506000614438866135b2565b9150506000614446866135b2565b9150506000614454866135b2565b9150508383838360405160200161446e9493929190615343565b604051602081830303815290604052945050505050949350505050565b8280548282559060005260206000209081019282156144de579160200282015b828111156144de5781546001600160a01b0319166001600160a01b038435161782556020909201916001909101906144ab565b506144ea9291506144ee565b5090565b5b808211156144ea57600081556001016144ef565b803563ffffffff81168114611db557600080fd5b60006020828403121561452957600080fd5b61180182614503565b6001600160a01b03811681146129be57600080fd5b8035611db581614532565b60006020828403121561456457600080fd5b813561180181614532565b60006020828403121561458157600080fd5b5035919050565b6020808252825182820181905260009190848201906040850190845b818110156145c95783516001600160a01b0316835292840192918401916001016145a4565b50909695505050505050565b600080604083850312156145e857600080fd5b82356001600160401b038111156145fe57600080fd5b83016101a0818603121561461157600080fd5b946020939093013593505050565b60006020828403121561463157600080fd5b81356001600160401b0381111561464757600080fd5b820160a0818503121561180157600080fd5b60008060008060008060008060e0898b03121561467557600080fd5b61467e89614503565b9750602089013561468e81614532565b9650604089013561469e81614532565b955060608901356146ae81614532565b94506080890135935060a0890135925060c08901356001600160401b03808211156146d857600080fd5b818b0191508b601f8301126146ec57600080fd5b8135818111156146fb57600080fd5b8c602082850101111561470d57600080fd5b6020830194508093505050509295985092959890939650565b6000806040838503121561473957600080fd5b61461183614503565b634e487b7160e01b600052601160045260246000fd5b6000821982111561476b5761476b614742565b500190565b634e487b7160e01b600052604160045260246000fd5b6040516101a081016001600160401b03811182821017156147a9576147a9614770565b60405290565b604051601f8201601f191681016001600160401b03811182821017156147d7576147d7614770565b604052919050565b80151581146129be57600080fd5b8035611db5816147df565b60006001600160401b0382111561481157614811614770565b50601f01601f191660200190565b600082601f83011261483057600080fd5b813561484361483e826147f8565b6147af565b81815284602083860101111561485857600080fd5b816020850160208301376000918101602001919091529392505050565b60006101a0823603121561488857600080fd5b614890614786565b61489983614503565b81526148a760208401614503565b60208201526148b860408401614503565b60408201526148c960608401614547565b60608201526148da60808401614547565b60808201526148eb60a084016147ed565b60a082015260c08301356001600160401b0381111561490957600080fd5b6149153682860161481f565b60c08301525060e083013560e0820152610100614933818501614547565b9082015261012083810135908201526101408084013590820152610160808401359082015261018092830135928101929092525090565b6000823561019e1983360301811261498157600080fd5b9190910192915050565b6000808335601e198436030181126149a257600080fd5b83016020810192503590506001600160401b038111156149c157600080fd5b80360382131561280157600080fd5b81835281816020850137506000828201602090810191909152601f909101601f19169091010190565b6000808335601e19843603018112614a1057600080fd5b83016020810192503590506001600160401b03811115614a2f57600080fd5b8060051b360382131561280157600080fd5b8183526000602080850194508260005b85811015614a7f578135614a6481614532565b6001600160a01b031687529582019590820190600101614a51565b509495945050505050565b81835260006020808501808196508560051b810191508460005b87811015614ada578284038952614abb828861498b565b614ac68682846149d0565b9a87019a9550505090840190600101614aa4565b5091979650505050505050565b608081526000610120863561019e19883603018112614b0557600080fd5b60a060808501528701614b27828501614b1d83614503565b63ffffffff169052565b614b3360208201614503565b610140614b478187018363ffffffff169052565b614b5360408401614503565b9150610160614b698188018463ffffffff169052565b614b7560608501614547565b9250610180614b8e818901856001600160a01b03169052565b614b9a60808601614547565b93506101a0614bb3818a01866001600160a01b03169052565b614bbf60a087016147ed565b8015156101c08b01529450614bd760c087018761498b565b9550816101e08b0152614bef6102c08b0187836149d0565b9550505060e0850135610200890152610100614c0c818701614547565b6001600160a01b03166102208a0152858701356102408a0152838601356102608a0152828601356102808a0152818601356102a08a0152614c5060208e018e6149f9565b97509550607f199350838986030160a08a0152614c6e858888614a41565b9650614c7d60408e018e6149f9565b96509450838988030160c08a0152614c96878787614a8a565b9650614ca460608e01614547565b6001600160a01b03811660e08b01529550614cc260808e018e61498b565b965094508389880301818a015250505050614cde8383836149d0565b9350505050614cf860208301866001600160a01b03169052565b83604083015261154060608301846001600160a01b03169052565b60005b83811015614d2e578181015183820152602001614d16565b838111156126875750506000910152565b60008151808452614d57816020860160208601614d13565b601f01601f19169290920160200192915050565b805163ffffffff16825260006101a06020830151614d91602086018263ffffffff169052565b506040830151614da9604086018263ffffffff169052565b506060830151614dc460608601826001600160a01b03169052565b506080830151614ddf60808601826001600160a01b03169052565b5060a0830151614df360a086018215159052565b5060c08301518160c0860152614e0b82860182614d3f565b91505060e083015160e085015261010080840151614e33828701826001600160a01b03169052565b50506101208381015190850152610140808401519085015261016080840151908501526101809283015192909301919091525090565b6020815260006118016020830184614d6b565b6000808335601e19843603018112614e9357600080fd5b8301803591506001600160401b03821115614ead57600080fd5b6020019150600581901b360382131561280157600080fd5b838152604060208201526000611540604083018486614a41565b6000808335601e19843603018112614ef657600080fd5b8301803591506001600160401b03821115614f1057600080fd5b60200191503681900382131561280157600080fd5b634e487b7160e01b600052603260045260246000fd5b600060208284031215614f4d57600080fd5b8135611801816147df565b600082821015614f6a57614f6a614742565b500390565b634e487b7160e01b600052601260045260246000fd5b600082614f9457614f94614f6f565b500490565b600082614fa857614fa8614f6f565b500690565b600060208284031215614fbf57600080fd5b815160ff8116811461180157600080fd5b600060018201614fe257614fe2614742565b5060010190565b604081526000614ffc6040830185614d6b565b905060018060a01b03831660208301529392505050565b600081600019048311821515161561502d5761502d614742565b500290565b60006020828403121561504457600080fd5b5051919050565b8183823760009101908152919050565b878152602081018790526001600160a01b0386811660408301528516606082015263ffffffff8416608082015260c060a082018190526000906150a190830184866149d0565b9998505050505050505050565b6000602082840312156150c057600080fd5b81516001600160401b038111156150d657600080fd5b8201601f810184136150e757600080fd5b80516150f561483e826147f8565b81815285602083850101111561510a57600080fd5b611540826020830160208601614d13565b82151581526040602082015260006118526040830184614d3f565b600060ff821660ff84168082101561515057615150614742565b90039392505050565b600181815b8085111561519457816000190482111561517a5761517a614742565b8085161561518757918102915b93841c939080029061515e565b509250929050565b6000826151ab575060016103e4565b816151b8575060006103e4565b81600181146151ce57600281146151d8576151f4565b60019150506103e4565b60ff8411156151e9576151e9614742565b50506001821b6103e4565b5060208310610133831016604e8410600b8410161715615217575081810a6103e4565b6152218383615159565b806000190482111561523557615235614742565b029392505050565b600061180160ff84168361519c565b60006020828403121561525e57600080fd5b815161180181614532565b63ffffffff841681528260208201526060604082015260006115406060830184614d3f565b634e487b7160e01b600052602160045260246000fd5b6000600485106152c457634e487b7160e01b600052602160045260246000fd5b5060f89390931b83526001830191909152602182015260410190565b6000602082840312156152f257600080fd5b8151611801816147df565b6020815260006118016020830184614d3f565b600060ff821660ff84168160ff048111821515161561523557615235614742565b60008251614981818460208701614d13565b7f54797065644d656d566965772f696e646578202d204f76657272616e20746865815274040ecd2caee5c40a6d8d2c6ca40d2e640c2e84060f605b1b60208201526001600160d01b031960d086811b821660358401526e040eed2e8d040d8cadccee8d04060f608b1b603b840181905286821b8316604a8501527f2e20417474656d7074656420746f20696e646578206174206f666673657420306050850152600f60fb1b607085015285821b83166071850152607784015283901b166086820152601760f91b608c8201526000608d82016123db56fea264697066735822122008d7e13fbf529ec0c241f45081744607e8bd3c17c0646173174c1b1ba178252b64736f6c634300080f0033",
  "devdoc": {
    "events": {
      "AavePortalMintUnbacked(bytes32,address,address,uint256)": {
        "params": {
          "amount": "- The amount of asset that was provided by Aave Portal",
          "asset": "- The asset that was provided by Aave Portal",
          "router": "- The authorized router that used Aave Portal liquidity",
          "transferId": "- The unique identifier of the crosschain transaction"
        }
      },
      "Executed(bytes32,address,address,((uint32,uint32,uint32,address,address,bool,bytes,uint256,address,uint256,uint256,uint256,bytes32),address[],bytes[],address,bytes),address,uint256,address)": {
        "details": "`execute` may be called when providing fast liquidity or when processing a reconciled (slow) transfer.",
        "params": {
          "amount": "- The amount of transferring asset the recipient address receives or the external call is executed with.",
          "args": "- The `ExecuteArgs` provided to the function.",
          "asset": "- The asset the recipient is given or the external call is executed with. Should be the adopted asset on that chain.",
          "caller": "- The account that called the function.",
          "local": "- The local asset that was either supplied by the router for a fast-liquidity transfer or minted by the bridge in a reconciled (slow) transfer. Could be the same as the adopted `asset` param.",
          "to": "- The recipient `CallParams.to` provided, created as indexed parameter.",
          "transferId": "- The unique identifier of the crosschain transfer."
        }
      },
      "ExecutorUpdated(address,address,address)": {
        "params": {
          "caller": "- The account that called the function",
          "newExecutor": "- The executor new value",
          "oldExecutor": "- The executor old value"
        }
      },
      "ExternalCalldataExecuted(bytes32,bool,bytes)": {
        "params": {
          "returnData": "- Return bytes from the IXReceiver",
          "success": "- Whether calldata succeeded",
          "transferId": "- The unique identifier of the crosschain transfer."
        }
      },
      "RemoteAdded(uint32,address,address)": {
        "params": {
          "caller": "- The account that called the function",
          "domain": "- The domain the remote instance is on",
          "remote": "- The address of the remote instance"
        }
      },
      "Send(address,address,uint32,bytes32,uint256,bool)": {
        "params": {
          "amount": "the amount of tokens sent",
          "from": "the address sending tokens",
          "toDomain": "the domain of the chain the tokens are being sent to",
          "toHook": "True if sent to a hook, on the remote chain, false        otherwise",
          "toId": "the bytes32 address of the recipient of the tokens",
          "token": "the address of the token contract"
        }
      },
      "SequencerAdded(address,address)": {
        "params": {
          "caller": "- The account that called the function",
          "sequencer": "- The sequencer address to be added or removed"
        }
      },
      "SequencerRemoved(address,address)": {
        "params": {
          "caller": "- The account that called the function",
          "sequencer": "- The sequencer address to be added or removed"
        }
      },
      "SlippageUpdated(bytes32,uint256)": {
        "params": {
          "slippage": "- The updated slippage boundary",
          "transferId": "- The unique identifier of the crosschain transaction"
        }
      },
      "TransferRelayerFeesUpdated(bytes32,uint256,address)": {
        "params": {
          "caller": "- The account that called the function",
          "relayerFee": "- The updated amount of relayer fee in native asset",
          "transferId": "- The unique identifier of the crosschain transaction"
        }
      },
      "XCalled(bytes32,uint256,bytes32,(uint32,uint32,uint32,address,address,bool,bytes,uint256,address,uint256,uint256,uint256,bytes32),address)": {
        "params": {
          "local": "- The address of the local asset (i.e. bridged token) used in the transfer.",
          "messageHash": "- The hash of the message bytes (containing all transfer info) that were bridged.",
          "nonce": "- The bridge nonce of the transfer on the origin domain.",
          "params": "- The `CallParams` provided to the function.",
          "transferId": "- The unique identifier of the crosschain transfer."
        }
      }
    },
    "kind": "dev",
    "methods": {
      "addSequencer(address)": {
        "params": {
          "_sequencer": "- The sequencer address to add."
        }
      },
      "bumpTransfer(bytes32)": {
        "params": {
          "_transferId": "- The unique identifier of the crosschain transaction"
        }
      },
      "enrollRemoteRouter(uint32,bytes32)": {
        "params": {
          "_domain": "The domain of the remote xApp Router",
          "_router": "The address of the remote xApp Router"
        }
      },
      "execute(((uint32,uint32,uint32,address,address,bool,bytes,uint256,address,uint256,uint256,uint256,bytes32),address[],bytes[],address,bytes))": {
        "details": "Can be called before or after `handle` [reconcile] is called (regarding the same transfer), depending on whether the fast liquidity route (i.e. funds provided by routers) is being used for this transfer. As a result, executed calldata (including properties like `originSender`) may or may not be verified depending on whether the reconcile has been completed (i.e. the optimistic confirmation period has elapsed).",
        "params": {
          "_args": "- ExecuteArgs arguments."
        },
        "returns": {
          "_0": "bytes32 - The transfer ID of the crosschain transfer. Should match the xcall's transfer ID in order for reconciliation to occur."
        }
      },
      "forceUpdateSlippage((uint32,uint32,uint32,address,address,bool,bytes,uint256,address,uint256,uint256,uint256,bytes32),uint256)": {
        "params": {
          "_params": "CallParams associated with the transfer",
          "_slippage": "The updated slippage"
        }
      },
      "removeSequencer(address)": {
        "params": {
          "_sequencer": "- The sequencer address to remove."
        }
      },
      "setXAppConnectionManager(address)": {
        "params": {
          "_xAppConnectionManager": "The address of the xAppConnectionManager contract"
        }
      }
    },
    "version": 1
  },
  "userdoc": {
    "events": {
      "AavePortalMintUnbacked(bytes32,address,address,uint256)": {
        "notice": "Emitted when a router used Aave Portal liquidity for fast transfer"
      },
      "Executed(bytes32,address,address,((uint32,uint32,uint32,address,address,bool,bytes,uint256,address,uint256,uint256,uint256,bytes32),address[],bytes[],address,bytes),address,uint256,address)": {
        "notice": "Emitted when `execute` is called on the destination domain of a transfer."
      },
      "ExecutorUpdated(address,address,address)": {
        "notice": "Emitted when the executor variable is updated"
      },
      "ExternalCalldataExecuted(bytes32,bool,bytes)": {
        "notice": "Emitted when a transfer has its external data executed"
      },
      "RemoteAdded(uint32,address,address)": {
        "notice": "Emitted when a new remote instance is added"
      },
      "Send(address,address,uint32,bytes32,uint256,bool)": {
        "notice": "emitted when tokens are sent from this domain to another domain"
      },
      "SequencerAdded(address,address)": {
        "notice": "Emitted when a sequencer is added or removed from whitelists"
      },
      "SequencerRemoved(address,address)": {
        "notice": "Emitted when a sequencer is added or removed from whitelists"
      },
      "SlippageUpdated(bytes32,uint256)": {
        "notice": "Emitted when `forceUpdateSlippage` is called by an user on the destination domain"
      },
      "TransferRelayerFeesUpdated(bytes32,uint256,address)": {
        "notice": "Emitted when `bumpTransfer` is called by an user on the origin domain"
      },
      "XCalled(bytes32,uint256,bytes32,(uint32,uint32,uint32,address,address,bool,bytes,uint256,address,uint256,uint256,uint256,bytes32),address)": {
        "notice": "Emitted when `xcall` is called on the origin domain of a transfer."
      }
    },
    "kind": "user",
    "methods": {
      "addSequencer(address)": {
        "notice": "Used to add an approved sequencer to the whitelist."
      },
      "bumpTransfer(bytes32)": {
        "notice": "Anyone can call this function on the origin domain to increase the relayer fee for a transfer."
      },
      "enrollRemoteRouter(uint32,bytes32)": {
        "notice": "Register the address of a Router contract for the same xApp on a remote chain"
      },
      "execute(((uint32,uint32,uint32,address,address,bool,bytes,uint256,address,uint256,uint256,uint256,bytes32),address[],bytes[],address,bytes))": {
        "notice": "Called on a destination domain to disburse correct assets to end recipient and execute any included calldata."
      },
      "forceUpdateSlippage((uint32,uint32,uint32,address,address,bool,bytes,uint256,address,uint256,uint256,uint256,bytes32),uint256)": {
        "notice": "Allows a user-specified account to update the slippage they are willing to take on destination transfers."
      },
      "removeSequencer(address)": {
        "notice": "Used to remove an approved sequencer from the whitelist."
      },
      "setXAppConnectionManager(address)": {
        "notice": "Modify the contract the xApp uses to validate Replica contracts"
      }
    },
    "version": 1
  },
  "storageLayout": {
    "storage": [
      {
        "astId": 6739,
        "contract": "contracts/core/connext/facets/BridgeFacet.sol:BridgeFacet",
        "label": "s",
        "offset": 0,
        "slot": "0",
        "type": "t_struct(AppStorage)21231_storage"
      }
    ],
    "types": {
      "t_address": {
        "encoding": "inplace",
        "label": "address",
        "numberOfBytes": "20"
      },
      "t_array(t_address)dyn_storage": {
        "base": "t_address",
        "encoding": "dynamic_array",
        "label": "address[]",
        "numberOfBytes": "32"
      },
      "t_array(t_contract(IERC20)4344)dyn_storage": {
        "base": "t_contract(IERC20)4344",
        "encoding": "dynamic_array",
        "label": "contract IERC20[]",
        "numberOfBytes": "32"
      },
      "t_array(t_uint256)dyn_storage": {
        "base": "t_uint256",
        "encoding": "dynamic_array",
        "label": "uint256[]",
        "numberOfBytes": "32"
      },
      "t_bool": {
        "encoding": "inplace",
        "label": "bool",
        "numberOfBytes": "1"
      },
      "t_bytes32": {
        "encoding": "inplace",
        "label": "bytes32",
        "numberOfBytes": "32"
      },
      "t_contract(IBridgeRouter)17298": {
        "encoding": "inplace",
        "label": "contract IBridgeRouter",
        "numberOfBytes": "20"
      },
      "t_contract(IConnectorManager)38432": {
        "encoding": "inplace",
        "label": "contract IConnectorManager",
        "numberOfBytes": "20"
      },
      "t_contract(IERC20)4344": {
        "encoding": "inplace",
        "label": "contract IERC20",
        "numberOfBytes": "20"
      },
      "t_contract(IStableSwap)18841": {
        "encoding": "inplace",
        "label": "contract IStableSwap",
        "numberOfBytes": "20"
      },
      "t_contract(LPToken)15518": {
        "encoding": "inplace",
        "label": "contract LPToken",
        "numberOfBytes": "20"
      },
      "t_contract(RelayerFeeRouter)29706": {
        "encoding": "inplace",
        "label": "contract RelayerFeeRouter",
        "numberOfBytes": "20"
      },
      "t_enum(Role)20992": {
        "encoding": "inplace",
        "label": "enum Role",
        "numberOfBytes": "1"
      },
      "t_mapping(t_address,t_address)": {
        "encoding": "mapping",
        "key": "t_address",
        "label": "mapping(address => address)",
        "numberOfBytes": "32",
        "value": "t_address"
      },
      "t_mapping(t_address,t_bool)": {
        "encoding": "mapping",
        "key": "t_address",
        "label": "mapping(address => bool)",
        "numberOfBytes": "32",
        "value": "t_bool"
      },
      "t_mapping(t_address,t_enum(Role)20992)": {
        "encoding": "mapping",
        "key": "t_address",
        "label": "mapping(address => enum Role)",
        "numberOfBytes": "32",
        "value": "t_enum(Role)20992"
      },
      "t_mapping(t_address,t_mapping(t_address,t_uint256))": {
        "encoding": "mapping",
        "key": "t_address",
        "label": "mapping(address => mapping(address => uint256))",
        "numberOfBytes": "32",
        "value": "t_mapping(t_address,t_uint256)"
      },
      "t_mapping(t_address,t_struct(TokenId)20997_storage)": {
        "encoding": "mapping",
        "key": "t_address",
        "label": "mapping(address => struct TokenId)",
        "numberOfBytes": "32",
        "value": "t_struct(TokenId)20997_storage"
      },
      "t_mapping(t_address,t_uint256)": {
        "encoding": "mapping",
        "key": "t_address",
        "label": "mapping(address => uint256)",
        "numberOfBytes": "32",
        "value": "t_uint256"
      },
      "t_mapping(t_address,t_uint8)": {
        "encoding": "mapping",
        "key": "t_address",
        "label": "mapping(address => uint8)",
        "numberOfBytes": "32",
        "value": "t_uint8"
      },
      "t_mapping(t_bytes32,t_address)": {
        "encoding": "mapping",
        "key": "t_bytes32",
        "label": "mapping(bytes32 => address)",
        "numberOfBytes": "32",
        "value": "t_address"
      },
      "t_mapping(t_bytes32,t_array(t_address)dyn_storage)": {
        "encoding": "mapping",
        "key": "t_bytes32",
        "label": "mapping(bytes32 => address[])",
        "numberOfBytes": "32",
        "value": "t_array(t_address)dyn_storage"
      },
      "t_mapping(t_bytes32,t_bool)": {
        "encoding": "mapping",
        "key": "t_bytes32",
        "label": "mapping(bytes32 => bool)",
        "numberOfBytes": "32",
        "value": "t_bool"
      },
      "t_mapping(t_bytes32,t_contract(IStableSwap)18841)": {
        "encoding": "mapping",
        "key": "t_bytes32",
        "label": "mapping(bytes32 => contract IStableSwap)",
        "numberOfBytes": "32",
        "value": "t_contract(IStableSwap)18841"
      },
      "t_mapping(t_bytes32,t_mapping(t_address,t_uint8))": {
        "encoding": "mapping",
        "key": "t_bytes32",
        "label": "mapping(bytes32 => mapping(address => uint8))",
        "numberOfBytes": "32",
        "value": "t_mapping(t_address,t_uint8)"
      },
      "t_mapping(t_bytes32,t_struct(Swap)22416_storage)": {
        "encoding": "mapping",
        "key": "t_bytes32",
        "label": "mapping(bytes32 => struct SwapUtils.Swap)",
        "numberOfBytes": "32",
        "value": "t_struct(Swap)22416_storage"
      },
      "t_mapping(t_bytes32,t_uint256)": {
        "encoding": "mapping",
        "key": "t_bytes32",
        "label": "mapping(bytes32 => uint256)",
        "numberOfBytes": "32",
        "value": "t_uint256"
      },
      "t_mapping(t_uint32,t_bytes32)": {
        "encoding": "mapping",
        "key": "t_uint32",
        "label": "mapping(uint32 => bytes32)",
        "numberOfBytes": "32",
        "value": "t_bytes32"
      },
      "t_struct(AppStorage)21231_storage": {
        "encoding": "inplace",
        "label": "struct AppStorage",
        "members": [
          {
            "astId": 21065,
            "contract": "contracts/core/connext/facets/BridgeFacet.sol:BridgeFacet",
            "label": "initialized",
            "offset": 0,
            "slot": "0",
            "type": "t_bool"
          },
          {
            "astId": 21067,
            "contract": "contracts/core/connext/facets/BridgeFacet.sol:BridgeFacet",
            "label": "LIQUIDITY_FEE_NUMERATOR",
            "offset": 0,
            "slot": "1",
            "type": "t_uint256"
          },
          {
            "astId": 21071,
            "contract": "contracts/core/connext/facets/BridgeFacet.sol:BridgeFacet",
            "label": "relayerFeeRouter",
            "offset": 0,
            "slot": "2",
            "type": "t_contract(RelayerFeeRouter)29706"
          },
          {
            "astId": 21074,
            "contract": "contracts/core/connext/facets/BridgeFacet.sol:BridgeFacet",
            "label": "nonce",
            "offset": 0,
            "slot": "3",
            "type": "t_uint256"
          },
          {
            "astId": 21077,
            "contract": "contracts/core/connext/facets/BridgeFacet.sol:BridgeFacet",
            "label": "domain",
            "offset": 0,
            "slot": "4",
            "type": "t_uint32"
          },
          {
            "astId": 21080,
            "contract": "contracts/core/connext/facets/BridgeFacet.sol:BridgeFacet",
            "label": "tokenBeacon",
            "offset": 4,
            "slot": "4",
            "type": "t_address"
          },
          {
            "astId": 21086,
            "contract": "contracts/core/connext/facets/BridgeFacet.sol:BridgeFacet",
            "label": "adoptedToLocalPools",
            "offset": 0,
            "slot": "5",
            "type": "t_mapping(t_bytes32,t_contract(IStableSwap)18841)"
          },
          {
            "astId": 21091,
            "contract": "contracts/core/connext/facets/BridgeFacet.sol:BridgeFacet",
            "label": "approvedAssets",
            "offset": 0,
            "slot": "6",
            "type": "t_mapping(t_bytes32,t_bool)"
          },
          {
            "astId": 21097,
            "contract": "contracts/core/connext/facets/BridgeFacet.sol:BridgeFacet",
            "label": "adoptedToCanonical",
            "offset": 0,
            "slot": "7",
            "type": "t_mapping(t_address,t_struct(TokenId)20997_storage)"
          },
          {
            "astId": 21103,
            "contract": "contracts/core/connext/facets/BridgeFacet.sol:BridgeFacet",
            "label": "representationToCanonical",
            "offset": 0,
            "slot": "8",
            "type": "t_mapping(t_address,t_struct(TokenId)20997_storage)"
          },
          {
            "astId": 21108,
            "contract": "contracts/core/connext/facets/BridgeFacet.sol:BridgeFacet",
            "label": "canonicalToAdopted",
            "offset": 0,
            "slot": "9",
            "type": "t_mapping(t_bytes32,t_address)"
          },
          {
            "astId": 21113,
            "contract": "contracts/core/connext/facets/BridgeFacet.sol:BridgeFacet",
            "label": "canonicalToRepresentation",
            "offset": 0,
            "slot": "10",
            "type": "t_mapping(t_bytes32,t_address)"
          },
          {
            "astId": 21118,
            "contract": "contracts/core/connext/facets/BridgeFacet.sol:BridgeFacet",
            "label": "reconciledTransfers",
            "offset": 0,
            "slot": "11",
            "type": "t_mapping(t_bytes32,t_bool)"
          },
          {
            "astId": 21124,
            "contract": "contracts/core/connext/facets/BridgeFacet.sol:BridgeFacet",
            "label": "routedTransfers",
            "offset": 0,
            "slot": "12",
            "type": "t_mapping(t_bytes32,t_array(t_address)dyn_storage)"
          },
          {
            "astId": 21131,
            "contract": "contracts/core/connext/facets/BridgeFacet.sol:BridgeFacet",
            "label": "routerBalances",
            "offset": 0,
            "slot": "13",
            "type": "t_mapping(t_address,t_mapping(t_address,t_uint256))"
          },
          {
            "astId": 21136,
            "contract": "contracts/core/connext/facets/BridgeFacet.sol:BridgeFacet",
            "label": "approvedRelayers",
            "offset": 0,
            "slot": "14",
            "type": "t_mapping(t_address,t_bool)"
          },
          {
            "astId": 21141,
            "contract": "contracts/core/connext/facets/BridgeFacet.sol:BridgeFacet",
            "label": "relayerFees",
            "offset": 0,
            "slot": "15",
            "type": "t_mapping(t_bytes32,t_uint256)"
          },
          {
            "astId": 21146,
            "contract": "contracts/core/connext/facets/BridgeFacet.sol:BridgeFacet",
            "label": "transferRelayer",
            "offset": 0,
            "slot": "16",
            "type": "t_mapping(t_bytes32,t_address)"
          },
          {
            "astId": 21149,
            "contract": "contracts/core/connext/facets/BridgeFacet.sol:BridgeFacet",
            "label": "maxRoutersPerTransfer",
            "offset": 0,
            "slot": "17",
            "type": "t_uint256"
          },
          {
            "astId": 21153,
            "contract": "contracts/core/connext/facets/BridgeFacet.sol:BridgeFacet",
            "label": "bridgeRouter",
            "offset": 0,
            "slot": "18",
            "type": "t_contract(IBridgeRouter)17298"
          },
          {
            "astId": 21158,
            "contract": "contracts/core/connext/facets/BridgeFacet.sol:BridgeFacet",
            "label": "slippage",
            "offset": 0,
            "slot": "19",
            "type": "t_mapping(t_bytes32,t_uint256)"
          },
          {
            "astId": 21163,
            "contract": "contracts/core/connext/facets/BridgeFacet.sol:BridgeFacet",
            "label": "remotes",
            "offset": 0,
            "slot": "20",
            "type": "t_mapping(t_uint32,t_bytes32)"
          },
          {
            "astId": 21165,
            "contract": "contracts/core/connext/facets/BridgeFacet.sol:BridgeFacet",
            "label": "_proposed",
            "offset": 0,
            "slot": "21",
            "type": "t_address"
          },
          {
            "astId": 21167,
            "contract": "contracts/core/connext/facets/BridgeFacet.sol:BridgeFacet",
            "label": "_proposedOwnershipTimestamp",
            "offset": 0,
            "slot": "22",
            "type": "t_uint256"
          },
          {
            "astId": 21169,
            "contract": "contracts/core/connext/facets/BridgeFacet.sol:BridgeFacet",
            "label": "_routerWhitelistRemoved",
            "offset": 0,
            "slot": "23",
            "type": "t_bool"
          },
          {
            "astId": 21171,
            "contract": "contracts/core/connext/facets/BridgeFacet.sol:BridgeFacet",
            "label": "_routerWhitelistTimestamp",
            "offset": 0,
            "slot": "24",
            "type": "t_uint256"
          },
          {
            "astId": 21173,
            "contract": "contracts/core/connext/facets/BridgeFacet.sol:BridgeFacet",
            "label": "_assetWhitelistRemoved",
            "offset": 0,
            "slot": "25",
            "type": "t_bool"
          },
          {
            "astId": 21175,
            "contract": "contracts/core/connext/facets/BridgeFacet.sol:BridgeFacet",
            "label": "_assetWhitelistTimestamp",
            "offset": 0,
            "slot": "26",
            "type": "t_uint256"
          },
          {
            "astId": 21181,
            "contract": "contracts/core/connext/facets/BridgeFacet.sol:BridgeFacet",
            "label": "roles",
            "offset": 0,
            "slot": "27",
            "type": "t_mapping(t_address,t_enum(Role)20992)"
          },
          {
            "astId": 21184,
            "contract": "contracts/core/connext/facets/BridgeFacet.sol:BridgeFacet",
            "label": "routerPermissionInfo",
            "offset": 0,
            "slot": "28",
            "type": "t_struct(RouterPermissionsManagerInfo)21063_storage"
          },
          {
            "astId": 21186,
            "contract": "contracts/core/connext/facets/BridgeFacet.sol:BridgeFacet",
            "label": "_status",
            "offset": 0,
            "slot": "34",
            "type": "t_uint256"
          },
          {
            "astId": 21192,
            "contract": "contracts/core/connext/facets/BridgeFacet.sol:BridgeFacet",
            "label": "swapStorages",
            "offset": 0,
            "slot": "35",
            "type": "t_mapping(t_bytes32,t_struct(Swap)22416_storage)"
          },
          {
            "astId": 21199,
            "contract": "contracts/core/connext/facets/BridgeFacet.sol:BridgeFacet",
            "label": "tokenIndexes",
            "offset": 0,
            "slot": "36",
            "type": "t_mapping(t_bytes32,t_mapping(t_address,t_uint8))"
          },
          {
            "astId": 21202,
            "contract": "contracts/core/connext/facets/BridgeFacet.sol:BridgeFacet",
            "label": "_paused",
            "offset": 0,
            "slot": "37",
            "type": "t_bool"
          },
          {
            "astId": 21205,
            "contract": "contracts/core/connext/facets/BridgeFacet.sol:BridgeFacet",
            "label": "aavePool",
            "offset": 1,
            "slot": "37",
            "type": "t_address"
          },
          {
            "astId": 21208,
            "contract": "contracts/core/connext/facets/BridgeFacet.sol:BridgeFacet",
            "label": "aavePortalFeeNumerator",
            "offset": 0,
            "slot": "38",
            "type": "t_uint256"
          },
          {
            "astId": 21213,
            "contract": "contracts/core/connext/facets/BridgeFacet.sol:BridgeFacet",
            "label": "portalDebt",
            "offset": 0,
            "slot": "39",
            "type": "t_mapping(t_bytes32,t_uint256)"
          },
          {
            "astId": 21218,
            "contract": "contracts/core/connext/facets/BridgeFacet.sol:BridgeFacet",
            "label": "portalFeeDebt",
            "offset": 0,
            "slot": "40",
            "type": "t_mapping(t_bytes32,t_uint256)"
          },
          {
            "astId": 21223,
            "contract": "contracts/core/connext/facets/BridgeFacet.sol:BridgeFacet",
            "label": "approvedSequencers",
            "offset": 0,
            "slot": "41",
            "type": "t_mapping(t_address,t_bool)"
          },
          {
            "astId": 21227,
            "contract": "contracts/core/connext/facets/BridgeFacet.sol:BridgeFacet",
            "label": "xAppConnectionManager",
            "offset": 0,
            "slot": "42",
            "type": "t_contract(IConnectorManager)38432"
          },
          {
            "astId": 21230,
            "contract": "contracts/core/connext/facets/BridgeFacet.sol:BridgeFacet",
            "label": "_ownershipDelay",
            "offset": 0,
            "slot": "43",
            "type": "t_uint256"
          }
        ],
        "numberOfBytes": "1408"
      },
      "t_struct(RouterPermissionsManagerInfo)21063_storage": {
        "encoding": "inplace",
        "label": "struct RouterPermissionsManagerInfo",
        "members": [
          {
            "astId": 21042,
            "contract": "contracts/core/connext/facets/BridgeFacet.sol:BridgeFacet",
            "label": "approvedRouters",
            "offset": 0,
            "slot": "0",
            "type": "t_mapping(t_address,t_bool)"
          },
          {
            "astId": 21046,
            "contract": "contracts/core/connext/facets/BridgeFacet.sol:BridgeFacet",
            "label": "approvedForPortalRouters",
            "offset": 0,
            "slot": "1",
            "type": "t_mapping(t_address,t_bool)"
          },
          {
            "astId": 21050,
            "contract": "contracts/core/connext/facets/BridgeFacet.sol:BridgeFacet",
            "label": "routerRecipients",
            "offset": 0,
            "slot": "2",
            "type": "t_mapping(t_address,t_address)"
          },
          {
            "astId": 21054,
            "contract": "contracts/core/connext/facets/BridgeFacet.sol:BridgeFacet",
            "label": "routerOwners",
            "offset": 0,
            "slot": "3",
            "type": "t_mapping(t_address,t_address)"
          },
          {
            "astId": 21058,
            "contract": "contracts/core/connext/facets/BridgeFacet.sol:BridgeFacet",
            "label": "proposedRouterOwners",
            "offset": 0,
            "slot": "4",
            "type": "t_mapping(t_address,t_address)"
          },
          {
            "astId": 21062,
            "contract": "contracts/core/connext/facets/BridgeFacet.sol:BridgeFacet",
            "label": "proposedRouterTimestamp",
            "offset": 0,
            "slot": "5",
            "type": "t_mapping(t_address,t_uint256)"
          }
        ],
        "numberOfBytes": "192"
      },
      "t_struct(Swap)22416_storage": {
        "encoding": "inplace",
        "label": "struct SwapUtils.Swap",
        "members": [
          {
            "astId": 22387,
            "contract": "contracts/core/connext/facets/BridgeFacet.sol:BridgeFacet",
            "label": "key",
            "offset": 0,
            "slot": "0",
            "type": "t_bytes32"
          },
          {
            "astId": 22389,
            "contract": "contracts/core/connext/facets/BridgeFacet.sol:BridgeFacet",
            "label": "initialA",
            "offset": 0,
            "slot": "1",
            "type": "t_uint256"
          },
          {
            "astId": 22391,
            "contract": "contracts/core/connext/facets/BridgeFacet.sol:BridgeFacet",
            "label": "futureA",
            "offset": 0,
            "slot": "2",
            "type": "t_uint256"
          },
          {
            "astId": 22393,
            "contract": "contracts/core/connext/facets/BridgeFacet.sol:BridgeFacet",
            "label": "initialATime",
            "offset": 0,
            "slot": "3",
            "type": "t_uint256"
          },
          {
            "astId": 22395,
            "contract": "contracts/core/connext/facets/BridgeFacet.sol:BridgeFacet",
            "label": "futureATime",
            "offset": 0,
            "slot": "4",
            "type": "t_uint256"
          },
          {
            "astId": 22397,
            "contract": "contracts/core/connext/facets/BridgeFacet.sol:BridgeFacet",
            "label": "swapFee",
            "offset": 0,
            "slot": "5",
            "type": "t_uint256"
          },
          {
            "astId": 22399,
            "contract": "contracts/core/connext/facets/BridgeFacet.sol:BridgeFacet",
            "label": "adminFee",
            "offset": 0,
            "slot": "6",
            "type": "t_uint256"
          },
          {
            "astId": 22402,
            "contract": "contracts/core/connext/facets/BridgeFacet.sol:BridgeFacet",
            "label": "lpToken",
            "offset": 0,
            "slot": "7",
            "type": "t_contract(LPToken)15518"
          },
          {
            "astId": 22406,
            "contract": "contracts/core/connext/facets/BridgeFacet.sol:BridgeFacet",
            "label": "pooledTokens",
            "offset": 0,
            "slot": "8",
            "type": "t_array(t_contract(IERC20)4344)dyn_storage"
          },
          {
            "astId": 22409,
            "contract": "contracts/core/connext/facets/BridgeFacet.sol:BridgeFacet",
            "label": "tokenPrecisionMultipliers",
            "offset": 0,
            "slot": "9",
            "type": "t_array(t_uint256)dyn_storage"
          },
          {
            "astId": 22412,
            "contract": "contracts/core/connext/facets/BridgeFacet.sol:BridgeFacet",
            "label": "balances",
            "offset": 0,
            "slot": "10",
            "type": "t_array(t_uint256)dyn_storage"
          },
          {
            "astId": 22415,
            "contract": "contracts/core/connext/facets/BridgeFacet.sol:BridgeFacet",
            "label": "adminFees",
            "offset": 0,
            "slot": "11",
            "type": "t_array(t_uint256)dyn_storage"
          }
        ],
        "numberOfBytes": "384"
      },
      "t_struct(TokenId)20997_storage": {
        "encoding": "inplace",
        "label": "struct TokenId",
        "members": [
          {
            "astId": 20994,
            "contract": "contracts/core/connext/facets/BridgeFacet.sol:BridgeFacet",
            "label": "domain",
            "offset": 0,
            "slot": "0",
            "type": "t_uint32"
          },
          {
            "astId": 20996,
            "contract": "contracts/core/connext/facets/BridgeFacet.sol:BridgeFacet",
            "label": "id",
            "offset": 0,
            "slot": "1",
            "type": "t_bytes32"
          }
        ],
        "numberOfBytes": "64"
      },
      "t_uint256": {
        "encoding": "inplace",
        "label": "uint256",
        "numberOfBytes": "32"
      },
      "t_uint32": {
        "encoding": "inplace",
        "label": "uint32",
        "numberOfBytes": "4"
      },
      "t_uint8": {
        "encoding": "inplace",
        "label": "uint8",
        "numberOfBytes": "1"
      }
    }
  }
}