{
  "address": "0x1F91b3B1dC1b61a2478C7E3Bf1d4a34A15AB5e8F",
  "abi": [
    {
      "inputs": [],
      "name": "AssetLogic__getTokenIndexFromStableSwapPool_notExist",
      "type": "error"
    },
    {
      "inputs": [],
      "name": "AssetLogic__handleOutgoingAsset_notNative",
      "type": "error"
    },
    {
      "inputs": [],
      "name": "AssetLogic__transferAssetToContract_feeOnTransferNotSupported",
      "type": "error"
    },
    {
      "inputs": [],
      "name": "BaseConnextFacet__getAdoptedAsset_notWhitelisted",
      "type": "error"
    },
    {
      "inputs": [],
      "name": "BaseConnextFacet__nonReentrant_reentrantCall",
      "type": "error"
    },
    {
      "inputs": [],
      "name": "BaseConnextFacet__onlyBridgeRouter_notBridgeRouter",
      "type": "error"
    },
    {
      "inputs": [],
      "name": "BaseConnextFacet__onlyOwner_notOwner",
      "type": "error"
    },
    {
      "inputs": [],
      "name": "BaseConnextFacet__onlyProposed_notProposedOwner",
      "type": "error"
    },
    {
      "inputs": [],
      "name": "BaseConnextFacet__whenNotPaused_paused",
      "type": "error"
    },
    {
      "inputs": [],
      "name": "BridgeFacet__addRemote_invalidDomain",
      "type": "error"
    },
    {
      "inputs": [],
      "name": "BridgeFacet__addSequencer_alreadyApproved",
      "type": "error"
    },
    {
      "inputs": [],
      "name": "BridgeFacet__bumpTransfer_valueIsZero",
      "type": "error"
    },
    {
      "inputs": [],
      "name": "BridgeFacet__executePortalTransfer_insufficientAmountWithdrawn",
      "type": "error"
    },
    {
      "inputs": [],
      "name": "BridgeFacet__execute_alreadyExecuted",
      "type": "error"
    },
    {
      "inputs": [],
      "name": "BridgeFacet__execute_alreadyReconciled",
      "type": "error"
    },
    {
      "inputs": [],
      "name": "BridgeFacet__execute_invalidRouterSignature",
      "type": "error"
    },
    {
      "inputs": [],
      "name": "BridgeFacet__execute_invalidSequencerSignature",
      "type": "error"
    },
    {
      "inputs": [],
      "name": "BridgeFacet__execute_maxRoutersExceeded",
      "type": "error"
    },
    {
      "inputs": [],
      "name": "BridgeFacet__execute_notApprovedForPortals",
      "type": "error"
    },
    {
      "inputs": [],
      "name": "BridgeFacet__execute_notReconciled",
      "type": "error"
    },
    {
      "inputs": [],
      "name": "BridgeFacet__execute_notSupportedRouter",
      "type": "error"
    },
    {
      "inputs": [],
      "name": "BridgeFacet__execute_notSupportedSequencer",
      "type": "error"
    },
    {
      "inputs": [],
      "name": "BridgeFacet__execute_unapprovedSender",
      "type": "error"
    },
    {
      "inputs": [],
      "name": "BridgeFacet__execute_wrongDomain",
      "type": "error"
    },
    {
      "inputs": [],
      "name": "BridgeFacet__forceUpdateSlippage_invalidSlippage",
      "type": "error"
    },
    {
      "inputs": [],
      "name": "BridgeFacet__forceUpdateSlippage_notDestination",
      "type": "error"
    },
    {
      "inputs": [],
      "name": "BridgeFacet__mustHaveRemote_destinationNotSupported",
      "type": "error"
    },
    {
      "inputs": [],
      "name": "BridgeFacet__onlyDelegate_notDelegate",
      "type": "error"
    },
    {
      "inputs": [],
      "name": "BridgeFacet__removeSequencer_notApproved",
      "type": "error"
    },
    {
      "inputs": [],
      "name": "BridgeFacet__xcall_canonicalAssetNotReceived",
      "type": "error"
    },
    {
      "inputs": [],
      "name": "BridgeFacet__xcall_emptyTo",
      "type": "error"
    },
    {
      "inputs": [],
      "name": "BridgeFacet__xcall_invalidSlippage",
      "type": "error"
    },
    {
      "inputs": [],
      "name": "BridgeFacet__xcall_nativeAssetNotSupported",
      "type": "error"
    },
    {
      "inputs": [],
      "name": "BridgeFacet__xcall_notSupportedAsset",
      "type": "error"
    },
    {
      "anonymous": false,
      "inputs": [
        {
          "indexed": true,
          "internalType": "bytes32",
          "name": "transferId",
          "type": "bytes32"
        },
        {
          "indexed": true,
          "internalType": "address",
          "name": "router",
          "type": "address"
        },
        {
          "indexed": false,
          "internalType": "address",
          "name": "asset",
          "type": "address"
        },
        {
          "indexed": false,
          "internalType": "uint256",
          "name": "amount",
          "type": "uint256"
        }
      ],
      "name": "AavePortalMintUnbacked",
      "type": "event"
    },
    {
      "anonymous": false,
      "inputs": [
        {
          "indexed": true,
          "internalType": "bytes32",
          "name": "transferId",
          "type": "bytes32"
        },
        {
          "indexed": true,
          "internalType": "address",
          "name": "to",
          "type": "address"
        },
        {
          "indexed": true,
          "internalType": "address",
          "name": "asset",
          "type": "address"
        },
        {
          "components": [
            {
              "components": [
                {
                  "internalType": "uint32",
                  "name": "originDomain",
                  "type": "uint32"
                },
                {
                  "internalType": "uint32",
                  "name": "destinationDomain",
                  "type": "uint32"
                },
                {
                  "internalType": "uint32",
                  "name": "canonicalDomain",
                  "type": "uint32"
                },
                {
                  "internalType": "address",
                  "name": "to",
                  "type": "address"
                },
                {
                  "internalType": "address",
                  "name": "delegate",
                  "type": "address"
                },
                {
                  "internalType": "bool",
                  "name": "receiveLocal",
                  "type": "bool"
                },
                {
                  "internalType": "bytes",
                  "name": "callData",
                  "type": "bytes"
                },
                {
                  "internalType": "uint256",
                  "name": "slippage",
                  "type": "uint256"
                },
                {
                  "internalType": "address",
                  "name": "originSender",
                  "type": "address"
                },
                {
                  "internalType": "uint256",
                  "name": "bridgedAmt",
                  "type": "uint256"
                },
                {
                  "internalType": "uint256",
                  "name": "normalizedIn",
                  "type": "uint256"
                },
                {
                  "internalType": "uint256",
                  "name": "nonce",
                  "type": "uint256"
                },
                {
                  "internalType": "bytes32",
                  "name": "canonicalId",
                  "type": "bytes32"
                }
              ],
              "internalType": "struct CallParams",
              "name": "params",
              "type": "tuple"
            },
            {
              "internalType": "address[]",
              "name": "routers",
              "type": "address[]"
            },
            {
              "internalType": "bytes[]",
              "name": "routerSignatures",
              "type": "bytes[]"
            },
            {
              "internalType": "address",
              "name": "sequencer",
              "type": "address"
            },
            {
              "internalType": "bytes",
              "name": "sequencerSignature",
              "type": "bytes"
            }
          ],
          "indexed": false,
          "internalType": "struct ExecuteArgs",
          "name": "args",
          "type": "tuple"
        },
        {
          "indexed": false,
          "internalType": "address",
          "name": "local",
          "type": "address"
        },
        {
          "indexed": false,
          "internalType": "uint256",
          "name": "amount",
          "type": "uint256"
        },
        {
          "indexed": false,
          "internalType": "address",
          "name": "caller",
          "type": "address"
        }
      ],
      "name": "Executed",
      "type": "event"
    },
    {
      "anonymous": false,
      "inputs": [
        {
          "indexed": false,
          "internalType": "address",
          "name": "oldExecutor",
          "type": "address"
        },
        {
          "indexed": false,
          "internalType": "address",
          "name": "newExecutor",
          "type": "address"
        },
        {
          "indexed": false,
          "internalType": "address",
          "name": "caller",
          "type": "address"
        }
      ],
      "name": "ExecutorUpdated",
      "type": "event"
    },
    {
      "anonymous": false,
      "inputs": [
        {
          "indexed": true,
          "internalType": "bytes32",
          "name": "transferId",
          "type": "bytes32"
        },
        {
          "indexed": false,
          "internalType": "bool",
          "name": "success",
          "type": "bool"
        },
        {
          "indexed": false,
          "internalType": "bytes",
          "name": "returnData",
          "type": "bytes"
        }
      ],
      "name": "ExternalCalldataExecuted",
      "type": "event"
    },
    {
      "anonymous": false,
      "inputs": [
        {
          "indexed": false,
          "internalType": "uint32",
          "name": "domain",
          "type": "uint32"
        },
        {
          "indexed": false,
          "internalType": "address",
          "name": "remote",
          "type": "address"
        },
        {
          "indexed": false,
          "internalType": "address",
          "name": "caller",
          "type": "address"
        }
      ],
      "name": "RemoteAdded",
      "type": "event"
    },
    {
      "anonymous": false,
      "inputs": [
        {
          "indexed": true,
          "internalType": "address",
          "name": "token",
          "type": "address"
        },
        {
          "indexed": true,
          "internalType": "address",
          "name": "from",
          "type": "address"
        },
        {
          "indexed": true,
          "internalType": "uint32",
          "name": "toDomain",
          "type": "uint32"
        },
        {
          "indexed": false,
          "internalType": "bytes32",
          "name": "toId",
          "type": "bytes32"
        },
        {
          "indexed": false,
          "internalType": "uint256",
          "name": "amount",
          "type": "uint256"
        },
        {
          "indexed": false,
          "internalType": "bool",
          "name": "toHook",
          "type": "bool"
        }
      ],
      "name": "Send",
      "type": "event"
    },
    {
      "anonymous": false,
      "inputs": [
        {
          "indexed": false,
          "internalType": "address",
          "name": "sequencer",
          "type": "address"
        },
        {
          "indexed": false,
          "internalType": "address",
          "name": "caller",
          "type": "address"
        }
      ],
      "name": "SequencerAdded",
      "type": "event"
    },
    {
      "anonymous": false,
      "inputs": [
        {
          "indexed": false,
          "internalType": "address",
          "name": "sequencer",
          "type": "address"
        },
        {
          "indexed": false,
          "internalType": "address",
          "name": "caller",
          "type": "address"
        }
      ],
      "name": "SequencerRemoved",
      "type": "event"
    },
    {
      "anonymous": false,
      "inputs": [
        {
          "indexed": true,
          "internalType": "bytes32",
          "name": "transferId",
          "type": "bytes32"
        },
        {
          "indexed": false,
          "internalType": "uint256",
          "name": "slippage",
          "type": "uint256"
        }
      ],
      "name": "SlippageUpdated",
      "type": "event"
    },
    {
      "anonymous": false,
      "inputs": [
        {
          "indexed": true,
          "internalType": "bytes32",
          "name": "transferId",
          "type": "bytes32"
        },
        {
          "indexed": false,
          "internalType": "uint256",
          "name": "relayerFee",
          "type": "uint256"
        },
        {
          "indexed": false,
          "internalType": "address",
          "name": "caller",
          "type": "address"
        }
      ],
      "name": "TransferRelayerFeesUpdated",
      "type": "event"
    },
    {
      "anonymous": false,
      "inputs": [
        {
          "indexed": true,
          "internalType": "bytes32",
          "name": "transferId",
          "type": "bytes32"
        },
        {
          "indexed": true,
          "internalType": "uint256",
          "name": "nonce",
          "type": "uint256"
        },
        {
          "indexed": true,
          "internalType": "bytes32",
          "name": "messageHash",
          "type": "bytes32"
        },
        {
          "components": [
            {
              "internalType": "uint32",
              "name": "originDomain",
              "type": "uint32"
            },
            {
              "internalType": "uint32",
              "name": "destinationDomain",
              "type": "uint32"
            },
            {
              "internalType": "uint32",
              "name": "canonicalDomain",
              "type": "uint32"
            },
            {
              "internalType": "address",
              "name": "to",
              "type": "address"
            },
            {
              "internalType": "address",
              "name": "delegate",
              "type": "address"
            },
            {
              "internalType": "bool",
              "name": "receiveLocal",
              "type": "bool"
            },
            {
              "internalType": "bytes",
              "name": "callData",
              "type": "bytes"
            },
            {
              "internalType": "uint256",
              "name": "slippage",
              "type": "uint256"
            },
            {
              "internalType": "address",
              "name": "originSender",
              "type": "address"
            },
            {
              "internalType": "uint256",
              "name": "bridgedAmt",
              "type": "uint256"
            },
            {
              "internalType": "uint256",
              "name": "normalizedIn",
              "type": "uint256"
            },
            {
              "internalType": "uint256",
              "name": "nonce",
              "type": "uint256"
            },
            {
              "internalType": "bytes32",
              "name": "canonicalId",
              "type": "bytes32"
            }
          ],
          "indexed": false,
          "internalType": "struct CallParams",
          "name": "params",
          "type": "tuple"
        },
        {
          "indexed": false,
          "internalType": "address",
          "name": "local",
          "type": "address"
        }
      ],
      "name": "XCalled",
      "type": "event"
    },
    {
      "inputs": [],
      "name": "AAVE_REFERRAL_CODE",
      "outputs": [
        {
          "internalType": "uint16",
          "name": "",
          "type": "uint16"
        }
      ],
      "stateMutability": "view",
      "type": "function"
    },
    {
      "inputs": [],
      "name": "DUST_AMOUNT",
      "outputs": [
        {
          "internalType": "uint256",
          "name": "",
          "type": "uint256"
        }
      ],
      "stateMutability": "view",
      "type": "function"
    },
    {
      "inputs": [
        {
          "internalType": "address",
          "name": "_sequencer",
          "type": "address"
        }
      ],
      "name": "addSequencer",
      "outputs": [],
      "stateMutability": "nonpayable",
      "type": "function"
    },
    {
      "inputs": [
        {
          "internalType": "address",
          "name": "_sequencer",
          "type": "address"
        }
      ],
      "name": "approvedSequencers",
      "outputs": [
        {
          "internalType": "bool",
          "name": "",
          "type": "bool"
        }
      ],
      "stateMutability": "view",
      "type": "function"
    },
    {
      "inputs": [
        {
          "internalType": "bytes32",
          "name": "_transferId",
          "type": "bytes32"
        }
      ],
      "name": "bumpTransfer",
      "outputs": [],
      "stateMutability": "payable",
      "type": "function"
    },
    {
      "inputs": [],
      "name": "domain",
      "outputs": [
        {
          "internalType": "uint32",
          "name": "",
          "type": "uint32"
        }
      ],
      "stateMutability": "view",
      "type": "function"
    },
    {
      "inputs": [
        {
          "internalType": "uint32",
          "name": "_domain",
          "type": "uint32"
        },
        {
          "internalType": "bytes32",
          "name": "_id",
          "type": "bytes32"
        },
        {
          "internalType": "address",
          "name": "_custom",
          "type": "address"
        }
      ],
      "name": "enrollCustom",
      "outputs": [],
      "stateMutability": "nonpayable",
      "type": "function"
    },
    {
      "inputs": [
        {
          "internalType": "uint32",
          "name": "_domain",
          "type": "uint32"
        },
        {
          "internalType": "bytes32",
          "name": "_router",
          "type": "bytes32"
        }
      ],
      "name": "enrollRemoteRouter",
      "outputs": [],
      "stateMutability": "nonpayable",
      "type": "function"
    },
    {
      "inputs": [
        {
          "components": [
            {
              "components": [
                {
                  "internalType": "uint32",
                  "name": "originDomain",
                  "type": "uint32"
                },
                {
                  "internalType": "uint32",
                  "name": "destinationDomain",
                  "type": "uint32"
                },
                {
                  "internalType": "uint32",
                  "name": "canonicalDomain",
                  "type": "uint32"
                },
                {
                  "internalType": "address",
                  "name": "to",
                  "type": "address"
                },
                {
                  "internalType": "address",
                  "name": "delegate",
                  "type": "address"
                },
                {
                  "internalType": "bool",
                  "name": "receiveLocal",
                  "type": "bool"
                },
                {
                  "internalType": "bytes",
                  "name": "callData",
                  "type": "bytes"
                },
                {
                  "internalType": "uint256",
                  "name": "slippage",
                  "type": "uint256"
                },
                {
                  "internalType": "address",
                  "name": "originSender",
                  "type": "address"
                },
                {
                  "internalType": "uint256",
                  "name": "bridgedAmt",
                  "type": "uint256"
                },
                {
                  "internalType": "uint256",
                  "name": "normalizedIn",
                  "type": "uint256"
                },
                {
                  "internalType": "uint256",
                  "name": "nonce",
                  "type": "uint256"
                },
                {
                  "internalType": "bytes32",
                  "name": "canonicalId",
                  "type": "bytes32"
                }
              ],
              "internalType": "struct CallParams",
              "name": "params",
              "type": "tuple"
            },
            {
              "internalType": "address[]",
              "name": "routers",
              "type": "address[]"
            },
            {
              "internalType": "bytes[]",
              "name": "routerSignatures",
              "type": "bytes[]"
            },
            {
              "internalType": "address",
              "name": "sequencer",
              "type": "address"
            },
            {
              "internalType": "bytes",
              "name": "sequencerSignature",
              "type": "bytes"
            }
          ],
          "internalType": "struct ExecuteArgs",
          "name": "_args",
          "type": "tuple"
        }
      ],
      "name": "execute",
      "outputs": [
        {
          "internalType": "bytes32",
          "name": "",
          "type": "bytes32"
        }
      ],
      "stateMutability": "nonpayable",
      "type": "function"
    },
    {
      "inputs": [
        {
          "components": [
            {
              "internalType": "uint32",
              "name": "originDomain",
              "type": "uint32"
            },
            {
              "internalType": "uint32",
              "name": "destinationDomain",
              "type": "uint32"
            },
            {
              "internalType": "uint32",
              "name": "canonicalDomain",
              "type": "uint32"
            },
            {
              "internalType": "address",
              "name": "to",
              "type": "address"
            },
            {
              "internalType": "address",
              "name": "delegate",
              "type": "address"
            },
            {
              "internalType": "bool",
              "name": "receiveLocal",
              "type": "bool"
            },
            {
              "internalType": "bytes",
              "name": "callData",
              "type": "bytes"
            },
            {
              "internalType": "uint256",
              "name": "slippage",
              "type": "uint256"
            },
            {
              "internalType": "address",
              "name": "originSender",
              "type": "address"
            },
            {
              "internalType": "uint256",
              "name": "bridgedAmt",
              "type": "uint256"
            },
            {
              "internalType": "uint256",
              "name": "normalizedIn",
              "type": "uint256"
            },
            {
              "internalType": "uint256",
              "name": "nonce",
              "type": "uint256"
            },
            {
              "internalType": "bytes32",
              "name": "canonicalId",
              "type": "bytes32"
            }
          ],
          "internalType": "struct CallParams",
          "name": "_params",
          "type": "tuple"
        },
        {
          "internalType": "uint256",
          "name": "_slippage",
          "type": "uint256"
        }
      ],
      "name": "forceUpdateSlippage",
      "outputs": [],
      "stateMutability": "nonpayable",
      "type": "function"
    },
    {
      "inputs": [],
      "name": "nonce",
      "outputs": [
        {
          "internalType": "uint256",
          "name": "",
          "type": "uint256"
        }
      ],
      "stateMutability": "view",
      "type": "function"
    },
    {
      "inputs": [
        {
          "internalType": "bytes32",
          "name": "_transferId",
          "type": "bytes32"
        }
      ],
      "name": "reconciledTransfers",
      "outputs": [
        {
          "internalType": "bool",
          "name": "",
          "type": "bool"
        }
      ],
      "stateMutability": "view",
      "type": "function"
    },
    {
      "inputs": [
        {
          "internalType": "bytes32",
          "name": "_transferId",
          "type": "bytes32"
        }
      ],
      "name": "relayerFees",
      "outputs": [
        {
          "internalType": "uint256",
          "name": "",
          "type": "uint256"
        }
      ],
      "stateMutability": "view",
      "type": "function"
    },
    {
      "inputs": [
        {
          "internalType": "uint32",
          "name": "_domain",
          "type": "uint32"
        }
      ],
      "name": "remote",
      "outputs": [
        {
          "internalType": "address",
          "name": "",
          "type": "address"
        }
      ],
      "stateMutability": "view",
      "type": "function"
    },
    {
      "inputs": [
        {
          "internalType": "address",
          "name": "_sequencer",
          "type": "address"
        }
      ],
      "name": "removeSequencer",
      "outputs": [],
      "stateMutability": "nonpayable",
      "type": "function"
    },
    {
      "inputs": [
        {
          "internalType": "bytes32",
          "name": "_transferId",
          "type": "bytes32"
        }
      ],
      "name": "routedTransfers",
      "outputs": [
        {
          "internalType": "address[]",
          "name": "",
          "type": "address[]"
        }
      ],
      "stateMutability": "view",
      "type": "function"
    },
    {
      "inputs": [
        {
          "internalType": "address",
          "name": "_xAppConnectionManager",
          "type": "address"
        }
      ],
      "name": "setXAppConnectionManager",
      "outputs": [],
      "stateMutability": "nonpayable",
      "type": "function"
    },
    {
      "inputs": [],
      "name": "xAppConnectionManager",
      "outputs": [
        {
          "internalType": "address",
          "name": "",
          "type": "address"
        }
      ],
      "stateMutability": "view",
      "type": "function"
    },
    {
      "inputs": [
        {
          "internalType": "uint32",
          "name": "_destination",
          "type": "uint32"
        },
        {
          "internalType": "address",
          "name": "_to",
          "type": "address"
        },
        {
          "internalType": "address",
          "name": "_asset",
          "type": "address"
        },
        {
          "internalType": "address",
          "name": "_delegate",
          "type": "address"
        },
        {
          "internalType": "uint256",
          "name": "_amount",
          "type": "uint256"
        },
        {
          "internalType": "uint256",
          "name": "_slippage",
          "type": "uint256"
        },
        {
          "internalType": "bytes",
          "name": "_callData",
          "type": "bytes"
        }
      ],
      "name": "xcall",
      "outputs": [
        {
          "internalType": "bytes32",
          "name": "",
          "type": "bytes32"
        }
      ],
      "stateMutability": "payable",
      "type": "function"
    },
    {
      "inputs": [
        {
          "internalType": "uint32",
          "name": "_destination",
          "type": "uint32"
        },
        {
          "internalType": "address",
          "name": "_to",
          "type": "address"
        },
        {
          "internalType": "address",
          "name": "_asset",
          "type": "address"
        },
        {
          "internalType": "address",
          "name": "_delegate",
          "type": "address"
        },
        {
          "internalType": "uint256",
          "name": "_amount",
          "type": "uint256"
        },
        {
          "internalType": "uint256",
          "name": "_slippage",
          "type": "uint256"
        },
        {
          "internalType": "bytes",
          "name": "_callData",
          "type": "bytes"
        }
      ],
      "name": "xcallIntoLocal",
      "outputs": [
        {
          "internalType": "bytes32",
          "name": "",
          "type": "bytes32"
        }
      ],
      "stateMutability": "payable",
      "type": "function"
    }
  ],
  "transactionHash": "0xb74388a54b53666b23c445138f5c091fe91214766d4ba2b1d46ec02b815c5e12",
  "args": [],
  "numDeployments": 3,
  "solcInputHash": "7b2835bf00dcdfb89d60613d88a0e8f0",
  "bytecode": "0x608060405234801561001057600080fd5b5061590a80620000216000396000f3fe60806040526004361061011f5760003560e01c80636989ca7c116100a05780639b098908116100645780639b09890814610341578063affed0e01461036e578063b49c53a714610383578063c26c9c0a146103a3578063c2fb26a6146103d357600080fd5b80636989ca7c146102c05780638a336231146102e05780638aac16ba1461030057806391f5de791461031357806397f641ab1461032657600080fd5b806328b1aea0116100e757806328b1aea0146102145780633339df961461023457806341bdc8b514610252578063541267111461027257806363e3e7d21461029257600080fd5b806305a363de14610124578063121cca3114610151578063159e041f146101895780631a8bc0e1146101d25780632424401f146101ff575b600080fd5b34801561013057600080fd5b50610139600081565b60405161ffff90911681526020015b60405180910390f35b34801561015d57600080fd5b5061017161016c3660046148f3565b6103f8565b6040516001600160a01b039091168152602001610148565b34801561019557600080fd5b506101c26101a4366004614930565b6001600160a01b031660009081526026602052604090205460ff1690565b6040519015158152602001610148565b3480156101de57600080fd5b506101f26101ed36600461494d565b610415565b6040516101489190614966565b61021261020d36600461494d565b610481565b005b34801561022057600080fd5b5061021261022f3660046149b3565b610567565b34801561024057600080fd5b506027546001600160a01b0316610171565b34801561025e57600080fd5b5061021261026d366004614930565b6106d8565b34801561027e57600080fd5b5061021261028d3660046149f5565b61072a565b34801561029e57600080fd5b506102b26102ad366004614a3f565b61082c565b604051908152602001610148565b3480156102cc57600080fd5b506102126102db366004614930565b61097f565b3480156102ec57600080fd5b506102126102fb366004614930565b610a45565b6102b261030e366004614a79565b610b08565b6102b2610321366004614a79565b610bcf565b34801561033257600080fd5b506102b266d529ae9e86000081565b34801561034d57600080fd5b506102b261035c36600461494d565b6000908152600d602052604090205490565b34801561037a57600080fd5b506003546102b2565b34801561038f57600080fd5b5061021261039e366004614b48565b610c88565b3480156103af57600080fd5b506101c26103be36600461494d565b60009081526009602052604090205460ff1690565b3480156103df57600080fd5b5060045460405163ffffffff9091168152602001610148565b63ffffffff81166000908152601260205260408120545b92915050565b6000818152600a602090815260409182902080548351818402810184019094528084526060939283018282801561047557602002820191906000526020600020905b81546001600160a01b03168152600190910190602001808311610457575b50505050509050919050565b601f54600119016104a557604051637ce54e2d60e11b815260040160405180910390fd5b6002601f5560225460ff16156104ce57604051633ee5b89360e01b815260040160405180910390fd5b346000036104ef576040516348e7dc3f60e01b815260040160405180910390fd5b6000818152600d60205260408120805434929061050d908490614b7c565b90915550506000818152600d6020908152604091829020548251908152339181019190915282917feab1c093c8ba2224a2907cd9efb6ed51c233306ff5a66853b84e02a0bf95feab910160405180910390a2506001601f55565b33610570610d47565b6001600160a01b031614610597576040516314e74a2560e21b815260040160405180910390fd5b6040516340c10f1960e01b8152306004820152600160248201526001600160a01b038216906340c10f1990604401600060405180830381600087803b1580156105df57600080fd5b505af11580156105f3573d6000803e3d6000fd5b5050604051632770a7eb60e21b8152306004820152600160248201526001600160a01b0384169250639dc29fac9150604401600060405180830381600087803b15801561063f57600080fd5b505af1158015610653573d6000803e3d6000fd5b5050600480546040516301458d7560e51b815263ffffffff881692810192909252602482018690526001600160a01b0385811660448401526401000000009091041692506328b1aea09150606401600060405180830381600087803b1580156106bb57600080fd5b505af11580156106cf573d6000803e3d6000fd5b50505050505050565b336106e1610d47565b6001600160a01b031614610708576040516314e74a2560e21b815260040160405180910390fd5b602780546001600160a01b0319166001600160a01b0392909216919091179055565b813361073c60a0830160808401614930565b6001600160a01b0316146107635760405163e3613aff60e01b815260040160405180910390fd5b61271082111561078657604051633345cd4360e11b815260040160405180910390fd5b60045463ffffffff1661079f60408501602086016148f3565b63ffffffff16146107c357604051632a8e462760e01b815260040160405180910390fd5b60006107d66107d185614c99565b610d75565b600081815260116020526040908190208590555190915081907fb243c3cea6cd1bbfd64d5d0765f13734ca7b87fdf14e017391fe12a8891434ca9061081e9086815260200190565b60405180910390a250505050565b601f546000906001190161085357604051637ce54e2d60e11b815260040160405180910390fd5b6002601f5560225460ff161561087c57604051633ee5b89360e01b815260040160405180910390fd5b60008061088884610da5565b6000828152600e6020526040812080546001600160a01b03191633179055919350915080806108eb856108e36108be8a80614d8e565b61018001356108cd8b80614d8e565b6108de9060608101906040016148f3565b611185565b86158a6111c7565b92509250925060006109008885858989611718565b90506001600160a01b0383166109168980614d8e565b610927906080810190606001614930565b6001600160a01b0316877f0b07a8b0b083f8976b3c832b720632f49cb8ba1e7a99e1b145f51a47d3391cb78b8686336040516109669493929190614f0b565b60405180910390a450506001601f555091949350505050565b33610988610d47565b6001600160a01b0316146109af576040516314e74a2560e21b815260040160405180910390fd5b6001600160a01b03811660009081526026602052604090205460ff166109e857604051637840a40d60e01b815260040160405180910390fd5b6001600160a01b038116600081815260266020908152604091829020805460ff19169055815192835233908301527f4860b0a180d4b5969c2757493a999f05d0b22318320f154a02170aa239e24b1391015b60405180910390a150565b33610a4e610d47565b6001600160a01b031614610a75576040516314e74a2560e21b815260040160405180910390fd5b6001600160a01b03811660009081526026602052604090205460ff1615610aaf5760405163e2a4506360e01b815260040160405180910390fd5b6001600160a01b038116600081815260266020908152604091829020805460ff19166001179055815192835233908301527f3860a100215fe93b6b95ed1ae0870e538f85a73b30d073f63fefc60e08b0c1249101610a3a565b604080516101a08101825260045463ffffffff90811682528a1660208083019190915260008284018190526001600160a01b03808c1660608501528916608084015260a083018190528351601f86018390048302810183019094528484529283929160c0830191908790879081908401838280828437600092018290525093855250505060208201889052336040830152606082018190526080820181905260a0820181905260c0909101529050610bc1818988611761565b9a9950505050505050505050565b604080516101a08101825260045463ffffffff90811682528a1660208083019190915260008284018190526001600160a01b03808c16606085015289166080840152600160a08401528351601f86018390048302810183019094528484529283929160c0830191908790879081908401838280828437600092018290525093855250505060208201889052336040830152606082018190526080820181905260a0820181905260c0909101529050610bc1818988611761565b33610c91610d47565b6001600160a01b031614610cb8576040516314e74a2560e21b815260040160405180910390fd5b60045463ffffffff90811690831603610ce457604051632892757b60e21b815260040160405180910390fd5b63ffffffff821660008181526012602090815260409182902084905581519283526001600160a01b038416908301523382820152517fb07f562723347d6ea7f9f37b3b31f96b65104c3339d1c89e1b6fa88e2410b85c9181900360600190a15050565b7fc8fcad8db84d3cc18b4c41d551ea0ee66dd599cde068d998e57d5e09332c1320546001600160a01b031690565b600081604051602001610d88919061528d565b604051602081830303815290604052805190602001209050919050565b336000908152600c6020526040812054819060ff16158015610df35750610dcc8380614d8e565b610ddd9060a0810190608001614930565b6001600160a01b0316336001600160a01b031614155b15610e1157604051637c32a2b360e01b815260040160405180910390fd5b60045463ffffffff16610e248480614d8e565b610e359060408101906020016148f3565b63ffffffff1614610e595760405163b6bb322560e01b815260040160405180910390fd5b6000610e6860208501856152a0565b600f549092508211159050610e90576040516313c06ef360e01b815260040160405180910390fd5b6000610ea8610e9f8680614d8e565b6107d190614c99565b600081815260096020908152604080832054905193945060ff1692610eda918591879101918252602082015260400190565b60405160208183030381529060405280519060200120905083600014611125578115610f195760405163373c9f6f60e01b815260040160405180910390fd5b60266000610f2d60808a0160608b01614930565b6001600160a01b0316815260208101919091526040016000205460ff16610f6757604051631fa09b5360e31b815260040160405180910390fd5b610fb483610f7860208a018a6152a0565b604051602001610f8a939291906152e9565b60408051601f198184030181529190528051602090910120610faf60808a018a615303565b611c0a565b6001600160a01b0316610fcd6080890160608a01614930565b6001600160a01b031614610ff457604051638579eca560e01b815260040160405180910390fd5b60005b8481101561111f57611007611c5c565b15801561106457506019600061102060208b018b6152a0565b8481811061103057611030615349565b90506020020160208101906110459190614930565b6001600160a01b0316815260208101919091526040016000205460ff16155b1561108257604051630e1eb7f760e31b815260040160405180910390fd5b6110b58261109360408b018b6152a0565b848181106110a3576110a3615349565b9050602002810190610faf9190615303565b6001600160a01b03166110cb60208a018a6152a0565b838181106110db576110db615349565b90506020020160208101906110f09190614930565b6001600160a01b03161461111757604051633a1dd23360e21b815260040160405180910390fd5b600101610ff7565b50611143565b8161114357604051636320d2cf60e11b815260040160405180910390fd5b6000838152600e60205260409020546001600160a01b0316156111795760405163c2f8eb9360e01b815260040160405180910390fd5b50909590945092505050565b600082826040516020016111a992919091825263ffffffff16602082015260400190565b60405160208183030381529060405280519060200120905092915050565b600080806111d860208501856152a0565b6000898152600a602052604090206111f192909161485e565b5060045460009064010000000090046001600160a01b031663589b3c646112188780614d8e565b6112299060608101906040016148f3565b6112338880614d8e565b6040516001600160e01b031960e085901b16815263ffffffff92909216600483015261018001356024820152604401602060405180830381865afa15801561127f573d6000803e3d6000fd5b505050506040513d601f19601f820116820180604052508101906112a3919061535f565b90506112af8580614d8e565b61012001356000036112c95760009350915081905061170e565b60006112d58680614d8e565b61012001359050861561168e5760006112f160208801886152a0565b915061131590506113028880614d8e565b6101200135600060010154612710611c83565b91508060010361151f576113298780614d8e565b61133a9060c081019060a00161537c565b1580156113a6575081600b600061135460208b018b6152a0565b600081811061136557611365615349565b905060200201602081019061137a9190614930565b6001600160a01b0390811682526020808301939093526040918201600090812091881681529252902054105b80156113c1575060225461010090046001600160a01b031615155b1561148a57601a60006113d760208a018a6152a0565b60008181106113e8576113e8615349565b90506020020160208101906113fd9190614930565b6001600160a01b0316815260208101919091526040016000205460ff16611437576040516310c4e50960e01b815260040160405180910390fd5b6000806114788c8c8661144d60208e018e6152a0565b600081811061145e5761145e615349565b90506020020160208101906114739190614930565b611c9a565b909850965093945061170e9350505050565b81600b600061149c60208b018b6152a0565b60008181106114ad576114ad615349565b90506020020160208101906114c29190614930565b6001600160a01b03166001600160a01b031681526020019081526020016000206000856001600160a01b03166001600160a01b0316815260200190815260200160002060008282546115149190615399565b9091555061168c9050565b600061152b82846153c6565b905060005b61153b600184615399565b8110156115d85781600b600061155460208d018d6152a0565b8581811061156457611564615349565b90506020020160208101906115799190614930565b6001600160a01b03166001600160a01b031681526020019081526020016000206000876001600160a01b03166001600160a01b0316815260200190815260200160002060008282546115cb9190615399565b9091555050600101611530565b5060006115e583856153da565b6115ef9083614b7c565b905080600b600061160360208d018d6152a0565b61160e600189615399565b81811061161d5761161d615349565b90506020020160208101906116329190614930565b6001600160a01b03166001600160a01b031681526020019081526020016000206000876001600160a01b03166001600160a01b0316815260200190815260200160002060008282546116849190615399565b909155505050505b505b6116988680614d8e565b6116a99060c081019060a00161537c565b156116ba579350915081905061170e565b60008981526011602052604081205490806117018b86868685036116eb576116e28d80614d8e565b60e001356116ed565b865b6116f78e80614d8e565b6101400135611e66565b9098509650939450505050505b9450945094915050565b600061173f846117288880614d8e565b611739906080810190606001614930565b87611f39565b611755838686856117508b80614d8e565b611f7d565b50835b95945050505050565b60225460009060ff161561178857604051633ee5b89360e01b815260040160405180910390fd5b60006001600160a01b0384161580156117a057508215155b156117be5760405163ae715ad360e01b815260040160405180910390fd5b6117cb8560200151612174565b60608601519091506001600160a01b03166117f85760405162845fdd60e41b815260040160405180910390fd5b6127108560e00151111561181f5760405163388d723160e11b815260040160405180910390fd5b6040805180820190915260008082526020820181905290819060006001600160a01b03881615611a97576001600160a01b0388166000908152600760209081526040918290208251808401909352805463ffffffff168352600101549082018190529092506119c1576004805460405163c86415cb60e01b81526001600160a01b038b8116938201939093526401000000009091049091169063c86415cb90602401602060405180830381865afa1580156118de573d6000803e3d6000fd5b505050506040513d601f19601f8201168201806040525081019061190291906153ee565b15611920576040516379e5923d60e01b815260040160405180910390fd5b600480546040516378a9bb4360e11b81526001600160a01b03808c16938201939093528a965060009283926401000000009004169063f1537686906024016040805180830381865afa15801561197a573d6000803e3d6000fd5b505050506040513d601f19601f8201168201806040525081019061199e919061540b565b6040805180820190915263ffffffff909216825260208201529350611a7e915050565b6004805483516020850151604051631626cf1960e21b815263ffffffff90921693820193909352602481019290925264010000000090046001600160a01b03169063589b3c6490604401602060405180830381865afa158015611a28573d6000803e3d6000fd5b505050506040513d601f19601f82011682018060405250810190611a4c919061535f565b82518a5191955063ffffffff9182169116148015611a7b5750876001600160a01b0316846001600160a01b0316145b90505b815163ffffffff1660408a015260208201516101808a01525b8615611ac957611aa788886121ad565b611ac28961018001518a604001518a878b8e60e001516122c6565b6101208a01525b6001600160a01b03881615611b4a57611b45886001600160a01b031663313ce5676040518163ffffffff1660e01b8152600401602060405180830381865afa158015611b19573d6000803e3d6000fd5b505050506040513d601f19601f82011682018060405250810190611b3d9190615439565b60128961241a565b611b4d565b60005b6101408a0152611b5c89610d75565b600380549194506000611b6e8361545c565b909155506101608a01526000838152600d602052604081208054349290611b96908490614b7c565b925050819055506000611bb7848b602001518886898f610120015188612485565b9050808a6101600151857ff396bf2f190af41bfaba814075e8d206f741ff48b2effe0af036a5aef81559eb8d89604051611bf2929190615475565b60405180910390a450919450505050505b9392505050565b6000611c54611c1885612837565b84848080601f01602080910402602001604051908101604052809392919081815260200183838082843760009201919091525061287292505050565b949350505050565b600080611c67610d47565b6001600160a01b03161480611c7e575060155460ff165b905090565b600081611c90848661549f565b611c5491906153c6565b6000806000611ca886612896565b6022546040516369a933a560e01b81526001600160a01b0380841660048301526024820189905230604483015260006064830152929350610100909104909116906369a933a590608401600060405180830381600087803b158015611d0c57600080fd5b505af1158015611d20573d6000803e3d6000fd5b5050602254604051631a4ca37b60e21b81526001600160a01b038581166004830152602482018a90523060448301526000945061010090920490911691506369328dec906064016020604051808303816000875af1158015611d86573d6000803e3d6000fd5b505050506040513d601f19601f82011682018060405250810190611daa91906154be565b905085811015611dcd5760405163407559a360e11b815260040160405180910390fd5b600088815260246020526040902086905560235461271090611df090889061549f565b611dfa91906153c6565b6000898152602560209081526040918290209290925580516001600160a01b038581168252928101899052918716918a917f2d3ba0fa5be2ef8cb1ec8920a07a6cbccc2397b18ca3e70f48ea695500b8f218910160405180910390a35084925090505b94509492505050565b600085815260086020526040812054819081906001600160a01b039081169088168103611e9a578688935093505050611f2f565b86600003611eae578693509150611f2f9050565b611f288989838a611f236012876001600160a01b031663313ce5676040518163ffffffff1660e01b8152600401602060405180830381865afa158015611ef8573d6000803e3d6000fd5b505050506040513d601f19601f82011682018060405250810190611f1c9190615439565b8c8e6128cc565b61290e565b9350935050505b9550959350505050565b80600003611f4657505050565b6001600160a01b038316611f6d57604051633a48ca7b60e11b815260040160405180910390fd5b611f78838383612a46565b505050565b7fc5d2460186f7233c927e7db2dcc703c0e500b653ca82273b7bfad8045d85a470611fab60c0830183615303565b604051611fb99291906154d7565b6040518091039020031561216d5760006060831561208357612079611fe46080850160608601614930565b6127105a611ff29190615399565b600061010063fd614f4160e01b8c8c8c6120126101208d018d8701614930565b61201f60208e018e6148f3565b61202c60c08f018f615303565b60405160240161204297969594939291906154e7565b60408051601f198184030181529190526020810180516001600160e01b03166001600160e01b031990931692909217909152612aa9565b9092509050612130565b6120936080840160608501614930565b6001600160a01b031663fd614f4188888860006120b360208a018a6148f3565b6120c060c08b018b615303565b6040518863ffffffff1660e01b81526004016120e297969594939291906154e7565b6000604051808303816000875af1158015612101573d6000803e3d6000fd5b505050506040513d6000823e601f3d908101601f19168201604052612129919081019061556a565b9050600191505b867fb1a4ab59facaedd6d3a71da3902e0a1fa5b99750c0e20cd878334378a41cb33583836040516121629291906155b2565b60405180910390a250505b5050505050565b63ffffffff8116600090815260126020526040902054806121a857604051630c3bcd4960e41b815260040160405180910390fd5b919050565b806000036121b9575050565b6040516370a0823160e01b81523060048201526000906001600160a01b038416906370a0823190602401602060405180830381865afa158015612200573d6000803e3d6000fd5b505050506040513d601f19601f8201168201806040525081019061222491906154be565b905061223283333085612b33565b6040516370a0823160e01b8152306004820152829082906001600160a01b038616906370a0823190602401602060405180830381865afa15801561227a573d6000803e3d6000fd5b505050506040513d601f19601f8201168201806040525081019061229e91906154be565b6122a89190615399565b14611f7857604051631a39afd960e11b815260040160405180910390fd5b6000826000036122d7575081612410565b846001600160a01b0316846001600160a01b0316036122f7575081612410565b6000878760405160200161231b92919091825263ffffffff16602082015260400190565b604051602081830303815290604052805190602001209050600061240a82888888611f238c6001600160a01b031663313ce5676040518163ffffffff1660e01b8152600401602060405180830381865afa15801561237d573d6000803e3d6000fd5b505050506040513d601f19601f820116820180604052508101906123a19190615439565b8c6001600160a01b031663313ce5676040518163ffffffff1660e01b8152600401602060405180830381865afa1580156123df573d6000803e3d6000fd5b505050506040513d601f19601f820116820180604052508101906124039190615439565b8c8c6128cc565b50925050505b9695505050505050565b60008260ff168460ff1603612430575080611c03565b60008360ff168560ff1610156124665761244a85856155cd565b61245590600a6156d4565b61245f908461549f565b9050611c54565b61247084866155cd565b61247b90600a6156d4565b61175890846153c6565b83516020850151600091859160129184916124a09190612b71565b905060006001600160a01b0388161561265c57836001600160a01b031663313ce5676040518163ffffffff1660e01b8152600401602060405180830381865afa1580156124f1573d6000803e3d6000fd5b505050506040513d601f19601f820116820180604052508101906125159190615439565b92508561258357836001600160a01b0316634815fcb16040518163ffffffff1660e01b8152600401602060405180830381865afa15801561255a573d6000803e3d6000fd5b505050506040513d601f19601f8201168201806040525081019061257e91906154be565b612659565b612659846001600160a01b03166306fdde036040518163ffffffff1660e01b81526004016000604051808303816000875af11580156125c6573d6000803e3d6000fd5b505050506040513d6000823e601f3d908101601f191682016040526125ee919081019061556a565b856001600160a01b03166395d89b416040518163ffffffff1660e01b8152600401600060405180830381865afa15801561262c573d6000803e3d6000fd5b505050506040513d6000823e601f3d908101601f19168201604052612654919081019061556a565b612bb0565b90505b86156126c857856126c857604051632770a7eb60e21b8152306004820152602481018890526001600160a01b03851690639dc29fac90604401600060405180830381600087803b1580156126af57600080fd5b505af11580156126c3573d6000803e3d6000fd5b505050505b60006126d688838f87612bcb565b905060008060270160009054906101000a90046001600160a01b03166001600160a01b0316639fa92f9d6040518163ffffffff1660e01b8152600401602060405180830381865afa15801561272f573d6000803e3d6000fd5b505050506040513d601f19601f82011682018060405250810190612753919061535f565b6001600160a01b031663fa31de018e8e61276d8887612beb565b6040518463ffffffff1660e01b815260040161278b939291906156e3565b6020604051808303816000875af11580156127aa573d6000803e3d6000fd5b505050506040513d601f19601f820116820180604052508101906127ce91906154be565b604080518e8152602081018c9052600181830152905191925063ffffffff8f169133916001600160a01b038e16917fa3d219cf126a12be40d7ad1ceef46231c987988dd4e686457b610e1b6b80a4bf9181900360600190a49d9c50505050505050505050505050565b6040517f19457468657265756d205369676e6564204d6573736167653a0a3332000000006020820152603c8101829052600090605c01610d88565b60008060006128818585612cc6565b9150915061288e81612d0b565b509392505050565b6000818152600860205260408120546001600160a01b03168061040f57604051634cdfde3760e11b815260040160405180910390fd5b6000826000036128de57506000611c54565b60006127106128ed8482615399565b6128f7908661549f565b61290191906153c6565b905061241086868361241a565b60008581526020805260408120600801548190819015612963576129586129358989612ec4565b61293f8a89612ec4565b60008b8152602080860190526040902091908888612f42565b869250925050611f2f565b60008881526005820160205260408120546001600160a01b03169061298b908990839061326f565b612996888288613384565b6001600160a01b03811663d460f0a2878a8a896129b542610e10614b7c565b6040516001600160e01b031960e088901b16815260048101959095526001600160a01b0393841660248601529290911660448401526064830152608482015260a4016020604051808303816000875af1158015612a16573d6000803e3d6000fd5b505050506040513d601f19601f82011682018060405250810190612a3a91906154be565b87935093505050611f2f565b6040516001600160a01b038316602482015260448101829052611f7890849063a9059cbb60e01b906064015b60408051601f198184030181529190526020810180516001600160e01b03166001600160e01b031990931692909217909152613436565b6000606060008060008661ffff166001600160401b03811115612ace57612ace614b94565b6040519080825280601f01601f191660200182016040528015612af8576020820181803683370190505b5090506000808751602089018b8e8ef191503d925086831115612b19578692505b828152826000602083013e90999098509650505050505050565b6040516001600160a01b0380851660248301528316604482015260648101829052612b6b9085906323b872dd60e01b90608401612a72565b50505050565b6000611c0360016040516001600160e01b031960e087901b166020820152602481018590526044015b60408051601f1981840301815291905290613508565b60008251838351846040516020016111a9949392919061571e565b600061175860038087878787604051602001612b9a959493929190615762565b6060826001612c0062ffffff19831682613523565b50612c0a846135fc565b612c455760405162461bcd60e51b815260206004820152600760248201526610b0b1ba34b7b760c91b60448201526064015b60405180910390fd5b6040805160028082526060820183526000926020830190803683370190505090508581600081518110612c7a57612c7a615349565b602002602001019062ffffff1916908162ffffff1916815250508481600181518110612ca857612ca8615349565b62ffffff199092166020928302919091019091015261241081613607565b6000808251604103612cfc5760208301516040840151606085015160001a612cf08782858561365c565b94509450505050612d04565b506000905060025b9250929050565b6000816004811115612d1f57612d1f615708565b03612d275750565b6001816004811115612d3b57612d3b615708565b03612d885760405162461bcd60e51b815260206004820152601860248201527f45434453413a20696e76616c6964207369676e617475726500000000000000006044820152606401612c3c565b6002816004811115612d9c57612d9c615708565b03612de95760405162461bcd60e51b815260206004820152601f60248201527f45434453413a20696e76616c6964207369676e6174757265206c656e677468006044820152606401612c3c565b6003816004811115612dfd57612dfd615708565b03612e555760405162461bcd60e51b815260206004820152602260248201527f45434453413a20696e76616c6964207369676e6174757265202773272076616c604482015261756560f01b6064820152608401612c3c565b6004816004811115612e6957612e69615708565b03612ec15760405162461bcd60e51b815260206004820152602260248201527f45434453413a20696e76616c6964207369676e6174757265202776272076616c604482015261756560f01b6064820152608401612c3c565b50565b60008281526021602090815260408083206001600160a01b038516808552908352818420548685529280529083206008018054849360ff1692919083908110612f0f57612f0f615349565b6000918252602090912001546001600160a01b031614611c545760405163054e442960e41b815260040160405180910390fd5b600080866008018660ff1681548110612f5d57612f5d615349565b6000918252602090912001546040516370a0823160e01b81523360048201526001600160a01b03909116915081906370a0823190602401602060405180830381865afa158015612fb1573d6000803e3d6000fd5b505050506040513d601f19601f82011682018060405250810190612fd591906154be565b8411156130185760405162461bcd60e51b815260206004820152601160248201527036b7b932903a3430b7103cb7ba9037bbb760791b6044820152606401612c3c565b600080600089600a0180548060200260200160405190810160405280929190818152602001828054801561306b57602002820191906000526020600020905b815481526020019060010190808311613057575b5050505050905061307f8a8a8a8a85613746565b9093509150858310156130c15760405162461bcd60e51b815260206004820152600a6024820152696479203c206d696e447960b01b6044820152606401612c3c565b60008a6009018960ff16815481106130db576130db615349565b90600052602060002001546402540be4008c60060154856130fc919061549f565b61310691906153c6565b61311091906153c6565b905087828b60ff168151811061312857613128615349565b602002602001015161313a9190614b7c565b8b600a018b60ff168154811061315257613152615349565b90600052602060002001819055508084838b60ff168151811061317757613177615349565b60200260200101516131899190615399565b6131939190615399565b8b600a018a60ff16815481106131ab576131ab615349565b600091825260209091200155801561321057808b600b018a60ff16815481106131d6576131d6615349565b90600052602060002001546131eb9190614b7c565b8b600b018a60ff168154811061320357613203615349565b6000918252602090912001555b8a54604080518a81526020810187905260ff8d8116828401528c16606082015290513392917f28d4cf2d5709da3b474b5f05cfd7083faffd601f9500d1f8439b8a13ec7df320919081900360800190a350919998505050505050505050565b8015806132e95750604051636eb1769f60e11b81523060048201526001600160a01b03838116602483015284169063dd62ed3e90604401602060405180830381865afa1580156132c3573d6000803e3d6000fd5b505050506040513d601f19601f820116820180604052508101906132e791906154be565b155b6133545760405162461bcd60e51b815260206004820152603660248201527f5361666545524332303a20617070726f76652066726f6d206e6f6e2d7a65726f60448201527520746f206e6f6e2d7a65726f20616c6c6f77616e636560501b6064820152608401612c3c565b6040516001600160a01b038316602482015260448101829052611f7890849063095ea7b360e01b90606401612a72565b604051636eb1769f60e11b81523060048201526001600160a01b038381166024830152600091839186169063dd62ed3e90604401602060405180830381865afa1580156133d5573d6000803e3d6000fd5b505050506040513d601f19601f820116820180604052508101906133f991906154be565b6134039190614b7c565b6040516001600160a01b038516602482015260448101829052909150612b6b90859063095ea7b360e01b90606401612a72565b600061348b826040518060400160405280602081526020017f5361666545524332303a206c6f772d6c6576656c2063616c6c206661696c6564815250856001600160a01b031661390c9092919063ffffffff16565b805190915015611f7857808060200190518101906134a991906153ee565b611f785760405162461bcd60e51b815260206004820152602a60248201527f5361666545524332303a204552433230206f7065726174696f6e20646964206e6044820152691bdd081cdd58d8d9595960b21b6064820152608401612c3c565b81516000906020840161175864ffffffffff8516828461391b565b600061352f8383613962565b6135f557600061354e6135428560d81c90565b64ffffffffff16613985565b91505060006135638464ffffffffff16613985565b6040517f5479706520617373657274696f6e206661696c65642e20476f7420307800000060208201526001600160b01b031960b086811b8216603d8401526c05c408af0e0cac6e8cac84060f609b1b604784015283901b16605482015290925060009150605e0160405160208183030381529060405290508060405162461bcd60e51b8152600401612c3c91906157b7565b5090919050565b600061040f82613a33565b604051606090600061361c8460208401613a40565b905060006136338260181c6001600160601b031690565b6001600160601b03169050600061364983613ad0565b9184525082016020016040525092915050565b6000807f7fffffffffffffffffffffffffffffff5d576e7357a4501ddfe92f46681b20a08311156136935750600090506003611e5d565b8460ff16601b141580156136ab57508460ff16601c14155b156136bc5750600090506004611e5d565b6040805160008082526020820180845289905260ff881692820192909252606081018690526080810185905260019060a0016020604051602081039080840390855afa158015613710573d6000803e3d6000fd5b5050604051601f1901519150506001600160a01b03811661373957600060019250925050611e5d565b9660009650945050505050565b60008060008760090180548060200260200160405190810160405280929190818152602001828054801561379957602002820191906000526020600020905b815481526020019060010190808311613785575b5050505050905060006137ac8583613ae6565b905080518860ff161080156137c4575080518760ff16105b6138055760405162461bcd60e51b8152602060048201526012602482015271696e646578206f7574206f662072616e676560701b6044820152606401612c3c565b6000818960ff168151811061381c5761381c615349565b6020026020010151838a60ff168151811061383957613839615349565b60200260200101518861384c919061549f565b6138569190614b7c565b9050600061386f6138668c613bf0565b8b8b8587613bfb565b9050600181848b60ff168151811061388957613889615349565b602002602001015161389b9190615399565b6138a59190615399565b95506402540be4008b60050154876138bd919061549f565b6138c791906153c6565b9450838960ff16815181106138de576138de615349565b602002602001015185876138f29190615399565b6138fc91906153c6565b9550505050509550959350505050565b6060611c548484600085613e62565b6000806139288385614b7c565b9050604051811115613938575060005b8060000361394d5762ffffff19915050611c03565b5050606092831b9190911790911b1760181b90565b60008164ffffffffff166139768460d81c90565b64ffffffffff16149392505050565b600080601f5b600f8160ff1611156139da5760006139a48260086157ca565b60ff1685901c90506139b581613f93565b61ffff16841793508160ff166010146139d057601084901b93505b506000190161398b565b50600f5b60ff8160ff161015613a2d5760006139f78260086157ca565b60ff1685901c9050613a0881613f93565b61ffff16831792508160ff16600014613a2357601083901b92505b50600019016139de565b50915091565b600061040f826003613fc5565b600060405182811115613a535760206060fd5b506000805b8451811015613ac0576000858281518110613a7557613a75615349565b60200260200101519050613a8b81848701614024565b50613a9f8160181c6001600160601b031690565b6001600160601b031683019250508080613ab89061545c565b915050613a58565b50606083901b811760181b611c54565b6000613adb8261417b565b61040f90602061549f565b81518151606091908114613b335760405162461bcd60e51b81526020600482015260146024820152736d69736d61746368206d756c7469706c6965727360601b6044820152606401612c3c565b6000816001600160401b03811115613b4d57613b4d614b94565b604051908082528060200260200182016040528015613b76578160200160208202803683370190505b50905060005b82811015613be757848181518110613b9657613b96615349565b6020026020010151868281518110613bb057613bb0615349565b6020026020010151613bc2919061549f565b828281518110613bd457613bd4615349565b6020908102919091010152600101613b7c565b50949350505050565b600061040f826141b0565b805160009060ff80861690871603613c555760405162461bcd60e51b815260206004820152601760248201527f636f6d7061726520746f6b656e20746f20697473656c660000000000000000006044820152606401612c3c565b808660ff16108015613c695750808560ff16105b613ca75760405162461bcd60e51b815260206004820152600f60248201526e1d1bdad95b881b9bdd08199bdd5b99608a1b6044820152606401612c3c565b6000613cb38489614250565b905080600080613cc38b8661549f565b90506000805b86811015613d4a578b60ff168103613ce357899150613d16565b8a60ff168114613d0e57888181518110613cff57613cff615349565b60200260200101519150613d16565b600101613cc9565b613d208285614b7c565b9350613d2c878361549f565b613d36878761549f565b613d4091906153c6565b9450600101613cc9565b50613d55868361549f565b6064613d61878761549f565b613d6b919061549f565b613d7591906153c6565b9350600082613d8560648861549f565b613d8f91906153c6565b613d999085614b7c565b9050600086815b610100811015613e19578192508884836002613dbc919061549f565b613dc69190614b7c565b613dd09190615399565b88613ddb848061549f565b613de59190614b7c565b613def91906153c6565b9150613dfb82846143fd565b15613e1157509850611758975050505050505050565b600101613da0565b5060405162461bcd60e51b815260206004820152601e60248201527f417070726f78696d6174696f6e20646964206e6f7420636f6e766572676500006044820152606401612c3c565b606082471015613ec35760405162461bcd60e51b815260206004820152602660248201527f416464726573733a20696e73756666696369656e742062616c616e636520666f6044820152651c8818d85b1b60d21b6064820152608401612c3c565b6001600160a01b0385163b613f1a5760405162461bcd60e51b815260206004820152601d60248201527f416464726573733a2063616c6c20746f206e6f6e2d636f6e74726163740000006044820152606401612c3c565b600080866001600160a01b03168587604051613f3691906157eb565b60006040518083038185875af1925050503d8060008114613f73576040519150601f19603f3d011682016040523d82523d6000602084013e613f78565b606091505b5091509150613f88828286614414565b979650505050505050565b6000613fa560048360ff16901c61444d565b60ff1661ffff919091161760081b613fbc8261444d565b60ff1617919050565b6000816003811115613fd957613fd9615708565b60ff16613fe58461459a565b60ff16148015611c03575081600381111561400257614002615708565b61400b846145ae565b600381111561401c5761401c615708565b149392505050565b600062ffffff198084160361408c5760405162461bcd60e51b815260206004820152602860248201527f54797065644d656d566965772f636f7079546f202d204e756c6c20706f696e7460448201526732b9103232b932b360c11b6064820152608401612c3c565b614095836145c9565b6140f55760405162461bcd60e51b815260206004820152602b60248201527f54797065644d656d566965772f636f7079546f202d20496e76616c696420706f60448201526a34b73a32b9103232b932b360a91b6064820152608401612c3c565b600061410a8460181c6001600160601b031690565b6001600160601b03169050600061412a8560781c6001600160601b031690565b6001600160601b03169050600060405190508481111561414a5760206060fd5b8285848460045afa506124106141608760d81c90565b64ffffffffff60601b606091821b168717901b841760181b90565b600060206141928360181c6001600160601b031690565b6141a6906001600160601b0316601f614b7c565b61040f91906153c6565b600481015460028201546000919042821115611c03576003840154600185015480831115614214576141e28285615399565b6141ec8342615399565b6141f68386615399565b614200919061549f565b61420a91906153c6565b6124109082614b7c565b61421e8285615399565b6142288342615399565b6142328584615399565b61423c919061549f565b61424691906153c6565b6124109082615399565b815160009081805b8281101561428f5785818151811061427257614272615349565b6020026020010151826142859190614b7c565b9150600101614258565b50806000036142a35760009250505061040f565b600081816142b1858861549f565b905060005b6101008110156143be578260005b8781101561430f57878b82815181106142df576142df615349565b60200260200101516142f1919061549f565b6142fb868461549f565b61430591906153c6565b91506001016142c4565b50839450808760016143219190614b7c565b61432b919061549f565b6064856143388287615399565b614342919061549f565b61434c91906153c6565b6143569190614b7c565b84614361898461549f565b606461436d8a8861549f565b61437791906153c6565b6143819190614b7c565b61438b919061549f565b61439591906153c6565b93506143a184866143fd565b156143b5578397505050505050505061040f565b506001016142b6565b5060405162461bcd60e51b81526020600482015260136024820152724420646f6573206e6f7420636f6e766572676560681b6044820152606401612c3c565b6000600161440b8484614606565b11159392505050565b60608315614423575081611c03565b8251156144335782518084602001fd5b8160405162461bcd60e51b8152600401612c3c91906157b7565b600060f08083179060ff821690036144685750603092915050565b8060ff1660f10361447c5750603192915050565b8060ff1660f2036144905750603292915050565b8060ff1660f3036144a45750603392915050565b8060ff1660f4036144b85750603492915050565b8060ff1660f5036144cc5750603592915050565b8060ff1660f6036144e05750603692915050565b8060ff1660f7036144f45750603792915050565b8060ff1660f8036145085750603892915050565b8060ff1660f90361451c5750603992915050565b8060ff1660fa036145305750606192915050565b8060ff1660fb036145445750606292915050565b8060ff1660fc036145585750606392915050565b8060ff1660fd0361456c5750606492915050565b8060ff1660fe036145805750606592915050565b8060ff1660ff036145945750606692915050565b50919050565b600061040f62ffffff19831682600161462b565b600060d882901c60ff16600381111561040f5761040f615708565b60006145d58260d81c90565b64ffffffffff1664ffffffffff036145ef57506000919050565b60006145fa8361465b565b60405110199392505050565b6000818311156146215761461a8284615399565b905061040f565b611c038383615399565b60006146388260206155cd565b6146439060086157ca565b60ff16614651858585614694565b901c949350505050565b60006146708260181c6001600160601b031690565b6146838360781c6001600160601b031690565b016001600160601b03169050919050565b60008160ff166000036146a957506000611c03565b6146bc8460181c6001600160601b031690565b6001600160601b03166146d260ff841685614b7c565b11156147365761471d6146ee8560781c6001600160601b031690565b6001600160601b031661470a8660181c6001600160601b031690565b6001600160601b0316858560ff166147f0565b60405162461bcd60e51b8152600401612c3c91906157b7565b60208260ff1611156147b05760405162461bcd60e51b815260206004820152603a60248201527f54797065644d656d566965772f696e646578202d20417474656d70746564207460448201527f6f20696e646578206d6f7265207468616e2033322062797465730000000000006064820152608401612c3c565b6008820260006147c98660781c6001600160601b031690565b6001600160601b031690506000600160ff1b60001984011d91909501511695945050505050565b606060006147fd86613985565b915050600061480b86613985565b915050600061481986613985565b915050600061482786613985565b9150508383838360405160200161484194939291906157fd565b604051602081830303815290604052945050505050949350505050565b8280548282559060005260206000209081019282156148b1579160200282015b828111156148b15781546001600160a01b0319166001600160a01b0384351617825560209092019160019091019061487e565b506148bd9291506148c1565b5090565b5b808211156148bd57600081556001016148c2565b63ffffffff81168114612ec157600080fd5b80356121a8816148d6565b60006020828403121561490557600080fd5b8135611c03816148d6565b6001600160a01b0381168114612ec157600080fd5b80356121a881614910565b60006020828403121561494257600080fd5b8135611c0381614910565b60006020828403121561495f57600080fd5b5035919050565b6020808252825182820181905260009190848201906040850190845b818110156149a75783516001600160a01b031683529284019291840191600101614982565b50909695505050505050565b6000806000606084860312156149c857600080fd5b83356149d3816148d6565b92506020840135915060408401356149ea81614910565b809150509250925092565b60008060408385031215614a0857600080fd5b82356001600160401b03811115614a1e57600080fd5b83016101a08186031215614a3157600080fd5b946020939093013593505050565b600060208284031215614a5157600080fd5b81356001600160401b03811115614a6757600080fd5b820160a08185031215611c0357600080fd5b60008060008060008060008060e0898b031215614a9557600080fd5b8835614aa0816148d6565b97506020890135614ab081614910565b96506040890135614ac081614910565b95506060890135614ad081614910565b94506080890135935060a0890135925060c08901356001600160401b0380821115614afa57600080fd5b818b0191508b601f830112614b0e57600080fd5b813581811115614b1d57600080fd5b8c6020828501011115614b2f57600080fd5b6020830194508093505050509295985092959890939650565b60008060408385031215614b5b57600080fd5b8235614a31816148d6565b634e487b7160e01b600052601160045260246000fd5b60008219821115614b8f57614b8f614b66565b500190565b634e487b7160e01b600052604160045260246000fd5b6040516101a081016001600160401b0381118282101715614bcd57614bcd614b94565b60405290565b604051601f8201601f191681016001600160401b0381118282101715614bfb57614bfb614b94565b604052919050565b8015158114612ec157600080fd5b80356121a881614c03565b60006001600160401b03821115614c3557614c35614b94565b50601f01601f191660200190565b600082601f830112614c5457600080fd5b8135614c67614c6282614c1c565b614bd3565b818152846020838601011115614c7c57600080fd5b816020850160208301376000918101602001919091529392505050565b60006101a08236031215614cac57600080fd5b614cb4614baa565b614cbd836148e8565b8152614ccb602084016148e8565b6020820152614cdc604084016148e8565b6040820152614ced60608401614925565b6060820152614cfe60808401614925565b6080820152614d0f60a08401614c11565b60a082015260c08301356001600160401b03811115614d2d57600080fd5b614d3936828601614c43565b60c08301525060e083013560e0820152610100614d57818501614925565b9082015261012083810135908201526101408084013590820152610160808401359082015261018092830135928101929092525090565b6000823561019e19833603018112614da557600080fd5b9190910192915050565b6000808335601e19843603018112614dc657600080fd5b83016020810192503590506001600160401b03811115614de557600080fd5b803603821315612d0457600080fd5b81835281816020850137506000828201602090810191909152601f909101601f19169091010190565b6000808335601e19843603018112614e3457600080fd5b83016020810192503590506001600160401b03811115614e5357600080fd5b8060051b3603821315612d0457600080fd5b8183526000602080850194508260005b85811015614ea3578135614e8881614910565b6001600160a01b031687529582019590820190600101614e75565b509495945050505050565b81835260006020808501808196508560051b810191508460005b87811015614efe578284038952614edf8288614daf565b614eea868284614df4565b9a87019a9550505090840190600101614ec8565b5091979650505050505050565b608081526000610120863561019e19883603018112614f2957600080fd5b60a060808501528701614f4b828501614f41836148e8565b63ffffffff169052565b614f57602082016148e8565b610140614f6b8187018363ffffffff169052565b614f77604084016148e8565b9150610160614f8d8188018463ffffffff169052565b614f9960608501614925565b9250610180614fb2818901856001600160a01b03169052565b614fbe60808601614925565b93506101a0614fd7818a01866001600160a01b03169052565b614fe360a08701614c11565b8015156101c08b01529450614ffb60c0870187614daf565b9550816101e08b01526150136102c08b018783614df4565b9550505060e0850135610200890152610100615030818701614925565b6001600160a01b03166102208a0152858701356102408a0152838601356102608a0152828601356102808a0152818601356102a08a015261507460208e018e614e1d565b97509550607f199350838986030160a08a0152615092858888614e65565b96506150a160408e018e614e1d565b96509450838988030160c08a01526150ba878787614eae565b96506150c860608e01614925565b6001600160a01b03811660e08b015295506150e660808e018e614daf565b965094508389880301818a015250505050615102838383614df4565b935050505061511c60208301866001600160a01b03169052565b83604083015261175860608301846001600160a01b03169052565b60005b8381101561515257818101518382015260200161513a565b83811115612b6b5750506000910152565b6000815180845261517b816020860160208601615137565b601f01601f19169290920160200192915050565b805163ffffffff16825260006101a060208301516151b5602086018263ffffffff169052565b5060408301516151cd604086018263ffffffff169052565b5060608301516151e860608601826001600160a01b03169052565b50608083015161520360808601826001600160a01b03169052565b5060a083015161521760a086018215159052565b5060c08301518160c086015261522f82860182615163565b91505060e083015160e085015261010080840151615257828701826001600160a01b03169052565b50506101208381015190850152610140808401519085015261016080840151908501526101809283015192909301919091525090565b602081526000611c03602083018461518f565b6000808335601e198436030181126152b757600080fd5b8301803591506001600160401b038211156152d157600080fd5b6020019150600581901b3603821315612d0457600080fd5b838152604060208201526000611758604083018486614e65565b6000808335601e1984360301811261531a57600080fd5b8301803591506001600160401b0382111561533457600080fd5b602001915036819003821315612d0457600080fd5b634e487b7160e01b600052603260045260246000fd5b60006020828403121561537157600080fd5b8151611c0381614910565b60006020828403121561538e57600080fd5b8135611c0381614c03565b6000828210156153ab576153ab614b66565b500390565b634e487b7160e01b600052601260045260246000fd5b6000826153d5576153d56153b0565b500490565b6000826153e9576153e96153b0565b500690565b60006020828403121561540057600080fd5b8151611c0381614c03565b6000806040838503121561541e57600080fd5b8251615429816148d6565b6020939093015192949293505050565b60006020828403121561544b57600080fd5b815160ff81168114611c0357600080fd5b60006001820161546e5761546e614b66565b5060010190565b604081526000615488604083018561518f565b905060018060a01b03831660208301529392505050565b60008160001904831182151516156154b9576154b9614b66565b500290565b6000602082840312156154d057600080fd5b5051919050565b8183823760009101908152919050565b878152602081018790526001600160a01b0386811660408301528516606082015263ffffffff8416608082015260c060a0820181905260009061552d9083018486614df4565b9998505050505050505050565b6000615548614c6284614c1c565b905082815283838301111561555c57600080fd5b611c03836020830184615137565b60006020828403121561557c57600080fd5b81516001600160401b0381111561559257600080fd5b8201601f810184136155a357600080fd5b611c548482516020840161553a565b8215158152604060208201526000611c546040830184615163565b600060ff821660ff8416808210156155e7576155e7614b66565b90039392505050565b600181815b8085111561562b57816000190482111561561157615611614b66565b8085161561561e57918102915b93841c93908002906155f5565b509250929050565b6000826156425750600161040f565b8161564f5750600061040f565b8160018114615665576002811461566f5761568b565b600191505061040f565b60ff84111561568057615680614b66565b50506001821b61040f565b5060208310610133831016604e8410600b84101617156156ae575081810a61040f565b6156b883836155f0565b80600019048211156156cc576156cc614b66565b029392505050565b6000611c0360ff841683615633565b63ffffffff841681528260208201526060604082015260006117586060830184615163565b634e487b7160e01b600052602160045260246000fd5b84815260008451615736816020850160208901615137565b80830190508460208201528351615754816040840160208801615137565b016040019695505050505050565b60006004871061578257634e487b7160e01b600052602160045260246000fd5b5060f895861b815260018101949094526021840192909252604183015290911b6001600160f81b031916606182015260620190565b602081526000611c036020830184615163565b600060ff821660ff84168160ff04811182151516156156cc576156cc614b66565b60008251614da5818460208701615137565b7f54797065644d656d566965772f696e646578202d204f76657272616e20746865815274040ecd2caee5c40a6d8d2c6ca40d2e640c2e84060f605b1b60208201526001600160d01b031960d086811b821660358401526e040eed2e8d040d8cadccee8d04060f608b1b603b840181905286821b8316604a8501527f2e20417474656d7074656420746f20696e646578206174206f666673657420306050850152600f60fb1b607085015285821b83166071850152607784015283901b166086820152601760f91b608c8201526000608d820161241056fea2646970667358221220a012f5b5c7947f642337cd4f0a908fdb19f55162548cad8499e85a708f2365be64736f6c634300080f0033",
  "devdoc": {
    "events": {
      "AavePortalMintUnbacked(bytes32,address,address,uint256)": {
        "params": {
          "amount": "- The amount of asset that was provided by Aave Portal",
          "asset": "- The asset that was provided by Aave Portal",
          "router": "- The authorized router that used Aave Portal liquidity",
          "transferId": "- The unique identifier of the crosschain transaction"
        }
      },
      "Executed(bytes32,address,address,((uint32,uint32,uint32,address,address,bool,bytes,uint256,address,uint256,uint256,uint256,bytes32),address[],bytes[],address,bytes),address,uint256,address)": {
        "details": "`execute` may be called when providing fast liquidity or when processing a reconciled (slow) transfer.",
        "params": {
          "amount": "- The amount of transferring asset the recipient address receives or the external call is executed with.",
          "args": "- The `ExecuteArgs` provided to the function.",
          "asset": "- The asset the recipient is given or the external call is executed with. Should be the adopted asset on that chain.",
          "caller": "- The account that called the function.",
          "local": "- The local asset that was either supplied by the router for a fast-liquidity transfer or minted by the bridge in a reconciled (slow) transfer. Could be the same as the adopted `asset` param.",
          "to": "- The recipient `CallParams.to` provided, created as indexed parameter.",
          "transferId": "- The unique identifier of the crosschain transfer."
        }
      },
      "ExecutorUpdated(address,address,address)": {
        "params": {
          "caller": "- The account that called the function",
          "newExecutor": "- The executor new value",
          "oldExecutor": "- The executor old value"
        }
      },
      "ExternalCalldataExecuted(bytes32,bool,bytes)": {
        "params": {
          "returnData": "- Return bytes from the IXReceiver",
          "success": "- Whether calldata succeeded",
          "transferId": "- The unique identifier of the crosschain transfer."
        }
      },
      "RemoteAdded(uint32,address,address)": {
        "params": {
          "caller": "- The account that called the function",
          "domain": "- The domain the remote instance is on",
          "remote": "- The address of the remote instance"
        }
      },
      "Send(address,address,uint32,bytes32,uint256,bool)": {
        "params": {
          "amount": "the amount of tokens sent",
          "from": "the address sending tokens",
          "toDomain": "the domain of the chain the tokens are being sent to",
          "toHook": "True if sent to a hook, on the remote chain, false        otherwise",
          "toId": "the bytes32 address of the recipient of the tokens",
          "token": "the address of the token contract"
        }
      },
      "SequencerAdded(address,address)": {
        "params": {
          "caller": "- The account that called the function",
          "sequencer": "- The sequencer address to be added or removed"
        }
      },
      "SequencerRemoved(address,address)": {
        "params": {
          "caller": "- The account that called the function",
          "sequencer": "- The sequencer address to be added or removed"
        }
      },
      "SlippageUpdated(bytes32,uint256)": {
        "params": {
          "slippage": "- The updated slippage boundary",
          "transferId": "- The unique identifier of the crosschain transaction"
        }
      },
      "TransferRelayerFeesUpdated(bytes32,uint256,address)": {
        "params": {
          "caller": "- The account that called the function",
          "relayerFee": "- The updated amount of relayer fee in native asset",
          "transferId": "- The unique identifier of the crosschain transaction"
        }
      },
      "XCalled(bytes32,uint256,bytes32,(uint32,uint32,uint32,address,address,bool,bytes,uint256,address,uint256,uint256,uint256,bytes32),address)": {
        "params": {
          "local": "- The address of the local asset (i.e. bridged token) used in the transfer.",
          "messageHash": "- The hash of the message bytes (containing all transfer info) that were bridged.",
          "nonce": "- The bridge nonce of the transfer on the origin domain.",
          "params": "- The `CallParams` provided to the function.",
          "transferId": "- The unique identifier of the crosschain transfer."
        }
      }
    },
    "kind": "dev",
    "methods": {
      "addSequencer(address)": {
        "params": {
          "_sequencer": "- The sequencer address to add."
        }
      },
      "bumpTransfer(bytes32)": {
        "params": {
          "_transferId": "- The unique identifier of the crosschain transaction"
        }
      },
      "enrollCustom(uint32,bytes32,address)": {
        "params": {
          "_custom": "the address of the custom implementation to use.",
          "_domain": "the domain of the canonical Token to enroll",
          "_id": "the bytes32 ID of the canonical of the Token to enroll"
        }
      },
      "enrollRemoteRouter(uint32,bytes32)": {
        "params": {
          "_domain": "The domain of the remote xApp Router",
          "_router": "The address of the remote xApp Router"
        }
      },
      "execute(((uint32,uint32,uint32,address,address,bool,bytes,uint256,address,uint256,uint256,uint256,bytes32),address[],bytes[],address,bytes))": {
        "details": "Can be called before or after `handle` [reconcile] is called (regarding the same transfer), depending on whether the fast liquidity route (i.e. funds provided by routers) is being used for this transfer. As a result, executed calldata (including properties like `originSender`) may or may not be verified depending on whether the reconcile has been completed (i.e. the optimistic confirmation period has elapsed).",
        "params": {
          "_args": "- ExecuteArgs arguments."
        },
        "returns": {
          "_0": "bytes32 - The transfer ID of the crosschain transfer. Should match the xcall's transfer ID in order for reconciliation to occur."
        }
      },
      "forceUpdateSlippage((uint32,uint32,uint32,address,address,bool,bytes,uint256,address,uint256,uint256,uint256,bytes32),uint256)": {
        "params": {
          "_params": "CallParams associated with the transfer",
          "_slippage": "The updated slippage"
        }
      },
      "removeSequencer(address)": {
        "params": {
          "_sequencer": "- The sequencer address to remove."
        }
      },
      "setXAppConnectionManager(address)": {
        "params": {
          "_xAppConnectionManager": "The address of the xAppConnectionManager contract"
        }
      }
    },
    "version": 1
  },
  "userdoc": {
    "events": {
      "AavePortalMintUnbacked(bytes32,address,address,uint256)": {
        "notice": "Emitted when a router used Aave Portal liquidity for fast transfer"
      },
      "Executed(bytes32,address,address,((uint32,uint32,uint32,address,address,bool,bytes,uint256,address,uint256,uint256,uint256,bytes32),address[],bytes[],address,bytes),address,uint256,address)": {
        "notice": "Emitted when `execute` is called on the destination domain of a transfer."
      },
      "ExecutorUpdated(address,address,address)": {
        "notice": "Emitted when the executor variable is updated"
      },
      "ExternalCalldataExecuted(bytes32,bool,bytes)": {
        "notice": "Emitted when a transfer has its external data executed"
      },
      "RemoteAdded(uint32,address,address)": {
        "notice": "Emitted when a new remote instance is added"
      },
      "Send(address,address,uint32,bytes32,uint256,bool)": {
        "notice": "emitted when tokens are sent from this domain to another domain"
      },
      "SequencerAdded(address,address)": {
        "notice": "Emitted when a sequencer is added or removed from whitelists"
      },
      "SequencerRemoved(address,address)": {
        "notice": "Emitted when a sequencer is added or removed from whitelists"
      },
      "SlippageUpdated(bytes32,uint256)": {
        "notice": "Emitted when `forceUpdateSlippage` is called by an user on the destination domain"
      },
      "TransferRelayerFeesUpdated(bytes32,uint256,address)": {
        "notice": "Emitted when `bumpTransfer` is called by an user on the origin domain"
      },
      "XCalled(bytes32,uint256,bytes32,(uint32,uint32,uint32,address,address,bool,bytes,uint256,address,uint256,uint256,uint256,bytes32),address)": {
        "notice": "Emitted when `xcall` is called on the origin domain of a transfer."
      }
    },
    "kind": "user",
    "methods": {
      "addSequencer(address)": {
        "notice": "Used to add an approved sequencer to the whitelist."
      },
      "bumpTransfer(bytes32)": {
        "notice": "Anyone can call this function on the origin domain to increase the relayer fee for a transfer."
      },
      "enrollCustom(uint32,bytes32,address)": {
        "notice": "Enroll a custom token. This allows projects to work with         governance to specify a custom representation."
      },
      "enrollRemoteRouter(uint32,bytes32)": {
        "notice": "Register the address of a Router contract for the same xApp on a remote chain"
      },
      "execute(((uint32,uint32,uint32,address,address,bool,bytes,uint256,address,uint256,uint256,uint256,bytes32),address[],bytes[],address,bytes))": {
        "notice": "Called on a destination domain to disburse correct assets to end recipient and execute any included calldata."
      },
      "forceUpdateSlippage((uint32,uint32,uint32,address,address,bool,bytes,uint256,address,uint256,uint256,uint256,bytes32),uint256)": {
        "notice": "Allows a user-specified account to update the slippage they are willing to take on destination transfers."
      },
      "removeSequencer(address)": {
        "notice": "Used to remove an approved sequencer from the whitelist."
      },
      "setXAppConnectionManager(address)": {
        "notice": "Modify the contract the xApp uses to validate Replica contracts"
      }
    },
    "version": 1
  },
  "storageLayout": {
    "storage": [
      {
        "astId": 7220,
        "contract": "contracts/core/connext/facets/BridgeFacet.sol:BridgeFacet",
        "label": "s",
        "offset": 0,
        "slot": "0",
        "type": "t_struct(AppStorage)21277_storage"
      }
    ],
    "types": {
      "t_address": {
        "encoding": "inplace",
        "label": "address",
        "numberOfBytes": "20"
      },
      "t_array(t_address)dyn_storage": {
        "base": "t_address",
        "encoding": "dynamic_array",
        "label": "address[]",
        "numberOfBytes": "32"
      },
      "t_array(t_contract(IERC20)4344)dyn_storage": {
        "base": "t_contract(IERC20)4344",
        "encoding": "dynamic_array",
        "label": "contract IERC20[]",
        "numberOfBytes": "32"
      },
      "t_array(t_uint256)dyn_storage": {
        "base": "t_uint256",
        "encoding": "dynamic_array",
        "label": "uint256[]",
        "numberOfBytes": "32"
      },
      "t_bool": {
        "encoding": "inplace",
        "label": "bool",
        "numberOfBytes": "1"
      },
      "t_bytes32": {
        "encoding": "inplace",
        "label": "bytes32",
        "numberOfBytes": "32"
      },
      "t_contract(IBridgeRouter)17407": {
        "encoding": "inplace",
        "label": "contract IBridgeRouter",
        "numberOfBytes": "20"
      },
      "t_contract(IConnectorManager)35724": {
        "encoding": "inplace",
        "label": "contract IConnectorManager",
        "numberOfBytes": "20"
      },
      "t_contract(IERC20)4344": {
        "encoding": "inplace",
        "label": "contract IERC20",
        "numberOfBytes": "20"
      },
      "t_contract(IStableSwap)18890": {
        "encoding": "inplace",
        "label": "contract IStableSwap",
        "numberOfBytes": "20"
      },
      "t_contract(ITokenRegistry)18957": {
        "encoding": "inplace",
        "label": "contract ITokenRegistry",
        "numberOfBytes": "20"
      },
      "t_contract(LPToken)15012": {
        "encoding": "inplace",
        "label": "contract LPToken",
        "numberOfBytes": "20"
      },
      "t_contract(RelayerFeeRouter)29752": {
        "encoding": "inplace",
        "label": "contract RelayerFeeRouter",
        "numberOfBytes": "20"
      },
      "t_mapping(t_address,t_address)": {
        "encoding": "mapping",
        "key": "t_address",
        "label": "mapping(address => address)",
        "numberOfBytes": "32",
        "value": "t_address"
      },
      "t_mapping(t_address,t_bool)": {
        "encoding": "mapping",
        "key": "t_address",
        "label": "mapping(address => bool)",
        "numberOfBytes": "32",
        "value": "t_bool"
      },
      "t_mapping(t_address,t_mapping(t_address,t_uint256))": {
        "encoding": "mapping",
        "key": "t_address",
        "label": "mapping(address => mapping(address => uint256))",
        "numberOfBytes": "32",
        "value": "t_mapping(t_address,t_uint256)"
      },
      "t_mapping(t_address,t_struct(TokenId)21059_storage)": {
        "encoding": "mapping",
        "key": "t_address",
        "label": "mapping(address => struct TokenId)",
        "numberOfBytes": "32",
        "value": "t_struct(TokenId)21059_storage"
      },
      "t_mapping(t_address,t_uint256)": {
        "encoding": "mapping",
        "key": "t_address",
        "label": "mapping(address => uint256)",
        "numberOfBytes": "32",
        "value": "t_uint256"
      },
      "t_mapping(t_address,t_uint8)": {
        "encoding": "mapping",
        "key": "t_address",
        "label": "mapping(address => uint8)",
        "numberOfBytes": "32",
        "value": "t_uint8"
      },
      "t_mapping(t_bytes32,t_address)": {
        "encoding": "mapping",
        "key": "t_bytes32",
        "label": "mapping(bytes32 => address)",
        "numberOfBytes": "32",
        "value": "t_address"
      },
      "t_mapping(t_bytes32,t_array(t_address)dyn_storage)": {
        "encoding": "mapping",
        "key": "t_bytes32",
        "label": "mapping(bytes32 => address[])",
        "numberOfBytes": "32",
        "value": "t_array(t_address)dyn_storage"
      },
      "t_mapping(t_bytes32,t_bool)": {
        "encoding": "mapping",
        "key": "t_bytes32",
        "label": "mapping(bytes32 => bool)",
        "numberOfBytes": "32",
        "value": "t_bool"
      },
      "t_mapping(t_bytes32,t_contract(IStableSwap)18890)": {
        "encoding": "mapping",
        "key": "t_bytes32",
        "label": "mapping(bytes32 => contract IStableSwap)",
        "numberOfBytes": "32",
        "value": "t_contract(IStableSwap)18890"
      },
      "t_mapping(t_bytes32,t_mapping(t_address,t_uint8))": {
        "encoding": "mapping",
        "key": "t_bytes32",
        "label": "mapping(bytes32 => mapping(address => uint8))",
        "numberOfBytes": "32",
        "value": "t_mapping(t_address,t_uint8)"
      },
      "t_mapping(t_bytes32,t_struct(Swap)22462_storage)": {
        "encoding": "mapping",
        "key": "t_bytes32",
        "label": "mapping(bytes32 => struct SwapUtils.Swap)",
        "numberOfBytes": "32",
        "value": "t_struct(Swap)22462_storage"
      },
      "t_mapping(t_bytes32,t_uint256)": {
        "encoding": "mapping",
        "key": "t_bytes32",
        "label": "mapping(bytes32 => uint256)",
        "numberOfBytes": "32",
        "value": "t_uint256"
      },
      "t_mapping(t_uint32,t_bytes32)": {
        "encoding": "mapping",
        "key": "t_uint32",
        "label": "mapping(uint32 => bytes32)",
        "numberOfBytes": "32",
        "value": "t_bytes32"
      },
      "t_struct(AppStorage)21277_storage": {
        "encoding": "inplace",
        "label": "struct AppStorage",
        "members": [
          {
            "astId": 21127,
            "contract": "contracts/core/connext/facets/BridgeFacet.sol:BridgeFacet",
            "label": "initialized",
            "offset": 0,
            "slot": "0",
            "type": "t_bool"
          },
          {
            "astId": 21129,
            "contract": "contracts/core/connext/facets/BridgeFacet.sol:BridgeFacet",
            "label": "LIQUIDITY_FEE_NUMERATOR",
            "offset": 0,
            "slot": "1",
            "type": "t_uint256"
          },
          {
            "astId": 21133,
            "contract": "contracts/core/connext/facets/BridgeFacet.sol:BridgeFacet",
            "label": "relayerFeeRouter",
            "offset": 0,
            "slot": "2",
            "type": "t_contract(RelayerFeeRouter)29752"
          },
          {
            "astId": 21136,
            "contract": "contracts/core/connext/facets/BridgeFacet.sol:BridgeFacet",
            "label": "nonce",
            "offset": 0,
            "slot": "3",
            "type": "t_uint256"
          },
          {
            "astId": 21139,
            "contract": "contracts/core/connext/facets/BridgeFacet.sol:BridgeFacet",
            "label": "domain",
            "offset": 0,
            "slot": "4",
            "type": "t_uint32"
          },
          {
            "astId": 21143,
            "contract": "contracts/core/connext/facets/BridgeFacet.sol:BridgeFacet",
            "label": "tokenRegistry",
            "offset": 4,
            "slot": "4",
            "type": "t_contract(ITokenRegistry)18957"
          },
          {
            "astId": 21149,
            "contract": "contracts/core/connext/facets/BridgeFacet.sol:BridgeFacet",
            "label": "adoptedToLocalPools",
            "offset": 0,
            "slot": "5",
            "type": "t_mapping(t_bytes32,t_contract(IStableSwap)18890)"
          },
          {
            "astId": 21154,
            "contract": "contracts/core/connext/facets/BridgeFacet.sol:BridgeFacet",
            "label": "approvedAssets",
            "offset": 0,
            "slot": "6",
            "type": "t_mapping(t_bytes32,t_bool)"
          },
          {
            "astId": 21160,
            "contract": "contracts/core/connext/facets/BridgeFacet.sol:BridgeFacet",
            "label": "adoptedToCanonical",
            "offset": 0,
            "slot": "7",
            "type": "t_mapping(t_address,t_struct(TokenId)21059_storage)"
          },
          {
            "astId": 21165,
            "contract": "contracts/core/connext/facets/BridgeFacet.sol:BridgeFacet",
            "label": "canonicalToAdopted",
            "offset": 0,
            "slot": "8",
            "type": "t_mapping(t_bytes32,t_address)"
          },
          {
            "astId": 21170,
            "contract": "contracts/core/connext/facets/BridgeFacet.sol:BridgeFacet",
            "label": "reconciledTransfers",
            "offset": 0,
            "slot": "9",
            "type": "t_mapping(t_bytes32,t_bool)"
          },
          {
            "astId": 21176,
            "contract": "contracts/core/connext/facets/BridgeFacet.sol:BridgeFacet",
            "label": "routedTransfers",
            "offset": 0,
            "slot": "10",
            "type": "t_mapping(t_bytes32,t_array(t_address)dyn_storage)"
          },
          {
            "astId": 21183,
            "contract": "contracts/core/connext/facets/BridgeFacet.sol:BridgeFacet",
            "label": "routerBalances",
            "offset": 0,
            "slot": "11",
            "type": "t_mapping(t_address,t_mapping(t_address,t_uint256))"
          },
          {
            "astId": 21188,
            "contract": "contracts/core/connext/facets/BridgeFacet.sol:BridgeFacet",
            "label": "approvedRelayers",
            "offset": 0,
            "slot": "12",
            "type": "t_mapping(t_address,t_bool)"
          },
          {
            "astId": 21193,
            "contract": "contracts/core/connext/facets/BridgeFacet.sol:BridgeFacet",
            "label": "relayerFees",
            "offset": 0,
            "slot": "13",
            "type": "t_mapping(t_bytes32,t_uint256)"
          },
          {
            "astId": 21198,
            "contract": "contracts/core/connext/facets/BridgeFacet.sol:BridgeFacet",
            "label": "transferRelayer",
            "offset": 0,
            "slot": "14",
            "type": "t_mapping(t_bytes32,t_address)"
          },
          {
            "astId": 21201,
            "contract": "contracts/core/connext/facets/BridgeFacet.sol:BridgeFacet",
            "label": "maxRoutersPerTransfer",
            "offset": 0,
            "slot": "15",
            "type": "t_uint256"
          },
          {
            "astId": 21205,
            "contract": "contracts/core/connext/facets/BridgeFacet.sol:BridgeFacet",
            "label": "bridgeRouter",
            "offset": 0,
            "slot": "16",
            "type": "t_contract(IBridgeRouter)17407"
          },
          {
            "astId": 21210,
            "contract": "contracts/core/connext/facets/BridgeFacet.sol:BridgeFacet",
            "label": "slippage",
            "offset": 0,
            "slot": "17",
            "type": "t_mapping(t_bytes32,t_uint256)"
          },
          {
            "astId": 21215,
            "contract": "contracts/core/connext/facets/BridgeFacet.sol:BridgeFacet",
            "label": "remotes",
            "offset": 0,
            "slot": "18",
            "type": "t_mapping(t_uint32,t_bytes32)"
          },
          {
            "astId": 21217,
            "contract": "contracts/core/connext/facets/BridgeFacet.sol:BridgeFacet",
            "label": "_proposed",
            "offset": 0,
            "slot": "19",
            "type": "t_address"
          },
          {
            "astId": 21219,
            "contract": "contracts/core/connext/facets/BridgeFacet.sol:BridgeFacet",
            "label": "_proposedOwnershipTimestamp",
            "offset": 0,
            "slot": "20",
            "type": "t_uint256"
          },
          {
            "astId": 21221,
            "contract": "contracts/core/connext/facets/BridgeFacet.sol:BridgeFacet",
            "label": "_routerWhitelistRemoved",
            "offset": 0,
            "slot": "21",
            "type": "t_bool"
          },
          {
            "astId": 21223,
            "contract": "contracts/core/connext/facets/BridgeFacet.sol:BridgeFacet",
            "label": "_routerWhitelistTimestamp",
            "offset": 0,
            "slot": "22",
            "type": "t_uint256"
          },
          {
            "astId": 21225,
            "contract": "contracts/core/connext/facets/BridgeFacet.sol:BridgeFacet",
            "label": "_assetWhitelistRemoved",
            "offset": 0,
            "slot": "23",
            "type": "t_bool"
          },
          {
            "astId": 21227,
            "contract": "contracts/core/connext/facets/BridgeFacet.sol:BridgeFacet",
            "label": "_assetWhitelistTimestamp",
            "offset": 0,
            "slot": "24",
            "type": "t_uint256"
          },
          {
            "astId": 21230,
            "contract": "contracts/core/connext/facets/BridgeFacet.sol:BridgeFacet",
            "label": "routerPermissionInfo",
            "offset": 0,
            "slot": "25",
            "type": "t_struct(RouterPermissionsManagerInfo)21125_storage"
          },
          {
            "astId": 21232,
            "contract": "contracts/core/connext/facets/BridgeFacet.sol:BridgeFacet",
            "label": "_status",
            "offset": 0,
            "slot": "31",
            "type": "t_uint256"
          },
          {
            "astId": 21238,
            "contract": "contracts/core/connext/facets/BridgeFacet.sol:BridgeFacet",
            "label": "swapStorages",
            "offset": 0,
            "slot": "32",
            "type": "t_mapping(t_bytes32,t_struct(Swap)22462_storage)"
          },
          {
            "astId": 21245,
            "contract": "contracts/core/connext/facets/BridgeFacet.sol:BridgeFacet",
            "label": "tokenIndexes",
            "offset": 0,
            "slot": "33",
            "type": "t_mapping(t_bytes32,t_mapping(t_address,t_uint8))"
          },
          {
            "astId": 21248,
            "contract": "contracts/core/connext/facets/BridgeFacet.sol:BridgeFacet",
            "label": "_paused",
            "offset": 0,
            "slot": "34",
            "type": "t_bool"
          },
          {
            "astId": 21251,
            "contract": "contracts/core/connext/facets/BridgeFacet.sol:BridgeFacet",
            "label": "aavePool",
            "offset": 1,
            "slot": "34",
            "type": "t_address"
          },
          {
            "astId": 21254,
            "contract": "contracts/core/connext/facets/BridgeFacet.sol:BridgeFacet",
            "label": "aavePortalFeeNumerator",
            "offset": 0,
            "slot": "35",
            "type": "t_uint256"
          },
          {
            "astId": 21259,
            "contract": "contracts/core/connext/facets/BridgeFacet.sol:BridgeFacet",
            "label": "portalDebt",
            "offset": 0,
            "slot": "36",
            "type": "t_mapping(t_bytes32,t_uint256)"
          },
          {
            "astId": 21264,
            "contract": "contracts/core/connext/facets/BridgeFacet.sol:BridgeFacet",
            "label": "portalFeeDebt",
            "offset": 0,
            "slot": "37",
            "type": "t_mapping(t_bytes32,t_uint256)"
          },
          {
            "astId": 21269,
            "contract": "contracts/core/connext/facets/BridgeFacet.sol:BridgeFacet",
            "label": "approvedSequencers",
            "offset": 0,
            "slot": "38",
            "type": "t_mapping(t_address,t_bool)"
          },
          {
            "astId": 21273,
            "contract": "contracts/core/connext/facets/BridgeFacet.sol:BridgeFacet",
            "label": "xAppConnectionManager",
            "offset": 0,
            "slot": "39",
            "type": "t_contract(IConnectorManager)35724"
          },
          {
            "astId": 21276,
            "contract": "contracts/core/connext/facets/BridgeFacet.sol:BridgeFacet",
            "label": "_ownershipDelay",
            "offset": 0,
            "slot": "40",
            "type": "t_uint256"
          }
        ],
        "numberOfBytes": "1312"
      },
      "t_struct(RouterPermissionsManagerInfo)21125_storage": {
        "encoding": "inplace",
        "label": "struct RouterPermissionsManagerInfo",
        "members": [
          {
            "astId": 21104,
            "contract": "contracts/core/connext/facets/BridgeFacet.sol:BridgeFacet",
            "label": "approvedRouters",
            "offset": 0,
            "slot": "0",
            "type": "t_mapping(t_address,t_bool)"
          },
          {
            "astId": 21108,
            "contract": "contracts/core/connext/facets/BridgeFacet.sol:BridgeFacet",
            "label": "approvedForPortalRouters",
            "offset": 0,
            "slot": "1",
            "type": "t_mapping(t_address,t_bool)"
          },
          {
            "astId": 21112,
            "contract": "contracts/core/connext/facets/BridgeFacet.sol:BridgeFacet",
            "label": "routerRecipients",
            "offset": 0,
            "slot": "2",
            "type": "t_mapping(t_address,t_address)"
          },
          {
            "astId": 21116,
            "contract": "contracts/core/connext/facets/BridgeFacet.sol:BridgeFacet",
            "label": "routerOwners",
            "offset": 0,
            "slot": "3",
            "type": "t_mapping(t_address,t_address)"
          },
          {
            "astId": 21120,
            "contract": "contracts/core/connext/facets/BridgeFacet.sol:BridgeFacet",
            "label": "proposedRouterOwners",
            "offset": 0,
            "slot": "4",
            "type": "t_mapping(t_address,t_address)"
          },
          {
            "astId": 21124,
            "contract": "contracts/core/connext/facets/BridgeFacet.sol:BridgeFacet",
            "label": "proposedRouterTimestamp",
            "offset": 0,
            "slot": "5",
            "type": "t_mapping(t_address,t_uint256)"
          }
        ],
        "numberOfBytes": "192"
      },
      "t_struct(Swap)22462_storage": {
        "encoding": "inplace",
        "label": "struct SwapUtils.Swap",
        "members": [
          {
            "astId": 22433,
            "contract": "contracts/core/connext/facets/BridgeFacet.sol:BridgeFacet",
            "label": "key",
            "offset": 0,
            "slot": "0",
            "type": "t_bytes32"
          },
          {
            "astId": 22435,
            "contract": "contracts/core/connext/facets/BridgeFacet.sol:BridgeFacet",
            "label": "initialA",
            "offset": 0,
            "slot": "1",
            "type": "t_uint256"
          },
          {
            "astId": 22437,
            "contract": "contracts/core/connext/facets/BridgeFacet.sol:BridgeFacet",
            "label": "futureA",
            "offset": 0,
            "slot": "2",
            "type": "t_uint256"
          },
          {
            "astId": 22439,
            "contract": "contracts/core/connext/facets/BridgeFacet.sol:BridgeFacet",
            "label": "initialATime",
            "offset": 0,
            "slot": "3",
            "type": "t_uint256"
          },
          {
            "astId": 22441,
            "contract": "contracts/core/connext/facets/BridgeFacet.sol:BridgeFacet",
            "label": "futureATime",
            "offset": 0,
            "slot": "4",
            "type": "t_uint256"
          },
          {
            "astId": 22443,
            "contract": "contracts/core/connext/facets/BridgeFacet.sol:BridgeFacet",
            "label": "swapFee",
            "offset": 0,
            "slot": "5",
            "type": "t_uint256"
          },
          {
            "astId": 22445,
            "contract": "contracts/core/connext/facets/BridgeFacet.sol:BridgeFacet",
            "label": "adminFee",
            "offset": 0,
            "slot": "6",
            "type": "t_uint256"
          },
          {
            "astId": 22448,
            "contract": "contracts/core/connext/facets/BridgeFacet.sol:BridgeFacet",
            "label": "lpToken",
            "offset": 0,
            "slot": "7",
            "type": "t_contract(LPToken)15012"
          },
          {
            "astId": 22452,
            "contract": "contracts/core/connext/facets/BridgeFacet.sol:BridgeFacet",
            "label": "pooledTokens",
            "offset": 0,
            "slot": "8",
            "type": "t_array(t_contract(IERC20)4344)dyn_storage"
          },
          {
            "astId": 22455,
            "contract": "contracts/core/connext/facets/BridgeFacet.sol:BridgeFacet",
            "label": "tokenPrecisionMultipliers",
            "offset": 0,
            "slot": "9",
            "type": "t_array(t_uint256)dyn_storage"
          },
          {
            "astId": 22458,
            "contract": "contracts/core/connext/facets/BridgeFacet.sol:BridgeFacet",
            "label": "balances",
            "offset": 0,
            "slot": "10",
            "type": "t_array(t_uint256)dyn_storage"
          },
          {
            "astId": 22461,
            "contract": "contracts/core/connext/facets/BridgeFacet.sol:BridgeFacet",
            "label": "adminFees",
            "offset": 0,
            "slot": "11",
            "type": "t_array(t_uint256)dyn_storage"
          }
        ],
        "numberOfBytes": "384"
      },
      "t_struct(TokenId)21059_storage": {
        "encoding": "inplace",
        "label": "struct TokenId",
        "members": [
          {
            "astId": 21056,
            "contract": "contracts/core/connext/facets/BridgeFacet.sol:BridgeFacet",
            "label": "domain",
            "offset": 0,
            "slot": "0",
            "type": "t_uint32"
          },
          {
            "astId": 21058,
            "contract": "contracts/core/connext/facets/BridgeFacet.sol:BridgeFacet",
            "label": "id",
            "offset": 0,
            "slot": "1",
            "type": "t_bytes32"
          }
        ],
        "numberOfBytes": "64"
      },
      "t_uint256": {
        "encoding": "inplace",
        "label": "uint256",
        "numberOfBytes": "32"
      },
      "t_uint32": {
        "encoding": "inplace",
        "label": "uint32",
        "numberOfBytes": "4"
      },
      "t_uint8": {
        "encoding": "inplace",
        "label": "uint8",
        "numberOfBytes": "1"
      }
    }
  }
}