{
  "address": "0xe2D1dFeBbd79C6Dd94Fdd9bd090e4873621C79d4",
  "abi": [
    {
      "inputs": [],
      "name": "ProposedOwnable__acceptProposedOwner_delayNotElapsed",
      "type": "error"
    },
    {
      "inputs": [],
      "name": "ProposedOwnable__onlyOwner_notOwner",
      "type": "error"
    },
    {
      "inputs": [],
      "name": "ProposedOwnable__onlyProposed_notProposedOwner",
      "type": "error"
    },
    {
      "inputs": [],
      "name": "ProposedOwnable__proposeNewOwner_invalidProposal",
      "type": "error"
    },
    {
      "inputs": [],
      "name": "ProposedOwnable__proposeNewOwner_noOwnershipChange",
      "type": "error"
    },
    {
      "inputs": [],
      "name": "ProposedOwnable__renounceOwnership_delayNotElapsed",
      "type": "error"
    },
    {
      "inputs": [],
      "name": "ProposedOwnable__renounceOwnership_invalidProposal",
      "type": "error"
    },
    {
      "inputs": [],
      "name": "ProposedOwnable__renounceOwnership_noProposal",
      "type": "error"
    },
    {
      "anonymous": false,
      "inputs": [
        {
          "indexed": false,
          "internalType": "uint8",
          "name": "version",
          "type": "uint8"
        }
      ],
      "name": "Initialized",
      "type": "event"
    },
    {
      "anonymous": false,
      "inputs": [
        {
          "indexed": true,
          "internalType": "address",
          "name": "proposedOwner",
          "type": "address"
        }
      ],
      "name": "OwnershipProposed",
      "type": "event"
    },
    {
      "anonymous": false,
      "inputs": [
        {
          "indexed": true,
          "internalType": "address",
          "name": "previousOwner",
          "type": "address"
        },
        {
          "indexed": true,
          "internalType": "address",
          "name": "newOwner",
          "type": "address"
        }
      ],
      "name": "OwnershipTransferred",
      "type": "event"
    },
    {
      "anonymous": false,
      "inputs": [
        {
          "indexed": true,
          "internalType": "uint64",
          "name": "originAndNonce",
          "type": "uint64"
        },
        {
          "indexed": true,
          "internalType": "address",
          "name": "token",
          "type": "address"
        },
        {
          "indexed": true,
          "internalType": "address",
          "name": "recipient",
          "type": "address"
        },
        {
          "indexed": false,
          "internalType": "address",
          "name": "liquidityProvider",
          "type": "address"
        },
        {
          "indexed": false,
          "internalType": "uint256",
          "name": "amount",
          "type": "uint256"
        }
      ],
      "name": "Receive",
      "type": "event"
    },
    {
      "anonymous": false,
      "inputs": [
        {
          "indexed": true,
          "internalType": "address",
          "name": "token",
          "type": "address"
        },
        {
          "indexed": true,
          "internalType": "address",
          "name": "from",
          "type": "address"
        },
        {
          "indexed": true,
          "internalType": "uint32",
          "name": "toDomain",
          "type": "uint32"
        },
        {
          "indexed": false,
          "internalType": "bytes32",
          "name": "toId",
          "type": "bytes32"
        },
        {
          "indexed": false,
          "internalType": "uint256",
          "name": "amount",
          "type": "uint256"
        },
        {
          "indexed": false,
          "internalType": "bool",
          "name": "toHook",
          "type": "bool"
        }
      ],
      "name": "Send",
      "type": "event"
    },
    {
      "inputs": [],
      "name": "DUST_AMOUNT",
      "outputs": [
        {
          "internalType": "uint256",
          "name": "",
          "type": "uint256"
        }
      ],
      "stateMutability": "view",
      "type": "function"
    },
    {
      "inputs": [],
      "name": "acceptProposedOwner",
      "outputs": [],
      "stateMutability": "nonpayable",
      "type": "function"
    },
    {
      "inputs": [],
      "name": "delay",
      "outputs": [
        {
          "internalType": "uint256",
          "name": "",
          "type": "uint256"
        }
      ],
      "stateMutability": "view",
      "type": "function"
    },
    {
      "inputs": [
        {
          "internalType": "uint32",
          "name": "_domain",
          "type": "uint32"
        },
        {
          "internalType": "bytes32",
          "name": "_id",
          "type": "bytes32"
        },
        {
          "internalType": "address",
          "name": "_custom",
          "type": "address"
        }
      ],
      "name": "enrollCustom",
      "outputs": [],
      "stateMutability": "nonpayable",
      "type": "function"
    },
    {
      "inputs": [
        {
          "internalType": "uint32",
          "name": "_domain",
          "type": "uint32"
        },
        {
          "internalType": "bytes32",
          "name": "_router",
          "type": "bytes32"
        }
      ],
      "name": "enrollRemoteRouter",
      "outputs": [],
      "stateMutability": "nonpayable",
      "type": "function"
    },
    {
      "inputs": [
        {
          "internalType": "uint32",
          "name": "_origin",
          "type": "uint32"
        },
        {
          "internalType": "uint32",
          "name": "_nonce",
          "type": "uint32"
        },
        {
          "internalType": "bytes32",
          "name": "_sender",
          "type": "bytes32"
        },
        {
          "internalType": "bytes",
          "name": "_message",
          "type": "bytes"
        }
      ],
      "name": "handle",
      "outputs": [],
      "stateMutability": "nonpayable",
      "type": "function"
    },
    {
      "inputs": [
        {
          "internalType": "address",
          "name": "_tokenRegistry",
          "type": "address"
        },
        {
          "internalType": "address",
          "name": "_xAppConnectionManager",
          "type": "address"
        }
      ],
      "name": "initialize",
      "outputs": [],
      "stateMutability": "nonpayable",
      "type": "function"
    },
    {
      "inputs": [
        {
          "internalType": "bytes32",
          "name": "",
          "type": "bytes32"
        }
      ],
      "name": "liquidityProvider",
      "outputs": [
        {
          "internalType": "address",
          "name": "",
          "type": "address"
        }
      ],
      "stateMutability": "view",
      "type": "function"
    },
    {
      "inputs": [
        {
          "internalType": "address",
          "name": "_oldRepr",
          "type": "address"
        }
      ],
      "name": "migrate",
      "outputs": [],
      "stateMutability": "nonpayable",
      "type": "function"
    },
    {
      "inputs": [],
      "name": "owner",
      "outputs": [
        {
          "internalType": "address",
          "name": "",
          "type": "address"
        }
      ],
      "stateMutability": "view",
      "type": "function"
    },
    {
      "inputs": [
        {
          "internalType": "address",
          "name": "newlyProposed",
          "type": "address"
        }
      ],
      "name": "proposeNewOwner",
      "outputs": [],
      "stateMutability": "nonpayable",
      "type": "function"
    },
    {
      "inputs": [],
      "name": "proposed",
      "outputs": [
        {
          "internalType": "address",
          "name": "",
          "type": "address"
        }
      ],
      "stateMutability": "view",
      "type": "function"
    },
    {
      "inputs": [],
      "name": "proposedTimestamp",
      "outputs": [
        {
          "internalType": "uint256",
          "name": "",
          "type": "uint256"
        }
      ],
      "stateMutability": "view",
      "type": "function"
    },
    {
      "inputs": [
        {
          "internalType": "uint32",
          "name": "",
          "type": "uint32"
        }
      ],
      "name": "remotes",
      "outputs": [
        {
          "internalType": "bytes32",
          "name": "",
          "type": "bytes32"
        }
      ],
      "stateMutability": "view",
      "type": "function"
    },
    {
      "inputs": [],
      "name": "renounceOwnership",
      "outputs": [],
      "stateMutability": "nonpayable",
      "type": "function"
    },
    {
      "inputs": [],
      "name": "renounced",
      "outputs": [
        {
          "internalType": "bool",
          "name": "",
          "type": "bool"
        }
      ],
      "stateMutability": "view",
      "type": "function"
    },
    {
      "inputs": [
        {
          "internalType": "address",
          "name": "_token",
          "type": "address"
        },
        {
          "internalType": "uint256",
          "name": "_amount",
          "type": "uint256"
        },
        {
          "internalType": "uint32",
          "name": "_destination",
          "type": "uint32"
        },
        {
          "internalType": "bytes32",
          "name": "_recipient",
          "type": "bytes32"
        },
        {
          "internalType": "bool",
          "name": "",
          "type": "bool"
        }
      ],
      "name": "send",
      "outputs": [],
      "stateMutability": "nonpayable",
      "type": "function"
    },
    {
      "inputs": [
        {
          "internalType": "address",
          "name": "_token",
          "type": "address"
        },
        {
          "internalType": "uint256",
          "name": "_amount",
          "type": "uint256"
        },
        {
          "internalType": "uint32",
          "name": "_destination",
          "type": "uint32"
        },
        {
          "internalType": "bytes32",
          "name": "_remoteHook",
          "type": "bytes32"
        },
        {
          "internalType": "bytes",
          "name": "_extraData",
          "type": "bytes"
        }
      ],
      "name": "sendToHook",
      "outputs": [],
      "stateMutability": "nonpayable",
      "type": "function"
    },
    {
      "inputs": [
        {
          "internalType": "address",
          "name": "_xAppConnectionManager",
          "type": "address"
        }
      ],
      "name": "setXAppConnectionManager",
      "outputs": [],
      "stateMutability": "nonpayable",
      "type": "function"
    },
    {
      "inputs": [],
      "name": "tokenRegistry",
      "outputs": [
        {
          "internalType": "contract ITokenRegistry",
          "name": "",
          "type": "address"
        }
      ],
      "stateMutability": "view",
      "type": "function"
    },
    {
      "inputs": [],
      "name": "xAppConnectionManager",
      "outputs": [
        {
          "internalType": "contract IConnectorManager",
          "name": "",
          "type": "address"
        }
      ],
      "stateMutability": "view",
      "type": "function"
    },
    {
      "stateMutability": "payable",
      "type": "receive"
    }
  ],
  "transactionHash": "0x6dde1c26a5bf4fbece73991be9d09afe41032174a0160ef95363fd7f5dea2494",
  "args": [],
  "numDeployments": 3,
  "solcInputHash": "e987ee6376e4c0e170abbeb6169883ec",
  "bytecode": "0x608060405234801561001057600080fd5b50613296806100206000396000f3fe60806040526004361061012e5760003560e01c806397f641ab116100ab578063b49c53a71161006f578063b49c53a714610345578063bc7dbab314610365578063c5b350df14610385578063ce5494bb1461039a578063d1851c92146103ba578063d232c220146103d857600080fd5b806397f641ab146102aa5780639d23c4c7146102c5578063a9bd1226146102e5578063ab2dc3f514610305578063b1f8100d1461032557600080fd5b8063546d573d116100f2578063546d573d146101f85780636a42b8f81461022e578063715018a61461024457806383bbb806146102595780638da5cb5b1461028657600080fd5b806328b1aea01461013a5780633339df961461015c5780633cf52ffb1461019957806341bdc8b5146101b8578063485cc955146101d857600080fd5b3661013557005b600080fd5b34801561014657600080fd5b5061015a6101553660046129a1565b61040e565b005b34801561016857600080fd5b5060345461017c906001600160a01b031681565b6040516001600160a01b0390911681526020015b60405180910390f35b3480156101a557600080fd5b506002545b604051908152602001610190565b3480156101c457600080fd5b5061015a6101d33660046129e3565b610576565b3480156101e457600080fd5b5061015a6101f3366004612a00565b6105c9565b34801561020457600080fd5b5061017c610213366004612a39565b6099602052600090815260409020546001600160a01b031681565b34801561023a57600080fd5b5062093a806101aa565b34801561025057600080fd5b5061015a6106ba565b34801561026557600080fd5b506101aa610274366004612a52565b60666020526000908152604090205481565b34801561029257600080fd5b506000546201000090046001600160a01b031661017c565b3480156102b657600080fd5b506101aa66d529ae9e86000081565b3480156102d157600080fd5b5060985461017c906001600160a01b031681565b3480156102f157600080fd5b5061015a610300366004612a7d565b6106ed565b34801561031157600080fd5b5061015a610320366004612b4b565b6107ae565b34801561033157600080fd5b5061015a6103403660046129e3565b610901565b34801561035157600080fd5b5061015a610360366004612bfa565b6109b5565b34801561037157600080fd5b5061015a610380366004612c26565b6109ff565b34801561039157600080fd5b5061015a610ac4565b3480156103a657600080fd5b5061015a6103b53660046129e3565b610b34565b3480156103c657600080fd5b506001546001600160a01b031661017c565b3480156103e457600080fd5b506103fe6000546201000090046001600160a01b03161590565b6040519015158152602001610190565b6000546201000090046001600160a01b0316331461043f576040516311a8a1bb60e31b815260040160405180910390fd5b6040516340c10f1960e01b8152306004820152600160248201526001600160a01b038216906340c10f1990604401600060405180830381600087803b15801561048757600080fd5b505af115801561049b573d6000803e3d6000fd5b5050604051632770a7eb60e21b8152306004820152600160248201526001600160a01b0384169250639dc29fac9150604401600060405180830381600087803b1580156104e757600080fd5b505af11580156104fb573d6000803e3d6000fd5b50506098546040516301458d7560e51b815263ffffffff87166004820152602481018690526001600160a01b03858116604483015290911692506328b1aea09150606401600060405180830381600087803b15801561055957600080fd5b505af115801561056d573d6000803e3d6000fd5b50505050505050565b6000546201000090046001600160a01b031633146105a7576040516311a8a1bb60e31b815260040160405180910390fd5b603480546001600160a01b0319166001600160a01b0392909216919091179055565b600054610100900460ff16158080156105e95750600054600160ff909116105b806106035750303b158015610603575060005460ff166001145b6106285760405162461bcd60e51b815260040161061f90612cd0565b60405180910390fd5b6000805460ff19166001179055801561064b576000805461ff0019166101001790555b609880546001600160a01b0319166001600160a01b03851617905561066f82610d2a565b80156106b5576000805461ff0019169055604051600181527f7f26b83ff96e1f2b6a682f133852f6798a09c465da95921460cefb38474024989060200160405180910390a15b505050565b6000546201000090046001600160a01b031633146106eb576040516311a8a1bb60e31b815260040160405180910390fd5b565b816107235760405162461bcd60e51b815260206004820152600660248201526502172656369760d41b604482015260640161061f565b6000806107308787610e10565b915091506000610741858884611162565b905061074e8684836111a0565b6040805186815260208101899052600081830152905163ffffffff88169133916001600160a01b038c16917fa3d219cf126a12be40d7ad1ceef46231c987988dd4e686457b610e1b6b80a4bf919081900360600190a45050505050505050565b6107b73361125c565b6107ee5760405162461bcd60e51b8152602060048201526008602482015267217265706c69636160c01b604482015260640161061f565b83826107fa82826112d1565b6108375760405162461bcd60e51b815260206004820152600e60248201526d10b932b6b7ba32903937baba32b960911b604482015260640161061f565b600061085161084685836112f8565b62ffffff191661131c565b9050600061086462ffffff198316611335565b9050600061087762ffffff19841661136e565b905061088862ffffff1982166113c6565b1561089e57610899898984846113d3565b6108f6565b6108ad62ffffff198216611404565b156108be5761089989898484611411565b60405162461bcd60e51b815260206004820152600d60248201526c10bb30b634b21030b1ba34b7b760991b604482015260640161061f565b505050505050505050565b6000546201000090046001600160a01b03163314610932576040516311a8a1bb60e31b815260040160405180910390fd5b6001546001600160a01b03828116911614801561095757506001600160a01b03811615155b15610975576040516311bc066560e11b815260040160405180910390fd5b6000546001600160a01b038083166201000090920416036109a957604051634a2fb73f60e11b815260040160405180910390fd5b6109b28161154b565b50565b6000546201000090046001600160a01b031633146109e6576040516311a8a1bb60e31b815260040160405180910390fd5b63ffffffff909116600090815260666020526040902055565b600080610a0c8888610e10565b90925090506000610a568689843389898080601f01602080910402602001604051908101604052809392919081815260200183838082843760009201919091525061159992505050565b9050610a638784836111a0565b60408051878152602081018a9052600181830152905163ffffffff89169133916001600160a01b038d16917fa3d219cf126a12be40d7ad1ceef46231c987988dd4e686457b610e1b6b80a4bf919081900360600190a4505050505050505050565b6001546001600160a01b03163314610aef576040516311a7f27160e11b815260040160405180910390fd5b62093a8060025442610b019190612d34565b11610b1f5760405163d39c12bb60e01b815260040160405180910390fd5b6001546106eb906001600160a01b03166115bb565b609854604051630e71e25160e01b81526001600160a01b0383811660048301526000921690630e71e25190602401602060405180830381865afa158015610b7f573d6000803e3d6000fd5b505050506040513d601f19601f82011682018060405250810190610ba39190612d4b565b9050816001600160a01b0316816001600160a01b031603610bf35760405162461bcd60e51b815260206004820152600a60248201526908591a5999995c995b9d60b21b604482015260640161061f565b6040516370a0823160e01b815233600482015282906000906001600160a01b038316906370a0823190602401602060405180830381865afa158015610c3c573d6000803e3d6000fd5b505050506040513d601f19601f82011682018060405250810190610c609190612d68565b604051632770a7eb60e21b8152336004820152602481018290529091506001600160a01b03831690639dc29fac90604401600060405180830381600087803b158015610cab57600080fd5b505af1158015610cbf573d6000803e3d6000fd5b50506040516340c10f1960e01b8152336004820152602481018490526001600160a01b03861692506340c10f1991506044015b600060405180830381600087803b158015610d0c57600080fd5b505af1158015610d20573d6000803e3d6000fd5b5050505050505050565b600054610100900460ff1615808015610d4a5750600054600160ff909116105b80610d645750303b158015610d64575060005460ff166001145b610d805760405162461bcd60e51b815260040161061f90612cd0565b6000805460ff191660011790558015610da3576000805461ff0019166101001790555b603480546001600160a01b0319166001600160a01b038416179055610dc661162b565b8015610e0c576000805461ff0019169055604051600181527f7f26b83ff96e1f2b6a682f133852f6798a09c465da95921460cefb38474024989060200160405180910390a15b5050565b60008060008311610e4b5760405162461bcd60e51b815260206004820152600560248201526408585b5b9d60da1b604482015260640161061f565b60985460405163c86415cb60e01b81526001600160a01b0380871660048301528692169063c86415cb90602401602060405180830381865afa158015610e95573d6000803e3d6000fd5b505050506040513d601f19601f82011682018060405250810190610eb99190612d81565b1561101257610ed36001600160a01b03861633308761165a565b61100b816001600160a01b03166306fdde036040518163ffffffff1660e01b81526004016000604051808303816000875af1158015610f16573d6000803e3d6000fd5b505050506040513d6000823e601f3d908101601f19168201604052610f3e9190810190612dca565b826001600160a01b03166395d89b416040518163ffffffff1660e01b8152600401600060405180830381865afa158015610f7c573d6000803e3d6000fd5b505050506040513d6000823e601f3d908101601f19168201604052610fa49190810190612dca565b836001600160a01b031663313ce5676040518163ffffffff1660e01b8152600401602060405180830381865afa158015610fe2573d6000803e3d6000fd5b505050506040513d601f19601f820116820180604052508101906110069190612e38565b6116cb565b91506110d7565b604051632770a7eb60e21b8152336004820152602481018590526001600160a01b03821690639dc29fac90604401600060405180830381600087803b15801561105a57600080fd5b505af115801561106e573d6000803e3d6000fd5b50505050806001600160a01b0316634815fcb16040518163ffffffff1660e01b8152600401602060405180830381865afa1580156110b0573d6000803e3d6000fd5b505050506040513d601f19601f820116820180604052508101906110d49190612d68565b91505b6098546040516378a9bb4360e11b81526001600160a01b038781166004830152600092839291169063f1537686906024016040805180830381865afa158015611124573d6000803e3d6000fd5b505050506040513d601f19601f820116820180604052508101906111489190612e5b565b915091506111568282611707565b94505050509250929050565b60006111966003808686866040516020016111809493929190612ec4565b60408051601f19818403018152919052906112f8565b90505b9392505050565b60006111ab84611734565b9050603460009054906101000a90046001600160a01b03166001600160a01b0316639fa92f9d6040518163ffffffff1660e01b8152600401602060405180830381865afa158015611200573d6000803e3d6000fd5b505050506040513d601f19601f820116820180604052508101906112249190612d4b565b6001600160a01b031663fa31de01858361123e8787611786565b6040518463ffffffff1660e01b8152600401610cf293929190612f17565b603454604051635190bc5360e01b81526001600160a01b0383811660048301526000921690635190bc5390602401602060405180830381865afa1580156112a7573d6000803e3d6000fd5b505050506040513d601f19601f820116820180604052508101906112cb9190612d81565b92915050565b63ffffffff8216600090815260666020526040812054821480156111995750501515919050565b81516000906020840161131364ffffffffff85168284611855565b95945050505050565b60006112cb61132a8361189c565b62ffffff19166118ce565b600081600261134c815b62ffffff19841690611929565b506113666000602460015b62ffffff198816929190611a02565b949350505050565b600081600261137c8161133f565b5060006113976024601887901c6001600160601b0316612d34565b905060006113a486611a72565b60ff1690506113bc62ffffff19871660248484611a02565b9695505050505050565b60006112cb826003611a87565b60006113e462ffffff198316611ae6565b90506113f38585858585611b06565b506113fd81611d8e565b5050505050565b60006112cb826005611a87565b600061142262ffffff198316611de4565b905060006114338686868686611b06565b905060006302424a7f60e11b8761144f62ffffff198716611df2565b61145e62ffffff198916611e14565b61146d62ffffff198a16611e36565b8661147d62ffffff198b16611e58565b61149a61148f62ffffff198d16611e6d565b62ffffff1916611e9f565b6040516024016114b09796959493929190612f3c565b604051602081830303815290604052906001600160e01b0319166020820180516001600160e01b0383818316178352505050509050826001600160a01b0316816040516114fd9190612f92565b6000604051808303816000865af19150503d806000811461153a576040519150601f19603f3d011682016040523d82523d6000602084013e61153f565b606091505b50505050505050505050565b42600255600180546001600160a01b0319166001600160a01b0383169081179091556040517f6ab4d119f23076e8ad491bc65ce85f017fb0591dce08755ba8591059cc51737a90600090a250565b60006113bc600580888888888860405160200161118096959493929190612fae565b600080546001600160a01b038381166201000081810262010000600160b01b031985161785556002859055600180546001600160a01b031916905560405193049190911692909183917f8be0079c531659141344cd1fd0a4f28419497f9722a3daafe3b4186f6b6457e091a35050565b600054610100900460ff166116525760405162461bcd60e51b815260040161061f90612ff7565b6106eb611ee8565b6040516001600160a01b03808516602483015283166044820152606481018290526116c59085906323b872dd60e01b906084015b60408051601f198184030181529190526020810180516001600160e01b03166001600160e01b031990931692909217909152611f18565b50505050565b6000835184845185856040516020016116e8959493929190613042565b6040516020818303038152906040528051906020012090509392505050565b600061119960016040516001600160e01b031960e087901b16602082015260248101859052604401611180565b63ffffffff8116600090815260666020526040902054806117815760405162461bcd60e51b81526020600482015260076024820152662172656d6f746560c81b604482015260640161061f565b919050565b60608260016117948161133f565b5061179e84611fea565b6117d45760405162461bcd60e51b815260206004820152600760248201526610b0b1ba34b7b760c91b604482015260640161061f565b6040805160028082526060820183526000926020830190803683370190505090508581600081518110611809576118096130a2565b602002602001019062ffffff1916908162ffffff1916815250508481600181518110611837576118376130a2565b62ffffff19909216602092830291909101909101526113bc81612004565b60008061186283856130b8565b9050604051811115611872575060005b806000036118875762ffffff19915050611199565b5050606092831b9190911790911b1760181b90565b60006118a782612059565b156118c4576301000000600160d81b038216600160d91b176112cb565b62ffffff196112cb565b60006118d982612091565b6119255760405162461bcd60e51b815260206004820152601960248201527f56616c696469747920617373657274696f6e206661696c656400000000000000604482015260640161061f565b5090565b600061193583836120ce565b6119fb5760006119546119488560d81c90565b64ffffffffff166120f1565b91505060006119698464ffffffffff166120f1565b6040517f5479706520617373657274696f6e206661696c65642e20476f7420307800000060208201526001600160b01b031960b086811b8216603d8401526c05c408af0e0cac6e8cac84060f609b1b604784015283901b16605482015290925060009150605e0160405160208183030381529060405290508060405162461bcd60e51b815260040161061f91906130d0565b5090919050565b600080611a188660781c6001600160601b031690565b6001600160601b03169050611a2c8661219f565b84611a3787846130b8565b611a4191906130b8565b1115611a545762ffffff19915050611366565b611a5e85826130b8565b90506113bc8364ffffffffff168286611855565b60006112cb62ffffff198316602460016121d8565b6000816006811115611a9b57611a9b612e89565b60ff16611aa784612208565b60ff161480156111995750816006811115611ac457611ac4612e89565b611acd8461221c565b6006811115611ade57611ade612e89565b149392505050565b6000816003611af48161133f565b5061136662ffffff198516600d612237565b6098546000906001600160a01b031663b869d89a611b2962ffffff198716611e14565b611b3862ffffff198816611e36565b6040516001600160e01b031960e085901b16815263ffffffff92909216600483015260248201526044016020604051808303816000875af1158015611b81573d6000803e3d6000fd5b505050506040513d601f19601f82011682018060405250810190611ba59190612d4b565b90506000611bb862ffffff198516611e58565b60985460405163c86415cb60e01b81526001600160a01b03858116600483015292935091169063c86415cb90602401602060405180830381865afa158015611c04573d6000803e3d6000fd5b505050506040513d601f19601f82011682018060405250810190611c289190612d81565b15611c4657611c416001600160a01b0383168483612245565b611d17565b6040516340c10f1960e01b81526001600160a01b038481166004830152602482018390528316906340c10f1990604401600060405180830381600087803b158015611c9057600080fd5b505af1158015611ca4573d6000803e3d6000fd5b50505050816001600160a01b031663cc2ab7c7611cc68662ffffff1916612275565b6040518263ffffffff1660e01b8152600401611ce491815260200190565b600060405180830381600087803b158015611cfe57600080fd5b505af1158015611d12573d6000803e3d6000fd5b505050505b6001600160a01b0380841690831667ffffffff0000000060208a901b1663ffffffff89161760408051600081526020810186905267ffffffffffffffff92909216917f9f9a97db84f39202ca3b409b63f7ccf7d3fd810e176573c7483088b6f181bbbb910160405180910390a45095945050505050565b66d529ae9e860000816001600160a01b031631108015611db5575066d529ae9e8600004710155b156109b2576040516001600160a01b0382169060009066d529ae9e8600009082818181858883f1505050505050565b6000816005611af48161133f565b6000816005611e008161133f565b5061136662ffffff19851660616020612286565b6000816001611e228161133f565b5061136662ffffff198516600060046121d8565b6000816001611e448161133f565b5061136662ffffff19851660046020612286565b60006112cb62ffffff198316602160206121d8565b6000816005611e7b8161133f565b506113666081611e9881601888901c6001600160601b0316612d34565b6006611357565b6060600080611eb78460181c6001600160601b031690565b6001600160601b031690506040519150819250611ed784836020016123e2565b508181016020016040529052919050565b600054610100900460ff16611f0f5760405162461bcd60e51b815260040161061f90612ff7565b6106eb336115bb565b6000611f6d826040518060400160405280602081526020017f5361666545524332303a206c6f772d6c6576656c2063616c6c206661696c6564815250856001600160a01b03166125399092919063ffffffff16565b8051909150156106b55780806020019051810190611f8b9190612d81565b6106b55760405162461bcd60e51b815260206004820152602a60248201527f5361666545524332303a204552433230206f7065726174696f6e20646964206e6044820152691bdd081cdd58d8d9595960b21b606482015260840161061f565b6000611ff5826113c6565b806112cb57506112cb82611404565b60405160609060006120198460208401612548565b905060006120308260181c6001600160601b031690565b6001600160601b031690506000612046836125d8565b9184525082016020016040525092915050565b6000601882901c6001600160601b0316612075606160246130b8565b8114806111995750612089608160246130b8565b111592915050565b600061209d8260d81c90565b64ffffffffff1664ffffffffff036120b757506000919050565b60006120c28361219f565b60405110199392505050565b60008164ffffffffff166120e28460d81c90565b64ffffffffff16149392505050565b600080601f5b600f8160ff1611156121465760006121108260086130e3565b60ff1685901c9050612121816125ee565b61ffff16841793508160ff1660101461213c57601084901b93505b50600019016120f7565b50600f5b60ff8160ff1610156121995760006121638260086130e3565b60ff1685901c9050612174816125ee565b61ffff16831792508160ff1660001461218f57601083901b92505b506000190161214a565b50915091565b60006121b48260181c6001600160601b031690565b6121c78360781c6001600160601b031690565b016001600160601b03169050919050565b60006121e582602061310c565b6121f09060086130e3565b60ff166121fe858585612286565b901c949350505050565b60006112cb62ffffff1983168260016121d8565b600060d882901c60ff1660068111156112cb576112cb612e89565b6000611199838360146121d8565b6040516001600160a01b0383166024820152604481018290526106b590849063a9059cbb60e01b9060640161168e565b60006112cb62ffffff198316604160205b60008160ff1660000361229b57506000611199565b6122ae8460181c6001600160601b031690565b6001600160601b03166122c460ff8416856130b8565b11156123285761230f6122e08560781c6001600160601b031690565b6001600160601b03166122fc8660181c6001600160601b031690565b6001600160601b0316858560ff16612620565b60405162461bcd60e51b815260040161061f91906130d0565b60208260ff1611156123a25760405162461bcd60e51b815260206004820152603a60248201527f54797065644d656d566965772f696e646578202d20417474656d70746564207460448201527f6f20696e646578206d6f7265207468616e203332206279746573000000000000606482015260840161061f565b6008820260006123bb8660781c6001600160601b031690565b6001600160601b031690506000600160ff1b60001984011d91909501511695945050505050565b600062ffffff198084160361244a5760405162461bcd60e51b815260206004820152602860248201527f54797065644d656d566965772f636f7079546f202d204e756c6c20706f696e7460448201526732b9103232b932b360c11b606482015260840161061f565b61245383612091565b6124b35760405162461bcd60e51b815260206004820152602b60248201527f54797065644d656d566965772f636f7079546f202d20496e76616c696420706f60448201526a34b73a32b9103232b932b360a91b606482015260840161061f565b60006124c88460181c6001600160601b031690565b6001600160601b0316905060006124e88560781c6001600160601b031690565b6001600160601b0316905060006040519050848111156125085760206060fd5b8285848460045afa506113bc61251e8760d81c90565b64ffffffffff60601b606091821b168717901b841760181b90565b6060611196848460008561268e565b60006040518281111561255b5760206060fd5b506000805b84518110156125c857600085828151811061257d5761257d6130a2565b60200260200101519050612593818487016123e2565b506125a78160181c6001600160601b031690565b6001600160601b0316830192505080806125c09061312f565b915050612560565b50606083901b811760181b611366565b60006125e3826127bf565b6112cb906020613148565b600061260060048360ff16901c6127f4565b60ff1661ffff919091161760081b612617826127f4565b60ff1617919050565b6060600061262d866120f1565b915050600061263b866120f1565b9150506000612649866120f1565b9150506000612657866120f1565b915050838383836040516020016126719493929190613167565b604051602081830303815290604052945050505050949350505050565b6060824710156126ef5760405162461bcd60e51b815260206004820152602660248201527f416464726573733a20696e73756666696369656e742062616c616e636520666f6044820152651c8818d85b1b60d21b606482015260840161061f565b6001600160a01b0385163b6127465760405162461bcd60e51b815260206004820152601d60248201527f416464726573733a2063616c6c20746f206e6f6e2d636f6e7472616374000000604482015260640161061f565b600080866001600160a01b031685876040516127629190612f92565b60006040518083038185875af1925050503d806000811461279f576040519150601f19603f3d011682016040523d82523d6000602084013e6127a4565b606091505b50915091506127b4828286612941565b979650505050505050565b600060206127d68360181c6001600160601b031690565b6127ea906001600160601b0316601f6130b8565b6112cb919061323e565b600060f08083179060ff8216900361280f5750603092915050565b8060ff1660f1036128235750603192915050565b8060ff1660f2036128375750603292915050565b8060ff1660f30361284b5750603392915050565b8060ff1660f40361285f5750603492915050565b8060ff1660f5036128735750603592915050565b8060ff1660f6036128875750603692915050565b8060ff1660f70361289b5750603792915050565b8060ff1660f8036128af5750603892915050565b8060ff1660f9036128c35750603992915050565b8060ff1660fa036128d75750606192915050565b8060ff1660fb036128eb5750606292915050565b8060ff1660fc036128ff5750606392915050565b8060ff1660fd036129135750606492915050565b8060ff1660fe036129275750606592915050565b8060ff1660ff0361293b5750606692915050565b50919050565b60608315612950575081611199565b8251156129605782518084602001fd5b8160405162461bcd60e51b815260040161061f91906130d0565b63ffffffff811681146109b257600080fd5b6001600160a01b03811681146109b257600080fd5b6000806000606084860312156129b657600080fd5b83356129c18161297a565b92506020840135915060408401356129d88161298c565b809150509250925092565b6000602082840312156129f557600080fd5b81356111998161298c565b60008060408385031215612a1357600080fd5b8235612a1e8161298c565b91506020830135612a2e8161298c565b809150509250929050565b600060208284031215612a4b57600080fd5b5035919050565b600060208284031215612a6457600080fd5b81356111998161297a565b80151581146109b257600080fd5b600080600080600060a08688031215612a9557600080fd5b8535612aa08161298c565b9450602086013593506040860135612ab78161297a565b9250606086013591506080860135612ace81612a6f565b809150509295509295909350565b634e487b7160e01b600052604160045260246000fd5b604051601f8201601f1916810167ffffffffffffffff81118282101715612b1b57612b1b612adc565b604052919050565b600067ffffffffffffffff821115612b3d57612b3d612adc565b50601f01601f191660200190565b60008060008060808587031215612b6157600080fd5b8435612b6c8161297a565b93506020850135612b7c8161297a565b925060408501359150606085013567ffffffffffffffff811115612b9f57600080fd5b8501601f81018713612bb057600080fd5b8035612bc3612bbe82612b23565b612af2565b818152886020838501011115612bd857600080fd5b8160208401602083013760006020838301015280935050505092959194509250565b60008060408385031215612c0d57600080fd5b8235612c188161297a565b946020939093013593505050565b60008060008060008060a08789031215612c3f57600080fd5b8635612c4a8161298c565b9550602087013594506040870135612c618161297a565b935060608701359250608087013567ffffffffffffffff80821115612c8557600080fd5b818901915089601f830112612c9957600080fd5b813581811115612ca857600080fd5b8a6020828501011115612cba57600080fd5b6020830194508093505050509295509295509295565b6020808252602e908201527f496e697469616c697a61626c653a20636f6e747261637420697320616c72656160408201526d191e481a5b9a5d1a585b1a5e995960921b606082015260800190565b634e487b7160e01b600052601160045260246000fd5b600082821015612d4657612d46612d1e565b500390565b600060208284031215612d5d57600080fd5b81516111998161298c565b600060208284031215612d7a57600080fd5b5051919050565b600060208284031215612d9357600080fd5b815161119981612a6f565b60005b83811015612db9578181015183820152602001612da1565b838111156116c55750506000910152565b600060208284031215612ddc57600080fd5b815167ffffffffffffffff811115612df357600080fd5b8201601f81018413612e0457600080fd5b8051612e12612bbe82612b23565b818152856020838501011115612e2757600080fd5b611313826020830160208601612d9e565b600060208284031215612e4a57600080fd5b815160ff8116811461119957600080fd5b60008060408385031215612e6e57600080fd5b8251612e798161297a565b6020939093015192949293505050565b634e487b7160e01b600052602160045260246000fd5b60078110612ebd57634e487b7160e01b600052602160045260246000fd5b60f81b9052565b612ece8186612e9f565b600181019390935260218301919091526041820152606101919050565b60008151808452612f03816020860160208601612d9e565b601f01601f19169290920160200192915050565b63ffffffff841681528260208201526060604082015260006113136060830184612eeb565b600063ffffffff808a16835288602084015280881660408401525085606083015260018060a01b03851660808301528360a083015260e060c0830152612f8560e0830184612eeb565b9998505050505050505050565b60008251612fa4818460208701612d9e565b9190910192915050565b612fb88188612e9f565b85600182015284602182015283604182015282606182015260008251612fe5816081850160208701612d9e565b91909101608101979650505050505050565b6020808252602b908201527f496e697469616c697a61626c653a20636f6e7472616374206973206e6f74206960408201526a6e697469616c697a696e6760a81b606082015260800190565b8581526000855161305a816020850160208a01612d9e565b80830190508560208201528451613078816040840160208901612d9e565b60f89490941b6001600160f81b031916604091909401908101939093525050604101949350505050565b634e487b7160e01b600052603260045260246000fd5b600082198211156130cb576130cb612d1e565b500190565b6020815260006111996020830184612eeb565b600060ff821660ff84168160ff048111821515161561310457613104612d1e565b029392505050565b600060ff821660ff84168082101561312657613126612d1e565b90039392505050565b60006001820161314157613141612d1e565b5060010190565b600081600019048311821515161561316257613162612d1e565b500290565b7f54797065644d656d566965772f696e646578202d204f76657272616e20746865815274040ecd2caee5c40a6d8d2c6ca40d2e640c2e84060f605b1b60208201526001600160d01b031960d086811b821660358401526e040eed2e8d040d8cadccee8d04060f608b1b603b840181905286821b8316604a8501527f2e20417474656d7074656420746f20696e646578206174206f666673657420306050850152600f60fb1b607085015285821b83166071850152607784015283901b166086820152601760f91b608c8201526000608d82016113bc565b60008261325b57634e487b7160e01b600052601260045260246000fd5b50049056fea26469706673582212208daf09306ce2d15fff04b8f704e278d99cd752f86ee8532f70630d510462898064736f6c634300080f0033",
  "devdoc": {
    "events": {
      "Receive(uint64,address,address,address,uint256)": {
        "params": {
          "amount": "The amount of tokens being received",
          "liquidityProvider": "The account providing liquidity",
          "originAndNonce": "Domain where the transfer originated and the        unique identifier for the message from origin to destination,        combined in a single field ((origin << 32) & nonce)",
          "recipient": "The address receiving the tokens; the original        recipient of the transfer",
          "token": "The address of the local token contract being received"
        }
      },
      "Send(address,address,uint32,bytes32,uint256,bool)": {
        "params": {
          "amount": "the amount of tokens sent",
          "from": "the address sending tokens",
          "toDomain": "the domain of the chain the tokens are being sent to",
          "toHook": "True if sent to a hook, on the remote chain, false        otherwise",
          "toId": "the bytes32 address of the recipient of the tokens",
          "token": "the address of the token contract"
        }
      }
    },
    "kind": "dev",
    "methods": {
      "enrollCustom(uint32,bytes32,address)": {
        "params": {
          "_custom": "the address of the custom implementation to use.",
          "_domain": "the domain of the canonical Token to enroll",
          "_id": "the bytes32 ID of the canonical of the Token to enroll"
        }
      },
      "enrollRemoteRouter(uint32,bytes32)": {
        "params": {
          "_domain": "The domain of the remote xApp Router",
          "_router": "The address of the remote xApp Router"
        }
      },
      "handle(uint32,uint32,bytes32,bytes)": {
        "params": {
          "_message": "The message",
          "_nonce": "The unique identifier for the message from origin to        destination",
          "_origin": "The origin domain",
          "_sender": "The sender address"
        }
      },
      "migrate(address)": {
        "details": "This is explicitly opt-in to allow dapps to decide when and how to      upgrade to the new representation.",
        "params": {
          "_oldRepr": "The address of the old token to migrate"
        }
      },
      "renounceOwnership()": {
        "details": "should be impossible to renounce ownership;      we override OpenZeppelin OwnableUpgradeable's      implementation of renounceOwnership to make it a no-op"
      },
      "send(address,uint256,uint32,bytes32,bool)": {
        "params": {
          "_amount": "The token amount",
          "_destination": "The destination domain",
          "_recipient": "The recipient address",
          "_token": "The token address"
        }
      },
      "sendToHook(address,uint256,uint32,bytes32,bytes)": {
        "params": {
          "_amount": "The token amount",
          "_destination": "The destination domain",
          "_extraData": "Extra data that will be passed to the hook for        execution",
          "_remoteHook": "The hook contract on the remote chain",
          "_token": "The token address"
        }
      },
      "setXAppConnectionManager(address)": {
        "params": {
          "_xAppConnectionManager": "The address of the xAppConnectionManager contract"
        }
      }
    },
    "title": "BridgeRouter",
    "version": 1
  },
  "userdoc": {
    "events": {
      "Receive(uint64,address,address,address,uint256)": {
        "notice": "emitted when tokens are dispensed to an account on this domain         emitted both when fast liquidity is provided, and when the         transfer ultimately settles"
      },
      "Send(address,address,uint32,bytes32,uint256,bool)": {
        "notice": "emitted when tokens are sent from this domain to another domain"
      }
    },
    "kind": "user",
    "methods": {
      "acceptProposedOwner()": {
        "notice": "Transfers ownership of the contract to a new account (`newOwner`). Can only be called by the current owner."
      },
      "delay()": {
        "notice": "Returns the delay period before a new owner can be accepted."
      },
      "enrollCustom(uint32,bytes32,address)": {
        "notice": "Enroll a custom token. This allows projects to work with         governance to specify a custom representation."
      },
      "enrollRemoteRouter(uint32,bytes32)": {
        "notice": "Register the address of a Router contract for the same xApp on a remote chain"
      },
      "handle(uint32,uint32,bytes32,bytes)": {
        "notice": "Handles an incoming message"
      },
      "migrate(address)": {
        "notice": "Migrate all tokens in a previous representation to the latest         custom representation. This works by looking up local mappings         and then burning old tokens and minting new tokens."
      },
      "owner()": {
        "notice": "Returns the address of the current owner."
      },
      "proposeNewOwner(address)": {
        "notice": "Sets the timestamp for an owner to be proposed, and sets the newly proposed owner as step 1 in a 2-step process"
      },
      "proposed()": {
        "notice": "Returns the address of the proposed owner."
      },
      "proposedTimestamp()": {
        "notice": "Returns the address of the proposed owner."
      },
      "renounced()": {
        "notice": "Indicates if the ownership has been renounced() by checking if current owner is address(0)"
      },
      "send(address,uint256,uint32,bytes32,bool)": {
        "notice": "Send tokens to a recipient on a remote chain"
      },
      "sendToHook(address,uint256,uint32,bytes32,bytes)": {
        "notice": "Send tokens to a hook on the remote chain"
      },
      "setXAppConnectionManager(address)": {
        "notice": "Modify the contract the xApp uses to validate Replica contracts"
      }
    },
    "version": 1
  },
  "storageLayout": {
    "storage": [
      {
        "astId": 138,
        "contract": "contracts/test/BridgeRouter.sol:BridgeRouter",
        "label": "_initialized",
        "offset": 0,
        "slot": "0",
        "type": "t_uint8"
      },
      {
        "astId": 141,
        "contract": "contracts/test/BridgeRouter.sol:BridgeRouter",
        "label": "_initializing",
        "offset": 1,
        "slot": "0",
        "type": "t_bool"
      },
      {
        "astId": 35947,
        "contract": "contracts/test/BridgeRouter.sol:BridgeRouter",
        "label": "_owner",
        "offset": 2,
        "slot": "0",
        "type": "t_address"
      },
      {
        "astId": 35949,
        "contract": "contracts/test/BridgeRouter.sol:BridgeRouter",
        "label": "_proposed",
        "offset": 0,
        "slot": "1",
        "type": "t_address"
      },
      {
        "astId": 35951,
        "contract": "contracts/test/BridgeRouter.sol:BridgeRouter",
        "label": "_proposedOwnershipTimestamp",
        "offset": 0,
        "slot": "2",
        "type": "t_uint256"
      },
      {
        "astId": 36205,
        "contract": "contracts/test/BridgeRouter.sol:BridgeRouter",
        "label": "__GAP",
        "offset": 0,
        "slot": "3",
        "type": "t_array(t_uint256)49_storage"
      },
      {
        "astId": 5800,
        "contract": "contracts/test/BridgeRouter.sol:BridgeRouter",
        "label": "xAppConnectionManager",
        "offset": 0,
        "slot": "52",
        "type": "t_contract(IConnectorManager)34402"
      },
      {
        "astId": 5804,
        "contract": "contracts/test/BridgeRouter.sol:BridgeRouter",
        "label": "__GAP",
        "offset": 0,
        "slot": "53",
        "type": "t_array(t_uint256)49_storage"
      },
      {
        "astId": 5680,
        "contract": "contracts/test/BridgeRouter.sol:BridgeRouter",
        "label": "remotes",
        "offset": 0,
        "slot": "102",
        "type": "t_mapping(t_uint32,t_bytes32)"
      },
      {
        "astId": 5684,
        "contract": "contracts/test/BridgeRouter.sol:BridgeRouter",
        "label": "__GAP",
        "offset": 0,
        "slot": "103",
        "type": "t_array(t_uint256)49_storage"
      },
      {
        "astId": 38946,
        "contract": "contracts/test/BridgeRouter.sol:BridgeRouter",
        "label": "tokenRegistry",
        "offset": 0,
        "slot": "152",
        "type": "t_contract(ITokenRegistry)17728"
      },
      {
        "astId": 38950,
        "contract": "contracts/test/BridgeRouter.sol:BridgeRouter",
        "label": "liquidityProvider",
        "offset": 0,
        "slot": "153",
        "type": "t_mapping(t_bytes32,t_address)"
      },
      {
        "astId": 38954,
        "contract": "contracts/test/BridgeRouter.sol:BridgeRouter",
        "label": "__GAP",
        "offset": 0,
        "slot": "154",
        "type": "t_array(t_uint256)49_storage"
      }
    ],
    "types": {
      "t_address": {
        "encoding": "inplace",
        "label": "address",
        "numberOfBytes": "20"
      },
      "t_array(t_uint256)49_storage": {
        "base": "t_uint256",
        "encoding": "inplace",
        "label": "uint256[49]",
        "numberOfBytes": "1568"
      },
      "t_bool": {
        "encoding": "inplace",
        "label": "bool",
        "numberOfBytes": "1"
      },
      "t_bytes32": {
        "encoding": "inplace",
        "label": "bytes32",
        "numberOfBytes": "32"
      },
      "t_contract(IConnectorManager)34402": {
        "encoding": "inplace",
        "label": "contract IConnectorManager",
        "numberOfBytes": "20"
      },
      "t_contract(ITokenRegistry)17728": {
        "encoding": "inplace",
        "label": "contract ITokenRegistry",
        "numberOfBytes": "20"
      },
      "t_mapping(t_bytes32,t_address)": {
        "encoding": "mapping",
        "key": "t_bytes32",
        "label": "mapping(bytes32 => address)",
        "numberOfBytes": "32",
        "value": "t_address"
      },
      "t_mapping(t_uint32,t_bytes32)": {
        "encoding": "mapping",
        "key": "t_uint32",
        "label": "mapping(uint32 => bytes32)",
        "numberOfBytes": "32",
        "value": "t_bytes32"
      },
      "t_uint256": {
        "encoding": "inplace",
        "label": "uint256",
        "numberOfBytes": "32"
      },
      "t_uint32": {
        "encoding": "inplace",
        "label": "uint32",
        "numberOfBytes": "4"
      },
      "t_uint8": {
        "encoding": "inplace",
        "label": "uint8",
        "numberOfBytes": "1"
      }
    }
  }
}