{
  "address": "0x677d171172b395B2526ebb7Eb5Aa1a230b975ac0",
  "abi": [
    {
      "inputs": [
        {
          "internalType": "uint32",
          "name": "_domain",
          "type": "uint32"
        },
        {
          "internalType": "uint32",
          "name": "_mirrorDomain",
          "type": "uint32"
        },
        {
          "internalType": "address",
          "name": "_amb",
          "type": "address"
        },
        {
          "internalType": "address",
          "name": "_rootManager",
          "type": "address"
        },
        {
          "internalType": "address",
          "name": "_mirrorConnector",
          "type": "address"
        }
      ],
      "stateMutability": "nonpayable",
      "type": "constructor"
    },
    {
      "inputs": [],
      "name": "Connector__processMessage_notUsed",
      "type": "error"
    },
    {
      "inputs": [],
      "name": "ProposedOwnable__onlyOwner_notOwner",
      "type": "error"
    },
    {
      "inputs": [],
      "name": "ProposedOwnable__onlyProposed_notProposedOwner",
      "type": "error"
    },
    {
      "inputs": [],
      "name": "ProposedOwnable__ownershipDelayElapsed_delayNotElapsed",
      "type": "error"
    },
    {
      "inputs": [],
      "name": "ProposedOwnable__proposeNewOwner_invalidProposal",
      "type": "error"
    },
    {
      "inputs": [],
      "name": "ProposedOwnable__proposeNewOwner_noOwnershipChange",
      "type": "error"
    },
    {
      "inputs": [],
      "name": "ProposedOwnable__renounceOwnership_invalidProposal",
      "type": "error"
    },
    {
      "inputs": [],
      "name": "ProposedOwnable__renounceOwnership_noProposal",
      "type": "error"
    },
    {
      "anonymous": false,
      "inputs": [
        {
          "indexed": false,
          "internalType": "bytes",
          "name": "data",
          "type": "bytes"
        },
        {
          "indexed": false,
          "internalType": "address",
          "name": "caller",
          "type": "address"
        }
      ],
      "name": "MessageProcessed",
      "type": "event"
    },
    {
      "anonymous": false,
      "inputs": [
        {
          "indexed": false,
          "internalType": "bytes",
          "name": "data",
          "type": "bytes"
        },
        {
          "indexed": false,
          "internalType": "bytes",
          "name": "encodedData",
          "type": "bytes"
        },
        {
          "indexed": false,
          "internalType": "address",
          "name": "caller",
          "type": "address"
        }
      ],
      "name": "MessageSent",
      "type": "event"
    },
    {
      "anonymous": false,
      "inputs": [
        {
          "indexed": false,
          "internalType": "address",
          "name": "previous",
          "type": "address"
        },
        {
          "indexed": false,
          "internalType": "address",
          "name": "current",
          "type": "address"
        }
      ],
      "name": "MirrorConnectorUpdated",
      "type": "event"
    },
    {
      "anonymous": false,
      "inputs": [
        {
          "indexed": true,
          "internalType": "uint32",
          "name": "domain",
          "type": "uint32"
        },
        {
          "indexed": true,
          "internalType": "uint32",
          "name": "mirrorDomain",
          "type": "uint32"
        },
        {
          "indexed": false,
          "internalType": "address",
          "name": "amb",
          "type": "address"
        },
        {
          "indexed": false,
          "internalType": "address",
          "name": "rootManager",
          "type": "address"
        },
        {
          "indexed": false,
          "internalType": "address",
          "name": "mirrorConnector",
          "type": "address"
        }
      ],
      "name": "NewConnector",
      "type": "event"
    },
    {
      "anonymous": false,
      "inputs": [
        {
          "indexed": true,
          "internalType": "address",
          "name": "proposedOwner",
          "type": "address"
        }
      ],
      "name": "OwnershipProposed",
      "type": "event"
    },
    {
      "anonymous": false,
      "inputs": [
        {
          "indexed": true,
          "internalType": "address",
          "name": "previousOwner",
          "type": "address"
        },
        {
          "indexed": true,
          "internalType": "address",
          "name": "newOwner",
          "type": "address"
        }
      ],
      "name": "OwnershipTransferred",
      "type": "event"
    },
    {
      "inputs": [],
      "name": "AMB",
      "outputs": [
        {
          "internalType": "address",
          "name": "",
          "type": "address"
        }
      ],
      "stateMutability": "view",
      "type": "function"
    },
    {
      "inputs": [],
      "name": "DOMAIN",
      "outputs": [
        {
          "internalType": "uint32",
          "name": "",
          "type": "uint32"
        }
      ],
      "stateMutability": "view",
      "type": "function"
    },
    {
      "inputs": [],
      "name": "MIRROR_DOMAIN",
      "outputs": [
        {
          "internalType": "uint32",
          "name": "",
          "type": "uint32"
        }
      ],
      "stateMutability": "view",
      "type": "function"
    },
    {
      "inputs": [],
      "name": "ROOT_MANAGER",
      "outputs": [
        {
          "internalType": "address",
          "name": "",
          "type": "address"
        }
      ],
      "stateMutability": "view",
      "type": "function"
    },
    {
      "inputs": [],
      "name": "acceptProposedOwner",
      "outputs": [],
      "stateMutability": "nonpayable",
      "type": "function"
    },
    {
      "inputs": [
        {
          "internalType": "bytes",
          "name": "_calldata",
          "type": "bytes"
        },
        {
          "internalType": "uint256",
          "name": "_nonce",
          "type": "uint256"
        }
      ],
      "name": "claimMessage",
      "outputs": [],
      "stateMutability": "nonpayable",
      "type": "function"
    },
    {
      "inputs": [],
      "name": "delay",
      "outputs": [
        {
          "internalType": "uint256",
          "name": "",
          "type": "uint256"
        }
      ],
      "stateMutability": "view",
      "type": "function"
    },
    {
      "inputs": [],
      "name": "mirrorConnector",
      "outputs": [
        {
          "internalType": "address",
          "name": "",
          "type": "address"
        }
      ],
      "stateMutability": "view",
      "type": "function"
    },
    {
      "inputs": [],
      "name": "owner",
      "outputs": [
        {
          "internalType": "address",
          "name": "",
          "type": "address"
        }
      ],
      "stateMutability": "view",
      "type": "function"
    },
    {
      "inputs": [
        {
          "internalType": "bytes",
          "name": "_data",
          "type": "bytes"
        }
      ],
      "name": "processMessage",
      "outputs": [],
      "stateMutability": "nonpayable",
      "type": "function"
    },
    {
      "inputs": [
        {
          "internalType": "address",
          "name": "newlyProposed",
          "type": "address"
        }
      ],
      "name": "proposeNewOwner",
      "outputs": [],
      "stateMutability": "nonpayable",
      "type": "function"
    },
    {
      "inputs": [],
      "name": "proposed",
      "outputs": [
        {
          "internalType": "address",
          "name": "",
          "type": "address"
        }
      ],
      "stateMutability": "view",
      "type": "function"
    },
    {
      "inputs": [],
      "name": "proposedTimestamp",
      "outputs": [
        {
          "internalType": "uint256",
          "name": "",
          "type": "uint256"
        }
      ],
      "stateMutability": "view",
      "type": "function"
    },
    {
      "inputs": [],
      "name": "renounceOwnership",
      "outputs": [],
      "stateMutability": "nonpayable",
      "type": "function"
    },
    {
      "inputs": [],
      "name": "renounced",
      "outputs": [
        {
          "internalType": "bool",
          "name": "",
          "type": "bool"
        }
      ],
      "stateMutability": "view",
      "type": "function"
    },
    {
      "inputs": [
        {
          "internalType": "bytes",
          "name": "_data",
          "type": "bytes"
        },
        {
          "internalType": "bytes",
          "name": "_encodedData",
          "type": "bytes"
        }
      ],
      "name": "sendMessage",
      "outputs": [],
      "stateMutability": "payable",
      "type": "function"
    },
    {
      "inputs": [
        {
          "internalType": "address",
          "name": "_mirrorConnector",
          "type": "address"
        }
      ],
      "name": "setMirrorConnector",
      "outputs": [],
      "stateMutability": "nonpayable",
      "type": "function"
    },
    {
      "inputs": [
        {
          "internalType": "address",
          "name": "_expected",
          "type": "address"
        }
      ],
      "name": "verifySender",
      "outputs": [
        {
          "internalType": "bool",
          "name": "",
          "type": "bool"
        }
      ],
      "stateMutability": "nonpayable",
      "type": "function"
    },
    {
      "stateMutability": "payable",
      "type": "receive"
    }
  ],
  "transactionHash": "0x29c738ab7bba545c8794344b57e87ed2371975129578cac256a1a446d540b566",
  "args": [
    "1735353714",
    "1668247156",
    "0x70BaD09280FD342D02fe64119779BC1f0791BAC2",
    "0x94e1c90fb33FEc184B183625BBf096F713CA74a3",
    "0x0000000000000000000000000000000000000000"
  ],
  "numDeployments": 1,
  "solcInputHash": "92e67f7618c6361180715ef4387c1457",
  "bytecode": "0x6101006040523480156200001257600080fd5b506040516200138138038062001381833981016040819052620000359162000286565b848484848484848484846200004a3362000186565b8463ffffffff16600003620000955760405162461bcd60e51b815260206004820152600c60248201526b32b6b83a3c903237b6b0b4b760a11b60448201526064015b60405180910390fd5b6001600160a01b038216620000e15760405162461bcd60e51b815260206004820152601160248201527032b6b83a3c903937b7ba26b0b730b3b2b960791b60448201526064016200008c565b63ffffffff8086166080526001600160a01b0380851660a05283811660c05290851660e05281161562000119576200011981620001eb565b604080516001600160a01b0385811682528481166020830152831681830152905163ffffffff86811692908816917f4f9c27c2fe3f84576ea469d367d044da53c45e951617e8389f2b5ed8db9d25f09181900360600190a3505050505050505050505050505050620002f6565b600080546040516001600160a01b03808516939216917f8be0079c531659141344cd1fd0a4f28419497f9722a3daafe3b4186f6b6457e091a3600080546001600160a01b039092166001600160a01b0319928316178155600255600180549091169055565b600354604080516001600160a01b03928316815291831660208301527fc77bec288fc88f168427f2f7da682eadb26cac89d8d591af6e443da98dff2bbc910160405180910390a1600380546001600160a01b0319166001600160a01b0392909216919091179055565b805163ffffffff811681146200026957600080fd5b919050565b80516001600160a01b03811681146200026957600080fd5b600080600080600060a086880312156200029f57600080fd5b620002aa8662000254565b9450620002ba6020870162000254565b9350620002ca604087016200026e565b9250620002da606087016200026e565b9150620002ea608087016200026e565b90509295509295909350565b60805160a05160c05160e051611020620003616000396000818161012b01526109a9015260008181610221015281816103c1015261098201526000818161037401528181610476015281816106160152818161082f0152610b53015260006101cd01526110206000f3fe60806040526004361061010d5760003560e01c806389da849611610095578063cc39428311610064578063cc394283146102f9578063d1851c9214610319578063d232c22014610337578063d69f9d6114610362578063db1b76591461039657600080fd5b806389da8496146102865780638da5cb5b146102a6578063b1f8100d146102c4578063c5b350df146102e457600080fd5b806352a9674b116100dc57806352a9674b146101bb5780635bd11efc146101ef5780635f61e3ec1461020f5780636a42b8f81461025b578063715018a61461027157600080fd5b806314168416146101195780633cf52ffb1461016757806348e6fa23146101865780634ff746f61461019b57600080fd5b3661011457005b600080fd5b34801561012557600080fd5b5061014d7f000000000000000000000000000000000000000000000000000000000000000081565b60405163ffffffff90911681526020015b60405180910390f35b34801561017357600080fd5b506002545b60405190815260200161015e565b610199610194366004610cd7565b6103b6565b005b3480156101a757600080fd5b506101996101b6366004610d3b565b61046b565b3480156101c757600080fd5b5061014d7f000000000000000000000000000000000000000000000000000000000000000081565b3480156101fb57600080fd5b5061019961020a366004610d8d565b610511565b34801561021b57600080fd5b506102437f000000000000000000000000000000000000000000000000000000000000000081565b6040516001600160a01b03909116815260200161015e565b34801561026757600080fd5b5062093a80610178565b34801561027d57600080fd5b50610199610548565b34801561029257600080fd5b506101996102a1366004610db1565b6105fc565b3480156102b257600080fd5b506000546001600160a01b0316610243565b3480156102d057600080fd5b506101996102df366004610d8d565b610695565b3480156102f057600080fd5b50610199610733565b34801561030557600080fd5b50600354610243906001600160a01b031681565b34801561032557600080fd5b506001546001600160a01b0316610243565b34801561034357600080fd5b506000546001600160a01b0316155b604051901515815260200161015e565b34801561036e57600080fd5b506102437f000000000000000000000000000000000000000000000000000000000000000081565b3480156103a257600080fd5b506103526103b1366004610d8d565b6107a3565b336001600160a01b037f000000000000000000000000000000000000000000000000000000000000000016146104225760405162461bcd60e51b815260206004820152600c60248201526b10b937b7ba26b0b730b3b2b960a11b60448201526064015b60405180910390fd5b61042c82826107b4565b7fdcaa37a042a0087de79018c629bbd29cee82ca80bd9be394e1696bf9e935507782823360405161045f93929190610e6f565b60405180910390a15050565b336001600160a01b037f000000000000000000000000000000000000000000000000000000000000000016146104cc5760405162461bcd60e51b81526004016104199060208082526004908201526310a0a6a160e11b604082015260600190565b6104d5816108ed565b7fb3abc57bfeebd2cac918901db582f71972a8e628bccf19f5ae3e3482b98a5ced8133604051610506929190610ead565b60405180910390a150565b6000546001600160a01b0316331461053c576040516311a8a1bb60e31b815260040160405180910390fd5b61054581610a30565b50565b6000546001600160a01b03163314610573576040516311a8a1bb60e31b815260040160405180910390fd5b62093a80600254426105859190610ed7565b116105a3576040516324e0285f60e21b815260040160405180910390fd5b6002546000036105c657604051630e4b303f60e21b815260040160405180910390fd5b6001546001600160a01b0316156105f0576040516323295ef960e01b815260040160405180910390fd5b6105fa6000610a99565b565b60035460405163248f049b60e11b81526001600160a01b037f000000000000000000000000000000000000000000000000000000000000000081169263491e09369261065e9291909116903090600090819081908b908b908b90600401610ef8565b600060405180830381600087803b15801561067857600080fd5b505af115801561068c573d6000803e3d6000fd5b50505050505050565b6000546001600160a01b031633146106c0576040516311a8a1bb60e31b815260040160405180910390fd5b6001546001600160a01b0382811691161480156106de575060025415155b156106fc576040516311bc066560e11b815260040160405180910390fd5b6000546001600160a01b0380831691160361072a57604051634a2fb73f60e11b815260040160405180910390fd5b61054581610afe565b6001546001600160a01b0316331461075e576040516311a7f27160e11b815260040160405180910390fd5b62093a80600254426107709190610ed7565b1161078e576040516324e0285f60e21b815260040160405180910390fd5b6001546105fa906001600160a01b0316610a99565b60006107ae82610b4c565b92915050565b81516020146107ef5760405162461bcd60e51b8152602060048201526007602482015266042d8cadccee8d60cb1b6044820152606401610419565b80511561082d5760405162461bcd60e51b815260206004820152600c60248201526b042c8c2e8c240d8cadccee8d60a31b6044820152606401610419565b7f00000000000000000000000000000000000000000000000000000000000000006001600160a01b0316639f3ce55a34600360009054906101000a90046001600160a01b031634634ff746f660e01b8760405160240161088d9190610f63565b60408051601f198184030181529181526020820180516001600160e01b03166001600160e01b03199485161790525160e087901b90921682526108d4939291600401610f76565b6000604051808303818588803b15801561067857600080fd5b600354610902906001600160a01b0316610b4c565b61093d5760405162461bcd60e51b815260206004820152600c60248201526b10b61921b7b73732b1ba37b960a11b6044820152606401610419565b80516020146109785760405162461bcd60e51b8152602060048201526007602482015266042d8cadccee8d60cb1b6044820152606401610419565b6001600160a01b037f000000000000000000000000000000000000000000000000000000000000000016638e7d93fa7f00000000000000000000000000000000000000000000000000000000000000006109d184610fa6565b6040516001600160e01b031960e085901b16815263ffffffff9290921660048301526024820152604401600060405180830381600087803b158015610a1557600080fd5b505af1158015610a29573d6000803e3d6000fd5b5050505050565b600354604080516001600160a01b03928316815291831660208301527fc77bec288fc88f168427f2f7da682eadb26cac89d8d591af6e443da98dff2bbc910160405180910390a1600380546001600160a01b0319166001600160a01b0392909216919091179055565b600080546040516001600160a01b03808516939216917f8be0079c531659141344cd1fd0a4f28419497f9722a3daafe3b4186f6b6457e091a3600080546001600160a01b039092166001600160a01b0319928316178155600255600180549091169055565b42600255600180546001600160a01b0319166001600160a01b0383169081179091556040517f6ab4d119f23076e8ad491bc65ce85f017fb0591dce08755ba8591059cc51737a90600090a250565b60006107ae7f0000000000000000000000000000000000000000000000000000000000000000836000336001600160a01b03841614610bb75760405162461bcd60e51b81526020600482015260076024820152662162726964676560c81b6044820152606401610419565b816001600160a01b0316836001600160a01b03166367e404ce6040518163ffffffff1660e01b8152600401602060405180830381865afa158015610bff573d6000803e3d6000fd5b505050506040513d601f19601f82011682018060405250810190610c239190610fcd565b6001600160a01b0316149392505050565b634e487b7160e01b600052604160045260246000fd5b600082601f830112610c5b57600080fd5b813567ffffffffffffffff80821115610c7657610c76610c34565b604051601f8301601f19908116603f01168101908282118183101715610c9e57610c9e610c34565b81604052838152866020858801011115610cb757600080fd5b836020870160208301376000602085830101528094505050505092915050565b60008060408385031215610cea57600080fd5b823567ffffffffffffffff80821115610d0257600080fd5b610d0e86838701610c4a565b93506020850135915080821115610d2457600080fd5b50610d3185828601610c4a565b9150509250929050565b600060208284031215610d4d57600080fd5b813567ffffffffffffffff811115610d6457600080fd5b610d7084828501610c4a565b949350505050565b6001600160a01b038116811461054557600080fd5b600060208284031215610d9f57600080fd5b8135610daa81610d78565b9392505050565b600080600060408486031215610dc657600080fd5b833567ffffffffffffffff80821115610dde57600080fd5b818601915086601f830112610df257600080fd5b813581811115610e0157600080fd5b876020828501011115610e1357600080fd5b6020928301989097509590910135949350505050565b6000815180845260005b81811015610e4f57602081850181015186830182015201610e33565b506000602082860101526020601f19601f83011685010191505092915050565b606081526000610e826060830186610e29565b8281036020840152610e948186610e29565b91505060018060a01b0383166040830152949350505050565b604081526000610ec06040830185610e29565b905060018060a01b03831660208301529392505050565b818103818111156107ae57634e487b7160e01b600052601160045260246000fd5b6001600160a01b038981168252888116602083015260408201889052606082018790528516608082015260e060a0820181905281018390526000610100848682850137600083860182015260c083019390935250601f909201601f1916909101019695505050505050565b602081526000610daa6020830184610e29565b60018060a01b0384168152826020820152606060408201526000610f9d6060830184610e29565b95945050505050565b80516020808301519190811015610fc7576000198160200360031b1b821691505b50919050565b600060208284031215610fdf57600080fd5b8151610daa81610d7856fea2646970667358221220a3b19d713afa3ff8413d95cbb453a02014efc9071eaa74dc059316b13517e37464736f6c63430008110033",
  "devdoc": {
    "kind": "dev",
    "methods": {
      "claimMessage(bytes,uint256)": {
        "params": {
          "_calldata": "The calldata used by the destination message service to call/forward to the destination contract.",
          "_nonce": "Unique message number."
        }
      },
      "processMessage(bytes)": {
        "details": "This is called by AMBs to process messages originating from mirror connector"
      },
      "sendMessage(bytes,bytes)": {
        "details": "This is called by the root manager *only* on mainnet to propagate the aggregate root"
      }
    },
    "version": 1
  },
  "userdoc": {
    "events": {
      "MessageProcessed(bytes,address)": {
        "notice": "Emitted whenever a message is successfully received over an AMB"
      },
      "MessageSent(bytes,bytes,address)": {
        "notice": "Emitted whenever a message is successfully sent over an AMB"
      }
    },
    "kind": "user",
    "methods": {
      "AMB()": {
        "notice": "Address of the AMB on this domain."
      },
      "DOMAIN()": {
        "notice": "The domain of this Messaging (i.e. Connector) contract."
      },
      "MIRROR_DOMAIN()": {
        "notice": "The domain of the corresponding messaging (i.e. Connector) contract."
      },
      "ROOT_MANAGER()": {
        "notice": "RootManager contract address."
      },
      "acceptProposedOwner()": {
        "notice": "Transfers ownership of the contract to a new account (`newOwner`). Can only be called by the current owner."
      },
      "claimMessage(bytes,uint256)": {
        "notice": "Deliver a message to the destination chain."
      },
      "delay()": {
        "notice": "Returns the delay period before a new owner can be accepted."
      },
      "mirrorConnector()": {
        "notice": "Connector on L2 for L1 connectors, and vice versa."
      },
      "owner()": {
        "notice": "Returns the address of the current owner."
      },
      "processMessage(bytes)": {
        "notice": "Processes a message received by an AMB"
      },
      "proposeNewOwner(address)": {
        "notice": "Sets the timestamp for an owner to be proposed, and sets the newly proposed owner as step 1 in a 2-step process"
      },
      "proposed()": {
        "notice": "Returns the address of the proposed owner."
      },
      "proposedTimestamp()": {
        "notice": "Returns the address of the proposed owner."
      },
      "renounceOwnership()": {
        "notice": "Renounces ownership of the contract after a delay"
      },
      "renounced()": {
        "notice": "Indicates if the ownership has been renounced() by checking if current owner is address(0)"
      },
      "sendMessage(bytes,bytes)": {
        "notice": "Sends a message over the amb"
      },
      "setMirrorConnector(address)": {
        "notice": "Sets the address of the l2Connector for this domain"
      },
      "verifySender(address)": {
        "notice": "Checks the cross domain sender for a given address"
      }
    },
    "version": 1
  },
  "storageLayout": {
    "storage": [
      {
        "astId": 650,
        "contract": "contracts/messaging/connectors/linea/LineaHubConnector.sol:LineaHubConnector",
        "label": "_owner",
        "offset": 0,
        "slot": "0",
        "type": "t_address"
      },
      {
        "astId": 652,
        "contract": "contracts/messaging/connectors/linea/LineaHubConnector.sol:LineaHubConnector",
        "label": "_proposed",
        "offset": 0,
        "slot": "1",
        "type": "t_address"
      },
      {
        "astId": 654,
        "contract": "contracts/messaging/connectors/linea/LineaHubConnector.sol:LineaHubConnector",
        "label": "_proposedOwnershipTimestamp",
        "offset": 0,
        "slot": "2",
        "type": "t_uint256"
      },
      {
        "astId": 45,
        "contract": "contracts/messaging/connectors/linea/LineaHubConnector.sol:LineaHubConnector",
        "label": "mirrorConnector",
        "offset": 0,
        "slot": "3",
        "type": "t_address"
      }
    ],
    "types": {
      "t_address": {
        "encoding": "inplace",
        "label": "address",
        "numberOfBytes": "20"
      },
      "t_uint256": {
        "encoding": "inplace",
        "label": "uint256",
        "numberOfBytes": "32"
      }
    }
  }
}