{
  "address": "0xc08edcc02e7a085da3bbf87afbbcad21ebf90944",
  "abi": [
    {
      "inputs": [
        {
          "internalType": "uint32",
          "name": "_domain",
          "type": "uint32"
        },
        {
          "internalType": "uint32",
          "name": "_mirrorDomain",
          "type": "uint32"
        },
        {
          "internalType": "address",
          "name": "_amb",
          "type": "address"
        },
        {
          "internalType": "address",
          "name": "_rootManager",
          "type": "address"
        },
        {
          "internalType": "address",
          "name": "_mirrorConnector",
          "type": "address"
        },
        {
          "internalType": "uint256",
          "name": "_processGas",
          "type": "uint256"
        },
        {
          "internalType": "uint256",
          "name": "_reserveGas",
          "type": "uint256"
        },
        {
          "internalType": "uint256",
          "name": "_delayBlocks",
          "type": "uint256"
        },
        {
          "internalType": "address",
          "name": "_merkle",
          "type": "address"
        },
        {
          "internalType": "address",
          "name": "_watcherManager",
          "type": "address"
        }
      ],
      "stateMutability": "nonpayable",
      "type": "constructor"
    },
    {
      "inputs": [],
      "name": "Connector__processMessage_notUsed",
      "type": "error"
    },
    {
      "inputs": [],
      "name": "ProposedOwnable__onlyOwner_notOwner",
      "type": "error"
    },
    {
      "inputs": [],
      "name": "ProposedOwnable__onlyProposed_notProposedOwner",
      "type": "error"
    },
    {
      "inputs": [],
      "name": "ProposedOwnable__ownershipDelayElapsed_delayNotElapsed",
      "type": "error"
    },
    {
      "inputs": [],
      "name": "ProposedOwnable__proposeNewOwner_invalidProposal",
      "type": "error"
    },
    {
      "inputs": [],
      "name": "ProposedOwnable__proposeNewOwner_noOwnershipChange",
      "type": "error"
    },
    {
      "inputs": [],
      "name": "ProposedOwnable__renounceOwnership_invalidProposal",
      "type": "error"
    },
    {
      "inputs": [],
      "name": "ProposedOwnable__renounceOwnership_noProposal",
      "type": "error"
    },
    {
      "inputs": [],
      "name": "RateLimited__rateLimited_messageSendRateExceeded",
      "type": "error"
    },
    {
      "inputs": [],
      "name": "TypedMemView__index_indexMoreThan32Bytes",
      "type": "error"
    },
    {
      "inputs": [
        {
          "internalType": "uint256",
          "name": "loc",
          "type": "uint256"
        },
        {
          "internalType": "uint256",
          "name": "len",
          "type": "uint256"
        },
        {
          "internalType": "uint256",
          "name": "index",
          "type": "uint256"
        },
        {
          "internalType": "uint256",
          "name": "slice",
          "type": "uint256"
        }
      ],
      "name": "TypedMemView__index_overrun",
      "type": "error"
    },
    {
      "inputs": [],
      "name": "TypedMemView__unsafeCopyTo_identityOOG",
      "type": "error"
    },
    {
      "inputs": [],
      "name": "TypedMemView__unsafeCopyTo_invalidPointer",
      "type": "error"
    },
    {
      "inputs": [],
      "name": "TypedMemView__unsafeCopyTo_nullPointer",
      "type": "error"
    },
    {
      "anonymous": false,
      "inputs": [
        {
          "indexed": true,
          "internalType": "bytes32",
          "name": "root",
          "type": "bytes32"
        }
      ],
      "name": "AggregateRootReceived",
      "type": "event"
    },
    {
      "anonymous": false,
      "inputs": [
        {
          "indexed": true,
          "internalType": "bytes32",
          "name": "root",
          "type": "bytes32"
        }
      ],
      "name": "AggregateRootRemoved",
      "type": "event"
    },
    {
      "anonymous": false,
      "inputs": [
        {
          "indexed": true,
          "internalType": "bytes32",
          "name": "root",
          "type": "bytes32"
        }
      ],
      "name": "AggregateRootVerified",
      "type": "event"
    },
    {
      "anonymous": false,
      "inputs": [
        {
          "indexed": true,
          "internalType": "uint256",
          "name": "updated",
          "type": "uint256"
        },
        {
          "indexed": false,
          "internalType": "address",
          "name": "caller",
          "type": "address"
        }
      ],
      "name": "DelayBlocksUpdated",
      "type": "event"
    },
    {
      "anonymous": false,
      "inputs": [
        {
          "indexed": true,
          "internalType": "bytes32",
          "name": "leaf",
          "type": "bytes32"
        },
        {
          "indexed": true,
          "internalType": "uint256",
          "name": "index",
          "type": "uint256"
        },
        {
          "indexed": true,
          "internalType": "bytes32",
          "name": "root",
          "type": "bytes32"
        },
        {
          "indexed": false,
          "internalType": "bytes",
          "name": "message",
          "type": "bytes"
        }
      ],
      "name": "Dispatch",
      "type": "event"
    },
    {
      "anonymous": false,
      "inputs": [
        {
          "indexed": true,
          "internalType": "address",
          "name": "to",
          "type": "address"
        },
        {
          "indexed": false,
          "internalType": "uint256",
          "name": "amount",
          "type": "uint256"
        }
      ],
      "name": "FundsWithdrawn",
      "type": "event"
    },
    {
      "anonymous": false,
      "inputs": [
        {
          "indexed": false,
          "internalType": "bytes",
          "name": "data",
          "type": "bytes"
        },
        {
          "indexed": false,
          "internalType": "address",
          "name": "caller",
          "type": "address"
        }
      ],
      "name": "MessageProcessed",
      "type": "event"
    },
    {
      "anonymous": false,
      "inputs": [
        {
          "indexed": true,
          "internalType": "bytes32",
          "name": "leaf",
          "type": "bytes32"
        },
        {
          "indexed": true,
          "internalType": "bytes32",
          "name": "aggregateRoot",
          "type": "bytes32"
        },
        {
          "indexed": false,
          "internalType": "uint256",
          "name": "aggregateIndex",
          "type": "uint256"
        }
      ],
      "name": "MessageProven",
      "type": "event"
    },
    {
      "anonymous": false,
      "inputs": [
        {
          "indexed": false,
          "internalType": "bytes",
          "name": "data",
          "type": "bytes"
        },
        {
          "indexed": false,
          "internalType": "bytes",
          "name": "encodedData",
          "type": "bytes"
        },
        {
          "indexed": false,
          "internalType": "address",
          "name": "caller",
          "type": "address"
        }
      ],
      "name": "MessageSent",
      "type": "event"
    },
    {
      "anonymous": false,
      "inputs": [
        {
          "indexed": false,
          "internalType": "address",
          "name": "previous",
          "type": "address"
        },
        {
          "indexed": false,
          "internalType": "address",
          "name": "current",
          "type": "address"
        }
      ],
      "name": "MirrorConnectorUpdated",
      "type": "event"
    },
    {
      "anonymous": false,
      "inputs": [
        {
          "indexed": true,
          "internalType": "uint32",
          "name": "domain",
          "type": "uint32"
        },
        {
          "indexed": true,
          "internalType": "uint32",
          "name": "mirrorDomain",
          "type": "uint32"
        },
        {
          "indexed": false,
          "internalType": "address",
          "name": "amb",
          "type": "address"
        },
        {
          "indexed": false,
          "internalType": "address",
          "name": "rootManager",
          "type": "address"
        },
        {
          "indexed": false,
          "internalType": "address",
          "name": "mirrorConnector",
          "type": "address"
        }
      ],
      "name": "NewConnector",
      "type": "event"
    },
    {
      "anonymous": false,
      "inputs": [
        {
          "indexed": true,
          "internalType": "address",
          "name": "proposedOwner",
          "type": "address"
        }
      ],
      "name": "OwnershipProposed",
      "type": "event"
    },
    {
      "anonymous": false,
      "inputs": [
        {
          "indexed": true,
          "internalType": "address",
          "name": "previousOwner",
          "type": "address"
        },
        {
          "indexed": true,
          "internalType": "address",
          "name": "newOwner",
          "type": "address"
        }
      ],
      "name": "OwnershipTransferred",
      "type": "event"
    },
    {
      "anonymous": false,
      "inputs": [
        {
          "indexed": false,
          "internalType": "address",
          "name": "account",
          "type": "address"
        }
      ],
      "name": "Paused",
      "type": "event"
    },
    {
      "anonymous": false,
      "inputs": [
        {
          "indexed": true,
          "internalType": "bytes32",
          "name": "leaf",
          "type": "bytes32"
        },
        {
          "indexed": false,
          "internalType": "bool",
          "name": "success",
          "type": "bool"
        },
        {
          "indexed": false,
          "internalType": "bytes",
          "name": "returnData",
          "type": "bytes"
        }
      ],
      "name": "Process",
      "type": "event"
    },
    {
      "anonymous": false,
      "inputs": [
        {
          "indexed": false,
          "internalType": "address",
          "name": "updater",
          "type": "address"
        },
        {
          "indexed": false,
          "internalType": "uint256",
          "name": "newRateLimit",
          "type": "uint256"
        }
      ],
      "name": "SendRateLimitUpdated",
      "type": "event"
    },
    {
      "anonymous": false,
      "inputs": [
        {
          "indexed": true,
          "internalType": "address",
          "name": "sender",
          "type": "address"
        }
      ],
      "name": "SenderAdded",
      "type": "event"
    },
    {
      "anonymous": false,
      "inputs": [
        {
          "indexed": true,
          "internalType": "address",
          "name": "sender",
          "type": "address"
        }
      ],
      "name": "SenderRemoved",
      "type": "event"
    },
    {
      "anonymous": false,
      "inputs": [
        {
          "indexed": true,
          "internalType": "uint256",
          "name": "snapshotId",
          "type": "uint256"
        },
        {
          "indexed": true,
          "internalType": "bytes32",
          "name": "root",
          "type": "bytes32"
        },
        {
          "indexed": true,
          "internalType": "uint256",
          "name": "count",
          "type": "uint256"
        }
      ],
      "name": "SnapshotRootSaved",
      "type": "event"
    },
    {
      "anonymous": false,
      "inputs": [
        {
          "indexed": false,
          "internalType": "address",
          "name": "account",
          "type": "address"
        }
      ],
      "name": "Unpaused",
      "type": "event"
    },
    {
      "anonymous": false,
      "inputs": [
        {
          "indexed": false,
          "internalType": "address",
          "name": "watcherManager",
          "type": "address"
        }
      ],
      "name": "WatcherManagerChanged",
      "type": "event"
    },
    {
      "inputs": [],
      "name": "AMB",
      "outputs": [
        {
          "internalType": "address",
          "name": "",
          "type": "address"
        }
      ],
      "stateMutability": "view",
      "type": "function"
    },
    {
      "inputs": [],
      "name": "DOMAIN",
      "outputs": [
        {
          "internalType": "uint32",
          "name": "",
          "type": "uint32"
        }
      ],
      "stateMutability": "view",
      "type": "function"
    },
    {
      "inputs": [],
      "name": "MERKLE",
      "outputs": [
        {
          "internalType": "contract MerkleTreeManager",
          "name": "",
          "type": "address"
        }
      ],
      "stateMutability": "view",
      "type": "function"
    },
    {
      "inputs": [],
      "name": "MIRROR_DOMAIN",
      "outputs": [
        {
          "internalType": "uint32",
          "name": "",
          "type": "uint32"
        }
      ],
      "stateMutability": "view",
      "type": "function"
    },
    {
      "inputs": [],
      "name": "PROCESS_GAS",
      "outputs": [
        {
          "internalType": "uint256",
          "name": "",
          "type": "uint256"
        }
      ],
      "stateMutability": "view",
      "type": "function"
    },
    {
      "inputs": [],
      "name": "RESERVE_GAS",
      "outputs": [
        {
          "internalType": "uint256",
          "name": "",
          "type": "uint256"
        }
      ],
      "stateMutability": "view",
      "type": "function"
    },
    {
      "inputs": [],
      "name": "ROOT_MANAGER",
      "outputs": [
        {
          "internalType": "address",
          "name": "",
          "type": "address"
        }
      ],
      "stateMutability": "view",
      "type": "function"
    },
    {
      "inputs": [],
      "name": "acceptProposedOwner",
      "outputs": [],
      "stateMutability": "nonpayable",
      "type": "function"
    },
    {
      "inputs": [
        {
          "internalType": "address",
          "name": "_sender",
          "type": "address"
        }
      ],
      "name": "addSender",
      "outputs": [],
      "stateMutability": "nonpayable",
      "type": "function"
    },
    {
      "inputs": [
        {
          "internalType": "address",
          "name": "",
          "type": "address"
        }
      ],
      "name": "allowlistedSenders",
      "outputs": [
        {
          "internalType": "bool",
          "name": "",
          "type": "bool"
        }
      ],
      "stateMutability": "view",
      "type": "function"
    },
    {
      "inputs": [],
      "name": "delay",
      "outputs": [
        {
          "internalType": "uint256",
          "name": "",
          "type": "uint256"
        }
      ],
      "stateMutability": "view",
      "type": "function"
    },
    {
      "inputs": [],
      "name": "delayBlocks",
      "outputs": [
        {
          "internalType": "uint256",
          "name": "",
          "type": "uint256"
        }
      ],
      "stateMutability": "view",
      "type": "function"
    },
    {
      "inputs": [
        {
          "internalType": "uint32",
          "name": "_destinationDomain",
          "type": "uint32"
        },
        {
          "internalType": "bytes32",
          "name": "_recipientAddress",
          "type": "bytes32"
        },
        {
          "internalType": "bytes",
          "name": "_messageBody",
          "type": "bytes"
        }
      ],
      "name": "dispatch",
      "outputs": [
        {
          "internalType": "bytes32",
          "name": "",
          "type": "bytes32"
        },
        {
          "internalType": "bytes",
          "name": "",
          "type": "bytes"
        }
      ],
      "stateMutability": "nonpayable",
      "type": "function"
    },
    {
      "inputs": [],
      "name": "getLastCompletedSnapshotId",
      "outputs": [
        {
          "internalType": "uint256",
          "name": "_lastCompletedSnapshotId",
          "type": "uint256"
        }
      ],
      "stateMutability": "view",
      "type": "function"
    },
    {
      "inputs": [],
      "name": "getSnapshotDuration",
      "outputs": [
        {
          "internalType": "uint256",
          "name": "_snapshotDuration",
          "type": "uint256"
        }
      ],
      "stateMutability": "pure",
      "type": "function"
    },
    {
      "inputs": [],
      "name": "home",
      "outputs": [
        {
          "internalType": "contract IOutbox",
          "name": "",
          "type": "address"
        }
      ],
      "stateMutability": "view",
      "type": "function"
    },
    {
      "inputs": [
        {
          "internalType": "address",
          "name": "_potentialReplica",
          "type": "address"
        }
      ],
      "name": "isReplica",
      "outputs": [
        {
          "internalType": "bool",
          "name": "",
          "type": "bool"
        }
      ],
      "stateMutability": "view",
      "type": "function"
    },
    {
      "inputs": [],
      "name": "lastSentBlock",
      "outputs": [
        {
          "internalType": "uint256",
          "name": "",
          "type": "uint256"
        }
      ],
      "stateMutability": "view",
      "type": "function"
    },
    {
      "inputs": [],
      "name": "localDomain",
      "outputs": [
        {
          "internalType": "uint32",
          "name": "",
          "type": "uint32"
        }
      ],
      "stateMutability": "view",
      "type": "function"
    },
    {
      "inputs": [],
      "name": "mirrorConnector",
      "outputs": [
        {
          "internalType": "address",
          "name": "",
          "type": "address"
        }
      ],
      "stateMutability": "view",
      "type": "function"
    },
    {
      "inputs": [],
      "name": "outboundRoot",
      "outputs": [
        {
          "internalType": "bytes32",
          "name": "",
          "type": "bytes32"
        }
      ],
      "stateMutability": "view",
      "type": "function"
    },
    {
      "inputs": [],
      "name": "owner",
      "outputs": [
        {
          "internalType": "address",
          "name": "",
          "type": "address"
        }
      ],
      "stateMutability": "view",
      "type": "function"
    },
    {
      "inputs": [],
      "name": "pause",
      "outputs": [],
      "stateMutability": "nonpayable",
      "type": "function"
    },
    {
      "inputs": [],
      "name": "paused",
      "outputs": [
        {
          "internalType": "bool",
          "name": "",
          "type": "bool"
        }
      ],
      "stateMutability": "view",
      "type": "function"
    },
    {
      "inputs": [
        {
          "internalType": "bytes32",
          "name": "",
          "type": "bytes32"
        }
      ],
      "name": "pendingAggregateRoots",
      "outputs": [
        {
          "internalType": "uint256",
          "name": "",
          "type": "uint256"
        }
      ],
      "stateMutability": "view",
      "type": "function"
    },
    {
      "inputs": [
        {
          "internalType": "bytes",
          "name": "_data",
          "type": "bytes"
        }
      ],
      "name": "processMessage",
      "outputs": [],
      "stateMutability": "nonpayable",
      "type": "function"
    },
    {
      "inputs": [
        {
          "internalType": "address",
          "name": "newlyProposed",
          "type": "address"
        }
      ],
      "name": "proposeNewOwner",
      "outputs": [],
      "stateMutability": "nonpayable",
      "type": "function"
    },
    {
      "inputs": [],
      "name": "proposed",
      "outputs": [
        {
          "internalType": "address",
          "name": "",
          "type": "address"
        }
      ],
      "stateMutability": "view",
      "type": "function"
    },
    {
      "inputs": [],
      "name": "proposedTimestamp",
      "outputs": [
        {
          "internalType": "uint256",
          "name": "",
          "type": "uint256"
        }
      ],
      "stateMutability": "view",
      "type": "function"
    },
    {
      "inputs": [
        {
          "components": [
            {
              "internalType": "bytes",
              "name": "message",
              "type": "bytes"
            },
            {
              "internalType": "bytes32[32]",
              "name": "path",
              "type": "bytes32[32]"
            },
            {
              "internalType": "uint256",
              "name": "index",
              "type": "uint256"
            }
          ],
          "internalType": "struct SpokeConnector.Proof[]",
          "name": "_proofs",
          "type": "tuple[]"
        },
        {
          "internalType": "bytes32",
          "name": "_aggregateRoot",
          "type": "bytes32"
        },
        {
          "internalType": "bytes32[32]",
          "name": "_aggregatePath",
          "type": "bytes32[32]"
        },
        {
          "internalType": "uint256",
          "name": "_aggregateIndex",
          "type": "uint256"
        }
      ],
      "name": "proveAndProcess",
      "outputs": [],
      "stateMutability": "nonpayable",
      "type": "function"
    },
    {
      "inputs": [
        {
          "internalType": "bytes32",
          "name": "",
          "type": "bytes32"
        }
      ],
      "name": "provenAggregateRoots",
      "outputs": [
        {
          "internalType": "bool",
          "name": "",
          "type": "bool"
        }
      ],
      "stateMutability": "view",
      "type": "function"
    },
    {
      "inputs": [
        {
          "internalType": "bytes32",
          "name": "",
          "type": "bytes32"
        }
      ],
      "name": "provenMessageRoots",
      "outputs": [
        {
          "internalType": "bool",
          "name": "",
          "type": "bool"
        }
      ],
      "stateMutability": "view",
      "type": "function"
    },
    {
      "inputs": [],
      "name": "rateLimitBlocks",
      "outputs": [
        {
          "internalType": "uint256",
          "name": "",
          "type": "uint256"
        }
      ],
      "stateMutability": "view",
      "type": "function"
    },
    {
      "inputs": [
        {
          "internalType": "bytes32",
          "name": "_fraudulentRoot",
          "type": "bytes32"
        }
      ],
      "name": "removePendingAggregateRoot",
      "outputs": [],
      "stateMutability": "nonpayable",
      "type": "function"
    },
    {
      "inputs": [
        {
          "internalType": "address",
          "name": "_sender",
          "type": "address"
        }
      ],
      "name": "removeSender",
      "outputs": [],
      "stateMutability": "nonpayable",
      "type": "function"
    },
    {
      "inputs": [],
      "name": "renounceOwnership",
      "outputs": [],
      "stateMutability": "nonpayable",
      "type": "function"
    },
    {
      "inputs": [],
      "name": "renounced",
      "outputs": [
        {
          "internalType": "bool",
          "name": "",
          "type": "bool"
        }
      ],
      "stateMutability": "view",
      "type": "function"
    },
    {
      "inputs": [
        {
          "internalType": "bytes",
          "name": "_encodedData",
          "type": "bytes"
        }
      ],
      "name": "send",
      "outputs": [],
      "stateMutability": "payable",
      "type": "function"
    },
    {
      "inputs": [
        {
          "internalType": "bytes",
          "name": "_data",
          "type": "bytes"
        },
        {
          "internalType": "bytes",
          "name": "_encodedData",
          "type": "bytes"
        }
      ],
      "name": "sendMessage",
      "outputs": [],
      "stateMutability": "payable",
      "type": "function"
    },
    {
      "inputs": [
        {
          "internalType": "bytes32",
          "name": "",
          "type": "bytes32"
        }
      ],
      "name": "sentMessageRoots",
      "outputs": [
        {
          "internalType": "bool",
          "name": "",
          "type": "bool"
        }
      ],
      "stateMutability": "view",
      "type": "function"
    },
    {
      "inputs": [
        {
          "internalType": "uint256",
          "name": "_delayBlocks",
          "type": "uint256"
        }
      ],
      "name": "setDelayBlocks",
      "outputs": [],
      "stateMutability": "nonpayable",
      "type": "function"
    },
    {
      "inputs": [
        {
          "internalType": "address",
          "name": "_mirrorConnector",
          "type": "address"
        }
      ],
      "name": "setMirrorConnector",
      "outputs": [],
      "stateMutability": "nonpayable",
      "type": "function"
    },
    {
      "inputs": [
        {
          "internalType": "uint256",
          "name": "_rateLimit",
          "type": "uint256"
        }
      ],
      "name": "setRateLimitBlocks",
      "outputs": [],
      "stateMutability": "nonpayable",
      "type": "function"
    },
    {
      "inputs": [
        {
          "internalType": "address",
          "name": "_watcherManager",
          "type": "address"
        }
      ],
      "name": "setWatcherManager",
      "outputs": [],
      "stateMutability": "nonpayable",
      "type": "function"
    },
    {
      "inputs": [
        {
          "internalType": "uint256",
          "name": "",
          "type": "uint256"
        }
      ],
      "name": "snapshotRoots",
      "outputs": [
        {
          "internalType": "bytes32",
          "name": "",
          "type": "bytes32"
        }
      ],
      "stateMutability": "view",
      "type": "function"
    },
    {
      "inputs": [],
      "name": "unpause",
      "outputs": [],
      "stateMutability": "nonpayable",
      "type": "function"
    },
    {
      "inputs": [
        {
          "internalType": "address",
          "name": "_expected",
          "type": "address"
        }
      ],
      "name": "verifySender",
      "outputs": [
        {
          "internalType": "bool",
          "name": "",
          "type": "bool"
        }
      ],
      "stateMutability": "nonpayable",
      "type": "function"
    },
    {
      "inputs": [],
      "name": "watcherManager",
      "outputs": [
        {
          "internalType": "contract WatcherManager",
          "name": "",
          "type": "address"
        }
      ],
      "stateMutability": "view",
      "type": "function"
    },
    {
      "inputs": [
        {
          "internalType": "address",
          "name": "_to",
          "type": "address"
        }
      ],
      "name": "withdrawFunds",
      "outputs": [],
      "stateMutability": "nonpayable",
      "type": "function"
    },
    {
      "stateMutability": "payable",
      "type": "receive"
    }
  ],
  "transactionHash": "0x2e808e7220a74953962a3c794e41a8edbfc2774ed5d204dfc5d1fd9bb0161603",
  "args": [
    "1735353714",
    "1735353714",
    "0x0000000000000000000000000000000000000000",
    "0xE246385AB2807432ca869E2A7bA80638e835522E",
    "0x0000000000000000000000000000000000000000",
    {
      "type": "BigNumber",
      "hex": "0x0cf850"
    },
    {
      "type": "BigNumber",
      "hex": "0x3a98"
    },
    120,
    "0x7Eb8898153b1D1B7D956FD87cc9DE425bd501323",
    "0xEE15baa9dDf91E80A6b1189E7513A41a3BB5F062"
  ],
  "numDeployments": 1,
  "solcInputHash": "9799d331a5c5bc486a444e0cd01af9b7",
  "bytecode": "0x6101606040523480156200001257600080fd5b5060405162003d9238038062003d928339810160408190526200003591620003b0565b89898989898989898989808a8a8a8a8a6200005033620002b0565b8463ffffffff166000036200009b5760405162461bcd60e51b815260206004820152600c60248201526b32b6b83a3c903237b6b0b4b760a11b60448201526064015b60405180910390fd5b6001600160a01b038216620000e75760405162461bcd60e51b815260206004820152601160248201527032b6b83a3c903937b7ba26b0b730b3b2b960791b604482015260640162000092565b63ffffffff8086166080526001600160a01b0380851660a05283811660c05290851660e0528116156200011f576200011f8162000315565b604080516001600160a01b0385811682528481166020830152831681830152905163ffffffff86811692908816917f4f9c27c2fe3f84576ea469d367d044da53c45e951617e8389f2b5ed8db9d25f09181900360600190a350506003805460ff60a01b191690555050600480546001600160a01b0319166001600160a01b039390931692909217909155506001600755620cf84f8511620001f25760405162461bcd60e51b815260206004820152600c60248201526b2170726f636573732067617360a01b604482015260640162000092565b613a978411620002345760405162461bcd60e51b815260206004820152600c60248201526b21726573657276652067617360a01b604482015260640162000092565b6101208590526101408490526001600160a01b038216620002875760405162461bcd60e51b815260206004820152600c60248201526b217a65726f206d65726b6c6560a01b604482015260640162000092565b506001600160a01b03166101005260085550620004649f50505050505050505050505050505050565b600080546040516001600160a01b03808516939216917f8be0079c531659141344cd1fd0a4f28419497f9722a3daafe3b4186f6b6457e091a3600080546001600160a01b039092166001600160a01b0319928316178155600255600180549091169055565b600354604080516001600160a01b03928316815291831660208301527fc77bec288fc88f168427f2f7da682eadb26cac89d8d591af6e443da98dff2bbc910160405180910390a1600380546001600160a01b0319166001600160a01b0392909216919091179055565b805163ffffffff811681146200039357600080fd5b919050565b80516001600160a01b03811681146200039357600080fd5b6000806000806000806000806000806101408b8d031215620003d157600080fd5b620003dc8b6200037e565b9950620003ec60208c016200037e565b9850620003fc60408c0162000398565b97506200040c60608c0162000398565b96506200041c60808c0162000398565b955060a08b0151945060c08b0151935060e08b01519250620004426101008c0162000398565b9150620004536101208c0162000398565b90509295989b9194979a5092959850565b60805160a05160c05160e05161010051610120516101405161384062000552600039600081816103400152612187015260008181610905015281816121a8015261223a01526000818161073301528181610a8201528181610ec201528181611026015281816111720152818161187901528181611915015281816119e201528181611aaf01528181611e71015261211f015260006102d001526000818161056101528181610c2801528181611c4d0152611c920152600081816108bb0152610d160152600081816104a80152818161066f01528181611a6001528181611cb9015261208401526138406000f3fe6080604052600436106102b25760003560e01c80638456cb5911610175578063c5b350df116100dc578063d3c805b711610095578063d88beda21161006f578063d88beda2146108f3578063db1b765914610927578063e0fed01014610947578063fa31de011461096757600080fd5b8063d3c805b714610894578063d69f9d61146108a9578063d7d317b3146108dd57600080fd5b8063c5b350df146107eb578063cc39428314610800578063d1745e4f14610820578063d1851c9214610837578063d232c22014610855578063d2a3cc711461087457600080fd5b8063a01892a51161012e578063a01892a514610721578063a792c29b14610755578063ad9c0c2e14610775578063b1f8100d1461078b578063b2f87643146107ab578063b697f531146107cb57600080fd5b80638456cb591461064b5780638d3638f4146106605780638da5cb5b1461069357806398c9f2b9146106b15780639d3117c7146106e15780639fa92f9d1461070e57600080fd5b806352a9674b116102195780636159ada1116101d25780636159ada11461059b57806365eaf11b146105cb57806368742da6146105e05780636a42b8f8146106005780636b04a93314610616578063715018a61461063657600080fd5b806352a9674b14610496578063572386ca146104ca578063579c1618146104fa5780635bd11efc146105105780635c975abb146105305780635f61e3ec1461054f57600080fd5b80633f4ba83a1161026b5780633f4ba83a146103d857806348e6fa23146103ed5780634ff746f614610400578063508a109b146104205780635190bc531461044057806351cc57cc1461046957600080fd5b806314168416146102be5780631eeaabea1461030c57806325e3beda1461032e5780632bb1ae7c14610370578063301f07c3146103835780633cf52ffb146103c357600080fd5b366102b957005b600080fd5b3480156102ca57600080fd5b506102f27f000000000000000000000000000000000000000000000000000000000000000081565b60405163ffffffff90911681526020015b60405180910390f35b34801561031857600080fd5b5061032c61032736600461320c565b610995565b005b34801561033a57600080fd5b506103627f000000000000000000000000000000000000000000000000000000000000000081565b604051908152602001610303565b61032c61037e3660046132c8565b610a3f565b34801561038f57600080fd5b506103b361039e36600461320c565b600a6020526000908152604090205460ff1681565b6040519015158152602001610303565b3480156103cf57600080fd5b50600254610362565b3480156103e457600080fd5b5061032c610be0565b61032c6103fb3660046132fd565b610c1d565b34801561040c57600080fd5b5061032c61041b3660046132c8565b610d0b565b34801561042c57600080fd5b5061032c61043b366004613361565b610db1565b34801561044c57600080fd5b506103b361045b3660046133fd565b6001600160a01b0316301490565b34801561047557600080fd5b5061036261048436600461320c565b600e6020526000908152604090205481565b3480156104a257600080fd5b506102f27f000000000000000000000000000000000000000000000000000000000000000081565b3480156104d657600080fd5b506103b36104e536600461320c565b600c6020526000908152604090205460ff1681565b34801561050657600080fd5b5061036260055481565b34801561051c57600080fd5b5061032c61052b3660046133fd565b611137565b34801561053c57600080fd5b50600354600160a01b900460ff166103b3565b34801561055b57600080fd5b506105837f000000000000000000000000000000000000000000000000000000000000000081565b6040516001600160a01b039091168152602001610303565b3480156105a757600080fd5b506103b36105b63660046133fd565b600d6020526000908152604090205460ff1681565b3480156105d757600080fd5b5061036261116e565b3480156105ec57600080fd5b5061032c6105fb3660046133fd565b6111f7565b34801561060c57600080fd5b5062093a80610362565b34801561062257600080fd5b5061032c61063136600461320c565b611274565b34801561064257600080fd5b5061032c611337565b34801561065757600080fd5b5061032c611397565b34801561066c57600080fd5b507f00000000000000000000000000000000000000000000000000000000000000006102f2565b34801561069f57600080fd5b506000546001600160a01b0316610583565b3480156106bd57600080fd5b506103b36106cc36600461320c565b600b6020526000908152604090205460ff1681565b3480156106ed57600080fd5b506103626106fc36600461320c565b60096020526000908152604090205481565b34801561071a57600080fd5b5030610583565b34801561072d57600080fd5b506105837f000000000000000000000000000000000000000000000000000000000000000081565b34801561076157600080fd5b50600454610583906001600160a01b031681565b34801561078157600080fd5b5061036260085481565b34801561079757600080fd5b5061032c6107a63660046133fd565b61144b565b3480156107b757600080fd5b5061032c6107c63660046133fd565b6114e9565b3480156107d757600080fd5b5061032c6107e63660046133fd565b6115b0565b3480156107f757600080fd5b5061032c61167a565b34801561080c57600080fd5b50600354610583906001600160a01b031681565b34801561082c57600080fd5b506107084204610362565b34801561084357600080fd5b506001546001600160a01b0316610583565b34801561086157600080fd5b506000546001600160a01b0316156103b3565b34801561088057600080fd5b5061032c61088f3660046133fd565b6116ea565b3480156108a057600080fd5b50610708610362565b3480156108b557600080fd5b506105837f000000000000000000000000000000000000000000000000000000000000000081565b3480156108e957600080fd5b5061036260065481565b3480156108ff57600080fd5b506103627f000000000000000000000000000000000000000000000000000000000000000081565b34801561093357600080fd5b506103b36109423660046133fd565b6117c1565b34801561095357600080fd5b5061032c61096236600461320c565b6117d6565b34801561097357600080fd5b50610987610982366004613438565b61180a565b6040516103039291906134e1565b6000546001600160a01b031633146109c0576040516311a8a1bb60e31b815260040160405180910390fd5b6008548103610a055760405162461bcd60e51b815260206004820152600c60248201526b2164656c6179426c6f636b7360a01b60448201526064015b60405180910390fd5b60405133815281907f8bd16320f3b60336ed5fd2a770eb7453e7e71cfef4462addffd7ae9dfe201c8e9060200160405180910390a2600855565b610a47611b7d565b43600554600654610a589190613510565b1115610a77576040516346cf2af160e11b815260040160405180910390fd5b4360068190555060007f00000000000000000000000000000000000000000000000000000000000000006001600160a01b031663ebf0c7176040518163ffffffff1660e01b8152600401602060405180830381865afa158015610ade573d6000803e3d6000fd5b505050506040513d601f19601f82011682018060405250810190610b029190613523565b6000818152600c602052604090205490915060ff1615610b585760405162461bcd60e51b81526020600482015260116024820152701c9bdbdd08185b1c9958591e481cd95b9d607a1b60448201526064016109fc565b6000818152600c60209081526040808320805460ff1916600117905551610b859184910190815260200190565b6040516020818303038152906040529050610ba08184611bca565b7fdcaa37a042a0087de79018c629bbd29cee82ca80bd9be394e1696bf9e9355077818433604051610bd39392919061353c565b60405180910390a1505050565b6000546001600160a01b03163314610c0b576040516311a8a1bb60e31b815260040160405180910390fd5b610c13611d41565b610c1b611d91565b565b336001600160a01b037f00000000000000000000000000000000000000000000000000000000000000001614610c845760405162461bcd60e51b815260206004820152600c60248201526b10b937b7ba26b0b730b3b2b960a11b60448201526064016109fc565b805115610cc25760405162461bcd60e51b815260206004820152600c60248201526b042c8c2e8c240d8cadccee8d60a31b60448201526064016109fc565b610ccc8282611bca565b7fdcaa37a042a0087de79018c629bbd29cee82ca80bd9be394e1696bf9e9355077828233604051610cff9392919061353c565b60405180910390a15050565b336001600160a01b037f00000000000000000000000000000000000000000000000000000000000000001614610d6c5760405162461bcd60e51b81526004016109fc9060208082526004908201526310a0a6a160e11b604082015260600190565b610d7581611de6565b7fb3abc57bfeebd2cac918901db582f71972a8e628bccf19f5ae3e3482b98a5ced8133604051610da692919061357a565b60405180910390a150565b610db9611b7d565b610dc1611dff565b83610df85760405162461bcd60e51b81526020600482015260076024820152662170726f6f667360c81b60448201526064016109fc565b600085856000818110610e0d57610e0d6135a4565b9050602002810190610e1f91906135ba565b610e2990806135db565b604051610e37929190613629565b604051809103902090506000610e9e8288886000818110610e5a57610e5a6135a4565b9050602002810190610e6c91906135ba565b60200189896000818110610e8257610e826135a4565b9050602002810190610e9491906135ba565b6104200135611e58565b9050610eac81868686611f73565b6040516398fae8e960e01b8152600481018390527f00000000000000000000000000000000000000000000000000000000000000006001600160a01b0316906398fae8e990602401600060405180830381600087803b158015610f0e57600080fd5b505af1158015610f22573d6000803e3d6000fd5b5088925060019150505b818163ffffffff1610156110965788888263ffffffff16818110610f5257610f526135a4565b9050602002810190610f6491906135ba565b610f6e90806135db565b604051610f7c929190613629565b604051809103902093506000610fd1858b8b8563ffffffff16818110610fa457610fa46135a4565b9050602002810190610fb691906135ba565b6020018c8c8663ffffffff16818110610e8257610e826135a4565b90508381146110105760405162461bcd60e51b815260206004820152600b60248201526a085cda185c9959149bdbdd60aa1b60448201526064016109fc565b6040516398fae8e960e01b8152600481018690527f00000000000000000000000000000000000000000000000000000000000000006001600160a01b0316906398fae8e990602401600060405180830381600087803b15801561107257600080fd5b505af1158015611086573d6000803e3d6000fd5b5050505081600101915050610f2c565b5060005b818163ffffffff1610156111225761111989898363ffffffff168181106110c3576110c36135a4565b90506020028101906110d591906135ba565b6110df90806135db565b8080601f01602080910402602001604051908101604052809392919081815260200183838082843760009201919091525061206e92505050565b5060010161109a565b505050506111306001600755565b5050505050565b6000546001600160a01b03163314611162576040516311a8a1bb60e31b815260040160405180910390fd5b61116b81612353565b50565b60007f00000000000000000000000000000000000000000000000000000000000000006001600160a01b031663ebf0c7176040518163ffffffff1660e01b8152600401602060405180830381865afa1580156111ce573d6000803e3d6000fd5b505050506040513d601f19601f820116820180604052508101906111f29190613523565b905090565b6000546001600160a01b03163314611222576040516311a8a1bb60e31b815260040160405180910390fd5b4761122d82826123bc565b816001600160a01b03167feaff4b37086828766ad3268786972c0cd24259d4c87a80f9d3963a3c3d999b0d8260405161126891815260200190565b60405180910390a25050565b6000546001600160a01b0316331461129f576040516311a8a1bb60e31b815260040160405180910390fd5b6112a7611d41565b60008181526009602052604081205490036112fc5760405162461bcd60e51b8152602060048201526015602482015274616767726567617465526f6f74202165786973747360581b60448201526064016109fc565b6000818152600960205260408082208290555182917ff51534ecf10a58db36ce4f5180f59deddf3b3eb7c5e7454e602c2f80a40cc73991a250565b6000546001600160a01b03163314611362576040516311a8a1bb60e31b815260040160405180910390fd5b60405162461bcd60e51b815260206004820152600a6024820152691c1c9bda1a589a5d195960b21b60448201526064016109fc565b600480546040516384785ecd60e01b815233928101929092526001600160a01b0316906384785ecd90602401602060405180830381865afa1580156113e0573d6000803e3d6000fd5b505050506040513d601f19601f820116820180604052508101906114049190613639565b61143b5760405162461bcd60e51b815260206004820152600860248201526710bbb0ba31b432b960c11b60448201526064016109fc565b611443611b7d565b610c1b6124da565b6000546001600160a01b03163314611476576040516311a8a1bb60e31b815260040160405180910390fd5b6001546001600160a01b038281169116148015611494575060025415155b156114b2576040516311bc066560e11b815260040160405180910390fd5b6000546001600160a01b038083169116036114e057604051634a2fb73f60e11b815260040160405180910390fd5b61116b8161251d565b6000546001600160a01b03163314611514576040516311a8a1bb60e31b815260040160405180910390fd5b6001600160a01b0381166000908152600d602052604090205460ff166115675760405162461bcd60e51b815260206004820152600860248201526708585b1b1bddd95960c21b60448201526064016109fc565b6001600160a01b0381166000818152600d6020526040808220805460ff19169055517f384859c5ef5fafac31e8bc92ce7fb48b1f2c74c4dd5e212eb84ec202fa5d9fad9190a250565b6000546001600160a01b031633146115db576040516311a8a1bb60e31b815260040160405180910390fd5b6001600160a01b0381166000908152600d602052604090205460ff161561162e5760405162461bcd60e51b8152602060048201526007602482015266185b1b1bddd95960ca1b60448201526064016109fc565b6001600160a01b0381166000818152600d6020526040808220805460ff19166001179055517fd65eca5d561d3a4568c87b9b13ced4ab52a69edadfdfdb22d76bc595f36d7d879190a250565b6001546001600160a01b031633146116a5576040516311a7f27160e11b815260040160405180910390fd5b62093a80600254426116b7919061365b565b116116d5576040516324e0285f60e21b815260040160405180910390fd5b600154610c1b906001600160a01b031661256b565b6000546001600160a01b03163314611715576040516311a8a1bb60e31b815260040160405180910390fd5b6004546001600160a01b03908116908216036117735760405162461bcd60e51b815260206004820152601760248201527f616c72656164792077617463686572206d616e6167657200000000000000000060448201526064016109fc565b600480546001600160a01b0319166001600160a01b0383169081179091556040519081527fc16d059e43d7f8e29ccb4e001a2f249d3c59e274925d6a6bc3912943441d9f6c90602001610da6565b60006001600160a01b03821633145b92915050565b6000546001600160a01b03163314611801576040516311a8a1bb60e31b815260040160405180910390fd5b61116b816125d0565b336000908152600d602052604081205460609060ff1661185b5760405162461bcd60e51b815260206004820152600c60248201526b08585b1b1bdddb1a5cdd195960a21b60448201526064016109fc565b61070842046000818152600e602052604081205490036119c45760007f00000000000000000000000000000000000000000000000000000000000000006001600160a01b031663ebf0c7176040518163ffffffff1660e01b8152600401602060405180830381865afa1580156118d5573d6000803e3d6000fd5b505050506040513d601f19601f820116820180604052508101906118f99190613523565b905080600e6000848152602001908152602001600020819055507f00000000000000000000000000000000000000000000000000000000000000006001600160a01b03166306661abd6040518163ffffffff1660e01b8152600401602060405180830381865afa158015611971573d6000803e3d6000fd5b505050506040513d601f19601f820116820180604052508101906119959190613523565b604051829084907f7ab06ac7a4d1b913d3302154561c33502bc3786196bf36757232034393d6143890600090a4505b604051630c132ab560e01b815263ffffffff871660048201526000907f00000000000000000000000000000000000000000000000000000000000000006001600160a01b031690630c132ab5906024016020604051808303816000875af1158015611a33573d6000803e3d6000fd5b505050506040513d601f19601f82011682018060405250810190611a57919061366e565b90506000611a897f000000000000000000000000000000000000000000000000000000000000000033848b8b8b61264e565b80516020820120604051632d287e4360e01b8152600481018290529192509060009081907f00000000000000000000000000000000000000000000000000000000000000006001600160a01b031690632d287e439060240160408051808303816000875af1158015611aff573d6000803e3d6000fd5b505050506040513d601f19601f82011682018060405250810190611b23919061368b565b909250905081611b3460018361365b565b847f40f08ee347fc927ae45902edc87debb024aab1a311943731968607f603f2152f87604051611b6491906136af565b60405180910390a4509099919850909650505050505050565b600354600160a01b900460ff1615610c1b5760405162461bcd60e51b815260206004820152601060248201526f14185d5cd8589b194e881c185d5cd95960821b60448201526064016109fc565b805115611c085760405162461bcd60e51b815260206004820152600c60248201526b042c8c2e8c240d8cadccee8d60a31b60448201526064016109fc565b8151602014611c435760405162461bcd60e51b8152602060048201526007602482015266042d8cadccee8d60cb1b60448201526064016109fc565b6001600160a01b037f0000000000000000000000000000000000000000000000000000000000000000163303611c8857611c84611c7f836136c2565b612686565b5050565b6001600160a01b037f000000000000000000000000000000000000000000000000000000000000000016638e7d93fa7f0000000000000000000000000000000000000000000000000000000000000000611ce1856136c2565b6040516001600160e01b031960e085901b16815263ffffffff9290921660048301526024820152604401600060405180830381600087803b158015611d2557600080fd5b505af1158015611d39573d6000803e3d6000fd5b505050505050565b600354600160a01b900460ff16610c1b5760405162461bcd60e51b815260206004820152601460248201527314185d5cd8589b194e881b9bdd081c185d5cd95960621b60448201526064016109fc565b611d99611d41565b6003805460ff60a01b191690557f5db9ee0a495bf2e6ff9c91a7834c1ba4fdd244a5e8aa4e537bd38aeae4b073aa335b6040516001600160a01b03909116815260200160405180910390a1565b6040516316c2fdb560e21b815260040160405180910390fd5b600260075403611e515760405162461bcd60e51b815260206004820152601f60248201527f5265656e7472616e637947756172643a207265656e7472616e742063616c6c0060448201526064016109fc565b6002600755565b600080604051630546f34b60e21b8152600481018690527f00000000000000000000000000000000000000000000000000000000000000006001600160a01b03169063151bcd2c90602401602060405180830381865afa158015611ec0573d6000803e3d6000fd5b505050506040513d601f19601f82011682018060405250810190611ee491906136ff565b6002811115611ef557611ef56136e9565b14611f355760405162461bcd60e51b815260206004820152601060248201526f214c6561665374617475732e4e6f6e6560801b60448201526064016109fc565b611f698484602080602002604051908101604052809291908260208002808284376000920191909152508691506127a79050565b90505b9392505050565b6000848152600b602052604090205460ff1661206857611f9283612af5565b6000611fc88584602080602002604051908101604052809291908260208002808284376000920191909152508691506127a79050565b905083811461200f5760405162461bcd60e51b81526020600482015260136024820152721a5b9d985b1a59081a5b989bdd5b99149bdbdd606a1b60448201526064016109fc565b6000858152600b602052604090819020805460ff1916600117905551849086907f7ec1ea51fe3db53e55ed9d922854bc2156f467ff2f87d74e2086dae2c84a88a89061205e9086815260200190565b60405180910390a3505b50505050565b60008061207b8382612c55565b905063ffffffff7f0000000000000000000000000000000000000000000000000000000000000000166120b362ffffff198316612c79565b63ffffffff16146120f55760405162461bcd60e51b815260206004820152600c60248201526b10b232b9ba34b730ba34b7b760a11b60448201526064016109fc565b600061210662ffffff198316612c8e565b604051630b61f10360e41b8152600481018290529091507f00000000000000000000000000000000000000000000000000000000000000006001600160a01b03169063b61f103090602401600060405180830381600087803b15801561216b57600080fd5b505af115801561217f573d6000803e3d6000fd5b5050505060017f00000000000000000000000000000000000000000000000000000000000000007f00000000000000000000000000000000000000000000000000000000000000006121d19190613510565b6121db919061365b565b5a116122125760405162461bcd60e51b81526004016109fc906020808252600490820152632167617360e01b604082015260600190565b600061222362ffffff198416612cd7565b6040805161010080825261012082019092529192507f00000000000000000000000000000000000000000000000000000000000000009160009082602082018180368337019050509050600061227e62ffffff198816612ce8565b61228d62ffffff198916612cfc565b61229c62ffffff198a16612d11565b6122b96122ae62ffffff198c16612d26565b62ffffff1916612d54565b6040516024016122cc9493929190613720565b60408051601f198184030181529190526020810180516001600160e01b031663ab2dc3f560e01b1790529050612306858560008685612d9d565b604051919950925086907fd42de95a9b26f1be134c8ecce389dc4fcfa18753d01661b7b361233569e8fe489061233f908b908690613759565b60405180910390a250505050505050919050565b600354604080516001600160a01b03928316815291831660208301527fc77bec288fc88f168427f2f7da682eadb26cac89d8d591af6e443da98dff2bbc910160405180910390a1600380546001600160a01b0319166001600160a01b0392909216919091179055565b8047101561240c5760405162461bcd60e51b815260206004820152601d60248201527f416464726573733a20696e73756666696369656e742062616c616e636500000060448201526064016109fc565b6000826001600160a01b03168260405160006040518083038185875af1925050503d8060008114612459576040519150601f19603f3d011682016040523d82523d6000602084013e61245e565b606091505b50509050806124d55760405162461bcd60e51b815260206004820152603a60248201527f416464726573733a20756e61626c6520746f2073656e642076616c75652c207260448201527f6563697069656e74206d6179206861766520726576657274656400000000000060648201526084016109fc565b505050565b6124e2611b7d565b6003805460ff60a01b1916600160a01b1790557f62e78cea01bee320cd4e420270b5ea74000d11b0c9f74754ebdbfc544b05a258611dc93390565b42600255600180546001600160a01b0319166001600160a01b0383169081179091556040517f6ab4d119f23076e8ad491bc65ce85f017fb0591dce08755ba8591059cc51737a90600090a250565b600080546040516001600160a01b03808516939216917f8be0079c531659141344cd1fd0a4f28419497f9722a3daafe3b4186f6b6457e091a3600080546001600160a01b039092166001600160a01b0319928316178155600255600180549091169055565b60055481036126135760405162461bcd60e51b815260206004820152600f60248201526e085b995dc81c985d19481b1a5b5a5d608a1b60448201526064016109fc565b600581905560408051338152602081018390527f8e7fa5e406cb856aab05575e45ea011c6748376cc1b5229e3d67b92986406a159101610da6565b606086868686868660405160200161266b96959493929190613774565b60405160208183030381529060405290509695505050505050565b806126c45760405162461bcd60e51b815260206004820152600e60248201526d6e657720726f6f7420656d70747960901b60448201526064016109fc565b600081815260096020526040902054156127175760405162461bcd60e51b8152602060048201526014602482015273726f6f7420616c72656164792070656e64696e6760601b60448201526064016109fc565b6000818152600a602052604090205460ff161561276c5760405162461bcd60e51b81526020600482015260136024820152723937b7ba1030b63932b0b23c90383937bb32b760691b60448201526064016109fc565b6000818152600960205260408082204390555182917f84ef18531155afdb0e64ff905d67044ae3aac63a6fba4661cfd9c4c14f289bc891a250565b6020600582811b8216948552835194820394909452604060008181206002851615871b808503919091528386015190528181206004851615871b808503919091528286015190528181206008851615871b80850391909152606086015190528181206010851615871b8085039190915260808087015190915282822084861615881b8086039190915260a0870151905282822083861615881b8086039190915260c0870151905282822090851615871b8085039190915260e0860151905281812061010080861615881b80860392909252860151905281812061020080861615881b80860392909252610120870151909152828220610400861615881b808603919091526101408701519052828220610800861615881b808603919091526101608701519052828220611000861615881b808603919091526101808701519052828220612000861615881b808603919091526101a08701519052828220614000861615881b808603919091526101c08701519052828220618000861615881b808603919091526101e0870151905282822062010000861615881b8086039190915290860151905281812062020000851615871b80850391909152610220860151905281812062040000851615871b80850391909152610240860151905281812062080000851615871b80850391909152610260860151905281812062100000851615871b80850391909152610280860151905281812062200000851615871b808503919091526102a0860151905281812062400000851615871b808503919091526102c0860151905281812062800000851615871b808503919091526102e086015190528181206301000000851615871b8085039190915261030086015190528181206302000000851615871b8085039190915261032086015190528181206304000000851615871b8085039190915261034086015190528181206308000000851615871b8085039190915261036086015190528181206310000000851615871b8085039190915261038086015190528181206320000000851615871b808503919091526103a086015190528181206340000000851615871b808503919091526103c0860151905281812063800000009094161590951b91829003929092526103e090920151909152902090565b80612b385760405162461bcd60e51b8152602060048201526013602482015272616767726567617465526f6f7420656d70747960681b60448201526064016109fc565b6000818152600a602052604090205460ff1615612b525750565b60008181526009602052604081205490819003612ba85760405162461bcd60e51b81526020600482015260146024820152731859d9dc9959d85d19549bdbdd0808595e1a5cdd60621b60448201526064016109fc565b600854612bb5824361365b565b1015612c035760405162461bcd60e51b815260206004820152601760248201527f616767726567617465526f6f742021766572696669656400000000000000000060448201526064016109fc565b6000828152600a6020526040808220805460ff191660011790555183917f36b314aba9f663b4d3ef3288ae489341cc5e6a2725a05fa2b72df7a27e03f42a91a250600090815260096020526040812055565b815160009060208401612c7064ffffffffff85168284612e28565b95945050505050565b60006117d062ffffff19831660286004612e65565b600080612ca48360781c6001600160601b031690565b6001600160601b031690506000612cc48460181c6001600160601b031690565b6001600160601b03169091209392505050565b60006117d0612ce583612e95565b90565b60006117d062ffffff198316826004612e65565b60006117d062ffffff19831660246004612e65565b60006117d062ffffff19831660046020612ea6565b60006117d0604c612d4481601886901c6001600160601b031661365b565b62ffffff19851691906000612fb1565b6060600080612d6c8460181c6001600160601b031690565b6001600160601b031690506040519150819250612d8c848360200161302d565b508181016020016040529052919050565b6000606060008060008661ffff1667ffffffffffffffff811115612dc357612dc3613225565b6040519080825280601f01601f191660200182016040528015612ded576020820181803683370190505b5090506000808751602089018b8e8ef191503d925086831115612e0e578692505b828152826000602083013e90999098509650505050505050565b600080612e358385613510565b9050604051811115612e45575060005b80600003612e5a5762ffffff19915050611f6c565b612c70858585613120565b6000612e728260206137ce565b612e7d9060086137e7565b60ff16612e8b858585612ea6565b901c949350505050565b60006117d062ffffff198316602c60205b60008160ff16600003612ebb57506000611f6c565b612ece8460181c6001600160601b031690565b6001600160601b0316612ee460ff841685613510565b1115612f4c57612efd8460781c6001600160601b031690565b612f108560181c6001600160601b031690565b6040516378218d2960e01b81526001600160601b039283166004820152911660248201526044810184905260ff831660648201526084016109fc565b60208260ff161115612f715760405163045df3f960e01b815260040160405180910390fd5b600882026000612f8a8660781c6001600160601b031690565b6001600160601b031690506000600160ff1b60001984011d91909501511695945050505050565b600080612fc78660781c6001600160601b031690565b6001600160601b03169050612fdb86613197565b84612fe68784613510565b612ff09190613510565b11156130035762ffffff19915050613025565b61300d8582613510565b90506130218364ffffffffff168286612e28565b9150505b949350505050565b600062ffffff19808416036130555760405163148d513360e21b815260040160405180910390fd5b61305e836131d0565b1561307c57604051632ee0949160e11b815260040160405180910390fd5b60006130918460181c6001600160601b031690565b6001600160601b0316905060006130b18560781c6001600160601b031690565b6001600160601b031690506000806040519150858211156130d25760206060fd5b8386858560045afa9050806130fa57604051632af1bd9b60e21b815260040160405180910390fd5b6131156131078860d81c90565b64ffffffffff168786613120565b979650505050505050565b60006060601883856001600160601b03821682148015613148575086816001600160601b0316145b6131815760405162461bcd60e51b815260206004820152600a602482015269085d1c9d5b98d85d195960b21b60448201526064016109fc565b96831b90961790911b90941790931b9392505050565b60006131ac8260181c6001600160601b031690565b6131bf8360781c6001600160601b031690565b016001600160601b03169050919050565b60006131dc8260d81c90565b64ffffffffff1664ffffffffff036131f657506001919050565b600061320183613197565b604051109392505050565b60006020828403121561321e57600080fd5b5035919050565b634e487b7160e01b600052604160045260246000fd5b600082601f83011261324c57600080fd5b813567ffffffffffffffff8082111561326757613267613225565b604051601f8301601f19908116603f0116810190828211818310171561328f5761328f613225565b816040528381528660208588010111156132a857600080fd5b836020870160208301376000602085830101528094505050505092915050565b6000602082840312156132da57600080fd5b813567ffffffffffffffff8111156132f157600080fd5b6130258482850161323b565b6000806040838503121561331057600080fd5b823567ffffffffffffffff8082111561332857600080fd5b6133348683870161323b565b9350602085013591508082111561334a57600080fd5b506133578582860161323b565b9150509250929050565b6000806000806000610460868803121561337a57600080fd5b853567ffffffffffffffff8082111561339257600080fd5b818801915088601f8301126133a657600080fd5b8135818111156133b557600080fd5b8960208260051b85010111156133ca57600080fd5b6020928301975095505086013592506104408601878111156133eb57600080fd5b94979396509194604001933592915050565b60006020828403121561340f57600080fd5b81356001600160a01b0381168114611f6c57600080fd5b63ffffffff8116811461116b57600080fd5b60008060006060848603121561344d57600080fd5b833561345881613426565b925060208401359150604084013567ffffffffffffffff81111561347b57600080fd5b6134878682870161323b565b9150509250925092565b60005b838110156134ac578181015183820152602001613494565b50506000910152565b600081518084526134cd816020860160208601613491565b601f01601f19169290920160200192915050565b828152604060208201526000611f6960408301846134b5565b634e487b7160e01b600052601160045260246000fd5b808201808211156117d0576117d06134fa565b60006020828403121561353557600080fd5b5051919050565b60608152600061354f60608301866134b5565b828103602084015261356181866134b5565b91505060018060a01b0383166040830152949350505050565b60408152600061358d60408301856134b5565b905060018060a01b03831660208301529392505050565b634e487b7160e01b600052603260045260246000fd5b6000823561043e198336030181126135d157600080fd5b9190910192915050565b6000808335601e198436030181126135f257600080fd5b83018035915067ffffffffffffffff82111561360d57600080fd5b60200191503681900382131561362257600080fd5b9250929050565b8183823760009101908152919050565b60006020828403121561364b57600080fd5b81518015158114611f6c57600080fd5b818103818111156117d0576117d06134fa565b60006020828403121561368057600080fd5b8151611f6c81613426565b6000806040838503121561369e57600080fd5b505080516020909101519092909150565b602081526000611f6c60208301846134b5565b805160208083015191908110156136e3576000198160200360031b1b821691505b50919050565b634e487b7160e01b600052602160045260246000fd5b60006020828403121561371157600080fd5b815160038110611f6c57600080fd5b600063ffffffff80871683528086166020840152508360408301526080606083015261374f60808301846134b5565b9695505050505050565b8215158152604060208201526000611f6960408301846134b5565b600063ffffffff60e01b808960e01b168352876004840152808760e01b166024840152808660e01b1660288401525083602c83015282516137bc81604c850160208701613491565b91909101604c01979650505050505050565b60ff82811682821603908111156117d0576117d06134fa565b60ff8181168382160290811690818114613803576138036134fa565b509291505056fea26469706673582212206a24872caf1778d1b15b2d51e91f20d525479cec1abb99a27e0949ca4fd9836b64736f6c63430008110033",
  "devdoc": {
    "kind": "dev",
    "methods": {
      "addSender(address)": {
        "details": "Only allowlisted routers (senders) can call `dispatch`.",
        "params": {
          "_sender": "Sender to whitelist"
        }
      },
      "dispatch(uint32,bytes32,bytes)": {
        "details": "The root of this tree will eventually be dispatched to mainnet via `send`. On mainnet (the \"hub\"), it will be combined into a single aggregate root by RootManager (along with outbound roots from other chains). This aggregate root will be redistributed to all destination chains.This function is also in charge of saving the snapshot root when needed. If the message being added to the tree is the first of the current period this means the last snapshot finished and its root must be saved. The saving happens before adding the new message to the tree. NOTE: okay to leave dispatch operational when paused as pause is designed for crosschain interactions",
        "params": {
          "_destinationDomain": "Domain message is intended for",
          "_messageBody": "Message contents",
          "_recipientAddress": "Address for message recipient"
        }
      },
      "getLastCompletedSnapshotId()": {
        "details": "The value is calculated through an internal function to reuse code and save gas",
        "returns": {
          "_lastCompletedSnapshotId": "The last completed snapshot id"
        }
      },
      "getSnapshotDuration()": {
        "returns": {
          "_snapshotDuration": "The duration of the snapshot"
        }
      },
      "home()": {
        "details": "The local inbox contract is a SpokeConnector with AMBs, and a Home contract with nomad",
        "returns": {
          "_0": "The local inbox contract"
        }
      },
      "isReplica(address)": {
        "returns": {
          "_0": "True if _potentialReplica is an enrolled Replica"
        }
      },
      "paused()": {
        "details": "Returns true if the contract is paused, and false otherwise."
      },
      "processMessage(bytes)": {
        "details": "This is called by AMBs to process messages originating from mirror connector"
      },
      "proveAndProcess((bytes,bytes32[32],uint256)[],bytes32,bytes32[32],uint256)": {
        "details": "Currently, ALL messages in a given batch must path to the same shared inboundRoot, meaning they must all share an origin. See open TODO below for a potential solution to enable multi-origin batches.Intended to be called by the relayer at specific intervals during runtime.Will record a calculated root as having been proven if we've already proven that it was included in the aggregateRoot.",
        "params": {
          "_aggregateIndex": "Index of the inbound root in the aggregator's merkle tree in the hub.",
          "_aggregatePath": "Merkle path of inclusion for the inbound root.",
          "_aggregateRoot": "The target aggregate root we want to prove inclusion for. This root must have already been delivered to this spoke connector contract and surpassed the validation period.",
          "_proofs": "Batch of Proofs containing messages for proving/processing."
        }
      },
      "removePendingAggregateRoot(bytes32)": {
        "details": "This method is required for handling fraud cases in the current construction. Specifically, this will protect against a fraudulent aggregate root getting transported, not fraudulent roots that constitute a given aggregate root (i.e. can protect against fraudulent hub -> spoke transport, not spoke -> hub transport).",
        "params": {
          "_fraudulentRoot": "Target fraudulent root that should be erased from the `pendingAggregateRoots` mapping."
        }
      },
      "removeSender(address)": {
        "details": "Only allowlisted routers (senders) can call `dispatch`.",
        "params": {
          "_sender": "Sender to remove from whitelist"
        }
      },
      "renounceOwnership()": {
        "details": "Renounce ownership should be impossible as long as it is impossible in the WatcherClient, and as long as only the owner can remove pending roots in case of fraud."
      },
      "send(bytes)": {
        "params": {
          "_encodedData": "Data needed to send crosschain message by associated amb"
        }
      },
      "sendMessage(bytes,bytes)": {
        "details": "This is called by the root manager *only* on mainnet to propagate the aggregate rootGet 'Base constructor arguments given twice' when trying to inherit"
      },
      "setDelayBlocks(uint256)": {
        "params": {
          "_delayBlocks": "Updated delay block value"
        }
      },
      "setRateLimitBlocks(uint256)": {
        "details": "Rate limit is used to mitigate DoS vectors. (See `RateLimited` for more info.)",
        "params": {
          "_rateLimit": "The number of blocks require between sending messages. If set to 0, rate limiting for this spoke connector will be disabled."
        }
      },
      "withdrawFunds(address)": {
        "details": "Withdraws the entire balance of the contract.",
        "params": {
          "_to": "The recipient of the funds withdrawn"
        }
      }
    },
    "version": 1
  },
  "userdoc": {
    "events": {
      "AggregateRootReceived(bytes32)": {
        "notice": "Emitted when a new aggregate root is delivered from the hub"
      },
      "AggregateRootRemoved(bytes32)": {
        "notice": "Emitted when a proposed aggregate root is removed by admin"
      },
      "AggregateRootVerified(bytes32)": {
        "notice": "Emitted when an aggregate root has made it through the fraud period without being disputed"
      },
      "DelayBlocksUpdated(uint256,address)": {
        "notice": "Emitted when the admin updates the delay blocks"
      },
      "Dispatch(bytes32,uint256,bytes32,bytes)": {
        "notice": "Emitted when a message is sent (leaf added to outbound root)"
      },
      "FundsWithdrawn(address,uint256)": {
        "notice": "Emitted when funds are withdrawn by the admin"
      },
      "MessageProcessed(bytes,address)": {
        "notice": "Emitted whenever a message is successfully received over an AMB"
      },
      "MessageProven(bytes32,bytes32,uint256)": {
        "notice": "Emitted when a message (outbound root from different spoke) is proven against the aggregate root"
      },
      "MessageSent(bytes,bytes,address)": {
        "notice": "Emitted whenever a message is successfully sent over an AMB"
      },
      "Process(bytes32,bool,bytes)": {
        "notice": "Emitted when a message is handled (this is the destination domain)"
      },
      "SenderAdded(address)": {
        "notice": "Emitted when a new sender is whitelisted for messaging"
      },
      "SenderRemoved(address)": {
        "notice": "Emitted when a new sender is de-whitelisted for messaging"
      },
      "WatcherManagerChanged(address)": {
        "notice": "Emitted when the manager address changes"
      }
    },
    "kind": "user",
    "methods": {
      "AMB()": {
        "notice": "Address of the AMB on this domain."
      },
      "DOMAIN()": {
        "notice": "The domain of this Messaging (i.e. Connector) contract."
      },
      "MERKLE()": {
        "notice": "MerkleTreeManager contract instance. Will hold the active tree of message hashes, whose root will be sent crosschain to the hub for aggregation and redistribution."
      },
      "MIRROR_DOMAIN()": {
        "notice": "The domain of the corresponding messaging (i.e. Connector) contract."
      },
      "PROCESS_GAS()": {
        "notice": "Minimum gas for processing a received message (reserved for handle)"
      },
      "RESERVE_GAS()": {
        "notice": "Reserved gas (to ensure tx completes in case message processing runs out)"
      },
      "ROOT_MANAGER()": {
        "notice": "RootManager contract address."
      },
      "acceptProposedOwner()": {
        "notice": "Transfers ownership of the contract to a new account (`newOwner`). Can only be called by the current owner."
      },
      "addSender(address)": {
        "notice": "Adds a sender to the allowlist."
      },
      "allowlistedSenders(address)": {
        "notice": "Records all whitelisted senders"
      },
      "delay()": {
        "notice": "Returns the delay period before a new owner can be accepted."
      },
      "delayBlocks()": {
        "notice": "Number of blocks to delay the processing of a message to allow for watchers to verify the validity and pause if necessary."
      },
      "dispatch(uint32,bytes32,bytes)": {
        "notice": "This function adds transfers to the outbound transfer merkle tree."
      },
      "getLastCompletedSnapshotId()": {
        "notice": "This function gets the last completed snapshot id"
      },
      "getSnapshotDuration()": {
        "notice": "Get the duration of the snapshot"
      },
      "home()": {
        "notice": "Get the local inbox contract from the xAppConnectionManager"
      },
      "isReplica(address)": {
        "notice": "Determine whether _potentialReplica is an enrolled Replica from the xAppConnectionManager"
      },
      "lastSentBlock()": {
        "notice": "Tracks the last block that we sent a message."
      },
      "localDomain()": {
        "notice": "This provides the implementation for what is defined in the ConnectorManager to avoid storing the domain redundantly"
      },
      "mirrorConnector()": {
        "notice": "Connector on L2 for L1 connectors, and vice versa."
      },
      "outboundRoot()": {
        "notice": "This returns the root of all messages with the origin domain as this domain (i.e. all outbound messages)"
      },
      "owner()": {
        "notice": "Returns the address of the current owner."
      },
      "pause()": {
        "notice": "Watchers can pause contracts if fraud is detected"
      },
      "pendingAggregateRoots(bytes32)": {
        "notice": "This will hold the commit block for incoming aggregateRoots from the hub chain. Once they are verified, (i.e. have surpassed the verification period in `delayBlocks`) they can be used for proving inclusion of crosschain messages."
      },
      "processMessage(bytes)": {
        "notice": "Processes a message received by an AMB"
      },
      "proposeNewOwner(address)": {
        "notice": "Sets the timestamp for an owner to be proposed, and sets the newly proposed owner as step 1 in a 2-step process"
      },
      "proposed()": {
        "notice": "Returns the address of the proposed owner."
      },
      "proposedTimestamp()": {
        "notice": "Returns the address of the proposed owner."
      },
      "proveAndProcess((bytes,bytes32[32],uint256)[],bytes32,bytes32[32],uint256)": {
        "notice": "Must be able to call the `handle` function on the BridgeRouter contract. This is called on the destination domain to handle incoming messages. Proving: Calculates the expected inbound root from an origin chain given a leaf (message hash), the index of the leaf, and the merkle proof of inclusion (path). Next, we check to ensure that this calculated inbound root is included in the current aggregateRoot, given its index in the aggregator tree and the proof of inclusion. Processing: After all messages have been proven, we dispatch each message to Connext (BridgeRouter) for execution."
      },
      "provenAggregateRoots(bytes32)": {
        "notice": "This tracks the roots of the aggregate tree containing outbound roots from all other supported domains. The current version is the one that is known to be past the delayBlocks time period."
      },
      "provenMessageRoots(bytes32)": {
        "notice": "This tracks whether the root has been proven to exist within the given aggregate root."
      },
      "rateLimitBlocks()": {
        "notice": "The number of blocks required between message sending events."
      },
      "removePendingAggregateRoot(bytes32)": {
        "notice": "Manually remove a pending aggregateRoot by owner if the contract is paused."
      },
      "removeSender(address)": {
        "notice": "Removes a sender from the allowlist."
      },
      "renounceOwnership()": {
        "notice": "Remove ability to renounce ownership"
      },
      "renounced()": {
        "notice": "Indicates if the ownership has been renounced() by checking if current owner is address(0)"
      },
      "send(bytes)": {
        "notice": "This dispatches outbound root to hub via AMB"
      },
      "sendMessage(bytes,bytes)": {
        "notice": "Sends a message over the amb"
      },
      "sentMessageRoots(bytes32)": {
        "notice": "This mapping records all message roots that have already been sent in order to prevent redundant message roots from being sent to hub."
      },
      "setDelayBlocks(uint256)": {
        "notice": "Set the `delayBlocks`, the period in blocks over which an incoming message is verified."
      },
      "setMirrorConnector(address)": {
        "notice": "Sets the address of the l2Connector for this domain"
      },
      "setRateLimitBlocks(uint256)": {
        "notice": "Set the rate limit (number of blocks) at which we can send messages from this contract to the hub chain using the `send` method."
      },
      "setWatcherManager(address)": {
        "notice": "Owner can enroll a watcher (abilities are defined by inheriting contracts)"
      },
      "snapshotRoots(uint256)": {
        "notice": "Mapping of the snapshot roots for a specific index. Used for data availability for off-chain scripts"
      },
      "unpause()": {
        "notice": "Owner can unpause contracts if fraud is detected by watchers"
      },
      "verifySender(address)": {
        "notice": "Checks the cross domain sender for a given address"
      },
      "watcherManager()": {
        "notice": "The `WatcherManager` contract governs the watcher allowlist."
      },
      "withdrawFunds(address)": {
        "notice": "This function should be callable by owner, and send funds trapped on a connector to the provided recipient."
      }
    },
    "version": 1
  },
  "storageLayout": {
    "storage": [
      {
        "astId": 45351,
        "contract": "contracts/messaging/connectors/mainnet/MainnetSpokeConnector.sol:MainnetSpokeConnector",
        "label": "_owner",
        "offset": 0,
        "slot": "0",
        "type": "t_address"
      },
      {
        "astId": 45353,
        "contract": "contracts/messaging/connectors/mainnet/MainnetSpokeConnector.sol:MainnetSpokeConnector",
        "label": "_proposed",
        "offset": 0,
        "slot": "1",
        "type": "t_address"
      },
      {
        "astId": 45355,
        "contract": "contracts/messaging/connectors/mainnet/MainnetSpokeConnector.sol:MainnetSpokeConnector",
        "label": "_proposedOwnershipTimestamp",
        "offset": 0,
        "slot": "2",
        "type": "t_uint256"
      },
      {
        "astId": 34105,
        "contract": "contracts/messaging/connectors/mainnet/MainnetSpokeConnector.sol:MainnetSpokeConnector",
        "label": "mirrorConnector",
        "offset": 0,
        "slot": "3",
        "type": "t_address"
      },
      {
        "astId": 2738,
        "contract": "contracts/messaging/connectors/mainnet/MainnetSpokeConnector.sol:MainnetSpokeConnector",
        "label": "_paused",
        "offset": 20,
        "slot": "3",
        "type": "t_bool"
      },
      {
        "astId": 33859,
        "contract": "contracts/messaging/connectors/mainnet/MainnetSpokeConnector.sol:MainnetSpokeConnector",
        "label": "watcherManager",
        "offset": 0,
        "slot": "4",
        "type": "t_contract(WatcherManager)34050"
      },
      {
        "astId": 45256,
        "contract": "contracts/messaging/connectors/mainnet/MainnetSpokeConnector.sol:MainnetSpokeConnector",
        "label": "rateLimitBlocks",
        "offset": 0,
        "slot": "5",
        "type": "t_uint256"
      },
      {
        "astId": 45259,
        "contract": "contracts/messaging/connectors/mainnet/MainnetSpokeConnector.sol:MainnetSpokeConnector",
        "label": "lastSentBlock",
        "offset": 0,
        "slot": "6",
        "type": "t_uint256"
      },
      {
        "astId": 2839,
        "contract": "contracts/messaging/connectors/mainnet/MainnetSpokeConnector.sol:MainnetSpokeConnector",
        "label": "_status",
        "offset": 0,
        "slot": "7",
        "type": "t_uint256"
      },
      {
        "astId": 34641,
        "contract": "contracts/messaging/connectors/mainnet/MainnetSpokeConnector.sol:MainnetSpokeConnector",
        "label": "delayBlocks",
        "offset": 0,
        "slot": "8",
        "type": "t_uint256"
      },
      {
        "astId": 34656,
        "contract": "contracts/messaging/connectors/mainnet/MainnetSpokeConnector.sol:MainnetSpokeConnector",
        "label": "pendingAggregateRoots",
        "offset": 0,
        "slot": "9",
        "type": "t_mapping(t_bytes32,t_uint256)"
      },
      {
        "astId": 34661,
        "contract": "contracts/messaging/connectors/mainnet/MainnetSpokeConnector.sol:MainnetSpokeConnector",
        "label": "provenAggregateRoots",
        "offset": 0,
        "slot": "10",
        "type": "t_mapping(t_bytes32,t_bool)"
      },
      {
        "astId": 34666,
        "contract": "contracts/messaging/connectors/mainnet/MainnetSpokeConnector.sol:MainnetSpokeConnector",
        "label": "provenMessageRoots",
        "offset": 0,
        "slot": "11",
        "type": "t_mapping(t_bytes32,t_bool)"
      },
      {
        "astId": 34671,
        "contract": "contracts/messaging/connectors/mainnet/MainnetSpokeConnector.sol:MainnetSpokeConnector",
        "label": "sentMessageRoots",
        "offset": 0,
        "slot": "12",
        "type": "t_mapping(t_bytes32,t_bool)"
      },
      {
        "astId": 34676,
        "contract": "contracts/messaging/connectors/mainnet/MainnetSpokeConnector.sol:MainnetSpokeConnector",
        "label": "allowlistedSenders",
        "offset": 0,
        "slot": "13",
        "type": "t_mapping(t_address,t_bool)"
      },
      {
        "astId": 34681,
        "contract": "contracts/messaging/connectors/mainnet/MainnetSpokeConnector.sol:MainnetSpokeConnector",
        "label": "snapshotRoots",
        "offset": 0,
        "slot": "14",
        "type": "t_mapping(t_uint256,t_bytes32)"
      }
    ],
    "types": {
      "t_address": {
        "encoding": "inplace",
        "label": "address",
        "numberOfBytes": "20"
      },
      "t_bool": {
        "encoding": "inplace",
        "label": "bool",
        "numberOfBytes": "1"
      },
      "t_bytes32": {
        "encoding": "inplace",
        "label": "bytes32",
        "numberOfBytes": "32"
      },
      "t_contract(WatcherManager)34050": {
        "encoding": "inplace",
        "label": "contract WatcherManager",
        "numberOfBytes": "20"
      },
      "t_mapping(t_address,t_bool)": {
        "encoding": "mapping",
        "key": "t_address",
        "label": "mapping(address => bool)",
        "numberOfBytes": "32",
        "value": "t_bool"
      },
      "t_mapping(t_bytes32,t_bool)": {
        "encoding": "mapping",
        "key": "t_bytes32",
        "label": "mapping(bytes32 => bool)",
        "numberOfBytes": "32",
        "value": "t_bool"
      },
      "t_mapping(t_bytes32,t_uint256)": {
        "encoding": "mapping",
        "key": "t_bytes32",
        "label": "mapping(bytes32 => uint256)",
        "numberOfBytes": "32",
        "value": "t_uint256"
      },
      "t_mapping(t_uint256,t_bytes32)": {
        "encoding": "mapping",
        "key": "t_uint256",
        "label": "mapping(uint256 => bytes32)",
        "numberOfBytes": "32",
        "value": "t_bytes32"
      },
      "t_uint256": {
        "encoding": "inplace",
        "label": "uint256",
        "numberOfBytes": "32"
      }
    }
  }
}