{
  "address": "0xd71471c42e57dDEb17892eA68Ce42E3d0542dB94",
  "abi": [
    {
      "inputs": [
        {
          "components": [
            {
              "internalType": "address",
              "name": "target",
              "type": "address"
            },
            {
              "internalType": "bytes",
              "name": "callData",
              "type": "bytes"
            }
          ],
          "internalType": "struct Multicall.Call[]",
          "name": "calls",
          "type": "tuple[]"
        }
      ],
      "name": "aggregate",
      "outputs": [
        {
          "internalType": "uint256",
          "name": "blockNumber",
          "type": "uint256"
        },
        {
          "internalType": "bytes[]",
          "name": "returnData",
          "type": "bytes[]"
        }
      ],
      "stateMutability": "view",
      "type": "function"
    }
  ],
  "transactionHash": "0x27787fc866a828631033ce520279d033c555d37cf2717cba959dd6bd501e09d3",
  "args": [],
  "numDeployments": 1,
  "solcInputHash": "03adb43df54f3ca66409dad7334e0a0f",
  "bytecode": "0x608060405234801561001057600080fd5b506104b6806100206000396000f3fe608060405234801561001057600080fd5b506004361061002b5760003560e01c8063252dba4214610030575b600080fd5b61004361003e366004610208565b61005a565b6040516100519291906103a5565b60405180910390f35b8051439060609067ffffffffffffffff81111561007957610079610198565b6040519080825280602002602001820160405280156100ac57816020015b60608152602001906001900390816100975790505b50905060005b8351811015610192576000808583815181106100d0576100d0610427565b6020026020010151600001516001600160a01b03168684815181106100f7576100f7610427565b602002602001015160200151604051610110919061043d565b600060405180830381855afa9150503d806000811461014b576040519150601f19603f3d011682016040523d82523d6000602084013e610150565b606091505b50915091508161015f57600080fd5b8084848151811061017257610172610427565b60200260200101819052505050808061018a90610459565b9150506100b2565b50915091565b634e487b7160e01b600052604160045260246000fd5b6040805190810167ffffffffffffffff811182821017156101d1576101d1610198565b60405290565b604051601f8201601f1916810167ffffffffffffffff8111828210171561020057610200610198565b604052919050565b6000602080838503121561021b57600080fd5b823567ffffffffffffffff8082111561023357600080fd5b818501915085601f83011261024757600080fd5b81358181111561025957610259610198565b8060051b6102688582016101d7565b918252838101850191858101908984111561028257600080fd5b86860192505b83831015610368578235858111156102a05760008081fd5b86016040601f19828d0381018213156102b95760008081fd5b6102c16101ae565b838b01356001600160a01b03811681146102db5760008081fd5b815283830135898111156102ef5760008081fd5b8085019450508d603f8501126103055760008081fd5b8a8401358981111561031957610319610198565b6103298c84601f840116016101d7565b92508083528e848287010111156103405760008081fd5b808486018d85013760009083018c0152808b0191909152845250509186019190860190610288565b9998505050505050505050565b60005b83811015610390578181015183820152602001610378565b8381111561039f576000848401525b50505050565b600060408201848352602060408185015281855180845260608601915060608160051b870101935082870160005b8281101561041957878603605f19018452815180518088526103fa81888a01898501610375565b601f01601f1916969096018501955092840192908401906001016103d3565b509398975050505050505050565b634e487b7160e01b600052603260045260246000fd5b6000825161044f818460208701610375565b9190910192915050565b60006001820161047957634e487b7160e01b600052601160045260246000fd5b506001019056fea264697066735822122053fbdf02a18c07adb708e18e9b7e0e212e4c700f12bc839922ce0777a77e7e4e64736f6c634300080f0033",
  "devdoc": {
    "kind": "dev",
    "methods": {},
    "title": "Multicall - Aggregate results from multiple read-only function calls",
    "version": 1
  },
  "userdoc": {
    "kind": "user",
    "methods": {},
    "version": 1
  },
  "storageLayout": {
    "storage": [],
    "types": null
  }
}