{
  "address": "0x885DE7121e515673B31b6494c54879ddD198eADb",
  "abi": [
    {
      "inputs": [
        {
          "internalType": "uint32",
          "name": "_domain",
          "type": "uint32"
        },
        {
          "internalType": "uint32",
          "name": "_mirrorDomain",
          "type": "uint32"
        },
        {
          "internalType": "address",
          "name": "_amb",
          "type": "address"
        },
        {
          "internalType": "address",
          "name": "_rootManager",
          "type": "address"
        },
        {
          "internalType": "address",
          "name": "_mirrorConnector",
          "type": "address"
        },
        {
          "internalType": "uint256",
          "name": "_mirrorProcessGas",
          "type": "uint256"
        },
        {
          "internalType": "uint256",
          "name": "_processGas",
          "type": "uint256"
        },
        {
          "internalType": "uint256",
          "name": "_reserveGas",
          "type": "uint256"
        },
        {
          "internalType": "address",
          "name": "_checkPointManager",
          "type": "address"
        }
      ],
      "stateMutability": "nonpayable",
      "type": "constructor"
    },
    {
      "inputs": [],
      "name": "ProposedOwnable__acceptProposedOwner_delayNotElapsed",
      "type": "error"
    },
    {
      "inputs": [],
      "name": "ProposedOwnable__onlyOwner_notOwner",
      "type": "error"
    },
    {
      "inputs": [],
      "name": "ProposedOwnable__onlyProposed_notProposedOwner",
      "type": "error"
    },
    {
      "inputs": [],
      "name": "ProposedOwnable__proposeNewOwner_invalidProposal",
      "type": "error"
    },
    {
      "inputs": [],
      "name": "ProposedOwnable__proposeNewOwner_noOwnershipChange",
      "type": "error"
    },
    {
      "inputs": [],
      "name": "ProposedOwnable__renounceOwnership_delayNotElapsed",
      "type": "error"
    },
    {
      "inputs": [],
      "name": "ProposedOwnable__renounceOwnership_invalidProposal",
      "type": "error"
    },
    {
      "inputs": [],
      "name": "ProposedOwnable__renounceOwnership_noProposal",
      "type": "error"
    },
    {
      "anonymous": false,
      "inputs": [
        {
          "indexed": false,
          "internalType": "bytes32",
          "name": "current",
          "type": "bytes32"
        },
        {
          "indexed": false,
          "internalType": "bytes32",
          "name": "previous",
          "type": "bytes32"
        }
      ],
      "name": "AggregateRootUpdated",
      "type": "event"
    },
    {
      "anonymous": false,
      "inputs": [
        {
          "indexed": false,
          "internalType": "bytes32",
          "name": "leaf",
          "type": "bytes32"
        },
        {
          "indexed": false,
          "internalType": "uint256",
          "name": "index",
          "type": "uint256"
        },
        {
          "indexed": false,
          "internalType": "bytes32",
          "name": "root",
          "type": "bytes32"
        },
        {
          "indexed": false,
          "internalType": "bytes",
          "name": "message",
          "type": "bytes"
        }
      ],
      "name": "Dispatch",
      "type": "event"
    },
    {
      "anonymous": false,
      "inputs": [
        {
          "indexed": false,
          "internalType": "bytes",
          "name": "data",
          "type": "bytes"
        },
        {
          "indexed": false,
          "internalType": "address",
          "name": "caller",
          "type": "address"
        }
      ],
      "name": "MessageProcessed",
      "type": "event"
    },
    {
      "anonymous": false,
      "inputs": [
        {
          "indexed": false,
          "internalType": "bytes",
          "name": "data",
          "type": "bytes"
        },
        {
          "indexed": false,
          "internalType": "address",
          "name": "caller",
          "type": "address"
        }
      ],
      "name": "MessageSent",
      "type": "event"
    },
    {
      "anonymous": false,
      "inputs": [
        {
          "indexed": false,
          "internalType": "address",
          "name": "previous",
          "type": "address"
        },
        {
          "indexed": false,
          "internalType": "address",
          "name": "current",
          "type": "address"
        }
      ],
      "name": "MirrorConnectorUpdated",
      "type": "event"
    },
    {
      "anonymous": false,
      "inputs": [
        {
          "indexed": true,
          "internalType": "address",
          "name": "proposedOwner",
          "type": "address"
        }
      ],
      "name": "OwnershipProposed",
      "type": "event"
    },
    {
      "anonymous": false,
      "inputs": [
        {
          "indexed": true,
          "internalType": "address",
          "name": "previousOwner",
          "type": "address"
        },
        {
          "indexed": true,
          "internalType": "address",
          "name": "newOwner",
          "type": "address"
        }
      ],
      "name": "OwnershipTransferred",
      "type": "event"
    },
    {
      "anonymous": false,
      "inputs": [
        {
          "indexed": false,
          "internalType": "bytes32",
          "name": "leaf",
          "type": "bytes32"
        },
        {
          "indexed": false,
          "internalType": "bool",
          "name": "success",
          "type": "bool"
        },
        {
          "indexed": false,
          "internalType": "bytes",
          "name": "returnData",
          "type": "bytes"
        }
      ],
      "name": "Process",
      "type": "event"
    },
    {
      "anonymous": false,
      "inputs": [
        {
          "indexed": false,
          "internalType": "address",
          "name": "sender",
          "type": "address"
        }
      ],
      "name": "SenderAdded",
      "type": "event"
    },
    {
      "anonymous": false,
      "inputs": [
        {
          "indexed": false,
          "internalType": "address",
          "name": "sender",
          "type": "address"
        }
      ],
      "name": "SenderRemoved",
      "type": "event"
    },
    {
      "inputs": [],
      "name": "AMB",
      "outputs": [
        {
          "internalType": "address",
          "name": "",
          "type": "address"
        }
      ],
      "stateMutability": "view",
      "type": "function"
    },
    {
      "inputs": [],
      "name": "DOMAIN",
      "outputs": [
        {
          "internalType": "uint32",
          "name": "",
          "type": "uint32"
        }
      ],
      "stateMutability": "view",
      "type": "function"
    },
    {
      "inputs": [],
      "name": "PROCESS_GAS",
      "outputs": [
        {
          "internalType": "uint256",
          "name": "",
          "type": "uint256"
        }
      ],
      "stateMutability": "view",
      "type": "function"
    },
    {
      "inputs": [],
      "name": "RESERVE_GAS",
      "outputs": [
        {
          "internalType": "uint256",
          "name": "",
          "type": "uint256"
        }
      ],
      "stateMutability": "view",
      "type": "function"
    },
    {
      "inputs": [],
      "name": "ROOT_MANAGER",
      "outputs": [
        {
          "internalType": "address",
          "name": "",
          "type": "address"
        }
      ],
      "stateMutability": "view",
      "type": "function"
    },
    {
      "inputs": [],
      "name": "SEND_MESSAGE_EVENT_SIG",
      "outputs": [
        {
          "internalType": "bytes32",
          "name": "",
          "type": "bytes32"
        }
      ],
      "stateMutability": "view",
      "type": "function"
    },
    {
      "inputs": [],
      "name": "acceptProposedOwner",
      "outputs": [],
      "stateMutability": "nonpayable",
      "type": "function"
    },
    {
      "inputs": [
        {
          "internalType": "address",
          "name": "_sender",
          "type": "address"
        }
      ],
      "name": "addSender",
      "outputs": [],
      "stateMutability": "nonpayable",
      "type": "function"
    },
    {
      "inputs": [],
      "name": "aggregateRoot",
      "outputs": [
        {
          "internalType": "bytes32",
          "name": "",
          "type": "bytes32"
        }
      ],
      "stateMutability": "view",
      "type": "function"
    },
    {
      "inputs": [],
      "name": "checkpointManager",
      "outputs": [
        {
          "internalType": "contract ICheckpointManager",
          "name": "",
          "type": "address"
        }
      ],
      "stateMutability": "view",
      "type": "function"
    },
    {
      "inputs": [],
      "name": "count",
      "outputs": [
        {
          "internalType": "uint256",
          "name": "",
          "type": "uint256"
        }
      ],
      "stateMutability": "view",
      "type": "function"
    },
    {
      "inputs": [],
      "name": "delay",
      "outputs": [
        {
          "internalType": "uint256",
          "name": "",
          "type": "uint256"
        }
      ],
      "stateMutability": "view",
      "type": "function"
    },
    {
      "inputs": [
        {
          "internalType": "uint32",
          "name": "_destinationDomain",
          "type": "uint32"
        },
        {
          "internalType": "bytes32",
          "name": "_recipientAddress",
          "type": "bytes32"
        },
        {
          "internalType": "bytes",
          "name": "_messageBody",
          "type": "bytes"
        }
      ],
      "name": "dispatch",
      "outputs": [],
      "stateMutability": "nonpayable",
      "type": "function"
    },
    {
      "inputs": [],
      "name": "domain",
      "outputs": [
        {
          "internalType": "uint32",
          "name": "",
          "type": "uint32"
        }
      ],
      "stateMutability": "view",
      "type": "function"
    },
    {
      "inputs": [],
      "name": "fxChildTunnel",
      "outputs": [
        {
          "internalType": "address",
          "name": "",
          "type": "address"
        }
      ],
      "stateMutability": "view",
      "type": "function"
    },
    {
      "inputs": [],
      "name": "fxRoot",
      "outputs": [
        {
          "internalType": "contract IFxStateSender",
          "name": "",
          "type": "address"
        }
      ],
      "stateMutability": "view",
      "type": "function"
    },
    {
      "inputs": [],
      "name": "home",
      "outputs": [
        {
          "internalType": "contract Connector",
          "name": "",
          "type": "address"
        }
      ],
      "stateMutability": "view",
      "type": "function"
    },
    {
      "inputs": [
        {
          "internalType": "address",
          "name": "_potentialReplica",
          "type": "address"
        }
      ],
      "name": "isReplica",
      "outputs": [
        {
          "internalType": "bool",
          "name": "",
          "type": "bool"
        }
      ],
      "stateMutability": "view",
      "type": "function"
    },
    {
      "inputs": [],
      "name": "localDomain",
      "outputs": [
        {
          "internalType": "uint32",
          "name": "",
          "type": "uint32"
        }
      ],
      "stateMutability": "view",
      "type": "function"
    },
    {
      "inputs": [
        {
          "internalType": "bytes32",
          "name": "",
          "type": "bytes32"
        }
      ],
      "name": "messages",
      "outputs": [
        {
          "internalType": "enum Connector.MessageStatus",
          "name": "",
          "type": "uint8"
        }
      ],
      "stateMutability": "view",
      "type": "function"
    },
    {
      "inputs": [],
      "name": "mirrorConnector",
      "outputs": [
        {
          "internalType": "address",
          "name": "",
          "type": "address"
        }
      ],
      "stateMutability": "view",
      "type": "function"
    },
    {
      "inputs": [],
      "name": "mirrorDomain",
      "outputs": [
        {
          "internalType": "uint32",
          "name": "",
          "type": "uint32"
        }
      ],
      "stateMutability": "view",
      "type": "function"
    },
    {
      "inputs": [],
      "name": "mirrorProcessGas",
      "outputs": [
        {
          "internalType": "uint256",
          "name": "",
          "type": "uint256"
        }
      ],
      "stateMutability": "view",
      "type": "function"
    },
    {
      "inputs": [
        {
          "internalType": "uint32",
          "name": "",
          "type": "uint32"
        }
      ],
      "name": "nonces",
      "outputs": [
        {
          "internalType": "uint32",
          "name": "",
          "type": "uint32"
        }
      ],
      "stateMutability": "view",
      "type": "function"
    },
    {
      "inputs": [],
      "name": "outboundRoot",
      "outputs": [
        {
          "internalType": "bytes32",
          "name": "",
          "type": "bytes32"
        }
      ],
      "stateMutability": "view",
      "type": "function"
    },
    {
      "inputs": [],
      "name": "owner",
      "outputs": [
        {
          "internalType": "address",
          "name": "",
          "type": "address"
        }
      ],
      "stateMutability": "view",
      "type": "function"
    },
    {
      "inputs": [
        {
          "internalType": "bytes",
          "name": "_data",
          "type": "bytes"
        }
      ],
      "name": "processMessage",
      "outputs": [],
      "stateMutability": "nonpayable",
      "type": "function"
    },
    {
      "inputs": [
        {
          "internalType": "bytes32",
          "name": "",
          "type": "bytes32"
        }
      ],
      "name": "processedExits",
      "outputs": [
        {
          "internalType": "bool",
          "name": "",
          "type": "bool"
        }
      ],
      "stateMutability": "view",
      "type": "function"
    },
    {
      "inputs": [
        {
          "internalType": "address",
          "name": "newlyProposed",
          "type": "address"
        }
      ],
      "name": "proposeNewOwner",
      "outputs": [],
      "stateMutability": "nonpayable",
      "type": "function"
    },
    {
      "inputs": [],
      "name": "proposed",
      "outputs": [
        {
          "internalType": "address",
          "name": "",
          "type": "address"
        }
      ],
      "stateMutability": "view",
      "type": "function"
    },
    {
      "inputs": [],
      "name": "proposedTimestamp",
      "outputs": [
        {
          "internalType": "uint256",
          "name": "",
          "type": "uint256"
        }
      ],
      "stateMutability": "view",
      "type": "function"
    },
    {
      "inputs": [
        {
          "internalType": "bytes",
          "name": "_message",
          "type": "bytes"
        },
        {
          "internalType": "bytes32[32]",
          "name": "_proof",
          "type": "bytes32[32]"
        },
        {
          "internalType": "uint256",
          "name": "_index",
          "type": "uint256"
        }
      ],
      "name": "proveAndProcess",
      "outputs": [],
      "stateMutability": "nonpayable",
      "type": "function"
    },
    {
      "inputs": [
        {
          "internalType": "bytes32",
          "name": "",
          "type": "bytes32"
        }
      ],
      "name": "provenRoots",
      "outputs": [
        {
          "internalType": "bool",
          "name": "",
          "type": "bool"
        }
      ],
      "stateMutability": "view",
      "type": "function"
    },
    {
      "inputs": [
        {
          "internalType": "bytes",
          "name": "inputData",
          "type": "bytes"
        }
      ],
      "name": "receiveMessage",
      "outputs": [],
      "stateMutability": "nonpayable",
      "type": "function"
    },
    {
      "inputs": [
        {
          "internalType": "address",
          "name": "_sender",
          "type": "address"
        }
      ],
      "name": "removeSender",
      "outputs": [],
      "stateMutability": "nonpayable",
      "type": "function"
    },
    {
      "inputs": [],
      "name": "renounceOwnership",
      "outputs": [],
      "stateMutability": "nonpayable",
      "type": "function"
    },
    {
      "inputs": [],
      "name": "renounced",
      "outputs": [
        {
          "internalType": "bool",
          "name": "",
          "type": "bool"
        }
      ],
      "stateMutability": "view",
      "type": "function"
    },
    {
      "inputs": [],
      "name": "root",
      "outputs": [
        {
          "internalType": "bytes32",
          "name": "",
          "type": "bytes32"
        }
      ],
      "stateMutability": "view",
      "type": "function"
    },
    {
      "inputs": [],
      "name": "send",
      "outputs": [],
      "stateMutability": "nonpayable",
      "type": "function"
    },
    {
      "inputs": [
        {
          "internalType": "bytes",
          "name": "_data",
          "type": "bytes"
        }
      ],
      "name": "sendMessage",
      "outputs": [],
      "stateMutability": "nonpayable",
      "type": "function"
    },
    {
      "inputs": [
        {
          "internalType": "address",
          "name": "_fxChildTunnel",
          "type": "address"
        }
      ],
      "name": "setFxChildTunnel",
      "outputs": [],
      "stateMutability": "nonpayable",
      "type": "function"
    },
    {
      "inputs": [
        {
          "internalType": "address",
          "name": "_mirrorConnector",
          "type": "address"
        }
      ],
      "name": "setMirrorConnector",
      "outputs": [],
      "stateMutability": "nonpayable",
      "type": "function"
    },
    {
      "inputs": [],
      "name": "tree",
      "outputs": [
        {
          "internalType": "uint256",
          "name": "count",
          "type": "uint256"
        }
      ],
      "stateMutability": "view",
      "type": "function"
    },
    {
      "inputs": [
        {
          "internalType": "address",
          "name": "_expected",
          "type": "address"
        }
      ],
      "name": "verifySender",
      "outputs": [
        {
          "internalType": "bool",
          "name": "",
          "type": "bool"
        }
      ],
      "stateMutability": "nonpayable",
      "type": "function"
    },
    {
      "inputs": [
        {
          "internalType": "address",
          "name": "",
          "type": "address"
        }
      ],
      "name": "whitelistedSenders",
      "outputs": [
        {
          "internalType": "bool",
          "name": "",
          "type": "bool"
        }
      ],
      "stateMutability": "view",
      "type": "function"
    }
  ],
  "transactionHash": "0x587cbc26a8d95255a08bf121edd20b3f2f7bf1251e5975fa2b64e95f55203126",
  "args": [
    "1735353714",
    "9991",
    "0x3d1d3E34f7fB6D26245E6640E1c50710eFFf15bA",
    "0x65815676Ef7419C6F79024C2322ca224f1C84d8f",
    "0x0000000000000000000000000000000000000000",
    "850000",
    "850000",
    "15000",
    "0x2890bA17EfE978480615e330ecB65333b880928e"
  ],
  "numDeployments": 1,
  "solcInputHash": "139f6a212a299a89eb3a6a1d185e8514",
  "bytecode": "0x6101606040523480156200001257600080fd5b506040516200443038038062004430833981016040819052620000359162000364565b80878a8a8a8a8a8a8a8a878063ffffffff16600003620000865760405162461bcd60e51b815260206004820152600760248201526610b237b6b0b4b760c91b60448201526064015b60405180910390fd5b63ffffffff9081166080528816620000cb5760405162461bcd60e51b815260206004820152600760248201526610b237b6b0b4b760c91b60448201526064016200007d565b6001600160a01b038516620001125760405162461bcd60e51b815260206004820152600c60248201526b10b937b7ba26b0b730b3b2b960a11b60448201526064016200007d565b6200011d3362000243565b63ffffffff88811660a0526001600160a01b0387811660c05286811660e05290881661010052602480546001600160a01b0319169186169190911790556025839055620cf850821015620001a35760405162461bcd60e51b815260206004820152600c60248201526b2170726f636573732067617360a01b60448201526064016200007d565b613a98811015620001e65760405162461bcd60e51b815260206004820152600c60248201526b21726573657276652067617360a01b60448201526064016200007d565b61012091909152610140525050602d80546001600160a01b039788166001600160a01b031991821617909155602c8054969097169516949094179094555062000234925087915050620002a2565b50505050505050505062000404565b600080546001600160a01b038381166001600160a01b0319808416821785556002859055600180549091169055604051919092169283917f8be0079c531659141344cd1fd0a4f28419497f9722a3daafe3b4186f6b6457e09190a35050565b602e546001600160a01b031615620003105760405162461bcd60e51b815260206004820152602a60248201527f467842617365526f6f7454756e6e656c3a204348494c445f54554e4e454c5f4160448201526913149150511657d4d15560b21b60648201526084016200007d565b602e80546001600160a01b0319166001600160a01b0392909216919091179055565b805163ffffffff811681146200034757600080fd5b919050565b80516001600160a01b03811681146200034757600080fd5b60008060008060008060008060006101208a8c0312156200038457600080fd5b6200038f8a62000332565b98506200039f60208b0162000332565b9750620003af60408b016200034c565b9650620003bf60608b016200034c565b9550620003cf60808b016200034c565b945060a08a0151935060c08a0151925060e08a01519150620003f56101008b016200034c565b90509295985092959850929598565b60805160a05160c05160e051610100516101205161014051613f9962000497600039600081816102c70152610eb701526000818161061401528181610ed80152610f5f01526000818161035a01526114a70152600081816104090152611480015260006105ed0152600081816103cf01528181610c710152610db90152600081816104a801526105880152613f996000f3fe608060405234801561001057600080fd5b506004361061027f5760003560e01c80639fa92f9d1161015c578063d1851c92116100ce578063ebf0c71711610087578063ebf0c7171461065c578063ee250e0614610664578063f38a267b1461066d578063f953cec714610690578063fa31de01146106a3578063fd54b228146106b657600080fd5b8063d1851c92146105c5578063d232c220146105d6578063d69f9d61146105e8578063d88beda21461060f578063db1b765914610636578063de9b771f1461064957600080fd5b8063b697f53111610120578063b697f53114610537578063b95a20011461054a578063c0857ba014610570578063c2fb26a614610583578063c5b350df146105aa578063cc394283146105b257600080fd5b80639fa92f9d146104f0578063aea4e49e146104f6578063b1f8100d14610509578063b2f876431461051c578063b46300ec1461052f57600080fd5b80635bd11efc116101f55780636a42b8f8116101b95780636a42b8f814610482578063715018a61461048b57806382646a58146104935780638d3638f4146104a65780638da5cb5b146104cc578063972c4928146104dd57600080fd5b80635bd11efc146103f15780635f61e3ec14610404578063607f2d42146104435780636188af0e1461046657806365eaf11b1461047957600080fd5b80632bbd59ca116102475780632bbd59ca146103255780633490334a146103555780633cf52ffb146103915780634ff746f6146103995780635190bc53146103ae57806352a9674b146103ca57600080fd5b806306661abd146102845780630e387de61461029b57806325e3beda146102c2578063272efc69146102e957806329460bd01461031c575b600080fd5b6023545b6040519081526020015b60405180910390f35b6102887f8c5261668696ce22758910d05bab8f186d6eb247ceac2af2e82c7dc17669b03681565b6102887f000000000000000000000000000000000000000000000000000000000000000081565b61030c6102f736600461371e565b60296020526000908152604090205460ff1681565b6040519015158152602001610292565b61028860255481565b61034861033336600461373b565b602b6020526000908152604090205460ff1681565b604051610292919061376a565b61037c7f000000000000000000000000000000000000000000000000000000000000000081565b60405163ffffffff9091168152602001610292565b600254610288565b6103ac6103a7366004613855565b6106c0565b005b61030c6103bc36600461371e565b6001600160a01b0316301490565b61037c7f000000000000000000000000000000000000000000000000000000000000000081565b6103ac6103ff36600461371e565b6106fc565b61042b7f000000000000000000000000000000000000000000000000000000000000000081565b6040516001600160a01b039091168152602001610292565b61030c61045136600461373b565b602f6020526000908152604090205460ff1681565b6103ac610474366004613889565b610790565b61028860275481565b62093a80610288565b6103ac6107eb565b6103ac6104a1366004613855565b6108aa565b7f000000000000000000000000000000000000000000000000000000000000000061037c565b6000546001600160a01b031661042b565b602e5461042b906001600160a01b031681565b3061042b565b6103ac61050436600461371e565b6108e4565b6103ac61051736600461371e565b610972565b6103ac61052a36600461371e565b610a1a565b6103ac610a96565b6103ac61054536600461371e565b610ac2565b61037c610558366004613901565b602a6020526000908152604090205463ffffffff1681565b602d5461042b906001600160a01b031681565b61037c7f000000000000000000000000000000000000000000000000000000000000000081565b6103ac610b41565b60245461042b906001600160a01b031681565b6001546001600160a01b031661042b565b6000546001600160a01b03161561030c565b61042b7f000000000000000000000000000000000000000000000000000000000000000081565b6102887f000000000000000000000000000000000000000000000000000000000000000081565b61030c61064436600461371e565b610b9c565b602c5461042b906001600160a01b031681565b610288610ba7565b61028860265481565b61030c61067b36600461373b565b60286020526000908152604090205460ff1681565b6103ac61069e366004613855565b610bb8565b6103ac6106b136600461391c565b610bd2565b6023546102889081565b7fb3abc57bfeebd2cac918901db582f71972a8e628bccf19f5ae3e3482b98a5ced81336040516106f19291906139ca565b60405180910390a150565b6000546001600160a01b03163314610727576040516311a8a1bb60e31b815260040160405180910390fd5b602454604080516001600160a01b03928316815291831660208301527fc77bec288fc88f168427f2f7da682eadb26cac89d8d591af6e443da98dff2bbc910160405180910390a1602480546001600160a01b0319166001600160a01b0392909216919091179055565b6107a283805190602001208383610d15565b6107dc5760405162461bcd60e51b81526020600482015260066024820152652170726f766560d01b60448201526064015b60405180910390fd5b6107e583610da3565b50505050565b6000546001600160a01b03163314610816576040516311a8a1bb60e31b815260040160405180910390fd5b60025460000361083957604051630e4b303f60e21b815260040160405180910390fd5b62093a806002544261084b9190613a0a565b11610869576040516386d4b3f160e01b815260040160405180910390fd5b6001546001600160a01b031615610893576040516323295ef960e01b815260040160405180910390fd5b6001546108a8906001600160a01b031661108c565b565b6108b3816110eb565b7fa69577a1e55dd0712044e7078b408c39fadff8b3e1b334b202ff17e70eda9fdc81336040516106f19291906139ca565b602e546001600160a01b0316156109505760405162461bcd60e51b815260206004820152602a60248201527f467842617365526f6f7454756e6e656c3a204348494c445f54554e4e454c5f4160448201526913149150511657d4d15560b21b60648201526084016107d3565b602e80546001600160a01b0319166001600160a01b0392909216919091179055565b6000546001600160a01b0316331461099d576040516311a8a1bb60e31b815260040160405180910390fd5b6001546001600160a01b0382811691161480156109c257506001600160a01b03811615155b156109e0576040516311bc066560e11b815260040160405180910390fd5b6000546001600160a01b03808316911603610a0e57604051634a2fb73f60e11b815260040160405180910390fd5b610a17816110f4565b50565b6000546001600160a01b03163314610a45576040516311a8a1bb60e31b815260040160405180910390fd5b6001600160a01b038116600081815260296020908152604091829020805460ff1916905590519182527f384859c5ef5fafac31e8bc92ce7fb48b1f2c74c4dd5e212eb84ec202fa5d9fad91016106f1565b6108a8602754604051602001610aae91815260200190565b6040516020818303038152906040526110eb565b6000546001600160a01b03163314610aed576040516311a8a1bb60e31b815260040160405180910390fd5b6001600160a01b038116600081815260296020908152604091829020805460ff1916600117905590519182527fd65eca5d561d3a4568c87b9b13ced4ab52a69edadfdfdb22d76bc595f36d7d8791016106f1565b6001546001600160a01b03163314610b6c576040516311a7f27160e11b815260040160405180910390fd5b62093a8060025442610b7e9190613a0a565b116108935760405163d39c12bb60e01b815260040160405180910390fd5b600060015b92915050565b6000610bb36003611142565b905090565b6000610bc382611155565b9050610bce8161143b565b5050565b3360009081526029602052604090205460ff16610c205760405162461bcd60e51b815260206004820152600c60248201526b085dda1a5d195b1a5cdd195960a21b60448201526064016107d3565b63ffffffff8084166000908152602a602052604090205416610c43816001613a21565b63ffffffff8581166000908152602a60205260408120805463ffffffff191693909216929092179055610c9a7f0000000000000000000000000000000000000000000000000000000000000000338488888861155c565b80516020820120909150610caf600382611594565b610cb7610ba7565b6027557f40f08ee347fc927ae45902edc87debb024aab1a311943731968607f603f2152f816001610ce760235490565b610cf19190613a0a565b60275485604051610d059493929190613a49565b60405180910390a1505050505050565b6000806000858152602b602052604090205460ff166002811115610d3b57610d3b613754565b14610d7e5760405162461bcd60e51b8152602060048201526013602482015272214d6573736167655374617475732e4e6f6e6560681b60448201526064016107d3565b506000838152602b60205260409020805460ff191660019081179091555b9392505050565b600080610db083826116b1565b905063ffffffff7f000000000000000000000000000000000000000000000000000000000000000016610de862ffffff1983166116d5565b63ffffffff1614610e2a5760405162461bcd60e51b815260206004820152600c60248201526b10b232b9ba34b730ba34b7b760a11b60448201526064016107d3565b6000610e3b62ffffff1983166116ea565b905060016000828152602b602052604090205460ff166002811115610e6257610e62613754565b14610e995760405162461bcd60e51b815260206004820152600760248201526610b83937bb32b760c91b60448201526064016107d3565b6000818152602b60205260409020805460ff19166002179055610efc7f00000000000000000000000000000000000000000000000000000000000000007f0000000000000000000000000000000000000000000000000000000000000000613a6e565b5a1015610f345760405162461bcd60e51b81526004016107d3906020808252600490820152632167617360e01b604082015260600190565b6000610f4562ffffff198416611733565b6040805161010080825261012082019092529192506000917f0000000000000000000000000000000000000000000000000000000000000000908390836020820181803683370190505090506000610fa262ffffff198916611744565b610fb162ffffff198a16611758565b610fc062ffffff198b1661176d565b610fdd610fd262ffffff198d16611782565b62ffffff19166117b0565b604051602401610ff09493929190613a86565b60408051601f198184030181529190526020810180516001600160e01b031663ab2dc3f560e01b17815281519192506000918291828a88f198503d945083851115611039578394505b848252846000602084013e7fd42de95a9b26f1be134c8ecce389dc4fcfa18753d01661b7b361233569e8fe48878a8460405161107793929190613ab5565b60405180910390a15050505050505050919050565b600080546001600160a01b038381166001600160a01b0319808416821785556002859055600180549091169055604051919092169283917f8be0079c531659141344cd1fd0a4f28419497f9722a3daafe3b4186f6b6457e09190a35050565b610a17816117f9565b42600255600180546001600160a01b0319166001600160a01b0383169081179091556040517f6ab4d119f23076e8ad491bc65ce85f017fb0591dce08755ba8591059cc51737a90600090a250565b6000610ba182611150611864565b611d25565b6060600061116283611df7565b9050600061116f82611e56565b9050600061117c83611e7f565b905060008161118a84611ea8565b61119386612064565b6040516020016111a593929190613ad6565b60408051601f1981840301815291815281516020928301206000818152602f90935291205490915060ff16156112295760405162461bcd60e51b8152602060048201526024808201527f4678526f6f7454756e6e656c3a20455849545f414c52454144595f50524f434560448201526314d4d15160e21b60648201526084016107d3565b6000818152602f60205260408120805460ff1916600117905561124b85612080565b90506000611258826121c9565b905061126381612259565b602e546001600160a01b039081169116146112ce5760405162461bcd60e51b815260206004820152602560248201527f4678526f6f7454756e6e656c3a20494e56414c49445f46585f4348494c445f54604482015264155393915360da1b60648201526084016107d3565b60006112d987612282565b90506112f96112e9846020015190565b876112f38a61229e565b846122ba565b6113515760405162461bcd60e51b815260206004820152602360248201527f4678526f6f7454756e6e656c3a20494e56414c49445f524543454950545f505260448201526227a7a360e91b60648201526084016107d3565b61137f8561135e8961256d565b6113678a612589565b846113718c6125a5565b61137a8d6125c1565b6125dd565b50600061138b83612703565b90507f8c5261668696ce22758910d05bab8f186d6eb247ceac2af2e82c7dc17669b0366113c16113bc83600061273f565b612777565b1461140e5760405162461bcd60e51b815260206004820152601f60248201527f4678526f6f7454756e6e656c3a20494e56414c49445f5349474e41545552450060448201526064016107d3565b6000611419846127f2565b80602001905181019061142c9190613b03565b9b9a5050505050505050505050565b80516020146114765760405162461bcd60e51b8152602060048201526007602482015266042d8cadccee8d60cb1b60448201526064016107d3565b6001600160a01b037f0000000000000000000000000000000000000000000000000000000000000000166378ffd0a17f00000000000000000000000000000000000000000000000000000000000000006114cf84613b70565b6040516001600160e01b031960e085901b16815263ffffffff9290921660048301526024820152604401600060405180830381600087803b15801561151357600080fd5b505af1158015611527573d6000803e3d6000fd5b505050507fb3abc57bfeebd2cac918901db582f71972a8e628bccf19f5ae3e3482b98a5ced81336040516106f19291906139ca565b606086868686868660405160200161157996959493929190613b94565b60405160208183030381529060405290509695505050505050565b60016115a260206002613cd2565b6115ac9190613a0a565b8260200154106115f15760405162461bcd60e51b815260206004820152601060248201526f1b595c9adb19481d1c995948199d5b1b60821b60448201526064016107d3565b60018260200160008282546116069190613a6e565b9091555050602082015460005b60208110156116a35781600116600103611642578284826020811061163a5761163a613cde565b015550505050565b83816020811061165457611654613cde565b0154604080516020810192909252810184905260600160405160208183030381529060405280519060200120925060028261168f9190613d0a565b91508061169b81613d1e565b915050611613565b506116ac613d37565b505050565b8151600090602084016116cc64ffffffffff8516828461280e565b95945050505050565b6000610ba162ffffff19831660286004612855565b6000806117008360781c6001600160601b031690565b6001600160601b0316905060006117208460181c6001600160601b031690565b6001600160601b03169091209392505050565b6000610ba161174183612885565b90565b6000610ba162ffffff198316826004612855565b6000610ba162ffffff19831660246004612855565b6000610ba162ffffff19831660046020612896565b6000610ba1604c6117a081601886901c6001600160601b0316613a0a565b62ffffff198516919060006129f2565b60606000806117c88460181c6001600160601b031690565b6001600160601b0316905060405191508192506117e88483602001612a6c565b508181016020016040529052919050565b602c54602e5460405163b472047760e01b81526001600160a01b039283169263b47204779261182f929116908590600401613d4d565b600060405180830381600087803b15801561184957600080fd5b505af115801561185d573d6000803e3d6000fd5b5050505050565b61186c6136ea565b600081527fad3228b676f7d3cd4284a5443f17f1962b36e491b30a40b2405849e597ba5fb560208201527fb4c11951957c6f8f642c4af61cd6b24640fec6dc7fc607ee8206a99e92410d3060408201527f21ddb9a356815c3fac1026b6dec5df3124afbadb485c9ba5a3e3398a04b7ba8560608201527fe58769b32a1beaf1ea27375a44095a0d1fb664ce2dd358e7fcbfb78c26a1934460808201527f0eb01ebfc9ed27500cd4dfc979272d1f0913cc9f66540d7e8005811109e1cf2d60a08201527f887c22bd8750d34016ac3c66b5ff102dacdd73f6b014e710b51e8022af9a196860c08201527fffd70157e48063fc33c97a050f7f640233bf646cc98d9524c6b92bcf3ab56f8360e08201527f9867cc5f7f196b93bae1e27e6320742445d290f2263827498b54fec539f756af6101008201527fcefad4e508c098b9a7e1d8feb19955fb02ba9675585078710969d3440f5054e06101208201527ff9dc3e7fe016e050eff260334f18a5d4fe391d82092319f5964f2e2eb7c1c3a56101408201527ff8b13a49e282f609c317a833fb8d976d11517c571d1221a265d25af778ecf8926101608201527f3490c6ceeb450aecdc82e28293031d10c7d73bf85e57bf041a97360aa2c5d99c6101808201527fc1df82d9c4b87413eae2ef048f94b4d3554cea73d92b0f7af96e0271c691e2bb6101a08201527f5c67add7c6caf302256adedf7ab114da0acfe870d449a3a489f781d659e8becc6101c08201527fda7bce9f4e8618b6bd2f4132ce798cdc7a60e7e1460a7299e3c6342a579626d26101e08201527f2733e50f526ec2fa19a22b31e8ed50f23cd1fdf94c9154ed3a7609a2f1ff981f6102008201527fe1d3b5c807b281e4683cc6d6315cf95b9ade8641defcb32372f1c126e398ef7a6102208201527f5a2dce0a8a7f68bb74560f8f71837c2c2ebbcbf7fffb42ae1896f13f7c7479a06102408201527fb46a28b6f55540f89444f63de0378e3d121be09e06cc9ded1c20e65876d36aa06102608201527fc65e9645644786b620e2dd2ad648ddfcbf4a7e5b1a3a4ecfe7f64667a3f0b7e26102808201527ff4418588ed35a2458cffeb39b93d26f18d2ab13bdce6aee58e7b99359ec2dfd96102a08201527f5a9c16dc00d6ef18b7933a6f8dc65ccb55667138776f7dea101070dc8796e3776102c08201527f4df84f40ae0c8229d0d6069e5c8f39a7c299677a09d367fc7b05e3bc380ee6526102e08201527fcdc72595f74c7b1043d0e1ffbab734648c838dfb0527d971b602bc216c9619ef6103008201527f0abf5ac974a1ed57f4050aa510dd9c74f508277b39d7973bb2dfccc5eeb0618d6103208201527fb8cd74046ff337f0a7bf2c8e03e10f642c1886798d71806ab1e888d9e5ee87d06103408201527f838c5655cb21c6cb83313b5a631175dff4963772cce9108188b34ac87c81c41e6103608201527f662ee4dd2dd7b2bc707961b1e646c4047669dcb6584f0d8d770daf5d7e7deb2e6103808201527f388ab20e2573d171a88108e79d820e98f26c0b84aa8b2f4aa4968dbb818ea3226103a08201527f93237c50ba75ee485f4c22adf2f741400bdf8d6a9cc7df7ecae576221665d7356103c08201527f8448818bb4ae4562849e949e17ac16e0be16688e156b5cf15e098c627c0056a96103e082015290565b6020820154600090815b6020811015611def57600182821c166000868360208110611d5257611d52613cde565b0154905081600103611d8f576040805160208101839052908101869052606001604051602081830303815290604052805190602001209450611dda565b84868460208110611da257611da2613cde565b6020020151604051602001611dc1929190918252602082015260400190565b6040516020818303038152906040528051906020012094505b50508080611de790613d1e565b915050611d2f565b505092915050565b6040805160208101909152606081526000611e41611e3c8460408051808201825260008082526020918201528151808301909252825182529182019181019190915290565b612bc3565b60408051602081019091529081529392505050565b6060610ba18260000151600881518110611e7257611e72613cde565b6020026020010151612cd8565b6000610ba18260000151600281518110611e9b57611e9b613cde565b6020026020010151612777565b60408051602081019091526000815281516060919015610ba157600080611ed0600086612d74565b60f81c90506001811480611ee757508060ff166003145b15611f8e57600185516002611efc9190613d71565b611f069190613a0a565b6001600160401b03811115611f1d57611f1d613792565b6040519080825280601f01601f191660200182016040528015611f47576020820181803683370190505b5092506000611f57600187612d74565b90508084600081518110611f6d57611f6d613cde565b60200101906001600160f81b031916908160001a9053506001925050611ff1565b600285516002611f9e9190613d71565b611fa89190613a0a565b6001600160401b03811115611fbf57611fbf613792565b6040519080825280601f01601f191660200182016040528015611fe9576020820181803683370190505b509250600091505b60ff82165b835181101561205b5761202061200f60ff851683613a0a565b61201a906002613a6e565b87612d74565b84828151811061203257612032613cde565b60200101906001600160f81b031916908160001a9053508061205381613d1e565b915050611ff6565b50505092915050565b6000610ba18260000151600981518110611e9b57611e9b613cde565b6120a460405180606001604052806060815260200160608152602001600081525090565b6120be8260000151600681518110611e7257611e72613cde565b6020828101829052604080518082018252600080825290830152805180820190915282518152918101908201526120f481612df5565b156121095761210281612bc3565b82526121b5565b6020820151805160009061211f90600190613a0a565b6001600160401b0381111561213657612136613792565b6040519080825280601f01601f191660200182016040528015612160576020820181803683370190505b50905060008083602101915082602001905061217e82828551612e30565b6040805180820182526000808252602091820152815180830190925284518252808501908201526121ae90612bc3565b8652505050505b6121be83612064565b604083015250919050565b604080516080810182526000918101828152606080830193909352815260208101919091526000612217836000015160038151811061220a5761220a613cde565b6020026020010151612bc3565b83604001518151811061222c5761222c613cde565b60200260200101519050604051806040016040528082815260200161225083612bc3565b90529392505050565b6000610ba1826020015160008151811061227557612275613cde565b6020026020010151612ebb565b6000610ba18260000151600581518110611e9b57611e9b613cde565b6060610ba18260000151600781518110611e7257611e72613cde565b6000806122ee8460408051808201825260008082526020918201528151808301909252825182529182019181019190915290565b905060006122fb82612bc3565b90506060808560008061230d8b611ea8565b90508051600003612328576000975050505050505050612565565b60005b865181101561255c57815183111561234e57600098505050505050505050612565565b61237087828151811061236357612363613cde565b6020026020010151612ed5565b95508580519060200120841461239157600098505050505050505050612565565b6123a687828151811061220a5761220a613cde565b945084516011036124785781518303612405578c805190602001206123d786601081518110611e7257611e72613cde565b80519060200120036123f457600198505050505050505050612565565b600098505050505050505050612565565b600082848151811061241957612419613cde565b016020015160f81c9050601081111561243e5760009950505050505050505050612565565b612463868260ff168151811061245657612456613cde565b6020026020010151612f53565b9450612470600185613a6e565b93505061254a565b84516002036123f45760006124a361249c87600081518110611e7257611e72613cde565b8486612f81565b83519091506124b28286613a6e565b03612505578d805190602001206124d587600181518110611e7257611e72613cde565b80519060200120036124f35760019950505050505050505050612565565b60009950505050505050505050612565565b8060000361251f5760009950505050505050505050612565565b6125298185613a6e565b93506125418660018151811061245657612456613cde565b945061254a9050565b8061255481613d1e565b91505061232b565b50505050505050505b949350505050565b6000610ba18260000151600381518110611e9b57611e9b613cde565b6000610ba18260000151600481518110611e9b57611e9b613cde565b6000610ba18260000151600081518110611e9b57611e9b613cde565b6060610ba18260000151600181518110611e7257611e72613cde565b602d546040516320a9cea560e11b8152600481018490526000918291829182916001600160a01b03909116906341539d4a9060240160a060405180830381865afa15801561262f573d6000803e3d6000fd5b505050506040513d601f19601f820116820180604052508101906126539190613d90565b50935050925092506126aa828b61266a9190613a0a565b6040805160208082018f90528183018e9052606082018d905260808083018d90528351808403909101815260a09092019092528051910120908588613088565b6126f65760405162461bcd60e51b815260206004820152601c60248201527f4678526f6f7454756e6e656c3a20494e56414c49445f4845414445520000000060448201526064016107d3565b9998505050505050505050565b6040805160208101909152606081526040518060200160405280612737846020015160018151811061220a5761220a613cde565b905292915050565b6040805180820190915260008082526020820152825180518390811061276757612767613cde565b6020026020010151905092915050565b80516000901580159061278c57508151602110155b61279557600080fd5b60006127a483602001516131f0565b905060008184600001516127b89190613a0a565b90506000808386602001516127cd9190613a6e565b90508051915060208310156127e957826020036101000a820491505b50949350505050565b6060610ba18260200151600281518110611e7257611e72613cde565b60008061281b8385613a6e565b905060405181111561282b575060005b806000036128405762ffffff19915050610d9c565b5050606092831b9190911790911b1760181b90565b6000612862826020613ddd565b61286d906008613e00565b60ff1661287b858585612896565b901c949350505050565b6000610ba162ffffff198316602c60205b60008160ff166000036128ab57506000610d9c565b6128be8460181c6001600160601b031690565b6001600160601b03166128d460ff841685613a6e565b11156129385761291f6128f08560781c6001600160601b031690565b6001600160601b031661290c8660181c6001600160601b031690565b6001600160601b0316858560ff16613271565b60405162461bcd60e51b81526004016107d39190613e21565b60208260ff1611156129b25760405162461bcd60e51b815260206004820152603a60248201527f54797065644d656d566965772f696e646578202d20417474656d70746564207460448201527f6f20696e646578206d6f7265207468616e20333220627974657300000000000060648201526084016107d3565b6008820260006129cb8660781c6001600160601b031690565b6001600160601b031690506000600160ff1b60001984011d91909501511695945050505050565b600080612a088660781c6001600160601b031690565b6001600160601b03169050612a1c866132df565b84612a278784613a6e565b612a319190613a6e565b1115612a445762ffffff19915050612565565b612a4e8582613a6e565b9050612a628364ffffffffff16828661280e565b9695505050505050565b600062ffffff1980841603612ad45760405162461bcd60e51b815260206004820152602860248201527f54797065644d656d566965772f636f7079546f202d204e756c6c20706f696e7460448201526732b9103232b932b360c11b60648201526084016107d3565b612add83613318565b612b3d5760405162461bcd60e51b815260206004820152602b60248201527f54797065644d656d566965772f636f7079546f202d20496e76616c696420706f60448201526a34b73a32b9103232b932b360a91b60648201526084016107d3565b6000612b528460181c6001600160601b031690565b6001600160601b031690506000612b728560781c6001600160601b031690565b6001600160601b031690506000604051905084811115612b925760206060fd5b8285848460045afa50612a62612ba88760d81c90565b64ffffffffff60601b606091821b168717901b841760181b90565b6060612bce82612df5565b612bd757600080fd5b6000612be283613355565b90506000816001600160401b03811115612bfe57612bfe613792565b604051908082528060200260200182016040528015612c4357816020015b6040805180820190915260008082526020820152815260200190600190039081612c1c5790505b5090506000612c5585602001516131f0565b8560200151612c649190613a6e565b90506000805b84811015612ccd57612c7b836133da565b9150604051806040016040528083815260200184815250848281518110612ca457612ca4613cde565b6020908102919091010152612cb98284613a6e565b925080612cc581613d1e565b915050612c6a565b509195945050505050565b8051606090612ce657600080fd5b6000612cf583602001516131f0565b90506000818460000151612d099190613a0a565b90506000816001600160401b03811115612d2557612d25613792565b6040519080825280601f01601f191660200182016040528015612d4f576020820181803683370190505b50905060008160200190506127e9848760200151612d6d9190613a6e565b828561347e565b6000612d81600284613e34565b15612dbb57601082612d94600286613d0a565b81518110612da457612da4613cde565b0160200151612db6919060f81c613e48565b612deb565b601082612dc9600286613d0a565b81518110612dd957612dd9613cde565b0160200151612deb919060f81c613e6a565b60f81b9392505050565b80516000908103612e0857506000919050565b6020820151805160001a9060c0821015612e26575060009392505050565b5060019392505050565b80600003612e3d57505050565b60208110612e755782518252612e54602084613a6e565b9250612e61602083613a6e565b9150612e6e602082613a0a565b9050612e3d565b80600003612e8257505050565b60006001612e91836020613a0a565b612e9d90610100613cd2565b612ea79190613a0a565b935183518516941916939093179091525050565b8051600090601514612ecc57600080fd5b610ba182612777565b6060600082600001516001600160401b03811115612ef557612ef5613792565b6040519080825280601f01601f191660200182016040528015612f1f576020820181803683370190505b5090508051600003612f315792915050565b6000816020019050612f4c846020015182866000015161347e565b5092915050565b8051600090602114612f6457600080fd5b60008083602001516001612f789190613a6e565b51949350505050565b60008080612f8e86611ea8565b9050600081516001600160401b03811115612fab57612fab613792565b6040519080825280601f01601f191660200182016040528015612fd5576020820181803683370190505b509050845b8251612fe69087613a6e565b81101561305957600087828151811061300157613001613cde565b01602001516001600160f81b0319169050808361301e8985613a0a565b8151811061302e5761302e613cde565b60200101906001600160f81b031916908160001a90535050808061305190613d1e565b915050612fda565b508080519060200120828051906020012003613078578151925061307d565b600092505b509095945050505050565b6000602082516130989190613e34565b156130dc5760405162461bcd60e51b8152602060048201526014602482015273092dcecc2d8d2c840e0e4dedecc40d8cadccee8d60631b60448201526064016107d3565b6000602083516130ec9190613d0a565b90506130f9816002613cd2565b851061313f5760405162461bcd60e51b81526020600482015260156024820152744c65616620696e64657820697320746f6f2062696760581b60448201526064016107d3565b60008660205b855181116131e25785810151925061315e600289613e34565b6000036131965760408051602081018490529081018490526060016040516020818303038152906040528051906020012091506131c3565b60408051602081018590529081018390526060016040516020818303038152906040528051906020012091505b6131ce600289613d0a565b97506131db602082613a6e565b9050613145565b509094149695505050505050565b8051600090811a60808110156132095750600092915050565b60b8811080613224575060c08110801590613224575060f881105b156132325750600192915050565b60c081101561325f57613247600160b8613ddd565b6132549060ff1682613a0a565b610d9c906001613a6e565b613247600160f8613ddd565b50919050565b6060600061327e866134c3565b915050600061328c866134c3565b915050600061329a866134c3565b91505060006132a8866134c3565b915050838383836040516020016132c29493929190613e8c565b604051602081830303815290604052945050505050949350505050565b60006132f48260181c6001600160601b031690565b6133078360781c6001600160601b031690565b016001600160601b03169050919050565b60006133248260d81c90565b64ffffffffff1664ffffffffff0361333e57506000919050565b6000613349836132df565b60405110199392505050565b8051600090810361336857506000919050565b60008061337884602001516131f0565b84602001516133879190613a6e565b905060008460000151856020015161339f9190613a6e565b90505b808210156133d1576133b3826133da565b6133bd9083613a6e565b9150826133c981613d1e565b9350506133a2565b50909392505050565b80516000908190811a60808110156133f55760019150612f4c565b60b881101561341b57613409608082613a0a565b613414906001613a6e565b9150612f4c565b60c08110156134485760b78103600185019450806020036101000a85510460018201810193505050612f4c565b60f881101561345c5761340960c082613a0a565b60019390930151602084900360f7016101000a900490920160f5190192915050565b8060000361348b57505050565b60208110612e7557825182526134a2602084613a6e565b92506134af602083613a6e565b91506134bc602082613a0a565b905061348b565b600080601f5b600f8160ff1611156135185760006134e2826008613e00565b60ff1685901c90506134f381613571565b61ffff16841793508160ff1660101461350e57601084901b93505b50600019016134c9565b50600f5b60ff8160ff16101561356b576000613535826008613e00565b60ff1685901c905061354681613571565b61ffff16831792508160ff1660001461356157601083901b92505b506000190161351c565b50915091565b600061358360048360ff16901c6135a3565b60ff1661ffff919091161760081b61359a826135a3565b60ff1617919050565b600060f08083179060ff821690036135be5750603092915050565b8060ff1660f1036135d25750603192915050565b8060ff1660f2036135e65750603292915050565b8060ff1660f3036135fa5750603392915050565b8060ff1660f40361360e5750603492915050565b8060ff1660f5036136225750603592915050565b8060ff1660f6036136365750603692915050565b8060ff1660f70361364a5750603792915050565b8060ff1660f80361365e5750603892915050565b8060ff1660f9036136725750603992915050565b8060ff1660fa036136865750606192915050565b8060ff1660fb0361369a5750606292915050565b8060ff1660fc036136ae5750606392915050565b8060ff1660fd036136c25750606492915050565b8060ff1660fe036136d65750606592915050565b8060ff1660ff0361326b5750606692915050565b6040518061040001604052806020906020820280368337509192915050565b6001600160a01b0381168114610a1757600080fd5b60006020828403121561373057600080fd5b8135610d9c81613709565b60006020828403121561374d57600080fd5b5035919050565b634e487b7160e01b600052602160045260246000fd5b602081016003831061378c57634e487b7160e01b600052602160045260246000fd5b91905290565b634e487b7160e01b600052604160045260246000fd5b604051601f8201601f191681016001600160401b03811182821017156137d0576137d0613792565b604052919050565b60006001600160401b038211156137f1576137f1613792565b50601f01601f191660200190565b600082601f83011261381057600080fd5b813561382361381e826137d8565b6137a8565b81815284602083860101111561383857600080fd5b816020850160208301376000918101602001919091529392505050565b60006020828403121561386757600080fd5b81356001600160401b0381111561387d57600080fd5b612565848285016137ff565b6000806000610440848603121561389f57600080fd5b83356001600160401b038111156138b557600080fd5b6138c1868287016137ff565b9350506104208401858111156138d657600080fd5b60208501925080359150509250925092565b803563ffffffff811681146138fc57600080fd5b919050565b60006020828403121561391357600080fd5b610d9c826138e8565b60008060006060848603121561393157600080fd5b61393a846138e8565b92506020840135915060408401356001600160401b0381111561395c57600080fd5b613968868287016137ff565b9150509250925092565b60005b8381101561398d578181015183820152602001613975565b838111156107e55750506000910152565b600081518084526139b6816020860160208601613972565b601f01601f19169290920160200192915050565b6040815260006139dd604083018561399e565b905060018060a01b03831660208301529392505050565b634e487b7160e01b600052601160045260246000fd5b600082821015613a1c57613a1c6139f4565b500390565b600063ffffffff808316818516808303821115613a4057613a406139f4565b01949350505050565b848152836020820152826040820152608060608201526000612a62608083018461399e565b60008219821115613a8157613a816139f4565b500190565b600063ffffffff808716835280861660208401525083604083015260806060830152612a62608083018461399e565b83815282151560208201526060604082015260006116cc606083018461399e565b83815260008351613aee816020850160208801613972565b60209201918201929092526040019392505050565b600060208284031215613b1557600080fd5b81516001600160401b03811115613b2b57600080fd5b8201601f81018413613b3c57600080fd5b8051613b4a61381e826137d8565b818152856020838501011115613b5f57600080fd5b6116cc826020830160208601613972565b8051602080830151919081101561326b5760001960209190910360031b1b16919050565b600063ffffffff60e01b808960e01b168352876004840152808760e01b166024840152808660e01b1660288401525083602c8301528251613bdc81604c850160208701613972565b91909101604c01979650505050505050565b600181815b80851115613c29578160001904821115613c0f57613c0f6139f4565b80851615613c1c57918102915b93841c9390800290613bf3565b509250929050565b600082613c4057506001610ba1565b81613c4d57506000610ba1565b8160018114613c635760028114613c6d57613c89565b6001915050610ba1565b60ff841115613c7e57613c7e6139f4565b50506001821b610ba1565b5060208310610133831016604e8410600b8410161715613cac575081810a610ba1565b613cb68383613bee565b8060001904821115613cca57613cca6139f4565b029392505050565b6000610d9c8383613c31565b634e487b7160e01b600052603260045260246000fd5b634e487b7160e01b600052601260045260246000fd5b600082613d1957613d19613cf4565b500490565b600060018201613d3057613d306139f4565b5060010190565b634e487b7160e01b600052600160045260246000fd5b6001600160a01b03831681526040602082018190526000906125659083018461399e565b6000816000190483118215151615613d8b57613d8b6139f4565b500290565b600080600080600060a08688031215613da857600080fd5b855194506020860151935060408601519250606086015191506080860151613dcf81613709565b809150509295509295909350565b600060ff821660ff841680821015613df757613df76139f4565b90039392505050565b600060ff821660ff84168160ff0481118215151615613cca57613cca6139f4565b602081526000610d9c602083018461399e565b600082613e4357613e43613cf4565b500690565b600060ff831680613e5b57613e5b613cf4565b8060ff84160691505092915050565b600060ff831680613e7d57613e7d613cf4565b8060ff84160491505092915050565b7f54797065644d656d566965772f696e646578202d204f76657272616e20746865815274040ecd2caee5c40a6d8d2c6ca40d2e640c2e84060f605b1b60208201526001600160d01b031960d086811b821660358401526e040eed2e8d040d8cadccee8d04060f608b1b603b840181905286821b8316604a8501527f2e20417474656d7074656420746f20696e646578206174206f666673657420306050850152600f60fb1b607085015285821b83166071850152607784015283901b166086820152601760f91b608c8201526000608d8201612a6256fea2646970667358221220a8518653afdf860461a384837dd0a3aad6c5cfffe92de81cc91ade1dba33ab0364736f6c634300080f0033",
  "devdoc": {
    "kind": "dev",
    "methods": {
      "addSender(address)": {
        "details": "Only whitelisted routers can call `dispatch`"
      },
      "dispatch(uint32,bytes32,bytes)": {
        "details": "The root of this tree will eventually be dispatched to mainnet via `send`. On mainnet (the \"hub\"), it will be combined into a single aggregate root by RootManager (along with outbound roots from other chains). This aggregate root will be redistributed to all destination chains."
      },
      "proveAndProcess(bytes,bytes32[32],uint256)": {
        "details": "Intended to be called by the relayer at specific intervals during runtime."
      },
      "receiveMessage(bytes)": {
        "details": "This function verifies if the transaction actually happened on child chain",
        "params": {
          "inputData": "RLP encoded data of the reference tx containing following list of fields  0 - headerNumber - Checkpoint header block number containing the reference tx  1 - blockProof - Proof that the block header (in the child chain) is a leaf in the submitted merkle root  2 - blockNumber - Block number containing the reference tx on child chain  3 - blockTime - Reference tx block time  4 - txRoot - Transactions root of block  5 - receiptRoot - Receipts root of block  6 - receipt - Receipt of the reference transaction  7 - receiptProof - Merkle proof of the reference receipt  8 - branchMask - 32 bits denoting the path of receipt in merkle tree  9 - receiptLogIndex - Log Index to read from the receipt"
        }
      },
      "removeSender(address)": {
        "details": "Only whitelisted routers can call `dispatch`"
      },
      "send()": {
        "details": "At runtime, this method should be called at specific time intervals."
      }
    },
    "version": 1
  },
  "userdoc": {
    "kind": "user",
    "methods": {
      "AMB()": {
        "notice": "Address of the AMB on this domain."
      },
      "DOMAIN()": {
        "notice": "The domain of this Messaging (i.e. Connector) contract."
      },
      "ROOT_MANAGER()": {
        "notice": "RootManager contract address."
      },
      "acceptProposedOwner()": {
        "notice": "Transfers ownership of the contract to a new account (`newOwner`). Can only be called by the current owner."
      },
      "addSender(address)": {
        "notice": "Adds a sender to the whitelist"
      },
      "aggregateRoot()": {
        "notice": "This tracks the root of the tree containing outbound roots from all other supported domains"
      },
      "count()": {
        "notice": "Returns the number of inserted leaves in the tree (current index)"
      },
      "delay()": {
        "notice": "Returns the delay period before a new owner can be accepted."
      },
      "dispatch(uint32,bytes32,bytes)": {
        "notice": "This function adds transfers to the outbound transfer merkle tree."
      },
      "mirrorConnector()": {
        "notice": "Connector on L2 for L1 connectors, and vice versa."
      },
      "mirrorDomain()": {
        "notice": "Domain of mirror connector."
      },
      "mirrorProcessGas()": {
        "notice": "Gas costs forwarded to the `processMessage` call on the mirror domain"
      },
      "outboundRoot()": {
        "notice": "This tracks the root of all transfers with the origin domain as this domain (i.e. all outbound transfers)"
      },
      "owner()": {
        "notice": "Returns the address of the current owner."
      },
      "proposeNewOwner(address)": {
        "notice": "Sets the timestamp for an owner to be proposed, and sets the newly proposed owner as step 1 in a 2-step process"
      },
      "proposed()": {
        "notice": "Returns the address of the proposed owner."
      },
      "proposedTimestamp()": {
        "notice": "Returns the address of the proposed owner."
      },
      "proveAndProcess(bytes,bytes32[32],uint256)": {
        "notice": "Must be able to call the `handle` function on the BridgeRouter contract. This is called on the destination domain to handle incoming messages."
      },
      "provenRoots(bytes32)": {
        "notice": "This tracks whether the root has been proven to exist within the given aggregate root"
      },
      "receiveMessage(bytes)": {
        "notice": "receive message from  L2 to L1, validated by proof"
      },
      "removeSender(address)": {
        "notice": "Removes a sender from the whitelist"
      },
      "renounceOwnership()": {
        "notice": "Renounces ownership of the contract after a delay"
      },
      "renounced()": {
        "notice": "Indicates if the ownership has been renounced() by checking if current owner is address(0)"
      },
      "root()": {
        "notice": "Calculates and returns tree's current root"
      },
      "send()": {
        "notice": "This is called by relayers to trigger passing of current root to mainnet root manager."
      },
      "setMirrorConnector(address)": {
        "notice": "Sets the address of the l2Connector for this domain"
      }
    },
    "version": 1
  },
  "storageLayout": {
    "storage": [
      {
        "astId": 33678,
        "contract": "contracts/core/messaging/connectors/PolygonConnector.sol:PolygonL1Connector",
        "label": "_owner",
        "offset": 0,
        "slot": "0",
        "type": "t_address"
      },
      {
        "astId": 33680,
        "contract": "contracts/core/messaging/connectors/PolygonConnector.sol:PolygonL1Connector",
        "label": "_proposed",
        "offset": 0,
        "slot": "1",
        "type": "t_address"
      },
      {
        "astId": 33682,
        "contract": "contracts/core/messaging/connectors/PolygonConnector.sol:PolygonL1Connector",
        "label": "_proposedOwnershipTimestamp",
        "offset": 0,
        "slot": "2",
        "type": "t_uint256"
      },
      {
        "astId": 34675,
        "contract": "contracts/core/messaging/connectors/PolygonConnector.sol:PolygonL1Connector",
        "label": "tree",
        "offset": 0,
        "slot": "3",
        "type": "t_struct(Tree)38176_storage"
      },
      {
        "astId": 27994,
        "contract": "contracts/core/messaging/connectors/PolygonConnector.sol:PolygonL1Connector",
        "label": "mirrorConnector",
        "offset": 0,
        "slot": "36",
        "type": "t_address"
      },
      {
        "astId": 28000,
        "contract": "contracts/core/messaging/connectors/PolygonConnector.sol:PolygonL1Connector",
        "label": "mirrorProcessGas",
        "offset": 0,
        "slot": "37",
        "type": "t_uint256"
      },
      {
        "astId": 28003,
        "contract": "contracts/core/messaging/connectors/PolygonConnector.sol:PolygonL1Connector",
        "label": "aggregateRoot",
        "offset": 0,
        "slot": "38",
        "type": "t_bytes32"
      },
      {
        "astId": 28006,
        "contract": "contracts/core/messaging/connectors/PolygonConnector.sol:PolygonL1Connector",
        "label": "outboundRoot",
        "offset": 0,
        "slot": "39",
        "type": "t_bytes32"
      },
      {
        "astId": 28011,
        "contract": "contracts/core/messaging/connectors/PolygonConnector.sol:PolygonL1Connector",
        "label": "provenRoots",
        "offset": 0,
        "slot": "40",
        "type": "t_mapping(t_bytes32,t_bool)"
      },
      {
        "astId": 28016,
        "contract": "contracts/core/messaging/connectors/PolygonConnector.sol:PolygonL1Connector",
        "label": "whitelistedSenders",
        "offset": 0,
        "slot": "41",
        "type": "t_mapping(t_address,t_bool)"
      },
      {
        "astId": 28024,
        "contract": "contracts/core/messaging/connectors/PolygonConnector.sol:PolygonL1Connector",
        "label": "nonces",
        "offset": 0,
        "slot": "42",
        "type": "t_mapping(t_uint32,t_uint32)"
      },
      {
        "astId": 28029,
        "contract": "contracts/core/messaging/connectors/PolygonConnector.sol:PolygonL1Connector",
        "label": "messages",
        "offset": 0,
        "slot": "43",
        "type": "t_mapping(t_bytes32,t_enum(MessageStatus)27982)"
      },
      {
        "astId": 31856,
        "contract": "contracts/core/messaging/connectors/PolygonConnector.sol:PolygonL1Connector",
        "label": "fxRoot",
        "offset": 0,
        "slot": "44",
        "type": "t_contract(IFxStateSender)31806"
      },
      {
        "astId": 31859,
        "contract": "contracts/core/messaging/connectors/PolygonConnector.sol:PolygonL1Connector",
        "label": "checkpointManager",
        "offset": 0,
        "slot": "45",
        "type": "t_contract(ICheckpointManager)31824"
      },
      {
        "astId": 31861,
        "contract": "contracts/core/messaging/connectors/PolygonConnector.sol:PolygonL1Connector",
        "label": "fxChildTunnel",
        "offset": 0,
        "slot": "46",
        "type": "t_address"
      },
      {
        "astId": 31865,
        "contract": "contracts/core/messaging/connectors/PolygonConnector.sol:PolygonL1Connector",
        "label": "processedExits",
        "offset": 0,
        "slot": "47",
        "type": "t_mapping(t_bytes32,t_bool)"
      }
    ],
    "types": {
      "t_address": {
        "encoding": "inplace",
        "label": "address",
        "numberOfBytes": "20"
      },
      "t_array(t_bytes32)32_storage": {
        "base": "t_bytes32",
        "encoding": "inplace",
        "label": "bytes32[32]",
        "numberOfBytes": "1024"
      },
      "t_bool": {
        "encoding": "inplace",
        "label": "bool",
        "numberOfBytes": "1"
      },
      "t_bytes32": {
        "encoding": "inplace",
        "label": "bytes32",
        "numberOfBytes": "32"
      },
      "t_contract(ICheckpointManager)31824": {
        "encoding": "inplace",
        "label": "contract ICheckpointManager",
        "numberOfBytes": "20"
      },
      "t_contract(IFxStateSender)31806": {
        "encoding": "inplace",
        "label": "contract IFxStateSender",
        "numberOfBytes": "20"
      },
      "t_enum(MessageStatus)27982": {
        "encoding": "inplace",
        "label": "enum Connector.MessageStatus",
        "numberOfBytes": "1"
      },
      "t_mapping(t_address,t_bool)": {
        "encoding": "mapping",
        "key": "t_address",
        "label": "mapping(address => bool)",
        "numberOfBytes": "32",
        "value": "t_bool"
      },
      "t_mapping(t_bytes32,t_bool)": {
        "encoding": "mapping",
        "key": "t_bytes32",
        "label": "mapping(bytes32 => bool)",
        "numberOfBytes": "32",
        "value": "t_bool"
      },
      "t_mapping(t_bytes32,t_enum(MessageStatus)27982)": {
        "encoding": "mapping",
        "key": "t_bytes32",
        "label": "mapping(bytes32 => enum Connector.MessageStatus)",
        "numberOfBytes": "32",
        "value": "t_enum(MessageStatus)27982"
      },
      "t_mapping(t_uint32,t_uint32)": {
        "encoding": "mapping",
        "key": "t_uint32",
        "label": "mapping(uint32 => uint32)",
        "numberOfBytes": "32",
        "value": "t_uint32"
      },
      "t_struct(Tree)38176_storage": {
        "encoding": "inplace",
        "label": "struct MerkleLib.Tree",
        "members": [
          {
            "astId": 38173,
            "contract": "contracts/core/messaging/connectors/PolygonConnector.sol:PolygonL1Connector",
            "label": "branch",
            "offset": 0,
            "slot": "0",
            "type": "t_array(t_bytes32)32_storage"
          },
          {
            "astId": 38175,
            "contract": "contracts/core/messaging/connectors/PolygonConnector.sol:PolygonL1Connector",
            "label": "count",
            "offset": 0,
            "slot": "32",
            "type": "t_uint256"
          }
        ],
        "numberOfBytes": "1056"
      },
      "t_uint256": {
        "encoding": "inplace",
        "label": "uint256",
        "numberOfBytes": "32"
      },
      "t_uint32": {
        "encoding": "inplace",
        "label": "uint32",
        "numberOfBytes": "4"
      }
    }
  }
}