{
  "address": "0x03d47bB27D2f51F2294D42afc5105700f42301ed",
  "abi": [
    {
      "inputs": [
        {
          "internalType": "uint32",
          "name": "_domain",
          "type": "uint32"
        },
        {
          "internalType": "uint32",
          "name": "_mirrorDomain",
          "type": "uint32"
        },
        {
          "internalType": "address",
          "name": "_amb",
          "type": "address"
        },
        {
          "internalType": "address",
          "name": "_rootManager",
          "type": "address"
        },
        {
          "internalType": "address",
          "name": "_mirrorConnector",
          "type": "address"
        },
        {
          "internalType": "uint32",
          "name": "_mirrorNetworkId",
          "type": "uint32"
        }
      ],
      "stateMutability": "nonpayable",
      "type": "constructor"
    },
    {
      "inputs": [],
      "name": "Connector__processMessage_notUsed",
      "type": "error"
    },
    {
      "inputs": [],
      "name": "ProposedOwnable__onlyOwner_notOwner",
      "type": "error"
    },
    {
      "inputs": [],
      "name": "ProposedOwnable__onlyProposed_notProposedOwner",
      "type": "error"
    },
    {
      "inputs": [],
      "name": "ProposedOwnable__ownershipDelayElapsed_delayNotElapsed",
      "type": "error"
    },
    {
      "inputs": [],
      "name": "ProposedOwnable__proposeNewOwner_invalidProposal",
      "type": "error"
    },
    {
      "inputs": [],
      "name": "ProposedOwnable__proposeNewOwner_noOwnershipChange",
      "type": "error"
    },
    {
      "inputs": [],
      "name": "ProposedOwnable__renounceOwnership_invalidProposal",
      "type": "error"
    },
    {
      "inputs": [],
      "name": "ProposedOwnable__renounceOwnership_noProposal",
      "type": "error"
    },
    {
      "anonymous": false,
      "inputs": [
        {
          "indexed": false,
          "internalType": "bytes",
          "name": "data",
          "type": "bytes"
        },
        {
          "indexed": false,
          "internalType": "address",
          "name": "caller",
          "type": "address"
        }
      ],
      "name": "MessageProcessed",
      "type": "event"
    },
    {
      "anonymous": false,
      "inputs": [
        {
          "indexed": false,
          "internalType": "bytes",
          "name": "data",
          "type": "bytes"
        },
        {
          "indexed": false,
          "internalType": "bytes",
          "name": "encodedData",
          "type": "bytes"
        },
        {
          "indexed": false,
          "internalType": "address",
          "name": "caller",
          "type": "address"
        }
      ],
      "name": "MessageSent",
      "type": "event"
    },
    {
      "anonymous": false,
      "inputs": [
        {
          "indexed": false,
          "internalType": "address",
          "name": "previous",
          "type": "address"
        },
        {
          "indexed": false,
          "internalType": "address",
          "name": "current",
          "type": "address"
        }
      ],
      "name": "MirrorConnectorUpdated",
      "type": "event"
    },
    {
      "anonymous": false,
      "inputs": [
        {
          "indexed": true,
          "internalType": "uint32",
          "name": "domain",
          "type": "uint32"
        },
        {
          "indexed": true,
          "internalType": "uint32",
          "name": "mirrorDomain",
          "type": "uint32"
        },
        {
          "indexed": false,
          "internalType": "address",
          "name": "amb",
          "type": "address"
        },
        {
          "indexed": false,
          "internalType": "address",
          "name": "rootManager",
          "type": "address"
        },
        {
          "indexed": false,
          "internalType": "address",
          "name": "mirrorConnector",
          "type": "address"
        }
      ],
      "name": "NewConnector",
      "type": "event"
    },
    {
      "anonymous": false,
      "inputs": [
        {
          "indexed": true,
          "internalType": "address",
          "name": "proposedOwner",
          "type": "address"
        }
      ],
      "name": "OwnershipProposed",
      "type": "event"
    },
    {
      "anonymous": false,
      "inputs": [
        {
          "indexed": true,
          "internalType": "address",
          "name": "previousOwner",
          "type": "address"
        },
        {
          "indexed": true,
          "internalType": "address",
          "name": "newOwner",
          "type": "address"
        }
      ],
      "name": "OwnershipTransferred",
      "type": "event"
    },
    {
      "inputs": [],
      "name": "AMB",
      "outputs": [
        {
          "internalType": "address",
          "name": "",
          "type": "address"
        }
      ],
      "stateMutability": "view",
      "type": "function"
    },
    {
      "inputs": [],
      "name": "DOMAIN",
      "outputs": [
        {
          "internalType": "uint32",
          "name": "",
          "type": "uint32"
        }
      ],
      "stateMutability": "view",
      "type": "function"
    },
    {
      "inputs": [],
      "name": "MIRROR_DOMAIN",
      "outputs": [
        {
          "internalType": "uint32",
          "name": "",
          "type": "uint32"
        }
      ],
      "stateMutability": "view",
      "type": "function"
    },
    {
      "inputs": [],
      "name": "ROOT_MANAGER",
      "outputs": [
        {
          "internalType": "address",
          "name": "",
          "type": "address"
        }
      ],
      "stateMutability": "view",
      "type": "function"
    },
    {
      "inputs": [],
      "name": "acceptProposedOwner",
      "outputs": [],
      "stateMutability": "nonpayable",
      "type": "function"
    },
    {
      "inputs": [],
      "name": "delay",
      "outputs": [
        {
          "internalType": "uint256",
          "name": "",
          "type": "uint256"
        }
      ],
      "stateMutability": "view",
      "type": "function"
    },
    {
      "inputs": [],
      "name": "mirrorConnector",
      "outputs": [
        {
          "internalType": "address",
          "name": "",
          "type": "address"
        }
      ],
      "stateMutability": "view",
      "type": "function"
    },
    {
      "inputs": [
        {
          "internalType": "address",
          "name": "originAddress",
          "type": "address"
        },
        {
          "internalType": "uint32",
          "name": "originNetwork",
          "type": "uint32"
        },
        {
          "internalType": "bytes",
          "name": "data",
          "type": "bytes"
        }
      ],
      "name": "onMessageReceived",
      "outputs": [],
      "stateMutability": "payable",
      "type": "function"
    },
    {
      "inputs": [],
      "name": "owner",
      "outputs": [
        {
          "internalType": "address",
          "name": "",
          "type": "address"
        }
      ],
      "stateMutability": "view",
      "type": "function"
    },
    {
      "inputs": [
        {
          "internalType": "bytes",
          "name": "_data",
          "type": "bytes"
        }
      ],
      "name": "processMessage",
      "outputs": [],
      "stateMutability": "nonpayable",
      "type": "function"
    },
    {
      "inputs": [
        {
          "internalType": "address",
          "name": "newlyProposed",
          "type": "address"
        }
      ],
      "name": "proposeNewOwner",
      "outputs": [],
      "stateMutability": "nonpayable",
      "type": "function"
    },
    {
      "inputs": [],
      "name": "proposed",
      "outputs": [
        {
          "internalType": "address",
          "name": "",
          "type": "address"
        }
      ],
      "stateMutability": "view",
      "type": "function"
    },
    {
      "inputs": [],
      "name": "proposedTimestamp",
      "outputs": [
        {
          "internalType": "uint256",
          "name": "",
          "type": "uint256"
        }
      ],
      "stateMutability": "view",
      "type": "function"
    },
    {
      "inputs": [],
      "name": "renounceOwnership",
      "outputs": [],
      "stateMutability": "nonpayable",
      "type": "function"
    },
    {
      "inputs": [],
      "name": "renounced",
      "outputs": [
        {
          "internalType": "bool",
          "name": "",
          "type": "bool"
        }
      ],
      "stateMutability": "view",
      "type": "function"
    },
    {
      "inputs": [
        {
          "internalType": "bytes",
          "name": "_data",
          "type": "bytes"
        },
        {
          "internalType": "bytes",
          "name": "_encodedData",
          "type": "bytes"
        }
      ],
      "name": "sendMessage",
      "outputs": [],
      "stateMutability": "payable",
      "type": "function"
    },
    {
      "inputs": [
        {
          "internalType": "address",
          "name": "_mirrorConnector",
          "type": "address"
        }
      ],
      "name": "setMirrorConnector",
      "outputs": [],
      "stateMutability": "nonpayable",
      "type": "function"
    },
    {
      "inputs": [
        {
          "internalType": "address",
          "name": "_expected",
          "type": "address"
        }
      ],
      "name": "verifySender",
      "outputs": [
        {
          "internalType": "bool",
          "name": "",
          "type": "bool"
        }
      ],
      "stateMutability": "nonpayable",
      "type": "function"
    },
    {
      "stateMutability": "payable",
      "type": "receive"
    }
  ],
  "transactionHash": "0x7491c24f33cec87f26068a94647e74108f4b7f499319d97f187bd569af4f91bb",
  "args": [
    "1735353714",
    "1887071092",
    "0xF6BEEeBB578e214CA9E23B0e9683454Ff88Ed2A7",
    "0x6F178D09c7F1fC7ADC97AAF0bFe5446635989AE4",
    "0x0000000000000000000000000000000000000000",
    "1"
  ],
  "numDeployments": 1,
  "solcInputHash": "b9c6ff421730959a683bd8b272d2830d",
  "bytecode": "0x6101206040523480156200001257600080fd5b50604051620012c7380380620012c7833981016040819052620000359162000295565b80868686868684848484846200004b3362000195565b8463ffffffff16600003620000965760405162461bcd60e51b815260206004820152600c60248201526b32b6b83a3c903237b6b0b4b760a11b60448201526064015b60405180910390fd5b6001600160a01b038216620000e25760405162461bcd60e51b815260206004820152601160248201527032b6b83a3c903937b7ba26b0b730b3b2b960791b60448201526064016200008d565b63ffffffff8086166080526001600160a01b0380851660a05283811660c05290851660e0528116156200011a576200011a81620001fa565b604080516001600160a01b0385811682528481166020830152831681830152905163ffffffff86811692908816917f4f9c27c2fe3f84576ea469d367d044da53c45e951617e8389f2b5ed8db9d25f09181900360600190a350505063ffffffff9097166101005250620003169b505050505050505050505050565b600080546040516001600160a01b03808516939216917f8be0079c531659141344cd1fd0a4f28419497f9722a3daafe3b4186f6b6457e091a3600080546001600160a01b039092166001600160a01b0319928316178155600255600180549091169055565b600354604080516001600160a01b03928316815291831660208301527fc77bec288fc88f168427f2f7da682eadb26cac89d8d591af6e443da98dff2bbc910160405180910390a1600380546001600160a01b0319166001600160a01b0392909216919091179055565b805163ffffffff811681146200027857600080fd5b919050565b80516001600160a01b03811681146200027857600080fd5b60008060008060008060c08789031215620002af57600080fd5b620002ba8762000263565b9550620002ca6020880162000263565b9450620002da604088016200027d565b9350620002ea606088016200027d565b9250620002fa608088016200027d565b91506200030a60a0880162000263565b90509295509295509295565b60805160a05160c05160e05161010051610f3b6200038c600039600081816103ab0152610b7b01526000818161012b015261083a01526000818161023401528181610470015261081301526000818161036701528181610520015281816108f80152610a6e015260006101e00152610f3b6000f3fe60806040526004361061010d5760003560e01c8063715018a611610095578063cc39428311610064578063cc394283146102ec578063d1851c921461030c578063d232c2201461032a578063d69f9d6114610355578063db1b76591461038957600080fd5b8063715018a6146102845780638da5cb5b14610299578063b1f8100d146102b7578063c5b350df146102d757600080fd5b80634ff746f6116100dc5780634ff746f6146101ae57806352a9674b146101ce5780635bd11efc146102025780635f61e3ec146102225780636a42b8f81461026e57600080fd5b806314168416146101195780631806b5f2146101675780633cf52ffb1461017c57806348e6fa231461019b57600080fd5b3661011457005b600080fd5b34801561012557600080fd5b5061014d7f000000000000000000000000000000000000000000000000000000000000000081565b60405163ffffffff90911681526020015b60405180910390f35b61017a610175366004610ca1565b6103a9565b005b34801561018857600080fd5b506002545b60405190815260200161015e565b61017a6101a9366004610d0a565b610465565b3480156101ba57600080fd5b5061017a6101c9366004610d6e565b610515565b3480156101da57600080fd5b5061014d7f000000000000000000000000000000000000000000000000000000000000000081565b34801561020e57600080fd5b5061017a61021d366004610dab565b6105bb565b34801561022e57600080fd5b506102567f000000000000000000000000000000000000000000000000000000000000000081565b6040516001600160a01b03909116815260200161015e565b34801561027a57600080fd5b5062093a8061018d565b34801561029057600080fd5b5061017a6105f2565b3480156102a557600080fd5b506000546001600160a01b0316610256565b3480156102c357600080fd5b5061017a6102d2366004610dab565b6106a6565b3480156102e357600080fd5b5061017a610744565b3480156102f857600080fd5b50600354610256906001600160a01b031681565b34801561031857600080fd5b506001546001600160a01b0316610256565b34801561033657600080fd5b506000546001600160a01b0316155b604051901515815260200161015e565b34801561036157600080fd5b506102567f000000000000000000000000000000000000000000000000000000000000000081565b34801561039557600080fd5b506103456103a4366004610dab565b6107b4565b7f000000000000000000000000000000000000000000000000000000000000000063ffffffff168263ffffffff161461041b5760405162461bcd60e51b815260206004820152600f60248201526e216d6972726f72206e6574776f726b60881b60448201526064015b60405180910390fd5b80516020146104565760405162461bcd60e51b8152602060048201526007602482015266042d8cadccee8d60cb1b6044820152606401610412565b61046083826107c5565b505050565b336001600160a01b037f000000000000000000000000000000000000000000000000000000000000000016146104cc5760405162461bcd60e51b815260206004820152600c60248201526b10b937b7ba26b0b730b3b2b960a11b6044820152606401610412565b6104d682826108ef565b7fdcaa37a042a0087de79018c629bbd29cee82ca80bd9be394e1696bf9e935507782823360405161050993929190610e13565b60405180910390a15050565b336001600160a01b037f000000000000000000000000000000000000000000000000000000000000000016146105765760405162461bcd60e51b81526004016104129060208082526004908201526310a0a6a160e11b604082015260600190565b61057f8161092c565b7fb3abc57bfeebd2cac918901db582f71972a8e628bccf19f5ae3e3482b98a5ced81336040516105b0929190610e51565b60405180910390a150565b6000546001600160a01b031633146105e6576040516311a8a1bb60e31b815260040160405180910390fd5b6105ef81610945565b50565b6000546001600160a01b0316331461061d576040516311a8a1bb60e31b815260040160405180910390fd5b62093a806002544261062f9190610e7b565b1161064d576040516324e0285f60e21b815260040160405180910390fd5b60025460000361067057604051630e4b303f60e21b815260040160405180910390fd5b6001546001600160a01b03161561069a576040516323295ef960e01b815260040160405180910390fd5b6106a460006109ae565b565b6000546001600160a01b031633146106d1576040516311a8a1bb60e31b815260040160405180910390fd5b6001546001600160a01b0382811691161480156106ef575060025415155b1561070d576040516311bc066560e11b815260040160405180910390fd5b6000546001600160a01b0380831691160361073b57604051634a2fb73f60e11b815260040160405180910390fd5b6105ef81610a13565b6001546001600160a01b0316331461076f576040516311a7f27160e11b815260040160405180910390fd5b62093a80600254426107819190610e7b565b1161079f576040516324e0285f60e21b815260040160405180910390fd5b6001546106a4906001600160a01b03166109ae565b60006107bf82610a61565b92915050565b6107ce82610a61565b6108095760405162461bcd60e51b815260206004820152600c60248201526b10b61921b7b73732b1ba37b960a11b6044820152606401610412565b6001600160a01b037f000000000000000000000000000000000000000000000000000000000000000016638e7d93fa7f000000000000000000000000000000000000000000000000000000000000000061086284610e9c565b6040516001600160e01b031960e085901b16815263ffffffff9290921660048301526024820152604401600060405180830381600087803b1580156108a657600080fd5b505af11580156108ba573d6000803e3d6000fd5b505050507fb3abc57bfeebd2cac918901db582f71972a8e628bccf19f5ae3e3482b98a5ced8133604051610509929190610e51565b600354610928907f0000000000000000000000000000000000000000000000000000000000000000906001600160a01b03168484610ad9565b5050565b6040516316c2fdb560e21b815260040160405180910390fd5b600354604080516001600160a01b03928316815291831660208301527fc77bec288fc88f168427f2f7da682eadb26cac89d8d591af6e443da98dff2bbc910160405180910390a1600380546001600160a01b0319166001600160a01b0392909216919091179055565b600080546040516001600160a01b03808516939216917f8be0079c531659141344cd1fd0a4f28419497f9722a3daafe3b4186f6b6457e091a3600080546001600160a01b039092166001600160a01b0319928316178155600255600180549091169055565b42600255600180546001600160a01b0319166001600160a01b0383169081179091556040517f6ab4d119f23076e8ad491bc65ce85f017fb0591dce08755ba8591059cc51737a90600090a250565b6000336001600160a01b037f00000000000000000000000000000000000000000000000000000000000000001614610ac45760405162461bcd60e51b81526004016104129060208082526004908201526310b0b6b160e11b604082015260600190565b506003546001600160a01b0391821691161490565b8151602014610b195760405162461bcd60e51b815260206004820152600c60248201526b042c8c2e8c240d8cadccee8d60a31b6044820152606401610412565b805115610b575760405162461bcd60e51b815260206004820152600c60248201526b042c8c2e8c240d8cadccee8d60a31b6044820152606401610412565b604051630481fe6f60e31b81526001600160a01b0385169063240ff37890610baa907f00000000000000000000000000000000000000000000000000000000000000009087906001908890600401610ec3565b600060405180830381600087803b158015610bc457600080fd5b505af1158015610bd8573d6000803e3d6000fd5b5050505050505050565b80356001600160a01b0381168114610bf957600080fd5b919050565b634e487b7160e01b600052604160045260246000fd5b600082601f830112610c2557600080fd5b813567ffffffffffffffff80821115610c4057610c40610bfe565b604051601f8301601f19908116603f01168101908282118183101715610c6857610c68610bfe565b81604052838152866020858801011115610c8157600080fd5b836020870160208301376000602085830101528094505050505092915050565b600080600060608486031215610cb657600080fd5b610cbf84610be2565b9250602084013563ffffffff81168114610cd857600080fd5b9150604084013567ffffffffffffffff811115610cf457600080fd5b610d0086828701610c14565b9150509250925092565b60008060408385031215610d1d57600080fd5b823567ffffffffffffffff80821115610d3557600080fd5b610d4186838701610c14565b93506020850135915080821115610d5757600080fd5b50610d6485828601610c14565b9150509250929050565b600060208284031215610d8057600080fd5b813567ffffffffffffffff811115610d9757600080fd5b610da384828501610c14565b949350505050565b600060208284031215610dbd57600080fd5b610dc682610be2565b9392505050565b6000815180845260005b81811015610df357602081850181015186830182015201610dd7565b506000602082860101526020601f19601f83011685010191505092915050565b606081526000610e266060830186610dcd565b8281036020840152610e388186610dcd565b91505060018060a01b0383166040830152949350505050565b604081526000610e646040830185610dcd565b905060018060a01b03831660208301529392505050565b818103818111156107bf57634e487b7160e01b600052601160045260246000fd5b80516020808301519190811015610ebd576000198160200360031b1b821691505b50919050565b63ffffffff851681526001600160a01b03841660208201528215156040820152608060608201819052600090610efb90830184610dcd565b969550505050505056fea26469706673582212203106f0ee6bff54d1b0137d722dda0516f929eba6264ef2636336709703d9d1c864736f6c63430008110033",
  "devdoc": {
    "kind": "dev",
    "methods": {
      "processMessage(bytes)": {
        "details": "This is called by AMBs to process messages originating from mirror connector"
      },
      "sendMessage(bytes,bytes)": {
        "details": "This is called by the root manager *only* on mainnet to propagate the aggregate root"
      }
    },
    "version": 1
  },
  "userdoc": {
    "events": {
      "MessageProcessed(bytes,address)": {
        "notice": "Emitted whenever a message is successfully received over an AMB"
      },
      "MessageSent(bytes,bytes,address)": {
        "notice": "Emitted whenever a message is successfully sent over an AMB"
      }
    },
    "kind": "user",
    "methods": {
      "AMB()": {
        "notice": "Address of the AMB on this domain."
      },
      "DOMAIN()": {
        "notice": "The domain of this Messaging (i.e. Connector) contract."
      },
      "MIRROR_DOMAIN()": {
        "notice": "The domain of the corresponding messaging (i.e. Connector) contract."
      },
      "ROOT_MANAGER()": {
        "notice": "RootManager contract address."
      },
      "acceptProposedOwner()": {
        "notice": "Transfers ownership of the contract to a new account (`newOwner`). Can only be called by the current owner."
      },
      "delay()": {
        "notice": "Returns the delay period before a new owner can be accepted."
      },
      "mirrorConnector()": {
        "notice": "Connector on L2 for L1 connectors, and vice versa."
      },
      "onMessageReceived(address,uint32,bytes)": {
        "notice": "This function is called by the PolygonZkEVMBridge to handle incoming messages. while handling claimMessage"
      },
      "owner()": {
        "notice": "Returns the address of the current owner."
      },
      "processMessage(bytes)": {
        "notice": "Processes a message received by an AMB"
      },
      "proposeNewOwner(address)": {
        "notice": "Sets the timestamp for an owner to be proposed, and sets the newly proposed owner as step 1 in a 2-step process"
      },
      "proposed()": {
        "notice": "Returns the address of the proposed owner."
      },
      "proposedTimestamp()": {
        "notice": "Returns the address of the proposed owner."
      },
      "renounceOwnership()": {
        "notice": "Renounces ownership of the contract after a delay"
      },
      "renounced()": {
        "notice": "Indicates if the ownership has been renounced() by checking if current owner is address(0)"
      },
      "sendMessage(bytes,bytes)": {
        "notice": "Sends a message over the amb"
      },
      "setMirrorConnector(address)": {
        "notice": "Sets the address of the l2Connector for this domain"
      },
      "verifySender(address)": {
        "notice": "Checks the cross domain sender for a given address"
      }
    },
    "version": 1
  },
  "storageLayout": {
    "storage": [
      {
        "astId": 44407,
        "contract": "contracts/messaging/connectors/polygonzk/PolygonZkHubConnector.sol:PolygonZkHubConnector",
        "label": "_owner",
        "offset": 0,
        "slot": "0",
        "type": "t_address"
      },
      {
        "astId": 44409,
        "contract": "contracts/messaging/connectors/polygonzk/PolygonZkHubConnector.sol:PolygonZkHubConnector",
        "label": "_proposed",
        "offset": 0,
        "slot": "1",
        "type": "t_address"
      },
      {
        "astId": 44411,
        "contract": "contracts/messaging/connectors/polygonzk/PolygonZkHubConnector.sol:PolygonZkHubConnector",
        "label": "_proposedOwnershipTimestamp",
        "offset": 0,
        "slot": "2",
        "type": "t_uint256"
      },
      {
        "astId": 33246,
        "contract": "contracts/messaging/connectors/polygonzk/PolygonZkHubConnector.sol:PolygonZkHubConnector",
        "label": "mirrorConnector",
        "offset": 0,
        "slot": "3",
        "type": "t_address"
      }
    ],
    "types": {
      "t_address": {
        "encoding": "inplace",
        "label": "address",
        "numberOfBytes": "20"
      },
      "t_uint256": {
        "encoding": "inplace",
        "label": "uint256",
        "numberOfBytes": "32"
      }
    }
  }
}