{
  "address": "0x6B28E9C094442d16FcA255eE4Df4C9Fc4319a561",
  "abi": [
    {
      "inputs": [
        {
          "internalType": "address",
          "name": "_connector",
          "type": "address"
        },
        {
          "internalType": "uint256",
          "name": "_executionInterval",
          "type": "uint256"
        }
      ],
      "stateMutability": "nonpayable",
      "type": "constructor"
    },
    {
      "inputs": [],
      "name": "ProposedOwnable__acceptProposedOwner_delayNotElapsed",
      "type": "error"
    },
    {
      "inputs": [],
      "name": "ProposedOwnable__onlyOwner_notOwner",
      "type": "error"
    },
    {
      "inputs": [],
      "name": "ProposedOwnable__onlyProposed_notProposedOwner",
      "type": "error"
    },
    {
      "inputs": [],
      "name": "ProposedOwnable__proposeNewOwner_invalidProposal",
      "type": "error"
    },
    {
      "inputs": [],
      "name": "ProposedOwnable__proposeNewOwner_noOwnershipChange",
      "type": "error"
    },
    {
      "inputs": [],
      "name": "ProposedOwnable__renounceOwnership_delayNotElapsed",
      "type": "error"
    },
    {
      "inputs": [],
      "name": "ProposedOwnable__renounceOwnership_invalidProposal",
      "type": "error"
    },
    {
      "inputs": [],
      "name": "ProposedOwnable__renounceOwnership_noProposal",
      "type": "error"
    },
    {
      "anonymous": false,
      "inputs": [
        {
          "indexed": true,
          "internalType": "address",
          "name": "proposedOwner",
          "type": "address"
        }
      ],
      "name": "OwnershipProposed",
      "type": "event"
    },
    {
      "anonymous": false,
      "inputs": [
        {
          "indexed": true,
          "internalType": "address",
          "name": "previousOwner",
          "type": "address"
        },
        {
          "indexed": true,
          "internalType": "address",
          "name": "newOwner",
          "type": "address"
        }
      ],
      "name": "OwnershipTransferred",
      "type": "event"
    },
    {
      "inputs": [],
      "name": "CONNECTOR",
      "outputs": [
        {
          "internalType": "contract IConnector",
          "name": "",
          "type": "address"
        }
      ],
      "stateMutability": "view",
      "type": "function"
    },
    {
      "inputs": [],
      "name": "EXECUTION_INTERVAL",
      "outputs": [
        {
          "internalType": "uint256",
          "name": "",
          "type": "uint256"
        }
      ],
      "stateMutability": "view",
      "type": "function"
    },
    {
      "inputs": [],
      "name": "acceptProposedOwner",
      "outputs": [],
      "stateMutability": "nonpayable",
      "type": "function"
    },
    {
      "inputs": [
        {
          "internalType": "uint256",
          "name": "_executionInterval",
          "type": "uint256"
        }
      ],
      "name": "changeExecutionInterval",
      "outputs": [],
      "stateMutability": "nonpayable",
      "type": "function"
    },
    {
      "inputs": [],
      "name": "checker",
      "outputs": [
        {
          "internalType": "bool",
          "name": "canExec",
          "type": "bool"
        },
        {
          "internalType": "bytes",
          "name": "execPayload",
          "type": "bytes"
        }
      ],
      "stateMutability": "view",
      "type": "function"
    },
    {
      "inputs": [],
      "name": "delay",
      "outputs": [
        {
          "internalType": "uint256",
          "name": "",
          "type": "uint256"
        }
      ],
      "stateMutability": "view",
      "type": "function"
    },
    {
      "inputs": [],
      "name": "lastExecuted",
      "outputs": [
        {
          "internalType": "uint256",
          "name": "",
          "type": "uint256"
        }
      ],
      "stateMutability": "view",
      "type": "function"
    },
    {
      "inputs": [],
      "name": "lastRootSent",
      "outputs": [
        {
          "internalType": "bytes32",
          "name": "",
          "type": "bytes32"
        }
      ],
      "stateMutability": "view",
      "type": "function"
    },
    {
      "inputs": [],
      "name": "owner",
      "outputs": [
        {
          "internalType": "address",
          "name": "",
          "type": "address"
        }
      ],
      "stateMutability": "view",
      "type": "function"
    },
    {
      "inputs": [
        {
          "internalType": "address",
          "name": "newlyProposed",
          "type": "address"
        }
      ],
      "name": "proposeNewOwner",
      "outputs": [],
      "stateMutability": "nonpayable",
      "type": "function"
    },
    {
      "inputs": [],
      "name": "proposed",
      "outputs": [
        {
          "internalType": "address",
          "name": "",
          "type": "address"
        }
      ],
      "stateMutability": "view",
      "type": "function"
    },
    {
      "inputs": [],
      "name": "proposedTimestamp",
      "outputs": [
        {
          "internalType": "uint256",
          "name": "",
          "type": "uint256"
        }
      ],
      "stateMutability": "view",
      "type": "function"
    },
    {
      "inputs": [],
      "name": "renounceOwnership",
      "outputs": [],
      "stateMutability": "nonpayable",
      "type": "function"
    },
    {
      "inputs": [],
      "name": "renounced",
      "outputs": [
        {
          "internalType": "bool",
          "name": "",
          "type": "bool"
        }
      ],
      "stateMutability": "view",
      "type": "function"
    },
    {
      "inputs": [
        {
          "internalType": "bytes32",
          "name": "outboundRoot",
          "type": "bytes32"
        }
      ],
      "name": "sendMessage",
      "outputs": [],
      "stateMutability": "nonpayable",
      "type": "function"
    }
  ],
  "transactionHash": "0x4e914aadd52e8e1d0548a0bba30e68f14ac37a432468b9ee028401296af00f77",
  "args": [
    "0x885DE7121e515673B31b6494c54879ddD198eADb",
    1800
  ],
  "numDeployments": 1,
  "solcInputHash": "139f6a212a299a89eb3a6a1d185e8514",
  "bytecode": "0x60a060405234801561001057600080fd5b50604051610a46380380610a4683398101604081905261002f91610127565b600081116100a95760405162461bcd60e51b815260206004820152603860248201527f53656e644f7574626f756e64526f6f745265736f6c7665723a2065786563757460448201527f696f6e20696e74657276616c206d757374206265203e20300000000000000000606482015260840160405180910390fd5b6100b2336100c8565b6001600160a01b03909116608052600355610161565b600080546001600160a01b038381166001600160a01b0319808416821785556002859055600180549091169055604051919092169283917f8be0079c531659141344cd1fd0a4f28419497f9722a3daafe3b4186f6b6457e09190a35050565b6000806040838503121561013a57600080fd5b82516001600160a01b038116811461015157600080fd5b6020939093015192949293505050565b6080516108bc61018a600039600081816101770152818161048701526105b301526108bc6000f3fe608060405234801561001057600080fd5b50600436106100f55760003560e01c8063a5f8754411610097578063cf5303cf11610066578063cf5303cf146101bd578063d1851c92146101d3578063d232c220146101e4578063e12c9ca81461020057600080fd5b8063a5f8754414610172578063b0b943a214610199578063b1f8100d146101a2578063c5b350df146101b557600080fd5b806345102ffb116100d357806345102ffb146101275780636a42b8f81461013c578063715018a6146101455780638da5cb5b1461014d57600080fd5b80631c15ff77146100fa5780631cf123b6146101165780633cf52ffb1461011f575b600080fd5b61010360045481565b6040519081526020015b60405180910390f35b61010360055481565b600254610103565b61013a610135366004610706565b610213565b005b62093a80610103565b61013a6102bd565b6000546001600160a01b03165b6040516001600160a01b03909116815260200161010d565b61015a7f000000000000000000000000000000000000000000000000000000000000000081565b61010360035481565b61013a6101b036600461071f565b61037c565b61013a610424565b6101c561047f565b60405161010d92919061079c565b6001546001600160a01b031661015a565b6000546040516001600160a01b0390911615815260200161010d565b61013a61020e366004610706565b6105b1565b6000546001600160a01b0316331461023e576040516311a8a1bb60e31b815260040160405180910390fd5b600081116102b85760405162461bcd60e51b815260206004820152603860248201527f53656e644f7574626f756e64526f6f745265736f6c7665723a2065786563757460448201527f696f6e20696e74657276616c206d757374206265203e20300000000000000000606482015260840160405180910390fd5b600355565b6000546001600160a01b031633146102e8576040516311a8a1bb60e31b815260040160405180910390fd5b60025460000361030b57604051630e4b303f60e21b815260040160405180910390fd5b62093a806002544261031d91906107d5565b1161033b576040516386d4b3f160e01b815260040160405180910390fd5b6001546001600160a01b031615610365576040516323295ef960e01b815260040160405180910390fd5b60015461037a906001600160a01b0316610659565b565b6000546001600160a01b031633146103a7576040516311a8a1bb60e31b815260040160405180910390fd5b6001546001600160a01b0382811691161480156103cc57506001600160a01b03811615155b156103ea576040516311bc066560e11b815260040160405180910390fd5b6000546001600160a01b0380831691160361041857604051634a2fb73f60e11b815260040160405180910390fd5b610421816106b8565b50565b6001546001600160a01b0316331461044f576040516311a7f27160e11b815260040160405180910390fd5b62093a806002544261046191906107d5565b116103655760405163d39c12bb60e01b815260040160405180910390fd5b6000606060007f00000000000000000000000000000000000000000000000000000000000000006001600160a01b03166365eaf11b6040518163ffffffff1660e01b8152600401602060405180830381865afa1580156104e3573d6000803e3d6000fd5b505050506040513d601f19601f8201168201806040525081019061050791906107ec565b90504260035460045461051a9190610805565b11156105445760006040518060600160405280602d815260200161085a602d913992509250509091565b80600554036105715760006040518060600160405280602981526020016108316029913992509250509091565b604080516024808201939093528151808203909301835260440190526020810180516001600160e01b0316631c25939560e31b1790526001939092509050565b7f00000000000000000000000000000000000000000000000000000000000000006001600160a01b03166382646a58826040516020016105f391815260200190565b6040516020818303038152906040526040518263ffffffff1660e01b815260040161061e919061081d565b600060405180830381600087803b15801561063857600080fd5b505af115801561064c573d6000803e3d6000fd5b5050426004555050600555565b600080546001600160a01b038381166001600160a01b0319808416821785556002859055600180549091169055604051919092169283917f8be0079c531659141344cd1fd0a4f28419497f9722a3daafe3b4186f6b6457e09190a35050565b42600255600180546001600160a01b0319166001600160a01b0383169081179091556040517f6ab4d119f23076e8ad491bc65ce85f017fb0591dce08755ba8591059cc51737a90600090a250565b60006020828403121561071857600080fd5b5035919050565b60006020828403121561073157600080fd5b81356001600160a01b038116811461074857600080fd5b9392505050565b6000815180845260005b8181101561077557602081850181015186830182015201610759565b81811115610787576000602083870101525b50601f01601f19169290920160200192915050565b82151581526040602082015260006107b7604083018461074f565b949350505050565b634e487b7160e01b600052601160045260246000fd5b6000828210156107e7576107e76107bf565b500390565b6000602082840312156107fe57600080fd5b5051919050565b60008219821115610818576108186107bf565b500190565b602081526000610748602083018461074f56fe53656e7420726f6f74206973207468652073616d65206173207468652063757272656e7420726f6f74455845435554494f4e5f494e54455256414c207365636f6e647320617265206e6f742070617373656420796574a2646970667358221220bb01e637521d78488574407110dfb24b1175ddd408f89efc8cb039bbf238bdaa64736f6c634300080f0033",
  "devdoc": {
    "kind": "dev",
    "methods": {},
    "version": 1
  },
  "userdoc": {
    "kind": "user",
    "methods": {
      "acceptProposedOwner()": {
        "notice": "Transfers ownership of the contract to a new account (`newOwner`). Can only be called by the current owner."
      },
      "delay()": {
        "notice": "Returns the delay period before a new owner can be accepted."
      },
      "owner()": {
        "notice": "Returns the address of the current owner."
      },
      "proposeNewOwner(address)": {
        "notice": "Sets the timestamp for an owner to be proposed, and sets the newly proposed owner as step 1 in a 2-step process"
      },
      "proposed()": {
        "notice": "Returns the address of the proposed owner."
      },
      "proposedTimestamp()": {
        "notice": "Returns the address of the proposed owner."
      },
      "renounceOwnership()": {
        "notice": "Renounces ownership of the contract after a delay"
      },
      "renounced()": {
        "notice": "Indicates if the ownership has been renounced() by checking if current owner is address(0)"
      }
    },
    "version": 1
  },
  "storageLayout": {
    "storage": [
      {
        "astId": 33678,
        "contract": "contracts/core/messaging/connectors/SendOutboundRootResolver.sol:SendOutboundRootResolver",
        "label": "_owner",
        "offset": 0,
        "slot": "0",
        "type": "t_address"
      },
      {
        "astId": 33680,
        "contract": "contracts/core/messaging/connectors/SendOutboundRootResolver.sol:SendOutboundRootResolver",
        "label": "_proposed",
        "offset": 0,
        "slot": "1",
        "type": "t_address"
      },
      {
        "astId": 33682,
        "contract": "contracts/core/messaging/connectors/SendOutboundRootResolver.sol:SendOutboundRootResolver",
        "label": "_proposedOwnershipTimestamp",
        "offset": 0,
        "slot": "2",
        "type": "t_uint256"
      },
      {
        "astId": 29625,
        "contract": "contracts/core/messaging/connectors/SendOutboundRootResolver.sol:SendOutboundRootResolver",
        "label": "EXECUTION_INTERVAL",
        "offset": 0,
        "slot": "3",
        "type": "t_uint256"
      },
      {
        "astId": 29627,
        "contract": "contracts/core/messaging/connectors/SendOutboundRootResolver.sol:SendOutboundRootResolver",
        "label": "lastExecuted",
        "offset": 0,
        "slot": "4",
        "type": "t_uint256"
      },
      {
        "astId": 29629,
        "contract": "contracts/core/messaging/connectors/SendOutboundRootResolver.sol:SendOutboundRootResolver",
        "label": "lastRootSent",
        "offset": 0,
        "slot": "5",
        "type": "t_bytes32"
      }
    ],
    "types": {
      "t_address": {
        "encoding": "inplace",
        "label": "address",
        "numberOfBytes": "20"
      },
      "t_bytes32": {
        "encoding": "inplace",
        "label": "bytes32",
        "numberOfBytes": "32"
      },
      "t_uint256": {
        "encoding": "inplace",
        "label": "uint256",
        "numberOfBytes": "32"
      }
    }
  }
}