{
  "address": "0xaD9BAc6Ee0A1621c051d1B66eC1f80EBdF098c30",
  "abi": [
    {
      "inputs": [],
      "name": "BaseConnextFacet__nonReentrant_reentrantCall",
      "type": "error"
    },
    {
      "inputs": [],
      "name": "BaseConnextFacet__onlyBridgeRouter_notBridgeRouter",
      "type": "error"
    },
    {
      "inputs": [],
      "name": "BaseConnextFacet__onlyOwner_notOwner",
      "type": "error"
    },
    {
      "inputs": [],
      "name": "BaseConnextFacet__onlyProposed_notProposedOwner",
      "type": "error"
    },
    {
      "inputs": [],
      "name": "BaseConnextFacet__whenNotPaused_paused",
      "type": "error"
    },
    {
      "inputs": [],
      "name": "ProposedOwnableFacet__acceptProposedOwner_delayNotElapsed",
      "type": "error"
    },
    {
      "inputs": [],
      "name": "ProposedOwnableFacet__acceptProposedOwner_noOwnershipChange",
      "type": "error"
    },
    {
      "inputs": [],
      "name": "ProposedOwnableFacet__proposeAssetWhitelistRemoval_noOwnershipChange",
      "type": "error"
    },
    {
      "inputs": [],
      "name": "ProposedOwnableFacet__proposeNewOwner_invalidProposal",
      "type": "error"
    },
    {
      "inputs": [],
      "name": "ProposedOwnableFacet__proposeNewOwner_noOwnershipChange",
      "type": "error"
    },
    {
      "inputs": [],
      "name": "ProposedOwnableFacet__proposeRouterWhitelistRemoval_noOwnershipChange",
      "type": "error"
    },
    {
      "inputs": [],
      "name": "ProposedOwnableFacet__removeAssetWhitelist_delayNotElapsed",
      "type": "error"
    },
    {
      "inputs": [],
      "name": "ProposedOwnableFacet__removeAssetWhitelist_noOwnershipChange",
      "type": "error"
    },
    {
      "inputs": [],
      "name": "ProposedOwnableFacet__removeAssetWhitelist_noProposal",
      "type": "error"
    },
    {
      "inputs": [],
      "name": "ProposedOwnableFacet__removeRouterWhitelist_delayNotElapsed",
      "type": "error"
    },
    {
      "inputs": [],
      "name": "ProposedOwnableFacet__removeRouterWhitelist_noOwnershipChange",
      "type": "error"
    },
    {
      "inputs": [],
      "name": "ProposedOwnableFacet__removeRouterWhitelist_noProposal",
      "type": "error"
    },
    {
      "inputs": [],
      "name": "ProposedOwnableFacet__renounceOwnership_delayNotElapsed",
      "type": "error"
    },
    {
      "inputs": [],
      "name": "ProposedOwnableFacet__renounceOwnership_invalidProposal",
      "type": "error"
    },
    {
      "inputs": [],
      "name": "ProposedOwnableFacet__renounceOwnership_noProposal",
      "type": "error"
    },
    {
      "anonymous": false,
      "inputs": [
        {
          "indexed": false,
          "internalType": "uint256",
          "name": "timestamp",
          "type": "uint256"
        }
      ],
      "name": "AssetWhitelistRemovalProposed",
      "type": "event"
    },
    {
      "anonymous": false,
      "inputs": [
        {
          "indexed": false,
          "internalType": "bool",
          "name": "renounced",
          "type": "bool"
        }
      ],
      "name": "AssetWhitelistRemoved",
      "type": "event"
    },
    {
      "anonymous": false,
      "inputs": [
        {
          "indexed": true,
          "internalType": "address",
          "name": "proposedOwner",
          "type": "address"
        }
      ],
      "name": "OwnershipProposed",
      "type": "event"
    },
    {
      "anonymous": false,
      "inputs": [
        {
          "indexed": true,
          "internalType": "address",
          "name": "previousOwner",
          "type": "address"
        },
        {
          "indexed": true,
          "internalType": "address",
          "name": "newOwner",
          "type": "address"
        }
      ],
      "name": "OwnershipTransferred",
      "type": "event"
    },
    {
      "anonymous": false,
      "inputs": [],
      "name": "Paused",
      "type": "event"
    },
    {
      "anonymous": false,
      "inputs": [
        {
          "indexed": false,
          "internalType": "uint256",
          "name": "timestamp",
          "type": "uint256"
        }
      ],
      "name": "RouterWhitelistRemovalProposed",
      "type": "event"
    },
    {
      "anonymous": false,
      "inputs": [
        {
          "indexed": false,
          "internalType": "bool",
          "name": "renounced",
          "type": "bool"
        }
      ],
      "name": "RouterWhitelistRemoved",
      "type": "event"
    },
    {
      "anonymous": false,
      "inputs": [],
      "name": "Unpaused",
      "type": "event"
    },
    {
      "inputs": [],
      "name": "acceptProposedOwner",
      "outputs": [],
      "stateMutability": "nonpayable",
      "type": "function"
    },
    {
      "inputs": [],
      "name": "assetWhitelistRemoved",
      "outputs": [
        {
          "internalType": "bool",
          "name": "",
          "type": "bool"
        }
      ],
      "stateMutability": "view",
      "type": "function"
    },
    {
      "inputs": [],
      "name": "assetWhitelistTimestamp",
      "outputs": [
        {
          "internalType": "uint256",
          "name": "",
          "type": "uint256"
        }
      ],
      "stateMutability": "view",
      "type": "function"
    },
    {
      "inputs": [],
      "name": "delay",
      "outputs": [
        {
          "internalType": "uint256",
          "name": "",
          "type": "uint256"
        }
      ],
      "stateMutability": "pure",
      "type": "function"
    },
    {
      "inputs": [],
      "name": "owner",
      "outputs": [
        {
          "internalType": "address",
          "name": "",
          "type": "address"
        }
      ],
      "stateMutability": "view",
      "type": "function"
    },
    {
      "inputs": [],
      "name": "pause",
      "outputs": [],
      "stateMutability": "nonpayable",
      "type": "function"
    },
    {
      "inputs": [],
      "name": "proposeAssetWhitelistRemoval",
      "outputs": [],
      "stateMutability": "nonpayable",
      "type": "function"
    },
    {
      "inputs": [
        {
          "internalType": "address",
          "name": "newlyProposed",
          "type": "address"
        }
      ],
      "name": "proposeNewOwner",
      "outputs": [],
      "stateMutability": "nonpayable",
      "type": "function"
    },
    {
      "inputs": [],
      "name": "proposeRouterWhitelistRemoval",
      "outputs": [],
      "stateMutability": "nonpayable",
      "type": "function"
    },
    {
      "inputs": [],
      "name": "proposed",
      "outputs": [
        {
          "internalType": "address",
          "name": "",
          "type": "address"
        }
      ],
      "stateMutability": "view",
      "type": "function"
    },
    {
      "inputs": [],
      "name": "proposedTimestamp",
      "outputs": [
        {
          "internalType": "uint256",
          "name": "",
          "type": "uint256"
        }
      ],
      "stateMutability": "view",
      "type": "function"
    },
    {
      "inputs": [],
      "name": "removeAssetWhitelist",
      "outputs": [],
      "stateMutability": "nonpayable",
      "type": "function"
    },
    {
      "inputs": [],
      "name": "removeRouterWhitelist",
      "outputs": [],
      "stateMutability": "nonpayable",
      "type": "function"
    },
    {
      "inputs": [],
      "name": "renounceOwnership",
      "outputs": [],
      "stateMutability": "nonpayable",
      "type": "function"
    },
    {
      "inputs": [],
      "name": "renounced",
      "outputs": [
        {
          "internalType": "bool",
          "name": "",
          "type": "bool"
        }
      ],
      "stateMutability": "view",
      "type": "function"
    },
    {
      "inputs": [],
      "name": "routerWhitelistRemoved",
      "outputs": [
        {
          "internalType": "bool",
          "name": "",
          "type": "bool"
        }
      ],
      "stateMutability": "view",
      "type": "function"
    },
    {
      "inputs": [],
      "name": "routerWhitelistTimestamp",
      "outputs": [
        {
          "internalType": "uint256",
          "name": "",
          "type": "uint256"
        }
      ],
      "stateMutability": "view",
      "type": "function"
    },
    {
      "inputs": [],
      "name": "unpause",
      "outputs": [],
      "stateMutability": "nonpayable",
      "type": "function"
    }
  ],
  "transactionHash": "0x594182e91f6d77058c73bbe9f91214fba215dc2b22a51b6221cd47c819c6d407",
  "args": [],
  "numDeployments": 2,
  "solcInputHash": "4b4411b61b62b6c4dcc14642f867e316",
  "bytecode": "0x608060405234801561001057600080fd5b506109db806100206000396000f3fe608060405234801561001057600080fd5b50600436106101165760003560e01c80638456cb59116100a2578063c5b350df11610071578063c5b350df146101c7578063d1851c92146101cf578063d232c220146101e0578063e2b31fc7146101e8578063f2d8d74a146101f057600080fd5b80638456cb59146101845780638da5cb5b1461018c578063a59c8c64146101ac578063b1f8100d146101b457600080fd5b80633cf52ffb116100e95780633cf52ffb1461015b5780633f4ba83a146101635780636a42b8f81461016b5780636e26deba14610174578063715018a61461017c57600080fd5b806311f7ea6d1461011b5780632c6c579c14610137578063357aac78146101415780633863f87414610149575b600080fd5b601a5460ff165b60405190151581526020015b60405180910390f35b61013f6101fb565b005b61013f610259565b601b545b60405190815260200161012e565b60175461014d565b61013f6102b5565b62093a8061014d565b60195461014d565b61013f61031a565b61013f6103db565b610194610443565b6040516001600160a01b03909116815260200161012e565b61013f610452565b61013f6101c2366004610950565b610503565b61013f6105bb565b6016546001600160a01b0316610194565b610122610651565b61013f61066b565b60185460ff16610122565b3361020461071c565b6001600160a01b03161461022b576040516314e74a2560e21b815260040160405180910390fd5b60185460ff161561024f57604051633934404160e01b815260040160405180910390fd5b61025761074a565b565b3361026261071c565b6001600160a01b031614610289576040516314e74a2560e21b815260040160405180910390fd5b601a5460ff16156102ad5760405163a3515c1f60e01b815260040160405180910390fd5b610257610786565b336102be61071c565b6001600160a01b0316146102e5576040516314e74a2560e21b815260040160405180910390fd5b6025805460ff191690556040517fa45f47fdea8a1efdd9029a5691c7f759c32b7c698632b563573e155625d1693390600090a1565b3361032361071c565b6001600160a01b03161461034a576040516314e74a2560e21b815260040160405180910390fd5b60175460000361036d57604051630fde518360e11b815260040160405180910390fd5b60175462093a809061037f9042610980565b1161039c576040516202943360e61b815260040160405180910390fd5b6016546001600160a01b0316156103c6576040516351d346a960e01b815260040160405180910390fd5b601654610257906001600160a01b03166107bc565b336103e461071c565b6001600160a01b03161461040b576040516314e74a2560e21b815260040160405180910390fd5b6025805460ff191660011790556040517f9e87fac88ff661f02d44f95383c817fece4bce600a3dab7a54406878b965e75290600090a1565b600061044d61071c565b905090565b3361045b61071c565b6001600160a01b031614610482576040516314e74a2560e21b815260040160405180910390fd5b60185460ff16156104a65760405163c4fcf53b60e01b815260040160405180910390fd5b6019546000036104c95760405163a7f043cd60e01b815260040160405180910390fd5b60195462093a80906104db9042610980565b116104f957604051630f94fc2560e21b815260040160405180910390fd5b61025760016107da565b3361050c61071c565b6001600160a01b031614610533576040516314e74a2560e21b815260040160405180910390fd5b6016546001600160a01b03828116911614801561055857506001600160a01b03811615155b1561057657604051630274ac4360e21b815260040160405180910390fd5b806001600160a01b0316610588610443565b6001600160a01b0316036105af57604051631f677f5160e01b815260040160405180910390fd5b6105b881610827565b50565b6016546001600160a01b031633146105e657604051631b54eee360e11b815260040160405180910390fd5b6016546001600160a01b03166105fa610443565b6001600160a01b031603610621576040516355cc507960e01b815260040160405180910390fd5b60175462093a80906106339042610980565b116103c6576040516301e60c7360e51b815260040160405180910390fd5b60008061065c610443565b6001600160a01b031614905090565b3361067461071c565b6001600160a01b03161461069b576040516314e74a2560e21b815260040160405180910390fd5b601a5460ff16156106bf57604051630608cb0760e41b815260040160405180910390fd5b601b546000036106e257604051634bb4e70d60e01b815260040160405180910390fd5b601b5462093a80906106f49042610980565b11610712576040516320502ec760e21b815260040160405180910390fd5b6102576001610875565b7fc8fcad8db84d3cc18b4c41d551ea0ee66dd599cde068d998e57d5e09332c1320546001600160a01b031690565b4260198190556040519081527f3fb93cd2d7b177a05cdfd1945eefab6bd66ff1c9935d36b3d3906f8f63b4b7cc906020015b60405180910390a1565b42601b8190556040519081527f33b2ecb6423e15093e362932044a5d4b879d34959f073bcc4a2f622a4a48d77a9060200161077c565b6000601755601680546001600160a01b03191690556105b8816108bb565b6018805460ff191682151590811790915560006019556040519081527f4304b1b406eaf3fee0619669a5059495538ebbc3000c03d3ff6ccbc266f25e3c906020015b60405180910390a150565b42601755601680546001600160a01b0319166001600160a01b0383169081179091556040517f6ab4d119f23076e8ad491bc65ce85f017fb0591dce08755ba8591059cc51737a90600090a250565b601a805460ff19168215159081179091556000601b556040519081527f6d2bda5daaba704b44ef68f2d7e8da6da754a843400bb7b37ae88b41864b7fd59060200161081c565b7fc8fcad8db84d3cc18b4c41d551ea0ee66dd599cde068d998e57d5e09332c132080546001600160a01b031981166001600160a01b038481169182179093556040517fc8fcad8db84d3cc18b4c41d551ea0ee66dd599cde068d998e57d5e09332c131c939092169182907f8be0079c531659141344cd1fd0a4f28419497f9722a3daafe3b4186f6b6457e090600090a3505050565b60006020828403121561096257600080fd5b81356001600160a01b038116811461097957600080fd5b9392505050565b6000828210156109a057634e487b7160e01b600052601160045260246000fd5b50039056fea26469706673582212209c3267b938622249c3bd8a0cae2bd9715874ebcd8c4c0c4527ba9862e0f3bddb64736f6c634300080f0033",
  "devdoc": {
    "details": "This module is used through inheritance. It will make available the modifier `onlyOwner`, which can be applied to your functions to restrict their use to the owner.The majority of this code was taken from the openzeppelin Ownable contract",
    "kind": "dev",
    "methods": {},
    "title": "ProposedOwnable",
    "version": 1
  },
  "userdoc": {
    "kind": "user",
    "methods": {
      "acceptProposedOwner()": {
        "notice": "Transfers ownership of the contract to a new account (`newOwner`). Can only be called by the proposed owner."
      },
      "assetWhitelistRemoved()": {
        "notice": "Returns if the asset whitelist is removed."
      },
      "assetWhitelistTimestamp()": {
        "notice": "Returns the timestamp when asset whitelist was last proposed to be removed"
      },
      "delay()": {
        "notice": "Returns the delay period before a new owner can be accepted."
      },
      "owner()": {
        "notice": "Returns the address of the current owner."
      },
      "proposeAssetWhitelistRemoval()": {
        "notice": "Indicates if the ownership of the asset whitelist has been renounced"
      },
      "proposeNewOwner(address)": {
        "notice": "Sets the timestamp for an owner to be proposed, and sets the newly proposed owner as step 1 in a 2-step process"
      },
      "proposeRouterWhitelistRemoval()": {
        "notice": "Indicates if the ownership of the router whitelist has been renounced"
      },
      "proposed()": {
        "notice": "Returns the address of the proposed owner."
      },
      "proposedTimestamp()": {
        "notice": "Returns the address of the proposed owner."
      },
      "removeAssetWhitelist()": {
        "notice": "Indicates if the ownership of the asset whitelist has been renounced"
      },
      "removeRouterWhitelist()": {
        "notice": "Indicates if the ownership of the asset whitelist has been renounced"
      },
      "renounceOwnership()": {
        "notice": "Renounces ownership of the contract after a delay"
      },
      "renounced()": {
        "notice": "Indicates if the ownership has been renounced() by checking if current owner is address(0)"
      },
      "routerWhitelistRemoved()": {
        "notice": "Returns if the router whitelist is removed."
      },
      "routerWhitelistTimestamp()": {
        "notice": "Returns the timestamp when router whitelist was last proposed to be removed"
      }
    },
    "notice": "Contract module which provides a basic access control mechanism, where there is an account (an owner) that can be granted exclusive access to specific functions. By default, the owner account will be the one that deploys the contract. This can later be changed via a two step process: 1. Call `proposeOwner` 2. Wait out the delay period 3. Call `acceptOwner`",
    "version": 1
  },
  "storageLayout": {
    "storage": [
      {
        "astId": 6382,
        "contract": "contracts/core/connext/facets/ProposedOwnableFacet.sol:ProposedOwnableFacet",
        "label": "s",
        "offset": 0,
        "slot": "0",
        "type": "t_struct(AppStorage)19374_storage"
      }
    ],
    "types": {
      "t_address": {
        "encoding": "inplace",
        "label": "address",
        "numberOfBytes": "20"
      },
      "t_array(t_address)dyn_storage": {
        "base": "t_address",
        "encoding": "dynamic_array",
        "label": "address[]",
        "numberOfBytes": "32"
      },
      "t_array(t_contract(IERC20)3580)dyn_storage": {
        "base": "t_contract(IERC20)3580",
        "encoding": "dynamic_array",
        "label": "contract IERC20[]",
        "numberOfBytes": "32"
      },
      "t_array(t_uint256)dyn_storage": {
        "base": "t_uint256",
        "encoding": "dynamic_array",
        "label": "uint256[]",
        "numberOfBytes": "32"
      },
      "t_bool": {
        "encoding": "inplace",
        "label": "bool",
        "numberOfBytes": "1"
      },
      "t_bytes32": {
        "encoding": "inplace",
        "label": "bytes32",
        "numberOfBytes": "32"
      },
      "t_contract(IBridgeRouter)16267": {
        "encoding": "inplace",
        "label": "contract IBridgeRouter",
        "numberOfBytes": "20"
      },
      "t_contract(IERC20)3580": {
        "encoding": "inplace",
        "label": "contract IERC20",
        "numberOfBytes": "20"
      },
      "t_contract(IExecutor)17434": {
        "encoding": "inplace",
        "label": "contract IExecutor",
        "numberOfBytes": "20"
      },
      "t_contract(ISponsorVault)17504": {
        "encoding": "inplace",
        "label": "contract ISponsorVault",
        "numberOfBytes": "20"
      },
      "t_contract(IStableSwap)17818": {
        "encoding": "inplace",
        "label": "contract IStableSwap",
        "numberOfBytes": "20"
      },
      "t_contract(ITokenRegistry)17907": {
        "encoding": "inplace",
        "label": "contract ITokenRegistry",
        "numberOfBytes": "20"
      },
      "t_contract(LPToken)14145": {
        "encoding": "inplace",
        "label": "contract LPToken",
        "numberOfBytes": "20"
      },
      "t_contract(PromiseRouter)28337": {
        "encoding": "inplace",
        "label": "contract PromiseRouter",
        "numberOfBytes": "20"
      },
      "t_contract(RelayerFeeRouter)28897": {
        "encoding": "inplace",
        "label": "contract RelayerFeeRouter",
        "numberOfBytes": "20"
      },
      "t_mapping(t_address,t_address)": {
        "encoding": "mapping",
        "key": "t_address",
        "label": "mapping(address => address)",
        "numberOfBytes": "32",
        "value": "t_address"
      },
      "t_mapping(t_address,t_bool)": {
        "encoding": "mapping",
        "key": "t_address",
        "label": "mapping(address => bool)",
        "numberOfBytes": "32",
        "value": "t_bool"
      },
      "t_mapping(t_address,t_mapping(t_address,t_uint256))": {
        "encoding": "mapping",
        "key": "t_address",
        "label": "mapping(address => mapping(address => uint256))",
        "numberOfBytes": "32",
        "value": "t_mapping(t_address,t_uint256)"
      },
      "t_mapping(t_address,t_struct(TokenId)19129_storage)": {
        "encoding": "mapping",
        "key": "t_address",
        "label": "mapping(address => struct TokenId)",
        "numberOfBytes": "32",
        "value": "t_struct(TokenId)19129_storage"
      },
      "t_mapping(t_address,t_uint256)": {
        "encoding": "mapping",
        "key": "t_address",
        "label": "mapping(address => uint256)",
        "numberOfBytes": "32",
        "value": "t_uint256"
      },
      "t_mapping(t_address,t_uint8)": {
        "encoding": "mapping",
        "key": "t_address",
        "label": "mapping(address => uint8)",
        "numberOfBytes": "32",
        "value": "t_uint8"
      },
      "t_mapping(t_bytes32,t_address)": {
        "encoding": "mapping",
        "key": "t_bytes32",
        "label": "mapping(bytes32 => address)",
        "numberOfBytes": "32",
        "value": "t_address"
      },
      "t_mapping(t_bytes32,t_array(t_address)dyn_storage)": {
        "encoding": "mapping",
        "key": "t_bytes32",
        "label": "mapping(bytes32 => address[])",
        "numberOfBytes": "32",
        "value": "t_array(t_address)dyn_storage"
      },
      "t_mapping(t_bytes32,t_bool)": {
        "encoding": "mapping",
        "key": "t_bytes32",
        "label": "mapping(bytes32 => bool)",
        "numberOfBytes": "32",
        "value": "t_bool"
      },
      "t_mapping(t_bytes32,t_contract(IStableSwap)17818)": {
        "encoding": "mapping",
        "key": "t_bytes32",
        "label": "mapping(bytes32 => contract IStableSwap)",
        "numberOfBytes": "32",
        "value": "t_contract(IStableSwap)17818"
      },
      "t_mapping(t_bytes32,t_mapping(t_address,t_uint8))": {
        "encoding": "mapping",
        "key": "t_bytes32",
        "label": "mapping(bytes32 => mapping(address => uint8))",
        "numberOfBytes": "32",
        "value": "t_mapping(t_address,t_uint8)"
      },
      "t_mapping(t_bytes32,t_struct(Swap)20709_storage)": {
        "encoding": "mapping",
        "key": "t_bytes32",
        "label": "mapping(bytes32 => struct SwapUtils.Swap)",
        "numberOfBytes": "32",
        "value": "t_struct(Swap)20709_storage"
      },
      "t_mapping(t_bytes32,t_uint256)": {
        "encoding": "mapping",
        "key": "t_bytes32",
        "label": "mapping(bytes32 => uint256)",
        "numberOfBytes": "32",
        "value": "t_uint256"
      },
      "t_mapping(t_uint32,t_bytes32)": {
        "encoding": "mapping",
        "key": "t_uint32",
        "label": "mapping(uint32 => bytes32)",
        "numberOfBytes": "32",
        "value": "t_bytes32"
      },
      "t_struct(AppStorage)19374_storage": {
        "encoding": "inplace",
        "label": "struct AppStorage",
        "members": [
          {
            "astId": 19221,
            "contract": "contracts/core/connext/facets/ProposedOwnableFacet.sol:ProposedOwnableFacet",
            "label": "initialized",
            "offset": 0,
            "slot": "0",
            "type": "t_bool"
          },
          {
            "astId": 19223,
            "contract": "contracts/core/connext/facets/ProposedOwnableFacet.sol:ProposedOwnableFacet",
            "label": "LIQUIDITY_FEE_NUMERATOR",
            "offset": 0,
            "slot": "1",
            "type": "t_uint256"
          },
          {
            "astId": 19226,
            "contract": "contracts/core/connext/facets/ProposedOwnableFacet.sol:ProposedOwnableFacet",
            "label": "relayerFeeRouter",
            "offset": 0,
            "slot": "2",
            "type": "t_contract(RelayerFeeRouter)28897"
          },
          {
            "astId": 19229,
            "contract": "contracts/core/connext/facets/ProposedOwnableFacet.sol:ProposedOwnableFacet",
            "label": "promiseRouter",
            "offset": 0,
            "slot": "3",
            "type": "t_contract(PromiseRouter)28337"
          },
          {
            "astId": 19232,
            "contract": "contracts/core/connext/facets/ProposedOwnableFacet.sol:ProposedOwnableFacet",
            "label": "nonce",
            "offset": 0,
            "slot": "4",
            "type": "t_uint256"
          },
          {
            "astId": 19236,
            "contract": "contracts/core/connext/facets/ProposedOwnableFacet.sol:ProposedOwnableFacet",
            "label": "executor",
            "offset": 0,
            "slot": "5",
            "type": "t_contract(IExecutor)17434"
          },
          {
            "astId": 19239,
            "contract": "contracts/core/connext/facets/ProposedOwnableFacet.sol:ProposedOwnableFacet",
            "label": "domain",
            "offset": 20,
            "slot": "5",
            "type": "t_uint32"
          },
          {
            "astId": 19243,
            "contract": "contracts/core/connext/facets/ProposedOwnableFacet.sol:ProposedOwnableFacet",
            "label": "tokenRegistry",
            "offset": 0,
            "slot": "6",
            "type": "t_contract(ITokenRegistry)17907"
          },
          {
            "astId": 19249,
            "contract": "contracts/core/connext/facets/ProposedOwnableFacet.sol:ProposedOwnableFacet",
            "label": "adoptedToLocalPools",
            "offset": 0,
            "slot": "7",
            "type": "t_mapping(t_bytes32,t_contract(IStableSwap)17818)"
          },
          {
            "astId": 19254,
            "contract": "contracts/core/connext/facets/ProposedOwnableFacet.sol:ProposedOwnableFacet",
            "label": "approvedAssets",
            "offset": 0,
            "slot": "8",
            "type": "t_mapping(t_bytes32,t_bool)"
          },
          {
            "astId": 19260,
            "contract": "contracts/core/connext/facets/ProposedOwnableFacet.sol:ProposedOwnableFacet",
            "label": "adoptedToCanonical",
            "offset": 0,
            "slot": "9",
            "type": "t_mapping(t_address,t_struct(TokenId)19129_storage)"
          },
          {
            "astId": 19265,
            "contract": "contracts/core/connext/facets/ProposedOwnableFacet.sol:ProposedOwnableFacet",
            "label": "canonicalToAdopted",
            "offset": 0,
            "slot": "10",
            "type": "t_mapping(t_bytes32,t_address)"
          },
          {
            "astId": 19270,
            "contract": "contracts/core/connext/facets/ProposedOwnableFacet.sol:ProposedOwnableFacet",
            "label": "reconciledTransfers",
            "offset": 0,
            "slot": "11",
            "type": "t_mapping(t_bytes32,t_bool)"
          },
          {
            "astId": 19276,
            "contract": "contracts/core/connext/facets/ProposedOwnableFacet.sol:ProposedOwnableFacet",
            "label": "routedTransfers",
            "offset": 0,
            "slot": "12",
            "type": "t_mapping(t_bytes32,t_array(t_address)dyn_storage)"
          },
          {
            "astId": 19283,
            "contract": "contracts/core/connext/facets/ProposedOwnableFacet.sol:ProposedOwnableFacet",
            "label": "routerBalances",
            "offset": 0,
            "slot": "13",
            "type": "t_mapping(t_address,t_mapping(t_address,t_uint256))"
          },
          {
            "astId": 19288,
            "contract": "contracts/core/connext/facets/ProposedOwnableFacet.sol:ProposedOwnableFacet",
            "label": "approvedRelayers",
            "offset": 0,
            "slot": "14",
            "type": "t_mapping(t_address,t_bool)"
          },
          {
            "astId": 19293,
            "contract": "contracts/core/connext/facets/ProposedOwnableFacet.sol:ProposedOwnableFacet",
            "label": "relayerFees",
            "offset": 0,
            "slot": "15",
            "type": "t_mapping(t_bytes32,t_uint256)"
          },
          {
            "astId": 19298,
            "contract": "contracts/core/connext/facets/ProposedOwnableFacet.sol:ProposedOwnableFacet",
            "label": "transferRelayer",
            "offset": 0,
            "slot": "16",
            "type": "t_mapping(t_bytes32,t_address)"
          },
          {
            "astId": 19301,
            "contract": "contracts/core/connext/facets/ProposedOwnableFacet.sol:ProposedOwnableFacet",
            "label": "maxRoutersPerTransfer",
            "offset": 0,
            "slot": "17",
            "type": "t_uint256"
          },
          {
            "astId": 19305,
            "contract": "contracts/core/connext/facets/ProposedOwnableFacet.sol:ProposedOwnableFacet",
            "label": "sponsorVault",
            "offset": 0,
            "slot": "18",
            "type": "t_contract(ISponsorVault)17504"
          },
          {
            "astId": 19309,
            "contract": "contracts/core/connext/facets/ProposedOwnableFacet.sol:ProposedOwnableFacet",
            "label": "bridgeRouter",
            "offset": 0,
            "slot": "19",
            "type": "t_contract(IBridgeRouter)16267"
          },
          {
            "astId": 19314,
            "contract": "contracts/core/connext/facets/ProposedOwnableFacet.sol:ProposedOwnableFacet",
            "label": "receiveLocalOverrides",
            "offset": 0,
            "slot": "20",
            "type": "t_mapping(t_bytes32,t_bool)"
          },
          {
            "astId": 19319,
            "contract": "contracts/core/connext/facets/ProposedOwnableFacet.sol:ProposedOwnableFacet",
            "label": "connextions",
            "offset": 0,
            "slot": "21",
            "type": "t_mapping(t_uint32,t_bytes32)"
          },
          {
            "astId": 19321,
            "contract": "contracts/core/connext/facets/ProposedOwnableFacet.sol:ProposedOwnableFacet",
            "label": "_proposed",
            "offset": 0,
            "slot": "22",
            "type": "t_address"
          },
          {
            "astId": 19323,
            "contract": "contracts/core/connext/facets/ProposedOwnableFacet.sol:ProposedOwnableFacet",
            "label": "_proposedOwnershipTimestamp",
            "offset": 0,
            "slot": "23",
            "type": "t_uint256"
          },
          {
            "astId": 19325,
            "contract": "contracts/core/connext/facets/ProposedOwnableFacet.sol:ProposedOwnableFacet",
            "label": "_routerWhitelistRemoved",
            "offset": 0,
            "slot": "24",
            "type": "t_bool"
          },
          {
            "astId": 19327,
            "contract": "contracts/core/connext/facets/ProposedOwnableFacet.sol:ProposedOwnableFacet",
            "label": "_routerWhitelistTimestamp",
            "offset": 0,
            "slot": "25",
            "type": "t_uint256"
          },
          {
            "astId": 19329,
            "contract": "contracts/core/connext/facets/ProposedOwnableFacet.sol:ProposedOwnableFacet",
            "label": "_assetWhitelistRemoved",
            "offset": 0,
            "slot": "26",
            "type": "t_bool"
          },
          {
            "astId": 19331,
            "contract": "contracts/core/connext/facets/ProposedOwnableFacet.sol:ProposedOwnableFacet",
            "label": "_assetWhitelistTimestamp",
            "offset": 0,
            "slot": "27",
            "type": "t_uint256"
          },
          {
            "astId": 19334,
            "contract": "contracts/core/connext/facets/ProposedOwnableFacet.sol:ProposedOwnableFacet",
            "label": "routerPermissionInfo",
            "offset": 0,
            "slot": "28",
            "type": "t_struct(RouterPermissionsManagerInfo)19219_storage"
          },
          {
            "astId": 19336,
            "contract": "contracts/core/connext/facets/ProposedOwnableFacet.sol:ProposedOwnableFacet",
            "label": "_status",
            "offset": 0,
            "slot": "34",
            "type": "t_uint256"
          },
          {
            "astId": 19342,
            "contract": "contracts/core/connext/facets/ProposedOwnableFacet.sol:ProposedOwnableFacet",
            "label": "swapStorages",
            "offset": 0,
            "slot": "35",
            "type": "t_mapping(t_bytes32,t_struct(Swap)20709_storage)"
          },
          {
            "astId": 19349,
            "contract": "contracts/core/connext/facets/ProposedOwnableFacet.sol:ProposedOwnableFacet",
            "label": "tokenIndexes",
            "offset": 0,
            "slot": "36",
            "type": "t_mapping(t_bytes32,t_mapping(t_address,t_uint8))"
          },
          {
            "astId": 19352,
            "contract": "contracts/core/connext/facets/ProposedOwnableFacet.sol:ProposedOwnableFacet",
            "label": "_paused",
            "offset": 0,
            "slot": "37",
            "type": "t_bool"
          },
          {
            "astId": 19355,
            "contract": "contracts/core/connext/facets/ProposedOwnableFacet.sol:ProposedOwnableFacet",
            "label": "aavePool",
            "offset": 1,
            "slot": "37",
            "type": "t_address"
          },
          {
            "astId": 19358,
            "contract": "contracts/core/connext/facets/ProposedOwnableFacet.sol:ProposedOwnableFacet",
            "label": "aavePortalFeeNumerator",
            "offset": 0,
            "slot": "38",
            "type": "t_uint256"
          },
          {
            "astId": 19363,
            "contract": "contracts/core/connext/facets/ProposedOwnableFacet.sol:ProposedOwnableFacet",
            "label": "portalDebt",
            "offset": 0,
            "slot": "39",
            "type": "t_mapping(t_bytes32,t_uint256)"
          },
          {
            "astId": 19368,
            "contract": "contracts/core/connext/facets/ProposedOwnableFacet.sol:ProposedOwnableFacet",
            "label": "portalFeeDebt",
            "offset": 0,
            "slot": "40",
            "type": "t_mapping(t_bytes32,t_uint256)"
          },
          {
            "astId": 19373,
            "contract": "contracts/core/connext/facets/ProposedOwnableFacet.sol:ProposedOwnableFacet",
            "label": "approvedSequencers",
            "offset": 0,
            "slot": "41",
            "type": "t_mapping(t_address,t_bool)"
          }
        ],
        "numberOfBytes": "1344"
      },
      "t_struct(RouterPermissionsManagerInfo)19219_storage": {
        "encoding": "inplace",
        "label": "struct RouterPermissionsManagerInfo",
        "members": [
          {
            "astId": 19198,
            "contract": "contracts/core/connext/facets/ProposedOwnableFacet.sol:ProposedOwnableFacet",
            "label": "approvedRouters",
            "offset": 0,
            "slot": "0",
            "type": "t_mapping(t_address,t_bool)"
          },
          {
            "astId": 19202,
            "contract": "contracts/core/connext/facets/ProposedOwnableFacet.sol:ProposedOwnableFacet",
            "label": "approvedForPortalRouters",
            "offset": 0,
            "slot": "1",
            "type": "t_mapping(t_address,t_bool)"
          },
          {
            "astId": 19206,
            "contract": "contracts/core/connext/facets/ProposedOwnableFacet.sol:ProposedOwnableFacet",
            "label": "routerRecipients",
            "offset": 0,
            "slot": "2",
            "type": "t_mapping(t_address,t_address)"
          },
          {
            "astId": 19210,
            "contract": "contracts/core/connext/facets/ProposedOwnableFacet.sol:ProposedOwnableFacet",
            "label": "routerOwners",
            "offset": 0,
            "slot": "3",
            "type": "t_mapping(t_address,t_address)"
          },
          {
            "astId": 19214,
            "contract": "contracts/core/connext/facets/ProposedOwnableFacet.sol:ProposedOwnableFacet",
            "label": "proposedRouterOwners",
            "offset": 0,
            "slot": "4",
            "type": "t_mapping(t_address,t_address)"
          },
          {
            "astId": 19218,
            "contract": "contracts/core/connext/facets/ProposedOwnableFacet.sol:ProposedOwnableFacet",
            "label": "proposedRouterTimestamp",
            "offset": 0,
            "slot": "5",
            "type": "t_mapping(t_address,t_uint256)"
          }
        ],
        "numberOfBytes": "192"
      },
      "t_struct(Swap)20709_storage": {
        "encoding": "inplace",
        "label": "struct SwapUtils.Swap",
        "members": [
          {
            "astId": 20680,
            "contract": "contracts/core/connext/facets/ProposedOwnableFacet.sol:ProposedOwnableFacet",
            "label": "key",
            "offset": 0,
            "slot": "0",
            "type": "t_bytes32"
          },
          {
            "astId": 20682,
            "contract": "contracts/core/connext/facets/ProposedOwnableFacet.sol:ProposedOwnableFacet",
            "label": "initialA",
            "offset": 0,
            "slot": "1",
            "type": "t_uint256"
          },
          {
            "astId": 20684,
            "contract": "contracts/core/connext/facets/ProposedOwnableFacet.sol:ProposedOwnableFacet",
            "label": "futureA",
            "offset": 0,
            "slot": "2",
            "type": "t_uint256"
          },
          {
            "astId": 20686,
            "contract": "contracts/core/connext/facets/ProposedOwnableFacet.sol:ProposedOwnableFacet",
            "label": "initialATime",
            "offset": 0,
            "slot": "3",
            "type": "t_uint256"
          },
          {
            "astId": 20688,
            "contract": "contracts/core/connext/facets/ProposedOwnableFacet.sol:ProposedOwnableFacet",
            "label": "futureATime",
            "offset": 0,
            "slot": "4",
            "type": "t_uint256"
          },
          {
            "astId": 20690,
            "contract": "contracts/core/connext/facets/ProposedOwnableFacet.sol:ProposedOwnableFacet",
            "label": "swapFee",
            "offset": 0,
            "slot": "5",
            "type": "t_uint256"
          },
          {
            "astId": 20692,
            "contract": "contracts/core/connext/facets/ProposedOwnableFacet.sol:ProposedOwnableFacet",
            "label": "adminFee",
            "offset": 0,
            "slot": "6",
            "type": "t_uint256"
          },
          {
            "astId": 20695,
            "contract": "contracts/core/connext/facets/ProposedOwnableFacet.sol:ProposedOwnableFacet",
            "label": "lpToken",
            "offset": 0,
            "slot": "7",
            "type": "t_contract(LPToken)14145"
          },
          {
            "astId": 20699,
            "contract": "contracts/core/connext/facets/ProposedOwnableFacet.sol:ProposedOwnableFacet",
            "label": "pooledTokens",
            "offset": 0,
            "slot": "8",
            "type": "t_array(t_contract(IERC20)3580)dyn_storage"
          },
          {
            "astId": 20702,
            "contract": "contracts/core/connext/facets/ProposedOwnableFacet.sol:ProposedOwnableFacet",
            "label": "tokenPrecisionMultipliers",
            "offset": 0,
            "slot": "9",
            "type": "t_array(t_uint256)dyn_storage"
          },
          {
            "astId": 20705,
            "contract": "contracts/core/connext/facets/ProposedOwnableFacet.sol:ProposedOwnableFacet",
            "label": "balances",
            "offset": 0,
            "slot": "10",
            "type": "t_array(t_uint256)dyn_storage"
          },
          {
            "astId": 20708,
            "contract": "contracts/core/connext/facets/ProposedOwnableFacet.sol:ProposedOwnableFacet",
            "label": "adminFees",
            "offset": 0,
            "slot": "11",
            "type": "t_array(t_uint256)dyn_storage"
          }
        ],
        "numberOfBytes": "384"
      },
      "t_struct(TokenId)19129_storage": {
        "encoding": "inplace",
        "label": "struct TokenId",
        "members": [
          {
            "astId": 19126,
            "contract": "contracts/core/connext/facets/ProposedOwnableFacet.sol:ProposedOwnableFacet",
            "label": "domain",
            "offset": 0,
            "slot": "0",
            "type": "t_uint32"
          },
          {
            "astId": 19128,
            "contract": "contracts/core/connext/facets/ProposedOwnableFacet.sol:ProposedOwnableFacet",
            "label": "id",
            "offset": 0,
            "slot": "1",
            "type": "t_bytes32"
          }
        ],
        "numberOfBytes": "64"
      },
      "t_uint256": {
        "encoding": "inplace",
        "label": "uint256",
        "numberOfBytes": "32"
      },
      "t_uint32": {
        "encoding": "inplace",
        "label": "uint32",
        "numberOfBytes": "4"
      },
      "t_uint8": {
        "encoding": "inplace",
        "label": "uint8",
        "numberOfBytes": "1"
      }
    }
  }
}