{
  "address": "0x65713824d38ed8C65acE1d5Ab41CF93506ffa8C3",
  "abi": [
    {
      "inputs": [
        {
          "internalType": "address",
          "name": "_connext",
          "type": "address"
        },
        {
          "internalType": "address",
          "name": "_spokeConnector",
          "type": "address"
        },
        {
          "internalType": "address",
          "name": "_gelatoRelayer",
          "type": "address"
        },
        {
          "internalType": "address",
          "name": "_feeCollector",
          "type": "address"
        },
        {
          "internalType": "address",
          "name": "_keep3r",
          "type": "address"
        },
        {
          "internalType": "address",
          "name": "_rootManager",
          "type": "address"
        },
        {
          "internalType": "address",
          "name": "_autonolas",
          "type": "address"
        },
        {
          "internalType": "uint256",
          "name": "_propagateCooldown",
          "type": "uint256"
        },
        {
          "internalType": "uint256",
          "name": "_proposeAggregateRootCooldown",
          "type": "uint256"
        },
        {
          "internalType": "address[]",
          "name": "_hubConnectors",
          "type": "address[]"
        },
        {
          "internalType": "uint32[]",
          "name": "_hubConnectorChains",
          "type": "uint32[]"
        }
      ],
      "stateMutability": "nonpayable",
      "type": "constructor"
    },
    {
      "inputs": [],
      "name": "ProposedOwnable__onlyOwner_notOwner",
      "type": "error"
    },
    {
      "inputs": [],
      "name": "ProposedOwnable__onlyProposed_notProposedOwner",
      "type": "error"
    },
    {
      "inputs": [],
      "name": "ProposedOwnable__ownershipDelayElapsed_delayNotElapsed",
      "type": "error"
    },
    {
      "inputs": [],
      "name": "ProposedOwnable__proposeNewOwner_invalidProposal",
      "type": "error"
    },
    {
      "inputs": [],
      "name": "ProposedOwnable__proposeNewOwner_noOwnershipChange",
      "type": "error"
    },
    {
      "inputs": [],
      "name": "ProposedOwnable__renounceOwnership_invalidProposal",
      "type": "error"
    },
    {
      "inputs": [],
      "name": "ProposedOwnable__renounceOwnership_noProposal",
      "type": "error"
    },
    {
      "inputs": [
        {
          "internalType": "uint256",
          "name": "timestamp",
          "type": "uint256"
        },
        {
          "internalType": "uint256",
          "name": "nextWorkable",
          "type": "uint256"
        }
      ],
      "name": "RelayerProxyHub__finalizeAndPropagateCooledDown_notCooledDown",
      "type": "error"
    },
    {
      "inputs": [
        {
          "internalType": "uint32",
          "name": "chain",
          "type": "uint32"
        },
        {
          "internalType": "bytes32",
          "name": "l2Hash",
          "type": "bytes32"
        }
      ],
      "name": "RelayerProxyHub__processFromRoot_alreadyProcessed",
      "type": "error"
    },
    {
      "inputs": [
        {
          "internalType": "uint32",
          "name": "chain",
          "type": "uint32"
        }
      ],
      "name": "RelayerProxyHub__processFromRoot_noHubConnector",
      "type": "error"
    },
    {
      "inputs": [
        {
          "internalType": "uint32",
          "name": "chain",
          "type": "uint32"
        }
      ],
      "name": "RelayerProxyHub__processFromRoot_unsupportedChain",
      "type": "error"
    },
    {
      "inputs": [
        {
          "internalType": "uint256",
          "name": "timestamp",
          "type": "uint256"
        },
        {
          "internalType": "uint256",
          "name": "nextWorkable",
          "type": "uint256"
        }
      ],
      "name": "RelayerProxyHub__propagateCooledDown_notCooledDown",
      "type": "error"
    },
    {
      "inputs": [
        {
          "internalType": "uint256",
          "name": "timestamp",
          "type": "uint256"
        },
        {
          "internalType": "uint256",
          "name": "nextWorkable",
          "type": "uint256"
        }
      ],
      "name": "RelayerProxyHub__proposeAggregateRootCooledDown_notCooledDown",
      "type": "error"
    },
    {
      "inputs": [
        {
          "internalType": "address",
          "name": "proposer",
          "type": "address"
        }
      ],
      "name": "RelayerProxyHub__validateProposeSignature_notProposer",
      "type": "error"
    },
    {
      "inputs": [
        {
          "internalType": "address",
          "name": "_relayer",
          "type": "address"
        }
      ],
      "name": "RelayerProxy__addRelayer_relayerAdded",
      "type": "error"
    },
    {
      "inputs": [
        {
          "internalType": "address",
          "name": "_address",
          "type": "address"
        }
      ],
      "name": "RelayerProxy__definedAddress_empty",
      "type": "error"
    },
    {
      "inputs": [
        {
          "internalType": "address",
          "name": "_sender",
          "type": "address"
        }
      ],
      "name": "RelayerProxy__isWorkableBySender_notWorkable",
      "type": "error"
    },
    {
      "inputs": [
        {
          "internalType": "address",
          "name": "_sender",
          "type": "address"
        }
      ],
      "name": "RelayerProxy__onlyRelayer_notRelayer",
      "type": "error"
    },
    {
      "inputs": [
        {
          "internalType": "address",
          "name": "_relayer",
          "type": "address"
        }
      ],
      "name": "RelayerProxy__removeRelayer_relayerNotAdded",
      "type": "error"
    },
    {
      "inputs": [
        {
          "internalType": "address",
          "name": "_sender",
          "type": "address"
        }
      ],
      "name": "RelayerProxy__validateAndPayWithCredits_notKeep3r",
      "type": "error"
    },
    {
      "anonymous": false,
      "inputs": [
        {
          "indexed": false,
          "internalType": "address",
          "name": "updated",
          "type": "address"
        },
        {
          "indexed": false,
          "internalType": "address",
          "name": "previous",
          "type": "address"
        }
      ],
      "name": "AutonolasChanged",
      "type": "event"
    },
    {
      "anonymous": false,
      "inputs": [
        {
          "indexed": false,
          "internalType": "enum RelayerProxyHub.AutonolasPriorityFunction",
          "name": "fn",
          "type": "uint8"
        },
        {
          "indexed": false,
          "internalType": "uint8",
          "name": "updated",
          "type": "uint8"
        },
        {
          "indexed": false,
          "internalType": "uint8",
          "name": "previous",
          "type": "uint8"
        }
      ],
      "name": "AutonolasPriorityChanged",
      "type": "event"
    },
    {
      "anonymous": false,
      "inputs": [
        {
          "indexed": false,
          "internalType": "address",
          "name": "updated",
          "type": "address"
        },
        {
          "indexed": false,
          "internalType": "address",
          "name": "previous",
          "type": "address"
        }
      ],
      "name": "ConnextChanged",
      "type": "event"
    },
    {
      "anonymous": false,
      "inputs": [
        {
          "indexed": false,
          "internalType": "address",
          "name": "updated",
          "type": "address"
        },
        {
          "indexed": false,
          "internalType": "address",
          "name": "previous",
          "type": "address"
        }
      ],
      "name": "FeeCollectorChanged",
      "type": "event"
    },
    {
      "anonymous": false,
      "inputs": [
        {
          "indexed": false,
          "internalType": "uint256",
          "name": "amount",
          "type": "uint256"
        },
        {
          "indexed": false,
          "internalType": "uint256",
          "name": "balance",
          "type": "uint256"
        }
      ],
      "name": "FundsDeducted",
      "type": "event"
    },
    {
      "anonymous": false,
      "inputs": [
        {
          "indexed": false,
          "internalType": "uint256",
          "name": "amount",
          "type": "uint256"
        },
        {
          "indexed": false,
          "internalType": "uint256",
          "name": "balance",
          "type": "uint256"
        }
      ],
      "name": "FundsReceived",
      "type": "event"
    },
    {
      "anonymous": false,
      "inputs": [
        {
          "indexed": false,
          "internalType": "address",
          "name": "updated",
          "type": "address"
        },
        {
          "indexed": false,
          "internalType": "address",
          "name": "previous",
          "type": "address"
        }
      ],
      "name": "GelatoRelayerChanged",
      "type": "event"
    },
    {
      "anonymous": false,
      "inputs": [
        {
          "indexed": false,
          "internalType": "address",
          "name": "hubConnector",
          "type": "address"
        },
        {
          "indexed": false,
          "internalType": "address",
          "name": "oldHubConnector",
          "type": "address"
        },
        {
          "indexed": false,
          "internalType": "uint32",
          "name": "chain",
          "type": "uint32"
        }
      ],
      "name": "HubConnectorChanged",
      "type": "event"
    },
    {
      "anonymous": false,
      "inputs": [
        {
          "indexed": false,
          "internalType": "address",
          "name": "updated",
          "type": "address"
        },
        {
          "indexed": false,
          "internalType": "address",
          "name": "previous",
          "type": "address"
        }
      ],
      "name": "Keep3rChanged",
      "type": "event"
    },
    {
      "anonymous": false,
      "inputs": [
        {
          "indexed": true,
          "internalType": "address",
          "name": "proposedOwner",
          "type": "address"
        }
      ],
      "name": "OwnershipProposed",
      "type": "event"
    },
    {
      "anonymous": false,
      "inputs": [
        {
          "indexed": true,
          "internalType": "address",
          "name": "previousOwner",
          "type": "address"
        },
        {
          "indexed": true,
          "internalType": "address",
          "name": "newOwner",
          "type": "address"
        }
      ],
      "name": "OwnershipTransferred",
      "type": "event"
    },
    {
      "anonymous": false,
      "inputs": [
        {
          "indexed": false,
          "internalType": "uint256",
          "name": "propagateCooldown",
          "type": "uint256"
        },
        {
          "indexed": false,
          "internalType": "uint256",
          "name": "oldPropagateCooldown",
          "type": "uint256"
        }
      ],
      "name": "PropagateCooldownChanged",
      "type": "event"
    },
    {
      "anonymous": false,
      "inputs": [
        {
          "indexed": false,
          "internalType": "uint256",
          "name": "proposeAggregateRootCooldown",
          "type": "uint256"
        },
        {
          "indexed": false,
          "internalType": "uint256",
          "name": "oldProposeAggregateRootCooldown",
          "type": "uint256"
        }
      ],
      "name": "ProposeAggregateRootCooldownChanged",
      "type": "event"
    },
    {
      "anonymous": false,
      "inputs": [
        {
          "indexed": false,
          "internalType": "address",
          "name": "relayer",
          "type": "address"
        }
      ],
      "name": "RelayerAdded",
      "type": "event"
    },
    {
      "anonymous": false,
      "inputs": [
        {
          "indexed": false,
          "internalType": "address",
          "name": "relayer",
          "type": "address"
        }
      ],
      "name": "RelayerRemoved",
      "type": "event"
    },
    {
      "anonymous": false,
      "inputs": [
        {
          "indexed": false,
          "internalType": "address",
          "name": "rootManager",
          "type": "address"
        },
        {
          "indexed": false,
          "internalType": "address",
          "name": "oldRootManager",
          "type": "address"
        }
      ],
      "name": "RootManagerChanged",
      "type": "event"
    },
    {
      "anonymous": false,
      "inputs": [
        {
          "indexed": false,
          "internalType": "address",
          "name": "updated",
          "type": "address"
        },
        {
          "indexed": false,
          "internalType": "address",
          "name": "previous",
          "type": "address"
        }
      ],
      "name": "SpokeConnectorChanged",
      "type": "event"
    },
    {
      "inputs": [],
      "name": "acceptProposedOwner",
      "outputs": [],
      "stateMutability": "nonpayable",
      "type": "function"
    },
    {
      "inputs": [
        {
          "internalType": "address",
          "name": "_relayer",
          "type": "address"
        }
      ],
      "name": "addRelayer",
      "outputs": [],
      "stateMutability": "nonpayable",
      "type": "function"
    },
    {
      "inputs": [
        {
          "internalType": "address",
          "name": "",
          "type": "address"
        }
      ],
      "name": "allowedRelayer",
      "outputs": [
        {
          "internalType": "bool",
          "name": "",
          "type": "bool"
        }
      ],
      "stateMutability": "view",
      "type": "function"
    },
    {
      "inputs": [],
      "name": "autonolas",
      "outputs": [
        {
          "internalType": "address",
          "name": "",
          "type": "address"
        }
      ],
      "stateMutability": "view",
      "type": "function"
    },
    {
      "inputs": [
        {
          "internalType": "enum RelayerProxyHub.AutonolasPriorityFunction",
          "name": "",
          "type": "uint8"
        }
      ],
      "name": "autonolasPriority",
      "outputs": [
        {
          "internalType": "uint8",
          "name": "",
          "type": "uint8"
        }
      ],
      "stateMutability": "view",
      "type": "function"
    },
    {
      "inputs": [],
      "name": "connext",
      "outputs": [
        {
          "internalType": "contract IConnext",
          "name": "",
          "type": "address"
        }
      ],
      "stateMutability": "view",
      "type": "function"
    },
    {
      "inputs": [],
      "name": "delay",
      "outputs": [
        {
          "internalType": "uint256",
          "name": "",
          "type": "uint256"
        }
      ],
      "stateMutability": "view",
      "type": "function"
    },
    {
      "inputs": [
        {
          "components": [
            {
              "components": [
                {
                  "internalType": "uint32",
                  "name": "originDomain",
                  "type": "uint32"
                },
                {
                  "internalType": "uint32",
                  "name": "destinationDomain",
                  "type": "uint32"
                },
                {
                  "internalType": "uint32",
                  "name": "canonicalDomain",
                  "type": "uint32"
                },
                {
                  "internalType": "address",
                  "name": "to",
                  "type": "address"
                },
                {
                  "internalType": "address",
                  "name": "delegate",
                  "type": "address"
                },
                {
                  "internalType": "bool",
                  "name": "receiveLocal",
                  "type": "bool"
                },
                {
                  "internalType": "bytes",
                  "name": "callData",
                  "type": "bytes"
                },
                {
                  "internalType": "uint256",
                  "name": "slippage",
                  "type": "uint256"
                },
                {
                  "internalType": "address",
                  "name": "originSender",
                  "type": "address"
                },
                {
                  "internalType": "uint256",
                  "name": "bridgedAmt",
                  "type": "uint256"
                },
                {
                  "internalType": "uint256",
                  "name": "normalizedIn",
                  "type": "uint256"
                },
                {
                  "internalType": "uint256",
                  "name": "nonce",
                  "type": "uint256"
                },
                {
                  "internalType": "bytes32",
                  "name": "canonicalId",
                  "type": "bytes32"
                }
              ],
              "internalType": "struct TransferInfo",
              "name": "params",
              "type": "tuple"
            },
            {
              "internalType": "address[]",
              "name": "routers",
              "type": "address[]"
            },
            {
              "internalType": "bytes[]",
              "name": "routerSignatures",
              "type": "bytes[]"
            },
            {
              "internalType": "address",
              "name": "sequencer",
              "type": "address"
            },
            {
              "internalType": "bytes",
              "name": "sequencerSignature",
              "type": "bytes"
            }
          ],
          "internalType": "struct ExecuteArgs",
          "name": "_args",
          "type": "tuple"
        },
        {
          "internalType": "uint256",
          "name": "_fee",
          "type": "uint256"
        }
      ],
      "name": "execute",
      "outputs": [
        {
          "internalType": "bytes32",
          "name": "transferId",
          "type": "bytes32"
        }
      ],
      "stateMutability": "nonpayable",
      "type": "function"
    },
    {
      "inputs": [],
      "name": "feeCollector",
      "outputs": [
        {
          "internalType": "address",
          "name": "",
          "type": "address"
        }
      ],
      "stateMutability": "view",
      "type": "function"
    },
    {
      "inputs": [
        {
          "internalType": "address[]",
          "name": "_connectors",
          "type": "address[]"
        },
        {
          "internalType": "uint256[]",
          "name": "_fees",
          "type": "uint256[]"
        },
        {
          "internalType": "bytes[]",
          "name": "_encodedData",
          "type": "bytes[]"
        },
        {
          "internalType": "bytes32",
          "name": "_proposedAggregateRoot",
          "type": "bytes32"
        },
        {
          "internalType": "uint256",
          "name": "_endOfDispute",
          "type": "uint256"
        }
      ],
      "name": "finalizeAndPropagateKeep3r",
      "outputs": [
        {
          "internalType": "uint256",
          "name": "_fee",
          "type": "uint256"
        }
      ],
      "stateMutability": "nonpayable",
      "type": "function"
    },
    {
      "inputs": [],
      "name": "gelatoRelayer",
      "outputs": [
        {
          "internalType": "address",
          "name": "",
          "type": "address"
        }
      ],
      "stateMutability": "view",
      "type": "function"
    },
    {
      "inputs": [
        {
          "internalType": "uint32",
          "name": "",
          "type": "uint32"
        }
      ],
      "name": "hubConnectors",
      "outputs": [
        {
          "internalType": "address",
          "name": "",
          "type": "address"
        }
      ],
      "stateMutability": "view",
      "type": "function"
    },
    {
      "inputs": [],
      "name": "keep3r",
      "outputs": [
        {
          "internalType": "contract IKeep3rV2",
          "name": "",
          "type": "address"
        }
      ],
      "stateMutability": "view",
      "type": "function"
    },
    {
      "inputs": [],
      "name": "lastPropagateAt",
      "outputs": [
        {
          "internalType": "uint256",
          "name": "",
          "type": "uint256"
        }
      ],
      "stateMutability": "view",
      "type": "function"
    },
    {
      "inputs": [],
      "name": "lastProposeAggregateRootAt",
      "outputs": [
        {
          "internalType": "uint256",
          "name": "",
          "type": "uint256"
        }
      ],
      "stateMutability": "view",
      "type": "function"
    },
    {
      "inputs": [],
      "name": "owner",
      "outputs": [
        {
          "internalType": "address",
          "name": "",
          "type": "address"
        }
      ],
      "stateMutability": "view",
      "type": "function"
    },
    {
      "inputs": [
        {
          "internalType": "bytes",
          "name": "_encodedData",
          "type": "bytes"
        },
        {
          "internalType": "uint32",
          "name": "_fromChain",
          "type": "uint32"
        },
        {
          "internalType": "bytes32",
          "name": "_l2Hash",
          "type": "bytes32"
        }
      ],
      "name": "processFromRoot",
      "outputs": [],
      "stateMutability": "nonpayable",
      "type": "function"
    },
    {
      "inputs": [
        {
          "internalType": "bytes",
          "name": "_encodedData",
          "type": "bytes"
        },
        {
          "internalType": "uint32",
          "name": "_fromChain",
          "type": "uint32"
        },
        {
          "internalType": "bytes32",
          "name": "_l2Hash",
          "type": "bytes32"
        }
      ],
      "name": "processFromRootKeep3r",
      "outputs": [],
      "stateMutability": "nonpayable",
      "type": "function"
    },
    {
      "inputs": [
        {
          "internalType": "uint32",
          "name": "",
          "type": "uint32"
        },
        {
          "internalType": "bytes32",
          "name": "",
          "type": "bytes32"
        }
      ],
      "name": "processedRootMessages",
      "outputs": [
        {
          "internalType": "bool",
          "name": "",
          "type": "bool"
        }
      ],
      "stateMutability": "view",
      "type": "function"
    },
    {
      "inputs": [
        {
          "internalType": "address[]",
          "name": "_connectors",
          "type": "address[]"
        },
        {
          "internalType": "uint256[]",
          "name": "_messageFees",
          "type": "uint256[]"
        },
        {
          "internalType": "bytes[]",
          "name": "_encodedData",
          "type": "bytes[]"
        },
        {
          "internalType": "uint256",
          "name": "_relayerFee",
          "type": "uint256"
        }
      ],
      "name": "propagate",
      "outputs": [],
      "stateMutability": "nonpayable",
      "type": "function"
    },
    {
      "inputs": [],
      "name": "propagateCooldown",
      "outputs": [
        {
          "internalType": "uint256",
          "name": "",
          "type": "uint256"
        }
      ],
      "stateMutability": "view",
      "type": "function"
    },
    {
      "inputs": [
        {
          "internalType": "address[]",
          "name": "_connectors",
          "type": "address[]"
        },
        {
          "internalType": "uint256[]",
          "name": "_messageFees",
          "type": "uint256[]"
        },
        {
          "internalType": "bytes[]",
          "name": "_encodedData",
          "type": "bytes[]"
        }
      ],
      "name": "propagateKeep3r",
      "outputs": [],
      "stateMutability": "nonpayable",
      "type": "function"
    },
    {
      "inputs": [
        {
          "internalType": "uint32[]",
          "name": "domains",
          "type": "uint32[]"
        }
      ],
      "name": "propagateWorkable",
      "outputs": [
        {
          "internalType": "bool",
          "name": "",
          "type": "bool"
        }
      ],
      "stateMutability": "nonpayable",
      "type": "function"
    },
    {
      "inputs": [],
      "name": "proposeAggregateRootCooldown",
      "outputs": [
        {
          "internalType": "uint256",
          "name": "",
          "type": "uint256"
        }
      ],
      "stateMutability": "view",
      "type": "function"
    },
    {
      "inputs": [
        {
          "internalType": "uint256",
          "name": "_snapshotId",
          "type": "uint256"
        },
        {
          "internalType": "bytes32",
          "name": "_aggregateRoot",
          "type": "bytes32"
        },
        {
          "internalType": "bytes32[]",
          "name": "_snapshotsRoots",
          "type": "bytes32[]"
        },
        {
          "internalType": "uint32[]",
          "name": "_domains",
          "type": "uint32[]"
        },
        {
          "internalType": "bytes",
          "name": "_signature",
          "type": "bytes"
        }
      ],
      "name": "proposeAggregateRootKeep3r",
      "outputs": [],
      "stateMutability": "nonpayable",
      "type": "function"
    },
    {
      "inputs": [
        {
          "internalType": "address",
          "name": "newlyProposed",
          "type": "address"
        }
      ],
      "name": "proposeNewOwner",
      "outputs": [],
      "stateMutability": "nonpayable",
      "type": "function"
    },
    {
      "inputs": [],
      "name": "proposed",
      "outputs": [
        {
          "internalType": "address",
          "name": "",
          "type": "address"
        }
      ],
      "stateMutability": "view",
      "type": "function"
    },
    {
      "inputs": [],
      "name": "proposedTimestamp",
      "outputs": [
        {
          "internalType": "uint256",
          "name": "",
          "type": "uint256"
        }
      ],
      "stateMutability": "view",
      "type": "function"
    },
    {
      "inputs": [
        {
          "components": [
            {
              "internalType": "bytes",
              "name": "message",
              "type": "bytes"
            },
            {
              "internalType": "bytes32[32]",
              "name": "path",
              "type": "bytes32[32]"
            },
            {
              "internalType": "uint256",
              "name": "index",
              "type": "uint256"
            }
          ],
          "internalType": "struct ISpokeConnector.Proof[]",
          "name": "_proofs",
          "type": "tuple[]"
        },
        {
          "internalType": "bytes32",
          "name": "_aggregateRoot",
          "type": "bytes32"
        },
        {
          "internalType": "bytes32[32]",
          "name": "_aggregatePath",
          "type": "bytes32[32]"
        },
        {
          "internalType": "uint256",
          "name": "_aggregateIndex",
          "type": "uint256"
        },
        {
          "internalType": "uint256",
          "name": "_fee",
          "type": "uint256"
        }
      ],
      "name": "proveAndProcess",
      "outputs": [],
      "stateMutability": "nonpayable",
      "type": "function"
    },
    {
      "inputs": [
        {
          "internalType": "address",
          "name": "_relayer",
          "type": "address"
        }
      ],
      "name": "removeRelayer",
      "outputs": [],
      "stateMutability": "nonpayable",
      "type": "function"
    },
    {
      "inputs": [],
      "name": "renounceOwnership",
      "outputs": [],
      "stateMutability": "nonpayable",
      "type": "function"
    },
    {
      "inputs": [],
      "name": "renounced",
      "outputs": [
        {
          "internalType": "bool",
          "name": "",
          "type": "bool"
        }
      ],
      "stateMutability": "view",
      "type": "function"
    },
    {
      "inputs": [],
      "name": "rootManager",
      "outputs": [
        {
          "internalType": "contract IRootManager",
          "name": "",
          "type": "address"
        }
      ],
      "stateMutability": "view",
      "type": "function"
    },
    {
      "inputs": [
        {
          "internalType": "bytes",
          "name": "_encodedData",
          "type": "bytes"
        },
        {
          "internalType": "uint256",
          "name": "_messageFee",
          "type": "uint256"
        },
        {
          "internalType": "uint256",
          "name": "_relayerFee",
          "type": "uint256"
        }
      ],
      "name": "send",
      "outputs": [],
      "stateMutability": "nonpayable",
      "type": "function"
    },
    {
      "inputs": [
        {
          "internalType": "address",
          "name": "_autonolas",
          "type": "address"
        }
      ],
      "name": "setAutonolas",
      "outputs": [],
      "stateMutability": "nonpayable",
      "type": "function"
    },
    {
      "inputs": [
        {
          "internalType": "enum RelayerProxyHub.AutonolasPriorityFunction",
          "name": "_function",
          "type": "uint8"
        },
        {
          "internalType": "uint8",
          "name": "_autonolasPriority",
          "type": "uint8"
        }
      ],
      "name": "setAutonolasPriority",
      "outputs": [],
      "stateMutability": "nonpayable",
      "type": "function"
    },
    {
      "inputs": [
        {
          "internalType": "address",
          "name": "_connext",
          "type": "address"
        }
      ],
      "name": "setConnext",
      "outputs": [],
      "stateMutability": "nonpayable",
      "type": "function"
    },
    {
      "inputs": [
        {
          "internalType": "address",
          "name": "_feeCollector",
          "type": "address"
        }
      ],
      "name": "setFeeCollector",
      "outputs": [],
      "stateMutability": "nonpayable",
      "type": "function"
    },
    {
      "inputs": [
        {
          "internalType": "address",
          "name": "_gelatoRelayer",
          "type": "address"
        }
      ],
      "name": "setGelatoRelayer",
      "outputs": [],
      "stateMutability": "nonpayable",
      "type": "function"
    },
    {
      "inputs": [
        {
          "internalType": "address",
          "name": "_hubConnector",
          "type": "address"
        },
        {
          "internalType": "uint32",
          "name": "_chain",
          "type": "uint32"
        }
      ],
      "name": "setHubConnector",
      "outputs": [],
      "stateMutability": "nonpayable",
      "type": "function"
    },
    {
      "inputs": [
        {
          "internalType": "address",
          "name": "_keep3r",
          "type": "address"
        }
      ],
      "name": "setKeep3r",
      "outputs": [],
      "stateMutability": "nonpayable",
      "type": "function"
    },
    {
      "inputs": [
        {
          "internalType": "uint256",
          "name": "_propagateCooldown",
          "type": "uint256"
        }
      ],
      "name": "setPropagateCooldown",
      "outputs": [],
      "stateMutability": "nonpayable",
      "type": "function"
    },
    {
      "inputs": [
        {
          "internalType": "address",
          "name": "_rootManager",
          "type": "address"
        }
      ],
      "name": "setRootManager",
      "outputs": [],
      "stateMutability": "nonpayable",
      "type": "function"
    },
    {
      "inputs": [
        {
          "internalType": "address",
          "name": "_spokeConnector",
          "type": "address"
        }
      ],
      "name": "setSpokeConnector",
      "outputs": [],
      "stateMutability": "nonpayable",
      "type": "function"
    },
    {
      "inputs": [],
      "name": "spokeConnector",
      "outputs": [
        {
          "internalType": "contract ISpokeConnector",
          "name": "",
          "type": "address"
        }
      ],
      "stateMutability": "view",
      "type": "function"
    },
    {
      "inputs": [],
      "name": "withdraw",
      "outputs": [],
      "stateMutability": "nonpayable",
      "type": "function"
    },
    {
      "stateMutability": "payable",
      "type": "receive"
    }
  ],
  "transactionHash": "0x59c528b5e95786f88639fee65acedc3fb746d44be6733cfddb0096b114014432",
  "args": [
    "0xf3b515ece81129647eC2AA5D17d3e6e66aD14D60",
    "0xc08edcc02e7a085da3bbf87afbbcad21ebf90944",
    "0x0000000000000000000000000000000000000000",
    "0x0000000000000000000000000000000000000000",
    "0x85063437C02Ba7F4f82F898859e4992380DEd3bb",
    "0xE246385AB2807432ca869E2A7bA80638e835522E",
    "0x0000000000000000000000000000000000000000",
    1800,
    1800,
    [
      "0xc08edcc02e7a085da3bbf87afbbcad21ebf90944",
      "0x3b58d1a77FCdF808f84ED89E1Cc05cFD200f3d43",
      "0x565C74da2aa4842c2c53aDaA22Da93E060177A64",
      "0xb0E534022940ACd3fD5050B1FA7B431941638e3c",
      "0x57E980BAE5247BDfb53eA9415254797082897122",
      "0x89c317ADb9D3d9453870cA37Dcc704d539Fc2DdB",
      "0x1bB0BB3d25ec70968Fc65684061D0f73d634c7a1"
    ],
    [
      5,
      280,
      420,
      1442,
      59140,
      80001,
      421613
    ]
  ],
  "numDeployments": 1,
  "solcInputHash": "9799d331a5c5bc486a444e0cd01af9b7",
  "bytecode": "0x60806040523480156200001157600080fd5b5060405162004dc338038062004dc38339810160408190526200003491620007c3565b60016003558a8a8a8a8a620000493362000140565b6200005485620001a5565b6200005f846200020e565b6200006a8362000277565b6200007582620002e0565b620000808162000349565b6200008b83620003b2565b5050505050620000a1866200045660201b60201c565b620000ac84620004bf565b620000b78362000501565b620000c28562000543565b60005b82518110156200012e5762000119838281518110620000e857620000e8620008ce565b6020026020010151838381518110620001055762000105620008ce565b6020026020010151620005ac60201b60201c565b806200012581620008e4565b915050620000c5565b5050505050505050505050506200090c565b600080546040516001600160a01b03808516939216917f8be0079c531659141344cd1fd0a4f28419497f9722a3daafe3b4186f6b6457e091a3600080546001600160a01b039092166001600160a01b0319928316178155600255600180549091169055565b600754604080516001600160a01b03808516825290921660208301527f87539ad41983c0ecff8f321db8edf4dd9e830593562770bdacdda085b83e3bb2910160405180910390a1600780546001600160a01b0319166001600160a01b0392909216919091179055565b600854604080516001600160a01b03808516825290921660208301527f66948d99d8431a8416af2202bc301823b7cdd87beb9bddaa274aedac0611a5fd910160405180910390a1600880546001600160a01b0319166001600160a01b0392909216919091179055565b600454604080516001600160a01b03808516825290921660208301527f5db4a067a1f787c3269642464a2a1560868b50b0873e7dec83939ae2359f6128910160405180910390a1600480546001600160a01b0319166001600160a01b0392909216919091179055565b600554604080516001600160a01b03808516825290921660208301527f649c5e3d0ed183894196148e193af316452b0037e77d2ff0fef23b7dc722bed0910160405180910390a1600580546001600160a01b0319166001600160a01b0392909216919091179055565b600654604080516001600160a01b03808516825290921660208301527f711d2a81db157c0acede64f080708460163dfaddcd4266c2c609efb458d3e4c0910160405180910390a1600680546001600160a01b0319166001600160a01b0392909216919091179055565b6001600160a01b03811660009081526009602052604090205460ff1615620003fc57604051633d85ded560e11b81526001600160a01b038216600482015260240160405180910390fd5b6001600160a01b038116600081815260096020908152604091829020805460ff1916600117905590519182527f03580ee9f53a62b7cb409a2cb56f9be87747dd15017afc5cef6eef321e4fb2c5910160405180910390a150565b600a54604080516001600160a01b03808516825290921660208301527f3124eaf4f16c6ddd81951200c6d8f65d5800753bef06584bd672c8b22c76b487910160405180910390a1600a80546001600160a01b0319166001600160a01b0392909216919091179055565b600b546040805183815260208101929092527f5d93bbdda0d794fed18c39a7b776dc86cbf6ed443032e6baac71373996b85010910160405180910390a1600b55565b600c546040805183815260208101929092527f289d6927dc5ba66abb928c5be9d3aecd2baf7c8e89f1faec6a791b8b21589a5d910160405180910390a1600c55565b600f54604080516001600160a01b03808516825290921660208301527f17da78d98886c3b8819430ab0693a44c32dfa6426a4db4601ce45bc4bc2385ec910160405180910390a1600f80546001600160a01b0319166001600160a01b0392909216919091179055565b63ffffffff81166000818152601260209081526040918290205482516001600160a01b0387811682529091169181019190915280820192909252517ff3f83f3e1df056d9be522e74b3fe84add98c686289a646ae55708277434240929181900360600190a163ffffffff16600090815260126020526040902080546001600160a01b0319166001600160a01b0392909216919091179055565b80516001600160a01b03811681146200065d57600080fd5b919050565b634e487b7160e01b600052604160045260246000fd5b604051601f8201601f191681016001600160401b0381118282101715620006a357620006a362000662565b604052919050565b60006001600160401b03821115620006c757620006c762000662565b5060051b60200190565b600082601f830112620006e357600080fd5b81516020620006fc620006f683620006ab565b62000678565b82815260059290921b840181019181810190868411156200071c57600080fd5b8286015b848110156200074257620007348162000645565b835291830191830162000720565b509695505050505050565b600082601f8301126200075f57600080fd5b8151602062000772620006f683620006ab565b82815260059290921b840181019181810190868411156200079257600080fd5b8286015b848110156200074257805163ffffffff81168114620007b55760008081fd5b835291830191830162000796565b60008060008060008060008060008060006101608c8e031215620007e657600080fd5b620007f18c62000645565b9a506200080160208d0162000645565b99506200081160408d0162000645565b98506200082160608d0162000645565b97506200083160808d0162000645565b96506200084160a08d0162000645565b95506200085160c08d0162000645565b60e08d01516101008e01516101208f015192975090955093506001600160401b038111156200087f57600080fd5b6200088d8e828f01620006d1565b6101408e015190935090506001600160401b03811115620008ad57600080fd5b620008bb8e828f016200074d565b9150509295989b509295989b9093969950565b634e487b7160e01b600052603260045260246000fd5b6000600182016200090557634e487b7160e01b600052601160045260246000fd5b5060010190565b6144a7806200091c6000396000f3fe6080604052600436106102805760003560e01c80639a2652db1161014f578063d1851c92116100c1578063dd39f00d1161007a578063dd39f00d1461080b578063de4b05481461082b578063e79457f11461084b578063e7dc20981461086b578063f0a67eba14610881578063fff01c45146108a157600080fd5b8063d1851c9214610758578063d232c22014610776578063d6412ecb14610795578063d9ef0bee146107ab578063db205635146107cb578063dbd8848d146107eb57600080fd5b8063a91b8fb811610113578063a91b8fb8146106a3578063b1f8100d146106c3578063bfb4c783146106e3578063c415b95c14610703578063c5b350df14610723578063ce9cec901461073857600080fd5b80639a2652db146106035780639c166c0b146106235780639cadce00146106435780639f645a0314610663578063a42dce801461068357600080fd5b80635e21966a116101f3578063715018a6116101ac578063715018a61461055057806382443e041461056557806389099717146105855780638c976851146105a55780638da5cb5b146105c55780638efed127146105e357600080fd5b80635e21966a1461046c57806360f0a5ac1461048c578063622520bb146104ac578063634c7bb5146104fa5780636a42b8f81461051a5780636eba787f1461053057600080fd5b80632f55b98d116102455780632f55b98d146103bc5780633ccfd60b146103ec5780633cf52ffb146104015780634cc18e57146104165780634d6f201314610436578063529100391461045657600080fd5b806254a4fb146102c457806304f3e6a91461030b5780631acde6281461032d57806321444433146103785780632d484bcc1461039c57600080fd5b366102bf57604080513481524760208201527f063d07ee72a7483b8e07ca09054bb686775c5c030f945dde3823a5257a0a93eb910160405180910390a1005b600080fd5b3480156102d057600080fd5b506102f46102df366004612e67565b60106020526000908152604090205460ff1681565b60405160ff90911681526020015b60405180910390f35b34801561031757600080fd5b5061032b610326366004613010565b6108c1565b005b34801561033957600080fd5b506103686103483660046130ca565b601160209081526000928352604080842090915290825290205460ff1681565b6040519015158152602001610302565b34801561038457600080fd5b5061038e600d5481565b604051908152602001610302565b3480156103a857600080fd5b5061032b6103b73660046130f4565b610b67565b3480156103c857600080fd5b506103686103d7366004613124565b60096020526000908152604090205460ff1681565b3480156103f857600080fd5b5061032b610b9e565b34801561040d57600080fd5b5060025461038e565b34801561042257600080fd5b5061032b610431366004613124565b610c0f565b34801561044257600080fd5b5061032b610451366004613124565b610c7a565b34801561046257600080fd5b5061038e600c5481565b34801561047857600080fd5b5061032b610487366004613124565b610ce1565b34801561049857600080fd5b5061032b6104a7366004613124565b610d48565b3480156104b857600080fd5b506104e26104c736600461313f565b6012602052600090815260409020546001600160a01b031681565b6040516001600160a01b039091168152602001610302565b34801561050657600080fd5b506006546104e2906001600160a01b031681565b34801561052657600080fd5b5062093a8061038e565b34801561053c57600080fd5b506004546104e2906001600160a01b031681565b34801561055c57600080fd5b5061032b610daf565b34801561057157600080fd5b5061032b61058036600461315a565b610e61565b34801561059157600080fd5b5061032b6105a0366004613124565b610e96565b3480156105b157600080fd5b5061032b6105c0366004613249565b610efd565b3480156105d157600080fd5b506000546001600160a01b03166104e2565b3480156105ef57600080fd5b5061038e6105fe3660046132dc565b611141565b34801561060f57600080fd5b5061032b61061e366004613317565b611209565b34801561062f57600080fd5b50600f546104e2906001600160a01b031681565b34801561064f57600080fd5b506008546104e2906001600160a01b031681565b34801561066f57600080fd5b5061032b61067e366004613124565b611297565b34801561068f57600080fd5b5061032b61069e366004613124565b6112fe565b3480156106af57600080fd5b5061032b6106be3660046133b2565b611365565b3480156106cf57600080fd5b5061032b6106de366004613124565b6113d2565b3480156106ef57600080fd5b5061032b6106fe3660046133e5565b611470565b34801561070f57600080fd5b506005546104e2906001600160a01b031681565b34801561072f57600080fd5b5061032b6114c6565b34801561074457600080fd5b5061036861075336600461346d565b611536565b34801561076457600080fd5b506001546001600160a01b03166104e2565b34801561078257600080fd5b506000546001600160a01b031615610368565b3480156107a157600080fd5b5061038e600e5481565b3480156107b757600080fd5b5061032b6107c6366004613504565b611683565b3480156107d757600080fd5b50600a546104e2906001600160a01b031681565b3480156107f757600080fd5b5061032b6108063660046133e5565b611761565b34801561081757600080fd5b5061032b610826366004613124565b61194d565b34801561083757600080fd5b506007546104e2906001600160a01b031681565b34801561085757600080fd5b5061032b610866366004613551565b6119b4565b34801561087757600080fd5b5061038e600b5481565b34801561088d57600080fd5b5061032b61089c366004613124565b611a6b565b3480156108ad57600080fd5b5061038e6108bc3660046135c8565b611ad2565b600f5460029033906001600160a01b0316811480159061091a5750601060008360038111156108f2576108f261366e565b60038111156109035761090361366e565b815260208101919091526040016000205460ff1615155b801561097957506001601060008460038111156109395761093961366e565b600381111561094a5761094a61366e565b8152602081019190915260400160002054610968919060ff1661369a565b60ff16610976600a436136b3565b11155b156109a75760405163cd6ff7a160e01b81526001600160a01b03821660048201526024015b60405180910390fd5b6006546040516335d2155560e11b81523360048201819052916001600160a01b031690636ba42aaa906024016020604051808303816000875af11580156109f2573d6000803e3d6000fd5b505050506040513d601f19601f82011682018060405250810190610a1691906136e3565b610a3e576040516398eac98560e01b81526001600160a01b038216600482015260240161099e565b610a46611cfd565b610a7d5742600c54600e54610a5b9190613700565b60405163750af1e760e11b81526004810192909252602482015260440161099e565b42600e55610a8c8a8a86611d16565b600a54604051630892003960e01b81526001600160a01b0390911690630892003990610ac6908d908d908d908d908d908d90600401613745565b600060405180830381600087803b158015610ae057600080fd5b505af1158015610af4573d6000803e3d6000fd5b505042600e5550506006546040516317fbade560e21b81526001600160a01b03838116600483015290911690635feeb79490602401600060405180830381600087803b158015610b4357600080fd5b505af1158015610b57573d6000803e3d6000fd5b5050505050505050505050505050565b6000546001600160a01b03163314610b92576040516311a8a1bb60e31b815260040160405180910390fd5b610b9b81611e2e565b50565b6000546001600160a01b03163314610bc9576040516311a8a1bb60e31b815260040160405180910390fd5b610bd1611e70565b47610bdc3382611ec9565b60408051828152476020820152600080516020614452833981519152910160405180910390a150610c0d6001600355565b565b6000546001600160a01b03163314610c3a576040516311a8a1bb60e31b815260040160405180910390fd5b806001600160a01b038116610c6d57604051633a930fdf60e01b81526001600160a01b038216600482015260240161099e565b610c7682611fe2565b5050565b6000546001600160a01b03163314610ca5576040516311a8a1bb60e31b815260040160405180910390fd5b806001600160a01b038116610cd857604051633a930fdf60e01b81526001600160a01b038216600482015260240161099e565b610c768261204b565b6000546001600160a01b03163314610d0c576040516311a8a1bb60e31b815260040160405180910390fd5b806001600160a01b038116610d3f57604051633a930fdf60e01b81526001600160a01b038216600482015260240161099e565b610c76826120b4565b6000546001600160a01b03163314610d73576040516311a8a1bb60e31b815260040160405180910390fd5b806001600160a01b038116610da657604051633a930fdf60e01b81526001600160a01b038216600482015260240161099e565b610c768261211d565b6000546001600160a01b03163314610dda576040516311a8a1bb60e31b815260040160405180910390fd5b62093a8060025442610dec91906137b0565b11610e0a576040516324e0285f60e21b815260040160405180910390fd5b600254600003610e2d57604051630e4b303f60e21b815260040160405180910390fd5b6001546001600160a01b031615610e57576040516323295ef960e01b815260040160405180910390fd5b610c0d60006121b9565b6000546001600160a01b03163314610e8c576040516311a8a1bb60e31b815260040160405180910390fd5b610c76828261221e565b6000546001600160a01b03163314610ec1576040516311a8a1bb60e31b815260040160405180910390fd5b806001600160a01b038116610ef457604051633a930fdf60e01b81526001600160a01b038216600482015260240161099e565b610c76826122e6565b600f5460009033906001600160a01b03168114801590610f56575060106000836003811115610f2e57610f2e61366e565b6003811115610f3f57610f3f61366e565b815260208101919091526040016000205460ff1615155b8015610fb55750600160106000846003811115610f7557610f7561366e565b6003811115610f8657610f8661366e565b8152602081019190915260400160002054610fa4919060ff1661369a565b60ff16610fb2600a436136b3565b11155b15610fde5760405163cd6ff7a160e01b81526001600160a01b038216600482015260240161099e565b6006546040516335d2155560e11b81523360048201819052916001600160a01b031690636ba42aaa906024016020604051808303816000875af1158015611029573d6000803e3d6000fd5b505050506040513d601f19601f8201168201806040525081019061104d91906136e3565b611075576040516398eac98560e01b81526001600160a01b038216600482015260240161099e565b61107d611e70565b61108561234f565b6110bc5742600b54600d5461109a9190613700565b6040516343f0bc3560e01b81526004810192909252602482015260440161099e565b6110c98888888888612361565b5042600d556110d86001600355565b6006546040516317fbade560e21b81526001600160a01b03838116600483015290911690635feeb79490602401600060405180830381600087803b15801561111f57600080fd5b505af1158015611133573d6000803e3d6000fd5b505050505050505050505050565b3360009081526009602052604081205460ff1661117357604051630981f7d560e21b815233600482015260240161099e565b61117b611e70565b6007546040516331f1f3e960e11b81526001600160a01b03909116906363e3e7d2906111ab908690600401613928565b6020604051808303816000875af11580156111ca573d6000803e3d6000fd5b505050506040513d601f19601f820116820180604052508101906111ee9190613b1b565b90506111f982612422565b6112036001600355565b92915050565b3360009081526009602052604090205460ff1661123b57604051630981f7d560e21b815233600482015260240161099e565b611243611e70565b60006112528787878787612361565b60408051828152476020820152919250600080516020614452833981519152910160405180910390a161128482612422565b5061128f6001600355565b505050505050565b6000546001600160a01b031633146112c2576040516311a8a1bb60e31b815260040160405180910390fd5b806001600160a01b0381166112f557604051633a930fdf60e01b81526001600160a01b038216600482015260240161099e565b610c7682612487565b6000546001600160a01b03163314611329576040516311a8a1bb60e31b815260040160405180910390fd5b806001600160a01b03811661135c57604051633a930fdf60e01b81526001600160a01b038216600482015260240161099e565b610c76826124f0565b6000546001600160a01b03163314611390576040516311a8a1bb60e31b815260040160405180910390fd5b816001600160a01b0381166113c357604051633a930fdf60e01b81526001600160a01b038216600482015260240161099e565b6113cd8383612559565b505050565b6000546001600160a01b031633146113fd576040516311a8a1bb60e31b815260040160405180910390fd5b6001546001600160a01b03828116911614801561141b575060025415155b15611439576040516311bc066560e11b815260040160405180910390fd5b6000546001600160a01b0380831691160361146757604051634a2fb73f60e11b815260040160405180910390fd5b610b9b816125f2565b3360009081526009602052604090205460ff166114a257604051630981f7d560e21b815233600482015260240161099e565b6114aa611e70565b6114b684848484612640565b6114c06001600355565b50505050565b6001546001600160a01b031633146114f1576040516311a7f27160e11b815260040160405180910390fd5b62093a806002544261150391906137b0565b11611521576040516324e0285f60e21b815260040160405180910390fd5b600154610c0d906001600160a01b03166121b9565b600a546040805163957908d160e01b8152815160009384936001600160a01b039091169263957908d19260048083019392829003018187875af1158015611581573d6000803e3d6000fd5b505050506040513d601f19601f820116820180604052508101906115a59190613b34565b5090506000805b845181101561166a57600a54855184916001600160a01b03169063f715589a908890859081106115de576115de613b58565b60200260200101516040518263ffffffff1660e01b815260040161160e919063ffffffff91909116815260200190565b602060405180830381865afa15801561162b573d6000803e3d6000fd5b505050506040513d601f19601f8201168201806040525081019061164f9190613b1b565b141591508161166a578061166281613b6e565b9150506115ac565b5080801561167b575061167b61234f565b949350505050565b3360009081526009602052604090205460ff166116b557604051630981f7d560e21b815233600482015260240161099e565b6116bd611e70565b600854604051630aec6b9f60e21b81526001600160a01b0390911690632bb1ae7c9084906116ef908790600401613bcd565b6000604051808303818588803b15801561170857600080fd5b505af115801561171c573d6000803e3d6000fd5b50506040805186815247602082015260008051602061445283398151915294500191506117469050565b60405180910390a161175781612422565b6113cd6001600355565b600f5460019033906001600160a01b031681148015906117ba5750601060008360038111156117925761179261366e565b60038111156117a3576117a361366e565b815260208101919091526040016000205460ff1615155b801561181957506001601060008460038111156117d9576117d961366e565b60038111156117ea576117ea61366e565b8152602081019190915260400160002054611808919060ff1661369a565b60ff16611816600a436136b3565b11155b156118425760405163cd6ff7a160e01b81526001600160a01b038216600482015260240161099e565b6006546040516335d2155560e11b81523360048201819052916001600160a01b031690636ba42aaa906024016020604051808303816000875af115801561188d573d6000803e3d6000fd5b505050506040513d601f19601f820116820180604052508101906118b191906136e3565b6118d9576040516398eac98560e01b81526001600160a01b038216600482015260240161099e565b6118e587878787612640565b6006546040516317fbade560e21b81526001600160a01b03838116600483015290911690635feeb79490602401600060405180830381600087803b15801561192c57600080fd5b505af1158015611940573d6000803e3d6000fd5b5050505050505050505050565b6000546001600160a01b03163314611978576040516311a8a1bb60e31b815260040160405180910390fd5b806001600160a01b0381166119ab57604051633a930fdf60e01b81526001600160a01b038216600482015260240161099e565b610c7682612a13565b3360009081526009602052604090205460ff166119e657604051630981f7d560e21b815233600482015260240161099e565b6119ee611e70565b60085460405163508a109b60e01b81526001600160a01b039091169063508a109b90611a269089908990899089908990600401613bea565b600060405180830381600087803b158015611a4057600080fd5b505af1158015611a54573d6000803e3d6000fd5b50505050611a6181612422565b61128f6001600355565b6000546001600160a01b03163314611a96576040516311a8a1bb60e31b815260040160405180910390fd5b806001600160a01b038116611ac957604051633a930fdf60e01b81526001600160a01b038216600482015260240161099e565b610c7682612aac565b600f54600090819033906001600160a01b03168114801590611b2d575060106000836003811115611b0557611b0561366e565b6003811115611b1657611b1661366e565b815260208101919091526040016000205460ff1615155b8015611b8c5750600160106000846003811115611b4c57611b4c61366e565b6003811115611b5d57611b5d61366e565b8152602081019190915260400160002054611b7b919060ff1661369a565b60ff16611b89600a436136b3565b11155b15611bb55760405163cd6ff7a160e01b81526001600160a01b038216600482015260240161099e565b6006546040516335d2155560e11b81523360048201819052916001600160a01b031690636ba42aaa906024016020604051808303816000875af1158015611c00573d6000803e3d6000fd5b505050506040513d601f19601f82011682018060405250810190611c2491906136e3565b611c4c576040516398eac98560e01b81526001600160a01b038216600482015260240161099e565b611c54611e70565b611c5c61234f565b611c715742600b54600d5461109a9190613700565b611c808b8b8b8b8b8b8b612b15565b42600d559350611c906001600355565b6006546040516317fbade560e21b81526001600160a01b03838116600483015290911690635feeb79490602401600060405180830381600087803b158015611cd757600080fd5b505af1158015611ceb573d6000803e3d6000fd5b50505050505050979650505050505050565b6000600c54600e54611d0f9190613700565b4211905090565b6040805160208082018690528183018590528251808303840181526060830184528051908201207f19457468657265756d205369676e6564204d6573736167653a0a3332000000006080840152609c8084018290528451808503909101815260bc9093019093528151910120600090611d8f9084612bdc565b600a54604051632516d8ed60e11b81526001600160a01b038084166004830152929350911690634a2db1da90602401602060405180830381865afa158015611ddb573d6000803e3d6000fd5b505050506040513d601f19601f82011682018060405250810190611dff91906136e3565b611e275760405163af1cef3f60e01b81526001600160a01b038216600482015260240161099e565b5050505050565b600b546040805183815260208101929092527f5d93bbdda0d794fed18c39a7b776dc86cbf6ed443032e6baac71373996b85010910160405180910390a1600b55565b600260035403611ec25760405162461bcd60e51b815260206004820152601f60248201527f5265656e7472616e637947756172643a207265656e7472616e742063616c6c00604482015260640161099e565b6002600355565b80471015611f195760405162461bcd60e51b815260206004820152601d60248201527f416464726573733a20696e73756666696369656e742062616c616e6365000000604482015260640161099e565b6000826001600160a01b03168260405160006040518083038185875af1925050503d8060008114611f66576040519150601f19603f3d011682016040523d82523d6000602084013e611f6b565b606091505b50509050806113cd5760405162461bcd60e51b815260206004820152603a60248201527f416464726573733a20756e61626c6520746f2073656e642076616c75652c207260448201527f6563697069656e74206d61792068617665207265766572746564000000000000606482015260840161099e565b600654604080516001600160a01b03808516825290921660208301527f711d2a81db157c0acede64f080708460163dfaddcd4266c2c609efb458d3e4c0910160405180910390a1600680546001600160a01b0319166001600160a01b0392909216919091179055565b600754604080516001600160a01b03808516825290921660208301527f87539ad41983c0ecff8f321db8edf4dd9e830593562770bdacdda085b83e3bb2910160405180910390a1600780546001600160a01b0319166001600160a01b0392909216919091179055565b600454604080516001600160a01b03808516825290921660208301527f5db4a067a1f787c3269642464a2a1560868b50b0873e7dec83939ae2359f6128910160405180910390a1600480546001600160a01b0319166001600160a01b0392909216919091179055565b6001600160a01b03811660009081526009602052604090205460ff16612161576040516309fbf0f560e31b81526001600160a01b038216600482015260240161099e565b6001600160a01b038116600081815260096020908152604091829020805460ff1916905590519182527f10e1f7ce9fd7d1b90a66d13a2ab3cb8dd7f29f3f8d520b143b063ccfbab6906b91015b60405180910390a150565b600080546040516001600160a01b03808516939216917f8be0079c531659141344cd1fd0a4f28419497f9722a3daafe3b4186f6b6457e091a3600080546001600160a01b039092166001600160a01b0319928316178155600255600180549091169055565b7f2cf410431a72dc4bf0cc68af378641831e086686f41d275c16b60799824af83b8282601060008660038111156122575761225761366e565b60038111156122685761226861366e565b81526020810191909152604090810160002054905161228c93929160ff1690613cac565b60405180910390a180601060008460038111156122ab576122ab61366e565b60038111156122bc576122bc61366e565b815260200190815260200160002060006101000a81548160ff021916908360ff1602179055505050565b600f54604080516001600160a01b03808516825290921660208301527f17da78d98886c3b8819430ab0693a44c32dfa6426a4db4601ce45bc4bc2385ec910160405180910390a1600f80546001600160a01b0319166001600160a01b0392909216919091179055565b6000600b54600d54611d0f9190613700565b60008085815b818163ffffffff1610156123a95786868263ffffffff1681811061238d5761238d613b58565b905060200201358361239f9190613700565b9250600101612367565b50600a5460405163412e12db60e01b81526001600160a01b039091169063412e12db9084906123e4908c908c908c908c908c90600401613d2e565b6000604051808303818588803b1580156123fd57600080fd5b505af1158015612411573d6000803e3d6000fd5b50949b9a5050505050505050505050565b8060000361242d5750565b6004546001600160a01b0316330361245a57600554612455906001600160a01b031682611ec9565b612464565b6124643382611ec9565b6040805182815247602082015260008051602061445283398151915291016121ae565b600854604080516001600160a01b03808516825290921660208301527f66948d99d8431a8416af2202bc301823b7cdd87beb9bddaa274aedac0611a5fd910160405180910390a1600880546001600160a01b0319166001600160a01b0392909216919091179055565b600554604080516001600160a01b03808516825290921660208301527f649c5e3d0ed183894196148e193af316452b0037e77d2ff0fef23b7dc722bed0910160405180910390a1600580546001600160a01b0319166001600160a01b0392909216919091179055565b63ffffffff81166000818152601260209081526040918290205482516001600160a01b0387811682529091169181019190915280820192909252517ff3f83f3e1df056d9be522e74b3fe84add98c686289a646ae55708277434240929181900360600190a163ffffffff16600090815260126020526040902080546001600160a01b0319166001600160a01b0392909216919091179055565b42600255600180546001600160a01b0319166001600160a01b0383169081179091556040517f6ab4d119f23076e8ad491bc65ce85f017fb0591dce08755ba8591059cc51737a90600090a250565b63ffffffff8216600090815260116020908152604080832084845290915290205460ff16156126915760405163307de84960e01b815263ffffffff831660048201526024810182905260440161099e565b63ffffffff82166000908152601260205260409020546001600160a01b03166126d557604051637ab6707160e01b815263ffffffff8316600482015260240161099e565b63ffffffff821660008181526011602090815260408083208584529091529020805460ff1916600117905560641480612715575063ffffffff82166127d8145b156127ac57600061272884860186613d75565b63ffffffff8416600090815260126020908152604091829020548351918401519251633f7658fd60e01b81529394506001600160a01b031692633f7658fd926127749291600401613e1b565b600060405180830381600087803b15801561278e57600080fd5b505af11580156127a2573d6000803e3d6000fd5b50505050506114c0565b63ffffffff821661a4b114806127ca575063ffffffff821662066eed145b1561283f5760006127dd84860186613f4c565b63ffffffff841660009081526012602090815260409182902054835191840151838501516060860151608087015160a08801519651632750dce960e21b81529798506001600160a01b0390941696639d4373a49661277496959160040161403b565b63ffffffff8216600a148061285b575063ffffffff82166101a4145b156128c657600061286e84860186614124565b63ffffffff8416600090815260126020908152604091829020548351918401518385015160608601519451637049138f60e01b81529596506001600160a01b0390921694637049138f9461277494939160040161423c565b63ffffffff821661014414806128e3575063ffffffff8216610118145b156129535760006128f6848601866142e5565b63ffffffff8416600090815260126020908152604091829020548351918401518385015160608601516080870151955163e92a492f60e01b81529697506001600160a01b039093169563e92a492f956127749594916004016143aa565b63ffffffff821660891480612970575063ffffffff821662013881145b156129f25763ffffffff82166000908152601260205260409081902054905163f953cec760e01b81526001600160a01b039091169063f953cec7906129bb90879087906004016143eb565b600060405180830381600087803b1580156129d557600080fd5b505af11580156129e9573d6000803e3d6000fd5b505050506114c0565b60405163a3f36d6760e01b815263ffffffff8316600482015260240161099e565b6001600160a01b03811660009081526009602052604090205460ff1615612a5857604051633d85ded560e11b81526001600160a01b038216600482015260240161099e565b6001600160a01b038116600081815260096020908152604091829020805460ff1916600117905590519182527f03580ee9f53a62b7cb409a2cb56f9be87747dd15017afc5cef6eef321e4fb2c591016121ae565b600a54604080516001600160a01b03808516825290921660208301527f3124eaf4f16c6ddd81951200c6d8f65d5800753bef06584bd672c8b22c76b487910160405180910390a1600a80546001600160a01b0319166001600160a01b0392909216919091179055565b60008087815b818163ffffffff161015612b5d5788888263ffffffff16818110612b4157612b41613b58565b9050602002013583612b539190613700565b9250600101612b1b565b50600a5460405163124aa5bd60e21b81526001600160a01b039091169063492a96f4908490612b9c908e908e908e908e908e908e908e906004016143ff565b6000604051808303818588803b158015612bb557600080fd5b505af1158015612bc9573d6000803e3d6000fd5b50949d9c50505050505050505050505050565b6000806000612beb8585612c00565b91509150612bf881612c45565b509392505050565b6000808251604103612c365760208301516040840151606085015160001a612c2a87828585612d8f565b94509450505050612c3e565b506000905060025b9250929050565b6000816004811115612c5957612c5961366e565b03612c615750565b6001816004811115612c7557612c7561366e565b03612cc25760405162461bcd60e51b815260206004820152601860248201527f45434453413a20696e76616c6964207369676e61747572650000000000000000604482015260640161099e565b6002816004811115612cd657612cd661366e565b03612d235760405162461bcd60e51b815260206004820152601f60248201527f45434453413a20696e76616c6964207369676e6174757265206c656e67746800604482015260640161099e565b6003816004811115612d3757612d3761366e565b03610b9b5760405162461bcd60e51b815260206004820152602260248201527f45434453413a20696e76616c6964207369676e6174757265202773272076616c604482015261756560f01b606482015260840161099e565b6000807f7fffffffffffffffffffffffffffffff5d576e7357a4501ddfe92f46681b20a0831115612dc65750600090506003612e4a565b6040805160008082526020820180845289905260ff881692820192909252606081018690526080810185905260019060a0016020604051602081039080840390855afa158015612e1a573d6000803e3d6000fd5b5050604051601f1901519150506001600160a01b038116612e4357600060019250925050612e4a565b9150600090505b94509492505050565b803560048110612e6257600080fd5b919050565b600060208284031215612e7957600080fd5b612e8282612e53565b9392505050565b60008083601f840112612e9b57600080fd5b5081356001600160401b03811115612eb257600080fd5b6020830191508360208260051b8501011115612c3e57600080fd5b634e487b7160e01b600052604160045260246000fd5b60405160e081016001600160401b0381118282101715612f0557612f05612ecd565b60405290565b60405160c081016001600160401b0381118282101715612f0557612f05612ecd565b604051608081016001600160401b0381118282101715612f0557612f05612ecd565b60405160a081016001600160401b0381118282101715612f0557612f05612ecd565b604051601f8201601f191681016001600160401b0381118282101715612f9957612f99612ecd565b604052919050565b600082601f830112612fb257600080fd5b81356001600160401b03811115612fcb57612fcb612ecd565b612fde601f8201601f1916602001612f71565b818152846020838601011115612ff357600080fd5b816020850160208301376000918101602001919091529392505050565b600080600080600080600060a0888a03121561302b57600080fd5b873596506020880135955060408801356001600160401b038082111561305057600080fd5b61305c8b838c01612e89565b909750955060608a013591508082111561307557600080fd5b6130818b838c01612e89565b909550935060808a013591508082111561309a57600080fd5b506130a78a828b01612fa1565b91505092959891949750929550565b803563ffffffff81168114612e6257600080fd5b600080604083850312156130dd57600080fd5b6130e6836130b6565b946020939093013593505050565b60006020828403121561310657600080fd5b5035919050565b80356001600160a01b0381168114612e6257600080fd5b60006020828403121561313657600080fd5b612e828261310d565b60006020828403121561315157600080fd5b612e82826130b6565b6000806040838503121561316d57600080fd5b61317683612e53565b9150602083013560ff8116811461318c57600080fd5b809150509250929050565b60006001600160401b038211156131b0576131b0612ecd565b5060051b60200190565b600082601f8301126131cb57600080fd5b813560206131e06131db83613197565b612f71565b82815260059290921b840181019181810190868411156131ff57600080fd5b8286015b8481101561323e5780356001600160401b038111156132225760008081fd5b6132308986838b0101612fa1565b845250918301918301613203565b509695505050505050565b60008060008060006060868803121561326157600080fd5b85356001600160401b038082111561327857600080fd5b61328489838a01612e89565b9097509550602088013591508082111561329d57600080fd5b6132a989838a01612e89565b909550935060408801359150808211156132c257600080fd5b506132cf888289016131ba565b9150509295509295909350565b600080604083850312156132ef57600080fd5b82356001600160401b0381111561330557600080fd5b830160a081860312156130e657600080fd5b6000806000806000806080878903121561333057600080fd5b86356001600160401b038082111561334757600080fd5b6133538a838b01612e89565b9098509650602089013591508082111561336c57600080fd5b6133788a838b01612e89565b9096509450604089013591508082111561339157600080fd5b5061339e89828a016131ba565b925050606087013590509295509295509295565b600080604083850312156133c557600080fd5b6133ce8361310d565b91506133dc602084016130b6565b90509250929050565b600080600080606085870312156133fb57600080fd5b84356001600160401b038082111561341257600080fd5b818701915087601f83011261342657600080fd5b81358181111561343557600080fd5b88602082850101111561344757600080fd5b60209283019650945061345d91870190506130b6565b9396929550929360400135925050565b6000602080838503121561348057600080fd5b82356001600160401b0381111561349657600080fd5b8301601f810185136134a757600080fd5b80356134b56131db82613197565b81815260059190911b820183019083810190878311156134d457600080fd5b928401925b828410156134f9576134ea846130b6565b825292840192908401906134d9565b979650505050505050565b60008060006060848603121561351957600080fd5b83356001600160401b0381111561352f57600080fd5b61353b86828701612fa1565b9660208601359650604090950135949350505050565b600080600080600080610480878903121561356b57600080fd5b86356001600160401b0381111561358157600080fd5b61358d89828a01612e89565b909750955050602087013593506104408701888111156135ac57600080fd5b9598949750929560408101953594610460909101359350915050565b600080600080600080600060a0888a0312156135e357600080fd5b87356001600160401b03808211156135fa57600080fd5b6136068b838c01612e89565b909950975060208a013591508082111561361f57600080fd5b61362b8b838c01612e89565b909750955060408a013591508082111561364457600080fd5b506136518a828b016131ba565b935050606088013591506080880135905092959891949750929550565b634e487b7160e01b600052602160045260246000fd5b634e487b7160e01b600052601160045260246000fd5b60ff828116828216039081111561120357611203613684565b6000826136d057634e487b7160e01b600052601260045260246000fd5b500690565b8015158114610b9b57600080fd5b6000602082840312156136f557600080fd5b8151612e82816136d5565b8082018082111561120357611203613684565b81835260006001600160fb1b0383111561372c57600080fd5b8260051b80836020870137939093016020019392505050565b86815260006020878184015260806040840152613766608084018789613713565b83810360608501528481528590820160005b868110156137a15763ffffffff61378e846130b6565b1682529183019190830190600101613778565b509a9950505050505050505050565b8181038181111561120357611203613684565b8035612e62816136d5565b6000808335601e198436030181126137e557600080fd5b83016020810192503590506001600160401b0381111561380457600080fd5b803603821315612c3e57600080fd5b81835281816020850137506000828201602090810191909152601f909101601f19169091010190565b6000808335601e1984360301811261385357600080fd5b83016020810192503590506001600160401b0381111561387257600080fd5b8060051b3603821315612c3e57600080fd5b8183526000602080850194508260005b858110156138c0576001600160a01b036138ad8361310d565b1687529582019590820190600101613894565b509495945050505050565b81835260006020808501808196508560051b810191508460005b8781101561391b5782840389526138fc82886137ce565b613907868284613813565b9a87019a95505050908401906001016138e5565b5091979650505050505050565b602081526000823561019e1984360301811261394357600080fd5b60a06020840152830161396660c0840161395c836130b6565b63ffffffff169052565b613972602082016130b6565b63ffffffff1660e0840152613989604082016130b6565b61010061399d8186018363ffffffff169052565b6139a96060840161310d565b91506101206139c2818701846001600160a01b03169052565b6139ce6080850161310d565b92506101406139e7818801856001600160a01b03169052565b6139f360a086016137c3565b9350610160613a058189018615159052565b613a1260c08701876137ce565b95506101a061018081818c0152613a2e6102608c018985613813565b975060e0890135828c0152613a44878a0161310d565b6001600160a01b03166101c08c0152948801356101e08b015250509085013561020088015284013561022087015283013561024086015250613a89602086018661383c565b9250601f1980868403016040870152613aa3838584613884565b9350613ab2604088018861383c565b9350915080868503016060870152613acb8484846138cb565b9350613ad96060880161310d565b6001600160a01b03811660808801529250613af760808801886137ce565b93509150808685030160a087015250613b11838383613813565b9695505050505050565b600060208284031215613b2d57600080fd5b5051919050565b60008060408385031215613b4757600080fd5b505080516020909101519092909150565b634e487b7160e01b600052603260045260246000fd5b600060018201613b8057613b80613684565b5060010190565b6000815180845260005b81811015613bad57602081850181015186830182015201613b91565b506000602082860101526020601f19601f83011685010191505092915050565b602081526000612e826020830184613b87565b6104008183375050565b6104608082528101859052600061048080830190600588901b8401018883805b8a811015613c805786840361047f190185528235368d900361043e19018112613c31578283fd5b8c01610440613c4082806137ce565b828852613c508389018284613813565b92505050602061040081840182890137610420928301359690920195909552948501949290920191600101613c0a565b5050508092505050846020830152613c9b6040830185613be0565b826104408301529695505050505050565b6060810160048510613cce57634e487b7160e01b600052602160045260246000fd5b93815260ff9283166020820152911660409091015290565b600081518084526020808501808196508360051b8101915082860160005b8581101561391b578284038952613d1c848351613b87565b98850198935090840190600101613d04565b606081526000613d42606083018789613884565b8281036020840152613d55818688613713565b90508281036040840152613d698185613ce6565b98975050505050505050565b600060208284031215613d8757600080fd5b81356001600160401b0380821115613d9e57600080fd5b9083019060408286031215613db257600080fd5b604051604081018181108382111715613dcd57613dcd612ecd565b604052823582811115613ddf57600080fd5b613deb87828601612fa1565b825250602083013582811115613e0057600080fd5b613e0c87828601612fa1565b60208301525095945050505050565b604081526000613e2e6040830185613b87565b8281036020840152613e408185613b87565b95945050505050565b80356001600160401b0381168114612e6257600080fd5b600082601f830112613e7157600080fd5b81356020613e816131db83613197565b82815260059290921b84018101918181019086841115613ea057600080fd5b8286015b8481101561323e5780358352918301918301613ea4565b600060e08284031215613ecd57600080fd5b613ed5612ee3565b9050613ee08261310d565b8152613eee6020830161310d565b602082015260408201356040820152606082013560608201526080820135608082015260a082013560a082015260c08201356001600160401b03811115613f3457600080fd5b613f4084828501612fa1565b60c08301525092915050565b600060208284031215613f5e57600080fd5b81356001600160401b0380821115613f7557600080fd5b9083019060c08286031215613f8957600080fd5b613f91612f0b565b613f9a83613e49565b81526020830135602082015260408301356040820152606083013582811115613fc257600080fd5b613fce87828601613e60565b6060830152506080830135608082015260a083013582811115613ff057600080fd5b613ffc87828601613ebb565b60a08301525095945050505050565b600081518084526020808501945080840160005b838110156138c05781518752958201959082019060010161401f565b6001600160401b038716815285602082015284604082015260c06060820152600061406960c083018661400b565b84608084015282810360a084015260018060a01b038085511682528060208601511660208301525060408401516040820152606084015160608201526080840151608082015260a084015160a082015260c084015160e060c08301526140d260e0830182613b87565b9a9950505050505050505050565b6000608082840312156140f257600080fd5b6140fa612f2d565b90508135815260208201356020820152604082013560408201526060820135606082015292915050565b60006020828403121561413657600080fd5b81356001600160401b038082111561414d57600080fd5b9083019060e0828603121561416157600080fd5b614169612f2d565b82358281111561417857600080fd5b830160c0818803121561418a57600080fd5b614192612f0b565b813581526141a26020830161310d565b60208201526141b36040830161310d565b6040820152606082013560608201526080820135608082015260a0820135848111156141de57600080fd5b6141ea89828501612fa1565b60a0830152508252506020838101359082015261420a86604085016140e0565b604082015260c08301358281111561422157600080fd5b61422d878286016131ba565b60608301525095945050505050565b60e080825285519082015260208501516001600160a01b039081166101008301526040860151166101208201526060850151610140820152608085015161016082015260a085015160c061018083015260009061429d6101a0840182613b87565b90508560208401526142d36040840186805182526020810151602083015260408101516040830152606081015160608301525050565b82810360c08401526134f98185613ce6565b6000602082840312156142f757600080fd5b81356001600160401b038082111561430e57600080fd5b9083019060a0828603121561432257600080fd5b61432a612f4f565b614333836130b6565b815260208301356020820152604083013561ffff8116811461435457600080fd5b604082015260608301358281111561436b57600080fd5b61437787828601612fa1565b60608301525060808301358281111561438f57600080fd5b61439b87828601613e60565b60808301525095945050505050565b63ffffffff8616815284602082015261ffff8416604082015260a0606082015260006143d960a0830185613b87565b8281036080840152613d69818561400b565b60208152600061167b602083018486613813565b60a08152600061441360a08301898b613884565b828103602084015261442681888a613713565b9050828103604084015261443a8187613ce6565b60608401959095525050608001529594505050505056fe9826a73d0fd7186bda6a15195ac17571869cab151bfe9a8fed3f9407fffe5b18a2646970667358221220a36c1700e55abb9b2d5fa87eec36e351209c648918cb8f3016fbf5bd01134e5664736f6c63430008110033",
  "devdoc": {
    "author": "Connext Labs, Inc.",
    "events": {
      "AutonolasChanged(address,address)": {
        "params": {
          "previous": "Old Autonolas address in the contract",
          "updated": "New Autonolas address in the contract"
        }
      },
      "AutonolasPriorityChanged(uint8,uint8,uint8)": {
        "params": {
          "previous": "Old Autonolas priority in the contract",
          "updated": "New Autonolas priority in the contract"
        }
      },
      "HubConnectorChanged(address,address,uint32)": {
        "params": {
          "chain": "Chain ID of the hub connector",
          "hubConnector": "New hub connector address",
          "oldHubConnector": "Old hub connector address"
        }
      },
      "PropagateCooldownChanged(uint256,uint256)": {
        "params": {
          "oldPropagateCooldown": "Old cooldown period",
          "propagateCooldown": "New cooldown period"
        }
      },
      "ProposeAggregateRootCooldownChanged(uint256,uint256)": {
        "params": {
          "oldProposeAggregateRootCooldown": "Old cooldown period",
          "proposeAggregateRootCooldown": "New cooldown period"
        }
      },
      "RootManagerChanged(address,address)": {
        "params": {
          "oldRootManager": "Old root manager address in the contract",
          "rootManager": "New root manager address in the contract"
        }
      }
    },
    "kind": "dev",
    "methods": {
      "addRelayer(address)": {
        "params": {
          "_relayer": "- Relayer address to add."
        }
      },
      "constructor": {
        "params": {
          "_autonolas": "The address of the Autonolas keeper contract on this domain.",
          "_connext": "The address of the Connext on this domain.",
          "_feeCollector": "The address of the Gelato Fee Collector on this domain.",
          "_gelatoRelayer": "The address of the Gelato relayer on this domain.",
          "_hubConnectorChains": "The identifiers of the hub connectors on this domain.",
          "_hubConnectors": "The addresses of the hub connectors on this domain.",
          "_keep3r": "The address of the Keep3r on this domain.",
          "_propagateCooldown": "The delay for the propagate function.",
          "_rootManager": "The address of the Root Manager on this domain.",
          "_spokeConnector": "The address of the SpokeConnector on this domain."
        }
      },
      "execute(((uint32,uint32,uint32,address,address,bool,bytes,uint256,address,uint256,uint256,uint256,bytes32),address[],bytes[],address,bytes),uint256)": {
        "params": {
          "_args": "- ExecuteArgs arguments.",
          "_fee": "- Fee to be paid to relayer."
        },
        "returns": {
          "transferId": "- The transfer ID of the crosschain transfer. Should match the xcall's transfer ID in order for reconciliation to occur."
        }
      },
      "finalizeAndPropagateKeep3r(address[],uint256[],bytes[],bytes32,uint256)": {
        "params": {
          "_connectors": "Array of connectors: should match exactly the array of `connectors` in storage;",
          "_encodedData": "Array of encodedData: extra params for each AMB if required",
          "_endOfDispute": "The timestamp when the dispute period ends.",
          "_fees": "Array of fees in native token for an AMB if required",
          "_proposedAggregateRoot": "The aggregate root to be proposed."
        }
      },
      "processFromRoot(bytes,uint32,bytes32)": {
        "params": {
          "_encodedData": "Array of encoded data for HubConnector function.",
          "_fromChain": "Chain ID of the chain the message is coming from.",
          "_l2Hash": "Hash of the message on the L2 chain."
        }
      },
      "processFromRootKeep3r(bytes,uint32,bytes32)": {
        "params": {
          "_encodedData": "Array of encoded data for HubConnector function.",
          "_fromChain": "Chain ID of the chain the message is coming from.",
          "_l2Hash": "Hash of the message on the L2 chain."
        }
      },
      "propagate(address[],uint256[],bytes[],uint256)": {
        "params": {
          "_connectors": "Array of connectors: should match exactly the array of `connectors` in storage; used here to reduce gas costs, and keep them static regardless of number of supported domains.",
          "_encodedData": "Array of encodedData: extra params for each AMB if required",
          "_messageFees": "Array of fees in native token for an AMB if required",
          "_relayerFee": "Fee to be paid to relayer"
        }
      },
      "propagateKeep3r(address[],uint256[],bytes[])": {
        "params": {
          "_connectors": "Array of connectors: should match exactly the array of `connectors` in storage; used here to reduce gas costs, and keep them static regardless of number of supported domains.",
          "_encodedData": "Array of encodedData: extra params for each AMB if required",
          "_messageFees": "Array of fees in native token for an AMB if required"
        }
      },
      "propagateWorkable(uint32[])": {
        "returns": {
          "_0": "True if the RootManager has a workable root."
        }
      },
      "proposeAggregateRootKeep3r(uint256,bytes32,bytes32[],uint32[],bytes)": {
        "details": "This contract will validate the signer is a whitelisted proposer on the RootManager, and then call `propose` itself. This means this contract must *also* be whitelisted as a proposer on the RootManager.",
        "params": {
          "_aggregateRoot": "The aggregate root to be proposed.",
          "_domains": "The domains of the snapshots to be proposed.",
          "_snapshotId": "The snapshot id of the root to be proposed.",
          "_snapshotsRoots": "The roots of the connectors included in the aggregate."
        }
      },
      "proveAndProcess((bytes,bytes32[32],uint256)[],bytes32,bytes32[32],uint256,uint256)": {
        "params": {
          "_aggregateIndex": "Index of the inbound root in the aggregator's merkle tree in the hub.",
          "_aggregatePath": "Merkle path of inclusion for the inbound root.",
          "_aggregateRoot": "The target aggregate root we want to prove inclusion for. This root must have already been delivered to this spoke connector contract and surpassed the validation period.",
          "_fee": "- Fee to be paid to relayer.",
          "_proofs": "Batch of Proofs containing messages for proving/processing."
        }
      },
      "removeRelayer(address)": {
        "params": {
          "_relayer": "- Relayer address to remove."
        }
      },
      "send(bytes,uint256,uint256)": {
        "params": {
          "_encodedData": "- Data to be sent to Connext SpokeConnector",
          "_messageFee": "- Fee to be paid to the SpokeConnector for connected AMBs that require fees.",
          "_relayerFee": "- Fee to be paid to relayer."
        }
      },
      "setAutonolas(address)": {
        "params": {
          "_autonolas": "- New Autonolas contract address."
        }
      },
      "setAutonolasPriority(uint8,uint8)": {
        "params": {
          "_autonolasPriority": "- New Autonolas priority."
        }
      },
      "setConnext(address)": {
        "params": {
          "_connext": "- New Connext address."
        }
      },
      "setFeeCollector(address)": {
        "params": {
          "_feeCollector": "- New Gelato Fee Collector address."
        }
      },
      "setGelatoRelayer(address)": {
        "params": {
          "_gelatoRelayer": "- New Gelato relayer address."
        }
      },
      "setHubConnector(address,uint32)": {
        "params": {
          "_hubConnector": "The address of the new HubConnector on this domain."
        }
      },
      "setKeep3r(address)": {
        "params": {
          "_keep3r": "- New Keep3r contract address."
        }
      },
      "setPropagateCooldown(uint256)": {
        "params": {
          "_propagateCooldown": "The new cooldown in seconds."
        }
      },
      "setRootManager(address)": {
        "params": {
          "_rootManager": "The address of the new RootManager on this domain."
        }
      },
      "setSpokeConnector(address)": {
        "params": {
          "_spokeConnector": "- New SpokeConnector address."
        }
      }
    },
    "stateVariables": {
      "autonolas": {
        "details": "Special consideration for Autonolas keeper"
      },
      "autonolasPriority": {
        "details": "number between 0 and 10 to determine priority that Autonolas has for jobs. 0 is disabled, 10 will work for every block."
      },
      "proposeAggregateRootCooldown": {
        "details": "Can be updated by admin"
      }
    },
    "title": "RelayerProxyHub",
    "version": 1
  },
  "userdoc": {
    "events": {
      "AutonolasChanged(address,address)": {
        "notice": "Emitted when Autonolas address is updated by admin"
      },
      "AutonolasPriorityChanged(uint8,uint8,uint8)": {
        "notice": "Emitted when Autonolas priority is updated by admin"
      },
      "ConnextChanged(address,address)": {
        "notice": "Emitted when Connext contract address is updated by admin"
      },
      "FeeCollectorChanged(address,address)": {
        "notice": "Emitted when FeeCollectorChanged address is updated by admin"
      },
      "FundsDeducted(uint256,uint256)": {
        "notice": "Emitted when funds removed from the contract by admin"
      },
      "FundsReceived(uint256,uint256)": {
        "notice": "Emitted when funds added to the contract"
      },
      "GelatoRelayerChanged(address,address)": {
        "notice": "Emitted when GelatoRelayer address is updated by admin"
      },
      "HubConnectorChanged(address,address,uint32)": {
        "notice": "Emitted when a new hub connector is updated"
      },
      "Keep3rChanged(address,address)": {
        "notice": "Emitted when Keep3r address is updated by admin"
      },
      "PropagateCooldownChanged(uint256,uint256)": {
        "notice": "Emitted when the cooldown period for propagate is updated"
      },
      "ProposeAggregateRootCooldownChanged(uint256,uint256)": {
        "notice": "Emitted when the cooldown period for proposeAggregateRoot is updated"
      },
      "RelayerAdded(address)": {
        "notice": "Emitted when a new relayer is allowlisted by admin"
      },
      "RelayerRemoved(address)": {
        "notice": "Emitted when a relayer is removed from allowlist by admin"
      },
      "RootManagerChanged(address,address)": {
        "notice": "Emitted when the root manager is updated by admin"
      },
      "SpokeConnectorChanged(address,address)": {
        "notice": "Emitted when SpokeConnector contract address is updated by admin"
      }
    },
    "kind": "user",
    "methods": {
      "acceptProposedOwner()": {
        "notice": "Transfers ownership of the contract to a new account (`newOwner`). Can only be called by the current owner."
      },
      "addRelayer(address)": {
        "notice": "Adds a relayer address to the allowed relayers mapping."
      },
      "autonolas()": {
        "notice": "Address of Autonolas keeper contract"
      },
      "autonolasPriority(uint8)": {
        "notice": "Mapping of Autonolas priority function to priority number"
      },
      "constructor": {
        "notice": "Creates a new RelayerProxyHub instance."
      },
      "delay()": {
        "notice": "Returns the delay period before a new owner can be accepted."
      },
      "execute(((uint32,uint32,uint32,address,address,bool,bytes,uint256,address,uint256,uint256,uint256,bytes32),address[],bytes[],address,bytes),uint256)": {
        "notice": "Wraps the call to execute() on Connext and pays either the caller or hardcoded relayer from this contract's balance for completing the transaction."
      },
      "finalizeAndPropagateKeep3r(address[],uint256[],bytes[],bytes32,uint256)": {
        "notice": "Wraps the `finalizeAndPropagate` function"
      },
      "hubConnectors(uint32)": {
        "notice": "Mapping of identifier to hub connector contract address"
      },
      "lastPropagateAt()": {
        "notice": "Timestamp of the last time the propagate job was worked."
      },
      "lastProposeAggregateRootAt()": {
        "notice": "Timestamp of when last aggregate was proposed"
      },
      "owner()": {
        "notice": "Returns the address of the current owner."
      },
      "processFromRoot(bytes,uint32,bytes32)": {
        "notice": "Wraps the call to processFromRoot() on RootManager. Only allowed to be called by registered relayer."
      },
      "processFromRootKeep3r(bytes,uint32,bytes32)": {
        "notice": "Wraps the call to processFromRoot() on RootManager and pays with Keep3r credits. Only allowed to be called by registered Keep3r."
      },
      "processedRootMessages(uint32,bytes32)": {
        "notice": "Mapping of identifier to root message hash to boolean indicating if the message has been processed"
      },
      "propagate(address[],uint256[],bytes[],uint256)": {
        "notice": "Wraps the call to propagate() on RootManager and pays either the caller or hardcoded relayer from this contract's balance for completing the transaction."
      },
      "propagateCooldown()": {
        "notice": "Delay for the propagate function"
      },
      "propagateKeep3r(address[],uint256[],bytes[])": {
        "notice": "Wraps the call to propagate() on RootManager and pays with Keep3r credits. Only allowed to be called by registered Keep3r."
      },
      "propagateWorkable(uint32[])": {
        "notice": "Checks if the RootManager has a workable root. Calls the rootManager's dequeue() function to check if the RootManager has a sendable root. This is an expensive function so it should only be called off-chain to determine if the relayer should call the propagate() function."
      },
      "proposeAggregateRootCooldown()": {
        "notice": "Delay for the proposeAggregateRoot function"
      },
      "proposeAggregateRootKeep3r(uint256,bytes32,bytes32[],uint32[],bytes)": {
        "notice": "Wraps the `proposeAggregateRoot` function"
      },
      "proposeNewOwner(address)": {
        "notice": "Sets the timestamp for an owner to be proposed, and sets the newly proposed owner as step 1 in a 2-step process"
      },
      "proposed()": {
        "notice": "Returns the address of the proposed owner."
      },
      "proposedTimestamp()": {
        "notice": "Returns the address of the proposed owner."
      },
      "proveAndProcess((bytes,bytes32[32],uint256)[],bytes32,bytes32[32],uint256,uint256)": {
        "notice": "Wraps the call to proveAndProcess() on SpokeConnector and pays either the caller or hardcoded relayer from this contract's balance for completing the transaction."
      },
      "removeRelayer(address)": {
        "notice": "Removes a relayer address from the allowed relayers mapping."
      },
      "renounceOwnership()": {
        "notice": "Renounces ownership of the contract after a delay"
      },
      "renounced()": {
        "notice": "Indicates if the ownership has been renounced() by checking if current owner is address(0)"
      },
      "rootManager()": {
        "notice": "Address of the RootManager contract"
      },
      "send(bytes,uint256,uint256)": {
        "notice": "Wraps the call to send() on SpokeConnector and pays either the caller or hardcoded relayer from this contract's balance for completing the transaction."
      },
      "setAutonolas(address)": {
        "notice": "Updates the Autonolas contract address on this contract."
      },
      "setAutonolasPriority(uint8,uint8)": {
        "notice": "Updates the Autonolas priority on this contract."
      },
      "setConnext(address)": {
        "notice": "Updates the Connext address on this contract."
      },
      "setFeeCollector(address)": {
        "notice": "Updates the Gelato Fee Collector address on this contract."
      },
      "setGelatoRelayer(address)": {
        "notice": "Updates the Gelato relayer address on this contract."
      },
      "setHubConnector(address,uint32)": {
        "notice": "Updates the HubConnector address."
      },
      "setKeep3r(address)": {
        "notice": "Updates the Keep3r contract address on this contract."
      },
      "setPropagateCooldown(uint256)": {
        "notice": "Updates the propagate cooldown."
      },
      "setRootManager(address)": {
        "notice": "Updates the RootManager address."
      },
      "setSpokeConnector(address)": {
        "notice": "Updates the SpokeConnector address on this contract."
      },
      "withdraw()": {
        "notice": "Withdraws all funds stored on this contract to msg.sender."
      }
    },
    "notice": "This is a temporary contract that wraps the Connext RootManager's propagate() function so that it can be called by Gelato's legacy relayer network. The contract stores native assets and pays them to the relayer on function call.",
    "version": 1
  },
  "storageLayout": {
    "storage": [
      {
        "astId": 45351,
        "contract": "contracts/core/connext/helpers/RelayerProxyHub.sol:RelayerProxyHub",
        "label": "_owner",
        "offset": 0,
        "slot": "0",
        "type": "t_address"
      },
      {
        "astId": 45353,
        "contract": "contracts/core/connext/helpers/RelayerProxyHub.sol:RelayerProxyHub",
        "label": "_proposed",
        "offset": 0,
        "slot": "1",
        "type": "t_address"
      },
      {
        "astId": 45355,
        "contract": "contracts/core/connext/helpers/RelayerProxyHub.sol:RelayerProxyHub",
        "label": "_proposedOwnershipTimestamp",
        "offset": 0,
        "slot": "2",
        "type": "t_uint256"
      },
      {
        "astId": 2839,
        "contract": "contracts/core/connext/helpers/RelayerProxyHub.sol:RelayerProxyHub",
        "label": "_status",
        "offset": 0,
        "slot": "3",
        "type": "t_uint256"
      },
      {
        "astId": 16566,
        "contract": "contracts/core/connext/helpers/RelayerProxyHub.sol:RelayerProxyHub",
        "label": "gelatoRelayer",
        "offset": 0,
        "slot": "4",
        "type": "t_address"
      },
      {
        "astId": 16568,
        "contract": "contracts/core/connext/helpers/RelayerProxyHub.sol:RelayerProxyHub",
        "label": "feeCollector",
        "offset": 0,
        "slot": "5",
        "type": "t_address"
      },
      {
        "astId": 16571,
        "contract": "contracts/core/connext/helpers/RelayerProxyHub.sol:RelayerProxyHub",
        "label": "keep3r",
        "offset": 0,
        "slot": "6",
        "type": "t_contract(IKeep3rV2)16557"
      },
      {
        "astId": 16574,
        "contract": "contracts/core/connext/helpers/RelayerProxyHub.sol:RelayerProxyHub",
        "label": "connext",
        "offset": 0,
        "slot": "7",
        "type": "t_contract(IConnext)20577"
      },
      {
        "astId": 16577,
        "contract": "contracts/core/connext/helpers/RelayerProxyHub.sol:RelayerProxyHub",
        "label": "spokeConnector",
        "offset": 0,
        "slot": "8",
        "type": "t_contract(ISpokeConnector)16544"
      },
      {
        "astId": 16581,
        "contract": "contracts/core/connext/helpers/RelayerProxyHub.sol:RelayerProxyHub",
        "label": "allowedRelayer",
        "offset": 0,
        "slot": "9",
        "type": "t_mapping(t_address,t_bool)"
      },
      {
        "astId": 17442,
        "contract": "contracts/core/connext/helpers/RelayerProxyHub.sol:RelayerProxyHub",
        "label": "rootManager",
        "offset": 0,
        "slot": "10",
        "type": "t_contract(IRootManager)17310"
      },
      {
        "astId": 17445,
        "contract": "contracts/core/connext/helpers/RelayerProxyHub.sol:RelayerProxyHub",
        "label": "propagateCooldown",
        "offset": 0,
        "slot": "11",
        "type": "t_uint256"
      },
      {
        "astId": 17448,
        "contract": "contracts/core/connext/helpers/RelayerProxyHub.sol:RelayerProxyHub",
        "label": "proposeAggregateRootCooldown",
        "offset": 0,
        "slot": "12",
        "type": "t_uint256"
      },
      {
        "astId": 17451,
        "contract": "contracts/core/connext/helpers/RelayerProxyHub.sol:RelayerProxyHub",
        "label": "lastPropagateAt",
        "offset": 0,
        "slot": "13",
        "type": "t_uint256"
      },
      {
        "astId": 17454,
        "contract": "contracts/core/connext/helpers/RelayerProxyHub.sol:RelayerProxyHub",
        "label": "lastProposeAggregateRootAt",
        "offset": 0,
        "slot": "14",
        "type": "t_uint256"
      },
      {
        "astId": 17457,
        "contract": "contracts/core/connext/helpers/RelayerProxyHub.sol:RelayerProxyHub",
        "label": "autonolas",
        "offset": 0,
        "slot": "15",
        "type": "t_address"
      },
      {
        "astId": 17468,
        "contract": "contracts/core/connext/helpers/RelayerProxyHub.sol:RelayerProxyHub",
        "label": "autonolasPriority",
        "offset": 0,
        "slot": "16",
        "type": "t_mapping(t_enum(AutonolasPriorityFunction)17462,t_uint8)"
      },
      {
        "astId": 17475,
        "contract": "contracts/core/connext/helpers/RelayerProxyHub.sol:RelayerProxyHub",
        "label": "processedRootMessages",
        "offset": 0,
        "slot": "17",
        "type": "t_mapping(t_uint32,t_mapping(t_bytes32,t_bool))"
      },
      {
        "astId": 17480,
        "contract": "contracts/core/connext/helpers/RelayerProxyHub.sol:RelayerProxyHub",
        "label": "hubConnectors",
        "offset": 0,
        "slot": "18",
        "type": "t_mapping(t_uint32,t_address)"
      }
    ],
    "types": {
      "t_address": {
        "encoding": "inplace",
        "label": "address",
        "numberOfBytes": "20"
      },
      "t_bool": {
        "encoding": "inplace",
        "label": "bool",
        "numberOfBytes": "1"
      },
      "t_bytes32": {
        "encoding": "inplace",
        "label": "bytes32",
        "numberOfBytes": "32"
      },
      "t_contract(IConnext)20577": {
        "encoding": "inplace",
        "label": "contract IConnext",
        "numberOfBytes": "20"
      },
      "t_contract(IKeep3rV2)16557": {
        "encoding": "inplace",
        "label": "contract IKeep3rV2",
        "numberOfBytes": "20"
      },
      "t_contract(IRootManager)17310": {
        "encoding": "inplace",
        "label": "contract IRootManager",
        "numberOfBytes": "20"
      },
      "t_contract(ISpokeConnector)16544": {
        "encoding": "inplace",
        "label": "contract ISpokeConnector",
        "numberOfBytes": "20"
      },
      "t_enum(AutonolasPriorityFunction)17462": {
        "encoding": "inplace",
        "label": "enum RelayerProxyHub.AutonolasPriorityFunction",
        "numberOfBytes": "1"
      },
      "t_mapping(t_address,t_bool)": {
        "encoding": "mapping",
        "key": "t_address",
        "label": "mapping(address => bool)",
        "numberOfBytes": "32",
        "value": "t_bool"
      },
      "t_mapping(t_bytes32,t_bool)": {
        "encoding": "mapping",
        "key": "t_bytes32",
        "label": "mapping(bytes32 => bool)",
        "numberOfBytes": "32",
        "value": "t_bool"
      },
      "t_mapping(t_enum(AutonolasPriorityFunction)17462,t_uint8)": {
        "encoding": "mapping",
        "key": "t_enum(AutonolasPriorityFunction)17462",
        "label": "mapping(enum RelayerProxyHub.AutonolasPriorityFunction => uint8)",
        "numberOfBytes": "32",
        "value": "t_uint8"
      },
      "t_mapping(t_uint32,t_address)": {
        "encoding": "mapping",
        "key": "t_uint32",
        "label": "mapping(uint32 => address)",
        "numberOfBytes": "32",
        "value": "t_address"
      },
      "t_mapping(t_uint32,t_mapping(t_bytes32,t_bool))": {
        "encoding": "mapping",
        "key": "t_uint32",
        "label": "mapping(uint32 => mapping(bytes32 => bool))",
        "numberOfBytes": "32",
        "value": "t_mapping(t_bytes32,t_bool)"
      },
      "t_uint256": {
        "encoding": "inplace",
        "label": "uint256",
        "numberOfBytes": "32"
      },
      "t_uint32": {
        "encoding": "inplace",
        "label": "uint32",
        "numberOfBytes": "4"
      },
      "t_uint8": {
        "encoding": "inplace",
        "label": "uint8",
        "numberOfBytes": "1"
      }
    }
  }
}