{
  "address": "0xd186F83a918A5602f044c407730E6957D60F1273",
  "abi": [
    {
      "inputs": [
        {
          "internalType": "address",
          "name": "_rootManager",
          "type": "address"
        }
      ],
      "stateMutability": "nonpayable",
      "type": "constructor"
    },
    {
      "inputs": [],
      "name": "ProposedOwnable__acceptProposedOwner_delayNotElapsed",
      "type": "error"
    },
    {
      "inputs": [],
      "name": "ProposedOwnable__onlyOwner_notOwner",
      "type": "error"
    },
    {
      "inputs": [],
      "name": "ProposedOwnable__onlyProposed_notProposedOwner",
      "type": "error"
    },
    {
      "inputs": [],
      "name": "ProposedOwnable__proposeNewOwner_invalidProposal",
      "type": "error"
    },
    {
      "inputs": [],
      "name": "ProposedOwnable__proposeNewOwner_noOwnershipChange",
      "type": "error"
    },
    {
      "inputs": [],
      "name": "ProposedOwnable__renounceOwnership_delayNotElapsed",
      "type": "error"
    },
    {
      "inputs": [],
      "name": "ProposedOwnable__renounceOwnership_invalidProposal",
      "type": "error"
    },
    {
      "inputs": [],
      "name": "ProposedOwnable__renounceOwnership_noProposal",
      "type": "error"
    },
    {
      "anonymous": false,
      "inputs": [
        {
          "indexed": false,
          "internalType": "uint256",
          "name": "amount",
          "type": "uint256"
        },
        {
          "indexed": false,
          "internalType": "uint256",
          "name": "balance",
          "type": "uint256"
        }
      ],
      "name": "FundsDeducted",
      "type": "event"
    },
    {
      "anonymous": false,
      "inputs": [
        {
          "indexed": false,
          "internalType": "uint256",
          "name": "amount",
          "type": "uint256"
        },
        {
          "indexed": false,
          "internalType": "uint256",
          "name": "balance",
          "type": "uint256"
        }
      ],
      "name": "FundsReceived",
      "type": "event"
    },
    {
      "anonymous": false,
      "inputs": [
        {
          "indexed": true,
          "internalType": "address",
          "name": "proposedOwner",
          "type": "address"
        }
      ],
      "name": "OwnershipProposed",
      "type": "event"
    },
    {
      "anonymous": false,
      "inputs": [
        {
          "indexed": true,
          "internalType": "address",
          "name": "previousOwner",
          "type": "address"
        },
        {
          "indexed": true,
          "internalType": "address",
          "name": "newOwner",
          "type": "address"
        }
      ],
      "name": "OwnershipTransferred",
      "type": "event"
    },
    {
      "anonymous": false,
      "inputs": [
        {
          "indexed": false,
          "internalType": "address",
          "name": "rootManager",
          "type": "address"
        },
        {
          "indexed": false,
          "internalType": "address",
          "name": "oldRootManager",
          "type": "address"
        }
      ],
      "name": "RootManagerChanged",
      "type": "event"
    },
    {
      "inputs": [],
      "name": "acceptProposedOwner",
      "outputs": [],
      "stateMutability": "nonpayable",
      "type": "function"
    },
    {
      "inputs": [],
      "name": "delay",
      "outputs": [
        {
          "internalType": "uint256",
          "name": "",
          "type": "uint256"
        }
      ],
      "stateMutability": "view",
      "type": "function"
    },
    {
      "inputs": [],
      "name": "owner",
      "outputs": [
        {
          "internalType": "address",
          "name": "",
          "type": "address"
        }
      ],
      "stateMutability": "view",
      "type": "function"
    },
    {
      "inputs": [
        {
          "internalType": "address[]",
          "name": "_connectors",
          "type": "address[]"
        },
        {
          "internalType": "uint256[]",
          "name": "_fees",
          "type": "uint256[]"
        },
        {
          "internalType": "bytes[]",
          "name": "_encodedData",
          "type": "bytes[]"
        }
      ],
      "name": "propagate",
      "outputs": [],
      "stateMutability": "nonpayable",
      "type": "function"
    },
    {
      "inputs": [
        {
          "internalType": "address",
          "name": "newlyProposed",
          "type": "address"
        }
      ],
      "name": "proposeNewOwner",
      "outputs": [],
      "stateMutability": "nonpayable",
      "type": "function"
    },
    {
      "inputs": [],
      "name": "proposed",
      "outputs": [
        {
          "internalType": "address",
          "name": "",
          "type": "address"
        }
      ],
      "stateMutability": "view",
      "type": "function"
    },
    {
      "inputs": [],
      "name": "proposedTimestamp",
      "outputs": [
        {
          "internalType": "uint256",
          "name": "",
          "type": "uint256"
        }
      ],
      "stateMutability": "view",
      "type": "function"
    },
    {
      "inputs": [],
      "name": "renounceOwnership",
      "outputs": [],
      "stateMutability": "nonpayable",
      "type": "function"
    },
    {
      "inputs": [],
      "name": "renounced",
      "outputs": [
        {
          "internalType": "bool",
          "name": "",
          "type": "bool"
        }
      ],
      "stateMutability": "view",
      "type": "function"
    },
    {
      "inputs": [],
      "name": "rootManager",
      "outputs": [
        {
          "internalType": "contract IRootManager",
          "name": "",
          "type": "address"
        }
      ],
      "stateMutability": "view",
      "type": "function"
    },
    {
      "inputs": [
        {
          "internalType": "address",
          "name": "_rootManager",
          "type": "address"
        }
      ],
      "name": "setRootManager",
      "outputs": [],
      "stateMutability": "nonpayable",
      "type": "function"
    },
    {
      "inputs": [],
      "name": "withdraw",
      "outputs": [],
      "stateMutability": "nonpayable",
      "type": "function"
    },
    {
      "stateMutability": "payable",
      "type": "receive"
    }
  ],
  "transactionHash": "0xbd5b4e2f66fde96f34f8b7d49bb5a79b3f83da46d22a337ab5ad73ef5765b18e",
  "args": [
    "0x3d18bdcF71325b5EeCa87F41e631E73755Bd25F8"
  ],
  "numDeployments": 1,
  "solcInputHash": "1f467203f3254f7bc6438ece86adb35a",
  "bytecode": "0x608060405234801561001057600080fd5b50604051610ca5380380610ca583398101604081905261002f91610142565b610038336100e3565b6001600160a01b0381166100865760405162461bcd60e51b815260206004820152601160248201527010bd32b937903937b7ba26b0b730b3b2b960791b604482015260640160405180910390fd5b600380546001600160a01b0319166001600160a01b03831690811790915560408051918252600060208301527f3124eaf4f16c6ddd81951200c6d8f65d5800753bef06584bd672c8b22c76b487910160405180910390a150610172565b600080546001600160a01b038381166001600160a01b0319808416821785556002859055600180549091169055604051919092169283917f8be0079c531659141344cd1fd0a4f28419497f9722a3daafe3b4186f6b6457e09190a35050565b60006020828403121561015457600080fd5b81516001600160a01b038116811461016b57600080fd5b9392505050565b610b24806101816000396000f3fe6080604052600436106100ab5760003560e01c8063b1f8100d11610064578063b1f8100d146101a7578063c5b350df146101c7578063d1851c92146101dc578063d232c220146101fa578063db20563514610223578063f0a67eba1461024357600080fd5b80633ccfd60b146100ef5780633cf52ffb14610106578063412e12db1461012a5780636a42b8f81461014a578063715018a6146101605780638da5cb5b1461017557600080fd5b366100ea57604080513481524760208201527f063d07ee72a7483b8e07ca09054bb686775c5c030f945dde3823a5257a0a93eb910160405180910390a1005b600080fd5b3480156100fb57600080fd5b50610104610263565b005b34801561011257600080fd5b506002545b6040519081526020015b60405180910390f35b34801561013657600080fd5b506101046101453660046107cf565b6102f9565b34801561015657600080fd5b5062093a80610117565b34801561016c57600080fd5b506101046103f5565b34801561018157600080fd5b506000546001600160a01b03165b6040516001600160a01b039091168152602001610121565b3480156101b357600080fd5b506101046101c236600461095e565b6104b4565b3480156101d357600080fd5b5061010461055c565b3480156101e857600080fd5b506001546001600160a01b031661018f565b34801561020657600080fd5b506000546040516001600160a01b03909116158152602001610121565b34801561022f57600080fd5b5060035461018f906001600160a01b031681565b34801561024f57600080fd5b5061010461025e36600461095e565b6105b7565b6000546001600160a01b0316331461028e576040516311a8a1bb60e31b815260040160405180910390fd5b6040514790339082156108fc029083906000818181858888f193505050501580156102bd573d6000803e3d6000fd5b50604080518281524760208201527f9826a73d0fd7186bda6a15195ac17571869cab151bfe9a8fed3f9407fffe5b18910160405180910390a150565b600084815b818163ffffffff1610156103405785858263ffffffff1681811061032457610324610980565b905060200201358361033691906109ac565b92506001016102fe565b5060035460405163412e12db60e01b81526001600160a01b039091169063412e12db90849061037b908b908b908b908b908b90600401610a47565b6000604051808303818588803b15801561039457600080fd5b505af11580156103a8573d6000803e3d6000fd5b5050604080518681524760208201527f9826a73d0fd7186bda6a15195ac17571869cab151bfe9a8fed3f9407fffe5b1894500191506103e49050565b60405180910390a150505050505050565b6000546001600160a01b03163314610420576040516311a8a1bb60e31b815260040160405180910390fd5b60025460000361044357604051630e4b303f60e21b815260040160405180910390fd5b62093a80600254426104559190610adb565b11610473576040516386d4b3f160e01b815260040160405180910390fd5b6001546001600160a01b03161561049d576040516323295ef960e01b815260040160405180910390fd5b6001546104b2906001600160a01b031661068f565b565b6000546001600160a01b031633146104df576040516311a8a1bb60e31b815260040160405180910390fd5b6001546001600160a01b03828116911614801561050457506001600160a01b03811615155b15610522576040516311bc066560e11b815260040160405180910390fd5b6000546001600160a01b0380831691160361055057604051634a2fb73f60e11b815260040160405180910390fd5b610559816106ee565b50565b6001546001600160a01b03163314610587576040516311a7f27160e11b815260040160405180910390fd5b62093a80600254426105999190610adb565b1161049d5760405163d39c12bb60e01b815260040160405180910390fd5b6000546001600160a01b031633146105e2576040516311a8a1bb60e31b815260040160405180910390fd5b6001600160a01b0381166106305760405162461bcd60e51b815260206004820152601160248201527010bd32b937903937b7ba26b0b730b3b2b960791b604482015260640160405180910390fd5b600380546001600160a01b038381166001600160a01b03198316811790935560408051938452911660208301819052917f3124eaf4f16c6ddd81951200c6d8f65d5800753bef06584bd672c8b22c76b487910160405180910390a15050565b600080546001600160a01b038381166001600160a01b0319808416821785556002859055600180549091169055604051919092169283917f8be0079c531659141344cd1fd0a4f28419497f9722a3daafe3b4186f6b6457e09190a35050565b42600255600180546001600160a01b0319166001600160a01b0383169081179091556040517f6ab4d119f23076e8ad491bc65ce85f017fb0591dce08755ba8591059cc51737a90600090a250565b60008083601f84011261074e57600080fd5b50813567ffffffffffffffff81111561076657600080fd5b6020830191508360208260051b850101111561078157600080fd5b9250929050565b634e487b7160e01b600052604160045260246000fd5b604051601f8201601f1916810167ffffffffffffffff811182821017156107c7576107c7610788565b604052919050565b6000806000806000606086880312156107e757600080fd5b67ffffffffffffffff80873511156107fe57600080fd5b61080b888835890161073c565b909650945060208701358181111561082257600080fd5b61082e89828a0161073c565b90955093505060408701358181111561084657600080fd5b8701601f8101891361085757600080fd5b80358281111561086957610869610788565b61087860208260051b0161079e565b8082825260208201915060208360051b85010192508b83111561089a57600080fd5b602084015b8381101561092f5785813511156108b557600080fd5b803585018d603f8201126108c857600080fd5b6020810135878111156108dd576108dd610788565b6108f0601f8201601f191660200161079e565b8181528f604083850101111561090557600080fd5b8160408401602083013760006020838301015280865250505060208301925060208101905061089f565b5080955050505050509295509295909350565b80356001600160a01b038116811461095957600080fd5b919050565b60006020828403121561097057600080fd5b61097982610942565b9392505050565b634e487b7160e01b600052603260045260246000fd5b634e487b7160e01b600052601160045260246000fd5b808201808211156109bf576109bf610996565b92915050565b6000815180845260208085019450848260051b86018286016000805b86811015610a39578484038a5282518051808652835b81811015610a12578281018901518782018a015288016109f7565b5085810188018490529a87019a601f01601f191690940186019350918501916001016109e1565b509198975050505050505050565b6060808252810185905260008660808301825b88811015610a88576001600160a01b03610a7384610942565b16825260209283019290910190600101610a5a565b5083810360208501528581526001600160fb1b03861115610aa857600080fd5b8560051b9150818760208301370182810360209081016040850152610acf908201856109c5565b98975050505050505050565b818103818111156109bf576109bf61099656fea264697066735822122004ecc894008d8e3a0eba05f02b7f394cc056ccbcd2313604dacf5dc96629c50e64736f6c63430008110033",
  "devdoc": {
    "kind": "dev",
    "methods": {
      "constructor": {
        "params": {
          "_rootManager": "The address of the RootManager on this domain."
        }
      }
    },
    "version": 1
  },
  "userdoc": {
    "kind": "user",
    "methods": {
      "acceptProposedOwner()": {
        "notice": "Transfers ownership of the contract to a new account (`newOwner`). Can only be called by the current owner."
      },
      "constructor": {
        "notice": "Creates a new RootManagerPropagateWrapper instance."
      },
      "delay()": {
        "notice": "Returns the delay period before a new owner can be accepted."
      },
      "owner()": {
        "notice": "Returns the address of the current owner."
      },
      "proposeNewOwner(address)": {
        "notice": "Sets the timestamp for an owner to be proposed, and sets the newly proposed owner as step 1 in a 2-step process"
      },
      "proposed()": {
        "notice": "Returns the address of the proposed owner."
      },
      "proposedTimestamp()": {
        "notice": "Returns the address of the proposed owner."
      },
      "renounceOwnership()": {
        "notice": "Renounces ownership of the contract after a delay"
      },
      "renounced()": {
        "notice": "Indicates if the ownership has been renounced() by checking if current owner is address(0)"
      }
    },
    "version": 1
  },
  "storageLayout": {
    "storage": [
      {
        "astId": 49135,
        "contract": "contracts/messaging/RootManagerPropagateWrapper.sol:RootManagerPropagateWrapper",
        "label": "_owner",
        "offset": 0,
        "slot": "0",
        "type": "t_address"
      },
      {
        "astId": 49137,
        "contract": "contracts/messaging/RootManagerPropagateWrapper.sol:RootManagerPropagateWrapper",
        "label": "_proposed",
        "offset": 0,
        "slot": "1",
        "type": "t_address"
      },
      {
        "astId": 49139,
        "contract": "contracts/messaging/RootManagerPropagateWrapper.sol:RootManagerPropagateWrapper",
        "label": "_proposedOwnershipTimestamp",
        "offset": 0,
        "slot": "2",
        "type": "t_uint256"
      },
      {
        "astId": 37950,
        "contract": "contracts/messaging/RootManagerPropagateWrapper.sol:RootManagerPropagateWrapper",
        "label": "rootManager",
        "offset": 0,
        "slot": "3",
        "type": "t_contract(IRootManager)47041"
      }
    ],
    "types": {
      "t_address": {
        "encoding": "inplace",
        "label": "address",
        "numberOfBytes": "20"
      },
      "t_contract(IRootManager)47041": {
        "encoding": "inplace",
        "label": "contract IRootManager",
        "numberOfBytes": "20"
      },
      "t_uint256": {
        "encoding": "inplace",
        "label": "uint256",
        "numberOfBytes": "32"
      }
    }
  }
}