{
  "address": "0x3d18bdcF71325b5EeCa87F41e631E73755Bd25F8",
  "abi": [
    {
      "inputs": [
        {
          "internalType": "uint256",
          "name": "_delayBlocks",
          "type": "uint256"
        },
        {
          "internalType": "address",
          "name": "_merkle",
          "type": "address"
        },
        {
          "internalType": "address",
          "name": "_watcherManager",
          "type": "address"
        }
      ],
      "stateMutability": "nonpayable",
      "type": "constructor"
    },
    {
      "inputs": [],
      "name": "ProposedOwnable__acceptProposedOwner_delayNotElapsed",
      "type": "error"
    },
    {
      "inputs": [],
      "name": "ProposedOwnable__onlyOwner_notOwner",
      "type": "error"
    },
    {
      "inputs": [],
      "name": "ProposedOwnable__onlyProposed_notProposedOwner",
      "type": "error"
    },
    {
      "inputs": [],
      "name": "ProposedOwnable__proposeNewOwner_invalidProposal",
      "type": "error"
    },
    {
      "inputs": [],
      "name": "ProposedOwnable__proposeNewOwner_noOwnershipChange",
      "type": "error"
    },
    {
      "inputs": [],
      "name": "ProposedOwnable__renounceOwnership_delayNotElapsed",
      "type": "error"
    },
    {
      "inputs": [],
      "name": "ProposedOwnable__renounceOwnership_invalidProposal",
      "type": "error"
    },
    {
      "inputs": [],
      "name": "ProposedOwnable__renounceOwnership_noProposal",
      "type": "error"
    },
    {
      "anonymous": false,
      "inputs": [
        {
          "indexed": false,
          "internalType": "uint32",
          "name": "domain",
          "type": "uint32"
        },
        {
          "indexed": false,
          "internalType": "address",
          "name": "connector",
          "type": "address"
        },
        {
          "indexed": false,
          "internalType": "uint32[]",
          "name": "domains",
          "type": "uint32[]"
        },
        {
          "indexed": false,
          "internalType": "address[]",
          "name": "connectors",
          "type": "address[]"
        }
      ],
      "name": "ConnectorAdded",
      "type": "event"
    },
    {
      "anonymous": false,
      "inputs": [
        {
          "indexed": false,
          "internalType": "uint32",
          "name": "domain",
          "type": "uint32"
        },
        {
          "indexed": false,
          "internalType": "address",
          "name": "connector",
          "type": "address"
        },
        {
          "indexed": false,
          "internalType": "uint32[]",
          "name": "domains",
          "type": "uint32[]"
        },
        {
          "indexed": false,
          "internalType": "address[]",
          "name": "connectors",
          "type": "address[]"
        },
        {
          "indexed": false,
          "internalType": "address",
          "name": "caller",
          "type": "address"
        }
      ],
      "name": "ConnectorRemoved",
      "type": "event"
    },
    {
      "anonymous": false,
      "inputs": [
        {
          "indexed": false,
          "internalType": "uint256",
          "name": "previous",
          "type": "uint256"
        },
        {
          "indexed": false,
          "internalType": "uint256",
          "name": "updated",
          "type": "uint256"
        }
      ],
      "name": "DelayBlocksUpdated",
      "type": "event"
    },
    {
      "anonymous": false,
      "inputs": [
        {
          "indexed": true,
          "internalType": "address",
          "name": "proposedOwner",
          "type": "address"
        }
      ],
      "name": "OwnershipProposed",
      "type": "event"
    },
    {
      "anonymous": false,
      "inputs": [
        {
          "indexed": true,
          "internalType": "address",
          "name": "previousOwner",
          "type": "address"
        },
        {
          "indexed": true,
          "internalType": "address",
          "name": "newOwner",
          "type": "address"
        }
      ],
      "name": "OwnershipTransferred",
      "type": "event"
    },
    {
      "anonymous": false,
      "inputs": [
        {
          "indexed": false,
          "internalType": "address",
          "name": "account",
          "type": "address"
        }
      ],
      "name": "Paused",
      "type": "event"
    },
    {
      "anonymous": false,
      "inputs": [
        {
          "indexed": false,
          "internalType": "bytes32",
          "name": "fraudulentRoot",
          "type": "bytes32"
        }
      ],
      "name": "RootDiscarded",
      "type": "event"
    },
    {
      "anonymous": false,
      "inputs": [
        {
          "indexed": false,
          "internalType": "bytes32",
          "name": "aggregateRoot",
          "type": "bytes32"
        },
        {
          "indexed": false,
          "internalType": "uint256",
          "name": "count",
          "type": "uint256"
        },
        {
          "indexed": false,
          "internalType": "bytes32",
          "name": "domainsHash",
          "type": "bytes32"
        }
      ],
      "name": "RootPropagated",
      "type": "event"
    },
    {
      "anonymous": false,
      "inputs": [
        {
          "indexed": false,
          "internalType": "uint32",
          "name": "domain",
          "type": "uint32"
        },
        {
          "indexed": false,
          "internalType": "bytes32",
          "name": "receivedRoot",
          "type": "bytes32"
        },
        {
          "indexed": false,
          "internalType": "uint256",
          "name": "queueIndex",
          "type": "uint256"
        }
      ],
      "name": "RootReceived",
      "type": "event"
    },
    {
      "anonymous": false,
      "inputs": [
        {
          "indexed": false,
          "internalType": "bytes32",
          "name": "aggregateRoot",
          "type": "bytes32"
        },
        {
          "indexed": false,
          "internalType": "uint256",
          "name": "count",
          "type": "uint256"
        },
        {
          "indexed": false,
          "internalType": "bytes32[]",
          "name": "aggregatedMessageRoots",
          "type": "bytes32[]"
        }
      ],
      "name": "RootsAggregated",
      "type": "event"
    },
    {
      "anonymous": false,
      "inputs": [
        {
          "indexed": false,
          "internalType": "address",
          "name": "account",
          "type": "address"
        }
      ],
      "name": "Unpaused",
      "type": "event"
    },
    {
      "anonymous": false,
      "inputs": [
        {
          "indexed": false,
          "internalType": "address",
          "name": "watcherManager",
          "type": "address"
        }
      ],
      "name": "WatcherManagerChanged",
      "type": "event"
    },
    {
      "inputs": [],
      "name": "DEQUEUE_MAX",
      "outputs": [
        {
          "internalType": "uint128",
          "name": "",
          "type": "uint128"
        }
      ],
      "stateMutability": "view",
      "type": "function"
    },
    {
      "inputs": [],
      "name": "MAX_DOMAINS",
      "outputs": [
        {
          "internalType": "uint256",
          "name": "",
          "type": "uint256"
        }
      ],
      "stateMutability": "view",
      "type": "function"
    },
    {
      "inputs": [],
      "name": "MERKLE",
      "outputs": [
        {
          "internalType": "contract MerkleTreeManager",
          "name": "",
          "type": "address"
        }
      ],
      "stateMutability": "view",
      "type": "function"
    },
    {
      "inputs": [],
      "name": "acceptProposedOwner",
      "outputs": [],
      "stateMutability": "nonpayable",
      "type": "function"
    },
    {
      "inputs": [
        {
          "internalType": "uint32",
          "name": "_domain",
          "type": "uint32"
        },
        {
          "internalType": "address",
          "name": "_connector",
          "type": "address"
        }
      ],
      "name": "addConnector",
      "outputs": [],
      "stateMutability": "nonpayable",
      "type": "function"
    },
    {
      "inputs": [
        {
          "internalType": "uint32",
          "name": "_domain",
          "type": "uint32"
        },
        {
          "internalType": "bytes32",
          "name": "_inbound",
          "type": "bytes32"
        }
      ],
      "name": "aggregate",
      "outputs": [],
      "stateMutability": "nonpayable",
      "type": "function"
    },
    {
      "inputs": [
        {
          "internalType": "uint256",
          "name": "",
          "type": "uint256"
        }
      ],
      "name": "connectors",
      "outputs": [
        {
          "internalType": "address",
          "name": "",
          "type": "address"
        }
      ],
      "stateMutability": "view",
      "type": "function"
    },
    {
      "inputs": [],
      "name": "connectorsHash",
      "outputs": [
        {
          "internalType": "bytes32",
          "name": "",
          "type": "bytes32"
        }
      ],
      "stateMutability": "view",
      "type": "function"
    },
    {
      "inputs": [],
      "name": "delay",
      "outputs": [
        {
          "internalType": "uint256",
          "name": "",
          "type": "uint256"
        }
      ],
      "stateMutability": "view",
      "type": "function"
    },
    {
      "inputs": [],
      "name": "delayBlocks",
      "outputs": [
        {
          "internalType": "uint256",
          "name": "",
          "type": "uint256"
        }
      ],
      "stateMutability": "view",
      "type": "function"
    },
    {
      "inputs": [],
      "name": "dequeue",
      "outputs": [
        {
          "internalType": "bytes32",
          "name": "",
          "type": "bytes32"
        },
        {
          "internalType": "uint256",
          "name": "",
          "type": "uint256"
        }
      ],
      "stateMutability": "nonpayable",
      "type": "function"
    },
    {
      "inputs": [
        {
          "internalType": "bytes32",
          "name": "_root",
          "type": "bytes32"
        }
      ],
      "name": "discardRoot",
      "outputs": [],
      "stateMutability": "nonpayable",
      "type": "function"
    },
    {
      "inputs": [
        {
          "internalType": "uint256",
          "name": "",
          "type": "uint256"
        }
      ],
      "name": "domains",
      "outputs": [
        {
          "internalType": "uint32",
          "name": "",
          "type": "uint32"
        }
      ],
      "stateMutability": "view",
      "type": "function"
    },
    {
      "inputs": [],
      "name": "domainsHash",
      "outputs": [
        {
          "internalType": "bytes32",
          "name": "",
          "type": "bytes32"
        }
      ],
      "stateMutability": "view",
      "type": "function"
    },
    {
      "inputs": [
        {
          "internalType": "uint32",
          "name": "_domain",
          "type": "uint32"
        }
      ],
      "name": "getConnectorForDomain",
      "outputs": [
        {
          "internalType": "address",
          "name": "",
          "type": "address"
        }
      ],
      "stateMutability": "view",
      "type": "function"
    },
    {
      "inputs": [
        {
          "internalType": "uint32",
          "name": "_domain",
          "type": "uint32"
        }
      ],
      "name": "getDomainIndex",
      "outputs": [
        {
          "internalType": "uint256",
          "name": "",
          "type": "uint256"
        }
      ],
      "stateMutability": "view",
      "type": "function"
    },
    {
      "inputs": [],
      "name": "getPendingInboundRootsCount",
      "outputs": [
        {
          "internalType": "uint256",
          "name": "",
          "type": "uint256"
        }
      ],
      "stateMutability": "view",
      "type": "function"
    },
    {
      "inputs": [
        {
          "internalType": "uint32",
          "name": "_domain",
          "type": "uint32"
        }
      ],
      "name": "isDomainSupported",
      "outputs": [
        {
          "internalType": "bool",
          "name": "",
          "type": "bool"
        }
      ],
      "stateMutability": "view",
      "type": "function"
    },
    {
      "inputs": [],
      "name": "owner",
      "outputs": [
        {
          "internalType": "address",
          "name": "",
          "type": "address"
        }
      ],
      "stateMutability": "view",
      "type": "function"
    },
    {
      "inputs": [],
      "name": "pause",
      "outputs": [],
      "stateMutability": "nonpayable",
      "type": "function"
    },
    {
      "inputs": [],
      "name": "paused",
      "outputs": [
        {
          "internalType": "bool",
          "name": "",
          "type": "bool"
        }
      ],
      "stateMutability": "view",
      "type": "function"
    },
    {
      "inputs": [],
      "name": "pendingInboundRoots",
      "outputs": [
        {
          "internalType": "uint128",
          "name": "first",
          "type": "uint128"
        },
        {
          "internalType": "uint128",
          "name": "last",
          "type": "uint128"
        }
      ],
      "stateMutability": "view",
      "type": "function"
    },
    {
      "inputs": [
        {
          "internalType": "address[]",
          "name": "_connectors",
          "type": "address[]"
        },
        {
          "internalType": "uint256[]",
          "name": "_fees",
          "type": "uint256[]"
        },
        {
          "internalType": "bytes[]",
          "name": "_encodedData",
          "type": "bytes[]"
        }
      ],
      "name": "propagate",
      "outputs": [],
      "stateMutability": "payable",
      "type": "function"
    },
    {
      "inputs": [
        {
          "internalType": "address",
          "name": "newlyProposed",
          "type": "address"
        }
      ],
      "name": "proposeNewOwner",
      "outputs": [],
      "stateMutability": "nonpayable",
      "type": "function"
    },
    {
      "inputs": [],
      "name": "proposed",
      "outputs": [
        {
          "internalType": "address",
          "name": "",
          "type": "address"
        }
      ],
      "stateMutability": "view",
      "type": "function"
    },
    {
      "inputs": [],
      "name": "proposedTimestamp",
      "outputs": [
        {
          "internalType": "uint256",
          "name": "",
          "type": "uint256"
        }
      ],
      "stateMutability": "view",
      "type": "function"
    },
    {
      "inputs": [
        {
          "internalType": "uint32",
          "name": "_domain",
          "type": "uint32"
        }
      ],
      "name": "removeConnector",
      "outputs": [],
      "stateMutability": "nonpayable",
      "type": "function"
    },
    {
      "inputs": [],
      "name": "renounceOwnership",
      "outputs": [],
      "stateMutability": "nonpayable",
      "type": "function"
    },
    {
      "inputs": [],
      "name": "renounced",
      "outputs": [
        {
          "internalType": "bool",
          "name": "",
          "type": "bool"
        }
      ],
      "stateMutability": "view",
      "type": "function"
    },
    {
      "inputs": [
        {
          "internalType": "uint256",
          "name": "_delayBlocks",
          "type": "uint256"
        }
      ],
      "name": "setDelayBlocks",
      "outputs": [],
      "stateMutability": "nonpayable",
      "type": "function"
    },
    {
      "inputs": [
        {
          "internalType": "address",
          "name": "_watcherManager",
          "type": "address"
        }
      ],
      "name": "setWatcherManager",
      "outputs": [],
      "stateMutability": "nonpayable",
      "type": "function"
    },
    {
      "inputs": [],
      "name": "unpause",
      "outputs": [],
      "stateMutability": "nonpayable",
      "type": "function"
    },
    {
      "inputs": [
        {
          "internalType": "address[]",
          "name": "_connectors",
          "type": "address[]"
        }
      ],
      "name": "validateConnectors",
      "outputs": [],
      "stateMutability": "view",
      "type": "function"
    },
    {
      "inputs": [
        {
          "internalType": "uint32[]",
          "name": "_domains",
          "type": "uint32[]"
        },
        {
          "internalType": "address[]",
          "name": "_connectors",
          "type": "address[]"
        }
      ],
      "name": "validateDomains",
      "outputs": [],
      "stateMutability": "view",
      "type": "function"
    },
    {
      "inputs": [],
      "name": "watcherManager",
      "outputs": [
        {
          "internalType": "contract WatcherManager",
          "name": "",
          "type": "address"
        }
      ],
      "stateMutability": "view",
      "type": "function"
    }
  ],
  "transactionHash": "0x0fcd379fdbe480d04edc7c458bd61abe986e5143a89904be2540aa3acd87e969",
  "args": [
    100,
    "0x5f515E2D14781A00cf20271A13E9aCCa2e03f2b7",
    "0xFC85847772C1E3aB4cd8E9ECE1B73cD6A9fc1f17"
  ],
  "numDeployments": 1,
  "solcInputHash": "1f467203f3254f7bc6438ece86adb35a",
  "bytecode": "0x60a06040523480156200001157600080fd5b50604051620029073803806200290783398101604081905262000034916200015d565b600380546001600160a81b0319166101006001600160a01b038416021790556200005e33620000db565b6001600160a01b038216620000a85760405162461bcd60e51b815260206004820152600c60248201526b217a65726f206d65726b6c6560a01b604482015260640160405180910390fd5b6001600160a01b0382166080526009839055620000d2600a6200013a602090811b6200127f17901c565b5050506200019e565b600080546001600160a01b038381166001600160a01b0319808416821785556002859055600180549091169055604051919092169283917f8be0079c531659141344cd1fd0a4f28419497f9722a3daafe3b4186f6b6457e09190a35050565b60019055565b80516001600160a01b03811681146200015857600080fd5b919050565b6000806000606084860312156200017357600080fd5b83519250620001856020850162000140565b9150620001956040850162000140565b90509250925092565b608051612746620001c16000396000818161050b0152610d7801526127466000f3fe6080604052600436106102045760003560e01c80638456cb5911610118578063b1f8100d116100a0578063d1851c921161006f578063d1851c9214610600578063d232c2201461061e578063d2a3cc711461063d578063db0f01691461065d578063e6f1208d1461067d57600080fd5b8063b1f8100d14610595578063b904670f146105b5578063c5b350df146105d5578063c8ef89de146105ea57600080fd5b8063957908d1116100e7578063957908d1146104cf578063a01892a5146104f9578063a792c29b1461052d578063aa0d60a314610552578063ad9c0c2e1461057f57600080fd5b80638456cb59146104675780638da5cb5b1461047c5780638e7d93fa1461049a578063909907cb146104ba57600080fd5b8063412e12db1161019b5780636a42b8f81161016a5780636a42b8f8146103bb578063715018a6146103d15780637bc24d99146103e65780637d434e91146103fc5780637d5343081461041c57600080fd5b8063412e12db14610345578063498c2c2e146103585780635c975abb1461036e57806366cf8fab1461038657600080fd5b806327186c6a116101d757806327186c6a146102cd5780633c4baaf8146102ed5780633cf52ffb1461031b5780633f4ba83a1461033057600080fd5b80630f8ef4ee1461020957806313ede1a11461022b5780631eeaabea1461026857806324ec5d0514610288575b600080fd5b34801561021557600080fd5b50610229610224366004611e19565b61069d565b005b34801561023757600080fd5b5061024b610246366004611e19565b610712565b6040516001600160a01b0390911681526020015b60405180910390f35b34801561027457600080fd5b50610229610283366004611e19565b61073c565b34801561029457600080fd5b506102bd6102a3366004611e4b565b63ffffffff16600090815260086020526040902054151590565b604051901515815260200161025f565b3480156102d957600080fd5b506102296102e8366004611eb2565b6107ee565b3480156102f957600080fd5b5061030d610308366004611e4b565b610859565b60405190815260200161025f565b34801561032757600080fd5b5060025461030d565b34801561033c57600080fd5b506102296108bd565b610229610353366004611f3b565b6108fa565b34801561036457600080fd5b5061030d60075481565b34801561037a57600080fd5b5060035460ff166102bd565b34801561039257600080fd5b506103a66103a1366004611e19565b610aed565b60405163ffffffff909116815260200161025f565b3480156103c757600080fd5b5062093a8061030d565b3480156103dd57600080fd5b50610229610b27565b3480156103f257600080fd5b5061030d60055481565b34801561040857600080fd5b5061024b610417366004611e4b565b610b52565b34801561042857600080fd5b50600a54610447906001600160801b0380821691600160801b90041682565b604080516001600160801b0393841681529290911660208301520161025f565b34801561047357600080fd5b50610229610b8a565b34801561048857600080fd5b506000546001600160a01b031661024b565b3480156104a657600080fd5b506102296104b53660046120ae565b610c41565b3480156104c657600080fd5b5061030d610cfc565b3480156104db57600080fd5b506104e4610d0d565b6040805192835260208301919091520161025f565b34801561050557600080fd5b5061024b7f000000000000000000000000000000000000000000000000000000000000000081565b34801561053957600080fd5b5060035461024b9061010090046001600160a01b031681565b34801561055e57600080fd5b50610567606481565b6040516001600160801b03909116815260200161025f565b34801561058b57600080fd5b5061030d60095481565b3480156105a157600080fd5b506102296105b03660046120ef565b610e4d565b3480156105c157600080fd5b506102296105d036600461210a565b610ef5565b3480156105e157600080fd5b50610229610f6d565b3480156105f657600080fd5b5061030d6107d081565b34801561060c57600080fd5b506001546001600160a01b031661024b565b34801561062a57600080fd5b506000546001600160a01b0316156102bd565b34801561064957600080fd5b506102296106583660046120ef565b610fdd565b34801561066957600080fd5b5061022961067836600461213d565b6110c1565b34801561068957600080fd5b50610229610698366004611e4b565b611192565b6000546001600160a01b031633146106c8576040516311a8a1bb60e31b815260040160405180910390fd5b6106d0611285565b6106db600a826112ce565b6040518181527fd2a17a10ab346c94fae909b2fbfa0fedaf30d08983e74dcc0a92be2c40c437f9906020015b60405180910390a150565b6006818154811061072257600080fd5b6000918252602090912001546001600160a01b0316905081565b6000546001600160a01b03163314610767576040516311a8a1bb60e31b815260040160405180910390fd5b60095481036107ac5760405162461bcd60e51b815260206004820152600c60248201526b2164656c6179426c6f636b7360a01b60448201526064015b60405180910390fd5b6009546040805183815260208101929092527fef322fd61cb3d8514326f0b28140a92a29cd10996ad80d0671e43d2483464c1d910160405180910390a1600955565b60075482826040516020016108049291906121a9565b60405160208183030381529060405280519060200120146108555760405162461bcd60e51b815260206004820152600b60248201526a21636f6e6e6563746f727360a81b60448201526064016107a3565b5050565b63ffffffff81166000908152600860205260408120548082036108ab5760405162461bcd60e51b815260206004820152600a602482015269085cdd5c1c1bdc9d195960b21b60448201526064016107a3565b6108b660018261220b565b9392505050565b6000546001600160a01b031633146108e8576040516311a8a1bb60e31b815260040160405180910390fd5b6108f0611285565b6108f861133f565b565b610902611391565b61090c85856107ee565b83828114801561091c5750808251145b61095a5760405162461bcd60e51b815260206004820152600f60248201526e696e76616c6964206c656e6774687360881b60448201526064016107a3565b600080610965610d0d565b90925090503460005b848163ffffffff161015610a9e5787878263ffffffff168181106109945761099461221e565b90506020020135826109a6919061220b565b915089898263ffffffff168181106109c0576109c061221e565b90506020020160208101906109d591906120ef565b6001600160a01b03166348e6fa2389898463ffffffff168181106109fb576109fb61221e565b9050602002013586604051602001610a1591815260200190565b604051602081830303815290604052898563ffffffff1681518110610a3c57610a3c61221e565b60200260200101516040518463ffffffff1660e01b8152600401610a6192919061227a565b6000604051808303818588803b158015610a7a57600080fd5b505af1158015610a8e573d6000803e3d6000fd5b505050505080600101905061096e565b50600554604080518581526020810185905280820192909252517f3fcedb4669de80ca7de6e18b7b25cc8e4f6861796f1db0f2409fcdf0d6901f569181900360600190a1505050505050505050565b60048181548110610afd57600080fd5b9060005260206000209060089182820401919006600402915054906101000a900463ffffffff1681565b6000546001600160a01b031633146108f8576040516311a8a1bb60e31b815260040160405180910390fd5b60006006610b5f83610859565b81548110610b6f57610b6f61221e565b6000918252602090912001546001600160a01b031692915050565b6003546040516384785ecd60e01b81523360048201526101009091046001600160a01b0316906384785ecd90602401602060405180830381865afa158015610bd6573d6000803e3d6000fd5b505050506040513d601f19601f82011682018060405250810190610bfa91906122a8565b610c315760405162461bcd60e51b815260206004820152600860248201526710bbb0ba31b432b960c11b60448201526064016107a3565b610c39611391565b6108f86113d7565b610c49611391565b8133610c5482610b52565b6001600160a01b031614610c975760405162461bcd60e51b815260206004820152600a60248201526910b1b7b73732b1ba37b960b11b60448201526064016107a3565b6000610ca4600a84611414565b6040805163ffffffff87168152602081018690526001600160801b0383168183015290519192507f1daad24ee1bf0bcc72ab681d29df86ec2794361b223da31f148b9f826cd135a8919081900360600190a150505050565b6000610d08600a611486565b905090565b600080610d18611391565b600954600090610d2c90600a9060646114b0565b90508051600003610d735760405162461bcd60e51b81526020600482015260116024820152706e6f20766572696669656420726f6f747360781b60448201526064016107a3565b6000807f00000000000000000000000000000000000000000000000000000000000000006001600160a01b03166334a55ee6846040518263ffffffff1660e01b8152600401610dc29190612305565b60408051808303816000875af1158015610de0573d6000803e3d6000fd5b505050506040513d601f19601f82011682018060405250810190610e049190612318565b915091507f41b13c36968d02a1fd71e0f5db55ba2fb043c215a4d1e17633293ff273a77cd4828285604051610e3b9392919061233c565b60405180910390a19093509150509091565b6000546001600160a01b03163314610e78576040516311a8a1bb60e31b815260040160405180910390fd5b6001546001600160a01b038281169116148015610e9d57506001600160a01b03811615155b15610ebb576040516311bc066560e11b815260040160405180910390fd5b6000546001600160a01b03808316911603610ee957604051634a2fb73f60e11b815260040160405180910390fd5b610ef281611850565b50565b6000546001600160a01b03163314610f20576040516311a8a1bb60e31b815260040160405180910390fd5b610f2a828261189e565b7f95ef69787290b89c35a092c89db1b283b43724d01263e683cfb560c758cdbe70828260046006604051610f619493929190612521565b60405180910390a15050565b6001546001600160a01b03163314610f98576040516311a7f27160e11b815260040160405180910390fd5b62093a8060025442610faa919061220b565b11610fc85760405163d39c12bb60e01b815260040160405180910390fd5b6001546108f8906001600160a01b0316611a3c565b6000546001600160a01b03163314611008576040516311a8a1bb60e31b815260040160405180910390fd5b6003546001600160a01b0361010090910481169082160361106b5760405162461bcd60e51b815260206004820152601760248201527f616c72656164792077617463686572206d616e6167657200000000000000000060448201526064016107a3565b60038054610100600160a81b0319166101006001600160a01b038416908102919091179091556040519081527fc16d059e43d7f8e29ccb4e001a2f249d3c59e274925d6a6bc3912943441d9f6c90602001610707565b60055484846040516020016110d792919061256e565b60405160208183030381529060405280519060200120146111255760405162461bcd60e51b815260206004820152600860248201526721646f6d61696e7360c01b60448201526064016107a3565b600754828260405160200161113b9291906121a9565b604051602081830303815290604052805190602001201461118c5760405162461bcd60e51b815260206004820152600b60248201526a21636f6e6e6563746f727360a81b60448201526064016107a3565b50505050565b6003546040516384785ecd60e01b81523360048201526101009091046001600160a01b0316906384785ecd90602401602060405180830381865afa1580156111de573d6000803e3d6000fd5b505050506040513d601f19601f8201168201806040525081019061120291906122a8565b6112395760405162461bcd60e51b815260206004820152600860248201526710bbb0ba31b432b960c11b60448201526064016107a3565b600061124482611a9b565b90507f6a1097f391a37dc63e0860e64ec34442971eeed2fda4d1a90141fa9ce25eb7eb82826004600633604051610f619594939291906125ac565b60019055565b60035460ff166108f85760405162461bcd60e51b815260206004820152601460248201527314185d5cd8589b194e881b9bdd081c185d5cd95960621b60448201526064016107a3565b600081815260038301602052604090205460ff16156113215760405162461bcd60e51b815260206004820152600f60248201526e185b1c9958591e481c995b5bdd9959608a1b60448201526064016107a3565b6000908152600390910160205260409020805460ff19166001179055565b611347611285565b6003805460ff191690557f5db9ee0a495bf2e6ff9c91a7834c1ba4fdd244a5e8aa4e537bd38aeae4b073aa335b6040516001600160a01b03909116815260200160405180910390a1565b60035460ff16156108f85760405162461bcd60e51b815260206004820152601060248201526f14185d5cd8589b194e881c185d5cd95960821b60448201526064016107a3565b6113df611391565b6003805460ff191660011790557f62e78cea01bee320cd4e420270b5ea74000d11b0c9f74754ebdbfc544b05a2586113743390565b81546000904390849060109061143990600160801b90046001600160801b0316612602565b82546001600160801b038083166101009490940a84810291021990911617909255600090815260018601602090815260408083209690965560029096019095529290932092909255919050565b80546000906001600160801b03600160801b8204811691166114a88282611cb7565b949350505050565b82546060906001600160801b0380821691600160801b900416818110156115075760405162461bcd60e51b815260206004820152600b60248201526a717565756520656d70747960a81b60448201526064016107a3565b816001600160801b03166000036115505760405162461bcd60e51b815260206004820152600d60248201526c1c5d595d5948085a5b9a5d09d9609a1b60448201526064016107a3565b6000846001600160801b03161161159b5760405162461bcd60e51b815260206004820152600f60248201526e042c2c6c6cae0e8c2c4d8ca40dac2f608b1b60448201526064016107a3565b600060016115a98685612628565b6115b3919061264f565b9050806001600160801b0316826001600160801b031611156115d3578091505b5060006115e0864361220b565b905060005b826001600160801b0316846001600160801b031611611637576001600160801b038316600090815260028901602052604090205482811161162a576001915050611637565b50600019909201916115e5565b8061165757505060408051600081526020810190915292506108b6915050565b600084611665856001612628565b61166f919061264f565b6001600160801b031667ffffffffffffffff81111561169057611690611ef4565b6040519080825280602002602001820160405280156116b9578160200160208202803683370190505b5090506000805b856001600160801b0316876001600160801b031611611775576001600160801b038716600090815260018c01602090815260408083205480845260038f019092529091205460ff16611736578084848151811061171f5761171f61221e565b60200260200101818152505082600101925061173d565b8160010191505b506001600160801b038716600090815260018c81016020908152604080842084905560028f01909152822091909155909601956116c0565b8a546fffffffffffffffffffffffffffffffff19166001600160801b038816178b5560008190036117af57829750505050505050506108b6565b60008267ffffffffffffffff8111156117ca576117ca611ef4565b6040519080825280602002602001820160405280156117f3578160200160208202803683370190505b50905060005b83811015611840578481815181106118135761181361221e565b602002602001015182828151811061182d5761182d61221e565b60209081029190910101526001016117f9565b5097506108b69650505050505050565b42600255600180546001600160a01b0319166001600160a01b0383169081179091556040517f6ab4d119f23076e8ad491bc65ce85f017fb0591dce08755ba8591059cc51737a90600090a250565b63ffffffff8216600090815260086020526040902054156118ea5760405162461bcd60e51b815260206004820152600660248201526565786973747360d01b60448201526064016107a3565b6001600160a01b03811661192d5760405162461bcd60e51b815260206004820152600a60248201526910b1b7b73732b1ba37b960b11b60448201526064016107a3565b6004546107d0116119805760405162461bcd60e51b815260206004820152601960248201527f446f6d61696e496e64657865722061742063617061636974790000000000000060448201526064016107a3565b600480546001818101835560088083047f8a35acfbc15ff81a39ae7d344fd709f28e8600b4aa8c65c6b64bfe7fe36bd19b01805463ffffffff808916600790961687026101000a8681029102199091161790556006805492830190557ff652222313e28459528d920b65115c16c04f3efc82aaedc97be59f3f377c0d3f90910180546001600160a01b0386166001600160a01b03199091161790559154600091825260209290925260409020819055611a37611ce1565b505050565b600080546001600160a01b038381166001600160a01b0319808416821785556002859055600180549091169055604051919092169283917f8be0079c531659141344cd1fd0a4f28419497f9722a3daafe3b4186f6b6457e09190a35050565b600080611aa783610859565b9050600060068281548110611abe57611abe61221e565b6000918252602090912001546001600160a01b0316905080611b165760405162461bcd60e51b8152602060048201526011602482015270636f6e6e6563746f72202165786973747360781b60448201526064016107a3565b600454600090611b289060019061220b565b905080831015611c1f5760048181548110611b4557611b4561221e565b90600052602060002090600891828204019190066004029054906101000a900463ffffffff1660048481548110611b7e57611b7e61221e565b90600052602060002090600891828204019190066004026101000a81548163ffffffff021916908363ffffffff16021790555060068181548110611bc457611bc461221e565b600091825260209091200154600680546001600160a01b039092169185908110611bf057611bf061221e565b9060005260206000200160006101000a8154816001600160a01b0302191690836001600160a01b031602179055505b6004805480611c3057611c3061266f565b600082815260209020600860001990920191820401805463ffffffff600460078516026101000a021916905590556006805480611c6f57611c6f61266f565b60008281526020808220830160001990810180546001600160a01b031916905590920190925563ffffffff87168252600890526040812055611caf611ce1565b509392505050565b600081611cc5846001612628565b611ccf919061264f565b6001600160801b031690505b92915050565b60006004805480602002602001604051908101604052809291908181526020018280548015611d5b57602002820191906000526020600020906000905b82829054906101000a900463ffffffff1663ffffffff1681526020019060040190602082600301049283019260010382029150808411611d1e5790505b5050505050905060006006805480602002602001604051908101604052809291908181526020018280548015611dba57602002820191906000526020600020905b81546001600160a01b03168152600190910190602001808311611d9c575b5050505050905081604051602001611dd29190612685565b60408051601f19818403018152908290528051602091820120600555611dfa918391016126cf565b60408051601f1981840301815291905280516020909101206007555050565b600060208284031215611e2b57600080fd5b5035919050565b803563ffffffff81168114611e4657600080fd5b919050565b600060208284031215611e5d57600080fd5b6108b682611e32565b60008083601f840112611e7857600080fd5b50813567ffffffffffffffff811115611e9057600080fd5b6020830191508360208260051b8501011115611eab57600080fd5b9250929050565b60008060208385031215611ec557600080fd5b823567ffffffffffffffff811115611edc57600080fd5b611ee885828601611e66565b90969095509350505050565b634e487b7160e01b600052604160045260246000fd5b604051601f8201601f1916810167ffffffffffffffff81118282101715611f3357611f33611ef4565b604052919050565b600080600080600060608688031215611f5357600080fd5b67ffffffffffffffff8087351115611f6a57600080fd5b611f778888358901611e66565b9096509450602087013581811115611f8e57600080fd5b611f9a89828a01611e66565b909550935050604087013581811115611fb257600080fd5b8701601f81018913611fc357600080fd5b803582811115611fd557611fd5611ef4565b611fe460208260051b01611f0a565b8082825260208201915060208360051b85010192508b83111561200657600080fd5b602084015b8381101561209b57858135111561202157600080fd5b803585018d603f82011261203457600080fd5b60208101358781111561204957612049611ef4565b61205c601f8201601f1916602001611f0a565b8181528f604083850101111561207157600080fd5b8160408401602083013760006020838301015280865250505060208301925060208101905061200b565b5080955050505050509295509295909350565b600080604083850312156120c157600080fd5b6120ca83611e32565b946020939093013593505050565b80356001600160a01b0381168114611e4657600080fd5b60006020828403121561210157600080fd5b6108b6826120d8565b6000806040838503121561211d57600080fd5b61212683611e32565b9150612134602084016120d8565b90509250929050565b6000806000806040858703121561215357600080fd5b843567ffffffffffffffff8082111561216b57600080fd5b61217788838901611e66565b9096509450602087013591508082111561219057600080fd5b5061219d87828801611e66565b95989497509550505050565b60208082528181018390526000908460408401835b868110156121ea576001600160a01b036121d7846120d8565b16825291830191908301906001016121be565b509695505050505050565b634e487b7160e01b600052601160045260246000fd5b81810381811115611cdb57611cdb6121f5565b634e487b7160e01b600052603260045260246000fd5b6000815180845260005b8181101561225a5760208185018101518683018201520161223e565b506000602082860101526020601f19601f83011685010191505092915050565b60408152600061228d6040830185612234565b828103602084015261229f8185612234565b95945050505050565b6000602082840312156122ba57600080fd5b815180151581146108b657600080fd5b600081518084526020808501945080840160005b838110156122fa578151875295820195908201906001016122de565b509495945050505050565b6020815260006108b660208301846122ca565b6000806040838503121561232b57600080fd5b505080516020909101519092909150565b83815282602082015260606040820152600061229f60608301846122ca565b805480835260008281526020808220940193909190825b826007820110156123ea57815463ffffffff8082168852602082811c821690890152604082811c821690890152606082811c821690890152608082811c82169089015260a082811c82169089015260c082811c9091169088015260e090811c9087015261010090950194600190910190600801612372565b905490828110156124085763ffffffff821686526020909501946001015b8281101561242857602082901c63ffffffff168652602095909501946001015b828110156124475763ffffffff604083901c1686526020909501946001015b828110156124665763ffffffff606083901c1686526020909501946001015b828110156124855763ffffffff608083901c1686526020909501946001015b828110156124a45763ffffffff60a083901c1686526020909501946001015b828110156124c35763ffffffff60c083901c1686526020909501946001015b828110156124d95760e082901c86526020860195505b5093949350505050565b6000815480845260208085019450836000528060002060005b838110156122fa5781546001600160a01b0316875295820195600191820191016124fc565b63ffffffff851681526001600160a01b03841660208201526080604082018190526000906125519083018561235b565b828103606084015261256381856124e3565b979650505050505050565b60208082528181018390526000908460408401835b868110156121ea5763ffffffff61259984611e32565b1682529183019190830190600101612583565b63ffffffff86168152600060018060a01b03808716602084015260a060408401526125da60a084018761235b565b83810360608501526125ec81876124e3565b9250508084166080840152509695505050505050565b60006001600160801b0380831681810361261e5761261e6121f5565b6001019392505050565b6001600160801b03818116838216019080821115612648576126486121f5565b5092915050565b6001600160801b03828116828216039080821115612648576126486121f5565b634e487b7160e01b600052603160045260246000fd5b6020808252825182820181905260009190848201906040850190845b818110156126c357835163ffffffff16835292840192918401916001016126a1565b50909695505050505050565b6020808252825182820181905260009190848201906040850190845b818110156126c35783516001600160a01b0316835292840192918401916001016126eb56fea26469706673582212205fc978b9372cd06ddc0b14667d8a5526c91e03ea02be1cc0b13868f9bb8f16a864736f6c63430008110033",
  "devdoc": {
    "kind": "dev",
    "methods": {
      "addConnector(uint32,address)": {
        "details": "Only owner can add a new connector. Address should be the connector on L1.Cannot add address(0) to avoid duplicated domain in array and reduce gas fee while propagating.",
        "params": {
          "_connector": "Address of the hub connector.",
          "_domain": "The target spoke domain of the given connector."
        }
      },
      "aggregate(uint32,bytes32)": {
        "details": "The aggregate tree's root, which will include this inbound root, will be propagated to all spoke domains (via `propagate`) on a regular basis assuming the verification period is surpassed without dispute.",
        "params": {
          "_domain": "The source domain of the given root.",
          "_inbound": "The inbound root coming from the given domain."
        }
      },
      "constructor": {
        "params": {
          "_delayBlocks": "The delay for the validation period for incoming messages in blocks.",
          "_merkle": "The address of the MerkleTreeManager on this domain.",
          "_watcherManager": "The address of the WatcherManager on this domain."
        }
      },
      "dequeue()": {
        "details": "Will dequeue a fixed maximum amount of roots to prevent out of gas errors. As such, this method is public and separate from `propagate` so we can curtail an overloaded queue as needed.Reverts if no verified inbound roots are found.",
        "returns": {
          "_0": "bytes32 The new aggregate root.",
          "_1": "uint256 The updated count (number of leaves)."
        }
      },
      "discardRoot(bytes32)": {
        "details": "The given root does NOT have to currently be in the queue. It isn't removed from the queue directly, but instead is filtered out when dequeuing is done for the sake of aggregation.Can only be called by the owner when the protocol is paused.",
        "params": {
          "_root": "The root to be discarded."
        }
      },
      "getConnectorForDomain(uint32)": {
        "details": "Inefficient, should only be used by caller if they have no index reference.",
        "params": {
          "_domain": "The domain for which to get the hub connector address."
        }
      },
      "getDomainIndex(uint32)": {
        "details": "Reverts if domain is not supported.",
        "params": {
          "_domain": "The domain for which to get the index value."
        }
      },
      "isDomainSupported(uint32)": {
        "params": {
          "_domain": "Domain to check."
        }
      },
      "paused()": {
        "details": "Returns true if the contract is paused, and false otherwise."
      },
      "propagate(address[],uint256[],bytes[])": {
        "details": "Should be called by relayers at a regular interval.",
        "params": {
          "_connectors": "Array of connectors: should match exactly the array of `connectors` in storage; used here to reduce gas costs, and keep them static regardless of number of supported domains.",
          "_encodedData": "Array of encodedData: extra params for each AMB if required",
          "_fees": "Array of fees in native token for an AMB if required"
        }
      },
      "removeConnector(uint32)": {
        "details": "Only watcher can remove a connector. TODO: Could add a metatx-able `removeConnectorWithSig` if we want to use relayers?",
        "params": {
          "_domain": "The spoke domain of the target connector we want to remove."
        }
      },
      "renounceOwnership()": {
        "details": "Renounce ownership should be impossible as long as watchers can freely remove connectors and only the owner can add them back"
      },
      "validateConnectors(address[])": {
        "details": "Reverts if domains or connectors do not match, including ordering.",
        "params": {
          "_connectors": "The given connectors array to check."
        }
      },
      "validateDomains(uint32[],address[])": {
        "details": "Reverts if domains or connectors do not match, including ordering.",
        "params": {
          "_connectors": "The given connectors array to check.",
          "_domains": "The given domains array to check."
        }
      }
    },
    "stateVariables": {
      "pendingInboundRoots": {
        "details": "Watchers should be able to watch this queue for fraudulent messages and pause this contract if fraud is detected."
      }
    },
    "version": 1
  },
  "userdoc": {
    "events": {
      "WatcherManagerChanged(address)": {
        "notice": "Emitted when the manager address changes"
      }
    },
    "kind": "user",
    "methods": {
      "DEQUEUE_MAX()": {
        "notice": "Maximum number of values to dequeue from the queue in one sitting (one call of `propagate` or `dequeue`). Used to cap gas requirements."
      },
      "MAX_DOMAINS()": {
        "notice": "The absolute maximum number of domains that we should support. Domain and connector arrays are naturally unbounded, but the gas cost of reading these arrays in `updateHashes()` is bounded by the block's gas limit. If we want to set a hard ceiling for gas costs for the `updateHashes()` method at approx. 2M gas, with an average SLOAD cost of 900 gas per domain (1 uint32, 1 address):       2M / 900 = ~2222 domains Realistically, the cap on the number of domains will likely exist in other places, but we cap it here as a last resort."
      },
      "MERKLE()": {
        "notice": "MerkleTreeManager contract instance. Will hold the active tree of aggregated inbound roots. The root of this tree will be distributed crosschain to all spoke domains."
      },
      "acceptProposedOwner()": {
        "notice": "Transfers ownership of the contract to a new account (`newOwner`). Can only be called by the current owner."
      },
      "addConnector(uint32,address)": {
        "notice": "Add a new supported domain and corresponding hub connector to the system. This new domain will receive the propagated aggregate root."
      },
      "aggregate(uint32,bytes32)": {
        "notice": "Accept an inbound root coming from a given domain's hub connector, enqueuing this incoming root into the current queue as it awaits the verification period."
      },
      "connectors(uint256)": {
        "notice": "Tracks the addresses of the hub connector contracts corresponding to subscribed spoke domains. The index of any given connector in this array should match the index of that connector's target spoke domain in the `domains` array above."
      },
      "connectorsHash()": {
        "notice": "A \"quick reference\" hash used in the `propagate` method below to validate that the provided array of connectors matches the one we have in storage."
      },
      "constructor": {
        "notice": "Creates a new RootManager instance."
      },
      "delay()": {
        "notice": "Returns the delay period before a new owner can be accepted."
      },
      "delayBlocks()": {
        "notice": "Number of blocks to delay the processing of a message to allow for watchers to verify the validity and pause if necessary."
      },
      "dequeue()": {
        "notice": "Dequeue verified inbound roots and insert them into the aggregator tree."
      },
      "discardRoot(bytes32)": {
        "notice": "Removes (effectively blacklists) a given (fraudulent) root from the queue of pending inbound roots."
      },
      "domains(uint256)": {
        "notice": "Domains array tracks currently subscribed domains to this hub aggregator. We should distribute the aggregate root to all of these domains in the `propagate` method."
      },
      "domainsHash()": {
        "notice": "A \"quick reference\" hash used in the `propagate` method below to validate that the provided array of domains matches the one we have in storage."
      },
      "getConnectorForDomain(uint32)": {
        "notice": "Gets the corresponding hub connector address for a given spoke domain."
      },
      "getDomainIndex(uint32)": {
        "notice": "Gets the index of a given domain in the domains and connectors arrays."
      },
      "isDomainSupported(uint32)": {
        "notice": "Convenience shortcut for supported domains. Used to sanity check adding new domains."
      },
      "owner()": {
        "notice": "Returns the address of the current owner."
      },
      "pause()": {
        "notice": "Watchers can pause contracts if fraud is detected"
      },
      "pendingInboundRoots()": {
        "notice": "Queue used for management of verification for inbound roots from spoke chains. Once the verification period elapses, the inbound messages can be aggregated into the merkle tree for propagation to spoke chains."
      },
      "propagate(address[],uint256[],bytes[])": {
        "notice": "This is called by relayers to take the current aggregate tree root and propagate it to all spoke domains (via their respective hub connectors)."
      },
      "proposeNewOwner(address)": {
        "notice": "Sets the timestamp for an owner to be proposed, and sets the newly proposed owner as step 1 in a 2-step process"
      },
      "proposed()": {
        "notice": "Returns the address of the proposed owner."
      },
      "proposedTimestamp()": {
        "notice": "Returns the address of the proposed owner."
      },
      "removeConnector(uint32)": {
        "notice": "Remove support for a connector and respective domain. That connector/domain will no longer receive updates for the latest aggregate root."
      },
      "renounceOwnership()": {
        "notice": "Remove ability to renounce ownership"
      },
      "renounced()": {
        "notice": "Indicates if the ownership has been renounced() by checking if current owner is address(0)"
      },
      "setDelayBlocks(uint256)": {
        "notice": "Set the `delayBlocks`, the period in blocks over which an incoming message is verified."
      },
      "setWatcherManager(address)": {
        "notice": "Owner can enroll a watcher (abilities are defined by inheriting contracts)"
      },
      "unpause()": {
        "notice": "Owner can unpause contracts if fraud is detected by watchers"
      },
      "validateConnectors(address[])": {
        "notice": "Validate given connectors array is correct (i.e. it mirrors what is currently saved in storage)."
      },
      "validateDomains(uint32[],address[])": {
        "notice": "Validate given domains and connectors arrays are correct (i.e. they mirror what is currently saved in storage)."
      },
      "watcherManager()": {
        "notice": "The `WatcherManager` contract governs the watcher whitelist."
      }
    },
    "notice": "This contract exists at cluster hubs, and aggregates all transfer roots from messaging spokes into a single merkle tree. Regularly broadcasts the root of the aggregator tree back out to all the messaging spokes.",
    "version": 1
  },
  "storageLayout": {
    "storage": [
      {
        "astId": 49135,
        "contract": "contracts/messaging/RootManager.sol:RootManager",
        "label": "_owner",
        "offset": 0,
        "slot": "0",
        "type": "t_address"
      },
      {
        "astId": 49137,
        "contract": "contracts/messaging/RootManager.sol:RootManager",
        "label": "_proposed",
        "offset": 0,
        "slot": "1",
        "type": "t_address"
      },
      {
        "astId": 49139,
        "contract": "contracts/messaging/RootManager.sol:RootManager",
        "label": "_proposedOwnershipTimestamp",
        "offset": 0,
        "slot": "2",
        "type": "t_uint256"
      },
      {
        "astId": 10818,
        "contract": "contracts/messaging/RootManager.sol:RootManager",
        "label": "_paused",
        "offset": 0,
        "slot": "3",
        "type": "t_bool"
      },
      {
        "astId": 38152,
        "contract": "contracts/messaging/RootManager.sol:RootManager",
        "label": "watcherManager",
        "offset": 1,
        "slot": "3",
        "type": "t_contract(WatcherManager)38334"
      },
      {
        "astId": 47553,
        "contract": "contracts/messaging/RootManager.sol:RootManager",
        "label": "domains",
        "offset": 0,
        "slot": "4",
        "type": "t_array(t_uint32)dyn_storage"
      },
      {
        "astId": 47556,
        "contract": "contracts/messaging/RootManager.sol:RootManager",
        "label": "domainsHash",
        "offset": 0,
        "slot": "5",
        "type": "t_bytes32"
      },
      {
        "astId": 47560,
        "contract": "contracts/messaging/RootManager.sol:RootManager",
        "label": "connectors",
        "offset": 0,
        "slot": "6",
        "type": "t_array(t_address)dyn_storage"
      },
      {
        "astId": 47563,
        "contract": "contracts/messaging/RootManager.sol:RootManager",
        "label": "connectorsHash",
        "offset": 0,
        "slot": "7",
        "type": "t_bytes32"
      },
      {
        "astId": 47568,
        "contract": "contracts/messaging/RootManager.sol:RootManager",
        "label": "domainToIndexPlusOne",
        "offset": 0,
        "slot": "8",
        "type": "t_mapping(t_uint32,t_uint256)"
      },
      {
        "astId": 37568,
        "contract": "contracts/messaging/RootManager.sol:RootManager",
        "label": "delayBlocks",
        "offset": 0,
        "slot": "9",
        "type": "t_uint256"
      },
      {
        "astId": 37572,
        "contract": "contracts/messaging/RootManager.sol:RootManager",
        "label": "pendingInboundRoots",
        "offset": 0,
        "slot": "10",
        "type": "t_struct(Queue)48665_storage"
      }
    ],
    "types": {
      "t_address": {
        "encoding": "inplace",
        "label": "address",
        "numberOfBytes": "20"
      },
      "t_array(t_address)dyn_storage": {
        "base": "t_address",
        "encoding": "dynamic_array",
        "label": "address[]",
        "numberOfBytes": "32"
      },
      "t_array(t_uint32)dyn_storage": {
        "base": "t_uint32",
        "encoding": "dynamic_array",
        "label": "uint32[]",
        "numberOfBytes": "32"
      },
      "t_bool": {
        "encoding": "inplace",
        "label": "bool",
        "numberOfBytes": "1"
      },
      "t_bytes32": {
        "encoding": "inplace",
        "label": "bytes32",
        "numberOfBytes": "32"
      },
      "t_contract(WatcherManager)38334": {
        "encoding": "inplace",
        "label": "contract WatcherManager",
        "numberOfBytes": "20"
      },
      "t_mapping(t_bytes32,t_bool)": {
        "encoding": "mapping",
        "key": "t_bytes32",
        "label": "mapping(bytes32 => bool)",
        "numberOfBytes": "32",
        "value": "t_bool"
      },
      "t_mapping(t_uint256,t_bytes32)": {
        "encoding": "mapping",
        "key": "t_uint256",
        "label": "mapping(uint256 => bytes32)",
        "numberOfBytes": "32",
        "value": "t_bytes32"
      },
      "t_mapping(t_uint256,t_uint256)": {
        "encoding": "mapping",
        "key": "t_uint256",
        "label": "mapping(uint256 => uint256)",
        "numberOfBytes": "32",
        "value": "t_uint256"
      },
      "t_mapping(t_uint32,t_uint256)": {
        "encoding": "mapping",
        "key": "t_uint32",
        "label": "mapping(uint32 => uint256)",
        "numberOfBytes": "32",
        "value": "t_uint256"
      },
      "t_struct(Queue)48665_storage": {
        "encoding": "inplace",
        "label": "struct QueueLib.Queue",
        "members": [
          {
            "astId": 48650,
            "contract": "contracts/messaging/RootManager.sol:RootManager",
            "label": "first",
            "offset": 0,
            "slot": "0",
            "type": "t_uint128"
          },
          {
            "astId": 48652,
            "contract": "contracts/messaging/RootManager.sol:RootManager",
            "label": "last",
            "offset": 16,
            "slot": "0",
            "type": "t_uint128"
          },
          {
            "astId": 48656,
            "contract": "contracts/messaging/RootManager.sol:RootManager",
            "label": "data",
            "offset": 0,
            "slot": "1",
            "type": "t_mapping(t_uint256,t_bytes32)"
          },
          {
            "astId": 48660,
            "contract": "contracts/messaging/RootManager.sol:RootManager",
            "label": "commitBlock",
            "offset": 0,
            "slot": "2",
            "type": "t_mapping(t_uint256,t_uint256)"
          },
          {
            "astId": 48664,
            "contract": "contracts/messaging/RootManager.sol:RootManager",
            "label": "removed",
            "offset": 0,
            "slot": "3",
            "type": "t_mapping(t_bytes32,t_bool)"
          }
        ],
        "numberOfBytes": "128"
      },
      "t_uint128": {
        "encoding": "inplace",
        "label": "uint128",
        "numberOfBytes": "16"
      },
      "t_uint256": {
        "encoding": "inplace",
        "label": "uint256",
        "numberOfBytes": "32"
      },
      "t_uint32": {
        "encoding": "inplace",
        "label": "uint32",
        "numberOfBytes": "4"
      }
    }
  }
}