{
  "address": "0xD864761B8480F57E78060485f442A9A51f1DA0d1",
  "abi": [
    {
      "inputs": [
        {
          "internalType": "uint256",
          "name": "_delayBlocks",
          "type": "uint256"
        },
        {
          "internalType": "address",
          "name": "_merkle",
          "type": "address"
        },
        {
          "internalType": "address",
          "name": "_watcherManager",
          "type": "address"
        }
      ],
      "stateMutability": "nonpayable",
      "type": "constructor"
    },
    {
      "inputs": [],
      "name": "ProposedOwnable__acceptProposedOwner_delayNotElapsed",
      "type": "error"
    },
    {
      "inputs": [],
      "name": "ProposedOwnable__onlyOwner_notOwner",
      "type": "error"
    },
    {
      "inputs": [],
      "name": "ProposedOwnable__onlyProposed_notProposedOwner",
      "type": "error"
    },
    {
      "inputs": [],
      "name": "ProposedOwnable__proposeNewOwner_invalidProposal",
      "type": "error"
    },
    {
      "inputs": [],
      "name": "ProposedOwnable__proposeNewOwner_noOwnershipChange",
      "type": "error"
    },
    {
      "inputs": [],
      "name": "ProposedOwnable__renounceOwnership_delayNotElapsed",
      "type": "error"
    },
    {
      "inputs": [],
      "name": "ProposedOwnable__renounceOwnership_invalidProposal",
      "type": "error"
    },
    {
      "inputs": [],
      "name": "ProposedOwnable__renounceOwnership_noProposal",
      "type": "error"
    },
    {
      "anonymous": false,
      "inputs": [
        {
          "indexed": false,
          "internalType": "uint32",
          "name": "domain",
          "type": "uint32"
        },
        {
          "indexed": false,
          "internalType": "address",
          "name": "connector",
          "type": "address"
        },
        {
          "indexed": false,
          "internalType": "uint32[]",
          "name": "domains",
          "type": "uint32[]"
        },
        {
          "indexed": false,
          "internalType": "address[]",
          "name": "connectors",
          "type": "address[]"
        }
      ],
      "name": "ConnectorAdded",
      "type": "event"
    },
    {
      "anonymous": false,
      "inputs": [
        {
          "indexed": false,
          "internalType": "uint32",
          "name": "domain",
          "type": "uint32"
        },
        {
          "indexed": false,
          "internalType": "address",
          "name": "connector",
          "type": "address"
        },
        {
          "indexed": false,
          "internalType": "uint32[]",
          "name": "domains",
          "type": "uint32[]"
        },
        {
          "indexed": false,
          "internalType": "address[]",
          "name": "connectors",
          "type": "address[]"
        },
        {
          "indexed": false,
          "internalType": "address",
          "name": "caller",
          "type": "address"
        }
      ],
      "name": "ConnectorRemoved",
      "type": "event"
    },
    {
      "anonymous": false,
      "inputs": [
        {
          "indexed": false,
          "internalType": "uint256",
          "name": "previous",
          "type": "uint256"
        },
        {
          "indexed": false,
          "internalType": "uint256",
          "name": "updated",
          "type": "uint256"
        }
      ],
      "name": "DelayBlocksUpdated",
      "type": "event"
    },
    {
      "anonymous": false,
      "inputs": [
        {
          "indexed": true,
          "internalType": "address",
          "name": "proposedOwner",
          "type": "address"
        }
      ],
      "name": "OwnershipProposed",
      "type": "event"
    },
    {
      "anonymous": false,
      "inputs": [
        {
          "indexed": true,
          "internalType": "address",
          "name": "previousOwner",
          "type": "address"
        },
        {
          "indexed": true,
          "internalType": "address",
          "name": "newOwner",
          "type": "address"
        }
      ],
      "name": "OwnershipTransferred",
      "type": "event"
    },
    {
      "anonymous": false,
      "inputs": [
        {
          "indexed": false,
          "internalType": "address",
          "name": "account",
          "type": "address"
        }
      ],
      "name": "Paused",
      "type": "event"
    },
    {
      "anonymous": false,
      "inputs": [
        {
          "indexed": false,
          "internalType": "uint32",
          "name": "domain",
          "type": "uint32"
        },
        {
          "indexed": false,
          "internalType": "bytes32",
          "name": "receivedRoot",
          "type": "bytes32"
        },
        {
          "indexed": false,
          "internalType": "uint256",
          "name": "queueIndex",
          "type": "uint256"
        }
      ],
      "name": "RootAggregated",
      "type": "event"
    },
    {
      "anonymous": false,
      "inputs": [
        {
          "indexed": false,
          "internalType": "bytes32",
          "name": "aggregateRoot",
          "type": "bytes32"
        },
        {
          "indexed": false,
          "internalType": "uint256",
          "name": "count",
          "type": "uint256"
        },
        {
          "indexed": false,
          "internalType": "uint32[]",
          "name": "domains",
          "type": "uint32[]"
        },
        {
          "indexed": false,
          "internalType": "bytes32[]",
          "name": "aggregatedMessageRoots",
          "type": "bytes32[]"
        }
      ],
      "name": "RootPropagated",
      "type": "event"
    },
    {
      "anonymous": false,
      "inputs": [
        {
          "indexed": false,
          "internalType": "address",
          "name": "account",
          "type": "address"
        }
      ],
      "name": "Unpaused",
      "type": "event"
    },
    {
      "anonymous": false,
      "inputs": [
        {
          "indexed": false,
          "internalType": "address",
          "name": "watcherManager",
          "type": "address"
        }
      ],
      "name": "WatcherManagerChanged",
      "type": "event"
    },
    {
      "inputs": [],
      "name": "MERKLE",
      "outputs": [
        {
          "internalType": "contract MerkleTreeManager",
          "name": "",
          "type": "address"
        }
      ],
      "stateMutability": "view",
      "type": "function"
    },
    {
      "inputs": [],
      "name": "acceptProposedOwner",
      "outputs": [],
      "stateMutability": "nonpayable",
      "type": "function"
    },
    {
      "inputs": [
        {
          "internalType": "uint32",
          "name": "_domain",
          "type": "uint32"
        },
        {
          "internalType": "address",
          "name": "_connector",
          "type": "address"
        }
      ],
      "name": "addConnector",
      "outputs": [],
      "stateMutability": "nonpayable",
      "type": "function"
    },
    {
      "inputs": [
        {
          "internalType": "uint32",
          "name": "_domain",
          "type": "uint32"
        },
        {
          "internalType": "bytes32",
          "name": "_inbound",
          "type": "bytes32"
        }
      ],
      "name": "aggregate",
      "outputs": [],
      "stateMutability": "nonpayable",
      "type": "function"
    },
    {
      "inputs": [
        {
          "internalType": "uint256",
          "name": "",
          "type": "uint256"
        }
      ],
      "name": "connectors",
      "outputs": [
        {
          "internalType": "address",
          "name": "",
          "type": "address"
        }
      ],
      "stateMutability": "view",
      "type": "function"
    },
    {
      "inputs": [],
      "name": "connectorsHash",
      "outputs": [
        {
          "internalType": "bytes32",
          "name": "",
          "type": "bytes32"
        }
      ],
      "stateMutability": "view",
      "type": "function"
    },
    {
      "inputs": [],
      "name": "delay",
      "outputs": [
        {
          "internalType": "uint256",
          "name": "",
          "type": "uint256"
        }
      ],
      "stateMutability": "view",
      "type": "function"
    },
    {
      "inputs": [],
      "name": "delayBlocks",
      "outputs": [
        {
          "internalType": "uint256",
          "name": "",
          "type": "uint256"
        }
      ],
      "stateMutability": "view",
      "type": "function"
    },
    {
      "inputs": [
        {
          "internalType": "uint256",
          "name": "",
          "type": "uint256"
        }
      ],
      "name": "domains",
      "outputs": [
        {
          "internalType": "uint32",
          "name": "",
          "type": "uint32"
        }
      ],
      "stateMutability": "view",
      "type": "function"
    },
    {
      "inputs": [],
      "name": "domainsHash",
      "outputs": [
        {
          "internalType": "bytes32",
          "name": "",
          "type": "bytes32"
        }
      ],
      "stateMutability": "view",
      "type": "function"
    },
    {
      "inputs": [
        {
          "internalType": "uint32",
          "name": "_domain",
          "type": "uint32"
        }
      ],
      "name": "getConnectorForDomain",
      "outputs": [
        {
          "internalType": "address",
          "name": "",
          "type": "address"
        }
      ],
      "stateMutability": "view",
      "type": "function"
    },
    {
      "inputs": [
        {
          "internalType": "uint32",
          "name": "_domain",
          "type": "uint32"
        }
      ],
      "name": "getDomainIndex",
      "outputs": [
        {
          "internalType": "uint256",
          "name": "",
          "type": "uint256"
        }
      ],
      "stateMutability": "view",
      "type": "function"
    },
    {
      "inputs": [],
      "name": "getPendingInboundRootsCount",
      "outputs": [
        {
          "internalType": "uint256",
          "name": "",
          "type": "uint256"
        }
      ],
      "stateMutability": "view",
      "type": "function"
    },
    {
      "inputs": [
        {
          "internalType": "uint32",
          "name": "_domain",
          "type": "uint32"
        }
      ],
      "name": "isDomainSupported",
      "outputs": [
        {
          "internalType": "bool",
          "name": "",
          "type": "bool"
        }
      ],
      "stateMutability": "view",
      "type": "function"
    },
    {
      "inputs": [],
      "name": "owner",
      "outputs": [
        {
          "internalType": "address",
          "name": "",
          "type": "address"
        }
      ],
      "stateMutability": "view",
      "type": "function"
    },
    {
      "inputs": [],
      "name": "pause",
      "outputs": [],
      "stateMutability": "nonpayable",
      "type": "function"
    },
    {
      "inputs": [],
      "name": "paused",
      "outputs": [
        {
          "internalType": "bool",
          "name": "",
          "type": "bool"
        }
      ],
      "stateMutability": "view",
      "type": "function"
    },
    {
      "inputs": [],
      "name": "pendingInboundRoots",
      "outputs": [
        {
          "internalType": "uint128",
          "name": "first",
          "type": "uint128"
        },
        {
          "internalType": "uint128",
          "name": "last",
          "type": "uint128"
        }
      ],
      "stateMutability": "view",
      "type": "function"
    },
    {
      "inputs": [
        {
          "internalType": "uint32[]",
          "name": "_domains",
          "type": "uint32[]"
        },
        {
          "internalType": "address[]",
          "name": "_connectors",
          "type": "address[]"
        }
      ],
      "name": "propagate",
      "outputs": [],
      "stateMutability": "nonpayable",
      "type": "function"
    },
    {
      "inputs": [
        {
          "internalType": "address",
          "name": "newlyProposed",
          "type": "address"
        }
      ],
      "name": "proposeNewOwner",
      "outputs": [],
      "stateMutability": "nonpayable",
      "type": "function"
    },
    {
      "inputs": [],
      "name": "proposed",
      "outputs": [
        {
          "internalType": "address",
          "name": "",
          "type": "address"
        }
      ],
      "stateMutability": "view",
      "type": "function"
    },
    {
      "inputs": [],
      "name": "proposedTimestamp",
      "outputs": [
        {
          "internalType": "uint256",
          "name": "",
          "type": "uint256"
        }
      ],
      "stateMutability": "view",
      "type": "function"
    },
    {
      "inputs": [
        {
          "internalType": "uint32",
          "name": "_domain",
          "type": "uint32"
        }
      ],
      "name": "removeConnector",
      "outputs": [],
      "stateMutability": "nonpayable",
      "type": "function"
    },
    {
      "inputs": [],
      "name": "renounceOwnership",
      "outputs": [],
      "stateMutability": "nonpayable",
      "type": "function"
    },
    {
      "inputs": [],
      "name": "renounced",
      "outputs": [
        {
          "internalType": "bool",
          "name": "",
          "type": "bool"
        }
      ],
      "stateMutability": "view",
      "type": "function"
    },
    {
      "inputs": [
        {
          "internalType": "uint256",
          "name": "_delayBlocks",
          "type": "uint256"
        }
      ],
      "name": "setDelayBlocks",
      "outputs": [],
      "stateMutability": "nonpayable",
      "type": "function"
    },
    {
      "inputs": [
        {
          "internalType": "address",
          "name": "_watcherManager",
          "type": "address"
        }
      ],
      "name": "setWatcherManager",
      "outputs": [],
      "stateMutability": "nonpayable",
      "type": "function"
    },
    {
      "inputs": [],
      "name": "unpause",
      "outputs": [],
      "stateMutability": "nonpayable",
      "type": "function"
    },
    {
      "inputs": [
        {
          "internalType": "uint32[]",
          "name": "_domains",
          "type": "uint32[]"
        },
        {
          "internalType": "address[]",
          "name": "_connectors",
          "type": "address[]"
        }
      ],
      "name": "validateDomains",
      "outputs": [],
      "stateMutability": "view",
      "type": "function"
    }
  ],
  "transactionHash": "0x26361845b70eed238444c904a86b13a30059c1f91feab670b77187cc051e949a",
  "args": [
    100,
    "0x223202126ce50556Afd127a5ADfc5a32554B867F",
    "0xce7012894B6b6e74C972D377D68EEca5B6048178"
  ],
  "numDeployments": 1,
  "solcInputHash": "2cb19c6ff260c62b0df6791111e721e0",
  "bytecode": "0x60a06040523480156200001157600080fd5b506040516200210f3803806200210f83398101604081905262000034916200015d565b600380546001600160a81b0319166101006001600160a01b038416021790556200005e33620000db565b6001600160a01b038216620000a85760405162461bcd60e51b815260206004820152600c60248201526b217a65726f206d65726b6c6560a01b604482015260640160405180910390fd5b6001600160a01b0382166080526009839055620000d2600a6200013a602090811b62000eba17901c565b5050506200019e565b600080546001600160a01b038381166001600160a01b0319808416821785556002859055600180549091169055604051919092169283917f8be0079c531659141344cd1fd0a4f28419497f9722a3daafe3b4186f6b6457e09190a35050565b60019055565b80516001600160a01b03811681146200015857600080fd5b919050565b6000806000606084860312156200017357600080fd5b83519250620001856020850162000140565b9150620001956040850162000140565b90509250925092565b608051611f4e620001c16000396000818161037501526106610152611f4e6000f3fe608060405234801561001057600080fd5b50600436106101cf5760003560e01c80637d53430811610104578063b1f8100d116100a2578063d232c22011610071578063d232c220146103df578063d2a3cc71146103f1578063db0f016914610404578063e6f1208d1461041757600080fd5b8063b1f8100d146103a0578063b904670f146103b3578063c5b350df146103c6578063d1851c92146103ce57600080fd5b80638e7d93fa116100de5780638e7d93fa14610355578063909907cb14610368578063a01892a514610370578063ad9c0c2e1461039757600080fd5b80637d534308146102fe5780638456cb591461033c5780638da5cb5b1461034457600080fd5b8063498c2c2e116101715780636a42b8f81161014b5780636a42b8f8146102d1578063715018a6146102da5780637bc24d99146102e25780637d434e91146102eb57600080fd5b8063498c2c2e146102955780635c975abb1461029e57806366cf8fab146102a957600080fd5b80633c4baaf8116101ad5780633c4baaf8146102515780633cf52ffb146102725780633f4ba83a1461027a57806344833ca31461028257600080fd5b806313ede1a1146101d45780631eeaabea1461020457806324ec5d0514610219575b600080fd5b6101e76101e23660046117e8565b61042a565b6040516001600160a01b0390911681526020015b60405180910390f35b6102176102123660046117e8565b610454565b005b61024161022736600461181a565b63ffffffff16600090815260086020526040902054151590565b60405190151581526020016101fb565b61026461025f36600461181a565b610506565b6040519081526020016101fb565b600254610264565b61021761056a565b610217610290366004611881565b6105a7565b61026460075481565b60035460ff16610241565b6102bc6102b73660046117e8565b610802565b60405163ffffffff90911681526020016101fb565b62093a80610264565b61021761083c565b61026460055481565b6101e76102f936600461181a565b6108f9565b600a5461031c906001600160801b0380821691600160801b90041682565b604080516001600160801b039384168152929091166020830152016101fb565b610217610931565b6000546001600160a01b03166101e7565b6102176103633660046118ed565b6109e8565b610264610aa3565b6101e77f000000000000000000000000000000000000000000000000000000000000000081565b61026460095481565b6102176103ae36600461192e565b610ab4565b6102176103c1366004611949565b610b5c565b610217610bd4565b6001546001600160a01b03166101e7565b6000546001600160a01b031615610241565b6102176103ff36600461192e565b610c2f565b610217610412366004611881565b610cfc565b61021761042536600461181a565b610dcd565b6006818154811061043a57600080fd5b6000918252602090912001546001600160a01b0316905081565b6000546001600160a01b0316331461047f576040516311a8a1bb60e31b815260040160405180910390fd5b60095481036104c45760405162461bcd60e51b815260206004820152600c60248201526b2164656c6179426c6f636b7360a01b60448201526064015b60405180910390fd5b6009546040805183815260208101929092527fef322fd61cb3d8514326f0b28140a92a29cd10996ad80d0671e43d2483464c1d910160405180910390a1600955565b63ffffffff81166000908152600860205260408120548082036105585760405162461bcd60e51b815260206004820152600a602482015269085cdd5c1c1bdc9d195960b21b60448201526064016104bb565b610563600182611992565b9392505050565b6000546001600160a01b03163314610595576040516311a8a1bb60e31b815260040160405180910390fd5b61059d610ec0565b6105a5610f09565b565b6105af610f5b565b828181146105f15760405162461bcd60e51b815260206004820152600f60248201526e696e76616c6964206c656e6774687360881b60448201526064016104bb565b6105fd85858585610cfc565b6000610615600954600a610fa190919063ffffffff16565b9050805160000361065c5760405162461bcd60e51b81526020600482015260116024820152706e6f20766572696669656420726f6f747360781b60448201526064016104bb565b6000807f00000000000000000000000000000000000000000000000000000000000000006001600160a01b03166334a55ee6846040518263ffffffff1660e01b81526004016106ab91906119e4565b60408051808303816000875af11580156106c9573d6000803e3d6000fd5b505050506040513d601f19601f820116820180604052508101906106ed91906119f7565b9150915060005b848163ffffffff1610156107b85786868263ffffffff1681811061071a5761071a611a1b565b905060200201602081019061072f919061192e565b6001600160a01b03166382646a588460405160200161075091815260200190565b6040516020818303038152906040526040518263ffffffff1660e01b815260040161077b9190611a31565b600060405180830381600087803b15801561079557600080fd5b505af11580156107a9573d6000803e3d6000fd5b505050508060010190506106f4565b507fb0b3d44baf84014c485fc70c5f229e509a6e6c0f3e5e84916115545b61c820bf82828a8a876040516107f0959493929190611abf565b60405180910390a15050505050505050565b6004818154811061081257600080fd5b9060005260206000209060089182820401919006600402915054906101000a900463ffffffff1681565b6000546001600160a01b03163314610867576040516311a8a1bb60e31b815260040160405180910390fd5b60025460000361088a57604051630e4b303f60e21b815260040160405180910390fd5b62093a806002544261089c9190611992565b116108ba576040516386d4b3f160e01b815260040160405180910390fd5b6001546001600160a01b0316156108e4576040516323295ef960e01b815260040160405180910390fd5b6001546105a5906001600160a01b031661119b565b6000600661090683610506565b8154811061091657610916611a1b565b6000918252602090912001546001600160a01b031692915050565b6003546040516384785ecd60e01b81523360048201526101009091046001600160a01b0316906384785ecd90602401602060405180830381865afa15801561097d573d6000803e3d6000fd5b505050506040513d601f19601f820116820180604052508101906109a19190611afd565b6109d85760405162461bcd60e51b815260206004820152600860248201526710bbb0ba31b432b960c11b60448201526064016104bb565b6109e0610f5b565b6105a56111fa565b6109f0610f5b565b81336109fb826108f9565b6001600160a01b031614610a3e5760405162461bcd60e51b815260206004820152600a60248201526910b1b7b73732b1ba37b960b11b60448201526064016104bb565b6000610a4b600a84611237565b6040805163ffffffff87168152602081018690526001600160801b0383168183015290519192507ff5832b5d15f2d906d01b871e48b0d1f27d8f282a7e0771c428b55bfeb409fa05919081900360600190a150505050565b6000610aaf600a6112a9565b905090565b6000546001600160a01b03163314610adf576040516311a8a1bb60e31b815260040160405180910390fd5b6001546001600160a01b038281169116148015610b0457506001600160a01b03811615155b15610b22576040516311bc066560e11b815260040160405180910390fd5b6000546001600160a01b03808316911603610b5057604051634a2fb73f60e11b815260040160405180910390fd5b610b59816112d3565b50565b6000546001600160a01b03163314610b87576040516311a8a1bb60e31b815260040160405180910390fd5b610b918282611321565b7f95ef69787290b89c35a092c89db1b283b43724d01263e683cfb560c758cdbe70828260046006604051610bc89493929190611ce5565b60405180910390a15050565b6001546001600160a01b03163314610bff576040516311a7f27160e11b815260040160405180910390fd5b62093a8060025442610c119190611992565b116108e45760405163d39c12bb60e01b815260040160405180910390fd5b6000546001600160a01b03163314610c5a576040516311a8a1bb60e31b815260040160405180910390fd5b6003546001600160a01b03610100909104811690821603610cbd5760405162461bcd60e51b815260206004820152601760248201527f616c72656164792077617463686572206d616e6167657200000000000000000060448201526064016104bb565b6040516001600160a01b03821681527fc16d059e43d7f8e29ccb4e001a2f249d3c59e274925d6a6bc3912943441d9f6c9060200160405180910390a150565b6005548484604051602001610d12929190611d32565b6040516020818303038152906040528051906020012014610d605760405162461bcd60e51b815260206004820152600860248201526721646f6d61696e7360c01b60448201526064016104bb565b6007548282604051602001610d76929190611d46565b6040516020818303038152906040528051906020012014610dc75760405162461bcd60e51b815260206004820152600b60248201526a21636f6e6e6563746f727360a81b60448201526064016104bb565b50505050565b6003546040516384785ecd60e01b81523360048201526101009091046001600160a01b0316906384785ecd90602401602060405180830381865afa158015610e19573d6000803e3d6000fd5b505050506040513d601f19601f82011682018060405250810190610e3d9190611afd565b610e745760405162461bcd60e51b815260206004820152600860248201526710bbb0ba31b432b960c11b60448201526064016104bb565b6000610e7f8261146c565b90507f6a1097f391a37dc63e0860e64ec34442971eeed2fda4d1a90141fa9ce25eb7eb82826004600633604051610bc8959493929190611d92565b60019055565b60035460ff166105a55760405162461bcd60e51b815260206004820152601460248201527314185d5cd8589b194e881b9bdd081c185d5cd95960621b60448201526064016104bb565b610f11610ec0565b6003805460ff191690557f5db9ee0a495bf2e6ff9c91a7834c1ba4fdd244a5e8aa4e537bd38aeae4b073aa335b6040516001600160a01b03909116815260200160405180910390a1565b60035460ff16156105a55760405162461bcd60e51b815260206004820152601060248201526f14185d5cd8589b194e881c185d5cd95960821b60448201526064016104bb565b81546060906001600160801b0380821691600160801b90041681811015610ff85760405162461bcd60e51b815260206004820152600b60248201526a717565756520656d70747960a81b60448201526064016104bb565b60005b826001600160801b0316826001600160801b031610611056576001600160801b03821660009081526002870160205260409020548561103a8243611992565b10611049576001915050611056565b5060001990910190610ffb565b8061107557505060408051600081526020810190915291506111959050565b600083611083846001611dfe565b61108d9190611e29565b6001600160801b031667ffffffffffffffff8111156110ae576110ae611de8565b6040519080825280602002602001820160405280156110d7578160200160208202803683370190505b50905060005b836001600160801b0316856001600160801b031611611167576001600160801b0385166000908152600189016020526040902054825183908390811061112557611125611a1b565b6020908102919091018101919091526001600160801b03861660009081526001808b018352604080832083905560028c019093529181205594850194016110dd565b5086546fffffffffffffffffffffffffffffffff19166001600160801b039490941693909317865550909150505b92915050565b600080546001600160a01b038381166001600160a01b0319808416821785556002859055600180549091169055604051919092169283917f8be0079c531659141344cd1fd0a4f28419497f9722a3daafe3b4186f6b6457e09190a35050565b611202610f5b565b6003805460ff191660011790557f62e78cea01bee320cd4e420270b5ea74000d11b0c9f74754ebdbfc544b05a258610f3e3390565b81546000904390849060109061125c90600160801b90046001600160801b0316611e51565b82546001600160801b038083166101009490940a84810291021990911617909255600090815260018601602090815260408083209690965560029096019095529290932092909255919050565b80546000906001600160801b03600160801b8204811691166112cb8282611688565b949350505050565b42600255600180546001600160a01b0319166001600160a01b0383169081179091556040517f6ab4d119f23076e8ad491bc65ce85f017fb0591dce08755ba8591059cc51737a90600090a250565b63ffffffff82166000908152600860205260409020541561136d5760405162461bcd60e51b815260206004820152600660248201526565786973747360d01b60448201526064016104bb565b6001600160a01b0381166113b05760405162461bcd60e51b815260206004820152600a60248201526910b1b7b73732b1ba37b960b11b60448201526064016104bb565b600480546001818101835560088083047f8a35acfbc15ff81a39ae7d344fd709f28e8600b4aa8c65c6b64bfe7fe36bd19b01805463ffffffff808916600790961687026101000a8681029102199091161790556006805492830190557ff652222313e28459528d920b65115c16c04f3efc82aaedc97be59f3f377c0d3f90910180546001600160a01b0386166001600160a01b031990911617905591546000918252602092909252604090208190556114676116b0565b505050565b60008061147883610506565b905060006006828154811061148f5761148f611a1b565b6000918252602090912001546001600160a01b03169050806114e75760405162461bcd60e51b8152602060048201526011602482015270636f6e6e6563746f72202165786973747360781b60448201526064016104bb565b6004546000906114f990600190611992565b9050808310156115f0576004818154811061151657611516611a1b565b90600052602060002090600891828204019190066004029054906101000a900463ffffffff166004848154811061154f5761154f611a1b565b90600052602060002090600891828204019190066004026101000a81548163ffffffff021916908363ffffffff1602179055506006818154811061159557611595611a1b565b600091825260209091200154600680546001600160a01b0390921691859081106115c1576115c1611a1b565b9060005260206000200160006101000a8154816001600160a01b0302191690836001600160a01b031602179055505b600480548061160157611601611e77565b600082815260209020600860001990920191820401805463ffffffff600460078516026101000a02191690559055600680548061164057611640611e77565b60008281526020808220830160001990810180546001600160a01b031916905590920190925563ffffffff871682526008905260408120556116806116b0565b509392505050565b600081611696846001611dfe565b6116a09190611e29565b6001600160801b03169392505050565b6000600480548060200260200160405190810160405280929190818152602001828054801561172a57602002820191906000526020600020906000905b82829054906101000a900463ffffffff1663ffffffff16815260200190600401906020826003010492830192600103820291508084116116ed5790505b505050505090506000600680548060200260200160405190810160405280929190818152602001828054801561178957602002820191906000526020600020905b81546001600160a01b0316815260019091019060200180831161176b575b50505050509050816040516020016117a19190611e8d565b60408051601f198184030181529082905280516020918201206005556117c991839101611ed7565b60408051601f1981840301815291905280516020909101206007555050565b6000602082840312156117fa57600080fd5b5035919050565b803563ffffffff8116811461181557600080fd5b919050565b60006020828403121561182c57600080fd5b61056382611801565b60008083601f84011261184757600080fd5b50813567ffffffffffffffff81111561185f57600080fd5b6020830191508360208260051b850101111561187a57600080fd5b9250929050565b6000806000806040858703121561189757600080fd5b843567ffffffffffffffff808211156118af57600080fd5b6118bb88838901611835565b909650945060208701359150808211156118d457600080fd5b506118e187828801611835565b95989497509550505050565b6000806040838503121561190057600080fd5b61190983611801565b946020939093013593505050565b80356001600160a01b038116811461181557600080fd5b60006020828403121561194057600080fd5b61056382611917565b6000806040838503121561195c57600080fd5b61196583611801565b915061197360208401611917565b90509250929050565b634e487b7160e01b600052601160045260246000fd5b6000828210156119a4576119a461197c565b500390565b600081518084526020808501945080840160005b838110156119d9578151875295820195908201906001016119bd565b509495945050505050565b60208152600061056360208301846119a9565b60008060408385031215611a0a57600080fd5b505080516020909101519092909150565b634e487b7160e01b600052603260045260246000fd5b600060208083528351808285015260005b81811015611a5e57858101830151858201604001528201611a42565b81811115611a70576000604083870101525b50601f01601f1916929092016040019392505050565b8183526000602080850194508260005b858110156119d95763ffffffff611aac83611801565b1687529582019590820190600101611a96565b858152846020820152608060408201526000611adf608083018587611a86565b8281036060840152611af181856119a9565b98975050505050505050565b600060208284031215611b0f57600080fd5b8151801515811461056357600080fd5b805480835260008281526020808220940193909190825b82600782011015611bae57815463ffffffff8082168852602082811c821690890152604082811c821690890152606082811c821690890152608082811c82169089015260a082811c82169089015260c082811c9091169088015260e090811c9087015261010090950194600190910190600801611b36565b90549082811015611bcc5763ffffffff821686526020909501946001015b82811015611bec57602082901c63ffffffff168652602095909501946001015b82811015611c0b5763ffffffff604083901c1686526020909501946001015b82811015611c2a5763ffffffff606083901c1686526020909501946001015b82811015611c495763ffffffff608083901c1686526020909501946001015b82811015611c685763ffffffff60a083901c1686526020909501946001015b82811015611c875763ffffffff60c083901c1686526020909501946001015b82811015611c9d5760e082901c86526020860195505b5093949350505050565b6000815480845260208085019450836000528060002060005b838110156119d95781546001600160a01b031687529582019560019182019101611cc0565b63ffffffff851681526001600160a01b0384166020820152608060408201819052600090611d1590830185611b1f565b8281036060840152611d278185611ca7565b979650505050505050565b6020815260006112cb602083018486611a86565b60208082528181018390526000908460408401835b86811015611d87576001600160a01b03611d7484611917565b1682529183019190830190600101611d5b565b509695505050505050565b63ffffffff86168152600060018060a01b03808716602084015260a06040840152611dc060a0840187611b1f565b8381036060850152611dd28187611ca7565b9250508084166080840152509695505050505050565b634e487b7160e01b600052604160045260246000fd5b60006001600160801b03808316818516808303821115611e2057611e2061197c565b01949350505050565b60006001600160801b0383811690831681811015611e4957611e4961197c565b039392505050565b60006001600160801b03808316818103611e6d57611e6d61197c565b6001019392505050565b634e487b7160e01b600052603160045260246000fd5b6020808252825182820181905260009190848201906040850190845b81811015611ecb57835163ffffffff1683529284019291840191600101611ea9565b50909695505050505050565b6020808252825182820181905260009190848201906040850190845b81811015611ecb5783516001600160a01b031683529284019291840191600101611ef356fea2646970667358221220e9e083edc35970d444f1762ee23db8a611d5a7b9942458b0d278721071feff8064736f6c634300080f0033",
  "devdoc": {
    "kind": "dev",
    "methods": {
      "addConnector(uint32,address)": {
        "details": "Only owner can add a new connector. Address should be the connector on L1.Cannot add address(0) to avoid duplicated domain in array and reduce gas fee while propagating.",
        "params": {
          "_connector": "Address of the hub connector.",
          "_domain": "The target spoke domain of the given connector."
        }
      },
      "aggregate(uint32,bytes32)": {
        "details": "The aggregate tree's root, which will include this inbound root, will be propagated to all spoke domains (via `propagate`) on a regular basis assuming the verification period is surpassed without dispute.",
        "params": {
          "_domain": "The source domain of the given root.",
          "_inbound": "The inbound root coming from the given domain."
        }
      },
      "constructor": {
        "params": {
          "_delayBlocks": "The delay for the validation period for incoming messages in blocks.",
          "_merkle": "The address of the MerkleTreeManager on this domain.",
          "_watcherManager": "The address of the WatcherManager on this domain."
        }
      },
      "getConnectorForDomain(uint32)": {
        "details": "Inefficient, should only be used by caller if they have no index reference.",
        "params": {
          "_domain": "The domain for which to get the hub connector address."
        }
      },
      "getDomainIndex(uint32)": {
        "details": "Reverts if domain is not supported.",
        "params": {
          "_domain": "The domain for which to get the index value."
        }
      },
      "isDomainSupported(uint32)": {
        "params": {
          "_domain": "Domain to check."
        }
      },
      "paused()": {
        "details": "Returns true if the contract is paused, and false otherwise."
      },
      "propagate(uint32[],address[])": {
        "details": "Should be called by relayers at a regular interval.",
        "params": {
          "_connectors": "Array of connectors: should match exactly the array of `connectors` in storage (see `_domains` param's info on reducing gas costs).",
          "_domains": "Array of domains: should match exactly the array of `domains` in storage; used here to reduce gas costs, and keep them static regardless of number of supported domains."
        }
      },
      "removeConnector(uint32)": {
        "details": "Only watcher can remove a connector. TODO: Could add a metatx-able `removeConnectorWithSig` if we want to use relayers?",
        "params": {
          "_domain": "The spoke domain of the target connector we want to remove."
        }
      },
      "setWatcherManager(address)": {
        "details": "Owner can enroll a watcher (abilities are defined by inheriting contracts)"
      },
      "validateDomains(uint32[],address[])": {
        "details": "Reverts if domains or connectors do not match, including ordering."
      }
    },
    "stateVariables": {
      "pendingInboundRoots": {
        "details": "Watchers should be able to watch this queue for fraudulent messages and pause this contract if fraud is detected."
      }
    },
    "version": 1
  },
  "userdoc": {
    "kind": "user",
    "methods": {
      "MERKLE()": {
        "notice": "MerkleTreeManager contract instance. Will hold the active tree of aggregated inbound roots. The root of this tree will be distributed crosschain to all spoke domains."
      },
      "acceptProposedOwner()": {
        "notice": "Transfers ownership of the contract to a new account (`newOwner`). Can only be called by the current owner."
      },
      "addConnector(uint32,address)": {
        "notice": "Add a new supported domain and corresponding hub connector to the system. This new domain will receive the propagated aggregate root."
      },
      "aggregate(uint32,bytes32)": {
        "notice": "Accept an inbound root coming from a given domain's hub connector, enqueuing this incoming root into the current queue as it awaits the verification period."
      },
      "connectors(uint256)": {
        "notice": "Tracks the addresses of the hub connector contracts corresponding to subscribed spoke domains. The index of any given connector in this array should match the index of that connector's target spoke domain in the `domains` array above."
      },
      "connectorsHash()": {
        "notice": "A \"quick reference\" hash used in the `propagate` method below to validate that the provided array of connectors matches the one we have in storage."
      },
      "constructor": {
        "notice": "Creates a new RootManager instance."
      },
      "delay()": {
        "notice": "Returns the delay period before a new owner can be accepted."
      },
      "delayBlocks()": {
        "notice": "Number of blocks to delay the processing of a message to allow for watchers to verify the validity and pause if necessary."
      },
      "domains(uint256)": {
        "notice": "Domains array tracks currently subscribed domains to this hub aggregator. We should distribute the aggregate root to all of these domains in the `propagate` method."
      },
      "domainsHash()": {
        "notice": "A \"quick reference\" hash used in the `propagate` method below to validate that the provided array of domains matches the one we have in storage."
      },
      "getConnectorForDomain(uint32)": {
        "notice": "Gets the corresponding hub connector address for a given spoke domain."
      },
      "getDomainIndex(uint32)": {
        "notice": "Gets the index of a given domain in the domains and connectors arrays."
      },
      "isDomainSupported(uint32)": {
        "notice": "Convenience shortcut for supported domains. Used to sanity check adding new domains."
      },
      "owner()": {
        "notice": "Returns the address of the current owner."
      },
      "pendingInboundRoots()": {
        "notice": "Queue used for management of verification for inbound roots from spoke chains. Once the verification period elapses, the inbound messages can be aggregated into the merkle tree for propagation to spoke chains."
      },
      "propagate(uint32[],address[])": {
        "notice": "This is called by relayers to take the current aggregate tree root and propagate it to all spoke domains (via their respective hub connectors)."
      },
      "proposeNewOwner(address)": {
        "notice": "Sets the timestamp for an owner to be proposed, and sets the newly proposed owner as step 1 in a 2-step process"
      },
      "proposed()": {
        "notice": "Returns the address of the proposed owner."
      },
      "proposedTimestamp()": {
        "notice": "Returns the address of the proposed owner."
      },
      "removeConnector(uint32)": {
        "notice": "Remove support for a connector and respective domain. That connector/domain will no longer receive updates for the latest aggregate root."
      },
      "renounceOwnership()": {
        "notice": "Renounces ownership of the contract after a delay"
      },
      "renounced()": {
        "notice": "Indicates if the ownership has been renounced() by checking if current owner is address(0)"
      },
      "setDelayBlocks(uint256)": {
        "notice": "Set the `delayBlocks`, the period in blocks over which an incoming message is verified."
      },
      "validateDomains(uint32[],address[])": {
        "notice": "Validate given domains and connectors arrays are correct (i.e. they mirror what is currently saved in storage)."
      }
    },
    "notice": "This contract exists at cluster hubs, and aggregates all transfer roots from messaging spokes into a single merkle root",
    "version": 1
  },
  "storageLayout": {
    "storage": [
      {
        "astId": 47175,
        "contract": "contracts/messaging/RootManager.sol:RootManager",
        "label": "_owner",
        "offset": 0,
        "slot": "0",
        "type": "t_address"
      },
      {
        "astId": 47177,
        "contract": "contracts/messaging/RootManager.sol:RootManager",
        "label": "_proposed",
        "offset": 0,
        "slot": "1",
        "type": "t_address"
      },
      {
        "astId": 47179,
        "contract": "contracts/messaging/RootManager.sol:RootManager",
        "label": "_proposedOwnershipTimestamp",
        "offset": 0,
        "slot": "2",
        "type": "t_uint256"
      },
      {
        "astId": 10746,
        "contract": "contracts/messaging/RootManager.sol:RootManager",
        "label": "_paused",
        "offset": 0,
        "slot": "3",
        "type": "t_bool"
      },
      {
        "astId": 36911,
        "contract": "contracts/messaging/RootManager.sol:RootManager",
        "label": "watcherManager",
        "offset": 1,
        "slot": "3",
        "type": "t_contract(WatcherManager)37078"
      },
      {
        "astId": 45812,
        "contract": "contracts/messaging/RootManager.sol:RootManager",
        "label": "domains",
        "offset": 0,
        "slot": "4",
        "type": "t_array(t_uint32)dyn_storage"
      },
      {
        "astId": 45815,
        "contract": "contracts/messaging/RootManager.sol:RootManager",
        "label": "domainsHash",
        "offset": 0,
        "slot": "5",
        "type": "t_bytes32"
      },
      {
        "astId": 45819,
        "contract": "contracts/messaging/RootManager.sol:RootManager",
        "label": "connectors",
        "offset": 0,
        "slot": "6",
        "type": "t_array(t_address)dyn_storage"
      },
      {
        "astId": 45822,
        "contract": "contracts/messaging/RootManager.sol:RootManager",
        "label": "connectorsHash",
        "offset": 0,
        "slot": "7",
        "type": "t_bytes32"
      },
      {
        "astId": 45827,
        "contract": "contracts/messaging/RootManager.sol:RootManager",
        "label": "domainToIndexPlusOne",
        "offset": 0,
        "slot": "8",
        "type": "t_mapping(t_uint32,t_uint256)"
      },
      {
        "astId": 36622,
        "contract": "contracts/messaging/RootManager.sol:RootManager",
        "label": "delayBlocks",
        "offset": 0,
        "slot": "9",
        "type": "t_uint256"
      },
      {
        "astId": 36626,
        "contract": "contracts/messaging/RootManager.sol:RootManager",
        "label": "pendingInboundRoots",
        "offset": 0,
        "slot": "10",
        "type": "t_struct(Queue)46892_storage"
      }
    ],
    "types": {
      "t_address": {
        "encoding": "inplace",
        "label": "address",
        "numberOfBytes": "20"
      },
      "t_array(t_address)dyn_storage": {
        "base": "t_address",
        "encoding": "dynamic_array",
        "label": "address[]",
        "numberOfBytes": "32"
      },
      "t_array(t_uint32)dyn_storage": {
        "base": "t_uint32",
        "encoding": "dynamic_array",
        "label": "uint32[]",
        "numberOfBytes": "32"
      },
      "t_bool": {
        "encoding": "inplace",
        "label": "bool",
        "numberOfBytes": "1"
      },
      "t_bytes32": {
        "encoding": "inplace",
        "label": "bytes32",
        "numberOfBytes": "32"
      },
      "t_contract(WatcherManager)37078": {
        "encoding": "inplace",
        "label": "contract WatcherManager",
        "numberOfBytes": "20"
      },
      "t_mapping(t_uint256,t_bytes32)": {
        "encoding": "mapping",
        "key": "t_uint256",
        "label": "mapping(uint256 => bytes32)",
        "numberOfBytes": "32",
        "value": "t_bytes32"
      },
      "t_mapping(t_uint256,t_uint256)": {
        "encoding": "mapping",
        "key": "t_uint256",
        "label": "mapping(uint256 => uint256)",
        "numberOfBytes": "32",
        "value": "t_uint256"
      },
      "t_mapping(t_uint32,t_uint256)": {
        "encoding": "mapping",
        "key": "t_uint32",
        "label": "mapping(uint32 => uint256)",
        "numberOfBytes": "32",
        "value": "t_uint256"
      },
      "t_struct(Queue)46892_storage": {
        "encoding": "inplace",
        "label": "struct QueueLib.Queue",
        "members": [
          {
            "astId": 46881,
            "contract": "contracts/messaging/RootManager.sol:RootManager",
            "label": "first",
            "offset": 0,
            "slot": "0",
            "type": "t_uint128"
          },
          {
            "astId": 46883,
            "contract": "contracts/messaging/RootManager.sol:RootManager",
            "label": "last",
            "offset": 16,
            "slot": "0",
            "type": "t_uint128"
          },
          {
            "astId": 46887,
            "contract": "contracts/messaging/RootManager.sol:RootManager",
            "label": "data",
            "offset": 0,
            "slot": "1",
            "type": "t_mapping(t_uint256,t_bytes32)"
          },
          {
            "astId": 46891,
            "contract": "contracts/messaging/RootManager.sol:RootManager",
            "label": "commitBlock",
            "offset": 0,
            "slot": "2",
            "type": "t_mapping(t_uint256,t_uint256)"
          }
        ],
        "numberOfBytes": "96"
      },
      "t_uint128": {
        "encoding": "inplace",
        "label": "uint128",
        "numberOfBytes": "16"
      },
      "t_uint256": {
        "encoding": "inplace",
        "label": "uint256",
        "numberOfBytes": "32"
      },
      "t_uint32": {
        "encoding": "inplace",
        "label": "uint32",
        "numberOfBytes": "4"
      }
    }
  }
}