{
  "address": "0xfd9c30514e17C061F99A2CdD773B2b506cDf5e4F",
  "abi": [
    {
      "anonymous": false,
      "inputs": [
        {
          "indexed": true,
          "internalType": "address",
          "name": "provider",
          "type": "address"
        },
        {
          "indexed": false,
          "internalType": "uint256[]",
          "name": "tokenAmounts",
          "type": "uint256[]"
        },
        {
          "indexed": false,
          "internalType": "uint256[]",
          "name": "fees",
          "type": "uint256[]"
        },
        {
          "indexed": false,
          "internalType": "uint256",
          "name": "invariant",
          "type": "uint256"
        },
        {
          "indexed": false,
          "internalType": "uint256",
          "name": "lpTokenSupply",
          "type": "uint256"
        }
      ],
      "name": "AddLiquidity",
      "type": "event"
    },
    {
      "anonymous": false,
      "inputs": [
        {
          "indexed": false,
          "internalType": "uint8",
          "name": "version",
          "type": "uint8"
        }
      ],
      "name": "Initialized",
      "type": "event"
    },
    {
      "anonymous": false,
      "inputs": [
        {
          "indexed": false,
          "internalType": "uint256",
          "name": "newAdminFee",
          "type": "uint256"
        }
      ],
      "name": "NewAdminFee",
      "type": "event"
    },
    {
      "anonymous": false,
      "inputs": [
        {
          "indexed": false,
          "internalType": "uint256",
          "name": "newSwapFee",
          "type": "uint256"
        }
      ],
      "name": "NewSwapFee",
      "type": "event"
    },
    {
      "anonymous": false,
      "inputs": [
        {
          "indexed": false,
          "internalType": "uint256",
          "name": "newWithdrawFee",
          "type": "uint256"
        }
      ],
      "name": "NewWithdrawFee",
      "type": "event"
    },
    {
      "anonymous": false,
      "inputs": [
        {
          "indexed": true,
          "internalType": "address",
          "name": "previousOwner",
          "type": "address"
        },
        {
          "indexed": true,
          "internalType": "address",
          "name": "newOwner",
          "type": "address"
        }
      ],
      "name": "OwnershipTransferred",
      "type": "event"
    },
    {
      "anonymous": false,
      "inputs": [
        {
          "indexed": false,
          "internalType": "address",
          "name": "account",
          "type": "address"
        }
      ],
      "name": "Paused",
      "type": "event"
    },
    {
      "anonymous": false,
      "inputs": [
        {
          "indexed": false,
          "internalType": "uint256",
          "name": "oldA",
          "type": "uint256"
        },
        {
          "indexed": false,
          "internalType": "uint256",
          "name": "newA",
          "type": "uint256"
        },
        {
          "indexed": false,
          "internalType": "uint256",
          "name": "initialTime",
          "type": "uint256"
        },
        {
          "indexed": false,
          "internalType": "uint256",
          "name": "futureTime",
          "type": "uint256"
        }
      ],
      "name": "RampA",
      "type": "event"
    },
    {
      "anonymous": false,
      "inputs": [
        {
          "indexed": true,
          "internalType": "address",
          "name": "provider",
          "type": "address"
        },
        {
          "indexed": false,
          "internalType": "uint256[]",
          "name": "tokenAmounts",
          "type": "uint256[]"
        },
        {
          "indexed": false,
          "internalType": "uint256",
          "name": "lpTokenSupply",
          "type": "uint256"
        }
      ],
      "name": "RemoveLiquidity",
      "type": "event"
    },
    {
      "anonymous": false,
      "inputs": [
        {
          "indexed": true,
          "internalType": "address",
          "name": "provider",
          "type": "address"
        },
        {
          "indexed": false,
          "internalType": "uint256[]",
          "name": "tokenAmounts",
          "type": "uint256[]"
        },
        {
          "indexed": false,
          "internalType": "uint256[]",
          "name": "fees",
          "type": "uint256[]"
        },
        {
          "indexed": false,
          "internalType": "uint256",
          "name": "invariant",
          "type": "uint256"
        },
        {
          "indexed": false,
          "internalType": "uint256",
          "name": "lpTokenSupply",
          "type": "uint256"
        }
      ],
      "name": "RemoveLiquidityImbalance",
      "type": "event"
    },
    {
      "anonymous": false,
      "inputs": [
        {
          "indexed": true,
          "internalType": "address",
          "name": "provider",
          "type": "address"
        },
        {
          "indexed": false,
          "internalType": "uint256",
          "name": "lpTokenAmount",
          "type": "uint256"
        },
        {
          "indexed": false,
          "internalType": "uint256",
          "name": "lpTokenSupply",
          "type": "uint256"
        },
        {
          "indexed": false,
          "internalType": "uint256",
          "name": "boughtId",
          "type": "uint256"
        },
        {
          "indexed": false,
          "internalType": "uint256",
          "name": "tokensBought",
          "type": "uint256"
        }
      ],
      "name": "RemoveLiquidityOne",
      "type": "event"
    },
    {
      "anonymous": false,
      "inputs": [
        {
          "indexed": false,
          "internalType": "uint256",
          "name": "currentA",
          "type": "uint256"
        },
        {
          "indexed": false,
          "internalType": "uint256",
          "name": "time",
          "type": "uint256"
        }
      ],
      "name": "StopRampA",
      "type": "event"
    },
    {
      "anonymous": false,
      "inputs": [
        {
          "indexed": true,
          "internalType": "address",
          "name": "buyer",
          "type": "address"
        },
        {
          "indexed": false,
          "internalType": "uint256",
          "name": "tokensSold",
          "type": "uint256"
        },
        {
          "indexed": false,
          "internalType": "uint256",
          "name": "tokensBought",
          "type": "uint256"
        },
        {
          "indexed": false,
          "internalType": "uint128",
          "name": "soldId",
          "type": "uint128"
        },
        {
          "indexed": false,
          "internalType": "uint128",
          "name": "boughtId",
          "type": "uint128"
        }
      ],
      "name": "TokenSwap",
      "type": "event"
    },
    {
      "anonymous": false,
      "inputs": [
        {
          "indexed": false,
          "internalType": "address",
          "name": "account",
          "type": "address"
        }
      ],
      "name": "Unpaused",
      "type": "event"
    },
    {
      "inputs": [
        {
          "internalType": "uint256[]",
          "name": "amounts",
          "type": "uint256[]"
        },
        {
          "internalType": "uint256",
          "name": "minToMint",
          "type": "uint256"
        },
        {
          "internalType": "uint256",
          "name": "deadline",
          "type": "uint256"
        }
      ],
      "name": "addLiquidity",
      "outputs": [
        {
          "internalType": "uint256",
          "name": "",
          "type": "uint256"
        }
      ],
      "stateMutability": "nonpayable",
      "type": "function"
    },
    {
      "inputs": [
        {
          "internalType": "uint256",
          "name": "amount",
          "type": "uint256"
        }
      ],
      "name": "calculateRemoveLiquidity",
      "outputs": [
        {
          "internalType": "uint256[]",
          "name": "",
          "type": "uint256[]"
        }
      ],
      "stateMutability": "view",
      "type": "function"
    },
    {
      "inputs": [
        {
          "internalType": "uint256",
          "name": "tokenAmount",
          "type": "uint256"
        },
        {
          "internalType": "uint8",
          "name": "tokenIndex",
          "type": "uint8"
        }
      ],
      "name": "calculateRemoveLiquidityOneToken",
      "outputs": [
        {
          "internalType": "uint256",
          "name": "availableTokenAmount",
          "type": "uint256"
        }
      ],
      "stateMutability": "view",
      "type": "function"
    },
    {
      "inputs": [
        {
          "internalType": "uint8",
          "name": "tokenIndexFrom",
          "type": "uint8"
        },
        {
          "internalType": "uint8",
          "name": "tokenIndexTo",
          "type": "uint8"
        },
        {
          "internalType": "uint256",
          "name": "dx",
          "type": "uint256"
        }
      ],
      "name": "calculateSwap",
      "outputs": [
        {
          "internalType": "uint256",
          "name": "",
          "type": "uint256"
        }
      ],
      "stateMutability": "view",
      "type": "function"
    },
    {
      "inputs": [
        {
          "internalType": "address",
          "name": "assetIn",
          "type": "address"
        },
        {
          "internalType": "address",
          "name": "assetOut",
          "type": "address"
        },
        {
          "internalType": "uint256",
          "name": "amountIn",
          "type": "uint256"
        }
      ],
      "name": "calculateSwapFromAddress",
      "outputs": [
        {
          "internalType": "uint256",
          "name": "",
          "type": "uint256"
        }
      ],
      "stateMutability": "view",
      "type": "function"
    },
    {
      "inputs": [
        {
          "internalType": "uint8",
          "name": "tokenIndexFrom",
          "type": "uint8"
        },
        {
          "internalType": "uint8",
          "name": "tokenIndexTo",
          "type": "uint8"
        },
        {
          "internalType": "uint256",
          "name": "dy",
          "type": "uint256"
        }
      ],
      "name": "calculateSwapOut",
      "outputs": [
        {
          "internalType": "uint256",
          "name": "",
          "type": "uint256"
        }
      ],
      "stateMutability": "view",
      "type": "function"
    },
    {
      "inputs": [
        {
          "internalType": "address",
          "name": "assetIn",
          "type": "address"
        },
        {
          "internalType": "address",
          "name": "assetOut",
          "type": "address"
        },
        {
          "internalType": "uint256",
          "name": "amountOut",
          "type": "uint256"
        }
      ],
      "name": "calculateSwapOutFromAddress",
      "outputs": [
        {
          "internalType": "uint256",
          "name": "",
          "type": "uint256"
        }
      ],
      "stateMutability": "view",
      "type": "function"
    },
    {
      "inputs": [
        {
          "internalType": "uint256[]",
          "name": "amounts",
          "type": "uint256[]"
        },
        {
          "internalType": "bool",
          "name": "deposit",
          "type": "bool"
        }
      ],
      "name": "calculateTokenAmount",
      "outputs": [
        {
          "internalType": "uint256",
          "name": "",
          "type": "uint256"
        }
      ],
      "stateMutability": "view",
      "type": "function"
    },
    {
      "inputs": [],
      "name": "getA",
      "outputs": [
        {
          "internalType": "uint256",
          "name": "",
          "type": "uint256"
        }
      ],
      "stateMutability": "view",
      "type": "function"
    },
    {
      "inputs": [],
      "name": "getAPrecise",
      "outputs": [
        {
          "internalType": "uint256",
          "name": "",
          "type": "uint256"
        }
      ],
      "stateMutability": "view",
      "type": "function"
    },
    {
      "inputs": [
        {
          "internalType": "uint256",
          "name": "index",
          "type": "uint256"
        }
      ],
      "name": "getAdminBalance",
      "outputs": [
        {
          "internalType": "uint256",
          "name": "",
          "type": "uint256"
        }
      ],
      "stateMutability": "view",
      "type": "function"
    },
    {
      "inputs": [
        {
          "internalType": "uint8",
          "name": "index",
          "type": "uint8"
        }
      ],
      "name": "getToken",
      "outputs": [
        {
          "internalType": "contract IERC20",
          "name": "",
          "type": "address"
        }
      ],
      "stateMutability": "view",
      "type": "function"
    },
    {
      "inputs": [
        {
          "internalType": "uint8",
          "name": "index",
          "type": "uint8"
        }
      ],
      "name": "getTokenBalance",
      "outputs": [
        {
          "internalType": "uint256",
          "name": "",
          "type": "uint256"
        }
      ],
      "stateMutability": "view",
      "type": "function"
    },
    {
      "inputs": [
        {
          "internalType": "address",
          "name": "tokenAddress",
          "type": "address"
        }
      ],
      "name": "getTokenIndex",
      "outputs": [
        {
          "internalType": "uint8",
          "name": "",
          "type": "uint8"
        }
      ],
      "stateMutability": "view",
      "type": "function"
    },
    {
      "inputs": [],
      "name": "getVirtualPrice",
      "outputs": [
        {
          "internalType": "uint256",
          "name": "",
          "type": "uint256"
        }
      ],
      "stateMutability": "view",
      "type": "function"
    },
    {
      "inputs": [
        {
          "internalType": "contract IERC20[]",
          "name": "_pooledTokens",
          "type": "address[]"
        },
        {
          "internalType": "uint8[]",
          "name": "decimals",
          "type": "uint8[]"
        },
        {
          "internalType": "string",
          "name": "lpTokenName",
          "type": "string"
        },
        {
          "internalType": "string",
          "name": "lpTokenSymbol",
          "type": "string"
        },
        {
          "internalType": "uint256",
          "name": "_a",
          "type": "uint256"
        },
        {
          "internalType": "uint256",
          "name": "_fee",
          "type": "uint256"
        },
        {
          "internalType": "uint256",
          "name": "_adminFee",
          "type": "uint256"
        },
        {
          "internalType": "address",
          "name": "lpTokenTargetAddress",
          "type": "address"
        }
      ],
      "name": "initialize",
      "outputs": [],
      "stateMutability": "nonpayable",
      "type": "function"
    },
    {
      "inputs": [],
      "name": "owner",
      "outputs": [
        {
          "internalType": "address",
          "name": "",
          "type": "address"
        }
      ],
      "stateMutability": "view",
      "type": "function"
    },
    {
      "inputs": [],
      "name": "pause",
      "outputs": [],
      "stateMutability": "nonpayable",
      "type": "function"
    },
    {
      "inputs": [],
      "name": "paused",
      "outputs": [
        {
          "internalType": "bool",
          "name": "",
          "type": "bool"
        }
      ],
      "stateMutability": "view",
      "type": "function"
    },
    {
      "inputs": [
        {
          "internalType": "uint256",
          "name": "futureA",
          "type": "uint256"
        },
        {
          "internalType": "uint256",
          "name": "futureTime",
          "type": "uint256"
        }
      ],
      "name": "rampA",
      "outputs": [],
      "stateMutability": "nonpayable",
      "type": "function"
    },
    {
      "inputs": [
        {
          "internalType": "uint256",
          "name": "amount",
          "type": "uint256"
        },
        {
          "internalType": "uint256[]",
          "name": "minAmounts",
          "type": "uint256[]"
        },
        {
          "internalType": "uint256",
          "name": "deadline",
          "type": "uint256"
        }
      ],
      "name": "removeLiquidity",
      "outputs": [
        {
          "internalType": "uint256[]",
          "name": "",
          "type": "uint256[]"
        }
      ],
      "stateMutability": "nonpayable",
      "type": "function"
    },
    {
      "inputs": [
        {
          "internalType": "uint256[]",
          "name": "amounts",
          "type": "uint256[]"
        },
        {
          "internalType": "uint256",
          "name": "maxBurnAmount",
          "type": "uint256"
        },
        {
          "internalType": "uint256",
          "name": "deadline",
          "type": "uint256"
        }
      ],
      "name": "removeLiquidityImbalance",
      "outputs": [
        {
          "internalType": "uint256",
          "name": "",
          "type": "uint256"
        }
      ],
      "stateMutability": "nonpayable",
      "type": "function"
    },
    {
      "inputs": [
        {
          "internalType": "uint256",
          "name": "tokenAmount",
          "type": "uint256"
        },
        {
          "internalType": "uint8",
          "name": "tokenIndex",
          "type": "uint8"
        },
        {
          "internalType": "uint256",
          "name": "minAmount",
          "type": "uint256"
        },
        {
          "internalType": "uint256",
          "name": "deadline",
          "type": "uint256"
        }
      ],
      "name": "removeLiquidityOneToken",
      "outputs": [
        {
          "internalType": "uint256",
          "name": "",
          "type": "uint256"
        }
      ],
      "stateMutability": "nonpayable",
      "type": "function"
    },
    {
      "inputs": [],
      "name": "renounceOwnership",
      "outputs": [],
      "stateMutability": "nonpayable",
      "type": "function"
    },
    {
      "inputs": [
        {
          "internalType": "uint256",
          "name": "newAdminFee",
          "type": "uint256"
        }
      ],
      "name": "setAdminFee",
      "outputs": [],
      "stateMutability": "nonpayable",
      "type": "function"
    },
    {
      "inputs": [
        {
          "internalType": "uint256",
          "name": "newSwapFee",
          "type": "uint256"
        }
      ],
      "name": "setSwapFee",
      "outputs": [],
      "stateMutability": "nonpayable",
      "type": "function"
    },
    {
      "inputs": [],
      "name": "stopRampA",
      "outputs": [],
      "stateMutability": "nonpayable",
      "type": "function"
    },
    {
      "inputs": [
        {
          "internalType": "uint8",
          "name": "tokenIndexFrom",
          "type": "uint8"
        },
        {
          "internalType": "uint8",
          "name": "tokenIndexTo",
          "type": "uint8"
        },
        {
          "internalType": "uint256",
          "name": "dx",
          "type": "uint256"
        },
        {
          "internalType": "uint256",
          "name": "minDy",
          "type": "uint256"
        },
        {
          "internalType": "uint256",
          "name": "deadline",
          "type": "uint256"
        }
      ],
      "name": "swap",
      "outputs": [
        {
          "internalType": "uint256",
          "name": "",
          "type": "uint256"
        }
      ],
      "stateMutability": "nonpayable",
      "type": "function"
    },
    {
      "inputs": [
        {
          "internalType": "uint256",
          "name": "amountIn",
          "type": "uint256"
        },
        {
          "internalType": "address",
          "name": "assetIn",
          "type": "address"
        },
        {
          "internalType": "address",
          "name": "assetOut",
          "type": "address"
        },
        {
          "internalType": "uint256",
          "name": "minAmountOut",
          "type": "uint256"
        },
        {
          "internalType": "uint256",
          "name": "deadline",
          "type": "uint256"
        }
      ],
      "name": "swapExact",
      "outputs": [
        {
          "internalType": "uint256",
          "name": "",
          "type": "uint256"
        }
      ],
      "stateMutability": "payable",
      "type": "function"
    },
    {
      "inputs": [
        {
          "internalType": "uint256",
          "name": "amountOut",
          "type": "uint256"
        },
        {
          "internalType": "address",
          "name": "assetIn",
          "type": "address"
        },
        {
          "internalType": "address",
          "name": "assetOut",
          "type": "address"
        },
        {
          "internalType": "uint256",
          "name": "maxAmountIn",
          "type": "uint256"
        },
        {
          "internalType": "uint256",
          "name": "deadline",
          "type": "uint256"
        }
      ],
      "name": "swapExactOut",
      "outputs": [
        {
          "internalType": "uint256",
          "name": "",
          "type": "uint256"
        }
      ],
      "stateMutability": "payable",
      "type": "function"
    },
    {
      "inputs": [],
      "name": "swapStorage",
      "outputs": [
        {
          "internalType": "uint256",
          "name": "initialA",
          "type": "uint256"
        },
        {
          "internalType": "uint256",
          "name": "futureA",
          "type": "uint256"
        },
        {
          "internalType": "uint256",
          "name": "initialATime",
          "type": "uint256"
        },
        {
          "internalType": "uint256",
          "name": "futureATime",
          "type": "uint256"
        },
        {
          "internalType": "uint256",
          "name": "swapFee",
          "type": "uint256"
        },
        {
          "internalType": "uint256",
          "name": "adminFee",
          "type": "uint256"
        },
        {
          "internalType": "contract LPToken",
          "name": "lpToken",
          "type": "address"
        }
      ],
      "stateMutability": "view",
      "type": "function"
    },
    {
      "inputs": [
        {
          "internalType": "address",
          "name": "newOwner",
          "type": "address"
        }
      ],
      "name": "transferOwnership",
      "outputs": [],
      "stateMutability": "nonpayable",
      "type": "function"
    },
    {
      "inputs": [],
      "name": "unpause",
      "outputs": [],
      "stateMutability": "nonpayable",
      "type": "function"
    },
    {
      "inputs": [],
      "name": "withdrawAdminFees",
      "outputs": [],
      "stateMutability": "nonpayable",
      "type": "function"
    }
  ],
  "transactionHash": "0x6d36d5933d47e02e8b36c24002f663d8de84480d7ff176d03ef812614d17df42",
  "args": [],
  "numDeployments": 1,
  "solcInputHash": "ed9e09ad860770be48688918d2a9f263",
  "bytecode": "0x608060405234801561001057600080fd5b50612c44806100206000396000f3fe6080604052600436106101f95760003560e01c80638456cb591161010d578063c4db7fa0116100a0578063e6ab28061161006f578063e6ab2806146105d6578063ef0a712f146105f6578063f2fad2b614610616578063f2fde38b14610636578063f9a15fb91461065657600080fd5b8063c4db7fa014610584578063d460f0a214610599578063d46300fd146105ac578063e25aa5fa146105c157600080fd5b806391695586116100dc578063916955861461050457806391ceb3eb14610524578063a95b089f14610544578063b28cb6dc1461056457600080fd5b80638456cb591461049157806384cdd9bc146104a65780638beb60b6146104c65780638da5cb5b146104e657600080fd5b80635428c1171161019057806366c0bd241161015f57806366c0bd24146103d25780636b1dc08b14610404578063715018a6146104245780637f41e7ef1461043957806382b866001461045957600080fd5b80635428c117146102ff578063593d132c146103125780635c975abb146103325780635fd65f0f1461035557600080fd5b806334e19907116101cc57806334e199071461028a5780633e3a1560146102aa5780633f4ba83a146102ca5780634d49e87d146102df57600080fd5b80630419b45a146101fe5780630ba819591461021557806331cd52b01461023d578063342a87a11461026a575b600080fd5b34801561020a57600080fd5b50610213610676565b005b34801561022157600080fd5b5061022a610741565b6040519081526020015b60405180910390f35b34801561024957600080fd5b5061025d6102583660046121ee565b6107bf565b6040516102349190612241565b34801561027657600080fd5b5061022a610285366004612296565b61089c565b34801561029657600080fd5b506102136102a53660046122c2565b61092d565b3480156102b657600080fd5b5061022a6102c53660046122db565b6109a4565b3480156102d657600080fd5b50610213610a83565b3480156102eb57600080fd5b5061022a6102fa366004612316565b610a95565b61022a61030d366004612387565b610b26565b34801561031e57600080fd5b5061021361032d3660046123d9565b610c3a565b34801561033e57600080fd5b5060655460ff166040519015158152602001610234565b34801561036157600080fd5b5061012b5461012c5461012d5461012e5461012f546101305461013154610394969594939291906001600160a01b031687565b604080519788526020880196909652948601939093526060850191909152608084015260a08301526001600160a01b031660c082015260e001610234565b3480156103de57600080fd5b506103f26103ed3660046123fb565b610cb8565b60405160ff9091168152602001610234565b34801561041057600080fd5b5061022a61041f36600461241f565b610d30565b34801561043057600080fd5b50610213610dc9565b34801561044557600080fd5b5061022a61045436600461245b565b610ddb565b34801561046557600080fd5b5061047961047436600461249c565b610e8f565b6040516001600160a01b039091168152602001610234565b34801561049d57600080fd5b50610213610f09565b3480156104b257600080fd5b5061022a6104c1366004612316565b610f19565b3480156104d257600080fd5b506102136104e13660046122c2565b610faa565b3480156104f257600080fd5b506033546001600160a01b0316610479565b34801561051057600080fd5b5061022a61051f3660046124b7565b610ff2565b34801561053057600080fd5b5061022a61053f36600461249c565b6110e8565b34801561055057600080fd5b5061022a61055f36600461241f565b61115f565b34801561057057600080fd5b5061021361057f3660046126b5565b6111b3565b34801561059057600080fd5b5061021361198b565b61022a6105a7366004612387565b6119f9565b3480156105b857600080fd5b5061022a611abe565b3480156105cd57600080fd5b5061022a611afa565b3480156105e257600080fd5b5061022a6105f136600461279e565b611b36565b34801561060257600080fd5b5061022a6106113660046122c2565b611b78565b34801561062257600080fd5b5061025d6106313660046122c2565b611bf7565b34801561064257600080fd5b506102136106513660046123fb565b611c7a565b34801561066257600080fd5b5061022a61067136600461245b565b611cf3565b600260c854036106a15760405162461bcd60e51b8152600401610698906127f5565b60405180910390fd5b600260c8556106ae611d60565b739C7191c95dFe80d807F7431A3A33B52419B165D7639cbd240661012b6106dd6033546001600160a01b031690565b6040516001600160e01b031960e085901b16815260048101929092526001600160a01b0316602482015260440160006040518083038186803b15801561072257600080fd5b505af4158015610736573d6000803e3d6000fd5b5050600160c8555050565b60405163f43dee5360e01b815261012b6004820152600090739C7191c95dFe80d807F7431A3A33B52419B165D79063f43dee53906024015b602060405180830381865af4158015610796573d6000803e3d6000fd5b505050506040513d601f19601f820116820180604052508101906107ba919061282c565b905090565b6060600260c854036107e35760405162461bcd60e51b8152600401610698906127f5565b600260c85581428110156108095760405162461bcd60e51b815260040161069890612845565b604051631beec94360e21b8152739C7191c95dFe80d807F7431A3A33B52419B165D790636fbb250c906108489061012b908a908a908a906004016128a5565b600060405180830381865af4158015610865573d6000803e3d6000fd5b505050506040513d6000823e601f3d908101601f1916820160405261088d91908101906128c5565b600160c8559695505050505050565b6040516384eeef2760e01b815261012b60048201526024810183905260ff82166044820152600090739C7191c95dFe80d807F7431A3A33B52419B165D7906384eeef2790606401602060405180830381865af4158015610900573d6000803e3d6000fd5b505050506040513d601f19601f82011682018060405250810190610924919061282c565b90505b92915050565b610935611d60565b604051632cecccb560e11b815261012b600482015260248101829052739C7191c95dFe80d807F7431A3A33B52419B165D7906359d9996a906044015b60006040518083038186803b15801561098957600080fd5b505af415801561099d573d6000803e3d6000fd5b5050505050565b6000600260c854036109c85760405162461bcd60e51b8152600401610698906127f5565b600260c8556109d5611dba565b81804211156109f65760405162461bcd60e51b815260040161069890612845565b604051632b8ffbb760e21b815261012b60048201526024810187905260ff8616604482015260648101859052739C7191c95dFe80d807F7431A3A33B52419B165D79063ae3feedc906084015b602060405180830381865af4158015610a5f573d6000803e3d6000fd5b505050506040513d601f19601f8201168201806040525081019061088d919061282c565b610a8b611d60565b610a93611e00565b565b6000600260c85403610ab95760405162461bcd60e51b8152600401610698906127f5565b600260c855610ac6611dba565b8180421115610ae75760405162461bcd60e51b815260040161069890612845565b6040516333a43f9560e11b8152739C7191c95dFe80d807F7431A3A33B52419B165D7906367487f2a90610a429061012b908a908a908a90600401612956565b6000600260c85403610b4a5760405162461bcd60e51b8152600401610698906127f5565b600260c855610b57611dba565b8180421115610b785760405162461bcd60e51b815260040161069890612845565b6000610b8387610cb8565b90506000610b9087610cb8565b60405163703c02d560e11b815261012b600482015260ff808516602483015282166044820152606481018b905260848101889052909150739C7191c95dFe80d807F7431A3A33B52419B165D79063e07805aa9060a4015b602060405180830381865af4158015610c04573d6000803e3d6000fd5b505050506040513d601f19601f82011682018060405250810190610c28919061282c565b600160c8559998505050505050505050565b610c42611d60565b604051633f1e106160e21b815261012b60048201526024810183905260448101829052739C7191c95dFe80d807F7431A3A33B52419B165D79063fc7841849060640160006040518083038186803b158015610c9c57600080fd5b505af4158015610cb0573d6000803e3d6000fd5b505050505050565b6001600160a01b03811660008181526101366020526040812054909160ff90911690610ce382610e8f565b6001600160a01b0316146109275760405162461bcd60e51b8152602060048201526014602482015273151bdad95b88191bd95cc81b9bdd08195e1a5cdd60621b6044820152606401610698565b604051632e4be8d760e21b815261012b600482015260ff80851660248301528316604482015260648101829052600090739C7191c95dFe80d807F7431A3A33B52419B165D79063b92fa35c906084015b602060405180830381865af4158015610d9d573d6000803e3d6000fd5b505050506040513d601f19601f82011682018060405250810190610dc1919061282c565b949350505050565b610dd1611d60565b610a936000611e52565b600080610de785610cb8565b90506000610df485610cb8565b604051632f4998ad60e01b815261012b600482015260ff80851660248301528216604482015260648101869052909150739C7191c95dFe80d807F7431A3A33B52419B165D790632f4998ad906084015b602060405180830381865af4158015610e61573d6000803e3d6000fd5b505050506040513d601f19601f82011682018060405250810190610e85919061282c565b9695505050505050565b6101325460009060ff831610610ed65760405162461bcd60e51b815260206004820152600c60248201526b4f7574206f662072616e676560a01b6044820152606401610698565b610132805460ff8416908110610eee57610eee612981565b6000918252602090912001546001600160a01b031692915050565b610f11611d60565b610a93611ea4565b6000600260c85403610f3d5760405162461bcd60e51b8152600401610698906127f5565b600260c855610f4a611dba565b8180421115610f6b5760405162461bcd60e51b815260040161069890612845565b60405163077b83d360e41b8152739C7191c95dFe80d807F7431A3A33B52419B165D7906377b83d3090610a429061012b908a908a908a90600401612956565b610fb2611d60565b6040516308bbaa2360e01b815261012b600482015260248101829052739C7191c95dFe80d807F7431A3A33B52419B165D7906308bbaa2390604401610971565b6000600260c854036110165760405162461bcd60e51b8152600401610698906127f5565b600260c855611023611dba565b81804211156110445760405162461bcd60e51b815260040161069890612845565b60405163f204293960e01b815261012b600482015260ff8089166024830152871660448201526064810186905260848101859052739C7191c95dFe80d807F7431A3A33B52419B165D79063f20429399060a401602060405180830381865af41580156110b4573d6000803e3d6000fd5b505050506040513d601f19601f820116820180604052508101906110d8919061282c565b600160c855979650505050505050565b6101325460009060ff8316106111355760405162461bcd60e51b8152602060048201526012602482015271496e646578206f7574206f662072616e676560701b6044820152606401610698565b610134805460ff841690811061114d5761114d612981565b90600052602060002001549050919050565b604051632f4998ad60e01b815261012b600482015260ff80851660248301528316604482015260648101829052600090739C7191c95dFe80d807F7431A3A33B52419B165D790632f4998ad90608401610d80565b600054610100900460ff16158080156111d35750600054600160ff909116105b806111ed5750303b1580156111ed575060005460ff166001145b6112505760405162461bcd60e51b815260206004820152602e60248201527f496e697469616c697a61626c653a20636f6e747261637420697320616c72656160448201526d191e481a5b9a5d1a585b1a5e995960921b6064820152608401610698565b6000805460ff191660011790558015611273576000805461ff0019166101001790555b61127b611ee1565b611283611f20565b60018951116112d45760405162461bcd60e51b815260206004820152601960248201527f5f706f6f6c6564546f6b656e732e6c656e677468203c3d2031000000000000006044820152606401610698565b6020895111156113265760405162461bcd60e51b815260206004820152601960248201527f5f706f6f6c6564546f6b656e732e6c656e677468203e203332000000000000006044820152606401610698565b87518951146113775760405162461bcd60e51b815260206004820152601f60248201527f5f706f6f6c6564546f6b656e7320646563696d616c73206d69736d61746368006044820152606401610698565b6000885167ffffffffffffffff81111561139357611393612504565b6040519080825280602002602001820160405280156113bc578160200160208202803683370190505b50905060005b8a518160ff1610156116635760ff8116156114ac5761013660008c8360ff16815181106113f1576113f1612981565b6020908102919091018101516001600160a01b031682528101919091526040016000205460ff1615801561146d57508a8160ff168151811061143557611435612981565b60200260200101516001600160a01b03168b60008151811061145957611459612981565b60200260200101516001600160a01b031614155b6114ac5760405162461bcd60e51b815260206004820152601060248201526f4475706c696361746520746f6b656e7360801b6044820152606401610698565b60006001600160a01b03168b8260ff16815181106114cc576114cc612981565b60200260200101516001600160a01b03160361152a5760405162461bcd60e51b815260206004820152601d60248201527f546865203020616464726573732069736e277420616e204552432d32300000006044820152606401610698565b601260ff168a8260ff168151811061154457611544612981565b602002602001015160ff16111561159d5760405162461bcd60e51b815260206004820152601a60248201527f546f6b656e20646563696d616c732065786365656473206d61780000000000006044820152606401610698565b898160ff16815181106115b2576115b2612981565b602002602001015160126115c691906129ad565b6115d49060ff16600a612ab4565b828260ff16815181106115e9576115e9612981565b6020026020010181815250508061013660008d8460ff168151811061161057611610612981565b60200260200101516001600160a01b03166001600160a01b0316815260200190815260200160002060006101000a81548160ff021916908360ff160217905550808061165b90612ac0565b9150506113c2565b50620f424086106116ab5760405162461bcd60e51b81526020600482015260126024820152715f612065786365656473206d6178696d756d60701b6044820152606401610698565b6305f5e10085106116f55760405162461bcd60e51b81526020600482015260146024820152735f6665652065786365656473206d6178696d756d60601b6044820152606401610698565b6402540be40084106117495760405162461bcd60e51b815260206004820152601960248201527f5f61646d696e4665652065786365656473206d6178696d756d000000000000006044820152606401610698565b600061175484611f4f565b60405163266c45bb60e11b81529091506001600160a01b03821690634cd88b7690611785908c908c90600401612b2c565b6020604051808303816000875af11580156117a4573d6000803e3d6000fd5b505050506040513d601f19601f820116820180604052508101906117c89190612b5a565b6118145760405162461bcd60e51b815260206004820152601c60248201527f636f756c64206e6f7420696e6974206c70546f6b656e20636c6f6e65000000006044820152606401610698565b61013180546001600160a01b0319166001600160a01b0383161790558a51611844906101329060208e01906120ed565b50815161185990610133906020850190612152565b508a5167ffffffffffffffff81111561187457611874612504565b60405190808252806020026020018201604052801561189d578160200160208202803683370190505b5080516118b39161013491602090910190612152565b508a5167ffffffffffffffff8111156118ce576118ce612504565b6040519080825280602002602001820160405280156118f7578160200160208202803683370190505b50805161190d9161013591602090910190612152565b50611919606488612b77565b61012b55611928606488612b77565b61012c55505061012f8490556101308390558015611980576000805461ff0019169055604051600181527f7f26b83ff96e1f2b6a682f133852f6798a09c465da95921460cefb38474024989060200160405180910390a15b505050505050505050565b611993611d60565b60405163e5b994c560e01b815261012b6004820152739C7191c95dFe80d807F7431A3A33B52419B165D79063e5b994c59060240160006040518083038186803b1580156119df57600080fd5b505af41580156119f3573d6000803e3d6000fd5b50505050565b6000600260c85403611a1d5760405162461bcd60e51b8152600401610698906127f5565b600260c855611a2a611dba565b8180421115611a4b5760405162461bcd60e51b815260040161069890612845565b6000611a5687610cb8565b90506000611a6387610cb8565b60405163f204293960e01b815261012b600482015260ff808516602483015282166044820152606481018b905260848101889052909150739C7191c95dFe80d807F7431A3A33B52419B165D79063f20429399060a401610be7565b604051631158dafb60e11b815261012b6004820152600090739C7191c95dFe80d807F7431A3A33B52419B165D7906322b1b5f690602401610779565b604051638be1e52360e01b815261012b6004820152600090739C7191c95dFe80d807F7431A3A33B52419B165D790638be1e52390602401610779565b6040516322b2b60760e01b8152600090739C7191c95dFe80d807F7431A3A33B52419B165D7906322b2b60790610d809061012b90889088908890600401612b96565b604051631ce9046f60e01b815261012b600482015260248101829052600090739C7191c95dFe80d807F7431A3A33B52419B165D790631ce9046f90604401602060405180830381865af4158015611bd3573d6000803e3d6000fd5b505050506040513d601f19601f82011682018060405250810190610927919061282c565b604051638cc122bb60e01b815261012b600482015260248101829052606090739C7191c95dFe80d807F7431A3A33B52419B165D790638cc122bb90604401600060405180830381865af4158015611c52573d6000803e3d6000fd5b505050506040513d6000823e601f3d908101601f1916820160405261092791908101906128c5565b611c82611d60565b6001600160a01b038116611ce75760405162461bcd60e51b815260206004820152602660248201527f4f776e61626c653a206e6577206f776e657220697320746865207a65726f206160448201526564647265737360d01b6064820152608401610698565b611cf081611e52565b50565b600080611cff85610cb8565b90506000611d0c85610cb8565b604051632e4be8d760e21b815261012b600482015260ff80851660248301528216604482015260648101869052909150739C7191c95dFe80d807F7431A3A33B52419B165D79063b92fa35c90608401610e44565b6033546001600160a01b03163314610a935760405162461bcd60e51b815260206004820181905260248201527f4f776e61626c653a2063616c6c6572206973206e6f7420746865206f776e65726044820152606401610698565b60655460ff1615610a935760405162461bcd60e51b815260206004820152601060248201526f14185d5cd8589b194e881c185d5cd95960821b6044820152606401610698565b611e08611fec565b6065805460ff191690557f5db9ee0a495bf2e6ff9c91a7834c1ba4fdd244a5e8aa4e537bd38aeae4b073aa335b6040516001600160a01b03909116815260200160405180910390a1565b603380546001600160a01b038381166001600160a01b0319831681179093556040519116919082907f8be0079c531659141344cd1fd0a4f28419497f9722a3daafe3b4186f6b6457e090600090a35050565b611eac611dba565b6065805460ff191660011790557f62e78cea01bee320cd4e420270b5ea74000d11b0c9f74754ebdbfc544b05a258611e353390565b600054610100900460ff16611f085760405162461bcd60e51b815260040161069890612bc3565b611f10612035565b611f1861205c565b610a9361208c565b600054610100900460ff16611f475760405162461bcd60e51b815260040161069890612bc3565b610a936120bf565b6000604051733d602d80600a3d3981f3363d3d373d3d3d363d7360601b81528260601b60148201526e5af43d82803e903d91602b57fd5bf360881b60288201526037816000f09150506001600160a01b038116611fe75760405162461bcd60e51b8152602060048201526016602482015275115490cc4c4d8dce8818dc99585d194819985a5b195960521b6044820152606401610698565b919050565b60655460ff16610a935760405162461bcd60e51b815260206004820152601460248201527314185d5cd8589b194e881b9bdd081c185d5cd95960621b6044820152606401610698565b600054610100900460ff16610a935760405162461bcd60e51b815260040161069890612bc3565b600054610100900460ff166120835760405162461bcd60e51b815260040161069890612bc3565b610a9333611e52565b600054610100900460ff166120b35760405162461bcd60e51b815260040161069890612bc3565b6065805460ff19169055565b600054610100900460ff166120e65760405162461bcd60e51b815260040161069890612bc3565b600160c855565b828054828255906000526020600020908101928215612142579160200282015b8281111561214257825182546001600160a01b0319166001600160a01b0390911617825560209092019160019091019061210d565b5061214e92915061218d565b5090565b828054828255906000526020600020908101928215612142579160200282015b82811115612142578251825591602001919060010190612172565b5b8082111561214e576000815560010161218e565b60008083601f8401126121b457600080fd5b50813567ffffffffffffffff8111156121cc57600080fd5b6020830191508360208260051b85010111156121e757600080fd5b9250929050565b6000806000806060858703121561220457600080fd5b84359350602085013567ffffffffffffffff81111561222257600080fd5b61222e878288016121a2565b9598909750949560400135949350505050565b6020808252825182820181905260009190848201906040850190845b818110156122795783518352928401929184019160010161225d565b50909695505050505050565b803560ff81168114611fe757600080fd5b600080604083850312156122a957600080fd5b823591506122b960208401612285565b90509250929050565b6000602082840312156122d457600080fd5b5035919050565b600080600080608085870312156122f157600080fd5b8435935061230160208601612285565b93969395505050506040820135916060013590565b6000806000806060858703121561232c57600080fd5b843567ffffffffffffffff81111561234357600080fd5b61234f878288016121a2565b90989097506020870135966040013595509350505050565b6001600160a01b0381168114611cf057600080fd5b8035611fe781612367565b600080600080600060a0868803121561239f57600080fd5b8535945060208601356123b181612367565b935060408601356123c181612367565b94979396509394606081013594506080013592915050565b600080604083850312156123ec57600080fd5b50508035926020909101359150565b60006020828403121561240d57600080fd5b813561241881612367565b9392505050565b60008060006060848603121561243457600080fd5b61243d84612285565b925061244b60208501612285565b9150604084013590509250925092565b60008060006060848603121561247057600080fd5b833561247b81612367565b9250602084013561248b81612367565b929592945050506040919091013590565b6000602082840312156124ae57600080fd5b61092482612285565b600080600080600060a086880312156124cf57600080fd5b6124d886612285565b94506124e660208701612285565b94979496505050506040830135926060810135926080909101359150565b634e487b7160e01b600052604160045260246000fd5b604051601f8201601f1916810167ffffffffffffffff8111828210171561254357612543612504565b604052919050565b600067ffffffffffffffff82111561256557612565612504565b5060051b60200190565b600082601f83011261258057600080fd5b813560206125956125908361254b565b61251a565b82815260059290921b840181019181810190868411156125b457600080fd5b8286015b848110156125d85780356125cb81612367565b83529183019183016125b8565b509695505050505050565b600082601f8301126125f457600080fd5b813560206126046125908361254b565b82815260059290921b8401810191818101908684111561262357600080fd5b8286015b848110156125d85761263881612285565b8352918301918301612627565b600082601f83011261265657600080fd5b813567ffffffffffffffff81111561267057612670612504565b612683601f8201601f191660200161251a565b81815284602083860101111561269857600080fd5b816020850160208301376000918101602001919091529392505050565b600080600080600080600080610100898b0312156126d257600080fd5b883567ffffffffffffffff808211156126ea57600080fd5b6126f68c838d0161256f565b995060208b013591508082111561270c57600080fd5b6127188c838d016125e3565b985060408b013591508082111561272e57600080fd5b61273a8c838d01612645565b975060608b013591508082111561275057600080fd5b5061275d8b828c01612645565b9550506080890135935060a0890135925060c0890135915061278160e08a0161237c565b90509295985092959890939650565b8015158114611cf057600080fd5b6000806000604084860312156127b357600080fd5b833567ffffffffffffffff8111156127ca57600080fd5b6127d6868287016121a2565b90945092505060208401356127ea81612790565b809150509250925092565b6020808252601f908201527f5265656e7472616e637947756172643a207265656e7472616e742063616c6c00604082015260600190565b60006020828403121561283e57600080fd5b5051919050565b60208082526010908201526f111958591b1a5b99481b9bdd081b595d60821b604082015260600190565b81835260006001600160fb1b0383111561288857600080fd5b8260051b8083602087013760009401602001938452509192915050565b848152836020820152606060408201526000610e8560608301848661286f565b600060208083850312156128d857600080fd5b825167ffffffffffffffff8111156128ef57600080fd5b8301601f8101851361290057600080fd5b805161290e6125908261254b565b81815260059190911b8201830190838101908783111561292d57600080fd5b928401925b8284101561294b57835182529284019290840190612932565b979650505050505050565b84815260606020820152600061297060608301858761286f565b905082604083015295945050505050565b634e487b7160e01b600052603260045260246000fd5b634e487b7160e01b600052601160045260246000fd5b600060ff821660ff8416808210156129c7576129c7612997565b90039392505050565b600181815b80851115612a0b5781600019048211156129f1576129f1612997565b808516156129fe57918102915b93841c93908002906129d5565b509250929050565b600082612a2257506001610927565b81612a2f57506000610927565b8160018114612a455760028114612a4f57612a6b565b6001915050610927565b60ff841115612a6057612a60612997565b50506001821b610927565b5060208310610133831016604e8410600b8410161715612a8e575081810a610927565b612a9883836129d0565b8060001904821115612aac57612aac612997565b029392505050565b60006109248383612a13565b600060ff821660ff8103612ad657612ad6612997565b60010192915050565b6000815180845260005b81811015612b0557602081850181015186830182015201612ae9565b81811115612b17576000602083870101525b50601f01601f19169290920160200192915050565b604081526000612b3f6040830185612adf565b8281036020840152612b518185612adf565b95945050505050565b600060208284031215612b6c57600080fd5b815161241881612790565b6000816000190483118215151615612b9157612b91612997565b500290565b848152606060208201526000612bb060608301858761286f565b9050821515604083015295945050505050565b6020808252602b908201527f496e697469616c697a61626c653a20636f6e7472616374206973206e6f74206960408201526a6e697469616c697a696e6760a81b60608201526080019056fea2646970667358221220a74557de69b68ab22cc16738c2cb7e4490bfe5ee2c69e2cf420d9653e066b4f464736f6c634300080f0033",
  "deployedBytecode": "0x6080604052600436106101f95760003560e01c80638456cb591161010d578063c4db7fa0116100a0578063e6ab28061161006f578063e6ab2806146105d6578063ef0a712f146105f6578063f2fad2b614610616578063f2fde38b14610636578063f9a15fb91461065657600080fd5b8063c4db7fa014610584578063d460f0a214610599578063d46300fd146105ac578063e25aa5fa146105c157600080fd5b806391695586116100dc578063916955861461050457806391ceb3eb14610524578063a95b089f14610544578063b28cb6dc1461056457600080fd5b80638456cb591461049157806384cdd9bc146104a65780638beb60b6146104c65780638da5cb5b146104e657600080fd5b80635428c1171161019057806366c0bd241161015f57806366c0bd24146103d25780636b1dc08b14610404578063715018a6146104245780637f41e7ef1461043957806382b866001461045957600080fd5b80635428c117146102ff578063593d132c146103125780635c975abb146103325780635fd65f0f1461035557600080fd5b806334e19907116101cc57806334e199071461028a5780633e3a1560146102aa5780633f4ba83a146102ca5780634d49e87d146102df57600080fd5b80630419b45a146101fe5780630ba819591461021557806331cd52b01461023d578063342a87a11461026a575b600080fd5b34801561020a57600080fd5b50610213610676565b005b34801561022157600080fd5b5061022a610741565b6040519081526020015b60405180910390f35b34801561024957600080fd5b5061025d6102583660046121ee565b6107bf565b6040516102349190612241565b34801561027657600080fd5b5061022a610285366004612296565b61089c565b34801561029657600080fd5b506102136102a53660046122c2565b61092d565b3480156102b657600080fd5b5061022a6102c53660046122db565b6109a4565b3480156102d657600080fd5b50610213610a83565b3480156102eb57600080fd5b5061022a6102fa366004612316565b610a95565b61022a61030d366004612387565b610b26565b34801561031e57600080fd5b5061021361032d3660046123d9565b610c3a565b34801561033e57600080fd5b5060655460ff166040519015158152602001610234565b34801561036157600080fd5b5061012b5461012c5461012d5461012e5461012f546101305461013154610394969594939291906001600160a01b031687565b604080519788526020880196909652948601939093526060850191909152608084015260a08301526001600160a01b031660c082015260e001610234565b3480156103de57600080fd5b506103f26103ed3660046123fb565b610cb8565b60405160ff9091168152602001610234565b34801561041057600080fd5b5061022a61041f36600461241f565b610d30565b34801561043057600080fd5b50610213610dc9565b34801561044557600080fd5b5061022a61045436600461245b565b610ddb565b34801561046557600080fd5b5061047961047436600461249c565b610e8f565b6040516001600160a01b039091168152602001610234565b34801561049d57600080fd5b50610213610f09565b3480156104b257600080fd5b5061022a6104c1366004612316565b610f19565b3480156104d257600080fd5b506102136104e13660046122c2565b610faa565b3480156104f257600080fd5b506033546001600160a01b0316610479565b34801561051057600080fd5b5061022a61051f3660046124b7565b610ff2565b34801561053057600080fd5b5061022a61053f36600461249c565b6110e8565b34801561055057600080fd5b5061022a61055f36600461241f565b61115f565b34801561057057600080fd5b5061021361057f3660046126b5565b6111b3565b34801561059057600080fd5b5061021361198b565b61022a6105a7366004612387565b6119f9565b3480156105b857600080fd5b5061022a611abe565b3480156105cd57600080fd5b5061022a611afa565b3480156105e257600080fd5b5061022a6105f136600461279e565b611b36565b34801561060257600080fd5b5061022a6106113660046122c2565b611b78565b34801561062257600080fd5b5061025d6106313660046122c2565b611bf7565b34801561064257600080fd5b506102136106513660046123fb565b611c7a565b34801561066257600080fd5b5061022a61067136600461245b565b611cf3565b600260c854036106a15760405162461bcd60e51b8152600401610698906127f5565b60405180910390fd5b600260c8556106ae611d60565b73__$0399e8fdab399fb8f200f3895472e3787c$__639cbd240661012b6106dd6033546001600160a01b031690565b6040516001600160e01b031960e085901b16815260048101929092526001600160a01b0316602482015260440160006040518083038186803b15801561072257600080fd5b505af4158015610736573d6000803e3d6000fd5b5050600160c8555050565b60405163f43dee5360e01b815261012b600482015260009073__$0399e8fdab399fb8f200f3895472e3787c$__9063f43dee53906024015b602060405180830381865af4158015610796573d6000803e3d6000fd5b505050506040513d601f19601f820116820180604052508101906107ba919061282c565b905090565b6060600260c854036107e35760405162461bcd60e51b8152600401610698906127f5565b600260c85581428110156108095760405162461bcd60e51b815260040161069890612845565b604051631beec94360e21b815273__$0399e8fdab399fb8f200f3895472e3787c$__90636fbb250c906108489061012b908a908a908a906004016128a5565b600060405180830381865af4158015610865573d6000803e3d6000fd5b505050506040513d6000823e601f3d908101601f1916820160405261088d91908101906128c5565b600160c8559695505050505050565b6040516384eeef2760e01b815261012b60048201526024810183905260ff8216604482015260009073__$0399e8fdab399fb8f200f3895472e3787c$__906384eeef2790606401602060405180830381865af4158015610900573d6000803e3d6000fd5b505050506040513d601f19601f82011682018060405250810190610924919061282c565b90505b92915050565b610935611d60565b604051632cecccb560e11b815261012b60048201526024810182905273__$0399e8fdab399fb8f200f3895472e3787c$__906359d9996a906044015b60006040518083038186803b15801561098957600080fd5b505af415801561099d573d6000803e3d6000fd5b5050505050565b6000600260c854036109c85760405162461bcd60e51b8152600401610698906127f5565b600260c8556109d5611dba565b81804211156109f65760405162461bcd60e51b815260040161069890612845565b604051632b8ffbb760e21b815261012b60048201526024810187905260ff861660448201526064810185905273__$0399e8fdab399fb8f200f3895472e3787c$__9063ae3feedc906084015b602060405180830381865af4158015610a5f573d6000803e3d6000fd5b505050506040513d601f19601f8201168201806040525081019061088d919061282c565b610a8b611d60565b610a93611e00565b565b6000600260c85403610ab95760405162461bcd60e51b8152600401610698906127f5565b600260c855610ac6611dba565b8180421115610ae75760405162461bcd60e51b815260040161069890612845565b6040516333a43f9560e11b815273__$0399e8fdab399fb8f200f3895472e3787c$__906367487f2a90610a429061012b908a908a908a90600401612956565b6000600260c85403610b4a5760405162461bcd60e51b8152600401610698906127f5565b600260c855610b57611dba565b8180421115610b785760405162461bcd60e51b815260040161069890612845565b6000610b8387610cb8565b90506000610b9087610cb8565b60405163703c02d560e11b815261012b600482015260ff808516602483015282166044820152606481018b90526084810188905290915073__$0399e8fdab399fb8f200f3895472e3787c$__9063e07805aa9060a4015b602060405180830381865af4158015610c04573d6000803e3d6000fd5b505050506040513d601f19601f82011682018060405250810190610c28919061282c565b600160c8559998505050505050505050565b610c42611d60565b604051633f1e106160e21b815261012b6004820152602481018390526044810182905273__$0399e8fdab399fb8f200f3895472e3787c$__9063fc7841849060640160006040518083038186803b158015610c9c57600080fd5b505af4158015610cb0573d6000803e3d6000fd5b505050505050565b6001600160a01b03811660008181526101366020526040812054909160ff90911690610ce382610e8f565b6001600160a01b0316146109275760405162461bcd60e51b8152602060048201526014602482015273151bdad95b88191bd95cc81b9bdd08195e1a5cdd60621b6044820152606401610698565b604051632e4be8d760e21b815261012b600482015260ff8085166024830152831660448201526064810182905260009073__$0399e8fdab399fb8f200f3895472e3787c$__9063b92fa35c906084015b602060405180830381865af4158015610d9d573d6000803e3d6000fd5b505050506040513d601f19601f82011682018060405250810190610dc1919061282c565b949350505050565b610dd1611d60565b610a936000611e52565b600080610de785610cb8565b90506000610df485610cb8565b604051632f4998ad60e01b815261012b600482015260ff8085166024830152821660448201526064810186905290915073__$0399e8fdab399fb8f200f3895472e3787c$__90632f4998ad906084015b602060405180830381865af4158015610e61573d6000803e3d6000fd5b505050506040513d601f19601f82011682018060405250810190610e85919061282c565b9695505050505050565b6101325460009060ff831610610ed65760405162461bcd60e51b815260206004820152600c60248201526b4f7574206f662072616e676560a01b6044820152606401610698565b610132805460ff8416908110610eee57610eee612981565b6000918252602090912001546001600160a01b031692915050565b610f11611d60565b610a93611ea4565b6000600260c85403610f3d5760405162461bcd60e51b8152600401610698906127f5565b600260c855610f4a611dba565b8180421115610f6b5760405162461bcd60e51b815260040161069890612845565b60405163077b83d360e41b815273__$0399e8fdab399fb8f200f3895472e3787c$__906377b83d3090610a429061012b908a908a908a90600401612956565b610fb2611d60565b6040516308bbaa2360e01b815261012b60048201526024810182905273__$0399e8fdab399fb8f200f3895472e3787c$__906308bbaa2390604401610971565b6000600260c854036110165760405162461bcd60e51b8152600401610698906127f5565b600260c855611023611dba565b81804211156110445760405162461bcd60e51b815260040161069890612845565b60405163f204293960e01b815261012b600482015260ff808916602483015287166044820152606481018690526084810185905273__$0399e8fdab399fb8f200f3895472e3787c$__9063f20429399060a401602060405180830381865af41580156110b4573d6000803e3d6000fd5b505050506040513d601f19601f820116820180604052508101906110d8919061282c565b600160c855979650505050505050565b6101325460009060ff8316106111355760405162461bcd60e51b8152602060048201526012602482015271496e646578206f7574206f662072616e676560701b6044820152606401610698565b610134805460ff841690811061114d5761114d612981565b90600052602060002001549050919050565b604051632f4998ad60e01b815261012b600482015260ff8085166024830152831660448201526064810182905260009073__$0399e8fdab399fb8f200f3895472e3787c$__90632f4998ad90608401610d80565b600054610100900460ff16158080156111d35750600054600160ff909116105b806111ed5750303b1580156111ed575060005460ff166001145b6112505760405162461bcd60e51b815260206004820152602e60248201527f496e697469616c697a61626c653a20636f6e747261637420697320616c72656160448201526d191e481a5b9a5d1a585b1a5e995960921b6064820152608401610698565b6000805460ff191660011790558015611273576000805461ff0019166101001790555b61127b611ee1565b611283611f20565b60018951116112d45760405162461bcd60e51b815260206004820152601960248201527f5f706f6f6c6564546f6b656e732e6c656e677468203c3d2031000000000000006044820152606401610698565b6020895111156113265760405162461bcd60e51b815260206004820152601960248201527f5f706f6f6c6564546f6b656e732e6c656e677468203e203332000000000000006044820152606401610698565b87518951146113775760405162461bcd60e51b815260206004820152601f60248201527f5f706f6f6c6564546f6b656e7320646563696d616c73206d69736d61746368006044820152606401610698565b6000885167ffffffffffffffff81111561139357611393612504565b6040519080825280602002602001820160405280156113bc578160200160208202803683370190505b50905060005b8a518160ff1610156116635760ff8116156114ac5761013660008c8360ff16815181106113f1576113f1612981565b6020908102919091018101516001600160a01b031682528101919091526040016000205460ff1615801561146d57508a8160ff168151811061143557611435612981565b60200260200101516001600160a01b03168b60008151811061145957611459612981565b60200260200101516001600160a01b031614155b6114ac5760405162461bcd60e51b815260206004820152601060248201526f4475706c696361746520746f6b656e7360801b6044820152606401610698565b60006001600160a01b03168b8260ff16815181106114cc576114cc612981565b60200260200101516001600160a01b03160361152a5760405162461bcd60e51b815260206004820152601d60248201527f546865203020616464726573732069736e277420616e204552432d32300000006044820152606401610698565b601260ff168a8260ff168151811061154457611544612981565b602002602001015160ff16111561159d5760405162461bcd60e51b815260206004820152601a60248201527f546f6b656e20646563696d616c732065786365656473206d61780000000000006044820152606401610698565b898160ff16815181106115b2576115b2612981565b602002602001015160126115c691906129ad565b6115d49060ff16600a612ab4565b828260ff16815181106115e9576115e9612981565b6020026020010181815250508061013660008d8460ff168151811061161057611610612981565b60200260200101516001600160a01b03166001600160a01b0316815260200190815260200160002060006101000a81548160ff021916908360ff160217905550808061165b90612ac0565b9150506113c2565b50620f424086106116ab5760405162461bcd60e51b81526020600482015260126024820152715f612065786365656473206d6178696d756d60701b6044820152606401610698565b6305f5e10085106116f55760405162461bcd60e51b81526020600482015260146024820152735f6665652065786365656473206d6178696d756d60601b6044820152606401610698565b6402540be40084106117495760405162461bcd60e51b815260206004820152601960248201527f5f61646d696e4665652065786365656473206d6178696d756d000000000000006044820152606401610698565b600061175484611f4f565b60405163266c45bb60e11b81529091506001600160a01b03821690634cd88b7690611785908c908c90600401612b2c565b6020604051808303816000875af11580156117a4573d6000803e3d6000fd5b505050506040513d601f19601f820116820180604052508101906117c89190612b5a565b6118145760405162461bcd60e51b815260206004820152601c60248201527f636f756c64206e6f7420696e6974206c70546f6b656e20636c6f6e65000000006044820152606401610698565b61013180546001600160a01b0319166001600160a01b0383161790558a51611844906101329060208e01906120ed565b50815161185990610133906020850190612152565b508a5167ffffffffffffffff81111561187457611874612504565b60405190808252806020026020018201604052801561189d578160200160208202803683370190505b5080516118b39161013491602090910190612152565b508a5167ffffffffffffffff8111156118ce576118ce612504565b6040519080825280602002602001820160405280156118f7578160200160208202803683370190505b50805161190d9161013591602090910190612152565b50611919606488612b77565b61012b55611928606488612b77565b61012c55505061012f8490556101308390558015611980576000805461ff0019169055604051600181527f7f26b83ff96e1f2b6a682f133852f6798a09c465da95921460cefb38474024989060200160405180910390a15b505050505050505050565b611993611d60565b60405163e5b994c560e01b815261012b600482015273__$0399e8fdab399fb8f200f3895472e3787c$__9063e5b994c59060240160006040518083038186803b1580156119df57600080fd5b505af41580156119f3573d6000803e3d6000fd5b50505050565b6000600260c85403611a1d5760405162461bcd60e51b8152600401610698906127f5565b600260c855611a2a611dba565b8180421115611a4b5760405162461bcd60e51b815260040161069890612845565b6000611a5687610cb8565b90506000611a6387610cb8565b60405163f204293960e01b815261012b600482015260ff808516602483015282166044820152606481018b90526084810188905290915073__$0399e8fdab399fb8f200f3895472e3787c$__9063f20429399060a401610be7565b604051631158dafb60e11b815261012b600482015260009073__$0399e8fdab399fb8f200f3895472e3787c$__906322b1b5f690602401610779565b604051638be1e52360e01b815261012b600482015260009073__$0399e8fdab399fb8f200f3895472e3787c$__90638be1e52390602401610779565b6040516322b2b60760e01b815260009073__$0399e8fdab399fb8f200f3895472e3787c$__906322b2b60790610d809061012b90889088908890600401612b96565b604051631ce9046f60e01b815261012b60048201526024810182905260009073__$0399e8fdab399fb8f200f3895472e3787c$__90631ce9046f90604401602060405180830381865af4158015611bd3573d6000803e3d6000fd5b505050506040513d601f19601f82011682018060405250810190610927919061282c565b604051638cc122bb60e01b815261012b60048201526024810182905260609073__$0399e8fdab399fb8f200f3895472e3787c$__90638cc122bb90604401600060405180830381865af4158015611c52573d6000803e3d6000fd5b505050506040513d6000823e601f3d908101601f1916820160405261092791908101906128c5565b611c82611d60565b6001600160a01b038116611ce75760405162461bcd60e51b815260206004820152602660248201527f4f776e61626c653a206e6577206f776e657220697320746865207a65726f206160448201526564647265737360d01b6064820152608401610698565b611cf081611e52565b50565b600080611cff85610cb8565b90506000611d0c85610cb8565b604051632e4be8d760e21b815261012b600482015260ff8085166024830152821660448201526064810186905290915073__$0399e8fdab399fb8f200f3895472e3787c$__9063b92fa35c90608401610e44565b6033546001600160a01b03163314610a935760405162461bcd60e51b815260206004820181905260248201527f4f776e61626c653a2063616c6c6572206973206e6f7420746865206f776e65726044820152606401610698565b60655460ff1615610a935760405162461bcd60e51b815260206004820152601060248201526f14185d5cd8589b194e881c185d5cd95960821b6044820152606401610698565b611e08611fec565b6065805460ff191690557f5db9ee0a495bf2e6ff9c91a7834c1ba4fdd244a5e8aa4e537bd38aeae4b073aa335b6040516001600160a01b03909116815260200160405180910390a1565b603380546001600160a01b038381166001600160a01b0319831681179093556040519116919082907f8be0079c531659141344cd1fd0a4f28419497f9722a3daafe3b4186f6b6457e090600090a35050565b611eac611dba565b6065805460ff191660011790557f62e78cea01bee320cd4e420270b5ea74000d11b0c9f74754ebdbfc544b05a258611e353390565b600054610100900460ff16611f085760405162461bcd60e51b815260040161069890612bc3565b611f10612035565b611f1861205c565b610a9361208c565b600054610100900460ff16611f475760405162461bcd60e51b815260040161069890612bc3565b610a936120bf565b6000604051733d602d80600a3d3981f3363d3d373d3d3d363d7360601b81528260601b60148201526e5af43d82803e903d91602b57fd5bf360881b60288201526037816000f09150506001600160a01b038116611fe75760405162461bcd60e51b8152602060048201526016602482015275115490cc4c4d8dce8818dc99585d194819985a5b195960521b6044820152606401610698565b919050565b60655460ff16610a935760405162461bcd60e51b815260206004820152601460248201527314185d5cd8589b194e881b9bdd081c185d5cd95960621b6044820152606401610698565b600054610100900460ff16610a935760405162461bcd60e51b815260040161069890612bc3565b600054610100900460ff166120835760405162461bcd60e51b815260040161069890612bc3565b610a9333611e52565b600054610100900460ff166120b35760405162461bcd60e51b815260040161069890612bc3565b6065805460ff19169055565b600054610100900460ff166120e65760405162461bcd60e51b815260040161069890612bc3565b600160c855565b828054828255906000526020600020908101928215612142579160200282015b8281111561214257825182546001600160a01b0319166001600160a01b0390911617825560209092019160019091019061210d565b5061214e92915061218d565b5090565b828054828255906000526020600020908101928215612142579160200282015b82811115612142578251825591602001919060010190612172565b5b8082111561214e576000815560010161218e565b60008083601f8401126121b457600080fd5b50813567ffffffffffffffff8111156121cc57600080fd5b6020830191508360208260051b85010111156121e757600080fd5b9250929050565b6000806000806060858703121561220457600080fd5b84359350602085013567ffffffffffffffff81111561222257600080fd5b61222e878288016121a2565b9598909750949560400135949350505050565b6020808252825182820181905260009190848201906040850190845b818110156122795783518352928401929184019160010161225d565b50909695505050505050565b803560ff81168114611fe757600080fd5b600080604083850312156122a957600080fd5b823591506122b960208401612285565b90509250929050565b6000602082840312156122d457600080fd5b5035919050565b600080600080608085870312156122f157600080fd5b8435935061230160208601612285565b93969395505050506040820135916060013590565b6000806000806060858703121561232c57600080fd5b843567ffffffffffffffff81111561234357600080fd5b61234f878288016121a2565b90989097506020870135966040013595509350505050565b6001600160a01b0381168114611cf057600080fd5b8035611fe781612367565b600080600080600060a0868803121561239f57600080fd5b8535945060208601356123b181612367565b935060408601356123c181612367565b94979396509394606081013594506080013592915050565b600080604083850312156123ec57600080fd5b50508035926020909101359150565b60006020828403121561240d57600080fd5b813561241881612367565b9392505050565b60008060006060848603121561243457600080fd5b61243d84612285565b925061244b60208501612285565b9150604084013590509250925092565b60008060006060848603121561247057600080fd5b833561247b81612367565b9250602084013561248b81612367565b929592945050506040919091013590565b6000602082840312156124ae57600080fd5b61092482612285565b600080600080600060a086880312156124cf57600080fd5b6124d886612285565b94506124e660208701612285565b94979496505050506040830135926060810135926080909101359150565b634e487b7160e01b600052604160045260246000fd5b604051601f8201601f1916810167ffffffffffffffff8111828210171561254357612543612504565b604052919050565b600067ffffffffffffffff82111561256557612565612504565b5060051b60200190565b600082601f83011261258057600080fd5b813560206125956125908361254b565b61251a565b82815260059290921b840181019181810190868411156125b457600080fd5b8286015b848110156125d85780356125cb81612367565b83529183019183016125b8565b509695505050505050565b600082601f8301126125f457600080fd5b813560206126046125908361254b565b82815260059290921b8401810191818101908684111561262357600080fd5b8286015b848110156125d85761263881612285565b8352918301918301612627565b600082601f83011261265657600080fd5b813567ffffffffffffffff81111561267057612670612504565b612683601f8201601f191660200161251a565b81815284602083860101111561269857600080fd5b816020850160208301376000918101602001919091529392505050565b600080600080600080600080610100898b0312156126d257600080fd5b883567ffffffffffffffff808211156126ea57600080fd5b6126f68c838d0161256f565b995060208b013591508082111561270c57600080fd5b6127188c838d016125e3565b985060408b013591508082111561272e57600080fd5b61273a8c838d01612645565b975060608b013591508082111561275057600080fd5b5061275d8b828c01612645565b9550506080890135935060a0890135925060c0890135915061278160e08a0161237c565b90509295985092959890939650565b8015158114611cf057600080fd5b6000806000604084860312156127b357600080fd5b833567ffffffffffffffff8111156127ca57600080fd5b6127d6868287016121a2565b90945092505060208401356127ea81612790565b809150509250925092565b6020808252601f908201527f5265656e7472616e637947756172643a207265656e7472616e742063616c6c00604082015260600190565b60006020828403121561283e57600080fd5b5051919050565b60208082526010908201526f111958591b1a5b99481b9bdd081b595d60821b604082015260600190565b81835260006001600160fb1b0383111561288857600080fd5b8260051b8083602087013760009401602001938452509192915050565b848152836020820152606060408201526000610e8560608301848661286f565b600060208083850312156128d857600080fd5b825167ffffffffffffffff8111156128ef57600080fd5b8301601f8101851361290057600080fd5b805161290e6125908261254b565b81815260059190911b8201830190838101908783111561292d57600080fd5b928401925b8284101561294b57835182529284019290840190612932565b979650505050505050565b84815260606020820152600061297060608301858761286f565b905082604083015295945050505050565b634e487b7160e01b600052603260045260246000fd5b634e487b7160e01b600052601160045260246000fd5b600060ff821660ff8416808210156129c7576129c7612997565b90039392505050565b600181815b80851115612a0b5781600019048211156129f1576129f1612997565b808516156129fe57918102915b93841c93908002906129d5565b509250929050565b600082612a2257506001610927565b81612a2f57506000610927565b8160018114612a455760028114612a4f57612a6b565b6001915050610927565b60ff841115612a6057612a60612997565b50506001821b610927565b5060208310610133831016604e8410600b8410161715612a8e575081810a610927565b612a9883836129d0565b8060001904821115612aac57612aac612997565b029392505050565b60006109248383612a13565b600060ff821660ff8103612ad657612ad6612997565b60010192915050565b6000815180845260005b81811015612b0557602081850181015186830182015201612ae9565b81811115612b17576000602083870101525b50601f01601f19169290920160200192915050565b604081526000612b3f6040830185612adf565b8281036020840152612b518185612adf565b95945050505050565b600060208284031215612b6c57600080fd5b815161241881612790565b6000816000190483118215151615612b9157612b91612997565b500290565b848152606060208201526000612bb060608301858761286f565b9050821515604083015295945050505050565b6020808252602b908201527f496e697469616c697a61626c653a20636f6e7472616374206973206e6f74206960408201526a6e697469616c697a696e6760a81b60608201526080019056fea2646970667358221220a74557de69b68ab22cc16738c2cb7e4490bfe5ee2c69e2cf420d9653e066b4f464736f6c634300080f0033",
  "libraries": {
    "SwapUtilsExternal": "0x9C7191c95dFe80d807F7431A3A33B52419B165D7"
  },
  "devdoc": {
    "details": "Most of the logic is stored as a library `SwapUtils` for the sake of reducing contract's deployment size.",
    "kind": "dev",
    "methods": {
      "addLiquidity(uint256[],uint256,uint256)": {
        "params": {
          "amounts": "the amounts of each token to add, in their native precision",
          "deadline": "latest timestamp to accept this transaction",
          "minToMint": "the minimum LP tokens adding this amount of liquidity should mint, otherwise revert. Handy for front-running mitigation"
        },
        "returns": {
          "_0": "amount of LP token user minted and received"
        }
      },
      "calculateRemoveLiquidity(uint256)": {
        "params": {
          "amount": "the amount of LP tokens that would be burned on withdrawal"
        },
        "returns": {
          "_0": "array of token balances that the user will receive"
        }
      },
      "calculateRemoveLiquidityOneToken(uint256,uint8)": {
        "params": {
          "tokenAmount": "the amount of LP token to burn",
          "tokenIndex": "index of which token will be withdrawn"
        },
        "returns": {
          "availableTokenAmount": "calculated amount of underlying token available to withdraw"
        }
      },
      "calculateSwap(uint8,uint8,uint256)": {
        "params": {
          "dx": "the amount of tokens the user wants to sell. If the token charges a fee on transfers, use the amount that gets transferred after the fee.",
          "tokenIndexFrom": "the token the user wants to sell",
          "tokenIndexTo": "the token the user wants to buy"
        },
        "returns": {
          "_0": "amount of tokens the user will receive"
        }
      },
      "calculateSwapFromAddress(address,address,uint256)": {
        "params": {
          "amountIn": "the amount of tokens the user wants to swap from",
          "assetIn": "the token the user wants to swap from",
          "assetOut": "the token the user wants to swap to"
        },
        "returns": {
          "_0": "amount of tokens the user will receive"
        }
      },
      "calculateSwapOut(uint8,uint8,uint256)": {
        "params": {
          "dy": "the amount of tokens the user wants to buy",
          "tokenIndexFrom": "the token the user wants to sell",
          "tokenIndexTo": "the token the user wants to buy"
        },
        "returns": {
          "_0": "amount of tokens the user have to transfer"
        }
      },
      "calculateSwapOutFromAddress(address,address,uint256)": {
        "params": {
          "amountOut": "the amount of tokens the user wants to swap to",
          "assetIn": "the token the user wants to swap from",
          "assetOut": "the token the user wants to swap to"
        },
        "returns": {
          "_0": "amount of tokens the user will receive"
        }
      },
      "calculateTokenAmount(uint256[],bool)": {
        "details": "This shouldn't be used outside frontends for user estimates.",
        "params": {
          "amounts": "an array of token amounts to deposit or withdrawal, corresponding to pooledTokens. The amount should be in each pooled token's native precision. If a token charges a fee on transfers, use the amount that gets transferred after the fee.",
          "deposit": "whether this is a deposit or a withdrawal"
        },
        "returns": {
          "_0": "token amount the user will receive"
        }
      },
      "getA()": {
        "details": "See the StableSwap paper for details",
        "returns": {
          "_0": "A parameter"
        }
      },
      "getAPrecise()": {
        "details": "See the StableSwap paper for details",
        "returns": {
          "_0": "A parameter in its raw precision form"
        }
      },
      "getAdminBalance(uint256)": {
        "params": {
          "index": "Index of the pooled token"
        },
        "returns": {
          "_0": "admin's token balance in the token's precision"
        }
      },
      "getToken(uint8)": {
        "params": {
          "index": "the index of the token"
        },
        "returns": {
          "_0": "address of the token at given index"
        }
      },
      "getTokenBalance(uint8)": {
        "params": {
          "index": "the index of the token"
        },
        "returns": {
          "_0": "current balance of the pooled token at given index with token's native precision"
        }
      },
      "getTokenIndex(address)": {
        "params": {
          "tokenAddress": "address of the token"
        },
        "returns": {
          "_0": "the index of the given token address"
        }
      },
      "getVirtualPrice()": {
        "returns": {
          "_0": "the virtual price, scaled to the POOL_PRECISION_DECIMALS"
        }
      },
      "initialize(address[],uint8[],string,string,uint256,uint256,uint256,address)": {
        "params": {
          "_a": "the amplification coefficient * n * (n - 1). See the StableSwap paper for details",
          "_adminFee": "default adminFee to be initialized with",
          "_fee": "default swap fee to be initialized with",
          "_pooledTokens": "an array of ERC20s this pool will accept",
          "decimals": "the decimals to use for each pooled token, eg 8 for WBTC. Cannot be larger than POOL_PRECISION_DECIMALS",
          "lpTokenName": "the long-form name of the token to be deployed",
          "lpTokenSymbol": "the short symbol for the token to be deployed",
          "lpTokenTargetAddress": "the address of an existing LPToken contract to use as a target"
        }
      },
      "owner()": {
        "details": "Returns the address of the current owner."
      },
      "paused()": {
        "details": "Returns true if the contract is paused, and false otherwise."
      },
      "rampA(uint256,uint256)": {
        "params": {
          "futureA": "the new A to ramp towards",
          "futureTime": "timestamp when the new A should be reached"
        }
      },
      "removeLiquidity(uint256,uint256[],uint256)": {
        "details": "Liquidity can always be removed, even when the pool is paused.",
        "params": {
          "amount": "the amount of LP tokens to burn",
          "deadline": "latest timestamp to accept this transaction",
          "minAmounts": "the minimum amounts of each token in the pool        acceptable for this burn. Useful as a front-running mitigation"
        },
        "returns": {
          "_0": "amounts of tokens user received"
        }
      },
      "removeLiquidityImbalance(uint256[],uint256,uint256)": {
        "params": {
          "amounts": "how much of each token to withdraw",
          "deadline": "latest timestamp to accept this transaction",
          "maxBurnAmount": "the max LP token provider is willing to pay to remove liquidity. Useful as a front-running mitigation."
        },
        "returns": {
          "_0": "amount of LP tokens burned"
        }
      },
      "removeLiquidityOneToken(uint256,uint8,uint256,uint256)": {
        "params": {
          "deadline": "latest timestamp to accept this transaction",
          "minAmount": "the minimum amount to withdraw, otherwise revert",
          "tokenAmount": "the amount of the token you want to receive",
          "tokenIndex": "the index of the token you want to receive"
        },
        "returns": {
          "_0": "amount of chosen token user received"
        }
      },
      "renounceOwnership()": {
        "details": "Leaves the contract without owner. It will not be possible to call `onlyOwner` functions anymore. Can only be called by the current owner. NOTE: Renouncing ownership will leave the contract without an owner, thereby removing any functionality that is only available to the owner."
      },
      "setAdminFee(uint256)": {
        "params": {
          "newAdminFee": "new admin fee to be applied on future transactions"
        }
      },
      "setSwapFee(uint256)": {
        "params": {
          "newSwapFee": "new swap fee to be applied on future transactions"
        }
      },
      "swap(uint8,uint8,uint256,uint256,uint256)": {
        "params": {
          "deadline": "latest timestamp to accept this transaction",
          "dx": "the amount of tokens the user wants to swap from",
          "minDy": "the min amount the user would like to receive, or revert.",
          "tokenIndexFrom": "the token the user wants to swap from",
          "tokenIndexTo": "the token the user wants to swap to"
        }
      },
      "swapExact(uint256,address,address,uint256,uint256)": {
        "params": {
          "amountIn": "the amount of tokens the user wants to swap from",
          "assetIn": "the token the user wants to swap from",
          "assetOut": "the token the user wants to swap to",
          "minAmountOut": "the min amount of tokens the user wants to swap to"
        }
      },
      "swapExactOut(uint256,address,address,uint256,uint256)": {
        "params": {
          "amountOut": "the amount of tokens the user wants to swap to",
          "assetIn": "the token the user wants to swap from",
          "assetOut": "the token the user wants to swap to",
          "maxAmountIn": "the max amount of tokens the user wants to swap from"
        }
      },
      "transferOwnership(address)": {
        "details": "Transfers ownership of the contract to a new account (`newOwner`). Can only be called by the current owner."
      }
    },
    "title": "Swap - A StableSwap implementation in solidity.",
    "version": 1
  },
  "userdoc": {
    "kind": "user",
    "methods": {
      "addLiquidity(uint256[],uint256,uint256)": {
        "notice": "Add liquidity to the pool with the given amounts of tokens"
      },
      "calculateRemoveLiquidity(uint256)": {
        "notice": "A simple method to calculate amount of each underlying tokens that is returned upon burning given amount of LP tokens"
      },
      "calculateRemoveLiquidityOneToken(uint256,uint8)": {
        "notice": "Calculate the amount of underlying token available to withdraw when withdrawing via only single token"
      },
      "calculateSwap(uint8,uint8,uint256)": {
        "notice": "Calculate amount of tokens you receive on swap"
      },
      "calculateSwapFromAddress(address,address,uint256)": {
        "notice": "Calculate amount of tokens you receive on swap"
      },
      "calculateSwapOut(uint8,uint8,uint256)": {
        "notice": "Calculate amount of tokens you receive on swap"
      },
      "calculateSwapOutFromAddress(address,address,uint256)": {
        "notice": "Calculate amount of tokens you receive on swap"
      },
      "calculateTokenAmount(uint256[],bool)": {
        "notice": "A simple method to calculate prices from deposits or withdrawals, excluding fees but including slippage. This is helpful as an input into the various \"min\" parameters on calls to fight front-running"
      },
      "getA()": {
        "notice": "Return A, the amplification coefficient * n * (n - 1)"
      },
      "getAPrecise()": {
        "notice": "Return A in its raw precision form"
      },
      "getAdminBalance(uint256)": {
        "notice": "This function reads the accumulated amount of admin fees of the token with given index"
      },
      "getToken(uint8)": {
        "notice": "Return address of the pooled token at given index. Reverts if tokenIndex is out of range."
      },
      "getTokenBalance(uint8)": {
        "notice": "Return current balance of the pooled token at given index"
      },
      "getTokenIndex(address)": {
        "notice": "Return the index of the given token address. Reverts if no matching token is found."
      },
      "getVirtualPrice()": {
        "notice": "Get the virtual price, to help calculate profit"
      },
      "initialize(address[],uint8[],string,string,uint256,uint256,uint256,address)": {
        "notice": "Initializes this Swap contract with the given parameters. This will also clone a LPToken contract that represents users' LP positions. The owner of LPToken will be this contract - which means only this contract is allowed to mint/burn tokens."
      },
      "pause()": {
        "notice": "Pause the contract. Revert if already paused."
      },
      "rampA(uint256,uint256)": {
        "notice": "Start ramping up or down A parameter towards given futureA and futureTime Checks if the change is too rapid, and commits the new A value only when it falls under the limit range."
      },
      "removeLiquidity(uint256,uint256[],uint256)": {
        "notice": "Burn LP tokens to remove liquidity from the pool. Withdraw fee that decays linearly over period of 4 weeks since last deposit will apply."
      },
      "removeLiquidityImbalance(uint256[],uint256,uint256)": {
        "notice": "Remove liquidity from the pool, weighted differently than the pool's current balances. Withdraw fee that decays linearly over period of 4 weeks since last deposit will apply."
      },
      "removeLiquidityOneToken(uint256,uint8,uint256,uint256)": {
        "notice": "Remove liquidity from the pool all in one token. Withdraw fee that decays linearly over period of 4 weeks since last deposit will apply."
      },
      "setAdminFee(uint256)": {
        "notice": "Update the admin fee. Admin fee takes portion of the swap fee."
      },
      "setSwapFee(uint256)": {
        "notice": "Update the swap fee to be applied on swaps"
      },
      "stopRampA()": {
        "notice": "Stop ramping A immediately. Reverts if ramp A is already stopped."
      },
      "swap(uint8,uint8,uint256,uint256,uint256)": {
        "notice": "Swap two tokens using this pool"
      },
      "swapExact(uint256,address,address,uint256,uint256)": {
        "notice": "Swap two tokens using this pool"
      },
      "swapExactOut(uint256,address,address,uint256,uint256)": {
        "notice": "Swap two tokens using this pool"
      },
      "unpause()": {
        "notice": "Unpause the contract. Revert if already unpaused."
      },
      "withdrawAdminFees()": {
        "notice": "Withdraw all admin fees to the contract owner"
      }
    },
    "notice": "This contract is responsible for custody of closely pegged assets (eg. group of stablecoins) and automatic market making system. Users become an LP (Liquidity Provider) by depositing their tokens in desired ratios for an exchange of the pool token that represents their share of the pool. Users can burn pool tokens and withdraw their share of token(s). Each time a swap between the pooled tokens happens, a set fee incurs which effectively gets distributed to the LPs. In case of emergencies, admin can pause additional deposits, swaps, or single-asset withdraws - which stops the ratio of the tokens in the pool from changing. Users can always withdraw their tokens via multi-asset withdraws.",
    "version": 1
  },
  "storageLayout": {
    "storage": [
      {
        "astId": 138,
        "contract": "contracts/core/connext/helpers/StableSwap.sol:StableSwap",
        "label": "_initialized",
        "offset": 0,
        "slot": "0",
        "type": "t_uint8"
      },
      {
        "astId": 141,
        "contract": "contracts/core/connext/helpers/StableSwap.sol:StableSwap",
        "label": "_initializing",
        "offset": 1,
        "slot": "0",
        "type": "t_bool"
      },
      {
        "astId": 1847,
        "contract": "contracts/core/connext/helpers/StableSwap.sol:StableSwap",
        "label": "__gap",
        "offset": 0,
        "slot": "1",
        "type": "t_array(t_uint256)50_storage"
      },
      {
        "astId": 10,
        "contract": "contracts/core/connext/helpers/StableSwap.sol:StableSwap",
        "label": "_owner",
        "offset": 0,
        "slot": "51",
        "type": "t_address"
      },
      {
        "astId": 130,
        "contract": "contracts/core/connext/helpers/StableSwap.sol:StableSwap",
        "label": "__gap",
        "offset": 0,
        "slot": "52",
        "type": "t_array(t_uint256)49_storage"
      },
      {
        "astId": 303,
        "contract": "contracts/core/connext/helpers/StableSwap.sol:StableSwap",
        "label": "_paused",
        "offset": 0,
        "slot": "101",
        "type": "t_bool"
      },
      {
        "astId": 408,
        "contract": "contracts/core/connext/helpers/StableSwap.sol:StableSwap",
        "label": "__gap",
        "offset": 0,
        "slot": "102",
        "type": "t_array(t_uint256)49_storage"
      },
      {
        "astId": 14155,
        "contract": "contracts/core/connext/helpers/StableSwap.sol:StableSwap",
        "label": "__GAP",
        "offset": 0,
        "slot": "151",
        "type": "t_array(t_uint256)49_storage"
      },
      {
        "astId": 423,
        "contract": "contracts/core/connext/helpers/StableSwap.sol:StableSwap",
        "label": "_status",
        "offset": 0,
        "slot": "200",
        "type": "t_uint256"
      },
      {
        "astId": 467,
        "contract": "contracts/core/connext/helpers/StableSwap.sol:StableSwap",
        "label": "__gap",
        "offset": 0,
        "slot": "201",
        "type": "t_array(t_uint256)49_storage"
      },
      {
        "astId": 15270,
        "contract": "contracts/core/connext/helpers/StableSwap.sol:StableSwap",
        "label": "__GAP",
        "offset": 0,
        "slot": "250",
        "type": "t_array(t_uint256)49_storage"
      },
      {
        "astId": 15273,
        "contract": "contracts/core/connext/helpers/StableSwap.sol:StableSwap",
        "label": "swapStorage",
        "offset": 0,
        "slot": "299",
        "type": "t_struct(Swap)24285_storage"
      },
      {
        "astId": 15277,
        "contract": "contracts/core/connext/helpers/StableSwap.sol:StableSwap",
        "label": "tokenIndexes",
        "offset": 0,
        "slot": "310",
        "type": "t_mapping(t_address,t_uint8)"
      }
    ],
    "types": {
      "t_address": {
        "encoding": "inplace",
        "label": "address",
        "numberOfBytes": "20"
      },
      "t_array(t_contract(IERC20)3580)dyn_storage": {
        "base": "t_contract(IERC20)3580",
        "encoding": "dynamic_array",
        "label": "contract IERC20[]",
        "numberOfBytes": "32"
      },
      "t_array(t_uint256)49_storage": {
        "base": "t_uint256",
        "encoding": "inplace",
        "label": "uint256[49]",
        "numberOfBytes": "1568"
      },
      "t_array(t_uint256)50_storage": {
        "base": "t_uint256",
        "encoding": "inplace",
        "label": "uint256[50]",
        "numberOfBytes": "1600"
      },
      "t_array(t_uint256)dyn_storage": {
        "base": "t_uint256",
        "encoding": "dynamic_array",
        "label": "uint256[]",
        "numberOfBytes": "32"
      },
      "t_bool": {
        "encoding": "inplace",
        "label": "bool",
        "numberOfBytes": "1"
      },
      "t_contract(IERC20)3580": {
        "encoding": "inplace",
        "label": "contract IERC20",
        "numberOfBytes": "20"
      },
      "t_contract(LPToken)14140": {
        "encoding": "inplace",
        "label": "contract LPToken",
        "numberOfBytes": "20"
      },
      "t_mapping(t_address,t_uint8)": {
        "encoding": "mapping",
        "key": "t_address",
        "label": "mapping(address => uint8)",
        "numberOfBytes": "32",
        "value": "t_uint8"
      },
      "t_struct(Swap)24285_storage": {
        "encoding": "inplace",
        "label": "struct SwapUtilsExternal.Swap",
        "members": [
          {
            "astId": 24258,
            "contract": "contracts/core/connext/helpers/StableSwap.sol:StableSwap",
            "label": "initialA",
            "offset": 0,
            "slot": "0",
            "type": "t_uint256"
          },
          {
            "astId": 24260,
            "contract": "contracts/core/connext/helpers/StableSwap.sol:StableSwap",
            "label": "futureA",
            "offset": 0,
            "slot": "1",
            "type": "t_uint256"
          },
          {
            "astId": 24262,
            "contract": "contracts/core/connext/helpers/StableSwap.sol:StableSwap",
            "label": "initialATime",
            "offset": 0,
            "slot": "2",
            "type": "t_uint256"
          },
          {
            "astId": 24264,
            "contract": "contracts/core/connext/helpers/StableSwap.sol:StableSwap",
            "label": "futureATime",
            "offset": 0,
            "slot": "3",
            "type": "t_uint256"
          },
          {
            "astId": 24266,
            "contract": "contracts/core/connext/helpers/StableSwap.sol:StableSwap",
            "label": "swapFee",
            "offset": 0,
            "slot": "4",
            "type": "t_uint256"
          },
          {
            "astId": 24268,
            "contract": "contracts/core/connext/helpers/StableSwap.sol:StableSwap",
            "label": "adminFee",
            "offset": 0,
            "slot": "5",
            "type": "t_uint256"
          },
          {
            "astId": 24271,
            "contract": "contracts/core/connext/helpers/StableSwap.sol:StableSwap",
            "label": "lpToken",
            "offset": 0,
            "slot": "6",
            "type": "t_contract(LPToken)14140"
          },
          {
            "astId": 24275,
            "contract": "contracts/core/connext/helpers/StableSwap.sol:StableSwap",
            "label": "pooledTokens",
            "offset": 0,
            "slot": "7",
            "type": "t_array(t_contract(IERC20)3580)dyn_storage"
          },
          {
            "astId": 24278,
            "contract": "contracts/core/connext/helpers/StableSwap.sol:StableSwap",
            "label": "tokenPrecisionMultipliers",
            "offset": 0,
            "slot": "8",
            "type": "t_array(t_uint256)dyn_storage"
          },
          {
            "astId": 24281,
            "contract": "contracts/core/connext/helpers/StableSwap.sol:StableSwap",
            "label": "balances",
            "offset": 0,
            "slot": "9",
            "type": "t_array(t_uint256)dyn_storage"
          },
          {
            "astId": 24284,
            "contract": "contracts/core/connext/helpers/StableSwap.sol:StableSwap",
            "label": "adminFees",
            "offset": 0,
            "slot": "10",
            "type": "t_array(t_uint256)dyn_storage"
          }
        ],
        "numberOfBytes": "352"
      },
      "t_uint256": {
        "encoding": "inplace",
        "label": "uint256",
        "numberOfBytes": "32"
      },
      "t_uint8": {
        "encoding": "inplace",
        "label": "uint8",
        "numberOfBytes": "1"
      }
    }
  }
}