{
  "address": "0xfcc0287c35B11f785c8caF22b5e2535480f9639C",
  "abi": [
    {
      "inputs": [],
      "name": "BaseConnextFacet__getAdoptedAsset_notWhitelisted",
      "type": "error"
    },
    {
      "inputs": [],
      "name": "BaseConnextFacet__getApprovedCanonicalId_notWhitelisted",
      "type": "error"
    },
    {
      "inputs": [],
      "name": "BaseConnextFacet__nonReentrant_reentrantCall",
      "type": "error"
    },
    {
      "inputs": [],
      "name": "BaseConnextFacet__onlyBridgeRouter_notBridgeRouter",
      "type": "error"
    },
    {
      "inputs": [],
      "name": "BaseConnextFacet__onlyOwnerOrAdmin_notOwnerOrAdmin",
      "type": "error"
    },
    {
      "inputs": [],
      "name": "BaseConnextFacet__onlyOwnerOrRouter_notOwnerOrRouter",
      "type": "error"
    },
    {
      "inputs": [],
      "name": "BaseConnextFacet__onlyOwnerOrWatcher_notOwnerOrWatcher",
      "type": "error"
    },
    {
      "inputs": [],
      "name": "BaseConnextFacet__onlyOwner_notOwner",
      "type": "error"
    },
    {
      "inputs": [],
      "name": "BaseConnextFacet__onlyProposed_notProposedOwner",
      "type": "error"
    },
    {
      "inputs": [],
      "name": "BaseConnextFacet__whenNotPaused_paused",
      "type": "error"
    },
    {
      "inputs": [],
      "name": "StableSwapFacet__deadlineCheck_deadlineNotMet",
      "type": "error"
    },
    {
      "inputs": [],
      "name": "StableSwapFacet__getSwapTokenBalance_indexOutOfRange",
      "type": "error"
    },
    {
      "inputs": [],
      "name": "StableSwapFacet__getSwapTokenIndex_notExist",
      "type": "error"
    },
    {
      "inputs": [],
      "name": "StableSwapFacet__getSwapToken_outOfRange",
      "type": "error"
    },
    {
      "inputs": [
        {
          "internalType": "bytes32",
          "name": "key",
          "type": "bytes32"
        },
        {
          "internalType": "uint256[]",
          "name": "amounts",
          "type": "uint256[]"
        },
        {
          "internalType": "uint256",
          "name": "minToMint",
          "type": "uint256"
        },
        {
          "internalType": "uint256",
          "name": "deadline",
          "type": "uint256"
        }
      ],
      "name": "addSwapLiquidity",
      "outputs": [
        {
          "internalType": "uint256",
          "name": "",
          "type": "uint256"
        }
      ],
      "stateMutability": "nonpayable",
      "type": "function"
    },
    {
      "inputs": [
        {
          "internalType": "bytes32",
          "name": "key",
          "type": "bytes32"
        },
        {
          "internalType": "uint256",
          "name": "amount",
          "type": "uint256"
        }
      ],
      "name": "calculateRemoveSwapLiquidity",
      "outputs": [
        {
          "internalType": "uint256[]",
          "name": "",
          "type": "uint256[]"
        }
      ],
      "stateMutability": "view",
      "type": "function"
    },
    {
      "inputs": [
        {
          "internalType": "bytes32",
          "name": "key",
          "type": "bytes32"
        },
        {
          "internalType": "uint256",
          "name": "tokenAmount",
          "type": "uint256"
        },
        {
          "internalType": "uint8",
          "name": "tokenIndex",
          "type": "uint8"
        }
      ],
      "name": "calculateRemoveSwapLiquidityOneToken",
      "outputs": [
        {
          "internalType": "uint256",
          "name": "availableTokenAmount",
          "type": "uint256"
        }
      ],
      "stateMutability": "view",
      "type": "function"
    },
    {
      "inputs": [
        {
          "internalType": "bytes32",
          "name": "key",
          "type": "bytes32"
        },
        {
          "internalType": "uint8",
          "name": "tokenIndexFrom",
          "type": "uint8"
        },
        {
          "internalType": "uint8",
          "name": "tokenIndexTo",
          "type": "uint8"
        },
        {
          "internalType": "uint256",
          "name": "dx",
          "type": "uint256"
        }
      ],
      "name": "calculateSwap",
      "outputs": [
        {
          "internalType": "uint256",
          "name": "",
          "type": "uint256"
        }
      ],
      "stateMutability": "view",
      "type": "function"
    },
    {
      "inputs": [
        {
          "internalType": "bytes32",
          "name": "key",
          "type": "bytes32"
        },
        {
          "internalType": "uint256[]",
          "name": "amounts",
          "type": "uint256[]"
        },
        {
          "internalType": "bool",
          "name": "deposit",
          "type": "bool"
        }
      ],
      "name": "calculateSwapTokenAmount",
      "outputs": [
        {
          "internalType": "uint256",
          "name": "",
          "type": "uint256"
        }
      ],
      "stateMutability": "view",
      "type": "function"
    },
    {
      "inputs": [
        {
          "internalType": "bytes32",
          "name": "key",
          "type": "bytes32"
        }
      ],
      "name": "getSwapA",
      "outputs": [
        {
          "internalType": "uint256",
          "name": "",
          "type": "uint256"
        }
      ],
      "stateMutability": "view",
      "type": "function"
    },
    {
      "inputs": [
        {
          "internalType": "bytes32",
          "name": "key",
          "type": "bytes32"
        }
      ],
      "name": "getSwapAPrecise",
      "outputs": [
        {
          "internalType": "uint256",
          "name": "",
          "type": "uint256"
        }
      ],
      "stateMutability": "view",
      "type": "function"
    },
    {
      "inputs": [
        {
          "internalType": "bytes32",
          "name": "key",
          "type": "bytes32"
        },
        {
          "internalType": "uint256",
          "name": "index",
          "type": "uint256"
        }
      ],
      "name": "getSwapAdminBalance",
      "outputs": [
        {
          "internalType": "uint256",
          "name": "",
          "type": "uint256"
        }
      ],
      "stateMutability": "view",
      "type": "function"
    },
    {
      "inputs": [
        {
          "internalType": "bytes32",
          "name": "key",
          "type": "bytes32"
        }
      ],
      "name": "getSwapLPToken",
      "outputs": [
        {
          "internalType": "address",
          "name": "",
          "type": "address"
        }
      ],
      "stateMutability": "view",
      "type": "function"
    },
    {
      "inputs": [
        {
          "internalType": "bytes32",
          "name": "key",
          "type": "bytes32"
        }
      ],
      "name": "getSwapStorage",
      "outputs": [
        {
          "components": [
            {
              "internalType": "bytes32",
              "name": "key",
              "type": "bytes32"
            },
            {
              "internalType": "uint256",
              "name": "initialA",
              "type": "uint256"
            },
            {
              "internalType": "uint256",
              "name": "futureA",
              "type": "uint256"
            },
            {
              "internalType": "uint256",
              "name": "initialATime",
              "type": "uint256"
            },
            {
              "internalType": "uint256",
              "name": "futureATime",
              "type": "uint256"
            },
            {
              "internalType": "uint256",
              "name": "swapFee",
              "type": "uint256"
            },
            {
              "internalType": "uint256",
              "name": "adminFee",
              "type": "uint256"
            },
            {
              "internalType": "contract LPToken",
              "name": "lpToken",
              "type": "address"
            },
            {
              "internalType": "contract IERC20[]",
              "name": "pooledTokens",
              "type": "address[]"
            },
            {
              "internalType": "uint256[]",
              "name": "tokenPrecisionMultipliers",
              "type": "uint256[]"
            },
            {
              "internalType": "uint256[]",
              "name": "balances",
              "type": "uint256[]"
            },
            {
              "internalType": "uint256[]",
              "name": "adminFees",
              "type": "uint256[]"
            }
          ],
          "internalType": "struct SwapUtils.Swap",
          "name": "",
          "type": "tuple"
        }
      ],
      "stateMutability": "view",
      "type": "function"
    },
    {
      "inputs": [
        {
          "internalType": "bytes32",
          "name": "key",
          "type": "bytes32"
        },
        {
          "internalType": "uint8",
          "name": "index",
          "type": "uint8"
        }
      ],
      "name": "getSwapToken",
      "outputs": [
        {
          "internalType": "contract IERC20",
          "name": "",
          "type": "address"
        }
      ],
      "stateMutability": "view",
      "type": "function"
    },
    {
      "inputs": [
        {
          "internalType": "bytes32",
          "name": "key",
          "type": "bytes32"
        },
        {
          "internalType": "uint8",
          "name": "index",
          "type": "uint8"
        }
      ],
      "name": "getSwapTokenBalance",
      "outputs": [
        {
          "internalType": "uint256",
          "name": "",
          "type": "uint256"
        }
      ],
      "stateMutability": "view",
      "type": "function"
    },
    {
      "inputs": [
        {
          "internalType": "bytes32",
          "name": "key",
          "type": "bytes32"
        },
        {
          "internalType": "address",
          "name": "tokenAddress",
          "type": "address"
        }
      ],
      "name": "getSwapTokenIndex",
      "outputs": [
        {
          "internalType": "uint8",
          "name": "",
          "type": "uint8"
        }
      ],
      "stateMutability": "view",
      "type": "function"
    },
    {
      "inputs": [
        {
          "internalType": "bytes32",
          "name": "key",
          "type": "bytes32"
        }
      ],
      "name": "getSwapVirtualPrice",
      "outputs": [
        {
          "internalType": "uint256",
          "name": "",
          "type": "uint256"
        }
      ],
      "stateMutability": "view",
      "type": "function"
    },
    {
      "inputs": [
        {
          "internalType": "bytes32",
          "name": "key",
          "type": "bytes32"
        },
        {
          "internalType": "uint256",
          "name": "amount",
          "type": "uint256"
        },
        {
          "internalType": "uint256[]",
          "name": "minAmounts",
          "type": "uint256[]"
        },
        {
          "internalType": "uint256",
          "name": "deadline",
          "type": "uint256"
        }
      ],
      "name": "removeSwapLiquidity",
      "outputs": [
        {
          "internalType": "uint256[]",
          "name": "",
          "type": "uint256[]"
        }
      ],
      "stateMutability": "nonpayable",
      "type": "function"
    },
    {
      "inputs": [
        {
          "internalType": "bytes32",
          "name": "key",
          "type": "bytes32"
        },
        {
          "internalType": "uint256[]",
          "name": "amounts",
          "type": "uint256[]"
        },
        {
          "internalType": "uint256",
          "name": "maxBurnAmount",
          "type": "uint256"
        },
        {
          "internalType": "uint256",
          "name": "deadline",
          "type": "uint256"
        }
      ],
      "name": "removeSwapLiquidityImbalance",
      "outputs": [
        {
          "internalType": "uint256",
          "name": "",
          "type": "uint256"
        }
      ],
      "stateMutability": "nonpayable",
      "type": "function"
    },
    {
      "inputs": [
        {
          "internalType": "bytes32",
          "name": "key",
          "type": "bytes32"
        },
        {
          "internalType": "uint256",
          "name": "tokenAmount",
          "type": "uint256"
        },
        {
          "internalType": "uint8",
          "name": "tokenIndex",
          "type": "uint8"
        },
        {
          "internalType": "uint256",
          "name": "minAmount",
          "type": "uint256"
        },
        {
          "internalType": "uint256",
          "name": "deadline",
          "type": "uint256"
        }
      ],
      "name": "removeSwapLiquidityOneToken",
      "outputs": [
        {
          "internalType": "uint256",
          "name": "",
          "type": "uint256"
        }
      ],
      "stateMutability": "nonpayable",
      "type": "function"
    },
    {
      "inputs": [
        {
          "internalType": "bytes32",
          "name": "key",
          "type": "bytes32"
        },
        {
          "internalType": "uint8",
          "name": "tokenIndexFrom",
          "type": "uint8"
        },
        {
          "internalType": "uint8",
          "name": "tokenIndexTo",
          "type": "uint8"
        },
        {
          "internalType": "uint256",
          "name": "dx",
          "type": "uint256"
        },
        {
          "internalType": "uint256",
          "name": "minDy",
          "type": "uint256"
        },
        {
          "internalType": "uint256",
          "name": "deadline",
          "type": "uint256"
        }
      ],
      "name": "swap",
      "outputs": [
        {
          "internalType": "uint256",
          "name": "",
          "type": "uint256"
        }
      ],
      "stateMutability": "nonpayable",
      "type": "function"
    },
    {
      "inputs": [
        {
          "internalType": "bytes32",
          "name": "key",
          "type": "bytes32"
        },
        {
          "internalType": "uint256",
          "name": "amountIn",
          "type": "uint256"
        },
        {
          "internalType": "address",
          "name": "assetIn",
          "type": "address"
        },
        {
          "internalType": "address",
          "name": "assetOut",
          "type": "address"
        },
        {
          "internalType": "uint256",
          "name": "minAmountOut",
          "type": "uint256"
        },
        {
          "internalType": "uint256",
          "name": "deadline",
          "type": "uint256"
        }
      ],
      "name": "swapExact",
      "outputs": [
        {
          "internalType": "uint256",
          "name": "",
          "type": "uint256"
        }
      ],
      "stateMutability": "nonpayable",
      "type": "function"
    },
    {
      "inputs": [
        {
          "internalType": "bytes32",
          "name": "key",
          "type": "bytes32"
        },
        {
          "internalType": "uint256",
          "name": "amountOut",
          "type": "uint256"
        },
        {
          "internalType": "address",
          "name": "assetIn",
          "type": "address"
        },
        {
          "internalType": "address",
          "name": "assetOut",
          "type": "address"
        },
        {
          "internalType": "uint256",
          "name": "maxAmountIn",
          "type": "uint256"
        },
        {
          "internalType": "uint256",
          "name": "deadline",
          "type": "uint256"
        }
      ],
      "name": "swapExactOut",
      "outputs": [
        {
          "internalType": "uint256",
          "name": "",
          "type": "uint256"
        }
      ],
      "stateMutability": "nonpayable",
      "type": "function"
    }
  ],
  "transactionHash": "0x225c85425d5e7c84b94eb529d5fcc11838ad698cfb51f1093638ea664467e8eb",
  "args": [],
  "numDeployments": 1,
  "solcInputHash": "2cb19c6ff260c62b0df6791111e721e0",
  "bytecode": "0x608060405234801561001057600080fd5b50614e96806100206000396000f3fe608060405234801561001057600080fd5b506004361061012c5760003560e01c80638d365457116100ad578063b6618dff11610071578063b6618dff146102be578063bb0577eb146102d1578063d251dc35146102e4578063f495e807146102f7578063ff126de91461030a57600080fd5b80638d3654571461024d5780638f11d27f14610260578063a02288f414610273578063ad94911b14610286578063b3a4eab4146102ab57600080fd5b806374c6b89b116100f457806374c6b89b146101bd5780637652f59d146101d057806376ca2e52146101e357806380b297e8146101f65780638b480b121461020957600080fd5b80631301caa214610131578063241ca57a1461015757806329d99b101461016a5780632d91a5151461017d5780634bbcba8e1461019d575b600080fd5b61014461013f36600461465b565b61031d565b6040519081526020015b60405180910390f35b6101446101653660046146c9565b61033e565b61014461017836600461473d565b61040a565b61019061018b366004614772565b61042d565b60405161014e91906147ff565b6101b06101ab3660046148e0565b61067b565b60405161014e919061493b565b6101446101cb366004614965565b610707565b6101446101de366004614772565b6107b8565b6101446101f13660046149ce565b6107cf565b610144610204366004614965565b6107f4565b610235610217366004614772565b6000908152602160205260409020600701546001600160a01b031690565b6040516001600160a01b03909116815260200161014e565b61014461025b3660046146c9565b610894565b61014461026e366004614a2d565b610950565b6101b061028136600461465b565b61096a565b610299610294366004614a71565b610985565b60405160ff909116815260200161014e565b6102356102b9366004614a9d565b6109dd565b6101446102cc366004614ac0565b610a52565b6101446102df366004614a9d565b610ade565b6101446102f2366004614772565b610b4b565b610144610305366004614772565b610b62565b610144610318366004614b07565b610b79565b60008281526021602052604081206103359083610c06565b90505b92915050565b6020546000906001190161036557604051637ce54e2d60e11b815260040160405180910390fd5b6002602055814281101561038c576040516326f04e8b60e21b815260040160405180910390fd5b60235460ff16156103b057604051633ee5b89360e01b815260040160405180910390fd5b6103fa86868080602002602001604051908101604052809392919081815260200183836020028082843760009201829052508c815260216020526040902093925088915050610c4a565b6001602055979650505050505050565b6000838152602160205260408120610423908484611473565b90505b9392505050565b61049d6040518061018001604052806000801916815260200160008152602001600081526020016000815260200160008152602001600081526020016000815260200160006001600160a01b03168152602001606081526020016060815260200160608152602001606081525090565b600082815260216020908152604091829020825161018081018452815481526001820154818401526002820154818501526003820154606082015260048201546080820152600582015460a0820152600682015460c082015260078201546001600160a01b031660e082015260088201805485518186028101860190965280865291949293610100860193929083018282801561056357602002820191906000526020600020905b81546001600160a01b03168152600190910190602001808311610545575b50505050508152602001600982018054806020026020016040519081016040528092919081815260200182805480156105bb57602002820191906000526020600020905b8154815260200190600101908083116105a7575b50505050508152602001600a820180548060200260200160405190810160405280929190818152602001828054801561061357602002820191906000526020600020905b8154815260200190600101908083116105ff575b50505050508152602001600b820180548060200260200160405190810160405280929190818152602001828054801561066b57602002820191906000526020600020905b815481526020019060010190808311610657575b5050505050815250509050919050565b602054606090600119016106a257604051637ce54e2d60e11b815260040160405180910390fd5b600260205581428110156106c9576040516326f04e8b60e21b815260040160405180910390fd5b60235460ff16156106ed57604051633ee5b89360e01b815260040160405180910390fd5b60008781526021602052604090206103fa90878787611504565b6020546000906001190161072e57604051637ce54e2d60e11b815260040160405180910390fd5b60026020558142811015610755576040516326f04e8b60e21b815260040160405180910390fd5b60235460ff161561077957604051633ee5b89360e01b815260040160405180910390fd5b6107a76107868988610985565b6107908a88610985565b60008b815260216020526040902091908a8861188b565b600160205598975050505050505050565b600081815260216020526040812061033890611d7c565b60008481526021602052604081206107e990858585611d87565b90505b949350505050565b6020546000906001190161081b57604051637ce54e2d60e11b815260040160405180910390fd5b60026020558142811015610842576040516326f04e8b60e21b815260040160405180910390fd5b60235460ff161561086657604051633ee5b89360e01b815260040160405180910390fd5b6107a76108738988610985565b61087d8a88610985565b60008b815260216020526040902091908a8861200a565b602054600090600119016108bb57604051637ce54e2d60e11b815260040160405180910390fd5b600260205581428110156108e2576040516326f04e8b60e21b815260040160405180910390fd5b60235460ff161561090657604051633ee5b89360e01b815260040160405180910390fd5b6103fa86868080602002602001604051908101604052809392919081815260200183836020028082843760009201829052508c815260216020526040902093925088915050612488565b60008481526021602052604081206107e990858585612d59565b60008281526021602052604090206060906103359083612dba565b60008281526022602090815260408083206001600160a01b038516808552925282205460ff16906109b685836109dd565b6001600160a01b0316146103355760405163336752bb60e01b815260040160405180910390fd5b60008281526021602052604081206008015460ff831610610a105760405162e6731760e41b815260040160405180910390fd5b6000838152602160205260409020600801805460ff8416908110610a3657610a36614b5f565b6000918252602090912001546001600160a01b03169392505050565b60205460009060011901610a7957604051637ce54e2d60e11b815260040160405180910390fd5b60026020558142811015610aa0576040516326f04e8b60e21b815260040160405180910390fd5b60235460ff1615610ac457604051633ee5b89360e01b815260040160405180910390fd5b60008781526021602052604090206103fa90878787612e91565b6000828152602160205260408120600a015460ff831610610b1257604051634105699160e01b815260040160405180910390fd5b6000838152602160205260409020600a01805460ff8416908110610b3857610b38614b5f565b9060005260206000200154905092915050565b6000818152602160205260408120610338906131d1565b6000818152602160205260408120610338906131e8565b60205460009060011901610ba057604051637ce54e2d60e11b815260040160405180910390fd5b60026020558142811015610bc7576040516326f04e8b60e21b815260040160405180910390fd5b60235460ff1615610beb57604051633ee5b89360e01b815260040160405180910390fd5b60008881526021602052604090206107a7908888888861200a565b60088201546000908210610c355760405162461bcd60e51b8152600401610c2c90614b75565b60405180910390fd5b82600b018281548110610b3857610b38614b5f565b600080604051806101000160405280600081526020016000815260200160008152602001610c7787611d7c565b81526020018660070160009054906101000a90046001600160a01b03166001600160a01b031681526020016000815260200186600a01805480602002602001604051908101604052809291908181526020018280548015610cf757602002820191906000526020600020905b815481526020019060010190808311610ce3575b5050505050815260200186600901805480602002602001604051908101604052809291908181526020018280548015610d4f57602002820191906000526020600020905b815481526020019060010190808311610d3b575b5050505050815250905080608001516001600160a01b03166318160ddd6040518163ffffffff1660e01b8152600401602060405180830381865afa158015610d9b573d6000803e3d6000fd5b505050506040513d601f19601f82011682018060405250810190610dbf9190614ba1565b60a082015260088501548451808214610e115760405162461bcd60e51b81526020600482015260146024820152736d69736d6174636820706f6f6c20746f6b656e7360601b6044820152606401610c2c565b60808301516040516370a0823160e01b81523360048201526001600160a01b03909116906370a0823190602401602060405180830381865afa158015610e5b573d6000803e3d6000fd5b505050506040513d601f19601f82011682018060405250810190610e7f9190614ba1565b8511158015610e8d57508415155b610ea95760405162461bcd60e51b8152600401610c2c90614bba565b6000610eb98860050154846132bb565b905060008367ffffffffffffffff811115610ed657610ed6614be1565b604051908082528060200260200182016040528015610eff578160200160208202803683370190505b50905060008467ffffffffffffffff811115610f1d57610f1d614be1565b604051908082528060200260200182016040528015610f46578160200160208202803683370190505b509050610f68610f5e8760c001518860e001516132e7565b87606001516133f2565b865260005b8581101561105957898181518110610f8757610f87614b5f565b60200260200101518760c001518281518110610fa557610fa5614b5f565b60200260200101511015610ffb5760405162461bcd60e51b815260206004820152601c60248201527f7769746864726177206d6f7265207468616e20617661696c61626c65000000006044820152606401610c2c565b89818151811061100d5761100d614b5f565b60200260200101518760c00151828151811061102b5761102b614b5f565b60200260200101510382828151811061104657611046614b5f565b6020908102919091010152600101610f6d565b5061106b610f5e828860e001516132e7565b602087015260005b8581101561125c57600087600001518860c00151838151811061109857611098614b5f565b602002602001015189602001516110af9190614c0d565b6110b99190614c2c565b905060006110e98484815181106110d2576110d2614b5f565b60200260200101518361359f90919063ffffffff16565b90506402540be4006110fb8288614c0d565b6111059190614c2c565b85848151811061111757611117614b5f565b602002602001018181525050505060006402540be4008c6006015485848151811061114457611144614b5f565b60200260200101516111569190614c0d565b6111609190614c2c565b90508083838151811061117557611175614b5f565b60200260200101516111879190614c4e565b8c600a01838154811061119c5761119c614b5f565b9060005260206000200181905550808c600b0183815481106111c0576111c0614b5f565b90600052602060002001546111d59190614c65565b8c600b0183815481106111ea576111ea614b5f565b906000526020600020018190555083828151811061120a5761120a614b5f565b602002602001015183838151811061122457611224614b5f565b60200260200101516112369190614c4e565b83838151811061124857611248614b5f565b602090810291909101015250600101611073565b5061126e610f5e828860e001516132e7565b60408701819052865160a088015160009350909161128c9083614c4e565b6112969190614c0d565b6112a09190614c2c565b9050806000036112e15760405162461bcd60e51b815260206004820152600c60248201526b085e995c9bc8185b5bdd5b9d60a21b6044820152606401610c2c565b6112ec816001614c65565b90508781111561133e5760405162461bcd60e51b815260206004820152601b60248201527f746f6b656e416d6f756e74203e206d61784275726e416d6f756e7400000000006044820152606401610c2c565b608086015160405163079cc67960e41b8152336004820152602481018390526001600160a01b03909116906379cc679090604401600060405180830381600087803b15801561138c57600080fd5b505af11580156113a0573d6000803e3d6000fd5b5050505060005b85811015611406576113fe338b83815181106113c5576113c5614b5f565b60200260200101518d60080184815481106113e2576113e2614b5f565b6000918252602090912001546001600160a01b031691906135c4565b6001016113a7565b50336001600160a01b03168a600001547fa404896827f41a3845de89f154bf1f4fe5cbdf79da7c7805263a3d0b7de9e6728b858a60200151868c60a0015161144e9190614c4e565b60405161145e9493929190614c7d565b60405180910390a39998505050505050505050565b6000806114fa8585858860070160009054906101000a90046001600160a01b03166001600160a01b03166318160ddd6040518163ffffffff1660e01b8152600401602060405180830381865afa1580156114d1573d6000803e3d6000fd5b505050506040513d601f19601f820116820180604052508101906114f59190614ba1565b61362c565b5095945050505050565b60078401546040516370a0823160e01b81523360048201526060916001600160a01b03169081906370a0823190602401602060405180830381865afa158015611551573d6000803e3d6000fd5b505050506040513d601f19601f820116820180604052508101906115759190614ba1565b8511156115945760405162461bcd60e51b8152600401610c2c90614bba565b60088601548381146115de5760405162461bcd60e51b81526020600482015260136024820152726d69736d6174636820706f6f6c546f6b656e7360681b6044820152606401610c2c565b600087600a0180548060200260200160405190810160405280929190818152602001828054801561162e57602002820191906000526020600020905b81548152602001906001019080831161161a575b505050505090506000836001600160a01b03166318160ddd6040518163ffffffff1660e01b8152600401602060405180830381865afa158015611675573d6000803e3d6000fd5b505050506040513d601f19601f820116820180604052508101906116999190614ba1565b905060006116a8838a846136a3565b805190915060005b818110156117d5578989828181106116ca576116ca614b5f565b905060200201358382815181106116e3576116e3614b5f565b602002602001015110156117395760405162461bcd60e51b815260206004820152601a60248201527f616d6f756e74735b695d203c206d696e416d6f756e74735b695d0000000000006044820152606401610c2c565b82818151811061174b5761174b614b5f565b602002602001015185828151811061176557611765614b5f565b60200260200101516117779190614c4e565b8c600a01828154811061178c5761178c614b5f565b90600052602060002001819055506117cd338483815181106117b0576117b0614b5f565b60200260200101518e60080184815481106113e2576113e2614b5f565b6001016116b0565b5060405163079cc67960e41b8152336004820152602481018b90526001600160a01b038716906379cc679090604401600060405180830381600087803b15801561181e57600080fd5b505af1158015611832573d6000803e3d6000fd5b50508c5433925090507f58f96d387ac27c23fb6350424cb6b032322b14ffd82029e96aeed2c525e790e8846118678e88614c4e565b604051611875929190614cb6565b60405180910390a3509998505050505050505050565b600085600a018460ff16815481106118a5576118a5614b5f565b90600052602060002001548311156118ef5760405162461bcd60e51b815260206004820152600d60248201526c3e706f6f6c2062616c616e636560981b6044820152606401610c2c565b600080600088600a0180548060200260200160405190810160405280929190818152602001828054801561194257602002820191906000526020600020905b81548152602001906001019080831161192e575b505050505090506119568989898985613794565b9093509150848311156119985760405162461bcd60e51b815260206004820152600a6024820152690c8f0407c40dac2f088f60b31b6044820152606401610c2c565b6000896009018960ff16815481106119b2576119b2614b5f565b90600052602060002001546402540be4008b60060154856119d39190614c0d565b6119dd9190614c2c565b6119e79190614c2c565b90508084838b60ff1681518110611a0057611a00614b5f565b6020026020010151611a129190614c65565b611a1c9190614c4e565b8a600a018a60ff1681548110611a3457611a34614b5f565b906000526020600020018190555086828960ff1681518110611a5857611a58614b5f565b6020026020010151611a6a9190614c4e565b8a600a018960ff1681548110611a8257611a82614b5f565b6000918252602090912001558015611ae757808a600b018a60ff1681548110611aad57611aad614b5f565b9060005260206000200154611ac29190614c65565b8a600b018a60ff1681548110611ada57611ada614b5f565b6000918252602090912001555b60008a6008018a60ff1681548110611b0157611b01614b5f565b6000918252602090912001546040516370a0823160e01b81523360048201526001600160a01b03909116915081906370a0823190602401602060405180830381865afa158015611b55573d6000803e3d6000fd5b505050506040513d601f19601f82011682018060405250810190611b799190614ba1565b851115611bbc5760405162461bcd60e51b815260206004820152601160248201527036b7b932903a3430b7103cb7ba9037bbb760791b6044820152606401610c2c565b6040516370a0823160e01b81523060048201526000906001600160a01b038316906370a0823190602401602060405180830381865afa158015611c03573d6000803e3d6000fd5b505050506040513d601f19601f82011682018060405250810190611c279190614ba1565b9050611c3e6001600160a01b0383163330896139b3565b6040516370a0823160e01b815230600482015281906001600160a01b038416906370a0823190602401602060405180830381865afa158015611c84573d6000803e3d6000fd5b505050506040513d601f19601f82011682018060405250810190611ca89190614ba1565b611cb29190614c4e565b8614611cf85760405162461bcd60e51b81526020600482015260156024820152743737ba1039bab83837b93a103332b2903a37b5b2b760591b6044820152606401610c2c565b5050611d1733888c6008018b60ff16815481106113e2576113e2614b5f565b895460408051868152602081018a905260ff808d1692820192909252908a1660608201523391907f28d4cf2d5709da3b474b5f05cfd7083faffd601f9500d1f8439b8a13ec7df320906080015b60405180910390a35091925050505b95945050505050565b6000610338826139f1565b600080611d9386611d7c565b9050600086600a01805480602002602001604051908101604052809291908181526020018280548015611de557602002820191906000526020600020905b815481526020019060010190808311611dd1575b50505050509050600087600901805480602002602001604051908101604052809291908181526020018280548015611e3c57602002820191906000526020600020905b815481526020019060010190808311611e28575b505050505090506000825190506000611e5e611e5885856132e7565b866133f2565b905060005b82811015611f35578715611ed157898982818110611e8357611e83614b5f565b90506020020135858281518110611e9c57611e9c614b5f565b6020026020010151611eae9190614c65565b858281518110611ec057611ec0614b5f565b602002602001018181525050611f2d565b898982818110611ee357611ee3614b5f565b90506020020135858281518110611efc57611efc614b5f565b6020026020010151611f0e9190614c4e565b858281518110611f2057611f20614b5f565b6020026020010181815250505b600101611e63565b506000611f4b611f4586866132e7565b876133f2565b905060008b60070160009054906101000a90046001600160a01b03166001600160a01b03166318160ddd6040518163ffffffff1660e01b8152600401602060405180830381865afa158015611fa4573d6000803e3d6000fd5b505050506040513d601f19601f82011682018060405250810190611fc89190614ba1565b90508815611ffe578281611fdc8285614c4e565b611fe69190614c0d565b611ff09190614c2c565b9750505050505050506107ec565b8281611fdc8483614c4e565b600080866008018660ff168154811061202557612025614b5f565b6000918252602090912001546040516370a0823160e01b81523360048201526001600160a01b03909116915081906370a0823190602401602060405180830381865afa158015612079573d6000803e3d6000fd5b505050506040513d601f19601f8201168201806040525081019061209d9190614ba1565b8411156120e55760405162461bcd60e51b815260206004820152601660248201527539bbb0b81036b7b932903a3430b7103cb7ba9037bbb760511b6044820152606401610c2c565b6040516370a0823160e01b81523060048201526000906001600160a01b038316906370a0823190602401602060405180830381865afa15801561212c573d6000803e3d6000fd5b505050506040513d601f19601f820116820180604052508101906121509190614ba1565b90506121676001600160a01b0383163330886139b3565b6040516370a0823160e01b815230600482015281906001600160a01b038416906370a0823190602401602060405180830381865afa1580156121ad573d6000803e3d6000fd5b505050506040513d601f19601f820116820180604052508101906121d19190614ba1565b6121db9190614c4e565b85146122205760405162461bcd60e51b81526020600482015260146024820152731b9bc8199959481d1bdad95b881cdd5c1c1bdc9d60621b6044820152606401610c2c565b5050600080600088600a0180548060200260200160405190810160405280929190818152602001828054801561227557602002820191906000526020600020905b815481526020019060010190808311612261575b505050505090506122898989898985613a9b565b9093509150848310156122cb5760405162461bcd60e51b815260206004820152600a6024820152696479203c206d696e447960b01b6044820152606401610c2c565b6000896009018860ff16815481106122e5576122e5614b5f565b90600052602060002001546402540be4008b60060154856123069190614c0d565b6123109190614c2c565b61231a9190614c2c565b905086828a60ff168151811061233257612332614b5f565b60200260200101516123449190614c65565b8a600a018a60ff168154811061235c5761235c614b5f565b90600052602060002001819055508084838a60ff168151811061238157612381614b5f565b60200260200101516123939190614c4e565b61239d9190614c4e565b8a600a018960ff16815481106123b5576123b5614b5f565b600091825260209091200155801561241a57808a600b018960ff16815481106123e0576123e0614b5f565b90600052602060002001546123f59190614c65565b8a600b018960ff168154811061240d5761240d614b5f565b6000918252602090912001555b61243733858c6008018b60ff16815481106113e2576113e2614b5f565b8954604080518981526020810187905260ff808d1692820192909252908a1660608201523391907f28d4cf2d5709da3b474b5f05cfd7083faffd601f9500d1f8439b8a13ec7df32090608001611d64565b600883015482516000919081146124da5760405162461bcd60e51b81526020600482015260166024820152756d69736d6174636820706f6f6c656420746f6b656e7360501b6044820152606401610c2c565b600060405180610100016040528060008152602001600081526020016000815260200161250688611d7c565b81526020018760070160009054906101000a90046001600160a01b03166001600160a01b031681526020016000815260200187600a0180548060200260200160405190810160405280929190818152602001828054801561258657602002820191906000526020600020905b815481526020019060010190808311612572575b50505050508152602001876009018054806020026020016040519081016040528092919081815260200182805480156125de57602002820191906000526020600020905b8154815260200190600101908083116125ca575b5050505050815250905080608001516001600160a01b03166318160ddd6040518163ffffffff1660e01b8152600401602060405180830381865afa15801561262a573d6000803e3d6000fd5b505050506040513d601f19601f8201168201806040525081019061264e9190614ba1565b60a082018190521561267c5761267961266f8260c001518360e001516132e7565b82606001516133f2565b81525b60008267ffffffffffffffff81111561269757612697614be1565b6040519080825280602002602001820160405280156126c0578160200160208202803683370190505b50905060005b838110156129215760a08301511515806126fa57508681815181106126ed576126ed614b5f565b6020026020010151600014155b61273b5760405162461bcd60e51b815260206004820152601260248201527121737570706c7920616c6c20746f6b656e7360701b6044820152606401610c2c565b86818151811061274d5761274d614b5f565b60200260200101516000146128ba57600088600801828154811061277357612773614b5f565b60009182526020822001546040516370a0823160e01b81523060048201526001600160a01b03909116925082906370a0823190602401602060405180830381865afa1580156127c6573d6000803e3d6000fd5b505050506040513d601f19601f820116820180604052508101906127ea9190614ba1565b905061282533308b868151811061280357612803614b5f565b6020026020010151856001600160a01b03166139b3909392919063ffffffff16565b6040516370a0823160e01b815230600482015281906001600160a01b038416906370a0823190602401602060405180830381865afa15801561286b573d6000803e3d6000fd5b505050506040513d601f19601f8201168201806040525081019061288f9190614ba1565b6128999190614c4e565b8984815181106128ab576128ab614b5f565b60200260200101818152505050505b8681815181106128cc576128cc614b5f565b60200260200101518360c0015182815181106128ea576128ea614b5f565b60200260200101516128fc9190614c65565b82828151811061290e5761290e614b5f565b60209081029190910101526001016126c6565b5061293d612933828460e001516132e7565b83606001516133f2565b602083018190528251106129875760405162461bcd60e51b8152602060048201526011602482015270442073686f756c6420696e63726561736560781b6044820152606401610c2c565b6020820151604083015260008367ffffffffffffffff8111156129ac576129ac614be1565b6040519080825280602002602001820160405280156129d5578160200160208202803683370190505b5090508260a00151600014612bed5760006129f48960050154866132bb565b905060005b85811015612bc657600085600001518660c001518381518110612a1e57612a1e614b5f565b60200260200101518760200151612a359190614c0d565b612a3f9190614c2c565b90506402540be400612a5c8684815181106110d2576110d2614b5f565b612a669085614c0d565b612a709190614c2c565b848381518110612a8257612a82614b5f565b60200260200101818152505060006402540be4008c60060154868581518110612aad57612aad614b5f565b6020026020010151612abf9190614c0d565b612ac99190614c2c565b905080868481518110612ade57612ade614b5f565b6020026020010151612af09190614c4e565b8c600a018481548110612b0557612b05614b5f565b9060005260206000200181905550808c600b018481548110612b2957612b29614b5f565b9060005260206000200154612b3e9190614c65565b8c600b018481548110612b5357612b53614b5f565b9060005260206000200181905550848381518110612b7357612b73614b5f565b6020026020010151868481518110612b8d57612b8d614b5f565b6020026020010151612b9f9190614c4e565b868481518110612bb157612bb1614b5f565b602090810291909101015250506001016129f9565b50612be2612bd8848660e001516132e7565b85606001516133f2565b604085015250612c04565b8151612c0290600a8a019060208501906145fb565b505b60008360a00151600003612c1d57506020830151612c4b565b835160a08501516040860151612c34908390614c4e565b612c3e9190614c0d565b612c489190614c2c565b90505b86811015612c885760405162461bcd60e51b815260206004820152600a60248201526936b4b73a101e1036b4b760b11b6044820152606401610c2c565b60808401516040516340c10f1960e01b8152336004820152602481018390526001600160a01b03909116906340c10f1990604401600060405180830381600087803b158015612cd657600080fd5b505af1158015612cea573d6000803e3d6000fd5b50505050336001600160a01b031689600001547fbcb1ab680ee25ef87d34ec297263a10e0a823cd81326b0aa6bc55b86cb2a41888a858860200151868a60a00151612d359190614c65565b604051612d459493929190614c7d565b60405180910390a398975050505050505050565b60006114fa8585858589600a01805480602002602001604051908101604052809291908181526020018280548015612db057602002820191906000526020600020905b815481526020019060010190808311612d9c575b5050505050613a9b565b606061033583600a01805480602002602001604051908101604052809291908181526020018280548015612e0d57602002820191906000526020600020905b815481526020019060010190808311612df9575b5050505050838560070160009054906101000a90046001600160a01b03166001600160a01b03166318160ddd6040518163ffffffff1660e01b8152600401602060405180830381865afa158015612e68573d6000803e3d6000fd5b505050506040513d601f19601f82011682018060405250810190612e8c9190614ba1565b6136a3565b60078401546040516370a0823160e01b81523360048201526000916001600160a01b03169081906370a0823190602401602060405180830381865afa158015612ede573d6000803e3d6000fd5b505050506040513d601f19601f82011682018060405250810190612f029190614ba1565b851115612f215760405162461bcd60e51b8152600401610c2c90614bba565b600886015460ff85168111612f645760405162461bcd60e51b81526020600482015260096024820152681b9bdd08199bdd5b9960ba1b6044820152606401610c2c565b6000826001600160a01b03166318160ddd6040518163ffffffff1660e01b8152600401602060405180830381865afa158015612fa4573d6000803e3d6000fd5b505050506040513d601f19601f82011682018060405250810190612fc89190614ba1565b9050600080612fd98a8a8a8661362c565b915091508682101561301e5760405162461bcd60e51b815260206004820152600e60248201526d191e480f081b5a5b905b5bdd5b9d60921b6044820152606401610c2c565b60006402540be4008b60060154836130369190614c0d565b6130409190614c2c565b905061304c8184614c65565b8b600a018a60ff168154811061306457613064614b5f565b90600052602060002001546130799190614c4e565b8b600a018a60ff168154811061309157613091614b5f565b60009182526020909120015580156130f657808b600b018a60ff16815481106130bc576130bc614b5f565b90600052602060002001546130d19190614c65565b8b600b018a60ff16815481106130e9576130e9614b5f565b6000918252602090912001555b60405163079cc67960e41b8152336004820152602481018b90526001600160a01b038716906379cc679090604401600060405180830381600087803b15801561313e57600080fd5b505af1158015613152573d6000803e3d6000fd5b5050505061317333848d6008018c60ff16815481106113e2576113e2614b5f565b8a54604080518c81526020810187905260ff8c16818301526060810186905290513392917f1a66f6ea1c14e22a62ab434f3414908bb5f49133d673c872c8957aa961e4c215919081900360800190a350909998505050505050505050565b600060646131de836139f1565b6103389190614c2c565b6000806132056131f784613c3c565b61320085611d7c565b6133f2565b905060008360070160009054906101000a90046001600160a01b031690506000816001600160a01b03166318160ddd6040518163ffffffff1660e01b8152600401602060405180830381865afa158015613263573d6000803e3d6000fd5b505050506040513d601f19601f820116820180604052508101906132879190614ba1565b905080156132b0578061329c6012600a614dbc565b6132a69085614c0d565b611d739190614c2c565b506000949350505050565b60006132c8600183614c4e565b6132d3906004614c0d565b6132dd8385614c0d565b6103359190614c2c565b815181516060919081146133345760405162461bcd60e51b81526020600482015260146024820152736d69736d61746368206d756c7469706c6965727360601b6044820152606401610c2c565b60008167ffffffffffffffff81111561334f5761334f614be1565b604051908082528060200260200182016040528015613378578160200160208202803683370190505b50905060005b828110156133e95784818151811061339857613398614b5f565b60200260200101518682815181106133b2576133b2614b5f565b60200260200101516133c49190614c0d565b8282815181106133d6576133d6614b5f565b602090810291909101015260010161337e565b50949350505050565b815160009081805b828110156134315785818151811061341457613414614b5f565b6020026020010151826134279190614c65565b91506001016133fa565b508060000361344557600092505050610338565b600081816134538588614c0d565b905060005b610100811015613560578260005b878110156134b157878b828151811061348157613481614b5f565b60200260200101516134939190614c0d565b61349d8684614c0d565b6134a79190614c2c565b9150600101613466565b50839450808760016134c39190614c65565b6134cd9190614c0d565b6064856134da8287614c4e565b6134e49190614c0d565b6134ee9190614c2c565b6134f89190614c65565b846135038984614c0d565b606461350f8a88614c0d565b6135199190614c2c565b6135239190614c65565b61352d9190614c0d565b6135379190614c2c565b93506135438486613cec565b156135575783975050505050505050610338565b50600101613458565b5060405162461bcd60e51b81526020600482015260136024820152724420646f6573206e6f7420636f6e766572676560681b6044820152606401610c2c565b6000818311156135ba576135b38284614c4e565b9050610338565b6103358383614c4e565b6040516001600160a01b03831660248201526044810182905261362790849063a9059cbb60e01b906064015b60408051601f198184030181529190526020810180516001600160e01b03166001600160e01b031990931692909217909152613d03565b505050565b600080600080600061364089888a89613dd5565b8093508194508295505050506000838a6009018960ff168154811061366757613667614b5f565b9060005260206000200154848461367e9190614c4e565b6136889190614c2c565b6136929190614c4e565b939a93995092975050505050505050565b6060818311156136eb5760405162461bcd60e51b815260206004820152601360248201527265786365656420746f74616c20737570706c7960681b6044820152606401610c2c565b835160008167ffffffffffffffff81111561370857613708614be1565b604051908082528060200260200182016040528015613731578160200160208202803683370190505b50905060005b828110156114fa57848688838151811061375357613753614b5f565b60200260200101516137659190614c0d565b61376f9190614c2c565b82828151811061378157613781614b5f565b6020908102919091010152600101613737565b6000808460ff168660ff16036137e65760405162461bcd60e51b815260206004820152601760248201527631b7b6b830b932903a37b5b2b7103a379034ba39b2b63360491b6044820152606401610c2c565b60008760090180548060200260200160405190810160405280929190818152602001828054801561383657602002820191906000526020600020905b815481526020019060010190808311613822575b50505050509050600061384985836132e7565b905080518860ff16108015613861575080518760ff16105b61387d5760405162461bcd60e51b8152600401610c2c90614b75565b60006138888a611d7c565b9050600061389683836133f2565b9050838960ff16815181106138ad576138ad614b5f565b6020026020010151886138c09190614c0d565b838a60ff16815181106138d5576138d5614b5f565b60200260200101516138e79190614c4e565b838a60ff16815181106138fc576138fc614b5f565b6020026020010181815250506000613916838c86856140e0565b9050838b60ff168151811061392d5761392d614b5f565b6020026020010151816139409190614c4e565b61394b906001614c65565b96506402540be4008c60050154886139639190614c0d565b61396d9190614c2c565b9550848b60ff168151811061398457613984614b5f565b602002602001015186886139989190614c65565b6139a29190614c2c565b965050505050509550959350505050565b6040516001600160a01b03808516602483015283166044820152606481018290526139eb9085906323b872dd60e01b906084016135f0565b50505050565b600481015460028201546000919042821115610426576003840154600185015480831115613a5f57613a238285614c4e565b613a2d8342614c4e565b613a378386614c4e565b613a419190614c0d565b613a4b9190614c2c565b613a559082614c65565b9695505050505050565b613a698285614c4e565b613a738342614c4e565b613a7d8584614c4e565b613a879190614c0d565b613a919190614c2c565b613a559082614c4e565b600080600087600901805480602002602001604051908101604052809291908181526020018280548015613aee57602002820191906000526020600020905b815481526020019060010190808311613ada575b505050505090506000613b0185836132e7565b905080518860ff16108015613b19575080518760ff16105b613b355760405162461bcd60e51b8152600401610c2c90614b75565b6000818960ff1681518110613b4c57613b4c614b5f565b6020026020010151838a60ff1681518110613b6957613b69614b5f565b602002602001015188613b7c9190614c0d565b613b869190614c65565b90506000613b9f613b968c611d7c565b8b8b85876142cf565b9050600181848b60ff1681518110613bb957613bb9614b5f565b6020026020010151613bcb9190614c4e565b613bd59190614c4e565b95506402540be4008b6005015487613bed9190614c0d565b613bf79190614c2c565b9450838960ff1681518110613c0e57613c0e614b5f565b60200260200101518587613c229190614c4e565b613c2c9190614c2c565b9550505050509550959350505050565b606061033882600a01805480602002602001604051908101604052809291908181526020018280548015613c8f57602002820191906000526020600020905b815481526020019060010190808311613c7b575b505050505083600901805480602002602001604051908101604052809291908181526020018280548015613ce257602002820191906000526020600020905b815481526020019060010190808311613cce575b50505050506132e7565b60006001613cfa848461359f565b11159392505050565b6000613d58826040518060400160405280602081526020017f5361666545524332303a206c6f772d6c6576656c2063616c6c206661696c6564815250856001600160a01b03166144e79092919063ffffffff16565b8051909150156136275780806020019051810190613d769190614dc8565b6136275760405162461bcd60e51b815260206004820152602a60248201527f5361666545524332303a204552433230206f7065726174696f6e20646964206e6044820152691bdd081cdd58d8d9595960b21b6064820152608401610c2c565b600080600080613de488613c3c565b905080518760ff1610613e095760405162461bcd60e51b8152600401610c2c90614b75565b60006040518060a001604052806000815260200160008152602001600081526020016000815260200160008152509050613e4289611d7c565b60808201819052613e549083906133f2565b8082528690613e639089614c0d565b613e6d9190614c2c565b8151613e799190614c4e565b60208201528151829060ff8a16908110613e9557613e95614b5f565b6020026020010151871115613ee05760405162461bcd60e51b81526020600482015260116024820152706578636565647320617661696c61626c6560781b6044820152606401610c2c565b613ef48160800151898484602001516140e0565b6040820152815160009067ffffffffffffffff811115613f1657613f16614be1565b604051908082528060200260200182016040528015613f3f578160200160208202803683370190505b509050613f518a6005015484516132bb565b606083015260005b835181101561402d576000848281518110613f7657613f76614b5f565b602002602001015190506402540be40084606001518c60ff168414613fbf5785516020870151613fa69085614c0d565b613fb09190614c2c565b613fba9084614c4e565b613fe9565b604086015186516020880151613fd59086614c0d565b613fdf9190614c2c565b613fe99190614c4e565b613ff39190614c0d565b613ffd9190614c2c565b6140079082614c4e565b83838151811061401957614019614b5f565b602090810291909101015250600101613f59565b50600061404483608001518b8486602001516140e0565b828b60ff168151811061405957614059614b5f565b602002602001015161406b9190614c4e565b90508a6009018a60ff168154811061408557614085614b5f565b906000526020600020015460018261409d9190614c4e565b6140a79190614c2c565b9050808360400151858c60ff16815181106140c4576140c4614b5f565b6020026020010151965096509650505050509450945094915050565b815160009060ff851681116141295760405162461bcd60e51b815260206004820152600f60248201526e151bdad95b881b9bdd08199bdd5b99608a1b6044820152606401610c2c565b82600080614137848a614c0d565b905060005b848110156141b9578860ff1681146141b15787818151811061416057614160614b5f565b6020026020010151836141739190614c65565b92508488828151811061418857614188614b5f565b602002602001015161419a9190614c0d565b6141a48886614c0d565b6141ae9190614c2c565b93505b60010161413c565b506141c48482614c0d565b60646141d08886614c0d565b6141da9190614c0d565b6141e49190614c2c565b92506000816141f4606489614c0d565b6141fe9190614c2c565b6142089084614c65565b9050600087815b61010081101561428657819250898483600261422b9190614c0d565b6142359190614c65565b61423f9190614c4e565b8761424a8480614c0d565b6142549190614c65565b61425e9190614c2c565b915061426a8284613cec565b1561427e575096506107ec95505050505050565b60010161420f565b5060405162461bcd60e51b815260206004820152601e60248201527f417070726f78696d6174696f6e20646964206e6f7420636f6e766572676500006044820152606401610c2c565b805160009060ff808616908716036143235760405162461bcd60e51b815260206004820152601760248201527631b7b6b830b932903a37b5b2b7103a379034ba39b2b63360491b6044820152606401610c2c565b808660ff161080156143375750808560ff16105b6143755760405162461bcd60e51b815260206004820152600f60248201526e1d1bdad95b881b9bdd08199bdd5b99608a1b6044820152606401610c2c565b600061438184896133f2565b9050806000806143918b86614c0d565b90506000805b86811015614418578b60ff1681036143b1578991506143e4565b8a60ff1681146143dc578881815181106143cd576143cd614b5f565b602002602001015191506143e4565b600101614397565b6143ee8285614c65565b93506143fa8783614c0d565b6144048787614c0d565b61440e9190614c2c565b9450600101614397565b506144238683614c0d565b606461442f8787614c0d565b6144399190614c0d565b6144439190614c2c565b9350600082614453606488614c0d565b61445d9190614c2c565b6144679085614c65565b9050600086815b61010081101561428657819250888483600261448a9190614c0d565b6144949190614c65565b61449e9190614c4e565b886144a98480614c0d565b6144b39190614c65565b6144bd9190614c2c565b91506144c98284613cec565b156144df57509850611d73975050505050505050565b60010161446e565b60606104238484600085856001600160a01b0385163b6145495760405162461bcd60e51b815260206004820152601d60248201527f416464726573733a2063616c6c20746f206e6f6e2d636f6e74726163740000006044820152606401610c2c565b600080866001600160a01b031685876040516145659190614e11565b60006040518083038185875af1925050503d80600081146145a2576040519150601f19603f3d011682016040523d82523d6000602084013e6145a7565b606091505b50915091506145b78282866145c2565b979650505050505050565b606083156145d1575081610426565b8251156145e15782518084602001fd5b8160405162461bcd60e51b8152600401610c2c9190614e2d565b828054828255906000526020600020908101928215614636579160200282015b8281111561463657825182559160200191906001019061461b565b50614642929150614646565b5090565b5b808211156146425760008155600101614647565b6000806040838503121561466e57600080fd5b50508035926020909101359150565b60008083601f84011261468f57600080fd5b50813567ffffffffffffffff8111156146a757600080fd5b6020830191508360208260051b85010111156146c257600080fd5b9250929050565b6000806000806000608086880312156146e157600080fd5b85359450602086013567ffffffffffffffff8111156146ff57600080fd5b61470b8882890161467d565b9699909850959660408101359660609091013595509350505050565b803560ff8116811461473857600080fd5b919050565b60008060006060848603121561475257600080fd5b833592506020840135915061476960408501614727565b90509250925092565b60006020828403121561478457600080fd5b5035919050565b600081518084526020808501945080840160005b838110156147c45781516001600160a01b03168752958201959082019060010161479f565b509495945050505050565b600081518084526020808501945080840160005b838110156147c4578151875295820195908201906001016147e3565b6020815281516020820152602082015160408201526040820151606082015260608201516080820152608082015160a082015260a082015160c082015260c082015160e0820152600060e0830151610100614864818501836001600160a01b03169052565b8085015191505061018061012081818601526148846101a086018461478b565b9250808601519050601f196101408187860301818801526148a585846147cf565b9450808801519250506101608187860301818801526148c485846147cf565b908801518782039092018488015293509050613a5583826147cf565b6000806000806000608086880312156148f857600080fd5b8535945060208601359350604086013567ffffffffffffffff81111561491d57600080fd5b6149298882890161467d565b96999598509660600135949350505050565b60208152600061033560208301846147cf565b80356001600160a01b038116811461473857600080fd5b60008060008060008060c0878903121561497e57600080fd5b86359550602087013594506149956040880161494e565b93506149a36060880161494e565b92506080870135915060a087013590509295509295509295565b80151581146149cb57600080fd5b50565b600080600080606085870312156149e457600080fd5b84359350602085013567ffffffffffffffff811115614a0257600080fd5b614a0e8782880161467d565b9094509250506040850135614a22816149bd565b939692955090935050565b60008060008060808587031215614a4357600080fd5b84359350614a5360208601614727565b9250614a6160408601614727565b9396929550929360600135925050565b60008060408385031215614a8457600080fd5b82359150614a946020840161494e565b90509250929050565b60008060408385031215614ab057600080fd5b82359150614a9460208401614727565b600080600080600060a08688031215614ad857600080fd5b8535945060208601359350614aef60408701614727565b94979396509394606081013594506080013592915050565b60008060008060008060c08789031215614b2057600080fd5b86359550614b3060208801614727565b9450614b3e60408801614727565b9350606087013592506080870135915060a087013590509295509295509295565b634e487b7160e01b600052603260045260246000fd5b602080825260129082015271696e646578206f7574206f662072616e676560701b604082015260600190565b600060208284031215614bb357600080fd5b5051919050565b6020808252600d908201526c1f2628173130b630b731b2a7b360991b604082015260600190565b634e487b7160e01b600052604160045260246000fd5b634e487b7160e01b600052601160045260246000fd5b6000816000190483118215151615614c2757614c27614bf7565b500290565b600082614c4957634e487b7160e01b600052601260045260246000fd5b500490565b600082821015614c6057614c60614bf7565b500390565b60008219821115614c7857614c78614bf7565b500190565b608081526000614c9060808301876147cf565b8281036020840152614ca281876147cf565b604084019590955250506060015292915050565b604081526000614cc960408301856147cf565b90508260208301529392505050565b600181815b80851115614d13578160001904821115614cf957614cf9614bf7565b80851615614d0657918102915b93841c9390800290614cdd565b509250929050565b600082614d2a57506001610338565b81614d3757506000610338565b8160018114614d4d5760028114614d5757614d73565b6001915050610338565b60ff841115614d6857614d68614bf7565b50506001821b610338565b5060208310610133831016604e8410600b8410161715614d96575081810a610338565b614da08383614cd8565b8060001904821115614db457614db4614bf7565b029392505050565b60006103358383614d1b565b600060208284031215614dda57600080fd5b8151610335816149bd565b60005b83811015614e00578181015183820152602001614de8565b838111156139eb5750506000910152565b60008251614e23818460208701614de5565b9190910192915050565b6020815260008251806020840152614e4c816040850160208701614de5565b601f01601f1916919091016040019291505056fea2646970667358221220f79e453c85404f474f58fb1afa0152229311b3dba0664a578693dc2f19d323f264736f6c634300080f0033",
  "devdoc": {
    "details": "Most of the logic is stored as a library `SwapUtils` for the sake of contract readability.",
    "kind": "dev",
    "methods": {
      "addSwapLiquidity(bytes32,uint256[],uint256,uint256)": {
        "params": {
          "amounts": "the amounts of each token to add, in their native precision",
          "deadline": "latest timestamp to accept this transaction",
          "key": "Hash of the canonical id + domain",
          "minToMint": "the minimum LP tokens adding this amount of liquidity should mint, otherwise revert. Handy for front-running mitigation"
        },
        "returns": {
          "_0": "amount of LP token user minted and received"
        }
      },
      "calculateRemoveSwapLiquidity(bytes32,uint256)": {
        "params": {
          "amount": "the amount of LP tokens that would be burned on withdrawal",
          "key": "Hash of the canonical id + domain"
        },
        "returns": {
          "_0": "array of token balances that the user will receive"
        }
      },
      "calculateRemoveSwapLiquidityOneToken(bytes32,uint256,uint8)": {
        "params": {
          "key": "Hash of the canonical id + domain",
          "tokenAmount": "the amount of LP token to burn",
          "tokenIndex": "index of which token will be withdrawn"
        },
        "returns": {
          "availableTokenAmount": "calculated amount of underlying token available to withdraw"
        }
      },
      "calculateSwap(bytes32,uint8,uint8,uint256)": {
        "params": {
          "dx": "the amount of tokens the user wants to sell. If the token charges a fee on transfers, use the amount that gets transferred after the fee.",
          "key": "Hash of the canonical id + domain",
          "tokenIndexFrom": "the token the user wants to sell",
          "tokenIndexTo": "the token the user wants to buy"
        },
        "returns": {
          "_0": "amount of tokens the user will receive"
        }
      },
      "calculateSwapTokenAmount(bytes32,uint256[],bool)": {
        "details": "This shouldn't be used outside frontends for user estimates.",
        "params": {
          "amounts": "an array of token amounts to deposit or withdrawal, corresponding to pooledTokens. The amount should be in each pooled token's native precision. If a token charges a fee on transfers, use the amount that gets transferred after the fee.",
          "deposit": "whether this is a deposit or a withdrawal",
          "key": "Hash of the canonical id + domain"
        },
        "returns": {
          "_0": "token amount the user will receive"
        }
      },
      "getSwapA(bytes32)": {
        "details": "See the StableSwap paper for details",
        "params": {
          "key": "Hash of the canonical id + domain"
        },
        "returns": {
          "_0": "A parameter"
        }
      },
      "getSwapAPrecise(bytes32)": {
        "details": "See the StableSwap paper for details",
        "params": {
          "key": "Hash of the canonical id + domain"
        },
        "returns": {
          "_0": "A parameter in its raw precision form"
        }
      },
      "getSwapAdminBalance(bytes32,uint256)": {
        "params": {
          "index": "Index of the pooled token",
          "key": "Hash of the canonical id + domain"
        },
        "returns": {
          "_0": "admin's token balance in the token's precision"
        }
      },
      "getSwapLPToken(bytes32)": {
        "params": {
          "key": "Hash of the canonical id + domain"
        },
        "returns": {
          "_0": "LPToken"
        }
      },
      "getSwapStorage(bytes32)": {
        "params": {
          "key": "Hash of the canonical id + domain"
        },
        "returns": {
          "_0": "SwapUtils.Swap"
        }
      },
      "getSwapToken(bytes32,uint8)": {
        "params": {
          "index": "the index of the token",
          "key": "Hash of the canonical id + domain"
        },
        "returns": {
          "_0": "address of the token at given index"
        }
      },
      "getSwapTokenBalance(bytes32,uint8)": {
        "params": {
          "index": "the index of the token",
          "key": "Hash of the canonical id + domain"
        },
        "returns": {
          "_0": "current balance of the pooled token at given index with token's native precision"
        }
      },
      "getSwapTokenIndex(bytes32,address)": {
        "params": {
          "key": "Hash of the canonical id + domain",
          "tokenAddress": "address of the token"
        },
        "returns": {
          "_0": "the index of the given token address"
        }
      },
      "getSwapVirtualPrice(bytes32)": {
        "params": {
          "key": "Hash of the canonical id + domain"
        },
        "returns": {
          "_0": "the virtual price, scaled to the POOL_PRECISION_DECIMALS"
        }
      },
      "removeSwapLiquidity(bytes32,uint256,uint256[],uint256)": {
        "details": "Liquidity can always be removed, even when the pool is paused.",
        "params": {
          "amount": "the amount of LP tokens to burn",
          "deadline": "latest timestamp to accept this transaction",
          "key": "Hash of the canonical id + domain",
          "minAmounts": "the minimum amounts of each token in the pool        acceptable for this burn. Useful as a front-running mitigation"
        },
        "returns": {
          "_0": "amounts of tokens user received"
        }
      },
      "removeSwapLiquidityImbalance(bytes32,uint256[],uint256,uint256)": {
        "params": {
          "amounts": "how much of each token to withdraw",
          "deadline": "latest timestamp to accept this transaction",
          "key": "Hash of the canonical id + domain",
          "maxBurnAmount": "the max LP token provider is willing to pay to remove liquidity. Useful as a front-running mitigation."
        },
        "returns": {
          "_0": "amount of LP tokens burned"
        }
      },
      "removeSwapLiquidityOneToken(bytes32,uint256,uint8,uint256,uint256)": {
        "params": {
          "deadline": "latest timestamp to accept this transaction",
          "key": "Hash of the canonical id + domain",
          "minAmount": "the minimum amount to withdraw, otherwise revert",
          "tokenAmount": "the amount of the token you want to receive",
          "tokenIndex": "the index of the token you want to receive"
        },
        "returns": {
          "_0": "amount of chosen token user received"
        }
      },
      "swap(bytes32,uint8,uint8,uint256,uint256,uint256)": {
        "params": {
          "deadline": "latest timestamp to accept this transaction",
          "dx": "the amount of tokens the user wants to swap from",
          "key": "Hash of the canonical id + domain",
          "minDy": "the min amount the user would like to receive, or revert.",
          "tokenIndexFrom": "the token the user wants to swap from",
          "tokenIndexTo": "the token the user wants to swap to"
        }
      },
      "swapExact(bytes32,uint256,address,address,uint256,uint256)": {
        "params": {
          "amountIn": "the amount of tokens the user wants to swap from",
          "assetIn": "the token the user wants to swap from",
          "assetOut": "the token the user wants to swap to",
          "key": "Hash of the canonical id + domain"
        }
      },
      "swapExactOut(bytes32,uint256,address,address,uint256,uint256)": {
        "params": {
          "amountOut": "the amount of tokens the user wants to swap to",
          "assetIn": "the token the user wants to swap from",
          "assetOut": "the token the user wants to swap to",
          "key": "Hash of the canonical id + domain"
        }
      }
    },
    "title": "Swap - A StableSwap implementation in solidity.",
    "version": 1
  },
  "userdoc": {
    "kind": "user",
    "methods": {
      "addSwapLiquidity(bytes32,uint256[],uint256,uint256)": {
        "notice": "Add liquidity to the pool with the given amounts of tokens"
      },
      "calculateRemoveSwapLiquidity(bytes32,uint256)": {
        "notice": "A simple method to calculate amount of each underlying tokens that is returned upon burning given amount of LP tokens"
      },
      "calculateRemoveSwapLiquidityOneToken(bytes32,uint256,uint8)": {
        "notice": "Calculate the amount of underlying token available to withdraw when withdrawing via only single token"
      },
      "calculateSwap(bytes32,uint8,uint8,uint256)": {
        "notice": "Calculate amount of tokens you receive on swap"
      },
      "calculateSwapTokenAmount(bytes32,uint256[],bool)": {
        "notice": "A simple method to calculate prices from deposits or withdrawals, excluding fees but including slippage. This is helpful as an input into the various \"min\" parameters on calls to fight front-running"
      },
      "getSwapA(bytes32)": {
        "notice": "Return A, the amplification coefficient * n * (n - 1)"
      },
      "getSwapAPrecise(bytes32)": {
        "notice": "Return A in its raw precision form"
      },
      "getSwapAdminBalance(bytes32,uint256)": {
        "notice": "This function reads the accumulated amount of admin fees of the token with given index"
      },
      "getSwapLPToken(bytes32)": {
        "notice": "Return LP token for canonical Id"
      },
      "getSwapStorage(bytes32)": {
        "notice": "Return Stable swap storage"
      },
      "getSwapToken(bytes32,uint8)": {
        "notice": "Return address of the pooled token at given index. Reverts if tokenIndex is out of range."
      },
      "getSwapTokenBalance(bytes32,uint8)": {
        "notice": "Return current balance of the pooled token at given index"
      },
      "getSwapTokenIndex(bytes32,address)": {
        "notice": "Return the index of the given token address. Reverts if no matching token is found."
      },
      "getSwapVirtualPrice(bytes32)": {
        "notice": "Get the virtual price, to help calculate profit"
      },
      "removeSwapLiquidity(bytes32,uint256,uint256[],uint256)": {
        "notice": "Burn LP tokens to remove liquidity from the pool. Withdraw fee that decays linearly over period of 4 weeks since last deposit will apply."
      },
      "removeSwapLiquidityImbalance(bytes32,uint256[],uint256,uint256)": {
        "notice": "Remove liquidity from the pool, weighted differently than the pool's current balances. Withdraw fee that decays linearly over period of 4 weeks since last deposit will apply."
      },
      "removeSwapLiquidityOneToken(bytes32,uint256,uint8,uint256,uint256)": {
        "notice": "Remove liquidity from the pool all in one token. Withdraw fee that decays linearly over period of 4 weeks since last deposit will apply."
      },
      "swap(bytes32,uint8,uint8,uint256,uint256,uint256)": {
        "notice": "Swap two tokens using this pool"
      },
      "swapExact(bytes32,uint256,address,address,uint256,uint256)": {
        "notice": "Swap two tokens using this pool"
      },
      "swapExactOut(bytes32,uint256,address,address,uint256,uint256)": {
        "notice": "Swap two tokens using this pool"
      }
    },
    "notice": "This contract is responsible for custody of closely pegged assets (eg. group of stablecoins) and automatic market making system. Users become an LP (Liquidity Provider) by depositing their tokens in desired ratios for an exchange of the pool token that represents their share of the pool. Users can burn pool tokens and withdraw their share of token(s). Each time a swap between the pooled tokens happens, a set fee incurs which effectively gets distributed to the LPs. In case of emergencies, admin can pause additional deposits, swaps, or single-asset withdraws - which stops the ratio of the tokens in the pool from changing. Users can always withdraw their tokens via multi-asset withdraws.",
    "version": 1
  },
  "storageLayout": {
    "storage": [
      {
        "astId": 13868,
        "contract": "contracts/core/connext/facets/StableSwapFacet.sol:StableSwapFacet",
        "label": "s",
        "offset": 0,
        "slot": "0",
        "type": "t_struct(AppStorage)28097_storage"
      }
    ],
    "types": {
      "t_address": {
        "encoding": "inplace",
        "label": "address",
        "numberOfBytes": "20"
      },
      "t_array(t_address)dyn_storage": {
        "base": "t_address",
        "encoding": "dynamic_array",
        "label": "address[]",
        "numberOfBytes": "32"
      },
      "t_array(t_contract(IERC20)11540)dyn_storage": {
        "base": "t_contract(IERC20)11540",
        "encoding": "dynamic_array",
        "label": "contract IERC20[]",
        "numberOfBytes": "32"
      },
      "t_array(t_uint256)dyn_storage": {
        "base": "t_uint256",
        "encoding": "dynamic_array",
        "label": "uint256[]",
        "numberOfBytes": "32"
      },
      "t_bool": {
        "encoding": "inplace",
        "label": "bool",
        "numberOfBytes": "1"
      },
      "t_bytes32": {
        "encoding": "inplace",
        "label": "bytes32",
        "numberOfBytes": "32"
      },
      "t_contract(IConnectorManager)45249": {
        "encoding": "inplace",
        "label": "contract IConnectorManager",
        "numberOfBytes": "20"
      },
      "t_contract(IERC20)11540": {
        "encoding": "inplace",
        "label": "contract IERC20",
        "numberOfBytes": "20"
      },
      "t_contract(IStableSwap)25766": {
        "encoding": "inplace",
        "label": "contract IStableSwap",
        "numberOfBytes": "20"
      },
      "t_contract(LPToken)22553": {
        "encoding": "inplace",
        "label": "contract LPToken",
        "numberOfBytes": "20"
      },
      "t_enum(DestinationTransferStatus)27873": {
        "encoding": "inplace",
        "label": "enum DestinationTransferStatus",
        "numberOfBytes": "1"
      },
      "t_enum(Role)27868": {
        "encoding": "inplace",
        "label": "enum Role",
        "numberOfBytes": "1"
      },
      "t_mapping(t_address,t_address)": {
        "encoding": "mapping",
        "key": "t_address",
        "label": "mapping(address => address)",
        "numberOfBytes": "32",
        "value": "t_address"
      },
      "t_mapping(t_address,t_bool)": {
        "encoding": "mapping",
        "key": "t_address",
        "label": "mapping(address => bool)",
        "numberOfBytes": "32",
        "value": "t_bool"
      },
      "t_mapping(t_address,t_enum(Role)27868)": {
        "encoding": "mapping",
        "key": "t_address",
        "label": "mapping(address => enum Role)",
        "numberOfBytes": "32",
        "value": "t_enum(Role)27868"
      },
      "t_mapping(t_address,t_mapping(t_address,t_uint256))": {
        "encoding": "mapping",
        "key": "t_address",
        "label": "mapping(address => mapping(address => uint256))",
        "numberOfBytes": "32",
        "value": "t_mapping(t_address,t_uint256)"
      },
      "t_mapping(t_address,t_struct(TokenId)27878_storage)": {
        "encoding": "mapping",
        "key": "t_address",
        "label": "mapping(address => struct TokenId)",
        "numberOfBytes": "32",
        "value": "t_struct(TokenId)27878_storage"
      },
      "t_mapping(t_address,t_uint256)": {
        "encoding": "mapping",
        "key": "t_address",
        "label": "mapping(address => uint256)",
        "numberOfBytes": "32",
        "value": "t_uint256"
      },
      "t_mapping(t_address,t_uint8)": {
        "encoding": "mapping",
        "key": "t_address",
        "label": "mapping(address => uint8)",
        "numberOfBytes": "32",
        "value": "t_uint8"
      },
      "t_mapping(t_bytes32,t_address)": {
        "encoding": "mapping",
        "key": "t_bytes32",
        "label": "mapping(bytes32 => address)",
        "numberOfBytes": "32",
        "value": "t_address"
      },
      "t_mapping(t_bytes32,t_array(t_address)dyn_storage)": {
        "encoding": "mapping",
        "key": "t_bytes32",
        "label": "mapping(bytes32 => address[])",
        "numberOfBytes": "32",
        "value": "t_array(t_address)dyn_storage"
      },
      "t_mapping(t_bytes32,t_bool)": {
        "encoding": "mapping",
        "key": "t_bytes32",
        "label": "mapping(bytes32 => bool)",
        "numberOfBytes": "32",
        "value": "t_bool"
      },
      "t_mapping(t_bytes32,t_contract(IStableSwap)25766)": {
        "encoding": "mapping",
        "key": "t_bytes32",
        "label": "mapping(bytes32 => contract IStableSwap)",
        "numberOfBytes": "32",
        "value": "t_contract(IStableSwap)25766"
      },
      "t_mapping(t_bytes32,t_enum(DestinationTransferStatus)27873)": {
        "encoding": "mapping",
        "key": "t_bytes32",
        "label": "mapping(bytes32 => enum DestinationTransferStatus)",
        "numberOfBytes": "32",
        "value": "t_enum(DestinationTransferStatus)27873"
      },
      "t_mapping(t_bytes32,t_mapping(t_address,t_uint8))": {
        "encoding": "mapping",
        "key": "t_bytes32",
        "label": "mapping(bytes32 => mapping(address => uint8))",
        "numberOfBytes": "32",
        "value": "t_mapping(t_address,t_uint8)"
      },
      "t_mapping(t_bytes32,t_struct(Swap)29292_storage)": {
        "encoding": "mapping",
        "key": "t_bytes32",
        "label": "mapping(bytes32 => struct SwapUtils.Swap)",
        "numberOfBytes": "32",
        "value": "t_struct(Swap)29292_storage"
      },
      "t_mapping(t_bytes32,t_uint256)": {
        "encoding": "mapping",
        "key": "t_bytes32",
        "label": "mapping(bytes32 => uint256)",
        "numberOfBytes": "32",
        "value": "t_uint256"
      },
      "t_mapping(t_uint32,t_bytes32)": {
        "encoding": "mapping",
        "key": "t_uint32",
        "label": "mapping(uint32 => bytes32)",
        "numberOfBytes": "32",
        "value": "t_bytes32"
      },
      "t_struct(AppStorage)28097_storage": {
        "encoding": "inplace",
        "label": "struct AppStorage",
        "members": [
          {
            "astId": 27946,
            "contract": "contracts/core/connext/facets/StableSwapFacet.sol:StableSwapFacet",
            "label": "initialized",
            "offset": 0,
            "slot": "0",
            "type": "t_bool"
          },
          {
            "astId": 27948,
            "contract": "contracts/core/connext/facets/StableSwapFacet.sol:StableSwapFacet",
            "label": "LIQUIDITY_FEE_NUMERATOR",
            "offset": 0,
            "slot": "1",
            "type": "t_uint256"
          },
          {
            "astId": 27951,
            "contract": "contracts/core/connext/facets/StableSwapFacet.sol:StableSwapFacet",
            "label": "relayerFeeVault",
            "offset": 0,
            "slot": "2",
            "type": "t_address"
          },
          {
            "astId": 27954,
            "contract": "contracts/core/connext/facets/StableSwapFacet.sol:StableSwapFacet",
            "label": "nonce",
            "offset": 0,
            "slot": "3",
            "type": "t_uint256"
          },
          {
            "astId": 27957,
            "contract": "contracts/core/connext/facets/StableSwapFacet.sol:StableSwapFacet",
            "label": "domain",
            "offset": 0,
            "slot": "4",
            "type": "t_uint32"
          },
          {
            "astId": 27963,
            "contract": "contracts/core/connext/facets/StableSwapFacet.sol:StableSwapFacet",
            "label": "adoptedToLocalPools",
            "offset": 0,
            "slot": "5",
            "type": "t_mapping(t_bytes32,t_contract(IStableSwap)25766)"
          },
          {
            "astId": 27968,
            "contract": "contracts/core/connext/facets/StableSwapFacet.sol:StableSwapFacet",
            "label": "approvedAssets",
            "offset": 0,
            "slot": "6",
            "type": "t_mapping(t_bytes32,t_bool)"
          },
          {
            "astId": 27973,
            "contract": "contracts/core/connext/facets/StableSwapFacet.sol:StableSwapFacet",
            "label": "caps",
            "offset": 0,
            "slot": "7",
            "type": "t_mapping(t_bytes32,t_uint256)"
          },
          {
            "astId": 27979,
            "contract": "contracts/core/connext/facets/StableSwapFacet.sol:StableSwapFacet",
            "label": "adoptedToCanonical",
            "offset": 0,
            "slot": "8",
            "type": "t_mapping(t_address,t_struct(TokenId)27878_storage)"
          },
          {
            "astId": 27985,
            "contract": "contracts/core/connext/facets/StableSwapFacet.sol:StableSwapFacet",
            "label": "representationToCanonical",
            "offset": 0,
            "slot": "9",
            "type": "t_mapping(t_address,t_struct(TokenId)27878_storage)"
          },
          {
            "astId": 27990,
            "contract": "contracts/core/connext/facets/StableSwapFacet.sol:StableSwapFacet",
            "label": "canonicalToAdopted",
            "offset": 0,
            "slot": "10",
            "type": "t_mapping(t_bytes32,t_address)"
          },
          {
            "astId": 27995,
            "contract": "contracts/core/connext/facets/StableSwapFacet.sol:StableSwapFacet",
            "label": "canonicalToRepresentation",
            "offset": 0,
            "slot": "11",
            "type": "t_mapping(t_bytes32,t_address)"
          },
          {
            "astId": 28001,
            "contract": "contracts/core/connext/facets/StableSwapFacet.sol:StableSwapFacet",
            "label": "transferStatus",
            "offset": 0,
            "slot": "12",
            "type": "t_mapping(t_bytes32,t_enum(DestinationTransferStatus)27873)"
          },
          {
            "astId": 28007,
            "contract": "contracts/core/connext/facets/StableSwapFacet.sol:StableSwapFacet",
            "label": "routedTransfers",
            "offset": 0,
            "slot": "13",
            "type": "t_mapping(t_bytes32,t_array(t_address)dyn_storage)"
          },
          {
            "astId": 28014,
            "contract": "contracts/core/connext/facets/StableSwapFacet.sol:StableSwapFacet",
            "label": "routerBalances",
            "offset": 0,
            "slot": "14",
            "type": "t_mapping(t_address,t_mapping(t_address,t_uint256))"
          },
          {
            "astId": 28019,
            "contract": "contracts/core/connext/facets/StableSwapFacet.sol:StableSwapFacet",
            "label": "approvedRelayers",
            "offset": 0,
            "slot": "15",
            "type": "t_mapping(t_address,t_bool)"
          },
          {
            "astId": 28022,
            "contract": "contracts/core/connext/facets/StableSwapFacet.sol:StableSwapFacet",
            "label": "maxRoutersPerTransfer",
            "offset": 0,
            "slot": "16",
            "type": "t_uint256"
          },
          {
            "astId": 28027,
            "contract": "contracts/core/connext/facets/StableSwapFacet.sol:StableSwapFacet",
            "label": "slippage",
            "offset": 0,
            "slot": "17",
            "type": "t_mapping(t_bytes32,t_uint256)"
          },
          {
            "astId": 28032,
            "contract": "contracts/core/connext/facets/StableSwapFacet.sol:StableSwapFacet",
            "label": "remotes",
            "offset": 0,
            "slot": "18",
            "type": "t_mapping(t_uint32,t_bytes32)"
          },
          {
            "astId": 28034,
            "contract": "contracts/core/connext/facets/StableSwapFacet.sol:StableSwapFacet",
            "label": "_proposed",
            "offset": 0,
            "slot": "19",
            "type": "t_address"
          },
          {
            "astId": 28036,
            "contract": "contracts/core/connext/facets/StableSwapFacet.sol:StableSwapFacet",
            "label": "_proposedOwnershipTimestamp",
            "offset": 0,
            "slot": "20",
            "type": "t_uint256"
          },
          {
            "astId": 28038,
            "contract": "contracts/core/connext/facets/StableSwapFacet.sol:StableSwapFacet",
            "label": "_routerWhitelistRemoved",
            "offset": 0,
            "slot": "21",
            "type": "t_bool"
          },
          {
            "astId": 28040,
            "contract": "contracts/core/connext/facets/StableSwapFacet.sol:StableSwapFacet",
            "label": "_routerWhitelistTimestamp",
            "offset": 0,
            "slot": "22",
            "type": "t_uint256"
          },
          {
            "astId": 28042,
            "contract": "contracts/core/connext/facets/StableSwapFacet.sol:StableSwapFacet",
            "label": "_assetWhitelistRemoved",
            "offset": 0,
            "slot": "23",
            "type": "t_bool"
          },
          {
            "astId": 28044,
            "contract": "contracts/core/connext/facets/StableSwapFacet.sol:StableSwapFacet",
            "label": "_assetWhitelistTimestamp",
            "offset": 0,
            "slot": "24",
            "type": "t_uint256"
          },
          {
            "astId": 28050,
            "contract": "contracts/core/connext/facets/StableSwapFacet.sol:StableSwapFacet",
            "label": "roles",
            "offset": 0,
            "slot": "25",
            "type": "t_mapping(t_address,t_enum(Role)27868)"
          },
          {
            "astId": 28053,
            "contract": "contracts/core/connext/facets/StableSwapFacet.sol:StableSwapFacet",
            "label": "routerPermissionInfo",
            "offset": 0,
            "slot": "26",
            "type": "t_struct(RouterPermissionsManagerInfo)27944_storage"
          },
          {
            "astId": 28055,
            "contract": "contracts/core/connext/facets/StableSwapFacet.sol:StableSwapFacet",
            "label": "_status",
            "offset": 0,
            "slot": "32",
            "type": "t_uint256"
          },
          {
            "astId": 28061,
            "contract": "contracts/core/connext/facets/StableSwapFacet.sol:StableSwapFacet",
            "label": "swapStorages",
            "offset": 0,
            "slot": "33",
            "type": "t_mapping(t_bytes32,t_struct(Swap)29292_storage)"
          },
          {
            "astId": 28068,
            "contract": "contracts/core/connext/facets/StableSwapFacet.sol:StableSwapFacet",
            "label": "tokenIndexes",
            "offset": 0,
            "slot": "34",
            "type": "t_mapping(t_bytes32,t_mapping(t_address,t_uint8))"
          },
          {
            "astId": 28071,
            "contract": "contracts/core/connext/facets/StableSwapFacet.sol:StableSwapFacet",
            "label": "_paused",
            "offset": 0,
            "slot": "35",
            "type": "t_bool"
          },
          {
            "astId": 28074,
            "contract": "contracts/core/connext/facets/StableSwapFacet.sol:StableSwapFacet",
            "label": "aavePool",
            "offset": 1,
            "slot": "35",
            "type": "t_address"
          },
          {
            "astId": 28077,
            "contract": "contracts/core/connext/facets/StableSwapFacet.sol:StableSwapFacet",
            "label": "aavePortalFeeNumerator",
            "offset": 0,
            "slot": "36",
            "type": "t_uint256"
          },
          {
            "astId": 28082,
            "contract": "contracts/core/connext/facets/StableSwapFacet.sol:StableSwapFacet",
            "label": "portalDebt",
            "offset": 0,
            "slot": "37",
            "type": "t_mapping(t_bytes32,t_uint256)"
          },
          {
            "astId": 28087,
            "contract": "contracts/core/connext/facets/StableSwapFacet.sol:StableSwapFacet",
            "label": "portalFeeDebt",
            "offset": 0,
            "slot": "38",
            "type": "t_mapping(t_bytes32,t_uint256)"
          },
          {
            "astId": 28092,
            "contract": "contracts/core/connext/facets/StableSwapFacet.sol:StableSwapFacet",
            "label": "approvedSequencers",
            "offset": 0,
            "slot": "39",
            "type": "t_mapping(t_address,t_bool)"
          },
          {
            "astId": 28096,
            "contract": "contracts/core/connext/facets/StableSwapFacet.sol:StableSwapFacet",
            "label": "xAppConnectionManager",
            "offset": 0,
            "slot": "40",
            "type": "t_contract(IConnectorManager)45249"
          }
        ],
        "numberOfBytes": "1312"
      },
      "t_struct(RouterPermissionsManagerInfo)27944_storage": {
        "encoding": "inplace",
        "label": "struct RouterPermissionsManagerInfo",
        "members": [
          {
            "astId": 27923,
            "contract": "contracts/core/connext/facets/StableSwapFacet.sol:StableSwapFacet",
            "label": "approvedRouters",
            "offset": 0,
            "slot": "0",
            "type": "t_mapping(t_address,t_bool)"
          },
          {
            "astId": 27927,
            "contract": "contracts/core/connext/facets/StableSwapFacet.sol:StableSwapFacet",
            "label": "approvedForPortalRouters",
            "offset": 0,
            "slot": "1",
            "type": "t_mapping(t_address,t_bool)"
          },
          {
            "astId": 27931,
            "contract": "contracts/core/connext/facets/StableSwapFacet.sol:StableSwapFacet",
            "label": "routerRecipients",
            "offset": 0,
            "slot": "2",
            "type": "t_mapping(t_address,t_address)"
          },
          {
            "astId": 27935,
            "contract": "contracts/core/connext/facets/StableSwapFacet.sol:StableSwapFacet",
            "label": "routerOwners",
            "offset": 0,
            "slot": "3",
            "type": "t_mapping(t_address,t_address)"
          },
          {
            "astId": 27939,
            "contract": "contracts/core/connext/facets/StableSwapFacet.sol:StableSwapFacet",
            "label": "proposedRouterOwners",
            "offset": 0,
            "slot": "4",
            "type": "t_mapping(t_address,t_address)"
          },
          {
            "astId": 27943,
            "contract": "contracts/core/connext/facets/StableSwapFacet.sol:StableSwapFacet",
            "label": "proposedRouterTimestamp",
            "offset": 0,
            "slot": "5",
            "type": "t_mapping(t_address,t_uint256)"
          }
        ],
        "numberOfBytes": "192"
      },
      "t_struct(Swap)29292_storage": {
        "encoding": "inplace",
        "label": "struct SwapUtils.Swap",
        "members": [
          {
            "astId": 29263,
            "contract": "contracts/core/connext/facets/StableSwapFacet.sol:StableSwapFacet",
            "label": "key",
            "offset": 0,
            "slot": "0",
            "type": "t_bytes32"
          },
          {
            "astId": 29265,
            "contract": "contracts/core/connext/facets/StableSwapFacet.sol:StableSwapFacet",
            "label": "initialA",
            "offset": 0,
            "slot": "1",
            "type": "t_uint256"
          },
          {
            "astId": 29267,
            "contract": "contracts/core/connext/facets/StableSwapFacet.sol:StableSwapFacet",
            "label": "futureA",
            "offset": 0,
            "slot": "2",
            "type": "t_uint256"
          },
          {
            "astId": 29269,
            "contract": "contracts/core/connext/facets/StableSwapFacet.sol:StableSwapFacet",
            "label": "initialATime",
            "offset": 0,
            "slot": "3",
            "type": "t_uint256"
          },
          {
            "astId": 29271,
            "contract": "contracts/core/connext/facets/StableSwapFacet.sol:StableSwapFacet",
            "label": "futureATime",
            "offset": 0,
            "slot": "4",
            "type": "t_uint256"
          },
          {
            "astId": 29273,
            "contract": "contracts/core/connext/facets/StableSwapFacet.sol:StableSwapFacet",
            "label": "swapFee",
            "offset": 0,
            "slot": "5",
            "type": "t_uint256"
          },
          {
            "astId": 29275,
            "contract": "contracts/core/connext/facets/StableSwapFacet.sol:StableSwapFacet",
            "label": "adminFee",
            "offset": 0,
            "slot": "6",
            "type": "t_uint256"
          },
          {
            "astId": 29278,
            "contract": "contracts/core/connext/facets/StableSwapFacet.sol:StableSwapFacet",
            "label": "lpToken",
            "offset": 0,
            "slot": "7",
            "type": "t_contract(LPToken)22553"
          },
          {
            "astId": 29282,
            "contract": "contracts/core/connext/facets/StableSwapFacet.sol:StableSwapFacet",
            "label": "pooledTokens",
            "offset": 0,
            "slot": "8",
            "type": "t_array(t_contract(IERC20)11540)dyn_storage"
          },
          {
            "astId": 29285,
            "contract": "contracts/core/connext/facets/StableSwapFacet.sol:StableSwapFacet",
            "label": "tokenPrecisionMultipliers",
            "offset": 0,
            "slot": "9",
            "type": "t_array(t_uint256)dyn_storage"
          },
          {
            "astId": 29288,
            "contract": "contracts/core/connext/facets/StableSwapFacet.sol:StableSwapFacet",
            "label": "balances",
            "offset": 0,
            "slot": "10",
            "type": "t_array(t_uint256)dyn_storage"
          },
          {
            "astId": 29291,
            "contract": "contracts/core/connext/facets/StableSwapFacet.sol:StableSwapFacet",
            "label": "adminFees",
            "offset": 0,
            "slot": "11",
            "type": "t_array(t_uint256)dyn_storage"
          }
        ],
        "numberOfBytes": "384"
      },
      "t_struct(TokenId)27878_storage": {
        "encoding": "inplace",
        "label": "struct TokenId",
        "members": [
          {
            "astId": 27875,
            "contract": "contracts/core/connext/facets/StableSwapFacet.sol:StableSwapFacet",
            "label": "domain",
            "offset": 0,
            "slot": "0",
            "type": "t_uint32"
          },
          {
            "astId": 27877,
            "contract": "contracts/core/connext/facets/StableSwapFacet.sol:StableSwapFacet",
            "label": "id",
            "offset": 0,
            "slot": "1",
            "type": "t_bytes32"
          }
        ],
        "numberOfBytes": "64"
      },
      "t_uint256": {
        "encoding": "inplace",
        "label": "uint256",
        "numberOfBytes": "32"
      },
      "t_uint32": {
        "encoding": "inplace",
        "label": "uint32",
        "numberOfBytes": "4"
      },
      "t_uint8": {
        "encoding": "inplace",
        "label": "uint8",
        "numberOfBytes": "1"
      }
    }
  }
}