{
  "address": "0x070Da13Bb81e1b55fFFA6E4A3e47dD5e155bA9FC",
  "abi": [
    {
      "anonymous": false,
      "inputs": [
        {
          "indexed": true,
          "internalType": "address",
          "name": "provider",
          "type": "address"
        },
        {
          "indexed": false,
          "internalType": "uint256[]",
          "name": "tokenAmounts",
          "type": "uint256[]"
        },
        {
          "indexed": false,
          "internalType": "uint256[]",
          "name": "fees",
          "type": "uint256[]"
        },
        {
          "indexed": false,
          "internalType": "uint256",
          "name": "invariant",
          "type": "uint256"
        },
        {
          "indexed": false,
          "internalType": "uint256",
          "name": "lpTokenSupply",
          "type": "uint256"
        }
      ],
      "name": "AddLiquidity",
      "type": "event"
    },
    {
      "anonymous": false,
      "inputs": [
        {
          "indexed": false,
          "internalType": "uint256",
          "name": "newAdminFee",
          "type": "uint256"
        }
      ],
      "name": "NewAdminFee",
      "type": "event"
    },
    {
      "anonymous": false,
      "inputs": [
        {
          "indexed": false,
          "internalType": "uint256",
          "name": "newSwapFee",
          "type": "uint256"
        }
      ],
      "name": "NewSwapFee",
      "type": "event"
    },
    {
      "anonymous": false,
      "inputs": [
        {
          "indexed": false,
          "internalType": "uint256",
          "name": "newWithdrawFee",
          "type": "uint256"
        }
      ],
      "name": "NewWithdrawFee",
      "type": "event"
    },
    {
      "anonymous": false,
      "inputs": [
        {
          "indexed": true,
          "internalType": "address",
          "name": "previousOwner",
          "type": "address"
        },
        {
          "indexed": true,
          "internalType": "address",
          "name": "newOwner",
          "type": "address"
        }
      ],
      "name": "OwnershipTransferred",
      "type": "event"
    },
    {
      "anonymous": false,
      "inputs": [
        {
          "indexed": false,
          "internalType": "address",
          "name": "account",
          "type": "address"
        }
      ],
      "name": "Paused",
      "type": "event"
    },
    {
      "anonymous": false,
      "inputs": [
        {
          "indexed": false,
          "internalType": "uint256",
          "name": "oldA",
          "type": "uint256"
        },
        {
          "indexed": false,
          "internalType": "uint256",
          "name": "newA",
          "type": "uint256"
        },
        {
          "indexed": false,
          "internalType": "uint256",
          "name": "initialTime",
          "type": "uint256"
        },
        {
          "indexed": false,
          "internalType": "uint256",
          "name": "futureTime",
          "type": "uint256"
        }
      ],
      "name": "RampA",
      "type": "event"
    },
    {
      "anonymous": false,
      "inputs": [
        {
          "indexed": true,
          "internalType": "address",
          "name": "provider",
          "type": "address"
        },
        {
          "indexed": false,
          "internalType": "uint256[]",
          "name": "tokenAmounts",
          "type": "uint256[]"
        },
        {
          "indexed": false,
          "internalType": "uint256",
          "name": "lpTokenSupply",
          "type": "uint256"
        }
      ],
      "name": "RemoveLiquidity",
      "type": "event"
    },
    {
      "anonymous": false,
      "inputs": [
        {
          "indexed": true,
          "internalType": "address",
          "name": "provider",
          "type": "address"
        },
        {
          "indexed": false,
          "internalType": "uint256[]",
          "name": "tokenAmounts",
          "type": "uint256[]"
        },
        {
          "indexed": false,
          "internalType": "uint256[]",
          "name": "fees",
          "type": "uint256[]"
        },
        {
          "indexed": false,
          "internalType": "uint256",
          "name": "invariant",
          "type": "uint256"
        },
        {
          "indexed": false,
          "internalType": "uint256",
          "name": "lpTokenSupply",
          "type": "uint256"
        }
      ],
      "name": "RemoveLiquidityImbalance",
      "type": "event"
    },
    {
      "anonymous": false,
      "inputs": [
        {
          "indexed": true,
          "internalType": "address",
          "name": "provider",
          "type": "address"
        },
        {
          "indexed": false,
          "internalType": "uint256",
          "name": "lpTokenAmount",
          "type": "uint256"
        },
        {
          "indexed": false,
          "internalType": "uint256",
          "name": "lpTokenSupply",
          "type": "uint256"
        },
        {
          "indexed": false,
          "internalType": "uint256",
          "name": "boughtId",
          "type": "uint256"
        },
        {
          "indexed": false,
          "internalType": "uint256",
          "name": "tokensBought",
          "type": "uint256"
        }
      ],
      "name": "RemoveLiquidityOne",
      "type": "event"
    },
    {
      "anonymous": false,
      "inputs": [
        {
          "indexed": false,
          "internalType": "uint256",
          "name": "currentA",
          "type": "uint256"
        },
        {
          "indexed": false,
          "internalType": "uint256",
          "name": "time",
          "type": "uint256"
        }
      ],
      "name": "StopRampA",
      "type": "event"
    },
    {
      "anonymous": false,
      "inputs": [
        {
          "indexed": true,
          "internalType": "address",
          "name": "buyer",
          "type": "address"
        },
        {
          "indexed": false,
          "internalType": "uint256",
          "name": "tokensSold",
          "type": "uint256"
        },
        {
          "indexed": false,
          "internalType": "uint256",
          "name": "tokensBought",
          "type": "uint256"
        },
        {
          "indexed": false,
          "internalType": "uint128",
          "name": "soldId",
          "type": "uint128"
        },
        {
          "indexed": false,
          "internalType": "uint128",
          "name": "boughtId",
          "type": "uint128"
        }
      ],
      "name": "TokenSwap",
      "type": "event"
    },
    {
      "anonymous": false,
      "inputs": [
        {
          "indexed": false,
          "internalType": "address",
          "name": "account",
          "type": "address"
        }
      ],
      "name": "Unpaused",
      "type": "event"
    },
    {
      "inputs": [
        {
          "internalType": "uint256[]",
          "name": "amounts",
          "type": "uint256[]"
        },
        {
          "internalType": "uint256",
          "name": "minToMint",
          "type": "uint256"
        },
        {
          "internalType": "uint256",
          "name": "deadline",
          "type": "uint256"
        }
      ],
      "name": "addLiquidity",
      "outputs": [
        {
          "internalType": "uint256",
          "name": "",
          "type": "uint256"
        }
      ],
      "stateMutability": "nonpayable",
      "type": "function"
    },
    {
      "inputs": [
        {
          "internalType": "uint256",
          "name": "amount",
          "type": "uint256"
        }
      ],
      "name": "calculateRemoveLiquidity",
      "outputs": [
        {
          "internalType": "uint256[]",
          "name": "",
          "type": "uint256[]"
        }
      ],
      "stateMutability": "view",
      "type": "function"
    },
    {
      "inputs": [
        {
          "internalType": "uint256",
          "name": "tokenAmount",
          "type": "uint256"
        },
        {
          "internalType": "uint8",
          "name": "tokenIndex",
          "type": "uint8"
        }
      ],
      "name": "calculateRemoveLiquidityOneToken",
      "outputs": [
        {
          "internalType": "uint256",
          "name": "availableTokenAmount",
          "type": "uint256"
        }
      ],
      "stateMutability": "view",
      "type": "function"
    },
    {
      "inputs": [
        {
          "internalType": "uint8",
          "name": "tokenIndexFrom",
          "type": "uint8"
        },
        {
          "internalType": "uint8",
          "name": "tokenIndexTo",
          "type": "uint8"
        },
        {
          "internalType": "uint256",
          "name": "dx",
          "type": "uint256"
        }
      ],
      "name": "calculateSwap",
      "outputs": [
        {
          "internalType": "uint256",
          "name": "",
          "type": "uint256"
        }
      ],
      "stateMutability": "view",
      "type": "function"
    },
    {
      "inputs": [
        {
          "internalType": "address",
          "name": "assetIn",
          "type": "address"
        },
        {
          "internalType": "address",
          "name": "assetOut",
          "type": "address"
        },
        {
          "internalType": "uint256",
          "name": "amountIn",
          "type": "uint256"
        }
      ],
      "name": "calculateSwapFromAddress",
      "outputs": [
        {
          "internalType": "uint256",
          "name": "",
          "type": "uint256"
        }
      ],
      "stateMutability": "view",
      "type": "function"
    },
    {
      "inputs": [
        {
          "internalType": "uint8",
          "name": "tokenIndexFrom",
          "type": "uint8"
        },
        {
          "internalType": "uint8",
          "name": "tokenIndexTo",
          "type": "uint8"
        },
        {
          "internalType": "uint256",
          "name": "dy",
          "type": "uint256"
        }
      ],
      "name": "calculateSwapOut",
      "outputs": [
        {
          "internalType": "uint256",
          "name": "",
          "type": "uint256"
        }
      ],
      "stateMutability": "view",
      "type": "function"
    },
    {
      "inputs": [
        {
          "internalType": "address",
          "name": "assetIn",
          "type": "address"
        },
        {
          "internalType": "address",
          "name": "assetOut",
          "type": "address"
        },
        {
          "internalType": "uint256",
          "name": "amountOut",
          "type": "uint256"
        }
      ],
      "name": "calculateSwapOutFromAddress",
      "outputs": [
        {
          "internalType": "uint256",
          "name": "",
          "type": "uint256"
        }
      ],
      "stateMutability": "view",
      "type": "function"
    },
    {
      "inputs": [
        {
          "internalType": "uint256[]",
          "name": "amounts",
          "type": "uint256[]"
        },
        {
          "internalType": "bool",
          "name": "deposit",
          "type": "bool"
        }
      ],
      "name": "calculateTokenAmount",
      "outputs": [
        {
          "internalType": "uint256",
          "name": "",
          "type": "uint256"
        }
      ],
      "stateMutability": "view",
      "type": "function"
    },
    {
      "inputs": [],
      "name": "getA",
      "outputs": [
        {
          "internalType": "uint256",
          "name": "",
          "type": "uint256"
        }
      ],
      "stateMutability": "view",
      "type": "function"
    },
    {
      "inputs": [],
      "name": "getAPrecise",
      "outputs": [
        {
          "internalType": "uint256",
          "name": "",
          "type": "uint256"
        }
      ],
      "stateMutability": "view",
      "type": "function"
    },
    {
      "inputs": [
        {
          "internalType": "uint256",
          "name": "index",
          "type": "uint256"
        }
      ],
      "name": "getAdminBalance",
      "outputs": [
        {
          "internalType": "uint256",
          "name": "",
          "type": "uint256"
        }
      ],
      "stateMutability": "view",
      "type": "function"
    },
    {
      "inputs": [
        {
          "internalType": "uint8",
          "name": "index",
          "type": "uint8"
        }
      ],
      "name": "getToken",
      "outputs": [
        {
          "internalType": "contract IERC20",
          "name": "",
          "type": "address"
        }
      ],
      "stateMutability": "view",
      "type": "function"
    },
    {
      "inputs": [
        {
          "internalType": "uint8",
          "name": "index",
          "type": "uint8"
        }
      ],
      "name": "getTokenBalance",
      "outputs": [
        {
          "internalType": "uint256",
          "name": "",
          "type": "uint256"
        }
      ],
      "stateMutability": "view",
      "type": "function"
    },
    {
      "inputs": [
        {
          "internalType": "address",
          "name": "tokenAddress",
          "type": "address"
        }
      ],
      "name": "getTokenIndex",
      "outputs": [
        {
          "internalType": "uint8",
          "name": "",
          "type": "uint8"
        }
      ],
      "stateMutability": "view",
      "type": "function"
    },
    {
      "inputs": [],
      "name": "getVirtualPrice",
      "outputs": [
        {
          "internalType": "uint256",
          "name": "",
          "type": "uint256"
        }
      ],
      "stateMutability": "view",
      "type": "function"
    },
    {
      "inputs": [
        {
          "internalType": "contract IERC20[]",
          "name": "_pooledTokens",
          "type": "address[]"
        },
        {
          "internalType": "uint8[]",
          "name": "decimals",
          "type": "uint8[]"
        },
        {
          "internalType": "string",
          "name": "lpTokenName",
          "type": "string"
        },
        {
          "internalType": "string",
          "name": "lpTokenSymbol",
          "type": "string"
        },
        {
          "internalType": "uint256",
          "name": "_a",
          "type": "uint256"
        },
        {
          "internalType": "uint256",
          "name": "_fee",
          "type": "uint256"
        },
        {
          "internalType": "uint256",
          "name": "_adminFee",
          "type": "uint256"
        },
        {
          "internalType": "address",
          "name": "lpTokenTargetAddress",
          "type": "address"
        }
      ],
      "name": "initialize",
      "outputs": [],
      "stateMutability": "nonpayable",
      "type": "function"
    },
    {
      "inputs": [],
      "name": "owner",
      "outputs": [
        {
          "internalType": "address",
          "name": "",
          "type": "address"
        }
      ],
      "stateMutability": "view",
      "type": "function"
    },
    {
      "inputs": [],
      "name": "pause",
      "outputs": [],
      "stateMutability": "nonpayable",
      "type": "function"
    },
    {
      "inputs": [],
      "name": "paused",
      "outputs": [
        {
          "internalType": "bool",
          "name": "",
          "type": "bool"
        }
      ],
      "stateMutability": "view",
      "type": "function"
    },
    {
      "inputs": [
        {
          "internalType": "uint256",
          "name": "futureA",
          "type": "uint256"
        },
        {
          "internalType": "uint256",
          "name": "futureTime",
          "type": "uint256"
        }
      ],
      "name": "rampA",
      "outputs": [],
      "stateMutability": "nonpayable",
      "type": "function"
    },
    {
      "inputs": [
        {
          "internalType": "uint256",
          "name": "amount",
          "type": "uint256"
        },
        {
          "internalType": "uint256[]",
          "name": "minAmounts",
          "type": "uint256[]"
        },
        {
          "internalType": "uint256",
          "name": "deadline",
          "type": "uint256"
        }
      ],
      "name": "removeLiquidity",
      "outputs": [
        {
          "internalType": "uint256[]",
          "name": "",
          "type": "uint256[]"
        }
      ],
      "stateMutability": "nonpayable",
      "type": "function"
    },
    {
      "inputs": [
        {
          "internalType": "uint256[]",
          "name": "amounts",
          "type": "uint256[]"
        },
        {
          "internalType": "uint256",
          "name": "maxBurnAmount",
          "type": "uint256"
        },
        {
          "internalType": "uint256",
          "name": "deadline",
          "type": "uint256"
        }
      ],
      "name": "removeLiquidityImbalance",
      "outputs": [
        {
          "internalType": "uint256",
          "name": "",
          "type": "uint256"
        }
      ],
      "stateMutability": "nonpayable",
      "type": "function"
    },
    {
      "inputs": [
        {
          "internalType": "uint256",
          "name": "tokenAmount",
          "type": "uint256"
        },
        {
          "internalType": "uint8",
          "name": "tokenIndex",
          "type": "uint8"
        },
        {
          "internalType": "uint256",
          "name": "minAmount",
          "type": "uint256"
        },
        {
          "internalType": "uint256",
          "name": "deadline",
          "type": "uint256"
        }
      ],
      "name": "removeLiquidityOneToken",
      "outputs": [
        {
          "internalType": "uint256",
          "name": "",
          "type": "uint256"
        }
      ],
      "stateMutability": "nonpayable",
      "type": "function"
    },
    {
      "inputs": [],
      "name": "renounceOwnership",
      "outputs": [],
      "stateMutability": "nonpayable",
      "type": "function"
    },
    {
      "inputs": [
        {
          "internalType": "uint256",
          "name": "newAdminFee",
          "type": "uint256"
        }
      ],
      "name": "setAdminFee",
      "outputs": [],
      "stateMutability": "nonpayable",
      "type": "function"
    },
    {
      "inputs": [
        {
          "internalType": "uint256",
          "name": "newSwapFee",
          "type": "uint256"
        }
      ],
      "name": "setSwapFee",
      "outputs": [],
      "stateMutability": "nonpayable",
      "type": "function"
    },
    {
      "inputs": [],
      "name": "stopRampA",
      "outputs": [],
      "stateMutability": "nonpayable",
      "type": "function"
    },
    {
      "inputs": [
        {
          "internalType": "uint8",
          "name": "tokenIndexFrom",
          "type": "uint8"
        },
        {
          "internalType": "uint8",
          "name": "tokenIndexTo",
          "type": "uint8"
        },
        {
          "internalType": "uint256",
          "name": "dx",
          "type": "uint256"
        },
        {
          "internalType": "uint256",
          "name": "minDy",
          "type": "uint256"
        },
        {
          "internalType": "uint256",
          "name": "deadline",
          "type": "uint256"
        }
      ],
      "name": "swap",
      "outputs": [
        {
          "internalType": "uint256",
          "name": "",
          "type": "uint256"
        }
      ],
      "stateMutability": "nonpayable",
      "type": "function"
    },
    {
      "inputs": [
        {
          "internalType": "uint256",
          "name": "amountIn",
          "type": "uint256"
        },
        {
          "internalType": "address",
          "name": "assetIn",
          "type": "address"
        },
        {
          "internalType": "address",
          "name": "assetOut",
          "type": "address"
        },
        {
          "internalType": "uint256",
          "name": "minAmountOut",
          "type": "uint256"
        },
        {
          "internalType": "uint256",
          "name": "deadline",
          "type": "uint256"
        }
      ],
      "name": "swapExact",
      "outputs": [
        {
          "internalType": "uint256",
          "name": "",
          "type": "uint256"
        }
      ],
      "stateMutability": "payable",
      "type": "function"
    },
    {
      "inputs": [
        {
          "internalType": "uint256",
          "name": "amountOut",
          "type": "uint256"
        },
        {
          "internalType": "address",
          "name": "assetIn",
          "type": "address"
        },
        {
          "internalType": "address",
          "name": "assetOut",
          "type": "address"
        },
        {
          "internalType": "uint256",
          "name": "maxAmountIn",
          "type": "uint256"
        },
        {
          "internalType": "uint256",
          "name": "deadline",
          "type": "uint256"
        }
      ],
      "name": "swapExactOut",
      "outputs": [
        {
          "internalType": "uint256",
          "name": "",
          "type": "uint256"
        }
      ],
      "stateMutability": "payable",
      "type": "function"
    },
    {
      "inputs": [],
      "name": "swapStorage",
      "outputs": [
        {
          "internalType": "uint256",
          "name": "initialA",
          "type": "uint256"
        },
        {
          "internalType": "uint256",
          "name": "futureA",
          "type": "uint256"
        },
        {
          "internalType": "uint256",
          "name": "initialATime",
          "type": "uint256"
        },
        {
          "internalType": "uint256",
          "name": "futureATime",
          "type": "uint256"
        },
        {
          "internalType": "uint256",
          "name": "swapFee",
          "type": "uint256"
        },
        {
          "internalType": "uint256",
          "name": "adminFee",
          "type": "uint256"
        },
        {
          "internalType": "contract LPToken",
          "name": "lpToken",
          "type": "address"
        }
      ],
      "stateMutability": "view",
      "type": "function"
    },
    {
      "inputs": [
        {
          "internalType": "address",
          "name": "newOwner",
          "type": "address"
        }
      ],
      "name": "transferOwnership",
      "outputs": [],
      "stateMutability": "nonpayable",
      "type": "function"
    },
    {
      "inputs": [],
      "name": "unpause",
      "outputs": [],
      "stateMutability": "nonpayable",
      "type": "function"
    },
    {
      "inputs": [],
      "name": "withdrawAdminFees",
      "outputs": [],
      "stateMutability": "nonpayable",
      "type": "function"
    }
  ],
  "transactionHash": "0x51aa7810dd3fa8b2c58b614cf79eb33411f6ba721b0ae9b5e03f77d27039ff75",
  "args": [],
  "numDeployments": 1,
  "solcInputHash": "e4ffa5ba21fbb2126166c2ccdc2ad851",
  "bytecode": "0x608060405234801561001057600080fd5b50612d9a806100206000396000f3fe6080604052600436106101f95760003560e01c80638456cb591161010d578063c4db7fa0116100a0578063e6ab28061161006f578063e6ab2806146105d6578063ef0a712f146105f6578063f2fad2b614610616578063f2fde38b14610636578063f9a15fb91461065657600080fd5b8063c4db7fa014610584578063d460f0a214610599578063d46300fd146105ac578063e25aa5fa146105c157600080fd5b806391695586116100dc578063916955861461050457806391ceb3eb14610524578063a95b089f14610544578063b28cb6dc1461056457600080fd5b80638456cb591461049157806384cdd9bc146104a65780638beb60b6146104c65780638da5cb5b146104e657600080fd5b80635428c1171161019057806366c0bd241161015f57806366c0bd24146103d25780636b1dc08b14610404578063715018a6146104245780637f41e7ef1461043957806382b866001461045957600080fd5b80635428c117146102ff578063593d132c146103125780635c975abb146103325780635fd65f0f1461035557600080fd5b806334e19907116101cc57806334e199071461028a5780633e3a1560146102aa5780633f4ba83a146102ca5780634d49e87d146102df57600080fd5b80630419b45a146101fe5780630ba819591461021557806331cd52b01461023d578063342a87a11461026a575b600080fd5b34801561020a57600080fd5b50610213610676565b005b34801561022157600080fd5b5061022a610763565b6040519081526020015b60405180910390f35b34801561024957600080fd5b5061025d6102583660046122e5565b6107e1565b6040516102349190612338565b34801561027657600080fd5b5061022a61028536600461238d565b6108be565b34801561029657600080fd5b506102136102a53660046123b9565b61094f565b3480156102b657600080fd5b5061022a6102c53660046123d2565b6109e8565b3480156102d657600080fd5b50610213610ae2565b3480156102eb57600080fd5b5061022a6102fa36600461240d565b610b16565b61022a61030d36600461247e565b610bc2565b34801561031e57600080fd5b5061021361032d3660046124d0565b610cf1565b34801561033e57600080fd5b5060655460ff166040519015158152602001610234565b34801561036157600080fd5b5061012b5461012c5461012d5461012e5461012f546101305461013154610394969594939291906001600160a01b031687565b604080519788526020880196909652948601939093526060850191909152608084015260a08301526001600160a01b031660c082015260e001610234565b3480156103de57600080fd5b506103f26103ed3660046124f2565b610d91565b60405160ff9091168152602001610234565b34801561041057600080fd5b5061022a61041f366004612516565b610e09565b34801561043057600080fd5b50610213610ea2565b34801561044557600080fd5b5061022a610454366004612552565b610ed6565b34801561046557600080fd5b50610479610474366004612593565b610f8a565b6040516001600160a01b039091168152602001610234565b34801561049d57600080fd5b50610213611004565b3480156104b257600080fd5b5061022a6104c136600461240d565b611036565b3480156104d257600080fd5b506102136104e13660046123b9565b6110e2565b3480156104f257600080fd5b506033546001600160a01b0316610479565b34801561051057600080fd5b5061022a61051f3660046125ae565b61114c565b34801561053057600080fd5b5061022a61053f366004612593565b61125d565b34801561055057600080fd5b5061022a61055f366004612516565b6112d4565b34801561057057600080fd5b5061021361057f3660046127ac565b611328565b34801561059057600080fd5b50610213611ab0565b61022a6105a736600461247e565b611b40565b3480156105b857600080fd5b5061022a611c20565b3480156105cd57600080fd5b5061022a611c5c565b3480156105e257600080fd5b5061022a6105f1366004612895565b611c98565b34801561060257600080fd5b5061022a6106113660046123b9565b611cda565b34801561062257600080fd5b5061025d6106313660046123b9565b611d59565b34801561064257600080fd5b506102136106513660046124f2565b611ddc565b34801561066257600080fd5b5061022a610671366004612552565b611e77565b600260c854036106a15760405162461bcd60e51b8152600401610698906128ec565b60405180910390fd5b600260c8556033546001600160a01b031633146106d05760405162461bcd60e51b815260040161069890612923565b7320958cBBD1359AF25a296976276B8DaC1B7E71D3639cbd240661012b6106ff6033546001600160a01b031690565b6040516001600160e01b031960e085901b16815260048101929092526001600160a01b0316602482015260440160006040518083038186803b15801561074457600080fd5b505af4158015610758573d6000803e3d6000fd5b5050600160c8555050565b60405163f43dee5360e01b815261012b60048201526000907320958cBBD1359AF25a296976276B8DaC1B7E71D39063f43dee53906024015b602060405180830381865af41580156107b8573d6000803e3d6000fd5b505050506040513d601f19601f820116820180604052508101906107dc9190612958565b905090565b6060600260c854036108055760405162461bcd60e51b8152600401610698906128ec565b600260c855814281101561082b5760405162461bcd60e51b815260040161069890612971565b604051631beec94360e21b81527320958cBBD1359AF25a296976276B8DaC1B7E71D390636fbb250c9061086a9061012b908a908a908a906004016129d1565b600060405180830381865af4158015610887573d6000803e3d6000fd5b505050506040513d6000823e601f3d908101601f191682016040526108af91908101906129f1565b600160c8559695505050505050565b6040516384eeef2760e01b815261012b60048201526024810183905260ff821660448201526000907320958cBBD1359AF25a296976276B8DaC1B7E71D3906384eeef2790606401602060405180830381865af4158015610922573d6000803e3d6000fd5b505050506040513d601f19601f820116820180604052508101906109469190612958565b90505b92915050565b6033546001600160a01b031633146109795760405162461bcd60e51b815260040161069890612923565b604051632cecccb560e11b815261012b6004820152602481018290527320958cBBD1359AF25a296976276B8DaC1B7E71D3906359d9996a906044015b60006040518083038186803b1580156109cd57600080fd5b505af41580156109e1573d6000803e3d6000fd5b5050505050565b6000600260c85403610a0c5760405162461bcd60e51b8152600401610698906128ec565b600260c85560655460ff1615610a345760405162461bcd60e51b815260040161069890612a82565b8180421115610a555760405162461bcd60e51b815260040161069890612971565b604051632b8ffbb760e21b815261012b60048201526024810187905260ff86166044820152606481018590527320958cBBD1359AF25a296976276B8DaC1B7E71D39063ae3feedc906084015b602060405180830381865af4158015610abe573d6000803e3d6000fd5b505050506040513d601f19601f820116820180604052508101906108af9190612958565b6033546001600160a01b03163314610b0c5760405162461bcd60e51b815260040161069890612923565b610b14611ee4565b565b6000600260c85403610b3a5760405162461bcd60e51b8152600401610698906128ec565b600260c85560655460ff1615610b625760405162461bcd60e51b815260040161069890612a82565b8180421115610b835760405162461bcd60e51b815260040161069890612971565b6040516333a43f9560e11b81527320958cBBD1359AF25a296976276B8DaC1B7E71D3906367487f2a90610aa19061012b908a908a908a90600401612aac565b6000600260c85403610be65760405162461bcd60e51b8152600401610698906128ec565b600260c85560655460ff1615610c0e5760405162461bcd60e51b815260040161069890612a82565b8180421115610c2f5760405162461bcd60e51b815260040161069890612971565b6000610c3a87610d91565b90506000610c4787610d91565b60405163703c02d560e11b815261012b600482015260ff808516602483015282166044820152606481018b9052608481018890529091507320958cBBD1359AF25a296976276B8DaC1B7E71D39063e07805aa9060a4015b602060405180830381865af4158015610cbb573d6000803e3d6000fd5b505050506040513d601f19601f82011682018060405250810190610cdf9190612958565b600160c8559998505050505050505050565b6033546001600160a01b03163314610d1b5760405162461bcd60e51b815260040161069890612923565b604051633f1e106160e21b815261012b600482015260248101839052604481018290527320958cBBD1359AF25a296976276B8DaC1B7E71D39063fc7841849060640160006040518083038186803b158015610d7557600080fd5b505af4158015610d89573d6000803e3d6000fd5b505050505050565b6001600160a01b03811660008181526101366020526040812054909160ff90911690610dbc82610f8a565b6001600160a01b0316146109495760405162461bcd60e51b8152602060048201526014602482015273151bdad95b88191bd95cc81b9bdd08195e1a5cdd60621b6044820152606401610698565b604051632e4be8d760e21b815261012b600482015260ff808516602483015283166044820152606481018290526000907320958cBBD1359AF25a296976276B8DaC1B7E71D39063b92fa35c906084015b602060405180830381865af4158015610e76573d6000803e3d6000fd5b505050506040513d601f19601f82011682018060405250810190610e9a9190612958565b949350505050565b6033546001600160a01b03163314610ecc5760405162461bcd60e51b815260040161069890612923565b610b146000611f77565b600080610ee285610d91565b90506000610eef85610d91565b604051632f4998ad60e01b815261012b600482015260ff808516602483015282166044820152606481018690529091507320958cBBD1359AF25a296976276B8DaC1B7E71D390632f4998ad906084015b602060405180830381865af4158015610f5c573d6000803e3d6000fd5b505050506040513d601f19601f82011682018060405250810190610f809190612958565b9695505050505050565b6101325460009060ff831610610fd15760405162461bcd60e51b815260206004820152600c60248201526b4f7574206f662072616e676560a01b6044820152606401610698565b610132805460ff8416908110610fe957610fe9612ad7565b6000918252602090912001546001600160a01b031692915050565b6033546001600160a01b0316331461102e5760405162461bcd60e51b815260040161069890612923565b610b14611fc9565b6000600260c8540361105a5760405162461bcd60e51b8152600401610698906128ec565b600260c85560655460ff16156110825760405162461bcd60e51b815260040161069890612a82565b81804211156110a35760405162461bcd60e51b815260040161069890612971565b60405163077b83d360e41b81527320958cBBD1359AF25a296976276B8DaC1B7E71D3906377b83d3090610aa19061012b908a908a908a90600401612aac565b6033546001600160a01b0316331461110c5760405162461bcd60e51b815260040161069890612923565b6040516308bbaa2360e01b815261012b6004820152602481018290527320958cBBD1359AF25a296976276B8DaC1B7E71D3906308bbaa23906044016109b5565b6000600260c854036111705760405162461bcd60e51b8152600401610698906128ec565b600260c85560655460ff16156111985760405162461bcd60e51b815260040161069890612a82565b81804211156111b95760405162461bcd60e51b815260040161069890612971565b60405163f204293960e01b815261012b600482015260ff80891660248301528716604482015260648101869052608481018590527320958cBBD1359AF25a296976276B8DaC1B7E71D39063f20429399060a401602060405180830381865af4158015611229573d6000803e3d6000fd5b505050506040513d601f19601f8201168201806040525081019061124d9190612958565b600160c855979650505050505050565b6101325460009060ff8316106112aa5760405162461bcd60e51b8152602060048201526012602482015271496e646578206f7574206f662072616e676560701b6044820152606401610698565b610134805460ff84169081106112c2576112c2612ad7565b90600052602060002001549050919050565b604051632f4998ad60e01b815261012b600482015260ff808516602483015283166044820152606481018290526000907320958cBBD1359AF25a296976276B8DaC1B7E71D390632f4998ad90608401610e59565b600054610100900460ff166113435760005460ff1615611347565b303b155b6113aa5760405162461bcd60e51b815260206004820152602e60248201527f496e697469616c697a61626c653a20636f6e747261637420697320616c72656160448201526d191e481a5b9a5d1a585b1a5e995960921b6064820152608401610698565b600054610100900460ff161580156113cc576000805461ffff19166101011790555b6113d4612021565b6113dc612060565b600189511161142d5760405162461bcd60e51b815260206004820152601960248201527f5f706f6f6c6564546f6b656e732e6c656e677468203c3d2031000000000000006044820152606401610698565b60208951111561147f5760405162461bcd60e51b815260206004820152601960248201527f5f706f6f6c6564546f6b656e732e6c656e677468203e203332000000000000006044820152606401610698565b87518951146114d05760405162461bcd60e51b815260206004820152601f60248201527f5f706f6f6c6564546f6b656e7320646563696d616c73206d69736d61746368006044820152606401610698565b6000885167ffffffffffffffff8111156114ec576114ec6125fb565b604051908082528060200260200182016040528015611515578160200160208202803683370190505b50905060005b8a518160ff1610156117bc5760ff8116156116055761013660008c8360ff168151811061154a5761154a612ad7565b6020908102919091018101516001600160a01b031682528101919091526040016000205460ff161580156115c657508a8160ff168151811061158e5761158e612ad7565b60200260200101516001600160a01b03168b6000815181106115b2576115b2612ad7565b60200260200101516001600160a01b031614155b6116055760405162461bcd60e51b815260206004820152601060248201526f4475706c696361746520746f6b656e7360801b6044820152606401610698565b60006001600160a01b03168b8260ff168151811061162557611625612ad7565b60200260200101516001600160a01b0316036116835760405162461bcd60e51b815260206004820152601d60248201527f546865203020616464726573732069736e277420616e204552432d32300000006044820152606401610698565b601260ff168a8260ff168151811061169d5761169d612ad7565b602002602001015160ff1611156116f65760405162461bcd60e51b815260206004820152601a60248201527f546f6b656e20646563696d616c732065786365656473206d61780000000000006044820152606401610698565b898160ff168151811061170b5761170b612ad7565b6020026020010151601261171f9190612b03565b61172d9060ff16600a612c0a565b828260ff168151811061174257611742612ad7565b6020026020010181815250508061013660008d8460ff168151811061176957611769612ad7565b60200260200101516001600160a01b03166001600160a01b0316815260200190815260200160002060006101000a81548160ff021916908360ff16021790555080806117b490612c16565b91505061151b565b50620f424086106118045760405162461bcd60e51b81526020600482015260126024820152715f612065786365656473206d6178696d756d60701b6044820152606401610698565b6305f5e100851061184e5760405162461bcd60e51b81526020600482015260146024820152735f6665652065786365656473206d6178696d756d60601b6044820152606401610698565b6402540be40084106118a25760405162461bcd60e51b815260206004820152601960248201527f5f61646d696e4665652065786365656473206d6178696d756d000000000000006044820152606401610698565b60006118ad8461208f565b60405163266c45bb60e11b81529091506001600160a01b03821690634cd88b76906118de908c908c90600401612c82565b6020604051808303816000875af11580156118fd573d6000803e3d6000fd5b505050506040513d601f19601f820116820180604052508101906119219190612cb0565b61196d5760405162461bcd60e51b815260206004820152601c60248201527f636f756c64206e6f7420696e6974206c70546f6b656e20636c6f6e65000000006044820152606401610698565b61013180546001600160a01b0319166001600160a01b0383161790558a5161199d906101329060208e01906121e4565b5081516119b290610133906020850190612249565b508a5167ffffffffffffffff8111156119cd576119cd6125fb565b6040519080825280602002602001820160405280156119f6578160200160208202803683370190505b508051611a0c9161013491602090910190612249565b508a5167ffffffffffffffff811115611a2757611a276125fb565b604051908082528060200260200182016040528015611a50578160200160208202803683370190505b508051611a669161013591602090910190612249565b50611a72606488612ccd565b61012b55611a81606488612ccd565b61012c55505061012f8490556101308390558015611aa5576000805461ff00191690555b505050505050505050565b6033546001600160a01b03163314611ada5760405162461bcd60e51b815260040161069890612923565b60405163e5b994c560e01b815261012b60048201527320958cBBD1359AF25a296976276B8DaC1B7E71D39063e5b994c59060240160006040518083038186803b158015611b2657600080fd5b505af4158015611b3a573d6000803e3d6000fd5b50505050565b6000600260c85403611b645760405162461bcd60e51b8152600401610698906128ec565b600260c85560655460ff1615611b8c5760405162461bcd60e51b815260040161069890612a82565b8180421115611bad5760405162461bcd60e51b815260040161069890612971565b6000611bb887610d91565b90506000611bc587610d91565b60405163f204293960e01b815261012b600482015260ff808516602483015282166044820152606481018b9052608481018890529091507320958cBBD1359AF25a296976276B8DaC1B7E71D39063f20429399060a401610c9e565b604051631158dafb60e11b815261012b60048201526000907320958cBBD1359AF25a296976276B8DaC1B7E71D3906322b1b5f69060240161079b565b604051638be1e52360e01b815261012b60048201526000907320958cBBD1359AF25a296976276B8DaC1B7E71D390638be1e5239060240161079b565b6040516322b2b60760e01b81526000907320958cBBD1359AF25a296976276B8DaC1B7E71D3906322b2b60790610e599061012b90889088908890600401612cec565b604051631ce9046f60e01b815261012b6004820152602481018290526000907320958cBBD1359AF25a296976276B8DaC1B7E71D390631ce9046f90604401602060405180830381865af4158015611d35573d6000803e3d6000fd5b505050506040513d601f19601f820116820180604052508101906109499190612958565b604051638cc122bb60e01b815261012b6004820152602481018290526060907320958cBBD1359AF25a296976276B8DaC1B7E71D390638cc122bb90604401600060405180830381865af4158015611db4573d6000803e3d6000fd5b505050506040513d6000823e601f3d908101601f1916820160405261094991908101906129f1565b6033546001600160a01b03163314611e065760405162461bcd60e51b815260040161069890612923565b6001600160a01b038116611e6b5760405162461bcd60e51b815260206004820152602660248201527f4f776e61626c653a206e6577206f776e657220697320746865207a65726f206160448201526564647265737360d01b6064820152608401610698565b611e7481611f77565b50565b600080611e8385610d91565b90506000611e9085610d91565b604051632e4be8d760e21b815261012b600482015260ff808516602483015282166044820152606481018690529091507320958cBBD1359AF25a296976276B8DaC1B7E71D39063b92fa35c90608401610f3f565b60655460ff16611f2d5760405162461bcd60e51b815260206004820152601460248201527314185d5cd8589b194e881b9bdd081c185d5cd95960621b6044820152606401610698565b6065805460ff191690557f5db9ee0a495bf2e6ff9c91a7834c1ba4fdd244a5e8aa4e537bd38aeae4b073aa335b6040516001600160a01b03909116815260200160405180910390a1565b603380546001600160a01b038381166001600160a01b0319831681179093556040519116919082907f8be0079c531659141344cd1fd0a4f28419497f9722a3daafe3b4186f6b6457e090600090a35050565b60655460ff1615611fec5760405162461bcd60e51b815260040161069890612a82565b6065805460ff191660011790557f62e78cea01bee320cd4e420270b5ea74000d11b0c9f74754ebdbfc544b05a258611f5a3390565b600054610100900460ff166120485760405162461bcd60e51b815260040161069890612d19565b61205061212c565b612058612153565b610b14612183565b600054610100900460ff166120875760405162461bcd60e51b815260040161069890612d19565b610b146121b6565b6000604051733d602d80600a3d3981f3363d3d373d3d3d363d7360601b81528260601b60148201526e5af43d82803e903d91602b57fd5bf360881b60288201526037816000f09150506001600160a01b0381166121275760405162461bcd60e51b8152602060048201526016602482015275115490cc4c4d8dce8818dc99585d194819985a5b195960521b6044820152606401610698565b919050565b600054610100900460ff16610b145760405162461bcd60e51b815260040161069890612d19565b600054610100900460ff1661217a5760405162461bcd60e51b815260040161069890612d19565b610b1433611f77565b600054610100900460ff166121aa5760405162461bcd60e51b815260040161069890612d19565b6065805460ff19169055565b600054610100900460ff166121dd5760405162461bcd60e51b815260040161069890612d19565b600160c855565b828054828255906000526020600020908101928215612239579160200282015b8281111561223957825182546001600160a01b0319166001600160a01b03909116178255602090920191600190910190612204565b50612245929150612284565b5090565b828054828255906000526020600020908101928215612239579160200282015b82811115612239578251825591602001919060010190612269565b5b808211156122455760008155600101612285565b60008083601f8401126122ab57600080fd5b50813567ffffffffffffffff8111156122c357600080fd5b6020830191508360208260051b85010111156122de57600080fd5b9250929050565b600080600080606085870312156122fb57600080fd5b84359350602085013567ffffffffffffffff81111561231957600080fd5b61232587828801612299565b9598909750949560400135949350505050565b6020808252825182820181905260009190848201906040850190845b8181101561237057835183529284019291840191600101612354565b50909695505050505050565b803560ff8116811461212757600080fd5b600080604083850312156123a057600080fd5b823591506123b06020840161237c565b90509250929050565b6000602082840312156123cb57600080fd5b5035919050565b600080600080608085870312156123e857600080fd5b843593506123f86020860161237c565b93969395505050506040820135916060013590565b6000806000806060858703121561242357600080fd5b843567ffffffffffffffff81111561243a57600080fd5b61244687828801612299565b90989097506020870135966040013595509350505050565b6001600160a01b0381168114611e7457600080fd5b80356121278161245e565b600080600080600060a0868803121561249657600080fd5b8535945060208601356124a88161245e565b935060408601356124b88161245e565b94979396509394606081013594506080013592915050565b600080604083850312156124e357600080fd5b50508035926020909101359150565b60006020828403121561250457600080fd5b813561250f8161245e565b9392505050565b60008060006060848603121561252b57600080fd5b6125348461237c565b92506125426020850161237c565b9150604084013590509250925092565b60008060006060848603121561256757600080fd5b83356125728161245e565b925060208401356125828161245e565b929592945050506040919091013590565b6000602082840312156125a557600080fd5b6109468261237c565b600080600080600060a086880312156125c657600080fd5b6125cf8661237c565b94506125dd6020870161237c565b94979496505050506040830135926060810135926080909101359150565b634e487b7160e01b600052604160045260246000fd5b604051601f8201601f1916810167ffffffffffffffff8111828210171561263a5761263a6125fb565b604052919050565b600067ffffffffffffffff82111561265c5761265c6125fb565b5060051b60200190565b600082601f83011261267757600080fd5b8135602061268c61268783612642565b612611565b82815260059290921b840181019181810190868411156126ab57600080fd5b8286015b848110156126cf5780356126c28161245e565b83529183019183016126af565b509695505050505050565b600082601f8301126126eb57600080fd5b813560206126fb61268783612642565b82815260059290921b8401810191818101908684111561271a57600080fd5b8286015b848110156126cf5761272f8161237c565b835291830191830161271e565b600082601f83011261274d57600080fd5b813567ffffffffffffffff811115612767576127676125fb565b61277a601f8201601f1916602001612611565b81815284602083860101111561278f57600080fd5b816020850160208301376000918101602001919091529392505050565b600080600080600080600080610100898b0312156127c957600080fd5b883567ffffffffffffffff808211156127e157600080fd5b6127ed8c838d01612666565b995060208b013591508082111561280357600080fd5b61280f8c838d016126da565b985060408b013591508082111561282557600080fd5b6128318c838d0161273c565b975060608b013591508082111561284757600080fd5b506128548b828c0161273c565b9550506080890135935060a0890135925060c0890135915061287860e08a01612473565b90509295985092959890939650565b8015158114611e7457600080fd5b6000806000604084860312156128aa57600080fd5b833567ffffffffffffffff8111156128c157600080fd5b6128cd86828701612299565b90945092505060208401356128e181612887565b809150509250925092565b6020808252601f908201527f5265656e7472616e637947756172643a207265656e7472616e742063616c6c00604082015260600190565b6020808252818101527f4f776e61626c653a2063616c6c6572206973206e6f7420746865206f776e6572604082015260600190565b60006020828403121561296a57600080fd5b5051919050565b60208082526010908201526f111958591b1a5b99481b9bdd081b595d60821b604082015260600190565b81835260006001600160fb1b038311156129b457600080fd5b8260051b8083602087013760009401602001938452509192915050565b848152836020820152606060408201526000610f8060608301848661299b565b60006020808385031215612a0457600080fd5b825167ffffffffffffffff811115612a1b57600080fd5b8301601f81018513612a2c57600080fd5b8051612a3a61268782612642565b81815260059190911b82018301908381019087831115612a5957600080fd5b928401925b82841015612a7757835182529284019290840190612a5e565b979650505050505050565b60208082526010908201526f14185d5cd8589b194e881c185d5cd95960821b604082015260600190565b848152606060208201526000612ac660608301858761299b565b905082604083015295945050505050565b634e487b7160e01b600052603260045260246000fd5b634e487b7160e01b600052601160045260246000fd5b600060ff821660ff841680821015612b1d57612b1d612aed565b90039392505050565b600181815b80851115612b61578160001904821115612b4757612b47612aed565b80851615612b5457918102915b93841c9390800290612b2b565b509250929050565b600082612b7857506001610949565b81612b8557506000610949565b8160018114612b9b5760028114612ba557612bc1565b6001915050610949565b60ff841115612bb657612bb6612aed565b50506001821b610949565b5060208310610133831016604e8410600b8410161715612be4575081810a610949565b612bee8383612b26565b8060001904821115612c0257612c02612aed565b029392505050565b60006109468383612b69565b600060ff821660ff8103612c2c57612c2c612aed565b60010192915050565b6000815180845260005b81811015612c5b57602081850181015186830182015201612c3f565b81811115612c6d576000602083870101525b50601f01601f19169290920160200192915050565b604081526000612c956040830185612c35565b8281036020840152612ca78185612c35565b95945050505050565b600060208284031215612cc257600080fd5b815161250f81612887565b6000816000190483118215151615612ce757612ce7612aed565b500290565b848152606060208201526000612d0660608301858761299b565b9050821515604083015295945050505050565b6020808252602b908201527f496e697469616c697a61626c653a20636f6e7472616374206973206e6f74206960408201526a6e697469616c697a696e6760a81b60608201526080019056fea2646970667358221220212671622b299a49ed0bbb8875c4ee9c6b48feff146d86c0394fa32a10e76a8f64736f6c634300080f0033",
  "deployedBytecode": "0x6080604052600436106101f95760003560e01c80638456cb591161010d578063c4db7fa0116100a0578063e6ab28061161006f578063e6ab2806146105d6578063ef0a712f146105f6578063f2fad2b614610616578063f2fde38b14610636578063f9a15fb91461065657600080fd5b8063c4db7fa014610584578063d460f0a214610599578063d46300fd146105ac578063e25aa5fa146105c157600080fd5b806391695586116100dc578063916955861461050457806391ceb3eb14610524578063a95b089f14610544578063b28cb6dc1461056457600080fd5b80638456cb591461049157806384cdd9bc146104a65780638beb60b6146104c65780638da5cb5b146104e657600080fd5b80635428c1171161019057806366c0bd241161015f57806366c0bd24146103d25780636b1dc08b14610404578063715018a6146104245780637f41e7ef1461043957806382b866001461045957600080fd5b80635428c117146102ff578063593d132c146103125780635c975abb146103325780635fd65f0f1461035557600080fd5b806334e19907116101cc57806334e199071461028a5780633e3a1560146102aa5780633f4ba83a146102ca5780634d49e87d146102df57600080fd5b80630419b45a146101fe5780630ba819591461021557806331cd52b01461023d578063342a87a11461026a575b600080fd5b34801561020a57600080fd5b50610213610676565b005b34801561022157600080fd5b5061022a610763565b6040519081526020015b60405180910390f35b34801561024957600080fd5b5061025d6102583660046122e5565b6107e1565b6040516102349190612338565b34801561027657600080fd5b5061022a61028536600461238d565b6108be565b34801561029657600080fd5b506102136102a53660046123b9565b61094f565b3480156102b657600080fd5b5061022a6102c53660046123d2565b6109e8565b3480156102d657600080fd5b50610213610ae2565b3480156102eb57600080fd5b5061022a6102fa36600461240d565b610b16565b61022a61030d36600461247e565b610bc2565b34801561031e57600080fd5b5061021361032d3660046124d0565b610cf1565b34801561033e57600080fd5b5060655460ff166040519015158152602001610234565b34801561036157600080fd5b5061012b5461012c5461012d5461012e5461012f546101305461013154610394969594939291906001600160a01b031687565b604080519788526020880196909652948601939093526060850191909152608084015260a08301526001600160a01b031660c082015260e001610234565b3480156103de57600080fd5b506103f26103ed3660046124f2565b610d91565b60405160ff9091168152602001610234565b34801561041057600080fd5b5061022a61041f366004612516565b610e09565b34801561043057600080fd5b50610213610ea2565b34801561044557600080fd5b5061022a610454366004612552565b610ed6565b34801561046557600080fd5b50610479610474366004612593565b610f8a565b6040516001600160a01b039091168152602001610234565b34801561049d57600080fd5b50610213611004565b3480156104b257600080fd5b5061022a6104c136600461240d565b611036565b3480156104d257600080fd5b506102136104e13660046123b9565b6110e2565b3480156104f257600080fd5b506033546001600160a01b0316610479565b34801561051057600080fd5b5061022a61051f3660046125ae565b61114c565b34801561053057600080fd5b5061022a61053f366004612593565b61125d565b34801561055057600080fd5b5061022a61055f366004612516565b6112d4565b34801561057057600080fd5b5061021361057f3660046127ac565b611328565b34801561059057600080fd5b50610213611ab0565b61022a6105a736600461247e565b611b40565b3480156105b857600080fd5b5061022a611c20565b3480156105cd57600080fd5b5061022a611c5c565b3480156105e257600080fd5b5061022a6105f1366004612895565b611c98565b34801561060257600080fd5b5061022a6106113660046123b9565b611cda565b34801561062257600080fd5b5061025d6106313660046123b9565b611d59565b34801561064257600080fd5b506102136106513660046124f2565b611ddc565b34801561066257600080fd5b5061022a610671366004612552565b611e77565b600260c854036106a15760405162461bcd60e51b8152600401610698906128ec565b60405180910390fd5b600260c8556033546001600160a01b031633146106d05760405162461bcd60e51b815260040161069890612923565b73__$0399e8fdab399fb8f200f3895472e3787c$__639cbd240661012b6106ff6033546001600160a01b031690565b6040516001600160e01b031960e085901b16815260048101929092526001600160a01b0316602482015260440160006040518083038186803b15801561074457600080fd5b505af4158015610758573d6000803e3d6000fd5b5050600160c8555050565b60405163f43dee5360e01b815261012b600482015260009073__$0399e8fdab399fb8f200f3895472e3787c$__9063f43dee53906024015b602060405180830381865af41580156107b8573d6000803e3d6000fd5b505050506040513d601f19601f820116820180604052508101906107dc9190612958565b905090565b6060600260c854036108055760405162461bcd60e51b8152600401610698906128ec565b600260c855814281101561082b5760405162461bcd60e51b815260040161069890612971565b604051631beec94360e21b815273__$0399e8fdab399fb8f200f3895472e3787c$__90636fbb250c9061086a9061012b908a908a908a906004016129d1565b600060405180830381865af4158015610887573d6000803e3d6000fd5b505050506040513d6000823e601f3d908101601f191682016040526108af91908101906129f1565b600160c8559695505050505050565b6040516384eeef2760e01b815261012b60048201526024810183905260ff8216604482015260009073__$0399e8fdab399fb8f200f3895472e3787c$__906384eeef2790606401602060405180830381865af4158015610922573d6000803e3d6000fd5b505050506040513d601f19601f820116820180604052508101906109469190612958565b90505b92915050565b6033546001600160a01b031633146109795760405162461bcd60e51b815260040161069890612923565b604051632cecccb560e11b815261012b60048201526024810182905273__$0399e8fdab399fb8f200f3895472e3787c$__906359d9996a906044015b60006040518083038186803b1580156109cd57600080fd5b505af41580156109e1573d6000803e3d6000fd5b5050505050565b6000600260c85403610a0c5760405162461bcd60e51b8152600401610698906128ec565b600260c85560655460ff1615610a345760405162461bcd60e51b815260040161069890612a82565b8180421115610a555760405162461bcd60e51b815260040161069890612971565b604051632b8ffbb760e21b815261012b60048201526024810187905260ff861660448201526064810185905273__$0399e8fdab399fb8f200f3895472e3787c$__9063ae3feedc906084015b602060405180830381865af4158015610abe573d6000803e3d6000fd5b505050506040513d601f19601f820116820180604052508101906108af9190612958565b6033546001600160a01b03163314610b0c5760405162461bcd60e51b815260040161069890612923565b610b14611ee4565b565b6000600260c85403610b3a5760405162461bcd60e51b8152600401610698906128ec565b600260c85560655460ff1615610b625760405162461bcd60e51b815260040161069890612a82565b8180421115610b835760405162461bcd60e51b815260040161069890612971565b6040516333a43f9560e11b815273__$0399e8fdab399fb8f200f3895472e3787c$__906367487f2a90610aa19061012b908a908a908a90600401612aac565b6000600260c85403610be65760405162461bcd60e51b8152600401610698906128ec565b600260c85560655460ff1615610c0e5760405162461bcd60e51b815260040161069890612a82565b8180421115610c2f5760405162461bcd60e51b815260040161069890612971565b6000610c3a87610d91565b90506000610c4787610d91565b60405163703c02d560e11b815261012b600482015260ff808516602483015282166044820152606481018b90526084810188905290915073__$0399e8fdab399fb8f200f3895472e3787c$__9063e07805aa9060a4015b602060405180830381865af4158015610cbb573d6000803e3d6000fd5b505050506040513d601f19601f82011682018060405250810190610cdf9190612958565b600160c8559998505050505050505050565b6033546001600160a01b03163314610d1b5760405162461bcd60e51b815260040161069890612923565b604051633f1e106160e21b815261012b6004820152602481018390526044810182905273__$0399e8fdab399fb8f200f3895472e3787c$__9063fc7841849060640160006040518083038186803b158015610d7557600080fd5b505af4158015610d89573d6000803e3d6000fd5b505050505050565b6001600160a01b03811660008181526101366020526040812054909160ff90911690610dbc82610f8a565b6001600160a01b0316146109495760405162461bcd60e51b8152602060048201526014602482015273151bdad95b88191bd95cc81b9bdd08195e1a5cdd60621b6044820152606401610698565b604051632e4be8d760e21b815261012b600482015260ff8085166024830152831660448201526064810182905260009073__$0399e8fdab399fb8f200f3895472e3787c$__9063b92fa35c906084015b602060405180830381865af4158015610e76573d6000803e3d6000fd5b505050506040513d601f19601f82011682018060405250810190610e9a9190612958565b949350505050565b6033546001600160a01b03163314610ecc5760405162461bcd60e51b815260040161069890612923565b610b146000611f77565b600080610ee285610d91565b90506000610eef85610d91565b604051632f4998ad60e01b815261012b600482015260ff8085166024830152821660448201526064810186905290915073__$0399e8fdab399fb8f200f3895472e3787c$__90632f4998ad906084015b602060405180830381865af4158015610f5c573d6000803e3d6000fd5b505050506040513d601f19601f82011682018060405250810190610f809190612958565b9695505050505050565b6101325460009060ff831610610fd15760405162461bcd60e51b815260206004820152600c60248201526b4f7574206f662072616e676560a01b6044820152606401610698565b610132805460ff8416908110610fe957610fe9612ad7565b6000918252602090912001546001600160a01b031692915050565b6033546001600160a01b0316331461102e5760405162461bcd60e51b815260040161069890612923565b610b14611fc9565b6000600260c8540361105a5760405162461bcd60e51b8152600401610698906128ec565b600260c85560655460ff16156110825760405162461bcd60e51b815260040161069890612a82565b81804211156110a35760405162461bcd60e51b815260040161069890612971565b60405163077b83d360e41b815273__$0399e8fdab399fb8f200f3895472e3787c$__906377b83d3090610aa19061012b908a908a908a90600401612aac565b6033546001600160a01b0316331461110c5760405162461bcd60e51b815260040161069890612923565b6040516308bbaa2360e01b815261012b60048201526024810182905273__$0399e8fdab399fb8f200f3895472e3787c$__906308bbaa23906044016109b5565b6000600260c854036111705760405162461bcd60e51b8152600401610698906128ec565b600260c85560655460ff16156111985760405162461bcd60e51b815260040161069890612a82565b81804211156111b95760405162461bcd60e51b815260040161069890612971565b60405163f204293960e01b815261012b600482015260ff808916602483015287166044820152606481018690526084810185905273__$0399e8fdab399fb8f200f3895472e3787c$__9063f20429399060a401602060405180830381865af4158015611229573d6000803e3d6000fd5b505050506040513d601f19601f8201168201806040525081019061124d9190612958565b600160c855979650505050505050565b6101325460009060ff8316106112aa5760405162461bcd60e51b8152602060048201526012602482015271496e646578206f7574206f662072616e676560701b6044820152606401610698565b610134805460ff84169081106112c2576112c2612ad7565b90600052602060002001549050919050565b604051632f4998ad60e01b815261012b600482015260ff8085166024830152831660448201526064810182905260009073__$0399e8fdab399fb8f200f3895472e3787c$__90632f4998ad90608401610e59565b600054610100900460ff166113435760005460ff1615611347565b303b155b6113aa5760405162461bcd60e51b815260206004820152602e60248201527f496e697469616c697a61626c653a20636f6e747261637420697320616c72656160448201526d191e481a5b9a5d1a585b1a5e995960921b6064820152608401610698565b600054610100900460ff161580156113cc576000805461ffff19166101011790555b6113d4612021565b6113dc612060565b600189511161142d5760405162461bcd60e51b815260206004820152601960248201527f5f706f6f6c6564546f6b656e732e6c656e677468203c3d2031000000000000006044820152606401610698565b60208951111561147f5760405162461bcd60e51b815260206004820152601960248201527f5f706f6f6c6564546f6b656e732e6c656e677468203e203332000000000000006044820152606401610698565b87518951146114d05760405162461bcd60e51b815260206004820152601f60248201527f5f706f6f6c6564546f6b656e7320646563696d616c73206d69736d61746368006044820152606401610698565b6000885167ffffffffffffffff8111156114ec576114ec6125fb565b604051908082528060200260200182016040528015611515578160200160208202803683370190505b50905060005b8a518160ff1610156117bc5760ff8116156116055761013660008c8360ff168151811061154a5761154a612ad7565b6020908102919091018101516001600160a01b031682528101919091526040016000205460ff161580156115c657508a8160ff168151811061158e5761158e612ad7565b60200260200101516001600160a01b03168b6000815181106115b2576115b2612ad7565b60200260200101516001600160a01b031614155b6116055760405162461bcd60e51b815260206004820152601060248201526f4475706c696361746520746f6b656e7360801b6044820152606401610698565b60006001600160a01b03168b8260ff168151811061162557611625612ad7565b60200260200101516001600160a01b0316036116835760405162461bcd60e51b815260206004820152601d60248201527f546865203020616464726573732069736e277420616e204552432d32300000006044820152606401610698565b601260ff168a8260ff168151811061169d5761169d612ad7565b602002602001015160ff1611156116f65760405162461bcd60e51b815260206004820152601a60248201527f546f6b656e20646563696d616c732065786365656473206d61780000000000006044820152606401610698565b898160ff168151811061170b5761170b612ad7565b6020026020010151601261171f9190612b03565b61172d9060ff16600a612c0a565b828260ff168151811061174257611742612ad7565b6020026020010181815250508061013660008d8460ff168151811061176957611769612ad7565b60200260200101516001600160a01b03166001600160a01b0316815260200190815260200160002060006101000a81548160ff021916908360ff16021790555080806117b490612c16565b91505061151b565b50620f424086106118045760405162461bcd60e51b81526020600482015260126024820152715f612065786365656473206d6178696d756d60701b6044820152606401610698565b6305f5e100851061184e5760405162461bcd60e51b81526020600482015260146024820152735f6665652065786365656473206d6178696d756d60601b6044820152606401610698565b6402540be40084106118a25760405162461bcd60e51b815260206004820152601960248201527f5f61646d696e4665652065786365656473206d6178696d756d000000000000006044820152606401610698565b60006118ad8461208f565b60405163266c45bb60e11b81529091506001600160a01b03821690634cd88b76906118de908c908c90600401612c82565b6020604051808303816000875af11580156118fd573d6000803e3d6000fd5b505050506040513d601f19601f820116820180604052508101906119219190612cb0565b61196d5760405162461bcd60e51b815260206004820152601c60248201527f636f756c64206e6f7420696e6974206c70546f6b656e20636c6f6e65000000006044820152606401610698565b61013180546001600160a01b0319166001600160a01b0383161790558a5161199d906101329060208e01906121e4565b5081516119b290610133906020850190612249565b508a5167ffffffffffffffff8111156119cd576119cd6125fb565b6040519080825280602002602001820160405280156119f6578160200160208202803683370190505b508051611a0c9161013491602090910190612249565b508a5167ffffffffffffffff811115611a2757611a276125fb565b604051908082528060200260200182016040528015611a50578160200160208202803683370190505b508051611a669161013591602090910190612249565b50611a72606488612ccd565b61012b55611a81606488612ccd565b61012c55505061012f8490556101308390558015611aa5576000805461ff00191690555b505050505050505050565b6033546001600160a01b03163314611ada5760405162461bcd60e51b815260040161069890612923565b60405163e5b994c560e01b815261012b600482015273__$0399e8fdab399fb8f200f3895472e3787c$__9063e5b994c59060240160006040518083038186803b158015611b2657600080fd5b505af4158015611b3a573d6000803e3d6000fd5b50505050565b6000600260c85403611b645760405162461bcd60e51b8152600401610698906128ec565b600260c85560655460ff1615611b8c5760405162461bcd60e51b815260040161069890612a82565b8180421115611bad5760405162461bcd60e51b815260040161069890612971565b6000611bb887610d91565b90506000611bc587610d91565b60405163f204293960e01b815261012b600482015260ff808516602483015282166044820152606481018b90526084810188905290915073__$0399e8fdab399fb8f200f3895472e3787c$__9063f20429399060a401610c9e565b604051631158dafb60e11b815261012b600482015260009073__$0399e8fdab399fb8f200f3895472e3787c$__906322b1b5f69060240161079b565b604051638be1e52360e01b815261012b600482015260009073__$0399e8fdab399fb8f200f3895472e3787c$__90638be1e5239060240161079b565b6040516322b2b60760e01b815260009073__$0399e8fdab399fb8f200f3895472e3787c$__906322b2b60790610e599061012b90889088908890600401612cec565b604051631ce9046f60e01b815261012b60048201526024810182905260009073__$0399e8fdab399fb8f200f3895472e3787c$__90631ce9046f90604401602060405180830381865af4158015611d35573d6000803e3d6000fd5b505050506040513d601f19601f820116820180604052508101906109499190612958565b604051638cc122bb60e01b815261012b60048201526024810182905260609073__$0399e8fdab399fb8f200f3895472e3787c$__90638cc122bb90604401600060405180830381865af4158015611db4573d6000803e3d6000fd5b505050506040513d6000823e601f3d908101601f1916820160405261094991908101906129f1565b6033546001600160a01b03163314611e065760405162461bcd60e51b815260040161069890612923565b6001600160a01b038116611e6b5760405162461bcd60e51b815260206004820152602660248201527f4f776e61626c653a206e6577206f776e657220697320746865207a65726f206160448201526564647265737360d01b6064820152608401610698565b611e7481611f77565b50565b600080611e8385610d91565b90506000611e9085610d91565b604051632e4be8d760e21b815261012b600482015260ff8085166024830152821660448201526064810186905290915073__$0399e8fdab399fb8f200f3895472e3787c$__9063b92fa35c90608401610f3f565b60655460ff16611f2d5760405162461bcd60e51b815260206004820152601460248201527314185d5cd8589b194e881b9bdd081c185d5cd95960621b6044820152606401610698565b6065805460ff191690557f5db9ee0a495bf2e6ff9c91a7834c1ba4fdd244a5e8aa4e537bd38aeae4b073aa335b6040516001600160a01b03909116815260200160405180910390a1565b603380546001600160a01b038381166001600160a01b0319831681179093556040519116919082907f8be0079c531659141344cd1fd0a4f28419497f9722a3daafe3b4186f6b6457e090600090a35050565b60655460ff1615611fec5760405162461bcd60e51b815260040161069890612a82565b6065805460ff191660011790557f62e78cea01bee320cd4e420270b5ea74000d11b0c9f74754ebdbfc544b05a258611f5a3390565b600054610100900460ff166120485760405162461bcd60e51b815260040161069890612d19565b61205061212c565b612058612153565b610b14612183565b600054610100900460ff166120875760405162461bcd60e51b815260040161069890612d19565b610b146121b6565b6000604051733d602d80600a3d3981f3363d3d373d3d3d363d7360601b81528260601b60148201526e5af43d82803e903d91602b57fd5bf360881b60288201526037816000f09150506001600160a01b0381166121275760405162461bcd60e51b8152602060048201526016602482015275115490cc4c4d8dce8818dc99585d194819985a5b195960521b6044820152606401610698565b919050565b600054610100900460ff16610b145760405162461bcd60e51b815260040161069890612d19565b600054610100900460ff1661217a5760405162461bcd60e51b815260040161069890612d19565b610b1433611f77565b600054610100900460ff166121aa5760405162461bcd60e51b815260040161069890612d19565b6065805460ff19169055565b600054610100900460ff166121dd5760405162461bcd60e51b815260040161069890612d19565b600160c855565b828054828255906000526020600020908101928215612239579160200282015b8281111561223957825182546001600160a01b0319166001600160a01b03909116178255602090920191600190910190612204565b50612245929150612284565b5090565b828054828255906000526020600020908101928215612239579160200282015b82811115612239578251825591602001919060010190612269565b5b808211156122455760008155600101612285565b60008083601f8401126122ab57600080fd5b50813567ffffffffffffffff8111156122c357600080fd5b6020830191508360208260051b85010111156122de57600080fd5b9250929050565b600080600080606085870312156122fb57600080fd5b84359350602085013567ffffffffffffffff81111561231957600080fd5b61232587828801612299565b9598909750949560400135949350505050565b6020808252825182820181905260009190848201906040850190845b8181101561237057835183529284019291840191600101612354565b50909695505050505050565b803560ff8116811461212757600080fd5b600080604083850312156123a057600080fd5b823591506123b06020840161237c565b90509250929050565b6000602082840312156123cb57600080fd5b5035919050565b600080600080608085870312156123e857600080fd5b843593506123f86020860161237c565b93969395505050506040820135916060013590565b6000806000806060858703121561242357600080fd5b843567ffffffffffffffff81111561243a57600080fd5b61244687828801612299565b90989097506020870135966040013595509350505050565b6001600160a01b0381168114611e7457600080fd5b80356121278161245e565b600080600080600060a0868803121561249657600080fd5b8535945060208601356124a88161245e565b935060408601356124b88161245e565b94979396509394606081013594506080013592915050565b600080604083850312156124e357600080fd5b50508035926020909101359150565b60006020828403121561250457600080fd5b813561250f8161245e565b9392505050565b60008060006060848603121561252b57600080fd5b6125348461237c565b92506125426020850161237c565b9150604084013590509250925092565b60008060006060848603121561256757600080fd5b83356125728161245e565b925060208401356125828161245e565b929592945050506040919091013590565b6000602082840312156125a557600080fd5b6109468261237c565b600080600080600060a086880312156125c657600080fd5b6125cf8661237c565b94506125dd6020870161237c565b94979496505050506040830135926060810135926080909101359150565b634e487b7160e01b600052604160045260246000fd5b604051601f8201601f1916810167ffffffffffffffff8111828210171561263a5761263a6125fb565b604052919050565b600067ffffffffffffffff82111561265c5761265c6125fb565b5060051b60200190565b600082601f83011261267757600080fd5b8135602061268c61268783612642565b612611565b82815260059290921b840181019181810190868411156126ab57600080fd5b8286015b848110156126cf5780356126c28161245e565b83529183019183016126af565b509695505050505050565b600082601f8301126126eb57600080fd5b813560206126fb61268783612642565b82815260059290921b8401810191818101908684111561271a57600080fd5b8286015b848110156126cf5761272f8161237c565b835291830191830161271e565b600082601f83011261274d57600080fd5b813567ffffffffffffffff811115612767576127676125fb565b61277a601f8201601f1916602001612611565b81815284602083860101111561278f57600080fd5b816020850160208301376000918101602001919091529392505050565b600080600080600080600080610100898b0312156127c957600080fd5b883567ffffffffffffffff808211156127e157600080fd5b6127ed8c838d01612666565b995060208b013591508082111561280357600080fd5b61280f8c838d016126da565b985060408b013591508082111561282557600080fd5b6128318c838d0161273c565b975060608b013591508082111561284757600080fd5b506128548b828c0161273c565b9550506080890135935060a0890135925060c0890135915061287860e08a01612473565b90509295985092959890939650565b8015158114611e7457600080fd5b6000806000604084860312156128aa57600080fd5b833567ffffffffffffffff8111156128c157600080fd5b6128cd86828701612299565b90945092505060208401356128e181612887565b809150509250925092565b6020808252601f908201527f5265656e7472616e637947756172643a207265656e7472616e742063616c6c00604082015260600190565b6020808252818101527f4f776e61626c653a2063616c6c6572206973206e6f7420746865206f776e6572604082015260600190565b60006020828403121561296a57600080fd5b5051919050565b60208082526010908201526f111958591b1a5b99481b9bdd081b595d60821b604082015260600190565b81835260006001600160fb1b038311156129b457600080fd5b8260051b8083602087013760009401602001938452509192915050565b848152836020820152606060408201526000610f8060608301848661299b565b60006020808385031215612a0457600080fd5b825167ffffffffffffffff811115612a1b57600080fd5b8301601f81018513612a2c57600080fd5b8051612a3a61268782612642565b81815260059190911b82018301908381019087831115612a5957600080fd5b928401925b82841015612a7757835182529284019290840190612a5e565b979650505050505050565b60208082526010908201526f14185d5cd8589b194e881c185d5cd95960821b604082015260600190565b848152606060208201526000612ac660608301858761299b565b905082604083015295945050505050565b634e487b7160e01b600052603260045260246000fd5b634e487b7160e01b600052601160045260246000fd5b600060ff821660ff841680821015612b1d57612b1d612aed565b90039392505050565b600181815b80851115612b61578160001904821115612b4757612b47612aed565b80851615612b5457918102915b93841c9390800290612b2b565b509250929050565b600082612b7857506001610949565b81612b8557506000610949565b8160018114612b9b5760028114612ba557612bc1565b6001915050610949565b60ff841115612bb657612bb6612aed565b50506001821b610949565b5060208310610133831016604e8410600b8410161715612be4575081810a610949565b612bee8383612b26565b8060001904821115612c0257612c02612aed565b029392505050565b60006109468383612b69565b600060ff821660ff8103612c2c57612c2c612aed565b60010192915050565b6000815180845260005b81811015612c5b57602081850181015186830182015201612c3f565b81811115612c6d576000602083870101525b50601f01601f19169290920160200192915050565b604081526000612c956040830185612c35565b8281036020840152612ca78185612c35565b95945050505050565b600060208284031215612cc257600080fd5b815161250f81612887565b6000816000190483118215151615612ce757612ce7612aed565b500290565b848152606060208201526000612d0660608301858761299b565b9050821515604083015295945050505050565b6020808252602b908201527f496e697469616c697a61626c653a20636f6e7472616374206973206e6f74206960408201526a6e697469616c697a696e6760a81b60608201526080019056fea2646970667358221220212671622b299a49ed0bbb8875c4ee9c6b48feff146d86c0394fa32a10e76a8f64736f6c634300080f0033",
  "libraries": {
    "SwapUtilsExternal": "0x20958cBBD1359AF25a296976276B8DaC1B7E71D3"
  },
  "devdoc": {
    "details": "Most of the logic is stored as a library `SwapUtils` for the sake of reducing contract's deployment size.",
    "kind": "dev",
    "methods": {
      "addLiquidity(uint256[],uint256,uint256)": {
        "params": {
          "amounts": "the amounts of each token to add, in their native precision",
          "deadline": "latest timestamp to accept this transaction",
          "minToMint": "the minimum LP tokens adding this amount of liquidity should mint, otherwise revert. Handy for front-running mitigation"
        },
        "returns": {
          "_0": "amount of LP token user minted and received"
        }
      },
      "calculateRemoveLiquidity(uint256)": {
        "params": {
          "amount": "the amount of LP tokens that would be burned on withdrawal"
        },
        "returns": {
          "_0": "array of token balances that the user will receive"
        }
      },
      "calculateRemoveLiquidityOneToken(uint256,uint8)": {
        "params": {
          "tokenAmount": "the amount of LP token to burn",
          "tokenIndex": "index of which token will be withdrawn"
        },
        "returns": {
          "availableTokenAmount": "calculated amount of underlying token available to withdraw"
        }
      },
      "calculateSwap(uint8,uint8,uint256)": {
        "params": {
          "dx": "the amount of tokens the user wants to sell. If the token charges a fee on transfers, use the amount that gets transferred after the fee.",
          "tokenIndexFrom": "the token the user wants to sell",
          "tokenIndexTo": "the token the user wants to buy"
        },
        "returns": {
          "_0": "amount of tokens the user will receive"
        }
      },
      "calculateSwapFromAddress(address,address,uint256)": {
        "params": {
          "amountIn": "the amount of tokens the user wants to swap from",
          "assetIn": "the token the user wants to swap from",
          "assetOut": "the token the user wants to swap to"
        },
        "returns": {
          "_0": "amount of tokens the user will receive"
        }
      },
      "calculateSwapOut(uint8,uint8,uint256)": {
        "params": {
          "dy": "the amount of tokens the user wants to buy",
          "tokenIndexFrom": "the token the user wants to sell",
          "tokenIndexTo": "the token the user wants to buy"
        },
        "returns": {
          "_0": "amount of tokens the user have to transfer"
        }
      },
      "calculateSwapOutFromAddress(address,address,uint256)": {
        "params": {
          "amountOut": "the amount of tokens the user wants to swap to",
          "assetIn": "the token the user wants to swap from",
          "assetOut": "the token the user wants to swap to"
        },
        "returns": {
          "_0": "amount of tokens the user will receive"
        }
      },
      "calculateTokenAmount(uint256[],bool)": {
        "details": "This shouldn't be used outside frontends for user estimates.",
        "params": {
          "amounts": "an array of token amounts to deposit or withdrawal, corresponding to pooledTokens. The amount should be in each pooled token's native precision. If a token charges a fee on transfers, use the amount that gets transferred after the fee.",
          "deposit": "whether this is a deposit or a withdrawal"
        },
        "returns": {
          "_0": "token amount the user will receive"
        }
      },
      "getA()": {
        "details": "See the StableSwap paper for details",
        "returns": {
          "_0": "A parameter"
        }
      },
      "getAPrecise()": {
        "details": "See the StableSwap paper for details",
        "returns": {
          "_0": "A parameter in its raw precision form"
        }
      },
      "getAdminBalance(uint256)": {
        "params": {
          "index": "Index of the pooled token"
        },
        "returns": {
          "_0": "admin's token balance in the token's precision"
        }
      },
      "getToken(uint8)": {
        "params": {
          "index": "the index of the token"
        },
        "returns": {
          "_0": "address of the token at given index"
        }
      },
      "getTokenBalance(uint8)": {
        "params": {
          "index": "the index of the token"
        },
        "returns": {
          "_0": "current balance of the pooled token at given index with token's native precision"
        }
      },
      "getTokenIndex(address)": {
        "params": {
          "tokenAddress": "address of the token"
        },
        "returns": {
          "_0": "the index of the given token address"
        }
      },
      "getVirtualPrice()": {
        "returns": {
          "_0": "the virtual price, scaled to the POOL_PRECISION_DECIMALS"
        }
      },
      "initialize(address[],uint8[],string,string,uint256,uint256,uint256,address)": {
        "params": {
          "_a": "the amplification coefficient * n * (n - 1). See the StableSwap paper for details",
          "_adminFee": "default adminFee to be initialized with",
          "_fee": "default swap fee to be initialized with",
          "_pooledTokens": "an array of ERC20s this pool will accept",
          "decimals": "the decimals to use for each pooled token, eg 8 for WBTC. Cannot be larger than POOL_PRECISION_DECIMALS",
          "lpTokenName": "the long-form name of the token to be deployed",
          "lpTokenSymbol": "the short symbol for the token to be deployed",
          "lpTokenTargetAddress": "the address of an existing LPToken contract to use as a target"
        }
      },
      "owner()": {
        "details": "Returns the address of the current owner."
      },
      "paused()": {
        "details": "Returns true if the contract is paused, and false otherwise."
      },
      "rampA(uint256,uint256)": {
        "params": {
          "futureA": "the new A to ramp towards",
          "futureTime": "timestamp when the new A should be reached"
        }
      },
      "removeLiquidity(uint256,uint256[],uint256)": {
        "details": "Liquidity can always be removed, even when the pool is paused.",
        "params": {
          "amount": "the amount of LP tokens to burn",
          "deadline": "latest timestamp to accept this transaction",
          "minAmounts": "the minimum amounts of each token in the pool        acceptable for this burn. Useful as a front-running mitigation"
        },
        "returns": {
          "_0": "amounts of tokens user received"
        }
      },
      "removeLiquidityImbalance(uint256[],uint256,uint256)": {
        "params": {
          "amounts": "how much of each token to withdraw",
          "deadline": "latest timestamp to accept this transaction",
          "maxBurnAmount": "the max LP token provider is willing to pay to remove liquidity. Useful as a front-running mitigation."
        },
        "returns": {
          "_0": "amount of LP tokens burned"
        }
      },
      "removeLiquidityOneToken(uint256,uint8,uint256,uint256)": {
        "params": {
          "deadline": "latest timestamp to accept this transaction",
          "minAmount": "the minimum amount to withdraw, otherwise revert",
          "tokenAmount": "the amount of the token you want to receive",
          "tokenIndex": "the index of the token you want to receive"
        },
        "returns": {
          "_0": "amount of chosen token user received"
        }
      },
      "renounceOwnership()": {
        "details": "Leaves the contract without owner. It will not be possible to call `onlyOwner` functions anymore. Can only be called by the current owner. NOTE: Renouncing ownership will leave the contract without an owner, thereby removing any functionality that is only available to the owner."
      },
      "setAdminFee(uint256)": {
        "params": {
          "newAdminFee": "new admin fee to be applied on future transactions"
        }
      },
      "setSwapFee(uint256)": {
        "params": {
          "newSwapFee": "new swap fee to be applied on future transactions"
        }
      },
      "swap(uint8,uint8,uint256,uint256,uint256)": {
        "params": {
          "deadline": "latest timestamp to accept this transaction",
          "dx": "the amount of tokens the user wants to swap from",
          "minDy": "the min amount the user would like to receive, or revert.",
          "tokenIndexFrom": "the token the user wants to swap from",
          "tokenIndexTo": "the token the user wants to swap to"
        }
      },
      "swapExact(uint256,address,address,uint256,uint256)": {
        "params": {
          "amountIn": "the amount of tokens the user wants to swap from",
          "assetIn": "the token the user wants to swap from",
          "assetOut": "the token the user wants to swap to",
          "minAmountOut": "the min amount of tokens the user wants to swap to"
        }
      },
      "swapExactOut(uint256,address,address,uint256,uint256)": {
        "params": {
          "amountOut": "the amount of tokens the user wants to swap to",
          "assetIn": "the token the user wants to swap from",
          "assetOut": "the token the user wants to swap to",
          "maxAmountIn": "the max amount of tokens the user wants to swap from"
        }
      },
      "transferOwnership(address)": {
        "details": "Transfers ownership of the contract to a new account (`newOwner`). Can only be called by the current owner."
      }
    },
    "title": "Swap - A StableSwap implementation in solidity.",
    "version": 1
  },
  "userdoc": {
    "kind": "user",
    "methods": {
      "addLiquidity(uint256[],uint256,uint256)": {
        "notice": "Add liquidity to the pool with the given amounts of tokens"
      },
      "calculateRemoveLiquidity(uint256)": {
        "notice": "A simple method to calculate amount of each underlying tokens that is returned upon burning given amount of LP tokens"
      },
      "calculateRemoveLiquidityOneToken(uint256,uint8)": {
        "notice": "Calculate the amount of underlying token available to withdraw when withdrawing via only single token"
      },
      "calculateSwap(uint8,uint8,uint256)": {
        "notice": "Calculate amount of tokens you receive on swap"
      },
      "calculateSwapFromAddress(address,address,uint256)": {
        "notice": "Calculate amount of tokens you receive on swap"
      },
      "calculateSwapOut(uint8,uint8,uint256)": {
        "notice": "Calculate amount of tokens you receive on swap"
      },
      "calculateSwapOutFromAddress(address,address,uint256)": {
        "notice": "Calculate amount of tokens you receive on swap"
      },
      "calculateTokenAmount(uint256[],bool)": {
        "notice": "A simple method to calculate prices from deposits or withdrawals, excluding fees but including slippage. This is helpful as an input into the various \"min\" parameters on calls to fight front-running"
      },
      "getA()": {
        "notice": "Return A, the amplification coefficient * n * (n - 1)"
      },
      "getAPrecise()": {
        "notice": "Return A in its raw precision form"
      },
      "getAdminBalance(uint256)": {
        "notice": "This function reads the accumulated amount of admin fees of the token with given index"
      },
      "getToken(uint8)": {
        "notice": "Return address of the pooled token at given index. Reverts if tokenIndex is out of range."
      },
      "getTokenBalance(uint8)": {
        "notice": "Return current balance of the pooled token at given index"
      },
      "getTokenIndex(address)": {
        "notice": "Return the index of the given token address. Reverts if no matching token is found."
      },
      "getVirtualPrice()": {
        "notice": "Get the virtual price, to help calculate profit"
      },
      "initialize(address[],uint8[],string,string,uint256,uint256,uint256,address)": {
        "notice": "Initializes this Swap contract with the given parameters. This will also clone a LPToken contract that represents users' LP positions. The owner of LPToken will be this contract - which means only this contract is allowed to mint/burn tokens."
      },
      "pause()": {
        "notice": "Pause the contract. Revert if already paused."
      },
      "rampA(uint256,uint256)": {
        "notice": "Start ramping up or down A parameter towards given futureA and futureTime Checks if the change is too rapid, and commits the new A value only when it falls under the limit range."
      },
      "removeLiquidity(uint256,uint256[],uint256)": {
        "notice": "Burn LP tokens to remove liquidity from the pool. Withdraw fee that decays linearly over period of 4 weeks since last deposit will apply."
      },
      "removeLiquidityImbalance(uint256[],uint256,uint256)": {
        "notice": "Remove liquidity from the pool, weighted differently than the pool's current balances. Withdraw fee that decays linearly over period of 4 weeks since last deposit will apply."
      },
      "removeLiquidityOneToken(uint256,uint8,uint256,uint256)": {
        "notice": "Remove liquidity from the pool all in one token. Withdraw fee that decays linearly over period of 4 weeks since last deposit will apply."
      },
      "setAdminFee(uint256)": {
        "notice": "Update the admin fee. Admin fee takes portion of the swap fee."
      },
      "setSwapFee(uint256)": {
        "notice": "Update the swap fee to be applied on swaps"
      },
      "stopRampA()": {
        "notice": "Stop ramping A immediately. Reverts if ramp A is already stopped."
      },
      "swap(uint8,uint8,uint256,uint256,uint256)": {
        "notice": "Swap two tokens using this pool"
      },
      "swapExact(uint256,address,address,uint256,uint256)": {
        "notice": "Swap two tokens using this pool"
      },
      "swapExactOut(uint256,address,address,uint256,uint256)": {
        "notice": "Swap two tokens using this pool"
      },
      "unpause()": {
        "notice": "Unpause the contract. Revert if already unpaused."
      },
      "withdrawAdminFees()": {
        "notice": "Withdraw all admin fees to the contract owner"
      }
    },
    "notice": "This contract is responsible for custody of closely pegged assets (eg. group of stablecoins) and automatic market making system. Users become an LP (Liquidity Provider) by depositing their tokens in desired ratios for an exchange of the pool token that represents their share of the pool. Users can burn pool tokens and withdraw their share of token(s). Each time a swap between the pooled tokens happens, a set fee incurs which effectively gets distributed to the LPs. In case of emergencies, admin can pause additional deposits, swaps, or single-asset withdraws - which stops the ratio of the tokens in the pool from changing. Users can always withdraw their tokens via multi-asset withdraws.",
    "version": 1
  },
  "storageLayout": {
    "storage": [
      {
        "astId": 130,
        "contract": "contracts/core/connext/helpers/StableSwap.sol:StableSwap",
        "label": "_initialized",
        "offset": 0,
        "slot": "0",
        "type": "t_bool"
      },
      {
        "astId": 133,
        "contract": "contracts/core/connext/helpers/StableSwap.sol:StableSwap",
        "label": "_initializing",
        "offset": 1,
        "slot": "0",
        "type": "t_bool"
      },
      {
        "astId": 1655,
        "contract": "contracts/core/connext/helpers/StableSwap.sol:StableSwap",
        "label": "__gap",
        "offset": 0,
        "slot": "1",
        "type": "t_array(t_uint256)50_storage"
      },
      {
        "astId": 10,
        "contract": "contracts/core/connext/helpers/StableSwap.sol:StableSwap",
        "label": "_owner",
        "offset": 0,
        "slot": "51",
        "type": "t_address"
      },
      {
        "astId": 122,
        "contract": "contracts/core/connext/helpers/StableSwap.sol:StableSwap",
        "label": "__gap",
        "offset": 0,
        "slot": "52",
        "type": "t_array(t_uint256)49_storage"
      },
      {
        "astId": 218,
        "contract": "contracts/core/connext/helpers/StableSwap.sol:StableSwap",
        "label": "_paused",
        "offset": 0,
        "slot": "101",
        "type": "t_bool"
      },
      {
        "astId": 307,
        "contract": "contracts/core/connext/helpers/StableSwap.sol:StableSwap",
        "label": "__gap",
        "offset": 0,
        "slot": "102",
        "type": "t_array(t_uint256)49_storage"
      },
      {
        "astId": 12913,
        "contract": "contracts/core/connext/helpers/StableSwap.sol:StableSwap",
        "label": "__GAP",
        "offset": 0,
        "slot": "151",
        "type": "t_array(t_uint256)49_storage"
      },
      {
        "astId": 322,
        "contract": "contracts/core/connext/helpers/StableSwap.sol:StableSwap",
        "label": "_status",
        "offset": 0,
        "slot": "200",
        "type": "t_uint256"
      },
      {
        "astId": 366,
        "contract": "contracts/core/connext/helpers/StableSwap.sol:StableSwap",
        "label": "__gap",
        "offset": 0,
        "slot": "201",
        "type": "t_array(t_uint256)49_storage"
      },
      {
        "astId": 14028,
        "contract": "contracts/core/connext/helpers/StableSwap.sol:StableSwap",
        "label": "__GAP",
        "offset": 0,
        "slot": "250",
        "type": "t_array(t_uint256)49_storage"
      },
      {
        "astId": 14031,
        "contract": "contracts/core/connext/helpers/StableSwap.sol:StableSwap",
        "label": "swapStorage",
        "offset": 0,
        "slot": "299",
        "type": "t_struct(Swap)23017_storage"
      },
      {
        "astId": 14035,
        "contract": "contracts/core/connext/helpers/StableSwap.sol:StableSwap",
        "label": "tokenIndexes",
        "offset": 0,
        "slot": "310",
        "type": "t_mapping(t_address,t_uint8)"
      }
    ],
    "types": {
      "t_address": {
        "encoding": "inplace",
        "label": "address",
        "numberOfBytes": "20"
      },
      "t_array(t_contract(IERC20)3290)dyn_storage": {
        "base": "t_contract(IERC20)3290",
        "encoding": "dynamic_array",
        "label": "contract IERC20[]",
        "numberOfBytes": "32"
      },
      "t_array(t_uint256)49_storage": {
        "base": "t_uint256",
        "encoding": "inplace",
        "label": "uint256[49]",
        "numberOfBytes": "1568"
      },
      "t_array(t_uint256)50_storage": {
        "base": "t_uint256",
        "encoding": "inplace",
        "label": "uint256[50]",
        "numberOfBytes": "1600"
      },
      "t_array(t_uint256)dyn_storage": {
        "base": "t_uint256",
        "encoding": "dynamic_array",
        "label": "uint256[]",
        "numberOfBytes": "32"
      },
      "t_bool": {
        "encoding": "inplace",
        "label": "bool",
        "numberOfBytes": "1"
      },
      "t_contract(IERC20)3290": {
        "encoding": "inplace",
        "label": "contract IERC20",
        "numberOfBytes": "20"
      },
      "t_contract(LPToken)12898": {
        "encoding": "inplace",
        "label": "contract LPToken",
        "numberOfBytes": "20"
      },
      "t_mapping(t_address,t_uint8)": {
        "encoding": "mapping",
        "key": "t_address",
        "label": "mapping(address => uint8)",
        "numberOfBytes": "32",
        "value": "t_uint8"
      },
      "t_struct(Swap)23017_storage": {
        "encoding": "inplace",
        "label": "struct SwapUtilsExternal.Swap",
        "members": [
          {
            "astId": 22990,
            "contract": "contracts/core/connext/helpers/StableSwap.sol:StableSwap",
            "label": "initialA",
            "offset": 0,
            "slot": "0",
            "type": "t_uint256"
          },
          {
            "astId": 22992,
            "contract": "contracts/core/connext/helpers/StableSwap.sol:StableSwap",
            "label": "futureA",
            "offset": 0,
            "slot": "1",
            "type": "t_uint256"
          },
          {
            "astId": 22994,
            "contract": "contracts/core/connext/helpers/StableSwap.sol:StableSwap",
            "label": "initialATime",
            "offset": 0,
            "slot": "2",
            "type": "t_uint256"
          },
          {
            "astId": 22996,
            "contract": "contracts/core/connext/helpers/StableSwap.sol:StableSwap",
            "label": "futureATime",
            "offset": 0,
            "slot": "3",
            "type": "t_uint256"
          },
          {
            "astId": 22998,
            "contract": "contracts/core/connext/helpers/StableSwap.sol:StableSwap",
            "label": "swapFee",
            "offset": 0,
            "slot": "4",
            "type": "t_uint256"
          },
          {
            "astId": 23000,
            "contract": "contracts/core/connext/helpers/StableSwap.sol:StableSwap",
            "label": "adminFee",
            "offset": 0,
            "slot": "5",
            "type": "t_uint256"
          },
          {
            "astId": 23003,
            "contract": "contracts/core/connext/helpers/StableSwap.sol:StableSwap",
            "label": "lpToken",
            "offset": 0,
            "slot": "6",
            "type": "t_contract(LPToken)12898"
          },
          {
            "astId": 23007,
            "contract": "contracts/core/connext/helpers/StableSwap.sol:StableSwap",
            "label": "pooledTokens",
            "offset": 0,
            "slot": "7",
            "type": "t_array(t_contract(IERC20)3290)dyn_storage"
          },
          {
            "astId": 23010,
            "contract": "contracts/core/connext/helpers/StableSwap.sol:StableSwap",
            "label": "tokenPrecisionMultipliers",
            "offset": 0,
            "slot": "8",
            "type": "t_array(t_uint256)dyn_storage"
          },
          {
            "astId": 23013,
            "contract": "contracts/core/connext/helpers/StableSwap.sol:StableSwap",
            "label": "balances",
            "offset": 0,
            "slot": "9",
            "type": "t_array(t_uint256)dyn_storage"
          },
          {
            "astId": 23016,
            "contract": "contracts/core/connext/helpers/StableSwap.sol:StableSwap",
            "label": "adminFees",
            "offset": 0,
            "slot": "10",
            "type": "t_array(t_uint256)dyn_storage"
          }
        ],
        "numberOfBytes": "352"
      },
      "t_uint256": {
        "encoding": "inplace",
        "label": "uint256",
        "numberOfBytes": "32"
      },
      "t_uint8": {
        "encoding": "inplace",
        "label": "uint8",
        "numberOfBytes": "1"
      }
    }
  }
}