{
  "address": "0xC15bAC780f7702E83d421955132d192c8841B13f",
  "abi": [
    {
      "inputs": [
        {
          "internalType": "string",
          "name": "name_",
          "type": "string"
        },
        {
          "internalType": "string",
          "name": "_symbol_",
          "type": "string"
        }
      ],
      "stateMutability": "nonpayable",
      "type": "constructor"
    },
    {
      "anonymous": false,
      "inputs": [
        {
          "indexed": true,
          "internalType": "address",
          "name": "owner",
          "type": "address"
        },
        {
          "indexed": true,
          "internalType": "address",
          "name": "spender",
          "type": "address"
        },
        {
          "indexed": false,
          "internalType": "uint256",
          "name": "value",
          "type": "uint256"
        }
      ],
      "name": "Approval",
      "type": "event"
    },
    {
      "anonymous": false,
      "inputs": [
        {
          "indexed": true,
          "internalType": "address",
          "name": "delegator",
          "type": "address"
        },
        {
          "indexed": true,
          "internalType": "address",
          "name": "fromDelegate",
          "type": "address"
        },
        {
          "indexed": true,
          "internalType": "address",
          "name": "toDelegate",
          "type": "address"
        }
      ],
      "name": "DelegateChanged",
      "type": "event"
    },
    {
      "anonymous": false,
      "inputs": [
        {
          "indexed": true,
          "internalType": "address",
          "name": "delegate",
          "type": "address"
        },
        {
          "indexed": false,
          "internalType": "uint256",
          "name": "previousBalance",
          "type": "uint256"
        },
        {
          "indexed": false,
          "internalType": "uint256",
          "name": "newBalance",
          "type": "uint256"
        }
      ],
      "name": "DelegateVotesChanged",
      "type": "event"
    },
    {
      "anonymous": false,
      "inputs": [
        {
          "indexed": true,
          "internalType": "address",
          "name": "from",
          "type": "address"
        },
        {
          "indexed": true,
          "internalType": "address",
          "name": "to",
          "type": "address"
        },
        {
          "indexed": false,
          "internalType": "uint256",
          "name": "value",
          "type": "uint256"
        }
      ],
      "name": "Transfer",
      "type": "event"
    },
    {
      "inputs": [],
      "name": "DOMAIN_SEPARATOR",
      "outputs": [
        {
          "internalType": "bytes32",
          "name": "",
          "type": "bytes32"
        }
      ],
      "stateMutability": "view",
      "type": "function"
    },
    {
      "inputs": [
        {
          "internalType": "address",
          "name": "owner",
          "type": "address"
        },
        {
          "internalType": "address",
          "name": "spender",
          "type": "address"
        }
      ],
      "name": "allowance",
      "outputs": [
        {
          "internalType": "uint256",
          "name": "",
          "type": "uint256"
        }
      ],
      "stateMutability": "view",
      "type": "function"
    },
    {
      "inputs": [
        {
          "internalType": "address",
          "name": "spender",
          "type": "address"
        },
        {
          "internalType": "uint256",
          "name": "amount",
          "type": "uint256"
        }
      ],
      "name": "approve",
      "outputs": [
        {
          "internalType": "bool",
          "name": "",
          "type": "bool"
        }
      ],
      "stateMutability": "nonpayable",
      "type": "function"
    },
    {
      "inputs": [
        {
          "internalType": "address",
          "name": "account",
          "type": "address"
        }
      ],
      "name": "balanceOf",
      "outputs": [
        {
          "internalType": "uint256",
          "name": "",
          "type": "uint256"
        }
      ],
      "stateMutability": "view",
      "type": "function"
    },
    {
      "inputs": [
        {
          "internalType": "address",
          "name": "account",
          "type": "address"
        },
        {
          "internalType": "uint256",
          "name": "amount",
          "type": "uint256"
        }
      ],
      "name": "burn",
      "outputs": [],
      "stateMutability": "nonpayable",
      "type": "function"
    },
    {
      "inputs": [
        {
          "internalType": "address",
          "name": "account",
          "type": "address"
        },
        {
          "internalType": "uint32",
          "name": "pos",
          "type": "uint32"
        }
      ],
      "name": "checkpoints",
      "outputs": [
        {
          "components": [
            {
              "internalType": "uint32",
              "name": "fromBlock",
              "type": "uint32"
            },
            {
              "internalType": "uint224",
              "name": "votes",
              "type": "uint224"
            }
          ],
          "internalType": "struct ERC20Votes.Checkpoint",
          "name": "",
          "type": "tuple"
        }
      ],
      "stateMutability": "view",
      "type": "function"
    },
    {
      "inputs": [],
      "name": "decimals",
      "outputs": [
        {
          "internalType": "uint8",
          "name": "",
          "type": "uint8"
        }
      ],
      "stateMutability": "view",
      "type": "function"
    },
    {
      "inputs": [
        {
          "internalType": "address",
          "name": "spender",
          "type": "address"
        },
        {
          "internalType": "uint256",
          "name": "subtractedValue",
          "type": "uint256"
        }
      ],
      "name": "decreaseAllowance",
      "outputs": [
        {
          "internalType": "bool",
          "name": "",
          "type": "bool"
        }
      ],
      "stateMutability": "nonpayable",
      "type": "function"
    },
    {
      "inputs": [
        {
          "internalType": "address",
          "name": "delegatee",
          "type": "address"
        }
      ],
      "name": "delegate",
      "outputs": [],
      "stateMutability": "nonpayable",
      "type": "function"
    },
    {
      "inputs": [
        {
          "internalType": "address",
          "name": "delegatee",
          "type": "address"
        },
        {
          "internalType": "uint256",
          "name": "nonce",
          "type": "uint256"
        },
        {
          "internalType": "uint256",
          "name": "expiry",
          "type": "uint256"
        },
        {
          "internalType": "uint8",
          "name": "v",
          "type": "uint8"
        },
        {
          "internalType": "bytes32",
          "name": "r",
          "type": "bytes32"
        },
        {
          "internalType": "bytes32",
          "name": "s",
          "type": "bytes32"
        }
      ],
      "name": "delegateBySig",
      "outputs": [],
      "stateMutability": "nonpayable",
      "type": "function"
    },
    {
      "inputs": [
        {
          "internalType": "address",
          "name": "account",
          "type": "address"
        }
      ],
      "name": "delegates",
      "outputs": [
        {
          "internalType": "address",
          "name": "",
          "type": "address"
        }
      ],
      "stateMutability": "view",
      "type": "function"
    },
    {
      "inputs": [
        {
          "internalType": "uint256",
          "name": "blockNumber",
          "type": "uint256"
        }
      ],
      "name": "getPastTotalSupply",
      "outputs": [
        {
          "internalType": "uint256",
          "name": "",
          "type": "uint256"
        }
      ],
      "stateMutability": "view",
      "type": "function"
    },
    {
      "inputs": [
        {
          "internalType": "address",
          "name": "account",
          "type": "address"
        },
        {
          "internalType": "uint256",
          "name": "blockNumber",
          "type": "uint256"
        }
      ],
      "name": "getPastVotes",
      "outputs": [
        {
          "internalType": "uint256",
          "name": "",
          "type": "uint256"
        }
      ],
      "stateMutability": "view",
      "type": "function"
    },
    {
      "inputs": [
        {
          "internalType": "address",
          "name": "account",
          "type": "address"
        }
      ],
      "name": "getVotes",
      "outputs": [
        {
          "internalType": "uint256",
          "name": "",
          "type": "uint256"
        }
      ],
      "stateMutability": "view",
      "type": "function"
    },
    {
      "inputs": [
        {
          "internalType": "address",
          "name": "spender",
          "type": "address"
        },
        {
          "internalType": "uint256",
          "name": "addedValue",
          "type": "uint256"
        }
      ],
      "name": "increaseAllowance",
      "outputs": [
        {
          "internalType": "bool",
          "name": "",
          "type": "bool"
        }
      ],
      "stateMutability": "nonpayable",
      "type": "function"
    },
    {
      "inputs": [
        {
          "internalType": "address",
          "name": "account",
          "type": "address"
        },
        {
          "internalType": "uint256",
          "name": "amount",
          "type": "uint256"
        }
      ],
      "name": "mint",
      "outputs": [],
      "stateMutability": "nonpayable",
      "type": "function"
    },
    {
      "inputs": [],
      "name": "name",
      "outputs": [
        {
          "internalType": "string",
          "name": "",
          "type": "string"
        }
      ],
      "stateMutability": "view",
      "type": "function"
    },
    {
      "inputs": [
        {
          "internalType": "address",
          "name": "owner",
          "type": "address"
        }
      ],
      "name": "nonces",
      "outputs": [
        {
          "internalType": "uint256",
          "name": "",
          "type": "uint256"
        }
      ],
      "stateMutability": "view",
      "type": "function"
    },
    {
      "inputs": [
        {
          "internalType": "address",
          "name": "account",
          "type": "address"
        }
      ],
      "name": "numCheckpoints",
      "outputs": [
        {
          "internalType": "uint32",
          "name": "",
          "type": "uint32"
        }
      ],
      "stateMutability": "view",
      "type": "function"
    },
    {
      "inputs": [
        {
          "internalType": "address",
          "name": "owner",
          "type": "address"
        },
        {
          "internalType": "address",
          "name": "spender",
          "type": "address"
        },
        {
          "internalType": "uint256",
          "name": "value",
          "type": "uint256"
        },
        {
          "internalType": "uint256",
          "name": "deadline",
          "type": "uint256"
        },
        {
          "internalType": "uint8",
          "name": "v",
          "type": "uint8"
        },
        {
          "internalType": "bytes32",
          "name": "r",
          "type": "bytes32"
        },
        {
          "internalType": "bytes32",
          "name": "s",
          "type": "bytes32"
        }
      ],
      "name": "permit",
      "outputs": [],
      "stateMutability": "nonpayable",
      "type": "function"
    },
    {
      "inputs": [
        {
          "internalType": "string",
          "name": "_newName",
          "type": "string"
        },
        {
          "internalType": "string",
          "name": "_newSymbol",
          "type": "string"
        }
      ],
      "name": "setDetails",
      "outputs": [],
      "stateMutability": "nonpayable",
      "type": "function"
    },
    {
      "inputs": [],
      "name": "symbol",
      "outputs": [
        {
          "internalType": "string",
          "name": "",
          "type": "string"
        }
      ],
      "stateMutability": "view",
      "type": "function"
    },
    {
      "inputs": [],
      "name": "totalSupply",
      "outputs": [
        {
          "internalType": "uint256",
          "name": "",
          "type": "uint256"
        }
      ],
      "stateMutability": "view",
      "type": "function"
    },
    {
      "inputs": [
        {
          "internalType": "address",
          "name": "to",
          "type": "address"
        },
        {
          "internalType": "uint256",
          "name": "amount",
          "type": "uint256"
        }
      ],
      "name": "transfer",
      "outputs": [
        {
          "internalType": "bool",
          "name": "",
          "type": "bool"
        }
      ],
      "stateMutability": "nonpayable",
      "type": "function"
    },
    {
      "inputs": [
        {
          "internalType": "address",
          "name": "from",
          "type": "address"
        },
        {
          "internalType": "address",
          "name": "to",
          "type": "address"
        },
        {
          "internalType": "uint256",
          "name": "amount",
          "type": "uint256"
        }
      ],
      "name": "transferFrom",
      "outputs": [
        {
          "internalType": "bool",
          "name": "",
          "type": "bool"
        }
      ],
      "stateMutability": "nonpayable",
      "type": "function"
    }
  ],
  "transactionHash": "0x8d94e707b33386a11c4dad4830c82992736157b34c27926ee9037c77c0948c69",
  "args": [
    "Test Votes",
    "TVOTES"
  ],
  "numDeployments": 1,
  "solcInputHash": "ac85abc8ecbe731780860e288b862e50",
  "bytecode": "0x6101406040523480156200001257600080fd5b5060405162002a9f38038062002a9f8339810160408190526200003591620007ac565b6040805180820190915260018152603160f81b60208201528290819081846003620000618382620008a4565b506004620000708282620008a4565b5050825160209384012082519284019290922060e08390526101008190524660a0818152604080517f8b73c3c69bb8fe3d512ecc4cf759cc79239f7b179b0ffacaa9a75d522b39400f818901819052818301979097526060810194909452608080850193909352308483018190528151808603909301835260c0948501909152815191909601209052929092526101205250600a9050620001128382620008a4565b50600b620001218282620008a4565b50620001383369d3c21bcecceda100000062000140565b5050620009b2565b620001578282620001f760201b62000aae1760201c565b6001600160e01b036200016b620002c88216565b1115620001d85760405162461bcd60e51b815260206004820152603060248201527f4552433230566f7465733a20746f74616c20737570706c79207269736b73206f60448201526f766572666c6f77696e6720766f74657360801b60648201526084015b60405180910390fd5b620001f1600962000b75620002ce60201b1783620002e5565b50505050565b6001600160a01b0382166200024f5760405162461bcd60e51b815260206004820152601f60248201527f45524332303a206d696e7420746f20746865207a65726f2061646472657373006044820152606401620001cf565b806002600082825462000263919062000986565b90915550506001600160a01b038216600081815260208181526040808320805486019055518481527fddf252ad1be2c89b69c2b068fc378daa952ba7f163c4a11628f55a4df523b3ef910160405180910390a3620002c4600083836200047c565b5050565b60025490565b6000620002dc828462000986565b90505b92915050565b8254600090819081811562000345576200031487620003066001856200099c565b600091825260209091200190565b60408051808201909152905463ffffffff8116825264010000000090046001600160e01b031660208201526200035a565b60408051808201909152600080825260208201525b905080602001516001600160e01b031693506200037884868860201c565b9250600082118015620003915750805163ffffffff1643145b15620003e857620003ad83620004c860201b62000b811760201c565b620003bf88620003066001866200099c565b80546001600160e01b03929092166401000000000263ffffffff9092169190911790556200046d565b8660405180604001604052806200040a436200053760201b62000bee1760201c565b63ffffffff1681526020016200042b86620004c860201b62000b811760201c565b6001600160e01b0390811690915282546001810184556000938452602093849020835194909301519091166401000000000263ffffffff909316929092179101555b5050935093915050565b505050565b620004948383836200047760201b62000c531760201c565b6001600160a01b0383811660009081526007602052604080822054858416835291205462000477929182169116836200059e565b60006001600160e01b03821115620005335760405162461bcd60e51b815260206004820152602760248201527f53616665436173743a2076616c756520646f65736e27742066697420696e20326044820152663234206269747360c81b6064820152608401620001cf565b5090565b600063ffffffff821115620005335760405162461bcd60e51b815260206004820152602660248201527f53616665436173743a2076616c756520646f65736e27742066697420696e203360448201526532206269747360d01b6064820152608401620001cf565b816001600160a01b0316836001600160a01b031614158015620005c15750600081115b1562000477576001600160a01b038316156200064e576001600160a01b0383166000908152600860209081526040822082916200060b9190620006d9901b62000c581785620002e5565b91509150846001600160a01b031660008051602062002a7f833981519152838360405162000643929190918252602082015260400190565b60405180910390a250505b6001600160a01b0382161562000477576001600160a01b038216600090815260086020908152604082208291620006929190620002ce901b62000b751785620002e5565b91509150836001600160a01b031660008051602062002a7f8339815191528383604051620006ca929190918252602082015260400190565b60405180910390a25050505050565b6000620002dc82846200099c565b634e487b7160e01b600052604160045260246000fd5b600082601f8301126200070f57600080fd5b81516001600160401b03808211156200072c576200072c620006e7565b604051601f8301601f19908116603f01168101908282118183101715620007575762000757620006e7565b816040528381526020925086838588010111156200077457600080fd5b600091505b8382101562000798578582018301518183018401529082019062000779565b600093810190920192909252949350505050565b60008060408385031215620007c057600080fd5b82516001600160401b0380821115620007d857600080fd5b620007e686838701620006fd565b93506020850151915080821115620007fd57600080fd5b506200080c85828601620006fd565b9150509250929050565b600181811c908216806200082b57607f821691505b6020821081036200084c57634e487b7160e01b600052602260045260246000fd5b50919050565b601f8211156200047757600081815260208120601f850160051c810160208610156200087b5750805b601f850160051c820191505b818110156200089c5782815560010162000887565b505050505050565b81516001600160401b03811115620008c057620008c0620006e7565b620008d881620008d1845462000816565b8462000852565b602080601f831160018114620009105760008415620008f75750858301515b600019600386901b1c1916600185901b1785556200089c565b600085815260208120601f198616915b82811015620009415788860151825594840194600190910190840162000920565b5085821015620009605787850151600019600388901b60f8161c191681555b5050505050600190811b01905550565b634e487b7160e01b600052601160045260246000fd5b80820180821115620002df57620002df62000970565b81810381811115620002df57620002df62000970565b60805160a05160c05160e051610100516101205161207d62000a026000396000611036015260006110850152600061106001526000610fb901526000610fe30152600061100d015261207d6000f3fe608060405234801561001057600080fd5b50600436106101735760003560e01c806370a08231116100de578063a457c2d711610097578063c3cda52011610071578063c3cda5201461034f578063d505accf14610362578063dd62ed3e14610375578063f1127ed81461038857600080fd5b8063a457c2d714610316578063a9059cbb14610329578063b7b090ee1461033c57600080fd5b806370a08231146102af5780637ecebe00146102c25780638e539e8c146102d557806395d89b41146102e85780639ab24eb0146102f05780639dc29fac1461030357600080fd5b8063395093511161013057806339509351146101f55780633a46b1a81461020857806340c10f191461021b578063587cde1e146102305780635c19a95c146102745780636fcfff451461028757600080fd5b806306fdde0314610178578063095ea7b31461019657806318160ddd146101b957806323b872dd146101cb578063313ce567146101de5780633644e515146101ed575b600080fd5b6101806103c5565b60405161018d9190611b50565b60405180910390f35b6101a96101a4366004611bba565b610457565b604051901515815260200161018d565b6002545b60405190815260200161018d565b6101a96101d9366004611be4565b610471565b6040516012815260200161018d565b6101bd61049a565b6101a9610203366004611bba565b6104a4565b6101bd610216366004611bba565b6104c6565b61022e610229366004611bba565b610545565b005b61025c61023e366004611c20565b6001600160a01b039081166000908152600760205260409020541690565b6040516001600160a01b03909116815260200161018d565b61022e610282366004611c20565b610553565b61029a610295366004611c20565b610560565b60405163ffffffff909116815260200161018d565b6101bd6102bd366004611c20565b610582565b6101bd6102d0366004611c20565b6105a0565b6101bd6102e3366004611c3b565b6105be565b61018061061a565b6101bd6102fe366004611c20565b610629565b61022e610311366004611bba565b6106b0565b6101a9610324366004611bba565b6106ba565b6101a9610337366004611bba565b610735565b61022e61034a366004611c9d565b610743565b61022e61035d366004611d1a565b610765565b61022e610370366004611d72565b61089b565b6101bd610383366004611ddc565b6109ff565b61039b610396366004611e0f565b610a2a565b60408051825163ffffffff1681526020928301516001600160e01b0316928101929092520161018d565b6060600a80546103d490611e4f565b80601f016020809104026020016040519081016040528092919081815260200182805461040090611e4f565b801561044d5780601f106104225761010080835404028352916020019161044d565b820191906000526020600020905b81548152906001019060200180831161043057829003601f168201915b5050505050905090565b600033610465818585610c64565b60019150505b92915050565b60003361047f858285610d88565b61048a858585610e02565b506001949350505050565b905090565b6000610495610fac565b6000336104658185856104b783836109ff565b6104c19190611e99565b610c64565b600043821061051c5760405162461bcd60e51b815260206004820152601f60248201527f4552433230566f7465733a20626c6f636b206e6f7420796574206d696e65640060448201526064015b60405180910390fd5b6001600160a01b038316600090815260086020526040902061053e90836110d3565b9392505050565b61054f82826111ca565b5050565b61055d3382611254565b50565b6001600160a01b03811660009081526008602052604081205461046b90610bee565b6001600160a01b03811660009081526020819052604081205461046b565b6001600160a01b03811660009081526005602052604081205461046b565b600043821061060f5760405162461bcd60e51b815260206004820152601f60248201527f4552433230566f7465733a20626c6f636b206e6f7420796574206d696e6564006044820152606401610513565b61046b6009836110d3565b6060600b80546103d490611e4f565b6001600160a01b038116600090815260086020526040812054801561069d576001600160a01b038316600090815260086020526040902061066b600183611eac565b8154811061067b5761067b611ebf565b60009182526020909120015464010000000090046001600160e01b03166106a0565b60005b6001600160e01b03169392505050565b61054f82826112e3565b600033816106c882866109ff565b9050838110156107285760405162461bcd60e51b815260206004820152602560248201527f45524332303a2064656372656173656420616c6c6f77616e63652062656c6f77604482015264207a65726f60d81b6064820152608401610513565b61048a8286868403610c64565b600033610465818585610e02565b600a610750848683611f39565b50600b61075e828483611f39565b5050505050565b834211156107b55760405162461bcd60e51b815260206004820152601d60248201527f4552433230566f7465733a207369676e617475726520657870697265640000006044820152606401610513565b604080517fe48329057bfd03d55e49b547132e39cffd9c1820ad7b9d4c5307691425d15adf60208201526001600160a01b03881691810191909152606081018690526080810185905260009061082f906108279060a001604051602081830303815290604052805190602001206112fb565b858585611349565b905061083a81611371565b86146108885760405162461bcd60e51b815260206004820152601960248201527f4552433230566f7465733a20696e76616c6964206e6f6e6365000000000000006044820152606401610513565b6108928188611254565b50505050505050565b834211156108eb5760405162461bcd60e51b815260206004820152601d60248201527f45524332305065726d69743a206578706972656420646561646c696e650000006044820152606401610513565b60007f6e71edae12b1b97f4d1f60370fef10105fa2faae0126114a169c64845d6126c988888861091a8c611371565b6040805160208101969096526001600160a01b0394851690860152929091166060840152608083015260a082015260c0810186905260e0016040516020818303038152906040528051906020012090506000610975826112fb565b9050600061098582878787611349565b9050896001600160a01b0316816001600160a01b0316146109e85760405162461bcd60e51b815260206004820152601e60248201527f45524332305065726d69743a20696e76616c6964207369676e617475726500006044820152606401610513565b6109f38a8a8a610c64565b50505050505050505050565b6001600160a01b03918216600090815260016020908152604080832093909416825291909152205490565b60408051808201909152600080825260208201526001600160a01b0383166000908152600860205260409020805463ffffffff8416908110610a6e57610a6e611ebf565b60009182526020918290206040805180820190915291015463ffffffff8116825264010000000090046001600160e01b0316918101919091529392505050565b6001600160a01b038216610b045760405162461bcd60e51b815260206004820152601f60248201527f45524332303a206d696e7420746f20746865207a65726f2061646472657373006044820152606401610513565b8060026000828254610b169190611e99565b90915550506001600160a01b038216600081815260208181526040808320805486019055518481527fddf252ad1be2c89b69c2b068fc378daa952ba7f163c4a11628f55a4df523b3ef910160405180910390a361054f60008383611399565b600061053e8284611e99565b60006001600160e01b03821115610bea5760405162461bcd60e51b815260206004820152602760248201527f53616665436173743a2076616c756520646f65736e27742066697420696e20326044820152663234206269747360c81b6064820152608401610513565b5090565b600063ffffffff821115610bea5760405162461bcd60e51b815260206004820152602660248201527f53616665436173743a2076616c756520646f65736e27742066697420696e203360448201526532206269747360d01b6064820152608401610513565b505050565b600061053e8284611eac565b6001600160a01b038316610cc65760405162461bcd60e51b8152602060048201526024808201527f45524332303a20617070726f76652066726f6d20746865207a65726f206164646044820152637265737360e01b6064820152608401610513565b6001600160a01b038216610d275760405162461bcd60e51b815260206004820152602260248201527f45524332303a20617070726f766520746f20746865207a65726f206164647265604482015261737360f01b6064820152608401610513565b6001600160a01b0383811660008181526001602090815260408083209487168084529482529182902085905590518481527f8c5be1e5ebec7d5bd14f71427d1e84f3dd0314c0f7b2291e5b200ac8c7c3b925910160405180910390a3505050565b6000610d9484846109ff565b90506000198114610dfc5781811015610def5760405162461bcd60e51b815260206004820152601d60248201527f45524332303a20696e73756666696369656e7420616c6c6f77616e63650000006044820152606401610513565b610dfc8484848403610c64565b50505050565b6001600160a01b038316610e665760405162461bcd60e51b815260206004820152602560248201527f45524332303a207472616e736665722066726f6d20746865207a65726f206164604482015264647265737360d81b6064820152608401610513565b6001600160a01b038216610ec85760405162461bcd60e51b815260206004820152602360248201527f45524332303a207472616e7366657220746f20746865207a65726f206164647260448201526265737360e81b6064820152608401610513565b6001600160a01b03831660009081526020819052604090205481811015610f405760405162461bcd60e51b815260206004820152602660248201527f45524332303a207472616e7366657220616d6f756e7420657863656564732062604482015265616c616e636560d01b6064820152608401610513565b6001600160a01b03848116600081815260208181526040808320878703905593871680835291849020805487019055925185815290927fddf252ad1be2c89b69c2b068fc378daa952ba7f163c4a11628f55a4df523b3ef910160405180910390a3610dfc848484611399565b6000306001600160a01b037f00000000000000000000000000000000000000000000000000000000000000001614801561100557507f000000000000000000000000000000000000000000000000000000000000000046145b1561102f57507f000000000000000000000000000000000000000000000000000000000000000090565b50604080517f00000000000000000000000000000000000000000000000000000000000000006020808301919091527f0000000000000000000000000000000000000000000000000000000000000000828401527f000000000000000000000000000000000000000000000000000000000000000060608301524660808301523060a0808401919091528351808403909101815260c0909201909252805191012090565b81546000908181600581111561112d5760006110ee846113cb565b6110f89085611eac565b600088815260209020909150869082015463ffffffff16111561111d5780915061112b565b611128816001611e99565b92505b505b8082101561117a57600061114183836114b3565b600088815260209020909150869082015463ffffffff16111561116657809150611174565b611171816001611e99565b92505b5061112d565b80156111b45761119d8661118f600184611eac565b600091825260209091200190565b5464010000000090046001600160e01b03166111b7565b60005b6001600160e01b03169695505050505050565b6111d48282610aae565b6002546001600160e01b0310156112465760405162461bcd60e51b815260206004820152603060248201527f4552433230566f7465733a20746f74616c20737570706c79207269736b73206f60448201526f766572666c6f77696e6720766f74657360801b6064820152608401610513565b610dfc6009610b75836114ce565b6001600160a01b038281166000908152600760205260408120549091169061127b84610582565b6001600160a01b0385811660008181526007602052604080822080546001600160a01b031916898616908117909155905194955093928616927f3134e8a2e6d97e929a7e54011ea5485d7d196dd5f0ba4d4ef95803e8e3fc257f9190a4610dfc828483611622565b6112ed828261175f565b610dfc6009610c58836114ce565b600061046b611308610fac565b8360405161190160f01b6020820152602281018390526042810182905260009060620160405160208183030381529060405280519060200120905092915050565b600080600061135a87878787611898565b915091506113678161195c565b5095945050505050565b6001600160a01b03811660009081526005602052604090208054600181018255905b50919050565b6001600160a01b03838116600090815260076020526040808220548584168352912054610c5392918216911683611622565b6000816000036113dd57506000919050565b600060016113ea84611aa6565b901c6001901b9050600181848161140357611403611ff9565b048201901c9050600181848161141b5761141b611ff9565b048201901c9050600181848161143357611433611ff9565b048201901c9050600181848161144b5761144b611ff9565b048201901c9050600181848161146357611463611ff9565b048201901c9050600181848161147b5761147b611ff9565b048201901c9050600181848161149357611493611ff9565b048201901c905061053e818285816114ad576114ad611ff9565b04611b3a565b60006114c2600284841861200f565b61053e90848416611e99565b8254600090819081811561151b576114eb8761118f600185611eac565b60408051808201909152905463ffffffff8116825264010000000090046001600160e01b03166020820152611530565b60408051808201909152600080825260208201525b905080602001516001600160e01b0316935061155084868863ffffffff16565b92506000821180156115685750805163ffffffff1643145b156115ad5761157683610b81565b6115858861118f600186611eac565b80546001600160e01b03929092166401000000000263ffffffff909216919091179055611618565b8660405180604001604052806115c243610bee565b63ffffffff1681526020016115d686610b81565b6001600160e01b0390811690915282546001810184556000938452602093849020835194909301519091166401000000000263ffffffff909316929092179101555b5050935093915050565b816001600160a01b0316836001600160a01b0316141580156116445750600081115b15610c53576001600160a01b038316156116d2576001600160a01b0383166000908152600860205260408120819061167f90610c58856114ce565b91509150846001600160a01b03167fdec2bacdd2f05b59de34da9b523dff8be42e5e38e818c82fdb0bae774387a72483836040516116c7929190918252602082015260400190565b60405180910390a250505b6001600160a01b03821615610c53576001600160a01b0382166000908152600860205260408120819061170890610b75856114ce565b91509150836001600160a01b03167fdec2bacdd2f05b59de34da9b523dff8be42e5e38e818c82fdb0bae774387a7248383604051611750929190918252602082015260400190565b60405180910390a25050505050565b6001600160a01b0382166117bf5760405162461bcd60e51b815260206004820152602160248201527f45524332303a206275726e2066726f6d20746865207a65726f206164647265736044820152607360f81b6064820152608401610513565b6001600160a01b038216600090815260208190526040902054818110156118335760405162461bcd60e51b815260206004820152602260248201527f45524332303a206275726e20616d6f756e7420657863656564732062616c616e604482015261636560f01b6064820152608401610513565b6001600160a01b0383166000818152602081815260408083208686039055600280548790039055518581529192917fddf252ad1be2c89b69c2b068fc378daa952ba7f163c4a11628f55a4df523b3ef910160405180910390a3610c5383600084611399565b6000807f7fffffffffffffffffffffffffffffff5d576e7357a4501ddfe92f46681b20a08311156118cf5750600090506003611953565b6040805160008082526020820180845289905260ff881692820192909252606081018690526080810185905260019060a0016020604051602081039080840390855afa158015611923573d6000803e3d6000fd5b5050604051601f1901519150506001600160a01b03811661194c57600060019250925050611953565b9150600090505b94509492505050565b600081600481111561197057611970612031565b036119785750565b600181600481111561198c5761198c612031565b036119d95760405162461bcd60e51b815260206004820152601860248201527f45434453413a20696e76616c6964207369676e617475726500000000000000006044820152606401610513565b60028160048111156119ed576119ed612031565b03611a3a5760405162461bcd60e51b815260206004820152601f60248201527f45434453413a20696e76616c6964207369676e6174757265206c656e677468006044820152606401610513565b6003816004811115611a4e57611a4e612031565b0361055d5760405162461bcd60e51b815260206004820152602260248201527f45434453413a20696e76616c6964207369676e6174757265202773272076616c604482015261756560f01b6064820152608401610513565b600080608083901c15611abb57608092831c92015b604083901c15611acd57604092831c92015b602083901c15611adf57602092831c92015b601083901c15611af157601092831c92015b600883901c15611b0357600892831c92015b600483901c15611b1557600492831c92015b600283901c15611b2757600292831c92015b600183901c1561046b5760010192915050565b6000818310611b49578161053e565b5090919050565b600060208083528351808285015260005b81811015611b7d57858101830151858201604001528201611b61565b506000604082860101526040601f19601f8301168501019250505092915050565b80356001600160a01b0381168114611bb557600080fd5b919050565b60008060408385031215611bcd57600080fd5b611bd683611b9e565b946020939093013593505050565b600080600060608486031215611bf957600080fd5b611c0284611b9e565b9250611c1060208501611b9e565b9150604084013590509250925092565b600060208284031215611c3257600080fd5b61053e82611b9e565b600060208284031215611c4d57600080fd5b5035919050565b60008083601f840112611c6657600080fd5b50813567ffffffffffffffff811115611c7e57600080fd5b602083019150836020828501011115611c9657600080fd5b9250929050565b60008060008060408587031215611cb357600080fd5b843567ffffffffffffffff80821115611ccb57600080fd5b611cd788838901611c54565b90965094506020870135915080821115611cf057600080fd5b50611cfd87828801611c54565b95989497509550505050565b803560ff81168114611bb557600080fd5b60008060008060008060c08789031215611d3357600080fd5b611d3c87611b9e565b95506020870135945060408701359350611d5860608801611d09565b92506080870135915060a087013590509295509295509295565b600080600080600080600060e0888a031215611d8d57600080fd5b611d9688611b9e565b9650611da460208901611b9e565b95506040880135945060608801359350611dc060808901611d09565b925060a0880135915060c0880135905092959891949750929550565b60008060408385031215611def57600080fd5b611df883611b9e565b9150611e0660208401611b9e565b90509250929050565b60008060408385031215611e2257600080fd5b611e2b83611b9e565b9150602083013563ffffffff81168114611e4457600080fd5b809150509250929050565b600181811c90821680611e6357607f821691505b60208210810361139357634e487b7160e01b600052602260045260246000fd5b634e487b7160e01b600052601160045260246000fd5b8082018082111561046b5761046b611e83565b8181038181111561046b5761046b611e83565b634e487b7160e01b600052603260045260246000fd5b634e487b7160e01b600052604160045260246000fd5b601f821115610c5357600081815260208120601f850160051c81016020861015611f125750805b601f850160051c820191505b81811015611f3157828155600101611f1e565b505050505050565b67ffffffffffffffff831115611f5157611f51611ed5565b611f6583611f5f8354611e4f565b83611eeb565b6000601f841160018114611f995760008515611f815750838201355b600019600387901b1c1916600186901b17835561075e565b600083815260209020601f19861690835b82811015611fca5786850135825560209485019460019092019101611faa565b5086821015611fe75760001960f88860031b161c19848701351681555b505060018560011b0183555050505050565b634e487b7160e01b600052601260045260246000fd5b60008261202c57634e487b7160e01b600052601260045260246000fd5b500490565b634e487b7160e01b600052602160045260246000fdfea2646970667358221220ff672b916d4bc36ffd9ebaf2d85c4960fc182c7fdb8d6f839be35da0096ff4b264736f6c63430008110033dec2bacdd2f05b59de34da9b523dff8be42e5e38e818c82fdb0bae774387a724",
  "devdoc": {
    "details": "Anybody can mint as many tokens as they likeAnybody can burn anyone else's tokens",
    "kind": "dev",
    "methods": {
      "DOMAIN_SEPARATOR()": {
        "details": "See {IERC20Permit-DOMAIN_SEPARATOR}."
      },
      "allowance(address,address)": {
        "details": "See {IERC20-allowance}."
      },
      "approve(address,uint256)": {
        "details": "See {IERC20-approve}. NOTE: If `amount` is the maximum `uint256`, the allowance is not updated on `transferFrom`. This is semantically equivalent to an infinite approval. Requirements: - `spender` cannot be the zero address."
      },
      "checkpoints(address,uint32)": {
        "details": "Get the `pos`-th checkpoint for `account`."
      },
      "decreaseAllowance(address,uint256)": {
        "details": "Atomically decreases the allowance granted to `spender` by the caller. This is an alternative to {approve} that can be used as a mitigation for problems described in {IERC20-approve}. Emits an {Approval} event indicating the updated allowance. Requirements: - `spender` cannot be the zero address. - `spender` must have allowance for the caller of at least `subtractedValue`."
      },
      "delegate(address)": {
        "details": "Delegate votes from the sender to `delegatee`."
      },
      "delegateBySig(address,uint256,uint256,uint8,bytes32,bytes32)": {
        "details": "Delegates votes from signer to `delegatee`"
      },
      "delegates(address)": {
        "details": "Get the address `account` is currently delegating to."
      },
      "getPastTotalSupply(uint256)": {
        "details": "Retrieve the `totalSupply` at the end of `blockNumber`. Note, this value is the sum of all balances. It is but NOT the sum of all the delegated votes! Requirements: - `blockNumber` must have been already mined"
      },
      "getPastVotes(address,uint256)": {
        "details": "Retrieve the number of votes for `account` at the end of `blockNumber`. Requirements: - `blockNumber` must have been already mined"
      },
      "getVotes(address)": {
        "details": "Gets the current votes balance for `account`"
      },
      "increaseAllowance(address,uint256)": {
        "details": "Atomically increases the allowance granted to `spender` by the caller. This is an alternative to {approve} that can be used as a mitigation for problems described in {IERC20-approve}. Emits an {Approval} event indicating the updated allowance. Requirements: - `spender` cannot be the zero address."
      },
      "nonces(address)": {
        "details": "See {IERC20Permit-nonces}."
      },
      "numCheckpoints(address)": {
        "details": "Get number of checkpoints for `account`."
      },
      "permit(address,address,uint256,uint256,uint8,bytes32,bytes32)": {
        "details": "See {IERC20Permit-permit}."
      },
      "totalSupply()": {
        "details": "See {IERC20-totalSupply}."
      },
      "transfer(address,uint256)": {
        "details": "See {IERC20-transfer}. Requirements: - `to` cannot be the zero address. - the caller must have a balance of at least `amount`."
      },
      "transferFrom(address,address,uint256)": {
        "details": "See {IERC20-transferFrom}. Emits an {Approval} event indicating the updated allowance. This is not required by the EIP. See the note at the beginning of {ERC20}. NOTE: Does not update the allowance if the current allowance is the maximum `uint256`. Requirements: - `from` and `to` cannot be the zero address. - `from` must have a balance of at least `amount`. - the caller must have allowance for ``from``'s tokens of at least `amount`."
      }
    },
    "version": 1
  },
  "userdoc": {
    "kind": "user",
    "methods": {},
    "notice": "This token is ONLY useful for testing",
    "version": 1
  },
  "storageLayout": {
    "storage": [
      {
        "astId": 2976,
        "contract": "contracts/test/TestERC20Votes.sol:TestERC20Votes",
        "label": "_balances",
        "offset": 0,
        "slot": "0",
        "type": "t_mapping(t_address,t_uint256)"
      },
      {
        "astId": 2982,
        "contract": "contracts/test/TestERC20Votes.sol:TestERC20Votes",
        "label": "_allowances",
        "offset": 0,
        "slot": "1",
        "type": "t_mapping(t_address,t_mapping(t_address,t_uint256))"
      },
      {
        "astId": 2984,
        "contract": "contracts/test/TestERC20Votes.sol:TestERC20Votes",
        "label": "_totalSupply",
        "offset": 0,
        "slot": "2",
        "type": "t_uint256"
      },
      {
        "astId": 2986,
        "contract": "contracts/test/TestERC20Votes.sol:TestERC20Votes",
        "label": "_name",
        "offset": 0,
        "slot": "3",
        "type": "t_string_storage"
      },
      {
        "astId": 2988,
        "contract": "contracts/test/TestERC20Votes.sol:TestERC20Votes",
        "label": "_symbol",
        "offset": 0,
        "slot": "4",
        "type": "t_string_storage"
      },
      {
        "astId": 4370,
        "contract": "contracts/test/TestERC20Votes.sol:TestERC20Votes",
        "label": "_nonces",
        "offset": 0,
        "slot": "5",
        "type": "t_mapping(t_address,t_struct(Counter)5194_storage)"
      },
      {
        "astId": 4378,
        "contract": "contracts/test/TestERC20Votes.sol:TestERC20Votes",
        "label": "_PERMIT_TYPEHASH_DEPRECATED_SLOT",
        "offset": 0,
        "slot": "6",
        "type": "t_bytes32"
      },
      {
        "astId": 3651,
        "contract": "contracts/test/TestERC20Votes.sol:TestERC20Votes",
        "label": "_delegates",
        "offset": 0,
        "slot": "7",
        "type": "t_mapping(t_address,t_address)"
      },
      {
        "astId": 3657,
        "contract": "contracts/test/TestERC20Votes.sol:TestERC20Votes",
        "label": "_checkpoints",
        "offset": 0,
        "slot": "8",
        "type": "t_mapping(t_address,t_array(t_struct(Checkpoint)3642_storage)dyn_storage)"
      },
      {
        "astId": 3661,
        "contract": "contracts/test/TestERC20Votes.sol:TestERC20Votes",
        "label": "_totalSupplyCheckpoints",
        "offset": 0,
        "slot": "9",
        "type": "t_array(t_struct(Checkpoint)3642_storage)dyn_storage"
      },
      {
        "astId": 48745,
        "contract": "contracts/test/TestERC20Votes.sol:TestERC20Votes",
        "label": "_name",
        "offset": 0,
        "slot": "10",
        "type": "t_string_storage"
      },
      {
        "astId": 48747,
        "contract": "contracts/test/TestERC20Votes.sol:TestERC20Votes",
        "label": "_symbol",
        "offset": 0,
        "slot": "11",
        "type": "t_string_storage"
      }
    ],
    "types": {
      "t_address": {
        "encoding": "inplace",
        "label": "address",
        "numberOfBytes": "20"
      },
      "t_array(t_struct(Checkpoint)3642_storage)dyn_storage": {
        "base": "t_struct(Checkpoint)3642_storage",
        "encoding": "dynamic_array",
        "label": "struct ERC20Votes.Checkpoint[]",
        "numberOfBytes": "32"
      },
      "t_bytes32": {
        "encoding": "inplace",
        "label": "bytes32",
        "numberOfBytes": "32"
      },
      "t_mapping(t_address,t_address)": {
        "encoding": "mapping",
        "key": "t_address",
        "label": "mapping(address => address)",
        "numberOfBytes": "32",
        "value": "t_address"
      },
      "t_mapping(t_address,t_array(t_struct(Checkpoint)3642_storage)dyn_storage)": {
        "encoding": "mapping",
        "key": "t_address",
        "label": "mapping(address => struct ERC20Votes.Checkpoint[])",
        "numberOfBytes": "32",
        "value": "t_array(t_struct(Checkpoint)3642_storage)dyn_storage"
      },
      "t_mapping(t_address,t_mapping(t_address,t_uint256))": {
        "encoding": "mapping",
        "key": "t_address",
        "label": "mapping(address => mapping(address => uint256))",
        "numberOfBytes": "32",
        "value": "t_mapping(t_address,t_uint256)"
      },
      "t_mapping(t_address,t_struct(Counter)5194_storage)": {
        "encoding": "mapping",
        "key": "t_address",
        "label": "mapping(address => struct Counters.Counter)",
        "numberOfBytes": "32",
        "value": "t_struct(Counter)5194_storage"
      },
      "t_mapping(t_address,t_uint256)": {
        "encoding": "mapping",
        "key": "t_address",
        "label": "mapping(address => uint256)",
        "numberOfBytes": "32",
        "value": "t_uint256"
      },
      "t_string_storage": {
        "encoding": "bytes",
        "label": "string",
        "numberOfBytes": "32"
      },
      "t_struct(Checkpoint)3642_storage": {
        "encoding": "inplace",
        "label": "struct ERC20Votes.Checkpoint",
        "members": [
          {
            "astId": 3639,
            "contract": "contracts/test/TestERC20Votes.sol:TestERC20Votes",
            "label": "fromBlock",
            "offset": 0,
            "slot": "0",
            "type": "t_uint32"
          },
          {
            "astId": 3641,
            "contract": "contracts/test/TestERC20Votes.sol:TestERC20Votes",
            "label": "votes",
            "offset": 4,
            "slot": "0",
            "type": "t_uint224"
          }
        ],
        "numberOfBytes": "32"
      },
      "t_struct(Counter)5194_storage": {
        "encoding": "inplace",
        "label": "struct Counters.Counter",
        "members": [
          {
            "astId": 5193,
            "contract": "contracts/test/TestERC20Votes.sol:TestERC20Votes",
            "label": "_value",
            "offset": 0,
            "slot": "0",
            "type": "t_uint256"
          }
        ],
        "numberOfBytes": "32"
      },
      "t_uint224": {
        "encoding": "inplace",
        "label": "uint224",
        "numberOfBytes": "28"
      },
      "t_uint256": {
        "encoding": "inplace",
        "label": "uint256",
        "numberOfBytes": "32"
      },
      "t_uint32": {
        "encoding": "inplace",
        "label": "uint32",
        "numberOfBytes": "4"
      }
    }
  }
}