{
  "address": "0x4e1312Ecb1f7f3211C49139b0524D54bF98D9538",
  "abi": [
    {
      "inputs": [
        {
          "internalType": "uint32",
          "name": "_domain",
          "type": "uint32"
        },
        {
          "internalType": "uint32",
          "name": "_mirrorDomain",
          "type": "uint32"
        },
        {
          "internalType": "address",
          "name": "",
          "type": "address"
        },
        {
          "internalType": "address",
          "name": "_rootManager",
          "type": "address"
        },
        {
          "internalType": "address",
          "name": "",
          "type": "address"
        }
      ],
      "stateMutability": "nonpayable",
      "type": "constructor"
    },
    {
      "inputs": [],
      "name": "Connector__processMessage_notUsed",
      "type": "error"
    },
    {
      "inputs": [],
      "name": "ProposedOwnable__onlyOwner_notOwner",
      "type": "error"
    },
    {
      "inputs": [],
      "name": "ProposedOwnable__onlyProposed_notProposedOwner",
      "type": "error"
    },
    {
      "inputs": [],
      "name": "ProposedOwnable__ownershipDelayElapsed_delayNotElapsed",
      "type": "error"
    },
    {
      "inputs": [],
      "name": "ProposedOwnable__proposeNewOwner_invalidProposal",
      "type": "error"
    },
    {
      "inputs": [],
      "name": "ProposedOwnable__proposeNewOwner_noOwnershipChange",
      "type": "error"
    },
    {
      "inputs": [],
      "name": "ProposedOwnable__renounceOwnership_invalidProposal",
      "type": "error"
    },
    {
      "inputs": [],
      "name": "ProposedOwnable__renounceOwnership_noProposal",
      "type": "error"
    },
    {
      "anonymous": false,
      "inputs": [
        {
          "indexed": true,
          "internalType": "address",
          "name": "to",
          "type": "address"
        },
        {
          "indexed": false,
          "internalType": "uint256",
          "name": "amount",
          "type": "uint256"
        }
      ],
      "name": "FundsWithdrawn",
      "type": "event"
    },
    {
      "anonymous": false,
      "inputs": [
        {
          "indexed": false,
          "internalType": "bytes",
          "name": "data",
          "type": "bytes"
        },
        {
          "indexed": false,
          "internalType": "address",
          "name": "caller",
          "type": "address"
        }
      ],
      "name": "MessageProcessed",
      "type": "event"
    },
    {
      "anonymous": false,
      "inputs": [
        {
          "indexed": false,
          "internalType": "bytes",
          "name": "data",
          "type": "bytes"
        },
        {
          "indexed": false,
          "internalType": "bytes",
          "name": "encodedData",
          "type": "bytes"
        },
        {
          "indexed": false,
          "internalType": "address",
          "name": "caller",
          "type": "address"
        }
      ],
      "name": "MessageSent",
      "type": "event"
    },
    {
      "anonymous": false,
      "inputs": [
        {
          "indexed": false,
          "internalType": "address",
          "name": "previous",
          "type": "address"
        },
        {
          "indexed": false,
          "internalType": "address",
          "name": "current",
          "type": "address"
        }
      ],
      "name": "MirrorConnectorUpdated",
      "type": "event"
    },
    {
      "anonymous": false,
      "inputs": [
        {
          "indexed": true,
          "internalType": "uint32",
          "name": "domain",
          "type": "uint32"
        },
        {
          "indexed": true,
          "internalType": "uint32",
          "name": "mirrorDomain",
          "type": "uint32"
        },
        {
          "indexed": false,
          "internalType": "address",
          "name": "amb",
          "type": "address"
        },
        {
          "indexed": false,
          "internalType": "address",
          "name": "rootManager",
          "type": "address"
        },
        {
          "indexed": false,
          "internalType": "address",
          "name": "mirrorConnector",
          "type": "address"
        }
      ],
      "name": "NewConnector",
      "type": "event"
    },
    {
      "anonymous": false,
      "inputs": [
        {
          "indexed": true,
          "internalType": "address",
          "name": "proposedOwner",
          "type": "address"
        }
      ],
      "name": "OwnershipProposed",
      "type": "event"
    },
    {
      "anonymous": false,
      "inputs": [
        {
          "indexed": true,
          "internalType": "address",
          "name": "previousOwner",
          "type": "address"
        },
        {
          "indexed": true,
          "internalType": "address",
          "name": "newOwner",
          "type": "address"
        }
      ],
      "name": "OwnershipTransferred",
      "type": "event"
    },
    {
      "inputs": [],
      "name": "AMB",
      "outputs": [
        {
          "internalType": "address",
          "name": "",
          "type": "address"
        }
      ],
      "stateMutability": "view",
      "type": "function"
    },
    {
      "inputs": [],
      "name": "DOMAIN",
      "outputs": [
        {
          "internalType": "uint32",
          "name": "",
          "type": "uint32"
        }
      ],
      "stateMutability": "view",
      "type": "function"
    },
    {
      "inputs": [],
      "name": "MIRROR_DOMAIN",
      "outputs": [
        {
          "internalType": "uint32",
          "name": "",
          "type": "uint32"
        }
      ],
      "stateMutability": "view",
      "type": "function"
    },
    {
      "inputs": [],
      "name": "ROOT_MANAGER",
      "outputs": [
        {
          "internalType": "address",
          "name": "",
          "type": "address"
        }
      ],
      "stateMutability": "view",
      "type": "function"
    },
    {
      "inputs": [],
      "name": "acceptProposedOwner",
      "outputs": [],
      "stateMutability": "nonpayable",
      "type": "function"
    },
    {
      "inputs": [
        {
          "internalType": "bytes32",
          "name": "_data",
          "type": "bytes32"
        }
      ],
      "name": "addSpokeRootToAggregate",
      "outputs": [],
      "stateMutability": "nonpayable",
      "type": "function"
    },
    {
      "inputs": [],
      "name": "delay",
      "outputs": [
        {
          "internalType": "uint256",
          "name": "",
          "type": "uint256"
        }
      ],
      "stateMutability": "view",
      "type": "function"
    },
    {
      "inputs": [],
      "name": "mirrorConnector",
      "outputs": [
        {
          "internalType": "address",
          "name": "",
          "type": "address"
        }
      ],
      "stateMutability": "view",
      "type": "function"
    },
    {
      "inputs": [],
      "name": "owner",
      "outputs": [
        {
          "internalType": "address",
          "name": "",
          "type": "address"
        }
      ],
      "stateMutability": "view",
      "type": "function"
    },
    {
      "inputs": [
        {
          "internalType": "bytes",
          "name": "_data",
          "type": "bytes"
        }
      ],
      "name": "processMessage",
      "outputs": [],
      "stateMutability": "nonpayable",
      "type": "function"
    },
    {
      "inputs": [
        {
          "internalType": "address",
          "name": "newlyProposed",
          "type": "address"
        }
      ],
      "name": "proposeNewOwner",
      "outputs": [],
      "stateMutability": "nonpayable",
      "type": "function"
    },
    {
      "inputs": [],
      "name": "proposed",
      "outputs": [
        {
          "internalType": "address",
          "name": "",
          "type": "address"
        }
      ],
      "stateMutability": "view",
      "type": "function"
    },
    {
      "inputs": [],
      "name": "proposedTimestamp",
      "outputs": [
        {
          "internalType": "uint256",
          "name": "",
          "type": "uint256"
        }
      ],
      "stateMutability": "view",
      "type": "function"
    },
    {
      "inputs": [],
      "name": "renounceOwnership",
      "outputs": [],
      "stateMutability": "nonpayable",
      "type": "function"
    },
    {
      "inputs": [],
      "name": "renounced",
      "outputs": [
        {
          "internalType": "bool",
          "name": "",
          "type": "bool"
        }
      ],
      "stateMutability": "view",
      "type": "function"
    },
    {
      "inputs": [
        {
          "internalType": "bytes",
          "name": "_data",
          "type": "bytes"
        },
        {
          "internalType": "bytes",
          "name": "_encodedData",
          "type": "bytes"
        }
      ],
      "name": "sendMessage",
      "outputs": [],
      "stateMutability": "payable",
      "type": "function"
    },
    {
      "inputs": [
        {
          "internalType": "address",
          "name": "_mirrorConnector",
          "type": "address"
        }
      ],
      "name": "setMirrorConnector",
      "outputs": [],
      "stateMutability": "nonpayable",
      "type": "function"
    },
    {
      "inputs": [
        {
          "internalType": "address",
          "name": "_expected",
          "type": "address"
        }
      ],
      "name": "verifySender",
      "outputs": [
        {
          "internalType": "bool",
          "name": "",
          "type": "bool"
        }
      ],
      "stateMutability": "nonpayable",
      "type": "function"
    },
    {
      "inputs": [
        {
          "internalType": "address",
          "name": "_to",
          "type": "address"
        }
      ],
      "name": "withdrawFunds",
      "outputs": [],
      "stateMutability": "nonpayable",
      "type": "function"
    },
    {
      "stateMutability": "payable",
      "type": "receive"
    }
  ],
  "transactionHash": "0x6ad2e1452dadb6e414f1b0304b0b53931ee19d9c42ca25d8354246fa291ad1b7",
  "args": [
    "1735353714",
    "2016506996",
    "0x0000000000000000000000000000000000000000",
    "0xA63DF6af82091BdB11402800B56c9440BD97f1bB",
    "0x0000000000000000000000000000000000000000"
  ],
  "numDeployments": 1,
  "solcInputHash": "9bce7dbe1d7f33982ad13000cbb5faea",
  "bytecode": "0x6101006040523480156200001257600080fd5b506040516200118a3803806200118a833981016040819052620000359162000298565b84846000848184848284816200004b3362000198565b8463ffffffff16600003620000965760405162461bcd60e51b815260206004820152600c60248201526b32b6b83a3c903237b6b0b4b760a11b60448201526064015b60405180910390fd5b6001600160a01b038216620000e25760405162461bcd60e51b815260206004820152601160248201527032b6b83a3c903937b7ba26b0b730b3b2b960791b60448201526064016200008d565b63ffffffff8086166080526001600160a01b0380851660a05283811660c05290851660e0528116156200011a576200011a81620001fd565b604080516001600160a01b0385811682528481166020830152831681830152905163ffffffff86811692908816917f4f9c27c2fe3f84576ea469d367d044da53c45e951617e8389f2b5ed8db9d25f09181900360600190a3505050505050505050506200018d336200019860201b60201c565b505050505062000308565b600080546040516001600160a01b03808516939216917f8be0079c531659141344cd1fd0a4f28419497f9722a3daafe3b4186f6b6457e091a3600080546001600160a01b039092166001600160a01b0319928316178155600255600180549091169055565b600354604080516001600160a01b03928316815291831660208301527fc77bec288fc88f168427f2f7da682eadb26cac89d8d591af6e443da98dff2bbc910160405180910390a1600380546001600160a01b0319166001600160a01b0392909216919091179055565b805163ffffffff811681146200027b57600080fd5b919050565b80516001600160a01b03811681146200027b57600080fd5b600080600080600060a08688031215620002b157600080fd5b620002bc8662000266565b9450620002cc6020870162000266565b9350620002dc6040870162000280565b9250620002ec6060870162000280565b9150620002fc6080870162000280565b90509295509295909350565b60805160a05160c05160e051610e2c6200035e60003960008181610136015261081c01526000818161022c015281816103ec015261084a01526000818161037f0152610497015260006101d80152610e2c6000f3fe6080604052600436106101185760003560e01c8063715018a6116100a0578063d1851c9211610064578063d1851c9214610324578063d232c22014610342578063d69f9d611461036d578063d993bee3146103a1578063db1b7659146103c157600080fd5b8063715018a61461029c5780638da5cb5b146102b1578063b1f8100d146102cf578063c5b350df146102ef578063cc3942831461030457600080fd5b806352a9674b116100e757806352a9674b146101c65780635bd11efc146101fa5780635f61e3ec1461021a57806368742da6146102665780636a42b8f81461028657600080fd5b806314168416146101245780633cf52ffb1461017257806348e6fa23146101915780634ff746f6146101a657600080fd5b3661011f57005b600080fd5b34801561013057600080fd5b506101587f000000000000000000000000000000000000000000000000000000000000000081565b60405163ffffffff90911681526020015b60405180910390f35b34801561017e57600080fd5b506002545b604051908152602001610169565b6101a461019f366004610c3d565b6103e1565b005b3480156101b257600080fd5b506101a46101c1366004610ca1565b61048c565b3480156101d257600080fd5b506101587f000000000000000000000000000000000000000000000000000000000000000081565b34801561020657600080fd5b506101a4610215366004610cde565b610532565b34801561022657600080fd5b5061024e7f000000000000000000000000000000000000000000000000000000000000000081565b6040516001600160a01b039091168152602001610169565b34801561027257600080fd5b506101a4610281366004610cde565b610569565b34801561029257600080fd5b5062093a80610183565b3480156102a857600080fd5b506101a46105e6565b3480156102bd57600080fd5b506000546001600160a01b031661024e565b3480156102db57600080fd5b506101a46102ea366004610cde565b61069a565b3480156102fb57600080fd5b506101a4610738565b34801561031057600080fd5b5060035461024e906001600160a01b031681565b34801561033057600080fd5b506001546001600160a01b031661024e565b34801561034e57600080fd5b506000546001600160a01b0316155b6040519015158152602001610169565b34801561037957600080fd5b5061024e7f000000000000000000000000000000000000000000000000000000000000000081565b3480156103ad57600080fd5b506101a46103bc366004610d0e565b6107a8565b3480156103cd57600080fd5b5061035d6103dc366004610cde565b6108fe565b336001600160a01b037f0000000000000000000000000000000000000000000000000000000000000000161461044d5760405162461bcd60e51b815260206004820152600c60248201526b10b937b7ba26b0b730b3b2b960a11b60448201526064015b60405180910390fd5b7fdcaa37a042a0087de79018c629bbd29cee82ca80bd9be394e1696bf9e935507782823360405161048093929190610d6d565b60405180910390a15050565b336001600160a01b037f000000000000000000000000000000000000000000000000000000000000000016146104ed5760405162461bcd60e51b81526004016104449060208082526004908201526310a0a6a160e11b604082015260600190565b6104f68161090f565b7fb3abc57bfeebd2cac918901db582f71972a8e628bccf19f5ae3e3482b98a5ced8133604051610527929190610dab565b60405180910390a150565b6000546001600160a01b0316331461055d576040516311a8a1bb60e31b815260040160405180910390fd5b61056681610928565b50565b6000546001600160a01b03163314610594576040516311a8a1bb60e31b815260040160405180910390fd5b4761059f8282610991565b816001600160a01b03167feaff4b37086828766ad3268786972c0cd24259d4c87a80f9d3963a3c3d999b0d826040516105da91815260200190565b60405180910390a25050565b6000546001600160a01b03163314610611576040516311a8a1bb60e31b815260040160405180910390fd5b62093a80600254426106239190610dd5565b11610641576040516324e0285f60e21b815260040160405180910390fd5b60025460000361066457604051630e4b303f60e21b815260040160405180910390fd5b6001546001600160a01b03161561068e576040516323295ef960e01b815260040160405180910390fd5b6106986000610aaf565b565b6000546001600160a01b031633146106c5576040516311a8a1bb60e31b815260040160405180910390fd5b6001546001600160a01b0382811691161480156106e3575060025415155b15610701576040516311bc066560e11b815260040160405180910390fd5b6000546001600160a01b0380831691160361072f57604051634a2fb73f60e11b815260040160405180910390fd5b61056681610b14565b6001546001600160a01b03163314610763576040516311a7f27160e11b815260040160405180910390fd5b62093a80600254426107759190610dd5565b11610793576040516324e0285f60e21b815260040160405180910390fd5b600154610698906001600160a01b0316610aaf565b6000546001600160a01b031633146107d3576040516311a8a1bb60e31b815260040160405180910390fd5b806108085760405162461bcd60e51b8152602060048201526005602482015264656d70747960d81b6044820152606401610444565b60405163473ec9fd60e11b815263ffffffff7f0000000000000000000000000000000000000000000000000000000000000000166004820152602481018290527f00000000000000000000000000000000000000000000000000000000000000006001600160a01b031690638e7d93fa90604401600060405180830381600087803b15801561089657600080fd5b505af11580156108aa573d6000803e3d6000fd5b505050507fb3abc57bfeebd2cac918901db582f71972a8e628bccf19f5ae3e3482b98a5ced816040516020016108e291815260200190565b60408051601f1981840301815290829052610527913390610dab565b600061090982610b62565b92915050565b6040516316c2fdb560e21b815260040160405180910390fd5b600354604080516001600160a01b03928316815291831660208301527fc77bec288fc88f168427f2f7da682eadb26cac89d8d591af6e443da98dff2bbc910160405180910390a1600380546001600160a01b0319166001600160a01b0392909216919091179055565b804710156109e15760405162461bcd60e51b815260206004820152601d60248201527f416464726573733a20696e73756666696369656e742062616c616e63650000006044820152606401610444565b6000826001600160a01b03168260405160006040518083038185875af1925050503d8060008114610a2e576040519150601f19603f3d011682016040523d82523d6000602084013e610a33565b606091505b5050905080610aaa5760405162461bcd60e51b815260206004820152603a60248201527f416464726573733a20756e61626c6520746f2073656e642076616c75652c207260448201527f6563697069656e74206d617920686176652072657665727465640000000000006064820152608401610444565b505050565b600080546040516001600160a01b03808516939216917f8be0079c531659141344cd1fd0a4f28419497f9722a3daafe3b4186f6b6457e091a3600080546001600160a01b039092166001600160a01b0319928316178155600255600180549091169055565b42600255600180546001600160a01b0319166001600160a01b0383169081179091556040517f6ab4d119f23076e8ad491bc65ce85f017fb0591dce08755ba8591059cc51737a90600090a250565b60405162461bcd60e51b815260206004820152600a602482015269085cdd5c1c1bdc9d195960b21b6044820152600090606401610444565b634e487b7160e01b600052604160045260246000fd5b600082601f830112610bc157600080fd5b813567ffffffffffffffff80821115610bdc57610bdc610b9a565b604051601f8301601f19908116603f01168101908282118183101715610c0457610c04610b9a565b81604052838152866020858801011115610c1d57600080fd5b836020870160208301376000602085830101528094505050505092915050565b60008060408385031215610c5057600080fd5b823567ffffffffffffffff80821115610c6857600080fd5b610c7486838701610bb0565b93506020850135915080821115610c8a57600080fd5b50610c9785828601610bb0565b9150509250929050565b600060208284031215610cb357600080fd5b813567ffffffffffffffff811115610cca57600080fd5b610cd684828501610bb0565b949350505050565b600060208284031215610cf057600080fd5b81356001600160a01b0381168114610d0757600080fd5b9392505050565b600060208284031215610d2057600080fd5b5035919050565b6000815180845260005b81811015610d4d57602081850181015186830182015201610d31565b506000602082860101526020601f19601f83011685010191505092915050565b606081526000610d806060830186610d27565b8281036020840152610d928186610d27565b91505060018060a01b0383166040830152949350505050565b604081526000610dbe6040830185610d27565b905060018060a01b03831660208301529392505050565b8181038181111561090957634e487b7160e01b600052601160045260246000fdfea2646970667358221220152fe71688155643c6935e3f783e353f4d69dcafa7e8a58e90bfed6bc4849d7064736f6c63430008110033",
  "devdoc": {
    "author": "Connext",
    "kind": "dev",
    "methods": {
      "addSpokeRootToAggregate(bytes32)": {
        "params": {
          "_data": "The data to be added to the merkle tree"
        }
      },
      "processMessage(bytes)": {
        "details": "This is called by AMBs to process messages originating from mirror connector"
      },
      "sendMessage(bytes,bytes)": {
        "details": "This is called by the root manager *only* on mainnet to propagate the aggregate root"
      },
      "withdrawFunds(address)": {
        "details": "Withdraws the entire balance of the contract.",
        "params": {
          "_to": "The recipient of the funds withdrawn"
        }
      }
    },
    "title": "AdminHubConnector",
    "version": 1
  },
  "userdoc": {
    "events": {
      "FundsWithdrawn(address,uint256)": {
        "notice": "Emitted when funds are withdrawn by the admin"
      },
      "MessageProcessed(bytes,address)": {
        "notice": "Emitted whenever a message is successfully received over an AMB"
      },
      "MessageSent(bytes,bytes,address)": {
        "notice": "Emitted whenever a message is successfully sent over an AMB"
      }
    },
    "kind": "user",
    "methods": {
      "AMB()": {
        "notice": "Address of the AMB on this domain."
      },
      "DOMAIN()": {
        "notice": "The domain of this Messaging (i.e. Connector) contract."
      },
      "MIRROR_DOMAIN()": {
        "notice": "The domain of the corresponding messaging (i.e. Connector) contract."
      },
      "ROOT_MANAGER()": {
        "notice": "RootManager contract address."
      },
      "acceptProposedOwner()": {
        "notice": "Transfers ownership of the contract to a new account (`newOwner`). Can only be called by the current owner."
      },
      "addSpokeRootToAggregate(bytes32)": {
        "notice": "Owner only function that allows merkle roots to be added to the RootManager's merkle tree."
      },
      "delay()": {
        "notice": "Returns the delay period before a new owner can be accepted."
      },
      "mirrorConnector()": {
        "notice": "Connector on L2 for L1 connectors, and vice versa."
      },
      "owner()": {
        "notice": "Returns the address of the current owner."
      },
      "processMessage(bytes)": {
        "notice": "Processes a message received by an AMB"
      },
      "proposeNewOwner(address)": {
        "notice": "Sets the timestamp for an owner to be proposed, and sets the newly proposed owner as step 1 in a 2-step process"
      },
      "proposed()": {
        "notice": "Returns the address of the proposed owner."
      },
      "proposedTimestamp()": {
        "notice": "Returns the address of the proposed owner."
      },
      "renounceOwnership()": {
        "notice": "Renounces ownership of the contract after a delay"
      },
      "renounced()": {
        "notice": "Indicates if the ownership has been renounced() by checking if current owner is address(0)"
      },
      "sendMessage(bytes,bytes)": {
        "notice": "Sends a message over the amb"
      },
      "setMirrorConnector(address)": {
        "notice": "Sets the address of the l2Connector for this domain"
      },
      "verifySender(address)": {
        "notice": "Checks the cross domain sender for a given address"
      },
      "withdrawFunds(address)": {
        "notice": "This function should be callable by owner, and send funds trapped on a connector to the provided recipient."
      }
    },
    "notice": "This contract is a hub connector that allows the owner to create roots which will be added to the RootManager's merkle trees. This is meant to be deployed only as an emergency measure where an AMB is no longer operational and a root needs to be sent in order to allow users to withdraw funds. This contract should be deployed with the same domain as the AMB it is replacing.",
    "version": 1
  },
  "storageLayout": {
    "storage": [
      {
        "astId": 28996,
        "contract": "contracts/messaging/connectors/admin/AdminHubConnector.sol:AdminHubConnector",
        "label": "_owner",
        "offset": 0,
        "slot": "0",
        "type": "t_address"
      },
      {
        "astId": 28998,
        "contract": "contracts/messaging/connectors/admin/AdminHubConnector.sol:AdminHubConnector",
        "label": "_proposed",
        "offset": 0,
        "slot": "1",
        "type": "t_address"
      },
      {
        "astId": 29000,
        "contract": "contracts/messaging/connectors/admin/AdminHubConnector.sol:AdminHubConnector",
        "label": "_proposedOwnershipTimestamp",
        "offset": 0,
        "slot": "2",
        "type": "t_uint256"
      },
      {
        "astId": 17245,
        "contract": "contracts/messaging/connectors/admin/AdminHubConnector.sol:AdminHubConnector",
        "label": "mirrorConnector",
        "offset": 0,
        "slot": "3",
        "type": "t_address"
      }
    ],
    "types": {
      "t_address": {
        "encoding": "inplace",
        "label": "address",
        "numberOfBytes": "20"
      },
      "t_uint256": {
        "encoding": "inplace",
        "label": "uint256",
        "numberOfBytes": "32"
      }
    }
  }
}