{
  "address": "0x373ba9aa0f48b27A977F73423039E6dE341a0C7C",
  "abi": [
    {
      "inputs": [
        {
          "internalType": "uint256",
          "name": "_chainId",
          "type": "uint256"
        }
      ],
      "stateMutability": "nonpayable",
      "type": "constructor"
    },
    {
      "anonymous": false,
      "inputs": [
        {
          "indexed": true,
          "internalType": "address",
          "name": "addedAssetId",
          "type": "address"
        },
        {
          "indexed": true,
          "internalType": "address",
          "name": "caller",
          "type": "address"
        }
      ],
      "name": "AssetAdded",
      "type": "event"
    },
    {
      "anonymous": false,
      "inputs": [
        {
          "indexed": false,
          "internalType": "bool",
          "name": "renounced",
          "type": "bool"
        }
      ],
      "name": "AssetOwnershipRenounced",
      "type": "event"
    },
    {
      "anonymous": false,
      "inputs": [
        {
          "indexed": false,
          "internalType": "uint256",
          "name": "timestamp",
          "type": "uint256"
        }
      ],
      "name": "AssetOwnershipRenunciationProposed",
      "type": "event"
    },
    {
      "anonymous": false,
      "inputs": [
        {
          "indexed": true,
          "internalType": "address",
          "name": "removedAssetId",
          "type": "address"
        },
        {
          "indexed": true,
          "internalType": "address",
          "name": "caller",
          "type": "address"
        }
      ],
      "name": "AssetRemoved",
      "type": "event"
    },
    {
      "anonymous": false,
      "inputs": [
        {
          "indexed": true,
          "internalType": "address",
          "name": "router",
          "type": "address"
        },
        {
          "indexed": true,
          "internalType": "address",
          "name": "assetId",
          "type": "address"
        },
        {
          "indexed": false,
          "internalType": "uint256",
          "name": "amount",
          "type": "uint256"
        },
        {
          "indexed": false,
          "internalType": "address",
          "name": "caller",
          "type": "address"
        }
      ],
      "name": "LiquidityAdded",
      "type": "event"
    },
    {
      "anonymous": false,
      "inputs": [
        {
          "indexed": true,
          "internalType": "address",
          "name": "router",
          "type": "address"
        },
        {
          "indexed": true,
          "internalType": "address",
          "name": "assetId",
          "type": "address"
        },
        {
          "indexed": false,
          "internalType": "uint256",
          "name": "amount",
          "type": "uint256"
        },
        {
          "indexed": false,
          "internalType": "address",
          "name": "recipient",
          "type": "address"
        }
      ],
      "name": "LiquidityRemoved",
      "type": "event"
    },
    {
      "anonymous": false,
      "inputs": [
        {
          "indexed": true,
          "internalType": "address",
          "name": "proposedOwner",
          "type": "address"
        }
      ],
      "name": "OwnershipProposed",
      "type": "event"
    },
    {
      "anonymous": false,
      "inputs": [
        {
          "indexed": true,
          "internalType": "address",
          "name": "previousOwner",
          "type": "address"
        },
        {
          "indexed": true,
          "internalType": "address",
          "name": "newOwner",
          "type": "address"
        }
      ],
      "name": "OwnershipTransferred",
      "type": "event"
    },
    {
      "anonymous": false,
      "inputs": [
        {
          "indexed": true,
          "internalType": "address",
          "name": "addedRouter",
          "type": "address"
        },
        {
          "indexed": true,
          "internalType": "address",
          "name": "caller",
          "type": "address"
        }
      ],
      "name": "RouterAdded",
      "type": "event"
    },
    {
      "anonymous": false,
      "inputs": [
        {
          "indexed": false,
          "internalType": "bool",
          "name": "renounced",
          "type": "bool"
        }
      ],
      "name": "RouterOwnershipRenounced",
      "type": "event"
    },
    {
      "anonymous": false,
      "inputs": [
        {
          "indexed": false,
          "internalType": "uint256",
          "name": "timestamp",
          "type": "uint256"
        }
      ],
      "name": "RouterOwnershipRenunciationProposed",
      "type": "event"
    },
    {
      "anonymous": false,
      "inputs": [
        {
          "indexed": true,
          "internalType": "address",
          "name": "removedRouter",
          "type": "address"
        },
        {
          "indexed": true,
          "internalType": "address",
          "name": "caller",
          "type": "address"
        }
      ],
      "name": "RouterRemoved",
      "type": "event"
    },
    {
      "anonymous": false,
      "inputs": [
        {
          "indexed": true,
          "internalType": "address",
          "name": "user",
          "type": "address"
        },
        {
          "indexed": true,
          "internalType": "address",
          "name": "router",
          "type": "address"
        },
        {
          "indexed": true,
          "internalType": "bytes32",
          "name": "transactionId",
          "type": "bytes32"
        },
        {
          "components": [
            {
              "components": [
                {
                  "internalType": "address",
                  "name": "receivingChainTxManagerAddress",
                  "type": "address"
                },
                {
                  "internalType": "address",
                  "name": "user",
                  "type": "address"
                },
                {
                  "internalType": "address",
                  "name": "router",
                  "type": "address"
                },
                {
                  "internalType": "address",
                  "name": "initiator",
                  "type": "address"
                },
                {
                  "internalType": "address",
                  "name": "sendingAssetId",
                  "type": "address"
                },
                {
                  "internalType": "address",
                  "name": "receivingAssetId",
                  "type": "address"
                },
                {
                  "internalType": "address",
                  "name": "sendingChainFallback",
                  "type": "address"
                },
                {
                  "internalType": "address",
                  "name": "receivingAddress",
                  "type": "address"
                },
                {
                  "internalType": "address",
                  "name": "callTo",
                  "type": "address"
                },
                {
                  "internalType": "bytes32",
                  "name": "callDataHash",
                  "type": "bytes32"
                },
                {
                  "internalType": "bytes32",
                  "name": "transactionId",
                  "type": "bytes32"
                },
                {
                  "internalType": "uint256",
                  "name": "sendingChainId",
                  "type": "uint256"
                },
                {
                  "internalType": "uint256",
                  "name": "receivingChainId",
                  "type": "uint256"
                },
                {
                  "internalType": "uint256",
                  "name": "amount",
                  "type": "uint256"
                },
                {
                  "internalType": "uint256",
                  "name": "expiry",
                  "type": "uint256"
                },
                {
                  "internalType": "uint256",
                  "name": "preparedBlockNumber",
                  "type": "uint256"
                }
              ],
              "internalType": "struct ITransactionManager.TransactionData",
              "name": "txData",
              "type": "tuple"
            },
            {
              "internalType": "bytes",
              "name": "signature",
              "type": "bytes"
            },
            {
              "internalType": "bytes",
              "name": "encodedMeta",
              "type": "bytes"
            }
          ],
          "indexed": false,
          "internalType": "struct ITransactionManager.CancelArgs",
          "name": "args",
          "type": "tuple"
        },
        {
          "indexed": false,
          "internalType": "address",
          "name": "caller",
          "type": "address"
        }
      ],
      "name": "TransactionCancelled",
      "type": "event"
    },
    {
      "anonymous": false,
      "inputs": [
        {
          "indexed": true,
          "internalType": "address",
          "name": "user",
          "type": "address"
        },
        {
          "indexed": true,
          "internalType": "address",
          "name": "router",
          "type": "address"
        },
        {
          "indexed": true,
          "internalType": "bytes32",
          "name": "transactionId",
          "type": "bytes32"
        },
        {
          "components": [
            {
              "components": [
                {
                  "internalType": "address",
                  "name": "receivingChainTxManagerAddress",
                  "type": "address"
                },
                {
                  "internalType": "address",
                  "name": "user",
                  "type": "address"
                },
                {
                  "internalType": "address",
                  "name": "router",
                  "type": "address"
                },
                {
                  "internalType": "address",
                  "name": "initiator",
                  "type": "address"
                },
                {
                  "internalType": "address",
                  "name": "sendingAssetId",
                  "type": "address"
                },
                {
                  "internalType": "address",
                  "name": "receivingAssetId",
                  "type": "address"
                },
                {
                  "internalType": "address",
                  "name": "sendingChainFallback",
                  "type": "address"
                },
                {
                  "internalType": "address",
                  "name": "receivingAddress",
                  "type": "address"
                },
                {
                  "internalType": "address",
                  "name": "callTo",
                  "type": "address"
                },
                {
                  "internalType": "bytes32",
                  "name": "callDataHash",
                  "type": "bytes32"
                },
                {
                  "internalType": "bytes32",
                  "name": "transactionId",
                  "type": "bytes32"
                },
                {
                  "internalType": "uint256",
                  "name": "sendingChainId",
                  "type": "uint256"
                },
                {
                  "internalType": "uint256",
                  "name": "receivingChainId",
                  "type": "uint256"
                },
                {
                  "internalType": "uint256",
                  "name": "amount",
                  "type": "uint256"
                },
                {
                  "internalType": "uint256",
                  "name": "expiry",
                  "type": "uint256"
                },
                {
                  "internalType": "uint256",
                  "name": "preparedBlockNumber",
                  "type": "uint256"
                }
              ],
              "internalType": "struct ITransactionManager.TransactionData",
              "name": "txData",
              "type": "tuple"
            },
            {
              "internalType": "uint256",
              "name": "relayerFee",
              "type": "uint256"
            },
            {
              "internalType": "bytes",
              "name": "signature",
              "type": "bytes"
            },
            {
              "internalType": "bytes",
              "name": "callData",
              "type": "bytes"
            },
            {
              "internalType": "bytes",
              "name": "encodedMeta",
              "type": "bytes"
            }
          ],
          "indexed": false,
          "internalType": "struct ITransactionManager.FulfillArgs",
          "name": "args",
          "type": "tuple"
        },
        {
          "indexed": false,
          "internalType": "bool",
          "name": "success",
          "type": "bool"
        },
        {
          "indexed": false,
          "internalType": "bool",
          "name": "isContract",
          "type": "bool"
        },
        {
          "indexed": false,
          "internalType": "bytes",
          "name": "returnData",
          "type": "bytes"
        },
        {
          "indexed": false,
          "internalType": "address",
          "name": "caller",
          "type": "address"
        }
      ],
      "name": "TransactionFulfilled",
      "type": "event"
    },
    {
      "anonymous": false,
      "inputs": [
        {
          "indexed": true,
          "internalType": "address",
          "name": "user",
          "type": "address"
        },
        {
          "indexed": true,
          "internalType": "address",
          "name": "router",
          "type": "address"
        },
        {
          "indexed": true,
          "internalType": "bytes32",
          "name": "transactionId",
          "type": "bytes32"
        },
        {
          "components": [
            {
              "internalType": "address",
              "name": "receivingChainTxManagerAddress",
              "type": "address"
            },
            {
              "internalType": "address",
              "name": "user",
              "type": "address"
            },
            {
              "internalType": "address",
              "name": "router",
              "type": "address"
            },
            {
              "internalType": "address",
              "name": "initiator",
              "type": "address"
            },
            {
              "internalType": "address",
              "name": "sendingAssetId",
              "type": "address"
            },
            {
              "internalType": "address",
              "name": "receivingAssetId",
              "type": "address"
            },
            {
              "internalType": "address",
              "name": "sendingChainFallback",
              "type": "address"
            },
            {
              "internalType": "address",
              "name": "receivingAddress",
              "type": "address"
            },
            {
              "internalType": "address",
              "name": "callTo",
              "type": "address"
            },
            {
              "internalType": "bytes32",
              "name": "callDataHash",
              "type": "bytes32"
            },
            {
              "internalType": "bytes32",
              "name": "transactionId",
              "type": "bytes32"
            },
            {
              "internalType": "uint256",
              "name": "sendingChainId",
              "type": "uint256"
            },
            {
              "internalType": "uint256",
              "name": "receivingChainId",
              "type": "uint256"
            },
            {
              "internalType": "uint256",
              "name": "amount",
              "type": "uint256"
            },
            {
              "internalType": "uint256",
              "name": "expiry",
              "type": "uint256"
            },
            {
              "internalType": "uint256",
              "name": "preparedBlockNumber",
              "type": "uint256"
            }
          ],
          "indexed": false,
          "internalType": "struct ITransactionManager.TransactionData",
          "name": "txData",
          "type": "tuple"
        },
        {
          "indexed": false,
          "internalType": "address",
          "name": "caller",
          "type": "address"
        },
        {
          "components": [
            {
              "components": [
                {
                  "internalType": "address",
                  "name": "receivingChainTxManagerAddress",
                  "type": "address"
                },
                {
                  "internalType": "address",
                  "name": "user",
                  "type": "address"
                },
                {
                  "internalType": "address",
                  "name": "router",
                  "type": "address"
                },
                {
                  "internalType": "address",
                  "name": "initiator",
                  "type": "address"
                },
                {
                  "internalType": "address",
                  "name": "sendingAssetId",
                  "type": "address"
                },
                {
                  "internalType": "address",
                  "name": "receivingAssetId",
                  "type": "address"
                },
                {
                  "internalType": "address",
                  "name": "sendingChainFallback",
                  "type": "address"
                },
                {
                  "internalType": "address",
                  "name": "receivingAddress",
                  "type": "address"
                },
                {
                  "internalType": "address",
                  "name": "callTo",
                  "type": "address"
                },
                {
                  "internalType": "uint256",
                  "name": "sendingChainId",
                  "type": "uint256"
                },
                {
                  "internalType": "uint256",
                  "name": "receivingChainId",
                  "type": "uint256"
                },
                {
                  "internalType": "bytes32",
                  "name": "callDataHash",
                  "type": "bytes32"
                },
                {
                  "internalType": "bytes32",
                  "name": "transactionId",
                  "type": "bytes32"
                }
              ],
              "internalType": "struct ITransactionManager.InvariantTransactionData",
              "name": "invariantData",
              "type": "tuple"
            },
            {
              "internalType": "uint256",
              "name": "amount",
              "type": "uint256"
            },
            {
              "internalType": "uint256",
              "name": "expiry",
              "type": "uint256"
            },
            {
              "internalType": "bytes",
              "name": "encryptedCallData",
              "type": "bytes"
            },
            {
              "internalType": "bytes",
              "name": "encodedBid",
              "type": "bytes"
            },
            {
              "internalType": "bytes",
              "name": "bidSignature",
              "type": "bytes"
            },
            {
              "internalType": "bytes",
              "name": "encodedMeta",
              "type": "bytes"
            }
          ],
          "indexed": false,
          "internalType": "struct ITransactionManager.PrepareArgs",
          "name": "args",
          "type": "tuple"
        }
      ],
      "name": "TransactionPrepared",
      "type": "event"
    },
    {
      "inputs": [],
      "name": "MAX_TIMEOUT",
      "outputs": [
        {
          "internalType": "uint256",
          "name": "",
          "type": "uint256"
        }
      ],
      "stateMutability": "view",
      "type": "function"
    },
    {
      "inputs": [],
      "name": "MIN_TIMEOUT",
      "outputs": [
        {
          "internalType": "uint256",
          "name": "",
          "type": "uint256"
        }
      ],
      "stateMutability": "view",
      "type": "function"
    },
    {
      "inputs": [],
      "name": "acceptProposedOwner",
      "outputs": [],
      "stateMutability": "nonpayable",
      "type": "function"
    },
    {
      "inputs": [
        {
          "internalType": "address",
          "name": "assetId",
          "type": "address"
        }
      ],
      "name": "addAssetId",
      "outputs": [],
      "stateMutability": "nonpayable",
      "type": "function"
    },
    {
      "inputs": [
        {
          "internalType": "uint256",
          "name": "amount",
          "type": "uint256"
        },
        {
          "internalType": "address",
          "name": "assetId",
          "type": "address"
        }
      ],
      "name": "addLiquidity",
      "outputs": [],
      "stateMutability": "payable",
      "type": "function"
    },
    {
      "inputs": [
        {
          "internalType": "uint256",
          "name": "amount",
          "type": "uint256"
        },
        {
          "internalType": "address",
          "name": "assetId",
          "type": "address"
        },
        {
          "internalType": "address",
          "name": "router",
          "type": "address"
        }
      ],
      "name": "addLiquidityFor",
      "outputs": [],
      "stateMutability": "payable",
      "type": "function"
    },
    {
      "inputs": [
        {
          "internalType": "address",
          "name": "router",
          "type": "address"
        }
      ],
      "name": "addRouter",
      "outputs": [],
      "stateMutability": "nonpayable",
      "type": "function"
    },
    {
      "inputs": [
        {
          "internalType": "address",
          "name": "",
          "type": "address"
        }
      ],
      "name": "approvedAssets",
      "outputs": [
        {
          "internalType": "bool",
          "name": "",
          "type": "bool"
        }
      ],
      "stateMutability": "view",
      "type": "function"
    },
    {
      "inputs": [
        {
          "internalType": "address",
          "name": "",
          "type": "address"
        }
      ],
      "name": "approvedRouters",
      "outputs": [
        {
          "internalType": "bool",
          "name": "",
          "type": "bool"
        }
      ],
      "stateMutability": "view",
      "type": "function"
    },
    {
      "inputs": [],
      "name": "assetOwnershipTimestamp",
      "outputs": [
        {
          "internalType": "uint256",
          "name": "",
          "type": "uint256"
        }
      ],
      "stateMutability": "view",
      "type": "function"
    },
    {
      "inputs": [
        {
          "components": [
            {
              "components": [
                {
                  "internalType": "address",
                  "name": "receivingChainTxManagerAddress",
                  "type": "address"
                },
                {
                  "internalType": "address",
                  "name": "user",
                  "type": "address"
                },
                {
                  "internalType": "address",
                  "name": "router",
                  "type": "address"
                },
                {
                  "internalType": "address",
                  "name": "initiator",
                  "type": "address"
                },
                {
                  "internalType": "address",
                  "name": "sendingAssetId",
                  "type": "address"
                },
                {
                  "internalType": "address",
                  "name": "receivingAssetId",
                  "type": "address"
                },
                {
                  "internalType": "address",
                  "name": "sendingChainFallback",
                  "type": "address"
                },
                {
                  "internalType": "address",
                  "name": "receivingAddress",
                  "type": "address"
                },
                {
                  "internalType": "address",
                  "name": "callTo",
                  "type": "address"
                },
                {
                  "internalType": "bytes32",
                  "name": "callDataHash",
                  "type": "bytes32"
                },
                {
                  "internalType": "bytes32",
                  "name": "transactionId",
                  "type": "bytes32"
                },
                {
                  "internalType": "uint256",
                  "name": "sendingChainId",
                  "type": "uint256"
                },
                {
                  "internalType": "uint256",
                  "name": "receivingChainId",
                  "type": "uint256"
                },
                {
                  "internalType": "uint256",
                  "name": "amount",
                  "type": "uint256"
                },
                {
                  "internalType": "uint256",
                  "name": "expiry",
                  "type": "uint256"
                },
                {
                  "internalType": "uint256",
                  "name": "preparedBlockNumber",
                  "type": "uint256"
                }
              ],
              "internalType": "struct ITransactionManager.TransactionData",
              "name": "txData",
              "type": "tuple"
            },
            {
              "internalType": "bytes",
              "name": "signature",
              "type": "bytes"
            },
            {
              "internalType": "bytes",
              "name": "encodedMeta",
              "type": "bytes"
            }
          ],
          "internalType": "struct ITransactionManager.CancelArgs",
          "name": "args",
          "type": "tuple"
        }
      ],
      "name": "cancel",
      "outputs": [
        {
          "components": [
            {
              "internalType": "address",
              "name": "receivingChainTxManagerAddress",
              "type": "address"
            },
            {
              "internalType": "address",
              "name": "user",
              "type": "address"
            },
            {
              "internalType": "address",
              "name": "router",
              "type": "address"
            },
            {
              "internalType": "address",
              "name": "initiator",
              "type": "address"
            },
            {
              "internalType": "address",
              "name": "sendingAssetId",
              "type": "address"
            },
            {
              "internalType": "address",
              "name": "receivingAssetId",
              "type": "address"
            },
            {
              "internalType": "address",
              "name": "sendingChainFallback",
              "type": "address"
            },
            {
              "internalType": "address",
              "name": "receivingAddress",
              "type": "address"
            },
            {
              "internalType": "address",
              "name": "callTo",
              "type": "address"
            },
            {
              "internalType": "bytes32",
              "name": "callDataHash",
              "type": "bytes32"
            },
            {
              "internalType": "bytes32",
              "name": "transactionId",
              "type": "bytes32"
            },
            {
              "internalType": "uint256",
              "name": "sendingChainId",
              "type": "uint256"
            },
            {
              "internalType": "uint256",
              "name": "receivingChainId",
              "type": "uint256"
            },
            {
              "internalType": "uint256",
              "name": "amount",
              "type": "uint256"
            },
            {
              "internalType": "uint256",
              "name": "expiry",
              "type": "uint256"
            },
            {
              "internalType": "uint256",
              "name": "preparedBlockNumber",
              "type": "uint256"
            }
          ],
          "internalType": "struct ITransactionManager.TransactionData",
          "name": "",
          "type": "tuple"
        }
      ],
      "stateMutability": "nonpayable",
      "type": "function"
    },
    {
      "inputs": [],
      "name": "delay",
      "outputs": [
        {
          "internalType": "uint256",
          "name": "",
          "type": "uint256"
        }
      ],
      "stateMutability": "view",
      "type": "function"
    },
    {
      "inputs": [
        {
          "components": [
            {
              "components": [
                {
                  "internalType": "address",
                  "name": "receivingChainTxManagerAddress",
                  "type": "address"
                },
                {
                  "internalType": "address",
                  "name": "user",
                  "type": "address"
                },
                {
                  "internalType": "address",
                  "name": "router",
                  "type": "address"
                },
                {
                  "internalType": "address",
                  "name": "initiator",
                  "type": "address"
                },
                {
                  "internalType": "address",
                  "name": "sendingAssetId",
                  "type": "address"
                },
                {
                  "internalType": "address",
                  "name": "receivingAssetId",
                  "type": "address"
                },
                {
                  "internalType": "address",
                  "name": "sendingChainFallback",
                  "type": "address"
                },
                {
                  "internalType": "address",
                  "name": "receivingAddress",
                  "type": "address"
                },
                {
                  "internalType": "address",
                  "name": "callTo",
                  "type": "address"
                },
                {
                  "internalType": "bytes32",
                  "name": "callDataHash",
                  "type": "bytes32"
                },
                {
                  "internalType": "bytes32",
                  "name": "transactionId",
                  "type": "bytes32"
                },
                {
                  "internalType": "uint256",
                  "name": "sendingChainId",
                  "type": "uint256"
                },
                {
                  "internalType": "uint256",
                  "name": "receivingChainId",
                  "type": "uint256"
                },
                {
                  "internalType": "uint256",
                  "name": "amount",
                  "type": "uint256"
                },
                {
                  "internalType": "uint256",
                  "name": "expiry",
                  "type": "uint256"
                },
                {
                  "internalType": "uint256",
                  "name": "preparedBlockNumber",
                  "type": "uint256"
                }
              ],
              "internalType": "struct ITransactionManager.TransactionData",
              "name": "txData",
              "type": "tuple"
            },
            {
              "internalType": "uint256",
              "name": "relayerFee",
              "type": "uint256"
            },
            {
              "internalType": "bytes",
              "name": "signature",
              "type": "bytes"
            },
            {
              "internalType": "bytes",
              "name": "callData",
              "type": "bytes"
            },
            {
              "internalType": "bytes",
              "name": "encodedMeta",
              "type": "bytes"
            }
          ],
          "internalType": "struct ITransactionManager.FulfillArgs",
          "name": "args",
          "type": "tuple"
        }
      ],
      "name": "fulfill",
      "outputs": [
        {
          "components": [
            {
              "internalType": "address",
              "name": "receivingChainTxManagerAddress",
              "type": "address"
            },
            {
              "internalType": "address",
              "name": "user",
              "type": "address"
            },
            {
              "internalType": "address",
              "name": "router",
              "type": "address"
            },
            {
              "internalType": "address",
              "name": "initiator",
              "type": "address"
            },
            {
              "internalType": "address",
              "name": "sendingAssetId",
              "type": "address"
            },
            {
              "internalType": "address",
              "name": "receivingAssetId",
              "type": "address"
            },
            {
              "internalType": "address",
              "name": "sendingChainFallback",
              "type": "address"
            },
            {
              "internalType": "address",
              "name": "receivingAddress",
              "type": "address"
            },
            {
              "internalType": "address",
              "name": "callTo",
              "type": "address"
            },
            {
              "internalType": "bytes32",
              "name": "callDataHash",
              "type": "bytes32"
            },
            {
              "internalType": "bytes32",
              "name": "transactionId",
              "type": "bytes32"
            },
            {
              "internalType": "uint256",
              "name": "sendingChainId",
              "type": "uint256"
            },
            {
              "internalType": "uint256",
              "name": "receivingChainId",
              "type": "uint256"
            },
            {
              "internalType": "uint256",
              "name": "amount",
              "type": "uint256"
            },
            {
              "internalType": "uint256",
              "name": "expiry",
              "type": "uint256"
            },
            {
              "internalType": "uint256",
              "name": "preparedBlockNumber",
              "type": "uint256"
            }
          ],
          "internalType": "struct ITransactionManager.TransactionData",
          "name": "",
          "type": "tuple"
        }
      ],
      "stateMutability": "nonpayable",
      "type": "function"
    },
    {
      "inputs": [],
      "name": "getChainId",
      "outputs": [
        {
          "internalType": "uint256",
          "name": "_chainId",
          "type": "uint256"
        }
      ],
      "stateMutability": "view",
      "type": "function"
    },
    {
      "inputs": [],
      "name": "getStoredChainId",
      "outputs": [
        {
          "internalType": "uint256",
          "name": "",
          "type": "uint256"
        }
      ],
      "stateMutability": "view",
      "type": "function"
    },
    {
      "inputs": [],
      "name": "interpreter",
      "outputs": [
        {
          "internalType": "contract IFulfillInterpreter",
          "name": "",
          "type": "address"
        }
      ],
      "stateMutability": "view",
      "type": "function"
    },
    {
      "inputs": [],
      "name": "isAssetOwnershipRenounced",
      "outputs": [
        {
          "internalType": "bool",
          "name": "",
          "type": "bool"
        }
      ],
      "stateMutability": "view",
      "type": "function"
    },
    {
      "inputs": [],
      "name": "isRouterOwnershipRenounced",
      "outputs": [
        {
          "internalType": "bool",
          "name": "",
          "type": "bool"
        }
      ],
      "stateMutability": "view",
      "type": "function"
    },
    {
      "inputs": [],
      "name": "owner",
      "outputs": [
        {
          "internalType": "address",
          "name": "",
          "type": "address"
        }
      ],
      "stateMutability": "view",
      "type": "function"
    },
    {
      "inputs": [
        {
          "components": [
            {
              "components": [
                {
                  "internalType": "address",
                  "name": "receivingChainTxManagerAddress",
                  "type": "address"
                },
                {
                  "internalType": "address",
                  "name": "user",
                  "type": "address"
                },
                {
                  "internalType": "address",
                  "name": "router",
                  "type": "address"
                },
                {
                  "internalType": "address",
                  "name": "initiator",
                  "type": "address"
                },
                {
                  "internalType": "address",
                  "name": "sendingAssetId",
                  "type": "address"
                },
                {
                  "internalType": "address",
                  "name": "receivingAssetId",
                  "type": "address"
                },
                {
                  "internalType": "address",
                  "name": "sendingChainFallback",
                  "type": "address"
                },
                {
                  "internalType": "address",
                  "name": "receivingAddress",
                  "type": "address"
                },
                {
                  "internalType": "address",
                  "name": "callTo",
                  "type": "address"
                },
                {
                  "internalType": "uint256",
                  "name": "sendingChainId",
                  "type": "uint256"
                },
                {
                  "internalType": "uint256",
                  "name": "receivingChainId",
                  "type": "uint256"
                },
                {
                  "internalType": "bytes32",
                  "name": "callDataHash",
                  "type": "bytes32"
                },
                {
                  "internalType": "bytes32",
                  "name": "transactionId",
                  "type": "bytes32"
                }
              ],
              "internalType": "struct ITransactionManager.InvariantTransactionData",
              "name": "invariantData",
              "type": "tuple"
            },
            {
              "internalType": "uint256",
              "name": "amount",
              "type": "uint256"
            },
            {
              "internalType": "uint256",
              "name": "expiry",
              "type": "uint256"
            },
            {
              "internalType": "bytes",
              "name": "encryptedCallData",
              "type": "bytes"
            },
            {
              "internalType": "bytes",
              "name": "encodedBid",
              "type": "bytes"
            },
            {
              "internalType": "bytes",
              "name": "bidSignature",
              "type": "bytes"
            },
            {
              "internalType": "bytes",
              "name": "encodedMeta",
              "type": "bytes"
            }
          ],
          "internalType": "struct ITransactionManager.PrepareArgs",
          "name": "args",
          "type": "tuple"
        }
      ],
      "name": "prepare",
      "outputs": [
        {
          "components": [
            {
              "internalType": "address",
              "name": "receivingChainTxManagerAddress",
              "type": "address"
            },
            {
              "internalType": "address",
              "name": "user",
              "type": "address"
            },
            {
              "internalType": "address",
              "name": "router",
              "type": "address"
            },
            {
              "internalType": "address",
              "name": "initiator",
              "type": "address"
            },
            {
              "internalType": "address",
              "name": "sendingAssetId",
              "type": "address"
            },
            {
              "internalType": "address",
              "name": "receivingAssetId",
              "type": "address"
            },
            {
              "internalType": "address",
              "name": "sendingChainFallback",
              "type": "address"
            },
            {
              "internalType": "address",
              "name": "receivingAddress",
              "type": "address"
            },
            {
              "internalType": "address",
              "name": "callTo",
              "type": "address"
            },
            {
              "internalType": "bytes32",
              "name": "callDataHash",
              "type": "bytes32"
            },
            {
              "internalType": "bytes32",
              "name": "transactionId",
              "type": "bytes32"
            },
            {
              "internalType": "uint256",
              "name": "sendingChainId",
              "type": "uint256"
            },
            {
              "internalType": "uint256",
              "name": "receivingChainId",
              "type": "uint256"
            },
            {
              "internalType": "uint256",
              "name": "amount",
              "type": "uint256"
            },
            {
              "internalType": "uint256",
              "name": "expiry",
              "type": "uint256"
            },
            {
              "internalType": "uint256",
              "name": "preparedBlockNumber",
              "type": "uint256"
            }
          ],
          "internalType": "struct ITransactionManager.TransactionData",
          "name": "",
          "type": "tuple"
        }
      ],
      "stateMutability": "payable",
      "type": "function"
    },
    {
      "inputs": [],
      "name": "proposeAssetOwnershipRenunciation",
      "outputs": [],
      "stateMutability": "nonpayable",
      "type": "function"
    },
    {
      "inputs": [
        {
          "internalType": "address",
          "name": "newlyProposed",
          "type": "address"
        }
      ],
      "name": "proposeNewOwner",
      "outputs": [],
      "stateMutability": "nonpayable",
      "type": "function"
    },
    {
      "inputs": [],
      "name": "proposeRouterOwnershipRenunciation",
      "outputs": [],
      "stateMutability": "nonpayable",
      "type": "function"
    },
    {
      "inputs": [],
      "name": "proposed",
      "outputs": [
        {
          "internalType": "address",
          "name": "",
          "type": "address"
        }
      ],
      "stateMutability": "view",
      "type": "function"
    },
    {
      "inputs": [],
      "name": "proposedTimestamp",
      "outputs": [
        {
          "internalType": "uint256",
          "name": "",
          "type": "uint256"
        }
      ],
      "stateMutability": "view",
      "type": "function"
    },
    {
      "inputs": [
        {
          "internalType": "address",
          "name": "assetId",
          "type": "address"
        }
      ],
      "name": "removeAssetId",
      "outputs": [],
      "stateMutability": "nonpayable",
      "type": "function"
    },
    {
      "inputs": [
        {
          "internalType": "uint256",
          "name": "amount",
          "type": "uint256"
        },
        {
          "internalType": "address",
          "name": "assetId",
          "type": "address"
        },
        {
          "internalType": "address payable",
          "name": "recipient",
          "type": "address"
        }
      ],
      "name": "removeLiquidity",
      "outputs": [],
      "stateMutability": "nonpayable",
      "type": "function"
    },
    {
      "inputs": [
        {
          "internalType": "address",
          "name": "router",
          "type": "address"
        }
      ],
      "name": "removeRouter",
      "outputs": [],
      "stateMutability": "nonpayable",
      "type": "function"
    },
    {
      "inputs": [],
      "name": "renounceAssetOwnership",
      "outputs": [],
      "stateMutability": "nonpayable",
      "type": "function"
    },
    {
      "inputs": [],
      "name": "renounceOwnership",
      "outputs": [],
      "stateMutability": "nonpayable",
      "type": "function"
    },
    {
      "inputs": [],
      "name": "renounceRouterOwnership",
      "outputs": [],
      "stateMutability": "nonpayable",
      "type": "function"
    },
    {
      "inputs": [],
      "name": "renounced",
      "outputs": [
        {
          "internalType": "bool",
          "name": "",
          "type": "bool"
        }
      ],
      "stateMutability": "view",
      "type": "function"
    },
    {
      "inputs": [
        {
          "internalType": "address",
          "name": "",
          "type": "address"
        },
        {
          "internalType": "address",
          "name": "",
          "type": "address"
        }
      ],
      "name": "routerBalances",
      "outputs": [
        {
          "internalType": "uint256",
          "name": "",
          "type": "uint256"
        }
      ],
      "stateMutability": "view",
      "type": "function"
    },
    {
      "inputs": [],
      "name": "routerOwnershipTimestamp",
      "outputs": [
        {
          "internalType": "uint256",
          "name": "",
          "type": "uint256"
        }
      ],
      "stateMutability": "view",
      "type": "function"
    },
    {
      "inputs": [
        {
          "internalType": "bytes32",
          "name": "",
          "type": "bytes32"
        }
      ],
      "name": "variantTransactionData",
      "outputs": [
        {
          "internalType": "bytes32",
          "name": "",
          "type": "bytes32"
        }
      ],
      "stateMutability": "view",
      "type": "function"
    }
  ],
  "transactionHash": "0x3b67ea78ac49db7c56f5461ef4ad27ba07edfc2cec76691494e97b636fa537ff",
  "args": [
    "1285"
  ],
  "solcInputHash": "d6472a6c2bd70968f704817a186deda3",
  "bytecode": "0x60c06040523480156200001157600080fd5b5060405162004fd338038062004fd3833981016040819052620000349162000105565b600160005562000044336200009e565b608081905260405130906200005990620000f7565b6001600160a01b039091168152602001604051809103906000f08015801562000086573d6000803e3d6000fd5b5060601b6001600160601b03191660a052506200011e565b600180546001600160a01b038381166001600160a01b0319831681179093556000600381905560405191909216929183917f8be0079c531659141344cd1fd0a4f28419497f9722a3daafe3b4186f6b6457e09190a35050565b610bf080620043e383390190565b60006020828403121562000117578081fd5b5051919050565b60805160a05160601c6142876200015c600039600081816102ee015281816127710152612798015260008181610264015261078901526142876000f3fe6080604052600436106102045760003560e01c80638da5cb5b11610118578063c95f9d0e116100a0578063de38eb3a1161006f578063de38eb3a146105db578063e070da09146105f2578063e47602f714610605578063e8be0dfc1461061a578063f31abcc41461062f57600080fd5b8063c95f9d0e14610578578063d1851c921461058b578063d232c220146105a9578063d9459372146105c857600080fd5b8063b1f8100d116100e7578063b1f8100d146104f9578063be91a2ba14610519578063c0c17baf14610539578063c1a049591461054e578063c5b350df1461056357600080fd5b80638da5cb5b1461045e57806397eb00881461047c5780639b151a80146104ac578063b1d2618d146104d957600080fd5b806341258b5c1161019b5780636a41633a1161016a5780636a41633a146103e95780636a42b8f8146103fe5780636ae0b15414610414578063715018a6146104345780638741eac51461044957600080fd5b806341258b5c1461033d578063445b1e4b14610375578063543ad1df146103a55780635e679856146103bc57600080fd5b806334e9393c116101d757806334e9393c146102a75780633855b467146102c75780633a35cf17146102dc5780633cf52ffb1461032857600080fd5b80632004ef451461020957806324ca984e1461023357806332a130c9146102555780633408e47014610292575b600080fd5b34801561021557600080fd5b5061021e61064f565b60405190151581526020015b60405180910390f35b34801561023f57600080fd5b5061025361024e366004613486565b610671565b005b34801561026157600080fd5b507f00000000000000000000000000000000000000000000000000000000000000005b60405190815260200161022a565b34801561029e57600080fd5b50610284610785565b3480156102b357600080fd5b506102536102c2366004613486565b6107b5565b3480156102d357600080fd5b50610253610880565b3480156102e857600080fd5b506103107f000000000000000000000000000000000000000000000000000000000000000081565b6040516001600160a01b03909116815260200161022a565b34801561033457600080fd5b50600354610284565b34801561034957600080fd5b506102846103583660046134a2565b600860209081526000928352604080842090915290825290205481565b34801561038157600080fd5b5061021e610390366004613486565b60096020526000908152604090205460ff1681565b3480156103b157600080fd5b506102846201518081565b3480156103c857600080fd5b506102846103d73660046135a7565b600b6020526000908152604090205481565b3480156103f557600080fd5b50600754610284565b34801561040a57600080fd5b5062093a80610284565b34801561042057600080fd5b5061025361042f366004613486565b61097b565b34801561044057600080fd5b50610253610a87565b34801561045557600080fd5b50610253610b8e565b34801561046a57600080fd5b506001546001600160a01b0316610310565b34801561048857600080fd5b5061021e610497366004613486565b600a6020526000908152604090205460ff1681565b3480156104b857600080fd5b506104cc6104c73660046135f8565b610bff565b60405161022a9190613fbf565b3480156104e557600080fd5b506102536104f4366004613486565b61108e565b34801561050557600080fd5b50610253610514366004613486565b61115a565b34801561052557600080fd5b506104cc6105343660046135bf565b611234565b34801561054557600080fd5b50610253611597565b34801561055a57600080fd5b50600554610284565b34801561056f57600080fd5b50610253611690565b610253610586366004613786565b61176a565b34801561059757600080fd5b506002546001600160a01b0316610310565b3480156105b557600080fd5b506001546001600160a01b03161561021e565b6104cc6105d6366004613631565b6117a6565b3480156105e757600080fd5b5061028462278d0081565b6102536106003660046137aa565b612104565b34801561061157600080fd5b50610253612141565b34801561062657600080fd5b5061021e6121b2565b34801561063b57600080fd5b5061025361064a3660046137aa565b6121d2565b6001546000906001600160a01b0316158061066c575060045460ff165b905090565b6001546001600160a01b031633146106a45760405162461bcd60e51b815260040161069b90613c3e565b60405180910390fd5b6001600160a01b0381166106e45760405162461bcd60e51b81526020600482015260076024820152662341523a30303160c81b604482015260640161069b565b6001600160a01b03811660009081526009602052604090205460ff16156107375760405162461bcd60e51b815260206004820152600760248201526611a0a91d18199960c91b604482015260640161069b565b6001600160a01b038116600081815260096020526040808220805460ff19166001179055513392917fbc68405e644da2aaf25623ce2199da82c6dfd2e1de102b400eba6a091704d4f491a350565b60007f0000000000000000000000000000000000000000000000000000000000000000806107b05750465b919050565b6001546001600160a01b031633146107df5760405162461bcd60e51b815260040161069b90613c3e565b6001600160a01b0381166000908152600a602052604090205460ff16156108325760405162461bcd60e51b815260206004820152600760248201526611a0a09d18199960c91b604482015260640161069b565b6001600160a01b0381166000818152600a6020526040808220805460ff19166001179055513392917f0bb5715f0f217c2fe9a0c877ea87d474380c641102f3440ee2a4c8b9d979091891a350565b6001546001600160a01b031633146108aa5760405162461bcd60e51b815260040161069b90613c3e565b60065460ff16156108e85760405162461bcd60e51b8152602060048201526008602482015267046a4829e746066760c31b604482015260640161069b565b6000600754116109255760405162461bcd60e51b81526020600482015260086024820152672352414f3a30333760c01b604482015260640161069b565b62093a806007544261093791906141cd565b1161096f5760405162461bcd60e51b815260206004820152600860248201526702352414f3a3033360c41b604482015260640161069b565b6109796001612357565b565b6001546001600160a01b031633146109a55760405162461bcd60e51b815260040161069b90613c3e565b6001600160a01b0381166109e55760405162461bcd60e51b81526020600482015260076024820152662352523a30303160c81b604482015260640161069b565b6001600160a01b03811660009081526009602052604090205460ff161515600114610a3c5760405162461bcd60e51b81526020600482015260076024820152662352523a30333360c81b604482015260640161069b565b6001600160a01b038116600081815260096020526040808220805460ff19169055513392917fbee3e974bb6a6f44f20096ede047c191eef60322e65e4ee4bd3392230a8716d591a350565b6001546001600160a01b03163314610ab15760405162461bcd60e51b815260040161069b90613c3e565b600060035411610aed5760405162461bcd60e51b815260206004820152600760248201526623524f3a30333760c81b604482015260640161069b565b62093a8060035442610aff91906141cd565b11610b365760405162461bcd60e51b8152602060048201526007602482015266023524f3a3033360cc1b604482015260640161069b565b6002546001600160a01b031615610b795760405162461bcd60e51b815260206004820152600760248201526611a9279d18199b60c91b604482015260640161069b565b600254610979906001600160a01b03166123a4565b6001546001600160a01b03163314610bb85760405162461bcd60e51b815260040161069b90613c3e565b60065460ff1615610bf75760405162461bcd60e51b8152602060048201526009602482015268046a0829ea4746066760bb1b604482015260640161069b565b6109796123fd565b610c076133e7565b60026000541415610c2a5760405162461bcd60e51b815260040161069b90613c5f565b60026000908155610c3a83612439565b9050610c566101a08401356101c08501356101e08601356125b7565b6000828152600b602052604090205414610c9b5760405162461bcd60e51b815260206004820152600660248201526523463a30313960d01b604482015260640161069b565b426101c08401351015610cd95760405162461bcd60e51b8152602060048201526006602482015265023463a3032360d41b604482015260640161069b565b6101e0830135610d145760405162461bcd60e51b815260206004820152600660248201526523463a30323160d01b604482015260640161069b565b610120830135610d286102408501856140c9565b604051610d36929190613bb0565b604051809103902014610d745760405162461bcd60e51b815260206004820152600660248201526508d18e8c0c8d60d21b604482015260640161069b565b610d8a6101a08401356101c085013560006125b7565b6000918252600b602052604082205580606081610da5610785565b9050610160860135811415610f1a57610dc46060870160408801613486565b6001600160a01b0316336001600160a01b031614610e0d5760405162461bcd60e51b815260206004820152600660248201526511a31d18189b60d11b604482015260640161069b565b610e1d6040870160208801613486565b6001600160a01b0316610e5b6101408801356102008901356101808a0135610e4860208c018c613486565b610e566102208d018d6140c9565b612605565b6001600160a01b031614610e9a5760405162461bcd60e51b815260206004820152600660248201526511a31d18191960d11b604482015260640161069b565b6101a086013560086000610eb460608a0160408b01613486565b6001600160a01b031681526020810191909152604001600090812090610ee060a08a0160808b01613486565b6001600160a01b03166001600160a01b031681526020019081526020016000206000828254610f0f91906141b5565b90915550610ff99050565b610f2a6040870160208801613486565b6001600160a01b0316610f526101408801356102008901358430610e566102208d018d6140c9565b6001600160a01b031614610f915760405162461bcd60e51b815260206004820152600660248201526511a31d18191960d11b604482015260640161069b565b6101a08601356102008701351115610fd45760405162461bcd60e51b815260206004820152600660248201526523463a30323360d01b604482015260640161069b565b610ff186610200810135610fec6102408301836140c9565b612687565b919550935091505b61014086013561100f6060880160408901613486565b6001600160a01b03166110286040890160208a01613486565b6001600160a01b03167f8e5df24f8b9ac0e3455417a1d7060762388ce3c1d4941aa49dc1b61943031d328988888833604051611068959493929190613d10565b60405180910390a461107f3687900387018761366a565b60016000559695505050505050565b6001546001600160a01b031633146110b85760405162461bcd60e51b815260040161069b90613c3e565b6001600160a01b0381166000908152600a602052604090205460ff16151560011461110f5760405162461bcd60e51b81526020600482015260076024820152662352413a30333360c81b604482015260640161069b565b6001600160a01b0381166000818152600a6020526040808220805460ff19169055513392917f0fa1e4606af435f32f05b3804033d2933e691fab32ee74d2db6fa82d2741f1ea91a350565b6001546001600160a01b031633146111845760405162461bcd60e51b815260040161069b90613c3e565b6002546001600160a01b0382811691161415806111a857506001600160a01b038116155b6111df5760405162461bcd60e51b815260206004820152600860248201526711a827279d18199b60c11b604482015260640161069b565b6001546001600160a01b03828116911614156112285760405162461bcd60e51b8152602060048201526008602482015267046a09c9e746066760c31b604482015260640161069b565b6112318161289f565b50565b61123c6133e7565b6002600054141561125f5760405162461bcd60e51b815260040161069b90613c5f565b6002600090815561126f83612439565b905061128b6101a08401356101c08501356101e08601356125b7565b6000828152600b6020526040902054146112d05760405162461bcd60e51b815260206004820152600660248201526523433a30313960d01b604482015260640161069b565b6101e083013561130b5760405162461bcd60e51b815260206004820152600660248201526523433a30323160d01b604482015260640161069b565b6113216101a08401356101c085013560006125b7565b6000828152600b602052604081209190915561133b610785565b90506101608401358114156113e257426101c0850135106113af576113666060850160408601613486565b6001600160a01b0316336001600160a01b0316146113af5760405162461bcd60e51b815260206004820152600660248201526523433a30323560d01b604482015260640161069b565b6113dd6113c260a0860160808701613486565b6113d260e0870160c08801613486565b6101a08701356128ed565b61150a565b426101c08501351061148f576113fe6040850160208601613486565b6001600160a01b0316336001600160a01b0316148061145a57506114286040850160208601613486565b6001600160a01b031661144f610140860135833061144a6102008a018a6140c9565b612916565b6001600160a01b0316145b61148f5760405162461bcd60e51b815260206004820152600660248201526511a19d18191960d11b604482015260640161069b565b6101a0840135600860006114a96060880160408901613486565b6001600160a01b0316815260208101919091526040016000908120906114d560c0880160a08901613486565b6001600160a01b03166001600160a01b03168152602001908152602001600020600082825461150491906141b5565b90915550505b6101408401356115206060860160408701613486565b6001600160a01b03166115396040870160208801613486565b6001600160a01b03167f56a92405e111173b950d90846413f755ca35bb7631d49a4a564778b21affe2878733604051611573929190613c96565b60405180910390a461158a3685900385018561366a565b6001600055949350505050565b6001546001600160a01b031633146115c15760405162461bcd60e51b815260040161069b90613c3e565b60045460ff16156115ff5760405162461bcd60e51b8152602060048201526008602482015267046a4a49e746066760c31b604482015260640161069b565b60006005541161163c5760405162461bcd60e51b81526020600482015260086024820152672352524f3a30333760c01b604482015260640161069b565b62093a806005544261164e91906141cd565b116116865760405162461bcd60e51b815260206004820152600860248201526702352524f3a3033360c41b604482015260640161069b565b6109796001612982565b6002546001600160a01b031633146116d45760405162461bcd60e51b8152602060048201526007602482015266234f503a30333560c81b604482015260640161069b565b6002546001546001600160a01b03908116911614156117205760405162461bcd60e51b815260206004820152600860248201526704682a09e746066760c31b604482015260640161069b565b62093a806003544261173291906141cd565b11610b795760405162461bcd60e51b815260206004820152600860248201526702341504f3a3033360c41b604482015260640161069b565b6002600054141561178d5760405162461bcd60e51b815260040161069b90613c5f565b600260005561179d8282336129c8565b50506001600055565b6117ae6133e7565b600260005414156117d15760405162461bcd60e51b815260040161069b90613c5f565b600260009081556117e86040840160208501613486565b6001600160a01b031614156118285760405162461bcd60e51b815260206004820152600660248201526523503a30303960d01b604482015260640161069b565b600061183a6060840160408501613486565b6001600160a01b0316141561187a5760405162461bcd60e51b815260206004820152600660248201526523503a30303160d01b604482015260640161069b565b61188261064f565b806118ba57506009600061189c6060850160408601613486565b6001600160a01b0316815260208101919091526040016000205460ff165b6118ef5760405162461bcd60e51b815260206004820152600660248201526523503a30303360d01b604482015260640161069b565b600061190160e0840160c08501613486565b6001600160a01b031614156119415760405162461bcd60e51b8152602060048201526006602482015265023503a3031360d41b604482015260640161069b565b6000611954610100840160e08501613486565b6001600160a01b031614156119945760405162461bcd60e51b815260206004820152600660248201526511a81d18191b60d11b604482015260640161069b565b61012082013561014083013514156119d75760405162461bcd60e51b815260206004820152600660248201526523503a30313160d01b604482015260640161069b565b60006119e1610785565b90506101208301358114806119fa575061014083013581145b611a2f5760405162461bcd60e51b815260206004820152600660248201526511a81d18189960d11b604482015260640161069b565b6000611a40426101c08601356141cd565b905062015180811015611a7e5760405162461bcd60e51b815260206004820152600660248201526523503a30313360d01b604482015260640161069b565b62278d00811115611aba5760405162461bcd60e51b815260206004820152600660248201526508d40e8c0c4d60d21b604482015260640161069b565b50604051600090611acf908590602001613dee565b60408051601f1981840301815291815281516020928301206000818152600b90935291205490915015611b2d5760405162461bcd60e51b815260206004820152600660248201526523503a30313560d01b604482015260640161069b565b6101a0840135610120850135831415611c9057611b506080860160608701613486565b6001600160a01b0316336001600160a01b031614611b995760405162461bcd60e51b815260206004820152600660248201526523503a30333960d01b604482015260640161069b565b6000856101a0013511611bd75760405162461bcd60e51b815260206004820152600660248201526511a81d18181960d11b604482015260640161069b565b611bdf6121b2565b80611c175750600a6000611bf960a0880160808901613486565b6001600160a01b0316815260208101919091526040016000205460ff165b611c4c5760405162461bcd60e51b815260206004820152600660248201526508d40e8c0c0d60d21b604482015260640161069b565b611c6a611c5f60a0870160808801613486565b866101a00135612b9c565b9050611c7c81866101c00135436125b7565b6000838152600b6020526040902055611f29565b6000611ca461012087016101008801613486565b6001600160a01b03161480611ccf5750611ccf611cc961012087016101008801613486565b3b151590565b611d045760405162461bcd60e51b815260206004820152600660248201526523503a30333160d01b604482015260640161069b565b611d0c6121b2565b80611d445750600a6000611d2660c0880160a08901613486565b6001600160a01b0316815260208101919091526040016000205460ff165b611d795760405162461bcd60e51b815260206004820152600660248201526508d40e8c0c0d60d21b604482015260640161069b565b611d896060860160408701613486565b6001600160a01b0316336001600160a01b031614611dd25760405162461bcd60e51b815260206004820152600660248201526511a81d18189b60d11b604482015260640161069b565b3415611e095760405162461bcd60e51b815260206004820152600660248201526523503a30313760d01b604482015260640161069b565b6000600881611e1e6060890160408a01613486565b6001600160a01b031681526020810191909152604001600090812090611e4a60c0890160a08a01613486565b6001600160a01b03166001600160a01b0316815260200190815260200160002054905081811015611ea65760405162461bcd60e51b8152602060048201526006602482015265046a0746062760d31b604482015260640161069b565b611eb682876101c00135436125b7565b6000848152600b6020526040808220929092558383039160089190611ee19060608b01908b01613486565b6001600160a01b031681526020810191909152604001600090812090611f0d60c08a0160a08b01613486565b6001600160a01b03168152602081019190915260400160002055505b60408051610200810190915260009080611f466020890189613486565b6001600160a01b03168152602090810190611f679060408a01908a01613486565b6001600160a01b03168152602001611f856060890160408a01613486565b6001600160a01b03168152602001611fa36080890160608a01613486565b6001600160a01b03168152602001611fc160a0890160808a01613486565b6001600160a01b03168152602001611fdf60c0890160a08a01613486565b6001600160a01b03168152602001611ffd60e0890160c08a01613486565b6001600160a01b0316815260200161201c610100890160e08a01613486565b6001600160a01b0316815260200161203c61012089016101008a01613486565b6001600160a01b031681526020018760000161016001358152602001876000016101800135815260200187600001610120013581526020018760000161014001358152602001838152602001876101c00135815260200143815250905080610140015181604001516001600160a01b031682602001516001600160a01b03167f88fbf1dbc326c404155bad4643bd0ddadd23f0636929c66442f0433208b2c90584338b6040516120ee93929190613fce565b60405180910390a4600160005595945050505050565b600260005414156121275760405162461bcd60e51b815260040161069b90613c5f565b60026000556121378383836129c8565b5050600160005550565b6001546001600160a01b0316331461216b5760405162461bcd60e51b815260040161069b90613c3e565b60045460ff16156121aa5760405162461bcd60e51b8152602060048201526009602482015268046a0a49ea4746066760bb1b604482015260640161069b565b610979612c5d565b6001546000906001600160a01b0316158061066c57505060065460ff1690565b600260005414156121f55760405162461bcd60e51b815260040161069b90613c5f565b60026000556001600160a01b03811661223a5760405162461bcd60e51b815260206004820152600760248201526623524c3a30303760c81b604482015260640161069b565b600083116122745760405162461bcd60e51b815260206004820152600760248201526611a9261d18181960c91b604482015260640161069b565b3360009081526008602090815260408083206001600160a01b0386168452909152902054838110156122d25760405162461bcd60e51b8152602060048201526007602482015266046a498746060760cb1b604482015260640161069b565b3360009081526008602090815260408083206001600160a01b0387168452909152902084820390556123058383866128ed565b604080518581526001600160a01b03848116602083015285169133917f7da12116be8cb7af4b2d9e9b4a2ca2c3a3243ddd6fd3a94411902367b8eed568910160405180910390a3505060016000555050565b6006805460ff191682151590811790915560006007556040519081527f868d89ead22a5d10f456845ac0014901d9af7203e71cf0892d70d9dc262c2fb9906020015b60405180910390a150565b600180546001600160a01b038381166001600160a01b0319831681179093556000600381905560405191909216929183917f8be0079c531659141344cd1fd0a4f28419497f9722a3daafe3b4186f6b6457e09190a35050565b4260078190556040519081527fa78fdca214e4619ef34a695316d423f5b0d8274bc919d29733bf8f92ec8cbb7a906020015b60405180910390a1565b604080516101a081019091526000908190806124586020860186613486565b6001600160a01b031681526020018460200160208101906124799190613486565b6001600160a01b031681526020016124976060860160408701613486565b6001600160a01b031681526020016124b56080860160608701613486565b6001600160a01b031681526020016124d360a0860160808701613486565b6001600160a01b031681526020016124f160c0860160a08701613486565b6001600160a01b0316815260200161250f60e0860160c08701613486565b6001600160a01b0316815260200161252e610100860160e08701613486565b6001600160a01b0316815260200161254e61012086016101008701613486565b6001600160a01b031681526020018461016001358152602001846101800135815260200184610120013581526020018461014001358152509050806040516020016125999190613dfd565b60405160208183030381529060405280519060200120915050919050565b604080516060808201835285825260208083018681529284018581528451808301899052935184860152518383015283518084039092018252608090920190925281519101205b9392505050565b6040805160a0810182528781526020808201889052825180840184526007815266199d5b199a5b1b60ca1b8183015282840152606082018790526001600160a01b038616608083015291516000926126799161266391849101613f64565b6040516020818303038152906040528585612c93565b9150505b9695505050505050565b60008060606101a087013586900386156126b5576126b56126ae60c08a0160a08b01613486565b33896128ed565b60006126c96101208a016101008b01613486565b6001600160a01b03161415612725578015612708576127086126f160c08a0160a08b01613486565b6127026101008b0160e08c01613486565b836128ed565b505060408051600080825260208201909252909250829150612895565b600061274761273a60c08b0160a08c01613486565b6001600160a01b03161590565b9050801580156127575750600082115b156127965761279661276f60c08b0160a08c01613486565b7f000000000000000000000000000000000000000000000000000000000000000084612d3a565b7f00000000000000000000000000000000000000000000000000000000000000006001600160a01b031663cf9a3604826127d15760006127d3565b835b6101408c01356127eb6101208e016101008f01613486565b8d60a00160208101906127fe9190613486565b8e60e00160208101906128119190613486565b888e8e6040518963ffffffff1660e01b81526004016128369796959493929190613bdc565b6000604051808303818588803b15801561284f57600080fd5b505af1158015612863573d6000803e3d6000fd5b50505050506040513d6000823e601f3d908101601f1916820160405261288c91908101906134f4565b94509450945050505b9450945094915050565b42600355600280546001600160a01b0319166001600160a01b0383169081179091556040517f6ab4d119f23076e8ad491bc65ce85f017fb0591dce08755ba8591059cc51737a90600090a250565b6001600160a01b0383161561290c57612907838383612d3a565b505050565b6129078282612d45565b60008060405180608001604052808881526020016040518060400160405280600681526020016518d85b98d95b60d21b8152508152602001878152602001866001600160a01b03168152509050612977816040516020016126639190613f13565b979650505050505050565b6004805460ff191682151590811790915560006005556040519081527f243ebbb2f905234bbf0556bb38e1f7c23b09ffd2e441a16e58b844eb2ab7a39790602001612399565b6001600160a01b038116612a085760405162461bcd60e51b815260206004820152600760248201526623414c3a30303160c81b604482015260640161069b565b60008311612a425760405162461bcd60e51b815260206004820152600760248201526611a0a61d18181960c91b604482015260640161069b565b612a4a61064f565b80612a6d57506001600160a01b03811660009081526009602052604090205460ff165b612aa35760405162461bcd60e51b815260206004820152600760248201526623414c3a30303360c81b604482015260640161069b565b612aab6121b2565b80612ace57506001600160a01b0382166000908152600a602052604090205460ff165b612b045760405162461bcd60e51b815260206004820152600760248201526608d0530e8c0c0d60ca1b604482015260640161069b565b612b0e8284612b9c565b6001600160a01b038083166000908152600860209081526040808320938716835292905290812080549295508592909190612b4a9084906141b5565b9091555050604080518481523360208201526001600160a01b0380851692908416917f4bd28ccd068c4853d24d35f727ef2a3fea11ce55e8d93461e45f785818e1e139910160405180910390a3505050565b6000816001600160a01b038416612beb57823414612be65760405162461bcd60e51b81526020600482015260076024820152662354413a30303560c81b604482015260640161069b565b612c54565b6000612bf685612d53565b90503415612c305760405162461bcd60e51b815260206004820152600760248201526611aa209d18181b60c91b604482015260640161069b565b612c3c85333087612de7565b80612c4686612d53565b612c5091906141cd565b9150505b90505b92915050565b4260058190556040519081527fa52048c5f468d21a62e4644ac4db19bcaa1a20f0cf37d163ba49c7217d35feb89060200161242f565b6000612d32612cf685805190602001206040517f19457468657265756d205369676e6564204d6573736167653a0a3332000000006020820152603c8101829052600090605c01604051602081830303815290604052805190602001209050919050565b84848080601f016020809104026020016040519081016040528093929190818152602001838380828437600092019190915250612df992505050565b949350505050565b612907838383612e9d565b612d4f8282612f00565b5050565b60006001600160a01b03821615612de0576040516370a0823160e01b81523060048201526001600160a01b038316906370a082319060240160206040518083038186803b158015612da357600080fd5b505afa158015612db7573d6000803e3d6000fd5b505050506040513d601f19601f82011682018060405250810190612ddb919061376e565b612c57565b4792915050565b612df384848484613019565b50505050565b6000815160411415612e2d5760208201516040830151606084015160001a612e2386828585613051565b9350505050612c57565b815160401415612e555760208201516040830151612e4c8583836131fa565b92505050612c57565b60405162461bcd60e51b815260206004820152601f60248201527f45434453413a20696e76616c6964207369676e6174757265206c656e67746800604482015260640161069b565b6040516001600160a01b03831660248201526044810182905261290790849063a9059cbb60e01b906064015b60408051601f198184030181529190526020810180516001600160e01b03166001600160e01b03199093169290921790915261321a565b80471015612f505760405162461bcd60e51b815260206004820152601d60248201527f416464726573733a20696e73756666696369656e742062616c616e6365000000604482015260640161069b565b6000826001600160a01b03168260405160006040518083038185875af1925050503d8060008114612f9d576040519150601f19603f3d011682016040523d82523d6000602084013e612fa2565b606091505b50509050806129075760405162461bcd60e51b815260206004820152603a60248201527f416464726573733a20756e61626c6520746f2073656e642076616c75652c207260448201527f6563697069656e74206d61792068617665207265766572746564000000000000606482015260840161069b565b6040516001600160a01b0380851660248301528316604482015260648101829052612df39085906323b872dd60e01b90608401612ec9565b60007f7fffffffffffffffffffffffffffffff5d576e7357a4501ddfe92f46681b20a08211156130ce5760405162461bcd60e51b815260206004820152602260248201527f45434453413a20696e76616c6964207369676e6174757265202773272076616c604482015261756560f01b606482015260840161069b565b8360ff16601b14806130e357508360ff16601c145b61313a5760405162461bcd60e51b815260206004820152602260248201527f45434453413a20696e76616c6964207369676e6174757265202776272076616c604482015261756560f01b606482015260840161069b565b6040805160008082526020820180845288905260ff871692820192909252606081018590526080810184905260019060a0016020604051602081039080840390855afa15801561318e573d6000803e3d6000fd5b5050604051601f1901519150506001600160a01b0381166131f15760405162461bcd60e51b815260206004820152601860248201527f45434453413a20696e76616c6964207369676e61747572650000000000000000604482015260640161069b565b95945050505050565b60006001600160ff1b03821660ff83901c601b0161267d86828785613051565b600061326f826040518060400160405280602081526020017f5361666545524332303a206c6f772d6c6576656c2063616c6c206661696c6564815250856001600160a01b03166132ec9092919063ffffffff16565b805190915015612907578080602001905181019061328d91906134da565b6129075760405162461bcd60e51b815260206004820152602a60248201527f5361666545524332303a204552433230206f7065726174696f6e20646964206e6044820152691bdd081cdd58d8d9595960b21b606482015260840161069b565b6060612d32848460008585843b6133455760405162461bcd60e51b815260206004820152601d60248201527f416464726573733a2063616c6c20746f206e6f6e2d636f6e7472616374000000604482015260640161069b565b600080866001600160a01b031685876040516133619190613bc0565b60006040518083038185875af1925050503d806000811461339e576040519150601f19603f3d011682016040523d82523d6000602084013e6133a3565b606091505b5091509150612977828286606083156133bd5750816125fe565b8251156133cd5782518084602001fd5b8160405162461bcd60e51b815260040161069b9190613c2b565b6040805161020081018252600080825260208201819052918101829052606081018290526080810182905260a0810182905260c0810182905260e08101829052610100810182905261012081018290526101408101829052610160810182905261018081018290526101a081018290526101c081018290526101e081019190915290565b80356107b08161423c565b805180151581146107b057600080fd5b600060208284031215613497578081fd5b8135612c548161423c565b600080604083850312156134b4578081fd5b82356134bf8161423c565b915060208301356134cf8161423c565b809150509250929050565b6000602082840312156134eb578081fd5b6125fe82613476565b600080600060608486031215613508578081fd5b61351184613476565b925061351f60208501613476565b9150604084015167ffffffffffffffff8082111561353b578283fd5b818601915086601f83011261354e578283fd5b81518181111561356057613560614226565b613573601f8201601f191660200161413f565b9150808252876020828501011115613589578384fd5b61359a8160208401602086016141e4565b5080925050509250925092565b6000602082840312156135b8578081fd5b5035919050565b6000602082840312156135d0578081fd5b813567ffffffffffffffff8111156135e6578182fd5b82016102408185031215612c54578182fd5b600060208284031215613609578081fd5b813567ffffffffffffffff81111561361f578182fd5b82016102808185031215612c54578182fd5b600060208284031215613642578081fd5b813567ffffffffffffffff811115613658578182fd5b82016102608185031215612c54578182fd5b6000610200828403121561367c578081fd5b613684614115565b61368d8361346b565b815261369b6020840161346b565b60208201526136ac6040840161346b565b60408201526136bd6060840161346b565b60608201526136ce6080840161346b565b60808201526136df60a0840161346b565b60a08201526136f060c0840161346b565b60c082015261370160e0840161346b565b60e082015261010061371481850161346b565b9082015261012083810135908201526101408084013590820152610160808401359082015261018080840135908201526101a080840135908201526101c080840135908201526101e0928301359281019290925250919050565b60006020828403121561377f578081fd5b5051919050565b60008060408385031215613798578182fd5b8235915060208301356134cf8161423c565b6000806000606084860312156137be578081fd5b8335925060208401356137d08161423c565b915060408401356137e08161423c565b809150509250925092565b81835281816020850137506000828201602090810191909152601f909101601f19169091010190565b6000815180845261382c8160208601602086016141e4565b601f01601f19169290920160200192915050565b61385a8261384d8361346b565b6001600160a01b03169052565b6138666020820161346b565b6001600160a01b031660208301526138806040820161346b565b6001600160a01b0316604083015261389a6060820161346b565b6001600160a01b031660608301526138b46080820161346b565b6001600160a01b031660808301526138ce60a0820161346b565b6001600160a01b031660a08301526138e860c0820161346b565b6001600160a01b031660c083015261390260e0820161346b565b6001600160a01b031660e083015261010061391e82820161346b565b6001600160a01b03169083015261012081810135908301526101408082013590830152610160808201359083015261018090810135910152565b6139658261384d8361346b565b6139716020820161346b565b6001600160a01b0316602083015261398b6040820161346b565b6001600160a01b031660408301526139a56060820161346b565b6001600160a01b031660608301526139bf6080820161346b565b6001600160a01b031660808301526139d960a0820161346b565b6001600160a01b031660a08301526139f360c0820161346b565b6001600160a01b031660c0830152613a0d60e0820161346b565b6001600160a01b031660e0830152610100613a2982820161346b565b6001600160a01b03169083015261012081810135908301526101408082013590830152610160808201359083015261018080820135908301526101a080820135908301526101c080820135908301526101e090810135910152565b80516001600160a01b031682526020810151613aab60208401826001600160a01b03169052565b506040810151613ac660408401826001600160a01b03169052565b506060810151613ae160608401826001600160a01b03169052565b506080810151613afc60808401826001600160a01b03169052565b5060a0810151613b1760a08401826001600160a01b03169052565b5060c0810151613b3260c08401826001600160a01b03169052565b5060e0810151613b4d60e08401826001600160a01b03169052565b50610100818101516001600160a01b03169083015261012080820151908301526101408082015190830152610160808201519083015261018080820151908301526101a080820151908301526101c080820151908301526101e090810151910152565b8183823760009101908152919050565b60008251613bd28184602087016141e4565b9190910192915050565b8781526001600160a01b0387811660208301528681166040830152851660608201526080810184905260c060a08201819052600090613c1e90830184866137eb565b9998505050505050505050565b6020815260006125fe6020830184613814565b602080825260079082015266234f4f3a30323960c81b604082015260600190565b6020808252601f908201527f5265656e7472616e637947756172643a207265656e7472616e742063616c6c00604082015260600190565b60408152613ca76040820184613958565b6000613cb7610200850185614170565b61024084810152613ccd610280850182846137eb565b915050613cde610220860186614170565b848303603f1901610260860152613cf68382846137eb565b935050505060018060a01b03831660208301529392505050565b60a08152613d2160a0820187613958565b6102008601356102a08201526000613d3d610220880188614170565b6102806102c0850152613d55610320850182846137eb565b915050613d66610240890189614170565b609f1980868503016102e0870152613d7f8483856137eb565b9350613d8f6102608c018c614170565b93509150808685030161030087015250613daa8383836137eb565b92505050613dbc602084018815159052565b85151560408401528281036060840152613dd68186613814565b91505061267d60808301846001600160a01b03169052565b6101a08101612c578284613840565b81516001600160a01b031681526101a081016020830151613e2960208401826001600160a01b03169052565b506040830151613e4460408401826001600160a01b03169052565b506060830151613e5f60608401826001600160a01b03169052565b506080830151613e7a60808401826001600160a01b03169052565b5060a0830151613e9560a08401826001600160a01b03169052565b5060c0830151613eb060c08401826001600160a01b03169052565b5060e0830151613ecb60e08401826001600160a01b03169052565b50610100838101516001600160a01b03169083015261012080840151908301526101408084015190830152610160808401519083015261018092830151929091019190915290565b60208152815160208201526000602083015160806040840152613f3960a0840182613814565b6040850151606085810191909152909401516001600160a01b03166080909301929092525090919050565b6020815281516020820152602082015160408201526000604083015160a06060840152613f9460c0840182613814565b6060850151608085810191909152909401516001600160a01b031660a0909301929092525090919050565b6102008101612c578284613a84565b6000610240613fdd8387613a84565b61020060018060a01b03861681850152610220828186015261400183860187613840565b6101a08601356103e08601526101c08601356104008601526140276101e0870187614170565b61026061042088015261403f6104a0880182846137eb565b91505061404e83880188614170565b935061023f19808884030161044089015261406a8386846137eb565b9450614078848a018a614170565b9450925080888603016104608901526140928585856137eb565b94506140a0868a018a614170565b9650935080888603016104808901525050506140bd8284836137eb565b98975050505050505050565b6000808335601e198436030181126140df578283fd5b83018035915067ffffffffffffffff8211156140f9578283fd5b60200191503681900382131561410e57600080fd5b9250929050565b604051610200810167ffffffffffffffff8111828210171561413957614139614226565b60405290565b604051601f8201601f1916810167ffffffffffffffff8111828210171561416857614168614226565b604052919050565b6000808335601e19843603018112614186578283fd5b830160208101925035905067ffffffffffffffff8111156141a657600080fd5b80360383131561410e57600080fd5b600082198211156141c8576141c8614210565b500190565b6000828210156141df576141df614210565b500390565b60005b838110156141ff5781810151838201526020016141e7565b83811115612df35750506000910152565b634e487b7160e01b600052601160045260246000fd5b634e487b7160e01b600052604160045260246000fd5b6001600160a01b038116811461123157600080fdfea2646970667358221220a05c87d31e3a6ea060c72e56be8ebb28bec7975311797ac9ae2c0cf4b2d3d5a264736f6c6343000804003360a060405234801561001057600080fd5b50604051610bf0380380610bf083398101604081905261002f91610049565b600160005560601b6001600160601b031916608052610077565b60006020828403121561005a578081fd5b81516001600160a01b0381168114610070578182fd5b9392505050565b60805160601c610b5661009a600039600081816048015260a90152610b566000f3fe6080604052600436106100295760003560e01c806396f32fb81461002e578063cf9a360414610077575b600080fd5b34801561003a57600080fd5b506040516001600160a01b037f00000000000000000000000000000000000000000000000000000000000000001681526020015b60405180910390f35b61008a6100853660046108c4565b610099565b60405161006e93929190610a79565b6000806060336001600160a01b037f000000000000000000000000000000000000000000000000000000000000000016146101065760405162461bcd60e51b8152602060048201526008602482015267234f544d3a30323760c01b60448201526064015b60405180910390fd5b6001600160a01b038816158061012157610121898b8961021b565b600060608b3b158015906101a0578c6001600160a01b031684610145576000610147565b8a5b8a8a6040516101579291906109c1565b60006040518083038185875af1925050503d8060008114610194576040519150601f19603f3d011682016040523d82523d6000602084013e610199565b606091505b5090935091505b826101c0576101b08c8c8c61026b565b836101c0576101c08c8e8c61028f565b8d7f03196b76502b81bbf14393f8b5ed67dff323f1f86667b064820f1fdf293686a18e8e8e8e8e8e898b8a604051610200999897969594939291906109ed565b60405180910390a2919d919c509a5098505050505050505050565b6001600160a01b03831661025b5760405162461bcd60e51b815260206004820152600760248201526608d2504e8c0ccd60ca1b60448201526064016100fd565b6102668383836102da565b505050565b6001600160a01b03831615610285576102668383836103d4565b61026682826103df565b6001600160a01b0383166102cf5760405162461bcd60e51b815260206004820152600760248201526608d1104e8c0ccd60ca1b60448201526064016100fd565b6102668383836103ed565b604051636eb1769f60e11b81523060048201526001600160a01b038381166024830152600091839186169063dd62ed3e9060440160206040518083038186803b15801561032657600080fd5b505afa15801561033a573d6000803e3d6000fd5b505050506040513d601f19601f8201168201806040525081019061035e919061097d565b6103689190610ab8565b6040516001600160a01b0385166024820152604481018290529091506103ce90859063095ea7b360e01b906064015b60408051601f198184030181529190526020810180516001600160e01b03166001600160e01b03199093169290921790915261050f565b50505050565b6102668383836105e1565b6103e98282610611565b5050565b604051636eb1769f60e11b81523060048201526001600160a01b0383811660248301526000919085169063dd62ed3e9060440160206040518083038186803b15801561043857600080fd5b505afa15801561044c573d6000803e3d6000fd5b505050506040513d601f19601f82011682018060405250810190610470919061097d565b9050818110156104d45760405162461bcd60e51b815260206004820152602960248201527f5361666545524332303a2064656372656173656420616c6c6f77616e63652062604482015268656c6f77207a65726f60b81b60648201526084016100fd565b6040516001600160a01b0384166024820152828203604482018190529061050890869063095ea7b360e01b90606401610397565b5050505050565b6000610564826040518060400160405280602081526020017f5361666545524332303a206c6f772d6c6576656c2063616c6c206661696c6564815250856001600160a01b031661072a9092919063ffffffff16565b805190915015610266578080602001905181019061058291906108a4565b6102665760405162461bcd60e51b815260206004820152602a60248201527f5361666545524332303a204552433230206f7065726174696f6e20646964206e6044820152691bdd081cdd58d8d9595960b21b60648201526084016100fd565b6040516001600160a01b03831660248201526044810182905261026690849063a9059cbb60e01b90606401610397565b804710156106615760405162461bcd60e51b815260206004820152601d60248201527f416464726573733a20696e73756666696369656e742062616c616e636500000060448201526064016100fd565b6000826001600160a01b03168260405160006040518083038185875af1925050503d80600081146106ae576040519150601f19603f3d011682016040523d82523d6000602084013e6106b3565b606091505b50509050806102665760405162461bcd60e51b815260206004820152603a60248201527f416464726573733a20756e61626c6520746f2073656e642076616c75652c207260448201527f6563697069656e74206d6179206861766520726576657274656400000000000060648201526084016100fd565b60606107398484600085610743565b90505b9392505050565b6060824710156107a45760405162461bcd60e51b815260206004820152602660248201527f416464726573733a20696e73756666696369656e742062616c616e636520666f6044820152651c8818d85b1b60d21b60648201526084016100fd565b843b6107f25760405162461bcd60e51b815260206004820152601d60248201527f416464726573733a2063616c6c20746f206e6f6e2d636f6e747261637400000060448201526064016100fd565b600080866001600160a01b0316858760405161080e91906109d1565b60006040518083038185875af1925050503d806000811461084b576040519150601f19603f3d011682016040523d82523d6000602084013e610850565b606091505b509150915061086082828661086b565b979650505050505050565b6060831561087a57508161073c565b82511561088a5782518084602001fd5b8160405162461bcd60e51b81526004016100fd9190610aa5565b6000602082840312156108b5578081fd5b8151801515811461073c578182fd5b600080600080600080600060c0888a0312156108de578283fd5b8735965060208801356108f081610b08565b9550604088013561090081610b08565b9450606088013561091081610b08565b93506080880135925060a088013567ffffffffffffffff80821115610933578384fd5b818a0191508a601f830112610946578384fd5b813581811115610954578485fd5b8b6020828501011115610965578485fd5b60208301945080935050505092959891949750929550565b60006020828403121561098e578081fd5b5051919050565b600081518084526109ad816020860160208601610adc565b601f01601f19169290920160200192915050565b8183823760009101908152919050565b600082516109e3818460208701610adc565b9190910192915050565b6001600160a01b038a8116825289811660208301528816604082015260608101879052610100608082018190528101859052600061012086888285013781818885010152601f19601f8801168301818482030160a0850152610a5182820188610995565b9250505083151560c0830152610a6b60e083018415159052565b9a9950505050505050505050565b83151581528215156020820152606060408201526000610a9c6060830184610995565b95945050505050565b60208152600061073c6020830184610995565b60008219821115610ad757634e487b7160e01b81526011600452602481fd5b500190565b60005b83811015610af7578181015183820152602001610adf565b838111156103ce5750506000910152565b6001600160a01b0381168114610b1d57600080fd5b5056fea26469706673582212202269da452bba446914352b77d48fb1282f9d93d6579e7d5164e4949a9439643864736f6c63430008040033",
  "devdoc": {
    "author": "Connext <support@connext.network>",
    "kind": "dev",
    "methods": {
      "addAssetId(address)": {
        "params": {
          "assetId": "AssetId to add"
        }
      },
      "addLiquidity(uint256,address)": {
        "params": {
          "amount": "The amount of liquidity to add for the router",
          "assetId": "The address (or `address(0)` if native asset) of the                asset you're adding liquidity for"
        }
      },
      "addLiquidityFor(uint256,address,address)": {
        "params": {
          "amount": "The amount of liquidity to add for the router",
          "assetId": "The address (or `address(0)` if native asset) of the                asset you're adding liquidity for",
          "router": "The router you are adding liquidity on behalf of"
        }
      },
      "addRouter(address)": {
        "params": {
          "router": "Router address to add"
        }
      },
      "cancel(((address,address,address,address,address,address,address,address,address,bytes32,bytes32,uint256,uint256,uint256,uint256,uint256),bytes,bytes))": {
        "params": {
          "args": "TODO"
        }
      },
      "fulfill(((address,address,address,address,address,address,address,address,address,bytes32,bytes32,uint256,uint256,uint256,uint256,uint256),uint256,bytes,bytes,bytes))": {
        "params": {
          "args": "TODO"
        }
      },
      "prepare(((address,address,address,address,address,address,address,address,address,uint256,uint256,bytes32,bytes32),uint256,uint256,bytes,bytes,bytes,bytes))": {
        "params": {
          "args": "TODO"
        }
      },
      "removeAssetId(address)": {
        "params": {
          "assetId": "AssetId to remove"
        }
      },
      "removeLiquidity(uint256,address,address)": {
        "params": {
          "amount": "The amount of liquidity to remove for the router",
          "assetId": "The address (or `address(0)` if native asset) of the                asset you're removing liquidity for",
          "recipient": "The address that will receive the liquidity being removed"
        }
      },
      "removeRouter(address)": {
        "params": {
          "router": "Router address to remove"
        }
      }
    },
    "stateVariables": {
      "MAX_TIMEOUT": {
        "details": "Maximum timeout (will be the highest on the sending chain)"
      },
      "MIN_TIMEOUT": {
        "details": "Minimum timeout (will be the lowest on the receiving chain)"
      },
      "approvedAssets": {
        "details": "Mapping of allowed assetIds on same chain as contract"
      },
      "approvedRouters": {
        "details": "Mapping of allowed router addresses. Must be added to both      sending and receiving chains when forwarding a transfer."
      },
      "chainId": {
        "details": "The stored chain id of the contract, may be passed in to avoid any       evm issues"
      },
      "interpreter": {
        "details": "The external contract that will execute crosschain      calldata"
      },
      "routerBalances": {
        "details": "Mapping of router to balance specific to asset"
      },
      "variantTransactionData": {
        "details": "Mapping of hash of `InvariantTransactionData` to the hash      of the `VariantTransactionData`"
      }
    },
    "title": "TransactionManager",
    "version": 1
  },
  "userdoc": {
    "kind": "user",
    "methods": {
      "acceptProposedOwner()": {
        "notice": "Transfers ownership of the contract to a new account (`newOwner`). Can only be called by the current owner."
      },
      "addAssetId(address)": {
        "notice": "Used to add assets on same chain as contract that can         be transferred."
      },
      "addLiquidity(uint256,address)": {
        "notice": "This is used by any router to increase their available         liquidity for a given asset."
      },
      "addLiquidityFor(uint256,address,address)": {
        "notice": "This is used by anyone to increase a router's available         liquidity for a given asset."
      },
      "addRouter(address)": {
        "notice": "Used to add routers that can transact crosschain"
      },
      "assetOwnershipTimestamp()": {
        "notice": "Returns the timestamp when asset ownership was last proposed to be renounced"
      },
      "cancel(((address,address,address,address,address,address,address,address,address,bytes32,bytes32,uint256,uint256,uint256,uint256,uint256),bytes,bytes))": {
        "notice": "Any crosschain transaction can be cancelled after it has been         created to prevent indefinite lock up of funds. After the         transaction has expired, anyone can cancel it. Before the         expiry, only the recipient of the funds on the given chain is         able to cancel. On the sending chain, this means only the router         is able to cancel before the expiry, while only the user can         prematurely cancel on the receiving chain."
      },
      "delay()": {
        "notice": "Returns the delay period before a new owner can be accepted."
      },
      "fulfill(((address,address,address,address,address,address,address,address,address,bytes32,bytes32,uint256,uint256,uint256,uint256,uint256),uint256,bytes,bytes,bytes))": {
        "notice": "This function completes a crosschain transaction. When called on         the receiving chain, the user reveals their signature on the         transactionId and is sent the amount corresponding to the number         of shares the router locked when calling `prepare`. The router          then uses this signature to unlock the corresponding funds on the          receiving chain, which are then added back to their available          liquidity. The user includes a relayer fee since it is not          assumed they will have gas on the receiving chain. This function          *must* be called before the transaction expiry has elapsed."
      },
      "getChainId()": {
        "notice": "Gets the chainId for this contract. If not specified during init         will use the block.chainId"
      },
      "getStoredChainId()": {
        "notice": "Allows us to get the chainId that this contract has stored"
      },
      "isAssetOwnershipRenounced()": {
        "notice": "Indicates if the ownership of the asset whitelist has been renounced"
      },
      "isRouterOwnershipRenounced()": {
        "notice": "Indicates if the ownership of the router whitelist has been renounced"
      },
      "owner()": {
        "notice": "Returns the address of the current owner."
      },
      "prepare(((address,address,address,address,address,address,address,address,address,uint256,uint256,bytes32,bytes32),uint256,uint256,bytes,bytes,bytes,bytes))": {
        "notice": "This function creates a crosschain transaction. When called on         the sending chain, the user is expected to lock up funds. When         called on the receiving chain, the router deducts the transfer         amount from the available liquidity. The majority of the         information about a given transfer does not change between chains,         with three notable exceptions: `amount`, `expiry`, and          `preparedBlock`. The `amount` and `expiry` are decremented         between sending and receiving chains to provide an incentive for          the router to complete the transaction and time for the router to         fulfill the transaction on the sending chain after the unlocking         signature is revealed, respectively."
      },
      "proposeAssetOwnershipRenunciation()": {
        "notice": "Indicates if the ownership of the asset whitelist has been renounced"
      },
      "proposeNewOwner(address)": {
        "notice": "Sets the timestamp for an owner to be proposed, and sets the newly proposed owner as step 1 in a 2-step process"
      },
      "proposeRouterOwnershipRenunciation()": {
        "notice": "Indicates if the ownership of the router whitelist has been renounced"
      },
      "proposed()": {
        "notice": "Returns the address of the proposed owner."
      },
      "proposedTimestamp()": {
        "notice": "Returns the address of the proposed owner."
      },
      "removeAssetId(address)": {
        "notice": "Used to remove assets on same chain as contract that can         be transferred."
      },
      "removeLiquidity(uint256,address,address)": {
        "notice": "This is used by any router to decrease their available         liquidity for a given asset."
      },
      "removeRouter(address)": {
        "notice": "Used to remove routers that can transact crosschain"
      },
      "renounceAssetOwnership()": {
        "notice": "Indicates if the ownership of the asset whitelist has been renounced"
      },
      "renounceOwnership()": {
        "notice": "Renounces ownership of the contract after a delay"
      },
      "renounceRouterOwnership()": {
        "notice": "Indicates if the ownership of the asset whitelist has been renounced"
      },
      "renounced()": {
        "notice": "Indicates if the ownership has been renounced() by checking if current owner is address(0)"
      },
      "routerOwnershipTimestamp()": {
        "notice": "Returns the timestamp when router ownership was last proposed to be renounced"
      }
    },
    "notice": "This contract holds the logic to facilitate crosschain transactions.         Transactions go through three phases in the happy case:         1. Route Auction (offchain): User broadcasts to our network          signalling their desired route. Routers respond with sealed bids          containing commitments to fulfilling the transaction within a          certain time and price range.         2. Prepare: Once the auction is completed, the transaction can be          prepared. The user submits a transaction to `TransactionManager`          contract on sender-side chain containing router's signed bid. This          transaction locks up the users funds on the sending chain. Upon          detecting an event containing their signed bid from the chain,          router submits the same transaction to `TransactionManager` on the          receiver-side chain, and locks up a corresponding amount of          liquidity. The amount locked on the receiving chain is `sending          amount - auction fee` so the router is incentivized to complete the          transaction.         3. Fulfill: Upon detecting the `TransactionPrepared` event on the          receiver-side chain, the user signs a message and sends it to a          relayer, who will earn a fee for submission. The relayer (which may          be the router) then submits the message to the `TransactionManager`          to complete their transaction on receiver-side chain and claim the          funds locked by the router. A relayer is used here to allow users          to submit transactions with arbitrary calldata on the receiving          chain without needing gas to do so. The router then submits the          same signed message and completes transaction on sender-side,          unlocking the original `amount`.         If a transaction is not fulfilled within a fixed timeout, it          reverts and can be reclaimed by the party that called `prepare` on          each chain (initiator). Additionally, transactions can be cancelled          unilaterally by the person owed funds on that chain (router for          sending chain, user for receiving chain) prior to expiry.",
    "version": 1
  },
  "storageLayout": {
    "storage": [
      {
        "astId": 114,
        "contract": "contracts/TransactionManager.sol:TransactionManager",
        "label": "_status",
        "offset": 0,
        "slot": "0",
        "type": "t_uint256"
      },
      {
        "astId": 2382,
        "contract": "contracts/TransactionManager.sol:TransactionManager",
        "label": "_owner",
        "offset": 0,
        "slot": "1",
        "type": "t_address"
      },
      {
        "astId": 2384,
        "contract": "contracts/TransactionManager.sol:TransactionManager",
        "label": "_proposed",
        "offset": 0,
        "slot": "2",
        "type": "t_address"
      },
      {
        "astId": 2386,
        "contract": "contracts/TransactionManager.sol:TransactionManager",
        "label": "_proposedOwnershipTimestamp",
        "offset": 0,
        "slot": "3",
        "type": "t_uint256"
      },
      {
        "astId": 2388,
        "contract": "contracts/TransactionManager.sol:TransactionManager",
        "label": "_routerOwnershipRenounced",
        "offset": 0,
        "slot": "4",
        "type": "t_bool"
      },
      {
        "astId": 2390,
        "contract": "contracts/TransactionManager.sol:TransactionManager",
        "label": "_routerOwnershipTimestamp",
        "offset": 0,
        "slot": "5",
        "type": "t_uint256"
      },
      {
        "astId": 2392,
        "contract": "contracts/TransactionManager.sol:TransactionManager",
        "label": "_assetOwnershipRenounced",
        "offset": 0,
        "slot": "6",
        "type": "t_bool"
      },
      {
        "astId": 2394,
        "contract": "contracts/TransactionManager.sol:TransactionManager",
        "label": "_assetOwnershipTimestamp",
        "offset": 0,
        "slot": "7",
        "type": "t_uint256"
      },
      {
        "astId": 2892,
        "contract": "contracts/TransactionManager.sol:TransactionManager",
        "label": "routerBalances",
        "offset": 0,
        "slot": "8",
        "type": "t_mapping(t_address,t_mapping(t_address,t_uint256))"
      },
      {
        "astId": 2897,
        "contract": "contracts/TransactionManager.sol:TransactionManager",
        "label": "approvedRouters",
        "offset": 0,
        "slot": "9",
        "type": "t_mapping(t_address,t_bool)"
      },
      {
        "astId": 2902,
        "contract": "contracts/TransactionManager.sol:TransactionManager",
        "label": "approvedAssets",
        "offset": 0,
        "slot": "10",
        "type": "t_mapping(t_address,t_bool)"
      },
      {
        "astId": 2907,
        "contract": "contracts/TransactionManager.sol:TransactionManager",
        "label": "variantTransactionData",
        "offset": 0,
        "slot": "11",
        "type": "t_mapping(t_bytes32,t_bytes32)"
      }
    ],
    "types": {
      "t_address": {
        "encoding": "inplace",
        "label": "address",
        "numberOfBytes": "20"
      },
      "t_bool": {
        "encoding": "inplace",
        "label": "bool",
        "numberOfBytes": "1"
      },
      "t_bytes32": {
        "encoding": "inplace",
        "label": "bytes32",
        "numberOfBytes": "32"
      },
      "t_mapping(t_address,t_bool)": {
        "encoding": "mapping",
        "key": "t_address",
        "label": "mapping(address => bool)",
        "numberOfBytes": "32",
        "value": "t_bool"
      },
      "t_mapping(t_address,t_mapping(t_address,t_uint256))": {
        "encoding": "mapping",
        "key": "t_address",
        "label": "mapping(address => mapping(address => uint256))",
        "numberOfBytes": "32",
        "value": "t_mapping(t_address,t_uint256)"
      },
      "t_mapping(t_address,t_uint256)": {
        "encoding": "mapping",
        "key": "t_address",
        "label": "mapping(address => uint256)",
        "numberOfBytes": "32",
        "value": "t_uint256"
      },
      "t_mapping(t_bytes32,t_bytes32)": {
        "encoding": "mapping",
        "key": "t_bytes32",
        "label": "mapping(bytes32 => bytes32)",
        "numberOfBytes": "32",
        "value": "t_bytes32"
      },
      "t_uint256": {
        "encoding": "inplace",
        "label": "uint256",
        "numberOfBytes": "32"
      }
    }
  }
}