{
  "_format": "hh-sol-artifact-1",
  "contractName": "MultiSend",
  "sourceName": "@gnosis.pm/safe-contracts/contracts/libraries/MultiSend.sol",
  "abi": [
    {
      "inputs": [],
      "stateMutability": "nonpayable",
      "type": "constructor"
    },
    {
      "inputs": [
        {
          "internalType": "bytes",
          "name": "transactions",
          "type": "bytes"
        }
      ],
      "name": "multiSend",
      "outputs": [],
      "stateMutability": "payable",
      "type": "function"
    }
  ],
  "bytecode": "0x60a060405234801561001057600080fd5b503073ffffffffffffffffffffffffffffffffffffffff1660808173ffffffffffffffffffffffffffffffffffffffff1660601b8152505060805160601c6103b26100656000396000604101526103b26000f3fe60806040526004361061001e5760003560e01c80638d80ff0a14610023575b600080fd5b61003d600480360381019061003891906101c2565b61003f565b005b7f000000000000000000000000000000000000000000000000000000000000000073ffffffffffffffffffffffffffffffffffffffff163073ffffffffffffffffffffffffffffffffffffffff1614156100ce576040517f08c379a00000000000000000000000000000000000000000000000000000000081526004016100c590610226565b60405180910390fd5b805160205b81811015610155578083015160f81c6001820184015160601c601583018501516035840186015160558501870160008560008114610118576001811461012857610133565b6000808585888a5af19150610133565b6000808585895af491505b50600081141561014257600080fd5b82605501870196505050505050506100d3565b505050565b600061016d6101688461026b565b610246565b90508281526020810184848401111561018557600080fd5b6101908482856102ad565b509392505050565b600082601f8301126101a957600080fd5b81356101b984826020860161015a565b91505092915050565b6000602082840312156101d457600080fd5b600082013567ffffffffffffffff8111156101ee57600080fd5b6101fa84828501610198565b91505092915050565b600061021060308361029c565b915061021b8261032d565b604082019050919050565b6000602082019050818103600083015261023f81610203565b9050919050565b6000610250610261565b905061025c82826102bc565b919050565b6000604051905090565b600067ffffffffffffffff821115610286576102856102ed565b5b61028f8261031c565b9050602081019050919050565b600082825260208201905092915050565b82818337600083830152505050565b6102c58261031c565b810181811067ffffffffffffffff821117156102e4576102e36102ed565b5b80604052505050565b7f4e487b7100000000000000000000000000000000000000000000000000000000600052604160045260246000fd5b6000601f19601f8301169050919050565b7f4d756c746953656e642073686f756c64206f6e6c792062652063616c6c65642060008201527f7669612064656c656761746563616c6c0000000000000000000000000000000060208201525056fea26469706673582212209a154fe8936d49ffb7613531a0fdeeba7b06b4b391798918aacc5770fce1860264736f6c63430008040033",
  "linkReferences": {},
  "deployedLinkReferences": {}
}