{
  "address": "0xBA3171e092705A09ef68DEaeC86F184B92026236",
  "abi": [
    {
      "inputs": [
        {
          "internalType": "uint256",
          "name": "_chainId",
          "type": "uint256"
        }
      ],
      "stateMutability": "nonpayable",
      "type": "constructor"
    },
    {
      "anonymous": false,
      "inputs": [
        {
          "indexed": true,
          "internalType": "address",
          "name": "addedAssetId",
          "type": "address"
        },
        {
          "indexed": true,
          "internalType": "address",
          "name": "caller",
          "type": "address"
        }
      ],
      "name": "AssetAdded",
      "type": "event"
    },
    {
      "anonymous": false,
      "inputs": [
        {
          "indexed": true,
          "internalType": "address",
          "name": "removedAssetId",
          "type": "address"
        },
        {
          "indexed": true,
          "internalType": "address",
          "name": "caller",
          "type": "address"
        }
      ],
      "name": "AssetRemoved",
      "type": "event"
    },
    {
      "anonymous": false,
      "inputs": [
        {
          "indexed": true,
          "internalType": "address",
          "name": "router",
          "type": "address"
        },
        {
          "indexed": true,
          "internalType": "address",
          "name": "assetId",
          "type": "address"
        },
        {
          "indexed": false,
          "internalType": "uint256",
          "name": "amount",
          "type": "uint256"
        },
        {
          "indexed": false,
          "internalType": "address",
          "name": "caller",
          "type": "address"
        }
      ],
      "name": "LiquidityAdded",
      "type": "event"
    },
    {
      "anonymous": false,
      "inputs": [
        {
          "indexed": true,
          "internalType": "address",
          "name": "router",
          "type": "address"
        },
        {
          "indexed": true,
          "internalType": "address",
          "name": "assetId",
          "type": "address"
        },
        {
          "indexed": false,
          "internalType": "uint256",
          "name": "amount",
          "type": "uint256"
        },
        {
          "indexed": false,
          "internalType": "address",
          "name": "recipient",
          "type": "address"
        }
      ],
      "name": "LiquidityRemoved",
      "type": "event"
    },
    {
      "anonymous": false,
      "inputs": [
        {
          "indexed": true,
          "internalType": "address",
          "name": "proposedOwner",
          "type": "address"
        }
      ],
      "name": "OwnershipProposed",
      "type": "event"
    },
    {
      "anonymous": false,
      "inputs": [
        {
          "indexed": true,
          "internalType": "address",
          "name": "previousOwner",
          "type": "address"
        },
        {
          "indexed": true,
          "internalType": "address",
          "name": "newOwner",
          "type": "address"
        }
      ],
      "name": "OwnershipTransferred",
      "type": "event"
    },
    {
      "anonymous": false,
      "inputs": [
        {
          "indexed": true,
          "internalType": "address",
          "name": "addedRouter",
          "type": "address"
        },
        {
          "indexed": true,
          "internalType": "address",
          "name": "caller",
          "type": "address"
        }
      ],
      "name": "RouterAdded",
      "type": "event"
    },
    {
      "anonymous": false,
      "inputs": [
        {
          "indexed": true,
          "internalType": "address",
          "name": "removedRouter",
          "type": "address"
        },
        {
          "indexed": true,
          "internalType": "address",
          "name": "caller",
          "type": "address"
        }
      ],
      "name": "RouterRemoved",
      "type": "event"
    },
    {
      "anonymous": false,
      "inputs": [
        {
          "indexed": true,
          "internalType": "address",
          "name": "user",
          "type": "address"
        },
        {
          "indexed": true,
          "internalType": "address",
          "name": "router",
          "type": "address"
        },
        {
          "indexed": true,
          "internalType": "bytes32",
          "name": "transactionId",
          "type": "bytes32"
        },
        {
          "components": [
            {
              "internalType": "address",
              "name": "user",
              "type": "address"
            },
            {
              "internalType": "address",
              "name": "router",
              "type": "address"
            },
            {
              "internalType": "address",
              "name": "sendingAssetId",
              "type": "address"
            },
            {
              "internalType": "address",
              "name": "receivingAssetId",
              "type": "address"
            },
            {
              "internalType": "address",
              "name": "sendingChainFallback",
              "type": "address"
            },
            {
              "internalType": "address",
              "name": "receivingAddress",
              "type": "address"
            },
            {
              "internalType": "address",
              "name": "callTo",
              "type": "address"
            },
            {
              "internalType": "bytes32",
              "name": "callDataHash",
              "type": "bytes32"
            },
            {
              "internalType": "bytes32",
              "name": "transactionId",
              "type": "bytes32"
            },
            {
              "internalType": "uint256",
              "name": "sendingChainId",
              "type": "uint256"
            },
            {
              "internalType": "uint256",
              "name": "receivingChainId",
              "type": "uint256"
            },
            {
              "internalType": "uint256",
              "name": "amount",
              "type": "uint256"
            },
            {
              "internalType": "uint256",
              "name": "expiry",
              "type": "uint256"
            },
            {
              "internalType": "uint256",
              "name": "preparedBlockNumber",
              "type": "uint256"
            }
          ],
          "indexed": false,
          "internalType": "struct ITransactionManager.TransactionData",
          "name": "txData",
          "type": "tuple"
        },
        {
          "indexed": false,
          "internalType": "uint256",
          "name": "relayerFee",
          "type": "uint256"
        },
        {
          "indexed": false,
          "internalType": "address",
          "name": "caller",
          "type": "address"
        }
      ],
      "name": "TransactionCancelled",
      "type": "event"
    },
    {
      "anonymous": false,
      "inputs": [
        {
          "indexed": true,
          "internalType": "address",
          "name": "user",
          "type": "address"
        },
        {
          "indexed": true,
          "internalType": "address",
          "name": "router",
          "type": "address"
        },
        {
          "indexed": true,
          "internalType": "bytes32",
          "name": "transactionId",
          "type": "bytes32"
        },
        {
          "components": [
            {
              "internalType": "address",
              "name": "user",
              "type": "address"
            },
            {
              "internalType": "address",
              "name": "router",
              "type": "address"
            },
            {
              "internalType": "address",
              "name": "sendingAssetId",
              "type": "address"
            },
            {
              "internalType": "address",
              "name": "receivingAssetId",
              "type": "address"
            },
            {
              "internalType": "address",
              "name": "sendingChainFallback",
              "type": "address"
            },
            {
              "internalType": "address",
              "name": "receivingAddress",
              "type": "address"
            },
            {
              "internalType": "address",
              "name": "callTo",
              "type": "address"
            },
            {
              "internalType": "bytes32",
              "name": "callDataHash",
              "type": "bytes32"
            },
            {
              "internalType": "bytes32",
              "name": "transactionId",
              "type": "bytes32"
            },
            {
              "internalType": "uint256",
              "name": "sendingChainId",
              "type": "uint256"
            },
            {
              "internalType": "uint256",
              "name": "receivingChainId",
              "type": "uint256"
            },
            {
              "internalType": "uint256",
              "name": "amount",
              "type": "uint256"
            },
            {
              "internalType": "uint256",
              "name": "expiry",
              "type": "uint256"
            },
            {
              "internalType": "uint256",
              "name": "preparedBlockNumber",
              "type": "uint256"
            }
          ],
          "indexed": false,
          "internalType": "struct ITransactionManager.TransactionData",
          "name": "txData",
          "type": "tuple"
        },
        {
          "indexed": false,
          "internalType": "uint256",
          "name": "relayerFee",
          "type": "uint256"
        },
        {
          "indexed": false,
          "internalType": "bytes",
          "name": "signature",
          "type": "bytes"
        },
        {
          "indexed": false,
          "internalType": "bytes",
          "name": "callData",
          "type": "bytes"
        },
        {
          "indexed": false,
          "internalType": "address",
          "name": "caller",
          "type": "address"
        }
      ],
      "name": "TransactionFulfilled",
      "type": "event"
    },
    {
      "anonymous": false,
      "inputs": [
        {
          "indexed": true,
          "internalType": "address",
          "name": "user",
          "type": "address"
        },
        {
          "indexed": true,
          "internalType": "address",
          "name": "router",
          "type": "address"
        },
        {
          "indexed": true,
          "internalType": "bytes32",
          "name": "transactionId",
          "type": "bytes32"
        },
        {
          "components": [
            {
              "internalType": "address",
              "name": "user",
              "type": "address"
            },
            {
              "internalType": "address",
              "name": "router",
              "type": "address"
            },
            {
              "internalType": "address",
              "name": "sendingAssetId",
              "type": "address"
            },
            {
              "internalType": "address",
              "name": "receivingAssetId",
              "type": "address"
            },
            {
              "internalType": "address",
              "name": "sendingChainFallback",
              "type": "address"
            },
            {
              "internalType": "address",
              "name": "receivingAddress",
              "type": "address"
            },
            {
              "internalType": "address",
              "name": "callTo",
              "type": "address"
            },
            {
              "internalType": "bytes32",
              "name": "callDataHash",
              "type": "bytes32"
            },
            {
              "internalType": "bytes32",
              "name": "transactionId",
              "type": "bytes32"
            },
            {
              "internalType": "uint256",
              "name": "sendingChainId",
              "type": "uint256"
            },
            {
              "internalType": "uint256",
              "name": "receivingChainId",
              "type": "uint256"
            },
            {
              "internalType": "uint256",
              "name": "amount",
              "type": "uint256"
            },
            {
              "internalType": "uint256",
              "name": "expiry",
              "type": "uint256"
            },
            {
              "internalType": "uint256",
              "name": "preparedBlockNumber",
              "type": "uint256"
            }
          ],
          "indexed": false,
          "internalType": "struct ITransactionManager.TransactionData",
          "name": "txData",
          "type": "tuple"
        },
        {
          "indexed": false,
          "internalType": "address",
          "name": "caller",
          "type": "address"
        },
        {
          "indexed": false,
          "internalType": "bytes",
          "name": "encryptedCallData",
          "type": "bytes"
        },
        {
          "indexed": false,
          "internalType": "bytes",
          "name": "encodedBid",
          "type": "bytes"
        },
        {
          "indexed": false,
          "internalType": "bytes",
          "name": "bidSignature",
          "type": "bytes"
        }
      ],
      "name": "TransactionPrepared",
      "type": "event"
    },
    {
      "inputs": [],
      "name": "MAX_TIMEOUT",
      "outputs": [
        {
          "internalType": "uint256",
          "name": "",
          "type": "uint256"
        }
      ],
      "stateMutability": "view",
      "type": "function"
    },
    {
      "inputs": [],
      "name": "MIN_TIMEOUT",
      "outputs": [
        {
          "internalType": "uint256",
          "name": "",
          "type": "uint256"
        }
      ],
      "stateMutability": "view",
      "type": "function"
    },
    {
      "inputs": [],
      "name": "acceptProposedOwner",
      "outputs": [],
      "stateMutability": "nonpayable",
      "type": "function"
    },
    {
      "inputs": [
        {
          "internalType": "address",
          "name": "assetId",
          "type": "address"
        }
      ],
      "name": "addAssetId",
      "outputs": [],
      "stateMutability": "nonpayable",
      "type": "function"
    },
    {
      "inputs": [
        {
          "internalType": "uint256",
          "name": "amount",
          "type": "uint256"
        },
        {
          "internalType": "address",
          "name": "assetId",
          "type": "address"
        },
        {
          "internalType": "address",
          "name": "router",
          "type": "address"
        }
      ],
      "name": "addLiquidity",
      "outputs": [],
      "stateMutability": "payable",
      "type": "function"
    },
    {
      "inputs": [
        {
          "internalType": "address",
          "name": "router",
          "type": "address"
        }
      ],
      "name": "addRouter",
      "outputs": [],
      "stateMutability": "nonpayable",
      "type": "function"
    },
    {
      "inputs": [
        {
          "internalType": "address",
          "name": "",
          "type": "address"
        }
      ],
      "name": "approvedAssets",
      "outputs": [
        {
          "internalType": "bool",
          "name": "",
          "type": "bool"
        }
      ],
      "stateMutability": "view",
      "type": "function"
    },
    {
      "inputs": [
        {
          "internalType": "address",
          "name": "",
          "type": "address"
        }
      ],
      "name": "approvedRouters",
      "outputs": [
        {
          "internalType": "bool",
          "name": "",
          "type": "bool"
        }
      ],
      "stateMutability": "view",
      "type": "function"
    },
    {
      "inputs": [
        {
          "components": [
            {
              "internalType": "address",
              "name": "user",
              "type": "address"
            },
            {
              "internalType": "address",
              "name": "router",
              "type": "address"
            },
            {
              "internalType": "address",
              "name": "sendingAssetId",
              "type": "address"
            },
            {
              "internalType": "address",
              "name": "receivingAssetId",
              "type": "address"
            },
            {
              "internalType": "address",
              "name": "sendingChainFallback",
              "type": "address"
            },
            {
              "internalType": "address",
              "name": "receivingAddress",
              "type": "address"
            },
            {
              "internalType": "address",
              "name": "callTo",
              "type": "address"
            },
            {
              "internalType": "bytes32",
              "name": "callDataHash",
              "type": "bytes32"
            },
            {
              "internalType": "bytes32",
              "name": "transactionId",
              "type": "bytes32"
            },
            {
              "internalType": "uint256",
              "name": "sendingChainId",
              "type": "uint256"
            },
            {
              "internalType": "uint256",
              "name": "receivingChainId",
              "type": "uint256"
            },
            {
              "internalType": "uint256",
              "name": "amount",
              "type": "uint256"
            },
            {
              "internalType": "uint256",
              "name": "expiry",
              "type": "uint256"
            },
            {
              "internalType": "uint256",
              "name": "preparedBlockNumber",
              "type": "uint256"
            }
          ],
          "internalType": "struct ITransactionManager.TransactionData",
          "name": "txData",
          "type": "tuple"
        },
        {
          "internalType": "uint256",
          "name": "relayerFee",
          "type": "uint256"
        },
        {
          "internalType": "bytes",
          "name": "signature",
          "type": "bytes"
        }
      ],
      "name": "cancel",
      "outputs": [
        {
          "components": [
            {
              "internalType": "address",
              "name": "user",
              "type": "address"
            },
            {
              "internalType": "address",
              "name": "router",
              "type": "address"
            },
            {
              "internalType": "address",
              "name": "sendingAssetId",
              "type": "address"
            },
            {
              "internalType": "address",
              "name": "receivingAssetId",
              "type": "address"
            },
            {
              "internalType": "address",
              "name": "sendingChainFallback",
              "type": "address"
            },
            {
              "internalType": "address",
              "name": "receivingAddress",
              "type": "address"
            },
            {
              "internalType": "address",
              "name": "callTo",
              "type": "address"
            },
            {
              "internalType": "bytes32",
              "name": "callDataHash",
              "type": "bytes32"
            },
            {
              "internalType": "bytes32",
              "name": "transactionId",
              "type": "bytes32"
            },
            {
              "internalType": "uint256",
              "name": "sendingChainId",
              "type": "uint256"
            },
            {
              "internalType": "uint256",
              "name": "receivingChainId",
              "type": "uint256"
            },
            {
              "internalType": "uint256",
              "name": "amount",
              "type": "uint256"
            },
            {
              "internalType": "uint256",
              "name": "expiry",
              "type": "uint256"
            },
            {
              "internalType": "uint256",
              "name": "preparedBlockNumber",
              "type": "uint256"
            }
          ],
          "internalType": "struct ITransactionManager.TransactionData",
          "name": "",
          "type": "tuple"
        }
      ],
      "stateMutability": "nonpayable",
      "type": "function"
    },
    {
      "inputs": [],
      "name": "chainId",
      "outputs": [
        {
          "internalType": "uint256",
          "name": "",
          "type": "uint256"
        }
      ],
      "stateMutability": "view",
      "type": "function"
    },
    {
      "inputs": [],
      "name": "delay",
      "outputs": [
        {
          "internalType": "uint256",
          "name": "",
          "type": "uint256"
        }
      ],
      "stateMutability": "view",
      "type": "function"
    },
    {
      "inputs": [
        {
          "components": [
            {
              "internalType": "address",
              "name": "user",
              "type": "address"
            },
            {
              "internalType": "address",
              "name": "router",
              "type": "address"
            },
            {
              "internalType": "address",
              "name": "sendingAssetId",
              "type": "address"
            },
            {
              "internalType": "address",
              "name": "receivingAssetId",
              "type": "address"
            },
            {
              "internalType": "address",
              "name": "sendingChainFallback",
              "type": "address"
            },
            {
              "internalType": "address",
              "name": "receivingAddress",
              "type": "address"
            },
            {
              "internalType": "address",
              "name": "callTo",
              "type": "address"
            },
            {
              "internalType": "bytes32",
              "name": "callDataHash",
              "type": "bytes32"
            },
            {
              "internalType": "bytes32",
              "name": "transactionId",
              "type": "bytes32"
            },
            {
              "internalType": "uint256",
              "name": "sendingChainId",
              "type": "uint256"
            },
            {
              "internalType": "uint256",
              "name": "receivingChainId",
              "type": "uint256"
            },
            {
              "internalType": "uint256",
              "name": "amount",
              "type": "uint256"
            },
            {
              "internalType": "uint256",
              "name": "expiry",
              "type": "uint256"
            },
            {
              "internalType": "uint256",
              "name": "preparedBlockNumber",
              "type": "uint256"
            }
          ],
          "internalType": "struct ITransactionManager.TransactionData",
          "name": "txData",
          "type": "tuple"
        },
        {
          "internalType": "uint256",
          "name": "relayerFee",
          "type": "uint256"
        },
        {
          "internalType": "bytes",
          "name": "signature",
          "type": "bytes"
        },
        {
          "internalType": "bytes",
          "name": "callData",
          "type": "bytes"
        }
      ],
      "name": "fulfill",
      "outputs": [
        {
          "components": [
            {
              "internalType": "address",
              "name": "user",
              "type": "address"
            },
            {
              "internalType": "address",
              "name": "router",
              "type": "address"
            },
            {
              "internalType": "address",
              "name": "sendingAssetId",
              "type": "address"
            },
            {
              "internalType": "address",
              "name": "receivingAssetId",
              "type": "address"
            },
            {
              "internalType": "address",
              "name": "sendingChainFallback",
              "type": "address"
            },
            {
              "internalType": "address",
              "name": "receivingAddress",
              "type": "address"
            },
            {
              "internalType": "address",
              "name": "callTo",
              "type": "address"
            },
            {
              "internalType": "bytes32",
              "name": "callDataHash",
              "type": "bytes32"
            },
            {
              "internalType": "bytes32",
              "name": "transactionId",
              "type": "bytes32"
            },
            {
              "internalType": "uint256",
              "name": "sendingChainId",
              "type": "uint256"
            },
            {
              "internalType": "uint256",
              "name": "receivingChainId",
              "type": "uint256"
            },
            {
              "internalType": "uint256",
              "name": "amount",
              "type": "uint256"
            },
            {
              "internalType": "uint256",
              "name": "expiry",
              "type": "uint256"
            },
            {
              "internalType": "uint256",
              "name": "preparedBlockNumber",
              "type": "uint256"
            }
          ],
          "internalType": "struct ITransactionManager.TransactionData",
          "name": "",
          "type": "tuple"
        }
      ],
      "stateMutability": "nonpayable",
      "type": "function"
    },
    {
      "inputs": [],
      "name": "interpreter",
      "outputs": [
        {
          "internalType": "contract IFulfillInterpreter",
          "name": "",
          "type": "address"
        }
      ],
      "stateMutability": "view",
      "type": "function"
    },
    {
      "inputs": [],
      "name": "owner",
      "outputs": [
        {
          "internalType": "address",
          "name": "",
          "type": "address"
        }
      ],
      "stateMutability": "view",
      "type": "function"
    },
    {
      "inputs": [
        {
          "components": [
            {
              "internalType": "address",
              "name": "user",
              "type": "address"
            },
            {
              "internalType": "address",
              "name": "router",
              "type": "address"
            },
            {
              "internalType": "address",
              "name": "sendingAssetId",
              "type": "address"
            },
            {
              "internalType": "address",
              "name": "receivingAssetId",
              "type": "address"
            },
            {
              "internalType": "address",
              "name": "sendingChainFallback",
              "type": "address"
            },
            {
              "internalType": "address",
              "name": "receivingAddress",
              "type": "address"
            },
            {
              "internalType": "address",
              "name": "callTo",
              "type": "address"
            },
            {
              "internalType": "uint256",
              "name": "sendingChainId",
              "type": "uint256"
            },
            {
              "internalType": "uint256",
              "name": "receivingChainId",
              "type": "uint256"
            },
            {
              "internalType": "bytes32",
              "name": "callDataHash",
              "type": "bytes32"
            },
            {
              "internalType": "bytes32",
              "name": "transactionId",
              "type": "bytes32"
            }
          ],
          "internalType": "struct ITransactionManager.InvariantTransactionData",
          "name": "invariantData",
          "type": "tuple"
        },
        {
          "internalType": "uint256",
          "name": "amount",
          "type": "uint256"
        },
        {
          "internalType": "uint256",
          "name": "expiry",
          "type": "uint256"
        },
        {
          "internalType": "bytes",
          "name": "encryptedCallData",
          "type": "bytes"
        },
        {
          "internalType": "bytes",
          "name": "encodedBid",
          "type": "bytes"
        },
        {
          "internalType": "bytes",
          "name": "bidSignature",
          "type": "bytes"
        }
      ],
      "name": "prepare",
      "outputs": [
        {
          "components": [
            {
              "internalType": "address",
              "name": "user",
              "type": "address"
            },
            {
              "internalType": "address",
              "name": "router",
              "type": "address"
            },
            {
              "internalType": "address",
              "name": "sendingAssetId",
              "type": "address"
            },
            {
              "internalType": "address",
              "name": "receivingAssetId",
              "type": "address"
            },
            {
              "internalType": "address",
              "name": "sendingChainFallback",
              "type": "address"
            },
            {
              "internalType": "address",
              "name": "receivingAddress",
              "type": "address"
            },
            {
              "internalType": "address",
              "name": "callTo",
              "type": "address"
            },
            {
              "internalType": "bytes32",
              "name": "callDataHash",
              "type": "bytes32"
            },
            {
              "internalType": "bytes32",
              "name": "transactionId",
              "type": "bytes32"
            },
            {
              "internalType": "uint256",
              "name": "sendingChainId",
              "type": "uint256"
            },
            {
              "internalType": "uint256",
              "name": "receivingChainId",
              "type": "uint256"
            },
            {
              "internalType": "uint256",
              "name": "amount",
              "type": "uint256"
            },
            {
              "internalType": "uint256",
              "name": "expiry",
              "type": "uint256"
            },
            {
              "internalType": "uint256",
              "name": "preparedBlockNumber",
              "type": "uint256"
            }
          ],
          "internalType": "struct ITransactionManager.TransactionData",
          "name": "",
          "type": "tuple"
        }
      ],
      "stateMutability": "payable",
      "type": "function"
    },
    {
      "inputs": [
        {
          "internalType": "address",
          "name": "newlyProposed",
          "type": "address"
        }
      ],
      "name": "proposeNewOwner",
      "outputs": [],
      "stateMutability": "nonpayable",
      "type": "function"
    },
    {
      "inputs": [],
      "name": "proposed",
      "outputs": [
        {
          "internalType": "address",
          "name": "",
          "type": "address"
        }
      ],
      "stateMutability": "view",
      "type": "function"
    },
    {
      "inputs": [],
      "name": "proposedTimestamp",
      "outputs": [
        {
          "internalType": "uint256",
          "name": "",
          "type": "uint256"
        }
      ],
      "stateMutability": "view",
      "type": "function"
    },
    {
      "inputs": [
        {
          "internalType": "address",
          "name": "assetId",
          "type": "address"
        }
      ],
      "name": "removeAssetId",
      "outputs": [],
      "stateMutability": "nonpayable",
      "type": "function"
    },
    {
      "inputs": [
        {
          "internalType": "uint256",
          "name": "amount",
          "type": "uint256"
        },
        {
          "internalType": "address",
          "name": "assetId",
          "type": "address"
        },
        {
          "internalType": "address payable",
          "name": "recipient",
          "type": "address"
        }
      ],
      "name": "removeLiquidity",
      "outputs": [],
      "stateMutability": "nonpayable",
      "type": "function"
    },
    {
      "inputs": [
        {
          "internalType": "address",
          "name": "router",
          "type": "address"
        }
      ],
      "name": "removeRouter",
      "outputs": [],
      "stateMutability": "nonpayable",
      "type": "function"
    },
    {
      "inputs": [],
      "name": "renounced",
      "outputs": [
        {
          "internalType": "bool",
          "name": "",
          "type": "bool"
        }
      ],
      "stateMutability": "view",
      "type": "function"
    },
    {
      "inputs": [
        {
          "internalType": "address",
          "name": "",
          "type": "address"
        },
        {
          "internalType": "address",
          "name": "",
          "type": "address"
        }
      ],
      "name": "routerBalances",
      "outputs": [
        {
          "internalType": "uint256",
          "name": "",
          "type": "uint256"
        }
      ],
      "stateMutability": "view",
      "type": "function"
    },
    {
      "inputs": [
        {
          "internalType": "bytes32",
          "name": "",
          "type": "bytes32"
        }
      ],
      "name": "variantTransactionData",
      "outputs": [
        {
          "internalType": "bytes32",
          "name": "",
          "type": "bytes32"
        }
      ],
      "stateMutability": "view",
      "type": "function"
    }
  ],
  "transactionHash": "0x28ef27768662ab0c643a617cf82fc4244b4cf42503173c879c901aa7dbf9986d",
  "args": [
    "69"
  ],
  "solcInputHash": "50a7cd9fc4e50ad1351353d98d25bbd2",
  "bytecode": "0x60c06040523480156200001c5760008062000019620001cb565b50505b5060405162005ce438038062005ce48339810160408190526200003f91620003ca565b60018060006200004e62000238565b505050620000665a620000606200029c565b6200012b565b60808190525a63996d79a5598160e01b8152602081600483336000905af158600e01573d6000803e3d6000fd5b3d6001141558600a015760016000f35b8051925060005b6040811015620000c357600082820152602001620000aa565b505050604051620000d490620002e3565b620000e09190620003f0565b604051809103906000620000f3620002f1565b50508015801562000113573d6000803e3d600062000110620001cb565b50505b5060601b6001600160601b03191660a0525062000404565b60008060016200013a6200037d565b906101000a90046001600160a01b0316905081600160006101000a81620001606200037d565b816001600160a01b0302191690836001600160a01b03160217906200018462000238565b505050816001600160a01b0316816001600160a01b03167f8be0079c531659141344cd1fd0a4f28419497f9722a3daafe3b4186f6b6457e060405160405180910390a35050565b632a2a7adb598160e01b8152600481016020815285602082015260005b8681101562000205578086015182820160400152602001620001e8565b506020828760640184336000905af158600e01573d6000803e3d6000fd5b3d6001141558600a015760016000f35b505050565b6322bd64c0598160e01b8152836004820152846024820152600081604483336000905af158600e01573d6000803e3d6000fd5b3d6001141558600a015760016000f35b60005b604081101562000297576000828201526020016200027e565b505050565b6373509064598160e01b8152602081600483336000905af158600e01573d6000803e3d6000fd5b3d6001141558600a015760016000f35b805160008252935060206200027e565b61123a8062004aaa83390190565b6314aa2ff7598160e01b8152600481016020815286602082015260005b878110156200032b5780870151828201604001526020016200030e565b506020828860640184336000905af158600e01573d6000803e3d6000fd5b3d6001141558600a015760016000f35b8151965059825b8181101562000376576000815260200162000360565b5050505050565b6303daa959598160e01b8152836004820152602081602483336000905af158600e01573d6000803e3d6000fd5b3d6001141558600a015760016000f35b805160008252935060206200027e565b600060208284031215620003e7578081620003e4620001cb565b50505b81519392505050565b6001600160a01b0391909116815260200190565b60805160a05160601c61465c6200044e60003980610acd5280610af45280610deb5250806108f0528061132052806116905280611f025280611f2f5280612075525061465c6000f3fe60806040526004361061014b5760003560e01c80638da5cb5b116100b6578063c5b350df1161006f578063c5b350df14610422578063d1851c9214610440578063d232c2201461045e578063de38eb3a1461047c578063f31abcc41461049a578063fd32af2f146104c35761014b565b80638da5cb5b1461034257806397eb0088146103605780639a8a059214610389578063b1d2618d146103a7578063b1f8100d146103d0578063b4238e84146103f95761014b565b8063445b1e4b11610108578063445b1e4b1461026b5780634910630a146102a1578063543ad1df146102b45780635e679856146102d25780636a42b8f8146102fb5780636ae0b154146103195761014b565b806324ca984e146101595780632893a6121461018457806334e9393c146101c35780633a35cf17146101ec5780633cf52ffb1461021757806341258b5c14610242575b600080610156613180565b50505b34801561016e5760008061016b613180565b50505b5061018261017d366004613664565b6104d6565b005b34801561019957600080610196613180565b50505b506101ad6101a836600461384e565b61065c565b6040516101ba91906144f3565b60405180910390f35b3480156101d8576000806101d5613180565b50505b506101826101e7366004613664565b610c9b565b348015610201576000806101fe613180565b50505b5061020a610de9565b6040516101ba9190613c3c565b34801561022c57600080610229613180565b50505b50610235610e0d565b6040516101ba9190613c5b565b34801561025757600080610254613180565b50505b50610235610266366004613689565b610e1e565b3480156102805760008061027d613180565b50505b5061029461028f366004613664565b610e47565b6040516101ba9190613c50565b6101826102af3660046139e2565b610e6e565b3480156102c9576000806102c6613180565b50505b50610235611135565b3480156102e7576000806102e4613180565b50505b506102356102f63660046136ca565b61113c565b3480156103105760008061030d613180565b50505b50610235611154565b34801561032e5760008061032b613180565b50505b5061018261033d366004613664565b61115b565b34801561035757600080610354613180565b50505b5061020a6112e2565b34801561037557600080610372613180565b50505b50610294610384366004613664565b611304565b34801561039e5760008061039b613180565b50505b5061023561131e565b3480156103bc576000806103b9613180565b50505b506101826103cb366004613664565b611342565b3480156103e5576000806103e2613180565b50505b506101826103f4366004613664565b611491565b34801561040e5760008061040b613180565b50505b506101ad61041d3660046137e0565b611504565b34801561043757600080610434613180565b50505b50610182611a55565b34801561045557600080610452613180565b50505b5061020a611b3f565b34801561047357600080610470613180565b50505b50610294611b4c565b3480156104915760008061048e613180565b50505b50610235611b66565b3480156104af576000806104ac613180565b50505b506101826104be3660046139e2565b611b6d565b6101ad6104d13660046136eb565b611d09565b5a6104df6131eb565b6001600160a01b03166104f06112e2565b6001600160a01b03161461053d5760405162461bcd60e51b8152602060048201526007602482015266234f4f3a30323960c81b60448201526064016040518091039061053a613180565b50505b6001600160a01b0381166105755760405162461bcd60e51b81526004016105639061401d565b60405180910390610572613180565b50505b6001600160a01b0381166000908152600560205260409020600090610598613240565b60ff6101009290920a900416156105d35760405162461bcd60e51b81526004016105c190613eba565b604051809103906105d0613180565b50505b6001600160a01b03811660009081526005602052600190604090206001816105f9613240565b8160ff0219169083151502179061060e61328c565b5050505a61061a6131eb565b6001600160a01b0316816001600160a01b03167fbc68405e644da2aaf25623ce2199da82c6dfd2e1de102b400eba6a091704d4f460405160405180910390a350565b6106646132da565b60026000610670613240565b14156106cb5760405162461bcd60e51b815260206004820152601f60248201527f5265656e7472616e637947756172643a207265656e7472616e742063616c6c006044820152606401604051809103906106c8613180565b50505b60028060006106d861328c565b50505060006106e6886126fb565b90506107028861016001358961018001358a6101a00135612837565b6000828152600760205260409020610718613240565b146107475760405162461bcd60e51b815260040161073590613edb565b60405180910390610744613180565b50505b5a61075061334d565b88610180013510156107865760405162461bcd60e51b815260040161077490613e9a565b60405180910390610783613180565b50505b6000886101a00135116107bd5760405162461bcd60e51b81526004016107ab90614222565b604051809103906107ba613180565b50505b6107ca6020890189613664565b6001600160a01b031661080289610100013589604051604080820190526007815266199d5b199a5b1b60ca1b60208201528a8a612889565b6001600160a01b03161461083a5760405162461bcd60e51b815260040161082890613d76565b60405180910390610837613180565b50505b8761016001358711156108715760405162461bcd60e51b815260040161085f9061407f565b6040518091039061086e613180565b50505b8760e001358484604051610886929190613c2c565b6040518091039020146108bd5760405162461bcd60e51b81526004016108ab90613e18565b604051809103906108ba613180565b50505b6108d38861016001358961018001356000612837565b600082815260076020526040902081906108eb61328c565b5050507f00000000000000000000000000000000000000000000000000000000000000008861012001351415610a035761092b6040890160208a01613664565b6001600160a01b03165a61093d6131eb565b6001600160a01b0316146109755760405162461bcd60e51b815260040161096390613fdd565b60405180910390610972613180565b50505b6101608801356004600061098f60408c0160208d01613664565b6001600160a01b03166001600160a01b0316815260200190815260200160002060006109c160608c0160408d01613664565b6001600160a01b03166001600160a01b03168152602001908152602001600020600082826109ed613240565b0192505081906109fb61328c565b505050610bef565b6101608801358790038715610a3457610a34610a2560808b0160608c01613664565b5a610a2e6131eb565b8a612921565b6000610a4660e08b0160c08c01613664565b6001600160a01b03161415610a89578015610a8457610a84610a6e60808b0160608c01613664565b610a7e60c08c0160a08d01613664565b83612921565b610bed565b6000610aa3610a9e60808c0160608d01613664565b61294d565b905080158015610ab35750600082115b15610af257610af2610acb60808c0160608d01613664565b7f00000000000000000000000000000000000000000000000000000000000000008461295a565b7f00000000000000000000000000000000000000000000000000000000000000006001600160a01b031663cf9a360482610b2d576000610b2f565b835b8c61010001358d60c0016020810190610b489190613664565b8e6060016020810190610b5b9190613664565b8f60a0016020810190610b6e9190613664565b888d8d6040518963ffffffff1660e01b8152600401610b939796959493929190613c64565b600060405180830381858880610ba7613393565b158015610bbc57600080610bb9613180565b50505b505a610bc66133df565b505050505050158015610be6573d6000803e3d6000610be3613180565b50505b5050505050505b505b610100880135610c0560408a0160208b01613664565b6001600160a01b0316610c1b60208b018b613664565b6001600160a01b03167f61399d5a2a6b2505b4a43caf76fc59136a7d0c50b01c303f0aa1530289efe4f78b8b8b8b8b8b5a610c546131eb565b604051610c679796959493929190614495565b60405180910390a4610c7e368990038901896138f5565b9150506001806000610c8e61328c565b5050509695505050505050565b5a610ca46131eb565b6001600160a01b0316610cb56112e2565b6001600160a01b031614610d025760405162461bcd60e51b8152602060048201526007602482015266234f4f3a30323960c81b604482015260640160405180910390610cff613180565b50505b6001600160a01b0381166000908152600660205260409020600090610d25613240565b60ff6101009290920a90041615610d605760405162461bcd60e51b8152600401610d4e906141c1565b60405180910390610d5d613180565b50505b6001600160a01b0381166000908152600660205260019060409020600181610d86613240565b8160ff02191690831515021790610d9b61328c565b5050505a610da76131eb565b6001600160a01b0316816001600160a01b03167f0bb5715f0f217c2fe9a0c877ea87d474380c641102f3440ee2a4c8b9d979091860405160405180910390a350565b7f000000000000000000000000000000000000000000000000000000000000000081565b60006003610e19613240565b905090565b60046020528160005260406000206020528060005260406000209150610e449050613240565b81565b600560205280600052604060002060009150610e61613240565b906101000a900460ff1681565b6001600160a01b038116610ea65760405162461bcd60e51b8152600401610e9490613efb565b60405180910390610ea3613180565b50505b60008311610ed85760405162461bcd60e51b8152600401610ec69061405e565b60405180910390610ed5613180565b50505b6000610ee2611b4c565b90508080610f1957506001600160a01b0382166000908152600560205260409020600090610f0e613240565b906101000a900460ff165b610f475760405162461bcd60e51b8152600401610f3590613d96565b60405180910390610f44613180565b50505b8080610f7c57506001600160a01b0383166000908152600660205260409020600090610f71613240565b906101000a900460ff165b610faa5760405162461bcd60e51b8152600401610f989061409f565b60405180910390610fa7613180565b50505b6001600160a01b038216600090815260046020528490604090206001600160a01b03851660009081526020919091526040902060008282610fe9613240565b019250508190610ff761328c565b5050506110038361294d565b1561103e578334146110395760405162461bcd60e51b815260040161102790613f9c565b60405180910390611036613180565b50505b6110da565b341561106e5760405162461bcd60e51b815260040161105c90613e38565b6040518091039061106b613180565b50505b6110da835a61107b6131eb565b5a63996d79a5598160e01b8152602081600483336000905af158600e01573d6000803e3d6000fd5b3d6001141558600a015760016000f35b8051925060005b60408110156110d1576000828201526020016110ba565b50505087612965565b826001600160a01b0316826001600160a01b03167f4bd28ccd068c4853d24d35f727ef2a3fea11ce55e8d93461e45f785818e1e139865a6111196131eb565b604051611127929190614593565b60405180910390a350505050565b6201518081565b60076020528060005260406000209050610e44613240565b62093a8090565b5a6111646131eb565b6001600160a01b03166111756112e2565b6001600160a01b0316146111c25760405162461bcd60e51b8152602060048201526007602482015266234f4f3a30323960c81b6044820152606401604051809103906111bf613180565b50505b6001600160a01b0381166111fa5760405162461bcd60e51b81526004016111e890613cb3565b604051809103906111f7613180565b50505b6001600160a01b038116600090815260056020526040902060009061121d613240565b906101000a900460ff161515600115151461125c5760405162461bcd60e51b815260040161124a90613d35565b60405180910390611259613180565b50505b6001600160a01b038116600090815260056020526040812060018161127f613240565b8160ff0219169083151502179061129461328c565b5050505a6112a06131eb565b6001600160a01b0316816001600160a01b03167fbee3e974bb6a6f44f20096ede047c191eef60322e65e4ee4bd3392230a8716d560405160405180910390a350565b60008060016112ef613240565b906101000a90046001600160a01b0316905090565b600660205280600052604060002060009150610e61613240565b7f000000000000000000000000000000000000000000000000000000000000000081565b5a61134b6131eb565b6001600160a01b031661135c6112e2565b6001600160a01b0316146113a95760405162461bcd60e51b8152602060048201526007602482015266234f4f3a30323960c81b6044820152606401604051809103906113a6613180565b50505b6001600160a01b03811660009081526006602052604090206000906113cc613240565b906101000a900460ff161515600115151461140b5760405162461bcd60e51b81526004016113f990614180565b60405180910390611408613180565b50505b6001600160a01b038116600090815260066020526040812060018161142e613240565b8160ff0219169083151502179061144361328c565b5050505a61144f6131eb565b6001600160a01b0316816001600160a01b03167f0fa1e4606af435f32f05b3804033d2933e691fab32ee74d2db6fa82d2741f1ea60405160405180910390a350565b5a61149a6131eb565b6001600160a01b03166114ab6112e2565b6001600160a01b0316146114f85760405162461bcd60e51b8152602060048201526007602482015266234f4f3a30323960c81b6044820152606401604051809103906114f5613180565b50505b61150181612977565b50565b61150c6132da565b60026000611518613240565b14156115735760405162461bcd60e51b815260206004820152601f60248201527f5265656e7472616e637947756172643a207265656e7472616e742063616c6c00604482015260640160405180910390611570613180565b50505b600280600061158061328c565b505050600061158e866126fb565b90506115aa866101600135876101800135886101a00135612837565b60008281526007602052604090206115c0613240565b146115ef5760405162461bcd60e51b81526004016115dd9061403e565b604051809103906115ec613180565b50505b6000866101a00135116116265760405162461bcd60e51b815260040161161490614120565b60405180910390611623613180565b50505b85610160013585111561165d5760405162461bcd60e51b815260040161164b90613e59565b6040518091039061165a613180565b50505b6116738661016001358761018001356000612837565b6000828152600760205260409020819061168b61328c565b5050507f00000000000000000000000000000000000000000000000000000000000000008661012001351415611869575a6116c461334d565b8661018001351061175c576116df6040870160208801613664565b6001600160a01b03165a6116f16131eb565b6001600160a01b0316146117295760405162461bcd60e51b8152600401611717906141e2565b60405180910390611726613180565b50505b61175761173c6060880160408901613664565b61174c60a0890160808a01613664565b886101600135612921565b611864565b84156118305761176f6020870187613664565b6001600160a01b03165a6117816131eb565b6001600160a01b031614806117e0575061179e6020870187613664565b6001600160a01b03166117d58761010001358760405160408082019052600681526518d85b98d95b60d21b60208201528888612889565b6001600160a01b0316145b61180e5760405162461bcd60e51b81526004016117fc90613fbd565b6040518091039061180b613180565b50505b6118306118216060880160408901613664565b5a61182a6131eb565b87612921565b6101608601358590038015611862576118626118526060890160408a01613664565b610a7e60a08a0160808b01613664565b505b6119b3565b5a61187261334d565b866101800135106119295761188a6020870187613664565b6001600160a01b03165a61189c6131eb565b6001600160a01b031614806118fb57506118b96020870187613664565b6001600160a01b03166118f08761010001358760405160408082019052600681526518d85b98d95b60d21b60208201528888612889565b6001600160a01b0316145b6119295760405162461bcd60e51b815260040161191790613fbd565b60405180910390611926613180565b50505b6101608601356004600061194360408a0160208b01613664565b6001600160a01b03166001600160a01b03168152602001908152602001600020600061197560808a0160608b01613664565b6001600160a01b03166001600160a01b03168152602001908152602001600020600082826119a1613240565b0192505081906119af61328c565b5050505b6101008601356119c96040880160208901613664565b6001600160a01b03166119df6020890189613664565b6001600160a01b03167f5f57de32eb53b76955a73b53e195e3bd70ef42f0d1d9c64d82abefdc47cc37dc89895a611a146131eb565b604051611a2393929190614465565b60405180910390a4611a3a368790038701876138f5565b9150506001806000611a4a61328c565b505050949350505050565b5a611a5e6131eb565b6001600160a01b0316611a6f6112e2565b6001600160a01b031614611abc5760405162461bcd60e51b8152602060048201526007602482015266234f4f3a30323960c81b604482015260640160405180910390611ab9613180565b50505b62093a806003611aca613240565b5a611ad361334d565b0311611b195760405162461bcd60e51b815260206004820152600860248201526702341504f3a3033360c41b604482015260640160405180910390611b16613180565b50505b611b3d60006002611b28613240565b906101000a90046001600160a01b0316612a1a565b565b60008060026112ef613240565b600080611b576112e2565b6001600160a01b031614905090565b62278d0081565b6001600160a01b038116611ba55760405162461bcd60e51b8152600401611b9390613e79565b60405180910390611ba2613180565b50505b60008311611bd75760405162461bcd60e51b8152600401611bc590613cf4565b60405180910390611bd4613180565b50505b6000600460005a611be66131eb565b6001600160a01b03166001600160a01b031681526020019081526020016000206001600160a01b038416600090815260209190915260409020611c27613240565b905083811015611c5b5760405162461bcd60e51b8152600401611c4990613df7565b60405180910390611c58613180565b50505b838103600460005a611c6b6131eb565b6001600160a01b03166001600160a01b031681526020019081526020016000206001600160a01b0385166000908152602091909152604090208190611cae61328c565b505050611cbc838386612921565b826001600160a01b03165a611ccf6131eb565b6001600160a01b03167f7da12116be8cb7af4b2d9e9b4a2ca2c3a3243ddd6fd3a94411902367b8eed5688685604051611127929190614593565b611d116132da565b6000611d2060208c018c613664565b6001600160a01b03161415611d595760405162461bcd60e51b8152600401611d4790614140565b60405180910390611d56613180565b50505b6000611d6b60408c0160208d01613664565b6001600160a01b03161415611da45760405162461bcd60e51b8152600401611d9290613f7c565b60405180910390611da1613180565b50505b6000611dae611b4c565b90508080611e01575060056000611dcb60408e0160208f01613664565b6001600160a01b03166001600160a01b03168152602001908152602001600020600090611df6613240565b906101000a900460ff165b611e2f5760405162461bcd60e51b8152600401611e1d90613d56565b60405180910390611e2c613180565b50505b6000611e4160a08d0160808e01613664565b6001600160a01b03161415611e7a5760405162461bcd60e51b8152600401611e6890613f5c565b60405180910390611e77613180565b50505b6000611e8c60c08d0160a08e01613664565b6001600160a01b03161415611ec55760405162461bcd60e51b8152600401611eb390613d15565b60405180910390611ec2613180565b50505b8a61010001358b60e001351415611f005760405162461bcd60e51b8152600401611eee906141a1565b60405180910390611efd613180565b50505b7f00000000000000000000000000000000000000000000000000000000000000008b60e001351480611f5657507f00000000000000000000000000000000000000000000000000000000000000008b6101000135145b611f845760405162461bcd60e51b8152600401611f7290614202565b60405180910390611f81613180565b50505b620151805a611f9161334d565b8a031015611fc35760405162461bcd60e51b8152600401611fb190613db7565b60405180910390611fc0613180565b50505b62278d005a611fd061334d565b8a0311156120025760405162461bcd60e51b8152600401611ff090613f1c565b60405180910390611fff613180565b50505b60008b6040516020016120159190614262565b604051602081830303815290604052805190602001206000818152600760205290915060408120612044613240565b146120735760405162461bcd60e51b815260040161206190613ffd565b60405180910390612070613180565b50505b7f00000000000000000000000000000000000000000000000000000000000000008c60e0013514156122815760008b116120d15760405162461bcd60e51b81526004016120bf90613f3c565b604051809103906120ce613180565b50505b81806121255750600660008d60400160208101906120ef9190613664565b6001600160a01b03166001600160a01b0316815260200190815260200160002060009061211a613240565b906101000a900460ff165b6121535760405162461bcd60e51b815260040161214190613dd7565b60405180910390612150613180565b50505b6121668b8b5a6121616134ca565b612837565b6000828152600760205260409020819061217e61328c565b506121969150610a9e905060608e0160408f01613664565b156121d1578a34146121cc5760405162461bcd60e51b81526004016121ba90614100565b604051809103906121c9613180565b50505b61227c565b34156122015760405162461bcd60e51b81526004016121ef90614242565b604051809103906121fe613180565b50505b61227c61221460608e0160408f01613664565b5a61221d6131eb565b5a63996d79a5598160e01b8152602081600483336000905af158600e01573d6000803e3d6000fd5b3d6001141558600a015760016000f35b8051925060005b60408110156122735760008282015260200161225c565b5050508e612965565b612546565b600061229360e08e0160c08f01613664565b6001600160a01b031614806122bb57506122bb6122b660e08e0160c08f01613664565b612ab4565b6122e95760405162461bcd60e51b81526004016122d7906140c0565b604051809103906122e6613180565b50505b818061233d5750600660008d60600160208101906123079190613664565b6001600160a01b03166001600160a01b03168152602001908152602001600020600090612332613240565b906101000a900460ff165b61236b5760405162461bcd60e51b815260040161235990613dd7565b60405180910390612368613180565b50505b61237b60408d0160208e01613664565b6001600160a01b03165a61238d6131eb565b6001600160a01b0316146123c55760405162461bcd60e51b81526004016123b3906140e0565b604051809103906123c2613180565b50505b34156123f55760405162461bcd60e51b81526004016123e390613cd4565b604051809103906123f2613180565b50505b6000600460008e602001602081019061240e9190613664565b6001600160a01b03166001600160a01b0316815260200190815260200160002060008e60600160208101906124439190613664565b6001600160a01b03166001600160a01b0316815260200190815260200160002061246b613240565b90508b81101561249f5760405162461bcd60e51b815260040161248d90614160565b6040518091039061249c613180565b50505b6124ad8c8c5a6121616134ca565b600083815260076020526040902081906124c561328c565b5050508b8103600460008f60200160208101906124e29190613664565b6001600160a01b03166001600160a01b0316815260200190815260200160002060008f60600160208101906125179190613664565b6001600160a01b03166001600160a01b03168152602001908152602001600020819061254161328c565b505050505b6000604051806101c001604052808e60000160208101906125679190613664565b6001600160a01b031681526020018e60200160208101906125889190613664565b6001600160a01b031681526020018e60400160208101906125a99190613664565b6001600160a01b031681526020018e60600160208101906125ca9190613664565b6001600160a01b031681526020018e60800160208101906125eb9190613664565b6001600160a01b031681526020018e60a001602081019061260c9190613664565b6001600160a01b031681526020018e60c001602081019061262d9190613664565b6001600160a01b031681526020018e610120013581526020018e610140013581526020018e60e0013581526020018e610100013581526020018d81526020018c81526020015a61267b6134ca565b9052905061010081015181602001516001600160a01b031682516001600160a01b03167f9a03967017bba72d6de8f56201584e10828c701f72d0da5705a5b42e73d875ab845a6126c96131eb565b8f8f8f8f8f8f6040516126e3989796959493929190614502565b60405180910390a49c9b505050505050505050505050565b6000806040516101608101604052806127176020860186613664565b6001600160a01b031681526020018460200160208101906127389190613664565b6001600160a01b031681526020016127566060860160408701613664565b6001600160a01b031681526020016127746080860160608701613664565b6001600160a01b0316815260200161279260a0860160808701613664565b6001600160a01b031681526020016127b060c0860160a08701613664565b6001600160a01b031681526020016127ce60e0860160c08701613664565b6001600160a01b03168152602001846101200135815260200184610140013581526020018460e0013581526020018461010001358152509050806040516020016128189190614342565b604051602081830303815290604052805190602001209150505b919050565b6000806040518060600160405280868152602001858152602001848152509050806040516020016128689190614571565b604051602081830303815290604052805190602001209150505b9392505050565b60008060405180606001604052808881526020018781526020018681525090506129166128db826040516020016128c091906143f6565b60405160208183030381529060405280519060200120612ac9565b85858080601f0160208091040260200160405190810160405281815292919060208401838380828437600092019190915250612b1c92505050565b979650505050505050565b61292a8361294d565b61293e5761293983838361295a565b612948565b6129488282612bb1565b505050565b6001600160a01b03161590565b612948838383612c5c565b61297184848484612cb8565b50505050565b5a61298061334d565b80600361298b61328c565b50505080600260006101000a816129a0613240565b816001600160a01b0302191690836001600160a01b03160217906129c261328c565b50505060026000906129d2613240565b906101000a90046001600160a01b03166001600160a01b03167f6ab4d119f23076e8ad491bc65ce85f017fb0591dce08755ba8591059cc51737a60405160405180910390a250565b6000806001612a27613240565b906101000a90046001600160a01b0316905081600160006101000a81612a4b613240565b816001600160a01b0302191690836001600160a01b0316021790612a6d61328c565b505050816001600160a01b0316816001600160a01b03167f8be0079c531659141344cd1fd0a4f28419497f9722a3daafe3b4186f6b6457e060405160405180910390a35050565b60008082612ac0613393565b15159392505050565b6000816040517f19457468657265756d205369676e6564204d6573736167653a0a3332000000006020820152603c810191909152605c016040516020818303038152906040528051906020012092915050565b60008151604114612b7c5760405162461bcd60e51b815260206004820152601f60248201527f45434453413a20696e76616c6964207369676e6174757265206c656e67746800604482015260640160405180910390612b79613180565b50505b60008060006020850151925060408501519150606085015160001a9050612ba586828585612d21565b93505050505b92915050565b6000826001600160a01b03168260405160006040518083038185875a612bd56133df565b505050505050925050503d8060008114612c0b576040513d603f01601f191681016040523d815291503d6000602084013e612c10565b606091505b50509050806129485760405162461bcd60e51b8152602060048201526007602482015266046a88a746064760cb1b604482015260640160405180910390612c55613180565b5050505050565b6129488363a9059cbb60e01b84846040516001600160a01b0390921660248301526044820152606401604051602081830303815290604052906001600160e01b0319166020820180516001600160e01b03169091179052612ecd565b612971846323b872dd60e01b8585856040516001600160a01b0393841660248201529190921660448201526064810191909152608401604051602081830303815290604052906001600160e01b0319166020820180516001600160e01b03169091179052612ecd565b60007f7fffffffffffffffffffffffffffffff5d576e7357a4501ddfe92f46681b20a0821115612d8b5760405162461bcd60e51b81526004018080602001828103825260228152602001806145ee6022913960400191505060405180910390612d88613180565b50505b8360ff16601b1480612da057508360ff16601c145b612de45760405162461bcd60e51b81526004018080602001828103825260228152602001806146106022913960400191505060405180910390612de1613180565b50505b600060018686868660405160008152602001604052604051808581526020018460ff1681526020018381526020018281526020019450505050506020604051602081039080840390855a612e36613510565b5050505050158015612e55573d6000803e3d6000612e52613180565b50505b5050506020604051035190506001600160a01b038116612ec45760405162461bcd60e51b815260206004820152601860248201527f45434453413a20696e76616c6964207369676e61747572650000000000000000604482015260640160405180910390612ec1613180565b50505b95945050505050565b6000612f18826040516040808201905260208082527f5361666545524332303a206c6f772d6c6576656c2063616c6c206661696c6564908201526001600160a01b0386169190612f8d565b9050600081511115612948576020810181516020811015612f4157600080612f3e613180565b50505b81019080805192506129489150505760405162461bcd60e51b815260040180806020018281038252602a815260200180614632602a913960400191505060405180910390612c55613180565b6060612f9884612ab4565b612ff15760405162461bcd60e51b815260206004820152601d60248201527f416464726573733a2063616c6c20746f206e6f6e2d636f6e7472616374000000604482015260640160405180910390612fee613180565b50505b600080856001600160a01b0316856040518082805190602001908083835b6020831061302e5780518252601f19909201916020918201910161300f565b6001836020036101000a0380198251168184511680821785525050505050509050019150506000604051808303816000865a6130686133df565b5050505050509150503d806000811461309d576040513d603f01601f191681016040523d815291503d6000602084013e6130a2565b606091505b50915091506130b28282866130bc565b9695505050505050565b606083156130cb575081612882565b6000835111156130ec57825180846020016130e4613180565b505050612882565b8160405162461bcd60e51b81526004018080602001828103825283818151815260200191508051906020019080838360005b8381101561313657808201518382015260200161311e565b50505050905090810190601f1680156131635780820380516001836020036101000a031916815260200191505b509250505060405180910390613177613180565b50509392505050565b632a2a7adb598160e01b8152600481016020815285602082015260005b868110156131b857808601518282016040015260200161319d565b506020828760640184336000905af158600e01573d6000803e3d6000fd5b3d6001141558600a015760016000f35b505050565b6373509064598160e01b8152602081600483336000905af158600e01573d6000803e3d6000fd5b3d6001141558600a015760016000f35b8051935060005b604081101561294857600082820152602001613229565b6303daa959598160e01b8152836004820152602081602483336000905af158600e01573d6000803e3d6000fd5b3d6001141558600a015760016000f35b80516000825293506020613229565b6322bd64c0598160e01b8152836004820152846024820152600081604483336000905af158600e01573d6000803e3d6000fd5b3d6001141558600a015760016000f35b600081526020613229565b6040516101c081016040908152600080835260208301819052908201819052606082018190526080820181905260a0820181905260c0820181905260e08201819052610100820181905261012082018190526101408201819052610160820181905261018082018190526101a082015290565b63bdbf8c36598160e01b8152602081600483336000905af158600e01573d6000803e3d6000fd5b3d6001141558600a015760016000f35b80516000825293506020613229565b638435035b598160e01b8152836004820152602081602483336000905af158600e01573d6000803e3d6000fd5b3d6001141558600a015760016000f35b80516000825293506020613229565b6385979f76598160e01b8152613410565b8080831115612bab575090919050565b8080831015612bab575090919050565b836004820152846024820152606060448201528760648201526084810160005b89811015613448578089015182820152602001613430565b506060828a60a40184336000905af158600e01573d6000803e3d6000fd5b3d6001141558600a015760016000f35b815160408301513d6000853e8c8c82606087013350600060045af1505961349d8e3d613400565b8d016134a981876133f0565b5b828110156134be57600081526020016134aa565b50929d50505050505050565b635a98c361598160e01b8152602081600483336000905af158600e01573d6000803e3d6000fd5b3d6001141558600a015760016000f35b80516000825293506020613229565b638540661f598160e01b8152836004820152846024820152606060448201528660648201526084810160005b8881101561355457808801518282015260200161353c565b506060828960a40184336000905af158600e01573d6000803e3d6000fd5b3d6001141558600a015760016000f35b815160408301513d6000853e8b8b82606087013350600060045af150596135a98d3d613400565b8c016135b581876133f0565b5b828110156135ca57600081526020016135b6565b50929c50505050505050565b8035612832816145d2565b60008083601f8401126135fb5781826135f8613180565b50505b50813567ffffffffffffffff81111561361b578182613618613180565b50505b60208301915083602082850101111561363c57600080613639613180565b50505b9250929050565b60006101c0828403121561365e57808161365b613180565b50505b50919050565b60006020828403121561367e57808161367b613180565b50505b8135612882816145d2565b600080604083850312156136a45780816136a1613180565b50505b82356136af816145d2565b915060208301356136bf816145d2565b809150509250929050565b6000602082840312156136e45780816136e1613180565b50505b5035919050565b6000806000806000806000806000898b03610200811215613713578586613710613180565b50505b6101608082121561372b578687613728613180565b50505b8b9a508a013598505061018089013596506101a089013567ffffffffffffffff8082111561376057868761375d613180565b50505b61376c8d838e016135e1565b90985096506101c08c013591508082111561378e57858661378b613180565b50505b61379a8d838e016135e1565b90965094506101e08c01359150808211156137bc5783846137b9613180565b50505b506137c98c828d016135e1565b915080935050809150509295985092959850929598565b60008060008061020085870312156137ff5783846137fc613180565b50505b6138098686613643565b93506101c085013592506101e085013567ffffffffffffffff811115613836578283613833613180565b50505b613842878288016135e1565b95989497509550505050565b600080600080600080610220878903121561387057818261386d613180565b50505b61387a8888613643565b95506101c087013594506101e087013567ffffffffffffffff808211156138a85783846138a5613180565b50505b6138b48a838b016135e1565b90965094506102008901359150808211156138d65783846138d3613180565b50505b506138e389828a016135e1565b979a9699509497509295939492505050565b60006101c080838503121561391157818261390e613180565b50505b61391a816145aa565b9050613925836135d6565b8152613933602084016135d6565b6020820152613944604084016135d6565b6040820152613955606084016135d6565b6060820152613966608084016135d6565b608082015261397760a084016135d6565b60a082015261398860c084016135d6565b60c082015260e08381013590820152610100808401359082015261012080840135908201526101408084013590820152610160808401359082015261018080840135908201526101a0928301359281019290925250919050565b6000806000606084860312156139ff5782836139fc613180565b50505b833592506020840135613a11816145d2565b91506040840135613a21816145d2565b809150509250925092565b6001600160a01b03169052565b60008284528282602086013780602084860101526020601f19601f85011685010190509392505050565b613a7582613a70836135d6565b613a2c565b613a81602082016135d6565b613a8e6020840182613a2c565b50613a9b604082016135d6565b613aa86040840182613a2c565b50613ab5606082016135d6565b613ac26060840182613a2c565b50613acf608082016135d6565b613adc6080840182613a2c565b50613ae960a082016135d6565b613af660a0840182613a2c565b50613b0360c082016135d6565b613b1060c0840182613a2c565b5060e08181013590830152610100808201359083015261012080820135908301526101408082013590830152610160808201359083015261018080820135908301526101a090810135910152565b613b69828251613a2c565b6020810151613b7b6020840182613a2c565b506040810151613b8e6040840182613a2c565b506060810151613ba16060840182613a2c565b506080810151613bb46080840182613a2c565b5060a0810151613bc760a0840182613a2c565b5060c0810151613bda60c0840182613a2c565b5060e081015160e0830152610100808201519083015261012081810151908301526101408181015190830152610160818101519083015261018081810151908301526101a08181015181840152505050565b6000828483379101908152919050565b6001600160a01b0391909116815260200190565b901515815260200190565b90815260200190565b8781526001600160a01b0387811660208301528681166040830152851660608201526080810184905260c060a08201819052600090613ca69083018486613a39565b9998505050505050505050565b6020808252600790820152662352523a30303160c81b604082015260600190565b60208082526006908201526523503a30313760d01b604082015260600190565b60208082526007908201526611a9261d18181960c91b604082015260600190565b60208082526006908201526511a81d18191b60d11b604082015260600190565b6020808252600790820152662352523a30333360c81b604082015260600190565b60208082526006908201526523503a30303360d01b604082015260600190565b60208082526006908201526511a31d18191960d11b604082015260600190565b60208082526007908201526623414c3a30303360c81b604082015260600190565b60208082526006908201526523503a30313360d01b604082015260600190565b60208082526006908201526508d40e8c0c0d60d21b604082015260600190565b602080825260079082015266046a498746060760cb1b604082015260600190565b60208082526006908201526508d18e8c0c8d60d21b604082015260600190565b60208082526007908201526611a0a61d18181b60c91b604082015260600190565b60208082526006908201526523433a30323360d01b604082015260600190565b60208082526007908201526623524c3a30303760c81b604082015260600190565b602080825260069082015265023463a3032360d41b604082015260600190565b60208082526007908201526611a0a91d18199960c91b604082015260600190565b60208082526006908201526523463a30313960d01b604082015260600190565b60208082526007908201526623414c3a30303160c81b604082015260600190565b60208082526006908201526508d40e8c0c4d60d21b604082015260600190565b60208082526006908201526511a81d18181960d11b604082015260600190565b602080825260069082015265023503a3031360d41b604082015260600190565b60208082526006908201526523503a30303160d01b604082015260600190565b60208082526007908201526623414c3a30303560c81b604082015260600190565b60208082526006908201526511a19d18191960d11b604082015260600190565b60208082526006908201526511a31d18189b60d11b604082015260600190565b60208082526006908201526523503a30313560d01b604082015260600190565b6020808252600790820152662341523a30303160c81b604082015260600190565b60208082526006908201526523433a30313960d01b604082015260600190565b60208082526007908201526611a0a61d18181960c91b604082015260600190565b60208082526006908201526523463a30323360d01b604082015260600190565b60208082526007908201526608d0530e8c0c0d60ca1b604082015260600190565b60208082526006908201526523503a30333160d01b604082015260600190565b60208082526006908201526511a81d18189b60d11b604082015260600190565b60208082526006908201526523503a30303560d01b604082015260600190565b60208082526006908201526523433a30323160d01b604082015260600190565b60208082526006908201526523503a30303960d01b604082015260600190565b602080825260069082015265046a0746062760d31b604082015260600190565b6020808252600790820152662352413a30333360c81b604082015260600190565b60208082526006908201526523503a30313160d01b604082015260600190565b60208082526007908201526611a0a09d18199960c91b604082015260600190565b60208082526006908201526523433a30323560d01b604082015260600190565b60208082526006908201526511a81d18189960d11b604082015260600190565b60208082526006908201526523463a30323160d01b604082015260600190565b60208082526006908201526511a81d18181b60d11b604082015260600190565b610160810161427482613a70856135d6565b614280602084016135d6565b61428d6020840182613a2c565b5061429a604084016135d6565b6142a76040840182613a2c565b506142b4606084016135d6565b6142c16060840182613a2c565b506142ce608084016135d6565b6142db6080840182613a2c565b506142e860a084016135d6565b6142f560a0840182613a2c565b5061430260c084016135d6565b61430f60c0840182613a2c565b5060e083810135908301526101008084013590830152610120808401359083015261014092830135929091019190915290565b6101608101614352828451613a2c565b60208301516143646020840182613a2c565b5060408301516143776040840182613a2c565b50606083015161438a6060840182613a2c565b50608083015161439d6080840182613a2c565b5060a08301516143b060a0840182613a2c565b5060c08301516143c360c0840182613a2c565b5060e083015160e08301526101008084015190830152610120838101519083015261014083810151818401525092915050565b6000602080835283518184015280840151604084015260408401516060808501528051806080860152835b8181101561443d5783818401015186820160a001528301614421565b8181111561444e578460a083880101525b50601f01601f19169390930160a001949350505050565b61020081016144748286613a63565b6101c08201939093526001600160a01b03919091166101e090910152919050565b60006102406144a4838b613a63565b886101c0840152806101e08401526144bf818401888a613a39565b90508281036102008401526144d5818688613a39565b91505060018060a01b03831661022083015298975050505050505050565b6101c08101612bab8284613b5e565b6000610240614511838c613b5e565b6001600160a01b038a166101c08401526101e08301819052614536818401898b613a39565b905082810361020084015261454c818789613a39565b9050828103610220840152614562818587613a39565b9b9a5050505050505050505050565b6060810182518252602083015160208301526040830151604083015292915050565b9182526001600160a01b0316602082015260400190565b6000604051905081810181811067ffffffffffffffff821117156145ca57fe5b604052919050565b6001600160a01b03811681146115015760008061294861318056fe45434453413a20696e76616c6964207369676e6174757265202773272076616c756545434453413a20696e76616c6964207369676e6174757265202776272076616c75655361666545524332303a204552433230206f7065726174696f6e20646964206e6f74207375636365656460806040523480156200001c5760008062000019620000ad565b50505b506040516200123a3803806200123a833981810160405260208110156200004d576000806200004a620000ad565b50505b8101908080519250600191508190506000620000686200011a565b50505080600160006101000a816200007f6200017e565b816001600160a01b0302191690836001600160a01b0316021790620000a36200011a565b50505050620001cb565b632a2a7adb598160e01b8152600481016020815285602082015260005b86811015620000e7578086015182820160400152602001620000ca565b506020828760640184336000905af158600e01573d6000803e3d6000fd5b3d6001141558600a015760016000f35b505050565b6322bd64c0598160e01b8152836004820152846024820152600081604483336000905af158600e01573d6000803e3d6000fd5b3d6001141558600a015760016000f35b60005b6040811015620001795760008282015260200162000160565b505050565b6303daa959598160e01b8152836004820152602081602483336000905af158600e01573d6000803e3d6000fd5b3d6001141558600a015760016000f35b8051600082529350602062000160565b61105f80620001db6000396000f3fe6080604052600436106100295760003560e01c806396f32fb814610037578063cf9a360414610071575b600080610034610cb4565b50505b34801561004c57600080610049610cb4565b50505b50610055610134565b6040516001600160a01b03909116815260200160405180910390f35b610132600480360360c08110156100905760008061008d610cb4565b50505b8135916001600160a01b036020820135811692604083013582169260608101359092169160808101359181019060c0810160a08201356401000000008111156100e1576000806100de610cb4565b50505b8201836020820111156100fc576000806100f9610cb4565b50505b8035906020019184600183028401116401000000008311171561012757600080610124610cb4565b50505b509092509050610156565b005b6000806001610141610d1f565b906101000a90046001600160a01b0316905090565b60026000610162610d1f565b14156101bd5760405162461bcd60e51b815260206004820152601f60248201527f5265656e7472616e637947756172643a207265656e7472616e742063616c6c006044820152606401604051809103906101ba610cb4565b50505b60028060006101ca610d7a565b50505060016000906101da610d1f565b906101000a90046001600160a01b03166001600160a01b03165a6101fc610dc8565b6001600160a01b03161461024a5760405162461bcd60e51b8152602060048201526008602482015267234f544d3a30323760c01b604482015260640160405180910390610247610cb4565b50505b600061025586610429565b90508061026757610267868886610436565b600080886001600160a01b031683610280576000610282565b865b868660405180838380828437808301925050509250505060006040518083038185875a6102ad610e0e565b505050505050925050503d80600081146102e3576040513d603f01601f191681016040523d815291503d6000602084013e6102e8565b606091505b50915091508161030d576102fd888888610493565b8261030d5761030d888a886104ba565b897fbf49bd2de448d90a19e0510ab1030fead50ebfc64a4f112ca42535ae79fbab798a8a8a8a8a8a888a6040516001600160a01b03808a1682528881166020830152871660408201526060810186905281151560c082015260e06080820181815290820185905260a082016101008301878780828437600083820152601f01601f19169091018481038352905085818151815260200191508051906020019080838360005b838110156103ca5780820151838201526020016103b2565b50505050905090810190601f1680156103f75780820380516001836020036101000a031916815260200191505b509a505050505050505050505060405180910390a250505060016000819061041d610d7a565b50505050505050505050565b6001600160a01b03161590565b61043f83610429565b156104835760405162461bcd60e51b815260206004820152600760248201526608d2504e8c0ccd60ca1b604482015260640160405180910390610480610cb4565b50505b61048e838383610512565b505050565b61049c83610429565b6104b0576104ab838383610694565b61048e565b61048e828261069f565b6104c383610429565b156105075760405162461bcd60e51b815260206004820152600760248201526608d1104e8c0ccd60ca1b604482015260640160405180910390610504610cb4565b50505b61048e83838361074a565b600061063082856001600160a01b031663dd62ed3e5a63996d79a5598160e01b8152602081600483336000905af158600e01573d6000803e3d6000fd5b3d6001141558600a015760016000f35b8051925060005b604081101561057d57600082820152602001610566565b505050876040516001600160e01b031960e085901b1681526001600160a01b0392831660048201529116602482015260440160206040518083038186806105c2610ef9565b1580156105d7576000806105d4610cb4565b50505b505a6105e1610f45565b5050505050158015610600573d6000803e3d60006105fd610cb4565b50505b505050506040513d602081101561061f5760008061061c610cb4565b50505b810190808051939250506108809050565b905061068e8463095ea7b360e01b85846040516001600160a01b0390921660248301526044820152606401604051602081830303815290604052906001600160e01b0319166020820180516001600160e01b031690911790526108eb565b50505050565b61048e8383836109ab565b6000826001600160a01b03168260405160006040518083038185875a6106c3610e0e565b505050505050925050503d80600081146106f9576040513d603f01601f191681016040523d815291503d6000602084013e6106fe565b606091505b505090508061048e5760405162461bcd60e51b8152602060048201526007602482015266046a88a746064760cb1b604482015260640160405180910390610743610cb4565b5050505050565b60006106308260405160608101604052602980825261100c6020830139866001600160a01b031663dd62ed3e5a63996d79a5598160e01b8152602081600483336000905af158600e01573d6000803e3d6000fd5b3d6001141558600a015760016000f35b8051925060005b60408110156107cc576000828201526020016107b5565b505050886040516001600160e01b031960e085901b1681526001600160a01b039283166004820152911660248201526044016020604051808303818680610811610ef9565b15801561082657600080610823610cb4565b50505b505a610830610f45565b505050505015801561084f573d6000803e3d600061084c610cb4565b50505b505050506040513d602081101561086e5760008061086b610cb4565b50505b8101908080519493925050610a079050565b6000828201838110156108e25760405162461bcd60e51b815260206004820152601b60248201527f536166654d6174683a206164646974696f6e206f766572666c6f7700000000006044820152606401604051809103906108df610cb4565b50505b90505b92915050565b6000610936826040516040808201905260208082527f5361666545524332303a206c6f772d6c6576656c2063616c6c206661696c6564908201526001600160a01b0386169190610aac565b905060008151111561048e57602081018151602081101561095f5760008061095c610cb4565b50505b810190808051925061048e9150505760405162461bcd60e51b815260040180806020018281038252602a815260200180611035602a913960400191505060405180910390610743610cb4565b61048e8363a9059cbb60e01b84846040516001600160a01b0390921660248301526044820152606401604051602081830303815290604052906001600160e01b0319166020820180516001600160e01b031690911790526108eb565b60008184841115610a9f5760405162461bcd60e51b81526004018080602001828103825283818151815260200191508051906020019080838360005b83811015610a5b578082015183820152602001610a43565b50505050905090810190601f168015610a885780820380516001836020036101000a031916815260200191505b509250505060405180910390610a9c610cb4565b50505b50508183035b9392505050565b6060610ab784610bdb565b610b105760405162461bcd60e51b815260206004820152601d60248201527f416464726573733a2063616c6c20746f206e6f6e2d636f6e7472616374000000604482015260640160405180910390610b0d610cb4565b50505b600080856001600160a01b0316856040518082805190602001908083835b60208310610b4d5780518252601f199092019160209182019101610b2e565b6001836020036101000a0380198251168184511680821785525050505050509050019150506000604051808303816000865a610b87610e0e565b5050505050509150503d8060008114610bbc576040513d603f01601f191681016040523d815291503d6000602084013e610bc1565b606091505b5091509150610bd1828286610bf0565b9695505050505050565b60008082610be7610ef9565b15159392505050565b60608315610bff575081610aa5565b600083511115610c205782518084602001610c18610cb4565b505050610aa5565b8160405162461bcd60e51b81526004018080602001828103825283818151815260200191508051906020019080838360005b83811015610c6a578082015183820152602001610c52565b50505050905090810190601f168015610c975780820380516001836020036101000a031916815260200191505b509250505060405180910390610cab610cb4565b50509392505050565b632a2a7adb598160e01b8152600481016020815285602082015260005b86811015610cec578086015182820160400152602001610cd1565b506020828760640184336000905af158600e01573d6000803e3d6000fd5b3d6001141558600a015760016000f35b505050565b6303daa959598160e01b8152836004820152602081602483336000905af158600e01573d6000803e3d6000fd5b3d6001141558600a015760016000f35b8051935060005b604081101561048e57600082820152602001610d63565b6322bd64c0598160e01b8152836004820152846024820152600081604483336000905af158600e01573d6000803e3d6000fd5b3d6001141558600a015760016000f35b600081526020610d63565b6373509064598160e01b8152602081600483336000905af158600e01573d6000803e3d6000fd5b3d6001141558600a015760016000f35b80516000825293506020610d63565b6385979f76598160e01b8152610e3f565b80808311156108e5575090919050565b80808310156108e5575090919050565b836004820152846024820152606060448201528760648201526084810160005b89811015610e77578089015182820152602001610e5f565b506060828a60a40184336000905af158600e01573d6000803e3d6000fd5b3d6001141558600a015760016000f35b815160408301513d6000853e8c8c82606087013350600060045af15059610ecc8e3d610e2f565b8d01610ed88187610e1f565b5b82811015610eed5760008152602001610ed9565b50929d50505050505050565b638435035b598160e01b8152836004820152602081602483336000905af158600e01573d6000803e3d6000fd5b3d6001141558600a015760016000f35b80516000825293506020610d63565b638540661f598160e01b8152836004820152846024820152606060448201528660648201526084810160005b88811015610f89578088015182820152602001610f71565b506060828960a40184336000905af158600e01573d6000803e3d6000fd5b3d6001141558600a015760016000f35b815160408301513d6000853e8b8b82606087013350600060045af15059610fde8d3d610e2f565b8c01610fea8187610e1f565b5b82811015610fff5760008152602001610feb565b50929c5050505050505056fe5361666545524332303a2064656372656173656420616c6c6f77616e63652062656c6f77207a65726f5361666545524332303a204552433230206f7065726174696f6e20646964206e6f742073756363656564",
  "devdoc": {
    "author": "Connext <support@connext.network>",
    "kind": "dev",
    "methods": {
      "addAssetId(address)": {
        "params": {
          "assetId": "AssetId to add"
        }
      },
      "addLiquidity(uint256,address,address)": {
        "params": {
          "amount": "The amount of liquidity to add for the router",
          "assetId": "The address (or `address(0)` if native asset) of the                asset you're adding liquidity for",
          "router": "The router you are adding liquidity on behalf of"
        }
      },
      "addRouter(address)": {
        "params": {
          "router": "Router address to add"
        }
      },
      "cancel((address,address,address,address,address,address,address,bytes32,bytes32,uint256,uint256,uint256,uint256,uint256),uint256,bytes)": {
        "params": {
          "relayerFee": "The fee that should go to the relayer when they are                   calling the function for the user",
          "signature": "The user's signature that allows a transaction to be                  cancelled on the receiving chain.",
          "txData": "All of the data (invariant and variant) for a crosschain               transaction. The variant data provided is checked against               what was stored when the `prepare` function was called."
        }
      },
      "fulfill((address,address,address,address,address,address,address,bytes32,bytes32,uint256,uint256,uint256,uint256,uint256),uint256,bytes,bytes)": {
        "params": {
          "callData": "The calldata to be sent to and executed by the                  `FulfillHelper`",
          "relayerFee": "The fee that should go to the relayer when they are                   calling the function on the receiving chain for the user",
          "signature": "The users signature on the invariant data + fee that                  can be used by the router to unlock the transaction on                   the sending chain",
          "txData": "All of the data (invariant and variant) for a crosschain               transaction. The variant data provided is checked against               what was stored when the `prepare` function was called."
        }
      },
      "prepare((address,address,address,address,address,address,address,uint256,uint256,bytes32,bytes32),uint256,uint256,bytes,bytes,bytes)": {
        "params": {
          "amount": "The amount of the transaction on this chain",
          "bidSignature": "The signature of the bidder on the encoded bid for                     this transaction. Only used within the function for                     event emission. The validity of the bid and                     bidSignature are enforced offchain",
          "encodedBid": "The encoded bid that was accepted by the user for this                   crosschain transfer. It is supplied as a param to the                   function but is only used in event emission",
          "encryptedCallData": "The calldata to be executed when the tx is                          fulfilled. Used in the function to allow the user                          to reconstruct the tx from events. Hash is stored                          onchain to prevent shenanigans.",
          "expiry": "The block.timestamp when the transaction will no longer be               fulfillable and is freely cancellable on this chain",
          "invariantData": "The data for a crosschain transaction that will                      not change between sending and receiving chains.                      The hash of this data is used as the key to store                       the inforamtion that does change between chains                       (amount, expiry,preparedBlock) for verification"
        }
      },
      "removeAssetId(address)": {
        "params": {
          "assetId": "AssetId to remove"
        }
      },
      "removeLiquidity(uint256,address,address)": {
        "params": {
          "amount": "The amount of liquidity to remove for the router",
          "assetId": "The address (or `address(0)` if native asset) of the                asset you're removing liquidity for",
          "recipient": "The address that will receive the liquidity being removed"
        }
      },
      "removeRouter(address)": {
        "params": {
          "router": "Router address to remove"
        }
      }
    },
    "stateVariables": {
      "MAX_TIMEOUT": {
        "details": "Maximum timeout"
      },
      "MIN_TIMEOUT": {
        "details": "Minimum timeout (will be the lowest on the receiving chain)"
      },
      "approvedAssets": {
        "details": "Mapping of allowed assetIds on same chain of contract"
      },
      "approvedRouters": {
        "details": "Mapping of allowed router addresses"
      },
      "chainId": {
        "details": "The chain id of the contract, is passed in to avoid any evm issues"
      },
      "routerBalances": {
        "details": "Mapping of router to balance specific to asset"
      },
      "variantTransactionData": {
        "details": "Mapping of hash of `InvariantTransactionData` to the hash"
      }
    },
    "title": "TransactionManager",
    "version": 1
  },
  "userdoc": {
    "kind": "user",
    "methods": {
      "acceptProposedOwner()": {
        "notice": "Transfers ownership of the contract to a new account (`newOwner`). Can only be called by the current owner."
      },
      "addAssetId(address)": {
        "notice": "Used to add assets on same chain as contract that can         be transferred."
      },
      "addLiquidity(uint256,address,address)": {
        "notice": "This is used by any router to increase their available         liquidity for a given asset."
      },
      "addRouter(address)": {
        "notice": "Used to add routers that can transact crosschain"
      },
      "cancel((address,address,address,address,address,address,address,bytes32,bytes32,uint256,uint256,uint256,uint256,uint256),uint256,bytes)": {
        "notice": "Any crosschain transaction can be cancelled after it has been         created to prevent indefinite lock up of funds. After the         transaction has expired, anyone can cancel it. Before the         expiry, only the recipient of the funds on the given chain is         able to cancel. On the sending chain, this means only the router         is able to cancel before the expiry, while only the user can         prematurely cancel on the receiving chain."
      },
      "delay()": {
        "notice": "Returns the delay period before a new owner can be accepted."
      },
      "fulfill((address,address,address,address,address,address,address,bytes32,bytes32,uint256,uint256,uint256,uint256,uint256),uint256,bytes,bytes)": {
        "notice": "This function completes a crosschain transaction. When called on         the receiving chain, the user reveals their signature on the         invariant parts of the transaction data and is sent the          appropriate amount. The router then uses this signature to         unlock the corresponding funds on the receiving chain, which are         then added back to their available liquidity. The user includes a         relayer fee since it is not assumed they will have gas on the         receiving chain. This function *must* be called before the         transaction expiry has elapsed."
      },
      "owner()": {
        "notice": "Returns the address of the current owner."
      },
      "prepare((address,address,address,address,address,address,address,uint256,uint256,bytes32,bytes32),uint256,uint256,bytes,bytes,bytes)": {
        "notice": "This function creates a crosschain transaction. When called on         the sending chain, the user is expected to lock up funds. When         called on the receiving chain, the router deducts the transfer         amount from the available liquidity. The majority of the         information about a given transfer does not change between chains,         with three notable exceptions: `amount`, `expiry`, and          `preparedBlock`. The `amount` and `expiry` are decremented         between sending and receiving chains to provide an incentive for          the router to complete the transaction and time for the router to         fulfill the transaction on the sending chain after the unlocking         signature is revealed, respectively."
      },
      "proposeNewOwner(address)": {
        "notice": "Sets the timestamp for an owner to be proposed, and sets the newly proposed owner as step 1 in a 2-step process"
      },
      "proposed()": {
        "notice": "Returns the address of the proposed owner."
      },
      "proposedTimestamp()": {
        "notice": "Returns the address of the proposed owner."
      },
      "removeAssetId(address)": {
        "notice": "Used to remove assets on same chain as contract that can         be transferred."
      },
      "removeLiquidity(uint256,address,address)": {
        "notice": "This is used by any router to decrease their available         liquidity for a given asset."
      },
      "removeRouter(address)": {
        "notice": "Used to remove routers that can transact crosschain"
      },
      "renounced()": {
        "notice": "Indicates if the ownership has been renounced() by         checking if current owner is address(0)"
      }
    },
    "notice": "This contract holds the logic to facilitate crosschain transactions.         Transactions go through three phases:         1. Route Auction: User broadcasts to our network signalling their          desired route. Routers respond with sealed bids containing          commitments to fulfilling the transaction within a certain time and          price range.         2. Prepare: Once the auction is completed, the transaction can be          prepared. The user submits a transaction to `TransactionManager`          contract on sender-side chain containing router's signed bid. This          transaction locks up the users funds on the sending chiain. Upon          detecting an event containing their signed bid from the chain,          router submits the same transaction to `TransactionManager` on the          receiver-side chain, and locks up a corresponding amount of          liquidity. The amount locked on the receiving chain is `sending          amount - auction fee` so the router is incentivized to complete the          transaction.         3. Fulfill: Upon detecting the `TransactionPrepared` event on the          receiver-side chain, the user signs a message and sends it to a          relayer, who will earn a fee for submission. The relayer (which may          be the router) then submits the message to the `TransactionManager`          to complete their transaction on receiver-side chain and claim the          funds locked by the router. A relayer is used here to allow users          to submit transactions with arbitrary calldata on the receiving          chain without needing gas to do so. The router then submits the          same signed message and completes transaction on sender-side,          unlocking the original `amount`.         If a transaction is not fulfilled within a fixed timeout, it          reverts and can be reclaimed by the party that called `prepare` on          each chain (initiator). Additionally, transactions can be cancelled          unilaterally by the person owed funds on that chain (router for          sending chain, user for receiving chain) prior to expiry.",
    "version": 1
  },
  "storageLayout": {
    "storage": [
      {
        "astId": 1195,
        "contract": "contracts/TransactionManager.sol:TransactionManager",
        "label": "_status",
        "offset": 0,
        "slot": "0",
        "type": "t_uint256"
      },
      {
        "astId": 1229,
        "contract": "contracts/TransactionManager.sol:TransactionManager",
        "label": "_owner",
        "offset": 0,
        "slot": "1",
        "type": "t_address"
      },
      {
        "astId": 1231,
        "contract": "contracts/TransactionManager.sol:TransactionManager",
        "label": "_proposed",
        "offset": 0,
        "slot": "2",
        "type": "t_address"
      },
      {
        "astId": 1233,
        "contract": "contracts/TransactionManager.sol:TransactionManager",
        "label": "_proposedTimestamp",
        "offset": 0,
        "slot": "3",
        "type": "t_uint256"
      },
      {
        "astId": 1405,
        "contract": "contracts/TransactionManager.sol:TransactionManager",
        "label": "routerBalances",
        "offset": 0,
        "slot": "4",
        "type": "t_mapping(t_address,t_mapping(t_address,t_uint256))"
      },
      {
        "astId": 1410,
        "contract": "contracts/TransactionManager.sol:TransactionManager",
        "label": "approvedRouters",
        "offset": 0,
        "slot": "5",
        "type": "t_mapping(t_address,t_bool)"
      },
      {
        "astId": 1415,
        "contract": "contracts/TransactionManager.sol:TransactionManager",
        "label": "approvedAssets",
        "offset": 0,
        "slot": "6",
        "type": "t_mapping(t_address,t_bool)"
      },
      {
        "astId": 1420,
        "contract": "contracts/TransactionManager.sol:TransactionManager",
        "label": "variantTransactionData",
        "offset": 0,
        "slot": "7",
        "type": "t_mapping(t_bytes32,t_bytes32)"
      }
    ],
    "types": {
      "t_address": {
        "encoding": "inplace",
        "label": "address",
        "numberOfBytes": "20"
      },
      "t_bool": {
        "encoding": "inplace",
        "label": "bool",
        "numberOfBytes": "1"
      },
      "t_bytes32": {
        "encoding": "inplace",
        "label": "bytes32",
        "numberOfBytes": "32"
      },
      "t_mapping(t_address,t_bool)": {
        "encoding": "mapping",
        "key": "t_address",
        "label": "mapping(address => bool)",
        "numberOfBytes": "32",
        "value": "t_bool"
      },
      "t_mapping(t_address,t_mapping(t_address,t_uint256))": {
        "encoding": "mapping",
        "key": "t_address",
        "label": "mapping(address => mapping(address => uint256))",
        "numberOfBytes": "32",
        "value": "t_mapping(t_address,t_uint256)"
      },
      "t_mapping(t_address,t_uint256)": {
        "encoding": "mapping",
        "key": "t_address",
        "label": "mapping(address => uint256)",
        "numberOfBytes": "32",
        "value": "t_uint256"
      },
      "t_mapping(t_bytes32,t_bytes32)": {
        "encoding": "mapping",
        "key": "t_bytes32",
        "label": "mapping(bytes32 => bytes32)",
        "numberOfBytes": "32",
        "value": "t_bytes32"
      },
      "t_uint256": {
        "encoding": "inplace",
        "label": "uint256",
        "numberOfBytes": "32"
      }
    }
  }
}