{
  "address": "0x0048Cba93df3fA1e093134aB759075Dd747F7d72",
  "abi": [
    {
      "inputs": [],
      "name": "MerkleTreeManager__setArborist_alreadyArborist",
      "type": "error"
    },
    {
      "inputs": [],
      "name": "MerkleTreeManager__setArborist_zeroAddress",
      "type": "error"
    },
    {
      "inputs": [],
      "name": "ProposedOwnable__acceptProposedOwner_delayNotElapsed",
      "type": "error"
    },
    {
      "inputs": [],
      "name": "ProposedOwnable__onlyOwner_notOwner",
      "type": "error"
    },
    {
      "inputs": [],
      "name": "ProposedOwnable__onlyProposed_notProposedOwner",
      "type": "error"
    },
    {
      "inputs": [],
      "name": "ProposedOwnable__proposeNewOwner_invalidProposal",
      "type": "error"
    },
    {
      "inputs": [],
      "name": "ProposedOwnable__proposeNewOwner_noOwnershipChange",
      "type": "error"
    },
    {
      "inputs": [],
      "name": "ProposedOwnable__renounceOwnership_delayNotElapsed",
      "type": "error"
    },
    {
      "inputs": [],
      "name": "ProposedOwnable__renounceOwnership_invalidProposal",
      "type": "error"
    },
    {
      "inputs": [],
      "name": "ProposedOwnable__renounceOwnership_noProposal",
      "type": "error"
    },
    {
      "anonymous": false,
      "inputs": [
        {
          "indexed": false,
          "internalType": "uint8",
          "name": "version",
          "type": "uint8"
        }
      ],
      "name": "Initialized",
      "type": "event"
    },
    {
      "anonymous": false,
      "inputs": [
        {
          "indexed": true,
          "internalType": "address",
          "name": "proposedOwner",
          "type": "address"
        }
      ],
      "name": "OwnershipProposed",
      "type": "event"
    },
    {
      "anonymous": false,
      "inputs": [
        {
          "indexed": true,
          "internalType": "address",
          "name": "previousOwner",
          "type": "address"
        },
        {
          "indexed": true,
          "internalType": "address",
          "name": "newOwner",
          "type": "address"
        }
      ],
      "name": "OwnershipTransferred",
      "type": "event"
    },
    {
      "inputs": [],
      "name": "acceptProposedOwner",
      "outputs": [],
      "stateMutability": "nonpayable",
      "type": "function"
    },
    {
      "inputs": [
        {
          "internalType": "address",
          "name": "",
          "type": "address"
        }
      ],
      "name": "arborists",
      "outputs": [
        {
          "internalType": "bool",
          "name": "",
          "type": "bool"
        }
      ],
      "stateMutability": "view",
      "type": "function"
    },
    {
      "inputs": [],
      "name": "branch",
      "outputs": [
        {
          "internalType": "bytes32[32]",
          "name": "",
          "type": "bytes32[32]"
        }
      ],
      "stateMutability": "view",
      "type": "function"
    },
    {
      "inputs": [],
      "name": "count",
      "outputs": [
        {
          "internalType": "uint256",
          "name": "",
          "type": "uint256"
        }
      ],
      "stateMutability": "view",
      "type": "function"
    },
    {
      "inputs": [],
      "name": "delay",
      "outputs": [
        {
          "internalType": "uint256",
          "name": "",
          "type": "uint256"
        }
      ],
      "stateMutability": "view",
      "type": "function"
    },
    {
      "inputs": [
        {
          "internalType": "address",
          "name": "_arborist",
          "type": "address"
        }
      ],
      "name": "initialize",
      "outputs": [],
      "stateMutability": "nonpayable",
      "type": "function"
    },
    {
      "inputs": [
        {
          "internalType": "bytes32",
          "name": "leaf",
          "type": "bytes32"
        }
      ],
      "name": "insert",
      "outputs": [
        {
          "internalType": "bytes32",
          "name": "_root",
          "type": "bytes32"
        },
        {
          "internalType": "uint256",
          "name": "_count",
          "type": "uint256"
        }
      ],
      "stateMutability": "nonpayable",
      "type": "function"
    },
    {
      "inputs": [],
      "name": "owner",
      "outputs": [
        {
          "internalType": "address",
          "name": "",
          "type": "address"
        }
      ],
      "stateMutability": "view",
      "type": "function"
    },
    {
      "inputs": [
        {
          "internalType": "address",
          "name": "newlyProposed",
          "type": "address"
        }
      ],
      "name": "proposeNewOwner",
      "outputs": [],
      "stateMutability": "nonpayable",
      "type": "function"
    },
    {
      "inputs": [],
      "name": "proposed",
      "outputs": [
        {
          "internalType": "address",
          "name": "",
          "type": "address"
        }
      ],
      "stateMutability": "view",
      "type": "function"
    },
    {
      "inputs": [],
      "name": "proposedTimestamp",
      "outputs": [
        {
          "internalType": "uint256",
          "name": "",
          "type": "uint256"
        }
      ],
      "stateMutability": "view",
      "type": "function"
    },
    {
      "inputs": [],
      "name": "renounceOwnership",
      "outputs": [],
      "stateMutability": "nonpayable",
      "type": "function"
    },
    {
      "inputs": [],
      "name": "renounced",
      "outputs": [
        {
          "internalType": "bool",
          "name": "",
          "type": "bool"
        }
      ],
      "stateMutability": "view",
      "type": "function"
    },
    {
      "inputs": [],
      "name": "root",
      "outputs": [
        {
          "internalType": "bytes32",
          "name": "",
          "type": "bytes32"
        }
      ],
      "stateMutability": "view",
      "type": "function"
    },
    {
      "inputs": [
        {
          "internalType": "address",
          "name": "newArborist",
          "type": "address"
        }
      ],
      "name": "setArborist",
      "outputs": [],
      "stateMutability": "nonpayable",
      "type": "function"
    },
    {
      "inputs": [],
      "name": "tree",
      "outputs": [
        {
          "internalType": "uint256",
          "name": "count",
          "type": "uint256"
        }
      ],
      "stateMutability": "view",
      "type": "function"
    }
  ],
  "transactionHash": "0x9f372926d6d17f8bdd5e6aba996a0e236732b39fe3af43d410343822d6d07a48",
  "args": [],
  "numDeployments": 2,
  "solcInputHash": "0fab695824bb3e9042cee88f25740cca",
  "bytecode": "0x608060405234801561001057600080fd5b506112ed806100206000396000f3fe608060405234801561001057600080fd5b50600436106101005760003560e01c80638da5cb5b11610097578063d1851c9211610066578063d1851c9214610213578063d232c22014610224578063ebf0c7171461023d578063fd54b2281461024557600080fd5b80638da5cb5b146101ba578063b1f8100d146101e5578063c4d66de8146101f8578063c5b350df1461020b57600080fd5b80634b72d0d4116100d35780634b72d0d4146101615780636a42b8f814610176578063715018a61461017f578063754b3b3b1461018757600080fd5b806306661abd146101055780631b373a981461011c5780632d287e43146101315780633cf52ffb14610159575b600080fd5b6054545b6040519081526020015b60405180910390f35b61012f61012a366004611051565b61024f565b005b61014461013f366004611081565b610305565b60408051928352602083019190915201610113565b600254610109565b6101696103e0565b604051610113919061109a565b62093a80610109565b61012f61041c565b6101aa610195366004611051565b60556020526000908152604090205460ff1681565b6040519015158152602001610113565b6000546201000090046001600160a01b03165b6040516001600160a01b039091168152602001610113565b61012f6101f3366004611051565b6104e1565b61012f610206366004611051565b610595565b61012f6106b0565b6001546001600160a01b03166101cd565b6101aa6000546201000090046001600160a01b03161590565b61010961070b565b6054546101099081565b6000546201000090046001600160a01b03163314610280576040516311a8a1bb60e31b815260040160405180910390fd5b6001600160a01b0381166102a757604051630c11a52d60e11b815260040160405180910390fd5b6001600160a01b03811660009081526055602052604090205460ff16156102e15760405163606e957b60e11b815260040160405180910390fd5b6001600160a01b03166000908152605560205260409020805460ff19166001179055565b33600090815260556020526040812054819060ff166103575760405162461bcd60e51b815260206004820152600960248201526808585c989bdc9a5cdd60ba1b60448201526064015b60405180910390fd5b6040805161044081018083526000926034918391820190839060209082845b81548152602001906001019080831161037657505050918352505060209182015491015290506103a68185610763565b90506103b18161089f565b6020808301518351929550935082916034916103ce918391610fbf565b50602091820151910155509092909150565b6103e8610ffd565b604080516104008101918290529060349060209082845b8154815260200190600101908083116103ff575050505050905090565b6000546201000090046001600160a01b0316331461044d576040516311a8a1bb60e31b815260040160405180910390fd5b60025460000361047057604051630e4b303f60e21b815260040160405180910390fd5b62093a806002544261048291906110e6565b116104a0576040516386d4b3f160e01b815260040160405180910390fd5b6001546001600160a01b0316156104ca576040516323295ef960e01b815260040160405180910390fd5b6001546104df906001600160a01b03166108b2565b565b6000546201000090046001600160a01b03163314610512576040516311a8a1bb60e31b815260040160405180910390fd5b6001546001600160a01b03828116911614801561053757506001600160a01b03811615155b15610555576040516311bc066560e11b815260040160405180910390fd5b6000546001600160a01b0380831662010000909204160361058957604051634a2fb73f60e11b815260040160405180910390fd5b61059281610922565b50565b600054610100900460ff16158080156105b55750600054600160ff909116105b806105cf5750303b1580156105cf575060005460ff166001145b6106325760405162461bcd60e51b815260206004820152602e60248201527f496e697469616c697a61626c653a20636f6e747261637420697320616c72656160448201526d191e481a5b9a5d1a585b1a5e995960921b606482015260840161034e565b6000805460ff191660011790558015610655576000805461ff0019166101001790555b61065e82610970565b6106666109a0565b80156106ac576000805461ff0019169055604051600181527f7f26b83ff96e1f2b6a682f133852f6798a09c465da95921460cefb38474024989060200160405180910390a15b5050565b6001546001600160a01b031633146106db576040516311a7f27160e11b815260040160405180910390fd5b62093a80600254426106ed91906110e6565b116104ca5760405163d39c12bb60e01b815260040160405180910390fd5b604080516104408101808352600092839291603491839190820190839060209082845b81548152602001906001019080831161072e575050509183525050602091820154910152905061075d8161089f565b91505090565b61076b61101c565b6001610779602060026111e1565b61078391906110e6565b8360200151106107c85760405162461bcd60e51b815260206004820152601060248201526f1b595c9adb19481d1c995948199d5b1b60821b604482015260640161034e565b6001836020018181516107db91906111ed565b905250602083015160005b602081101561088b578160011660010361081f5784518490826020811061080f5761080f611205565b6020020152508391506108999050565b8451816020811061083257610832611205565b602002015184604051602001610852929190918252602082015260400190565b604051602081830303815290604052805190602001209350600282610877919061121b565b9150806108838161123d565b9150506107e6565b50610894611256565b839150505b92915050565b6000610899826108ad6109cf565b610e90565b600080546001600160a01b038381166201000081810262010000600160b01b031985161785556002859055600180546001600160a01b031916905560405193049190911692909183917f8be0079c531659141344cd1fd0a4f28419497f9722a3daafe3b4186f6b6457e091a35050565b42600255600180546001600160a01b0319166001600160a01b0383169081179091556040517f6ab4d119f23076e8ad491bc65ce85f017fb0591dce08755ba8591059cc51737a90600090a250565b600054610100900460ff166109975760405162461bcd60e51b815260040161034e9061126c565b61059281610f68565b600054610100900460ff166109c75760405162461bcd60e51b815260040161034e9061126c565b6104df610f8f565b6109d7610ffd565b600081527fad3228b676f7d3cd4284a5443f17f1962b36e491b30a40b2405849e597ba5fb560208201527fb4c11951957c6f8f642c4af61cd6b24640fec6dc7fc607ee8206a99e92410d3060408201527f21ddb9a356815c3fac1026b6dec5df3124afbadb485c9ba5a3e3398a04b7ba8560608201527fe58769b32a1beaf1ea27375a44095a0d1fb664ce2dd358e7fcbfb78c26a1934460808201527f0eb01ebfc9ed27500cd4dfc979272d1f0913cc9f66540d7e8005811109e1cf2d60a08201527f887c22bd8750d34016ac3c66b5ff102dacdd73f6b014e710b51e8022af9a196860c08201527fffd70157e48063fc33c97a050f7f640233bf646cc98d9524c6b92bcf3ab56f8360e08201527f9867cc5f7f196b93bae1e27e6320742445d290f2263827498b54fec539f756af6101008201527fcefad4e508c098b9a7e1d8feb19955fb02ba9675585078710969d3440f5054e06101208201527ff9dc3e7fe016e050eff260334f18a5d4fe391d82092319f5964f2e2eb7c1c3a56101408201527ff8b13a49e282f609c317a833fb8d976d11517c571d1221a265d25af778ecf8926101608201527f3490c6ceeb450aecdc82e28293031d10c7d73bf85e57bf041a97360aa2c5d99c6101808201527fc1df82d9c4b87413eae2ef048f94b4d3554cea73d92b0f7af96e0271c691e2bb6101a08201527f5c67add7c6caf302256adedf7ab114da0acfe870d449a3a489f781d659e8becc6101c08201527fda7bce9f4e8618b6bd2f4132ce798cdc7a60e7e1460a7299e3c6342a579626d26101e08201527f2733e50f526ec2fa19a22b31e8ed50f23cd1fdf94c9154ed3a7609a2f1ff981f6102008201527fe1d3b5c807b281e4683cc6d6315cf95b9ade8641defcb32372f1c126e398ef7a6102208201527f5a2dce0a8a7f68bb74560f8f71837c2c2ebbcbf7fffb42ae1896f13f7c7479a06102408201527fb46a28b6f55540f89444f63de0378e3d121be09e06cc9ded1c20e65876d36aa06102608201527fc65e9645644786b620e2dd2ad648ddfcbf4a7e5b1a3a4ecfe7f64667a3f0b7e26102808201527ff4418588ed35a2458cffeb39b93d26f18d2ab13bdce6aee58e7b99359ec2dfd96102a08201527f5a9c16dc00d6ef18b7933a6f8dc65ccb55667138776f7dea101070dc8796e3776102c08201527f4df84f40ae0c8229d0d6069e5c8f39a7c299677a09d367fc7b05e3bc380ee6526102e08201527fcdc72595f74c7b1043d0e1ffbab734648c838dfb0527d971b602bc216c9619ef6103008201527f0abf5ac974a1ed57f4050aa510dd9c74f508277b39d7973bb2dfccc5eeb0618d6103208201527fb8cd74046ff337f0a7bf2c8e03e10f642c1886798d71806ab1e888d9e5ee87d06103408201527f838c5655cb21c6cb83313b5a631175dff4963772cce9108188b34ac87c81c41e6103608201527f662ee4dd2dd7b2bc707961b1e646c4047669dcb6584f0d8d770daf5d7e7deb2e6103808201527f388ab20e2573d171a88108e79d820e98f26c0b84aa8b2f4aa4968dbb818ea3226103a08201527f93237c50ba75ee485f4c22adf2f741400bdf8d6a9cc7df7ecae576221665d7356103c08201527f8448818bb4ae4562849e949e17ac16e0be16688e156b5cf15e098c627c0056a96103e082015290565b6020820151600090815b6020811015610f60578451600183831c16906000908360208110610ec057610ec0611205565b6020020151905081600103610f00576040805160208101839052908101869052606001604051602081830303815290604052805190602001209450610f4b565b84868460208110610f1357610f13611205565b6020020151604051602001610f32929190918252602082015260400190565b6040516020818303038152906040528051906020012094505b50508080610f589061123d565b915050610e9a565b505092915050565b600054610100900460ff166102e15760405162461bcd60e51b815260040161034e9061126c565b600054610100900460ff16610fb65760405162461bcd60e51b815260040161034e9061126c565b6104df336108b2565b8260208101928215610fed579160200282015b82811115610fed578251825591602001919060010190610fd2565b50610ff992915061103c565b5090565b6040518061040001604052806020906020820280368337509192915050565b604051806040016040528061102f610ffd565b8152602001600081525090565b5b80821115610ff9576000815560010161103d565b60006020828403121561106357600080fd5b81356001600160a01b038116811461107a57600080fd5b9392505050565b60006020828403121561109357600080fd5b5035919050565b6104008101818360005b60208082106110b357506110c7565b8251845292830192909101906001016110a4565b50505092915050565b634e487b7160e01b600052601160045260246000fd5b6000828210156110f8576110f86110d0565b500390565b600181815b8085111561113857816000190482111561111e5761111e6110d0565b8085161561112b57918102915b93841c9390800290611102565b509250929050565b60008261114f57506001610899565b8161115c57506000610899565b8160018114611172576002811461117c57611198565b6001915050610899565b60ff84111561118d5761118d6110d0565b50506001821b610899565b5060208310610133831016604e8410600b84101617156111bb575081810a610899565b6111c583836110fd565b80600019048211156111d9576111d96110d0565b029392505050565b600061107a8383611140565b60008219821115611200576112006110d0565b500190565b634e487b7160e01b600052603260045260246000fd5b60008261123857634e487b7160e01b600052601260045260246000fd5b500490565b60006001820161124f5761124f6110d0565b5060010190565b634e487b7160e01b600052600160045260246000fd5b6020808252602b908201527f496e697469616c697a61626c653a20636f6e7472616374206973206e6f74206960408201526a6e697469616c697a696e6760a81b60608201526080019056fea2646970667358221220f2815d48acd93f513a10a80f0d0bf31f465db2389935471d2b860788ea4aec8764736f6c634300080f0033",
  "devdoc": {
    "kind": "dev",
    "methods": {
      "insert(bytes32)": {
        "params": {
          "leaf": "The leaf to be inserted into the tree."
        },
        "returns": {
          "_count": "Current node count (i.e. number of indices) AFTER the insertion of the new leaf, provided for convenience.",
          "_root": "Current root for convenience."
        }
      },
      "setArborist(address)": {
        "params": {
          "newArborist": "The new address to set as the current arborist."
        }
      }
    },
    "stateVariables": {
      "arborists": {
        "details": "This could be the root manager contract or a spoke connector contract, for example."
      }
    },
    "title": "MerkleTreeManager",
    "version": 1
  },
  "userdoc": {
    "kind": "user",
    "methods": {
      "acceptProposedOwner()": {
        "notice": "Transfers ownership of the contract to a new account (`newOwner`). Can only be called by the current owner."
      },
      "arborists(address)": {
        "notice": "The arborist contract that has permission to write to this tree."
      },
      "branch()": {
        "notice": "Returns the current branch."
      },
      "count()": {
        "notice": "Returns the number of inserted leaves in the tree (current index)."
      },
      "delay()": {
        "notice": "Returns the delay period before a new owner can be accepted."
      },
      "insert(bytes32)": {
        "notice": "Inserts the given leaf into the tree."
      },
      "owner()": {
        "notice": "Returns the address of the current owner."
      },
      "proposeNewOwner(address)": {
        "notice": "Sets the timestamp for an owner to be proposed, and sets the newly proposed owner as step 1 in a 2-step process"
      },
      "proposed()": {
        "notice": "Returns the address of the proposed owner."
      },
      "proposedTimestamp()": {
        "notice": "Returns the address of the proposed owner."
      },
      "renounceOwnership()": {
        "notice": "Renounces ownership of the contract after a delay"
      },
      "renounced()": {
        "notice": "Indicates if the ownership has been renounced() by checking if current owner is address(0)"
      },
      "root()": {
        "notice": "Calculates and returns the current root."
      },
      "setArborist(address)": {
        "notice": "Method for the current arborist to assign write permissions to a new arborist."
      },
      "tree()": {
        "notice": "Core data structure with which this contract is tasked with keeping custody. Writable only by the designated arborist."
      }
    },
    "notice": "Contains a Merkle tree instance and exposes read/write functions for the tree.",
    "version": 1
  },
  "storageLayout": {
    "storage": [
      {
        "astId": 138,
        "contract": "contracts/messaging/Merkle.sol:MerkleTreeManager",
        "label": "_initialized",
        "offset": 0,
        "slot": "0",
        "type": "t_uint8"
      },
      {
        "astId": 141,
        "contract": "contracts/messaging/Merkle.sol:MerkleTreeManager",
        "label": "_initializing",
        "offset": 1,
        "slot": "0",
        "type": "t_bool"
      },
      {
        "astId": 40336,
        "contract": "contracts/messaging/Merkle.sol:MerkleTreeManager",
        "label": "_owner",
        "offset": 2,
        "slot": "0",
        "type": "t_address"
      },
      {
        "astId": 40338,
        "contract": "contracts/messaging/Merkle.sol:MerkleTreeManager",
        "label": "_proposed",
        "offset": 0,
        "slot": "1",
        "type": "t_address"
      },
      {
        "astId": 40340,
        "contract": "contracts/messaging/Merkle.sol:MerkleTreeManager",
        "label": "_proposedOwnershipTimestamp",
        "offset": 0,
        "slot": "2",
        "type": "t_uint256"
      },
      {
        "astId": 40594,
        "contract": "contracts/messaging/Merkle.sol:MerkleTreeManager",
        "label": "__GAP",
        "offset": 0,
        "slot": "3",
        "type": "t_array(t_uint256)49_storage"
      },
      {
        "astId": 29954,
        "contract": "contracts/messaging/Merkle.sol:MerkleTreeManager",
        "label": "tree",
        "offset": 0,
        "slot": "52",
        "type": "t_struct(Tree)39016_storage"
      },
      {
        "astId": 29959,
        "contract": "contracts/messaging/Merkle.sol:MerkleTreeManager",
        "label": "arborists",
        "offset": 0,
        "slot": "85",
        "type": "t_mapping(t_address,t_bool)"
      },
      {
        "astId": 29963,
        "contract": "contracts/messaging/Merkle.sol:MerkleTreeManager",
        "label": "__GAP",
        "offset": 0,
        "slot": "86",
        "type": "t_array(t_uint256)49_storage"
      }
    ],
    "types": {
      "t_address": {
        "encoding": "inplace",
        "label": "address",
        "numberOfBytes": "20"
      },
      "t_array(t_bytes32)32_storage": {
        "base": "t_bytes32",
        "encoding": "inplace",
        "label": "bytes32[32]",
        "numberOfBytes": "1024"
      },
      "t_array(t_uint256)49_storage": {
        "base": "t_uint256",
        "encoding": "inplace",
        "label": "uint256[49]",
        "numberOfBytes": "1568"
      },
      "t_bool": {
        "encoding": "inplace",
        "label": "bool",
        "numberOfBytes": "1"
      },
      "t_bytes32": {
        "encoding": "inplace",
        "label": "bytes32",
        "numberOfBytes": "32"
      },
      "t_mapping(t_address,t_bool)": {
        "encoding": "mapping",
        "key": "t_address",
        "label": "mapping(address => bool)",
        "numberOfBytes": "32",
        "value": "t_bool"
      },
      "t_struct(Tree)39016_storage": {
        "encoding": "inplace",
        "label": "struct MerkleLib.Tree",
        "members": [
          {
            "astId": 39013,
            "contract": "contracts/messaging/Merkle.sol:MerkleTreeManager",
            "label": "branch",
            "offset": 0,
            "slot": "0",
            "type": "t_array(t_bytes32)32_storage"
          },
          {
            "astId": 39015,
            "contract": "contracts/messaging/Merkle.sol:MerkleTreeManager",
            "label": "count",
            "offset": 0,
            "slot": "32",
            "type": "t_uint256"
          }
        ],
        "numberOfBytes": "1056"
      },
      "t_uint256": {
        "encoding": "inplace",
        "label": "uint256",
        "numberOfBytes": "32"
      },
      "t_uint8": {
        "encoding": "inplace",
        "label": "uint8",
        "numberOfBytes": "1"
      }
    }
  }
}