{
  "address": "0xCa65053b04007018b51E05634851B2433e71b6bb",
  "abi": [
    {
      "inputs": [],
      "name": "MerkleTreeManager__setArborist_zeroAddress",
      "type": "error"
    },
    {
      "anonymous": false,
      "inputs": [
        {
          "indexed": false,
          "internalType": "uint8",
          "name": "version",
          "type": "uint8"
        }
      ],
      "name": "Initialized",
      "type": "event"
    },
    {
      "inputs": [],
      "name": "arborist",
      "outputs": [
        {
          "internalType": "address",
          "name": "",
          "type": "address"
        }
      ],
      "stateMutability": "view",
      "type": "function"
    },
    {
      "inputs": [],
      "name": "branch",
      "outputs": [
        {
          "internalType": "bytes32[32]",
          "name": "",
          "type": "bytes32[32]"
        }
      ],
      "stateMutability": "view",
      "type": "function"
    },
    {
      "inputs": [],
      "name": "count",
      "outputs": [
        {
          "internalType": "uint256",
          "name": "",
          "type": "uint256"
        }
      ],
      "stateMutability": "view",
      "type": "function"
    },
    {
      "inputs": [],
      "name": "initialize",
      "outputs": [],
      "stateMutability": "nonpayable",
      "type": "function"
    },
    {
      "inputs": [
        {
          "internalType": "bytes32",
          "name": "leaf",
          "type": "bytes32"
        }
      ],
      "name": "insert",
      "outputs": [
        {
          "internalType": "bytes32",
          "name": "_root",
          "type": "bytes32"
        },
        {
          "internalType": "uint256",
          "name": "_count",
          "type": "uint256"
        }
      ],
      "stateMutability": "nonpayable",
      "type": "function"
    },
    {
      "inputs": [],
      "name": "root",
      "outputs": [
        {
          "internalType": "bytes32",
          "name": "",
          "type": "bytes32"
        }
      ],
      "stateMutability": "view",
      "type": "function"
    },
    {
      "inputs": [
        {
          "internalType": "address",
          "name": "newArborist",
          "type": "address"
        }
      ],
      "name": "setArborist",
      "outputs": [],
      "stateMutability": "nonpayable",
      "type": "function"
    },
    {
      "inputs": [],
      "name": "tree",
      "outputs": [
        {
          "internalType": "uint256",
          "name": "count",
          "type": "uint256"
        }
      ],
      "stateMutability": "view",
      "type": "function"
    }
  ],
  "transactionHash": "0x70214961bb3d45f696439c9c90da65ebb7eab19b2b661ba984669cae93856367",
  "args": [],
  "numDeployments": 1,
  "solcInputHash": "fef707534d1b68440ee7e27c681e8a5e",
  "bytecode": "0x608060405234801561001057600080fd5b50610ec4806100206000396000f3fe608060405234801561001057600080fd5b50600436106100885760003560e01c80634b72d0d41161005b5780634b72d0d41461010c5780638129fc1c14610121578063ebf0c71714610129578063fd54b2281461013157600080fd5b806306661abd1461008d5780631b373a98146100a45780632d287e43146100b957806331d0913c146100e1575b600080fd5b6021545b6040519081526020015b60405180910390f35b6100b76100b2366004610c28565b61013b565b005b6100cc6100c7366004610c58565b6101cc565b6040805192835260208301919091520161009b565b6022546100f4906001600160a01b031681565b6040516001600160a01b03909116815260200161009b565b61011461029d565b60405161009b9190610c71565b6100b76102d9565b6100916103ea565b6021546100919081565b6022546001600160a01b031633146101835760405162461bcd60e51b815260206004820152600660248201526510b7bbb732b960d11b60448201526064015b60405180910390fd5b6001600160a01b0381166101aa57604051630c11a52d60e11b815260040160405180910390fd5b602280546001600160a01b0319166001600160a01b0392909216919091179055565b60225460009081906001600160a01b031633146102145760405162461bcd60e51b815260206004820152600660248201526510b7bbb732b960d11b604482015260640161017a565b6040805161044081018083526000926001918391820190839060209082845b81548152602001906001019080831161023357505050918352505060209182015491015290506102638185610442565b905061026e8161057e565b60208083015183519295509350829160019161028b918391610b96565b50602091820151910155509092909150565b6102a5610bd4565b604080516104008101918290529060019060209082845b8154815260200190600101908083116102bc575050505050905090565b600054610100900460ff16158080156102f95750600054600160ff909116105b806103135750303b158015610313575060005460ff166001145b6103765760405162461bcd60e51b815260206004820152602e60248201527f496e697469616c697a61626c653a20636f6e747261637420697320616c72656160448201526d191e481a5b9a5d1a585b1a5e995960921b606482015260840161017a565b6000805460ff191660011790558015610399576000805461ff0019166101001790555b6103a1610591565b80156103e7576000805461ff0019169055604051600181527f7f26b83ff96e1f2b6a682f133852f6798a09c465da95921460cefb38474024989060200160405180910390a15b50565b604080516104408101808352600092839291600191839190820190839060209082845b81548152602001906001019080831161040d575050509183525050602091820154910152905061043c8161057e565b91505090565b61044a610bf3565b600161045860206002610da1565b6104629190610dad565b8360200151106104a75760405162461bcd60e51b815260206004820152601060248201526f1b595c9adb19481d1c995948199d5b1b60821b604482015260640161017a565b6001836020018181516104ba9190610dc4565b905250602083015160005b602081101561056a57816001166001036104fe578451849082602081106104ee576104ee610ddc565b6020020152508391506105789050565b8451816020811061051157610511610ddc565b602002015184604051602001610531929190918252602082015260400190565b6040516020818303038152906040528051906020012093506002826105569190610df2565b91508061056281610e14565b9150506104c5565b50610573610e2d565b839150505b92915050565b60006105788261058c6105c2565b610a83565b600054610100900460ff166105b85760405162461bcd60e51b815260040161017a90610e43565b6105c0610b5b565b565b6105ca610bd4565b600081527fad3228b676f7d3cd4284a5443f17f1962b36e491b30a40b2405849e597ba5fb560208201527fb4c11951957c6f8f642c4af61cd6b24640fec6dc7fc607ee8206a99e92410d3060408201527f21ddb9a356815c3fac1026b6dec5df3124afbadb485c9ba5a3e3398a04b7ba8560608201527fe58769b32a1beaf1ea27375a44095a0d1fb664ce2dd358e7fcbfb78c26a1934460808201527f0eb01ebfc9ed27500cd4dfc979272d1f0913cc9f66540d7e8005811109e1cf2d60a08201527f887c22bd8750d34016ac3c66b5ff102dacdd73f6b014e710b51e8022af9a196860c08201527fffd70157e48063fc33c97a050f7f640233bf646cc98d9524c6b92bcf3ab56f8360e08201527f9867cc5f7f196b93bae1e27e6320742445d290f2263827498b54fec539f756af6101008201527fcefad4e508c098b9a7e1d8feb19955fb02ba9675585078710969d3440f5054e06101208201527ff9dc3e7fe016e050eff260334f18a5d4fe391d82092319f5964f2e2eb7c1c3a56101408201527ff8b13a49e282f609c317a833fb8d976d11517c571d1221a265d25af778ecf8926101608201527f3490c6ceeb450aecdc82e28293031d10c7d73bf85e57bf041a97360aa2c5d99c6101808201527fc1df82d9c4b87413eae2ef048f94b4d3554cea73d92b0f7af96e0271c691e2bb6101a08201527f5c67add7c6caf302256adedf7ab114da0acfe870d449a3a489f781d659e8becc6101c08201527fda7bce9f4e8618b6bd2f4132ce798cdc7a60e7e1460a7299e3c6342a579626d26101e08201527f2733e50f526ec2fa19a22b31e8ed50f23cd1fdf94c9154ed3a7609a2f1ff981f6102008201527fe1d3b5c807b281e4683cc6d6315cf95b9ade8641defcb32372f1c126e398ef7a6102208201527f5a2dce0a8a7f68bb74560f8f71837c2c2ebbcbf7fffb42ae1896f13f7c7479a06102408201527fb46a28b6f55540f89444f63de0378e3d121be09e06cc9ded1c20e65876d36aa06102608201527fc65e9645644786b620e2dd2ad648ddfcbf4a7e5b1a3a4ecfe7f64667a3f0b7e26102808201527ff4418588ed35a2458cffeb39b93d26f18d2ab13bdce6aee58e7b99359ec2dfd96102a08201527f5a9c16dc00d6ef18b7933a6f8dc65ccb55667138776f7dea101070dc8796e3776102c08201527f4df84f40ae0c8229d0d6069e5c8f39a7c299677a09d367fc7b05e3bc380ee6526102e08201527fcdc72595f74c7b1043d0e1ffbab734648c838dfb0527d971b602bc216c9619ef6103008201527f0abf5ac974a1ed57f4050aa510dd9c74f508277b39d7973bb2dfccc5eeb0618d6103208201527fb8cd74046ff337f0a7bf2c8e03e10f642c1886798d71806ab1e888d9e5ee87d06103408201527f838c5655cb21c6cb83313b5a631175dff4963772cce9108188b34ac87c81c41e6103608201527f662ee4dd2dd7b2bc707961b1e646c4047669dcb6584f0d8d770daf5d7e7deb2e6103808201527f388ab20e2573d171a88108e79d820e98f26c0b84aa8b2f4aa4968dbb818ea3226103a08201527f93237c50ba75ee485f4c22adf2f741400bdf8d6a9cc7df7ecae576221665d7356103c08201527f8448818bb4ae4562849e949e17ac16e0be16688e156b5cf15e098c627c0056a96103e082015290565b6020820151600090815b6020811015610b53578451600183831c16906000908360208110610ab357610ab3610ddc565b6020020151905081600103610af3576040805160208101839052908101869052606001604051602081830303815290604052805190602001209450610b3e565b84868460208110610b0657610b06610ddc565b6020020151604051602001610b25929190918252602082015260400190565b6040516020818303038152906040528051906020012094505b50508080610b4b90610e14565b915050610a8d565b505092915050565b600054610100900460ff16610b825760405162461bcd60e51b815260040161017a90610e43565b602280546001600160a01b03191633179055565b8260208101928215610bc4579160200282015b82811115610bc4578251825591602001919060010190610ba9565b50610bd0929150610c13565b5090565b6040518061040001604052806020906020820280368337509192915050565b6040518060400160405280610c06610bd4565b8152602001600081525090565b5b80821115610bd05760008155600101610c14565b600060208284031215610c3a57600080fd5b81356001600160a01b0381168114610c5157600080fd5b9392505050565b600060208284031215610c6a57600080fd5b5035919050565b6104008101818360005b6020808210610c8a5750610c9e565b825184529283019290910190600101610c7b565b50505092915050565b634e487b7160e01b600052601160045260246000fd5b600181815b80851115610cf8578160001904821115610cde57610cde610ca7565b80851615610ceb57918102915b93841c9390800290610cc2565b509250929050565b600082610d0f57506001610578565b81610d1c57506000610578565b8160018114610d325760028114610d3c57610d58565b6001915050610578565b60ff841115610d4d57610d4d610ca7565b50506001821b610578565b5060208310610133831016604e8410600b8410161715610d7b575081810a610578565b610d858383610cbd565b8060001904821115610d9957610d99610ca7565b029392505050565b6000610c518383610d00565b600082821015610dbf57610dbf610ca7565b500390565b60008219821115610dd757610dd7610ca7565b500190565b634e487b7160e01b600052603260045260246000fd5b600082610e0f57634e487b7160e01b600052601260045260246000fd5b500490565b600060018201610e2657610e26610ca7565b5060010190565b634e487b7160e01b600052600160045260246000fd5b6020808252602b908201527f496e697469616c697a61626c653a20636f6e7472616374206973206e6f74206960408201526a6e697469616c697a696e6760a81b60608201526080019056fea26469706673582212202aaa1a510baeaf526a4ed7306e28a0142dfbc46ed7f0465f33d240b665d1c54864736f6c634300080f0033",
  "devdoc": {
    "kind": "dev",
    "methods": {
      "insert(bytes32)": {
        "params": {
          "leaf": "The leaf to be inserted into the tree."
        },
        "returns": {
          "_count": "Current node count (i.e. number of indices) AFTER the insertion of the new leaf, provided for convenience.",
          "_root": "Current root for convenience."
        }
      },
      "setArborist(address)": {
        "params": {
          "newArborist": "The new address to set as the current arborist."
        }
      }
    },
    "stateVariables": {
      "arborist": {
        "details": "This could be the root manager contract or a spoke connector contract, for example."
      }
    },
    "title": "MerkleTreeManager",
    "version": 1
  },
  "userdoc": {
    "kind": "user",
    "methods": {
      "arborist()": {
        "notice": "The arborist contract that has permission to write to this tree."
      },
      "branch()": {
        "notice": "Returns the current branch."
      },
      "count()": {
        "notice": "Returns the number of inserted leaves in the tree (current index)."
      },
      "insert(bytes32)": {
        "notice": "Inserts the given leaf into the tree."
      },
      "root()": {
        "notice": "Calculates and returns the current root."
      },
      "setArborist(address)": {
        "notice": "Method for the current arborist to assign write permissions to a new arborist."
      },
      "tree()": {
        "notice": "Core data structure with which this contract is tasked with keeping custody. Writable only by the designated arborist."
      }
    },
    "notice": "Contains a Merkle tree instance and exposes read/write functions for the tree.",
    "version": 1
  },
  "storageLayout": {
    "storage": [
      {
        "astId": 138,
        "contract": "contracts/messaging/Merkle.sol:MerkleTreeManager",
        "label": "_initialized",
        "offset": 0,
        "slot": "0",
        "type": "t_uint8"
      },
      {
        "astId": 141,
        "contract": "contracts/messaging/Merkle.sol:MerkleTreeManager",
        "label": "_initializing",
        "offset": 1,
        "slot": "0",
        "type": "t_bool"
      },
      {
        "astId": 30314,
        "contract": "contracts/messaging/Merkle.sol:MerkleTreeManager",
        "label": "tree",
        "offset": 0,
        "slot": "1",
        "type": "t_struct(Tree)39354_storage"
      },
      {
        "astId": 30317,
        "contract": "contracts/messaging/Merkle.sol:MerkleTreeManager",
        "label": "arborist",
        "offset": 0,
        "slot": "34",
        "type": "t_address"
      },
      {
        "astId": 30321,
        "contract": "contracts/messaging/Merkle.sol:MerkleTreeManager",
        "label": "__GAP",
        "offset": 0,
        "slot": "35",
        "type": "t_array(t_uint256)49_storage"
      }
    ],
    "types": {
      "t_address": {
        "encoding": "inplace",
        "label": "address",
        "numberOfBytes": "20"
      },
      "t_array(t_bytes32)32_storage": {
        "base": "t_bytes32",
        "encoding": "inplace",
        "label": "bytes32[32]",
        "numberOfBytes": "1024"
      },
      "t_array(t_uint256)49_storage": {
        "base": "t_uint256",
        "encoding": "inplace",
        "label": "uint256[49]",
        "numberOfBytes": "1568"
      },
      "t_bool": {
        "encoding": "inplace",
        "label": "bool",
        "numberOfBytes": "1"
      },
      "t_bytes32": {
        "encoding": "inplace",
        "label": "bytes32",
        "numberOfBytes": "32"
      },
      "t_struct(Tree)39354_storage": {
        "encoding": "inplace",
        "label": "struct MerkleLib.Tree",
        "members": [
          {
            "astId": 39351,
            "contract": "contracts/messaging/Merkle.sol:MerkleTreeManager",
            "label": "branch",
            "offset": 0,
            "slot": "0",
            "type": "t_array(t_bytes32)32_storage"
          },
          {
            "astId": 39353,
            "contract": "contracts/messaging/Merkle.sol:MerkleTreeManager",
            "label": "count",
            "offset": 0,
            "slot": "32",
            "type": "t_uint256"
          }
        ],
        "numberOfBytes": "1056"
      },
      "t_uint256": {
        "encoding": "inplace",
        "label": "uint256",
        "numberOfBytes": "32"
      },
      "t_uint8": {
        "encoding": "inplace",
        "label": "uint8",
        "numberOfBytes": "1"
      }
    }
  }
}