{
  "address": "0xcaFD2A39a9BDD2b8E710A6f28f082123BE52043c",
  "abi": [
    {
      "inputs": [
        {
          "internalType": "uint32",
          "name": "_domain",
          "type": "uint32"
        },
        {
          "internalType": "uint32",
          "name": "_mirrorDomain",
          "type": "uint32"
        },
        {
          "internalType": "address",
          "name": "_amb",
          "type": "address"
        },
        {
          "internalType": "address",
          "name": "_rootManager",
          "type": "address"
        },
        {
          "internalType": "address",
          "name": "_mirrorConnector",
          "type": "address"
        },
        {
          "internalType": "uint256",
          "name": "_mirrorGas",
          "type": "uint256"
        },
        {
          "internalType": "uint256",
          "name": "_processGas",
          "type": "uint256"
        },
        {
          "internalType": "uint256",
          "name": "_reserveGas",
          "type": "uint256"
        },
        {
          "internalType": "uint256",
          "name": "_delayBlocks",
          "type": "uint256"
        },
        {
          "internalType": "address",
          "name": "_merkle",
          "type": "address"
        },
        {
          "internalType": "address",
          "name": "_watcherManager",
          "type": "address"
        }
      ],
      "stateMutability": "nonpayable",
      "type": "constructor"
    },
    {
      "inputs": [],
      "name": "ProposedOwnable__acceptProposedOwner_delayNotElapsed",
      "type": "error"
    },
    {
      "inputs": [],
      "name": "ProposedOwnable__onlyOwner_notOwner",
      "type": "error"
    },
    {
      "inputs": [],
      "name": "ProposedOwnable__onlyProposed_notProposedOwner",
      "type": "error"
    },
    {
      "inputs": [],
      "name": "ProposedOwnable__proposeNewOwner_invalidProposal",
      "type": "error"
    },
    {
      "inputs": [],
      "name": "ProposedOwnable__proposeNewOwner_noOwnershipChange",
      "type": "error"
    },
    {
      "inputs": [],
      "name": "ProposedOwnable__renounceOwnership_delayNotElapsed",
      "type": "error"
    },
    {
      "inputs": [],
      "name": "ProposedOwnable__renounceOwnership_invalidProposal",
      "type": "error"
    },
    {
      "inputs": [],
      "name": "ProposedOwnable__renounceOwnership_noProposal",
      "type": "error"
    },
    {
      "anonymous": false,
      "inputs": [
        {
          "indexed": false,
          "internalType": "bytes32",
          "name": "root",
          "type": "bytes32"
        }
      ],
      "name": "AggregateRootReceived",
      "type": "event"
    },
    {
      "anonymous": false,
      "inputs": [
        {
          "indexed": false,
          "internalType": "bytes32",
          "name": "root",
          "type": "bytes32"
        }
      ],
      "name": "AggregateRootRemoved",
      "type": "event"
    },
    {
      "anonymous": false,
      "inputs": [
        {
          "indexed": false,
          "internalType": "bytes32",
          "name": "leaf",
          "type": "bytes32"
        },
        {
          "indexed": false,
          "internalType": "uint256",
          "name": "index",
          "type": "uint256"
        },
        {
          "indexed": false,
          "internalType": "bytes32",
          "name": "root",
          "type": "bytes32"
        },
        {
          "indexed": false,
          "internalType": "bytes",
          "name": "message",
          "type": "bytes"
        }
      ],
      "name": "Dispatch",
      "type": "event"
    },
    {
      "anonymous": false,
      "inputs": [
        {
          "indexed": false,
          "internalType": "bytes",
          "name": "data",
          "type": "bytes"
        },
        {
          "indexed": false,
          "internalType": "address",
          "name": "caller",
          "type": "address"
        }
      ],
      "name": "MessageProcessed",
      "type": "event"
    },
    {
      "anonymous": false,
      "inputs": [
        {
          "indexed": false,
          "internalType": "bytes",
          "name": "data",
          "type": "bytes"
        },
        {
          "indexed": false,
          "internalType": "address",
          "name": "caller",
          "type": "address"
        }
      ],
      "name": "MessageSent",
      "type": "event"
    },
    {
      "anonymous": false,
      "inputs": [
        {
          "indexed": false,
          "internalType": "address",
          "name": "previous",
          "type": "address"
        },
        {
          "indexed": false,
          "internalType": "address",
          "name": "current",
          "type": "address"
        }
      ],
      "name": "MirrorConnectorUpdated",
      "type": "event"
    },
    {
      "anonymous": false,
      "inputs": [
        {
          "indexed": false,
          "internalType": "uint256",
          "name": "previous",
          "type": "uint256"
        },
        {
          "indexed": false,
          "internalType": "uint256",
          "name": "current",
          "type": "uint256"
        }
      ],
      "name": "MirrorGasUpdated",
      "type": "event"
    },
    {
      "anonymous": false,
      "inputs": [
        {
          "indexed": true,
          "internalType": "uint32",
          "name": "domain",
          "type": "uint32"
        },
        {
          "indexed": true,
          "internalType": "uint32",
          "name": "mirrorDomain",
          "type": "uint32"
        },
        {
          "indexed": false,
          "internalType": "address",
          "name": "amb",
          "type": "address"
        },
        {
          "indexed": false,
          "internalType": "address",
          "name": "rootManager",
          "type": "address"
        },
        {
          "indexed": false,
          "internalType": "address",
          "name": "mirrorConnector",
          "type": "address"
        }
      ],
      "name": "NewConnector",
      "type": "event"
    },
    {
      "anonymous": false,
      "inputs": [
        {
          "indexed": true,
          "internalType": "address",
          "name": "proposedOwner",
          "type": "address"
        }
      ],
      "name": "OwnershipProposed",
      "type": "event"
    },
    {
      "anonymous": false,
      "inputs": [
        {
          "indexed": true,
          "internalType": "address",
          "name": "previousOwner",
          "type": "address"
        },
        {
          "indexed": true,
          "internalType": "address",
          "name": "newOwner",
          "type": "address"
        }
      ],
      "name": "OwnershipTransferred",
      "type": "event"
    },
    {
      "anonymous": false,
      "inputs": [
        {
          "indexed": false,
          "internalType": "address",
          "name": "account",
          "type": "address"
        }
      ],
      "name": "Paused",
      "type": "event"
    },
    {
      "anonymous": false,
      "inputs": [
        {
          "indexed": false,
          "internalType": "bytes32",
          "name": "leaf",
          "type": "bytes32"
        },
        {
          "indexed": false,
          "internalType": "bool",
          "name": "success",
          "type": "bool"
        },
        {
          "indexed": false,
          "internalType": "bytes",
          "name": "returnData",
          "type": "bytes"
        }
      ],
      "name": "Process",
      "type": "event"
    },
    {
      "anonymous": false,
      "inputs": [
        {
          "indexed": false,
          "internalType": "address",
          "name": "sender",
          "type": "address"
        }
      ],
      "name": "SenderAdded",
      "type": "event"
    },
    {
      "anonymous": false,
      "inputs": [
        {
          "indexed": false,
          "internalType": "address",
          "name": "sender",
          "type": "address"
        }
      ],
      "name": "SenderRemoved",
      "type": "event"
    },
    {
      "anonymous": false,
      "inputs": [
        {
          "indexed": false,
          "internalType": "address",
          "name": "account",
          "type": "address"
        }
      ],
      "name": "Unpaused",
      "type": "event"
    },
    {
      "anonymous": false,
      "inputs": [
        {
          "indexed": false,
          "internalType": "address",
          "name": "watcherManager",
          "type": "address"
        }
      ],
      "name": "WatcherManagerChanged",
      "type": "event"
    },
    {
      "inputs": [],
      "name": "AMB",
      "outputs": [
        {
          "internalType": "address",
          "name": "",
          "type": "address"
        }
      ],
      "stateMutability": "view",
      "type": "function"
    },
    {
      "inputs": [],
      "name": "DOMAIN",
      "outputs": [
        {
          "internalType": "uint32",
          "name": "",
          "type": "uint32"
        }
      ],
      "stateMutability": "view",
      "type": "function"
    },
    {
      "inputs": [],
      "name": "MERKLE",
      "outputs": [
        {
          "internalType": "contract MerkleTreeManager",
          "name": "",
          "type": "address"
        }
      ],
      "stateMutability": "view",
      "type": "function"
    },
    {
      "inputs": [],
      "name": "MIRROR_DOMAIN",
      "outputs": [
        {
          "internalType": "uint32",
          "name": "",
          "type": "uint32"
        }
      ],
      "stateMutability": "view",
      "type": "function"
    },
    {
      "inputs": [],
      "name": "PROCESS_GAS",
      "outputs": [
        {
          "internalType": "uint256",
          "name": "",
          "type": "uint256"
        }
      ],
      "stateMutability": "view",
      "type": "function"
    },
    {
      "inputs": [],
      "name": "RESERVE_GAS",
      "outputs": [
        {
          "internalType": "uint256",
          "name": "",
          "type": "uint256"
        }
      ],
      "stateMutability": "view",
      "type": "function"
    },
    {
      "inputs": [],
      "name": "ROOT_MANAGER",
      "outputs": [
        {
          "internalType": "address",
          "name": "",
          "type": "address"
        }
      ],
      "stateMutability": "view",
      "type": "function"
    },
    {
      "inputs": [],
      "name": "acceptProposedOwner",
      "outputs": [],
      "stateMutability": "nonpayable",
      "type": "function"
    },
    {
      "inputs": [
        {
          "internalType": "address",
          "name": "_sender",
          "type": "address"
        }
      ],
      "name": "addSender",
      "outputs": [],
      "stateMutability": "nonpayable",
      "type": "function"
    },
    {
      "inputs": [],
      "name": "delay",
      "outputs": [
        {
          "internalType": "uint256",
          "name": "",
          "type": "uint256"
        }
      ],
      "stateMutability": "view",
      "type": "function"
    },
    {
      "inputs": [],
      "name": "delayBlocks",
      "outputs": [
        {
          "internalType": "uint256",
          "name": "",
          "type": "uint256"
        }
      ],
      "stateMutability": "view",
      "type": "function"
    },
    {
      "inputs": [
        {
          "internalType": "uint32",
          "name": "_destinationDomain",
          "type": "uint32"
        },
        {
          "internalType": "bytes32",
          "name": "_recipientAddress",
          "type": "bytes32"
        },
        {
          "internalType": "bytes",
          "name": "_messageBody",
          "type": "bytes"
        }
      ],
      "name": "dispatch",
      "outputs": [
        {
          "internalType": "bytes32",
          "name": "",
          "type": "bytes32"
        }
      ],
      "stateMutability": "nonpayable",
      "type": "function"
    },
    {
      "inputs": [],
      "name": "home",
      "outputs": [
        {
          "internalType": "contract IOutbox",
          "name": "",
          "type": "address"
        }
      ],
      "stateMutability": "view",
      "type": "function"
    },
    {
      "inputs": [
        {
          "internalType": "address",
          "name": "_potentialReplica",
          "type": "address"
        }
      ],
      "name": "isReplica",
      "outputs": [
        {
          "internalType": "bool",
          "name": "",
          "type": "bool"
        }
      ],
      "stateMutability": "view",
      "type": "function"
    },
    {
      "inputs": [],
      "name": "localDomain",
      "outputs": [
        {
          "internalType": "uint32",
          "name": "",
          "type": "uint32"
        }
      ],
      "stateMutability": "view",
      "type": "function"
    },
    {
      "inputs": [
        {
          "internalType": "bytes32",
          "name": "",
          "type": "bytes32"
        }
      ],
      "name": "messages",
      "outputs": [
        {
          "internalType": "enum SpokeConnector.MessageStatus",
          "name": "",
          "type": "uint8"
        }
      ],
      "stateMutability": "view",
      "type": "function"
    },
    {
      "inputs": [],
      "name": "mirrorConnector",
      "outputs": [
        {
          "internalType": "address",
          "name": "",
          "type": "address"
        }
      ],
      "stateMutability": "view",
      "type": "function"
    },
    {
      "inputs": [],
      "name": "mirrorGas",
      "outputs": [
        {
          "internalType": "uint256",
          "name": "",
          "type": "uint256"
        }
      ],
      "stateMutability": "view",
      "type": "function"
    },
    {
      "inputs": [
        {
          "internalType": "uint32",
          "name": "",
          "type": "uint32"
        }
      ],
      "name": "nonces",
      "outputs": [
        {
          "internalType": "uint32",
          "name": "",
          "type": "uint32"
        }
      ],
      "stateMutability": "view",
      "type": "function"
    },
    {
      "inputs": [],
      "name": "outboundRoot",
      "outputs": [
        {
          "internalType": "bytes32",
          "name": "",
          "type": "bytes32"
        }
      ],
      "stateMutability": "view",
      "type": "function"
    },
    {
      "inputs": [],
      "name": "owner",
      "outputs": [
        {
          "internalType": "address",
          "name": "",
          "type": "address"
        }
      ],
      "stateMutability": "view",
      "type": "function"
    },
    {
      "inputs": [],
      "name": "pause",
      "outputs": [],
      "stateMutability": "nonpayable",
      "type": "function"
    },
    {
      "inputs": [],
      "name": "paused",
      "outputs": [
        {
          "internalType": "bool",
          "name": "",
          "type": "bool"
        }
      ],
      "stateMutability": "view",
      "type": "function"
    },
    {
      "inputs": [
        {
          "internalType": "bytes32",
          "name": "",
          "type": "bytes32"
        }
      ],
      "name": "pendingAggregateRoots",
      "outputs": [
        {
          "internalType": "uint256",
          "name": "",
          "type": "uint256"
        }
      ],
      "stateMutability": "view",
      "type": "function"
    },
    {
      "inputs": [
        {
          "internalType": "bytes",
          "name": "_data",
          "type": "bytes"
        }
      ],
      "name": "processMessage",
      "outputs": [],
      "stateMutability": "nonpayable",
      "type": "function"
    },
    {
      "inputs": [
        {
          "internalType": "address",
          "name": "newlyProposed",
          "type": "address"
        }
      ],
      "name": "proposeNewOwner",
      "outputs": [],
      "stateMutability": "nonpayable",
      "type": "function"
    },
    {
      "inputs": [],
      "name": "proposed",
      "outputs": [
        {
          "internalType": "address",
          "name": "",
          "type": "address"
        }
      ],
      "stateMutability": "view",
      "type": "function"
    },
    {
      "inputs": [],
      "name": "proposedTimestamp",
      "outputs": [
        {
          "internalType": "uint256",
          "name": "",
          "type": "uint256"
        }
      ],
      "stateMutability": "view",
      "type": "function"
    },
    {
      "inputs": [
        {
          "components": [
            {
              "internalType": "bytes",
              "name": "message",
              "type": "bytes"
            },
            {
              "internalType": "bytes32[32]",
              "name": "path",
              "type": "bytes32[32]"
            },
            {
              "internalType": "uint256",
              "name": "index",
              "type": "uint256"
            }
          ],
          "internalType": "struct SpokeConnector.Proof[]",
          "name": "_proofs",
          "type": "tuple[]"
        },
        {
          "internalType": "bytes32",
          "name": "_aggregateRoot",
          "type": "bytes32"
        },
        {
          "internalType": "bytes32[32]",
          "name": "_aggregatePath",
          "type": "bytes32[32]"
        },
        {
          "internalType": "uint256",
          "name": "_aggregateIndex",
          "type": "uint256"
        }
      ],
      "name": "proveAndProcess",
      "outputs": [],
      "stateMutability": "nonpayable",
      "type": "function"
    },
    {
      "inputs": [
        {
          "internalType": "bytes32",
          "name": "",
          "type": "bytes32"
        }
      ],
      "name": "provenAggregateRoots",
      "outputs": [
        {
          "internalType": "bool",
          "name": "",
          "type": "bool"
        }
      ],
      "stateMutability": "view",
      "type": "function"
    },
    {
      "inputs": [
        {
          "internalType": "bytes32",
          "name": "",
          "type": "bytes32"
        }
      ],
      "name": "provenMessageRoots",
      "outputs": [
        {
          "internalType": "bool",
          "name": "",
          "type": "bool"
        }
      ],
      "stateMutability": "view",
      "type": "function"
    },
    {
      "inputs": [
        {
          "internalType": "bytes32",
          "name": "_fraudulentRoot",
          "type": "bytes32"
        }
      ],
      "name": "removePendingAggregateRoot",
      "outputs": [],
      "stateMutability": "nonpayable",
      "type": "function"
    },
    {
      "inputs": [
        {
          "internalType": "address",
          "name": "_sender",
          "type": "address"
        }
      ],
      "name": "removeSender",
      "outputs": [],
      "stateMutability": "nonpayable",
      "type": "function"
    },
    {
      "inputs": [],
      "name": "renounceOwnership",
      "outputs": [],
      "stateMutability": "nonpayable",
      "type": "function"
    },
    {
      "inputs": [],
      "name": "renounced",
      "outputs": [
        {
          "internalType": "bool",
          "name": "",
          "type": "bool"
        }
      ],
      "stateMutability": "view",
      "type": "function"
    },
    {
      "inputs": [],
      "name": "send",
      "outputs": [],
      "stateMutability": "nonpayable",
      "type": "function"
    },
    {
      "inputs": [
        {
          "internalType": "uint256",
          "name": "_delayBlocks",
          "type": "uint256"
        }
      ],
      "name": "setDelayBlocks",
      "outputs": [],
      "stateMutability": "nonpayable",
      "type": "function"
    },
    {
      "inputs": [
        {
          "internalType": "address",
          "name": "_mirrorConnector",
          "type": "address"
        }
      ],
      "name": "setMirrorConnector",
      "outputs": [],
      "stateMutability": "nonpayable",
      "type": "function"
    },
    {
      "inputs": [
        {
          "internalType": "uint256",
          "name": "_mirrorGas",
          "type": "uint256"
        }
      ],
      "name": "setMirrorGas",
      "outputs": [],
      "stateMutability": "nonpayable",
      "type": "function"
    },
    {
      "inputs": [
        {
          "internalType": "address",
          "name": "_watcherManager",
          "type": "address"
        }
      ],
      "name": "setWatcherManager",
      "outputs": [],
      "stateMutability": "nonpayable",
      "type": "function"
    },
    {
      "inputs": [],
      "name": "unpause",
      "outputs": [],
      "stateMutability": "nonpayable",
      "type": "function"
    },
    {
      "inputs": [
        {
          "internalType": "address",
          "name": "_expected",
          "type": "address"
        }
      ],
      "name": "verifySender",
      "outputs": [
        {
          "internalType": "bool",
          "name": "",
          "type": "bool"
        }
      ],
      "stateMutability": "nonpayable",
      "type": "function"
    },
    {
      "inputs": [
        {
          "internalType": "address",
          "name": "",
          "type": "address"
        }
      ],
      "name": "whitelistedSenders",
      "outputs": [
        {
          "internalType": "bool",
          "name": "",
          "type": "bool"
        }
      ],
      "stateMutability": "view",
      "type": "function"
    }
  ],
  "transactionHash": "0x5a24d437e1d0f2eca1091b8f2de96f0cef5f82f2669bc337e9d86d9893a1bf82",
  "args": [
    "1735356532",
    "1735353714",
    "0x4200000000000000000000000000000000000007",
    "0xD864761B8480F57E78060485f442A9A51f1DA0d1",
    "0x0000000000000000000000000000000000000000",
    "850000",
    "850000",
    "15000",
    10,
    "0x12aF4EF8AdbE8EfbFc244dd5614Ff79d44371f43",
    "0x3E9d31033fc0642cfFFD201A3AdcA8787da5C2ce"
  ],
  "numDeployments": 1,
  "solcInputHash": "2cb19c6ff260c62b0df6791111e721e0",
  "bytecode": "0x6101606040523480156200001257600080fd5b506040516200345d3803806200345d83398101604081905262000035916200040f565b8a8a8a8a8a8a8a8a8a8a8a808b8b8b8b8b8b6200005233620002d4565b8563ffffffff166000036200009d5760405162461bcd60e51b815260206004820152600c60248201526b32b6b83a3c903237b6b0b4b760a11b60448201526064015b60405180910390fd5b6001600160a01b038316620000e95760405162461bcd60e51b815260206004820152601160248201527032b6b83a3c903937b7ba26b0b730b3b2b960791b604482015260640162000094565b63ffffffff8087166080526001600160a01b0380861660a05284811660c05290861660e0528216156200012157620001218262000333565b8015620001335762000133816200039c565b604080516001600160a01b0386811682528581166020830152841681830152905163ffffffff87811692908916917f4f9c27c2fe3f84576ea469d367d044da53c45e951617e8389f2b5ed8db9d25f09181900360600190a35050600580546001600160a01b03909616610100026001600160a81b031990961695909517909455505060016006555050620cf850851015620002005760405162461bcd60e51b815260206004820152600c60248201526b2170726f636573732067617360a01b604482015260640162000094565b613a98841015620002435760405162461bcd60e51b815260206004820152600c60248201526b21726573657276652067617360a01b604482015260640162000094565b6101208590526101408490526001600160a01b038216620002965760405162461bcd60e51b815260206004820152600c60248201526b217a65726f206d65726b6c6560a01b604482015260640162000094565b816001600160a01b0316610100816001600160a01b0316815250508260078190555050505050505050505050505050505050505050505050620004ce565b600080546001600160a01b038381166001600160a01b0319808416821785556002859055600180549091169055604051919092169283917f8be0079c531659141344cd1fd0a4f28419497f9722a3daafe3b4186f6b6457e09190a35050565b600354604080516001600160a01b03928316815291831660208301527fc77bec288fc88f168427f2f7da682eadb26cac89d8d591af6e443da98dff2bbc910160405180910390a1600380546001600160a01b0319166001600160a01b0392909216919091179055565b60045460408051918252602082018390527f34b09b90f4cfa8747776f5cffd7d53ce7863a9b1f1fc8121903d22543a256511910160405180910390a1600455565b805163ffffffff81168114620003f257600080fd5b919050565b80516001600160a01b0381168114620003f257600080fd5b60008060008060008060008060008060006101608c8e0312156200043257600080fd5b6200043d8c620003dd565b9a506200044d60208d01620003dd565b99506200045d60408d01620003f7565b98506200046d60608d01620003f7565b97506200047d60808d01620003f7565b965060a08c0151955060c08c0151945060e08c015193506101008c01519250620004ab6101208d01620003f7565b9150620004bc6101408d01620003f7565b90509295989b509295989b9093969950565b60805160a05160c05160e051610100516101205161014051612ee06200057d600039600081816102c90152611781015260008181610639015281816117a2015261182901526000818161052101528181610ac101528181610ee60152611263015260006102730152600061041b0152600081816106120152818161073e01528181611b5d0152611bd20152600081816103d60152818161049e0152818161121401526116830152612ee06000f3fe608060405234801561001057600080fd5b50600436106102695760003560e01c80638d3638f411610151578063b95a2001116100c3578063d232c22011610087578063d232c220146105e8578063d2a3cc71146105fa578063d69f9d611461060d578063d88beda214610634578063db1b76591461065b578063fa31de011461066e57600080fd5b8063b95a20011461058d578063c5b350df146105b3578063cc394283146105bb578063cf796c75146105ce578063d1851c92146105d757600080fd5b8063a01892a511610115578063a01892a51461051c578063ad9c0c2e14610543578063b1f8100d1461054c578063b2f876431461055f578063b46300ec14610572578063b697f5311461057a57600080fd5b80638d3638f41461049c5780638da5cb5b146104c257806398c9f2b9146104d35780639d3117c7146104f65780639fa92f9d1461051657600080fd5b80635190bc53116101ea57806365eaf11b116101ae57806365eaf11b146104555780636a42b8f81461045d5780636b04a933146104665780636eb67a5114610479578063715018a61461048c5780638456cb591461049457600080fd5b80635190bc53146103b557806352a9674b146103d15780635bd11efc146103f85780635c975abb1461040b5780635f61e3ec1461041657600080fd5b8063301f07c311610231578063301f07c31461035c5780633cf52ffb1461037f5780633f4ba83a146103875780634ff746f61461038f578063508a109b146103a257600080fd5b8063141684161461026e5780631eeaabea146102af57806325e3beda146102c4578063272efc69146102f95780632bbd59ca1461032c575b600080fd5b6102957f000000000000000000000000000000000000000000000000000000000000000081565b60405163ffffffff90911681526020015b60405180910390f35b6102c26102bd3660046127bf565b610681565b005b6102eb7f000000000000000000000000000000000000000000000000000000000000000081565b6040519081526020016102a6565b61031c6103073660046127ed565b600b6020526000908152604090205460ff1681565b60405190151581526020016102a6565b61034f61033a3660046127bf565b600d6020526000908152604090205460ff1681565b6040516102a69190612820565b61031c61036a3660046127bf565b60096020526000908152604090205460ff1681565b6002546102eb565b6102c26106f6565b6102c261039d3660046128eb565b610733565b6102c26103b0366004612920565b6107d9565b61031c6103c33660046127ed565b6001600160a01b0316301490565b6102957f000000000000000000000000000000000000000000000000000000000000000081565b6102c26104063660046127ed565b610a86565b60055460ff1661031c565b61043d7f000000000000000000000000000000000000000000000000000000000000000081565b6040516001600160a01b0390911681526020016102a6565b6102eb610abd565b62093a806102eb565b6102c26104743660046127bf565b610b46565b6102c26104873660046127bf565b610c11565b6102c2610c45565b6102c2610d02565b7f0000000000000000000000000000000000000000000000000000000000000000610295565b6000546001600160a01b031661043d565b61031c6104e13660046127bf565b600a6020526000908152604090205460ff1681565b6102eb6105043660046127bf565b60086020526000908152604090205481565b3061043d565b61043d7f000000000000000000000000000000000000000000000000000000000000000081565b6102eb60075481565b6102c261055a3660046127ed565b610db9565b6102c261056d3660046127ed565b610e5e565b6102c2610eda565b6102c26105883660046127ed565b610fc3565b61029561059b3660046129d5565b600c6020526000908152604090205463ffffffff1681565b6102c2611042565b60035461043d906001600160a01b031681565b6102eb60045481565b6001546001600160a01b031661043d565b6000546001600160a01b03161561031c565b6102c26106083660046127ed565b61109d565b61043d7f000000000000000000000000000000000000000000000000000000000000000081565b6102eb7f000000000000000000000000000000000000000000000000000000000000000081565b61031c6106693660046127ed565b611164565b6102eb61067c3660046129f0565b611175565b6000546001600160a01b031633146106ac576040516311a8a1bb60e31b815260040160405180910390fd5b60075481036106f15760405162461bcd60e51b815260206004820152600c60248201526b2164656c6179426c6f636b7360a01b60448201526064015b60405180910390fd5b600755565b6000546001600160a01b03163314610721576040516311a8a1bb60e31b815260040160405180910390fd5b610729611332565b61073161137b565b565b336001600160a01b037f000000000000000000000000000000000000000000000000000000000000000016146107945760405162461bcd60e51b81526004016106e89060208082526004908201526310a0a6a160e11b604082015260600190565b61079d816113cd565b7fb3abc57bfeebd2cac918901db582f71972a8e628bccf19f5ae3e3482b98a5ced81336040516107ce929190612a9f565b60405180910390a150565b6107e161146d565b836108185760405162461bcd60e51b81526020600482015260076024820152662170726f6f667360c81b60448201526064016106e8565b60008585600081811061082d5761082d612ac9565b905060200281019061083f9190612adf565b6108499080612b00565b604051610857929190612b4e565b6040518091039020905060006108be828888600081811061087a5761087a612ac9565b905060200281019061088c9190612adf565b602001898960008181106108a2576108a2612ac9565b90506020028101906108b49190612adf565b61042001356114b3565b90506108cc81868686611558565b6000828152600d60205260409020805460ff191660019081179091555b63ffffffff81168711156109f05787878263ffffffff1681811061090f5761090f612ac9565b90506020028101906109219190612adf565b61092b9080612b00565b604051610939929190612b4e565b60405180910390209250600061098e848a8a8563ffffffff1681811061096157610961612ac9565b90506020028101906109739190612adf565b6020018b8b8663ffffffff168181106108a2576108a2612ac9565b90508281146109cd5760405162461bcd60e51b815260206004820152600b60248201526a085cda185c9959149bdbdd60aa1b60448201526064016106e8565b506000838152600d60205260409020805460ff19166001908117909155016108e9565b5060005b63ffffffff8116871115610a7c57610a7388888363ffffffff16818110610a1d57610a1d612ac9565b9050602002810190610a2f9190612adf565b610a399080612b00565b8080601f01602080910402602001604051908101604052809392919081815260200183838082843760009201919091525061161592505050565b506001016109f4565b5050505050505050565b6000546001600160a01b03163314610ab1576040516311a8a1bb60e31b815260040160405180910390fd5b610aba8161195c565b50565b60007f00000000000000000000000000000000000000000000000000000000000000006001600160a01b031663ebf0c7176040518163ffffffff1660e01b8152600401602060405180830381865afa158015610b1d573d6000803e3d6000fd5b505050506040513d601f19601f82011682018060405250810190610b419190612b5e565b905090565b6000546001600160a01b03163314610b71576040516311a8a1bb60e31b815260040160405180910390fd5b610b79611332565b6000818152600860205260408120549003610bce5760405162461bcd60e51b8152602060048201526015602482015274616767726567617465526f6f74202165786973747360581b60448201526064016106e8565b60008181526008602052604080822091909155517ff51534ecf10a58db36ce4f5180f59deddf3b3eb7c5e7454e602c2f80a40cc739906107ce9083815260200190565b6000546001600160a01b03163314610c3c576040516311a8a1bb60e31b815260040160405180910390fd5b610aba816119c5565b6000546001600160a01b03163314610c70576040516311a8a1bb60e31b815260040160405180910390fd5b600254600003610c9357604051630e4b303f60e21b815260040160405180910390fd5b62093a8060025442610ca59190612b8d565b11610cc3576040516386d4b3f160e01b815260040160405180910390fd5b6001546001600160a01b031615610ced576040516323295ef960e01b815260040160405180910390fd5b600154610731906001600160a01b0316611a06565b6005546040516384785ecd60e01b81523360048201526101009091046001600160a01b0316906384785ecd90602401602060405180830381865afa158015610d4e573d6000803e3d6000fd5b505050506040513d601f19601f82011682018060405250810190610d729190612ba4565b610da95760405162461bcd60e51b815260206004820152600860248201526710bbb0ba31b432b960c11b60448201526064016106e8565b610db161146d565b610731611a65565b6000546001600160a01b03163314610de4576040516311a8a1bb60e31b815260040160405180910390fd5b6001546001600160a01b038281169116148015610e0957506001600160a01b03811615155b15610e27576040516311bc066560e11b815260040160405180910390fd5b6000546001600160a01b03808316911603610e5557604051634a2fb73f60e11b815260040160405180910390fd5b610aba81611aa2565b6000546001600160a01b03163314610e89576040516311a8a1bb60e31b815260040160405180910390fd5b6001600160a01b0381166000818152600b6020908152604091829020805460ff1916905590519182527f384859c5ef5fafac31e8bc92ce7fb48b1f2c74c4dd5e212eb84ec202fa5d9fad91016107ce565b610ee261146d565b60007f00000000000000000000000000000000000000000000000000000000000000006001600160a01b031663ebf0c7176040518163ffffffff1660e01b8152600401602060405180830381865afa158015610f42573d6000803e3d6000fd5b505050506040513d601f19601f82011682018060405250810190610f669190612b5e565b604051602001610f7891815260200190565b6040516020818303038152906040529050610f9281611af0565b7fa69577a1e55dd0712044e7078b408c39fadff8b3e1b334b202ff17e70eda9fdc81336040516107ce929190612a9f565b6000546001600160a01b03163314610fee576040516311a8a1bb60e31b815260040160405180910390fd5b6001600160a01b0381166000818152600b6020908152604091829020805460ff1916600117905590519182527fd65eca5d561d3a4568c87b9b13ced4ab52a69edadfdfdb22d76bc595f36d7d8791016107ce565b6001546001600160a01b0316331461106d576040516311a7f27160e11b815260040160405180910390fd5b62093a806002544261107f9190612b8d565b11610ced5760405163d39c12bb60e01b815260040160405180910390fd5b6000546001600160a01b031633146110c8576040516311a8a1bb60e31b815260040160405180910390fd5b6005546001600160a01b0361010090910481169082160361112b5760405162461bcd60e51b815260206004820152601760248201527f616c72656164792077617463686572206d616e6167657200000000000000000060448201526064016106e8565b6040516001600160a01b03821681527fc16d059e43d7f8e29ccb4e001a2f249d3c59e274925d6a6bc3912943441d9f6c906020016107ce565b600061116f82611bcb565b92915050565b336000908152600b602052604081205460ff166111c35760405162461bcd60e51b815260206004820152600c60248201526b085dda1a5d195b1a5cdd195960a21b60448201526064016106e8565b63ffffffff8085166000908152600c6020526040902054166111e6816001612bc6565b63ffffffff8681166000908152600c60205260408120805463ffffffff19169390921692909217905561123d7f00000000000000000000000000000000000000000000000000000000000000003384898989611bf7565b80516020820120604051632d287e4360e01b8152600481018290529192509060009081907f00000000000000000000000000000000000000000000000000000000000000006001600160a01b031690632d287e439060240160408051808303816000875af11580156112b3573d6000803e3d6000fd5b505050506040513d601f19601f820116820180604052508101906112d79190612bee565b90925090507f40f08ee347fc927ae45902edc87debb024aab1a311943731968607f603f2152f83611309600184612b8d565b848760405161131b9493929190612c12565b60405180910390a1509093505050505b9392505050565b60055460ff166107315760405162461bcd60e51b815260206004820152601460248201527314185d5cd8589b194e881b9bdd081c185d5cd95960621b60448201526064016106e8565b611383611332565b6005805460ff191690557f5db9ee0a495bf2e6ff9c91a7834c1ba4fdd244a5e8aa4e537bd38aeae4b073aa335b6040516001600160a01b03909116815260200160405180910390a1565b6003546113e2906001600160a01b0316611bcb565b6114215760405162461bcd60e51b815260206004820152601060248201526f10b6b4b93937b921b7b73732b1ba37b960811b60448201526064016106e8565b805160201461145c5760405162461bcd60e51b8152602060048201526007602482015266042d8cadccee8d60cb1b60448201526064016106e8565b610aba61146882612c37565b611c2f565b60055460ff16156107315760405162461bcd60e51b815260206004820152601060248201526f14185d5cd8589b194e881c185d5cd95960821b60448201526064016106e8565b6000806000858152600d602052604090205460ff1660028111156114d9576114d961280a565b1461151c5760405162461bcd60e51b8152602060048201526013602482015272214d6573736167655374617475732e4e6f6e6560681b60448201526064016106e8565b611550848460208060200260405190810160405280929190826020800280828437600092019190915250869150611d589050565b949350505050565b6000848152600a602052604090205460ff1661160f5761157783611dfe565b60006115ad858460208060200260405190810160405280929190826020800280828437600092019190915250869150611d589050565b90508381146115f45760405162461bcd60e51b81526020600482015260136024820152721a5b9d985b1a59081a5b989bdd5b99149bdbdd606a1b60448201526064016106e8565b506000848152600a60205260409020805460ff191660011790555b50505050565b60006002600654036116695760405162461bcd60e51b815260206004820152601f60248201527f5265656e7472616e637947756172643a207265656e7472616e742063616c6c0060448201526064016106e8565b6002600655600061167a8382611ef0565b905063ffffffff7f0000000000000000000000000000000000000000000000000000000000000000166116b262ffffff198316611f14565b63ffffffff16146116f45760405162461bcd60e51b815260206004820152600c60248201526b10b232b9ba34b730ba34b7b760a11b60448201526064016106e8565b600061170562ffffff198316611f29565b905060016000828152600d602052604090205460ff16600281111561172c5761172c61280a565b146117635760405162461bcd60e51b815260206004820152600760248201526610b83937bb32b760c91b60448201526064016106e8565b6000818152600d60205260409020805460ff191660021790556117c67f00000000000000000000000000000000000000000000000000000000000000007f0000000000000000000000000000000000000000000000000000000000000000612c5b565b5a10156117fe5760405162461bcd60e51b81526004016106e8906020808252600490820152632167617360e01b604082015260600190565b600061180f62ffffff198416611f72565b6040805161010080825261012082019092529192506000917f000000000000000000000000000000000000000000000000000000000000000090839083602082018180368337019050509050600061186c62ffffff198916611f83565b61187b62ffffff198a16611f97565b61188a62ffffff198b16611fac565b6118a761189c62ffffff198d16611fc1565b62ffffff1916611fef565b6040516024016118ba9493929190612c73565b60408051601f198184030181529190526020810180516001600160e01b031663ab2dc3f560e01b17815281519192506000918291828a88f198503d945083851115611903578394505b848252846000602084013e7fd42de95a9b26f1be134c8ecce389dc4fcfa18753d01661b7b361233569e8fe48878a8460405161194193929190612ca2565b60405180910390a15050600160065550949695505050505050565b600354604080516001600160a01b03928316815291831660208301527fc77bec288fc88f168427f2f7da682eadb26cac89d8d591af6e443da98dff2bbc910160405180910390a1600380546001600160a01b0319166001600160a01b0392909216919091179055565b60045460408051918252602082018390527f34b09b90f4cfa8747776f5cffd7d53ce7863a9b1f1fc8121903d22543a256511910160405180910390a1600455565b600080546001600160a01b038381166001600160a01b0319808416821785556002859055600180549091169055604051919092169283917f8be0079c531659141344cd1fd0a4f28419497f9722a3daafe3b4186f6b6457e09190a35050565b611a6d61146d565b6005805460ff191660011790557f62e78cea01bee320cd4e420270b5ea74000d11b0c9f74754ebdbfc544b05a2586113b03390565b42600255600180546001600160a01b0319166001600160a01b0383169081179091556040517f6ab4d119f23076e8ad491bc65ce85f017fb0591dce08755ba8591059cc51737a90600090a250565b6000634ff746f660e01b82604051602401611b0b9190612cc3565b60408051601f198184030181529181526020820180516001600160e01b03166001600160e01b031990941693909317909252600354600480549351633dbb202b60e01b81529294506001600160a01b037f0000000000000000000000000000000000000000000000000000000000000000811694633dbb202b94611b959490921692879201612cd6565b600060405180830381600087803b158015611baf57600080fd5b505af1158015611bc3573d6000803e3d6000fd5b505050505050565b600061116f7f000000000000000000000000000000000000000000000000000000000000000083612038565b6060868686868686604051602001611c1496959493929190612d10565b60405160208183030381529060405290509695505050505050565b80611c6d5760405162461bcd60e51b815260206004820152600e60248201526d6e657720726f6f7420656d70747960901b60448201526064016106e8565b60008181526008602052604090205415611cc05760405162461bcd60e51b8152602060048201526014602482015273726f6f7420616c72656164792070656e64696e6760601b60448201526064016106e8565b60008181526009602052604090205460ff1615611d155760405162461bcd60e51b81526020600482015260136024820152723937b7ba1030b63932b0b23c90383937bb32b760691b60448201526064016106e8565b60008181526008602052604090819020439055517f84ef18531155afdb0e64ff905d67044ae3aac63a6fba4661cfd9c4c14f289bc8906107ce9083815260200190565b8260005b6020811015611df657600183821c166000858360208110611d7f57611d7f612ac9565b6020020151905081600103611dbf576040805160208101839052908101859052606001604051602081830303815290604052805190602001209350611dec565b60408051602081018690529081018290526060016040516020818303038152906040528051906020012093505b5050600101611d5c565b509392505050565b60008181526009602052604090205460ff1615611e185750565b60008181526008602052604081205490819003611e6e5760405162461bcd60e51b81526020600482015260146024820152731859d9dc9959d85d19549bdbdd0808595e1a5cdd60621b60448201526064016106e8565b600754611e7b8243612b8d565b1015611ec95760405162461bcd60e51b815260206004820152601760248201527f616767726567617465526f6f742021766572696669656400000000000000000060448201526064016106e8565b506000908152600960209081526040808320805460ff191660011790556008909152812055565b815160009060208401611f0b64ffffffffff851682846120f9565b95945050505050565b600061116f62ffffff19831660286004612140565b600080611f3f8360781c6001600160601b031690565b6001600160601b031690506000611f5f8460181c6001600160601b031690565b6001600160601b03169091209392505050565b600061116f611f8083612170565b90565b600061116f62ffffff198316826004612140565b600061116f62ffffff19831660246004612140565b600061116f62ffffff19831660046020612181565b600061116f604c611fdf81601886901c6001600160601b0316612b8d565b62ffffff198516919060006122dd565b60606000806120078460181c6001600160601b031690565b6001600160601b0316905060405191508192506120278483602001612357565b508181016020016040529052919050565b6000336001600160a01b0384161461207c5760405162461bcd60e51b81526020600482015260076024820152662162726964676560c81b60448201526064016106e8565b816001600160a01b0316836001600160a01b0316636e296e456040518163ffffffff1660e01b8152600401602060405180830381865afa1580156120c4573d6000803e3d6000fd5b505050506040513d601f19601f820116820180604052508101906120e89190612d6a565b6001600160a01b0316149392505050565b6000806121068385612c5b565b9050604051811115612116575060005b8060000361212b5762ffffff1991505061132b565b5050606092831b9190911790911b1760181b90565b600061214d826020612d87565b612158906008612daa565b60ff16612166858585612181565b901c949350505050565b600061116f62ffffff198316602c60205b60008160ff166000036121965750600061132b565b6121a98460181c6001600160601b031690565b6001600160601b03166121bf60ff841685612c5b565b11156122235761220a6121db8560781c6001600160601b031690565b6001600160601b03166121f78660181c6001600160601b031690565b6001600160601b0316858560ff166124ae565b60405162461bcd60e51b81526004016106e89190612cc3565b60208260ff16111561229d5760405162461bcd60e51b815260206004820152603a60248201527f54797065644d656d566965772f696e646578202d20417474656d70746564207460448201527f6f20696e646578206d6f7265207468616e20333220627974657300000000000060648201526084016106e8565b6008820260006122b68660781c6001600160601b031690565b6001600160601b031690506000600160ff1b60001984011d91909501511695945050505050565b6000806122f38660781c6001600160601b031690565b6001600160601b031690506123078661251c565b846123128784612c5b565b61231c9190612c5b565b111561232f5762ffffff19915050611550565b6123398582612c5b565b905061234d8364ffffffffff1682866120f9565b9695505050505050565b600062ffffff19808416036123bf5760405162461bcd60e51b815260206004820152602860248201527f54797065644d656d566965772f636f7079546f202d204e756c6c20706f696e7460448201526732b9103232b932b360c11b60648201526084016106e8565b6123c883612555565b6124285760405162461bcd60e51b815260206004820152602b60248201527f54797065644d656d566965772f636f7079546f202d20496e76616c696420706f60448201526a34b73a32b9103232b932b360a91b60648201526084016106e8565b600061243d8460181c6001600160601b031690565b6001600160601b03169050600061245d8560781c6001600160601b031690565b6001600160601b03169050600060405190508481111561247d5760206060fd5b8285848460045afa5061234d6124938760d81c90565b64ffffffffff60601b606091821b168717901b841760181b90565b606060006124bb86612592565b91505060006124c986612592565b91505060006124d786612592565b91505060006124e586612592565b915050838383836040516020016124ff9493929190612dd3565b604051602081830303815290604052945050505050949350505050565b60006125318260181c6001600160601b031690565b6125448360781c6001600160601b031690565b016001600160601b03169050919050565b60006125618260d81c90565b64ffffffffff1664ffffffffff0361257b57506000919050565b60006125868361251c565b60405110199392505050565b600080601f5b600f8160ff1611156125e75760006125b1826008612daa565b60ff1685901c90506125c281612640565b61ffff16841793508160ff166010146125dd57601084901b93505b5060001901612598565b50600f5b60ff8160ff16101561263a576000612604826008612daa565b60ff1685901c905061261581612640565b61ffff16831792508160ff1660001461263057601083901b92505b50600019016125eb565b50915091565b600061265260048360ff16901c612672565b60ff1661ffff919091161760081b61266982612672565b60ff1617919050565b600060f08083179060ff8216900361268d5750603092915050565b8060ff1660f1036126a15750603192915050565b8060ff1660f2036126b55750603292915050565b8060ff1660f3036126c95750603392915050565b8060ff1660f4036126dd5750603492915050565b8060ff1660f5036126f15750603592915050565b8060ff1660f6036127055750603692915050565b8060ff1660f7036127195750603792915050565b8060ff1660f80361272d5750603892915050565b8060ff1660f9036127415750603992915050565b8060ff1660fa036127555750606192915050565b8060ff1660fb036127695750606292915050565b8060ff1660fc0361277d5750606392915050565b8060ff1660fd036127915750606492915050565b8060ff1660fe036127a55750606592915050565b8060ff1660ff036127b95750606692915050565b50919050565b6000602082840312156127d157600080fd5b5035919050565b6001600160a01b0381168114610aba57600080fd5b6000602082840312156127ff57600080fd5b813561132b816127d8565b634e487b7160e01b600052602160045260246000fd5b602081016003831061284257634e487b7160e01b600052602160045260246000fd5b91905290565b634e487b7160e01b600052604160045260246000fd5b600082601f83011261286f57600080fd5b813567ffffffffffffffff8082111561288a5761288a612848565b604051601f8301601f19908116603f011681019082821181831017156128b2576128b2612848565b816040528381528660208588010111156128cb57600080fd5b836020870160208301376000602085830101528094505050505092915050565b6000602082840312156128fd57600080fd5b813567ffffffffffffffff81111561291457600080fd5b6115508482850161285e565b6000806000806000610460868803121561293957600080fd5b853567ffffffffffffffff8082111561295157600080fd5b818801915088601f83011261296557600080fd5b81358181111561297457600080fd5b8960208260051b850101111561298957600080fd5b6020928301975095505086013592506104408601878111156129aa57600080fd5b94979396509194604001933592915050565b803563ffffffff811681146129d057600080fd5b919050565b6000602082840312156129e757600080fd5b61132b826129bc565b600080600060608486031215612a0557600080fd5b612a0e846129bc565b925060208401359150604084013567ffffffffffffffff811115612a3157600080fd5b612a3d8682870161285e565b9150509250925092565b60005b83811015612a62578181015183820152602001612a4a565b8381111561160f5750506000910152565b60008151808452612a8b816020860160208601612a47565b601f01601f19169290920160200192915050565b604081526000612ab26040830185612a73565b905060018060a01b03831660208301529392505050565b634e487b7160e01b600052603260045260246000fd5b6000823561043e19833603018112612af657600080fd5b9190910192915050565b6000808335601e19843603018112612b1757600080fd5b83018035915067ffffffffffffffff821115612b3257600080fd5b602001915036819003821315612b4757600080fd5b9250929050565b8183823760009101908152919050565b600060208284031215612b7057600080fd5b5051919050565b634e487b7160e01b600052601160045260246000fd5b600082821015612b9f57612b9f612b77565b500390565b600060208284031215612bb657600080fd5b8151801515811461132b57600080fd5b600063ffffffff808316818516808303821115612be557612be5612b77565b01949350505050565b60008060408385031215612c0157600080fd5b505080516020909101519092909150565b84815283602082015282604082015260806060820152600061234d6080830184612a73565b805160208083015191908110156127b95760001960209190910360031b1b16919050565b60008219821115612c6e57612c6e612b77565b500190565b600063ffffffff80871683528086166020840152508360408301526080606083015261234d6080830184612a73565b8381528215156020820152606060408201526000611f0b6060830184612a73565b60208152600061132b6020830184612a73565b6001600160a01b0384168152606060208201819052600090612cfa90830185612a73565b905063ffffffff83166040830152949350505050565b600063ffffffff60e01b808960e01b168352876004840152808760e01b166024840152808660e01b1660288401525083602c8301528251612d5881604c850160208701612a47565b91909101604c01979650505050505050565b600060208284031215612d7c57600080fd5b815161132b816127d8565b600060ff821660ff841680821015612da157612da1612b77565b90039392505050565b600060ff821660ff84168160ff0481118215151615612dcb57612dcb612b77565b029392505050565b7f54797065644d656d566965772f696e646578202d204f76657272616e20746865815274040ecd2caee5c40a6d8d2c6ca40d2e640c2e84060f605b1b60208201526001600160d01b031960d086811b821660358401526e040eed2e8d040d8cadccee8d04060f608b1b603b840181905286821b8316604a8501527f2e20417474656d7074656420746f20696e646578206174206f666673657420306050850152600f60fb1b607085015285821b83166071850152607784015283901b166086820152601760f91b608c8201526000608d820161234d56fea2646970667358221220bfc51bb75d83b9d99c75d1f9cf571bc9410fcb87e030914e515b96934ca859cc64736f6c634300080f0033",
  "devdoc": {
    "kind": "dev",
    "methods": {
      "addSender(address)": {
        "details": "Only whitelisted routers (senders) can call `dispatch`."
      },
      "dispatch(uint32,bytes32,bytes)": {
        "details": "The root of this tree will eventually be dispatched to mainnet via `send`. On mainnet (the \"hub\"), it will be combined into a single aggregate root by RootManager (along with outbound roots from other chains). This aggregate root will be redistributed to all destination chains. NOTE: okay to leave dispatch operational when paused as pause is designed for crosschain interactions"
      },
      "home()": {
        "details": "The local inbox contract is a SpokeConnector with AMBs, and a Home contract with nomad",
        "returns": {
          "_0": "The local inbox contract"
        }
      },
      "isReplica(address)": {
        "returns": {
          "_0": "True if _potentialReplica is an enrolled Replica"
        }
      },
      "paused()": {
        "details": "Returns true if the contract is paused, and false otherwise."
      },
      "processMessage(bytes)": {
        "details": "This is called by AMBs to process messages originating from mirror connector"
      },
      "proveAndProcess((bytes,bytes32[32],uint256)[],bytes32,bytes32[32],uint256)": {
        "details": "Currently, ALL messages in a given batch must path to the same shared inboundRoot, meaning they must all share an origin. See open TODO below for a potential solution to enable multi-origin batches.Intended to be called by the relayer at specific intervals during runtime.Will record a calculated root as having been proven if we've already proven that it was included in the aggregateRoot.",
        "params": {
          "_aggregateIndex": "Index of the inbound root in the aggregator's merkle tree in the hub.",
          "_aggregatePath": "Merkle path of inclusion for the inbound root.",
          "_aggregateRoot": "The target aggregate root we want to prove inclusion for. This root must have already been delivered to this spoke connector contract and surpassed the validation period.",
          "_proofs": "Batch of Proofs containing messages for proving/processing."
        }
      },
      "removePendingAggregateRoot(bytes32)": {
        "details": "This method is required for handling fraud cases in the current construction.",
        "params": {
          "_fraudulentRoot": "Target fraudulent root that should be erased from the `pendingAggregateRoots` mapping."
        }
      },
      "removeSender(address)": {
        "details": "Only whitelisted routers (senders) can call `dispatch`."
      },
      "setWatcherManager(address)": {
        "details": "Owner can enroll a watcher (abilities are defined by inheriting contracts)"
      }
    },
    "version": 1
  },
  "userdoc": {
    "events": {
      "MessageProcessed(bytes,address)": {
        "notice": "Emitted whenever a message is successfully received over an AMB"
      },
      "MessageSent(bytes,address)": {
        "notice": "Emitted whenever a message is successfully sent over an AMB"
      }
    },
    "kind": "user",
    "methods": {
      "AMB()": {
        "notice": "Address of the AMB on this domain."
      },
      "DOMAIN()": {
        "notice": "The domain of this Messaging (i.e. Connector) contract."
      },
      "MERKLE()": {
        "notice": "MerkleTreeManager contract instance. Will hold the active tree of message hashes, whose root will be sent crosschain to the hub for aggregation and redistribution."
      },
      "MIRROR_DOMAIN()": {
        "notice": "The domain of the corresponding messaging (i.e. Connector) contract."
      },
      "PROCESS_GAS()": {
        "notice": "Minimum gas for processing a received message (reserved for handle)"
      },
      "RESERVE_GAS()": {
        "notice": "Reserved gas (to ensure tx completes in case message processing runs out)"
      },
      "ROOT_MANAGER()": {
        "notice": "RootManager contract address."
      },
      "acceptProposedOwner()": {
        "notice": "Transfers ownership of the contract to a new account (`newOwner`). Can only be called by the current owner."
      },
      "addSender(address)": {
        "notice": "Adds a sender to the whitelist."
      },
      "delay()": {
        "notice": "Returns the delay period before a new owner can be accepted."
      },
      "delayBlocks()": {
        "notice": "Number of blocks to delay the processing of a message to allow for watchers to verify the validity and pause if necessary."
      },
      "dispatch(uint32,bytes32,bytes)": {
        "notice": "This function adds transfers to the outbound transfer merkle tree."
      },
      "home()": {
        "notice": "Get the local inbox contract from the xAppConnectionManager"
      },
      "isReplica(address)": {
        "notice": "Determine whether _potentialReplica is an enrolled Replica from the xAppConnectionManager"
      },
      "localDomain()": {
        "notice": "This provides the implementation for what is defined in the ConnectorManager to avoid storing the domain redundantly"
      },
      "messages(bytes32)": {
        "notice": "Mapping of message leaves to MessageStatus, keyed on leaf."
      },
      "mirrorConnector()": {
        "notice": "Connector on L2 for L1 connectors, and vice versa."
      },
      "mirrorGas()": {
        "notice": "Gas costs forwarded to the `processMessage` call on the mirror domain"
      },
      "nonces(uint32)": {
        "notice": "domain => next available nonce for the domain."
      },
      "outboundRoot()": {
        "notice": "This returns the root of all messages with the origin domain as this domain (i.e. all outbound messages)"
      },
      "owner()": {
        "notice": "Returns the address of the current owner."
      },
      "pendingAggregateRoots(bytes32)": {
        "notice": "This will hold the commit block for incoming aggregateRoots from the hub chain. Once they are verified, (i.e. have surpassed the verification period in `delayBlocks`) they can be used for proving inclusion of crosschain messages."
      },
      "processMessage(bytes)": {
        "notice": "Processes a message received by an AMB"
      },
      "proposeNewOwner(address)": {
        "notice": "Sets the timestamp for an owner to be proposed, and sets the newly proposed owner as step 1 in a 2-step process"
      },
      "proposed()": {
        "notice": "Returns the address of the proposed owner."
      },
      "proposedTimestamp()": {
        "notice": "Returns the address of the proposed owner."
      },
      "proveAndProcess((bytes,bytes32[32],uint256)[],bytes32,bytes32[32],uint256)": {
        "notice": "Must be able to call the `handle` function on the BridgeRouter contract. This is called on the destination domain to handle incoming messages. Proving: Calculates the expected inbound root from an origin chain given a leaf (message hash), the index of the leaf, and the merkle proof of inclusion (path). Next, we check to ensure that this calculated inbound root is included in the current aggregateRoot, given its index in the aggregator tree and the proof of inclusion. Processing: After all messages have been proven, we dispatch each message to Connext (BridgeRouter) for execution."
      },
      "provenAggregateRoots(bytes32)": {
        "notice": "This tracks the roots of the aggregate tree containing outbound roots from all other supported domains. The current version is the one that is known to be past the delayBlocks time period."
      },
      "provenMessageRoots(bytes32)": {
        "notice": "This tracks whether the root has been proven to exist within the given aggregate root."
      },
      "removePendingAggregateRoot(bytes32)": {
        "notice": "Manually remove a pending aggregateRoot by owner if the contract is paused."
      },
      "removeSender(address)": {
        "notice": "Removes a sender from the whitelist."
      },
      "renounceOwnership()": {
        "notice": "Renounces ownership of the contract after a delay"
      },
      "renounced()": {
        "notice": "Indicates if the ownership has been renounced() by checking if current owner is address(0)"
      },
      "send()": {
        "notice": "This returns the root of all messages with the origin domain as this domain (i.e. all outbound messages)"
      },
      "setDelayBlocks(uint256)": {
        "notice": "Set the `delayBlocks`, the period in blocks over which an incoming message is verified.Set the delayBlocks, in case this needs to be configured later"
      },
      "setMirrorConnector(address)": {
        "notice": "Sets the address of the l2Connector for this domain"
      },
      "setMirrorGas(uint256)": {
        "notice": "Sets the address of the l2Connector for this domain"
      },
      "verifySender(address)": {
        "notice": "Checks the cross domain sender for a given address"
      }
    },
    "version": 1
  },
  "storageLayout": {
    "storage": [
      {
        "astId": 47175,
        "contract": "contracts/messaging/connectors/optimism/OptimismSpokeConnector.sol:OptimismSpokeConnector",
        "label": "_owner",
        "offset": 0,
        "slot": "0",
        "type": "t_address"
      },
      {
        "astId": 47177,
        "contract": "contracts/messaging/connectors/optimism/OptimismSpokeConnector.sol:OptimismSpokeConnector",
        "label": "_proposed",
        "offset": 0,
        "slot": "1",
        "type": "t_address"
      },
      {
        "astId": 47179,
        "contract": "contracts/messaging/connectors/optimism/OptimismSpokeConnector.sol:OptimismSpokeConnector",
        "label": "_proposedOwnershipTimestamp",
        "offset": 0,
        "slot": "2",
        "type": "t_uint256"
      },
      {
        "astId": 37128,
        "contract": "contracts/messaging/connectors/optimism/OptimismSpokeConnector.sol:OptimismSpokeConnector",
        "label": "mirrorConnector",
        "offset": 0,
        "slot": "3",
        "type": "t_address"
      },
      {
        "astId": 37131,
        "contract": "contracts/messaging/connectors/optimism/OptimismSpokeConnector.sol:OptimismSpokeConnector",
        "label": "mirrorGas",
        "offset": 0,
        "slot": "4",
        "type": "t_uint256"
      },
      {
        "astId": 10746,
        "contract": "contracts/messaging/connectors/optimism/OptimismSpokeConnector.sol:OptimismSpokeConnector",
        "label": "_paused",
        "offset": 0,
        "slot": "5",
        "type": "t_bool"
      },
      {
        "astId": 36911,
        "contract": "contracts/messaging/connectors/optimism/OptimismSpokeConnector.sol:OptimismSpokeConnector",
        "label": "watcherManager",
        "offset": 1,
        "slot": "5",
        "type": "t_contract(WatcherManager)37078"
      },
      {
        "astId": 10847,
        "contract": "contracts/messaging/connectors/optimism/OptimismSpokeConnector.sol:OptimismSpokeConnector",
        "label": "_status",
        "offset": 0,
        "slot": "6",
        "type": "t_uint256"
      },
      {
        "astId": 37693,
        "contract": "contracts/messaging/connectors/optimism/OptimismSpokeConnector.sol:OptimismSpokeConnector",
        "label": "delayBlocks",
        "offset": 0,
        "slot": "7",
        "type": "t_uint256"
      },
      {
        "astId": 37708,
        "contract": "contracts/messaging/connectors/optimism/OptimismSpokeConnector.sol:OptimismSpokeConnector",
        "label": "pendingAggregateRoots",
        "offset": 0,
        "slot": "8",
        "type": "t_mapping(t_bytes32,t_uint256)"
      },
      {
        "astId": 37713,
        "contract": "contracts/messaging/connectors/optimism/OptimismSpokeConnector.sol:OptimismSpokeConnector",
        "label": "provenAggregateRoots",
        "offset": 0,
        "slot": "9",
        "type": "t_mapping(t_bytes32,t_bool)"
      },
      {
        "astId": 37718,
        "contract": "contracts/messaging/connectors/optimism/OptimismSpokeConnector.sol:OptimismSpokeConnector",
        "label": "provenMessageRoots",
        "offset": 0,
        "slot": "10",
        "type": "t_mapping(t_bytes32,t_bool)"
      },
      {
        "astId": 37723,
        "contract": "contracts/messaging/connectors/optimism/OptimismSpokeConnector.sol:OptimismSpokeConnector",
        "label": "whitelistedSenders",
        "offset": 0,
        "slot": "11",
        "type": "t_mapping(t_address,t_bool)"
      },
      {
        "astId": 37728,
        "contract": "contracts/messaging/connectors/optimism/OptimismSpokeConnector.sol:OptimismSpokeConnector",
        "label": "nonces",
        "offset": 0,
        "slot": "12",
        "type": "t_mapping(t_uint32,t_uint32)"
      },
      {
        "astId": 37734,
        "contract": "contracts/messaging/connectors/optimism/OptimismSpokeConnector.sol:OptimismSpokeConnector",
        "label": "messages",
        "offset": 0,
        "slot": "13",
        "type": "t_mapping(t_bytes32,t_enum(MessageStatus)37681)"
      }
    ],
    "types": {
      "t_address": {
        "encoding": "inplace",
        "label": "address",
        "numberOfBytes": "20"
      },
      "t_bool": {
        "encoding": "inplace",
        "label": "bool",
        "numberOfBytes": "1"
      },
      "t_bytes32": {
        "encoding": "inplace",
        "label": "bytes32",
        "numberOfBytes": "32"
      },
      "t_contract(WatcherManager)37078": {
        "encoding": "inplace",
        "label": "contract WatcherManager",
        "numberOfBytes": "20"
      },
      "t_enum(MessageStatus)37681": {
        "encoding": "inplace",
        "label": "enum SpokeConnector.MessageStatus",
        "numberOfBytes": "1"
      },
      "t_mapping(t_address,t_bool)": {
        "encoding": "mapping",
        "key": "t_address",
        "label": "mapping(address => bool)",
        "numberOfBytes": "32",
        "value": "t_bool"
      },
      "t_mapping(t_bytes32,t_bool)": {
        "encoding": "mapping",
        "key": "t_bytes32",
        "label": "mapping(bytes32 => bool)",
        "numberOfBytes": "32",
        "value": "t_bool"
      },
      "t_mapping(t_bytes32,t_enum(MessageStatus)37681)": {
        "encoding": "mapping",
        "key": "t_bytes32",
        "label": "mapping(bytes32 => enum SpokeConnector.MessageStatus)",
        "numberOfBytes": "32",
        "value": "t_enum(MessageStatus)37681"
      },
      "t_mapping(t_bytes32,t_uint256)": {
        "encoding": "mapping",
        "key": "t_bytes32",
        "label": "mapping(bytes32 => uint256)",
        "numberOfBytes": "32",
        "value": "t_uint256"
      },
      "t_mapping(t_uint32,t_uint32)": {
        "encoding": "mapping",
        "key": "t_uint32",
        "label": "mapping(uint32 => uint32)",
        "numberOfBytes": "32",
        "value": "t_uint32"
      },
      "t_uint256": {
        "encoding": "inplace",
        "label": "uint256",
        "numberOfBytes": "32"
      },
      "t_uint32": {
        "encoding": "inplace",
        "label": "uint32",
        "numberOfBytes": "4"
      }
    }
  }
}