{
  "address": "0xe806161F790e2cfA9b22131c35b31A543F9769D5",
  "abi": [
    {
      "inputs": [
        {
          "internalType": "uint32",
          "name": "_domain",
          "type": "uint32"
        },
        {
          "internalType": "uint32",
          "name": "_mirrorDomain",
          "type": "uint32"
        },
        {
          "internalType": "address",
          "name": "_amb",
          "type": "address"
        },
        {
          "internalType": "address",
          "name": "_rootManager",
          "type": "address"
        },
        {
          "internalType": "address",
          "name": "_mirrorConnector",
          "type": "address"
        },
        {
          "internalType": "uint256",
          "name": "_mirrorGas",
          "type": "uint256"
        },
        {
          "internalType": "uint256",
          "name": "_processGas",
          "type": "uint256"
        },
        {
          "internalType": "uint256",
          "name": "_reserveGas",
          "type": "uint256"
        }
      ],
      "stateMutability": "nonpayable",
      "type": "constructor"
    },
    {
      "inputs": [],
      "name": "ProposedOwnable__acceptProposedOwner_delayNotElapsed",
      "type": "error"
    },
    {
      "inputs": [],
      "name": "ProposedOwnable__onlyOwner_notOwner",
      "type": "error"
    },
    {
      "inputs": [],
      "name": "ProposedOwnable__onlyProposed_notProposedOwner",
      "type": "error"
    },
    {
      "inputs": [],
      "name": "ProposedOwnable__proposeNewOwner_invalidProposal",
      "type": "error"
    },
    {
      "inputs": [],
      "name": "ProposedOwnable__proposeNewOwner_noOwnershipChange",
      "type": "error"
    },
    {
      "inputs": [],
      "name": "ProposedOwnable__renounceOwnership_delayNotElapsed",
      "type": "error"
    },
    {
      "inputs": [],
      "name": "ProposedOwnable__renounceOwnership_invalidProposal",
      "type": "error"
    },
    {
      "inputs": [],
      "name": "ProposedOwnable__renounceOwnership_noProposal",
      "type": "error"
    },
    {
      "anonymous": false,
      "inputs": [
        {
          "indexed": false,
          "internalType": "bytes32",
          "name": "current",
          "type": "bytes32"
        },
        {
          "indexed": false,
          "internalType": "bytes32",
          "name": "previous",
          "type": "bytes32"
        }
      ],
      "name": "AggregateRootUpdated",
      "type": "event"
    },
    {
      "anonymous": false,
      "inputs": [
        {
          "indexed": false,
          "internalType": "bytes32",
          "name": "leaf",
          "type": "bytes32"
        },
        {
          "indexed": false,
          "internalType": "uint256",
          "name": "index",
          "type": "uint256"
        },
        {
          "indexed": false,
          "internalType": "bytes32",
          "name": "root",
          "type": "bytes32"
        },
        {
          "indexed": false,
          "internalType": "bytes",
          "name": "message",
          "type": "bytes"
        }
      ],
      "name": "Dispatch",
      "type": "event"
    },
    {
      "anonymous": false,
      "inputs": [
        {
          "indexed": false,
          "internalType": "bytes",
          "name": "data",
          "type": "bytes"
        },
        {
          "indexed": false,
          "internalType": "address",
          "name": "caller",
          "type": "address"
        }
      ],
      "name": "MessageProcessed",
      "type": "event"
    },
    {
      "anonymous": false,
      "inputs": [
        {
          "indexed": false,
          "internalType": "bytes",
          "name": "data",
          "type": "bytes"
        },
        {
          "indexed": false,
          "internalType": "address",
          "name": "caller",
          "type": "address"
        }
      ],
      "name": "MessageSent",
      "type": "event"
    },
    {
      "anonymous": false,
      "inputs": [
        {
          "indexed": false,
          "internalType": "address",
          "name": "previous",
          "type": "address"
        },
        {
          "indexed": false,
          "internalType": "address",
          "name": "current",
          "type": "address"
        }
      ],
      "name": "MirrorConnectorUpdated",
      "type": "event"
    },
    {
      "anonymous": false,
      "inputs": [
        {
          "indexed": false,
          "internalType": "uint256",
          "name": "previous",
          "type": "uint256"
        },
        {
          "indexed": false,
          "internalType": "uint256",
          "name": "current",
          "type": "uint256"
        }
      ],
      "name": "MirrorGasUpdated",
      "type": "event"
    },
    {
      "anonymous": false,
      "inputs": [
        {
          "indexed": true,
          "internalType": "uint32",
          "name": "domain",
          "type": "uint32"
        },
        {
          "indexed": true,
          "internalType": "uint32",
          "name": "mirrorDomain",
          "type": "uint32"
        },
        {
          "indexed": false,
          "internalType": "address",
          "name": "amb",
          "type": "address"
        },
        {
          "indexed": false,
          "internalType": "address",
          "name": "rootManager",
          "type": "address"
        },
        {
          "indexed": false,
          "internalType": "address",
          "name": "mirrorConnector",
          "type": "address"
        }
      ],
      "name": "NewConnector",
      "type": "event"
    },
    {
      "anonymous": false,
      "inputs": [
        {
          "indexed": true,
          "internalType": "address",
          "name": "proposedOwner",
          "type": "address"
        }
      ],
      "name": "OwnershipProposed",
      "type": "event"
    },
    {
      "anonymous": false,
      "inputs": [
        {
          "indexed": true,
          "internalType": "address",
          "name": "previousOwner",
          "type": "address"
        },
        {
          "indexed": true,
          "internalType": "address",
          "name": "newOwner",
          "type": "address"
        }
      ],
      "name": "OwnershipTransferred",
      "type": "event"
    },
    {
      "anonymous": false,
      "inputs": [
        {
          "indexed": false,
          "internalType": "bytes32",
          "name": "leaf",
          "type": "bytes32"
        },
        {
          "indexed": false,
          "internalType": "bool",
          "name": "success",
          "type": "bool"
        },
        {
          "indexed": false,
          "internalType": "bytes",
          "name": "returnData",
          "type": "bytes"
        }
      ],
      "name": "Process",
      "type": "event"
    },
    {
      "anonymous": false,
      "inputs": [
        {
          "indexed": false,
          "internalType": "address",
          "name": "sender",
          "type": "address"
        }
      ],
      "name": "SenderAdded",
      "type": "event"
    },
    {
      "anonymous": false,
      "inputs": [
        {
          "indexed": false,
          "internalType": "address",
          "name": "sender",
          "type": "address"
        }
      ],
      "name": "SenderRemoved",
      "type": "event"
    },
    {
      "inputs": [],
      "name": "AMB",
      "outputs": [
        {
          "internalType": "address",
          "name": "",
          "type": "address"
        }
      ],
      "stateMutability": "view",
      "type": "function"
    },
    {
      "inputs": [],
      "name": "DOMAIN",
      "outputs": [
        {
          "internalType": "uint32",
          "name": "",
          "type": "uint32"
        }
      ],
      "stateMutability": "view",
      "type": "function"
    },
    {
      "inputs": [],
      "name": "MIRROR_DOMAIN",
      "outputs": [
        {
          "internalType": "uint32",
          "name": "",
          "type": "uint32"
        }
      ],
      "stateMutability": "view",
      "type": "function"
    },
    {
      "inputs": [],
      "name": "PROCESS_GAS",
      "outputs": [
        {
          "internalType": "uint256",
          "name": "",
          "type": "uint256"
        }
      ],
      "stateMutability": "view",
      "type": "function"
    },
    {
      "inputs": [],
      "name": "RESERVE_GAS",
      "outputs": [
        {
          "internalType": "uint256",
          "name": "",
          "type": "uint256"
        }
      ],
      "stateMutability": "view",
      "type": "function"
    },
    {
      "inputs": [],
      "name": "ROOT_MANAGER",
      "outputs": [
        {
          "internalType": "address",
          "name": "",
          "type": "address"
        }
      ],
      "stateMutability": "view",
      "type": "function"
    },
    {
      "inputs": [],
      "name": "acceptProposedOwner",
      "outputs": [],
      "stateMutability": "nonpayable",
      "type": "function"
    },
    {
      "inputs": [
        {
          "internalType": "address",
          "name": "_sender",
          "type": "address"
        }
      ],
      "name": "addSender",
      "outputs": [],
      "stateMutability": "nonpayable",
      "type": "function"
    },
    {
      "inputs": [],
      "name": "aggregateRoot",
      "outputs": [
        {
          "internalType": "bytes32",
          "name": "",
          "type": "bytes32"
        }
      ],
      "stateMutability": "view",
      "type": "function"
    },
    {
      "inputs": [],
      "name": "count",
      "outputs": [
        {
          "internalType": "uint256",
          "name": "",
          "type": "uint256"
        }
      ],
      "stateMutability": "view",
      "type": "function"
    },
    {
      "inputs": [],
      "name": "delay",
      "outputs": [
        {
          "internalType": "uint256",
          "name": "",
          "type": "uint256"
        }
      ],
      "stateMutability": "view",
      "type": "function"
    },
    {
      "inputs": [
        {
          "internalType": "uint32",
          "name": "_destinationDomain",
          "type": "uint32"
        },
        {
          "internalType": "bytes32",
          "name": "_recipientAddress",
          "type": "bytes32"
        },
        {
          "internalType": "bytes",
          "name": "_messageBody",
          "type": "bytes"
        }
      ],
      "name": "dispatch",
      "outputs": [
        {
          "internalType": "bytes32",
          "name": "",
          "type": "bytes32"
        }
      ],
      "stateMutability": "nonpayable",
      "type": "function"
    },
    {
      "inputs": [],
      "name": "home",
      "outputs": [
        {
          "internalType": "contract IOutbox",
          "name": "",
          "type": "address"
        }
      ],
      "stateMutability": "view",
      "type": "function"
    },
    {
      "inputs": [
        {
          "internalType": "address",
          "name": "_potentialReplica",
          "type": "address"
        }
      ],
      "name": "isReplica",
      "outputs": [
        {
          "internalType": "bool",
          "name": "",
          "type": "bool"
        }
      ],
      "stateMutability": "view",
      "type": "function"
    },
    {
      "inputs": [],
      "name": "localDomain",
      "outputs": [
        {
          "internalType": "uint32",
          "name": "",
          "type": "uint32"
        }
      ],
      "stateMutability": "view",
      "type": "function"
    },
    {
      "inputs": [
        {
          "internalType": "bytes32",
          "name": "",
          "type": "bytes32"
        }
      ],
      "name": "messages",
      "outputs": [
        {
          "internalType": "enum SpokeConnector.MessageStatus",
          "name": "",
          "type": "uint8"
        }
      ],
      "stateMutability": "view",
      "type": "function"
    },
    {
      "inputs": [],
      "name": "mirrorConnector",
      "outputs": [
        {
          "internalType": "address",
          "name": "",
          "type": "address"
        }
      ],
      "stateMutability": "view",
      "type": "function"
    },
    {
      "inputs": [],
      "name": "mirrorGas",
      "outputs": [
        {
          "internalType": "uint256",
          "name": "",
          "type": "uint256"
        }
      ],
      "stateMutability": "view",
      "type": "function"
    },
    {
      "inputs": [
        {
          "internalType": "uint32",
          "name": "",
          "type": "uint32"
        }
      ],
      "name": "nonces",
      "outputs": [
        {
          "internalType": "uint32",
          "name": "",
          "type": "uint32"
        }
      ],
      "stateMutability": "view",
      "type": "function"
    },
    {
      "inputs": [],
      "name": "outboundRoot",
      "outputs": [
        {
          "internalType": "bytes32",
          "name": "",
          "type": "bytes32"
        }
      ],
      "stateMutability": "view",
      "type": "function"
    },
    {
      "inputs": [],
      "name": "owner",
      "outputs": [
        {
          "internalType": "address",
          "name": "",
          "type": "address"
        }
      ],
      "stateMutability": "view",
      "type": "function"
    },
    {
      "inputs": [
        {
          "internalType": "bytes",
          "name": "_data",
          "type": "bytes"
        }
      ],
      "name": "processMessage",
      "outputs": [],
      "stateMutability": "nonpayable",
      "type": "function"
    },
    {
      "inputs": [
        {
          "internalType": "address",
          "name": "newlyProposed",
          "type": "address"
        }
      ],
      "name": "proposeNewOwner",
      "outputs": [],
      "stateMutability": "nonpayable",
      "type": "function"
    },
    {
      "inputs": [],
      "name": "proposed",
      "outputs": [
        {
          "internalType": "address",
          "name": "",
          "type": "address"
        }
      ],
      "stateMutability": "view",
      "type": "function"
    },
    {
      "inputs": [],
      "name": "proposedTimestamp",
      "outputs": [
        {
          "internalType": "uint256",
          "name": "",
          "type": "uint256"
        }
      ],
      "stateMutability": "view",
      "type": "function"
    },
    {
      "inputs": [
        {
          "internalType": "bytes",
          "name": "_message",
          "type": "bytes"
        },
        {
          "internalType": "bytes32[32]",
          "name": "_proof",
          "type": "bytes32[32]"
        },
        {
          "internalType": "uint256",
          "name": "_index",
          "type": "uint256"
        }
      ],
      "name": "proveAndProcess",
      "outputs": [],
      "stateMutability": "nonpayable",
      "type": "function"
    },
    {
      "inputs": [
        {
          "internalType": "bytes32",
          "name": "",
          "type": "bytes32"
        }
      ],
      "name": "provenRoots",
      "outputs": [
        {
          "internalType": "bool",
          "name": "",
          "type": "bool"
        }
      ],
      "stateMutability": "view",
      "type": "function"
    },
    {
      "inputs": [
        {
          "internalType": "address",
          "name": "_sender",
          "type": "address"
        }
      ],
      "name": "removeSender",
      "outputs": [],
      "stateMutability": "nonpayable",
      "type": "function"
    },
    {
      "inputs": [],
      "name": "renounceOwnership",
      "outputs": [],
      "stateMutability": "nonpayable",
      "type": "function"
    },
    {
      "inputs": [],
      "name": "renounced",
      "outputs": [
        {
          "internalType": "bool",
          "name": "",
          "type": "bool"
        }
      ],
      "stateMutability": "view",
      "type": "function"
    },
    {
      "inputs": [],
      "name": "send",
      "outputs": [],
      "stateMutability": "nonpayable",
      "type": "function"
    },
    {
      "inputs": [
        {
          "internalType": "address",
          "name": "_mirrorConnector",
          "type": "address"
        }
      ],
      "name": "setMirrorConnector",
      "outputs": [],
      "stateMutability": "nonpayable",
      "type": "function"
    },
    {
      "inputs": [
        {
          "internalType": "uint256",
          "name": "_mirrorGas",
          "type": "uint256"
        }
      ],
      "name": "setMirrorGas",
      "outputs": [],
      "stateMutability": "nonpayable",
      "type": "function"
    },
    {
      "inputs": [],
      "name": "tree",
      "outputs": [
        {
          "internalType": "uint256",
          "name": "count",
          "type": "uint256"
        }
      ],
      "stateMutability": "view",
      "type": "function"
    },
    {
      "inputs": [
        {
          "internalType": "address",
          "name": "_expected",
          "type": "address"
        }
      ],
      "name": "verifySender",
      "outputs": [
        {
          "internalType": "bool",
          "name": "",
          "type": "bool"
        }
      ],
      "stateMutability": "nonpayable",
      "type": "function"
    },
    {
      "inputs": [
        {
          "internalType": "address",
          "name": "",
          "type": "address"
        }
      ],
      "name": "whitelistedSenders",
      "outputs": [
        {
          "internalType": "bool",
          "name": "",
          "type": "bool"
        }
      ],
      "stateMutability": "view",
      "type": "function"
    }
  ],
  "transactionHash": "0xd3e0e5664f04c306c4450be7fa8f40304f4b8b122e4791b269db88b7c791cd5a",
  "args": [
    "1735356532",
    "1735353714",
    "0x4200000000000000000000000000000000000007",
    "0xa882Da4138D370C7655C1713A95B55411ab092C8",
    "0x0000000000000000000000000000000000000000",
    "850000",
    "850000",
    "15000"
  ],
  "numDeployments": 1,
  "solcInputHash": "2575038f21e3e219679bfa054f96a156",
  "bytecode": "0x6101406040523480156200001257600080fd5b5060405162002e5038038062002e50833981016040819052620000359162000375565b87878787878787878787878787876200004e336200023a565b8563ffffffff16600003620000995760405162461bcd60e51b815260206004820152600c60248201526b32b6b83a3c903237b6b0b4b760a11b60448201526064015b60405180910390fd5b6001600160a01b038316620000e55760405162461bcd60e51b815260206004820152601160248201527032b6b83a3c903937b7ba26b0b730b3b2b960791b604482015260640162000090565b63ffffffff8087166080526001600160a01b0380861660a05284811660c05290861660e0528216156200011d576200011d8262000299565b80156200012f576200012f8162000302565b604080516001600160a01b0386811682528581166020830152841681830152905163ffffffff87811692908916917f4f9c27c2fe3f84576ea469d367d044da53c45e951617e8389f2b5ed8db9d25f09181900360600190a350506001602655505050620cf8508310159050620001d75760405162461bcd60e51b815260206004820152600c60248201526b2170726f636573732067617360a01b604482015260640162000090565b613a988110156200021a5760405162461bcd60e51b815260206004820152600c60248201526b21726573657276652067617360a01b604482015260640162000090565b610100919091526101205250620004029c50505050505050505050505050565b600080546001600160a01b038381166001600160a01b0319808416821785556002859055600180549091169055604051919092169283917f8be0079c531659141344cd1fd0a4f28419497f9722a3daafe3b4186f6b6457e09190a35050565b600354604080516001600160a01b03928316815291831660208301527fc77bec288fc88f168427f2f7da682eadb26cac89d8d591af6e443da98dff2bbc910160405180910390a1600380546001600160a01b0319166001600160a01b0392909216919091179055565b60045460408051918252602082018390527f34b09b90f4cfa8747776f5cffd7d53ce7863a9b1f1fc8121903d22543a256511910160405180910390a1600455565b805163ffffffff811681146200035857600080fd5b919050565b80516001600160a01b03811681146200035857600080fd5b600080600080600080600080610100898b0312156200039357600080fd5b6200039e8962000343565b9750620003ae60208a0162000343565b9650620003be60408a016200035d565b9550620003ce60608a016200035d565b9450620003de60808a016200035d565b935060a0890151925060c0890151915060e089015190509295985092959890939650565b60805160a05160c05160e05161010051610120516129bf62000491600039600081816102790152610e7801526000818161050601528181610e990152610f200152600061023d015260006103760152600081816104df0152818161058f015281816111c1015261123601526000818161033c015281816103f101528181610ad80152610d7a01526129bf6000f3fe608060405234801561001057600080fd5b506004361061021c5760003560e01c80639fa92f9d11610125578063d1851c92116100ad578063db1b76591161007c578063db1b765914610528578063ee250e061461053b578063f38a267b14610544578063fa31de0114610567578063fd54b2281461057a57600080fd5b8063d1851c92146104b7578063d232c220146104c8578063d69f9d61146104da578063d88beda21461050157600080fd5b8063b697f531116100f4578063b697f5311461045a578063b95a20011461046d578063c5b350df14610493578063cc3942831461049b578063cf796c75146104ae57600080fd5b80639fa92f9d14610426578063b1f8100d1461042c578063b2f876431461043f578063b46300ec1461045257600080fd5b80635bd11efc116101a85780636a42b8f8116101775780636a42b8f8146103cb5780636eb67a51146103d4578063715018a6146103e75780638d3638f4146103ef5780638da5cb5b1461041557600080fd5b80635bd11efc1461035e5780635f61e3ec146103715780636188af0e146103b057806365eaf11b146103c357600080fd5b80632bbd59ca116101ef5780632bbd59ca146102ce5780633cf52ffb146102fe5780634ff746f6146103065780635190bc531461031b57806352a9674b1461033757600080fd5b806306661abd14610221578063141684161461023857806325e3beda14610274578063272efc691461029b575b600080fd5b6025545b6040519081526020015b60405180910390f35b61025f7f000000000000000000000000000000000000000000000000000000000000000081565b60405163ffffffff909116815260200161022f565b6102257f000000000000000000000000000000000000000000000000000000000000000081565b6102be6102a9366004612294565b60296020526000908152604090205460ff1681565b604051901515815260200161022f565b6102f16102dc3660046122b1565b602b6020526000908152604090205460ff1681565b60405161022f91906122e0565b600254610225565b6103196103143660046123ab565b610584565b005b6102be610329366004612294565b6001600160a01b0316301490565b61025f7f000000000000000000000000000000000000000000000000000000000000000081565b61031961036c366004612294565b610633565b6103987f000000000000000000000000000000000000000000000000000000000000000081565b6040516001600160a01b03909116815260200161022f565b6103196103be3660046123e0565b61066a565b6102256106c0565b62093a80610225565b6103196103e23660046122b1565b6106d1565b610319610705565b7f000000000000000000000000000000000000000000000000000000000000000061025f565b6000546001600160a01b0316610398565b30610398565b61031961043a366004612294565b6107c4565b61031961044d366004612294565b610869565b6103196108e5565b610319610468366004612294565b61094e565b61025f61047b366004612459565b602a6020526000908152604090205463ffffffff1681565b6103196109cd565b600354610398906001600160a01b031681565b61022560045481565b6001546001600160a01b0316610398565b6000546001600160a01b0316156102be565b6103987f000000000000000000000000000000000000000000000000000000000000000081565b6102257f000000000000000000000000000000000000000000000000000000000000000081565b6102be610536366004612294565b610a28565b61022560275481565b6102be6105523660046122b1565b60286020526000908152604090205460ff1681565b610225610575366004612474565b610a39565b6025546102259081565b336001600160a01b037f000000000000000000000000000000000000000000000000000000000000000016146105ee5760405162461bcd60e51b81526004016105e59060208082526004908201526310a0a6a160e11b604082015260600190565b60405180910390fd5b6105f781610b7c565b7fb3abc57bfeebd2cac918901db582f71972a8e628bccf19f5ae3e3482b98a5ced8133604051610628929190612523565b60405180910390a150565b6000546001600160a01b0316331461065e576040516311a8a1bb60e31b815260040160405180910390fd5b61066781610c18565b50565b61067c83805190602001208383610c81565b6106b15760405162461bcd60e51b81526020600482015260066024820152652170726f766560d01b60448201526064016105e5565b6106ba83610d0c565b50505050565b60006106cc6005611053565b905090565b6000546001600160a01b031633146106fc576040516311a8a1bb60e31b815260040160405180910390fd5b61066781611066565b6000546001600160a01b03163314610730576040516311a8a1bb60e31b815260040160405180910390fd5b60025460000361075357604051630e4b303f60e21b815260040160405180910390fd5b62093a80600254426107659190612563565b11610783576040516386d4b3f160e01b815260040160405180910390fd5b6001546001600160a01b0316156107ad576040516323295ef960e01b815260040160405180910390fd5b6001546107c2906001600160a01b03166110a7565b565b6000546001600160a01b031633146107ef576040516311a8a1bb60e31b815260040160405180910390fd5b6001546001600160a01b03828116911614801561081457506001600160a01b03811615155b15610832576040516311bc066560e11b815260040160405180910390fd5b6000546001600160a01b0380831691160361086057604051634a2fb73f60e11b815260040160405180910390fd5b61066781611106565b6000546001600160a01b03163314610894576040516311a8a1bb60e31b815260040160405180910390fd5b6001600160a01b038116600081815260296020908152604091829020805460ff1916905590519182527f384859c5ef5fafac31e8bc92ce7fb48b1f2c74c4dd5e212eb84ec202fa5d9fad9101610628565b60006108f16005611053565b60405160200161090391815260200190565b604051602081830303815290604052905061091d81611154565b7fa69577a1e55dd0712044e7078b408c39fadff8b3e1b334b202ff17e70eda9fdc8133604051610628929190612523565b6000546001600160a01b03163314610979576040516311a8a1bb60e31b815260040160405180910390fd5b6001600160a01b038116600081815260296020908152604091829020805460ff1916600117905590519182527fd65eca5d561d3a4568c87b9b13ced4ab52a69edadfdfdb22d76bc595f36d7d879101610628565b6001546001600160a01b031633146109f8576040516311a7f27160e11b815260040160405180910390fd5b62093a8060025442610a0a9190612563565b116107ad5760405163d39c12bb60e01b815260040160405180910390fd5b6000610a338261122f565b92915050565b3360009081526029602052604081205460ff16610a875760405162461bcd60e51b815260206004820152600c60248201526b085dda1a5d195b1a5cdd195960a21b60448201526064016105e5565b63ffffffff8085166000908152602a602052604090205416610aaa81600161257a565b63ffffffff8681166000908152602a60205260408120805463ffffffff191693909216929092179055610b017f0000000000000000000000000000000000000000000000000000000000000000338489898961125b565b80516020820120909150610b16600582611293565b7f40f08ee347fc927ae45902edc87debb024aab1a311943731968607f603f2152f816001610b4360255490565b610b4d9190612563565b610b576005611053565b85604051610b6894939291906125a2565b60405180910390a1925050505b9392505050565b600354610b91906001600160a01b031661122f565b610bcc5760405162461bcd60e51b815260206004820152600c60248201526b10b618a1b7b73732b1ba37b960a11b60448201526064016105e5565b8051602014610c075760405162461bcd60e51b8152602060048201526007602482015266042d8cadccee8d60cb1b60448201526064016105e5565b610667610c13826125c7565b6113b0565b600354604080516001600160a01b03928316815291831660208301527fc77bec288fc88f168427f2f7da682eadb26cac89d8d591af6e443da98dff2bbc910160405180910390a1600380546001600160a01b0319166001600160a01b0392909216919091179055565b6000806000858152602b602052604090205460ff166002811115610ca757610ca76122ca565b14610cea5760405162461bcd60e51b8152602060048201526013602482015272214d6573736167655374617475732e4e6f6e6560681b60448201526064016105e5565b5050506000908152602b60205260409020805460ff1916600190811790915590565b6000600260265403610d605760405162461bcd60e51b815260206004820152601f60248201527f5265656e7472616e637947756172643a207265656e7472616e742063616c6c0060448201526064016105e5565b60026026556000610d7183826113f2565b905063ffffffff7f000000000000000000000000000000000000000000000000000000000000000016610da962ffffff198316611416565b63ffffffff1614610deb5760405162461bcd60e51b815260206004820152600c60248201526b10b232b9ba34b730ba34b7b760a11b60448201526064016105e5565b6000610dfc62ffffff19831661142b565b905060016000828152602b602052604090205460ff166002811115610e2357610e236122ca565b14610e5a5760405162461bcd60e51b815260206004820152600760248201526610b83937bb32b760c91b60448201526064016105e5565b6000818152602b60205260409020805460ff19166002179055610ebd7f00000000000000000000000000000000000000000000000000000000000000007f00000000000000000000000000000000000000000000000000000000000000006125eb565b5a1015610ef55760405162461bcd60e51b81526004016105e5906020808252600490820152632167617360e01b604082015260600190565b6000610f0662ffffff198416611474565b6040805161010080825261012082019092529192506000917f0000000000000000000000000000000000000000000000000000000000000000908390836020820181803683370190505090506000610f6362ffffff198916611485565b610f7262ffffff198a16611499565b610f8162ffffff198b166114ae565b610f9e610f9362ffffff198d166114c3565b62ffffff19166114f1565b604051602401610fb19493929190612603565b60408051601f198184030181529190526020810180516001600160e01b031663ab2dc3f560e01b17815281519192506000918291828a88f198503d945083851115610ffa578394505b848252846000602084013e7fd42de95a9b26f1be134c8ecce389dc4fcfa18753d01661b7b361233569e8fe48878a8460405161103893929190612632565b60405180910390a15050600160265550949695505050505050565b6000610a338261106161153a565b6119fb565b60045460408051918252602082018390527f34b09b90f4cfa8747776f5cffd7d53ce7863a9b1f1fc8121903d22543a256511910160405180910390a1600455565b600080546001600160a01b038381166001600160a01b0319808416821785556002859055600180549091169055604051919092169283917f8be0079c531659141344cd1fd0a4f28419497f9722a3daafe3b4186f6b6457e09190a35050565b42600255600180546001600160a01b0319166001600160a01b0383169081179091556040517f6ab4d119f23076e8ad491bc65ce85f017fb0591dce08755ba8591059cc51737a90600090a250565b6000634ff746f660e01b8260405160240161116f9190612653565b60408051601f198184030181529181526020820180516001600160e01b03166001600160e01b031990941693909317909252600354600480549351633dbb202b60e01b81529294506001600160a01b037f0000000000000000000000000000000000000000000000000000000000000000811694633dbb202b946111f99490921692879201612666565b600060405180830381600087803b15801561121357600080fd5b505af1158015611227573d6000803e3d6000fd5b505050505050565b6000610a337f000000000000000000000000000000000000000000000000000000000000000083611acd565b6060868686868686604051602001611278969594939291906126a0565b60405160208183030381529060405290509695505050505050565b60016112a1602060026127de565b6112ab9190612563565b8260200154106112f05760405162461bcd60e51b815260206004820152601060248201526f1b595c9adb19481d1c995948199d5b1b60821b60448201526064016105e5565b600182602001600082825461130591906125eb565b9091555050602082015460005b60208110156113a257816001166001036113415782848260208110611339576113396127ea565b015550505050565b838160208110611353576113536127ea565b0154604080516020810192909252810184905260600160405160208183030381529060405280519060200120925060028261138e9190612800565b91508061139a81612822565b915050611312565b506113ab61283b565b505050565b6027546040805183815260208101929092527fd93b9a9123395d96a15a0cff10295f286f99a0962c9adb978bad3ab6aaea7213910160405180910390a1602755565b81516000906020840161140d64ffffffffff85168284611b8e565b95945050505050565b6000610a3362ffffff19831660286004611bd5565b6000806114418360781c6001600160601b031690565b6001600160601b0316905060006114618460181c6001600160601b031690565b6001600160601b03169091209392505050565b6000610a3361148283611c05565b90565b6000610a3362ffffff198316826004611bd5565b6000610a3362ffffff19831660246004611bd5565b6000610a3362ffffff19831660046020611c16565b6000610a33604c6114e181601886901c6001600160601b0316612563565b62ffffff19851691906000611d72565b60606000806115098460181c6001600160601b031690565b6001600160601b0316905060405191508192506115298483602001611dee565b508181016020016040529052919050565b611542612260565b600081527fad3228b676f7d3cd4284a5443f17f1962b36e491b30a40b2405849e597ba5fb560208201527fb4c11951957c6f8f642c4af61cd6b24640fec6dc7fc607ee8206a99e92410d3060408201527f21ddb9a356815c3fac1026b6dec5df3124afbadb485c9ba5a3e3398a04b7ba8560608201527fe58769b32a1beaf1ea27375a44095a0d1fb664ce2dd358e7fcbfb78c26a1934460808201527f0eb01ebfc9ed27500cd4dfc979272d1f0913cc9f66540d7e8005811109e1cf2d60a08201527f887c22bd8750d34016ac3c66b5ff102dacdd73f6b014e710b51e8022af9a196860c08201527fffd70157e48063fc33c97a050f7f640233bf646cc98d9524c6b92bcf3ab56f8360e08201527f9867cc5f7f196b93bae1e27e6320742445d290f2263827498b54fec539f756af6101008201527fcefad4e508c098b9a7e1d8feb19955fb02ba9675585078710969d3440f5054e06101208201527ff9dc3e7fe016e050eff260334f18a5d4fe391d82092319f5964f2e2eb7c1c3a56101408201527ff8b13a49e282f609c317a833fb8d976d11517c571d1221a265d25af778ecf8926101608201527f3490c6ceeb450aecdc82e28293031d10c7d73bf85e57bf041a97360aa2c5d99c6101808201527fc1df82d9c4b87413eae2ef048f94b4d3554cea73d92b0f7af96e0271c691e2bb6101a08201527f5c67add7c6caf302256adedf7ab114da0acfe870d449a3a489f781d659e8becc6101c08201527fda7bce9f4e8618b6bd2f4132ce798cdc7a60e7e1460a7299e3c6342a579626d26101e08201527f2733e50f526ec2fa19a22b31e8ed50f23cd1fdf94c9154ed3a7609a2f1ff981f6102008201527fe1d3b5c807b281e4683cc6d6315cf95b9ade8641defcb32372f1c126e398ef7a6102208201527f5a2dce0a8a7f68bb74560f8f71837c2c2ebbcbf7fffb42ae1896f13f7c7479a06102408201527fb46a28b6f55540f89444f63de0378e3d121be09e06cc9ded1c20e65876d36aa06102608201527fc65e9645644786b620e2dd2ad648ddfcbf4a7e5b1a3a4ecfe7f64667a3f0b7e26102808201527ff4418588ed35a2458cffeb39b93d26f18d2ab13bdce6aee58e7b99359ec2dfd96102a08201527f5a9c16dc00d6ef18b7933a6f8dc65ccb55667138776f7dea101070dc8796e3776102c08201527f4df84f40ae0c8229d0d6069e5c8f39a7c299677a09d367fc7b05e3bc380ee6526102e08201527fcdc72595f74c7b1043d0e1ffbab734648c838dfb0527d971b602bc216c9619ef6103008201527f0abf5ac974a1ed57f4050aa510dd9c74f508277b39d7973bb2dfccc5eeb0618d6103208201527fb8cd74046ff337f0a7bf2c8e03e10f642c1886798d71806ab1e888d9e5ee87d06103408201527f838c5655cb21c6cb83313b5a631175dff4963772cce9108188b34ac87c81c41e6103608201527f662ee4dd2dd7b2bc707961b1e646c4047669dcb6584f0d8d770daf5d7e7deb2e6103808201527f388ab20e2573d171a88108e79d820e98f26c0b84aa8b2f4aa4968dbb818ea3226103a08201527f93237c50ba75ee485f4c22adf2f741400bdf8d6a9cc7df7ecae576221665d7356103c08201527f8448818bb4ae4562849e949e17ac16e0be16688e156b5cf15e098c627c0056a96103e082015290565b6020820154600090815b6020811015611ac557600182821c166000868360208110611a2857611a286127ea565b0154905081600103611a65576040805160208101839052908101869052606001604051602081830303815290604052805190602001209450611ab0565b84868460208110611a7857611a786127ea565b6020020151604051602001611a97929190918252602082015260400190565b6040516020818303038152906040528051906020012094505b50508080611abd90612822565b915050611a05565b505092915050565b6000336001600160a01b03841614611b115760405162461bcd60e51b81526020600482015260076024820152662162726964676560c81b60448201526064016105e5565b816001600160a01b0316836001600160a01b0316636e296e456040518163ffffffff1660e01b8152600401602060405180830381865afa158015611b59573d6000803e3d6000fd5b505050506040513d601f19601f82011682018060405250810190611b7d9190612851565b6001600160a01b0316149392505050565b600080611b9b83856125eb565b9050604051811115611bab575060005b80600003611bc05762ffffff19915050610b75565b5050606092831b9190911790911b1760181b90565b6000611be282602061286e565b611bed906008612891565b60ff16611bfb858585611c16565b901c949350505050565b6000610a3362ffffff198316602c60205b60008160ff16600003611c2b57506000610b75565b611c3e8460181c6001600160601b031690565b6001600160601b0316611c5460ff8416856125eb565b1115611cb857611c9f611c708560781c6001600160601b031690565b6001600160601b0316611c8c8660181c6001600160601b031690565b6001600160601b0316858560ff16611f4f565b60405162461bcd60e51b81526004016105e59190612653565b60208260ff161115611d325760405162461bcd60e51b815260206004820152603a60248201527f54797065644d656d566965772f696e646578202d20417474656d70746564207460448201527f6f20696e646578206d6f7265207468616e20333220627974657300000000000060648201526084016105e5565b600882026000611d4b8660781c6001600160601b031690565b6001600160601b031690506000600160ff1b60001984011d91909501511695945050505050565b600080611d888660781c6001600160601b031690565b6001600160601b03169050611d9c86611fbd565b84611da787846125eb565b611db191906125eb565b1115611dc45762ffffff19915050611de6565b611dce85826125eb565b9050611de28364ffffffffff168286611b8e565b9150505b949350505050565b600062ffffff1980841603611e565760405162461bcd60e51b815260206004820152602860248201527f54797065644d656d566965772f636f7079546f202d204e756c6c20706f696e7460448201526732b9103232b932b360c11b60648201526084016105e5565b611e5f83611ff6565b611ebf5760405162461bcd60e51b815260206004820152602b60248201527f54797065644d656d566965772f636f7079546f202d20496e76616c696420706f60448201526a34b73a32b9103232b932b360a91b60648201526084016105e5565b6000611ed48460181c6001600160601b031690565b6001600160601b031690506000611ef48560781c6001600160601b031690565b6001600160601b031690506000604051905084811115611f145760206060fd5b8285848460045afa50611f45611f2a8760d81c90565b64ffffffffff60601b606091821b168717901b841760181b90565b9695505050505050565b60606000611f5c86612033565b9150506000611f6a86612033565b9150506000611f7886612033565b9150506000611f8686612033565b91505083838383604051602001611fa094939291906128b2565b604051602081830303815290604052945050505050949350505050565b6000611fd28260181c6001600160601b031690565b611fe58360781c6001600160601b031690565b016001600160601b03169050919050565b60006120028260d81c90565b64ffffffffff1664ffffffffff0361201c57506000919050565b600061202783611fbd565b60405110199392505050565b600080601f5b600f8160ff161115612088576000612052826008612891565b60ff1685901c9050612063816120e1565b61ffff16841793508160ff1660101461207e57601084901b93505b5060001901612039565b50600f5b60ff8160ff1610156120db5760006120a5826008612891565b60ff1685901c90506120b6816120e1565b61ffff16831792508160ff166000146120d157601083901b92505b506000190161208c565b50915091565b60006120f360048360ff16901c612113565b60ff1661ffff919091161760081b61210a82612113565b60ff1617919050565b600060f08083179060ff8216900361212e5750603092915050565b8060ff1660f1036121425750603192915050565b8060ff1660f2036121565750603292915050565b8060ff1660f30361216a5750603392915050565b8060ff1660f40361217e5750603492915050565b8060ff1660f5036121925750603592915050565b8060ff1660f6036121a65750603692915050565b8060ff1660f7036121ba5750603792915050565b8060ff1660f8036121ce5750603892915050565b8060ff1660f9036121e25750603992915050565b8060ff1660fa036121f65750606192915050565b8060ff1660fb0361220a5750606292915050565b8060ff1660fc0361221e5750606392915050565b8060ff1660fd036122325750606492915050565b8060ff1660fe036122465750606592915050565b8060ff1660ff0361225a5750606692915050565b50919050565b6040518061040001604052806020906020820280368337509192915050565b6001600160a01b038116811461066757600080fd5b6000602082840312156122a657600080fd5b8135610b758161227f565b6000602082840312156122c357600080fd5b5035919050565b634e487b7160e01b600052602160045260246000fd5b602081016003831061230257634e487b7160e01b600052602160045260246000fd5b91905290565b634e487b7160e01b600052604160045260246000fd5b600082601f83011261232f57600080fd5b813567ffffffffffffffff8082111561234a5761234a612308565b604051601f8301601f19908116603f0116810190828211818310171561237257612372612308565b8160405283815286602085880101111561238b57600080fd5b836020870160208301376000602085830101528094505050505092915050565b6000602082840312156123bd57600080fd5b813567ffffffffffffffff8111156123d457600080fd5b611de68482850161231e565b600080600061044084860312156123f657600080fd5b833567ffffffffffffffff81111561240d57600080fd5b6124198682870161231e565b93505061042084018581111561242e57600080fd5b60208501925080359150509250925092565b803563ffffffff8116811461245457600080fd5b919050565b60006020828403121561246b57600080fd5b610b7582612440565b60008060006060848603121561248957600080fd5b61249284612440565b925060208401359150604084013567ffffffffffffffff8111156124b557600080fd5b6124c18682870161231e565b9150509250925092565b60005b838110156124e65781810151838201526020016124ce565b838111156106ba5750506000910152565b6000815180845261250f8160208601602086016124cb565b601f01601f19169290920160200192915050565b60408152600061253660408301856124f7565b905060018060a01b03831660208301529392505050565b634e487b7160e01b600052601160045260246000fd5b6000828210156125755761257561254d565b500390565b600063ffffffff8083168185168083038211156125995761259961254d565b01949350505050565b848152836020820152826040820152608060608201526000611f4560808301846124f7565b8051602080830151919081101561225a5760001960209190910360031b1b16919050565b600082198211156125fe576125fe61254d565b500190565b600063ffffffff808716835280861660208401525083604083015260806060830152611f4560808301846124f7565b838152821515602082015260606040820152600061140d60608301846124f7565b602081526000610b7560208301846124f7565b6001600160a01b038416815260606020820181905260009061268a908301856124f7565b905063ffffffff83166040830152949350505050565b600063ffffffff60e01b808960e01b168352876004840152808760e01b166024840152808660e01b1660288401525083602c83015282516126e881604c8501602087016124cb565b91909101604c01979650505050505050565b600181815b8085111561273557816000190482111561271b5761271b61254d565b8085161561272857918102915b93841c93908002906126ff565b509250929050565b60008261274c57506001610a33565b8161275957506000610a33565b816001811461276f576002811461277957612795565b6001915050610a33565b60ff84111561278a5761278a61254d565b50506001821b610a33565b5060208310610133831016604e8410600b84101617156127b8575081810a610a33565b6127c283836126fa565b80600019048211156127d6576127d661254d565b029392505050565b6000610b75838361273d565b634e487b7160e01b600052603260045260246000fd5b60008261281d57634e487b7160e01b600052601260045260246000fd5b500490565b6000600182016128345761283461254d565b5060010190565b634e487b7160e01b600052600160045260246000fd5b60006020828403121561286357600080fd5b8151610b758161227f565b600060ff821660ff8416808210156128885761288861254d565b90039392505050565b600060ff821660ff84168160ff04811182151516156127d6576127d661254d565b7f54797065644d656d566965772f696e646578202d204f76657272616e20746865815274040ecd2caee5c40a6d8d2c6ca40d2e640c2e84060f605b1b60208201526001600160d01b031960d086811b821660358401526e040eed2e8d040d8cadccee8d04060f608b1b603b840181905286821b8316604a8501527f2e20417474656d7074656420746f20696e646578206174206f666673657420306050850152600f60fb1b607085015285821b83166071850152607784015283901b166086820152601760f91b608c8201526000608d8201611f4556fea2646970667358221220bf39138122aa723c5eebe46d6a86dc43ded5ed51061690a7dd3934071141f6bc64736f6c634300080f0033",
  "devdoc": {
    "kind": "dev",
    "methods": {
      "addSender(address)": {
        "details": "Only whitelisted routers can call `dispatch`"
      },
      "dispatch(uint32,bytes32,bytes)": {
        "details": "The root of this tree will eventually be dispatched to mainnet via `send`. On mainnet (the \"hub\"), it will be combined into a single aggregate root by RootManager (along with outbound roots from other chains). This aggregate root will be redistributed to all destination chains."
      },
      "home()": {
        "details": "The local inbox contract is a SpokeConnector with AMBs, and a Home contract with nomad",
        "returns": {
          "_0": "The local inbox contract"
        }
      },
      "isReplica(address)": {
        "returns": {
          "_0": "True if _potentialReplica is an enrolled Replica"
        }
      },
      "processMessage(bytes)": {
        "details": "This is called by AMBs to process messages originating from mirror connector"
      },
      "proveAndProcess(bytes,bytes32[32],uint256)": {
        "details": "Intended to be called by the relayer at specific intervals during runtime."
      },
      "removeSender(address)": {
        "details": "Only whitelisted routers can call `dispatch`"
      }
    },
    "version": 1
  },
  "userdoc": {
    "events": {
      "MessageProcessed(bytes,address)": {
        "notice": "Emitted whenever a message is successfully received over an AMB"
      },
      "MessageSent(bytes,address)": {
        "notice": "Emitted whenever a message is successfully sent over an AMB"
      }
    },
    "kind": "user",
    "methods": {
      "AMB()": {
        "notice": "Address of the AMB on this domain."
      },
      "DOMAIN()": {
        "notice": "The domain of this Messaging (i.e. Connector) contract."
      },
      "MIRROR_DOMAIN()": {
        "notice": "The domain of the corresponding messaging (i.e. Connector) contract."
      },
      "PROCESS_GAS()": {
        "notice": "Minimum gas for processing a received message (reserved for handle)"
      },
      "RESERVE_GAS()": {
        "notice": "Reserved gas (to ensure tx completes in case message processing runs out)"
      },
      "ROOT_MANAGER()": {
        "notice": "RootManager contract address."
      },
      "acceptProposedOwner()": {
        "notice": "Transfers ownership of the contract to a new account (`newOwner`). Can only be called by the current owner."
      },
      "addSender(address)": {
        "notice": "Adds a sender to the whitelist"
      },
      "aggregateRoot()": {
        "notice": "This tracks the root of the tree containing outbound roots from all other supported domains"
      },
      "count()": {
        "notice": "Returns the number of inserted leaves in the tree (current index)"
      },
      "delay()": {
        "notice": "Returns the delay period before a new owner can be accepted."
      },
      "dispatch(uint32,bytes32,bytes)": {
        "notice": "This function adds transfers to the outbound transfer merkle tree."
      },
      "home()": {
        "notice": "Get the local inbox contract from the xAppConnectionManager"
      },
      "isReplica(address)": {
        "notice": "Determine whether _potentialReplica is an enrolled Replica from the xAppConnectionManager"
      },
      "localDomain()": {
        "notice": "This provides the implementation for what is defined in the ConnectorManager to avoid storing the domain redundantly"
      },
      "messages(bytes32)": {
        "notice": "Mapping of message leaves to MessageStatus, keyed on leaf"
      },
      "mirrorConnector()": {
        "notice": "Connector on L2 for L1 connectors, and vice versa."
      },
      "mirrorGas()": {
        "notice": "Gas costs forwarded to the `processMessage` call on the mirror domain"
      },
      "nonces(uint32)": {
        "notice": "domain => next available nonce for the domain"
      },
      "outboundRoot()": {
        "notice": "This returns the root of all messages with the origin domain as this domain (i.e. all outbound messages)"
      },
      "owner()": {
        "notice": "Returns the address of the current owner."
      },
      "processMessage(bytes)": {
        "notice": "Processes a message received by an AMB"
      },
      "proposeNewOwner(address)": {
        "notice": "Sets the timestamp for an owner to be proposed, and sets the newly proposed owner as step 1 in a 2-step process"
      },
      "proposed()": {
        "notice": "Returns the address of the proposed owner."
      },
      "proposedTimestamp()": {
        "notice": "Returns the address of the proposed owner."
      },
      "proveAndProcess(bytes,bytes32[32],uint256)": {
        "notice": "Must be able to call the `handle` function on the BridgeRouter contract. This is called on the destination domain to handle incoming messages."
      },
      "provenRoots(bytes32)": {
        "notice": "This tracks whether the root has been proven to exist within the given aggregate root"
      },
      "removeSender(address)": {
        "notice": "Removes a sender from the whitelist"
      },
      "renounceOwnership()": {
        "notice": "Renounces ownership of the contract after a delay"
      },
      "renounced()": {
        "notice": "Indicates if the ownership has been renounced() by checking if current owner is address(0)"
      },
      "send()": {
        "notice": "This returns the root of all messages with the origin domain as this domain (i.e. all outbound messages)"
      },
      "setMirrorConnector(address)": {
        "notice": "Sets the address of the l2Connector for this domain"
      },
      "setMirrorGas(uint256)": {
        "notice": "Sets the address of the l2Connector for this domain"
      },
      "verifySender(address)": {
        "notice": "Checks the cross domain sender for a given address"
      }
    },
    "version": 1
  },
  "storageLayout": {
    "storage": [
      {
        "astId": 36166,
        "contract": "contracts/messaging/connectors/optimism/OptimismSpokeConnector.sol:OptimismSpokeConnector",
        "label": "_owner",
        "offset": 0,
        "slot": "0",
        "type": "t_address"
      },
      {
        "astId": 36168,
        "contract": "contracts/messaging/connectors/optimism/OptimismSpokeConnector.sol:OptimismSpokeConnector",
        "label": "_proposed",
        "offset": 0,
        "slot": "1",
        "type": "t_address"
      },
      {
        "astId": 36170,
        "contract": "contracts/messaging/connectors/optimism/OptimismSpokeConnector.sol:OptimismSpokeConnector",
        "label": "_proposedOwnershipTimestamp",
        "offset": 0,
        "slot": "2",
        "type": "t_uint256"
      },
      {
        "astId": 29620,
        "contract": "contracts/messaging/connectors/optimism/OptimismSpokeConnector.sol:OptimismSpokeConnector",
        "label": "mirrorConnector",
        "offset": 0,
        "slot": "3",
        "type": "t_address"
      },
      {
        "astId": 29623,
        "contract": "contracts/messaging/connectors/optimism/OptimismSpokeConnector.sol:OptimismSpokeConnector",
        "label": "mirrorGas",
        "offset": 0,
        "slot": "4",
        "type": "t_uint256"
      },
      {
        "astId": 29136,
        "contract": "contracts/messaging/connectors/optimism/OptimismSpokeConnector.sol:OptimismSpokeConnector",
        "label": "tree",
        "offset": 0,
        "slot": "5",
        "type": "t_struct(Tree)34952_storage"
      },
      {
        "astId": 2887,
        "contract": "contracts/messaging/connectors/optimism/OptimismSpokeConnector.sol:OptimismSpokeConnector",
        "label": "_status",
        "offset": 0,
        "slot": "38",
        "type": "t_uint256"
      },
      {
        "astId": 30178,
        "contract": "contracts/messaging/connectors/optimism/OptimismSpokeConnector.sol:OptimismSpokeConnector",
        "label": "aggregateRoot",
        "offset": 0,
        "slot": "39",
        "type": "t_bytes32"
      },
      {
        "astId": 30183,
        "contract": "contracts/messaging/connectors/optimism/OptimismSpokeConnector.sol:OptimismSpokeConnector",
        "label": "provenRoots",
        "offset": 0,
        "slot": "40",
        "type": "t_mapping(t_bytes32,t_bool)"
      },
      {
        "astId": 30188,
        "contract": "contracts/messaging/connectors/optimism/OptimismSpokeConnector.sol:OptimismSpokeConnector",
        "label": "whitelistedSenders",
        "offset": 0,
        "slot": "41",
        "type": "t_mapping(t_address,t_bool)"
      },
      {
        "astId": 30193,
        "contract": "contracts/messaging/connectors/optimism/OptimismSpokeConnector.sol:OptimismSpokeConnector",
        "label": "nonces",
        "offset": 0,
        "slot": "42",
        "type": "t_mapping(t_uint32,t_uint32)"
      },
      {
        "astId": 30199,
        "contract": "contracts/messaging/connectors/optimism/OptimismSpokeConnector.sol:OptimismSpokeConnector",
        "label": "messages",
        "offset": 0,
        "slot": "43",
        "type": "t_mapping(t_bytes32,t_enum(MessageStatus)30169)"
      }
    ],
    "types": {
      "t_address": {
        "encoding": "inplace",
        "label": "address",
        "numberOfBytes": "20"
      },
      "t_array(t_bytes32)32_storage": {
        "base": "t_bytes32",
        "encoding": "inplace",
        "label": "bytes32[32]",
        "numberOfBytes": "1024"
      },
      "t_bool": {
        "encoding": "inplace",
        "label": "bool",
        "numberOfBytes": "1"
      },
      "t_bytes32": {
        "encoding": "inplace",
        "label": "bytes32",
        "numberOfBytes": "32"
      },
      "t_enum(MessageStatus)30169": {
        "encoding": "inplace",
        "label": "enum SpokeConnector.MessageStatus",
        "numberOfBytes": "1"
      },
      "t_mapping(t_address,t_bool)": {
        "encoding": "mapping",
        "key": "t_address",
        "label": "mapping(address => bool)",
        "numberOfBytes": "32",
        "value": "t_bool"
      },
      "t_mapping(t_bytes32,t_bool)": {
        "encoding": "mapping",
        "key": "t_bytes32",
        "label": "mapping(bytes32 => bool)",
        "numberOfBytes": "32",
        "value": "t_bool"
      },
      "t_mapping(t_bytes32,t_enum(MessageStatus)30169)": {
        "encoding": "mapping",
        "key": "t_bytes32",
        "label": "mapping(bytes32 => enum SpokeConnector.MessageStatus)",
        "numberOfBytes": "32",
        "value": "t_enum(MessageStatus)30169"
      },
      "t_mapping(t_uint32,t_uint32)": {
        "encoding": "mapping",
        "key": "t_uint32",
        "label": "mapping(uint32 => uint32)",
        "numberOfBytes": "32",
        "value": "t_uint32"
      },
      "t_struct(Tree)34952_storage": {
        "encoding": "inplace",
        "label": "struct MerkleLib.Tree",
        "members": [
          {
            "astId": 34949,
            "contract": "contracts/messaging/connectors/optimism/OptimismSpokeConnector.sol:OptimismSpokeConnector",
            "label": "branch",
            "offset": 0,
            "slot": "0",
            "type": "t_array(t_bytes32)32_storage"
          },
          {
            "astId": 34951,
            "contract": "contracts/messaging/connectors/optimism/OptimismSpokeConnector.sol:OptimismSpokeConnector",
            "label": "count",
            "offset": 0,
            "slot": "32",
            "type": "t_uint256"
          }
        ],
        "numberOfBytes": "1056"
      },
      "t_uint256": {
        "encoding": "inplace",
        "label": "uint256",
        "numberOfBytes": "32"
      },
      "t_uint32": {
        "encoding": "inplace",
        "label": "uint32",
        "numberOfBytes": "4"
      }
    }
  }
}