{
  "address": "0x157F14f906985CcbCF4c6fCd689147642c7a1766",
  "abi": [
    {
      "inputs": [],
      "name": "AssetLogic__handleIncomingAsset_feeOnTransferNotSupported",
      "type": "error"
    },
    {
      "inputs": [],
      "name": "AssetLogic__handleIncomingAsset_nativeAssetNotSupported",
      "type": "error"
    },
    {
      "inputs": [],
      "name": "AssetLogic__handleOutgoingAsset_notNative",
      "type": "error"
    },
    {
      "inputs": [],
      "name": "BaseConnextFacet__getAdoptedAsset_notWhitelisted",
      "type": "error"
    },
    {
      "inputs": [],
      "name": "BaseConnextFacet__getApprovedCanonicalId_notWhitelisted",
      "type": "error"
    },
    {
      "inputs": [],
      "name": "BaseConnextFacet__nonReentrant_reentrantCall",
      "type": "error"
    },
    {
      "inputs": [],
      "name": "BaseConnextFacet__onlyBridgeRouter_notBridgeRouter",
      "type": "error"
    },
    {
      "inputs": [],
      "name": "BaseConnextFacet__onlyOwnerOrAdmin_notOwnerOrAdmin",
      "type": "error"
    },
    {
      "inputs": [],
      "name": "BaseConnextFacet__onlyOwnerOrRouter_notOwnerOrRouter",
      "type": "error"
    },
    {
      "inputs": [],
      "name": "BaseConnextFacet__onlyOwnerOrWatcher_notOwnerOrWatcher",
      "type": "error"
    },
    {
      "inputs": [],
      "name": "BaseConnextFacet__onlyOwner_notOwner",
      "type": "error"
    },
    {
      "inputs": [],
      "name": "BaseConnextFacet__onlyProposed_notProposedOwner",
      "type": "error"
    },
    {
      "inputs": [],
      "name": "BaseConnextFacet__whenNotPaused_paused",
      "type": "error"
    },
    {
      "inputs": [],
      "name": "RoutersFacet__acceptProposedRouterOwner_notElapsed",
      "type": "error"
    },
    {
      "inputs": [],
      "name": "RoutersFacet__addLiquidityForRouter_amountIsZero",
      "type": "error"
    },
    {
      "inputs": [],
      "name": "RoutersFacet__addLiquidityForRouter_badRouter",
      "type": "error"
    },
    {
      "inputs": [],
      "name": "RoutersFacet__addLiquidityForRouter_capReached",
      "type": "error"
    },
    {
      "inputs": [],
      "name": "RoutersFacet__addLiquidityForRouter_routerEmpty",
      "type": "error"
    },
    {
      "inputs": [],
      "name": "RoutersFacet__approveRouterForPortal_alreadyApproved",
      "type": "error"
    },
    {
      "inputs": [],
      "name": "RoutersFacet__approveRouterForPortal_notAdded",
      "type": "error"
    },
    {
      "inputs": [],
      "name": "RoutersFacet__onlyProposedRouterOwner_notProposedRouterOwner",
      "type": "error"
    },
    {
      "inputs": [],
      "name": "RoutersFacet__onlyProposedRouterOwner_notRouterOwner",
      "type": "error"
    },
    {
      "inputs": [],
      "name": "RoutersFacet__onlyRouterOwner_notRouterOwner",
      "type": "error"
    },
    {
      "inputs": [],
      "name": "RoutersFacet__proposeRouterOwner_badRouter",
      "type": "error"
    },
    {
      "inputs": [],
      "name": "RoutersFacet__proposeRouterOwner_notNewOwner",
      "type": "error"
    },
    {
      "inputs": [],
      "name": "RoutersFacet__removeRouterLiquidityFor_notOwner",
      "type": "error"
    },
    {
      "inputs": [],
      "name": "RoutersFacet__removeRouterLiquidity_amountIsZero",
      "type": "error"
    },
    {
      "inputs": [],
      "name": "RoutersFacet__removeRouterLiquidity_insufficientFunds",
      "type": "error"
    },
    {
      "inputs": [],
      "name": "RoutersFacet__removeRouterLiquidity_recipientEmpty",
      "type": "error"
    },
    {
      "inputs": [],
      "name": "RoutersFacet__removeRouter_notAdded",
      "type": "error"
    },
    {
      "inputs": [],
      "name": "RoutersFacet__removeRouter_routerEmpty",
      "type": "error"
    },
    {
      "inputs": [],
      "name": "RoutersFacet__setLiquidityFeeNumerator_tooLarge",
      "type": "error"
    },
    {
      "inputs": [],
      "name": "RoutersFacet__setLiquidityFeeNumerator_tooSmall",
      "type": "error"
    },
    {
      "inputs": [],
      "name": "RoutersFacet__setMaxRoutersPerTransfer_invalidMaxRoutersPerTransfer",
      "type": "error"
    },
    {
      "inputs": [],
      "name": "RoutersFacet__setRouterRecipient_notNewRecipient",
      "type": "error"
    },
    {
      "inputs": [],
      "name": "RoutersFacet__setupRouter_alreadyAdded",
      "type": "error"
    },
    {
      "inputs": [],
      "name": "RoutersFacet__setupRouter_routerEmpty",
      "type": "error"
    },
    {
      "inputs": [],
      "name": "RoutersFacet__unapproveRouterForPortal_notApproved",
      "type": "error"
    },
    {
      "anonymous": false,
      "inputs": [
        {
          "indexed": false,
          "internalType": "uint256",
          "name": "liquidityFeeNumerator",
          "type": "uint256"
        },
        {
          "indexed": false,
          "internalType": "address",
          "name": "caller",
          "type": "address"
        }
      ],
      "name": "LiquidityFeeNumeratorUpdated",
      "type": "event"
    },
    {
      "anonymous": false,
      "inputs": [
        {
          "indexed": false,
          "internalType": "uint256",
          "name": "maxRoutersPerTransfer",
          "type": "uint256"
        },
        {
          "indexed": false,
          "internalType": "address",
          "name": "caller",
          "type": "address"
        }
      ],
      "name": "MaxRoutersPerTransferUpdated",
      "type": "event"
    },
    {
      "anonymous": false,
      "inputs": [
        {
          "indexed": true,
          "internalType": "address",
          "name": "router",
          "type": "address"
        },
        {
          "indexed": false,
          "internalType": "address",
          "name": "caller",
          "type": "address"
        }
      ],
      "name": "RouterAdded",
      "type": "event"
    },
    {
      "anonymous": false,
      "inputs": [
        {
          "indexed": false,
          "internalType": "address",
          "name": "router",
          "type": "address"
        },
        {
          "indexed": false,
          "internalType": "address",
          "name": "caller",
          "type": "address"
        }
      ],
      "name": "RouterApprovedForPortal",
      "type": "event"
    },
    {
      "anonymous": false,
      "inputs": [
        {
          "indexed": true,
          "internalType": "address",
          "name": "router",
          "type": "address"
        },
        {
          "indexed": false,
          "internalType": "address",
          "name": "local",
          "type": "address"
        },
        {
          "indexed": false,
          "internalType": "bytes32",
          "name": "key",
          "type": "bytes32"
        },
        {
          "indexed": false,
          "internalType": "uint256",
          "name": "amount",
          "type": "uint256"
        },
        {
          "indexed": false,
          "internalType": "address",
          "name": "caller",
          "type": "address"
        }
      ],
      "name": "RouterLiquidityAdded",
      "type": "event"
    },
    {
      "anonymous": false,
      "inputs": [
        {
          "indexed": true,
          "internalType": "address",
          "name": "router",
          "type": "address"
        },
        {
          "indexed": false,
          "internalType": "address",
          "name": "to",
          "type": "address"
        },
        {
          "indexed": false,
          "internalType": "address",
          "name": "local",
          "type": "address"
        },
        {
          "indexed": false,
          "internalType": "bytes32",
          "name": "key",
          "type": "bytes32"
        },
        {
          "indexed": false,
          "internalType": "uint256",
          "name": "amount",
          "type": "uint256"
        },
        {
          "indexed": false,
          "internalType": "address",
          "name": "caller",
          "type": "address"
        }
      ],
      "name": "RouterLiquidityRemoved",
      "type": "event"
    },
    {
      "anonymous": false,
      "inputs": [
        {
          "indexed": true,
          "internalType": "address",
          "name": "router",
          "type": "address"
        },
        {
          "indexed": true,
          "internalType": "address",
          "name": "prevOwner",
          "type": "address"
        },
        {
          "indexed": true,
          "internalType": "address",
          "name": "newOwner",
          "type": "address"
        }
      ],
      "name": "RouterOwnerAccepted",
      "type": "event"
    },
    {
      "anonymous": false,
      "inputs": [
        {
          "indexed": true,
          "internalType": "address",
          "name": "router",
          "type": "address"
        },
        {
          "indexed": true,
          "internalType": "address",
          "name": "prevProposed",
          "type": "address"
        },
        {
          "indexed": true,
          "internalType": "address",
          "name": "newProposed",
          "type": "address"
        }
      ],
      "name": "RouterOwnerProposed",
      "type": "event"
    },
    {
      "anonymous": false,
      "inputs": [
        {
          "indexed": true,
          "internalType": "address",
          "name": "router",
          "type": "address"
        },
        {
          "indexed": true,
          "internalType": "address",
          "name": "prevRecipient",
          "type": "address"
        },
        {
          "indexed": true,
          "internalType": "address",
          "name": "newRecipient",
          "type": "address"
        }
      ],
      "name": "RouterRecipientSet",
      "type": "event"
    },
    {
      "anonymous": false,
      "inputs": [
        {
          "indexed": true,
          "internalType": "address",
          "name": "router",
          "type": "address"
        },
        {
          "indexed": false,
          "internalType": "address",
          "name": "caller",
          "type": "address"
        }
      ],
      "name": "RouterRemoved",
      "type": "event"
    },
    {
      "anonymous": false,
      "inputs": [
        {
          "indexed": false,
          "internalType": "address",
          "name": "router",
          "type": "address"
        },
        {
          "indexed": false,
          "internalType": "address",
          "name": "caller",
          "type": "address"
        }
      ],
      "name": "RouterUnapprovedForPortal",
      "type": "event"
    },
    {
      "inputs": [],
      "name": "LIQUIDITY_FEE_DENOMINATOR",
      "outputs": [
        {
          "internalType": "uint256",
          "name": "",
          "type": "uint256"
        }
      ],
      "stateMutability": "pure",
      "type": "function"
    },
    {
      "inputs": [],
      "name": "LIQUIDITY_FEE_NUMERATOR",
      "outputs": [
        {
          "internalType": "uint256",
          "name": "",
          "type": "uint256"
        }
      ],
      "stateMutability": "view",
      "type": "function"
    },
    {
      "inputs": [
        {
          "internalType": "address",
          "name": "router",
          "type": "address"
        }
      ],
      "name": "acceptProposedRouterOwner",
      "outputs": [],
      "stateMutability": "nonpayable",
      "type": "function"
    },
    {
      "inputs": [
        {
          "internalType": "uint256",
          "name": "_amount",
          "type": "uint256"
        },
        {
          "internalType": "address",
          "name": "_local",
          "type": "address"
        }
      ],
      "name": "addRouterLiquidity",
      "outputs": [],
      "stateMutability": "payable",
      "type": "function"
    },
    {
      "inputs": [
        {
          "internalType": "uint256",
          "name": "_amount",
          "type": "uint256"
        },
        {
          "internalType": "address",
          "name": "_local",
          "type": "address"
        },
        {
          "internalType": "address",
          "name": "_router",
          "type": "address"
        }
      ],
      "name": "addRouterLiquidityFor",
      "outputs": [],
      "stateMutability": "payable",
      "type": "function"
    },
    {
      "inputs": [
        {
          "internalType": "address",
          "name": "_router",
          "type": "address"
        }
      ],
      "name": "approveRouterForPortal",
      "outputs": [],
      "stateMutability": "nonpayable",
      "type": "function"
    },
    {
      "inputs": [
        {
          "internalType": "address",
          "name": "_router",
          "type": "address"
        }
      ],
      "name": "getProposedRouterOwner",
      "outputs": [
        {
          "internalType": "address",
          "name": "",
          "type": "address"
        }
      ],
      "stateMutability": "view",
      "type": "function"
    },
    {
      "inputs": [
        {
          "internalType": "address",
          "name": "_router",
          "type": "address"
        }
      ],
      "name": "getProposedRouterOwnerTimestamp",
      "outputs": [
        {
          "internalType": "uint256",
          "name": "",
          "type": "uint256"
        }
      ],
      "stateMutability": "view",
      "type": "function"
    },
    {
      "inputs": [
        {
          "internalType": "address",
          "name": "_router",
          "type": "address"
        }
      ],
      "name": "getRouterApproval",
      "outputs": [
        {
          "internalType": "bool",
          "name": "",
          "type": "bool"
        }
      ],
      "stateMutability": "view",
      "type": "function"
    },
    {
      "inputs": [
        {
          "internalType": "address",
          "name": "_router",
          "type": "address"
        }
      ],
      "name": "getRouterApprovalForPortal",
      "outputs": [
        {
          "internalType": "bool",
          "name": "",
          "type": "bool"
        }
      ],
      "stateMutability": "view",
      "type": "function"
    },
    {
      "inputs": [
        {
          "internalType": "address",
          "name": "_router",
          "type": "address"
        }
      ],
      "name": "getRouterOwner",
      "outputs": [
        {
          "internalType": "address",
          "name": "",
          "type": "address"
        }
      ],
      "stateMutability": "view",
      "type": "function"
    },
    {
      "inputs": [
        {
          "internalType": "address",
          "name": "_router",
          "type": "address"
        }
      ],
      "name": "getRouterRecipient",
      "outputs": [
        {
          "internalType": "address",
          "name": "",
          "type": "address"
        }
      ],
      "stateMutability": "view",
      "type": "function"
    },
    {
      "inputs": [],
      "name": "maxRoutersPerTransfer",
      "outputs": [
        {
          "internalType": "uint256",
          "name": "",
          "type": "uint256"
        }
      ],
      "stateMutability": "view",
      "type": "function"
    },
    {
      "inputs": [
        {
          "internalType": "address",
          "name": "router",
          "type": "address"
        },
        {
          "internalType": "address",
          "name": "proposed",
          "type": "address"
        }
      ],
      "name": "proposeRouterOwner",
      "outputs": [],
      "stateMutability": "nonpayable",
      "type": "function"
    },
    {
      "inputs": [
        {
          "internalType": "address",
          "name": "router",
          "type": "address"
        }
      ],
      "name": "removeRouter",
      "outputs": [],
      "stateMutability": "nonpayable",
      "type": "function"
    },
    {
      "inputs": [
        {
          "internalType": "uint256",
          "name": "_amount",
          "type": "uint256"
        },
        {
          "internalType": "address",
          "name": "_local",
          "type": "address"
        },
        {
          "internalType": "address payable",
          "name": "_to",
          "type": "address"
        }
      ],
      "name": "removeRouterLiquidity",
      "outputs": [],
      "stateMutability": "nonpayable",
      "type": "function"
    },
    {
      "inputs": [
        {
          "internalType": "uint256",
          "name": "_amount",
          "type": "uint256"
        },
        {
          "internalType": "address",
          "name": "_local",
          "type": "address"
        },
        {
          "internalType": "address payable",
          "name": "_to",
          "type": "address"
        },
        {
          "internalType": "address",
          "name": "_router",
          "type": "address"
        }
      ],
      "name": "removeRouterLiquidityFor",
      "outputs": [],
      "stateMutability": "nonpayable",
      "type": "function"
    },
    {
      "inputs": [
        {
          "internalType": "address",
          "name": "_router",
          "type": "address"
        },
        {
          "internalType": "address",
          "name": "_asset",
          "type": "address"
        }
      ],
      "name": "routerBalances",
      "outputs": [
        {
          "internalType": "uint256",
          "name": "",
          "type": "uint256"
        }
      ],
      "stateMutability": "view",
      "type": "function"
    },
    {
      "inputs": [
        {
          "internalType": "uint256",
          "name": "_numerator",
          "type": "uint256"
        }
      ],
      "name": "setLiquidityFeeNumerator",
      "outputs": [],
      "stateMutability": "nonpayable",
      "type": "function"
    },
    {
      "inputs": [
        {
          "internalType": "uint256",
          "name": "_newMaxRouters",
          "type": "uint256"
        }
      ],
      "name": "setMaxRoutersPerTransfer",
      "outputs": [],
      "stateMutability": "nonpayable",
      "type": "function"
    },
    {
      "inputs": [
        {
          "internalType": "address",
          "name": "router",
          "type": "address"
        },
        {
          "internalType": "address",
          "name": "recipient",
          "type": "address"
        }
      ],
      "name": "setRouterRecipient",
      "outputs": [],
      "stateMutability": "nonpayable",
      "type": "function"
    },
    {
      "inputs": [
        {
          "internalType": "address",
          "name": "router",
          "type": "address"
        },
        {
          "internalType": "address",
          "name": "owner",
          "type": "address"
        },
        {
          "internalType": "address",
          "name": "recipient",
          "type": "address"
        }
      ],
      "name": "setupRouter",
      "outputs": [],
      "stateMutability": "nonpayable",
      "type": "function"
    },
    {
      "inputs": [
        {
          "internalType": "address",
          "name": "_router",
          "type": "address"
        }
      ],
      "name": "unapproveRouterForPortal",
      "outputs": [],
      "stateMutability": "nonpayable",
      "type": "function"
    }
  ],
  "transactionHash": "0xd8f7c321b0715abb8e1b00d418b1964d2a8341fe175abfd5d63c1e54c4bff249",
  "args": [],
  "numDeployments": 1,
  "solcInputHash": "2cb19c6ff260c62b0df6791111e721e0",
  "bytecode": "0x608060405234801561001057600080fd5b50612098806100206000396000f3fe6080604052600436106101405760003560e01c806354064594116100b65780639bf6d8751161006f5780639bf6d875146103cf578063c6bf691d146103e4578063da3a892f1461041d578063e9160f3e1461043d578063eb492f441461045d578063ffaf3f1a1461047d57600080fd5b80635406459414610303578063582c78d2146103165780636ae0b1541461033657806382904716146103565780638770e68214610376578063899962a1146103af57600080fd5b8063197c139d11610108578063197c139d1461022a57806322a3c0071461024a5780632d3f9ef61461026a5780633b688da61461027d57806341258b5c146102ce5780634b72c5da146102ee57600080fd5b806304376ff4146101455780630951d6d81461016757806309935b8f1461018b57806312d57170146101ab5780631407093b146101e1575b600080fd5b34801561015157600080fd5b50610165610160366004611db7565b61049d565b005b34801561017357600080fd5b506001545b6040519081526020015b60405180910390f35b34801561019757600080fd5b506101656101a6366004611db7565b610595565b3480156101b757600080fd5b506101786101c6366004611db7565b6001600160a01b03166000908152601f602052604090205490565b3480156101ed57600080fd5b5061021a6101fc366004611db7565b6001600160a01b03166000908152601a602052604090205460ff1690565b6040519015158152602001610182565b34801561023657600080fd5b50610165610245366004611dd4565b610753565b34801561025657600080fd5b50610165610265366004611e27565b6107f1565b610165610278366004611e60565b610939565b34801561028957600080fd5b506102b6610298366004611db7565b6001600160a01b039081166000908152601e60205260409020541690565b6040516001600160a01b039091168152602001610182565b3480156102da57600080fd5b506101786102e9366004611e27565b61099b565b3480156102fa57600080fd5b50612710610178565b610165610311366004611ea2565b6109c8565b34801561032257600080fd5b50610165610331366004611ec7565b610a29565b34801561034257600080fd5b50610165610351366004611db7565b610b27565b34801561036257600080fd5b50610165610371366004611ec7565b610d88565b34801561038257600080fd5b5061021a610391366004611db7565b6001600160a01b03166000908152601b602052604090205460ff1690565b3480156103bb57600080fd5b506101656103ca366004611e60565b610e53565b3480156103db57600080fd5b50601054610178565b3480156103f057600080fd5b506102b66103ff366004611db7565b6001600160a01b039081166000908152601c60205260409020541690565b34801561042957600080fd5b50610165610438366004611db7565b610eac565b34801561044957600080fd5b506102b6610458366004611db7565b610fed565b34801561046957600080fd5b50610165610478366004611ee0565b61101f565b34801561048957600080fd5b50610165610498366004611e27565b61120c565b336104a661130e565b6001600160a01b0316141580156104e1575060033360009081526019602052604090205460ff1660038111156104de576104de611f10565b14155b156104ff57604051637b32c26b60e01b815260040160405180910390fd5b6001600160a01b0381166000908152601b602052604090205460ff1661053857604051635d3abc4360e11b815260040160405180910390fd5b6001600160a01b0381166000818152601b6020908152604091829020805460ff19169055815192835233908301527f903522f09b29fa2102f5d8d8b181ac8edb4cfaf5d705076e4ab95117f6bb02ad91015b60405180910390a150565b6001600160a01b038082166000908152601e60205260409020548291168061061e576001600160a01b038083166000908152601d602052604090205416801580156105e85750336001600160a01b038416145b806105fb57506001600160a01b03811633145b6106185760405163f72e7a4760e01b815260040160405180910390fd5b50610647565b336001600160a01b0382161461064757604051630c2baa6160e41b815260040160405180910390fd5b600061065284610fed565b6001600160a01b0385166000908152601f602052604090205490915062093a809061067d9042611f3c565b1161069b576040516376b2ad0760e01b815260040160405180910390fd5b6001600160a01b038085166000908152601e6020908152604080832054601d90925290912080546001600160a01b031916919092169081179091558015610703576001600160a01b0385166000908152601e6020526040902080546001600160a01b03191690555b6001600160a01b038086166000818152601f60205260408082208290555184841693861692917fd73892e8827a6025d74a01fca72a8e0d9e2c04080272e728f8861410c7d3c2d191a45050505050565b6020546001190161077757604051637ce54e2d60e11b815260040160405180910390fd5b600260205560235460ff16156107a057604051633ee5b89360e01b815260040160405180910390fd5b6107a981610fed565b6001600160a01b0316336001600160a01b0316146107da5760405163f3dc2d1960e01b815260040160405180910390fd5b6107e68484848461133c565b505060016020555050565b6001600160a01b038083166000908152601d6020526040902054839116801580156108245750336001600160a01b038316145b8061083757506001600160a01b03811633145b6108545760405163407c584960e01b815260040160405180910390fd5b826001600160a01b031661086785610fed565b6001600160a01b03160361088e57604051630e49614b60e31b815260040160405180910390fd5b6001600160a01b038085166000908152601e6020526040902054811690841681036108cc57604051631b2163f160e31b815260040160405180910390fd5b6001600160a01b038581166000818152601e6020908152604080832080546001600160a01b0319168a8716908117909155601f909252808320429055519093851692917fee0158b57adc03901d8b16c48cd10c33ca1283ee96c6e0d30f817ceba74dc4a191a45050505050565b6020546001190161095d57604051637ce54e2d60e11b815260040160405180910390fd5b600260205560235460ff161561098657604051633ee5b89360e01b815260040160405180910390fd5b6109918383836114b6565b5050600160205550565b6001600160a01b038083166000908152600e60209081526040808320938516835292905220545b92915050565b602054600119016109ec57604051637ce54e2d60e11b815260040160405180910390fd5b600260205560235460ff1615610a1557604051633ee5b89360e01b815260040160405180910390fd5b610a208282336114b6565b50506001602055565b33610a3261130e565b6001600160a01b031614158015610a6d575060033360009081526019602052604090205460ff166003811115610a6a57610a6a611f10565b14155b15610a8b57604051637b32c26b60e01b815260040160405180910390fd5b6127106064610a9b82605f611f53565b610aa59190611f72565b821015610ac55760405163b74bfc8360e01b815260040160405180910390fd5b80821115610ae657604051637347083360e11b815260040160405180910390fd5b6001829055604080518381523360208201527feb6222a0b32216f861511e9aba88faa9549b749c2e0ad47df4e288565de5ceae910160405180910390a15050565b33610b3061130e565b6001600160a01b031614158015610b6b575060013360009081526019602052604090205460ff166003811115610b6857610b68611f10565b14155b15610b89576040516360237f6b60e11b815260040160405180910390fd5b6001600160a01b038116610bb05760405163128df0bf60e21b815260040160405180910390fd5b6001600160a01b0381166000908152601a602052604090205460ff16610be957604051633fb36f5d60e01b815260040160405180910390fd5b6001600160a01b0381166000818152601a6020908152604091829020805460ff1916905590513381527fbee3e974bb6a6f44f20096ede047c191eef60322e65e4ee4bd3392230a8716d5910160405180910390a26001600160a01b038082166000908152601d6020526040902054168015610cc0576040516000906001600160a01b0383811691908516907fd73892e8827a6025d74a01fca72a8e0d9e2c04080272e728f8861410c7d3c2d1908490a46001600160a01b0382166000908152601d6020526040902080546001600160a01b03191690555b6001600160a01b038083166000908152601c6020526040902054168015610d43576040516000906001600160a01b0383811691908616907f31f32ebf07b0ac7fe173f7b7f3f943020d9bdc6dbfbdcdae01bd45ea78d953d7908490a46001600160a01b0383166000908152601c6020526040902080546001600160a01b03191690555b50506001600160a01b03166000908152601e6020908152604080832080546001600160a01b0319169055601f8252808320839055601b9091529020805460ff19169055565b33610d9161130e565b6001600160a01b031614158015610dcc575060033360009081526019602052604090205460ff166003811115610dc957610dc9611f10565b14155b15610dea57604051637b32c26b60e01b815260040160405180910390fd5b801580610df8575060105481145b15610e1657604051630d9f9fad60e01b815260040160405180910390fd5b604080518281523360208201527fa7fe33308fb33ae6f3259e3c7c954ae3d6cd7f428cd17f653413c2cdc691666d910160405180910390a1601055565b60205460011901610e7757604051637ce54e2d60e11b815260040160405180910390fd5b600260205560235460ff1615610ea057604051633ee5b89360e01b815260040160405180910390fd5b6109918383833361133c565b33610eb561130e565b6001600160a01b031614158015610ef0575060033360009081526019602052604090205460ff166003811115610eed57610eed611f10565b14155b15610f0e57604051637b32c26b60e01b815260040160405180910390fd5b6001600160a01b0381166000908152601a602052604090205460ff16158015610f3c5750610f3a6116c8565b155b15610f5a576040516375befccb60e01b815260040160405180910390fd5b6001600160a01b0381166000908152601b602052604090205460ff1615610f945760405163c896c2d960e01b815260040160405180910390fd5b6001600160a01b0381166000818152601b6020908152604091829020805460ff19166001179055815192835233908301527fc428fad4df337e27be8199c35a79ca103e8d00538a69b0f9701fb2bdf7d6c84c910161058a565b6001600160a01b038082166000908152601d602052604081205490911680156110165780611018565b825b9392505050565b3361102861130e565b6001600160a01b031614158015611063575060013360009081526019602052604090205460ff16600381111561106057611060611f10565b14155b15611081576040516360237f6b60e11b815260040160405180910390fd5b6001600160a01b0383166110a85760405163e0239aa960e01b815260040160405180910390fd5b6001600160a01b0383166000908152601a602052604090205460ff16156110e25760405163201b2fd160e11b815260040160405180910390fd5b6001600160a01b0383166000818152601a6020908152604091829020805460ff1916600117905590513381527fbc68405e644da2aaf25623ce2199da82c6dfd2e1de102b400eba6a091704d4f4910160405180910390a26001600160a01b038216156111a0576001600160a01b038381166000818152601d602052604080822080546001600160a01b0319169487169485179055519091907fd73892e8827a6025d74a01fca72a8e0d9e2c04080272e728f8861410c7d3c2d1908390a45b6001600160a01b03811615611207576001600160a01b038381166000818152601c602052604080822080546001600160a01b0319169486169485179055519091907f31f32ebf07b0ac7fe173f7b7f3f943020d9bdc6dbfbdcdae01bd45ea78d953d7908390a45b505050565b6001600160a01b038083166000908152601d60205260409020548391168015801561123f5750336001600160a01b038316145b8061125257506001600160a01b03811633145b61126f5760405163407c584960e01b815260040160405180910390fd5b6001600160a01b038085166000908152601c6020526040902054811690841681036112ad57604051631b0043f560e31b815260040160405180910390fd5b6001600160a01b038581166000818152601c602052604080822080546001600160a01b03191689861690811790915590519093851692917f31f32ebf07b0ac7fe173f7b7f3f943020d9bdc6dbfbdcdae01bd45ea78d953d791a45050505050565b7fc8fcad8db84d3cc18b4c41d551ea0ee66dd599cde068d998e57d5e09332c1320546001600160a01b031690565b6001600160a01b038181166000908152601c60205260409020541680156113635780611365565b825b90506001600160a01b03811661138e5760405163516101e760e11b815260040160405180910390fd5b846000036113af5760405163606ab7a160e11b815260040160405180910390fd5b60006113ba856116ef565b905060006113d08260200151836000015161170e565b6001600160a01b038086166000908152600e60209081526040808320938b16835292905220549091508781101561141a57604051630a1e6d4d60e01b815260040160405180910390fd5b6001600160a01b038086166000908152600e60209081526040808320938b16835292905220888203905561144f87858a611750565b604080516001600160a01b0386811682528981166020830152918101849052606081018a9052336080820152908616907ffacf3161e9675ca1ca84a16d238bc838c7e2084c302cf411d9da7ac0391f64869060a00160405180910390a25050505050505050565b6001600160a01b0381166114dd576040516339773cbf60e21b815260040160405180910390fd5b826000036114fe57604051632a24141960e01b815260040160405180910390fd5b60008061150a8461178f565b915091506115166116c8565b15801561153c57506001600160a01b0383166000908152601a602052604090205460ff16155b1561155a57604051631464c65f60e31b815260040160405180910390fd5b815160045463ffffffff918216911603611626576040516370a0823160e01b815230600482015260009086906001600160a01b038716906370a0823190602401602060405180830381865afa1580156115b7573d6000803e3d6000fd5b505050506040513d601f19601f820116820180604052508101906115db9190611f94565b6115e59190611fad565b600083815260076020526040902054909150801580159061160557508082115b1561162357604051638ada373160e01b815260040160405180910390fd5b50505b6116308486611813565b6001600160a01b038084166000908152600e6020908152604080832093881683529290529081208054879290611667908490611fad565b9091555050604080516001600160a01b03868116825260208201849052918101879052336060820152908416907fcc3100122c1752fe0f6bfa5503175bc53eb00b5f2d774e81efedcd2b10a6d24b9060800160405180910390a25050505050565b6000806116d361130e565b6001600160a01b031614806116ea575060155460ff165b905090565b60408051808201909152600080825260208201526109c2826000611953565b6000828260405160200161173292919091825263ffffffff16602082015260400190565b60405160208183030381529060405280519060200120905092915050565b8060000361175d57505050565b6001600160a01b03831661178457604051633a48ca7b60e11b815260040160405180910390fd5b611207838383611a4b565b60408051808201909152600080825260208201526000806117af846116ef565b905060006117c58260200151836000015161170e565b90506117cf611aae565b1580156117eb575060008181526006602052604090205460ff16155b156118095760405163d7ad34f160e01b815260040160405180910390fd5b9094909350915050565b8060000361181f575050565b6001600160a01b03821661184657604051632a38b13360e01b815260040160405180910390fd5b6040516370a0823160e01b81523060048201526000906001600160a01b038416906370a0823190602401602060405180830381865afa15801561188d573d6000803e3d6000fd5b505050506040513d601f19601f820116820180604052508101906118b19190611f94565b90506118bf83333085611ad3565b6040516370a0823160e01b8152306004820152829082906001600160a01b038616906370a0823190602401602060405180830381865afa158015611907573d6000803e3d6000fd5b505050506040513d601f19601f8201168201806040525081019061192b9190611f94565b6119359190611f3c565b1461120757604051630e40773560e21b815260040160405180910390fd5b604080518082019091526000808252602082015260408051808201909152600080825260208201526001600160a01b0384166119905790506109c2565b506001600160a01b03831660009081526008830160209081526040918290208251808401909352805463ffffffff1680845260019091015491830191909152156119db5790506109c2565b6119e58484611b11565b15611a0b57600483015463ffffffff1681526001600160a01b0384166020820152611018565b506001600160a01b03831660009081526009830160209081526040918290208251808401909352805463ffffffff16835260010154908201529392505050565b6040516001600160a01b03831660248201526044810182905261120790849063a9059cbb60e01b906064015b60408051601f198184030181529190526020810180516001600160e01b03166001600160e01b031990931692909217909152611b47565b600080611ab961130e565b6001600160a01b031614806116ea57505060175460ff1690565b6040516001600160a01b0380851660248301528316604482015260648101829052611b0b9085906323b872dd60e01b90608401611a77565b50505050565b6001600160a01b038216600090815260098201602052604081205463ffffffff1615611b3f575060006109c2565b50503b151590565b6000611b9c826040518060400160405280602081526020017f5361666545524332303a206c6f772d6c6576656c2063616c6c206661696c6564815250856001600160a01b0316611c1e9092919063ffffffff16565b8051909150156112075780806020019051810190611bba9190611fc5565b6112075760405162461bcd60e51b815260206004820152602a60248201527f5361666545524332303a204552433230206f7065726174696f6e20646964206e6044820152691bdd081cdd58d8d9595960b21b60648201526084015b60405180910390fd5b6060611c2d8484600085611c35565b949350505050565b606082471015611c965760405162461bcd60e51b815260206004820152602660248201527f416464726573733a20696e73756666696369656e742062616c616e636520666f6044820152651c8818d85b1b60d21b6064820152608401611c15565b6001600160a01b0385163b611ced5760405162461bcd60e51b815260206004820152601d60248201527f416464726573733a2063616c6c20746f206e6f6e2d636f6e74726163740000006044820152606401611c15565b600080866001600160a01b03168587604051611d099190612013565b60006040518083038185875af1925050503d8060008114611d46576040519150601f19603f3d011682016040523d82523d6000602084013e611d4b565b606091505b5091509150611d5b828286611d66565b979650505050505050565b60608315611d75575081611018565b825115611d855782518084602001fd5b8160405162461bcd60e51b8152600401611c15919061202f565b6001600160a01b0381168114611db457600080fd5b50565b600060208284031215611dc957600080fd5b813561101881611d9f565b60008060008060808587031215611dea57600080fd5b843593506020850135611dfc81611d9f565b92506040850135611e0c81611d9f565b91506060850135611e1c81611d9f565b939692955090935050565b60008060408385031215611e3a57600080fd5b8235611e4581611d9f565b91506020830135611e5581611d9f565b809150509250929050565b600080600060608486031215611e7557600080fd5b833592506020840135611e8781611d9f565b91506040840135611e9781611d9f565b809150509250925092565b60008060408385031215611eb557600080fd5b823591506020830135611e5581611d9f565b600060208284031215611ed957600080fd5b5035919050565b600080600060608486031215611ef557600080fd5b8335611f0081611d9f565b92506020840135611e8781611d9f565b634e487b7160e01b600052602160045260246000fd5b634e487b7160e01b600052601160045260246000fd5b600082821015611f4e57611f4e611f26565b500390565b6000816000190483118215151615611f6d57611f6d611f26565b500290565b600082611f8f57634e487b7160e01b600052601260045260246000fd5b500490565b600060208284031215611fa657600080fd5b5051919050565b60008219821115611fc057611fc0611f26565b500190565b600060208284031215611fd757600080fd5b8151801515811461101857600080fd5b60005b83811015612002578181015183820152602001611fea565b83811115611b0b5750506000910152565b60008251612025818460208701611fe7565b9190910192915050565b602081526000825180602084015261204e816040850160208701611fe7565b601f01601f1916919091016040019291505056fea2646970667358221220a54756761a4c3b8e429bf9007f2e24fe44e2614f3825069c54f40fb17a90b5f564736f6c634300080f0033",
  "devdoc": {
    "events": {
      "LiquidityFeeNumeratorUpdated(uint256,address)": {
        "params": {
          "caller": "- The account that called the function",
          "liquidityFeeNumerator": "- The LIQUIDITY_FEE_NUMERATOR new value"
        }
      },
      "MaxRoutersPerTransferUpdated(uint256,address)": {
        "params": {
          "caller": "- The account that called the function",
          "maxRoutersPerTransfer": "- The maxRoutersPerTransfer new value"
        }
      },
      "RouterAdded(address,address)": {
        "params": {
          "caller": "- The account that called the function",
          "router": "- The address of the added router"
        }
      },
      "RouterApprovedForPortal(address,address)": {
        "params": {
          "caller": "- The account that called the function",
          "router": "- The address of the approved router"
        }
      },
      "RouterLiquidityAdded(address,address,bytes32,uint256,address)": {
        "params": {
          "amount": "- The amount of liquidity added",
          "caller": "- The account that called the function",
          "key": "- The hash of the canonical id and domain",
          "local": "- The address of the token added (all liquidity held in local asset)",
          "router": "- The address of the router the funds were credited to"
        }
      },
      "RouterLiquidityRemoved(address,address,address,bytes32,uint256,address)": {
        "params": {
          "amount": "- The amount of liquidity withdrawn",
          "caller": "- The account that called the function",
          "local": "- The address of the token withdrawn",
          "router": "- The router you are removing liquidity from",
          "to": "- The address the funds were withdrawn to"
        }
      },
      "RouterOwnerAccepted(address,address,address)": {
        "params": {
          "newOwner": "- The address of the new owner of the router",
          "prevOwner": "- The address of the previous owner of the router",
          "router": "- The address of the added router"
        }
      },
      "RouterOwnerProposed(address,address,address)": {
        "params": {
          "newProposed": "- The address of the new proposed",
          "prevProposed": "- The address of the previous proposed",
          "router": "- The address of the added router"
        }
      },
      "RouterRecipientSet(address,address,address)": {
        "params": {
          "newRecipient": "- The address of the new recipient of the router",
          "prevRecipient": "- The address of the previous recipient of the router",
          "router": "- The address of the added router"
        }
      },
      "RouterRemoved(address,address)": {
        "params": {
          "caller": "- The account that called the function",
          "router": "- The address of the removed router"
        }
      },
      "RouterUnapprovedForPortal(address,address)": {
        "params": {
          "caller": "- The account that called the function",
          "router": "- The address of the disapproved router"
        }
      }
    },
    "kind": "dev",
    "methods": {
      "acceptProposedRouterOwner(address)": {
        "params": {
          "router": "Router address to set recipient"
        }
      },
      "addRouterLiquidity(uint256,address)": {
        "details": "The liquidity will be held in the local asset, which is the representation if you are *not* on the canonical domain, and the canonical asset otherwise.",
        "params": {
          "_amount": "- The amount of liquidity to add for the router",
          "_local": "- The address of the asset you're adding liquidity for. If adding liquidity of the native asset, routers may use `address(0)` or the wrapped asset"
        }
      },
      "addRouterLiquidityFor(uint256,address,address)": {
        "details": "The liquidity will be held in the local asset, which is the representation if you are *not* on the canonical domain, and the canonical asset otherwise.",
        "params": {
          "_amount": "- The amount of liquidity to add for the router",
          "_local": "- The address of the asset you're adding liquidity for. If adding liquidity of the native asset, routers may use `address(0)` or the wrapped asset",
          "_router": "The router you are adding liquidity on behalf of"
        }
      },
      "approveRouterForPortal(address)": {
        "params": {
          "_router": "- The router address to approve"
        }
      },
      "getProposedRouterOwner(address)": {
        "details": "All routers must wait for the delay timeout before accepting a new owner",
        "params": {
          "_router": "The relevant router address"
        }
      },
      "getProposedRouterOwnerTimestamp(address)": {
        "details": "All routers must wait for the delay timeout before accepting a new owner",
        "params": {
          "_router": "The relevant router address"
        }
      },
      "getRouterApproval(address)": {
        "params": {
          "_router": "The relevant router address"
        }
      },
      "getRouterApprovalForPortal(address)": {
        "params": {
          "_router": "The relevant router address"
        }
      },
      "getRouterOwner(address)": {
        "details": "Uses logic function here to handle the case where router owner is not set. Other getters within this interface use explicitly the stored value",
        "params": {
          "_router": "The relevant router address"
        }
      },
      "getRouterRecipient(address)": {
        "details": "The recipient (if set) receives all funds when router liquidity is removed",
        "params": {
          "_router": "The relevant router address"
        }
      },
      "proposeRouterOwner(address,address)": {
        "params": {
          "proposed": "Proposed owner Address to set to router",
          "router": "Router address to set recipient"
        }
      },
      "removeRouter(address)": {
        "params": {
          "router": "Router address to remove"
        }
      },
      "removeRouterLiquidity(uint256,address,address)": {
        "params": {
          "_amount": "- The amount of liquidity to remove for the router",
          "_local": "- The address of the asset you're removing liquidity from. If removing liquidity of the native asset, routers may use `address(0)` or the wrapped asset",
          "_to": "The address that will receive the liquidity being removed if no router recipient exists."
        }
      },
      "removeRouterLiquidityFor(uint256,address,address,address)": {
        "params": {
          "_amount": "- The amount of liquidity to remove for the router",
          "_local": "- The address of the asset you're removing liquidity from. If removing liquidity of the native asset, routers may use `address(0)` or the wrapped asset",
          "_router": "The address of the router",
          "_to": "The address that will receive the liquidity being removed"
        }
      },
      "setLiquidityFeeNumerator(uint256)": {
        "details": "Admin can set LIQUIDITY_FEE_NUMERATOR variable, Liquidity fee should be less than 5%",
        "params": {
          "_numerator": "new LIQUIDITY_FEE_NUMERATOR"
        }
      },
      "setMaxRoutersPerTransfer(uint256)": {
        "params": {
          "_newMaxRouters": "The new max amount of routers"
        }
      },
      "setRouterRecipient(address,address)": {
        "details": "Router should only be able to set this once otherwise if router key compromised, no problem is solved since attacker could just update recipient",
        "params": {
          "recipient": "Recipient Address to set to router",
          "router": "Router address to set recipient"
        }
      },
      "setupRouter(address,address,address)": {
        "params": {
          "owner": "Initial Owner of router",
          "recipient": "Initial Recipient of router",
          "router": "Router address to setup"
        }
      },
      "unapproveRouterForPortal(address)": {
        "params": {
          "_router": "- The router address to remove approval"
        }
      }
    },
    "version": 1
  },
  "userdoc": {
    "events": {
      "LiquidityFeeNumeratorUpdated(uint256,address)": {
        "notice": "Emitted when the LIQUIDITY_FEE_NUMERATOR variable is updated"
      },
      "MaxRoutersPerTransferUpdated(uint256,address)": {
        "notice": "Emitted when the maxRoutersPerTransfer variable is updated"
      },
      "RouterAdded(address,address)": {
        "notice": "Emitted when a new router is added"
      },
      "RouterApprovedForPortal(address,address)": {
        "notice": "Emitted when a router is approved for Portal"
      },
      "RouterLiquidityAdded(address,address,bytes32,uint256,address)": {
        "notice": "Emitted when a router adds liquidity to the contract"
      },
      "RouterLiquidityRemoved(address,address,address,bytes32,uint256,address)": {
        "notice": "Emitted when a router withdraws liquidity from the contract"
      },
      "RouterOwnerAccepted(address,address,address)": {
        "notice": "Emitted when the owner of router is accepted"
      },
      "RouterOwnerProposed(address,address,address)": {
        "notice": "Emitted when the owner of router is proposed"
      },
      "RouterRecipientSet(address,address,address)": {
        "notice": "Emitted when the recipient of router is updated"
      },
      "RouterRemoved(address,address)": {
        "notice": "Emitted when an existing router is removed"
      },
      "RouterUnapprovedForPortal(address,address)": {
        "notice": "Emitted when a router is disapproved for Portal"
      }
    },
    "kind": "user",
    "methods": {
      "acceptProposedRouterOwner(address)": {
        "notice": "New router owner must accept role, or previous if proposed is 0x0"
      },
      "addRouterLiquidity(uint256,address)": {
        "notice": "This is used by any router to increase their available liquidity for a given asset."
      },
      "addRouterLiquidityFor(uint256,address,address)": {
        "notice": "This is used by anyone to increase a router's available liquidity for a given asset."
      },
      "approveRouterForPortal(address)": {
        "notice": "Allow router to use Portals"
      },
      "getProposedRouterOwner(address)": {
        "notice": "Returns the currently proposed router owner"
      },
      "getProposedRouterOwnerTimestamp(address)": {
        "notice": "Returns the currently proposed router owner timestamp"
      },
      "getRouterApproval(address)": {
        "notice": "Returns the approved router for the given router address"
      },
      "getRouterApprovalForPortal(address)": {
        "notice": "Returns whether the router is approved for portals or not"
      },
      "getRouterOwner(address)": {
        "notice": "Returns the router owner if it is set, or the router itself if not"
      },
      "getRouterRecipient(address)": {
        "notice": "Returns the recipient for the specified router"
      },
      "proposeRouterOwner(address,address)": {
        "notice": "Current owner or router may propose a new router owner"
      },
      "removeRouter(address)": {
        "notice": "Used to remove routers that can transact crosschain"
      },
      "removeRouterLiquidity(uint256,address,address)": {
        "notice": "This is used by any router to decrease their available liquidity for a given asset."
      },
      "removeRouterLiquidityFor(uint256,address,address,address)": {
        "notice": "This is used by any router owner to decrease their available liquidity for a given asset."
      },
      "setLiquidityFeeNumerator(uint256)": {
        "notice": "Sets the LIQUIDITY_FEE_NUMERATOR"
      },
      "setMaxRoutersPerTransfer(uint256)": {
        "notice": "Used to set the max amount of routers a payment can be routed through"
      },
      "setRouterRecipient(address,address)": {
        "notice": "Sets the designated recipient for a router"
      },
      "setupRouter(address,address,address)": {
        "notice": "Used to set router initial properties"
      },
      "unapproveRouterForPortal(address)": {
        "notice": "Remove router access to use Portals"
      }
    },
    "notice": "This contract is designed to manage router access, meaning it maintains the router recipients, owners, and the router whitelist itself. As a router, there are three important permissions: `router` - this is the address that will sign bids sent to the sequencer `routerRecipient` - this is the address that receives funds when liquidity is withdrawn `routerOwner` - this is the address permitted to update recipients and propose new owners In cases where the owner is not set, the caller should be the `router` itself. In cases where the `routerRecipient` is not set, the funds can be removed to anywhere. When setting a new `routerOwner`, the current owner (or router) must create a proposal, which can be accepted by the proposed owner after the delay period. If the proposed owner is the empty address, then it must be accepted by the current owner.",
    "version": 1
  },
  "storageLayout": {
    "storage": [
      {
        "astId": 13868,
        "contract": "contracts/core/connext/facets/RoutersFacet.sol:RoutersFacet",
        "label": "s",
        "offset": 0,
        "slot": "0",
        "type": "t_struct(AppStorage)28097_storage"
      }
    ],
    "types": {
      "t_address": {
        "encoding": "inplace",
        "label": "address",
        "numberOfBytes": "20"
      },
      "t_array(t_address)dyn_storage": {
        "base": "t_address",
        "encoding": "dynamic_array",
        "label": "address[]",
        "numberOfBytes": "32"
      },
      "t_array(t_contract(IERC20)11540)dyn_storage": {
        "base": "t_contract(IERC20)11540",
        "encoding": "dynamic_array",
        "label": "contract IERC20[]",
        "numberOfBytes": "32"
      },
      "t_array(t_uint256)dyn_storage": {
        "base": "t_uint256",
        "encoding": "dynamic_array",
        "label": "uint256[]",
        "numberOfBytes": "32"
      },
      "t_bool": {
        "encoding": "inplace",
        "label": "bool",
        "numberOfBytes": "1"
      },
      "t_bytes32": {
        "encoding": "inplace",
        "label": "bytes32",
        "numberOfBytes": "32"
      },
      "t_contract(IConnectorManager)45249": {
        "encoding": "inplace",
        "label": "contract IConnectorManager",
        "numberOfBytes": "20"
      },
      "t_contract(IERC20)11540": {
        "encoding": "inplace",
        "label": "contract IERC20",
        "numberOfBytes": "20"
      },
      "t_contract(IStableSwap)25766": {
        "encoding": "inplace",
        "label": "contract IStableSwap",
        "numberOfBytes": "20"
      },
      "t_contract(LPToken)22553": {
        "encoding": "inplace",
        "label": "contract LPToken",
        "numberOfBytes": "20"
      },
      "t_enum(DestinationTransferStatus)27873": {
        "encoding": "inplace",
        "label": "enum DestinationTransferStatus",
        "numberOfBytes": "1"
      },
      "t_enum(Role)27868": {
        "encoding": "inplace",
        "label": "enum Role",
        "numberOfBytes": "1"
      },
      "t_mapping(t_address,t_address)": {
        "encoding": "mapping",
        "key": "t_address",
        "label": "mapping(address => address)",
        "numberOfBytes": "32",
        "value": "t_address"
      },
      "t_mapping(t_address,t_bool)": {
        "encoding": "mapping",
        "key": "t_address",
        "label": "mapping(address => bool)",
        "numberOfBytes": "32",
        "value": "t_bool"
      },
      "t_mapping(t_address,t_enum(Role)27868)": {
        "encoding": "mapping",
        "key": "t_address",
        "label": "mapping(address => enum Role)",
        "numberOfBytes": "32",
        "value": "t_enum(Role)27868"
      },
      "t_mapping(t_address,t_mapping(t_address,t_uint256))": {
        "encoding": "mapping",
        "key": "t_address",
        "label": "mapping(address => mapping(address => uint256))",
        "numberOfBytes": "32",
        "value": "t_mapping(t_address,t_uint256)"
      },
      "t_mapping(t_address,t_struct(TokenId)27878_storage)": {
        "encoding": "mapping",
        "key": "t_address",
        "label": "mapping(address => struct TokenId)",
        "numberOfBytes": "32",
        "value": "t_struct(TokenId)27878_storage"
      },
      "t_mapping(t_address,t_uint256)": {
        "encoding": "mapping",
        "key": "t_address",
        "label": "mapping(address => uint256)",
        "numberOfBytes": "32",
        "value": "t_uint256"
      },
      "t_mapping(t_address,t_uint8)": {
        "encoding": "mapping",
        "key": "t_address",
        "label": "mapping(address => uint8)",
        "numberOfBytes": "32",
        "value": "t_uint8"
      },
      "t_mapping(t_bytes32,t_address)": {
        "encoding": "mapping",
        "key": "t_bytes32",
        "label": "mapping(bytes32 => address)",
        "numberOfBytes": "32",
        "value": "t_address"
      },
      "t_mapping(t_bytes32,t_array(t_address)dyn_storage)": {
        "encoding": "mapping",
        "key": "t_bytes32",
        "label": "mapping(bytes32 => address[])",
        "numberOfBytes": "32",
        "value": "t_array(t_address)dyn_storage"
      },
      "t_mapping(t_bytes32,t_bool)": {
        "encoding": "mapping",
        "key": "t_bytes32",
        "label": "mapping(bytes32 => bool)",
        "numberOfBytes": "32",
        "value": "t_bool"
      },
      "t_mapping(t_bytes32,t_contract(IStableSwap)25766)": {
        "encoding": "mapping",
        "key": "t_bytes32",
        "label": "mapping(bytes32 => contract IStableSwap)",
        "numberOfBytes": "32",
        "value": "t_contract(IStableSwap)25766"
      },
      "t_mapping(t_bytes32,t_enum(DestinationTransferStatus)27873)": {
        "encoding": "mapping",
        "key": "t_bytes32",
        "label": "mapping(bytes32 => enum DestinationTransferStatus)",
        "numberOfBytes": "32",
        "value": "t_enum(DestinationTransferStatus)27873"
      },
      "t_mapping(t_bytes32,t_mapping(t_address,t_uint8))": {
        "encoding": "mapping",
        "key": "t_bytes32",
        "label": "mapping(bytes32 => mapping(address => uint8))",
        "numberOfBytes": "32",
        "value": "t_mapping(t_address,t_uint8)"
      },
      "t_mapping(t_bytes32,t_struct(Swap)29292_storage)": {
        "encoding": "mapping",
        "key": "t_bytes32",
        "label": "mapping(bytes32 => struct SwapUtils.Swap)",
        "numberOfBytes": "32",
        "value": "t_struct(Swap)29292_storage"
      },
      "t_mapping(t_bytes32,t_uint256)": {
        "encoding": "mapping",
        "key": "t_bytes32",
        "label": "mapping(bytes32 => uint256)",
        "numberOfBytes": "32",
        "value": "t_uint256"
      },
      "t_mapping(t_uint32,t_bytes32)": {
        "encoding": "mapping",
        "key": "t_uint32",
        "label": "mapping(uint32 => bytes32)",
        "numberOfBytes": "32",
        "value": "t_bytes32"
      },
      "t_struct(AppStorage)28097_storage": {
        "encoding": "inplace",
        "label": "struct AppStorage",
        "members": [
          {
            "astId": 27946,
            "contract": "contracts/core/connext/facets/RoutersFacet.sol:RoutersFacet",
            "label": "initialized",
            "offset": 0,
            "slot": "0",
            "type": "t_bool"
          },
          {
            "astId": 27948,
            "contract": "contracts/core/connext/facets/RoutersFacet.sol:RoutersFacet",
            "label": "LIQUIDITY_FEE_NUMERATOR",
            "offset": 0,
            "slot": "1",
            "type": "t_uint256"
          },
          {
            "astId": 27951,
            "contract": "contracts/core/connext/facets/RoutersFacet.sol:RoutersFacet",
            "label": "relayerFeeVault",
            "offset": 0,
            "slot": "2",
            "type": "t_address"
          },
          {
            "astId": 27954,
            "contract": "contracts/core/connext/facets/RoutersFacet.sol:RoutersFacet",
            "label": "nonce",
            "offset": 0,
            "slot": "3",
            "type": "t_uint256"
          },
          {
            "astId": 27957,
            "contract": "contracts/core/connext/facets/RoutersFacet.sol:RoutersFacet",
            "label": "domain",
            "offset": 0,
            "slot": "4",
            "type": "t_uint32"
          },
          {
            "astId": 27963,
            "contract": "contracts/core/connext/facets/RoutersFacet.sol:RoutersFacet",
            "label": "adoptedToLocalPools",
            "offset": 0,
            "slot": "5",
            "type": "t_mapping(t_bytes32,t_contract(IStableSwap)25766)"
          },
          {
            "astId": 27968,
            "contract": "contracts/core/connext/facets/RoutersFacet.sol:RoutersFacet",
            "label": "approvedAssets",
            "offset": 0,
            "slot": "6",
            "type": "t_mapping(t_bytes32,t_bool)"
          },
          {
            "astId": 27973,
            "contract": "contracts/core/connext/facets/RoutersFacet.sol:RoutersFacet",
            "label": "caps",
            "offset": 0,
            "slot": "7",
            "type": "t_mapping(t_bytes32,t_uint256)"
          },
          {
            "astId": 27979,
            "contract": "contracts/core/connext/facets/RoutersFacet.sol:RoutersFacet",
            "label": "adoptedToCanonical",
            "offset": 0,
            "slot": "8",
            "type": "t_mapping(t_address,t_struct(TokenId)27878_storage)"
          },
          {
            "astId": 27985,
            "contract": "contracts/core/connext/facets/RoutersFacet.sol:RoutersFacet",
            "label": "representationToCanonical",
            "offset": 0,
            "slot": "9",
            "type": "t_mapping(t_address,t_struct(TokenId)27878_storage)"
          },
          {
            "astId": 27990,
            "contract": "contracts/core/connext/facets/RoutersFacet.sol:RoutersFacet",
            "label": "canonicalToAdopted",
            "offset": 0,
            "slot": "10",
            "type": "t_mapping(t_bytes32,t_address)"
          },
          {
            "astId": 27995,
            "contract": "contracts/core/connext/facets/RoutersFacet.sol:RoutersFacet",
            "label": "canonicalToRepresentation",
            "offset": 0,
            "slot": "11",
            "type": "t_mapping(t_bytes32,t_address)"
          },
          {
            "astId": 28001,
            "contract": "contracts/core/connext/facets/RoutersFacet.sol:RoutersFacet",
            "label": "transferStatus",
            "offset": 0,
            "slot": "12",
            "type": "t_mapping(t_bytes32,t_enum(DestinationTransferStatus)27873)"
          },
          {
            "astId": 28007,
            "contract": "contracts/core/connext/facets/RoutersFacet.sol:RoutersFacet",
            "label": "routedTransfers",
            "offset": 0,
            "slot": "13",
            "type": "t_mapping(t_bytes32,t_array(t_address)dyn_storage)"
          },
          {
            "astId": 28014,
            "contract": "contracts/core/connext/facets/RoutersFacet.sol:RoutersFacet",
            "label": "routerBalances",
            "offset": 0,
            "slot": "14",
            "type": "t_mapping(t_address,t_mapping(t_address,t_uint256))"
          },
          {
            "astId": 28019,
            "contract": "contracts/core/connext/facets/RoutersFacet.sol:RoutersFacet",
            "label": "approvedRelayers",
            "offset": 0,
            "slot": "15",
            "type": "t_mapping(t_address,t_bool)"
          },
          {
            "astId": 28022,
            "contract": "contracts/core/connext/facets/RoutersFacet.sol:RoutersFacet",
            "label": "maxRoutersPerTransfer",
            "offset": 0,
            "slot": "16",
            "type": "t_uint256"
          },
          {
            "astId": 28027,
            "contract": "contracts/core/connext/facets/RoutersFacet.sol:RoutersFacet",
            "label": "slippage",
            "offset": 0,
            "slot": "17",
            "type": "t_mapping(t_bytes32,t_uint256)"
          },
          {
            "astId": 28032,
            "contract": "contracts/core/connext/facets/RoutersFacet.sol:RoutersFacet",
            "label": "remotes",
            "offset": 0,
            "slot": "18",
            "type": "t_mapping(t_uint32,t_bytes32)"
          },
          {
            "astId": 28034,
            "contract": "contracts/core/connext/facets/RoutersFacet.sol:RoutersFacet",
            "label": "_proposed",
            "offset": 0,
            "slot": "19",
            "type": "t_address"
          },
          {
            "astId": 28036,
            "contract": "contracts/core/connext/facets/RoutersFacet.sol:RoutersFacet",
            "label": "_proposedOwnershipTimestamp",
            "offset": 0,
            "slot": "20",
            "type": "t_uint256"
          },
          {
            "astId": 28038,
            "contract": "contracts/core/connext/facets/RoutersFacet.sol:RoutersFacet",
            "label": "_routerWhitelistRemoved",
            "offset": 0,
            "slot": "21",
            "type": "t_bool"
          },
          {
            "astId": 28040,
            "contract": "contracts/core/connext/facets/RoutersFacet.sol:RoutersFacet",
            "label": "_routerWhitelistTimestamp",
            "offset": 0,
            "slot": "22",
            "type": "t_uint256"
          },
          {
            "astId": 28042,
            "contract": "contracts/core/connext/facets/RoutersFacet.sol:RoutersFacet",
            "label": "_assetWhitelistRemoved",
            "offset": 0,
            "slot": "23",
            "type": "t_bool"
          },
          {
            "astId": 28044,
            "contract": "contracts/core/connext/facets/RoutersFacet.sol:RoutersFacet",
            "label": "_assetWhitelistTimestamp",
            "offset": 0,
            "slot": "24",
            "type": "t_uint256"
          },
          {
            "astId": 28050,
            "contract": "contracts/core/connext/facets/RoutersFacet.sol:RoutersFacet",
            "label": "roles",
            "offset": 0,
            "slot": "25",
            "type": "t_mapping(t_address,t_enum(Role)27868)"
          },
          {
            "astId": 28053,
            "contract": "contracts/core/connext/facets/RoutersFacet.sol:RoutersFacet",
            "label": "routerPermissionInfo",
            "offset": 0,
            "slot": "26",
            "type": "t_struct(RouterPermissionsManagerInfo)27944_storage"
          },
          {
            "astId": 28055,
            "contract": "contracts/core/connext/facets/RoutersFacet.sol:RoutersFacet",
            "label": "_status",
            "offset": 0,
            "slot": "32",
            "type": "t_uint256"
          },
          {
            "astId": 28061,
            "contract": "contracts/core/connext/facets/RoutersFacet.sol:RoutersFacet",
            "label": "swapStorages",
            "offset": 0,
            "slot": "33",
            "type": "t_mapping(t_bytes32,t_struct(Swap)29292_storage)"
          },
          {
            "astId": 28068,
            "contract": "contracts/core/connext/facets/RoutersFacet.sol:RoutersFacet",
            "label": "tokenIndexes",
            "offset": 0,
            "slot": "34",
            "type": "t_mapping(t_bytes32,t_mapping(t_address,t_uint8))"
          },
          {
            "astId": 28071,
            "contract": "contracts/core/connext/facets/RoutersFacet.sol:RoutersFacet",
            "label": "_paused",
            "offset": 0,
            "slot": "35",
            "type": "t_bool"
          },
          {
            "astId": 28074,
            "contract": "contracts/core/connext/facets/RoutersFacet.sol:RoutersFacet",
            "label": "aavePool",
            "offset": 1,
            "slot": "35",
            "type": "t_address"
          },
          {
            "astId": 28077,
            "contract": "contracts/core/connext/facets/RoutersFacet.sol:RoutersFacet",
            "label": "aavePortalFeeNumerator",
            "offset": 0,
            "slot": "36",
            "type": "t_uint256"
          },
          {
            "astId": 28082,
            "contract": "contracts/core/connext/facets/RoutersFacet.sol:RoutersFacet",
            "label": "portalDebt",
            "offset": 0,
            "slot": "37",
            "type": "t_mapping(t_bytes32,t_uint256)"
          },
          {
            "astId": 28087,
            "contract": "contracts/core/connext/facets/RoutersFacet.sol:RoutersFacet",
            "label": "portalFeeDebt",
            "offset": 0,
            "slot": "38",
            "type": "t_mapping(t_bytes32,t_uint256)"
          },
          {
            "astId": 28092,
            "contract": "contracts/core/connext/facets/RoutersFacet.sol:RoutersFacet",
            "label": "approvedSequencers",
            "offset": 0,
            "slot": "39",
            "type": "t_mapping(t_address,t_bool)"
          },
          {
            "astId": 28096,
            "contract": "contracts/core/connext/facets/RoutersFacet.sol:RoutersFacet",
            "label": "xAppConnectionManager",
            "offset": 0,
            "slot": "40",
            "type": "t_contract(IConnectorManager)45249"
          }
        ],
        "numberOfBytes": "1312"
      },
      "t_struct(RouterPermissionsManagerInfo)27944_storage": {
        "encoding": "inplace",
        "label": "struct RouterPermissionsManagerInfo",
        "members": [
          {
            "astId": 27923,
            "contract": "contracts/core/connext/facets/RoutersFacet.sol:RoutersFacet",
            "label": "approvedRouters",
            "offset": 0,
            "slot": "0",
            "type": "t_mapping(t_address,t_bool)"
          },
          {
            "astId": 27927,
            "contract": "contracts/core/connext/facets/RoutersFacet.sol:RoutersFacet",
            "label": "approvedForPortalRouters",
            "offset": 0,
            "slot": "1",
            "type": "t_mapping(t_address,t_bool)"
          },
          {
            "astId": 27931,
            "contract": "contracts/core/connext/facets/RoutersFacet.sol:RoutersFacet",
            "label": "routerRecipients",
            "offset": 0,
            "slot": "2",
            "type": "t_mapping(t_address,t_address)"
          },
          {
            "astId": 27935,
            "contract": "contracts/core/connext/facets/RoutersFacet.sol:RoutersFacet",
            "label": "routerOwners",
            "offset": 0,
            "slot": "3",
            "type": "t_mapping(t_address,t_address)"
          },
          {
            "astId": 27939,
            "contract": "contracts/core/connext/facets/RoutersFacet.sol:RoutersFacet",
            "label": "proposedRouterOwners",
            "offset": 0,
            "slot": "4",
            "type": "t_mapping(t_address,t_address)"
          },
          {
            "astId": 27943,
            "contract": "contracts/core/connext/facets/RoutersFacet.sol:RoutersFacet",
            "label": "proposedRouterTimestamp",
            "offset": 0,
            "slot": "5",
            "type": "t_mapping(t_address,t_uint256)"
          }
        ],
        "numberOfBytes": "192"
      },
      "t_struct(Swap)29292_storage": {
        "encoding": "inplace",
        "label": "struct SwapUtils.Swap",
        "members": [
          {
            "astId": 29263,
            "contract": "contracts/core/connext/facets/RoutersFacet.sol:RoutersFacet",
            "label": "key",
            "offset": 0,
            "slot": "0",
            "type": "t_bytes32"
          },
          {
            "astId": 29265,
            "contract": "contracts/core/connext/facets/RoutersFacet.sol:RoutersFacet",
            "label": "initialA",
            "offset": 0,
            "slot": "1",
            "type": "t_uint256"
          },
          {
            "astId": 29267,
            "contract": "contracts/core/connext/facets/RoutersFacet.sol:RoutersFacet",
            "label": "futureA",
            "offset": 0,
            "slot": "2",
            "type": "t_uint256"
          },
          {
            "astId": 29269,
            "contract": "contracts/core/connext/facets/RoutersFacet.sol:RoutersFacet",
            "label": "initialATime",
            "offset": 0,
            "slot": "3",
            "type": "t_uint256"
          },
          {
            "astId": 29271,
            "contract": "contracts/core/connext/facets/RoutersFacet.sol:RoutersFacet",
            "label": "futureATime",
            "offset": 0,
            "slot": "4",
            "type": "t_uint256"
          },
          {
            "astId": 29273,
            "contract": "contracts/core/connext/facets/RoutersFacet.sol:RoutersFacet",
            "label": "swapFee",
            "offset": 0,
            "slot": "5",
            "type": "t_uint256"
          },
          {
            "astId": 29275,
            "contract": "contracts/core/connext/facets/RoutersFacet.sol:RoutersFacet",
            "label": "adminFee",
            "offset": 0,
            "slot": "6",
            "type": "t_uint256"
          },
          {
            "astId": 29278,
            "contract": "contracts/core/connext/facets/RoutersFacet.sol:RoutersFacet",
            "label": "lpToken",
            "offset": 0,
            "slot": "7",
            "type": "t_contract(LPToken)22553"
          },
          {
            "astId": 29282,
            "contract": "contracts/core/connext/facets/RoutersFacet.sol:RoutersFacet",
            "label": "pooledTokens",
            "offset": 0,
            "slot": "8",
            "type": "t_array(t_contract(IERC20)11540)dyn_storage"
          },
          {
            "astId": 29285,
            "contract": "contracts/core/connext/facets/RoutersFacet.sol:RoutersFacet",
            "label": "tokenPrecisionMultipliers",
            "offset": 0,
            "slot": "9",
            "type": "t_array(t_uint256)dyn_storage"
          },
          {
            "astId": 29288,
            "contract": "contracts/core/connext/facets/RoutersFacet.sol:RoutersFacet",
            "label": "balances",
            "offset": 0,
            "slot": "10",
            "type": "t_array(t_uint256)dyn_storage"
          },
          {
            "astId": 29291,
            "contract": "contracts/core/connext/facets/RoutersFacet.sol:RoutersFacet",
            "label": "adminFees",
            "offset": 0,
            "slot": "11",
            "type": "t_array(t_uint256)dyn_storage"
          }
        ],
        "numberOfBytes": "384"
      },
      "t_struct(TokenId)27878_storage": {
        "encoding": "inplace",
        "label": "struct TokenId",
        "members": [
          {
            "astId": 27875,
            "contract": "contracts/core/connext/facets/RoutersFacet.sol:RoutersFacet",
            "label": "domain",
            "offset": 0,
            "slot": "0",
            "type": "t_uint32"
          },
          {
            "astId": 27877,
            "contract": "contracts/core/connext/facets/RoutersFacet.sol:RoutersFacet",
            "label": "id",
            "offset": 0,
            "slot": "1",
            "type": "t_bytes32"
          }
        ],
        "numberOfBytes": "64"
      },
      "t_uint256": {
        "encoding": "inplace",
        "label": "uint256",
        "numberOfBytes": "32"
      },
      "t_uint32": {
        "encoding": "inplace",
        "label": "uint32",
        "numberOfBytes": "4"
      },
      "t_uint8": {
        "encoding": "inplace",
        "label": "uint8",
        "numberOfBytes": "1"
      }
    }
  }
}