{
  "address": "0x68Db1c8d85C09d546097C65ec7DCBFF4D6497CbF",
  "abi": [
    {
      "inputs": [
        {
          "internalType": "string",
          "name": "_name",
          "type": "string"
        },
        {
          "internalType": "string",
          "name": "_symbol",
          "type": "string"
        }
      ],
      "stateMutability": "nonpayable",
      "type": "constructor"
    },
    {
      "anonymous": false,
      "inputs": [
        {
          "indexed": true,
          "internalType": "address",
          "name": "owner",
          "type": "address"
        },
        {
          "indexed": true,
          "internalType": "address",
          "name": "spender",
          "type": "address"
        },
        {
          "indexed": false,
          "internalType": "uint256",
          "name": "value",
          "type": "uint256"
        }
      ],
      "name": "Approval",
      "type": "event"
    },
    {
      "anonymous": false,
      "inputs": [
        {
          "indexed": true,
          "internalType": "address",
          "name": "from",
          "type": "address"
        },
        {
          "indexed": true,
          "internalType": "address",
          "name": "to",
          "type": "address"
        },
        {
          "indexed": false,
          "internalType": "uint256",
          "name": "value",
          "type": "uint256"
        }
      ],
      "name": "Transfer",
      "type": "event"
    },
    {
      "inputs": [
        {
          "internalType": "address",
          "name": "owner",
          "type": "address"
        },
        {
          "internalType": "address",
          "name": "spender",
          "type": "address"
        }
      ],
      "name": "allowance",
      "outputs": [
        {
          "internalType": "uint256",
          "name": "",
          "type": "uint256"
        }
      ],
      "stateMutability": "view",
      "type": "function"
    },
    {
      "inputs": [
        {
          "internalType": "address",
          "name": "spender",
          "type": "address"
        },
        {
          "internalType": "uint256",
          "name": "amount",
          "type": "uint256"
        }
      ],
      "name": "approve",
      "outputs": [
        {
          "internalType": "bool",
          "name": "",
          "type": "bool"
        }
      ],
      "stateMutability": "nonpayable",
      "type": "function"
    },
    {
      "inputs": [
        {
          "internalType": "address",
          "name": "account",
          "type": "address"
        }
      ],
      "name": "balanceOf",
      "outputs": [
        {
          "internalType": "uint256",
          "name": "",
          "type": "uint256"
        }
      ],
      "stateMutability": "view",
      "type": "function"
    },
    {
      "inputs": [
        {
          "internalType": "address",
          "name": "account",
          "type": "address"
        },
        {
          "internalType": "uint256",
          "name": "amount",
          "type": "uint256"
        }
      ],
      "name": "burn",
      "outputs": [],
      "stateMutability": "nonpayable",
      "type": "function"
    },
    {
      "inputs": [],
      "name": "decimals",
      "outputs": [
        {
          "internalType": "uint8",
          "name": "",
          "type": "uint8"
        }
      ],
      "stateMutability": "view",
      "type": "function"
    },
    {
      "inputs": [
        {
          "internalType": "address",
          "name": "spender",
          "type": "address"
        },
        {
          "internalType": "uint256",
          "name": "subtractedValue",
          "type": "uint256"
        }
      ],
      "name": "decreaseAllowance",
      "outputs": [
        {
          "internalType": "bool",
          "name": "",
          "type": "bool"
        }
      ],
      "stateMutability": "nonpayable",
      "type": "function"
    },
    {
      "inputs": [],
      "name": "detailsHash",
      "outputs": [
        {
          "internalType": "bytes32",
          "name": "",
          "type": "bytes32"
        }
      ],
      "stateMutability": "view",
      "type": "function"
    },
    {
      "inputs": [
        {
          "internalType": "address",
          "name": "spender",
          "type": "address"
        },
        {
          "internalType": "uint256",
          "name": "addedValue",
          "type": "uint256"
        }
      ],
      "name": "increaseAllowance",
      "outputs": [
        {
          "internalType": "bool",
          "name": "",
          "type": "bool"
        }
      ],
      "stateMutability": "nonpayable",
      "type": "function"
    },
    {
      "inputs": [],
      "name": "initialize",
      "outputs": [],
      "stateMutability": "nonpayable",
      "type": "function"
    },
    {
      "inputs": [
        {
          "internalType": "address",
          "name": "account",
          "type": "address"
        },
        {
          "internalType": "uint256",
          "name": "amount",
          "type": "uint256"
        }
      ],
      "name": "mint",
      "outputs": [],
      "stateMutability": "nonpayable",
      "type": "function"
    },
    {
      "inputs": [],
      "name": "name",
      "outputs": [
        {
          "internalType": "string",
          "name": "",
          "type": "string"
        }
      ],
      "stateMutability": "view",
      "type": "function"
    },
    {
      "inputs": [
        {
          "internalType": "string",
          "name": "_newName",
          "type": "string"
        },
        {
          "internalType": "string",
          "name": "_newSymbol",
          "type": "string"
        },
        {
          "internalType": "uint8",
          "name": "_newDecimals",
          "type": "uint8"
        }
      ],
      "name": "setDetails",
      "outputs": [],
      "stateMutability": "nonpayable",
      "type": "function"
    },
    {
      "inputs": [
        {
          "internalType": "bytes32",
          "name": "_detailsHash",
          "type": "bytes32"
        }
      ],
      "name": "setDetailsHash",
      "outputs": [],
      "stateMutability": "nonpayable",
      "type": "function"
    },
    {
      "inputs": [],
      "name": "symbol",
      "outputs": [
        {
          "internalType": "string",
          "name": "",
          "type": "string"
        }
      ],
      "stateMutability": "view",
      "type": "function"
    },
    {
      "inputs": [],
      "name": "totalSupply",
      "outputs": [
        {
          "internalType": "uint256",
          "name": "",
          "type": "uint256"
        }
      ],
      "stateMutability": "view",
      "type": "function"
    },
    {
      "inputs": [
        {
          "internalType": "address",
          "name": "to",
          "type": "address"
        },
        {
          "internalType": "uint256",
          "name": "amount",
          "type": "uint256"
        }
      ],
      "name": "transfer",
      "outputs": [
        {
          "internalType": "bool",
          "name": "",
          "type": "bool"
        }
      ],
      "stateMutability": "nonpayable",
      "type": "function"
    },
    {
      "inputs": [
        {
          "internalType": "address",
          "name": "from",
          "type": "address"
        },
        {
          "internalType": "address",
          "name": "to",
          "type": "address"
        },
        {
          "internalType": "uint256",
          "name": "amount",
          "type": "uint256"
        }
      ],
      "name": "transferFrom",
      "outputs": [
        {
          "internalType": "bool",
          "name": "",
          "type": "bool"
        }
      ],
      "stateMutability": "nonpayable",
      "type": "function"
    },
    {
      "inputs": [
        {
          "internalType": "address",
          "name": "_newOwner",
          "type": "address"
        }
      ],
      "name": "transferOwnership",
      "outputs": [],
      "stateMutability": "nonpayable",
      "type": "function"
    }
  ],
  "transactionHash": "0xc2a3b2dd6bd0e09a1e971ab2985084292942c05203a16d87f916ab205adf7ce2",
  "args": [
    "Test Token",
    "TEST"
  ],
  "numDeployments": 1,
  "solcInputHash": "e4ffa5ba21fbb2126166c2ccdc2ad851",
  "bytecode": "0x60806040523480156200001157600080fd5b50604051620014af380380620014af833981016040819052620000349162000234565b818160036200004483826200032c565b5060046200005382826200032c565b505050620000723369d3c21bcecceda10000006200007a60201b60201c565b50506200041f565b6001600160a01b038216620000d55760405162461bcd60e51b815260206004820152601f60248201527f45524332303a206d696e7420746f20746865207a65726f206164647265737300604482015260640160405180910390fd5b8060026000828254620000e99190620003f8565b90915550506001600160a01b0382166000908152602081905260408120805483929062000118908490620003f8565b90915550506040518181526001600160a01b038316906000907fddf252ad1be2c89b69c2b068fc378daa952ba7f163c4a11628f55a4df523b3ef9060200160405180910390a35050565b505050565b634e487b7160e01b600052604160045260246000fd5b600082601f8301126200018f57600080fd5b81516001600160401b0380821115620001ac57620001ac62000167565b604051601f8301601f19908116603f01168101908282118183101715620001d757620001d762000167565b81604052838152602092508683858801011115620001f457600080fd5b600091505b83821015620002185785820183015181830184015290820190620001f9565b838211156200022a5760008385830101525b9695505050505050565b600080604083850312156200024857600080fd5b82516001600160401b03808211156200026057600080fd5b6200026e868387016200017d565b935060208501519150808211156200028557600080fd5b5062000294858286016200017d565b9150509250929050565b600181811c90821680620002b357607f821691505b602082108103620002d457634e487b7160e01b600052602260045260246000fd5b50919050565b601f8211156200016257600081815260208120601f850160051c81016020861015620003035750805b601f850160051c820191505b8181101562000324578281556001016200030f565b505050505050565b81516001600160401b0381111562000348576200034862000167565b62000360816200035984546200029e565b84620002da565b602080601f8311600181146200039857600084156200037f5750858301515b600019600386901b1c1916600185901b17855562000324565b600085815260208120601f198616915b82811015620003c957888601518255948401946001909101908401620003a8565b5085821015620003e85787850151600019600388901b60f8161c191681555b5050505050600190811b01905550565b600082198211156200041a57634e487b7160e01b600052601160045260246000fd5b500190565b611080806200042f6000396000f3fe608060405234801561001057600080fd5b50600436106101165760003560e01c806370a08231116100a2578063a457c2d711610071578063a457c2d714610219578063a9059cbb1461022c578063cc2ab7c71461023f578063dd62ed3e14610250578063f2fde38b1461028957600080fd5b806370a08231146101d55780638129fc1c146101b657806395d89b41146101fe5780639dc29fac1461020657600080fd5b8063313ce567116100e9578063313ce56714610181578063395093511461019057806340c10f19146101a35780634815fcb1146101b8578063654935f4146101c057600080fd5b806306fdde031461011b578063095ea7b31461013957806318160ddd1461015c57806323b872dd1461016e575b600080fd5b610123610297565b6040516101309190610c8c565b60405180910390f35b61014c610147366004610cdb565b6102a6565b6040519015158152602001610130565b6002545b604051908152602001610130565b61014c61017c366004610d05565b6102be565b60405160128152602001610130565b61014c61019e366004610cdb565b6102e2565b6101b66101b1366004610cdb565b610321565b005b61016061032f565b6101b66101ce366004610d99565b5050505050565b6101606101e3366004610e1d565b6001600160a01b031660009081526020819052604090205490565b61012361055c565b6101b6610214366004610cdb565b610566565b61014c610227366004610cdb565b610570565b61014c61023a366004610cdb565b610607565b6101b661024d366004610e3f565b50565b61016061025e366004610e58565b6001600160a01b03918216600090815260016020908152604080832093909416825291909152205490565b6101b661024d366004610e1d565b60606102a1610615565b905090565b6000336102b48185856106a7565b5060019392505050565b6000336102cc8582856107cc565b6102d785858561085e565b506001949350505050565b3360008181526001602090815260408083206001600160a01b03871684529091528120549091906102b4908290869061031c908790610ea1565b6106a7565b61032b8282610a2c565b5050565b6000306001600160a01b03166306fdde036040518163ffffffff1660e01b8152600401600060405180830381865afa15801561036f573d6000803e3d6000fd5b505050506040513d6000823e601f3d908101601f191682016040526103979190810190610ecf565b51306001600160a01b03166306fdde036040518163ffffffff1660e01b8152600401600060405180830381865afa1580156103d6573d6000803e3d6000fd5b505050506040513d6000823e601f3d908101601f191682016040526103fe9190810190610ecf565b306001600160a01b03166395d89b416040518163ffffffff1660e01b8152600401600060405180830381865afa15801561043c573d6000803e3d6000fd5b505050506040513d6000823e601f3d908101601f191682016040526104649190810190610ecf565b51306001600160a01b03166395d89b416040518163ffffffff1660e01b8152600401600060405180830381865afa1580156104a3573d6000803e3d6000fd5b505050506040513d6000823e601f3d908101601f191682016040526104cb9190810190610ecf565b306001600160a01b031663313ce5676040518163ffffffff1660e01b8152600401602060405180830381865afa158015610509573d6000803e3d6000fd5b505050506040513d601f19601f8201168201806040525081019061052d9190610f7c565b604051602001610541959493929190610f99565b60405160208183030381529060405280519060200120905090565b60606102a1610b0b565b61032b8282610b1a565b3360008181526001602090815260408083206001600160a01b0387168452909152812054909190838110156105fa5760405162461bcd60e51b815260206004820152602560248201527f45524332303a2064656372656173656420616c6c6f77616e63652062656c6f77604482015264207a65726f60d81b60648201526084015b60405180910390fd5b6102d782868684036106a7565b6000336102b481858561085e565b60606003805461062490610ff9565b80601f016020809104026020016040519081016040528092919081815260200182805461065090610ff9565b801561069d5780601f106106725761010080835404028352916020019161069d565b820191906000526020600020905b81548152906001019060200180831161068057829003601f168201915b5050505050905090565b6001600160a01b0383166107095760405162461bcd60e51b8152602060048201526024808201527f45524332303a20617070726f76652066726f6d20746865207a65726f206164646044820152637265737360e01b60648201526084016105f1565b6001600160a01b03821661076a5760405162461bcd60e51b815260206004820152602260248201527f45524332303a20617070726f766520746f20746865207a65726f206164647265604482015261737360f01b60648201526084016105f1565b6001600160a01b0383811660008181526001602090815260408083209487168084529482529182902085905590518481527f8c5be1e5ebec7d5bd14f71427d1e84f3dd0314c0f7b2291e5b200ac8c7c3b92591015b60405180910390a3505050565b6001600160a01b038381166000908152600160209081526040808320938616835292905220546000198114610858578181101561084b5760405162461bcd60e51b815260206004820152601d60248201527f45524332303a20696e73756666696369656e7420616c6c6f77616e636500000060448201526064016105f1565b61085884848484036106a7565b50505050565b6001600160a01b0383166108c25760405162461bcd60e51b815260206004820152602560248201527f45524332303a207472616e736665722066726f6d20746865207a65726f206164604482015264647265737360d81b60648201526084016105f1565b6001600160a01b0382166109245760405162461bcd60e51b815260206004820152602360248201527f45524332303a207472616e7366657220746f20746865207a65726f206164647260448201526265737360e81b60648201526084016105f1565b6001600160a01b0383166000908152602081905260409020548181101561099c5760405162461bcd60e51b815260206004820152602660248201527f45524332303a207472616e7366657220616d6f756e7420657863656564732062604482015265616c616e636560d01b60648201526084016105f1565b6001600160a01b038085166000908152602081905260408082208585039055918516815290812080548492906109d3908490610ea1565b92505081905550826001600160a01b0316846001600160a01b03167fddf252ad1be2c89b69c2b068fc378daa952ba7f163c4a11628f55a4df523b3ef84604051610a1f91815260200190565b60405180910390a3610858565b6001600160a01b038216610a825760405162461bcd60e51b815260206004820152601f60248201527f45524332303a206d696e7420746f20746865207a65726f20616464726573730060448201526064016105f1565b8060026000828254610a949190610ea1565b90915550506001600160a01b03821660009081526020819052604081208054839290610ac1908490610ea1565b90915550506040518181526001600160a01b038316906000907fddf252ad1be2c89b69c2b068fc378daa952ba7f163c4a11628f55a4df523b3ef9060200160405180910390a35050565b60606004805461062490610ff9565b6001600160a01b038216610b7a5760405162461bcd60e51b815260206004820152602160248201527f45524332303a206275726e2066726f6d20746865207a65726f206164647265736044820152607360f81b60648201526084016105f1565b6001600160a01b03821660009081526020819052604090205481811015610bee5760405162461bcd60e51b815260206004820152602260248201527f45524332303a206275726e20616d6f756e7420657863656564732062616c616e604482015261636560f01b60648201526084016105f1565b6001600160a01b0383166000908152602081905260408120838303905560028054849290610c1d908490611033565b90915550506040518281526000906001600160a01b038516907fddf252ad1be2c89b69c2b068fc378daa952ba7f163c4a11628f55a4df523b3ef906020016107bf565b60005b83811015610c7b578181015183820152602001610c63565b838111156108585750506000910152565b6020815260008251806020840152610cab816040850160208701610c60565b601f01601f19169190910160400192915050565b80356001600160a01b0381168114610cd657600080fd5b919050565b60008060408385031215610cee57600080fd5b610cf783610cbf565b946020939093013593505050565b600080600060608486031215610d1a57600080fd5b610d2384610cbf565b9250610d3160208501610cbf565b9150604084013590509250925092565b60008083601f840112610d5357600080fd5b50813567ffffffffffffffff811115610d6b57600080fd5b602083019150836020828501011115610d8357600080fd5b9250929050565b60ff8116811461024d57600080fd5b600080600080600060608688031215610db157600080fd5b853567ffffffffffffffff80821115610dc957600080fd5b610dd589838a01610d41565b90975095506020880135915080821115610dee57600080fd5b50610dfb88828901610d41565b9094509250506040860135610e0f81610d8a565b809150509295509295909350565b600060208284031215610e2f57600080fd5b610e3882610cbf565b9392505050565b600060208284031215610e5157600080fd5b5035919050565b60008060408385031215610e6b57600080fd5b610e7483610cbf565b9150610e8260208401610cbf565b90509250929050565b634e487b7160e01b600052601160045260246000fd5b60008219821115610eb457610eb4610e8b565b500190565b634e487b7160e01b600052604160045260246000fd5b600060208284031215610ee157600080fd5b815167ffffffffffffffff80821115610ef957600080fd5b818401915084601f830112610f0d57600080fd5b815181811115610f1f57610f1f610eb9565b604051601f8201601f19908116603f01168101908382118183101715610f4757610f47610eb9565b81604052828152876020848701011115610f6057600080fd5b610f71836020830160208801610c60565b979650505050505050565b600060208284031215610f8e57600080fd5b8151610e3881610d8a565b85815260008551610fb1816020850160208a01610c60565b80830190508560208201528451610fcf816040840160208901610c60565b60f89490941b6001600160f81b031916604091909401908101939093525050604101949350505050565b600181811c9082168061100d57607f821691505b60208210810361102d57634e487b7160e01b600052602260045260246000fd5b50919050565b60008282101561104557611045610e8b565b50039056fea264697066735822122002d5eac223f66fb798c1984243286230b6c783df17f2002bd297b5542de8fe4c64736f6c634300080f0033",
  "devdoc": {
    "details": "Anybody can mint as many tokens as they likeAnybody can burn anyone else's tokens",
    "kind": "dev",
    "methods": {
      "allowance(address,address)": {
        "details": "See {IERC20-allowance}."
      },
      "approve(address,uint256)": {
        "details": "See {IERC20-approve}. NOTE: If `amount` is the maximum `uint256`, the allowance is not updated on `transferFrom`. This is semantically equivalent to an infinite approval. Requirements: - `spender` cannot be the zero address."
      },
      "decreaseAllowance(address,uint256)": {
        "details": "Atomically decreases the allowance granted to `spender` by the caller. This is an alternative to {approve} that can be used as a mitigation for problems described in {IERC20-approve}. Emits an {Approval} event indicating the updated allowance. Requirements: - `spender` cannot be the zero address. - `spender` must have allowance for the caller of at least `subtractedValue`."
      },
      "increaseAllowance(address,uint256)": {
        "details": "Atomically increases the allowance granted to `spender` by the caller. This is an alternative to {approve} that can be used as a mitigation for problems described in {IERC20-approve}. Emits an {Approval} event indicating the updated allowance. Requirements: - `spender` cannot be the zero address."
      },
      "totalSupply()": {
        "details": "See {IERC20-totalSupply}."
      },
      "transfer(address,uint256)": {
        "details": "See {IERC20-transfer}. Requirements: - `to` cannot be the zero address. - the caller must have a balance of at least `amount`."
      },
      "transferFrom(address,address,uint256)": {
        "details": "See {IERC20-transferFrom}. Emits an {Approval} event indicating the updated allowance. This is not required by the EIP. See the note at the beginning of {ERC20}. NOTE: Does not update the allowance if the current allowance is the maximum `uint256`. Requirements: - `from` and `to` cannot be the zero address. - `from` must have a balance of at least `amount`. - the caller must have allowance for ``from``'s tokens of at least `amount`."
      }
    },
    "version": 1
  },
  "userdoc": {
    "kind": "user",
    "methods": {},
    "notice": "This token is ONLY useful for testing",
    "version": 1
  },
  "storageLayout": {
    "storage": [
      {
        "astId": 2640,
        "contract": "contracts/test/TestERC20.sol:TestERC20",
        "label": "_balances",
        "offset": 0,
        "slot": "0",
        "type": "t_mapping(t_address,t_uint256)"
      },
      {
        "astId": 2646,
        "contract": "contracts/test/TestERC20.sol:TestERC20",
        "label": "_allowances",
        "offset": 0,
        "slot": "1",
        "type": "t_mapping(t_address,t_mapping(t_address,t_uint256))"
      },
      {
        "astId": 2648,
        "contract": "contracts/test/TestERC20.sol:TestERC20",
        "label": "_totalSupply",
        "offset": 0,
        "slot": "2",
        "type": "t_uint256"
      },
      {
        "astId": 2650,
        "contract": "contracts/test/TestERC20.sol:TestERC20",
        "label": "_name",
        "offset": 0,
        "slot": "3",
        "type": "t_string_storage"
      },
      {
        "astId": 2652,
        "contract": "contracts/test/TestERC20.sol:TestERC20",
        "label": "_symbol",
        "offset": 0,
        "slot": "4",
        "type": "t_string_storage"
      }
    ],
    "types": {
      "t_address": {
        "encoding": "inplace",
        "label": "address",
        "numberOfBytes": "20"
      },
      "t_mapping(t_address,t_mapping(t_address,t_uint256))": {
        "encoding": "mapping",
        "key": "t_address",
        "label": "mapping(address => mapping(address => uint256))",
        "numberOfBytes": "32",
        "value": "t_mapping(t_address,t_uint256)"
      },
      "t_mapping(t_address,t_uint256)": {
        "encoding": "mapping",
        "key": "t_address",
        "label": "mapping(address => uint256)",
        "numberOfBytes": "32",
        "value": "t_uint256"
      },
      "t_string_storage": {
        "encoding": "bytes",
        "label": "string",
        "numberOfBytes": "32"
      },
      "t_uint256": {
        "encoding": "inplace",
        "label": "uint256",
        "numberOfBytes": "32"
      }
    }
  }
}