{
  "address": "0xA12FC47E860Da119ed6AD78aCd5C8bce8527f69D",
  "abi": [
    {
      "inputs": [],
      "stateMutability": "nonpayable",
      "type": "constructor"
    },
    {
      "inputs": [],
      "name": "ProposedOwnable__acceptProposedOwner_delayNotElapsed",
      "type": "error"
    },
    {
      "inputs": [],
      "name": "ProposedOwnable__onlyOwner_notOwner",
      "type": "error"
    },
    {
      "inputs": [],
      "name": "ProposedOwnable__onlyProposed_notProposedOwner",
      "type": "error"
    },
    {
      "inputs": [],
      "name": "ProposedOwnable__proposeNewOwner_invalidProposal",
      "type": "error"
    },
    {
      "inputs": [],
      "name": "ProposedOwnable__proposeNewOwner_noOwnershipChange",
      "type": "error"
    },
    {
      "inputs": [],
      "name": "ProposedOwnable__renounceOwnership_delayNotElapsed",
      "type": "error"
    },
    {
      "inputs": [],
      "name": "ProposedOwnable__renounceOwnership_invalidProposal",
      "type": "error"
    },
    {
      "inputs": [],
      "name": "ProposedOwnable__renounceOwnership_noProposal",
      "type": "error"
    },
    {
      "anonymous": false,
      "inputs": [
        {
          "indexed": true,
          "internalType": "address",
          "name": "beacon",
          "type": "address"
        },
        {
          "indexed": false,
          "internalType": "address",
          "name": "implementation",
          "type": "address"
        }
      ],
      "name": "BeaconUpgraded",
      "type": "event"
    },
    {
      "anonymous": false,
      "inputs": [
        {
          "indexed": true,
          "internalType": "address",
          "name": "proposedOwner",
          "type": "address"
        }
      ],
      "name": "OwnershipProposed",
      "type": "event"
    },
    {
      "anonymous": false,
      "inputs": [
        {
          "indexed": true,
          "internalType": "address",
          "name": "previousOwner",
          "type": "address"
        },
        {
          "indexed": true,
          "internalType": "address",
          "name": "newOwner",
          "type": "address"
        }
      ],
      "name": "OwnershipTransferred",
      "type": "event"
    },
    {
      "inputs": [],
      "name": "acceptProposedOwner",
      "outputs": [],
      "stateMutability": "nonpayable",
      "type": "function"
    },
    {
      "inputs": [],
      "name": "delay",
      "outputs": [
        {
          "internalType": "uint256",
          "name": "",
          "type": "uint256"
        }
      ],
      "stateMutability": "view",
      "type": "function"
    },
    {
      "inputs": [],
      "name": "owner",
      "outputs": [
        {
          "internalType": "address",
          "name": "",
          "type": "address"
        }
      ],
      "stateMutability": "view",
      "type": "function"
    },
    {
      "inputs": [
        {
          "internalType": "address",
          "name": "newlyProposed",
          "type": "address"
        }
      ],
      "name": "proposeNewOwner",
      "outputs": [],
      "stateMutability": "nonpayable",
      "type": "function"
    },
    {
      "inputs": [],
      "name": "proposed",
      "outputs": [
        {
          "internalType": "address",
          "name": "",
          "type": "address"
        }
      ],
      "stateMutability": "view",
      "type": "function"
    },
    {
      "inputs": [],
      "name": "proposedTimestamp",
      "outputs": [
        {
          "internalType": "uint256",
          "name": "",
          "type": "uint256"
        }
      ],
      "stateMutability": "view",
      "type": "function"
    },
    {
      "inputs": [],
      "name": "renounceOwnership",
      "outputs": [],
      "stateMutability": "nonpayable",
      "type": "function"
    },
    {
      "inputs": [],
      "name": "renounced",
      "outputs": [
        {
          "internalType": "bool",
          "name": "",
          "type": "bool"
        }
      ],
      "stateMutability": "view",
      "type": "function"
    },
    {
      "inputs": [
        {
          "internalType": "address",
          "name": "_beacon",
          "type": "address"
        },
        {
          "internalType": "address",
          "name": "_implementation",
          "type": "address"
        }
      ],
      "name": "upgrade",
      "outputs": [],
      "stateMutability": "nonpayable",
      "type": "function"
    }
  ],
  "transactionHash": "0xcefbeccd90662010bc84b8221f5089d77bbc28a97a63be68bb10ca304f223592",
  "args": [],
  "numDeployments": 1,
  "solcInputHash": "2cb19c6ff260c62b0df6791111e721e0",
  "bytecode": "0x608060405234801561001057600080fd5b5061001a3361001f565b61007e565b600080546001600160a01b038381166001600160a01b0319808416821785556002859055600180549091169055604051919092169283917f8be0079c531659141344cd1fd0a4f28419497f9722a3daafe3b4186f6b6457e09190a35050565b6106018061008d6000396000f3fe608060405234801561001057600080fd5b50600436106100935760003560e01c806399a88ec41161006657806399a88ec4146100e7578063b1f8100d146100fa578063c5b350df1461010d578063d1851c9214610115578063d232c2201461012657600080fd5b80633cf52ffb146100985780636a42b8f8146100af578063715018a6146100b85780638da5cb5b146100c2575b600080fd5b6002545b6040519081526020015b60405180910390f35b62093a8061009c565b6100c0610142565b005b6000546001600160a01b03165b6040516001600160a01b0390911681526020016100a6565b6100c06100f5366004610516565b610201565b6100c0610108366004610549565b61034a565b6100c06103f2565b6001546001600160a01b03166100cf565b6000546040516001600160a01b039091161581526020016100a6565b6000546001600160a01b0316331461016d576040516311a8a1bb60e31b815260040160405180910390fd5b60025460000361019057604051630e4b303f60e21b815260040160405180910390fd5b62093a80600254426101a2919061056b565b116101c0576040516386d4b3f160e01b815260040160405180910390fd5b6001546001600160a01b0316156101ea576040516323295ef960e01b815260040160405180910390fd5b6001546101ff906001600160a01b031661044d565b565b6000546001600160a01b0316331461022c576040516311a8a1bb60e31b815260040160405180910390fd5b6001600160a01b0382163b61027a5760405162461bcd60e51b815260206004820152601060248201526f18995858dbdb880858dbdb9d1c9858dd60821b604482015260640160405180910390fd5b604080516001600160a01b038381166020830152600092908516910160408051601f19818403018152908290526102b091610590565b6000604051808303816000865af19150503d80600081146102ed576040519150601f19603f3d011682016040523d82523d6000602084013e6102f2565b606091505b5050905080610305573d6000803e3d6000fd5b6040516001600160a01b0383811682528416907fc945ae30494f6ee00b9e4bf1fec5653ced7244b559666f44f9a88ea732e957b09060200160405180910390a2505050565b6000546001600160a01b03163314610375576040516311a8a1bb60e31b815260040160405180910390fd5b6001546001600160a01b03828116911614801561039a57506001600160a01b03811615155b156103b8576040516311bc066560e11b815260040160405180910390fd5b6000546001600160a01b038083169116036103e657604051634a2fb73f60e11b815260040160405180910390fd5b6103ef816104ac565b50565b6001546001600160a01b0316331461041d576040516311a7f27160e11b815260040160405180910390fd5b62093a806002544261042f919061056b565b116101ea5760405163d39c12bb60e01b815260040160405180910390fd5b600080546001600160a01b038381166001600160a01b0319808416821785556002859055600180549091169055604051919092169283917f8be0079c531659141344cd1fd0a4f28419497f9722a3daafe3b4186f6b6457e09190a35050565b42600255600180546001600160a01b0319166001600160a01b0383169081179091556040517f6ab4d119f23076e8ad491bc65ce85f017fb0591dce08755ba8591059cc51737a90600090a250565b80356001600160a01b038116811461051157600080fd5b919050565b6000806040838503121561052957600080fd5b610532836104fa565b9150610540602084016104fa565b90509250929050565b60006020828403121561055b57600080fd5b610564826104fa565b9392505050565b60008282101561058b57634e487b7160e01b600052601160045260246000fd5b500390565b6000825160005b818110156105b15760208186018101518583015201610597565b818111156105c0576000828501525b50919091019291505056fea264697066735822122069a467691a14fc529ce1e92aded4f1aa05e0cf8f1b85a7e5e2fe2da4862eb84e64736f6c634300080f0033",
  "devdoc": {
    "details": "This implementation is a minimal version inspired by 0age's implementation: https://github.com/dharma-eng/dharma-smart-wallet/blob/master/contracts/upgradeability/DharmaUpgradeBeaconController.sol",
    "kind": "dev",
    "methods": {
      "upgrade(address,address)": {
        "params": {
          "_beacon": "Address of the UpgradeBeacon which will be updated",
          "_implementation": "Address of the Implementation contract to upgrade the Beacon to"
        }
      }
    },
    "title": "UpgradeBeaconController",
    "version": 1
  },
  "userdoc": {
    "kind": "user",
    "methods": {
      "acceptProposedOwner()": {
        "notice": "Transfers ownership of the contract to a new account (`newOwner`). Can only be called by the current owner."
      },
      "delay()": {
        "notice": "Returns the delay period before a new owner can be accepted."
      },
      "owner()": {
        "notice": "Returns the address of the current owner."
      },
      "proposeNewOwner(address)": {
        "notice": "Sets the timestamp for an owner to be proposed, and sets the newly proposed owner as step 1 in a 2-step process"
      },
      "proposed()": {
        "notice": "Returns the address of the proposed owner."
      },
      "proposedTimestamp()": {
        "notice": "Returns the address of the proposed owner."
      },
      "renounceOwnership()": {
        "notice": "Renounces ownership of the contract after a delay"
      },
      "renounced()": {
        "notice": "Indicates if the ownership has been renounced() by checking if current owner is address(0)"
      },
      "upgrade(address,address)": {
        "notice": "Modify the implementation stored in the UpgradeBeacon, which will upgrade the implementation used by all Proxy contracts using that UpgradeBeacon"
      }
    },
    "notice": "Set as the controller of UpgradeBeacon contract(s), capable of changing their stored implementation address.",
    "version": 1
  },
  "storageLayout": {
    "storage": [
      {
        "astId": 47175,
        "contract": "contracts/shared/upgrade/UpgradeBeaconController.sol:UpgradeBeaconController",
        "label": "_owner",
        "offset": 0,
        "slot": "0",
        "type": "t_address"
      },
      {
        "astId": 47177,
        "contract": "contracts/shared/upgrade/UpgradeBeaconController.sol:UpgradeBeaconController",
        "label": "_proposed",
        "offset": 0,
        "slot": "1",
        "type": "t_address"
      },
      {
        "astId": 47179,
        "contract": "contracts/shared/upgrade/UpgradeBeaconController.sol:UpgradeBeaconController",
        "label": "_proposedOwnershipTimestamp",
        "offset": 0,
        "slot": "2",
        "type": "t_uint256"
      }
    ],
    "types": {
      "t_address": {
        "encoding": "inplace",
        "label": "address",
        "numberOfBytes": "20"
      },
      "t_uint256": {
        "encoding": "inplace",
        "label": "uint256",
        "numberOfBytes": "32"
      }
    }
  }
}