{
  "address": "0x3E9d31033fc0642cfFFD201A3AdcA8787da5C2ce",
  "abi": [
    {
      "inputs": [],
      "stateMutability": "nonpayable",
      "type": "constructor"
    },
    {
      "inputs": [],
      "name": "ProposedOwnable__acceptProposedOwner_delayNotElapsed",
      "type": "error"
    },
    {
      "inputs": [],
      "name": "ProposedOwnable__onlyOwner_notOwner",
      "type": "error"
    },
    {
      "inputs": [],
      "name": "ProposedOwnable__onlyProposed_notProposedOwner",
      "type": "error"
    },
    {
      "inputs": [],
      "name": "ProposedOwnable__proposeNewOwner_invalidProposal",
      "type": "error"
    },
    {
      "inputs": [],
      "name": "ProposedOwnable__proposeNewOwner_noOwnershipChange",
      "type": "error"
    },
    {
      "inputs": [],
      "name": "ProposedOwnable__renounceOwnership_delayNotElapsed",
      "type": "error"
    },
    {
      "inputs": [],
      "name": "ProposedOwnable__renounceOwnership_invalidProposal",
      "type": "error"
    },
    {
      "inputs": [],
      "name": "ProposedOwnable__renounceOwnership_noProposal",
      "type": "error"
    },
    {
      "anonymous": false,
      "inputs": [
        {
          "indexed": true,
          "internalType": "address",
          "name": "proposedOwner",
          "type": "address"
        }
      ],
      "name": "OwnershipProposed",
      "type": "event"
    },
    {
      "anonymous": false,
      "inputs": [
        {
          "indexed": true,
          "internalType": "address",
          "name": "previousOwner",
          "type": "address"
        },
        {
          "indexed": true,
          "internalType": "address",
          "name": "newOwner",
          "type": "address"
        }
      ],
      "name": "OwnershipTransferred",
      "type": "event"
    },
    {
      "anonymous": false,
      "inputs": [
        {
          "indexed": false,
          "internalType": "address",
          "name": "watcher",
          "type": "address"
        }
      ],
      "name": "WatcherAdded",
      "type": "event"
    },
    {
      "anonymous": false,
      "inputs": [
        {
          "indexed": false,
          "internalType": "address",
          "name": "watcher",
          "type": "address"
        }
      ],
      "name": "WatcherRemoved",
      "type": "event"
    },
    {
      "inputs": [],
      "name": "acceptProposedOwner",
      "outputs": [],
      "stateMutability": "nonpayable",
      "type": "function"
    },
    {
      "inputs": [
        {
          "internalType": "address",
          "name": "_watcher",
          "type": "address"
        }
      ],
      "name": "addWatcher",
      "outputs": [],
      "stateMutability": "nonpayable",
      "type": "function"
    },
    {
      "inputs": [],
      "name": "delay",
      "outputs": [
        {
          "internalType": "uint256",
          "name": "",
          "type": "uint256"
        }
      ],
      "stateMutability": "view",
      "type": "function"
    },
    {
      "inputs": [
        {
          "internalType": "address",
          "name": "_watcher",
          "type": "address"
        }
      ],
      "name": "isWatcher",
      "outputs": [
        {
          "internalType": "bool",
          "name": "",
          "type": "bool"
        }
      ],
      "stateMutability": "view",
      "type": "function"
    },
    {
      "inputs": [],
      "name": "owner",
      "outputs": [
        {
          "internalType": "address",
          "name": "",
          "type": "address"
        }
      ],
      "stateMutability": "view",
      "type": "function"
    },
    {
      "inputs": [
        {
          "internalType": "address",
          "name": "newlyProposed",
          "type": "address"
        }
      ],
      "name": "proposeNewOwner",
      "outputs": [],
      "stateMutability": "nonpayable",
      "type": "function"
    },
    {
      "inputs": [],
      "name": "proposed",
      "outputs": [
        {
          "internalType": "address",
          "name": "",
          "type": "address"
        }
      ],
      "stateMutability": "view",
      "type": "function"
    },
    {
      "inputs": [],
      "name": "proposedTimestamp",
      "outputs": [
        {
          "internalType": "uint256",
          "name": "",
          "type": "uint256"
        }
      ],
      "stateMutability": "view",
      "type": "function"
    },
    {
      "inputs": [
        {
          "internalType": "address",
          "name": "_watcher",
          "type": "address"
        }
      ],
      "name": "removeWatcher",
      "outputs": [],
      "stateMutability": "nonpayable",
      "type": "function"
    },
    {
      "inputs": [],
      "name": "renounceOwnership",
      "outputs": [],
      "stateMutability": "nonpayable",
      "type": "function"
    },
    {
      "inputs": [],
      "name": "renounced",
      "outputs": [
        {
          "internalType": "bool",
          "name": "",
          "type": "bool"
        }
      ],
      "stateMutability": "view",
      "type": "function"
    }
  ],
  "transactionHash": "0x5ef93c760593b8c055f4110f209335a5ab19c9decd77c196ed463ee63e5cab0f",
  "args": [],
  "numDeployments": 1,
  "solcInputHash": "2cb19c6ff260c62b0df6791111e721e0",
  "bytecode": "0x608060405234801561001057600080fd5b5061001a3361001f565b61007e565b600080546001600160a01b038381166001600160a01b0319808416821785556002859055600180549091169055604051919092169283917f8be0079c531659141344cd1fd0a4f28419497f9722a3daafe3b4186f6b6457e09190a35050565b61064a8061008d6000396000f3fe608060405234801561001057600080fd5b50600436106100a95760003560e01c80638da5cb5b116100715780638da5cb5b14610127578063b1f8100d1461014c578063c5b350df1461015f578063d1851c9214610167578063d232c22014610178578063ec2b13451461018a57600080fd5b806324bdff8c146100ae5780633cf52ffb146100c35780636a42b8f8146100da578063715018a6146100e357806384785ecd146100eb575b600080fd5b6100c16100bc3660046105bf565b61019d565b005b6002545b6040519081526020015b60405180910390f35b62093a806100c7565b6100c1610283565b6101176100f93660046105bf565b6001600160a01b031660009081526003602052604090205460ff1690565b60405190151581526020016100d1565b6000546001600160a01b03165b6040516001600160a01b0390911681526020016100d1565b6100c161015a3660046105bf565b610342565b6100c16103ea565b6001546001600160a01b0316610134565b6000546001600160a01b031615610117565b6100c16101983660046105bf565b610445565b6000546001600160a01b031633146101c8576040516311a8a1bb60e31b815260040160405180910390fd5b6001600160a01b03811660009081526003602052604090205460ff16156102285760405162461bcd60e51b815260206004820152600f60248201526e30b63932b0b23c903bb0ba31b432b960891b60448201526064015b60405180910390fd5b6001600160a01b038116600081815260036020908152604091829020805460ff1916600117905590519182527fbd71030f437353231b6e5bedade573b1e0da5cb6e8bdde37c33c1fea986c29c791015b60405180910390a150565b6000546001600160a01b031633146102ae576040516311a8a1bb60e31b815260040160405180910390fd5b6002546000036102d157604051630e4b303f60e21b815260040160405180910390fd5b62093a80600254426102e391906105ef565b11610301576040516386d4b3f160e01b815260040160405180910390fd5b6001546001600160a01b03161561032b576040516323295ef960e01b815260040160405180910390fd5b600154610340906001600160a01b0316610512565b565b6000546001600160a01b0316331461036d576040516311a8a1bb60e31b815260040160405180910390fd5b6001546001600160a01b03828116911614801561039257506001600160a01b03811615155b156103b0576040516311bc066560e11b815260040160405180910390fd5b6000546001600160a01b038083169116036103de57604051634a2fb73f60e11b815260040160405180910390fd5b6103e781610571565b50565b6001546001600160a01b03163314610415576040516311a7f27160e11b815260040160405180910390fd5b62093a806002544261042791906105ef565b1161032b5760405163d39c12bb60e01b815260040160405180910390fd5b6000546001600160a01b03163314610470576040516311a8a1bb60e31b815260040160405180910390fd5b6001600160a01b03811660009081526003602052604090205460ff166104c15760405162461bcd60e51b815260206004820152600660248201526508595e1a5cdd60d21b604482015260640161021f565b6001600160a01b038116600081815260036020908152604091829020805460ff1916905590519182527ffa8eab6357bec870e7048c2413cbaa813236bb29ebac113541a76fef429e94dc9101610278565b600080546001600160a01b038381166001600160a01b0319808416821785556002859055600180549091169055604051919092169283917f8be0079c531659141344cd1fd0a4f28419497f9722a3daafe3b4186f6b6457e09190a35050565b42600255600180546001600160a01b0319166001600160a01b0383169081179091556040517f6ab4d119f23076e8ad491bc65ce85f017fb0591dce08755ba8591059cc51737a90600090a250565b6000602082840312156105d157600080fd5b81356001600160a01b03811681146105e857600080fd5b9392505050565b60008282101561060f57634e487b7160e01b600052601160045260246000fd5b50039056fea2646970667358221220a8458990ff6b8f1e63dbbf2702076a8ba87d7be6c47a2c465597d4634352993164736f6c634300080f0033",
  "devdoc": {
    "kind": "dev",
    "methods": {
      "addWatcher(address)": {
        "details": "Owner can enroll a watcher (abilities are defined by inheriting contracts)"
      },
      "removeWatcher(address)": {
        "details": "Owner can unenroll a watcher (abilities are defined by inheriting contracts)"
      }
    },
    "version": 1
  },
  "userdoc": {
    "kind": "user",
    "methods": {
      "acceptProposedOwner()": {
        "notice": "Transfers ownership of the contract to a new account (`newOwner`). Can only be called by the current owner."
      },
      "delay()": {
        "notice": "Returns the delay period before a new owner can be accepted."
      },
      "owner()": {
        "notice": "Returns the address of the current owner."
      },
      "proposeNewOwner(address)": {
        "notice": "Sets the timestamp for an owner to be proposed, and sets the newly proposed owner as step 1 in a 2-step process"
      },
      "proposed()": {
        "notice": "Returns the address of the proposed owner."
      },
      "proposedTimestamp()": {
        "notice": "Returns the address of the proposed owner."
      },
      "renounceOwnership()": {
        "notice": "Renounces ownership of the contract after a delay"
      },
      "renounced()": {
        "notice": "Indicates if the ownership has been renounced() by checking if current owner is address(0)"
      }
    },
    "notice": "This contract manages a set of watchers. This is meant to be used as a shared resource that contracts can inherit to make use of the same watcher set.",
    "version": 1
  },
  "storageLayout": {
    "storage": [
      {
        "astId": 47175,
        "contract": "contracts/messaging/WatcherManager.sol:WatcherManager",
        "label": "_owner",
        "offset": 0,
        "slot": "0",
        "type": "t_address"
      },
      {
        "astId": 47177,
        "contract": "contracts/messaging/WatcherManager.sol:WatcherManager",
        "label": "_proposed",
        "offset": 0,
        "slot": "1",
        "type": "t_address"
      },
      {
        "astId": 47179,
        "contract": "contracts/messaging/WatcherManager.sol:WatcherManager",
        "label": "_proposedOwnershipTimestamp",
        "offset": 0,
        "slot": "2",
        "type": "t_uint256"
      },
      {
        "astId": 37001,
        "contract": "contracts/messaging/WatcherManager.sol:WatcherManager",
        "label": "watchers",
        "offset": 0,
        "slot": "3",
        "type": "t_mapping(t_address,t_bool)"
      }
    ],
    "types": {
      "t_address": {
        "encoding": "inplace",
        "label": "address",
        "numberOfBytes": "20"
      },
      "t_bool": {
        "encoding": "inplace",
        "label": "bool",
        "numberOfBytes": "1"
      },
      "t_mapping(t_address,t_bool)": {
        "encoding": "mapping",
        "key": "t_address",
        "label": "mapping(address => bool)",
        "numberOfBytes": "32",
        "value": "t_bool"
      },
      "t_uint256": {
        "encoding": "inplace",
        "label": "uint256",
        "numberOfBytes": "32"
      }
    }
  }
}