{
  "address": "0xaBa77418BcafBb164779440B5C2015f7996Ee75E",
  "abi": [
    {
      "inputs": [
        {
          "internalType": "address",
          "name": "_wrapped",
          "type": "address"
        }
      ],
      "stateMutability": "nonpayable",
      "type": "constructor"
    },
    {
      "anonymous": false,
      "inputs": [
        {
          "indexed": false,
          "internalType": "address",
          "name": "tokenAddress",
          "type": "address"
        },
        {
          "indexed": false,
          "internalType": "address",
          "name": "source",
          "type": "address"
        }
      ],
      "name": "AggregatorUpdated",
      "type": "event"
    },
    {
      "anonymous": false,
      "inputs": [
        {
          "indexed": false,
          "internalType": "address",
          "name": "oldAdmin",
          "type": "address"
        },
        {
          "indexed": false,
          "internalType": "address",
          "name": "newAdmin",
          "type": "address"
        }
      ],
      "name": "NewAdmin",
      "type": "event"
    },
    {
      "anonymous": false,
      "inputs": [
        {
          "indexed": false,
          "internalType": "address",
          "name": "token",
          "type": "address"
        },
        {
          "indexed": false,
          "internalType": "address",
          "name": "baseToken",
          "type": "address"
        },
        {
          "indexed": false,
          "internalType": "address",
          "name": "lpToken",
          "type": "address"
        },
        {
          "indexed": false,
          "internalType": "bool",
          "name": "_active",
          "type": "bool"
        }
      ],
      "name": "PriceRecordUpdated",
      "type": "event"
    },
    {
      "inputs": [],
      "name": "admin",
      "outputs": [
        {
          "internalType": "address",
          "name": "",
          "type": "address"
        }
      ],
      "stateMutability": "view",
      "type": "function"
    },
    {
      "inputs": [
        {
          "internalType": "address",
          "name": "",
          "type": "address"
        }
      ],
      "name": "aggregators",
      "outputs": [
        {
          "internalType": "contract AggregatorV3Interface",
          "name": "",
          "type": "address"
        }
      ],
      "stateMutability": "view",
      "type": "function"
    },
    {
      "inputs": [
        {
          "internalType": "address",
          "name": "_tokenAddress",
          "type": "address"
        }
      ],
      "name": "getPriceFromChainlink",
      "outputs": [
        {
          "internalType": "uint256",
          "name": "",
          "type": "uint256"
        }
      ],
      "stateMutability": "view",
      "type": "function"
    },
    {
      "inputs": [
        {
          "internalType": "address",
          "name": "_tokenAddress",
          "type": "address"
        }
      ],
      "name": "getPriceFromDex",
      "outputs": [
        {
          "internalType": "uint256",
          "name": "",
          "type": "uint256"
        }
      ],
      "stateMutability": "view",
      "type": "function"
    },
    {
      "inputs": [
        {
          "internalType": "address",
          "name": "_tokenAddress",
          "type": "address"
        }
      ],
      "name": "getPriceFromOracle",
      "outputs": [
        {
          "internalType": "uint256",
          "name": "",
          "type": "uint256"
        }
      ],
      "stateMutability": "view",
      "type": "function"
    },
    {
      "inputs": [
        {
          "internalType": "address",
          "name": "_tokenAddress",
          "type": "address"
        }
      ],
      "name": "getTokenPrice",
      "outputs": [
        {
          "internalType": "uint256",
          "name": "",
          "type": "uint256"
        }
      ],
      "stateMutability": "view",
      "type": "function"
    },
    {
      "inputs": [],
      "name": "isPriceOracle",
      "outputs": [
        {
          "internalType": "bool",
          "name": "",
          "type": "bool"
        }
      ],
      "stateMutability": "view",
      "type": "function"
    },
    {
      "inputs": [
        {
          "internalType": "address",
          "name": "",
          "type": "address"
        }
      ],
      "name": "priceRecords",
      "outputs": [
        {
          "internalType": "address",
          "name": "token",
          "type": "address"
        },
        {
          "internalType": "address",
          "name": "baseToken",
          "type": "address"
        },
        {
          "internalType": "address",
          "name": "lpToken",
          "type": "address"
        },
        {
          "internalType": "bool",
          "name": "active",
          "type": "bool"
        }
      ],
      "stateMutability": "view",
      "type": "function"
    },
    {
      "inputs": [
        {
          "internalType": "address",
          "name": "newAdmin",
          "type": "address"
        }
      ],
      "name": "setAdmin",
      "outputs": [],
      "stateMutability": "nonpayable",
      "type": "function"
    },
    {
      "inputs": [
        {
          "internalType": "address[]",
          "name": "tokenAddresses",
          "type": "address[]"
        },
        {
          "internalType": "address[]",
          "name": "sources",
          "type": "address[]"
        }
      ],
      "name": "setAggregators",
      "outputs": [],
      "stateMutability": "nonpayable",
      "type": "function"
    },
    {
      "inputs": [
        {
          "internalType": "address",
          "name": "_token",
          "type": "address"
        },
        {
          "internalType": "address",
          "name": "_baseToken",
          "type": "address"
        },
        {
          "internalType": "address",
          "name": "_lpToken",
          "type": "address"
        },
        {
          "internalType": "bool",
          "name": "_active",
          "type": "bool"
        }
      ],
      "name": "setDexPriceInfo",
      "outputs": [],
      "stateMutability": "nonpayable",
      "type": "function"
    },
    {
      "inputs": [],
      "name": "wrapped",
      "outputs": [
        {
          "internalType": "address",
          "name": "",
          "type": "address"
        }
      ],
      "stateMutability": "view",
      "type": "function"
    }
  ],
  "transactionHash": "0xe0a340ab5f437ae2eef9528e327599980037410a392f701ee0995cb6493ad109",
  "args": [
    "0xc778417E063141139Fce010982780140Aa0cD5Ab"
  ],
  "solcInputHash": "cab57b50d5e72c503ee0a6f01a570434",
  "bytecode": "0x608060405234801561001057600080fd5b50604051610f2a380380610f2a83398101604081905261002f9161005d565b600180546001600160a01b039092166001600160a01b0319928316179055600080549091163317905561008b565b60006020828403121561006e578081fd5b81516001600160a01b0381168114610084578182fd5b9392505050565b610e908061009a6000396000f3fe608060405234801561001057600080fd5b50600436106100b45760003560e01c806366331bba1161007157806366331bba1461016e578063704b6c0214610186578063856d562d14610199578063a2a870a9146101ac578063d02641a014610229578063f851a4401461023c57600080fd5b8063112cdab9146100b95780631994b4fd146100ff5780633f9fb505146101145780634c8e42a11461012757806350e70d4814610148578063538e573c1461015b575b600080fd5b6100e26100c7366004610b84565b6002602052600090815260409020546001600160a01b031681565b6040516001600160a01b0390911681526020015b60405180910390f35b61011261010d366004610b9e565b61024f565b005b610112610122366004610bf7565b6103bf565b61013a610135366004610b84565b610599565b6040519081526020016100f6565b6001546100e2906001600160a01b031681565b61013a610169366004610b84565b61087f565b610176600181565b60405190151581526020016100f6565b610112610194366004610b84565b610892565b61013a6101a7366004610b84565b61094d565b6101f46101ba366004610b84565b6003602052600090815260409020805460018201546002909201546001600160a01b0391821692821691811690600160a01b900460ff1684565b6040516100f694939291906001600160a01b039485168152928416602084015292166040820152901515606082015260800190565b61013a610237366004610b84565b610aa1565b6000546100e2906001600160a01b031681565b6000546001600160a01b031633146102ae5760405162461bcd60e51b815260206004820152601c60248201527f6f6e6c792061646d696e2063616e20736574204445582070726963650000000060448201526064015b60405180910390fd5b6001600160a01b0384166000908152600360205260408120906102d08561087f565b9050600081116103175760405162461bcd60e51b815260206004820152601260248201527134b73b30b634b2103130b9b2903a37b5b2b760711b60448201526064016102a5565b81546001600160a01b038781166001600160a01b031992831681178555600185018054898416941684179055600285018054871515600160a01b81026001600160a81b0319909216948a16948517919091179091556040805192835260208301949094529281019190915260608101919091527f896c992bf7fd70df3a83c741812b6b20c1da89e5efeaefa1fde40987c7e91a129060800160405180910390a1505050505050565b6000546001600160a01b031633146104285760405162461bcd60e51b815260206004820152602660248201527f6f6e6c79207468652061646d696e206d617920736574207468652061676772656044820152656761746f727360d01b60648201526084016102a5565b60005b838110156105925782828281811061045357634e487b7160e01b600052603260045260246000fd5b90506020020160208101906104689190610b84565b6002600087878581811061048c57634e487b7160e01b600052603260045260246000fd5b90506020020160208101906104a19190610b84565b6001600160a01b039081168252602082019290925260400160002080546001600160a01b031916929091169190911790557f89baabef7dfd0683c0ac16fd2a8431c51b49fbe654c3f7b5ef19763e2ccd88f285858381811061051357634e487b7160e01b600052603260045260246000fd5b90506020020160208101906105289190610b84565b84848481811061054857634e487b7160e01b600052603260045260246000fd5b905060200201602081019061055d9190610b84565b604080516001600160a01b0393841681529290911660208301520160405180910390a18061058a81610e29565b91505061042b565b5050505050565b6001600160a01b03811660009081526003602052604081206002810154600160a01b900460ff161561087657805460028201546040516370a0823160e01b81526001600160a01b03918216600482015260009291909116906370a082319060240160206040518083038186803b15801561061257600080fd5b505afa158015610626573d6000803e3d6000fd5b505050506040513d601f19601f8201168201806040525081019061064a9190610c60565b905060008260000160009054906101000a90046001600160a01b03166001600160a01b031663313ce5676040518163ffffffff1660e01b815260040160206040518083038186803b15801561069e57600080fd5b505afa1580156106b2573d6000803e3d6000fd5b505050506040513d601f19601f820116820180604052508101906106d69190610cc7565b6106e49060ff166012610e12565b905060006106fd6106f683600a610d4b565b8490610ae3565b600185015460028601546040516370a0823160e01b81526001600160a01b0391821660048201529293506000929116906370a082319060240160206040518083038186803b15801561074e57600080fd5b505afa158015610762573d6000803e3d6000fd5b505050506040513d601f19601f820116820180604052508101906107869190610c60565b905060008560010160009054906101000a90046001600160a01b03166001600160a01b031663313ce5676040518163ffffffff1660e01b815260040160206040518083038186803b1580156107da57600080fd5b505afa1580156107ee573d6000803e3d6000fd5b505050506040513d601f19601f820116820180604052508101906108129190610cc7565b6108209060ff166012610e12565b905060006108326106f683600a610d4b565b600188015490915060009061084f906001600160a01b031661087f565b90506000610867866108618486610ae3565b90610af8565b9b9a5050505050505050505050565b50600092915050565b60008061088b8361094d565b9392505050565b6000546001600160a01b031633146108ec5760405162461bcd60e51b815260206004820152601c60248201527f6f6e6c792061646d696e2063616e20736574206e65772061646d696e0000000060448201526064016102a5565b600080546001600160a01b038381166001600160a01b031983168117909355604080519190921680825260208201939093527ff9ffabca9c8276e99321725bcb43fb076a6c66a54b7f21c4e8146d8519b417dc910160405180910390a15050565b6001600160a01b038082166000908152600260205260408120549091168015610876576000816001600160a01b031663feaf968c6040518163ffffffff1660e01b815260040160a06040518083038186803b1580156109ab57600080fd5b505afa1580156109bf573d6000803e3d6000fd5b505050506040513d601f19601f820116820180604052508101906109e39190610c78565b50505091505080600014156109fc575060009392505050565b60008190506000610a97846001600160a01b031663313ce5676040518163ffffffff1660e01b815260040160206040518083038186803b158015610a3f57600080fd5b505afa158015610a53573d6000803e3d6000fd5b505050506040513d601f19601f82011682018060405250810190610a779190610cc7565b610a859060ff166012610e12565b610a9090600a610d4b565b8390610ae3565b9695505050505050565b6000816001600160a01b038116610ac057506001546001600160a01b03165b6000610acb8261087f565b90508061088b57610adb82610599565b949350505050565b6000610aef8284610df3565b90505b92915050565b6000610aef8284610ce8565b80356001600160a01b0381168114610b1b57600080fd5b919050565b60008083601f840112610b31578182fd5b50813567ffffffffffffffff811115610b48578182fd5b6020830191508360208260051b8501011115610b6357600080fd5b9250929050565b805169ffffffffffffffffffff81168114610b1b57600080fd5b600060208284031215610b95578081fd5b610aef82610b04565b60008060008060808587031215610bb3578283fd5b610bbc85610b04565b9350610bca60208601610b04565b9250610bd860408601610b04565b915060608501358015158114610bec578182fd5b939692955090935050565b60008060008060408587031215610c0c578384fd5b843567ffffffffffffffff80821115610c23578586fd5b610c2f88838901610b20565b90965094506020870135915080821115610c47578384fd5b50610c5487828801610b20565b95989497509550505050565b600060208284031215610c71578081fd5b5051919050565b600080600080600060a08688031215610c8f578081fd5b610c9886610b6a565b9450602086015193506040860151925060608601519150610cbb60808701610b6a565b90509295509295909350565b600060208284031215610cd8578081fd5b815160ff8116811461088b578182fd5b600082610d0357634e487b7160e01b81526012600452602481fd5b500490565b600181815b80851115610d43578160001904821115610d2957610d29610e44565b80851615610d3657918102915b93841c9390800290610d0d565b509250929050565b6000610aef8383600082610d6157506001610af2565b81610d6e57506000610af2565b8160018114610d845760028114610d8e57610daa565b6001915050610af2565b60ff841115610d9f57610d9f610e44565b50506001821b610af2565b5060208310610133831016604e8410600b8410161715610dcd575081810a610af2565b610dd78383610d08565b8060001904821115610deb57610deb610e44565b029392505050565b6000816000190483118215151615610e0d57610e0d610e44565b500290565b600082821015610e2457610e24610e44565b500390565b6000600019821415610e3d57610e3d610e44565b5060010190565b634e487b7160e01b600052601160045260246000fdfea26469706673582212200c30fb7966f65ed60576f20aed3d475ac6053124b21c2dce5167e1ac587ab9d664736f6c63430008040033",
  "devdoc": {
    "kind": "dev",
    "methods": {},
    "version": 1
  },
  "userdoc": {
    "kind": "user",
    "methods": {
      "aggregators(address)": {
        "notice": "Chainlink Aggregators"
      },
      "isPriceOracle()": {
        "notice": "Indicator that this is a PriceOracle contract (for inspection)"
      }
    },
    "version": 1
  },
  "storageLayout": {
    "storage": [
      {
        "astId": 1889,
        "contract": "contracts/ConnextPriceOracle.sol:ConnextPriceOracle",
        "label": "admin",
        "offset": 0,
        "slot": "0",
        "type": "t_address"
      },
      {
        "astId": 1891,
        "contract": "contracts/ConnextPriceOracle.sol:ConnextPriceOracle",
        "label": "wrapped",
        "offset": 0,
        "slot": "1",
        "type": "t_address"
      },
      {
        "astId": 1897,
        "contract": "contracts/ConnextPriceOracle.sol:ConnextPriceOracle",
        "label": "aggregators",
        "offset": 0,
        "slot": "2",
        "type": "t_mapping(t_address,t_contract(AggregatorV3Interface)1878)"
      },
      {
        "astId": 1911,
        "contract": "contracts/ConnextPriceOracle.sol:ConnextPriceOracle",
        "label": "priceRecords",
        "offset": 0,
        "slot": "3",
        "type": "t_mapping(t_address,t_struct(PriceInfo)1906_storage)"
      }
    ],
    "types": {
      "t_address": {
        "encoding": "inplace",
        "label": "address",
        "numberOfBytes": "20"
      },
      "t_bool": {
        "encoding": "inplace",
        "label": "bool",
        "numberOfBytes": "1"
      },
      "t_contract(AggregatorV3Interface)1878": {
        "encoding": "inplace",
        "label": "contract AggregatorV3Interface",
        "numberOfBytes": "20"
      },
      "t_mapping(t_address,t_contract(AggregatorV3Interface)1878)": {
        "encoding": "mapping",
        "key": "t_address",
        "label": "mapping(address => contract AggregatorV3Interface)",
        "numberOfBytes": "32",
        "value": "t_contract(AggregatorV3Interface)1878"
      },
      "t_mapping(t_address,t_struct(PriceInfo)1906_storage)": {
        "encoding": "mapping",
        "key": "t_address",
        "label": "mapping(address => struct ConnextPriceOracle.PriceInfo)",
        "numberOfBytes": "32",
        "value": "t_struct(PriceInfo)1906_storage"
      },
      "t_struct(PriceInfo)1906_storage": {
        "encoding": "inplace",
        "label": "struct ConnextPriceOracle.PriceInfo",
        "members": [
          {
            "astId": 1899,
            "contract": "contracts/ConnextPriceOracle.sol:ConnextPriceOracle",
            "label": "token",
            "offset": 0,
            "slot": "0",
            "type": "t_address"
          },
          {
            "astId": 1901,
            "contract": "contracts/ConnextPriceOracle.sol:ConnextPriceOracle",
            "label": "baseToken",
            "offset": 0,
            "slot": "1",
            "type": "t_address"
          },
          {
            "astId": 1903,
            "contract": "contracts/ConnextPriceOracle.sol:ConnextPriceOracle",
            "label": "lpToken",
            "offset": 0,
            "slot": "2",
            "type": "t_address"
          },
          {
            "astId": 1905,
            "contract": "contracts/ConnextPriceOracle.sol:ConnextPriceOracle",
            "label": "active",
            "offset": 20,
            "slot": "2",
            "type": "t_bool"
          }
        ],
        "numberOfBytes": "96"
      }
    }
  }
}