{
  "address": "0x3642Ac894CE017ED4C183e1a8196E4d8Ab721FF3",
  "abi": [
    {
      "inputs": [
        {
          "internalType": "address",
          "name": "_owner",
          "type": "address"
        }
      ],
      "stateMutability": "nonpayable",
      "type": "constructor"
    },
    {
      "anonymous": false,
      "inputs": [
        {
          "indexed": true,
          "internalType": "address",
          "name": "previousOwner",
          "type": "address"
        },
        {
          "indexed": true,
          "internalType": "address",
          "name": "newOwner",
          "type": "address"
        }
      ],
      "name": "OwnershipTransferred",
      "type": "event"
    },
    {
      "anonymous": false,
      "inputs": [
        {
          "indexed": false,
          "internalType": "address",
          "name": "router",
          "type": "address"
        },
        {
          "indexed": false,
          "internalType": "address",
          "name": "routerSigner",
          "type": "address"
        },
        {
          "indexed": false,
          "internalType": "address",
          "name": "recipient",
          "type": "address"
        },
        {
          "indexed": false,
          "internalType": "address",
          "name": "transactionManager",
          "type": "address"
        }
      ],
      "name": "RouterCreated",
      "type": "event"
    },
    {
      "inputs": [
        {
          "internalType": "address",
          "name": "routerSigner",
          "type": "address"
        },
        {
          "internalType": "address",
          "name": "recipient",
          "type": "address"
        }
      ],
      "name": "createRouter",
      "outputs": [
        {
          "internalType": "address",
          "name": "",
          "type": "address"
        }
      ],
      "stateMutability": "nonpayable",
      "type": "function"
    },
    {
      "inputs": [
        {
          "internalType": "address",
          "name": "routerSigner",
          "type": "address"
        }
      ],
      "name": "getRouterAddress",
      "outputs": [
        {
          "internalType": "address",
          "name": "",
          "type": "address"
        }
      ],
      "stateMutability": "view",
      "type": "function"
    },
    {
      "inputs": [
        {
          "internalType": "address",
          "name": "_transactionManager",
          "type": "address"
        }
      ],
      "name": "init",
      "outputs": [],
      "stateMutability": "nonpayable",
      "type": "function"
    },
    {
      "inputs": [],
      "name": "owner",
      "outputs": [
        {
          "internalType": "address",
          "name": "",
          "type": "address"
        }
      ],
      "stateMutability": "view",
      "type": "function"
    },
    {
      "inputs": [],
      "name": "renounceOwnership",
      "outputs": [],
      "stateMutability": "nonpayable",
      "type": "function"
    },
    {
      "inputs": [
        {
          "internalType": "address",
          "name": "",
          "type": "address"
        }
      ],
      "name": "routerAddresses",
      "outputs": [
        {
          "internalType": "address",
          "name": "",
          "type": "address"
        }
      ],
      "stateMutability": "view",
      "type": "function"
    },
    {
      "inputs": [],
      "name": "transactionManager",
      "outputs": [
        {
          "internalType": "contract ITransactionManager",
          "name": "",
          "type": "address"
        }
      ],
      "stateMutability": "view",
      "type": "function"
    },
    {
      "inputs": [
        {
          "internalType": "address",
          "name": "newOwner",
          "type": "address"
        }
      ],
      "name": "transferOwnership",
      "outputs": [],
      "stateMutability": "nonpayable",
      "type": "function"
    }
  ],
  "transactionHash": "0xe4935b1ee0777e8817b1275919c5f4e20deed7481f2637428ee9987d2007c4ad",
  "args": [
    "0xE374d199D3204c8197c40499443b3E4a364FF27E"
  ],
  "solcInputHash": "f33cc7819b94ed15cdfcdb956a2b1ae4",
  "bytecode": "0x608060405234801561001057600080fd5b506040516131b63803806131b683398101604081905261002f91610167565b61003833610047565b61004181610097565b50610195565b600080546001600160a01b038381166001600160a01b0319831681178455604051919092169283917f8be0079c531659141344cd1fd0a4f28419497f9722a3daafe3b4186f6b6457e09190a35050565b6000546001600160a01b031633146100f65760405162461bcd60e51b815260206004820181905260248201527f4f776e61626c653a2063616c6c6572206973206e6f7420746865206f776e657260448201526064015b60405180910390fd5b6001600160a01b03811661015b5760405162461bcd60e51b815260206004820152602660248201527f4f776e61626c653a206e6577206f776e657220697320746865207a65726f206160448201526564647265737360d01b60648201526084016100ed565b61016481610047565b50565b600060208284031215610178578081fd5b81516001600160a01b038116811461018e578182fd5b9392505050565b613012806101a46000396000f3fe608060405234801561001057600080fd5b50600436106100885760003560e01c8063715018a61161005b578063715018a61461010d5780637f629efc146101155780638da5cb5b14610128578063f2fde38b1461013957600080fd5b806319ab453c1461008d5780631f16a046146100a25780633b716452146100e7578063463a6176146100fa575b600080fd5b6100a061009b3660046107c6565b61014c565b005b6100cb6100b03660046107c6565b6003602052600090815260409020546001600160a01b031681565b6040516001600160a01b03909116815260200160405180910390f35b6002546100cb906001600160a01b031681565b6100cb6101083660046107c6565b610253565b6100a061027b565b6100cb6101233660046107e0565b6102b1565b6000546001600160a01b03166100cb565b6100a06101473660046107c6565b6104a2565b6000546001600160a01b0316331461017f5760405162461bcd60e51b815260040161017690610878565b60405180910390fd5b6001600160a01b0381166101c15760405162461bcd60e51b815260206004820152600960248201526811a9232fa49d181a1960b91b6044820152606401610176565b600280546001600160a01b0319166001600160a01b038316908117909155604080516303408e4760e41b81529051633408e47091600480820192602092909190829003018186803b15801561021557600080fd5b505afa158015610229573d6000803e3d6000fd5b505050506040513d601f19601f8201168201806040525081019061024d9190610812565b60015550565b60006102756102618361053d565b61026961057c565b805190602001206105e4565b92915050565b6000546001600160a01b031633146102a55760405162461bcd60e51b815260040161017690610878565b6102af6000610643565b565b6002546000906001600160a01b03166102f95760405162461bcd60e51b815260206004820152600a60248201526911a9232fa1a91d181a1960b11b6044820152606401610176565b6001600160a01b03831661033c5760405162461bcd60e51b815260206004820152600a6024820152692352465f43523a30343160b01b6044820152606401610176565b6001600160a01b03821661037f5760405162461bcd60e51b815260206004820152600a6024820152692352465f43523a30303760b01b6044820152606401610176565b600061039c600061038f8661053d565b61039761057c565b610693565b6002546001546040516344bd376560e01b81526001600160a01b0392831660048201526024810191909152868216604482015285821660648201523360848201529192508216906344bd37659060a401600060405180830381600087803b15801561040657600080fd5b505af115801561041a573d6000803e3d6000fd5b505050506001600160a01b0384811660008181526003602090815260409182902080548686166001600160a01b0319909116811790915560025483519182529181019390935286841683830152909216606082015290517fe8e811674d167b407a67a22f592a226ade5e34b608e7d56721f82422f3b981979181900360800190a19392505050565b6000546001600160a01b031633146104cc5760405162461bcd60e51b815260040161017690610878565b6001600160a01b0381166105315760405162461bcd60e51b815260206004820152602660248201527f4f776e61626c653a206e6577206f776e657220697320746865207a65726f206160448201526564647265737360d01b6064820152608401610176565b61053a81610643565b50565b6040516bffffffffffffffffffffffff19606083901b166020820152600090603401604051602081830303815290604052805190602001209050919050565b60606000604051806020016105909061079d565b601f1982820381018352601f90910116604081815230602083015291925082910160408051601f19818403018152908290526105cf9291602001610863565b60405160208183030381529060405291505090565b604080516001600160f81b03196020808301919091526bffffffffffffffffffffffff193060601b16602183015260358201859052605580830185905283518084039091018152607590920190925280519101206000905b9392505050565b600080546001600160a01b038381166001600160a01b0319831681178455604051919092169283917f8be0079c531659141344cd1fd0a4f28419497f9722a3daafe3b4186f6b6457e09190a35050565b600080844710156106e65760405162461bcd60e51b815260206004820152601d60248201527f437265617465323a20696e73756666696369656e742062616c616e63650000006044820152606401610176565b82516107345760405162461bcd60e51b815260206004820181905260248201527f437265617465323a2062797465636f6465206c656e677468206973207a65726f6044820152606401610176565b8383516020850187f590506001600160a01b0381166107955760405162461bcd60e51b815260206004820152601960248201527f437265617465323a204661696c6564206f6e206465706c6f79000000000000006044820152606401610176565b949350505050565b61272f806108ae83390190565b80356001600160a01b03811681146107c157600080fd5b919050565b6000602082840312156107d7578081fd5b61063c826107aa565b600080604083850312156107f2578081fd5b6107fb836107aa565b9150610809602084016107aa565b90509250929050565b600060208284031215610823578081fd5b5051919050565b60008151815b8181101561084a5760208185018101518683015201610830565b818111156108585782828601525b509290920192915050565b6000610795610872838661082a565b8461082a565b6020808252818101527f4f776e61626c653a2063616c6c6572206973206e6f7420746865206f776e657260408201526060019056fe60a06040523480156200001157600080fd5b506040516200272f3803806200272f8339810160408190526200003491620000a5565b6200003f3362000055565b60601b6001600160601b031916608052620000d5565b600080546001600160a01b038381166001600160a01b0319831681178455604051919092169283917f8be0079c531659141344cd1fd0a4f28419497f9722a3daafe3b4186f6b6457e09190a35050565b600060208284031215620000b7578081fd5b81516001600160a01b0381168114620000ce578182fd5b9392505050565b60805160601c612634620000fb600039600081816101b4015261037c01526126346000f3fe6080604052600436106100f75760003560e01c80636e2054a91161008a578063d4132a0b11610059578063d4132a0b146102a9578063d42030ed146102c9578063f2fde38b146102e9578063fc6bee131461030957600080fd5b80636e2054a914610236578063715018a6146102635780638da5cb5b14610278578063ce9765391461029657600080fd5b80634ba51437116100c65780634ba51437146101a25780634f64cfc5146101d657806366d003ac146101f65780636c19e7831461021657600080fd5b80633411dbdc146101035780633b716452146101405780633bbed4a01461016057806344bd37651461018257600080fd5b366100fe57005b600080fd5b34801561010f57600080fd5b50600454610123906001600160a01b031681565b6040516001600160a01b0390911681526020015b60405180910390f35b34801561014c57600080fd5b50600154610123906001600160a01b031681565b34801561016c57600080fd5b5061018061017b366004611670565b61031c565b005b34801561018e57600080fd5b5061018061019d36600461168c565b610371565b3480156101ae57600080fd5b506101237f000000000000000000000000000000000000000000000000000000000000000081565b3480156101e257600080fd5b506101806101f1366004611926565b61042e565b34801561020257600080fd5b50600354610123906001600160a01b031681565b34801561022257600080fd5b50610180610231366004611670565b6104ff565b34801561024257600080fd5b506102566102513660046117a0565b61054b565b60405161013791906122a1565b34801561026f57600080fd5b506101806106b7565b34801561028457600080fd5b506000546001600160a01b0316610123565b6102566102a43660046117e1565b6106ed565b3480156102b557600080fd5b506101806102c4366004611955565b6107e6565b3480156102d557600080fd5b506102566102e4366004611713565b61091e565b3480156102f557600080fd5b50610180610304366004611670565b610a17565b610180610317366004611926565b610ab2565b6000546001600160a01b0316331461034f5760405162461bcd60e51b815260040161034690611da2565b60405180910390fd5b600380546001600160a01b0319166001600160a01b0392909216919091179055565b336001600160a01b037f000000000000000000000000000000000000000000000000000000000000000016146103dc5760405162461bcd60e51b815260206004820152601060248201526f4f4e4c595f5649415f464143544f525960801b6044820152606401610346565b600180546001600160a01b038088166001600160a01b031992831617909255600286905560048054868416908316179055600380549285169290911691909117905561042781610a17565b5050505050565b6000546001600160a01b031633146104585760405162461bcd60e51b815260040161034690611da2565b600082116104965760405162461bcd60e51b815260206004820152600b60248201526a11a921afa929231d18181960a91b6044820152606401610346565b6003546104ae9082906001600160a01b031684610bd1565b604080516001600160a01b03831681526020810184905233918101919091527f5d760a2d1cc0892ddaea1748093916f51d345b37724db0f69b41574a92adc06f906060015b60405180910390a15050565b6000546001600160a01b031633146105295760405162461bcd60e51b815260040161034690611da2565b600480546001600160a01b0319166001600160a01b0392909216919091179055565b61055361131c565b6004546001600160a01b0316331461062a57600060405180608001604052808861057c9061241b565b8152602001876001600160a01b03168152602001868152602001600254815250905060006105ca826040516020016105b49190612133565b6040516020818303038152906040528686610bfa565b6004549091506001600160a01b038083169116146106165760405162461bcd60e51b815260206004820152600960248201526802352435f463a3034360bc1b6044820152606401610346565b851561062757610627873388610bd1565b50505b6001546040516301362a3560e71b81526001600160a01b0390911690639b151a809061065a908990600401611e3a565b61020060405180830381600087803b15801561067557600080fd5b505af1158015610689573d6000803e3d6000fd5b505050506040513d601f19601f820116820180604052508101906106ad9190611822565b9695505050505050565b6000546001600160a01b031633146106e15760405162461bcd60e51b815260040161034690611da2565b6106eb6000610ca3565b565b6106f561131c565b6004546001600160a01b031633146107b657600060405180608001604052808861071e906124c9565b8152602001876001600160a01b0316815260200186815260200160025481525090506000610756826040516020016105b491906121f2565b6004549091506001600160a01b038083169116146107a25760405162461bcd60e51b815260206004820152600960248201526802352435f503a3034360bc1b6044820152606401610346565b85156107b3576107b3873388610bd1565b50505b600154604051636ca2c9b960e11b81526001600160a01b039091169063d94593729061065a908990600401611ed6565b6004546001600160a01b031633146108a75760408051606080820183528682526001600160a01b03868116602080850191825260025485870190815286519182018b905291519092168286015251818301528351808203909201825260800190925290600090610857908585610bfa565b6004549091506001600160a01b038083169116146108a45760405162461bcd60e51b815260206004820152600a60248201526902352435f524c3a3034360b41b6044820152606401610346565b50505b600154600354604051633cc6af3160e21b8152600481018790526001600160a01b038681166024830152918216604482015291169063f31abcc490606401600060405180830381600087803b1580156108ff57600080fd5b505af1158015610913573d6000803e3d6000fd5b505050505b50505050565b61092661131c565b6004546001600160a01b031633146109e757600060405180608001604052808861094f90612384565b8152602001876001600160a01b0316815260200186815260200160025481525090506000610987826040516020016105b491906120a7565b6004549091506001600160a01b038083169116146109d35760405162461bcd60e51b815260206004820152600960248201526802352435f433a3034360bc1b6044820152606401610346565b85156109e4576109e4873388610bd1565b50505b600154604051635f48d15d60e11b81526001600160a01b039091169063be91a2ba9061065a908990600401611dd7565b6000546001600160a01b03163314610a415760405162461bcd60e51b815260040161034690611da2565b6001600160a01b038116610aa65760405162461bcd60e51b815260206004820152602660248201527f4f776e61626c653a206e6577206f776e657220697320746865207a65726f206160448201526564647265737360d01b6064820152608401610346565b610aaf81610ca3565b50565b60008211610af05760405162461bcd60e51b815260206004820152600b60248201526a11a921afa0a9231d18181960a91b6044820152606401610346565b6001600160a01b038116610b4057813414610b3b5760405162461bcd60e51b815260206004820152600b60248201526a2352435f4152463a30303560a81b6044820152606401610346565b610b88565b3415610b7c5760405162461bcd60e51b815260206004820152600b60248201526a11a921afa0a9231d18181b60a91b6044820152606401610346565b610b8881333085610cf3565b604080516001600160a01b03831681526020810184905233918101919091527f1104e763408245681528382e9b9fcd4d8f1b4bce2e83f5ce2be8d1a5ec8323a0906060016104f3565b6001600160a01b03831615610bf057610beb838383610cff565b505050565b610beb8282610d0a565b6000610c99610c5d85805190602001206040517f19457468657265756d205369676e6564204d6573736167653a0a3332000000006020820152603c8101829052600090605c01604051602081830303815290604052805190602001209050919050565b84848080601f016020809104026020016040519081016040528093929190818152602001838380828437600092019190915250610d1892505050565b90505b9392505050565b600080546001600160a01b038381166001600160a01b0319831681178455604051919092169283917f8be0079c531659141344cd1fd0a4f28419497f9722a3daafe3b4186f6b6457e09190a35050565b61091884848484610dc2565b610beb838383610e2d565b610d148282610e5d565b5050565b6000815160411415610d4c5760208201516040830151606084015160001a610d4286828585610f76565b9350505050610dbc565b815160401415610d745760208201516040830151610d6b85838361111f565b92505050610dbc565b60405162461bcd60e51b815260206004820152601f60248201527f45434453413a20696e76616c6964207369676e6174757265206c656e677468006044820152606401610346565b92915050565b6040516001600160a01b03808516602483015283166044820152606481018290526109189085906323b872dd60e01b906084015b60408051601f198184030181529190526020810180516001600160e01b03166001600160e01b03199093169290921790915261113f565b6040516001600160a01b038316602482015260448101829052610beb90849063a9059cbb60e01b90606401610df6565b80471015610ead5760405162461bcd60e51b815260206004820152601d60248201527f416464726573733a20696e73756666696369656e742062616c616e63650000006044820152606401610346565b6000826001600160a01b03168260405160006040518083038185875af1925050503d8060008114610efa576040519150601f19603f3d011682016040523d82523d6000602084013e610eff565b606091505b5050905080610beb5760405162461bcd60e51b815260206004820152603a60248201527f416464726573733a20756e61626c6520746f2073656e642076616c75652c207260448201527f6563697069656e74206d617920686176652072657665727465640000000000006064820152608401610346565b60007f7fffffffffffffffffffffffffffffff5d576e7357a4501ddfe92f46681b20a0821115610ff35760405162461bcd60e51b815260206004820152602260248201527f45434453413a20696e76616c6964207369676e6174757265202773272076616c604482015261756560f01b6064820152608401610346565b8360ff16601b148061100857508360ff16601c145b61105f5760405162461bcd60e51b815260206004820152602260248201527f45434453413a20696e76616c6964207369676e6174757265202776272076616c604482015261756560f01b6064820152608401610346565b6040805160008082526020820180845288905260ff871692820192909252606081018590526080810184905260019060a0016020604051602081039080840390855afa1580156110b3573d6000803e3d6000fd5b5050604051601f1901519150506001600160a01b0381166111165760405162461bcd60e51b815260206004820152601860248201527f45434453413a20696e76616c6964207369676e617475726500000000000000006044820152606401610346565b95945050505050565b60006001600160ff1b03821660ff83901c601b016106ad86828785610f76565b6000611194826040518060400160405280602081526020017f5361666545524332303a206c6f772d6c6576656c2063616c6c206661696c6564815250856001600160a01b03166112119092919063ffffffff16565b805190915015610beb57808060200190518101906111b291906116f3565b610beb5760405162461bcd60e51b815260206004820152602a60248201527f5361666545524332303a204552433230206f7065726174696f6e20646964206e6044820152691bdd081cdd58d8d9595960b21b6064820152608401610346565b6060610c99848460008585843b61126a5760405162461bcd60e51b815260206004820152601d60248201527f416464726573733a2063616c6c20746f206e6f6e2d636f6e74726163740000006044820152606401610346565b600080866001600160a01b031685876040516112869190611d73565b60006040518083038185875af1925050503d80600081146112c3576040519150601f19603f3d011682016040523d82523d6000602084013e6112c8565b606091505b50915091506112d88282866112e3565b979650505050505050565b606083156112f2575081610c9c565b8251156113025782518084602001fd5b8160405162461bcd60e51b81526004016103469190611d8f565b6040805161020081018252600080825260208201819052918101829052606081018290526080810182905260a0810182905260c0810182905260e08101829052610100810182905261012081018290526101408101829052610160810182905261018081018290526101a081018290526101c081018290526101e081019190915290565b80356113ab816125e9565b919050565b80516113ab816125e9565b60008083601f8401126113cc578182fd5b5081356001600160401b038111156113e2578182fd5b6020830191508360208285010111156113fa57600080fd5b9250929050565b600082601f830112611411578081fd5b81356001600160401b038082111561142b5761142b6125d3565b604051601f8301601f19908116603f01168101908282118183101715611453576114536125d3565b8160405283815286602085880101111561146b578485fd5b8360208701602083013792830160200193909352509392505050565b60006101a08284031215611499578081fd5b6114a16122b0565b90506114ac826113a0565b81526114ba602083016113a0565b60208201526114cb604083016113a0565b60408201526114dc606083016113a0565b60608201526114ed608083016113a0565b60808201526114fe60a083016113a0565b60a082015261150f60c083016113a0565b60c082015261152060e083016113a0565b60e08201526101006115338184016113a0565b908201526101208281013590820152610140808301359082015261016080830135908201526101809182013591810191909152919050565b6000610200828403121561157d578081fd5b6115856122d9565b9050611590826113a0565b815261159e602083016113a0565b60208201526115af604083016113a0565b60408201526115c0606083016113a0565b60608201526115d1608083016113a0565b60808201526115e260a083016113a0565b60a08201526115f360c083016113a0565b60c082015261160460e083016113a0565b60e08201526101006116178184016113a0565b9082015261012082810135908201526101408083013590820152610160808301359082015261018080830135908201526101a080830135908201526101c080830135908201526101e09182013591810191909152919050565b600060208284031215611681578081fd5b8135610c9c816125e9565b600080600080600060a086880312156116a3578081fd5b85356116ae816125e9565b94506020860135935060408601356116c5816125e9565b925060608601356116d5816125e9565b915060808601356116e5816125e9565b809150509295509295909350565b600060208284031215611704578081fd5b81518015158114610c9c578182fd5b60008060008060006080868803121561172a578283fd5b85356001600160401b0380821115611740578485fd5b90870190610240828a031215611754578485fd5b909550602087013590611766826125e9565b9094506040870135935060608701359080821115611782578283fd5b5061178f888289016113bb565b969995985093965092949392505050565b6000806000806000608086880312156117b7578283fd5b85356001600160401b03808211156117cd578485fd5b90870190610280828a031215611754578485fd5b6000806000806000608086880312156117f8578283fd5b85356001600160401b038082111561180e578485fd5b90870190610260828a031215611754578485fd5b60006102008284031215611834578081fd5b61183c6122d9565b611845836113b0565b8152611853602084016113b0565b6020820152611864604084016113b0565b6040820152611875606084016113b0565b6060820152611886608084016113b0565b608082015261189760a084016113b0565b60a08201526118a860c084016113b0565b60c08201526118b960e084016113b0565b60e08201526101006118cc8185016113b0565b9082015261012083810151908201526101408084015190820152610160808401519082015261018080840151908201526101a080840151908201526101c080840151908201526101e0928301519281019290925250919050565b60008060408385031215611938578182fd5b82359150602083013561194a816125e9565b809150509250929050565b6000806000806060858703121561196a578182fd5b84359350602085013561197c816125e9565b925060408501356001600160401b03811115611996578283fd5b6119a2878288016113bb565b95989497509550505050565b81835281816020850137506000828201602090810191909152601f909101601f19169091010190565b600081518084526119ef8160208601602086016125a7565b601f01601f19169290920160200192915050565b80516001600160a01b031682526020810151611a2a60208401826001600160a01b03169052565b506040810151611a4560408401826001600160a01b03169052565b506060810151611a6060608401826001600160a01b03169052565b506080810151611a7b60808401826001600160a01b03169052565b5060a0810151611a9660a08401826001600160a01b03169052565b5060c0810151611ab160c08401826001600160a01b03169052565b5060e0810151611acc60e08401826001600160a01b03169052565b50610100818101516001600160a01b03169083015261012080820151908301526101408082015190830152610160808201519083015261018090810151910152565b611b2882611b1b836113a0565b6001600160a01b03169052565b611b34602082016113a0565b6001600160a01b03166020830152611b4e604082016113a0565b6001600160a01b03166040830152611b68606082016113a0565b6001600160a01b03166060830152611b82608082016113a0565b6001600160a01b03166080830152611b9c60a082016113a0565b6001600160a01b031660a0830152611bb660c082016113a0565b6001600160a01b031660c0830152611bd060e082016113a0565b6001600160a01b031660e0830152610100611bec8282016113a0565b6001600160a01b03169083015261012081810135908301526101408082013590830152610160808201359083015261018080820135908301526101a080820135908301526101c080820135908301526101e090810135910152565b80516001600160a01b031682526020810151611c6e60208401826001600160a01b03169052565b506040810151611c8960408401826001600160a01b03169052565b506060810151611ca460608401826001600160a01b03169052565b506080810151611cbf60808401826001600160a01b03169052565b5060a0810151611cda60a08401826001600160a01b03169052565b5060c0810151611cf560c08401826001600160a01b03169052565b5060e0810151611d1060e08401826001600160a01b03169052565b50610100818101516001600160a01b03169083015261012080820151908301526101408082015190830152610160808201519083015261018080820151908301526101a080820151908301526101c080820151908301526101e090810151910152565b60008251611d858184602087016125a7565b9190910192915050565b602081526000610c9c60208301846119d7565b6020808252818101527f4f776e61626c653a2063616c6c6572206973206e6f7420746865206f776e6572604082015260600190565b60208152611de86020820183611b0e565b6000611df8610200840184612340565b6102406102208181870152611e12610260870184866119ae565b9350611e2081880188612340565b878603601f190184890152935090506112d88484836119ae565b60208152611e4b6020820183611b0e565b600061022061020084013581840152611e6681850185612340565b91506102806102408181870152611e826102a0870185856119ae565b9350611e9081880188612340565b93509050601f19610260818887030181890152611eae8686856119ae565b9550611ebc818a018a612340565b9550925050808786030183880152506112d88484836119ae565b60208152611eea60208201611b1b846113a0565b6000611ef8602084016113a0565b6001600160a01b038116604084015250611f14604084016113a0565b6001600160a01b038116606084015250611f30606084016113a0565b6001600160a01b038116608084015250611f4c608084016113a0565b6001600160a01b03811660a084015250611f6860a084016113a0565b6001600160a01b03811660c084015250611f8460c084016113a0565b6001600160a01b03811660e084015250611fa060e084016113a0565b610100611fb7818501836001600160a01b03169052565b611fc28186016113a0565b915050610120611fdc818501836001600160a01b03169052565b6101409150808501358285015250610160818501358185015261018091508085013582850152506101a081850135818501526101c091508085013582850152506101e0818501358185015261203381860186612340565b925090506102606102008181870152612051610280870185856119ae565b935061205f81880188612340565b93509050601f1961022081888703018189015261207d8686856119ae565b955061208b818a018a612340565b9550925050610240818887030181890152611eae8686856119ae565b6020815260008251608060208401526120c460a084018251611c47565b60208101516102406102a08501526120e06102e08501826119d7565b905060408201519150609f19848203016102c085015261210081836119d7565b91505060018060a01b03602085015116604084015260408401516060840152606084015160808401528091505092915050565b60208152600082516080602084015261215060a084018251611c47565b60208101516102a084015260408101516102806102c08501526121776103208501826119d7565b90506060820151609f1980868403016102e087015261219683836119d7565b925060808401519350808684030161030087015250506121b681836119d7565b91505060208401516121d360408501826001600160a01b03169052565b5060408401516060840152606084015160808401528091505092915050565b60208152600082516080602084015261220f60a084018251611a03565b6020810151610240840152604081015161026081818601526060830151915080610280860152506122446103008501826119d7565b90506080820151609f1980868403016102a087015261226383836119d7565b925060a0840151915080868403016102c087015261228183836119d7565b925060c0840151935080868403016102e087015250506121b681836119d7565b6102008101610dbc8284611c47565b6040516101a081016001600160401b03811182821017156122d3576122d36125d3565b60405290565b60405161020081016001600160401b03811182821017156122d3576122d36125d3565b60405160a081016001600160401b03811182821017156122d3576122d36125d3565b60405160e081016001600160401b03811182821017156122d3576122d36125d3565b6000808335601e19843603018112612356578283fd5b83016020810192503590506001600160401b0381111561237557600080fd5b8036038313156113fa57600080fd5b60006102408236031215612396578081fd5b604051606081016001600160401b0382821081831117156123b9576123b96125d3565b816040526123c7368661156b565b83526102008501359150808211156123dd578384fd5b6123e936838701611401565b6020840152610220850135915080821115612402578384fd5b5061240f36828601611401565b60408301525092915050565b6000610280823603121561242d578081fd5b6124356122fc565b61243f368461156b565b815261020083013560208201526102208301356001600160401b0380821115612466578384fd5b61247236838701611401565b604084015261024085013591508082111561248b578384fd5b61249736838701611401565b60608401526102608501359150808211156124b0578384fd5b506124bd36828601611401565b60808301525092915050565b600061026082360312156124db578081fd5b6124e361231e565b6124ed3684611487565b81526101a083013560208201526101c083013560408201526101e08301356001600160401b038082111561251f578384fd5b61252b36838701611401565b6060840152610200850135915080821115612544578384fd5b61255036838701611401565b6080840152610220850135915080821115612569578384fd5b61257536838701611401565b60a084015261024085013591508082111561258e578384fd5b5061259b36828601611401565b60c08301525092915050565b60005b838110156125c25781810151838201526020016125aa565b838111156109185750506000910152565b634e487b7160e01b600052604160045260246000fd5b6001600160a01b0381168114610aaf57600080fdfea2646970667358221220cdb118397c421cb4803f915222b708e9d3e87c14a3a46ad965a79cdde63ca5ea64736f6c63430008040033a264697066735822122068ad5829edd4855930145a712758cb99498a1a13f2609a94e14d41aa6ce1310c64736f6c63430008040033",
  "devdoc": {
    "kind": "dev",
    "methods": {
      "createRouter(address,address)": {
        "params": {
          "recipient": "address recipient",
          "routerSigner": "address router signer"
        }
      },
      "getRouterAddress(address)": {
        "params": {
          "routerSigner": "address router signer"
        }
      },
      "owner()": {
        "details": "Returns the address of the current owner."
      },
      "renounceOwnership()": {
        "details": "Leaves the contract without owner. It will not be possible to call `onlyOwner` functions anymore. Can only be called by the current owner. NOTE: Renouncing ownership will leave the contract without an owner, thereby removing any functionality that is only available to the owner."
      },
      "transferOwnership(address)": {
        "details": "Transfers ownership of the contract to a new account (`newOwner`). Can only be called by the current owner."
      }
    },
    "stateVariables": {
      "chainId": {
        "details": "The stored chain id of the contract, may be passed in to avoid any      evm issues"
      },
      "routerAddresses": {
        "details": "Mapping of routerSigner to created Router contract address"
      },
      "transactionManager": {
        "details": "The transaction Manager contract"
      }
    },
    "version": 1
  },
  "userdoc": {
    "kind": "user",
    "methods": {
      "createRouter(address,address)": {
        "notice": "Allows us to create new router contract"
      },
      "getRouterAddress(address)": {
        "notice": "Allows us to get the address for a new router contract created via `createRouter`"
      }
    },
    "version": 1
  },
  "storageLayout": {
    "storage": [
      {
        "astId": 7,
        "contract": "contracts/RouterFactory.sol:RouterFactory",
        "label": "_owner",
        "offset": 0,
        "slot": "0",
        "type": "t_address"
      },
      {
        "astId": 3586,
        "contract": "contracts/RouterFactory.sol:RouterFactory",
        "label": "chainId",
        "offset": 0,
        "slot": "1",
        "type": "t_uint256"
      },
      {
        "astId": 3590,
        "contract": "contracts/RouterFactory.sol:RouterFactory",
        "label": "transactionManager",
        "offset": 0,
        "slot": "2",
        "type": "t_contract(ITransactionManager)5935"
      },
      {
        "astId": 3595,
        "contract": "contracts/RouterFactory.sol:RouterFactory",
        "label": "routerAddresses",
        "offset": 0,
        "slot": "3",
        "type": "t_mapping(t_address,t_address)"
      }
    ],
    "types": {
      "t_address": {
        "encoding": "inplace",
        "label": "address",
        "numberOfBytes": "20"
      },
      "t_contract(ITransactionManager)5935": {
        "encoding": "inplace",
        "label": "contract ITransactionManager",
        "numberOfBytes": "20"
      },
      "t_mapping(t_address,t_address)": {
        "encoding": "mapping",
        "key": "t_address",
        "label": "mapping(address => address)",
        "numberOfBytes": "32",
        "value": "t_address"
      },
      "t_uint256": {
        "encoding": "inplace",
        "label": "uint256",
        "numberOfBytes": "32"
      }
    }
  }
}