{
  "address": "0x834B3786575A4aFA67089e15c75cFB3dA8a308Ec",
  "abi": [
    {
      "inputs": [
        {
          "internalType": "address",
          "name": "_owner",
          "type": "address"
        }
      ],
      "stateMutability": "nonpayable",
      "type": "constructor"
    },
    {
      "anonymous": false,
      "inputs": [
        {
          "indexed": true,
          "internalType": "address",
          "name": "previousOwner",
          "type": "address"
        },
        {
          "indexed": true,
          "internalType": "address",
          "name": "newOwner",
          "type": "address"
        }
      ],
      "name": "OwnershipTransferred",
      "type": "event"
    },
    {
      "anonymous": false,
      "inputs": [
        {
          "indexed": false,
          "internalType": "address",
          "name": "router",
          "type": "address"
        },
        {
          "indexed": false,
          "internalType": "address",
          "name": "routerSigner",
          "type": "address"
        },
        {
          "indexed": false,
          "internalType": "address",
          "name": "recipient",
          "type": "address"
        },
        {
          "indexed": false,
          "internalType": "address",
          "name": "transactionManager",
          "type": "address"
        }
      ],
      "name": "RouterCreated",
      "type": "event"
    },
    {
      "inputs": [
        {
          "internalType": "address",
          "name": "routerSigner",
          "type": "address"
        },
        {
          "internalType": "address",
          "name": "recipient",
          "type": "address"
        }
      ],
      "name": "createRouter",
      "outputs": [
        {
          "internalType": "address",
          "name": "",
          "type": "address"
        }
      ],
      "stateMutability": "nonpayable",
      "type": "function"
    },
    {
      "inputs": [
        {
          "internalType": "address",
          "name": "routerSigner",
          "type": "address"
        }
      ],
      "name": "getRouterAddress",
      "outputs": [
        {
          "internalType": "address",
          "name": "",
          "type": "address"
        }
      ],
      "stateMutability": "view",
      "type": "function"
    },
    {
      "inputs": [
        {
          "internalType": "address",
          "name": "_transactionManager",
          "type": "address"
        }
      ],
      "name": "init",
      "outputs": [],
      "stateMutability": "nonpayable",
      "type": "function"
    },
    {
      "inputs": [],
      "name": "owner",
      "outputs": [
        {
          "internalType": "address",
          "name": "",
          "type": "address"
        }
      ],
      "stateMutability": "view",
      "type": "function"
    },
    {
      "inputs": [],
      "name": "renounceOwnership",
      "outputs": [],
      "stateMutability": "nonpayable",
      "type": "function"
    },
    {
      "inputs": [
        {
          "internalType": "address",
          "name": "",
          "type": "address"
        }
      ],
      "name": "routerAddresses",
      "outputs": [
        {
          "internalType": "address",
          "name": "",
          "type": "address"
        }
      ],
      "stateMutability": "view",
      "type": "function"
    },
    {
      "inputs": [],
      "name": "transactionManager",
      "outputs": [
        {
          "internalType": "contract ITransactionManager",
          "name": "",
          "type": "address"
        }
      ],
      "stateMutability": "view",
      "type": "function"
    },
    {
      "inputs": [
        {
          "internalType": "address",
          "name": "newOwner",
          "type": "address"
        }
      ],
      "name": "transferOwnership",
      "outputs": [],
      "stateMutability": "nonpayable",
      "type": "function"
    }
  ],
  "transactionHash": "0x15ae3ef24a2747e50b5c2884c9f65fb64bb0a304d39d82fd101107c04638c5ab",
  "args": [
    "0x627306090abaB3A6e1400e9345bC60c78a8BEf57"
  ],
  "solcInputHash": "2d23f70e7789b2ff055046619fb5b86d",
  "bytecode": "0x608060405234801561001057600080fd5b5060405161322938038061322983398101604081905261002f91610167565b61003833610047565b61004181610097565b50610195565b600080546001600160a01b038381166001600160a01b0319831681178455604051919092169283917f8be0079c531659141344cd1fd0a4f28419497f9722a3daafe3b4186f6b6457e09190a35050565b6000546001600160a01b031633146100f65760405162461bcd60e51b815260206004820181905260248201527f4f776e61626c653a2063616c6c6572206973206e6f7420746865206f776e657260448201526064015b60405180910390fd5b6001600160a01b03811661015b5760405162461bcd60e51b815260206004820152602660248201527f4f776e61626c653a206e6577206f776e657220697320746865207a65726f206160448201526564647265737360d01b60648201526084016100ed565b61016481610047565b50565b600060208284031215610178578081fd5b81516001600160a01b038116811461018e578182fd5b9392505050565b613085806101a46000396000f3fe608060405234801561001057600080fd5b50600436106100885760003560e01c8063715018a61161005b578063715018a61461010d5780637f629efc146101155780638da5cb5b14610128578063f2fde38b1461013957600080fd5b806319ab453c1461008d5780631f16a046146100a25780633b716452146100e7578063463a6176146100fa575b600080fd5b6100a061009b3660046107c6565b61014c565b005b6100cb6100b03660046107c6565b6003602052600090815260409020546001600160a01b031681565b6040516001600160a01b03909116815260200160405180910390f35b6002546100cb906001600160a01b031681565b6100cb6101083660046107c6565b610253565b6100a061027b565b6100cb6101233660046107e0565b6102b1565b6000546001600160a01b03166100cb565b6100a06101473660046107c6565b6104a2565b6000546001600160a01b0316331461017f5760405162461bcd60e51b815260040161017690610878565b60405180910390fd5b6001600160a01b0381166101c15760405162461bcd60e51b815260206004820152600960248201526811a9232fa49d181a1960b91b6044820152606401610176565b600280546001600160a01b0319166001600160a01b038316908117909155604080516303408e4760e41b81529051633408e47091600480820192602092909190829003018186803b15801561021557600080fd5b505afa158015610229573d6000803e3d6000fd5b505050506040513d601f19601f8201168201806040525081019061024d9190610812565b60015550565b60006102756102618361053d565b61026961057c565b805190602001206105e4565b92915050565b6000546001600160a01b031633146102a55760405162461bcd60e51b815260040161017690610878565b6102af6000610643565b565b6002546000906001600160a01b03166102f95760405162461bcd60e51b815260206004820152600a60248201526911a9232fa1a91d181a1960b11b6044820152606401610176565b6001600160a01b03831661033c5760405162461bcd60e51b815260206004820152600a6024820152692352465f43523a30343160b01b6044820152606401610176565b6001600160a01b03821661037f5760405162461bcd60e51b815260206004820152600a6024820152692352465f43523a30303760b01b6044820152606401610176565b600061039c600061038f8661053d565b61039761057c565b610693565b6002546001546040516344bd376560e01b81526001600160a01b0392831660048201526024810191909152868216604482015285821660648201523360848201529192508216906344bd37659060a401600060405180830381600087803b15801561040657600080fd5b505af115801561041a573d6000803e3d6000fd5b505050506001600160a01b0384811660008181526003602090815260409182902080548686166001600160a01b0319909116811790915560025483519182529181019390935286841683830152909216606082015290517fe8e811674d167b407a67a22f592a226ade5e34b608e7d56721f82422f3b981979181900360800190a19392505050565b6000546001600160a01b031633146104cc5760405162461bcd60e51b815260040161017690610878565b6001600160a01b0381166105315760405162461bcd60e51b815260206004820152602660248201527f4f776e61626c653a206e6577206f776e657220697320746865207a65726f206160448201526564647265737360d01b6064820152608401610176565b61053a81610643565b50565b6040516bffffffffffffffffffffffff19606083901b166020820152600090603401604051602081830303815290604052805190602001209050919050565b60606000604051806020016105909061079d565b601f1982820381018352601f90910116604081815230602083015291925082910160408051601f19818403018152908290526105cf9291602001610863565b60405160208183030381529060405291505090565b604080516001600160f81b03196020808301919091526bffffffffffffffffffffffff193060601b16602183015260358201859052605580830185905283518084039091018152607590920190925280519101206000905b9392505050565b600080546001600160a01b038381166001600160a01b0319831681178455604051919092169283917f8be0079c531659141344cd1fd0a4f28419497f9722a3daafe3b4186f6b6457e09190a35050565b600080844710156106e65760405162461bcd60e51b815260206004820152601d60248201527f437265617465323a20696e73756666696369656e742062616c616e63650000006044820152606401610176565b82516107345760405162461bcd60e51b815260206004820181905260248201527f437265617465323a2062797465636f6465206c656e677468206973207a65726f6044820152606401610176565b8383516020850187f590506001600160a01b0381166107955760405162461bcd60e51b815260206004820152601960248201527f437265617465323a204661696c6564206f6e206465706c6f79000000000000006044820152606401610176565b949350505050565b6127a2806108ae83390190565b80356001600160a01b03811681146107c157600080fd5b919050565b6000602082840312156107d7578081fd5b61063c826107aa565b600080604083850312156107f2578081fd5b6107fb836107aa565b9150610809602084016107aa565b90509250929050565b600060208284031215610823578081fd5b5051919050565b60008151815b8181101561084a5760208185018101518683015201610830565b818111156108585782828601525b509290920192915050565b6000610795610872838661082a565b8461082a565b6020808252818101527f4f776e61626c653a2063616c6c6572206973206e6f7420746865206f776e657260408201526060019056fe60a06040523480156200001157600080fd5b50604051620027a2380380620027a28339810160408190526200003491620000a5565b6200003f3362000055565b60601b6001600160601b031916608052620000d5565b600080546001600160a01b038381166001600160a01b0319831681178455604051919092169283917f8be0079c531659141344cd1fd0a4f28419497f9722a3daafe3b4186f6b6457e09190a35050565b600060208284031215620000b7578081fd5b81516001600160a01b0381168114620000ce578182fd5b9392505050565b60805160601c6126a7620000fb600039600081816101a9015261037101526126a76000f3fe6080604052600436106100f35760003560e01c80636e2054a91161008a578063d4132a0b11610059578063d4132a0b1461029e578063d42030ed146102be578063f2fde38b146102de578063fc6bee13146102fe57600080fd5b80636e2054a91461022b578063715018a6146102585780638da5cb5b1461026d578063ce9765391461028b57600080fd5b80634ba51437116100c65780634ba51437146101975780634f64cfc5146101cb57806366d003ac146101eb5780636c19e7831461020b57600080fd5b80633411dbdc146100f85780633b716452146101355780633bbed4a01461015557806344bd376514610177575b600080fd5b34801561010457600080fd5b50600454610118906001600160a01b031681565b6040516001600160a01b0390911681526020015b60405180910390f35b34801561014157600080fd5b50600154610118906001600160a01b031681565b34801561016157600080fd5b506101756101703660046116e3565b610311565b005b34801561018357600080fd5b506101756101923660046116ff565b610366565b3480156101a357600080fd5b506101187f000000000000000000000000000000000000000000000000000000000000000081565b3480156101d757600080fd5b506101756101e6366004611999565b610423565b3480156101f757600080fd5b50600354610118906001600160a01b031681565b34801561021757600080fd5b506101756102263660046116e3565b6104f4565b34801561023757600080fd5b5061024b610246366004611813565b610540565b60405161012c9190612314565b34801561026457600080fd5b506101756106ac565b34801561027957600080fd5b506000546001600160a01b0316610118565b61024b610299366004611854565b6106e2565b3480156102aa57600080fd5b506101756102b93660046119c8565b610859565b3480156102ca57600080fd5b5061024b6102d9366004611786565b610991565b3480156102ea57600080fd5b506101756102f93660046116e3565b610a8a565b61017561030c366004611999565b610b25565b6000546001600160a01b031633146103445760405162461bcd60e51b815260040161033b90611e15565b60405180910390fd5b600380546001600160a01b0319166001600160a01b0392909216919091179055565b336001600160a01b037f000000000000000000000000000000000000000000000000000000000000000016146103d15760405162461bcd60e51b815260206004820152601060248201526f4f4e4c595f5649415f464143544f525960801b604482015260640161033b565b600180546001600160a01b038088166001600160a01b031992831617909255600286905560048054868416908316179055600380549285169290911691909117905561041c81610a8a565b5050505050565b6000546001600160a01b0316331461044d5760405162461bcd60e51b815260040161033b90611e15565b6000821161048b5760405162461bcd60e51b815260206004820152600b60248201526a11a921afa929231d18181960a91b604482015260640161033b565b6003546104a39082906001600160a01b031684610c44565b604080516001600160a01b03831681526020810184905233918101919091527f5d760a2d1cc0892ddaea1748093916f51d345b37724db0f69b41574a92adc06f906060015b60405180910390a15050565b6000546001600160a01b0316331461051e5760405162461bcd60e51b815260040161033b90611e15565b600480546001600160a01b0319166001600160a01b0392909216919091179055565b61054861138f565b6004546001600160a01b0316331461061f5760006040518060800160405280886105719061248e565b8152602001876001600160a01b03168152602001868152602001600254815250905060006105bf826040516020016105a991906121a6565b6040516020818303038152906040528686610c6d565b6004549091506001600160a01b0380831691161461060b5760405162461bcd60e51b815260206004820152600960248201526802352435f463a3034360bc1b604482015260640161033b565b851561061c5761061c873388610c44565b50505b6001546040516301362a3560e71b81526001600160a01b0390911690639b151a809061064f908990600401611ead565b61020060405180830381600087803b15801561066a57600080fd5b505af115801561067e573d6000803e3d6000fd5b505050506040513d601f19601f820116820180604052508101906106a29190611895565b9695505050505050565b6000546001600160a01b031633146106d65760405162461bcd60e51b815260040161033b90611e15565b6106e06000610d16565b565b6106ea61138f565b6004546001600160a01b031633146107ab5760006040518060800160405280886107139061253c565b8152602001876001600160a01b031681526020018681526020016002548152509050600061074b826040516020016105a99190612265565b6004549091506001600160a01b038083169116146107975760405162461bcd60e51b815260206004820152600960248201526802352435f503a3034360bc1b604482015260640161033b565b85156107a8576107a8873388610c44565b50505b6001546001600160a01b031663d94593726107dc6107cf60a08a0160808b016116e3565b6001600160a01b03161590565b6107e75760006107e9565b345b886040518363ffffffff1660e01b81526004016108069190611f49565b610200604051808303818588803b15801561082057600080fd5b505af1158015610834573d6000803e3d6000fd5b50505050506040513d601f19601f820116820180604052508101906106a29190611895565b6004546001600160a01b0316331461091a5760408051606080820183528682526001600160a01b03868116602080850191825260025485870190815286519182018b9052915190921682860152518183015283518082039092018252608001909252906000906108ca908585610c6d565b6004549091506001600160a01b038083169116146109175760405162461bcd60e51b815260206004820152600a60248201526902352435f524c3a3034360b41b604482015260640161033b565b50505b600154600354604051633cc6af3160e21b8152600481018790526001600160a01b038681166024830152918216604482015291169063f31abcc490606401600060405180830381600087803b15801561097257600080fd5b505af1158015610986573d6000803e3d6000fd5b505050505b50505050565b61099961138f565b6004546001600160a01b03163314610a5a5760006040518060800160405280886109c2906123f7565b8152602001876001600160a01b03168152602001868152602001600254815250905060006109fa826040516020016105a9919061211a565b6004549091506001600160a01b03808316911614610a465760405162461bcd60e51b815260206004820152600960248201526802352435f433a3034360bc1b604482015260640161033b565b8515610a5757610a57873388610c44565b50505b600154604051635f48d15d60e11b81526001600160a01b039091169063be91a2ba9061064f908990600401611e4a565b6000546001600160a01b03163314610ab45760405162461bcd60e51b815260040161033b90611e15565b6001600160a01b038116610b195760405162461bcd60e51b815260206004820152602660248201527f4f776e61626c653a206e6577206f776e657220697320746865207a65726f206160448201526564647265737360d01b606482015260840161033b565b610b2281610d16565b50565b60008211610b635760405162461bcd60e51b815260206004820152600b60248201526a11a921afa0a9231d18181960a91b604482015260640161033b565b6001600160a01b038116610bb357813414610bae5760405162461bcd60e51b815260206004820152600b60248201526a2352435f4152463a30303560a81b604482015260640161033b565b610bfb565b3415610bef5760405162461bcd60e51b815260206004820152600b60248201526a11a921afa0a9231d18181b60a91b604482015260640161033b565b610bfb81333085610d66565b604080516001600160a01b03831681526020810184905233918101919091527f1104e763408245681528382e9b9fcd4d8f1b4bce2e83f5ce2be8d1a5ec8323a0906060016104e8565b6001600160a01b03831615610c6357610c5e838383610d72565b505050565b610c5e8282610d7d565b6000610d0c610cd085805190602001206040517f19457468657265756d205369676e6564204d6573736167653a0a3332000000006020820152603c8101829052600090605c01604051602081830303815290604052805190602001209050919050565b84848080601f016020809104026020016040519081016040528093929190818152602001838380828437600092019190915250610d8b92505050565b90505b9392505050565b600080546001600160a01b038381166001600160a01b0319831681178455604051919092169283917f8be0079c531659141344cd1fd0a4f28419497f9722a3daafe3b4186f6b6457e09190a35050565b61098b84848484610e35565b610c5e838383610ea0565b610d878282610ed0565b5050565b6000815160411415610dbf5760208201516040830151606084015160001a610db586828585610fe9565b9350505050610e2f565b815160401415610de75760208201516040830151610dde858383611192565b92505050610e2f565b60405162461bcd60e51b815260206004820152601f60248201527f45434453413a20696e76616c6964207369676e6174757265206c656e67746800604482015260640161033b565b92915050565b6040516001600160a01b038085166024830152831660448201526064810182905261098b9085906323b872dd60e01b906084015b60408051601f198184030181529190526020810180516001600160e01b03166001600160e01b0319909316929092179091526111b2565b6040516001600160a01b038316602482015260448101829052610c5e90849063a9059cbb60e01b90606401610e69565b80471015610f205760405162461bcd60e51b815260206004820152601d60248201527f416464726573733a20696e73756666696369656e742062616c616e6365000000604482015260640161033b565b6000826001600160a01b03168260405160006040518083038185875af1925050503d8060008114610f6d576040519150601f19603f3d011682016040523d82523d6000602084013e610f72565b606091505b5050905080610c5e5760405162461bcd60e51b815260206004820152603a60248201527f416464726573733a20756e61626c6520746f2073656e642076616c75652c207260448201527f6563697069656e74206d61792068617665207265766572746564000000000000606482015260840161033b565b60007f7fffffffffffffffffffffffffffffff5d576e7357a4501ddfe92f46681b20a08211156110665760405162461bcd60e51b815260206004820152602260248201527f45434453413a20696e76616c6964207369676e6174757265202773272076616c604482015261756560f01b606482015260840161033b565b8360ff16601b148061107b57508360ff16601c145b6110d25760405162461bcd60e51b815260206004820152602260248201527f45434453413a20696e76616c6964207369676e6174757265202776272076616c604482015261756560f01b606482015260840161033b565b6040805160008082526020820180845288905260ff871692820192909252606081018590526080810184905260019060a0016020604051602081039080840390855afa158015611126573d6000803e3d6000fd5b5050604051601f1901519150506001600160a01b0381166111895760405162461bcd60e51b815260206004820152601860248201527f45434453413a20696e76616c6964207369676e61747572650000000000000000604482015260640161033b565b95945050505050565b60006001600160ff1b03821660ff83901c601b016106a286828785610fe9565b6000611207826040518060400160405280602081526020017f5361666545524332303a206c6f772d6c6576656c2063616c6c206661696c6564815250856001600160a01b03166112849092919063ffffffff16565b805190915015610c5e57808060200190518101906112259190611766565b610c5e5760405162461bcd60e51b815260206004820152602a60248201527f5361666545524332303a204552433230206f7065726174696f6e20646964206e6044820152691bdd081cdd58d8d9595960b21b606482015260840161033b565b6060610d0c848460008585843b6112dd5760405162461bcd60e51b815260206004820152601d60248201527f416464726573733a2063616c6c20746f206e6f6e2d636f6e7472616374000000604482015260640161033b565b600080866001600160a01b031685876040516112f99190611de6565b60006040518083038185875af1925050503d8060008114611336576040519150601f19603f3d011682016040523d82523d6000602084013e61133b565b606091505b509150915061134b828286611356565b979650505050505050565b60608315611365575081610d0f565b8251156113755782518084602001fd5b8160405162461bcd60e51b815260040161033b9190611e02565b6040805161020081018252600080825260208201819052918101829052606081018290526080810182905260a0810182905260c0810182905260e08101829052610100810182905261012081018290526101408101829052610160810182905261018081018290526101a081018290526101c081018290526101e081019190915290565b803561141e8161265c565b919050565b805161141e8161265c565b60008083601f84011261143f578182fd5b5081356001600160401b03811115611455578182fd5b60208301915083602082850101111561146d57600080fd5b9250929050565b600082601f830112611484578081fd5b81356001600160401b038082111561149e5761149e612646565b604051601f8301601f19908116603f011681019082821181831017156114c6576114c6612646565b816040528381528660208588010111156114de578485fd5b8360208701602083013792830160200193909352509392505050565b60006101a0828403121561150c578081fd5b611514612323565b905061151f82611413565b815261152d60208301611413565b602082015261153e60408301611413565b604082015261154f60608301611413565b606082015261156060808301611413565b608082015261157160a08301611413565b60a082015261158260c08301611413565b60c082015261159360e08301611413565b60e08201526101006115a6818401611413565b908201526101208281013590820152610140808301359082015261016080830135908201526101809182013591810191909152919050565b600061020082840312156115f0578081fd5b6115f861234c565b905061160382611413565b815261161160208301611413565b602082015261162260408301611413565b604082015261163360608301611413565b606082015261164460808301611413565b608082015261165560a08301611413565b60a082015261166660c08301611413565b60c082015261167760e08301611413565b60e082015261010061168a818401611413565b9082015261012082810135908201526101408083013590820152610160808301359082015261018080830135908201526101a080830135908201526101c080830135908201526101e09182013591810191909152919050565b6000602082840312156116f4578081fd5b8135610d0f8161265c565b600080600080600060a08688031215611716578081fd5b85356117218161265c565b94506020860135935060408601356117388161265c565b925060608601356117488161265c565b915060808601356117588161265c565b809150509295509295909350565b600060208284031215611777578081fd5b81518015158114610d0f578182fd5b60008060008060006080868803121561179d578283fd5b85356001600160401b03808211156117b3578485fd5b90870190610240828a0312156117c7578485fd5b9095506020870135906117d98261265c565b90945060408701359350606087013590808211156117f5578283fd5b506118028882890161142e565b969995985093965092949392505050565b60008060008060006080868803121561182a578283fd5b85356001600160401b0380821115611840578485fd5b90870190610280828a0312156117c7578485fd5b60008060008060006080868803121561186b578283fd5b85356001600160401b0380821115611881578485fd5b90870190610260828a0312156117c7578485fd5b600061020082840312156118a7578081fd5b6118af61234c565b6118b883611423565b81526118c660208401611423565b60208201526118d760408401611423565b60408201526118e860608401611423565b60608201526118f960808401611423565b608082015261190a60a08401611423565b60a082015261191b60c08401611423565b60c082015261192c60e08401611423565b60e082015261010061193f818501611423565b9082015261012083810151908201526101408084015190820152610160808401519082015261018080840151908201526101a080840151908201526101c080840151908201526101e0928301519281019290925250919050565b600080604083850312156119ab578182fd5b8235915060208301356119bd8161265c565b809150509250929050565b600080600080606085870312156119dd578182fd5b8435935060208501356119ef8161265c565b925060408501356001600160401b03811115611a09578283fd5b611a158782880161142e565b95989497509550505050565b81835281816020850137506000828201602090810191909152601f909101601f19169091010190565b60008151808452611a6281602086016020860161261a565b601f01601f19169290920160200192915050565b80516001600160a01b031682526020810151611a9d60208401826001600160a01b03169052565b506040810151611ab860408401826001600160a01b03169052565b506060810151611ad360608401826001600160a01b03169052565b506080810151611aee60808401826001600160a01b03169052565b5060a0810151611b0960a08401826001600160a01b03169052565b5060c0810151611b2460c08401826001600160a01b03169052565b5060e0810151611b3f60e08401826001600160a01b03169052565b50610100818101516001600160a01b03169083015261012080820151908301526101408082015190830152610160808201519083015261018090810151910152565b611b9b82611b8e83611413565b6001600160a01b03169052565b611ba760208201611413565b6001600160a01b03166020830152611bc160408201611413565b6001600160a01b03166040830152611bdb60608201611413565b6001600160a01b03166060830152611bf560808201611413565b6001600160a01b03166080830152611c0f60a08201611413565b6001600160a01b031660a0830152611c2960c08201611413565b6001600160a01b031660c0830152611c4360e08201611413565b6001600160a01b031660e0830152610100611c5f828201611413565b6001600160a01b03169083015261012081810135908301526101408082013590830152610160808201359083015261018080820135908301526101a080820135908301526101c080820135908301526101e090810135910152565b80516001600160a01b031682526020810151611ce160208401826001600160a01b03169052565b506040810151611cfc60408401826001600160a01b03169052565b506060810151611d1760608401826001600160a01b03169052565b506080810151611d3260808401826001600160a01b03169052565b5060a0810151611d4d60a08401826001600160a01b03169052565b5060c0810151611d6860c08401826001600160a01b03169052565b5060e0810151611d8360e08401826001600160a01b03169052565b50610100818101516001600160a01b03169083015261012080820151908301526101408082015190830152610160808201519083015261018080820151908301526101a080820151908301526101c080820151908301526101e090810151910152565b60008251611df881846020870161261a565b9190910192915050565b602081526000610d0f6020830184611a4a565b6020808252818101527f4f776e61626c653a2063616c6c6572206973206e6f7420746865206f776e6572604082015260600190565b60208152611e5b6020820183611b81565b6000611e6b6102008401846123b3565b6102406102208181870152611e8561026087018486611a21565b9350611e93818801886123b3565b878603601f1901848901529350905061134b848483611a21565b60208152611ebe6020820183611b81565b600061022061020084013581840152611ed9818501856123b3565b91506102806102408181870152611ef56102a087018585611a21565b9350611f03818801886123b3565b93509050601f19610260818887030181890152611f21868685611a21565b9550611f2f818a018a6123b3565b95509250508087860301838801525061134b848483611a21565b60208152611f5d60208201611b8e84611413565b6000611f6b60208401611413565b6001600160a01b038116604084015250611f8760408401611413565b6001600160a01b038116606084015250611fa360608401611413565b6001600160a01b038116608084015250611fbf60808401611413565b6001600160a01b03811660a084015250611fdb60a08401611413565b6001600160a01b03811660c084015250611ff760c08401611413565b6001600160a01b03811660e08401525061201360e08401611413565b61010061202a818501836001600160a01b03169052565b612035818601611413565b91505061012061204f818501836001600160a01b03169052565b6101409150808501358285015250610160818501358185015261018091508085013582850152506101a081850135818501526101c091508085013582850152506101e081850135818501526120a6818601866123b3565b9250905061026061020081818701526120c461028087018585611a21565b93506120d2818801886123b3565b93509050601f196102208188870301818901526120f0868685611a21565b95506120fe818a018a6123b3565b9550925050610240818887030181890152611f21868685611a21565b60208152600082516080602084015261213760a084018251611cba565b60208101516102406102a08501526121536102e0850182611a4a565b905060408201519150609f19848203016102c08501526121738183611a4a565b91505060018060a01b03602085015116604084015260408401516060840152606084015160808401528091505092915050565b6020815260008251608060208401526121c360a084018251611cba565b60208101516102a084015260408101516102806102c08501526121ea610320850182611a4a565b90506060820151609f1980868403016102e08701526122098383611a4a565b925060808401519350808684030161030087015250506122298183611a4a565b915050602084015161224660408501826001600160a01b03169052565b5060408401516060840152606084015160808401528091505092915050565b60208152600082516080602084015261228260a084018251611a76565b6020810151610240840152604081015161026081818601526060830151915080610280860152506122b7610300850182611a4a565b90506080820151609f1980868403016102a08701526122d68383611a4a565b925060a0840151915080868403016102c08701526122f48383611a4a565b925060c0840151935080868403016102e087015250506122298183611a4a565b6102008101610e2f8284611cba565b6040516101a081016001600160401b038111828210171561234657612346612646565b60405290565b60405161020081016001600160401b038111828210171561234657612346612646565b60405160a081016001600160401b038111828210171561234657612346612646565b60405160e081016001600160401b038111828210171561234657612346612646565b6000808335601e198436030181126123c9578283fd5b83016020810192503590506001600160401b038111156123e857600080fd5b80360383131561146d57600080fd5b60006102408236031215612409578081fd5b604051606081016001600160401b03828210818311171561242c5761242c612646565b8160405261243a36866115de565b8352610200850135915080821115612450578384fd5b61245c36838701611474565b6020840152610220850135915080821115612475578384fd5b5061248236828601611474565b60408301525092915050565b600061028082360312156124a0578081fd5b6124a861236f565b6124b236846115de565b815261020083013560208201526102208301356001600160401b03808211156124d9578384fd5b6124e536838701611474565b60408401526102408501359150808211156124fe578384fd5b61250a36838701611474565b6060840152610260850135915080821115612523578384fd5b5061253036828601611474565b60808301525092915050565b6000610260823603121561254e578081fd5b612556612391565b61256036846114fa565b81526101a083013560208201526101c083013560408201526101e08301356001600160401b0380821115612592578384fd5b61259e36838701611474565b60608401526102008501359150808211156125b7578384fd5b6125c336838701611474565b60808401526102208501359150808211156125dc578384fd5b6125e836838701611474565b60a0840152610240850135915080821115612601578384fd5b5061260e36828601611474565b60c08301525092915050565b60005b8381101561263557818101518382015260200161261d565b8381111561098b5750506000910152565b634e487b7160e01b600052604160045260246000fd5b6001600160a01b0381168114610b2257600080fdfea264697066735822122015e114bbad3b3b6b3ade2ff722018274ad19996c4ef4d5b6dd7638bf6add658f64736f6c63430008040033a2646970667358221220e1f73f77b0a26e03839715f4193ce6680cd62af5a4799de1d642e356fc616a2864736f6c63430008040033",
  "devdoc": {
    "kind": "dev",
    "methods": {
      "createRouter(address,address)": {
        "params": {
          "recipient": "address recipient",
          "routerSigner": "address router signer"
        }
      },
      "getRouterAddress(address)": {
        "params": {
          "routerSigner": "address router signer"
        }
      },
      "owner()": {
        "details": "Returns the address of the current owner."
      },
      "renounceOwnership()": {
        "details": "Leaves the contract without owner. It will not be possible to call `onlyOwner` functions anymore. Can only be called by the current owner. NOTE: Renouncing ownership will leave the contract without an owner, thereby removing any functionality that is only available to the owner."
      },
      "transferOwnership(address)": {
        "details": "Transfers ownership of the contract to a new account (`newOwner`). Can only be called by the current owner."
      }
    },
    "stateVariables": {
      "chainId": {
        "details": "The stored chain id of the contract, may be passed in to avoid any      evm issues"
      },
      "routerAddresses": {
        "details": "Mapping of routerSigner to created Router contract address"
      },
      "transactionManager": {
        "details": "The transaction Manager contract"
      }
    },
    "version": 1
  },
  "userdoc": {
    "kind": "user",
    "methods": {
      "createRouter(address,address)": {
        "notice": "Allows us to create new router contract"
      },
      "getRouterAddress(address)": {
        "notice": "Allows us to get the address for a new router contract created via `createRouter`"
      }
    },
    "version": 1
  },
  "storageLayout": {
    "storage": [
      {
        "astId": 7,
        "contract": "contracts/RouterFactory.sol:RouterFactory",
        "label": "_owner",
        "offset": 0,
        "slot": "0",
        "type": "t_address"
      },
      {
        "astId": 3593,
        "contract": "contracts/RouterFactory.sol:RouterFactory",
        "label": "chainId",
        "offset": 0,
        "slot": "1",
        "type": "t_uint256"
      },
      {
        "astId": 3597,
        "contract": "contracts/RouterFactory.sol:RouterFactory",
        "label": "transactionManager",
        "offset": 0,
        "slot": "2",
        "type": "t_contract(ITransactionManager)5939"
      },
      {
        "astId": 3602,
        "contract": "contracts/RouterFactory.sol:RouterFactory",
        "label": "routerAddresses",
        "offset": 0,
        "slot": "3",
        "type": "t_mapping(t_address,t_address)"
      }
    ],
    "types": {
      "t_address": {
        "encoding": "inplace",
        "label": "address",
        "numberOfBytes": "20"
      },
      "t_contract(ITransactionManager)5939": {
        "encoding": "inplace",
        "label": "contract ITransactionManager",
        "numberOfBytes": "20"
      },
      "t_mapping(t_address,t_address)": {
        "encoding": "mapping",
        "key": "t_address",
        "label": "mapping(address => address)",
        "numberOfBytes": "32",
        "value": "t_address"
      },
      "t_uint256": {
        "encoding": "inplace",
        "label": "uint256",
        "numberOfBytes": "32"
      }
    }
  }
}