{
  "address": "0x8797F18B690684613d8C1Df4837e6C3eE46D3B60",
  "abi": [
    {
      "inputs": [
        {
          "internalType": "address",
          "name": "_owner",
          "type": "address"
        }
      ],
      "stateMutability": "nonpayable",
      "type": "constructor"
    },
    {
      "anonymous": false,
      "inputs": [
        {
          "indexed": true,
          "internalType": "address",
          "name": "previousOwner",
          "type": "address"
        },
        {
          "indexed": true,
          "internalType": "address",
          "name": "newOwner",
          "type": "address"
        }
      ],
      "name": "OwnershipTransferred",
      "type": "event"
    },
    {
      "anonymous": false,
      "inputs": [
        {
          "indexed": false,
          "internalType": "address",
          "name": "router",
          "type": "address"
        },
        {
          "indexed": false,
          "internalType": "address",
          "name": "routerSigner",
          "type": "address"
        },
        {
          "indexed": false,
          "internalType": "address",
          "name": "recipient",
          "type": "address"
        },
        {
          "indexed": false,
          "internalType": "address",
          "name": "transactionManager",
          "type": "address"
        }
      ],
      "name": "RouterCreated",
      "type": "event"
    },
    {
      "inputs": [
        {
          "internalType": "address",
          "name": "routerSigner",
          "type": "address"
        },
        {
          "internalType": "address",
          "name": "recipient",
          "type": "address"
        }
      ],
      "name": "createRouter",
      "outputs": [
        {
          "internalType": "address",
          "name": "",
          "type": "address"
        }
      ],
      "stateMutability": "nonpayable",
      "type": "function"
    },
    {
      "inputs": [
        {
          "internalType": "address",
          "name": "routerSigner",
          "type": "address"
        }
      ],
      "name": "getRouterAddress",
      "outputs": [
        {
          "internalType": "address",
          "name": "",
          "type": "address"
        }
      ],
      "stateMutability": "view",
      "type": "function"
    },
    {
      "inputs": [
        {
          "internalType": "address",
          "name": "_transactionManager",
          "type": "address"
        },
        {
          "internalType": "uint256",
          "name": "_chainId",
          "type": "uint256"
        }
      ],
      "name": "init",
      "outputs": [],
      "stateMutability": "nonpayable",
      "type": "function"
    },
    {
      "inputs": [],
      "name": "owner",
      "outputs": [
        {
          "internalType": "address",
          "name": "",
          "type": "address"
        }
      ],
      "stateMutability": "view",
      "type": "function"
    },
    {
      "inputs": [],
      "name": "renounceOwnership",
      "outputs": [],
      "stateMutability": "nonpayable",
      "type": "function"
    },
    {
      "inputs": [
        {
          "internalType": "address",
          "name": "",
          "type": "address"
        }
      ],
      "name": "routerAddresses",
      "outputs": [
        {
          "internalType": "address",
          "name": "",
          "type": "address"
        }
      ],
      "stateMutability": "view",
      "type": "function"
    },
    {
      "inputs": [
        {
          "internalType": "address",
          "name": "_transactionManager",
          "type": "address"
        }
      ],
      "name": "setTransactionManager",
      "outputs": [],
      "stateMutability": "nonpayable",
      "type": "function"
    },
    {
      "inputs": [],
      "name": "transactionManager",
      "outputs": [
        {
          "internalType": "contract ITransactionManager",
          "name": "",
          "type": "address"
        }
      ],
      "stateMutability": "view",
      "type": "function"
    },
    {
      "inputs": [
        {
          "internalType": "address",
          "name": "newOwner",
          "type": "address"
        }
      ],
      "name": "transferOwnership",
      "outputs": [],
      "stateMutability": "nonpayable",
      "type": "function"
    }
  ],
  "transactionHash": "0x5df21a10ff2049b701fd21331f70c9e699d73a956f90a7b0f14abc5d8ffe958c",
  "args": [
    "0x627306090abaB3A6e1400e9345bC60c78a8BEf57"
  ],
  "solcInputHash": "4572fe83b937c8708dcd6d6faa1f9e08",
  "bytecode": "0x608060405234801561001057600080fd5b50604051611fd6380380611fd683398101604081905261002f91610167565b61003833610047565b61004181610097565b50610195565b600080546001600160a01b038381166001600160a01b0319831681178455604051919092169283917f8be0079c531659141344cd1fd0a4f28419497f9722a3daafe3b4186f6b6457e09190a35050565b6000546001600160a01b031633146100f65760405162461bcd60e51b815260206004820181905260248201527f4f776e61626c653a2063616c6c6572206973206e6f7420746865206f776e657260448201526064015b60405180910390fd5b6001600160a01b03811661015b5760405162461bcd60e51b815260206004820152602660248201527f4f776e61626c653a206e6577206f776e657220697320746865207a65726f206160448201526564647265737360d01b60648201526084016100ed565b61016481610047565b50565b600060208284031215610178578081fd5b81516001600160a01b038116811461018e578182fd5b9392505050565b611e32806101a46000396000f3fe608060405234801561001057600080fd5b50600436106100935760003560e01c8063463a617611610066578063463a617614610118578063715018a61461012b5780637f629efc146101335780638da5cb5b14610146578063f2fde38b1461015757600080fd5b80630b1fa61c146100985780631f16a046146100ad578063399ae724146100f25780633b71645214610105575b600080fd5b6100ab6100a636600461069d565b61016a565b005b6100d66100bb36600461069d565b6003602052600090815260409020546001600160a01b031681565b6040516001600160a01b03909116815260200160405180910390f35b6100ab6101003660046106e9565b6101bf565b6002546100d6906001600160a01b031681565b6100d661012636600461069d565b61020f565b6100ab610237565b6100d66101413660046106b7565b61026d565b6000546001600160a01b03166100d6565b6100ab61016536600461069d565b610391565b6000546001600160a01b0316331461019d5760405162461bcd60e51b81526004016101949061074b565b60405180910390fd5b600280546001600160a01b0319166001600160a01b0392909216919091179055565b6000546001600160a01b031633146101e95760405162461bcd60e51b81526004016101949061074b565b600280546001600160a01b0319166001600160a01b039390931692909217909155600155565b600061023161021d8361042c565b61022561046b565b805190602001206104bb565b92915050565b6000546001600160a01b031633146102615760405162461bcd60e51b81526004016101949061074b565b61026b600061051a565b565b60008061028b600061027e8661042c565b61028661046b565b61056a565b6002546001546040516344bd376560e01b81526001600160a01b0392831660048201526024810191909152868216604482015285821660648201523360848201529192508216906344bd37659060a401600060405180830381600087803b1580156102f557600080fd5b505af1158015610309573d6000803e3d6000fd5b505050506001600160a01b0384811660008181526003602090815260409182902080548686166001600160a01b0319909116811790915560025483519182529181019390935286841683830152909216606082015290517fe8e811674d167b407a67a22f592a226ade5e34b608e7d56721f82422f3b981979181900360800190a19392505050565b6000546001600160a01b031633146103bb5760405162461bcd60e51b81526004016101949061074b565b6001600160a01b0381166104205760405162461bcd60e51b815260206004820152602660248201527f4f776e61626c653a206e6577206f776e657220697320746865207a65726f206160448201526564647265737360d01b6064820152608401610194565b6104298161051a565b50565b6040516bffffffffffffffffffffffff19606083901b166020820152600090603401604051602081830303815290604052805190602001209050919050565b606060006040518060200161047f90610674565b6020820181038252601f19601f820116604052509050806040516020016104a69190610712565b60405160208183030381529060405291505090565b604080516001600160f81b03196020808301919091526bffffffffffffffffffffffff193060601b16602183015260358201859052605580830185905283518084039091018152607590920190925280519101206000905b9392505050565b600080546001600160a01b038381166001600160a01b0319831681178455604051919092169283917f8be0079c531659141344cd1fd0a4f28419497f9722a3daafe3b4186f6b6457e09190a35050565b600080844710156105bd5760405162461bcd60e51b815260206004820152601d60248201527f437265617465323a20696e73756666696369656e742062616c616e63650000006044820152606401610194565b825161060b5760405162461bcd60e51b815260206004820181905260248201527f437265617465323a2062797465636f6465206c656e677468206973207a65726f6044820152606401610194565b8383516020850187f590506001600160a01b03811661066c5760405162461bcd60e51b815260206004820152601960248201527f437265617465323a204661696c6564206f6e206465706c6f79000000000000006044820152606401610194565b949350505050565b61167c8061078183390190565b80356001600160a01b038116811461069857600080fd5b919050565b6000602082840312156106ae578081fd5b61051382610681565b600080604083850312156106c9578081fd5b6106d283610681565b91506106e060208401610681565b90509250929050565b600080604083850312156106fb578182fd5b61070483610681565b946020939093013593505050565b60008251815b818110156107325760208186018101518583015201610718565b818111156107405782828501525b509190910192915050565b6020808252818101527f4f776e61626c653a2063616c6c6572206973206e6f7420746865206f776e657260408201526060019056fe608060405234801561001057600080fd5b5061001a3361001f565b61006f565b600080546001600160a01b038381166001600160a01b0319831681178455604051919092169283917f8be0079c531659141344cd1fd0a4f28419497f9722a3daafe3b4186f6b6457e09190a35050565b6115fe8061007e6000396000f3fe6080604052600436106100c25760003560e01c8063715018a61161007f578063c48bf4a611610059578063c48bf4a614610206578063d2baa16814610226578063d4132a0b14610239578063f2fde38b1461025957600080fd5b8063715018a6146101a65780638da5cb5b146101bb5780639da42bac146101d957600080fd5b80633411dbdc146100c75780633b716452146101045780633bbed4a01461012457806344bd37651461014657806366d003ac146101665780636c19e78314610186575b600080fd5b3480156100d357600080fd5b506004546100e7906001600160a01b031681565b6040516001600160a01b0390911681526020015b60405180910390f35b34801561011057600080fd5b506001546100e7906001600160a01b031681565b34801561013057600080fd5b5061014461013f366004610c82565b610279565b005b34801561015257600080fd5b50610144610161366004610ca5565b6102ce565b34801561017257600080fd5b506003546100e7906001600160a01b031681565b34801561019257600080fd5b506101446101a1366004610c82565b61034a565b3480156101b257600080fd5b50610144610396565b3480156101c757600080fd5b506000546001600160a01b03166100e7565b3480156101e557600080fd5b506101f96101f4366004610d7a565b6103cc565b6040516100fb91906113ff565b34801561021257600080fd5b506101f9610221366004610d0c565b6104cf565b6101f9610234366004610db9565b610561565b34801561024557600080fd5b50610144610254366004610efc565b610671565b34801561026557600080fd5b50610144610274366004610c82565b610795565b6000546001600160a01b031633146102ac5760405162461bcd60e51b81526004016102a3906110ef565b60405180910390fd5b600380546001600160a01b0319166001600160a01b0392909216919091179055565b6000546001600160a01b031633146102f85760405162461bcd60e51b81526004016102a3906110ef565b600180546001600160a01b038088166001600160a01b031992831617909255600286905560048054868416908316179055600380549285169290911691909117905561034381610795565b5050505050565b6000546001600160a01b031633146103745760405162461bcd60e51b81526004016102a3906110ef565b600480546001600160a01b0319166001600160a01b0392909216919091179055565b6000546001600160a01b031633146103c05760405162461bcd60e51b81526004016102a3906110ef565b6103ca6000610830565b565b6103d4610b9c565b6004546001600160a01b03163314610444576000610412856040516020016103fc9190611192565b6040516020818303038152906040528585610880565b6004549091506001600160a01b038083169116146104425760405162461bcd60e51b81526004016102a3906110b8565b505b6001546040516301362a3560e71b81526001600160a01b0390911690639b151a8090610474908790600401611192565b61020060405180830381600087803b15801561048f57600080fd5b505af11580156104a3573d6000803e3d6000fd5b505050506040513d601f19601f820116820180604052508101906104c79190610df8565b949350505050565b6104d7610b9c565b6004546001600160a01b031633146105315760006104ff856040516020016103fc9190611124565b6004549091506001600160a01b0380831691161461052f5760405162461bcd60e51b81526004016102a3906110b8565b505b600154604051635f48d15d60e11b81526001600160a01b039091169063be91a2ba90610474908790600401611124565b610569610b9c565b6004546001600160a01b031633146105c3576000610591856040516020016103fc919061122e565b6004549091506001600160a01b038083169116146105c15760405162461bcd60e51b81526004016102a3906110b8565b505b6001546001600160a01b031663d94593726105f46105e760a0880160808901610c82565b6001600160a01b03161590565b6105ff576000610601565b345b866040518363ffffffff1660e01b815260040161061e919061122e565b610200604051808303818588803b15801561063857600080fd5b505af115801561064c573d6000803e3d6000fd5b50505050506040513d601f19601f820116820180604052508101906104c79190610df8565b6004546001600160a01b0316331461071f5760408051608080820183528682526001600160a01b0386811660208085019182526002548587019081526004548416606080880191825288519384018d90529351851697830197909752519181019190915293511690830152906000906106ec9060a0016103fc565b6004549091506001600160a01b0380831691161461071c5760405162461bcd60e51b81526004016102a3906110b8565b50505b600154600354604051633cc6af3160e21b8152600481018790526001600160a01b038681166024830152918216604482015291169063f31abcc490606401600060405180830381600087803b15801561077757600080fd5b505af115801561078b573d6000803e3d6000fd5b5050505050505050565b6000546001600160a01b031633146107bf5760405162461bcd60e51b81526004016102a3906110ef565b6001600160a01b0381166108245760405162461bcd60e51b815260206004820152602660248201527f4f776e61626c653a206e6577206f776e657220697320746865207a65726f206160448201526564647265737360d01b60648201526084016102a3565b61082d81610830565b50565b600080546001600160a01b038381166001600160a01b0319831681178455604051919092169283917f8be0079c531659141344cd1fd0a4f28419497f9722a3daafe3b4186f6b6457e09190a35050565b60006104c76108e385805190602001206040517f19457468657265756d205369676e6564204d6573736167653a0a3332000000006020820152603c8101829052600090605c01604051602081830303815290604052805190602001209050919050565b84848080601f01602080910402602001604051908101604052809392919081815260200183838082843760009201919091525061091f92505050565b60008151604114156109535760208201516040830151606084015160001a610949868285856109c9565b93505050506109c3565b81516040141561097b5760208201516040830151610972858383610b72565b925050506109c3565b60405162461bcd60e51b815260206004820152601f60248201527f45434453413a20696e76616c6964207369676e6174757265206c656e6774680060448201526064016102a3565b92915050565b60007f7fffffffffffffffffffffffffffffff5d576e7357a4501ddfe92f46681b20a0821115610a465760405162461bcd60e51b815260206004820152602260248201527f45434453413a20696e76616c6964207369676e6174757265202773272076616c604482015261756560f01b60648201526084016102a3565b8360ff16601b1480610a5b57508360ff16601c145b610ab25760405162461bcd60e51b815260206004820152602260248201527f45434453413a20696e76616c6964207369676e6174757265202776272076616c604482015261756560f01b60648201526084016102a3565b6040805160008082526020820180845288905260ff871692820192909252606081018590526080810184905260019060a0016020604051602081039080840390855afa158015610b06573d6000803e3d6000fd5b5050604051601f1901519150506001600160a01b038116610b695760405162461bcd60e51b815260206004820152601860248201527f45434453413a20696e76616c6964207369676e6174757265000000000000000060448201526064016102a3565b95945050505050565b60006001600160ff1b03821660ff83901c601b01610b92868287856109c9565b9695505050505050565b6040805161020081018252600080825260208201819052918101829052606081018290526080810182905260a0810182905260c0810182905260e08101829052610100810182905261012081018290526101408101829052610160810182905261018081018290526101a081018290526101c081018290526101e081019190915290565b8035610c2b816115b3565b919050565b8051610c2b816115b3565b60008083601f840112610c4c578182fd5b50813567ffffffffffffffff811115610c63578182fd5b602083019150836020828501011115610c7b57600080fd5b9250929050565b600060208284031215610c93578081fd5b8135610c9e816115b3565b9392505050565b600080600080600060a08688031215610cbc578081fd5b8535610cc7816115b3565b9450602086013593506040860135610cde816115b3565b92506060860135610cee816115b3565b91506080860135610cfe816115b3565b809150509295509295909350565b600080600060408486031215610d20578283fd5b833567ffffffffffffffff80821115610d37578485fd5b908501906102408288031215610d4b578485fd5b90935060208501359080821115610d60578384fd5b50610d6d86828701610c3b565b9497909650939450505050565b600080600060408486031215610d8e578283fd5b833567ffffffffffffffff80821115610da5578485fd5b908501906102808288031215610d4b578485fd5b600080600060408486031215610dcd578283fd5b833567ffffffffffffffff80821115610de4578485fd5b908501906102608288031215610d4b578485fd5b60006102008284031215610e0a578081fd5b610e12611536565b610e1b83610c30565b8152610e2960208401610c30565b6020820152610e3a60408401610c30565b6040820152610e4b60608401610c30565b6060820152610e5c60808401610c30565b6080820152610e6d60a08401610c30565b60a0820152610e7e60c08401610c30565b60c0820152610e8f60e08401610c30565b60e0820152610100610ea2818501610c30565b9082015261012083810151908201526101408084015190820152610160808401519082015261018080840151908201526101a080840151908201526101c080840151908201526101e0928301519281019290925250919050565b60008060008060608587031215610f11578384fd5b843593506020850135610f23816115b3565b9250604085013567ffffffffffffffff811115610f3e578283fd5b610f4a87828801610c3b565b95989497509550505050565b81835281816020850137506000828201602090810191909152601f909101601f19169091010190565b610f9982610f8c83610c20565b6001600160a01b03169052565b610fa560208201610c20565b6001600160a01b03166020830152610fbf60408201610c20565b6001600160a01b03166040830152610fd960608201610c20565b6001600160a01b03166060830152610ff360808201610c20565b6001600160a01b0316608083015261100d60a08201610c20565b6001600160a01b031660a083015261102760c08201610c20565b6001600160a01b031660c083015261104160e08201610c20565b6001600160a01b031660e083015261010061105d828201610c20565b6001600160a01b03169083015261012081810135908301526101408082013590830152610160808201359083015261018080820135908301526101a080820135908301526101c080820135908301526101e090810135910152565b6020808252601d908201527f526f75746572207369676e6174757265206973206e6f742076616c6964000000604082015260600190565b6020808252818101527f4f776e61626c653a2063616c6c6572206973206e6f7420746865206f776e6572604082015260600190565b602081526111356020820183610f7f565b600061114561020084018461156e565b610240610220818187015261115f61026087018486610f56565b935061116d8188018861156e565b878603601f19018489015293509050611187848483610f56565b979650505050505050565b602081526111a36020820183610f7f565b6000610220610200840135818401526111be8185018561156e565b915061028061024081818701526111da6102a087018585610f56565b93506111e88188018861156e565b93509050601f19610260818887030181890152611206868685610f56565b9550611214818a018a61156e565b955092505080878603018388015250611187848483610f56565b6020815261124260208201610f8c84610c20565b600061125060208401610c20565b6001600160a01b03811660408401525061126c60408401610c20565b6001600160a01b03811660608401525061128860608401610c20565b6001600160a01b0381166080840152506112a460808401610c20565b6001600160a01b03811660a0840152506112c060a08401610c20565b6001600160a01b03811660c0840152506112dc60c08401610c20565b6001600160a01b03811660e0840152506112f860e08401610c20565b61010061130f818501836001600160a01b03169052565b61131a818601610c20565b915050610120611334818501836001600160a01b03169052565b6101409150808501358285015250610160818501358185015261018091508085013582850152506101a081850135818501526101c091508085013582850152506101e0818501358185015261138b8186018661156e565b9250905061026061020081818701526113a961028087018585610f56565b93506113b78188018861156e565b93509050601f196102208188870301818901526113d5868685610f56565b95506113e3818a018a61156e565b9550925050610240818887030181890152611206868685610f56565b81516001600160a01b031681526102008101602083015161142b60208401826001600160a01b03169052565b50604083015161144660408401826001600160a01b03169052565b50606083015161146160608401826001600160a01b03169052565b50608083015161147c60808401826001600160a01b03169052565b5060a083015161149760a08401826001600160a01b03169052565b5060c08301516114b260c08401826001600160a01b03169052565b5060e08301516114cd60e08401826001600160a01b03169052565b50610100838101516001600160a01b03169083015261012080840151908301526101408084015190830152610160808401519083015261018080840151908301526101a080840151908301526101c080840151908301526101e092830151929091019190915290565b604051610200810167ffffffffffffffff8111828210171561156857634e487b7160e01b600052604160045260246000fd5b60405290565b6000808335601e19843603018112611584578283fd5b830160208101925035905067ffffffffffffffff8111156115a457600080fd5b803603831315610c7b57600080fd5b6001600160a01b038116811461082d57600080fdfea264697066735822122016891bafd9e864bd2ce5f85bcf275e1ba2834ca36aba241de5601c16917c02bf64736f6c63430008040033a2646970667358221220083cce5d96d3bb60820a1c1ad4b8089293789c4998cdf030b9c74bd33593b61664736f6c63430008040033",
  "devdoc": {
    "kind": "dev",
    "methods": {
      "createRouter(address,address)": {
        "params": {
          "recipient": "address recipient",
          "routerSigner": "address router signer"
        }
      },
      "getRouterAddress(address)": {
        "params": {
          "routerSigner": "address router signer"
        }
      },
      "owner()": {
        "details": "Returns the address of the current owner."
      },
      "renounceOwnership()": {
        "details": "Leaves the contract without owner. It will not be possible to call `onlyOwner` functions anymore. Can only be called by the current owner. NOTE: Renouncing ownership will leave the contract without an owner, thereby removing any functionality that is only available to the owner."
      },
      "transferOwnership(address)": {
        "details": "Transfers ownership of the contract to a new account (`newOwner`). Can only be called by the current owner."
      }
    },
    "stateVariables": {
      "chainId": {
        "details": "The stored chain id of the contract, may be passed in to avoid any      evm issues"
      },
      "routerAddresses": {
        "details": "Mapping of routerSigner to created Router contract address"
      },
      "transactionManager": {
        "details": "The transaction Manager contract"
      }
    },
    "version": 1
  },
  "userdoc": {
    "kind": "user",
    "methods": {
      "createRouter(address,address)": {
        "notice": "Allows us to create new router contract"
      },
      "getRouterAddress(address)": {
        "notice": "Allows us to get the address for a new router contract created via `createRouter`"
      }
    },
    "version": 1
  },
  "storageLayout": {
    "storage": [
      {
        "astId": 7,
        "contract": "contracts/RouterFactory.sol:RouterFactory",
        "label": "_owner",
        "offset": 0,
        "slot": "0",
        "type": "t_address"
      },
      {
        "astId": 3345,
        "contract": "contracts/RouterFactory.sol:RouterFactory",
        "label": "chainId",
        "offset": 0,
        "slot": "1",
        "type": "t_uint256"
      },
      {
        "astId": 3349,
        "contract": "contracts/RouterFactory.sol:RouterFactory",
        "label": "transactionManager",
        "offset": 0,
        "slot": "2",
        "type": "t_contract(ITransactionManager)5642"
      },
      {
        "astId": 3354,
        "contract": "contracts/RouterFactory.sol:RouterFactory",
        "label": "routerAddresses",
        "offset": 0,
        "slot": "3",
        "type": "t_mapping(t_address,t_address)"
      }
    ],
    "types": {
      "t_address": {
        "encoding": "inplace",
        "label": "address",
        "numberOfBytes": "20"
      },
      "t_contract(ITransactionManager)5642": {
        "encoding": "inplace",
        "label": "contract ITransactionManager",
        "numberOfBytes": "20"
      },
      "t_mapping(t_address,t_address)": {
        "encoding": "mapping",
        "key": "t_address",
        "label": "mapping(address => address)",
        "numberOfBytes": "32",
        "value": "t_address"
      },
      "t_uint256": {
        "encoding": "inplace",
        "label": "uint256",
        "numberOfBytes": "32"
      }
    }
  }
}