{
  "address": "0x0E110a35D452f342c8C7A402B7D52e1b7E0F3132",
  "abi": [
    {
      "inputs": [
        {
          "internalType": "uint256",
          "name": "_chainId",
          "type": "uint256"
        },
        {
          "internalType": "address",
          "name": "_interpreter",
          "type": "address"
        }
      ],
      "stateMutability": "nonpayable",
      "type": "constructor"
    },
    {
      "anonymous": false,
      "inputs": [
        {
          "indexed": true,
          "internalType": "address",
          "name": "router",
          "type": "address"
        },
        {
          "indexed": true,
          "internalType": "address",
          "name": "assetId",
          "type": "address"
        },
        {
          "indexed": false,
          "internalType": "uint256",
          "name": "amount",
          "type": "uint256"
        },
        {
          "indexed": false,
          "internalType": "address",
          "name": "caller",
          "type": "address"
        }
      ],
      "name": "LiquidityAdded",
      "type": "event"
    },
    {
      "anonymous": false,
      "inputs": [
        {
          "indexed": true,
          "internalType": "address",
          "name": "router",
          "type": "address"
        },
        {
          "indexed": true,
          "internalType": "address",
          "name": "assetId",
          "type": "address"
        },
        {
          "indexed": false,
          "internalType": "uint256",
          "name": "shares",
          "type": "uint256"
        },
        {
          "indexed": false,
          "internalType": "uint256",
          "name": "amount",
          "type": "uint256"
        },
        {
          "indexed": false,
          "internalType": "address",
          "name": "recipient",
          "type": "address"
        }
      ],
      "name": "LiquidityRemoved",
      "type": "event"
    },
    {
      "anonymous": false,
      "inputs": [
        {
          "indexed": true,
          "internalType": "address",
          "name": "previousOwner",
          "type": "address"
        },
        {
          "indexed": true,
          "internalType": "address",
          "name": "newOwner",
          "type": "address"
        }
      ],
      "name": "OwnershipTransferred",
      "type": "event"
    },
    {
      "anonymous": false,
      "inputs": [
        {
          "indexed": true,
          "internalType": "address",
          "name": "user",
          "type": "address"
        },
        {
          "indexed": true,
          "internalType": "address",
          "name": "router",
          "type": "address"
        },
        {
          "indexed": true,
          "internalType": "bytes32",
          "name": "transactionId",
          "type": "bytes32"
        },
        {
          "components": [
            {
              "internalType": "address",
              "name": "user",
              "type": "address"
            },
            {
              "internalType": "address",
              "name": "router",
              "type": "address"
            },
            {
              "internalType": "address",
              "name": "sendingAssetId",
              "type": "address"
            },
            {
              "internalType": "address",
              "name": "receivingAssetId",
              "type": "address"
            },
            {
              "internalType": "address",
              "name": "sendingChainFallback",
              "type": "address"
            },
            {
              "internalType": "address",
              "name": "receivingAddress",
              "type": "address"
            },
            {
              "internalType": "address",
              "name": "callTo",
              "type": "address"
            },
            {
              "internalType": "bytes32",
              "name": "callDataHash",
              "type": "bytes32"
            },
            {
              "internalType": "bytes32",
              "name": "transactionId",
              "type": "bytes32"
            },
            {
              "internalType": "uint256",
              "name": "sendingChainId",
              "type": "uint256"
            },
            {
              "internalType": "uint256",
              "name": "receivingChainId",
              "type": "uint256"
            },
            {
              "internalType": "uint256",
              "name": "shares",
              "type": "uint256"
            },
            {
              "internalType": "uint256",
              "name": "expiry",
              "type": "uint256"
            },
            {
              "internalType": "uint256",
              "name": "preparedBlockNumber",
              "type": "uint256"
            }
          ],
          "indexed": false,
          "internalType": "struct ITransactionManager.TransactionData",
          "name": "txData",
          "type": "tuple"
        },
        {
          "indexed": false,
          "internalType": "uint256",
          "name": "amount",
          "type": "uint256"
        },
        {
          "indexed": false,
          "internalType": "uint256",
          "name": "relayerFee",
          "type": "uint256"
        },
        {
          "indexed": false,
          "internalType": "address",
          "name": "caller",
          "type": "address"
        }
      ],
      "name": "TransactionCancelled",
      "type": "event"
    },
    {
      "anonymous": false,
      "inputs": [
        {
          "indexed": true,
          "internalType": "address",
          "name": "user",
          "type": "address"
        },
        {
          "indexed": true,
          "internalType": "address",
          "name": "router",
          "type": "address"
        },
        {
          "indexed": true,
          "internalType": "bytes32",
          "name": "transactionId",
          "type": "bytes32"
        },
        {
          "components": [
            {
              "internalType": "address",
              "name": "user",
              "type": "address"
            },
            {
              "internalType": "address",
              "name": "router",
              "type": "address"
            },
            {
              "internalType": "address",
              "name": "sendingAssetId",
              "type": "address"
            },
            {
              "internalType": "address",
              "name": "receivingAssetId",
              "type": "address"
            },
            {
              "internalType": "address",
              "name": "sendingChainFallback",
              "type": "address"
            },
            {
              "internalType": "address",
              "name": "receivingAddress",
              "type": "address"
            },
            {
              "internalType": "address",
              "name": "callTo",
              "type": "address"
            },
            {
              "internalType": "bytes32",
              "name": "callDataHash",
              "type": "bytes32"
            },
            {
              "internalType": "bytes32",
              "name": "transactionId",
              "type": "bytes32"
            },
            {
              "internalType": "uint256",
              "name": "sendingChainId",
              "type": "uint256"
            },
            {
              "internalType": "uint256",
              "name": "receivingChainId",
              "type": "uint256"
            },
            {
              "internalType": "uint256",
              "name": "shares",
              "type": "uint256"
            },
            {
              "internalType": "uint256",
              "name": "expiry",
              "type": "uint256"
            },
            {
              "internalType": "uint256",
              "name": "preparedBlockNumber",
              "type": "uint256"
            }
          ],
          "indexed": false,
          "internalType": "struct ITransactionManager.TransactionData",
          "name": "txData",
          "type": "tuple"
        },
        {
          "indexed": false,
          "internalType": "uint256",
          "name": "amount",
          "type": "uint256"
        },
        {
          "indexed": false,
          "internalType": "uint256",
          "name": "relayerFee",
          "type": "uint256"
        },
        {
          "indexed": false,
          "internalType": "bytes",
          "name": "signature",
          "type": "bytes"
        },
        {
          "indexed": false,
          "internalType": "bytes",
          "name": "callData",
          "type": "bytes"
        },
        {
          "indexed": false,
          "internalType": "address",
          "name": "caller",
          "type": "address"
        }
      ],
      "name": "TransactionFulfilled",
      "type": "event"
    },
    {
      "anonymous": false,
      "inputs": [
        {
          "indexed": true,
          "internalType": "address",
          "name": "user",
          "type": "address"
        },
        {
          "indexed": true,
          "internalType": "address",
          "name": "router",
          "type": "address"
        },
        {
          "indexed": true,
          "internalType": "bytes32",
          "name": "transactionId",
          "type": "bytes32"
        },
        {
          "components": [
            {
              "internalType": "address",
              "name": "user",
              "type": "address"
            },
            {
              "internalType": "address",
              "name": "router",
              "type": "address"
            },
            {
              "internalType": "address",
              "name": "sendingAssetId",
              "type": "address"
            },
            {
              "internalType": "address",
              "name": "receivingAssetId",
              "type": "address"
            },
            {
              "internalType": "address",
              "name": "sendingChainFallback",
              "type": "address"
            },
            {
              "internalType": "address",
              "name": "receivingAddress",
              "type": "address"
            },
            {
              "internalType": "address",
              "name": "callTo",
              "type": "address"
            },
            {
              "internalType": "bytes32",
              "name": "callDataHash",
              "type": "bytes32"
            },
            {
              "internalType": "bytes32",
              "name": "transactionId",
              "type": "bytes32"
            },
            {
              "internalType": "uint256",
              "name": "sendingChainId",
              "type": "uint256"
            },
            {
              "internalType": "uint256",
              "name": "receivingChainId",
              "type": "uint256"
            },
            {
              "internalType": "uint256",
              "name": "shares",
              "type": "uint256"
            },
            {
              "internalType": "uint256",
              "name": "expiry",
              "type": "uint256"
            },
            {
              "internalType": "uint256",
              "name": "preparedBlockNumber",
              "type": "uint256"
            }
          ],
          "indexed": false,
          "internalType": "struct ITransactionManager.TransactionData",
          "name": "txData",
          "type": "tuple"
        },
        {
          "indexed": false,
          "internalType": "uint256",
          "name": "amount",
          "type": "uint256"
        },
        {
          "indexed": false,
          "internalType": "address",
          "name": "caller",
          "type": "address"
        },
        {
          "indexed": false,
          "internalType": "bytes",
          "name": "encryptedCallData",
          "type": "bytes"
        },
        {
          "indexed": false,
          "internalType": "bytes",
          "name": "encodedBid",
          "type": "bytes"
        },
        {
          "indexed": false,
          "internalType": "bytes",
          "name": "bidSignature",
          "type": "bytes"
        }
      ],
      "name": "TransactionPrepared",
      "type": "event"
    },
    {
      "inputs": [],
      "name": "MAX_TIMEOUT",
      "outputs": [
        {
          "internalType": "uint256",
          "name": "",
          "type": "uint256"
        }
      ],
      "stateMutability": "view",
      "type": "function"
    },
    {
      "inputs": [],
      "name": "MIN_TIMEOUT",
      "outputs": [
        {
          "internalType": "uint256",
          "name": "",
          "type": "uint256"
        }
      ],
      "stateMutability": "view",
      "type": "function"
    },
    {
      "inputs": [
        {
          "internalType": "address",
          "name": "assetId",
          "type": "address"
        }
      ],
      "name": "addAssetId",
      "outputs": [],
      "stateMutability": "nonpayable",
      "type": "function"
    },
    {
      "inputs": [
        {
          "internalType": "uint256",
          "name": "amount",
          "type": "uint256"
        },
        {
          "internalType": "address",
          "name": "assetId",
          "type": "address"
        },
        {
          "internalType": "address",
          "name": "router",
          "type": "address"
        }
      ],
      "name": "addLiquidity",
      "outputs": [],
      "stateMutability": "payable",
      "type": "function"
    },
    {
      "inputs": [
        {
          "internalType": "address",
          "name": "router",
          "type": "address"
        }
      ],
      "name": "addRouter",
      "outputs": [],
      "stateMutability": "nonpayable",
      "type": "function"
    },
    {
      "inputs": [
        {
          "internalType": "address",
          "name": "",
          "type": "address"
        }
      ],
      "name": "approvedAssets",
      "outputs": [
        {
          "internalType": "bool",
          "name": "",
          "type": "bool"
        }
      ],
      "stateMutability": "view",
      "type": "function"
    },
    {
      "inputs": [
        {
          "internalType": "address",
          "name": "",
          "type": "address"
        }
      ],
      "name": "approvedRouters",
      "outputs": [
        {
          "internalType": "bool",
          "name": "",
          "type": "bool"
        }
      ],
      "stateMutability": "view",
      "type": "function"
    },
    {
      "inputs": [
        {
          "components": [
            {
              "internalType": "address",
              "name": "user",
              "type": "address"
            },
            {
              "internalType": "address",
              "name": "router",
              "type": "address"
            },
            {
              "internalType": "address",
              "name": "sendingAssetId",
              "type": "address"
            },
            {
              "internalType": "address",
              "name": "receivingAssetId",
              "type": "address"
            },
            {
              "internalType": "address",
              "name": "sendingChainFallback",
              "type": "address"
            },
            {
              "internalType": "address",
              "name": "receivingAddress",
              "type": "address"
            },
            {
              "internalType": "address",
              "name": "callTo",
              "type": "address"
            },
            {
              "internalType": "bytes32",
              "name": "callDataHash",
              "type": "bytes32"
            },
            {
              "internalType": "bytes32",
              "name": "transactionId",
              "type": "bytes32"
            },
            {
              "internalType": "uint256",
              "name": "sendingChainId",
              "type": "uint256"
            },
            {
              "internalType": "uint256",
              "name": "receivingChainId",
              "type": "uint256"
            },
            {
              "internalType": "uint256",
              "name": "shares",
              "type": "uint256"
            },
            {
              "internalType": "uint256",
              "name": "expiry",
              "type": "uint256"
            },
            {
              "internalType": "uint256",
              "name": "preparedBlockNumber",
              "type": "uint256"
            }
          ],
          "internalType": "struct ITransactionManager.TransactionData",
          "name": "txData",
          "type": "tuple"
        },
        {
          "internalType": "uint256",
          "name": "relayerFee",
          "type": "uint256"
        },
        {
          "internalType": "bytes",
          "name": "signature",
          "type": "bytes"
        }
      ],
      "name": "cancel",
      "outputs": [
        {
          "components": [
            {
              "internalType": "address",
              "name": "user",
              "type": "address"
            },
            {
              "internalType": "address",
              "name": "router",
              "type": "address"
            },
            {
              "internalType": "address",
              "name": "sendingAssetId",
              "type": "address"
            },
            {
              "internalType": "address",
              "name": "receivingAssetId",
              "type": "address"
            },
            {
              "internalType": "address",
              "name": "sendingChainFallback",
              "type": "address"
            },
            {
              "internalType": "address",
              "name": "receivingAddress",
              "type": "address"
            },
            {
              "internalType": "address",
              "name": "callTo",
              "type": "address"
            },
            {
              "internalType": "bytes32",
              "name": "callDataHash",
              "type": "bytes32"
            },
            {
              "internalType": "bytes32",
              "name": "transactionId",
              "type": "bytes32"
            },
            {
              "internalType": "uint256",
              "name": "sendingChainId",
              "type": "uint256"
            },
            {
              "internalType": "uint256",
              "name": "receivingChainId",
              "type": "uint256"
            },
            {
              "internalType": "uint256",
              "name": "shares",
              "type": "uint256"
            },
            {
              "internalType": "uint256",
              "name": "expiry",
              "type": "uint256"
            },
            {
              "internalType": "uint256",
              "name": "preparedBlockNumber",
              "type": "uint256"
            }
          ],
          "internalType": "struct ITransactionManager.TransactionData",
          "name": "",
          "type": "tuple"
        }
      ],
      "stateMutability": "nonpayable",
      "type": "function"
    },
    {
      "inputs": [],
      "name": "chainId",
      "outputs": [
        {
          "internalType": "uint256",
          "name": "",
          "type": "uint256"
        }
      ],
      "stateMutability": "view",
      "type": "function"
    },
    {
      "inputs": [
        {
          "components": [
            {
              "internalType": "address",
              "name": "user",
              "type": "address"
            },
            {
              "internalType": "address",
              "name": "router",
              "type": "address"
            },
            {
              "internalType": "address",
              "name": "sendingAssetId",
              "type": "address"
            },
            {
              "internalType": "address",
              "name": "receivingAssetId",
              "type": "address"
            },
            {
              "internalType": "address",
              "name": "sendingChainFallback",
              "type": "address"
            },
            {
              "internalType": "address",
              "name": "receivingAddress",
              "type": "address"
            },
            {
              "internalType": "address",
              "name": "callTo",
              "type": "address"
            },
            {
              "internalType": "bytes32",
              "name": "callDataHash",
              "type": "bytes32"
            },
            {
              "internalType": "bytes32",
              "name": "transactionId",
              "type": "bytes32"
            },
            {
              "internalType": "uint256",
              "name": "sendingChainId",
              "type": "uint256"
            },
            {
              "internalType": "uint256",
              "name": "receivingChainId",
              "type": "uint256"
            },
            {
              "internalType": "uint256",
              "name": "shares",
              "type": "uint256"
            },
            {
              "internalType": "uint256",
              "name": "expiry",
              "type": "uint256"
            },
            {
              "internalType": "uint256",
              "name": "preparedBlockNumber",
              "type": "uint256"
            }
          ],
          "internalType": "struct ITransactionManager.TransactionData",
          "name": "txData",
          "type": "tuple"
        },
        {
          "internalType": "uint256",
          "name": "relayerFee",
          "type": "uint256"
        },
        {
          "internalType": "bytes",
          "name": "signature",
          "type": "bytes"
        },
        {
          "internalType": "bytes",
          "name": "callData",
          "type": "bytes"
        }
      ],
      "name": "fulfill",
      "outputs": [
        {
          "components": [
            {
              "internalType": "address",
              "name": "user",
              "type": "address"
            },
            {
              "internalType": "address",
              "name": "router",
              "type": "address"
            },
            {
              "internalType": "address",
              "name": "sendingAssetId",
              "type": "address"
            },
            {
              "internalType": "address",
              "name": "receivingAssetId",
              "type": "address"
            },
            {
              "internalType": "address",
              "name": "sendingChainFallback",
              "type": "address"
            },
            {
              "internalType": "address",
              "name": "receivingAddress",
              "type": "address"
            },
            {
              "internalType": "address",
              "name": "callTo",
              "type": "address"
            },
            {
              "internalType": "bytes32",
              "name": "callDataHash",
              "type": "bytes32"
            },
            {
              "internalType": "bytes32",
              "name": "transactionId",
              "type": "bytes32"
            },
            {
              "internalType": "uint256",
              "name": "sendingChainId",
              "type": "uint256"
            },
            {
              "internalType": "uint256",
              "name": "receivingChainId",
              "type": "uint256"
            },
            {
              "internalType": "uint256",
              "name": "shares",
              "type": "uint256"
            },
            {
              "internalType": "uint256",
              "name": "expiry",
              "type": "uint256"
            },
            {
              "internalType": "uint256",
              "name": "preparedBlockNumber",
              "type": "uint256"
            }
          ],
          "internalType": "struct ITransactionManager.TransactionData",
          "name": "",
          "type": "tuple"
        }
      ],
      "stateMutability": "nonpayable",
      "type": "function"
    },
    {
      "inputs": [
        {
          "internalType": "address",
          "name": "assetId",
          "type": "address"
        },
        {
          "internalType": "uint256",
          "name": "shares",
          "type": "uint256"
        }
      ],
      "name": "getAmountFromShares",
      "outputs": [
        {
          "internalType": "uint256",
          "name": "",
          "type": "uint256"
        }
      ],
      "stateMutability": "view",
      "type": "function"
    },
    {
      "inputs": [
        {
          "internalType": "address",
          "name": "router",
          "type": "address"
        },
        {
          "internalType": "address",
          "name": "assetId",
          "type": "address"
        }
      ],
      "name": "getRouterBalance",
      "outputs": [
        {
          "internalType": "uint256",
          "name": "",
          "type": "uint256"
        }
      ],
      "stateMutability": "view",
      "type": "function"
    },
    {
      "inputs": [
        {
          "internalType": "address",
          "name": "",
          "type": "address"
        },
        {
          "internalType": "address",
          "name": "",
          "type": "address"
        }
      ],
      "name": "issuedShares",
      "outputs": [
        {
          "internalType": "uint256",
          "name": "",
          "type": "uint256"
        }
      ],
      "stateMutability": "view",
      "type": "function"
    },
    {
      "inputs": [
        {
          "internalType": "address",
          "name": "",
          "type": "address"
        }
      ],
      "name": "outstandingShares",
      "outputs": [
        {
          "internalType": "uint256",
          "name": "",
          "type": "uint256"
        }
      ],
      "stateMutability": "view",
      "type": "function"
    },
    {
      "inputs": [],
      "name": "owner",
      "outputs": [
        {
          "internalType": "address",
          "name": "",
          "type": "address"
        }
      ],
      "stateMutability": "view",
      "type": "function"
    },
    {
      "inputs": [
        {
          "components": [
            {
              "internalType": "address",
              "name": "user",
              "type": "address"
            },
            {
              "internalType": "address",
              "name": "router",
              "type": "address"
            },
            {
              "internalType": "address",
              "name": "sendingAssetId",
              "type": "address"
            },
            {
              "internalType": "address",
              "name": "receivingAssetId",
              "type": "address"
            },
            {
              "internalType": "address",
              "name": "sendingChainFallback",
              "type": "address"
            },
            {
              "internalType": "address",
              "name": "receivingAddress",
              "type": "address"
            },
            {
              "internalType": "address",
              "name": "callTo",
              "type": "address"
            },
            {
              "internalType": "uint256",
              "name": "sendingChainId",
              "type": "uint256"
            },
            {
              "internalType": "uint256",
              "name": "receivingChainId",
              "type": "uint256"
            },
            {
              "internalType": "bytes32",
              "name": "callDataHash",
              "type": "bytes32"
            },
            {
              "internalType": "bytes32",
              "name": "transactionId",
              "type": "bytes32"
            }
          ],
          "internalType": "struct ITransactionManager.InvariantTransactionData",
          "name": "invariantData",
          "type": "tuple"
        },
        {
          "internalType": "uint256",
          "name": "amount",
          "type": "uint256"
        },
        {
          "internalType": "uint256",
          "name": "expiry",
          "type": "uint256"
        },
        {
          "internalType": "bytes",
          "name": "encryptedCallData",
          "type": "bytes"
        },
        {
          "internalType": "bytes",
          "name": "encodedBid",
          "type": "bytes"
        },
        {
          "internalType": "bytes",
          "name": "bidSignature",
          "type": "bytes"
        }
      ],
      "name": "prepare",
      "outputs": [
        {
          "components": [
            {
              "internalType": "address",
              "name": "user",
              "type": "address"
            },
            {
              "internalType": "address",
              "name": "router",
              "type": "address"
            },
            {
              "internalType": "address",
              "name": "sendingAssetId",
              "type": "address"
            },
            {
              "internalType": "address",
              "name": "receivingAssetId",
              "type": "address"
            },
            {
              "internalType": "address",
              "name": "sendingChainFallback",
              "type": "address"
            },
            {
              "internalType": "address",
              "name": "receivingAddress",
              "type": "address"
            },
            {
              "internalType": "address",
              "name": "callTo",
              "type": "address"
            },
            {
              "internalType": "bytes32",
              "name": "callDataHash",
              "type": "bytes32"
            },
            {
              "internalType": "bytes32",
              "name": "transactionId",
              "type": "bytes32"
            },
            {
              "internalType": "uint256",
              "name": "sendingChainId",
              "type": "uint256"
            },
            {
              "internalType": "uint256",
              "name": "receivingChainId",
              "type": "uint256"
            },
            {
              "internalType": "uint256",
              "name": "shares",
              "type": "uint256"
            },
            {
              "internalType": "uint256",
              "name": "expiry",
              "type": "uint256"
            },
            {
              "internalType": "uint256",
              "name": "preparedBlockNumber",
              "type": "uint256"
            }
          ],
          "internalType": "struct ITransactionManager.TransactionData",
          "name": "",
          "type": "tuple"
        }
      ],
      "stateMutability": "payable",
      "type": "function"
    },
    {
      "inputs": [
        {
          "internalType": "address",
          "name": "assetId",
          "type": "address"
        }
      ],
      "name": "removeAssetId",
      "outputs": [],
      "stateMutability": "nonpayable",
      "type": "function"
    },
    {
      "inputs": [
        {
          "internalType": "uint256",
          "name": "shares",
          "type": "uint256"
        },
        {
          "internalType": "address",
          "name": "assetId",
          "type": "address"
        },
        {
          "internalType": "address payable",
          "name": "recipient",
          "type": "address"
        }
      ],
      "name": "removeLiquidity",
      "outputs": [],
      "stateMutability": "nonpayable",
      "type": "function"
    },
    {
      "inputs": [
        {
          "internalType": "address",
          "name": "router",
          "type": "address"
        }
      ],
      "name": "removeRouter",
      "outputs": [],
      "stateMutability": "nonpayable",
      "type": "function"
    },
    {
      "inputs": [],
      "name": "renounce",
      "outputs": [],
      "stateMutability": "nonpayable",
      "type": "function"
    },
    {
      "inputs": [],
      "name": "renounceOwnership",
      "outputs": [],
      "stateMutability": "nonpayable",
      "type": "function"
    },
    {
      "inputs": [],
      "name": "renounced",
      "outputs": [
        {
          "internalType": "bool",
          "name": "",
          "type": "bool"
        }
      ],
      "stateMutability": "view",
      "type": "function"
    },
    {
      "inputs": [
        {
          "internalType": "address",
          "name": "newOwner",
          "type": "address"
        }
      ],
      "name": "transferOwnership",
      "outputs": [],
      "stateMutability": "nonpayable",
      "type": "function"
    },
    {
      "inputs": [
        {
          "internalType": "bytes32",
          "name": "",
          "type": "bytes32"
        }
      ],
      "name": "variantTransactionData",
      "outputs": [
        {
          "internalType": "bytes32",
          "name": "",
          "type": "bytes32"
        }
      ],
      "stateMutability": "view",
      "type": "function"
    }
  ],
  "transactionHash": "0x215d5060b93977d0665a38e13e72514ac9e3786d24a2e9153a9a865646a5ec40",
  "args": [
    "4",
    "0xE7F28345A296Cf7ad502faEc18ad9Dadef43c385"
  ],
  "solcInputHash": "93a7b1bcc38669621dec7556fccfe3cf",
  "bytecode": "0x60a06040526006805460ff191690553480156200001b57600080fd5b5060405162003b7d38038062003b7d8339810160408190526200003e91620000cb565b60016000556200004e3362000079565b608091909152600880546001600160a01b0319166001600160a01b0390921691909117905562000108565b600180546001600160a01b038381166001600160a01b0319831681179093556040519116919082907f8be0079c531659141344cd1fd0a4f28419497f9722a3daafe3b4186f6b6457e090600090a35050565b60008060408385031215620000de578182fd5b825160208401519092506001600160a01b0381168114620000fd578182fd5b809150509250929050565b608051613a366200014760003960008181610355015281816107360152818161112a01528181611b4301528181611b700152611cce0152613a366000f3fe60806040526004361061014b5760003560e01c806397eb0088116100b6578063cc2bd6bd1161006f578063cc2bd6bd146103ec578063d232c22014610424578063de38eb3a1461043e578063f2fde38b14610455578063f31abcc414610475578063fd32af2f1461049557600080fd5b806397eb0088146103135780639a8a059214610343578063aa1470eb14610377578063b15be2f514610397578063b1d2618d146103ac578063b4238e84146103cc57600080fd5b8063543ad1df11610108578063543ad1df146102455780635d63de0e1461025c5780635e679856146102895780636ae0b154146102b6578063715018a6146102d65780638da5cb5b146102eb57600080fd5b806324ca984e1461015057806327f3cff2146101725780632893a612146101a557806334e9393c146101d2578063445b1e4b146101f25780634910630a14610232575b600080fd5b34801561015c57600080fd5b5061017061016b366004612f4b565b6104a8565b005b34801561017e57600080fd5b5061019261018d366004612f9f565b6104ff565b6040519081526020015b60405180910390f35b3480156101b157600080fd5b506101c56101c0366004613126565b610535565b60405161019c91906138a8565b3480156101de57600080fd5b506101706101ed366004612f4b565b610c15565b3480156101fe57600080fd5b5061022261020d366004612f4b565b60046020526000908152604090205460ff1681565b604051901515815260200161019c565b6101706102403660046132aa565b610c63565b34801561025157600080fd5b506101926201518081565b34801561026857600080fd5b50610192610277366004612f4b565b60036020526000908152604090205481565b34801561029557600080fd5b506101926102a4366004612fea565b60076020526000908152604090205481565b3480156102c257600080fd5b506101706102d1366004612f4b565b610ed5565b3480156102e257600080fd5b50610170610f20565b3480156102f757600080fd5b506001546040516001600160a01b03909116815260200161019c565b34801561031f57600080fd5b5061022261032e366004612f4b565b60056020526000908152604090205460ff1681565b34801561034f57600080fd5b506101927f000000000000000000000000000000000000000000000000000000000000000081565b34801561038357600080fd5b50610192610392366004612f67565b610f56565b3480156103a357600080fd5b50610170610f96565b3480156103b857600080fd5b506101706103c7366004612f4b565b610fd5565b3480156103d857600080fd5b506101c56103e73660046130ca565b611020565b3480156103f857600080fd5b50610192610407366004612f67565b600260209081526000928352604080842090915290825290205481565b34801561043057600080fd5b506006546102229060ff1681565b34801561044a57600080fd5b5061019262278d0081565b34801561046157600080fd5b50610170610470366004612f4b565b6116db565b34801561048157600080fd5b506101706104903660046132aa565b611776565b6101c56104a3366004613002565b611917565b6001546001600160a01b031633146104db5760405162461bcd60e51b81526004016104d29061356b565b60405180910390fd5b6001600160a01b03166000908152600460205260409020805460ff19166001179055565b6001600160a01b03821660009081526003602052604081205461052c9083906105278661234d565b6123e1565b90505b92915050565b61053d612e68565b600260005414156105605760405162461bcd60e51b81526004016104d2906135a0565b600260009081556105708861242a565b905061058c8861016001358961018001358a6101a00135612568565b600082815260076020526040902054146105d15760405162461bcd60e51b8152602060048201526006602482015265023463a3032360d41b60448201526064016104d2565b42886101800135101561060f5760405162461bcd60e51b815260206004820152600660248201526523463a30323160d01b60448201526064016104d2565b6000886101a001351161064d5760405162461bcd60e51b815260206004820152600660248201526511a31d18191960d11b60448201526064016104d2565b61065a6020890189612f4b565b6001600160a01b03166106748961010001358989896125b3565b6001600160a01b0316146106b35760405162461bcd60e51b815260206004820152600660248201526523463a30323360d01b60448201526064016104d2565b8760e0013584846040516106c8929190613513565b6040518091039020146107065760405162461bcd60e51b815260206004820152600660248201526523463a30323560d01b60448201526064016104d2565b61071c8861016001358961018001356000612568565b6000828152600760205260408120919091556101208901357f000000000000000000000000000000000000000000000000000000000000000014156109185761076b60408a0160208b01612f4b565b6001600160a01b0316336001600160a01b0316146107b45760405162461bcd60e51b815260206004820152600660248201526523463a30313760d01b60448201526064016104d2565b61080d6101608a0135600360006107d160608e0160408f01612f4b565b6001600160a01b03166001600160a01b03168152602001908152602001600020546105278c60400160208101906108089190612f4b565b61234d565b90506101608901356002600061082660208d018d612f4b565b6001600160a01b03166001600160a01b0316815260200190815260200160002060008b604001602081019061085b9190612f4b565b6001600160a01b03166001600160a01b03168152602001908152602001600020600082825461088a91906139be565b9091555050610160890135600260006108a960408d0160208e01612f4b565b6001600160a01b03166001600160a01b0316815260200190815260200160002060008b60400160208101906108de9190612f4b565b6001600160a01b03166001600160a01b03168152602001908152602001600020600082825461090d9190613967565b90915550610b7a9050565b6109626101608a01356003600061093560808e0160608f01612f4b565b6001600160a01b0316815260208101919091526040016000205461052761080860808e0160608f01612f4b565b90508088111561099d5760405162461bcd60e51b815260206004820152600660248201526508d18e8c0c8d60d21b60448201526064016104d2565b610160890135600360006109b760808d0160608e01612f4b565b6001600160a01b03166001600160a01b0316815260200190815260200160002060008282546109e691906139be565b90915550508781038815610a0e57610a0e610a0760808c0160608d01612f4b565b338b61268c565b6000610a2060e08c0160c08d01612f4b565b6001600160a01b03161415610a63578015610a5e57610a5e610a4860808c0160608d01612f4b565b610a5860c08d0160a08e01612f4b565b8361268c565b610b78565b610a83610a7660808c0160608d01612f4b565b6001600160a01b03161590565b158015610a905750600081115b15610aba57610aba610aa860808c0160608d01612f4b565b6008546001600160a01b0316836126b5565b6008546001600160a01b0316635b5120f7610ade610a7660808e0160608f01612f4b565b610ae9576000610aeb565b825b610afb60e08e0160c08f01612f4b565b8d6060016020810190610b0e9190612f4b565b8e60a0016020810190610b219190612f4b565b868c8c6040518863ffffffff1660e01b8152600401610b4596959493929190613523565b6000604051808303818588803b158015610b5e57600080fd5b505af1158015610b72573d6000803e3d6000fd5b50505050505b505b610100890135610b9060408b0160208c01612f4b565b6001600160a01b0316610ba660208c018c612f4b565b6001600160a01b03167fce3ecb72337f221c8404337f9c51d173d4bd90335c704371c9977e641d9102ba8c858d8d8d8d8d33604051610bec989796959493929190613842565b60405180910390a4610c03368a90038a018a6131b2565b60016000559998505050505050505050565b6001546001600160a01b03163314610c3f5760405162461bcd60e51b81526004016104d29061356b565b6001600160a01b03166000908152600560205260409020805460ff19166001179055565b60026000541415610c865760405162461bcd60e51b81526004016104d2906135a0565b60026000556001600160a01b038116610ccb5760405162461bcd60e51b815260206004820152600760248201526623414c3a30303160c81b60448201526064016104d2565b60008311610d055760405162461bcd60e51b815260206004820152600760248201526611a0a61d18181960c91b60448201526064016104d2565b60065460ff1680610d2e57506001600160a01b03811660009081526004602052604090205460ff165b610d645760405162461bcd60e51b815260206004820152600760248201526623414c3a30303360c81b60448201526064016104d2565b60065460ff1680610d8d57506001600160a01b03821660009081526005602052604090205460ff165b610dc35760405162461bcd60e51b815260206004820152600760248201526608d0530e8c0c0d60ca1b60448201526064016104d2565b6001600160a01b038216610e0f57823414610e0a5760405162461bcd60e51b815260206004820152600760248201526623414c3a30303560c81b60448201526064016104d2565b610e78565b3415610e475760405162461bcd60e51b815260206004820152600760248201526611a0a61d18181b60c91b60448201526064016104d2565b6000610e528361234d565b9050610e608333308761273d565b80610e6a8461234d565b610e7491906139be565b9350505b610e838383836127ce565b604080518481523360208201526001600160a01b0380851692908416917f4bd28ccd068c4853d24d35f727ef2a3fea11ce55e8d93461e45f785818e1e139910160405180910390a35050600160005550565b6001546001600160a01b03163314610eff5760405162461bcd60e51b81526004016104d29061356b565b6001600160a01b03166000908152600460205260409020805460ff19169055565b6001546001600160a01b03163314610f4a5760405162461bcd60e51b81526004016104d29061356b565b610f54600061283c565b565b6001600160a01b038083166000908152600260209081526040808320938516835292815282822054600390915291812054909161052c916105278561234d565b6001546001600160a01b03163314610fc05760405162461bcd60e51b81526004016104d29061356b565b6006805460ff19166001179055610f54610f20565b6001546001600160a01b03163314610fff5760405162461bcd60e51b81526004016104d29061356b565b6001600160a01b03166000908152600560205260409020805460ff19169055565b611028612e68565b6002600054141561104b5760405162461bcd60e51b81526004016104d2906135a0565b6002600090815561105b8661242a565b9050611077866101600135876101800135886101a00135612568565b600082815260076020526040902054146110bc5760405162461bcd60e51b8152602060048201526006602482015265023433a3032360d41b60448201526064016104d2565b6000866101a00135116110fa5760405162461bcd60e51b815260206004820152600660248201526511a19d18191960d11b60448201526064016104d2565b6111108661016001358761018001356000612568565b6000828152600760205260408120919091556101208701357f000000000000000000000000000000000000000000000000000000000000000014156114e9576111a36101608801356003600061116c60608c0160408d01612f4b565b6001600160a01b03166001600160a01b03168152602001908152602001600020546105278a60400160208101906108089190612f4b565b90504287610180013510611301576111c16040880160208901612f4b565b6001600160a01b0316336001600160a01b03161461120a5760405162461bcd60e51b815260206004820152600660248201526511a19d18191b60d11b60448201526064016104d2565b6101608701356002600061122160208b018b612f4b565b6001600160a01b03166001600160a01b0316815260200190815260200160002060008960400160208101906112569190612f4b565b6001600160a01b03166001600160a01b03168152602001908152602001600020600082825461128591906139be565b9091555050610160870135600360006112a460608b0160408c01612f4b565b6001600160a01b03166001600160a01b0316815260200190815260200160002060008282546112d391906139be565b909155506112fc90506112ec6060890160408a01612f4b565b610a5860a08a0160808b01612f4b565b61164a565b8086111561133a5760405162461bcd60e51b815260206004820152600660248201526508d0ce8c0c8d60d21b60448201526064016104d2565b6101608701356002600061135160208b018b612f4b565b6001600160a01b03166001600160a01b0316815260200190815260200160002060008960400160208101906113869190612f4b565b6001600160a01b03166001600160a01b0316815260200190815260200160002060008282546113b591906139be565b9091555050610160870135600360006113d460608b0160408c01612f4b565b6001600160a01b03166001600160a01b03168152602001908152602001600020600082825461140391906139be565b909155505085156114b65761141b6020880188612f4b565b6001600160a01b0316336001600160a01b0316148061146757506114426020880188612f4b565b6001600160a01b031661145c88610100013588888861288e565b6001600160a01b0316145b61149c5760405162461bcd60e51b815260206004820152600660248201526523433a30323360d01b60448201526064016104d2565b6114b66114af6060890160408a01612f4b565b338861268c565b8581038187146114e3576114e36114d360608a0160408b01612f4b565b610a5860a08b0160808c01612f4b565b5061164a565b4287610180013510611583576115026020880188612f4b565b6001600160a01b0316336001600160a01b0316148061154e57506115296020880188612f4b565b6001600160a01b031661154388610100013588888861288e565b6001600160a01b0316145b6115835760405162461bcd60e51b815260206004820152600660248201526523433a30323360d01b60448201526064016104d2565b6115cd610160880135600360006115a060808c0160608d01612f4b565b6001600160a01b0316815260208101919091526040016000205461052761080860808c0160608d01612f4b565b9050610160870135600260006115e960408b0160208c01612f4b565b6001600160a01b03168152602081019190915260400160009081209061161560808b0160608c01612f4b565b6001600160a01b03166001600160a01b0316815260200190815260200160002060008282546116449190613967565b90915550505b6101008701356116606040890160208a01612f4b565b6001600160a01b031661167660208a018a612f4b565b6001600160a01b03167f16a46118f00eb1cd3a5ee173620be331fe1b52a70edb57b8caa7b40fdf14b9988a858b336040516116b4949392919061380c565b60405180910390a46116cb368890038801886131b2565b6001600055979650505050505050565b6001546001600160a01b031633146117055760405162461bcd60e51b81526004016104d29061356b565b6001600160a01b03811661176a5760405162461bcd60e51b815260206004820152602660248201527f4f776e61626c653a206e6577206f776e657220697320746865207a65726f206160448201526564647265737360d01b60648201526084016104d2565b6117738161283c565b50565b6001600160a01b0381166117b65760405162461bcd60e51b815260206004820152600760248201526623524c3a30303760c81b60448201526064016104d2565b600083116117f05760405162461bcd60e51b8152602060048201526007602482015266046a498746064760cb1b60448201526064016104d2565b3360009081526002602090815260408083206001600160a01b0386168452825280832054600390925290912054848210156118575760405162461bcd60e51b815260206004820152600760248201526623524c3a30313960c81b60448201526064016104d2565b600061186786836105278861234d565b3360009081526002602090815260408083206001600160a01b038a16845290915290208785039055905061189b86836139be565b6001600160a01b0386166000908152600360205260409020556118bf85858361268c565b60408051878152602081018390526001600160a01b038681168284015291519187169133917fd18855db300cdd1baf52060b0a20e0775fdd88922464565b49afc0bf7a28266d919081900360600190a3505050505050565b61191f612e68565b600260005414156119425760405162461bcd60e51b81526004016104d2906135a0565b6002600090815561195660208c018c612f4b565b6001600160a01b031614156119965760405162461bcd60e51b815260206004820152600660248201526523503a30303960d01b60448201526064016104d2565b60006119a860408c0160208d01612f4b565b6001600160a01b031614156119e85760405162461bcd60e51b815260206004820152600660248201526523503a30303160d01b60448201526064016104d2565b60065460ff1680611a26575060046000611a0860408d0160208e01612f4b565b6001600160a01b0316815260208101919091526040016000205460ff165b611a5b5760405162461bcd60e51b815260206004820152600660248201526523503a30303360d01b60448201526064016104d2565b6000611a6d60a08c0160808d01612f4b565b6001600160a01b03161415611aad5760405162461bcd60e51b8152602060048201526006602482015265023503a3031360d41b60448201526064016104d2565b6000611abf60c08c0160a08d01612f4b565b6001600160a01b03161415611aff5760405162461bcd60e51b815260206004820152600660248201526523503a30323760d01b60448201526064016104d2565b8961010001358a60e001351415611b415760405162461bcd60e51b815260206004820152600660248201526523503a30313160d01b60448201526064016104d2565b7f00000000000000000000000000000000000000000000000000000000000000008a60e001351480611b9757507f00000000000000000000000000000000000000000000000000000000000000008a6101000135145b611bcc5760405162461bcd60e51b815260206004820152600660248201526511a81d18189960d11b60448201526064016104d2565b62015180611bda428a6139be565b1015611c115760405162461bcd60e51b815260206004820152600660248201526523503a30313360d01b60448201526064016104d2565b62278d00611c1f428a6139be565b1115611c565760405162461bcd60e51b815260206004820152600660248201526508d40e8c0c4d60d21b60448201526064016104d2565b6000801b600760008c604051602001611c6f91906135d7565b6040516020818303038152906040528051906020012081526020019081526020016000205414611cca5760405162461bcd60e51b815260206004820152600660248201526523503a30313560d01b60448201526064016104d2565b60007f00000000000000000000000000000000000000000000000000000000000000008b60e001351415611efc5760008a11611d315760405162461bcd60e51b815260206004820152600660248201526511a81d18181960d11b60448201526064016104d2565b60065460ff1680611d6f575060056000611d5160608e0160408f01612f4b565b6001600160a01b0316815260208101919091526040016000205460ff165b611da45760405162461bcd60e51b815260206004820152600660248201526508d40e8c0c0d60d21b60448201526064016104d2565b611db7610a7660608d0160408e01612f4b565b15611df957893414611df45760405162461bcd60e51b815260206004820152600660248201526523503a30303560d01b60448201526064016104d2565b611e87565b3415611e305760405162461bcd60e51b815260206004820152600660248201526511a81d18181b60d11b60448201526064016104d2565b6000611e4561080860608e0160408f01612f4b565b9050611e62611e5a60608e0160408f01612f4b565b33308e61273d565b80611e798d60400160208101906108089190612f4b565b611e8391906139be565b9a50505b5088611eaf81611e9d60608e0160408f01612f4b565b611eaa60208f018f612f4b565b6127ce565b611eba818a43612568565b600760008d604051602001611ecf91906135d7565b6040516020818303038152906040528051906020012081526020019081526020016000208190555061218c565b611f0c60408c0160208d01612f4b565b6001600160a01b0316336001600160a01b031614611f555760405162461bcd60e51b815260206004820152600660248201526523503a30313760d01b60448201526064016104d2565b3415611f8c5760405162461bcd60e51b8152602060048201526006602482015265046a0746062760d31b60448201526064016104d2565b89611fa061080860808e0160608f01612f4b565b1015611fd75760405162461bcd60e51b8152602060048201526006602482015265046a0746060760d31b60448201526064016104d2565b61202e8a600360008e6060016020810190611ff29190612f4b565b6001600160a01b03166001600160a01b03168152602001908152602001600020546120298e60600160208101906108089190612f4b565b6128d9565b905080600260008d60200160208101906120489190612f4b565b6001600160a01b03166001600160a01b0316815260200190815260200160002060008d606001602081019061207d9190612f4b565b6001600160a01b03166001600160a01b031681526020019081526020016000205410156120d55760405162461bcd60e51b815260206004820152600660248201526523503a30313960d01b60448201526064016104d2565b6120e0818a43612568565b600760008d6040516020016120f591906135d7565b6040516020818303038152906040528051906020012081526020019081526020016000208190555080600260008d60200160208101906121359190612f4b565b6001600160a01b03166001600160a01b0316815260200190815260200160002060008d606001602081019061216a9190612f4b565b6001600160a01b03168152602081019190915260400160002080549190910390555b604080516101c08101909152600090806121a960208f018f612f4b565b6001600160a01b031681526020018d60200160208101906121ca9190612f4b565b6001600160a01b031681526020018d60400160208101906121eb9190612f4b565b6001600160a01b031681526020018d606001602081019061220c9190612f4b565b6001600160a01b031681526020018d608001602081019061222d9190612f4b565b6001600160a01b031681526020018d60a001602081019061224e9190612f4b565b6001600160a01b031681526020018d60c001602081019061226f9190612f4b565b6001600160a01b031681526020018d610120013581526020018d610140013581526020018d60e0013581526020018d610100013581526020018381526020018b81526020014381525090508b61014001358c60200160208101906122d39190612f4b565b6001600160a01b03166122e960208f018f612f4b565b6001600160a01b03167fcbc2c69a1b1dee5839dd466510efd353bfaf312252daa79d8907663184c0c15b848f338f8f8f8f8f8f604051612331999897969594939291906138b7565b60405180910390a460016000559b9a5050505050505050505050565b60006001600160a01b038216156123da576040516370a0823160e01b81523060048201526001600160a01b038316906370a082319060240160206040518083038186803b15801561239d57600080fd5b505afa1580156123b1573d6000803e3d6000fd5b505050506040513d601f19601f820116820180604052508101906123d59190613292565b61052f565b4792915050565b60008115806123ee575083155b156123fb57506000612423565b61242061241b836124158661240f89612903565b9061297c565b90612a78565b612b45565b90505b9392505050565b6040805161016081019091526000908190806124496020860186612f4b565b6001600160a01b0316815260200184602001602081019061246a9190612f4b565b6001600160a01b031681526020016124886060860160408701612f4b565b6001600160a01b031681526020016124a66080860160608701612f4b565b6001600160a01b031681526020016124c460a0860160808701612f4b565b6001600160a01b031681526020016124e260c0860160a08701612f4b565b6001600160a01b0316815260200161250060e0860160c08701612f4b565b6001600160a01b03168152602001846101200135815260200184610140013581526020018460e00135815260200184610100013581525090508060405160200161254a91906136b7565b60405160208183030381529060405280519060200120915050919050565b60408051606080820183528582526020808301958652918301938452825180830196909652935185830152915184840152805180850390930183526080909301909252805191012090565b60408051808201825285815260208082018681528351918201889052519281019290925260009161268290612646906060015b60408051601f1981840301815282825280516020918201207f19457468657265756d205369676e6564204d6573736167653a0a33320000000084830152603c8085019190915282518085039091018152605c909301909152815191012090565b85858080601f016020809104026020016040519081016040528093929190818152602001838380828437600092019190915250612bc592505050565b9695505050505050565b6001600160a01b038316156126ab576126a68383836126b5565b505050565b6126a68282612c69565b60405163a9059cbb60e01b81526001600160a01b0383811660048301526024820183905284169063a9059cbb90604401602060405180830381600087803b1580156126ff57600080fd5b505af1158015612713573d6000803e3d6000fd5b505050506040513d601f19601f820116820180604052508101906127379190612fca565b50505050565b6040516323b872dd60e01b81526001600160a01b0384811660048301528381166024830152604482018390528516906323b872dd90606401602060405180830381600087803b15801561278f57600080fd5b505af11580156127a3573d6000803e3d6000fd5b505050506040513d601f19601f820116820180604052508101906127c79190612fca565b5050505050565b6001600160a01b03808216600090815260026020908152604080832093861683529290529081208054859290612805908490613967565b90915550506001600160a01b03821660009081526003602052604081208054859290612832908490613967565b9091555050505050565b600180546001600160a01b038381166001600160a01b0319831681179093556040519116919082907f8be0079c531659141344cd1fd0a4f28419497f9722a3daafe3b4186f6b6457e090600090a35050565b60408051606081018252858152602080820186905282518084018452600681526518d85b98d95b60d21b8183015282840152915160009261268291612646916125e69185910161379d565b60008315806128e6575082155b156128f357506000612423565b61242061241b846124158561240f895b600080612914633b9aca008461399f565b905082612925633b9aca008361397f565b1461052f5760405162461bcd60e51b815260206004820152602160248201527f776164546f5261793a204d554c5449504c49434154494f4e5f4f564552464c4f6044820152605760f81b60648201526084016104d2565b6000816129c35760405162461bcd60e51b81526020600482015260156024820152743930bca234bb1d102d22a927afa224ab24a9a4a7a760591b60448201526064016104d2565b60006129d060028461397f565b90506b033b2e3c9fd0803ce80000006129eb826000196139be565b6129f5919061397f565b841115612a445760405162461bcd60e51b815260206004820152601f60248201527f7261794469763a204d554c5449504c49434154494f4e5f4f564552464c4f570060448201526064016104d2565b8281612a5c6b033b2e3c9fd0803ce80000008761399f565b612a669190613967565b612a70919061397f565b949350505050565b6000821580612a85575081155b15612a925750600061052f565b81612aaa60026b033b2e3c9fd0803ce800000061397f565b612ab6906000196139be565b612ac0919061397f565b831115612b0f5760405162461bcd60e51b815260206004820152601f60248201527f7261794d756c3a204d554c5449504c49434154494f4e5f4f564552464c4f570060448201526064016104d2565b6b033b2e3c9fd0803ce8000000612b2760028261397f565b612b31848661399f565b612b3b9190613967565b61052c919061397f565b600080612b576002633b9aca0061397f565b90506000612b658483613967565b905081811015612bb75760405162461bcd60e51b815260206004820152601b60248201527f726179546f5761643a204144444954494f4e5f4f564552464c4f57000000000060448201526064016104d2565b612a70633b9aca008261397f565b6000815160411415612bf95760208201516040830151606084015160001a612bef86828585612c9f565b935050505061052f565b815160401415612c215760208201516040830151612c18858383612e48565b9250505061052f565b60405162461bcd60e51b815260206004820152601f60248201527f45434453413a20696e76616c6964207369676e6174757265206c656e6774680060448201526064016104d2565b6040516001600160a01b0383169082156108fc029083906000818181858888f193505050501580156126a6573d6000803e3d6000fd5b60007f7fffffffffffffffffffffffffffffff5d576e7357a4501ddfe92f46681b20a0821115612d1c5760405162461bcd60e51b815260206004820152602260248201527f45434453413a20696e76616c6964207369676e6174757265202773272076616c604482015261756560f01b60648201526084016104d2565b8360ff16601b1480612d3157508360ff16601c145b612d885760405162461bcd60e51b815260206004820152602260248201527f45434453413a20696e76616c6964207369676e6174757265202776272076616c604482015261756560f01b60648201526084016104d2565b6040805160008082526020820180845288905260ff871692820192909252606081018590526080810184905260019060a0016020604051602081039080840390855afa158015612ddc573d6000803e3d6000fd5b5050604051601f1901519150506001600160a01b038116612e3f5760405162461bcd60e51b815260206004820152601860248201527f45434453413a20696e76616c6964207369676e6174757265000000000000000060448201526064016104d2565b95945050505050565b60006001600160ff1b03821660ff83901c601b0161268286828785612c9f565b604080516101c081018252600080825260208201819052918101829052606081018290526080810182905260a0810182905260c0810182905260e08101829052610100810182905261012081018290526101408101829052610160810182905261018081018290526101a081019190915290565b8035612ee7816139eb565b919050565b60008083601f840112612efd578182fd5b50813567ffffffffffffffff811115612f14578182fd5b602083019150836020828501011115612f2c57600080fd5b9250929050565b60006101c08284031215612f45578081fd5b50919050565b600060208284031215612f5c578081fd5b8135612423816139eb565b60008060408385031215612f79578081fd5b8235612f84816139eb565b91506020830135612f94816139eb565b809150509250929050565b60008060408385031215612fb1578182fd5b8235612fbc816139eb565b946020939093013593505050565b600060208284031215612fdb578081fd5b81518015158114612423578182fd5b600060208284031215612ffb578081fd5b5035919050565b6000806000806000806000806000898b03610200811215613021578586fd5b61016080821215613030578687fd5b8b9a508a013598505061018089013596506101a089013567ffffffffffffffff8082111561305c578687fd5b6130688d838e01612eec565b90985096506101c08c0135915080821115613081578586fd5b61308d8d838e01612eec565b90965094506101e08c01359150808211156130a6578384fd5b506130b38c828d01612eec565b915080935050809150509295985092959850929598565b60008060008061020085870312156130e0578384fd5b6130ea8686612f33565b93506101c085013592506101e085013567ffffffffffffffff81111561310e578283fd5b61311a87828801612eec565b95989497509550505050565b600080600080600080610220878903121561313f578182fd5b6131498888612f33565b95506101c087013594506101e087013567ffffffffffffffff8082111561316e578384fd5b61317a8a838b01612eec565b9096509450610200890135915080821115613193578384fd5b506131a089828a01612eec565b979a9699509497509295939492505050565b60006101c082840312156131c4578081fd5b6131cc61392f565b6131d583612edc565b81526131e360208401612edc565b60208201526131f460408401612edc565b604082015261320560608401612edc565b606082015261321660808401612edc565b608082015261322760a08401612edc565b60a082015261323860c08401612edc565b60c082015260e08381013590820152610100808401359082015261012080840135908201526101408084013590820152610160808401359082015261018080840135908201526101a0928301359281019290925250919050565b6000602082840312156132a3578081fd5b5051919050565b6000806000606084860312156132be578081fd5b8335925060208401356132d0816139eb565b915060408401356132e0816139eb565b809150509250925092565b81835281816020850137506000828201602090810191909152601f909101601f19169091010190565b61332e8261332183612edc565b6001600160a01b03169052565b61333a60208201612edc565b6001600160a01b0316602083015261335460408201612edc565b6001600160a01b0316604083015261336e60608201612edc565b6001600160a01b0316606083015261338860808201612edc565b6001600160a01b031660808301526133a260a08201612edc565b6001600160a01b031660a08301526133bc60c08201612edc565b6001600160a01b031660c083015260e08181013590830152610100808201359083015261012080820135908301526101408082013590830152610160808201359083015261018080820135908301526101a090810135910152565b80516001600160a01b03168252602081015161343e60208401826001600160a01b03169052565b50604081015161345960408401826001600160a01b03169052565b50606081015161347460608401826001600160a01b03169052565b50608081015161348f60808401826001600160a01b03169052565b5060a08101516134aa60a08401826001600160a01b03169052565b5060c08101516134c560c08401826001600160a01b03169052565b5060e08181015190830152610100808201519083015261012080820151908301526101408082015190830152610160808201519083015261018080820151908301526101a090810151910152565b8183823760009101908152919050565b6001600160a01b0387811682528681166020830152851660408201526060810184905260a06080820181905260009061355f90830184866132eb565b98975050505050505050565b6020808252818101527f4f776e61626c653a2063616c6c6572206973206e6f7420746865206f776e6572604082015260600190565b6020808252601f908201527f5265656e7472616e637947756172643a207265656e7472616e742063616c6c00604082015260600190565b61016081016135e98261332185612edc565b6135f560208401612edc565b6001600160a01b0316602083015261360f60408401612edc565b6001600160a01b0316604083015261362960608401612edc565b6001600160a01b0316606083015261364360808401612edc565b6001600160a01b0316608083015261365d60a08401612edc565b6001600160a01b031660a083015261367760c08401612edc565b6001600160a01b031660c083015260e083810135908301526101008084013590830152610120808401359083015261014092830135929091019190915290565b81516001600160a01b03168152610160810160208301516136e360208401826001600160a01b03169052565b5060408301516136fe60408401826001600160a01b03169052565b50606083015161371960608401826001600160a01b03169052565b50608083015161373460808401826001600160a01b03169052565b5060a083015161374f60a08401826001600160a01b03169052565b5060c083015161376a60c08401826001600160a01b03169052565b5060e083810151908301526101008084015190830152610120808401519083015261014092830151929091019190915290565b6000602080835283518184015280840151604084015260408401516060808501528051806080860152835b818110156137e45782810184015186820160a0015283016137c8565b818111156137f5578460a083880101525b50601f01601f19169390930160a001949350505050565b610220810161381b8287613314565b6101c08201949094526101e08101929092526001600160a01b031661020090910152919050565b6000610260613851838c613314565b896101c0840152886101e084015280610200840152613873818401888a6132eb565b90508281036102208401526138898186886132eb565b91505060018060a01b0383166102408301529998505050505050505050565b6101c0810161052f8284613417565b60006102606138c6838d613417565b6101c083018b90526001600160a01b038a166101e084015261020083018190526138f3818401898b6132eb565b90508281036102208401526139098187896132eb565b905082810361024084015261391f8185876132eb565b9c9b505050505050505050505050565b6040516101c0810167ffffffffffffffff8111828210171561396157634e487b7160e01b600052604160045260246000fd5b60405290565b6000821982111561397a5761397a6139d5565b500190565b60008261399a57634e487b7160e01b81526012600452602481fd5b500490565b60008160001904831182151516156139b9576139b96139d5565b500290565b6000828210156139d0576139d06139d5565b500390565b634e487b7160e01b600052601160045260246000fd5b6001600160a01b038116811461177357600080fdfea26469706673582212205cb5c245c7d54eadd68bd094d0a0b8bffefe6447c1f476df7739af8edac458de64736f6c63430008040033",
  "devdoc": {
    "kind": "dev",
    "methods": {
      "addAssetId(address)": {
        "params": {
          "assetId": "AssetId to add"
        }
      },
      "addLiquidity(uint256,address,address)": {
        "params": {
          "amount": "The amount of liquidity to add for the router",
          "assetId": "The address (or `address(0)` if native asset) of the                asset you're adding liquidity for",
          "router": "The router you are adding liquidity on behalf of"
        }
      },
      "addRouter(address)": {
        "params": {
          "router": "Router address to add"
        }
      },
      "cancel((address,address,address,address,address,address,address,bytes32,bytes32,uint256,uint256,uint256,uint256,uint256),uint256,bytes)": {
        "params": {
          "relayerFee": "The fee that should go to the relayer when they are                   calling the function for the user",
          "signature": "The user's signature that allows a transaction to be                  cancelled on the receiving chain.",
          "txData": "All of the data (invariant and variant) for a crosschain               transaction. The variant data provided is checked against               what was stored when the `prepare` function was called."
        }
      },
      "fulfill((address,address,address,address,address,address,address,bytes32,bytes32,uint256,uint256,uint256,uint256,uint256),uint256,bytes,bytes)": {
        "params": {
          "callData": "The calldata to be sent to and executed by the                  `FulfillHelper`",
          "relayerFee": "The fee that should go to the relayer when they are                   calling the function on the receiving chain for the user",
          "signature": "The users signature on the invariant data + fee that                  can be used by the router to unlock the transaction on                   the sending chain",
          "txData": "All of the data (invariant and variant) for a crosschain               transaction. The variant data provided is checked against               what was stored when the `prepare` function was called."
        }
      },
      "getAmountFromShares(address,uint256)": {
        "params": {
          "assetId": "Asset identifier you want amount of",
          "shares": "Number of shares you want converted to an amount of asset"
        }
      },
      "getRouterBalance(address,address)": {
        "params": {
          "assetId": "Asset for percentage",
          "router": "Router you want balance of"
        }
      },
      "owner()": {
        "details": "Returns the address of the current owner."
      },
      "prepare((address,address,address,address,address,address,address,uint256,uint256,bytes32,bytes32),uint256,uint256,bytes,bytes,bytes)": {
        "params": {
          "amount": "The amount of the transaction on this chain",
          "bidSignature": "The signature of the bidder on the encoded bid for                     this transaction. Only used within the function for                     event emission. The validity of the bid and                     bidSignature are enforced offchain",
          "encodedBid": "The encoded bid that was accepted by the user for this                   crosschain transfer. It is supplied as a param to the                   function but is only used in event emission",
          "encryptedCallData": "The calldata to be executed when the tx is                          fulfilled. Used in the function to allow the user                          to reconstruct the tx from events. Hash is stored                          onchain to prevent shenanigans.",
          "expiry": "The block.timestamp when the transaction will no longer be               fulfillable and is freely cancellable on this chain",
          "invariantData": "The data for a crosschain transaction that will                      not change between sending and receiving chains.                      The hash of this data is used as the key to store                       the inforamtion that does change between chains                       (amount, expiry,preparedBlock) for verification"
        }
      },
      "removeAssetId(address)": {
        "params": {
          "assetId": "AssetId to remove"
        }
      },
      "removeLiquidity(uint256,address,address)": {
        "params": {
          "assetId": "The address (or `address(0)` if native asset) of the                asset you're removing liquidity for",
          "recipient": "The address that will receive the liquidity being removed",
          "shares": "The amount of liquidity to remove for the router in shares"
        }
      },
      "removeRouter(address)": {
        "params": {
          "router": "Router address to remove"
        }
      },
      "renounceOwnership()": {
        "details": "Leaves the contract without owner. It will not be possible to call `onlyOwner` functions anymore. Can only be called by the current owner. NOTE: Renouncing ownership will leave the contract without an owner, thereby removing any functionality that is only available to the owner."
      },
      "transferOwnership(address)": {
        "details": "Transfers ownership of the contract to a new account (`newOwner`). Can only be called by the current owner."
      }
    },
    "stateVariables": {
      "MAX_TIMEOUT": {
        "details": "Maximum timeout"
      },
      "MIN_TIMEOUT": {
        "details": "Minimum timeout (will be the lowest on the receiving chain)"
      },
      "approvedAssets": {
        "details": "Mapping of allowed assetIds on same chain of contract"
      },
      "approvedRouters": {
        "details": "Mapping of allowed router addresses"
      },
      "chainId": {
        "details": "The chain id of the contract, is passed in to avoid any evm issues"
      },
      "interpreter": {
        "details": "The address of the external contract that will execute crosschain      calldata"
      },
      "issuedShares": {
        "details": "Mapping of router or user to shares specific to asset      incremented whenever a user sends funds to the contract"
      },
      "outstandingShares": {
        "details": "Mapping of total issued shares in contract per asset      This is incremented any time funds are sent to the      contract, and decremented from the contract."
      },
      "renounced": {
        "details": "Indicates if the ownership has been renounced"
      },
      "variantTransactionData": {
        "details": "Mapping of hash of `InvariantTransactionData` to the hash"
      }
    },
    "version": 1
  },
  "userdoc": {
    "kind": "user",
    "methods": {
      "addAssetId(address)": {
        "notice": "Used to add assets on same chain as contract that can         be transferred."
      },
      "addLiquidity(uint256,address,address)": {
        "notice": "This is used by any router to increase their available         liquidity for a given asset."
      },
      "addRouter(address)": {
        "notice": "Used to add routers that can transact crosschain"
      },
      "cancel((address,address,address,address,address,address,address,bytes32,bytes32,uint256,uint256,uint256,uint256,uint256),uint256,bytes)": {
        "notice": "Any crosschain transaction can be cancelled after it has been         created to prevent indefinite lock up of funds. After the         transaction has expired, anyone can cancel it. Before the         expiry, only the recipient of the funds on the given chain is         able to cancel. On the sending chain, this means only the router         is able to cancel before the expiry, while only the user can         prematurely cancel on the receiving chain."
      },
      "fulfill((address,address,address,address,address,address,address,bytes32,bytes32,uint256,uint256,uint256,uint256,uint256),uint256,bytes,bytes)": {
        "notice": "This function completes a crosschain transaction. When called on         the receiving chain, the user reveals their signature on the         invariant parts of the transaction data and is sent the          appropriate amount. The router then uses this signature to         unlock the corresponding funds on the receiving chain, which are         then added back to their available liquidity. The user includes a         relayer fee since it is not assumed they will have gas on the         receiving chain. This function *must* be called before the         transaction expiry has elapsed."
      },
      "getAmountFromShares(address,uint256)": {
        "notice": "Gets an amount from a given number of shares"
      },
      "getRouterBalance(address,address)": {
        "notice": "Gets amounts from router percentages"
      },
      "prepare((address,address,address,address,address,address,address,uint256,uint256,bytes32,bytes32),uint256,uint256,bytes,bytes,bytes)": {
        "notice": "This function creates a crosschain transaction. When called on         the sending chain, the user is expected to lock up funds. When         called on the receiving chain, the router deducts the transfer         amount from the available liquidity. The majority of the         information about a given transfer does not change between chains,         with three notable exceptions: `amount`, `expiry`, and          `preparedBlock`. The `amount` and `expiry` are decremented         between sending and receiving chains to provide an incentive for          the router to complete the transaction and time for the router to         fulfill the transaction on the sending chain after the unlocking         signature is revealed, respectively."
      },
      "removeAssetId(address)": {
        "notice": "Used to remove assets on same chain as contract that can         be transferred."
      },
      "removeLiquidity(uint256,address,address)": {
        "notice": "This is used by any router to decrease their available         liquidity for a given asset."
      },
      "removeRouter(address)": {
        "notice": "Used to remove routers that can transact crosschain"
      },
      "renounce()": {
        "notice": "Removes any ownership privelenges. Used to allow          arbitrary assets and routers"
      }
    },
    "notice": "Note on internal accounting:         To properly handle the cases where a token is rebasing/inflationary/         deflationary, we think of funds sent to the contracts as claiming         \"shares\" of the total balance of the contract, rather than tracking         raw balances. This allows routers to keep earning inflation rewards         when providing liquidity aave tokens, for example. Shares are         created and issued when the contract receives funds, and burned when         the contract disburses funds.",
    "version": 1
  },
  "storageLayout": {
    "storage": [
      {
        "astId": 114,
        "contract": "contracts/TransactionManager.sol:TransactionManager",
        "label": "_status",
        "offset": 0,
        "slot": "0",
        "type": "t_uint256"
      },
      {
        "astId": 7,
        "contract": "contracts/TransactionManager.sol:TransactionManager",
        "label": "_owner",
        "offset": 0,
        "slot": "1",
        "type": "t_address"
      },
      {
        "astId": 1543,
        "contract": "contracts/TransactionManager.sol:TransactionManager",
        "label": "issuedShares",
        "offset": 0,
        "slot": "2",
        "type": "t_mapping(t_address,t_mapping(t_address,t_uint256))"
      },
      {
        "astId": 1548,
        "contract": "contracts/TransactionManager.sol:TransactionManager",
        "label": "outstandingShares",
        "offset": 0,
        "slot": "3",
        "type": "t_mapping(t_address,t_uint256)"
      },
      {
        "astId": 1553,
        "contract": "contracts/TransactionManager.sol:TransactionManager",
        "label": "approvedRouters",
        "offset": 0,
        "slot": "4",
        "type": "t_mapping(t_address,t_bool)"
      },
      {
        "astId": 1558,
        "contract": "contracts/TransactionManager.sol:TransactionManager",
        "label": "approvedAssets",
        "offset": 0,
        "slot": "5",
        "type": "t_mapping(t_address,t_bool)"
      },
      {
        "astId": 1562,
        "contract": "contracts/TransactionManager.sol:TransactionManager",
        "label": "renounced",
        "offset": 0,
        "slot": "6",
        "type": "t_bool"
      },
      {
        "astId": 1567,
        "contract": "contracts/TransactionManager.sol:TransactionManager",
        "label": "variantTransactionData",
        "offset": 0,
        "slot": "7",
        "type": "t_mapping(t_bytes32,t_bytes32)"
      },
      {
        "astId": 1582,
        "contract": "contracts/TransactionManager.sol:TransactionManager",
        "label": "interpreter",
        "offset": 0,
        "slot": "8",
        "type": "t_contract(IFulfillInterpreter)3260"
      }
    ],
    "types": {
      "t_address": {
        "encoding": "inplace",
        "label": "address",
        "numberOfBytes": "20"
      },
      "t_bool": {
        "encoding": "inplace",
        "label": "bool",
        "numberOfBytes": "1"
      },
      "t_bytes32": {
        "encoding": "inplace",
        "label": "bytes32",
        "numberOfBytes": "32"
      },
      "t_contract(IFulfillInterpreter)3260": {
        "encoding": "inplace",
        "label": "contract IFulfillInterpreter",
        "numberOfBytes": "20"
      },
      "t_mapping(t_address,t_bool)": {
        "encoding": "mapping",
        "key": "t_address",
        "label": "mapping(address => bool)",
        "numberOfBytes": "32",
        "value": "t_bool"
      },
      "t_mapping(t_address,t_mapping(t_address,t_uint256))": {
        "encoding": "mapping",
        "key": "t_address",
        "label": "mapping(address => mapping(address => uint256))",
        "numberOfBytes": "32",
        "value": "t_mapping(t_address,t_uint256)"
      },
      "t_mapping(t_address,t_uint256)": {
        "encoding": "mapping",
        "key": "t_address",
        "label": "mapping(address => uint256)",
        "numberOfBytes": "32",
        "value": "t_uint256"
      },
      "t_mapping(t_bytes32,t_bytes32)": {
        "encoding": "mapping",
        "key": "t_bytes32",
        "label": "mapping(bytes32 => bytes32)",
        "numberOfBytes": "32",
        "value": "t_bytes32"
      },
      "t_uint256": {
        "encoding": "inplace",
        "label": "uint256",
        "numberOfBytes": "32"
      }
    }
  }
}