{
  "address": "0xe71678794fff8846bFF855f716b0Ce9d9a78E844",
  "abi": [
    {
      "inputs": [
        {
          "internalType": "uint256",
          "name": "_chainId",
          "type": "uint256"
        },
        {
          "internalType": "address",
          "name": "_interpreter",
          "type": "address"
        }
      ],
      "stateMutability": "nonpayable",
      "type": "constructor"
    },
    {
      "anonymous": false,
      "inputs": [
        {
          "indexed": true,
          "internalType": "address",
          "name": "router",
          "type": "address"
        },
        {
          "indexed": true,
          "internalType": "address",
          "name": "assetId",
          "type": "address"
        },
        {
          "indexed": false,
          "internalType": "uint256",
          "name": "amount",
          "type": "uint256"
        },
        {
          "indexed": false,
          "internalType": "address",
          "name": "caller",
          "type": "address"
        }
      ],
      "name": "LiquidityAdded",
      "type": "event"
    },
    {
      "anonymous": false,
      "inputs": [
        {
          "indexed": true,
          "internalType": "address",
          "name": "router",
          "type": "address"
        },
        {
          "indexed": true,
          "internalType": "address",
          "name": "assetId",
          "type": "address"
        },
        {
          "indexed": false,
          "internalType": "uint256",
          "name": "amount",
          "type": "uint256"
        },
        {
          "indexed": false,
          "internalType": "address",
          "name": "recipient",
          "type": "address"
        }
      ],
      "name": "LiquidityRemoved",
      "type": "event"
    },
    {
      "anonymous": false,
      "inputs": [
        {
          "indexed": true,
          "internalType": "address",
          "name": "previousOwner",
          "type": "address"
        },
        {
          "indexed": true,
          "internalType": "address",
          "name": "newOwner",
          "type": "address"
        }
      ],
      "name": "OwnershipTransferred",
      "type": "event"
    },
    {
      "anonymous": false,
      "inputs": [
        {
          "indexed": true,
          "internalType": "address",
          "name": "user",
          "type": "address"
        },
        {
          "indexed": true,
          "internalType": "address",
          "name": "router",
          "type": "address"
        },
        {
          "indexed": true,
          "internalType": "bytes32",
          "name": "transactionId",
          "type": "bytes32"
        },
        {
          "components": [
            {
              "internalType": "address",
              "name": "user",
              "type": "address"
            },
            {
              "internalType": "address",
              "name": "router",
              "type": "address"
            },
            {
              "internalType": "address",
              "name": "sendingAssetId",
              "type": "address"
            },
            {
              "internalType": "address",
              "name": "receivingAssetId",
              "type": "address"
            },
            {
              "internalType": "address",
              "name": "sendingChainFallback",
              "type": "address"
            },
            {
              "internalType": "address",
              "name": "receivingAddress",
              "type": "address"
            },
            {
              "internalType": "address",
              "name": "callTo",
              "type": "address"
            },
            {
              "internalType": "bytes32",
              "name": "callDataHash",
              "type": "bytes32"
            },
            {
              "internalType": "bytes32",
              "name": "transactionId",
              "type": "bytes32"
            },
            {
              "internalType": "uint256",
              "name": "sendingChainId",
              "type": "uint256"
            },
            {
              "internalType": "uint256",
              "name": "receivingChainId",
              "type": "uint256"
            },
            {
              "internalType": "uint256",
              "name": "amount",
              "type": "uint256"
            },
            {
              "internalType": "uint256",
              "name": "expiry",
              "type": "uint256"
            },
            {
              "internalType": "uint256",
              "name": "preparedBlockNumber",
              "type": "uint256"
            }
          ],
          "indexed": false,
          "internalType": "struct ITransactionManager.TransactionData",
          "name": "txData",
          "type": "tuple"
        },
        {
          "indexed": false,
          "internalType": "uint256",
          "name": "relayerFee",
          "type": "uint256"
        },
        {
          "indexed": false,
          "internalType": "address",
          "name": "caller",
          "type": "address"
        }
      ],
      "name": "TransactionCancelled",
      "type": "event"
    },
    {
      "anonymous": false,
      "inputs": [
        {
          "indexed": true,
          "internalType": "address",
          "name": "user",
          "type": "address"
        },
        {
          "indexed": true,
          "internalType": "address",
          "name": "router",
          "type": "address"
        },
        {
          "indexed": true,
          "internalType": "bytes32",
          "name": "transactionId",
          "type": "bytes32"
        },
        {
          "components": [
            {
              "internalType": "address",
              "name": "user",
              "type": "address"
            },
            {
              "internalType": "address",
              "name": "router",
              "type": "address"
            },
            {
              "internalType": "address",
              "name": "sendingAssetId",
              "type": "address"
            },
            {
              "internalType": "address",
              "name": "receivingAssetId",
              "type": "address"
            },
            {
              "internalType": "address",
              "name": "sendingChainFallback",
              "type": "address"
            },
            {
              "internalType": "address",
              "name": "receivingAddress",
              "type": "address"
            },
            {
              "internalType": "address",
              "name": "callTo",
              "type": "address"
            },
            {
              "internalType": "bytes32",
              "name": "callDataHash",
              "type": "bytes32"
            },
            {
              "internalType": "bytes32",
              "name": "transactionId",
              "type": "bytes32"
            },
            {
              "internalType": "uint256",
              "name": "sendingChainId",
              "type": "uint256"
            },
            {
              "internalType": "uint256",
              "name": "receivingChainId",
              "type": "uint256"
            },
            {
              "internalType": "uint256",
              "name": "amount",
              "type": "uint256"
            },
            {
              "internalType": "uint256",
              "name": "expiry",
              "type": "uint256"
            },
            {
              "internalType": "uint256",
              "name": "preparedBlockNumber",
              "type": "uint256"
            }
          ],
          "indexed": false,
          "internalType": "struct ITransactionManager.TransactionData",
          "name": "txData",
          "type": "tuple"
        },
        {
          "indexed": false,
          "internalType": "uint256",
          "name": "relayerFee",
          "type": "uint256"
        },
        {
          "indexed": false,
          "internalType": "bytes",
          "name": "signature",
          "type": "bytes"
        },
        {
          "indexed": false,
          "internalType": "bytes",
          "name": "callData",
          "type": "bytes"
        },
        {
          "indexed": false,
          "internalType": "address",
          "name": "caller",
          "type": "address"
        }
      ],
      "name": "TransactionFulfilled",
      "type": "event"
    },
    {
      "anonymous": false,
      "inputs": [
        {
          "indexed": true,
          "internalType": "address",
          "name": "user",
          "type": "address"
        },
        {
          "indexed": true,
          "internalType": "address",
          "name": "router",
          "type": "address"
        },
        {
          "indexed": true,
          "internalType": "bytes32",
          "name": "transactionId",
          "type": "bytes32"
        },
        {
          "components": [
            {
              "internalType": "address",
              "name": "user",
              "type": "address"
            },
            {
              "internalType": "address",
              "name": "router",
              "type": "address"
            },
            {
              "internalType": "address",
              "name": "sendingAssetId",
              "type": "address"
            },
            {
              "internalType": "address",
              "name": "receivingAssetId",
              "type": "address"
            },
            {
              "internalType": "address",
              "name": "sendingChainFallback",
              "type": "address"
            },
            {
              "internalType": "address",
              "name": "receivingAddress",
              "type": "address"
            },
            {
              "internalType": "address",
              "name": "callTo",
              "type": "address"
            },
            {
              "internalType": "bytes32",
              "name": "callDataHash",
              "type": "bytes32"
            },
            {
              "internalType": "bytes32",
              "name": "transactionId",
              "type": "bytes32"
            },
            {
              "internalType": "uint256",
              "name": "sendingChainId",
              "type": "uint256"
            },
            {
              "internalType": "uint256",
              "name": "receivingChainId",
              "type": "uint256"
            },
            {
              "internalType": "uint256",
              "name": "amount",
              "type": "uint256"
            },
            {
              "internalType": "uint256",
              "name": "expiry",
              "type": "uint256"
            },
            {
              "internalType": "uint256",
              "name": "preparedBlockNumber",
              "type": "uint256"
            }
          ],
          "indexed": false,
          "internalType": "struct ITransactionManager.TransactionData",
          "name": "txData",
          "type": "tuple"
        },
        {
          "indexed": false,
          "internalType": "address",
          "name": "caller",
          "type": "address"
        },
        {
          "indexed": false,
          "internalType": "bytes",
          "name": "encryptedCallData",
          "type": "bytes"
        },
        {
          "indexed": false,
          "internalType": "bytes",
          "name": "encodedBid",
          "type": "bytes"
        },
        {
          "indexed": false,
          "internalType": "bytes",
          "name": "bidSignature",
          "type": "bytes"
        }
      ],
      "name": "TransactionPrepared",
      "type": "event"
    },
    {
      "inputs": [],
      "name": "MAX_TIMEOUT",
      "outputs": [
        {
          "internalType": "uint256",
          "name": "",
          "type": "uint256"
        }
      ],
      "stateMutability": "view",
      "type": "function"
    },
    {
      "inputs": [],
      "name": "MIN_TIMEOUT",
      "outputs": [
        {
          "internalType": "uint256",
          "name": "",
          "type": "uint256"
        }
      ],
      "stateMutability": "view",
      "type": "function"
    },
    {
      "inputs": [
        {
          "internalType": "address",
          "name": "assetId",
          "type": "address"
        }
      ],
      "name": "addAssetId",
      "outputs": [],
      "stateMutability": "nonpayable",
      "type": "function"
    },
    {
      "inputs": [
        {
          "internalType": "uint256",
          "name": "amount",
          "type": "uint256"
        },
        {
          "internalType": "address",
          "name": "assetId",
          "type": "address"
        },
        {
          "internalType": "address",
          "name": "router",
          "type": "address"
        }
      ],
      "name": "addLiquidity",
      "outputs": [],
      "stateMutability": "payable",
      "type": "function"
    },
    {
      "inputs": [
        {
          "internalType": "address",
          "name": "router",
          "type": "address"
        }
      ],
      "name": "addRouter",
      "outputs": [],
      "stateMutability": "nonpayable",
      "type": "function"
    },
    {
      "inputs": [
        {
          "internalType": "address",
          "name": "",
          "type": "address"
        }
      ],
      "name": "approvedAssets",
      "outputs": [
        {
          "internalType": "bool",
          "name": "",
          "type": "bool"
        }
      ],
      "stateMutability": "view",
      "type": "function"
    },
    {
      "inputs": [
        {
          "internalType": "address",
          "name": "",
          "type": "address"
        }
      ],
      "name": "approvedRouters",
      "outputs": [
        {
          "internalType": "bool",
          "name": "",
          "type": "bool"
        }
      ],
      "stateMutability": "view",
      "type": "function"
    },
    {
      "inputs": [
        {
          "components": [
            {
              "internalType": "address",
              "name": "user",
              "type": "address"
            },
            {
              "internalType": "address",
              "name": "router",
              "type": "address"
            },
            {
              "internalType": "address",
              "name": "sendingAssetId",
              "type": "address"
            },
            {
              "internalType": "address",
              "name": "receivingAssetId",
              "type": "address"
            },
            {
              "internalType": "address",
              "name": "sendingChainFallback",
              "type": "address"
            },
            {
              "internalType": "address",
              "name": "receivingAddress",
              "type": "address"
            },
            {
              "internalType": "address",
              "name": "callTo",
              "type": "address"
            },
            {
              "internalType": "bytes32",
              "name": "callDataHash",
              "type": "bytes32"
            },
            {
              "internalType": "bytes32",
              "name": "transactionId",
              "type": "bytes32"
            },
            {
              "internalType": "uint256",
              "name": "sendingChainId",
              "type": "uint256"
            },
            {
              "internalType": "uint256",
              "name": "receivingChainId",
              "type": "uint256"
            },
            {
              "internalType": "uint256",
              "name": "amount",
              "type": "uint256"
            },
            {
              "internalType": "uint256",
              "name": "expiry",
              "type": "uint256"
            },
            {
              "internalType": "uint256",
              "name": "preparedBlockNumber",
              "type": "uint256"
            }
          ],
          "internalType": "struct ITransactionManager.TransactionData",
          "name": "txData",
          "type": "tuple"
        },
        {
          "internalType": "uint256",
          "name": "relayerFee",
          "type": "uint256"
        },
        {
          "internalType": "bytes",
          "name": "signature",
          "type": "bytes"
        }
      ],
      "name": "cancel",
      "outputs": [
        {
          "components": [
            {
              "internalType": "address",
              "name": "user",
              "type": "address"
            },
            {
              "internalType": "address",
              "name": "router",
              "type": "address"
            },
            {
              "internalType": "address",
              "name": "sendingAssetId",
              "type": "address"
            },
            {
              "internalType": "address",
              "name": "receivingAssetId",
              "type": "address"
            },
            {
              "internalType": "address",
              "name": "sendingChainFallback",
              "type": "address"
            },
            {
              "internalType": "address",
              "name": "receivingAddress",
              "type": "address"
            },
            {
              "internalType": "address",
              "name": "callTo",
              "type": "address"
            },
            {
              "internalType": "bytes32",
              "name": "callDataHash",
              "type": "bytes32"
            },
            {
              "internalType": "bytes32",
              "name": "transactionId",
              "type": "bytes32"
            },
            {
              "internalType": "uint256",
              "name": "sendingChainId",
              "type": "uint256"
            },
            {
              "internalType": "uint256",
              "name": "receivingChainId",
              "type": "uint256"
            },
            {
              "internalType": "uint256",
              "name": "amount",
              "type": "uint256"
            },
            {
              "internalType": "uint256",
              "name": "expiry",
              "type": "uint256"
            },
            {
              "internalType": "uint256",
              "name": "preparedBlockNumber",
              "type": "uint256"
            }
          ],
          "internalType": "struct ITransactionManager.TransactionData",
          "name": "",
          "type": "tuple"
        }
      ],
      "stateMutability": "nonpayable",
      "type": "function"
    },
    {
      "inputs": [],
      "name": "chainId",
      "outputs": [
        {
          "internalType": "uint256",
          "name": "",
          "type": "uint256"
        }
      ],
      "stateMutability": "view",
      "type": "function"
    },
    {
      "inputs": [
        {
          "components": [
            {
              "internalType": "address",
              "name": "user",
              "type": "address"
            },
            {
              "internalType": "address",
              "name": "router",
              "type": "address"
            },
            {
              "internalType": "address",
              "name": "sendingAssetId",
              "type": "address"
            },
            {
              "internalType": "address",
              "name": "receivingAssetId",
              "type": "address"
            },
            {
              "internalType": "address",
              "name": "sendingChainFallback",
              "type": "address"
            },
            {
              "internalType": "address",
              "name": "receivingAddress",
              "type": "address"
            },
            {
              "internalType": "address",
              "name": "callTo",
              "type": "address"
            },
            {
              "internalType": "bytes32",
              "name": "callDataHash",
              "type": "bytes32"
            },
            {
              "internalType": "bytes32",
              "name": "transactionId",
              "type": "bytes32"
            },
            {
              "internalType": "uint256",
              "name": "sendingChainId",
              "type": "uint256"
            },
            {
              "internalType": "uint256",
              "name": "receivingChainId",
              "type": "uint256"
            },
            {
              "internalType": "uint256",
              "name": "amount",
              "type": "uint256"
            },
            {
              "internalType": "uint256",
              "name": "expiry",
              "type": "uint256"
            },
            {
              "internalType": "uint256",
              "name": "preparedBlockNumber",
              "type": "uint256"
            }
          ],
          "internalType": "struct ITransactionManager.TransactionData",
          "name": "txData",
          "type": "tuple"
        },
        {
          "internalType": "uint256",
          "name": "relayerFee",
          "type": "uint256"
        },
        {
          "internalType": "bytes",
          "name": "signature",
          "type": "bytes"
        },
        {
          "internalType": "bytes",
          "name": "callData",
          "type": "bytes"
        }
      ],
      "name": "fulfill",
      "outputs": [
        {
          "components": [
            {
              "internalType": "address",
              "name": "user",
              "type": "address"
            },
            {
              "internalType": "address",
              "name": "router",
              "type": "address"
            },
            {
              "internalType": "address",
              "name": "sendingAssetId",
              "type": "address"
            },
            {
              "internalType": "address",
              "name": "receivingAssetId",
              "type": "address"
            },
            {
              "internalType": "address",
              "name": "sendingChainFallback",
              "type": "address"
            },
            {
              "internalType": "address",
              "name": "receivingAddress",
              "type": "address"
            },
            {
              "internalType": "address",
              "name": "callTo",
              "type": "address"
            },
            {
              "internalType": "bytes32",
              "name": "callDataHash",
              "type": "bytes32"
            },
            {
              "internalType": "bytes32",
              "name": "transactionId",
              "type": "bytes32"
            },
            {
              "internalType": "uint256",
              "name": "sendingChainId",
              "type": "uint256"
            },
            {
              "internalType": "uint256",
              "name": "receivingChainId",
              "type": "uint256"
            },
            {
              "internalType": "uint256",
              "name": "amount",
              "type": "uint256"
            },
            {
              "internalType": "uint256",
              "name": "expiry",
              "type": "uint256"
            },
            {
              "internalType": "uint256",
              "name": "preparedBlockNumber",
              "type": "uint256"
            }
          ],
          "internalType": "struct ITransactionManager.TransactionData",
          "name": "",
          "type": "tuple"
        }
      ],
      "stateMutability": "nonpayable",
      "type": "function"
    },
    {
      "inputs": [],
      "name": "owner",
      "outputs": [
        {
          "internalType": "address",
          "name": "",
          "type": "address"
        }
      ],
      "stateMutability": "view",
      "type": "function"
    },
    {
      "inputs": [
        {
          "components": [
            {
              "internalType": "address",
              "name": "user",
              "type": "address"
            },
            {
              "internalType": "address",
              "name": "router",
              "type": "address"
            },
            {
              "internalType": "address",
              "name": "sendingAssetId",
              "type": "address"
            },
            {
              "internalType": "address",
              "name": "receivingAssetId",
              "type": "address"
            },
            {
              "internalType": "address",
              "name": "sendingChainFallback",
              "type": "address"
            },
            {
              "internalType": "address",
              "name": "receivingAddress",
              "type": "address"
            },
            {
              "internalType": "address",
              "name": "callTo",
              "type": "address"
            },
            {
              "internalType": "uint256",
              "name": "sendingChainId",
              "type": "uint256"
            },
            {
              "internalType": "uint256",
              "name": "receivingChainId",
              "type": "uint256"
            },
            {
              "internalType": "bytes32",
              "name": "callDataHash",
              "type": "bytes32"
            },
            {
              "internalType": "bytes32",
              "name": "transactionId",
              "type": "bytes32"
            }
          ],
          "internalType": "struct ITransactionManager.InvariantTransactionData",
          "name": "invariantData",
          "type": "tuple"
        },
        {
          "internalType": "uint256",
          "name": "amount",
          "type": "uint256"
        },
        {
          "internalType": "uint256",
          "name": "expiry",
          "type": "uint256"
        },
        {
          "internalType": "bytes",
          "name": "encryptedCallData",
          "type": "bytes"
        },
        {
          "internalType": "bytes",
          "name": "encodedBid",
          "type": "bytes"
        },
        {
          "internalType": "bytes",
          "name": "bidSignature",
          "type": "bytes"
        }
      ],
      "name": "prepare",
      "outputs": [
        {
          "components": [
            {
              "internalType": "address",
              "name": "user",
              "type": "address"
            },
            {
              "internalType": "address",
              "name": "router",
              "type": "address"
            },
            {
              "internalType": "address",
              "name": "sendingAssetId",
              "type": "address"
            },
            {
              "internalType": "address",
              "name": "receivingAssetId",
              "type": "address"
            },
            {
              "internalType": "address",
              "name": "sendingChainFallback",
              "type": "address"
            },
            {
              "internalType": "address",
              "name": "receivingAddress",
              "type": "address"
            },
            {
              "internalType": "address",
              "name": "callTo",
              "type": "address"
            },
            {
              "internalType": "bytes32",
              "name": "callDataHash",
              "type": "bytes32"
            },
            {
              "internalType": "bytes32",
              "name": "transactionId",
              "type": "bytes32"
            },
            {
              "internalType": "uint256",
              "name": "sendingChainId",
              "type": "uint256"
            },
            {
              "internalType": "uint256",
              "name": "receivingChainId",
              "type": "uint256"
            },
            {
              "internalType": "uint256",
              "name": "amount",
              "type": "uint256"
            },
            {
              "internalType": "uint256",
              "name": "expiry",
              "type": "uint256"
            },
            {
              "internalType": "uint256",
              "name": "preparedBlockNumber",
              "type": "uint256"
            }
          ],
          "internalType": "struct ITransactionManager.TransactionData",
          "name": "",
          "type": "tuple"
        }
      ],
      "stateMutability": "payable",
      "type": "function"
    },
    {
      "inputs": [
        {
          "internalType": "address",
          "name": "assetId",
          "type": "address"
        }
      ],
      "name": "removeAssetId",
      "outputs": [],
      "stateMutability": "nonpayable",
      "type": "function"
    },
    {
      "inputs": [
        {
          "internalType": "uint256",
          "name": "amount",
          "type": "uint256"
        },
        {
          "internalType": "address",
          "name": "assetId",
          "type": "address"
        },
        {
          "internalType": "address payable",
          "name": "recipient",
          "type": "address"
        }
      ],
      "name": "removeLiquidity",
      "outputs": [],
      "stateMutability": "nonpayable",
      "type": "function"
    },
    {
      "inputs": [
        {
          "internalType": "address",
          "name": "router",
          "type": "address"
        }
      ],
      "name": "removeRouter",
      "outputs": [],
      "stateMutability": "nonpayable",
      "type": "function"
    },
    {
      "inputs": [],
      "name": "renounce",
      "outputs": [],
      "stateMutability": "nonpayable",
      "type": "function"
    },
    {
      "inputs": [],
      "name": "renounceOwnership",
      "outputs": [],
      "stateMutability": "nonpayable",
      "type": "function"
    },
    {
      "inputs": [],
      "name": "renounced",
      "outputs": [
        {
          "internalType": "bool",
          "name": "",
          "type": "bool"
        }
      ],
      "stateMutability": "view",
      "type": "function"
    },
    {
      "inputs": [
        {
          "internalType": "address",
          "name": "",
          "type": "address"
        },
        {
          "internalType": "address",
          "name": "",
          "type": "address"
        }
      ],
      "name": "routerBalances",
      "outputs": [
        {
          "internalType": "uint256",
          "name": "",
          "type": "uint256"
        }
      ],
      "stateMutability": "view",
      "type": "function"
    },
    {
      "inputs": [
        {
          "internalType": "address",
          "name": "newOwner",
          "type": "address"
        }
      ],
      "name": "transferOwnership",
      "outputs": [],
      "stateMutability": "nonpayable",
      "type": "function"
    },
    {
      "inputs": [
        {
          "internalType": "bytes32",
          "name": "",
          "type": "bytes32"
        }
      ],
      "name": "variantTransactionData",
      "outputs": [
        {
          "internalType": "bytes32",
          "name": "",
          "type": "bytes32"
        }
      ],
      "stateMutability": "view",
      "type": "function"
    }
  ],
  "transactionHash": "0xefcfdffdfbae4ce61058ff3b98d025696397aa5303c26248329644f736558173",
  "args": [
    "4",
    "0xBA3171e092705A09ef68DEaeC86F184B92026236"
  ],
  "solcInputHash": "eab18be3405a9bc10e450b1da3e33792",
  "bytecode": "0x60a06040526005805460ff191690553480156200001b57600080fd5b50604051620033b5380380620033b58339810160408190526200003e91620000cb565b60016000556200004e3362000079565b608091909152600780546001600160a01b0319166001600160a01b0390921691909117905562000108565b600180546001600160a01b038381166001600160a01b0319831681179093556040519116919082907f8be0079c531659141344cd1fd0a4f28419497f9722a3daafe3b4186f6b6457e090600090a35050565b60008060408385031215620000de578182fd5b825160208401519092506001600160a01b0381168114620000fd578182fd5b809150509250929050565b60805161326e62000147600039600081816103230152818161075e0152818161109a015281816118d8015281816119050152611ab6015261326e6000f3fe60806040526004361061012a5760003560e01c80638da5cb5b116100ab578063b4238e841161006f578063b4238e841461037a578063d232c2201461039a578063de38eb3a146103b4578063f2fde38b146103cb578063f31abcc4146103eb578063fd32af2f1461040b57600080fd5b80638da5cb5b146102b957806397eb0088146102e15780639a8a059214610311578063b15be2f514610345578063b1d2618d1461035a57600080fd5b80634910630a116100f25780634910630a1461022d578063543ad1df146102405780635e679856146102575780636ae0b15414610284578063715018a6146102a457600080fd5b806324ca984e1461012f5780632893a6121461015157806334e9393c1461018757806341258b5c146101a7578063445b1e4b146101ed575b600080fd5b34801561013b57600080fd5b5061014f61014a36600461284c565b61041e565b005b34801561015d57600080fd5b5061017161016c366004612a03565b610475565b60405161017e9190613128565b60405180910390f35b34801561019357600080fd5b5061014f6101a236600461284c565b610aa6565b3480156101b357600080fd5b506101df6101c236600461286f565b600260209081526000928352604080842090915290825290205481565b60405190815260200161017e565b3480156101f957600080fd5b5061021d61020836600461284c565b60036020526000908152604090205460ff1681565b604051901515815260200161017e565b61014f61023b366004612b6f565b610af4565b34801561024c57600080fd5b506101df6201518081565b34801561026357600080fd5b506101df6102723660046128c7565b60066020526000908152604090205481565b34801561029057600080fd5b5061014f61029f36600461284c565b610dd5565b3480156102b057600080fd5b5061014f610e20565b3480156102c557600080fd5b506001546040516001600160a01b03909116815260200161017e565b3480156102ed57600080fd5b5061021d6102fc36600461284c565b60046020526000908152604090205460ff1681565b34801561031d57600080fd5b506101df7f000000000000000000000000000000000000000000000000000000000000000081565b34801561035157600080fd5b5061014f610e56565b34801561036657600080fd5b5061014f61037536600461284c565b610e95565b34801561038657600080fd5b506101716103953660046129a7565b610ee0565b3480156103a657600080fd5b5060055461021d9060ff1681565b3480156103c057600080fd5b506101df62278d0081565b3480156103d757600080fd5b5061014f6103e636600461284c565b61141e565b3480156103f757600080fd5b5061014f610406366004612b6f565b6114b9565b6101716104193660046128df565b61165f565b6001546001600160a01b031633146104515760405162461bcd60e51b815260040161044890612e30565b60405180910390fd5b6001600160a01b03166000908152600360205260409020805460ff19166001179055565b61047d612769565b600260005414156104d05760405162461bcd60e51b815260206004820152601f60248201527f5265656e7472616e637947756172643a207265656e7472616e742063616c6c006044820152606401610448565b600260009081556104e08861207f565b90506104fc8861016001358961018001358a6101a001356121bd565b600082815260066020526040902054146105585760405162461bcd60e51b815260206004820152601d60248201527f66756c66696c6c3a20494e56414c49445f56415249414e545f444154410000006044820152606401610448565b4288610180013510156105a05760405162461bcd60e51b815260206004820152601060248201526f199d5b199a5b1b0e881156141254915160821b6044820152606401610448565b6000886101a00135116105f55760405162461bcd60e51b815260206004820152601a60248201527f66756c66696c6c3a20414c52454144595f434f4d504c455445440000000000006044820152606401610448565b610602602089018961284c565b6001600160a01b031661061c896101000135898989612208565b6001600160a01b0316146106725760405162461bcd60e51b815260206004820152601a60248201527f66756c66696c6c3a20494e56414c49445f5349474e41545552450000000000006044820152606401610448565b8761016001358711156106c75760405162461bcd60e51b815260206004820152601c60248201527f66756c66696c6c3a20494e56414c49445f52454c415945525f464545000000006044820152606401610448565b8760e0013584846040516106dc929190612dd8565b6040518091039020146107315760405162461bcd60e51b815260206004820152601a60248201527f66756c66696c6c3a20494e56414c49445f43414c4c5f444154410000000000006044820152606401610448565b61074788610160013589610180013560006121bd565b6000828152600660205260409020556101208801357f0000000000000000000000000000000000000000000000000000000000000000141561087c576107936040890160208a0161284c565b6001600160a01b0316336001600160a01b0316146107f35760405162461bcd60e51b815260206004820152601860248201527f66756c66696c6c3a20524f555445525f4d49534d4154434800000000000000006044820152606401610448565b6101608801356002600061080d60408c0160208d0161284c565b6001600160a01b03166001600160a01b0316815260200190815260200160002060008a6040016020810190610842919061284c565b6001600160a01b03166001600160a01b03168152602001908152602001600020600082825461087191906131de565b90915550610a0e9050565b61016088013587900387156108a5576108a561089e60808b0160608c0161284c565b338a6122e1565b60006108b760e08b0160c08c0161284c565b6001600160a01b031614156108fa5780156108f5576108f56108df60808b0160608c0161284c565b6108ef60c08c0160a08d0161284c565b836122e1565b610a0c565b61091a61090d60808b0160608c0161284c565b6001600160a01b03161590565b1580156109275750600081115b156109515761095161093f60808b0160608c0161284c565b6007546001600160a01b03168361230a565b6007546001600160a01b0316635b5120f761097561090d60808d0160608e0161284c565b610980576000610982565b825b61099260e08d0160c08e0161284c565b6109a260808e0160608f0161284c565b8d60a00160208101906109b5919061284c565b868b8b6040518863ffffffff1660e01b81526004016109d996959493929190612de8565b6000604051808303818588803b1580156109f257600080fd5b505af1158015610a06573d6000803e3d6000fd5b50505050505b505b610100880135610a2460408a0160208b0161284c565b6001600160a01b0316610a3a60208b018b61284c565b6001600160a01b03167f61399d5a2a6b2505b4a43caf76fc59136a7d0c50b01c303f0aa1530289efe4f78b8b8b8b8b8b33604051610a7e97969594939291906130ca565b60405180910390a4610a9536899003890189612a8f565b600160005598975050505050505050565b6001546001600160a01b03163314610ad05760405162461bcd60e51b815260040161044890612e30565b6001600160a01b03166000908152600460205260409020805460ff19166001179055565b6001600160a01b038116610b4a5760405162461bcd60e51b815260206004820152601a60248201527f6164644c69717569646974793a20524f555445525f454d5054590000000000006044820152606401610448565b60008311610b9a5760405162461bcd60e51b815260206004820152601c60248201527f6164644c69717569646974793a20414d4f554e545f49535f5a45524f000000006044820152606401610448565b60055460ff1680610bc357506001600160a01b03811660009081526003602052604090205460ff165b610c0f5760405162461bcd60e51b815260206004820152601860248201527f6164644c69717569646974793a204241445f524f5554455200000000000000006044820152606401610448565b60055460ff1680610c3857506001600160a01b03821660009081526004602052604090205460ff165b610c845760405162461bcd60e51b815260206004820152601760248201527f6164644c69717569646974793a204241445f41535345540000000000000000006044820152606401610448565b6001600160a01b03808216600090815260026020908152604080832093861683529290529081208054859290610cbb9084906131de565b90915550506001600160a01b038216610d2257823414610d1d5760405162461bcd60e51b815260206004820152601c60248201527f6164644c69717569646974793a2056414c55455f4d49534d41544348000000006044820152606401610448565b610d88565b3415610d7c5760405162461bcd60e51b815260206004820152602360248201527f6164644c69717569646974793a204554485f574954485f4552435f5452414e536044820152622322a960e91b6064820152608401610448565b610d8882333086612392565b604080518481523360208201526001600160a01b0380851692908416917f4bd28ccd068c4853d24d35f727ef2a3fea11ce55e8d93461e45f785818e1e139910160405180910390a3505050565b6001546001600160a01b03163314610dff5760405162461bcd60e51b815260040161044890612e30565b6001600160a01b03166000908152600360205260409020805460ff19169055565b6001546001600160a01b03163314610e4a5760405162461bcd60e51b815260040161044890612e30565b610e546000612423565b565b6001546001600160a01b03163314610e805760405162461bcd60e51b815260040161044890612e30565b6005805460ff19166001179055610e54610e20565b6001546001600160a01b03163314610ebf5760405162461bcd60e51b815260040161044890612e30565b6001600160a01b03166000908152600460205260409020805460ff19169055565b610ee8612769565b60026000541415610f3b5760405162461bcd60e51b815260206004820152601f60248201527f5265656e7472616e637947756172643a207265656e7472616e742063616c6c006044820152606401610448565b60026000908155610f4b8661207f565b9050610f67866101600135876101800135886101a001356121bd565b60008281526006602052604090205414610fc35760405162461bcd60e51b815260206004820152601c60248201527f63616e63656c3a20494e56414c49445f56415249414e545f44415441000000006044820152606401610448565b6000866101a00135116110185760405162461bcd60e51b815260206004820152601960248201527f63616e63656c3a20414c52454144595f434f4d504c45544544000000000000006044820152606401610448565b85610160013585111561106d5760405162461bcd60e51b815260206004820152601b60248201527f63616e63656c3a20494e56414c49445f52454c415945525f46454500000000006044820152606401610448565b61108386610160013587610180013560006121bd565b6000828152600660205260409020556101208601357f0000000000000000000000000000000000000000000000000000000000000000141561126857428661018001351061116e576110db604087016020880161284c565b6001600160a01b0316336001600160a01b03161461113b5760405162461bcd60e51b815260206004820152601a60248201527f63616e63656c3a20524f555445525f4d5553545f43414e43454c0000000000006044820152606401610448565b61116961114e606088016040890161284c565b61115e60a0890160808a0161284c565b8861016001356122e1565b611390565b841561122f57611181602087018761284c565b6001600160a01b0316336001600160a01b031614806111cd57506111a8602087018761284c565b6001600160a01b03166111c2876101000135878787612475565b6001600160a01b0316145b6112155760405162461bcd60e51b815260206004820152601960248201527863616e63656c3a20494e56414c49445f5349474e415455524560381b6044820152606401610448565b61122f611228606088016040890161284c565b33876122e1565b610160860135858103908614611262576112626112526060890160408a0161284c565b6108ef60a08a0160808b0161284c565b50611390565b428661018001351061131557611281602087018761284c565b6001600160a01b0316336001600160a01b031614806112cd57506112a8602087018761284c565b6001600160a01b03166112c2876101000135878787612475565b6001600160a01b0316145b6113155760405162461bcd60e51b815260206004820152601960248201527863616e63656c3a20494e56414c49445f5349474e415455524560381b6044820152606401610448565b6101608601356002600061132f60408a0160208b0161284c565b6001600160a01b03168152602081019190915260400160009081209061135b60808a0160608b0161284c565b6001600160a01b03166001600160a01b03168152602001908152602001600020600082825461138a91906131de565b90915550505b6101008601356113a6604088016020890161284c565b6001600160a01b03166113bc602089018961284c565b6001600160a01b03167f5f57de32eb53b76955a73b53e195e3bd70ef42f0d1d9c64d82abefdc47cc37dc8989336040516113f89392919061309a565b60405180910390a461140f36879003870187612a8f565b60016000559695505050505050565b6001546001600160a01b031633146114485760405162461bcd60e51b815260040161044890612e30565b6001600160a01b0381166114ad5760405162461bcd60e51b815260206004820152602660248201527f4f776e61626c653a206e6577206f776e657220697320746865207a65726f206160448201526564647265737360d01b6064820152608401610448565b6114b681612423565b50565b6001600160a01b03811661150f5760405162461bcd60e51b815260206004820181905260248201527f72656d6f76654c69717569646974793a20524543495049454e545f454d5054596044820152606401610448565b6000831161155f5760405162461bcd60e51b815260206004820152601f60248201527f72656d6f76654c69717569646974793a20414d4f554e545f49535f5a45524f006044820152606401610448565b3360009081526002602090815260408083206001600160a01b0386168452909152902054838110156115df5760405162461bcd60e51b815260206004820152602360248201527f72656d6f76654c69717569646974793a20494e53554646494349454e545f46556044820152624e445360e81b6064820152608401610448565b3360009081526002602090815260408083206001600160a01b0387168452909152902084820390556116128383866122e1565b604080518581526001600160a01b03848116602083015285169133917f7da12116be8cb7af4b2d9e9b4a2ca2c3a3243ddd6fd3a94411902367b8eed568910160405180910390a350505050565b611667612769565b600061167660208c018c61284c565b6001600160a01b031614156116c35760405162461bcd60e51b8152602060048201526013602482015272707265706172653a20555345525f454d50545960681b6044820152606401610448565b60006116d560408c0160208d0161284c565b6001600160a01b031614156117245760405162461bcd60e51b8152602060048201526015602482015274707265706172653a20524f555445525f454d50545960581b6044820152606401610448565b60055460ff168061176257506003600061174460408d0160208e0161284c565b6001600160a01b0316815260208101919091526040016000205460ff165b6117a45760405162461bcd60e51b8152602060048201526013602482015272383932b830b9329d102120a22fa927aaaa22a960691b6044820152606401610448565b60006117b660a08c0160808d0161284c565b6001600160a01b0316141561181b5760405162461bcd60e51b815260206004820152602560248201527f707265706172653a2053454e44494e475f434841494e5f46414c4c4241434b5f604482015264454d50545960d81b6064820152608401610448565b600061182d60c08c0160a08d0161284c565b6001600160a01b031614156118845760405162461bcd60e51b815260206004820181905260248201527f707265706172653a20524543454956494e475f414444524553535f454d5054596044820152606401610448565b8961010001358a60e0013514156118d65760405162461bcd60e51b8152602060048201526016602482015275707265706172653a2053414d455f434841494e49445360501b6044820152606401610448565b7f00000000000000000000000000000000000000000000000000000000000000008a60e00135148061192c57507f00000000000000000000000000000000000000000000000000000000000000008a6101000135145b6119785760405162461bcd60e51b815260206004820152601960248201527f707265706172653a20494e56414c49445f434841494e494453000000000000006044820152606401610448565b62015180611986428a6131f6565b10156119d45760405162461bcd60e51b815260206004820152601860248201527f707265706172653a2054494d454f55545f544f4f5f4c4f5700000000000000006044820152606401610448565b62278d006119e2428a6131f6565b1115611a305760405162461bcd60e51b815260206004820152601960248201527f707265706172653a2054494d454f55545f544f4f5f48494748000000000000006044820152606401610448565b6000801b600660008c604051602001611a499190612e65565b6040516020818303038152906040528051906020012081526020019081526020016000205414611ab45760405162461bcd60e51b8152602060048201526016602482015275707265706172653a204449474553545f45584953545360501b6044820152606401610448565b7f00000000000000000000000000000000000000000000000000000000000000008a60e001351415611ccf5760008911611b305760405162461bcd60e51b815260206004820152601760248201527f707265706172653a20414d4f554e545f49535f5a45524f0000000000000000006044820152606401610448565b60055460ff1680611b6e575060046000611b5060608d0160408e0161284c565b6001600160a01b0316815260208101919091526040016000205460ff165b611baf5760405162461bcd60e51b81526020600482015260126024820152711c1c995c185c994e8810905117d054d4d15560721b6044820152606401610448565b611bba8989436121bd565b600660008c604051602001611bcf9190612e65565b60405160208183030381529060405280519060200120815260200190815260200160002081905550611c0d8a604001602081019061090d919061284c565b15611c6657883414611c615760405162461bcd60e51b815260206004820152601760248201527f707265706172653a2056414c55455f4d49534d415443480000000000000000006044820152606401610448565b611eeb565b3415611cb45760405162461bcd60e51b815260206004820152601e60248201527f707265706172653a204554485f574954485f4552435f5452414e5346455200006044820152606401610448565b611c61611cc760608c0160408d0161284c565b33308c612392565b611cdf60408b0160208c0161284c565b6001600160a01b0316336001600160a01b031614611d3f5760405162461bcd60e51b815260206004820152601860248201527f707265706172653a20524f555445525f4d49534d4154434800000000000000006044820152606401610448565b3415611d8d5760405162461bcd60e51b815260206004820181905260248201527f707265706172653a204554485f574954485f524f555445525f505245504152456044820152606401610448565b8860026000611da260408e0160208f0161284c565b6001600160a01b031681526020810191909152604001600090812090611dce60808e0160608f0161284c565b6001600160a01b03166001600160a01b03168152602001908152602001600020541015611e3d5760405162461bcd60e51b815260206004820152601f60248201527f707265706172653a20494e53554646494349454e545f4c4951554944495459006044820152606401610448565b611e488989436121bd565b600660008c604051602001611e5d9190612e65565b6040516020818303038152906040528051906020012081526020019081526020016000208190555088600260008c6020016020810190611e9d919061284c565b6001600160a01b031681526020810191909152604001600090812090611ec960808e0160608f0161284c565b6001600160a01b03168152602081019190915260400160002080549190910390555b604080516101c0810190915260009080611f0860208e018e61284c565b6001600160a01b031681526020018c6020016020810190611f29919061284c565b6001600160a01b03168152602001611f4760608e0160408f0161284c565b6001600160a01b03168152602001611f6560808e0160608f0161284c565b6001600160a01b03168152602001611f8360a08e0160808f0161284c565b6001600160a01b03168152602001611fa160c08e0160a08f0161284c565b6001600160a01b03168152602001611fbf60e08e0160c08f0161284c565b6001600160a01b031681526020018c610120013581526020018c610140013581526020018c60e0013581526020018c610100013581526020018b81526020018a815260200143815250905080610100015181602001516001600160a01b031682600001516001600160a01b03167f9a03967017bba72d6de8f56201584e10828c701f72d0da5705a5b42e73d875ab84338d8d8d8d8d8d604051612069989796959493929190613137565b60405180910390a49a9950505050505050505050565b60408051610160810190915260009081908061209e602086018661284c565b6001600160a01b031681526020018460200160208101906120bf919061284c565b6001600160a01b031681526020016120dd606086016040870161284c565b6001600160a01b031681526020016120fb608086016060870161284c565b6001600160a01b0316815260200161211960a086016080870161284c565b6001600160a01b0316815260200161213760c0860160a0870161284c565b6001600160a01b0316815260200161215560e0860160c0870161284c565b6001600160a01b03168152602001846101200135815260200184610140013581526020018460e00135815260200184610100013581525090508060405160200161219f9190612f45565b60405160208183030381529060405280519060200120915050919050565b60408051606080820183528582526020808301958652918301938452825180830196909652935185830152915184840152805180850390930183526080909301909252805191012090565b6040805180820182528581526020808201868152835191820188905251928101929092526000916122d79061229b906060015b60408051601f1981840301815282825280516020918201207f19457468657265756d205369676e6564204d6573736167653a0a33320000000084830152603c8085019190915282518085039091018152605c909301909152815191012090565b85858080601f0160208091040260200160405190810160405280939291908181526020018383808284376000920191909152506124c092505050565b9695505050505050565b6001600160a01b03831615612300576122fb83838361230a565b505050565b6122fb828261256a565b60405163a9059cbb60e01b81526001600160a01b0383811660048301526024820183905284169063a9059cbb90604401602060405180830381600087803b15801561235457600080fd5b505af1158015612368573d6000803e3d6000fd5b505050506040513d601f19601f8201168201806040525081019061238c91906128a7565b50505050565b6040516323b872dd60e01b81526001600160a01b0384811660048301528381166024830152604482018390528516906323b872dd90606401602060405180830381600087803b1580156123e457600080fd5b505af11580156123f8573d6000803e3d6000fd5b505050506040513d601f19601f8201168201806040525081019061241c91906128a7565b5050505050565b600180546001600160a01b038381166001600160a01b0319831681179093556040519116919082907f8be0079c531659141344cd1fd0a4f28419497f9722a3daafe3b4186f6b6457e090600090a35050565b60408051606081018252858152602080820186905282518084018452600681526518d85b98d95b60d21b818301528284015291516000926122d79161229b9161223b9185910161302b565b60008151604114156124f45760208201516040830151606084015160001a6124ea868285856125a0565b9350505050612564565b81516040141561251c5760208201516040830151612513858383612749565b92505050612564565b60405162461bcd60e51b815260206004820152601f60248201527f45434453413a20696e76616c6964207369676e6174757265206c656e677468006044820152606401610448565b92915050565b6040516001600160a01b0383169082156108fc029083906000818181858888f193505050501580156122fb573d6000803e3d6000fd5b60007f7fffffffffffffffffffffffffffffff5d576e7357a4501ddfe92f46681b20a082111561261d5760405162461bcd60e51b815260206004820152602260248201527f45434453413a20696e76616c6964207369676e6174757265202773272076616c604482015261756560f01b6064820152608401610448565b8360ff16601b148061263257508360ff16601c145b6126895760405162461bcd60e51b815260206004820152602260248201527f45434453413a20696e76616c6964207369676e6174757265202776272076616c604482015261756560f01b6064820152608401610448565b6040805160008082526020820180845288905260ff871692820192909252606081018590526080810184905260019060a0016020604051602081039080840390855afa1580156126dd573d6000803e3d6000fd5b5050604051601f1901519150506001600160a01b0381166127405760405162461bcd60e51b815260206004820152601860248201527f45434453413a20696e76616c6964207369676e617475726500000000000000006044820152606401610448565b95945050505050565b60006001600160ff1b03821660ff83901c601b016122d7868287856125a0565b604080516101c081018252600080825260208201819052918101829052606081018290526080810182905260a0810182905260c0810182905260e08101829052610100810182905261012081018290526101408101829052610160810182905261018081018290526101a081019190915290565b80356127e881613223565b919050565b60008083601f8401126127fe578182fd5b50813567ffffffffffffffff811115612815578182fd5b60208301915083602082850101111561282d57600080fd5b9250929050565b60006101c08284031215612846578081fd5b50919050565b60006020828403121561285d578081fd5b813561286881613223565b9392505050565b60008060408385031215612881578081fd5b823561288c81613223565b9150602083013561289c81613223565b809150509250929050565b6000602082840312156128b8578081fd5b81518015158114612868578182fd5b6000602082840312156128d8578081fd5b5035919050565b6000806000806000806000806000898b036102008112156128fe578586fd5b6101608082121561290d578687fd5b8b9a508a013598505061018089013596506101a089013567ffffffffffffffff80821115612939578687fd5b6129458d838e016127ed565b90985096506101c08c013591508082111561295e578586fd5b61296a8d838e016127ed565b90965094506101e08c0135915080821115612983578384fd5b506129908c828d016127ed565b915080935050809150509295985092959850929598565b60008060008061020085870312156129bd578384fd5b6129c78686612834565b93506101c085013592506101e085013567ffffffffffffffff8111156129eb578283fd5b6129f7878288016127ed565b95989497509550505050565b6000806000806000806102208789031215612a1c578182fd5b612a268888612834565b95506101c087013594506101e087013567ffffffffffffffff80821115612a4b578384fd5b612a578a838b016127ed565b9096509450610200890135915080821115612a70578384fd5b50612a7d89828a016127ed565b979a9699509497509295939492505050565b60006101c08284031215612aa1578081fd5b612aa96131a6565b612ab2836127dd565b8152612ac0602084016127dd565b6020820152612ad1604084016127dd565b6040820152612ae2606084016127dd565b6060820152612af3608084016127dd565b6080820152612b0460a084016127dd565b60a0820152612b1560c084016127dd565b60c082015260e08381013590820152610100808401359082015261012080840135908201526101408084013590820152610160808401359082015261018080840135908201526101a0928301359281019290925250919050565b600080600060608486031215612b83578283fd5b833592506020840135612b9581613223565b91506040840135612ba581613223565b809150509250925092565b81835281816020850137506000828201602090810191909152601f909101601f19169091010190565b612bf382612be6836127dd565b6001600160a01b03169052565b612bff602082016127dd565b6001600160a01b03166020830152612c19604082016127dd565b6001600160a01b03166040830152612c33606082016127dd565b6001600160a01b03166060830152612c4d608082016127dd565b6001600160a01b03166080830152612c6760a082016127dd565b6001600160a01b031660a0830152612c8160c082016127dd565b6001600160a01b031660c083015260e08181013590830152610100808201359083015261012080820135908301526101408082013590830152610160808201359083015261018080820135908301526101a090810135910152565b80516001600160a01b031682526020810151612d0360208401826001600160a01b03169052565b506040810151612d1e60408401826001600160a01b03169052565b506060810151612d3960608401826001600160a01b03169052565b506080810151612d5460808401826001600160a01b03169052565b5060a0810151612d6f60a08401826001600160a01b03169052565b5060c0810151612d8a60c08401826001600160a01b03169052565b5060e08181015190830152610100808201519083015261012080820151908301526101408082015190830152610160808201519083015261018080820151908301526101a090810151910152565b8183823760009101908152919050565b6001600160a01b0387811682528681166020830152851660408201526060810184905260a060808201819052600090612e249083018486612bb0565b98975050505050505050565b6020808252818101527f4f776e61626c653a2063616c6c6572206973206e6f7420746865206f776e6572604082015260600190565b6101608101612e7782612be6856127dd565b612e83602084016127dd565b6001600160a01b03166020830152612e9d604084016127dd565b6001600160a01b03166040830152612eb7606084016127dd565b6001600160a01b03166060830152612ed1608084016127dd565b6001600160a01b03166080830152612eeb60a084016127dd565b6001600160a01b031660a0830152612f0560c084016127dd565b6001600160a01b031660c083015260e083810135908301526101008084013590830152610120808401359083015261014092830135929091019190915290565b81516001600160a01b0316815261016081016020830151612f7160208401826001600160a01b03169052565b506040830151612f8c60408401826001600160a01b03169052565b506060830151612fa760608401826001600160a01b03169052565b506080830151612fc260808401826001600160a01b03169052565b5060a0830151612fdd60a08401826001600160a01b03169052565b5060c0830151612ff860c08401826001600160a01b03169052565b5060e083810151908301526101008084015190830152610120808401519083015261014092830151929091019190915290565b6000602080835283518184015280840151604084015260408401516060808501528051806080860152835b818110156130725782810184015186820160a001528301613056565b81811115613083578460a083880101525b50601f01601f19169390930160a001949350505050565b61020081016130a98286612bd9565b6101c08201939093526001600160a01b03919091166101e090910152919050565b60006102406130d9838b612bd9565b886101c0840152806101e08401526130f4818401888a612bb0565b905082810361020084015261310a818688612bb0565b91505060018060a01b03831661022083015298975050505050505050565b6101c081016125648284612cdc565b6000610240613146838c612cdc565b6001600160a01b038a166101c08401526101e0830181905261316b818401898b612bb0565b9050828103610200840152613181818789612bb0565b9050828103610220840152613197818587612bb0565b9b9a5050505050505050505050565b6040516101c0810167ffffffffffffffff811182821017156131d857634e487b7160e01b600052604160045260246000fd5b60405290565b600082198211156131f1576131f161320d565b500190565b6000828210156132085761320861320d565b500390565b634e487b7160e01b600052601160045260246000fd5b6001600160a01b03811681146114b657600080fdfea2646970667358221220f6bf291837b666a4932cf7abb89684a54289c198c732d19842e1a9f46128ccaf64736f6c63430008040033",
  "devdoc": {
    "author": "Connext <support@connext.network>",
    "kind": "dev",
    "methods": {
      "addAssetId(address)": {
        "params": {
          "assetId": "AssetId to add"
        }
      },
      "addLiquidity(uint256,address,address)": {
        "params": {
          "amount": "The amount of liquidity to add for the router",
          "assetId": "The address (or `address(0)` if native asset) of the                asset you're adding liquidity for",
          "router": "The router you are adding liquidity on behalf of"
        }
      },
      "addRouter(address)": {
        "params": {
          "router": "Router address to add"
        }
      },
      "cancel((address,address,address,address,address,address,address,bytes32,bytes32,uint256,uint256,uint256,uint256,uint256),uint256,bytes)": {
        "params": {
          "relayerFee": "The fee that should go to the relayer when they are                   calling the function for the user",
          "signature": "The user's signature that allows a transaction to be                  cancelled on the receiving chain.",
          "txData": "All of the data (invariant and variant) for a crosschain               transaction. The variant data provided is checked against               what was stored when the `prepare` function was called."
        }
      },
      "fulfill((address,address,address,address,address,address,address,bytes32,bytes32,uint256,uint256,uint256,uint256,uint256),uint256,bytes,bytes)": {
        "params": {
          "callData": "The calldata to be sent to and executed by the                  `FulfillHelper`",
          "relayerFee": "The fee that should go to the relayer when they are                   calling the function on the receiving chain for the user",
          "signature": "The users signature on the invariant data + fee that                  can be used by the router to unlock the transaction on                   the sending chain",
          "txData": "All of the data (invariant and variant) for a crosschain               transaction. The variant data provided is checked against               what was stored when the `prepare` function was called."
        }
      },
      "owner()": {
        "details": "Returns the address of the current owner."
      },
      "prepare((address,address,address,address,address,address,address,uint256,uint256,bytes32,bytes32),uint256,uint256,bytes,bytes,bytes)": {
        "params": {
          "amount": "The amount of the transaction on this chain",
          "bidSignature": "The signature of the bidder on the encoded bid for                     this transaction. Only used within the function for                     event emission. The validity of the bid and                     bidSignature are enforced offchain",
          "encodedBid": "The encoded bid that was accepted by the user for this                   crosschain transfer. It is supplied as a param to the                   function but is only used in event emission",
          "encryptedCallData": "The calldata to be executed when the tx is                          fulfilled. Used in the function to allow the user                          to reconstruct the tx from events. Hash is stored                          onchain to prevent shenanigans.",
          "expiry": "The block.timestamp when the transaction will no longer be               fulfillable and is freely cancellable on this chain",
          "invariantData": "The data for a crosschain transaction that will                      not change between sending and receiving chains.                      The hash of this data is used as the key to store                       the inforamtion that does change between chains                       (amount, expiry,preparedBlock) for verification"
        }
      },
      "removeAssetId(address)": {
        "params": {
          "assetId": "AssetId to remove"
        }
      },
      "removeLiquidity(uint256,address,address)": {
        "params": {
          "amount": "The amount of liquidity to remove for the router",
          "assetId": "The address (or `address(0)` if native asset) of the                asset you're removing liquidity for",
          "recipient": "The address that will receive the liquidity being removed"
        }
      },
      "removeRouter(address)": {
        "params": {
          "router": "Router address to remove"
        }
      },
      "renounceOwnership()": {
        "details": "Leaves the contract without owner. It will not be possible to call `onlyOwner` functions anymore. Can only be called by the current owner. NOTE: Renouncing ownership will leave the contract without an owner, thereby removing any functionality that is only available to the owner."
      },
      "transferOwnership(address)": {
        "details": "Transfers ownership of the contract to a new account (`newOwner`). Can only be called by the current owner."
      }
    },
    "stateVariables": {
      "MAX_TIMEOUT": {
        "details": "Maximum timeout"
      },
      "MIN_TIMEOUT": {
        "details": "Minimum timeout (will be the lowest on the receiving chain)"
      },
      "approvedAssets": {
        "details": "Mapping of allowed assetIds on same chain of contract"
      },
      "approvedRouters": {
        "details": "Mapping of allowed router addresses"
      },
      "chainId": {
        "details": "The chain id of the contract, is passed in to avoid any evm issues"
      },
      "renounced": {
        "details": "Indicates if the ownership has been renounced"
      },
      "routerBalances": {
        "details": "Mapping of router to balance specific to asset"
      },
      "variantTransactionData": {
        "details": "Mapping of hash of `InvariantTransactionData` to the hash"
      }
    },
    "title": "TransactionManager",
    "version": 1
  },
  "userdoc": {
    "kind": "user",
    "methods": {
      "addAssetId(address)": {
        "notice": "Used to add assets on same chain as contract that can         be transferred."
      },
      "addLiquidity(uint256,address,address)": {
        "notice": "This is used by any router to increase their available         liquidity for a given asset."
      },
      "addRouter(address)": {
        "notice": "Used to add routers that can transact crosschain"
      },
      "cancel((address,address,address,address,address,address,address,bytes32,bytes32,uint256,uint256,uint256,uint256,uint256),uint256,bytes)": {
        "notice": "Any crosschain transaction can be cancelled after it has been         created to prevent indefinite lock up of funds. After the         transaction has expired, anyone can cancel it. Before the         expiry, only the recipient of the funds on the given chain is         able to cancel. On the sending chain, this means only the router         is able to cancel before the expiry, while only the user can         prematurely cancel on the receiving chain."
      },
      "fulfill((address,address,address,address,address,address,address,bytes32,bytes32,uint256,uint256,uint256,uint256,uint256),uint256,bytes,bytes)": {
        "notice": "This function completes a crosschain transaction. When called on         the receiving chain, the user reveals their signature on the         invariant parts of the transaction data and is sent the          appropriate amount. The router then uses this signature to         unlock the corresponding funds on the receiving chain, which are         then added back to their available liquidity. The user includes a         relayer fee since it is not assumed they will have gas on the         receiving chain. This function *must* be called before the         transaction expiry has elapsed."
      },
      "prepare((address,address,address,address,address,address,address,uint256,uint256,bytes32,bytes32),uint256,uint256,bytes,bytes,bytes)": {
        "notice": "This function creates a crosschain transaction. When called on         the sending chain, the user is expected to lock up funds. When         called on the receiving chain, the router deducts the transfer         amount from the available liquidity. The majority of the         information about a given transfer does not change between chains,         with three notable exceptions: `amount`, `expiry`, and          `preparedBlock`. The `amount` and `expiry` are decremented         between sending and receiving chains to provide an incentive for          the router to complete the transaction and time for the router to         fulfill the transaction on the sending chain after the unlocking         signature is revealed, respectively."
      },
      "removeAssetId(address)": {
        "notice": "Used to remove assets on same chain as contract that can         be transferred."
      },
      "removeLiquidity(uint256,address,address)": {
        "notice": "This is used by any router to decrease their available         liquidity for a given asset."
      },
      "removeRouter(address)": {
        "notice": "Used to remove routers that can transact crosschain"
      },
      "renounce()": {
        "notice": "Removes any ownership privelenges. Used to allow          arbitrary assets and routers"
      }
    },
    "notice": "This contract holds the logic to facilitate crosschain transactions.         Transactions go through three phases:         1. Route Auction: User broadcasts to our network signalling their          desired route. Routers respond with sealed bids containing          commitments to fulfilling the transaction within a certain time and          price range.         2. Prepare: Once the auction is completed, the transaction can be          prepared. The user submits a transaction to `TransactionManager`          contract on sender-side chain containing router's signed bid. This          transaction locks up the users funds on the sending chiain. Upon          detecting an event containing their signed bid from the chain,          router submits the same transaction to `TransactionManager` on the          receiver-side chain, and locks up a corresponding amount of          liquidity. The amount locked on the receiving chain is `sending          amount - auction fee` so the router is incentivized to complete the          transaction.         3. Fulfill: Upon detecting the `TransactionPrepared` event on the          receiver-side chain, the user signs a message and sends it to a          relayer, who will earn a fee for submission. The relayer (which may          be the router) then submits the message to the `TransactionManager`          to complete their transaction on receiver-side chain and claim the          funds locked by the router. A relayer is used here to allow users          to submit transactions with arbitrary calldata on the receiving          chain without needing gas to do so. The router then submits the          same signed message and completes transaction on sender-side,          unlocking the original `amount`.         If a transaction is not fulfilled within a fixed timeout, it          reverts and can be reclaimed by the party that called `prepare` on          each chain (initiator). Additionally, transactions can be cancelled          unilaterally by the person owed funds on that chain (router for          sending chain, user for receiving chain) prior to expiry.",
    "version": 1
  },
  "storageLayout": {
    "storage": [
      {
        "astId": 114,
        "contract": "contracts/TransactionManager.sol:TransactionManager",
        "label": "_status",
        "offset": 0,
        "slot": "0",
        "type": "t_uint256"
      },
      {
        "astId": 7,
        "contract": "contracts/TransactionManager.sol:TransactionManager",
        "label": "_owner",
        "offset": 0,
        "slot": "1",
        "type": "t_address"
      },
      {
        "astId": 1539,
        "contract": "contracts/TransactionManager.sol:TransactionManager",
        "label": "routerBalances",
        "offset": 0,
        "slot": "2",
        "type": "t_mapping(t_address,t_mapping(t_address,t_uint256))"
      },
      {
        "astId": 1544,
        "contract": "contracts/TransactionManager.sol:TransactionManager",
        "label": "approvedRouters",
        "offset": 0,
        "slot": "3",
        "type": "t_mapping(t_address,t_bool)"
      },
      {
        "astId": 1549,
        "contract": "contracts/TransactionManager.sol:TransactionManager",
        "label": "approvedAssets",
        "offset": 0,
        "slot": "4",
        "type": "t_mapping(t_address,t_bool)"
      },
      {
        "astId": 1553,
        "contract": "contracts/TransactionManager.sol:TransactionManager",
        "label": "renounced",
        "offset": 0,
        "slot": "5",
        "type": "t_bool"
      },
      {
        "astId": 1558,
        "contract": "contracts/TransactionManager.sol:TransactionManager",
        "label": "variantTransactionData",
        "offset": 0,
        "slot": "6",
        "type": "t_mapping(t_bytes32,t_bytes32)"
      },
      {
        "astId": 1572,
        "contract": "contracts/TransactionManager.sol:TransactionManager",
        "label": "interpreter",
        "offset": 0,
        "slot": "7",
        "type": "t_contract(IFulfillInterpreter)2875"
      }
    ],
    "types": {
      "t_address": {
        "encoding": "inplace",
        "label": "address",
        "numberOfBytes": "20"
      },
      "t_bool": {
        "encoding": "inplace",
        "label": "bool",
        "numberOfBytes": "1"
      },
      "t_bytes32": {
        "encoding": "inplace",
        "label": "bytes32",
        "numberOfBytes": "32"
      },
      "t_contract(IFulfillInterpreter)2875": {
        "encoding": "inplace",
        "label": "contract IFulfillInterpreter",
        "numberOfBytes": "20"
      },
      "t_mapping(t_address,t_bool)": {
        "encoding": "mapping",
        "key": "t_address",
        "label": "mapping(address => bool)",
        "numberOfBytes": "32",
        "value": "t_bool"
      },
      "t_mapping(t_address,t_mapping(t_address,t_uint256))": {
        "encoding": "mapping",
        "key": "t_address",
        "label": "mapping(address => mapping(address => uint256))",
        "numberOfBytes": "32",
        "value": "t_mapping(t_address,t_uint256)"
      },
      "t_mapping(t_address,t_uint256)": {
        "encoding": "mapping",
        "key": "t_address",
        "label": "mapping(address => uint256)",
        "numberOfBytes": "32",
        "value": "t_uint256"
      },
      "t_mapping(t_bytes32,t_bytes32)": {
        "encoding": "mapping",
        "key": "t_bytes32",
        "label": "mapping(bytes32 => bytes32)",
        "numberOfBytes": "32",
        "value": "t_bytes32"
      },
      "t_uint256": {
        "encoding": "inplace",
        "label": "uint256",
        "numberOfBytes": "32"
      }
    }
  }
}