{
  "address": "0xC11EA0719109BbDFB4580071Db285FC10568d0Eb",
  "abi": [
    {
      "inputs": [
        {
          "internalType": "uint256",
          "name": "_domain",
          "type": "uint256"
        },
        {
          "internalType": "address payable",
          "name": "_bridgeRouter",
          "type": "address"
        },
        {
          "internalType": "address",
          "name": "_tokenRegistry",
          "type": "address"
        },
        {
          "internalType": "address",
          "name": "_wrappedNative",
          "type": "address"
        }
      ],
      "stateMutability": "nonpayable",
      "type": "constructor"
    },
    {
      "anonymous": false,
      "inputs": [
        {
          "indexed": false,
          "internalType": "bytes32",
          "name": "canonicalId",
          "type": "bytes32"
        },
        {
          "indexed": false,
          "internalType": "uint32",
          "name": "domain",
          "type": "uint32"
        },
        {
          "indexed": false,
          "internalType": "address",
          "name": "adoptedAsset",
          "type": "address"
        },
        {
          "indexed": false,
          "internalType": "address",
          "name": "supportedAsset",
          "type": "address"
        },
        {
          "indexed": false,
          "internalType": "address",
          "name": "caller",
          "type": "address"
        }
      ],
      "name": "AssetAdded",
      "type": "event"
    },
    {
      "anonymous": false,
      "inputs": [
        {
          "indexed": false,
          "internalType": "bool",
          "name": "renounced",
          "type": "bool"
        }
      ],
      "name": "AssetOwnershipRenounced",
      "type": "event"
    },
    {
      "anonymous": false,
      "inputs": [
        {
          "indexed": false,
          "internalType": "uint256",
          "name": "timestamp",
          "type": "uint256"
        }
      ],
      "name": "AssetOwnershipRenunciationProposed",
      "type": "event"
    },
    {
      "anonymous": false,
      "inputs": [
        {
          "indexed": false,
          "internalType": "bytes32",
          "name": "canonicalId",
          "type": "bytes32"
        },
        {
          "indexed": false,
          "internalType": "address",
          "name": "caller",
          "type": "address"
        }
      ],
      "name": "AssetRemoved",
      "type": "event"
    },
    {
      "anonymous": false,
      "inputs": [
        {
          "indexed": true,
          "internalType": "bytes32",
          "name": "transactionId",
          "type": "bytes32"
        },
        {
          "indexed": true,
          "internalType": "address",
          "name": "recipient",
          "type": "address"
        },
        {
          "indexed": true,
          "internalType": "address",
          "name": "router",
          "type": "address"
        },
        {
          "components": [
            {
              "internalType": "address",
              "name": "recipient",
              "type": "address"
            },
            {
              "internalType": "address",
              "name": "callTo",
              "type": "address"
            },
            {
              "internalType": "bytes",
              "name": "callData",
              "type": "bytes"
            },
            {
              "internalType": "uint32",
              "name": "originDomain",
              "type": "uint32"
            },
            {
              "internalType": "uint32",
              "name": "destinationDomain",
              "type": "uint32"
            }
          ],
          "indexed": false,
          "internalType": "struct TransactionManager.CallParams",
          "name": "params",
          "type": "tuple"
        },
        {
          "indexed": false,
          "internalType": "uint256",
          "name": "nonce",
          "type": "uint256"
        },
        {
          "indexed": false,
          "internalType": "address",
          "name": "localAsset",
          "type": "address"
        },
        {
          "indexed": false,
          "internalType": "address",
          "name": "transactingAsset",
          "type": "address"
        },
        {
          "indexed": false,
          "internalType": "uint256",
          "name": "localAmount",
          "type": "uint256"
        },
        {
          "indexed": false,
          "internalType": "uint256",
          "name": "transactingAmount",
          "type": "uint256"
        },
        {
          "indexed": false,
          "internalType": "address",
          "name": "caller",
          "type": "address"
        }
      ],
      "name": "Fulfilled",
      "type": "event"
    },
    {
      "anonymous": false,
      "inputs": [
        {
          "indexed": false,
          "internalType": "address",
          "name": "router",
          "type": "address"
        },
        {
          "indexed": false,
          "internalType": "address",
          "name": "local",
          "type": "address"
        },
        {
          "indexed": false,
          "internalType": "bytes32",
          "name": "canonicalId",
          "type": "bytes32"
        },
        {
          "indexed": false,
          "internalType": "uint256",
          "name": "amount",
          "type": "uint256"
        },
        {
          "indexed": false,
          "internalType": "address",
          "name": "caller",
          "type": "address"
        }
      ],
      "name": "LiquidityAdded",
      "type": "event"
    },
    {
      "anonymous": false,
      "inputs": [
        {
          "indexed": true,
          "internalType": "address",
          "name": "router",
          "type": "address"
        },
        {
          "indexed": false,
          "internalType": "address",
          "name": "recipient",
          "type": "address"
        },
        {
          "indexed": false,
          "internalType": "address",
          "name": "local",
          "type": "address"
        },
        {
          "indexed": false,
          "internalType": "uint256",
          "name": "amount",
          "type": "uint256"
        },
        {
          "indexed": false,
          "internalType": "address",
          "name": "caller",
          "type": "address"
        }
      ],
      "name": "LiquidityRemoved",
      "type": "event"
    },
    {
      "anonymous": false,
      "inputs": [
        {
          "indexed": true,
          "internalType": "address",
          "name": "proposedOwner",
          "type": "address"
        }
      ],
      "name": "OwnershipProposed",
      "type": "event"
    },
    {
      "anonymous": false,
      "inputs": [
        {
          "indexed": true,
          "internalType": "address",
          "name": "previousOwner",
          "type": "address"
        },
        {
          "indexed": true,
          "internalType": "address",
          "name": "newOwner",
          "type": "address"
        }
      ],
      "name": "OwnershipTransferred",
      "type": "event"
    },
    {
      "anonymous": false,
      "inputs": [
        {
          "indexed": true,
          "internalType": "bytes32",
          "name": "transactionId",
          "type": "bytes32"
        },
        {
          "indexed": true,
          "internalType": "address",
          "name": "recipient",
          "type": "address"
        },
        {
          "components": [
            {
              "internalType": "address",
              "name": "recipient",
              "type": "address"
            },
            {
              "internalType": "address",
              "name": "callTo",
              "type": "address"
            },
            {
              "internalType": "bytes",
              "name": "callData",
              "type": "bytes"
            },
            {
              "internalType": "uint32",
              "name": "originDomain",
              "type": "uint32"
            },
            {
              "internalType": "uint32",
              "name": "destinationDomain",
              "type": "uint32"
            }
          ],
          "indexed": false,
          "internalType": "struct TransactionManager.CallParams",
          "name": "params",
          "type": "tuple"
        },
        {
          "indexed": false,
          "internalType": "address",
          "name": "transactingAsset",
          "type": "address"
        },
        {
          "indexed": false,
          "internalType": "address",
          "name": "localAsset",
          "type": "address"
        },
        {
          "indexed": false,
          "internalType": "uint256",
          "name": "transactingAmount",
          "type": "uint256"
        },
        {
          "indexed": false,
          "internalType": "uint256",
          "name": "localAmount",
          "type": "uint256"
        },
        {
          "indexed": false,
          "internalType": "uint256",
          "name": "nonce",
          "type": "uint256"
        },
        {
          "indexed": false,
          "internalType": "address",
          "name": "caller",
          "type": "address"
        }
      ],
      "name": "Prepared",
      "type": "event"
    },
    {
      "anonymous": false,
      "inputs": [
        {
          "indexed": true,
          "internalType": "bytes32",
          "name": "transactionId",
          "type": "bytes32"
        },
        {
          "indexed": true,
          "internalType": "address",
          "name": "recipient",
          "type": "address"
        },
        {
          "indexed": true,
          "internalType": "address",
          "name": "router",
          "type": "address"
        },
        {
          "indexed": false,
          "internalType": "address",
          "name": "localAsset",
          "type": "address"
        },
        {
          "indexed": false,
          "internalType": "uint256",
          "name": "localAmount",
          "type": "uint256"
        },
        {
          "indexed": false,
          "internalType": "bytes32",
          "name": "externalHash",
          "type": "bytes32"
        },
        {
          "components": [
            {
              "internalType": "address",
              "name": "router",
              "type": "address"
            },
            {
              "internalType": "uint256",
              "name": "amount",
              "type": "uint256"
            },
            {
              "internalType": "bytes32",
              "name": "externalHash",
              "type": "bytes32"
            }
          ],
          "indexed": false,
          "internalType": "struct TransactionManager.FulfilledTransaction",
          "name": "fulfilled",
          "type": "tuple"
        },
        {
          "indexed": false,
          "internalType": "address",
          "name": "caller",
          "type": "address"
        }
      ],
      "name": "Reconciled",
      "type": "event"
    },
    {
      "anonymous": false,
      "inputs": [
        {
          "indexed": false,
          "internalType": "address",
          "name": "router",
          "type": "address"
        },
        {
          "indexed": false,
          "internalType": "address",
          "name": "caller",
          "type": "address"
        }
      ],
      "name": "RouterAdded",
      "type": "event"
    },
    {
      "anonymous": false,
      "inputs": [
        {
          "indexed": false,
          "internalType": "bool",
          "name": "renounced",
          "type": "bool"
        }
      ],
      "name": "RouterOwnershipRenounced",
      "type": "event"
    },
    {
      "anonymous": false,
      "inputs": [
        {
          "indexed": false,
          "internalType": "uint256",
          "name": "timestamp",
          "type": "uint256"
        }
      ],
      "name": "RouterOwnershipRenunciationProposed",
      "type": "event"
    },
    {
      "anonymous": false,
      "inputs": [
        {
          "indexed": false,
          "internalType": "address",
          "name": "router",
          "type": "address"
        },
        {
          "indexed": false,
          "internalType": "address",
          "name": "caller",
          "type": "address"
        }
      ],
      "name": "RouterRemoved",
      "type": "event"
    },
    {
      "anonymous": false,
      "inputs": [
        {
          "indexed": false,
          "internalType": "bytes32",
          "name": "canonicalId",
          "type": "bytes32"
        },
        {
          "indexed": false,
          "internalType": "uint32",
          "name": "domain",
          "type": "uint32"
        },
        {
          "indexed": false,
          "internalType": "address",
          "name": "swapPool",
          "type": "address"
        },
        {
          "indexed": false,
          "internalType": "address",
          "name": "caller",
          "type": "address"
        }
      ],
      "name": "StableSwapAdded",
      "type": "event"
    },
    {
      "inputs": [],
      "name": "acceptProposedOwner",
      "outputs": [],
      "stateMutability": "nonpayable",
      "type": "function"
    },
    {
      "inputs": [
        {
          "internalType": "uint256",
          "name": "amount",
          "type": "uint256"
        },
        {
          "internalType": "address",
          "name": "local",
          "type": "address"
        }
      ],
      "name": "addLiquidity",
      "outputs": [],
      "stateMutability": "payable",
      "type": "function"
    },
    {
      "inputs": [
        {
          "internalType": "uint256",
          "name": "amount",
          "type": "uint256"
        },
        {
          "internalType": "address",
          "name": "local",
          "type": "address"
        },
        {
          "internalType": "address",
          "name": "router",
          "type": "address"
        }
      ],
      "name": "addLiquidityFor",
      "outputs": [],
      "stateMutability": "payable",
      "type": "function"
    },
    {
      "inputs": [
        {
          "internalType": "address",
          "name": "router",
          "type": "address"
        }
      ],
      "name": "addRelayerFees",
      "outputs": [],
      "stateMutability": "payable",
      "type": "function"
    },
    {
      "inputs": [
        {
          "internalType": "address",
          "name": "router",
          "type": "address"
        }
      ],
      "name": "addRouter",
      "outputs": [],
      "stateMutability": "nonpayable",
      "type": "function"
    },
    {
      "inputs": [
        {
          "components": [
            {
              "internalType": "uint32",
              "name": "domain",
              "type": "uint32"
            },
            {
              "internalType": "bytes32",
              "name": "id",
              "type": "bytes32"
            }
          ],
          "internalType": "struct BridgeMessage.TokenId",
          "name": "canonical",
          "type": "tuple"
        },
        {
          "internalType": "address",
          "name": "stableSwapPool",
          "type": "address"
        }
      ],
      "name": "addStableSwapPool",
      "outputs": [],
      "stateMutability": "nonpayable",
      "type": "function"
    },
    {
      "inputs": [
        {
          "internalType": "address",
          "name": "",
          "type": "address"
        }
      ],
      "name": "adoptedToCanonical",
      "outputs": [
        {
          "internalType": "uint32",
          "name": "domain",
          "type": "uint32"
        },
        {
          "internalType": "bytes32",
          "name": "id",
          "type": "bytes32"
        }
      ],
      "stateMutability": "view",
      "type": "function"
    },
    {
      "inputs": [
        {
          "internalType": "bytes32",
          "name": "",
          "type": "bytes32"
        }
      ],
      "name": "adoptedToLocalPools",
      "outputs": [
        {
          "internalType": "contract IStableSwap",
          "name": "",
          "type": "address"
        }
      ],
      "stateMutability": "view",
      "type": "function"
    },
    {
      "inputs": [
        {
          "internalType": "bytes32",
          "name": "",
          "type": "bytes32"
        }
      ],
      "name": "approvedAssets",
      "outputs": [
        {
          "internalType": "bool",
          "name": "",
          "type": "bool"
        }
      ],
      "stateMutability": "view",
      "type": "function"
    },
    {
      "inputs": [
        {
          "internalType": "address",
          "name": "",
          "type": "address"
        }
      ],
      "name": "approvedRouters",
      "outputs": [
        {
          "internalType": "bool",
          "name": "",
          "type": "bool"
        }
      ],
      "stateMutability": "view",
      "type": "function"
    },
    {
      "inputs": [],
      "name": "assetOwnershipTimestamp",
      "outputs": [
        {
          "internalType": "uint256",
          "name": "",
          "type": "uint256"
        }
      ],
      "stateMutability": "view",
      "type": "function"
    },
    {
      "inputs": [],
      "name": "bridgeRouter",
      "outputs": [
        {
          "internalType": "contract BridgeRouter",
          "name": "",
          "type": "address"
        }
      ],
      "stateMutability": "view",
      "type": "function"
    },
    {
      "inputs": [
        {
          "internalType": "bytes32",
          "name": "",
          "type": "bytes32"
        }
      ],
      "name": "canonicalToAdopted",
      "outputs": [
        {
          "internalType": "address",
          "name": "",
          "type": "address"
        }
      ],
      "stateMutability": "view",
      "type": "function"
    },
    {
      "inputs": [],
      "name": "delay",
      "outputs": [
        {
          "internalType": "uint256",
          "name": "",
          "type": "uint256"
        }
      ],
      "stateMutability": "view",
      "type": "function"
    },
    {
      "inputs": [],
      "name": "domain",
      "outputs": [
        {
          "internalType": "uint256",
          "name": "",
          "type": "uint256"
        }
      ],
      "stateMutability": "view",
      "type": "function"
    },
    {
      "inputs": [
        {
          "components": [
            {
              "components": [
                {
                  "internalType": "address",
                  "name": "recipient",
                  "type": "address"
                },
                {
                  "internalType": "address",
                  "name": "callTo",
                  "type": "address"
                },
                {
                  "internalType": "bytes",
                  "name": "callData",
                  "type": "bytes"
                },
                {
                  "internalType": "uint32",
                  "name": "originDomain",
                  "type": "uint32"
                },
                {
                  "internalType": "uint32",
                  "name": "destinationDomain",
                  "type": "uint32"
                }
              ],
              "internalType": "struct TransactionManager.CallParams",
              "name": "params",
              "type": "tuple"
            },
            {
              "internalType": "address",
              "name": "local",
              "type": "address"
            },
            {
              "internalType": "address",
              "name": "router",
              "type": "address"
            },
            {
              "internalType": "uint32",
              "name": "feePercentage",
              "type": "uint32"
            },
            {
              "internalType": "uint256",
              "name": "nonce",
              "type": "uint256"
            },
            {
              "internalType": "uint256",
              "name": "amount",
              "type": "uint256"
            },
            {
              "internalType": "bytes",
              "name": "relayerSignature",
              "type": "bytes"
            }
          ],
          "internalType": "struct TransactionManager.FulfillArgs",
          "name": "_args",
          "type": "tuple"
        }
      ],
      "name": "fulfill",
      "outputs": [
        {
          "internalType": "bytes32",
          "name": "",
          "type": "bytes32"
        }
      ],
      "stateMutability": "nonpayable",
      "type": "function"
    },
    {
      "inputs": [],
      "name": "interpreter",
      "outputs": [
        {
          "internalType": "contract IFulfillInterpreter",
          "name": "",
          "type": "address"
        }
      ],
      "stateMutability": "view",
      "type": "function"
    },
    {
      "inputs": [],
      "name": "isAssetOwnershipRenounced",
      "outputs": [
        {
          "internalType": "bool",
          "name": "",
          "type": "bool"
        }
      ],
      "stateMutability": "view",
      "type": "function"
    },
    {
      "inputs": [],
      "name": "isRouterOwnershipRenounced",
      "outputs": [
        {
          "internalType": "bool",
          "name": "",
          "type": "bool"
        }
      ],
      "stateMutability": "view",
      "type": "function"
    },
    {
      "inputs": [],
      "name": "nonce",
      "outputs": [
        {
          "internalType": "uint256",
          "name": "",
          "type": "uint256"
        }
      ],
      "stateMutability": "view",
      "type": "function"
    },
    {
      "inputs": [],
      "name": "owner",
      "outputs": [
        {
          "internalType": "address",
          "name": "",
          "type": "address"
        }
      ],
      "stateMutability": "view",
      "type": "function"
    },
    {
      "inputs": [
        {
          "components": [
            {
              "components": [
                {
                  "internalType": "address",
                  "name": "recipient",
                  "type": "address"
                },
                {
                  "internalType": "address",
                  "name": "callTo",
                  "type": "address"
                },
                {
                  "internalType": "bytes",
                  "name": "callData",
                  "type": "bytes"
                },
                {
                  "internalType": "uint32",
                  "name": "originDomain",
                  "type": "uint32"
                },
                {
                  "internalType": "uint32",
                  "name": "destinationDomain",
                  "type": "uint32"
                }
              ],
              "internalType": "struct TransactionManager.CallParams",
              "name": "params",
              "type": "tuple"
            },
            {
              "internalType": "address",
              "name": "transactingAssetId",
              "type": "address"
            },
            {
              "internalType": "uint256",
              "name": "amount",
              "type": "uint256"
            }
          ],
          "internalType": "struct TransactionManager.PrepareArgs",
          "name": "_args",
          "type": "tuple"
        }
      ],
      "name": "prepare",
      "outputs": [
        {
          "internalType": "bytes32",
          "name": "",
          "type": "bytes32"
        }
      ],
      "stateMutability": "payable",
      "type": "function"
    },
    {
      "inputs": [],
      "name": "proposeAssetOwnershipRenunciation",
      "outputs": [],
      "stateMutability": "nonpayable",
      "type": "function"
    },
    {
      "inputs": [
        {
          "internalType": "address",
          "name": "newlyProposed",
          "type": "address"
        }
      ],
      "name": "proposeNewOwner",
      "outputs": [],
      "stateMutability": "nonpayable",
      "type": "function"
    },
    {
      "inputs": [],
      "name": "proposeRouterOwnershipRenunciation",
      "outputs": [],
      "stateMutability": "nonpayable",
      "type": "function"
    },
    {
      "inputs": [],
      "name": "proposed",
      "outputs": [
        {
          "internalType": "address",
          "name": "",
          "type": "address"
        }
      ],
      "stateMutability": "view",
      "type": "function"
    },
    {
      "inputs": [],
      "name": "proposedTimestamp",
      "outputs": [
        {
          "internalType": "uint256",
          "name": "",
          "type": "uint256"
        }
      ],
      "stateMutability": "view",
      "type": "function"
    },
    {
      "inputs": [
        {
          "internalType": "bytes32",
          "name": "_id",
          "type": "bytes32"
        },
        {
          "internalType": "address",
          "name": "_local",
          "type": "address"
        },
        {
          "internalType": "address",
          "name": "_recipient",
          "type": "address"
        },
        {
          "internalType": "uint256",
          "name": "_amount",
          "type": "uint256"
        },
        {
          "internalType": "bytes32",
          "name": "_externalHash",
          "type": "bytes32"
        }
      ],
      "name": "reconcile",
      "outputs": [],
      "stateMutability": "payable",
      "type": "function"
    },
    {
      "inputs": [
        {
          "internalType": "bytes32",
          "name": "",
          "type": "bytes32"
        }
      ],
      "name": "reconciledTransactions",
      "outputs": [
        {
          "internalType": "bytes32",
          "name": "",
          "type": "bytes32"
        }
      ],
      "stateMutability": "view",
      "type": "function"
    },
    {
      "inputs": [
        {
          "internalType": "bytes32",
          "name": "canonicalId",
          "type": "bytes32"
        },
        {
          "internalType": "address",
          "name": "adoptedAssetId",
          "type": "address"
        }
      ],
      "name": "removeAssetId",
      "outputs": [],
      "stateMutability": "nonpayable",
      "type": "function"
    },
    {
      "inputs": [
        {
          "internalType": "uint256",
          "name": "amount",
          "type": "uint256"
        },
        {
          "internalType": "address",
          "name": "local",
          "type": "address"
        },
        {
          "internalType": "address payable",
          "name": "recipient",
          "type": "address"
        }
      ],
      "name": "removeLiquidity",
      "outputs": [],
      "stateMutability": "nonpayable",
      "type": "function"
    },
    {
      "inputs": [
        {
          "internalType": "uint256",
          "name": "amount",
          "type": "uint256"
        },
        {
          "internalType": "address payable",
          "name": "recipient",
          "type": "address"
        }
      ],
      "name": "removeRelayerFees",
      "outputs": [],
      "stateMutability": "nonpayable",
      "type": "function"
    },
    {
      "inputs": [
        {
          "internalType": "address",
          "name": "router",
          "type": "address"
        }
      ],
      "name": "removeRouter",
      "outputs": [],
      "stateMutability": "nonpayable",
      "type": "function"
    },
    {
      "inputs": [],
      "name": "renounceAssetOwnership",
      "outputs": [],
      "stateMutability": "nonpayable",
      "type": "function"
    },
    {
      "inputs": [],
      "name": "renounceOwnership",
      "outputs": [],
      "stateMutability": "nonpayable",
      "type": "function"
    },
    {
      "inputs": [],
      "name": "renounceRouterOwnership",
      "outputs": [],
      "stateMutability": "nonpayable",
      "type": "function"
    },
    {
      "inputs": [],
      "name": "renounced",
      "outputs": [
        {
          "internalType": "bool",
          "name": "",
          "type": "bool"
        }
      ],
      "stateMutability": "view",
      "type": "function"
    },
    {
      "inputs": [
        {
          "internalType": "bytes32",
          "name": "",
          "type": "bytes32"
        }
      ],
      "name": "routedTransactions",
      "outputs": [
        {
          "internalType": "address",
          "name": "router",
          "type": "address"
        },
        {
          "internalType": "uint256",
          "name": "amount",
          "type": "uint256"
        },
        {
          "internalType": "bytes32",
          "name": "externalHash",
          "type": "bytes32"
        }
      ],
      "stateMutability": "view",
      "type": "function"
    },
    {
      "inputs": [
        {
          "internalType": "bytes32",
          "name": "",
          "type": "bytes32"
        }
      ],
      "name": "routedTransactionsGas",
      "outputs": [
        {
          "internalType": "uint256",
          "name": "gasUsed",
          "type": "uint256"
        },
        {
          "internalType": "uint256",
          "name": "gasPrice",
          "type": "uint256"
        }
      ],
      "stateMutability": "view",
      "type": "function"
    },
    {
      "inputs": [
        {
          "internalType": "address",
          "name": "",
          "type": "address"
        },
        {
          "internalType": "address",
          "name": "",
          "type": "address"
        }
      ],
      "name": "routerBalances",
      "outputs": [
        {
          "internalType": "uint256",
          "name": "",
          "type": "uint256"
        }
      ],
      "stateMutability": "view",
      "type": "function"
    },
    {
      "inputs": [],
      "name": "routerOwnershipTimestamp",
      "outputs": [
        {
          "internalType": "uint256",
          "name": "",
          "type": "uint256"
        }
      ],
      "stateMutability": "view",
      "type": "function"
    },
    {
      "inputs": [
        {
          "internalType": "address",
          "name": "",
          "type": "address"
        }
      ],
      "name": "routerRelayerFees",
      "outputs": [
        {
          "internalType": "uint256",
          "name": "",
          "type": "uint256"
        }
      ],
      "stateMutability": "view",
      "type": "function"
    },
    {
      "inputs": [
        {
          "components": [
            {
              "internalType": "uint32",
              "name": "domain",
              "type": "uint32"
            },
            {
              "internalType": "bytes32",
              "name": "id",
              "type": "bytes32"
            }
          ],
          "internalType": "struct BridgeMessage.TokenId",
          "name": "canonical",
          "type": "tuple"
        },
        {
          "internalType": "address",
          "name": "adoptedAssetId",
          "type": "address"
        },
        {
          "internalType": "address",
          "name": "stableSwapPool",
          "type": "address"
        }
      ],
      "name": "setupAsset",
      "outputs": [],
      "stateMutability": "nonpayable",
      "type": "function"
    },
    {
      "inputs": [],
      "name": "tokenRegistry",
      "outputs": [
        {
          "internalType": "contract TokenRegistry",
          "name": "",
          "type": "address"
        }
      ],
      "stateMutability": "view",
      "type": "function"
    },
    {
      "inputs": [],
      "name": "wrapper",
      "outputs": [
        {
          "internalType": "contract IWrapped",
          "name": "",
          "type": "address"
        }
      ],
      "stateMutability": "view",
      "type": "function"
    }
  ],
  "transactionHash": "0x06239783b88db3a819d53998653e953b162c317ccec9f70e45cffcf429ca257c",
  "args": [
    2000,
    "0xfC716d83325A6d3dcEB50ac56a960d2D5929d2e2",
    "0x885A8bd4be130422AEB1Eb9Eeb9513a5D2102cad",
    "0xc778417E063141139Fce010982780140Aa0cD5Ab"
  ],
  "numDeployments": 1,
  "solcInputHash": "caf1f8d2ea867a65dab9e8d70d6fd700",
  "bytecode": "0x60a06040526000600a553480156200001657600080fd5b5060405162004bc438038062004bc483398101604081905262000039916200016b565b60016000556200004933620000eb565b6080849052600880546001600160a01b0319166001600160a01b0385161790556040513090620000799062000144565b6001600160a01b039091168152602001604051809103906000f080158015620000a6573d6000803e3d6000fd5b50600b80546001600160a01b03199081166001600160a01b0393841617909155600c805482169483169490941790935560098054909316911617905550620001c79050565b600180546001600160a01b038381166001600160a01b0319831681179093556000600381905560405191909216929183917f8be0079c531659141344cd1fd0a4f28419497f9722a3daafe3b4186f6b6457e09190a35050565b610bea8062003fda83390190565b6001600160a01b03811681146200016857600080fd5b50565b600080600080608085870312156200018257600080fd5b845193506020850151620001968162000152565b6040860151909350620001a98162000152565b6060860151909250620001bc8162000152565b939692955090935050565b608051613df0620001ea600039600081816107bc01526109f00152613df06000f3fe6080604052600436106102725760003560e01c80638741eac51161014f578063c0c17baf116100c1578063d232c2201161007a578063d232c22014610824578063e070da0914610843578063e47602f714610856578063e8be0dfc1461086b578063ea7a904d14610880578063f31abcc4146108a057600080fd5b8063c0c17baf14610780578063c1a0495914610795578063c2fb26a6146107aa578063c5b350df146107de578063c95f9d0e146107f3578063d1851c921461080657600080fd5b8063ac210cc711610113578063ac210cc7146106a7578063affed0e0146106c7578063b1f8100d146106dd578063bb7363cc146106fd578063bd7e1e2e1461072a578063bff32da81461076057600080fd5b80638741eac5146105f85780638ba450851461060d5780638da5cb5b146106565780639d23c4c7146106745780639e4394ea1461069457600080fd5b8063445b1e4b116101e85780636a41633a116101ac5780636a41633a1461054b5780636a42b8f8146105605780636ae0b15414610576578063715018a6146105965780637b298e27146105ab57806383c68876146105cb57600080fd5b8063445b1e4b14610407578063569d29e41461043757806357bd0a3214610457578063600620911461048757806364140918146104e057600080fd5b80632c1999d01161023a5780632c1999d0146103175780633855b467146103655780633a35cf171461037a5780633cf52ffb1461039a57806341258b5c146103af57806341af5b52146103e757600080fd5b80631506e463146102775780631eab28f9146102995780632004ef45146102bf57806320774909146102e457806324ca984e146102f7575b600080fd5b34801561028357600080fd5b506102976102923660046135c7565b6108c0565b005b6102ac6102a73660046135ff565b610901565b6040519081526020015b60405180910390f35b3480156102cb57600080fd5b506102d4610b92565b60405190151581526020016102b6565b6102976102f236600461363a565b610bb4565b34801561030357600080fd5b5061029761031236600461363a565b610be4565b34801561032357600080fd5b5061034d610332366004613657565b6016602052600090815260409020546001600160a01b031681565b6040516001600160a01b0390911681526020016102b6565b34801561037157600080fd5b50610297610d01565b34801561038657600080fd5b50600b5461034d906001600160a01b031681565b3480156103a657600080fd5b506003546102ac565b3480156103bb57600080fd5b506102ac6103ca366004613670565b601160209081526000928352604080842090915290825290205481565b3480156103f357600080fd5b5060085461034d906001600160a01b031681565b34801561041357600080fd5b506102d461042236600461363a565b60136020526000908152604090205460ff1681565b34801561044357600080fd5b5061029761045236600461369e565b610dfc565b34801561046357600080fd5b506102d4610472366004613657565b60146020526000908152604090205460ff1681565b34801561049357600080fd5b506104c46104a236600461363a565b6015602052600090815260409020805460019091015463ffffffff9091169082565b6040805163ffffffff90931683526020830191909152016102b6565b3480156104ec57600080fd5b506105266104fb366004613657565b600e602052600090815260409020805460018201546002909201546001600160a01b03909116919083565b604080516001600160a01b0390941684526020840192909252908201526060016102b6565b34801561055757600080fd5b506007546102ac565b34801561056c57600080fd5b5062093a806102ac565b34801561058257600080fd5b5061029761059136600461363a565b610e3f565b3480156105a257600080fd5b50610297610f56565b3480156105b757600080fd5b506102976105c63660046136e8565b61105d565b3480156105d757600080fd5b506102ac6105e636600461363a565b60126020526000908152604090205481565b34801561060457600080fd5b5061029761108c565b34801561061957600080fd5b50610641610628366004613657565b600f602052600090815260409020805460019091015482565b604080519283526020830191909152016102b6565b34801561066257600080fd5b506001546001600160a01b031661034d565b34801561068057600080fd5b50600c5461034d906001600160a01b031681565b6102976106a236600461370d565b6110fd565b3480156106b357600080fd5b5060095461034d906001600160a01b031681565b3480156106d357600080fd5b506102ac600a5481565b3480156106e957600080fd5b506102976106f836600461363a565b6112a4565b34801561070957600080fd5b506102ac610718366004613657565b60106020526000908152604090205481565b34801561073657600080fd5b5061034d610745366004613657565b600d602052600090815260409020546001600160a01b031681565b34801561076c57600080fd5b506102ac61077b36600461375f565b61137e565b34801561078c57600080fd5b5061029761168d565b3480156107a157600080fd5b506005546102ac565b3480156107b657600080fd5b506102ac7f000000000000000000000000000000000000000000000000000000000000000081565b3480156107ea57600080fd5b50610297611786565b6102976108013660046136e8565b611860565b34801561081257600080fd5b506002546001600160a01b031661034d565b34801561083057600080fd5b506001546001600160a01b0316156102d4565b61029761085136600461379a565b61189c565b34801561086257600080fd5b506102976118d9565b34801561087757600080fd5b506102d461194a565b34801561088c57600080fd5b5061029761089b3660046136e8565b61196a565b3480156108ac57600080fd5b506102976108bb36600461379a565b611a9e565b6001546001600160a01b031633146108f35760405162461bcd60e51b81526004016108ea906137d1565b60405180910390fd5b6108fd8282611c2e565b5050565b60008060158180610918604087016020880161363a565b6001600160a01b03161461093b57610936604086016020870161363a565b610948565b6009546001600160a01b03165b6001600160a01b03166001600160a01b031681526020019081526020016000206001015414156109ad5760405162461bcd60e51b815260206004820152601060248201526f085cdd5c1c1bdc9d195917d85cdcd95d60821b60448201526064016108ea565b6000806109cd6109c3604086016020870161363a565b8560400135611cba565b915091506000806109de8484611eb8565b600a80546040805160208082018490527f000000000000000000000000000000000000000000000000000000000000000082840152825180830384018152606090920190925280519101209395509193506000610a3a83613808565b90915550610b0c9050610a4d8880613823565b610a5e9060a0810190608001613865565b610a688980613823565b610a7690602081019061363a565b848685610b07610a868e80613823565b610a9490602081019061363a565b610a9e8f80613823565b610aaf90604081019060200161363a565b8f8060000190610abf9190613823565b610acd906040810190613882565b8080601f01602080910402602001604051908101604052809392919081815260200183838082843760009201919091525061205b92505050565b6120ba565b610b168780613823565b610b2490602081019061363a565b6001600160a01b0316817faa858d2a751f10ba408efe39c65b526420ce14aabd065785ab25f2ee860bc0db610b598a80613823565b888689896001600a54610b6c91906138c9565b33604051610b8097969594939291906139ca565b60405180910390a39695505050505050565b6001546000906001600160a01b03161580610baf575060045460ff165b905090565b6001600160a01b03811660009081526012602052604081208054349290610bdc908490613a1c565b909155505050565b6001546001600160a01b03163314610c0e5760405162461bcd60e51b81526004016108ea906137d1565b6001600160a01b038116610c4e5760405162461bcd60e51b81526020600482015260076024820152662341523a30303160c81b60448201526064016108ea565b6001600160a01b03811660009081526013602052604090205460ff1615610ca15760405162461bcd60e51b815260206004820152600760248201526611a0a91d18199960c91b60448201526064016108ea565b6001600160a01b038116600081815260136020908152604091829020805460ff19166001179055815192835233908301527fbc68405e644da2aaf25623ce2199da82c6dfd2e1de102b400eba6a091704d4f491015b60405180910390a150565b6001546001600160a01b03163314610d2b5760405162461bcd60e51b81526004016108ea906137d1565b60065460ff1615610d695760405162461bcd60e51b8152602060048201526008602482015267046a4829e746066760c31b60448201526064016108ea565b600060075411610da65760405162461bcd60e51b81526020600482015260086024820152672352414f3a30333760c01b60448201526064016108ea565b62093a8060075442610db891906138c9565b11610df05760405162461bcd60e51b815260206004820152600860248201526702352414f3a3033360c41b60448201526064016108ea565b610dfa6001612184565b565b6001546001600160a01b03163314610e265760405162461bcd60e51b81526004016108ea906137d1565b610e3083836121ca565b610e3a8382611c2e565b505050565b6001546001600160a01b03163314610e695760405162461bcd60e51b81526004016108ea906137d1565b6001600160a01b038116610ea95760405162461bcd60e51b81526020600482015260076024820152662352523a30303160c81b60448201526064016108ea565b6001600160a01b03811660009081526013602052604090205460ff161515600114610f005760405162461bcd60e51b81526020600482015260076024820152662352523a30333360c81b60448201526064016108ea565b6001600160a01b038116600081815260136020908152604091829020805460ff19169055815192835233908301527fbee3e974bb6a6f44f20096ede047c191eef60322e65e4ee4bd3392230a8716d59101610cf6565b6001546001600160a01b03163314610f805760405162461bcd60e51b81526004016108ea906137d1565b600060035411610fbc5760405162461bcd60e51b815260206004820152600760248201526623524f3a30333760c81b60448201526064016108ea565b62093a8060035442610fce91906138c9565b116110055760405162461bcd60e51b8152602060048201526007602482015266023524f3a3033360cc1b60448201526064016108ea565b6002546001600160a01b0316156110485760405162461bcd60e51b815260206004820152600760248201526611a9279d18199b60c91b60448201526064016108ea565b600254610dfa906001600160a01b031661231b565b336000908152601260205260408120805484929061107c9084906138c9565b909155506108fd90508183612374565b6001546001600160a01b031633146110b65760405162461bcd60e51b81526004016108ea906137d1565b60065460ff16156110f55760405162461bcd60e51b8152602060048201526009602482015268046a0829ea4746066760bb1b60448201526064016108ea565b610dfa61248d565b6008546001600160a01b031633146111415760405162461bcd60e51b81526020600482015260076024820152662162726964676560c81b60448201526064016108ea565b6000858152600e6020908152604091829020825160608101845281546001600160a01b0316808252600183015493820193909352600290910154928101929092526111a657611192858585856124c9565b600087815260106020526040902055611224565b818160400151146111e55760405162461bcd60e51b815260206004820152600960248201526808595e1d195c9b985b60ba1b60448201526064016108ea565b80516001600160a01b0390811660009081526011602090815260408083209389168352929052908120805485929061121e908490613a1c565b90915550505b8051604080516001600160a01b038881168252602080830188905282840187905285518216606084015285015160808301529184015160a08201523360c0820152918116919086169088907fcadf9cf98df75c21f161e3c701edaa004eb9756d7413b30b2c4cf359fc95d8de9060e00160405180910390a4505050505050565b6001546001600160a01b031633146112ce5760405162461bcd60e51b81526004016108ea906137d1565b6002546001600160a01b0382811691161415806112f257506001600160a01b038116155b6113295760405162461bcd60e51b815260206004820152600860248201526711a827279d18199b60c11b60448201526064016108ea565b6001546001600160a01b03828116911614156113725760405162461bcd60e51b8152602060048201526008602482015267046a09c9e746066760c31b60448201526064016108ea565b61137b81612536565b50565b6000805a905060006113db60808501356113988680613823565b6113a9906080810190606001613865565b63ffffffff16604080516020808201949094528082019290925280518083038201815260609092019052805191012090565b600081815260106020526040902054909150156114276113fb8680613823565b8361140c6040890160208a0161363a565b61141c60608a0160408b0161363a565b858a60a00135612584565b60008061144761143d6040890160208a0161363a565b8860a00135612741565b909250905060006114588880613823565b61146990604081019060200161363a565b6001600160a01b0316141561149f5761149a816114868980613823565b61149490602081019061363a565b8461280d565b611583565b600b546114b79082906001600160a01b03168461280d565b600b546001600160a01b031663cf9a3604856114d38a80613823565b6114e490604081019060200161363a565b846114ef8c80613823565b6114fd90602081019061363a565b876115088e80613823565b611516906040810190613882565b6040518863ffffffff1660e01b81526004016115389796959493929190613a34565b6000604051808303816000875af1158015611557573d6000803e3d6000fd5b505050506040513d6000823e601f3d908101601f1916820160405261157f9190810190613ad5565b5050505b82156115c35760405180604001604052805a61159f90886138c9565b81523a6020918201526000868152600f825260409020825181559101516001909101555b6115fc6115d66060890160408a0161363a565b608089018035906115ea9060608c01613865565b6115f760c08c018c613882565b6128d6565b336116078880613823565b61161590602081019061363a565b6001600160a01b0316857ff5e90e5901380e22041aa14a3278bd65b49393e071767d2c405e015b075f864061164a8b80613823565b60808c013561165f60408e0160208f0161363a565b878e60a001358a3360405161167a9796959493929190613ba5565b60405180910390a4509195945050505050565b6001546001600160a01b031633146116b75760405162461bcd60e51b81526004016108ea906137d1565b60045460ff16156116f55760405162461bcd60e51b8152602060048201526008602482015267046a4a49e746066760c31b60448201526064016108ea565b6000600554116117325760405162461bcd60e51b81526020600482015260086024820152672352524f3a30333760c01b60448201526064016108ea565b62093a806005544261174491906138c9565b1161177c5760405162461bcd60e51b815260206004820152600860248201526702352524f3a3033360c41b60448201526064016108ea565b610dfa60016129d6565b6002546001600160a01b031633146117ca5760405162461bcd60e51b8152602060048201526007602482015266234f503a30333560c81b60448201526064016108ea565b6002546001546001600160a01b03908116911614156118165760405162461bcd60e51b815260206004820152600860248201526704682a09e746066760c31b60448201526064016108ea565b62093a806003544261182891906138c9565b116110485760405162461bcd60e51b815260206004820152600860248201526702341504f3a3033360c41b60448201526064016108ea565b600260005414156118835760405162461bcd60e51b81526004016108ea90613bf4565b6002600055611893828233612a1c565b50506001600055565b600260005414156118bf5760405162461bcd60e51b81526004016108ea90613bf4565b60026000556118cf838383612a1c565b5050600160005550565b6001546001600160a01b031633146119035760405162461bcd60e51b81526004016108ea906137d1565b60045460ff16156119425760405162461bcd60e51b8152602060048201526009602482015268046a0a49ea4746066760bb1b60448201526064016108ea565b610dfa612c98565b6001546000906001600160a01b03161580610baf57505060065460ff1690565b6001546001600160a01b031633146119945760405162461bcd60e51b81526004016108ea906137d1565b60008281526014602052604090205460ff1615156001146119e15760405162461bcd60e51b81526020600482015260076024820152662352413a30333360c81b60448201526064016108ea565b6000828152601460209081526040808320805460ff19169055600d909152812080546001600160a01b03191690556015906001600160a01b03831615611a275782611a34565b6009546001600160a01b03165b6001600160a01b0316815260208082019290925260409081016000908120805463ffffffff1916815560010155805184815233928101929092527f9d181adb70e733f5235f839c1eed929407ea8526e41d01f49b9fef703e78dddf91015b60405180910390a15050565b60026000541415611ac15760405162461bcd60e51b81526004016108ea90613bf4565b60026000556001600160a01b038116611b065760405162461bcd60e51b815260206004820152600760248201526623524c3a30303760c81b60448201526064016108ea565b60008311611b405760405162461bcd60e51b815260206004820152600760248201526611a9261d18181960c91b60448201526064016108ea565b3360009081526011602090815260408083206001600160a01b038616845290915290205483811015611b9e5760405162461bcd60e51b8152602060048201526007602482015266046a498746060760cb1b60448201526064016108ea565b3360009081526011602090815260408083206001600160a01b038716845290915290208482039055611bd183838661280d565b604080516001600160a01b03848116825285166020820152808201869052336060820181905291517f63b05915120b3d5a231e7c3625a411c15b2a79c35e3b1432a4f1ea95468cc6349181900360800190a2505060016000555050565b602082810180356000818152600d909352604090922080546001600160a01b0319166001600160a01b0385161790557fd6f882d8fd8cc867bb57db3880bc4ad0b9b84689b57bba1b51feec7be397e3c29190611c8a9085613865565b6040805192835263ffffffff90911660208301526001600160a01b03841690820152336060820152608001611a92565b600080826001600160a01b038516611d8257833414611d055760405162461bcd60e51b815260206004820152600760248201526608585b5bdd5b9d60ca1b60448201526064016108ea565b600960009054906101000a90046001600160a01b03166001600160a01b031663d0e30db0856040518263ffffffff1660e01b81526004016000604051808303818588803b158015611d5557600080fd5b505af1158015611d69573d6000803e3d6000fd5b50506009546001600160a01b03169750611eab92505050565b6040516370a0823160e01b81523060048201526000906001600160a01b038716906370a0823190602401602060405180830381865afa158015611dc9573d6000803e3d6000fd5b505050506040513d601f19601f82011682018060405250810190611ded9190613c2b565b90503415611e275760405162461bcd60e51b815260206004820152600760248201526611aa209d18181b60c91b60448201526064016108ea565b611e3386333088612cce565b6040516370a0823160e01b815230600482015281906001600160a01b038816906370a0823190602401602060405180830381865afa158015611e79573d6000803e3d6000fd5b505050506040513d601f19601f82011682018060405250810190611e9d9190613c2b565b611ea791906138c9565b9150505b84925090505b9250929050565b6001600160a01b03821660009081526015602090815260408083208151808301909252805463ffffffff168252600101549181018290528291611f015783859250925050611eb1565b600c5481516020830151604051631626cf1960e21b815263ffffffff909216600483015260248201526000916001600160a01b03169063589b3c6490604401602060405180830381865afa158015611f5d573d6000803e3d6000fd5b505050506040513d601f19601f82011682018060405250810190611f819190613c44565b9050856001600160a01b0316816001600160a01b03161415611faa578486935093505050611eb1565b6020808301516000908152600d90915260409020546001600160a01b0316611fd3878288612d3f565b60405163d5914c4560e01b8152600481018790526001600160a01b038881166024830152838116604483015282169063d5914c45906064016020604051808303816000875af115801561202a573d6000803e3d6000fd5b505050506040513d601f19601f8201168201806040525081019061204e9190613c2b565b9791965090945050505050565b60006040518060600160405280856001600160a01b03168152602001846001600160a01b031681526020018381525060405160200161209a9190613c8d565b6040516020818303038152906040528051906020012090505b9392505050565b6008546120d29085906001600160a01b031685612e54565b6008546001600160a01b031663adadc0dc8585896120f68a6001600160a01b031690565b6040516001600160e01b031960e087901b1681526001600160a01b039094166004850152602484019290925263ffffffff16604483015260648201526001608482015260a4810185905260c4810184905260e401600060405180830381600087803b15801561216457600080fd5b505af1158015612178573d6000803e3d6000fd5b50505050505050505050565b6006805460ff191682151590811790915560006007556040519081527f868d89ead22a5d10f456845ac0014901d9af7203e71cf0892d70d9dc262c2fb990602001610cf6565b60208083013560009081526014909152604090205460ff16156122195760405162461bcd60e51b815260206004820152600760248201526611a0a09d18199960c91b60448201526064016108ea565b6020808301356000908152601482526040808220805460ff191660011790556001600160a01b038416825260159092522082906122568282613cc8565b50600090506001600160a01b03821615612270578161227d565b6009546001600160a01b03165b6020848101803560008181526016909352604090922080546001600160a01b0319166001600160a01b0385161790559192507f42e28d2d3431c24c3f3b6e2623a169bd4a31dd1f66780c4499af54a28632779b916122db9086613865565b6040805192835263ffffffff9190911660208301526001600160a01b038581168383015284166060830152336080830152519081900360a00190a1505050565b600180546001600160a01b038381166001600160a01b0319831681179093556000600381905560405191909216929183917f8be0079c531659141344cd1fd0a4f28419497f9722a3daafe3b4186f6b6457e09190a35050565b804710156123c45760405162461bcd60e51b815260206004820152601d60248201527f416464726573733a20696e73756666696369656e742062616c616e636500000060448201526064016108ea565b6000826001600160a01b03168260405160006040518083038185875af1925050503d8060008114612411576040519150601f19603f3d011682016040523d82523d6000602084013e612416565b606091505b5050905080610e3a5760405162461bcd60e51b815260206004820152603a60248201527f416464726573733a20756e61626c6520746f2073656e642076616c75652c207260448201527f6563697069656e74206d6179206861766520726576657274656400000000000060648201526084016108ea565b4260078190556040519081527fa78fdca214e4619ef34a695316d423f5b0d8274bc919d29733bf8f92ec8cbb7a906020015b60405180910390a1565b60408051608080820183528382526001600160a01b039687166020808401918252838501968752968816606093840190815284518089019690965290518816858501529451918401919091529251909416818301528351808203909201825260a001909252815191012090565b42600355600280546001600160a01b0319166001600160a01b0383169081179091556040517f6ab4d119f23076e8ad491bc65ce85f017fb0591dce08755ba8591059cc51737a90600090a250565b60006125b3612596602089018961363a565b6125a660408a0160208b0161363a565b610acd60408b018b613882565b905082156126a1576000868152600e60205260409020546001600160a01b0316156126095760405162461bcd60e51b815260206004820152600660248201526521656d70747960d01b60448201526064016108ea565b6001600160a01b038085166000908152601160209081526040808320938916835292905290812080548492906126409084906138c9565b9091555050604080516060810182526001600160a01b038681168252602080830186815283850186815260008c8152600e90935294909120925183546001600160a01b03191692169190911782555160018201559051600290910155612738565b600086815260106020526040902054806126e65760405162461bcd60e51b815260206004820152600660248201526508599bdd5b9960d21b60448201526064016108ea565b6126fe866126f760208b018b61363a565b85856124c9565b81146127365760405162461bcd60e51b815260206004820152600760248201526621706172616d7360c81b60448201526064016108ea565b505b50505050505050565b600c5460405163b9730eaf60e01b81526001600160a01b038481166004830152600092839283929091169063b9730eaf906024016040805180830381865afa158015612791573d6000803e3d6000fd5b505050506040513d601f19601f820116820180604052508101906127b59190613cf5565b6000818152601660205260409020549092506001600160a01b03908116915086168114156127ea578486935093505050611eb1565b6000828152600d60205260409020546001600160a01b0316611fd3878288612d3f565b6001600160a01b03831661284d5760405162461bcd60e51b8152602060048201526007602482015266216e617469766560c81b60448201526064016108ea565b6009546001600160a01b03848116911614156128cb57600954604051632e1a7d4d60e01b8152600481018390526001600160a01b0390911690632e1a7d4d90602401600060405180830381600087803b1580156128a957600080fd5b505af11580156128bd573d6000803e3d6000fd5b50505050610e3a8282612374565b610e3a838383612f06565b336001600160a01b03861614156128ec576129cf565b612927848460405160200161291192919091825263ffffffff16602082015260400190565b6040516020818303038152906040528383612f36565b6001600160a01b0316856001600160a01b0316146129725760405162461bcd60e51b8152602060048201526008602482015267217274725f73696760c01b60448201526064016108ea565b6000606461298663ffffffff861648613d23565b6129909190613d42565b6001600160a01b0387166000908152601260205260408120805492935083929091906129bd9084906138c9565b909155506129cd90503382612374565b505b5050505050565b6004805460ff191682151590811790915560006005556040519081527f243ebbb2f905234bbf0556bb38e1f7c23b09ffd2e441a16e58b844eb2ab7a39790602001610cf6565b6001600160a01b038116612a5c5760405162461bcd60e51b815260206004820152600760248201526623414c3a30303160c81b60448201526064016108ea565b60008311612a965760405162461bcd60e51b815260206004820152600760248201526611a0a61d18181960c91b60448201526064016108ea565b600c546000906001600160a01b039081169063f153768690851615612abb5784612ac8565b6009546001600160a01b03165b6040516001600160e01b031960e084901b1681526001600160a01b0390911660048201526024016040805180830381865afa158015612b0b573d6000803e3d6000fd5b505050506040513d601f19601f82011682018060405250810190612b2f9190613cf5565b915050612b3a610b92565b80612b5d57506001600160a01b03821660009081526013602052604090205460ff165b612b935760405162461bcd60e51b815260206004820152600760248201526623414c3a30303360c81b60448201526064016108ea565b612b9b61194a565b80612bb4575060008181526014602052604090205460ff165b612bea5760405162461bcd60e51b815260206004820152600760248201526608d0530e8c0c0d60ca1b60448201526064016108ea565b600080612bf78587611cba565b6001600160a01b038087166000908152601160209081526040808320938616835292905290812080549395509193508392612c33908490613a1c565b9091555050604080516001600160a01b03808716825284166020820152908101849052606081018290523360808201527fc30593c06911f2f2fc32a69df3a28e4a0b116d8d461b47a005ae4d28cd49282b9060a00160405180910390a1505050505050565b4260058190556040519081527fa52048c5f468d21a62e4644ac4db19bcaa1a20f0cf37d163ba49c7217d35feb8906020016124bf565b6040516001600160a01b0380851660248301528316604482015260648101829052612d399085906323b872dd60e01b906084015b60408051601f198184030181529190526020810180516001600160e01b03166001600160e01b031990931692909217909152612fdd565b50505050565b801580612db95750604051636eb1769f60e11b81523060048201526001600160a01b03838116602483015284169063dd62ed3e90604401602060405180830381865afa158015612d93573d6000803e3d6000fd5b505050506040513d601f19601f82011682018060405250810190612db79190613c2b565b155b612e245760405162461bcd60e51b815260206004820152603660248201527f5361666545524332303a20617070726f76652066726f6d206e6f6e2d7a65726f60448201527520746f206e6f6e2d7a65726f20616c6c6f77616e636560501b60648201526084016108ea565b6040516001600160a01b038316602482015260448101829052610e3a90849063095ea7b360e01b90606401612d02565b604051636eb1769f60e11b81523060048201526001600160a01b038381166024830152600091839186169063dd62ed3e90604401602060405180830381865afa158015612ea5573d6000803e3d6000fd5b505050506040513d601f19601f82011682018060405250810190612ec99190613c2b565b612ed39190613a1c565b6040516001600160a01b038516602482015260448101829052909150612d3990859063095ea7b360e01b90606401612d02565b6040516001600160a01b038316602482015260448101829052610e3a90849063a9059cbb60e01b90606401612d02565b6000612fd5612f9985805190602001206040517f19457468657265756d205369676e6564204d6573736167653a0a3332000000006020820152603c8101829052600090605c01604051602081830303815290604052805190602001209050919050565b84848080601f0160208091040260200160405190810160405280939291908181526020018383808284376000920191909152506130af92505050565b949350505050565b6000613032826040518060400160405280602081526020017f5361666545524332303a206c6f772d6c6576656c2063616c6c206661696c6564815250856001600160a01b03166130d39092919063ffffffff16565b805190915015610e3a57808060200190518101906130509190613d64565b610e3a5760405162461bcd60e51b815260206004820152602a60248201527f5361666545524332303a204552433230206f7065726174696f6e20646964206e6044820152691bdd081cdd58d8d9595960b21b60648201526084016108ea565b60008060006130be85856130e2565b915091506130cb8161314f565b509392505050565b6060612fd5848460008561330a565b6000808251604114156131195760208301516040840151606085015160001a61310d8782858561343b565b94509450505050611eb1565b8251604014156131435760208301516040840151613138868383613528565b935093505050611eb1565b50600090506002611eb1565b600081600481111561316357613163613d7f565b141561316c5750565b600181600481111561318057613180613d7f565b14156131ce5760405162461bcd60e51b815260206004820152601860248201527f45434453413a20696e76616c6964207369676e6174757265000000000000000060448201526064016108ea565b60028160048111156131e2576131e2613d7f565b14156132305760405162461bcd60e51b815260206004820152601f60248201527f45434453413a20696e76616c6964207369676e6174757265206c656e6774680060448201526064016108ea565b600381600481111561324457613244613d7f565b141561329d5760405162461bcd60e51b815260206004820152602260248201527f45434453413a20696e76616c6964207369676e6174757265202773272076616c604482015261756560f01b60648201526084016108ea565b60048160048111156132b1576132b1613d7f565b141561137b5760405162461bcd60e51b815260206004820152602260248201527f45434453413a20696e76616c6964207369676e6174757265202776272076616c604482015261756560f01b60648201526084016108ea565b60608247101561336b5760405162461bcd60e51b815260206004820152602660248201527f416464726573733a20696e73756666696369656e742062616c616e636520666f6044820152651c8818d85b1b60d21b60648201526084016108ea565b6001600160a01b0385163b6133c25760405162461bcd60e51b815260206004820152601d60248201527f416464726573733a2063616c6c20746f206e6f6e2d636f6e747261637400000060448201526064016108ea565b600080866001600160a01b031685876040516133de9190613d95565b60006040518083038185875af1925050503d806000811461341b576040519150601f19603f3d011682016040523d82523d6000602084013e613420565b606091505b5091509150613430828286613561565b979650505050505050565b6000807f7fffffffffffffffffffffffffffffff5d576e7357a4501ddfe92f46681b20a0831115613472575060009050600361351f565b8460ff16601b1415801561348a57508460ff16601c14155b1561349b575060009050600461351f565b6040805160008082526020820180845289905260ff881692820192909252606081018690526080810185905260019060a0016020604051602081039080840390855afa1580156134ef573d6000803e3d6000fd5b5050604051601f1901519150506001600160a01b0381166135185760006001925092505061351f565b9150600090505b94509492505050565b6000806001600160ff1b0383168161354560ff86901c601b613a1c565b90506135538782888561343b565b935093505050935093915050565b606083156135705750816120b3565b8251156135805782518084602001fd5b8160405162461bcd60e51b81526004016108ea9190613da7565b6000604082840312156135ac57600080fd5b50919050565b6001600160a01b038116811461137b57600080fd5b600080606083850312156135da57600080fd5b6135e4848461359a565b915060408301356135f4816135b2565b809150509250929050565b60006020828403121561361157600080fd5b813567ffffffffffffffff81111561362857600080fd5b8201606081850312156120b357600080fd5b60006020828403121561364c57600080fd5b81356120b3816135b2565b60006020828403121561366957600080fd5b5035919050565b6000806040838503121561368357600080fd5b823561368e816135b2565b915060208301356135f4816135b2565b6000806000608084860312156136b357600080fd5b6136bd858561359a565b925060408401356136cd816135b2565b915060608401356136dd816135b2565b809150509250925092565b600080604083850312156136fb57600080fd5b8235915060208301356135f4816135b2565b600080600080600060a0868803121561372557600080fd5b853594506020860135613737816135b2565b93506040860135613747816135b2565b94979396509394606081013594506080013592915050565b60006020828403121561377157600080fd5b813567ffffffffffffffff81111561378857600080fd5b820160e081850312156120b357600080fd5b6000806000606084860312156137af57600080fd5b8335925060208401356137c1816135b2565b915060408401356136dd816135b2565b602080825260079082015266234f4f3a30323960c81b604082015260600190565b634e487b7160e01b600052601160045260246000fd5b600060001982141561381c5761381c6137f2565b5060010190565b60008235609e1983360301811261383957600080fd5b9190910192915050565b63ffffffff8116811461137b57600080fd5b803561386081613843565b919050565b60006020828403121561387757600080fd5b81356120b381613843565b6000808335601e1984360301811261389957600080fd5b83018035915067ffffffffffffffff8211156138b457600080fd5b602001915036819003821315611eb157600080fd5b6000828210156138db576138db6137f2565b500390565b81835281816020850137506000828201602090810191909152601f909101601f19169091010190565b60008135613916816135b2565b6001600160a01b039081168452602083013590613932826135b2565b166020840152604082013536839003601e1901811261395057600080fd5b8201803567ffffffffffffffff81111561396957600080fd5b80360384131561397857600080fd5b60a0604086015261399060a0860182602085016138e0565b91505061399f60608401613855565b63ffffffff1660608501526139b660808401613855565b63ffffffff81166080860152509392505050565b60e0815260006139dd60e083018a613909565b6001600160a01b0398891660208401529688166040830152506060810194909452608084019290925260a083015290921660c090920191909152919050565b60008219821115613a2f57613a2f6137f2565b500190565b8781526001600160a01b0387811660208301528681166040830152851660608201526080810184905260c060a08201819052600090613a7690830184866138e0565b9998505050505050505050565b8051801515811461386057600080fd5b634e487b7160e01b600052604160045260246000fd5b60005b83811015613ac4578181015183820152602001613aac565b83811115612d395750506000910152565b600080600060608486031215613aea57600080fd5b613af384613a83565b9250613b0160208501613a83565b9150604084015167ffffffffffffffff80821115613b1e57600080fd5b818601915086601f830112613b3257600080fd5b815181811115613b4457613b44613a93565b604051601f8201601f19908116603f01168101908382118183101715613b6c57613b6c613a93565b81604052828152896020848701011115613b8557600080fd5b613b96836020830160208801613aa9565b80955050505050509250925092565b60e081526000613bb860e083018a613909565b6020830198909852506001600160a01b0395861660408201529385166060850152608084019290925260a083015290911660c090910152919050565b6020808252601f908201527f5265656e7472616e637947756172643a207265656e7472616e742063616c6c00604082015260600190565b600060208284031215613c3d57600080fd5b5051919050565b600060208284031215613c5657600080fd5b81516120b3816135b2565b60008151808452613c79816020860160208601613aa9565b601f01601f19169290920160200192915050565b60208152600060018060a01b03808451166020840152806020850151166040840152506040830151606080840152612fd56080840182613c61565b8135613cd381613843565b63ffffffff811663ffffffff1983541617825550602082013560018201555050565b60008060408385031215613d0857600080fd5b8251613d1381613843565b6020939093015192949293505050565b6000816000190483118215151615613d3d57613d3d6137f2565b500290565b600082613d5f57634e487b7160e01b600052601260045260246000fd5b500490565b600060208284031215613d7657600080fd5b6120b382613a83565b634e487b7160e01b600052602160045260246000fd5b60008251613839818460208701613aa9565b6020815260006120b36020830184613c6156fea2646970667358221220fb20b0b48d9899ced47e5d992cb6937a7bfb71775f407021509f7379bb06569864736f6c634300080b003360a060405234801561001057600080fd5b50604051610bea380380610bea83398101604081905261002f91610045565b60016000556001600160a01b0316608052610075565b60006020828403121561005757600080fd5b81516001600160a01b038116811461006e57600080fd5b9392505050565b608051610b55610095600039600081816048015260a90152610b556000f3fe6080604052600436106100295760003560e01c806396f32fb81461002e578063cf9a360414610077575b600080fd5b34801561003a57600080fd5b506040516001600160a01b037f00000000000000000000000000000000000000000000000000000000000000001681526020015b60405180910390f35b61008a6100853660046108b0565b610099565b60405161006e939291906109c6565b6000806060336001600160a01b037f000000000000000000000000000000000000000000000000000000000000000016146101065760405162461bcd60e51b8152602060048201526008602482015267234f544d3a30323760c01b60448201526064015b60405180910390fd5b6001600160a01b038816158061012157610121898b89610224565b600060606001600160a01b038c163b158015906101a9578c6001600160a01b03168461014e576000610150565b8a5b8a8a6040516101609291906109f2565b60006040518083038185875af1925050503d806000811461019d576040519150601f19603f3d011682016040523d82523d6000602084013e6101a2565b606091505b5090935091505b826101c9576101b98c8c8c610274565b836101c9576101c98c8e8c610298565b8d7f03196b76502b81bbf14393f8b5ed67dff323f1f86667b064820f1fdf293686a18e8e8e8e8e8e898b8a60405161020999989796959493929190610a02565b60405180910390a2919d919c509a5098505050505050505050565b6001600160a01b0383166102645760405162461bcd60e51b815260206004820152600760248201526608d2504e8c0ccd60ca1b60448201526064016100fd565b61026f8383836102e3565b505050565b6001600160a01b0383161561028e5761026f8383836103ce565b61026f82826103d9565b6001600160a01b0383166102d85760405162461bcd60e51b815260206004820152600760248201526608d1104e8c0ccd60ca1b60448201526064016100fd565b61026f8383836103e7565b604051636eb1769f60e11b81523060048201526001600160a01b038381166024830152600091839186169063dd62ed3e90604401602060405180830381865afa158015610334573d6000803e3d6000fd5b505050506040513d601f19601f820116820180604052508101906103589190610a8f565b6103629190610aa8565b6040516001600160a01b0385166024820152604481018290529091506103c890859063095ea7b360e01b906064015b60408051601f198184030181529190526020810180516001600160e01b03166001600160e01b0319909316929092179091526104fa565b50505050565b61026f8383836105cc565b6103e382826105fc565b5050565b604051636eb1769f60e11b81523060048201526001600160a01b0383811660248301526000919085169063dd62ed3e90604401602060405180830381865afa158015610437573d6000803e3d6000fd5b505050506040513d601f19601f8201168201806040525081019061045b9190610a8f565b9050818110156104bf5760405162461bcd60e51b815260206004820152602960248201527f5361666545524332303a2064656372656173656420616c6c6f77616e63652062604482015268656c6f77207a65726f60b81b60648201526084016100fd565b6040516001600160a01b038416602482015282820360448201819052906104f390869063095ea7b360e01b90606401610391565b5050505050565b600061054f826040518060400160405280602081526020017f5361666545524332303a206c6f772d6c6576656c2063616c6c206661696c6564815250856001600160a01b03166107159092919063ffffffff16565b80519091501561026f578080602001905181019061056d9190610ace565b61026f5760405162461bcd60e51b815260206004820152602a60248201527f5361666545524332303a204552433230206f7065726174696f6e20646964206e6044820152691bdd081cdd58d8d9595960b21b60648201526084016100fd565b6040516001600160a01b03831660248201526044810182905261026f90849063a9059cbb60e01b90606401610391565b8047101561064c5760405162461bcd60e51b815260206004820152601d60248201527f416464726573733a20696e73756666696369656e742062616c616e636500000060448201526064016100fd565b6000826001600160a01b03168260405160006040518083038185875af1925050503d8060008114610699576040519150601f19603f3d011682016040523d82523d6000602084013e61069e565b606091505b505090508061026f5760405162461bcd60e51b815260206004820152603a60248201527f416464726573733a20756e61626c6520746f2073656e642076616c75652c207260448201527f6563697069656e74206d6179206861766520726576657274656400000000000060648201526084016100fd565b6060610724848460008561072e565b90505b9392505050565b60608247101561078f5760405162461bcd60e51b815260206004820152602660248201527f416464726573733a20696e73756666696369656e742062616c616e636520666f6044820152651c8818d85b1b60d21b60648201526084016100fd565b6001600160a01b0385163b6107e65760405162461bcd60e51b815260206004820152601d60248201527f416464726573733a2063616c6c20746f206e6f6e2d636f6e747261637400000060448201526064016100fd565b600080866001600160a01b031685876040516108029190610af0565b60006040518083038185875af1925050503d806000811461083f576040519150601f19603f3d011682016040523d82523d6000602084013e610844565b606091505b509150915061085482828661085f565b979650505050505050565b6060831561086e575081610727565b82511561087e5782518084602001fd5b8160405162461bcd60e51b81526004016100fd9190610b0c565b6001600160a01b03811681146108ad57600080fd5b50565b600080600080600080600060c0888a0312156108cb57600080fd5b8735965060208801356108dd81610898565b955060408801356108ed81610898565b945060608801356108fd81610898565b93506080880135925060a088013567ffffffffffffffff8082111561092157600080fd5b818a0191508a601f83011261093557600080fd5b81358181111561094457600080fd5b8b602082850101111561095657600080fd5b60208301945080935050505092959891949750929550565b60005b83811015610989578181015183820152602001610971565b838111156103c85750506000910152565b600081518084526109b281602086016020860161096e565b601f01601f19169290920160200192915050565b831515815282151560208201526060604082015260006109e9606083018461099a565b95945050505050565b8183823760009101908152919050565b6001600160a01b038a811682528981166020830152881660408201526060810187905261010060808201819052810185905260006101208688828501376000838801820152601f8701601f19168301838103820160a0850152610a678183018861099a565b9250505083151560c0830152610a8160e083018415159052565b9a9950505050505050505050565b600060208284031215610aa157600080fd5b5051919050565b60008219821115610ac957634e487b7160e01b600052601160045260246000fd5b500190565b600060208284031215610ae057600080fd5b8151801515811461072757600080fd5b60008251610b0281846020870161096e565b9190910192915050565b602081526000610727602083018461099a56fea26469706673582212206087726de535f15099064c970944a6771c51b4c6d2f20b03b648fb7d25d7324f64736f6c634300080b0033",
  "devdoc": {
    "events": {
      "AssetAdded(bytes32,uint32,address,address,address)": {
        "params": {
          "adoptedAsset": "- The address of the adopted (user-expected) asset",
          "caller": "- The account that called the function",
          "canonicalId": "- The canonical identifier of the token the local <> adopted AMM is for",
          "domain": "- The domain of the canonical token for the local <> adopted amm",
          "supportedAsset": "- The address of the whitelisted asset. If the native asset is to be whitelisted, the address of the wrapped version will be stored"
        }
      },
      "AssetRemoved(bytes32,address)": {
        "params": {
          "caller": "- The account that called the function",
          "canonicalId": "- The canonical identifier of the token removed"
        }
      },
      "Fulfilled(bytes32,address,address,(address,address,bytes,uint32,uint32),uint256,address,address,uint256,uint256,address)": {
        "details": "`fulfill` may be called when providing fast liquidity *or* when processing a reconciled transaction",
        "params": {
          "caller": "- The account that called the function",
          "localAmount": "- The amount that was provided by the bridge",
          "localAsset": "- The asset that was provided by the bridge",
          "nonce": "- The nonce of the origin domain contract. Used to create the unique identifier for the transaction",
          "params": "- The CallParams provided to the function",
          "recipient": "- The CallParams.recipient provided, created as indexed parameter",
          "router": "- The router that supplied fast liquidity, if applicable",
          "transactingAmount": "- The amount of transacting asset the recipient receives or the external call is executed with",
          "transactingAsset": "- The asset the recipient gets or the external call is executed with. Should be the adopted asset on that chain.",
          "transactionId": "- The unique identifier of the crosschain transaction"
        }
      },
      "LiquidityAdded(address,address,bytes32,uint256,address)": {
        "params": {
          "amount": "- The amount of liquidity added",
          "caller": "- The account that called the function",
          "local": "- The address of the token added (all liquidity held in local asset)",
          "router": "- The address of the router the funds were credited to"
        }
      },
      "LiquidityRemoved(address,address,address,uint256,address)": {
        "params": {
          "amount": "- The amount of liquidity withdrawn",
          "caller": "- The account that called the function",
          "local": "- The address of the token withdrawn",
          "recipient": "- The address the funds were withdrawn to",
          "router": "- The router you are removing liquidity from"
        }
      },
      "Prepared(bytes32,address,(address,address,bytes,uint32,uint32),address,address,uint256,uint256,uint256,address)": {
        "params": {
          "caller": "- The account that called the function",
          "localAmount": "- The amount sent over the bridge (initialAmount with slippage)",
          "localAsset": "- The asset sent over the bridge. Will be the local asset of nomad that corresponds to the provided `transactingAsset`",
          "nonce": "- The nonce of the origin domain contract. Used to create the unique identifier for the transaction",
          "params": "- The CallParams provided to the function",
          "recipient": "- The CallParams.recipient provided, created as indexed parameter",
          "transactingAmount": "- The amount of transacting asset the tx prepared with",
          "transactingAsset": "- The asset the caller sent with the transaction. Can be the adopted, canonical, or the representational asset",
          "transactionId": "- The unique identifier of the crosschain transaction"
        }
      },
      "Reconciled(bytes32,address,address,address,uint256,bytes32,(address,uint256,bytes32),address)": {
        "params": {
          "caller": "- The account that called the function",
          "externalHash": "- Hash of the `ExternalCall` passed through bridge",
          "fulfilled": "- Record of the `FulfilledTransaction` stored onchain if fast liquidity is provided",
          "localAmount": "- The amount that was provided by the bridge",
          "localAsset": "- The asset that was provided by the bridge",
          "recipient": "- The CallParams.recipient provided, created as indexed parameter",
          "router": "- The router that supplied fast liquidity, if applicable",
          "transactionId": "- The unique identifier of the crosschain transaction"
        }
      },
      "RouterAdded(address,address)": {
        "params": {
          "caller": "- The account that called the function",
          "router": "- The address of the added router"
        }
      },
      "RouterRemoved(address,address)": {
        "params": {
          "caller": "- The account that called the function",
          "router": "- The address of the removed router"
        }
      },
      "StableSwapAdded(bytes32,uint32,address,address)": {
        "params": {
          "caller": "- The account that called the function",
          "canonicalId": "- The canonical identifier of the token the local <> adopted AMM is for",
          "domain": "- The domain of the canonical token for the local <> adopted amm",
          "swapPool": "- The address of the AMM"
        }
      }
    },
    "kind": "dev",
    "methods": {
      "addLiquidity(uint256,address)": {
        "details": "The liquidity will be held in the local asset, which is the representation if you are *not* on the canonical domain, and the canonical asset otherwise.",
        "params": {
          "amount": "- The amount of liquidity to add for the router",
          "local": "- The address of the asset you're adding liquidity for. If adding liquidity of the native asset, routers may use `address(0)` or the wrapped asset"
        }
      },
      "addLiquidityFor(uint256,address,address)": {
        "details": "The liquidity will be held in the local asset, which is the representation if you are *not* on the canonical domain, and the canonical asset otherwise.",
        "params": {
          "amount": "- The amount of liquidity to add for the router",
          "local": "- The address of the asset you're adding liquidity for. If adding liquidity of the native asset, routers may use `address(0)` or the wrapped asset",
          "router": "The router you are adding liquidity on behalf of"
        }
      },
      "addRelayerFees(address)": {
        "params": {
          "router": "- The router to credit"
        }
      },
      "addRouter(address)": {
        "params": {
          "router": "Router address to add"
        }
      },
      "fulfill(((address,address,bytes,uint32,uint32),address,address,uint32,uint256,uint256,bytes))": {
        "details": "Will store the `FulfilledTransaction` if fast liquidity is provided, or assert the hash of the `ReconciledTransaction` when using bridge liquidity",
        "params": {
          "_args": "- The `FulfillArgs` for the transaction"
        },
        "returns": {
          "_0": "The transaction id of the crosschain transaction"
        }
      },
      "prepare(((address,address,bytes,uint32,uint32),address,uint256))": {
        "details": "This contract must have approval to transfer the adopted assets. They are then swapped to the local nomad assets via the configured AMM and sent over the bridge router.",
        "params": {
          "_args": "- The PrepareArgs"
        },
        "returns": {
          "_0": "The transaction id of the crosschain transaction"
        }
      },
      "reconcile(bytes32,address,address,uint256,bytes32)": {
        "details": "If fast liquidity was provided, the `amount` and `externalHash` are asserted against the `FulfilledTransaction` struct stored onchain. If no fast liqudity was provided, the hash of the `ReconciledTransaction` is stored onchain to enforce correctness when `fulfill` is called",
        "params": {
          "_externalHash": "- The hash of the `ExternalCall` passed through the bridge",
          "_id": "- The transaction id",
          "_local": "- The address of the asset delivered by the bridge",
          "_recipient": "- The address that will receive funds on the destination domain"
        }
      },
      "removeAssetId(bytes32,address)": {
        "params": {
          "adoptedAssetId": "- Corresponding adopted asset to remove",
          "canonicalId": "- Token id to remove"
        }
      },
      "removeLiquidity(uint256,address,address)": {
        "params": {
          "amount": "- The amount of liquidity to remove for the router",
          "local": "- The address of the asset you're removing liquidity from. If removing liquidity of the native asset, routers may use `address(0)` or the wrapped asset",
          "recipient": "The address that will receive the liquidity being removed"
        }
      },
      "removeRelayerFees(uint256,address)": {
        "details": "Must be called by the router you are decrementing relayer fees for",
        "params": {
          "amount": "- The amount of relayer fee to remove",
          "recipient": "- Who to send funds to"
        }
      },
      "removeRouter(address)": {
        "params": {
          "router": "Router address to remove"
        }
      },
      "setupAsset((uint32,bytes32),address,address)": {
        "details": "When whitelisting the canonical asset, all representational assets would be whitelisted as well. In the event you have a different adopted asset (i.e. PoS USDC on polygon), you should *not* whitelist the adopted asset. The stable swap pool address used should allow you to swap between the local <> adopted asset",
        "params": {
          "adoptedAssetId": "- The used asset id for this domain (i.e. PoS USDC for polygon)",
          "canonical": "- The canonical asset to add by id and domain. All representations will be whitelisted as well",
          "stableSwapPool": "- Address of the pool to swap adopted <> local asset"
        }
      }
    },
    "stateVariables": {
      "adoptedToCanonical": {
        "details": "If the adopted asset is the native asset, the keyed address will be the wrapped asset address"
      },
      "adoptedToLocalPools": {
        "details": "Swaps for an adopted asset <> nomad local asset (i.e. POS USDC <> madUSDC on polygon)"
      },
      "approvedAssets": {
        "details": "Mapping is keyed on the canonical token identifier matching what is stored in the token registry"
      },
      "canonicalToAdopted": {
        "details": "If the adopted asset is the native asset, the stored address will be the wrapped asset address"
      },
      "domain": {
        "details": "Must match the nomad domain, which is distinct from the \"chainId\""
      },
      "nonce": {
        "details": "Assigned at first interaction (prepare on origin domain);"
      },
      "reconciledTransactions": {
        "details": "This information is stored onchain if the transaction has not been fulfilled at the time of reconcile"
      },
      "routedTransactions": {
        "details": "This information is stored onchain if fast liquidity is provided"
      },
      "routedTransactionsGas": {
        "details": "This informaion is stored onchain if fast liquidity is provided"
      },
      "routerBalances": {
        "details": "Routers should always store liquidity that they can expect to receive via the bridge on this domain (the nomad local asset)"
      },
      "routerRelayerFees": {
        "details": "Right now, routers only store native asset onchain. TODO: allow for approved relaying assets"
      },
      "wrapper": {
        "details": "Needed because the nomad only handles ERC20 assets"
      }
    },
    "version": 1
  },
  "userdoc": {
    "events": {
      "AssetAdded(bytes32,uint32,address,address,address)": {
        "notice": "Emitted when a new asset is added"
      },
      "AssetRemoved(bytes32,address)": {
        "notice": "Emitted when an asset is removed from whitelists"
      },
      "Fulfilled(bytes32,address,address,(address,address,bytes,uint32,uint32),uint256,address,address,uint256,uint256,address)": {
        "notice": "Emitted when `fulfill` is called on the destination chain"
      },
      "LiquidityAdded(address,address,bytes32,uint256,address)": {
        "notice": "Emitted when a router adds liquidity to the contract"
      },
      "LiquidityRemoved(address,address,address,uint256,address)": {
        "notice": "Emitted when a router withdraws liquidity from the contract"
      },
      "Prepared(bytes32,address,(address,address,bytes,uint32,uint32),address,address,uint256,uint256,uint256,address)": {
        "notice": "Emitted when `prepare` is called on the origin domain"
      },
      "Reconciled(bytes32,address,address,address,uint256,bytes32,(address,uint256,bytes32),address)": {
        "notice": "Emitted when `reconciled` is called by the bridge on the destination domain"
      },
      "RouterAdded(address,address)": {
        "notice": "Emitted when a new router is added"
      },
      "RouterRemoved(address,address)": {
        "notice": "Emitted when an existing router is removed"
      },
      "StableSwapAdded(bytes32,uint32,address,address)": {
        "notice": "Emitted when a new stable-swap AMM is added for the local <> adopted token"
      }
    },
    "kind": "user",
    "methods": {
      "acceptProposedOwner()": {
        "notice": "Transfers ownership of the contract to a new account (`newOwner`). Can only be called by the current owner."
      },
      "addLiquidity(uint256,address)": {
        "notice": "This is used by any router to increase their available liquidity for a given asset."
      },
      "addLiquidityFor(uint256,address,address)": {
        "notice": "This is used by anyone to increase a router's available liquidity for a given asset."
      },
      "addRelayerFees(address)": {
        "notice": "Used to add relayer fees in the native asset"
      },
      "addRouter(address)": {
        "notice": "Used to add routers that can transact crosschain"
      },
      "addStableSwapPool((uint32,bytes32),address)": {
        "notice": "Adds a stable swap pool for the local <> adopted asset."
      },
      "adoptedToCanonical(address)": {
        "notice": "Mapping of canonical to adopted assets on this domain"
      },
      "adoptedToLocalPools(bytes32)": {
        "notice": "Mapping holding the AMMs for swapping in and out of local assets"
      },
      "approvedAssets(bytes32)": {
        "notice": "Mapping of whitelisted assets on same domain as contract"
      },
      "approvedRouters(address)": {
        "notice": "Mapping of whitelisted router addresses."
      },
      "assetOwnershipTimestamp()": {
        "notice": "Returns the timestamp when asset ownership was last proposed to be renounced"
      },
      "bridgeRouter()": {
        "notice": "The local nomad bridge router"
      },
      "canonicalToAdopted(bytes32)": {
        "notice": "Mapping of adopted to canonical on this domain"
      },
      "delay()": {
        "notice": "Returns the delay period before a new owner can be accepted."
      },
      "domain()": {
        "notice": "The domain this contract exists on"
      },
      "fulfill(((address,address,bytes,uint32,uint32),address,address,uint32,uint256,uint256,bytes))": {
        "notice": "This function is called on the destination chain when the bridged asset should be swapped into the adopted asset and the external call executed. Can be used before reconcile (when providing fast liquidity) or after reconcile (when using liquidity from the bridge)"
      },
      "interpreter()": {
        "notice": "The external contract that will execute crosschain calldata"
      },
      "isAssetOwnershipRenounced()": {
        "notice": "Indicates if the ownership of the asset whitelist has been renounced"
      },
      "isRouterOwnershipRenounced()": {
        "notice": "Indicates if the ownership of the router whitelist has been renounced"
      },
      "nonce()": {
        "notice": "Nonce for the contract, used to keep unique transaction ids."
      },
      "owner()": {
        "notice": "Returns the address of the current owner."
      },
      "prepare(((address,address,bytes,uint32,uint32),address,uint256))": {
        "notice": "This function is called by a user who is looking to bridge funds"
      },
      "proposeAssetOwnershipRenunciation()": {
        "notice": "Indicates if the ownership of the asset whitelist has been renounced"
      },
      "proposeNewOwner(address)": {
        "notice": "Sets the timestamp for an owner to be proposed, and sets the newly proposed owner as step 1 in a 2-step process"
      },
      "proposeRouterOwnershipRenunciation()": {
        "notice": "Indicates if the ownership of the router whitelist has been renounced"
      },
      "proposed()": {
        "notice": "Returns the address of the proposed owner."
      },
      "proposedTimestamp()": {
        "notice": "Returns the address of the proposed owner."
      },
      "reconcile(bytes32,address,address,uint256,bytes32)": {
        "notice": "This function is called by the bridge router to pass through the information provided by the user on prepare."
      },
      "reconciledTransactions(bytes32)": {
        "notice": "Stores hash of the `ReconciledTransaction` (all information passed through bridge) on `reconcile`"
      },
      "removeAssetId(bytes32,address)": {
        "notice": "Used to remove assets from the whitelist"
      },
      "removeLiquidity(uint256,address,address)": {
        "notice": "This is used by any router to decrease their available liquidity for a given asset."
      },
      "removeRelayerFees(uint256,address)": {
        "notice": "Used to remove relayer fee in the native asset"
      },
      "removeRouter(address)": {
        "notice": "Used to remove routers that can transact crosschain"
      },
      "renounceAssetOwnership()": {
        "notice": "Indicates if the ownership of the asset whitelist has been renounced"
      },
      "renounceOwnership()": {
        "notice": "Renounces ownership of the contract after a delay"
      },
      "renounceRouterOwnership()": {
        "notice": "Indicates if the ownership of the asset whitelist has been renounced"
      },
      "renounced()": {
        "notice": "Indicates if the ownership has been renounced() by checking if current owner is address(0)"
      },
      "routedTransactions(bytes32)": {
        "notice": "Stores the transactionId => FulfilledTransaction mapping"
      },
      "routedTransactionsGas(bytes32)": {
        "notice": "Stores the transactionId => GasInfo mapping to track gas used on `fulfill`"
      },
      "routerBalances(address,address)": {
        "notice": "Mapping of router to available balance of an asset"
      },
      "routerOwnershipTimestamp()": {
        "notice": "Returns the timestamp when router ownership was last proposed to be renounced"
      },
      "routerRelayerFees(address)": {
        "notice": "Mapping of router to available relayer fee"
      },
      "setupAsset((uint32,bytes32),address,address)": {
        "notice": "Used to add supported assets. This is an admin only function"
      },
      "tokenRegistry()": {
        "notice": "The local nomad token registry"
      },
      "wrapper()": {
        "notice": "The address of the wrapper for the native asset on this domain"
      }
    },
    "version": 1
  },
  "storageLayout": {
    "storage": [
      {
        "astId": 598,
        "contract": "contracts/TransactionManager.sol:TransactionManager",
        "label": "_status",
        "offset": 0,
        "slot": "0",
        "type": "t_uint256"
      },
      {
        "astId": 3394,
        "contract": "contracts/TransactionManager.sol:TransactionManager",
        "label": "_owner",
        "offset": 0,
        "slot": "1",
        "type": "t_address"
      },
      {
        "astId": 3396,
        "contract": "contracts/TransactionManager.sol:TransactionManager",
        "label": "_proposed",
        "offset": 0,
        "slot": "2",
        "type": "t_address"
      },
      {
        "astId": 3398,
        "contract": "contracts/TransactionManager.sol:TransactionManager",
        "label": "_proposedOwnershipTimestamp",
        "offset": 0,
        "slot": "3",
        "type": "t_uint256"
      },
      {
        "astId": 3400,
        "contract": "contracts/TransactionManager.sol:TransactionManager",
        "label": "_routerOwnershipRenounced",
        "offset": 0,
        "slot": "4",
        "type": "t_bool"
      },
      {
        "astId": 3402,
        "contract": "contracts/TransactionManager.sol:TransactionManager",
        "label": "_routerOwnershipTimestamp",
        "offset": 0,
        "slot": "5",
        "type": "t_uint256"
      },
      {
        "astId": 3404,
        "contract": "contracts/TransactionManager.sol:TransactionManager",
        "label": "_assetOwnershipRenounced",
        "offset": 0,
        "slot": "6",
        "type": "t_bool"
      },
      {
        "astId": 3406,
        "contract": "contracts/TransactionManager.sol:TransactionManager",
        "label": "_assetOwnershipTimestamp",
        "offset": 0,
        "slot": "7",
        "type": "t_uint256"
      },
      {
        "astId": 4099,
        "contract": "contracts/TransactionManager.sol:TransactionManager",
        "label": "bridgeRouter",
        "offset": 0,
        "slot": "8",
        "type": "t_contract(BridgeRouter)14661"
      },
      {
        "astId": 4103,
        "contract": "contracts/TransactionManager.sol:TransactionManager",
        "label": "wrapper",
        "offset": 0,
        "slot": "9",
        "type": "t_contract(IWrapped)5947"
      },
      {
        "astId": 4107,
        "contract": "contracts/TransactionManager.sol:TransactionManager",
        "label": "nonce",
        "offset": 0,
        "slot": "10",
        "type": "t_uint256"
      },
      {
        "astId": 4111,
        "contract": "contracts/TransactionManager.sol:TransactionManager",
        "label": "interpreter",
        "offset": 0,
        "slot": "11",
        "type": "t_contract(IFulfillInterpreter)5911"
      },
      {
        "astId": 4115,
        "contract": "contracts/TransactionManager.sol:TransactionManager",
        "label": "tokenRegistry",
        "offset": 0,
        "slot": "12",
        "type": "t_contract(TokenRegistry)15988"
      },
      {
        "astId": 4121,
        "contract": "contracts/TransactionManager.sol:TransactionManager",
        "label": "adoptedToLocalPools",
        "offset": 0,
        "slot": "13",
        "type": "t_mapping(t_bytes32,t_contract(IStableSwap)5936)"
      },
      {
        "astId": 4127,
        "contract": "contracts/TransactionManager.sol:TransactionManager",
        "label": "routedTransactions",
        "offset": 0,
        "slot": "14",
        "type": "t_mapping(t_bytes32,t_struct(FulfilledTransaction)3920_storage)"
      },
      {
        "astId": 4133,
        "contract": "contracts/TransactionManager.sol:TransactionManager",
        "label": "routedTransactionsGas",
        "offset": 0,
        "slot": "15",
        "type": "t_mapping(t_bytes32,t_struct(GasInfo)3925_storage)"
      },
      {
        "astId": 4138,
        "contract": "contracts/TransactionManager.sol:TransactionManager",
        "label": "reconciledTransactions",
        "offset": 0,
        "slot": "16",
        "type": "t_mapping(t_bytes32,t_bytes32)"
      },
      {
        "astId": 4148,
        "contract": "contracts/TransactionManager.sol:TransactionManager",
        "label": "routerBalances",
        "offset": 0,
        "slot": "17",
        "type": "t_mapping(t_address,t_mapping(t_address,t_uint256))"
      },
      {
        "astId": 4153,
        "contract": "contracts/TransactionManager.sol:TransactionManager",
        "label": "routerRelayerFees",
        "offset": 0,
        "slot": "18",
        "type": "t_mapping(t_address,t_uint256)"
      },
      {
        "astId": 4158,
        "contract": "contracts/TransactionManager.sol:TransactionManager",
        "label": "approvedRouters",
        "offset": 0,
        "slot": "19",
        "type": "t_mapping(t_address,t_bool)"
      },
      {
        "astId": 4163,
        "contract": "contracts/TransactionManager.sol:TransactionManager",
        "label": "approvedAssets",
        "offset": 0,
        "slot": "20",
        "type": "t_mapping(t_bytes32,t_bool)"
      },
      {
        "astId": 4169,
        "contract": "contracts/TransactionManager.sol:TransactionManager",
        "label": "adoptedToCanonical",
        "offset": 0,
        "slot": "21",
        "type": "t_mapping(t_address,t_struct(TokenId)13167_storage)"
      },
      {
        "astId": 4174,
        "contract": "contracts/TransactionManager.sol:TransactionManager",
        "label": "canonicalToAdopted",
        "offset": 0,
        "slot": "22",
        "type": "t_mapping(t_bytes32,t_address)"
      }
    ],
    "types": {
      "t_address": {
        "encoding": "inplace",
        "label": "address",
        "numberOfBytes": "20"
      },
      "t_bool": {
        "encoding": "inplace",
        "label": "bool",
        "numberOfBytes": "1"
      },
      "t_bytes32": {
        "encoding": "inplace",
        "label": "bytes32",
        "numberOfBytes": "32"
      },
      "t_contract(BridgeRouter)14661": {
        "encoding": "inplace",
        "label": "contract BridgeRouter",
        "numberOfBytes": "20"
      },
      "t_contract(IFulfillInterpreter)5911": {
        "encoding": "inplace",
        "label": "contract IFulfillInterpreter",
        "numberOfBytes": "20"
      },
      "t_contract(IStableSwap)5936": {
        "encoding": "inplace",
        "label": "contract IStableSwap",
        "numberOfBytes": "20"
      },
      "t_contract(IWrapped)5947": {
        "encoding": "inplace",
        "label": "contract IWrapped",
        "numberOfBytes": "20"
      },
      "t_contract(TokenRegistry)15988": {
        "encoding": "inplace",
        "label": "contract TokenRegistry",
        "numberOfBytes": "20"
      },
      "t_mapping(t_address,t_bool)": {
        "encoding": "mapping",
        "key": "t_address",
        "label": "mapping(address => bool)",
        "numberOfBytes": "32",
        "value": "t_bool"
      },
      "t_mapping(t_address,t_mapping(t_address,t_uint256))": {
        "encoding": "mapping",
        "key": "t_address",
        "label": "mapping(address => mapping(address => uint256))",
        "numberOfBytes": "32",
        "value": "t_mapping(t_address,t_uint256)"
      },
      "t_mapping(t_address,t_struct(TokenId)13167_storage)": {
        "encoding": "mapping",
        "key": "t_address",
        "label": "mapping(address => struct BridgeMessage.TokenId)",
        "numberOfBytes": "32",
        "value": "t_struct(TokenId)13167_storage"
      },
      "t_mapping(t_address,t_uint256)": {
        "encoding": "mapping",
        "key": "t_address",
        "label": "mapping(address => uint256)",
        "numberOfBytes": "32",
        "value": "t_uint256"
      },
      "t_mapping(t_bytes32,t_address)": {
        "encoding": "mapping",
        "key": "t_bytes32",
        "label": "mapping(bytes32 => address)",
        "numberOfBytes": "32",
        "value": "t_address"
      },
      "t_mapping(t_bytes32,t_bool)": {
        "encoding": "mapping",
        "key": "t_bytes32",
        "label": "mapping(bytes32 => bool)",
        "numberOfBytes": "32",
        "value": "t_bool"
      },
      "t_mapping(t_bytes32,t_bytes32)": {
        "encoding": "mapping",
        "key": "t_bytes32",
        "label": "mapping(bytes32 => bytes32)",
        "numberOfBytes": "32",
        "value": "t_bytes32"
      },
      "t_mapping(t_bytes32,t_contract(IStableSwap)5936)": {
        "encoding": "mapping",
        "key": "t_bytes32",
        "label": "mapping(bytes32 => contract IStableSwap)",
        "numberOfBytes": "32",
        "value": "t_contract(IStableSwap)5936"
      },
      "t_mapping(t_bytes32,t_struct(FulfilledTransaction)3920_storage)": {
        "encoding": "mapping",
        "key": "t_bytes32",
        "label": "mapping(bytes32 => struct TransactionManager.FulfilledTransaction)",
        "numberOfBytes": "32",
        "value": "t_struct(FulfilledTransaction)3920_storage"
      },
      "t_mapping(t_bytes32,t_struct(GasInfo)3925_storage)": {
        "encoding": "mapping",
        "key": "t_bytes32",
        "label": "mapping(bytes32 => struct TransactionManager.GasInfo)",
        "numberOfBytes": "32",
        "value": "t_struct(GasInfo)3925_storage"
      },
      "t_struct(FulfilledTransaction)3920_storage": {
        "encoding": "inplace",
        "label": "struct TransactionManager.FulfilledTransaction",
        "members": [
          {
            "astId": 3915,
            "contract": "contracts/TransactionManager.sol:TransactionManager",
            "label": "router",
            "offset": 0,
            "slot": "0",
            "type": "t_address"
          },
          {
            "astId": 3917,
            "contract": "contracts/TransactionManager.sol:TransactionManager",
            "label": "amount",
            "offset": 0,
            "slot": "1",
            "type": "t_uint256"
          },
          {
            "astId": 3919,
            "contract": "contracts/TransactionManager.sol:TransactionManager",
            "label": "externalHash",
            "offset": 0,
            "slot": "2",
            "type": "t_bytes32"
          }
        ],
        "numberOfBytes": "96"
      },
      "t_struct(GasInfo)3925_storage": {
        "encoding": "inplace",
        "label": "struct TransactionManager.GasInfo",
        "members": [
          {
            "astId": 3922,
            "contract": "contracts/TransactionManager.sol:TransactionManager",
            "label": "gasUsed",
            "offset": 0,
            "slot": "0",
            "type": "t_uint256"
          },
          {
            "astId": 3924,
            "contract": "contracts/TransactionManager.sol:TransactionManager",
            "label": "gasPrice",
            "offset": 0,
            "slot": "1",
            "type": "t_uint256"
          }
        ],
        "numberOfBytes": "64"
      },
      "t_struct(TokenId)13167_storage": {
        "encoding": "inplace",
        "label": "struct BridgeMessage.TokenId",
        "members": [
          {
            "astId": 13164,
            "contract": "contracts/TransactionManager.sol:TransactionManager",
            "label": "domain",
            "offset": 0,
            "slot": "0",
            "type": "t_uint32"
          },
          {
            "astId": 13166,
            "contract": "contracts/TransactionManager.sol:TransactionManager",
            "label": "id",
            "offset": 0,
            "slot": "1",
            "type": "t_bytes32"
          }
        ],
        "numberOfBytes": "64"
      },
      "t_uint256": {
        "encoding": "inplace",
        "label": "uint256",
        "numberOfBytes": "32"
      },
      "t_uint32": {
        "encoding": "inplace",
        "label": "uint32",
        "numberOfBytes": "4"
      }
    }
  }
}