{
  "address": "0x03c6EBb00B6293cF0B6A74c3745397bEf662f958",
  "abi": [
    {
      "inputs": [
        {
          "internalType": "uint256",
          "name": "_chainId",
          "type": "uint256"
        }
      ],
      "stateMutability": "nonpayable",
      "type": "constructor"
    },
    {
      "anonymous": false,
      "inputs": [
        {
          "indexed": false,
          "internalType": "address",
          "name": "router",
          "type": "address"
        },
        {
          "indexed": false,
          "internalType": "address",
          "name": "assetId",
          "type": "address"
        },
        {
          "indexed": false,
          "internalType": "uint256",
          "name": "amount",
          "type": "uint256"
        }
      ],
      "name": "LiquidityAdded",
      "type": "event"
    },
    {
      "anonymous": false,
      "inputs": [
        {
          "indexed": false,
          "internalType": "address",
          "name": "router",
          "type": "address"
        },
        {
          "indexed": false,
          "internalType": "address",
          "name": "assetId",
          "type": "address"
        },
        {
          "indexed": false,
          "internalType": "uint256",
          "name": "amount",
          "type": "uint256"
        },
        {
          "indexed": false,
          "internalType": "address",
          "name": "recipient",
          "type": "address"
        }
      ],
      "name": "LiquidityRemoved",
      "type": "event"
    },
    {
      "anonymous": false,
      "inputs": [
        {
          "indexed": true,
          "internalType": "address",
          "name": "user",
          "type": "address"
        },
        {
          "indexed": true,
          "internalType": "address",
          "name": "router",
          "type": "address"
        },
        {
          "indexed": true,
          "internalType": "bytes32",
          "name": "transactionId",
          "type": "bytes32"
        },
        {
          "components": [
            {
              "internalType": "address",
              "name": "user",
              "type": "address"
            },
            {
              "internalType": "address",
              "name": "router",
              "type": "address"
            },
            {
              "internalType": "address",
              "name": "sendingAssetId",
              "type": "address"
            },
            {
              "internalType": "address",
              "name": "receivingAssetId",
              "type": "address"
            },
            {
              "internalType": "address",
              "name": "sendingChainFallback",
              "type": "address"
            },
            {
              "internalType": "address",
              "name": "receivingAddress",
              "type": "address"
            },
            {
              "internalType": "address",
              "name": "callTo",
              "type": "address"
            },
            {
              "internalType": "bytes32",
              "name": "callDataHash",
              "type": "bytes32"
            },
            {
              "internalType": "bytes32",
              "name": "transactionId",
              "type": "bytes32"
            },
            {
              "internalType": "uint256",
              "name": "sendingChainId",
              "type": "uint256"
            },
            {
              "internalType": "uint256",
              "name": "receivingChainId",
              "type": "uint256"
            },
            {
              "internalType": "uint256",
              "name": "amount",
              "type": "uint256"
            },
            {
              "internalType": "uint256",
              "name": "expiry",
              "type": "uint256"
            },
            {
              "internalType": "uint256",
              "name": "preparedBlockNumber",
              "type": "uint256"
            }
          ],
          "indexed": false,
          "internalType": "struct ITransactionManager.TransactionData",
          "name": "txData",
          "type": "tuple"
        },
        {
          "indexed": false,
          "internalType": "uint256",
          "name": "relayerFee",
          "type": "uint256"
        },
        {
          "indexed": false,
          "internalType": "address",
          "name": "caller",
          "type": "address"
        }
      ],
      "name": "TransactionCancelled",
      "type": "event"
    },
    {
      "anonymous": false,
      "inputs": [
        {
          "indexed": true,
          "internalType": "address",
          "name": "user",
          "type": "address"
        },
        {
          "indexed": true,
          "internalType": "address",
          "name": "router",
          "type": "address"
        },
        {
          "indexed": true,
          "internalType": "bytes32",
          "name": "transactionId",
          "type": "bytes32"
        },
        {
          "components": [
            {
              "internalType": "address",
              "name": "user",
              "type": "address"
            },
            {
              "internalType": "address",
              "name": "router",
              "type": "address"
            },
            {
              "internalType": "address",
              "name": "sendingAssetId",
              "type": "address"
            },
            {
              "internalType": "address",
              "name": "receivingAssetId",
              "type": "address"
            },
            {
              "internalType": "address",
              "name": "sendingChainFallback",
              "type": "address"
            },
            {
              "internalType": "address",
              "name": "receivingAddress",
              "type": "address"
            },
            {
              "internalType": "address",
              "name": "callTo",
              "type": "address"
            },
            {
              "internalType": "bytes32",
              "name": "callDataHash",
              "type": "bytes32"
            },
            {
              "internalType": "bytes32",
              "name": "transactionId",
              "type": "bytes32"
            },
            {
              "internalType": "uint256",
              "name": "sendingChainId",
              "type": "uint256"
            },
            {
              "internalType": "uint256",
              "name": "receivingChainId",
              "type": "uint256"
            },
            {
              "internalType": "uint256",
              "name": "amount",
              "type": "uint256"
            },
            {
              "internalType": "uint256",
              "name": "expiry",
              "type": "uint256"
            },
            {
              "internalType": "uint256",
              "name": "preparedBlockNumber",
              "type": "uint256"
            }
          ],
          "indexed": false,
          "internalType": "struct ITransactionManager.TransactionData",
          "name": "txData",
          "type": "tuple"
        },
        {
          "indexed": false,
          "internalType": "uint256",
          "name": "relayerFee",
          "type": "uint256"
        },
        {
          "indexed": false,
          "internalType": "bytes",
          "name": "signature",
          "type": "bytes"
        },
        {
          "indexed": false,
          "internalType": "bytes",
          "name": "callData",
          "type": "bytes"
        },
        {
          "indexed": false,
          "internalType": "address",
          "name": "caller",
          "type": "address"
        }
      ],
      "name": "TransactionFulfilled",
      "type": "event"
    },
    {
      "anonymous": false,
      "inputs": [
        {
          "indexed": true,
          "internalType": "address",
          "name": "user",
          "type": "address"
        },
        {
          "indexed": true,
          "internalType": "address",
          "name": "router",
          "type": "address"
        },
        {
          "indexed": true,
          "internalType": "bytes32",
          "name": "transactionId",
          "type": "bytes32"
        },
        {
          "components": [
            {
              "internalType": "address",
              "name": "user",
              "type": "address"
            },
            {
              "internalType": "address",
              "name": "router",
              "type": "address"
            },
            {
              "internalType": "address",
              "name": "sendingAssetId",
              "type": "address"
            },
            {
              "internalType": "address",
              "name": "receivingAssetId",
              "type": "address"
            },
            {
              "internalType": "address",
              "name": "sendingChainFallback",
              "type": "address"
            },
            {
              "internalType": "address",
              "name": "receivingAddress",
              "type": "address"
            },
            {
              "internalType": "address",
              "name": "callTo",
              "type": "address"
            },
            {
              "internalType": "bytes32",
              "name": "callDataHash",
              "type": "bytes32"
            },
            {
              "internalType": "bytes32",
              "name": "transactionId",
              "type": "bytes32"
            },
            {
              "internalType": "uint256",
              "name": "sendingChainId",
              "type": "uint256"
            },
            {
              "internalType": "uint256",
              "name": "receivingChainId",
              "type": "uint256"
            },
            {
              "internalType": "uint256",
              "name": "amount",
              "type": "uint256"
            },
            {
              "internalType": "uint256",
              "name": "expiry",
              "type": "uint256"
            },
            {
              "internalType": "uint256",
              "name": "preparedBlockNumber",
              "type": "uint256"
            }
          ],
          "indexed": false,
          "internalType": "struct ITransactionManager.TransactionData",
          "name": "txData",
          "type": "tuple"
        },
        {
          "indexed": false,
          "internalType": "address",
          "name": "caller",
          "type": "address"
        },
        {
          "indexed": false,
          "internalType": "bytes",
          "name": "encryptedCallData",
          "type": "bytes"
        },
        {
          "indexed": false,
          "internalType": "bytes",
          "name": "encodedBid",
          "type": "bytes"
        },
        {
          "indexed": false,
          "internalType": "bytes",
          "name": "bidSignature",
          "type": "bytes"
        }
      ],
      "name": "TransactionPrepared",
      "type": "event"
    },
    {
      "inputs": [],
      "name": "MIN_TIMEOUT",
      "outputs": [
        {
          "internalType": "uint256",
          "name": "",
          "type": "uint256"
        }
      ],
      "stateMutability": "view",
      "type": "function"
    },
    {
      "inputs": [
        {
          "internalType": "address",
          "name": "",
          "type": "address"
        },
        {
          "internalType": "uint256",
          "name": "",
          "type": "uint256"
        }
      ],
      "name": "activeTransactionBlocks",
      "outputs": [
        {
          "internalType": "uint256",
          "name": "",
          "type": "uint256"
        }
      ],
      "stateMutability": "view",
      "type": "function"
    },
    {
      "inputs": [
        {
          "internalType": "uint256",
          "name": "amount",
          "type": "uint256"
        },
        {
          "internalType": "address",
          "name": "assetId",
          "type": "address"
        }
      ],
      "name": "addLiquidity",
      "outputs": [],
      "stateMutability": "payable",
      "type": "function"
    },
    {
      "inputs": [
        {
          "components": [
            {
              "internalType": "address",
              "name": "user",
              "type": "address"
            },
            {
              "internalType": "address",
              "name": "router",
              "type": "address"
            },
            {
              "internalType": "address",
              "name": "sendingAssetId",
              "type": "address"
            },
            {
              "internalType": "address",
              "name": "receivingAssetId",
              "type": "address"
            },
            {
              "internalType": "address",
              "name": "sendingChainFallback",
              "type": "address"
            },
            {
              "internalType": "address",
              "name": "receivingAddress",
              "type": "address"
            },
            {
              "internalType": "address",
              "name": "callTo",
              "type": "address"
            },
            {
              "internalType": "bytes32",
              "name": "callDataHash",
              "type": "bytes32"
            },
            {
              "internalType": "bytes32",
              "name": "transactionId",
              "type": "bytes32"
            },
            {
              "internalType": "uint256",
              "name": "sendingChainId",
              "type": "uint256"
            },
            {
              "internalType": "uint256",
              "name": "receivingChainId",
              "type": "uint256"
            },
            {
              "internalType": "uint256",
              "name": "amount",
              "type": "uint256"
            },
            {
              "internalType": "uint256",
              "name": "expiry",
              "type": "uint256"
            },
            {
              "internalType": "uint256",
              "name": "preparedBlockNumber",
              "type": "uint256"
            }
          ],
          "internalType": "struct ITransactionManager.TransactionData",
          "name": "txData",
          "type": "tuple"
        },
        {
          "internalType": "uint256",
          "name": "relayerFee",
          "type": "uint256"
        },
        {
          "internalType": "bytes",
          "name": "signature",
          "type": "bytes"
        }
      ],
      "name": "cancel",
      "outputs": [
        {
          "components": [
            {
              "internalType": "address",
              "name": "user",
              "type": "address"
            },
            {
              "internalType": "address",
              "name": "router",
              "type": "address"
            },
            {
              "internalType": "address",
              "name": "sendingAssetId",
              "type": "address"
            },
            {
              "internalType": "address",
              "name": "receivingAssetId",
              "type": "address"
            },
            {
              "internalType": "address",
              "name": "sendingChainFallback",
              "type": "address"
            },
            {
              "internalType": "address",
              "name": "receivingAddress",
              "type": "address"
            },
            {
              "internalType": "address",
              "name": "callTo",
              "type": "address"
            },
            {
              "internalType": "bytes32",
              "name": "callDataHash",
              "type": "bytes32"
            },
            {
              "internalType": "bytes32",
              "name": "transactionId",
              "type": "bytes32"
            },
            {
              "internalType": "uint256",
              "name": "sendingChainId",
              "type": "uint256"
            },
            {
              "internalType": "uint256",
              "name": "receivingChainId",
              "type": "uint256"
            },
            {
              "internalType": "uint256",
              "name": "amount",
              "type": "uint256"
            },
            {
              "internalType": "uint256",
              "name": "expiry",
              "type": "uint256"
            },
            {
              "internalType": "uint256",
              "name": "preparedBlockNumber",
              "type": "uint256"
            }
          ],
          "internalType": "struct ITransactionManager.TransactionData",
          "name": "",
          "type": "tuple"
        }
      ],
      "stateMutability": "nonpayable",
      "type": "function"
    },
    {
      "inputs": [],
      "name": "chainId",
      "outputs": [
        {
          "internalType": "uint256",
          "name": "",
          "type": "uint256"
        }
      ],
      "stateMutability": "view",
      "type": "function"
    },
    {
      "inputs": [
        {
          "components": [
            {
              "internalType": "address",
              "name": "user",
              "type": "address"
            },
            {
              "internalType": "address",
              "name": "router",
              "type": "address"
            },
            {
              "internalType": "address",
              "name": "sendingAssetId",
              "type": "address"
            },
            {
              "internalType": "address",
              "name": "receivingAssetId",
              "type": "address"
            },
            {
              "internalType": "address",
              "name": "sendingChainFallback",
              "type": "address"
            },
            {
              "internalType": "address",
              "name": "receivingAddress",
              "type": "address"
            },
            {
              "internalType": "address",
              "name": "callTo",
              "type": "address"
            },
            {
              "internalType": "bytes32",
              "name": "callDataHash",
              "type": "bytes32"
            },
            {
              "internalType": "bytes32",
              "name": "transactionId",
              "type": "bytes32"
            },
            {
              "internalType": "uint256",
              "name": "sendingChainId",
              "type": "uint256"
            },
            {
              "internalType": "uint256",
              "name": "receivingChainId",
              "type": "uint256"
            },
            {
              "internalType": "uint256",
              "name": "amount",
              "type": "uint256"
            },
            {
              "internalType": "uint256",
              "name": "expiry",
              "type": "uint256"
            },
            {
              "internalType": "uint256",
              "name": "preparedBlockNumber",
              "type": "uint256"
            }
          ],
          "internalType": "struct ITransactionManager.TransactionData",
          "name": "txData",
          "type": "tuple"
        },
        {
          "internalType": "uint256",
          "name": "relayerFee",
          "type": "uint256"
        },
        {
          "internalType": "bytes",
          "name": "signature",
          "type": "bytes"
        },
        {
          "internalType": "bytes",
          "name": "callData",
          "type": "bytes"
        }
      ],
      "name": "fulfill",
      "outputs": [
        {
          "components": [
            {
              "internalType": "address",
              "name": "user",
              "type": "address"
            },
            {
              "internalType": "address",
              "name": "router",
              "type": "address"
            },
            {
              "internalType": "address",
              "name": "sendingAssetId",
              "type": "address"
            },
            {
              "internalType": "address",
              "name": "receivingAssetId",
              "type": "address"
            },
            {
              "internalType": "address",
              "name": "sendingChainFallback",
              "type": "address"
            },
            {
              "internalType": "address",
              "name": "receivingAddress",
              "type": "address"
            },
            {
              "internalType": "address",
              "name": "callTo",
              "type": "address"
            },
            {
              "internalType": "bytes32",
              "name": "callDataHash",
              "type": "bytes32"
            },
            {
              "internalType": "bytes32",
              "name": "transactionId",
              "type": "bytes32"
            },
            {
              "internalType": "uint256",
              "name": "sendingChainId",
              "type": "uint256"
            },
            {
              "internalType": "uint256",
              "name": "receivingChainId",
              "type": "uint256"
            },
            {
              "internalType": "uint256",
              "name": "amount",
              "type": "uint256"
            },
            {
              "internalType": "uint256",
              "name": "expiry",
              "type": "uint256"
            },
            {
              "internalType": "uint256",
              "name": "preparedBlockNumber",
              "type": "uint256"
            }
          ],
          "internalType": "struct ITransactionManager.TransactionData",
          "name": "",
          "type": "tuple"
        }
      ],
      "stateMutability": "nonpayable",
      "type": "function"
    },
    {
      "inputs": [
        {
          "internalType": "address",
          "name": "user",
          "type": "address"
        }
      ],
      "name": "getActiveTransactionBlocks",
      "outputs": [
        {
          "internalType": "uint256[]",
          "name": "",
          "type": "uint256[]"
        }
      ],
      "stateMutability": "view",
      "type": "function"
    },
    {
      "inputs": [
        {
          "components": [
            {
              "internalType": "address",
              "name": "user",
              "type": "address"
            },
            {
              "internalType": "address",
              "name": "router",
              "type": "address"
            },
            {
              "internalType": "address",
              "name": "sendingAssetId",
              "type": "address"
            },
            {
              "internalType": "address",
              "name": "receivingAssetId",
              "type": "address"
            },
            {
              "internalType": "address",
              "name": "sendingChainFallback",
              "type": "address"
            },
            {
              "internalType": "address",
              "name": "receivingAddress",
              "type": "address"
            },
            {
              "internalType": "address",
              "name": "callTo",
              "type": "address"
            },
            {
              "internalType": "uint256",
              "name": "sendingChainId",
              "type": "uint256"
            },
            {
              "internalType": "uint256",
              "name": "receivingChainId",
              "type": "uint256"
            },
            {
              "internalType": "bytes32",
              "name": "callDataHash",
              "type": "bytes32"
            },
            {
              "internalType": "bytes32",
              "name": "transactionId",
              "type": "bytes32"
            }
          ],
          "internalType": "struct ITransactionManager.InvariantTransactionData",
          "name": "invariantData",
          "type": "tuple"
        },
        {
          "internalType": "uint256",
          "name": "amount",
          "type": "uint256"
        },
        {
          "internalType": "uint256",
          "name": "expiry",
          "type": "uint256"
        },
        {
          "internalType": "bytes",
          "name": "encryptedCallData",
          "type": "bytes"
        },
        {
          "internalType": "bytes",
          "name": "encodedBid",
          "type": "bytes"
        },
        {
          "internalType": "bytes",
          "name": "bidSignature",
          "type": "bytes"
        }
      ],
      "name": "prepare",
      "outputs": [
        {
          "components": [
            {
              "internalType": "address",
              "name": "user",
              "type": "address"
            },
            {
              "internalType": "address",
              "name": "router",
              "type": "address"
            },
            {
              "internalType": "address",
              "name": "sendingAssetId",
              "type": "address"
            },
            {
              "internalType": "address",
              "name": "receivingAssetId",
              "type": "address"
            },
            {
              "internalType": "address",
              "name": "sendingChainFallback",
              "type": "address"
            },
            {
              "internalType": "address",
              "name": "receivingAddress",
              "type": "address"
            },
            {
              "internalType": "address",
              "name": "callTo",
              "type": "address"
            },
            {
              "internalType": "bytes32",
              "name": "callDataHash",
              "type": "bytes32"
            },
            {
              "internalType": "bytes32",
              "name": "transactionId",
              "type": "bytes32"
            },
            {
              "internalType": "uint256",
              "name": "sendingChainId",
              "type": "uint256"
            },
            {
              "internalType": "uint256",
              "name": "receivingChainId",
              "type": "uint256"
            },
            {
              "internalType": "uint256",
              "name": "amount",
              "type": "uint256"
            },
            {
              "internalType": "uint256",
              "name": "expiry",
              "type": "uint256"
            },
            {
              "internalType": "uint256",
              "name": "preparedBlockNumber",
              "type": "uint256"
            }
          ],
          "internalType": "struct ITransactionManager.TransactionData",
          "name": "",
          "type": "tuple"
        }
      ],
      "stateMutability": "payable",
      "type": "function"
    },
    {
      "inputs": [
        {
          "internalType": "uint256",
          "name": "amount",
          "type": "uint256"
        },
        {
          "internalType": "address",
          "name": "assetId",
          "type": "address"
        },
        {
          "internalType": "address payable",
          "name": "recipient",
          "type": "address"
        }
      ],
      "name": "removeLiquidity",
      "outputs": [],
      "stateMutability": "nonpayable",
      "type": "function"
    },
    {
      "inputs": [
        {
          "internalType": "address",
          "name": "",
          "type": "address"
        },
        {
          "internalType": "address",
          "name": "",
          "type": "address"
        }
      ],
      "name": "routerBalances",
      "outputs": [
        {
          "internalType": "uint256",
          "name": "",
          "type": "uint256"
        }
      ],
      "stateMutability": "view",
      "type": "function"
    },
    {
      "inputs": [
        {
          "internalType": "bytes32",
          "name": "",
          "type": "bytes32"
        }
      ],
      "name": "variantTransactionData",
      "outputs": [
        {
          "internalType": "bytes32",
          "name": "",
          "type": "bytes32"
        }
      ],
      "stateMutability": "view",
      "type": "function"
    }
  ],
  "transactionHash": "0xa6aa088643e4c23d3861a01817da7a9a77e4a2596a88d10ba2dfb8b0e2f314dd",
  "args": [
    "4"
  ],
  "solcInputHash": "fd88a05f42ec06e75903a1dff512dfd9",
  "bytecode": "0x60a06040523480156200001157600080fd5b506040516200343e3803806200343e833981016040819052620000349162000042565b60016000556080526200005b565b60006020828403121562000054578081fd5b5051919050565b6080516133a46200009a600039600081816101c00152818161054e01528181610cba0152818161166c0152818161169901526118d801526133a46000f3fe60806040526004361061009c5760003560e01c80638a0d24ac116100645780638a0d24ac1461018e5780639a8a0592146101ae578063b4238e84146101e2578063c95f9d0e14610202578063f31abcc414610217578063fd32af2f1461023757600080fd5b80632893a612146100a157806341258b5c146100d7578063543ad1df1461011d578063584aeac2146101345780635e67985614610161575b600080fd5b3480156100ad57600080fd5b506100c16100bc366004612a85565b61024a565b6040516100ce9190613210565b60405180910390f35b3480156100e357600080fd5b5061010f6100f23660046128c6565b600160209081526000928352604080842090915290825290205481565b6040519081526020016100ce565b34801561012957600080fd5b5061010f6201518081565b34801561014057600080fd5b5061015461014f3660046128a3565b610a9f565b6040516100ce9190612ef1565b34801561016d57600080fd5b5061010f61017c366004612949565b60036020526000908152604090205481565b34801561019a57600080fd5b5061010f6101a93660046128fe565b610b0b565b3480156101ba57600080fd5b5061010f7f000000000000000000000000000000000000000000000000000000000000000081565b3480156101ee57600080fd5b506100c16101fd366004612a29565b610b3c565b610215610210366004612bf1565b6110c5565b005b34801561022357600080fd5b50610215610232366004612c15565b6112e4565b6100c1610245366004612961565b6114c2565b610252612760565b6002600054141561027e5760405162461bcd60e51b815260040161027590612f35565b60405180910390fd5b6002600090815561028e88611dc3565b905061029988611f01565b600082815260036020526040902054146102f55760405162461bcd60e51b815260206004820152601d60248201527f66756c66696c6c3a20494e56414c49445f56415249414e545f444154410000006044820152606401610275565b428861018001351161033c5760405162461bcd60e51b815260206004820152601060248201526f199d5b199a5b1b0e881156141254915160821b6044820152606401610275565b6000886101a00135116103915760405162461bcd60e51b815260206004820152601a60248201527f66756c66696c6c3a20414c52454144595f434f4d504c455445440000000000006044820152606401610275565b61039e60208901896128a3565b6001600160a01b03166103b389898989611f6a565b6001600160a01b0316146104095760405162461bcd60e51b815260206004820152601a60248201527f66756c66696c6c3a20494e56414c49445f5349474e41545552450000000000006044820152606401610275565b876101600135871061045d5760405162461bcd60e51b815260206004820152601c60248201527f66756c66696c6c3a20494e56414c49445f52454c415945525f464545000000006044820152606401610275565b8760e001358484604051610472929190612e7e565b6040518091039020146104c75760405162461bcd60e51b815260206004820152601a60248201527f66756c66696c6c3a20494e56414c49445f43414c4c5f444154410000000000006044820152606401610275565b60408051606080820183526101608b01358083526101808c013560208085019182526000948601948552855190810192909252519381019390935290519082015260800160408051601f198184030181529181528151602092830120600084815260038452919091205561054c90610541908a018a6128a3565b896101a0013561200b565b7f00000000000000000000000000000000000000000000000000000000000000008861012001351415610672576105896040890160208a016128a3565b6001600160a01b0316336001600160a01b0316146105e95760405162461bcd60e51b815260206004820152601860248201527f66756c66696c6c3a20524f555445525f4d49534d4154434800000000000000006044820152606401610275565b6101608801356001600061060360408c0160208d016128a3565b6001600160a01b03166001600160a01b0316815260200190815260200160002060008a604001602081019061063891906128a3565b6001600160a01b03166001600160a01b03168152602001908152602001600020600082825461066791906132c6565b90915550610a079050565b6000610683886101608b01356132de565b905087156106f1576106a561069e60808b0160608c016128a3565b338a6121bf565b6106f15760405162461bcd60e51b815260206004820152601c60248201527f66756c66696c6c3a204645455f5452414e534645525f4641494c4544000000006044820152606401610275565b600061070360e08b0160c08c016128a3565b6001600160a01b031614156107875761073b61072560808b0160608c016128a3565b61073560c08c0160a08d016128a3565b836121bf565b6107825760405162461bcd60e51b8152602060048201526018602482015277199d5b199a5b1b0e881514905394d1915497d1905253115160421b6044820152606401610275565b610a05565b6107a761079a60808b0160608c016128a3565b6001600160a01b03161590565b80156107b35750600081115b1561082d576107e16107cb60808b0160608c016128a3565b6107db60e08c0160c08d016128a3565b836121f2565b61082d5760405162461bcd60e51b815260206004820152601860248201527f66756c66696c6c3a20415050524f56414c5f4641494c454400000000000000006044820152606401610275565b801561095e5761084360e08a0160c08b016128a3565b6001600160a01b031663bab81c4361086461079a60808d0160608e016128a3565b61086f576000610871565b825b61087e60208d018d6128a3565b8c61010001358d606001602081019061089791906128a3565b60405160e086901b6001600160e01b03191681526001600160a01b03938416600482015260248101929092529091166044820152606481018590526084016000604051808303818588803b1580156108ee57600080fd5b505af193505050508015610900575060015b61095e5761091761072560808b0160608c016128a3565b61095e5760405162461bcd60e51b8152602060048201526018602482015277199d5b199a5b1b0e881514905394d1915497d1905253115160421b6044820152606401610275565b61096e60e08a0160c08b016128a3565b6001600160a01b031663921d6a0861098960208c018c6128a3565b6101008c013561099f60808e0160608f016128a3565b858a8a6040518763ffffffff1660e01b81526004016109c396959493929190612eaa565b600060405180830381600087803b1580156109dd57600080fd5b505af19250505080156109ee575060015b610a055761073b61072560808b0160608c016128a3565b505b610100880135610a1d60408a0160208b016128a3565b6001600160a01b0316610a3360208b018b6128a3565b6001600160a01b03167f61399d5a2a6b2505b4a43caf76fc59136a7d0c50b01c303f0aa1530289efe4f78b8b8b8b8b8b33604051610a7797969594939291906131b2565b60405180910390a4610a8e36899003890189612b11565b600160005598975050505050505050565b6001600160a01b038116600090815260026020908152604091829020805483518184028101840190945280845260609392830182828015610aff57602002820191906000526020600020905b815481526020019060010190808311610aeb575b50505050509050919050565b60026020528160005260406000208181548110610b2757600080fd5b90600052602060002001600091509150505481565b610b44612760565b60026000541415610b675760405162461bcd60e51b815260040161027590612f35565b60026000908155610b7786611dc3565b9050610b8286611f01565b60008281526003602052604090205414610bde5760405162461bcd60e51b815260206004820152601c60248201527f63616e63656c3a20494e56414c49445f56415249414e545f44415441000000006044820152606401610275565b6000866101a0013511610c335760405162461bcd60e51b815260206004820152601960248201527f63616e63656c3a20414c52454144595f434f4d504c45544544000000000000006044820152606401610275565b60408051606080820183526101608901358083526101808a013560208085019182526000948601948552855190810192909252519381019390935290519082015260800160408051601f1981840301815291815281516020928301206000848152600384529190912055610cb890610cad908801886128a3565b876101a0013561200b565b7f00000000000000000000000000000000000000000000000000000000000000008661012001351415610f3c574286610180013510610dda57610d0160408701602088016128a3565b6001600160a01b0316336001600160a01b031614610d615760405162461bcd60e51b815260206004820152601a60248201527f63616e63656c3a20524f555445525f4d5553545f43414e43454c0000000000006044820152606401610275565b610d8f610d7460608801604089016128a3565b610d8460a0890160808a016128a3565b8861016001356121bf565b610dd55760405162461bcd60e51b815260206004820152601760248201527618d85b98d95b0e881514905394d1915497d19052531151604a1b6044820152606401610275565b611037565b8415610eba57610ded60208701876128a3565b6001600160a01b0316610e0287878787612246565b6001600160a01b031614610e545760405162461bcd60e51b815260206004820152601960248201527863616e63656c3a20494e56414c49445f5349474e415455524560381b6044820152606401610275565b610e6e610e6760808801606089016128a3565b33876121bf565b610eba5760405162461bcd60e51b815260206004820152601b60248201527f63616e63656c3a204645455f5452414e534645525f4641494c454400000000006044820152606401610275565b6000610ecb866101608901356132de565b9050610ef0610ee06060890160408a016128a3565b61073560a08a0160808b016128a3565b610f365760405162461bcd60e51b815260206004820152601760248201527618d85b98d95b0e881514905394d1915497d19052531151604a1b6044820152606401610275565b50611037565b4286610180013510610fbc57610f5560208701876128a3565b6001600160a01b0316610f6a87878787612246565b6001600160a01b031614610fbc5760405162461bcd60e51b815260206004820152601960248201527863616e63656c3a20494e56414c49445f5349474e415455524560381b6044820152606401610275565b61016086013560016000610fd660408a0160208b016128a3565b6001600160a01b03168152602081019190915260400160009081209061100260808a0160608b016128a3565b6001600160a01b03166001600160a01b03168152602001908152602001600020600082825461103191906132c6565b90915550505b61010086013561104d60408801602089016128a3565b6001600160a01b031661106360208901896128a3565b6001600160a01b03167f5f57de32eb53b76955a73b53e195e3bd70ef42f0d1d9c64d82abefdc47cc37dc89893360405161109f93929190613182565b60405180910390a46110b636879003870187612b11565b60016000559695505050505050565b600260005414156110e85760405162461bcd60e51b815260040161027590612f35565b60026000558161113a5760405162461bcd60e51b815260206004820152601c60248201527f6164644c69717569646974793a20414d4f554e545f49535f5a45524f000000006044820152606401610275565b6001600160a01b03811661119c578134146111975760405162461bcd60e51b815260206004820152601c60248201527f6164644c69717569646974793a2056414c55455f4d49534d41544348000000006044820152606401610275565b61125a565b34156111f65760405162461bcd60e51b815260206004820152602360248201527f6164644c69717569646974793a204554485f574954485f4552435f5452414e536044820152622322a960e91b6064820152608401610275565b6112028133308561229e565b61125a5760405162461bcd60e51b815260206004820152602360248201527f6164644c69717569646974793a2045524332305f5452414e534645525f46414960448201526213115160ea1b6064820152608401610275565b3360009081526001602090815260408083206001600160a01b03851684529091528120805484929061128d9084906132c6565b9091555050604080513381526001600160a01b03831660208201529081018390527f9d278c56ba6dc86a12eefe6b43112bd6e06648eb4ec0b950ee2d783d40e2acb49060600160405180910390a150506001600055565b600260005414156113075760405162461bcd60e51b815260040161027590612f35565b6002600055826113595760405162461bcd60e51b815260206004820152601f60248201527f72656d6f76654c69717569646974793a20414d4f554e545f49535f5a45524f006044820152606401610275565b3360009081526001602090815260408083206001600160a01b03861684529091529020548311156113d85760405162461bcd60e51b815260206004820152602360248201527f72656d6f76654c69717569646974793a20494e53554646494349454e545f46556044820152624e445360e81b6064820152608401610275565b3360009081526001602090815260408083206001600160a01b03861684529091528120805485929061140b9084906132de565b9091555061141c90508282856121bf565b6114685760405162461bcd60e51b815260206004820181905260248201527f72656d6f76654c69717569646974793a205452414e534645525f4641494c45446044820152606401610275565b604080513381526001600160a01b0384811660208301528183018690528316606082015290517f7da12116be8cb7af4b2d9e9b4a2ca2c3a3243ddd6fd3a94411902367b8eed5689181900360800190a15050600160005550565b6114ca612760565b600260005414156114ed5760405162461bcd60e51b815260040161027590612f35565b6002600090815561150160208c018c6128a3565b6001600160a01b0316141561154e5760405162461bcd60e51b8152602060048201526013602482015272707265706172653a20555345525f454d50545960681b6044820152606401610275565b600061156060408c0160208d016128a3565b6001600160a01b031614156115af5760405162461bcd60e51b8152602060048201526015602482015274707265706172653a20524f555445525f454d50545960581b6044820152606401610275565b60006115c160c08c0160a08d016128a3565b6001600160a01b031614156116185760405162461bcd60e51b815260206004820181905260248201527f707265706172653a20524543454956494e475f414444524553535f454d5054596044820152606401610275565b8961010001358a60e00135141561166a5760405162461bcd60e51b8152602060048201526016602482015275707265706172653a2053414d455f434841494e49445360501b6044820152606401610275565b7f00000000000000000000000000000000000000000000000000000000000000008a60e0013514806116c057507f00000000000000000000000000000000000000000000000000000000000000008a6101000135145b61170c5760405162461bcd60e51b815260206004820152601960248201527f707265706172653a20494e56414c49445f434841494e494453000000000000006044820152606401610275565b6201518061171a428a6132de565b10156117685760405162461bcd60e51b815260206004820152601860248201527f707265706172653a2054494d454f55545f544f4f5f4c4f5700000000000000006044820152606401610275565b600089116117b85760405162461bcd60e51b815260206004820152601760248201527f707265706172653a20414d4f554e545f49535f5a45524f0000000000000000006044820152606401610275565b60008a6040516020016117cb9190612f6c565b60408051601f19818403018152918152815160209283012060008181526003909352912054909150156118395760405162461bcd60e51b8152602060048201526016602482015275707265706172653a204449474553545f45584953545360501b6044820152606401610275565b60408051606080820183528c825260208083018d81524393850193845284519182018f9052519381019390935290519082015260800160408051601f198184030181529181528151602092830120600084815260038452918220556002916118a3908e018e6128a3565b6001600160a01b03168152602080820192909252604001600090812080546001810182559082529190204391015560e08b01357f00000000000000000000000000000000000000000000000000000000000000001415611a1e5761191061079a60608d0160408e016128a3565b15611969578934146119645760405162461bcd60e51b815260206004820152601760248201527f707265706172653a2056414c55455f4d49534d415443480000000000000000006044820152606401610275565b611c1a565b34156119b75760405162461bcd60e51b815260206004820152601e60248201527f707265706172653a204554485f574954485f4552435f5452414e5346455200006044820152606401610275565b6119d26119ca60608d0160408e016128a3565b33308d61229e565b6119645760405162461bcd60e51b815260206004820152601e60248201527f707265706172653a2045524332305f5452414e534645525f4641494c454400006044820152606401610275565b611a2e60408c0160208d016128a3565b6001600160a01b0316336001600160a01b031614611a8e5760405162461bcd60e51b815260206004820152601860248201527f707265706172653a20524f555445525f4d49534d4154434800000000000000006044820152606401610275565b3415611adc5760405162461bcd60e51b815260206004820181905260248201527f707265706172653a204554485f574954485f524f555445525f505245504152456044820152606401610275565b89600160008d6020016020810190611af491906128a3565b6001600160a01b03166001600160a01b0316815260200190815260200160002060008d6060016020810190611b2991906128a3565b6001600160a01b03166001600160a01b03168152602001908152602001600020541015611b985760405162461bcd60e51b815260206004820152601f60248201527f707265706172653a20494e53554646494349454e545f4c4951554944495459006044820152606401610275565b89600160008d6020016020810190611bb091906128a3565b6001600160a01b03166001600160a01b0316815260200190815260200160002060008d6060016020810190611be591906128a3565b6001600160a01b03166001600160a01b031681526020019081526020016000206000828254611c1491906132de565b90915550505b604080516101c0810190915260009080611c3760208f018f6128a3565b6001600160a01b031681526020018d6020016020810190611c5891906128a3565b6001600160a01b031681526020018d6040016020810190611c7991906128a3565b6001600160a01b031681526020018d6060016020810190611c9a91906128a3565b6001600160a01b031681526020018d6080016020810190611cbb91906128a3565b6001600160a01b031681526020018d60a0016020810190611cdc91906128a3565b6001600160a01b031681526020018d60c0016020810190611cfd91906128a3565b6001600160a01b031681526020018d610120013581526020018d610140013581526020018d60e0013581526020018d610100013581526020018c81526020018b815260200143815250905080610100015181602001516001600160a01b031682600001516001600160a01b03167f9a03967017bba72d6de8f56201584e10828c701f72d0da5705a5b42e73d875ab84338e8e8e8e8e8e604051611da798979695949392919061321f565b60405180910390a460016000559b9a5050505050505050505050565b604080516101608101909152600090819080611de260208601866128a3565b6001600160a01b03168152602001846020016020810190611e0391906128a3565b6001600160a01b03168152602001611e2160608601604087016128a3565b6001600160a01b03168152602001611e3f60808601606087016128a3565b6001600160a01b03168152602001611e5d60a08601608087016128a3565b6001600160a01b03168152602001611e7b60c0860160a087016128a3565b6001600160a01b03168152602001611e9960e0860160c087016128a3565b6001600160a01b03168152602001846101200135815260200184610140013581526020018460e001358152602001846101000135815250905080604051602001611ee3919061304c565b60405160208183030381529060405280519060200120915050919050565b604080516060808201835261016084013580835261018085013560208085019182526101a087013594860194855285519081019290925251938101939093529051908201526000906080015b604051602081830303815290604052805190602001209050919050565b600080611f7686611dc3565b60408051808201825282815260208082018981528351918201859052519281019290925291925061200090611fc4906060015b60405160208183030381529060405280519060200120612303565b86868080601f01602080910402602001604051908101604052809392919081815260200183838082843760009201919091525061233e92505050565b979650505050505050565b6001600160a01b038216600090815260026020526040812054612030906001906132de565b905060008167ffffffffffffffff81111561205b57634e487b7160e01b600052604160045260246000fd5b604051908082528060200260200182016040528015612084578160200160208202803683370190505b50905060008060005b6120988560016132c6565b81101561218c57821580156120f057506001600160a01b03871660009081526002602052604090208054879190839081106120e357634e487b7160e01b600052603260045260246000fd5b9060005260206000200154145b156120fe576001925061217a565b6001600160a01b038716600090815260026020526040902080548290811061213657634e487b7160e01b600052603260045260246000fd5b906000526020600020015484838151811061216157634e487b7160e01b600052603260045260246000fd5b60209081029190910101528161217681613325565b9250505b8061218481613325565b91505061208d565b506001600160a01b038616600090815260026020908152604090912084516121b6928601906127d4565b50505050505050565b60006001600160a01b038416156121e0576121db8484846123e8565b6121ea565b6121ea83836123f5565b949350505050565b6040516001600160a01b0383166024820152604481018290526000906121ea90859060640160408051601f198184030181529190526020810180516001600160e01b031663095ea7b360e01b179052612464565b60008061225286611dc3565b60408051606081018252828152602080820189905282518084018452600681526518d85b98d95b60d21b818301528284015291519293509161200091611fc491611fa991859101613132565b6040516001600160a01b03808516602483015283166044820152606481018290526000906122fa90869060840160408051601f198184030181529190526020810180516001600160e01b03166323b872dd60e01b179052612464565b95945050505050565b6040517f19457468657265756d205369676e6564204d6573736167653a0a3332000000006020820152603c8101829052600090605c01611f4d565b60008151604114156123725760208201516040830151606084015160001a61236886828585612531565b93505050506123e2565b81516040141561239a57602082015160408301516123918583836126d1565b925050506123e2565b60405162461bcd60e51b815260206004820152601f60248201527f45434453413a20696e76616c6964207369676e6174757265206c656e677468006044820152606401610275565b92915050565b60006121ea8484846126fb565b6000806000846001600160a01b03168460405160006040518083038185875af1925050503d8060008114612445576040519150601f19603f3d011682016040523d82523d6000602084013e61244a565b606091505b5091509150612459828261274f565b506001949350505050565b6000823b6124a85760405162461bcd60e51b81526020600482015260116024820152704c696245524332303a204e4f5f434f444560781b6044820152606401610275565b600080846001600160a01b0316846040516124c39190612e8e565b6000604051808303816000865af19150503d8060008114612500576040519150601f19603f3d011682016040523d82523d6000602084013e612505565b606091505b5091509150612514828261274f565b805115806122fa5750808060200190518101906122fa9190612929565b60007f7fffffffffffffffffffffffffffffff5d576e7357a4501ddfe92f46681b20a08211156125ae5760405162461bcd60e51b815260206004820152602260248201527f45434453413a20696e76616c6964207369676e6174757265202773272076616c604482015261756560f01b6064820152608401610275565b8360ff16601b14806125c357508360ff16601c145b61261a5760405162461bcd60e51b815260206004820152602260248201527f45434453413a20696e76616c6964207369676e6174757265202776272076616c604482015261756560f01b6064820152608401610275565b6040805160008082526020820180845288905260ff871692820192909252606081018590526080810184905260019060a0016020604051602081039080840390855afa15801561266e573d6000803e3d6000fd5b5050604051601f1901519150506001600160a01b0381166122fa5760405162461bcd60e51b815260206004820152601860248201527f45434453413a20696e76616c6964207369676e617475726500000000000000006044820152606401610275565b60006001600160ff1b03821660ff83901c601b016126f186828785612531565b9695505050505050565b6040516001600160a01b0383166024820152604481018290526000906121ea90859060640160408051601f198184030181529190526020810180516001600160e01b031663a9059cbb60e01b179052612464565b8161275c57805160208201fd5b5050565b604080516101c081018252600080825260208201819052918101829052606081018290526080810182905260a0810182905260c0810182905260e08101829052610100810182905261012081018290526101408101829052610160810182905261018081018290526101a081019190915290565b82805482825590600052602060002090810192821561280f579160200282015b8281111561280f5782518255916020019190600101906127f4565b5061281b92915061281f565b5090565b5b8082111561281b5760008155600101612820565b803561283f81613356565b919050565b60008083601f840112612855578182fd5b50813567ffffffffffffffff81111561286c578182fd5b60208301915083602082850101111561288457600080fd5b9250929050565b60006101c0828403121561289d578081fd5b50919050565b6000602082840312156128b4578081fd5b81356128bf81613356565b9392505050565b600080604083850312156128d8578081fd5b82356128e381613356565b915060208301356128f381613356565b809150509250929050565b60008060408385031215612910578182fd5b823561291b81613356565b946020939093013593505050565b60006020828403121561293a578081fd5b815180151581146128bf578182fd5b60006020828403121561295a578081fd5b5035919050565b6000806000806000806000806000898b03610200811215612980578586fd5b6101608082121561298f578687fd5b8b9a508a013598505061018089013596506101a089013567ffffffffffffffff808211156129bb578687fd5b6129c78d838e01612844565b90985096506101c08c01359150808211156129e0578586fd5b6129ec8d838e01612844565b90965094506101e08c0135915080821115612a05578384fd5b50612a128c828d01612844565b915080935050809150509295985092959850929598565b6000806000806102008587031215612a3f578384fd5b612a49868661288b565b93506101c085013592506101e085013567ffffffffffffffff811115612a6d578283fd5b612a7987828801612844565b95989497509550505050565b6000806000806000806102208789031215612a9e578182fd5b612aa8888861288b565b95506101c087013594506101e087013567ffffffffffffffff80821115612acd578384fd5b612ad98a838b01612844565b9096509450610200890135915080821115612af2578384fd5b50612aff89828a01612844565b979a9699509497509295939492505050565b60006101c08284031215612b23578081fd5b612b2b61328e565b612b3483612834565b8152612b4260208401612834565b6020820152612b5360408401612834565b6040820152612b6460608401612834565b6060820152612b7560808401612834565b6080820152612b8660a08401612834565b60a0820152612b9760c08401612834565b60c082015260e08381013590820152610100808401359082015261012080840135908201526101408084013590820152610160808401359082015261018080840135908201526101a0928301359281019290925250919050565b60008060408385031215612c03578182fd5b8235915060208301356128f381613356565b600080600060608486031215612c29578081fd5b833592506020840135612c3b81613356565b91506040840135612c4b81613356565b809150509250925092565b81835281816020850137506000828201602090810191909152601f909101601f19169091010190565b612c9982612c8c83612834565b6001600160a01b03169052565b612ca560208201612834565b6001600160a01b03166020830152612cbf60408201612834565b6001600160a01b03166040830152612cd960608201612834565b6001600160a01b03166060830152612cf360808201612834565b6001600160a01b03166080830152612d0d60a08201612834565b6001600160a01b031660a0830152612d2760c08201612834565b6001600160a01b031660c083015260e08181013590830152610100808201359083015261012080820135908301526101408082013590830152610160808201359083015261018080820135908301526101a090810135910152565b80516001600160a01b031682526020810151612da960208401826001600160a01b03169052565b506040810151612dc460408401826001600160a01b03169052565b506060810151612ddf60608401826001600160a01b03169052565b506080810151612dfa60808401826001600160a01b03169052565b5060a0810151612e1560a08401826001600160a01b03169052565b5060c0810151612e3060c08401826001600160a01b03169052565b5060e08181015190830152610100808201519083015261012080820151908301526101408082015190830152610160808201519083015261018080820151908301526101a090810151910152565b8183823760009101908152919050565b60008251612ea08184602087016132f5565b9190910192915050565b6001600160a01b03878116825260208201879052851660408201526060810184905260a060808201819052600090612ee59083018486612c56565b98975050505050505050565b6020808252825182820181905260009190848201906040850190845b81811015612f2957835183529284019291840191600101612f0d565b50909695505050505050565b6020808252601f908201527f5265656e7472616e637947756172643a207265656e7472616e742063616c6c00604082015260600190565b6101608101612f7e82612c8c85612834565b612f8a60208401612834565b6001600160a01b03166020830152612fa460408401612834565b6001600160a01b03166040830152612fbe60608401612834565b6001600160a01b03166060830152612fd860808401612834565b6001600160a01b03166080830152612ff260a08401612834565b6001600160a01b031660a083015261300c60c08401612834565b6001600160a01b031660c083015260e083810135908301526101008084013590830152610120808401359083015261014092830135929091019190915290565b81516001600160a01b031681526101608101602083015161307860208401826001600160a01b03169052565b50604083015161309360408401826001600160a01b03169052565b5060608301516130ae60608401826001600160a01b03169052565b5060808301516130c960808401826001600160a01b03169052565b5060a08301516130e460a08401826001600160a01b03169052565b5060c08301516130ff60c08401826001600160a01b03169052565b5060e083810151908301526101008084015190830152610120808401519083015261014092830151929091019190915290565b60208152815160208201526020820151604082015260006040830151606080840152805180608085015261316d8160a08601602085016132f5565b601f01601f19169290920160a0019392505050565b61020081016131918286612c7f565b6101c08201939093526001600160a01b03919091166101e090910152919050565b60006102406131c1838b612c7f565b886101c0840152806101e08401526131dc818401888a612c56565b90508281036102008401526131f2818688612c56565b91505060018060a01b03831661022083015298975050505050505050565b6101c081016123e28284612d82565b600061024061322e838c612d82565b6001600160a01b038a166101c08401526101e08301819052613253818401898b612c56565b9050828103610200840152613269818789612c56565b905082810361022084015261327f818587612c56565b9b9a5050505050505050505050565b6040516101c0810167ffffffffffffffff811182821017156132c057634e487b7160e01b600052604160045260246000fd5b60405290565b600082198211156132d9576132d9613340565b500190565b6000828210156132f0576132f0613340565b500390565b60005b838110156133105781810151838201526020016132f8565b8381111561331f576000848401525b50505050565b600060001982141561333957613339613340565b5060010190565b634e487b7160e01b600052601160045260246000fd5b6001600160a01b038116811461336b57600080fd5b5056fea2646970667358221220bfc23fc5c4d4646fed64ad83710ad92eb67f4e21bfbd72d09140c0a9458b1c7764736f6c63430008040033",
  "devdoc": {
    "author": "Connext <support@connext.network>",
    "kind": "dev",
    "methods": {
      "addLiquidity(uint256,address)": {
        "params": {
          "amount": "The amount of liquidity to add for the router",
          "assetId": "The address (or `address(0)` if native asset) of the                asset you're adding liquidity for"
        }
      },
      "cancel((address,address,address,address,address,address,address,bytes32,bytes32,uint256,uint256,uint256,uint256,uint256),uint256,bytes)": {
        "params": {
          "relayerFee": "The fee that should go to the relayer when they are                   calling the function for the user",
          "signature": "The user's signature that allows a transaction to be                  cancelled on the receiving chain.",
          "txData": "All of the data (invariant and variant) for a crosschain               transaction. The variant data provided is checked against               what was stored when the `prepare` function was called."
        }
      },
      "fulfill((address,address,address,address,address,address,address,bytes32,bytes32,uint256,uint256,uint256,uint256,uint256),uint256,bytes,bytes)": {
        "params": {
          "relayerFee": "The fee that should go to the relayer when they are                   calling the function on the receiving chain for the user",
          "signature": "The users signature on the invariant data + fee that                  can be used by the router to unlock the transaction on                   the sending chain",
          "txData": "All of the data (invariant and variant) for a crosschain               transaction. The variant data provided is checked against               what was stored when the `prepare` function was called."
        }
      },
      "prepare((address,address,address,address,address,address,address,uint256,uint256,bytes32,bytes32),uint256,uint256,bytes,bytes,bytes)": {
        "params": {
          "amount": "The amount of the transaction on this chain",
          "bidSignature": "The signature of the bidder on the encoded bid for                     this transaction. Only used within the function for                     event emission. The validity of the bid and                     bidSignature are enforced offchain",
          "encodedBid": "The encoded bid that was accepted by the user for this                   crosschain transfer. It is supplied as a param to the                   function but is only used in event emission",
          "encryptedCallData": "The calldata to be executed when the tx is                          fulfilled. Used in the function to allow the user                          to reconstruct the tx from events. Hash is stored                          onchain to prevent shenanigans.",
          "expiry": "The block.timestamp when the transaction will no longer be               fulfillable and is freely cancellable on this chain",
          "invariantData": "The data for a crosschain transaction that will                      not change between sending and receiving chains.                      The hash of this data is used as the key to store                       the inforamtion that does change between chains                       (amount, expiry,preparedBlock) for verification"
        }
      },
      "removeLiquidity(uint256,address,address)": {
        "params": {
          "amount": "The amount of liquidity to remove for the router",
          "assetId": "The address (or `address(0)` if native asset) of the                asset you're removing liquidity for",
          "recipient": "The address that will receive the liquidity being removed"
        }
      }
    },
    "stateVariables": {
      "MIN_TIMEOUT": {
        "details": "Minimum timeout (will be the lowest on the receiving chain)"
      },
      "activeTransactionBlocks": {
        "details": "Mapping of user address to blocks where active transfers      were created."
      },
      "chainId": {
        "details": "The chain id of the contract, is passed in to avoid any evm issues"
      },
      "routerBalances": {
        "details": "Mapping of router to balance specific to asset"
      },
      "variantTransactionData": {
        "details": "Mapping of hash of `InvariantTransactionData` to the hash"
      }
    },
    "title": "TransactionManager",
    "version": 1
  },
  "userdoc": {
    "kind": "user",
    "methods": {
      "addLiquidity(uint256,address)": {
        "notice": "This is used by any router to increase their available         liquidity for a given asset."
      },
      "cancel((address,address,address,address,address,address,address,bytes32,bytes32,uint256,uint256,uint256,uint256,uint256),uint256,bytes)": {
        "notice": "Any crosschain transaction can be cancelled after it has been         created to prevent indefinite lock up of funds. After the         transaction has expired, anyone can cancel it. Before the         expiry, only the recipient of the funds on the given chain is         able to cancel. On the sending chain, this means only the router         is able to cancel before the expiry, while only the user can         prematurely cancel on the receiving chain."
      },
      "fulfill((address,address,address,address,address,address,address,bytes32,bytes32,uint256,uint256,uint256,uint256,uint256),uint256,bytes,bytes)": {
        "notice": "This function completes a crosschain transaction. When called on         the receiving chain, the user reveals their signature on the         invariant parts of the transaction data and is sent the          appropriate amount. The router then uses this signature to         unlock the corresponding funds on the receiving chain, which are         then added back to their available liquidity. The user includes a         relayer fee since it is not assumed they will have gas on the         receiving chain. This function *must* be called before the         transaction expiry has elapsed."
      },
      "prepare((address,address,address,address,address,address,address,uint256,uint256,bytes32,bytes32),uint256,uint256,bytes,bytes,bytes)": {
        "notice": "This function creates a crosschain transaction. When called on         the sending chain, the user is expected to lock up funds. When         called on the receiving chain, the router deducts the transfer         amount from the available liquidity. The majority of the         information about a given transfer does not change between chains,         with three notable exceptions: `amount`, `expiry`, and          `preparedBlock`. The `amount` and `expiry` are decremented         between sending and receiving chains to provide an incentive for          the router to complete the transaction and time for the router to         fulfill the transaction on the sending chain after the unlocking         signature is revealed, respectively."
      },
      "removeLiquidity(uint256,address,address)": {
        "notice": "This is used by any router to decrease their available         liquidity for a given asset."
      }
    },
    "notice": "This contract holds the logic to facilitate crosschain transactions.         Transactions go through three phases:         1. Route Auction: User broadcasts to our network signalling their          desired route. Routers respond with sealed bids containing          commitments to fulfilling the transaction within a certain time and          price range.         2. Prepare: Once the auction is completed, the transaction can be          prepared. The user submits a transaction to `TransactionManager`          contract on sender-side chain containing router's signed bid. This          transaction locks up the users funds on the sending chiain. Upon          detecting an event containing their signed bid from the chain,          router submits the same transaction to `TransactionManager` on the          receiver-side chain, and locks up a corresponding amount of          liquidity. The amount locked on the receiving chain is `sending          amount - auction fee` so the router is incentivized to complete the          transaction.         3. Fulfill: Upon detecting the `TransactionPrepared` event on the          receiver-side chain, the user signs a message and sends it to a          relayer, who will earn a fee for submission. The relayer (which may          be the router) then submits the message to the `TransactionManager`          to complete their transaction on receiver-side chain and claim the          funds locked by the router. A relayer is used here to allow users          to submit transactions with arbitrary calldata on the receiving          chain without needing gas to do so. The router then submits the          same signed message and completes transaction on sender-side,          unlocking the original `amount`.         If a transaction is not fulfilled within a fixed timeout, it          reverts and can be reclaimed by the party that called `prepare` on          each chain (initiator). Additionally, transactions can be cancelled          unilaterally by the person owed funds on that chain (router for          sending chain, user for receiving chain) prior to expiry.",
    "version": 1
  },
  "storageLayout": {
    "storage": [
      {
        "astId": 10,
        "contract": "contracts/TransactionManager.sol:TransactionManager",
        "label": "_status",
        "offset": 0,
        "slot": "0",
        "type": "t_uint256"
      },
      {
        "astId": 1208,
        "contract": "contracts/TransactionManager.sol:TransactionManager",
        "label": "routerBalances",
        "offset": 0,
        "slot": "1",
        "type": "t_mapping(t_address,t_mapping(t_address,t_uint256))"
      },
      {
        "astId": 1214,
        "contract": "contracts/TransactionManager.sol:TransactionManager",
        "label": "activeTransactionBlocks",
        "offset": 0,
        "slot": "2",
        "type": "t_mapping(t_address,t_array(t_uint256)dyn_storage)"
      },
      {
        "astId": 1219,
        "contract": "contracts/TransactionManager.sol:TransactionManager",
        "label": "variantTransactionData",
        "offset": 0,
        "slot": "3",
        "type": "t_mapping(t_bytes32,t_bytes32)"
      }
    ],
    "types": {
      "t_address": {
        "encoding": "inplace",
        "label": "address",
        "numberOfBytes": "20"
      },
      "t_array(t_uint256)dyn_storage": {
        "base": "t_uint256",
        "encoding": "dynamic_array",
        "label": "uint256[]",
        "numberOfBytes": "32"
      },
      "t_bytes32": {
        "encoding": "inplace",
        "label": "bytes32",
        "numberOfBytes": "32"
      },
      "t_mapping(t_address,t_array(t_uint256)dyn_storage)": {
        "encoding": "mapping",
        "key": "t_address",
        "label": "mapping(address => uint256[])",
        "numberOfBytes": "32",
        "value": "t_array(t_uint256)dyn_storage"
      },
      "t_mapping(t_address,t_mapping(t_address,t_uint256))": {
        "encoding": "mapping",
        "key": "t_address",
        "label": "mapping(address => mapping(address => uint256))",
        "numberOfBytes": "32",
        "value": "t_mapping(t_address,t_uint256)"
      },
      "t_mapping(t_address,t_uint256)": {
        "encoding": "mapping",
        "key": "t_address",
        "label": "mapping(address => uint256)",
        "numberOfBytes": "32",
        "value": "t_uint256"
      },
      "t_mapping(t_bytes32,t_bytes32)": {
        "encoding": "mapping",
        "key": "t_bytes32",
        "label": "mapping(bytes32 => bytes32)",
        "numberOfBytes": "32",
        "value": "t_bytes32"
      },
      "t_uint256": {
        "encoding": "inplace",
        "label": "uint256",
        "numberOfBytes": "32"
      }
    }
  }
}